{
  "hash": "0x30b810c9bf6db631b5af1c603d34672d355ae754fd108d5c4f3fcdd247ea452d",
  "parentHash": "0x2288c3a91e65b81e91248fa57b13efcd6c2971290cb224003dea515a437b183c",
  "number": 68651,
  "timestamp": 1439291372,
  "nonce": "0x8ca28fad2e9f3043",
  "difficulty": 2021173761389,
  "gasLimit": {
    "_hex": "0x2fefd8"
  },
  "gasUsed": {
    "_hex": "0x29040"
  },
  "miner": "0x47ff6576639c2e94762eA5443978D7681C0E78DC",
  "extraData": "0x476574682f76312e302e312f6c696e75782f676f312e342e32",
  "transactions": [
    {
      "hash": "0x188d2911410429995d1e51b37312ac57abacd78311b04a47e8a74551e17dc809",
      "blockHash": "0x30b810c9bf6db631b5af1c603d34672d355ae754fd108d5c4f3fcdd247ea452d",
      "blockNumber": 68651,
      "transactionIndex": 0,
      "confirmations": null,
      "from": "0xfBCdd20040505C50cC1BF971923C9144E1C88D4e",
      "gasPrice": {
        "_hex": "0xba43b7400"
      },
      "gasLimit": {
        "_hex": "0x5208"
      },
      "to": "0x21ed96c11BF1B0a620A18822793e9F96d301ddDB",
      "value": {
        "_hex": "0x1c045218ee54000"
      },
      "nonce": 1,
      "data": "0x",
      "r": "0xc40dd467f6897d0b290ba39a4f87a038179b2c021ba7e3c794d11c32e630a7c7",
      "s": "0x104c292e4cf1e71a2ab5e954bfd90b6fffaa8f854067ef1e5d7eca1ab9aa8be4",
      "v": 27,
      "creates": null,
      "raw": "0xf86c01850ba43b74008252089421ed96c11bf1b0a620a18822793e9f96d301dddb8801c045218ee54000801ba0c40dd467f6897d0b290ba39a4f87a038179b2c021ba7e3c794d11c32e630a7c7a0104c292e4cf1e71a2ab5e954bfd90b6fffaa8f854067ef1e5d7eca1ab9aa8be4",
      "networkId": 0,
      "chainId": 0
    },
    {
      "hash": "0xbdea86749508d8ebf311189a77a3e99172db2d4ffc8b979699d1025cafd1f584",
      "blockHash": "0x30b810c9bf6db631b5af1c603d34672d355ae754fd108d5c4f3fcdd247ea452d",
      "blockNumber": 68651,
      "transactionIndex": 1,
      "confirmations": null,
      "from": "0x425cc68d59C45f9275D308ac97cE4DCe736a6028",
      "gasPrice": {
        "_hex": "0xba43b7400"
      },
      "gasLimit": {
        "_hex": "0x5208"
      },
      "to": "0x4a7003798C6Ef43Eda17c4F26BD5f08bD36B5180",
      "value": {
        "_hex": "0x1c045218ee54000"
      },
      "nonce": 1,
      "data": "0x",
      "r": "0xca07bd8c55a5727aae9e54cc202f73be23c6b280ca0e7c5dcfac5a7434751ff4",
      "s": "0x4bd542c781827c9d2084ac4fbdadc06b7705c1a6c4ae2d474c03676175931409",
      "v": 27,
      "creates": null,
      "raw": "0xf86c01850ba43b7400825208944a7003798c6ef43eda17c4f26bd5f08bd36b51808801c045218ee54000801ba0ca07bd8c55a5727aae9e54cc202f73be23c6b280ca0e7c5dcfac5a7434751ff4a04bd542c781827c9d2084ac4fbdadc06b7705c1a6c4ae2d474c03676175931409",
      "networkId": 0,
      "chainId": 0
    },
    {
      "hash": "0x553af5ff04c7adf5d83bef015c9bd02920a510f07765c28e0bea25935b790be0",
      "blockHash": "0x30b810c9bf6db631b5af1c603d34672d355ae754fd108d5c4f3fcdd247ea452d",
      "blockNumber": 68651,
      "transactionIndex": 2,
      "confirmations": null,
      "from": "0xDf64D41C8c22b87cD729799Bc808110a5039e2Ca",
      "gasPrice": {
        "_hex": "0xba43b7400"
      },
      "gasLimit": {
        "_hex": "0x5208"
      },
      "to": "0x4d293a52b7838A44EE791C2ABfC09daBd41985aE",
      "value": {
        "_hex": "0x1c045218ee54000"
      },
      "nonce": 1,
      "data": "0x",
      "r": "0x80fa3503876c1dcdc11924f5f40eb161eda9a56fa005f6227645dcc6cbe0ccbf",
      "s": "0x0e455872910312a86b5c78e504fb2a549911a1e27f6361c4593c3da3a1b4ab1b",
      "v": 28,
      "creates": null,
      "raw": "0xf86c01850ba43b7400825208944d293a52b7838a44ee791c2abfc09dabd41985ae8801c045218ee54000801ca080fa3503876c1dcdc11924f5f40eb161eda9a56fa005f6227645dcc6cbe0ccbfa00e455872910312a86b5c78e504fb2a549911a1e27f6361c4593c3da3a1b4ab1b",
      "networkId": 0,
      "chainId": 0
    },
    {
      "hash": "0x53f4b077cd22d0d07474ef424ad128265d3b8e36a454e54a83ac28188bcdc36e",
      "blockHash": "0x30b810c9bf6db631b5af1c603d34672d355ae754fd108d5c4f3fcdd247ea452d",
      "blockNumber": 68651,
      "transactionIndex": 3,
      "confirmations": null,
      "from": "0xc962e9f5Bd90b005bDF6f0674E41FAEF6f85C7D0",
      "gasPrice": {
        "_hex": "0xba43b7400"
      },
      "gasLimit": {
        "_hex": "0x5208"
      },
      "to": "0x26CE3503991060FdC3D8c9b7c27da33742D07b10",
      "value": {
        "_hex": "0x1c045218ee54000"
      },
      "nonce": 1,
      "data": "0x",
      "r": "0x199ea019efa0ebe969ca4b3294ae7617beb513a3c109233cf4d9c837c79adcf0",
      "s": "0x01518a6e8dc9eac3c63df2e9094a3bcda351f99f9e415ff0b89d7c4bd4d61db9",
      "v": 28,
      "creates": null,
      "raw": "0xf86c01850ba43b74008252089426ce3503991060fdc3d8c9b7c27da33742d07b108801c045218ee54000801ca0199ea019efa0ebe969ca4b3294ae7617beb513a3c109233cf4d9c837c79adcf0a001518a6e8dc9eac3c63df2e9094a3bcda351f99f9e415ff0b89d7c4bd4d61db9",
      "networkId": 0,
      "chainId": 0
    },
    {
      "hash": "0x46a5d15cc81a668d99c962b27851f81323a011599b444946dc94eaf83de14e12",
      "blockHash": "0x30b810c9bf6db631b5af1c603d34672d355ae754fd108d5c4f3fcdd247ea452d",
      "blockNumber": 68651,
      "transactionIndex": 4,
      "confirmations": null,
      "from": "0x700c6b52a029A3596fa0b4a5537d651CbfC4688C",
      "gasPrice": {
        "_hex": "0xba43b7400"
      },
      "gasLimit": {
        "_hex": "0x5208"
      },
      "to": "0x5843E88CE5f22026758c6bd772eF4c9724E82e93",
      "value": {
        "_hex": "0x1c045218ee54000"
      },
      "nonce": 1,
      "data": "0x",
      "r": "0xdbc63949c36cfda2e510e52c25ef703ebfebddb2aeca962c38ce3dd0f6e8a0a6",
      "s": "0x3c4f2ea4ce13eed4eae5b68be4214964123d32d973908dc43cc29d3b1aee7dc3",
      "v": 27,
      "creates": null,
      "raw": "0xf86c01850ba43b7400825208945843e88ce5f22026758c6bd772ef4c9724e82e938801c045218ee54000801ba0dbc63949c36cfda2e510e52c25ef703ebfebddb2aeca962c38ce3dd0f6e8a0a6a03c4f2ea4ce13eed4eae5b68be4214964123d32d973908dc43cc29d3b1aee7dc3",
      "networkId": 0,
      "chainId": 0
    },
    {
      "hash": "0xa3b7187cf3f510df5e2fdf0d614199f0ecee6e3b9d3da3200efddd39a14c2330",
      "blockHash": "0x30b810c9bf6db631b5af1c603d34672d355ae754fd108d5c4f3fcdd247ea452d",
      "blockNumber": 68651,
      "transactionIndex": 5,
      "confirmations": null,
      "from": "0xd7063494BeA35C4C31c4E01116D0b6cB92A09367",
      "gasPrice": {
        "_hex": "0xba43b7400"
      },
      "gasLimit": {
        "_hex": "0x5208"
      },
      "to": "0xB3266dFBd5D48973a1cB6C58C949aeDF28Ef8f52",
      "value": {
        "_hex": "0x1c045218ee54000"
      },
      "nonce": 1,
      "data": "0x",
      "r": "0x9a19b3880927c4fedd5f33ffbd7b02de58c30ec54692ef1b4b56712b0e424039",
      "s": "0x39a3ddc2e316582a05241c3892554941ccae608f02db3d750f213db37d08d3b9",
      "v": 28,
      "creates": null,
      "raw": "0xf86c01850ba43b740082520894b3266dfbd5d48973a1cb6c58c949aedf28ef8f528801c045218ee54000801ca09a19b3880927c4fedd5f33ffbd7b02de58c30ec54692ef1b4b56712b0e424039a039a3ddc2e316582a05241c3892554941ccae608f02db3d750f213db37d08d3b9",
      "networkId": 0,
      "chainId": 0
    },
    {
      "hash": "0xb1adbb2a5801393897096dc1d421f3ee9be9c473e530c7c15e79482516c86061",
      "blockHash": "0x30b810c9bf6db631b5af1c603d34672d355ae754fd108d5c4f3fcdd247ea452d",
      "blockNumber": 68651,
      "transactionIndex": 6,
      "confirmations": null,
      "from": "0x879773d80638c5c700C69eA59A4BC342fC0F24F0",
      "gasPrice": {
        "_hex": "0xba43b7400"
      },
      "gasLimit": {
        "_hex": "0x5208"
      },
      "to": "0xE88E2A3ba421815f8B1117dd99A03b59dE07bF7a",
      "value": {
        "_hex": "0x1c045218ee54000"
      },
      "nonce": 1,
      "data": "0x",
      "r": "0x56ca9cb955b8ae127a7a9ff0f0a8a490a4d009721af7b23aea474d08ef5863c7",
      "s": "0x46372359bf94b437714c544ca22c4938ac3a77d9c41ca768af3b92a790deeec9",
      "v": 27,
      "creates": null,
      "raw": "0xf86c01850ba43b740082520894e88e2a3ba421815f8b1117dd99a03b59de07bf7a8801c045218ee54000801ba056ca9cb955b8ae127a7a9ff0f0a8a490a4d009721af7b23aea474d08ef5863c7a046372359bf94b437714c544ca22c4938ac3a77d9c41ca768af3b92a790deeec9",
      "networkId": 0,
      "chainId": 0
    },
    {
      "hash": "0x0a4e12120269c2d84483add43c151274532e56beb69ed2f6e0fd8bddf7587485",
      "blockHash": "0x30b810c9bf6db631b5af1c603d34672d355ae754fd108d5c4f3fcdd247ea452d",
      "blockNumber": 68651,
      "transactionIndex": 7,
      "confirmations": null,
      "from": "0x92053a68A72e1C43730f0AEE5e76aBE0B4188e97",
      "gasPrice": {
        "_hex": "0xba43b7400"
      },
      "gasLimit": {
        "_hex": "0x5208"
      },
      "to": "0xE4c12fD570f076F76CA78D1BF128E59041304f61",
      "value": {
        "_hex": "0x1c045218ee54000"
      },
      "nonce": 1,
      "data": "0x",
      "r": "0x37c95bf4dad4a7967ecf99c539de7ff799aed2dfd1270b9d885d78bccc9706c4",
      "s": "0x3586c91fa6d53e702a02029f5d8c8338fbce2c4f156e86b59d1670e95c7af601",
      "v": 27,
      "creates": null,
      "raw": "0xf86c01850ba43b740082520894e4c12fd570f076f76ca78d1bf128e59041304f618801c045218ee54000801ba037c95bf4dad4a7967ecf99c539de7ff799aed2dfd1270b9d885d78bccc9706c4a03586c91fa6d53e702a02029f5d8c8338fbce2c4f156e86b59d1670e95c7af601",
      "networkId": 0,
      "chainId": 0
    }
  ]
}