{
  "hash": "0x7e14e4a6e0a8e6a2626d6ebaaf4be24292fe26d6411d5012ed034da82f7d9b9a",
  "parentHash": "0xb6da644a68f22deb019cebcabb3cb8be236a00a7dc888526b307feb58e30481a",
  "number": 110064,
  "timestamp": 1439967452,
  "nonce": "0xdd4d857a8260b6a6",
  "difficulty": 4390764590256,
  "gasLimit": {
    "_hex": "0x2fefd8"
  },
  "gasUsed": {
    "_hex": "0x5208"
  },
  "miner": "0x6541237dAaFf6688A79f9F2F370Ca0E7Ee20BD33",
  "extraData": "0x476574682f76312e302e312f77696e646f77732f676f312e342e32",
  "transactions": [
    {
      "hash": "0xc282c706b0fb5539eb5e55e052dd75b99751dd1857422502c0efca15da197701",
      "blockHash": "0x7e14e4a6e0a8e6a2626d6ebaaf4be24292fe26d6411d5012ed034da82f7d9b9a",
      "blockNumber": 110064,
      "transactionIndex": 0,
      "confirmations": null,
      "from": "0xCDca43540178fF7823Aa78B84F70b90A6BfcD605",
      "gasPrice": {
        "_hex": "0xd3222353d"
      },
      "gasLimit": {
        "_hex": "0x5208"
      },
      "to": "0x32Be343B94f860124dC4fEe278FDCBD38C102D88",
      "value": {
        "_hex": "0xa92152ce695210000"
      },
      "nonce": 1,
      "data": "0x",
      "r": "0x3a2e59f41780bef8ac9841117b01fcf95850e5cad13871812f49df29b3a9aae4",
      "s": "0x2a6514cfa5f7e1c367b795bab2233a4183f6c5894879b49f5300e7cc89293003",
      "v": 27,
      "creates": null,
      "raw": "0xf86d01850d3222353d8252089432be343b94f860124dc4fee278fdcbd38c102d88890a92152ce695210000801ba03a2e59f41780bef8ac9841117b01fcf95850e5cad13871812f49df29b3a9aae4a02a6514cfa5f7e1c367b795bab2233a4183f6c5894879b49f5300e7cc89293003",
      "networkId": 0,
      "chainId": 0
    }
  ]
}