{
  "hash": "0xfb2a325bcc62c5051d0a80bd8173260ff41c334697361e29f230c78ee813483b",
  "parentHash": "0x9e77d8a8e5f80adff8c59dc087fa57d78cae9da13e23f041e8e1335501ac5602",
  "number": 58308,
  "timestamp": 1439118487,
  "nonce": "0x22b4240f28021cec",
  "difficulty": 1714950192056,
  "gasLimit": {
    "_hex": "0x2fefd8"
  },
  "gasUsed": {
    "_hex": "0xa410"
  },
  "miner": "0x5B3e850E39e6f2C7dD38707b649e2B3536F14C0b",
  "extraData": "0x476574682f76312e302e312f64617277696e2f676f312e342e32",
  "transactions": [
    {
      "hash": "0x6811b5eb6d687b6076a591080dac916e1a80f4f8494f49ec74ad9e3f9a69cf17",
      "blockHash": "0xfb2a325bcc62c5051d0a80bd8173260ff41c334697361e29f230c78ee813483b",
      "blockNumber": 58308,
      "transactionIndex": 0,
      "confirmations": null,
      "from": "0x931Ac2444b057f80A06A4FB627f26FFA5CE41184",
      "gasPrice": {
        "_hex": "0xd545cca74"
      },
      "gasLimit": {
        "_hex": "0x5208"
      },
      "to": "0x32Be343B94f860124dC4fEe278FDCBD38C102D88",
      "value": {
        "_hex": "0x1e5b4b51f3e7da000"
      },
      "nonce": 3,
      "data": "0x",
      "r": "0x473fd2a31a5e926b4d04b8eb9e6fe587491e0c2a7a07b1447e29da9cb322b080",
      "s": "0x53f3fabe099d3fdda159d341e3ebf8cbae8b8229b75bdb848cc1050899aa3601",
      "v": 28,
      "creates": null,
      "raw": "0xf86d03850d545cca748252089432be343b94f860124dc4fee278fdcbd38c102d888901e5b4b51f3e7da000801ca0473fd2a31a5e926b4d04b8eb9e6fe587491e0c2a7a07b1447e29da9cb322b080a053f3fabe099d3fdda159d341e3ebf8cbae8b8229b75bdb848cc1050899aa3601",
      "networkId": 0,
      "chainId": 0
    },
    {
      "hash": "0x4368d2aad130eae2b28e5bf0c129786f10982058f592827b8ccfff64bf6876df",
      "blockHash": "0xfb2a325bcc62c5051d0a80bd8173260ff41c334697361e29f230c78ee813483b",
      "blockNumber": 58308,
      "transactionIndex": 1,
      "confirmations": null,
      "from": "0x6De181Fc4C140FA31F196e5393516c49EEeBdAd3",
      "gasPrice": {
        "_hex": "0xd545cca74"
      },
      "gasLimit": {
        "_hex": "0x5208"
      },
      "to": "0x32Be343B94f860124dC4fEe278FDCBD38C102D88",
      "value": {
        "_hex": "0x91b73abd397810000"
      },
      "nonce": 3,
      "data": "0x",
      "r": "0x751dd7e7c5654de21a7e056ea9ac1ba768180355bb3c7215f161ab93b825f1a0",
      "s": "0x09834b2219acd443c5a7124a88404f4f1730a786819fb970ffa4ba6a6ff98f39",
      "v": 27,
      "creates": null,
      "raw": "0xf86d03850d545cca748252089432be343b94f860124dc4fee278fdcbd38c102d8889091b73abd397810000801ba0751dd7e7c5654de21a7e056ea9ac1ba768180355bb3c7215f161ab93b825f1a0a009834b2219acd443c5a7124a88404f4f1730a786819fb970ffa4ba6a6ff98f39",
      "networkId": 0,
      "chainId": 0
    }
  ]
}