{
  "hash": "0x24f087ca622ac2859be03d1e49bb4ac04fd9ea7f835082d70e8e9e8fe720f007",
  "parentHash": "0xee445cc146ab2c3698a57e2c97f19aea91d4d48830b308f6b31af92d1c7e87b1",
  "number": 121688,
  "timestamp": 1440181023,
  "nonce": "0xe307268a54b38130",
  "difficulty": 4475533235709,
  "gasLimit": {
    "_hex": "0x2fefd8"
  },
  "gasUsed": {
    "_hex": "0xf618"
  },
  "miner": "0x580992B51e3925e23280EfB93d3047C82f17E038",
  "extraData": "0x",
  "transactions": [
    {
      "hash": "0xf8f0accc004298f2528ebefdafb05dd7bc25e68c9c9124572eef481346373f2a",
      "blockHash": "0x24f087ca622ac2859be03d1e49bb4ac04fd9ea7f835082d70e8e9e8fe720f007",
      "blockNumber": 121688,
      "transactionIndex": 0,
      "confirmations": null,
      "from": "0xc7704Fc5c51C7a5f1a6574b0014b58C8915BA55C",
      "gasPrice": {
        "_hex": "0xdc6a1b34f"
      },
      "gasLimit": {
        "_hex": "0x5208"
      },
      "to": "0x32Be343B94f860124dC4fEe278FDCBD38C102D88",
      "value": {
        "_hex": "0x11d6b0247a1eb8000"
      },
      "nonce": 11,
      "data": "0x",
      "r": "0x8e28ce120f50e01ea20a20ed5f57ae2e13cc4c8da41ce10a1e06815fbde4d392",
      "s": "0x0c6beb0a70bcf458db3130557addf1e524892dffe2217aecd898d850fb5d34e9",
      "v": 28,
      "creates": null,
      "raw": "0xf86d0b850dc6a1b34f8252089432be343b94f860124dc4fee278fdcbd38c102d8889011d6b0247a1eb8000801ca08e28ce120f50e01ea20a20ed5f57ae2e13cc4c8da41ce10a1e06815fbde4d392a00c6beb0a70bcf458db3130557addf1e524892dffe2217aecd898d850fb5d34e9",
      "networkId": 0,
      "chainId": 0
    },
    {
      "hash": "0x673305f89b8123efcbfa2f9033e8ad619220b9605ab382a6bb0f280ed4f6793f",
      "blockHash": "0x24f087ca622ac2859be03d1e49bb4ac04fd9ea7f835082d70e8e9e8fe720f007",
      "blockNumber": 121688,
      "transactionIndex": 1,
      "confirmations": null,
      "from": "0x63738Ec4C9adec404749B5747F3bbE2147de632F",
      "gasPrice": {
        "_hex": "0xd82e9a425"
      },
      "gasLimit": {
        "_hex": "0x15f90"
      },
      "to": "0x557C2806B6ceA65a66F415bb2Ed1ce897B340745",
      "value": {
        "_hex": "0x8ac7230489e80000"
      },
      "nonce": 65,
      "data": "0x",
      "r": "0x6e612653da0f8e334b2a3be0efad86b3906b99f9b4bcbced30062ad39ddf2270",
      "s": "0x6244c18610a11e085b80feae1a5d743303113ae6e3b39771f345407d3f8a4fee",
      "v": 28,
      "creates": null,
      "raw": "0xf86d41850d82e9a42583015f9094557c2806b6cea65a66f415bb2ed1ce897b340745888ac7230489e80000801ca06e612653da0f8e334b2a3be0efad86b3906b99f9b4bcbced30062ad39ddf2270a06244c18610a11e085b80feae1a5d743303113ae6e3b39771f345407d3f8a4fee",
      "networkId": 0,
      "chainId": 0
    },
    {
      "hash": "0x0cbdd5fa6f0b70c64721c4090cdfd414f5d1140a6c6246f3247ca5c1e314532d",
      "blockHash": "0x24f087ca622ac2859be03d1e49bb4ac04fd9ea7f835082d70e8e9e8fe720f007",
      "blockNumber": 121688,
      "transactionIndex": 2,
      "confirmations": null,
      "from": "0x63738Ec4C9adec404749B5747F3bbE2147de632F",
      "gasPrice": {
        "_hex": "0xd7e494ae1"
      },
      "gasLimit": {
        "_hex": "0x15f90"
      },
      "to": "0x557C2806B6ceA65a66F415bb2Ed1ce897B340745",
      "value": {
        "_hex": "0x8ac7230489e80000"
      },
      "nonce": 66,
      "data": "0x",
      "r": "0x733c70db0ddc6ac079a69c379ea76500be44167de68faca28e86e1939d0aa353",
      "s": "0x55ef3215f5d15a9e64e9db4e3f62b1eb594567386b0f386f08f63f0cf999e1f7",
      "v": 28,
      "creates": null,
      "raw": "0xf86d42850d7e494ae183015f9094557c2806b6cea65a66f415bb2ed1ce897b340745888ac7230489e80000801ca0733c70db0ddc6ac079a69c379ea76500be44167de68faca28e86e1939d0aa353a055ef3215f5d15a9e64e9db4e3f62b1eb594567386b0f386f08f63f0cf999e1f7",
      "networkId": 0,
      "chainId": 0
    }
  ]
}