{
  "hash": "0x7b532934132b229e68865d666b56fe0ed05ac33098de1459171d0a499a2d0cee",
  "parentHash": "0x8493f3acaa2090aace757e6bb3b6e25d25376370acb030942aca854e5ca206d2",
  "number": 108206,
  "timestamp": 1439936322,
  "nonce": "0x02814c71c17ab66a",
  "difficulty": 4361817948451,
  "gasLimit": {
    "_hex": "0x2fefd8"
  },
  "gasUsed": {
    "_hex": "0xf618"
  },
  "miner": "0xe6A7a1d47ff21B6321162AEA7C6CB457D5476Bca",
  "extraData": "0x476574682f76312e302e312d38326566323666362f6c696e75782f676f312e34",
  "transactions": [
    {
      "hash": "0x0f12df061a80cb6a43782cd5a99caa1b94a00633fa7101da92daddc7a87a50b1",
      "blockHash": "0x7b532934132b229e68865d666b56fe0ed05ac33098de1459171d0a499a2d0cee",
      "blockNumber": 108206,
      "transactionIndex": 0,
      "confirmations": null,
      "from": "0xFBb1b73C4f0BDa4f67dcA266ce6Ef42f520fBB98",
      "gasPrice": {
        "_hex": "0xd9c51999a"
      },
      "gasLimit": {
        "_hex": "0x5208"
      },
      "to": "0xA8dd28824D25dd5d57F5eCe5Ad5d5aBEf3d690C7",
      "value": {
        "_hex": "0x8925c060f55800"
      },
      "nonce": 145,
      "data": "0x",
      "r": "0x1da89e200d2a6421ee95e963d2fc7d8661a2064d6c552a3566e2a54051551db3",
      "s": "0x53188d28f06cc276394d259a17a538662da9d030a9deaa3e83179a9c8cf3d150",
      "v": 27,
      "creates": null,
      "raw": "0xf86c8191850d9c51999a82520894a8dd28824d25dd5d57f5ece5ad5d5abef3d690c7878925c060f55800801ba01da89e200d2a6421ee95e963d2fc7d8661a2064d6c552a3566e2a54051551db3a053188d28f06cc276394d259a17a538662da9d030a9deaa3e83179a9c8cf3d150",
      "networkId": 0,
      "chainId": 0
    },
    {
      "hash": "0xca2a9585edf3e32cf757aceeb828beaa88ad5d8ebcd270151f5e21f16834912e",
      "blockHash": "0x7b532934132b229e68865d666b56fe0ed05ac33098de1459171d0a499a2d0cee",
      "blockNumber": 108206,
      "transactionIndex": 1,
      "confirmations": null,
      "from": "0xFBb1b73C4f0BDa4f67dcA266ce6Ef42f520fBB98",
      "gasPrice": {
        "_hex": "0xd9c51999a"
      },
      "gasLimit": {
        "_hex": "0x5208"
      },
      "to": "0xa2F0F37dF7682e082a64a285829B0eE1f018559f",
      "value": {
        "_hex": "0x4c777b3a6e4dc00"
      },
      "nonce": 146,
      "data": "0x",
      "r": "0xd9fe92160cfd00c0c280103425784570857b0cacc1ed4ed35b8d19af3845702a",
      "s": "0x399923de61ad14cefacfb968ac08fc49d449be280e8eb313842b341231379b41",
      "v": 27,
      "creates": null,
      "raw": "0xf86d8192850d9c51999a82520894a2f0f37df7682e082a64a285829b0ee1f018559f8804c777b3a6e4dc00801ba0d9fe92160cfd00c0c280103425784570857b0cacc1ed4ed35b8d19af3845702aa0399923de61ad14cefacfb968ac08fc49d449be280e8eb313842b341231379b41",
      "networkId": 0,
      "chainId": 0
    },
    {
      "hash": "0xe892131bfde37bd4fc11bfcec83286f937083032f37a7c1cd131e16b8efcb98f",
      "blockHash": "0x7b532934132b229e68865d666b56fe0ed05ac33098de1459171d0a499a2d0cee",
      "blockNumber": 108206,
      "transactionIndex": 2,
      "confirmations": null,
      "from": "0xFBb1b73C4f0BDa4f67dcA266ce6Ef42f520fBB98",
      "gasPrice": {
        "_hex": "0xd9c51999a"
      },
      "gasLimit": {
        "_hex": "0x5208"
      },
      "to": "0x08223ac8074449E3bf35Aae93D1636D2bb479d8c",
      "value": {
        "_hex": "0x6d40c7a9a083800"
      },
      "nonce": 147,
      "data": "0x",
      "r": "0x8ea9a140bd340b547f2e85fc346e39c6b7618382caa03d8ae73fc0a74145bf2b",
      "s": "0x55a5e769ab1dee055a4ead3d383d586ed1f08bd42424b57f7c2a9f49c6e3fe13",
      "v": 28,
      "creates": null,
      "raw": "0xf86d8193850d9c51999a8252089408223ac8074449e3bf35aae93d1636d2bb479d8c8806d40c7a9a083800801ca08ea9a140bd340b547f2e85fc346e39c6b7618382caa03d8ae73fc0a74145bf2ba055a5e769ab1dee055a4ead3d383d586ed1f08bd42424b57f7c2a9f49c6e3fe13",
      "networkId": 0,
      "chainId": 0
    }
  ]
}