{
  "hash": "0x6d9181b65c886744fbe2241d4cab9e7fbf4c4a96555c37daf041fcfab0c87c97",
  "parentHash": "0xc2f274233883a32802e9f958b3b934eeb6382a04edf29827bacda69af6e3fed3",
  "number": 72421,
  "timestamp": 1439352373,
  "nonce": "0xc1b66ee2a628d83d",
  "difficulty": 2201560661309,
  "gasLimit": {
    "_hex": "0x2fefd8"
  },
  "gasUsed": {
    "_hex": "0x5208"
  },
  "miner": "0x88D74a59454F6cF3B51ef6b9136AFb6b9D405A88",
  "extraData": "0x476574682f76312e302e312d37666266393930632f6c696e75782f676f312e34",
  "transactions": [
    {
      "hash": "0x110ce86c7ca0e697bd514a45a28fdda50e5ef5d3d6f82313bc86304854856ea9",
      "blockHash": "0x6d9181b65c886744fbe2241d4cab9e7fbf4c4a96555c37daf041fcfab0c87c97",
      "blockNumber": 72421,
      "transactionIndex": 0,
      "confirmations": null,
      "from": "0xA3AA3C09d07c1DB0822Bc6CbE1154846bD2d4594",
      "gasPrice": {
        "_hex": "0xd8364fc25"
      },
      "gasLimit": {
        "_hex": "0x15f90"
      },
      "to": "0xf2cC0eEAAAeD313542CB262B0B8c3972425143f0",
      "value": {
        "_hex": "0x1"
      },
      "nonce": 1,
      "data": "0x",
      "r": "0xeefe15fa61e43446e4b7696e117eda3525ee03d6fb7194bf9f6afae94d0d0ed2",
      "s": "0x72ab4021c26943632662afcbd66a636d9af3f72bc87f88b75b2ce3136b7bb2e9",
      "v": 28,
      "creates": null,
      "raw": "0xf86501850d8364fc2583015f9094f2cc0eeaaaed313542cb262b0b8c3972425143f001801ca0eefe15fa61e43446e4b7696e117eda3525ee03d6fb7194bf9f6afae94d0d0ed2a072ab4021c26943632662afcbd66a636d9af3f72bc87f88b75b2ce3136b7bb2e9",
      "networkId": 0,
      "chainId": 0
    }
  ]
}