{
  "hash": "0xeb57b85122e68e78d22b64989e161a5773fadb3157e431932f47040a1130aeed",
  "parentHash": "0x95119ce3ea0bae5c0341977e4dad0e3a3c68590c7ba7a95a930bd6fcf00b10b1",
  "number": 65008,
  "timestamp": 1439229923,
  "nonce": "0x21ec13fce001886f",
  "difficulty": 1911637766383,
  "gasLimit": {
    "_hex": "0x2fefd8"
  },
  "gasUsed": {
    "_hex": "0x17cd8"
  },
  "miner": "0xe6A7a1d47ff21B6321162AEA7C6CB457D5476Bca",
  "extraData": "0x476574682f76312e302e312f6c696e75782f676f312e342e32",
  "transactions": [
    {
      "hash": "0x1bdb07962fca80c9228a39557cb366367313cce614a2596716fdb056d2f54d22",
      "blockHash": "0xeb57b85122e68e78d22b64989e161a5773fadb3157e431932f47040a1130aeed",
      "blockNumber": 65008,
      "transactionIndex": 0,
      "confirmations": null,
      "from": "0x4598d8e93B75a370046AEAb59BD2895e542fd92D",
      "gasPrice": {
        "_hex": "0xba43b7400"
      },
      "gasLimit": {
        "_hex": "0x15f90"
      },
      "to": "0x793AE8C1b1a160BFc07BFB0d04F85eab1A71F4f2",
      "value": {
        "_hex": "0x0"
      },
      "nonce": 0,
      "data": "0x3ba15036",
      "r": "0x657766e4b5840b42bd4afdf0c5a665f8923e3afaf4346cefaf64f2840714ca2e",
      "s": "0x41b93dd30d3487e67bcd7b95047006f1e867060e0234f9cd3668a122a6fe4f5b",
      "v": 27,
      "creates": null,
      "raw": "0xf86980850ba43b740083015f9094793ae8c1b1a160bfc07bfb0d04f85eab1a71f4f280843ba150361ba0657766e4b5840b42bd4afdf0c5a665f8923e3afaf4346cefaf64f2840714ca2ea041b93dd30d3487e67bcd7b95047006f1e867060e0234f9cd3668a122a6fe4f5b",
      "networkId": 0,
      "chainId": 0
    },
    {
      "hash": "0x17288bf89d6ab4994c0e163d580274b8b55ae558982bf962f34b752a2b29f8b1",
      "blockHash": "0xeb57b85122e68e78d22b64989e161a5773fadb3157e431932f47040a1130aeed",
      "blockNumber": 65008,
      "transactionIndex": 1,
      "confirmations": null,
      "from": "0xB6915c192397e64d2CE5674B4a30c35028D21d64",
      "gasPrice": {
        "_hex": "0xba43b7400"
      },
      "gasLimit": {
        "_hex": "0x15f90"
      },
      "to": "0x793AE8C1b1a160BFc07BFB0d04F85eab1A71F4f2",
      "value": {
        "_hex": "0x0"
      },
      "nonce": 0,
      "data": "0x3ba15036",
      "r": "0xb1ee10ef376a4e32007aea4ac6db23b5678b15a88a04d15d524c9a83404e4038",
      "s": "0x705f9c354ffa24e74a1adccbb98c94eca027205a82123150506ee7bfb2a5b455",
      "v": 28,
      "creates": null,
      "raw": "0xf86980850ba43b740083015f9094793ae8c1b1a160bfc07bfb0d04f85eab1a71f4f280843ba150361ca0b1ee10ef376a4e32007aea4ac6db23b5678b15a88a04d15d524c9a83404e4038a0705f9c354ffa24e74a1adccbb98c94eca027205a82123150506ee7bfb2a5b455",
      "networkId": 0,
      "chainId": 0
    }
  ]
}