{
  "hash": "0xa661745ada1e60af284f51dfda082491a56b310e63faca414054146eb1448d15",
  "parentHash": "0x146037b4589093a48e2a10874acd31a1f162d80640a433a6cbe2bb07bb87861e",
  "number": 119393,
  "timestamp": 1440142041,
  "nonce": "0x77ed537d13798752",
  "difficulty": 4413812954490,
  "gasLimit": {
    "_hex": "0x2fefd8"
  },
  "gasUsed": {
    "_hex": "0x14820"
  },
  "miner": "0x7E6930B63D03e88F5928C5cd6ee3FCee4D714F7F",
  "extraData": "0xd783010003844765746887676f312e342e32856c696e7578",
  "transactions": [
    {
      "hash": "0xe343fece9b4e85eb53692be331aa5517b1b35795bb54eddd4197e8bf85e81d34",
      "blockHash": "0xa661745ada1e60af284f51dfda082491a56b310e63faca414054146eb1448d15",
      "blockNumber": 119393,
      "transactionIndex": 0,
      "confirmations": null,
      "from": "0xAdCa16b4654a92cb67666C0cF61976cEEE81cEEB",
      "gasPrice": {
        "_hex": "0xba43b7400"
      },
      "gasLimit": {
        "_hex": "0x5208"
      },
      "to": "0x32Be343B94f860124dC4fEe278FDCBD38C102D88",
      "value": {
        "_hex": "0x679f938f183f9c00"
      },
      "nonce": 11,
      "data": "0x",
      "r": "0xd52b8db0b92e03cc6cec78f2e7b92e68831177524cb858ff01a04e5e25dd7326",
      "s": "0x245ba303f2b2597126abc131e364355a9bfd7b076e45cce60aa63539e3fc534f",
      "v": 27,
      "creates": null,
      "raw": "0xf86c0b850ba43b74008252089432be343b94f860124dc4fee278fdcbd38c102d8888679f938f183f9c00801ba0d52b8db0b92e03cc6cec78f2e7b92e68831177524cb858ff01a04e5e25dd7326a0245ba303f2b2597126abc131e364355a9bfd7b076e45cce60aa63539e3fc534f",
      "networkId": 0,
      "chainId": 0
    },
    {
      "hash": "0x5d2dd682695975e3738181092634e2400a0dbc6dc5dd840ea99312645cb2c26b",
      "blockHash": "0xa661745ada1e60af284f51dfda082491a56b310e63faca414054146eb1448d15",
      "blockNumber": 119393,
      "transactionIndex": 1,
      "confirmations": null,
      "from": "0xaa71fa80d26F718E6A3c87e41D817b8D10944a63",
      "gasPrice": {
        "_hex": "0xba43b7400"
      },
      "gasLimit": {
        "_hex": "0x5208"
      },
      "to": "0x32Be343B94f860124dC4fEe278FDCBD38C102D88",
      "value": {
        "_hex": "0x3de23d40e63a6400"
      },
      "nonce": 11,
      "data": "0x",
      "r": "0x82c8836baf0f260f15081a4e2a05375ef4b4527d6e1ca8d0396113d99244e331",
      "s": "0x01edade3c18f0a8c2aeb878d59e02c7ed09fee1d4ad62672e8e9583cbd57403a",
      "v": 28,
      "creates": null,
      "raw": "0xf86c0b850ba43b74008252089432be343b94f860124dc4fee278fdcbd38c102d88883de23d40e63a6400801ca082c8836baf0f260f15081a4e2a05375ef4b4527d6e1ca8d0396113d99244e331a001edade3c18f0a8c2aeb878d59e02c7ed09fee1d4ad62672e8e9583cbd57403a",
      "networkId": 0,
      "chainId": 0
    },
    {
      "hash": "0xbd7cec134d621e8a277975e8c10ac962b0c87994a5fad08e5cc0e687f666d41b",
      "blockHash": "0xa661745ada1e60af284f51dfda082491a56b310e63faca414054146eb1448d15",
      "blockNumber": 119393,
      "transactionIndex": 2,
      "confirmations": null,
      "from": "0xe70361D11B44B2fBA997417D7AAa26eb69EBfef0",
      "gasPrice": {
        "_hex": "0xba43b7400"
      },
      "gasLimit": {
        "_hex": "0x5208"
      },
      "to": "0x32Be343B94f860124dC4fEe278FDCBD38C102D88",
      "value": {
        "_hex": "0x9891467fc6e86000"
      },
      "nonce": 11,
      "data": "0x",
      "r": "0x329140d0f49f331a153006b3f804975cbb6312493ffcdbf7e20e237b4d259164",
      "s": "0x0562e8fe9dd2770aa63200d157e9a0b56e6677648b52aa63cf9180afe3c3a440",
      "v": 28,
      "creates": null,
      "raw": "0xf86c0b850ba43b74008252089432be343b94f860124dc4fee278fdcbd38c102d88889891467fc6e86000801ca0329140d0f49f331a153006b3f804975cbb6312493ffcdbf7e20e237b4d259164a00562e8fe9dd2770aa63200d157e9a0b56e6677648b52aa63cf9180afe3c3a440",
      "networkId": 0,
      "chainId": 0
    },
    {
      "hash": "0x9750a8dfa7761d1adfc7dd5e867d3ea10806b55d8e797ec475851ca1dd84d4b5",
      "blockHash": "0xa661745ada1e60af284f51dfda082491a56b310e63faca414054146eb1448d15",
      "blockNumber": 119393,
      "transactionIndex": 3,
      "confirmations": null,
      "from": "0xFc8bc4ed86dF73001ce6082F3dB914d7c7A9a6cC",
      "gasPrice": {
        "_hex": "0xba43b7400"
      },
      "gasLimit": {
        "_hex": "0x5208"
      },
      "to": "0x32Be343B94f860124dC4fEe278FDCBD38C102D88",
      "value": {
        "_hex": "0x66100a4d9f74a000"
      },
      "nonce": 10,
      "data": "0x",
      "r": "0xb25aba4bfc34a96dc220bf87fb43635e9c402c8ece5cb59e0815719616597799",
      "s": "0x6b27f552520e02dd19111b42c129aa98b05749c9807c99300f3df6f42982af34",
      "v": 27,
      "creates": null,
      "raw": "0xf86c0a850ba43b74008252089432be343b94f860124dc4fee278fdcbd38c102d888866100a4d9f74a000801ba0b25aba4bfc34a96dc220bf87fb43635e9c402c8ece5cb59e0815719616597799a06b27f552520e02dd19111b42c129aa98b05749c9807c99300f3df6f42982af34",
      "networkId": 0,
      "chainId": 0
    }
  ]
}