{
  "hash": "0x0082db9a2945a7b4aa08e68fdea8f91ba39aca7da1bc2973e27cf740d918084a",
  "parentHash": "0xf20ea2a038259e902c2db4c7c0d8af7e5cb77de61ce4260c798718c571c1366c",
  "number": 84281,
  "timestamp": 1439547500,
  "nonce": "0x92d9192316173bb8",
  "difficulty": 2530400749265,
  "gasLimit": {
    "_hex": "0x2fefd8"
  },
  "gasUsed": {
    "_hex": "0x6222f"
  },
  "miner": "0x7E6930B63D03e88F5928C5cd6ee3FCee4D714F7F",
  "extraData": "0x",
  "transactions": [
    {
      "hash": "0xd9f0864f66deafd99bf0a6d47c8c264db3f2695a92da96eefd7276fb7f2dd2ac",
      "blockHash": "0x0082db9a2945a7b4aa08e68fdea8f91ba39aca7da1bc2973e27cf740d918084a",
      "blockNumber": 84281,
      "transactionIndex": 0,
      "confirmations": null,
      "from": "0x8A243A0A9fEA49b839547745ff2D11Af3F4b0522",
      "gasPrice": {
        "_hex": "0xd29681bd6"
      },
      "gasLimit": {
        "_hex": "0x15f90"
      },
      "to": "0xCAc7000C7dBaa2E33Af15325AF5D435E011C7BdD",
      "value": {
        "_hex": "0x35657b724ca0030000"
      },
      "nonce": 0,
      "data": "0xb214faa53754414c4f394246510000000000000000000000000000000000000000000000",
      "r": "0x4b81e07cee5cb0833385e6cb3993a03dd42b606e2f5cd516fe13ecb18a012723",
      "s": "0x290280ec601d85b06375580c23a9b8d98a4cbec719896fecc3dca738a2fb18a5",
      "v": 28,
      "creates": null,
      "raw": "0xf89280850d29681bd683015f9094cac7000c7dbaa2e33af15325af5d435e011c7bdd8935657b724ca0030000a4b214faa53754414c4f3942465100000000000000000000000000000000000000000000001ca04b81e07cee5cb0833385e6cb3993a03dd42b606e2f5cd516fe13ecb18a012723a0290280ec601d85b06375580c23a9b8d98a4cbec719896fecc3dca738a2fb18a5",
      "networkId": 0,
      "chainId": 0
    },
    {
      "hash": "0x12f4eb94953fa98e4afe1f4e8d8ba36c69e3a53a6fcaf74b5ff85181513e020a",
      "blockHash": "0x0082db9a2945a7b4aa08e68fdea8f91ba39aca7da1bc2973e27cf740d918084a",
      "blockNumber": 84281,
      "transactionIndex": 1,
      "confirmations": null,
      "from": "0xe6A7a1d47ff21B6321162AEA7C6CB457D5476Bca",
      "gasPrice": {
        "_hex": "0xd0c7cfb70"
      },
      "gasLimit": {
        "_hex": "0x55f0"
      },
      "to": "0xb7B3690EFa6b3f08D4EC289fF655C4b7bb15EE39",
      "value": {
        "_hex": "0x6b3686bcba966280"
      },
      "nonce": 1737,
      "data": "0x",
      "r": "0xcf6a96caf47136f378e671d124cab163b60aa5ce671a21feaf2f73a4668de543",
      "s": "0x155268599392efc2c870440d438cd09d6bc988df99c54fed31e0bf3ad7ac3726",
      "v": 28,
      "creates": null,
      "raw": "0xf86e8206c9850d0c7cfb708255f094b7b3690efa6b3f08d4ec289ff655c4b7bb15ee39886b3686bcba966280801ca0cf6a96caf47136f378e671d124cab163b60aa5ce671a21feaf2f73a4668de543a0155268599392efc2c870440d438cd09d6bc988df99c54fed31e0bf3ad7ac3726",
      "networkId": 0,
      "chainId": 0
    },
    {
      "hash": "0x55711761f53ba01623807e717f6a72137fa06877ff212fa8e116af521740f88f",
      "blockHash": "0x0082db9a2945a7b4aa08e68fdea8f91ba39aca7da1bc2973e27cf740d918084a",
      "blockNumber": 84281,
      "transactionIndex": 2,
      "confirmations": null,
      "from": "0xe6A7a1d47ff21B6321162AEA7C6CB457D5476Bca",
      "gasPrice": {
        "_hex": "0xd0c7cfb70"
      },
      "gasLimit": {
        "_hex": "0x55f0"
      },
      "to": "0x6c341709A69F0D286ff289986ECd928bb3a51B7A",
      "value": {
        "_hex": "0x6c2130dc05368068"
      },
      "nonce": 1738,
      "data": "0x",
      "r": "0x278df3111afb3e2bee054dbf451974cbbab77b82294577b15803572cbc04ba7b",
      "s": "0x4f68a124e93fb5a1cd94d9d74d89003ff2c44aa03cc85bedfdac3fcf6e12964e",
      "v": 27,
      "creates": null,
      "raw": "0xf86e8206ca850d0c7cfb708255f0946c341709a69f0d286ff289986ecd928bb3a51b7a886c2130dc05368068801ba0278df3111afb3e2bee054dbf451974cbbab77b82294577b15803572cbc04ba7ba04f68a124e93fb5a1cd94d9d74d89003ff2c44aa03cc85bedfdac3fcf6e12964e",
      "networkId": 0,
      "chainId": 0
    },
    {
      "hash": "0x9d1da7aca97f9dfa3e96e4b443617b4793c373653df2f69ef2b7387a52fe6814",
      "blockHash": "0x0082db9a2945a7b4aa08e68fdea8f91ba39aca7da1bc2973e27cf740d918084a",
      "blockNumber": 84281,
      "transactionIndex": 3,
      "confirmations": null,
      "from": "0xe6A7a1d47ff21B6321162AEA7C6CB457D5476Bca",
      "gasPrice": {
        "_hex": "0xd0c7cfb70"
      },
      "gasLimit": {
        "_hex": "0x55f0"
      },
      "to": "0xb4eb03c9bDD4944DE22085E8e1dB5Ebd36889Bd8",
      "value": {
        "_hex": "0x6cdf8cfb9b3875f0"
      },
      "nonce": 1739,
      "data": "0x",
      "r": "0xe9dc2a40be292b2dffe73e884a45932f7912a5971e6c526d7713c69c21dae70a",
      "s": "0x2c50f65bda4deb633ef0c7d976b45b26b9a45350d146807c07eaa98edabee84e",
      "v": 28,
      "creates": null,
      "raw": "0xf86e8206cb850d0c7cfb708255f094b4eb03c9bdd4944de22085e8e1db5ebd36889bd8886cdf8cfb9b3875f0801ca0e9dc2a40be292b2dffe73e884a45932f7912a5971e6c526d7713c69c21dae70aa02c50f65bda4deb633ef0c7d976b45b26b9a45350d146807c07eaa98edabee84e",
      "networkId": 0,
      "chainId": 0
    },
    {
      "hash": "0xb8357392be82074862d90a29594b7b76712fa82e5ff6cf7f82c718c266950005",
      "blockHash": "0x0082db9a2945a7b4aa08e68fdea8f91ba39aca7da1bc2973e27cf740d918084a",
      "blockNumber": 84281,
      "transactionIndex": 4,
      "confirmations": null,
      "from": "0xe6A7a1d47ff21B6321162AEA7C6CB457D5476Bca",
      "gasPrice": {
        "_hex": "0xd0c7cfb70"
      },
      "gasLimit": {
        "_hex": "0x55f0"
      },
      "to": "0x0f3136Da8F55444F1bFc5938a2eFb507b3a24976",
      "value": {
        "_hex": "0x6e500dbfd7fbf5f0"
      },
      "nonce": 1740,
      "data": "0x",
      "r": "0xf27798414bd84682efa2e02be98dde555385953088215d379a7eca38e0bc70ec",
      "s": "0x48a52211901ca6773399937c6acef96562dc498adaf16bfe589531b03c2ab9f6",
      "v": 27,
      "creates": null,
      "raw": "0xf86e8206cc850d0c7cfb708255f0940f3136da8f55444f1bfc5938a2efb507b3a24976886e500dbfd7fbf5f0801ba0f27798414bd84682efa2e02be98dde555385953088215d379a7eca38e0bc70eca048a52211901ca6773399937c6acef96562dc498adaf16bfe589531b03c2ab9f6",
      "networkId": 0,
      "chainId": 0
    },
    {
      "hash": "0x4693d7db0895cbd78b6e5be93f7a3b139c05160dd31947784472d9bbcbc4cca9",
      "blockHash": "0x0082db9a2945a7b4aa08e68fdea8f91ba39aca7da1bc2973e27cf740d918084a",
      "blockNumber": 84281,
      "transactionIndex": 5,
      "confirmations": null,
      "from": "0xe6A7a1d47ff21B6321162AEA7C6CB457D5476Bca",
      "gasPrice": {
        "_hex": "0xd0c7cfb70"
      },
      "gasLimit": {
        "_hex": "0x55f0"
      },
      "to": "0x10BD1134A760f6b35247e3cb33673a18bC95a7E7",
      "value": {
        "_hex": "0x6e718f0b4bbf0458"
      },
      "nonce": 1741,
      "data": "0x",
      "r": "0x793272e3ca48b7f7bcd59cba39fe4995a0718e4b58c7f2498f5c2b6aacc8bc27",
      "s": "0x5fb77e736cd818319973f95e7f99b5402f03798e448971db7e0dc75fb5b195c5",
      "v": 27,
      "creates": null,
      "raw": "0xf86e8206cd850d0c7cfb708255f09410bd1134a760f6b35247e3cb33673a18bc95a7e7886e718f0b4bbf0458801ba0793272e3ca48b7f7bcd59cba39fe4995a0718e4b58c7f2498f5c2b6aacc8bc27a05fb77e736cd818319973f95e7f99b5402f03798e448971db7e0dc75fb5b195c5",
      "networkId": 0,
      "chainId": 0
    },
    {
      "hash": "0xcad219cf17383a0928ca54fa0028b7a128a17cf9357afdca24b4ba36ea17a0ea",
      "blockHash": "0x0082db9a2945a7b4aa08e68fdea8f91ba39aca7da1bc2973e27cf740d918084a",
      "blockNumber": 84281,
      "transactionIndex": 6,
      "confirmations": null,
      "from": "0xe6A7a1d47ff21B6321162AEA7C6CB457D5476Bca",
      "gasPrice": {
        "_hex": "0xd0c7cfb70"
      },
      "gasLimit": {
        "_hex": "0x55f0"
      },
      "to": "0xEa5b801969342B44467C9dE87fEfE2C1dB740bd4",
      "value": {
        "_hex": "0x6f39727c5a8ccf48"
      },
      "nonce": 1742,
      "data": "0x",
      "r": "0xdb42be77f04b1614d60fb3233f43f582277af8f73213335a93324edb1840f3f5",
      "s": "0x752d3c869290f311d1b6aa09bb482f0af4ff7516ebe10c951b48682b6c7bca47",
      "v": 27,
      "creates": null,
      "raw": "0xf86e8206ce850d0c7cfb708255f094ea5b801969342b44467c9de87fefe2c1db740bd4886f39727c5a8ccf48801ba0db42be77f04b1614d60fb3233f43f582277af8f73213335a93324edb1840f3f5a0752d3c869290f311d1b6aa09bb482f0af4ff7516ebe10c951b48682b6c7bca47",
      "networkId": 0,
      "chainId": 0
    },
    {
      "hash": "0xd9fb53dfec6429c4e82aec005b141607df77770a2894dc6a3f533f45e421b579",
      "blockHash": "0x0082db9a2945a7b4aa08e68fdea8f91ba39aca7da1bc2973e27cf740d918084a",
      "blockNumber": 84281,
      "transactionIndex": 7,
      "confirmations": null,
      "from": "0xe6A7a1d47ff21B6321162AEA7C6CB457D5476Bca",
      "gasPrice": {
        "_hex": "0xd0c7cfb70"
      },
      "gasLimit": {
        "_hex": "0x55f0"
      },
      "to": "0x52Dc504a422f0E2A9e7632A34a50f1a82F8224c7",
      "value": {
        "_hex": "0x6fa95f9842280340"
      },
      "nonce": 1743,
      "data": "0x",
      "r": "0xcbc5088baf001c1dab199ef81d8010f085de88ae57d5ddf14dfc332fc2d5de7c",
      "s": "0x6622c18778c86e0e4309d2823dabf07238c7cf3684b3b80665bc97aa6051acf9",
      "v": 27,
      "creates": null,
      "raw": "0xf86e8206cf850d0c7cfb708255f09452dc504a422f0e2a9e7632a34a50f1a82f8224c7886fa95f9842280340801ba0cbc5088baf001c1dab199ef81d8010f085de88ae57d5ddf14dfc332fc2d5de7ca06622c18778c86e0e4309d2823dabf07238c7cf3684b3b80665bc97aa6051acf9",
      "networkId": 0,
      "chainId": 0
    },
    {
      "hash": "0xb1e1cc5331b368fba5e0af5626e131b87733ac4c894b2dc5a82007dfa933225f",
      "blockHash": "0x0082db9a2945a7b4aa08e68fdea8f91ba39aca7da1bc2973e27cf740d918084a",
      "blockNumber": 84281,
      "transactionIndex": 8,
      "confirmations": null,
      "from": "0xe6A7a1d47ff21B6321162AEA7C6CB457D5476Bca",
      "gasPrice": {
        "_hex": "0xd0c7cfb70"
      },
      "gasLimit": {
        "_hex": "0x55f0"
      },
      "to": "0x3b09EfC81d5e3F72737B4063883CEDdfBc79ae88",
      "value": {
        "_hex": "0x722160a939cbafd0"
      },
      "nonce": 1744,
      "data": "0x",
      "r": "0xaf24dadbd22137ad4ab52fd8d8fcb3e268e54b86c42169294cf1072b60f0cad8",
      "s": "0x54b962377cb27af60330d53a3ed218089ecf1324de3495dde7958d7fa5618484",
      "v": 27,
      "creates": null,
      "raw": "0xf86e8206d0850d0c7cfb708255f0943b09efc81d5e3f72737b4063883ceddfbc79ae8888722160a939cbafd0801ba0af24dadbd22137ad4ab52fd8d8fcb3e268e54b86c42169294cf1072b60f0cad8a054b962377cb27af60330d53a3ed218089ecf1324de3495dde7958d7fa5618484",
      "networkId": 0,
      "chainId": 0
    },
    {
      "hash": "0x4071913ad75c53ce65e63e25b0f8f1ba2cbebd1960a38f659351c2e7dc900d06",
      "blockHash": "0x0082db9a2945a7b4aa08e68fdea8f91ba39aca7da1bc2973e27cf740d918084a",
      "blockNumber": 84281,
      "transactionIndex": 9,
      "confirmations": null,
      "from": "0xe6A7a1d47ff21B6321162AEA7C6CB457D5476Bca",
      "gasPrice": {
        "_hex": "0xd0c7cfb70"
      },
      "gasLimit": {
        "_hex": "0x55f0"
      },
      "to": "0x93641e54c9aA6F9038FE7Adb03629a1747326Cd6",
      "value": {
        "_hex": "0x74ad6395ed8782b0"
      },
      "nonce": 1745,
      "data": "0x",
      "r": "0x9233d5474d84fc71f91a087cf32e3f64966a7307751ff7dda1479ae5cad52de5",
      "s": "0x0e77fa2321edd9c3c160dfe0f2de3fbb2ece359f8475baac2c838647d6894561",
      "v": 27,
      "creates": null,
      "raw": "0xf86e8206d1850d0c7cfb708255f09493641e54c9aa6f9038fe7adb03629a1747326cd68874ad6395ed8782b0801ba09233d5474d84fc71f91a087cf32e3f64966a7307751ff7dda1479ae5cad52de5a00e77fa2321edd9c3c160dfe0f2de3fbb2ece359f8475baac2c838647d6894561",
      "networkId": 0,
      "chainId": 0
    },
    {
      "hash": "0x93c69e265a2e32005f2cdb41d488768b2b0c4272f7e76eb50cb73cfcd8364040",
      "blockHash": "0x0082db9a2945a7b4aa08e68fdea8f91ba39aca7da1bc2973e27cf740d918084a",
      "blockNumber": 84281,
      "transactionIndex": 10,
      "confirmations": null,
      "from": "0xe6A7a1d47ff21B6321162AEA7C6CB457D5476Bca",
      "gasPrice": {
        "_hex": "0xd0c7cfb70"
      },
      "gasLimit": {
        "_hex": "0x55f0"
      },
      "to": "0x03809628C90e1092EA99EcFDACA6251435dbc94B",
      "value": {
        "_hex": "0x74dfcb7980bafbc0"
      },
      "nonce": 1746,
      "data": "0x",
      "r": "0x76723025799eb76eea8f1422fb658ab28bba0defdfb2b1530412cdd172f70c44",
      "s": "0x2914272eef261f2db5f7c1682d1e20df90a61ab2c381cc76c6559230e4091b2c",
      "v": 28,
      "creates": null,
      "raw": "0xf86e8206d2850d0c7cfb708255f09403809628c90e1092ea99ecfdaca6251435dbc94b8874dfcb7980bafbc0801ca076723025799eb76eea8f1422fb658ab28bba0defdfb2b1530412cdd172f70c44a02914272eef261f2db5f7c1682d1e20df90a61ab2c381cc76c6559230e4091b2c",
      "networkId": 0,
      "chainId": 0
    },
    {
      "hash": "0x049b799cd98bbe177d74c14039bfe11adbb5e1a4093f2abac18c089ae0ae9b25",
      "blockHash": "0x0082db9a2945a7b4aa08e68fdea8f91ba39aca7da1bc2973e27cf740d918084a",
      "blockNumber": 84281,
      "transactionIndex": 11,
      "confirmations": null,
      "from": "0xe6A7a1d47ff21B6321162AEA7C6CB457D5476Bca",
      "gasPrice": {
        "_hex": "0xd0c7cfb70"
      },
      "gasLimit": {
        "_hex": "0x55f0"
      },
      "to": "0x7d444a287AcFf70a9D6357dc37FB07FC7aABDC4f",
      "value": {
        "_hex": "0x7595a6a6f024f0d8"
      },
      "nonce": 1747,
      "data": "0x",
      "r": "0xf86ec668b83f4aa45d5d86d056f26b89027568002b0e002eec5c892f88895ba6",
      "s": "0x247801ba660b12c97de00f5afe887aae3ace06f97b01367be0cf258bde1755bc",
      "v": 28,
      "creates": null,
      "raw": "0xf86e8206d3850d0c7cfb708255f0947d444a287acff70a9d6357dc37fb07fc7aabdc4f887595a6a6f024f0d8801ca0f86ec668b83f4aa45d5d86d056f26b89027568002b0e002eec5c892f88895ba6a0247801ba660b12c97de00f5afe887aae3ace06f97b01367be0cf258bde1755bc",
      "networkId": 0,
      "chainId": 0
    },
    {
      "hash": "0xb652d3ee15ccfe381ef20f182411e66f69b42dcec1f770b65a880ba61fc22c4e",
      "blockHash": "0x0082db9a2945a7b4aa08e68fdea8f91ba39aca7da1bc2973e27cf740d918084a",
      "blockNumber": 84281,
      "transactionIndex": 12,
      "confirmations": null,
      "from": "0xe6A7a1d47ff21B6321162AEA7C6CB457D5476Bca",
      "gasPrice": {
        "_hex": "0xd0c7cfb70"
      },
      "gasLimit": {
        "_hex": "0x55f0"
      },
      "to": "0x841B562a690B0808405F6E3713E1efdbebA96021",
      "value": {
        "_hex": "0x75cfad3c90e0d8e0"
      },
      "nonce": 1748,
      "data": "0x",
      "r": "0x2680a6f96b47e2f2374ea99fe0dc298c89577150ea75fe49caaf4a6eabebe87c",
      "s": "0x36f9f029422ff9c68c6c6225b803fd04f0a07b1f53aafb1ac9b65ef8847409d7",
      "v": 28,
      "creates": null,
      "raw": "0xf86e8206d4850d0c7cfb708255f094841b562a690b0808405f6e3713e1efdbeba960218875cfad3c90e0d8e0801ca02680a6f96b47e2f2374ea99fe0dc298c89577150ea75fe49caaf4a6eabebe87ca036f9f029422ff9c68c6c6225b803fd04f0a07b1f53aafb1ac9b65ef8847409d7",
      "networkId": 0,
      "chainId": 0
    },
    {
      "hash": "0x744a3b162f9ad5b29161cbed81f3ae0fbb1dcd7e15677975f5b376ff3d6b67f0",
      "blockHash": "0x0082db9a2945a7b4aa08e68fdea8f91ba39aca7da1bc2973e27cf740d918084a",
      "blockNumber": 84281,
      "transactionIndex": 13,
      "confirmations": null,
      "from": "0xe6A7a1d47ff21B6321162AEA7C6CB457D5476Bca",
      "gasPrice": {
        "_hex": "0xd0c7cfb70"
      },
      "gasLimit": {
        "_hex": "0x55f0"
      },
      "to": "0xE4Dd37247830493DE1Df7c758DD746DCdE19419e",
      "value": {
        "_hex": "0x783a3d19a7024d28"
      },
      "nonce": 1749,
      "data": "0x",
      "r": "0xee5b7518fd2fbd906318820f9623492401252d6e8678fff18844d6a9917ad96a",
      "s": "0x3d96545eb03f3f0a9ee008ac03c0915bcf8c36d22217a9c7b5aafca19fd9d95d",
      "v": 28,
      "creates": null,
      "raw": "0xf86e8206d5850d0c7cfb708255f094e4dd37247830493de1df7c758dd746dcde19419e88783a3d19a7024d28801ca0ee5b7518fd2fbd906318820f9623492401252d6e8678fff18844d6a9917ad96aa03d96545eb03f3f0a9ee008ac03c0915bcf8c36d22217a9c7b5aafca19fd9d95d",
      "networkId": 0,
      "chainId": 0
    },
    {
      "hash": "0xc0fdd3f29016c450ada9e4fde313b1560edca191bf8e616306beeb06c802aac0",
      "blockHash": "0x0082db9a2945a7b4aa08e68fdea8f91ba39aca7da1bc2973e27cf740d918084a",
      "blockNumber": 84281,
      "transactionIndex": 14,
      "confirmations": null,
      "from": "0xe6A7a1d47ff21B6321162AEA7C6CB457D5476Bca",
      "gasPrice": {
        "_hex": "0xd0c7cfb70"
      },
      "gasLimit": {
        "_hex": "0x55f0"
      },
      "to": "0x4bA6C728e6251DC89C317f7dbCA89D4136C0baB0",
      "value": {
        "_hex": "0x7b9adc98f98440d8"
      },
      "nonce": 1750,
      "data": "0x",
      "r": "0x4ba1905c7906361eabf2e0f3c5e78a23b345e3a02b1aa67e60aa7f0954ef6430",
      "s": "0x7c6e5841effcec54de2bac753ff3703c68af49118a74cba27b75b9c87e1428bb",
      "v": 27,
      "creates": null,
      "raw": "0xf86e8206d6850d0c7cfb708255f0944ba6c728e6251dc89c317f7dbca89d4136c0bab0887b9adc98f98440d8801ba04ba1905c7906361eabf2e0f3c5e78a23b345e3a02b1aa67e60aa7f0954ef6430a07c6e5841effcec54de2bac753ff3703c68af49118a74cba27b75b9c87e1428bb",
      "networkId": 0,
      "chainId": 0
    },
    {
      "hash": "0xe0e0c9ce22be5b5f8103bdcd6523a28aad030489f8cec911f31aa66c25f4529e",
      "blockHash": "0x0082db9a2945a7b4aa08e68fdea8f91ba39aca7da1bc2973e27cf740d918084a",
      "blockNumber": 84281,
      "transactionIndex": 15,
      "confirmations": null,
      "from": "0xe6A7a1d47ff21B6321162AEA7C6CB457D5476Bca",
      "gasPrice": {
        "_hex": "0xd0c7cfb70"
      },
      "gasLimit": {
        "_hex": "0x55f0"
      },
      "to": "0x19d1f826fce0c97733e0202eFCCc4A5608e8Eb6d",
      "value": {
        "_hex": "0x7bd4db0c7dab9310"
      },
      "nonce": 1751,
      "data": "0x",
      "r": "0x3031ca2642fa7438ada79c67e44c1d31ff9b88a2bc2d7cfe387a60e5f3d6885b",
      "s": "0x2ddaf00748cd3c14fcbbd8370077d6beb37bb10853affc0363e8fc3aeb500b40",
      "v": 28,
      "creates": null,
      "raw": "0xf86e8206d7850d0c7cfb708255f09419d1f826fce0c97733e0202efccc4a5608e8eb6d887bd4db0c7dab9310801ca03031ca2642fa7438ada79c67e44c1d31ff9b88a2bc2d7cfe387a60e5f3d6885ba02ddaf00748cd3c14fcbbd8370077d6beb37bb10853affc0363e8fc3aeb500b40",
      "networkId": 0,
      "chainId": 0
    },
    {
      "hash": "0xba586d6b2acd413dcbeac9e7595c72bfe81531e01868100b7b8da9ac3638b394",
      "blockHash": "0x0082db9a2945a7b4aa08e68fdea8f91ba39aca7da1bc2973e27cf740d918084a",
      "blockNumber": 84281,
      "transactionIndex": 16,
      "confirmations": null,
      "from": "0xe6A7a1d47ff21B6321162AEA7C6CB457D5476Bca",
      "gasPrice": {
        "_hex": "0xd0c7cfb70"
      },
      "gasLimit": {
        "_hex": "0x55f0"
      },
      "to": "0x8263B7757b139904C7cD8511B3D0a6D1479848Ba",
      "value": {
        "_hex": "0x7c3b61d6c409e070"
      },
      "nonce": 1752,
      "data": "0x",
      "r": "0x35f86e664c0478f5d090f23d70735fceb9ccfd80df8f214625afe64c1846b13b",
      "s": "0x23679a651fdb81bc81f4e139cfad15bc548806b83797c01c179b26aaefdc8e41",
      "v": 27,
      "creates": null,
      "raw": "0xf86e8206d8850d0c7cfb708255f0948263b7757b139904c7cd8511b3d0a6d1479848ba887c3b61d6c409e070801ba035f86e664c0478f5d090f23d70735fceb9ccfd80df8f214625afe64c1846b13ba023679a651fdb81bc81f4e139cfad15bc548806b83797c01c179b26aaefdc8e41",
      "networkId": 0,
      "chainId": 0
    },
    {
      "hash": "0x2841d510262adf8b3cc4f4529b13c541c4735907356684651845d2cca0b1b0e5",
      "blockHash": "0x0082db9a2945a7b4aa08e68fdea8f91ba39aca7da1bc2973e27cf740d918084a",
      "blockNumber": 84281,
      "transactionIndex": 17,
      "confirmations": null,
      "from": "0xe6A7a1d47ff21B6321162AEA7C6CB457D5476Bca",
      "gasPrice": {
        "_hex": "0xd0c7cfb70"
      },
      "gasLimit": {
        "_hex": "0x55f0"
      },
      "to": "0x0B5Ec5ACa458C1693E5Abdc8cA6989c2CBFeB81b",
      "value": {
        "_hex": "0x7cd3a6189cf48930"
      },
      "nonce": 1753,
      "data": "0x",
      "r": "0x36748ba133a16622e2b99f7b0edc2c8143960767dac79ea72520643c489e82e4",
      "s": "0x5d4b45aeb7fae3f5391753d7faf487e7fef664481fa9d19878bf9f307db9e3f6",
      "v": 28,
      "creates": null,
      "raw": "0xf86e8206d9850d0c7cfb708255f0940b5ec5aca458c1693e5abdc8ca6989c2cbfeb81b887cd3a6189cf48930801ca036748ba133a16622e2b99f7b0edc2c8143960767dac79ea72520643c489e82e4a05d4b45aeb7fae3f5391753d7faf487e7fef664481fa9d19878bf9f307db9e3f6",
      "networkId": 0,
      "chainId": 0
    },
    {
      "hash": "0xe350bdddb1ffac8031032e752248a71ac1c712e6d62cde5bb239cdfa35736bd1",
      "blockHash": "0x0082db9a2945a7b4aa08e68fdea8f91ba39aca7da1bc2973e27cf740d918084a",
      "blockNumber": 84281,
      "transactionIndex": 18,
      "confirmations": null,
      "from": "0x2910543Af39abA0Cd09dBb2D50200b3E800A63D2",
      "gasPrice": {
        "_hex": "0xcca7b27e7"
      },
      "gasLimit": {
        "_hex": "0x5208"
      },
      "to": "0x765EeAAd1F3F92C0d5aC5361913D96e37ceaeE1A",
      "value": {
        "_hex": "0x4b4aa2c23ce2428000"
      },
      "nonce": 545,
      "data": "0x",
      "r": "0xffde05b48de3015add3788e154f64357cb813ee428c5281287f20445f2d9d4c8",
      "s": "0x4bfa9f785344643800d701a4ee3197f1c204d29f0356bd155c735a280db0c859",
      "v": 27,
      "creates": null,
      "raw": "0xf86f820221850cca7b27e782520894765eeaad1f3f92c0d5ac5361913d96e37ceaee1a894b4aa2c23ce2428000801ba0ffde05b48de3015add3788e154f64357cb813ee428c5281287f20445f2d9d4c8a04bfa9f785344643800d701a4ee3197f1c204d29f0356bd155c735a280db0c859",
      "networkId": 0,
      "chainId": 0
    }
  ]
}