{
  "hash": "0x1432c4feac9e0d2ba1c6123906acfd2be5765be523f3bded27b1cc5b2169b8e4",
  "parentHash": "0x03759ceb15cadb76dbfde358fc98db11ef8247f0b1d6db6ca7e7f17b97961851",
  "number": 110492,
  "timestamp": 1439974652,
  "nonce": "0xe20620b41b8e9653",
  "difficulty": 4381973665817,
  "gasLimit": {
    "_hex": "0x2fefd8"
  },
  "gasUsed": {
    "_hex": "0x19a28"
  },
  "miner": "0x007f7f58D3eb5b7510A301eCC749FC1fCDDBE14D",
  "extraData": "0x476574682f76312e302e312f77696e646f77732f676f312e342e32",
  "transactions": [
    {
      "hash": "0x386bdc92cc585c3a9e1e6a5c4338a3ddc2684892845b50de9b450bceddd18408",
      "blockHash": "0x1432c4feac9e0d2ba1c6123906acfd2be5765be523f3bded27b1cc5b2169b8e4",
      "blockNumber": 110492,
      "transactionIndex": 0,
      "confirmations": null,
      "from": "0xAF17A4ab5d6B10055Fc1eB1BFaCcbDe69B83aF76",
      "gasPrice": {
        "_hex": "0xdc4dd4f93"
      },
      "gasLimit": {
        "_hex": "0x5208"
      },
      "to": "0x32Be343B94f860124dC4fEe278FDCBD38C102D88",
      "value": {
        "_hex": "0x4a978f6dc2f4b4000"
      },
      "nonce": 5,
      "data": "0x",
      "r": "0xf62809038433ffdb007a25db9b8532a25695663476b5bfaf2f4d3df5f285ab7f",
      "s": "0x30f91ac64b7ea1d31916ca1e2225232440b5209f06ac72d6faaea4a9d261d4f7",
      "v": 27,
      "creates": null,
      "raw": "0xf86d05850dc4dd4f938252089432be343b94f860124dc4fee278fdcbd38c102d888904a978f6dc2f4b4000801ba0f62809038433ffdb007a25db9b8532a25695663476b5bfaf2f4d3df5f285ab7fa030f91ac64b7ea1d31916ca1e2225232440b5209f06ac72d6faaea4a9d261d4f7",
      "networkId": 0,
      "chainId": 0
    },
    {
      "hash": "0x113186cef9da15d894d8d1e606a29c765e6a4e2e5c1cf468418c6bbdfcd1d635",
      "blockHash": "0x1432c4feac9e0d2ba1c6123906acfd2be5765be523f3bded27b1cc5b2169b8e4",
      "blockNumber": 110492,
      "transactionIndex": 1,
      "confirmations": null,
      "from": "0x10d50b62A87413dFD8b111398613F2eB8d819f6C",
      "gasPrice": {
        "_hex": "0xdc4dd4f93"
      },
      "gasLimit": {
        "_hex": "0x5208"
      },
      "to": "0x32Be343B94f860124dC4fEe278FDCBD38C102D88",
      "value": {
        "_hex": "0x1553c60074c777000"
      },
      "nonce": 2,
      "data": "0x",
      "r": "0x1f079fc98905eb97eb6c6e65388065ef8816e74000e69bf6a9dc6e2ad3b7e61d",
      "s": "0x3dda016b7b418d63a6088704e5f9bd7df305654526896cd184e27fd5321e3d1c",
      "v": 27,
      "creates": null,
      "raw": "0xf86d02850dc4dd4f938252089432be343b94f860124dc4fee278fdcbd38c102d888901553c60074c777000801ba01f079fc98905eb97eb6c6e65388065ef8816e74000e69bf6a9dc6e2ad3b7e61da03dda016b7b418d63a6088704e5f9bd7df305654526896cd184e27fd5321e3d1c",
      "networkId": 0,
      "chainId": 0
    },
    {
      "hash": "0x996ce32fb75418698834f581e5abd305cbe85f89ec8fb8076477a765be2c2825",
      "blockHash": "0x1432c4feac9e0d2ba1c6123906acfd2be5765be523f3bded27b1cc5b2169b8e4",
      "blockNumber": 110492,
      "transactionIndex": 2,
      "confirmations": null,
      "from": "0xFa9F15F96E3244897308A95163a62861685e8917",
      "gasPrice": {
        "_hex": "0xdc4dd4f93"
      },
      "gasLimit": {
        "_hex": "0x5208"
      },
      "to": "0x32Be343B94f860124dC4fEe278FDCBD38C102D88",
      "value": {
        "_hex": "0x861d45002f2198000"
      },
      "nonce": 3,
      "data": "0x",
      "r": "0x6f258e0a18d5d4f6ed986470b8d797cc9529c066ff0243b61c60c590ac177e27",
      "s": "0x35ff2e5c182d414334a17a540402bc91416abfe8797143ed2309c925bb77aa7f",
      "v": 28,
      "creates": null,
      "raw": "0xf86d03850dc4dd4f938252089432be343b94f860124dc4fee278fdcbd38c102d88890861d45002f2198000801ca06f258e0a18d5d4f6ed986470b8d797cc9529c066ff0243b61c60c590ac177e27a035ff2e5c182d414334a17a540402bc91416abfe8797143ed2309c925bb77aa7f",
      "networkId": 0,
      "chainId": 0
    },
    {
      "hash": "0xa444c1d5c9b78ac631086da5938b85d631cb1fe8a7c0f7177f90cf98b316e6a9",
      "blockHash": "0x1432c4feac9e0d2ba1c6123906acfd2be5765be523f3bded27b1cc5b2169b8e4",
      "blockNumber": 110492,
      "transactionIndex": 3,
      "confirmations": null,
      "from": "0x557C2806B6ceA65a66F415bb2Ed1ce897B340745",
      "gasPrice": {
        "_hex": "0xdc4dd4f93"
      },
      "gasLimit": {
        "_hex": "0x5208"
      },
      "to": "0x32Be343B94f860124dC4fEe278FDCBD38C102D88",
      "value": {
        "_hex": "0x1e2ee06211b4b3000"
      },
      "nonce": 11,
      "data": "0x",
      "r": "0x34b7ca00f88edac7b79a5c6d15dfb15fe1815136e16c59e8a0230d0015d45551",
      "s": "0x7a84fc7d4061aa5224dd0a03d9f4f18ed0b92bbdb6f6b04957ba02d9ca737c7f",
      "v": 27,
      "creates": null,
      "raw": "0xf86d0b850dc4dd4f938252089432be343b94f860124dc4fee278fdcbd38c102d888901e2ee06211b4b3000801ba034b7ca00f88edac7b79a5c6d15dfb15fe1815136e16c59e8a0230d0015d45551a07a84fc7d4061aa5224dd0a03d9f4f18ed0b92bbdb6f6b04957ba02d9ca737c7f",
      "networkId": 0,
      "chainId": 0
    },
    {
      "hash": "0xd4f72768badb41e1f63f878f6ea0469e332512a63ae8f33385144ada5715e456",
      "blockHash": "0x1432c4feac9e0d2ba1c6123906acfd2be5765be523f3bded27b1cc5b2169b8e4",
      "blockNumber": 110492,
      "transactionIndex": 4,
      "confirmations": null,
      "from": "0xAf3A6A5088BFBFc43bFf4eFC46e3142092B49258",
      "gasPrice": {
        "_hex": "0xdc4dd4f93"
      },
      "gasLimit": {
        "_hex": "0x5208"
      },
      "to": "0x32Be343B94f860124dC4fEe278FDCBD38C102D88",
      "value": {
        "_hex": "0x2a6939965619c800"
      },
      "nonce": 2,
      "data": "0x",
      "r": "0xcaf04b93ea6db9ef54463e73a37e5249a8b4bfcae8320eb98a53be2b55ad9d9d",
      "s": "0x215d4bf3340d5b72c149435f0ae7e223ee138149fd04a12ec532023ea7f8c20a",
      "v": 27,
      "creates": null,
      "raw": "0xf86c02850dc4dd4f938252089432be343b94f860124dc4fee278fdcbd38c102d88882a6939965619c800801ba0caf04b93ea6db9ef54463e73a37e5249a8b4bfcae8320eb98a53be2b55ad9d9da0215d4bf3340d5b72c149435f0ae7e223ee138149fd04a12ec532023ea7f8c20a",
      "networkId": 0,
      "chainId": 0
    }
  ]
}