{
  "hash": "0x965720d0b699db0af3760eee7b297ed6aa6d96c11521d123c5fa38e18e0fed25",
  "parentHash": "0x329d7740ec0eecc6489fdfef10adf116e8dcd07ab9d826a194b5a3f7d26e0595",
  "number": 51899,
  "timestamp": 1439012735,
  "nonce": "0x6ac3909524d7ae51",
  "difficulty": 1561910515530,
  "gasLimit": {
    "_hex": "0xec569"
  },
  "gasUsed": {
    "_hex": "0x5208"
  },
  "miner": "0x1EB98B9942B97f707601889Ea96904651A28de2B",
  "extraData": "0xdd809b302e392e33392b2b613832352d5257696e646f2f6d73762f4a4954",
  "transactions": [
    {
      "hash": "0x30ea9d0e90b1de91a258143e8f3114b8e23b3a8ed0a7622eaa6a5c5d974fbb77",
      "blockHash": "0x965720d0b699db0af3760eee7b297ed6aa6d96c11521d123c5fa38e18e0fed25",
      "blockNumber": 51899,
      "transactionIndex": 0,
      "confirmations": null,
      "from": "0x1308A2e95c0160B90803ddCA9B9a5bb55E416d79",
      "gasPrice": {
        "_hex": "0xe8d4a51000"
      },
      "gasLimit": {
        "_hex": "0x15f90"
      },
      "to": "0xea579918cb41D2c6267B33ADb0eD9CD04fD39ADc",
      "value": {
        "_hex": "0xb2e8fe3bae1238400"
      },
      "nonce": 9,
      "data": "0x",
      "r": "0xbd5d2aeab1b1190266fefa22d57c64df90580ad9fa4e6c27ecc6cfc28c1bdc07",
      "s": "0x7ae098951951c0598cfae3ad3d0ca9a20bdaf364fa58070365407d39c9608d9a",
      "v": 28,
      "creates": null,
      "raw": "0xf86e0985e8d4a5100083015f9094ea579918cb41d2c6267b33adb0ed9cd04fd39adc890b2e8fe3bae1238400801ca0bd5d2aeab1b1190266fefa22d57c64df90580ad9fa4e6c27ecc6cfc28c1bdc07a07ae098951951c0598cfae3ad3d0ca9a20bdaf364fa58070365407d39c9608d9a",
      "networkId": 0,
      "chainId": 0
    }
  ]
}