{
  "hash": "0xa28e84959a2550ee3c5be39b61ab3708e569efa0ad6902ce5c8e0bab0c94c161",
  "parentHash": "0xd96f2b954b1ba6a3740adc31175bd407658dd33c62e77f48bd5762ece2367857",
  "number": 92627,
  "timestamp": 1439674815,
  "nonce": "0x03bc9da158f1bbd2",
  "difficulty": 3557932687093,
  "gasLimit": {
    "_hex": "0x2fefd8"
  },
  "gasUsed": {
    "_hex": "0xf618"
  },
  "miner": "0x790b8a3cE86E707ED0eD32bF89B3269692a23CC1",
  "extraData": "0xd783010001844765746887676f312e342e32856c696e7578",
  "transactions": [
    {
      "hash": "0x78bb013e321bf99dfae20a694566f4d5c6d6a4e82cfd8f2535c0e090a88a7102",
      "blockHash": "0xa28e84959a2550ee3c5be39b61ab3708e569efa0ad6902ce5c8e0bab0c94c161",
      "blockNumber": 92627,
      "transactionIndex": 0,
      "confirmations": null,
      "from": "0xb1abce2918E21ddb93AA452731a12672A3d9F75a",
      "gasPrice": {
        "_hex": "0xdc5aae96d"
      },
      "gasLimit": {
        "_hex": "0x5208"
      },
      "to": "0x32Be343B94f860124dC4fEe278FDCBD38C102D88",
      "value": {
        "_hex": "0x8ffb20ebf4d3e0000"
      },
      "nonce": 5,
      "data": "0x",
      "r": "0x33c190457c7409f9e09cb0a049fb1f182e04d8d995c65cdb4676f9ee5358cfa8",
      "s": "0x406c3d9e1c383a5feed7106722eb971f505f43da592ac7aec99127a6b6cfb0cf",
      "v": 27,
      "creates": null,
      "raw": "0xf86d05850dc5aae96d8252089432be343b94f860124dc4fee278fdcbd38c102d888908ffb20ebf4d3e0000801ba033c190457c7409f9e09cb0a049fb1f182e04d8d995c65cdb4676f9ee5358cfa8a0406c3d9e1c383a5feed7106722eb971f505f43da592ac7aec99127a6b6cfb0cf",
      "networkId": 0,
      "chainId": 0
    },
    {
      "hash": "0x27e0bff98ded7195a7d95bd1a7e2faf0e78346c042ccbb59273242400a1b0493",
      "blockHash": "0xa28e84959a2550ee3c5be39b61ab3708e569efa0ad6902ce5c8e0bab0c94c161",
      "blockNumber": 92627,
      "transactionIndex": 1,
      "confirmations": null,
      "from": "0x52191276589069F70F0E46bcCc718d793d1Aa1D0",
      "gasPrice": {
        "_hex": "0xdc5aae96d"
      },
      "gasLimit": {
        "_hex": "0x5208"
      },
      "to": "0x32Be343B94f860124dC4fEe278FDCBD38C102D88",
      "value": {
        "_hex": "0x1bbd03a8112e3c00"
      },
      "nonce": 3,
      "data": "0x",
      "r": "0xdc55132bfb7a689864651caf7877d0000bcdf63925655131395997176e71be8a",
      "s": "0x2c05ef1e9f9a3d9528fb76e6eba4b35f19a799c17f2162fdf5b56e41a1a04495",
      "v": 28,
      "creates": null,
      "raw": "0xf86c03850dc5aae96d8252089432be343b94f860124dc4fee278fdcbd38c102d88881bbd03a8112e3c00801ca0dc55132bfb7a689864651caf7877d0000bcdf63925655131395997176e71be8aa02c05ef1e9f9a3d9528fb76e6eba4b35f19a799c17f2162fdf5b56e41a1a04495",
      "networkId": 0,
      "chainId": 0
    },
    {
      "hash": "0xbb9be861f673de05c3e7b0dbcfba9e5edfec7adb427b17c7fdc7d0f02ed6ddaa",
      "blockHash": "0xa28e84959a2550ee3c5be39b61ab3708e569efa0ad6902ce5c8e0bab0c94c161",
      "blockNumber": 92627,
      "transactionIndex": 2,
      "confirmations": null,
      "from": "0xa70a9a7040d542C632D8e0bE7c5513A8a5Bbc752",
      "gasPrice": {
        "_hex": "0xdc5aae96d"
      },
      "gasLimit": {
        "_hex": "0x5208"
      },
      "to": "0x32Be343B94f860124dC4fEe278FDCBD38C102D88",
      "value": {
        "_hex": "0x4567e9362666c400"
      },
      "nonce": 130,
      "data": "0x",
      "r": "0x789e1b3e0e14540b4750b6fc97ed74868f94a323500e792a6fe22c4fad0277f3",
      "s": "0x4fdb9510af131484f721b47858bacd73c25c313479cf2166c9db1e58fe6cedcc",
      "v": 28,
      "creates": null,
      "raw": "0xf86d8182850dc5aae96d8252089432be343b94f860124dc4fee278fdcbd38c102d88884567e9362666c400801ca0789e1b3e0e14540b4750b6fc97ed74868f94a323500e792a6fe22c4fad0277f3a04fdb9510af131484f721b47858bacd73c25c313479cf2166c9db1e58fe6cedcc",
      "networkId": 0,
      "chainId": 0
    }
  ]
}