{
  "hash": "0x2fd2dbf647a222be1da186830b3461ae3ab79e6b5cd4b01cbc1602ba8cd69fe0",
  "parentHash": "0xf514aaac2aec602531303bc889476ffe7948239a5d24d5b5a4d41e483076b022",
  "number": 94686,
  "timestamp": 1439712423,
  "nonce": "0xc47faf99fda5e9ec",
  "difficulty": 3483153713628,
  "gasLimit": {
    "_hex": "0x2fefd8"
  },
  "gasUsed": {
    "_hex": "0x19a28"
  },
  "miner": "0xC603Ab5ef41fC61AA8b76bEddb09e3Cfcbb174BD",
  "extraData": "0x476574682f76312e302e312f77696e646f77732f676f312e342e32",
  "transactions": [
    {
      "hash": "0x09d9c40d0dd0e6f192df4239a03d9be4088f5c9e06131caa5dc062ba5a3f2bc6",
      "blockHash": "0x2fd2dbf647a222be1da186830b3461ae3ab79e6b5cd4b01cbc1602ba8cd69fe0",
      "blockNumber": 94686,
      "transactionIndex": 0,
      "confirmations": null,
      "from": "0x853Bff007d269E0526E871360d79d69D602770dc",
      "gasPrice": {
        "_hex": "0xdad47a289"
      },
      "gasLimit": {
        "_hex": "0x5208"
      },
      "to": "0x32Be343B94f860124dC4fEe278FDCBD38C102D88",
      "value": {
        "_hex": "0x48ebdca3a2af68000"
      },
      "nonce": 6,
      "data": "0x",
      "r": "0x7476c9252083fcf7de4bb69d7b9e596619ae4912dc00a31cd3ccc37ec7e7eda3",
      "s": "0x124903581d44787630c8892e34eac42b26590986658b2905a66f33d61ec28b9f",
      "v": 27,
      "creates": null,
      "raw": "0xf86d06850dad47a2898252089432be343b94f860124dc4fee278fdcbd38c102d8889048ebdca3a2af68000801ba07476c9252083fcf7de4bb69d7b9e596619ae4912dc00a31cd3ccc37ec7e7eda3a0124903581d44787630c8892e34eac42b26590986658b2905a66f33d61ec28b9f",
      "networkId": 0,
      "chainId": 0
    },
    {
      "hash": "0x66a17ae098afcea6b746cac2d467387982aeac80b4a2011fe66c44aa05fa1475",
      "blockHash": "0x2fd2dbf647a222be1da186830b3461ae3ab79e6b5cd4b01cbc1602ba8cd69fe0",
      "blockNumber": 94686,
      "transactionIndex": 1,
      "confirmations": null,
      "from": "0xBA7933704d52A3e7fdBb5B5deD29e45213EA1111",
      "gasPrice": {
        "_hex": "0xdad47a289"
      },
      "gasLimit": {
        "_hex": "0x5208"
      },
      "to": "0x32Be343B94f860124dC4fEe278FDCBD38C102D88",
      "value": {
        "_hex": "0x37e8148a1697d4000"
      },
      "nonce": 5,
      "data": "0x",
      "r": "0x5d4faa941f20f932de19681b52d06515476512f7c1aed0e7d0d5652e91745cef",
      "s": "0x3382e0b90fce84535467f730c3f667f0a108ab4d2df8f3894f0e61044447259d",
      "v": 28,
      "creates": null,
      "raw": "0xf86d05850dad47a2898252089432be343b94f860124dc4fee278fdcbd38c102d8889037e8148a1697d4000801ca05d4faa941f20f932de19681b52d06515476512f7c1aed0e7d0d5652e91745cefa03382e0b90fce84535467f730c3f667f0a108ab4d2df8f3894f0e61044447259d",
      "networkId": 0,
      "chainId": 0
    },
    {
      "hash": "0xc829b37260bae25d86bc8932cb7dacb2d5a48d3103624abf73fe37857208337b",
      "blockHash": "0x2fd2dbf647a222be1da186830b3461ae3ab79e6b5cd4b01cbc1602ba8cd69fe0",
      "blockNumber": 94686,
      "transactionIndex": 2,
      "confirmations": null,
      "from": "0x0912001e29BbaF75C23069A22D9B9602BE86FEB7",
      "gasPrice": {
        "_hex": "0xdad47a289"
      },
      "gasLimit": {
        "_hex": "0x5208"
      },
      "to": "0x32Be343B94f860124dC4fEe278FDCBD38C102D88",
      "value": {
        "_hex": "0xb9b3d55aa41cd0000"
      },
      "nonce": 4,
      "data": "0x",
      "r": "0xf9db312bab4871faba21d7347b333271ff3346f071cc9a2f184a2af7df96d652",
      "s": "0x141bf6bcdc48b9406e49a1ed4bb0c4367b7a6e14e4de800c6a622bfcc2abbd40",
      "v": 27,
      "creates": null,
      "raw": "0xf86d04850dad47a2898252089432be343b94f860124dc4fee278fdcbd38c102d88890b9b3d55aa41cd0000801ba0f9db312bab4871faba21d7347b333271ff3346f071cc9a2f184a2af7df96d652a0141bf6bcdc48b9406e49a1ed4bb0c4367b7a6e14e4de800c6a622bfcc2abbd40",
      "networkId": 0,
      "chainId": 0
    },
    {
      "hash": "0xa1afb475e7f1e6710b0540fd4393194b6c30ae3fb73de5b58e5b4ceff19b99d2",
      "blockHash": "0x2fd2dbf647a222be1da186830b3461ae3ab79e6b5cd4b01cbc1602ba8cd69fe0",
      "blockNumber": 94686,
      "transactionIndex": 3,
      "confirmations": null,
      "from": "0xe7523F78ae9eDb81dC7B2A9ca718Ba3776C14f2e",
      "gasPrice": {
        "_hex": "0xdad47a289"
      },
      "gasLimit": {
        "_hex": "0x5208"
      },
      "to": "0x32Be343B94f860124dC4fEe278FDCBD38C102D88",
      "value": {
        "_hex": "0xf548573fffb33000"
      },
      "nonce": 5,
      "data": "0x",
      "r": "0x56fef6f0629e2fd5726d40a44282d940c2e1737fe22de3d38ea85a4d191ca276",
      "s": "0x1e0e794e014d3a39073743da79e8db1072cb514b933895e84997712f1d238766",
      "v": 28,
      "creates": null,
      "raw": "0xf86c05850dad47a2898252089432be343b94f860124dc4fee278fdcbd38c102d8888f548573fffb33000801ca056fef6f0629e2fd5726d40a44282d940c2e1737fe22de3d38ea85a4d191ca276a01e0e794e014d3a39073743da79e8db1072cb514b933895e84997712f1d238766",
      "networkId": 0,
      "chainId": 0
    },
    {
      "hash": "0x3409a094eb4918e4b59c46671f693d2dbf4c6bf4c381d34ed1f58c2efdd2c2f9",
      "blockHash": "0x2fd2dbf647a222be1da186830b3461ae3ab79e6b5cd4b01cbc1602ba8cd69fe0",
      "blockNumber": 94686,
      "transactionIndex": 4,
      "confirmations": null,
      "from": "0x2910543Af39abA0Cd09dBb2D50200b3E800A63D2",
      "gasPrice": {
        "_hex": "0xcf303909a"
      },
      "gasLimit": {
        "_hex": "0x5208"
      },
      "to": "0x2aBD9e50d51e97aFc9a984f64657eD9539c59c91",
      "value": {
        "_hex": "0x1b1ae4d6e2ef500000"
      },
      "nonce": 882,
      "data": "0x",
      "r": "0x4967d85ec68a8fe4bbda91fdf581525471c75a43ade8d0a4ff8b537b2f91d6da",
      "s": "0x0f88eb165e6ff8026e4900183b48526f16f45681d57902fc680451563bbcd6f7",
      "v": 27,
      "creates": null,
      "raw": "0xf86f820372850cf303909a825208942abd9e50d51e97afc9a984f64657ed9539c59c91891b1ae4d6e2ef500000801ba04967d85ec68a8fe4bbda91fdf581525471c75a43ade8d0a4ff8b537b2f91d6daa00f88eb165e6ff8026e4900183b48526f16f45681d57902fc680451563bbcd6f7",
      "networkId": 0,
      "chainId": 0
    }
  ]
}