{
  "hash": "0xf24397524a317e7f476d317cb8f2e371d79159e32fb3574183c54eb52604a9a5",
  "parentHash": "0x997d8d42fb5c1eb7da90c8c027cc63918b601599dad7168be362c9247b4dc47b",
  "number": 109184,
  "timestamp": 1439952234,
  "nonce": "0x40de6afb21d8641b",
  "difficulty": 4456023253650,
  "gasLimit": {
    "_hex": "0x2fefd8"
  },
  "gasUsed": {
    "_hex": "0x5208"
  },
  "miner": "0xe6A7a1d47ff21B6321162AEA7C6CB457D5476Bca",
  "extraData": "0x476574682f76312e302e312d38326566323666362f6c696e75782f676f312e34",
  "transactions": [
    {
      "hash": "0x7bae3256fbb1dddba1667dfce75dce65d788879db8da2741410878faa8ded133",
      "blockHash": "0xf24397524a317e7f476d317cb8f2e371d79159e32fb3574183c54eb52604a9a5",
      "blockNumber": 109184,
      "transactionIndex": 0,
      "confirmations": null,
      "from": "0x007f7f58D3eb5b7510A301eCC749FC1fCDDBE14D",
      "gasPrice": {
        "_hex": "0xd382b0b9c"
      },
      "gasLimit": {
        "_hex": "0x15f90"
      },
      "to": "0xb1abce2918E21ddb93AA452731a12672A3d9F75a",
      "value": {
        "_hex": "0x4563918244f40000"
      },
      "nonce": 260,
      "data": "0x",
      "r": "0xce809534a95d9097e18244ca26d8f6b9f443f682097fe2dd176210266153b0dd",
      "s": "0x306f00d1b953d57566ed6e391727167dd704e4fc43e8b33c2ed87de71e10043a",
      "v": 28,
      "creates": null,
      "raw": "0xf86f820104850d382b0b9c83015f9094b1abce2918e21ddb93aa452731a12672a3d9f75a884563918244f40000801ca0ce809534a95d9097e18244ca26d8f6b9f443f682097fe2dd176210266153b0dda0306f00d1b953d57566ed6e391727167dd704e4fc43e8b33c2ed87de71e10043a",
      "networkId": 0,
      "chainId": 0
    }
  ]
}