{
  "hash": "0xa8ce9cab1b603c97a99b35377d1bc60cc4ce065e20e1802b5f85539563c4f2db",
  "parentHash": "0xd5965e7374ad86f3f8ee10604d51d5d341843af39eb5e43cdf65088b117964f8",
  "number": 69295,
  "timestamp": 1439301473,
  "nonce": "0xe7b81e65a768554a",
  "difficulty": 2060879623588,
  "gasLimit": {
    "_hex": "0x2fefd8"
  },
  "gasUsed": {
    "_hex": "0x33450"
  },
  "miner": "0x9746c7e1ef2bd21FF3997fa467593a89cb852BD0",
  "extraData": "0x476574682f76312e302e312f77696e646f77732f676f312e342e32",
  "transactions": [
    {
      "hash": "0xd84f5fe4878bb87f9745a4de2b051a29eef56b05dbd3a09f09476267a28a4e02",
      "blockHash": "0xa8ce9cab1b603c97a99b35377d1bc60cc4ce065e20e1802b5f85539563c4f2db",
      "blockNumber": 69295,
      "transactionIndex": 0,
      "confirmations": null,
      "from": "0xa114c802ef29776f05f9c6925cE915232e8ae102",
      "gasPrice": {
        "_hex": "0xd280b4969"
      },
      "gasLimit": {
        "_hex": "0x5208"
      },
      "to": "0x32Be343B94f860124dC4fEe278FDCBD38C102D88",
      "value": {
        "_hex": "0x17d07dd11610de000"
      },
      "nonce": 0,
      "data": "0x",
      "r": "0xc4b98b3ec5c4bf3694911acce9c789c6a19ab433f339fbe8b878862bb4eea6c0",
      "s": "0x545a59ec79b1c10d836a8797e27f443a315ac452f25257448fb2092d6706368f",
      "v": 27,
      "creates": null,
      "raw": "0xf86d80850d280b49698252089432be343b94f860124dc4fee278fdcbd38c102d8889017d07dd11610de000801ba0c4b98b3ec5c4bf3694911acce9c789c6a19ab433f339fbe8b878862bb4eea6c0a0545a59ec79b1c10d836a8797e27f443a315ac452f25257448fb2092d6706368f",
      "networkId": 0,
      "chainId": 0
    },
    {
      "hash": "0x0a74bc0184cfa070082d4e6e18ad648ce2e66873d2b52c07c9bfd152ec103998",
      "blockHash": "0xa8ce9cab1b603c97a99b35377d1bc60cc4ce065e20e1802b5f85539563c4f2db",
      "blockNumber": 69295,
      "transactionIndex": 1,
      "confirmations": null,
      "from": "0x702bD0d370bBf0B97B66FE95578c62697c583393",
      "gasPrice": {
        "_hex": "0xd280b4969"
      },
      "gasLimit": {
        "_hex": "0x5208"
      },
      "to": "0x32Be343B94f860124dC4fEe278FDCBD38C102D88",
      "value": {
        "_hex": "0x5fadcfe5b11c9c00"
      },
      "nonce": 0,
      "data": "0x",
      "r": "0x9da2f29b86a3eb2890e4efe79d143d30f220801ea8ffe163aeed4e2634f1c59f",
      "s": "0x60611cdd1c6f8f393fd7a5d4b61f49f60fcf9b2f86e5ddf9e6e5ed07a4a5b10d",
      "v": 28,
      "creates": null,
      "raw": "0xf86c80850d280b49698252089432be343b94f860124dc4fee278fdcbd38c102d88885fadcfe5b11c9c00801ca09da2f29b86a3eb2890e4efe79d143d30f220801ea8ffe163aeed4e2634f1c59fa060611cdd1c6f8f393fd7a5d4b61f49f60fcf9b2f86e5ddf9e6e5ed07a4a5b10d",
      "networkId": 0,
      "chainId": 0
    },
    {
      "hash": "0xd74edf3072bd05ee4601fa3322da3ba2b88886a6e3456a6a1fad9047c24a1444",
      "blockHash": "0xa8ce9cab1b603c97a99b35377d1bc60cc4ce065e20e1802b5f85539563c4f2db",
      "blockNumber": 69295,
      "transactionIndex": 2,
      "confirmations": null,
      "from": "0x6964b95BF8BA16b837e2f3Ae8dA7D299553eC1f7",
      "gasPrice": {
        "_hex": "0xd280b4969"
      },
      "gasLimit": {
        "_hex": "0x5208"
      },
      "to": "0x32Be343B94f860124dC4fEe278FDCBD38C102D88",
      "value": {
        "_hex": "0x8551005ac4653000"
      },
      "nonce": 0,
      "data": "0x",
      "r": "0xca1ccd1da888c6b48061e4b0c7036d7c747ac292508d349789a2a209875473b5",
      "s": "0x51fe7c2ea12ee5491b20687dbe2c10498a5cbf1d6e6b8040dba127df9000c5ed",
      "v": 28,
      "creates": null,
      "raw": "0xf86c80850d280b49698252089432be343b94f860124dc4fee278fdcbd38c102d88888551005ac4653000801ca0ca1ccd1da888c6b48061e4b0c7036d7c747ac292508d349789a2a209875473b5a051fe7c2ea12ee5491b20687dbe2c10498a5cbf1d6e6b8040dba127df9000c5ed",
      "networkId": 0,
      "chainId": 0
    },
    {
      "hash": "0x8313aad4e6d192390df900d10467c2f6046fa7a6158cfcde07a88b0b650b349d",
      "blockHash": "0xa8ce9cab1b603c97a99b35377d1bc60cc4ce065e20e1802b5f85539563c4f2db",
      "blockNumber": 69295,
      "transactionIndex": 3,
      "confirmations": null,
      "from": "0x6A8CC233E14F874983bB2F37D1DE706f6910Ef0b",
      "gasPrice": {
        "_hex": "0xd280b4969"
      },
      "gasLimit": {
        "_hex": "0x5208"
      },
      "to": "0x32Be343B94f860124dC4fEe278FDCBD38C102D88",
      "value": {
        "_hex": "0xfb1b5e4eb3512800"
      },
      "nonce": 0,
      "data": "0x",
      "r": "0x34b7c427cf3633d021cfe965cb8d9abb8c2bcb0a257a27e9b81a6a13f514793e",
      "s": "0x1a3d1eb7071ae46729560b6f5146ff42c9458e063b69272fe3427228d7434a6c",
      "v": 27,
      "creates": null,
      "raw": "0xf86c80850d280b49698252089432be343b94f860124dc4fee278fdcbd38c102d8888fb1b5e4eb3512800801ba034b7c427cf3633d021cfe965cb8d9abb8c2bcb0a257a27e9b81a6a13f514793ea01a3d1eb7071ae46729560b6f5146ff42c9458e063b69272fe3427228d7434a6c",
      "networkId": 0,
      "chainId": 0
    },
    {
      "hash": "0x7368396aec63811320ec28351bda9947ab63d5a5f6ae573639778f44941d9bec",
      "blockHash": "0xa8ce9cab1b603c97a99b35377d1bc60cc4ce065e20e1802b5f85539563c4f2db",
      "blockNumber": 69295,
      "transactionIndex": 4,
      "confirmations": null,
      "from": "0xbA86D58204A1f1fbe53Ff71aa038BC08cb4057e8",
      "gasPrice": {
        "_hex": "0xd280b4969"
      },
      "gasLimit": {
        "_hex": "0x5208"
      },
      "to": "0x32Be343B94f860124dC4fEe278FDCBD38C102D88",
      "value": {
        "_hex": "0x17bcfdfe8727d1000"
      },
      "nonce": 0,
      "data": "0x",
      "r": "0x71d4a3a6efe4a74adcd42e3119c697599a3e5e8fd4afa397863a068bf71125aa",
      "s": "0x1e70720c64a04415d86d761667edc9eda113b1da353c471ab4abb1478193ece6",
      "v": 27,
      "creates": null,
      "raw": "0xf86d80850d280b49698252089432be343b94f860124dc4fee278fdcbd38c102d8889017bcfdfe8727d1000801ba071d4a3a6efe4a74adcd42e3119c697599a3e5e8fd4afa397863a068bf71125aaa01e70720c64a04415d86d761667edc9eda113b1da353c471ab4abb1478193ece6",
      "networkId": 0,
      "chainId": 0
    },
    {
      "hash": "0xc3b955c01a3677501f8a37b4c5d3a85e555e18c679dd8e37690c29b0fdd1b8ac",
      "blockHash": "0xa8ce9cab1b603c97a99b35377d1bc60cc4ce065e20e1802b5f85539563c4f2db",
      "blockNumber": 69295,
      "transactionIndex": 5,
      "confirmations": null,
      "from": "0x3B399fF2b96F27056Ab8a7f6e028b0dBaF386279",
      "gasPrice": {
        "_hex": "0xd280b4969"
      },
      "gasLimit": {
        "_hex": "0x5208"
      },
      "to": "0x32Be343B94f860124dC4fEe278FDCBD38C102D88",
      "value": {
        "_hex": "0xa4ef7fdaf25ff000"
      },
      "nonce": 0,
      "data": "0x",
      "r": "0x39008ab1dd8f3195db09b18a75f3eb66cc475323646c5589ebea24fc83069b32",
      "s": "0x57fb921008107326a0996f1e0e9cea4a371ca8bd819170f46816a799366c81ae",
      "v": 28,
      "creates": null,
      "raw": "0xf86c80850d280b49698252089432be343b94f860124dc4fee278fdcbd38c102d8888a4ef7fdaf25ff000801ca039008ab1dd8f3195db09b18a75f3eb66cc475323646c5589ebea24fc83069b32a057fb921008107326a0996f1e0e9cea4a371ca8bd819170f46816a799366c81ae",
      "networkId": 0,
      "chainId": 0
    },
    {
      "hash": "0x97e1b20af0e70fc5c7f32018aa09ab0c48052b8c859f4223ef6f27ec15dcccb6",
      "blockHash": "0xa8ce9cab1b603c97a99b35377d1bc60cc4ce065e20e1802b5f85539563c4f2db",
      "blockNumber": 69295,
      "transactionIndex": 6,
      "confirmations": null,
      "from": "0x842aC76913Df36aFcbdfE5fA4872759ed84210Bf",
      "gasPrice": {
        "_hex": "0xd280b4969"
      },
      "gasLimit": {
        "_hex": "0x5208"
      },
      "to": "0x32Be343B94f860124dC4fEe278FDCBD38C102D88",
      "value": {
        "_hex": "0x7310828940e59000"
      },
      "nonce": 0,
      "data": "0x",
      "r": "0xa2763e8acd328d1401f9ded1e40d5fddd05bb4ff7af50d3a48c5865092cf9357",
      "s": "0x1b08197fa7ebbf01acac83a78b0559a8c922fdad2765f1dbc6d105068335a71c",
      "v": 27,
      "creates": null,
      "raw": "0xf86c80850d280b49698252089432be343b94f860124dc4fee278fdcbd38c102d88887310828940e59000801ba0a2763e8acd328d1401f9ded1e40d5fddd05bb4ff7af50d3a48c5865092cf9357a01b08197fa7ebbf01acac83a78b0559a8c922fdad2765f1dbc6d105068335a71c",
      "networkId": 0,
      "chainId": 0
    },
    {
      "hash": "0x327346aa0893533aeb195aca1867ffc5b6e063536dde5c61357f2f8b0854c4c6",
      "blockHash": "0xa8ce9cab1b603c97a99b35377d1bc60cc4ce065e20e1802b5f85539563c4f2db",
      "blockNumber": 69295,
      "transactionIndex": 7,
      "confirmations": null,
      "from": "0x6589D22b54648e5D67Dc008eBd0c836D3DF39c87",
      "gasPrice": {
        "_hex": "0xd280b4969"
      },
      "gasLimit": {
        "_hex": "0x5208"
      },
      "to": "0x32Be343B94f860124dC4fEe278FDCBD38C102D88",
      "value": {
        "_hex": "0x5bd62f792f61a800"
      },
      "nonce": 0,
      "data": "0x",
      "r": "0xbfafd228cd574864dcfb3951a891191ee00ed3797f634c648f2ca8867390864c",
      "s": "0x6a5ba20370662511e95222ec184a7d32254a827750174bc6fceac5849c9dd9c7",
      "v": 27,
      "creates": null,
      "raw": "0xf86c80850d280b49698252089432be343b94f860124dc4fee278fdcbd38c102d88885bd62f792f61a800801ba0bfafd228cd574864dcfb3951a891191ee00ed3797f634c648f2ca8867390864ca06a5ba20370662511e95222ec184a7d32254a827750174bc6fceac5849c9dd9c7",
      "networkId": 0,
      "chainId": 0
    },
    {
      "hash": "0xfcf540880e09ed3ffea987fa935ffa88d4a5732c48b065c39a18afeaf03142be",
      "blockHash": "0xa8ce9cab1b603c97a99b35377d1bc60cc4ce065e20e1802b5f85539563c4f2db",
      "blockNumber": 69295,
      "transactionIndex": 8,
      "confirmations": null,
      "from": "0x5248EfBC7319bd65d436374266765D9727253F12",
      "gasPrice": {
        "_hex": "0xd280b4969"
      },
      "gasLimit": {
        "_hex": "0x5208"
      },
      "to": "0x32Be343B94f860124dC4fEe278FDCBD38C102D88",
      "value": {
        "_hex": "0x13f67b32dcd54e000"
      },
      "nonce": 0,
      "data": "0x",
      "r": "0xe56831cf4f61f50f6ffaeb27fa611886dd16bc3c117002adec3d5ddb9ec74704",
      "s": "0x2959f263cf017c171c56d1f09991117a9a1f173d8669d204326f09e789f1bfc6",
      "v": 28,
      "creates": null,
      "raw": "0xf86d80850d280b49698252089432be343b94f860124dc4fee278fdcbd38c102d8889013f67b32dcd54e000801ca0e56831cf4f61f50f6ffaeb27fa611886dd16bc3c117002adec3d5ddb9ec74704a02959f263cf017c171c56d1f09991117a9a1f173d8669d204326f09e789f1bfc6",
      "networkId": 0,
      "chainId": 0
    },
    {
      "hash": "0x160b54a818ceb3e78ba6826ba57a609c50e951b2f94528be99827980ed412f92",
      "blockHash": "0xa8ce9cab1b603c97a99b35377d1bc60cc4ce065e20e1802b5f85539563c4f2db",
      "blockNumber": 69295,
      "transactionIndex": 9,
      "confirmations": null,
      "from": "0x2910543Af39abA0Cd09dBb2D50200b3E800A63D2",
      "gasPrice": {
        "_hex": "0xcb77178f1"
      },
      "gasLimit": {
        "_hex": "0x5208"
      },
      "to": "0x439dEe3F7679fF1030733F9340c096686b49390b",
      "value": {
        "_hex": "0x8a15409e3600a000"
      },
      "nonce": 223,
      "data": "0x",
      "r": "0x69684d5f18adcff3a1728fb4209932ab61d48d1bf9d85f0957c7c5496b5bb0a0",
      "s": "0x5f92d2d97c821c3eed89942951a8a629cce4a908ca642e202bc697b58c3c68df",
      "v": 28,
      "creates": null,
      "raw": "0xf86d81df850cb77178f182520894439dee3f7679ff1030733f9340c096686b49390b888a15409e3600a000801ca069684d5f18adcff3a1728fb4209932ab61d48d1bf9d85f0957c7c5496b5bb0a0a05f92d2d97c821c3eed89942951a8a629cce4a908ca642e202bc697b58c3c68df",
      "networkId": 0,
      "chainId": 0
    }
  ]
}