{
  "hash": "0x819692ff38e7b451dff59a53a3e8f8ce75bc00efe2bfb002974ecfd5be2b3d4a",
  "parentHash": "0x907440a455dd1333be5b35bf85ea3d5bb131df0c05e7bfe24e624371ba4e2df2",
  "number": 91701,
  "timestamp": 1439660042,
  "nonce": "0x3441532c98228ba8",
  "difficulty": 3489501211249,
  "gasLimit": {
    "_hex": "0x2fefd8"
  },
  "gasUsed": {
    "_hex": "0xa410"
  },
  "miner": "0xe6A7a1d47ff21B6321162AEA7C6CB457D5476Bca",
  "extraData": "0x476574682f76312e302e312d38326566323666362f6c696e75782f676f312e34",
  "transactions": [
    {
      "hash": "0xd63557a5146fc805a6210ac1c85b658d6a4fc1833737433afe678dff11855744",
      "blockHash": "0x819692ff38e7b451dff59a53a3e8f8ce75bc00efe2bfb002974ecfd5be2b3d4a",
      "blockNumber": 91701,
      "transactionIndex": 0,
      "confirmations": null,
      "from": "0x32Be343B94f860124dC4fEe278FDCBD38C102D88",
      "gasPrice": {
        "_hex": "0xdbafc885d"
      },
      "gasLimit": {
        "_hex": "0x5208"
      },
      "to": "0x8c0A6b62918D317e3B431EfB67E3fB5eff333b1c",
      "value": {
        "_hex": "0xcf24344f8ae528000"
      },
      "nonce": 882,
      "data": "0x",
      "r": "0x6d6bbd49141721404d829a08a70766cabb195c410f3e4dede9fa0d9b0e8f1f42",
      "s": "0x274129387df83ec96bfebf5f23cc0adc043f7af158912ebe7f829b9be9525cb1",
      "v": 27,
      "creates": null,
      "raw": "0xf86f820372850dbafc885d825208948c0a6b62918d317e3b431efb67e3fb5eff333b1c890cf24344f8ae528000801ba06d6bbd49141721404d829a08a70766cabb195c410f3e4dede9fa0d9b0e8f1f42a0274129387df83ec96bfebf5f23cc0adc043f7af158912ebe7f829b9be9525cb1",
      "networkId": 0,
      "chainId": 0
    },
    {
      "hash": "0x975cc45e3c44c1dea1d84dda729a7f5a1b1eb41dea2ab946d3152f7d89aba5f2",
      "blockHash": "0x819692ff38e7b451dff59a53a3e8f8ce75bc00efe2bfb002974ecfd5be2b3d4a",
      "blockNumber": 91701,
      "transactionIndex": 1,
      "confirmations": null,
      "from": "0x120A270bbC009644e35F0bB6ab13f95b8199c4ad",
      "gasPrice": {
        "_hex": "0xd6f9f6557"
      },
      "gasLimit": {
        "_hex": "0x3d090"
      },
      "to": "0x92EaD2fddC406586Da17701cdA5068fCA63CdEbF",
      "value": {
        "_hex": "0x63879e50748130000"
      },
      "nonce": 537,
      "data": "0x",
      "r": "0xb384fd8f8cab813279bb8c0990957f061dc0ce4011248d4a3b49016e29aa8616",
      "s": "0x4ca3039ea884211a01b235106dc30bf23bff77027c6f0d1e63c3119928ac26bc",
      "v": 27,
      "creates": null,
      "raw": "0xf870820219850d6f9f65578303d0909492ead2fddc406586da17701cda5068fca63cdebf89063879e50748130000801ba0b384fd8f8cab813279bb8c0990957f061dc0ce4011248d4a3b49016e29aa8616a04ca3039ea884211a01b235106dc30bf23bff77027c6f0d1e63c3119928ac26bc",
      "networkId": 0,
      "chainId": 0
    }
  ]
}