{
  "hash": "0x3141ec60f32334d409cba5ceb2ece28db43349faaab6dff770fcbc072593b50f",
  "parentHash": "0x90598d340083d7dcfb5fb7b445913a45531f5ec410d45083c8ec6d8a770e537d",
  "number": 120878,
  "timestamp": 1440167367,
  "nonce": "0xa01e956e39331018",
  "difficulty": 4454163381336,
  "gasLimit": {
    "_hex": "0x2fefd8"
  },
  "gasUsed": {
    "_hex": "0x5208"
  },
  "miner": "0xe6A7a1d47ff21B6321162AEA7C6CB457D5476Bca",
  "extraData": "0xd783010002844765746887676f312e342e32856c696e7578",
  "transactions": [
    {
      "hash": "0x78ec32e7e60f530730fe53395dce5d344b72db4c33e3684d63355be64321af61",
      "blockHash": "0x3141ec60f32334d409cba5ceb2ece28db43349faaab6dff770fcbc072593b50f",
      "blockNumber": 120878,
      "transactionIndex": 0,
      "confirmations": null,
      "from": "0x2910543Af39abA0Cd09dBb2D50200b3E800A63D2",
      "gasPrice": {
        "_hex": "0xce9a35295"
      },
      "gasLimit": {
        "_hex": "0x5208"
      },
      "to": "0x8F586E3212291c58DCc78980a9c3432a3aFd3b6E",
      "value": {
        "_hex": "0x4f5bf89bd1c5d8000"
      },
      "nonce": 1184,
      "data": "0x",
      "r": "0x28000a25292ab6a5089e6acd935acb00bdf021b06d6f83ae1a5b84b89a6c8492",
      "s": "0x62364e17ad6bfee854f22132f6ca9892e6f0b8891c5c7e79a1b3be4bd9b35559",
      "v": 27,
      "creates": null,
      "raw": "0xf86f8204a0850ce9a35295825208948f586e3212291c58dcc78980a9c3432a3afd3b6e8904f5bf89bd1c5d8000801ba028000a25292ab6a5089e6acd935acb00bdf021b06d6f83ae1a5b84b89a6c8492a062364e17ad6bfee854f22132f6ca9892e6f0b8891c5c7e79a1b3be4bd9b35559",
      "networkId": 0,
      "chainId": 0
    }
  ]
}