{
  "hash": "0x3ff2ae506a437b9517d4c223fc454b71302bd02166fc789d740c0bf4ffb5ead2",
  "parentHash": "0xc734309bfe00b889da787a634aac5849ee36a6049b4f4d9a733fb04fb72bec25",
  "number": 95469,
  "timestamp": 1439724576,
  "nonce": "0x1f8ec3fec858f2d2",
  "difficulty": 3609211459193,
  "gasLimit": {
    "_hex": "0x2fefd8"
  },
  "gasUsed": {
    "_hex": "0xa674"
  },
  "miner": "0x89972aA7C0b19D1aE9cd89386160c3f28f7bB590",
  "extraData": "0xd983010001844765746887676f312e342e328777696e646f7773",
  "transactions": [
    {
      "hash": "0x4f2fcbb4fe0a19efd1125713697ad514c119d230e17036ddaa0ceff00808301b",
      "blockHash": "0x3ff2ae506a437b9517d4c223fc454b71302bd02166fc789d740c0bf4ffb5ead2",
      "blockNumber": 95469,
      "transactionIndex": 0,
      "confirmations": null,
      "from": "0x2B5F4B3f1E11707A227Aa5e69fa49ddeD33fB321",
      "gasPrice": {
        "_hex": "0xcd6c1ebb1"
      },
      "gasLimit": {
        "_hex": "0x55f0"
      },
      "to": "0x2910543Af39abA0Cd09dBb2D50200b3E800A63D2",
      "value": {
        "_hex": "0x43c33c1937564800000"
      },
      "nonce": 4,
      "data": "0x454e3756465a343052",
      "r": "0x5301c2d4dad215a24a9cdcff2156eff641a5cdafcb4265bfa586a52884c0b7f8",
      "s": "0x0240850e1298b6cbc561cc8d33ac905cfaaaa9d4b1e758e042695703207c864d",
      "v": 27,
      "creates": null,
      "raw": "0xf87704850cd6c1ebb18255f0942910543af39aba0cd09dbb2d50200b3e800a63d28a043c33c193756480000089454e3756465a3430521ba05301c2d4dad215a24a9cdcff2156eff641a5cdafcb4265bfa586a52884c0b7f8a00240850e1298b6cbc561cc8d33ac905cfaaaa9d4b1e758e042695703207c864d",
      "networkId": 0,
      "chainId": 0
    },
    {
      "hash": "0x86a889547e9ce4ab931dcc16e89ade30b74f8ae0bb3f2f1175169c5880d98cae",
      "blockHash": "0x3ff2ae506a437b9517d4c223fc454b71302bd02166fc789d740c0bf4ffb5ead2",
      "blockNumber": 95469,
      "transactionIndex": 1,
      "confirmations": null,
      "from": "0x007f7f58D3eb5b7510A301eCC749FC1fCDDBE14D",
      "gasPrice": {
        "_hex": "0xcc8ddf695"
      },
      "gasLimit": {
        "_hex": "0x15f90"
      },
      "to": "0xb1abce2918E21ddb93AA452731a12672A3d9F75a",
      "value": {
        "_hex": "0x4563918244f40000"
      },
      "nonce": 57,
      "data": "0x",
      "r": "0x3db371cc595af19da33a249e189ddb58a59c6b449cba27aad5e73d18add23695",
      "s": "0x3e8022c974901bbc49e86c42e3c31295182d4a9044003c95674297e52a36133e",
      "v": 27,
      "creates": null,
      "raw": "0xf86d39850cc8ddf69583015f9094b1abce2918e21ddb93aa452731a12672a3d9f75a884563918244f40000801ba03db371cc595af19da33a249e189ddb58a59c6b449cba27aad5e73d18add23695a03e8022c974901bbc49e86c42e3c31295182d4a9044003c95674297e52a36133e",
      "networkId": 0,
      "chainId": 0
    }
  ]
}