{
  "hash": "0x0c9366d925e46e40b1b032a16467b10e5d6a0bd0f56db65aef1feaf97b03db94",
  "parentHash": "0x052923e58371e57590bcb1aa57f8f41162f6102e700f0d021df3f4d878a24812",
  "number": 74758,
  "timestamp": 1439391741,
  "nonce": "0xd5ef5d5f25835306",
  "difficulty": 2199872990129,
  "gasLimit": {
    "_hex": "0x2fefd8"
  },
  "gasUsed": {
    "_hex": "0x5208"
  },
  "miner": "0xa6BDc31c431B8F97848c9D60cbbe9660dc450eB7",
  "extraData": "0x",
  "transactions": [
    {
      "hash": "0xd185838a453eb8b192fef65099f473bdcf65af2cc3a54d766f3b5c7b33300e3a",
      "blockHash": "0x0c9366d925e46e40b1b032a16467b10e5d6a0bd0f56db65aef1feaf97b03db94",
      "blockNumber": 74758,
      "transactionIndex": 0,
      "confirmations": null,
      "from": "0x744Df4ED8BaC8eBCa76964a93358c3A67a89b003",
      "gasPrice": {
        "_hex": "0xba43b7400"
      },
      "gasLimit": {
        "_hex": "0x5267"
      },
      "to": "0x08FE5A3C0709cF74d76cFd0e0Cd9d2A447eA263C",
      "value": {
        "_hex": "0x602fdbc72a3b8000"
      },
      "nonce": 1,
      "data": "0x",
      "r": "0x21abf873b3297a6c68b0f0650e7c37f70b10826e930e078f67f14931837a13bf",
      "s": "0xba06e178f94ecd2ba2b05d7eb8ff2098f1994e0deb283eb1c2b15a67c5319b7c",
      "v": 28,
      "creates": null,
      "raw": "0xf86c01850ba43b74008252679408fe5a3c0709cf74d76cfd0e0cd9d2a447ea263c88602fdbc72a3b8000801ca021abf873b3297a6c68b0f0650e7c37f70b10826e930e078f67f14931837a13bfa0ba06e178f94ecd2ba2b05d7eb8ff2098f1994e0deb283eb1c2b15a67c5319b7c",
      "networkId": 0,
      "chainId": 0
    }
  ]
}