{
  "hash": "0x5042ded552907d412f5388d7cc52190a13a5ea5979dce9327c2ab2c85a553f4e",
  "parentHash": "0x29d6ada97a590b9350ee404c7bd1f2fb90e7fbb2a80631c4a4bbf23fd2a5e77e",
  "number": 106344,
  "timestamp": 1439902620,
  "nonce": "0x2df67744cc24bdd1",
  "difficulty": 4470610440922,
  "gasLimit": {
    "_hex": "0x2fefd8"
  },
  "gasUsed": {
    "_hex": "0x5208"
  },
  "miner": "0xe6A7a1d47ff21B6321162AEA7C6CB457D5476Bca",
  "extraData": "0x476574682f76312e302e312d38326566323666362f6c696e75782f676f312e34",
  "transactions": [
    {
      "hash": "0xf46cd0d03abc0148f4a38eb6988d1db6ce631d41bdcdf9639b74d49efbe0a477",
      "blockHash": "0x5042ded552907d412f5388d7cc52190a13a5ea5979dce9327c2ab2c85a553f4e",
      "blockNumber": 106344,
      "transactionIndex": 0,
      "confirmations": null,
      "from": "0x2910543Af39abA0Cd09dBb2D50200b3E800A63D2",
      "gasPrice": {
        "_hex": "0xd8acd2f50"
      },
      "gasLimit": {
        "_hex": "0x5208"
      },
      "to": "0xf3731A397D198a526EF77bD99906873936f05AB8",
      "value": {
        "_hex": "0x2af3a61a1bd58000"
      },
      "nonce": 1032,
      "data": "0x",
      "r": "0x8bee2cbb5b4aa6a0863a7b27f3d0787ee23ef722f07295bcedabe595af790796",
      "s": "0x4f71734f57b20b670f1e9fa5b669c426e074182c9d6c7b1322ef8084b55359da",
      "v": 28,
      "creates": null,
      "raw": "0xf86e820408850d8acd2f5082520894f3731a397d198a526ef77bd99906873936f05ab8882af3a61a1bd58000801ca08bee2cbb5b4aa6a0863a7b27f3d0787ee23ef722f07295bcedabe595af790796a04f71734f57b20b670f1e9fa5b669c426e074182c9d6c7b1322ef8084b55359da",
      "networkId": 0,
      "chainId": 0
    }
  ]
}