{
  "hash": "0xdc24332b8fd0d4981ef8d7a6f2f47a1eebd21285709eba77038b5015d7a38f69",
  "parentHash": "0xcb3bb9ea758b9c93567d93509b0a0953706cf8cbeac4ec06f521834817cd9072",
  "number": 119372,
  "timestamp": 1440141676,
  "nonce": "0x80cc05263708a9c3",
  "difficulty": 4415979717949,
  "gasLimit": {
    "_hex": "0x2fefd8"
  },
  "gasUsed": {
    "_hex": "0x5208"
  },
  "miner": "0x0D2C9857E819cf1275eb59B49033343ccC35fe42",
  "extraData": "0x",
  "transactions": [
    {
      "hash": "0x17199b30e4fbc7d921f6583ca1e4214743f43b55753ca263ec3c94526f35524d",
      "blockHash": "0xdc24332b8fd0d4981ef8d7a6f2f47a1eebd21285709eba77038b5015d7a38f69",
      "blockNumber": 119372,
      "transactionIndex": 0,
      "confirmations": null,
      "from": "0xBA7933704d52A3e7fdBb5B5deD29e45213EA1111",
      "gasPrice": {
        "_hex": "0xba43b7400"
      },
      "gasLimit": {
        "_hex": "0x5208"
      },
      "to": "0x32Be343B94f860124dC4fEe278FDCBD38C102D88",
      "value": {
        "_hex": "0xd512c30f4476c000"
      },
      "nonce": 12,
      "data": "0x",
      "r": "0x34f1d9b5b5350ecef9a1f42c12f1248a799328e6b4f3db44c3e8fea1e1195dde",
      "s": "0x31af0f72a4e938e3b772ec159cee30e411ebec91508257f914cb79c757e60f06",
      "v": 27,
      "creates": null,
      "raw": "0xf86c0c850ba43b74008252089432be343b94f860124dc4fee278fdcbd38c102d8888d512c30f4476c000801ba034f1d9b5b5350ecef9a1f42c12f1248a799328e6b4f3db44c3e8fea1e1195ddea031af0f72a4e938e3b772ec159cee30e411ebec91508257f914cb79c757e60f06",
      "networkId": 0,
      "chainId": 0
    }
  ]
}