{
  "hash": "0x30722b42979617a4f6f4fac2eae91ff3871ddc78a4d7a661fe3a4f96f65c05f2",
  "parentHash": "0xb44fe68a6b4ebf86dc68d1d196d4384d66746658a9db29c40c0ed2bfa6ad0bb0",
  "number": 92083,
  "timestamp": 1439666547,
  "nonce": "0xa9ee7dd620b97979",
  "difficulty": 3472346033111,
  "gasLimit": {
    "_hex": "0x2fefd8"
  },
  "gasUsed": {
    "_hex": "0x5208"
  },
  "miner": "0xe6A7a1d47ff21B6321162AEA7C6CB457D5476Bca",
  "extraData": "0x476574682f76312e302e312d38326566323666362f6c696e75782f676f312e34",
  "transactions": [
    {
      "hash": "0x8b461ba2f01798e43e078ec73fc486f2bf00645317bc9a2481efea2b2c706da8",
      "blockHash": "0x30722b42979617a4f6f4fac2eae91ff3871ddc78a4d7a661fe3a4f96f65c05f2",
      "blockNumber": 92083,
      "transactionIndex": 0,
      "confirmations": null,
      "from": "0xa70a9a7040d542C632D8e0bE7c5513A8a5Bbc752",
      "gasPrice": {
        "_hex": "0xd000b0ef5"
      },
      "gasLimit": {
        "_hex": "0x5208"
      },
      "to": "0x32Be343B94f860124dC4fEe278FDCBD38C102D88",
      "value": {
        "_hex": "0x455f671706c4a800"
      },
      "nonce": 125,
      "data": "0x",
      "r": "0x3925c1a96ada0ce918793779de9cdc2f5c89ae3a2b974bf912753fe2617d9670",
      "s": "0x4901c7d591948bb903ceed689216684ea5fd21940777daa8c61885825c079f6e",
      "v": 27,
      "creates": null,
      "raw": "0xf86c7d850d000b0ef58252089432be343b94f860124dc4fee278fdcbd38c102d8888455f671706c4a800801ba03925c1a96ada0ce918793779de9cdc2f5c89ae3a2b974bf912753fe2617d9670a04901c7d591948bb903ceed689216684ea5fd21940777daa8c61885825c079f6e",
      "networkId": 0,
      "chainId": 0
    }
  ]
}