{
  "hash": "0xe16d73047956d2e9fa6d00ec82e7bd050b2d3ca3cb25ef8ebd30febbbb265787",
  "parentHash": "0x9c0bebdd4485d6aab6c11135d88ddf92b037a0987d78daf18d7af9a76a94597f",
  "number": 110590,
  "timestamp": 1439976306,
  "nonce": "0xdc00c8d9c4197300",
  "difficulty": 4369103595963,
  "gasLimit": {
    "_hex": "0x2fefd8"
  },
  "gasUsed": {
    "_hex": "0xa414"
  },
  "miner": "0xa50ec0D39fa913E62f1Bae7074E6F36caA71855b",
  "extraData": "0xd783010001844765746887676f312e342e32856c696e7578",
  "transactions": [
    {
      "hash": "0x388ca1cdfcb8cd45adde4972dadda18eba34a14fcf22b221d69372f315d2c2fa",
      "blockHash": "0xe16d73047956d2e9fa6d00ec82e7bd050b2d3ca3cb25ef8ebd30febbbb265787",
      "blockNumber": 110590,
      "transactionIndex": 0,
      "confirmations": null,
      "from": "0xb676E4AD85e5f9C15b4c67350bAAc2F5886250a9",
      "gasPrice": {
        "_hex": "0xe3701da17"
      },
      "gasLimit": {
        "_hex": "0x7530"
      },
      "to": "0x9fCaccFf3842dC5e596ef709B6776019d0618819",
      "value": {
        "_hex": "0x6e46b72dd4000"
      },
      "nonce": 1,
      "data": "0x00",
      "r": "0xaca365757edc21414acd1e42c77fcaa9ecc15a79422fd5a6a8360e0e37841124",
      "s": "0x0dd33c73c11f7083fdfddc3d32937db11849726f8de73e1d8040d08088b86841",
      "v": 27,
      "creates": null,
      "raw": "0xf86b01850e3701da17827530949fcaccff3842dc5e596ef709b6776019d06188198706e46b72dd4000001ba0aca365757edc21414acd1e42c77fcaa9ecc15a79422fd5a6a8360e0e37841124a00dd33c73c11f7083fdfddc3d32937db11849726f8de73e1d8040d08088b86841",
      "networkId": 0,
      "chainId": 0
    },
    {
      "hash": "0x1a01f1c91b6b88ac23830e1a61c8a00c7338339275893fce6f2a4c77dccb6ed5",
      "blockHash": "0xe16d73047956d2e9fa6d00ec82e7bd050b2d3ca3cb25ef8ebd30febbbb265787",
      "blockNumber": 110590,
      "transactionIndex": 1,
      "confirmations": null,
      "from": "0x4fb3517DB2E2086Fc2dc2c5d32E982Cfa9C4706f",
      "gasPrice": {
        "_hex": "0xd8eb5ae8c"
      },
      "gasLimit": {
        "_hex": "0x5208"
      },
      "to": "0x32Be343B94f860124dC4fEe278FDCBD38C102D88",
      "value": {
        "_hex": "0xf507a19d0b4000"
      },
      "nonce": 0,
      "data": "0x",
      "r": "0xaf2338a117572fcab44882ec91cc0e9d71c4a03bfabd86bb782e4c4f553a3fa6",
      "s": "0x331a7f13aa0a96d7e4d0fe29c9fadbb54f4bb89df31d83ff0a497d8f6c539e3f",
      "v": 27,
      "creates": null,
      "raw": "0xf86b80850d8eb5ae8c8252089432be343b94f860124dc4fee278fdcbd38c102d8887f507a19d0b4000801ba0af2338a117572fcab44882ec91cc0e9d71c4a03bfabd86bb782e4c4f553a3fa6a0331a7f13aa0a96d7e4d0fe29c9fadbb54f4bb89df31d83ff0a497d8f6c539e3f",
      "networkId": 0,
      "chainId": 0
    }
  ]
}