{
  "hash": "0x0b12c710899e92512e46fdb87ea73e2ec1c833eb277d3b6ad89fa6fe13c79361",
  "parentHash": "0x8ecdc8f609b0087c2fc7e35df31a5768de08d236322105fd0d7f7182616386f0",
  "number": 88560,
  "timestamp": 1439609944,
  "nonce": "0x6b94c155ce24e971",
  "difficulty": 3236361300394,
  "gasLimit": {
    "_hex": "0x2fefd8"
  },
  "gasUsed": {
    "_hex": "0x5208"
  },
  "miner": "0xC603Ab5ef41fC61AA8b76bEddb09e3Cfcbb174BD",
  "extraData": "0x476574682f76312e302e312f77696e646f77732f676f312e342e32",
  "transactions": [
    {
      "hash": "0x82544f6acc3568fb80e7d795571362a4f16b3fff6f2f8a040c1f4fa723ed96e3",
      "blockHash": "0x0b12c710899e92512e46fdb87ea73e2ec1c833eb277d3b6ad89fa6fe13c79361",
      "blockNumber": 88560,
      "transactionIndex": 0,
      "confirmations": null,
      "from": "0xF9634a7Ee627EeF74f4d803113CD4F87E5162079",
      "gasPrice": {
        "_hex": "0xba43b7400"
      },
      "gasLimit": {
        "_hex": "0x5b04"
      },
      "to": "0x9f78552704fe7e52cC7C3853534aA2C3cf580D54",
      "value": {
        "_hex": "0xd71b0fe0a28e0000"
      },
      "nonce": 9,
      "data": "0x",
      "r": "0x0c18733419a283493deaf6a32b9b352f5fcbc681ba333b10e96e4ef5f740d007",
      "s": "0xc64b360308ef3a37340d0df8e5807c47a57ffc768098edbc17198042807e0e73",
      "v": 27,
      "creates": null,
      "raw": "0xf86c09850ba43b7400825b04949f78552704fe7e52cc7c3853534aa2c3cf580d5488d71b0fe0a28e0000801ba00c18733419a283493deaf6a32b9b352f5fcbc681ba333b10e96e4ef5f740d007a0c64b360308ef3a37340d0df8e5807c47a57ffc768098edbc17198042807e0e73",
      "networkId": 0,
      "chainId": 0
    }
  ]
}