{
  "hash": "0x1d5c27366159ca1cf4f657dd22f720404284133408a23e416594eb11fce35de2",
  "parentHash": "0x4ef5814bd91152540878f8dc3c1aa1fe43ae8b84bb1c73662a6adc516ebe6e9a",
  "number": 74361,
  "timestamp": 1439384876,
  "nonce": "0x4bcb711abc38a467",
  "difficulty": 2211825178272,
  "gasLimit": {
    "_hex": "0x2fefd8"
  },
  "gasUsed": {
    "_hex": "0x546c"
  },
  "miner": "0x1d6C4F7d4438bd7E81D4FE153Dd956bCaBcfF265",
  "extraData": "0x476574682f76312e302e312f77696e646f77732f676f312e342e32",
  "transactions": [
    {
      "hash": "0xf6786bf4baad54eea6ecaf35953d8fd09316e96e008afd5f32642169bfd2eb0f",
      "blockHash": "0x1d5c27366159ca1cf4f657dd22f720404284133408a23e416594eb11fce35de2",
      "blockNumber": 74361,
      "transactionIndex": 0,
      "confirmations": null,
      "from": "0xd66Ddf1159cf22FD8C7A4Bc8D5807756d433C43e",
      "gasPrice": {
        "_hex": "0x110c8f7d8de"
      },
      "gasLimit": {
        "_hex": "0xc350"
      },
      "to": "0x2910543Af39abA0Cd09dBb2D50200b3E800A63D2",
      "value": {
        "_hex": "0x3635c9adc5dea00000"
      },
      "nonce": 0,
      "data": "0x454e36514a444e4d47",
      "r": "0xa4939146803eaf8400f68ef6ee36fb013a8040b5a87700a3955d83d83bd73cb5",
      "s": "0x05be4730dad4192817711ac864a9dc94f5576e08551f8d35e442327d1d0f4941",
      "v": 27,
      "creates": null,
      "raw": "0xf87780860110c8f7d8de82c350942910543af39aba0cd09dbb2d50200b3e800a63d2893635c9adc5dea0000089454e36514a444e4d471ba0a4939146803eaf8400f68ef6ee36fb013a8040b5a87700a3955d83d83bd73cb5a005be4730dad4192817711ac864a9dc94f5576e08551f8d35e442327d1d0f4941",
      "networkId": 0,
      "chainId": 0
    }
  ]
}