{
  "hash": "0x4e0ef934a8c58f033e05650bf919c1e8126636a44cf50f6bd03659e460ec6bad",
  "parentHash": "0xdf7ab7597e569e33ee7cd14e5c23a5594f39c6b41679812545090fec828a6247",
  "number": 67719,
  "timestamp": 1439276263,
  "nonce": "0x1e782a0279a6c626",
  "difficulty": 1945859098058,
  "gasLimit": {
    "_hex": "0x2fefd8"
  },
  "gasUsed": {
    "_hex": "0x546c"
  },
  "miner": "0x271e8fC01E1C9E1621fD3d108e348450b2498541",
  "extraData": "0x476574682f76312e302e312f77696e646f77732f676f312e342e32",
  "transactions": [
    {
      "hash": "0x662eba6dac1a0580d7ed513116ab8302715e35d306af5715627e048c68897620",
      "blockHash": "0x4e0ef934a8c58f033e05650bf919c1e8126636a44cf50f6bd03659e460ec6bad",
      "blockNumber": 67719,
      "transactionIndex": 0,
      "confirmations": null,
      "from": "0xc18e792d3002202d60C3A8820fbccc2EBA1b0C2b",
      "gasPrice": {
        "_hex": "0xcd01555c5"
      },
      "gasLimit": {
        "_hex": "0x55f0"
      },
      "to": "0x2910543Af39abA0Cd09dBb2D50200b3E800A63D2",
      "value": {
        "_hex": "0x29a2241af62c0000"
      },
      "nonce": 0,
      "data": "0x454e59565848424d52",
      "r": "0x3ea1452886f85d4c008ea23801c26b340d29c43f173965d3504969205118622a",
      "s": "0x5eedd8488c89ae6dcab029b0b872f1f7ed8af83695b03615ff9111b53443fb73",
      "v": 27,
      "creates": null,
      "raw": "0xf87580850cd01555c58255f0942910543af39aba0cd09dbb2d50200b3e800a63d28829a2241af62c000089454e59565848424d521ba03ea1452886f85d4c008ea23801c26b340d29c43f173965d3504969205118622aa05eedd8488c89ae6dcab029b0b872f1f7ed8af83695b03615ff9111b53443fb73",
      "networkId": 0,
      "chainId": 0
    }
  ]
}