{
  "hash": "0xa535cb98bbbf0240b94d79af30421a58d01e84f455a7d23590da63c8f04a4646",
  "parentHash": "0xdab71bdc0b3afdaaff5835c81ae2e5bc195bdf8c5ddcd85e0052c88667ab4953",
  "number": 115600,
  "timestamp": 1440059962,
  "nonce": "0x2f9b6a23d1ee227c",
  "difficulty": 4598446087110,
  "gasLimit": {
    "_hex": "0x2fefd8"
  },
  "gasUsed": {
    "_hex": "0x5208"
  },
  "miner": "0xe6A7a1d47ff21B6321162AEA7C6CB457D5476Bca",
  "extraData": "0x476574682f76312e302e312d38326566323666362f6c696e75782f676f312e34",
  "transactions": [
    {
      "hash": "0x0781f7eed06d408bc9e8ac67a43bf1ceebd31a5d2f29b2b9a1663a6126a54003",
      "blockHash": "0xa535cb98bbbf0240b94d79af30421a58d01e84f455a7d23590da63c8f04a4646",
      "blockNumber": 115600,
      "transactionIndex": 0,
      "confirmations": null,
      "from": "0x32Be343B94f860124dC4fEe278FDCBD38C102D88",
      "gasPrice": {
        "_hex": "0xd051e722c"
      },
      "gasLimit": {
        "_hex": "0x5208"
      },
      "to": "0x76899c112A85c5a7d27Ff89f1b97112e900aeEBc",
      "value": {
        "_hex": "0xdde7e448067f0000"
      },
      "nonce": 1440,
      "data": "0x",
      "r": "0x8d6d478166694fe2262f0f35d5676efdd7387171d8ff7374288fb3bda833ee0b",
      "s": "0x736bb1257ef0a4a3d4637d92ef1ff741a5f98c034b1081fb07abf567da42c7e1",
      "v": 28,
      "creates": null,
      "raw": "0xf86e8205a0850d051e722c8252089476899c112a85c5a7d27ff89f1b97112e900aeebc88dde7e448067f0000801ca08d6d478166694fe2262f0f35d5676efdd7387171d8ff7374288fb3bda833ee0ba0736bb1257ef0a4a3d4637d92ef1ff741a5f98c034b1081fb07abf567da42c7e1",
      "networkId": 0,
      "chainId": 0
    }
  ]
}