{
  "hash": "0x47698d9a78f21d03675e9690a8d8129f9ac67a0724eedd591ee73ab2865b7714",
  "parentHash": "0x528b44e7d594b260e4147fce4a975542602f081a985cd31da939a86b20aed8fd",
  "number": 86972,
  "timestamp": 1439585361,
  "nonce": "0xc4d091d688100336",
  "difficulty": 2996636533006,
  "gasLimit": {
    "_hex": "0x2fefd8"
  },
  "gasUsed": {
    "_hex": "0x5208"
  },
  "miner": "0x02020D22dCF88f5eDd66B382D7da019F161fB7e3",
  "extraData": "0x",
  "transactions": [
    {
      "hash": "0x07c195ff29adad5cb24933c309864dd9fdb8f245170fee0156518d1a2e0a6901",
      "blockHash": "0x47698d9a78f21d03675e9690a8d8129f9ac67a0724eedd591ee73ab2865b7714",
      "blockNumber": 86972,
      "transactionIndex": 0,
      "confirmations": null,
      "from": "0xC753a4745312EFb78831161604dd2A2D01Cc0917",
      "gasPrice": {
        "_hex": "0xcf2457328"
      },
      "gasLimit": {
        "_hex": "0x5208"
      },
      "to": "0x32Be343B94f860124dC4fEe278FDCBD38C102D88",
      "value": {
        "_hex": "0x262f81f0fc7f56000"
      },
      "nonce": 1,
      "data": "0x",
      "r": "0x6f5b98d8e42dc596321ba4a34bb5cc1dfd356a4d28d729254b47efefbbea5ed8",
      "s": "0x030637dc56bc21a76c487645a00f7b116873b26126a2ed2546488ffe762819d6",
      "v": 28,
      "creates": null,
      "raw": "0xf86d01850cf24573288252089432be343b94f860124dc4fee278fdcbd38c102d88890262f81f0fc7f56000801ca06f5b98d8e42dc596321ba4a34bb5cc1dfd356a4d28d729254b47efefbbea5ed8a0030637dc56bc21a76c487645a00f7b116873b26126a2ed2546488ffe762819d6",
      "networkId": 0,
      "chainId": 0
    }
  ]
}