{
  "hash": "0x1903a4a01eaa5b33a3301e375f479e1470c55b98712ed7850a77d7def923ac0e",
  "parentHash": "0xcfa0333e68bf5f5805a63ba7db6b13543799b59c188040f3db48fc6fed874b11",
  "number": 79568,
  "timestamp": 1439471820,
  "nonce": "0xd5ae3b740646cdba",
  "difficulty": 2338125809936,
  "gasLimit": {
    "_hex": "0x2fefd8"
  },
  "gasUsed": {
    "_hex": "0x14820"
  },
  "miner": "0x31995C46B15C84523cDEE26f49A681b8237e43F5",
  "extraData": "0x476574682f76312e302e312f77696e646f77732f676f312e342e32",
  "transactions": [
    {
      "hash": "0x0fa326dbfcb23dc7a34c565f2b1b7e29fa7c4b3e62567606bdb0eb978f470141",
      "blockHash": "0x1903a4a01eaa5b33a3301e375f479e1470c55b98712ed7850a77d7def923ac0e",
      "blockNumber": 79568,
      "transactionIndex": 0,
      "confirmations": null,
      "from": "0x120A270bbC009644e35F0bB6ab13f95b8199c4ad",
      "gasPrice": {
        "_hex": "0xd580d58b1"
      },
      "gasLimit": {
        "_hex": "0x3d090"
      },
      "to": "0x5688C48Cb5CcD47777e6a90E2a62412933E64bD0",
      "value": {
        "_hex": "0x1158e460913d00000"
      },
      "nonce": 335,
      "data": "0x",
      "r": "0x90673fff1f8d8a868c7effc78fde9f7a3af6665f6a73d1b92634f36a97da0d01",
      "s": "0x0dad65a9c188bb0bf036ef986e25daccefbd42e61ad939baf62b95b95229f998",
      "v": 27,
      "creates": null,
      "raw": "0xf87082014f850d580d58b18303d090945688c48cb5ccd47777e6a90e2a62412933e64bd08901158e460913d00000801ba090673fff1f8d8a868c7effc78fde9f7a3af6665f6a73d1b92634f36a97da0d01a00dad65a9c188bb0bf036ef986e25daccefbd42e61ad939baf62b95b95229f998",
      "networkId": 0,
      "chainId": 0
    },
    {
      "hash": "0xb1da75c1dc67518ea28ba3a5c682f48e97695f2b0abbad436060ff87bae87278",
      "blockHash": "0x1903a4a01eaa5b33a3301e375f479e1470c55b98712ed7850a77d7def923ac0e",
      "blockNumber": 79568,
      "transactionIndex": 1,
      "confirmations": null,
      "from": "0x32Be343B94f860124dC4fEe278FDCBD38C102D88",
      "gasPrice": {
        "_hex": "0xd21ea0e3d"
      },
      "gasLimit": {
        "_hex": "0x5208"
      },
      "to": "0xb2169f1326FE9745321aD99563654089bAdf09eb",
      "value": {
        "_hex": "0x2b59ca131d2060000"
      },
      "nonce": 443,
      "data": "0x",
      "r": "0x95ef4beb6214cc09acb16ace5e6adbb0b821d2355d75ed28ac8d6b2bafa8d1f4",
      "s": "0x770c09613b17bed162a92b522eac1c847f7a52e13229683d90e0d2fea91890b6",
      "v": 28,
      "creates": null,
      "raw": "0xf86f8201bb850d21ea0e3d82520894b2169f1326fe9745321ad99563654089badf09eb8902b59ca131d2060000801ca095ef4beb6214cc09acb16ace5e6adbb0b821d2355d75ed28ac8d6b2bafa8d1f4a0770c09613b17bed162a92b522eac1c847f7a52e13229683d90e0d2fea91890b6",
      "networkId": 0,
      "chainId": 0
    },
    {
      "hash": "0xcaa7346c678aed008aaf0eed7aba1bc002128471494d5825d62a26e62644062f",
      "blockHash": "0x1903a4a01eaa5b33a3301e375f479e1470c55b98712ed7850a77d7def923ac0e",
      "blockNumber": 79568,
      "transactionIndex": 2,
      "confirmations": null,
      "from": "0x32Be343B94f860124dC4fEe278FDCBD38C102D88",
      "gasPrice": {
        "_hex": "0xcfd562eda"
      },
      "gasLimit": {
        "_hex": "0x5208"
      },
      "to": "0x3730a07b6d2d7413d0d76B91935F60bB0b1d8E2F",
      "value": {
        "_hex": "0x13fbe85edc90000"
      },
      "nonce": 444,
      "data": "0x",
      "r": "0x2657b0589d82fdcf7874010355f194e1610c358eae18877c817adf9104dbc9f9",
      "s": "0x271382ac3c354151e3def3e1a73153b4f1c831cbe2e2b3d17deb04a2bd6bb9c0",
      "v": 27,
      "creates": null,
      "raw": "0xf86e8201bc850cfd562eda825208943730a07b6d2d7413d0d76b91935f60bb0b1d8e2f88013fbe85edc90000801ba02657b0589d82fdcf7874010355f194e1610c358eae18877c817adf9104dbc9f9a0271382ac3c354151e3def3e1a73153b4f1c831cbe2e2b3d17deb04a2bd6bb9c0",
      "networkId": 0,
      "chainId": 0
    },
    {
      "hash": "0xa7e5bb32543b262ee65e582f2ccd039b6ea49ec4456c9ee73f0870cc46ae1c08",
      "blockHash": "0x1903a4a01eaa5b33a3301e375f479e1470c55b98712ed7850a77d7def923ac0e",
      "blockNumber": 79568,
      "transactionIndex": 3,
      "confirmations": null,
      "from": "0x32Be343B94f860124dC4fEe278FDCBD38C102D88",
      "gasPrice": {
        "_hex": "0xcfd562eda"
      },
      "gasLimit": {
        "_hex": "0x5208"
      },
      "to": "0x7afc1a7cc42A5DfD4822f8bC40e238Dd2B0380bE",
      "value": {
        "_hex": "0x28264572ccff6400"
      },
      "nonce": 445,
      "data": "0x",
      "r": "0x7d67575048b5461cb63309800effa6c352aa46c976a9782b6ba6e23d030996b2",
      "s": "0x112c561c94501b4286d143c0ad1cd3abd5b7faee9383727b3f81d97f1ecfde9c",
      "v": 28,
      "creates": null,
      "raw": "0xf86e8201bd850cfd562eda825208947afc1a7cc42a5dfd4822f8bc40e238dd2b0380be8828264572ccff6400801ca07d67575048b5461cb63309800effa6c352aa46c976a9782b6ba6e23d030996b2a0112c561c94501b4286d143c0ad1cd3abd5b7faee9383727b3f81d97f1ecfde9c",
      "networkId": 0,
      "chainId": 0
    }
  ]
}