{
  "hash": "0xb04f595d2189dd2bc528fba8badafe007fa02b57a7dfd5795e765c95da66bedc",
  "parentHash": "0x6e976a8ba6d3cda809c19c66f11dab3be41f3e95ccd596afa07f7c4d499d1a0a",
  "number": 49154,
  "timestamp": 1438968982,
  "nonce": "0x6122d327752b2ea5",
  "difficulty": 1474223657877,
  "gasLimit": {
    "_hex": "0x27593"
  },
  "gasUsed": {
    "_hex": "0xa8d8"
  },
  "miner": "0xf927a40C8B7F6E07c5af7FA2155B4864a4112B13",
  "extraData": "0x476574682f76312e302e312f6c696e75782f676f312e342e32",
  "transactions": [
    {
      "hash": "0xec43de4f390c44f1ad8ed3edebb8a17cc302ff59bcbe9882522f53e40248022b",
      "blockHash": "0xb04f595d2189dd2bc528fba8badafe007fa02b57a7dfd5795e765c95da66bedc",
      "blockNumber": 49154,
      "transactionIndex": 0,
      "confirmations": null,
      "from": "0xFEb92d30Bf01Ff9A1901666C5573532BFA07EEec",
      "gasPrice": {
        "_hex": "0xd4a0375dc"
      },
      "gasLimit": {
        "_hex": "0x15f90"
      },
      "to": "0x2910543Af39abA0Cd09dBb2D50200b3E800A63D2",
      "value": {
        "_hex": "0xde0b6b3a7640000"
      },
      "nonce": 0,
      "data": "0x454e424a5157344230",
      "r": "0xbbb5a341317b80c0bdd59396a296a5273e450aa6e5a8f4ee9790e3729f39b393",
      "s": "0x7712b2633af5f2812474f7f5113b0a7e1ec5be62fa623bc2a5e96b12d6bfa861",
      "v": 28,
      "creates": null,
      "raw": "0xf87680850d4a0375dc83015f90942910543af39aba0cd09dbb2d50200b3e800a63d2880de0b6b3a764000089454e424a51573442301ca0bbb5a341317b80c0bdd59396a296a5273e450aa6e5a8f4ee9790e3729f39b393a07712b2633af5f2812474f7f5113b0a7e1ec5be62fa623bc2a5e96b12d6bfa861",
      "networkId": 0,
      "chainId": 0
    },
    {
      "hash": "0x882e1410747eb8316912374d8aefd9c6eca1d3a18d12e0ea880238972032ac5b",
      "blockHash": "0xb04f595d2189dd2bc528fba8badafe007fa02b57a7dfd5795e765c95da66bedc",
      "blockNumber": 49154,
      "transactionIndex": 1,
      "confirmations": null,
      "from": "0x65Fe776c996eB7c15f86F236B945353b9a18f335",
      "gasPrice": {
        "_hex": "0xd1198f9cb"
      },
      "gasLimit": {
        "_hex": "0x7530"
      },
      "to": "0x2910543Af39abA0Cd09dBb2D50200b3E800A63D2",
      "value": {
        "_hex": "0x1e5b8fa8fe2ac0000"
      },
      "nonce": 0,
      "data": "0x454e52315751343752",
      "r": "0x194ea386b936c4bfe10a3f3bebd32051f23d9a5ba3bf0c499401e64fc0439d5a",
      "s": "0x722dc1ee85c27ef7bb0f837fba0df8f1b5987eb6509485116e7593449c8a27cd",
      "v": 28,
      "creates": null,
      "raw": "0xf87680850d1198f9cb827530942910543af39aba0cd09dbb2d50200b3e800a63d28901e5b8fa8fe2ac000089454e523157513437521ca0194ea386b936c4bfe10a3f3bebd32051f23d9a5ba3bf0c499401e64fc0439d5aa0722dc1ee85c27ef7bb0f837fba0df8f1b5987eb6509485116e7593449c8a27cd",
      "networkId": 0,
      "chainId": 0
    }
  ]
}