{
  "hash": "0xa9748927f6bbffcaa2be69bbe07e69356ff9922677d67cd93105c7eebba5cd12",
  "parentHash": "0x5ba907d5d4c6a2b4874e9bf3b16df76feb1364b88a66f51e4c9a45563cb04afe",
  "number": 99831,
  "timestamp": 1439796276,
  "nonce": "0xb8659d204f4c39ba",
  "difficulty": 3839988339874,
  "gasLimit": {
    "_hex": "0x2fefd8"
  },
  "gasUsed": {
    "_hex": "0x5318"
  },
  "miner": "0xa70a9a7040d542C632D8e0bE7c5513A8a5Bbc752",
  "extraData": "0x",
  "transactions": [
    {
      "hash": "0x08b7ca89af618be4a75564fbe95114125b4dac341dfac5d91b09fb0616c9505e",
      "blockHash": "0xa9748927f6bbffcaa2be69bbe07e69356ff9922677d67cd93105c7eebba5cd12",
      "blockNumber": 99831,
      "transactionIndex": 0,
      "confirmations": null,
      "from": "0x7cFa3d23636173A3beFaabc8ca86846A07C4B3DD",
      "gasPrice": {
        "_hex": "0xd22e14819"
      },
      "gasLimit": {
        "_hex": "0xc350"
      },
      "to": "0x4d149EB99BDEEFC1f858f8fd22289C6beAE99f2c",
      "value": {
        "_hex": "0x0"
      },
      "nonce": 11,
      "data": "0x41c0e1b5",
      "r": "0x42f66377c847c0142acccab6b9db04dd5b4976c64da77ec6810c7d126438cac7",
      "s": "0x2d256e516a226a6bda53a8c968b97e2ffcaca509c796dac08d4382b2bd7b0cc6",
      "v": 28,
      "creates": null,
      "raw": "0xf8680b850d22e1481982c350944d149eb99bdeefc1f858f8fd22289c6beae99f2c808441c0e1b51ca042f66377c847c0142acccab6b9db04dd5b4976c64da77ec6810c7d126438cac7a02d256e516a226a6bda53a8c968b97e2ffcaca509c796dac08d4382b2bd7b0cc6",
      "networkId": 0,
      "chainId": 0
    }
  ]
}