{
  "hash": "0xd1e89aad50871ac3e6524216701b91de2e242fff2c00395ab6e846bc8615d01a",
  "parentHash": "0x466151962b7062b4567242abad7ab2611da506a2f02d6683dbe80bf44284118a",
  "number": 89196,
  "timestamp": 1439619689,
  "nonce": "0xb933e4707e56cf3c",
  "difficulty": 3280663544973,
  "gasLimit": {
    "_hex": "0x2fefd8"
  },
  "gasUsed": {
    "_hex": "0xa674"
  },
  "miner": "0xe6A7a1d47ff21B6321162AEA7C6CB457D5476Bca",
  "extraData": "0x476574682f76312e302e312d38326566323666362f6c696e75782f676f312e34",
  "transactions": [
    {
      "hash": "0x57650242938356651f5c04a0d436933b6eb30176d026d34a3d00ed84a1841d85",
      "blockHash": "0xd1e89aad50871ac3e6524216701b91de2e242fff2c00395ab6e846bc8615d01a",
      "blockNumber": 89196,
      "transactionIndex": 0,
      "confirmations": null,
      "from": "0x9d30cB237BC096f17036FC80dd21CA68992ca2d9",
      "gasPrice": {
        "_hex": "0x110c8f7d8de"
      },
      "gasLimit": {
        "_hex": "0xc350"
      },
      "to": "0x2910543Af39abA0Cd09dBb2D50200b3E800A63D2",
      "value": {
        "_hex": "0x10f0cf064dd59200000"
      },
      "nonce": 5,
      "data": "0x454e4e445759415947",
      "r": "0x63058d871cc8db7da27e280c3299dd1af0554a1a3961537b06ef512b1cbca67c",
      "s": "0xa8c058e18489e125fd889f00a2ff3a15be29304ec642d06d49e9fd882697e1b3",
      "v": 28,
      "creates": null,
      "raw": "0xf87805860110c8f7d8de82c350942910543af39aba0cd09dbb2d50200b3e800a63d28a010f0cf064dd5920000089454e4e4457594159471ca063058d871cc8db7da27e280c3299dd1af0554a1a3961537b06ef512b1cbca67ca0a8c058e18489e125fd889f00a2ff3a15be29304ec642d06d49e9fd882697e1b3",
      "networkId": 0,
      "chainId": 0
    },
    {
      "hash": "0x017b04fbbd73364d004e50b212fddb2dc47ed9185f3269602fe9b02de22695c1",
      "blockHash": "0xd1e89aad50871ac3e6524216701b91de2e242fff2c00395ab6e846bc8615d01a",
      "blockNumber": 89196,
      "transactionIndex": 1,
      "confirmations": null,
      "from": "0xA5fb3E4399E8F18643f969D0Ce65CC352fc252C6",
      "gasPrice": {
        "_hex": "0xdf4b4a5ce"
      },
      "gasLimit": {
        "_hex": "0x5208"
      },
      "to": "0x32Be343B94f860124dC4fEe278FDCBD38C102D88",
      "value": {
        "_hex": "0x6f013ccbfc8f7800"
      },
      "nonce": 8,
      "data": "0x",
      "r": "0x98d0b4bc256d8ba7e66da0948bf62d217fe110e46b7899320a934691e9141f1e",
      "s": "0x0f558f17950b4bdb0169138eabac29d3380cda64388566d3ecd08b65696cad69",
      "v": 27,
      "creates": null,
      "raw": "0xf86c08850df4b4a5ce8252089432be343b94f860124dc4fee278fdcbd38c102d88886f013ccbfc8f7800801ba098d0b4bc256d8ba7e66da0948bf62d217fe110e46b7899320a934691e9141f1ea00f558f17950b4bdb0169138eabac29d3380cda64388566d3ecd08b65696cad69",
      "networkId": 0,
      "chainId": 0
    }
  ]
}