{
  "hash": "0xf7e0feb0be68c2111394cbeaba33a62f5e23ba69e9348ebb226d748876c9d5e2",
  "parentHash": "0x63fd16ea7716edd259e678371a0bb5574ffe5a10b3bd8dcb79d563820fe14ef3",
  "number": 82351,
  "timestamp": 1439517879,
  "nonce": "0xc7e7960887cedb92",
  "difficulty": 2372999182554,
  "gasLimit": {
    "_hex": "0x2fefd8"
  },
  "gasUsed": {
    "_hex": "0x5208"
  },
  "miner": "0x55dDF9BdAD86F9470355Bc8A0E8EDCB40D552ab7",
  "extraData": "0x476574682f76312e302e312f77696e646f77732f676f312e342e32",
  "transactions": [
    {
      "hash": "0x5c57d9851b8d06be245f26e05a4d81a15bf88a0432d5240a485dcc3be177eaa4",
      "blockHash": "0xf7e0feb0be68c2111394cbeaba33a62f5e23ba69e9348ebb226d748876c9d5e2",
      "blockNumber": 82351,
      "transactionIndex": 0,
      "confirmations": null,
      "from": "0x1217627fe41A00f0b828317F43E6d58F47dBfc43",
      "gasPrice": {
        "_hex": "0x109131b57a5"
      },
      "gasLimit": {
        "_hex": "0x15f90"
      },
      "to": "0xdC6E506e643251bDf3C41d27f7001afC9358007F",
      "value": {
        "_hex": "0xd55ef90a2da180000"
      },
      "nonce": 2,
      "data": "0x",
      "r": "0x3b4922018626d02cc3ea7b7a8c69bc11ddc08ac41f4f6fe6e85dfba78c3d24f6",
      "s": "0x34a4a8f4595f3ceb9e98b3be0cf102dfcc8539a33a9c0678fa3ced3078f259a4",
      "v": 28,
      "creates": null,
      "raw": "0xf86f02860109131b57a583015f9094dc6e506e643251bdf3c41d27f7001afc9358007f890d55ef90a2da180000801ca03b4922018626d02cc3ea7b7a8c69bc11ddc08ac41f4f6fe6e85dfba78c3d24f6a034a4a8f4595f3ceb9e98b3be0cf102dfcc8539a33a9c0678fa3ced3078f259a4",
      "networkId": 0,
      "chainId": 0
    }
  ]
}