{
  "hash": "0x9d2d9c9e627fd4b81850beaf404f8d54c2aae6518164567ee07702375ca55602",
  "parentHash": "0xb7a807f34278cec7e54074304c5b207d51de4ee50c845a04349e5bcac7470072",
  "number": 95623,
  "timestamp": 1439726852,
  "nonce": "0xc56f0051ffc83ab3",
  "difficulty": 3612671478742,
  "gasLimit": {
    "_hex": "0x2fefd8"
  },
  "gasUsed": {
    "_hex": "0x19a28"
  },
  "miner": "0xbb7B8287f3F0a933474a79eAe42CBCa977791171",
  "extraData": "0x476574682f4c5649562f76312e302e312f6c696e75782f676f312e342e32",
  "transactions": [
    {
      "hash": "0x208089079ff9fab24bb0a2725ba826cc4f1f14e4f28430a3796165ba70fe73b0",
      "blockHash": "0x9d2d9c9e627fd4b81850beaf404f8d54c2aae6518164567ee07702375ca55602",
      "blockNumber": 95623,
      "transactionIndex": 0,
      "confirmations": null,
      "from": "0x63738Ec4C9adec404749B5747F3bbE2147de632F",
      "gasPrice": {
        "_hex": "0xdc9ebd495"
      },
      "gasLimit": {
        "_hex": "0x15f90"
      },
      "to": "0x557C2806B6ceA65a66F415bb2Ed1ce897B340745",
      "value": {
        "_hex": "0x8ac7230489e80000"
      },
      "nonce": 13,
      "data": "0x",
      "r": "0x4d2f1e280476b21b9f5ced2df65e3c6d00aa273ee626266b26c23931021253bf",
      "s": "0x1ec61c8e51ac0766b4aebb9f27c04034061d54bcc96d7cd8ee8265240e452847",
      "v": 27,
      "creates": null,
      "raw": "0xf86d0d850dc9ebd49583015f9094557c2806b6cea65a66f415bb2ed1ce897b340745888ac7230489e80000801ba04d2f1e280476b21b9f5ced2df65e3c6d00aa273ee626266b26c23931021253bfa01ec61c8e51ac0766b4aebb9f27c04034061d54bcc96d7cd8ee8265240e452847",
      "networkId": 0,
      "chainId": 0
    },
    {
      "hash": "0xc59f74ce760cbe43303d833925511d18566ee55545f473ed1b1e4dc4b3b55a72",
      "blockHash": "0x9d2d9c9e627fd4b81850beaf404f8d54c2aae6518164567ee07702375ca55602",
      "blockNumber": 95623,
      "transactionIndex": 1,
      "confirmations": null,
      "from": "0x63738Ec4C9adec404749B5747F3bbE2147de632F",
      "gasPrice": {
        "_hex": "0xdc9ebd495"
      },
      "gasLimit": {
        "_hex": "0x15f90"
      },
      "to": "0x557C2806B6ceA65a66F415bb2Ed1ce897B340745",
      "value": {
        "_hex": "0x8ac7230489e80000"
      },
      "nonce": 14,
      "data": "0x",
      "r": "0x3b23a12fc3eff3cd34971884f68c621a4e7685360646ebccb2d9c29ec1b674a6",
      "s": "0x5c8e25c90702418fb9932f7b03850a31aa004be52dd6f9b7ebdd0ff9d30fc9f6",
      "v": 28,
      "creates": null,
      "raw": "0xf86d0e850dc9ebd49583015f9094557c2806b6cea65a66f415bb2ed1ce897b340745888ac7230489e80000801ca03b23a12fc3eff3cd34971884f68c621a4e7685360646ebccb2d9c29ec1b674a6a05c8e25c90702418fb9932f7b03850a31aa004be52dd6f9b7ebdd0ff9d30fc9f6",
      "networkId": 0,
      "chainId": 0
    },
    {
      "hash": "0x43c952466305b8730a3b7e3ebbe85e8c136977898073bd88046f8ee24e7ce876",
      "blockHash": "0x9d2d9c9e627fd4b81850beaf404f8d54c2aae6518164567ee07702375ca55602",
      "blockNumber": 95623,
      "transactionIndex": 2,
      "confirmations": null,
      "from": "0x63738Ec4C9adec404749B5747F3bbE2147de632F",
      "gasPrice": {
        "_hex": "0xdc9ebd495"
      },
      "gasLimit": {
        "_hex": "0x15f90"
      },
      "to": "0x557C2806B6ceA65a66F415bb2Ed1ce897B340745",
      "value": {
        "_hex": "0x8ac7230489e80000"
      },
      "nonce": 15,
      "data": "0x",
      "r": "0xfe188694aa36e642f4e47d290438ad2464597dca127dd70effad3180cadacb5c",
      "s": "0x00da41cb35a0d87022b41cd0473810e2a7d6222fb696799c0477523c14d4ada4",
      "v": 28,
      "creates": null,
      "raw": "0xf86c0f850dc9ebd49583015f9094557c2806b6cea65a66f415bb2ed1ce897b340745888ac7230489e80000801ca0fe188694aa36e642f4e47d290438ad2464597dca127dd70effad3180cadacb5c9fda41cb35a0d87022b41cd0473810e2a7d6222fb696799c0477523c14d4ada4",
      "networkId": 0,
      "chainId": 0
    },
    {
      "hash": "0x473ae923c0429d60d38fed847e129f0e7011795ae8928c567841dd8b95868562",
      "blockHash": "0x9d2d9c9e627fd4b81850beaf404f8d54c2aae6518164567ee07702375ca55602",
      "blockNumber": 95623,
      "transactionIndex": 3,
      "confirmations": null,
      "from": "0x63738Ec4C9adec404749B5747F3bbE2147de632F",
      "gasPrice": {
        "_hex": "0xdc9ebd495"
      },
      "gasLimit": {
        "_hex": "0x15f90"
      },
      "to": "0x557C2806B6ceA65a66F415bb2Ed1ce897B340745",
      "value": {
        "_hex": "0x8ac7230489e80000"
      },
      "nonce": 16,
      "data": "0x",
      "r": "0xf92aeb51d0d3a2d5054c2c88c70195bd3bf1ada758ec3771d281e3ad240749d1",
      "s": "0x5e92e541cc4f2d000b4429066e8f90896049e6af57d7f562dcb49f0a84efa131",
      "v": 27,
      "creates": null,
      "raw": "0xf86d10850dc9ebd49583015f9094557c2806b6cea65a66f415bb2ed1ce897b340745888ac7230489e80000801ba0f92aeb51d0d3a2d5054c2c88c70195bd3bf1ada758ec3771d281e3ad240749d1a05e92e541cc4f2d000b4429066e8f90896049e6af57d7f562dcb49f0a84efa131",
      "networkId": 0,
      "chainId": 0
    },
    {
      "hash": "0x6efb7d6acef01f7822bc1f6721d9fcc14b741e1bfea9af6064ea2465525b5fe7",
      "blockHash": "0x9d2d9c9e627fd4b81850beaf404f8d54c2aae6518164567ee07702375ca55602",
      "blockNumber": 95623,
      "transactionIndex": 4,
      "confirmations": null,
      "from": "0x63738Ec4C9adec404749B5747F3bbE2147de632F",
      "gasPrice": {
        "_hex": "0xdc9ebd495"
      },
      "gasLimit": {
        "_hex": "0x15f90"
      },
      "to": "0x557C2806B6ceA65a66F415bb2Ed1ce897B340745",
      "value": {
        "_hex": "0x8ac7230489e80000"
      },
      "nonce": 17,
      "data": "0x",
      "r": "0x813a0055e32088e551c515513cca29c9cc60be8c600a02dc108be9f2ff5ab50d",
      "s": "0x5f5f3d08b09dc010d13b2f7e38974377f9c38beef14a455fa194dc651ccf03cb",
      "v": 28,
      "creates": null,
      "raw": "0xf86d11850dc9ebd49583015f9094557c2806b6cea65a66f415bb2ed1ce897b340745888ac7230489e80000801ca0813a0055e32088e551c515513cca29c9cc60be8c600a02dc108be9f2ff5ab50da05f5f3d08b09dc010d13b2f7e38974377f9c38beef14a455fa194dc651ccf03cb",
      "networkId": 0,
      "chainId": 0
    }
  ]
}