{
  "hash": "0xe5c4a6472c7e6cc8b23a96c52ea591bb5a1a00fde70352a694c94081ba62b815",
  "parentHash": "0xd49a22b65ac420d948e90e8ed09cfc958c1d3493f3345038020f592908df7124",
  "number": 86555,
  "timestamp": 1439579801,
  "nonce": "0x657cdea631435a84",
  "difficulty": 2906002696727,
  "gasLimit": {
    "_hex": "0x2fefd8"
  },
  "gasUsed": {
    "_hex": "0x5208"
  },
  "miner": "0x88D74a59454F6cF3B51ef6b9136AFb6b9D405A88",
  "extraData": "0x476574682f76312e302e312d37666266393930632f6c696e75782f676f312e34",
  "transactions": [
    {
      "hash": "0x9382ea31920befea70b9cf931b7b04f7204086c39ebb47cb9d6be874bc536b6c",
      "blockHash": "0xe5c4a6472c7e6cc8b23a96c52ea591bb5a1a00fde70352a694c94081ba62b815",
      "blockNumber": 86555,
      "transactionIndex": 0,
      "confirmations": null,
      "from": "0x1308A2e95c0160B90803ddCA9B9a5bb55E416d79",
      "gasPrice": {
        "_hex": "0xde3a70ca1"
      },
      "gasLimit": {
        "_hex": "0x15f90"
      },
      "to": "0xc1A75C10a8df8afd0F5f33890CEc81a2FE8dbc69",
      "value": {
        "_hex": "0x83e61851d2d092b400"
      },
      "nonce": 131,
      "data": "0x",
      "r": "0xf92b36538889f5f428443a3c9c64977c5d3e8fecefe2077d40ae407182c50806",
      "s": "0x26fe1ef6765bd5181cbf26b3c11a15831dc96c0733545283e3ea0a1932ccdc82",
      "v": 27,
      "creates": null,
      "raw": "0xf86f8183850de3a70ca183015f9094c1a75c10a8df8afd0f5f33890cec81a2fe8dbc698983e61851d2d092b400801ba0f92b36538889f5f428443a3c9c64977c5d3e8fecefe2077d40ae407182c50806a026fe1ef6765bd5181cbf26b3c11a15831dc96c0733545283e3ea0a1932ccdc82",
      "networkId": 0,
      "chainId": 0
    }
  ]
}