{
  "hash": "0x28071e12e7d77108703feaf8aeba378449869e668e751be2b9081f8f7cf94a13",
  "parentHash": "0xf44fd3746a69971d7af440a7a78ac3f397eafbbb6901ad4816e7f13c83db7f9e",
  "number": 116529,
  "timestamp": 1440088920,
  "nonce": "0xf47a4a48bb1f309a",
  "difficulty": 4555477473903,
  "gasLimit": {
    "_hex": "0x2fefd8"
  },
  "gasUsed": {
    "_hex": "0xb6fb3"
  },
  "miner": "0xe6A7a1d47ff21B6321162AEA7C6CB457D5476Bca",
  "extraData": "0xd783010002844765746887676f312e342e32856c696e7578",
  "transactions": [
    {
      "hash": "0x75b8ae7f99cd57a446c0bf337295e5fce9dc822f4f2f1a60ff1b28d5ff50d7ae",
      "blockHash": "0x28071e12e7d77108703feaf8aeba378449869e668e751be2b9081f8f7cf94a13",
      "blockNumber": 116529,
      "transactionIndex": 0,
      "confirmations": null,
      "from": "0x120A270bbC009644e35F0bB6ab13f95b8199c4ad",
      "gasPrice": {
        "_hex": "0xde6f7dcb9"
      },
      "gasLimit": {
        "_hex": "0x3d090"
      },
      "to": "0x6d134bfF5434a4cCe5992A7fb698Ec4755A9B601",
      "value": {
        "_hex": "0x26a6dcda5d35840000"
      },
      "nonce": 956,
      "data": "0x",
      "r": "0x1611e33886a10ecb910298d4ea8ce81b44d1ab72f41a9159d48ad7373c083701",
      "s": "0x3f8d44d717f22f6074332d27c87f7cd4576dcbc525626527bfafd70c7f38c05a",
      "v": 27,
      "creates": null,
      "raw": "0xf8708203bc850de6f7dcb98303d090946d134bff5434a4cce5992a7fb698ec4755a9b6018926a6dcda5d35840000801ba01611e33886a10ecb910298d4ea8ce81b44d1ab72f41a9159d48ad7373c083701a03f8d44d717f22f6074332d27c87f7cd4576dcbc525626527bfafd70c7f38c05a",
      "networkId": 0,
      "chainId": 0
    },
    {
      "hash": "0x063918b3822ac74697d60c4b2ab834e451aef7be4891d137d95f955204ee0633",
      "blockHash": "0x28071e12e7d77108703feaf8aeba378449869e668e751be2b9081f8f7cf94a13",
      "blockNumber": 116529,
      "transactionIndex": 1,
      "confirmations": null,
      "from": "0x32Be343B94f860124dC4fEe278FDCBD38C102D88",
      "gasPrice": {
        "_hex": "0xdda45395e"
      },
      "gasLimit": {
        "_hex": "0x5208"
      },
      "to": "0xfB3FA1AC08aba9cc3bf0FE9D483820688F65B410",
      "value": {
        "_hex": "0x8ca70dc20624200000"
      },
      "nonce": 1476,
      "data": "0x",
      "r": "0xf97c292156ef8489044477264a1d9fb60a1c5a5d26011db6d2eff98f670784cc",
      "s": "0x3b9b4efa637672b7ea76d41695c1aa2a256ffb3e4e6e9fc80dd2620b90356352",
      "v": 27,
      "creates": null,
      "raw": "0xf86f8205c4850dda45395e82520894fb3fa1ac08aba9cc3bf0fe9d483820688f65b410898ca70dc20624200000801ba0f97c292156ef8489044477264a1d9fb60a1c5a5d26011db6d2eff98f670784cca03b9b4efa637672b7ea76d41695c1aa2a256ffb3e4e6e9fc80dd2620b90356352",
      "networkId": 0,
      "chainId": 0
    },
    {
      "hash": "0x64de13853c5bc4a95c6dd3326201986f8150eff01ec750e77781db2d51972468",
      "blockHash": "0x28071e12e7d77108703feaf8aeba378449869e668e751be2b9081f8f7cf94a13",
      "blockNumber": 116529,
      "transactionIndex": 2,
      "confirmations": null,
      "from": "0x32Be343B94f860124dC4fEe278FDCBD38C102D88",
      "gasPrice": {
        "_hex": "0xd424f0e63"
      },
      "gasLimit": {
        "_hex": "0x5208"
      },
      "to": "0x3D31A7CdbF1B9952C1c4d567b97c54fc354E6A7B",
      "value": {
        "_hex": "0x1156abf16a40f0000"
      },
      "nonce": 1477,
      "data": "0x",
      "r": "0xa40c15080a75e92d9fd5986bb41534ab2aae8181553671703bb083910dbf7c68",
      "s": "0x112f1ca5c9e2898b7de4ca16654a05fdeb443accad45f67863563cfc7bb137a2",
      "v": 27,
      "creates": null,
      "raw": "0xf86f8205c5850d424f0e63825208943d31a7cdbf1b9952c1c4d567b97c54fc354e6a7b8901156abf16a40f0000801ba0a40c15080a75e92d9fd5986bb41534ab2aae8181553671703bb083910dbf7c68a0112f1ca5c9e2898b7de4ca16654a05fdeb443accad45f67863563cfc7bb137a2",
      "networkId": 0,
      "chainId": 0
    },
    {
      "hash": "0xd425bb43b49f8dae640d1685aa24893aa20513a160aa6f2bf3f3f6facdb44f6f",
      "blockHash": "0x28071e12e7d77108703feaf8aeba378449869e668e751be2b9081f8f7cf94a13",
      "blockNumber": 116529,
      "transactionIndex": 3,
      "confirmations": null,
      "from": "0x32Be343B94f860124dC4fEe278FDCBD38C102D88",
      "gasPrice": {
        "_hex": "0xd41d9061e"
      },
      "gasLimit": {
        "_hex": "0x5208"
      },
      "to": "0xDa1d8D4c5fcF90F031f912409052224a15B83101",
      "value": {
        "_hex": "0x57772ce3d83750000"
      },
      "nonce": 1478,
      "data": "0x",
      "r": "0x12be55fd2854815b0262858d223aebec7ae9ff44aecbdcae2e685815b56c97d0",
      "s": "0x3e5299f001521ae8858f4064fcc36d6dcf9502f2247616382af2213d63414b72",
      "v": 27,
      "creates": null,
      "raw": "0xf86f8205c6850d41d9061e82520894da1d8d4c5fcf90f031f912409052224a15b8310189057772ce3d83750000801ba012be55fd2854815b0262858d223aebec7ae9ff44aecbdcae2e685815b56c97d0a03e5299f001521ae8858f4064fcc36d6dcf9502f2247616382af2213d63414b72",
      "networkId": 0,
      "chainId": 0
    },
    {
      "hash": "0x8c89ea31fedf80278d97f74847f008189c5f7b98a6d7b793b5f1dcbda3c6d4f2",
      "blockHash": "0x28071e12e7d77108703feaf8aeba378449869e668e751be2b9081f8f7cf94a13",
      "blockNumber": 116529,
      "transactionIndex": 4,
      "confirmations": null,
      "from": "0x32Be343B94f860124dC4fEe278FDCBD38C102D88",
      "gasPrice": {
        "_hex": "0xd75f8c0da"
      },
      "gasLimit": {
        "_hex": "0x5208"
      },
      "to": "0xC557b4a4380B69196d6CF08Bf42B8fC2d0AEf083",
      "value": {
        "_hex": "0x5ae1d56da0d6e0000"
      },
      "nonce": 1479,
      "data": "0x",
      "r": "0x6872f66955855bd16d2eaa9b591958a575140e5ce6ed8f51f737f199cf6ca35e",
      "s": "0x6f41d37e13ae5b6345e768e12df8faedf7358fa12005d85e4142e32afc728f04",
      "v": 27,
      "creates": null,
      "raw": "0xf86f8205c7850d75f8c0da82520894c557b4a4380b69196d6cf08bf42b8fc2d0aef0838905ae1d56da0d6e0000801ba06872f66955855bd16d2eaa9b591958a575140e5ce6ed8f51f737f199cf6ca35ea06f41d37e13ae5b6345e768e12df8faedf7358fa12005d85e4142e32afc728f04",
      "networkId": 0,
      "chainId": 0
    },
    {
      "hash": "0x901f778919bda8cbe139f294f9b3c96c2b242397d4f5df68df9d79af4256f03d",
      "blockHash": "0x28071e12e7d77108703feaf8aeba378449869e668e751be2b9081f8f7cf94a13",
      "blockNumber": 116529,
      "transactionIndex": 5,
      "confirmations": null,
      "from": "0x32Be343B94f860124dC4fEe278FDCBD38C102D88",
      "gasPrice": {
        "_hex": "0xdea11665c"
      },
      "gasLimit": {
        "_hex": "0x5208"
      },
      "to": "0xE3291e02d1d7b6A7F4aAA164c56Cf21FD30D0eb5",
      "value": {
        "_hex": "0x6c6b6fd4994d800000"
      },
      "nonce": 1480,
      "data": "0x",
      "r": "0xb4fa220fb3bf5c977c114306b223657a38e70f9031599a8cbc8770e9a9aa7e45",
      "s": "0x21a0c79a6fdfb16d553ac0cb1a183605b1b439928776152cc37e0e62bbb7a605",
      "v": 27,
      "creates": null,
      "raw": "0xf86f8205c8850dea11665c82520894e3291e02d1d7b6a7f4aaa164c56cf21fd30d0eb5896c6b6fd4994d800000801ba0b4fa220fb3bf5c977c114306b223657a38e70f9031599a8cbc8770e9a9aa7e45a021a0c79a6fdfb16d553ac0cb1a183605b1b439928776152cc37e0e62bbb7a605",
      "networkId": 0,
      "chainId": 0
    },
    {
      "hash": "0xfa5cd45d1a17a390e61d1dddc806a8723d33181aca3307274bfe03facd9f95ec",
      "blockHash": "0x28071e12e7d77108703feaf8aeba378449869e668e751be2b9081f8f7cf94a13",
      "blockNumber": 116529,
      "transactionIndex": 6,
      "confirmations": null,
      "from": "0x32Be343B94f860124dC4fEe278FDCBD38C102D88",
      "gasPrice": {
        "_hex": "0xdea11665c"
      },
      "gasLimit": {
        "_hex": "0x5208"
      },
      "to": "0xE3291e02d1d7b6A7F4aAA164c56Cf21FD30D0eb5",
      "value": {
        "_hex": "0x6c6b6fd4994d800000"
      },
      "nonce": 1481,
      "data": "0x",
      "r": "0xdfbde18fbf4e08be2194687b54b058e5b3bfa837032c513c0ab8f1b0cae63fcf",
      "s": "0x0563b6460993dbe7a2fc8be75cd0c67bfa9631c6cc97e4ea524850d2231c2187",
      "v": 28,
      "creates": null,
      "raw": "0xf86f8205c9850dea11665c82520894e3291e02d1d7b6a7f4aaa164c56cf21fd30d0eb5896c6b6fd4994d800000801ca0dfbde18fbf4e08be2194687b54b058e5b3bfa837032c513c0ab8f1b0cae63fcfa00563b6460993dbe7a2fc8be75cd0c67bfa9631c6cc97e4ea524850d2231c2187",
      "networkId": 0,
      "chainId": 0
    },
    {
      "hash": "0x900d2458ade3bfa8b475782760292378080b332d5bc12ec88374406a73b04b86",
      "blockHash": "0x28071e12e7d77108703feaf8aeba378449869e668e751be2b9081f8f7cf94a13",
      "blockNumber": 116529,
      "transactionIndex": 7,
      "confirmations": null,
      "from": "0xC876c021eCE519A8CB7D3d1b8EEa2D1cEE9929Ba",
      "gasPrice": {
        "_hex": "0xd4fd50663"
      },
      "gasLimit": {
        "_hex": "0x15f90"
      },
      "to": "0x2945A11956a46EB63Fe5bb376738Ad75A2f4D0ED",
      "value": {
        "_hex": "0x0"
      },
      "nonce": 11,
      "data": "0x41c0e1b5",
      "r": "0x28cf5b6affd1ab29038935be6315666ede9c66e8443479eef47e3dc9396ec02d",
      "s": "0x772298b773bc740033720696f0ae7c1745a5d6fbd71880d5f2bf6452e66282c9",
      "v": 27,
      "creates": null,
      "raw": "0xf8690b850d4fd5066383015f90942945a11956a46eb63fe5bb376738ad75a2f4d0ed808441c0e1b51ba028cf5b6affd1ab29038935be6315666ede9c66e8443479eef47e3dc9396ec02da0772298b773bc740033720696f0ae7c1745a5d6fbd71880d5f2bf6452e66282c9",
      "networkId": 0,
      "chainId": 0
    },
    {
      "hash": "0xb0f0ef32ec2650ec5270d42155651e0b1692ee9d42b7149217e380edc602577b",
      "blockHash": "0x28071e12e7d77108703feaf8aeba378449869e668e751be2b9081f8f7cf94a13",
      "blockNumber": 116529,
      "transactionIndex": 8,
      "confirmations": null,
      "from": "0x2CEb8fe7306c755D00632189EAb492c6A104a8Dd",
      "gasPrice": {
        "_hex": "0xd27b55d47"
      },
      "gasLimit": {
        "_hex": "0x5208"
      },
      "to": "0x32Be343B94f860124dC4fEe278FDCBD38C102D88",
      "value": {
        "_hex": "0x34e83c42e06ef0000"
      },
      "nonce": 0,
      "data": "0x",
      "r": "0x3b0b01c1cdb6f6fc716c2e94d5d24306807d1990e664963ec78f10ddf9960a66",
      "s": "0x4840547d881c9f6065a17c3b8af9f67a57eb09b3a51828137f05c4979eeaea22",
      "v": 28,
      "creates": null,
      "raw": "0xf86d80850d27b55d478252089432be343b94f860124dc4fee278fdcbd38c102d8889034e83c42e06ef0000801ca03b0b01c1cdb6f6fc716c2e94d5d24306807d1990e664963ec78f10ddf9960a66a04840547d881c9f6065a17c3b8af9f67a57eb09b3a51828137f05c4979eeaea22",
      "networkId": 0,
      "chainId": 0
    },
    {
      "hash": "0x56a2ff56773583bbb4d2acf8b4b5ddccd95b37651eaeaeba7ee21b9f30ec9d86",
      "blockHash": "0x28071e12e7d77108703feaf8aeba378449869e668e751be2b9081f8f7cf94a13",
      "blockNumber": 116529,
      "transactionIndex": 9,
      "confirmations": null,
      "from": "0x120A270bbC009644e35F0bB6ab13f95b8199c4ad",
      "gasPrice": {
        "_hex": "0xd15bc1725"
      },
      "gasLimit": {
        "_hex": "0x3d090"
      },
      "to": "0x6d134bfF5434a4cCe5992A7fb698Ec4755A9B601",
      "value": {
        "_hex": "0x40216c4832871c0000"
      },
      "nonce": 957,
      "data": "0x",
      "r": "0xb2ada7050ba8b04322aa0992d0d384b889f566035ebaa838d9c36d2e967cce83",
      "s": "0x4de5c85a5ec50f5bbc864e48998ad429ba85af50473bac1f84e12b180f115607",
      "v": 28,
      "creates": null,
      "raw": "0xf8708203bd850d15bc17258303d090946d134bff5434a4cce5992a7fb698ec4755a9b6018940216c4832871c0000801ca0b2ada7050ba8b04322aa0992d0d384b889f566035ebaa838d9c36d2e967cce83a04de5c85a5ec50f5bbc864e48998ad429ba85af50473bac1f84e12b180f115607",
      "networkId": 0,
      "chainId": 0
    },
    {
      "hash": "0x44c4f01f936e15c9f7f30a5984ba5f61105ceaadc8b6acb59e11f49530d41e03",
      "blockHash": "0x28071e12e7d77108703feaf8aeba378449869e668e751be2b9081f8f7cf94a13",
      "blockNumber": 116529,
      "transactionIndex": 10,
      "confirmations": null,
      "from": "0x32Be343B94f860124dC4fEe278FDCBD38C102D88",
      "gasPrice": {
        "_hex": "0xcd7c5204d"
      },
      "gasLimit": {
        "_hex": "0x5208"
      },
      "to": "0xAaA4BEfA989B980188a418Cc5C4C02E7d9103818",
      "value": {
        "_hex": "0x156daa0eacf00c0000"
      },
      "nonce": 1482,
      "data": "0x",
      "r": "0xce592a265b276c3ba0e4f12e90ce581c335a2611b9cc741c545c5938aa5e3b5c",
      "s": "0x57a4de8802d0bbfb0d44aa85479c86ee2c13dc79736bc0e8d6ca63f3d37878fd",
      "v": 28,
      "creates": null,
      "raw": "0xf86f8205ca850cd7c5204d82520894aaa4befa989b980188a418cc5c4c02e7d910381889156daa0eacf00c0000801ca0ce592a265b276c3ba0e4f12e90ce581c335a2611b9cc741c545c5938aa5e3b5ca057a4de8802d0bbfb0d44aa85479c86ee2c13dc79736bc0e8d6ca63f3d37878fd",
      "networkId": 0,
      "chainId": 0
    },
    {
      "hash": "0xc5b7a158575345f0f3b87c7a48f2dc3fe60248528fdf0c08f40d9b407f0684a6",
      "blockHash": "0x28071e12e7d77108703feaf8aeba378449869e668e751be2b9081f8f7cf94a13",
      "blockNumber": 116529,
      "transactionIndex": 11,
      "confirmations": null,
      "from": "0x32Be343B94f860124dC4fEe278FDCBD38C102D88",
      "gasPrice": {
        "_hex": "0xe0c1536cd"
      },
      "gasLimit": {
        "_hex": "0x5208"
      },
      "to": "0x95aC27Ac0ab7B97CA9A05f935A3478b70002D213",
      "value": {
        "_hex": "0x2be1cce67fd4de000"
      },
      "nonce": 1483,
      "data": "0x",
      "r": "0x6512f0e2a95aba079b4a2b0beae5212277fc6b99611d60424edd5bec7ed2d4bb",
      "s": "0x1d6863d2119ebdf65437999a6fed8b60fe8447f77d3ee37a2ac7c9be8018808e",
      "v": 27,
      "creates": null,
      "raw": "0xf86f8205cb850e0c1536cd8252089495ac27ac0ab7b97ca9a05f935a3478b70002d2138902be1cce67fd4de000801ba06512f0e2a95aba079b4a2b0beae5212277fc6b99611d60424edd5bec7ed2d4bba01d6863d2119ebdf65437999a6fed8b60fe8447f77d3ee37a2ac7c9be8018808e",
      "networkId": 0,
      "chainId": 0
    },
    {
      "hash": "0xef7c4085f4446fb1dd9d5fa19f3aaf59d1a7c142915a6941c13f9eb14165b024",
      "blockHash": "0x28071e12e7d77108703feaf8aeba378449869e668e751be2b9081f8f7cf94a13",
      "blockNumber": 116529,
      "transactionIndex": 12,
      "confirmations": null,
      "from": "0x32Be343B94f860124dC4fEe278FDCBD38C102D88",
      "gasPrice": {
        "_hex": "0xdaed343fa"
      },
      "gasLimit": {
        "_hex": "0x5208"
      },
      "to": "0x5D9067970755043fF5cE7FA2cd21C12F3646Bc55",
      "value": {
        "_hex": "0x20bbf6a0b7f3e0000"
      },
      "nonce": 1484,
      "data": "0x",
      "r": "0x35e88355ba8d7b959b81193ac3d941642c2df61fd2c991a179e4c7f83e4e2d62",
      "s": "0x38f38516c65aefed10dc312d428626798185f0cf95514d98761cacda78b20c88",
      "v": 28,
      "creates": null,
      "raw": "0xf86f8205cc850daed343fa825208945d9067970755043ff5ce7fa2cd21c12f3646bc5589020bbf6a0b7f3e0000801ca035e88355ba8d7b959b81193ac3d941642c2df61fd2c991a179e4c7f83e4e2d62a038f38516c65aefed10dc312d428626798185f0cf95514d98761cacda78b20c88",
      "networkId": 0,
      "chainId": 0
    },
    {
      "hash": "0xe4fb8e5bb0678651e6268c57c6b1a08ee1728240726b04ee63f4db4897216e36",
      "blockHash": "0x28071e12e7d77108703feaf8aeba378449869e668e751be2b9081f8f7cf94a13",
      "blockNumber": 116529,
      "transactionIndex": 13,
      "confirmations": null,
      "from": "0x32Be343B94f860124dC4fEe278FDCBD38C102D88",
      "gasPrice": {
        "_hex": "0xdeaa1458d"
      },
      "gasLimit": {
        "_hex": "0x5208"
      },
      "to": "0x0bc405737D6B7d11f3b72443935a25C18A45Bd14",
      "value": {
        "_hex": "0x3635c9adc5dea00000"
      },
      "nonce": 1485,
      "data": "0x",
      "r": "0x15bfa40877f96df91789443d7ea16aeb28492cb113a275c35ef3d1d71fafbb82",
      "s": "0x375d7c59b30b2483929ff1c7604ca9d9f29fd0f21c35813e39d85772db4e1d2c",
      "v": 28,
      "creates": null,
      "raw": "0xf86f8205cd850deaa1458d825208940bc405737d6b7d11f3b72443935a25c18a45bd14893635c9adc5dea00000801ca015bfa40877f96df91789443d7ea16aeb28492cb113a275c35ef3d1d71fafbb82a0375d7c59b30b2483929ff1c7604ca9d9f29fd0f21c35813e39d85772db4e1d2c",
      "networkId": 0,
      "chainId": 0
    },
    {
      "hash": "0xb9c2c5e21b64cf2370148ac2b160e21c4e963310acd2c52b2925ab1cd2fff8b9",
      "blockHash": "0x28071e12e7d77108703feaf8aeba378449869e668e751be2b9081f8f7cf94a13",
      "blockNumber": 116529,
      "transactionIndex": 14,
      "confirmations": null,
      "from": "0x32Be343B94f860124dC4fEe278FDCBD38C102D88",
      "gasPrice": {
        "_hex": "0xd4cd3571e"
      },
      "gasLimit": {
        "_hex": "0x5208"
      },
      "to": "0x289B9bA6dC9c12D3130F1115180397C20cCBF220",
      "value": {
        "_hex": "0xa2a139825f2c200000"
      },
      "nonce": 1486,
      "data": "0x",
      "r": "0xc8bf3055d45eaee7c9b93ab266bdfe59c39f51be42ce89d6435346ee0c4690ba",
      "s": "0x1ff4c0dc63324e2b5c53441462125de5076c6bc16e86c6bea1dfaf05296fe6e7",
      "v": 27,
      "creates": null,
      "raw": "0xf86f8205ce850d4cd3571e82520894289b9ba6dc9c12d3130f1115180397c20ccbf22089a2a139825f2c200000801ba0c8bf3055d45eaee7c9b93ab266bdfe59c39f51be42ce89d6435346ee0c4690baa01ff4c0dc63324e2b5c53441462125de5076c6bc16e86c6bea1dfaf05296fe6e7",
      "networkId": 0,
      "chainId": 0
    },
    {
      "hash": "0xe8414cf300f85f32e0ca60bc6d4b356bc5ac7367b422d501d9941c6da8a8a8e8",
      "blockHash": "0x28071e12e7d77108703feaf8aeba378449869e668e751be2b9081f8f7cf94a13",
      "blockNumber": 116529,
      "transactionIndex": 15,
      "confirmations": null,
      "from": "0x32Be343B94f860124dC4fEe278FDCBD38C102D88",
      "gasPrice": {
        "_hex": "0xd67b6eb27"
      },
      "gasLimit": {
        "_hex": "0x5208"
      },
      "to": "0xFca80345756b5d5C587F42a5EE16960A2260cA67",
      "value": {
        "_hex": "0x13fbe85edc90000"
      },
      "nonce": 1487,
      "data": "0x",
      "r": "0x0f7d1a28cfa7f9fac1c5555a21989ad49bb11004f157c2b842c008fb131678bf",
      "s": "0x0765d5dc491b6ee702a21b22e151fa6a9866fef2e76522e7266c15a41dab68e2",
      "v": 27,
      "creates": null,
      "raw": "0xf86e8205cf850d67b6eb2782520894fca80345756b5d5c587f42a5ee16960a2260ca6788013fbe85edc90000801ba00f7d1a28cfa7f9fac1c5555a21989ad49bb11004f157c2b842c008fb131678bfa00765d5dc491b6ee702a21b22e151fa6a9866fef2e76522e7266c15a41dab68e2",
      "networkId": 0,
      "chainId": 0
    },
    {
      "hash": "0xd1c27175683385e6fe1f8ea4d3b3611633dae7f279af96eef9da544bce43b0d7",
      "blockHash": "0x28071e12e7d77108703feaf8aeba378449869e668e751be2b9081f8f7cf94a13",
      "blockNumber": 116529,
      "transactionIndex": 16,
      "confirmations": null,
      "from": "0x32Be343B94f860124dC4fEe278FDCBD38C102D88",
      "gasPrice": {
        "_hex": "0xd67b6eb27"
      },
      "gasLimit": {
        "_hex": "0x5208"
      },
      "to": "0x664254957B416b15EE4A881B59Deab3c4159E549",
      "value": {
        "_hex": "0x73db317456963c00"
      },
      "nonce": 1488,
      "data": "0x",
      "r": "0xac8373e18f451a2c85457e11bca8ce24f0f2a007d7de8432d96a7e2e645faedc",
      "s": "0x228bf6ebd2d11214e09d2ba408f058865336cee4df90a047445b61568ff44129",
      "v": 27,
      "creates": null,
      "raw": "0xf86e8205d0850d67b6eb2782520894664254957b416b15ee4a881b59deab3c4159e5498873db317456963c00801ba0ac8373e18f451a2c85457e11bca8ce24f0f2a007d7de8432d96a7e2e645faedca0228bf6ebd2d11214e09d2ba408f058865336cee4df90a047445b61568ff44129",
      "networkId": 0,
      "chainId": 0
    },
    {
      "hash": "0xb235fc5fef8e4a49ce6815db000e826dc59e31ccea6b60e446369d5d2909ba7d",
      "blockHash": "0x28071e12e7d77108703feaf8aeba378449869e668e751be2b9081f8f7cf94a13",
      "blockNumber": 116529,
      "transactionIndex": 17,
      "confirmations": null,
      "from": "0x32Be343B94f860124dC4fEe278FDCBD38C102D88",
      "gasPrice": {
        "_hex": "0xd67b6eb27"
      },
      "gasLimit": {
        "_hex": "0x5208"
      },
      "to": "0xC557b4a4380B69196d6CF08Bf42B8fC2d0AEf083",
      "value": {
        "_hex": "0x3764366a505ff0000"
      },
      "nonce": 1489,
      "data": "0x",
      "r": "0x25fff9b20bca796e61f74330a4e73f68a6545c8a74a663db8d8488cdc6da3d23",
      "s": "0x75fb0a96863bdeee2b0c1cdcf354ed938c8e5ba82709b3d67510dc3a967643fe",
      "v": 27,
      "creates": null,
      "raw": "0xf86f8205d1850d67b6eb2782520894c557b4a4380b69196d6cf08bf42b8fc2d0aef0838903764366a505ff0000801ba025fff9b20bca796e61f74330a4e73f68a6545c8a74a663db8d8488cdc6da3d23a075fb0a96863bdeee2b0c1cdcf354ed938c8e5ba82709b3d67510dc3a967643fe",
      "networkId": 0,
      "chainId": 0
    },
    {
      "hash": "0x59c002fbfee4fea4daf31c653e26938a416c0bcde8f6acd61fc989c8014cf466",
      "blockHash": "0x28071e12e7d77108703feaf8aeba378449869e668e751be2b9081f8f7cf94a13",
      "blockNumber": 116529,
      "transactionIndex": 18,
      "confirmations": null,
      "from": "0x32Be343B94f860124dC4fEe278FDCBD38C102D88",
      "gasPrice": {
        "_hex": "0xdc961bbb8"
      },
      "gasLimit": {
        "_hex": "0x5208"
      },
      "to": "0xa21E0cF3793cf75D63930696158E4474aF8383bA",
      "value": {
        "_hex": "0x13c940f73339d30000"
      },
      "nonce": 1490,
      "data": "0x",
      "r": "0xe184d732dfaa5a0255c7169914ebd3b130a4ed00eeef823bb3c0397b674631c4",
      "s": "0x088ca3b0ed26f9e4b0240423d9e178420cfa14b09df910034a5fe7a0c1c080cf",
      "v": 28,
      "creates": null,
      "raw": "0xf86f8205d2850dc961bbb882520894a21e0cf3793cf75d63930696158e4474af8383ba8913c940f73339d30000801ca0e184d732dfaa5a0255c7169914ebd3b130a4ed00eeef823bb3c0397b674631c4a0088ca3b0ed26f9e4b0240423d9e178420cfa14b09df910034a5fe7a0c1c080cf",
      "networkId": 0,
      "chainId": 0
    },
    {
      "hash": "0x284aa7332122f2fba96fcd1c112f101776f4bc73deb6d358db1812ad7636bd7b",
      "blockHash": "0x28071e12e7d77108703feaf8aeba378449869e668e751be2b9081f8f7cf94a13",
      "blockNumber": 116529,
      "transactionIndex": 19,
      "confirmations": null,
      "from": "0x32Be343B94f860124dC4fEe278FDCBD38C102D88",
      "gasPrice": {
        "_hex": "0xcc9c9044e"
      },
      "gasLimit": {
        "_hex": "0x5208"
      },
      "to": "0x76899c112A85c5a7d27Ff89f1b97112e900aeEBc",
      "value": {
        "_hex": "0xdde7e448067f0000"
      },
      "nonce": 1491,
      "data": "0x",
      "r": "0x4ff5a6c76c380fa2f661f5f0e0a27e9615f0ea0d3aea738af6119f4193cf91c9",
      "s": "0x11b53381b9eb6331dcef06e148f3b5ef59db98304fde4bdddf5f2d3dc0c6b5bc",
      "v": 28,
      "creates": null,
      "raw": "0xf86e8205d3850cc9c9044e8252089476899c112a85c5a7d27ff89f1b97112e900aeebc88dde7e448067f0000801ca04ff5a6c76c380fa2f661f5f0e0a27e9615f0ea0d3aea738af6119f4193cf91c9a011b53381b9eb6331dcef06e148f3b5ef59db98304fde4bdddf5f2d3dc0c6b5bc",
      "networkId": 0,
      "chainId": 0
    },
    {
      "hash": "0x355cccbc98c759095dda082323a2a9c72b35715a549ac42c15760542405d9daa",
      "blockHash": "0x28071e12e7d77108703feaf8aeba378449869e668e751be2b9081f8f7cf94a13",
      "blockNumber": 116529,
      "transactionIndex": 20,
      "confirmations": null,
      "from": "0x32Be343B94f860124dC4fEe278FDCBD38C102D88",
      "gasPrice": {
        "_hex": "0xd439b323d"
      },
      "gasLimit": {
        "_hex": "0x5208"
      },
      "to": "0xA0eadCdC3d2cc51DaA7Ef7e65370D2d46Ca9e6D9",
      "value": {
        "_hex": "0x456159131df7f0000"
      },
      "nonce": 1492,
      "data": "0x",
      "r": "0x3496ffe8fd4a6dd860a80e7bb2696aafb8e433aa866c6e50483333a6994a973b",
      "s": "0x0f31482660ed78b287e75943a31ee256e52f6b4cb63b32d6a1dd3f4ac3a0216a",
      "v": 27,
      "creates": null,
      "raw": "0xf86f8205d4850d439b323d82520894a0eadcdc3d2cc51daa7ef7e65370d2d46ca9e6d9890456159131df7f0000801ba03496ffe8fd4a6dd860a80e7bb2696aafb8e433aa866c6e50483333a6994a973ba00f31482660ed78b287e75943a31ee256e52f6b4cb63b32d6a1dd3f4ac3a0216a",
      "networkId": 0,
      "chainId": 0
    },
    {
      "hash": "0xab8cc931e6528a01971938caa71f87b760b7ec86855b81c2e225a62e2a4a08f4",
      "blockHash": "0x28071e12e7d77108703feaf8aeba378449869e668e751be2b9081f8f7cf94a13",
      "blockNumber": 116529,
      "transactionIndex": 21,
      "confirmations": null,
      "from": "0x32Be343B94f860124dC4fEe278FDCBD38C102D88",
      "gasPrice": {
        "_hex": "0xd9155fe43"
      },
      "gasLimit": {
        "_hex": "0x5208"
      },
      "to": "0xed433C980AaED4E749B3229F3993BfB2840f2433",
      "value": {
        "_hex": "0x41e92b66341ef0000"
      },
      "nonce": 1493,
      "data": "0x",
      "r": "0x24a95c276b89792406fbe69dd9c612f642fae482e9bed9268ba46c9f285e898f",
      "s": "0x33c6be51677d59f469dce6fa373d1d8df006f2cf85057c4489b3f051bf16cb6d",
      "v": 28,
      "creates": null,
      "raw": "0xf86f8205d5850d9155fe4382520894ed433c980aaed4e749b3229f3993bfb2840f243389041e92b66341ef0000801ca024a95c276b89792406fbe69dd9c612f642fae482e9bed9268ba46c9f285e898fa033c6be51677d59f469dce6fa373d1d8df006f2cf85057c4489b3f051bf16cb6d",
      "networkId": 0,
      "chainId": 0
    },
    {
      "hash": "0x4634e14d4f9257b0a1d5a536a7a260e2db4f34ed1cd99c3c940d51a09605f107",
      "blockHash": "0x28071e12e7d77108703feaf8aeba378449869e668e751be2b9081f8f7cf94a13",
      "blockNumber": 116529,
      "transactionIndex": 22,
      "confirmations": null,
      "from": "0x32Be343B94f860124dC4fEe278FDCBD38C102D88",
      "gasPrice": {
        "_hex": "0xdb2a27166"
      },
      "gasLimit": {
        "_hex": "0x5208"
      },
      "to": "0xCD1e66ED539dd92Fc40bBAa1FA16de8c02C14D45",
      "value": {
        "_hex": "0x56bc75e2d63100000"
      },
      "nonce": 1494,
      "data": "0x",
      "r": "0x8f699f380b9aa1087438b3fa5d23d1dd8d59f9c17a7be105a78f75e4c4ec5d1c",
      "s": "0x470808b0de3a4f6a5f6f5ade5c340a186713898c4083faf930ab4ce757902468",
      "v": 28,
      "creates": null,
      "raw": "0xf86f8205d6850db2a2716682520894cd1e66ed539dd92fc40bbaa1fa16de8c02c14d4589056bc75e2d63100000801ca08f699f380b9aa1087438b3fa5d23d1dd8d59f9c17a7be105a78f75e4c4ec5d1ca0470808b0de3a4f6a5f6f5ade5c340a186713898c4083faf930ab4ce757902468",
      "networkId": 0,
      "chainId": 0
    },
    {
      "hash": "0xfa60208ac720a2a5c89f4762b79d4d44f4d863864ab98be4caa9b3d7048e01e5",
      "blockHash": "0x28071e12e7d77108703feaf8aeba378449869e668e751be2b9081f8f7cf94a13",
      "blockNumber": 116529,
      "transactionIndex": 23,
      "confirmations": null,
      "from": "0x32Be343B94f860124dC4fEe278FDCBD38C102D88",
      "gasPrice": {
        "_hex": "0xe1068245e"
      },
      "gasLimit": {
        "_hex": "0x5208"
      },
      "to": "0xC557b4a4380B69196d6CF08Bf42B8fC2d0AEf083",
      "value": {
        "_hex": "0x4de5d372a8dd50000"
      },
      "nonce": 1495,
      "data": "0x",
      "r": "0x9989dc15f0296f9f9152ac80e2f313c8dee367065921b839622a5f0f06dff33f",
      "s": "0x52b3a7638957b5c5de04c045c396323aad7e6f4f1f3e6d0ef365ba4474022970",
      "v": 27,
      "creates": null,
      "raw": "0xf86f8205d7850e1068245e82520894c557b4a4380b69196d6cf08bf42b8fc2d0aef0838904de5d372a8dd50000801ba09989dc15f0296f9f9152ac80e2f313c8dee367065921b839622a5f0f06dff33fa052b3a7638957b5c5de04c045c396323aad7e6f4f1f3e6d0ef365ba4474022970",
      "networkId": 0,
      "chainId": 0
    },
    {
      "hash": "0x510697519f0eb33d32468009fc69038d62e11520baa699c889959d04af4bd748",
      "blockHash": "0x28071e12e7d77108703feaf8aeba378449869e668e751be2b9081f8f7cf94a13",
      "blockNumber": 116529,
      "transactionIndex": 24,
      "confirmations": null,
      "from": "0x32Be343B94f860124dC4fEe278FDCBD38C102D88",
      "gasPrice": {
        "_hex": "0xe1068245e"
      },
      "gasLimit": {
        "_hex": "0x5208"
      },
      "to": "0xE3A4CD0E7193d90A4e94EAb73d2a546a34130170",
      "value": {
        "_hex": "0x1a19527938b810000"
      },
      "nonce": 1496,
      "data": "0x",
      "r": "0x1dedc9abf641cb18b029a99fee55f5e6a0a1f80a6f527c67942dc642e7a32de1",
      "s": "0x6d12c1b6ad48ace6eb17d0e20686cc8add5714af62727ee5ea296bdedee8e777",
      "v": 27,
      "creates": null,
      "raw": "0xf86f8205d8850e1068245e82520894e3a4cd0e7193d90a4e94eab73d2a546a341301708901a19527938b810000801ba01dedc9abf641cb18b029a99fee55f5e6a0a1f80a6f527c67942dc642e7a32de1a06d12c1b6ad48ace6eb17d0e20686cc8add5714af62727ee5ea296bdedee8e777",
      "networkId": 0,
      "chainId": 0
    },
    {
      "hash": "0xf55affec069a0141daee7825d1b367d3a1f6e43f6cbb68257933f2b04b958837",
      "blockHash": "0x28071e12e7d77108703feaf8aeba378449869e668e751be2b9081f8f7cf94a13",
      "blockNumber": 116529,
      "transactionIndex": 25,
      "confirmations": null,
      "from": "0x32Be343B94f860124dC4fEe278FDCBD38C102D88",
      "gasPrice": {
        "_hex": "0xcd974e958"
      },
      "gasLimit": {
        "_hex": "0x5208"
      },
      "to": "0xed433C980AaED4E749B3229F3993BfB2840f2433",
      "value": {
        "_hex": "0x2c3a0ded7e92b0000"
      },
      "nonce": 1497,
      "data": "0x",
      "r": "0xe5e14ab4bd616e8edfc3cbfda05f4df8803d25d743090029923efa7a27b0bf7c",
      "s": "0x438da50f3bdb263fdf29f64f6411791aa72c1441edb2fa924251615cc7897910",
      "v": 27,
      "creates": null,
      "raw": "0xf86f8205d9850cd974e95882520894ed433c980aaed4e749b3229f3993bfb2840f24338902c3a0ded7e92b0000801ba0e5e14ab4bd616e8edfc3cbfda05f4df8803d25d743090029923efa7a27b0bf7ca0438da50f3bdb263fdf29f64f6411791aa72c1441edb2fa924251615cc7897910",
      "networkId": 0,
      "chainId": 0
    },
    {
      "hash": "0x33d7b5e1c8bca39539493512d559f8795038120c03b1e5e458623c59ec8acd47",
      "blockHash": "0x28071e12e7d77108703feaf8aeba378449869e668e751be2b9081f8f7cf94a13",
      "blockNumber": 116529,
      "transactionIndex": 26,
      "confirmations": null,
      "from": "0x32Be343B94f860124dC4fEe278FDCBD38C102D88",
      "gasPrice": {
        "_hex": "0xd0277ce33"
      },
      "gasLimit": {
        "_hex": "0x5208"
      },
      "to": "0x2759E1bb37F8DC70Ec76F7b2fCd15927AdDB4071",
      "value": {
        "_hex": "0x11ae3753541674000"
      },
      "nonce": 1498,
      "data": "0x",
      "r": "0xf8e8a54ac9d8904e83bdc71b6f2e39b912e33ae0019e2d95f9bea76f55e63089",
      "s": "0x0f9d0b587bae1e99e2cf5f7413ee34db7de5ffd617caa4e16bbe4ddb83e255e6",
      "v": 27,
      "creates": null,
      "raw": "0xf86f8205da850d0277ce33825208942759e1bb37f8dc70ec76f7b2fcd15927addb407189011ae3753541674000801ba0f8e8a54ac9d8904e83bdc71b6f2e39b912e33ae0019e2d95f9bea76f55e63089a00f9d0b587bae1e99e2cf5f7413ee34db7de5ffd617caa4e16bbe4ddb83e255e6",
      "networkId": 0,
      "chainId": 0
    },
    {
      "hash": "0x8a80b35d96e70bc6e50d2a516d5760df49d05be7553a21b6b232c32991fb3d49",
      "blockHash": "0x28071e12e7d77108703feaf8aeba378449869e668e751be2b9081f8f7cf94a13",
      "blockNumber": 116529,
      "transactionIndex": 27,
      "confirmations": null,
      "from": "0x32Be343B94f860124dC4fEe278FDCBD38C102D88",
      "gasPrice": {
        "_hex": "0xcd2f7bddf"
      },
      "gasLimit": {
        "_hex": "0x5208"
      },
      "to": "0xcAB17593A59EB5c6cd2A68dB8b2DD9Bce3837a00",
      "value": {
        "_hex": "0x1f01f4b27793af0000"
      },
      "nonce": 1499,
      "data": "0x",
      "r": "0x1d3ff37cd5b80d460ba8f04e5b15206e66894c055ba5bac1559a57e97b3442f6",
      "s": "0x58885e1e1ba8d9a829ed5f207ebb426c540b1e6d32b33ca1aae94ef11d03440f",
      "v": 27,
      "creates": null,
      "raw": "0xf86f8205db850cd2f7bddf82520894cab17593a59eb5c6cd2a68db8b2dd9bce3837a00891f01f4b27793af0000801ba01d3ff37cd5b80d460ba8f04e5b15206e66894c055ba5bac1559a57e97b3442f6a058885e1e1ba8d9a829ed5f207ebb426c540b1e6d32b33ca1aae94ef11d03440f",
      "networkId": 0,
      "chainId": 0
    },
    {
      "hash": "0x86c55316b0698f2f7921fc10465214c16848f83afd850a5893f49f107e0e83ed",
      "blockHash": "0x28071e12e7d77108703feaf8aeba378449869e668e751be2b9081f8f7cf94a13",
      "blockNumber": 116529,
      "transactionIndex": 28,
      "confirmations": null,
      "from": "0x9b22a80D5c7B3374a05b446081f97d0A34079e7F",
      "gasPrice": {
        "_hex": "0xba43b7400"
      },
      "gasLimit": {
        "_hex": "0x1f8cc"
      },
      "to": "0x2c785Fa15498FE27F1FC5F809BcD9c10C9481752",
      "value": {
        "_hex": "0x1bc16d674ec80000"
      },
      "nonce": 6,
      "data": "0x",
      "r": "0xb5a4c272ca293bd164cdc390d5e50858e30567b3edbd35dee644daf48bf283ed",
      "s": "0x56d16db237cb10bb34034dcbbc08dc64be49d6e222855b299481035e22d40e02",
      "v": 27,
      "creates": null,
      "raw": "0xf86d06850ba43b74008301f8cc942c785fa15498fe27f1fc5f809bcd9c10c9481752881bc16d674ec80000801ba0b5a4c272ca293bd164cdc390d5e50858e30567b3edbd35dee644daf48bf283eda056d16db237cb10bb34034dcbbc08dc64be49d6e222855b299481035e22d40e02",
      "networkId": 0,
      "chainId": 0
    },
    {
      "hash": "0xe6fdc86f75c73122dc7cfa11450fa8ff507b9c8de794782f82e6ec8ca6049966",
      "blockHash": "0x28071e12e7d77108703feaf8aeba378449869e668e751be2b9081f8f7cf94a13",
      "blockNumber": 116529,
      "transactionIndex": 29,
      "confirmations": null,
      "from": "0x141d08EDaDA2C1bA62A2940184Ba03d62d3fFF22",
      "gasPrice": {
        "_hex": "0xba43b7400"
      },
      "gasLimit": {
        "_hex": "0x5208"
      },
      "to": "0xC47Aaa860008be6f65B58c6C6E02a84e666EfE31",
      "value": {
        "_hex": "0x1f38432d2252bb8f0"
      },
      "nonce": 9,
      "data": "0x",
      "r": "0x062feeb3f46829195550207f81d40fb87de05dc294df23eda0192c537fba0055",
      "s": "0x254ab3eb12268603902136ec48c3b21c5aa8f8d72fe7b3588bccbdf0762e52e9",
      "v": 28,
      "creates": null,
      "raw": "0xf86d09850ba43b740082520894c47aaa860008be6f65b58c6c6e02a84e666efe318901f38432d2252bb8f0801ca0062feeb3f46829195550207f81d40fb87de05dc294df23eda0192c537fba0055a0254ab3eb12268603902136ec48c3b21c5aa8f8d72fe7b3588bccbdf0762e52e9",
      "networkId": 0,
      "chainId": 0
    },
    {
      "hash": "0xe8a6e4eea9c4ee95bd043b74977adaed77dcf82b30216b0ccdb6f383b1e4bbc2",
      "blockHash": "0x28071e12e7d77108703feaf8aeba378449869e668e751be2b9081f8f7cf94a13",
      "blockNumber": 116529,
      "transactionIndex": 30,
      "confirmations": null,
      "from": "0x9b22a80D5c7B3374a05b446081f97d0A34079e7F",
      "gasPrice": {
        "_hex": "0xba43b7400"
      },
      "gasLimit": {
        "_hex": "0x201d39"
      },
      "to": "0x2c785Fa15498FE27F1FC5F809BcD9c10C9481752",
      "value": {
        "_hex": "0x0"
      },
      "nonce": 7,
      "data": "0x797af627e0c54c534ace34bf7fb16781ff17e1302566ab4a7a9d5fd2d6ccc8a1742c717d",
      "r": "0x852808e9d85e522f7961337889ec95afb2c52ab99696a9965354685400c60819",
      "s": "0x55c24ceda7f40ceecd38b0472b8d2df7c7d34193bf52dfb3b2a8284a2e8a9439",
      "v": 27,
      "creates": null,
      "raw": "0xf88907850ba43b740083201d39942c785fa15498fe27f1fc5f809bcd9c10c948175280a4797af627e0c54c534ace34bf7fb16781ff17e1302566ab4a7a9d5fd2d6ccc8a1742c717d1ba0852808e9d85e522f7961337889ec95afb2c52ab99696a9965354685400c60819a055c24ceda7f40ceecd38b0472b8d2df7c7d34193bf52dfb3b2a8284a2e8a9439",
      "networkId": 0,
      "chainId": 0
    }
  ]
}