{
  "hash": "0x7d1a5476976dce5fd582b484e7df985cdb91eb94c5c634c4e66ff9e536cd5a21",
  "parentHash": "0xbf5f1e7059c7db0e37f6cf379912922601ce032da799f07960b23db47cb73203",
  "number": 53449,
  "timestamp": 1439037847,
  "nonce": "0xff12a419c570e1e6",
  "difficulty": 1593978035978,
  "gasLimit": {
    "_hex": "0x289e44"
  },
  "gasUsed": {
    "_hex": "0x255a8"
  },
  "miner": "0xf8E0CA3Ed80bd541b94BEdCf259e8CF2141A9523",
  "extraData": "0x476574682f76312e302e312f77696e646f77732f676f312e342e32",
  "transactions": [
    {
      "hash": "0x850326b017ed607c04f12922d560bcb83fcc5e1b0464bcc7079a44d9bf16d106",
      "blockHash": "0x7d1a5476976dce5fd582b484e7df985cdb91eb94c5c634c4e66ff9e536cd5a21",
      "blockNumber": 53449,
      "transactionIndex": 0,
      "confirmations": null,
      "from": "0xB2eF1f77B5Ef5c17655ec1765797E71449C28815",
      "gasPrice": {
        "_hex": "0xdf2f26f75"
      },
      "gasLimit": {
        "_hex": "0x15f90"
      },
      "to": "0xBAA54d6E90c3F4d7Ebec11bD180134C7eD8eBb52",
      "value": {
        "_hex": "0x16345785d8a0000"
      },
      "nonce": 0,
      "data": "0x",
      "r": "0x5864bb6ea682b5fbf4b93b0c20b3b24b967f34453bdaeaba74e787bd460729c9",
      "s": "0x69782a860d82ee2b36e1a65d879915cc85a53e93f39e3e87b8cd73fd4e2b1451",
      "v": 28,
      "creates": null,
      "raw": "0xf86d80850df2f26f7583015f9094baa54d6e90c3f4d7ebec11bd180134c7ed8ebb5288016345785d8a0000801ca05864bb6ea682b5fbf4b93b0c20b3b24b967f34453bdaeaba74e787bd460729c9a069782a860d82ee2b36e1a65d879915cc85a53e93f39e3e87b8cd73fd4e2b1451",
      "networkId": 0,
      "chainId": 0
    },
    {
      "hash": "0x184173f6d80203b0f5b3c92fc5bebe45754b40e5ace3abe24cf2a7633bc42186",
      "blockHash": "0x7d1a5476976dce5fd582b484e7df985cdb91eb94c5c634c4e66ff9e536cd5a21",
      "blockNumber": 53449,
      "transactionIndex": 1,
      "confirmations": null,
      "from": "0x32Be343B94f860124dC4fEe278FDCBD38C102D88",
      "gasPrice": {
        "_hex": "0xd68ae3f66"
      },
      "gasLimit": {
        "_hex": "0x5208"
      },
      "to": "0xd370D8ABa65AdA99A3382fF248813f1592D50027",
      "value": {
        "_hex": "0x8e1bc9bf040000"
      },
      "nonce": 34,
      "data": "0x",
      "r": "0x8f8ce1e30fd11ab1f81040eb4a53cc23af6cba7b0d8feba5985c4a4b6f1752c0",
      "s": "0x079a5ed42a5d34e5d6d2b0acdc79d57ae4886d721851c876d76a25f5baa60612",
      "v": 28,
      "creates": null,
      "raw": "0xf86b22850d68ae3f6682520894d370d8aba65ada99a3382ff248813f1592d50027878e1bc9bf040000801ca08f8ce1e30fd11ab1f81040eb4a53cc23af6cba7b0d8feba5985c4a4b6f1752c0a0079a5ed42a5d34e5d6d2b0acdc79d57ae4886d721851c876d76a25f5baa60612",
      "networkId": 0,
      "chainId": 0
    },
    {
      "hash": "0x85a218fb7d44304861336b0c90c1f2a6c97aa74ad2a81ef5ea2b72b56e98889d",
      "blockHash": "0x7d1a5476976dce5fd582b484e7df985cdb91eb94c5c634c4e66ff9e536cd5a21",
      "blockNumber": 53449,
      "transactionIndex": 2,
      "confirmations": null,
      "from": "0x32Be343B94f860124dC4fEe278FDCBD38C102D88",
      "gasPrice": {
        "_hex": "0xd68ae3f66"
      },
      "gasLimit": {
        "_hex": "0x5208"
      },
      "to": "0xad7210d76107F888745616FFF7979623b84F928c",
      "value": {
        "_hex": "0x2386f26fc10000"
      },
      "nonce": 35,
      "data": "0x",
      "r": "0x0cffeeeb849a822abed7db3c10fe2d449fc73fae05eaafff9c3190bf33b25218",
      "s": "0x12ca367c3d4afbcc55458e503ef5a65e5215886a2beed93eaa34bf91d81867b8",
      "v": 27,
      "creates": null,
      "raw": "0xf86b23850d68ae3f6682520894ad7210d76107f888745616fff7979623b84f928c872386f26fc10000801ba00cffeeeb849a822abed7db3c10fe2d449fc73fae05eaafff9c3190bf33b25218a012ca367c3d4afbcc55458e503ef5a65e5215886a2beed93eaa34bf91d81867b8",
      "networkId": 0,
      "chainId": 0
    },
    {
      "hash": "0xa71b3c37e6d73a09fae2138809268eba299e15f9b9e3d3d493a954d78d58dcc8",
      "blockHash": "0x7d1a5476976dce5fd582b484e7df985cdb91eb94c5c634c4e66ff9e536cd5a21",
      "blockNumber": 53449,
      "transactionIndex": 3,
      "confirmations": null,
      "from": "0x903B6c16aC1f01D4a2E42e6AE5950c91e4391ed2",
      "gasPrice": {
        "_hex": "0xd68ae3f66"
      },
      "gasLimit": {
        "_hex": "0x5208"
      },
      "to": "0x32Be343B94f860124dC4fEe278FDCBD38C102D88",
      "value": {
        "_hex": "0xad78a706710b00000"
      },
      "nonce": 0,
      "data": "0x",
      "r": "0xfb98fea06ff9bf9b103457ad7856deef7948bd2f1714d3002898947f05466889",
      "s": "0x29edcdc6c7267ea3e130ad638d746158f1a0733a8e91f7a90a5e26ca5d6c74c8",
      "v": 27,
      "creates": null,
      "raw": "0xf86d80850d68ae3f668252089432be343b94f860124dc4fee278fdcbd38c102d88890ad78a706710b00000801ba0fb98fea06ff9bf9b103457ad7856deef7948bd2f1714d3002898947f05466889a029edcdc6c7267ea3e130ad638d746158f1a0733a8e91f7a90a5e26ca5d6c74c8",
      "networkId": 0,
      "chainId": 0
    }
  ]
}