{
  "hash": "0xfbec838edc8ee78fde878ec59a0f6ce950b905071f9ed32ef78c774829226d70",
  "parentHash": "0x541d965d3984bfed3e17f506eb819fe985d6f00ce409d16c77563ca652a8b263",
  "number": 106381,
  "timestamp": 1439903215,
  "nonce": "0x30701b98f5aee57c",
  "difficulty": 4477144238410,
  "gasLimit": {
    "_hex": "0x2fefd8"
  },
  "gasUsed": {
    "_hex": "0x179ff"
  },
  "miner": "0xe6A7a1d47ff21B6321162AEA7C6CB457D5476Bca",
  "extraData": "0x476574682f76312e302e312d38326566323666362f6c696e75782f676f312e34",
  "transactions": [
    {
      "hash": "0xdfb4f0c03479df2f15a8354711ab801cf9042bd685c09918d183d30cc190430b",
      "blockHash": "0xfbec838edc8ee78fde878ec59a0f6ce950b905071f9ed32ef78c774829226d70",
      "blockNumber": 106381,
      "transactionIndex": 0,
      "confirmations": null,
      "from": "0x87C5B5874A18B4306DF8a752a6C8cc3E82daFc19",
      "gasPrice": {
        "_hex": "0x10b012a1b05"
      },
      "gasLimit": {
        "_hex": "0x493e0"
      },
      "to": "0xD79B4C6791784184e2755B2fC1659eaaB0f80456",
      "value": {
        "_hex": "0x11ba39d231dbfde1"
      },
      "nonce": 341,
      "data": "0x8d2161860000000000000000000000000000000000000000000000000000000000000007d3d96ceed0cfca4794c2a5a3d3aeefe69da0a2a669e66a5651f30b64831c3db0",
      "r": "0x9f8a15ad2e88a6939b22484101525090fe9d5137494a352185021bab86673212",
      "s": "0x1e2703389c3b520d6bb8889532ed70e65e002c53c3d10730186b215b355dc48c",
      "v": 27,
      "creates": null,
      "raw": "0xf8b582015586010b012a1b05830493e094d79b4c6791784184e2755b2fc1659eaab0f804568811ba39d231dbfde1b8448d2161860000000000000000000000000000000000000000000000000000000000000007d3d96ceed0cfca4794c2a5a3d3aeefe69da0a2a669e66a5651f30b64831c3db01ba09f8a15ad2e88a6939b22484101525090fe9d5137494a352185021bab86673212a01e2703389c3b520d6bb8889532ed70e65e002c53c3d10730186b215b355dc48c",
      "networkId": 0,
      "chainId": 0
    }
  ]
}