{
  "hash": "0x954e80fb277b44d0466d462adac4dfc37a3e1e9f22319f6349810970449d31f2",
  "parentHash": "0xf29738fea1b97cf6567c89832cfbface914dbe5392746fa8c22b24b4419d9f13",
  "number": 110388,
  "timestamp": 1439972885,
  "nonce": "0x2900015fa075527c",
  "difficulty": 4369208806469,
  "gasLimit": {
    "_hex": "0x2fefd8"
  },
  "gasUsed": {
    "_hex": "0x33450"
  },
  "miner": "0x88D74a59454F6cF3B51ef6b9136AFb6b9D405A88",
  "extraData": "0x",
  "transactions": [
    {
      "hash": "0x82848d5098a3b13d6526d711d58f9e854f9ab263ca26ed7350ae55e2eacf9577",
      "blockHash": "0x954e80fb277b44d0466d462adac4dfc37a3e1e9f22319f6349810970449d31f2",
      "blockNumber": 110388,
      "transactionIndex": 0,
      "confirmations": null,
      "from": "0xe6A7a1d47ff21B6321162AEA7C6CB457D5476Bca",
      "gasPrice": {
        "_hex": "0xd39885f3a"
      },
      "gasLimit": {
        "_hex": "0x55f0"
      },
      "to": "0x5E4b2D8d8fc2332da92f225890520d41EdB0Ea50",
      "value": {
        "_hex": "0xe24f09440cce9d8"
      },
      "nonce": 4588,
      "data": "0x",
      "r": "0xf5fa10506e88fc10e69ae34a54111d00ee27e544ef1fe5287df7bacac8c3d2b4",
      "s": "0x6852ac1e639ef573682501a3a2f36b7e010b50291ca54e19696569e5604345ba",
      "v": 27,
      "creates": null,
      "raw": "0xf86e8211ec850d39885f3a8255f0945e4b2d8d8fc2332da92f225890520d41edb0ea50880e24f09440cce9d8801ba0f5fa10506e88fc10e69ae34a54111d00ee27e544ef1fe5287df7bacac8c3d2b4a06852ac1e639ef573682501a3a2f36b7e010b50291ca54e19696569e5604345ba",
      "networkId": 0,
      "chainId": 0
    },
    {
      "hash": "0xf361248325709ce19fb3bb72b1e749ce501fb2963a9239b0a56ffbc468366c2c",
      "blockHash": "0x954e80fb277b44d0466d462adac4dfc37a3e1e9f22319f6349810970449d31f2",
      "blockNumber": 110388,
      "transactionIndex": 1,
      "confirmations": null,
      "from": "0xe6A7a1d47ff21B6321162AEA7C6CB457D5476Bca",
      "gasPrice": {
        "_hex": "0xd39885f3a"
      },
      "gasLimit": {
        "_hex": "0x55f0"
      },
      "to": "0x399e51beB529F28056C392653C99A2Ebb654571F",
      "value": {
        "_hex": "0xf1e22f6d99d9318"
      },
      "nonce": 4589,
      "data": "0x",
      "r": "0x18e3b4fa2853da617a85b4a297920c711ad5a4e837702b958bf00b66a3e4f179",
      "s": "0x6ed1648363d675822c476045831d0afc651c9b35ed84eae2a82df72eef26a140",
      "v": 27,
      "creates": null,
      "raw": "0xf86e8211ed850d39885f3a8255f094399e51beb529f28056c392653c99a2ebb654571f880f1e22f6d99d9318801ba018e3b4fa2853da617a85b4a297920c711ad5a4e837702b958bf00b66a3e4f179a06ed1648363d675822c476045831d0afc651c9b35ed84eae2a82df72eef26a140",
      "networkId": 0,
      "chainId": 0
    },
    {
      "hash": "0x3331a300b13b2cbab6bbfa379f6bafdf1864df7c41aa978ad715f5b7de087d7f",
      "blockHash": "0x954e80fb277b44d0466d462adac4dfc37a3e1e9f22319f6349810970449d31f2",
      "blockNumber": 110388,
      "transactionIndex": 2,
      "confirmations": null,
      "from": "0xe6A7a1d47ff21B6321162AEA7C6CB457D5476Bca",
      "gasPrice": {
        "_hex": "0xd39885f3a"
      },
      "gasLimit": {
        "_hex": "0x55f0"
      },
      "to": "0x59dF0302930Fc09BDf428D5467D862A9C73b2830",
      "value": {
        "_hex": "0xfb1cd44daccba5c"
      },
      "nonce": 4590,
      "data": "0x",
      "r": "0x9891c1db45b56c9d9592fe9b1a73f69300b8992b8f22b2739a01002b64a59baa",
      "s": "0x792709d0abe9b573be8124bd6db7b5892f16bb881fde2a36b0f3f21cf7c96ce2",
      "v": 28,
      "creates": null,
      "raw": "0xf86e8211ee850d39885f3a8255f09459df0302930fc09bdf428d5467d862a9c73b2830880fb1cd44daccba5c801ca09891c1db45b56c9d9592fe9b1a73f69300b8992b8f22b2739a01002b64a59baaa0792709d0abe9b573be8124bd6db7b5892f16bb881fde2a36b0f3f21cf7c96ce2",
      "networkId": 0,
      "chainId": 0
    },
    {
      "hash": "0x875df58ec75040feb8a1cc1a8e362e55a4166cb7e8416714b56eb7ffd1514085",
      "blockHash": "0x954e80fb277b44d0466d462adac4dfc37a3e1e9f22319f6349810970449d31f2",
      "blockNumber": 110388,
      "transactionIndex": 3,
      "confirmations": null,
      "from": "0xe6A7a1d47ff21B6321162AEA7C6CB457D5476Bca",
      "gasPrice": {
        "_hex": "0xd39885f3a"
      },
      "gasLimit": {
        "_hex": "0x55f0"
      },
      "to": "0x740Ab9f08593f931fC5d0589a528663565e707ee",
      "value": {
        "_hex": "0x1080ca41d4596ed0"
      },
      "nonce": 4591,
      "data": "0x",
      "r": "0x355534141d686616df1331adb23efba1f6d312641fbe26a8ed5aed776be64377",
      "s": "0x14e40ed644e1d075677e1799f6e14d8695b77d30bf7b0153d5c1b206e3741832",
      "v": 27,
      "creates": null,
      "raw": "0xf86e8211ef850d39885f3a8255f094740ab9f08593f931fc5d0589a528663565e707ee881080ca41d4596ed0801ba0355534141d686616df1331adb23efba1f6d312641fbe26a8ed5aed776be64377a014e40ed644e1d075677e1799f6e14d8695b77d30bf7b0153d5c1b206e3741832",
      "networkId": 0,
      "chainId": 0
    },
    {
      "hash": "0xb488f8211105d98ce134b0c8422d9bd6e7662494d7b28a2aeafb7fdcc9377e0a",
      "blockHash": "0x954e80fb277b44d0466d462adac4dfc37a3e1e9f22319f6349810970449d31f2",
      "blockNumber": 110388,
      "transactionIndex": 4,
      "confirmations": null,
      "from": "0xe6A7a1d47ff21B6321162AEA7C6CB457D5476Bca",
      "gasPrice": {
        "_hex": "0xd39885f3a"
      },
      "gasLimit": {
        "_hex": "0x55f0"
      },
      "to": "0x82870082223b5f71F0aD44262e08A34B61065C25",
      "value": {
        "_hex": "0x13226887125f7620"
      },
      "nonce": 4592,
      "data": "0x",
      "r": "0x1638b75bd46460b2d02293b3c773f1c412b683338a4928db9d459e535c17010a",
      "s": "0x72159f3bcf7d276aa8d45651f5e55f78a4851424b3b70bcf80d2fd81e55bb981",
      "v": 27,
      "creates": null,
      "raw": "0xf86e8211f0850d39885f3a8255f09482870082223b5f71f0ad44262e08a34b61065c258813226887125f7620801ba01638b75bd46460b2d02293b3c773f1c412b683338a4928db9d459e535c17010aa072159f3bcf7d276aa8d45651f5e55f78a4851424b3b70bcf80d2fd81e55bb981",
      "networkId": 0,
      "chainId": 0
    },
    {
      "hash": "0xf25dada7a176d4b9419b544c69e6aa2d7bc97445baea087ff2ce38c9353264ae",
      "blockHash": "0x954e80fb277b44d0466d462adac4dfc37a3e1e9f22319f6349810970449d31f2",
      "blockNumber": 110388,
      "transactionIndex": 5,
      "confirmations": null,
      "from": "0xe6A7a1d47ff21B6321162AEA7C6CB457D5476Bca",
      "gasPrice": {
        "_hex": "0xd39885f3a"
      },
      "gasLimit": {
        "_hex": "0x55f0"
      },
      "to": "0x6B4971F56172Fe56565FD3d6b56F8CA3C91B2baD",
      "value": {
        "_hex": "0x13860c88d65430d0"
      },
      "nonce": 4593,
      "data": "0x",
      "r": "0xaa60a446b3a112dd9a1dc1534e571b55f4d0af583d6cfa69c5e8ab48b3e7f7ff",
      "s": "0x51034d4b2d4c47b98463df965de083819bb5bb26ac41d4e21eb9862b359f9691",
      "v": 28,
      "creates": null,
      "raw": "0xf86e8211f1850d39885f3a8255f0946b4971f56172fe56565fd3d6b56f8ca3c91b2bad8813860c88d65430d0801ca0aa60a446b3a112dd9a1dc1534e571b55f4d0af583d6cfa69c5e8ab48b3e7f7ffa051034d4b2d4c47b98463df965de083819bb5bb26ac41d4e21eb9862b359f9691",
      "networkId": 0,
      "chainId": 0
    },
    {
      "hash": "0x1542f813a24afa73d628eaf3da63dc19526c49e1798c79155cf6ecc6c8f36271",
      "blockHash": "0x954e80fb277b44d0466d462adac4dfc37a3e1e9f22319f6349810970449d31f2",
      "blockNumber": 110388,
      "transactionIndex": 6,
      "confirmations": null,
      "from": "0xe6A7a1d47ff21B6321162AEA7C6CB457D5476Bca",
      "gasPrice": {
        "_hex": "0xd39885f3a"
      },
      "gasLimit": {
        "_hex": "0x55f0"
      },
      "to": "0x3131059fec5c802096c71004E5C3E87f67ED96d0",
      "value": {
        "_hex": "0x13b47f97562fc1d4"
      },
      "nonce": 4594,
      "data": "0x",
      "r": "0x58a96440ec046cb05c977d5d60b514a5459cea32acc90085567df26ca4862874",
      "s": "0x4a8c0eec8d42919a68d49f3c93ab8152db25d51318a8f57a887b7f64e14fca43",
      "v": 28,
      "creates": null,
      "raw": "0xf86e8211f2850d39885f3a8255f0943131059fec5c802096c71004e5c3e87f67ed96d08813b47f97562fc1d4801ca058a96440ec046cb05c977d5d60b514a5459cea32acc90085567df26ca4862874a04a8c0eec8d42919a68d49f3c93ab8152db25d51318a8f57a887b7f64e14fca43",
      "networkId": 0,
      "chainId": 0
    },
    {
      "hash": "0xe667178455584f0b51f871f71d72d02f49278d524e2a3a617ddd4b01384d08b1",
      "blockHash": "0x954e80fb277b44d0466d462adac4dfc37a3e1e9f22319f6349810970449d31f2",
      "blockNumber": 110388,
      "transactionIndex": 7,
      "confirmations": null,
      "from": "0xe6A7a1d47ff21B6321162AEA7C6CB457D5476Bca",
      "gasPrice": {
        "_hex": "0xd39885f3a"
      },
      "gasLimit": {
        "_hex": "0x55f0"
      },
      "to": "0x5175f107219871c88e0C4202F14A5f34088b54c8",
      "value": {
        "_hex": "0x15f2db68e60fca20"
      },
      "nonce": 4595,
      "data": "0x",
      "r": "0xf075b07379bcc1f424aa0821a0523e18909c61ba90f0c14ab270a4dfaf9b41e8",
      "s": "0x3942a0fd4aa6e55df59279ea471fdd45db63ad35eb014a12fa1a50a511b54ee7",
      "v": 28,
      "creates": null,
      "raw": "0xf86e8211f3850d39885f3a8255f0945175f107219871c88e0c4202f14a5f34088b54c88815f2db68e60fca20801ca0f075b07379bcc1f424aa0821a0523e18909c61ba90f0c14ab270a4dfaf9b41e8a03942a0fd4aa6e55df59279ea471fdd45db63ad35eb014a12fa1a50a511b54ee7",
      "networkId": 0,
      "chainId": 0
    },
    {
      "hash": "0x1d52d4dc3feffa44d2e44709a800166aed829ddf9c8210a11f0c50d31afb0f0d",
      "blockHash": "0x954e80fb277b44d0466d462adac4dfc37a3e1e9f22319f6349810970449d31f2",
      "blockNumber": 110388,
      "transactionIndex": 8,
      "confirmations": null,
      "from": "0xe6A7a1d47ff21B6321162AEA7C6CB457D5476Bca",
      "gasPrice": {
        "_hex": "0xd39885f3a"
      },
      "gasLimit": {
        "_hex": "0x55f0"
      },
      "to": "0x744Df4ED8BaC8eBCa76964a93358c3A67a89b003",
      "value": {
        "_hex": "0x16565ccb702b6510"
      },
      "nonce": 4596,
      "data": "0x",
      "r": "0xbdebb00a277739a29b37f1b8e72ddfcb5e638d7f306f7e004405bc8e3fbd08e3",
      "s": "0x0a72138f9af7160ed7af4682a228ffc514892521b95e0bb33fdf16a909960b87",
      "v": 28,
      "creates": null,
      "raw": "0xf86e8211f4850d39885f3a8255f094744df4ed8bac8ebca76964a93358c3a67a89b0038816565ccb702b6510801ca0bdebb00a277739a29b37f1b8e72ddfcb5e638d7f306f7e004405bc8e3fbd08e3a00a72138f9af7160ed7af4682a228ffc514892521b95e0bb33fdf16a909960b87",
      "networkId": 0,
      "chainId": 0
    },
    {
      "hash": "0x8592e8ba4441b24e99400aa10ba17ab50f2f84c16fd93773db5471920e70acb5",
      "blockHash": "0x954e80fb277b44d0466d462adac4dfc37a3e1e9f22319f6349810970449d31f2",
      "blockNumber": 110388,
      "transactionIndex": 9,
      "confirmations": null,
      "from": "0xe6A7a1d47ff21B6321162AEA7C6CB457D5476Bca",
      "gasPrice": {
        "_hex": "0xd39885f3a"
      },
      "gasLimit": {
        "_hex": "0x55f0"
      },
      "to": "0xaFF2628417768132E1d04f605Fe1e797f2ECA3F8",
      "value": {
        "_hex": "0x1bb5de113a6e39d0"
      },
      "nonce": 4597,
      "data": "0x",
      "r": "0x9fb9bcfb2cd9b9cae31ceba659dc53597c69861d721ff9c11affed3486fe8a29",
      "s": "0x714c03b7ee54da17be3246cb971cecf1f9759aa31c085e6f859b8278ecd9fb86",
      "v": 27,
      "creates": null,
      "raw": "0xf86e8211f5850d39885f3a8255f094aff2628417768132e1d04f605fe1e797f2eca3f8881bb5de113a6e39d0801ba09fb9bcfb2cd9b9cae31ceba659dc53597c69861d721ff9c11affed3486fe8a29a0714c03b7ee54da17be3246cb971cecf1f9759aa31c085e6f859b8278ecd9fb86",
      "networkId": 0,
      "chainId": 0
    }
  ]
}