{
  "hash": "0x25202c0613a0dc2af2295fdae2813f8fbb745bf891ef76137882d5abbc63872b",
  "parentHash": "0x854872a74e8ee1ae5aec56a5da70def550763876d250e3c10f961ae273a455cc",
  "number": 48887,
  "timestamp": 1438964669,
  "nonce": "0x4c3120987718fdbd",
  "difficulty": 1476431740229,
  "gasLimit": {
    "_hex": "0x20576"
  },
  "gasUsed": {
    "_hex": "0x5208"
  },
  "miner": "0xeB1325C8D9d3ea8D74aC11F4B00F1B2367686319",
  "extraData": "0x476574682f76312e302e312f77696e646f77732f676f312e342e32",
  "transactions": [
    {
      "hash": "0xab38f1b0f817788d8f89cc876345c1be417fcc691045a0bb0624708856541d99",
      "blockHash": "0x25202c0613a0dc2af2295fdae2813f8fbb745bf891ef76137882d5abbc63872b",
      "blockNumber": 48887,
      "transactionIndex": 0,
      "confirmations": null,
      "from": "0xba1FCAf223937Ef89e85675503Bdb7Ca6A928B78",
      "gasPrice": {
        "_hex": "0x1141484c3f9"
      },
      "gasLimit": {
        "_hex": "0x15f90"
      },
      "to": "0xC939D6e2515872B4A5bed252f1d82A4dCE4A1507",
      "value": {
        "_hex": "0x1"
      },
      "nonce": 1,
      "data": "0x",
      "r": "0xbfd50e2d5dab4106e94c14c769d53d5e641590c4904c6f89f9247e31eefde8d1",
      "s": "0x7fed61c09a6b8e6da252820c108ae5e18a071737b6a106a446082789484911bc",
      "v": 28,
      "creates": null,
      "raw": "0xf866018601141484c3f983015f9094c939d6e2515872b4a5bed252f1d82a4dce4a150701801ca0bfd50e2d5dab4106e94c14c769d53d5e641590c4904c6f89f9247e31eefde8d1a07fed61c09a6b8e6da252820c108ae5e18a071737b6a106a446082789484911bc",
      "networkId": 0,
      "chainId": 0
    }
  ]
}