{
  "hash": "0x3f22c31ab7f8f82506df69e4a97c28507114f518c50b27a1af7c8a97d3214942",
  "parentHash": "0x5b37d1db13542f7b60a1a3918f97dedb1f4abb54aab4a8576520b6a9493c3ff5",
  "number": 78882,
  "timestamp": 1439461055,
  "nonce": "0x8d78203795f6f7cf",
  "difficulty": 2279693087378,
  "gasLimit": {
    "_hex": "0x2fefd8"
  },
  "gasUsed": {
    "_hex": "0x5208"
  },
  "miner": "0xB6be56962eab062fC2A764216eEd2Bf07ea1bd92",
  "extraData": "0x476574682f76312e302e312d37666266393930632f6c696e75782f676f312e34",
  "transactions": [
    {
      "hash": "0xc181d549090ea184f878064178a514385e4b7802a2515c6ed81b60e38aa1ba12",
      "blockHash": "0x3f22c31ab7f8f82506df69e4a97c28507114f518c50b27a1af7c8a97d3214942",
      "blockNumber": 78882,
      "transactionIndex": 0,
      "confirmations": null,
      "from": "0x1B7047b4338ACf65bE94C1A3e8c5c9338ad7d67C",
      "gasPrice": {
        "_hex": "0xdf8475800"
      },
      "gasLimit": {
        "_hex": "0x5208"
      },
      "to": "0x2Fe86C0450Bf1bE6001d119aA87f6f33117bD699",
      "value": {
        "_hex": "0x36372cf33e3c2a0000"
      },
      "nonce": 5,
      "data": "0x",
      "r": "0x0801afedf2afcbe6479a250c7dbb1cde780a64143420bbd40fff5c4ee74ddabc",
      "s": "0x1171804f91e6c714759e7a22b49952eea4ae3159d52a9adca8a794389c336908",
      "v": 27,
      "creates": null,
      "raw": "0xf86d05850df8475800825208942fe86c0450bf1be6001d119aa87f6f33117bd6998936372cf33e3c2a0000801ba00801afedf2afcbe6479a250c7dbb1cde780a64143420bbd40fff5c4ee74ddabca01171804f91e6c714759e7a22b49952eea4ae3159d52a9adca8a794389c336908",
      "networkId": 0,
      "chainId": 0
    }
  ]
}