{
  "hash": "0x697cab46581c36a6c493e0ac41a5333e00c544b51ee4b561dc0878d26b4ed178",
  "parentHash": "0x406045029ab4d7f2bf8bd72b6ea7f9ec9084005ec757be0acd657caa7174a79b",
  "number": 75529,
  "timestamp": 1439404937,
  "nonce": "0xfc29258e3fca0c61",
  "difficulty": 2215840823804,
  "gasLimit": {
    "_hex": "0x2fefd8"
  },
  "gasUsed": {
    "_hex": "0xad77"
  },
  "miner": "0x74016F15e9262E1fAb078146a4002ACc513AfEf0",
  "extraData": "0x476574682f76312e302e312f6c696e75782f676f312e342e32",
  "transactions": [
    {
      "hash": "0x8e17bde7435bce31af03531530ec459b18536b5dcceb990ba41c7e197974c7d4",
      "blockHash": "0x697cab46581c36a6c493e0ac41a5333e00c544b51ee4b561dc0878d26b4ed178",
      "blockNumber": 75529,
      "transactionIndex": 0,
      "confirmations": null,
      "from": "0x87C5B5874A18B4306DF8a752a6C8cc3E82daFc19",
      "gasPrice": {
        "_hex": "0x1187e3a3072"
      },
      "gasLimit": {
        "_hex": "0x493e0"
      },
      "to": "0xD79B4C6791784184e2755B2fC1659eaaB0f80456",
      "value": {
        "_hex": "0x0"
      },
      "nonce": 51,
      "data": "0x03750d940000000000000000000000000c7a4e5c8aca4ff0c9655edd175f82fef48f17173938353532643332326339653563313900000000000000000000000000000000",
      "r": "0xfed9be66b13bc0bdd273da6d8f99fc681f77c89e5e0b70bc1e388fe00ec4b068",
      "s": "0x52340236b210637c8d6f3a81473aec944bc4b7e4403be1c2ce95131e4c41ec45",
      "v": 27,
      "creates": null,
      "raw": "0xf8ab338601187e3a3072830493e094d79b4c6791784184e2755b2fc1659eaab0f8045680b84403750d940000000000000000000000000c7a4e5c8aca4ff0c9655edd175f82fef48f171739383535326433323263396535633139000000000000000000000000000000001ba0fed9be66b13bc0bdd273da6d8f99fc681f77c89e5e0b70bc1e388fe00ec4b068a052340236b210637c8d6f3a81473aec944bc4b7e4403be1c2ce95131e4c41ec45",
      "networkId": 0,
      "chainId": 0
    }
  ]
}