{
  "hash": "0x7d970dd940b99ff4187c987c29ee932f8763aa2fd5ead784085b29a484a6dd11",
  "parentHash": "0x927a2d7b260f08ffa3e86f7471f1fa9a6c2941b30407ad33215c631c0ddb99e1",
  "number": 63237,
  "timestamp": 1439201369,
  "nonce": "0x9057e80f64445929",
  "difficulty": 1805870149443,
  "gasLimit": {
    "_hex": "0x2fefd8"
  },
  "gasUsed": {
    "_hex": "0x5208"
  },
  "miner": "0xeB1325C8D9d3ea8D74aC11F4B00F1B2367686319",
  "extraData": "0x476574682f76312e302e312f77696e646f77732f676f312e342e32",
  "transactions": [
    {
      "hash": "0xe69907014d3ad8925fb03e647b9625503dda0e4257fd0ade98b45b984fd78079",
      "blockHash": "0x7d970dd940b99ff4187c987c29ee932f8763aa2fd5ead784085b29a484a6dd11",
      "blockNumber": 63237,
      "transactionIndex": 0,
      "confirmations": null,
      "from": "0x990FA04fe1F1ED98c2719523169913c3Ca96dF11",
      "gasPrice": {
        "_hex": "0xd8364fc25"
      },
      "gasLimit": {
        "_hex": "0x15f90"
      },
      "to": "0xC25f24A505b8fEF751D8f4FCc397651001F7a160",
      "value": {
        "_hex": "0x45400a8fd5330000"
      },
      "nonce": 0,
      "data": "0x",
      "r": "0x6c750acb434ffc36245fe80f30fe66dbea841f655448980e68de47dcb39b940b",
      "s": "0x29c0093133d03881e4d8ca143c84dd60483c602bb6432703a85e991b348d522d",
      "v": 27,
      "creates": null,
      "raw": "0xf86d80850d8364fc2583015f9094c25f24a505b8fef751d8f4fcc397651001f7a1608845400a8fd5330000801ba06c750acb434ffc36245fe80f30fe66dbea841f655448980e68de47dcb39b940ba029c0093133d03881e4d8ca143c84dd60483c602bb6432703a85e991b348d522d",
      "networkId": 0,
      "chainId": 0
    }
  ]
}