{
  "hash": "0x6a0f62991282125c855f118b1a173d7b856dc62233cca3c70bb8603e7ac976fb",
  "parentHash": "0x83cb528d30ca4784eedac7f550a53411d3f68d4814c01af7123a509a1ba1041d",
  "number": 94052,
  "timestamp": 1439701836,
  "nonce": "0x5b2838139841ad11",
  "difficulty": 3483416975799,
  "gasLimit": {
    "_hex": "0x2fefd8"
  },
  "gasUsed": {
    "_hex": "0xa410"
  },
  "miner": "0xA560c68C8252c7BA1cA82B9C5C0d15CBa39c039b",
  "extraData": "0x",
  "transactions": [
    {
      "hash": "0x2b67bf19c6afe420b9c38086567d84ef5759aac22d398b82639aff7f72464c74",
      "blockHash": "0x6a0f62991282125c855f118b1a173d7b856dc62233cca3c70bb8603e7ac976fb",
      "blockNumber": 94052,
      "transactionIndex": 0,
      "confirmations": null,
      "from": "0x120A270bbC009644e35F0bB6ab13f95b8199c4ad",
      "gasPrice": {
        "_hex": "0xd829c2022"
      },
      "gasLimit": {
        "_hex": "0x3d090"
      },
      "to": "0x0162153D61155c1D0A9f46c093f4d921b9F768f5",
      "value": {
        "_hex": "0x1043561a8829300000"
      },
      "nonce": 573,
      "data": "0x",
      "r": "0x0aaf3fdd7cb70f776fefc3febb8e3e9c7094e68b278c7da9f1cada87c1a1e88a",
      "s": "0x30dec74b74e139643dcfd59dd13b4fbd4e5a97357450ccbb9682833a7466e527",
      "v": 28,
      "creates": null,
      "raw": "0xf87082023d850d829c20228303d090940162153d61155c1d0a9f46c093f4d921b9f768f5891043561a8829300000801ca00aaf3fdd7cb70f776fefc3febb8e3e9c7094e68b278c7da9f1cada87c1a1e88aa030dec74b74e139643dcfd59dd13b4fbd4e5a97357450ccbb9682833a7466e527",
      "networkId": 0,
      "chainId": 0
    },
    {
      "hash": "0x6114b827b72f3cd82e43480f6a9e2c5a880aa3c9a81cdcb237c8ba1d01f3cbc8",
      "blockHash": "0x6a0f62991282125c855f118b1a173d7b856dc62233cca3c70bb8603e7ac976fb",
      "blockNumber": 94052,
      "transactionIndex": 1,
      "confirmations": null,
      "from": "0x7FB24A92a324f90DC61f80d42e9BE859189a1097",
      "gasPrice": {
        "_hex": "0xcee4f3e6f"
      },
      "gasLimit": {
        "_hex": "0x15f90"
      },
      "to": "0xc5590b3C64A62886b188D5B51b9e2c8F2475BF46",
      "value": {
        "_hex": "0x16345785d8a0000"
      },
      "nonce": 1,
      "data": "0x",
      "r": "0xb91469ef3b66e56649a5c9d4190c3826e50b7258b2c07e11dc8f7a300dc1e19c",
      "s": "0x0cc931068d1fff1a2c6bf75088984963ae87c195c74bdfab7dd165a6ddbd693e",
      "v": 27,
      "creates": null,
      "raw": "0xf86d01850cee4f3e6f83015f9094c5590b3c64a62886b188d5b51b9e2c8f2475bf4688016345785d8a0000801ba0b91469ef3b66e56649a5c9d4190c3826e50b7258b2c07e11dc8f7a300dc1e19ca00cc931068d1fff1a2c6bf75088984963ae87c195c74bdfab7dd165a6ddbd693e",
      "networkId": 0,
      "chainId": 0
    }
  ]
}