{
  "hash": "0x19c1a72e001265fec9cc3049a78ece845a0af1b8b0b920c680177fa2ecc8fae1",
  "parentHash": "0x88ccab9f69d53bbdc612e402eafd4f2e22e08064d8c1a266f540b9c33191f314",
  "number": 47029,
  "timestamp": 1438933364,
  "nonce": "0x9180242ab1a4741f",
  "difficulty": 1451026961199,
  "gasLimit": {
    "_hex": "0x910c"
  },
  "gasUsed": {
    "_hex": "0x5208"
  },
  "miner": "0xe6A7a1d47ff21B6321162AEA7C6CB457D5476Bca",
  "extraData": "0x657468706f6f6c2e6f7267",
  "transactions": [
    {
      "hash": "0x59a8702a958838cbdafcba240e394bae0e26b90bd76810265d4ce942245c1f6a",
      "blockHash": "0x19c1a72e001265fec9cc3049a78ece845a0af1b8b0b920c680177fa2ecc8fae1",
      "blockNumber": 47029,
      "transactionIndex": 0,
      "confirmations": null,
      "from": "0xe6A7a1d47ff21B6321162AEA7C6CB457D5476Bca",
      "gasPrice": {
        "_hex": "0xd6624f1f6"
      },
      "gasLimit": {
        "_hex": "0x5208"
      },
      "to": "0xF2d2AfF1320476cb8C6b607199D23175cc595693",
      "value": {
        "_hex": "0x1d55a0ab58e3d250"
      },
      "nonce": 32,
      "data": "0x",
      "r": "0xec55c0c49f57405f6ad7197749cba3dd02d19c8228a19e9f96f4316b94d913f3",
      "s": "0x3a87ac5e7ec20192c88ec49641d430b2bd77e694fd1a0aa07a4336598a48420f",
      "v": 28,
      "creates": null,
      "raw": "0xf86c20850d6624f1f682520894f2d2aff1320476cb8c6b607199d23175cc595693881d55a0ab58e3d250801ca0ec55c0c49f57405f6ad7197749cba3dd02d19c8228a19e9f96f4316b94d913f3a03a87ac5e7ec20192c88ec49641d430b2bd77e694fd1a0aa07a4336598a48420f",
      "networkId": 0,
      "chainId": 0
    }
  ]
}