{
  "hash": "0xe79b863bc2f9f45298005f7d893914f7e55100b330268dc56191a038b749e15b",
  "parentHash": "0xe88eed5b74e7c55b4616b1f9732f0f93288803b0d113ff2670e9cc58e0f76804",
  "number": 82154,
  "timestamp": 1439514517,
  "nonce": "0x3ccba406d8a8adab",
  "difficulty": 2388166159072,
  "gasLimit": {
    "_hex": "0x2fefd8"
  },
  "gasUsed": {
    "_hex": "0x174a4"
  },
  "miner": "0x007f7f58D3eb5b7510A301eCC749FC1fCDDBE14D",
  "extraData": "0x476574682f76312e302e312f77696e646f77732f676f312e342e32",
  "transactions": [
    {
      "hash": "0x72b3fc3189bacee5a5da9001cdc9040cb8f1e9360004915c019ec6b4a00b8732",
      "blockHash": "0xe79b863bc2f9f45298005f7d893914f7e55100b330268dc56191a038b749e15b",
      "blockNumber": 82154,
      "transactionIndex": 0,
      "confirmations": null,
      "from": "0x2910543Af39abA0Cd09dBb2D50200b3E800A63D2",
      "gasPrice": {
        "_hex": "0xdaf095af5"
      },
      "gasLimit": {
        "_hex": "0x5208"
      },
      "to": "0x7B89C493d5Fcf87179238C662C2Ef012c0d07a99",
      "value": {
        "_hex": "0x5149ac65d5c25d8000"
      },
      "nonce": 510,
      "data": "0x",
      "r": "0x23ae238c94738c5a287d087e16bde3541073610d187ec03401330bd7226cda25",
      "s": "0x41accb32329dcc06d43e20b77c814f8fec007acb386e702037ee61d9f55fb2e0",
      "v": 27,
      "creates": null,
      "raw": "0xf86f8201fe850daf095af5825208947b89c493d5fcf87179238c662c2ef012c0d07a99895149ac65d5c25d8000801ba023ae238c94738c5a287d087e16bde3541073610d187ec03401330bd7226cda25a041accb32329dcc06d43e20b77c814f8fec007acb386e702037ee61d9f55fb2e0",
      "networkId": 0,
      "chainId": 0
    },
    {
      "hash": "0xaa05de8a73b6a3d9f201104a4e0a27ea655a54a4787c01cdcb36a8c57c455d87",
      "blockHash": "0xe79b863bc2f9f45298005f7d893914f7e55100b330268dc56191a038b749e15b",
      "blockNumber": 82154,
      "transactionIndex": 1,
      "confirmations": null,
      "from": "0x34C57A97dF78772fAc54FF75CeF9590457feE4D9",
      "gasPrice": {
        "_hex": "0xd4414be56"
      },
      "gasLimit": {
        "_hex": "0x15f90"
      },
      "to": "0x9AA0F92cd89F8f2BF77D13Eb0415B3504CA0dC9A",
      "value": {
        "_hex": "0x0"
      },
      "nonce": 1,
      "data": "0x41c0e1b5",
      "r": "0x78e548956fb2f18f85e989c5a44266940e324a228d6716ccb343711c604f7a1a",
      "s": "0x4d199a8290e78aeb8e005149126ad7ccf48cc4c4cc65791fd8a12736285daf93",
      "v": 28,
      "creates": null,
      "raw": "0xf86901850d4414be5683015f90949aa0f92cd89f8f2bf77d13eb0415b3504ca0dc9a808441c0e1b51ca078e548956fb2f18f85e989c5a44266940e324a228d6716ccb343711c604f7a1aa04d199a8290e78aeb8e005149126ad7ccf48cc4c4cc65791fd8a12736285daf93",
      "networkId": 0,
      "chainId": 0
    },
    {
      "hash": "0x79901fb1dacac72b1dd2922af7382d826e6627b1f4d6e689add2a1ea3e6182e6",
      "blockHash": "0xe79b863bc2f9f45298005f7d893914f7e55100b330268dc56191a038b749e15b",
      "blockNumber": 82154,
      "transactionIndex": 2,
      "confirmations": null,
      "from": "0x4c74B6F32c9680aCB5Fe0e72B7Aa95C612540A04",
      "gasPrice": {
        "_hex": "0xccdda99ed"
      },
      "gasLimit": {
        "_hex": "0x5208"
      },
      "to": "0x32Be343B94f860124dC4fEe278FDCBD38C102D88",
      "value": {
        "_hex": "0x1158a2bb247bf4000"
      },
      "nonce": 23,
      "data": "0x",
      "r": "0x86c81a0d9d8cb181495b776989caf0276c18afb8b495390aaaf6968d21c62bb9",
      "s": "0x004700eb6a15c69482fc8d19e4fde165827dabe6bcca1786cda4e27363ae7550",
      "v": 27,
      "creates": null,
      "raw": "0xf86c17850ccdda99ed8252089432be343b94f860124dc4fee278fdcbd38c102d888901158a2bb247bf4000801ba086c81a0d9d8cb181495b776989caf0276c18afb8b495390aaaf6968d21c62bb99f4700eb6a15c69482fc8d19e4fde165827dabe6bcca1786cda4e27363ae7550",
      "networkId": 0,
      "chainId": 0
    },
    {
      "hash": "0x137e9c78ab6b2fc503618deace69a526e9199c3a6c276be5a2c229ee477ca8de",
      "blockHash": "0xe79b863bc2f9f45298005f7d893914f7e55100b330268dc56191a038b749e15b",
      "blockNumber": 82154,
      "transactionIndex": 3,
      "confirmations": null,
      "from": "0x19ae27E1b61445EB9f27821A5eB4b3e957319e7e",
      "gasPrice": {
        "_hex": "0xccdda99ed"
      },
      "gasLimit": {
        "_hex": "0x5208"
      },
      "to": "0x32Be343B94f860124dC4fEe278FDCBD38C102D88",
      "value": {
        "_hex": "0xa2a1472b8197f00000"
      },
      "nonce": 5,
      "data": "0x",
      "r": "0x9a26f4f58b35446f40c77f6942fe3bd3f775e5290265598fa268f7123efabb6a",
      "s": "0x26a311a8bae7657e96206ec8f538035e924e87d23754cff46821e172cbbdc5fc",
      "v": 27,
      "creates": null,
      "raw": "0xf86d05850ccdda99ed8252089432be343b94f860124dc4fee278fdcbd38c102d8889a2a1472b8197f00000801ba09a26f4f58b35446f40c77f6942fe3bd3f775e5290265598fa268f7123efabb6aa026a311a8bae7657e96206ec8f538035e924e87d23754cff46821e172cbbdc5fc",
      "networkId": 0,
      "chainId": 0
    },
    {
      "hash": "0x572fbd1093134bd8a7066bdaf77412d75029a30dc455f83291120c309ff550b8",
      "blockHash": "0xe79b863bc2f9f45298005f7d893914f7e55100b330268dc56191a038b749e15b",
      "blockNumber": 82154,
      "transactionIndex": 4,
      "confirmations": null,
      "from": "0xd83630DD777Ce7c8Df15D55A8Bb72EB7C7b4568D",
      "gasPrice": {
        "_hex": "0xcb6cc5328"
      },
      "gasLimit": {
        "_hex": "0x15f90"
      },
      "to": "0x2910543Af39abA0Cd09dBb2D50200b3E800A63D2",
      "value": {
        "_hex": "0x4563918244f40000"
      },
      "nonce": 1,
      "data": "0x454e44504338454a38",
      "r": "0xe0468ac13865fb65aaafcfa21fa2f8f891d7274224d8b1e79347b40da9f3c805",
      "s": "0x2c37a5175c2a0b8ed9729316cdf2328ba5f1f99cdcb500ca0e0530cbd8c73db5",
      "v": 27,
      "creates": null,
      "raw": "0xf87601850cb6cc532883015f90942910543af39aba0cd09dbb2d50200b3e800a63d2884563918244f4000089454e44504338454a381ba0e0468ac13865fb65aaafcfa21fa2f8f891d7274224d8b1e79347b40da9f3c805a02c37a5175c2a0b8ed9729316cdf2328ba5f1f99cdcb500ca0e0530cbd8c73db5",
      "networkId": 0,
      "chainId": 0
    }
  ]
}