{
  "hash": "0xabef39f094920535697ec456fe536f2ba6650462c93845b4579e27ac74edd025",
  "parentHash": "0xd6c150bc806bd8efd76b94581c441d6a4411ab37468e85363add2df3e474f61e",
  "number": 55357,
  "timestamp": 1439069410,
  "nonce": "0x6de80fa78f23ef74",
  "difficulty": 1628223798404,
  "gasLimit": {
    "_hex": "0x2fe3de"
  },
  "gasUsed": {
    "_hex": "0xa410"
  },
  "miner": "0x558FaBA8c8326AdC0704469504E27c7482489a73",
  "extraData": "0x476574682f76312e302e302f77696e646f77732f676f312e342e32",
  "transactions": [
    {
      "hash": "0x106d26f448b6307583f956f710914c175ef49dae479e63000d8dc480833becb8",
      "blockHash": "0xabef39f094920535697ec456fe536f2ba6650462c93845b4579e27ac74edd025",
      "blockNumber": 55357,
      "transactionIndex": 0,
      "confirmations": null,
      "from": "0x5e1fBd4E58e2312b3C78d7aAAAfA10bf9C3189E3",
      "gasPrice": {
        "_hex": "0x1131ce60c9f"
      },
      "gasLimit": {
        "_hex": "0x15f90"
      },
      "to": "0xe22b075c9b0b2B0C042a72DfE027aeC8AF8cBC96",
      "value": {
        "_hex": "0x3635c9adc5dea00000"
      },
      "nonce": 17,
      "data": "0x",
      "r": "0x43edf550f9d05ed93ca789a80225803885403d433fd2e25719bb2283a0aa2a51",
      "s": "0x62dbeb303216958d5d6479a44c9c7899fec63faf2703789916fa067a59755c73",
      "v": 27,
      "creates": null,
      "raw": "0xf86f118601131ce60c9f83015f9094e22b075c9b0b2b0c042a72dfe027aec8af8cbc96893635c9adc5dea00000801ba043edf550f9d05ed93ca789a80225803885403d433fd2e25719bb2283a0aa2a51a062dbeb303216958d5d6479a44c9c7899fec63faf2703789916fa067a59755c73",
      "networkId": 0,
      "chainId": 0
    },
    {
      "hash": "0x72f0f7d0ef4d615f766208e1f220f976868bc154ac7d9d4e4a145315391a8a63",
      "blockHash": "0xabef39f094920535697ec456fe536f2ba6650462c93845b4579e27ac74edd025",
      "blockNumber": 55357,
      "transactionIndex": 1,
      "confirmations": null,
      "from": "0x5e1fBd4E58e2312b3C78d7aAAAfA10bf9C3189E3",
      "gasPrice": {
        "_hex": "0x1131ce60c9f"
      },
      "gasLimit": {
        "_hex": "0x15f90"
      },
      "to": "0xe22b075c9b0b2B0C042a72DfE027aeC8AF8cBC96",
      "value": {
        "_hex": "0x3635c9adc5dea00000"
      },
      "nonce": 18,
      "data": "0x",
      "r": "0x647b2623e379dfba8eaf0863bc9daaee923413de61fc40673e635df3f4d8eeb2",
      "s": "0x02d62fcfecf41bda7593e86b9fee35ae68a477401e848499eec76ea3dda623ac",
      "v": 28,
      "creates": null,
      "raw": "0xf86f128601131ce60c9f83015f9094e22b075c9b0b2b0c042a72dfe027aec8af8cbc96893635c9adc5dea00000801ca0647b2623e379dfba8eaf0863bc9daaee923413de61fc40673e635df3f4d8eeb2a002d62fcfecf41bda7593e86b9fee35ae68a477401e848499eec76ea3dda623ac",
      "networkId": 0,
      "chainId": 0
    }
  ]
}