{
  "hash": "0x69b1a11cfdd49750dbb0a8ebff192926df014c2c97ff3c229b2c3786507f9f26",
  "parentHash": "0x8d6c6679c9cad51955562ee466257ef75654cb51455562ba3acd1ac92b3080ad",
  "number": 99950,
  "timestamp": 1439798260,
  "nonce": "0xa057b7ec6ffc3690",
  "difficulty": 3849320159046,
  "gasLimit": {
    "_hex": "0x2fefd8"
  },
  "gasUsed": {
    "_hex": "0xa410"
  },
  "miner": "0xe6A7a1d47ff21B6321162AEA7C6CB457D5476Bca",
  "extraData": "0x476574682f76312e302e312d38326566323666362f6c696e75782f676f312e34",
  "transactions": [
    {
      "hash": "0xfef4b4392968d7da700880eddce003d471913ecf260b4a6160f1f494f322778e",
      "blockHash": "0x69b1a11cfdd49750dbb0a8ebff192926df014c2c97ff3c229b2c3786507f9f26",
      "blockNumber": 99950,
      "transactionIndex": 0,
      "confirmations": null,
      "from": "0xe6A7a1d47ff21B6321162AEA7C6CB457D5476Bca",
      "gasPrice": {
        "_hex": "0xd86b68f84"
      },
      "gasLimit": {
        "_hex": "0x55f0"
      },
      "to": "0x911C819565DA29661e97381cbde506ACF7aabf65",
      "value": {
        "_hex": "0x218655af1d766fdc"
      },
      "nonce": 3133,
      "data": "0x",
      "r": "0xb01bc071ea9b693c011f541609f37ba453811395def0fb8b87897b1681b4033a",
      "s": "0x6be91227baaebf672cf83d80bd5153e4cac6247eb9ede2a387780dc2918122a3",
      "v": 27,
      "creates": null,
      "raw": "0xf86e820c3d850d86b68f848255f094911c819565da29661e97381cbde506acf7aabf6588218655af1d766fdc801ba0b01bc071ea9b693c011f541609f37ba453811395def0fb8b87897b1681b4033aa06be91227baaebf672cf83d80bd5153e4cac6247eb9ede2a387780dc2918122a3",
      "networkId": 0,
      "chainId": 0
    },
    {
      "hash": "0x44067aebfc2287d43d6fe9bb8c8d5462592e3b2c435beffbd1917aab2ef8e230",
      "blockHash": "0x69b1a11cfdd49750dbb0a8ebff192926df014c2c97ff3c229b2c3786507f9f26",
      "blockNumber": 99950,
      "transactionIndex": 1,
      "confirmations": null,
      "from": "0xe6A7a1d47ff21B6321162AEA7C6CB457D5476Bca",
      "gasPrice": {
        "_hex": "0xd86b68f84"
      },
      "gasLimit": {
        "_hex": "0x55f0"
      },
      "to": "0x7812D42e3DDAaC2BFB738279ED0F7026Ef0Eef4D",
      "value": {
        "_hex": "0x21a37f239b5e5f58"
      },
      "nonce": 3134,
      "data": "0x",
      "r": "0xb33711269c4d2f02cc59dd9368bf5496a7b3ab55120d145c7eee2fa3f81a6c46",
      "s": "0x69e8b991d4007beac717dab9b981e717c87e491cb25db06c767596025d3c26f4",
      "v": 27,
      "creates": null,
      "raw": "0xf86e820c3e850d86b68f848255f0947812d42e3ddaac2bfb738279ed0f7026ef0eef4d8821a37f239b5e5f58801ba0b33711269c4d2f02cc59dd9368bf5496a7b3ab55120d145c7eee2fa3f81a6c46a069e8b991d4007beac717dab9b981e717c87e491cb25db06c767596025d3c26f4",
      "networkId": 0,
      "chainId": 0
    }
  ]
}