{
  "hash": "0xa06adfc05d10f8d546c2ef0aff927e5315df5af2ce9102ee445a841aa415ebd5",
  "parentHash": "0xfccb805a4037fb93f7352ae4838e933ddcaafd93f9714c4460f8ff223cd538ee",
  "number": 115306,
  "timestamp": 1440054948,
  "nonce": "0x558c959b85f487fd",
  "difficulty": 4558366900912,
  "gasLimit": {
    "_hex": "0x2fefd8"
  },
  "gasUsed": {
    "_hex": "0xa410"
  },
  "miner": "0xe6A7a1d47ff21B6321162AEA7C6CB457D5476Bca",
  "extraData": "0x476574682f76312e302e312d38326566323666362f6c696e75782f676f312e34",
  "transactions": [
    {
      "hash": "0xa6b1f04875bffe855b1999c82b0883c22e1c203bfb37c8bc8579e619eccdbac3",
      "blockHash": "0xa06adfc05d10f8d546c2ef0aff927e5315df5af2ce9102ee445a841aa415ebd5",
      "blockNumber": 115306,
      "transactionIndex": 0,
      "confirmations": null,
      "from": "0x4bA6C728e6251DC89C317f7dbCA89D4136C0baB0",
      "gasPrice": {
        "_hex": "0xd57b48790"
      },
      "gasLimit": {
        "_hex": "0x5208"
      },
      "to": "0x32Be343B94f860124dC4fEe278FDCBD38C102D88",
      "value": {
        "_hex": "0x48e098ae531ae000"
      },
      "nonce": 10,
      "data": "0x",
      "r": "0xd75f3a7741d01f54d44d25da10f3334663528852d4c2e3924b3da54542e0ec89",
      "s": "0x38f7228bff0ed9f5137e475c0302cced28c0869b6721adb520d82379015e75b8",
      "v": 28,
      "creates": null,
      "raw": "0xf86c0a850d57b487908252089432be343b94f860124dc4fee278fdcbd38c102d888848e098ae531ae000801ca0d75f3a7741d01f54d44d25da10f3334663528852d4c2e3924b3da54542e0ec89a038f7228bff0ed9f5137e475c0302cced28c0869b6721adb520d82379015e75b8",
      "networkId": 0,
      "chainId": 0
    },
    {
      "hash": "0xb6d79151fb8e30ef6f5a4e0c3d4e247b5eb49a53e8364610ffc75fe57be42fc1",
      "blockHash": "0xa06adfc05d10f8d546c2ef0aff927e5315df5af2ce9102ee445a841aa415ebd5",
      "blockNumber": 115306,
      "transactionIndex": 1,
      "confirmations": null,
      "from": "0xe6A7a1d47ff21B6321162AEA7C6CB457D5476Bca",
      "gasPrice": {
        "_hex": "0xd4ddceda4"
      },
      "gasLimit": {
        "_hex": "0x55f0"
      },
      "to": "0x123843545FB525C8E134c9A5F15ADA6865cc3848",
      "value": {
        "_hex": "0x858bcf2d0b347ef70"
      },
      "nonce": 5485,
      "data": "0x",
      "r": "0x3ce44881fa045ec5b7b22a771c96e2698e2de3db63d414c1e10bc4d3541434ea",
      "s": "0x34d9f3d62132798503e245a2adeb535dc81ba60ada6693a713933909167efb47",
      "v": 27,
      "creates": null,
      "raw": "0xf86f82156d850d4ddceda48255f094123843545fb525c8e134c9a5f15ada6865cc3848890858bcf2d0b347ef70801ba03ce44881fa045ec5b7b22a771c96e2698e2de3db63d414c1e10bc4d3541434eaa034d9f3d62132798503e245a2adeb535dc81ba60ada6693a713933909167efb47",
      "networkId": 0,
      "chainId": 0
    }
  ]
}