{
  "hash": "0x2ebae24f2bbbd605bce8a4bade04ebe8c0e6f715460a6af78accee9560638ea0",
  "parentHash": "0x408afe729f9bed7483254d7a248166fe3c3f5b42239bfff56b79ad0a6f27275d",
  "number": 119326,
  "timestamp": 1440140911,
  "nonce": "0x0d00259fe09e991b",
  "difficulty": 4407387342625,
  "gasLimit": {
    "_hex": "0x2fefd8"
  },
  "gasUsed": {
    "_hex": "0xa410"
  },
  "miner": "0xe6A7a1d47ff21B6321162AEA7C6CB457D5476Bca",
  "extraData": "0xd783010002844765746887676f312e342e32856c696e7578",
  "transactions": [
    {
      "hash": "0xd413119e6c51ed6b138848ea2021a3e4d6a44137b9b9518b5d74c4061fe520fc",
      "blockHash": "0x2ebae24f2bbbd605bce8a4bade04ebe8c0e6f715460a6af78accee9560638ea0",
      "blockNumber": 119326,
      "transactionIndex": 0,
      "confirmations": null,
      "from": "0xe6A7a1d47ff21B6321162AEA7C6CB457D5476Bca",
      "gasPrice": {
        "_hex": "0xba43b7400"
      },
      "gasLimit": {
        "_hex": "0x55f0"
      },
      "to": "0x006c2D0A03D20a1e9B838594F03FC81603e9d350",
      "value": {
        "_hex": "0x168de6522785ced4"
      },
      "nonce": 5966,
      "data": "0x",
      "r": "0x8b13d14f0c6c2d378ca9caf849a2850620bed9f37ceac1c6ea513c8dfbdf5472",
      "s": "0x3263b3ce8e0188bbbd3ffe683713758a2b42941033638671f69570d2d54b4316",
      "v": 28,
      "creates": null,
      "raw": "0xf86e82174e850ba43b74008255f094006c2d0a03d20a1e9b838594f03fc81603e9d35088168de6522785ced4801ca08b13d14f0c6c2d378ca9caf849a2850620bed9f37ceac1c6ea513c8dfbdf5472a03263b3ce8e0188bbbd3ffe683713758a2b42941033638671f69570d2d54b4316",
      "networkId": 0,
      "chainId": 0
    },
    {
      "hash": "0xc77410fbcf0c5149ace3e800b96bcdd8e7cafb52695c20325b05bc3ce6ca6077",
      "blockHash": "0x2ebae24f2bbbd605bce8a4bade04ebe8c0e6f715460a6af78accee9560638ea0",
      "blockNumber": 119326,
      "transactionIndex": 1,
      "confirmations": null,
      "from": "0xe6A7a1d47ff21B6321162AEA7C6CB457D5476Bca",
      "gasPrice": {
        "_hex": "0xba43b7400"
      },
      "gasLimit": {
        "_hex": "0x55f0"
      },
      "to": "0x7812D42e3DDAaC2BFB738279ED0F7026Ef0Eef4D",
      "value": {
        "_hex": "0x16b18dac55c6dca0"
      },
      "nonce": 5967,
      "data": "0x",
      "r": "0x501c3b8318ec8fa30312abae5b21dce1a2d1ab4b572eb305751085c1b7bce2d4",
      "s": "0x5f4a77793cea69fb0890ceaa834e1c90aabbc9e29308ca99e217442aa56a61b8",
      "v": 28,
      "creates": null,
      "raw": "0xf86e82174f850ba43b74008255f0947812d42e3ddaac2bfb738279ed0f7026ef0eef4d8816b18dac55c6dca0801ca0501c3b8318ec8fa30312abae5b21dce1a2d1ab4b572eb305751085c1b7bce2d4a05f4a77793cea69fb0890ceaa834e1c90aabbc9e29308ca99e217442aa56a61b8",
      "networkId": 0,
      "chainId": 0
    }
  ]
}