{
  "hash": "0x632aa0ef6d340023556415d00d87b37aaff112b4663d3db956df70c98c5aebff",
  "parentHash": "0xdba96ad49c70ac101e47578b34cba65f8eab862089baace4b05173836dfe8f39",
  "number": 121868,
  "timestamp": 1440183997,
  "nonce": "0xeb8587c539ebfe91",
  "difficulty": 4484186832965,
  "gasLimit": {
    "_hex": "0x2fefd8"
  },
  "gasUsed": {
    "_hex": "0xf618"
  },
  "miner": "0xD0ee3F53eE0fCf3F9fbCcdd17BD1b6441DdC2074",
  "extraData": "0x",
  "transactions": [
    {
      "hash": "0xa3f983a2fb749e84e3dbc6be7541d7a88cdb56a22b1f99d3a061c9981e4825c6",
      "blockHash": "0x632aa0ef6d340023556415d00d87b37aaff112b4663d3db956df70c98c5aebff",
      "blockNumber": 121868,
      "transactionIndex": 0,
      "confirmations": null,
      "from": "0xe6A7a1d47ff21B6321162AEA7C6CB457D5476Bca",
      "gasPrice": {
        "_hex": "0xba43b7400"
      },
      "gasLimit": {
        "_hex": "0x55f0"
      },
      "to": "0x1918175e6aB029996E0BC00238AeA5f89f3F84ad",
      "value": {
        "_hex": "0xdbe410a7eb4a088"
      },
      "nonce": 6365,
      "data": "0x",
      "r": "0x02c140c03118dd2c6a855a8de33c663e6699575c8c881071111aa394c2e23e76",
      "s": "0x7c7f660cfc7bf4d356ea8a37228598b222f1822bb7276e97d1ba69b1a2defcf1",
      "v": 27,
      "creates": null,
      "raw": "0xf86e8218dd850ba43b74008255f0941918175e6ab029996e0bc00238aea5f89f3f84ad880dbe410a7eb4a088801ba002c140c03118dd2c6a855a8de33c663e6699575c8c881071111aa394c2e23e76a07c7f660cfc7bf4d356ea8a37228598b222f1822bb7276e97d1ba69b1a2defcf1",
      "networkId": 0,
      "chainId": 0
    },
    {
      "hash": "0xe3470537f006460c216099f51d15a5196e8a9817617f5766f97202be483b471e",
      "blockHash": "0x632aa0ef6d340023556415d00d87b37aaff112b4663d3db956df70c98c5aebff",
      "blockNumber": 121868,
      "transactionIndex": 1,
      "confirmations": null,
      "from": "0xe6A7a1d47ff21B6321162AEA7C6CB457D5476Bca",
      "gasPrice": {
        "_hex": "0xba43b7400"
      },
      "gasLimit": {
        "_hex": "0x55f0"
      },
      "to": "0x91d32201228cd1Dea4e21d71f7A9e0CeF5de4A39",
      "value": {
        "_hex": "0xdbf56ab190d2c98"
      },
      "nonce": 6366,
      "data": "0x",
      "r": "0x725a2399a7f5d615d8a2355780ac0188016239db89d3446544e77ef3e8a81c22",
      "s": "0x109a83c8b4cf5745fdbeb9c0da5dbcde6fd89d1feee174218a59f02695edc731",
      "v": 27,
      "creates": null,
      "raw": "0xf86e8218de850ba43b74008255f09491d32201228cd1dea4e21d71f7a9e0cef5de4a39880dbf56ab190d2c98801ba0725a2399a7f5d615d8a2355780ac0188016239db89d3446544e77ef3e8a81c22a0109a83c8b4cf5745fdbeb9c0da5dbcde6fd89d1feee174218a59f02695edc731",
      "networkId": 0,
      "chainId": 0
    },
    {
      "hash": "0x8c1d15bdfd351b7b2ce0c22253f2ddaa9046e411022331ae8d2d84968653fe31",
      "blockHash": "0x632aa0ef6d340023556415d00d87b37aaff112b4663d3db956df70c98c5aebff",
      "blockNumber": 121868,
      "transactionIndex": 2,
      "confirmations": null,
      "from": "0xe6A7a1d47ff21B6321162AEA7C6CB457D5476Bca",
      "gasPrice": {
        "_hex": "0xba43b7400"
      },
      "gasLimit": {
        "_hex": "0x55f0"
      },
      "to": "0xE35453eef2cC3C7A044D0aC134ba615908FA82EE",
      "value": {
        "_hex": "0xdd5496893c4e5f0"
      },
      "nonce": 6367,
      "data": "0x",
      "r": "0x2103e537dcd578c0be04b5920c3ad33b38e5a97556e6edd658489c2cbe74a6c9",
      "s": "0x681fda702eebbd6ee3982032564bd53da049cbd6b3265bd3306f6b49dea1af93",
      "v": 27,
      "creates": null,
      "raw": "0xf86e8218df850ba43b74008255f094e35453eef2cc3c7a044d0ac134ba615908fa82ee880dd5496893c4e5f0801ba02103e537dcd578c0be04b5920c3ad33b38e5a97556e6edd658489c2cbe74a6c9a0681fda702eebbd6ee3982032564bd53da049cbd6b3265bd3306f6b49dea1af93",
      "networkId": 0,
      "chainId": 0
    }
  ]
}