{
  "hash": "0xd3e2b85a27d85721c7144521c168564a5c4c244041201181a4597ca539743a06",
  "parentHash": "0x47baadb332ed2049952a653f83999f714f95f117f35f2af45c59e50d2b1ebad7",
  "number": 87109,
  "timestamp": 1439587231,
  "nonce": "0x6878dbb60c2f960d",
  "difficulty": 3057182393060,
  "gasLimit": {
    "_hex": "0x2fefd8"
  },
  "gasUsed": {
    "_hex": "0x5208"
  },
  "miner": "0xf8E0CA3Ed80bd541b94BEdCf259e8CF2141A9523",
  "extraData": "0x476574682f76312e302e312f77696e646f77732f676f312e342e32",
  "transactions": [
    {
      "hash": "0x0447317d537d72608f4e6310b6b19a98d0c4a7ff933f0bf52a64e6e50379faad",
      "blockHash": "0xd3e2b85a27d85721c7144521c168564a5c4c244041201181a4597ca539743a06",
      "blockNumber": 87109,
      "transactionIndex": 0,
      "confirmations": null,
      "from": "0x120A270bbC009644e35F0bB6ab13f95b8199c4ad",
      "gasPrice": {
        "_hex": "0xda41d1611"
      },
      "gasLimit": {
        "_hex": "0x3d090"
      },
      "to": "0xc5623FA5c297c05c2d965A336b2068CfA0e567FA",
      "value": {
        "_hex": "0x18bdef781b3c256800"
      },
      "nonce": 489,
      "data": "0x",
      "r": "0x85f542d6e6afd21ccd465d4aace5495c85448eeaab363e10f0985bc1fc8933a0",
      "s": "0x67c2b2913b0ce229b0261e76b5df2a180fd7d3a49a2def0d522e904ce78fe8b2",
      "v": 27,
      "creates": null,
      "raw": "0xf8708201e9850da41d16118303d09094c5623fa5c297c05c2d965a336b2068cfa0e567fa8918bdef781b3c256800801ba085f542d6e6afd21ccd465d4aace5495c85448eeaab363e10f0985bc1fc8933a0a067c2b2913b0ce229b0261e76b5df2a180fd7d3a49a2def0d522e904ce78fe8b2",
      "networkId": 0,
      "chainId": 0
    }
  ]
}