{
  "hash": "0xd440dd6354b87f5832be6a168875230d1eb2c04de57a3c5ea09ae041310e0c2b",
  "parentHash": "0x4915da9574d6c48b1d23336253868552e16e414bc9911a2268df6a1f946027ea",
  "number": 84626,
  "timestamp": 1439552295,
  "nonce": "0x940714792cb064da",
  "difficulty": 2589036457780,
  "gasLimit": {
    "_hex": "0x2fefd8"
  },
  "gasUsed": {
    "_hex": "0x5208"
  },
  "miner": "0x0037ce3d4B7f8729C8607D8D0248252Be68202c0",
  "extraData": "0x476574682f76312e302e312f77696e646f77732f676f312e342e32",
  "transactions": [
    {
      "hash": "0xd73c6b0d0f2aaea86be4433992158a410e8e68972799260c44b8003d01cf13e2",
      "blockHash": "0xd440dd6354b87f5832be6a168875230d1eb2c04de57a3c5ea09ae041310e0c2b",
      "blockNumber": 84626,
      "transactionIndex": 0,
      "confirmations": null,
      "from": "0xd66B9E119281Ea5e76738595171c3689050FF697",
      "gasPrice": {
        "_hex": "0xd819ff629"
      },
      "gasLimit": {
        "_hex": "0x5208"
      },
      "to": "0x32Be343B94f860124dC4fEe278FDCBD38C102D88",
      "value": {
        "_hex": "0x10f0cec057564500000"
      },
      "nonce": 0,
      "data": "0x",
      "r": "0xc366dd0c2052d00b1f8199f8fb1af7c5f90850ef2a76e9f1abb595e5af0f7f32",
      "s": "0x6723ba1005ffeb71e86b01c5415f91d928448d2cf77208a8bcecc71e03bf1612",
      "v": 28,
      "creates": null,
      "raw": "0xf86e80850d819ff6298252089432be343b94f860124dc4fee278fdcbd38c102d888a010f0cec057564500000801ca0c366dd0c2052d00b1f8199f8fb1af7c5f90850ef2a76e9f1abb595e5af0f7f32a06723ba1005ffeb71e86b01c5415f91d928448d2cf77208a8bcecc71e03bf1612",
      "networkId": 0,
      "chainId": 0
    }
  ]
}