{
  "hash": "0x620df2606810ac5a2504d8bd40eb2473c6cbe489167a4f218e0c3b0b70259d7d",
  "parentHash": "0xb4c392ce32e830c8615835add1c4752d3fc028ce40df1a7524b76b54818f2b9f",
  "number": 55343,
  "timestamp": 1439069200,
  "nonce": "0x072f300dd2585cdc",
  "difficulty": 1628226515797,
  "gasLimit": {
    "_hex": "0x2fefd8"
  },
  "gasUsed": {
    "_hex": "0xdda24"
  },
  "miner": "0x77e41B4125b7c14757e0f07fE36b2E95db757a10",
  "extraData": "0x",
  "transactions": [
    {
      "hash": "0x86c6b116ed896f86476dba0ae0e21450607336bc788a0edc4565c76f27a2f231",
      "blockHash": "0x620df2606810ac5a2504d8bd40eb2473c6cbe489167a4f218e0c3b0b70259d7d",
      "blockNumber": 55343,
      "transactionIndex": 0,
      "confirmations": null,
      "from": "0x0ae3F81a67725a8A7758FeB8684c6c17dA20755D",
      "gasPrice": {
        "_hex": "0xdb72ee6c6"
      },
      "gasLimit": {
        "_hex": "0x1e8480"
      },
      "to": "0x109C4f2CCc82C4d77Bde15F306707320294Aea3F",
      "value": {
        "_hex": "0xde0b6b3a7640000"
      },
      "nonce": 142,
      "data": "0x",
      "r": "0x9f40fb31155f04844ba1f7f2c3ec33af4b073012713d581d9e2a3c2f44c40b9e",
      "s": "0x05f157ed82c6aa64d7ef2e6d9ba533cb90d5d386ed23b51b0168c50639b352b2",
      "v": 28,
      "creates": null,
      "raw": "0xf86e818e850db72ee6c6831e848094109c4f2ccc82c4d77bde15f306707320294aea3f880de0b6b3a7640000801ca09f40fb31155f04844ba1f7f2c3ec33af4b073012713d581d9e2a3c2f44c40b9ea005f157ed82c6aa64d7ef2e6d9ba533cb90d5d386ed23b51b0168c50639b352b2",
      "networkId": 0,
      "chainId": 0
    },
    {
      "hash": "0x245915d4af37bd3a358ac53847ff471093fa0f704f10d7f52bd921d881e2b3f8",
      "blockHash": "0x620df2606810ac5a2504d8bd40eb2473c6cbe489167a4f218e0c3b0b70259d7d",
      "blockNumber": 55343,
      "transactionIndex": 1,
      "confirmations": null,
      "from": "0xc70bA22fe446A85A247bf85BaD1AdDf3ddaF62E9",
      "gasPrice": {
        "_hex": "0xd7d40ace3"
      },
      "gasLimit": {
        "_hex": "0x7a120"
      },
      "to": "0x109C4f2CCc82C4d77Bde15F306707320294Aea3F",
      "value": {
        "_hex": "0xde0b6b3a7640000"
      },
      "nonce": 6,
      "data": "0x",
      "r": "0x978dfa89e4b5952a9af58633fa41e8ce890c4e798054fbbe0a78a30db52752a3",
      "s": "0x177d81c2e67cc9604a5ce042944644d34978064e766e88bfa20bbff1576eb21d",
      "v": 27,
      "creates": null,
      "raw": "0xf86d06850d7d40ace38307a12094109c4f2ccc82c4d77bde15f306707320294aea3f880de0b6b3a7640000801ba0978dfa89e4b5952a9af58633fa41e8ce890c4e798054fbbe0a78a30db52752a3a0177d81c2e67cc9604a5ce042944644d34978064e766e88bfa20bbff1576eb21d",
      "networkId": 0,
      "chainId": 0
    },
    {
      "hash": "0x65f1df0e3e6beb365297ba3b532c69e4a0b02c439511d03439fc3ceee81b0012",
      "blockHash": "0x620df2606810ac5a2504d8bd40eb2473c6cbe489167a4f218e0c3b0b70259d7d",
      "blockNumber": 55343,
      "transactionIndex": 2,
      "confirmations": null,
      "from": "0x0B12c5618eB8bfc23b8893780f1100D1B668639A",
      "gasPrice": {
        "_hex": "0xba43b7400"
      },
      "gasLimit": {
        "_hex": "0x5208"
      },
      "to": "0x88a8FC7A629479C643DDEBfaE0882637AAB71a93",
      "value": {
        "_hex": "0x10f0cf064dd59200000"
      },
      "nonce": 5,
      "data": "0x",
      "r": "0x494356eadc066e7401941caa5e7bfca7ea746f4569f2b975c03a691cd2a4cd30",
      "s": "0x345663b876ebf91422f22aa589a8767abe86a38be2cf5d43a05df8dc09fa073c",
      "v": 28,
      "creates": null,
      "raw": "0xf86e05850ba43b74008252089488a8fc7a629479c643ddebfae0882637aab71a938a010f0cf064dd59200000801ca0494356eadc066e7401941caa5e7bfca7ea746f4569f2b975c03a691cd2a4cd30a0345663b876ebf91422f22aa589a8767abe86a38be2cf5d43a05df8dc09fa073c",
      "networkId": 0,
      "chainId": 0
    }
  ]
}