{
  "hash": "0xe3321dd8a8d5f95af93eb43d90ddf3536327ec51b4a5a6504bfad94aa1dff5b4",
  "parentHash": "0x195288d97c1a177c1a85a2748702d6663937dd667f5b8e471e5bddf36fafd14d",
  "number": 104305,
  "timestamp": 1439867664,
  "nonce": "0x6a671bcf1c76f8d3",
  "difficulty": 4281532457545,
  "gasLimit": {
    "_hex": "0x2fefd8"
  },
  "gasUsed": {
    "_hex": "0x5208"
  },
  "miner": "0xEF247E639d49461D25F57e9362CadE3120910Ce0",
  "extraData": "0x476574682f76312e302e312f6c696e75782f676f312e342e32",
  "transactions": [
    {
      "hash": "0x961132e18dde7226212c0dbf3b67deb06dcc84306446627a9384c257eb73d067",
      "blockHash": "0xe3321dd8a8d5f95af93eb43d90ddf3536327ec51b4a5a6504bfad94aa1dff5b4",
      "blockNumber": 104305,
      "transactionIndex": 0,
      "confirmations": null,
      "from": "0xcf00A85f3826941e7A25BFcF9Aac575d40410852",
      "gasPrice": {
        "_hex": "0xcb5bea614"
      },
      "gasLimit": {
        "_hex": "0x15f90"
      },
      "to": "0xD9666150A9dA92d9108198a4072970805a8B3428",
      "value": {
        "_hex": "0x4563918244f40000"
      },
      "nonce": 54,
      "data": "0x",
      "r": "0x7addee13aaa57defe99847052b1dd2f0abdca6aa8b01a54e8dbe84c3f514e728",
      "s": "0x159fe83c425655278ccf4e5fb47bc36a11db7abe6c8f780fed9cdf422f668268",
      "v": 27,
      "creates": null,
      "raw": "0xf86d36850cb5bea61483015f9094d9666150a9da92d9108198a4072970805a8b3428884563918244f40000801ba07addee13aaa57defe99847052b1dd2f0abdca6aa8b01a54e8dbe84c3f514e728a0159fe83c425655278ccf4e5fb47bc36a11db7abe6c8f780fed9cdf422f668268",
      "networkId": 0,
      "chainId": 0
    }
  ]
}