{
  "hash": "0x22e1115c3c88110044dd78809c97908ceca7f9863dacf6f05c6c6f29b174b492",
  "parentHash": "0x43a957d821e603523d51a041697916578de2712be265dfea9335aeb6a81b90fb",
  "number": 121251,
  "timestamp": 1440173920,
  "nonce": "0xf7bc859183155d78",
  "difficulty": 4421462685623,
  "gasLimit": {
    "_hex": "0x2fefd8"
  },
  "gasUsed": {
    "_hex": "0x5208"
  },
  "miner": "0xe6A7a1d47ff21B6321162AEA7C6CB457D5476Bca",
  "extraData": "0xd783010002844765746887676f312e342e32856c696e7578",
  "transactions": [
    {
      "hash": "0x4ad04bc3be00373b17b011a3b13935a94550c9b111f42021474bbce1f505ce78",
      "blockHash": "0x22e1115c3c88110044dd78809c97908ceca7f9863dacf6f05c6c6f29b174b492",
      "blockNumber": 121251,
      "transactionIndex": 0,
      "confirmations": null,
      "from": "0x120A270bbC009644e35F0bB6ab13f95b8199c4ad",
      "gasPrice": {
        "_hex": "0xba43b7400"
      },
      "gasLimit": {
        "_hex": "0x15f90"
      },
      "to": "0xCA092A957744f6385B1aee5dC694143E8A06F805",
      "value": {
        "_hex": "0x6f05b59d3b20000"
      },
      "nonce": 967,
      "data": "0x",
      "r": "0x17a5a3537c4c8e01d4895a20d4ffea18f531225260b2dff2f531024b3f04e385",
      "s": "0x0b4d993a500c7ca90ecb0b8e76d664153d93381c821d8f1e5773b0b94dc4d8cb",
      "v": 28,
      "creates": null,
      "raw": "0xf86f8203c7850ba43b740083015f9094ca092a957744f6385b1aee5dc694143e8a06f8058806f05b59d3b20000801ca017a5a3537c4c8e01d4895a20d4ffea18f531225260b2dff2f531024b3f04e385a00b4d993a500c7ca90ecb0b8e76d664153d93381c821d8f1e5773b0b94dc4d8cb",
      "networkId": 0,
      "chainId": 0
    }
  ]
}