{
  "hash": "0x483d34d4409ac24193f80f4897f532c9d85512fd98c4ea53fe43d51393a63647",
  "parentHash": "0xbabddde3c1ca2f2ab787aa5dd22a814b7e7fc53822af570d2fc1558c7a40b027",
  "number": 122038,
  "timestamp": 1440187031,
  "nonce": "0xc94f6c78157415d5",
  "difficulty": 4470978183189,
  "gasLimit": {
    "_hex": "0x2fefd8"
  },
  "gasUsed": {
    "_hex": "0x5208"
  },
  "miner": "0x17B719A685fC6C0002798e7f8151D0E2E83B7497",
  "extraData": "0x",
  "transactions": [
    {
      "hash": "0x6680a1ad125296c1e2fd801a5837d7411f59f8ec6286cbce23ab059677fe9004",
      "blockHash": "0x483d34d4409ac24193f80f4897f532c9d85512fd98c4ea53fe43d51393a63647",
      "blockNumber": 122038,
      "transactionIndex": 0,
      "confirmations": null,
      "from": "0xE300c4587D260cE22a677755Db6429B491A4309E",
      "gasPrice": {
        "_hex": "0xba43b7400"
      },
      "gasLimit": {
        "_hex": "0x15f90"
      },
      "to": "0x28e44357aa686897cd4A46125e239497723aC38b",
      "value": {
        "_hex": "0x6c28f654fa3360000"
      },
      "nonce": 28,
      "data": "0x",
      "r": "0xa6c33da2f0c4be2f467e984cbc2c6be4fe9897b83795561cefa337abdc91de3d",
      "s": "0x515593aa32214e15ba8bc8c1d52227fee21f7f571bfdfb066a1b98f5f64fbc5e",
      "v": 27,
      "creates": null,
      "raw": "0xf86e1c850ba43b740083015f909428e44357aa686897cd4a46125e239497723ac38b8906c28f654fa3360000801ba0a6c33da2f0c4be2f467e984cbc2c6be4fe9897b83795561cefa337abdc91de3da0515593aa32214e15ba8bc8c1d52227fee21f7f571bfdfb066a1b98f5f64fbc5e",
      "networkId": 0,
      "chainId": 0
    }
  ]
}