{
  "hash": "0x9ff4539edab65728f2420e99e83345fbcbdc8ec2d4d36796c9722d6e468a9762",
  "parentHash": "0x2563b78fdfbbece824e623a85882fb3bc6795ac43d044c4e2f820d64a7724bc1",
  "number": 107647,
  "timestamp": 1439926139,
  "nonce": "0x56869e4581513512",
  "difficulty": 4394174948314,
  "gasLimit": {
    "_hex": "0x2fefd8"
  },
  "gasUsed": {
    "_hex": "0x5208"
  },
  "miner": "0xe6A7a1d47ff21B6321162AEA7C6CB457D5476Bca",
  "extraData": "0x476574682f76312e302e312d38326566323666362f6c696e75782f676f312e34",
  "transactions": [
    {
      "hash": "0x1f6329effe65a105c5b8ead3dced31676cee291c335fcc719c0aa6dcb7f01967",
      "blockHash": "0x9ff4539edab65728f2420e99e83345fbcbdc8ec2d4d36796c9722d6e468a9762",
      "blockNumber": 107647,
      "transactionIndex": 0,
      "confirmations": null,
      "from": "0x790b8a3cE86E707ED0eD32bF89B3269692a23CC1",
      "gasPrice": {
        "_hex": "0xcfcd279c9"
      },
      "gasLimit": {
        "_hex": "0x15f90"
      },
      "to": "0x4D67f4F0Db45b3B5a3424B39ed8d972F710381D5",
      "value": {
        "_hex": "0x33f478ca2dde60000"
      },
      "nonce": 40,
      "data": "0x",
      "r": "0x184ceed4da024198ca3808a2e812ea52fa3e29bca27b781118bb4821fe0ae803",
      "s": "0x5ea85a10b795de123ce8220b018c9138ff439bfc7b47e97976a2d8a05fd554fd",
      "v": 28,
      "creates": null,
      "raw": "0xf86e28850cfcd279c983015f90944d67f4f0db45b3b5a3424b39ed8d972f710381d589033f478ca2dde60000801ca0184ceed4da024198ca3808a2e812ea52fa3e29bca27b781118bb4821fe0ae803a05ea85a10b795de123ce8220b018c9138ff439bfc7b47e97976a2d8a05fd554fd",
      "networkId": 0,
      "chainId": 0
    }
  ]
}