{
  "hash": "0xf8f9bdb8c744c16201043394777a94db81bad6b7efb64255ce17561164306b18",
  "parentHash": "0x0191c7d69ff1e7bc395bb86e3a11628e6ab7442dec0ea23b8fe5c107c62aa0dc",
  "number": 50340,
  "timestamp": 1438987597,
  "nonce": "0xd57a7e57f29f8c95",
  "difficulty": 1508970510537,
  "gasLimit": {
    "_hex": "0x5cebc"
  },
  "gasUsed": {
    "_hex": "0x5208"
  },
  "miner": "0xf8E0CA3Ed80bd541b94BEdCf259e8CF2141A9523",
  "extraData": "0x476574682f76312e302e312f77696e646f77732f676f312e342e32",
  "transactions": [
    {
      "hash": "0xd65494262491b4ad75e639fcf02d56a2f64f886945d9987c1c439e0f25a98e7c",
      "blockHash": "0xf8f9bdb8c744c16201043394777a94db81bad6b7efb64255ce17561164306b18",
      "blockNumber": 50340,
      "transactionIndex": 0,
      "confirmations": null,
      "from": "0x6ACDDca3cd2B4990E25CD65c24149D0912099e79",
      "gasPrice": {
        "_hex": "0xd3e3c10ae"
      },
      "gasLimit": {
        "_hex": "0x5208"
      },
      "to": "0x5CB4A151541Fcd1f86244DDE8d78Ede47535BeC3",
      "value": {
        "_hex": "0xa2937c529df47c0000"
      },
      "nonce": 0,
      "data": "0x",
      "r": "0xbdc3c54093b851c6a1d0af2ddd56ad42a59e42a305bf8e85f7074b7f8ef58051",
      "s": "0x3a2bb3b764a59923599448b657ad45ff097a7280039db9dcba277bd1fd0a6280",
      "v": 27,
      "creates": null,
      "raw": "0xf86d80850d3e3c10ae825208945cb4a151541fcd1f86244dde8d78ede47535bec389a2937c529df47c0000801ba0bdc3c54093b851c6a1d0af2ddd56ad42a59e42a305bf8e85f7074b7f8ef58051a03a2bb3b764a59923599448b657ad45ff097a7280039db9dcba277bd1fd0a6280",
      "networkId": 0,
      "chainId": 0
    }
  ]
}