{
  "hash": "0xb34333f212e41470cbe9063d387a2fd4b2583e04e066ad44f18b7c92d1d70b1f",
  "parentHash": "0x86bdeb391ac53183fed44e63932c0aef0090e5ccdb51016f7e9212fde72a64ac",
  "number": 74310,
  "timestamp": 1439384074,
  "nonce": "0xa2019a767888229c",
  "difficulty": 2210758889706,
  "gasLimit": {
    "_hex": "0x2fefd5"
  },
  "gasUsed": {
    "_hex": "0x14820"
  },
  "miner": "0xC603Ab5ef41fC61AA8b76bEddb09e3Cfcbb174BD",
  "extraData": "0x476574682f76312e302e312f77696e646f77732f676f312e342e32",
  "transactions": [
    {
      "hash": "0x642dc8ffcc9ae809e6b1a6027a06c2ae8bea2b4de022132e1d4f5f45d9e77bc9",
      "blockHash": "0xb34333f212e41470cbe9063d387a2fd4b2583e04e066ad44f18b7c92d1d70b1f",
      "blockNumber": 74310,
      "transactionIndex": 0,
      "confirmations": null,
      "from": "0xe6A7a1d47ff21B6321162AEA7C6CB457D5476Bca",
      "gasPrice": {
        "_hex": "0xd3480667a"
      },
      "gasLimit": {
        "_hex": "0x55f0"
      },
      "to": "0xb71F25995CC5De7A465fB37688126E07654Fa662",
      "value": {
        "_hex": "0x33de1c196703aa80"
      },
      "nonce": 996,
      "data": "0x",
      "r": "0x43c0403bba41109e5170e64540260b4f479cf791e0d1b3e8c1bb8bf586d26da3",
      "s": "0x1d1f5a0174b4dd0382562bc2a803f59b05a3a78ed1105d6373570bfb4be7f910",
      "v": 27,
      "creates": null,
      "raw": "0xf86e8203e4850d3480667a8255f094b71f25995cc5de7a465fb37688126e07654fa6628833de1c196703aa80801ba043c0403bba41109e5170e64540260b4f479cf791e0d1b3e8c1bb8bf586d26da3a01d1f5a0174b4dd0382562bc2a803f59b05a3a78ed1105d6373570bfb4be7f910",
      "networkId": 0,
      "chainId": 0
    },
    {
      "hash": "0xcca941cc765bd1ca843279d366cb52f532ada44acf917665d13a19b37105b34a",
      "blockHash": "0xb34333f212e41470cbe9063d387a2fd4b2583e04e066ad44f18b7c92d1d70b1f",
      "blockNumber": 74310,
      "transactionIndex": 1,
      "confirmations": null,
      "from": "0xe6A7a1d47ff21B6321162AEA7C6CB457D5476Bca",
      "gasPrice": {
        "_hex": "0xd3480667a"
      },
      "gasLimit": {
        "_hex": "0x55f0"
      },
      "to": "0x03B35D960c861Fe987C50380d76db9D6Ae1fa510",
      "value": {
        "_hex": "0x5528886454e08828"
      },
      "nonce": 997,
      "data": "0x",
      "r": "0xb07a02405216025022d87fa20a1c6ddb9feec445818f5fbd74a7eca14664b0aa",
      "s": "0x7a50da767c54d0fb2e49562a07b18fc9c4569af501031eb50b030eb0e120d92a",
      "v": 27,
      "creates": null,
      "raw": "0xf86e8203e5850d3480667a8255f09403b35d960c861fe987c50380d76db9d6ae1fa510885528886454e08828801ba0b07a02405216025022d87fa20a1c6ddb9feec445818f5fbd74a7eca14664b0aaa07a50da767c54d0fb2e49562a07b18fc9c4569af501031eb50b030eb0e120d92a",
      "networkId": 0,
      "chainId": 0
    },
    {
      "hash": "0x5ce55af1fb81adc814324a70fa3185f1cc0c7bdf547d899978840a045166ca4e",
      "blockHash": "0xb34333f212e41470cbe9063d387a2fd4b2583e04e066ad44f18b7c92d1d70b1f",
      "blockNumber": 74310,
      "transactionIndex": 2,
      "confirmations": null,
      "from": "0xe6A7a1d47ff21B6321162AEA7C6CB457D5476Bca",
      "gasPrice": {
        "_hex": "0xd3480667a"
      },
      "gasLimit": {
        "_hex": "0x55f0"
      },
      "to": "0x0912001e29BbaF75C23069A22D9B9602BE86FEB7",
      "value": {
        "_hex": "0x9f8133528284af480"
      },
      "nonce": 998,
      "data": "0x",
      "r": "0xe1d97f8b053db8fe8cc8a408dacf4b62fd7c0f8e196656c75387c14f6b69d4d6",
      "s": "0x250cfc916c238be96449800b9c9c0da56411ec8928480f77d786cf52502bcfaf",
      "v": 28,
      "creates": null,
      "raw": "0xf86f8203e6850d3480667a8255f0940912001e29bbaf75c23069a22d9b9602be86feb78909f8133528284af480801ca0e1d97f8b053db8fe8cc8a408dacf4b62fd7c0f8e196656c75387c14f6b69d4d6a0250cfc916c238be96449800b9c9c0da56411ec8928480f77d786cf52502bcfaf",
      "networkId": 0,
      "chainId": 0
    },
    {
      "hash": "0x67111ad11f0a1039ad22cd6f4183ff020afd1098a2c6661a5658e2bd0284044f",
      "blockHash": "0xb34333f212e41470cbe9063d387a2fd4b2583e04e066ad44f18b7c92d1d70b1f",
      "blockNumber": 74310,
      "transactionIndex": 3,
      "confirmations": null,
      "from": "0xC99478b218E58F45783fA70f0507cf614938E67d",
      "gasPrice": {
        "_hex": "0xd1f217cbf"
      },
      "gasLimit": {
        "_hex": "0x15f90"
      },
      "to": "0xC3fe64D1af00F0d9c324E4387EF7533f7D788e95",
      "value": {
        "_hex": "0x3b53d9d99ecb80000"
      },
      "nonce": 11,
      "data": "0x",
      "r": "0xeeed2f762622296c192beee54aa6584f447f45b5837369588a9b322c96ef0be3",
      "s": "0x0de7998a6d8c2ac68c4ac2342b6557a84dc078cbe0dbdd5604da5eb04266bd5c",
      "v": 28,
      "creates": null,
      "raw": "0xf86e0b850d1f217cbf83015f9094c3fe64d1af00f0d9c324e4387ef7533f7d788e958903b53d9d99ecb80000801ca0eeed2f762622296c192beee54aa6584f447f45b5837369588a9b322c96ef0be3a00de7998a6d8c2ac68c4ac2342b6557a84dc078cbe0dbdd5604da5eb04266bd5c",
      "networkId": 0,
      "chainId": 0
    }
  ]
}