{
  "hash": "0x289eef5eeca19cbbc5da2300530177522361e75fbae9593bf8323acadb7d9db6",
  "parentHash": "0x4460192cda439da4f7b9f26f62fe6625a5ebc7ef334b9c0512be18b5192174e2",
  "number": 106125,
  "timestamp": 1439899046,
  "nonce": "0x0b54ad0015f60997",
  "difficulty": 4464183032920,
  "gasLimit": {
    "_hex": "0x2fefd8"
  },
  "gasUsed": {
    "_hex": "0x5208"
  },
  "miner": "0xe6A7a1d47ff21B6321162AEA7C6CB457D5476Bca",
  "extraData": "0x476574682f76312e302e312d38326566323666362f6c696e75782f676f312e34",
  "transactions": [
    {
      "hash": "0xed14d0ae5b4b0a5ea68edf8ba8aedd356adad95854874c813a00330f188e81ad",
      "blockHash": "0x289eef5eeca19cbbc5da2300530177522361e75fbae9593bf8323acadb7d9db6",
      "blockNumber": 106125,
      "transactionIndex": 0,
      "confirmations": null,
      "from": "0x556ca325C21e450b2aFf86D9c8eF0Fa371971c97",
      "gasPrice": {
        "_hex": "0xe02b4e3cf"
      },
      "gasLimit": {
        "_hex": "0x5208"
      },
      "to": "0x32Be343B94f860124dC4fEe278FDCBD38C102D88",
      "value": {
        "_hex": "0x5889896b0bd4800"
      },
      "nonce": 18,
      "data": "0x",
      "r": "0x726ab2c3773d560d626461cfd2e6226556fc910022f3f9f146d98664f204934b",
      "s": "0x2558332cebfcbb1ce4bff1da8d5f5c138166ec6193dd467d27383c5bf66fe97b",
      "v": 27,
      "creates": null,
      "raw": "0xf86c12850e02b4e3cf8252089432be343b94f860124dc4fee278fdcbd38c102d888805889896b0bd4800801ba0726ab2c3773d560d626461cfd2e6226556fc910022f3f9f146d98664f204934ba02558332cebfcbb1ce4bff1da8d5f5c138166ec6193dd467d27383c5bf66fe97b",
      "networkId": 0,
      "chainId": 0
    }
  ]
}