{
  "hash": "0x15398bbb9728ec1b08d3a1f7b085784b14a511e6c8b07b7cbc0c334dd925d613",
  "parentHash": "0x58604c769bd80768c10619329650653667ba3ce8a84aa814131807bd5d21f3d9",
  "number": 80367,
  "timestamp": 1439484667,
  "nonce": "0xf183c3ef95ada693",
  "difficulty": 2378200880814,
  "gasLimit": {
    "_hex": "0x2fefd8"
  },
  "gasUsed": {
    "_hex": "0x5208"
  },
  "miner": "0xa50ec0D39fa913E62f1Bae7074E6F36caA71855b",
  "extraData": "0xd783010001844765746887676f312e342e32856c696e7578",
  "transactions": [
    {
      "hash": "0xf1b16526d9b849431d0c2b6470541ada45b89fe4b1eab63cc538ff94af892214",
      "blockHash": "0x15398bbb9728ec1b08d3a1f7b085784b14a511e6c8b07b7cbc0c334dd925d613",
      "blockNumber": 80367,
      "transactionIndex": 0,
      "confirmations": null,
      "from": "0xC082e3b83D604198A8FdBEDc8E6C9BF7d2D7bF2B",
      "gasPrice": {
        "_hex": "0xba43b7400"
      },
      "gasLimit": {
        "_hex": "0x5208"
      },
      "to": "0xC47Aaa860008be6f65B58c6C6E02a84e666EfE31",
      "value": {
        "_hex": "0x6eca061a6ae6000"
      },
      "nonce": 0,
      "data": "0x",
      "r": "0xd95c2aed46622b2d73639ea33f159d6dc691a3b76f22621ede017d2ed2935d6d",
      "s": "0x3f053c184a706b9b5cc82acf7001a491a57c3e5f6f3f6bb2dc441fef334cbc48",
      "v": 27,
      "creates": null,
      "raw": "0xf86c80850ba43b740082520894c47aaa860008be6f65b58c6c6e02a84e666efe318806eca061a6ae6000801ba0d95c2aed46622b2d73639ea33f159d6dc691a3b76f22621ede017d2ed2935d6da03f053c184a706b9b5cc82acf7001a491a57c3e5f6f3f6bb2dc441fef334cbc48",
      "networkId": 0,
      "chainId": 0
    }
  ]
}