{
  "hash": "0x41a296bae1431133e3632c72f0da62e72f6043a1ee85993b4328d03311c99570",
  "parentHash": "0x7ec5cbe9b449f6ea30b17f6869ee1c4ae1fe15a2adb06d646581e7cdf139ce64",
  "number": 76758,
  "timestamp": 1439425662,
  "nonce": "0x3f554838492df14f",
  "difficulty": 2240537734914,
  "gasLimit": {
    "_hex": "0x2fefd8"
  },
  "gasUsed": {
    "_hex": "0xe1a7"
  },
  "miner": "0xe6A7a1d47ff21B6321162AEA7C6CB457D5476Bca",
  "extraData": "0x476574682f76312e302e312d38326566323666362f6c696e75782f676f312e34",
  "transactions": [
    {
      "hash": "0x77aa6457c411c767a58437d681590b1f8f6dc4c0ccb14e6c4078b55ddbec0d91",
      "blockHash": "0x41a296bae1431133e3632c72f0da62e72f6043a1ee85993b4328d03311c99570",
      "blockNumber": 76758,
      "transactionIndex": 0,
      "confirmations": null,
      "from": "0x120A270bbC009644e35F0bB6ab13f95b8199c4ad",
      "gasPrice": {
        "_hex": "0xdabd1f9fd"
      },
      "gasLimit": {
        "_hex": "0x3d090"
      },
      "to": "0xb7b6e8868e3DfCD6C7EC726C4fda236266841c8C",
      "value": {
        "_hex": "0x1be4a5c52d3a000"
      },
      "nonce": 315,
      "data": "0x",
      "r": "0x4564805f9cee01d12602e3adf11771e56e3f26f5f21fcf485ec8affef473c712",
      "s": "0x11f4a9f74df00f5948462e5a0f19a591daaab791ea2669f4b252465b40773117",
      "v": 27,
      "creates": null,
      "raw": "0xf86f82013b850dabd1f9fd8303d09094b7b6e8868e3dfcd6c7ec726c4fda236266841c8c8801be4a5c52d3a000801ba04564805f9cee01d12602e3adf11771e56e3f26f5f21fcf485ec8affef473c712a011f4a9f74df00f5948462e5a0f19a591daaab791ea2669f4b252465b40773117",
      "networkId": 0,
      "chainId": 0
    },
    {
      "hash": "0x2618b49b423aa6d3cd47341daecd07dc317539f242b714660f318f96943d21c7",
      "blockHash": "0x41a296bae1431133e3632c72f0da62e72f6043a1ee85993b4328d03311c99570",
      "blockNumber": 76758,
      "transactionIndex": 1,
      "confirmations": null,
      "from": "0x8Be84A3adfBc51c59023B2413766E229108c35DE",
      "gasPrice": {
        "_hex": "0xcccaef236"
      },
      "gasLimit": {
        "_hex": "0x493e0"
      },
      "to": "0xD79B4C6791784184e2755B2fC1659eaaB0f80456",
      "value": {
        "_hex": "0x29a2241af62c0000"
      },
      "nonce": 12,
      "data": "0x8d21618600000000000000000000000000000000000000000000000000000000000000e6dc3b87c068fb30571d6d6f69bf4042d1b332c8d9f5877605289fd9c293a2ffd1",
      "r": "0x18fd9c2078885d3aad5be8511cfce07940060133991d3bf25ef3cc4fb57426df",
      "s": "0x4102661e4bf85fe2731e0ef082f4848352b2c97f5b714cfdc575a5d7c3a1662f",
      "v": 28,
      "creates": null,
      "raw": "0xf8b20c850cccaef236830493e094d79b4c6791784184e2755b2fc1659eaab0f804568829a2241af62c0000b8448d21618600000000000000000000000000000000000000000000000000000000000000e6dc3b87c068fb30571d6d6f69bf4042d1b332c8d9f5877605289fd9c293a2ffd11ca018fd9c2078885d3aad5be8511cfce07940060133991d3bf25ef3cc4fb57426dfa04102661e4bf85fe2731e0ef082f4848352b2c97f5b714cfdc575a5d7c3a1662f",
      "networkId": 0,
      "chainId": 0
    }
  ]
}