{
  "hash": "0x93bcc46d7d9a7c0e3ad6e8a2df3b0b0b560ae9abeb8d7f52e5ab8f8a134b36d5",
  "parentHash": "0x9ade34fd700bb5d933fced4fc9809d56a797456db13a53006853f49f43bb60d9",
  "number": 65815,
  "timestamp": 1439243284,
  "nonce": "0x2b28c0261ab7b778",
  "difficulty": 1950105892351,
  "gasLimit": {
    "_hex": "0x2fe3fa"
  },
  "gasUsed": {
    "_hex": "0x5208"
  },
  "miner": "0x9D49F602b0fdb924Bd63DDE2Bd0907E4A07c63a7",
  "extraData": "0x476574682f76312e302e312f6c696e75782f676f312e342e32",
  "transactions": [
    {
      "hash": "0x696db502e7c44326fd9ddd4ca9bbd872d9eb9d4f42563f6c376024b141aa31d7",
      "blockHash": "0x93bcc46d7d9a7c0e3ad6e8a2df3b0b0b560ae9abeb8d7f52e5ab8f8a134b36d5",
      "blockNumber": 65815,
      "transactionIndex": 0,
      "confirmations": null,
      "from": "0xd6a456c0d46f7a8404f662bBEc6BA7da6252F503",
      "gasPrice": {
        "_hex": "0xe07e84881"
      },
      "gasLimit": {
        "_hex": "0x5208"
      },
      "to": "0x32Be343B94f860124dC4fEe278FDCBD38C102D88",
      "value": {
        "_hex": "0x15af18f9bc0a3e0000"
      },
      "nonce": 1,
      "data": "0x",
      "r": "0x60046d5bf5cbeebd845a3674531d2880d756fac2d2ad75a4da0918f77f3f1531",
      "s": "0x61923acb697d099339b4ac83d602de02e114c2c97685a97f09ae0f2ed65f6d76",
      "v": 28,
      "creates": null,
      "raw": "0xf86d01850e07e848818252089432be343b94f860124dc4fee278fdcbd38c102d888915af18f9bc0a3e0000801ca060046d5bf5cbeebd845a3674531d2880d756fac2d2ad75a4da0918f77f3f1531a061923acb697d099339b4ac83d602de02e114c2c97685a97f09ae0f2ed65f6d76",
      "networkId": 0,
      "chainId": 0
    }
  ]
}