{
  "hash": "0xeabf0b94cba010b21914ef352d89b15f5f1913eb2a4ca1f6ae195f5af6856772",
  "parentHash": "0x6947780884401daba4e8e1297baf587baf407874979790e5aaf58508193d78eb",
  "number": 120109,
  "timestamp": 1440154058,
  "nonce": "0x0c8a7cf72e667fca",
  "difficulty": 4417748336439,
  "gasLimit": {
    "_hex": "0x2fefd8"
  },
  "gasUsed": {
    "_hex": "0x2a2b"
  },
  "miner": "0x790b8a3cE86E707ED0eD32bF89B3269692a23CC1",
  "extraData": "0xd783010002844765746887676f312e342e32856c696e7578",
  "transactions": [
    {
      "hash": "0x4b01a27ab24336825b4ec3d422a37deb3c7806c6e38b261414b6abfd824d82d3",
      "blockHash": "0xeabf0b94cba010b21914ef352d89b15f5f1913eb2a4ca1f6ae195f5af6856772",
      "blockNumber": 120109,
      "transactionIndex": 0,
      "confirmations": null,
      "from": "0xD007C3Ce0bFCFE50559e15a3737C236f8Fa15BbE",
      "gasPrice": {
        "_hex": "0xba43b7400"
      },
      "gasLimit": {
        "_hex": "0x15f90"
      },
      "to": "0x8bF35a1D792C29f5DAAdB21a570ec8365Ed6ECDC",
      "value": {
        "_hex": "0x0"
      },
      "nonce": 3,
      "data": "0x41c0e1b5",
      "r": "0x2ff7523178840903d01fe248722699c22d539c845200535e9d8cdf36bfb77274",
      "s": "0x4522ee4025eac41a03f9a57b067ac911db81078375fcd462b8120aa784f39a4a",
      "v": 28,
      "creates": null,
      "raw": "0xf86903850ba43b740083015f90948bf35a1d792c29f5daadb21a570ec8365ed6ecdc808441c0e1b51ca02ff7523178840903d01fe248722699c22d539c845200535e9d8cdf36bfb77274a04522ee4025eac41a03f9a57b067ac911db81078375fcd462b8120aa784f39a4a",
      "networkId": 0,
      "chainId": 0
    }
  ]
}