{
  "hash": "0x37da8121fee351b6a69683cf7460c7f4ac1b94f0574bed3fdae0f5214e801e35",
  "parentHash": "0xd88327e2a10e28604dbf0b436b048ec84c1989bfe5e304c991021ac08c0bbc5e",
  "number": 113079,
  "timestamp": 1440017535,
  "nonce": "0x334a15d445fffc11",
  "difficulty": 4495467852433,
  "gasLimit": {
    "_hex": "0x2fefd8"
  },
  "gasUsed": {
    "_hex": "0x546c"
  },
  "miner": "0xe6A7a1d47ff21B6321162AEA7C6CB457D5476Bca",
  "extraData": "0x476574682f76312e302e312d38326566323666362f6c696e75782f676f312e34",
  "transactions": [
    {
      "hash": "0xfa65070fa2159c217fcfafb91ff0755fd39265ae361fc49172c06d8f7a76e68a",
      "blockHash": "0x37da8121fee351b6a69683cf7460c7f4ac1b94f0574bed3fdae0f5214e801e35",
      "blockNumber": 113079,
      "transactionIndex": 0,
      "confirmations": null,
      "from": "0x76d4a9bc9612bE738A81d0fE632b00B971E2bB9a",
      "gasPrice": {
        "_hex": "0xba43b7400"
      },
      "gasLimit": {
        "_hex": "0x55f0"
      },
      "to": "0x2910543Af39abA0Cd09dBb2D50200b3E800A63D2",
      "value": {
        "_hex": "0x3782dace9d900000"
      },
      "nonce": 12,
      "data": "0x454e5a324343504238",
      "r": "0x0895d63df1abe4a37651001cd7ef35d4291861578c6259bf0dc17df0dab23d69",
      "s": "0x1d92c0e37daad1c03d04af6d3137fb46d8cb3f8a2d675673e875bc6f761ca973",
      "v": 28,
      "creates": null,
      "raw": "0xf8750c850ba43b74008255f0942910543af39aba0cd09dbb2d50200b3e800a63d2883782dace9d90000089454e5a3243435042381ca00895d63df1abe4a37651001cd7ef35d4291861578c6259bf0dc17df0dab23d69a01d92c0e37daad1c03d04af6d3137fb46d8cb3f8a2d675673e875bc6f761ca973",
      "networkId": 0,
      "chainId": 0
    }
  ]
}