{
  "hash": "0x1e45e83423805636619a60b65d638872de0e1b4467c4e7c4b5fac95b402b30f9",
  "parentHash": "0x555cd5dd8b28debdb9fb5833f1533fa71f80c801e53659e68d7ddd226d89c19c",
  "number": 52178,
  "timestamp": 1439017537,
  "nonce": "0x49c1545a38612da7",
  "difficulty": 1555009990531,
  "gasLimit": {
    "_hex": "0x10d87b"
  },
  "gasUsed": {
    "_hex": "0x5208"
  },
  "miner": "0xF2d2AfF1320476cb8C6b607199D23175cc595693",
  "extraData": "0x476574682f76312e302e312f77696e646f77732f676f312e342e32",
  "transactions": [
    {
      "hash": "0xfed3d11a67da766eae897b370808550bb20f9398e6d5fe630e4458eb0cb8c5d3",
      "blockHash": "0x1e45e83423805636619a60b65d638872de0e1b4467c4e7c4b5fac95b402b30f9",
      "blockNumber": 52178,
      "transactionIndex": 0,
      "confirmations": null,
      "from": "0x55eeb8fb7dDf70493b2B210204f5134eFb734Fe6",
      "gasPrice": {
        "_hex": "0xd289d6994"
      },
      "gasLimit": {
        "_hex": "0x5208"
      },
      "to": "0x32Be343B94f860124dC4fEe278FDCBD38C102D88",
      "value": {
        "_hex": "0xf4793455ac1000"
      },
      "nonce": 0,
      "data": "0x",
      "r": "0xf8586119031be0278c4acd94132301ead791ac1408e30bdd2e7d34b595f62ed3",
      "s": "0x49dbb5704ca91fd7db450fd25beb301d3c0d61483067188641e271c071f33862",
      "v": 28,
      "creates": null,
      "raw": "0xf86b80850d289d69948252089432be343b94f860124dc4fee278fdcbd38c102d8887f4793455ac1000801ca0f8586119031be0278c4acd94132301ead791ac1408e30bdd2e7d34b595f62ed3a049dbb5704ca91fd7db450fd25beb301d3c0d61483067188641e271c071f33862",
      "networkId": 0,
      "chainId": 0
    }
  ]
}