{
  "hash": "0xf4b10391de344df29c8b75e0bc089b7dd779045a5602a10244046e67f9d88d8c",
  "parentHash": "0x4b22e0b5dc419577666487e63414c3dd668195e4edc498c175fd1b45957764ac",
  "number": 69025,
  "timestamp": 1439297278,
  "nonce": "0x04aa52d15001b7f5",
  "difficulty": 2040917484684,
  "gasLimit": {
    "_hex": "0x2fefd8"
  },
  "gasUsed": {
    "_hex": "0x5208"
  },
  "miner": "0x88D74a59454F6cF3B51ef6b9136AFb6b9D405A88",
  "extraData": "0x476574682f76312e302e312d38326566323666362f6c696e75782f676f312e34",
  "transactions": [
    {
      "hash": "0x95e59881b6929bccba369e8c9e643322cba6c96a9cd0cf106e54ba73d08aefea",
      "blockHash": "0xf4b10391de344df29c8b75e0bc089b7dd779045a5602a10244046e67f9d88d8c",
      "blockNumber": 69025,
      "transactionIndex": 0,
      "confirmations": null,
      "from": "0x6866e5e1FaBB4AbceF3EEb9Ea0d8CD6b52dfC9FF",
      "gasPrice": {
        "_hex": "0xddd8482a3"
      },
      "gasLimit": {
        "_hex": "0x15f90"
      },
      "to": "0x01Ad0ACFf478127D9d702B1A13599D706cB759b1",
      "value": {
        "_hex": "0x8ac7230489e80000"
      },
      "nonce": 7,
      "data": "0x",
      "r": "0x49e24244a270dc4f6743141b3591cd87c224461fe703a24c94dda860bcca5ec8",
      "s": "0x2497f7a3d608462ea1f9bab743aa2f08fee293aadb41dfbc894e1a7daf2ea5d6",
      "v": 28,
      "creates": null,
      "raw": "0xf86d07850ddd8482a383015f909401ad0acff478127d9d702b1a13599d706cb759b1888ac7230489e80000801ca049e24244a270dc4f6743141b3591cd87c224461fe703a24c94dda860bcca5ec8a02497f7a3d608462ea1f9bab743aa2f08fee293aadb41dfbc894e1a7daf2ea5d6",
      "networkId": 0,
      "chainId": 0
    }
  ]
}