{
  "hash": "0x9eb6b1d0452496c0196901fdd2325d6fb432a5fe406276fb81e33f2f403dbb7e",
  "parentHash": "0x97efb3433f8aab10f32ee523a3f537e944630b58ed57216dfed87ff53a4b1aa7",
  "number": 86096,
  "timestamp": 1439573290,
  "nonce": "0xd6e6ebaaf8f56998",
  "difficulty": 2815373476327,
  "gasLimit": {
    "_hex": "0x2fefd8"
  },
  "gasUsed": {
    "_hex": "0x5208"
  },
  "miner": "0xe6A7a1d47ff21B6321162AEA7C6CB457D5476Bca",
  "extraData": "0x476574682f76312e302e312d38326566323666362f6c696e75782f676f312e34",
  "transactions": [
    {
      "hash": "0x2e95ba1e4e9cdad9fd53c7fc2115987b51625a7249baaf928c51ef9feb1290a4",
      "blockHash": "0x9eb6b1d0452496c0196901fdd2325d6fb432a5fe406276fb81e33f2f403dbb7e",
      "blockNumber": 86096,
      "transactionIndex": 0,
      "confirmations": null,
      "from": "0x2910543Af39abA0Cd09dBb2D50200b3E800A63D2",
      "gasPrice": {
        "_hex": "0xd25b6260b"
      },
      "gasLimit": {
        "_hex": "0x5208"
      },
      "to": "0x2aBD9e50d51e97aFc9a984f64657eD9539c59c91",
      "value": {
        "_hex": "0x1a055690d9db800000"
      },
      "nonce": 642,
      "data": "0x",
      "r": "0xf63e9507253d8ca54091472a67bf17c70c66f05c2a29a791f4f55a209c3511ad",
      "s": "0x0f548ca8f9bae14975eb5fa5b2628f36e8c22bd4d227d59920dc786e9e3f360e",
      "v": 28,
      "creates": null,
      "raw": "0xf86f820282850d25b6260b825208942abd9e50d51e97afc9a984f64657ed9539c59c91891a055690d9db800000801ca0f63e9507253d8ca54091472a67bf17c70c66f05c2a29a791f4f55a209c3511ada00f548ca8f9bae14975eb5fa5b2628f36e8c22bd4d227d59920dc786e9e3f360e",
      "networkId": 0,
      "chainId": 0
    }
  ]
}