{
  "hash": "0x27a1c9cda15c37f263cdc3806e6117c1eed8fdba3c2900f1b51f94bb31465ae2",
  "parentHash": "0x0c79ad9b176627cabeb71bd3ffaa9240ffc388b61a17088c0a8f6059829fd2de",
  "number": 101279,
  "timestamp": 1439820392,
  "nonce": "0xb8091d4f4f501d37",
  "difficulty": 3820624542829,
  "gasLimit": {
    "_hex": "0x2fefd8"
  },
  "gasUsed": {
    "_hex": "0xa410"
  },
  "miner": "0x84a2dcC780Ba2Bfdc390077007DE77714793887f",
  "extraData": "0xd983010001844765746887676f312e342e328777696e646f7773",
  "transactions": [
    {
      "hash": "0xe71fcd61b4fd141d338b3c36f85400901da64c08c61e30b06c8307cd9df92667",
      "blockHash": "0x27a1c9cda15c37f263cdc3806e6117c1eed8fdba3c2900f1b51f94bb31465ae2",
      "blockNumber": 101279,
      "transactionIndex": 0,
      "confirmations": null,
      "from": "0x3b01EBd2419f6d39DB6AB4471e6382848716641F",
      "gasPrice": {
        "_hex": "0xdcec6b3d8"
      },
      "gasLimit": {
        "_hex": "0x5208"
      },
      "to": "0x32Be343B94f860124dC4fEe278FDCBD38C102D88",
      "value": {
        "_hex": "0x4be31803e13180000"
      },
      "nonce": 2,
      "data": "0x",
      "r": "0xe4774872c370e097d62cbdd010296d30e60df09b0f672306fd085e9a44ac51c9",
      "s": "0x6e2a246345a2daaae7bb25d3e092d4b023050ada9b6ed34406d975a2c23f8637",
      "v": 28,
      "creates": null,
      "raw": "0xf86d02850dcec6b3d88252089432be343b94f860124dc4fee278fdcbd38c102d888904be31803e13180000801ca0e4774872c370e097d62cbdd010296d30e60df09b0f672306fd085e9a44ac51c9a06e2a246345a2daaae7bb25d3e092d4b023050ada9b6ed34406d975a2c23f8637",
      "networkId": 0,
      "chainId": 0
    },
    {
      "hash": "0xc4d0153fa775231c445b35ac7b8fb2a605627bbe8af5590516277a48ce31ee92",
      "blockHash": "0x27a1c9cda15c37f263cdc3806e6117c1eed8fdba3c2900f1b51f94bb31465ae2",
      "blockNumber": 101279,
      "transactionIndex": 1,
      "confirmations": null,
      "from": "0x89Ea4C778D3f3D6BE70883BB9995D41Bd4c453Ab",
      "gasPrice": {
        "_hex": "0xdcec6b3d8"
      },
      "gasLimit": {
        "_hex": "0x5208"
      },
      "to": "0x32Be343B94f860124dC4fEe278FDCBD38C102D88",
      "value": {
        "_hex": "0x6f013d3e12d61c00"
      },
      "nonce": 4,
      "data": "0x",
      "r": "0x2e5d20f46d9046482d37dd07a3a0e46c6e5d99a0433deb45a1ba13416b1a9d64",
      "s": "0x24128663023f1327c97c81610a4ee54f4ea695160dd06f47540dfb756348c886",
      "v": 27,
      "creates": null,
      "raw": "0xf86c04850dcec6b3d88252089432be343b94f860124dc4fee278fdcbd38c102d88886f013d3e12d61c00801ba02e5d20f46d9046482d37dd07a3a0e46c6e5d99a0433deb45a1ba13416b1a9d64a024128663023f1327c97c81610a4ee54f4ea695160dd06f47540dfb756348c886",
      "networkId": 0,
      "chainId": 0
    }
  ]
}