{
  "hash": "0x23c9c29fe39cf31f243ce8753f5ec838b72ad457b82aef0032bfc4022e8bce11",
  "parentHash": "0xf0edf52c8d0893d948b8c61bbc53a6bbbc1dd97c7149bf60c467d8fe2ef6793a",
  "number": 73628,
  "timestamp": 1439372083,
  "nonce": "0x02730b3b02bcd898",
  "difficulty": 2230456358335,
  "gasLimit": {
    "_hex": "0x2fefd8"
  },
  "gasUsed": {
    "_hex": "0x5208"
  },
  "miner": "0xA1623430350C5df1b52B0b57483A5bb45d1796Da",
  "extraData": "0x476574682f76312e302e312d38326566323666362f6c696e75782f676f312e34",
  "transactions": [
    {
      "hash": "0x4251812fb5498afb201afc5a99df4a547185bff4f9512533b4f879067d10afa9",
      "blockHash": "0x23c9c29fe39cf31f243ce8753f5ec838b72ad457b82aef0032bfc4022e8bce11",
      "blockNumber": 73628,
      "transactionIndex": 0,
      "confirmations": null,
      "from": "0x2910543Af39abA0Cd09dBb2D50200b3E800A63D2",
      "gasPrice": {
        "_hex": "0xd501faa03"
      },
      "gasLimit": {
        "_hex": "0x5208"
      },
      "to": "0xa005900949B552c0d5E109FcDE554C4D979BAc1E",
      "value": {
        "_hex": "0x6c6b819812855f8000"
      },
      "nonce": 288,
      "data": "0x",
      "r": "0x1cc293f719ed2c309fac070563229bf1a63659e2fcda94fbc7fd43c55d763eb9",
      "s": "0x652eec5f678b9b9ab948d537c4d525907d26f596238e80de925755f5e181b719",
      "v": 27,
      "creates": null,
      "raw": "0xf86f820120850d501faa0382520894a005900949b552c0d5e109fcde554c4d979bac1e896c6b819812855f8000801ba01cc293f719ed2c309fac070563229bf1a63659e2fcda94fbc7fd43c55d763eb9a0652eec5f678b9b9ab948d537c4d525907d26f596238e80de925755f5e181b719",
      "networkId": 0,
      "chainId": 0
    }
  ]
}