{
  "hash": "0xbd049320993aa5f75f06129a4a53e5e0da0680a6f158b12e89a8135ec1413bc6",
  "parentHash": "0xfab6ba7bfe48bdacd7136b64e091515d6f4ebaa9ed0cfa06b9037f7f94e9afdf",
  "number": 51987,
  "timestamp": 1439014269,
  "nonce": "0x18aad2addbd6d3ff",
  "difficulty": 1560369587687,
  "gasLimit": {
    "_hex": "0xf8268"
  },
  "gasUsed": {
    "_hex": "0x5208"
  },
  "miner": "0x1D889aFF5D57138c9819412d63b5d877567B5936",
  "extraData": "0x476574682f76312e302e312f77696e646f77732f676f312e342e32",
  "transactions": [
    {
      "hash": "0x4c4797e3307740897936264de4c777cc70a9a4267cff159f0c698b4fa395d27f",
      "blockHash": "0xbd049320993aa5f75f06129a4a53e5e0da0680a6f158b12e89a8135ec1413bc6",
      "blockNumber": 51987,
      "transactionIndex": 0,
      "confirmations": null,
      "from": "0xCd12F20c28FF2fFc4B0a00a4a1DA71749DDEa9fC",
      "gasPrice": {
        "_hex": "0xd31723131"
      },
      "gasLimit": {
        "_hex": "0x5208"
      },
      "to": "0x32Be343B94f860124dC4fEe278FDCBD38C102D88",
      "value": {
        "_hex": "0x56bc323ec90030000"
      },
      "nonce": 0,
      "data": "0x",
      "r": "0x1bb926734127f5fa82cfbb0e9bf515928211ea2646a6ca4b077db8f5251906a0",
      "s": "0x08bd1daa9912ee10cee6723a42399caa502c6237fd7cda00f713b4f4c8928a86",
      "v": 28,
      "creates": null,
      "raw": "0xf86d80850d317231318252089432be343b94f860124dc4fee278fdcbd38c102d8889056bc323ec90030000801ca01bb926734127f5fa82cfbb0e9bf515928211ea2646a6ca4b077db8f5251906a0a008bd1daa9912ee10cee6723a42399caa502c6237fd7cda00f713b4f4c8928a86",
      "networkId": 0,
      "chainId": 0
    }
  ]
}