{
  "hash": "0xa148d2e73b132f654488e6afab30680cb930a0555b4d0647eb350b0c8c697ec4",
  "parentHash": "0xf471a6d06cd08df29184df2349e4f15c6aae5366cc3624693fa6ac3e629cc098",
  "number": 48136,
  "timestamp": 1438952033,
  "nonce": "0x8908d13a630456b9",
  "difficulty": 1465788755441,
  "gasLimit": {
    "_hex": "0x12d9a"
  },
  "gasUsed": {
    "_hex": "0xa8d8"
  },
  "miner": "0x9746c7e1ef2bd21FF3997fa467593a89cb852BD0",
  "extraData": "0x476574682f76312e302e312f77696e646f77732f676f312e342e32",
  "transactions": [
    {
      "hash": "0xf26654362afc06c8d0bc20effc66d04b7a3d4ca83ca9efd86a8a2509613140a6",
      "blockHash": "0xa148d2e73b132f654488e6afab30680cb930a0555b4d0647eb350b0c8c697ec4",
      "blockNumber": 48136,
      "transactionIndex": 0,
      "confirmations": null,
      "from": "0x6C05E34e5Ef2f42Ed09deFF1026cD66BCb6960bb",
      "gasPrice": {
        "_hex": "0x9184e72a000"
      },
      "gasLimit": {
        "_hex": "0x55f0"
      },
      "to": "0x2910543Af39abA0Cd09dBb2D50200b3E800A63D2",
      "value": {
        "_hex": "0x4563918244f40000"
      },
      "nonce": 0,
      "data": "0x454e32383547574138",
      "r": "0x83ada7ad07d5dacbe0932509b1f10f000a2ad73e34e97cc1aa01980708268a34",
      "s": "0x3b194e2aa0f2f6397e4114a631e10e5b133c962eb88c04a71382a256fc63394c",
      "v": 27,
      "creates": null,
      "raw": "0xf876808609184e72a0008255f0942910543af39aba0cd09dbb2d50200b3e800a63d2884563918244f4000089454e323835475741381ba083ada7ad07d5dacbe0932509b1f10f000a2ad73e34e97cc1aa01980708268a34a03b194e2aa0f2f6397e4114a631e10e5b133c962eb88c04a71382a256fc63394c",
      "networkId": 0,
      "chainId": 0
    },
    {
      "hash": "0xb0e439fd3a97577df469bb5b354ba9351f4c7e108e23735c226e975edeedf12d",
      "blockHash": "0xa148d2e73b132f654488e6afab30680cb930a0555b4d0647eb350b0c8c697ec4",
      "blockNumber": 48136,
      "transactionIndex": 1,
      "confirmations": null,
      "from": "0x82f854c9C2F087dFfA985Ac8201E626cA5467686",
      "gasPrice": {
        "_hex": "0x110c8f7d8de"
      },
      "gasLimit": {
        "_hex": "0xc350"
      },
      "to": "0x2910543Af39abA0Cd09dBb2D50200b3E800A63D2",
      "value": {
        "_hex": "0x152ced8c3a662c270000"
      },
      "nonce": 1,
      "data": "0x454e45505744565838",
      "r": "0xbe9799f5d04cff6f5d1104eb35c7405da5737f587ced1a9ce6cffe16ba7cf853",
      "s": "0x0bc4a01eb7087152bb94681baa8bb0ac15c7961f0e0149da664c8c6ad067e02d",
      "v": 28,
      "creates": null,
      "raw": "0xf87801860110c8f7d8de82c350942910543af39aba0cd09dbb2d50200b3e800a63d28a152ced8c3a662c27000089454e455057445658381ca0be9799f5d04cff6f5d1104eb35c7405da5737f587ced1a9ce6cffe16ba7cf853a00bc4a01eb7087152bb94681baa8bb0ac15c7961f0e0149da664c8c6ad067e02d",
      "networkId": 0,
      "chainId": 0
    }
  ]
}