{
  "hash": "0x2d5fb836eb3e8823064e485161aee6ebe58949151fd83c1211d63074cfe24e13",
  "parentHash": "0xe211d1cab3793b35912a008ab64b80b84428f8ef71bbb7b5cfe843d3a6537a34",
  "number": 81814,
  "timestamp": 1439508264,
  "nonce": "0x4e3ba5b8beee1159",
  "difficulty": 2428242801802,
  "gasLimit": {
    "_hex": "0x2fefd8"
  },
  "gasUsed": {
    "_hex": "0x546c"
  },
  "miner": "0x09c5bA982A852b318Fd5F8256832eF6CBfff6aA4",
  "extraData": "0x",
  "transactions": [
    {
      "hash": "0xacfd5ccc63cf0444d339fd4c91557cfdf569ce19c2af4d857e04a1aa449e62c1",
      "blockHash": "0x2d5fb836eb3e8823064e485161aee6ebe58949151fd83c1211d63074cfe24e13",
      "blockNumber": 81814,
      "transactionIndex": 0,
      "confirmations": null,
      "from": "0x4E7aa67E12183Ef9D7468eA28ad239C2eEF71b76",
      "gasPrice": {
        "_hex": "0x110c8f7d8de"
      },
      "gasLimit": {
        "_hex": "0xc350"
      },
      "to": "0x2910543Af39abA0Cd09dBb2D50200b3E800A63D2",
      "value": {
        "_hex": "0x8367576041ab9d0000"
      },
      "nonce": 1,
      "data": "0x454e41315648385247",
      "r": "0x39f0b77ca18cee63d15bb7893b3addeefd994a56f5911fe46c7ff1f6f3bddc96",
      "s": "0xee857ff0315dfdafb2e526aebe51454cf1b0ea11df9c3952323358847a063191",
      "v": 28,
      "creates": null,
      "raw": "0xf87701860110c8f7d8de82c350942910543af39aba0cd09dbb2d50200b3e800a63d2898367576041ab9d000089454e413156483852471ca039f0b77ca18cee63d15bb7893b3addeefd994a56f5911fe46c7ff1f6f3bddc96a0ee857ff0315dfdafb2e526aebe51454cf1b0ea11df9c3952323358847a063191",
      "networkId": 0,
      "chainId": 0
    }
  ]
}