{
  "hash": "0x83b977e0c92a448b02bccb8a8085a1e0f1d2c4a8e8a2915064b45fe585ff64cc",
  "parentHash": "0x3b21f17dec16e90dd4b1b7a679edd0255b421a74bd5e8976eee22ed337842068",
  "number": 83403,
  "timestamp": 1439534852,
  "nonce": "0x7bc60bace3526afc",
  "difficulty": 2424229159505,
  "gasLimit": {
    "_hex": "0x2fefd8"
  },
  "gasUsed": {
    "_hex": "0xa674"
  },
  "miner": "0xf927a40C8B7F6E07c5af7FA2155B4864a4112B13",
  "extraData": "0x",
  "transactions": [
    {
      "hash": "0x50e1f248007bfa0be868497e7c29c3e65676a2a4feefa5ef7f73b7a4ae11b287",
      "blockHash": "0x83b977e0c92a448b02bccb8a8085a1e0f1d2c4a8e8a2915064b45fe585ff64cc",
      "blockNumber": 83403,
      "transactionIndex": 0,
      "confirmations": null,
      "from": "0xADB948B1B6FEFe207de65e9Bbc2de98e605D0b57",
      "gasPrice": {
        "_hex": "0x110c8f7d8de"
      },
      "gasLimit": {
        "_hex": "0xc350"
      },
      "to": "0x2910543Af39abA0Cd09dBb2D50200b3E800A63D2",
      "value": {
        "_hex": "0x3635c9adc5dea00000"
      },
      "nonce": 0,
      "data": "0x454e304438554b5847",
      "r": "0xd651f10763af35c4cf466aaf4da6086e70da7ff6181eac33d07a3b7096589539",
      "s": "0x9fc84cd2e3b010b44ce81cc1e05834664f3b53910fbacde89d58d8e58e10dfd0",
      "v": 28,
      "creates": null,
      "raw": "0xf87780860110c8f7d8de82c350942910543af39aba0cd09dbb2d50200b3e800a63d2893635c9adc5dea0000089454e304438554b58471ca0d651f10763af35c4cf466aaf4da6086e70da7ff6181eac33d07a3b7096589539a09fc84cd2e3b010b44ce81cc1e05834664f3b53910fbacde89d58d8e58e10dfd0",
      "networkId": 0,
      "chainId": 0
    },
    {
      "hash": "0x361026bdd1d27e0a973d3406ab27b7906dbebe2a95ec7fff604182def9e8cdc1",
      "blockHash": "0x83b977e0c92a448b02bccb8a8085a1e0f1d2c4a8e8a2915064b45fe585ff64cc",
      "blockNumber": 83403,
      "transactionIndex": 1,
      "confirmations": null,
      "from": "0x2910543Af39abA0Cd09dBb2D50200b3E800A63D2",
      "gasPrice": {
        "_hex": "0xcfa021fc1"
      },
      "gasLimit": {
        "_hex": "0x5208"
      },
      "to": "0x2514be71B2d397F35A618Eb5d6BA6516a0E0c3a5",
      "value": {
        "_hex": "0xac99c422de6db8000"
      },
      "nonce": 524,
      "data": "0x",
      "r": "0x0c380fc1466c767d5cfb14a693d2170a1ac09c53634637b0c9aa9da2149bd4f4",
      "s": "0x2bd27da8812c5885cba45dfa93fad61f31b2910c98cb8b049470452638f5a5de",
      "v": 27,
      "creates": null,
      "raw": "0xf86f82020c850cfa021fc1825208942514be71b2d397f35a618eb5d6ba6516a0e0c3a5890ac99c422de6db8000801ba00c380fc1466c767d5cfb14a693d2170a1ac09c53634637b0c9aa9da2149bd4f4a02bd27da8812c5885cba45dfa93fad61f31b2910c98cb8b049470452638f5a5de",
      "networkId": 0,
      "chainId": 0
    }
  ]
}