{
  "hash": "0xbb3686256c6684a4e8329e26876a9e317e1ea65d0103a13f9fe1f1ef65f53b97",
  "parentHash": "0xa8159aa1f988f325c5b2a2a4a86bda94edce25f0c800f51b143138927e49b53d",
  "number": 73839,
  "timestamp": 1439375844,
  "nonce": "0x41714d5eedf687f5",
  "difficulty": 2227135459673,
  "gasLimit": {
    "_hex": "0x2fefd8"
  },
  "gasUsed": {
    "_hex": "0xa410"
  },
  "miner": "0xe6A7a1d47ff21B6321162AEA7C6CB457D5476Bca",
  "extraData": "0x476574682f76312e302e312d38326566323666362f6c696e75782f676f312e34",
  "transactions": [
    {
      "hash": "0x6ce9b9d72b79be6f952412b0a9b1006864788b1ab68fa474d80c4db76ea0ab5d",
      "blockHash": "0xbb3686256c6684a4e8329e26876a9e317e1ea65d0103a13f9fe1f1ef65f53b97",
      "blockNumber": 73839,
      "transactionIndex": 0,
      "confirmations": null,
      "from": "0xc2E9e042B88164B5408bd895Df7DdaD491c6321E",
      "gasPrice": {
        "_hex": "0xd17cbc4c1"
      },
      "gasLimit": {
        "_hex": "0x15f90"
      },
      "to": "0xa114c802ef29776f05f9c6925cE915232e8ae102",
      "value": {
        "_hex": "0x4563918244f40000"
      },
      "nonce": 5,
      "data": "0x",
      "r": "0xd79256c4ad024a55ee84312a7bb40279d9a1bd57884318ce5987350f6f0890cf",
      "s": "0x597702d74845994752511813287c5e734a438e60e77bae607fa73f48b987ad3f",
      "v": 28,
      "creates": null,
      "raw": "0xf86d05850d17cbc4c183015f9094a114c802ef29776f05f9c6925ce915232e8ae102884563918244f40000801ca0d79256c4ad024a55ee84312a7bb40279d9a1bd57884318ce5987350f6f0890cfa0597702d74845994752511813287c5e734a438e60e77bae607fa73f48b987ad3f",
      "networkId": 0,
      "chainId": 0
    },
    {
      "hash": "0xd5b16552828c1566fe6c281a21454136a8ddea72330bd5a6b5f9c5ae63e9a525",
      "blockHash": "0xbb3686256c6684a4e8329e26876a9e317e1ea65d0103a13f9fe1f1ef65f53b97",
      "blockNumber": 73839,
      "transactionIndex": 1,
      "confirmations": null,
      "from": "0xECe1152682b7598FE2d1E21eC15533885435Ac85",
      "gasPrice": {
        "_hex": "0xcb7abc2cd"
      },
      "gasLimit": {
        "_hex": "0x15f90"
      },
      "to": "0xe3A29c590ae7Bf0D32A7121373bf5C94ADbeCa4a",
      "value": {
        "_hex": "0xd369fc1371b9e60000"
      },
      "nonce": 1,
      "data": "0x",
      "r": "0xe93f0297b4890549b96252407d89868eb31539012462c0bb7a5b3767f2ddf21c",
      "s": "0x448fa823d3e825eb2995f0c94c9d12a45ec370b4739a488e90fa23f51259fbb8",
      "v": 28,
      "creates": null,
      "raw": "0xf86e01850cb7abc2cd83015f9094e3a29c590ae7bf0d32a7121373bf5c94adbeca4a89d369fc1371b9e60000801ca0e93f0297b4890549b96252407d89868eb31539012462c0bb7a5b3767f2ddf21ca0448fa823d3e825eb2995f0c94c9d12a45ec370b4739a488e90fa23f51259fbb8",
      "networkId": 0,
      "chainId": 0
    }
  ]
}