{
  "hash": "0x8aba9771dba9c15cbc5bcf1407a8fcc8fd44877b9e3d6bfb04b4c1044b726611",
  "parentHash": "0x14f4b56731fe0e382bdb0d4632d5c4c96087b7c292f89b322635fca4e81c56e7",
  "number": 49178,
  "timestamp": 1438969368,
  "nonce": "0x4b555ede31ec4c9f",
  "difficulty": 1475659810823,
  "gasLimit": {
    "_hex": "0x27f5f"
  },
  "gasUsed": {
    "_hex": "0xa410"
  },
  "miner": "0x756C55cbfa47fd23c0260F958e65866E64c096CB",
  "extraData": "0x476574682f76312e302e302f77696e646f77732f676f312e342e32",
  "transactions": [
    {
      "hash": "0xec1adf2ce1f1a3b383606d4a199d0d2da92ef299e223979ccb75bc127784b2dc",
      "blockHash": "0x8aba9771dba9c15cbc5bcf1407a8fcc8fd44877b9e3d6bfb04b4c1044b726611",
      "blockNumber": 49178,
      "transactionIndex": 0,
      "confirmations": null,
      "from": "0x08C9f1bfB689fdf804d769F82123360215aFf93B",
      "gasPrice": {
        "_hex": "0xd28e6b196"
      },
      "gasLimit": {
        "_hex": "0x15f90"
      },
      "to": "0xb14D7F7458c2Ad414B1D07e1e7F71b48b4B2fbf6",
      "value": {
        "_hex": "0x1bc16d674ec80000"
      },
      "nonce": 0,
      "data": "0x",
      "r": "0xa1c680267335bdc21b84e9f671f33c23ebd1ccc4880cc4d4c1ce59b2bf2bb4d3",
      "s": "0x2f04ea888bcf750348aba2d04e7ee3ddc47b505c66669129773faf1ff6951129",
      "v": 28,
      "creates": null,
      "raw": "0xf86d80850d28e6b19683015f9094b14d7f7458c2ad414b1d07e1e7f71b48b4b2fbf6881bc16d674ec80000801ca0a1c680267335bdc21b84e9f671f33c23ebd1ccc4880cc4d4c1ce59b2bf2bb4d3a02f04ea888bcf750348aba2d04e7ee3ddc47b505c66669129773faf1ff6951129",
      "networkId": 0,
      "chainId": 0
    },
    {
      "hash": "0x9b4509d3e077baab4e7b8a29bfaa0eb3839d33cd766bee7d3f89c52da0aa7f79",
      "blockHash": "0x8aba9771dba9c15cbc5bcf1407a8fcc8fd44877b9e3d6bfb04b4c1044b726611",
      "blockNumber": 49178,
      "transactionIndex": 1,
      "confirmations": null,
      "from": "0x6DA3bF9AC75f2892b8C1FB8aDD8d27a199104dE0",
      "gasPrice": {
        "_hex": "0xba43b7400"
      },
      "gasLimit": {
        "_hex": "0x5b04"
      },
      "to": "0xb82415923664590236aea1c1912955E7653B9FCa",
      "value": {
        "_hex": "0xde0b6b3a7640000"
      },
      "nonce": 1,
      "data": "0x",
      "r": "0x4a99ae6092d67f709bbfd7aa0fd1b7732868160898cbdcc3e4c9f43a360dc9bd",
      "s": "0x9d628a9dc6c0e3beb14881241cd4f45e402e5a572988bdc3d491a6da60b5a5c2",
      "v": 28,
      "creates": null,
      "raw": "0xf86c01850ba43b7400825b0494b82415923664590236aea1c1912955e7653b9fca880de0b6b3a7640000801ca04a99ae6092d67f709bbfd7aa0fd1b7732868160898cbdcc3e4c9f43a360dc9bda09d628a9dc6c0e3beb14881241cd4f45e402e5a572988bdc3d491a6da60b5a5c2",
      "networkId": 0,
      "chainId": 0
    }
  ]
}