{
  "hash": "0xa0fcbb9a222fc02125fe78ea1f7f2e0660c67feecb64701496b6e979924bf9c5",
  "parentHash": "0x24d7de817d76e6d221df86f33d96a87f36779a3a835804330b51b7d7be5835c5",
  "number": 82075,
  "timestamp": 1439513155,
  "nonce": "0x869e251d409fa807",
  "difficulty": 2389355042390,
  "gasLimit": {
    "_hex": "0x2fefd8"
  },
  "gasUsed": {
    "_hex": "0xa674"
  },
  "miner": "0xf927a40C8B7F6E07c5af7FA2155B4864a4112B13",
  "extraData": "0x",
  "transactions": [
    {
      "hash": "0xce3639c7655f5d6fd597c9d9055e8190ce5ab824c18fdea536d372940d644e5a",
      "blockHash": "0xa0fcbb9a222fc02125fe78ea1f7f2e0660c67feecb64701496b6e979924bf9c5",
      "blockNumber": 82075,
      "transactionIndex": 0,
      "confirmations": null,
      "from": "0x91F624b24A1FA5A056fe571229E7379db14b9a1E",
      "gasPrice": {
        "_hex": "0x110c8f7d8de"
      },
      "gasLimit": {
        "_hex": "0xc350"
      },
      "to": "0x2910543Af39abA0Cd09dBb2D50200b3E800A63D2",
      "value": {
        "_hex": "0x28a69b2b7df20b80000"
      },
      "nonce": 1,
      "data": "0x454e55564159363430",
      "r": "0xf9731a034f067548cfa9eaa6a727c087de02da0a520f4c5b1b3f24eb01e07380",
      "s": "0x853cae0b0fa7e04e55313a2e2ce9ce8e8057d1565c71aae42b4f2a4c6c99909f",
      "v": 27,
      "creates": null,
      "raw": "0xf87801860110c8f7d8de82c350942910543af39aba0cd09dbb2d50200b3e800a63d28a028a69b2b7df20b8000089454e555641593634301ba0f9731a034f067548cfa9eaa6a727c087de02da0a520f4c5b1b3f24eb01e07380a0853cae0b0fa7e04e55313a2e2ce9ce8e8057d1565c71aae42b4f2a4c6c99909f",
      "networkId": 0,
      "chainId": 0
    },
    {
      "hash": "0x359fb6bbe5b4be37432f7fc747cb1d18aabf690f97029b57ae77faa96c9244aa",
      "blockHash": "0xa0fcbb9a222fc02125fe78ea1f7f2e0660c67feecb64701496b6e979924bf9c5",
      "blockNumber": 82075,
      "transactionIndex": 1,
      "confirmations": null,
      "from": "0x87898CE53471043FcCa0a2aF4E1dC6d8B3fCf607",
      "gasPrice": {
        "_hex": "0xcc843663f"
      },
      "gasLimit": {
        "_hex": "0x5208"
      },
      "to": "0xBFdD9820a04283b289957956353b5F3C1F665EcF",
      "value": {
        "_hex": "0x1e5b8fa8fe2ac0000"
      },
      "nonce": 31,
      "data": "0x",
      "r": "0x159dcffce4af49304cd6d72081df0e4efb87ff5db27a31803498171a3e41f083",
      "s": "0x66711a5508f60f5f2d8a401dffea94764de786678055fc254b5a3290a442e833",
      "v": 27,
      "creates": null,
      "raw": "0xf86d1f850cc843663f82520894bfdd9820a04283b289957956353b5f3c1f665ecf8901e5b8fa8fe2ac0000801ba0159dcffce4af49304cd6d72081df0e4efb87ff5db27a31803498171a3e41f083a066711a5508f60f5f2d8a401dffea94764de786678055fc254b5a3290a442e833",
      "networkId": 0,
      "chainId": 0
    }
  ]
}