{
  "hash": "0xd2e354a9995610899b8809720b715d24d26e2406d595ce49833a3ed0aab704b9",
  "parentHash": "0x7ab945958ef4bea403790ccb0c8a7e4e6e76003685512829b608c3a60f9bb14e",
  "number": 100154,
  "timestamp": 1439801615,
  "nonce": "0xec90071d3cfc0126",
  "difficulty": 3841715865569,
  "gasLimit": {
    "_hex": "0x2fefd8"
  },
  "gasUsed": {
    "_hex": "0x5208"
  },
  "miner": "0xf8E0CA3Ed80bd541b94BEdCf259e8CF2141A9523",
  "extraData": "0x476574682f76312e302e312f77696e646f77732f676f312e342e32",
  "transactions": [
    {
      "hash": "0xf4f50f41fa22e0052856ac6bab44b69beb097be9c5440a3749a22db85447dae4",
      "blockHash": "0xd2e354a9995610899b8809720b715d24d26e2406d595ce49833a3ed0aab704b9",
      "blockNumber": 100154,
      "transactionIndex": 0,
      "confirmations": null,
      "from": "0x60c84CBDBAc16e3cd806520Ab204029D7aab5588",
      "gasPrice": {
        "_hex": "0xcf6e2c877"
      },
      "gasLimit": {
        "_hex": "0x5208"
      },
      "to": "0x32Be343B94f860124dC4fEe278FDCBD38C102D88",
      "value": {
        "_hex": "0x16188d09730e2800"
      },
      "nonce": 3,
      "data": "0x",
      "r": "0xee2f8473745a715f7653f8fa0ace304e5453861b6be5f3a7826594ea818b5509",
      "s": "0x5543085ca5efead6b36f42680e3ed6d401818c74c27db0c55909e3584374487b",
      "v": 27,
      "creates": null,
      "raw": "0xf86c03850cf6e2c8778252089432be343b94f860124dc4fee278fdcbd38c102d888816188d09730e2800801ba0ee2f8473745a715f7653f8fa0ace304e5453861b6be5f3a7826594ea818b5509a05543085ca5efead6b36f42680e3ed6d401818c74c27db0c55909e3584374487b",
      "networkId": 0,
      "chainId": 0
    }
  ]
}