{
  "hash": "0x77480f2864c25013f831bbc6b2e29523d0fb30bb8c3ced4ad90197cdfda1b63f",
  "parentHash": "0x484121fd10f35540cbc54ebc7e308a5aa9cadf8de092c39821cad4fabab668a7",
  "number": 55295,
  "timestamp": 1439068312,
  "nonce": "0x5a2dbe1dc11e4b87",
  "difficulty": 1639404482481,
  "gasLimit": {
    "_hex": "0x2fefd8"
  },
  "gasUsed": {
    "_hex": "0xddfd"
  },
  "miner": "0xbe4532E1B1Db5c913Cf553be76180c1777055403",
  "extraData": "0x476574682f686261722f76312e302e312f6c696e75782f676f312e342e32",
  "transactions": [
    {
      "hash": "0x9ce0b79a8b0c6b8297988ac0d0605b184424e6761b7451936ebace6c48e8384b",
      "blockHash": "0x77480f2864c25013f831bbc6b2e29523d0fb30bb8c3ced4ad90197cdfda1b63f",
      "blockNumber": 55295,
      "transactionIndex": 0,
      "confirmations": null,
      "from": "0x0ae3F81a67725a8A7758FeB8684c6c17dA20755D",
      "gasPrice": {
        "_hex": "0xd2b11c66f"
      },
      "gasLimit": {
        "_hex": "0x1e8480"
      },
      "to": "0xBAA54d6E90c3F4d7Ebec11bD180134C7eD8eBb52",
      "value": {
        "_hex": "0x16345785d8a0000"
      },
      "nonce": 137,
      "data": "0x",
      "r": "0x2e2b3e0b074b7c617ff95d646280e9895adca78f4cf3ba9f84129d4b20cccb4b",
      "s": "0x1d61dc749c92594251c570344e33741623dc092f9ef4278f648167de3613c4b6",
      "v": 27,
      "creates": null,
      "raw": "0xf86e8189850d2b11c66f831e848094baa54d6e90c3f4d7ebec11bd180134c7ed8ebb5288016345785d8a0000801ba02e2b3e0b074b7c617ff95d646280e9895adca78f4cf3ba9f84129d4b20cccb4ba01d61dc749c92594251c570344e33741623dc092f9ef4278f648167de3613c4b6",
      "networkId": 0,
      "chainId": 0
    }
  ]
}