{
  "hash": "0x04e20d32058d0194acedfb32dfaa776ddd3d8fdf824872d7471d4a34ae12f383",
  "parentHash": "0xbbb81c2dd28b1c10f7da6809655ca167246635c01c5d87e7c3aa29ea3c29f18c",
  "number": 98220,
  "timestamp": 1439768988,
  "nonce": "0xb9ef3f0b3f6de3d2",
  "difficulty": 3876523398987,
  "gasLimit": {
    "_hex": "0x2fefd8"
  },
  "gasUsed": {
    "_hex": "0xa410"
  },
  "miner": "0xbb7B8287f3F0a933474a79eAe42CBCa977791171",
  "extraData": "0x476574682f4c5649562f76312e302e312f6c696e75782f676f312e342e32",
  "transactions": [
    {
      "hash": "0x46f1949fbc619f7c39c9cd14e4778a799310e92a20eacfca07664f9b0893566a",
      "blockHash": "0x04e20d32058d0194acedfb32dfaa776ddd3d8fdf824872d7471d4a34ae12f383",
      "blockNumber": 98220,
      "transactionIndex": 0,
      "confirmations": null,
      "from": "0x419bdE7316CC1Ed295c885aCe342C79bf7Ee33eA",
      "gasPrice": {
        "_hex": "0x1002919ab21"
      },
      "gasLimit": {
        "_hex": "0x55f0"
      },
      "to": "0x67A75F5fBBCa0974C961b43E7D62204a4093c1Bb",
      "value": {
        "_hex": "0x4563918244f40000"
      },
      "nonce": 0,
      "data": "0x",
      "r": "0xc5b58e815f07da20d3ced6f25c95d5f7069fb7964cb97565f494c7863ec69968",
      "s": "0x723391632dc37ede1df7960f60856f56f66ea1a6ccec7364df0fdf2f21f5e581",
      "v": 27,
      "creates": null,
      "raw": "0xf86d808601002919ab218255f09467a75f5fbbca0974c961b43e7d62204a4093c1bb884563918244f40000801ba0c5b58e815f07da20d3ced6f25c95d5f7069fb7964cb97565f494c7863ec69968a0723391632dc37ede1df7960f60856f56f66ea1a6ccec7364df0fdf2f21f5e581",
      "networkId": 0,
      "chainId": 0
    },
    {
      "hash": "0xbc168eb785eec1803bbd5733152f55fffd0729509fc4cc5cf00680d8afe31696",
      "blockHash": "0x04e20d32058d0194acedfb32dfaa776ddd3d8fdf824872d7471d4a34ae12f383",
      "blockNumber": 98220,
      "transactionIndex": 1,
      "confirmations": null,
      "from": "0xc597A5d92F5dC1137D847db733cfe02c6d209f13",
      "gasPrice": {
        "_hex": "0xd661da0b1"
      },
      "gasLimit": {
        "_hex": "0x15f90"
      },
      "to": "0x5F28bcc5faFC8982536A9e4be559657998CdE1E3",
      "value": {
        "_hex": "0x12a1dcadb19679000"
      },
      "nonce": 37,
      "data": "0x",
      "r": "0xebf7b1fd15f2aaa9da6bb1cc7ada2604f23eaefcdcb4a5d352f04d49712f9f52",
      "s": "0x446ee00277806053c8097ce252b48b27951f0f575e22531488f6ef4e4a37b29c",
      "v": 27,
      "creates": null,
      "raw": "0xf86e25850d661da0b183015f90945f28bcc5fafc8982536a9e4be559657998cde1e389012a1dcadb19679000801ba0ebf7b1fd15f2aaa9da6bb1cc7ada2604f23eaefcdcb4a5d352f04d49712f9f52a0446ee00277806053c8097ce252b48b27951f0f575e22531488f6ef4e4a37b29c",
      "networkId": 0,
      "chainId": 0
    }
  ]
}