{
  "hash": "0x03759ceb15cadb76dbfde358fc98db11ef8247f0b1d6db6ca7e7f17b97961851",
  "parentHash": "0x090bb6848a6cd6b3a5505b31c967a9af4145c316975e3e76b651ff32ce4fa853",
  "number": 110491,
  "timestamp": 1439974619,
  "nonce": "0x7af98ec9c87e663b",
  "difficulty": 4384114346650,
  "gasLimit": {
    "_hex": "0x2fefd5"
  },
  "gasUsed": {
    "_hex": "0xa410"
  },
  "miner": "0xe6A7a1d47ff21B6321162AEA7C6CB457D5476Bca",
  "extraData": "0x476574682f76312e302e312d38326566323666362f6c696e75782f676f312e34",
  "transactions": [
    {
      "hash": "0xe1a45ae91eef3c73ac62df7e24ae211dd30ace7d2537c0b683624ac0a9075e4c",
      "blockHash": "0x03759ceb15cadb76dbfde358fc98db11ef8247f0b1d6db6ca7e7f17b97961851",
      "blockNumber": 110491,
      "transactionIndex": 0,
      "confirmations": null,
      "from": "0x3B6C409e2ADC909C20B59DF21a7c48F44c259F24",
      "gasPrice": {
        "_hex": "0xde8f906c1"
      },
      "gasLimit": {
        "_hex": "0x5208"
      },
      "to": "0x32Be343B94f860124dC4fEe278FDCBD38C102D88",
      "value": {
        "_hex": "0x81a23a2c84c05800"
      },
      "nonce": 4,
      "data": "0x",
      "r": "0xa228e56f0877397f1fe9f1a5fabd92e51abaccdea636a07d4f951643b421aac1",
      "s": "0x3ecdc75cbdded0ff4c4b29fd952556221d8f01a63b938fe24afa67db8b80d95f",
      "v": 27,
      "creates": null,
      "raw": "0xf86c04850de8f906c18252089432be343b94f860124dc4fee278fdcbd38c102d888881a23a2c84c05800801ba0a228e56f0877397f1fe9f1a5fabd92e51abaccdea636a07d4f951643b421aac1a03ecdc75cbdded0ff4c4b29fd952556221d8f01a63b938fe24afa67db8b80d95f",
      "networkId": 0,
      "chainId": 0
    },
    {
      "hash": "0x69eb989f915a23e26a2883df6abe95f89a7fabad07fa8dc02074ee6c55038320",
      "blockHash": "0x03759ceb15cadb76dbfde358fc98db11ef8247f0b1d6db6ca7e7f17b97961851",
      "blockNumber": 110491,
      "transactionIndex": 1,
      "confirmations": null,
      "from": "0xA270859a7dD7bEF18258BDE4b85Dd3691FdE277D",
      "gasPrice": {
        "_hex": "0xcb7e5368f"
      },
      "gasLimit": {
        "_hex": "0x5208"
      },
      "to": "0x32Be343B94f860124dC4fEe278FDCBD38C102D88",
      "value": {
        "_hex": "0xd7dd299327124000"
      },
      "nonce": 4,
      "data": "0x",
      "r": "0x4bb3005606fc78b1e2930d3dc932e5809f1f6c4c0f0202678a01865fb4f0ec67",
      "s": "0x1a96df043fb87cdca76ec4134013a6a718f63eba0ab09b4b9a08718b5fc8c745",
      "v": 28,
      "creates": null,
      "raw": "0xf86c04850cb7e5368f8252089432be343b94f860124dc4fee278fdcbd38c102d8888d7dd299327124000801ca04bb3005606fc78b1e2930d3dc932e5809f1f6c4c0f0202678a01865fb4f0ec67a01a96df043fb87cdca76ec4134013a6a718f63eba0ab09b4b9a08718b5fc8c745",
      "networkId": 0,
      "chainId": 0
    }
  ]
}