{
  "hash": "0x03a8f5810d26dcf530734ce200ad83bd96690628c31d226eda896c47bec549ab",
  "parentHash": "0xec37c14cceb614ae6f4368f1cd2f28a356ed9cac1cfb1a1d3c8a50088560b328",
  "number": 96976,
  "timestamp": 1439748899,
  "nonce": "0xc7f7710e10ed51a3",
  "difficulty": 3739508560224,
  "gasLimit": {
    "_hex": "0x2fefd8"
  },
  "gasUsed": {
    "_hex": "0x5208"
  },
  "miner": "0x9746c7e1ef2bd21FF3997fa467593a89cb852BD0",
  "extraData": "0x476574682f76312e302e312f77696e646f77732f676f312e342e32",
  "transactions": [
    {
      "hash": "0x4e54191fa4da69d9a13e03faf8976b576612b3c520cd57f21d94f8f3430750a8",
      "blockHash": "0x03a8f5810d26dcf530734ce200ad83bd96690628c31d226eda896c47bec549ab",
      "blockNumber": 96976,
      "transactionIndex": 0,
      "confirmations": null,
      "from": "0x007f7f58D3eb5b7510A301eCC749FC1fCDDBE14D",
      "gasPrice": {
        "_hex": "0xe308e1d1f"
      },
      "gasLimit": {
        "_hex": "0x15f90"
      },
      "to": "0xb1abce2918E21ddb93AA452731a12672A3d9F75a",
      "value": {
        "_hex": "0x4563918244f40000"
      },
      "nonce": 90,
      "data": "0x",
      "r": "0xee19bb1263bc29d159c3f57fd42b350c889454ffb07b4503f348b3ba653ff422",
      "s": "0x2173710d495c78f4e879344a05944eabf9ea9a993ebfb30adfaefeb2f86490f7",
      "v": 27,
      "creates": null,
      "raw": "0xf86d5a850e308e1d1f83015f9094b1abce2918e21ddb93aa452731a12672a3d9f75a884563918244f40000801ba0ee19bb1263bc29d159c3f57fd42b350c889454ffb07b4503f348b3ba653ff422a02173710d495c78f4e879344a05944eabf9ea9a993ebfb30adfaefeb2f86490f7",
      "networkId": 0,
      "chainId": 0
    }
  ]
}