{
  "hash": "0x0be953323fabb7afad4d3604ce216ca3d72dbc6b021da0e1c64e528434b9f55e",
  "parentHash": "0x63c3cf5f25af258c20da52da9d8e9f85ede30a5a54fadacd9bb1299bb198452b",
  "number": 104962,
  "timestamp": 1439879175,
  "nonce": "0xe766e1769f52f1ad",
  "difficulty": 4333778126232,
  "gasLimit": {
    "_hex": "0x2fefd8"
  },
  "gasUsed": {
    "_hex": "0x5208"
  },
  "miner": "0x790b8a3cE86E707ED0eD32bF89B3269692a23CC1",
  "extraData": "0xd783010001844765746887676f312e342e32856c696e7578",
  "transactions": [
    {
      "hash": "0x70c7b99c9dbdb4bf97f5b12fbe2e24439c786893f30096da8f931560d0fd1803",
      "blockHash": "0x0be953323fabb7afad4d3604ce216ca3d72dbc6b021da0e1c64e528434b9f55e",
      "blockNumber": 104962,
      "transactionIndex": 0,
      "confirmations": null,
      "from": "0x7884D470204862a0d1A21122F41ee77430396Ee5",
      "gasPrice": {
        "_hex": "0xd8943fcc7"
      },
      "gasLimit": {
        "_hex": "0x15f90"
      },
      "to": "0xB9733316cB09b116ff8318eD379180B3c2b47c5d",
      "value": {
        "_hex": "0x186cc6acd4b0000"
      },
      "nonce": 98,
      "data": "0x",
      "r": "0x574779383d476a46d1a9d5156663f26cd380f7ecf72f19fb7ca3847a17be7dbf",
      "s": "0x7e262ca278d5f87c8eb946727423e5ddb55424a79a58f8ccf794931a3ea9983b",
      "v": 27,
      "creates": null,
      "raw": "0xf86d62850d8943fcc783015f9094b9733316cb09b116ff8318ed379180b3c2b47c5d880186cc6acd4b0000801ba0574779383d476a46d1a9d5156663f26cd380f7ecf72f19fb7ca3847a17be7dbfa07e262ca278d5f87c8eb946727423e5ddb55424a79a58f8ccf794931a3ea9983b",
      "networkId": 0,
      "chainId": 0
    }
  ]
}