{
  "hash": "0xab51bcb1a4f951704ad96db85c93309215c8190e4e738fe9a54e3542022e26a9",
  "parentHash": "0x83f783be2289c6aa32772d07ba913386f428c8c508096b29c9368e260439487a",
  "number": 80262,
  "timestamp": 1439482746,
  "nonce": "0xcd760e2aa3720751",
  "difficulty": 2384043969963,
  "gasLimit": {
    "_hex": "0x2fefd8"
  },
  "gasUsed": {
    "_hex": "0x5208"
  },
  "miner": "0x580992B51e3925e23280EfB93d3047C82f17E038",
  "extraData": "0x476574682f76312e302e312f6c696e75782f676f312e342e32",
  "transactions": [
    {
      "hash": "0xf385cafd943c504dabb854fa5693b0b8a8a273cf5b117036615f7e7e96a9319d",
      "blockHash": "0xab51bcb1a4f951704ad96db85c93309215c8190e4e738fe9a54e3542022e26a9",
      "blockNumber": 80262,
      "transactionIndex": 0,
      "confirmations": null,
      "from": "0x95dF4e3445D7662624c48eba74cF9e0a53E9f732",
      "gasPrice": {
        "_hex": "0xce78da0c3"
      },
      "gasLimit": {
        "_hex": "0x5208"
      },
      "to": "0x43279854AaF8825a6d1fcCf056caF190Ab8a7b76",
      "value": {
        "_hex": "0xd8d726b7177a800000"
      },
      "nonce": 14,
      "data": "0x",
      "r": "0xe032871d48de6c1ec263917da636abe08272ec314f71907dd362a35a2cb922de",
      "s": "0x68ada11f18f1ba02d7d0519b34320098e826954e65d0a98df123786d15b76670",
      "v": 28,
      "creates": null,
      "raw": "0xf86d0e850ce78da0c38252089443279854aaf8825a6d1fccf056caf190ab8a7b7689d8d726b7177a800000801ca0e032871d48de6c1ec263917da636abe08272ec314f71907dd362a35a2cb922dea068ada11f18f1ba02d7d0519b34320098e826954e65d0a98df123786d15b76670",
      "networkId": 0,
      "chainId": 0
    }
  ]
}