{
  "hash": "0x314e8242022024e5041e63b7f11c65c025deb2382ab28ef12b07f1a0e9637098",
  "parentHash": "0x8ec5e0248b9f8fe27d7f999ff8d2fa55dda57afa7250318ce61de4aef0ece674",
  "number": 70475,
  "timestamp": 1439320230,
  "nonce": "0x2c344a4f41ec6cba",
  "difficulty": 2148960887671,
  "gasLimit": {
    "_hex": "0x2fefd8"
  },
  "gasUsed": {
    "_hex": "0x546c"
  },
  "miner": "0x01d9DA08cc6Fb97c0DE1B6F4C28910A0859Ed1A1",
  "extraData": "0x476574682f76312e302e312f6c696e75782f676f312e342e32",
  "transactions": [
    {
      "hash": "0xf0fe25fe883dc24c7fb64669c4de5fee7e8a93b8e3360d04948b35e770083b90",
      "blockHash": "0x314e8242022024e5041e63b7f11c65c025deb2382ab28ef12b07f1a0e9637098",
      "blockNumber": 70475,
      "transactionIndex": 0,
      "confirmations": null,
      "from": "0x77a17122Fa31b98f1711D32A99F03Ec326F33D08",
      "gasPrice": {
        "_hex": "0x110c8f7d8de"
      },
      "gasLimit": {
        "_hex": "0xc350"
      },
      "to": "0x2910543Af39abA0Cd09dBb2D50200b3E800A63D2",
      "value": {
        "_hex": "0x1a055690d9db80000"
      },
      "nonce": 2,
      "data": "0x454e434a424b324530",
      "r": "0x0329e34623187dd293c308c1b169075a5beee9bdbc75f4b265349dec6384275f",
      "s": "0x7126280acd736eaf3be0e563ddaa12680110b997c0b1d7691f3e1e7e715658a5",
      "v": 28,
      "creates": null,
      "raw": "0xf87702860110c8f7d8de82c350942910543af39aba0cd09dbb2d50200b3e800a63d28901a055690d9db8000089454e434a424b3245301ca00329e34623187dd293c308c1b169075a5beee9bdbc75f4b265349dec6384275fa07126280acd736eaf3be0e563ddaa12680110b997c0b1d7691f3e1e7e715658a5",
      "networkId": 0,
      "chainId": 0
    }
  ]
}