{
  "hash": "0xab26a0f47656ec577eeef590117565551a111d165f3dbd250b9e9f6a0cf9631c",
  "parentHash": "0x9e71db2068dc31e82bbf59104574068d8842a2eed72bb815535ddccf63325adf",
  "number": 104910,
  "timestamp": 1439878220,
  "nonce": "0xadb862bdd3dd76ac",
  "difficulty": 4329574824975,
  "gasLimit": {
    "_hex": "0x2fefd8"
  },
  "gasUsed": {
    "_hex": "0x5208"
  },
  "miner": "0xC603Ab5ef41fC61AA8b76bEddb09e3Cfcbb174BD",
  "extraData": "0x476574682f76312e302e312f77696e646f77732f676f312e342e32",
  "transactions": [
    {
      "hash": "0x4ee675c1cb4941b034deb38df2b93b3a127d3e31dd693cad13a84a0afbbcdeb2",
      "blockHash": "0xab26a0f47656ec577eeef590117565551a111d165f3dbd250b9e9f6a0cf9631c",
      "blockNumber": 104910,
      "transactionIndex": 0,
      "confirmations": null,
      "from": "0x7884D470204862a0d1A21122F41ee77430396Ee5",
      "gasPrice": {
        "_hex": "0xd4eaa4608"
      },
      "gasLimit": {
        "_hex": "0x15f90"
      },
      "to": "0x7884D470204862a0d1A21122F41ee77430396Ee5",
      "value": {
        "_hex": "0x16345785d8a0000"
      },
      "nonce": 97,
      "data": "0x",
      "r": "0xe0037ab63b70093882b49735387b5c3703e55b03552ea49d039d31e61ebd2c5e",
      "s": "0x36ffc07971a19eeeb8056a95bd4d9d5d1a9a269b6c2e513b0fc31b7b83c06bb4",
      "v": 28,
      "creates": null,
      "raw": "0xf86d61850d4eaa460883015f90947884d470204862a0d1a21122f41ee77430396ee588016345785d8a0000801ca0e0037ab63b70093882b49735387b5c3703e55b03552ea49d039d31e61ebd2c5ea036ffc07971a19eeeb8056a95bd4d9d5d1a9a269b6c2e513b0fc31b7b83c06bb4",
      "networkId": 0,
      "chainId": 0
    }
  ]
}