{
  "hash": "0x080117c4952b0ac71c5f257d0632462d62d006e65c4f98529584f766de494205",
  "parentHash": "0x14dae3fa23cca8aa9f66e7d1fdf5b8c7f76c54a330e29189f67372d9fe8a06f0",
  "number": 107127,
  "timestamp": 1439916566,
  "nonce": "0x1a6c89af26495380",
  "difficulty": 4468010990799,
  "gasLimit": {
    "_hex": "0x2fefd8"
  },
  "gasUsed": {
    "_hex": "0x5208"
  },
  "miner": "0x580992B51e3925e23280EfB93d3047C82f17E038",
  "extraData": "0x476574682f76312e302e312f6c696e75782f676f312e342e32",
  "transactions": [
    {
      "hash": "0x2a2a062ccff99616eacdfdc7d99dc14573bbb746cdc4e1957184eee18c6e4228",
      "blockHash": "0x080117c4952b0ac71c5f257d0632462d62d006e65c4f98529584f766de494205",
      "blockNumber": 107127,
      "transactionIndex": 0,
      "confirmations": null,
      "from": "0x85987614170a7d08Fbae35c5bc179A0110d1fA2F",
      "gasPrice": {
        "_hex": "0xcae5fae72"
      },
      "gasLimit": {
        "_hex": "0x15f90"
      },
      "to": "0xDb2c60B49188a8D0C96A730C0B4b62D25866864C",
      "value": {
        "_hex": "0x2c68af0bb140000"
      },
      "nonce": 1,
      "data": "0x",
      "r": "0x3a0bfdf8f5ff7c1406a5d2e341c91b280367f43d1b3080823120a95eeec19320",
      "s": "0x2a63a0256941359fbfef3b2d9b9036d4d73c1cf0e89617c616291682e3bc5bae",
      "v": 28,
      "creates": null,
      "raw": "0xf86d01850cae5fae7283015f9094db2c60b49188a8d0c96a730c0b4b62d25866864c8802c68af0bb140000801ca03a0bfdf8f5ff7c1406a5d2e341c91b280367f43d1b3080823120a95eeec19320a02a63a0256941359fbfef3b2d9b9036d4d73c1cf0e89617c616291682e3bc5bae",
      "networkId": 0,
      "chainId": 0
    }
  ]
}