{
  "hash": "0x6de860434251cb136e5eb4d2a3e4e165d48f3201cc6121a092f557192dec492b",
  "parentHash": "0xdc8814aeea5119690296ec7876c4e0cac669d3f662917a9329fb380f43b65c0f",
  "number": 116545,
  "timestamp": 1440089287,
  "nonce": "0xb4e05f6ad4010ed9",
  "difficulty": 4542142214889,
  "gasLimit": {
    "_hex": "0x2fefd8"
  },
  "gasUsed": {
    "_hex": "0x520c"
  },
  "miner": "0xe6A7a1d47ff21B6321162AEA7C6CB457D5476Bca",
  "extraData": "0xd783010002844765746887676f312e342e32856c696e7578",
  "transactions": [
    {
      "hash": "0x9375613762d868d7c8f15e68087af89f55efc1cd5f89f56c8b3bd9be65f3de7d",
      "blockHash": "0x6de860434251cb136e5eb4d2a3e4e165d48f3201cc6121a092f557192dec492b",
      "blockNumber": 116545,
      "transactionIndex": 0,
      "confirmations": null,
      "from": "0x4410F83EFAfE6e5167BD2aF2a8CE2d9e79019AF0",
      "gasPrice": {
        "_hex": "0xd6b794f5e"
      },
      "gasLimit": {
        "_hex": "0x7530"
      },
      "to": "0xA42004dA3B4f05c3abCb5DD924df33b2443F6033",
      "value": {
        "_hex": "0xaa87bee5380000"
      },
      "nonce": 0,
      "data": "0x00",
      "r": "0xe12a9f2d3a2725431400bcbce8ea61e64cbf0d80c1ff029089eab96ffc26c499",
      "s": "0x8fcdfc04170bd2a4206896239c0fb002dc34a0f2b0ac2b73b062f1f9301ecb5b",
      "v": 28,
      "creates": null,
      "raw": "0xf86b80850d6b794f5e82753094a42004da3b4f05c3abcb5dd924df33b2443f603387aa87bee5380000001ca0e12a9f2d3a2725431400bcbce8ea61e64cbf0d80c1ff029089eab96ffc26c499a08fcdfc04170bd2a4206896239c0fb002dc34a0f2b0ac2b73b062f1f9301ecb5b",
      "networkId": 0,
      "chainId": 0
    }
  ]
}