{
  "hash": "0x2de34ee217d449f4479bf7dc1d6d240a630675f83bbe24bd6d3728f450c82094",
  "parentHash": "0xd25001a51852d2a5b0ed389e6587b1a2492b07a93bc84ab9c3b8e10dcb7f6b4a",
  "number": 80659,
  "timestamp": 1439488729,
  "nonce": "0x16d57dd7606e8638",
  "difficulty": 2432137254878,
  "gasLimit": {
    "_hex": "0x2fefd8"
  },
  "gasUsed": {
    "_hex": "0x5208"
  },
  "miner": "0xe6A7a1d47ff21B6321162AEA7C6CB457D5476Bca",
  "extraData": "0x476574682f76312e302e312d38326566323666362f6c696e75782f676f312e34",
  "transactions": [
    {
      "hash": "0xbb6de29a34828bee8a60c86ac450e8210b30b644969926f792dac3b7dfc9e5cb",
      "blockHash": "0x2de34ee217d449f4479bf7dc1d6d240a630675f83bbe24bd6d3728f450c82094",
      "blockNumber": 80659,
      "transactionIndex": 0,
      "confirmations": null,
      "from": "0xabceA603089850F8f6bB612A9031554D90A247CF",
      "gasPrice": {
        "_hex": "0xcd91de2e3"
      },
      "gasLimit": {
        "_hex": "0x5208"
      },
      "to": "0x32Be343B94f860124dC4fEe278FDCBD38C102D88",
      "value": {
        "_hex": "0x1e83db3d6fac8800"
      },
      "nonce": 20,
      "data": "0x",
      "r": "0x674c085ac39d3d7ca326450e4a03876007af72824badc17d507231252c9a945d",
      "s": "0x6ad9894cf9249c1d3c6693146adbf42bbea98ba7446dd5a3764e1e51e3ec82cc",
      "v": 28,
      "creates": null,
      "raw": "0xf86c14850cd91de2e38252089432be343b94f860124dc4fee278fdcbd38c102d88881e83db3d6fac8800801ca0674c085ac39d3d7ca326450e4a03876007af72824badc17d507231252c9a945da06ad9894cf9249c1d3c6693146adbf42bbea98ba7446dd5a3764e1e51e3ec82cc",
      "networkId": 0,
      "chainId": 0
    }
  ]
}