{
  "hash": "0xbed63543b2aaeee9f6f90abd35919e94102b98906b2ceec979ee409c4650f065",
  "parentHash": "0x6eb9b0336299add9c457b469f2208979e6bb0637b1d875125946a28e88c761b1",
  "number": 103220,
  "timestamp": 1439849697,
  "nonce": "0x78f9373e7cf6541d",
  "difficulty": 4189023619650,
  "gasLimit": {
    "_hex": "0x2fefd8"
  },
  "gasUsed": {
    "_hex": "0x5208"
  },
  "miner": "0xe6A7a1d47ff21B6321162AEA7C6CB457D5476Bca",
  "extraData": "0x476574682f76312e302e312d38326566323666362f6c696e75782f676f312e34",
  "transactions": [
    {
      "hash": "0x8bcd4d7034754a31867c41f557f5562e260d0d6e31c67e2b0dc9be425428186a",
      "blockHash": "0xbed63543b2aaeee9f6f90abd35919e94102b98906b2ceec979ee409c4650f065",
      "blockNumber": 103220,
      "transactionIndex": 0,
      "confirmations": null,
      "from": "0xBb7f43EDfd8bf08B022fEd5BD91e3f9dE7e74D09",
      "gasPrice": {
        "_hex": "0xe0ade5553"
      },
      "gasLimit": {
        "_hex": "0x5208"
      },
      "to": "0x32Be343B94f860124dC4fEe278FDCBD38C102D88",
      "value": {
        "_hex": "0x455f11969e1ce400"
      },
      "nonce": 1,
      "data": "0x",
      "r": "0x1f127f1d623ed4765e3a140ede52486f0dfc104337de55ecdc68e42f9344f41e",
      "s": "0x5bea1eaf2d7742dd1fa275dafb270667e849d2ccf89a646763d68a2958a392e2",
      "v": 27,
      "creates": null,
      "raw": "0xf86c01850e0ade55538252089432be343b94f860124dc4fee278fdcbd38c102d8888455f11969e1ce400801ba01f127f1d623ed4765e3a140ede52486f0dfc104337de55ecdc68e42f9344f41ea05bea1eaf2d7742dd1fa275dafb270667e849d2ccf89a646763d68a2958a392e2",
      "networkId": 0,
      "chainId": 0
    }
  ]
}