{
  "hash": "0x5b8d13b63b6dddaf9b64dd4131634d3381fd257a9bce722303d9bbd4c886c9a7",
  "parentHash": "0xf5815b28441b127ae0216fb9c788e8f6e5bc3c6fad3e6eec9d0fe93ab9a21367",
  "number": 68638,
  "timestamp": 1439291175,
  "nonce": "0x934c844a150b646a",
  "difficulty": 2022164037487,
  "gasLimit": {
    "_hex": "0x2fefd8"
  },
  "gasUsed": {
    "_hex": "0x12988c"
  },
  "miner": "0xA9bb0843E0Da908bd03b9eE0d6f95242129aaa50",
  "extraData": "0x476574682f76312e302e312f77696e646f77732f676f312e342e32",
  "transactions": [
    {
      "hash": "0x5193f34dee5ea15505f726d5a58133f55eb3515d206bb8e0b383133ade297239",
      "blockHash": "0x5b8d13b63b6dddaf9b64dd4131634d3381fd257a9bce722303d9bbd4c886c9a7",
      "blockNumber": 68638,
      "transactionIndex": 0,
      "confirmations": null,
      "from": "0x703399462D33860FfB2f66D4920d09966D577c42",
      "gasPrice": {
        "_hex": "0xba43b7400"
      },
      "gasLimit": {
        "_hex": "0x15f90"
      },
      "to": "0x793AE8C1b1a160BFc07BFB0d04F85eab1A71F4f2",
      "value": {
        "_hex": "0x0"
      },
      "nonce": 0,
      "data": "0x3ba15036",
      "r": "0x7211e8f5289d0e44b17dcb2d4037a22bc37f5e40d5878c231cea6b60ada356fd",
      "s": "0x4d638b2028bb1fe54dd7d600e8b174531028047b4aa39be17cfb9eed31fbc169",
      "v": 27,
      "creates": null,
      "raw": "0xf86980850ba43b740083015f9094793ae8c1b1a160bfc07bfb0d04f85eab1a71f4f280843ba150361ba07211e8f5289d0e44b17dcb2d4037a22bc37f5e40d5878c231cea6b60ada356fda04d638b2028bb1fe54dd7d600e8b174531028047b4aa39be17cfb9eed31fbc169",
      "networkId": 0,
      "chainId": 0
    },
    {
      "hash": "0x1c6e426d2abafc990f312ee1d8095839bfdb7c39779c7bdaa371e310ece5ad1e",
      "blockHash": "0x5b8d13b63b6dddaf9b64dd4131634d3381fd257a9bce722303d9bbd4c886c9a7",
      "blockNumber": 68638,
      "transactionIndex": 1,
      "confirmations": null,
      "from": "0xA1c4892037aA64092852B1a640eb80C09e927a09",
      "gasPrice": {
        "_hex": "0xba43b7400"
      },
      "gasLimit": {
        "_hex": "0x15f90"
      },
      "to": "0x793AE8C1b1a160BFc07BFB0d04F85eab1A71F4f2",
      "value": {
        "_hex": "0x0"
      },
      "nonce": 0,
      "data": "0x3ba15036",
      "r": "0xfb885aa74019090ec8ee16f085606d7b67062c9d3c2d112fc7f0eb29d6933ab5",
      "s": "0x51e3dd070037261bf82cc42dc596008df9bb64492c183c207895ec31ca10fcb5",
      "v": 27,
      "creates": null,
      "raw": "0xf86980850ba43b740083015f9094793ae8c1b1a160bfc07bfb0d04f85eab1a71f4f280843ba150361ba0fb885aa74019090ec8ee16f085606d7b67062c9d3c2d112fc7f0eb29d6933ab5a051e3dd070037261bf82cc42dc596008df9bb64492c183c207895ec31ca10fcb5",
      "networkId": 0,
      "chainId": 0
    },
    {
      "hash": "0x5aa65f4c061cebf62a2911f882b1e55bce29e38b89482aec2003aa7fc32f7d2d",
      "blockHash": "0x5b8d13b63b6dddaf9b64dd4131634d3381fd257a9bce722303d9bbd4c886c9a7",
      "blockNumber": 68638,
      "transactionIndex": 2,
      "confirmations": null,
      "from": "0xB44D69AAaAa93150b6E2a150225D0592C2Db0D00",
      "gasPrice": {
        "_hex": "0xba43b7400"
      },
      "gasLimit": {
        "_hex": "0x15f90"
      },
      "to": "0x793AE8C1b1a160BFc07BFB0d04F85eab1A71F4f2",
      "value": {
        "_hex": "0x0"
      },
      "nonce": 0,
      "data": "0x3ba15036",
      "r": "0x613267dab3d6803e72ae7afdad44e7e7eea4fa649a01d3e69ed4ee5a70ec1c64",
      "s": "0x2d03a0fa4dfed5301c7b199ee45bad23d5fc5728cd86fd10c72880a00b207999",
      "v": 27,
      "creates": null,
      "raw": "0xf86980850ba43b740083015f9094793ae8c1b1a160bfc07bfb0d04f85eab1a71f4f280843ba150361ba0613267dab3d6803e72ae7afdad44e7e7eea4fa649a01d3e69ed4ee5a70ec1c64a02d03a0fa4dfed5301c7b199ee45bad23d5fc5728cd86fd10c72880a00b207999",
      "networkId": 0,
      "chainId": 0
    },
    {
      "hash": "0xbe71506651ff93bd15cdee6f581126f8cd9d586a80f131cfe5ffa20ef8898525",
      "blockHash": "0x5b8d13b63b6dddaf9b64dd4131634d3381fd257a9bce722303d9bbd4c886c9a7",
      "blockNumber": 68638,
      "transactionIndex": 3,
      "confirmations": null,
      "from": "0x856c991Ae9f7647D17e7D771c58f7cbB6bc11364",
      "gasPrice": {
        "_hex": "0xba43b7400"
      },
      "gasLimit": {
        "_hex": "0x15f90"
      },
      "to": "0x793AE8C1b1a160BFc07BFB0d04F85eab1A71F4f2",
      "value": {
        "_hex": "0x0"
      },
      "nonce": 0,
      "data": "0x3ba15036",
      "r": "0xc9e697686846cd6060bf6cf8b2dfee0eb10ef511b978f659e2cea8e471d15de2",
      "s": "0x16f635566c353263b688ff4df1eefcf09e861f15b06d2d3707bc06b3585e5d7b",
      "v": 27,
      "creates": null,
      "raw": "0xf86980850ba43b740083015f9094793ae8c1b1a160bfc07bfb0d04f85eab1a71f4f280843ba150361ba0c9e697686846cd6060bf6cf8b2dfee0eb10ef511b978f659e2cea8e471d15de2a016f635566c353263b688ff4df1eefcf09e861f15b06d2d3707bc06b3585e5d7b",
      "networkId": 0,
      "chainId": 0
    },
    {
      "hash": "0x6214bc55e0a8c48bfc0760f49579ec92f1bc3f889279cf41ad2b4e05d83dbd10",
      "blockHash": "0x5b8d13b63b6dddaf9b64dd4131634d3381fd257a9bce722303d9bbd4c886c9a7",
      "blockNumber": 68638,
      "transactionIndex": 4,
      "confirmations": null,
      "from": "0x5cF22Ef806509315aC46b952652200207B96a599",
      "gasPrice": {
        "_hex": "0xba43b7400"
      },
      "gasLimit": {
        "_hex": "0x15f90"
      },
      "to": "0x793AE8C1b1a160BFc07BFB0d04F85eab1A71F4f2",
      "value": {
        "_hex": "0x0"
      },
      "nonce": 0,
      "data": "0x3ba15036",
      "r": "0x439c20f539bc565afae372dc697be88fca6c8e330b69d79e1b7bcf1837b1b0b3",
      "s": "0x47c6e7418ffb03ac516a8bed876fc429756db722bcab7af2643046277eaab2d9",
      "v": 27,
      "creates": null,
      "raw": "0xf86980850ba43b740083015f9094793ae8c1b1a160bfc07bfb0d04f85eab1a71f4f280843ba150361ba0439c20f539bc565afae372dc697be88fca6c8e330b69d79e1b7bcf1837b1b0b3a047c6e7418ffb03ac516a8bed876fc429756db722bcab7af2643046277eaab2d9",
      "networkId": 0,
      "chainId": 0
    },
    {
      "hash": "0x8b474fe536ebbe65d36a20b0e25349bf783cb5968d791ae18c031578a0fede69",
      "blockHash": "0x5b8d13b63b6dddaf9b64dd4131634d3381fd257a9bce722303d9bbd4c886c9a7",
      "blockNumber": 68638,
      "transactionIndex": 5,
      "confirmations": null,
      "from": "0xc9f2fC7A925aaA6d00D73B614b7b2774fFC9318f",
      "gasPrice": {
        "_hex": "0xba43b7400"
      },
      "gasLimit": {
        "_hex": "0x15f90"
      },
      "to": "0x793AE8C1b1a160BFc07BFB0d04F85eab1A71F4f2",
      "value": {
        "_hex": "0x0"
      },
      "nonce": 0,
      "data": "0x3ba15036",
      "r": "0x125be5b963badded89082a73883889e7eac8dede92a778bf295d647d91a6da86",
      "s": "0x78818fa95cb5f6556689afb9a8847ec154873b86fc163f0333536b3f017e8e74",
      "v": 28,
      "creates": null,
      "raw": "0xf86980850ba43b740083015f9094793ae8c1b1a160bfc07bfb0d04f85eab1a71f4f280843ba150361ca0125be5b963badded89082a73883889e7eac8dede92a778bf295d647d91a6da86a078818fa95cb5f6556689afb9a8847ec154873b86fc163f0333536b3f017e8e74",
      "networkId": 0,
      "chainId": 0
    },
    {
      "hash": "0x21916d8e93a95ef5159c537fc213a6cf8155c64206b42216ef3017a386d4c2a3",
      "blockHash": "0x5b8d13b63b6dddaf9b64dd4131634d3381fd257a9bce722303d9bbd4c886c9a7",
      "blockNumber": 68638,
      "transactionIndex": 6,
      "confirmations": null,
      "from": "0x80fd40Ef993022f8067e9f8d8fD55a6937916cC6",
      "gasPrice": {
        "_hex": "0xba43b7400"
      },
      "gasLimit": {
        "_hex": "0x15f90"
      },
      "to": "0x793AE8C1b1a160BFc07BFB0d04F85eab1A71F4f2",
      "value": {
        "_hex": "0x0"
      },
      "nonce": 0,
      "data": "0x3ba15036",
      "r": "0x6ab0bab9ff7159769bc9aad35afbc62adc18677ed31cdd97849bc262d90ce33f",
      "s": "0x5fa94648334af1c89add62592f7aba2ea8574046a31a6a44b5a5cefa2dee8740",
      "v": 28,
      "creates": null,
      "raw": "0xf86980850ba43b740083015f9094793ae8c1b1a160bfc07bfb0d04f85eab1a71f4f280843ba150361ca06ab0bab9ff7159769bc9aad35afbc62adc18677ed31cdd97849bc262d90ce33fa05fa94648334af1c89add62592f7aba2ea8574046a31a6a44b5a5cefa2dee8740",
      "networkId": 0,
      "chainId": 0
    },
    {
      "hash": "0xaf3c9e3eeab4737b525a40a51756cce0af76870c6a8ab5088d7942966f59d3e5",
      "blockHash": "0x5b8d13b63b6dddaf9b64dd4131634d3381fd257a9bce722303d9bbd4c886c9a7",
      "blockNumber": 68638,
      "transactionIndex": 7,
      "confirmations": null,
      "from": "0x3aA8fb055ae3b0758aC5d9B37a905e2550c296fF",
      "gasPrice": {
        "_hex": "0xba43b7400"
      },
      "gasLimit": {
        "_hex": "0x15f90"
      },
      "to": "0x793AE8C1b1a160BFc07BFB0d04F85eab1A71F4f2",
      "value": {
        "_hex": "0x0"
      },
      "nonce": 0,
      "data": "0x3ba15036",
      "r": "0x9295109c4ece0bb1735bf8e01807d18d575f48bfd4e21fdf21be9d18083db76f",
      "s": "0x2b0b9cf1a7c9f23b7428de27fa62fc2734f318987b7c74e5829b8a1688ed646d",
      "v": 28,
      "creates": null,
      "raw": "0xf86980850ba43b740083015f9094793ae8c1b1a160bfc07bfb0d04f85eab1a71f4f280843ba150361ca09295109c4ece0bb1735bf8e01807d18d575f48bfd4e21fdf21be9d18083db76fa02b0b9cf1a7c9f23b7428de27fa62fc2734f318987b7c74e5829b8a1688ed646d",
      "networkId": 0,
      "chainId": 0
    },
    {
      "hash": "0x4f6110f163ea91b3d87dd78e81bcc98b9b73315e964955cf3d68a43913272350",
      "blockHash": "0x5b8d13b63b6dddaf9b64dd4131634d3381fd257a9bce722303d9bbd4c886c9a7",
      "blockNumber": 68638,
      "transactionIndex": 8,
      "confirmations": null,
      "from": "0x8674E5048Ec4a8858e7C435C1f690a72C938496F",
      "gasPrice": {
        "_hex": "0xba43b7400"
      },
      "gasLimit": {
        "_hex": "0x15f90"
      },
      "to": "0x793AE8C1b1a160BFc07BFB0d04F85eab1A71F4f2",
      "value": {
        "_hex": "0x0"
      },
      "nonce": 0,
      "data": "0x3ba15036",
      "r": "0x9ea0764ac6552ca52c1e261e08d412016885888a7c6876f6cdb0dfe0b83cbe45",
      "s": "0x0d2b53ca694abd6ac8f19426fa16b113747074b1c7028943b2dd3fe2a58207d4",
      "v": 28,
      "creates": null,
      "raw": "0xf86980850ba43b740083015f9094793ae8c1b1a160bfc07bfb0d04f85eab1a71f4f280843ba150361ca09ea0764ac6552ca52c1e261e08d412016885888a7c6876f6cdb0dfe0b83cbe45a00d2b53ca694abd6ac8f19426fa16b113747074b1c7028943b2dd3fe2a58207d4",
      "networkId": 0,
      "chainId": 0
    },
    {
      "hash": "0xe59efbcaa35abbb78948c42c5b9986e7b02006d74040200400a7f6acd4b73c5d",
      "blockHash": "0x5b8d13b63b6dddaf9b64dd4131634d3381fd257a9bce722303d9bbd4c886c9a7",
      "blockNumber": 68638,
      "transactionIndex": 9,
      "confirmations": null,
      "from": "0x8a962110e062e8F4f48bCcdb5152fF42d5281670",
      "gasPrice": {
        "_hex": "0xba43b7400"
      },
      "gasLimit": {
        "_hex": "0x15f90"
      },
      "to": "0x793AE8C1b1a160BFc07BFB0d04F85eab1A71F4f2",
      "value": {
        "_hex": "0x0"
      },
      "nonce": 0,
      "data": "0x3ba15036",
      "r": "0x1d7c46d94061f80eb296a700ef954f72768253f8423095e2f53d9798bcfeda17",
      "s": "0x4f2806d1307fae53b5c71ee6e3e458048ffa37d0f4c6a31d740d9873eb84a134",
      "v": 28,
      "creates": null,
      "raw": "0xf86980850ba43b740083015f9094793ae8c1b1a160bfc07bfb0d04f85eab1a71f4f280843ba150361ca01d7c46d94061f80eb296a700ef954f72768253f8423095e2f53d9798bcfeda17a04f2806d1307fae53b5c71ee6e3e458048ffa37d0f4c6a31d740d9873eb84a134",
      "networkId": 0,
      "chainId": 0
    },
    {
      "hash": "0x5378cdf4c1abef9c1ab7d40999571fc7bd5aae02e1522df4b712a759dd9dad2e",
      "blockHash": "0x5b8d13b63b6dddaf9b64dd4131634d3381fd257a9bce722303d9bbd4c886c9a7",
      "blockNumber": 68638,
      "transactionIndex": 10,
      "confirmations": null,
      "from": "0xe355EAD0CFDf8EAE271eBeA2EE991B1848620F01",
      "gasPrice": {
        "_hex": "0xba43b7400"
      },
      "gasLimit": {
        "_hex": "0x15f90"
      },
      "to": "0x793AE8C1b1a160BFc07BFB0d04F85eab1A71F4f2",
      "value": {
        "_hex": "0x0"
      },
      "nonce": 0,
      "data": "0x3ba15036",
      "r": "0x55fa09551a395596104a00e0e25c913f1495187cfdc67930d055f723e9a4ecdd",
      "s": "0x616fd4d8c7470446746cd57d9900d6732dc25a8bb5127fb354f31704399e3b77",
      "v": 27,
      "creates": null,
      "raw": "0xf86980850ba43b740083015f9094793ae8c1b1a160bfc07bfb0d04f85eab1a71f4f280843ba150361ba055fa09551a395596104a00e0e25c913f1495187cfdc67930d055f723e9a4ecdda0616fd4d8c7470446746cd57d9900d6732dc25a8bb5127fb354f31704399e3b77",
      "networkId": 0,
      "chainId": 0
    },
    {
      "hash": "0xb8020ae65b1b3bb91229d13fc2b4b3abb9603952c593a5a6f53a52248e82601f",
      "blockHash": "0x5b8d13b63b6dddaf9b64dd4131634d3381fd257a9bce722303d9bbd4c886c9a7",
      "blockNumber": 68638,
      "transactionIndex": 11,
      "confirmations": null,
      "from": "0xc802976080d5B5fED033084f45Adc31D60A15d2d",
      "gasPrice": {
        "_hex": "0xba43b7400"
      },
      "gasLimit": {
        "_hex": "0x15f90"
      },
      "to": "0x793AE8C1b1a160BFc07BFB0d04F85eab1A71F4f2",
      "value": {
        "_hex": "0x0"
      },
      "nonce": 0,
      "data": "0x3ba15036",
      "r": "0x57fc04d115679133a7a3499e2277c3e688a480a80a356debfec685d79c86ed5a",
      "s": "0x6074d4bd1fb0f9f1ec57eb7bcbf6f2e7ec4c6e1bcab9b1667f956f30d65644b7",
      "v": 28,
      "creates": null,
      "raw": "0xf86980850ba43b740083015f9094793ae8c1b1a160bfc07bfb0d04f85eab1a71f4f280843ba150361ca057fc04d115679133a7a3499e2277c3e688a480a80a356debfec685d79c86ed5aa06074d4bd1fb0f9f1ec57eb7bcbf6f2e7ec4c6e1bcab9b1667f956f30d65644b7",
      "networkId": 0,
      "chainId": 0
    },
    {
      "hash": "0x729c7db29d59414a7af127a698d425bb676a5120dc7da436e41e7a46e441df72",
      "blockHash": "0x5b8d13b63b6dddaf9b64dd4131634d3381fd257a9bce722303d9bbd4c886c9a7",
      "blockNumber": 68638,
      "transactionIndex": 12,
      "confirmations": null,
      "from": "0x636015334Aa0C4e7Ab19937C01805C6d287b680a",
      "gasPrice": {
        "_hex": "0xba43b7400"
      },
      "gasLimit": {
        "_hex": "0x15f90"
      },
      "to": "0x793AE8C1b1a160BFc07BFB0d04F85eab1A71F4f2",
      "value": {
        "_hex": "0x0"
      },
      "nonce": 0,
      "data": "0x3ba15036",
      "r": "0xba932e2c3de243b7db41bd4a468041d787766ed86482cfa7c97424956342842c",
      "s": "0x73503b4ff384426a3f17c06ec87151eed91602440f2e1316121503233b11936e",
      "v": 27,
      "creates": null,
      "raw": "0xf86980850ba43b740083015f9094793ae8c1b1a160bfc07bfb0d04f85eab1a71f4f280843ba150361ba0ba932e2c3de243b7db41bd4a468041d787766ed86482cfa7c97424956342842ca073503b4ff384426a3f17c06ec87151eed91602440f2e1316121503233b11936e",
      "networkId": 0,
      "chainId": 0
    },
    {
      "hash": "0x598feeaa4087153203737b1154697d1e38eac4a8bca41b41421de094321d12a3",
      "blockHash": "0x5b8d13b63b6dddaf9b64dd4131634d3381fd257a9bce722303d9bbd4c886c9a7",
      "blockNumber": 68638,
      "transactionIndex": 13,
      "confirmations": null,
      "from": "0xacABE5F00470d1178953c8feb7cAc5C036cfe5d7",
      "gasPrice": {
        "_hex": "0xba43b7400"
      },
      "gasLimit": {
        "_hex": "0x15f90"
      },
      "to": "0x793AE8C1b1a160BFc07BFB0d04F85eab1A71F4f2",
      "value": {
        "_hex": "0x0"
      },
      "nonce": 0,
      "data": "0x3ba15036",
      "r": "0xd6927d928ac015123fb4dce59393789fda2f11062b10431e8557d118c6bad356",
      "s": "0x363ce9f6b93f11d0711917aebe8dc44f17cde1092bbd024a1731be475be5ca6f",
      "v": 27,
      "creates": null,
      "raw": "0xf86980850ba43b740083015f9094793ae8c1b1a160bfc07bfb0d04f85eab1a71f4f280843ba150361ba0d6927d928ac015123fb4dce59393789fda2f11062b10431e8557d118c6bad356a0363ce9f6b93f11d0711917aebe8dc44f17cde1092bbd024a1731be475be5ca6f",
      "networkId": 0,
      "chainId": 0
    },
    {
      "hash": "0x0a3d4ba7d4397781a9efd710adf8c06d715a514c0767b8ff8c52b2ae3fbd78ba",
      "blockHash": "0x5b8d13b63b6dddaf9b64dd4131634d3381fd257a9bce722303d9bbd4c886c9a7",
      "blockNumber": 68638,
      "transactionIndex": 14,
      "confirmations": null,
      "from": "0xAd1b0167640344A99F099f18B55811C295aDc121",
      "gasPrice": {
        "_hex": "0xba43b7400"
      },
      "gasLimit": {
        "_hex": "0x15f90"
      },
      "to": "0x793AE8C1b1a160BFc07BFB0d04F85eab1A71F4f2",
      "value": {
        "_hex": "0x0"
      },
      "nonce": 0,
      "data": "0x3ba15036",
      "r": "0xb7640714756ad8241a3f1ea0aa7d0a93e786a7c377571493baeb1963321418bd",
      "s": "0x7b72c30255c097d6c90d16bee0ba9bf2677e51cd69e019df74ded49fff006a6a",
      "v": 28,
      "creates": null,
      "raw": "0xf86980850ba43b740083015f9094793ae8c1b1a160bfc07bfb0d04f85eab1a71f4f280843ba150361ca0b7640714756ad8241a3f1ea0aa7d0a93e786a7c377571493baeb1963321418bda07b72c30255c097d6c90d16bee0ba9bf2677e51cd69e019df74ded49fff006a6a",
      "networkId": 0,
      "chainId": 0
    },
    {
      "hash": "0x109c5146971338266553b00b7971caf5f0f821e8e92cc74e472f1f73874b0a15",
      "blockHash": "0x5b8d13b63b6dddaf9b64dd4131634d3381fd257a9bce722303d9bbd4c886c9a7",
      "blockNumber": 68638,
      "transactionIndex": 15,
      "confirmations": null,
      "from": "0xF740608E525f9Cc8464d00DCbe07cA40a6F6755D",
      "gasPrice": {
        "_hex": "0xba43b7400"
      },
      "gasLimit": {
        "_hex": "0x15f90"
      },
      "to": "0x793AE8C1b1a160BFc07BFB0d04F85eab1A71F4f2",
      "value": {
        "_hex": "0x0"
      },
      "nonce": 0,
      "data": "0x3ba15036",
      "r": "0xfb3eb07f3f8ba0439800397b8ef7336e1f14763771b754955ccfc59e923e73f1",
      "s": "0x6574918bae1b0a3b79d175cb6e64ef8611acf44d689f0ee666b477638a85c7f5",
      "v": 27,
      "creates": null,
      "raw": "0xf86980850ba43b740083015f9094793ae8c1b1a160bfc07bfb0d04f85eab1a71f4f280843ba150361ba0fb3eb07f3f8ba0439800397b8ef7336e1f14763771b754955ccfc59e923e73f1a06574918bae1b0a3b79d175cb6e64ef8611acf44d689f0ee666b477638a85c7f5",
      "networkId": 0,
      "chainId": 0
    },
    {
      "hash": "0x5b26cdb1235493ce137b6d4cb48a4592b0788f117d70174ced865687db809a81",
      "blockHash": "0x5b8d13b63b6dddaf9b64dd4131634d3381fd257a9bce722303d9bbd4c886c9a7",
      "blockNumber": 68638,
      "transactionIndex": 16,
      "confirmations": null,
      "from": "0x44787EDC9B8840f759A5CDB3518DB52aCDC8B578",
      "gasPrice": {
        "_hex": "0xba43b7400"
      },
      "gasLimit": {
        "_hex": "0x15f90"
      },
      "to": "0x793AE8C1b1a160BFc07BFB0d04F85eab1A71F4f2",
      "value": {
        "_hex": "0x0"
      },
      "nonce": 0,
      "data": "0x3ba15036",
      "r": "0x1c168c7c82b9da8ff9ad7e45bbd2066aec3786de5b99e216d582dfc5dc77b610",
      "s": "0x6e2830924ccad887efd83c898e0caa46ae4a22486ff2023d893029578801e29d",
      "v": 27,
      "creates": null,
      "raw": "0xf86980850ba43b740083015f9094793ae8c1b1a160bfc07bfb0d04f85eab1a71f4f280843ba150361ba01c168c7c82b9da8ff9ad7e45bbd2066aec3786de5b99e216d582dfc5dc77b610a06e2830924ccad887efd83c898e0caa46ae4a22486ff2023d893029578801e29d",
      "networkId": 0,
      "chainId": 0
    },
    {
      "hash": "0x5780cd2851791d91dd114fa41617d1ef198c90f5dff4aa8e09a09989a0c746e8",
      "blockHash": "0x5b8d13b63b6dddaf9b64dd4131634d3381fd257a9bce722303d9bbd4c886c9a7",
      "blockNumber": 68638,
      "transactionIndex": 17,
      "confirmations": null,
      "from": "0x788F9C1086703D0C79132c1C8819637fCD3f143E",
      "gasPrice": {
        "_hex": "0xba43b7400"
      },
      "gasLimit": {
        "_hex": "0x15f90"
      },
      "to": "0x793AE8C1b1a160BFc07BFB0d04F85eab1A71F4f2",
      "value": {
        "_hex": "0x0"
      },
      "nonce": 0,
      "data": "0x3ba15036",
      "r": "0xdaab6e7cff7c464d8e31deec8c662bcde8f07b95dbbfe28a544717332a531ebf",
      "s": "0x0fcc9d1dece37011222c8904bcbaab7dc2e74d34a01a9a2bddf4404ec6506a37",
      "v": 28,
      "creates": null,
      "raw": "0xf86980850ba43b740083015f9094793ae8c1b1a160bfc07bfb0d04f85eab1a71f4f280843ba150361ca0daab6e7cff7c464d8e31deec8c662bcde8f07b95dbbfe28a544717332a531ebfa00fcc9d1dece37011222c8904bcbaab7dc2e74d34a01a9a2bddf4404ec6506a37",
      "networkId": 0,
      "chainId": 0
    },
    {
      "hash": "0xd89dbb0a6959b43239ec34afbe4e24d639ab195576c510d3f1a4b14573c897a8",
      "blockHash": "0x5b8d13b63b6dddaf9b64dd4131634d3381fd257a9bce722303d9bbd4c886c9a7",
      "blockNumber": 68638,
      "transactionIndex": 18,
      "confirmations": null,
      "from": "0xf3aD8f54422aCcfaFD1c09CF7960EaFe3eE1181D",
      "gasPrice": {
        "_hex": "0xba43b7400"
      },
      "gasLimit": {
        "_hex": "0x15f90"
      },
      "to": "0x793AE8C1b1a160BFc07BFB0d04F85eab1A71F4f2",
      "value": {
        "_hex": "0x0"
      },
      "nonce": 0,
      "data": "0x3ba15036",
      "r": "0x08a4b003d125d76fd49d9c1e7466088f73faf7dffc31b55c42487f12cfb03377",
      "s": "0x4e4c8618bfe229d4be873fc23cb815ce2e12fb97ab683fd57134ddc5e1de05e6",
      "v": 27,
      "creates": null,
      "raw": "0xf86980850ba43b740083015f9094793ae8c1b1a160bfc07bfb0d04f85eab1a71f4f280843ba150361ba008a4b003d125d76fd49d9c1e7466088f73faf7dffc31b55c42487f12cfb03377a04e4c8618bfe229d4be873fc23cb815ce2e12fb97ab683fd57134ddc5e1de05e6",
      "networkId": 0,
      "chainId": 0
    },
    {
      "hash": "0x48770a442bd196132b33e06ad47e1af0a37d024151f4ba6c048818977c49ea7a",
      "blockHash": "0x5b8d13b63b6dddaf9b64dd4131634d3381fd257a9bce722303d9bbd4c886c9a7",
      "blockNumber": 68638,
      "transactionIndex": 19,
      "confirmations": null,
      "from": "0x443c060B26fba9E4766C9520FfE9B6679AB800b2",
      "gasPrice": {
        "_hex": "0xba43b7400"
      },
      "gasLimit": {
        "_hex": "0x15f90"
      },
      "to": "0x793AE8C1b1a160BFc07BFB0d04F85eab1A71F4f2",
      "value": {
        "_hex": "0x0"
      },
      "nonce": 0,
      "data": "0x3ba15036",
      "r": "0xbb15029b6e7838b55387cc0b3c2494b4053f796262c0933f5922bb878f3123e4",
      "s": "0x628de9ffb282bcb0aca5427ece5a7bf2b9cb90bc8675b91f94b177ae2e1f5b10",
      "v": 28,
      "creates": null,
      "raw": "0xf86980850ba43b740083015f9094793ae8c1b1a160bfc07bfb0d04f85eab1a71f4f280843ba150361ca0bb15029b6e7838b55387cc0b3c2494b4053f796262c0933f5922bb878f3123e4a0628de9ffb282bcb0aca5427ece5a7bf2b9cb90bc8675b91f94b177ae2e1f5b10",
      "networkId": 0,
      "chainId": 0
    },
    {
      "hash": "0x81c6ed02f49ff409722781d05fafce4b908fd8cd216cd6182c955c8f2b1f6ede",
      "blockHash": "0x5b8d13b63b6dddaf9b64dd4131634d3381fd257a9bce722303d9bbd4c886c9a7",
      "blockNumber": 68638,
      "transactionIndex": 20,
      "confirmations": null,
      "from": "0x0826Ea37259D017E5B660914899770508F6bC4C4",
      "gasPrice": {
        "_hex": "0xba43b7400"
      },
      "gasLimit": {
        "_hex": "0x15f90"
      },
      "to": "0x793AE8C1b1a160BFc07BFB0d04F85eab1A71F4f2",
      "value": {
        "_hex": "0x0"
      },
      "nonce": 0,
      "data": "0x3ba15036",
      "r": "0xecc3244324f95b94d4c25a6f4af2c018a27166125a5f1429e2fa50530f03e3b8",
      "s": "0x2959561654d16b06998d4c489a163d9b67784ff7a66a6cf16c5155c6b20efe84",
      "v": 27,
      "creates": null,
      "raw": "0xf86980850ba43b740083015f9094793ae8c1b1a160bfc07bfb0d04f85eab1a71f4f280843ba150361ba0ecc3244324f95b94d4c25a6f4af2c018a27166125a5f1429e2fa50530f03e3b8a02959561654d16b06998d4c489a163d9b67784ff7a66a6cf16c5155c6b20efe84",
      "networkId": 0,
      "chainId": 0
    },
    {
      "hash": "0xf01c603df7db507d3d19824d39f5a09334f78fb72681ed10a4233f4803d1a80b",
      "blockHash": "0x5b8d13b63b6dddaf9b64dd4131634d3381fd257a9bce722303d9bbd4c886c9a7",
      "blockNumber": 68638,
      "transactionIndex": 21,
      "confirmations": null,
      "from": "0xe5281853Af6D6A551c28B8a3B5024ED7F408c671",
      "gasPrice": {
        "_hex": "0xba43b7400"
      },
      "gasLimit": {
        "_hex": "0x15f90"
      },
      "to": "0x793AE8C1b1a160BFc07BFB0d04F85eab1A71F4f2",
      "value": {
        "_hex": "0x0"
      },
      "nonce": 0,
      "data": "0x3ba15036",
      "r": "0x1302c2cf047b45122af97bcdbd1b0a21394c4d53adb30f999c1af31f81cd04a2",
      "s": "0x465854eae6ec935dcccabcfdce1dc28824ca416a918fe181a8edd2a6569b50f6",
      "v": 28,
      "creates": null,
      "raw": "0xf86980850ba43b740083015f9094793ae8c1b1a160bfc07bfb0d04f85eab1a71f4f280843ba150361ca01302c2cf047b45122af97bcdbd1b0a21394c4d53adb30f999c1af31f81cd04a2a0465854eae6ec935dcccabcfdce1dc28824ca416a918fe181a8edd2a6569b50f6",
      "networkId": 0,
      "chainId": 0
    },
    {
      "hash": "0x2163e0a60ee28d1da6b9aa3d6e19208553589466338332fea14c17c17a49d4b4",
      "blockHash": "0x5b8d13b63b6dddaf9b64dd4131634d3381fd257a9bce722303d9bbd4c886c9a7",
      "blockNumber": 68638,
      "transactionIndex": 22,
      "confirmations": null,
      "from": "0xD58B356Ee2C4b6C34b6F03058A4379ec77d7B21B",
      "gasPrice": {
        "_hex": "0xba43b7400"
      },
      "gasLimit": {
        "_hex": "0x15f90"
      },
      "to": "0x793AE8C1b1a160BFc07BFB0d04F85eab1A71F4f2",
      "value": {
        "_hex": "0x0"
      },
      "nonce": 0,
      "data": "0x3ba15036",
      "r": "0x76b4095868bd9c7c55291ad18fba6d6facdf9b892c635f818f78ba80e99bd943",
      "s": "0x5f192f37e95d474bfc50f4ae21c6691e9552df7c8db38eed806010494a92f802",
      "v": 27,
      "creates": null,
      "raw": "0xf86980850ba43b740083015f9094793ae8c1b1a160bfc07bfb0d04f85eab1a71f4f280843ba150361ba076b4095868bd9c7c55291ad18fba6d6facdf9b892c635f818f78ba80e99bd943a05f192f37e95d474bfc50f4ae21c6691e9552df7c8db38eed806010494a92f802",
      "networkId": 0,
      "chainId": 0
    },
    {
      "hash": "0x8406d858c610456bdd3b428fb66a19965f2e8434e46a34fff52b5d67c099cf4d",
      "blockHash": "0x5b8d13b63b6dddaf9b64dd4131634d3381fd257a9bce722303d9bbd4c886c9a7",
      "blockNumber": 68638,
      "transactionIndex": 23,
      "confirmations": null,
      "from": "0x3bA35e6102d6D6f913026aB2B3833883E234A07D",
      "gasPrice": {
        "_hex": "0xba43b7400"
      },
      "gasLimit": {
        "_hex": "0x15f90"
      },
      "to": "0x793AE8C1b1a160BFc07BFB0d04F85eab1A71F4f2",
      "value": {
        "_hex": "0x0"
      },
      "nonce": 0,
      "data": "0x3ba15036",
      "r": "0x4eb035cd8b52b1d255dedfb948f2e57368b9bc3fedef268d11348d49cc6c2e3c",
      "s": "0x741af02d88f2da81176227d0c4f42c51b178a030b8b7fa1c200412080cf12c26",
      "v": 27,
      "creates": null,
      "raw": "0xf86980850ba43b740083015f9094793ae8c1b1a160bfc07bfb0d04f85eab1a71f4f280843ba150361ba04eb035cd8b52b1d255dedfb948f2e57368b9bc3fedef268d11348d49cc6c2e3ca0741af02d88f2da81176227d0c4f42c51b178a030b8b7fa1c200412080cf12c26",
      "networkId": 0,
      "chainId": 0
    },
    {
      "hash": "0x709468439088f6e51abbe8b341d20c9c16cd34955ab8ebe4db3b45a39e5011bf",
      "blockHash": "0x5b8d13b63b6dddaf9b64dd4131634d3381fd257a9bce722303d9bbd4c886c9a7",
      "blockNumber": 68638,
      "transactionIndex": 24,
      "confirmations": null,
      "from": "0x21AB3da0261Cd18583213890949288776E85a8b3",
      "gasPrice": {
        "_hex": "0xba43b7400"
      },
      "gasLimit": {
        "_hex": "0x15f90"
      },
      "to": "0x793AE8C1b1a160BFc07BFB0d04F85eab1A71F4f2",
      "value": {
        "_hex": "0x0"
      },
      "nonce": 0,
      "data": "0x3ba15036",
      "r": "0x0e8ac37d5ae89679958043010be28610ece7982ab60aae2c6d4f2d5e095c3621",
      "s": "0x3251cb2cc2bac7a278ff7b508adf1dffff8ce65bd52725ba0bc03fa8ce9766da",
      "v": 27,
      "creates": null,
      "raw": "0xf86980850ba43b740083015f9094793ae8c1b1a160bfc07bfb0d04f85eab1a71f4f280843ba150361ba00e8ac37d5ae89679958043010be28610ece7982ab60aae2c6d4f2d5e095c3621a03251cb2cc2bac7a278ff7b508adf1dffff8ce65bd52725ba0bc03fa8ce9766da",
      "networkId": 0,
      "chainId": 0
    }
  ]
}