{
  "hash": "0x6922dd385659dd8a3168a602fcaad728691246e7961cd9cead68e2701f4e011e",
  "parentHash": "0xfa44592080da488df6f22d82d12611af320d2c0bda834fdd534f25f114905055",
  "number": 54592,
  "timestamp": 1439056618,
  "nonce": "0xe2fee17fb2793879",
  "difficulty": 1622816066090,
  "gasLimit": {
    "_hex": "0x2fefd8"
  },
  "gasUsed": {
    "_hex": "0x5208"
  },
  "miner": "0xbb7B8287f3F0a933474a79eAe42CBCa977791171",
  "extraData": "0x476574682f4c5649562f76312e302e312f6c696e75782f676f312e342e32",
  "transactions": [
    {
      "hash": "0x7dfaf66db18b10e9573905ebe8d708affb12968d5ae1bba7acb236b7c9ea6836",
      "blockHash": "0x6922dd385659dd8a3168a602fcaad728691246e7961cd9cead68e2701f4e011e",
      "blockNumber": 54592,
      "transactionIndex": 0,
      "confirmations": null,
      "from": "0xCA092A957744f6385B1aee5dC694143E8A06F805",
      "gasPrice": {
        "_hex": "0xdb89b1769"
      },
      "gasLimit": {
        "_hex": "0x15f90"
      },
      "to": "0x92EEa4A1bC26D134B0489259eaC512657477c8A9",
      "value": {
        "_hex": "0x6056c0a28bbf400"
      },
      "nonce": 17,
      "data": "0x",
      "r": "0x126c3b0bc91867b5750ca11590417b416272e8625041960adb3fd3b0c018e133",
      "s": "0x723967a0ffa8fa93cd3a4931cc234f19a1ff9878802f5bef571aba77cb98ec47",
      "v": 28,
      "creates": null,
      "raw": "0xf86d11850db89b176983015f909492eea4a1bc26d134b0489259eac512657477c8a98806056c0a28bbf400801ca0126c3b0bc91867b5750ca11590417b416272e8625041960adb3fd3b0c018e133a0723967a0ffa8fa93cd3a4931cc234f19a1ff9878802f5bef571aba77cb98ec47",
      "networkId": 0,
      "chainId": 0
    }
  ]
}