{
  "hash": "0x93572a60982bc66e481728ac062a57866be196cd37138251b71b621090650fd5",
  "parentHash": "0xb22df4629f2bd713fde8137ad9e1611845372faea11e791e681e81bf1d714e6c",
  "number": 116584,
  "timestamp": 1440090756,
  "nonce": "0x14d92c2ace400caf",
  "difficulty": 4491396309418,
  "gasLimit": {
    "_hex": "0x2fefd8"
  },
  "gasUsed": {
    "_hex": "0x5208"
  },
  "miner": "0xe6A7a1d47ff21B6321162AEA7C6CB457D5476Bca",
  "extraData": "0xd783010002844765746887676f312e342e32856c696e7578",
  "transactions": [
    {
      "hash": "0xcc875af89dea4a298bd0c9345e461ad871572b5d5efb34dc2c7fcd85d26796aa",
      "blockHash": "0x93572a60982bc66e481728ac062a57866be196cd37138251b71b621090650fd5",
      "blockNumber": 116584,
      "transactionIndex": 0,
      "confirmations": null,
      "from": "0x2FdA34cB6C13420bA8b8Af3cB1BA4F7CBb167821",
      "gasPrice": {
        "_hex": "0xda11a0b7c"
      },
      "gasLimit": {
        "_hex": "0x15f90"
      },
      "to": "0x2FdA34cB6C13420bA8b8Af3cB1BA4F7CBb167821",
      "value": {
        "_hex": "0x16345785d8a0000"
      },
      "nonce": 1,
      "data": "0x",
      "r": "0x776dc987fd8c3a70edcf6fcde8cf762db7fd7cd966c9905eaaa38b68a968ff96",
      "s": "0x6b04efc650a2674ec1e2667284bc06b16138d75518735fb03ef456132bf820f2",
      "v": 28,
      "creates": null,
      "raw": "0xf86d01850da11a0b7c83015f90942fda34cb6c13420ba8b8af3cb1ba4f7cbb16782188016345785d8a0000801ca0776dc987fd8c3a70edcf6fcde8cf762db7fd7cd966c9905eaaa38b68a968ff96a06b04efc650a2674ec1e2667284bc06b16138d75518735fb03ef456132bf820f2",
      "networkId": 0,
      "chainId": 0
    }
  ]
}