{
  "hash": "0xacf1fe45cfe61112db2927ed20065fee6a4bbd82ee74e6cb0fed2bb596deffb2",
  "parentHash": "0xca3043d1cf141e22c0a118c898c673a8c1184da99bc9ad45d8a3371148ac5423",
  "number": 71344,
  "timestamp": 1439334423,
  "nonce": "0xb4bdd1ff9bf99135",
  "difficulty": 2177253933342,
  "gasLimit": {
    "_hex": "0x2fefd8"
  },
  "gasUsed": {
    "_hex": "0x9400"
  },
  "miner": "0x02020D22dCF88f5eDd66B382D7da019F161fB7e3",
  "extraData": "0x",
  "transactions": [
    {
      "hash": "0xe21917650e1ba4edcc2011e63c93e0dc0335ca5ed83bb0b83ca09cfef85a0ad9",
      "blockHash": "0xacf1fe45cfe61112db2927ed20065fee6a4bbd82ee74e6cb0fed2bb596deffb2",
      "blockNumber": 71344,
      "transactionIndex": 0,
      "confirmations": null,
      "from": "0x17580B766f7453525ca4C6A88b01b50570EA088C",
      "gasPrice": {
        "_hex": "0xcb0811070"
      },
      "gasLimit": {
        "_hex": "0x61a80"
      },
      "to": "0x5Fe5B7546D1628f7348B023A0393de1FC825A4fD",
      "value": {
        "_hex": "0xde0b6b3a7640000"
      },
      "nonce": 154,
      "data": "0xb595b8b50000000000000000000000000000000000000000000000000000000000000001",
      "r": "0xfe33d4b540e2e351094a5dd62a7ad9b592faa962914efbcf0b6d6e021acda976",
      "s": "0x48bc8724a5fdff8d1fa41ab62a43bfc3849c0a5f7d183543c523d272db192364",
      "v": 27,
      "creates": null,
      "raw": "0xf892819a850cb081107083061a80945fe5b7546d1628f7348b023a0393de1fc825a4fd880de0b6b3a7640000a4b595b8b500000000000000000000000000000000000000000000000000000000000000011ba0fe33d4b540e2e351094a5dd62a7ad9b592faa962914efbcf0b6d6e021acda976a048bc8724a5fdff8d1fa41ab62a43bfc3849c0a5f7d183543c523d272db192364",
      "networkId": 0,
      "chainId": 0
    }
  ]
}