{
  "hash": "0x51c2fa52dc2342978c4bb160fdc6178eefdd7a79710f82fd00d916f7881bf15d",
  "parentHash": "0x6472adde18ea48040d746f28d0cb504043a6d4b9498743ef8240f2d90674b011",
  "number": 121924,
  "timestamp": 1440185004,
  "nonce": "0x955131c51a4871a8",
  "difficulty": 4471038943570,
  "gasLimit": {
    "_hex": "0x2fefd8"
  },
  "gasUsed": {
    "_hex": "0xa410"
  },
  "miner": "0xe6A7a1d47ff21B6321162AEA7C6CB457D5476Bca",
  "extraData": "0xd783010002844765746887676f312e342e32856c696e7578",
  "transactions": [
    {
      "hash": "0x3995decee0a3ac6583c830be96b47d0760d0ec232dd3f9dad55e5d4068a2f694",
      "blockHash": "0x51c2fa52dc2342978c4bb160fdc6178eefdd7a79710f82fd00d916f7881bf15d",
      "blockNumber": 121924,
      "transactionIndex": 0,
      "confirmations": null,
      "from": "0xe6A7a1d47ff21B6321162AEA7C6CB457D5476Bca",
      "gasPrice": {
        "_hex": "0xba43b7400"
      },
      "gasLimit": {
        "_hex": "0x55f0"
      },
      "to": "0xF2C14aDd753869D4EEdfefdCdFBA341Abfa1D702",
      "value": {
        "_hex": "0x1e8d71935b064f1c"
      },
      "nonce": 6773,
      "data": "0x",
      "r": "0xbd0398080eb830c7df7a4b0ae069fda4c6993973d34ed2149c67e272d44d601c",
      "s": "0x306b571f1eb5b12799acd53aecdbee9dbb30188dfb30120bb9fa0ad989f4fb5d",
      "v": 28,
      "creates": null,
      "raw": "0xf86e821a75850ba43b74008255f094f2c14add753869d4eedfefdcdfba341abfa1d702881e8d71935b064f1c801ca0bd0398080eb830c7df7a4b0ae069fda4c6993973d34ed2149c67e272d44d601ca0306b571f1eb5b12799acd53aecdbee9dbb30188dfb30120bb9fa0ad989f4fb5d",
      "networkId": 0,
      "chainId": 0
    },
    {
      "hash": "0x672421e68f7a1cd7e45f372ecd2f4a96857bdc1093575ea69c36bbe612c918b2",
      "blockHash": "0x51c2fa52dc2342978c4bb160fdc6178eefdd7a79710f82fd00d916f7881bf15d",
      "blockNumber": 121924,
      "transactionIndex": 1,
      "confirmations": null,
      "from": "0x1C257ad4A55105ea3B58Ed374b198dA266c85f63",
      "gasPrice": {
        "_hex": "0xba43b7400"
      },
      "gasLimit": {
        "_hex": "0x5208"
      },
      "to": "0xbF61b895993396Eccb341Cd1CDdC2ef0C0601c72",
      "value": {
        "_hex": "0x5af3107a4000"
      },
      "nonce": 13,
      "data": "0x",
      "r": "0xb65dbbd9a181b942ebfc6881ae5c9901dd060b2aba4807dfb03243721f4e4b41",
      "s": "0x00718357c6a9b3fd0e37c854d246798dc8c6034683cdb9f4c0b23fcd40abc2b4",
      "v": 27,
      "creates": null,
      "raw": "0xf8690d850ba43b740082520894bf61b895993396eccb341cd1cddc2ef0c0601c72865af3107a4000801ba0b65dbbd9a181b942ebfc6881ae5c9901dd060b2aba4807dfb03243721f4e4b419f718357c6a9b3fd0e37c854d246798dc8c6034683cdb9f4c0b23fcd40abc2b4",
      "networkId": 0,
      "chainId": 0
    }
  ]
}