{
  "hash": "0x1028c93cb940bc305c14e43d2547e6d721a1dd54f5e5a06c97ec776bce136da1",
  "parentHash": "0x624b6778f7b32fdd57eb93c00e0b7542c2e4bd6983a2a65ce200a73fdc60212c",
  "number": 83447,
  "timestamp": 1439535468,
  "nonce": "0x6be51e1127db00f8",
  "difficulty": 2436082385248,
  "gasLimit": {
    "_hex": "0x2fefd8"
  },
  "gasUsed": {
    "_hex": "0x546c"
  },
  "miner": "0x897d64aD0a333394b4E4ae8e8DCccdbc71d4E4E8",
  "extraData": "0x",
  "transactions": [
    {
      "hash": "0xee9c9c0e78c332f5ba868117ab84f961270d825955ba755768c2e967595de257",
      "blockHash": "0x1028c93cb940bc305c14e43d2547e6d721a1dd54f5e5a06c97ec776bce136da1",
      "blockNumber": 83447,
      "transactionIndex": 0,
      "confirmations": null,
      "from": "0x29C0024a99b44d481694cB5D98907a1343D390fD",
      "gasPrice": {
        "_hex": "0xd575225eb"
      },
      "gasLimit": {
        "_hex": "0x55f0"
      },
      "to": "0x2910543Af39abA0Cd09dBb2D50200b3E800A63D2",
      "value": {
        "_hex": "0x8ac7230489e80000"
      },
      "nonce": 7,
      "data": "0x454e39333158545447",
      "r": "0x3b5591e30213becc1fd8e341d63790d13dd4e7b5fec0fa35fe13034679db1132",
      "s": "0x238dfc7f3e0ab46b3126046d8bae1139ae73f5dbd64e83f26f90d476a8edf7c6",
      "v": 27,
      "creates": null,
      "raw": "0xf87507850d575225eb8255f0942910543af39aba0cd09dbb2d50200b3e800a63d2888ac7230489e8000089454e393331585454471ba03b5591e30213becc1fd8e341d63790d13dd4e7b5fec0fa35fe13034679db1132a0238dfc7f3e0ab46b3126046d8bae1139ae73f5dbd64e83f26f90d476a8edf7c6",
      "networkId": 0,
      "chainId": 0
    }
  ]
}