{
  "hash": "0x006f040f45e7c5d9097c6bf74c23ecf4ab431281ac078829b5cc23391b45f460",
  "parentHash": "0x37dc3b7d57ec83deae21bb0828f6827855d0b61873981f744bcc2e34ab18e2e0",
  "number": 60583,
  "timestamp": 1439158317,
  "nonce": "0xba9f34e803dae46e",
  "difficulty": 1730465038854,
  "gasLimit": {
    "_hex": "0x2fefd8"
  },
  "gasUsed": {
    "_hex": "0x14820"
  },
  "miner": "0x051219f568c86EA6DD6Dd2cC8052c31504F33d44",
  "extraData": "0x52696735",
  "transactions": [
    {
      "hash": "0x2585159897f280b55023df7f0b5a678596186f7b9b5b5db993e8db64adc32e51",
      "blockHash": "0x006f040f45e7c5d9097c6bf74c23ecf4ab431281ac078829b5cc23391b45f460",
      "blockNumber": 60583,
      "transactionIndex": 0,
      "confirmations": null,
      "from": "0x563b73aFFFD7381A4e96eC15E09af844df196545",
      "gasPrice": {
        "_hex": "0xce1aa01d9"
      },
      "gasLimit": {
        "_hex": "0x5208"
      },
      "to": "0x32Be343B94f860124dC4fEe278FDCBD38C102D88",
      "value": {
        "_hex": "0x8ac30254956ba000"
      },
      "nonce": 0,
      "data": "0x",
      "r": "0xc006d6efa34f76f9c8b8dedf53e9f94d41482bea08efe9015fc7e54c0ee0823b",
      "s": "0x675afecd1d608fdc00a0def783a6618deee4af0536c04df785708c2f684b5ecb",
      "v": 28,
      "creates": null,
      "raw": "0xf86c80850ce1aa01d98252089432be343b94f860124dc4fee278fdcbd38c102d88888ac30254956ba000801ca0c006d6efa34f76f9c8b8dedf53e9f94d41482bea08efe9015fc7e54c0ee0823ba0675afecd1d608fdc00a0def783a6618deee4af0536c04df785708c2f684b5ecb",
      "networkId": 0,
      "chainId": 0
    },
    {
      "hash": "0xc742474318a9a0940a3cfe28672aa690b36f2d3603ebb865f925ea88a87cff7f",
      "blockHash": "0x006f040f45e7c5d9097c6bf74c23ecf4ab431281ac078829b5cc23391b45f460",
      "blockNumber": 60583,
      "transactionIndex": 1,
      "confirmations": null,
      "from": "0x725af55dE80C8186B3a89f51EBEFc719068A78B4",
      "gasPrice": {
        "_hex": "0xce1aa01d9"
      },
      "gasLimit": {
        "_hex": "0x5208"
      },
      "to": "0x32Be343B94f860124dC4fEe278FDCBD38C102D88",
      "value": {
        "_hex": "0x8ab134d33e4fc000"
      },
      "nonce": 1,
      "data": "0x",
      "r": "0xf05fdb5239e34b61b108950ed8beb011ed5d7d08bfa69fc39e63f9b725390e5a",
      "s": "0x31390c4ec2ec5f82640c399a84301dc65fbf72263ca65721efb7b409afc1b7b1",
      "v": 27,
      "creates": null,
      "raw": "0xf86c01850ce1aa01d98252089432be343b94f860124dc4fee278fdcbd38c102d88888ab134d33e4fc000801ba0f05fdb5239e34b61b108950ed8beb011ed5d7d08bfa69fc39e63f9b725390e5aa031390c4ec2ec5f82640c399a84301dc65fbf72263ca65721efb7b409afc1b7b1",
      "networkId": 0,
      "chainId": 0
    },
    {
      "hash": "0xeb0b73cbdd1c144be949cd3ce79adff34cb67d6bc63688b1e545d53f8bdc38ed",
      "blockHash": "0x006f040f45e7c5d9097c6bf74c23ecf4ab431281ac078829b5cc23391b45f460",
      "blockNumber": 60583,
      "transactionIndex": 2,
      "confirmations": null,
      "from": "0x262ea22933FceB570aDFCd94B46B9bAe39e8f21f",
      "gasPrice": {
        "_hex": "0xce1aa01d9"
      },
      "gasLimit": {
        "_hex": "0x5208"
      },
      "to": "0x32Be343B94f860124dC4fEe278FDCBD38C102D88",
      "value": {
        "_hex": "0x5799230b7de170000"
      },
      "nonce": 0,
      "data": "0x",
      "r": "0xc3886f688d66f4d8819c23601d0849e1e3f045656b461a93ae05de9fb79d56dc",
      "s": "0x6b98c51c156ae41ea44e3900272af50df17179d96dc059d0c2dc1d20b1226f83",
      "v": 27,
      "creates": null,
      "raw": "0xf86d80850ce1aa01d98252089432be343b94f860124dc4fee278fdcbd38c102d888905799230b7de170000801ba0c3886f688d66f4d8819c23601d0849e1e3f045656b461a93ae05de9fb79d56dca06b98c51c156ae41ea44e3900272af50df17179d96dc059d0c2dc1d20b1226f83",
      "networkId": 0,
      "chainId": 0
    },
    {
      "hash": "0x020c3cc8a50ff5d202a025686a8a4145e73f191a9b3aa8f6393b42a9d6617f5c",
      "blockHash": "0x006f040f45e7c5d9097c6bf74c23ecf4ab431281ac078829b5cc23391b45f460",
      "blockNumber": 60583,
      "transactionIndex": 3,
      "confirmations": null,
      "from": "0x8F586E3212291c58DCc78980a9c3432a3aFd3b6E",
      "gasPrice": {
        "_hex": "0xce1aa01d9"
      },
      "gasLimit": {
        "_hex": "0x5208"
      },
      "to": "0x32Be343B94f860124dC4fEe278FDCBD38C102D88",
      "value": {
        "_hex": "0x8ab13edb5d8b2000"
      },
      "nonce": 2,
      "data": "0x",
      "r": "0x88b0d5c326693272146e3da4b499869f33a75880f1d8d53722d9e939f63b5410",
      "s": "0x414fb6b0b29cd0e4f7000e1fb6aa7ee542be98159b14c738a24c111439b91b1f",
      "v": 28,
      "creates": null,
      "raw": "0xf86c02850ce1aa01d98252089432be343b94f860124dc4fee278fdcbd38c102d88888ab13edb5d8b2000801ca088b0d5c326693272146e3da4b499869f33a75880f1d8d53722d9e939f63b5410a0414fb6b0b29cd0e4f7000e1fb6aa7ee542be98159b14c738a24c111439b91b1f",
      "networkId": 0,
      "chainId": 0
    }
  ]
}