{
  "hash": "0x6e6a496ad32052023cace3b2b33dc7d73268d66bea4fe75af33b6b7b33bfa475",
  "parentHash": "0x139aaa8381b91ee530b4e96a24459c7ecc601848526478f83fb2406d71e41b1c",
  "number": 112143,
  "timestamp": 1440002665,
  "nonce": "0x73dc9d434e60d8f1",
  "difficulty": 4374698368553,
  "gasLimit": {
    "_hex": "0x2fefd8"
  },
  "gasUsed": {
    "_hex": "0x6888"
  },
  "miner": "0xe6A7a1d47ff21B6321162AEA7C6CB457D5476Bca",
  "extraData": "0x476574682f76312e302e312d38326566323666362f6c696e75782f676f312e34",
  "transactions": [
    {
      "hash": "0xff83a2a266f17a8607acb5bbcef76034df9ef01c533743a90190145230f23e9d",
      "blockHash": "0x6e6a496ad32052023cace3b2b33dc7d73268d66bea4fe75af33b6b7b33bfa475",
      "blockNumber": 112143,
      "transactionIndex": 0,
      "confirmations": null,
      "from": "0xc469E0161968f12A38E4c1A1c153a18207e040c8",
      "gasPrice": {
        "_hex": "0xd515f5901"
      },
      "gasLimit": {
        "_hex": "0x15f90"
      },
      "to": "0x4d6387f3B967dA39B11DE111158D49754C31985d",
      "value": {
        "_hex": "0x0"
      },
      "nonce": 17,
      "data": "0x26a183750000000000000000000000000000000000000000000000000000000000000001",
      "r": "0x61192780b4fd486bf7e74cec4298684b268458315a19bf26bac376a6c13d2692",
      "s": "0x43a47cb32c7fc836ac670e48228d22b246feff0d1ea41a8c8ff5afe041ade246",
      "v": 27,
      "creates": null,
      "raw": "0xf88911850d515f590183015f90944d6387f3b967da39b11de111158d49754c31985d80a426a1837500000000000000000000000000000000000000000000000000000000000000011ba061192780b4fd486bf7e74cec4298684b268458315a19bf26bac376a6c13d2692a043a47cb32c7fc836ac670e48228d22b246feff0d1ea41a8c8ff5afe041ade246",
      "networkId": 0,
      "chainId": 0
    }
  ]
}