{
  "hash": "0x42827c60a9dc71ab1b48ce53eddf53e42a1f87b3beb3698a1a7765b870610c75",
  "parentHash": "0x5de41497129f240f5dcf3372c473cadb197d446eda2fa4d923a5f47f0913b589",
  "number": 66910,
  "timestamp": 1439262431,
  "nonce": "0x80025b99e2d87023",
  "difficulty": 1952709674273,
  "gasLimit": {
    "_hex": "0x2fefd8"
  },
  "gasUsed": {
    "_hex": "0x8c2e"
  },
  "miner": "0xf8E0CA3Ed80bd541b94BEdCf259e8CF2141A9523",
  "extraData": "0x476574682f76312e302e312f77696e646f77732f676f312e342e32",
  "transactions": [
    {
      "hash": "0xda2d06ac186242739987b7e86797ecc216fcb9c25fda0d83f099685f302a73f6",
      "blockHash": "0x42827c60a9dc71ab1b48ce53eddf53e42a1f87b3beb3698a1a7765b870610c75",
      "blockNumber": 66910,
      "transactionIndex": 0,
      "confirmations": null,
      "from": "0xFBb1b73C4f0BDa4f67dcA266ce6Ef42f520fBB98",
      "gasPrice": {
        "_hex": "0xdb6019602"
      },
      "gasLimit": {
        "_hex": "0x15f90"
      },
      "to": "0xCAc7000C7dBaa2E33Af15325AF5D435E011C7BdD",
      "value": {
        "_hex": "0x3d0ff0b013b8000"
      },
      "nonce": 23,
      "data": "0x6042a7604249545452455830300000000000000000000000000000000000000000000000000000000000000000000000cac7000c7dbaa2e33af15325af5d435e011c7bdd414243444546474849000000000000000000000000000000000000000000000000000000000000000000000000000000000000000000000003d0ff0b013b8000",
      "r": "0xfb3860c085c5f28f13835df2705ebf28fba770a254a98f7c982b90ccc2bcceeb",
      "s": "0x671de52e1663c4c1add4257c528853c8b21c9d861f0832ad438e58861550fa7c",
      "v": 27,
      "creates": null,
      "raw": "0xf8f217850db601960283015f9094cac7000c7dbaa2e33af15325af5d435e011c7bdd8803d0ff0b013b8000b8846042a7604249545452455830300000000000000000000000000000000000000000000000000000000000000000000000cac7000c7dbaa2e33af15325af5d435e011c7bdd414243444546474849000000000000000000000000000000000000000000000000000000000000000000000000000000000000000000000003d0ff0b013b80001ba0fb3860c085c5f28f13835df2705ebf28fba770a254a98f7c982b90ccc2bcceeba0671de52e1663c4c1add4257c528853c8b21c9d861f0832ad438e58861550fa7c",
      "networkId": 0,
      "chainId": 0
    }
  ]
}