{
  "hash": "0x7333a1876919827dd07a319cd87bb6cbd4a316622c548a38255a38547782a2ce",
  "parentHash": "0x0ee202d341ae0db5c81b8b108002a3e4701c83c328352ca3509ca16d0b16359e",
  "number": 108346,
  "timestamp": 1439938688,
  "nonce": "0x64d8c3274808c687",
  "difficulty": 4357487715435,
  "gasLimit": {
    "_hex": "0x2fefd8"
  },
  "gasUsed": {
    "_hex": "0x5208"
  },
  "miner": "0xe6A7a1d47ff21B6321162AEA7C6CB457D5476Bca",
  "extraData": "0x476574682f76312e302e312d38326566323666362f6c696e75782f676f312e34",
  "transactions": [
    {
      "hash": "0x91b7dae7b64acc08a6e12b8646020656c913d20a710a84f1483f83261500f879",
      "blockHash": "0x7333a1876919827dd07a319cd87bb6cbd4a316622c548a38255a38547782a2ce",
      "blockNumber": 108346,
      "transactionIndex": 0,
      "confirmations": null,
      "from": "0x569dD5Eb83f3CEc4AD32BbCF28b0d07A98704105",
      "gasPrice": {
        "_hex": "0xd982ed071"
      },
      "gasLimit": {
        "_hex": "0x5208"
      },
      "to": "0x32Be343B94f860124dC4fEe278FDCBD38C102D88",
      "value": {
        "_hex": "0xacc2e399de076000"
      },
      "nonce": 2,
      "data": "0x",
      "r": "0x51233a46bcc092deee3895b5682e1dd793921a8efdfa8051926587e885dc0c16",
      "s": "0x5a7e495c03b601fb55cf4f8be463fee4411d39597e0707ed73f805df88cb6725",
      "v": 27,
      "creates": null,
      "raw": "0xf86c02850d982ed0718252089432be343b94f860124dc4fee278fdcbd38c102d8888acc2e399de076000801ba051233a46bcc092deee3895b5682e1dd793921a8efdfa8051926587e885dc0c16a05a7e495c03b601fb55cf4f8be463fee4411d39597e0707ed73f805df88cb6725",
      "networkId": 0,
      "chainId": 0
    }
  ]
}