{
  "hash": "0x17c07f1ba8b18550daed5bb388d49e58efae99dfb589adfbce8a4559a8cfe5d9",
  "parentHash": "0x9b6a73825fece03825b0b423c4dfe27ea807845b066019af5494368c5f791939",
  "number": 97070,
  "timestamp": 1439750336,
  "nonce": "0xe111361d5acc6e7c",
  "difficulty": 3757770423287,
  "gasLimit": {
    "_hex": "0x2fefd8"
  },
  "gasUsed": {
    "_hex": "0x520c"
  },
  "miner": "0xe6A7a1d47ff21B6321162AEA7C6CB457D5476Bca",
  "extraData": "0x476574682f76312e302e312d38326566323666362f6c696e75782f676f312e34",
  "transactions": [
    {
      "hash": "0xf7b5860ff569b0cf6909a44a129894c2be4c61a0b26c69a2d3a48ec103a3158b",
      "blockHash": "0x17c07f1ba8b18550daed5bb388d49e58efae99dfb589adfbce8a4559a8cfe5d9",
      "blockNumber": 97070,
      "transactionIndex": 0,
      "confirmations": null,
      "from": "0x97a0BD8D5FA29F234F5804b23f1AD0f416302742",
      "gasPrice": {
        "_hex": "0xe227c2476"
      },
      "gasLimit": {
        "_hex": "0x7530"
      },
      "to": "0xEaB8D56D25517E84113A10b3b69C242A3E000Dd9",
      "value": {
        "_hex": "0x3782dace9d900000"
      },
      "nonce": 0,
      "data": "0x00",
      "r": "0xef57470d2c4e1c9919fc8f5cb44893ce4eebe1d88e4dad463a11003fb8f3caba",
      "s": "0x355dde723785708646a40a3e7af4d7fa9ec73b82fddcedc265f2bb0b003bbda3",
      "v": 27,
      "creates": null,
      "raw": "0xf86c80850e227c247682753094eab8d56d25517e84113a10b3b69c242a3e000dd9883782dace9d900000001ba0ef57470d2c4e1c9919fc8f5cb44893ce4eebe1d88e4dad463a11003fb8f3cabaa0355dde723785708646a40a3e7af4d7fa9ec73b82fddcedc265f2bb0b003bbda3",
      "networkId": 0,
      "chainId": 0
    }
  ]
}