{
  "hash": "0xf15ae570a62a975698289e8662ee99e19ccbcb512d0c96a4190d9c16ca7542ac",
  "parentHash": "0x2708270deb67fc1b2a8bde8bf42bea8811b211c141caac43dd359a427dd1d2ec",
  "number": 68454,
  "timestamp": 1439288159,
  "nonce": "0x093f503353538cf7",
  "difficulty": 2008431843349,
  "gasLimit": {
    "_hex": "0x2fefd8"
  },
  "gasUsed": {
    "_hex": "0x14820"
  },
  "miner": "0x47ff6576639c2e94762eA5443978D7681C0E78DC",
  "extraData": "0x476574682f76312e302e312f6c696e75782f676f312e342e32",
  "transactions": [
    {
      "hash": "0x4126e4bd2214b388a76876e4d5e63d14e2790d152b11f44a7fc0b57eec24ace3",
      "blockHash": "0xf15ae570a62a975698289e8662ee99e19ccbcb512d0c96a4190d9c16ca7542ac",
      "blockNumber": 68454,
      "transactionIndex": 0,
      "confirmations": null,
      "from": "0xa5A9a1e2B36f069c24949c0caaaf1481ADf6A152",
      "gasPrice": {
        "_hex": "0xba43b7400"
      },
      "gasLimit": {
        "_hex": "0x5208"
      },
      "to": "0xfb4eCf3998CF7E071cE12E469B1Ce3Df4c3d57Ee",
      "value": {
        "_hex": "0xd8e5610f40e000"
      },
      "nonce": 1,
      "data": "0x",
      "r": "0xc8e814b7e1699ac0b728281f174e0b1d48137a8179a63d3e2f2c5265de6ac410",
      "s": "0x1b5b38faafcf43f5bbb094261a7b5cb4366a7d470985334a9e512b7abb7f9b86",
      "v": 28,
      "creates": null,
      "raw": "0xf86b01850ba43b740082520894fb4ecf3998cf7e071ce12e469b1ce3df4c3d57ee87d8e5610f40e000801ca0c8e814b7e1699ac0b728281f174e0b1d48137a8179a63d3e2f2c5265de6ac410a01b5b38faafcf43f5bbb094261a7b5cb4366a7d470985334a9e512b7abb7f9b86",
      "networkId": 0,
      "chainId": 0
    },
    {
      "hash": "0x9804a3ffa73dee14216d3bb4d12b3c223e2d6df888bfd360eb157b7c4964fcee",
      "blockHash": "0xf15ae570a62a975698289e8662ee99e19ccbcb512d0c96a4190d9c16ca7542ac",
      "blockNumber": 68454,
      "transactionIndex": 1,
      "confirmations": null,
      "from": "0x4De445d24Bf79373B9209d5F40bD28952469fe41",
      "gasPrice": {
        "_hex": "0xba43b7400"
      },
      "gasLimit": {
        "_hex": "0x5208"
      },
      "to": "0x28241F789C933E6A10Da044a3C7fdC5E049e9404",
      "value": {
        "_hex": "0xd8e5610f40e000"
      },
      "nonce": 1,
      "data": "0x",
      "r": "0xe6b0791e53135bad1b525ec3b3e7429d5ce6744e26fc5f4b270853b3636f4318",
      "s": "0x138a4c5490adf7a14ad0c8127b538607f534870ce87c205e98b5446fa6ae14d4",
      "v": 28,
      "creates": null,
      "raw": "0xf86b01850ba43b74008252089428241f789c933e6a10da044a3c7fdc5e049e940487d8e5610f40e000801ca0e6b0791e53135bad1b525ec3b3e7429d5ce6744e26fc5f4b270853b3636f4318a0138a4c5490adf7a14ad0c8127b538607f534870ce87c205e98b5446fa6ae14d4",
      "networkId": 0,
      "chainId": 0
    },
    {
      "hash": "0xf6a13f9b0861204e989adf6fbdb61981e091a571420f127f20944009f45c6b71",
      "blockHash": "0xf15ae570a62a975698289e8662ee99e19ccbcb512d0c96a4190d9c16ca7542ac",
      "blockNumber": 68454,
      "transactionIndex": 2,
      "confirmations": null,
      "from": "0xEfEEde8724b0CCEd4D2f8bD1CB768bFc5dE64CF1",
      "gasPrice": {
        "_hex": "0xba43b7400"
      },
      "gasLimit": {
        "_hex": "0x5208"
      },
      "to": "0x182878E11b52daa7E077408652260B186de74Bde",
      "value": {
        "_hex": "0xd8e5610f40e000"
      },
      "nonce": 1,
      "data": "0x",
      "r": "0x687d630c8f51b8ceb784acc8c620b549173b45c2a962eb30ff20b5997b05f814",
      "s": "0x58437f0311b04315f9c0468bec51d35d234eb39c8f5d3c38183ca8a742ab0b06",
      "v": 28,
      "creates": null,
      "raw": "0xf86b01850ba43b740082520894182878e11b52daa7e077408652260b186de74bde87d8e5610f40e000801ca0687d630c8f51b8ceb784acc8c620b549173b45c2a962eb30ff20b5997b05f814a058437f0311b04315f9c0468bec51d35d234eb39c8f5d3c38183ca8a742ab0b06",
      "networkId": 0,
      "chainId": 0
    },
    {
      "hash": "0xa338511c2ba7983413a00cc39f4e9f6b4b37b295d4e2b34649a1603919aa7c1a",
      "blockHash": "0xf15ae570a62a975698289e8662ee99e19ccbcb512d0c96a4190d9c16ca7542ac",
      "blockNumber": 68454,
      "transactionIndex": 3,
      "confirmations": null,
      "from": "0x1292aff0a543E5861D1a729F0345af927abdC0B1",
      "gasPrice": {
        "_hex": "0xba43b7400"
      },
      "gasLimit": {
        "_hex": "0x5208"
      },
      "to": "0xb164F2639f3CA9f1212cdf4E2D717451658455f3",
      "value": {
        "_hex": "0xd8e5610f40e000"
      },
      "nonce": 1,
      "data": "0x",
      "r": "0x0cb4940d74a8576c3bccc5ab23863dec46dd99c6772e61cbd05d95c3894d7950",
      "s": "0x515e6f45ec746522e1a188ba8dca2859694e16590a2ecc157c2e4dec1000b0d3",
      "v": 28,
      "creates": null,
      "raw": "0xf86b01850ba43b740082520894b164f2639f3ca9f1212cdf4e2d717451658455f387d8e5610f40e000801ca00cb4940d74a8576c3bccc5ab23863dec46dd99c6772e61cbd05d95c3894d7950a0515e6f45ec746522e1a188ba8dca2859694e16590a2ecc157c2e4dec1000b0d3",
      "networkId": 0,
      "chainId": 0
    }
  ]
}