{
  "hash": "0x04e961faba53dec8d2b515a7a1e73d01b883f7d668bfabbc7d830f148a8a3101",
  "parentHash": "0xa26422bb8fa92c6b80a95b2053785ac5f06860440d678a1ca4cce3faf450fdf4",
  "number": 80478,
  "timestamp": 1439486066,
  "nonce": "0xc87fd64122a34fce",
  "difficulty": 2416799924089,
  "gasLimit": {
    "_hex": "0x2fe3de"
  },
  "gasUsed": {
    "_hex": "0xaa37"
  },
  "miner": "0xad5C1768e5974C231b2148169da064e61910f31a",
  "extraData": "0x476574682f76312e302e302f6c696e75782f676f312e342e32",
  "transactions": [
    {
      "hash": "0x227f758590b78dbbdfd3146b67747c9134952de7967ef83a691392ee8f4da7a5",
      "blockHash": "0x04e961faba53dec8d2b515a7a1e73d01b883f7d668bfabbc7d830f148a8a3101",
      "blockNumber": 80478,
      "transactionIndex": 0,
      "confirmations": null,
      "from": "0x87C5B5874A18B4306DF8a752a6C8cc3E82daFc19",
      "gasPrice": {
        "_hex": "0xff3e896300"
      },
      "gasLimit": {
        "_hex": "0x493e0"
      },
      "to": "0xC4c51de1AbF5D60DBd329eC0F999Fd8f021ae9fC",
      "value": {
        "_hex": "0x0"
      },
      "nonce": 219,
      "data": "0x03750d9400000000000000000000000087c5b5874a18b4306df8a752a6c8cc3e82dafc196b6b6b0000000000000000000000000000000000000000000000000000000000",
      "r": "0x31edee2323ad00febefab46239261dbe9c378e6b99a4c1f7d16e43d9d8fd0555",
      "s": "0x4db8c62f00b60d293e8930dd399883f3ff71a5aabd9716191ea9d94824bcbbb9",
      "v": 27,
      "creates": null,
      "raw": "0xf8ab81db85ff3e896300830493e094c4c51de1abf5d60dbd329ec0f999fd8f021ae9fc80b84403750d9400000000000000000000000087c5b5874a18b4306df8a752a6c8cc3e82dafc196b6b6b00000000000000000000000000000000000000000000000000000000001ba031edee2323ad00febefab46239261dbe9c378e6b99a4c1f7d16e43d9d8fd0555a04db8c62f00b60d293e8930dd399883f3ff71a5aabd9716191ea9d94824bcbbb9",
      "networkId": 0,
      "chainId": 0
    }
  ]
}