{
  "hash": "0x5bb592ffc7bd01a39090a04f32f7f68f61563a272d6272f789f806e5f1f58e1f",
  "parentHash": "0xb7748b1202305f06500c1378324cda1230e9010f525abcb78a83cef27d3f0a91",
  "number": 67040,
  "timestamp": 1439264823,
  "nonce": "0xb2574e1a12beaf0b",
  "difficulty": 1935592389650,
  "gasLimit": {
    "_hex": "0x2fefd8"
  },
  "gasUsed": {
    "_hex": "0x5208"
  },
  "miner": "0xf927a40C8B7F6E07c5af7FA2155B4864a4112B13",
  "extraData": "0x",
  "transactions": [
    {
      "hash": "0x8e7314f38bca97784f95f825832d512ab0cbaa4b8108e3aa91e4fc87fc81d10a",
      "blockHash": "0x5bb592ffc7bd01a39090a04f32f7f68f61563a272d6272f789f806e5f1f58e1f",
      "blockNumber": 67040,
      "transactionIndex": 0,
      "confirmations": null,
      "from": "0x120A270bbC009644e35F0bB6ab13f95b8199c4ad",
      "gasPrice": {
        "_hex": "0xdb1eb85c7"
      },
      "gasLimit": {
        "_hex": "0x15f90"
      },
      "to": "0xF6F1A44309051c6B25e47dff909B179Bb9aB591C",
      "value": {
        "_hex": "0x3ba1910bf341b00000"
      },
      "nonce": 154,
      "data": "0x",
      "r": "0xbb0297003f0455858f66d9639c1754a63a88cdc0e782875b0e8ad68ef4186606",
      "s": "0x2cd1f99a43f1f62543c661d2d559761410d777587d3c7d4b72e9348c2c9c6784",
      "v": 28,
      "creates": null,
      "raw": "0xf86f819a850db1eb85c783015f9094f6f1a44309051c6b25e47dff909b179bb9ab591c893ba1910bf341b00000801ca0bb0297003f0455858f66d9639c1754a63a88cdc0e782875b0e8ad68ef4186606a02cd1f99a43f1f62543c661d2d559761410d777587d3c7d4b72e9348c2c9c6784",
      "networkId": 0,
      "chainId": 0
    }
  ]
}