{
  "hash": "0x0e844e0f4d9d80140b4537792f3dbcd5e72b901df56f74f2f232a3720485a4e2",
  "parentHash": "0x0dda4cb02f2a6c2cd6029ec429838f408e75869d4b8c2c20609bddd49a081cb5",
  "number": 108481,
  "timestamp": 1439941270,
  "nonce": "0x92f107ffc8a5e454",
  "difficulty": 4308755504370,
  "gasLimit": {
    "_hex": "0x2fefd8"
  },
  "gasUsed": {
    "_hex": "0x5208"
  },
  "miner": "0xf927a40C8B7F6E07c5af7FA2155B4864a4112B13",
  "extraData": "0x",
  "transactions": [
    {
      "hash": "0xfaa8e8bcc03a4d4c28b2d912b28fd3c20d24c68b2925fe465f2cff207bf3585d",
      "blockHash": "0x0e844e0f4d9d80140b4537792f3dbcd5e72b901df56f74f2f232a3720485a4e2",
      "blockNumber": 108481,
      "transactionIndex": 0,
      "confirmations": null,
      "from": "0xFBb1b73C4f0BDa4f67dcA266ce6Ef42f520fBB98",
      "gasPrice": {
        "_hex": "0xd79b5517a"
      },
      "gasLimit": {
        "_hex": "0x5208"
      },
      "to": "0x0AE502D5084FDe52CdEAb47766c05DD73F5a3Df8",
      "value": {
        "_hex": "0x6c5d867231821cf400"
      },
      "nonce": 213,
      "data": "0x",
      "r": "0xe915b90c2c3cbd74b9baeaebb74ed47d5f0cb85deab8ae5755943d4219992432",
      "s": "0x3f22e317865c8d401255e63061bf7e79c7b7a75af0b722088ca35ffa0f0d0f96",
      "v": 27,
      "creates": null,
      "raw": "0xf86e81d5850d79b5517a825208940ae502d5084fde52cdeab47766c05dd73f5a3df8896c5d867231821cf400801ba0e915b90c2c3cbd74b9baeaebb74ed47d5f0cb85deab8ae5755943d4219992432a03f22e317865c8d401255e63061bf7e79c7b7a75af0b722088ca35ffa0f0d0f96",
      "networkId": 0,
      "chainId": 0
    }
  ]
}