{
  "hash": "0x04bdc7671edae5864743836e16c2d6389d74d407345b9a94b0b309b7d1b832fe",
  "parentHash": "0xcdccd3c937866f5cbb47d904c6c049aec46e2cc15f26a7ba37bace06e781e87d",
  "number": 60403,
  "timestamp": 1439154997,
  "nonce": "0x03e47f4d902b23db",
  "difficulty": 1738972552120,
  "gasLimit": {
    "_hex": "0x2fefd8"
  },
  "gasUsed": {
    "_hex": "0xddfd"
  },
  "miner": "0xf927a40C8B7F6E07c5af7FA2155B4864a4112B13",
  "extraData": "0x476574682f76312e302e312f6c696e75782f676f312e342e32",
  "transactions": [
    {
      "hash": "0x03bfb406c040d4a223412f003ccd2df58f7e540ed8b5dc5e1e860bff7bfdf189",
      "blockHash": "0x04bdc7671edae5864743836e16c2d6389d74d407345b9a94b0b309b7d1b832fe",
      "blockNumber": 60403,
      "transactionIndex": 0,
      "confirmations": null,
      "from": "0xBeb3B1d443791e4B2207a9866800E02DAcF19c02",
      "gasPrice": {
        "_hex": "0xccb9206e5"
      },
      "gasLimit": {
        "_hex": "0x7a120"
      },
      "to": "0xA327075af2a223A1C83a36aDa1126afE7430f955",
      "value": {
        "_hex": "0x8ac7230489e80000"
      },
      "nonce": 5,
      "data": "0x",
      "r": "0x681fd715129d446251771d04798c2183b49c17dca4e9e3f5d063a3e05fb79dd4",
      "s": "0x2b55289046c37a9a70984a219d57dcea90cb7dfa43c39288eb6bb87621eb60b2",
      "v": 28,
      "creates": null,
      "raw": "0xf86d05850ccb9206e58307a12094a327075af2a223a1c83a36ada1126afe7430f955888ac7230489e80000801ca0681fd715129d446251771d04798c2183b49c17dca4e9e3f5d063a3e05fb79dd4a02b55289046c37a9a70984a219d57dcea90cb7dfa43c39288eb6bb87621eb60b2",
      "networkId": 0,
      "chainId": 0
    }
  ]
}