{
  "hash": "0x9c9e7dccd1fd242dfe8097582301ba2615436530775b9b18ecbcd9af8cfab2f8",
  "parentHash": "0x57d65593c9b04516a3681edbafe94bdbf4a1590338512d630c950a497a1111e7",
  "number": 48117,
  "timestamp": 1438951620,
  "nonce": "0x533f56bd82a78af6",
  "difficulty": 1467940805345,
  "gasLimit": {
    "_hex": "0x12b71"
  },
  "gasUsed": {
    "_hex": "0x5208"
  },
  "miner": "0x957523c697993cB24FCf75EfBce4f228325e7383",
  "extraData": "0x476574682f76312e302e312f6c696e75782f676f312e342e32",
  "transactions": [
    {
      "hash": "0x526dcf013e8c627ace42da8c8718caf41b5a26ac49c221706c003bad36a4f2a2",
      "blockHash": "0x9c9e7dccd1fd242dfe8097582301ba2615436530775b9b18ecbcd9af8cfab2f8",
      "blockNumber": 48117,
      "transactionIndex": 0,
      "confirmations": null,
      "from": "0x50EEfd3CA3DdB144266bfAB2194Ba9CcE30cC8F0",
      "gasPrice": {
        "_hex": "0xcd96f1704"
      },
      "gasLimit": {
        "_hex": "0x5208"
      },
      "to": "0x32Be343B94f860124dC4fEe278FDCBD38C102D88",
      "value": {
        "_hex": "0x455f737585efe800"
      },
      "nonce": 0,
      "data": "0x",
      "r": "0x6152ce3d055c1cff597a3c66d8cde08f0f9dfb7ef9bace843d319759d5558a10",
      "s": "0x1136d0ad8df6e8bf5b2b4662ee43999b8b1a0fd1bacb99cb1950729207f13630",
      "v": 27,
      "creates": null,
      "raw": "0xf86c80850cd96f17048252089432be343b94f860124dc4fee278fdcbd38c102d8888455f737585efe800801ba06152ce3d055c1cff597a3c66d8cde08f0f9dfb7ef9bace843d319759d5558a10a01136d0ad8df6e8bf5b2b4662ee43999b8b1a0fd1bacb99cb1950729207f13630",
      "networkId": 0,
      "chainId": 0
    }
  ]
}