{
  "hash": "0x5dc822b3b20a8ac67ea39fb68b8baf43da7aad9ff23e4e74ee8720c73682257b",
  "parentHash": "0xb1b5feb5c3ee1b7fa5081c20a1cd17de92c8579cfcc661ab5644120b51e31b0c",
  "number": 81776,
  "timestamp": 1439507753,
  "nonce": "0x05fc35a4fbaa47ed",
  "difficulty": 2418786936503,
  "gasLimit": {
    "_hex": "0x2fefd8"
  },
  "gasUsed": {
    "_hex": "0x5208"
  },
  "miner": "0x580992B51e3925e23280EfB93d3047C82f17E038",
  "extraData": "0x476574682f76312e302e312f6c696e75782f676f312e342e32",
  "transactions": [
    {
      "hash": "0xf4a5a8da66591d6958f1d99001da2aa5a771c3a81a98885b54af1ab85ba7c548",
      "blockHash": "0x5dc822b3b20a8ac67ea39fb68b8baf43da7aad9ff23e4e74ee8720c73682257b",
      "blockNumber": 81776,
      "transactionIndex": 0,
      "confirmations": null,
      "from": "0x4d67f2AB8599fef5Fc413999Aa01FD7fcE70B43D",
      "gasPrice": {
        "_hex": "0xda317a73b"
      },
      "gasLimit": {
        "_hex": "0x55f0"
      },
      "to": "0xF2fa51710FeAe5b221eEfA15F2044A8B2dE2B5fA",
      "value": {
        "_hex": "0x16345785d8a0000"
      },
      "nonce": 10,
      "data": "0x",
      "r": "0x7697f65b8796f737bf0528e1004476e8b9fa69e8b21e0a1848ab9cfaece95245",
      "s": "0x4293e69f8f271d83a48a1fbe6c7869d82da3a56c627273cb2514139c5faf4e6d",
      "v": 28,
      "creates": null,
      "raw": "0xf86c0a850da317a73b8255f094f2fa51710feae5b221eefa15f2044a8b2de2b5fa88016345785d8a0000801ca07697f65b8796f737bf0528e1004476e8b9fa69e8b21e0a1848ab9cfaece95245a04293e69f8f271d83a48a1fbe6c7869d82da3a56c627273cb2514139c5faf4e6d",
      "networkId": 0,
      "chainId": 0
    }
  ]
}