{
  "hash": "0x5fa4d84b386bad809a1df33876f03eabafe5695d8f5697c6e6c846bb1f0a688f",
  "parentHash": "0xa8559f5aa3340490b09afb9c0edb706f0b4a998693e33dd4cd75104bde5c3541",
  "number": 82544,
  "timestamp": 1439521209,
  "nonce": "0x5f840184da887431",
  "difficulty": 2367158330628,
  "gasLimit": {
    "_hex": "0x2fefd8"
  },
  "gasUsed": {
    "_hex": "0xa410"
  },
  "miner": "0x1217627fe41A00f0b828317F43E6d58F47dBfc43",
  "extraData": "0x476574682f76312e302e302d66313265303136312f6c696e75782f676f312e34",
  "transactions": [
    {
      "hash": "0xa1331efd8437b560f72c5ca26381312b0d0baa21418318084876ab3b22e0be17",
      "blockHash": "0x5fa4d84b386bad809a1df33876f03eabafe5695d8f5697c6e6c846bb1f0a688f",
      "blockNumber": 82544,
      "transactionIndex": 0,
      "confirmations": null,
      "from": "0xFa1313bA3596B898C4BF676bd344214E79E62D5E",
      "gasPrice": {
        "_hex": "0xba43b7400"
      },
      "gasLimit": {
        "_hex": "0x5208"
      },
      "to": "0xC47Aaa860008be6f65B58c6C6E02a84e666EfE31",
      "value": {
        "_hex": "0x1b1abd94f8527c1dc0"
      },
      "nonce": 0,
      "data": "0x",
      "r": "0xaa4c6de577776e4336516cfc0b7328062548c14b4b95c8187a75fa1e94da02e7",
      "s": "0x0485007aecaa1d389813f79aa7697c0add8258f2b8d3e3608f896fc0710a8da7",
      "v": 28,
      "creates": null,
      "raw": "0xf86d80850ba43b740082520894c47aaa860008be6f65b58c6c6e02a84e666efe31891b1abd94f8527c1dc0801ca0aa4c6de577776e4336516cfc0b7328062548c14b4b95c8187a75fa1e94da02e7a00485007aecaa1d389813f79aa7697c0add8258f2b8d3e3608f896fc0710a8da7",
      "networkId": 0,
      "chainId": 0
    },
    {
      "hash": "0x4870f8e3f809887c1b8a52ca77e1f380a09cca7bdb386cc84ff89b6d76c91887",
      "blockHash": "0x5fa4d84b386bad809a1df33876f03eabafe5695d8f5697c6e6c846bb1f0a688f",
      "blockNumber": 82544,
      "transactionIndex": 1,
      "confirmations": null,
      "from": "0x2910543Af39abA0Cd09dBb2D50200b3E800A63D2",
      "gasPrice": {
        "_hex": "0xd0b0983a9"
      },
      "gasLimit": {
        "_hex": "0x5208"
      },
      "to": "0xAebEEc361d7CF3BEFFDC27B55c190577E9034141",
      "value": {
        "_hex": "0x3635b7ea4ca6bf8000"
      },
      "nonce": 514,
      "data": "0x",
      "r": "0x589773736c9829942837e56db8cfd8517212340e54c4c20318cf3f52784cf289",
      "s": "0x67fd7d773efdce15ed94fa77088095fe8718d1224852bb9fc9d027d755d303e6",
      "v": 28,
      "creates": null,
      "raw": "0xf86f820202850d0b0983a982520894aebeec361d7cf3beffdc27b55c190577e9034141893635b7ea4ca6bf8000801ca0589773736c9829942837e56db8cfd8517212340e54c4c20318cf3f52784cf289a067fd7d773efdce15ed94fa77088095fe8718d1224852bb9fc9d027d755d303e6",
      "networkId": 0,
      "chainId": 0
    }
  ]
}