{
  "hash": "0x4aadd6343b9c5b597bdf9c78b9da7c556a04773e44cab3f2d80c1f05c118faae",
  "parentHash": "0x14b7173f83d6b7c73b7aee23312ee9bdda371d789ec0026ba718cf6bc74ef2d5",
  "number": 68580,
  "timestamp": 1439290318,
  "nonce": "0x8a13cf4ae95bc94c",
  "difficulty": 2016262338709,
  "gasLimit": {
    "_hex": "0x2fefd8"
  },
  "gasUsed": {
    "_hex": "0x14820"
  },
  "miner": "0x0eDEd3DA479d0beF8eeC92A76644D3f4E3C177f7",
  "extraData": "0x476574682f76312e302e312f6c696e75782f676f312e342e32",
  "transactions": [
    {
      "hash": "0x6eff9fba40d416835381c5e9d493700645f47c4d4c1752baf318388c4a2d0c10",
      "blockHash": "0x4aadd6343b9c5b597bdf9c78b9da7c556a04773e44cab3f2d80c1f05c118faae",
      "blockNumber": 68580,
      "transactionIndex": 0,
      "confirmations": null,
      "from": "0xBB2e13986309484dd6468e2f7db5BC9E53EF4AFf",
      "gasPrice": {
        "_hex": "0xba43b7400"
      },
      "gasLimit": {
        "_hex": "0x5208"
      },
      "to": "0x326D75Effd4FD0267106A1cFa2c48C55759FD42C",
      "value": {
        "_hex": "0xc1c23435b07000"
      },
      "nonce": 1,
      "data": "0x",
      "r": "0x3dfbfd1acff6f5205b01228e58ac6cef6eb6593e2db85708eafc929604a4de5b",
      "s": "0x783bf131b7e4a98b51f6768f4442bb46ee1a229bce2dfcf2a5b44a3a2372b4f7",
      "v": 27,
      "creates": null,
      "raw": "0xf86b01850ba43b740082520894326d75effd4fd0267106a1cfa2c48c55759fd42c87c1c23435b07000801ba03dfbfd1acff6f5205b01228e58ac6cef6eb6593e2db85708eafc929604a4de5ba0783bf131b7e4a98b51f6768f4442bb46ee1a229bce2dfcf2a5b44a3a2372b4f7",
      "networkId": 0,
      "chainId": 0
    },
    {
      "hash": "0xf5fdd2da97d091b9668e892ec8591d19b61976cb52142df6aa742221a0c7947c",
      "blockHash": "0x4aadd6343b9c5b597bdf9c78b9da7c556a04773e44cab3f2d80c1f05c118faae",
      "blockNumber": 68580,
      "transactionIndex": 1,
      "confirmations": null,
      "from": "0x3061f9e8E5564EE320C6a619C28B02737ad36fdD",
      "gasPrice": {
        "_hex": "0xba43b7400"
      },
      "gasLimit": {
        "_hex": "0x5208"
      },
      "to": "0xAcC0e17A3C457701D5582c5A8604fd17708E9AAD",
      "value": {
        "_hex": "0xc1c23435b07000"
      },
      "nonce": 1,
      "data": "0x",
      "r": "0x8f2a0f0c75b984552b64d0cfb39c1777bad76f89b2fcc6cc43ce402e3cc5ce6f",
      "s": "0x5e75c7409c489a4096c9febaf21ba090ac5271f55ee6d70ec6a0085510bc802d",
      "v": 28,
      "creates": null,
      "raw": "0xf86b01850ba43b740082520894acc0e17a3c457701d5582c5a8604fd17708e9aad87c1c23435b07000801ca08f2a0f0c75b984552b64d0cfb39c1777bad76f89b2fcc6cc43ce402e3cc5ce6fa05e75c7409c489a4096c9febaf21ba090ac5271f55ee6d70ec6a0085510bc802d",
      "networkId": 0,
      "chainId": 0
    },
    {
      "hash": "0x2dc34f04031b0aabf08206a64510aaea99a2b95287d5b99a0d734ca7136f21b7",
      "blockHash": "0x4aadd6343b9c5b597bdf9c78b9da7c556a04773e44cab3f2d80c1f05c118faae",
      "blockNumber": 68580,
      "transactionIndex": 2,
      "confirmations": null,
      "from": "0x7Cc44620350392a61433140354eac3f5d929a448",
      "gasPrice": {
        "_hex": "0xba43b7400"
      },
      "gasLimit": {
        "_hex": "0x5208"
      },
      "to": "0x60c7D291ceA9ee75B35ce9574DcA3B497aB9e1A1",
      "value": {
        "_hex": "0xc1c23435b07000"
      },
      "nonce": 1,
      "data": "0x",
      "r": "0xb24238aad69c061f0ad06d02a1eafc13e8cf2b8daa9e3a2a1f92b9fd851a996f",
      "s": "0x429dcebe6a06fe7da445d6ff3e60de96ca3496998412085fd743fa8f33bca2ee",
      "v": 27,
      "creates": null,
      "raw": "0xf86b01850ba43b74008252089460c7d291cea9ee75b35ce9574dca3b497ab9e1a187c1c23435b07000801ba0b24238aad69c061f0ad06d02a1eafc13e8cf2b8daa9e3a2a1f92b9fd851a996fa0429dcebe6a06fe7da445d6ff3e60de96ca3496998412085fd743fa8f33bca2ee",
      "networkId": 0,
      "chainId": 0
    },
    {
      "hash": "0x452697c9d65faa42627cfb4e24ac2498a96a4ff184e4122aed6c29d625a87519",
      "blockHash": "0x4aadd6343b9c5b597bdf9c78b9da7c556a04773e44cab3f2d80c1f05c118faae",
      "blockNumber": 68580,
      "transactionIndex": 3,
      "confirmations": null,
      "from": "0x14FE79e199A27B8eb9C5666BC6B6C7ea3c9AEf52",
      "gasPrice": {
        "_hex": "0xba43b7400"
      },
      "gasLimit": {
        "_hex": "0x5208"
      },
      "to": "0x1A7fCECD673546f0C71AF34862B1A88F722E7A2b",
      "value": {
        "_hex": "0xc1c23435b07000"
      },
      "nonce": 1,
      "data": "0x",
      "r": "0x8fc32e26b20295fd33eea50bbdabcb30709a157aaaf9534f313478e5be77dc70",
      "s": "0x258c8c929fccb31e393165284b3eb2e75dec895e696f6bacb8eed2f433d15d05",
      "v": 28,
      "creates": null,
      "raw": "0xf86b01850ba43b7400825208941a7fcecd673546f0c71af34862b1a88f722e7a2b87c1c23435b07000801ca08fc32e26b20295fd33eea50bbdabcb30709a157aaaf9534f313478e5be77dc70a0258c8c929fccb31e393165284b3eb2e75dec895e696f6bacb8eed2f433d15d05",
      "networkId": 0,
      "chainId": 0
    }
  ]
}