{
  "hash": "0x24fc61303113541452f5c769169984cc9824e29506de550dc4e371c3524ebe8b",
  "parentHash": "0x627912a5126d0d6a883475a5e01fd38c9389dbdf13ac3a436333d0de2cb26f53",
  "number": 108168,
  "timestamp": 1439935484,
  "nonce": "0x973ab5e2da51fc4d",
  "difficulty": 4366099395365,
  "gasLimit": {
    "_hex": "0x2fefd8"
  },
  "gasUsed": {
    "_hex": "0x5208"
  },
  "miner": "0xe6A7a1d47ff21B6321162AEA7C6CB457D5476Bca",
  "extraData": "0x476574682f76312e302e312d38326566323666362f6c696e75782f676f312e34",
  "transactions": [
    {
      "hash": "0xcd2077642374ba805a330182e231acf0e6fb1b56dc4882859e69bdd2b119a80f",
      "blockHash": "0x24fc61303113541452f5c769169984cc9824e29506de550dc4e371c3524ebe8b",
      "blockNumber": 108168,
      "transactionIndex": 0,
      "confirmations": null,
      "from": "0x2435CaC661de90FF84BF79A55629C5bc30B40a0d",
      "gasPrice": {
        "_hex": "0xd055ac463"
      },
      "gasLimit": {
        "_hex": "0x5208"
      },
      "to": "0xFBb1b73C4f0BDa4f67dcA266ce6Ef42f520fBB98",
      "value": {
        "_hex": "0x70414803eb2b26e8"
      },
      "nonce": 1,
      "data": "0x",
      "r": "0xf4371436c220f7dfd17badf485092a9d3d5dd7f4fbd03f8a412e86f62e3e913b",
      "s": "0x1720127a82c7ec790bad59001f77bfa5f7b9dcd72d3a2a5a0afbe2b8a1bd3c33",
      "v": 28,
      "creates": null,
      "raw": "0xf86c01850d055ac46382520894fbb1b73c4f0bda4f67dca266ce6ef42f520fbb988870414803eb2b26e8801ca0f4371436c220f7dfd17badf485092a9d3d5dd7f4fbd03f8a412e86f62e3e913ba01720127a82c7ec790bad59001f77bfa5f7b9dcd72d3a2a5a0afbe2b8a1bd3c33",
      "networkId": 0,
      "chainId": 0
    }
  ]
}