{
  "hash": "0x44f15035c54dd5bafb9786e72b13dbf41044f13e3658d744db9215a83cc6ea2d",
  "parentHash": "0x58e24f05d911f16e75dbbcff6a7e8515e6cf155db087a93af2e484fa802ef0e5",
  "number": 66010,
  "timestamp": 1439247034,
  "nonce": "0x029660164713b8e0",
  "difficulty": 1947206118001,
  "gasLimit": {
    "_hex": "0x2fefd8"
  },
  "gasUsed": {
    "_hex": "0x5208"
  },
  "miner": "0x34BDAF0a5ed72734a4c4c6CE6Cc8132EC81fb2a8",
  "extraData": "0x",
  "transactions": [
    {
      "hash": "0xc887519912910661b1fc11786bb0b91fb0d10ff2945a873add7ad448fcc45242",
      "blockHash": "0x44f15035c54dd5bafb9786e72b13dbf41044f13e3658d744db9215a83cc6ea2d",
      "blockNumber": 66010,
      "transactionIndex": 0,
      "confirmations": null,
      "from": "0x32Be343B94f860124dC4fEe278FDCBD38C102D88",
      "gasPrice": {
        "_hex": "0xd892e23a4"
      },
      "gasLimit": {
        "_hex": "0x5208"
      },
      "to": "0x120A270bbC009644e35F0bB6ab13f95b8199c4ad",
      "value": {
        "_hex": "0x1b1ae4d6e2ef500000"
      },
      "nonce": 193,
      "data": "0x",
      "r": "0xcb8a9a03e018ed01886790a360eb36c92786327197c52a8ba0d48be77905fe4b",
      "s": "0x3bef03bd38e7f7c47a2495e48afec887ecfa09c92797456d319b2db17cdbabba",
      "v": 27,
      "creates": null,
      "raw": "0xf86e81c1850d892e23a482520894120a270bbc009644e35f0bb6ab13f95b8199c4ad891b1ae4d6e2ef500000801ba0cb8a9a03e018ed01886790a360eb36c92786327197c52a8ba0d48be77905fe4ba03bef03bd38e7f7c47a2495e48afec887ecfa09c92797456d319b2db17cdbabba",
      "networkId": 0,
      "chainId": 0
    }
  ]
}