{
  "hash": "0x8a8b30df9d5f3517e0862be63b5b7ffdcaf56fee33709c033eefa1e429fbf30f",
  "parentHash": "0x82f09ee13761ec4ef0039aad1737beebfc2816f4b60a544319132f1dc69b1552",
  "number": 89767,
  "timestamp": 1439628745,
  "nonce": "0x0fb43cc88cf7eb54",
  "difficulty": 3340244611903,
  "gasLimit": {
    "_hex": "0x2fefd8"
  },
  "gasUsed": {
    "_hex": "0x52080"
  },
  "miner": "0x8293b65bD915B9FF87F6aDAb479da2e5b6633fDB",
  "extraData": "0x476574682f76312e302e312f77696e646f77732f676f312e342e32",
  "transactions": [
    {
      "hash": "0xc8441a6cf1bad6f88ba7a90ec09967552d161c44f9b602cdadff0f311244811a",
      "blockHash": "0x8a8b30df9d5f3517e0862be63b5b7ffdcaf56fee33709c033eefa1e429fbf30f",
      "blockNumber": 89767,
      "transactionIndex": 0,
      "confirmations": null,
      "from": "0xe6A7a1d47ff21B6321162AEA7C6CB457D5476Bca",
      "gasPrice": {
        "_hex": "0xdc0490b2a"
      },
      "gasLimit": {
        "_hex": "0x55f0"
      },
      "to": "0x1ee96bFCC664C0D4430267bDAd17A38946655eE3",
      "value": {
        "_hex": "0x166758d0090ec180"
      },
      "nonce": 1987,
      "data": "0x",
      "r": "0xa39603fd2c24379d38830515418e3b935ffe517c8a5692f4cc683c7e5a67d71e",
      "s": "0x66c44b99447001cf6d1485ba8225481077f481895191d24cde7c6f94c107c0d5",
      "v": 28,
      "creates": null,
      "raw": "0xf86e8207c3850dc0490b2a8255f0941ee96bfcc664c0d4430267bdad17a38946655ee388166758d0090ec180801ca0a39603fd2c24379d38830515418e3b935ffe517c8a5692f4cc683c7e5a67d71ea066c44b99447001cf6d1485ba8225481077f481895191d24cde7c6f94c107c0d5",
      "networkId": 0,
      "chainId": 0
    },
    {
      "hash": "0xf60bce346db500012e14fc1ce674b48a72ddb98ab2a2ebb661e29ed34cb7cc55",
      "blockHash": "0x8a8b30df9d5f3517e0862be63b5b7ffdcaf56fee33709c033eefa1e429fbf30f",
      "blockNumber": 89767,
      "transactionIndex": 1,
      "confirmations": null,
      "from": "0xe6A7a1d47ff21B6321162AEA7C6CB457D5476Bca",
      "gasPrice": {
        "_hex": "0xdc0490b2a"
      },
      "gasLimit": {
        "_hex": "0x55f0"
      },
      "to": "0xB06c47325B63091CF8555d4709bC8fA20AAE1E49",
      "value": {
        "_hex": "0x16776624207c9830"
      },
      "nonce": 1988,
      "data": "0x",
      "r": "0x782ca3a02e7bd0793c4afce58382e8522d1f10834cd071b4080b4012456487ec",
      "s": "0x6ab5e6c74060613ff808239b87f4281bd00a87b03e44b9d4d2e62ac35bbb9ebd",
      "v": 28,
      "creates": null,
      "raw": "0xf86e8207c4850dc0490b2a8255f094b06c47325b63091cf8555d4709bc8fa20aae1e498816776624207c9830801ca0782ca3a02e7bd0793c4afce58382e8522d1f10834cd071b4080b4012456487eca06ab5e6c74060613ff808239b87f4281bd00a87b03e44b9d4d2e62ac35bbb9ebd",
      "networkId": 0,
      "chainId": 0
    },
    {
      "hash": "0x391fdfcc282a6fb1e21a0588bcd864fcdba8be6e90be28286484743ae98c9f37",
      "blockHash": "0x8a8b30df9d5f3517e0862be63b5b7ffdcaf56fee33709c033eefa1e429fbf30f",
      "blockNumber": 89767,
      "transactionIndex": 2,
      "confirmations": null,
      "from": "0xe6A7a1d47ff21B6321162AEA7C6CB457D5476Bca",
      "gasPrice": {
        "_hex": "0xdc0490b2a"
      },
      "gasLimit": {
        "_hex": "0x55f0"
      },
      "to": "0xd8F5f0458bDA93A6d2ffA08cee7c1A0CbeA410aE",
      "value": {
        "_hex": "0x16b05cb2a8ccde08"
      },
      "nonce": 1989,
      "data": "0x",
      "r": "0xe35248977bb2d4e2243ee4e361a152ccff39bf069642818b0b84af2e011cf5f4",
      "s": "0x2208a6f4071be236cfdc0d700d455ea12aa7287b78e23948e91351d0291075eb",
      "v": 28,
      "creates": null,
      "raw": "0xf86e8207c5850dc0490b2a8255f094d8f5f0458bda93a6d2ffa08cee7c1a0cbea410ae8816b05cb2a8ccde08801ca0e35248977bb2d4e2243ee4e361a152ccff39bf069642818b0b84af2e011cf5f4a02208a6f4071be236cfdc0d700d455ea12aa7287b78e23948e91351d0291075eb",
      "networkId": 0,
      "chainId": 0
    },
    {
      "hash": "0xd8b446b52e1834fbaff42b2648bc420021739c2c8a988505a606e5f2b5fa9b27",
      "blockHash": "0x8a8b30df9d5f3517e0862be63b5b7ffdcaf56fee33709c033eefa1e429fbf30f",
      "blockNumber": 89767,
      "transactionIndex": 3,
      "confirmations": null,
      "from": "0xe6A7a1d47ff21B6321162AEA7C6CB457D5476Bca",
      "gasPrice": {
        "_hex": "0xdc0490b2a"
      },
      "gasLimit": {
        "_hex": "0x55f0"
      },
      "to": "0x5E418A1728294b2ec7eF61C837d0902ce115aB5F",
      "value": {
        "_hex": "0x16b4cbd8da990ad0"
      },
      "nonce": 1990,
      "data": "0x",
      "r": "0x3f986aaaf0e2777d3525e5a522e324cb45d3d826aae735c2c8fee5220b3980fd",
      "s": "0x11407f7e9aeb59cab9183b8c2370d91f60648267227a999438bce5b90fc56c96",
      "v": 28,
      "creates": null,
      "raw": "0xf86e8207c6850dc0490b2a8255f0945e418a1728294b2ec7ef61c837d0902ce115ab5f8816b4cbd8da990ad0801ca03f986aaaf0e2777d3525e5a522e324cb45d3d826aae735c2c8fee5220b3980fda011407f7e9aeb59cab9183b8c2370d91f60648267227a999438bce5b90fc56c96",
      "networkId": 0,
      "chainId": 0
    },
    {
      "hash": "0x7ccbf0f5eb002a493a1a4819a28370950763034bb34629133c1bf25470359d6b",
      "blockHash": "0x8a8b30df9d5f3517e0862be63b5b7ffdcaf56fee33709c033eefa1e429fbf30f",
      "blockNumber": 89767,
      "transactionIndex": 4,
      "confirmations": null,
      "from": "0xe6A7a1d47ff21B6321162AEA7C6CB457D5476Bca",
      "gasPrice": {
        "_hex": "0xdc0490b2a"
      },
      "gasLimit": {
        "_hex": "0x55f0"
      },
      "to": "0xb6f15735Af04ae6d37B89592E406311A94e4F5f2",
      "value": {
        "_hex": "0x16b532ddb06f20fc"
      },
      "nonce": 1991,
      "data": "0x",
      "r": "0x46bd1d61cfe2ef118887540cdc71e5a5e859e2d47ab8e193db17afcb42d5c4be",
      "s": "0x2045074e1c5fccbd1a200f90312aa5be6c26ad40dab50c32799024ae697db038",
      "v": 28,
      "creates": null,
      "raw": "0xf86e8207c7850dc0490b2a8255f094b6f15735af04ae6d37b89592e406311a94e4f5f28816b532ddb06f20fc801ca046bd1d61cfe2ef118887540cdc71e5a5e859e2d47ab8e193db17afcb42d5c4bea02045074e1c5fccbd1a200f90312aa5be6c26ad40dab50c32799024ae697db038",
      "networkId": 0,
      "chainId": 0
    },
    {
      "hash": "0xe8b5c9e719b2238cc9d9d1beea833760d546b36cac8276984944c134143819b9",
      "blockHash": "0x8a8b30df9d5f3517e0862be63b5b7ffdcaf56fee33709c033eefa1e429fbf30f",
      "blockNumber": 89767,
      "transactionIndex": 5,
      "confirmations": null,
      "from": "0xe6A7a1d47ff21B6321162AEA7C6CB457D5476Bca",
      "gasPrice": {
        "_hex": "0xdc0490b2a"
      },
      "gasLimit": {
        "_hex": "0x55f0"
      },
      "to": "0xC7C3C1e14c528F3C4976b727Bf9706c569fEacd3",
      "value": {
        "_hex": "0x16bc28ab746fc6b8"
      },
      "nonce": 1992,
      "data": "0x",
      "r": "0x77429c05a49531967a71ef984060b35ca08576cc5d4f2fdf9ee502c469b66cfa",
      "s": "0x7afe6e774485a0c866f5b08a6263372e256705cedc7aa064edbf53280036c142",
      "v": 27,
      "creates": null,
      "raw": "0xf86e8207c8850dc0490b2a8255f094c7c3c1e14c528f3c4976b727bf9706c569feacd38816bc28ab746fc6b8801ba077429c05a49531967a71ef984060b35ca08576cc5d4f2fdf9ee502c469b66cfaa07afe6e774485a0c866f5b08a6263372e256705cedc7aa064edbf53280036c142",
      "networkId": 0,
      "chainId": 0
    },
    {
      "hash": "0xbbb73a2532073f7a711f8e919397f75f38d41a569eb480b19a0afae857059640",
      "blockHash": "0x8a8b30df9d5f3517e0862be63b5b7ffdcaf56fee33709c033eefa1e429fbf30f",
      "blockNumber": 89767,
      "transactionIndex": 6,
      "confirmations": null,
      "from": "0xe6A7a1d47ff21B6321162AEA7C6CB457D5476Bca",
      "gasPrice": {
        "_hex": "0xdc0490b2a"
      },
      "gasLimit": {
        "_hex": "0x55f0"
      },
      "to": "0xE25E3A1947405a1F82dD8e3048a9cA471dc782E1",
      "value": {
        "_hex": "0x16e40be9a1f84b20"
      },
      "nonce": 1993,
      "data": "0x",
      "r": "0x4ca504ee87b2832d0782c255afbf1be78b48dfeea19819750ff7dfc4fb72604c",
      "s": "0x4b86949d43c5472073d499469351acdd188d624b03a340f008d65ee3b02fb58f",
      "v": 27,
      "creates": null,
      "raw": "0xf86e8207c9850dc0490b2a8255f094e25e3a1947405a1f82dd8e3048a9ca471dc782e18816e40be9a1f84b20801ba04ca504ee87b2832d0782c255afbf1be78b48dfeea19819750ff7dfc4fb72604ca04b86949d43c5472073d499469351acdd188d624b03a340f008d65ee3b02fb58f",
      "networkId": 0,
      "chainId": 0
    },
    {
      "hash": "0x1e171796c9a460d13317dbb485129ed17b6b4c1824f162fd397572eafdd8e444",
      "blockHash": "0x8a8b30df9d5f3517e0862be63b5b7ffdcaf56fee33709c033eefa1e429fbf30f",
      "blockNumber": 89767,
      "transactionIndex": 7,
      "confirmations": null,
      "from": "0xe6A7a1d47ff21B6321162AEA7C6CB457D5476Bca",
      "gasPrice": {
        "_hex": "0xdc0490b2a"
      },
      "gasLimit": {
        "_hex": "0x55f0"
      },
      "to": "0xc197252bAf4a4D2974eAB91039594F789A8C207c",
      "value": {
        "_hex": "0x178f253f29f0821c"
      },
      "nonce": 1994,
      "data": "0x",
      "r": "0x3d31ba6256710b92ef85acbf6b792cfc0181b83a95f714d0688591f6207fabdb",
      "s": "0x517796755bb88a1310338d048e3eff3be2e5c9e46284a2d4332805a940659315",
      "v": 27,
      "creates": null,
      "raw": "0xf86e8207ca850dc0490b2a8255f094c197252baf4a4d2974eab91039594f789a8c207c88178f253f29f0821c801ba03d31ba6256710b92ef85acbf6b792cfc0181b83a95f714d0688591f6207fabdba0517796755bb88a1310338d048e3eff3be2e5c9e46284a2d4332805a940659315",
      "networkId": 0,
      "chainId": 0
    },
    {
      "hash": "0xa25b5bda80d930bd076c16ecf6384d1cb864de49aaeaed8902edbb9b1ae48b41",
      "blockHash": "0x8a8b30df9d5f3517e0862be63b5b7ffdcaf56fee33709c033eefa1e429fbf30f",
      "blockNumber": 89767,
      "transactionIndex": 8,
      "confirmations": null,
      "from": "0xe6A7a1d47ff21B6321162AEA7C6CB457D5476Bca",
      "gasPrice": {
        "_hex": "0xdc0490b2a"
      },
      "gasLimit": {
        "_hex": "0x55f0"
      },
      "to": "0xdCe26B66eabfB4dE900E4944DcC2FA2d455021fc",
      "value": {
        "_hex": "0x17a036b9cfc7cc30"
      },
      "nonce": 1995,
      "data": "0x",
      "r": "0x718436c863a311169802b0c56e4ed7d06748f4e4944fafc18659048ccb835e33",
      "s": "0x204495c2c8bc6c7e8ed11acac411fcbaa4110717c8f0844658ff38e21de048f4",
      "v": 27,
      "creates": null,
      "raw": "0xf86e8207cb850dc0490b2a8255f094dce26b66eabfb4de900e4944dcc2fa2d455021fc8817a036b9cfc7cc30801ba0718436c863a311169802b0c56e4ed7d06748f4e4944fafc18659048ccb835e33a0204495c2c8bc6c7e8ed11acac411fcbaa4110717c8f0844658ff38e21de048f4",
      "networkId": 0,
      "chainId": 0
    },
    {
      "hash": "0xdf9d3b2e9dafe592b97ef605146bb7de9c39f974ef471be3909e9a7e7cc3f47c",
      "blockHash": "0x8a8b30df9d5f3517e0862be63b5b7ffdcaf56fee33709c033eefa1e429fbf30f",
      "blockNumber": 89767,
      "transactionIndex": 9,
      "confirmations": null,
      "from": "0xe6A7a1d47ff21B6321162AEA7C6CB457D5476Bca",
      "gasPrice": {
        "_hex": "0xdc0490b2a"
      },
      "gasLimit": {
        "_hex": "0x55f0"
      },
      "to": "0xB0f264dc10CE034cA560a614b1E044C1d91A3bAe",
      "value": {
        "_hex": "0x17b3660c66d80024"
      },
      "nonce": 1996,
      "data": "0x",
      "r": "0x5ebbfdeaee2993a447e2e63d3b70cfe6e0fa3cfebf3011cee24463c912ccd9ba",
      "s": "0x70d98f1fecc4632dc18f6b0d7a1017b9ddbc4409026a66ca6fc40c9181a39e49",
      "v": 27,
      "creates": null,
      "raw": "0xf86e8207cc850dc0490b2a8255f094b0f264dc10ce034ca560a614b1e044c1d91a3bae8817b3660c66d80024801ba05ebbfdeaee2993a447e2e63d3b70cfe6e0fa3cfebf3011cee24463c912ccd9baa070d98f1fecc4632dc18f6b0d7a1017b9ddbc4409026a66ca6fc40c9181a39e49",
      "networkId": 0,
      "chainId": 0
    },
    {
      "hash": "0xab14070158090ddac76e67faead627fc2ac49b7fcad97d16a6b1ecd478bdc1c2",
      "blockHash": "0x8a8b30df9d5f3517e0862be63b5b7ffdcaf56fee33709c033eefa1e429fbf30f",
      "blockNumber": 89767,
      "transactionIndex": 10,
      "confirmations": null,
      "from": "0xe6A7a1d47ff21B6321162AEA7C6CB457D5476Bca",
      "gasPrice": {
        "_hex": "0xdc0490b2a"
      },
      "gasLimit": {
        "_hex": "0x55f0"
      },
      "to": "0x5E8E0f5D30223Cf97aeDff1f84CC3C4f59f8a64f",
      "value": {
        "_hex": "0x1834601dd741c32c"
      },
      "nonce": 1997,
      "data": "0x",
      "r": "0xe8e7fd9d069fa3ec50c17dc549e8d48f6435cc41f9aeca00643f73f95d1b1dc4",
      "s": "0x7f9808aac0184587366eacfe85c2c56cdba9c6942ac88e74d0be2b92d1754b89",
      "v": 27,
      "creates": null,
      "raw": "0xf86e8207cd850dc0490b2a8255f0945e8e0f5d30223cf97aedff1f84cc3c4f59f8a64f881834601dd741c32c801ba0e8e7fd9d069fa3ec50c17dc549e8d48f6435cc41f9aeca00643f73f95d1b1dc4a07f9808aac0184587366eacfe85c2c56cdba9c6942ac88e74d0be2b92d1754b89",
      "networkId": 0,
      "chainId": 0
    },
    {
      "hash": "0x2a9b3279d7728574d928ea8eddf482edc647700ed97ddd896d7868d88787b461",
      "blockHash": "0x8a8b30df9d5f3517e0862be63b5b7ffdcaf56fee33709c033eefa1e429fbf30f",
      "blockNumber": 89767,
      "transactionIndex": 11,
      "confirmations": null,
      "from": "0xe6A7a1d47ff21B6321162AEA7C6CB457D5476Bca",
      "gasPrice": {
        "_hex": "0xdc0490b2a"
      },
      "gasLimit": {
        "_hex": "0x55f0"
      },
      "to": "0x8Fa2257C8D899F0BEA233ad248C9B5908F0e82bC",
      "value": {
        "_hex": "0x183dd24bec1138ec"
      },
      "nonce": 1998,
      "data": "0x",
      "r": "0x65508f84afb5d2b6c058f1729fa9106a98c66a307875a58bf043e92a8eca9adb",
      "s": "0x1cec6d2306900cb2e56d05e8ee89237f25faa0fe20359d5a1f7c956523232168",
      "v": 28,
      "creates": null,
      "raw": "0xf86e8207ce850dc0490b2a8255f0948fa2257c8d899f0bea233ad248c9b5908f0e82bc88183dd24bec1138ec801ca065508f84afb5d2b6c058f1729fa9106a98c66a307875a58bf043e92a8eca9adba01cec6d2306900cb2e56d05e8ee89237f25faa0fe20359d5a1f7c956523232168",
      "networkId": 0,
      "chainId": 0
    },
    {
      "hash": "0x980216eba1c474798b13e3c42ff90ae73b463875d230ca4b6056eb3a5e94fbab",
      "blockHash": "0x8a8b30df9d5f3517e0862be63b5b7ffdcaf56fee33709c033eefa1e429fbf30f",
      "blockNumber": 89767,
      "transactionIndex": 12,
      "confirmations": null,
      "from": "0xe6A7a1d47ff21B6321162AEA7C6CB457D5476Bca",
      "gasPrice": {
        "_hex": "0xdc0490b2a"
      },
      "gasLimit": {
        "_hex": "0x55f0"
      },
      "to": "0xA270859a7dD7bEF18258BDE4b85Dd3691FdE277D",
      "value": {
        "_hex": "0x18416a77b401a2e4"
      },
      "nonce": 1999,
      "data": "0x",
      "r": "0xaef664b1f20999f745a40b81a18ba49f90735ba2f50f2ab0ad3a5039c99f8ee3",
      "s": "0x7b82db26befc5e4309edf22a3a58c3c909a34b4db5fe509f6c56e25563f2bd67",
      "v": 27,
      "creates": null,
      "raw": "0xf86e8207cf850dc0490b2a8255f094a270859a7dd7bef18258bde4b85dd3691fde277d8818416a77b401a2e4801ba0aef664b1f20999f745a40b81a18ba49f90735ba2f50f2ab0ad3a5039c99f8ee3a07b82db26befc5e4309edf22a3a58c3c909a34b4db5fe509f6c56e25563f2bd67",
      "networkId": 0,
      "chainId": 0
    },
    {
      "hash": "0xb89a813d4c3ccac1a4ebad32e3f04a85a5dfab4c3172e3866a827d0ba2437110",
      "blockHash": "0x8a8b30df9d5f3517e0862be63b5b7ffdcaf56fee33709c033eefa1e429fbf30f",
      "blockNumber": 89767,
      "transactionIndex": 13,
      "confirmations": null,
      "from": "0xe6A7a1d47ff21B6321162AEA7C6CB457D5476Bca",
      "gasPrice": {
        "_hex": "0xdc0490b2a"
      },
      "gasLimit": {
        "_hex": "0x55f0"
      },
      "to": "0x2AC36246B388F762Fdc3CA30E749A1494fDA99Ee",
      "value": {
        "_hex": "0x18483b7d546e0010"
      },
      "nonce": 2000,
      "data": "0x",
      "r": "0x8b38fded732d25d458a67802d49f95aa93f758c60ca4899a148cfc2ca4cc70b3",
      "s": "0x7088f01282389f82ed1d0b18f8e8520aecdee7f041dea17c87f066605feacb86",
      "v": 28,
      "creates": null,
      "raw": "0xf86e8207d0850dc0490b2a8255f0942ac36246b388f762fdc3ca30e749a1494fda99ee8818483b7d546e0010801ca08b38fded732d25d458a67802d49f95aa93f758c60ca4899a148cfc2ca4cc70b3a07088f01282389f82ed1d0b18f8e8520aecdee7f041dea17c87f066605feacb86",
      "networkId": 0,
      "chainId": 0
    },
    {
      "hash": "0x918953e94921f18e85dad9f3a94aefdf63c45bcc7ae1dd7a215cb1e482cb6608",
      "blockHash": "0x8a8b30df9d5f3517e0862be63b5b7ffdcaf56fee33709c033eefa1e429fbf30f",
      "blockNumber": 89767,
      "transactionIndex": 14,
      "confirmations": null,
      "from": "0xe6A7a1d47ff21B6321162AEA7C6CB457D5476Bca",
      "gasPrice": {
        "_hex": "0xdc0490b2a"
      },
      "gasLimit": {
        "_hex": "0x55f0"
      },
      "to": "0x60c84CBDBAc16e3cd806520Ab204029D7aab5588",
      "value": {
        "_hex": "0x1871086018ad7e10"
      },
      "nonce": 2001,
      "data": "0x",
      "r": "0xe75063f8ac9ddffbb2a77d8a0720be941f5160d3eb67b78393e98de592a78331",
      "s": "0x27cb8e2f3c3a93813681866b191ce2a08d98cc6b709847983a456e2dc70152fb",
      "v": 28,
      "creates": null,
      "raw": "0xf86e8207d1850dc0490b2a8255f09460c84cbdbac16e3cd806520ab204029d7aab5588881871086018ad7e10801ca0e75063f8ac9ddffbb2a77d8a0720be941f5160d3eb67b78393e98de592a78331a027cb8e2f3c3a93813681866b191ce2a08d98cc6b709847983a456e2dc70152fb",
      "networkId": 0,
      "chainId": 0
    },
    {
      "hash": "0x536a31d8d5f88835818bb030ee0e7afe6e4e3d036fbb0cf3e3aef34b6e5309af",
      "blockHash": "0x8a8b30df9d5f3517e0862be63b5b7ffdcaf56fee33709c033eefa1e429fbf30f",
      "blockNumber": 89767,
      "transactionIndex": 15,
      "confirmations": null,
      "from": "0xe6A7a1d47ff21B6321162AEA7C6CB457D5476Bca",
      "gasPrice": {
        "_hex": "0xdc0490b2a"
      },
      "gasLimit": {
        "_hex": "0x55f0"
      },
      "to": "0x04d6C4A9e21ABAea1060Fc39e42F8667Bf14Fcb7",
      "value": {
        "_hex": "0x1889ba96da8b7e50"
      },
      "nonce": 2002,
      "data": "0x",
      "r": "0xa2fd95541abb65364aadf5c38ff7af53e2de9c655e466143a0a035938a5b2ca6",
      "s": "0x1523c10a4ba7fd940818078887b141d9a379c85b04b58253f3c65ab51c4c8c2d",
      "v": 27,
      "creates": null,
      "raw": "0xf86e8207d2850dc0490b2a8255f09404d6c4a9e21abaea1060fc39e42f8667bf14fcb7881889ba96da8b7e50801ba0a2fd95541abb65364aadf5c38ff7af53e2de9c655e466143a0a035938a5b2ca6a01523c10a4ba7fd940818078887b141d9a379c85b04b58253f3c65ab51c4c8c2d",
      "networkId": 0,
      "chainId": 0
    }
  ]
}