{
  "hash": "0x32e3694f406f3f275baff701912630c39b82fd27a49bdb26828af50d257c9a19",
  "parentHash": "0x1674246e2b6d40980daaf17315432f591529d5e9a4623f8ac7f1b6a85e3e6b8e",
  "number": 112015,
  "timestamp": 1440000537,
  "nonce": "0x86a663a761e1b93f",
  "difficulty": 4379039440302,
  "gasLimit": {
    "_hex": "0x2fe3db"
  },
  "gasUsed": {
    "_hex": "0xa410"
  },
  "miner": "0xe6A7a1d47ff21B6321162AEA7C6CB457D5476Bca",
  "extraData": "0x476574682f76312e302e312d38326566323666362f6c696e75782f676f312e34",
  "transactions": [
    {
      "hash": "0x05e06c4ecb6f773928435d6a6a454095d8f7dce9652be722f004d336eb8bf493",
      "blockHash": "0x32e3694f406f3f275baff701912630c39b82fd27a49bdb26828af50d257c9a19",
      "blockNumber": 112015,
      "transactionIndex": 0,
      "confirmations": null,
      "from": "0x89Ea4C778D3f3D6BE70883BB9995D41Bd4c453Ab",
      "gasPrice": {
        "_hex": "0xddd88e721"
      },
      "gasLimit": {
        "_hex": "0x5208"
      },
      "to": "0x32Be343B94f860124dC4fEe278FDCBD38C102D88",
      "value": {
        "_hex": "0x61208d843b123800"
      },
      "nonce": 6,
      "data": "0x",
      "r": "0x92fb558618bf5764a02f34f497e1599c98c0eb552d1cfd965ce2f951c6c972ac",
      "s": "0x5dcaf6b27c073febe536056e53600f7c0f822dac55ff8f4c08371d4f7591e04a",
      "v": 27,
      "creates": null,
      "raw": "0xf86c06850ddd88e7218252089432be343b94f860124dc4fee278fdcbd38c102d888861208d843b123800801ba092fb558618bf5764a02f34f497e1599c98c0eb552d1cfd965ce2f951c6c972aca05dcaf6b27c073febe536056e53600f7c0f822dac55ff8f4c08371d4f7591e04a",
      "networkId": 0,
      "chainId": 0
    },
    {
      "hash": "0x8c9e9322d781c0fd9cb8b24d2bc6bc3a695475dfb26cd67359c24664d36e304a",
      "blockHash": "0x32e3694f406f3f275baff701912630c39b82fd27a49bdb26828af50d257c9a19",
      "blockNumber": 112015,
      "transactionIndex": 1,
      "confirmations": null,
      "from": "0x32Be343B94f860124dC4fEe278FDCBD38C102D88",
      "gasPrice": {
        "_hex": "0xdb9ca7c74"
      },
      "gasLimit": {
        "_hex": "0x5208"
      },
      "to": "0x9e8eF88C157272C8710E019DbB2Ef14610815506",
      "value": {
        "_hex": "0x2b5c0282441c70000"
      },
      "nonce": 1325,
      "data": "0x",
      "r": "0xb837e0fa519223559c876571a1e317b3e01107a094b604850bc6fda7c4f3c0b3",
      "s": "0x21429d0bd34410eb226dd037762f06e27c56242aa680e6601815c895ccf3b452",
      "v": 27,
      "creates": null,
      "raw": "0xf86f82052d850db9ca7c74825208949e8ef88c157272c8710e019dbb2ef146108155068902b5c0282441c70000801ba0b837e0fa519223559c876571a1e317b3e01107a094b604850bc6fda7c4f3c0b3a021429d0bd34410eb226dd037762f06e27c56242aa680e6601815c895ccf3b452",
      "networkId": 0,
      "chainId": 0
    }
  ]
}