{
  "hash": "0x2da8a03ba94a992cee90dcdd7020a95b0dde7d59d313554ff7ffbde642632f67",
  "parentHash": "0xbc0bb21df8936d800629a25cc9ace202e119dd6e5e0b0395c490fe2150300e03",
  "number": 111089,
  "timestamp": 1439984524,
  "nonce": "0x4be7232a1df60757",
  "difficulty": 4405259454922,
  "gasLimit": {
    "_hex": "0x2fefd8"
  },
  "gasUsed": {
    "_hex": "0x5208"
  },
  "miner": "0xe6A7a1d47ff21B6321162AEA7C6CB457D5476Bca",
  "extraData": "0x476574682f76312e302e312d38326566323666362f6c696e75782f676f312e34",
  "transactions": [
    {
      "hash": "0xc9aacc928f24b5667c35feefff36d5ab65fe95b16e298f71a927e5d3cc95bebf",
      "blockHash": "0x2da8a03ba94a992cee90dcdd7020a95b0dde7d59d313554ff7ffbde642632f67",
      "blockNumber": 111089,
      "transactionIndex": 0,
      "confirmations": null,
      "from": "0x120A270bbC009644e35F0bB6ab13f95b8199c4ad",
      "gasPrice": {
        "_hex": "0xd56155c3a"
      },
      "gasLimit": {
        "_hex": "0x3d090"
      },
      "to": "0x60d85a32126130b225913C23dF4e5EF8b759fA09",
      "value": {
        "_hex": "0x25f273933db5700000"
      },
      "nonce": 870,
      "data": "0x",
      "r": "0x6e15a12fadce292f67824b49e3c1e58c0a350bf2c77828e702d0d83a69446ec3",
      "s": "0x7f0c62c97a011d1cae1ebb4675a361e9e120ab68b5f6d62c458c1d2cadd1c3c8",
      "v": 27,
      "creates": null,
      "raw": "0xf870820366850d56155c3a8303d0909460d85a32126130b225913c23df4e5ef8b759fa098925f273933db5700000801ba06e15a12fadce292f67824b49e3c1e58c0a350bf2c77828e702d0d83a69446ec3a07f0c62c97a011d1cae1ebb4675a361e9e120ab68b5f6d62c458c1d2cadd1c3c8",
      "networkId": 0,
      "chainId": 0
    }
  ]
}