{
  "hash": "0x0a2f6f876d218d3dddf54912f87976fb86c1c202a01d3863a635c29c2cae9b2e",
  "parentHash": "0xccdac64a7271e44475280d50cd574085754e1809827cf97aa31e2cdca97428a9",
  "number": 95472,
  "timestamp": 1439724643,
  "nonce": "0xe5ef50054eba0a68",
  "difficulty": 3607448288828,
  "gasLimit": {
    "_hex": "0x2fefd8"
  },
  "gasUsed": {
    "_hex": "0x5208"
  },
  "miner": "0xe6A7a1d47ff21B6321162AEA7C6CB457D5476Bca",
  "extraData": "0x476574682f76312e302e312d38326566323666362f6c696e75782f676f312e34",
  "transactions": [
    {
      "hash": "0x4bd3f5641d661145440c1678a182a11a10389c6baadf41d7741ee02afff211ae",
      "blockHash": "0x0a2f6f876d218d3dddf54912f87976fb86c1c202a01d3863a635c29c2cae9b2e",
      "blockNumber": 95472,
      "transactionIndex": 0,
      "confirmations": null,
      "from": "0x120A270bbC009644e35F0bB6ab13f95b8199c4ad",
      "gasPrice": {
        "_hex": "0xe1465cb42"
      },
      "gasLimit": {
        "_hex": "0x3d090"
      },
      "to": "0x6A9E7Ba8bf743701240Ee5afbf82b209661a57dB",
      "value": {
        "_hex": "0xa3a23122d023400"
      },
      "nonce": 600,
      "data": "0x",
      "r": "0xdd7c60e5cabe558b925b0b731869eea9c17e65cc0e01ae4f01e3ac44dabe544b",
      "s": "0x3cb646f3505edd3da1c22acd49c622c518b5f3d48085f967312622d4bc8df1e5",
      "v": 28,
      "creates": null,
      "raw": "0xf86f820258850e1465cb428303d090946a9e7ba8bf743701240ee5afbf82b209661a57db880a3a23122d023400801ca0dd7c60e5cabe558b925b0b731869eea9c17e65cc0e01ae4f01e3ac44dabe544ba03cb646f3505edd3da1c22acd49c622c518b5f3d48085f967312622d4bc8df1e5",
      "networkId": 0,
      "chainId": 0
    }
  ]
}