{
  "hash": "0x3f23a453384361231b6e054c178fef57b28bf232394db4066f2b5e57ac28ea9d",
  "parentHash": "0x318faf3ccdb116d01bb8322969c3fc24f5522bd5f6b8a661defa6a3d3e52a537",
  "number": 74509,
  "timestamp": 1439387183,
  "nonce": "0x662ae1b89c0a290f",
  "difficulty": 2216110272007,
  "gasLimit": {
    "_hex": "0x2fefd8"
  },
  "gasUsed": {
    "_hex": "0x5208"
  },
  "miner": "0xF78645Ea06d743C6B52a11EB3f3d486bbb4Cf01F",
  "extraData": "0x",
  "transactions": [
    {
      "hash": "0x08c8c61a3e8dc5a49f5cdcdb403d6a0aa857c89df30a5d2e9ac4a6c2934d4d35",
      "blockHash": "0x3f23a453384361231b6e054c178fef57b28bf232394db4066f2b5e57ac28ea9d",
      "blockNumber": 74509,
      "transactionIndex": 0,
      "confirmations": null,
      "from": "0x0037ce3d4B7f8729C8607D8D0248252Be68202c0",
      "gasPrice": {
        "_hex": "0xd8d597219"
      },
      "gasLimit": {
        "_hex": "0x15f90"
      },
      "to": "0x8B454d830feF179e66206840F8F3D1d83bC32b17",
      "value": {
        "_hex": "0x2b5e3af16b1880000"
      },
      "nonce": 11,
      "data": "0x",
      "r": "0x3a4bd08ac8b59636bd92da91669b607bb42dac95825d20f558050d261f66fec9",
      "s": "0x7415063651306f12a7ffc336038087210cd08522292bc0cb61f136076ee13fd3",
      "v": 27,
      "creates": null,
      "raw": "0xf86e0b850d8d59721983015f90948b454d830fef179e66206840f8f3d1d83bc32b178902b5e3af16b1880000801ba03a4bd08ac8b59636bd92da91669b607bb42dac95825d20f558050d261f66fec9a07415063651306f12a7ffc336038087210cd08522292bc0cb61f136076ee13fd3",
      "networkId": 0,
      "chainId": 0
    }
  ]
}