{
  "hash": "0x7f6c4a24f9987bced91a9c243288d3f7dcaf85692b6cddb322d18c8a7b3cca18",
  "parentHash": "0x9d73a4b254126305f779db348187e7ca9d7e0a765a672143fec9bad2bfd71604",
  "number": 66012,
  "timestamp": 1439247110,
  "nonce": "0x0ad2030d22bc6a28",
  "difficulty": 1947205653751,
  "gasLimit": {
    "_hex": "0x2fefd8"
  },
  "gasUsed": {
    "_hex": "0x5208"
  },
  "miner": "0x39A1BB80a741bF5EC39FB9BE59408Fa0F418fFBf",
  "extraData": "0x476574682f76312e302e312f77696e646f77732f676f312e342e32",
  "transactions": [
    {
      "hash": "0xa39ed48a6fef862e3277f24de6a00ea5a728a9d8d092b49e523fc05f93862d3f",
      "blockHash": "0x7f6c4a24f9987bced91a9c243288d3f7dcaf85692b6cddb322d18c8a7b3cca18",
      "blockNumber": 66012,
      "transactionIndex": 0,
      "confirmations": null,
      "from": "0x2910543Af39abA0Cd09dBb2D50200b3E800A63D2",
      "gasPrice": {
        "_hex": "0xcbc62e160"
      },
      "gasLimit": {
        "_hex": "0x5208"
      },
      "to": "0xa47FC4f334B1a1427bC5758A52356a9d664E3CFc",
      "value": {
        "_hex": "0x11c37937e08000"
      },
      "nonce": 196,
      "data": "0x",
      "r": "0x83fe87ae2f38c89e3b7aa75942cbf3b405af38bf0d82ecd4949b485643f4d189",
      "s": "0x16cf519453e4bdb37ed0a51a5cd9fc6569ee862b368360552fd0e6ebf3fa9844",
      "v": 28,
      "creates": null,
      "raw": "0xf86c81c4850cbc62e16082520894a47fc4f334b1a1427bc5758a52356a9d664e3cfc8711c37937e08000801ca083fe87ae2f38c89e3b7aa75942cbf3b405af38bf0d82ecd4949b485643f4d189a016cf519453e4bdb37ed0a51a5cd9fc6569ee862b368360552fd0e6ebf3fa9844",
      "networkId": 0,
      "chainId": 0
    }
  ]
}