{
  "hash": "0xf9f5db86abfe4a5f36ed6fd9a1d7e3bc700b841707c32139b5dcfe55fc646c39",
  "parentHash": "0xd61ddfafcfdc04853de6cac6c73c0daa0d5f53ce6455ae29180fefb83c2e685a",
  "number": 105476,
  "timestamp": 1439888300,
  "nonce": "0x0f73834331402635",
  "difficulty": 4388878589909,
  "gasLimit": {
    "_hex": "0x2fefd8"
  },
  "gasUsed": {
    "_hex": "0x14820"
  },
  "miner": "0xfC25864D8326b4CB335C6942218e5F4Ee8D1E1EF",
  "extraData": "0x476574682f76312e302e312f77696e646f77732f676f312e342e32",
  "transactions": [
    {
      "hash": "0x38d8a38a74c2e1321d47615e6ce1fc10b2aceb05fb32f69e55c173097efe60a0",
      "blockHash": "0xf9f5db86abfe4a5f36ed6fd9a1d7e3bc700b841707c32139b5dcfe55fc646c39",
      "blockNumber": 105476,
      "transactionIndex": 0,
      "confirmations": null,
      "from": "0x0A38ff322A11A9bA4f9a7C668F79025e8CEadc45",
      "gasPrice": {
        "_hex": "0xd8c1aeaee"
      },
      "gasLimit": {
        "_hex": "0x15f90"
      },
      "to": "0x89Ea4C778D3f3D6BE70883BB9995D41Bd4c453Ab",
      "value": {
        "_hex": "0x29a2241af62c0000"
      },
      "nonce": 4,
      "data": "0x",
      "r": "0x695dd35fd6b907ef9f9ccc9e13d5e977f7126f91a9203fb39abcbe04493348c3",
      "s": "0x3682bfe27ab4f88ededc20e8cb20af46455847dffe570fb4d443e4c7b3848643",
      "v": 28,
      "creates": null,
      "raw": "0xf86d04850d8c1aeaee83015f909489ea4c778d3f3d6be70883bb9995d41bd4c453ab8829a2241af62c0000801ca0695dd35fd6b907ef9f9ccc9e13d5e977f7126f91a9203fb39abcbe04493348c3a03682bfe27ab4f88ededc20e8cb20af46455847dffe570fb4d443e4c7b3848643",
      "networkId": 0,
      "chainId": 0
    },
    {
      "hash": "0x3a9988aaf9991a87ae35d0d11c5d0aa995f3548665789c8ad17e3b11bd9e8e3a",
      "blockHash": "0xf9f5db86abfe4a5f36ed6fd9a1d7e3bc700b841707c32139b5dcfe55fc646c39",
      "blockNumber": 105476,
      "transactionIndex": 1,
      "confirmations": null,
      "from": "0xAF17A4ab5d6B10055Fc1eB1BFaCcbDe69B83aF76",
      "gasPrice": {
        "_hex": "0xd6eff45e8"
      },
      "gasLimit": {
        "_hex": "0x5208"
      },
      "to": "0x32Be343B94f860124dC4fEe278FDCBD38C102D88",
      "value": {
        "_hex": "0x47fd6f86d11824000"
      },
      "nonce": 4,
      "data": "0x",
      "r": "0xe8604a7d8fcb534b5966c2514c461b8ee53afef646424f05cc1950462eebdede",
      "s": "0x6af4f6f9e1fde91fc2463f8788098b0da9ae23464367c7e68cd51b7251c8dd74",
      "v": 28,
      "creates": null,
      "raw": "0xf86d04850d6eff45e88252089432be343b94f860124dc4fee278fdcbd38c102d8889047fd6f86d11824000801ca0e8604a7d8fcb534b5966c2514c461b8ee53afef646424f05cc1950462eebdedea06af4f6f9e1fde91fc2463f8788098b0da9ae23464367c7e68cd51b7251c8dd74",
      "networkId": 0,
      "chainId": 0
    },
    {
      "hash": "0x670aa0421214b8cf0fe7e9eacaa6fe04db1bd6afed91dcae4b34456583983f91",
      "blockHash": "0xf9f5db86abfe4a5f36ed6fd9a1d7e3bc700b841707c32139b5dcfe55fc646c39",
      "blockNumber": 105476,
      "transactionIndex": 2,
      "confirmations": null,
      "from": "0x4D67f4F0Db45b3B5a3424B39ed8d972F710381D5",
      "gasPrice": {
        "_hex": "0xd6eff45e8"
      },
      "gasLimit": {
        "_hex": "0x5208"
      },
      "to": "0x32Be343B94f860124dC4fEe278FDCBD38C102D88",
      "value": {
        "_hex": "0x331627c9ce4cac000"
      },
      "nonce": 25,
      "data": "0x",
      "r": "0x237b02dae0f29113a6c9cd669e9acb82ace94d76f2c8c7219be379383e116373",
      "s": "0x30a041022a139b1e4ef0e4c7c8d2815c9cf5dede636eb68ffa3904b056935a86",
      "v": 27,
      "creates": null,
      "raw": "0xf86d19850d6eff45e88252089432be343b94f860124dc4fee278fdcbd38c102d88890331627c9ce4cac000801ba0237b02dae0f29113a6c9cd669e9acb82ace94d76f2c8c7219be379383e116373a030a041022a139b1e4ef0e4c7c8d2815c9cf5dede636eb68ffa3904b056935a86",
      "networkId": 0,
      "chainId": 0
    },
    {
      "hash": "0x9a79686c57d4f3218c91386386798b0366838d40e54b4c986778290545f0af4b",
      "blockHash": "0xf9f5db86abfe4a5f36ed6fd9a1d7e3bc700b841707c32139b5dcfe55fc646c39",
      "blockNumber": 105476,
      "transactionIndex": 3,
      "confirmations": null,
      "from": "0x48659D8f8C9A2FD44F68daA55d23A608FBE500DC",
      "gasPrice": {
        "_hex": "0xccd1571ea"
      },
      "gasLimit": {
        "_hex": "0x15f90"
      },
      "to": "0xBB33a4b72d92FA335a3b591Ce7eE217f7a7338C1",
      "value": {
        "_hex": "0xf9ccd8a1c5080000"
      },
      "nonce": 9,
      "data": "0x",
      "r": "0xdf2315001ff6eb76f082b942af0968de98f3041d782e5c610455bdf20f43e607",
      "s": "0x6ebce026a849a260634590bf0e933eedcb068d3042f36e13893d2d02525f8484",
      "v": 27,
      "creates": null,
      "raw": "0xf86d09850ccd1571ea83015f9094bb33a4b72d92fa335a3b591ce7ee217f7a7338c188f9ccd8a1c5080000801ba0df2315001ff6eb76f082b942af0968de98f3041d782e5c610455bdf20f43e607a06ebce026a849a260634590bf0e933eedcb068d3042f36e13893d2d02525f8484",
      "networkId": 0,
      "chainId": 0
    }
  ]
}