{
  "hash": "0xed042611be7c4a587454505f73aa574ecb722ad678499de33394ae42fcc74d02",
  "parentHash": "0x3ac9f1fd7335d49b05e3ca12cbea2240b97c5890e8a2875708f8813a489af632",
  "number": 61816,
  "timestamp": 1439178574,
  "nonce": "0x12b8c7d0923b883f",
  "difficulty": 1736134629729,
  "gasLimit": {
    "_hex": "0x2fefd8"
  },
  "gasUsed": {
    "_hex": "0x5208"
  },
  "miner": "0x26E3f7C9e444f2Ca9E0BE2aF841bd060cF1CbDDb",
  "extraData": "0x476574682f76312e302e312f6c696e75782f676f312e342e32",
  "transactions": [
    {
      "hash": "0xb0d1bea62a97a573d637be5418157c32ad3a264bc8ec110f6dbd7a8d73c02232",
      "blockHash": "0xed042611be7c4a587454505f73aa574ecb722ad678499de33394ae42fcc74d02",
      "blockNumber": 61816,
      "transactionIndex": 0,
      "confirmations": null,
      "from": "0x1308A2e95c0160B90803ddCA9B9a5bb55E416d79",
      "gasPrice": {
        "_hex": "0xe8d4a51000"
      },
      "gasLimit": {
        "_hex": "0x15f90"
      },
      "to": "0x6663c7Ad4831fc466526150F68BACB5923598C31",
      "value": {
        "_hex": "0x165dee0f0851bc00"
      },
      "nonce": 107,
      "data": "0x",
      "r": "0x5f5260841551b603c42e4bd7c448cff7d6dc223f88fe7a9250286e9a30ceea34",
      "s": "0x728e459b96bec7f1659b6d1079d21ec26a96ff8a0d46142a7d3a8e32b9c99f11",
      "v": 27,
      "creates": null,
      "raw": "0xf86d6b85e8d4a5100083015f90946663c7ad4831fc466526150f68bacb5923598c3188165dee0f0851bc00801ba05f5260841551b603c42e4bd7c448cff7d6dc223f88fe7a9250286e9a30ceea34a0728e459b96bec7f1659b6d1079d21ec26a96ff8a0d46142a7d3a8e32b9c99f11",
      "networkId": 0,
      "chainId": 0
    }
  ]
}