{
  "hash": "0xe93062ac974aa5aca0afb7b5f1dc0af4b65641b26beb7ea407a46102d6e89f93",
  "parentHash": "0xca11b3f4eb92a3aa6cfb89265aee6909a17e3139eee772d4eca9c65c42a7b0a8",
  "number": 118824,
  "timestamp": 1440132085,
  "nonce": "0xcf860b90fab6775a",
  "difficulty": 4390467297596,
  "gasLimit": {
    "_hex": "0x2fefd8"
  },
  "gasUsed": {
    "_hex": "0x5208"
  },
  "miner": "0xEcbbFE46500E669149DD031fcdbeb3ed9be638Fb",
  "extraData": "0x476574682f76312e302e312d39363965623631382f6c696e75782f676f312e34",
  "transactions": [
    {
      "hash": "0x8ae534c6263fdb7992a275cb0a48643993694a423ea35a6218d65e3e0e56dce4",
      "blockHash": "0xe93062ac974aa5aca0afb7b5f1dc0af4b65641b26beb7ea407a46102d6e89f93",
      "blockNumber": 118824,
      "transactionIndex": 0,
      "confirmations": null,
      "from": "0xFBb1b73C4f0BDa4f67dcA266ce6Ef42f520fBB98",
      "gasPrice": {
        "_hex": "0xba43b7400"
      },
      "gasLimit": {
        "_hex": "0x5208"
      },
      "to": "0x1Fabd401B08dF84f615091C14C6db1a5E0BeaD0c",
      "value": {
        "_hex": "0x1be54874778e11800"
      },
      "nonce": 238,
      "data": "0x",
      "r": "0xff0aa6b10114909dbc9e35955fd5e3b8237dc0be6ed56d6f6543608df8f3fec1",
      "s": "0x7c27f0a704dbf7ef71b8d81a24d145710882dba9d0e5cc34294768f048ef84c2",
      "v": 27,
      "creates": null,
      "raw": "0xf86e81ee850ba43b7400825208941fabd401b08df84f615091c14c6db1a5e0bead0c8901be54874778e11800801ba0ff0aa6b10114909dbc9e35955fd5e3b8237dc0be6ed56d6f6543608df8f3fec1a07c27f0a704dbf7ef71b8d81a24d145710882dba9d0e5cc34294768f048ef84c2",
      "networkId": 0,
      "chainId": 0
    }
  ]
}