{
  "hash": "0x205a3bf6cda7e954c4c2678d103734711825b3d69c0e395a98d8c937f24c0bd7",
  "parentHash": "0xb5ea790d29cf576ff703395ffeeda2c9709d14321db18b2668a3ed8cc2700ccb",
  "number": 82621,
  "timestamp": 1439522382,
  "nonce": "0x5805294b8c701d82",
  "difficulty": 2370606628747,
  "gasLimit": {
    "_hex": "0x2fefd8"
  },
  "gasUsed": {
    "_hex": "0x5208"
  },
  "miner": "0xe6A7a1d47ff21B6321162AEA7C6CB457D5476Bca",
  "extraData": "0x476574682f76312e302e312d38326566323666362f6c696e75782f676f312e34",
  "transactions": [
    {
      "hash": "0x8b8a1e633e443140340d01026214a0b64f1bb02708e895d4854e02f2d131a3f2",
      "blockHash": "0x205a3bf6cda7e954c4c2678d103734711825b3d69c0e395a98d8c937f24c0bd7",
      "blockNumber": 82621,
      "transactionIndex": 0,
      "confirmations": null,
      "from": "0x003a0659d5452a076403d1411E617C9665955d59",
      "gasPrice": {
        "_hex": "0xba43b7400"
      },
      "gasLimit": {
        "_hex": "0x5213"
      },
      "to": "0x00d148560e3BCb5594F145f32E96a336EEC21921",
      "value": {
        "_hex": "0x2c68af0bb140000"
      },
      "nonce": 1,
      "data": "0x",
      "r": "0x03908656600166d5fa678914c6c3b009b0367ebd62297ca3584a9df0dea7f3b4",
      "s": "0x7e0447b857d9310019b212613b532e7c4e66d13dc860e550d0009048a9ac0e1e",
      "v": 28,
      "creates": null,
      "raw": "0xf86c01850ba43b74008252139400d148560e3bcb5594f145f32e96a336eec219218802c68af0bb140000801ca003908656600166d5fa678914c6c3b009b0367ebd62297ca3584a9df0dea7f3b4a07e0447b857d9310019b212613b532e7c4e66d13dc860e550d0009048a9ac0e1e",
      "networkId": 0,
      "chainId": 0
    }
  ]
}