{
  "hash": "0xa16bea911381fa49128a45f2a27771051a7eef6977c5b9690d12e97909cce1b9",
  "parentHash": "0x20d67b0a1bf3e645ccf6ee3d3dcc66407f8d4b79169ee8d12e15903bb2af1533",
  "number": 113628,
  "timestamp": 1440026848,
  "nonce": "0xe58969eafe1e8306",
  "difficulty": 4453663228578,
  "gasLimit": {
    "_hex": "0x2fefd8"
  },
  "gasUsed": {
    "_hex": "0x5208"
  },
  "miner": "0xe6A7a1d47ff21B6321162AEA7C6CB457D5476Bca",
  "extraData": "0x476574682f76312e302e312d38326566323666362f6c696e75782f676f312e34",
  "transactions": [
    {
      "hash": "0x01f8cca8bfc032bd408c38a02c44ac74d1b7827efb3ca00da67e55fd732a38a2",
      "blockHash": "0xa16bea911381fa49128a45f2a27771051a7eef6977c5b9690d12e97909cce1b9",
      "blockNumber": 113628,
      "transactionIndex": 0,
      "confirmations": null,
      "from": "0x32Be343B94f860124dC4fEe278FDCBD38C102D88",
      "gasPrice": {
        "_hex": "0xdf64b0f0b"
      },
      "gasLimit": {
        "_hex": "0x5208"
      },
      "to": "0x72c083BeadBdc227c5fb43881597E32e83C26056",
      "value": {
        "_hex": "0x10f0cccddeae9600000"
      },
      "nonce": 1372,
      "data": "0x",
      "r": "0x759d5e4de049e34600e17166695ecd3ba426b82d921fff16dd027d4cadd8d600",
      "s": "0x2fbdea7f8bb120c411931ba2b3d4a930c0fb40f2f2fb5b4a16e2e2327a842572",
      "v": 27,
      "creates": null,
      "raw": "0xf87082055c850df64b0f0b8252089472c083beadbdc227c5fb43881597e32e83c260568a010f0cccddeae9600000801ba0759d5e4de049e34600e17166695ecd3ba426b82d921fff16dd027d4cadd8d600a02fbdea7f8bb120c411931ba2b3d4a930c0fb40f2f2fb5b4a16e2e2327a842572",
      "networkId": 0,
      "chainId": 0
    }
  ]
}