{
  "hash": "0x996c649f9c037e194b3a42748ee11d011f140624546436b134b6ee2db3039fe3",
  "parentHash": "0xa8f32b2f734691bb6a7ecac9b3b531babe3945fb43e13a49c0f7c6b9c46f741e",
  "number": 96546,
  "timestamp": 1439742149,
  "nonce": "0x62fb5a4dfdfde07b",
  "difficulty": 3688919459256,
  "gasLimit": {
    "_hex": "0x2fefd5"
  },
  "gasUsed": {
    "_hex": "0x5208"
  },
  "miner": "0xe6A7a1d47ff21B6321162AEA7C6CB457D5476Bca",
  "extraData": "0x476574682f76312e302e312d38326566323666362f6c696e75782f676f312e34",
  "transactions": [
    {
      "hash": "0xa291bab99a1691817bdf35f5a2e6cb8065c8bfe483e47fb452bb3e716c8062ca",
      "blockHash": "0x996c649f9c037e194b3a42748ee11d011f140624546436b134b6ee2db3039fe3",
      "blockNumber": 96546,
      "transactionIndex": 0,
      "confirmations": null,
      "from": "0x40B9b889A21Ff1534d018D71Dc406122EBcf3F5A",
      "gasPrice": {
        "_hex": "0x100cd2fcaaf"
      },
      "gasLimit": {
        "_hex": "0x15f90"
      },
      "to": "0xE3291e02d1d7b6A7F4aAA164c56Cf21FD30D0eb5",
      "value": {
        "_hex": "0x3635c9adc5dea00000"
      },
      "nonce": 32,
      "data": "0x",
      "r": "0x9d2daf57de8025659ef188186dcedfd46c9f3e62ddde8281219f438319e96748",
      "s": "0x6c7070e2934dab047d3dc57768b3826b878cab471e54e592d4f7f7be86955b6f",
      "v": 28,
      "creates": null,
      "raw": "0xf86f20860100cd2fcaaf83015f9094e3291e02d1d7b6a7f4aaa164c56cf21fd30d0eb5893635c9adc5dea00000801ca09d2daf57de8025659ef188186dcedfd46c9f3e62ddde8281219f438319e96748a06c7070e2934dab047d3dc57768b3826b878cab471e54e592d4f7f7be86955b6f",
      "networkId": 0,
      "chainId": 0
    }
  ]
}