{
  "hash": "0xf929f18a1f884b9597b5d6ce22607ef185db1129e74513ba83539dca6ed624f3",
  "parentHash": "0x928364d25634bcb7ff122385d5a3dbd2f5d6170e92d7ea87ce3381ce7ad62416",
  "number": 103314,
  "timestamp": 1439851201,
  "nonce": "0x45ce3fd93459d31e",
  "difficulty": 4176722245089,
  "gasLimit": {
    "_hex": "0x2fefd8"
  },
  "gasUsed": {
    "_hex": "0x5208"
  },
  "miner": "0x9D49F602b0fdb924Bd63DDE2Bd0907E4A07c63a7",
  "extraData": "0x476574682f76312e302e312f6c696e75782f676f312e342e32",
  "transactions": [
    {
      "hash": "0x46217144092e64b80efa0a1606e68ea9b3b4bca4d83b2a63e28277a68956e56a",
      "blockHash": "0xf929f18a1f884b9597b5d6ce22607ef185db1129e74513ba83539dca6ed624f3",
      "blockNumber": 103314,
      "transactionIndex": 0,
      "confirmations": null,
      "from": "0x60a175bB691fEE8557a7b6D8eFC9E49889486f41",
      "gasPrice": {
        "_hex": "0xcaeb8f4cb"
      },
      "gasLimit": {
        "_hex": "0x15f90"
      },
      "to": "0x67a8Acb3621e0683EC4eeb0be82BE8cf344d97c6",
      "value": {
        "_hex": "0xde0b6b3a7640000"
      },
      "nonce": 5,
      "data": "0x",
      "r": "0xbb9675a9609c79d1d66e4eb49fc6be29d8a957c2dc5fb5ded6df24f14da6d203",
      "s": "0x461de991ce8469577a2cd28fa15440983422c1c066b623a15e4ddf0c6358e60a",
      "v": 28,
      "creates": null,
      "raw": "0xf86d05850caeb8f4cb83015f909467a8acb3621e0683ec4eeb0be82be8cf344d97c6880de0b6b3a7640000801ca0bb9675a9609c79d1d66e4eb49fc6be29d8a957c2dc5fb5ded6df24f14da6d203a0461de991ce8469577a2cd28fa15440983422c1c066b623a15e4ddf0c6358e60a",
      "networkId": 0,
      "chainId": 0
    }
  ]
}