{
  "hash": "0x036238658fd927a4ee0f1e356dde11e210704c0fd09d15db8331994efc42634a",
  "parentHash": "0x1aa4c29d386f1803e09266237c8d432a45211c4aed6dff13a087d5fddbac228d",
  "number": 120044,
  "timestamp": 1440153125,
  "nonce": "0xf2b11c320640f498",
  "difficulty": 4394117851342,
  "gasLimit": {
    "_hex": "0x2fefd8"
  },
  "gasUsed": {
    "_hex": "0xa410"
  },
  "miner": "0x52bc44d5378309EE2abF1539BF71dE1b7d7bE3b5",
  "extraData": "0xd783010002844765746887676f312e342e32856c696e7578",
  "transactions": [
    {
      "hash": "0xb33aba1420a69cb47c1a7cc8766ee397e437c6900875747da843fe8d1ad07209",
      "blockHash": "0x036238658fd927a4ee0f1e356dde11e210704c0fd09d15db8331994efc42634a",
      "blockNumber": 120044,
      "transactionIndex": 0,
      "confirmations": null,
      "from": "0xeC06c233d618b41076FbfF739Efb85a4999F89Da",
      "gasPrice": {
        "_hex": "0xba43b7400"
      },
      "gasLimit": {
        "_hex": "0x5208"
      },
      "to": "0x32Be343B94f860124dC4fEe278FDCBD38C102D88",
      "value": {
        "_hex": "0x18d3a08bf6ef6000"
      },
      "nonce": 9,
      "data": "0x",
      "r": "0x93f619c41515baf05dd33f11e37f3bc59450f05eccb3852d86d752b11861ed2a",
      "s": "0x601c08223fba7eda2ab6b00cf625665a61122b80a44ff5a2861e39742ce55e9e",
      "v": 27,
      "creates": null,
      "raw": "0xf86c09850ba43b74008252089432be343b94f860124dc4fee278fdcbd38c102d888818d3a08bf6ef6000801ba093f619c41515baf05dd33f11e37f3bc59450f05eccb3852d86d752b11861ed2aa0601c08223fba7eda2ab6b00cf625665a61122b80a44ff5a2861e39742ce55e9e",
      "networkId": 0,
      "chainId": 0
    },
    {
      "hash": "0x0793d9191e410ca6780fb86f420fbe0f52f8737d868115d68f6870ef5c18137b",
      "blockHash": "0x036238658fd927a4ee0f1e356dde11e210704c0fd09d15db8331994efc42634a",
      "blockNumber": 120044,
      "transactionIndex": 1,
      "confirmations": null,
      "from": "0x5757aD9187871b88a825F0dBF416cE7CF1606898",
      "gasPrice": {
        "_hex": "0xba43b7400"
      },
      "gasLimit": {
        "_hex": "0x5208"
      },
      "to": "0x32Be343B94f860124dC4fEe278FDCBD38C102D88",
      "value": {
        "_hex": "0x107fffb9c5b36000"
      },
      "nonce": 1,
      "data": "0x",
      "r": "0xeb0697ff921d2491b51bd00a736f0b58155d3d7d42f29d565c44a00a9c21439f",
      "s": "0x1e53fb45de8a3e7ebb1c942e8973d364c6c614a83b68e2c7562bf51b6bd5f918",
      "v": 28,
      "creates": null,
      "raw": "0xf86c01850ba43b74008252089432be343b94f860124dc4fee278fdcbd38c102d8888107fffb9c5b36000801ca0eb0697ff921d2491b51bd00a736f0b58155d3d7d42f29d565c44a00a9c21439fa01e53fb45de8a3e7ebb1c942e8973d364c6c614a83b68e2c7562bf51b6bd5f918",
      "networkId": 0,
      "chainId": 0
    }
  ]
}