{
  "hash": "0x119ef229cdf778f17a0eed6c82ed9e2cf005bf3b13c6bd69f8ed72df93bec5f1",
  "parentHash": "0x23d95ff809b9c23966c5bb8b6d52a00cc1e792190f82ebaa4182ea74cf60fddd",
  "number": 69350,
  "timestamp": 1439302460,
  "nonce": "0xe769fe517d9fea23",
  "difficulty": 2063887170680,
  "gasLimit": {
    "_hex": "0x2fefd5"
  },
  "gasUsed": {
    "_hex": "0x5208"
  },
  "miner": "0x39A1BB80a741bF5EC39FB9BE59408Fa0F418fFBf",
  "extraData": "0x476574682f76312e302e312f77696e646f77732f676f312e342e32",
  "transactions": [
    {
      "hash": "0x2893ff955382b80661686c98c14053b4641a8c02525395e04d6e0793d838abfa",
      "blockHash": "0x119ef229cdf778f17a0eed6c82ed9e2cf005bf3b13c6bd69f8ed72df93bec5f1",
      "blockNumber": 69350,
      "transactionIndex": 0,
      "confirmations": null,
      "from": "0xa70a9a7040d542C632D8e0bE7c5513A8a5Bbc752",
      "gasPrice": {
        "_hex": "0xdd6d3502c"
      },
      "gasLimit": {
        "_hex": "0x5208"
      },
      "to": "0x32Be343B94f860124dC4fEe278FDCBD38C102D88",
      "value": {
        "_hex": "0x455f2244bb4c4c00"
      },
      "nonce": 7,
      "data": "0x",
      "r": "0xff9b6a814acbbe292b810e50b9e59aad5f211a9f9f4c50a0374004ac54b20b2f",
      "s": "0x15368a47be48ec329e83d9f5e5a13230df25d54a95d02987664f9ec4eb6b1543",
      "v": 28,
      "creates": null,
      "raw": "0xf86c07850dd6d3502c8252089432be343b94f860124dc4fee278fdcbd38c102d8888455f2244bb4c4c00801ca0ff9b6a814acbbe292b810e50b9e59aad5f211a9f9f4c50a0374004ac54b20b2fa015368a47be48ec329e83d9f5e5a13230df25d54a95d02987664f9ec4eb6b1543",
      "networkId": 0,
      "chainId": 0
    }
  ]
}