{
  "hash": "0x21daf08042cb926184b29bc750e24e57b0bf69dce74ddb953d66b1f80153e869",
  "parentHash": "0x0e3947bad40bad4f43fd46dbf21ae83e1fc335ce76f61f7c9a0d79f19b7873e1",
  "number": 49082,
  "timestamp": 1438967587,
  "nonce": "0xd6885f05f8866298",
  "difficulty": 1484348623559,
  "gasLimit": {
    "_hex": "0x25461"
  },
  "gasUsed": {
    "_hex": "0x546c"
  },
  "miner": "0x3222BA3F3e79eA0e31467EEE7639B57923558cCD",
  "extraData": "0x476574682f76312e302e302f77696e646f77732f676f312e342e32",
  "transactions": [
    {
      "hash": "0x1f56f8326ee38c3c77270561b2ca3a03ba0f326f3042ff8ad7ad7651ac514c73",
      "blockHash": "0x21daf08042cb926184b29bc750e24e57b0bf69dce74ddb953d66b1f80153e869",
      "blockNumber": 49082,
      "transactionIndex": 0,
      "confirmations": null,
      "from": "0xe44ea51063405154AAE736Be2BF1Ee3B9BE639ae",
      "gasPrice": {
        "_hex": "0x110c8f7d8de"
      },
      "gasLimit": {
        "_hex": "0xc350"
      },
      "to": "0x2910543Af39abA0Cd09dBb2D50200b3E800A63D2",
      "value": {
        "_hex": "0x4db732547630000"
      },
      "nonce": 3,
      "data": "0x454e52435736594147",
      "r": "0x3f6d47234b4b3ecbbd09305c81d0de91fd8a4a8aadd214d257d84e4ad5270368",
      "s": "0x11616db48fd3d427cce5d8d7d988760a9e5d14d03c6173dff5d6e6efd9d74d10",
      "v": 27,
      "creates": null,
      "raw": "0xf87603860110c8f7d8de82c350942910543af39aba0cd09dbb2d50200b3e800a63d28804db73254763000089454e524357365941471ba03f6d47234b4b3ecbbd09305c81d0de91fd8a4a8aadd214d257d84e4ad5270368a011616db48fd3d427cce5d8d7d988760a9e5d14d03c6173dff5d6e6efd9d74d10",
      "networkId": 0,
      "chainId": 0
    }
  ]
}