{
  "hash": "0xb9c6ef53d3203f26a4a7346be23d1756e467c7c3ee60c636c557c530a7e2677c",
  "parentHash": "0x6a9d31376812338e678c3054d3a0719d31667cab4401dfc41455deba7d09fbd3",
  "number": 55292,
  "timestamp": 1439068278,
  "nonce": "0x256bf10167e059ab",
  "difficulty": 1638604773360,
  "gasLimit": {
    "_hex": "0x2fefd8"
  },
  "gasUsed": {
    "_hex": "0xddfd"
  },
  "miner": "0x108b54b7E3c09F8127CB8B28ffA3AD4001b32998",
  "extraData": "0x476574682f76312e302e312f6c696e75782f676f312e342e32",
  "transactions": [
    {
      "hash": "0x348044844642244e01e05e9baf70c4c73f31b0a59f07e2442f724a777c244ee8",
      "blockHash": "0xb9c6ef53d3203f26a4a7346be23d1756e467c7c3ee60c636c557c530a7e2677c",
      "blockNumber": 55292,
      "transactionIndex": 0,
      "confirmations": null,
      "from": "0x0ae3F81a67725a8A7758FeB8684c6c17dA20755D",
      "gasPrice": {
        "_hex": "0xd9427cf0c"
      },
      "gasLimit": {
        "_hex": "0x1e8480"
      },
      "to": "0xBAA54d6E90c3F4d7Ebec11bD180134C7eD8eBb52",
      "value": {
        "_hex": "0x16345785d8a0000"
      },
      "nonce": 134,
      "data": "0x",
      "r": "0x6706203f10c049f49247f0403b0a8e3050599931cf27300f9d0eac248eb1ab5a",
      "s": "0x5ebf53a2828791a860780de9b588f474dd5f485a2ca4789eeb29ab0f9aceeba2",
      "v": 28,
      "creates": null,
      "raw": "0xf86e8186850d9427cf0c831e848094baa54d6e90c3f4d7ebec11bd180134c7ed8ebb5288016345785d8a0000801ca06706203f10c049f49247f0403b0a8e3050599931cf27300f9d0eac248eb1ab5aa05ebf53a2828791a860780de9b588f474dd5f485a2ca4789eeb29ab0f9aceeba2",
      "networkId": 0,
      "chainId": 0
    }
  ]
}