{
  "hash": "0xff9ca284b959a71a1e8afa1c9687726b817de1d100b870e1bfb00869b53b5b8c",
  "parentHash": "0x726fc71399522042e1c09642cab1506162273908b2425343ceac260edb2f0cf0",
  "number": 112798,
  "timestamp": 1440013449,
  "nonce": "0x81a8abf842deae3b",
  "difficulty": 4428081955861,
  "gasLimit": {
    "_hex": "0x2fefd8"
  },
  "gasUsed": {
    "_hex": "0x5208"
  },
  "miner": "0xEF247E639d49461D25F57e9362CadE3120910Ce0",
  "extraData": "0x476574682f76312e302e312f6c696e75782f676f312e342e32",
  "transactions": [
    {
      "hash": "0xe2a22fd8c2bb78bd072fe89d4bcf00d952f6173f159510aab2cd888f35e0aace",
      "blockHash": "0xff9ca284b959a71a1e8afa1c9687726b817de1d100b870e1bfb00869b53b5b8c",
      "blockNumber": 112798,
      "transactionIndex": 0,
      "confirmations": null,
      "from": "0xF2B3F8Eb4e663dA275b8C57fe45A0E8D489Eac2E",
      "gasPrice": {
        "_hex": "0xceddb0ff5"
      },
      "gasLimit": {
        "_hex": "0x5208"
      },
      "to": "0x32Be343B94f860124dC4fEe278FDCBD38C102D88",
      "value": {
        "_hex": "0x2527695a49bac800"
      },
      "nonce": 4,
      "data": "0x",
      "r": "0xdb974d6e1774474837857cac9eec5e87dc13a2052f01c4fbb1d63074cfa0e2cf",
      "s": "0x1b38b0f8c1c5f11d772e3b800c35980062b95ca200b8392040cc8df9532ac1f8",
      "v": 27,
      "creates": null,
      "raw": "0xf86c04850ceddb0ff58252089432be343b94f860124dc4fee278fdcbd38c102d88882527695a49bac800801ba0db974d6e1774474837857cac9eec5e87dc13a2052f01c4fbb1d63074cfa0e2cfa01b38b0f8c1c5f11d772e3b800c35980062b95ca200b8392040cc8df9532ac1f8",
      "networkId": 0,
      "chainId": 0
    }
  ]
}