{
  "hash": "0xb90e04ce5702ce0c8f648f2040a8559d83e84bd9453ffd662c7f864867e40989",
  "parentHash": "0x500acae28499596de5240b5b5ffe668a57b5771eb69874ce3beeecf6fde32e0e",
  "number": 111685,
  "timestamp": 1439994282,
  "nonce": "0x2a45551f4a22e67d",
  "difficulty": 4448174266392,
  "gasLimit": {
    "_hex": "0x2fefd8"
  },
  "gasUsed": {
    "_hex": "0x5208"
  },
  "miner": "0xe6A7a1d47ff21B6321162AEA7C6CB457D5476Bca",
  "extraData": "0x476574682f76312e302e312d38326566323666362f6c696e75782f676f312e34",
  "transactions": [
    {
      "hash": "0xfddd8703f64386143ae108da78f458955edde194de3a1a978c8100a8cd62d557",
      "blockHash": "0xb90e04ce5702ce0c8f648f2040a8559d83e84bd9453ffd662c7f864867e40989",
      "blockNumber": 111685,
      "transactionIndex": 0,
      "confirmations": null,
      "from": "0x32Be343B94f860124dC4fEe278FDCBD38C102D88",
      "gasPrice": {
        "_hex": "0xd4709de35"
      },
      "gasLimit": {
        "_hex": "0x5208"
      },
      "to": "0xE3A4CD0E7193d90A4e94EAb73d2a546a34130170",
      "value": {
        "_hex": "0x1b502f428a90d0000"
      },
      "nonce": 1313,
      "data": "0x",
      "r": "0xbd73daa7f422bb95b63dfce0731895ebd54671002a422acb021fdfa2a8e34b7d",
      "s": "0x7441f15e34a04ea71a039168c8cedf000124495b9d50089a4b65b72227b2c844",
      "v": 27,
      "creates": null,
      "raw": "0xf86f820521850d4709de3582520894e3a4cd0e7193d90a4e94eab73d2a546a341301708901b502f428a90d0000801ba0bd73daa7f422bb95b63dfce0731895ebd54671002a422acb021fdfa2a8e34b7da07441f15e34a04ea71a039168c8cedf000124495b9d50089a4b65b72227b2c844",
      "networkId": 0,
      "chainId": 0
    }
  ]
}