{
  "hash": "0x8f2c846356bb4ea90319066bcd04df6aacf30aa1bd0a14d2d7543e855fd4c932",
  "parentHash": "0xe7368af05ecfcd15645fa629699fc9fe67b2056cc0d4a34224f1ee903b2378e3",
  "number": 68654,
  "timestamp": 1439291419,
  "nonce": "0x5d62fde485e7dc03",
  "difficulty": 2020186378489,
  "gasLimit": {
    "_hex": "0x2fefd8"
  },
  "gasUsed": {
    "_hex": "0x1ec30"
  },
  "miner": "0x863b7d048A0B7bfc239AF19F6A736E0995fB1C73",
  "extraData": "0x476574682f76312e302e312f6c696e75782f676f312e342e32",
  "transactions": [
    {
      "hash": "0x14a964e525f6ba5503f4a9a7ebf8b5e04d9df5b587f3a0b4bd8cf4d01575a0f6",
      "blockHash": "0x8f2c846356bb4ea90319066bcd04df6aacf30aa1bd0a14d2d7543e855fd4c932",
      "blockNumber": 68654,
      "transactionIndex": 0,
      "confirmations": null,
      "from": "0x2910543Af39abA0Cd09dBb2D50200b3E800A63D2",
      "gasPrice": {
        "_hex": "0xdd03c8b38"
      },
      "gasLimit": {
        "_hex": "0x5208"
      },
      "to": "0x6534B8e66572C2822b90301C26Fc221B0AC0efDa",
      "value": {
        "_hex": "0xa676ccf2a0cf8000"
      },
      "nonce": 217,
      "data": "0x",
      "r": "0x4e8df93f041f309bccffc483e0fd15df5e250dd8f467778c19301f0480ef1e72",
      "s": "0x05a397eb691788c8ec617e9be2f4d0b0c9b2aab5a2ab5924a9a2e76a6a4b0c8a",
      "v": 28,
      "creates": null,
      "raw": "0xf86d81d9850dd03c8b38825208946534b8e66572c2822b90301c26fc221b0ac0efda88a676ccf2a0cf8000801ca04e8df93f041f309bccffc483e0fd15df5e250dd8f467778c19301f0480ef1e72a005a397eb691788c8ec617e9be2f4d0b0c9b2aab5a2ab5924a9a2e76a6a4b0c8a",
      "networkId": 0,
      "chainId": 0
    },
    {
      "hash": "0x8332be0e5ed59a0531fe7ce25b73069572bfcf381320e0cc97e2aa2063dd5df4",
      "blockHash": "0x8f2c846356bb4ea90319066bcd04df6aacf30aa1bd0a14d2d7543e855fd4c932",
      "blockNumber": 68654,
      "transactionIndex": 1,
      "confirmations": null,
      "from": "0x1c6e931c7a8F3528cD5e7C92480EB2485E42782c",
      "gasPrice": {
        "_hex": "0xba43b7400"
      },
      "gasLimit": {
        "_hex": "0x5208"
      },
      "to": "0xf47Fb3f80B2f87Aebe94682A80A80BAA61e4cFC9",
      "value": {
        "_hex": "0x1c045218ee54000"
      },
      "nonce": 1,
      "data": "0x",
      "r": "0x325a771f485af03453414aef071f47d9f00abf8f7a2a59e0be09893bffc4b907",
      "s": "0x5b35b9134d4d6309d08d2f12b154e2cdd43fe342f5b0f2268f005a12212d7c2c",
      "v": 28,
      "creates": null,
      "raw": "0xf86c01850ba43b740082520894f47fb3f80b2f87aebe94682a80a80baa61e4cfc98801c045218ee54000801ca0325a771f485af03453414aef071f47d9f00abf8f7a2a59e0be09893bffc4b907a05b35b9134d4d6309d08d2f12b154e2cdd43fe342f5b0f2268f005a12212d7c2c",
      "networkId": 0,
      "chainId": 0
    },
    {
      "hash": "0xc9e9c617b4bb0f79baae3d3d35ac3cba18ae2225b0b988f9f00825494bfe3e73",
      "blockHash": "0x8f2c846356bb4ea90319066bcd04df6aacf30aa1bd0a14d2d7543e855fd4c932",
      "blockNumber": 68654,
      "transactionIndex": 2,
      "confirmations": null,
      "from": "0xB3DfdC921ca3bBA87720C55E91e1Bf4c04CD558a",
      "gasPrice": {
        "_hex": "0xba43b7400"
      },
      "gasLimit": {
        "_hex": "0x5208"
      },
      "to": "0x5d331fDbC48F5e2f69c144B8AA0ff3E902b76da2",
      "value": {
        "_hex": "0x1c045218ee54000"
      },
      "nonce": 1,
      "data": "0x",
      "r": "0x4576a4ccdc5b42a22dc75cb5ce308b54f695e6cc36509f84a6c903784eb2fd37",
      "s": "0x1e43310dfcb580cbc6763417fb287fa3f93c543958e71781727625222fe73abb",
      "v": 28,
      "creates": null,
      "raw": "0xf86c01850ba43b7400825208945d331fdbc48f5e2f69c144b8aa0ff3e902b76da28801c045218ee54000801ca04576a4ccdc5b42a22dc75cb5ce308b54f695e6cc36509f84a6c903784eb2fd37a01e43310dfcb580cbc6763417fb287fa3f93c543958e71781727625222fe73abb",
      "networkId": 0,
      "chainId": 0
    },
    {
      "hash": "0xa68b0aa729e34627b28a562426316ba4d996e99738ee6f70e32e0e50ed20b266",
      "blockHash": "0x8f2c846356bb4ea90319066bcd04df6aacf30aa1bd0a14d2d7543e855fd4c932",
      "blockNumber": 68654,
      "transactionIndex": 3,
      "confirmations": null,
      "from": "0x602878552DdFE569dAb7112E56566BCC91A2f779",
      "gasPrice": {
        "_hex": "0xba43b7400"
      },
      "gasLimit": {
        "_hex": "0x5208"
      },
      "to": "0x24203d894FB34d38efddB120928CeEd17D3d6573",
      "value": {
        "_hex": "0x1c045218ee54000"
      },
      "nonce": 1,
      "data": "0x",
      "r": "0x2e2777023054f25de58f05e5ca5f7a84db6f74092583fb391fca3a17abe427b1",
      "s": "0x50ce591894969166d4054411b7b7cac31e2906c9e87a457fb57b92e40ec51b05",
      "v": 28,
      "creates": null,
      "raw": "0xf86c01850ba43b74008252089424203d894fb34d38efddb120928ceed17d3d65738801c045218ee54000801ca02e2777023054f25de58f05e5ca5f7a84db6f74092583fb391fca3a17abe427b1a050ce591894969166d4054411b7b7cac31e2906c9e87a457fb57b92e40ec51b05",
      "networkId": 0,
      "chainId": 0
    },
    {
      "hash": "0x8979f3aa5a60327e014baeced2d8a4944929ff2c589f6497ef389e8a751b4950",
      "blockHash": "0x8f2c846356bb4ea90319066bcd04df6aacf30aa1bd0a14d2d7543e855fd4c932",
      "blockNumber": 68654,
      "transactionIndex": 4,
      "confirmations": null,
      "from": "0x6A79338D20667d67562221FB44f881b81932353c",
      "gasPrice": {
        "_hex": "0xba43b7400"
      },
      "gasLimit": {
        "_hex": "0x5208"
      },
      "to": "0xfA1B6D8a0B0648A91E74175d69154Ceada0f07C4",
      "value": {
        "_hex": "0x1c045218ee54000"
      },
      "nonce": 1,
      "data": "0x",
      "r": "0x4f0ea53afa96578b7ed440a594f93df7122d848bbaf375714d76a09d9b799049",
      "s": "0x6dac2dd40ff7df5a20c4ac389aa16f5d969b39232e900cc552617bf3cd373fd2",
      "v": 28,
      "creates": null,
      "raw": "0xf86c01850ba43b740082520894fa1b6d8a0b0648a91e74175d69154ceada0f07c48801c045218ee54000801ca04f0ea53afa96578b7ed440a594f93df7122d848bbaf375714d76a09d9b799049a06dac2dd40ff7df5a20c4ac389aa16f5d969b39232e900cc552617bf3cd373fd2",
      "networkId": 0,
      "chainId": 0
    },
    {
      "hash": "0xb5dddb371e6e1d9e33f797398a291ef2a47366c75714f5460595659da4e5165b",
      "blockHash": "0x8f2c846356bb4ea90319066bcd04df6aacf30aa1bd0a14d2d7543e855fd4c932",
      "blockNumber": 68654,
      "transactionIndex": 5,
      "confirmations": null,
      "from": "0xaeC632FbdD1EE3Aa620CEB2e2fC02da27F3A526e",
      "gasPrice": {
        "_hex": "0xba43b7400"
      },
      "gasLimit": {
        "_hex": "0x5208"
      },
      "to": "0x127A702eEf1aD1918eD3f540F0452f588bC93BFE",
      "value": {
        "_hex": "0x1c045218ee54000"
      },
      "nonce": 1,
      "data": "0x",
      "r": "0xaf67622c732d28beeb7c220df23efd741d779385079f4e1ac3ea5dc713675c76",
      "s": "0x75c17c6f01f7e3abc05464410d47de9fae69737fc84986c6dce72622350ec23d",
      "v": 27,
      "creates": null,
      "raw": "0xf86c01850ba43b740082520894127a702eef1ad1918ed3f540f0452f588bc93bfe8801c045218ee54000801ba0af67622c732d28beeb7c220df23efd741d779385079f4e1ac3ea5dc713675c76a075c17c6f01f7e3abc05464410d47de9fae69737fc84986c6dce72622350ec23d",
      "networkId": 0,
      "chainId": 0
    }
  ]
}