{
  "hash": "0xed06bb3566eb236a8f42baef065413df85702c8a00c5acf4b6f100a5c4cf75da",
  "parentHash": "0x4c5550bc6237e4acd18cc2a3e39d43ef1bea0bcacd32cd8611bfb042d87f467b",
  "number": 85120,
  "timestamp": 1439558770,
  "nonce": "0x6006f318ec77725a",
  "difficulty": 2731737448605,
  "gasLimit": {
    "_hex": "0x2fefd8"
  },
  "gasUsed": {
    "_hex": "0x546c"
  },
  "miner": "0xC603Ab5ef41fC61AA8b76bEddb09e3Cfcbb174BD",
  "extraData": "0x476574682f76312e302e312f77696e646f77732f676f312e342e32",
  "transactions": [
    {
      "hash": "0x1339056f2ec68689aa1a819802dafd7c624ccc2f08c680c7bc7762b1bf702ee6",
      "blockHash": "0xed06bb3566eb236a8f42baef065413df85702c8a00c5acf4b6f100a5c4cf75da",
      "blockNumber": 85120,
      "transactionIndex": 0,
      "confirmations": null,
      "from": "0x6CE13F1816a2cFab76C59714291Cb8403CbBB3D8",
      "gasPrice": {
        "_hex": "0xd8364fc25"
      },
      "gasLimit": {
        "_hex": "0x55f0"
      },
      "to": "0x2910543Af39abA0Cd09dBb2D50200b3E800A63D2",
      "value": {
        "_hex": "0x2f2f39fc6c540000"
      },
      "nonce": 5,
      "data": "0x454e48343751343838",
      "r": "0x88b0fd0aa4778ad4cc9aa45dc937f938b248d6eee2ce578f98640f3d168aaba6",
      "s": "0x0a0a0d9adbe96065923eb80da4844c71f1f733b6423796cc26dcd4146f4bc26a",
      "v": 27,
      "creates": null,
      "raw": "0xf87505850d8364fc258255f0942910543af39aba0cd09dbb2d50200b3e800a63d2882f2f39fc6c54000089454e483437513438381ba088b0fd0aa4778ad4cc9aa45dc937f938b248d6eee2ce578f98640f3d168aaba6a00a0a0d9adbe96065923eb80da4844c71f1f733b6423796cc26dcd4146f4bc26a",
      "networkId": 0,
      "chainId": 0
    }
  ]
}