{
  "hash": "0xc9c709957f78124724564d40e63b3cbadfd3f9c9c707477599ef50e1e9c15372",
  "parentHash": "0x52df535d6b26250e3476eb58e3d5636b467972d75f2ffdad3cf83f6e60c34b79",
  "number": 105319,
  "timestamp": 1439885531,
  "nonce": "0x09e9febfe6129f4c",
  "difficulty": 4356932455518,
  "gasLimit": {
    "_hex": "0x2fefd8"
  },
  "gasUsed": {
    "_hex": "0xf618"
  },
  "miner": "0xe6A7a1d47ff21B6321162AEA7C6CB457D5476Bca",
  "extraData": "0x476574682f76312e302e312d38326566323666362f6c696e75782f676f312e34",
  "transactions": [
    {
      "hash": "0xe1a7f8e6afc92e300acaad2b57da958df4fba4c64f79d38385cf2c425f939239",
      "blockHash": "0xc9c709957f78124724564d40e63b3cbadfd3f9c9c707477599ef50e1e9c15372",
      "blockNumber": 105319,
      "transactionIndex": 0,
      "confirmations": null,
      "from": "0x1543667B9bad3e41865C3233E1764d8dda8E1F3D",
      "gasPrice": {
        "_hex": "0xde2821942"
      },
      "gasLimit": {
        "_hex": "0x5208"
      },
      "to": "0x32Be343B94f860124dC4fEe278FDCBD38C102D88",
      "value": {
        "_hex": "0x221a70b9cd522400"
      },
      "nonce": 11,
      "data": "0x",
      "r": "0x58b2a9f30f4f9dd7fbc7a4b2d43d19573d1783bd36b71fe5cf22f613740779d9",
      "s": "0x28c78337e7a944222b94d57db72119a00fd5f41bd33e7a8180d8a2b997036b62",
      "v": 28,
      "creates": null,
      "raw": "0xf86c0b850de28219428252089432be343b94f860124dc4fee278fdcbd38c102d8888221a70b9cd522400801ca058b2a9f30f4f9dd7fbc7a4b2d43d19573d1783bd36b71fe5cf22f613740779d9a028c78337e7a944222b94d57db72119a00fd5f41bd33e7a8180d8a2b997036b62",
      "networkId": 0,
      "chainId": 0
    },
    {
      "hash": "0xf0bfac4f5b2edbab2de7e0f3f7dc041425233c98e0e99f618a2e87d3c1b79ea3",
      "blockHash": "0xc9c709957f78124724564d40e63b3cbadfd3f9c9c707477599ef50e1e9c15372",
      "blockNumber": 105319,
      "transactionIndex": 1,
      "confirmations": null,
      "from": "0xe6A7a1d47ff21B6321162AEA7C6CB457D5476Bca",
      "gasPrice": {
        "_hex": "0xd521ae3d2"
      },
      "gasLimit": {
        "_hex": "0x55f0"
      },
      "to": "0xB36712fddBD16B781eC9263B441Ee9DF97e8CCc5",
      "value": {
        "_hex": "0x4228c2e2364e3ec8"
      },
      "nonce": 3757,
      "data": "0x",
      "r": "0x788b20403affa1cd613cf3c45f60e7392ad00fd57c2cb271dedbb4a74fe3cebe",
      "s": "0x79f469cbe04cf17e676e76e1510ed31e27b51be834a338a5fe367f036c753957",
      "v": 28,
      "creates": null,
      "raw": "0xf86e820ead850d521ae3d28255f094b36712fddbd16b781ec9263b441ee9df97e8ccc5884228c2e2364e3ec8801ca0788b20403affa1cd613cf3c45f60e7392ad00fd57c2cb271dedbb4a74fe3cebea079f469cbe04cf17e676e76e1510ed31e27b51be834a338a5fe367f036c753957",
      "networkId": 0,
      "chainId": 0
    },
    {
      "hash": "0xd624f8700c2610f8e8ec0866d581f8afffca1892bbc0a4889334c57b983ee09a",
      "blockHash": "0xc9c709957f78124724564d40e63b3cbadfd3f9c9c707477599ef50e1e9c15372",
      "blockNumber": 105319,
      "transactionIndex": 2,
      "confirmations": null,
      "from": "0xe6A7a1d47ff21B6321162AEA7C6CB457D5476Bca",
      "gasPrice": {
        "_hex": "0xd521ae3d2"
      },
      "gasLimit": {
        "_hex": "0x55f0"
      },
      "to": "0xa69Dd2F55e5A3d4CB2B4b3eE2f613562b57a1D2F",
      "value": {
        "_hex": "0x426a133a86d2b0d8"
      },
      "nonce": 3758,
      "data": "0x",
      "r": "0xb60703bc1c6ad603b5cc8820e457f3fbb65857c4c31ca3268aad6a2e82628c61",
      "s": "0x0add805ba14d2b2d9ab569c844c77854e6fbc91e6c7d637623de3137bf025b4c",
      "v": 27,
      "creates": null,
      "raw": "0xf86e820eae850d521ae3d28255f094a69dd2f55e5a3d4cb2b4b3ee2f613562b57a1d2f88426a133a86d2b0d8801ba0b60703bc1c6ad603b5cc8820e457f3fbb65857c4c31ca3268aad6a2e82628c61a00add805ba14d2b2d9ab569c844c77854e6fbc91e6c7d637623de3137bf025b4c",
      "networkId": 0,
      "chainId": 0
    }
  ]
}