{
  "hash": "0xa5e9b1766a69725972585097fa84b096546647a121aa11983419f435faae1fc0",
  "parentHash": "0xdc8cc34b968e6803fa448089574a966f62bfb8568c3ebeadf78e7548a1625c11",
  "number": 59804,
  "timestamp": 1439144003,
  "nonce": "0x70d418bcfbaf4d17",
  "difficulty": 1717996567662,
  "gasLimit": {
    "_hex": "0x2fefd5"
  },
  "gasUsed": {
    "_hex": "0x5208"
  },
  "miner": "0x2134e2a2b718DCa96580ECAC31E653Ea1fdd58DA",
  "extraData": "0x476574682f76312e302e312f77696e646f77732f676f312e342e32",
  "transactions": [
    {
      "hash": "0xac80d43b6698d89814cd4e47a6ec39c71475321f91709cd6201e0412dcbbffa3",
      "blockHash": "0xa5e9b1766a69725972585097fa84b096546647a121aa11983419f435faae1fc0",
      "blockNumber": 59804,
      "transactionIndex": 0,
      "confirmations": null,
      "from": "0xB7A755cBC2Bb4D94e844A9b1D1ff53420d836478",
      "gasPrice": {
        "_hex": "0x746a528800"
      },
      "gasLimit": {
        "_hex": "0x5267"
      },
      "to": "0x9Fd0F678538d8c5b8b2D6cD6feFd48f27218965C",
      "value": {
        "_hex": "0x12c74404b1b350000"
      },
      "nonce": 1,
      "data": "0x",
      "r": "0xbd432e2f2bc299e76368f8a58fe683119e66dd76c373cbabe6e47de24dd80406",
      "s": "0xa9c66ce541e53cf5898679378a9086c573a774559bb9421ea566335d7116b533",
      "v": 28,
      "creates": null,
      "raw": "0xf86d0185746a528800825267949fd0f678538d8c5b8b2d6cd6fefd48f27218965c89012c74404b1b350000801ca0bd432e2f2bc299e76368f8a58fe683119e66dd76c373cbabe6e47de24dd80406a0a9c66ce541e53cf5898679378a9086c573a774559bb9421ea566335d7116b533",
      "networkId": 0,
      "chainId": 0
    }
  ]
}