{
  "hash": "0x23d62279cffaff908e18d5b0558e6f55fab384ff7c2e99fe11d3c6a6d9491d52",
  "parentHash": "0xed341ed00efd9aed5cbc4c494c411c14c10c412dbee3a6d8e417794ccb7a9e93",
  "number": 105384,
  "timestamp": 1439886589,
  "nonce": "0x37c7175f14e63ea2",
  "difficulty": 4371815919052,
  "gasLimit": {
    "_hex": "0x2fefd8"
  },
  "gasUsed": {
    "_hex": "0xf618"
  },
  "miner": "0x88D74a59454F6cF3B51ef6b9136AFb6b9D405A88",
  "extraData": "0x476574682f76312e302e312d39393231366634612f6c696e75782f676f312e34",
  "transactions": [
    {
      "hash": "0xe2e791b0c698598b3d230b573cb6af7089c358084d427a939ebe93ee485ee60e",
      "blockHash": "0x23d62279cffaff908e18d5b0558e6f55fab384ff7c2e99fe11d3c6a6d9491d52",
      "blockNumber": 105384,
      "transactionIndex": 0,
      "confirmations": null,
      "from": "0xE6D67E3661E28eE2DfC1c68D5DeeA3C3bB880059",
      "gasPrice": {
        "_hex": "0xd6fc22e5a"
      },
      "gasLimit": {
        "_hex": "0x5208"
      },
      "to": "0x32Be343B94f860124dC4fEe278FDCBD38C102D88",
      "value": {
        "_hex": "0x1023024fd111da000"
      },
      "nonce": 7,
      "data": "0x",
      "r": "0x9efaaec348c2c233be33f71640901c79488941588321abfcf31813b8633b5f1a",
      "s": "0x460ccb0e847bb9ed313058c37daba1743c69e8c452b3ea825763fbda58102d70",
      "v": 27,
      "creates": null,
      "raw": "0xf86d07850d6fc22e5a8252089432be343b94f860124dc4fee278fdcbd38c102d888901023024fd111da000801ba09efaaec348c2c233be33f71640901c79488941588321abfcf31813b8633b5f1aa0460ccb0e847bb9ed313058c37daba1743c69e8c452b3ea825763fbda58102d70",
      "networkId": 0,
      "chainId": 0
    },
    {
      "hash": "0x20b96c65662ee7793e5fa5dc23bfcabdd0fe2f55a1d6a5f8ba77b31e2902ce50",
      "blockHash": "0x23d62279cffaff908e18d5b0558e6f55fab384ff7c2e99fe11d3c6a6d9491d52",
      "blockNumber": 105384,
      "transactionIndex": 1,
      "confirmations": null,
      "from": "0x99181ED48C7c51532622dA23e20E2B38392476A7",
      "gasPrice": {
        "_hex": "0xd6fc22e5a"
      },
      "gasLimit": {
        "_hex": "0x5208"
      },
      "to": "0x32Be343B94f860124dC4fEe278FDCBD38C102D88",
      "value": {
        "_hex": "0xc5fea689b8f36800"
      },
      "nonce": 8,
      "data": "0x",
      "r": "0xccd84851fc793997ad35d08b50ea02c5af1a45807c12873e9cdeb3605398e425",
      "s": "0x46305209a41e9cc9fa3f5ad06d4962f8cff2f8ac4806045eb2e7aa8be30c8640",
      "v": 27,
      "creates": null,
      "raw": "0xf86c08850d6fc22e5a8252089432be343b94f860124dc4fee278fdcbd38c102d8888c5fea689b8f36800801ba0ccd84851fc793997ad35d08b50ea02c5af1a45807c12873e9cdeb3605398e425a046305209a41e9cc9fa3f5ad06d4962f8cff2f8ac4806045eb2e7aa8be30c8640",
      "networkId": 0,
      "chainId": 0
    },
    {
      "hash": "0xb0e2bbbe918dea5992342ad0f21628fb369d3494d4c48a5b6826d0869d5eae1e",
      "blockHash": "0x23d62279cffaff908e18d5b0558e6f55fab384ff7c2e99fe11d3c6a6d9491d52",
      "blockNumber": 105384,
      "transactionIndex": 2,
      "confirmations": null,
      "from": "0x519DC97eF09491aE962A8F13fe144c71feca4662",
      "gasPrice": {
        "_hex": "0xd6fc22e5a"
      },
      "gasLimit": {
        "_hex": "0x5208"
      },
      "to": "0x32Be343B94f860124dC4fEe278FDCBD38C102D88",
      "value": {
        "_hex": "0x60df0f30ddb48400"
      },
      "nonce": 10,
      "data": "0x",
      "r": "0xf962690513eb2e3ff75e3766a0715ed047b8a8b56dba05d0cd30705944be8394",
      "s": "0x6dbed470b92cfeb82e8d50602351915664861c6d32993ad678d32f17d74b257a",
      "v": 27,
      "creates": null,
      "raw": "0xf86c0a850d6fc22e5a8252089432be343b94f860124dc4fee278fdcbd38c102d888860df0f30ddb48400801ba0f962690513eb2e3ff75e3766a0715ed047b8a8b56dba05d0cd30705944be8394a06dbed470b92cfeb82e8d50602351915664861c6d32993ad678d32f17d74b257a",
      "networkId": 0,
      "chainId": 0
    }
  ]
}