{
  "hash": "0x3bd572497a74f99fcc3b2559cb8ddd89fa4784824da8ba8cfe5b9573984681d7",
  "parentHash": "0x66cb5efecb925a6332f1326ee96878765ddc122fa0173cb5bfdfec69c61d437e",
  "number": 57842,
  "timestamp": 1439110722,
  "nonce": "0xc55d91e335a7de29",
  "difficulty": 1726809570879,
  "gasLimit": {
    "_hex": "0x2fefd5"
  },
  "gasUsed": {
    "_hex": "0xa410"
  },
  "miner": "0x123843545FB525C8E134c9A5F15ADA6865cc3848",
  "extraData": "0x476574682f76312e302e312f77696e646f77732f676f312e342e32",
  "transactions": [
    {
      "hash": "0x200b0855876145fcbd39c5157b6f23bebc05c3906a50264ec78d345b2de58778",
      "blockHash": "0x3bd572497a74f99fcc3b2559cb8ddd89fa4784824da8ba8cfe5b9573984681d7",
      "blockNumber": 57842,
      "transactionIndex": 0,
      "confirmations": null,
      "from": "0x32Be343B94f860124dC4fEe278FDCBD38C102D88",
      "gasPrice": {
        "_hex": "0xd93ded981"
      },
      "gasLimit": {
        "_hex": "0x5208"
      },
      "to": "0xD6CBc00b3ECFF6E48a1106fEaf62f77C4F52E465",
      "value": {
        "_hex": "0x5864d4af5883d80000"
      },
      "nonce": 93,
      "data": "0x",
      "r": "0xee9c9b7b37e3ac02a36494c6a04a84953971cbc94e427ab335015c755777b17d",
      "s": "0x2970f83d2db66b5cb488048db05ade06bfba57c526549bff9143c9ada27adafb",
      "v": 27,
      "creates": null,
      "raw": "0xf86d5d850d93ded98182520894d6cbc00b3ecff6e48a1106feaf62f77c4f52e465895864d4af5883d80000801ba0ee9c9b7b37e3ac02a36494c6a04a84953971cbc94e427ab335015c755777b17da02970f83d2db66b5cb488048db05ade06bfba57c526549bff9143c9ada27adafb",
      "networkId": 0,
      "chainId": 0
    },
    {
      "hash": "0x6c55cedec426929e0ed8d41b4ffd65eade019d36a6afe82aaf55acb730e38b91",
      "blockHash": "0x3bd572497a74f99fcc3b2559cb8ddd89fa4784824da8ba8cfe5b9573984681d7",
      "blockNumber": 57842,
      "transactionIndex": 1,
      "confirmations": null,
      "from": "0x32Be343B94f860124dC4fEe278FDCBD38C102D88",
      "gasPrice": {
        "_hex": "0xd93ded981"
      },
      "gasLimit": {
        "_hex": "0x5208"
      },
      "to": "0x109C4f2CCc82C4d77Bde15F306707320294Aea3F",
      "value": {
        "_hex": "0xde0b6b3a7640000"
      },
      "nonce": 94,
      "data": "0x",
      "r": "0xcc234ec1256fe55b057ebc17d556b86cc500cedb5c00ff5d76af2d8449999bd7",
      "s": "0x49e66a846d4347e67ec59b2e6a2bd04891b7999ab0d301e0d97cee149e7a57e6",
      "v": 28,
      "creates": null,
      "raw": "0xf86c5e850d93ded98182520894109c4f2ccc82c4d77bde15f306707320294aea3f880de0b6b3a7640000801ca0cc234ec1256fe55b057ebc17d556b86cc500cedb5c00ff5d76af2d8449999bd7a049e66a846d4347e67ec59b2e6a2bd04891b7999ab0d301e0d97cee149e7a57e6",
      "networkId": 0,
      "chainId": 0
    }
  ]
}