{
  "hash": "0x41c5be3b378a5df08f52df30849563220ed7e61b3ccb421bc75f3e646545967b",
  "parentHash": "0x1058f49ea937923ed8e767dd6fa62c36f7dd5647618a36075b80516d3c36a888",
  "number": 79113,
  "timestamp": 1439464689,
  "nonce": "0x19be3bb30f2fe987",
  "difficulty": 2314398914600,
  "gasLimit": {
    "_hex": "0x2fefd8"
  },
  "gasUsed": {
    "_hex": "0x5208"
  },
  "miner": "0xe6A7a1d47ff21B6321162AEA7C6CB457D5476Bca",
  "extraData": "0x476574682f76312e302e312d38326566323666362f6c696e75782f676f312e34",
  "transactions": [
    {
      "hash": "0x51c2f7b31d9925d6152c3ac9929a4dbed198c13aeca80091061e8fa6c8ee69f0",
      "blockHash": "0x41c5be3b378a5df08f52df30849563220ed7e61b3ccb421bc75f3e646545967b",
      "blockNumber": 79113,
      "transactionIndex": 0,
      "confirmations": null,
      "from": "0x32Be343B94f860124dC4fEe278FDCBD38C102D88",
      "gasPrice": {
        "_hex": "0xd9429246a"
      },
      "gasLimit": {
        "_hex": "0x5208"
      },
      "to": "0x76899c112A85c5a7d27Ff89f1b97112e900aeEBc",
      "value": {
        "_hex": "0x4806958090470000"
      },
      "nonce": 410,
      "data": "0x",
      "r": "0x2709ec8531aaa04cb39a7ef9ce82cabd865bf72a64c9a1491f0448db50701df2",
      "s": "0x14ae782976e98f0910621c6f1e517aa9a3d3418a3db180034cc81de3429b6c12",
      "v": 28,
      "creates": null,
      "raw": "0xf86e82019a850d9429246a8252089476899c112a85c5a7d27ff89f1b97112e900aeebc884806958090470000801ca02709ec8531aaa04cb39a7ef9ce82cabd865bf72a64c9a1491f0448db50701df2a014ae782976e98f0910621c6f1e517aa9a3d3418a3db180034cc81de3429b6c12",
      "networkId": 0,
      "chainId": 0
    }
  ]
}