{
  "hash": "0x6b2548941938cb99d3580a8ac56e119d9e45e29a1c3b32e2b9c8189bf335bcca",
  "parentHash": "0x18752262a0c781d7976fe6fcbe67d4faa582b6e859dbfd3ab683b2384ac2e12e",
  "number": 108133,
  "timestamp": 1439934620,
  "nonce": "0x17ff4411b37a1464",
  "difficulty": 4376790102505,
  "gasLimit": {
    "_hex": "0x2fefd8"
  },
  "gasUsed": {
    "_hex": "0x5208"
  },
  "miner": "0xf927a40C8B7F6E07c5af7FA2155B4864a4112B13",
  "extraData": "0x",
  "transactions": [
    {
      "hash": "0x1a7ffd99edd95b914b1b35580f49dede15d87f8499975a47510465f7502c132f",
      "blockHash": "0x6b2548941938cb99d3580a8ac56e119d9e45e29a1c3b32e2b9c8189bf335bcca",
      "blockNumber": 108133,
      "transactionIndex": 0,
      "confirmations": null,
      "from": "0x5465B1c380c9D2446965E503EB731F08A30ecD25",
      "gasPrice": {
        "_hex": "0xe10be1461"
      },
      "gasLimit": {
        "_hex": "0x5208"
      },
      "to": "0x32Be343B94f860124dC4fEe278FDCBD38C102D88",
      "value": {
        "_hex": "0xddc34e60aef8800"
      },
      "nonce": 6,
      "data": "0x",
      "r": "0x903ea503d64f08befef134610cf31599dc2b171258856d04e8899dd1d20860aa",
      "s": "0x439252b5c85c4e8d68ef177347feb3c8d3c1719a21e14360fde3f5a59d26e496",
      "v": 28,
      "creates": null,
      "raw": "0xf86c06850e10be14618252089432be343b94f860124dc4fee278fdcbd38c102d88880ddc34e60aef8800801ca0903ea503d64f08befef134610cf31599dc2b171258856d04e8899dd1d20860aaa0439252b5c85c4e8d68ef177347feb3c8d3c1719a21e14360fde3f5a59d26e496",
      "networkId": 0,
      "chainId": 0
    }
  ]
}