{
  "hash": "0x713443acb7960f647afdc44682c81aec67f50cf5de609378bb97ca6da3bb477b",
  "parentHash": "0x542374287176be1dbbc2f1df93a0d8513d43fa366641b2a88a632509ee937aeb",
  "number": 105368,
  "timestamp": 1439886331,
  "nonce": "0xdbfc51510bf0313d",
  "difficulty": 4367556981644,
  "gasLimit": {
    "_hex": "0x2fefd8"
  },
  "gasUsed": {
    "_hex": "0x5208"
  },
  "miner": "0x710c5fEBe84c40b3C12BE2cB2378B863f67235df",
  "extraData": "0x476574682f76312e302e312f6c696e75782f676f312e342e32",
  "transactions": [
    {
      "hash": "0xfd4b6844e63af55567e8b9caab9b287c0ff640ba5bc040fa2de0ecabca39f53d",
      "blockHash": "0x713443acb7960f647afdc44682c81aec67f50cf5de609378bb97ca6da3bb477b",
      "blockNumber": 105368,
      "transactionIndex": 0,
      "confirmations": null,
      "from": "0x3B399fF2b96F27056Ab8a7f6e028b0dBaF386279",
      "gasPrice": {
        "_hex": "0xcc9ee0ecf"
      },
      "gasLimit": {
        "_hex": "0x5208"
      },
      "to": "0x32Be343B94f860124dC4fEe278FDCBD38C102D88",
      "value": {
        "_hex": "0x17ea2f64f7e745000"
      },
      "nonce": 7,
      "data": "0x",
      "r": "0xc8195174b5594dc78cac454cd5ae2be72e824e0c41650b322e78aa1b85d4460c",
      "s": "0x46ef2f51c1f315af6fa8023e5a6a758de62deb4f9bffe27044ba5088c9c39723",
      "v": 27,
      "creates": null,
      "raw": "0xf86d07850cc9ee0ecf8252089432be343b94f860124dc4fee278fdcbd38c102d8889017ea2f64f7e745000801ba0c8195174b5594dc78cac454cd5ae2be72e824e0c41650b322e78aa1b85d4460ca046ef2f51c1f315af6fa8023e5a6a758de62deb4f9bffe27044ba5088c9c39723",
      "networkId": 0,
      "chainId": 0
    }
  ]
}