{
  "hash": "0x739ad23cf5cff07a2a25e878d0f1126304cfdec41dda22278b75c8ca9bb30cf1",
  "parentHash": "0x31c4d70ca63990046570f186f49bf4fa3b6eb5cc756dad4857daf5cad75a7882",
  "number": 106020,
  "timestamp": 1439897341,
  "nonce": "0x114ec42afd634ac9",
  "difficulty": 4466419247941,
  "gasLimit": {
    "_hex": "0x2fefd8"
  },
  "gasUsed": {
    "_hex": "0x14820"
  },
  "miner": "0xe6A7a1d47ff21B6321162AEA7C6CB457D5476Bca",
  "extraData": "0x476574682f76312e302e312d38326566323666362f6c696e75782f676f312e34",
  "transactions": [
    {
      "hash": "0x1f4d62f293f99922aa857f6284e425abe7bb631b0ddc81c6ed34028cfde6d2c9",
      "blockHash": "0x739ad23cf5cff07a2a25e878d0f1126304cfdec41dda22278b75c8ca9bb30cf1",
      "blockNumber": 106020,
      "transactionIndex": 0,
      "confirmations": null,
      "from": "0x557C2806B6ceA65a66F415bb2Ed1ce897B340745",
      "gasPrice": {
        "_hex": "0xe0ac0b2db"
      },
      "gasLimit": {
        "_hex": "0x5208"
      },
      "to": "0x32Be343B94f860124dC4fEe278FDCBD38C102D88",
      "value": {
        "_hex": "0x14d0ca0f55ab87000"
      },
      "nonce": 10,
      "data": "0x",
      "r": "0xa9be7af40cc0fad80d420e3682f63a15cf80b2a6b008564b873f85704cfe6cf9",
      "s": "0x6ea7abe4be8ed45286f6c1521377a5ad824f52c779a663ff7820bab1ac8b83bc",
      "v": 27,
      "creates": null,
      "raw": "0xf86d0a850e0ac0b2db8252089432be343b94f860124dc4fee278fdcbd38c102d8889014d0ca0f55ab87000801ba0a9be7af40cc0fad80d420e3682f63a15cf80b2a6b008564b873f85704cfe6cf9a06ea7abe4be8ed45286f6c1521377a5ad824f52c779a663ff7820bab1ac8b83bc",
      "networkId": 0,
      "chainId": 0
    },
    {
      "hash": "0xd6fc97573ef9573167d8340fd21932bfb5dd61df8210a985e0ff28be214b2305",
      "blockHash": "0x739ad23cf5cff07a2a25e878d0f1126304cfdec41dda22278b75c8ca9bb30cf1",
      "blockNumber": 106020,
      "transactionIndex": 1,
      "confirmations": null,
      "from": "0xa70a9a7040d542C632D8e0bE7c5513A8a5Bbc752",
      "gasPrice": {
        "_hex": "0xe0ac0b2db"
      },
      "gasLimit": {
        "_hex": "0x5208"
      },
      "to": "0x32Be343B94f860124dC4fEe278FDCBD38C102D88",
      "value": {
        "_hex": "0x455f119fee4c7400"
      },
      "nonce": 247,
      "data": "0x",
      "r": "0x2c45ef660e8ce584b0e8234b7a030b99fbf5904189c7308ebc3cf57b1303b26e",
      "s": "0x2e39b2576233f9e6318bc0076ac7d1eb3662829527323c2de06024ee778ff93b",
      "v": 27,
      "creates": null,
      "raw": "0xf86d81f7850e0ac0b2db8252089432be343b94f860124dc4fee278fdcbd38c102d8888455f119fee4c7400801ba02c45ef660e8ce584b0e8234b7a030b99fbf5904189c7308ebc3cf57b1303b26ea02e39b2576233f9e6318bc0076ac7d1eb3662829527323c2de06024ee778ff93b",
      "networkId": 0,
      "chainId": 0
    },
    {
      "hash": "0xf493359498f3f0b78694d745de77d35e0582005ced2e1d9ff096390e6bf2285a",
      "blockHash": "0x739ad23cf5cff07a2a25e878d0f1126304cfdec41dda22278b75c8ca9bb30cf1",
      "blockNumber": 106020,
      "transactionIndex": 2,
      "confirmations": null,
      "from": "0x32Be343B94f860124dC4fEe278FDCBD38C102D88",
      "gasPrice": {
        "_hex": "0xde7aafe46"
      },
      "gasLimit": {
        "_hex": "0x5208"
      },
      "to": "0x050A4C817B7DD7334cd378B11c0Be4f9D4684816",
      "value": {
        "_hex": "0x1d7b4bce9cb870000"
      },
      "nonce": 1181,
      "data": "0x",
      "r": "0xfba050eddc9d2901472efb1275abfe9d46b1c888d660a9db037460afc701d2a9",
      "s": "0x68f223810971d3c94afb0a8b05fc66b15a6e786aedf5e33305e6b7c1ee18e4f5",
      "v": 27,
      "creates": null,
      "raw": "0xf86f82049d850de7aafe4682520894050a4c817b7dd7334cd378b11c0be4f9d46848168901d7b4bce9cb870000801ba0fba050eddc9d2901472efb1275abfe9d46b1c888d660a9db037460afc701d2a9a068f223810971d3c94afb0a8b05fc66b15a6e786aedf5e33305e6b7c1ee18e4f5",
      "networkId": 0,
      "chainId": 0
    },
    {
      "hash": "0xb624d68c8d375dcd4377a0c00abf3a2c649ffd67875668dce0e0e321a5edc79e",
      "blockHash": "0x739ad23cf5cff07a2a25e878d0f1126304cfdec41dda22278b75c8ca9bb30cf1",
      "blockNumber": 106020,
      "transactionIndex": 3,
      "confirmations": null,
      "from": "0x8a8708067A9cc19AB7e4e7421F1AB8E1174255d1",
      "gasPrice": {
        "_hex": "0xd4a755a42"
      },
      "gasLimit": {
        "_hex": "0x15f90"
      },
      "to": "0xb1A2a1e9b8AC33fdcB2118b73A875b096AEd24aD",
      "value": {
        "_hex": "0x45400a8fd5330000"
      },
      "nonce": 0,
      "data": "0x",
      "r": "0x43c59bee9e55daf8f41b1927aec6c48ee25960a98b693cefd8cc35ea08179765",
      "s": "0x5aa61615189b4e686318ecae50c261b6967ce573725bcdf7bc1777f7932d9854",
      "v": 27,
      "creates": null,
      "raw": "0xf86d80850d4a755a4283015f9094b1a2a1e9b8ac33fdcb2118b73a875b096aed24ad8845400a8fd5330000801ba043c59bee9e55daf8f41b1927aec6c48ee25960a98b693cefd8cc35ea08179765a05aa61615189b4e686318ecae50c261b6967ce573725bcdf7bc1777f7932d9854",
      "networkId": 0,
      "chainId": 0
    }
  ]
}