{
  "hash": "0xac401a8afb4c69445ed4cc396377f2b72e48d9ac89d31a0865caa62a507df6b1",
  "parentHash": "0x9dcda4f2e4d52ba688f87816effe32ed4a667dc9eefb8e1fee1e719d7df26c5b",
  "number": 105905,
  "timestamp": 1439895370,
  "nonce": "0xdb3baaf89170c7ce",
  "difficulty": 4451240247058,
  "gasLimit": {
    "_hex": "0x2fefd8"
  },
  "gasUsed": {
    "_hex": "0xc0db"
  },
  "miner": "0xee5379D0c1ca47327368027455074C26D9952628",
  "extraData": "0x476574682f76312e302e312d38326566323666362f6c696e75782f676f312e34",
  "transactions": [
    {
      "hash": "0x1fc134f20f2095f15466fe3ddf22ee761be62960af65c05acf1151163a9915ee",
      "blockHash": "0xac401a8afb4c69445ed4cc396377f2b72e48d9ac89d31a0865caa62a507df6b1",
      "blockNumber": 105905,
      "transactionIndex": 0,
      "confirmations": null,
      "from": "0x87C5B5874A18B4306DF8a752a6C8cc3E82daFc19",
      "gasPrice": {
        "_hex": "0x1156c0f6b37"
      },
      "gasLimit": {
        "_hex": "0x493e0"
      },
      "to": "0xD79B4C6791784184e2755B2fC1659eaaB0f80456",
      "value": {
        "_hex": "0x0"
      },
      "nonce": 296,
      "data": "0xbd66528a6b6b6b0000000000000000000000000000000000000000000000000000000000",
      "r": "0x6983321b3b98db6833d1b55b7163932483f78c3f1df5c417ecf64db6447add61",
      "s": "0x2208a7cf9aa51f8307f272b05c57f890d2896b457865132179b176bcb9594ca3",
      "v": 27,
      "creates": null,
      "raw": "0xf88c8201288601156c0f6b37830493e094d79b4c6791784184e2755b2fc1659eaab0f8045680a4bd66528a6b6b6b00000000000000000000000000000000000000000000000000000000001ba06983321b3b98db6833d1b55b7163932483f78c3f1df5c417ecf64db6447add61a02208a7cf9aa51f8307f272b05c57f890d2896b457865132179b176bcb9594ca3",
      "networkId": 0,
      "chainId": 0
    },
    {
      "hash": "0x03f2cfb5265bdf89f9fabddf4469dc430ca8a991ecad26b4f565279c2ecb86a2",
      "blockHash": "0xac401a8afb4c69445ed4cc396377f2b72e48d9ac89d31a0865caa62a507df6b1",
      "blockNumber": 105905,
      "transactionIndex": 1,
      "confirmations": null,
      "from": "0x60f7C29656Fc491e766750556fE4F0E407f81eB5",
      "gasPrice": {
        "_hex": "0xcbee70aea"
      },
      "gasLimit": {
        "_hex": "0x15f90"
      },
      "to": "0x5773DFFDd4AD3114CAB6eFE3b9Ca703Fa450Fe40",
      "value": {
        "_hex": "0x3e8"
      },
      "nonce": 4,
      "data": "0x",
      "r": "0x1d3ca8e950228cee6bd05e56be62febd445a355cd3ce37c402f889837ac4ccec",
      "s": "0x7f1ef52e4b90a382318b3ffa195622c47f87a95951e48c6c87bdb3e9297c6d0b",
      "v": 27,
      "creates": null,
      "raw": "0xf86704850cbee70aea83015f90945773dffdd4ad3114cab6efe3b9ca703fa450fe408203e8801ba01d3ca8e950228cee6bd05e56be62febd445a355cd3ce37c402f889837ac4cceca07f1ef52e4b90a382318b3ffa195622c47f87a95951e48c6c87bdb3e9297c6d0b",
      "networkId": 0,
      "chainId": 0
    }
  ]
}