{
  "hash": "0x5d03f371e0d2f113d7c849cf17c8695f546e47c3b7ddb5e8a69c984638aeca07",
  "parentHash": "0x9d072abb12280a2773f0b3eeadb2e59f710e83d3063f45e0b41ab2d3680b79bf",
  "number": 92212,
  "timestamp": 1439668667,
  "nonce": "0xfb479c3d5a3ba4e6",
  "difficulty": 3473988505306,
  "gasLimit": {
    "_hex": "0x2fefd8"
  },
  "gasUsed": {
    "_hex": "0x5208"
  },
  "miner": "0x004B37d3e250EB1826Fc6a587DEDdc18E7bE6F6f",
  "extraData": "0xd983010001844765746887676f312e342e328777696e646f7773",
  "transactions": [
    {
      "hash": "0xb5f50f088303398d789521bec3324db2f9a08a819abd2cb9f3f2cb7009a0ceb3",
      "blockHash": "0x5d03f371e0d2f113d7c849cf17c8695f546e47c3b7ddb5e8a69c984638aeca07",
      "blockNumber": 92212,
      "transactionIndex": 0,
      "confirmations": null,
      "from": "0xaB638742EBe3A78F2a85028350e1AADB86C0a6ed",
      "gasPrice": {
        "_hex": "0xd7d40ace3"
      },
      "gasLimit": {
        "_hex": "0x15f90"
      },
      "to": "0xD5bf64B3B17Fb895536953EfE17578a8b7b16880",
      "value": {
        "_hex": "0x2b5e3af16b1880000"
      },
      "nonce": 1,
      "data": "0x",
      "r": "0x6ed9817c2ace207588c8408407d45b7635d6706d95413108265c4ab7ce51b129",
      "s": "0x318b8f61d8ce2fa093f041f7822c729fcac199431fb82df3ea8ecb2c1c663aa2",
      "v": 28,
      "creates": null,
      "raw": "0xf86e01850d7d40ace383015f9094d5bf64b3b17fb895536953efe17578a8b7b168808902b5e3af16b1880000801ca06ed9817c2ace207588c8408407d45b7635d6706d95413108265c4ab7ce51b129a0318b8f61d8ce2fa093f041f7822c729fcac199431fb82df3ea8ecb2c1c663aa2",
      "networkId": 0,
      "chainId": 0
    }
  ]
}