{
  "hash": "0xc4ed6f2bc63d008f428ecf735cf99bea2e3a392ed16b0def1efeef150e26d395",
  "parentHash": "0x460e854f1e5509cc543ecddbbe34085f45df8ed64e86af14a71f2807f051f9a5",
  "number": 68859,
  "timestamp": 1439294823,
  "nonce": "0xa638de9734ac933b",
  "difficulty": 2017179990972,
  "gasLimit": {
    "_hex": "0x2fefd8"
  },
  "gasUsed": {
    "_hex": "0x5208"
  },
  "miner": "0xe6A7a1d47ff21B6321162AEA7C6CB457D5476Bca",
  "extraData": "0x476574682f76312e302e312d38326566323666362f6c696e75782f676f312e34",
  "transactions": [
    {
      "hash": "0xc556fd5bc57416d0ab7db01f60771b019b3798d2192a9059de00e95eb2d532ce",
      "blockHash": "0xc4ed6f2bc63d008f428ecf735cf99bea2e3a392ed16b0def1efeef150e26d395",
      "blockNumber": 68859,
      "transactionIndex": 0,
      "confirmations": null,
      "from": "0x6747f922385c9a6F9cfDf095F34345257DD597bE",
      "gasPrice": {
        "_hex": "0xba43b7400"
      },
      "gasLimit": {
        "_hex": "0x5208"
      },
      "to": "0x4cb669CB939b72117F3a5DD31051087b1AAC26fe",
      "value": {
        "_hex": "0x1fcbfa42bd6000"
      },
      "nonce": 132,
      "data": "0x",
      "r": "0xb3f10748b2fd782ed86332f4b94f3686f33b6fdcf032dd1ddfce8f116d64ea39",
      "s": "0x17d162e9f3305028ead34cec81d51a170acea7bf30872e4f448e967986c8bd5a",
      "v": 28,
      "creates": null,
      "raw": "0xf86c8184850ba43b7400825208944cb669cb939b72117f3a5dd31051087b1aac26fe871fcbfa42bd6000801ca0b3f10748b2fd782ed86332f4b94f3686f33b6fdcf032dd1ddfce8f116d64ea39a017d162e9f3305028ead34cec81d51a170acea7bf30872e4f448e967986c8bd5a",
      "networkId": 0,
      "chainId": 0
    }
  ]
}