{
  "hash": "0x209fde81c173c2a11a624ade19e26025186abd29eddc5c73ca499bda1583ca5e",
  "parentHash": "0x3c9db2b2632cd6b66ff95984f324978d062696375017d917c407585988870910",
  "number": 118918,
  "timestamp": 1440133584,
  "nonce": "0xfd10dbc410f93af7",
  "difficulty": 4399001515267,
  "gasLimit": {
    "_hex": "0x2fefd8"
  },
  "gasUsed": {
    "_hex": "0x2b3d6"
  },
  "miner": "0x580992B51e3925e23280EfB93d3047C82f17E038",
  "extraData": "0x",
  "transactions": [
    {
      "hash": "0xcf362ee2998c3d837dc035d669d9dc566d78d46402931c250f9ceb985a8d3313",
      "blockHash": "0x209fde81c173c2a11a624ade19e26025186abd29eddc5c73ca499bda1583ca5e",
      "blockNumber": 118918,
      "transactionIndex": 0,
      "confirmations": null,
      "from": "0xF93f1437b05Ad46eF153702cB73E4443f760f4d0",
      "gasPrice": {
        "_hex": "0xd58848dd1"
      },
      "gasLimit": {
        "_hex": "0x249f0"
      },
      "to": "0xE28e72FCf78647ADCe1F1252F240bbfaebD63BcC",
      "value": {
        "_hex": "0xf1fe71dcb6dfc0000"
      },
      "nonce": 1,
      "data": "0x45466f3a",
      "r": "0xcd85e8810b3ab225ffc063b2c57492b2e44c1c53077b6a81b3af63023f649e72",
      "s": "0x2dde957215484be24747ef2e5a8c3caf461fcda362b0bbdb1f4b2ae8dac26d26",
      "v": 27,
      "creates": null,
      "raw": "0xf87201850d58848dd1830249f094e28e72fcf78647adce1f1252f240bbfaebd63bcc890f1fe71dcb6dfc00008445466f3a1ba0cd85e8810b3ab225ffc063b2c57492b2e44c1c53077b6a81b3af63023f649e72a02dde957215484be24747ef2e5a8c3caf461fcda362b0bbdb1f4b2ae8dac26d26",
      "networkId": 0,
      "chainId": 0
    },
    {
      "hash": "0x2f82de85767361bf4d78dd4aac7db7cb4b49305fa96add26ac67ca0bd613271e",
      "blockHash": "0x209fde81c173c2a11a624ade19e26025186abd29eddc5c73ca499bda1583ca5e",
      "blockNumber": 118918,
      "transactionIndex": 1,
      "confirmations": null,
      "from": "0x608f4b86321a68453f9adf6F06F7Fc3E621739ad",
      "gasPrice": {
        "_hex": "0xba43b7400"
      },
      "gasLimit": {
        "_hex": "0x5208"
      },
      "to": "0x32Be343B94f860124dC4fEe278FDCBD38C102D88",
      "value": {
        "_hex": "0x455fd68a17f06000"
      },
      "nonce": 13,
      "data": "0x",
      "r": "0x724c4b9f775dee8b9ce522b3f9d8f1da205580f541c5f30066f22a171e81d1dc",
      "s": "0x3e740582cedf93bdd52ed614b038b9f00a15b56ec374ad5dee7f25eb54461f4d",
      "v": 28,
      "creates": null,
      "raw": "0xf86c0d850ba43b74008252089432be343b94f860124dc4fee278fdcbd38c102d8888455fd68a17f06000801ca0724c4b9f775dee8b9ce522b3f9d8f1da205580f541c5f30066f22a171e81d1dca03e740582cedf93bdd52ed614b038b9f00a15b56ec374ad5dee7f25eb54461f4d",
      "networkId": 0,
      "chainId": 0
    },
    {
      "hash": "0x2db6d8c0d9cfd1543037a5902cb6017aca123d335ecc60ba8ffde6a94b0e1b71",
      "blockHash": "0x209fde81c173c2a11a624ade19e26025186abd29eddc5c73ca499bda1583ca5e",
      "blockNumber": 118918,
      "transactionIndex": 2,
      "confirmations": null,
      "from": "0xb1abce2918E21ddb93AA452731a12672A3d9F75a",
      "gasPrice": {
        "_hex": "0xba43b7400"
      },
      "gasLimit": {
        "_hex": "0x5208"
      },
      "to": "0x32Be343B94f860124dC4fEe278FDCBD38C102D88",
      "value": {
        "_hex": "0x455fd68a17f06000"
      },
      "nonce": 188,
      "data": "0x",
      "r": "0x6c1f82a43dbefc3192853f3a56550a17434193228b3ce6e417e2cfbfc21c7913",
      "s": "0x2aa64d9b351bac1e2f73ddedc656967d312a3b080f80e028d1fbcc16fbe10365",
      "v": 27,
      "creates": null,
      "raw": "0xf86d81bc850ba43b74008252089432be343b94f860124dc4fee278fdcbd38c102d8888455fd68a17f06000801ba06c1f82a43dbefc3192853f3a56550a17434193228b3ce6e417e2cfbfc21c7913a02aa64d9b351bac1e2f73ddedc656967d312a3b080f80e028d1fbcc16fbe10365",
      "networkId": 0,
      "chainId": 0
    },
    {
      "hash": "0xc9bae72bdd58331d114a8d0c320857b2761495f761c846b9b10a4ffc9bb603ee",
      "blockHash": "0x209fde81c173c2a11a624ade19e26025186abd29eddc5c73ca499bda1583ca5e",
      "blockNumber": 118918,
      "transactionIndex": 3,
      "confirmations": null,
      "from": "0xa70a9a7040d542C632D8e0bE7c5513A8a5Bbc752",
      "gasPrice": {
        "_hex": "0xba43b7400"
      },
      "gasLimit": {
        "_hex": "0x5208"
      },
      "to": "0x32Be343B94f860124dC4fEe278FDCBD38C102D88",
      "value": {
        "_hex": "0x455fd68a17f06000"
      },
      "nonce": 317,
      "data": "0x",
      "r": "0xdcd19c60125f8f6602dd74ff4e789d573b70261e99a0aab6c0e9c70435d61bf1",
      "s": "0x642e48ea474961110e1c0665c0b8dee5f40e265b2bb1c0642cbec66b05882633",
      "v": 28,
      "creates": null,
      "raw": "0xf86e82013d850ba43b74008252089432be343b94f860124dc4fee278fdcbd38c102d8888455fd68a17f06000801ca0dcd19c60125f8f6602dd74ff4e789d573b70261e99a0aab6c0e9c70435d61bf1a0642e48ea474961110e1c0665c0b8dee5f40e265b2bb1c0642cbec66b05882633",
      "networkId": 0,
      "chainId": 0
    }
  ]
}