{
  "hash": "0x3a6f15f981e26eb1ab485ecd5fba660dc67fe35c67c1d96d8c4869cc7f1d3f6b",
  "parentHash": "0x24ed3764ba076a1d148d32e8c9547d0e684d55f3916a99d7857251ab49efaec1",
  "number": 95971,
  "timestamp": 1439732980,
  "nonce": "0x78900b5827faa31e",
  "difficulty": 3612521610757,
  "gasLimit": {
    "_hex": "0x2fefd8"
  },
  "gasUsed": {
    "_hex": "0x5208"
  },
  "miner": "0xe6A7a1d47ff21B6321162AEA7C6CB457D5476Bca",
  "extraData": "0x476574682f76312e302e312d38326566323666362f6c696e75782f676f312e34",
  "transactions": [
    {
      "hash": "0xa3a3b4dbd1075f73fe6d997b3470d3bfe4b76ea3d84d083e9956898acd6b9087",
      "blockHash": "0x3a6f15f981e26eb1ab485ecd5fba660dc67fe35c67c1d96d8c4869cc7f1d3f6b",
      "blockNumber": 95971,
      "transactionIndex": 0,
      "confirmations": null,
      "from": "0xEa5b801969342B44467C9dE87fEfE2C1dB740bd4",
      "gasPrice": {
        "_hex": "0x106ce997e44"
      },
      "gasLimit": {
        "_hex": "0x15f90"
      },
      "to": "0x211D45933Ef88c3D7aD0120942CF50ab506e618F",
      "value": {
        "_hex": "0x6124fee993bc0000"
      },
      "nonce": 4,
      "data": "0x",
      "r": "0x42d92817f0a2cab674a91a094fd5aab71c6123848dd930712f33058d17d8c2fd",
      "s": "0x0dc6c94e4d207763d97694fd5f95b89fc53e2ea1e8fc5433e20ca7ad9cc2310f",
      "v": 28,
      "creates": null,
      "raw": "0xf86e04860106ce997e4483015f9094211d45933ef88c3d7ad0120942cf50ab506e618f886124fee993bc0000801ca042d92817f0a2cab674a91a094fd5aab71c6123848dd930712f33058d17d8c2fda00dc6c94e4d207763d97694fd5f95b89fc53e2ea1e8fc5433e20ca7ad9cc2310f",
      "networkId": 0,
      "chainId": 0
    }
  ]
}