{
  "hash": "0x0dab58cea2e2d0b5cc273f915acca5662e12c3674471e90c15b11739d93ae3bb",
  "parentHash": "0x477e90707fcc765a6ca39a8604ced8178a16f8f8a57295d40b7150f752673bbe",
  "number": 116542,
  "timestamp": 1440089238,
  "nonce": "0xc6be591e38115fef",
  "difficulty": 4544362224687,
  "gasLimit": {
    "_hex": "0x2fefd8"
  },
  "gasUsed": {
    "_hex": "0xf618"
  },
  "miner": "0xe6A7a1d47ff21B6321162AEA7C6CB457D5476Bca",
  "extraData": "0xd783010002844765746887676f312e342e32856c696e7578",
  "transactions": [
    {
      "hash": "0xf86de1bc7f7b4baf7bac1261872c0e6a9d18bb3d1dae8ee8d8dbe1b82e4a023e",
      "blockHash": "0x0dab58cea2e2d0b5cc273f915acca5662e12c3674471e90c15b11739d93ae3bb",
      "blockNumber": 116542,
      "transactionIndex": 0,
      "confirmations": null,
      "from": "0x419bdE7316CC1Ed295c885aCe342C79bf7Ee33eA",
      "gasPrice": {
        "_hex": "0x10bdc1a55ad"
      },
      "gasLimit": {
        "_hex": "0x55f0"
      },
      "to": "0x4C528CB3344E1c623c8F6bb414f3a711F4F7C7F5",
      "value": {
        "_hex": "0x4563918244f40000"
      },
      "nonce": 3,
      "data": "0x",
      "r": "0xffb37262bdefa6cbdc5ec115f2aaad0200af67b759f5289db4421892d3a2485c",
      "s": "0x0f152f48cbf0b887ccc614b421fc1500f80a2cf22441c43956a9dbaa154e3282",
      "v": 28,
      "creates": null,
      "raw": "0xf86d0386010bdc1a55ad8255f0944c528cb3344e1c623c8f6bb414f3a711f4f7c7f5884563918244f40000801ca0ffb37262bdefa6cbdc5ec115f2aaad0200af67b759f5289db4421892d3a2485ca00f152f48cbf0b887ccc614b421fc1500f80a2cf22441c43956a9dbaa154e3282",
      "networkId": 0,
      "chainId": 0
    },
    {
      "hash": "0x815d0279784d616b5e96ca9f48dcb123a759f95f7bff9f6419b9c6885ae71152",
      "blockHash": "0x0dab58cea2e2d0b5cc273f915acca5662e12c3674471e90c15b11739d93ae3bb",
      "blockNumber": 116542,
      "transactionIndex": 1,
      "confirmations": null,
      "from": "0xD5bf64B3B17Fb895536953EfE17578a8b7b16880",
      "gasPrice": {
        "_hex": "0xddabd238d"
      },
      "gasLimit": {
        "_hex": "0x5208"
      },
      "to": "0x32Be343B94f860124dC4fEe278FDCBD38C102D88",
      "value": {
        "_hex": "0x56bc2e17e9cc20000"
      },
      "nonce": 7,
      "data": "0x",
      "r": "0xe40a089da8df4ff241c90acd242a99d1a0eb8e242192be39e61228fb2f60e8e5",
      "s": "0x2c859cf5a4fa436530b5c64af3b2f6a6850ae849a27d0b191d55f9fd36f36209",
      "v": 27,
      "creates": null,
      "raw": "0xf86d07850ddabd238d8252089432be343b94f860124dc4fee278fdcbd38c102d8889056bc2e17e9cc20000801ba0e40a089da8df4ff241c90acd242a99d1a0eb8e242192be39e61228fb2f60e8e5a02c859cf5a4fa436530b5c64af3b2f6a6850ae849a27d0b191d55f9fd36f36209",
      "networkId": 0,
      "chainId": 0
    },
    {
      "hash": "0xe528c6e21409c56a266d74db5ea8269ac198f96a967b27bbc4942a30a3115262",
      "blockHash": "0x0dab58cea2e2d0b5cc273f915acca5662e12c3674471e90c15b11739d93ae3bb",
      "blockNumber": 116542,
      "transactionIndex": 2,
      "confirmations": null,
      "from": "0x05f3631f5664BdAD5D0132c8388D36d7d8920918",
      "gasPrice": {
        "_hex": "0xba43b7400"
      },
      "gasLimit": {
        "_hex": "0x5208"
      },
      "to": "0x005914AfE315eE4B5a195F1Cf6dB1F049d813Afa",
      "value": {
        "_hex": "0xde0b6b3a7640000"
      },
      "nonce": 1,
      "data": "0x",
      "r": "0x882a0e445414a09f226f3a90b487cb2650582ef1948974ba39af50cb249c0ae1",
      "s": "0x2c04020fef11a0b349e8fa20e88190d42e9aac755bf56575d84f22f5c6adffe4",
      "v": 27,
      "creates": null,
      "raw": "0xf86c01850ba43b740082520894005914afe315ee4b5a195f1cf6db1f049d813afa880de0b6b3a7640000801ba0882a0e445414a09f226f3a90b487cb2650582ef1948974ba39af50cb249c0ae1a02c04020fef11a0b349e8fa20e88190d42e9aac755bf56575d84f22f5c6adffe4",
      "networkId": 0,
      "chainId": 0
    }
  ]
}