{
  "hash": "0xa6c01b830587b13c8d57e90f98198228b1d2ed486075681415371ab8d89141e5",
  "parentHash": "0x43ff8934896d52ec28fff8a6aa6fdff8cc616a976ffa71dcbcc8f51d5323152f",
  "number": 52450,
  "timestamp": 1439021721,
  "nonce": "0xf1982e842c1bdea5",
  "difficulty": 1568686443004,
  "gasLimit": {
    "_hex": "0x13eb18"
  },
  "gasUsed": {
    "_hex": "0x546c"
  },
  "miner": "0xF2d2AfF1320476cb8C6b607199D23175cc595693",
  "extraData": "0x476574682f76312e302e312f77696e646f77732f676f312e342e32",
  "transactions": [
    {
      "hash": "0x32802403785c16018555ea87d88b7bae6eef7fc421e88b1fd2af0c82055700e0",
      "blockHash": "0xa6c01b830587b13c8d57e90f98198228b1d2ed486075681415371ab8d89141e5",
      "blockNumber": 52450,
      "transactionIndex": 0,
      "confirmations": null,
      "from": "0x53396F4a26c2B4604496306c5442e7fcBA272E36",
      "gasPrice": {
        "_hex": "0xd7d40ace3"
      },
      "gasLimit": {
        "_hex": "0x15f90"
      },
      "to": "0x2910543Af39abA0Cd09dBb2D50200b3E800A63D2",
      "value": {
        "_hex": "0x6c6b935b8bbd400000"
      },
      "nonce": 2,
      "data": "0x454e34423433305738",
      "r": "0x2373b90648c2f3cfad148d10d84b1a1fb612d5d39cf18004b13885c78de0a597",
      "s": "0x61480b753fe379bbc7aaa47fd44a1dad204785ff6bc3ca65e5b582bc23c1efd7",
      "v": 28,
      "creates": null,
      "raw": "0xf87702850d7d40ace383015f90942910543af39aba0cd09dbb2d50200b3e800a63d2896c6b935b8bbd40000089454e344234333057381ca02373b90648c2f3cfad148d10d84b1a1fb612d5d39cf18004b13885c78de0a597a061480b753fe379bbc7aaa47fd44a1dad204785ff6bc3ca65e5b582bc23c1efd7",
      "networkId": 0,
      "chainId": 0
    }
  ]
}