{
  "hash": "0x0ecf31704aa7408cb0dfa6156d7b51781b695305812612d6baafe31ff4ba916a",
  "parentHash": "0x556f1477c6c9778ae5057fd8d09b3a05f462328285ec4d42748a127405666b55",
  "number": 51969,
  "timestamp": 1439013917,
  "nonce": "0xea2c3a8fc17d98d8",
  "difficulty": 1561897481984,
  "gasLimit": {
    "_hex": "0xf5442"
  },
  "gasUsed": {
    "_hex": "0x5208"
  },
  "miner": "0x4705E331214F54eE19677a920BeB64e5206Fd610",
  "extraData": "0x476574682f76312e302e312f6c696e75782f676f312e342e32",
  "transactions": [
    {
      "hash": "0x5c4dd560bfc10aacf1962ed349c6c341c032a0914f7c59f3c415409ceea29fa6",
      "blockHash": "0x0ecf31704aa7408cb0dfa6156d7b51781b695305812612d6baafe31ff4ba916a",
      "blockNumber": 51969,
      "transactionIndex": 0,
      "confirmations": null,
      "from": "0xA09503A48cDB1bb521dD4F5a921F877bC7D8DfA0",
      "gasPrice": {
        "_hex": "0xd2b4d1d1f"
      },
      "gasLimit": {
        "_hex": "0x15f90"
      },
      "to": "0x9b760457B75C17F09C52eEa70b478008fD04c941",
      "value": {
        "_hex": "0x22b1c8c1227a00000"
      },
      "nonce": 1,
      "data": "0x",
      "r": "0x1793ec2ab835de9ac8c1af80e28c58879ddecffc7d82fcc1511f15cf72408a67",
      "s": "0x31b112d27568fced133c4babc3fff1569f6cef5ba97f6e98f33f2122426c0d6c",
      "v": 28,
      "creates": null,
      "raw": "0xf86e01850d2b4d1d1f83015f90949b760457b75c17f09c52eea70b478008fd04c94189022b1c8c1227a00000801ca01793ec2ab835de9ac8c1af80e28c58879ddecffc7d82fcc1511f15cf72408a67a031b112d27568fced133c4babc3fff1569f6cef5ba97f6e98f33f2122426c0d6c",
      "networkId": 0,
      "chainId": 0
    }
  ]
}