{
  "hash": "0x8d10f338dab93bc25e857dfc786dfa468a5eeb82c41fe0433bdd47484364e3c6",
  "parentHash": "0x555e8cc09ec496f3ec510d77f9abb2d72427a1c3c33e687bdc8a2832fb5eee49",
  "number": 57672,
  "timestamp": 1439107477,
  "nonce": "0x3f4b43e088f406ea",
  "difficulty": 1733603245105,
  "gasLimit": {
    "_hex": "0x2fefd8"
  },
  "gasUsed": {
    "_hex": "0x5208"
  },
  "miner": "0x9746c7e1ef2bd21FF3997fa467593a89cb852BD0",
  "extraData": "0x476574682f76312e302e312f77696e646f77732f676f312e342e32",
  "transactions": [
    {
      "hash": "0x317874ddd90d947f210afb1ec66f5042146dfc468ad1df46c28c709e53fe67ae",
      "blockHash": "0x8d10f338dab93bc25e857dfc786dfa468a5eeb82c41fe0433bdd47484364e3c6",
      "blockNumber": 57672,
      "transactionIndex": 0,
      "confirmations": null,
      "from": "0x32Be343B94f860124dC4fEe278FDCBD38C102D88",
      "gasPrice": {
        "_hex": "0xdc684eb9f"
      },
      "gasLimit": {
        "_hex": "0x5208"
      },
      "to": "0xc384Ac6ee27C39E2F278C220BDfA5BAeD626D9d3",
      "value": {
        "_hex": "0x15aef9f1c31c7f0000"
      },
      "nonce": 91,
      "data": "0x",
      "r": "0x7306aeb9b156a95b68a600e04d4f9752f0906813803dbc99e4bb6ba1bcfc45af",
      "s": "0x424d0ff1317e3b9e56649af8f5ce6888a6da1252c40d4931190f7e4a5abd356a",
      "v": 28,
      "creates": null,
      "raw": "0xf86d5b850dc684eb9f82520894c384ac6ee27c39e2f278c220bdfa5baed626d9d38915aef9f1c31c7f0000801ca07306aeb9b156a95b68a600e04d4f9752f0906813803dbc99e4bb6ba1bcfc45afa0424d0ff1317e3b9e56649af8f5ce6888a6da1252c40d4931190f7e4a5abd356a",
      "networkId": 0,
      "chainId": 0
    }
  ]
}