{
  "hash": "0xce83f0596d8f4f2550cca28d83d9c0d79ec1590be1154cdecb6155f5f246d811",
  "parentHash": "0x75ac1ab01029e022743313253cd29c490b577c96d90ad9acebb42e2d57196e5e",
  "number": 48123,
  "timestamp": 1438951726,
  "nonce": "0x52619757483753c4",
  "difficulty": 1469373990618,
  "gasLimit": {
    "_hex": "0x12cb5"
  },
  "gasUsed": {
    "_hex": "0x546c"
  },
  "miner": "0xbb7B8287f3F0a933474a79eAe42CBCa977791171",
  "extraData": "0x476574682f4c5649562f76312e302e312f6c696e75782f676f312e342e32",
  "transactions": [
    {
      "hash": "0xa655281047042751bce631dabbe31a8510fcc39ecc2de1f0edc4a9abbeb78fb0",
      "blockHash": "0xce83f0596d8f4f2550cca28d83d9c0d79ec1590be1154cdecb6155f5f246d811",
      "blockNumber": 48123,
      "transactionIndex": 0,
      "confirmations": null,
      "from": "0x54a62bf9233E146ffEC3876E45f20ee8414adeba",
      "gasPrice": {
        "_hex": "0x108ed5c5aa8"
      },
      "gasLimit": {
        "_hex": "0x61a8"
      },
      "to": "0x2910543Af39abA0Cd09dBb2D50200b3E800A63D2",
      "value": {
        "_hex": "0x1099e627bbf3afc0000"
      },
      "nonce": 3,
      "data": "0x454e4a314d4b363152",
      "r": "0x3a23c27e91fe39f3a809d3bbb27fba04c3eb54f3fc15ab88ba32a79dc09152a9",
      "s": "0x05fa7cde0691406a78480c650d2a8ca255ef213f895bb185c59f7587e4de0f55",
      "v": 28,
      "creates": null,
      "raw": "0xf87803860108ed5c5aa88261a8942910543af39aba0cd09dbb2d50200b3e800a63d28a01099e627bbf3afc000089454e4a314d4b3631521ca03a23c27e91fe39f3a809d3bbb27fba04c3eb54f3fc15ab88ba32a79dc09152a9a005fa7cde0691406a78480c650d2a8ca255ef213f895bb185c59f7587e4de0f55",
      "networkId": 0,
      "chainId": 0
    }
  ]
}