{
  "hash": "0xadb7723e9cc46b7055cbb38ebd702f8959c14f3e92a36c689ce13d146a8a92a4",
  "parentHash": "0xff514ea6164ae542bfea5a504838ffa56e510c1f4bb2051f3ad63d24debd46cf",
  "number": 95858,
  "timestamp": 1439730919,
  "nonce": "0x9eb4515684c3d4ca",
  "difficulty": 3628480762293,
  "gasLimit": {
    "_hex": "0x2fefd8"
  },
  "gasUsed": {
    "_hex": "0x5208"
  },
  "miner": "0x5F8F73E26CdF436f19Cb24C82F90A15AFe55b592",
  "extraData": "0x476574682f76312e302e312f77696e646f77732f676f312e342e32",
  "transactions": [
    {
      "hash": "0xfc0c9803ec485d6bed28a5c36e25acd420ec62132c65dc4a807588a264b18508",
      "blockHash": "0xadb7723e9cc46b7055cbb38ebd702f8959c14f3e92a36c689ce13d146a8a92a4",
      "blockNumber": 95858,
      "transactionIndex": 0,
      "confirmations": null,
      "from": "0x910a4aADabb3A7B3F7879118332E13Da66b68D77",
      "gasPrice": {
        "_hex": "0xdfb3acc14"
      },
      "gasLimit": {
        "_hex": "0x5208"
      },
      "to": "0x32Be343B94f860124dC4fEe278FDCBD38C102D88",
      "value": {
        "_hex": "0x1a050ee24dc78a000"
      },
      "nonce": 16,
      "data": "0x",
      "r": "0x10564faa7cb763835343963a6fc05317b5a623d4c97799da157348e02baa3b33",
      "s": "0x364cab8128b5a327264e76fdf1134e03104129c92b9dde4f4b5c44406351a99b",
      "v": 28,
      "creates": null,
      "raw": "0xf86d10850dfb3acc148252089432be343b94f860124dc4fee278fdcbd38c102d888901a050ee24dc78a000801ca010564faa7cb763835343963a6fc05317b5a623d4c97799da157348e02baa3b33a0364cab8128b5a327264e76fdf1134e03104129c92b9dde4f4b5c44406351a99b",
      "networkId": 0,
      "chainId": 0
    }
  ]
}