{
  "hash": "0x9361cfeee5d683cd2841b38297a4042cb9f09f84781d1e13e0a69bdedec950f8",
  "parentHash": "0xd419eb38fe5f53aae0398a2a56211a60fe1bb9be28ea1491ddc1a69fe151b22e",
  "number": 48238,
  "timestamp": 1438953927,
  "nonce": "0xe03b8ee57793fdb3",
  "difficulty": 1455785183106,
  "gasLimit": {
    "_hex": "0x142ae"
  },
  "gasUsed": {
    "_hex": "0xa674"
  },
  "miner": "0x9746c7e1ef2bd21FF3997fa467593a89cb852BD0",
  "extraData": "0x476574682f76312e302e312f77696e646f77732f676f312e342e32",
  "transactions": [
    {
      "hash": "0x593db410be21398be546c54184a1fbbb4790c75b9d312c5309b8d0e70f43a6a8",
      "blockHash": "0x9361cfeee5d683cd2841b38297a4042cb9f09f84781d1e13e0a69bdedec950f8",
      "blockNumber": 48238,
      "transactionIndex": 0,
      "confirmations": null,
      "from": "0xDE06D5EA777a4eb1475e605dbcBf43444e8037ea",
      "gasPrice": {
        "_hex": "0x1066e9dc2f2"
      },
      "gasLimit": {
        "_hex": "0x55f0"
      },
      "to": "0x81B0E1aC46A7dfED98187796D0E55Ac64b01F60C",
      "value": {
        "_hex": "0x17c23eedef78000"
      },
      "nonce": 0,
      "data": "0x",
      "r": "0x78023f2bd4828f64193fb8ce369a54a82fef08e9c6c0c02b57c47c0bab989d09",
      "s": "0x2f55a7c8581317e0bbf027791c7a9ea0ac2302b8f197a2271399f9a821936717",
      "v": 27,
      "creates": null,
      "raw": "0xf86d808601066e9dc2f28255f09481b0e1ac46a7dfed98187796d0e55ac64b01f60c88017c23eedef78000801ba078023f2bd4828f64193fb8ce369a54a82fef08e9c6c0c02b57c47c0bab989d09a02f55a7c8581317e0bbf027791c7a9ea0ac2302b8f197a2271399f9a821936717",
      "networkId": 0,
      "chainId": 0
    },
    {
      "hash": "0xaafbb2fe823aa078513d94319ab365bb1bc3863dca1615066157cf92c0dcc75e",
      "blockHash": "0x9361cfeee5d683cd2841b38297a4042cb9f09f84781d1e13e0a69bdedec950f8",
      "blockNumber": 48238,
      "transactionIndex": 1,
      "confirmations": null,
      "from": "0x2dd325FDfFB97B19995284aFA5abDB574a1Df16a",
      "gasPrice": {
        "_hex": "0xcd453038b"
      },
      "gasLimit": {
        "_hex": "0x61a8"
      },
      "to": "0x2910543Af39abA0Cd09dBb2D50200b3E800A63D2",
      "value": {
        "_hex": "0x2b5e3af16b1880000"
      },
      "nonce": 0,
      "data": "0x454e4d433644503147",
      "r": "0x96a61f1c01092ddef57fed5f4055a85f6fe840a129690b481d49826e9f6ec3b9",
      "s": "0x43afce7833ae5d2076f42d30e93a1444fb715d2dedcca1413de2b2fa173c0e0f",
      "v": 28,
      "creates": null,
      "raw": "0xf87680850cd453038b8261a8942910543af39aba0cd09dbb2d50200b3e800a63d28902b5e3af16b188000089454e4d4336445031471ca096a61f1c01092ddef57fed5f4055a85f6fe840a129690b481d49826e9f6ec3b9a043afce7833ae5d2076f42d30e93a1444fb715d2dedcca1413de2b2fa173c0e0f",
      "networkId": 0,
      "chainId": 0
    }
  ]
}