{
  "hash": "0xe50a053b997906c6735f41d8304266fa1592bc814c1136e5dcb8deb965e5f1e4",
  "parentHash": "0x07d7868af4e617f63a33652efd990f1755106d9027d3fbd14d03d99b6f97f88f",
  "number": 91284,
  "timestamp": 1439653142,
  "nonce": "0x58b3a85517c60b3f",
  "difficulty": 3460827543732,
  "gasLimit": {
    "_hex": "0x2fefd8"
  },
  "gasUsed": {
    "_hex": "0x5208"
  },
  "miner": "0xe6A7a1d47ff21B6321162AEA7C6CB457D5476Bca",
  "extraData": "0x476574682f76312e302e312d38326566323666362f6c696e75782f676f312e34",
  "transactions": [
    {
      "hash": "0x935caec4f06172ad76d7eb7d1ad31a6ebf10e74adb05b97e9b651436da755bb9",
      "blockHash": "0xe50a053b997906c6735f41d8304266fa1592bc814c1136e5dcb8deb965e5f1e4",
      "blockNumber": 91284,
      "transactionIndex": 0,
      "confirmations": null,
      "from": "0x83467Bcd87d0E6b641A9c2868e63Cb239adf1dc4",
      "gasPrice": {
        "_hex": "0xcf97dc857"
      },
      "gasLimit": {
        "_hex": "0x15f90"
      },
      "to": "0xd11050820106D3E1D7a516B074b13D5ec2b4A8F1",
      "value": {
        "_hex": "0xde0b6b3a7640000"
      },
      "nonce": 0,
      "data": "0x",
      "r": "0x7fb5cca84c227f91fb334c4734c93e3ea8d718591f9e93d1fdd9da5877b6e74b",
      "s": "0x78b3baa07bdbce88eb2814b038b43d964f19359b7919bf07d093ea8d0c407fa9",
      "v": 28,
      "creates": null,
      "raw": "0xf86d80850cf97dc85783015f9094d11050820106d3e1d7a516b074b13d5ec2b4a8f1880de0b6b3a7640000801ca07fb5cca84c227f91fb334c4734c93e3ea8d718591f9e93d1fdd9da5877b6e74ba078b3baa07bdbce88eb2814b038b43d964f19359b7919bf07d093ea8d0c407fa9",
      "networkId": 0,
      "chainId": 0
    }
  ]
}