{
  "hash": "0x36be81bf8e2acd5626dbd2bc0e0fe97c62791e22879934bfb77ea98fd8442d7e",
  "parentHash": "0x9254ba422221bfc0225714a1dad0b3282e6928d4b01d6d1df7793940b9d4c31d",
  "number": 53526,
  "timestamp": 1439039174,
  "nonce": "0x8a2723ce21fb4f3b",
  "difficulty": 1590076638728,
  "gasLimit": {
    "_hex": "0x2adeec"
  },
  "gasUsed": {
    "_hex": "0xa410"
  },
  "miner": "0xf8E0CA3Ed80bd541b94BEdCf259e8CF2141A9523",
  "extraData": "0x476574682f76312e302e312f77696e646f77732f676f312e342e32",
  "transactions": [
    {
      "hash": "0x816282563a7a42c9a81493319382fdbd9af607260f78f32d4cea0a6bdc79fb77",
      "blockHash": "0x36be81bf8e2acd5626dbd2bc0e0fe97c62791e22879934bfb77ea98fd8442d7e",
      "blockNumber": 53526,
      "transactionIndex": 0,
      "confirmations": null,
      "from": "0x3734Cb187491eDE713ae5b3b2D12284Af46B8101",
      "gasPrice": {
        "_hex": "0x10dc90d85e7"
      },
      "gasLimit": {
        "_hex": "0x56ce"
      },
      "to": "0xD2c15be6348756F691bb98F60dFebE61E6bE3B56",
      "value": {
        "_hex": "0x3627e8f712373c0000"
      },
      "nonce": 2,
      "data": "0x",
      "r": "0x4298d3b473e7b79dea9397a404b441231fa10bd0c491c96552340b7eea9fba19",
      "s": "0x165d35452db414e8f7dfcab503db53f01de9b2de95245f10b91cd6db5e5239e7",
      "v": 28,
      "creates": null,
      "raw": "0xf86e0286010dc90d85e78256ce94d2c15be6348756f691bb98f60dfebe61e6be3b56893627e8f712373c0000801ca04298d3b473e7b79dea9397a404b441231fa10bd0c491c96552340b7eea9fba19a0165d35452db414e8f7dfcab503db53f01de9b2de95245f10b91cd6db5e5239e7",
      "networkId": 0,
      "chainId": 0
    },
    {
      "hash": "0x5f8382251ab8888bdf32f3cf548559745e4800080455f920756481fa3368202d",
      "blockHash": "0x36be81bf8e2acd5626dbd2bc0e0fe97c62791e22879934bfb77ea98fd8442d7e",
      "blockNumber": 53526,
      "transactionIndex": 1,
      "confirmations": null,
      "from": "0xAF880FC7567D5595cACCe15c3FC14C8742C26C9e",
      "gasPrice": {
        "_hex": "0xd0f5db478"
      },
      "gasLimit": {
        "_hex": "0x5208"
      },
      "to": "0x543807d0aF2c58b49d7F25659D0472d4d8B8e8DA",
      "value": {
        "_hex": "0x1158e460913d00000"
      },
      "nonce": 6,
      "data": "0x",
      "r": "0x2d78408f432dbf36e5ed1ca07c8308f28d9f15a4ea71c5894aeeb82d49c736af",
      "s": "0x4efa5421bbabf5f5644f5007fa006e8b83e5b4536b4cf483425eec9a44d0495f",
      "v": 27,
      "creates": null,
      "raw": "0xf86d06850d0f5db47882520894543807d0af2c58b49d7f25659d0472d4d8b8e8da8901158e460913d00000801ba02d78408f432dbf36e5ed1ca07c8308f28d9f15a4ea71c5894aeeb82d49c736afa04efa5421bbabf5f5644f5007fa006e8b83e5b4536b4cf483425eec9a44d0495f",
      "networkId": 0,
      "chainId": 0
    }
  ]
}