{
  "hash": "0x46fb1771f06af7b47d04cf13e8a08fa1889818194eaede70864af1821d0e2405",
  "parentHash": "0xfccf4375ef0101fe7ad4661700e75cbce180fecfc7e0a5bdb7b59526fe00b36b",
  "number": 80167,
  "timestamp": 1439481218,
  "nonce": "0xed997c5c31142f67",
  "difficulty": 2364363223987,
  "gasLimit": {
    "_hex": "0x2fefd5"
  },
  "gasUsed": {
    "_hex": "0x14820"
  },
  "miner": "0xe090Ffdced499691fA9379752a59F8A058c1eE4A",
  "extraData": "0x476574682f76312e302e312f6c696e75782f676f312e342e32",
  "transactions": [
    {
      "hash": "0x68a419af924aa378e9b79bc6f83bc9ceff31906fc7108004a3aa5bc85e9cdaaa",
      "blockHash": "0x46fb1771f06af7b47d04cf13e8a08fa1889818194eaede70864af1821d0e2405",
      "blockNumber": 80167,
      "transactionIndex": 0,
      "confirmations": null,
      "from": "0xF11940EA05aA9CC3F13aCF5C5cA6EDCF312E3Aec",
      "gasPrice": {
        "_hex": "0xe0975a98d"
      },
      "gasLimit": {
        "_hex": "0x15f90"
      },
      "to": "0x59C62d3D43f9EA1c4118d98c188AA5d028b8bB8E",
      "value": {
        "_hex": "0x8ac7230489e80000"
      },
      "nonce": 3,
      "data": "0x",
      "r": "0x12c0ba82908297582d55e8b4689acdf70be86d242dc098d1138890f1965752fc",
      "s": "0x0680c092cac2460ed367cc461dd59d4db5c64027a17724cd73685eba14751e4f",
      "v": 27,
      "creates": null,
      "raw": "0xf86d03850e0975a98d83015f909459c62d3d43f9ea1c4118d98c188aa5d028b8bb8e888ac7230489e80000801ba012c0ba82908297582d55e8b4689acdf70be86d242dc098d1138890f1965752fca00680c092cac2460ed367cc461dd59d4db5c64027a17724cd73685eba14751e4f",
      "networkId": 0,
      "chainId": 0
    },
    {
      "hash": "0xcd84fcc381e63b04d78a34d83b0b7a74f35395230f6f379523a46f3d855eaf24",
      "blockHash": "0x46fb1771f06af7b47d04cf13e8a08fa1889818194eaede70864af1821d0e2405",
      "blockNumber": 80167,
      "transactionIndex": 1,
      "confirmations": null,
      "from": "0x32Be343B94f860124dC4fEe278FDCBD38C102D88",
      "gasPrice": {
        "_hex": "0xcd43aff79"
      },
      "gasLimit": {
        "_hex": "0x5208"
      },
      "to": "0x6C910F77492Fe4E0e3C043456BC2Fa588Dcd7399",
      "value": {
        "_hex": "0x298ff17f00ba02000"
      },
      "nonce": 515,
      "data": "0x",
      "r": "0x2b3a1ca42636c2820addf330aedbf162fa6882b87c028d90d01ce7e8d4867fab",
      "s": "0x4647d4bc61c324c0725bdcc62e8ed2fec07fb325d3da4bd6761ca43149fd0422",
      "v": 28,
      "creates": null,
      "raw": "0xf86f820203850cd43aff79825208946c910f77492fe4e0e3c043456bc2fa588dcd7399890298ff17f00ba02000801ca02b3a1ca42636c2820addf330aedbf162fa6882b87c028d90d01ce7e8d4867faba04647d4bc61c324c0725bdcc62e8ed2fec07fb325d3da4bd6761ca43149fd0422",
      "networkId": 0,
      "chainId": 0
    },
    {
      "hash": "0x3b2c2cef2f270c13ae3eb0389daa81f8b5cc23246b6bd7af2d9bdf88162ab0b5",
      "blockHash": "0x46fb1771f06af7b47d04cf13e8a08fa1889818194eaede70864af1821d0e2405",
      "blockNumber": 80167,
      "transactionIndex": 2,
      "confirmations": null,
      "from": "0x32Be343B94f860124dC4fEe278FDCBD38C102D88",
      "gasPrice": {
        "_hex": "0xcd43aff79"
      },
      "gasLimit": {
        "_hex": "0x5208"
      },
      "to": "0xB818B6Ac9290F3dC125E077eCCFCf471516D1c62",
      "value": {
        "_hex": "0x4456e4f8d7d070000"
      },
      "nonce": 516,
      "data": "0x",
      "r": "0xaf09c86440bb52cc6212db02e03b88bb1002b2b1c05794215443da8b9d8031fd",
      "s": "0x6d8324eab831c17ae337561c3e9f898ed7562b52e3f68d19f757c1245fb875f4",
      "v": 27,
      "creates": null,
      "raw": "0xf86f820204850cd43aff7982520894b818b6ac9290f3dc125e077eccfcf471516d1c628904456e4f8d7d070000801ba0af09c86440bb52cc6212db02e03b88bb1002b2b1c05794215443da8b9d8031fda06d8324eab831c17ae337561c3e9f898ed7562b52e3f68d19f757c1245fb875f4",
      "networkId": 0,
      "chainId": 0
    },
    {
      "hash": "0xc02eca6d325ada2e520b1040d9f20029ead64f0990b47eecdc92adde4659d62d",
      "blockHash": "0x46fb1771f06af7b47d04cf13e8a08fa1889818194eaede70864af1821d0e2405",
      "blockNumber": 80167,
      "transactionIndex": 3,
      "confirmations": null,
      "from": "0x32Be343B94f860124dC4fEe278FDCBD38C102D88",
      "gasPrice": {
        "_hex": "0xcd43aff79"
      },
      "gasLimit": {
        "_hex": "0x5208"
      },
      "to": "0xb2169f1326FE9745321aD99563654089bAdf09eb",
      "value": {
        "_hex": "0x8aa39c121a270000"
      },
      "nonce": 517,
      "data": "0x",
      "r": "0x1f1785f02238ba0b982156d61cd554ba3994c1f63cc33c098b4b33979ff652ac",
      "s": "0x50b44d56ddafd9de7cd5de96ce7b2bb799b6fcae3481142b0041fd2f194182c8",
      "v": 27,
      "creates": null,
      "raw": "0xf86e820205850cd43aff7982520894b2169f1326fe9745321ad99563654089badf09eb888aa39c121a270000801ba01f1785f02238ba0b982156d61cd554ba3994c1f63cc33c098b4b33979ff652aca050b44d56ddafd9de7cd5de96ce7b2bb799b6fcae3481142b0041fd2f194182c8",
      "networkId": 0,
      "chainId": 0
    }
  ]
}