{
  "hash": "0x2f974693e62e53b6cc22ccdee9d306295a30ddd021e22c463be1121460f2d95d",
  "parentHash": "0xcf16994c048cea9b2b856a3f10f60f23d8b4490ee8f766fc3a61a37fbe09262f",
  "number": 64555,
  "timestamp": 1439222681,
  "nonce": "0xcdb4abe065b96977",
  "difficulty": 1884861207852,
  "gasLimit": {
    "_hex": "0x2fefd8"
  },
  "gasUsed": {
    "_hex": "0x5208"
  },
  "miner": "0x01d9DA08cc6Fb97c0DE1B6F4C28910A0859Ed1A1",
  "extraData": "0x476574682f76312e302e312f6c696e75782f676f312e342e32",
  "transactions": [
    {
      "hash": "0xf6419f2b18a016f86fe5b7860778fdd345e3193ee5c231d55d716953b1f1b5f9",
      "blockHash": "0x2f974693e62e53b6cc22ccdee9d306295a30ddd021e22c463be1121460f2d95d",
      "blockNumber": 64555,
      "transactionIndex": 0,
      "confirmations": null,
      "from": "0x1fA845264fAFbfdBb8CA1934538be9D8D4DEf52D",
      "gasPrice": {
        "_hex": "0xba43b7400"
      },
      "gasLimit": {
        "_hex": "0x5208"
      },
      "to": "0x8d46af0ACbC0aA47B9e8c22C928d949beE2f35FA",
      "value": {
        "_hex": "0xf0088de8d15000"
      },
      "nonce": 1,
      "data": "0x",
      "r": "0xd787158111a1e1f98fc1c0785c4ef3b559e0d1607d8ac4cec5d85781e1eb8c03",
      "s": "0x4aa2a84b439e7a2c7ec441abafc5b7b6bb2a02727f42b86651091ce81609f0b0",
      "v": 28,
      "creates": null,
      "raw": "0xf86b01850ba43b7400825208948d46af0acbc0aa47b9e8c22c928d949bee2f35fa87f0088de8d15000801ca0d787158111a1e1f98fc1c0785c4ef3b559e0d1607d8ac4cec5d85781e1eb8c03a04aa2a84b439e7a2c7ec441abafc5b7b6bb2a02727f42b86651091ce81609f0b0",
      "networkId": 0,
      "chainId": 0
    }
  ]
}