{
  "hash": "0x5c17fcb0cd421cc64867496410903132b641c7754c18cd5d18b7c10749a2e1d5",
  "parentHash": "0xd268b755fa548b2acd91b148dc818b6b8ded8181b3dbc74ffb968748909d3733",
  "number": 81510,
  "timestamp": 1439502978,
  "nonce": "0x80d3f7dc7bfe7c42",
  "difficulty": 2444987588431,
  "gasLimit": {
    "_hex": "0x2fefd8"
  },
  "gasUsed": {
    "_hex": "0x5208"
  },
  "miner": "0xF2d2AfF1320476cb8C6b607199D23175cc595693",
  "extraData": "0x476574682f76312e302e312f77696e646f77732f676f312e342e32",
  "transactions": [
    {
      "hash": "0x980f76bff4c36e99c40d4db21ceb85eed222e7e3340d20376782982c5854fba7",
      "blockHash": "0x5c17fcb0cd421cc64867496410903132b641c7754c18cd5d18b7c10749a2e1d5",
      "blockNumber": 81510,
      "transactionIndex": 0,
      "confirmations": null,
      "from": "0x2910543Af39abA0Cd09dBb2D50200b3E800A63D2",
      "gasPrice": {
        "_hex": "0xcf8059ab9"
      },
      "gasLimit": {
        "_hex": "0x5208"
      },
      "to": "0xa61e151af0007B7406d969Dce51740caf0D69088",
      "value": {
        "_hex": "0xdcef33a6f838000"
      },
      "nonce": 486,
      "data": "0x",
      "r": "0xd3b0e6e622d7fc1d7e886ed9cfd2ac6e28a5522848272c6a4522d4a27e0dbf36",
      "s": "0x7f0edc078f3d9642f2486256c0a09387a7aa7c8bc82646e784ef2e044b866510",
      "v": 27,
      "creates": null,
      "raw": "0xf86e8201e6850cf8059ab982520894a61e151af0007b7406d969dce51740caf0d69088880dcef33a6f838000801ba0d3b0e6e622d7fc1d7e886ed9cfd2ac6e28a5522848272c6a4522d4a27e0dbf36a07f0edc078f3d9642f2486256c0a09387a7aa7c8bc82646e784ef2e044b866510",
      "networkId": 0,
      "chainId": 0
    }
  ]
}