{
  "hash": "0x8e678ee3a5e46367174d5c0b7d5068af05b16d528c1678bf4d1bf545660374c7",
  "parentHash": "0xb06d954f111f12cf68705aff87ef766a304fe1a9d62601470faab3cccbccf118",
  "number": 71411,
  "timestamp": 1439335604,
  "nonce": "0x85ae0d90181ca4e2",
  "difficulty": 2176173699275,
  "gasLimit": {
    "_hex": "0x2fefd8"
  },
  "gasUsed": {
    "_hex": "0x25562"
  },
  "miner": "0xbb7B8287f3F0a933474a79eAe42CBCa977791171",
  "extraData": "0x476574682f4c5649562f76312e302e312f6c696e75782f676f312e342e32",
  "transactions": [
    {
      "hash": "0xec871985fd9a26e2535eb96887f77850dce6a105642e4a511cad593b3f09bc33",
      "blockHash": "0x8e678ee3a5e46367174d5c0b7d5068af05b16d528c1678bf4d1bf545660374c7",
      "blockNumber": 71411,
      "transactionIndex": 0,
      "confirmations": null,
      "from": "0xf316ef1df2Ff4d6C1808dba663ec8093697968e0",
      "gasPrice": {
        "_hex": "0x110c8f7d8de"
      },
      "gasLimit": {
        "_hex": "0xc350"
      },
      "to": "0x2910543Af39abA0Cd09dBb2D50200b3E800A63D2",
      "value": {
        "_hex": "0x614386e1ebc5dc0000"
      },
      "nonce": 0,
      "data": "0x454e36324530563638",
      "r": "0x9b82711c5d2f333c211230e64cac80ce02c29d281ea75339c854ace0b062e1a1",
      "s": "0x03f2b0818732e4e675daf07614a4e5039c112bdd9f5952e3358e307e76b77eb1",
      "v": 27,
      "creates": null,
      "raw": "0xf87780860110c8f7d8de82c350942910543af39aba0cd09dbb2d50200b3e800a63d289614386e1ebc5dc000089454e363245305636381ba09b82711c5d2f333c211230e64cac80ce02c29d281ea75339c854ace0b062e1a1a003f2b0818732e4e675daf07614a4e5039c112bdd9f5952e3358e307e76b77eb1",
      "networkId": 0,
      "chainId": 0
    },
    {
      "hash": "0x016fe46e3b5cb41e6c3f7daf14f052f4ee27b0993e937bfe087fcf4518f7e59a",
      "blockHash": "0x8e678ee3a5e46367174d5c0b7d5068af05b16d528c1678bf4d1bf545660374c7",
      "blockNumber": 71411,
      "transactionIndex": 1,
      "confirmations": null,
      "from": "0x17580B766f7453525ca4C6A88b01b50570EA088C",
      "gasPrice": {
        "_hex": "0xd8907e0fc"
      },
      "gasLimit": {
        "_hex": "0x61a80"
      },
      "to": "0x5Fe5B7546D1628f7348B023A0393de1FC825A4fD",
      "value": {
        "_hex": "0xde0b6b3a7640000"
      },
      "nonce": 179,
      "data": "0xb595b8b50000000000000000000000000000000000000000000000000000000000000000",
      "r": "0x41957e02f25d6a6e6fb95f794a425da48167baf03092e00c88256164bffbbd09",
      "s": "0x3fa3c95c68d1086609d428f79fba0a7bb7e4011b540a519a0d5113b259ae9285",
      "v": 27,
      "creates": null,
      "raw": "0xf89281b3850d8907e0fc83061a80945fe5b7546d1628f7348b023a0393de1fc825a4fd880de0b6b3a7640000a4b595b8b500000000000000000000000000000000000000000000000000000000000000001ba041957e02f25d6a6e6fb95f794a425da48167baf03092e00c88256164bffbbd09a03fa3c95c68d1086609d428f79fba0a7bb7e4011b540a519a0d5113b259ae9285",
      "networkId": 0,
      "chainId": 0
    },
    {
      "hash": "0xf6b3fbd401a5fabdbe037f9c6c38cff6df7ff669083c25a2a010e23be8501b2b",
      "blockHash": "0x8e678ee3a5e46367174d5c0b7d5068af05b16d528c1678bf4d1bf545660374c7",
      "blockNumber": 71411,
      "transactionIndex": 2,
      "confirmations": null,
      "from": "0x17580B766f7453525ca4C6A88b01b50570EA088C",
      "gasPrice": {
        "_hex": "0xd8907e0fc"
      },
      "gasLimit": {
        "_hex": "0x61a80"
      },
      "to": "0x5Fe5B7546D1628f7348B023A0393de1FC825A4fD",
      "value": {
        "_hex": "0xde0b6b3a7640000"
      },
      "nonce": 180,
      "data": "0xb595b8b50000000000000000000000000000000000000000000000000000000000000000",
      "r": "0xa6e36839c878ce3e0f1ca3e18d2a1ab2ed1267e01530abf4949027f7d2bd4897",
      "s": "0x1616e74adf34abf1788add49fb90bedbe18b1188194f723a999373b95bf3226d",
      "v": 27,
      "creates": null,
      "raw": "0xf89281b4850d8907e0fc83061a80945fe5b7546d1628f7348b023a0393de1fc825a4fd880de0b6b3a7640000a4b595b8b500000000000000000000000000000000000000000000000000000000000000001ba0a6e36839c878ce3e0f1ca3e18d2a1ab2ed1267e01530abf4949027f7d2bd4897a01616e74adf34abf1788add49fb90bedbe18b1188194f723a999373b95bf3226d",
      "networkId": 0,
      "chainId": 0
    },
    {
      "hash": "0x6365b8b5719f6f62c697af3f9fe56a165d20325aee888ee66a0662db765a641b",
      "blockHash": "0x8e678ee3a5e46367174d5c0b7d5068af05b16d528c1678bf4d1bf545660374c7",
      "blockNumber": 71411,
      "transactionIndex": 3,
      "confirmations": null,
      "from": "0x120A270bbC009644e35F0bB6ab13f95b8199c4ad",
      "gasPrice": {
        "_hex": "0xd34f98d2a"
      },
      "gasLimit": {
        "_hex": "0x15f90"
      },
      "to": "0x739f8ab33a41B67952f16778e3CC6D2dEcC3a2d5",
      "value": {
        "_hex": "0x199650db3ca0600000"
      },
      "nonce": 230,
      "data": "0x",
      "r": "0x8529ba5e4ad34be447b2c4c378ff0dd59101149d4127cd339b1a0911028a8a92",
      "s": "0x5f1f6be7c39e102cb066666e3b2124b93d43f535558884636043f48dcc022493",
      "v": 27,
      "creates": null,
      "raw": "0xf86f81e6850d34f98d2a83015f9094739f8ab33a41b67952f16778e3cc6d2decc3a2d589199650db3ca0600000801ba08529ba5e4ad34be447b2c4c378ff0dd59101149d4127cd339b1a0911028a8a92a05f1f6be7c39e102cb066666e3b2124b93d43f535558884636043f48dcc022493",
      "networkId": 0,
      "chainId": 0
    },
    {
      "hash": "0x8d910e2c031024476e639508f183fd0c6b42317520b48693a697f4396af222dc",
      "blockHash": "0x8e678ee3a5e46367174d5c0b7d5068af05b16d528c1678bf4d1bf545660374c7",
      "blockNumber": 71411,
      "transactionIndex": 4,
      "confirmations": null,
      "from": "0x120A270bbC009644e35F0bB6ab13f95b8199c4ad",
      "gasPrice": {
        "_hex": "0xd34f98d2a"
      },
      "gasLimit": {
        "_hex": "0x15f90"
      },
      "to": "0x0258Afde42492E62Ba883e6169d5c502275A7a24",
      "value": {
        "_hex": "0x29e0537b5892853400"
      },
      "nonce": 231,
      "data": "0x",
      "r": "0x84b2cf054f4626b61b1a46a1b75b41c7c6bbea9b15ea1b026158e24a6accc155",
      "s": "0x38614d30c3705d1a1e70cbb69fa99a8c4e31d57a27403a077133c6f7e97133d5",
      "v": 28,
      "creates": null,
      "raw": "0xf86f81e7850d34f98d2a83015f90940258afde42492e62ba883e6169d5c502275a7a248929e0537b5892853400801ca084b2cf054f4626b61b1a46a1b75b41c7c6bbea9b15ea1b026158e24a6accc155a038614d30c3705d1a1e70cbb69fa99a8c4e31d57a27403a077133c6f7e97133d5",
      "networkId": 0,
      "chainId": 0
    }
  ]
}