{
  "hash": "0x50d6818e34e982c29858dbfab364f66cdf6c3c0972a89faaa93034ddd38572c6",
  "parentHash": "0x48dfc6111e36c5079a2caf0fcedcdce38b41c1018756e67bd4a7a8830a0a25c2",
  "number": 115675,
  "timestamp": 1440061211,
  "nonce": "0xf03dc749f25e8a58",
  "difficulty": 4605145855262,
  "gasLimit": {
    "_hex": "0x2fefd8"
  },
  "gasUsed": {
    "_hex": "0x5208"
  },
  "miner": "0xC603Ab5ef41fC61AA8b76bEddb09e3Cfcbb174BD",
  "extraData": "0x476574682f76312e302e312f77696e646f77732f676f312e342e32",
  "transactions": [
    {
      "hash": "0xac3db53c0e18dd6ebb084363150bdc51df9a9b10061082ecb52130be4aff27a7",
      "blockHash": "0x50d6818e34e982c29858dbfab364f66cdf6c3c0972a89faaa93034ddd38572c6",
      "blockNumber": 115675,
      "transactionIndex": 0,
      "confirmations": null,
      "from": "0xf01e25B76A4274d2e5af5810302E4230c8A515D3",
      "gasPrice": {
        "_hex": "0xba43b7400"
      },
      "gasLimit": {
        "_hex": "0x5208"
      },
      "to": "0xC47Aaa860008be6f65B58c6C6E02a84e666EfE31",
      "value": {
        "_hex": "0x2ed3f47fab2536000"
      },
      "nonce": 1,
      "data": "0x",
      "r": "0x06cbe39c499632150d81241af73182765a33da06729fe990801cd0642aadd3a1",
      "s": "0x2370efa90e85db04f2c956a15dc8336b6567d938589753198869b0c0519de153",
      "v": 27,
      "creates": null,
      "raw": "0xf86d01850ba43b740082520894c47aaa860008be6f65b58c6c6e02a84e666efe318902ed3f47fab2536000801ba006cbe39c499632150d81241af73182765a33da06729fe990801cd0642aadd3a1a02370efa90e85db04f2c956a15dc8336b6567d938589753198869b0c0519de153",
      "networkId": 0,
      "chainId": 0
    }
  ]
}