{
  "hash": "0x6c54760bfba28d161aea29e0dfee4fd1b90fec627d6e2745ab1e9499b669898e",
  "parentHash": "0x0099c538efaf937a531043ea9c166c1d9212112bd1d203200a13e68b3b843961",
  "number": 48443,
  "timestamp": 1438957207,
  "nonce": "0x253abdcebbb0795e",
  "difficulty": 1460733827360,
  "gasLimit": {
    "_hex": "0x17478"
  },
  "gasUsed": {
    "_hex": "0xf87c"
  },
  "miner": "0x3F98e477a361F777DA14611a7e419A75Fd238b6b",
  "extraData": "0x476574682f76312e302e312f6c696e75782f676f312e342e32",
  "transactions": [
    {
      "hash": "0x3936780959c5bea94c62e403396b69b6249bfade0be6243741523a60a2d1d6cd",
      "blockHash": "0x6c54760bfba28d161aea29e0dfee4fd1b90fec627d6e2745ab1e9499b669898e",
      "blockNumber": 48443,
      "transactionIndex": 0,
      "confirmations": null,
      "from": "0xE09C68e61998D9c81b14E4ee802BA7ADf6d74CdB",
      "gasPrice": {
        "_hex": "0x110c8f7d8de"
      },
      "gasLimit": {
        "_hex": "0xc350"
      },
      "to": "0x2910543Af39abA0Cd09dBb2D50200b3E800A63D2",
      "value": {
        "_hex": "0x2386f26fc10000"
      },
      "nonce": 8,
      "data": "0x454e32413658483230",
      "r": "0x92e96854dfaa83893a1433ad72147ff4a0bc986c258b799f8312ad13dc492819",
      "s": "0x8314c8c6d3eaf379d4950640332c99a84cb05fdc6a27e3b780db36b227be2b6d",
      "v": 28,
      "creates": null,
      "raw": "0xf87508860110c8f7d8de82c350942910543af39aba0cd09dbb2d50200b3e800a63d2872386f26fc1000089454e324136584832301ca092e96854dfaa83893a1433ad72147ff4a0bc986c258b799f8312ad13dc492819a08314c8c6d3eaf379d4950640332c99a84cb05fdc6a27e3b780db36b227be2b6d",
      "networkId": 0,
      "chainId": 0
    },
    {
      "hash": "0xc924084884b25ffc029c0e272b2e0b33ef3940a2d2be13aaaffe62fd8ee631b8",
      "blockHash": "0x6c54760bfba28d161aea29e0dfee4fd1b90fec627d6e2745ab1e9499b669898e",
      "blockNumber": 48443,
      "transactionIndex": 1,
      "confirmations": null,
      "from": "0x2289113B753ef6965CD5E2A355efc0aEc982171c",
      "gasPrice": {
        "_hex": "0xd534ee697"
      },
      "gasLimit": {
        "_hex": "0x5208"
      },
      "to": "0xCF336585500343e6Bd562504cC90D9E319037f31",
      "value": {
        "_hex": "0x37761b5506820bcd"
      },
      "nonce": 2,
      "data": "0x",
      "r": "0x6572a649a01160bad3e62f4acad97556cd7d949e0b739cecf89ae8b931bb88b1",
      "s": "0x61c853f4e608327ed86055024b0aae19184dcf0ff1be3e586ae5574839194e3b",
      "v": 27,
      "creates": null,
      "raw": "0xf86c02850d534ee69782520894cf336585500343e6bd562504cc90d9e319037f318837761b5506820bcd801ba06572a649a01160bad3e62f4acad97556cd7d949e0b739cecf89ae8b931bb88b1a061c853f4e608327ed86055024b0aae19184dcf0ff1be3e586ae5574839194e3b",
      "networkId": 0,
      "chainId": 0
    },
    {
      "hash": "0x8836eb3f83ca730e72f37b1ea9ec9b63d2e6e5f9eefd77559e3a94711f6c5989",
      "blockHash": "0x6c54760bfba28d161aea29e0dfee4fd1b90fec627d6e2745ab1e9499b669898e",
      "blockNumber": 48443,
      "transactionIndex": 2,
      "confirmations": null,
      "from": "0x3F3f46B75cABe37bfacc8760281F4341CA7F463d",
      "gasPrice": {
        "_hex": "0xcfe83c3ac"
      },
      "gasLimit": {
        "_hex": "0x61a8"
      },
      "to": "0xAb5199486803893a6dc1AD1D31612895300BCcA9",
      "value": {
        "_hex": "0x15d4a78fe0a1ae8000"
      },
      "nonce": 1,
      "data": "0x",
      "r": "0xc1b98e57a29cca6180f10714630e75ed9a6147108686a30d2ee8e3227babbb0c",
      "s": "0x24f497b1aecf4225933b0f9f280297f72f29d4f9b35316ed059d2818b67a09a2",
      "v": 27,
      "creates": null,
      "raw": "0xf86d01850cfe83c3ac8261a894ab5199486803893a6dc1ad1d31612895300bcca98915d4a78fe0a1ae8000801ba0c1b98e57a29cca6180f10714630e75ed9a6147108686a30d2ee8e3227babbb0ca024f497b1aecf4225933b0f9f280297f72f29d4f9b35316ed059d2818b67a09a2",
      "networkId": 0,
      "chainId": 0
    }
  ]
}