{
  "hash": "0xabfec0eb8b2d780cadf169e65bb6c96bbd11257df5ae41dbc7ecacb56c5469df",
  "parentHash": "0xd6d972903321a8e8057761fe314ee1862f24677394bbd355ca57bf2f4417db00",
  "number": 48511,
  "timestamp": 1438958345,
  "nonce": "0x934a4125c5da2d6c",
  "difficulty": 1463577747138,
  "gasLimit": {
    "_hex": "0x18849"
  },
  "gasUsed": {
    "_hex": "0x5208"
  },
  "miner": "0x580992B51e3925e23280EfB93d3047C82f17E038",
  "extraData": "0x476574682f76312e302e312f6c696e75782f676f312e342e32",
  "transactions": [
    {
      "hash": "0x82afb26abc8f22cb6e9070403994b6ff1e87a2d1f9c3aa27cbdcbd94ca1a0998",
      "blockHash": "0xabfec0eb8b2d780cadf169e65bb6c96bbd11257df5ae41dbc7ecacb56c5469df",
      "blockNumber": 48511,
      "transactionIndex": 0,
      "confirmations": null,
      "from": "0x54540D4F99b1E80424189E7626cE8f7A1735C0C3",
      "gasPrice": {
        "_hex": "0xd0be18190"
      },
      "gasLimit": {
        "_hex": "0x15f90"
      },
      "to": "0x15674e39f68d518367ECDd22cB73534Cb74bDC28",
      "value": {
        "_hex": "0xde0b6b3a7640000"
      },
      "nonce": 1,
      "data": "0x",
      "r": "0x8068996535efff398442999a481aaac36cfa1ab57d01350c4b357e6a293f9412",
      "s": "0x5dfe65469fa6d01f5f26985a224023c3cdbffbb6e1c48bb9b74d95deea74e49a",
      "v": 27,
      "creates": null,
      "raw": "0xf86d01850d0be1819083015f909415674e39f68d518367ecdd22cb73534cb74bdc28880de0b6b3a7640000801ba08068996535efff398442999a481aaac36cfa1ab57d01350c4b357e6a293f9412a05dfe65469fa6d01f5f26985a224023c3cdbffbb6e1c48bb9b74d95deea74e49a",
      "networkId": 0,
      "chainId": 0
    }
  ]
}