{
  "hash": "0x6703d1e087d3a00a38489402feb7241cbfb4e0f533239cb02f2f115397383b1b",
  "parentHash": "0x94b053def9647198e84dd0f2e25580e8b66fb2b22e53293ae3b00aae18fa95d3",
  "number": 46473,
  "timestamp": 1438923720,
  "nonce": "0x0aae4d072acafc92",
  "difficulty": 1468228520726,
  "gasLimit": {
    "_hex": "0x631f"
  },
  "gasUsed": {
    "_hex": "0x5208"
  },
  "miner": "0xbb7B8287f3F0a933474a79eAe42CBCa977791171",
  "extraData": "0x476574682f4c5649562f76312e302e312f6c696e75782f676f312e342e32",
  "transactions": [
    {
      "hash": "0x976f33abe1f457755ccf6e85626e36ff3c5176db290fd00ad24a4df807650512",
      "blockHash": "0x6703d1e087d3a00a38489402feb7241cbfb4e0f533239cb02f2f115397383b1b",
      "blockNumber": 46473,
      "transactionIndex": 0,
      "confirmations": null,
      "from": "0x81c039692a575005F2f5F26C6F69DbA26a8F6408",
      "gasPrice": {
        "_hex": "0x746a528800"
      },
      "gasLimit": {
        "_hex": "0x5208"
      },
      "to": "0x32Be343B94f860124dC4fEe278FDCBD38C102D88",
      "value": {
        "_hex": "0x453e43d082cfc000"
      },
      "nonce": 0,
      "data": "0x",
      "r": "0xfded481296bc539b3a8af42ba6bfd02f5af280b98a6ef4cfd78cacd77b4163a0",
      "s": "0x465fd8f1c95681a26673dcf61aa1a6bf88b717715e02937aba7ecb5a6e7afdeb",
      "v": 27,
      "creates": null,
      "raw": "0xf86c8085746a5288008252089432be343b94f860124dc4fee278fdcbd38c102d8888453e43d082cfc000801ba0fded481296bc539b3a8af42ba6bfd02f5af280b98a6ef4cfd78cacd77b4163a0a0465fd8f1c95681a26673dcf61aa1a6bf88b717715e02937aba7ecb5a6e7afdeb",
      "networkId": 0,
      "chainId": 0
    }
  ]
}