{
  "hash": "0xd41cd65ee8caa10411dc7677e8f0cda066f3057c26bb454b70a7711efd3a9164",
  "parentHash": "0xe7648435a49315705a509fa3aa785c1ad74c0d053e90700e4d060d756512f2b5",
  "number": 115351,
  "timestamp": 1440055792,
  "nonce": "0xa201c7d6c97aec24",
  "difficulty": 4542788770850,
  "gasLimit": {
    "_hex": "0x2fefd8"
  },
  "gasUsed": {
    "_hex": "0xf618"
  },
  "miner": "0x9D49F602b0fdb924Bd63DDE2Bd0907E4A07c63a7",
  "extraData": "0x476574682f76312e302e312f6c696e75782f676f312e342e32",
  "transactions": [
    {
      "hash": "0xd1223381e90ff7770e14991fb8589117a94deab267ba6643efbae2305b30a021",
      "blockHash": "0xd41cd65ee8caa10411dc7677e8f0cda066f3057c26bb454b70a7711efd3a9164",
      "blockNumber": 115351,
      "transactionIndex": 0,
      "confirmations": null,
      "from": "0x4369BF4867c99a39513Bb176d468A7e326F3a542",
      "gasPrice": {
        "_hex": "0xcdf7953e5"
      },
      "gasLimit": {
        "_hex": "0x5208"
      },
      "to": "0x32Be343B94f860124dC4fEe278FDCBD38C102D88",
      "value": {
        "_hex": "0x2f6c05918f4dc800"
      },
      "nonce": 9,
      "data": "0x",
      "r": "0x67e7ab47853f344b9b6a9b6e1b8bbaefbf7aa853396519ad3eb228a28edf5fab",
      "s": "0x0f2cacd30ad0f41f6ca378ba598208e35900d47f076a49cfde956bc2aade3033",
      "v": 27,
      "creates": null,
      "raw": "0xf86c09850cdf7953e58252089432be343b94f860124dc4fee278fdcbd38c102d88882f6c05918f4dc800801ba067e7ab47853f344b9b6a9b6e1b8bbaefbf7aa853396519ad3eb228a28edf5faba00f2cacd30ad0f41f6ca378ba598208e35900d47f076a49cfde956bc2aade3033",
      "networkId": 0,
      "chainId": 0
    },
    {
      "hash": "0x418cb6e6e73199e38f3aef2c93480a1d2722f40b16890cd219df0b6b7ff0f14a",
      "blockHash": "0xd41cd65ee8caa10411dc7677e8f0cda066f3057c26bb454b70a7711efd3a9164",
      "blockNumber": 115351,
      "transactionIndex": 1,
      "confirmations": null,
      "from": "0x164d6C84C4D54AA3E22A5b2B72cFb968eDe862C5",
      "gasPrice": {
        "_hex": "0xcdf7953e5"
      },
      "gasLimit": {
        "_hex": "0x5208"
      },
      "to": "0x32Be343B94f860124dC4fEe278FDCBD38C102D88",
      "value": {
        "_hex": "0x12197922142fe0000"
      },
      "nonce": 7,
      "data": "0x",
      "r": "0x059858712299760a1c7c83950b3c764b50324d6e996130100905557428eb1a7f",
      "s": "0x5be784f61df0c9631aaa064ba4098897636cf8c4a58d703306cfb7425e870bf2",
      "v": 28,
      "creates": null,
      "raw": "0xf86d07850cdf7953e58252089432be343b94f860124dc4fee278fdcbd38c102d8889012197922142fe0000801ca0059858712299760a1c7c83950b3c764b50324d6e996130100905557428eb1a7fa05be784f61df0c9631aaa064ba4098897636cf8c4a58d703306cfb7425e870bf2",
      "networkId": 0,
      "chainId": 0
    },
    {
      "hash": "0x026ad2ee56f4fa2d6d80fadac2836d818e48959c9e470bb0a06d5a6411cd62e3",
      "blockHash": "0xd41cd65ee8caa10411dc7677e8f0cda066f3057c26bb454b70a7711efd3a9164",
      "blockNumber": 115351,
      "transactionIndex": 2,
      "confirmations": null,
      "from": "0xCCe96724c29e042F35bCe1c2405feB0e8E30082b",
      "gasPrice": {
        "_hex": "0xcdf7953e5"
      },
      "gasLimit": {
        "_hex": "0x5208"
      },
      "to": "0x32Be343B94f860124dC4fEe278FDCBD38C102D88",
      "value": {
        "_hex": "0xafaed6235f882000"
      },
      "nonce": 9,
      "data": "0x",
      "r": "0x972396989909927bad2a4727bd4a686e2c8c3af0c610f8d2bd7243d4250bf183",
      "s": "0x34ed4764867ad596094f0d567a0a61f6181169427ef1b80a448c57ff0eadc6c3",
      "v": 28,
      "creates": null,
      "raw": "0xf86c09850cdf7953e58252089432be343b94f860124dc4fee278fdcbd38c102d8888afaed6235f882000801ca0972396989909927bad2a4727bd4a686e2c8c3af0c610f8d2bd7243d4250bf183a034ed4764867ad596094f0d567a0a61f6181169427ef1b80a448c57ff0eadc6c3",
      "networkId": 0,
      "chainId": 0
    }
  ]
}