{
  "hash": "0x74c6df74b81825501dd64ff2ad62215c0589816f1b5470a9ff98ae5d456e3c1e",
  "parentHash": "0xe8cae17e7f7737321928be0f06880deed8f72bc47e54e1bce0fd6d3e20fbbdcc",
  "number": 101356,
  "timestamp": 1439821651,
  "nonce": "0xb506c0a66615bfdf",
  "difficulty": 3814997003026,
  "gasLimit": {
    "_hex": "0x2fefd8"
  },
  "gasUsed": {
    "_hex": "0xf618"
  },
  "miner": "0x790b8a3cE86E707ED0eD32bF89B3269692a23CC1",
  "extraData": "0xd783010001844765746887676f312e342e32856c696e7578",
  "transactions": [
    {
      "hash": "0x7c5475d3fdf2d33c2525e69a0cad4a1a095d41ace2148cf09171e4c55251c974",
      "blockHash": "0x74c6df74b81825501dd64ff2ad62215c0589816f1b5470a9ff98ae5d456e3c1e",
      "blockNumber": 101356,
      "transactionIndex": 0,
      "confirmations": null,
      "from": "0x32Be343B94f860124dC4fEe278FDCBD38C102D88",
      "gasPrice": {
        "_hex": "0xd8fb8f6f0"
      },
      "gasLimit": {
        "_hex": "0x5208"
      },
      "to": "0x888285790B0b6Cc7FDE84EDdd77A1b2B29089a99",
      "value": {
        "_hex": "0x448586170a7dc0000"
      },
      "nonce": 1078,
      "data": "0x",
      "r": "0x64e371b83ea8b8ae033f15324a11fe5e74f7bcd1f475296cdf9028b8bab2c555",
      "s": "0x048677afa002d966bdc802ec88b2143832b212240e0801f555866a8e84adf8ae",
      "v": 27,
      "creates": null,
      "raw": "0xf86f820436850d8fb8f6f082520894888285790b0b6cc7fde84eddd77a1b2b29089a99890448586170a7dc0000801ba064e371b83ea8b8ae033f15324a11fe5e74f7bcd1f475296cdf9028b8bab2c555a0048677afa002d966bdc802ec88b2143832b212240e0801f555866a8e84adf8ae",
      "networkId": 0,
      "chainId": 0
    },
    {
      "hash": "0x02666501ac4cac739d0bb59a50f8cfcd89955e42cc6ec5b0ed7923ea46169199",
      "blockHash": "0x74c6df74b81825501dd64ff2ad62215c0589816f1b5470a9ff98ae5d456e3c1e",
      "blockNumber": 101356,
      "transactionIndex": 1,
      "confirmations": null,
      "from": "0x4A29dF8a7967b36664f256F18dAcf2e58E9f1E7E",
      "gasPrice": {
        "_hex": "0xd8fb8f6f0"
      },
      "gasLimit": {
        "_hex": "0x5208"
      },
      "to": "0x32Be343B94f860124dC4fEe278FDCBD38C102D88",
      "value": {
        "_hex": "0xddc9cd651db978000"
      },
      "nonce": 3,
      "data": "0x",
      "r": "0xb85e17d4b361e79ee8818534a28be32327d29ce97ded04a934acdaf3b746ad93",
      "s": "0x2f1fecc3ca9614e2572d9911cc3957007f1d3c6e87ed8de8a9a78c77ea0b2707",
      "v": 28,
      "creates": null,
      "raw": "0xf86d03850d8fb8f6f08252089432be343b94f860124dc4fee278fdcbd38c102d88890ddc9cd651db978000801ca0b85e17d4b361e79ee8818534a28be32327d29ce97ded04a934acdaf3b746ad93a02f1fecc3ca9614e2572d9911cc3957007f1d3c6e87ed8de8a9a78c77ea0b2707",
      "networkId": 0,
      "chainId": 0
    },
    {
      "hash": "0x5acbbb634926b84514e4d464557da1d70b1e7d5b55bf55178efba2cf11391947",
      "blockHash": "0x74c6df74b81825501dd64ff2ad62215c0589816f1b5470a9ff98ae5d456e3c1e",
      "blockNumber": 101356,
      "transactionIndex": 2,
      "confirmations": null,
      "from": "0x2910543Af39abA0Cd09dBb2D50200b3E800A63D2",
      "gasPrice": {
        "_hex": "0xd81f14b1d"
      },
      "gasLimit": {
        "_hex": "0x5208"
      },
      "to": "0x5c59E28366c83f1d262567c1c529185146e68b16",
      "value": {
        "_hex": "0x25f261cfc47d8f8000"
      },
      "nonce": 967,
      "data": "0x",
      "r": "0x863caad2b585458a15781d0c2e86060464e5a10e23222785d6620344c8577899",
      "s": "0x2615460b2b7da9aaa4ec5d0c600d534ea0052167af2ff90c3cab603a1be305b2",
      "v": 27,
      "creates": null,
      "raw": "0xf86f8203c7850d81f14b1d825208945c59e28366c83f1d262567c1c529185146e68b168925f261cfc47d8f8000801ba0863caad2b585458a15781d0c2e86060464e5a10e23222785d6620344c8577899a02615460b2b7da9aaa4ec5d0c600d534ea0052167af2ff90c3cab603a1be305b2",
      "networkId": 0,
      "chainId": 0
    }
  ]
}