{
  "hash": "0x0a74eb6eb7d022b6fd2995854c81936f97021e8bbd87485849cc9932e5fe238b",
  "parentHash": "0x9d1acdb55e55717fefa300b5578bada84b0615dddce494f69d0642aa90a4d3a4",
  "number": 85404,
  "timestamp": 1439563098,
  "nonce": "0x8f58dbf9cab08db7",
  "difficulty": 2739659567148,
  "gasLimit": {
    "_hex": "0x2fefd8"
  },
  "gasUsed": {
    "_hex": "0x5208"
  },
  "miner": "0x790b8a3cE86E707ED0eD32bF89B3269692a23CC1",
  "extraData": "0xd783010001844765746887676f312e342e32856c696e7578",
  "transactions": [
    {
      "hash": "0xf4896cb68778287041746a96833d469d7e765ccd613db4bfffc590862f34167b",
      "blockHash": "0x0a74eb6eb7d022b6fd2995854c81936f97021e8bbd87485849cc9932e5fe238b",
      "blockNumber": 85404,
      "transactionIndex": 0,
      "confirmations": null,
      "from": "0x9C581A60b61028D934167929b22D70b313c34fD0",
      "gasPrice": {
        "_hex": "0xcdece7271"
      },
      "gasLimit": {
        "_hex": "0x15f90"
      },
      "to": "0x5fB5E2fC08615c69B0FD8e8f0b68DA93Ec5e326A",
      "value": {
        "_hex": "0x21e19e0c9bab2400000"
      },
      "nonce": 0,
      "data": "0x",
      "r": "0xaab87c4eae18a24edfbceffba98e016fe9d76ce4ecf7aa4fd569d29ca166d65e",
      "s": "0x170fb388438f0170fa3ea9ed142a35d99d5a8a5f42bc42f14a1239b633fe8752",
      "v": 27,
      "creates": null,
      "raw": "0xf86f80850cdece727183015f90945fb5e2fc08615c69b0fd8e8f0b68da93ec5e326a8a021e19e0c9bab2400000801ba0aab87c4eae18a24edfbceffba98e016fe9d76ce4ecf7aa4fd569d29ca166d65ea0170fb388438f0170fa3ea9ed142a35d99d5a8a5f42bc42f14a1239b633fe8752",
      "networkId": 0,
      "chainId": 0
    }
  ]
}