{
  "hash": "0x3119057b3cfa1410ecd1b77d1667d3be2ade088935335d9668c6ce8689583342",
  "parentHash": "0x1b1e6cd7047017e1f27f67f2c505e015c663bcb065a4215a4f01e855401a021a",
  "number": 48314,
  "timestamp": 1438955202,
  "nonce": "0x9e95ca220d0baaa1",
  "difficulty": 1455771993887,
  "gasLimit": {
    "_hex": "0x1559e"
  },
  "gasUsed": {
    "_hex": "0xfae0"
  },
  "miner": "0xF0a3af9e925b07D1FAA4ddF8beBfAA86B7B95e33",
  "extraData": "0x476574682f76312e302e312d38326566323666362f6c696e75782f676f312e34",
  "transactions": [
    {
      "hash": "0x3ca7f4bcd6be0fb93d23d70a329792bd987d10c04a3d9cd895cd2a5ca646b25d",
      "blockHash": "0x3119057b3cfa1410ecd1b77d1667d3be2ade088935335d9668c6ce8689583342",
      "blockNumber": 48314,
      "transactionIndex": 0,
      "confirmations": null,
      "from": "0x6e6C2b675f7c01a51A0Bb3221B8adD9Ebc73786B",
      "gasPrice": {
        "_hex": "0xd6f724f2d"
      },
      "gasLimit": {
        "_hex": "0x7530"
      },
      "to": "0x2910543Af39abA0Cd09dBb2D50200b3E800A63D2",
      "value": {
        "_hex": "0x36a4cf636319c0000"
      },
      "nonce": 0,
      "data": "0x454e3651304d384252",
      "r": "0x03300bb5623deb9eb1e0f9dfd2ec63e6f4021f60b23238c2a48048ccb6039296",
      "s": "0x6cb3551e9381ccfff7d1c34a89447418afa98a9f596c31dbc7c76b164eed89ca",
      "v": 27,
      "creates": null,
      "raw": "0xf87680850d6f724f2d827530942910543af39aba0cd09dbb2d50200b3e800a63d289036a4cf636319c000089454e3651304d3842521ba003300bb5623deb9eb1e0f9dfd2ec63e6f4021f60b23238c2a48048ccb6039296a06cb3551e9381ccfff7d1c34a89447418afa98a9f596c31dbc7c76b164eed89ca",
      "networkId": 0,
      "chainId": 0
    },
    {
      "hash": "0x472e0a3feda14311a3416eb5ca647e81b3684795dbbd2e09ebc4bfd75b80917b",
      "blockHash": "0x3119057b3cfa1410ecd1b77d1667d3be2ade088935335d9668c6ce8689583342",
      "blockNumber": 48314,
      "transactionIndex": 1,
      "confirmations": null,
      "from": "0x8C6AE7a05a1dE57582ae2768204276c0ff47ed03",
      "gasPrice": {
        "_hex": "0xba43b7400"
      },
      "gasLimit": {
        "_hex": "0x55f0"
      },
      "to": "0x2910543Af39abA0Cd09dBb2D50200b3E800A63D2",
      "value": {
        "_hex": "0xde0b6b3a7640000"
      },
      "nonce": 2,
      "data": "0x454e384a5042413747",
      "r": "0x6b01e602ae9d5e2f5405c9f19654bce5c7d52e4be19e500a01fa6b9046518e86",
      "s": "0x2d4503bf62c9cb002500dec0287b2fa7b9007e7d4e3baedd99549566cd44cd11",
      "v": 27,
      "creates": null,
      "raw": "0xf87502850ba43b74008255f0942910543af39aba0cd09dbb2d50200b3e800a63d2880de0b6b3a764000089454e384a50424137471ba06b01e602ae9d5e2f5405c9f19654bce5c7d52e4be19e500a01fa6b9046518e86a02d4503bf62c9cb002500dec0287b2fa7b9007e7d4e3baedd99549566cd44cd11",
      "networkId": 0,
      "chainId": 0
    },
    {
      "hash": "0x0ba5ed53c33a8da56581f6a04225ded5c7dedc5afe758e752b18da4b8aa4512e",
      "blockHash": "0x3119057b3cfa1410ecd1b77d1667d3be2ade088935335d9668c6ce8689583342",
      "blockNumber": 48314,
      "transactionIndex": 2,
      "confirmations": null,
      "from": "0x2A50B1244f9A2e3160173bb3308A855a7395Ba66",
      "gasPrice": {
        "_hex": "0xa7a358200"
      },
      "gasLimit": {
        "_hex": "0x55f0"
      },
      "to": "0x20b2a17fFa355d7Bcb269812A39e8F57D750A5b3",
      "value": {
        "_hex": "0x13bb12179d6960000"
      },
      "nonce": 1,
      "data": "0x",
      "r": "0xf205fc97782204161b1a11d937d0670e2587cba70abc1b7ccd6b9b7f218bbb27",
      "s": "0x2104623e5b64de05b1d505dce6644a1b13f889ced032f0755ea4e8bc8a11e471",
      "v": 28,
      "creates": null,
      "raw": "0xf86d01850a7a3582008255f09420b2a17ffa355d7bcb269812a39e8f57d750a5b389013bb12179d6960000801ca0f205fc97782204161b1a11d937d0670e2587cba70abc1b7ccd6b9b7f218bbb27a02104623e5b64de05b1d505dce6644a1b13f889ced032f0755ea4e8bc8a11e471",
      "networkId": 0,
      "chainId": 0
    }
  ]
}