{
  "hash": "0x7f3d2f5581054112b389b18cafc479fea73024d884a1f2ec01c213b6f6c96158",
  "parentHash": "0x618d8b3658e3df6626462c347e419d7ef71d2a26c9b15a9ce7e28bcbf0be73df",
  "number": 111915,
  "timestamp": 1439998551,
  "nonce": "0x35138725e96345fb",
  "difficulty": 4417749389861,
  "gasLimit": {
    "_hex": "0x2fefd8"
  },
  "gasUsed": {
    "_hex": "0xa410"
  },
  "miner": "0xe6A7a1d47ff21B6321162AEA7C6CB457D5476Bca",
  "extraData": "0x476574682f76312e302e312d38326566323666362f6c696e75782f676f312e34",
  "transactions": [
    {
      "hash": "0x8e6efebac3e955c76606bb3740ff1f85271d0f80584278610b1474391133c2b3",
      "blockHash": "0x7f3d2f5581054112b389b18cafc479fea73024d884a1f2ec01c213b6f6c96158",
      "blockNumber": 111915,
      "transactionIndex": 0,
      "confirmations": null,
      "from": "0x32Be343B94f860124dC4fEe278FDCBD38C102D88",
      "gasPrice": {
        "_hex": "0xd2c11f6c3"
      },
      "gasLimit": {
        "_hex": "0x5208"
      },
      "to": "0xe30cbBc85225cABF434935a66D50462559D900f4",
      "value": {
        "_hex": "0x56b43eadf925f8000"
      },
      "nonce": 1321,
      "data": "0x",
      "r": "0xe2126dc53cd3c23d63c3e9d20d7407443e34dece2cf5e725509bd9efde899944",
      "s": "0x4278178681f422505c8e2e3854d172f229638f60dd42c434af09c8b860167361",
      "v": 27,
      "creates": null,
      "raw": "0xf86f820529850d2c11f6c382520894e30cbbc85225cabf434935a66d50462559d900f489056b43eadf925f8000801ba0e2126dc53cd3c23d63c3e9d20d7407443e34dece2cf5e725509bd9efde899944a04278178681f422505c8e2e3854d172f229638f60dd42c434af09c8b860167361",
      "networkId": 0,
      "chainId": 0
    },
    {
      "hash": "0xdea7eba6e93f367e5be825f2602e54b7e56e62c3b672f510e2814c6e60fa9902",
      "blockHash": "0x7f3d2f5581054112b389b18cafc479fea73024d884a1f2ec01c213b6f6c96158",
      "blockNumber": 111915,
      "transactionIndex": 1,
      "confirmations": null,
      "from": "0xC7424916e75e7Fae1965E19A77bCcdC8181fa4Cd",
      "gasPrice": {
        "_hex": "0xba43b7400"
      },
      "gasLimit": {
        "_hex": "0x5208"
      },
      "to": "0xC47Aaa860008be6f65B58c6C6E02a84e666EfE31",
      "value": {
        "_hex": "0xddcfbbb7a606000"
      },
      "nonce": 0,
      "data": "0x",
      "r": "0xfef62730aeb68327fc1211d03caf6ce8054ef6c9c2116c7b2ef72275e814a123",
      "s": "0x28c58de389745f20d3027db9df0567d56335a2ad8e762cd16e17840cabeae2d6",
      "v": 28,
      "creates": null,
      "raw": "0xf86c80850ba43b740082520894c47aaa860008be6f65b58c6c6e02a84e666efe31880ddcfbbb7a606000801ca0fef62730aeb68327fc1211d03caf6ce8054ef6c9c2116c7b2ef72275e814a123a028c58de389745f20d3027db9df0567d56335a2ad8e762cd16e17840cabeae2d6",
      "networkId": 0,
      "chainId": 0
    }
  ]
}