{
  "hash": "0x29fb791c31e96f3b819a6e68c9df566ee3d59c4cd9b5fc575d0d6874d1aff4b4",
  "parentHash": "0x3d7590917b162b0f9bb06e78e3fd0bad5841a9fad220de3b9190e9587838c9ff",
  "number": 121632,
  "timestamp": 1440180028,
  "nonce": "0x38d33f2f2b0ded3f",
  "difficulty": 4475563113223,
  "gasLimit": {
    "_hex": "0x2fefd8"
  },
  "gasUsed": {
    "_hex": "0x5208"
  },
  "miner": "0x9746c7e1ef2bd21FF3997fa467593a89cb852BD0",
  "extraData": "0x476574682f76312e302e312f77696e646f77732f676f312e342e32",
  "transactions": [
    {
      "hash": "0xc89987279c4b466b4e20a3351e5371ef154028db866c95d040b5b7f64896fca8",
      "blockHash": "0x29fb791c31e96f3b819a6e68c9df566ee3d59c4cd9b5fc575d0d6874d1aff4b4",
      "blockNumber": 121632,
      "transactionIndex": 0,
      "confirmations": null,
      "from": "0x32Be343B94f860124dC4fEe278FDCBD38C102D88",
      "gasPrice": {
        "_hex": "0xba43b7400"
      },
      "gasLimit": {
        "_hex": "0x5208"
      },
      "to": "0x042AA8c3a44b06c680417f01b3e12a6121A58fCF",
      "value": {
        "_hex": "0x8aa39c121a270000"
      },
      "nonce": 1567,
      "data": "0x",
      "r": "0x3811a7fe193bad329e3d28c8b8b3a307634affb7c71aac7f2f74dfe9b15fd350",
      "s": "0x681ea512c1a957795defbf5502936572c361d605489bca85e4d78294d720674f",
      "v": 28,
      "creates": null,
      "raw": "0xf86e82061f850ba43b740082520894042aa8c3a44b06c680417f01b3e12a6121a58fcf888aa39c121a270000801ca03811a7fe193bad329e3d28c8b8b3a307634affb7c71aac7f2f74dfe9b15fd350a0681ea512c1a957795defbf5502936572c361d605489bca85e4d78294d720674f",
      "networkId": 0,
      "chainId": 0
    }
  ]
}