{
  "hash": "0x64593b7f958fe6f577476a7b277d57cc34e918477a0c2996ec0bef69caf9cfee",
  "parentHash": "0xc671554e1968f4a587d214539d1196bf1d923da8dd5636d616a794d631b2b57b",
  "number": 87310,
  "timestamp": 1439590286,
  "nonce": "0x196398afc1a1f97e",
  "difficulty": 3097679673847,
  "gasLimit": {
    "_hex": "0x2fefd8"
  },
  "gasUsed": {
    "_hex": "0x5208"
  },
  "miner": "0x9D49F602b0fdb924Bd63DDE2Bd0907E4A07c63a7",
  "extraData": "0x476574682f76312e302e312f6c696e75782f676f312e342e32",
  "transactions": [
    {
      "hash": "0x9a040c1ae69d221e5bf452d4383e2237d3f4abe577500c18c98e8dcc7a522855",
      "blockHash": "0x64593b7f958fe6f577476a7b277d57cc34e918477a0c2996ec0bef69caf9cfee",
      "blockNumber": 87310,
      "transactionIndex": 0,
      "confirmations": null,
      "from": "0x02020D22dCF88f5eDd66B382D7da019F161fB7e3",
      "gasPrice": {
        "_hex": "0xcd6f742a3"
      },
      "gasLimit": {
        "_hex": "0x15f90"
      },
      "to": "0x4FCD326ae0739D0DA0fC71020adb6aBf9abf3BdA",
      "value": {
        "_hex": "0xffdf28905e43c0000"
      },
      "nonce": 14,
      "data": "0x",
      "r": "0x61aff49e2f80f97cc5281313cd9e7f245eb10a08e6a64cecf1fc5923c398604e",
      "s": "0x5690a5a026e2f8f42e03f4193d31a291c6135784eb44f273443e5309d89522b5",
      "v": 27,
      "creates": null,
      "raw": "0xf86e0e850cd6f742a383015f90944fcd326ae0739d0da0fc71020adb6abf9abf3bda890ffdf28905e43c0000801ba061aff49e2f80f97cc5281313cd9e7f245eb10a08e6a64cecf1fc5923c398604ea05690a5a026e2f8f42e03f4193d31a291c6135784eb44f273443e5309d89522b5",
      "networkId": 0,
      "chainId": 0
    }
  ]
}