{
  "hash": "0xc69238cc4dfbf3f84de86e25e420e4b94acab0b6b797d10791f62d37cf12b13e",
  "parentHash": "0xe65446491a274b9d77fe934d88da7a1e01c5e2b69f58265a2889a3d8724e1a31",
  "number": 97002,
  "timestamp": 1439749263,
  "nonce": "0x533827030e2d6ab1",
  "difficulty": 3750468592112,
  "gasLimit": {
    "_hex": "0x2fefd8"
  },
  "gasUsed": {
    "_hex": "0x5208"
  },
  "miner": "0xfC25864D8326b4CB335C6942218e5F4Ee8D1E1EF",
  "extraData": "0x476574682f76312e302e312f77696e646f77732f676f312e342e32",
  "transactions": [
    {
      "hash": "0x81eaceb3676c4e46c05f08573f4f827012bb43477b7fa4e25a852e03a20172eb",
      "blockHash": "0xc69238cc4dfbf3f84de86e25e420e4b94acab0b6b797d10791f62d37cf12b13e",
      "blockNumber": 97002,
      "transactionIndex": 0,
      "confirmations": null,
      "from": "0x29Ab575850dCEf127cd8D646fB3c208b3860C2F0",
      "gasPrice": {
        "_hex": "0xda694644d"
      },
      "gasLimit": {
        "_hex": "0x15f90"
      },
      "to": "0xA10CDF70bc138605c39F8651A78485Fe4F1C3811",
      "value": {
        "_hex": "0x4563918244f40000"
      },
      "nonce": 7,
      "data": "0x",
      "r": "0xe52f3f91dfe2565885c63287d250064ee5668872df5d4fc2c89bcb363b784575",
      "s": "0x505b3194261ad3c6a6f79d33cfe0fb86c8571bd06c55291afef85db898ee8d0f",
      "v": 28,
      "creates": null,
      "raw": "0xf86d07850da694644d83015f9094a10cdf70bc138605c39f8651a78485fe4f1c3811884563918244f40000801ca0e52f3f91dfe2565885c63287d250064ee5668872df5d4fc2c89bcb363b784575a0505b3194261ad3c6a6f79d33cfe0fb86c8571bd06c55291afef85db898ee8d0f",
      "networkId": 0,
      "chainId": 0
    }
  ]
}