{
  "hash": "0xa2db9bd54741a4c6ed1d360b049176ed2120940778774fa993fa4faf8083a187",
  "parentHash": "0x471df580de74b698db64143f8c75b663b6040de6fda5f5bb4bda8f98a5e915d4",
  "number": 115409,
  "timestamp": 1440056758,
  "nonce": "0x638deba8883d5ad2",
  "difficulty": 4569453216648,
  "gasLimit": {
    "_hex": "0x2fefd8"
  },
  "gasUsed": {
    "_hex": "0x14820"
  },
  "miner": "0x88D74a59454F6cF3B51ef6b9136AFb6b9D405A88",
  "extraData": "0x",
  "transactions": [
    {
      "hash": "0xc1c0e7d986ea7bb7794812003de662066bcc8168baa4289f2313ecdd7a2ad247",
      "blockHash": "0xa2db9bd54741a4c6ed1d360b049176ed2120940778774fa993fa4faf8083a187",
      "blockNumber": 115409,
      "transactionIndex": 0,
      "confirmations": null,
      "from": "0xDdaCBcba2a4fe9313F7CCA044872A9c51bD1E4c8",
      "gasPrice": {
        "_hex": "0xd68a8eb2e"
      },
      "gasLimit": {
        "_hex": "0x5208"
      },
      "to": "0x32Be343B94f860124dC4fEe278FDCBD38C102D88",
      "value": {
        "_hex": "0x2cc3fcd506d0fc00"
      },
      "nonce": 6,
      "data": "0x",
      "r": "0x60d0d8caf6c62ab75502b498ba2dcf7680b8b7e0044f002e1a655bec838ae3e2",
      "s": "0x1acb141f82294d796be59dc596a41c04dff597edc204b678b1e1102dcb714c6e",
      "v": 27,
      "creates": null,
      "raw": "0xf86c06850d68a8eb2e8252089432be343b94f860124dc4fee278fdcbd38c102d88882cc3fcd506d0fc00801ba060d0d8caf6c62ab75502b498ba2dcf7680b8b7e0044f002e1a655bec838ae3e2a01acb141f82294d796be59dc596a41c04dff597edc204b678b1e1102dcb714c6e",
      "networkId": 0,
      "chainId": 0
    },
    {
      "hash": "0x4096ab7de2e413f27a03ceb7c09cabbe16c512681b9e89e9145d20ac79e7128d",
      "blockHash": "0xa2db9bd54741a4c6ed1d360b049176ed2120940778774fa993fa4faf8083a187",
      "blockNumber": 115409,
      "transactionIndex": 1,
      "confirmations": null,
      "from": "0x5BB33B0e16f8a05C5124c33418922C5b1Be8F810",
      "gasPrice": {
        "_hex": "0xd68a8eb2e"
      },
      "gasLimit": {
        "_hex": "0x5208"
      },
      "to": "0x32Be343B94f860124dC4fEe278FDCBD38C102D88",
      "value": {
        "_hex": "0xff55ae5ffe15d800"
      },
      "nonce": 5,
      "data": "0x",
      "r": "0x98df738a584f7f206bb5c69688457d383e53177c693e067cc4e6e9b86634f8e8",
      "s": "0x608eb3d5af2fed61fcb6e0f2c75d3f88d71a20eccfdf9862b201469eb53236d1",
      "v": 28,
      "creates": null,
      "raw": "0xf86c05850d68a8eb2e8252089432be343b94f860124dc4fee278fdcbd38c102d8888ff55ae5ffe15d800801ca098df738a584f7f206bb5c69688457d383e53177c693e067cc4e6e9b86634f8e8a0608eb3d5af2fed61fcb6e0f2c75d3f88d71a20eccfdf9862b201469eb53236d1",
      "networkId": 0,
      "chainId": 0
    },
    {
      "hash": "0x32a4ef60eabe68aaaf58eecc83ac2efdc8745df9cf2ba379ff548d763a8f8b04",
      "blockHash": "0xa2db9bd54741a4c6ed1d360b049176ed2120940778774fa993fa4faf8083a187",
      "blockNumber": 115409,
      "transactionIndex": 2,
      "confirmations": null,
      "from": "0xfe8635C30D5b0a49D09Fc9480d59e05d7450fd41",
      "gasPrice": {
        "_hex": "0xd68a8eb2e"
      },
      "gasLimit": {
        "_hex": "0x5208"
      },
      "to": "0x32Be343B94f860124dC4fEe278FDCBD38C102D88",
      "value": {
        "_hex": "0x1faa9479e6c1ed000"
      },
      "nonce": 9,
      "data": "0x",
      "r": "0xbc058cebbf5a441c8f687af9a0b90dd9d25bd25b8dd920d4c1351c8b65067451",
      "s": "0x2b6359470c3542a3b417c7fefe3e85e7bdc4d23f0eacbe4fe72d15c0a7af1ef3",
      "v": 27,
      "creates": null,
      "raw": "0xf86d09850d68a8eb2e8252089432be343b94f860124dc4fee278fdcbd38c102d888901faa9479e6c1ed000801ba0bc058cebbf5a441c8f687af9a0b90dd9d25bd25b8dd920d4c1351c8b65067451a02b6359470c3542a3b417c7fefe3e85e7bdc4d23f0eacbe4fe72d15c0a7af1ef3",
      "networkId": 0,
      "chainId": 0
    },
    {
      "hash": "0x4df6f7a9c1a1d555e39ad0dbad4736990cbbf5178cef4f8ed4ac6cfd95ce8fdc",
      "blockHash": "0xa2db9bd54741a4c6ed1d360b049176ed2120940778774fa993fa4faf8083a187",
      "blockNumber": 115409,
      "transactionIndex": 3,
      "confirmations": null,
      "from": "0xeC06c233d618b41076FbfF739Efb85a4999F89Da",
      "gasPrice": {
        "_hex": "0xd68a8eb2e"
      },
      "gasLimit": {
        "_hex": "0x5208"
      },
      "to": "0x32Be343B94f860124dC4fEe278FDCBD38C102D88",
      "value": {
        "_hex": "0xf3fb03aa389d000"
      },
      "nonce": 7,
      "data": "0x",
      "r": "0x2c18b949161112b69f43aa51de16940861eb3825c76ea00b5e1968d874b9f1aa",
      "s": "0x769d27638d8f36758de775fa03c3ab71a84fa099ad3a8f0a90fa4b3f3ac5837d",
      "v": 27,
      "creates": null,
      "raw": "0xf86c07850d68a8eb2e8252089432be343b94f860124dc4fee278fdcbd38c102d88880f3fb03aa389d000801ba02c18b949161112b69f43aa51de16940861eb3825c76ea00b5e1968d874b9f1aaa0769d27638d8f36758de775fa03c3ab71a84fa099ad3a8f0a90fa4b3f3ac5837d",
      "networkId": 0,
      "chainId": 0
    }
  ]
}