{
  "hash": "0x1eb85c66c567a8830b91a66f6a74c8597822e3558b298c0d80f730ee9df0b7a4",
  "parentHash": "0x36b64e428b7b9a6c89a0ecd1b9c78b2ee35e8745f1bade6771273ac1b83aa8f3",
  "number": 87816,
  "timestamp": 1439597908,
  "nonce": "0xbe1c3acc5244da1e",
  "difficulty": 3174045900631,
  "gasLimit": {
    "_hex": "0x2fefd8"
  },
  "gasUsed": {
    "_hex": "0xa410"
  },
  "miner": "0x6DE55b563cE6E319cCB403032Da3BE5Ad4ec4FcF",
  "extraData": "0x",
  "transactions": [
    {
      "hash": "0xc82b4d3f42fbac90ea459b8f1ddb1f79a2d490c461165e9e4aa61237daef1070",
      "blockHash": "0x1eb85c66c567a8830b91a66f6a74c8597822e3558b298c0d80f730ee9df0b7a4",
      "blockNumber": 87816,
      "transactionIndex": 0,
      "confirmations": null,
      "from": "0xa70a9a7040d542C632D8e0bE7c5513A8a5Bbc752",
      "gasPrice": {
        "_hex": "0xdc23b67e2"
      },
      "gasLimit": {
        "_hex": "0x5208"
      },
      "to": "0x32Be343B94f860124dC4fEe278FDCBD38C102D88",
      "value": {
        "_hex": "0x455f28dcc0f90000"
      },
      "nonce": 103,
      "data": "0x",
      "r": "0x3c6ed0e0473f32cff55d937b196a3e476ef3614a3fe998287fb130752f324c8b",
      "s": "0x289793c1b777dae727a9bca2fcba5b1310095cd91d407ed3a3227586691ce9c1",
      "v": 27,
      "creates": null,
      "raw": "0xf86c67850dc23b67e28252089432be343b94f860124dc4fee278fdcbd38c102d8888455f28dcc0f90000801ba03c6ed0e0473f32cff55d937b196a3e476ef3614a3fe998287fb130752f324c8ba0289793c1b777dae727a9bca2fcba5b1310095cd91d407ed3a3227586691ce9c1",
      "networkId": 0,
      "chainId": 0
    },
    {
      "hash": "0x5c9b9d105d40f33e4112f436a0c7ba15117fba1ca7890fd038e423ca2e3cb3a4",
      "blockHash": "0x1eb85c66c567a8830b91a66f6a74c8597822e3558b298c0d80f730ee9df0b7a4",
      "blockNumber": 87816,
      "transactionIndex": 1,
      "confirmations": null,
      "from": "0x32Be343B94f860124dC4fEe278FDCBD38C102D88",
      "gasPrice": {
        "_hex": "0xd7b2083d9"
      },
      "gasLimit": {
        "_hex": "0x5208"
      },
      "to": "0xCD8C2959c5781245a5DcD72CFfAb01004d804Aa7",
      "value": {
        "_hex": "0x2ab20b53cd2dec000"
      },
      "nonce": 801,
      "data": "0x",
      "r": "0x043ed66120e9505cab9dd71116edbe6f8589774b7e68572cbd670d04d61b4010",
      "s": "0x10e1079044c32c1a561002a675d747e1531009e11462954c52c6ea3c9252e504",
      "v": 28,
      "creates": null,
      "raw": "0xf86f820321850d7b2083d982520894cd8c2959c5781245a5dcd72cffab01004d804aa78902ab20b53cd2dec000801ca0043ed66120e9505cab9dd71116edbe6f8589774b7e68572cbd670d04d61b4010a010e1079044c32c1a561002a675d747e1531009e11462954c52c6ea3c9252e504",
      "networkId": 0,
      "chainId": 0
    }
  ]
}