{
  "hash": "0x9bd29a814256d06f5d8ae7ddae6964046bc7135618d5511e67ae6f76d1ccb47d",
  "parentHash": "0x5a7b6c63e4385ce05e9f219bf3c8842d736528c8978acd736bf63a02a5531f01",
  "number": 113386,
  "timestamp": 1440022603,
  "nonce": "0xfc20c61ecb3513f0",
  "difficulty": 4475591924039,
  "gasLimit": {
    "_hex": "0x2fefd8"
  },
  "gasUsed": {
    "_hex": "0x5208"
  },
  "miner": "0xe6A7a1d47ff21B6321162AEA7C6CB457D5476Bca",
  "extraData": "0x476574682f76312e302e312d38326566323666362f6c696e75782f676f312e34",
  "transactions": [
    {
      "hash": "0x72f2343633447a2c1531a3b2856a432c0dcd3b4322976353b419d173e807d021",
      "blockHash": "0x9bd29a814256d06f5d8ae7ddae6964046bc7135618d5511e67ae6f76d1ccb47d",
      "blockNumber": 113386,
      "transactionIndex": 0,
      "confirmations": null,
      "from": "0xc7704Fc5c51C7a5f1a6574b0014b58C8915BA55C",
      "gasPrice": {
        "_hex": "0xdc0e8a9fe"
      },
      "gasLimit": {
        "_hex": "0x5208"
      },
      "to": "0x32Be343B94f860124dC4fEe278FDCBD38C102D88",
      "value": {
        "_hex": "0x612a2576218b4000"
      },
      "nonce": 9,
      "data": "0x",
      "r": "0x02785748a1a461936b39a9847a05b3e51f144e9b02090cf8a312e1037f6aab95",
      "s": "0x2208deb9ec46c24d9798832b59cfbcf80d060721a78c960e402b975a05150517",
      "v": 28,
      "creates": null,
      "raw": "0xf86c09850dc0e8a9fe8252089432be343b94f860124dc4fee278fdcbd38c102d8888612a2576218b4000801ca002785748a1a461936b39a9847a05b3e51f144e9b02090cf8a312e1037f6aab95a02208deb9ec46c24d9798832b59cfbcf80d060721a78c960e402b975a05150517",
      "networkId": 0,
      "chainId": 0
    }
  ]
}