{
  "hash": "0x3c7558734c30be20c913e201f9758612e568c6ba86ec1697f61e3c09a88d46b8",
  "parentHash": "0x994d2aff3d925835ebec7f552e112f3a79b0fff58b4db1cc9576a5738cde471b",
  "number": 88765,
  "timestamp": 1439613072,
  "nonce": "0xce66480b7a21dd2b",
  "difficulty": 3247362649305,
  "gasLimit": {
    "_hex": "0x2fefd8"
  },
  "gasUsed": {
    "_hex": "0x5208"
  },
  "miner": "0xe6A7a1d47ff21B6321162AEA7C6CB457D5476Bca",
  "extraData": "0x476574682f76312e302e312d38326566323666362f6c696e75782f676f312e34",
  "transactions": [
    {
      "hash": "0xb01e12128142e493685f36b324f23afce60c18900e4779e81df1de4217cc935f",
      "blockHash": "0x3c7558734c30be20c913e201f9758612e568c6ba86ec1697f61e3c09a88d46b8",
      "blockNumber": 88765,
      "transactionIndex": 0,
      "confirmations": null,
      "from": "0x289B9bA6dC9c12D3130F1115180397C20cCBF220",
      "gasPrice": {
        "_hex": "0xba43b7400"
      },
      "gasLimit": {
        "_hex": "0x5208"
      },
      "to": "0xC47Aaa860008be6f65B58c6C6E02a84e666EfE31",
      "value": {
        "_hex": "0x1285e79d2e27e703b60"
      },
      "nonce": 4,
      "data": "0x",
      "r": "0x4d5bd03eaf6f42e451c8a1a383cdf351fa1710bc1ed5a3bc20cf72b0c4b225c0",
      "s": "0x5f5372d580da28fe36ee472a5a229a839cc671ee3c5b5c3e8d252047c15f1fe8",
      "v": 28,
      "creates": null,
      "raw": "0xf86e04850ba43b740082520894c47aaa860008be6f65b58c6c6e02a84e666efe318a01285e79d2e27e703b60801ca04d5bd03eaf6f42e451c8a1a383cdf351fa1710bc1ed5a3bc20cf72b0c4b225c0a05f5372d580da28fe36ee472a5a229a839cc671ee3c5b5c3e8d252047c15f1fe8",
      "networkId": 0,
      "chainId": 0
    }
  ]
}