{
  "hash": "0x2f9049e82b1bd521b90dafc3b64376e8539c9eca8c74df1b982ee86b65c91b14",
  "parentHash": "0xe9512b54629de804a5c466c3f445020ff97b86546890fd6ff9df8d2217bc8a92",
  "number": 81311,
  "timestamp": 1439499676,
  "nonce": "0x763a06aa9a7f5b73",
  "difficulty": 2446239752237,
  "gasLimit": {
    "_hex": "0x2fefd8"
  },
  "gasUsed": {
    "_hex": "0x5428"
  },
  "miner": "0x55bAf64fc9eAccFFd7Cc643BB61142E1C6ac093e",
  "extraData": "0x",
  "transactions": [
    {
      "hash": "0xd1f3f7556f60046041086e875f507551a97063ec2d811b01344229c44ad94e62",
      "blockHash": "0x2f9049e82b1bd521b90dafc3b64376e8539c9eca8c74df1b982ee86b65c91b14",
      "blockNumber": 81311,
      "transactionIndex": 0,
      "confirmations": null,
      "from": "0xd76d80cF095d7Bf29c0d1EA9FC3CD26ed07e7f93",
      "gasPrice": {
        "_hex": "0x10c89be0a7e"
      },
      "gasLimit": {
        "_hex": "0x55f0"
      },
      "to": "0xa61e151af0007B7406d969Dce51740caf0D69088",
      "value": {
        "_hex": "0x2386f26fc10000"
      },
      "nonce": 1,
      "data": "0x454e374242585858",
      "r": "0xb645ce8c745279bec6992b7dd6fbbca451df0047dd4b0b6acabfc99ed5dd21d0",
      "s": "0x3c954c53b6a98e1b9dadf1b374649916c9aff6731fc117f41c15e8db8be49933",
      "v": 27,
      "creates": null,
      "raw": "0xf8740186010c89be0a7e8255f094a61e151af0007b7406d969dce51740caf0d69088872386f26fc1000088454e3742425858581ba0b645ce8c745279bec6992b7dd6fbbca451df0047dd4b0b6acabfc99ed5dd21d0a03c954c53b6a98e1b9dadf1b374649916c9aff6731fc117f41c15e8db8be49933",
      "networkId": 0,
      "chainId": 0
    }
  ]
}