{
  "hash": "0xdfa4d84c253e8cad96909c446f1c21195703d3727e989304ab38eafb4379f8dd",
  "parentHash": "0x0909d5a2331e608f8ed0c26bb48be4a54eff73adbb42ece32fe09e40ab347dc1",
  "number": 108178,
  "timestamp": 1439935627,
  "nonce": "0x010a04f34c47fb08",
  "difficulty": 4366094190572,
  "gasLimit": {
    "_hex": "0x2fefd8"
  },
  "gasUsed": {
    "_hex": "0xf618"
  },
  "miner": "0x790b8a3cE86E707ED0eD32bF89B3269692a23CC1",
  "extraData": "0xd783010001844765746887676f312e342e32856c696e7578",
  "transactions": [
    {
      "hash": "0x8340309b211eabecc509d8decf9c7bbaac794c87afd235ace2e3b20557780f03",
      "blockHash": "0xdfa4d84c253e8cad96909c446f1c21195703d3727e989304ab38eafb4379f8dd",
      "blockNumber": 108178,
      "transactionIndex": 0,
      "confirmations": null,
      "from": "0x7313946aA53dCDd777C90905D75A9B41e17Ca2c9",
      "gasPrice": {
        "_hex": "0xdcb9e5faa"
      },
      "gasLimit": {
        "_hex": "0x5208"
      },
      "to": "0x32Be343B94f860124dC4fEe278FDCBD38C102D88",
      "value": {
        "_hex": "0x1bbd01bf1f6d3400"
      },
      "nonce": 7,
      "data": "0x",
      "r": "0xef53d5d6d251d7cffecb462385a9d4e1b180f81fa4fce146cd1cb0486dd4acd3",
      "s": "0x219fac24c54fcfc558cedab8ad5def92f591c14115041e1ce74fb9a8093f1747",
      "v": 27,
      "creates": null,
      "raw": "0xf86c07850dcb9e5faa8252089432be343b94f860124dc4fee278fdcbd38c102d88881bbd01bf1f6d3400801ba0ef53d5d6d251d7cffecb462385a9d4e1b180f81fa4fce146cd1cb0486dd4acd3a0219fac24c54fcfc558cedab8ad5def92f591c14115041e1ce74fb9a8093f1747",
      "networkId": 0,
      "chainId": 0
    },
    {
      "hash": "0xb6e2f3e9ee3a66f68e9e8502efeca89befd1cae22ffa20c3ec0fe12c3c0b9c30",
      "blockHash": "0xdfa4d84c253e8cad96909c446f1c21195703d3727e989304ab38eafb4379f8dd",
      "blockNumber": 108178,
      "transactionIndex": 1,
      "confirmations": null,
      "from": "0x7fa165177F28D171bA7C17f765c1904344Ec64CB",
      "gasPrice": {
        "_hex": "0xdcb9e5faa"
      },
      "gasLimit": {
        "_hex": "0x5208"
      },
      "to": "0x32Be343B94f860124dC4fEe278FDCBD38C102D88",
      "value": {
        "_hex": "0xd0263e74b6527000"
      },
      "nonce": 24,
      "data": "0x",
      "r": "0xca86547471399450a4b8b8ecf75fae7c3b52a521538e76abee7dfdc8eb33d2c4",
      "s": "0x36f69e9dea519387b646edabbf2dcbce9fe8bd1b4022bf6718fa6ac6aa3a6f05",
      "v": 28,
      "creates": null,
      "raw": "0xf86c18850dcb9e5faa8252089432be343b94f860124dc4fee278fdcbd38c102d8888d0263e74b6527000801ca0ca86547471399450a4b8b8ecf75fae7c3b52a521538e76abee7dfdc8eb33d2c4a036f69e9dea519387b646edabbf2dcbce9fe8bd1b4022bf6718fa6ac6aa3a6f05",
      "networkId": 0,
      "chainId": 0
    },
    {
      "hash": "0x1b6aaa8f82fe5573e60aec667b2f0df4ed1e21040f7f436b2ef7e15d37d7d8ea",
      "blockHash": "0xdfa4d84c253e8cad96909c446f1c21195703d3727e989304ab38eafb4379f8dd",
      "blockNumber": 108178,
      "transactionIndex": 2,
      "confirmations": null,
      "from": "0x120A270bbC009644e35F0bB6ab13f95b8199c4ad",
      "gasPrice": {
        "_hex": "0xd90a7032d"
      },
      "gasLimit": {
        "_hex": "0x3d090"
      },
      "to": "0x9eE2bcfE9d322cFD264b1aa913ff9e2Ca905C204",
      "value": {
        "_hex": "0x27b9470a29dfc7fc00"
      },
      "nonce": 829,
      "data": "0x",
      "r": "0x92352a838412534522f2e956b9f3b432aa522a5ee675569296839f7ad41a8f83",
      "s": "0x1a04eb05ced26b22128845452f1fe7e6cfb71c760f8474c6ca9e665ed31cccfa",
      "v": 28,
      "creates": null,
      "raw": "0xf87082033d850d90a7032d8303d090949ee2bcfe9d322cfd264b1aa913ff9e2ca905c2048927b9470a29dfc7fc00801ca092352a838412534522f2e956b9f3b432aa522a5ee675569296839f7ad41a8f83a01a04eb05ced26b22128845452f1fe7e6cfb71c760f8474c6ca9e665ed31cccfa",
      "networkId": 0,
      "chainId": 0
    }
  ]
}