{
  "hash": "0x94381a66c5df8ca3e5a9fe0ada41ce2b88fcfa4533de9a50521dc7d1541ce727",
  "parentHash": "0xf4c0843086bfc74b8d427feef3c56a63b7299f06cad8f78486ff336b1b043089",
  "number": 61830,
  "timestamp": 1439178881,
  "nonce": "0x7084922dd8207a2b",
  "difficulty": 1736131732242,
  "gasLimit": {
    "_hex": "0x2fefd8"
  },
  "gasUsed": {
    "_hex": "0x5208"
  },
  "miner": "0x157c6f2431eB1a95797EE86F7d17b3c0FD47A247",
  "extraData": "0x476574682f76312e302e312f77696e646f77732f676f312e342e32",
  "transactions": [
    {
      "hash": "0x926f165e62441b89be0b31f8d0fcfa1a9b29483895bb84e198eb88a8844d58b2",
      "blockHash": "0x94381a66c5df8ca3e5a9fe0ada41ce2b88fcfa4533de9a50521dc7d1541ce727",
      "blockNumber": 61830,
      "transactionIndex": 0,
      "confirmations": null,
      "from": "0x32Be343B94f860124dC4fEe278FDCBD38C102D88",
      "gasPrice": {
        "_hex": "0xd317a2cfb"
      },
      "gasLimit": {
        "_hex": "0x5208"
      },
      "to": "0x30122a23aeCAA956728e17B60d55B5552C5f5573",
      "value": {
        "_hex": "0x4563918244f40000"
      },
      "nonce": 143,
      "data": "0x",
      "r": "0x26f29ab57be0ea47f567eac59aa63d83b9d856c288b2d2f0fd4221545900db89",
      "s": "0x2d2be2ef78cbac7fa763ca4efe70dfd650e0514f512842533fcb31d4c36209d8",
      "v": 27,
      "creates": null,
      "raw": "0xf86d818f850d317a2cfb8252089430122a23aecaa956728e17b60d55b5552c5f5573884563918244f40000801ba026f29ab57be0ea47f567eac59aa63d83b9d856c288b2d2f0fd4221545900db89a02d2be2ef78cbac7fa763ca4efe70dfd650e0514f512842533fcb31d4c36209d8",
      "networkId": 0,
      "chainId": 0
    }
  ]
}