{
  "hash": "0xbb1f62cc9328bc0f851b561fa9bcf20dc9fb82e431b02127b60baeea3ea1b9e0",
  "parentHash": "0xcbf71d2379b3547385fda2ed0ab7aa8d422295c9cfc35fe4e45b573cd495353b",
  "number": 99063,
  "timestamp": 1439783698,
  "nonce": "0x361e4d5fdd349db0",
  "difficulty": 3825367849797,
  "gasLimit": {
    "_hex": "0x2fefd8"
  },
  "gasUsed": {
    "_hex": "0x5208"
  },
  "miner": "0x580992B51e3925e23280EfB93d3047C82f17E038",
  "extraData": "0x476574682f76312e302e312f6c696e75782f676f312e342e32",
  "transactions": [
    {
      "hash": "0x5b7f05028c84c97cf157df9da3f4c3b6038451f9a6f81e59a2bdabc953ee6598",
      "blockHash": "0xbb1f62cc9328bc0f851b561fa9bcf20dc9fb82e431b02127b60baeea3ea1b9e0",
      "blockNumber": 99063,
      "transactionIndex": 0,
      "confirmations": null,
      "from": "0x007f7f58D3eb5b7510A301eCC749FC1fCDDBE14D",
      "gasPrice": {
        "_hex": "0xe0cfe7246"
      },
      "gasLimit": {
        "_hex": "0x15f90"
      },
      "to": "0xb1abce2918E21ddb93AA452731a12672A3d9F75a",
      "value": {
        "_hex": "0x4563918244f40000"
      },
      "nonce": 145,
      "data": "0x",
      "r": "0x338a17393d2665948adc81282c68d810f5c077a170485b644ae127ce155aedd0",
      "s": "0x12dab42b9a29da9edc8a129b12bee51ec0c5cd4ac4de5197a67e03c98252050d",
      "v": 28,
      "creates": null,
      "raw": "0xf86e8191850e0cfe724683015f9094b1abce2918e21ddb93aa452731a12672a3d9f75a884563918244f40000801ca0338a17393d2665948adc81282c68d810f5c077a170485b644ae127ce155aedd0a012dab42b9a29da9edc8a129b12bee51ec0c5cd4ac4de5197a67e03c98252050d",
      "networkId": 0,
      "chainId": 0
    }
  ]
}