{
  "hash": "0x2671e059ab0e5bd7ebe941e2a3f473df6173ce8642e39e706f57605d99367c1b",
  "parentHash": "0x9e2c7bc255998a0793b5cee18025c22ed381cbf00b8fdfe6cc4927214b1fd6be",
  "number": 83339,
  "timestamp": 1439533856,
  "nonce": "0x4d0836d11446ac7a",
  "difficulty": 2419517416784,
  "gasLimit": {
    "_hex": "0x2fefd8"
  },
  "gasUsed": {
    "_hex": "0x5208"
  },
  "miner": "0x1217627fe41A00f0b828317F43E6d58F47dBfc43",
  "extraData": "0x476574682f76312e302e302d66313265303136312f6c696e75782f676f312e34",
  "transactions": [
    {
      "hash": "0x1352be36f0f78a93a5a7d85fb837449a4ea1e7fefd32930ed3268bcb4b1ed8f0",
      "blockHash": "0x2671e059ab0e5bd7ebe941e2a3f473df6173ce8642e39e706f57605d99367c1b",
      "blockNumber": 83339,
      "transactionIndex": 0,
      "confirmations": null,
      "from": "0xeB1325C8D9d3ea8D74aC11F4B00F1B2367686319",
      "gasPrice": {
        "_hex": "0xd8364fc25"
      },
      "gasLimit": {
        "_hex": "0x15f90"
      },
      "to": "0x3010cacF5965f60685011055570972e92B4479aB",
      "value": {
        "_hex": "0x1b1ae4d6e2ef500000"
      },
      "nonce": 6,
      "data": "0x",
      "r": "0x1c041d6ea2dc9deb695a7979dfdffba65a021bcd2dd6349da9a8f14d05b7df88",
      "s": "0x32d6e0ce43ce1d08f428f89d2726171a115f7d3642dee1d47567355c282569a6",
      "v": 27,
      "creates": null,
      "raw": "0xf86e06850d8364fc2583015f90943010cacf5965f60685011055570972e92b4479ab891b1ae4d6e2ef500000801ba01c041d6ea2dc9deb695a7979dfdffba65a021bcd2dd6349da9a8f14d05b7df88a032d6e0ce43ce1d08f428f89d2726171a115f7d3642dee1d47567355c282569a6",
      "networkId": 0,
      "chainId": 0
    }
  ]
}