{
  "hash": "0xcb76563283f341660ecca78fb5e6102fced06512c42d574d7db69e4aaf48d447",
  "parentHash": "0x1f7cf84bf7f952cfbb6fc991bed31af84714fd0186825638579bbf48cb262db4",
  "number": 46451,
  "timestamp": 1438923324,
  "nonce": "0x953b09e172ae17ac",
  "difficulty": 1469666892437,
  "gasLimit": {
    "_hex": "0x6173"
  },
  "gasUsed": {
    "_hex": "0x5208"
  },
  "miner": "0xe6A7a1d47ff21B6321162AEA7C6CB457D5476Bca",
  "extraData": "0x657468706f6f6c2e6f7267",
  "transactions": [
    {
      "hash": "0x2d718a798b84d49da5bb6b775a6c214a5e64b88d2e9fe684b9027aff304b5b6f",
      "blockHash": "0xcb76563283f341660ecca78fb5e6102fced06512c42d574d7db69e4aaf48d447",
      "blockNumber": 46451,
      "transactionIndex": 0,
      "confirmations": null,
      "from": "0xEA81cA8638540cD9d4D73d060F2ceBf2241ffc3E",
      "gasPrice": {
        "_hex": "0x25d5c139000"
      },
      "gasLimit": {
        "_hex": "0x5208"
      },
      "to": "0xB0bF4A71F730782368Ef660FE6D298F432F95450",
      "value": {
        "_hex": "0x1043561a8829300000"
      },
      "nonce": 0,
      "data": "0x",
      "r": "0xf97750856e1fc69adbb04ce49071d8dc6585c5ba4bd4bc4d33682a5419ef9368",
      "s": "0x1331fd847ee4c5024de2faec6fbf0102e4e8dba5620910ba99b9163c3e6b5253",
      "v": 28,
      "creates": null,
      "raw": "0xf86e8086025d5c13900082520894b0bf4a71f730782368ef660fe6d298f432f95450891043561a8829300000801ca0f97750856e1fc69adbb04ce49071d8dc6585c5ba4bd4bc4d33682a5419ef9368a01331fd847ee4c5024de2faec6fbf0102e4e8dba5620910ba99b9163c3e6b5253",
      "networkId": 0,
      "chainId": 0
    }
  ]
}