{
  "hash": "0x986cce83f7eb39e7c6e67ec62890c51599afeadcdb8f33c41a1d7d7999c854df",
  "parentHash": "0x73d08f6500d3b9441881bb8ef674ffcb8c251c905a6cf24d7716de1807f129ee",
  "number": 84616,
  "timestamp": 1439552177,
  "nonce": "0x0d8459402e02ba2f",
  "difficulty": 2589039544154,
  "gasLimit": {
    "_hex": "0x2fefd8"
  },
  "gasUsed": {
    "_hex": "0x19c8c"
  },
  "miner": "0xe6A7a1d47ff21B6321162AEA7C6CB457D5476Bca",
  "extraData": "0x476574682f76312e302e312d38326566323666362f6c696e75782f676f312e34",
  "transactions": [
    {
      "hash": "0x8c98ede41158d86082fe160f2f1f33e0d40181b53e76ece3bd6faef96ae476d1",
      "blockHash": "0x986cce83f7eb39e7c6e67ec62890c51599afeadcdb8f33c41a1d7d7999c854df",
      "blockNumber": 84616,
      "transactionIndex": 0,
      "confirmations": null,
      "from": "0x63B9754D75d12d384039EC69063c0bE210D5e0e3",
      "gasPrice": {
        "_hex": "0x110c8f7d8de"
      },
      "gasLimit": {
        "_hex": "0xc350"
      },
      "to": "0x2910543Af39abA0Cd09dBb2D50200b3E800A63D2",
      "value": {
        "_hex": "0x91fce1efdfdef40000"
      },
      "nonce": 0,
      "data": "0x454e51305731514747",
      "r": "0x0ec1c31bc7489549daa7bd0995986e8225a8bca1feacd108cbb9e5d32a7d04dc",
      "s": "0x42112220e2358638030c9a92c69013402bbccfd7a7bbd2ab7dc63a4f65023075",
      "v": 27,
      "creates": null,
      "raw": "0xf87780860110c8f7d8de82c350942910543af39aba0cd09dbb2d50200b3e800a63d28991fce1efdfdef4000089454e513057315147471ba00ec1c31bc7489549daa7bd0995986e8225a8bca1feacd108cbb9e5d32a7d04dca042112220e2358638030c9a92c69013402bbccfd7a7bbd2ab7dc63a4f65023075",
      "networkId": 0,
      "chainId": 0
    },
    {
      "hash": "0x5d54a31821077285310d4c1171676340b3ac29d7ca876786d38809b87c586816",
      "blockHash": "0x986cce83f7eb39e7c6e67ec62890c51599afeadcdb8f33c41a1d7d7999c854df",
      "blockNumber": 84616,
      "transactionIndex": 1,
      "confirmations": null,
      "from": "0xed433C980AaED4E749B3229F3993BfB2840f2433",
      "gasPrice": {
        "_hex": "0xba43b7400"
      },
      "gasLimit": {
        "_hex": "0x5208"
      },
      "to": "0xC47Aaa860008be6f65B58c6C6E02a84e666EfE31",
      "value": {
        "_hex": "0x8ac3680c5ce46000"
      },
      "nonce": 0,
      "data": "0x",
      "r": "0xd8ffff0a395edc1bbe7110cb0338da39027bde4fe15a70a3f737f36af37b219b",
      "s": "0x44e5e09dd158c98e47b96ddf214908c2725875fbd63e8cf8193eff0f9ac72b50",
      "v": 27,
      "creates": null,
      "raw": "0xf86c80850ba43b740082520894c47aaa860008be6f65b58c6c6e02a84e666efe31888ac3680c5ce46000801ba0d8ffff0a395edc1bbe7110cb0338da39027bde4fe15a70a3f737f36af37b219ba044e5e09dd158c98e47b96ddf214908c2725875fbd63e8cf8193eff0f9ac72b50",
      "networkId": 0,
      "chainId": 0
    },
    {
      "hash": "0x9f6e8af7c237d8b8481b8017cb3f534df290569f368b578fdaed24ca2285a6af",
      "blockHash": "0x986cce83f7eb39e7c6e67ec62890c51599afeadcdb8f33c41a1d7d7999c854df",
      "blockNumber": 84616,
      "transactionIndex": 2,
      "confirmations": null,
      "from": "0xa02Ee357e3f58B351a9Afb4063Ed995ba744350a",
      "gasPrice": {
        "_hex": "0xba43b7400"
      },
      "gasLimit": {
        "_hex": "0x5208"
      },
      "to": "0xC47Aaa860008be6f65B58c6C6E02a84e666EfE31",
      "value": {
        "_hex": "0x34b842062e3d000"
      },
      "nonce": 0,
      "data": "0x",
      "r": "0xa22d86fca24236046a21f4288821ece0a4ca5774ef9950f0e654ffe5389ba432",
      "s": "0x5e38e6156f2a7954470abfb73998e1cac953f268e481307035c55295439ed0eb",
      "v": 28,
      "creates": null,
      "raw": "0xf86c80850ba43b740082520894c47aaa860008be6f65b58c6c6e02a84e666efe3188034b842062e3d000801ca0a22d86fca24236046a21f4288821ece0a4ca5774ef9950f0e654ffe5389ba432a05e38e6156f2a7954470abfb73998e1cac953f268e481307035c55295439ed0eb",
      "networkId": 0,
      "chainId": 0
    },
    {
      "hash": "0x4543de070066263d487fc61f0cb61bc159c9c25f32d00285cef71d6bd9ce88dc",
      "blockHash": "0x986cce83f7eb39e7c6e67ec62890c51599afeadcdb8f33c41a1d7d7999c854df",
      "blockNumber": 84616,
      "transactionIndex": 3,
      "confirmations": null,
      "from": "0xc93a69dFC0fb3E867D9207599f7fe87d51619635",
      "gasPrice": {
        "_hex": "0xba43b7400"
      },
      "gasLimit": {
        "_hex": "0x5208"
      },
      "to": "0xC47Aaa860008be6f65B58c6C6E02a84e666EfE31",
      "value": {
        "_hex": "0x3408390309eab6000"
      },
      "nonce": 1,
      "data": "0x",
      "r": "0x6e5987fff6ae49bca8bf434d80dc7387c300716d720b6e962967955c4a90fe58",
      "s": "0x70367378fe3c7fe3351d24af41b0f4816a63d5b9bb2daa0ad91fae17f45555c4",
      "v": 28,
      "creates": null,
      "raw": "0xf86d01850ba43b740082520894c47aaa860008be6f65b58c6c6e02a84e666efe318903408390309eab6000801ca06e5987fff6ae49bca8bf434d80dc7387c300716d720b6e962967955c4a90fe58a070367378fe3c7fe3351d24af41b0f4816a63d5b9bb2daa0ad91fae17f45555c4",
      "networkId": 0,
      "chainId": 0
    },
    {
      "hash": "0xb1ed48ff3fc0571677df873271a8b2de0944fc7f676991359170e8b533b7eba9",
      "blockHash": "0x986cce83f7eb39e7c6e67ec62890c51599afeadcdb8f33c41a1d7d7999c854df",
      "blockNumber": 84616,
      "transactionIndex": 4,
      "confirmations": null,
      "from": "0x3faFe90631678f97C1D101ea02D4cd743cBD24ed",
      "gasPrice": {
        "_hex": "0xba43b7400"
      },
      "gasLimit": {
        "_hex": "0x5208"
      },
      "to": "0xC47Aaa860008be6f65B58c6C6E02a84e666EfE31",
      "value": {
        "_hex": "0xbfb70aa3a83098f0"
      },
      "nonce": 4,
      "data": "0x",
      "r": "0xf4e901c7aad573cc81365a3327b9cb24f3f5e83ee3131a3bf883aea7dc71ae37",
      "s": "0x353332da417c0d3b23f0f45bac6bbecf561f3785de535335f06c284fafc0eea2",
      "v": 28,
      "creates": null,
      "raw": "0xf86c04850ba43b740082520894c47aaa860008be6f65b58c6c6e02a84e666efe3188bfb70aa3a83098f0801ca0f4e901c7aad573cc81365a3327b9cb24f3f5e83ee3131a3bf883aea7dc71ae37a0353332da417c0d3b23f0f45bac6bbecf561f3785de535335f06c284fafc0eea2",
      "networkId": 0,
      "chainId": 0
    }
  ]
}