{
  "hash": "0x8235ef2d2e1459dd5571f205e6a2f9648489f18578220e509e6d7cd831388929",
  "parentHash": "0xab938cfc0617303848aab90e55e7ab49c72bdc116a7a7209ae5f176a34b0cc3e",
  "number": 98437,
  "timestamp": 1439772760,
  "nonce": "0xcd89e526e2024127",
  "difficulty": 3866970739623,
  "gasLimit": {
    "_hex": "0x2fefd8"
  },
  "gasUsed": {
    "_hex": "0x5208"
  },
  "miner": "0xbb7B8287f3F0a933474a79eAe42CBCa977791171",
  "extraData": "0x476574682f4c5649562f76312e302e312f6c696e75782f676f312e342e32",
  "transactions": [
    {
      "hash": "0xce7baef02a3fd08a5377867e94de8f933ec90db6ab725ccfd1e78a55d4bb5c81",
      "blockHash": "0x8235ef2d2e1459dd5571f205e6a2f9648489f18578220e509e6d7cd831388929",
      "blockNumber": 98437,
      "transactionIndex": 0,
      "confirmations": null,
      "from": "0x0D4EcC7d750180EBf4A9Df728B6669B5Bceb5E40",
      "gasPrice": {
        "_hex": "0xdcd5fc7f6"
      },
      "gasLimit": {
        "_hex": "0x5208"
      },
      "to": "0x32Be343B94f860124dC4fEe278FDCBD38C102D88",
      "value": {
        "_hex": "0x2b59cebb34e86000"
      },
      "nonce": 51,
      "data": "0x",
      "r": "0xd779efe21580a3256c9bf34897e9e9fa5802cea9473b2f374aed85ae0d858abc",
      "s": "0x29bb697cea4e6e368188857aea0f0e501a8b0ccb80b4501c0e643da46d0be2e8",
      "v": 27,
      "creates": null,
      "raw": "0xf86c33850dcd5fc7f68252089432be343b94f860124dc4fee278fdcbd38c102d88882b59cebb34e86000801ba0d779efe21580a3256c9bf34897e9e9fa5802cea9473b2f374aed85ae0d858abca029bb697cea4e6e368188857aea0f0e501a8b0ccb80b4501c0e643da46d0be2e8",
      "networkId": 0,
      "chainId": 0
    }
  ]
}