{
  "hash": "0xb5ea0879442599f9c884606cfaf2d30eadbc12a5d638551d17c23fd566743f78",
  "parentHash": "0x139bdcff0df0fec5505da21727be70a2d241b01086cb22675b7412079f888e43",
  "number": 73508,
  "timestamp": 1439370353,
  "nonce": "0xe5263063ae87055e",
  "difficulty": 2217457211491,
  "gasLimit": {
    "_hex": "0x2fefd8"
  },
  "gasUsed": {
    "_hex": "0x5208"
  },
  "miner": "0x0eDEd3DA479d0beF8eeC92A76644D3f4E3C177f7",
  "extraData": "0x476574682f76312e302e312f6c696e75782f676f312e342e32",
  "transactions": [
    {
      "hash": "0x7e5f98e8629ef7881700bf70026dbd42793bf21488d17105ff226ef4c7487a80",
      "blockHash": "0xb5ea0879442599f9c884606cfaf2d30eadbc12a5d638551d17c23fd566743f78",
      "blockNumber": 73508,
      "transactionIndex": 0,
      "confirmations": null,
      "from": "0x2910543Af39abA0Cd09dBb2D50200b3E800A63D2",
      "gasPrice": {
        "_hex": "0xcebc6aa4e"
      },
      "gasLimit": {
        "_hex": "0x5208"
      },
      "to": "0x9d3974F6A9B5701FB6D78707cE78D61c3eC525D7",
      "value": {
        "_hex": "0x2b5d1eb9d79a78000"
      },
      "nonce": 285,
      "data": "0x",
      "r": "0xa4cbe597c6f027822319da023792a2789cfc6c55773e8a9a5339085a3dd5c901",
      "s": "0x70a1c4d024ad8e498694a4b5a03378156685dd3fba2078be98405f1bd0757089",
      "v": 27,
      "creates": null,
      "raw": "0xf86f82011d850cebc6aa4e825208949d3974f6a9b5701fb6d78707ce78d61c3ec525d78902b5d1eb9d79a78000801ba0a4cbe597c6f027822319da023792a2789cfc6c55773e8a9a5339085a3dd5c901a070a1c4d024ad8e498694a4b5a03378156685dd3fba2078be98405f1bd0757089",
      "networkId": 0,
      "chainId": 0
    }
  ]
}