{
  "hash": "0xffcb1bec7bedb149148b810ff282efbba4b1f062259f139673f1757530724547",
  "parentHash": "0x4055385a1f271e31cb1b00ca8950045acbc4f6ab36fe17201c9b55fa9478b8c0",
  "number": 112733,
  "timestamp": 1440012372,
  "nonce": "0x84f10e47556c173a",
  "difficulty": 4430278961729,
  "gasLimit": {
    "_hex": "0x2fefd8"
  },
  "gasUsed": {
    "_hex": "0xa410"
  },
  "miner": "0xe6A7a1d47ff21B6321162AEA7C6CB457D5476Bca",
  "extraData": "0x476574682f76312e302e312d38326566323666362f6c696e75782f676f312e34",
  "transactions": [
    {
      "hash": "0x4bfd6b3b19fc1574c5b7ff986b6b3c271aaa3f206416095c23badb1f45791de0",
      "blockHash": "0xffcb1bec7bedb149148b810ff282efbba4b1f062259f139673f1757530724547",
      "blockNumber": 112733,
      "transactionIndex": 0,
      "confirmations": null,
      "from": "0xc1BED23F5A2bA19A363215fC2c288FD8ee533E15",
      "gasPrice": {
        "_hex": "0xd0c28ce16"
      },
      "gasLimit": {
        "_hex": "0x5208"
      },
      "to": "0xFBb1b73C4f0BDa4f67dcA266ce6Ef42f520fBB98",
      "value": {
        "_hex": "0x2ef0c6f15179df50"
      },
      "nonce": 2,
      "data": "0x",
      "r": "0x92f0abaf7d047d67b73193d9584a9a19c38ccf0f285d58ade64e5b40123f2437",
      "s": "0x4c933cea198fa5fd77dc184a897d5a2af0add4b8063082c7419066765938cd98",
      "v": 28,
      "creates": null,
      "raw": "0xf86c02850d0c28ce1682520894fbb1b73c4f0bda4f67dca266ce6ef42f520fbb98882ef0c6f15179df50801ca092f0abaf7d047d67b73193d9584a9a19c38ccf0f285d58ade64e5b40123f2437a04c933cea198fa5fd77dc184a897d5a2af0add4b8063082c7419066765938cd98",
      "networkId": 0,
      "chainId": 0
    },
    {
      "hash": "0x7c07009b91ade47ade4c8f9ae9200bdd5fd18ee3556db290a86d7a3a675c52f7",
      "blockHash": "0xffcb1bec7bedb149148b810ff282efbba4b1f062259f139673f1757530724547",
      "blockNumber": 112733,
      "transactionIndex": 1,
      "confirmations": null,
      "from": "0x120A270bbC009644e35F0bB6ab13f95b8199c4ad",
      "gasPrice": {
        "_hex": "0xd02c7dc23"
      },
      "gasLimit": {
        "_hex": "0x15f90"
      },
      "to": "0xD3c6b518F1631509963232bA8e1882D3474a5838",
      "value": {
        "_hex": "0x24ff871262a7a31c00"
      },
      "nonce": 900,
      "data": "0x",
      "r": "0xa1112fad3c65a3bcd4e13fe8562c0685939684c38c6a91efc38428ea8133454c",
      "s": "0x435014f80e6354acf5f0d17b0928a5abb7361835ddcc0f40d1af3635eb53888e",
      "v": 27,
      "creates": null,
      "raw": "0xf870820384850d02c7dc2383015f9094d3c6b518f1631509963232ba8e1882d3474a58388924ff871262a7a31c00801ba0a1112fad3c65a3bcd4e13fe8562c0685939684c38c6a91efc38428ea8133454ca0435014f80e6354acf5f0d17b0928a5abb7361835ddcc0f40d1af3635eb53888e",
      "networkId": 0,
      "chainId": 0
    }
  ]
}