{
  "hash": "0x4930c636dc8d227a9aa041ffee5369e88bb06d8cc8390a4c7e9e58116897e21b",
  "parentHash": "0xd83f6ea02553565f22e7d700386111d991c69a6e32fc3dd5d89e5b133c1fcbcf",
  "number": 75044,
  "timestamp": 1439396818,
  "nonce": "0xe13b50cc44ee46c3",
  "difficulty": 2180548541924,
  "gasLimit": {
    "_hex": "0x2fefd8"
  },
  "gasUsed": {
    "_hex": "0xad77"
  },
  "miner": "0xe6A7a1d47ff21B6321162AEA7C6CB457D5476Bca",
  "extraData": "0x476574682f76312e302e312d38326566323666362f6c696e75782f676f312e34",
  "transactions": [
    {
      "hash": "0x45b70c16325140087b0cbbee3ed64d9b1b5c5ba780356343ee733889a9e77724",
      "blockHash": "0x4930c636dc8d227a9aa041ffee5369e88bb06d8cc8390a4c7e9e58116897e21b",
      "blockNumber": 75044,
      "transactionIndex": 0,
      "confirmations": null,
      "from": "0x87C5B5874A18B4306DF8a752a6C8cc3E82daFc19",
      "gasPrice": {
        "_hex": "0x1138fed4c75"
      },
      "gasLimit": {
        "_hex": "0x493e0"
      },
      "to": "0xD79B4C6791784184e2755B2fC1659eaaB0f80456",
      "value": {
        "_hex": "0x0"
      },
      "nonce": 29,
      "data": "0x03750d94000000000000000000000000326be8f71bfb0379f989aab1cc1fe37f0a771f606132396231626436323162383938656500000000000000000000000000000000",
      "r": "0x4c32b78d9ac58a80925db40e12d2b5e03f735b706f4b1853cd42aaceb50f52ee",
      "s": "0x01f360b0a5fd6193f526a18324019b28a457f2efa59d0840a12f4494bd59f239",
      "v": 28,
      "creates": null,
      "raw": "0xf8ab1d8601138fed4c75830493e094d79b4c6791784184e2755b2fc1659eaab0f8045680b84403750d94000000000000000000000000326be8f71bfb0379f989aab1cc1fe37f0a771f6061323962316264363231623839386565000000000000000000000000000000001ca04c32b78d9ac58a80925db40e12d2b5e03f735b706f4b1853cd42aaceb50f52eea001f360b0a5fd6193f526a18324019b28a457f2efa59d0840a12f4494bd59f239",
      "networkId": 0,
      "chainId": 0
    }
  ]
}