{
  "hash": "0x61c95b71ad0415440a9d50c290a6c608682638c4feb8885fc6090d361a27b17e",
  "parentHash": "0xc1a6c76b6653c300f4a20fd08ecc2a8eceaac28ce69e696dd75b703752a6596b",
  "number": 101526,
  "timestamp": 1439824261,
  "nonce": "0x09f11182ead145c7",
  "difficulty": 3867434973156,
  "gasLimit": {
    "_hex": "0x2fefd8"
  },
  "gasUsed": {
    "_hex": "0x5208"
  },
  "miner": "0x3D5292e9d2a2D31014717ff936A0F9375A5Cc8b7",
  "extraData": "0x476574682f76312e302e312f77696e646f77732f676f312e342e32",
  "transactions": [
    {
      "hash": "0x0259606724d275252933abad6ed83388e09d85ed715772852301d5a002ee59fe",
      "blockHash": "0x61c95b71ad0415440a9d50c290a6c608682638c4feb8885fc6090d361a27b17e",
      "blockNumber": 101526,
      "transactionIndex": 0,
      "confirmations": null,
      "from": "0x120A270bbC009644e35F0bB6ab13f95b8199c4ad",
      "gasPrice": {
        "_hex": "0xd8b52faf1"
      },
      "gasLimit": {
        "_hex": "0x3d090"
      },
      "to": "0xca3313ea9BC1eD64642cd5d125340Cb364151451",
      "value": {
        "_hex": "0x23cc39b12068d56c00"
      },
      "nonce": 678,
      "data": "0x",
      "r": "0xc3257d74a098e8faca83d340a991cf8a84807e11b1986021d4f1eb1f6ec68bf1",
      "s": "0x1a7273871fb257a4c566b86279ce7f7cf109ffa7d41194a75e149471225972f0",
      "v": 28,
      "creates": null,
      "raw": "0xf8708202a6850d8b52faf18303d09094ca3313ea9bc1ed64642cd5d125340cb3641514518923cc39b12068d56c00801ca0c3257d74a098e8faca83d340a991cf8a84807e11b1986021d4f1eb1f6ec68bf1a01a7273871fb257a4c566b86279ce7f7cf109ffa7d41194a75e149471225972f0",
      "networkId": 0,
      "chainId": 0
    }
  ]
}