{
  "hash": "0xc129a7125704ebb3f44a4c7d670d73c8daa185b1398a1586ef3ebc967e80bcd9",
  "parentHash": "0x1df49026373a71c6637ca13c083d15535215530665156b72dc5c3a6254129da3",
  "number": 111370,
  "timestamp": 1439988988,
  "nonce": "0xcc5755bd33ce0fa0",
  "difficulty": 4446169790986,
  "gasLimit": {
    "_hex": "0x2fefd8"
  },
  "gasUsed": {
    "_hex": "0x5208"
  },
  "miner": "0xe6A7a1d47ff21B6321162AEA7C6CB457D5476Bca",
  "extraData": "0x476574682f76312e302e312d38326566323666362f6c696e75782f676f312e34",
  "transactions": [
    {
      "hash": "0xddae4a0eece6bbb7850f4ba61fc6b941fa3c1d73fdf7d6bd1b588dbde81b6f8b",
      "blockHash": "0xc129a7125704ebb3f44a4c7d670d73c8daa185b1398a1586ef3ebc967e80bcd9",
      "blockNumber": 111370,
      "transactionIndex": 0,
      "confirmations": null,
      "from": "0xe6C81DCB15b7ae3103C5AC90421cf7eba0AEfDF1",
      "gasPrice": {
        "_hex": "0xdd885e8ec"
      },
      "gasLimit": {
        "_hex": "0x5208"
      },
      "to": "0x32Be343B94f860124dC4fEe278FDCBD38C102D88",
      "value": {
        "_hex": "0x29324083eac69a00000"
      },
      "nonce": 0,
      "data": "0x",
      "r": "0x8d7fff868b8c7febdb4c80922f81f2e4c8701a0262fab11ad83f5c83c5a1a4dd",
      "s": "0x2275359ec0c29e526c149757345da827af13c38ff818dbfd178c092b31d5f6fd",
      "v": 27,
      "creates": null,
      "raw": "0xf86e80850dd885e8ec8252089432be343b94f860124dc4fee278fdcbd38c102d888a029324083eac69a00000801ba08d7fff868b8c7febdb4c80922f81f2e4c8701a0262fab11ad83f5c83c5a1a4dda02275359ec0c29e526c149757345da827af13c38ff818dbfd178c092b31d5f6fd",
      "networkId": 0,
      "chainId": 0
    }
  ]
}