{
  "hash": "0x3baf3ece04b2a77f58523e5dbdf4dfa49fdbde3d80590237549dbbf19cba2531",
  "parentHash": "0xcaf26ffd1e32606420891c85a606b05e6f2883b431de87d4eadee2cdd138f504",
  "number": 52514,
  "timestamp": 1439022821,
  "nonce": "0x658261dfd5c5a8be",
  "difficulty": 1567143313889,
  "gasLimit": {
    "_hex": "0x14c2d8"
  },
  "gasUsed": {
    "_hex": "0x546c"
  },
  "miner": "0x3F98e477a361F777DA14611a7e419A75Fd238b6b",
  "extraData": "0x476574682f76312e302e312f6c696e75782f676f312e342e32",
  "transactions": [
    {
      "hash": "0x109f524281b6e42a66e1ff445609dd998b050dd42713d2d954ac771b3d4346b5",
      "blockHash": "0x3baf3ece04b2a77f58523e5dbdf4dfa49fdbde3d80590237549dbbf19cba2531",
      "blockNumber": 52514,
      "transactionIndex": 0,
      "confirmations": null,
      "from": "0x20b2a17fFa355d7Bcb269812A39e8F57D750A5b3",
      "gasPrice": {
        "_hex": "0xa7a358200"
      },
      "gasLimit": {
        "_hex": "0x55f0"
      },
      "to": "0x2910543Af39abA0Cd09dBb2D50200b3E800A63D2",
      "value": {
        "_hex": "0xde0b6b3a7640000"
      },
      "nonce": 0,
      "data": "0x454e56554d55584738",
      "r": "0x8b661ce42da60455fa0bac7edb664ea43e4e7a56452ab67785724abc2c842fbc",
      "s": "0x01161b118da1f7a05eb251781444373be370c1fb8b2bdc0aed237d4942f62529",
      "v": 28,
      "creates": null,
      "raw": "0xf87580850a7a3582008255f0942910543af39aba0cd09dbb2d50200b3e800a63d2880de0b6b3a764000089454e56554d555847381ca08b661ce42da60455fa0bac7edb664ea43e4e7a56452ab67785724abc2c842fbca001161b118da1f7a05eb251781444373be370c1fb8b2bdc0aed237d4942f62529",
      "networkId": 0,
      "chainId": 0
    }
  ]
}