{
  "hash": "0xb7f5df215d33f993b5157d217d1a4955248e93617d448c97c1c1deb9d4da7bbb",
  "parentHash": "0xf19c3e0fbf49052139b4ea2e7ae899d6fc245d16fd32baec6e5d869d73b5fc4c",
  "number": 120188,
  "timestamp": 1440155615,
  "nonce": "0xc204050ad76318f9",
  "difficulty": 4406934469741,
  "gasLimit": {
    "_hex": "0x2fefd8"
  },
  "gasUsed": {
    "_hex": "0xa410"
  },
  "miner": "0x52bc44d5378309EE2abF1539BF71dE1b7d7bE3b5",
  "extraData": "0xd783010002844765746887676f312e342e32856c696e7578",
  "transactions": [
    {
      "hash": "0x9becfeddb26e5908ea6c29d3b5a25cf7514acc356bebf2cbdc41bcabb75168ac",
      "blockHash": "0xb7f5df215d33f993b5157d217d1a4955248e93617d448c97c1c1deb9d4da7bbb",
      "blockNumber": 120188,
      "transactionIndex": 0,
      "confirmations": null,
      "from": "0xf2881e3e520bF84469Fa00a56449D357FB1af54A",
      "gasPrice": {
        "_hex": "0xba43b7400"
      },
      "gasLimit": {
        "_hex": "0x5208"
      },
      "to": "0x32Be343B94f860124dC4fEe278FDCBD38C102D88",
      "value": {
        "_hex": "0x2fb8a9385a8fa6000"
      },
      "nonce": 15,
      "data": "0x",
      "r": "0x98c318e72cbbb3e00d24666aaf094319a8be6a5770caae543d8daa2e33a0bc15",
      "s": "0x1e77cbe299a74963fbf362c7a5d1404e19768706016518e2e1c9b88746c12f08",
      "v": 27,
      "creates": null,
      "raw": "0xf86d0f850ba43b74008252089432be343b94f860124dc4fee278fdcbd38c102d888902fb8a9385a8fa6000801ba098c318e72cbbb3e00d24666aaf094319a8be6a5770caae543d8daa2e33a0bc15a01e77cbe299a74963fbf362c7a5d1404e19768706016518e2e1c9b88746c12f08",
      "networkId": 0,
      "chainId": 0
    },
    {
      "hash": "0x2166db4fa80e534d928bd55e541cb85d406cb4b9c498a9090f1d700f992a1ad8",
      "blockHash": "0xb7f5df215d33f993b5157d217d1a4955248e93617d448c97c1c1deb9d4da7bbb",
      "blockNumber": 120188,
      "transactionIndex": 1,
      "confirmations": null,
      "from": "0x608f4b86321a68453f9adf6F06F7Fc3E621739ad",
      "gasPrice": {
        "_hex": "0xba43b7400"
      },
      "gasLimit": {
        "_hex": "0x5208"
      },
      "to": "0x32Be343B94f860124dC4fEe278FDCBD38C102D88",
      "value": {
        "_hex": "0x3406f22986b36000"
      },
      "nonce": 57,
      "data": "0x",
      "r": "0xdc1c6bc0acb4ca6f223270ce412bcbb4aa033f73efe6ec91b9067196aae6fe6d",
      "s": "0x5b8b519550464ce1a3d325872c680685783da9f0984b47163fad5975394e9dbe",
      "v": 27,
      "creates": null,
      "raw": "0xf86c39850ba43b74008252089432be343b94f860124dc4fee278fdcbd38c102d88883406f22986b36000801ba0dc1c6bc0acb4ca6f223270ce412bcbb4aa033f73efe6ec91b9067196aae6fe6da05b8b519550464ce1a3d325872c680685783da9f0984b47163fad5975394e9dbe",
      "networkId": 0,
      "chainId": 0
    }
  ]
}