{
  "hash": "0x66ab58abf69b2394e612e81af38f6fe45ff07644facd1d1221237d741c3eac80",
  "parentHash": "0x9a244320a7bc0b083015bd20700cd284cabf43e54deacd5892d79e91fa4a5d50",
  "number": 107358,
  "timestamp": 1439921099,
  "nonce": "0x9cbdd9bc7d60a761",
  "difficulty": 4405067780200,
  "gasLimit": {
    "_hex": "0x2fefd8"
  },
  "gasUsed": {
    "_hex": "0xf87c"
  },
  "miner": "0xf927a40C8B7F6E07c5af7FA2155B4864a4112B13",
  "extraData": "0x",
  "transactions": [
    {
      "hash": "0xea822c6e62a4ebc88c20472e425401fb5f96552e35148289dadae5b1d089cc6b",
      "blockHash": "0x66ab58abf69b2394e612e81af38f6fe45ff07644facd1d1221237d741c3eac80",
      "blockNumber": 107358,
      "transactionIndex": 0,
      "confirmations": null,
      "from": "0x14A7352066364404DB50F0d0d78D754A22198EF4",
      "gasPrice": {
        "_hex": "0x110c8f7d8de"
      },
      "gasLimit": {
        "_hex": "0xc350"
      },
      "to": "0x2910543Af39abA0Cd09dBb2D50200b3E800A63D2",
      "value": {
        "_hex": "0x35203b67bccad00000"
      },
      "nonce": 2,
      "data": "0x454e56343455444530",
      "r": "0xe52b0bda29e4d6a56ccd7a3b4ce1b9ee3959fb23013200e0c0228a8b7f53a402",
      "s": "0xd7433e50ed8cf92e57d3b9433d56ac79575f2df04f0d8a0ecac4a9649356a99e",
      "v": 27,
      "creates": null,
      "raw": "0xf87702860110c8f7d8de82c350942910543af39aba0cd09dbb2d50200b3e800a63d28935203b67bccad0000089454e563434554445301ba0e52b0bda29e4d6a56ccd7a3b4ce1b9ee3959fb23013200e0c0228a8b7f53a402a0d7433e50ed8cf92e57d3b9433d56ac79575f2df04f0d8a0ecac4a9649356a99e",
      "networkId": 0,
      "chainId": 0
    },
    {
      "hash": "0x29fd21557cbcca5789cc80f38d6a96492aa7460970f86983f4a85498ad0f6b43",
      "blockHash": "0x66ab58abf69b2394e612e81af38f6fe45ff07644facd1d1221237d741c3eac80",
      "blockNumber": 107358,
      "transactionIndex": 1,
      "confirmations": null,
      "from": "0xa9f5E7bf6Cbf6fEc55B30850Eb492b47A376d050",
      "gasPrice": {
        "_hex": "0xd79064d21"
      },
      "gasLimit": {
        "_hex": "0x5208"
      },
      "to": "0x32Be343B94f860124dC4fEe278FDCBD38C102D88",
      "value": {
        "_hex": "0x246d99c7f2a04a000"
      },
      "nonce": 24,
      "data": "0x",
      "r": "0x3a4a3328ce10d93fe177bff4e6e83bc0c542431393a7d85d78fb9e02fdd843b9",
      "s": "0x4001c06dcacff78ced10fdffcaf2a556900720b2588fb03353a5c342bf61a7a7",
      "v": 28,
      "creates": null,
      "raw": "0xf86d18850d79064d218252089432be343b94f860124dc4fee278fdcbd38c102d88890246d99c7f2a04a000801ca03a4a3328ce10d93fe177bff4e6e83bc0c542431393a7d85d78fb9e02fdd843b9a04001c06dcacff78ced10fdffcaf2a556900720b2588fb03353a5c342bf61a7a7",
      "networkId": 0,
      "chainId": 0
    },
    {
      "hash": "0x86b77a31f0689b79b1804722bcee79272d411665db405ebd67a0ea5eaa8ba699",
      "blockHash": "0x66ab58abf69b2394e612e81af38f6fe45ff07644facd1d1221237d741c3eac80",
      "blockNumber": 107358,
      "transactionIndex": 2,
      "confirmations": null,
      "from": "0xa6BDc31c431B8F97848c9D60cbbe9660dc450eB7",
      "gasPrice": {
        "_hex": "0xd58801477"
      },
      "gasLimit": {
        "_hex": "0x5208"
      },
      "to": "0x32Be343B94f860124dC4fEe278FDCBD38C102D88",
      "value": {
        "_hex": "0x455f56b5bf1da400"
      },
      "nonce": 180,
      "data": "0x",
      "r": "0x063eebe1d89409be566726e0c8f8a1cae097800099a91bf16de8546da99aa1db",
      "s": "0x15874cc6c29fe4c25b6418c69da44218b9f79bd9f116703f9735469b8c99cf37",
      "v": 28,
      "creates": null,
      "raw": "0xf86d81b4850d588014778252089432be343b94f860124dc4fee278fdcbd38c102d8888455f56b5bf1da400801ca0063eebe1d89409be566726e0c8f8a1cae097800099a91bf16de8546da99aa1dba015874cc6c29fe4c25b6418c69da44218b9f79bd9f116703f9735469b8c99cf37",
      "networkId": 0,
      "chainId": 0
    }
  ]
}