{
  "hash": "0xa5a842534b2f5019a96e0889ea703bfe5ccbb8e6aaa7db162cd235bf9a3c16f4",
  "parentHash": "0x2fd4dc8ed8eca3011cd26198277e13bb06c1057b4e6abf6908484415cba85a5e",
  "number": 82402,
  "timestamp": 1439518849,
  "nonce": "0x2fb464309f2dbccc",
  "difficulty": 2371826354320,
  "gasLimit": {
    "_hex": "0x2fefd8"
  },
  "gasUsed": {
    "_hex": "0x546c"
  },
  "miner": "0xBD744E3F13D79B33F6c8E1d5E32F8E9BA2866c46",
  "extraData": "0x476574682f76312e302e312d39613032663533372f6c696e75782f676f312e34",
  "transactions": [
    {
      "hash": "0xac1e324f8ff5b44a3b5858dfe957c10e6dddd4d2d38371bfe976a1cc838561d5",
      "blockHash": "0xa5a842534b2f5019a96e0889ea703bfe5ccbb8e6aaa7db162cd235bf9a3c16f4",
      "blockNumber": 82402,
      "transactionIndex": 0,
      "confirmations": null,
      "from": "0x84BDA1c0A280B67d35727441B56e102aDCc594ac",
      "gasPrice": {
        "_hex": "0xd1f217cbf"
      },
      "gasLimit": {
        "_hex": "0x15f90"
      },
      "to": "0x7548566f611b89EBfb57C547FeA0c293A2830aD2",
      "value": {
        "_hex": "0x6124fee993bc0000"
      },
      "nonce": 2,
      "data": "0x706f6c6f6e69657832",
      "r": "0x83475569c2d4e5641cac2a39fea75a4f10250b3c93e8133f44ca56c76ae14f8f",
      "s": "0x6119457a2a6f26fbe634297ec29b6bf51cb8428202a599fd9931c0206a2ae75a",
      "v": 28,
      "creates": null,
      "raw": "0xf87602850d1f217cbf83015f90947548566f611b89ebfb57c547fea0c293a2830ad2886124fee993bc000089706f6c6f6e696578321ca083475569c2d4e5641cac2a39fea75a4f10250b3c93e8133f44ca56c76ae14f8fa06119457a2a6f26fbe634297ec29b6bf51cb8428202a599fd9931c0206a2ae75a",
      "networkId": 0,
      "chainId": 0
    }
  ]
}