{
  "hash": "0xdc2816cc30203a17ba65314c1a20838ecd2e5c45996b8214adc365ba10eebff9",
  "parentHash": "0x867b0ca0d06a1c2e2116026bab2ea86a1d88372d062bdacdd2d50e44f31f8688",
  "number": 120774,
  "timestamp": 1440165681,
  "nonce": "0x3c9cbb0b38a73e76",
  "difficulty": 4441188230546,
  "gasLimit": {
    "_hex": "0x2fefd8"
  },
  "gasUsed": {
    "_hex": "0x5208"
  },
  "miner": "0xbb7B8287f3F0a933474a79eAe42CBCa977791171",
  "extraData": "0xd783010003844765746887676f312e342e32856c696e7578",
  "transactions": [
    {
      "hash": "0x61fc83c5b5146fbd80698e171b2d9e5ee657efdbae62dafccee5b7b3893be867",
      "blockHash": "0xdc2816cc30203a17ba65314c1a20838ecd2e5c45996b8214adc365ba10eebff9",
      "blockNumber": 120774,
      "transactionIndex": 0,
      "confirmations": null,
      "from": "0x062DCc861fd582F0bcE06791cdCD1B05D4068Cc2",
      "gasPrice": {
        "_hex": "0xba43b7400"
      },
      "gasLimit": {
        "_hex": "0x5208"
      },
      "to": "0x32Be343B94f860124dC4fEe278FDCBD38C102D88",
      "value": {
        "_hex": "0x15f8a8030866000"
      },
      "nonce": 0,
      "data": "0x",
      "r": "0x511a2844fbdfa1db01a5378d266bc5d15820f8e21815fe60d862f0c390560ca3",
      "s": "0x326492f52d5c8c97f97fa51ed392f1002b814d69311386c438e30a0fdf2c83ec",
      "v": 27,
      "creates": null,
      "raw": "0xf86c80850ba43b74008252089432be343b94f860124dc4fee278fdcbd38c102d8888015f8a8030866000801ba0511a2844fbdfa1db01a5378d266bc5d15820f8e21815fe60d862f0c390560ca3a0326492f52d5c8c97f97fa51ed392f1002b814d69311386c438e30a0fdf2c83ec",
      "networkId": 0,
      "chainId": 0
    }
  ]
}