{
  "hash": "0x2ed0491721d07fd7edb60bbe948b8abec40f746ad0e81304fc397ed7d74e8f46",
  "parentHash": "0x8974a51f7e88fb8834741fc0f5b32db87d2023202245109393bb2287987d955f",
  "number": 74243,
  "timestamp": 1439382889,
  "nonce": "0x06807f8da8c62186",
  "difficulty": 2214017362682,
  "gasLimit": {
    "_hex": "0x2fefd8"
  },
  "gasUsed": {
    "_hex": "0x19a28"
  },
  "miner": "0x52Dc504a422f0E2A9e7632A34a50f1a82F8224c7",
  "extraData": "0x476574682f76312e302e312f6c696e75782f676f312e342e32",
  "transactions": [
    {
      "hash": "0x3d6a2fe91c98464bfbb87a58477a23a379e7074b9eb803085c9ed3dd7a0c98c3",
      "blockHash": "0x2ed0491721d07fd7edb60bbe948b8abec40f746ad0e81304fc397ed7d74e8f46",
      "blockNumber": 74243,
      "transactionIndex": 0,
      "confirmations": null,
      "from": "0xe6A7a1d47ff21B6321162AEA7C6CB457D5476Bca",
      "gasPrice": {
        "_hex": "0xd581e070a"
      },
      "gasLimit": {
        "_hex": "0x55f0"
      },
      "to": "0x51f8ecFF73486E3161082dDEc7FbB5450b45D689",
      "value": {
        "_hex": "0x2501400e08492de4"
      },
      "nonce": 750,
      "data": "0x",
      "r": "0x0cfb0525b1e7ae43f73fc44ab0077bf477e97cb03629f72208fb7a07dc2462c0",
      "s": "0x6f9a48d388699ddc9154262dc7d489fdd30e5dc1ccf1c7cef4cbf12335aa44af",
      "v": 27,
      "creates": null,
      "raw": "0xf86e8202ee850d581e070a8255f09451f8ecff73486e3161082ddec7fbb5450b45d689882501400e08492de4801ba00cfb0525b1e7ae43f73fc44ab0077bf477e97cb03629f72208fb7a07dc2462c0a06f9a48d388699ddc9154262dc7d489fdd30e5dc1ccf1c7cef4cbf12335aa44af",
      "networkId": 0,
      "chainId": 0
    },
    {
      "hash": "0xd7037a28274981fae693f604f8e4412d42c970d2533cca225bb3d95c617121d2",
      "blockHash": "0x2ed0491721d07fd7edb60bbe948b8abec40f746ad0e81304fc397ed7d74e8f46",
      "blockNumber": 74243,
      "transactionIndex": 1,
      "confirmations": null,
      "from": "0xe6A7a1d47ff21B6321162AEA7C6CB457D5476Bca",
      "gasPrice": {
        "_hex": "0xd581e070a"
      },
      "gasLimit": {
        "_hex": "0x55f0"
      },
      "to": "0x202833e8072EDc2bcD3b718CEE181919ed39f54B",
      "value": {
        "_hex": "0x25207ede1e28be1c"
      },
      "nonce": 751,
      "data": "0x",
      "r": "0x2dc2c819ac5bf8aa0f5b1b1f55c7ce256e2643578a555359c878339c4dcd3562",
      "s": "0x5540123e9f83986dda298296175618f6c954481c6a5c156548d1213760df52a8",
      "v": 28,
      "creates": null,
      "raw": "0xf86e8202ef850d581e070a8255f094202833e8072edc2bcd3b718cee181919ed39f54b8825207ede1e28be1c801ca02dc2c819ac5bf8aa0f5b1b1f55c7ce256e2643578a555359c878339c4dcd3562a05540123e9f83986dda298296175618f6c954481c6a5c156548d1213760df52a8",
      "networkId": 0,
      "chainId": 0
    },
    {
      "hash": "0x418ab9ea02f8eb5f3e232c09314b48c968a2ffb6226ed68d9e868010b01f9c62",
      "blockHash": "0x2ed0491721d07fd7edb60bbe948b8abec40f746ad0e81304fc397ed7d74e8f46",
      "blockNumber": 74243,
      "transactionIndex": 2,
      "confirmations": null,
      "from": "0xe6A7a1d47ff21B6321162AEA7C6CB457D5476Bca",
      "gasPrice": {
        "_hex": "0xd581e070a"
      },
      "gasLimit": {
        "_hex": "0x55f0"
      },
      "to": "0x86889b1CeA13d370E827e099e3778b17d488B3Dd",
      "value": {
        "_hex": "0x26179dbb6c318af0"
      },
      "nonce": 752,
      "data": "0x",
      "r": "0xd91f5231d96b0f173f1e046f47791b06e44488ee556802ecefe712202e96e173",
      "s": "0x05da480cfbfc8c291e90d25c40a6fae2f7ed8bd3b0a5d3c3969f57620416b69d",
      "v": 28,
      "creates": null,
      "raw": "0xf86e8202f0850d581e070a8255f09486889b1cea13d370e827e099e3778b17d488b3dd8826179dbb6c318af0801ca0d91f5231d96b0f173f1e046f47791b06e44488ee556802ecefe712202e96e173a005da480cfbfc8c291e90d25c40a6fae2f7ed8bd3b0a5d3c3969f57620416b69d",
      "networkId": 0,
      "chainId": 0
    },
    {
      "hash": "0xff226279fcdf94a06e8f2ca433f56a36650c77bb317232cc12dec4ffd0ee4dce",
      "blockHash": "0x2ed0491721d07fd7edb60bbe948b8abec40f746ad0e81304fc397ed7d74e8f46",
      "blockNumber": 74243,
      "transactionIndex": 3,
      "confirmations": null,
      "from": "0xe6A7a1d47ff21B6321162AEA7C6CB457D5476Bca",
      "gasPrice": {
        "_hex": "0xd581e070a"
      },
      "gasLimit": {
        "_hex": "0x55f0"
      },
      "to": "0xD9666150A9dA92d9108198a4072970805a8B3428",
      "value": {
        "_hex": "0x2636b25e4b0d63f4"
      },
      "nonce": 753,
      "data": "0x",
      "r": "0xbc6ed547d8aad4d8bab367314633b459ec5dfd347fc1ab2d33316fbc41e8beb6",
      "s": "0x6e68a5af43d7bab02a1192c173260d1b97161f351a2508d3e6d82866acc62ffc",
      "v": 27,
      "creates": null,
      "raw": "0xf86e8202f1850d581e070a8255f094d9666150a9da92d9108198a4072970805a8b3428882636b25e4b0d63f4801ba0bc6ed547d8aad4d8bab367314633b459ec5dfd347fc1ab2d33316fbc41e8beb6a06e68a5af43d7bab02a1192c173260d1b97161f351a2508d3e6d82866acc62ffc",
      "networkId": 0,
      "chainId": 0
    },
    {
      "hash": "0x8c16af844edbb10b19e6ffecbfd07621b732d4b513e52d0795f73c2458e505f2",
      "blockHash": "0x2ed0491721d07fd7edb60bbe948b8abec40f746ad0e81304fc397ed7d74e8f46",
      "blockNumber": 74243,
      "transactionIndex": 4,
      "confirmations": null,
      "from": "0xe6A7a1d47ff21B6321162AEA7C6CB457D5476Bca",
      "gasPrice": {
        "_hex": "0xd581e070a"
      },
      "gasLimit": {
        "_hex": "0x55f0"
      },
      "to": "0x8C93d2F70d641AC1F4cCc3287E2A1376Ce3c7DCC",
      "value": {
        "_hex": "0x2649bfde3c476bd0"
      },
      "nonce": 754,
      "data": "0x",
      "r": "0x05da03aba3f77e6355577fd752ed473f058ad5994f4ec2fccfe57c10344aa737",
      "s": "0x0b0012689f0e91f2db2ebf308c1da9f7797b44d5e2d8ce0a696858b334e5f272",
      "v": 27,
      "creates": null,
      "raw": "0xf86e8202f2850d581e070a8255f0948c93d2f70d641ac1f4ccc3287e2a1376ce3c7dcc882649bfde3c476bd0801ba005da03aba3f77e6355577fd752ed473f058ad5994f4ec2fccfe57c10344aa737a00b0012689f0e91f2db2ebf308c1da9f7797b44d5e2d8ce0a696858b334e5f272",
      "networkId": 0,
      "chainId": 0
    }
  ]
}