{
  "hash": "0x6ab56f9892ca130996e0831238ed212e4dba0107f3fec297c69c0618d59ecc18",
  "parentHash": "0xbf042e8db50c68db164d7578a072089fdbbf214ec8a3c5a7bd22df9eb8a6dd01",
  "number": 81820,
  "timestamp": 1439508430,
  "nonce": "0xe6b3d521d285554b",
  "difficulty": 2425870893134,
  "gasLimit": {
    "_hex": "0x2fefd8"
  },
  "gasUsed": {
    "_hex": "0xa674"
  },
  "miner": "0xf8E0CA3Ed80bd541b94BEdCf259e8CF2141A9523",
  "extraData": "0x476574682f76312e302e312f77696e646f77732f676f312e342e32",
  "transactions": [
    {
      "hash": "0x4a6b23a96182a088dc9f9f3a2efbe6be537afa22c989be225836a14ed0b537d0",
      "blockHash": "0x6ab56f9892ca130996e0831238ed212e4dba0107f3fec297c69c0618d59ecc18",
      "blockNumber": 81820,
      "transactionIndex": 0,
      "confirmations": null,
      "from": "0x8D1c6749EAB6Db364671E1e1a2f12711a977B184",
      "gasPrice": {
        "_hex": "0x1111a27b8bc"
      },
      "gasLimit": {
        "_hex": "0x59d8"
      },
      "to": "0x528419cd4425d074D168Ae82CdFc335076b09B2F",
      "value": {
        "_hex": "0xd851eca9f466c0000"
      },
      "nonce": 1,
      "data": "0x",
      "r": "0x84a0735a30c205d89a93ca370cac8632f963e6731fbaa1d7fa79de1b0ce12999",
      "s": "0x2a2926d4f0aba01f07c510a7b635682e5882409092f1279c2758024634a18930",
      "v": 27,
      "creates": null,
      "raw": "0xf86e018601111a27b8bc8259d894528419cd4425d074d168ae82cdfc335076b09b2f890d851eca9f466c0000801ba084a0735a30c205d89a93ca370cac8632f963e6731fbaa1d7fa79de1b0ce12999a02a2926d4f0aba01f07c510a7b635682e5882409092f1279c2758024634a18930",
      "networkId": 0,
      "chainId": 0
    },
    {
      "hash": "0x62db31445bfb9de8a06eef95dc6c715c9c8f33356e989aff00f0c93411803907",
      "blockHash": "0x6ab56f9892ca130996e0831238ed212e4dba0107f3fec297c69c0618d59ecc18",
      "blockNumber": 81820,
      "transactionIndex": 1,
      "confirmations": null,
      "from": "0x72393d37B451effB9e1Ff3b8552712e2A970D8c2",
      "gasPrice": {
        "_hex": "0x110c8f7d8de"
      },
      "gasLimit": {
        "_hex": "0xc350"
      },
      "to": "0x2910543Af39abA0Cd09dBb2D50200b3E800A63D2",
      "value": {
        "_hex": "0x354972f70071b90000"
      },
      "nonce": 1,
      "data": "0x454e41315648385247",
      "r": "0x1739e400cde19d6492eb7971d879c291111376cd9150495c000d064c6480bf43",
      "s": "0xffb7968a19fcce68d509da4548541f9e399e08b00db9505312820eebbbdcbc26",
      "v": 27,
      "creates": null,
      "raw": "0xf87701860110c8f7d8de82c350942910543af39aba0cd09dbb2d50200b3e800a63d289354972f70071b9000089454e413156483852471ba01739e400cde19d6492eb7971d879c291111376cd9150495c000d064c6480bf43a0ffb7968a19fcce68d509da4548541f9e399e08b00db9505312820eebbbdcbc26",
      "networkId": 0,
      "chainId": 0
    }
  ]
}