{
  "hash": "0x9994ed8730fa6847a1fd66edc4a7c8cd517567a55570e2f1d4047a6a06efffe0",
  "parentHash": "0xb750c3c79161d5868c35d298e8aa4bd1bf86340549db1c64ad648faa5124c0f6",
  "number": 68584,
  "timestamp": 1439290343,
  "nonce": "0x4d79d113acd189f8",
  "difficulty": 2018231344429,
  "gasLimit": {
    "_hex": "0x2fefd8"
  },
  "gasUsed": {
    "_hex": "0x12988c"
  },
  "miner": "0x893FF53FE9b3DA680472E1948F2294F970D44678",
  "extraData": "0x476574682f76312e302e312f6c696e75782f676f312e342e32",
  "transactions": [
    {
      "hash": "0x1efaca26d78f25b284e4d28cb6c7c85d677ae8e144e6ebf1a21b949cec0093f6",
      "blockHash": "0x9994ed8730fa6847a1fd66edc4a7c8cd517567a55570e2f1d4047a6a06efffe0",
      "blockNumber": 68584,
      "transactionIndex": 0,
      "confirmations": null,
      "from": "0xa5b6fb08c92C60b70EEA321110F27d7e06B8107d",
      "gasPrice": {
        "_hex": "0xba43b7400"
      },
      "gasLimit": {
        "_hex": "0x15f90"
      },
      "to": "0x793AE8C1b1a160BFc07BFB0d04F85eab1A71F4f2",
      "value": {
        "_hex": "0x0"
      },
      "nonce": 0,
      "data": "0x3ba15036",
      "r": "0x54b5c3705474c1a5a957f585c79dbc5b892f02b283c073d9799b49fea3c45bb0",
      "s": "0x41da11f1ecd31150c471dc47abf85b5eb25b0f84b2d094d67c10738d1fa86402",
      "v": 27,
      "creates": null,
      "raw": "0xf86980850ba43b740083015f9094793ae8c1b1a160bfc07bfb0d04f85eab1a71f4f280843ba150361ba054b5c3705474c1a5a957f585c79dbc5b892f02b283c073d9799b49fea3c45bb0a041da11f1ecd31150c471dc47abf85b5eb25b0f84b2d094d67c10738d1fa86402",
      "networkId": 0,
      "chainId": 0
    },
    {
      "hash": "0x26bbb5c1c788fc595b4b21f335097bdae15890eba831fe6f47a1a04a461e9e30",
      "blockHash": "0x9994ed8730fa6847a1fd66edc4a7c8cd517567a55570e2f1d4047a6a06efffe0",
      "blockNumber": 68584,
      "transactionIndex": 1,
      "confirmations": null,
      "from": "0x5074417265c5De26A51B4156410FD817c6c3382F",
      "gasPrice": {
        "_hex": "0xba43b7400"
      },
      "gasLimit": {
        "_hex": "0x15f90"
      },
      "to": "0x793AE8C1b1a160BFc07BFB0d04F85eab1A71F4f2",
      "value": {
        "_hex": "0x0"
      },
      "nonce": 0,
      "data": "0x3ba15036",
      "r": "0xcf7528b4b4dfc0d902b975e686d3a1bf30e433596b60088444c3d58f02ff6e86",
      "s": "0x65c00002938f81c77f7f136b72fe00923dbe9bc2e3c13499435998bb0bddeb83",
      "v": 28,
      "creates": null,
      "raw": "0xf86980850ba43b740083015f9094793ae8c1b1a160bfc07bfb0d04f85eab1a71f4f280843ba150361ca0cf7528b4b4dfc0d902b975e686d3a1bf30e433596b60088444c3d58f02ff6e86a065c00002938f81c77f7f136b72fe00923dbe9bc2e3c13499435998bb0bddeb83",
      "networkId": 0,
      "chainId": 0
    },
    {
      "hash": "0xc03cbd1ab20df43f8291c3b0b00a55b1d864ae3d607262f9d359c74153c60437",
      "blockHash": "0x9994ed8730fa6847a1fd66edc4a7c8cd517567a55570e2f1d4047a6a06efffe0",
      "blockNumber": 68584,
      "transactionIndex": 2,
      "confirmations": null,
      "from": "0x972006863a469Ca7cc32973a88616F45b74b40D8",
      "gasPrice": {
        "_hex": "0xba43b7400"
      },
      "gasLimit": {
        "_hex": "0x15f90"
      },
      "to": "0x793AE8C1b1a160BFc07BFB0d04F85eab1A71F4f2",
      "value": {
        "_hex": "0x0"
      },
      "nonce": 0,
      "data": "0x3ba15036",
      "r": "0x74e01e5736ffeb59eac97afda2eb05e838d4a5ecff2c4a64851c893d85eaafb5",
      "s": "0x03e7aeeddd34cff28e80770a74a37f959ea0c92d1c38de7d32d999d291703fcb",
      "v": 28,
      "creates": null,
      "raw": "0xf86980850ba43b740083015f9094793ae8c1b1a160bfc07bfb0d04f85eab1a71f4f280843ba150361ca074e01e5736ffeb59eac97afda2eb05e838d4a5ecff2c4a64851c893d85eaafb5a003e7aeeddd34cff28e80770a74a37f959ea0c92d1c38de7d32d999d291703fcb",
      "networkId": 0,
      "chainId": 0
    },
    {
      "hash": "0xd2183d71c0aba9de6314ca70e7d8039ed893e5687b81c53fcc6a2feab9fd1b2a",
      "blockHash": "0x9994ed8730fa6847a1fd66edc4a7c8cd517567a55570e2f1d4047a6a06efffe0",
      "blockNumber": 68584,
      "transactionIndex": 3,
      "confirmations": null,
      "from": "0x7E9e3a1b2928dB8ee074A3F8ec4b8cf9985dC7F7",
      "gasPrice": {
        "_hex": "0xba43b7400"
      },
      "gasLimit": {
        "_hex": "0x15f90"
      },
      "to": "0x793AE8C1b1a160BFc07BFB0d04F85eab1A71F4f2",
      "value": {
        "_hex": "0x0"
      },
      "nonce": 0,
      "data": "0x3ba15036",
      "r": "0x99b0c5976ec1caf14e2d4143e5c469fbc38e1dcac3f2218013149e63e708f6a5",
      "s": "0x3807eee5c30979f5cb80227b5e7c6a682ee8aa093a02ba733096c74c15ba1a9f",
      "v": 28,
      "creates": null,
      "raw": "0xf86980850ba43b740083015f9094793ae8c1b1a160bfc07bfb0d04f85eab1a71f4f280843ba150361ca099b0c5976ec1caf14e2d4143e5c469fbc38e1dcac3f2218013149e63e708f6a5a03807eee5c30979f5cb80227b5e7c6a682ee8aa093a02ba733096c74c15ba1a9f",
      "networkId": 0,
      "chainId": 0
    },
    {
      "hash": "0xe61e5b8a049ceafc39755ec10ae23390aecdf260a059f9a28a0d5f146efc05c3",
      "blockHash": "0x9994ed8730fa6847a1fd66edc4a7c8cd517567a55570e2f1d4047a6a06efffe0",
      "blockNumber": 68584,
      "transactionIndex": 4,
      "confirmations": null,
      "from": "0xaD89a413e3790886127BB8c1f4fa6dD29De06696",
      "gasPrice": {
        "_hex": "0xba43b7400"
      },
      "gasLimit": {
        "_hex": "0x15f90"
      },
      "to": "0x793AE8C1b1a160BFc07BFB0d04F85eab1A71F4f2",
      "value": {
        "_hex": "0x0"
      },
      "nonce": 0,
      "data": "0x3ba15036",
      "r": "0x548954da21f4c058229f517e31a26e0a2c8294e37f64f7d9b96fa8055a5ac027",
      "s": "0x341b5bdda6d74b68226f55d5b181216e9301421c8b16499885a306ddf07bd56a",
      "v": 27,
      "creates": null,
      "raw": "0xf86980850ba43b740083015f9094793ae8c1b1a160bfc07bfb0d04f85eab1a71f4f280843ba150361ba0548954da21f4c058229f517e31a26e0a2c8294e37f64f7d9b96fa8055a5ac027a0341b5bdda6d74b68226f55d5b181216e9301421c8b16499885a306ddf07bd56a",
      "networkId": 0,
      "chainId": 0
    },
    {
      "hash": "0x802b2fe18e86955f6a955ef1b7a8d2dbccf1f07cfa4f581232713b2e714612b0",
      "blockHash": "0x9994ed8730fa6847a1fd66edc4a7c8cd517567a55570e2f1d4047a6a06efffe0",
      "blockNumber": 68584,
      "transactionIndex": 5,
      "confirmations": null,
      "from": "0x1A7fCECD673546f0C71AF34862B1A88F722E7A2b",
      "gasPrice": {
        "_hex": "0xba43b7400"
      },
      "gasLimit": {
        "_hex": "0x15f90"
      },
      "to": "0x793AE8C1b1a160BFc07BFB0d04F85eab1A71F4f2",
      "value": {
        "_hex": "0x0"
      },
      "nonce": 0,
      "data": "0x3ba15036",
      "r": "0x264dfc8c62f58f2e96e05e1fd62b6c07150706d623e71e1b7798219bccc16172",
      "s": "0x6e4476783398e4a98f9dd10e37c2b2651ff60dba4321b98b13e925c9e193ddcc",
      "v": 28,
      "creates": null,
      "raw": "0xf86980850ba43b740083015f9094793ae8c1b1a160bfc07bfb0d04f85eab1a71f4f280843ba150361ca0264dfc8c62f58f2e96e05e1fd62b6c07150706d623e71e1b7798219bccc16172a06e4476783398e4a98f9dd10e37c2b2651ff60dba4321b98b13e925c9e193ddcc",
      "networkId": 0,
      "chainId": 0
    },
    {
      "hash": "0x774eb6ddb8ee0a2ebaa88a4710ebdafe94dbeb829e012b415316f8284574e9cf",
      "blockHash": "0x9994ed8730fa6847a1fd66edc4a7c8cd517567a55570e2f1d4047a6a06efffe0",
      "blockNumber": 68584,
      "transactionIndex": 6,
      "confirmations": null,
      "from": "0xcA960466327B701f97eab0F769Bb6b47D7e4f1A5",
      "gasPrice": {
        "_hex": "0xba43b7400"
      },
      "gasLimit": {
        "_hex": "0x15f90"
      },
      "to": "0x793AE8C1b1a160BFc07BFB0d04F85eab1A71F4f2",
      "value": {
        "_hex": "0x0"
      },
      "nonce": 0,
      "data": "0x3ba15036",
      "r": "0x5627a554827ba6eb3a10626cc53aee553830b5ca38d7f912ade09135f2c18652",
      "s": "0x5819f1858f421bbbdf3621e23403a02e932e2b94ab50cc848fc1d2ff1d450096",
      "v": 27,
      "creates": null,
      "raw": "0xf86980850ba43b740083015f9094793ae8c1b1a160bfc07bfb0d04f85eab1a71f4f280843ba150361ba05627a554827ba6eb3a10626cc53aee553830b5ca38d7f912ade09135f2c18652a05819f1858f421bbbdf3621e23403a02e932e2b94ab50cc848fc1d2ff1d450096",
      "networkId": 0,
      "chainId": 0
    },
    {
      "hash": "0xa35c2a491ae98b2ef40aa2051cb685448fb6e905cc7daa74392e67dd4a5d494b",
      "blockHash": "0x9994ed8730fa6847a1fd66edc4a7c8cd517567a55570e2f1d4047a6a06efffe0",
      "blockNumber": 68584,
      "transactionIndex": 7,
      "confirmations": null,
      "from": "0xFE25eF71767D111F0D97993357D967bdC709C442",
      "gasPrice": {
        "_hex": "0xba43b7400"
      },
      "gasLimit": {
        "_hex": "0x15f90"
      },
      "to": "0x793AE8C1b1a160BFc07BFB0d04F85eab1A71F4f2",
      "value": {
        "_hex": "0x0"
      },
      "nonce": 0,
      "data": "0x3ba15036",
      "r": "0x3921ba3c06593601f33bef289f2439eade111e5cc25a7adcb7a572467eb05988",
      "s": "0x48e8c2586b3488639f1d03eb02d0127d535ac4a541af2c08627e685bc85dd659",
      "v": 27,
      "creates": null,
      "raw": "0xf86980850ba43b740083015f9094793ae8c1b1a160bfc07bfb0d04f85eab1a71f4f280843ba150361ba03921ba3c06593601f33bef289f2439eade111e5cc25a7adcb7a572467eb05988a048e8c2586b3488639f1d03eb02d0127d535ac4a541af2c08627e685bc85dd659",
      "networkId": 0,
      "chainId": 0
    },
    {
      "hash": "0x4197bcd5f48f6c74ca0caa45a44a8036b11aac0e82b127c695f4931637a7a9ad",
      "blockHash": "0x9994ed8730fa6847a1fd66edc4a7c8cd517567a55570e2f1d4047a6a06efffe0",
      "blockNumber": 68584,
      "transactionIndex": 8,
      "confirmations": null,
      "from": "0x03f3aBb578740b10C28DF354A3aAa15b1Bc13061",
      "gasPrice": {
        "_hex": "0xba43b7400"
      },
      "gasLimit": {
        "_hex": "0x15f90"
      },
      "to": "0x793AE8C1b1a160BFc07BFB0d04F85eab1A71F4f2",
      "value": {
        "_hex": "0x0"
      },
      "nonce": 0,
      "data": "0x3ba15036",
      "r": "0xe34ec81a025a7f63a2160bafce5593518b769f4171747c789ad846a2a34109a7",
      "s": "0x1e8754d4571a042f40fe24cc70507ab1fe127c9ea817a0913a55a05d8f73658e",
      "v": 27,
      "creates": null,
      "raw": "0xf86980850ba43b740083015f9094793ae8c1b1a160bfc07bfb0d04f85eab1a71f4f280843ba150361ba0e34ec81a025a7f63a2160bafce5593518b769f4171747c789ad846a2a34109a7a01e8754d4571a042f40fe24cc70507ab1fe127c9ea817a0913a55a05d8f73658e",
      "networkId": 0,
      "chainId": 0
    },
    {
      "hash": "0x8d8e08cfd3f1c5fb1c450f99eeb9b2e3620cdf7e8bfc9c0456a6b11455cc7d55",
      "blockHash": "0x9994ed8730fa6847a1fd66edc4a7c8cd517567a55570e2f1d4047a6a06efffe0",
      "blockNumber": 68584,
      "transactionIndex": 9,
      "confirmations": null,
      "from": "0x326D75Effd4FD0267106A1cFa2c48C55759FD42C",
      "gasPrice": {
        "_hex": "0xba43b7400"
      },
      "gasLimit": {
        "_hex": "0x15f90"
      },
      "to": "0x793AE8C1b1a160BFc07BFB0d04F85eab1A71F4f2",
      "value": {
        "_hex": "0x0"
      },
      "nonce": 0,
      "data": "0x3ba15036",
      "r": "0x35da25a537ace55e0c9b1ad12260e56d17e7bf659474aa804e28d2ff364d89f2",
      "s": "0x47eccff3bb4ec45a76fdc75353cab6261729b4a4b110435156c5f015a8e487b2",
      "v": 27,
      "creates": null,
      "raw": "0xf86980850ba43b740083015f9094793ae8c1b1a160bfc07bfb0d04f85eab1a71f4f280843ba150361ba035da25a537ace55e0c9b1ad12260e56d17e7bf659474aa804e28d2ff364d89f2a047eccff3bb4ec45a76fdc75353cab6261729b4a4b110435156c5f015a8e487b2",
      "networkId": 0,
      "chainId": 0
    },
    {
      "hash": "0x40b64c45ea11b76bcb2f1a06a3e56f666d1cf2abe3fb892a5c36d82dcde92f8f",
      "blockHash": "0x9994ed8730fa6847a1fd66edc4a7c8cd517567a55570e2f1d4047a6a06efffe0",
      "blockNumber": 68584,
      "transactionIndex": 10,
      "confirmations": null,
      "from": "0xf8BbDE2F4012bb68f9376b209fD0f946e3CFde47",
      "gasPrice": {
        "_hex": "0xba43b7400"
      },
      "gasLimit": {
        "_hex": "0x15f90"
      },
      "to": "0x793AE8C1b1a160BFc07BFB0d04F85eab1A71F4f2",
      "value": {
        "_hex": "0x0"
      },
      "nonce": 0,
      "data": "0x3ba15036",
      "r": "0xbb1deb87c8d08a1ead2383f6cd30ef72558db0f355881373ffa67d55e01c2f05",
      "s": "0x25b9d5fec79b4c46d60ab4f49d11a96b969cdd6eb1a0cac415b66ff4db3a5e58",
      "v": 27,
      "creates": null,
      "raw": "0xf86980850ba43b740083015f9094793ae8c1b1a160bfc07bfb0d04f85eab1a71f4f280843ba150361ba0bb1deb87c8d08a1ead2383f6cd30ef72558db0f355881373ffa67d55e01c2f05a025b9d5fec79b4c46d60ab4f49d11a96b969cdd6eb1a0cac415b66ff4db3a5e58",
      "networkId": 0,
      "chainId": 0
    },
    {
      "hash": "0xeb5a2834098ce1d73e82a706cdb2f84cc2122a94f0005de6a326c066b0907d53",
      "blockHash": "0x9994ed8730fa6847a1fd66edc4a7c8cd517567a55570e2f1d4047a6a06efffe0",
      "blockNumber": 68584,
      "transactionIndex": 11,
      "confirmations": null,
      "from": "0xF3806c5a5cA7217a11c8D352729f6674916F3e8a",
      "gasPrice": {
        "_hex": "0xba43b7400"
      },
      "gasLimit": {
        "_hex": "0x15f90"
      },
      "to": "0x793AE8C1b1a160BFc07BFB0d04F85eab1A71F4f2",
      "value": {
        "_hex": "0x0"
      },
      "nonce": 0,
      "data": "0x3ba15036",
      "r": "0x1621c05b88445c0eee4be63bd375f386dc216d091658953706fadba6a6f32b1a",
      "s": "0x251bd58ba67cec06424e5fb63a1d3a978c0c147a23b56838cb5743881a75edb8",
      "v": 28,
      "creates": null,
      "raw": "0xf86980850ba43b740083015f9094793ae8c1b1a160bfc07bfb0d04f85eab1a71f4f280843ba150361ca01621c05b88445c0eee4be63bd375f386dc216d091658953706fadba6a6f32b1aa0251bd58ba67cec06424e5fb63a1d3a978c0c147a23b56838cb5743881a75edb8",
      "networkId": 0,
      "chainId": 0
    },
    {
      "hash": "0x9a10809da68399d32e17544ac715d8e00ebe99a0eff0b901eb2bd3d215614572",
      "blockHash": "0x9994ed8730fa6847a1fd66edc4a7c8cd517567a55570e2f1d4047a6a06efffe0",
      "blockNumber": 68584,
      "transactionIndex": 12,
      "confirmations": null,
      "from": "0x973C8931b03E5Cd01bee81F6777cC0A7F0cd3b31",
      "gasPrice": {
        "_hex": "0xba43b7400"
      },
      "gasLimit": {
        "_hex": "0x15f90"
      },
      "to": "0x793AE8C1b1a160BFc07BFB0d04F85eab1A71F4f2",
      "value": {
        "_hex": "0x0"
      },
      "nonce": 0,
      "data": "0x3ba15036",
      "r": "0xbf5b1a0f4ca7e04c7d8de472307e399334f0f15fe457d6a9956acc991891e9af",
      "s": "0x17aa19c0b509b253cb4676737623db2948e8dd07c8204a346a9367464a55a680",
      "v": 27,
      "creates": null,
      "raw": "0xf86980850ba43b740083015f9094793ae8c1b1a160bfc07bfb0d04f85eab1a71f4f280843ba150361ba0bf5b1a0f4ca7e04c7d8de472307e399334f0f15fe457d6a9956acc991891e9afa017aa19c0b509b253cb4676737623db2948e8dd07c8204a346a9367464a55a680",
      "networkId": 0,
      "chainId": 0
    },
    {
      "hash": "0xd31b935053502a7b43e1212bbefee71b1d5e98e3aca68626a3978055918eb3e3",
      "blockHash": "0x9994ed8730fa6847a1fd66edc4a7c8cd517567a55570e2f1d4047a6a06efffe0",
      "blockNumber": 68584,
      "transactionIndex": 13,
      "confirmations": null,
      "from": "0xcDFEE001CC85eEAe29a5368877E0D13B6a068b11",
      "gasPrice": {
        "_hex": "0xba43b7400"
      },
      "gasLimit": {
        "_hex": "0x15f90"
      },
      "to": "0x793AE8C1b1a160BFc07BFB0d04F85eab1A71F4f2",
      "value": {
        "_hex": "0x0"
      },
      "nonce": 0,
      "data": "0x3ba15036",
      "r": "0xc24cab32a9419ae5cb5f5efb3c12427c197d07f307283d94cb2f6c7b0985c568",
      "s": "0x6fbf0720fe637e794911dbd71a956eb869504a98f4aa491936a96aff0b3f25ea",
      "v": 28,
      "creates": null,
      "raw": "0xf86980850ba43b740083015f9094793ae8c1b1a160bfc07bfb0d04f85eab1a71f4f280843ba150361ca0c24cab32a9419ae5cb5f5efb3c12427c197d07f307283d94cb2f6c7b0985c568a06fbf0720fe637e794911dbd71a956eb869504a98f4aa491936a96aff0b3f25ea",
      "networkId": 0,
      "chainId": 0
    },
    {
      "hash": "0x2b32a93f25322416da1cb164d378cdb508dcdfa52d282e98ec4c6697ae6ec991",
      "blockHash": "0x9994ed8730fa6847a1fd66edc4a7c8cd517567a55570e2f1d4047a6a06efffe0",
      "blockNumber": 68584,
      "transactionIndex": 14,
      "confirmations": null,
      "from": "0x3eee97bf355FCAFcbed5665b3c30165C85af571E",
      "gasPrice": {
        "_hex": "0xba43b7400"
      },
      "gasLimit": {
        "_hex": "0x15f90"
      },
      "to": "0x793AE8C1b1a160BFc07BFB0d04F85eab1A71F4f2",
      "value": {
        "_hex": "0x0"
      },
      "nonce": 0,
      "data": "0x3ba15036",
      "r": "0x08697374cb20b70148072c60df51ab2cf5d455ab5e427b4f7cb488a5c165c538",
      "s": "0x7d0d7b467b9c0aa268007dc66082bf11e49fa2a1ae0ac857d0c91276d11b6568",
      "v": 27,
      "creates": null,
      "raw": "0xf86980850ba43b740083015f9094793ae8c1b1a160bfc07bfb0d04f85eab1a71f4f280843ba150361ba008697374cb20b70148072c60df51ab2cf5d455ab5e427b4f7cb488a5c165c538a07d0d7b467b9c0aa268007dc66082bf11e49fa2a1ae0ac857d0c91276d11b6568",
      "networkId": 0,
      "chainId": 0
    },
    {
      "hash": "0xf8533d258c18477ca9aa524437402047c3ebd07ee3429fee3dd09320f333aad5",
      "blockHash": "0x9994ed8730fa6847a1fd66edc4a7c8cd517567a55570e2f1d4047a6a06efffe0",
      "blockNumber": 68584,
      "transactionIndex": 15,
      "confirmations": null,
      "from": "0xbf586c83bA7ADc64FD85A077CeA9f8Ca03014dae",
      "gasPrice": {
        "_hex": "0xba43b7400"
      },
      "gasLimit": {
        "_hex": "0x15f90"
      },
      "to": "0x793AE8C1b1a160BFc07BFB0d04F85eab1A71F4f2",
      "value": {
        "_hex": "0x0"
      },
      "nonce": 0,
      "data": "0x3ba15036",
      "r": "0x2104c3eb5ddafeebb0ea6a29aecfadb163904991c99e6f2f7d1ef87aa8325bbd",
      "s": "0x065f81b925ccb05ca28d1dd80fe43d54b58eda672bd28f3240b99b84e347eec4",
      "v": 28,
      "creates": null,
      "raw": "0xf86980850ba43b740083015f9094793ae8c1b1a160bfc07bfb0d04f85eab1a71f4f280843ba150361ca02104c3eb5ddafeebb0ea6a29aecfadb163904991c99e6f2f7d1ef87aa8325bbda0065f81b925ccb05ca28d1dd80fe43d54b58eda672bd28f3240b99b84e347eec4",
      "networkId": 0,
      "chainId": 0
    },
    {
      "hash": "0xbdf92182b7b2636c71dad77b1de6265d7d29c6a886f8305d6abcd81ac9a030c0",
      "blockHash": "0x9994ed8730fa6847a1fd66edc4a7c8cd517567a55570e2f1d4047a6a06efffe0",
      "blockNumber": 68584,
      "transactionIndex": 16,
      "confirmations": null,
      "from": "0xAcC0e17A3C457701D5582c5A8604fd17708E9AAD",
      "gasPrice": {
        "_hex": "0xba43b7400"
      },
      "gasLimit": {
        "_hex": "0x15f90"
      },
      "to": "0x793AE8C1b1a160BFc07BFB0d04F85eab1A71F4f2",
      "value": {
        "_hex": "0x0"
      },
      "nonce": 0,
      "data": "0x3ba15036",
      "r": "0x3db5497daefafde8911846fa3eb3ac6897d0bfb99611c13dde54454262907fc7",
      "s": "0x395b44ddd4bb34b1af499de03d51c372532c5e454fece1c9b470478c50ef8c16",
      "v": 28,
      "creates": null,
      "raw": "0xf86980850ba43b740083015f9094793ae8c1b1a160bfc07bfb0d04f85eab1a71f4f280843ba150361ca03db5497daefafde8911846fa3eb3ac6897d0bfb99611c13dde54454262907fc7a0395b44ddd4bb34b1af499de03d51c372532c5e454fece1c9b470478c50ef8c16",
      "networkId": 0,
      "chainId": 0
    },
    {
      "hash": "0x5f5bb80beaccf5e2758fd774d655e193a3dd7ba5aba4b206efbbaf91f516cc8a",
      "blockHash": "0x9994ed8730fa6847a1fd66edc4a7c8cd517567a55570e2f1d4047a6a06efffe0",
      "blockNumber": 68584,
      "transactionIndex": 17,
      "confirmations": null,
      "from": "0x0A433839C7BCF89DE8b85eBf553c29FBc4184295",
      "gasPrice": {
        "_hex": "0xba43b7400"
      },
      "gasLimit": {
        "_hex": "0x15f90"
      },
      "to": "0x793AE8C1b1a160BFc07BFB0d04F85eab1A71F4f2",
      "value": {
        "_hex": "0x0"
      },
      "nonce": 0,
      "data": "0x3ba15036",
      "r": "0xf7a587964bc6964c7db8ee62f1fe798c508a2c395c7868b5327b2cb0387f75e8",
      "s": "0x52359aff349532c57a35ee092a398a222bde67a86fededac9c654a56da101eb1",
      "v": 28,
      "creates": null,
      "raw": "0xf86980850ba43b740083015f9094793ae8c1b1a160bfc07bfb0d04f85eab1a71f4f280843ba150361ca0f7a587964bc6964c7db8ee62f1fe798c508a2c395c7868b5327b2cb0387f75e8a052359aff349532c57a35ee092a398a222bde67a86fededac9c654a56da101eb1",
      "networkId": 0,
      "chainId": 0
    },
    {
      "hash": "0x200e0c3235ba21b4f337f13947b6f77294cc5998e3c1e6c3a269961c5a4e4cae",
      "blockHash": "0x9994ed8730fa6847a1fd66edc4a7c8cd517567a55570e2f1d4047a6a06efffe0",
      "blockNumber": 68584,
      "transactionIndex": 18,
      "confirmations": null,
      "from": "0x0C5eCca86bFA7E743fA6d3eAD22Ba3a06DbcBe67",
      "gasPrice": {
        "_hex": "0xba43b7400"
      },
      "gasLimit": {
        "_hex": "0x15f90"
      },
      "to": "0x793AE8C1b1a160BFc07BFB0d04F85eab1A71F4f2",
      "value": {
        "_hex": "0x0"
      },
      "nonce": 0,
      "data": "0x3ba15036",
      "r": "0x6b70bef35350b712221632bc427920da5c4b18551fe7e3ac4350cec87ce01c9f",
      "s": "0x0460f9ae66fe892474ccbe09d736d82cc2228ef158ecda848cd5271a967f6262",
      "v": 28,
      "creates": null,
      "raw": "0xf86980850ba43b740083015f9094793ae8c1b1a160bfc07bfb0d04f85eab1a71f4f280843ba150361ca06b70bef35350b712221632bc427920da5c4b18551fe7e3ac4350cec87ce01c9fa00460f9ae66fe892474ccbe09d736d82cc2228ef158ecda848cd5271a967f6262",
      "networkId": 0,
      "chainId": 0
    },
    {
      "hash": "0x58c97fe153e795fe7c7dc239847ea860452fd3af26b3ca18b37964023b7ea92e",
      "blockHash": "0x9994ed8730fa6847a1fd66edc4a7c8cd517567a55570e2f1d4047a6a06efffe0",
      "blockNumber": 68584,
      "transactionIndex": 19,
      "confirmations": null,
      "from": "0xF005455494Edd4238431E3eA634Bd4ACf7608D26",
      "gasPrice": {
        "_hex": "0xba43b7400"
      },
      "gasLimit": {
        "_hex": "0x15f90"
      },
      "to": "0x793AE8C1b1a160BFc07BFB0d04F85eab1A71F4f2",
      "value": {
        "_hex": "0x0"
      },
      "nonce": 0,
      "data": "0x3ba15036",
      "r": "0xdd21aceedfc52e7332959185b685b0108256a3ebe3656124d8587b212b986520",
      "s": "0x67c3898da2916c1e2f0470b2db03116bfc348c75dbe03e5c2309603fc9fb2bf7",
      "v": 27,
      "creates": null,
      "raw": "0xf86980850ba43b740083015f9094793ae8c1b1a160bfc07bfb0d04f85eab1a71f4f280843ba150361ba0dd21aceedfc52e7332959185b685b0108256a3ebe3656124d8587b212b986520a067c3898da2916c1e2f0470b2db03116bfc348c75dbe03e5c2309603fc9fb2bf7",
      "networkId": 0,
      "chainId": 0
    },
    {
      "hash": "0xac61b9fc17c28eb917a72ab7305cedb2122a324e406927b6da7fa6ae09cdd382",
      "blockHash": "0x9994ed8730fa6847a1fd66edc4a7c8cd517567a55570e2f1d4047a6a06efffe0",
      "blockNumber": 68584,
      "transactionIndex": 20,
      "confirmations": null,
      "from": "0x60c7D291ceA9ee75B35ce9574DcA3B497aB9e1A1",
      "gasPrice": {
        "_hex": "0xba43b7400"
      },
      "gasLimit": {
        "_hex": "0x15f90"
      },
      "to": "0x793AE8C1b1a160BFc07BFB0d04F85eab1A71F4f2",
      "value": {
        "_hex": "0x0"
      },
      "nonce": 0,
      "data": "0x3ba15036",
      "r": "0x9f932edd4517d010d14436d6b0d1080505f7b6f252a1c04a77719cc77d36f667",
      "s": "0x1ac91d20040d105596010f89f2567618cb5b997f3afaa823aa13649c28804389",
      "v": 27,
      "creates": null,
      "raw": "0xf86980850ba43b740083015f9094793ae8c1b1a160bfc07bfb0d04f85eab1a71f4f280843ba150361ba09f932edd4517d010d14436d6b0d1080505f7b6f252a1c04a77719cc77d36f667a01ac91d20040d105596010f89f2567618cb5b997f3afaa823aa13649c28804389",
      "networkId": 0,
      "chainId": 0
    },
    {
      "hash": "0xe1482641fcaac33ee821f5e8f5256547a62247ec4aae4af3eb2e20e018672744",
      "blockHash": "0x9994ed8730fa6847a1fd66edc4a7c8cd517567a55570e2f1d4047a6a06efffe0",
      "blockNumber": 68584,
      "transactionIndex": 21,
      "confirmations": null,
      "from": "0x447781dB0b7A64b6AfbC75bDaD4e3DbbC1AbD959",
      "gasPrice": {
        "_hex": "0xba43b7400"
      },
      "gasLimit": {
        "_hex": "0x15f90"
      },
      "to": "0x793AE8C1b1a160BFc07BFB0d04F85eab1A71F4f2",
      "value": {
        "_hex": "0x0"
      },
      "nonce": 0,
      "data": "0x3ba15036",
      "r": "0xda79aaac8da8cccccf2a689455596136080edfdfe1a26bf3b63f86d30a28fd07",
      "s": "0x1f6b660c424279babbbd6f78e972a37b6517d2ef2d245c63dbed5cddac901a8b",
      "v": 27,
      "creates": null,
      "raw": "0xf86980850ba43b740083015f9094793ae8c1b1a160bfc07bfb0d04f85eab1a71f4f280843ba150361ba0da79aaac8da8cccccf2a689455596136080edfdfe1a26bf3b63f86d30a28fd07a01f6b660c424279babbbd6f78e972a37b6517d2ef2d245c63dbed5cddac901a8b",
      "networkId": 0,
      "chainId": 0
    },
    {
      "hash": "0x23d14a26bde7a064686a1b08ffd9fa8fca54dbe18a1643138995a5e37e60884e",
      "blockHash": "0x9994ed8730fa6847a1fd66edc4a7c8cd517567a55570e2f1d4047a6a06efffe0",
      "blockNumber": 68584,
      "transactionIndex": 22,
      "confirmations": null,
      "from": "0x32728d6184d9a6AbD2541294D4CbdE925924291a",
      "gasPrice": {
        "_hex": "0xba43b7400"
      },
      "gasLimit": {
        "_hex": "0x15f90"
      },
      "to": "0x793AE8C1b1a160BFc07BFB0d04F85eab1A71F4f2",
      "value": {
        "_hex": "0x0"
      },
      "nonce": 0,
      "data": "0x3ba15036",
      "r": "0x77a26fb24f03270c1768a8ace9f1699671e5de9eb69ac483ff961b3d3467ead4",
      "s": "0x14f93a347715c05ba9828640fe8f9e8c4ec103035a0fba7d1f52e8eecbfe5146",
      "v": 28,
      "creates": null,
      "raw": "0xf86980850ba43b740083015f9094793ae8c1b1a160bfc07bfb0d04f85eab1a71f4f280843ba150361ca077a26fb24f03270c1768a8ace9f1699671e5de9eb69ac483ff961b3d3467ead4a014f93a347715c05ba9828640fe8f9e8c4ec103035a0fba7d1f52e8eecbfe5146",
      "networkId": 0,
      "chainId": 0
    },
    {
      "hash": "0x6b5af4022f00ebe53313d187440d216ef211eac6fd95b339af429c193f9e5518",
      "blockHash": "0x9994ed8730fa6847a1fd66edc4a7c8cd517567a55570e2f1d4047a6a06efffe0",
      "blockNumber": 68584,
      "transactionIndex": 23,
      "confirmations": null,
      "from": "0x2cD844259392844A28cE9b17664e04862A85571F",
      "gasPrice": {
        "_hex": "0xba43b7400"
      },
      "gasLimit": {
        "_hex": "0x15f90"
      },
      "to": "0x793AE8C1b1a160BFc07BFB0d04F85eab1A71F4f2",
      "value": {
        "_hex": "0x0"
      },
      "nonce": 0,
      "data": "0x3ba15036",
      "r": "0xa0f95f39ff22fc0991006f909feff51d06d7cff470a6cb8c441f1bc8338002cd",
      "s": "0x75147fc5e4c43ae990aef4dc2ae6c65c3afcc7a12c36c729f2c0001e2869940f",
      "v": 27,
      "creates": null,
      "raw": "0xf86980850ba43b740083015f9094793ae8c1b1a160bfc07bfb0d04f85eab1a71f4f280843ba150361ba0a0f95f39ff22fc0991006f909feff51d06d7cff470a6cb8c441f1bc8338002cda075147fc5e4c43ae990aef4dc2ae6c65c3afcc7a12c36c729f2c0001e2869940f",
      "networkId": 0,
      "chainId": 0
    },
    {
      "hash": "0x908b8a185eb089c2e17ea60cbef6f47a4dfac73d0d98ecb5af07d9998823bd05",
      "blockHash": "0x9994ed8730fa6847a1fd66edc4a7c8cd517567a55570e2f1d4047a6a06efffe0",
      "blockNumber": 68584,
      "transactionIndex": 24,
      "confirmations": null,
      "from": "0x680a0E42aF0EA1752277AEC2bB89000Fb18A2f09",
      "gasPrice": {
        "_hex": "0xba43b7400"
      },
      "gasLimit": {
        "_hex": "0x15f90"
      },
      "to": "0x793AE8C1b1a160BFc07BFB0d04F85eab1A71F4f2",
      "value": {
        "_hex": "0x0"
      },
      "nonce": 0,
      "data": "0x3ba15036",
      "r": "0x12a25dc3242d5f8345074492d172a63451c7c9a27e68443b6484aa61e32617f1",
      "s": "0x27494b5267391ac80810285bff34d9d0c1cb1dbf407f08c92e5e88c93c3333bc",
      "v": 27,
      "creates": null,
      "raw": "0xf86980850ba43b740083015f9094793ae8c1b1a160bfc07bfb0d04f85eab1a71f4f280843ba150361ba012a25dc3242d5f8345074492d172a63451c7c9a27e68443b6484aa61e32617f1a027494b5267391ac80810285bff34d9d0c1cb1dbf407f08c92e5e88c93c3333bc",
      "networkId": 0,
      "chainId": 0
    }
  ]
}