{
  "hash": "0x3301aaa154be839b5cb505d4d9855e8ef5a7282493b4bf1492bfdab2082855ff",
  "parentHash": "0x3b3d44b1a50c626cf6938713f9406c7be0e1ef8b475468e029586d4e40eea5bf",
  "number": 46783,
  "timestamp": 1438929076,
  "nonce": "0x00a1501a84eb07f1",
  "difficulty": 1459596832990,
  "gasLimit": {
    "_hex": "0x785d"
  },
  "gasUsed": {
    "_hex": "0x5208"
  },
  "miner": "0xbb7B8287f3F0a933474a79eAe42CBCa977791171",
  "extraData": "0x476574682f4c5649562f76312e302e312f6c696e75782f676f312e342e32",
  "transactions": [
    {
      "hash": "0x6b2cf4ee59534bb2549f632f4f4a8f276540ba6e697698bf756f145b807e94d6",
      "blockHash": "0x3301aaa154be839b5cb505d4d9855e8ef5a7282493b4bf1492bfdab2082855ff",
      "blockNumber": 46783,
      "transactionIndex": 0,
      "confirmations": null,
      "from": "0xb583f9403De6C5B2c83D7e2DE9928331176071b8",
      "gasPrice": {
        "_hex": "0xd1943ab43"
      },
      "gasLimit": {
        "_hex": "0x5208"
      },
      "to": "0x32Be343B94f860124dC4fEe278FDCBD38C102D88",
      "value": {
        "_hex": "0xddc84328be9e400"
      },
      "nonce": 1,
      "data": "0x",
      "r": "0xb511561433e75fc9366896409fb0f8eee1d7db466c750716130fdc3198120f81",
      "s": "0x742321b3d05c5beebcf67c8efd77a6eda33feac7bd21b0309590de29c791651d",
      "v": 27,
      "creates": null,
      "raw": "0xf86c01850d1943ab438252089432be343b94f860124dc4fee278fdcbd38c102d88880ddc84328be9e400801ba0b511561433e75fc9366896409fb0f8eee1d7db466c750716130fdc3198120f81a0742321b3d05c5beebcf67c8efd77a6eda33feac7bd21b0309590de29c791651d",
      "networkId": 0,
      "chainId": 0
    }
  ]
}