{
  "hash": "0xfd172bc6ac7f26ebce33da4367ec8f4323c4ddc7fca10624aad467c907fce993",
  "parentHash": "0x6968dc473df72a584b77e7ddfc1bbb25fb81f7ac8b80c63e49d11ffadb07d61e",
  "number": 97141,
  "timestamp": 1439751465,
  "nonce": "0xe11a0abb751c016f",
  "difficulty": 3759573899663,
  "gasLimit": {
    "_hex": "0x2fefd8"
  },
  "gasUsed": {
    "_hex": "0x5208"
  },
  "miner": "0xA21Ba94e45f0E168dA824fC67aC9cb5Cb577a8aF",
  "extraData": "0x",
  "transactions": [
    {
      "hash": "0xb08dd03f27d3955a9f731c6aab90ea37406a9606491afba1a1232d8b5725cd12",
      "blockHash": "0xfd172bc6ac7f26ebce33da4367ec8f4323c4ddc7fca10624aad467c907fce993",
      "blockNumber": 97141,
      "transactionIndex": 0,
      "confirmations": null,
      "from": "0xA143616A882230de7571d01f1916F0A781d6480a",
      "gasPrice": {
        "_hex": "0xd1976051d"
      },
      "gasLimit": {
        "_hex": "0x5208"
      },
      "to": "0x32Be343B94f860124dC4fEe278FDCBD38C102D88",
      "value": {
        "_hex": "0x4fbe23dc4437f00000"
      },
      "nonce": 5,
      "data": "0x",
      "r": "0x2a43edefdcd628b5b53e2280b6cfe258c5315e6683475698991ea4ce45bf0ede",
      "s": "0x2611ee3a5144c0f1f0ce84063586b0f3f291e36219333d29ae8854a971e21a63",
      "v": 27,
      "creates": null,
      "raw": "0xf86d05850d1976051d8252089432be343b94f860124dc4fee278fdcbd38c102d88894fbe23dc4437f00000801ba02a43edefdcd628b5b53e2280b6cfe258c5315e6683475698991ea4ce45bf0edea02611ee3a5144c0f1f0ce84063586b0f3f291e36219333d29ae8854a971e21a63",
      "networkId": 0,
      "chainId": 0
    }
  ]
}