{
  "hash": "0x3708f514803d8258f187b8b781613bac95731b4eaef68265ed8b87d71aa745b7",
  "parentHash": "0x022265f33255231f8ba39abd134312108712ef68fe90aca1ec2438823f4a2f01",
  "number": 77584,
  "timestamp": 1439439711,
  "nonce": "0x21d89d07ac416ae9",
  "difficulty": 2253482519014,
  "gasLimit": {
    "_hex": "0x2fefd8"
  },
  "gasUsed": {
    "_hex": "0x5208"
  },
  "miner": "0xbb7B8287f3F0a933474a79eAe42CBCa977791171",
  "extraData": "0x476574682f4c5649562f76312e302e312f6c696e75782f676f312e342e32",
  "transactions": [
    {
      "hash": "0x744134ac66ed28cf0b1a22eaac95340f4b79097428418f0409ad947fbc0f3062",
      "blockHash": "0x3708f514803d8258f187b8b781613bac95731b4eaef68265ed8b87d71aa745b7",
      "blockNumber": 77584,
      "transactionIndex": 0,
      "confirmations": null,
      "from": "0x6A8CC233E14F874983bB2F37D1DE706f6910Ef0b",
      "gasPrice": {
        "_hex": "0xdc1c24691"
      },
      "gasLimit": {
        "_hex": "0x5208"
      },
      "to": "0x32Be343B94f860124dC4fEe278FDCBD38C102D88",
      "value": {
        "_hex": "0x3170439a63981c000"
      },
      "nonce": 5,
      "data": "0x",
      "r": "0x1d6739938b135948d204c025419818cde22d031d088d16c732bcf1627adf51b7",
      "s": "0x53baa913c98e61e9bc31f0ee6d156a85003e78a05bd0056ede61de77b69e995e",
      "v": 28,
      "creates": null,
      "raw": "0xf86d05850dc1c246918252089432be343b94f860124dc4fee278fdcbd38c102d888903170439a63981c000801ca01d6739938b135948d204c025419818cde22d031d088d16c732bcf1627adf51b7a053baa913c98e61e9bc31f0ee6d156a85003e78a05bd0056ede61de77b69e995e",
      "networkId": 0,
      "chainId": 0
    }
  ]
}