{
  "hash": "0xdf0701816f0a674789d25fa973d277e0ab8d66d8e714c12566cecb4153d6e02e",
  "parentHash": "0xc692bfc07d70bed65588b490bdf5508fae6e938d91925ea2444044ab396f009d",
  "number": 103788,
  "timestamp": 1439858944,
  "nonce": "0xbc075cfe88d4fb61",
  "difficulty": 4225717347356,
  "gasLimit": {
    "_hex": "0x2fefd8"
  },
  "gasUsed": {
    "_hex": "0xa410"
  },
  "miner": "0x03ECE4B4A5539137cb67C3AA05c2A82FFb8cA67F",
  "extraData": "0xdd809b302e392e34302b2b616339342d5257696e646f2f6d73762f4a4954",
  "transactions": [
    {
      "hash": "0xbdaed8d1f6723bf67995f535a8d280c9f6f2017ea12d741a111bd054683ee0a1",
      "blockHash": "0xdf0701816f0a674789d25fa973d277e0ab8d66d8e714c12566cecb4153d6e02e",
      "blockNumber": 103788,
      "transactionIndex": 0,
      "confirmations": null,
      "from": "0xC8224326e29eD30AEEC1B70ec238A818169ecaBA",
      "gasPrice": {
        "_hex": "0xd7d40ace3"
      },
      "gasLimit": {
        "_hex": "0x15f90"
      },
      "to": "0x61F642543d22bAf5382908a714E675Cc0b51ea45",
      "value": {
        "_hex": "0x4563918244f40000"
      },
      "nonce": 9,
      "data": "0x",
      "r": "0x1dde071190baa4d060eefe65f2f2edac00c6e531e8999bb001383e1a974de5e5",
      "s": "0x69d70b4e97ec99137a63714e5ab7d5bc0a0dc3995bea870494f58d2ae4d6366d",
      "v": 27,
      "creates": null,
      "raw": "0xf86d09850d7d40ace383015f909461f642543d22baf5382908a714e675cc0b51ea45884563918244f40000801ba01dde071190baa4d060eefe65f2f2edac00c6e531e8999bb001383e1a974de5e5a069d70b4e97ec99137a63714e5ab7d5bc0a0dc3995bea870494f58d2ae4d6366d",
      "networkId": 0,
      "chainId": 0
    },
    {
      "hash": "0xea1951d99f30cf164f06270aeef2f3c89bdc2ecff0a5a5f224a79295614c610f",
      "blockHash": "0xdf0701816f0a674789d25fa973d277e0ab8d66d8e714c12566cecb4153d6e02e",
      "blockNumber": 103788,
      "transactionIndex": 1,
      "confirmations": null,
      "from": "0xC8224326e29eD30AEEC1B70ec238A818169ecaBA",
      "gasPrice": {
        "_hex": "0xd7d40ace3"
      },
      "gasLimit": {
        "_hex": "0x15f90"
      },
      "to": "0x61F642543d22bAf5382908a714E675Cc0b51ea45",
      "value": {
        "_hex": "0x4563918244f40000"
      },
      "nonce": 10,
      "data": "0x",
      "r": "0xe82fbab7bbc92f35604af39e975a39de2c004f7e8b0ca16e35ce67866ab65a41",
      "s": "0x510c8631e10d6280f1d04f54e2f7102948a15c77aedd582d8cce479ca12a7553",
      "v": 27,
      "creates": null,
      "raw": "0xf86d0a850d7d40ace383015f909461f642543d22baf5382908a714e675cc0b51ea45884563918244f40000801ba0e82fbab7bbc92f35604af39e975a39de2c004f7e8b0ca16e35ce67866ab65a41a0510c8631e10d6280f1d04f54e2f7102948a15c77aedd582d8cce479ca12a7553",
      "networkId": 0,
      "chainId": 0
    }
  ]
}