{
  "hash": "0xcf465b6b052287f758edbf4405f71b23c3ac3ee3dfc24bc0fcb253f0fd7f03f1",
  "parentHash": "0xc652f970470d5245f48da7c161cacb72b803395156f79165f71990a548f972e1",
  "number": 102971,
  "timestamp": 1439845755,
  "nonce": "0x78b4752ce8ac8366",
  "difficulty": 4130246978143,
  "gasLimit": {
    "_hex": "0x2fefd8"
  },
  "gasUsed": {
    "_hex": "0x5208"
  },
  "miner": "0xe6A7a1d47ff21B6321162AEA7C6CB457D5476Bca",
  "extraData": "0x476574682f76312e302e312d38326566323666362f6c696e75782f676f312e34",
  "transactions": [
    {
      "hash": "0xbbe52d1d47d026b4ae82835864386fe3a65a8b7a67e759c68a3ca5c8cf6c9434",
      "blockHash": "0xcf465b6b052287f758edbf4405f71b23c3ac3ee3dfc24bc0fcb253f0fd7f03f1",
      "blockNumber": 102971,
      "transactionIndex": 0,
      "confirmations": null,
      "from": "0xe0e82eD3e93079cE76aAC1dA7b4bfa990D885A0D",
      "gasPrice": {
        "_hex": "0xd2bd19136"
      },
      "gasLimit": {
        "_hex": "0x5208"
      },
      "to": "0xFBb1b73C4f0BDa4f67dcA266ce6Ef42f520fBB98",
      "value": {
        "_hex": "0x4204f1d10e95e2650"
      },
      "nonce": 6,
      "data": "0x",
      "r": "0xe3858210cb4eff32424758b94ea4c687475c54cdc2336d7aa4e0ce80d2b412e7",
      "s": "0x78435c8a7c965bc68cdfab8990d621e52f18405c02ea547d0eeeb236c3bb310e",
      "v": 27,
      "creates": null,
      "raw": "0xf86d06850d2bd1913682520894fbb1b73c4f0bda4f67dca266ce6ef42f520fbb988904204f1d10e95e2650801ba0e3858210cb4eff32424758b94ea4c687475c54cdc2336d7aa4e0ce80d2b412e7a078435c8a7c965bc68cdfab8990d621e52f18405c02ea547d0eeeb236c3bb310e",
      "networkId": 0,
      "chainId": 0
    }
  ]
}