{
  "hash": "0x9194b4fb05efed3a6e3c12c3865a390525133f00b272cb5d01d32b56d0679845",
  "parentHash": "0x4c32cfa8b5fcf6e4ee03a076390c0b89ce643512f93f8b1d01a4f6caa9b6b590",
  "number": 50990,
  "timestamp": 1438997765,
  "nonce": "0xddad798810daed91",
  "difficulty": 1547654839120,
  "gasLimit": {
    "_hex": "0x88de8"
  },
  "gasUsed": {
    "_hex": "0x546c"
  },
  "miner": "0xbb7B8287f3F0a933474a79eAe42CBCa977791171",
  "extraData": "0x476574682f4c5649562f76312e302e312f6c696e75782f676f312e342e32",
  "transactions": [
    {
      "hash": "0xfa870be013cea0da64516156b16f5bc49d62beeae095c330660df62426726714",
      "blockHash": "0x9194b4fb05efed3a6e3c12c3865a390525133f00b272cb5d01d32b56d0679845",
      "blockNumber": 50990,
      "transactionIndex": 0,
      "confirmations": null,
      "from": "0xc1631228EFbF2a2E3a4092eE8900c639Ed34FBC8",
      "gasPrice": {
        "_hex": "0x110c8f7d8de"
      },
      "gasLimit": {
        "_hex": "0xc350"
      },
      "to": "0x2910543Af39abA0Cd09dBb2D50200b3E800A63D2",
      "value": {
        "_hex": "0x2e4ba17b5067980000"
      },
      "nonce": 1,
      "data": "0x454e524a4544383047",
      "r": "0xda40742bf0a3d15672bc36c004fdbc144dad6ccedea222762d1f809168144d05",
      "s": "0xdde2cdc5dd437d6ace1ed6e24f54be2ee9f4dbb32bfbaa1c1767c42293c5a12d",
      "v": 27,
      "creates": null,
      "raw": "0xf87701860110c8f7d8de82c350942910543af39aba0cd09dbb2d50200b3e800a63d2892e4ba17b506798000089454e524a45443830471ba0da40742bf0a3d15672bc36c004fdbc144dad6ccedea222762d1f809168144d05a0dde2cdc5dd437d6ace1ed6e24f54be2ee9f4dbb32bfbaa1c1767c42293c5a12d",
      "networkId": 0,
      "chainId": 0
    }
  ]
}