{
  "hash": "0x57ed31fc242a7bc9b29ed1566bb3b01b39d35dfead251226f79f459d3667238a",
  "parentHash": "0xf32ea56e027f8bdb571bedec9f07ed5e85517a3953c8546232f0a63473c9eac9",
  "number": 115161,
  "timestamp": 1440052630,
  "nonce": "0xc0d1f96b2c809571",
  "difficulty": 4529601888100,
  "gasLimit": {
    "_hex": "0x2fefd8"
  },
  "gasUsed": {
    "_hex": "0xa410"
  },
  "miner": "0x2134e2a2b718DCa96580ECAC31E653Ea1fdd58DA",
  "extraData": "0x476574682f76312e302e312f77696e646f77732f676f312e342e32",
  "transactions": [
    {
      "hash": "0x90db08bec3b5b9e69b0f65ef3ed5bb76d76da14588c923b7f0e0ca68bd272968",
      "blockHash": "0x57ed31fc242a7bc9b29ed1566bb3b01b39d35dfead251226f79f459d3667238a",
      "blockNumber": 115161,
      "transactionIndex": 0,
      "confirmations": null,
      "from": "0x7C8DB6DAEA570E518f36c83653E7cc0fcF87C232",
      "gasPrice": {
        "_hex": "0xd9ee4df2a"
      },
      "gasLimit": {
        "_hex": "0x15f90"
      },
      "to": "0x037AB403e6A6e3dB6bC6728BAddCaB5f1BAAb4BA",
      "value": {
        "_hex": "0xde0b6b3a7640000"
      },
      "nonce": 0,
      "data": "0x",
      "r": "0x325fa79bdcf5cb8a096c705b43736373c5b32be5aa9e74831fde4a677c2e61bf",
      "s": "0x2a86b13bb7df3e668a6a0fc40076543e3ef3f9f16adaac4a848fcad54172498b",
      "v": 28,
      "creates": null,
      "raw": "0xf86d80850d9ee4df2a83015f9094037ab403e6a6e3db6bc6728baddcab5f1baab4ba880de0b6b3a7640000801ca0325fa79bdcf5cb8a096c705b43736373c5b32be5aa9e74831fde4a677c2e61bfa02a86b13bb7df3e668a6a0fc40076543e3ef3f9f16adaac4a848fcad54172498b",
      "networkId": 0,
      "chainId": 0
    },
    {
      "hash": "0x17a6abaa2eb61f23bd84d5fc6d24c23c526fde4583f9a6f7ab4b62b60729956a",
      "blockHash": "0x57ed31fc242a7bc9b29ed1566bb3b01b39d35dfead251226f79f459d3667238a",
      "blockNumber": 115161,
      "transactionIndex": 1,
      "confirmations": null,
      "from": "0x61F642543d22bAf5382908a714E675Cc0b51ea45",
      "gasPrice": {
        "_hex": "0xcdca14911"
      },
      "gasLimit": {
        "_hex": "0x5208"
      },
      "to": "0x32Be343B94f860124dC4fEe278FDCBD38C102D88",
      "value": {
        "_hex": "0x8ac2f9767c224000"
      },
      "nonce": 26,
      "data": "0x",
      "r": "0xc95f5b521790259c286c4334d27555b5873d378e92231bb8ca366622f729fd1c",
      "s": "0x2e376398ebcb2ee6f9b1817e5b1a19d85e7f54c5f070dad8f275acdd9350c762",
      "v": 28,
      "creates": null,
      "raw": "0xf86c1a850cdca149118252089432be343b94f860124dc4fee278fdcbd38c102d88888ac2f9767c224000801ca0c95f5b521790259c286c4334d27555b5873d378e92231bb8ca366622f729fd1ca02e376398ebcb2ee6f9b1817e5b1a19d85e7f54c5f070dad8f275acdd9350c762",
      "networkId": 0,
      "chainId": 0
    }
  ]
}