{
  "hash": "0xd73fb1f45f7dbd831c4a30bfab91b2b3d70d289b8e97ce4f0154636f334c9197",
  "parentHash": "0x30edc40c9a154bd7a12b6c9d2c4ff5d73ac9e52cb3c252adc2f262f21a651bdc",
  "number": 121812,
  "timestamp": 1440182906,
  "nonce": "0xf8dc033156cf0d35",
  "difficulty": 4488598025468,
  "gasLimit": {
    "_hex": "0x2fefd8"
  },
  "gasUsed": {
    "_hex": "0xa410"
  },
  "miner": "0x52bc44d5378309EE2abF1539BF71dE1b7d7bE3b5",
  "extraData": "0xd783010002844765746887676f312e342e32856c696e7578",
  "transactions": [
    {
      "hash": "0xab1515d8454259c3e8bd65bb797c511649675c072a4038530d90d64173c089a7",
      "blockHash": "0xd73fb1f45f7dbd831c4a30bfab91b2b3d70d289b8e97ce4f0154636f334c9197",
      "blockNumber": 121812,
      "transactionIndex": 0,
      "confirmations": null,
      "from": "0xb1abce2918E21ddb93AA452731a12672A3d9F75a",
      "gasPrice": {
        "_hex": "0xdbaa65946"
      },
      "gasLimit": {
        "_hex": "0x5208"
      },
      "to": "0x32Be343B94f860124dC4fEe278FDCBD38C102D88",
      "value": {
        "_hex": "0x455f2a84816d1800"
      },
      "nonce": 217,
      "data": "0x",
      "r": "0x0cc710fdb1c1960253970b28de648d110e5c9cd5a624e31312fa5875a7a50e90",
      "s": "0x02f941dbb0e30585b58773dc41c388248a72566b382079c733e169aa96b329ea",
      "v": 27,
      "creates": null,
      "raw": "0xf86d81d9850dbaa659468252089432be343b94f860124dc4fee278fdcbd38c102d8888455f2a84816d1800801ba00cc710fdb1c1960253970b28de648d110e5c9cd5a624e31312fa5875a7a50e90a002f941dbb0e30585b58773dc41c388248a72566b382079c733e169aa96b329ea",
      "networkId": 0,
      "chainId": 0
    },
    {
      "hash": "0x62eeb527c55e8731213627ecf40fe60f1988d66f0cffc2150b7ab49112453b33",
      "blockHash": "0xd73fb1f45f7dbd831c4a30bfab91b2b3d70d289b8e97ce4f0154636f334c9197",
      "blockNumber": 121812,
      "transactionIndex": 1,
      "confirmations": null,
      "from": "0x608f4b86321a68453f9adf6F06F7Fc3E621739ad",
      "gasPrice": {
        "_hex": "0xdbaa65946"
      },
      "gasLimit": {
        "_hex": "0x5208"
      },
      "to": "0x32Be343B94f860124dC4fEe278FDCBD38C102D88",
      "value": {
        "_hex": "0x455f2b4a695fcc00"
      },
      "nonce": 114,
      "data": "0x",
      "r": "0xa1c5b8281d717d3b60cc214dc361ce6592f0808e8f1e0dc29d377e8118321104",
      "s": "0x559cc2fa03ca41476a0b6d18e2c8c9fb2205a46ac758dacab76ca3861790536e",
      "v": 27,
      "creates": null,
      "raw": "0xf86c72850dbaa659468252089432be343b94f860124dc4fee278fdcbd38c102d8888455f2b4a695fcc00801ba0a1c5b8281d717d3b60cc214dc361ce6592f0808e8f1e0dc29d377e8118321104a0559cc2fa03ca41476a0b6d18e2c8c9fb2205a46ac758dacab76ca3861790536e",
      "networkId": 0,
      "chainId": 0
    }
  ]
}