{
  "hash": "0x08efe3db728f6a402b3e6a9ae4144b84a189171ec67160ef6d0ab3dc0605be98",
  "parentHash": "0x6cbfff80ea062d4ad4aff0ae1a713cc9fc259d3812ba9811970e9721049b58fb",
  "number": 59682,
  "timestamp": 1439141997,
  "nonce": "0xa17c711136f4db2e",
  "difficulty": 1711323621779,
  "gasLimit": {
    "_hex": "0x2fefd8"
  },
  "gasUsed": {
    "_hex": "0x5208"
  },
  "miner": "0x40dDAE161B79aaebeb68187233fe59bd3B1c2db2",
  "extraData": "0x476574682f76312e302e312f77696e646f77732f676f312e342e32",
  "transactions": [
    {
      "hash": "0xf436386ebba62dde4f31a2e0822c43b70fb146a5ac2e0e56621c1010bbc663e4",
      "blockHash": "0x08efe3db728f6a402b3e6a9ae4144b84a189171ec67160ef6d0ab3dc0605be98",
      "blockNumber": 59682,
      "transactionIndex": 0,
      "confirmations": null,
      "from": "0x47ff6576639c2e94762eA5443978D7681C0E78DC",
      "gasPrice": {
        "_hex": "0xd2075de1f"
      },
      "gasLimit": {
        "_hex": "0x5208"
      },
      "to": "0xeD17Ea8E9fd42159037deE95ea173a56c54f55ce",
      "value": {
        "_hex": "0x41eb63d55b1b00000"
      },
      "nonce": 14,
      "data": "0x",
      "r": "0xde11f47280427389c97eebbdbbb6edf84557c199526f8571775cf2075df00a32",
      "s": "0x01f866743843bcc1451e68c0e824617feb7b9009bd199ab06ba3c7b7e4a8d936",
      "v": 28,
      "creates": null,
      "raw": "0xf86d0e850d2075de1f82520894ed17ea8e9fd42159037dee95ea173a56c54f55ce89041eb63d55b1b00000801ca0de11f47280427389c97eebbdbbb6edf84557c199526f8571775cf2075df00a32a001f866743843bcc1451e68c0e824617feb7b9009bd199ab06ba3c7b7e4a8d936",
      "networkId": 0,
      "chainId": 0
    }
  ]
}