{
  "hash": "0xdb50edb9153270fba87d82ba58f8ba9d94559f25481985ee12dcb281de659679",
  "parentHash": "0x4b77e216df1d4429be9eaf10391b600e04328f804923e971efe6ff1171aebd01",
  "number": 90225,
  "timestamp": 1439636695,
  "nonce": "0x42b250a740aa16e2",
  "difficulty": 3297927134468,
  "gasLimit": {
    "_hex": "0x2fefd8"
  },
  "gasUsed": {
    "_hex": "0x5208"
  },
  "miner": "0x2f6BCe4fc330B69C9B4c2694d57C63Ec7B18feC7",
  "extraData": "0x476574682f76312e302e312f77696e646f77732f676f312e342e32",
  "transactions": [
    {
      "hash": "0x0097be58f51b59c836409382e0d6867b79377a5d7e87910bf50529385134de74",
      "blockHash": "0xdb50edb9153270fba87d82ba58f8ba9d94559f25481985ee12dcb281de659679",
      "blockNumber": 90225,
      "transactionIndex": 0,
      "confirmations": null,
      "from": "0x9c4dB3C798408A4e36e443c1141E182809BD5e50",
      "gasPrice": {
        "_hex": "0xba43b7400"
      },
      "gasLimit": {
        "_hex": "0x5208"
      },
      "to": "0xC47Aaa860008be6f65B58c6C6E02a84e666EfE31",
      "value": {
        "_hex": "0x299e6922c92838f0"
      },
      "nonce": 0,
      "data": "0x",
      "r": "0xb0246eab5422496ded1e2a56f32fd50d4d9995c2c12f448adad8c30ba1a0e435",
      "s": "0x71919c823813b6f2f6ad7ded15c5169cf0605f5bc2ac469cf024e313bfad5567",
      "v": 28,
      "creates": null,
      "raw": "0xf86c80850ba43b740082520894c47aaa860008be6f65b58c6c6e02a84e666efe3188299e6922c92838f0801ca0b0246eab5422496ded1e2a56f32fd50d4d9995c2c12f448adad8c30ba1a0e435a071919c823813b6f2f6ad7ded15c5169cf0605f5bc2ac469cf024e313bfad5567",
      "networkId": 0,
      "chainId": 0
    }
  ]
}