{
  "hash": "0x5fe123d51ae7ebbe9ff47183541a14efb2f6a752b51e7c32a7c674d97ab8c9a0",
  "parentHash": "0x01d52e1cf3086a7e360879f44455881addcd6e8eb07c612a24bbffa97b89339e",
  "number": 55898,
  "timestamp": 1439078890,
  "nonce": "0xcf81f6d531cfe837",
  "difficulty": 1609936544019,
  "gasLimit": {
    "_hex": "0x2fefd8"
  },
  "gasUsed": {
    "_hex": "0x5208"
  },
  "miner": "0x1D889aFF5D57138c9819412d63b5d877567B5936",
  "extraData": "0x476574682f76312e302e312f77696e646f77732f676f312e342e32",
  "transactions": [
    {
      "hash": "0x02b2bedd43ac23adfb41237a5dbe4ee922cc3983f26c9263182f2c5aa30a2372",
      "blockHash": "0x5fe123d51ae7ebbe9ff47183541a14efb2f6a752b51e7c32a7c674d97ab8c9a0",
      "blockNumber": 55898,
      "transactionIndex": 0,
      "confirmations": null,
      "from": "0xe6A7a1d47ff21B6321162AEA7C6CB457D5476Bca",
      "gasPrice": {
        "_hex": "0xdd23a699c"
      },
      "gasLimit": {
        "_hex": "0x55f0"
      },
      "to": "0x771b12Bc207A1c4823e77075B17F8D329ACD77A3",
      "value": {
        "_hex": "0x197aa9eb50117bea0"
      },
      "nonce": 477,
      "data": "0x",
      "r": "0x2e58ddfde9a7fb3e541d71482b4a640f693730dcf9f60490d6687cf8cc7d7bab",
      "s": "0x645ef12846c4c7550c946933cde3aea6675c466d0da67f5a79209af0fa7246e4",
      "v": 27,
      "creates": null,
      "raw": "0xf86f8201dd850dd23a699c8255f094771b12bc207a1c4823e77075b17f8d329acd77a3890197aa9eb50117bea0801ba02e58ddfde9a7fb3e541d71482b4a640f693730dcf9f60490d6687cf8cc7d7baba0645ef12846c4c7550c946933cde3aea6675c466d0da67f5a79209af0fa7246e4",
      "networkId": 0,
      "chainId": 0
    }
  ]
}