{
  "hash": "0x8fc5b39258344958dcf743a92e7727a662e25ccf1fbaef5fefcf917c976e172a",
  "parentHash": "0xf347252afaa3cae69aa6be9ad0912e1622ab228dec51b9d8f52b8386c1fad4b0",
  "number": 64500,
  "timestamp": 1439221749,
  "nonce": "0xbec21831f7a3d03d",
  "difficulty": 1876608603186,
  "gasLimit": {
    "_hex": "0x2fefd8"
  },
  "gasUsed": {
    "_hex": "0x5208"
  },
  "miner": "0x1B7047b4338ACf65bE94C1A3e8c5c9338ad7d67C",
  "extraData": "0x476574682f76312e302e312d38326566323666362f6c696e75782f676f312e34",
  "transactions": [
    {
      "hash": "0x66ee5828a88bff05176ec22a87ae113f3f0342915c28aeaaea6fb4c92fe09caf",
      "blockHash": "0x8fc5b39258344958dcf743a92e7727a662e25ccf1fbaef5fefcf917c976e172a",
      "blockNumber": 64500,
      "transactionIndex": 0,
      "confirmations": null,
      "from": "0x73Cdf383de3E494a8cAbaF398DDca32458B2c431",
      "gasPrice": {
        "_hex": "0xba43b7400"
      },
      "gasLimit": {
        "_hex": "0x5208"
      },
      "to": "0x853Dd95A31e99D0c743206A703a883198f8efBC4",
      "value": {
        "_hex": "0x36ef271c4dd000"
      },
      "nonce": 1,
      "data": "0x",
      "r": "0x523b181b16059df7c524057156fc17af9e0d30ce049d2531f6fd61989d632461",
      "s": "0x03f0ea25c289ecd5e5862d7b97d1d922366072ef1c4a517a250cc15b6ab16d88",
      "v": 28,
      "creates": null,
      "raw": "0xf86b01850ba43b740082520894853dd95a31e99d0c743206a703a883198f8efbc48736ef271c4dd000801ca0523b181b16059df7c524057156fc17af9e0d30ce049d2531f6fd61989d632461a003f0ea25c289ecd5e5862d7b97d1d922366072ef1c4a517a250cc15b6ab16d88",
      "networkId": 0,
      "chainId": 0
    }
  ]
}