{
  "hash": "0x8046a7b6d8f9a0d5ab9ef5bcb3085fb9ee2a5faaee96ef32b5ed5ddfe218fc9a",
  "parentHash": "0xdbc3a67f30691fa53f81d9fe62b4b24e4e0a70ea71a4db1287ba15406784ebc4",
  "number": 64991,
  "timestamp": 1439229571,
  "nonce": "0xe2250c83bb9dd8cb",
  "difficulty": 1912575287198,
  "gasLimit": {
    "_hex": "0x2fefd8"
  },
  "gasUsed": {
    "_hex": "0x17cd8"
  },
  "miner": "0xEF247E639d49461D25F57e9362CadE3120910Ce0",
  "extraData": "0x476574682f76312e302e312f6c696e75782f676f312e342e32",
  "transactions": [
    {
      "hash": "0x85552a49dda74c9310238bd5696bd6ea378021734c32ac72e83457c8201ada38",
      "blockHash": "0x8046a7b6d8f9a0d5ab9ef5bcb3085fb9ee2a5faaee96ef32b5ed5ddfe218fc9a",
      "blockNumber": 64991,
      "transactionIndex": 0,
      "confirmations": null,
      "from": "0x097792D1ded393098D05f199457Be3E8A5B77E6E",
      "gasPrice": {
        "_hex": "0xba43b7400"
      },
      "gasLimit": {
        "_hex": "0x15f90"
      },
      "to": "0x793AE8C1b1a160BFc07BFB0d04F85eab1A71F4f2",
      "value": {
        "_hex": "0x0"
      },
      "nonce": 0,
      "data": "0x3ba15036",
      "r": "0x0bf34646d3ed5d29a23cc7d6bc6e397f594b244becc2703a6a7777e5612635c7",
      "s": "0x571cc8b78047e6974ea830ef8d14c5d458e89ecc7793762dcceb971cc03acbca",
      "v": 27,
      "creates": null,
      "raw": "0xf86980850ba43b740083015f9094793ae8c1b1a160bfc07bfb0d04f85eab1a71f4f280843ba150361ba00bf34646d3ed5d29a23cc7d6bc6e397f594b244becc2703a6a7777e5612635c7a0571cc8b78047e6974ea830ef8d14c5d458e89ecc7793762dcceb971cc03acbca",
      "networkId": 0,
      "chainId": 0
    },
    {
      "hash": "0x0614cd5322fee8c70694963b85248e7c1ff98da48aa00f71ebdbbd89de3f7c71",
      "blockHash": "0x8046a7b6d8f9a0d5ab9ef5bcb3085fb9ee2a5faaee96ef32b5ed5ddfe218fc9a",
      "blockNumber": 64991,
      "transactionIndex": 1,
      "confirmations": null,
      "from": "0xb86dA052B31F0d4e34Fb29d900109675eBBC05b9",
      "gasPrice": {
        "_hex": "0xba43b7400"
      },
      "gasLimit": {
        "_hex": "0x15f90"
      },
      "to": "0x793AE8C1b1a160BFc07BFB0d04F85eab1A71F4f2",
      "value": {
        "_hex": "0x0"
      },
      "nonce": 0,
      "data": "0x3ba15036",
      "r": "0x1beaec9eca7f8d27e5f0aeb8571fe35d9d2e8cf6f0b023bcd2008fe52483553a",
      "s": "0x3cd4154a8896054f8aeae7f94953949c3299fdda5ff09f4900cb37a4c6f32589",
      "v": 28,
      "creates": null,
      "raw": "0xf86980850ba43b740083015f9094793ae8c1b1a160bfc07bfb0d04f85eab1a71f4f280843ba150361ca01beaec9eca7f8d27e5f0aeb8571fe35d9d2e8cf6f0b023bcd2008fe52483553aa03cd4154a8896054f8aeae7f94953949c3299fdda5ff09f4900cb37a4c6f32589",
      "networkId": 0,
      "chainId": 0
    }
  ]
}