{
  "hash": "0x54fb641adea899a00e26720e0d9cd5da6780f5e85ef7b379af7f4cd165ed9941",
  "parentHash": "0x2964fbb9e7780f5bcecf16807d8ac02f65d8c18220d23ef55302b33ef26b2ed2",
  "number": 100326,
  "timestamp": 1439804589,
  "nonce": "0xcb0d9f1e1c8becaa",
  "difficulty": 3822924822160,
  "gasLimit": {
    "_hex": "0x2fefd8"
  },
  "gasUsed": {
    "_hex": "0x5208"
  },
  "miner": "0xeB1325C8D9d3ea8D74aC11F4B00F1B2367686319",
  "extraData": "0x",
  "transactions": [
    {
      "hash": "0x447ebeb27fd582a7a435eefa404d293be4803716a98399d17099eeaf312f2258",
      "blockHash": "0x54fb641adea899a00e26720e0d9cd5da6780f5e85ef7b379af7f4cd165ed9941",
      "blockNumber": 100326,
      "transactionIndex": 0,
      "confirmations": null,
      "from": "0x0912001e29BbaF75C23069A22D9B9602BE86FEB7",
      "gasPrice": {
        "_hex": "0xdb84bd2ec"
      },
      "gasLimit": {
        "_hex": "0x5208"
      },
      "to": "0x32Be343B94f860124dC4fEe278FDCBD38C102D88",
      "value": {
        "_hex": "0xfcf7b1d9522be8000"
      },
      "nonce": 5,
      "data": "0x",
      "r": "0x4ddd3bdf360e9d95760bc903306d8a3901a97205a1b4fd103a4f1165753878a4",
      "s": "0x7fb0e81a2d1152578a0633ce2ed687ec736040a52dcce654ec167977ce51f343",
      "v": 27,
      "creates": null,
      "raw": "0xf86d05850db84bd2ec8252089432be343b94f860124dc4fee278fdcbd38c102d88890fcf7b1d9522be8000801ba04ddd3bdf360e9d95760bc903306d8a3901a97205a1b4fd103a4f1165753878a4a07fb0e81a2d1152578a0633ce2ed687ec736040a52dcce654ec167977ce51f343",
      "networkId": 0,
      "chainId": 0
    }
  ]
}