{
  "hash": "0xa7b2c246b59ba1ad7c7d8cacf20219e46d46a451a920fc7388f16c8fc7ad6164",
  "parentHash": "0x018477f0f1644e0df2ba9ee1f15036c932ce9bf0787db63bae821683c27974e1",
  "number": 81660,
  "timestamp": 1439505531,
  "nonce": "0x1ba60d8c7c4a5860",
  "difficulty": 2435411935468,
  "gasLimit": {
    "_hex": "0x2fefd8"
  },
  "gasUsed": {
    "_hex": "0x19c8c"
  },
  "miner": "0xf8E0CA3Ed80bd541b94BEdCf259e8CF2141A9523",
  "extraData": "0x476574682f76312e302e312f77696e646f77732f676f312e342e32",
  "transactions": [
    {
      "hash": "0x3117a889480a595b637c6b66f8005990f09b8bf2f71162270d5f774dde781ed6",
      "blockHash": "0xa7b2c246b59ba1ad7c7d8cacf20219e46d46a451a920fc7388f16c8fc7ad6164",
      "blockNumber": 81660,
      "transactionIndex": 0,
      "confirmations": null,
      "from": "0x3954bDFE0BF587C695A305d9244C3d5bdDDaC9Bb",
      "gasPrice": {
        "_hex": "0xd7d40ace3"
      },
      "gasLimit": {
        "_hex": "0x55f0"
      },
      "to": "0x2910543Af39abA0Cd09dBb2D50200b3E800A63D2",
      "value": {
        "_hex": "0xd8d726b7177a800000"
      },
      "nonce": 4,
      "data": "0x454e54395034424430",
      "r": "0xdf6ba82b38ab696b488d7ef6cb822645a699ea81b5f32f13c166b95dc578761f",
      "s": "0x477b255a7b48dcae130a8edf77cbce0bdee45a8e472152c320e70174ea714c1e",
      "v": 28,
      "creates": null,
      "raw": "0xf87604850d7d40ace38255f0942910543af39aba0cd09dbb2d50200b3e800a63d289d8d726b7177a80000089454e543950344244301ca0df6ba82b38ab696b488d7ef6cb822645a699ea81b5f32f13c166b95dc578761fa0477b255a7b48dcae130a8edf77cbce0bdee45a8e472152c320e70174ea714c1e",
      "networkId": 0,
      "chainId": 0
    },
    {
      "hash": "0xfdb1f404f77a95c84d7395e7f90f76d9c3baff7a9045680d5b5981e28e31873a",
      "blockHash": "0xa7b2c246b59ba1ad7c7d8cacf20219e46d46a451a920fc7388f16c8fc7ad6164",
      "blockNumber": 81660,
      "transactionIndex": 1,
      "confirmations": null,
      "from": "0x59C62d3D43f9EA1c4118d98c188AA5d028b8bB8E",
      "gasPrice": {
        "_hex": "0xd5c29b923"
      },
      "gasLimit": {
        "_hex": "0x5208"
      },
      "to": "0x32Be343B94f860124dC4fEe278FDCBD38C102D88",
      "value": {
        "_hex": "0x15aed8f9a6bcfb000"
      },
      "nonce": 6,
      "data": "0x",
      "r": "0x3e5c49ece56229cff720b11ae9cf0629e182cc4dd2b228236c67203e425a7d00",
      "s": "0x73ef7d542f8cfeb9b9fb08946175ebabbaf9a680c2cfaa99b04fe345ee1346db",
      "v": 27,
      "creates": null,
      "raw": "0xf86d06850d5c29b9238252089432be343b94f860124dc4fee278fdcbd38c102d8889015aed8f9a6bcfb000801ba03e5c49ece56229cff720b11ae9cf0629e182cc4dd2b228236c67203e425a7d00a073ef7d542f8cfeb9b9fb08946175ebabbaf9a680c2cfaa99b04fe345ee1346db",
      "networkId": 0,
      "chainId": 0
    },
    {
      "hash": "0x745b038cb75ff6c1954a9cfd4572af13461327ab2428386ac87ac96890bcdcce",
      "blockHash": "0xa7b2c246b59ba1ad7c7d8cacf20219e46d46a451a920fc7388f16c8fc7ad6164",
      "blockNumber": 81660,
      "transactionIndex": 2,
      "confirmations": null,
      "from": "0xF2d2AfF1320476cb8C6b607199D23175cc595693",
      "gasPrice": {
        "_hex": "0xd41585ef4"
      },
      "gasLimit": {
        "_hex": "0x15f90"
      },
      "to": "0xF5EeDc192aB70b08D8354384aD94efD095849E00",
      "value": {
        "_hex": "0x2b5e3af16b1880000"
      },
      "nonce": 36,
      "data": "0x",
      "r": "0x587e451c641126347ace55b4b337b9b1c077bdf82985b91c6137c1ebfa7e5bbe",
      "s": "0x792c4c7eae235e5a74482a08dce3bf8376f70f9d5d695d48589c7df18a0d4250",
      "v": 27,
      "creates": null,
      "raw": "0xf86e24850d41585ef483015f9094f5eedc192ab70b08d8354384ad94efd095849e008902b5e3af16b1880000801ba0587e451c641126347ace55b4b337b9b1c077bdf82985b91c6137c1ebfa7e5bbea0792c4c7eae235e5a74482a08dce3bf8376f70f9d5d695d48589c7df18a0d4250",
      "networkId": 0,
      "chainId": 0
    },
    {
      "hash": "0x18eb9213d85d5892be6449ee4e1c1760bda8a6eb2a2a199aa9c3662566159f8f",
      "blockHash": "0xa7b2c246b59ba1ad7c7d8cacf20219e46d46a451a920fc7388f16c8fc7ad6164",
      "blockNumber": 81660,
      "transactionIndex": 3,
      "confirmations": null,
      "from": "0x32Be343B94f860124dC4fEe278FDCBD38C102D88",
      "gasPrice": {
        "_hex": "0xd37c5bf18"
      },
      "gasLimit": {
        "_hex": "0x5208"
      },
      "to": "0x64CF897D51472Dc7CfF0e6368EB15B9e2d5168E3",
      "value": {
        "_hex": "0x3635c9adc5dea00000"
      },
      "nonce": 607,
      "data": "0x",
      "r": "0x0f96f2db9330a5147ea22d3ea10384d7027e6c5a0e14951e0d83b460ce69233f",
      "s": "0x3d75c29a7681859c2b7c2a8f9358fe191ba9b97f815169f065d76d25f3ce41c3",
      "v": 28,
      "creates": null,
      "raw": "0xf86f82025f850d37c5bf188252089464cf897d51472dc7cff0e6368eb15b9e2d5168e3893635c9adc5dea00000801ca00f96f2db9330a5147ea22d3ea10384d7027e6c5a0e14951e0d83b460ce69233fa03d75c29a7681859c2b7c2a8f9358fe191ba9b97f815169f065d76d25f3ce41c3",
      "networkId": 0,
      "chainId": 0
    },
    {
      "hash": "0xc956f3f256107d27877f9271eb2f1f19919b95ad16fd0036ed2c8f47f33d8803",
      "blockHash": "0xa7b2c246b59ba1ad7c7d8cacf20219e46d46a451a920fc7388f16c8fc7ad6164",
      "blockNumber": 81660,
      "transactionIndex": 4,
      "confirmations": null,
      "from": "0x32Be343B94f860124dC4fEe278FDCBD38C102D88",
      "gasPrice": {
        "_hex": "0xd37c5bf18"
      },
      "gasLimit": {
        "_hex": "0x5208"
      },
      "to": "0x508EBad7B46b802AEA4Dac3bD4717c240ef584ed",
      "value": {
        "_hex": "0xdbd2fc137a30000"
      },
      "nonce": 608,
      "data": "0x",
      "r": "0xe35da5992808fd63fbdf6507bd0d23b39ac89d00ed5df53d7be9da063a9ffe5f",
      "s": "0x52c75986b9910beabb0d6cbf8ab2469a74933e3baf1fc78be5bbf3d0736fc9f2",
      "v": 27,
      "creates": null,
      "raw": "0xf86e820260850d37c5bf1882520894508ebad7b46b802aea4dac3bd4717c240ef584ed880dbd2fc137a30000801ba0e35da5992808fd63fbdf6507bd0d23b39ac89d00ed5df53d7be9da063a9ffe5fa052c75986b9910beabb0d6cbf8ab2469a74933e3baf1fc78be5bbf3d0736fc9f2",
      "networkId": 0,
      "chainId": 0
    }
  ]
}