{
  "hash": "0x18a9c92a5df2c4e84bfd8d8b5752513b4fa65354f3bbec2d12b2634ff0878dc1",
  "parentHash": "0x4301ee92899f45965536ebe45dc2114997b1061735d72bd54fe0261147d3e5b1",
  "number": 70735,
  "timestamp": 1439324770,
  "nonce": "0x317c06e635f974e2",
  "difficulty": 2134254669489,
  "gasLimit": {
    "_hex": "0x2fefd5"
  },
  "gasUsed": {
    "_hex": "0xa410"
  },
  "miner": "0x9746c7e1ef2bd21FF3997fa467593a89cb852BD0",
  "extraData": "0x476574682f76312e302e312f77696e646f77732f676f312e342e32",
  "transactions": [
    {
      "hash": "0x5b63d34ac358471ddcd0d5496d5abd0f0aea1b7d82ab2f320f5d151262235935",
      "blockHash": "0x18a9c92a5df2c4e84bfd8d8b5752513b4fa65354f3bbec2d12b2634ff0878dc1",
      "blockNumber": 70735,
      "transactionIndex": 0,
      "confirmations": null,
      "from": "0x2910543Af39abA0Cd09dBb2D50200b3E800A63D2",
      "gasPrice": {
        "_hex": "0xcdc7dbc41"
      },
      "gasLimit": {
        "_hex": "0x5208"
      },
      "to": "0x8F586E3212291c58DCc78980a9c3432a3aFd3b6E",
      "value": {
        "_hex": "0x25f273933db5700000"
      },
      "nonce": 252,
      "data": "0x",
      "r": "0x55258fdc48a003e1f5b3884b3bf9eb808df29e5b02a0848b3c9bfb96446fee0a",
      "s": "0x0e8e89c20326d5ea2285eb39590b5b8b97e19c9cfadb729c3d1943a256ef75b7",
      "v": 28,
      "creates": null,
      "raw": "0xf86e81fc850cdc7dbc41825208948f586e3212291c58dcc78980a9c3432a3afd3b6e8925f273933db5700000801ca055258fdc48a003e1f5b3884b3bf9eb808df29e5b02a0848b3c9bfb96446fee0aa00e8e89c20326d5ea2285eb39590b5b8b97e19c9cfadb729c3d1943a256ef75b7",
      "networkId": 0,
      "chainId": 0
    },
    {
      "hash": "0xc2ac22cab02fea0d341df97adf723b0d214745c138eda8fbd896bd95a86a5eb0",
      "blockHash": "0x18a9c92a5df2c4e84bfd8d8b5752513b4fa65354f3bbec2d12b2634ff0878dc1",
      "blockNumber": 70735,
      "transactionIndex": 1,
      "confirmations": null,
      "from": "0x15dF931fE33cbe8bB4a9e10158e1F45d95432A33",
      "gasPrice": {
        "_hex": "0xba43b7400"
      },
      "gasLimit": {
        "_hex": "0x5208"
      },
      "to": "0x608F680cB915b87F83f3d369bBbb796D778c6162",
      "value": {
        "_hex": "0xade7c401c16000"
      },
      "nonce": 0,
      "data": "0x",
      "r": "0xcb2cd1b72e4e1ee3bfe2e33a45e2ea2f4f914e49b055dd0d5ba45026d4a6f056",
      "s": "0x2bece0d6fc48401eddd9ad3cee33f34b8ee454de71b8428a65996e60251940a6",
      "v": 28,
      "creates": null,
      "raw": "0xf86b80850ba43b740082520894608f680cb915b87f83f3d369bbbb796d778c616287ade7c401c16000801ca0cb2cd1b72e4e1ee3bfe2e33a45e2ea2f4f914e49b055dd0d5ba45026d4a6f056a02bece0d6fc48401eddd9ad3cee33f34b8ee454de71b8428a65996e60251940a6",
      "networkId": 0,
      "chainId": 0
    }
  ]
}