{
  "hash": "0xcca55b0ac471c4debc97ec092c3bb1d894aae2d6c60825c74dfeaeec73ed9d16",
  "parentHash": "0x34a4682b1f5d5d4c8236817eafbd3aa8b48af885a4823512197f9121af17ccff",
  "number": 55170,
  "timestamp": 1439066408,
  "nonce": "0x201771c0bb1e6a06",
  "difficulty": 1641832178851,
  "gasLimit": {
    "_hex": "0x2ff508"
  },
  "gasUsed": {
    "_hex": "0x2dc6c0"
  },
  "miner": "0xE4C6175183029A0f039bf2DFffa5C6e8F3cA9B23",
  "extraData": "0x",
  "transactions": [
    {
      "hash": "0xee4119aba3f63b69ea980e72c27af2f093f45437d27fe1d734fc6070ab9fe65c",
      "blockHash": "0xcca55b0ac471c4debc97ec092c3bb1d894aae2d6c60825c74dfeaeec73ed9d16",
      "blockNumber": 55170,
      "transactionIndex": 0,
      "confirmations": null,
      "from": "0x0ae3F81a67725a8A7758FeB8684c6c17dA20755D",
      "gasPrice": {
        "_hex": "0x10c15532a5"
      },
      "gasLimit": {
        "_hex": "0x7a120"
      },
      "to": "0xBAA54d6E90c3F4d7Ebec11bD180134C7eD8eBb52",
      "value": {
        "_hex": "0x16345785d8a0000"
      },
      "nonce": 34,
      "data": "0x",
      "r": "0x089dbfdf7997bee8aecd6d6d02cc7551ff968a551d94f8c0e7af45115dc1dfd4",
      "s": "0x4ba2a8307829b91597d4373035b8583231b104276b89564b185f9d31a9330df3",
      "v": 28,
      "creates": null,
      "raw": "0xf86d228510c15532a58307a12094baa54d6e90c3f4d7ebec11bd180134c7ed8ebb5288016345785d8a0000801ca0089dbfdf7997bee8aecd6d6d02cc7551ff968a551d94f8c0e7af45115dc1dfd4a04ba2a8307829b91597d4373035b8583231b104276b89564b185f9d31a9330df3",
      "networkId": 0,
      "chainId": 0
    },
    {
      "hash": "0x2389f8a0b36879d9ec3ef5b69a46c96f639a9a47eca9787bbac7de8bf83e12dd",
      "blockHash": "0xcca55b0ac471c4debc97ec092c3bb1d894aae2d6c60825c74dfeaeec73ed9d16",
      "blockNumber": 55170,
      "transactionIndex": 1,
      "confirmations": null,
      "from": "0x0ae3F81a67725a8A7758FeB8684c6c17dA20755D",
      "gasPrice": {
        "_hex": "0x10c15532a5"
      },
      "gasLimit": {
        "_hex": "0x7a120"
      },
      "to": "0xBAA54d6E90c3F4d7Ebec11bD180134C7eD8eBb52",
      "value": {
        "_hex": "0x16345785d8a0000"
      },
      "nonce": 35,
      "data": "0x",
      "r": "0x674d8a439cf6c8c41b47535c2c31d6ae77a80510479f3aaa4df6be533029de6c",
      "s": "0x0404842cebd095ec3214444e4e156b433b44b8dea4af346de62ef8e2fd2e767c",
      "v": 28,
      "creates": null,
      "raw": "0xf86d238510c15532a58307a12094baa54d6e90c3f4d7ebec11bd180134c7ed8ebb5288016345785d8a0000801ca0674d8a439cf6c8c41b47535c2c31d6ae77a80510479f3aaa4df6be533029de6ca00404842cebd095ec3214444e4e156b433b44b8dea4af346de62ef8e2fd2e767c",
      "networkId": 0,
      "chainId": 0
    },
    {
      "hash": "0x9516b7b17b270a67b75e9ca80e9a3a023cee94ee25a6d15239061e1451878254",
      "blockHash": "0xcca55b0ac471c4debc97ec092c3bb1d894aae2d6c60825c74dfeaeec73ed9d16",
      "blockNumber": 55170,
      "transactionIndex": 2,
      "confirmations": null,
      "from": "0x0ae3F81a67725a8A7758FeB8684c6c17dA20755D",
      "gasPrice": {
        "_hex": "0x10c15532a5"
      },
      "gasLimit": {
        "_hex": "0x7a120"
      },
      "to": "0xBAA54d6E90c3F4d7Ebec11bD180134C7eD8eBb52",
      "value": {
        "_hex": "0x16345785d8a0000"
      },
      "nonce": 36,
      "data": "0x",
      "r": "0x2d3f1daee78a2e3793e3d275d20eb0928d3f7e8516f95255f3ed8d3689eb1660",
      "s": "0x2a4d7c869481754b9e9cfbf268fb481bd089d0189636bf50c7f90ca1257ce2b3",
      "v": 28,
      "creates": null,
      "raw": "0xf86d248510c15532a58307a12094baa54d6e90c3f4d7ebec11bd180134c7ed8ebb5288016345785d8a0000801ca02d3f1daee78a2e3793e3d275d20eb0928d3f7e8516f95255f3ed8d3689eb1660a02a4d7c869481754b9e9cfbf268fb481bd089d0189636bf50c7f90ca1257ce2b3",
      "networkId": 0,
      "chainId": 0
    },
    {
      "hash": "0xed25069f0fd32d6f0f40922b43137e4ac12575db95d10220a03963c6290640cf",
      "blockHash": "0xcca55b0ac471c4debc97ec092c3bb1d894aae2d6c60825c74dfeaeec73ed9d16",
      "blockNumber": 55170,
      "transactionIndex": 3,
      "confirmations": null,
      "from": "0x0ae3F81a67725a8A7758FeB8684c6c17dA20755D",
      "gasPrice": {
        "_hex": "0x10c15532a5"
      },
      "gasLimit": {
        "_hex": "0x7a120"
      },
      "to": "0xBAA54d6E90c3F4d7Ebec11bD180134C7eD8eBb52",
      "value": {
        "_hex": "0x16345785d8a0000"
      },
      "nonce": 37,
      "data": "0x",
      "r": "0x88cbe971411d5f64c58192236db8d5f3a6c55acf332355820c1a5e4aff8d7646",
      "s": "0x1fb582834badcfd89a61261096a4fe9ce63cfa6dc3bdbf095a45b924042d13b1",
      "v": 27,
      "creates": null,
      "raw": "0xf86d258510c15532a58307a12094baa54d6e90c3f4d7ebec11bd180134c7ed8ebb5288016345785d8a0000801ba088cbe971411d5f64c58192236db8d5f3a6c55acf332355820c1a5e4aff8d7646a01fb582834badcfd89a61261096a4fe9ce63cfa6dc3bdbf095a45b924042d13b1",
      "networkId": 0,
      "chainId": 0
    },
    {
      "hash": "0xdafb2e40eada4cab4c873b8e8b3becf3eb69c690f63aa480d5b4abc1777fa9d0",
      "blockHash": "0xcca55b0ac471c4debc97ec092c3bb1d894aae2d6c60825c74dfeaeec73ed9d16",
      "blockNumber": 55170,
      "transactionIndex": 4,
      "confirmations": null,
      "from": "0x0ae3F81a67725a8A7758FeB8684c6c17dA20755D",
      "gasPrice": {
        "_hex": "0x10c15532a5"
      },
      "gasLimit": {
        "_hex": "0x7a120"
      },
      "to": "0xBAA54d6E90c3F4d7Ebec11bD180134C7eD8eBb52",
      "value": {
        "_hex": "0x16345785d8a0000"
      },
      "nonce": 38,
      "data": "0x",
      "r": "0x1b64e3b01bd107ba300b96852921469aef1b842d2e4da080a2ea40e310525e69",
      "s": "0x26c349c4c3170a4d87e2c2bcdfb76979e1d8bec548de504ffe4a0d7643203249",
      "v": 27,
      "creates": null,
      "raw": "0xf86d268510c15532a58307a12094baa54d6e90c3f4d7ebec11bd180134c7ed8ebb5288016345785d8a0000801ba01b64e3b01bd107ba300b96852921469aef1b842d2e4da080a2ea40e310525e69a026c349c4c3170a4d87e2c2bcdfb76979e1d8bec548de504ffe4a0d7643203249",
      "networkId": 0,
      "chainId": 0
    },
    {
      "hash": "0x936d0d7592862b434a32249161e433db7e58c2b9f7456dc80d605f073a797465",
      "blockHash": "0xcca55b0ac471c4debc97ec092c3bb1d894aae2d6c60825c74dfeaeec73ed9d16",
      "blockNumber": 55170,
      "transactionIndex": 5,
      "confirmations": null,
      "from": "0x0ae3F81a67725a8A7758FeB8684c6c17dA20755D",
      "gasPrice": {
        "_hex": "0x10c15532a5"
      },
      "gasLimit": {
        "_hex": "0x7a120"
      },
      "to": "0xBAA54d6E90c3F4d7Ebec11bD180134C7eD8eBb52",
      "value": {
        "_hex": "0x16345785d8a0000"
      },
      "nonce": 39,
      "data": "0x",
      "r": "0xda84d0a555f529c95dba52ef5ff9b96ea699a0b43d5dee0484f4de046df5370d",
      "s": "0x0c2db13a1cc6f0f77f2b2b2916dd60d7ce360ee731a8c9a5ba86753a8b51dc2b",
      "v": 27,
      "creates": null,
      "raw": "0xf86d278510c15532a58307a12094baa54d6e90c3f4d7ebec11bd180134c7ed8ebb5288016345785d8a0000801ba0da84d0a555f529c95dba52ef5ff9b96ea699a0b43d5dee0484f4de046df5370da00c2db13a1cc6f0f77f2b2b2916dd60d7ce360ee731a8c9a5ba86753a8b51dc2b",
      "networkId": 0,
      "chainId": 0
    }
  ]
}