{
  "hash": "0x5ccc35b53fa30ca01d00aa3912739ea443bd9bda1fc279852b6d68880f829cbf",
  "parentHash": "0x9d2ddbce43b0907735701eaf43ebf579c766c6424fa79f8444ffe52a0438dc77",
  "number": 64766,
  "timestamp": 1439225930,
  "nonce": "0x2cb487f5dd1d8a49",
  "difficulty": 1891267055621,
  "gasLimit": {
    "_hex": "0x2fefd8"
  },
  "gasUsed": {
    "_hex": "0x2a20"
  },
  "miner": "0x31995C46B15C84523cDEE26f49A681b8237e43F5",
  "extraData": "0x476574682f76312e302e312f77696e646f77732f676f312e342e32",
  "transactions": [
    {
      "hash": "0xbdcfedb9eb093bb2d7b54f0cec46357a505a06f33e5bc395a16bdbfa7db41e81",
      "blockHash": "0x5ccc35b53fa30ca01d00aa3912739ea443bd9bda1fc279852b6d68880f829cbf",
      "blockNumber": 64766,
      "transactionIndex": 0,
      "confirmations": null,
      "from": "0x54352A818Dd27c9461D18340589E5721864a47E8",
      "gasPrice": {
        "_hex": "0xd3e938103"
      },
      "gasLimit": {
        "_hex": "0x15f90"
      },
      "to": "0x28111823D089491106A18A3b1E08F15938F0510B",
      "value": {
        "_hex": "0x0"
      },
      "nonce": 3,
      "data": "0x41c0e1b5",
      "r": "0xcb88d2defa8fa28435449915196a9a1b714efa7d2b6027ab3f444415f807460d",
      "s": "0x4a5213b51ad999d44aa4eebb2452ab23357e06493a3642c48bd8a1d0bb180f99",
      "v": 27,
      "creates": null,
      "raw": "0xf86903850d3e93810383015f909428111823d089491106a18a3b1e08f15938f0510b808441c0e1b51ba0cb88d2defa8fa28435449915196a9a1b714efa7d2b6027ab3f444415f807460da04a5213b51ad999d44aa4eebb2452ab23357e06493a3642c48bd8a1d0bb180f99",
      "networkId": 0,
      "chainId": 0
    }
  ]
}