{
  "hash": "0x3369c3275f7ca03f6792722677b868da44a7594aec5d4afb175dc667d8c1a236",
  "parentHash": "0x3ab445677ad64a6dd744cc481cce4ad17c9ac6bf8a02148d5d5e62d30ad63b6e",
  "number": 81857,
  "timestamp": 1439509094,
  "nonce": "0xff8fb7adaac33710",
  "difficulty": 2417582832211,
  "gasLimit": {
    "_hex": "0x2fefd8"
  },
  "gasUsed": {
    "_hex": "0x5208"
  },
  "miner": "0x007f7f58D3eb5b7510A301eCC749FC1fCDDBE14D",
  "extraData": "0x476574682f76312e302e312f77696e646f77732f676f312e342e32",
  "transactions": [
    {
      "hash": "0x0d3377251686a8a5c429f30db2aff34b1f44c4b617f0ead516f9b80ac854c9a9",
      "blockHash": "0x3369c3275f7ca03f6792722677b868da44a7594aec5d4afb175dc667d8c1a236",
      "blockNumber": 81857,
      "transactionIndex": 0,
      "confirmations": null,
      "from": "0x6866e5e1FaBB4AbceF3EEb9Ea0d8CD6b52dfC9FF",
      "gasPrice": {
        "_hex": "0xd2c974150"
      },
      "gasLimit": {
        "_hex": "0x15f90"
      },
      "to": "0x01Ad0ACFf478127D9d702B1A13599D706cB759b1",
      "value": {
        "_hex": "0x2386f26fc10000"
      },
      "nonce": 16,
      "data": "0x",
      "r": "0x0ff45f967dc47a89e7f1be196fc097d2971e84c0f3ac001064a03c2c00862d3f",
      "s": "0x7c03be0a096a9c0f98327330346ddf45f716d2442ba22fb1f4693643ad35085d",
      "v": 28,
      "creates": null,
      "raw": "0xf86c10850d2c97415083015f909401ad0acff478127d9d702b1a13599d706cb759b1872386f26fc10000801ca00ff45f967dc47a89e7f1be196fc097d2971e84c0f3ac001064a03c2c00862d3fa07c03be0a096a9c0f98327330346ddf45f716d2442ba22fb1f4693643ad35085d",
      "networkId": 0,
      "chainId": 0
    }
  ]
}