{
  "hash": "0x89ac51fa1f9f5812c1585f5485d218c5abbf5f387841f7b7276ff6dc7b144d38",
  "parentHash": "0x125417c838e65639631a954fe47b68378f064934e79af9898264c782d3b58adb",
  "number": 71687,
  "timestamp": 1439340088,
  "nonce": "0x0a6b23693f90fd2c",
  "difficulty": 2182486748063,
  "gasLimit": {
    "_hex": "0x2fefd8"
  },
  "gasUsed": {
    "_hex": "0x5208"
  },
  "miner": "0x70137010922f2fC2964b3792907F79FBB75fEbe8",
  "extraData": "0x476574682f76312e302e312f6c696e75782f676f312e342e32",
  "transactions": [
    {
      "hash": "0xac905a18b3dcc5b0793c0ebd3c5fff748353c1f04a18ba7222f86a9bb7e1eb9e",
      "blockHash": "0x89ac51fa1f9f5812c1585f5485d218c5abbf5f387841f7b7276ff6dc7b144d38",
      "blockNumber": 71687,
      "transactionIndex": 0,
      "confirmations": null,
      "from": "0xC759dc67E0c3816fdC56A2f5bb29920fc07e767D",
      "gasPrice": {
        "_hex": "0xdd1bf6e8c"
      },
      "gasLimit": {
        "_hex": "0x5208"
      },
      "to": "0x910a4aADabb3A7B3F7879118332E13Da66b68D77",
      "value": {
        "_hex": "0x8ac7230489e80000"
      },
      "nonce": 15,
      "data": "0x",
      "r": "0x5839b3fcd12ee899a96666624b1f621062e2daf5f380747f0dd4a24342f6c349",
      "s": "0x2c9d8039bc8806576019b54d1cb07345199804a8b2676e7303cdb1341404146b",
      "v": 28,
      "creates": null,
      "raw": "0xf86c0f850dd1bf6e8c82520894910a4aadabb3a7b3f7879118332e13da66b68d77888ac7230489e80000801ca05839b3fcd12ee899a96666624b1f621062e2daf5f380747f0dd4a24342f6c349a02c9d8039bc8806576019b54d1cb07345199804a8b2676e7303cdb1341404146b",
      "networkId": 0,
      "chainId": 0
    }
  ]
}