{
  "hash": "0x109430c07cfe3b75a84755a2cda3ddfd8855c43eeb4b756e4947c23156d59d10",
  "parentHash": "0x26ed1212bd376791fac0fac456d11c0b17f1d52d63102a76d4f0e81ceefb8fb6",
  "number": 115414,
  "timestamp": 1440056810,
  "nonce": "0x1f6ae4b381cb37cc",
  "difficulty": 4567219860500,
  "gasLimit": {
    "_hex": "0x2fefd8"
  },
  "gasUsed": {
    "_hex": "0x5208"
  },
  "miner": "0x52bc44d5378309EE2abF1539BF71dE1b7d7bE3b5",
  "extraData": "0x476574682f76312e302e312d65626434373230372f6c696e75782f676f312e34",
  "transactions": [
    {
      "hash": "0xbc000c386077103e3863be9f877e2ef70957b6438668a14fb09f8f47c5b95959",
      "blockHash": "0x109430c07cfe3b75a84755a2cda3ddfd8855c43eeb4b756e4947c23156d59d10",
      "blockNumber": 115414,
      "transactionIndex": 0,
      "confirmations": null,
      "from": "0xAf3A6A5088BFBFc43bFf4eFC46e3142092B49258",
      "gasPrice": {
        "_hex": "0xcb9f6dbc9"
      },
      "gasLimit": {
        "_hex": "0x5208"
      },
      "to": "0x32Be343B94f860124dC4fEe278FDCBD38C102D88",
      "value": {
        "_hex": "0x157298b61842c400"
      },
      "nonce": 4,
      "data": "0x",
      "r": "0xb14654081496aaf1f0f7f7a5446fd8d9623d0081c2aa638f65cf05191890f603",
      "s": "0x3210afc9b31e3475bb5c2660fe0c1d9f0bdac2ba6f8886e9a5f26ca9340e4f98",
      "v": 28,
      "creates": null,
      "raw": "0xf86c04850cb9f6dbc98252089432be343b94f860124dc4fee278fdcbd38c102d8888157298b61842c400801ca0b14654081496aaf1f0f7f7a5446fd8d9623d0081c2aa638f65cf05191890f603a03210afc9b31e3475bb5c2660fe0c1d9f0bdac2ba6f8886e9a5f26ca9340e4f98",
      "networkId": 0,
      "chainId": 0
    }
  ]
}