{
  "hash": "0xdec45020249a508205bb0c18e9f9167653a44304a1284cf4a5fa5525ff987ed9",
  "parentHash": "0x0acde61a42b3c8b88fbb4a5398910e3f16ba08d742e19ab5d311be58bf2a7c5d",
  "number": 121749,
  "timestamp": 1440181891,
  "nonce": "0xe2af8128dc526e3c",
  "difficulty": 4482061404564,
  "gasLimit": {
    "_hex": "0x2fefd8"
  },
  "gasUsed": {
    "_hex": "0x5208"
  },
  "miner": "0xf8E0CA3Ed80bd541b94BEdCf259e8CF2141A9523",
  "extraData": "0x",
  "transactions": [
    {
      "hash": "0x07f1a70bba594c0631864bfb7284ff5e9ab7b756fe2a94f603a75180700f1121",
      "blockHash": "0xdec45020249a508205bb0c18e9f9167653a44304a1284cf4a5fa5525ff987ed9",
      "blockNumber": 121749,
      "transactionIndex": 0,
      "confirmations": null,
      "from": "0x96AA9d72B4606B440Ef85352439AEC5Db106ddAD",
      "gasPrice": {
        "_hex": "0xba43b7400"
      },
      "gasLimit": {
        "_hex": "0x15f90"
      },
      "to": "0xb735BF53Abc79525A4f585A004A620d08cc66B27",
      "value": {
        "_hex": "0xde0b6b3a7640000"
      },
      "nonce": 1,
      "data": "0x",
      "r": "0x7452c7bf1ab786bdb6fdb931f4d4de5e482335f2d75119373647d72192e71c25",
      "s": "0x31990fae95561910bf3d7ff7fbe0eb9c64729effdeea230b278fe0ff525fc9f3",
      "v": 27,
      "creates": null,
      "raw": "0xf86d01850ba43b740083015f9094b735bf53abc79525a4f585a004a620d08cc66b27880de0b6b3a7640000801ba07452c7bf1ab786bdb6fdb931f4d4de5e482335f2d75119373647d72192e71c25a031990fae95561910bf3d7ff7fbe0eb9c64729effdeea230b278fe0ff525fc9f3",
      "networkId": 0,
      "chainId": 0
    }
  ]
}