{
  "hash": "0x15bb045b8cbb1d4f8d927defc5af4b00ae4f83d7c32cd6a28faba4267b90d4e9",
  "parentHash": "0xdeac541cbb890414b12ca35591fb5d70d470db19e05c8a3c0812898330738f7b",
  "number": 77109,
  "timestamp": 1439431717,
  "nonce": "0xa7773a2e5265da34",
  "difficulty": 2239350287411,
  "gasLimit": {
    "_hex": "0x2fefd8"
  },
  "gasUsed": {
    "_hex": "0xa674"
  },
  "miner": "0xe6A7a1d47ff21B6321162AEA7C6CB457D5476Bca",
  "extraData": "0x476574682f76312e302e312d38326566323666362f6c696e75782f676f312e34",
  "transactions": [
    {
      "hash": "0xcc6adf571480b824aa940d25fe8a71e3be394aa2993765b4e8ce311d9cdc2eb1",
      "blockHash": "0x15bb045b8cbb1d4f8d927defc5af4b00ae4f83d7c32cd6a28faba4267b90d4e9",
      "blockNumber": 77109,
      "transactionIndex": 0,
      "confirmations": null,
      "from": "0xE7FD8fd959aEd2767ea7FA960ce1DB53AF802573",
      "gasPrice": {
        "_hex": "0x110c8f7d8de"
      },
      "gasLimit": {
        "_hex": "0xc350"
      },
      "to": "0x2910543Af39abA0Cd09dBb2D50200b3E800A63D2",
      "value": {
        "_hex": "0x1b1ae4d6e2ef500000"
      },
      "nonce": 0,
      "data": "0x454e4d55575a335830",
      "r": "0xd74e19e5e6c1171b36e4a6b51de899023394c48af5db99eb3fbf6a81298e4a10",
      "s": "0xd969f5ade84a95c3078f9e023b26d8ad96115312b3a6d68320ec4c027fbe234f",
      "v": 28,
      "creates": null,
      "raw": "0xf87780860110c8f7d8de82c350942910543af39aba0cd09dbb2d50200b3e800a63d2891b1ae4d6e2ef50000089454e4d55575a3358301ca0d74e19e5e6c1171b36e4a6b51de899023394c48af5db99eb3fbf6a81298e4a10a0d969f5ade84a95c3078f9e023b26d8ad96115312b3a6d68320ec4c027fbe234f",
      "networkId": 0,
      "chainId": 0
    },
    {
      "hash": "0x1fa0ce9e376dafab57220c9922711ba3c6d416bfcab1abdb165993d5f18851b4",
      "blockHash": "0x15bb045b8cbb1d4f8d927defc5af4b00ae4f83d7c32cd6a28faba4267b90d4e9",
      "blockNumber": 77109,
      "transactionIndex": 1,
      "confirmations": null,
      "from": "0x32Be343B94f860124dC4fEe278FDCBD38C102D88",
      "gasPrice": {
        "_hex": "0xd94acd0bd"
      },
      "gasLimit": {
        "_hex": "0x5208"
      },
      "to": "0x5170535271F5B9eC438c0447b3daD67b3E2633f2",
      "value": {
        "_hex": "0x29a2241af62c0000"
      },
      "nonce": 361,
      "data": "0x",
      "r": "0x39a2ad49eaf971e36c19cc5f13ec6cc553028bff3d24e6066a3717229d2da0d9",
      "s": "0x1ec7673a40e24e70205e5cc9f56ae00e7c6bca52281e9c9353c77fc8a76e2a62",
      "v": 27,
      "creates": null,
      "raw": "0xf86e820169850d94acd0bd825208945170535271f5b9ec438c0447b3dad67b3e2633f28829a2241af62c0000801ba039a2ad49eaf971e36c19cc5f13ec6cc553028bff3d24e6066a3717229d2da0d9a01ec7673a40e24e70205e5cc9f56ae00e7c6bca52281e9c9353c77fc8a76e2a62",
      "networkId": 0,
      "chainId": 0
    }
  ]
}