{
  "hash": "0x0db7537a03272d5a9f9f9c3a3b365e4c00486c02436b946cf220b28caab251f2",
  "parentHash": "0xdab733ec7b056f4819063cfc29d644cade1cd27272243f97c36499bb5e9e25ed",
  "number": 109152,
  "timestamp": 1439951693,
  "nonce": "0xe368b219048950ce",
  "difficulty": 4460393979716,
  "gasLimit": {
    "_hex": "0x2fefd8"
  },
  "gasUsed": {
    "_hex": "0xa410"
  },
  "miner": "0x623d2411c3bb3340784155F9a688b0085251aB5c",
  "extraData": "0x",
  "transactions": [
    {
      "hash": "0xa3a5ed55536eb5663ebaca1ca0c2f93c6b93b6f6115c6ed0fd1883d37c17850f",
      "blockHash": "0x0db7537a03272d5a9f9f9c3a3b365e4c00486c02436b946cf220b28caab251f2",
      "blockNumber": 109152,
      "transactionIndex": 0,
      "confirmations": null,
      "from": "0x32Be343B94f860124dC4fEe278FDCBD38C102D88",
      "gasPrice": {
        "_hex": "0xcebbbe65b"
      },
      "gasLimit": {
        "_hex": "0x5208"
      },
      "to": "0x120A270bbC009644e35F0bB6ab13f95b8199c4ad",
      "value": {
        "_hex": "0x14542ba12a337c00000"
      },
      "nonce": 1268,
      "data": "0x",
      "r": "0xe55cbb34ff32057819d241922240063b5aede3859a46678dc0dd4aca4e587310",
      "s": "0x1f4e04fb72c33692a6ef2667988e6fbe7aa4f05d691789dd6c43c15e62ba1e25",
      "v": 28,
      "creates": null,
      "raw": "0xf8708204f4850cebbbe65b82520894120a270bbc009644e35f0bb6ab13f95b8199c4ad8a014542ba12a337c00000801ca0e55cbb34ff32057819d241922240063b5aede3859a46678dc0dd4aca4e587310a01f4e04fb72c33692a6ef2667988e6fbe7aa4f05d691789dd6c43c15e62ba1e25",
      "networkId": 0,
      "chainId": 0
    },
    {
      "hash": "0x33ca745af598cd32e4019a4a68ac4806938af9086fedfcfd20a426f4313a5364",
      "blockHash": "0x0db7537a03272d5a9f9f9c3a3b365e4c00486c02436b946cf220b28caab251f2",
      "blockNumber": 109152,
      "transactionIndex": 1,
      "confirmations": null,
      "from": "0x120A270bbC009644e35F0bB6ab13f95b8199c4ad",
      "gasPrice": {
        "_hex": "0xcd5c871ad"
      },
      "gasLimit": {
        "_hex": "0x3d090"
      },
      "to": "0x06C503404928FC8F0e70a41C58751a2A20dF3D3e",
      "value": {
        "_hex": "0x1909bb7a5f6d5800"
      },
      "nonce": 851,
      "data": "0x",
      "r": "0x03efcf68fb42c0af3b1b448b4bbd2b175e32b387eb938579823d5a27081550c7",
      "s": "0x40603b14117fb5890d455176d4e104d5976b30f3a188973a338d3d2838fe2c38",
      "v": 27,
      "creates": null,
      "raw": "0xf86f820353850cd5c871ad8303d0909406c503404928fc8f0e70a41c58751a2a20df3d3e881909bb7a5f6d5800801ba003efcf68fb42c0af3b1b448b4bbd2b175e32b387eb938579823d5a27081550c7a040603b14117fb5890d455176d4e104d5976b30f3a188973a338d3d2838fe2c38",
      "networkId": 0,
      "chainId": 0
    }
  ]
}