{
  "hash": "0x0b174597619626ddc3ba1f19f67e215695e945356706c06a5ef840fd332e5bca",
  "parentHash": "0xae29ad62507254c47d0403139cea1eca0b12f6eccaf75d9418a5fb21f0774e99",
  "number": 100532,
  "timestamp": 1439807953,
  "nonce": "0x273d5b496e5e4556",
  "difficulty": 3830304706800,
  "gasLimit": {
    "_hex": "0x2fefd8"
  },
  "gasUsed": {
    "_hex": "0x546c"
  },
  "miner": "0xe6A7a1d47ff21B6321162AEA7C6CB457D5476Bca",
  "extraData": "0x476574682f76312e302e312d38326566323666362f6c696e75782f676f312e34",
  "transactions": [
    {
      "hash": "0x4289fc84da034598254d845a1bd5617fb2a491d25c5b230be74cd1295f6e10b3",
      "blockHash": "0x0b174597619626ddc3ba1f19f67e215695e945356706c06a5ef840fd332e5bca",
      "blockNumber": 100532,
      "transactionIndex": 0,
      "confirmations": null,
      "from": "0xa38B5BD81a9db9D2b21D5ec7c60552Cd02ed561B",
      "gasPrice": {
        "_hex": "0x110c8f7d8de"
      },
      "gasLimit": {
        "_hex": "0xc350"
      },
      "to": "0x2910543Af39abA0Cd09dBb2D50200b3E800A63D2",
      "value": {
        "_hex": "0x3635c9adc5dea00000"
      },
      "nonce": 0,
      "data": "0x454e50575a51425552",
      "r": "0x59f7b002a85aeda247cd4da7930c5cfab77efd58821c7e62c8ba3360f8bd25b1",
      "s": "0xc7144c4cb36e85254837313819564ab961577356f60d29f115a4c89c812f9f40",
      "v": 28,
      "creates": null,
      "raw": "0xf87780860110c8f7d8de82c350942910543af39aba0cd09dbb2d50200b3e800a63d2893635c9adc5dea0000089454e50575a514255521ca059f7b002a85aeda247cd4da7930c5cfab77efd58821c7e62c8ba3360f8bd25b1a0c7144c4cb36e85254837313819564ab961577356f60d29f115a4c89c812f9f40",
      "networkId": 0,
      "chainId": 0
    }
  ]
}