{
  "hash": "0x0fe855de2ae66f9d8910c9cce3a6f36b7d908a91dc49b6f8e91a6627acb0de8d",
  "parentHash": "0xdaba7510b187df15ea1f8c1108574eaaf522a1a4c2b9cf55406069067eff56cf",
  "number": 92449,
  "timestamp": 1439672216,
  "nonce": "0xcb670b2f9c4dc2ce",
  "difficulty": 3519991944883,
  "gasLimit": {
    "_hex": "0x2fefd8"
  },
  "gasUsed": {
    "_hex": "0x5208"
  },
  "miner": "0xe6A7a1d47ff21B6321162AEA7C6CB457D5476Bca",
  "extraData": "0x476574682f76312e302e312d38326566323666362f6c696e75782f676f312e34",
  "transactions": [
    {
      "hash": "0x7d7b35a06b40226010a33f51d5cab73db994e68074840f2525c87d503c21f5d8",
      "blockHash": "0x0fe855de2ae66f9d8910c9cce3a6f36b7d908a91dc49b6f8e91a6627acb0de8d",
      "blockNumber": 92449,
      "transactionIndex": 0,
      "confirmations": null,
      "from": "0xDdFafdbC7c90f1320e54b98F374617fbd01d109f",
      "gasPrice": {
        "_hex": "0x110d2cb5fad"
      },
      "gasLimit": {
        "_hex": "0x55f0"
      },
      "to": "0x996262E4E0C9CA1ED4882E3402B9D60E1f9CC3A1",
      "value": {
        "_hex": "0x8ac7230489e80000"
      },
      "nonce": 3,
      "data": "0x",
      "r": "0x260afdff37f01f13847b122001bf4ad34a584ad30d9f356eca375b2d97720a36",
      "s": "0x6d53aa52c652a3874ae65c09d1d65540ab1f5eac9405662ec897e685731ce0e2",
      "v": 27,
      "creates": null,
      "raw": "0xf86d03860110d2cb5fad8255f094996262e4e0c9ca1ed4882e3402b9d60e1f9cc3a1888ac7230489e80000801ba0260afdff37f01f13847b122001bf4ad34a584ad30d9f356eca375b2d97720a36a06d53aa52c652a3874ae65c09d1d65540ab1f5eac9405662ec897e685731ce0e2",
      "networkId": 0,
      "chainId": 0
    }
  ]
}