{
  "hash": "0x2e8c2dd6c0a92a5369ddce6906e875a527d5c119a2cbb3112b69030a0d2c6ab1",
  "parentHash": "0x605f9a9d6cebcf9764f7412f882ab12d7d6e9629df2f78fcd1f2d904881a3281",
  "number": 89452,
  "timestamp": 1439623772,
  "nonce": "0x8a51d7ad39a99f48",
  "difficulty": 3303065982327,
  "gasLimit": {
    "_hex": "0x2fe3de"
  },
  "gasUsed": {
    "_hex": "0x546c"
  },
  "miner": "0xA10C59651885FeAaac91F871082a23BBbaBeDfCf",
  "extraData": "0x476574682f76312e302e302f77696e646f77732f676f312e342e32",
  "transactions": [
    {
      "hash": "0x37d9adb88f00b1fa78d5ca4486fdadfd9ae3193e3251545300f3ec6679d06744",
      "blockHash": "0x2e8c2dd6c0a92a5369ddce6906e875a527d5c119a2cbb3112b69030a0d2c6ab1",
      "blockNumber": 89452,
      "transactionIndex": 0,
      "confirmations": null,
      "from": "0xb834ACF3015322c58382EEb2B79638906e88B6dE",
      "gasPrice": {
        "_hex": "0x110c8f7d8de"
      },
      "gasLimit": {
        "_hex": "0xc350"
      },
      "to": "0x2910543Af39abA0Cd09dBb2D50200b3E800A63D2",
      "value": {
        "_hex": "0x5150a1320de407a0000"
      },
      "nonce": 0,
      "data": "0x454e314339504b5952",
      "r": "0xdf55fbba38d2c4816ada42ce6ea2126b53e3ef4d8f6d5bb034a1cf27de9e398c",
      "s": "0x4d2c0ba485fcc828a1e233a952e556699550cc275662ab845acb9492812aaa01",
      "v": 27,
      "creates": null,
      "raw": "0xf87880860110c8f7d8de82c350942910543af39aba0cd09dbb2d50200b3e800a63d28a05150a1320de407a000089454e314339504b59521ba0df55fbba38d2c4816ada42ce6ea2126b53e3ef4d8f6d5bb034a1cf27de9e398ca04d2c0ba485fcc828a1e233a952e556699550cc275662ab845acb9492812aaa01",
      "networkId": 0,
      "chainId": 0
    }
  ]
}