{
  "hash": "0xe45fed8deb42679c97b9156bdb4e637b2f86754a522919da6ffc98d9d3eb9ea7",
  "parentHash": "0x0aa7368554d22167c7aa51a3577e8a4bd2c85f6fe7d7b1466aa127e9d1463aa5",
  "number": 57451,
  "timestamp": 1439103654,
  "nonce": "0x5dfc5dbb787e2bd0",
  "difficulty": 1741284257459,
  "gasLimit": {
    "_hex": "0x2fe3fc"
  },
  "gasUsed": {
    "_hex": "0x546c"
  },
  "miner": "0x70C6b45fe0A5116E97B112B806A76E2F51E24413",
  "extraData": "0x476574682f76312e302e302f77696e646f77732f676f312e342e32",
  "transactions": [
    {
      "hash": "0x2640a0f76c534cca8dc9887ddc8479e1b958d75052b61b1d16abc1d4575ad74f",
      "blockHash": "0xe45fed8deb42679c97b9156bdb4e637b2f86754a522919da6ffc98d9d3eb9ea7",
      "blockNumber": 57451,
      "transactionIndex": 0,
      "confirmations": null,
      "from": "0xc420388fBEE84aD656dD68cdC1fBaa9392780b34",
      "gasPrice": {
        "_hex": "0x110c8f7d8de"
      },
      "gasLimit": {
        "_hex": "0xc350"
      },
      "to": "0x2910543Af39abA0Cd09dBb2D50200b3E800A63D2",
      "value": {
        "_hex": "0x2017a67f731740000"
      },
      "nonce": 1,
      "data": "0x454e47483941554847",
      "r": "0xdac0ab1be7ee822a40efd4703d6ada1de17195f42d320d140fb28b59fc280172",
      "s": "0x1c4c523dbfc5a3e1ab5ac7e3f927ba672da3f94ff352c4a3377a74749ead68ac",
      "v": 27,
      "creates": null,
      "raw": "0xf87701860110c8f7d8de82c350942910543af39aba0cd09dbb2d50200b3e800a63d28902017a67f73174000089454e474839415548471ba0dac0ab1be7ee822a40efd4703d6ada1de17195f42d320d140fb28b59fc280172a01c4c523dbfc5a3e1ab5ac7e3f927ba672da3f94ff352c4a3377a74749ead68ac",
      "networkId": 0,
      "chainId": 0
    }
  ]
}