{
  "hash": "0x8f0c821fc82af10a43e1c3dbedbc1ead788fef154514f1d6fa0b1d9dd3ef0765",
  "parentHash": "0xe204d522ebf10215827662be477cd93833964a6c9b8b7a1a2bcaed76a93b25ce",
  "number": 47345,
  "timestamp": 1438938676,
  "nonce": "0xbef2e7e0aa84a280",
  "difficulty": 1450972301836,
  "gasLimit": {
    "_hex": "0xb259"
  },
  "gasUsed": {
    "_hex": "0xa410"
  },
  "miner": "0x20c6Efe179C293690A5B3375F5bd81c2f07Ed037",
  "extraData": "0x476574682f76312e302e312d38326566323666362f6c696e75782f676f312e34",
  "transactions": [
    {
      "hash": "0x17a80d60924fdf27190a49177b53e8560d56e2492b7b0f924f2f6b94abb60a0c",
      "blockHash": "0x8f0c821fc82af10a43e1c3dbedbc1ead788fef154514f1d6fa0b1d9dd3ef0765",
      "blockNumber": 47345,
      "transactionIndex": 0,
      "confirmations": null,
      "from": "0xe6A7a1d47ff21B6321162AEA7C6CB457D5476Bca",
      "gasPrice": {
        "_hex": "0x12d89d4af5"
      },
      "gasLimit": {
        "_hex": "0x5208"
      },
      "to": "0x72B04597570ca1Bd15727a8a23D7df9D432530b1",
      "value": {
        "_hex": "0xe290ebfc28f615b0"
      },
      "nonce": 117,
      "data": "0x",
      "r": "0xedcfcc7271b1f23ddccefd13a43bb07ff1b2083b584324fc58179cf6d86350c5",
      "s": "0x7da6c4e3ae20e116078db2a12cc0b22a55f0b4e4e182ad7627dc8162ab4e717f",
      "v": 27,
      "creates": null,
      "raw": "0xf86c758512d89d4af58252089472b04597570ca1bd15727a8a23d7df9d432530b188e290ebfc28f615b0801ba0edcfcc7271b1f23ddccefd13a43bb07ff1b2083b584324fc58179cf6d86350c5a07da6c4e3ae20e116078db2a12cc0b22a55f0b4e4e182ad7627dc8162ab4e717f",
      "networkId": 0,
      "chainId": 0
    },
    {
      "hash": "0x9f1a373857fb57072ea70a17bbc07601442511eab94b2dc9078d639bd5ab06bb",
      "blockHash": "0x8f0c821fc82af10a43e1c3dbedbc1ead788fef154514f1d6fa0b1d9dd3ef0765",
      "blockNumber": 47345,
      "transactionIndex": 1,
      "confirmations": null,
      "from": "0xc3cb6B36Af443F2C6e258B4a39553a818747811F",
      "gasPrice": {
        "_hex": "0x117fd9b8f2"
      },
      "gasLimit": {
        "_hex": "0x5359"
      },
      "to": "0x655Ce0C27E77D78C7e3e89F09EA6dfa394610b5f",
      "value": {
        "_hex": "0x1bc16d674ec80000"
      },
      "nonce": 0,
      "data": "0x",
      "r": "0x7af2ec1d27d9f6d3c99d8afdff71d0069dbc07bd45ef8e1493b6c9b2de2fbe8e",
      "s": "0x5e4f262e609a148228dcb33b5b77ff5f4b55016e170e913bddf3b2872abeaece",
      "v": 28,
      "creates": null,
      "raw": "0xf86c8085117fd9b8f282535994655ce0c27e77d78c7e3e89f09ea6dfa394610b5f881bc16d674ec80000801ca07af2ec1d27d9f6d3c99d8afdff71d0069dbc07bd45ef8e1493b6c9b2de2fbe8ea05e4f262e609a148228dcb33b5b77ff5f4b55016e170e913bddf3b2872abeaece",
      "networkId": 0,
      "chainId": 0
    }
  ]
}