{
  "hash": "0x5c465ca76f04164e4fa5a83f8fb088d4f274ce5f51f9b0a4082e10fa5cd95c11",
  "parentHash": "0xe018774c6595deb696929be8a8aeb4212ca37598d494ba45e729502e65b59c5d",
  "number": 84377,
  "timestamp": 1439548856,
  "nonce": "0xf03ae39f4d53949d",
  "difficulty": 2547728513221,
  "gasLimit": {
    "_hex": "0x2fefd8"
  },
  "gasUsed": {
    "_hex": "0xa674"
  },
  "miner": "0x47ff6576639c2e94762eA5443978D7681C0E78DC",
  "extraData": "0x476574682f76312e302e312f6c696e75782f676f312e342e32",
  "transactions": [
    {
      "hash": "0xb9bff114d8d32055d2751319a8916cc92b3f6ee2c2e53d80a68765c203141e8d",
      "blockHash": "0x5c465ca76f04164e4fa5a83f8fb088d4f274ce5f51f9b0a4082e10fa5cd95c11",
      "blockNumber": 84377,
      "transactionIndex": 0,
      "confirmations": null,
      "from": "0x2910543Af39abA0Cd09dBb2D50200b3E800A63D2",
      "gasPrice": {
        "_hex": "0xddaca5a2d"
      },
      "gasLimit": {
        "_hex": "0x5208"
      },
      "to": "0x2C6dA0AeEF23c6a9eA4a8f19c0810e505FDEb231",
      "value": {
        "_hex": "0x119f997412a79d8000"
      },
      "nonce": 552,
      "data": "0x",
      "r": "0xb02aad2d9d15ef6f921368ef124a53d590fb1244c604964c2d9e174fa05118d5",
      "s": "0x736be7e61e62c4c671489b774315852a63b66c3b9d47d02a18dc44198f9f4344",
      "v": 27,
      "creates": null,
      "raw": "0xf86f820228850ddaca5a2d825208942c6da0aeef23c6a9ea4a8f19c0810e505fdeb23189119f997412a79d8000801ba0b02aad2d9d15ef6f921368ef124a53d590fb1244c604964c2d9e174fa05118d5a0736be7e61e62c4c671489b774315852a63b66c3b9d47d02a18dc44198f9f4344",
      "networkId": 0,
      "chainId": 0
    },
    {
      "hash": "0x66f7933b75485302d278762457a77908c149e2c91953fef488192ffecd7a5cc1",
      "blockHash": "0x5c465ca76f04164e4fa5a83f8fb088d4f274ce5f51f9b0a4082e10fa5cd95c11",
      "blockNumber": 84377,
      "transactionIndex": 1,
      "confirmations": null,
      "from": "0x837A2A346557050c8cF0fb24b84Aa695E8Add19f",
      "gasPrice": {
        "_hex": "0xd1a674cfa"
      },
      "gasLimit": {
        "_hex": "0x55f0"
      },
      "to": "0x2910543Af39abA0Cd09dBb2D50200b3E800A63D2",
      "value": {
        "_hex": "0x68155a43676e00000"
      },
      "nonce": 3,
      "data": "0x454e415157474e5a38",
      "r": "0x51a802781a56edb7ae84965c610c1f32d8ab2d6ca44e297d32e8ccc15bc9d76b",
      "s": "0x02bd458a8dc6f84caee87aa7c9e0e42a11cfa052e1eebc1fa6cf3466e92dde90",
      "v": 27,
      "creates": null,
      "raw": "0xf87603850d1a674cfa8255f0942910543af39aba0cd09dbb2d50200b3e800a63d289068155a43676e0000089454e415157474e5a381ba051a802781a56edb7ae84965c610c1f32d8ab2d6ca44e297d32e8ccc15bc9d76ba002bd458a8dc6f84caee87aa7c9e0e42a11cfa052e1eebc1fa6cf3466e92dde90",
      "networkId": 0,
      "chainId": 0
    }
  ]
}