{
  "hash": "0x26729c133850f26bdb9805477a4822e4f60f7167106c29155ff17fd1cec6d4fd",
  "parentHash": "0x68fd18a0b19203eea63eed842c4a696e92b7b671a1aba3db8fb4f63e3dc49da3",
  "number": 58450,
  "timestamp": 1439120744,
  "nonce": "0x9ddcf40f3570dec2",
  "difficulty": 1718273890847,
  "gasLimit": {
    "_hex": "0x2fefd8"
  },
  "gasUsed": {
    "_hex": "0xf618"
  },
  "miner": "0xf32866D5cE9a9b5673e076be48AbCd6ED48ADe78",
  "extraData": "0x476574682f76312e302e312d37666266393930632f6c696e75782f676f312e34",
  "transactions": [
    {
      "hash": "0x32225b0ba43a5bd0618e094fdefe06a49790574547b7f2324c428383914b5fb2",
      "blockHash": "0x26729c133850f26bdb9805477a4822e4f60f7167106c29155ff17fd1cec6d4fd",
      "blockNumber": 58450,
      "transactionIndex": 0,
      "confirmations": null,
      "from": "0x0092C5f887DD0e13E43dBDbcedFa02e332C11FDb",
      "gasPrice": {
        "_hex": "0xde610f962"
      },
      "gasLimit": {
        "_hex": "0x5208"
      },
      "to": "0x32Be343B94f860124dC4fEe278FDCBD38C102D88",
      "value": {
        "_hex": "0xa2a1589531c5480000"
      },
      "nonce": 2,
      "data": "0x",
      "r": "0x655a61e0146fec9fd2c2787cd8201a75abb836924a951c2fd66ff76bd18a8ade",
      "s": "0x3501e4ffb9d93e782c678404c940154b27838d32aae7933b030ed9478c8f70c0",
      "v": 27,
      "creates": null,
      "raw": "0xf86d02850de610f9628252089432be343b94f860124dc4fee278fdcbd38c102d8889a2a1589531c5480000801ba0655a61e0146fec9fd2c2787cd8201a75abb836924a951c2fd66ff76bd18a8adea03501e4ffb9d93e782c678404c940154b27838d32aae7933b030ed9478c8f70c0",
      "networkId": 0,
      "chainId": 0
    },
    {
      "hash": "0xafe6a51eaae518467a54a29c5002c26a8978a480844cd9c8c6b0f10201ca46d3",
      "blockHash": "0x26729c133850f26bdb9805477a4822e4f60f7167106c29155ff17fd1cec6d4fd",
      "blockNumber": 58450,
      "transactionIndex": 1,
      "confirmations": null,
      "from": "0xD9666150A9dA92d9108198a4072970805a8B3428",
      "gasPrice": {
        "_hex": "0xde610f962"
      },
      "gasLimit": {
        "_hex": "0x5208"
      },
      "to": "0x32Be343B94f860124dC4fEe278FDCBD38C102D88",
      "value": {
        "_hex": "0x485ed45a7997cc0000"
      },
      "nonce": 1,
      "data": "0x",
      "r": "0xab30d840123321dc50f87580f5ba77e476989cae7fbcfe45871605369e181232",
      "s": "0x0a1f61dd0d9ed71d4314c0d72b4d2e3a59f81e2727ea3399fa336f84c05298b3",
      "v": 27,
      "creates": null,
      "raw": "0xf86d01850de610f9628252089432be343b94f860124dc4fee278fdcbd38c102d8889485ed45a7997cc0000801ba0ab30d840123321dc50f87580f5ba77e476989cae7fbcfe45871605369e181232a00a1f61dd0d9ed71d4314c0d72b4d2e3a59f81e2727ea3399fa336f84c05298b3",
      "networkId": 0,
      "chainId": 0
    },
    {
      "hash": "0x4c84cfc0ff35df84016bffb5268dee809e88b78e78ba022c22c813f0ae6c1a7b",
      "blockHash": "0x26729c133850f26bdb9805477a4822e4f60f7167106c29155ff17fd1cec6d4fd",
      "blockNumber": 58450,
      "transactionIndex": 2,
      "confirmations": null,
      "from": "0x120A270bbC009644e35F0bB6ab13f95b8199c4ad",
      "gasPrice": {
        "_hex": "0xd23c87a33"
      },
      "gasLimit": {
        "_hex": "0x15f90"
      },
      "to": "0x7cB6238e868f46E988975F3B52ce56598ECaE7AF",
      "value": {
        "_hex": "0xfafcd51b043cdc400"
      },
      "nonce": 45,
      "data": "0x",
      "r": "0x62837d43e8230963765b99e3cca76df447e076093e613c46d497830dbce433e8",
      "s": "0x479646ffeb114a698355a77a2de6bc72fb550b935cb127a03c3848521eba0ddb",
      "v": 28,
      "creates": null,
      "raw": "0xf86e2d850d23c87a3383015f90947cb6238e868f46e988975f3b52ce56598ecae7af890fafcd51b043cdc400801ca062837d43e8230963765b99e3cca76df447e076093e613c46d497830dbce433e8a0479646ffeb114a698355a77a2de6bc72fb550b935cb127a03c3848521eba0ddb",
      "networkId": 0,
      "chainId": 0
    }
  ]
}