{
  "hash": "0x779a97a065be37de11cbb97d1c985a903d399fd45416cf3a8b1fdaed38193ec7",
  "parentHash": "0xa1a95cb16b27785511f31dcd8edd06d8714b764086d6c8b334958cb48edc31f5",
  "number": 80220,
  "timestamp": 1439482058,
  "nonce": "0x0d55bf94c2b9269f",
  "difficulty": 2374761352530,
  "gasLimit": {
    "_hex": "0x2fefd8"
  },
  "gasUsed": {
    "_hex": "0x5208"
  },
  "miner": "0xA0cd872D3Abd6c4BaA55f15C35aC05730a1b621b",
  "extraData": "0x",
  "transactions": [
    {
      "hash": "0xcbfe1bbe43b2409e8c25d29585ae4a028bf57aa698b67aa85cb656261bae7d20",
      "blockHash": "0x779a97a065be37de11cbb97d1c985a903d399fd45416cf3a8b1fdaed38193ec7",
      "blockNumber": 80220,
      "transactionIndex": 0,
      "confirmations": null,
      "from": "0xc597A5d92F5dC1137D847db733cfe02c6d209f13",
      "gasPrice": {
        "_hex": "0xd8b760bab"
      },
      "gasLimit": {
        "_hex": "0x15f90"
      },
      "to": "0x58FF223E4927C121Fc3609B599bC71870fBF5C5C",
      "value": {
        "_hex": "0x16345785d8a0000"
      },
      "nonce": 20,
      "data": "0x",
      "r": "0x8b98b750a5483dde030dbf21e851fd57d571624d938b25d33669167407f9a915",
      "s": "0x2d10b9b9985299316083dc59048d3fefaa7765d7ab887a8434a7e4d52e6cc878",
      "v": 27,
      "creates": null,
      "raw": "0xf86d14850d8b760bab83015f909458ff223e4927c121fc3609b599bc71870fbf5c5c88016345785d8a0000801ba08b98b750a5483dde030dbf21e851fd57d571624d938b25d33669167407f9a915a02d10b9b9985299316083dc59048d3fefaa7765d7ab887a8434a7e4d52e6cc878",
      "networkId": 0,
      "chainId": 0
    }
  ]
}