{
  "hash": "0xa6065379495c96cd87cb950e3fc67886f1073ef7d37e05d5ae3298066db998eb",
  "parentHash": "0xf435e3a30775ba14cbd1354a1664d3232f0dde7b07b908e2d3fd58443560956a",
  "number": 58360,
  "timestamp": 1439119253,
  "nonce": "0x97c19d52d78dc88e",
  "difficulty": 1719971165620,
  "gasLimit": {
    "_hex": "0x2fefd8"
  },
  "gasUsed": {
    "_hex": "0x5208"
  },
  "miner": "0x1217627fe41A00f0b828317F43E6d58F47dBfc43",
  "extraData": "0x476574682f76312e302e302d66313265303136312f6c696e75782f676f312e34",
  "transactions": [
    {
      "hash": "0x22adf81dadb25532e1cbb20f56d891eade5bf2528158051fce9dd953e31f624e",
      "blockHash": "0xa6065379495c96cd87cb950e3fc67886f1073ef7d37e05d5ae3298066db998eb",
      "blockNumber": 58360,
      "transactionIndex": 0,
      "confirmations": null,
      "from": "0xD20654d200807101bB76403d2Ee893eD43e2fDa0",
      "gasPrice": {
        "_hex": "0xd6e7203fb"
      },
      "gasLimit": {
        "_hex": "0x5208"
      },
      "to": "0x32Be343B94f860124dC4fEe278FDCBD38C102D88",
      "value": {
        "_hex": "0x1b1ae0891694720000"
      },
      "nonce": 1,
      "data": "0x",
      "r": "0x91dfebeb543d6e5ff22f3632590e7c64f85281f074582e6a35f1cd9679b84df7",
      "s": "0x3aed9f9935b0749c902ff6a60918796d28864e434e1fd239aa21a2e80516ecab",
      "v": 28,
      "creates": null,
      "raw": "0xf86d01850d6e7203fb8252089432be343b94f860124dc4fee278fdcbd38c102d88891b1ae0891694720000801ca091dfebeb543d6e5ff22f3632590e7c64f85281f074582e6a35f1cd9679b84df7a03aed9f9935b0749c902ff6a60918796d28864e434e1fd239aa21a2e80516ecab",
      "networkId": 0,
      "chainId": 0
    }
  ]
}