{
  "hash": "0x0a3b45da79a46c11d109756c542e78401b8069fc3f02f1b0d60520d3980b83ba",
  "parentHash": "0x4be8db6d9a1822261182d22eee587d1d7db9690d6c4c28ee89f9c38d54f1f08f",
  "number": 101937,
  "timestamp": 1439830150,
  "nonce": "0xf3558a161bdf6b14",
  "difficulty": 3930064261064,
  "gasLimit": {
    "_hex": "0x2fefd8"
  },
  "gasUsed": {
    "_hex": "0x5208"
  },
  "miner": "0x0eDEd3DA479d0beF8eeC92A76644D3f4E3C177f7",
  "extraData": "0x476574682f76312e302e312f6c696e75782f676f312e342e32",
  "transactions": [
    {
      "hash": "0xf903d44782c0ad7cc58e910f363a531e6472eda8ed320e190a3d879fa682b963",
      "blockHash": "0x0a3b45da79a46c11d109756c542e78401b8069fc3f02f1b0d60520d3980b83ba",
      "blockNumber": 101937,
      "transactionIndex": 0,
      "confirmations": null,
      "from": "0x32Be343B94f860124dC4fEe278FDCBD38C102D88",
      "gasPrice": {
        "_hex": "0xcd7243275"
      },
      "gasLimit": {
        "_hex": "0x5208"
      },
      "to": "0x050A4C817B7DD7334cd378B11c0Be4f9D4684816",
      "value": {
        "_hex": "0x297e9d28866b0000"
      },
      "nonce": 1093,
      "data": "0x",
      "r": "0x687b53b69ee2443567ddcb1186a1e3dffb302aa515d9e5a57ac249dc8d2ff81e",
      "s": "0x130bb2a38a67a43060dbfe27b5fab3cb1b4d4e9e79c1e019cb6758cbe63ff3e7",
      "v": 28,
      "creates": null,
      "raw": "0xf86e820445850cd724327582520894050a4c817b7dd7334cd378b11c0be4f9d468481688297e9d28866b0000801ca0687b53b69ee2443567ddcb1186a1e3dffb302aa515d9e5a57ac249dc8d2ff81ea0130bb2a38a67a43060dbfe27b5fab3cb1b4d4e9e79c1e019cb6758cbe63ff3e7",
      "networkId": 0,
      "chainId": 0
    }
  ]
}