{
  "hash": "0x949676c0220e57dbde8017e4ed0cc5b8f5dc6d259609e0fdd6f810d776e8f2d5",
  "parentHash": "0x67ddf2fc023a3e80c86045d21a66577c182ee4097f6bb3a3b09474a999efbde2",
  "number": 115364,
  "timestamp": 1440055942,
  "nonce": "0x5142239ab03ac78a",
  "difficulty": 4549441073011,
  "gasLimit": {
    "_hex": "0x2fefd8"
  },
  "gasUsed": {
    "_hex": "0xa410"
  },
  "miner": "0x5F8F73E26CdF436f19Cb24C82F90A15AFe55b592",
  "extraData": "0x476574682f76312e302e312f77696e646f77732f676f312e342e32",
  "transactions": [
    {
      "hash": "0x9c1f42c18a573de42a686e4c939dff7450a94fec75dae8cb9ebb392b31115972",
      "blockHash": "0x949676c0220e57dbde8017e4ed0cc5b8f5dc6d259609e0fdd6f810d776e8f2d5",
      "blockNumber": 115364,
      "transactionIndex": 0,
      "confirmations": null,
      "from": "0xD99b25c518320820D3C5ae9f47378DA32dED5f00",
      "gasPrice": {
        "_hex": "0xdf3db098b"
      },
      "gasLimit": {
        "_hex": "0x5208"
      },
      "to": "0x32Be343B94f860124dC4fEe278FDCBD38C102D88",
      "value": {
        "_hex": "0x7a0595734f998400"
      },
      "nonce": 10,
      "data": "0x",
      "r": "0xca3cf4101ee55db8db81ddbbafa492e829416c7cf056fc98b6f61bc852bbd45d",
      "s": "0x117bcccae6a93b95c2f0c14fe44a26aaf51c079e6e7a74a52cc4f53d1d80a9e7",
      "v": 28,
      "creates": null,
      "raw": "0xf86c0a850df3db098b8252089432be343b94f860124dc4fee278fdcbd38c102d88887a0595734f998400801ca0ca3cf4101ee55db8db81ddbbafa492e829416c7cf056fc98b6f61bc852bbd45da0117bcccae6a93b95c2f0c14fe44a26aaf51c079e6e7a74a52cc4f53d1d80a9e7",
      "networkId": 0,
      "chainId": 0
    },
    {
      "hash": "0x9b0a37836754f00bfbdc285d874f094403bfc5b6cebd7091ff0d16c7a3e2d71f",
      "blockHash": "0x949676c0220e57dbde8017e4ed0cc5b8f5dc6d259609e0fdd6f810d776e8f2d5",
      "blockNumber": 115364,
      "transactionIndex": 1,
      "confirmations": null,
      "from": "0xB0b3385a645Eb80B431224920043447Ab1303eA8",
      "gasPrice": {
        "_hex": "0xdf3db098b"
      },
      "gasLimit": {
        "_hex": "0x5208"
      },
      "to": "0x32Be343B94f860124dC4fEe278FDCBD38C102D88",
      "value": {
        "_hex": "0x3cf0bb1d0515e400"
      },
      "nonce": 7,
      "data": "0x",
      "r": "0x4b2b6aea08c3a976738a48cf5ae206e5291bc14245fbf453aafc65862ee6e46b",
      "s": "0x5541aa2f1d7e6df153acc8358129feb8bbd76add9bc8270c346aabf600f0f29d",
      "v": 28,
      "creates": null,
      "raw": "0xf86c07850df3db098b8252089432be343b94f860124dc4fee278fdcbd38c102d88883cf0bb1d0515e400801ca04b2b6aea08c3a976738a48cf5ae206e5291bc14245fbf453aafc65862ee6e46ba05541aa2f1d7e6df153acc8358129feb8bbd76add9bc8270c346aabf600f0f29d",
      "networkId": 0,
      "chainId": 0
    }
  ]
}