{
  "hash": "0x102d02cc50368805983661fc8f6caec2d66500ab5e2afdd29e1a610daae5d657",
  "parentHash": "0x45feb340b1e87d06623c4a9419796eb8f5ef3395ec149d3af0a49cae5a175efa",
  "number": 60166,
  "timestamp": 1439150489,
  "nonce": "0xd8c6dfbb04eb782d",
  "difficulty": 1738172758849,
  "gasLimit": {
    "_hex": "0x2fefd8"
  },
  "gasUsed": {
    "_hex": "0xa410"
  },
  "miner": "0x34f0F706648F334eDf39e555766d4EACD54D61dC",
  "extraData": "0x476574682f76312e302e312d38326566323666362f6c696e75782f676f312e34",
  "transactions": [
    {
      "hash": "0x3c3b801d4909f58b8e3c3be824c72cb068b86e66406d93f80d7c08c2103e5b2d",
      "blockHash": "0x102d02cc50368805983661fc8f6caec2d66500ab5e2afdd29e1a610daae5d657",
      "blockNumber": 60166,
      "transactionIndex": 0,
      "confirmations": null,
      "from": "0xB7268c7705A1866b2A78e882fdfDc8E2a4e1428E",
      "gasPrice": {
        "_hex": "0xdb3aaf428"
      },
      "gasLimit": {
        "_hex": "0x15f90"
      },
      "to": "0x96811Ad897894eC178872117C8BF2f03971A393B",
      "value": {
        "_hex": "0x4563918244f40000"
      },
      "nonce": 8,
      "data": "0x",
      "r": "0x3569629eb711e4a2b69eade920defcda306d461c9abf4a2ec616ad35f48929a3",
      "s": "0x57bf1df55645a735af2c1ea2f02bc3e29c8098d260861c15a8f055bdf72c67d8",
      "v": 28,
      "creates": null,
      "raw": "0xf86d08850db3aaf42883015f909496811ad897894ec178872117c8bf2f03971a393b884563918244f40000801ca03569629eb711e4a2b69eade920defcda306d461c9abf4a2ec616ad35f48929a3a057bf1df55645a735af2c1ea2f02bc3e29c8098d260861c15a8f055bdf72c67d8",
      "networkId": 0,
      "chainId": 0
    },
    {
      "hash": "0xacd569e7a9f9c4c2f0d8600ebdf163ceff5c6ef5e9315c4b2e11b376633c9efb",
      "blockHash": "0x102d02cc50368805983661fc8f6caec2d66500ab5e2afdd29e1a610daae5d657",
      "blockNumber": 60166,
      "transactionIndex": 1,
      "confirmations": null,
      "from": "0x2910543Af39abA0Cd09dBb2D50200b3E800A63D2",
      "gasPrice": {
        "_hex": "0xd16c4ae81"
      },
      "gasLimit": {
        "_hex": "0x5208"
      },
      "to": "0x6FAE4D4322EE4c30Cde8F8EDD64E7B9f8B7Bd4B4",
      "value": {
        "_hex": "0xdcef33a6f838000"
      },
      "nonce": 7,
      "data": "0x",
      "r": "0xff195a097a0493ec1409517b8f37639a93e1390d46eacad71011c681a02e8f3f",
      "s": "0x2eecd3528c101625c19cf54e3018dc7171a79c60b80d109d6dcdc89aa71d4682",
      "v": 27,
      "creates": null,
      "raw": "0xf86c07850d16c4ae81825208946fae4d4322ee4c30cde8f8edd64e7b9f8b7bd4b4880dcef33a6f838000801ba0ff195a097a0493ec1409517b8f37639a93e1390d46eacad71011c681a02e8f3fa02eecd3528c101625c19cf54e3018dc7171a79c60b80d109d6dcdc89aa71d4682",
      "networkId": 0,
      "chainId": 0
    }
  ]
}