{
  "hash": "0xb0fa3904d1699c0988ce17678d7be6b5171d20219b2f4f0de5380ba225bc495c",
  "parentHash": "0xa4568bf0c0ed3054baf40023cd268bc50906c70d2b8dbdafeb3ad43f65127dee",
  "number": 65227,
  "timestamp": 1439233381,
  "nonce": "0x56978cd2b76cd818",
  "difficulty": 1946437239471,
  "gasLimit": {
    "_hex": "0x2fefd8"
  },
  "gasUsed": {
    "_hex": "0xa410"
  },
  "miner": "0x88D74a59454F6cF3B51ef6b9136AFb6b9D405A88",
  "extraData": "0x476574682f76312e302e312d38326566323666362f6c696e75782f676f312e34",
  "transactions": [
    {
      "hash": "0x09bde549225f3a7a104d4f38247ce205a2eec375bb6baf34b00ee0d9ee1dad72",
      "blockHash": "0xb0fa3904d1699c0988ce17678d7be6b5171d20219b2f4f0de5380ba225bc495c",
      "blockNumber": 65227,
      "transactionIndex": 0,
      "confirmations": null,
      "from": "0xF4E3733ca53b0cDd82e56e909674e632125501eD",
      "gasPrice": {
        "_hex": "0xba43b7400"
      },
      "gasLimit": {
        "_hex": "0x5208"
      },
      "to": "0xA725D243d631dA2c9A1BaF73fD323EAE46D87023",
      "value": {
        "_hex": "0x7156077b32f1000"
      },
      "nonce": 1,
      "data": "0x",
      "r": "0x6bdd8d39b832827371f334969b1283652ad01eee4c84cc60ee97d19883a9cd02",
      "s": "0x2dff7fcccaa5ba73f827af4d3221508d7b80eee4d8bfa28e321908401d0ba9af",
      "v": 27,
      "creates": null,
      "raw": "0xf86c01850ba43b740082520894a725d243d631da2c9a1baf73fd323eae46d870238807156077b32f1000801ba06bdd8d39b832827371f334969b1283652ad01eee4c84cc60ee97d19883a9cd02a02dff7fcccaa5ba73f827af4d3221508d7b80eee4d8bfa28e321908401d0ba9af",
      "networkId": 0,
      "chainId": 0
    },
    {
      "hash": "0xa2d6dfe056ddb3cfb71e87ce287a810bdd10b70603178a5661ccb5b5fd02fe71",
      "blockHash": "0xb0fa3904d1699c0988ce17678d7be6b5171d20219b2f4f0de5380ba225bc495c",
      "blockNumber": 65227,
      "transactionIndex": 1,
      "confirmations": null,
      "from": "0xbe361D383A87f328b33Da79a70925b59837d48F6",
      "gasPrice": {
        "_hex": "0xba43b7400"
      },
      "gasLimit": {
        "_hex": "0x5208"
      },
      "to": "0xcf0a2986c44d35f0ebBD8943c4B14dacfF14049D",
      "value": {
        "_hex": "0x6a1b097735ce000"
      },
      "nonce": 1,
      "data": "0x",
      "r": "0xe08591d4b67823ff668deded45dc903ea48cfdfc9565c71c6a26b76e58d40044",
      "s": "0x406b19d0f94c2d62c42deb16807c9f9b0366b690c829a89136dfdccb3fc1062f",
      "v": 27,
      "creates": null,
      "raw": "0xf86c01850ba43b740082520894cf0a2986c44d35f0ebbd8943c4b14dacff14049d8806a1b097735ce000801ba0e08591d4b67823ff668deded45dc903ea48cfdfc9565c71c6a26b76e58d40044a0406b19d0f94c2d62c42deb16807c9f9b0366b690c829a89136dfdccb3fc1062f",
      "networkId": 0,
      "chainId": 0
    }
  ]
}