{
  "hash": "0xe6e1881eb6eb438a23ee6e15442e82ca41364bf7194478a6a2c74f7f69ffa38d",
  "parentHash": "0x7b2e4c7ef78a8b81bb252fdff12fd8a559e40642342f734a7c494cf17ef4fd15",
  "number": 113410,
  "timestamp": 1440023078,
  "nonce": "0x9742cac2f7955398",
  "difficulty": 4466846284059,
  "gasLimit": {
    "_hex": "0x2fefd8"
  },
  "gasUsed": {
    "_hex": "0xf618"
  },
  "miner": "0xe6A7a1d47ff21B6321162AEA7C6CB457D5476Bca",
  "extraData": "0x476574682f76312e302e312d38326566323666362f6c696e75782f676f312e34",
  "transactions": [
    {
      "hash": "0x7f08b31e7132e66920d688686861d15af5a34e32328956645a20bbc6737ec6b4",
      "blockHash": "0xe6e1881eb6eb438a23ee6e15442e82ca41364bf7194478a6a2c74f7f69ffa38d",
      "blockNumber": 113410,
      "transactionIndex": 0,
      "confirmations": null,
      "from": "0xC15233674F0Cb7729e4Ab8aB733430C40580914d",
      "gasPrice": {
        "_hex": "0xd0bcb0fab"
      },
      "gasLimit": {
        "_hex": "0x5208"
      },
      "to": "0x32Be343B94f860124dC4fEe278FDCBD38C102D88",
      "value": {
        "_hex": "0x11bae4b73efef000"
      },
      "nonce": 10,
      "data": "0x",
      "r": "0x52beaebbd1e64ea30afb8ae7b3da1b12718a5da696604a5f702df6940c192d6b",
      "s": "0x42dbed96763128732ecc66fdf9b95fd4d5476ba00f578a6a163f683360d9f114",
      "v": 27,
      "creates": null,
      "raw": "0xf86c0a850d0bcb0fab8252089432be343b94f860124dc4fee278fdcbd38c102d888811bae4b73efef000801ba052beaebbd1e64ea30afb8ae7b3da1b12718a5da696604a5f702df6940c192d6ba042dbed96763128732ecc66fdf9b95fd4d5476ba00f578a6a163f683360d9f114",
      "networkId": 0,
      "chainId": 0
    },
    {
      "hash": "0xb0cb4f7cbdeeeb3d549acc6bfb88ff22a5e368a1735be9057b8af88081306797",
      "blockHash": "0xe6e1881eb6eb438a23ee6e15442e82ca41364bf7194478a6a2c74f7f69ffa38d",
      "blockNumber": 113410,
      "transactionIndex": 1,
      "confirmations": null,
      "from": "0x841763e99Caa07B2c1Db0598E466406Cb537092f",
      "gasPrice": {
        "_hex": "0xd0bcb0fab"
      },
      "gasLimit": {
        "_hex": "0x5208"
      },
      "to": "0x32Be343B94f860124dC4fEe278FDCBD38C102D88",
      "value": {
        "_hex": "0x1b20838d0669800"
      },
      "nonce": 0,
      "data": "0x",
      "r": "0xbb455813183d25e0a95926eeb50d9abb5a33bf69813c19a3c774c17dd01803f9",
      "s": "0x6c2aeb186a4a8d30fdd7e9190c97e1defdbad4482776157dbddb52422a8abc7f",
      "v": 27,
      "creates": null,
      "raw": "0xf86c80850d0bcb0fab8252089432be343b94f860124dc4fee278fdcbd38c102d888801b20838d0669800801ba0bb455813183d25e0a95926eeb50d9abb5a33bf69813c19a3c774c17dd01803f9a06c2aeb186a4a8d30fdd7e9190c97e1defdbad4482776157dbddb52422a8abc7f",
      "networkId": 0,
      "chainId": 0
    },
    {
      "hash": "0x4248fc30db4f3a62f43b352202399553754dd2bd1de452a46520be4d87617055",
      "blockHash": "0xe6e1881eb6eb438a23ee6e15442e82ca41364bf7194478a6a2c74f7f69ffa38d",
      "blockNumber": 113410,
      "transactionIndex": 2,
      "confirmations": null,
      "from": "0x0cA19A53a3256482A89770FC1daFC7630717F201",
      "gasPrice": {
        "_hex": "0xd0bcb0fab"
      },
      "gasLimit": {
        "_hex": "0x5208"
      },
      "to": "0x32Be343B94f860124dC4fEe278FDCBD38C102D88",
      "value": {
        "_hex": "0x133d4164741440000"
      },
      "nonce": 15,
      "data": "0x",
      "r": "0x8b2c4855aedc1299a39df5cb6a8f12d6b657629039fbc3f7c0a30d82cc1373e5",
      "s": "0x3f0f72e972996fc72d229c8fba7562cdb569e7c32d48d5231b35d4d7dfde4bf1",
      "v": 28,
      "creates": null,
      "raw": "0xf86d0f850d0bcb0fab8252089432be343b94f860124dc4fee278fdcbd38c102d88890133d4164741440000801ca08b2c4855aedc1299a39df5cb6a8f12d6b657629039fbc3f7c0a30d82cc1373e5a03f0f72e972996fc72d229c8fba7562cdb569e7c32d48d5231b35d4d7dfde4bf1",
      "networkId": 0,
      "chainId": 0
    }
  ]
}