{
  "hash": "0xcdb61c9cc9d401f9a3473898f60ab85760964c9cf012ecf0820632e739185285",
  "parentHash": "0xb5b083e066c83bc7b10647e17bfb5410096b90cc7526a5cf3f4d9ffa693951fd",
  "number": 72213,
  "timestamp": 1439349182,
  "nonce": "0xf01ce8b634455d42",
  "difficulty": 2171719868624,
  "gasLimit": {
    "_hex": "0x2fefd8"
  },
  "gasUsed": {
    "_hex": "0x93b2"
  },
  "miner": "0x123843545FB525C8E134c9A5F15ADA6865cc3848",
  "extraData": "0x476574682f76312e302e312f77696e646f77732f676f312e342e32",
  "transactions": [
    {
      "hash": "0xd3592759cdd41def218920b4690b8c7ccfb65f972d04a1820099a68a2e123e3d",
      "blockHash": "0xcdb61c9cc9d401f9a3473898f60ab85760964c9cf012ecf0820632e739185285",
      "blockNumber": 72213,
      "transactionIndex": 0,
      "confirmations": null,
      "from": "0x17580B766f7453525ca4C6A88b01b50570EA088C",
      "gasPrice": {
        "_hex": "0xd7530b1a7"
      },
      "gasLimit": {
        "_hex": "0x61a80"
      },
      "to": "0x5Fe5B7546D1628f7348B023A0393de1FC825A4fD",
      "value": {
        "_hex": "0x8ac7230489e80000"
      },
      "nonce": 379,
      "data": "0xb595b8b50000000000000000000000000000000000000000000000000000000000000000",
      "r": "0x0a766cd7ad06af3131280432df6023c943761bf22f734d7458aeae6870e6a40e",
      "s": "0x1a9cef23da8e35000aa2c8815ddd49ccdce6e178b809a0da1ee43f438013ca69",
      "v": 28,
      "creates": null,
      "raw": "0xf89382017b850d7530b1a783061a80945fe5b7546d1628f7348b023a0393de1fc825a4fd888ac7230489e80000a4b595b8b500000000000000000000000000000000000000000000000000000000000000001ca00a766cd7ad06af3131280432df6023c943761bf22f734d7458aeae6870e6a40ea01a9cef23da8e35000aa2c8815ddd49ccdce6e178b809a0da1ee43f438013ca69",
      "networkId": 0,
      "chainId": 0
    }
  ]
}