{
  "hash": "0x69c97ea02f888d8698969fc75dbea495dfdf12a0adb8d1b2c506abe8136c58e3",
  "parentHash": "0xebb083d56f41c2ff45172410f330029a7aba2926b8b325b5a71025b2bd53d992",
  "number": 48319,
  "timestamp": 1438955385,
  "nonce": "0x152029a579dde7c0",
  "difficulty": 1453640209888,
  "gasLimit": {
    "_hex": "0x15742"
  },
  "gasUsed": {
    "_hex": "0x546c"
  },
  "miner": "0xB4f6A8f7Cd91Cd4bcADcc0a20e417c392E5f50A4",
  "extraData": "0x57686f2061726520796f753f",
  "transactions": [
    {
      "hash": "0x229fd07372a917c16c04aa8b76fcf8051e8646e3746a2c1016ec2d7f6c3e42bb",
      "blockHash": "0x69c97ea02f888d8698969fc75dbea495dfdf12a0adb8d1b2c506abe8136c58e3",
      "blockNumber": 48319,
      "transactionIndex": 0,
      "confirmations": null,
      "from": "0xeA79057Dabef5E64E7B44f7f18648e7E533718d2",
      "gasPrice": {
        "_hex": "0x110c8f7d8de"
      },
      "gasLimit": {
        "_hex": "0xc350"
      },
      "to": "0x2910543Af39abA0Cd09dBb2D50200b3E800A63D2",
      "value": {
        "_hex": "0xa922b2ad8812c0000"
      },
      "nonce": 0,
      "data": "0x454e334d574b353330",
      "r": "0xebeeabe0b1d65ac5bcd50ce49c0b32761454b98e54bff441814f312766bdde99",
      "s": "0xa3bfd068e1c11b3df022256ac8b5a62492fbdb2c420d731f72f34e52c4dfa078",
      "v": 28,
      "creates": null,
      "raw": "0xf87780860110c8f7d8de82c350942910543af39aba0cd09dbb2d50200b3e800a63d2890a922b2ad8812c000089454e334d574b3533301ca0ebeeabe0b1d65ac5bcd50ce49c0b32761454b98e54bff441814f312766bdde99a0a3bfd068e1c11b3df022256ac8b5a62492fbdb2c420d731f72f34e52c4dfa078",
      "networkId": 0,
      "chainId": 0
    }
  ]
}