{
  "hash": "0x98543ae73beb514912a9529dae83e276540713135c64d9c4ae687b2294c60a32",
  "parentHash": "0x4356531c5851d54d31f3caba60c9cc08864667d0a2d19f1b53c90fa039a460b0",
  "number": 73240,
  "timestamp": 1439365710,
  "nonce": "0x526ce303c9212a4a",
  "difficulty": 2204572718834,
  "gasLimit": {
    "_hex": "0x2fefd8"
  },
  "gasUsed": {
    "_hex": "0x5208"
  },
  "miner": "0xf927a40C8B7F6E07c5af7FA2155B4864a4112B13",
  "extraData": "0x",
  "transactions": [
    {
      "hash": "0xa69af50bf07d04e6d82b6837e612ec28577757358fd2dbb73cff30403e962e9d",
      "blockHash": "0x98543ae73beb514912a9529dae83e276540713135c64d9c4ae687b2294c60a32",
      "blockNumber": 73240,
      "transactionIndex": 0,
      "confirmations": null,
      "from": "0x7fa165177F28D171bA7C17f765c1904344Ec64CB",
      "gasPrice": {
        "_hex": "0xd43e4ff58"
      },
      "gasLimit": {
        "_hex": "0x5208"
      },
      "to": "0x32Be343B94f860124dC4fEe278FDCBD38C102D88",
      "value": {
        "_hex": "0x2707bd18e16c4c000"
      },
      "nonce": 9,
      "data": "0x",
      "r": "0x0595a1cd84106a617fd72478c602b4cc0f757b417f3e84044152937410dc2acc",
      "s": "0x1832e836ec94072ba82b4f90f0665cd987a313ae11639c37169763954fc84bcf",
      "v": 27,
      "creates": null,
      "raw": "0xf86d09850d43e4ff588252089432be343b94f860124dc4fee278fdcbd38c102d888902707bd18e16c4c000801ba00595a1cd84106a617fd72478c602b4cc0f757b417f3e84044152937410dc2acca01832e836ec94072ba82b4f90f0665cd987a313ae11639c37169763954fc84bcf",
      "networkId": 0,
      "chainId": 0
    }
  ]
}