{
  "hash": "0xe8852d567f9b1264406743702a99fee29cc1b8b5cdf950d77c08802b8e27c152",
  "parentHash": "0x393ebec02144b8c38900571866988efa975578d001f98e0715d36b54f99c62fd",
  "number": 98090,
  "timestamp": 1439766864,
  "nonce": "0x9e4e7d28a3300100",
  "difficulty": 3876583474749,
  "gasLimit": {
    "_hex": "0x2fefd8"
  },
  "gasUsed": {
    "_hex": "0x520c"
  },
  "miner": "0x0eDEd3DA479d0beF8eeC92A76644D3f4E3C177f7",
  "extraData": "0x476574682f76312e302e312f6c696e75782f676f312e342e32",
  "transactions": [
    {
      "hash": "0x16b710c05039d2300ca7829fb89d7d6476dbbf3fac94d76209de5116830bd715",
      "blockHash": "0xe8852d567f9b1264406743702a99fee29cc1b8b5cdf950d77c08802b8e27c152",
      "blockNumber": 98090,
      "transactionIndex": 0,
      "confirmations": null,
      "from": "0x85Ca1E727E9d1A87991CC2C41840ebB9edF21d1B",
      "gasPrice": {
        "_hex": "0xe52dc8540"
      },
      "gasLimit": {
        "_hex": "0x7530"
      },
      "to": "0x1B95B22FaDbf1abBFb05197526D2485a204f9961",
      "value": {
        "_hex": "0x16345785d8a0000"
      },
      "nonce": 1,
      "data": "0x00",
      "r": "0xb72c126c9920b3b6db8ec6b903b0d81bbc0423402c84225ea99fd6b171e69d5e",
      "s": "0x1aba6e92e8bcfa490aacd5e196aa5e41e3b9d50cf879444ec1c05ea7a4ba2119",
      "v": 27,
      "creates": null,
      "raw": "0xf86c01850e52dc8540827530941b95b22fadbf1abbfb05197526d2485a204f996188016345785d8a0000001ba0b72c126c9920b3b6db8ec6b903b0d81bbc0423402c84225ea99fd6b171e69d5ea01aba6e92e8bcfa490aacd5e196aa5e41e3b9d50cf879444ec1c05ea7a4ba2119",
      "networkId": 0,
      "chainId": 0
    }
  ]
}