{
  "hash": "0x6842af095d6cd8d9922c4d756280d6f9c6f9e7375b861b1506bf8191129d6114",
  "parentHash": "0xd82dbefd7d7e28a0ca1137950bfc03ccfd3a07c262d7eb990a1ecc713a4d5300",
  "number": 70551,
  "timestamp": 1439321628,
  "nonce": "0xa0e8db78afd3aad2",
  "difficulty": 2136386780839,
  "gasLimit": {
    "_hex": "0x2fefd8"
  },
  "gasUsed": {
    "_hex": "0x5208"
  },
  "miner": "0xf8E0CA3Ed80bd541b94BEdCf259e8CF2141A9523",
  "extraData": "0x476574682f76312e302e312f77696e646f77732f676f312e342e32",
  "transactions": [
    {
      "hash": "0x6509b72a5a9244f85a0d3b2db53a30ccba97344036a3886d2273c64527c59043",
      "blockHash": "0x6842af095d6cd8d9922c4d756280d6f9c6f9e7375b861b1506bf8191129d6114",
      "blockNumber": 70551,
      "transactionIndex": 0,
      "confirmations": null,
      "from": "0xF4B759cc8A1C75f80849EBBCda878DC8f0d66De4",
      "gasPrice": {
        "_hex": "0xdf0f2e29d"
      },
      "gasLimit": {
        "_hex": "0x15f90"
      },
      "to": "0xD441bA6FFe06b0BD76330aC8F9c2946dA2dF88A2",
      "value": {
        "_hex": "0x2386f26fc10000"
      },
      "nonce": 1,
      "data": "0x",
      "r": "0x498dd60a89113cd6b909428f6180aae1086b37aa559551b7ba858652d1755bc9",
      "s": "0x38fb7ad20287c8c8bdc8f24b4f484c6b80ee35c41235805b1f81116eb8f00863",
      "v": 27,
      "creates": null,
      "raw": "0xf86c01850df0f2e29d83015f9094d441ba6ffe06b0bd76330ac8f9c2946da2df88a2872386f26fc10000801ba0498dd60a89113cd6b909428f6180aae1086b37aa559551b7ba858652d1755bc9a038fb7ad20287c8c8bdc8f24b4f484c6b80ee35c41235805b1f81116eb8f00863",
      "networkId": 0,
      "chainId": 0
    }
  ]
}