{
  "hash": "0xe28d2f1d70ca3fa606261746ec0665f99363fa3e3fbd55299e9226c5013b5feb",
  "parentHash": "0xc2f811657b2407eb0c6c63e27df21edbe22a030efed88eec42039d3f848fc2f5",
  "number": 96905,
  "timestamp": 1439747866,
  "nonce": "0x788af3b1d60d8c8f",
  "difficulty": 3726780397191,
  "gasLimit": {
    "_hex": "0x2fefd8"
  },
  "gasUsed": {
    "_hex": "0xa410"
  },
  "miner": "0xe6A7a1d47ff21B6321162AEA7C6CB457D5476Bca",
  "extraData": "0x476574682f76312e302e312d38326566323666362f6c696e75782f676f312e34",
  "transactions": [
    {
      "hash": "0xfca70fb0778e36a6315a08916c0becd091e57c5499e130689c050e755f3d9a42",
      "blockHash": "0xe28d2f1d70ca3fa606261746ec0665f99363fa3e3fbd55299e9226c5013b5feb",
      "blockNumber": 96905,
      "transactionIndex": 0,
      "confirmations": null,
      "from": "0x8fC0eD8883D1F471De4001960cEf965241a123de",
      "gasPrice": {
        "_hex": "0xdd5d1ab86"
      },
      "gasLimit": {
        "_hex": "0x15f90"
      },
      "to": "0x7884D470204862a0d1A21122F41ee77430396Ee5",
      "value": {
        "_hex": "0xde0b6b3a7640000"
      },
      "nonce": 0,
      "data": "0x",
      "r": "0xada44e87818d09f80741e3f9c74cb6fdbfcbbfa09d2beaf360be077b6accc608",
      "s": "0x509b92a514eba810c886d616c35e904fa0906cd53933526d7f63a12eb1cf3747",
      "v": 27,
      "creates": null,
      "raw": "0xf86d80850dd5d1ab8683015f90947884d470204862a0d1a21122f41ee77430396ee5880de0b6b3a7640000801ba0ada44e87818d09f80741e3f9c74cb6fdbfcbbfa09d2beaf360be077b6accc608a0509b92a514eba810c886d616c35e904fa0906cd53933526d7f63a12eb1cf3747",
      "networkId": 0,
      "chainId": 0
    },
    {
      "hash": "0x16f1452d3d185d787bfc8eaee33fbb8edfb5bd0b123b7b517b5eebdc0c8483a6",
      "blockHash": "0xe28d2f1d70ca3fa606261746ec0665f99363fa3e3fbd55299e9226c5013b5feb",
      "blockNumber": 96905,
      "transactionIndex": 1,
      "confirmations": null,
      "from": "0x120A270bbC009644e35F0bB6ab13f95b8199c4ad",
      "gasPrice": {
        "_hex": "0xd97d7ec36"
      },
      "gasLimit": {
        "_hex": "0x3d090"
      },
      "to": "0x36B33F21Ba59c53E3502E52b8e0a7fD311215FFd",
      "value": {
        "_hex": "0x24c8f8111ef45b4000"
      },
      "nonce": 632,
      "data": "0x",
      "r": "0x96160b6afb72d54dff07f0e32b53a7113c2073c1fb805a88776b514666fc6db3",
      "s": "0x3bd9ef32c4545798cfe571aac0e4ab4c2050e59c6878a93b51f15ee0965ead1b",
      "v": 27,
      "creates": null,
      "raw": "0xf870820278850d97d7ec368303d0909436b33f21ba59c53e3502e52b8e0a7fd311215ffd8924c8f8111ef45b4000801ba096160b6afb72d54dff07f0e32b53a7113c2073c1fb805a88776b514666fc6db3a03bd9ef32c4545798cfe571aac0e4ab4c2050e59c6878a93b51f15ee0965ead1b",
      "networkId": 0,
      "chainId": 0
    }
  ]
}