{
  "hash": "0xc72174b24fdc7fdc216ece46cbfe670563c839191aca36556cc99a312d9650b3",
  "parentHash": "0xed4a32790f9dce9b96f3e3c8636104b921c7eeb12e18bf63e3824f3792ddac64",
  "number": 69323,
  "timestamp": 1439301982,
  "nonce": "0xac5e0bb4e31f8a55",
  "difficulty": 2060872744668,
  "gasLimit": {
    "_hex": "0x2fefd8"
  },
  "gasUsed": {
    "_hex": "0x546c"
  },
  "miner": "0xe6A7a1d47ff21B6321162AEA7C6CB457D5476Bca",
  "extraData": "0x476574682f76312e302e312d38326566323666362f6c696e75782f676f312e34",
  "transactions": [
    {
      "hash": "0x5c8000004e8519b80af415e25aefb27882ff847704d99527922fb979f18948ca",
      "blockHash": "0xc72174b24fdc7fdc216ece46cbfe670563c839191aca36556cc99a312d9650b3",
      "blockNumber": 69323,
      "transactionIndex": 0,
      "confirmations": null,
      "from": "0xf9811FA19dADbf029F8bfe569ADb18228c80481A",
      "gasPrice": {
        "_hex": "0x110c8f7d8de"
      },
      "gasLimit": {
        "_hex": "0xc350"
      },
      "to": "0x2910543Af39abA0Cd09dBb2D50200b3E800A63D2",
      "value": {
        "_hex": "0x58d15e176280000"
      },
      "nonce": 2,
      "data": "0x454e4d323354595a30",
      "r": "0x9a9dbdcded8bdd159fe49ac68b296d1f4a79567a84a1787b4eeccccefaf4a24e",
      "s": "0x712dc7c99b9c2248d1347e72944c66304b7515478ce3443001d2e8e4aaae8d24",
      "v": 27,
      "creates": null,
      "raw": "0xf87602860110c8f7d8de82c350942910543af39aba0cd09dbb2d50200b3e800a63d288058d15e17628000089454e4d323354595a301ba09a9dbdcded8bdd159fe49ac68b296d1f4a79567a84a1787b4eeccccefaf4a24ea0712dc7c99b9c2248d1347e72944c66304b7515478ce3443001d2e8e4aaae8d24",
      "networkId": 0,
      "chainId": 0
    }
  ]
}