{
  "hash": "0x492ff840e39cd6f1c3f4fb6b071a363c0f5f670ffdc340e7a7ffef39e2d24f4f",
  "parentHash": "0xd99a14047f6bd2a3303f5a08901cc9af66edff389a0660d579cf685ba577e553",
  "number": 55584,
  "timestamp": 1439073146,
  "nonce": "0xa21351db7ee2ae9d",
  "difficulty": 1622624170316,
  "gasLimit": {
    "_hex": "0x2fefd8"
  },
  "gasUsed": {
    "_hex": "0x5208"
  },
  "miner": "0x48947269aE5863528510D146575D808045B328D9",
  "extraData": "0x476574682f76312e302e312f6c696e75782f676f312e342e32",
  "transactions": [
    {
      "hash": "0xffc31716cb3e1c9e45b1bda6e52a54f1f5d0adeec46ddd6de9b33d1ca28d5dfb",
      "blockHash": "0x492ff840e39cd6f1c3f4fb6b071a363c0f5f670ffdc340e7a7ffef39e2d24f4f",
      "blockNumber": 55584,
      "transactionIndex": 0,
      "confirmations": null,
      "from": "0x32Be343B94f860124dC4fEe278FDCBD38C102D88",
      "gasPrice": {
        "_hex": "0xdfe3893af"
      },
      "gasLimit": {
        "_hex": "0x5208"
      },
      "to": "0x8eB3FbB4A0Cc2366e88FB476df63D3Ad6907907b",
      "value": {
        "_hex": "0x82b37519eea100000"
      },
      "nonce": 66,
      "data": "0x",
      "r": "0xb870851fca5070e9225994531e3a8fb7e1b89cb005af8dfe7989a6288ae191a4",
      "s": "0x33843dc2579b4a22ffd2183f01d77c5de4b2338cc5eeb2c51b98ddd1561b365b",
      "v": 28,
      "creates": null,
      "raw": "0xf86d42850dfe3893af825208948eb3fbb4a0cc2366e88fb476df63d3ad6907907b89082b37519eea100000801ca0b870851fca5070e9225994531e3a8fb7e1b89cb005af8dfe7989a6288ae191a4a033843dc2579b4a22ffd2183f01d77c5de4b2338cc5eeb2c51b98ddd1561b365b",
      "networkId": 0,
      "chainId": 0
    }
  ]
}