{
  "hash": "0xcd2d78329073ed54c44374cdb9a05618c978fb318060507e309229d082567402",
  "parentHash": "0xf57cf0cf6c8dbf8bd9fd8bd158caeceb127a0b8eaa39ea60936af08cfe946667",
  "number": 70514,
  "timestamp": 1439320815,
  "nonce": "0xa65c0281ff9fd240",
  "difficulty": 2150000445556,
  "gasLimit": {
    "_hex": "0x2fefd8"
  },
  "gasUsed": {
    "_hex": "0x5208"
  },
  "miner": "0xeB1325C8D9d3ea8D74aC11F4B00F1B2367686319",
  "extraData": "0x476574682f76312e302e312f77696e646f77732f676f312e342e32",
  "transactions": [
    {
      "hash": "0x29cef74cdc6804be1c6f3657754d247f38726ea8a63db88554f4c22a9b8bfeaf",
      "blockHash": "0xcd2d78329073ed54c44374cdb9a05618c978fb318060507e309229d082567402",
      "blockNumber": 70514,
      "transactionIndex": 0,
      "confirmations": null,
      "from": "0x2f6BCe4fc330B69C9B4c2694d57C63Ec7B18feC7",
      "gasPrice": {
        "_hex": "0x1074462c9bb"
      },
      "gasLimit": {
        "_hex": "0x7530"
      },
      "to": "0xa9f5E7bf6Cbf6fEc55B30850Eb492b47A376d050",
      "value": {
        "_hex": "0xde0b6b3a7640000"
      },
      "nonce": 0,
      "data": "0x",
      "r": "0xee1b1e0058c2cce25fcc61da0c51432848a2afd7f018ab1683a6b7b15d327281",
      "s": "0x619925995ab288e3fb15129ec590a6ecdafd77c04787a4126373f02fc797c0bc",
      "v": 28,
      "creates": null,
      "raw": "0xf86d808601074462c9bb82753094a9f5e7bf6cbf6fec55b30850eb492b47a376d050880de0b6b3a7640000801ca0ee1b1e0058c2cce25fcc61da0c51432848a2afd7f018ab1683a6b7b15d327281a0619925995ab288e3fb15129ec590a6ecdafd77c04787a4126373f02fc797c0bc",
      "networkId": 0,
      "chainId": 0
    }
  ]
}