{
  "hash": "0xe47b94c6e64f36f8c7103b2fef7d90d3843797480ad69e566ee1e7c49ec0545a",
  "parentHash": "0xd1b703d0e4451db6ed4da6ec9714c53a2fd71d8419d22470d3b846c11850c572",
  "number": 83798,
  "timestamp": 1439541037,
  "nonce": "0x86bcc8b12ed83643",
  "difficulty": 2449099536497,
  "gasLimit": {
    "_hex": "0x2fefd8"
  },
  "gasUsed": {
    "_hex": "0xf87c"
  },
  "miner": "0x580992B51e3925e23280EfB93d3047C82f17E038",
  "extraData": "0x476574682f76312e302e312f6c696e75782f676f312e342e32",
  "transactions": [
    {
      "hash": "0x637f5945a23683ecf49998887eb8713483cb23174edbd1c5ae8e0df95ca074bb",
      "blockHash": "0xe47b94c6e64f36f8c7103b2fef7d90d3843797480ad69e566ee1e7c49ec0545a",
      "blockNumber": 83798,
      "transactionIndex": 0,
      "confirmations": null,
      "from": "0xF4eD848EC961739c2c7e352F435ba70a7CD5dB38",
      "gasPrice": {
        "_hex": "0x110c8f7d8de"
      },
      "gasLimit": {
        "_hex": "0xc350"
      },
      "to": "0x2910543Af39abA0Cd09dBb2D50200b3E800A63D2",
      "value": {
        "_hex": "0x6194049f30f7200000"
      },
      "nonce": 1,
      "data": "0x454e43474638323352",
      "r": "0x3db6f8dbebc8c1cdf46f7c987b12009160248f59de3d8c2906abd9c710661608",
      "s": "0xf6cb8f51cc3d5f42f0311c8f867c6b07658433f75de2a600320ce7f7191d2ac5",
      "v": 27,
      "creates": null,
      "raw": "0xf87701860110c8f7d8de82c350942910543af39aba0cd09dbb2d50200b3e800a63d2896194049f30f720000089454e434746383233521ba03db6f8dbebc8c1cdf46f7c987b12009160248f59de3d8c2906abd9c710661608a0f6cb8f51cc3d5f42f0311c8f867c6b07658433f75de2a600320ce7f7191d2ac5",
      "networkId": 0,
      "chainId": 0
    },
    {
      "hash": "0x8203fe3ca32d2fc1ee364575a9685b362a206dd5d15be0c0beb2286bde5e18ba",
      "blockHash": "0xe47b94c6e64f36f8c7103b2fef7d90d3843797480ad69e566ee1e7c49ec0545a",
      "blockNumber": 83798,
      "transactionIndex": 1,
      "confirmations": null,
      "from": "0x4ECe0F75EDDc84c88C0B9C0020929aA06a434397",
      "gasPrice": {
        "_hex": "0xd94d7bc90"
      },
      "gasLimit": {
        "_hex": "0x5208"
      },
      "to": "0x32Be343B94f860124dC4fEe278FDCBD38C102D88",
      "value": {
        "_hex": "0xd954eb43a2c1c00"
      },
      "nonce": 0,
      "data": "0x",
      "r": "0xc18eeccb43c356b160e354bc5256c23e245ba333a80eaa21b592dd5979fa992b",
      "s": "0x4cdaa4c97739503fd426a1d7447fcbea35cd6b924c9abf1dd50d67d5af7d66c9",
      "v": 28,
      "creates": null,
      "raw": "0xf86c80850d94d7bc908252089432be343b94f860124dc4fee278fdcbd38c102d88880d954eb43a2c1c00801ca0c18eeccb43c356b160e354bc5256c23e245ba333a80eaa21b592dd5979fa992ba04cdaa4c97739503fd426a1d7447fcbea35cd6b924c9abf1dd50d67d5af7d66c9",
      "networkId": 0,
      "chainId": 0
    },
    {
      "hash": "0x32b09d6866a163e1ba11a82ba56a2c8c0f5e5701cac0383af3a3a976e18f799e",
      "blockHash": "0xe47b94c6e64f36f8c7103b2fef7d90d3843797480ad69e566ee1e7c49ec0545a",
      "blockNumber": 83798,
      "transactionIndex": 2,
      "confirmations": null,
      "from": "0x0D4EcC7d750180EBf4A9Df728B6669B5Bceb5E40",
      "gasPrice": {
        "_hex": "0xd94d7bc90"
      },
      "gasLimit": {
        "_hex": "0x5208"
      },
      "to": "0x32Be343B94f860124dC4fEe278FDCBD38C102D88",
      "value": {
        "_hex": "0x455f3767b73e1c00"
      },
      "nonce": 23,
      "data": "0x",
      "r": "0x72401f0b72c32d4e8a4c78c9c9b0b97abf12e14f7c12b718530d7165b3d93f1c",
      "s": "0x668c1e2faca060367a59176c39f72636905eef7dbe5c4b5f79bc9ce8b092b26d",
      "v": 27,
      "creates": null,
      "raw": "0xf86c17850d94d7bc908252089432be343b94f860124dc4fee278fdcbd38c102d8888455f3767b73e1c00801ba072401f0b72c32d4e8a4c78c9c9b0b97abf12e14f7c12b718530d7165b3d93f1ca0668c1e2faca060367a59176c39f72636905eef7dbe5c4b5f79bc9ce8b092b26d",
      "networkId": 0,
      "chainId": 0
    }
  ]
}