{
  "hash": "0x23e1ebc3912be5eb0a165127206dc18196a870a57243287af9aacc2c4a61b462",
  "parentHash": "0xded4d24cd781d513620d9967c40907043fe48caac9bfec0f7972020578732e6d",
  "number": 82749,
  "timestamp": 1439524539,
  "nonce": "0x708bd04591c7a127",
  "difficulty": 2379848607603,
  "gasLimit": {
    "_hex": "0x2fefd8"
  },
  "gasUsed": {
    "_hex": "0xa410"
  },
  "miner": "0x7E6930B63D03e88F5928C5cd6ee3FCee4D714F7F",
  "extraData": "0x",
  "transactions": [
    {
      "hash": "0x0bffdf341e5c422de97c3624a53d2ab213dcc64ef4d4f57342079ba3026dfce8",
      "blockHash": "0x23e1ebc3912be5eb0a165127206dc18196a870a57243287af9aacc2c4a61b462",
      "blockNumber": 82749,
      "transactionIndex": 0,
      "confirmations": null,
      "from": "0xa70a9a7040d542C632D8e0bE7c5513A8a5Bbc752",
      "gasPrice": {
        "_hex": "0xe000bdf88"
      },
      "gasLimit": {
        "_hex": "0x5208"
      },
      "to": "0x32Be343B94f860124dC4fEe278FDCBD38C102D88",
      "value": {
        "_hex": "0x455f150db3cf3800"
      },
      "nonce": 64,
      "data": "0x",
      "r": "0x11ac6ced04b5afab72c1abd033cc226658d311c2da68762f5a84106fa26a3fa1",
      "s": "0x786a666495e5cee79f7243c5d53e6fc46859a8de902ca20aef2bfa37793d45ba",
      "v": 28,
      "creates": null,
      "raw": "0xf86c40850e000bdf888252089432be343b94f860124dc4fee278fdcbd38c102d8888455f150db3cf3800801ca011ac6ced04b5afab72c1abd033cc226658d311c2da68762f5a84106fa26a3fa1a0786a666495e5cee79f7243c5d53e6fc46859a8de902ca20aef2bfa37793d45ba",
      "networkId": 0,
      "chainId": 0
    },
    {
      "hash": "0x6b787406b11d6ba0a7acb0e1185daeebc7a19f4b6c6248b285c5fd18003b5a31",
      "blockHash": "0x23e1ebc3912be5eb0a165127206dc18196a870a57243287af9aacc2c4a61b462",
      "blockNumber": 82749,
      "transactionIndex": 1,
      "confirmations": null,
      "from": "0x4864f5F389Ceb1d994Fec11790F25FA7BbC0c495",
      "gasPrice": {
        "_hex": "0xe000bdf88"
      },
      "gasLimit": {
        "_hex": "0x5208"
      },
      "to": "0x32Be343B94f860124dC4fEe278FDCBD38C102D88",
      "value": {
        "_hex": "0xcb49b403deb9c800000"
      },
      "nonce": 0,
      "data": "0x",
      "r": "0x18210644e6776b46c76709c2780326c3df5ec4b878560e539717fb36a7f3c43e",
      "s": "0x7c23c182452a19ec6155197f01bfb3cef2cb05e1c623689f7bb33730cab4557d",
      "v": 28,
      "creates": null,
      "raw": "0xf86e80850e000bdf888252089432be343b94f860124dc4fee278fdcbd38c102d888a0cb49b403deb9c800000801ca018210644e6776b46c76709c2780326c3df5ec4b878560e539717fb36a7f3c43ea07c23c182452a19ec6155197f01bfb3cef2cb05e1c623689f7bb33730cab4557d",
      "networkId": 0,
      "chainId": 0
    }
  ]
}