{
  "hash": "0xe08966052901a6c674b502252b4c2d72e708a16af423bdedf04fe83b60f35f81",
  "parentHash": "0xaca401869ccf057e731948ca928a6cb0499a7313605b9b477fbdad52a4ce0503",
  "number": 48375,
  "timestamp": 1438956208,
  "nonce": "0x43b59969cbab3728",
  "difficulty": 1453630505825,
  "gasLimit": {
    "_hex": "0x163cd"
  },
  "gasUsed": {
    "_hex": "0x5208"
  },
  "miner": "0xbb7B8287f3F0a933474a79eAe42CBCa977791171",
  "extraData": "0x476574682f4c5649562f76312e302e312f6c696e75782f676f312e342e32",
  "transactions": [
    {
      "hash": "0x53a99522a1bf10cdde418981a5b58b3216085265118bca6d028ce46fa37d58a7",
      "blockHash": "0xe08966052901a6c674b502252b4c2d72e708a16af423bdedf04fe83b60f35f81",
      "blockNumber": 48375,
      "transactionIndex": 0,
      "confirmations": null,
      "from": "0x7C4401aE98F12eF6de39aE24cf9fc51f80EBa16B",
      "gasPrice": {
        "_hex": "0xe1c53c924"
      },
      "gasLimit": {
        "_hex": "0x15f90"
      },
      "to": "0x06Db13340f562261d079E4FA344802DdE8340307",
      "value": {
        "_hex": "0xde0b6b3a7640000"
      },
      "nonce": 0,
      "data": "0x",
      "r": "0xbaa2c579b4a88fea2541839de8df62693b52d5d66a82eadb730d90841f60a955",
      "s": "0x7e8c1083b12c8f8b9677cc33d59ebbc906e41f18dd249a85b9c5e812d049b0ba",
      "v": 28,
      "creates": null,
      "raw": "0xf86d80850e1c53c92483015f909406db13340f562261d079e4fa344802dde8340307880de0b6b3a7640000801ca0baa2c579b4a88fea2541839de8df62693b52d5d66a82eadb730d90841f60a955a07e8c1083b12c8f8b9677cc33d59ebbc906e41f18dd249a85b9c5e812d049b0ba",
      "networkId": 0,
      "chainId": 0
    }
  ]
}