{
  "hash": "0x4174d843f5f24db40592db45c3dde58f8e6f52dc417b74a8f4aa4bb4cf618d23",
  "parentHash": "0x9c19fc78826d2f7770342004675034bec7ce0b8b40a92589a88eb79047a5fc0c",
  "number": 82782,
  "timestamp": 1439525040,
  "nonce": "0xc5cce89e44dded53",
  "difficulty": 2383327892978,
  "gasLimit": {
    "_hex": "0x2fefd8"
  },
  "gasUsed": {
    "_hex": "0x546c"
  },
  "miner": "0x02dE7d35a60bf6A216411476040ec648668769D7",
  "extraData": "0x476574682f76312e302e312f77696e646f77732f676f312e342e32",
  "transactions": [
    {
      "hash": "0x77be257dbee751afc341d65c124495a0ecda18b49c3193d0fac661f928716d4f",
      "blockHash": "0x4174d843f5f24db40592db45c3dde58f8e6f52dc417b74a8f4aa4bb4cf618d23",
      "blockNumber": 82782,
      "transactionIndex": 0,
      "confirmations": null,
      "from": "0x8F4d1D41693E462Cf982FD81d0aA701D3A5374C9",
      "gasPrice": {
        "_hex": "0x110c8f7d8de"
      },
      "gasLimit": {
        "_hex": "0xc350"
      },
      "to": "0x2910543Af39abA0Cd09dBb2D50200b3E800A63D2",
      "value": {
        "_hex": "0xd8d5c3719f1cf60000"
      },
      "nonce": 0,
      "data": "0x454e31324658434838",
      "r": "0xcf4700cc53ea129c60d2265984da71fe960cf931b8d09a3aeb5d6ca2160e22bb",
      "s": "0x83424d9ff91f6b84203b400c187ed845370dbe9444496e9ff24a5825c4f8a101",
      "v": 27,
      "creates": null,
      "raw": "0xf87780860110c8f7d8de82c350942910543af39aba0cd09dbb2d50200b3e800a63d289d8d5c3719f1cf6000089454e313246584348381ba0cf4700cc53ea129c60d2265984da71fe960cf931b8d09a3aeb5d6ca2160e22bba083424d9ff91f6b84203b400c187ed845370dbe9444496e9ff24a5825c4f8a101",
      "networkId": 0,
      "chainId": 0
    }
  ]
}