{
  "hash": "0xdbc9325e945a6710314dcbc4d282bafebb3bb2e239ffe8380894c00bd81049ce",
  "parentHash": "0x79cbe1a9a51624111c9dce28fb016d91ef86b9d34619264d5d79b11c4ff8a74b",
  "number": 86256,
  "timestamp": 1439575860,
  "nonce": "0xf6544b91b1d8d4b2",
  "difficulty": 2829100073462,
  "gasLimit": {
    "_hex": "0x2fefd8"
  },
  "gasUsed": {
    "_hex": "0x5208"
  },
  "miner": "0x88D74a59454F6cF3B51ef6b9136AFb6b9D405A88",
  "extraData": "0x476574682f76312e302e312d38326566323666362f6c696e75782f676f312e34",
  "transactions": [
    {
      "hash": "0xaa5cfbfa5a72f412b8d26e78b115d2ea9a12e81e8d804f7cd9ba73844fce027a",
      "blockHash": "0xdbc9325e945a6710314dcbc4d282bafebb3bb2e239ffe8380894c00bd81049ce",
      "blockNumber": 86256,
      "transactionIndex": 0,
      "confirmations": null,
      "from": "0xa585e05eC9b4BAF05885651Af938A22c1925ABDb",
      "gasPrice": {
        "_hex": "0xe0a714f98"
      },
      "gasLimit": {
        "_hex": "0x5208"
      },
      "to": "0x32Be343B94f860124dC4fEe278FDCBD38C102D88",
      "value": {
        "_hex": "0x2c39c5f0f2f064000"
      },
      "nonce": 0,
      "data": "0x",
      "r": "0x859e437c6014f5b88c5ff45ddaa3d33d2ad6e1700d5faa2243db384afbe8a203",
      "s": "0x3c9d9695fcd7dc24fce7f081f8d8ec484e46f50f3ce5fae54adcda4761377b75",
      "v": 27,
      "creates": null,
      "raw": "0xf86d80850e0a714f988252089432be343b94f860124dc4fee278fdcbd38c102d888902c39c5f0f2f064000801ba0859e437c6014f5b88c5ff45ddaa3d33d2ad6e1700d5faa2243db384afbe8a203a03c9d9695fcd7dc24fce7f081f8d8ec484e46f50f3ce5fae54adcda4761377b75",
      "networkId": 0,
      "chainId": 0
    }
  ]
}