{
  "hash": "0xc058aa35b139ca3ad6befb25ec547979cabe3b844f1292c3bdacac6ac9808df9",
  "parentHash": "0xd16e64d3626cb4282eb9f45367cbc99f7c888032c98dbc6c8781b342808fbadd",
  "number": 91401,
  "timestamp": 1439655161,
  "nonce": "0x1e58d33ceadb4be3",
  "difficulty": 3469238765360,
  "gasLimit": {
    "_hex": "0x2fefd8"
  },
  "gasUsed": {
    "_hex": "0x5208"
  },
  "miner": "0xa50ec0D39fa913E62f1Bae7074E6F36caA71855b",
  "extraData": "0xd783010001844765746887676f312e342e32856c696e7578",
  "transactions": [
    {
      "hash": "0xc667cb301f0a748a81cece3c8cac345687099bd7778618beb7fdfae9b7ccf2be",
      "blockHash": "0xc058aa35b139ca3ad6befb25ec547979cabe3b844f1292c3bdacac6ac9808df9",
      "blockNumber": 91401,
      "transactionIndex": 0,
      "confirmations": null,
      "from": "0x8293b65bD915B9FF87F6aDAb479da2e5b6633fDB",
      "gasPrice": {
        "_hex": "0xcb98be4e8"
      },
      "gasLimit": {
        "_hex": "0x15f90"
      },
      "to": "0x9f78552704fe7e52cC7C3853534aA2C3cf580D54",
      "value": {
        "_hex": "0x8ac7230489e80000"
      },
      "nonce": 18,
      "data": "0x",
      "r": "0xc0a592f9d6740afee1040bf7056530f8af02bcb56199b66ea7d80baddec2f806",
      "s": "0x4974945a308f0bb73984fd3698b7012ccf810dcd2bd1d9388768b5bb40c634b3",
      "v": 27,
      "creates": null,
      "raw": "0xf86d12850cb98be4e883015f90949f78552704fe7e52cc7c3853534aa2c3cf580d54888ac7230489e80000801ba0c0a592f9d6740afee1040bf7056530f8af02bcb56199b66ea7d80baddec2f806a04974945a308f0bb73984fd3698b7012ccf810dcd2bd1d9388768b5bb40c634b3",
      "networkId": 0,
      "chainId": 0
    }
  ]
}