{
  "hash": "0xb4a9a486403785080a04dd537e12a6ec2534101751b8237579e2c597f32d8196",
  "parentHash": "0xc490db8ec2f2f64d5e4d1834a48fb41c92dbd4ef16e8d08f523eeece32c90103",
  "number": 90496,
  "timestamp": 1439640900,
  "nonce": "0xfab2f73b60955d6d",
  "difficulty": 3344850442061,
  "gasLimit": {
    "_hex": "0x2fefd8"
  },
  "gasUsed": {
    "_hex": "0x55d8"
  },
  "miner": "0xA21Ba94e45f0E168dA824fC67aC9cb5Cb577a8aF",
  "extraData": "0x",
  "transactions": [
    {
      "hash": "0x371bcad1997d7c666c1cab8f3b7892ed1778d9c0693e5cc6038a44eeee9639f3",
      "blockHash": "0xb4a9a486403785080a04dd537e12a6ec2534101751b8237579e2c597f32d8196",
      "blockNumber": 90496,
      "transactionIndex": 0,
      "confirmations": null,
      "from": "0xF5DB8283D971Aa114D2035f512EdD8e86557c5C0",
      "gasPrice": {
        "_hex": "0xcfcd7cd7d"
      },
      "gasLimit": {
        "_hex": "0x15f90"
      },
      "to": "0x0000000000000000000000000000000000000000",
      "value": {
        "_hex": "0x470de4df820000"
      },
      "nonce": 1,
      "data": "0xb214faa54141414141484a48430000000000000000000000000000000000000000000000",
      "r": "0x6084cc96209ba1c4010868d67507eb620bc5079e18949655d8eac7afd4488c43",
      "s": "0x1cf12c928399339712a1a42c85fe7190a60f6a92b2bbe0769c0cb4a0241a525b",
      "v": 28,
      "creates": null,
      "raw": "0xf89001850cfcd7cd7d83015f9094000000000000000000000000000000000000000087470de4df820000a4b214faa54141414141484a484300000000000000000000000000000000000000000000001ca06084cc96209ba1c4010868d67507eb620bc5079e18949655d8eac7afd4488c43a01cf12c928399339712a1a42c85fe7190a60f6a92b2bbe0769c0cb4a0241a525b",
      "networkId": 0,
      "chainId": 0
    }
  ]
}