{
  "hash": "0x232634744f816952967f58bf440cfd75fd2b3957bcb4ca35864ac81d99868122",
  "parentHash": "0x03619b1105c55dd2105a6cae0cfec98d062c85f0253df65a8202ca79da30684f",
  "number": 56465,
  "timestamp": 1439087628,
  "nonce": "0x248a36c591d599b8",
  "difficulty": 1661740349752,
  "gasLimit": {
    "_hex": "0x2fefd8"
  },
  "gasUsed": {
    "_hex": "0xf51e"
  },
  "miner": "0x4947190fcC30D3fb3a16233b259bFe6b3492339a",
  "extraData": "0x627276",
  "transactions": [
    {
      "hash": "0x54d4e21e82f239e0bd4ec228f66a54c586caf764b427327f9c2cdb97201b1560",
      "blockHash": "0x232634744f816952967f58bf440cfd75fd2b3957bcb4ca35864ac81d99868122",
      "blockNumber": 56465,
      "transactionIndex": 0,
      "confirmations": null,
      "from": "0xFD2605a2bF58fDbB90db1Da55dF61628B47F9e8c",
      "gasPrice": {
        "_hex": "0xd80c2e4ea"
      },
      "gasLimit": {
        "_hex": "0x15f90"
      },
      "to": "0xf38B4b47b3d6A50078Aa97B3C0a75664224EA71c",
      "value": {
        "_hex": "0x0"
      },
      "nonce": 34,
      "data": "0x7c1c171600000000000000000000000000000000000000000000000000000000075bcd15",
      "r": "0x47545d32f061eaaae057884a78b767b896326258ec34de16982ee82e91742487",
      "s": "0x00f7665abff008e1f97e7c9c9cef9ac00ca9b57f4b73d2d0ce3d2832328b2a58",
      "v": 27,
      "creates": null,
      "raw": "0xf88822850d80c2e4ea83015f9094f38b4b47b3d6a50078aa97b3c0a75664224ea71c80a47c1c171600000000000000000000000000000000000000000000000000000000075bcd151ba047545d32f061eaaae057884a78b767b896326258ec34de16982ee82e917424879ff7665abff008e1f97e7c9c9cef9ac00ca9b57f4b73d2d0ce3d2832328b2a58",
      "networkId": 0,
      "chainId": 0
    }
  ]
}