{
  "hash": "0x9b1f9569a1bf26017d426c63e5cb36d6426467b9fa58c4997f1b9d8d3ae86950",
  "parentHash": "0x82b6edaf89c8f8343e7d5654a889cc63852266d473bbc4918dac4a659b140f5a",
  "number": 115310,
  "timestamp": 1440055001,
  "nonce": "0x81268798129b5984",
  "difficulty": 4558364727314,
  "gasLimit": {
    "_hex": "0x2fefd8"
  },
  "gasUsed": {
    "_hex": "0x5208"
  },
  "miner": "0x52bc44d5378309EE2abF1539BF71dE1b7d7bE3b5",
  "extraData": "0x476574682f76312e302e312d65626434373230372f6c696e75782f676f312e34",
  "transactions": [
    {
      "hash": "0x2842908c6bc402ffbf6c4170b6b6f259512ab976e488fb747c438ec8ef13e4fe",
      "blockHash": "0x9b1f9569a1bf26017d426c63e5cb36d6426467b9fa58c4997f1b9d8d3ae86950",
      "blockNumber": 115310,
      "transactionIndex": 0,
      "confirmations": null,
      "from": "0x19aF4b2766b8115B49E1fd31Ae71CaA12E706A96",
      "gasPrice": {
        "_hex": "0xccfd1b20c"
      },
      "gasLimit": {
        "_hex": "0x5208"
      },
      "to": "0x32Be343B94f860124dC4fEe278FDCBD38C102D88",
      "value": {
        "_hex": "0x45e2b1bafbca2c00"
      },
      "nonce": 10,
      "data": "0x",
      "r": "0x75ef79f0d6266886a15e9aadd21f95a2f0c0ffd050fd1c6cbc2f5163c29d1bbd",
      "s": "0x5e1de0e6a8c47e42ce41cafbf72f54b9adc00ab2f1bbcee18b70050301252899",
      "v": 27,
      "creates": null,
      "raw": "0xf86c0a850ccfd1b20c8252089432be343b94f860124dc4fee278fdcbd38c102d888845e2b1bafbca2c00801ba075ef79f0d6266886a15e9aadd21f95a2f0c0ffd050fd1c6cbc2f5163c29d1bbda05e1de0e6a8c47e42ce41cafbf72f54b9adc00ab2f1bbcee18b70050301252899",
      "networkId": 0,
      "chainId": 0
    }
  ]
}