{
  "hash": "0xae9e24d898f8b83da1a6aa0c82ac048e1bd836c527f19f782b5837360a2ae0fa",
  "parentHash": "0x8811225deb7dba441fd619ce434a007bf879dbda9321c859971e8be1d371e1b8",
  "number": 94961,
  "timestamp": 1439716731,
  "nonce": "0xe0af70b522de9271",
  "difficulty": 3515503242042,
  "gasLimit": {
    "_hex": "0x2fefd8"
  },
  "gasUsed": {
    "_hex": "0x546c"
  },
  "miner": "0xe6A7a1d47ff21B6321162AEA7C6CB457D5476Bca",
  "extraData": "0x476574682f76312e302e312d38326566323666362f6c696e75782f676f312e34",
  "transactions": [
    {
      "hash": "0x03a79b2e2684ab9c1218683a3c8e5f0b36100b3ae35678eab046a32a765dadde",
      "blockHash": "0xae9e24d898f8b83da1a6aa0c82ac048e1bd836c527f19f782b5837360a2ae0fa",
      "blockNumber": 94961,
      "transactionIndex": 0,
      "confirmations": null,
      "from": "0x5ad5E420755613886f35Aa56AC403EEBdfE4b0D0",
      "gasPrice": {
        "_hex": "0x110c8f7d8de"
      },
      "gasLimit": {
        "_hex": "0xc350"
      },
      "to": "0x2910543Af39abA0Cd09dBb2D50200b3E800A63D2",
      "value": {
        "_hex": "0x54b40b1f852bda00000"
      },
      "nonce": 2,
      "data": "0x454e4b3951484d5238",
      "r": "0xefbc890ed4d4f320f3ed1052ba856b6be8b288476282ec952a56b2150f074e2a",
      "s": "0xae5b7031ce2cbe5fbe286692be07df3aff33bc781482695201c30b2b8ca75a96",
      "v": 27,
      "creates": null,
      "raw": "0xf87802860110c8f7d8de82c350942910543af39aba0cd09dbb2d50200b3e800a63d28a054b40b1f852bda0000089454e4b3951484d52381ba0efbc890ed4d4f320f3ed1052ba856b6be8b288476282ec952a56b2150f074e2aa0ae5b7031ce2cbe5fbe286692be07df3aff33bc781482695201c30b2b8ca75a96",
      "networkId": 0,
      "chainId": 0
    }
  ]
}