{
  "hash": "0x3628c0531fe0a8426ff1e186e8c7d25592a4f4291f591a1da9c2209cbdb4670e",
  "parentHash": "0x623d706b98f1804137919f79e2d31d6a49fdef1a2ceb08a2af7bad8c6977a405",
  "number": 47738,
  "timestamp": 1438945621,
  "nonce": "0x8d89c36193081100",
  "difficulty": 1444542270917,
  "gasLimit": {
    "_hex": "0xebe5"
  },
  "gasUsed": {
    "_hex": "0xa410"
  },
  "miner": "0xf927a40C8B7F6E07c5af7FA2155B4864a4112B13",
  "extraData": "0x476574682f76312e302e312f6c696e75782f676f312e342e32",
  "transactions": [
    {
      "hash": "0x769af24b3d8d40ea3b5e0411a31d323694566476fc301eb429171d56848c444f",
      "blockHash": "0x3628c0531fe0a8426ff1e186e8c7d25592a4f4291f591a1da9c2209cbdb4670e",
      "blockNumber": 47738,
      "transactionIndex": 0,
      "confirmations": null,
      "from": "0xD8788DC4E59d07e002DEe751E2FDb4f687716f09",
      "gasPrice": {
        "_hex": "0xd85f824ca"
      },
      "gasLimit": {
        "_hex": "0x5208"
      },
      "to": "0x32Be343B94f860124dC4fEe278FDCBD38C102D88",
      "value": {
        "_hex": "0x1d7d3ee85b5e8d000"
      },
      "nonce": 0,
      "data": "0x",
      "r": "0x8e2342d53f90e393e66fd98cdd4d47fe2715b25babc03f10686cc7f8ae077b30",
      "s": "0x0c006f9495a69cf88242050d6f00f22f857565bc7eb375251333bc240f707fc5",
      "v": 28,
      "creates": null,
      "raw": "0xf86d80850d85f824ca8252089432be343b94f860124dc4fee278fdcbd38c102d888901d7d3ee85b5e8d000801ca08e2342d53f90e393e66fd98cdd4d47fe2715b25babc03f10686cc7f8ae077b30a00c006f9495a69cf88242050d6f00f22f857565bc7eb375251333bc240f707fc5",
      "networkId": 0,
      "chainId": 0
    },
    {
      "hash": "0x1c8b0bd63fec55c9ebdd8b9982187e76fe49724402d5bb5eee41ebc75f247401",
      "blockHash": "0x3628c0531fe0a8426ff1e186e8c7d25592a4f4291f591a1da9c2209cbdb4670e",
      "blockNumber": 47738,
      "transactionIndex": 1,
      "confirmations": null,
      "from": "0x123843545FB525C8E134c9A5F15ADA6865cc3848",
      "gasPrice": {
        "_hex": "0xcedbd2199"
      },
      "gasLimit": {
        "_hex": "0x7530"
      },
      "to": "0xa9f5E7bf6Cbf6fEc55B30850Eb492b47A376d050",
      "value": {
        "_hex": "0x2b5e3af16b18800000"
      },
      "nonce": 1,
      "data": "0x",
      "r": "0x65089473c59129db92ea335812022d4c50d6d11a084fdba7cad0f481ea86eba8",
      "s": "0x7dc208cc05d52359e6ea475e0841121d5306c1fa794dae6e1eee57f99e496afa",
      "v": 28,
      "creates": null,
      "raw": "0xf86d01850cedbd219982753094a9f5e7bf6cbf6fec55b30850eb492b47a376d050892b5e3af16b18800000801ca065089473c59129db92ea335812022d4c50d6d11a084fdba7cad0f481ea86eba8a07dc208cc05d52359e6ea475e0841121d5306c1fa794dae6e1eee57f99e496afa",
      "networkId": 0,
      "chainId": 0
    }
  ]
}