{
  "hash": "0xd121c39bcfa42825b1c0c02cf50f3404c33127dc7d247d57bee09412b97df2ae",
  "parentHash": "0xa45711aa96f09a6a6af59198eb05e1192a76e6d404245d572a467c6fb0cbe140",
  "number": 89864,
  "timestamp": 1439630352,
  "nonce": "0xff47f133ae7a62f0",
  "difficulty": 3338575425903,
  "gasLimit": {
    "_hex": "0x2fefd8"
  },
  "gasUsed": {
    "_hex": "0xa410"
  },
  "miner": "0x0037ce3d4B7f8729C8607D8D0248252Be68202c0",
  "extraData": "0x476574682f76312e302e312f77696e646f77732f676f312e342e32",
  "transactions": [
    {
      "hash": "0x019d00ea7829406f4e226346f4edf894e3bf86cac9484d84b794b5df392d0005",
      "blockHash": "0xd121c39bcfa42825b1c0c02cf50f3404c33127dc7d247d57bee09412b97df2ae",
      "blockNumber": 89864,
      "transactionIndex": 0,
      "confirmations": null,
      "from": "0x68d3578bFBeEFB9C1e31cE355A29ad3a107F88C5",
      "gasPrice": {
        "_hex": "0xdc605614f"
      },
      "gasLimit": {
        "_hex": "0x5208"
      },
      "to": "0x32Be343B94f860124dC4fEe278FDCBD38C102D88",
      "value": {
        "_hex": "0x396954377c308400"
      },
      "nonce": 3,
      "data": "0x",
      "r": "0xdc085a8eb4bb518824ae9991b5e7dc2d22eb7e616d768302cbacf7d0a8c60b00",
      "s": "0x421bcde9951f3a90a6b4906ab8cd8220772239dce0c6ada81b0266027a3375e8",
      "v": 28,
      "creates": null,
      "raw": "0xf86c03850dc605614f8252089432be343b94f860124dc4fee278fdcbd38c102d8888396954377c308400801ca0dc085a8eb4bb518824ae9991b5e7dc2d22eb7e616d768302cbacf7d0a8c60b00a0421bcde9951f3a90a6b4906ab8cd8220772239dce0c6ada81b0266027a3375e8",
      "networkId": 0,
      "chainId": 0
    },
    {
      "hash": "0xb2eb9f03f4e919048695f48adee228caa3f67153eb080d7bce4bb0db6df95b9b",
      "blockHash": "0xd121c39bcfa42825b1c0c02cf50f3404c33127dc7d247d57bee09412b97df2ae",
      "blockNumber": 89864,
      "transactionIndex": 1,
      "confirmations": null,
      "from": "0x629e35e0A481d821293F354E0dD27E43a354D061",
      "gasPrice": {
        "_hex": "0xdc605614f"
      },
      "gasLimit": {
        "_hex": "0x5208"
      },
      "to": "0x32Be343B94f860124dC4fEe278FDCBD38C102D88",
      "value": {
        "_hex": "0x114bf79febbd81000"
      },
      "nonce": 3,
      "data": "0x",
      "r": "0x050facc34335131f01e973759ca4b4dcb920272cb277bf53dd9a8b8a20bb766e",
      "s": "0x536c2903cd4e5fd33f8977c74ed4a8fcd3054fc2f2dcb456052a8db043173ca6",
      "v": 27,
      "creates": null,
      "raw": "0xf86d03850dc605614f8252089432be343b94f860124dc4fee278fdcbd38c102d88890114bf79febbd81000801ba0050facc34335131f01e973759ca4b4dcb920272cb277bf53dd9a8b8a20bb766ea0536c2903cd4e5fd33f8977c74ed4a8fcd3054fc2f2dcb456052a8db043173ca6",
      "networkId": 0,
      "chainId": 0
    }
  ]
}