{
  "hash": "0x2e02aca236ec8acf7b816aa42270346c734c6dcf3c90b512a5cc33e53d0be2c8",
  "parentHash": "0x059563e1a3cc034e97881adb20123576696e987749020aff8c98962ed5fa21e8",
  "number": 87796,
  "timestamp": 1439597663,
  "nonce": "0x1cb4c90ce97c3d95",
  "difficulty": 3167860194574,
  "gasLimit": {
    "_hex": "0x2fefd8"
  },
  "gasUsed": {
    "_hex": "0xa410"
  },
  "miner": "0x26E3f7C9e444f2Ca9E0BE2aF841bd060cF1CbDDb",
  "extraData": "0x476574682f76312e302e312f6c696e75782f676f312e342e32",
  "transactions": [
    {
      "hash": "0xcf68770511e27ba48970ef76943e1ec856f7edcd2ab93faef8ce5d68f6c6370a",
      "blockHash": "0x2e02aca236ec8acf7b816aa42270346c734c6dcf3c90b512a5cc33e53d0be2c8",
      "blockNumber": 87796,
      "transactionIndex": 0,
      "confirmations": null,
      "from": "0x61F642543d22bAf5382908a714E675Cc0b51ea45",
      "gasPrice": {
        "_hex": "0xd3a11ba1b"
      },
      "gasLimit": {
        "_hex": "0x5208"
      },
      "to": "0x32Be343B94f860124dC4fEe278FDCBD38C102D88",
      "value": {
        "_hex": "0x3e6eeeca333acc00"
      },
      "nonce": 4,
      "data": "0x",
      "r": "0xd3e615675ebe1539d94854c1a810c8484ee679a618838613744c75b9796ff3b9",
      "s": "0x0a81c4268d1caf69eb4af3942182c7fc1df093ce2682396d3996482b30840b7a",
      "v": 27,
      "creates": null,
      "raw": "0xf86c04850d3a11ba1b8252089432be343b94f860124dc4fee278fdcbd38c102d88883e6eeeca333acc00801ba0d3e615675ebe1539d94854c1a810c8484ee679a618838613744c75b9796ff3b9a00a81c4268d1caf69eb4af3942182c7fc1df093ce2682396d3996482b30840b7a",
      "networkId": 0,
      "chainId": 0
    },
    {
      "hash": "0xb22a93dcdeb661e28ce731b5cb2abdac0ddb2b4be8733c6dae8eae0b6a3c0fd1",
      "blockHash": "0x2e02aca236ec8acf7b816aa42270346c734c6dcf3c90b512a5cc33e53d0be2c8",
      "blockNumber": 87796,
      "transactionIndex": 1,
      "confirmations": null,
      "from": "0x8b558bcC006CCa1b6D3040AF38919733DC735389",
      "gasPrice": {
        "_hex": "0xd3a11ba1b"
      },
      "gasLimit": {
        "_hex": "0x5208"
      },
      "to": "0x32Be343B94f860124dC4fEe278FDCBD38C102D88",
      "value": {
        "_hex": "0xa97a8c94bba94000"
      },
      "nonce": 0,
      "data": "0x",
      "r": "0xf80b0af0ac14fa3e031b6acfbf8189e8f9bcbf9f7ba99831f7efe7174da9072a",
      "s": "0x098aeb70b5c80739d5933ed10b4042803171d5474f58952db3ac8107c1d1ceca",
      "v": 27,
      "creates": null,
      "raw": "0xf86c80850d3a11ba1b8252089432be343b94f860124dc4fee278fdcbd38c102d8888a97a8c94bba94000801ba0f80b0af0ac14fa3e031b6acfbf8189e8f9bcbf9f7ba99831f7efe7174da9072aa0098aeb70b5c80739d5933ed10b4042803171d5474f58952db3ac8107c1d1ceca",
      "networkId": 0,
      "chainId": 0
    }
  ]
}