{
  "hash": "0x5dcb78da79e7e25c6903a508600e4159d125364c9753a3dcc3b4ec5c262703b0",
  "parentHash": "0xc92912b0031146f048c24b11eccf257267946d1976aa560d517f97b9229bf32f",
  "number": 66462,
  "timestamp": 1439255036,
  "nonce": "0xac8441478341752b",
  "difficulty": 1939510171504,
  "gasLimit": {
    "_hex": "0x2fefd5"
  },
  "gasUsed": {
    "_hex": "0x5208"
  },
  "miner": "0x47ff6576639c2e94762eA5443978D7681C0E78DC",
  "extraData": "0x476574682f76312e302e312f6c696e75782f676f312e342e32",
  "transactions": [
    {
      "hash": "0x8484cc5fc7aedc1919426ced6631784f75a5def4761e16c01b517e713008749f",
      "blockHash": "0x5dcb78da79e7e25c6903a508600e4159d125364c9753a3dcc3b4ec5c262703b0",
      "blockNumber": 66462,
      "transactionIndex": 0,
      "confirmations": null,
      "from": "0x120A270bbC009644e35F0bB6ab13f95b8199c4ad",
      "gasPrice": {
        "_hex": "0xd285b41fe"
      },
      "gasLimit": {
        "_hex": "0x15f90"
      },
      "to": "0x02017Ae4e03d3eB7322e0Fcd8738CA20AFDE53e4",
      "value": {
        "_hex": "0x6734b5cb6c919400"
      },
      "nonce": 145,
      "data": "0x",
      "r": "0xd939fdc0f91878172cdb419f0762c742f55efb46073f0c3bd394b1ef07de4185",
      "s": "0x3b05195041a42a52307446f5781efc74b7bd253e58776d7c696b26a7da285dc0",
      "v": 28,
      "creates": null,
      "raw": "0xf86e8191850d285b41fe83015f909402017ae4e03d3eb7322e0fcd8738ca20afde53e4886734b5cb6c919400801ca0d939fdc0f91878172cdb419f0762c742f55efb46073f0c3bd394b1ef07de4185a03b05195041a42a52307446f5781efc74b7bd253e58776d7c696b26a7da285dc0",
      "networkId": 0,
      "chainId": 0
    }
  ]
}