{
  "hash": "0x5422fc6b1c42050842b87ba0f2157e99e8f0e2e94141e1e9a134b3ec407df45d",
  "parentHash": "0x9f014ac2a342fbf7e881018af21f30cce1735319091d24ffe1defac1fca5aff1",
  "number": 113431,
  "timestamp": 1440023429,
  "nonce": "0xb67131d32208ff2e",
  "difficulty": 4464654562191,
  "gasLimit": {
    "_hex": "0x2fefd8"
  },
  "gasUsed": {
    "_hex": "0x5208"
  },
  "miner": "0xe6A7a1d47ff21B6321162AEA7C6CB457D5476Bca",
  "extraData": "0x476574682f76312e302e312d38326566323666362f6c696e75782f676f312e34",
  "transactions": [
    {
      "hash": "0x19df6f7b5174a525e08ae467f49632a45f602a46433973810490e0f09870c823",
      "blockHash": "0x5422fc6b1c42050842b87ba0f2157e99e8f0e2e94141e1e9a134b3ec407df45d",
      "blockNumber": 113431,
      "transactionIndex": 0,
      "confirmations": null,
      "from": "0x32Be343B94f860124dC4fEe278FDCBD38C102D88",
      "gasPrice": {
        "_hex": "0xd279e0796"
      },
      "gasLimit": {
        "_hex": "0x5208"
      },
      "to": "0x65553f5e8FA2eDfCe37Aec51A90ed28777dDe402",
      "value": {
        "_hex": "0x2be53daed33968000"
      },
      "nonce": 1366,
      "data": "0x",
      "r": "0x027e8b75bd3aac08e3cd23b2f4afe6d997f19b72d31f3d9a05400eeb7a059c7b",
      "s": "0x0824f2bddedf015651caf0b247226a6b40fa067cbb03d64e75145bbac1dd3dfc",
      "v": 27,
      "creates": null,
      "raw": "0xf86f820556850d279e07968252089465553f5e8fa2edfce37aec51a90ed28777dde4028902be53daed33968000801ba0027e8b75bd3aac08e3cd23b2f4afe6d997f19b72d31f3d9a05400eeb7a059c7ba00824f2bddedf015651caf0b247226a6b40fa067cbb03d64e75145bbac1dd3dfc",
      "networkId": 0,
      "chainId": 0
    }
  ]
}