{
  "hash": "0x5cce9626468a0531fd2b125131fd8c85dff80c69ab1a26300987d4c7a6a726d1",
  "parentHash": "0x0eb963b6b817c13dc4856414aacd9cd5d499637a3e83fd493351bb56eb3ac8b2",
  "number": 89040,
  "timestamp": 1439617213,
  "nonce": "0x697a07105463c917",
  "difficulty": 3267934220979,
  "gasLimit": {
    "_hex": "0x2fefd8"
  },
  "gasUsed": {
    "_hex": "0xa410"
  },
  "miner": "0xe6A7a1d47ff21B6321162AEA7C6CB457D5476Bca",
  "extraData": "0x476574682f76312e302e312d38326566323666362f6c696e75782f676f312e34",
  "transactions": [
    {
      "hash": "0x93d5291b5679c7720014ff676e5b6c58e549ac257a458751ca722a2c5862e52d",
      "blockHash": "0x5cce9626468a0531fd2b125131fd8c85dff80c69ab1a26300987d4c7a6a726d1",
      "blockNumber": 89040,
      "transactionIndex": 0,
      "confirmations": null,
      "from": "0x5F28bcc5faFC8982536A9e4be559657998CdE1E3",
      "gasPrice": {
        "_hex": "0xba43b7400"
      },
      "gasLimit": {
        "_hex": "0x5208"
      },
      "to": "0xC47Aaa860008be6f65B58c6C6E02a84e666EfE31",
      "value": {
        "_hex": "0x8a9fe119ed236000"
      },
      "nonce": 11,
      "data": "0x",
      "r": "0x3832589fa1562b6dd236ad52d89c9d7367cf0bb49add6a1d0d4b6f9a9bd26431",
      "s": "0x10b3b6e68bc2eb4cb1f77931d44a04fb972068e4c9fe8e2b0ab40782e573d97f",
      "v": 28,
      "creates": null,
      "raw": "0xf86c0b850ba43b740082520894c47aaa860008be6f65b58c6c6e02a84e666efe31888a9fe119ed236000801ca03832589fa1562b6dd236ad52d89c9d7367cf0bb49add6a1d0d4b6f9a9bd26431a010b3b6e68bc2eb4cb1f77931d44a04fb972068e4c9fe8e2b0ab40782e573d97f",
      "networkId": 0,
      "chainId": 0
    },
    {
      "hash": "0x9371e6ba4d1c3bf506594da22d7ecba76f786f14c1bd0239eef914b249175d6b",
      "blockHash": "0x5cce9626468a0531fd2b125131fd8c85dff80c69ab1a26300987d4c7a6a726d1",
      "blockNumber": 89040,
      "transactionIndex": 1,
      "confirmations": null,
      "from": "0x8eC407EDf8FAbf4dCDD81b9bf6AC7f07591D1488",
      "gasPrice": {
        "_hex": "0xba43b7400"
      },
      "gasLimit": {
        "_hex": "0x5208"
      },
      "to": "0xC47Aaa860008be6f65B58c6C6E02a84e666EfE31",
      "value": {
        "_hex": "0x378066aff3c3b6000"
      },
      "nonce": 3,
      "data": "0x",
      "r": "0x4e9c6dbdb02646234702689f612e36805d486a476fcff4781c4b0fc8d423361b",
      "s": "0x3a02e59fb606eacbe8776b8b509da47254e76c7d101de88cc4c7ceb3df9ed085",
      "v": 28,
      "creates": null,
      "raw": "0xf86d03850ba43b740082520894c47aaa860008be6f65b58c6c6e02a84e666efe31890378066aff3c3b6000801ca04e9c6dbdb02646234702689f612e36805d486a476fcff4781c4b0fc8d423361ba03a02e59fb606eacbe8776b8b509da47254e76c7d101de88cc4c7ceb3df9ed085",
      "networkId": 0,
      "chainId": 0
    }
  ]
}