{
  "hash": "0x9b8d45dde34747bc92e89d62a24a4fc346aab55752a9bc4fed617eee5873ddb9",
  "parentHash": "0xd09e97c5523776c1eebf7bf7ae36cb4cac52e349836eb94101b3193f7560f684",
  "number": 89895,
  "timestamp": 1439630830,
  "nonce": "0x7eeb6fd8f16da449",
  "difficulty": 3340193644197,
  "gasLimit": {
    "_hex": "0x2fefd8"
  },
  "gasUsed": {
    "_hex": "0x14820"
  },
  "miner": "0x007f7f58D3eb5b7510A301eCC749FC1fCDDBE14D",
  "extraData": "0x476574682f76312e302e312f77696e646f77732f676f312e342e32",
  "transactions": [
    {
      "hash": "0x33eae0007b5f0802189e3c60eef113ec42e2395aaa397dbd7b6ccbe845ed5f26",
      "blockHash": "0x9b8d45dde34747bc92e89d62a24a4fc346aab55752a9bc4fed617eee5873ddb9",
      "blockNumber": 89895,
      "transactionIndex": 0,
      "confirmations": null,
      "from": "0xe73cC925EB0206Db8AB37036c0C88560469B8ce2",
      "gasPrice": {
        "_hex": "0xdc9a384f1"
      },
      "gasLimit": {
        "_hex": "0x5208"
      },
      "to": "0x32Be343B94f860124dC4fEe278FDCBD38C102D88",
      "value": {
        "_hex": "0x340a2ce3458680000"
      },
      "nonce": 0,
      "data": "0x",
      "r": "0x886e194caec62b00ecde3b5a92acaaa0cc523fd7d568a8fee81d7ebbba4626a4",
      "s": "0x254ae64a52a196341f84f3c85c99235fc3ed646ecddbb64a177af956bd5b4890",
      "v": 27,
      "creates": null,
      "raw": "0xf86d80850dc9a384f18252089432be343b94f860124dc4fee278fdcbd38c102d88890340a2ce3458680000801ba0886e194caec62b00ecde3b5a92acaaa0cc523fd7d568a8fee81d7ebbba4626a4a0254ae64a52a196341f84f3c85c99235fc3ed646ecddbb64a177af956bd5b4890",
      "networkId": 0,
      "chainId": 0
    },
    {
      "hash": "0x4f265bd4a0ecb767ad5020b7e7b340b5cafdfe02492215e5099cea24d3d66e7f",
      "blockHash": "0x9b8d45dde34747bc92e89d62a24a4fc346aab55752a9bc4fed617eee5873ddb9",
      "blockNumber": 89895,
      "transactionIndex": 1,
      "confirmations": null,
      "from": "0xb4A9c47d4182b60B07a31d310cEDA8105a1122c4",
      "gasPrice": {
        "_hex": "0xdc9a384f1"
      },
      "gasLimit": {
        "_hex": "0x5208"
      },
      "to": "0x32Be343B94f860124dC4fEe278FDCBD38C102D88",
      "value": {
        "_hex": "0x2bdff68aee38d800"
      },
      "nonce": 1,
      "data": "0x",
      "r": "0xec7bf0f9ad98f14c9dc77243eba98c00bb68957139b0a759c2f2c711b87c951d",
      "s": "0x41601beda0ef31efce050b438a99db3ea0cf984ef922e6121cedf89bfd50afcc",
      "v": 28,
      "creates": null,
      "raw": "0xf86c01850dc9a384f18252089432be343b94f860124dc4fee278fdcbd38c102d88882bdff68aee38d800801ca0ec7bf0f9ad98f14c9dc77243eba98c00bb68957139b0a759c2f2c711b87c951da041601beda0ef31efce050b438a99db3ea0cf984ef922e6121cedf89bfd50afcc",
      "networkId": 0,
      "chainId": 0
    },
    {
      "hash": "0xdf1b337c7af637190eae4857afc3e31d4f5deeb15f1b1f301faff6885ca19352",
      "blockHash": "0x9b8d45dde34747bc92e89d62a24a4fc346aab55752a9bc4fed617eee5873ddb9",
      "blockNumber": 89895,
      "transactionIndex": 2,
      "confirmations": null,
      "from": "0xBc8405A1c3b4f67A4Ba6C70C91eF1F0152B6d3ab",
      "gasPrice": {
        "_hex": "0xdc9a384f1"
      },
      "gasLimit": {
        "_hex": "0x5208"
      },
      "to": "0x32Be343B94f860124dC4fEe278FDCBD38C102D88",
      "value": {
        "_hex": "0x75601fd05e725000"
      },
      "nonce": 1,
      "data": "0x",
      "r": "0xd53acd6d45a600a38c7d6fab11b31703af56c2347ffeba9c7e61812a1c9ed340",
      "s": "0x4b5ddc29c0ef56f8df250ff47b12b7f26d724fb82523c1a80f044451500bb18f",
      "v": 27,
      "creates": null,
      "raw": "0xf86c01850dc9a384f18252089432be343b94f860124dc4fee278fdcbd38c102d888875601fd05e725000801ba0d53acd6d45a600a38c7d6fab11b31703af56c2347ffeba9c7e61812a1c9ed340a04b5ddc29c0ef56f8df250ff47b12b7f26d724fb82523c1a80f044451500bb18f",
      "networkId": 0,
      "chainId": 0
    },
    {
      "hash": "0x5859d3b56d7bc1862ba9ae303378568104b1e6bdf84a187bad24277200679ff8",
      "blockHash": "0x9b8d45dde34747bc92e89d62a24a4fc346aab55752a9bc4fed617eee5873ddb9",
      "blockNumber": 89895,
      "transactionIndex": 3,
      "confirmations": null,
      "from": "0xA971748c4C493bC96C7d490E1789481e1E96bB10",
      "gasPrice": {
        "_hex": "0xdc9a384f1"
      },
      "gasLimit": {
        "_hex": "0x5208"
      },
      "to": "0x32Be343B94f860124dC4fEe278FDCBD38C102D88",
      "value": {
        "_hex": "0x1d36e7d8d896d0000"
      },
      "nonce": 1,
      "data": "0x",
      "r": "0xf9ae5c2aa993d8cfdb2745efcb4b5b7d79ff8596da4339ad9b7e84f5d9c56dbd",
      "s": "0x001d3d05894e8ee7862d91fd810423f8f84133e0d031146d0d44b94dab68aa5a",
      "v": 27,
      "creates": null,
      "raw": "0xf86c01850dc9a384f18252089432be343b94f860124dc4fee278fdcbd38c102d888901d36e7d8d896d0000801ba0f9ae5c2aa993d8cfdb2745efcb4b5b7d79ff8596da4339ad9b7e84f5d9c56dbd9f1d3d05894e8ee7862d91fd810423f8f84133e0d031146d0d44b94dab68aa5a",
      "networkId": 0,
      "chainId": 0
    }
  ]
}