{
  "hash": "0x3d382c16bf093194bf12e9ae116887ae5107241a7dd6a7eb941c63fac72e6b63",
  "parentHash": "0x3bfd69f14f423dd3397cf2bffd70d7ffcd0c4f090bb951f83dfc3107742f4772",
  "number": 61206,
  "timestamp": 1439168780,
  "nonce": "0x65baef6015f7c83d",
  "difficulty": 1722749191568,
  "gasLimit": {
    "_hex": "0x2fefd8"
  },
  "gasUsed": {
    "_hex": "0x5208"
  },
  "miner": "0xD65B98DBBE8F63FA14139a10041Bba7E3A0d377D",
  "extraData": "0x476574682f76312e302e312f6c696e75782f676f312e342e32",
  "transactions": [
    {
      "hash": "0xedaab539ffc33ea142f4ce2dd9462c87813b7427be66c87b25cf9862d9a2df8e",
      "blockHash": "0x3d382c16bf093194bf12e9ae116887ae5107241a7dd6a7eb941c63fac72e6b63",
      "blockNumber": 61206,
      "transactionIndex": 0,
      "confirmations": null,
      "from": "0xA10C59651885FeAaac91F871082a23BBbaBeDfCf",
      "gasPrice": {
        "_hex": "0x1078af7d28d"
      },
      "gasLimit": {
        "_hex": "0x5208"
      },
      "to": "0x4c74B6F32c9680aCB5Fe0e72B7Aa95C612540A04",
      "value": {
        "_hex": "0x56bc75e2d63100000"
      },
      "nonce": 7,
      "data": "0x",
      "r": "0x4284d9e2925f7edb51a79b5219109395e9d6d07a1b773e80cc42a449c024f710",
      "s": "0x21d53bca7d885676aabd9df071a1f0b5b670ba76d8df5458d02ff0ee0272bb43",
      "v": 28,
      "creates": null,
      "raw": "0xf86e078601078af7d28d825208944c74b6f32c9680acb5fe0e72b7aa95c612540a0489056bc75e2d63100000801ca04284d9e2925f7edb51a79b5219109395e9d6d07a1b773e80cc42a449c024f710a021d53bca7d885676aabd9df071a1f0b5b670ba76d8df5458d02ff0ee0272bb43",
      "networkId": 0,
      "chainId": 0
    }
  ]
}