{
  "hash": "0x0e9071d717cb5fa377f38e4571d4480c87a8bc5359d1e362bd1516d9de56d498",
  "parentHash": "0x3a2c6426b3d563aa6a5e8c326e5e2d902a86f94cd92b6a7219d3487e11add74f",
  "number": 71086,
  "timestamp": 1439330439,
  "nonce": "0xb55c982c6dd69860",
  "difficulty": 2149853846921,
  "gasLimit": {
    "_hex": "0x2fefd8"
  },
  "gasUsed": {
    "_hex": "0x5208"
  },
  "miner": "0x79d5794171E11dd5C2f0e26E1C187319db2FE6f7",
  "extraData": "0x",
  "transactions": [
    {
      "hash": "0x98c10e4b4aaf1500eafb48f41774d953de0a219d8cf13337772ea183357cc0e2",
      "blockHash": "0x0e9071d717cb5fa377f38e4571d4480c87a8bc5359d1e362bd1516d9de56d498",
      "blockNumber": 71086,
      "transactionIndex": 0,
      "confirmations": null,
      "from": "0xC332dF50b13C013490A5d7C75DBFA366Da87b6d6",
      "gasPrice": {
        "_hex": "0xd69b48315"
      },
      "gasLimit": {
        "_hex": "0x5208"
      },
      "to": "0x42098C814e1a9a72F466bd0CF1bf3B33249d7668",
      "value": {
        "_hex": "0x30cb659510d91a0000"
      },
      "nonce": 1,
      "data": "0x",
      "r": "0xb3b80161e40c65554ef319f959f0df1939360941016ce9d1e2451b382be94bec",
      "s": "0x439f5a63a40dfb460997d08b698bf8d3d82ce46fb5c1d932d58166ae24ae5db5",
      "v": 28,
      "creates": null,
      "raw": "0xf86d01850d69b483158252089442098c814e1a9a72f466bd0cf1bf3b33249d76688930cb659510d91a0000801ca0b3b80161e40c65554ef319f959f0df1939360941016ce9d1e2451b382be94beca0439f5a63a40dfb460997d08b698bf8d3d82ce46fb5c1d932d58166ae24ae5db5",
      "networkId": 0,
      "chainId": 0
    }
  ]
}