{
  "hash": "0xbc46129b7440f24af7c97a099c82e35d5f2e47dee9eccd8ab5011c9ffc1d69c7",
  "parentHash": "0x96c5952def6267416513dec6fef24e8344769660f1eaf4ab54ea271382baeb3a",
  "number": 95403,
  "timestamp": 1439723692,
  "nonce": "0x3a9486c386b38e50",
  "difficulty": 3570676221324,
  "gasLimit": {
    "_hex": "0x2fefd8"
  },
  "gasUsed": {
    "_hex": "0xe835"
  },
  "miner": "0x88D74a59454F6cF3B51ef6b9136AFb6b9D405A88",
  "extraData": "0x476574682f76312e302e312d37666266393930632f6c696e75782f676f312e34",
  "transactions": [
    {
      "hash": "0x5ebddfd410c9b64773854bc7da61c78f3d2c6a23c425a34ccc47a82ea269e404",
      "blockHash": "0xbc46129b7440f24af7c97a099c82e35d5f2e47dee9eccd8ab5011c9ffc1d69c7",
      "blockNumber": 95403,
      "transactionIndex": 0,
      "confirmations": null,
      "from": "0xc469E0161968f12A38E4c1A1c153a18207e040c8",
      "gasPrice": {
        "_hex": "0xd16ec9339"
      },
      "gasLimit": {
        "_hex": "0x3d090"
      },
      "to": "0x4d6387f3B967dA39B11DE111158D49754C31985d",
      "value": {
        "_hex": "0x0"
      },
      "nonce": 3,
      "data": "0xf010264a000000000000000000000000000000000000000000000000000000000000000100000000000000000000000000000000000000000000000000000000000000a0000000000000000000000000000000000000000000000000016345785d8a0000000000000000000000000000c469e0161968f12a38e4c1a1c153a18207e040c8000000000000000000000000a63a4acf7fae2780a8316f0484934e54cb74d97900000000000000000000000000000000000000000000000000000000000000223137326142713267314b38327174626745755876384b634433424535313462583772000000000000000000000000000000000000000000000000000000000000",
      "r": "0x164e66491c7250f57b3ad3021c0a22870025507011d389aac83e0af786f9ae3b",
      "s": "0x2f8c2906b6c12676b1444e04f8d8d85fe273abfba08bb787ad1c10d2d2fc9725",
      "v": 28,
      "creates": null,
      "raw": "0xf9016b03850d16ec93398303d090944d6387f3b967da39b11de111158d49754c31985d80b90104f010264a000000000000000000000000000000000000000000000000000000000000000100000000000000000000000000000000000000000000000000000000000000a0000000000000000000000000000000000000000000000000016345785d8a0000000000000000000000000000c469e0161968f12a38e4c1a1c153a18207e040c8000000000000000000000000a63a4acf7fae2780a8316f0484934e54cb74d97900000000000000000000000000000000000000000000000000000000000000223137326142713267314b38327174626745755876384b6344334245353134625837720000000000000000000000000000000000000000000000000000000000001ca0164e66491c7250f57b3ad3021c0a22870025507011d389aac83e0af786f9ae3ba02f8c2906b6c12676b1444e04f8d8d85fe273abfba08bb787ad1c10d2d2fc9725",
      "networkId": 0,
      "chainId": 0
    }
  ]
}