{
  "hash": "0x376207ec7a9d5125ed3afde57933ba11c42c01524a1c7621a56edc3ba3332839",
  "parentHash": "0x55738fa9754a28903eb1aeafa566457859f2d8cc89206303de868f18ee473dbe",
  "number": 107525,
  "timestamp": 1439923919,
  "nonce": "0xf378258313f23dc1",
  "difficulty": 4428703300849,
  "gasLimit": {
    "_hex": "0x2fefd8"
  },
  "gasUsed": {
    "_hex": "0x5208"
  },
  "miner": "0x580992B51e3925e23280EfB93d3047C82f17E038",
  "extraData": "0x476574682f76312e302e312f6c696e75782f676f312e342e32",
  "transactions": [
    {
      "hash": "0xd34c83656341e9347b9d9031b7e775133f02f48c1df51bb6d42827e301d8ddb0",
      "blockHash": "0x376207ec7a9d5125ed3afde57933ba11c42c01524a1c7621a56edc3ba3332839",
      "blockNumber": 107525,
      "transactionIndex": 0,
      "confirmations": null,
      "from": "0x0909648c18A3CE5BAe7A047Ec2F868D24cDdA81D",
      "gasPrice": {
        "_hex": "0xd36e6b4ae"
      },
      "gasLimit": {
        "_hex": "0x15f90"
      },
      "to": "0xBaA949Dbf5dbaE91Bf1cf03fC3bD9E30d0237Fd6",
      "value": {
        "_hex": "0x2386f26fc10000"
      },
      "nonce": 1,
      "data": "0x",
      "r": "0xa1c8ccead1f76c8c1a8cdb9894f9e236a361282521082deacba8679e4fbbfa07",
      "s": "0x47eb81e0f4ea2c0b92d85b322c2949776ed5e016b7393c3edba0a237a251ebe0",
      "v": 27,
      "creates": null,
      "raw": "0xf86c01850d36e6b4ae83015f9094baa949dbf5dbae91bf1cf03fc3bd9e30d0237fd6872386f26fc10000801ba0a1c8ccead1f76c8c1a8cdb9894f9e236a361282521082deacba8679e4fbbfa07a047eb81e0f4ea2c0b92d85b322c2949776ed5e016b7393c3edba0a237a251ebe0",
      "networkId": 0,
      "chainId": 0
    }
  ]
}