{
  "hash": "0x518d358b58cd57c44feb5c3683868cd03d328f78332a18cd6faa8bad72921106",
  "parentHash": "0x22ce2e74e93f08362672920343a0f1a9d7719b4bf58ae4f975363d246eef1b12",
  "number": 59313,
  "timestamp": 1439136045,
  "nonce": "0xe09af7311476e902",
  "difficulty": 1703894606008,
  "gasLimit": {
    "_hex": "0x2fefd8"
  },
  "gasUsed": {
    "_hex": "0x5208"
  },
  "miner": "0x88D74a59454F6cF3B51ef6b9136AFb6b9D405A88",
  "extraData": "0x476574682f76312e302e312d38326566323666362f6c696e75782f676f312e34",
  "transactions": [
    {
      "hash": "0x8d9ad40d3f9bdc7bebdbf4e7934ce4b1d6a54818a486c69d95ed0f14d9b49af5",
      "blockHash": "0x518d358b58cd57c44feb5c3683868cd03d328f78332a18cd6faa8bad72921106",
      "blockNumber": 59313,
      "transactionIndex": 0,
      "confirmations": null,
      "from": "0xBFdD9820a04283b289957956353b5F3C1F665EcF",
      "gasPrice": {
        "_hex": "0xd89609ac6"
      },
      "gasLimit": {
        "_hex": "0x5208"
      },
      "to": "0x32Be343B94f860124dC4fEe278FDCBD38C102D88",
      "value": {
        "_hex": "0x21d377ef09549e000"
      },
      "nonce": 6,
      "data": "0x",
      "r": "0x285f791818bfcc84b93a8c8b99fc1e2c9f96be20d4f51cf80cb153d2e8d928d9",
      "s": "0x465503e9c2c670c8c07af06b4965875636a367642fa534802f703c7675d2ca54",
      "v": 28,
      "creates": null,
      "raw": "0xf86d06850d89609ac68252089432be343b94f860124dc4fee278fdcbd38c102d8889021d377ef09549e000801ca0285f791818bfcc84b93a8c8b99fc1e2c9f96be20d4f51cf80cb153d2e8d928d9a0465503e9c2c670c8c07af06b4965875636a367642fa534802f703c7675d2ca54",
      "networkId": 0,
      "chainId": 0
    }
  ]
}