{
  "hash": "0x6760f3eb5d906418d1b97f7c9baa5a3fc8520f6054120c2b0e435457b123429d",
  "parentHash": "0x4cf0847a3c640b34bd1e28c7cbb4dd93c563ce09065f0786548382f66354a655",
  "number": 99157,
  "timestamp": 1439785363,
  "nonce": "0x7c637f32302a10ff",
  "difficulty": 3806692165385,
  "gasLimit": {
    "_hex": "0x2fefd8"
  },
  "gasUsed": {
    "_hex": "0xf618"
  },
  "miner": "0x580992B51e3925e23280EfB93d3047C82f17E038",
  "extraData": "0x476574682f76312e302e312f6c696e75782f676f312e342e32",
  "transactions": [
    {
      "hash": "0x3484a07262e7b387d1b3d987dd00983daf5b930d711ba7870cb10525a919e4ce",
      "blockHash": "0x6760f3eb5d906418d1b97f7c9baa5a3fc8520f6054120c2b0e435457b123429d",
      "blockNumber": 99157,
      "transactionIndex": 0,
      "confirmations": null,
      "from": "0x2be0891637A46bd64D778d489c9B277c0Cb624eB",
      "gasPrice": {
        "_hex": "0xdb27e46d6"
      },
      "gasLimit": {
        "_hex": "0x5208"
      },
      "to": "0x32Be343B94f860124dC4fEe278FDCBD38C102D88",
      "value": {
        "_hex": "0xf0bf2b4b804fb00000"
      },
      "nonce": 2,
      "data": "0x",
      "r": "0xb41b02e73a197dc62a9df0251d64cb3c2b9c3f9d7b523cdbf3357732fd13617e",
      "s": "0x6c4bafa2579200f6ab3b0798c316dda5189d5a994af0d34640abae3bf0e99ab4",
      "v": 28,
      "creates": null,
      "raw": "0xf86d02850db27e46d68252089432be343b94f860124dc4fee278fdcbd38c102d8889f0bf2b4b804fb00000801ca0b41b02e73a197dc62a9df0251d64cb3c2b9c3f9d7b523cdbf3357732fd13617ea06c4bafa2579200f6ab3b0798c316dda5189d5a994af0d34640abae3bf0e99ab4",
      "networkId": 0,
      "chainId": 0
    },
    {
      "hash": "0x510ae2943acca756bcbda465b3e52e8fae5b6787f69f421a8f7c0ad5e5cff2ab",
      "blockHash": "0x6760f3eb5d906418d1b97f7c9baa5a3fc8520f6054120c2b0e435457b123429d",
      "blockNumber": 99157,
      "transactionIndex": 1,
      "confirmations": null,
      "from": "0x1904b93787C5bdd897C2362b2879b84AC3D80f57",
      "gasPrice": {
        "_hex": "0xdb27e46d6"
      },
      "gasLimit": {
        "_hex": "0x5208"
      },
      "to": "0x32Be343B94f860124dC4fEe278FDCBD38C102D88",
      "value": {
        "_hex": "0x36b885122d1314000"
      },
      "nonce": 1,
      "data": "0x",
      "r": "0x8a138cbecf6e30cb7e51730c7ee4fc85b956270c2cd9002a5df05f6a723bb4eb",
      "s": "0x3d5e60fca4da61ba8b48ae440a3f653ee805ab5c3435aee73e53f114d53b548b",
      "v": 28,
      "creates": null,
      "raw": "0xf86d01850db27e46d68252089432be343b94f860124dc4fee278fdcbd38c102d8889036b885122d1314000801ca08a138cbecf6e30cb7e51730c7ee4fc85b956270c2cd9002a5df05f6a723bb4eba03d5e60fca4da61ba8b48ae440a3f653ee805ab5c3435aee73e53f114d53b548b",
      "networkId": 0,
      "chainId": 0
    },
    {
      "hash": "0x76779b98e5b6f9e50b6ab0264bfd7d76ac951bb0484e24428ef9dbbec4f0872b",
      "blockHash": "0x6760f3eb5d906418d1b97f7c9baa5a3fc8520f6054120c2b0e435457b123429d",
      "blockNumber": 99157,
      "transactionIndex": 2,
      "confirmations": null,
      "from": "0x4D67f4F0Db45b3B5a3424B39ed8d972F710381D5",
      "gasPrice": {
        "_hex": "0xdb27e46d6"
      },
      "gasLimit": {
        "_hex": "0x5208"
      },
      "to": "0x32Be343B94f860124dC4fEe278FDCBD38C102D88",
      "value": {
        "_hex": "0x8c40569ad86768000"
      },
      "nonce": 18,
      "data": "0x",
      "r": "0x6d94502656e9ba80c0f8ecddd532a487bb4411ae534f178cc32afbffc9d671ae",
      "s": "0x0ed48be685057f19001e57471c9bf0f30ee27dc04306bc5ed00561ee03fa12b6",
      "v": 28,
      "creates": null,
      "raw": "0xf86d12850db27e46d68252089432be343b94f860124dc4fee278fdcbd38c102d888908c40569ad86768000801ca06d94502656e9ba80c0f8ecddd532a487bb4411ae534f178cc32afbffc9d671aea00ed48be685057f19001e57471c9bf0f30ee27dc04306bc5ed00561ee03fa12b6",
      "networkId": 0,
      "chainId": 0
    }
  ]
}