{
  "hash": "0x497b1ae7fd85035e245e0c233d93f20112339b68804c60e6723f04c04f41005d",
  "parentHash": "0x4957355a081022b2b8520425e2c3054b35e5778ec795736c58e0810cdee21e85",
  "number": 97863,
  "timestamp": 1439763143,
  "nonce": "0x46b62320b56d250e",
  "difficulty": 3844642022662,
  "gasLimit": {
    "_hex": "0x2fefd8"
  },
  "gasUsed": {
    "_hex": "0x5208"
  },
  "miner": "0x157c6f2431eB1a95797EE86F7d17b3c0FD47A247",
  "extraData": "0x476574682f76312e302e312f77696e646f77732f676f312e342e32",
  "transactions": [
    {
      "hash": "0x77292027b1a0c84cfccfd29303fa6514579993d1ceff326817325eda765baf62",
      "blockHash": "0x497b1ae7fd85035e245e0c233d93f20112339b68804c60e6723f04c04f41005d",
      "blockNumber": 97863,
      "transactionIndex": 0,
      "confirmations": null,
      "from": "0x458F183347F45a4001807728A89F31E9Da9D4A58",
      "gasPrice": {
        "_hex": "0xe00bc3e81"
      },
      "gasLimit": {
        "_hex": "0x15f90"
      },
      "to": "0x7fa165177F28D171bA7C17f765c1904344Ec64CB",
      "value": {
        "_hex": "0x1969e82c30ef20000"
      },
      "nonce": 37,
      "data": "0x",
      "r": "0x5e89a8836749df60cbe87eaec9a9181f8af49b3fdde4e00cb3a3a19d7f86cb5e",
      "s": "0x4fe2c2bee2e5c658032d59196bc2a0a0b01763bd711e20af132fbe31edf74a32",
      "v": 28,
      "creates": null,
      "raw": "0xf86e25850e00bc3e8183015f90947fa165177f28d171ba7c17f765c1904344ec64cb8901969e82c30ef20000801ca05e89a8836749df60cbe87eaec9a9181f8af49b3fdde4e00cb3a3a19d7f86cb5ea04fe2c2bee2e5c658032d59196bc2a0a0b01763bd711e20af132fbe31edf74a32",
      "networkId": 0,
      "chainId": 0
    }
  ]
}