{
  "hash": "0x3744775c0139d0938347c1e7f8a056ecee8c7a1d20ce4842e91dce261d802346",
  "parentHash": "0x50c7ab553239c4d146317dd292279c19ac7c31bdcbfb8dbd5cfbacb3da9554e6",
  "number": 55589,
  "timestamp": 1439073367,
  "nonce": "0x93f2a9178702465f",
  "difficulty": 1618666552276,
  "gasLimit": {
    "_hex": "0x2fefd8"
  },
  "gasUsed": {
    "_hex": "0x5208"
  },
  "miner": "0x9746c7e1ef2bd21FF3997fa467593a89cb852BD0",
  "extraData": "0x476574682f76312e302e312f77696e646f77732f676f312e342e32",
  "transactions": [
    {
      "hash": "0x42e4d796d24401b8545ad38efba4b4535e5c6a4e564cb4593766c46e56e9dbcd",
      "blockHash": "0x3744775c0139d0938347c1e7f8a056ecee8c7a1d20ce4842e91dce261d802346",
      "blockNumber": 55589,
      "transactionIndex": 0,
      "confirmations": null,
      "from": "0x65fdeb3Af336392404436bB824E9DCbAaDdef54D",
      "gasPrice": {
        "_hex": "0xd49156c1e"
      },
      "gasLimit": {
        "_hex": "0x5208"
      },
      "to": "0x32Be343B94f860124dC4fEe278FDCBD38C102D88",
      "value": {
        "_hex": "0x3635c56bf190e20000"
      },
      "nonce": 1,
      "data": "0x",
      "r": "0x361ff7c927189a0049e80896291a250d1c8039bcba23f565b77819ca6a548657",
      "s": "0x01df522228a4d75b00ba6745a9ea47c08336789e198ebd89146d64e28dcef393",
      "v": 28,
      "creates": null,
      "raw": "0xf86d01850d49156c1e8252089432be343b94f860124dc4fee278fdcbd38c102d88893635c56bf190e20000801ca0361ff7c927189a0049e80896291a250d1c8039bcba23f565b77819ca6a548657a001df522228a4d75b00ba6745a9ea47c08336789e198ebd89146d64e28dcef393",
      "networkId": 0,
      "chainId": 0
    }
  ]
}