{
  "hash": "0x66bd04e0b9f60a67e7e4762730e722716249689c916d145357b5f9c3484eb857",
  "parentHash": "0x2273a4e91967d1c27f60d53237931dab120c66520a3df82c6da7c500cc1ff6ec",
  "number": 88358,
  "timestamp": 1439606928,
  "nonce": "0x53c6d594cd38c9ac",
  "difficulty": 3198733571681,
  "gasLimit": {
    "_hex": "0x2fefd8"
  },
  "gasUsed": {
    "_hex": "0x1f103"
  },
  "miner": "0xfC25864D8326b4CB335C6942218e5F4Ee8D1E1EF",
  "extraData": "0x476574682f76312e302e312f77696e646f77732f676f312e342e32",
  "transactions": [
    {
      "hash": "0xefb75407d33a0d03c0ca150fc7cbf4a76ba8a87d39adaa1f2a5e408978531590",
      "blockHash": "0x66bd04e0b9f60a67e7e4762730e722716249689c916d145357b5f9c3484eb857",
      "blockNumber": 88358,
      "transactionIndex": 0,
      "confirmations": null,
      "from": "0x77b97786B0FB73e55d9E92d4B182beFBF346F979",
      "gasPrice": {
        "_hex": "0xce5f5dd2b"
      },
      "gasLimit": {
        "_hex": "0x2fefd8"
      },
      "to": "0xA236078f02627205B2E3bDeA8dBA2e9D150113D3",
      "value": {
        "_hex": "0x16345785d8a0000"
      },
      "nonce": 14,
      "data": "0x1335ff3600000000000000000000000000000000f003cf4e10a043104ad18ccc64ea51860000000000000000000000000000000000000000000000000000000000000000000000000000000000000000000000000000000000000000000000000000000f0000000000000000000000000000000000000000000000000000000055d380b0000000000000000000000000e37673a8e0aaa536828f0d5b0ddba12fece1115c0000000000000000000000000000000000000000000000000000000000000000000000000000000000000000000000000000000000000000000000000000000000000000000000000000000000000000000000000000000000000000000000000000000000000000000000000000000000000000000000000000000000000000",
      "r": "0x0e66639520de08518c730b3a6c532a594c49ec45593f3bad875920ba2567af04",
      "s": "0x0d9959e5cbd660ce88ab9f401b269fe481a4df8998a740953e242ee6246d9d1e",
      "v": 27,
      "creates": null,
      "raw": "0xf901930e850ce5f5dd2b832fefd894a236078f02627205b2e3bdea8dba2e9d150113d388016345785d8a0000b901241335ff3600000000000000000000000000000000f003cf4e10a043104ad18ccc64ea51860000000000000000000000000000000000000000000000000000000000000000000000000000000000000000000000000000000000000000000000000000000f0000000000000000000000000000000000000000000000000000000055d380b0000000000000000000000000e37673a8e0aaa536828f0d5b0ddba12fece1115c00000000000000000000000000000000000000000000000000000000000000000000000000000000000000000000000000000000000000000000000000000000000000000000000000000000000000000000000000000000000000000000000000000000000000000000000000000000000000000000000000000000000000001ba00e66639520de08518c730b3a6c532a594c49ec45593f3bad875920ba2567af04a00d9959e5cbd660ce88ab9f401b269fe481a4df8998a740953e242ee6246d9d1e",
      "networkId": 0,
      "chainId": 0
    }
  ]
}