{
  "hash": "0x96115633585a4a36cb6ff3d7f9f3f83aa846879d2f9dda7975dfc81a804668b5",
  "parentHash": "0x248727544d4c9f18e87f49359eda92b00deded39af3085241e132fb47aa8e1e9",
  "number": 84438,
  "timestamp": 1439549624,
  "nonce": "0x836ce7d3411ae347",
  "difficulty": 2566438475587,
  "gasLimit": {
    "_hex": "0x2fefd8"
  },
  "gasUsed": {
    "_hex": "0xa410"
  },
  "miner": "0x580992B51e3925e23280EfB93d3047C82f17E038",
  "extraData": "0x476574682f76312e302e312f6c696e75782f676f312e342e32",
  "transactions": [
    {
      "hash": "0xcf691c9827e887cb13e57b8534e8c58c3fab64ba3bf9de7e88458946535b2b91",
      "blockHash": "0x96115633585a4a36cb6ff3d7f9f3f83aa846879d2f9dda7975dfc81a804668b5",
      "blockNumber": 84438,
      "transactionIndex": 0,
      "confirmations": null,
      "from": "0x120A270bbC009644e35F0bB6ab13f95b8199c4ad",
      "gasPrice": {
        "_hex": "0xd679749c9"
      },
      "gasLimit": {
        "_hex": "0x3d090"
      },
      "to": "0x00B88D679472169CBd35a3d02192Fd24734684b4",
      "value": {
        "_hex": "0x53a8aafc04d5a6400"
      },
      "nonce": 428,
      "data": "0x",
      "r": "0x8254260c4d2d2a858a2738108218584c0234080ee46cea7fc0497a639092fbd3",
      "s": "0x78a056fe5c0c5196b7c650e7d53e8041a4a196e8d0a6120c074d14760ce4921d",
      "v": 27,
      "creates": null,
      "raw": "0xf8708201ac850d679749c98303d0909400b88d679472169cbd35a3d02192fd24734684b489053a8aafc04d5a6400801ba08254260c4d2d2a858a2738108218584c0234080ee46cea7fc0497a639092fbd3a078a056fe5c0c5196b7c650e7d53e8041a4a196e8d0a6120c074d14760ce4921d",
      "networkId": 0,
      "chainId": 0
    },
    {
      "hash": "0xf0b1a4a35f7640d3cebd29b2813b3dff5b686e498d7060846ad4564dae6cd675",
      "blockHash": "0x96115633585a4a36cb6ff3d7f9f3f83aa846879d2f9dda7975dfc81a804668b5",
      "blockNumber": 84438,
      "transactionIndex": 1,
      "confirmations": null,
      "from": "0x1406854D149E081aC09Cb4CA560Da463f3123059",
      "gasPrice": {
        "_hex": "0xd04b2ca63"
      },
      "gasLimit": {
        "_hex": "0x7a120"
      },
      "to": "0xa0E74ae010D51894734c308D612131056bB721AD",
      "value": {
        "_hex": "0x1043561a8829300000"
      },
      "nonce": 20,
      "data": "0x",
      "r": "0xb0f3961134496ddd338f4d3b8371fec3b67fcb6cbef7dbd83e362bd0c92323b6",
      "s": "0x2c50c581b4aa53c22333fece097ea5050edf79ab4a01fd2777d6dbc3f1f583a9",
      "v": 28,
      "creates": null,
      "raw": "0xf86e14850d04b2ca638307a12094a0e74ae010d51894734c308d612131056bb721ad891043561a8829300000801ca0b0f3961134496ddd338f4d3b8371fec3b67fcb6cbef7dbd83e362bd0c92323b6a02c50c581b4aa53c22333fece097ea5050edf79ab4a01fd2777d6dbc3f1f583a9",
      "networkId": 0,
      "chainId": 0
    }
  ]
}