{
  "hash": "0xe75f1d2dd7bcb885bc6271c48b85411ab9d76dd0aed02044c13ea6c85bf1f485",
  "parentHash": "0xf923d4c0ef71eda63674be24eb92effa7fb0da4837eb93a60546542789bf4fb0",
  "number": 95629,
  "timestamp": 1439726963,
  "nonce": "0xff1d7223fa8f02fd",
  "difficulty": 3609142619606,
  "gasLimit": {
    "_hex": "0x2fefd8"
  },
  "gasUsed": {
    "_hex": "0xa410"
  },
  "miner": "0xe6A7a1d47ff21B6321162AEA7C6CB457D5476Bca",
  "extraData": "0x476574682f76312e302e312d38326566323666362f6c696e75782f676f312e34",
  "transactions": [
    {
      "hash": "0x1b68a15979b0876ca42b85f3435623e457cf0c5a627c4ff2dd4dabcaec3b9e89",
      "blockHash": "0xe75f1d2dd7bcb885bc6271c48b85411ab9d76dd0aed02044c13ea6c85bf1f485",
      "blockNumber": 95629,
      "transactionIndex": 0,
      "confirmations": null,
      "from": "0x32Be343B94f860124dC4fEe278FDCBD38C102D88",
      "gasPrice": {
        "_hex": "0xd9f4e032e"
      },
      "gasLimit": {
        "_hex": "0x5208"
      },
      "to": "0xAB14d221E33D544629198cd096ED63dfa28D9F47",
      "value": {
        "_hex": "0x2f75032650c15e0000"
      },
      "nonce": 985,
      "data": "0x",
      "r": "0xb97b744c2c2f00e92ec55b25a6b4bf6ff5c4de2d7ecf630da67c34193cb9634a",
      "s": "0x7134641b5f1938ca3ef2722ff80f80752c669a885e304a581b7a43927ff560bc",
      "v": 27,
      "creates": null,
      "raw": "0xf86f8203d9850d9f4e032e82520894ab14d221e33d544629198cd096ed63dfa28d9f47892f75032650c15e0000801ba0b97b744c2c2f00e92ec55b25a6b4bf6ff5c4de2d7ecf630da67c34193cb9634aa07134641b5f1938ca3ef2722ff80f80752c669a885e304a581b7a43927ff560bc",
      "networkId": 0,
      "chainId": 0
    },
    {
      "hash": "0xe9906301330e8a3edaed83d06cf8cab1b5ffc5ec6899c4d87bcc1f6d9162844b",
      "blockHash": "0xe75f1d2dd7bcb885bc6271c48b85411ab9d76dd0aed02044c13ea6c85bf1f485",
      "blockNumber": 95629,
      "transactionIndex": 1,
      "confirmations": null,
      "from": "0x63738Ec4C9adec404749B5747F3bbE2147de632F",
      "gasPrice": {
        "_hex": "0xcfcc237c8"
      },
      "gasLimit": {
        "_hex": "0x15f90"
      },
      "to": "0x557C2806B6ceA65a66F415bb2Ed1ce897B340745",
      "value": {
        "_hex": "0x7ce66c50e2840000"
      },
      "nonce": 22,
      "data": "0x",
      "r": "0x9e9e666400c71edc1ce80f03a13928bfba048e5ab8ab8db52b95d26167bbf65f",
      "s": "0x332785038fff579b977b11b8bfb54cba587b2faf20794613f784f8ed23f4d15c",
      "v": 27,
      "creates": null,
      "raw": "0xf86d16850cfcc237c883015f9094557c2806b6cea65a66f415bb2ed1ce897b340745887ce66c50e2840000801ba09e9e666400c71edc1ce80f03a13928bfba048e5ab8ab8db52b95d26167bbf65fa0332785038fff579b977b11b8bfb54cba587b2faf20794613f784f8ed23f4d15c",
      "networkId": 0,
      "chainId": 0
    }
  ]
}