{
  "hash": "0x59d696354ebd589be6f68a5ad6dbe4f1e8d23e8fbe5b6a0c00b0f18319092378",
  "parentHash": "0x6e4b42ccbe4dd22c5ec5b4523a1297dd59c0579ff1c2c8337442b45a9c43829b",
  "number": 66561,
  "timestamp": 1439256668,
  "nonce": "0xa63d60f5ac96b41b",
  "difficulty": 1940434528677,
  "gasLimit": {
    "_hex": "0x2fefd8"
  },
  "gasUsed": {
    "_hex": "0x546c"
  },
  "miner": "0xf927a40C8B7F6E07c5af7FA2155B4864a4112B13",
  "extraData": "0x",
  "transactions": [
    {
      "hash": "0xef2aaa7d698272a048f4c84a5378057bb7b3ad9cfa039816c4b2b34689013a79",
      "blockHash": "0x59d696354ebd589be6f68a5ad6dbe4f1e8d23e8fbe5b6a0c00b0f18319092378",
      "blockNumber": 66561,
      "transactionIndex": 0,
      "confirmations": null,
      "from": "0x0151FA5d17a2dcE2D7F1eB39EF7fe2aD213D5d89",
      "gasPrice": {
        "_hex": "0x110c8f7d8de"
      },
      "gasLimit": {
        "_hex": "0xc350"
      },
      "to": "0x2910543Af39abA0Cd09dBb2D50200b3E800A63D2",
      "value": {
        "_hex": "0x6c6a3016135fb60000"
      },
      "nonce": 1,
      "data": "0x454e444e5732324147",
      "r": "0xea39fefb1a79504346f6c0ab77b2db254a754eb8365bdd669e9f7ea6031c902f",
      "s": "0x32a3a671b6dc88a2d10c182e4f9c1512565127d3c1e200c7c529de76418b23b3",
      "v": 28,
      "creates": null,
      "raw": "0xf87701860110c8f7d8de82c350942910543af39aba0cd09dbb2d50200b3e800a63d2896c6a3016135fb6000089454e444e57323241471ca0ea39fefb1a79504346f6c0ab77b2db254a754eb8365bdd669e9f7ea6031c902fa032a3a671b6dc88a2d10c182e4f9c1512565127d3c1e200c7c529de76418b23b3",
      "networkId": 0,
      "chainId": 0
    }
  ]
}