{
  "hash": "0x52bf8c8d752e2b41bb51cc0613f09ee5161a01a86ca755245aa5628307d84287",
  "parentHash": "0x4f6f7bd22f6c97489bb591f32d54f8b7655a88f15dc91d9fc2d366e861c1f09e",
  "number": 113647,
  "timestamp": 1440027191,
  "nonce": "0x7e2c8da189cde11e",
  "difficulty": 4447134010579,
  "gasLimit": {
    "_hex": "0x2fefd5"
  },
  "gasUsed": {
    "_hex": "0x5208"
  },
  "miner": "0xf927a40C8B7F6E07c5af7FA2155B4864a4112B13",
  "extraData": "0x",
  "transactions": [
    {
      "hash": "0x4241c1260f04bbd31edf60e26b5d063a87a53675f7d7211165f10378dde25a81",
      "blockHash": "0x52bf8c8d752e2b41bb51cc0613f09ee5161a01a86ca755245aa5628307d84287",
      "blockNumber": 113647,
      "transactionIndex": 0,
      "confirmations": null,
      "from": "0xa16E760E170A19a36e1b42357a1e6A1A206B9F39",
      "gasPrice": {
        "_hex": "0xe0b5115b7"
      },
      "gasLimit": {
        "_hex": "0x15f90"
      },
      "to": "0x1151790FE5F7C3113dfb07Dc3914B1916EcC8a7A",
      "value": {
        "_hex": "0x13a31700c52d8000"
      },
      "nonce": 6,
      "data": "0x",
      "r": "0x7fb8b817bd8fccf477885afa89357823ab091137d79e0fb65c86c6659438654d",
      "s": "0x6307b26737a2c893091f94b6da9a1ad896a778cdb4bf1d8cbbcba524c12826e5",
      "v": 27,
      "creates": null,
      "raw": "0xf86d06850e0b5115b783015f90941151790fe5f7c3113dfb07dc3914b1916ecc8a7a8813a31700c52d8000801ba07fb8b817bd8fccf477885afa89357823ab091137d79e0fb65c86c6659438654da06307b26737a2c893091f94b6da9a1ad896a778cdb4bf1d8cbbcba524c12826e5",
      "networkId": 0,
      "chainId": 0
    }
  ]
}