{
  "hash": "0x19cde561835437e088c3b8b092c6c11eca826b8fb046d060682f0dd0cdb18a9a",
  "parentHash": "0x18517fe1a4a79cd8d1cd46234de4a90d5ff17d7a933d6c69c1e5b6b9c1b62f33",
  "number": 87864,
  "timestamp": 1439598712,
  "nonce": "0xd2f005d99135d7f6",
  "difficulty": 3186450532954,
  "gasLimit": {
    "_hex": "0x2fefd8"
  },
  "gasUsed": {
    "_hex": "0xf87c"
  },
  "miner": "0xe6A7a1d47ff21B6321162AEA7C6CB457D5476Bca",
  "extraData": "0x476574682f76312e302e312d38326566323666362f6c696e75782f676f312e34",
  "transactions": [
    {
      "hash": "0xdde871476f70854e1f27d0aa3034ae7f793704e06115967078d4bafc3e22c189",
      "blockHash": "0x19cde561835437e088c3b8b092c6c11eca826b8fb046d060682f0dd0cdb18a9a",
      "blockNumber": 87864,
      "transactionIndex": 0,
      "confirmations": null,
      "from": "0x34d34F0a638F6991e4E2536F41295DF6E934A646",
      "gasPrice": {
        "_hex": "0xdcbc8f863"
      },
      "gasLimit": {
        "_hex": "0x5208"
      },
      "to": "0x32Be343B94f860124dC4fEe278FDCBD38C102D88",
      "value": {
        "_hex": "0x455f2f701e8dec00"
      },
      "nonce": 11,
      "data": "0x",
      "r": "0xfcc94432c28d8eb8390b9f4eedd59da2f07861e8bc1d7e5af64eb987e7cb65c1",
      "s": "0x677ce5e301b00b17d8e0c5a99a1055a8c09d2003fe2eac7112671c5a53164274",
      "v": 27,
      "creates": null,
      "raw": "0xf86c0b850dcbc8f8638252089432be343b94f860124dc4fee278fdcbd38c102d8888455f2f701e8dec00801ba0fcc94432c28d8eb8390b9f4eedd59da2f07861e8bc1d7e5af64eb987e7cb65c1a0677ce5e301b00b17d8e0c5a99a1055a8c09d2003fe2eac7112671c5a53164274",
      "networkId": 0,
      "chainId": 0
    },
    {
      "hash": "0x2f364d5a121e84a938aa3169fbb3404dde136948fcae7bac2cc0bc6610bfb9e5",
      "blockHash": "0x19cde561835437e088c3b8b092c6c11eca826b8fb046d060682f0dd0cdb18a9a",
      "blockNumber": 87864,
      "transactionIndex": 1,
      "confirmations": null,
      "from": "0x32Be343B94f860124dC4fEe278FDCBD38C102D88",
      "gasPrice": {
        "_hex": "0xdcbc8f863"
      },
      "gasLimit": {
        "_hex": "0x5208"
      },
      "to": "0xd2922F94cf946a2DE0c0F7e3d3560D2DCb1C2931",
      "value": {
        "_hex": "0x8aa39c121a270000"
      },
      "nonce": 805,
      "data": "0x",
      "r": "0x1a3d7b4cc147a04b716c5c8a80f32f0ea720b15e1c71acb61a51876fac38e25a",
      "s": "0x31f39b333517a8f39d3a31c69a28f375386c8b202a762d8df6d9c7441f7a2570",
      "v": 28,
      "creates": null,
      "raw": "0xf86e820325850dcbc8f86382520894d2922f94cf946a2de0c0f7e3d3560d2dcb1c2931888aa39c121a270000801ca01a3d7b4cc147a04b716c5c8a80f32f0ea720b15e1c71acb61a51876fac38e25aa031f39b333517a8f39d3a31c69a28f375386c8b202a762d8df6d9c7441f7a2570",
      "networkId": 0,
      "chainId": 0
    },
    {
      "hash": "0x062f79dd53a2603c7dbb9898cd26b0b857be5c3279d08f85fe43acf0d7a121d4",
      "blockHash": "0x19cde561835437e088c3b8b092c6c11eca826b8fb046d060682f0dd0cdb18a9a",
      "blockNumber": 87864,
      "transactionIndex": 2,
      "confirmations": null,
      "from": "0x4ad047faE67eF162FE68FedbC27d3B65cAF10C36",
      "gasPrice": {
        "_hex": "0xd7d40ace3"
      },
      "gasLimit": {
        "_hex": "0x55f0"
      },
      "to": "0x2910543Af39abA0Cd09dBb2D50200b3E800A63D2",
      "value": {
        "_hex": "0x8ac7230489e80000"
      },
      "nonce": 0,
      "data": "0x454e4837585a564152",
      "r": "0xfba3cc894cfd641e76db2919bc3eb83a8f3a0d8c16b130587fddbe57f7b9be7a",
      "s": "0x2c6cb5773e6aa7adf61d992f3a7e99542ab2e38ff85c0ae212607b9ab41278e6",
      "v": 28,
      "creates": null,
      "raw": "0xf87580850d7d40ace38255f0942910543af39aba0cd09dbb2d50200b3e800a63d2888ac7230489e8000089454e4837585a5641521ca0fba3cc894cfd641e76db2919bc3eb83a8f3a0d8c16b130587fddbe57f7b9be7aa02c6cb5773e6aa7adf61d992f3a7e99542ab2e38ff85c0ae212607b9ab41278e6",
      "networkId": 0,
      "chainId": 0
    }
  ]
}