{
  "hash": "0x953ba1820536f06462b9b411a41551be72b9cfcde5e82e2567331b25de023aa2",
  "parentHash": "0x9c08ca950599605e09b94695914b6bdc111601207fa712d79547e65ad93db8f1",
  "number": 61236,
  "timestamp": 1439169220,
  "nonce": "0xf5cc55b46fec532a",
  "difficulty": 1722743030545,
  "gasLimit": {
    "_hex": "0x2fefd8"
  },
  "gasUsed": {
    "_hex": "0x5208"
  },
  "miner": "0xbb7B8287f3F0a933474a79eAe42CBCa977791171",
  "extraData": "0x476574682f4c5649562f76312e302e312f6c696e75782f676f312e342e32",
  "transactions": [
    {
      "hash": "0xc052977336c342a63720b235217a255b143f05dd55f882f10344c127e3fc45a4",
      "blockHash": "0x953ba1820536f06462b9b411a41551be72b9cfcde5e82e2567331b25de023aa2",
      "blockNumber": 61236,
      "transactionIndex": 0,
      "confirmations": null,
      "from": "0x00818287ff6BA78A461D21bD5832891592dc6C6B",
      "gasPrice": {
        "_hex": "0x14f46b0400"
      },
      "gasLimit": {
        "_hex": "0x15f90"
      },
      "to": "0x6bc48997aB00042E0C16e96Cf1fF806034D54874",
      "value": {
        "_hex": "0x37f48aa33660000"
      },
      "nonce": 2,
      "data": "0x",
      "r": "0x734b413aa3b68c6f715db1d6c9be5bc520701ad7b6a0b2f28a9f23ad7e2c9d25",
      "s": "0x392350661cda291a459c932a89289c5d2e7c0ae261af60f64d6855d4dbd52c85",
      "v": 27,
      "creates": null,
      "raw": "0xf86d028514f46b040083015f90946bc48997ab00042e0c16e96cf1ff806034d5487488037f48aa33660000801ba0734b413aa3b68c6f715db1d6c9be5bc520701ad7b6a0b2f28a9f23ad7e2c9d25a0392350661cda291a459c932a89289c5d2e7c0ae261af60f64d6855d4dbd52c85",
      "networkId": 0,
      "chainId": 0
    }
  ]
}