{
  "hash": "0x7088c7591ca82d78202b4e838c2710565fb69b3e8deb27adbd1a5a85256b5bf3",
  "parentHash": "0xa00e010b8a84d488c6cbfa1dcaa71b6134c64e774f03c95fbb1cd7703ed7dfef",
  "number": 59343,
  "timestamp": 1439136544,
  "nonce": "0x29339473e213722e",
  "difficulty": 1703888512419,
  "gasLimit": {
    "_hex": "0x2fefd8"
  },
  "gasUsed": {
    "_hex": "0x5208"
  },
  "miner": "0x88D74a59454F6cF3B51ef6b9136AFb6b9D405A88",
  "extraData": "0x476574682f76312e302e312d37666266393930632f6c696e75782f676f312e34",
  "transactions": [
    {
      "hash": "0xa74c51a423251411d26a2805b1c8bb29067c2c0690c7782f39e6f8087ae17ab7",
      "blockHash": "0x7088c7591ca82d78202b4e838c2710565fb69b3e8deb27adbd1a5a85256b5bf3",
      "blockNumber": 59343,
      "transactionIndex": 0,
      "confirmations": null,
      "from": "0x0b05F904e70ccC93c9a94452F71414Ed9c609f49",
      "gasPrice": {
        "_hex": "0xcbc8113fe"
      },
      "gasLimit": {
        "_hex": "0x15f90"
      },
      "to": "0xeC210EC3715d5918B37CFa4D344a45d177eD849f",
      "value": {
        "_hex": "0x1e5b8fa8fe2ac0000"
      },
      "nonce": 0,
      "data": "0x",
      "r": "0xd5a3d0015dcabb6847dbb90fb3d5323c778595a2b374e08c2c0ba1baabad9025",
      "s": "0x462a5ca78691db0ba2f0dadaed27380db3721b903a4118d2e2b08fd5ad4b255d",
      "v": 28,
      "creates": null,
      "raw": "0xf86e80850cbc8113fe83015f9094ec210ec3715d5918b37cfa4d344a45d177ed849f8901e5b8fa8fe2ac0000801ca0d5a3d0015dcabb6847dbb90fb3d5323c778595a2b374e08c2c0ba1baabad9025a0462a5ca78691db0ba2f0dadaed27380db3721b903a4118d2e2b08fd5ad4b255d",
      "networkId": 0,
      "chainId": 0
    }
  ]
}