{
  "hash": "0x59a07f13a4575a7dc5a4d2b19a84486e7348f50e7358bc7b5d3f87ebfc0e3ed9",
  "parentHash": "0x5022ee49d3034aefd85ab0170b29b9f7d1e4f809540139c16b100b9db8baef03",
  "number": 73820,
  "timestamp": 1439375488,
  "nonce": "0xc5e6891c7e8a2067",
  "difficulty": 2223880479282,
  "gasLimit": {
    "_hex": "0x2fefd8"
  },
  "gasUsed": {
    "_hex": "0x5208"
  },
  "miner": "0xa70a9a7040d542C632D8e0bE7c5513A8a5Bbc752",
  "extraData": "0x",
  "transactions": [
    {
      "hash": "0x9f21c2b802c5355a6b7ce88f9ecd25f03392f5e5511d05df0773a55f1cf09b7b",
      "blockHash": "0x59a07f13a4575a7dc5a4d2b19a84486e7348f50e7358bc7b5d3f87ebfc0e3ed9",
      "blockNumber": 73820,
      "transactionIndex": 0,
      "confirmations": null,
      "from": "0xae48a7cD6c910C912aA01a321e76E7358b573373",
      "gasPrice": {
        "_hex": "0xd17f229db"
      },
      "gasLimit": {
        "_hex": "0x15f90"
      },
      "to": "0xe9f1a9B1F75e46c13b52169e89ddcC156C1Dc0f6",
      "value": {
        "_hex": "0x1b6c2987dc2c0000"
      },
      "nonce": 0,
      "data": "0x",
      "r": "0x193e0b0fa560fd8ab032bf2da8945ec5a30b4b579237455bfdd2e9cd6ccdddca",
      "s": "0x2a43e4ce063fec0553f57e4cbc23583981a0f8539047217f98b7559107a5cfa1",
      "v": 27,
      "creates": null,
      "raw": "0xf86d80850d17f229db83015f9094e9f1a9b1f75e46c13b52169e89ddcc156c1dc0f6881b6c2987dc2c0000801ba0193e0b0fa560fd8ab032bf2da8945ec5a30b4b579237455bfdd2e9cd6ccdddcaa02a43e4ce063fec0553f57e4cbc23583981a0f8539047217f98b7559107a5cfa1",
      "networkId": 0,
      "chainId": 0
    }
  ]
}