{
  "hash": "0x9ba8c367f6eb9c4352a27b043616e13a8c972bf2c026c1c581e673775cf44506",
  "parentHash": "0xe4932475196fd926a936125744011b990d8df62984512f0922d005ff596d6697",
  "number": 85156,
  "timestamp": 1439559260,
  "nonce": "0x9c3f23bd7c05d96a",
  "difficulty": 2745096848638,
  "gasLimit": {
    "_hex": "0x2fefd8"
  },
  "gasUsed": {
    "_hex": "0x9608"
  },
  "miner": "0x790b8a3cE86E707ED0eD32bF89B3269692a23CC1",
  "extraData": "0xd783010001844765746887676f312e342e32856c696e7578",
  "transactions": [
    {
      "hash": "0x85d8658e69753405a80f3f6489aa89d8e5c57ba95993312f1ded5e2ede227f33",
      "blockHash": "0x9ba8c367f6eb9c4352a27b043616e13a8c972bf2c026c1c581e673775cf44506",
      "blockNumber": 85156,
      "transactionIndex": 0,
      "confirmations": null,
      "from": "0xF070bCfeD253b1DDd1989C2Db18B5cD92Df0bDc6",
      "gasPrice": {
        "_hex": "0xd2efede0f"
      },
      "gasLimit": {
        "_hex": "0x15f90"
      },
      "to": "0x1aC89c227CA71a4B44E952bd4c4823Ba6E03C0Ea",
      "value": {
        "_hex": "0x8ac7230489e80000"
      },
      "nonce": 9,
      "data": "0x556e617574686f72697a656420616363657373206f7220757365206f662074686973206163636f756e742069732070726f686962697465642e20416c6c20757365727320657870726573736c7920636f6e73656e7420746f206d6f6e69746f72696e67206f66207468656972206163746976697469657320616e6420756e6465727374616e64207468617420696e666f726d6174696f6e2072656c6174696e6720746f20706f737369626c65206372696d696e616c20636f6e64756374206d61792062652070726f766964656420746f206f6666696369616c7320666f72206469736369706c696e61727920616e642f6f72206c6567616c20616374696f6e2e",
      "r": "0x4dc7ddc1913b856eb30b2c07346a921d8d1b7cdb5b717a33329a82f68dfacd8d",
      "s": "0x4fffeb865a54d05bd96fbf7c0ec7033288f31b1b52b1ff21f95911ec5b5159b3",
      "v": 27,
      "creates": null,
      "raw": "0xf9016f09850d2efede0f83015f90941ac89c227ca71a4b44e952bd4c4823ba6e03c0ea888ac7230489e80000b90100556e617574686f72697a656420616363657373206f7220757365206f662074686973206163636f756e742069732070726f686962697465642e20416c6c20757365727320657870726573736c7920636f6e73656e7420746f206d6f6e69746f72696e67206f66207468656972206163746976697469657320616e6420756e6465727374616e64207468617420696e666f726d6174696f6e2072656c6174696e6720746f20706f737369626c65206372696d696e616c20636f6e64756374206d61792062652070726f766964656420746f206f6666696369616c7320666f72206469736369706c696e61727920616e642f6f72206c6567616c20616374696f6e2e1ba04dc7ddc1913b856eb30b2c07346a921d8d1b7cdb5b717a33329a82f68dfacd8da04fffeb865a54d05bd96fbf7c0ec7033288f31b1b52b1ff21f95911ec5b5159b3",
      "networkId": 0,
      "chainId": 0
    }
  ]
}