{
  "hash": "0xc360da71e76367715ae5f48f97bd5b54bf22799f2f84fe8d5e6e20ceea2b9c08",
  "parentHash": "0x57b73e5dbd24d4724fff55d1989d99d676d462f96e6023c35f4bb70233f0ea9e",
  "number": 90295,
  "timestamp": 1439637773,
  "nonce": "0x9168d2e0fcdb0fe1",
  "difficulty": 3307575597456,
  "gasLimit": {
    "_hex": "0x2fefd8"
  },
  "gasUsed": {
    "_hex": "0x5208"
  },
  "miner": "0x5532A650304265014A873E4399A3487d0296B8CF",
  "extraData": "0x",
  "transactions": [
    {
      "hash": "0x73c7d346a28820811aa638866bc9a56117aeb6fb5217024870c8d3b575b96aae",
      "blockHash": "0xc360da71e76367715ae5f48f97bd5b54bf22799f2f84fe8d5e6e20ceea2b9c08",
      "blockNumber": 90295,
      "transactionIndex": 0,
      "confirmations": null,
      "from": "0xA1623430350C5df1b52B0b57483A5bb45d1796Da",
      "gasPrice": {
        "_hex": "0xdf0207ca5"
      },
      "gasLimit": {
        "_hex": "0x7530"
      },
      "to": "0xf2881e3e520bF84469Fa00a56449D357FB1af54A",
      "value": {
        "_hex": "0x3420e179398fa0000"
      },
      "nonce": 7,
      "data": "0x",
      "r": "0xb24407646100676786bdaea4be717cde7bf78a76b4f8819ad0ac743cc3df9c65",
      "s": "0x4ad06a42b6f94ecf9a2d864019f59b7d092acf9b09debde4d880fa67e2818cce",
      "v": 28,
      "creates": null,
      "raw": "0xf86d07850df0207ca582753094f2881e3e520bf84469fa00a56449d357fb1af54a8903420e179398fa0000801ca0b24407646100676786bdaea4be717cde7bf78a76b4f8819ad0ac743cc3df9c65a04ad06a42b6f94ecf9a2d864019f59b7d092acf9b09debde4d880fa67e2818cce",
      "networkId": 0,
      "chainId": 0
    }
  ]
}