{
  "hash": "0x1c859b03499473781a06da55baa7690fa74752fb032bc8e8eaf0d9d1da686a2a",
  "parentHash": "0xdbd7dbc99142c8d15c9a60762445ddd1e93868e8320cdef683aec71f61a9959d",
  "number": 50024,
  "timestamp": 1438982930,
  "nonce": "0x6995e560c1a1efa3",
  "difficulty": 1498746915497,
  "gasLimit": {
    "_hex": "0x4b777"
  },
  "gasUsed": {
    "_hex": "0xa410"
  },
  "miner": "0x1D889aFF5D57138c9819412d63b5d877567B5936",
  "extraData": "0x476574682f76312e302e312f77696e646f77732f676f312e342e32",
  "transactions": [
    {
      "hash": "0x95c4558edea49076dd8c61b81d1e34c1f69f68dd72f26a1f26a92a9b1ef235b6",
      "blockHash": "0x1c859b03499473781a06da55baa7690fa74752fb032bc8e8eaf0d9d1da686a2a",
      "blockNumber": 50024,
      "transactionIndex": 0,
      "confirmations": null,
      "from": "0x796fB5FF91099467f7669c8FB0C68739Fd3a9e40",
      "gasPrice": {
        "_hex": "0xcee85df8a"
      },
      "gasLimit": {
        "_hex": "0x5208"
      },
      "to": "0x32Be343B94f860124dC4fEe278FDCBD38C102D88",
      "value": {
        "_hex": "0xcc8adb18c7bb3000"
      },
      "nonce": 0,
      "data": "0x",
      "r": "0x3b3269eed6594a4cdefcd288f08617bb1479746ed98c14c1985b8746fc6d3d59",
      "s": "0x010bc49f3c9ba9929b0747d8ac47fe7e11f5ff17c55c599e1ca94630fbee0b59",
      "v": 27,
      "creates": null,
      "raw": "0xf86c80850cee85df8a8252089432be343b94f860124dc4fee278fdcbd38c102d8888cc8adb18c7bb3000801ba03b3269eed6594a4cdefcd288f08617bb1479746ed98c14c1985b8746fc6d3d59a0010bc49f3c9ba9929b0747d8ac47fe7e11f5ff17c55c599e1ca94630fbee0b59",
      "networkId": 0,
      "chainId": 0
    },
    {
      "hash": "0xbdfae474f421ca4e89fda1ce54f2df3e65a927251fb19855350d796fb1f7efb3",
      "blockHash": "0x1c859b03499473781a06da55baa7690fa74752fb032bc8e8eaf0d9d1da686a2a",
      "blockNumber": 50024,
      "transactionIndex": 1,
      "confirmations": null,
      "from": "0x7a19C3C33f2a800b2FA361fD24277cAb0A1C1dB1",
      "gasPrice": {
        "_hex": "0xcee85df8a"
      },
      "gasLimit": {
        "_hex": "0x5208"
      },
      "to": "0x32Be343B94f860124dC4fEe278FDCBD38C102D88",
      "value": {
        "_hex": "0x14542b5edd48a400000"
      },
      "nonce": 2,
      "data": "0x",
      "r": "0xd81758f9da14896326380caaddffe0a4064208dd0925f4ba908a58a530763c0a",
      "s": "0x0a4b10d08e62b35406d621060b48cdc6ddbc7b2f607392d4a485a704b023a933",
      "v": 27,
      "creates": null,
      "raw": "0xf86e02850cee85df8a8252089432be343b94f860124dc4fee278fdcbd38c102d888a014542b5edd48a400000801ba0d81758f9da14896326380caaddffe0a4064208dd0925f4ba908a58a530763c0aa00a4b10d08e62b35406d621060b48cdc6ddbc7b2f607392d4a485a704b023a933",
      "networkId": 0,
      "chainId": 0
    }
  ]
}