{
  "hash": "0x9705dc367162556b7a6447366a7eaf6f72d235625287b0907b89f1b537aa178c",
  "parentHash": "0x2fda094c3883221c59f76fcd0ceccc094eec52f6c2b109e7daa72bcbc1b29d3c",
  "number": 80049,
  "timestamp": 1439479342,
  "nonce": "0x111733e844d4ce34",
  "difficulty": 2350583104675,
  "gasLimit": {
    "_hex": "0x2fe3de"
  },
  "gasUsed": {
    "_hex": "0xaa37"
  },
  "miner": "0xd391950BFF272128D59db92dea9E0Bc794D1b6b2",
  "extraData": "0xdd809b302e392e33382b2b303736342d5257696e646f2f6d73762f4a4954",
  "transactions": [
    {
      "hash": "0xa79701173ae0e26419d76a64f4c7681816f956adca1d780641fcac70e9348494",
      "blockHash": "0x9705dc367162556b7a6447366a7eaf6f72d235625287b0907b89f1b537aa178c",
      "blockNumber": 80049,
      "transactionIndex": 0,
      "confirmations": null,
      "from": "0x87C5B5874A18B4306DF8a752a6C8cc3E82daFc19",
      "gasPrice": {
        "_hex": "0x10b453d8c19"
      },
      "gasLimit": {
        "_hex": "0x493e0"
      },
      "to": "0xC4c51de1AbF5D60DBd329eC0F999Fd8f021ae9fC",
      "value": {
        "_hex": "0x0"
      },
      "nonce": 123,
      "data": "0x03750d9400000000000000000000000087c5b5874a18b4306df8a752a6c8cc3e82dafc196361740000000000000000000000000000000000000000000000000000000000",
      "r": "0xe5e6406c2e23e89e0451c6ca131c587d00bdebdd204e1cbb599dcf5a8432827f",
      "s": "0x7db790ea8f9643e8d14c811f5a1663cc68a4cd17ceba0700870b515f90f3e547",
      "v": 28,
      "creates": null,
      "raw": "0xf8ab7b86010b453d8c19830493e094c4c51de1abf5d60dbd329ec0f999fd8f021ae9fc80b84403750d9400000000000000000000000087c5b5874a18b4306df8a752a6c8cc3e82dafc1963617400000000000000000000000000000000000000000000000000000000001ca0e5e6406c2e23e89e0451c6ca131c587d00bdebdd204e1cbb599dcf5a8432827fa07db790ea8f9643e8d14c811f5a1663cc68a4cd17ceba0700870b515f90f3e547",
      "networkId": 0,
      "chainId": 0
    }
  ]
}