{
  "hash": "0xa9d29d4a070aa3d99a6e8ecc889bac2b2911075c088b274fb49be3f3593ae262",
  "parentHash": "0x5af254ce222048a2bf9d83b1815f076511387754998bd115aece9619bdc7c8bd",
  "number": 49426,
  "timestamp": 1438973322,
  "nonce": "0x048315ec1047aca8",
  "difficulty": 1478501064640,
  "gasLimit": {
    "_hex": "0x30c3a"
  },
  "gasUsed": {
    "_hex": "0x546c"
  },
  "miner": "0x0eDEd3DA479d0beF8eeC92A76644D3f4E3C177f7",
  "extraData": "0x476574682f76312e302e312f6c696e75782f676f312e342e32",
  "transactions": [
    {
      "hash": "0x117a0409a491bbd8873d59ef74b461b27564677dba987dda98fc936540613102",
      "blockHash": "0xa9d29d4a070aa3d99a6e8ecc889bac2b2911075c088b274fb49be3f3593ae262",
      "blockNumber": 49426,
      "transactionIndex": 0,
      "confirmations": null,
      "from": "0xBe2346A27Ff9b702044f500defF2E7fFE6824541",
      "gasPrice": {
        "_hex": "0x110c8f7d8de"
      },
      "gasLimit": {
        "_hex": "0xc350"
      },
      "to": "0x2910543Af39abA0Cd09dBb2D50200b3E800A63D2",
      "value": {
        "_hex": "0xf6b109d19758000"
      },
      "nonce": 1,
      "data": "0x454e3347514d323752",
      "r": "0x3fcd75eb29e925f3bedc9d78fe01edd34e1b20391f86d59e6c88f0b2a9e6ae26",
      "s": "0x6fee961a7e5469b90b497f74356b21bfe3f46350c9734fd7a973b26dea3b9d81",
      "v": 28,
      "creates": null,
      "raw": "0xf87601860110c8f7d8de82c350942910543af39aba0cd09dbb2d50200b3e800a63d2880f6b109d1975800089454e3347514d3237521ca03fcd75eb29e925f3bedc9d78fe01edd34e1b20391f86d59e6c88f0b2a9e6ae26a06fee961a7e5469b90b497f74356b21bfe3f46350c9734fd7a973b26dea3b9d81",
      "networkId": 0,
      "chainId": 0
    }
  ]
}