{
  "hash": "0x262a1f81d035e029958b61e5eb40ff3547e61e7ccc43578de555439aefd43991",
  "parentHash": "0x5aae898e521fc9266c08525e3295600d3725a1f2264594df3e9d7ba99a0f42ea",
  "number": 46650,
  "timestamp": 1438926852,
  "nonce": "0x886f51c39fed6258",
  "difficulty": 1456060795708,
  "gasLimit": {
    "_hex": "0x6e53"
  },
  "gasUsed": {
    "_hex": "0x5208"
  },
  "miner": "0x8B454d830feF179e66206840F8F3D1d83bC32b17",
  "extraData": "0x476574682f76312e302e312f77696e646f77732f676f312e342e32",
  "transactions": [
    {
      "hash": "0x91847a81ad0561b2ad83e1bc8bfd01a2162a12d0ba12d8aea8e2c71fe5d398e3",
      "blockHash": "0x262a1f81d035e029958b61e5eb40ff3547e61e7ccc43578de555439aefd43991",
      "blockNumber": 46650,
      "transactionIndex": 0,
      "confirmations": null,
      "from": "0x4BEF38C01Bc78Be1914bFe8D309aDF66a0E6721A",
      "gasPrice": {
        "_hex": "0xdf6db2395"
      },
      "gasLimit": {
        "_hex": "0x5208"
      },
      "to": "0x32Be343B94f860124dC4fEe278FDCBD38C102D88",
      "value": {
        "_hex": "0x9c1fbfccf80380000"
      },
      "nonce": 0,
      "data": "0x",
      "r": "0x65c80815046ea564230a308aca4dfb44c0d8a4ebfe097474315129544bea0ee0",
      "s": "0x5f27fed50fb8709d7b27dc6d910a837158fff9f4aeff5d08ef0d12639242fa52",
      "v": 28,
      "creates": null,
      "raw": "0xf86d80850df6db23958252089432be343b94f860124dc4fee278fdcbd38c102d888909c1fbfccf80380000801ca065c80815046ea564230a308aca4dfb44c0d8a4ebfe097474315129544bea0ee0a05f27fed50fb8709d7b27dc6d910a837158fff9f4aeff5d08ef0d12639242fa52",
      "networkId": 0,
      "chainId": 0
    }
  ]
}