{
  "hash": "0x569f1da84eead3d74dc9c5b57499b9ac64d3386bc734a269fff25b21ea3ba326",
  "parentHash": "0x5a9a7604f4bb8871e7ea3f3842b849ee0da5363fa83e4e9e43df31253b61fcce",
  "number": 71014,
  "timestamp": 1439329047,
  "nonce": "0xfc37a6b33ea9380b",
  "difficulty": 2158286662285,
  "gasLimit": {
    "_hex": "0x2fefd8"
  },
  "gasUsed": {
    "_hex": "0xa410"
  },
  "miner": "0x39A1BB80a741bF5EC39FB9BE59408Fa0F418fFBf",
  "extraData": "0x476574682f76312e302e312f77696e646f77732f676f312e342e32",
  "transactions": [
    {
      "hash": "0xae2ebb4811deae3aecbf4403e8afcae53f71c2562ee81c5705510d54378cd0d0",
      "blockHash": "0x569f1da84eead3d74dc9c5b57499b9ac64d3386bc734a269fff25b21ea3ba326",
      "blockNumber": 71014,
      "transactionIndex": 0,
      "confirmations": null,
      "from": "0x8693E9B8bE94425EEf7969bc69f9D42F7CAD671e",
      "gasPrice": {
        "_hex": "0xd5b89443d"
      },
      "gasLimit": {
        "_hex": "0x15f90"
      },
      "to": "0xb0DBD02650b659f9B8b02E77cf0481aA6b3Ff9f8",
      "value": {
        "_hex": "0x989680"
      },
      "nonce": 5,
      "data": "0x",
      "r": "0x420cf612f73cd0beba3114bbe3e259965572d72b762ab751e05b995d4e3bebd2",
      "s": "0x526ebefd8973bdd99d78200f1c5cceb528a926af2108fae18e2f4816034a0f00",
      "v": 28,
      "creates": null,
      "raw": "0xf86805850d5b89443d83015f9094b0dbd02650b659f9b8b02e77cf0481aa6b3ff9f883989680801ca0420cf612f73cd0beba3114bbe3e259965572d72b762ab751e05b995d4e3bebd2a0526ebefd8973bdd99d78200f1c5cceb528a926af2108fae18e2f4816034a0f00",
      "networkId": 0,
      "chainId": 0
    },
    {
      "hash": "0xe091e52934daef1f0b212dc017c6b184ed598696245bf29d432c59e83cb68ed0",
      "blockHash": "0x569f1da84eead3d74dc9c5b57499b9ac64d3386bc734a269fff25b21ea3ba326",
      "blockNumber": 71014,
      "transactionIndex": 1,
      "confirmations": null,
      "from": "0xf65EaC42da2c53D2a0e9bb399DDeDA9b68c7885c",
      "gasPrice": {
        "_hex": "0xd1437ac33"
      },
      "gasLimit": {
        "_hex": "0x15f90"
      },
      "to": "0x197D8Ac346334Cf05e98ABd8f8c886Af37F6D274",
      "value": {
        "_hex": "0x186cc6acd4b00000"
      },
      "nonce": 4,
      "data": "0x",
      "r": "0x4159e5b0724de93344f6387cc488e300276ca4495976f576f6b0b7ff576173ba",
      "s": "0x4a70ae063541f8f55d70109cc79df26cb1c72aea4ae30b227cdb59904e940203",
      "v": 28,
      "creates": null,
      "raw": "0xf86d04850d1437ac3383015f9094197d8ac346334cf05e98abd8f8c886af37f6d27488186cc6acd4b00000801ca04159e5b0724de93344f6387cc488e300276ca4495976f576f6b0b7ff576173baa04a70ae063541f8f55d70109cc79df26cb1c72aea4ae30b227cdb59904e940203",
      "networkId": 0,
      "chainId": 0
    }
  ]
}