{
  "hash": "0x2bcd61c124f52e6b9d55e1c4b762d329d6cd3922244aebfbaeee0f1448ffd8a9",
  "parentHash": "0x3d40a653ebd7c43df5a68358b352e9d357f2d6b4a9ecb5adf49da19ae7b2beed",
  "number": 105173,
  "timestamp": 1439883013,
  "nonce": "0xa75e9faa4fc24fce",
  "difficulty": 4314666457974,
  "gasLimit": {
    "_hex": "0x2fefd8"
  },
  "gasUsed": {
    "_hex": "0xa410"
  },
  "miner": "0xe6A7a1d47ff21B6321162AEA7C6CB457D5476Bca",
  "extraData": "0x476574682f76312e302e312d38326566323666362f6c696e75782f676f312e34",
  "transactions": [
    {
      "hash": "0x78b5d7d713353ceb17ab40427d5634d6e65cfd74908fd50c62092e63bcfa558b",
      "blockHash": "0x2bcd61c124f52e6b9d55e1c4b762d329d6cd3922244aebfbaeee0f1448ffd8a9",
      "blockNumber": 105173,
      "transactionIndex": 0,
      "confirmations": null,
      "from": "0xb1abce2918E21ddb93AA452731a12672A3d9F75a",
      "gasPrice": {
        "_hex": "0xcc3b20585"
      },
      "gasLimit": {
        "_hex": "0x5208"
      },
      "to": "0x32Be343B94f860124dC4fEe278FDCBD38C102D88",
      "value": {
        "_hex": "0xd0269d718b6c2000"
      },
      "nonce": 134,
      "data": "0x",
      "r": "0x855adbecd30a325e5a6f0548f2cc1ee465a3b48a4684c9e097c85dd71ed53c05",
      "s": "0x6301a1893c65c0f2ca6f0a84be5a7554e62274d2316f78e9569daa0af246d2e2",
      "v": 27,
      "creates": null,
      "raw": "0xf86d8186850cc3b205858252089432be343b94f860124dc4fee278fdcbd38c102d8888d0269d718b6c2000801ba0855adbecd30a325e5a6f0548f2cc1ee465a3b48a4684c9e097c85dd71ed53c05a06301a1893c65c0f2ca6f0a84be5a7554e62274d2316f78e9569daa0af246d2e2",
      "networkId": 0,
      "chainId": 0
    },
    {
      "hash": "0x33c00856532929669ca9af5efddbddf45b6db2457ae7df0c825f6142a0b22f41",
      "blockHash": "0x2bcd61c124f52e6b9d55e1c4b762d329d6cd3922244aebfbaeee0f1448ffd8a9",
      "blockNumber": 105173,
      "transactionIndex": 1,
      "confirmations": null,
      "from": "0x4Eaf4CaDd87499C20bA3412B1D222f9a72DA7AFF",
      "gasPrice": {
        "_hex": "0xcc3b20585"
      },
      "gasLimit": {
        "_hex": "0x5208"
      },
      "to": "0x32Be343B94f860124dC4fEe278FDCBD38C102D88",
      "value": {
        "_hex": "0x454db6f3c9a3a000"
      },
      "nonce": 4,
      "data": "0x",
      "r": "0xd8c8884e2b399437ae4e546980ea0bbbde053e5d96ba9cc9367330a0826ad587",
      "s": "0x215a51921da08b3229564c7e1317a6eb2148f69a938ee5cac505d1dc1af04d63",
      "v": 28,
      "creates": null,
      "raw": "0xf86c04850cc3b205858252089432be343b94f860124dc4fee278fdcbd38c102d8888454db6f3c9a3a000801ca0d8c8884e2b399437ae4e546980ea0bbbde053e5d96ba9cc9367330a0826ad587a0215a51921da08b3229564c7e1317a6eb2148f69a938ee5cac505d1dc1af04d63",
      "networkId": 0,
      "chainId": 0
    }
  ]
}