{
  "hash": "0x4c32da4ec867c2f4d1c7d7f2738c116359c62a7ecc9ca6aa5cd2624109023120",
  "parentHash": "0xf928acc91933158e86e923189509d61484a28c65c90141dd00aff13be96ce64b",
  "number": 113317,
  "timestamp": 1440021348,
  "nonce": "0x94f68bc0f2ecd035",
  "difficulty": 4495340309661,
  "gasLimit": {
    "_hex": "0x2fefd8"
  },
  "gasUsed": {
    "_hex": "0x5208"
  },
  "miner": "0xA21Ba94e45f0E168dA824fC67aC9cb5Cb577a8aF",
  "extraData": "0x",
  "transactions": [
    {
      "hash": "0xdb7127f4def6a82c51c15b3474a87ec554d71db9effa9a056db51bf993301959",
      "blockHash": "0x4c32da4ec867c2f4d1c7d7f2738c116359c62a7ecc9ca6aa5cd2624109023120",
      "blockNumber": 113317,
      "transactionIndex": 0,
      "confirmations": null,
      "from": "0x32Be343B94f860124dC4fEe278FDCBD38C102D88",
      "gasPrice": {
        "_hex": "0xd1730d981"
      },
      "gasLimit": {
        "_hex": "0x5208"
      },
      "to": "0x9A9bcc9D0E610C1E7Adc0b4c21C803b86288e027",
      "value": {
        "_hex": "0xdbd2fc137a30000"
      },
      "nonce": 1361,
      "data": "0x",
      "r": "0x4c379736702989d804bcd0cb1abcbc1fce294d32f3a45ee1e758ae5ee0d374d3",
      "s": "0x19bc674b36f8660e3952d715f96ee5f1450c3bed972cb2d41e25b1cf7da10be9",
      "v": 27,
      "creates": null,
      "raw": "0xf86e820551850d1730d981825208949a9bcc9d0e610c1e7adc0b4c21c803b86288e027880dbd2fc137a30000801ba04c379736702989d804bcd0cb1abcbc1fce294d32f3a45ee1e758ae5ee0d374d3a019bc674b36f8660e3952d715f96ee5f1450c3bed972cb2d41e25b1cf7da10be9",
      "networkId": 0,
      "chainId": 0
    }
  ]
}