{
  "hash": "0x114bd956465548bcbe638d5c52802c7e7fc62648b7dc05e087b7282896536872",
  "parentHash": "0x04521faefbbba49bb6c29f667c383d517f3557a0f2099e7653b3cf8eabac50a0",
  "number": 98222,
  "timestamp": 1439769009,
  "nonce": "0xe879853ed6172d86",
  "difficulty": 3876522474751,
  "gasLimit": {
    "_hex": "0x2fefd8"
  },
  "gasUsed": {
    "_hex": "0xf618"
  },
  "miner": "0xe6A7a1d47ff21B6321162AEA7C6CB457D5476Bca",
  "extraData": "0x476574682f76312e302e312d38326566323666362f6c696e75782f676f312e34",
  "transactions": [
    {
      "hash": "0x99f6f880cc0f846586230bfc6f3a08ae60792c6ee87b3134fb03beeee7c94cb2",
      "blockHash": "0x114bd956465548bcbe638d5c52802c7e7fc62648b7dc05e087b7282896536872",
      "blockNumber": 98222,
      "transactionIndex": 0,
      "confirmations": null,
      "from": "0x120A270bbC009644e35F0bB6ab13f95b8199c4ad",
      "gasPrice": {
        "_hex": "0xe20824f4e"
      },
      "gasLimit": {
        "_hex": "0x3d090"
      },
      "to": "0xef39804Fd2836Ef471E13ecFa2B91C42C368cE76",
      "value": {
        "_hex": "0x8ac7230489e80000"
      },
      "nonce": 652,
      "data": "0x",
      "r": "0x9f31db7cd56899d88788f2bfc66217213cc7ed30705773444110186e9305e69d",
      "s": "0x47fb94e8a3d05da620784d6146828fa9958e7d5a31ffbffaa654c36088ce98af",
      "v": 27,
      "creates": null,
      "raw": "0xf86f82028c850e20824f4e8303d09094ef39804fd2836ef471e13ecfa2b91c42c368ce76888ac7230489e80000801ba09f31db7cd56899d88788f2bfc66217213cc7ed30705773444110186e9305e69da047fb94e8a3d05da620784d6146828fa9958e7d5a31ffbffaa654c36088ce98af",
      "networkId": 0,
      "chainId": 0
    },
    {
      "hash": "0x3243e21bcbb858276d31e9479b1ace38fa63fe0f944077367eec561165aafb44",
      "blockHash": "0x114bd956465548bcbe638d5c52802c7e7fc62648b7dc05e087b7282896536872",
      "blockNumber": 98222,
      "transactionIndex": 1,
      "confirmations": null,
      "from": "0x0D4EcC7d750180EBf4A9Df728B6669B5Bceb5E40",
      "gasPrice": {
        "_hex": "0xd19203585"
      },
      "gasLimit": {
        "_hex": "0x5208"
      },
      "to": "0x32Be343B94f860124dC4fEe278FDCBD38C102D88",
      "value": {
        "_hex": "0x681127cdf02f5800"
      },
      "nonce": 48,
      "data": "0x",
      "r": "0xa305ec3df0ec72a9049be2742fe4ae758d3a40d9bc81799d161d5ca8e09cef98",
      "s": "0x21050fb5ae07f451c321e5c3892864c93160571d787f51d235bcc3d3fcfebf0c",
      "v": 27,
      "creates": null,
      "raw": "0xf86c30850d192035858252089432be343b94f860124dc4fee278fdcbd38c102d8888681127cdf02f5800801ba0a305ec3df0ec72a9049be2742fe4ae758d3a40d9bc81799d161d5ca8e09cef98a021050fb5ae07f451c321e5c3892864c93160571d787f51d235bcc3d3fcfebf0c",
      "networkId": 0,
      "chainId": 0
    },
    {
      "hash": "0x8f1005161ea0169a41ccef729ffba639a91eeba7039e0e64252ea9b85d77cf80",
      "blockHash": "0x114bd956465548bcbe638d5c52802c7e7fc62648b7dc05e087b7282896536872",
      "blockNumber": 98222,
      "transactionIndex": 2,
      "confirmations": null,
      "from": "0x32Be343B94f860124dC4fEe278FDCBD38C102D88",
      "gasPrice": {
        "_hex": "0xd19203585"
      },
      "gasLimit": {
        "_hex": "0x5208"
      },
      "to": "0xd12Cd8A37F074e7eAFae618C986Ff825666198bd",
      "value": {
        "_hex": "0x331e79f1e0b9da0000"
      },
      "nonce": 1034,
      "data": "0x",
      "r": "0x6c161ec956db9c773b9660433a70cb7a37d6fbb35ae4bc539c844f9faa28edab",
      "s": "0x03a2e5a377b6485360353ddbaec62f53d19e54547c718325117d3d342bce99ce",
      "v": 28,
      "creates": null,
      "raw": "0xf86f82040a850d1920358582520894d12cd8a37f074e7eafae618c986ff825666198bd89331e79f1e0b9da0000801ca06c161ec956db9c773b9660433a70cb7a37d6fbb35ae4bc539c844f9faa28edaba003a2e5a377b6485360353ddbaec62f53d19e54547c718325117d3d342bce99ce",
      "networkId": 0,
      "chainId": 0
    }
  ]
}