{
  "hash": "0x51ccd6fb4d5bec9e64e7227e07b51e2d104660d0f142b7d8ef22ab4e328eabdc",
  "parentHash": "0xa7c748bb324bcc13fa20cef58f505ed89ce2bdff62c8c33a6b52bcad9b2202f0",
  "number": 68451,
  "timestamp": 1439288134,
  "nonce": "0x7ea0399a5d547bc1",
  "difficulty": 2007452120966,
  "gasLimit": {
    "_hex": "0x2fefd8"
  },
  "gasUsed": {
    "_hex": "0x3d860"
  },
  "miner": "0xf927a40C8B7F6E07c5af7FA2155B4864a4112B13",
  "extraData": "0x",
  "transactions": [
    {
      "hash": "0x3d3a2ef7a434bc17151e73872e2f2c674520ed014acfb4e24ff3179e3cc30737",
      "blockHash": "0x51ccd6fb4d5bec9e64e7227e07b51e2d104660d0f142b7d8ef22ab4e328eabdc",
      "blockNumber": 68451,
      "transactionIndex": 0,
      "confirmations": null,
      "from": "0x5Ee6b1b8efA3028b7A5ECAA064E4ae56BA23Ac6d",
      "gasPrice": {
        "_hex": "0xba43b7400"
      },
      "gasLimit": {
        "_hex": "0x5208"
      },
      "to": "0x67b26b568133EA3ee798539e9742DcDA6EdAB4C2",
      "value": {
        "_hex": "0xd8e5610f40e000"
      },
      "nonce": 1,
      "data": "0x",
      "r": "0x0db3c41359100f647ae5724d28ebadaa4cf22be133303138bceb0eb8d5aa3452",
      "s": "0x3995a6d934152c3ef59c5063740bb6d82b382e31d2f000b1e40f714ac707751a",
      "v": 27,
      "creates": null,
      "raw": "0xf86b01850ba43b74008252089467b26b568133ea3ee798539e9742dcda6edab4c287d8e5610f40e000801ba00db3c41359100f647ae5724d28ebadaa4cf22be133303138bceb0eb8d5aa3452a03995a6d934152c3ef59c5063740bb6d82b382e31d2f000b1e40f714ac707751a",
      "networkId": 0,
      "chainId": 0
    },
    {
      "hash": "0xbcf9e7f5f25067633d6109513e5474090c7073e63cdb3667fb43bd846cbdbc71",
      "blockHash": "0x51ccd6fb4d5bec9e64e7227e07b51e2d104660d0f142b7d8ef22ab4e328eabdc",
      "blockNumber": 68451,
      "transactionIndex": 1,
      "confirmations": null,
      "from": "0xcD118Cbb6a3Be6ae7A237F134Cf3421de033FfCd",
      "gasPrice": {
        "_hex": "0xba43b7400"
      },
      "gasLimit": {
        "_hex": "0x5208"
      },
      "to": "0x036775981dAa8a56FB5a7baEA7Fe473583811dC1",
      "value": {
        "_hex": "0xd8e5610f40e000"
      },
      "nonce": 1,
      "data": "0x",
      "r": "0x961d17157cbc34e406d2e934cc25c80c3c6a32664e68aca8a017009eba04a242",
      "s": "0x476ebf4e71a73c8b2e898f21febaa565282b551336f8c1263aab86ca60dff007",
      "v": 28,
      "creates": null,
      "raw": "0xf86b01850ba43b740082520894036775981daa8a56fb5a7baea7fe473583811dc187d8e5610f40e000801ca0961d17157cbc34e406d2e934cc25c80c3c6a32664e68aca8a017009eba04a242a0476ebf4e71a73c8b2e898f21febaa565282b551336f8c1263aab86ca60dff007",
      "networkId": 0,
      "chainId": 0
    },
    {
      "hash": "0xb152e11a6baa00282fecd9d220577ecfc4fac6a8c8435ee6e18d8a6fbbed1d90",
      "blockHash": "0x51ccd6fb4d5bec9e64e7227e07b51e2d104660d0f142b7d8ef22ab4e328eabdc",
      "blockNumber": 68451,
      "transactionIndex": 2,
      "confirmations": null,
      "from": "0x14d23d75A666AC1A9372d97A83393aED93A008e8",
      "gasPrice": {
        "_hex": "0xba43b7400"
      },
      "gasLimit": {
        "_hex": "0x5208"
      },
      "to": "0xbf6b18A58F285D6d0B956174B0dADcacB1345a45",
      "value": {
        "_hex": "0xd8e5610f40e000"
      },
      "nonce": 1,
      "data": "0x",
      "r": "0xd38515942441c20b25de3bf8f4429cecdfeb10fbe5be8f90e73b7a9d5574f7e0",
      "s": "0x5e685a9e4649954c65654718e16022bcb21f382dc89516d1008dc2c481805b8c",
      "v": 27,
      "creates": null,
      "raw": "0xf86b01850ba43b740082520894bf6b18a58f285d6d0b956174b0dadcacb1345a4587d8e5610f40e000801ba0d38515942441c20b25de3bf8f4429cecdfeb10fbe5be8f90e73b7a9d5574f7e0a05e685a9e4649954c65654718e16022bcb21f382dc89516d1008dc2c481805b8c",
      "networkId": 0,
      "chainId": 0
    },
    {
      "hash": "0x533c23937632b94752928aa95e4699d12861bf74037f2071053f072a3fb6605b",
      "blockHash": "0x51ccd6fb4d5bec9e64e7227e07b51e2d104660d0f142b7d8ef22ab4e328eabdc",
      "blockNumber": 68451,
      "transactionIndex": 3,
      "confirmations": null,
      "from": "0xe580B5d164cdc0DE94c58f49A2B3A161d56c5f8F",
      "gasPrice": {
        "_hex": "0xba43b7400"
      },
      "gasLimit": {
        "_hex": "0x5208"
      },
      "to": "0x72bFF5a9dDB17C75aAb6997B0cacF2D751b95F69",
      "value": {
        "_hex": "0xd8e5610f40e000"
      },
      "nonce": 1,
      "data": "0x",
      "r": "0x494f7f540383dfd0997a8800f6b4a6fb0ca765a598102685a437c5c472b46ce0",
      "s": "0x4b710ab74397ad2295124cf84c4b7840d4b0d14efa93f2b45088ea19bca5c9bf",
      "v": 27,
      "creates": null,
      "raw": "0xf86b01850ba43b74008252089472bff5a9ddb17c75aab6997b0cacf2d751b95f6987d8e5610f40e000801ba0494f7f540383dfd0997a8800f6b4a6fb0ca765a598102685a437c5c472b46ce0a04b710ab74397ad2295124cf84c4b7840d4b0d14efa93f2b45088ea19bca5c9bf",
      "networkId": 0,
      "chainId": 0
    },
    {
      "hash": "0x00a109abad1b9f2e4a0084b43cd099eab0c10d7689bfb078674e9257970e3ca2",
      "blockHash": "0x51ccd6fb4d5bec9e64e7227e07b51e2d104660d0f142b7d8ef22ab4e328eabdc",
      "blockNumber": 68451,
      "transactionIndex": 4,
      "confirmations": null,
      "from": "0x3e15dD383aE6C3E86B43a770fC62C699FA4b4E8E",
      "gasPrice": {
        "_hex": "0xba43b7400"
      },
      "gasLimit": {
        "_hex": "0x5208"
      },
      "to": "0xd4734B436fF64EEd5A07a71bC9253a4468B63779",
      "value": {
        "_hex": "0xd8e5610f40e000"
      },
      "nonce": 1,
      "data": "0x",
      "r": "0x8bdafb748e5a0182fbb42b3f22e32a8502495a869aa58ba4c99cb8b35d14c1cf",
      "s": "0x082061e2ca0c27f93eee2fb2e22834dbd7fa96b15cda2300dd73ce20359ccadc",
      "v": 28,
      "creates": null,
      "raw": "0xf86b01850ba43b740082520894d4734b436ff64eed5a07a71bc9253a4468b6377987d8e5610f40e000801ca08bdafb748e5a0182fbb42b3f22e32a8502495a869aa58ba4c99cb8b35d14c1cfa0082061e2ca0c27f93eee2fb2e22834dbd7fa96b15cda2300dd73ce20359ccadc",
      "networkId": 0,
      "chainId": 0
    },
    {
      "hash": "0x6ad51e5c0b0e0b4ea9e69dbaa300d1b05d93ecbe4be034bed8adf97016433e65",
      "blockHash": "0x51ccd6fb4d5bec9e64e7227e07b51e2d104660d0f142b7d8ef22ab4e328eabdc",
      "blockNumber": 68451,
      "transactionIndex": 5,
      "confirmations": null,
      "from": "0x59889a76d74f807754F704e16f973C9f40E31c5b",
      "gasPrice": {
        "_hex": "0xba43b7400"
      },
      "gasLimit": {
        "_hex": "0x5208"
      },
      "to": "0xcb94e5346D58e6f89a5bE97DBb7B5a6c0975e36f",
      "value": {
        "_hex": "0xd8e5610f40e000"
      },
      "nonce": 1,
      "data": "0x",
      "r": "0xf38da8dced668422b50db95feb0cc31aee9dae355f0e74a8b2a6873e4a044e82",
      "s": "0x1a5aafee8efa2b39e234df60d25b295532fd3d9b3f5e3d6a8834c4d8f053ec41",
      "v": 27,
      "creates": null,
      "raw": "0xf86b01850ba43b740082520894cb94e5346d58e6f89a5be97dbb7b5a6c0975e36f87d8e5610f40e000801ba0f38da8dced668422b50db95feb0cc31aee9dae355f0e74a8b2a6873e4a044e82a01a5aafee8efa2b39e234df60d25b295532fd3d9b3f5e3d6a8834c4d8f053ec41",
      "networkId": 0,
      "chainId": 0
    },
    {
      "hash": "0x50d051c352d3e2c1cb3e94e320f52be68f6e28250b3a203435d0cb051786ea99",
      "blockHash": "0x51ccd6fb4d5bec9e64e7227e07b51e2d104660d0f142b7d8ef22ab4e328eabdc",
      "blockNumber": 68451,
      "transactionIndex": 6,
      "confirmations": null,
      "from": "0x2B128FC30e652CE07aB9799B1Fd570CccDc7690E",
      "gasPrice": {
        "_hex": "0xba43b7400"
      },
      "gasLimit": {
        "_hex": "0x5208"
      },
      "to": "0x1Ce632993aC656779188ae931462A8A04DCA302F",
      "value": {
        "_hex": "0xd8e5610f40e000"
      },
      "nonce": 1,
      "data": "0x",
      "r": "0xed4a8f72fe0f7d0213b9d56756682a892a1e3ff587df9affda3ad54ce018cde7",
      "s": "0x0309c9141c4cbd9033db73aebaa0f56eb863ddec8bd0c3ee744232001a103233",
      "v": 28,
      "creates": null,
      "raw": "0xf86b01850ba43b7400825208941ce632993ac656779188ae931462a8a04dca302f87d8e5610f40e000801ca0ed4a8f72fe0f7d0213b9d56756682a892a1e3ff587df9affda3ad54ce018cde7a00309c9141c4cbd9033db73aebaa0f56eb863ddec8bd0c3ee744232001a103233",
      "networkId": 0,
      "chainId": 0
    },
    {
      "hash": "0x363b519e3da4047dc4f581183c0bc8f3e2c450a85c845c2c3996011f998372e4",
      "blockHash": "0x51ccd6fb4d5bec9e64e7227e07b51e2d104660d0f142b7d8ef22ab4e328eabdc",
      "blockNumber": 68451,
      "transactionIndex": 7,
      "confirmations": null,
      "from": "0x5e1474925C6cfb4f341CaCf29f8Ad8258d82a6fd",
      "gasPrice": {
        "_hex": "0xba43b7400"
      },
      "gasLimit": {
        "_hex": "0x5208"
      },
      "to": "0xd73a60e86ECda5d831603fAA8Aa0b09F5e428cFB",
      "value": {
        "_hex": "0xd8e5610f40e000"
      },
      "nonce": 1,
      "data": "0x",
      "r": "0xcfbed50d4452c00c78e60b8b071a4dbc7a9d7377c69c65f8f75d9995fc27eabf",
      "s": "0x40d2f148ffac6a2ef830bac141d6f55a86b468fed28b827201e5baedfce48724",
      "v": 27,
      "creates": null,
      "raw": "0xf86b01850ba43b740082520894d73a60e86ecda5d831603faa8aa0b09f5e428cfb87d8e5610f40e000801ba0cfbed50d4452c00c78e60b8b071a4dbc7a9d7377c69c65f8f75d9995fc27eabfa040d2f148ffac6a2ef830bac141d6f55a86b468fed28b827201e5baedfce48724",
      "networkId": 0,
      "chainId": 0
    },
    {
      "hash": "0x3e3653e82e6f89252c4cba42c7a94f0c367f830fbcdc62d6fd339004266d8d30",
      "blockHash": "0x51ccd6fb4d5bec9e64e7227e07b51e2d104660d0f142b7d8ef22ab4e328eabdc",
      "blockNumber": 68451,
      "transactionIndex": 8,
      "confirmations": null,
      "from": "0x6747f922385c9a6F9cfDf095F34345257DD597bE",
      "gasPrice": {
        "_hex": "0xba43b7400"
      },
      "gasLimit": {
        "_hex": "0x5208"
      },
      "to": "0x008dBa42C465542c3FAbCb5928B45194B195798F",
      "value": {
        "_hex": "0x1fcbfa42bd6000"
      },
      "nonce": 95,
      "data": "0x",
      "r": "0x08b1c115006ba0c619444eb547ef31843f9ef0250df37af6b072c4ff35d868be",
      "s": "0x565823900193e8e2bfa9f0fd6ce9b8deba0d05b7c305e5e1353080cc0a547c39",
      "v": 27,
      "creates": null,
      "raw": "0xf86b5f850ba43b740082520894008dba42c465542c3fabcb5928b45194b195798f871fcbfa42bd6000801ba008b1c115006ba0c619444eb547ef31843f9ef0250df37af6b072c4ff35d868bea0565823900193e8e2bfa9f0fd6ce9b8deba0d05b7c305e5e1353080cc0a547c39",
      "networkId": 0,
      "chainId": 0
    },
    {
      "hash": "0x08d187acd592e2ca675a7b679ffd9e1ec0be8da1c51ada96b84c97e5b44e6739",
      "blockHash": "0x51ccd6fb4d5bec9e64e7227e07b51e2d104660d0f142b7d8ef22ab4e328eabdc",
      "blockNumber": 68451,
      "transactionIndex": 9,
      "confirmations": null,
      "from": "0x2DB6Ead51b46e58Ca87Cb59d666F2CB65FA28e40",
      "gasPrice": {
        "_hex": "0xba43b7400"
      },
      "gasLimit": {
        "_hex": "0x5208"
      },
      "to": "0xF9eDbAD57E98D698FF0f8E269ee51525C43b7839",
      "value": {
        "_hex": "0xd8e5610f40e000"
      },
      "nonce": 1,
      "data": "0x",
      "r": "0x938b7147c8b9f61ac0748be98e6eac0e56b4acebb85cfb5fb6ac019659757af5",
      "s": "0x24f1af46abb3c20df7b94491eabb87e910ef6179060e732537b3420de93ec45a",
      "v": 27,
      "creates": null,
      "raw": "0xf86b01850ba43b740082520894f9edbad57e98d698ff0f8e269ee51525c43b783987d8e5610f40e000801ba0938b7147c8b9f61ac0748be98e6eac0e56b4acebb85cfb5fb6ac019659757af5a024f1af46abb3c20df7b94491eabb87e910ef6179060e732537b3420de93ec45a",
      "networkId": 0,
      "chainId": 0
    },
    {
      "hash": "0xc078a1a6bf5469fdfb1750c4a1864762fb51096ede6c4a5ad487edfee0a65154",
      "blockHash": "0x51ccd6fb4d5bec9e64e7227e07b51e2d104660d0f142b7d8ef22ab4e328eabdc",
      "blockNumber": 68451,
      "transactionIndex": 10,
      "confirmations": null,
      "from": "0xc61905B7C4645FD47428e8ABb1e48CA720E2303c",
      "gasPrice": {
        "_hex": "0xba43b7400"
      },
      "gasLimit": {
        "_hex": "0x5208"
      },
      "to": "0x0262F5278EF73732f29581dDC4DdDb2d38B4A7DB",
      "value": {
        "_hex": "0xd8e5610f40e000"
      },
      "nonce": 1,
      "data": "0x",
      "r": "0xb2b41f0a9232442c155cf0348b928ca7ebdc4cae84fcdb5afe6fd26ea5884f05",
      "s": "0x1293f6f2fd7c97cc3f28b6473d47ecb4650bcd09b2ae73da5866a1e25f3eb53a",
      "v": 27,
      "creates": null,
      "raw": "0xf86b01850ba43b7400825208940262f5278ef73732f29581ddc4dddb2d38b4a7db87d8e5610f40e000801ba0b2b41f0a9232442c155cf0348b928ca7ebdc4cae84fcdb5afe6fd26ea5884f05a01293f6f2fd7c97cc3f28b6473d47ecb4650bcd09b2ae73da5866a1e25f3eb53a",
      "networkId": 0,
      "chainId": 0
    },
    {
      "hash": "0x3c19ff9656512fbeb2bf7ffed7cf68ce496d7cb078fccb1a3c0e892a4dd7aeb8",
      "blockHash": "0x51ccd6fb4d5bec9e64e7227e07b51e2d104660d0f142b7d8ef22ab4e328eabdc",
      "blockNumber": 68451,
      "transactionIndex": 11,
      "confirmations": null,
      "from": "0xB21e26968eDc0D4685f79321313296448c8693CA",
      "gasPrice": {
        "_hex": "0xba43b7400"
      },
      "gasLimit": {
        "_hex": "0x5208"
      },
      "to": "0xC3503F7f741d3B86df21806de90050b7a0c15d6D",
      "value": {
        "_hex": "0xd8e5610f40e000"
      },
      "nonce": 1,
      "data": "0x",
      "r": "0x6d445b3f85ef8abe5a79db8294d13166abed95d66494ac36655b3675e60db55c",
      "s": "0x687dbd3de66612a5922c5e8cbea5b9ca9af22de9a5434c96ea02e20f3a77be1e",
      "v": 27,
      "creates": null,
      "raw": "0xf86b01850ba43b740082520894c3503f7f741d3b86df21806de90050b7a0c15d6d87d8e5610f40e000801ba06d445b3f85ef8abe5a79db8294d13166abed95d66494ac36655b3675e60db55ca0687dbd3de66612a5922c5e8cbea5b9ca9af22de9a5434c96ea02e20f3a77be1e",
      "networkId": 0,
      "chainId": 0
    }
  ]
}