{
  "hash": "0x18f8bbe26e64f5da676c9a17f4dcd21956df8654f7a37e62665a02fceb069f75",
  "parentHash": "0xbe516431e334c7a212f3ef08abdba3b155348986052bea32f6467891dc059cb5",
  "number": 73721,
  "timestamp": 1439373798,
  "nonce": "0xb37d3ab3e0f306b2",
  "difficulty": 2224992882243,
  "gasLimit": {
    "_hex": "0x2fd88b"
  },
  "gasUsed": {
    "_hex": "0x546c"
  },
  "miner": "0x87cD3b7f4DBBFE553DB92Ac1C97c6C24231c5D26",
  "extraData": "0x476574682f76312e302e302f6c696e75782f676f312e342e32",
  "transactions": [
    {
      "hash": "0xcc2837fa2901c73eb41653470d2b8cab037ae1aff9b2ed7d4332f6d351830cb3",
      "blockHash": "0x18f8bbe26e64f5da676c9a17f4dcd21956df8654f7a37e62665a02fceb069f75",
      "blockNumber": 73721,
      "transactionIndex": 0,
      "confirmations": null,
      "from": "0xFEaA6f0a842422DdD202CF41d44eFf708127136e",
      "gasPrice": {
        "_hex": "0x9184e72a000"
      },
      "gasLimit": {
        "_hex": "0x99194"
      },
      "to": "0x2910543Af39abA0Cd09dBb2D50200b3E800A63D2",
      "value": {
        "_hex": "0x8ac7230489e80000"
      },
      "nonce": 5,
      "data": "0x454e32544635393930",
      "r": "0x3fc66da4ed6ebabd47c3437c03cc4305e5e427c62fd90e149ea3d56575d4d032",
      "s": "0x7496347577ffae0215564ede0396e8d2d87b2b0540810723d9defbc79f9280a2",
      "v": 28,
      "creates": null,
      "raw": "0xf877058609184e72a00083099194942910543af39aba0cd09dbb2d50200b3e800a63d2888ac7230489e8000089454e325446353939301ca03fc66da4ed6ebabd47c3437c03cc4305e5e427c62fd90e149ea3d56575d4d032a07496347577ffae0215564ede0396e8d2d87b2b0540810723d9defbc79f9280a2",
      "networkId": 0,
      "chainId": 0
    }
  ]
}