{
  "hash": "0xf23c66f3c934be8bbc37d2c2894f36383e5bb5383edaf73f7c381abe8937fd39",
  "parentHash": "0x6fc9317aabf317889b60a51daf5a5a63f144286386cda0b7a8a004111a8f13d4",
  "number": 95285,
  "timestamp": 1439721853,
  "nonce": "0x3c741fb80c343147",
  "difficulty": 3560280644775,
  "gasLimit": {
    "_hex": "0x2fefd8"
  },
  "gasUsed": {
    "_hex": "0xa410"
  },
  "miner": "0x3FF679B0823a026F2378E5f5F22A6F127cC85828",
  "extraData": "0x",
  "transactions": [
    {
      "hash": "0x32493f0b469baf150742a1c831a1a4d4d4a27be433180d6572c91b461fd5f81e",
      "blockHash": "0xf23c66f3c934be8bbc37d2c2894f36383e5bb5383edaf73f7c381abe8937fd39",
      "blockNumber": 95285,
      "transactionIndex": 0,
      "confirmations": null,
      "from": "0x2910543Af39abA0Cd09dBb2D50200b3E800A63D2",
      "gasPrice": {
        "_hex": "0xd93336de9"
      },
      "gasLimit": {
        "_hex": "0x5208"
      },
      "to": "0xfE835cf9F715fec23A7dECbCa85D616e7f6E5Aec",
      "value": {
        "_hex": "0x8ab55f8b52078000"
      },
      "nonce": 892,
      "data": "0x",
      "r": "0x8ba4f39c252b175aa950177d5ada092c4dbb2c3c5411abeaac89e27eaa360068",
      "s": "0x6d1e5cd840d803ec0e9e099ed8dfb1b0f0ae174db19c615c90e7dc15eff45df9",
      "v": 27,
      "creates": null,
      "raw": "0xf86e82037c850d93336de982520894fe835cf9f715fec23a7decbca85d616e7f6e5aec888ab55f8b52078000801ba08ba4f39c252b175aa950177d5ada092c4dbb2c3c5411abeaac89e27eaa360068a06d1e5cd840d803ec0e9e099ed8dfb1b0f0ae174db19c615c90e7dc15eff45df9",
      "networkId": 0,
      "chainId": 0
    },
    {
      "hash": "0xeafb1f10015ab61103dfc8482ff3030cc856569c86826ab70d55cce0e4fe7aec",
      "blockHash": "0xf23c66f3c934be8bbc37d2c2894f36383e5bb5383edaf73f7c381abe8937fd39",
      "blockNumber": 95285,
      "transactionIndex": 1,
      "confirmations": null,
      "from": "0x2910543Af39abA0Cd09dBb2D50200b3E800A63D2",
      "gasPrice": {
        "_hex": "0xd93336de9"
      },
      "gasLimit": {
        "_hex": "0x5208"
      },
      "to": "0xb4Ad43131139584E8f6F31D578E0dC4d11Df6D7b",
      "value": {
        "_hex": "0x2b5e3af16b1880000"
      },
      "nonce": 893,
      "data": "0x",
      "r": "0x79c06bfc3ce9ef4bf7e354e9fbef61e47990ca72fc231e222e836a590fc54761",
      "s": "0x5d12072140e1922ac7e0b3459a6832e485ba27523b03b55e7c29f5506721ea25",
      "v": 27,
      "creates": null,
      "raw": "0xf86f82037d850d93336de982520894b4ad43131139584e8f6f31d578e0dc4d11df6d7b8902b5e3af16b1880000801ba079c06bfc3ce9ef4bf7e354e9fbef61e47990ca72fc231e222e836a590fc54761a05d12072140e1922ac7e0b3459a6832e485ba27523b03b55e7c29f5506721ea25",
      "networkId": 0,
      "chainId": 0
    }
  ]
}