{
  "hash": "0x11c61c7c325f12bfe71e658f7e04580c3a2565956a75322c921eb67f013b43e3",
  "parentHash": "0xff89b9a602c39ab95dff351aaca8a2df038d89fa9df1006eeeff5950d056b4d7",
  "number": 119675,
  "timestamp": 1440146953,
  "nonce": "0xfdff6374623224a5",
  "difficulty": 4383595930944,
  "gasLimit": {
    "_hex": "0x2fefd8"
  },
  "gasUsed": {
    "_hex": "0x5208"
  },
  "miner": "0xe6A7a1d47ff21B6321162AEA7C6CB457D5476Bca",
  "extraData": "0xd783010002844765746887676f312e342e32856c696e7578",
  "transactions": [
    {
      "hash": "0xef5b975f468eaf6710657e48a648668ee48bb2b14706365d7c50f818892b6db9",
      "blockHash": "0x11c61c7c325f12bfe71e658f7e04580c3a2565956a75322c921eb67f013b43e3",
      "blockNumber": 119675,
      "transactionIndex": 0,
      "confirmations": null,
      "from": "0x32Be343B94f860124dC4fEe278FDCBD38C102D88",
      "gasPrice": {
        "_hex": "0xba43b7400"
      },
      "gasLimit": {
        "_hex": "0x5208"
      },
      "to": "0x409d672EF0621f9f9f0Bb7857c34e7e53a5D4B48",
      "value": {
        "_hex": "0x18919967e2db000"
      },
      "nonce": 1513,
      "data": "0x",
      "r": "0xb189b69073c3a023d7405f568f2a51c414fb1fe793ae031a4ed71b27e9e712af",
      "s": "0x32eaf54929d82f8676d1ff6755a4b7026b1c3141419dfcf253cfc0f2b3992b2e",
      "v": 28,
      "creates": null,
      "raw": "0xf86e8205e9850ba43b740082520894409d672ef0621f9f9f0bb7857c34e7e53a5d4b4888018919967e2db000801ca0b189b69073c3a023d7405f568f2a51c414fb1fe793ae031a4ed71b27e9e712afa032eaf54929d82f8676d1ff6755a4b7026b1c3141419dfcf253cfc0f2b3992b2e",
      "networkId": 0,
      "chainId": 0
    }
  ]
}