{
  "hash": "0xb493dc8ce8b9653145bc4190c3e6c2df3d9facd6aab5f01394ef050b84cc96db",
  "parentHash": "0x76adb2d39454b7f067899f08b1b33e641521bf0979df134813b9c08366e5fe06",
  "number": 118504,
  "timestamp": 1440127144,
  "nonce": "0x93114088c0dafdcf",
  "difficulty": 4288925830652,
  "gasLimit": {
    "_hex": "0x2fefd8"
  },
  "gasUsed": {
    "_hex": "0x5208"
  },
  "miner": "0x608f4b86321a68453f9adf6F06F7Fc3E621739ad",
  "extraData": "0xd783010002844765746887676f312e342e32856c696e7578",
  "transactions": [
    {
      "hash": "0x034bac732892aaa15d676fd022cad431c62ea8bbf882b9fd9e8358983ce57ca1",
      "blockHash": "0xb493dc8ce8b9653145bc4190c3e6c2df3d9facd6aab5f01394ef050b84cc96db",
      "blockNumber": 118504,
      "transactionIndex": 0,
      "confirmations": null,
      "from": "0x406598dCeF6Ba564F5705c8C61857fE905EEC03c",
      "gasPrice": {
        "_hex": "0xba43b7400"
      },
      "gasLimit": {
        "_hex": "0x15f90"
      },
      "to": "0x7B60F3f033e6D7808428C9f2dBC81682ff24984F",
      "value": {
        "_hex": "0x4563918244f40000"
      },
      "nonce": 3,
      "data": "0x",
      "r": "0x30635d5fa09760cf2523e9803fb49b9eed8be23877c865ac205986cb5d91b1ca",
      "s": "0x45c112111d1287f5c8af6791f147dd1c921403f19318820014b478181af220e9",
      "v": 27,
      "creates": null,
      "raw": "0xf86d03850ba43b740083015f90947b60f3f033e6d7808428c9f2dbc81682ff24984f884563918244f40000801ba030635d5fa09760cf2523e9803fb49b9eed8be23877c865ac205986cb5d91b1caa045c112111d1287f5c8af6791f147dd1c921403f19318820014b478181af220e9",
      "networkId": 0,
      "chainId": 0
    }
  ]
}