{
  "hash": "0x11fb603ed545555066b582e11b619d0680dccce80630adb27af161ce93214153",
  "parentHash": "0x0579ebc0c143187dc59fb19850b13262e944512bbc5f8564eb8648700d5c8b99",
  "number": 95741,
  "timestamp": 1439728941,
  "nonce": "0xe3e0499ffe9c853e",
  "difficulty": 3612620660744,
  "gasLimit": {
    "_hex": "0x2fefd8"
  },
  "gasUsed": {
    "_hex": "0xa410"
  },
  "miner": "0xe6A7a1d47ff21B6321162AEA7C6CB457D5476Bca",
  "extraData": "0x476574682f76312e302e312d38326566323666362f6c696e75782f676f312e34",
  "transactions": [
    {
      "hash": "0xe93910d343aa0858ca96fcaad11eb8d08c46b371ac7576e3b88e4432000ce3c5",
      "blockHash": "0x11fb603ed545555066b582e11b619d0680dccce80630adb27af161ce93214153",
      "blockNumber": 95741,
      "transactionIndex": 0,
      "confirmations": null,
      "from": "0xb1abce2918E21ddb93AA452731a12672A3d9F75a",
      "gasPrice": {
        "_hex": "0xe265e118e"
      },
      "gasLimit": {
        "_hex": "0x5208"
      },
      "to": "0x32Be343B94f860124dC4fEe278FDCBD38C102D88",
      "value": {
        "_hex": "0x8ac29a48c20ee000"
      },
      "nonce": 40,
      "data": "0x",
      "r": "0x8f4101d5aea2b0c027d987278633f46adc321d77f8ce116fc474da28120aafd4",
      "s": "0x61971a530451e9cd79a7b78ed96150d578bea68794520a6ec1ab69f84b50e4ac",
      "v": 28,
      "creates": null,
      "raw": "0xf86c28850e265e118e8252089432be343b94f860124dc4fee278fdcbd38c102d88888ac29a48c20ee000801ca08f4101d5aea2b0c027d987278633f46adc321d77f8ce116fc474da28120aafd4a061971a530451e9cd79a7b78ed96150d578bea68794520a6ec1ab69f84b50e4ac",
      "networkId": 0,
      "chainId": 0
    },
    {
      "hash": "0xc30554b868c3763f173617e44111739fc949250f44d0dcb065a55c0976e22be0",
      "blockHash": "0x11fb603ed545555066b582e11b619d0680dccce80630adb27af161ce93214153",
      "blockNumber": 95741,
      "transactionIndex": 1,
      "confirmations": null,
      "from": "0x007f7f58D3eb5b7510A301eCC749FC1fCDDBE14D",
      "gasPrice": {
        "_hex": "0xcc8ddf695"
      },
      "gasLimit": {
        "_hex": "0x15f90"
      },
      "to": "0xb1abce2918E21ddb93AA452731a12672A3d9F75a",
      "value": {
        "_hex": "0x4563918244f40000"
      },
      "nonce": 62,
      "data": "0x",
      "r": "0xeca2ef3218aa6d7c6e2c52c1578832f8cf8ff15f89c653df2a159f8e4c298389",
      "s": "0x5631e800993aa88f9923ef5b52c9fb723b3d95a458ce008782ebe2fa2a4a72f4",
      "v": 28,
      "creates": null,
      "raw": "0xf86d3e850cc8ddf69583015f9094b1abce2918e21ddb93aa452731a12672a3d9f75a884563918244f40000801ca0eca2ef3218aa6d7c6e2c52c1578832f8cf8ff15f89c653df2a159f8e4c298389a05631e800993aa88f9923ef5b52c9fb723b3d95a458ce008782ebe2fa2a4a72f4",
      "networkId": 0,
      "chainId": 0
    }
  ]
}