{
  "hash": "0x1c4b311efa582a986f34eaed09340c76c7c4ef9df69deaa50dbc2909b45509fb",
  "parentHash": "0xee1fe84c27b3adda0756a1460d8b472e3ca934627777cf4e3b321267cd82021d",
  "number": 74373,
  "timestamp": 1439385058,
  "nonce": "0x8a8d73bfebd8bb3f",
  "difficulty": 2211822014234,
  "gasLimit": {
    "_hex": "0x2fefd8"
  },
  "gasUsed": {
    "_hex": "0xad5d"
  },
  "miner": "0xe6A7a1d47ff21B6321162AEA7C6CB457D5476Bca",
  "extraData": "0x476574682f76312e302e312d38326566323666362f6c696e75782f676f312e34",
  "transactions": [
    {
      "hash": "0xa00fd6fae138ed0f3ea08a462e4ffe32205daa38a3ee00f95c709c0963fcde2c",
      "blockHash": "0x1c4b311efa582a986f34eaed09340c76c7c4ef9df69deaa50dbc2909b45509fb",
      "blockNumber": 74373,
      "transactionIndex": 0,
      "confirmations": null,
      "from": "0x87C5B5874A18B4306DF8a752a6C8cc3E82daFc19",
      "gasPrice": {
        "_hex": "0x11234e707c6"
      },
      "gasLimit": {
        "_hex": "0x493e0"
      },
      "to": "0x88A91FD7Fb8AAEa8cDAD2C990f1DBDcd28022a02",
      "value": {
        "_hex": "0x0"
      },
      "nonce": 16,
      "data": "0x03750d94000000000000000000000000326be8f71bfb0379f989aab1cc1fe37f0a771f6036625662375832596f6a396462426e3900000000000000000000000000000000",
      "r": "0x27841c57aabdac09f1e0f4ccadfa85d470385d32c72dc2fa01750c743d7cc0a5",
      "s": "0x5fe415afc1ad61b4deff5bd6d07204f80337df0c6289de7005b1d2bc83a68618",
      "v": 27,
      "creates": null,
      "raw": "0xf8ab1086011234e707c6830493e09488a91fd7fb8aaea8cdad2c990f1dbdcd28022a0280b84403750d94000000000000000000000000326be8f71bfb0379f989aab1cc1fe37f0a771f6036625662375832596f6a396462426e39000000000000000000000000000000001ba027841c57aabdac09f1e0f4ccadfa85d470385d32c72dc2fa01750c743d7cc0a5a05fe415afc1ad61b4deff5bd6d07204f80337df0c6289de7005b1d2bc83a68618",
      "networkId": 0,
      "chainId": 0
    }
  ]
}