{
  "hash": "0xe318a48f53210593012566bd23de0e5b9af797b9d26f95826c171d305abd189e",
  "parentHash": "0x60117e883ede625a2763d777bff707fdcb80684c2c00d911a6b88b2726304532",
  "number": 73401,
  "timestamp": 1439368866,
  "nonce": "0xbbfa9721f0cf04a4",
  "difficulty": 2194863784705,
  "gasLimit": {
    "_hex": "0x2fefd8"
  },
  "gasUsed": {
    "_hex": "0x46b06"
  },
  "miner": "0x31995C46B15C84523cDEE26f49A681b8237e43F5",
  "extraData": "0x476574682f76312e302e312f77696e646f77732f676f312e342e32",
  "transactions": [
    {
      "hash": "0x169f40d2b2c792d5969983cbb66aff3037fd9179339a6b60721ea1e4b6c59f0d",
      "blockHash": "0xe318a48f53210593012566bd23de0e5b9af797b9d26f95826c171d305abd189e",
      "blockNumber": 73401,
      "transactionIndex": 0,
      "confirmations": null,
      "from": "0xf4B1114a02EFe852013277F28ed88734Fa81E54f",
      "gasPrice": {
        "_hex": "0xdd29259ff"
      },
      "gasLimit": {
        "_hex": "0x15f90"
      },
      "to": "0xc6d9d2cD449A754c494264e1809c50e34D64562b",
      "value": {
        "_hex": "0x3bd913e6c1df40000"
      },
      "nonce": 3,
      "data": "0x432ced0448484b4200000000000000000000000000000000000000000000000000000000",
      "r": "0x05c2d39ef4fa529ff241e80116f6bb95306056605a13f4336eea10cc0b6b734f",
      "s": "0x32a53b8547889a6cc93b302726ad4b6f821b1ddd4e724a16b922a8d68e970e86",
      "v": 28,
      "creates": null,
      "raw": "0xf89203850dd29259ff83015f9094c6d9d2cd449a754c494264e1809c50e34d64562b8903bd913e6c1df40000a4432ced0448484b42000000000000000000000000000000000000000000000000000000001ca005c2d39ef4fa529ff241e80116f6bb95306056605a13f4336eea10cc0b6b734fa032a53b8547889a6cc93b302726ad4b6f821b1ddd4e724a16b922a8d68e970e86",
      "networkId": 0,
      "chainId": 0
    },
    {
      "hash": "0x8250540dc099527f760c6f0a6d8841c23899e412b3f2030a174c62e7f5e32743",
      "blockHash": "0xe318a48f53210593012566bd23de0e5b9af797b9d26f95826c171d305abd189e",
      "blockNumber": 73401,
      "transactionIndex": 1,
      "confirmations": null,
      "from": "0xf4B1114a02EFe852013277F28ed88734Fa81E54f",
      "gasPrice": {
        "_hex": "0xdd29259ff"
      },
      "gasLimit": {
        "_hex": "0x445c0"
      },
      "to": null,
      "value": {
        "_hex": "0x0"
      },
      "nonce": 4,
      "data": "0x60606040525b33600060006101000a81548173ffffffffffffffffffffffffffffffffffffffff021916908302179055505b610352806100406000396000f30060606040523615610053576000357c0100000000000000000000000000000000000000000000000000000000900480633feb1bd8146100aa5780636042a760146100c9578063b214faa5146100ee57610053565b6100a85b3373ffffffffffffffffffffffffffffffffffffffff167fceaafb6781e240ba6b317a906047690d1c227df2d967ff3f53b44f14a62c2cab346040518082815260200191505060405180910390a25b565b005b6100c7600480359060200180359060200180359060200150610154565b005b6100ec600480359060200180359060200180359060200180359060200150610233565b005b6100ff600480359060200150610101565b005b803373ffffffffffffffffffffffffffffffffffffffff167f19dacbf83c5de6658e14cbf7bcae5c15eca2eedecf1c66fbca928e4d351bea0f346040518082815260200191505060405180910390a35b50565b600060009054906101000a900473ffffffffffffffffffffffffffffffffffffffff1673ffffffffffffffffffffffffffffffffffffffff163373ffffffffffffffffffffffffffffffffffffffff16141561022d578173ffffffffffffffffffffffffffffffffffffffff16600082604051809050600060405180830381858888f19350505050508173ffffffffffffffffffffffffffffffffffffffff16837f4c13017ee95afc4bbd8a701dd9fbc9733f1f09f5a1b5438b5b9abd48e4c92d78836040518082815260200191505060405180910390a35b5b505050565b600060009054906101000a900473ffffffffffffffffffffffffffffffffffffffff1673ffffffffffffffffffffffffffffffffffffffff163373ffffffffffffffffffffffffffffffffffffffff16141561034b578273ffffffffffffffffffffffffffffffffffffffff1663b214faa58284604051837c01000000000000000000000000000000000000000000000000000000000281526004018082815260200191505060006040518083038185886185025a03f11561000257505050508273ffffffffffffffffffffffffffffffffffffffff16847f260c3af1b30cb645202dd6dbf41affda680b1ffebd32d401b7f121c2b92626808484604051808381526020018281526020019250505060405180910390a35b5b5050505056",
      "r": "0xb29c1209987586be116785d6407029a65eb1999e12271b2fd089c0757448da96",
      "s": "0x454cd51af8aa4addd1fbd808378a0597a1f99f5b3ab5dbdbbd74b18b878af631",
      "v": 28,
      "creates": "0x8F41Cc0D0Af401e9BEA4bA12C58697aFFd826722",
      "raw": "0xf903e504850dd29259ff830445c08080b9039260606040525b33600060006101000a81548173ffffffffffffffffffffffffffffffffffffffff021916908302179055505b610352806100406000396000f30060606040523615610053576000357c0100000000000000000000000000000000000000000000000000000000900480633feb1bd8146100aa5780636042a760146100c9578063b214faa5146100ee57610053565b6100a85b3373ffffffffffffffffffffffffffffffffffffffff167fceaafb6781e240ba6b317a906047690d1c227df2d967ff3f53b44f14a62c2cab346040518082815260200191505060405180910390a25b565b005b6100c7600480359060200180359060200180359060200150610154565b005b6100ec600480359060200180359060200180359060200180359060200150610233565b005b6100ff600480359060200150610101565b005b803373ffffffffffffffffffffffffffffffffffffffff167f19dacbf83c5de6658e14cbf7bcae5c15eca2eedecf1c66fbca928e4d351bea0f346040518082815260200191505060405180910390a35b50565b600060009054906101000a900473ffffffffffffffffffffffffffffffffffffffff1673ffffffffffffffffffffffffffffffffffffffff163373ffffffffffffffffffffffffffffffffffffffff16141561022d578173ffffffffffffffffffffffffffffffffffffffff16600082604051809050600060405180830381858888f19350505050508173ffffffffffffffffffffffffffffffffffffffff16837f4c13017ee95afc4bbd8a701dd9fbc9733f1f09f5a1b5438b5b9abd48e4c92d78836040518082815260200191505060405180910390a35b5b505050565b600060009054906101000a900473ffffffffffffffffffffffffffffffffffffffff1673ffffffffffffffffffffffffffffffffffffffff163373ffffffffffffffffffffffffffffffffffffffff16141561034b578273ffffffffffffffffffffffffffffffffffffffff1663b214faa58284604051837c01000000000000000000000000000000000000000000000000000000000281526004018082815260200191505060006040518083038185886185025a03f11561000257505050508273ffffffffffffffffffffffffffffffffffffffff16847f260c3af1b30cb645202dd6dbf41affda680b1ffebd32d401b7f121c2b92626808484604051808381526020018281526020019250505060405180910390a35b5b50505050561ca0b29c1209987586be116785d6407029a65eb1999e12271b2fd089c0757448da96a0454cd51af8aa4addd1fbd808378a0597a1f99f5b3ab5dbdbbd74b18b878af631",
      "networkId": 0,
      "chainId": 0
    }
  ]
}