{
  "hash": "0x93cadd7481a9c1b2ab636b8a2a51ccef10007a112ff6dad23f95ac93f327c87f",
  "parentHash": "0xb9bc92cdfc726fbb3f195afa54e2e929e5d8e5be4d0e84a546385bf32a475c02",
  "number": 98887,
  "timestamp": 1439780573,
  "nonce": "0xa95beca671662d2c",
  "difficulty": 3866763304684,
  "gasLimit": {
    "_hex": "0x2fefd8"
  },
  "gasUsed": {
    "_hex": "0x5208"
  },
  "miner": "0x7E6930B63D03e88F5928C5cd6ee3FCee4D714F7F",
  "extraData": "0x",
  "transactions": [
    {
      "hash": "0xb99aeb218f46c26e1ab48364483361efad389df928a2d6d45102a69c824b9898",
      "blockHash": "0x93cadd7481a9c1b2ab636b8a2a51ccef10007a112ff6dad23f95ac93f327c87f",
      "blockNumber": 98887,
      "transactionIndex": 0,
      "confirmations": null,
      "from": "0x007f7f58D3eb5b7510A301eCC749FC1fCDDBE14D",
      "gasPrice": {
        "_hex": "0xe0cfe7246"
      },
      "gasLimit": {
        "_hex": "0x15f90"
      },
      "to": "0xb1abce2918E21ddb93AA452731a12672A3d9F75a",
      "value": {
        "_hex": "0x4563918244f40000"
      },
      "nonce": 138,
      "data": "0x",
      "r": "0x0edd03161024a2c33d9dc1d740efa1b4409539856434a83359b70bc676e90970",
      "s": "0x0975ec5788c11854f15de0cbaffcb2b06871bceaafc622efd0e99997812b788f",
      "v": 27,
      "creates": null,
      "raw": "0xf86e818a850e0cfe724683015f9094b1abce2918e21ddb93aa452731a12672a3d9f75a884563918244f40000801ba00edd03161024a2c33d9dc1d740efa1b4409539856434a83359b70bc676e90970a00975ec5788c11854f15de0cbaffcb2b06871bceaafc622efd0e99997812b788f",
      "networkId": 0,
      "chainId": 0
    }
  ]
}