{
  "hash": "0x7b7cca208b2d082ca2d743b3f7e16bfe24a77934dcc3522bdd944942e21f5783",
  "parentHash": "0xe0bac77fa36443ee38e0174fe973ee07637bc227853ddf8be10c11622535d083",
  "number": 72274,
  "timestamp": 1439350193,
  "nonce": "0xec250b09f06ea67a",
  "difficulty": 2170643932822,
  "gasLimit": {
    "_hex": "0x2fefd8"
  },
  "gasUsed": {
    "_hex": "0x5208"
  },
  "miner": "0x88D74a59454F6cF3B51ef6b9136AFb6b9D405A88",
  "extraData": "0x476574682f76312e302e312d37666266393930632f6c696e75782f676f312e34",
  "transactions": [
    {
      "hash": "0x84d62a8e727ca7b89466ff7be3023d0405675c60ba7d5cd281a22a1dc1077ef8",
      "blockHash": "0x7b7cca208b2d082ca2d743b3f7e16bfe24a77934dcc3522bdd944942e21f5783",
      "blockNumber": 72274,
      "transactionIndex": 0,
      "confirmations": null,
      "from": "0x32Be343B94f860124dC4fEe278FDCBD38C102D88",
      "gasPrice": {
        "_hex": "0xd9d900a6f"
      },
      "gasLimit": {
        "_hex": "0x5208"
      },
      "to": "0x120A270bbC009644e35F0bB6ab13f95b8199c4ad",
      "value": {
        "_hex": "0x1b1ae4d6e2ef5000000"
      },
      "nonce": 278,
      "data": "0x",
      "r": "0x461b6e0a9ef397e41ae57b62b024f35a82840348dd5742fcd0e1ecb24448083d",
      "s": "0x072ea8f7d1ccdda21e8b07e9660d5742d7d7882dfde6ef10a0020819a17673cb",
      "v": 28,
      "creates": null,
      "raw": "0xf870820116850d9d900a6f82520894120a270bbc009644e35f0bb6ab13f95b8199c4ad8a01b1ae4d6e2ef5000000801ca0461b6e0a9ef397e41ae57b62b024f35a82840348dd5742fcd0e1ecb24448083da0072ea8f7d1ccdda21e8b07e9660d5742d7d7882dfde6ef10a0020819a17673cb",
      "networkId": 0,
      "chainId": 0
    }
  ]
}