{
  "hash": "0x56c26f9438e265aacf1f7a0021bb3d276429e1a9cf333a737ba8b9d891825694",
  "parentHash": "0x4463b3bb0df61e61d9597823bd5f5d6085801effb4cf4ad284e7743a9b545e5c",
  "number": 57582,
  "timestamp": 1439105992,
  "nonce": "0xed19741d09e658f6",
  "difficulty": 1731929680923,
  "gasLimit": {
    "_hex": "0x2fefd8"
  },
  "gasUsed": {
    "_hex": "0x5208"
  },
  "miner": "0x123843545FB525C8E134c9A5F15ADA6865cc3848",
  "extraData": "0x476574682f76312e302e312f77696e646f77732f676f312e342e32",
  "transactions": [
    {
      "hash": "0xeaa7eb2f65df44414fda12c55f466fd773b0f4b972c1be7a3d4ac5484c92beb1",
      "blockHash": "0x56c26f9438e265aacf1f7a0021bb3d276429e1a9cf333a737ba8b9d891825694",
      "blockNumber": 57582,
      "transactionIndex": 0,
      "confirmations": null,
      "from": "0x0Db50d943315f83aa62d0cB2a6D1Eb6c1d0538FD",
      "gasPrice": {
        "_hex": "0xd18eac465"
      },
      "gasLimit": {
        "_hex": "0x5208"
      },
      "to": "0x32Be343B94f860124dC4fEe278FDCBD38C102D88",
      "value": {
        "_hex": "0xad6663d9093c00"
      },
      "nonce": 0,
      "data": "0x",
      "r": "0x4dbbcb814e23f0badd481f794afafece28ded8f5418e51d18b927a97934627a8",
      "s": "0x69fa6581953b2f4a9e8dfb98ff9580828e042c7c066a93abe8cbffe2277c32b8",
      "v": 28,
      "creates": null,
      "raw": "0xf86b80850d18eac4658252089432be343b94f860124dc4fee278fdcbd38c102d8887ad6663d9093c00801ca04dbbcb814e23f0badd481f794afafece28ded8f5418e51d18b927a97934627a8a069fa6581953b2f4a9e8dfb98ff9580828e042c7c066a93abe8cbffe2277c32b8",
      "networkId": 0,
      "chainId": 0
    }
  ]
}