{
  "hash": "0xb51940820e146087ac7edaec76b36c2a2bafa49780168fb494ab6807a19201d3",
  "parentHash": "0x6bcd564832e770bbb4294af84833ef1d7fe4d86e9a64a6dda465af177533b4e3",
  "number": 73846,
  "timestamp": 1439376035,
  "nonce": "0x0e78a67ffbe5fe17",
  "difficulty": 2226046398994,
  "gasLimit": {
    "_hex": "0x2fefd8"
  },
  "gasUsed": {
    "_hex": "0x14820"
  },
  "miner": "0xe6A7a1d47ff21B6321162AEA7C6CB457D5476Bca",
  "extraData": "0x476574682f76312e302e312d38326566323666362f6c696e75782f676f312e34",
  "transactions": [
    {
      "hash": "0x39028e1ecfc526d49ee5f504c8fa7870f639e5184365421c1df9be424df8971a",
      "blockHash": "0xb51940820e146087ac7edaec76b36c2a2bafa49780168fb494ab6807a19201d3",
      "blockNumber": 73846,
      "transactionIndex": 0,
      "confirmations": null,
      "from": "0xF109ca710C0Df51c1a86dBA1B0BA0Ed038114463",
      "gasPrice": {
        "_hex": "0xe03bdf552"
      },
      "gasLimit": {
        "_hex": "0x5208"
      },
      "to": "0x32Be343B94f860124dC4fEe278FDCBD38C102D88",
      "value": {
        "_hex": "0xd02636e38fad7000"
      },
      "nonce": 7,
      "data": "0x",
      "r": "0x7ea5fad6dab42466e3a31acb73e238279be377e5cfc25f716db633ad69cfd866",
      "s": "0x148ae9559b047001bd7c6fedf66eca37d4c3ed5df2dbd4b4033fa6b60ea7071d",
      "v": 27,
      "creates": null,
      "raw": "0xf86c07850e03bdf5528252089432be343b94f860124dc4fee278fdcbd38c102d8888d02636e38fad7000801ba07ea5fad6dab42466e3a31acb73e238279be377e5cfc25f716db633ad69cfd866a0148ae9559b047001bd7c6fedf66eca37d4c3ed5df2dbd4b4033fa6b60ea7071d",
      "networkId": 0,
      "chainId": 0
    },
    {
      "hash": "0x601541963835545559fb72f9cb51656395fbdcdfc51099c333b50e4098bda02c",
      "blockHash": "0xb51940820e146087ac7edaec76b36c2a2bafa49780168fb494ab6807a19201d3",
      "blockNumber": 73846,
      "transactionIndex": 1,
      "confirmations": null,
      "from": "0xa114c802ef29776f05f9c6925cE915232e8ae102",
      "gasPrice": {
        "_hex": "0xe03bdf552"
      },
      "gasLimit": {
        "_hex": "0x5208"
      },
      "to": "0x32Be343B94f860124dC4fEe278FDCBD38C102D88",
      "value": {
        "_hex": "0x455f13df05c57000"
      },
      "nonce": 6,
      "data": "0x",
      "r": "0x9dfdd6f8ef134ecd2865adc4f2f0471fed70395bddc1066ef11b27fde7a527ba",
      "s": "0x7c870971f479a33c28e16bef3a8e5d568c4561acd287292ede8c1c33dc0d071c",
      "v": 28,
      "creates": null,
      "raw": "0xf86c06850e03bdf5528252089432be343b94f860124dc4fee278fdcbd38c102d8888455f13df05c57000801ca09dfdd6f8ef134ecd2865adc4f2f0471fed70395bddc1066ef11b27fde7a527baa07c870971f479a33c28e16bef3a8e5d568c4561acd287292ede8c1c33dc0d071c",
      "networkId": 0,
      "chainId": 0
    },
    {
      "hash": "0xa08b4b50b98771aeda03584a5bdea76b03ff5f4bcbc898e6d437bfcbad340e7c",
      "blockHash": "0xb51940820e146087ac7edaec76b36c2a2bafa49780168fb494ab6807a19201d3",
      "blockNumber": 73846,
      "transactionIndex": 2,
      "confirmations": null,
      "from": "0xe3A29c590ae7Bf0D32A7121373bf5C94ADbeCa4a",
      "gasPrice": {
        "_hex": "0xe03bdf552"
      },
      "gasLimit": {
        "_hex": "0x5208"
      },
      "to": "0x32Be343B94f860124dC4fEe278FDCBD38C102D88",
      "value": {
        "_hex": "0xd369f795ce7ab80000"
      },
      "nonce": 1,
      "data": "0x",
      "r": "0xe3e3ec2e57bf3d452e69ec26ad569d075e573b7a98ade1fde136c02c2cfd712d",
      "s": "0x0d395cb1646993b2281b41082ca342a72beb193c5a63e2a7798db3f0f1919fce",
      "v": 28,
      "creates": null,
      "raw": "0xf86d01850e03bdf5528252089432be343b94f860124dc4fee278fdcbd38c102d8889d369f795ce7ab80000801ca0e3e3ec2e57bf3d452e69ec26ad569d075e573b7a98ade1fde136c02c2cfd712da00d395cb1646993b2281b41082ca342a72beb193c5a63e2a7798db3f0f1919fce",
      "networkId": 0,
      "chainId": 0
    },
    {
      "hash": "0x0b1b91ffb10aeae33617a4bb9fd02ec369ada587ed8c0a13b154099f2cc97bee",
      "blockHash": "0xb51940820e146087ac7edaec76b36c2a2bafa49780168fb494ab6807a19201d3",
      "blockNumber": 73846,
      "transactionIndex": 3,
      "confirmations": null,
      "from": "0x32Be343B94f860124dC4fEe278FDCBD38C102D88",
      "gasPrice": {
        "_hex": "0xe03bdf552"
      },
      "gasLimit": {
        "_hex": "0x5208"
      },
      "to": "0x4BD5f0Ee173C81d42765154865EE69361b6aD189",
      "value": {
        "_hex": "0x1043329395b96f0000"
      },
      "nonce": 311,
      "data": "0x",
      "r": "0x7e585504a1fa8306072e8470f945523f78ab47a5924b9d94d55929262ae1f016",
      "s": "0x10a5457851464dc820d6bf230146a348e0037827a87e6af7e9449af4e43a4fe2",
      "v": 28,
      "creates": null,
      "raw": "0xf86f820137850e03bdf552825208944bd5f0ee173c81d42765154865ee69361b6ad189891043329395b96f0000801ca07e585504a1fa8306072e8470f945523f78ab47a5924b9d94d55929262ae1f016a010a5457851464dc820d6bf230146a348e0037827a87e6af7e9449af4e43a4fe2",
      "networkId": 0,
      "chainId": 0
    }
  ]
}