{
  "hash": "0xa85c3ffa66bc8bba7e1dbb3c8e39e867458b7664caf6f8260417375d17ec42e6",
  "parentHash": "0x2ecb23c38a0f64233d7a775076ea03390d88a23cb412f57dc09ce1cd1872e6ba",
  "number": 52623,
  "timestamp": 1439024629,
  "nonce": "0x2809f475ed1f2345",
  "difficulty": 1567888334513,
  "gasLimit": {
    "_hex": "0x167a04"
  },
  "gasUsed": {
    "_hex": "0xf4240"
  },
  "miner": "0xf927a40C8B7F6E07c5af7FA2155B4864a4112B13",
  "extraData": "0x476574682f76312e302e312f6c696e75782f676f312e342e32",
  "transactions": [
    {
      "hash": "0x18717fd9136b367a3d3e15baa7dea65405ac786436bfe42d66c66093e83ccc5a",
      "blockHash": "0xa85c3ffa66bc8bba7e1dbb3c8e39e867458b7664caf6f8260417375d17ec42e6",
      "blockNumber": 52623,
      "transactionIndex": 0,
      "confirmations": null,
      "from": "0x54dAeb3E8a6BBC797E4aD2b0339f134b186e4637",
      "gasPrice": {
        "_hex": "0xd8bd64e50"
      },
      "gasLimit": {
        "_hex": "0x7a120"
      },
      "to": "0xBAA54d6E90c3F4d7Ebec11bD180134C7eD8eBb52",
      "value": {
        "_hex": "0x16345785d8a0000"
      },
      "nonce": 808,
      "data": "0x",
      "r": "0x02112c143a5b436c3e46b435c9b128ca834f1152758b87ab1907efcacd4512da",
      "s": "0x00ca815d39e2436ef3035a6a8b6eaddcbbe316a5acfd64baa36b6b143c385a2c",
      "v": 27,
      "creates": null,
      "raw": "0xf86e820328850d8bd64e508307a12094baa54d6e90c3f4d7ebec11bd180134c7ed8ebb5288016345785d8a0000801ba002112c143a5b436c3e46b435c9b128ca834f1152758b87ab1907efcacd4512da9fca815d39e2436ef3035a6a8b6eaddcbbe316a5acfd64baa36b6b143c385a2c",
      "networkId": 0,
      "chainId": 0
    },
    {
      "hash": "0x7dca7a293a59b7ddae11758c7b5e1f9bd135af0b8996e33abb24d1287d725b09",
      "blockHash": "0xa85c3ffa66bc8bba7e1dbb3c8e39e867458b7664caf6f8260417375d17ec42e6",
      "blockNumber": 52623,
      "transactionIndex": 1,
      "confirmations": null,
      "from": "0x54dAeb3E8a6BBC797E4aD2b0339f134b186e4637",
      "gasPrice": {
        "_hex": "0xe7d27df17"
      },
      "gasLimit": {
        "_hex": "0x7a120"
      },
      "to": "0xBAA54d6E90c3F4d7Ebec11bD180134C7eD8eBb52",
      "value": {
        "_hex": "0x16345785d8a0000"
      },
      "nonce": 809,
      "data": "0x",
      "r": "0x1ee28e4222d1bacc6813d8e73ab2177d4331685a602a01a74a6f0c89e1ff06dc",
      "s": "0x172bd22c568273d55e0a9b1b72180fefc05431e71c7bced69498810148ee3f64",
      "v": 28,
      "creates": null,
      "raw": "0xf86f820329850e7d27df178307a12094baa54d6e90c3f4d7ebec11bd180134c7ed8ebb5288016345785d8a0000801ca01ee28e4222d1bacc6813d8e73ab2177d4331685a602a01a74a6f0c89e1ff06dca0172bd22c568273d55e0a9b1b72180fefc05431e71c7bced69498810148ee3f64",
      "networkId": 0,
      "chainId": 0
    }
  ]
}