{
  "hash": "0x53d3a51aa4689f078dc08cdb0ae6815c44fc6adf43b9dc5382910405668b7b1d",
  "parentHash": "0x52981087637b7dbf2c0b1f75b8d3db06a7a1c9683aee17cf0d9fbce12f7445e1",
  "number": 65844,
  "timestamp": 1439243767,
  "nonce": "0xf01cb6063f53ef21",
  "difficulty": 1949147186218,
  "gasLimit": {
    "_hex": "0x2fefd2"
  },
  "gasUsed": {
    "_hex": "0x546c"
  },
  "miner": "0x9D49F602b0fdb924Bd63DDE2Bd0907E4A07c63a7",
  "extraData": "0x476574682f76312e302e312f6c696e75782f676f312e342e32",
  "transactions": [
    {
      "hash": "0x6788c9700c109237a4e61e4bc00cc290a701a4464cff56f3c655523d1c931d83",
      "blockHash": "0x53d3a51aa4689f078dc08cdb0ae6815c44fc6adf43b9dc5382910405668b7b1d",
      "blockNumber": 65844,
      "transactionIndex": 0,
      "confirmations": null,
      "from": "0xBfFB35C960240a54806a528fDC693885f494ef4A",
      "gasPrice": {
        "_hex": "0xd641f460d"
      },
      "gasLimit": {
        "_hex": "0x55f0"
      },
      "to": "0x2910543Af39abA0Cd09dBb2D50200b3E800A63D2",
      "value": {
        "_hex": "0x4563918244f40000"
      },
      "nonce": 0,
      "data": "0x454e34323133573638",
      "r": "0x99afbc1202e6a9f568a61d7698d0e8d6ff7f5937f4bc42358a0147a29de7d1b9",
      "s": "0x7968a52817302fa81b226601661aaafad7338b9e51a30f04a042aba337ea906a",
      "v": 28,
      "creates": null,
      "raw": "0xf87580850d641f460d8255f0942910543af39aba0cd09dbb2d50200b3e800a63d2884563918244f4000089454e343231335736381ca099afbc1202e6a9f568a61d7698d0e8d6ff7f5937f4bc42358a0147a29de7d1b9a07968a52817302fa81b226601661aaafad7338b9e51a30f04a042aba337ea906a",
      "networkId": 0,
      "chainId": 0
    }
  ]
}