{
  "hash": "0x5a10fe9d92d20a331979bea06c82e259befe507ecff7a86e09365b952e665dfb",
  "parentHash": "0x88d55332c95a330e827fc190c0be8cd212b9e2043b5fc2ddadf3b18acd42a9a9",
  "number": 53706,
  "timestamp": 1439042276,
  "nonce": "0x935acb2f445cdd12",
  "difficulty": 1593151106525,
  "gasLimit": {
    "_hex": "0x2feab1"
  },
  "gasUsed": {
    "_hex": "0x5208"
  },
  "miner": "0x47ff6576639c2e94762eA5443978D7681C0E78DC",
  "extraData": "0x476574682f76312e302e312f6c696e75782f676f312e342e32",
  "transactions": [
    {
      "hash": "0xff698865835f45e75ababd64a846f675ee3e09c0c1326d94b6da8a12e3d311ce",
      "blockHash": "0x5a10fe9d92d20a331979bea06c82e259befe507ecff7a86e09365b952e665dfb",
      "blockNumber": 53706,
      "transactionIndex": 0,
      "confirmations": null,
      "from": "0x0037ce3d4B7f8729C8607D8D0248252Be68202c0",
      "gasPrice": {
        "_hex": "0xcb9aabfb9"
      },
      "gasLimit": {
        "_hex": "0x15f90"
      },
      "to": "0xDC6A542F97876923583019b526335fD1fB0DfC6A",
      "value": {
        "_hex": "0x2b5e3af16b1880000"
      },
      "nonce": 5,
      "data": "0x",
      "r": "0x844b20114fff79a05ee84f3a4d6987dc772a106ed56f5cb6a6b739c8e7ecd48f",
      "s": "0x20715ea6177dec4dfec8d04715436ca4106e323b222bb7f4dae98eb67d408e59",
      "v": 28,
      "creates": null,
      "raw": "0xf86e05850cb9aabfb983015f9094dc6a542f97876923583019b526335fd1fb0dfc6a8902b5e3af16b1880000801ca0844b20114fff79a05ee84f3a4d6987dc772a106ed56f5cb6a6b739c8e7ecd48fa020715ea6177dec4dfec8d04715436ca4106e323b222bb7f4dae98eb67d408e59",
      "networkId": 0,
      "chainId": 0
    }
  ]
}