{
  "hash": "0x53c891048fd3dbbc533ea6065cd353bcf69136fcdacf1b7f8857670f14c4e930",
  "parentHash": "0xb527bb07e8cce298ec8dc1c0114b2610c072d57978b6e9ec0e27acd34b32555b",
  "number": 111783,
  "timestamp": 1439996094,
  "nonce": "0x9e750d042ae89cb8",
  "difficulty": 4435109762160,
  "gasLimit": {
    "_hex": "0x2fefd8"
  },
  "gasUsed": {
    "_hex": "0x5208"
  },
  "miner": "0xe6A7a1d47ff21B6321162AEA7C6CB457D5476Bca",
  "extraData": "0x476574682f76312e302e312d38326566323666362f6c696e75782f676f312e34",
  "transactions": [
    {
      "hash": "0x5736dfee573d673a97330c1b2edde8c26fedd0294059cc646f3f0ea45710186c",
      "blockHash": "0x53c891048fd3dbbc533ea6065cd353bcf69136fcdacf1b7f8857670f14c4e930",
      "blockNumber": 111783,
      "transactionIndex": 0,
      "confirmations": null,
      "from": "0x02d7FFc396D24b1dBfca72ce1ae8a22dfa5DA000",
      "gasPrice": {
        "_hex": "0xdc9ed5870"
      },
      "gasLimit": {
        "_hex": "0x5208"
      },
      "to": "0xFBb1b73C4f0BDa4f67dcA266ce6Ef42f520fBB98",
      "value": {
        "_hex": "0x6751ad5c3b6c95c80"
      },
      "nonce": 2,
      "data": "0x",
      "r": "0x0c98eea11f212238536c9f48acf43218dc69717c478cac136b2e818afa5eeda1",
      "s": "0x7ae3360c7b7aab6b239dd5b1e2661c1dbf165c2bbad9ec88644a84b04e6d877d",
      "v": 27,
      "creates": null,
      "raw": "0xf86d02850dc9ed587082520894fbb1b73c4f0bda4f67dca266ce6ef42f520fbb988906751ad5c3b6c95c80801ba00c98eea11f212238536c9f48acf43218dc69717c478cac136b2e818afa5eeda1a07ae3360c7b7aab6b239dd5b1e2661c1dbf165c2bbad9ec88644a84b04e6d877d",
      "networkId": 0,
      "chainId": 0
    }
  ]
}