{
  "hash": "0x63aa6bf480dc403eb8cbd6cd88945ca0999a2bedd709d7c6e46af89af5c44a0a",
  "parentHash": "0x9773aec585ce0e9536a6a88c594ae2290c4f6937230578127f5daab0400e61cd",
  "number": 66756,
  "timestamp": 1439259818,
  "nonce": "0x5a08081ff3b51125",
  "difficulty": 1943233872597,
  "gasLimit": {
    "_hex": "0x2fefd8"
  },
  "gasUsed": {
    "_hex": "0x5208"
  },
  "miner": "0x88D74a59454F6cF3B51ef6b9136AFb6b9D405A88",
  "extraData": "0x476574682f76312e302e312d38326566323666362f6c696e75782f676f312e34",
  "transactions": [
    {
      "hash": "0x94ec70d9fa123a184b5a357cd29c6bce2ca28727e3ee6d56122bfa990c993cc9",
      "blockHash": "0x63aa6bf480dc403eb8cbd6cd88945ca0999a2bedd709d7c6e46af89af5c44a0a",
      "blockNumber": 66756,
      "transactionIndex": 0,
      "confirmations": null,
      "from": "0x17f8255F73211f9129a7E93250e8B7DF5D7F752d",
      "gasPrice": {
        "_hex": "0xdc82b72bd"
      },
      "gasLimit": {
        "_hex": "0x5208"
      },
      "to": "0x32Be343B94f860124dC4fEe278FDCBD38C102D88",
      "value": {
        "_hex": "0x455f26f62343dc00"
      },
      "nonce": 4,
      "data": "0x",
      "r": "0x182c4ea6cdcdaaf46d1b09deee7ea5fc9b01bb842c51b7e4eb6e144e969bdbec",
      "s": "0x2f118f0e1a2e664d46885a3bfff69677bdf1e34cf5a0021c9d80cc86843af563",
      "v": 27,
      "creates": null,
      "raw": "0xf86c04850dc82b72bd8252089432be343b94f860124dc4fee278fdcbd38c102d8888455f26f62343dc00801ba0182c4ea6cdcdaaf46d1b09deee7ea5fc9b01bb842c51b7e4eb6e144e969bdbeca02f118f0e1a2e664d46885a3bfff69677bdf1e34cf5a0021c9d80cc86843af563",
      "networkId": 0,
      "chainId": 0
    }
  ]
}