{
  "hash": "0x50f68eb0b1bf0fb91baa8d8f195ad6f7779a003c516135692b130f9b341f0399",
  "parentHash": "0x7f0eed460cb937440e0f010325bf7b318d62f9c48b4727931d38da4483aa5e19",
  "number": 103185,
  "timestamp": 1439849202,
  "nonce": "0xe296898829913181",
  "difficulty": 4182909298662,
  "gasLimit": {
    "_hex": "0x2fefd8"
  },
  "gasUsed": {
    "_hex": "0xa410"
  },
  "miner": "0xe6A7a1d47ff21B6321162AEA7C6CB457D5476Bca",
  "extraData": "0x476574682f76312e302e312d38326566323666362f6c696e75782f676f312e34",
  "transactions": [
    {
      "hash": "0xc5239b4df9fc12e40b80461c4146b23e4dffe507c4a05002f0d96b2abb170f9e",
      "blockHash": "0x50f68eb0b1bf0fb91baa8d8f195ad6f7779a003c516135692b130f9b341f0399",
      "blockNumber": 103185,
      "transactionIndex": 0,
      "confirmations": null,
      "from": "0x3bFc4B3A53996526FA62CD808a89424B6957013c",
      "gasPrice": {
        "_hex": "0xd2208d0ed"
      },
      "gasLimit": {
        "_hex": "0x5208"
      },
      "to": "0x32Be343B94f860124dC4fEe278FDCBD38C102D88",
      "value": {
        "_hex": "0x2583687fed12d800"
      },
      "nonce": 2,
      "data": "0x",
      "r": "0xcad5ea7b0396421b0469da78b758352c596b40439dc1d337368460e557f60c86",
      "s": "0x60526f75920f0a225bf6529a1edce36066248c957a0d40cc3b812f9dd6fa7ccd",
      "v": 28,
      "creates": null,
      "raw": "0xf86c02850d2208d0ed8252089432be343b94f860124dc4fee278fdcbd38c102d88882583687fed12d800801ca0cad5ea7b0396421b0469da78b758352c596b40439dc1d337368460e557f60c86a060526f75920f0a225bf6529a1edce36066248c957a0d40cc3b812f9dd6fa7ccd",
      "networkId": 0,
      "chainId": 0
    },
    {
      "hash": "0x210aaacbd91d4373fd226036d30eed601ce91a42c3c7b2d1f0612038cfecee75",
      "blockHash": "0x50f68eb0b1bf0fb91baa8d8f195ad6f7779a003c516135692b130f9b341f0399",
      "blockNumber": 103185,
      "transactionIndex": 1,
      "confirmations": null,
      "from": "0xfE439e496730A23d448f85fA219972ea04793aB7",
      "gasPrice": {
        "_hex": "0xd2208d0ed"
      },
      "gasLimit": {
        "_hex": "0x5208"
      },
      "to": "0x32Be343B94f860124dC4fEe278FDCBD38C102D88",
      "value": {
        "_hex": "0xddc8163198fb000"
      },
      "nonce": 8,
      "data": "0x",
      "r": "0x6474d8174b1d51990ea0a846b09b27d07383d8056b85536b11c057df3740e154",
      "s": "0x0db9dc8957d2e39e0d7fa7fc4c3d8fd44f18f49ed5cfdf483227e2c1e89cedb4",
      "v": 27,
      "creates": null,
      "raw": "0xf86c08850d2208d0ed8252089432be343b94f860124dc4fee278fdcbd38c102d88880ddc8163198fb000801ba06474d8174b1d51990ea0a846b09b27d07383d8056b85536b11c057df3740e154a00db9dc8957d2e39e0d7fa7fc4c3d8fd44f18f49ed5cfdf483227e2c1e89cedb4",
      "networkId": 0,
      "chainId": 0
    }
  ]
}