{
  "hash": "0x35187c0592183df00949e1b3467dff09db17dbca817cd312e22fa7827bbc95b0",
  "parentHash": "0x361fdc4b579e22d26a65f51a3b94595a92abf6e6c40ae99fb057e73df96d9038",
  "number": 48651,
  "timestamp": 1438960461,
  "nonce": "0xea470a20464215d5",
  "difficulty": 1473592355079,
  "gasLimit": {
    "_hex": "0x1b520"
  },
  "gasUsed": {
    "_hex": "0x546c"
  },
  "miner": "0xF2d2AfF1320476cb8C6b607199D23175cc595693",
  "extraData": "0x476574682f76312e302e312f77696e646f77732f676f312e342e32",
  "transactions": [
    {
      "hash": "0x624e38ff10e7546658497e90565944b9ed30d91254ce8d6f380b8331eb252967",
      "blockHash": "0x35187c0592183df00949e1b3467dff09db17dbca817cd312e22fa7827bbc95b0",
      "blockNumber": 48651,
      "transactionIndex": 0,
      "confirmations": null,
      "from": "0xddf3AD76353810be6a89d731b787F6F17188612B",
      "gasPrice": {
        "_hex": "0xcd9ba2542"
      },
      "gasLimit": {
        "_hex": "0x15f90"
      },
      "to": "0x2910543Af39abA0Cd09dBb2D50200b3E800A63D2",
      "value": {
        "_hex": "0x1b1ae4d6e2ef500000"
      },
      "nonce": 1,
      "data": "0x454e4e475639304647",
      "r": "0xab7bd6b332933cef62171806c357b75944ad9ef05180f08155b1f4252ac81f84",
      "s": "0x39334936ed2a73dc4a71f2928af949acbfba60e0bee8537fbccc3fc24a49c880",
      "v": 28,
      "creates": null,
      "raw": "0xf87701850cd9ba254283015f90942910543af39aba0cd09dbb2d50200b3e800a63d2891b1ae4d6e2ef50000089454e4e4756393046471ca0ab7bd6b332933cef62171806c357b75944ad9ef05180f08155b1f4252ac81f84a039334936ed2a73dc4a71f2928af949acbfba60e0bee8537fbccc3fc24a49c880",
      "networkId": 0,
      "chainId": 0
    }
  ]
}