{
  "hash": "0x39f41d5654c608f8ec20f0330dc1ed9f3f0af8f4fd3c4e8e6ee45816484c826c",
  "parentHash": "0xf7a9037cf6d11754b5f23290dab76fe17f9d56436667fc6303726cc4652c47dc",
  "number": 106840,
  "timestamp": 1439911567,
  "nonce": "0xe5f1ba94e0d10fd0",
  "difficulty": 4422581817228,
  "gasLimit": {
    "_hex": "0x2fefd8"
  },
  "gasUsed": {
    "_hex": "0x1bdbe"
  },
  "miner": "0xe6A7a1d47ff21B6321162AEA7C6CB457D5476Bca",
  "extraData": "0x476574682f76312e302e312d38326566323666362f6c696e75782f676f312e34",
  "transactions": [
    {
      "hash": "0x13810a6c824d357905d1697f94d3eb8f6dbc8e9bf703c205ab3af726fa122ae9",
      "blockHash": "0x39f41d5654c608f8ec20f0330dc1ed9f3f0af8f4fd3c4e8e6ee45816484c826c",
      "blockNumber": 106840,
      "transactionIndex": 0,
      "confirmations": null,
      "from": "0x9de7386dDE401CE4c67b71b6553f8AA34eA5A17D",
      "gasPrice": {
        "_hex": "0xcd01555c5"
      },
      "gasLimit": {
        "_hex": "0x249f0"
      },
      "to": "0xE28e72FCf78647ADCe1F1252F240bbfaebD63BcC",
      "value": {
        "_hex": "0x8ac7230489e80000"
      },
      "nonce": 0,
      "data": "0x45466f3a",
      "r": "0x9d6a08eb03f832bbc550b82165ff841281adcf0673dd9ec17350333e22dba8c7",
      "s": "0x03d2efadc230cd61d2e7625ec2ca692dd1c785eaae13bea718b270d2251559b7",
      "v": 27,
      "creates": null,
      "raw": "0xf87180850cd01555c5830249f094e28e72fcf78647adce1f1252f240bbfaebd63bcc888ac7230489e800008445466f3a1ba09d6a08eb03f832bbc550b82165ff841281adcf0673dd9ec17350333e22dba8c7a003d2efadc230cd61d2e7625ec2ca692dd1c785eaae13bea718b270d2251559b7",
      "networkId": 0,
      "chainId": 0
    }
  ]
}