{
  "hash": "0xa6b274f007f5ac15dfd80993a66d87ccb7cf6dd5d6025baab5033a567c94d662",
  "parentHash": "0x82d76540317bc82a15d2a9cdd2fefaa782058483350f6d01cb96355fc4d9973e",
  "number": 113485,
  "timestamp": 1440024335,
  "nonce": "0x7b2dfaa5e97b54c9",
  "difficulty": 4464625821954,
  "gasLimit": {
    "_hex": "0x2fefd8"
  },
  "gasUsed": {
    "_hex": "0xa410"
  },
  "miner": "0xe6A7a1d47ff21B6321162AEA7C6CB457D5476Bca",
  "extraData": "0x476574682f76312e302e312d38326566323666362f6c696e75782f676f312e34",
  "transactions": [
    {
      "hash": "0x9e837b7f8b36c75b9734e32aa1884c2e4b78b6978c4268ecd6b8f71885ddce6f",
      "blockHash": "0xa6b274f007f5ac15dfd80993a66d87ccb7cf6dd5d6025baab5033a567c94d662",
      "blockNumber": 113485,
      "transactionIndex": 0,
      "confirmations": null,
      "from": "0x120A270bbC009644e35F0bB6ab13f95b8199c4ad",
      "gasPrice": {
        "_hex": "0xd153daf75"
      },
      "gasLimit": {
        "_hex": "0x3d090"
      },
      "to": "0x60d85a32126130b225913C23dF4e5EF8b759fA09",
      "value": {
        "_hex": "0x2825235b95964aa400"
      },
      "nonce": 909,
      "data": "0x",
      "r": "0x838366131f91d44fafcac972fbf267bdbf70033de6449858ba1af63812b96cce",
      "s": "0x5e84f33165363ce3257b0118c5cd318ac9740af9e14214a38d175069292ed79b",
      "v": 28,
      "creates": null,
      "raw": "0xf87082038d850d153daf758303d0909460d85a32126130b225913c23df4e5ef8b759fa09892825235b95964aa400801ca0838366131f91d44fafcac972fbf267bdbf70033de6449858ba1af63812b96ccea05e84f33165363ce3257b0118c5cd318ac9740af9e14214a38d175069292ed79b",
      "networkId": 0,
      "chainId": 0
    },
    {
      "hash": "0x3b30cfe3a76610fa458daa53aee809a54d7d9a7d70632657d34e97e6a6398425",
      "blockHash": "0xa6b274f007f5ac15dfd80993a66d87ccb7cf6dd5d6025baab5033a567c94d662",
      "blockNumber": 113485,
      "transactionIndex": 1,
      "confirmations": null,
      "from": "0x0a0a0a169A784a9B524d0d40f03552053B360F21",
      "gasPrice": {
        "_hex": "0xba43b7400"
      },
      "gasLimit": {
        "_hex": "0x5267"
      },
      "to": "0x1f1f1f6FAA77a31e6c9aeF1eF25A6F6819177EEB",
      "value": {
        "_hex": "0x156e127149000"
      },
      "nonce": 2,
      "data": "0x",
      "r": "0x2402a387f27c16d71baf493013e61f24ebedd0a8dc425ae1f3909de940fc7b1a",
      "s": "0x42f666875dd41b783cfd206e0264b4ad6f5325bb6d64037bbf5b8167c00ac133",
      "v": 28,
      "creates": null,
      "raw": "0xf86b02850ba43b7400825267941f1f1f6faa77a31e6c9aef1ef25a6f6819177eeb870156e127149000801ca02402a387f27c16d71baf493013e61f24ebedd0a8dc425ae1f3909de940fc7b1aa042f666875dd41b783cfd206e0264b4ad6f5325bb6d64037bbf5b8167c00ac133",
      "networkId": 0,
      "chainId": 0
    }
  ]
}