{
  "hash": "0x2692908330dd166b503f5a793762d52f89dde87653a6f380f952b2cec7050bf1",
  "parentHash": "0x2a15dcddb4fb174efda764c7e9d518fe6109484291a8888914f81af766a55f62",
  "number": 116883,
  "timestamp": 1440099305,
  "nonce": "0x513f4bdff390d470",
  "difficulty": 4317071191888,
  "gasLimit": {
    "_hex": "0x2fefd8"
  },
  "gasUsed": {
    "_hex": "0x29b69"
  },
  "miner": "0x580992B51e3925e23280EfB93d3047C82f17E038",
  "extraData": "0x",
  "transactions": [
    {
      "hash": "0x44df92f9b1eecfbc84bc8eb5cfe96b4f170af7ef2a2b3661808ed819f1a356c5",
      "blockHash": "0x2692908330dd166b503f5a793762d52f89dde87653a6f380f952b2cec7050bf1",
      "blockNumber": 116883,
      "transactionIndex": 0,
      "confirmations": null,
      "from": "0xB1a2B43A7433dd150BB82227eD519Cd6b142d382",
      "gasPrice": {
        "_hex": "0xba43b7400"
      },
      "gasLimit": {
        "_hex": "0x201d39"
      },
      "to": "0x816c42608bC6Ad894A7d788129c408A18241FF55",
      "value": {
        "_hex": "0x0"
      },
      "nonce": 20,
      "data": "0x797af6272679c41fdc339d0647ff15b1c051dafe671717098425d52166953fabad349c09",
      "r": "0x1fe1c5e28fe25f02a4d4688cea0a20945e4dea3fe928c60559bbbd1752acf71a",
      "s": "0x782d8bff5c8f35570934ad54373ce62819b461396eaefaea8919146803c89296",
      "v": 27,
      "creates": null,
      "raw": "0xf88914850ba43b740083201d3994816c42608bc6ad894a7d788129c408a18241ff5580a4797af6272679c41fdc339d0647ff15b1c051dafe671717098425d52166953fabad349c091ba01fe1c5e28fe25f02a4d4688cea0a20945e4dea3fe928c60559bbbd1752acf71aa0782d8bff5c8f35570934ad54373ce62819b461396eaefaea8919146803c89296",
      "networkId": 0,
      "chainId": 0
    },
    {
      "hash": "0x92c1aa45ffcd3ee2e6882979f53123f34627bdf7cd2bbf9c72da0bf65886a491",
      "blockHash": "0x2692908330dd166b503f5a793762d52f89dde87653a6f380f952b2cec7050bf1",
      "blockNumber": 116883,
      "transactionIndex": 1,
      "confirmations": null,
      "from": "0xc8ebccC5F5689Fa8659d83713341e5aD19349448",
      "gasPrice": {
        "_hex": "0xba43b7400"
      },
      "gasLimit": {
        "_hex": "0xf4240"
      },
      "to": null,
      "value": {
        "_hex": "0x0"
      },
      "nonce": 78,
      "data": "0x60606040525b33600060006101000a81548173ffffffffffffffffffffffffffffffffffffffff02191690830217905550610e1042016001600050819055505b61010c8061004e6000396000f30060606040526000357c01000000000000000000000000000000000000000000000000000000009004806355c87eb01461003957610037565b005b61004a60048035906020015061004c565b005b600060009054906101000a900473ffffffffffffffffffffffffffffffffffffffff1673ffffffffffffffffffffffffffffffffffffffff163373ffffffffffffffffffffffffffffffffffffffff161480156100ad575060016000505442115b1561010857600060009054906101000a900473ffffffffffffffffffffffffffffffffffffffff1673ffffffffffffffffffffffffffffffffffffffff16600082604051809050600060405180830381858888f19350505050505b5b5056",
      "r": "0x1c445ecc0d08c78d80e75b6002fe6f1130bb47552515c26df0e95651f9ff3063",
      "s": "0x1a74b87914b9ea9a2b05b485ad5c8905aed58d1f7ffbe4a71bc4dce201dd3620",
      "v": 28,
      "creates": "0xE6F13C5Af166f8C732873Ae069f53Fa4cbF1230f",
      "raw": "0xf901ad4e850ba43b7400830f42408080b9015a60606040525b33600060006101000a81548173ffffffffffffffffffffffffffffffffffffffff02191690830217905550610e1042016001600050819055505b61010c8061004e6000396000f30060606040526000357c01000000000000000000000000000000000000000000000000000000009004806355c87eb01461003957610037565b005b61004a60048035906020015061004c565b005b600060009054906101000a900473ffffffffffffffffffffffffffffffffffffffff1673ffffffffffffffffffffffffffffffffffffffff163373ffffffffffffffffffffffffffffffffffffffff161480156100ad575060016000505442115b1561010857600060009054906101000a900473ffffffffffffffffffffffffffffffffffffffff1673ffffffffffffffffffffffffffffffffffffffff16600082604051809050600060405180830381858888f19350505050505b5b50561ca01c445ecc0d08c78d80e75b6002fe6f1130bb47552515c26df0e95651f9ff3063a01a74b87914b9ea9a2b05b485ad5c8905aed58d1f7ffbe4a71bc4dce201dd3620",
      "networkId": 0,
      "chainId": 0
    }
  ]
}