{
  "hash": "0xf1c7ca51feb17aff31140606d9cb30a3588941bc3b00bd81a80722c8f14fdf70",
  "parentHash": "0x55854ba9ab72463bea98258b0e768d3d4293a93d88432af3f02a170e01544dcc",
  "number": 121892,
  "timestamp": 1440184467,
  "nonce": "0x73eeb1fcbb7e49a3",
  "difficulty": 4475424397896,
  "gasLimit": {
    "_hex": "0x2fefd8"
  },
  "gasUsed": {
    "_hex": "0x38658"
  },
  "miner": "0xe6A7a1d47ff21B6321162AEA7C6CB457D5476Bca",
  "extraData": "0xd783010002844765746887676f312e342e32856c696e7578",
  "transactions": [
    {
      "hash": "0x611f260d88b088626c3116327f1e8bcf58800c4a33852ebe65c4de3a183d2e70",
      "blockHash": "0xf1c7ca51feb17aff31140606d9cb30a3588941bc3b00bd81a80722c8f14fdf70",
      "blockNumber": 121892,
      "transactionIndex": 0,
      "confirmations": null,
      "from": "0x4b0a38C16B842d68A8721B4CAd662e07cc430652",
      "gasPrice": {
        "_hex": "0xcf1a0ac4c"
      },
      "gasLimit": {
        "_hex": "0x5208"
      },
      "to": "0x32Be343B94f860124dC4fEe278FDCBD38C102D88",
      "value": {
        "_hex": "0x263fe04415aba000"
      },
      "nonce": 13,
      "data": "0x",
      "r": "0x05be9ec0d2dfbcc0a778127ef323fab3364cb9148fd916176b95ff134c167ce8",
      "s": "0x42b6dfd7d0a1d2cd11c02d8c41b20964e4e3e2a454fa7e6d1f7633aa7bc7c597",
      "v": 27,
      "creates": null,
      "raw": "0xf86c0d850cf1a0ac4c8252089432be343b94f860124dc4fee278fdcbd38c102d8888263fe04415aba000801ba005be9ec0d2dfbcc0a778127ef323fab3364cb9148fd916176b95ff134c167ce8a042b6dfd7d0a1d2cd11c02d8c41b20964e4e3e2a454fa7e6d1f7633aa7bc7c597",
      "networkId": 0,
      "chainId": 0
    },
    {
      "hash": "0x5b94ee0f577520d2b02b24a73c3252b0c2eb44ac6151104c9e26d92d3a8d6ca7",
      "blockHash": "0xf1c7ca51feb17aff31140606d9cb30a3588941bc3b00bd81a80722c8f14fdf70",
      "blockNumber": 121892,
      "transactionIndex": 1,
      "confirmations": null,
      "from": "0x6589D22b54648e5D67Dc008eBd0c836D3DF39c87",
      "gasPrice": {
        "_hex": "0xcd0c1a63e"
      },
      "gasLimit": {
        "_hex": "0x5208"
      },
      "to": "0x32Be343B94f860124dC4fEe278FDCBD38C102D88",
      "value": {
        "_hex": "0x305fd2632c9af000"
      },
      "nonce": 13,
      "data": "0x",
      "r": "0x76d901b262d464e72a0fe8a533030bef40f0f649ee2f14a76aadf45619c14222",
      "s": "0x392dfe591d2ca6adf625d6740ea2f47666fd628480e94a771c7708e1bc6ac748",
      "v": 27,
      "creates": null,
      "raw": "0xf86c0d850cd0c1a63e8252089432be343b94f860124dc4fee278fdcbd38c102d8888305fd2632c9af000801ba076d901b262d464e72a0fe8a533030bef40f0f649ee2f14a76aadf45619c14222a0392dfe591d2ca6adf625d6740ea2f47666fd628480e94a771c7708e1bc6ac748",
      "networkId": 0,
      "chainId": 0
    },
    {
      "hash": "0xc66167929960496bd05abfc1ff5d7e0608c27048e1e5bc18497de77bd7ae3449",
      "blockHash": "0xf1c7ca51feb17aff31140606d9cb30a3588941bc3b00bd81a80722c8f14fdf70",
      "blockNumber": 121892,
      "transactionIndex": 2,
      "confirmations": null,
      "from": "0xb4eb03c9bDD4944DE22085E8e1dB5Ebd36889Bd8",
      "gasPrice": {
        "_hex": "0xcd0c1a63e"
      },
      "gasLimit": {
        "_hex": "0x5208"
      },
      "to": "0x32Be343B94f860124dC4fEe278FDCBD38C102D88",
      "value": {
        "_hex": "0x2d6df8b03d9f4800"
      },
      "nonce": 13,
      "data": "0x",
      "r": "0xe556c9856f9bb184df0f1d45f9ea327e8875e26c1f8d367ba0bc17ec0927f552",
      "s": "0x2080af72b8606e3207b079fc61d991e130cbe3a64aae798734853a7aee1bbd19",
      "v": 28,
      "creates": null,
      "raw": "0xf86c0d850cd0c1a63e8252089432be343b94f860124dc4fee278fdcbd38c102d88882d6df8b03d9f4800801ca0e556c9856f9bb184df0f1d45f9ea327e8875e26c1f8d367ba0bc17ec0927f552a02080af72b8606e3207b079fc61d991e130cbe3a64aae798734853a7aee1bbd19",
      "networkId": 0,
      "chainId": 0
    },
    {
      "hash": "0x64c4aeb56d0ebfebade403def4130b9463933fbb75ba5e01ad44001f52bbd980",
      "blockHash": "0xf1c7ca51feb17aff31140606d9cb30a3588941bc3b00bd81a80722c8f14fdf70",
      "blockNumber": 121892,
      "transactionIndex": 3,
      "confirmations": null,
      "from": "0x267069452478cA39b3f5F1A4fFdD4131f50Bc977",
      "gasPrice": {
        "_hex": "0xcd0c1a63e"
      },
      "gasLimit": {
        "_hex": "0x5208"
      },
      "to": "0x32Be343B94f860124dC4fEe278FDCBD38C102D88",
      "value": {
        "_hex": "0x89edfddb10ea3000"
      },
      "nonce": 15,
      "data": "0x",
      "r": "0x93c841120b6419ced969950f3ab47ce0cc4fed85573ec87c683225ddbea6d7aa",
      "s": "0x7da4648ba7c3613858da1afe9db6c75a0795a0e417350c1bc7b0e0b86c514111",
      "v": 27,
      "creates": null,
      "raw": "0xf86c0f850cd0c1a63e8252089432be343b94f860124dc4fee278fdcbd38c102d888889edfddb10ea3000801ba093c841120b6419ced969950f3ab47ce0cc4fed85573ec87c683225ddbea6d7aaa07da4648ba7c3613858da1afe9db6c75a0795a0e417350c1bc7b0e0b86c514111",
      "networkId": 0,
      "chainId": 0
    },
    {
      "hash": "0x08a3fc68069f21a616eb0d560523831cba1764e20d945806e372eede6a2e1543",
      "blockHash": "0xf1c7ca51feb17aff31140606d9cb30a3588941bc3b00bd81a80722c8f14fdf70",
      "blockNumber": 121892,
      "transactionIndex": 4,
      "confirmations": null,
      "from": "0x61E20833179bA2eCCc2065e5F733CC8CdA7394c0",
      "gasPrice": {
        "_hex": "0xcd0c1a63e"
      },
      "gasLimit": {
        "_hex": "0x5208"
      },
      "to": "0x32Be343B94f860124dC4fEe278FDCBD38C102D88",
      "value": {
        "_hex": "0x2d41c2172db7b400"
      },
      "nonce": 15,
      "data": "0x",
      "r": "0x1e36c0a2ceade42ca9f19df8d8d95f104803b64434b14120d117a1efc629e82c",
      "s": "0x2ea7acd76838acb081e80924337041e9a8f8bb8f3aa996a5d8f1d29111432171",
      "v": 28,
      "creates": null,
      "raw": "0xf86c0f850cd0c1a63e8252089432be343b94f860124dc4fee278fdcbd38c102d88882d41c2172db7b400801ca01e36c0a2ceade42ca9f19df8d8d95f104803b64434b14120d117a1efc629e82ca02ea7acd76838acb081e80924337041e9a8f8bb8f3aa996a5d8f1d29111432171",
      "networkId": 0,
      "chainId": 0
    },
    {
      "hash": "0x14d21670789315053dad16144a8597ef6bdeba1e3cde5540e1dc647a50b54030",
      "blockHash": "0xf1c7ca51feb17aff31140606d9cb30a3588941bc3b00bd81a80722c8f14fdf70",
      "blockNumber": 121892,
      "transactionIndex": 5,
      "confirmations": null,
      "from": "0x027698B61229ECCa19311e977ADE3C2923D4e414",
      "gasPrice": {
        "_hex": "0xcd0c1a63e"
      },
      "gasLimit": {
        "_hex": "0x5208"
      },
      "to": "0x32Be343B94f860124dC4fEe278FDCBD38C102D88",
      "value": {
        "_hex": "0x3345666d8b2fe400"
      },
      "nonce": 13,
      "data": "0x",
      "r": "0xc03da3357d2486118ae1f7e28c9cd73002646cee960006cd30291c3fab82d2ef",
      "s": "0x6225f0318dfe39e843de9fd741f372eb4b6a4b2e7c53ffeea5cde50a9e7bca42",
      "v": 28,
      "creates": null,
      "raw": "0xf86c0d850cd0c1a63e8252089432be343b94f860124dc4fee278fdcbd38c102d88883345666d8b2fe400801ca0c03da3357d2486118ae1f7e28c9cd73002646cee960006cd30291c3fab82d2efa06225f0318dfe39e843de9fd741f372eb4b6a4b2e7c53ffeea5cde50a9e7bca42",
      "networkId": 0,
      "chainId": 0
    },
    {
      "hash": "0x89e0f49877a443d7fd6ace8fe5429c18e83665f7d3184722d096205bb1a017e6",
      "blockHash": "0xf1c7ca51feb17aff31140606d9cb30a3588941bc3b00bd81a80722c8f14fdf70",
      "blockNumber": 121892,
      "transactionIndex": 6,
      "confirmations": null,
      "from": "0xC8E61bFB4846B622B084B98Bc586388aFCb70d5F",
      "gasPrice": {
        "_hex": "0xcd0c1a63e"
      },
      "gasLimit": {
        "_hex": "0x5208"
      },
      "to": "0x32Be343B94f860124dC4fEe278FDCBD38C102D88",
      "value": {
        "_hex": "0x386df19bca332400"
      },
      "nonce": 13,
      "data": "0x",
      "r": "0x08ae0d4478e443042f135b79bdcaf724b371304cb64c4f5e12d4c8605dd94e36",
      "s": "0x33b2c32fe9adfec9b54204498c0cbfb660734ab4bce5bbab7bcc5d55753f8085",
      "v": 27,
      "creates": null,
      "raw": "0xf86c0d850cd0c1a63e8252089432be343b94f860124dc4fee278fdcbd38c102d8888386df19bca332400801ba008ae0d4478e443042f135b79bdcaf724b371304cb64c4f5e12d4c8605dd94e36a033b2c32fe9adfec9b54204498c0cbfb660734ab4bce5bbab7bcc5d55753f8085",
      "networkId": 0,
      "chainId": 0
    },
    {
      "hash": "0x972de8dde97d9e8c9f16e4510113b37a1b0fdd83d101a64f5222f379096a5a61",
      "blockHash": "0xf1c7ca51feb17aff31140606d9cb30a3588941bc3b00bd81a80722c8f14fdf70",
      "blockNumber": 121892,
      "transactionIndex": 7,
      "confirmations": null,
      "from": "0xb7B3690EFa6b3f08D4EC289fF655C4b7bb15EE39",
      "gasPrice": {
        "_hex": "0xcd0c1a63e"
      },
      "gasLimit": {
        "_hex": "0x5208"
      },
      "to": "0x32Be343B94f860124dC4fEe278FDCBD38C102D88",
      "value": {
        "_hex": "0x2c164444ee1ff400"
      },
      "nonce": 12,
      "data": "0x",
      "r": "0x18531806fb842f5af792e32b4d3ce5fd2f49a5f0f21819cb3b50447eb9cb6e26",
      "s": "0x19f10623d0ae3cebaabaa67c836bb58cfdb3eb6f20536c7bfa3e721721ba675d",
      "v": 27,
      "creates": null,
      "raw": "0xf86c0c850cd0c1a63e8252089432be343b94f860124dc4fee278fdcbd38c102d88882c164444ee1ff400801ba018531806fb842f5af792e32b4d3ce5fd2f49a5f0f21819cb3b50447eb9cb6e26a019f10623d0ae3cebaabaa67c836bb58cfdb3eb6f20536c7bfa3e721721ba675d",
      "networkId": 0,
      "chainId": 0
    },
    {
      "hash": "0x5414728586497b69991bc12e194da3eb12e334a1357a65cf78fb96f8881bd7b9",
      "blockHash": "0xf1c7ca51feb17aff31140606d9cb30a3588941bc3b00bd81a80722c8f14fdf70",
      "blockNumber": 121892,
      "transactionIndex": 8,
      "confirmations": null,
      "from": "0x2118baa5B9d6423676CF5502Eb6eaeD859228c33",
      "gasPrice": {
        "_hex": "0xcd0c1a63e"
      },
      "gasLimit": {
        "_hex": "0x5208"
      },
      "to": "0x32Be343B94f860124dC4fEe278FDCBD38C102D88",
      "value": {
        "_hex": "0x1acd2b21f1a75000"
      },
      "nonce": 13,
      "data": "0x",
      "r": "0xcff8d6d975c5a5aee9e02f92fb863e8876becf5542b1ff00f9a9e32dd37c21f6",
      "s": "0x28a9549e162613cd317e724f9b6f9e1539dfda6a773f5bca92fc55b6a852eb13",
      "v": 27,
      "creates": null,
      "raw": "0xf86c0d850cd0c1a63e8252089432be343b94f860124dc4fee278fdcbd38c102d88881acd2b21f1a75000801ba0cff8d6d975c5a5aee9e02f92fb863e8876becf5542b1ff00f9a9e32dd37c21f6a028a9549e162613cd317e724f9b6f9e1539dfda6a773f5bca92fc55b6a852eb13",
      "networkId": 0,
      "chainId": 0
    },
    {
      "hash": "0x4c1e9e3e1c54c6ce574b152c65da13c5371bfb7be17546908f800c0dbf22b30c",
      "blockHash": "0xf1c7ca51feb17aff31140606d9cb30a3588941bc3b00bd81a80722c8f14fdf70",
      "blockNumber": 121892,
      "transactionIndex": 9,
      "confirmations": null,
      "from": "0xe6A7a1d47ff21B6321162AEA7C6CB457D5476Bca",
      "gasPrice": {
        "_hex": "0xba43b7400"
      },
      "gasLimit": {
        "_hex": "0x55f0"
      },
      "to": "0x3629B45bBf972aDc23C064D31B7d7c6ce17415D5",
      "value": {
        "_hex": "0x1eea0a9b2e6128e90"
      },
      "nonce": 6739,
      "data": "0x",
      "r": "0x0938d5ab005f063840077946a34a6d04799cb2dcba962e58e1bc9aab11e2c3ad",
      "s": "0x1762b3ae86bd3d7c0fe1f32252cb0fdcb97df55eec3a06df5c5d67fc61e9fb4d",
      "v": 27,
      "creates": null,
      "raw": "0xf86f821a53850ba43b74008255f0943629b45bbf972adc23c064d31b7d7c6ce17415d58901eea0a9b2e6128e90801ba00938d5ab005f063840077946a34a6d04799cb2dcba962e58e1bc9aab11e2c3ada01762b3ae86bd3d7c0fe1f32252cb0fdcb97df55eec3a06df5c5d67fc61e9fb4d",
      "networkId": 0,
      "chainId": 0
    },
    {
      "hash": "0x96a808cf22850bd2bf7e61b68ae525556ef8e4d6ced15ebe2f9e3520611d1a71",
      "blockHash": "0xf1c7ca51feb17aff31140606d9cb30a3588941bc3b00bd81a80722c8f14fdf70",
      "blockNumber": 121892,
      "transactionIndex": 10,
      "confirmations": null,
      "from": "0xe6A7a1d47ff21B6321162AEA7C6CB457D5476Bca",
      "gasPrice": {
        "_hex": "0xba43b7400"
      },
      "gasLimit": {
        "_hex": "0x55f0"
      },
      "to": "0xBFa71Aba804c2b986D969E175aCFdAC7266CDe9C",
      "value": {
        "_hex": "0x1f46d2cddd0dae330"
      },
      "nonce": 6740,
      "data": "0x",
      "r": "0xa34c1cbcc4aa3a25948d4378d16b4e94b4a309f1d38e28e8721f3b6693a84437",
      "s": "0x6bce3de1bb756cf0cc8328749be970d43d44fc503100786b42dcc6e6bd2acc65",
      "v": 27,
      "creates": null,
      "raw": "0xf86f821a54850ba43b74008255f094bfa71aba804c2b986d969e175acfdac7266cde9c8901f46d2cddd0dae330801ba0a34c1cbcc4aa3a25948d4378d16b4e94b4a309f1d38e28e8721f3b6693a84437a06bce3de1bb756cf0cc8328749be970d43d44fc503100786b42dcc6e6bd2acc65",
      "networkId": 0,
      "chainId": 0
    }
  ]
}