{
  "hash": "0xefd8af0b52f0fa6522ea58222af52ccbec9ab55460c9e6c3c553569e2e2dc8be",
  "parentHash": "0x3119057b3cfa1410ecd1b77d1667d3be2ade088935335d9668c6ce8689583342",
  "number": 48315,
  "timestamp": 1438955284,
  "nonce": "0xbb9786bf9d76b413",
  "difficulty": 1455061167719,
  "gasLimit": {
    "_hex": "0x155f2"
  },
  "gasUsed": {
    "_hex": "0x14f4c"
  },
  "miner": "0x154230ed91D1e711e56b9C0f88b5ba5fD2B0503f",
  "extraData": "0x476574682f76312e302e312f6c696e75782f676f312e342e32",
  "transactions": [
    {
      "hash": "0x468d2e95c68065d4e54748fe255edef76d3ee320be272a358285cd5bd807359a",
      "blockHash": "0xefd8af0b52f0fa6522ea58222af52ccbec9ab55460c9e6c3c553569e2e2dc8be",
      "blockNumber": 48315,
      "transactionIndex": 0,
      "confirmations": null,
      "from": "0xf15d9D5a21b1929e790371A17F16d95f0C69655c",
      "gasPrice": {
        "_hex": "0x110c8f7d8de"
      },
      "gasLimit": {
        "_hex": "0xc350"
      },
      "to": "0x2910543Af39abA0Cd09dBb2D50200b3E800A63D2",
      "value": {
        "_hex": "0x6c5db2a4d815dc0000"
      },
      "nonce": 0,
      "data": "0x454e36383452323630",
      "r": "0x2da0808175a06a9db064faf1498037b799dc4db7a63a753e3443b412e72bedfc",
      "s": "0x80f604c03b94cdc9e5514e021852bc84d7948df18ab809204a4755c419ed3f7d",
      "v": 28,
      "creates": null,
      "raw": "0xf87780860110c8f7d8de82c350942910543af39aba0cd09dbb2d50200b3e800a63d2896c5db2a4d815dc000089454e363834523236301ca02da0808175a06a9db064faf1498037b799dc4db7a63a753e3443b412e72bedfca080f604c03b94cdc9e5514e021852bc84d7948df18ab809204a4755c419ed3f7d",
      "networkId": 0,
      "chainId": 0
    },
    {
      "hash": "0xd39183055f87c19fde740d4441628b260026bebe5a58a6d20f2b600c2db26c0b",
      "blockHash": "0xefd8af0b52f0fa6522ea58222af52ccbec9ab55460c9e6c3c553569e2e2dc8be",
      "blockNumber": 48315,
      "transactionIndex": 1,
      "confirmations": null,
      "from": "0x34c77D0da441612D3fE5860b7FA35Be66D5084A3",
      "gasPrice": {
        "_hex": "0xf673d2fb9"
      },
      "gasLimit": {
        "_hex": "0x5208"
      },
      "to": "0x98499d3218782EEB1cCd8651EEF3bAB9a8443faD",
      "value": {
        "_hex": "0x4563918244f40000"
      },
      "nonce": 0,
      "data": "0x",
      "r": "0xe65432cee4a52f19e9c2665d0afc5bfac7b7757618d80acd7beb1bbf4fb988e9",
      "s": "0x1864b5c76c4f942a6332e79f03da6db708702e345336ead6e5cb55af06bd89e7",
      "v": 27,
      "creates": null,
      "raw": "0xf86c80850f673d2fb98252089498499d3218782eeb1ccd8651eef3bab9a8443fad884563918244f40000801ba0e65432cee4a52f19e9c2665d0afc5bfac7b7757618d80acd7beb1bbf4fb988e9a01864b5c76c4f942a6332e79f03da6db708702e345336ead6e5cb55af06bd89e7",
      "networkId": 0,
      "chainId": 0
    },
    {
      "hash": "0x18123414e614d81396f9a4e706f6d6c4f44077b3c378371a740b0249aa796a60",
      "blockHash": "0xefd8af0b52f0fa6522ea58222af52ccbec9ab55460c9e6c3c553569e2e2dc8be",
      "blockNumber": 48315,
      "transactionIndex": 2,
      "confirmations": null,
      "from": "0xdd2F1e6e498202e86D8f5442Af596580A4f03c2C",
      "gasPrice": {
        "_hex": "0xed9d4d5e0"
      },
      "gasLimit": {
        "_hex": "0x55f0"
      },
      "to": "0x2910543Af39abA0Cd09dBb2D50200b3E800A63D2",
      "value": {
        "_hex": "0x30ca024f987b900000"
      },
      "nonce": 2,
      "data": "0x454e3756465a343052",
      "r": "0x051e0cee4316a1436bea2acc081d427587a29128451c1126eb3193467d243516",
      "s": "0x08cfd8399ec65bb9f460e342793c3e21722b1a1a912e4b274c9f52dda452559a",
      "v": 27,
      "creates": null,
      "raw": "0xf87602850ed9d4d5e08255f0942910543af39aba0cd09dbb2d50200b3e800a63d28930ca024f987b90000089454e3756465a3430521ba0051e0cee4316a1436bea2acc081d427587a29128451c1126eb3193467d243516a008cfd8399ec65bb9f460e342793c3e21722b1a1a912e4b274c9f52dda452559a",
      "networkId": 0,
      "chainId": 0
    },
    {
      "hash": "0xd420f1b1ace2d2233fda685310c00ef6a4e21945c445ace5240e5ba6773c8957",
      "blockHash": "0xefd8af0b52f0fa6522ea58222af52ccbec9ab55460c9e6c3c553569e2e2dc8be",
      "blockNumber": 48315,
      "transactionIndex": 3,
      "confirmations": null,
      "from": "0x3098B65db93EcaCaf7353c48808390a223D57684",
      "gasPrice": {
        "_hex": "0xd7d40ace3"
      },
      "gasLimit": {
        "_hex": "0x55f0"
      },
      "to": "0x2910543Af39abA0Cd09dBb2D50200b3E800A63D2",
      "value": {
        "_hex": "0xad78ebc5ac6200000"
      },
      "nonce": 0,
      "data": "0x454e4d323354595a30",
      "r": "0x20839094d5373d2b113914d0cf60e9c30a76e34cdb89091e94065d61c57496a8",
      "s": "0x36605379879f2f80d875f6546d2c759dc56333edc1f6733015acac2975549540",
      "v": 27,
      "creates": null,
      "raw": "0xf87680850d7d40ace38255f0942910543af39aba0cd09dbb2d50200b3e800a63d2890ad78ebc5ac620000089454e4d323354595a301ba020839094d5373d2b113914d0cf60e9c30a76e34cdb89091e94065d61c57496a8a036605379879f2f80d875f6546d2c759dc56333edc1f6733015acac2975549540",
      "networkId": 0,
      "chainId": 0
    }
  ]
}