{
  "hash": "0x568a090acb1d7be5076a42b1ce1338b8fae8f0919e4eae62295fc4c5a1cbb933",
  "parentHash": "0x121738315e06ad7cbbdafa5e57be26eb1a0f457b62fca9f1b84391c135d6412e",
  "number": 119507,
  "timestamp": 1440144152,
  "nonce": "0x423e1013376d1ab6",
  "difficulty": 4392253972421,
  "gasLimit": {
    "_hex": "0x2fefd8"
  },
  "gasUsed": {
    "_hex": "0x5208"
  },
  "miner": "0xe6A7a1d47ff21B6321162AEA7C6CB457D5476Bca",
  "extraData": "0xd783010002844765746887676f312e342e32856c696e7578",
  "transactions": [
    {
      "hash": "0x7f5497b6705f251a1b11ede51c9e99719322a7670c19227945685c60c2f2deda",
      "blockHash": "0x568a090acb1d7be5076a42b1ce1338b8fae8f0919e4eae62295fc4c5a1cbb933",
      "blockNumber": 119507,
      "transactionIndex": 0,
      "confirmations": null,
      "from": "0x259ce58778abd156fC9084AB53322FEA6EeC550E",
      "gasPrice": {
        "_hex": "0xba43b7400"
      },
      "gasLimit": {
        "_hex": "0x15f90"
      },
      "to": "0x6ed7A6220B1Cd6F93AC32948C2221E0D372F46Ad",
      "value": {
        "_hex": "0x66b214cb09e40000"
      },
      "nonce": 7,
      "data": "0x",
      "r": "0x06a63df28a5040fd710820c2d582e32d65fc9f0cf879909d63351ae37f71aefc",
      "s": "0x252f7115bba7cc9d95075fa9e196f4766d9e4c8c3f715a41aa46f251f9681119",
      "v": 28,
      "creates": null,
      "raw": "0xf86d07850ba43b740083015f90946ed7a6220b1cd6f93ac32948c2221e0d372f46ad8866b214cb09e40000801ca006a63df28a5040fd710820c2d582e32d65fc9f0cf879909d63351ae37f71aefca0252f7115bba7cc9d95075fa9e196f4766d9e4c8c3f715a41aa46f251f9681119",
      "networkId": 0,
      "chainId": 0
    }
  ]
}