{
  "hash": "0xddb9b1a11483c8028d37cc921f8e0dfe6bdceed7863637a636787af6bdefb418",
  "parentHash": "0xe3ddc1f54ad90c82b854a85aca19d10e9b71baf0172727fd3a6673f204838061",
  "number": 76321,
  "timestamp": 1439418436,
  "nonce": "0x1ebd60f7b52a5f69",
  "difficulty": 2219963262378,
  "gasLimit": {
    "_hex": "0x2fefd8"
  },
  "gasUsed": {
    "_hex": "0xf8c0"
  },
  "miner": "0x9746c7e1ef2bd21FF3997fa467593a89cb852BD0",
  "extraData": "0x476574682f76312e302e312f77696e646f77732f676f312e342e32",
  "transactions": [
    {
      "hash": "0xa6e93970cda407a1d0744972b05b99b9b116c72f12db81f39f79b22d6b131ddb",
      "blockHash": "0xddb9b1a11483c8028d37cc921f8e0dfe6bdceed7863637a636787af6bdefb418",
      "blockNumber": 76321,
      "transactionIndex": 0,
      "confirmations": null,
      "from": "0x5Ef8C0F62039a8E2526bA6Ac21784B70dc758Eca",
      "gasPrice": {
        "_hex": "0x10e43e3b6f8"
      },
      "gasLimit": {
        "_hex": "0x55f0"
      },
      "to": "0x40B9b889A21Ff1534d018D71Dc406122EBcf3F5A",
      "value": {
        "_hex": "0xde0b6b3a7640000"
      },
      "nonce": 0,
      "data": "0x415a5057503833383232",
      "r": "0xc303f6b15016853fde7885336b0db3aa30355879c878c125e315c83bd39a953d",
      "s": "0x451c3acf4abeb48b0e8b8ba4e58543b112db0d1cd3a79e1706b4c11a206aef66",
      "v": 27,
      "creates": null,
      "raw": "0xf8778086010e43e3b6f88255f09440b9b889a21ff1534d018d71dc406122ebcf3f5a880de0b6b3a76400008a415a50575038333832321ba0c303f6b15016853fde7885336b0db3aa30355879c878c125e315c83bd39a953da0451c3acf4abeb48b0e8b8ba4e58543b112db0d1cd3a79e1706b4c11a206aef66",
      "networkId": 0,
      "chainId": 0
    },
    {
      "hash": "0x34adf4f408bfb24fc2e055340e1695f18bd5247b7a2d6694c21822f852328a38",
      "blockHash": "0xddb9b1a11483c8028d37cc921f8e0dfe6bdceed7863637a636787af6bdefb418",
      "blockNumber": 76321,
      "transactionIndex": 1,
      "confirmations": null,
      "from": "0x0e320219838E859b2F9f18B72e3d4073cA50B37D",
      "gasPrice": {
        "_hex": "0xdf82991c9"
      },
      "gasLimit": {
        "_hex": "0x15f90"
      },
      "to": "0x84505745115a8C041C0c4A7F9d3Ca52a5bf375f4",
      "value": {
        "_hex": "0xde0b6b3a7640000"
      },
      "nonce": 9,
      "data": "0x",
      "r": "0xba407bda67c9a5f8379cb793fc44d89b5b3c0e24892c7eee4bb2a3af154a1bc9",
      "s": "0x6959b6783c2628dd510e3f7c7efdd42493df38653aa534ad75665ce613b1cccc",
      "v": 28,
      "creates": null,
      "raw": "0xf86d09850df82991c983015f909484505745115a8c041c0c4a7f9d3ca52a5bf375f4880de0b6b3a7640000801ca0ba407bda67c9a5f8379cb793fc44d89b5b3c0e24892c7eee4bb2a3af154a1bc9a06959b6783c2628dd510e3f7c7efdd42493df38653aa534ad75665ce613b1cccc",
      "networkId": 0,
      "chainId": 0
    },
    {
      "hash": "0xfd3f589e11458363284307222598bbb08258a71d59229da982d09e6530e698ba",
      "blockHash": "0xddb9b1a11483c8028d37cc921f8e0dfe6bdceed7863637a636787af6bdefb418",
      "blockNumber": 76321,
      "transactionIndex": 2,
      "confirmations": null,
      "from": "0xfa61FFF5ba13ff0DD59B579457F557e0ddeD02dA",
      "gasPrice": {
        "_hex": "0xd63421322"
      },
      "gasLimit": {
        "_hex": "0x5208"
      },
      "to": "0x32Be343B94f860124dC4fEe278FDCBD38C102D88",
      "value": {
        "_hex": "0xd0265ece7f896000"
      },
      "nonce": 0,
      "data": "0x",
      "r": "0x38cf8e05ac0440f69225853762427064bd6ceedc6ae80cb44c831715dfb59d7d",
      "s": "0x2f7860b56c6266c1435acf5626a24a8c17218506687838d8e68e52a09bde5dad",
      "v": 27,
      "creates": null,
      "raw": "0xf86c80850d634213228252089432be343b94f860124dc4fee278fdcbd38c102d8888d0265ece7f896000801ba038cf8e05ac0440f69225853762427064bd6ceedc6ae80cb44c831715dfb59d7da02f7860b56c6266c1435acf5626a24a8c17218506687838d8e68e52a09bde5dad",
      "networkId": 0,
      "chainId": 0
    }
  ]
}