{
  "hash": "0xd5f2da60df28cd83f672312edd10708a030efdbb5deb3dfdc2487b2617385844",
  "parentHash": "0x35a88214b7cfe09e16b64ce1c024678360ad84f387d415134b8a539985f04955",
  "number": 98809,
  "timestamp": 1439779387,
  "nonce": "0x8453e7863ca60094",
  "difficulty": 3855487323235,
  "gasLimit": {
    "_hex": "0x2fefd8"
  },
  "gasUsed": {
    "_hex": "0x5208"
  },
  "miner": "0xf927a40C8B7F6E07c5af7FA2155B4864a4112B13",
  "extraData": "0x",
  "transactions": [
    {
      "hash": "0x16f24aee8c2c3dc7b493c21c547d21861773646ad8a4a2eff721d4a043929e40",
      "blockHash": "0xd5f2da60df28cd83f672312edd10708a030efdbb5deb3dfdc2487b2617385844",
      "blockNumber": 98809,
      "transactionIndex": 0,
      "confirmations": null,
      "from": "0x2910543Af39abA0Cd09dBb2D50200b3E800A63D2",
      "gasPrice": {
        "_hex": "0xd13ffcf79"
      },
      "gasLimit": {
        "_hex": "0x5208"
      },
      "to": "0x516cE6238fB355288489Ec4e775E039160BEa73F",
      "value": {
        "_hex": "0x11c37937e08000"
      },
      "nonce": 935,
      "data": "0x",
      "r": "0x4bd47797946c131f4566b1d5676df9ee22a7d1134bee91b1c9dbc9e2b73b466c",
      "s": "0x19ffbcdc234a86a3e7a721f134fbcfd15ae98016650a93f006e6d86f76125ccd",
      "v": 28,
      "creates": null,
      "raw": "0xf86d8203a7850d13ffcf7982520894516ce6238fb355288489ec4e775e039160bea73f8711c37937e08000801ca04bd47797946c131f4566b1d5676df9ee22a7d1134bee91b1c9dbc9e2b73b466ca019ffbcdc234a86a3e7a721f134fbcfd15ae98016650a93f006e6d86f76125ccd",
      "networkId": 0,
      "chainId": 0
    }
  ]
}