{
  "hash": "0x88f6466e89cfca8fd593544f00ed9d9e0f0232adaf3254f2171a8893bad03430",
  "parentHash": "0x3324d98d0975e0aa407667e330b9d41f53fb57353355f786e798e7714c91edd5",
  "number": 87059,
  "timestamp": 1439586622,
  "nonce": "0x808e2cb852a65265",
  "difficulty": 3030448421508,
  "gasLimit": {
    "_hex": "0x2fefd8"
  },
  "gasUsed": {
    "_hex": "0x19a28"
  },
  "miner": "0xe6A7a1d47ff21B6321162AEA7C6CB457D5476Bca",
  "extraData": "0x476574682f76312e302e312d38326566323666362f6c696e75782f676f312e34",
  "transactions": [
    {
      "hash": "0xe55a8a4e0483f861440581d0c4d4c0d077ed86c3719f61647e70689bba2bce88",
      "blockHash": "0x88f6466e89cfca8fd593544f00ed9d9e0f0232adaf3254f2171a8893bad03430",
      "blockNumber": 87059,
      "transactionIndex": 0,
      "confirmations": null,
      "from": "0xa70a9a7040d542C632D8e0bE7c5513A8a5Bbc752",
      "gasPrice": {
        "_hex": "0xd9d1ae1f1"
      },
      "gasLimit": {
        "_hex": "0x5208"
      },
      "to": "0x32Be343B94f860124dC4fEe278FDCBD38C102D88",
      "value": {
        "_hex": "0x455f34c22db9f000"
      },
      "nonce": 97,
      "data": "0x",
      "r": "0x73eeda04acacc770720dc72a095c677e692e9b668c7e18275cacfc26e552c98d",
      "s": "0x4ef361ca10e1efdf4b47941405df7153be89b289d495b72cde512d3e29d9e84c",
      "v": 28,
      "creates": null,
      "raw": "0xf86c61850d9d1ae1f18252089432be343b94f860124dc4fee278fdcbd38c102d8888455f34c22db9f000801ca073eeda04acacc770720dc72a095c677e692e9b668c7e18275cacfc26e552c98da04ef361ca10e1efdf4b47941405df7153be89b289d495b72cde512d3e29d9e84c",
      "networkId": 0,
      "chainId": 0
    },
    {
      "hash": "0x78043a3f65ccbd7ef9dde14ad3cae4d6cc2c9fe214dda3547dc56066ad34f297",
      "blockHash": "0x88f6466e89cfca8fd593544f00ed9d9e0f0232adaf3254f2171a8893bad03430",
      "blockNumber": 87059,
      "transactionIndex": 1,
      "confirmations": null,
      "from": "0xFD7c9117BbEB649d9b37B3D3C9917f7c12f526B3",
      "gasPrice": {
        "_hex": "0xd9d1ae1f1"
      },
      "gasLimit": {
        "_hex": "0x5208"
      },
      "to": "0x32Be343B94f860124dC4fEe278FDCBD38C102D88",
      "value": {
        "_hex": "0x18d763554192ab0000"
      },
      "nonce": 20,
      "data": "0x",
      "r": "0x7055c5d3427fe672a694eeca7515a88abc92a282b1fc7a0417391e32bee5ec9c",
      "s": "0x6c5ef11d70fb37b01f56c379386d6e99556566d33bf2d2e67386b3d63bf1f020",
      "v": 27,
      "creates": null,
      "raw": "0xf86d14850d9d1ae1f18252089432be343b94f860124dc4fee278fdcbd38c102d888918d763554192ab0000801ba07055c5d3427fe672a694eeca7515a88abc92a282b1fc7a0417391e32bee5ec9ca06c5ef11d70fb37b01f56c379386d6e99556566d33bf2d2e67386b3d63bf1f020",
      "networkId": 0,
      "chainId": 0
    },
    {
      "hash": "0x49f0951ad02d3f626f7b9bea1042ace1fc32463574fb28d6507b510a0877760a",
      "blockHash": "0x88f6466e89cfca8fd593544f00ed9d9e0f0232adaf3254f2171a8893bad03430",
      "blockNumber": 87059,
      "transactionIndex": 2,
      "confirmations": null,
      "from": "0x2bc8515C62bD6fe4f312619F837309cf715d2520",
      "gasPrice": {
        "_hex": "0xd9d1ae1f1"
      },
      "gasLimit": {
        "_hex": "0x5208"
      },
      "to": "0x32Be343B94f860124dC4fEe278FDCBD38C102D88",
      "value": {
        "_hex": "0xddc59f39029f000"
      },
      "nonce": 0,
      "data": "0x",
      "r": "0xcc395acb455ee17b7f6c462eb20fddb143627cd3533c173b9ffaea3fd4c867ff",
      "s": "0x2efb4e65ef0e739aa3fdf63e1a68e363203907dd8d717648115b50dd550a35dd",
      "v": 27,
      "creates": null,
      "raw": "0xf86c80850d9d1ae1f18252089432be343b94f860124dc4fee278fdcbd38c102d88880ddc59f39029f000801ba0cc395acb455ee17b7f6c462eb20fddb143627cd3533c173b9ffaea3fd4c867ffa02efb4e65ef0e739aa3fdf63e1a68e363203907dd8d717648115b50dd550a35dd",
      "networkId": 0,
      "chainId": 0
    },
    {
      "hash": "0x28300abe70c338715e1652a1e5670501b5459e1c4398dc5754ab0f826d5b7639",
      "blockHash": "0x88f6466e89cfca8fd593544f00ed9d9e0f0232adaf3254f2171a8893bad03430",
      "blockNumber": 87059,
      "transactionIndex": 3,
      "confirmations": null,
      "from": "0x0B9C3632dc66A719f83ae395BC99cC1C8d04462b",
      "gasPrice": {
        "_hex": "0xd9d1ae1f1"
      },
      "gasLimit": {
        "_hex": "0x5208"
      },
      "to": "0x32Be343B94f860124dC4fEe278FDCBD38C102D88",
      "value": {
        "_hex": "0x14ccb54d63dbf000"
      },
      "nonce": 0,
      "data": "0x",
      "r": "0x214956353ba361a232b40420eb9634583484917fbabfe311f762291e9f3fdd1f",
      "s": "0x48f5f4b404d55b785ac67b2dc776ed633a5261e8363b59b36d94e019665d08d9",
      "v": 28,
      "creates": null,
      "raw": "0xf86c80850d9d1ae1f18252089432be343b94f860124dc4fee278fdcbd38c102d888814ccb54d63dbf000801ca0214956353ba361a232b40420eb9634583484917fbabfe311f762291e9f3fdd1fa048f5f4b404d55b785ac67b2dc776ed633a5261e8363b59b36d94e019665d08d9",
      "networkId": 0,
      "chainId": 0
    },
    {
      "hash": "0x269a3e775db5c1cd7df7663b9bba1b4d0a3404742558a1a0cd46810d8b113681",
      "blockHash": "0x88f6466e89cfca8fd593544f00ed9d9e0f0232adaf3254f2171a8893bad03430",
      "blockNumber": 87059,
      "transactionIndex": 4,
      "confirmations": null,
      "from": "0x051B69BB7073F7385370C5751F988b31A7567a63",
      "gasPrice": {
        "_hex": "0xba43b7400"
      },
      "gasLimit": {
        "_hex": "0x5208"
      },
      "to": "0xC47Aaa860008be6f65B58c6C6E02a84e666EfE31",
      "value": {
        "_hex": "0x299e6922c92838f0"
      },
      "nonce": 1,
      "data": "0x",
      "r": "0xc8d0ecc04c07cffd798ecd82bed33f745c783a677d8e15b49c08ed8eaa3ab593",
      "s": "0x386334f9bf80075b5eb612941b077ec0f241e5d15dad948af671e7350fb635cb",
      "v": 28,
      "creates": null,
      "raw": "0xf86c01850ba43b740082520894c47aaa860008be6f65b58c6c6e02a84e666efe3188299e6922c92838f0801ca0c8d0ecc04c07cffd798ecd82bed33f745c783a677d8e15b49c08ed8eaa3ab593a0386334f9bf80075b5eb612941b077ec0f241e5d15dad948af671e7350fb635cb",
      "networkId": 0,
      "chainId": 0
    }
  ]
}