{
  "hash": "0xbc43a5957bd7694435e65faaf28564a8f9a93356763c393a589380cec6f6bbaa",
  "parentHash": "0x931c1270f457064696ca5e0368cf7810d06a0973cb5af0bc39038f818fb09a26",
  "number": 119539,
  "timestamp": 1440144596,
  "nonce": "0x168c6764afeff47d",
  "difficulty": 4396528606894,
  "gasLimit": {
    "_hex": "0x2fefd8"
  },
  "gasUsed": {
    "_hex": "0xa410"
  },
  "miner": "0xe6A7a1d47ff21B6321162AEA7C6CB457D5476Bca",
  "extraData": "0xd783010002844765746887676f312e342e32856c696e7578",
  "transactions": [
    {
      "hash": "0x2de3e3bb9a85e63aa39a02ea4d50327c5e5a102e08ba71494682f7775ac617d3",
      "blockHash": "0xbc43a5957bd7694435e65faaf28564a8f9a93356763c393a589380cec6f6bbaa",
      "blockNumber": 119539,
      "transactionIndex": 0,
      "confirmations": null,
      "from": "0x608f4b86321a68453f9adf6F06F7Fc3E621739ad",
      "gasPrice": {
        "_hex": "0xba43b7400"
      },
      "gasLimit": {
        "_hex": "0x5208"
      },
      "to": "0x32Be343B94f860124dC4fEe278FDCBD38C102D88",
      "value": {
        "_hex": "0x4563918244f40000"
      },
      "nonce": 36,
      "data": "0x",
      "r": "0xa75a1120416b9d0f48bc1ff8bdc3717e7a8c9d33f3beaef351b67c46531d0926",
      "s": "0x342979fa1a386d0cb8ba55a3f426263dbeedec3868275cf059433c86c911c995",
      "v": 28,
      "creates": null,
      "raw": "0xf86c24850ba43b74008252089432be343b94f860124dc4fee278fdcbd38c102d88884563918244f40000801ca0a75a1120416b9d0f48bc1ff8bdc3717e7a8c9d33f3beaef351b67c46531d0926a0342979fa1a386d0cb8ba55a3f426263dbeedec3868275cf059433c86c911c995",
      "networkId": 0,
      "chainId": 0
    },
    {
      "hash": "0x71f18c1b0d00bf24f773a04a61a756515b616c48498687b99c817ffc87028a7c",
      "blockHash": "0xbc43a5957bd7694435e65faaf28564a8f9a93356763c393a589380cec6f6bbaa",
      "blockNumber": 119539,
      "transactionIndex": 1,
      "confirmations": null,
      "from": "0xb1abce2918E21ddb93AA452731a12672A3d9F75a",
      "gasPrice": {
        "_hex": "0xba43b7400"
      },
      "gasLimit": {
        "_hex": "0x5208"
      },
      "to": "0x32Be343B94f860124dC4fEe278FDCBD38C102D88",
      "value": {
        "_hex": "0x455fd68a17f06000"
      },
      "nonce": 197,
      "data": "0x",
      "r": "0x9e9338fdd755e2bde05673517cc6b034bef930fcab75e204843204c37c1badf5",
      "s": "0x68eb73e51263bacd0637d6b759cc80a78b7b521c3cb51fa6a28978d628c06b0e",
      "v": 27,
      "creates": null,
      "raw": "0xf86d81c5850ba43b74008252089432be343b94f860124dc4fee278fdcbd38c102d8888455fd68a17f06000801ba09e9338fdd755e2bde05673517cc6b034bef930fcab75e204843204c37c1badf5a068eb73e51263bacd0637d6b759cc80a78b7b521c3cb51fa6a28978d628c06b0e",
      "networkId": 0,
      "chainId": 0
    }
  ]
}