{
  "hash": "0x48e7c9615bf8156602e3f9d4f490d00ff7c6d117811a29d667104fa9c6633e4c",
  "parentHash": "0x5c6cdcffa87f1cfc0ae8009628a98f3424291501d7279396300f913ab4268022",
  "number": 71351,
  "timestamp": 1439334543,
  "nonce": "0xf1e694f7039ffddf",
  "difficulty": 2178315487561,
  "gasLimit": {
    "_hex": "0x2fefd8"
  },
  "gasUsed": {
    "_hex": "0x5208"
  },
  "miner": "0xe6A7a1d47ff21B6321162AEA7C6CB457D5476Bca",
  "extraData": "0x476574682f76312e302e312d38326566323666362f6c696e75782f676f312e34",
  "transactions": [
    {
      "hash": "0xea4e2e46fedf1f7232f5ab1f977f049b89e9db338542b0e826fc9f9e7bed9277",
      "blockHash": "0x48e7c9615bf8156602e3f9d4f490d00ff7c6d117811a29d667104fa9c6633e4c",
      "blockNumber": 71351,
      "transactionIndex": 0,
      "confirmations": null,
      "from": "0x2910543Af39abA0Cd09dBb2D50200b3E800A63D2",
      "gasPrice": {
        "_hex": "0xd306b2fba"
      },
      "gasLimit": {
        "_hex": "0x5208"
      },
      "to": "0x5c59E28366c83f1d262567c1c529185146e68b16",
      "value": {
        "_hex": "0x1b1ad31369b76f8000"
      },
      "nonce": 270,
      "data": "0x",
      "r": "0xf7dbdaa0ac002155dfa61805f321047a84592525dadfe0ad10d42c506293495b",
      "s": "0x3f4be7fb9120d72d061f57701c66f5b4024f10d2eae6d439934dd23821a79b74",
      "v": 27,
      "creates": null,
      "raw": "0xf86f82010e850d306b2fba825208945c59e28366c83f1d262567c1c529185146e68b16891b1ad31369b76f8000801ba0f7dbdaa0ac002155dfa61805f321047a84592525dadfe0ad10d42c506293495ba03f4be7fb9120d72d061f57701c66f5b4024f10d2eae6d439934dd23821a79b74",
      "networkId": 0,
      "chainId": 0
    }
  ]
}