{
  "hash": "0xa9e0d9f5d8647d7371bc19067b5feac3bb1cad75a8b15219cdc8b2fef1b7febb",
  "parentHash": "0x4a43a002567f1b7dee2eb6d2a46ace1de7ab7222906ce5c3ecd2abd1083f2249",
  "number": 82347,
  "timestamp": 1439517827,
  "nonce": "0xcd8b0989b66c2ed2",
  "difficulty": 2373000314088,
  "gasLimit": {
    "_hex": "0x2fefd8"
  },
  "gasUsed": {
    "_hex": "0xf838"
  },
  "miner": "0xf8E0CA3Ed80bd541b94BEdCf259e8CF2141A9523",
  "extraData": "0x476574682f76312e302e312f77696e646f77732f676f312e342e32",
  "transactions": [
    {
      "hash": "0xa64cccac8f2e2f2646251fe56fcf03937805c602b0e37996393dfc500ed99f45",
      "blockHash": "0xa9e0d9f5d8647d7371bc19067b5feac3bb1cad75a8b15219cdc8b2fef1b7febb",
      "blockNumber": 82347,
      "transactionIndex": 0,
      "confirmations": null,
      "from": "0x32Be343B94f860124dC4fEe278FDCBD38C102D88",
      "gasPrice": {
        "_hex": "0xe00dc9040"
      },
      "gasLimit": {
        "_hex": "0x5208"
      },
      "to": "0x1D3ffA437e5bce40fCC134f4E0ac62841E4A9E81",
      "value": {
        "_hex": "0x14f6dccf8214d70000"
      },
      "nonce": 627,
      "data": "0x",
      "r": "0x7edc0fb5437a1bcfce36841b74b2690170e27a288c24793d01bebfb818400f80",
      "s": "0x15dd71829017048fb6825b9ef998477ef2d75c639cbfc991e0344ba62bbd0417",
      "v": 28,
      "creates": null,
      "raw": "0xf86f820273850e00dc9040825208941d3ffa437e5bce40fcc134f4e0ac62841e4a9e818914f6dccf8214d70000801ca07edc0fb5437a1bcfce36841b74b2690170e27a288c24793d01bebfb818400f80a015dd71829017048fb6825b9ef998477ef2d75c639cbfc991e0344ba62bbd0417",
      "networkId": 0,
      "chainId": 0
    },
    {
      "hash": "0xa2475eef03bb2ab73e8fbd7515be7f7024128df838103f9a388d01d56d426803",
      "blockHash": "0xa9e0d9f5d8647d7371bc19067b5feac3bb1cad75a8b15219cdc8b2fef1b7febb",
      "blockNumber": 82347,
      "transactionIndex": 1,
      "confirmations": null,
      "from": "0x84BDA1c0A280B67d35727441B56e102aDCc594ac",
      "gasPrice": {
        "_hex": "0xd3d37f23a"
      },
      "gasLimit": {
        "_hex": "0x15f90"
      },
      "to": "0x7548566f611b89EBfb57C547FeA0c293A2830aD2",
      "value": {
        "_hex": "0xde0b6b3a7640000"
      },
      "nonce": 1,
      "data": "0x706f6c6f6e696578",
      "r": "0x52f7ed4a48db347ab672089c5a0a2b2c11ac39fdda96ec57ced6e1eba6ef5dee",
      "s": "0x1e19fa0c21ede4e68044b72f9591a9dc9fa8c06a853f5e7ebe8da07d4449e730",
      "v": 28,
      "creates": null,
      "raw": "0xf87501850d3d37f23a83015f90947548566f611b89ebfb57c547fea0c293a2830ad2880de0b6b3a764000088706f6c6f6e6965781ca052f7ed4a48db347ab672089c5a0a2b2c11ac39fdda96ec57ced6e1eba6ef5deea01e19fa0c21ede4e68044b72f9591a9dc9fa8c06a853f5e7ebe8da07d4449e730",
      "networkId": 0,
      "chainId": 0
    },
    {
      "hash": "0x9e58642e54559641223fe1bed4d80a66fdf422633116b8a118825e5af9b6ccba",
      "blockHash": "0xa9e0d9f5d8647d7371bc19067b5feac3bb1cad75a8b15219cdc8b2fef1b7febb",
      "blockNumber": 82347,
      "transactionIndex": 2,
      "confirmations": null,
      "from": "0x1D3ffA437e5bce40fCC134f4E0ac62841E4A9E81",
      "gasPrice": {
        "_hex": "0xba43b7400"
      },
      "gasLimit": {
        "_hex": "0x5208"
      },
      "to": "0xC47Aaa860008be6f65B58c6C6E02a84e666EfE31",
      "value": {
        "_hex": "0x3a45aac72b911dc0"
      },
      "nonce": 2,
      "data": "0x",
      "r": "0x767d11ce0472d975094c15225646fcb66bb7a5795c07821be716b1b86195136e",
      "s": "0x4b883da1e776a2531c42f73d2a3c6041768a569ccecd07f141401abb51b6ceb8",
      "v": 28,
      "creates": null,
      "raw": "0xf86c02850ba43b740082520894c47aaa860008be6f65b58c6c6e02a84e666efe31883a45aac72b911dc0801ca0767d11ce0472d975094c15225646fcb66bb7a5795c07821be716b1b86195136ea04b883da1e776a2531c42f73d2a3c6041768a569ccecd07f141401abb51b6ceb8",
      "networkId": 0,
      "chainId": 0
    }
  ]
}