{
  "hash": "0x383eaa6b01c5c2ede5df20e24ec0815efb14df510fe4c71aa9ec5e57f892b61c",
  "parentHash": "0x5ef2d38659f8c23f346e713b288822f7a237cca8d79bae5a62d2b7f69fbafc10",
  "number": 62721,
  "timestamp": 1439193347,
  "nonce": "0x08011959987e70cb",
  "difficulty": 1764145722009,
  "gasLimit": {
    "_hex": "0x2fefd8"
  },
  "gasUsed": {
    "_hex": "0x5208"
  },
  "miner": "0x6Cf387a1C50cF6b09634E0d24fDAa2c06Be0ea95",
  "extraData": "0x476574682f76312e302e312d38326566323666362f6c696e75782f676f312e34",
  "transactions": [
    {
      "hash": "0xcc63dd9c95d7184fbd3f260a62a40e4fb5c031f7a4a06a3b0a3d21f0833b2fc2",
      "blockHash": "0x383eaa6b01c5c2ede5df20e24ec0815efb14df510fe4c71aa9ec5e57f892b61c",
      "blockNumber": 62721,
      "transactionIndex": 0,
      "confirmations": null,
      "from": "0x2910543Af39abA0Cd09dBb2D50200b3E800A63D2",
      "gasPrice": {
        "_hex": "0xd593c70de"
      },
      "gasLimit": {
        "_hex": "0x5208"
      },
      "to": "0xBeb3B1d443791e4B2207a9866800E02DAcF19c02",
      "value": {
        "_hex": "0x14cff5d5e797f8000"
      },
      "nonce": 114,
      "data": "0x",
      "r": "0x97dafa559613a64b7e5599f97ef228203931e8125eab72195407e8a81187e07f",
      "s": "0x09b127420aef337434b0413625513af4575a79321bce4dfefaa1dfb7b55d09ba",
      "v": 28,
      "creates": null,
      "raw": "0xf86d72850d593c70de82520894beb3b1d443791e4b2207a9866800e02dacf19c0289014cff5d5e797f8000801ca097dafa559613a64b7e5599f97ef228203931e8125eab72195407e8a81187e07fa009b127420aef337434b0413625513af4575a79321bce4dfefaa1dfb7b55d09ba",
      "networkId": 0,
      "chainId": 0
    }
  ]
}