{
  "hash": "0x5ce233af8b3ecc03a73029bd85e48495a3ffc31517302001f5ad6ea9e3f64581",
  "parentHash": "0xbd4bb446e4130af06ad54606e2050cfcc4260bbe16e93f3b625125d36d888e33",
  "number": 83591,
  "timestamp": 1439537748,
  "nonce": "0xe1cf811766751f31",
  "difficulty": 2438420675506,
  "gasLimit": {
    "_hex": "0x2fefd8"
  },
  "gasUsed": {
    "_hex": "0x802e"
  },
  "miner": "0xeB1325C8D9d3ea8D74aC11F4B00F1B2367686319",
  "extraData": "0x476574682f76312e302e312f77696e646f77732f676f312e342e32",
  "transactions": [
    {
      "hash": "0x4b57f9270233b2e0a807dfaf94be876462cb86f80f6058c7a53735576484b068",
      "blockHash": "0x5ce233af8b3ecc03a73029bd85e48495a3ffc31517302001f5ad6ea9e3f64581",
      "blockNumber": 83591,
      "transactionIndex": 0,
      "confirmations": null,
      "from": "0xFBb1b73C4f0BDa4f67dcA266ce6Ef42f520fBB98",
      "gasPrice": {
        "_hex": "0xe0bba265c"
      },
      "gasLimit": {
        "_hex": "0x15f90"
      },
      "to": "0xCAc7000C7dBaa2E33Af15325AF5D435E011C7BdD",
      "value": {
        "_hex": "0x0"
      },
      "nonce": 32,
      "data": "0x3feb1bd84249545452455830300000000000000000000000000000000000000000000000000000000000000000000000770d98d31b4353fceee8560c4ccf803e88c0c4e0000000000000000000000000000000000000000000000000297e9d28866b0000",
      "r": "0x1f13549c321c96475b04b630ffabe915bb44671c1880860db6a50c1bbf869f1c",
      "s": "0x2f9189a1ea4c80a09fbfc6bea72c06b32a39f9b61032122e3a352f3bab784186",
      "v": 28,
      "creates": null,
      "raw": "0xf8ca20850e0bba265c83015f9094cac7000c7dbaa2e33af15325af5d435e011c7bdd80b8643feb1bd84249545452455830300000000000000000000000000000000000000000000000000000000000000000000000770d98d31b4353fceee8560c4ccf803e88c0c4e0000000000000000000000000000000000000000000000000297e9d28866b00001ca01f13549c321c96475b04b630ffabe915bb44671c1880860db6a50c1bbf869f1ca02f9189a1ea4c80a09fbfc6bea72c06b32a39f9b61032122e3a352f3bab784186",
      "networkId": 0,
      "chainId": 0
    }
  ]
}