{
  "hash": "0x7d726a457876117de1c1a1a9b222b4a54c421a43ca9ba581a12c0448fdaf8662",
  "parentHash": "0xc38643593a3e247d42edbdaa78177eaf4dde03b62edcc78be8ac9b60f8f0bc12",
  "number": 63996,
  "timestamp": 1439213778,
  "nonce": "0x429f2b4d1278f43b",
  "difficulty": 1842220441661,
  "gasLimit": {
    "_hex": "0x2fefd8"
  },
  "gasUsed": {
    "_hex": "0x5208"
  },
  "miner": "0x0D70592F27eC3d8996b4317150B3eD8C0CD57e38",
  "extraData": "0x476574682f76312e302e312f6c696e75782f676f312e342e32",
  "transactions": [
    {
      "hash": "0x0bb4e58f97630ce3a811cb01a71243d3a1d91cb0e988ba16afb20ed5726391e3",
      "blockHash": "0x7d726a457876117de1c1a1a9b222b4a54c421a43ca9ba581a12c0448fdaf8662",
      "blockNumber": 63996,
      "transactionIndex": 0,
      "confirmations": null,
      "from": "0x2B85069Da7a89A01430F4C5EfAb311ab681aAe8a",
      "gasPrice": {
        "_hex": "0xd7f1de78b"
      },
      "gasLimit": {
        "_hex": "0x15f90"
      },
      "to": "0xCCe611Cd2bfDc3260099b99b71CcFbe4A06D8B7D",
      "value": {
        "_hex": "0x16345785d8a0000"
      },
      "nonce": 1,
      "data": "0x",
      "r": "0xc76c8233d5a501c6e0d00c8ef18f07ed2630e56c9d45941b20340331929c5e31",
      "s": "0x2cf47cfa77e14a8aec5fafcc6f1d075f427f2786e869574c28413860647b7342",
      "v": 27,
      "creates": null,
      "raw": "0xf86d01850d7f1de78b83015f9094cce611cd2bfdc3260099b99b71ccfbe4a06d8b7d88016345785d8a0000801ba0c76c8233d5a501c6e0d00c8ef18f07ed2630e56c9d45941b20340331929c5e31a02cf47cfa77e14a8aec5fafcc6f1d075f427f2786e869574c28413860647b7342",
      "networkId": 0,
      "chainId": 0
    }
  ]
}