{
  "hash": "0x4678e6510b6e06c8af3c588e7494528cfd00e3eba201a3106c91817eecf8cc7d",
  "parentHash": "0xb1c931b7d57d2c9a249814af2c11537ac9bb148ce041c6d0b93bdfd723a9af23",
  "number": 110456,
  "timestamp": 1439974080,
  "nonce": "0xd05658d6195a4d31",
  "difficulty": 4381992471249,
  "gasLimit": {
    "_hex": "0x2fefd8"
  },
  "gasUsed": {
    "_hex": "0x5208"
  },
  "miner": "0xe6A7a1d47ff21B6321162AEA7C6CB457D5476Bca",
  "extraData": "0x476574682f76312e302e312d38326566323666362f6c696e75782f676f312e34",
  "transactions": [
    {
      "hash": "0x0d2b23bd2ace9a309e64121bf0d3b5b254f31fbe8f7d10a0c230ec8ed8e820b2",
      "blockHash": "0x4678e6510b6e06c8af3c588e7494528cfd00e3eba201a3106c91817eecf8cc7d",
      "blockNumber": 110456,
      "transactionIndex": 0,
      "confirmations": null,
      "from": "0xBa9CF76D809cF9f2e3f180AFb33f0adb0826D7DF",
      "gasPrice": {
        "_hex": "0xcc53c5f44"
      },
      "gasLimit": {
        "_hex": "0x5208"
      },
      "to": "0x32Be343B94f860124dC4fEe278FDCBD38C102D88",
      "value": {
        "_hex": "0x23ce1ed4bf85f4000"
      },
      "nonce": 5,
      "data": "0x",
      "r": "0xa7f4909bf93e448fb9a3f1fd1a994fd20fad086acaa8ca6b8887798584af3911",
      "s": "0x35a61eb1af9a6f5d0bd8ae585f1d98efe4ac9666ff37e5d725abbb726032b12d",
      "v": 28,
      "creates": null,
      "raw": "0xf86d05850cc53c5f448252089432be343b94f860124dc4fee278fdcbd38c102d8889023ce1ed4bf85f4000801ca0a7f4909bf93e448fb9a3f1fd1a994fd20fad086acaa8ca6b8887798584af3911a035a61eb1af9a6f5d0bd8ae585f1d98efe4ac9666ff37e5d725abbb726032b12d",
      "networkId": 0,
      "chainId": 0
    }
  ]
}