{
  "hash": "0xf613e2e89ecfd0b1a1c798bc54b8b4225a6494c7aed1d6c400684de15140bc5e",
  "parentHash": "0x07dc8a880c76942fb1e7b1fb8ce732e6e5899210e0301aa6795e64d749f076e5",
  "number": 118927,
  "timestamp": 1440133828,
  "nonce": "0x4a2d1244682822b4",
  "difficulty": 4396849372144,
  "gasLimit": {
    "_hex": "0x2fefd8"
  },
  "gasUsed": {
    "_hex": "0x5208"
  },
  "miner": "0x41542B0A28f978F7AfF8b35b356A7E0B2f2Bc638",
  "extraData": "0x476574682f76312e302e312d62663264346531652f6c696e75782f676f312e34",
  "transactions": [
    {
      "hash": "0xec57be740923503a9dbc222f2109eb72dde3a944da4eb8684dc5f1a229f8fa17",
      "blockHash": "0xf613e2e89ecfd0b1a1c798bc54b8b4225a6494c7aed1d6c400684de15140bc5e",
      "blockNumber": 118927,
      "transactionIndex": 0,
      "confirmations": null,
      "from": "0x608f4b86321a68453f9adf6F06F7Fc3E621739ad",
      "gasPrice": {
        "_hex": "0xba43b7400"
      },
      "gasLimit": {
        "_hex": "0x5208"
      },
      "to": "0x32Be343B94f860124dC4fEe278FDCBD38C102D88",
      "value": {
        "_hex": "0x455fd68a17f06000"
      },
      "nonce": 14,
      "data": "0x",
      "r": "0x6a657699c1c697d3607996670b9b0a8ff11321653257f30c305eb548addeaa55",
      "s": "0x6db3501e06d1e3c28adc0cb5613ae5f7c400bfed3bfd90e84ce78b8ba23afae9",
      "v": 28,
      "creates": null,
      "raw": "0xf86c0e850ba43b74008252089432be343b94f860124dc4fee278fdcbd38c102d8888455fd68a17f06000801ca06a657699c1c697d3607996670b9b0a8ff11321653257f30c305eb548addeaa55a06db3501e06d1e3c28adc0cb5613ae5f7c400bfed3bfd90e84ce78b8ba23afae9",
      "networkId": 0,
      "chainId": 0
    }
  ]
}