{
  "hash": "0x7566d409e82c0a775c5dd93070beb005b295cd9246864455aa9c3bafd96e1c71",
  "parentHash": "0x624cbe83b2943476cbd485a8fbab410d4a01908990466628e6e25579820ac572",
  "number": 71035,
  "timestamp": 1439329539,
  "nonce": "0xb869209808765e6d",
  "difficulty": 2153018444423,
  "gasLimit": {
    "_hex": "0x2fefd8"
  },
  "gasUsed": {
    "_hex": "0x834d2"
  },
  "miner": "0x580992B51e3925e23280EfB93d3047C82f17E038",
  "extraData": "0x476574682f76312e302e312f6c696e75782f676f312e342e32",
  "transactions": [
    {
      "hash": "0x17b106fc5e40e6596bd0498dccde14990becb65b05e356e0b16dcae28f28b578",
      "blockHash": "0x7566d409e82c0a775c5dd93070beb005b295cd9246864455aa9c3bafd96e1c71",
      "blockNumber": 71035,
      "transactionIndex": 0,
      "confirmations": null,
      "from": "0xf661E21B71A9CA331E251e51a412857D2B61d8F8",
      "gasPrice": {
        "_hex": "0xdafe4a1d8"
      },
      "gasLimit": {
        "_hex": "0x7a120"
      },
      "to": "0x109C4f2CCc82C4d77Bde15F306707320294Aea3F",
      "value": {
        "_hex": "0xde0b6b3a7640000"
      },
      "nonce": 1,
      "data": "0x",
      "r": "0xe3d5146dad75afa37bfa3d2c827b534d4e7458c586a6d9ca6cb5c43112cce13c",
      "s": "0x738d4e98923c4c313f4a909c1b983d4885d5b55651cd6c2b3101433d4b23f7ea",
      "v": 28,
      "creates": null,
      "raw": "0xf86d01850dafe4a1d88307a12094109c4f2ccc82c4d77bde15f306707320294aea3f880de0b6b3a7640000801ca0e3d5146dad75afa37bfa3d2c827b534d4e7458c586a6d9ca6cb5c43112cce13ca0738d4e98923c4c313f4a909c1b983d4885d5b55651cd6c2b3101433d4b23f7ea",
      "networkId": 0,
      "chainId": 0
    },
    {
      "hash": "0x82f53597761bad330604a4a593bcd4bcafbe2c7e560f7c1e8ed69888bd02ed0d",
      "blockHash": "0x7566d409e82c0a775c5dd93070beb005b295cd9246864455aa9c3bafd96e1c71",
      "blockNumber": 71035,
      "transactionIndex": 1,
      "confirmations": null,
      "from": "0x17580B766f7453525ca4C6A88b01b50570EA088C",
      "gasPrice": {
        "_hex": "0xd58514bb2"
      },
      "gasLimit": {
        "_hex": "0x61a80"
      },
      "to": "0x5Fe5B7546D1628f7348B023A0393de1FC825A4fD",
      "value": {
        "_hex": "0xde0b6b3a7640000"
      },
      "nonce": 85,
      "data": "0xb595b8b50000000000000000000000000000000000000000000000000000000000000000",
      "r": "0xc368025a4e12638553e5169e931da90dc6f767b3683fe24eeb06fcf45e71c065",
      "s": "0x77f69d4cc5e60de92dc247ddd5e0a2a7bb4bc355be4e457fdb76e2159b4f5085",
      "v": 27,
      "creates": null,
      "raw": "0xf89155850d58514bb283061a80945fe5b7546d1628f7348b023a0393de1fc825a4fd880de0b6b3a7640000a4b595b8b500000000000000000000000000000000000000000000000000000000000000001ba0c368025a4e12638553e5169e931da90dc6f767b3683fe24eeb06fcf45e71c065a077f69d4cc5e60de92dc247ddd5e0a2a7bb4bc355be4e457fdb76e2159b4f5085",
      "networkId": 0,
      "chainId": 0
    }
  ]
}