{
  "hash": "0x457a6e4b77eb9dc868a4691337876e02fb306a9de054658de5130ce182e36d10",
  "parentHash": "0xcf9528cee9ff0e7b653655e2ffd1fb2de5881f578e92d78d0168c6ce9867398b",
  "number": 50349,
  "timestamp": 1438987704,
  "nonce": "0x882c9fba5373c3f8",
  "difficulty": 1512657398703,
  "gasLimit": {
    "_hex": "0x5d5fb"
  },
  "gasUsed": {
    "_hex": "0x546c"
  },
  "miner": "0xe6A7a1d47ff21B6321162AEA7C6CB457D5476Bca",
  "extraData": "0x657468706f6f6c2e6f7267",
  "transactions": [
    {
      "hash": "0xbbc9166400bdfea0dc09f1c07de801837f16f476644f08ffbd747ca151384a03",
      "blockHash": "0x457a6e4b77eb9dc868a4691337876e02fb306a9de054658de5130ce182e36d10",
      "blockNumber": 50349,
      "transactionIndex": 0,
      "confirmations": null,
      "from": "0x3E8745BA322f5fd6cB50124Ec46688c7a69a7FaE",
      "gasPrice": {
        "_hex": "0xd27c46d82"
      },
      "gasLimit": {
        "_hex": "0x15f90"
      },
      "to": "0x2910543Af39abA0Cd09dBb2D50200b3E800A63D2",
      "value": {
        "_hex": "0x3635c9adc5dea00000"
      },
      "nonce": 3,
      "data": "0x454e435250324d4a52",
      "r": "0x98759bdf0cafecd2f690360ba8c0be27ff1bb3b12b7b3d50365329dc96e32c6f",
      "s": "0x2ad17c439d950e6d2ba268b9c6acbf66b68d35846127159173ba5e811e0d44d6",
      "v": 27,
      "creates": null,
      "raw": "0xf87703850d27c46d8283015f90942910543af39aba0cd09dbb2d50200b3e800a63d2893635c9adc5dea0000089454e435250324d4a521ba098759bdf0cafecd2f690360ba8c0be27ff1bb3b12b7b3d50365329dc96e32c6fa02ad17c439d950e6d2ba268b9c6acbf66b68d35846127159173ba5e811e0d44d6",
      "networkId": 0,
      "chainId": 0
    }
  ]
}