{
  "hash": "0xf0b07ab8aace6cbb767cf51b0f644a5ea33cf505637ebc0b3822d503174b3455",
  "parentHash": "0x9ae34ccddd5823d4fea991680818c9cb9e564e15cc2efc996d6e2d9aa5538743",
  "number": 48042,
  "timestamp": 1438950320,
  "nonce": "0xc74b3c6ac337c0bf",
  "difficulty": 1462945073699,
  "gasLimit": {
    "_hex": "0x11f00"
  },
  "gasUsed": {
    "_hex": "0xa8d8"
  },
  "miner": "0x580992B51e3925e23280EfB93d3047C82f17E038",
  "extraData": "0x476574682f76312e302e312f6c696e75782f676f312e342e32",
  "transactions": [
    {
      "hash": "0x2b5201384986204014d35de2ccf8ef9fb7fec7907fb277cb91e4b96dafcaf3e3",
      "blockHash": "0xf0b07ab8aace6cbb767cf51b0f644a5ea33cf505637ebc0b3822d503174b3455",
      "blockNumber": 48042,
      "transactionIndex": 0,
      "confirmations": null,
      "from": "0x77e41B4125b7c14757e0f07fE36b2E95db757a10",
      "gasPrice": {
        "_hex": "0xd9be7435b"
      },
      "gasLimit": {
        "_hex": "0x55f0"
      },
      "to": "0x2910543Af39abA0Cd09dBb2D50200b3E800A63D2",
      "value": {
        "_hex": "0x5af3107a4000"
      },
      "nonce": 0,
      "data": "0x454e47583939505930",
      "r": "0xf225458be0b4d1d5c948d21a122e6b7717984d78c466f3b3ec6a8d801916220e",
      "s": "0x7386ec2890a287837b24b54fb862be3440d88d0ac9efd8f1d24b5780eff7345d",
      "v": 27,
      "creates": null,
      "raw": "0xf87380850d9be7435b8255f0942910543af39aba0cd09dbb2d50200b3e800a63d2865af3107a400089454e475839395059301ba0f225458be0b4d1d5c948d21a122e6b7717984d78c466f3b3ec6a8d801916220ea07386ec2890a287837b24b54fb862be3440d88d0ac9efd8f1d24b5780eff7345d",
      "networkId": 0,
      "chainId": 0
    },
    {
      "hash": "0x43d1ce3ac702d094895d8497fac2e8f5ff9755f73a35c21909dc7ef971a26539",
      "blockHash": "0xf0b07ab8aace6cbb767cf51b0f644a5ea33cf505637ebc0b3822d503174b3455",
      "blockNumber": 48042,
      "transactionIndex": 1,
      "confirmations": null,
      "from": "0xC759dc67E0c3816fdC56A2f5bb29920fc07e767D",
      "gasPrice": {
        "_hex": "0xd80b3b06d"
      },
      "gasLimit": {
        "_hex": "0x6d60"
      },
      "to": "0x2910543Af39abA0Cd09dBb2D50200b3E800A63D2",
      "value": {
        "_hex": "0x4563918244f40000"
      },
      "nonce": 2,
      "data": "0x454e444d31394d3552",
      "r": "0x4e15a8bdff8e16492279f08df63391d7571947bf45075f85ad12ca1d6a2052f2",
      "s": "0x170c8b7d8452910036ddcdd82913c54f7718f2dbf04e0db635905d5046a6de2a",
      "v": 27,
      "creates": null,
      "raw": "0xf87502850d80b3b06d826d60942910543af39aba0cd09dbb2d50200b3e800a63d2884563918244f4000089454e444d31394d35521ba04e15a8bdff8e16492279f08df63391d7571947bf45075f85ad12ca1d6a2052f2a0170c8b7d8452910036ddcdd82913c54f7718f2dbf04e0db635905d5046a6de2a",
      "networkId": 0,
      "chainId": 0
    }
  ]
}