{
  "hash": "0x6671f7c0d49f5476e2dd63b52c3eb14c95131ad005200868c3666280331209d3",
  "parentHash": "0xab0be337dd0dcad307d544004e09bd1ec53592a5035c65d6f5695f77907ff5b3",
  "number": 108368,
  "timestamp": 1439939108,
  "nonce": "0xdc1c1fc3a6641139",
  "difficulty": 4344728924673,
  "gasLimit": {
    "_hex": "0x2fefd8"
  },
  "gasUsed": {
    "_hex": "0x5208"
  },
  "miner": "0x0193d941b50d91BE6567c7eE1C0Fe7AF498b4137",
  "extraData": "0x4a5ace9e4e",
  "transactions": [
    {
      "hash": "0x2beae3af41d32e861db56fd48fa1690be8dccd56a3ca9a903caf2fad9e764cba",
      "blockHash": "0x6671f7c0d49f5476e2dd63b52c3eb14c95131ad005200868c3666280331209d3",
      "blockNumber": 108368,
      "transactionIndex": 0,
      "confirmations": null,
      "from": "0xC47Aaa860008be6f65B58c6C6E02a84e666EfE31",
      "gasPrice": {
        "_hex": "0xcf8aa31ac"
      },
      "gasLimit": {
        "_hex": "0x15f90"
      },
      "to": "0x2128E8d8db402ba3022732952487031Dd5D68c1F",
      "value": {
        "_hex": "0xddd2935029d7fff"
      },
      "nonce": 87,
      "data": "0x",
      "r": "0xa5ca1a1595b212540fdd28dbe2fcfc87f00853c250366100fac9855a69faa19f",
      "s": "0x0f62b404373071a37841d949926c446238bf9cf9af37b76a1602e960179e8d00",
      "v": 27,
      "creates": null,
      "raw": "0xf86d57850cf8aa31ac83015f90942128e8d8db402ba3022732952487031dd5d68c1f880ddd2935029d7fff801ba0a5ca1a1595b212540fdd28dbe2fcfc87f00853c250366100fac9855a69faa19fa00f62b404373071a37841d949926c446238bf9cf9af37b76a1602e960179e8d00",
      "networkId": 0,
      "chainId": 0
    }
  ]
}