{
  "hash": "0xf57632f0332c2e592b5c33ec455510e6974b5853dad1b6fc76b7c26b84c97236",
  "parentHash": "0xaa3cd9e49ed2b3934ca4656a3fb971ae28175230ecdb0f457797b433abb046a3",
  "number": 88512,
  "timestamp": 1439609198,
  "nonce": "0xf49d10788f6723fc",
  "difficulty": 3230064933112,
  "gasLimit": {
    "_hex": "0x2fefd8"
  },
  "gasUsed": {
    "_hex": "0x5208"
  },
  "miner": "0xe6A7a1d47ff21B6321162AEA7C6CB457D5476Bca",
  "extraData": "0x476574682f76312e302e312d38326566323666362f6c696e75782f676f312e34",
  "transactions": [
    {
      "hash": "0x0eefc06e7adb4b9c820caf149d54538cbcf261a954ae48275004ba550689f4aa",
      "blockHash": "0xf57632f0332c2e592b5c33ec455510e6974b5853dad1b6fc76b7c26b84c97236",
      "blockNumber": 88512,
      "transactionIndex": 0,
      "confirmations": null,
      "from": "0x32Be343B94f860124dC4fEe278FDCBD38C102D88",
      "gasPrice": {
        "_hex": "0xe0b5bedd6"
      },
      "gasLimit": {
        "_hex": "0x5208"
      },
      "to": "0xF5DB8283D971Aa114D2035f512EdD8e86557c5C0",
      "value": {
        "_hex": "0x4768d7effc4000"
      },
      "nonce": 837,
      "data": "0x",
      "r": "0x97f28bee4de61840bcf4df3521dede7cb9b4df3b01b3d5245a4c61138baeb6ed",
      "s": "0x5b976576d8aa58e37e4883ddd2533d65e7d3e60fec299f44d01fee3f33ebaf34",
      "v": 28,
      "creates": null,
      "raw": "0xf86d820345850e0b5bedd682520894f5db8283d971aa114d2035f512edd8e86557c5c0874768d7effc4000801ca097f28bee4de61840bcf4df3521dede7cb9b4df3b01b3d5245a4c61138baeb6eda05b976576d8aa58e37e4883ddd2533d65e7d3e60fec299f44d01fee3f33ebaf34",
      "networkId": 0,
      "chainId": 0
    }
  ]
}