{
  "hash": "0x572ccf7d1c71f64089e187a8fbe4825380d8f3044331be64d165779df01e5138",
  "parentHash": "0x4ccbe4f005536702df49b8845184b21ab2e78166e9d934d0753f1af3c7c7a55d",
  "number": 88170,
  "timestamp": 1439603872,
  "nonce": "0xd4c6a1e2e36a8026",
  "difficulty": 3205059032647,
  "gasLimit": {
    "_hex": "0x2fefd8"
  },
  "gasUsed": {
    "_hex": "0x5208"
  },
  "miner": "0xe6A7a1d47ff21B6321162AEA7C6CB457D5476Bca",
  "extraData": "0x476574682f76312e302e312d38326566323666362f6c696e75782f676f312e34",
  "transactions": [
    {
      "hash": "0xacd50bf8043d865fa5ba3c559e0012cf10f763ccbfb63254bd76642f72909804",
      "blockHash": "0x572ccf7d1c71f64089e187a8fbe4825380d8f3044331be64d165779df01e5138",
      "blockNumber": 88170,
      "transactionIndex": 0,
      "confirmations": null,
      "from": "0xF9634a7Ee627EeF74f4d803113CD4F87E5162079",
      "gasPrice": {
        "_hex": "0xba43b7400"
      },
      "gasLimit": {
        "_hex": "0x5b04"
      },
      "to": "0x9f78552704fe7e52cC7C3853534aA2C3cf580D54",
      "value": {
        "_hex": "0x22b1c8c1227a00000"
      },
      "nonce": 8,
      "data": "0x",
      "r": "0x9a92e92e5b89e5068435f8d45feb28dd3d73842dd7f3eaddd62bac629ab326f3",
      "s": "0xc25e8e3ce54a1903a8f59fa7caa0c0b3701ed319b91ef019be4042ecc580a306",
      "v": 27,
      "creates": null,
      "raw": "0xf86d08850ba43b7400825b04949f78552704fe7e52cc7c3853534aa2c3cf580d5489022b1c8c1227a00000801ba09a92e92e5b89e5068435f8d45feb28dd3d73842dd7f3eaddd62bac629ab326f3a0c25e8e3ce54a1903a8f59fa7caa0c0b3701ed319b91ef019be4042ecc580a306",
      "networkId": 0,
      "chainId": 0
    }
  ]
}