{
  "hash": "0xb85492a0587227265a83f7db079a5ca800ac6abe2c04e8f4dbc4cc2ccf277512",
  "parentHash": "0x58aaee77591c0897c60672ebcbbe8b9952eba71ad720ad5e86e6e9b95492e52b",
  "number": 121574,
  "timestamp": 1440179207,
  "nonce": "0x5adb8cb88126fe9c",
  "difficulty": 4440764705969,
  "gasLimit": {
    "_hex": "0x2fefd8"
  },
  "gasUsed": {
    "_hex": "0x5208"
  },
  "miner": "0xe6A7a1d47ff21B6321162AEA7C6CB457D5476Bca",
  "extraData": "0xd783010002844765746887676f312e342e32856c696e7578",
  "transactions": [
    {
      "hash": "0x555921b5ac9ae163adfde2525b3d83101c3e93f539188cc362b31d84786525dd",
      "blockHash": "0xb85492a0587227265a83f7db079a5ca800ac6abe2c04e8f4dbc4cc2ccf277512",
      "blockNumber": 121574,
      "transactionIndex": 0,
      "confirmations": null,
      "from": "0x007f7f58D3eb5b7510A301eCC749FC1fCDDBE14D",
      "gasPrice": {
        "_hex": "0xba43b7400"
      },
      "gasLimit": {
        "_hex": "0x15f90"
      },
      "to": "0xb1abce2918E21ddb93AA452731a12672A3d9F75a",
      "value": {
        "_hex": "0x4563918244f40000"
      },
      "nonce": 376,
      "data": "0x",
      "r": "0x445bf20ef5fbedfa7761f969f84b37818b9024f8e156fe543d0c3fb5964c75e9",
      "s": "0x03cf31a3352f30063d03c4079393f0830bbe90a656f0744e2304e3b4ab291f92",
      "v": 27,
      "creates": null,
      "raw": "0xf86f820178850ba43b740083015f9094b1abce2918e21ddb93aa452731a12672a3d9f75a884563918244f40000801ba0445bf20ef5fbedfa7761f969f84b37818b9024f8e156fe543d0c3fb5964c75e9a003cf31a3352f30063d03c4079393f0830bbe90a656f0744e2304e3b4ab291f92",
      "networkId": 0,
      "chainId": 0
    }
  ]
}