{
  "hash": "0xa13b55adceff2b716c089d6270ec515a366a51330c652fef2643f62117ad3d02",
  "parentHash": "0xc49db588a3fdf959ffa42fb06aa5ff09fba0b92056b025ba44cad3bc6dda6338",
  "number": 54608,
  "timestamp": 1439056960,
  "nonce": "0xd4a4dbe89d9af3b2",
  "difficulty": 1622812970816,
  "gasLimit": {
    "_hex": "0x2fefd8"
  },
  "gasUsed": {
    "_hex": "0xa410"
  },
  "miner": "0xbe4532E1B1Db5c913Cf553be76180c1777055403",
  "extraData": "0x476574682f686261722f76312e302e312f6c696e75782f676f312e342e32",
  "transactions": [
    {
      "hash": "0xb2f10788f45368224a4143fbe37f8a661643e4dfc3f8ddd0a487b8804492d37e",
      "blockHash": "0xa13b55adceff2b716c089d6270ec515a366a51330c652fef2643f62117ad3d02",
      "blockNumber": 54608,
      "transactionIndex": 0,
      "confirmations": null,
      "from": "0x1C257ad4A55105ea3B58Ed374b198dA266c85f63",
      "gasPrice": {
        "_hex": "0x11448790186"
      },
      "gasLimit": {
        "_hex": "0x5208"
      },
      "to": "0x439632734cdF5a84774156c1938CbeDe2eF398F0",
      "value": {
        "_hex": "0x6a94d74f43000000"
      },
      "nonce": 12,
      "data": "0x",
      "r": "0xfb0a9cd6e382c87f7e4a1d30909f5d219635482c78b948aeee52a321072d6f55",
      "s": "0x176bbe1cd1f7df72783c274c868ce6b808349f123471a799aaffd7d9d7b1c421",
      "v": 27,
      "creates": null,
      "raw": "0xf86d0c8601144879018682520894439632734cdf5a84774156c1938cbede2ef398f0886a94d74f43000000801ba0fb0a9cd6e382c87f7e4a1d30909f5d219635482c78b948aeee52a321072d6f55a0176bbe1cd1f7df72783c274c868ce6b808349f123471a799aaffd7d9d7b1c421",
      "networkId": 0,
      "chainId": 0
    },
    {
      "hash": "0xa874b8e8407a8e208d850e1ada0d86ae765e6503df052e39751dfa4dcbf7cb48",
      "blockHash": "0xa13b55adceff2b716c089d6270ec515a366a51330c652fef2643f62117ad3d02",
      "blockNumber": 54608,
      "transactionIndex": 1,
      "confirmations": null,
      "from": "0xB4524c95a7860E21840296A616244019421C4aBa",
      "gasPrice": {
        "_hex": "0xd8364fc25"
      },
      "gasLimit": {
        "_hex": "0x15f90"
      },
      "to": "0xDf3435b39f96cA23a759D8B1eCC82ad9cE30CAAf",
      "value": {
        "_hex": "0x6c6b935b8bbd400000"
      },
      "nonce": 1,
      "data": "0x",
      "r": "0xf1b09c58763c73d2577de59ffa0fb55035c99d7bc27cbff43dbfa33ff26b22f9",
      "s": "0x35ba37cfae5b674f3b99e01a0bd02526287271af325d18c10a0efe8476b03cfb",
      "v": 27,
      "creates": null,
      "raw": "0xf86e01850d8364fc2583015f9094df3435b39f96ca23a759d8b1ecc82ad9ce30caaf896c6b935b8bbd400000801ba0f1b09c58763c73d2577de59ffa0fb55035c99d7bc27cbff43dbfa33ff26b22f9a035ba37cfae5b674f3b99e01a0bd02526287271af325d18c10a0efe8476b03cfb",
      "networkId": 0,
      "chainId": 0
    }
  ]
}