{
  "hash": "0xd5bb4310a66bffbfb46e44a320680437a155ee9fce24e60b4d85c589a854f37f",
  "parentHash": "0x7a919742472fdbf9629885024c7f8f2c7bf1cd2ab77ed73ef92b68f36d5855f7",
  "number": 105112,
  "timestamp": 1439881892,
  "nonce": "0x2fa3fc58072ee0b3",
  "difficulty": 4312591561387,
  "gasLimit": {
    "_hex": "0x2fefd8"
  },
  "gasUsed": {
    "_hex": "0x1bdbe"
  },
  "miner": "0xe6A7a1d47ff21B6321162AEA7C6CB457D5476Bca",
  "extraData": "0x476574682f76312e302e312d38326566323666362f6c696e75782f676f312e34",
  "transactions": [
    {
      "hash": "0x6cf2976ecfcf64a4c62a8b9b40017898433140d30e4be6215b7dbbc5403a76ec",
      "blockHash": "0xd5bb4310a66bffbfb46e44a320680437a155ee9fce24e60b4d85c589a854f37f",
      "blockNumber": 105112,
      "transactionIndex": 0,
      "confirmations": null,
      "from": "0x9741eA36d0157f11220bB5f00DB33419c79984B8",
      "gasPrice": {
        "_hex": "0xd641f460d"
      },
      "gasLimit": {
        "_hex": "0x249f0"
      },
      "to": "0xE28e72FCf78647ADCe1F1252F240bbfaebD63BcC",
      "value": {
        "_hex": "0x8ac7230489e80000"
      },
      "nonce": 0,
      "data": "0x45466f3a",
      "r": "0x8cd94e26d1a64bc46a00709f5446449910b3426ba6c2c835b9da45222c8cf637",
      "s": "0x52e14da600dd2aed639ccf80b0de5e98b5313c017a56f1b060fc074837daedf3",
      "v": 27,
      "creates": null,
      "raw": "0xf87180850d641f460d830249f094e28e72fcf78647adce1f1252f240bbfaebd63bcc888ac7230489e800008445466f3a1ba08cd94e26d1a64bc46a00709f5446449910b3426ba6c2c835b9da45222c8cf637a052e14da600dd2aed639ccf80b0de5e98b5313c017a56f1b060fc074837daedf3",
      "networkId": 0,
      "chainId": 0
    }
  ]
}