{
  "hash": "0x64d1c0db569acd3e6e64a86984d6814fbe7a23957dd6395a4110b663bdaf5eb4",
  "parentHash": "0x606634ed4feccc0c79ab1ab98ec5798065d952b11e511109ee4558c13014712c",
  "number": 80088,
  "timestamp": 1439479986,
  "nonce": "0x5c886d415f798215",
  "difficulty": 2347131475882,
  "gasLimit": {
    "_hex": "0x2fefd8"
  },
  "gasUsed": {
    "_hex": "0x5208"
  },
  "miner": "0x70137010922f2fC2964b3792907F79FBB75fEbe8",
  "extraData": "0x476574682f76312e302e302f6c696e75782f676f312e342e32",
  "transactions": [
    {
      "hash": "0x8d831246a5be1ba53b7a806ec42dd98e5586df3a6f12833622b8186f05a12d15",
      "blockHash": "0x64d1c0db569acd3e6e64a86984d6814fbe7a23957dd6395a4110b663bdaf5eb4",
      "blockNumber": 80088,
      "transactionIndex": 0,
      "confirmations": null,
      "from": "0xa6BDc31c431B8F97848c9D60cbbe9660dc450eB7",
      "gasPrice": {
        "_hex": "0xdadfa2e3f"
      },
      "gasLimit": {
        "_hex": "0x5208"
      },
      "to": "0x32Be343B94f860124dC4fEe278FDCBD38C102D88",
      "value": {
        "_hex": "0x45634be7bd7d0c00"
      },
      "nonce": 43,
      "data": "0x",
      "r": "0xc0526229d41217dd8b515fccd58bce698120e7c97e25521a1a1d65fa66a57f1b",
      "s": "0x314fac9fef89f90b3497feeacbe7efe1c01e28e91fc4d4e9950133e4e5d364e1",
      "v": 28,
      "creates": null,
      "raw": "0xf86c2b850dadfa2e3f8252089432be343b94f860124dc4fee278fdcbd38c102d888845634be7bd7d0c00801ca0c0526229d41217dd8b515fccd58bce698120e7c97e25521a1a1d65fa66a57f1ba0314fac9fef89f90b3497feeacbe7efe1c01e28e91fc4d4e9950133e4e5d364e1",
      "networkId": 0,
      "chainId": 0
    }
  ]
}