{
  "hash": "0x82574ee6d2f30c9e85e01a77e2f7e3f198dc9e2ed42723ada69fdd849f872b2a",
  "parentHash": "0x8c499b8be5ab8997de3056b8726583bc73cee6a5b1307dad36df61e640546aa2",
  "number": 77272,
  "timestamp": 1439434374,
  "nonce": "0xece5b70df69b0143",
  "difficulty": 2236028941306,
  "gasLimit": {
    "_hex": "0x2fefd8"
  },
  "gasUsed": {
    "_hex": "0x5208"
  },
  "miner": "0xe6A7a1d47ff21B6321162AEA7C6CB457D5476Bca",
  "extraData": "0x476574682f76312e302e312d38326566323666362f6c696e75782f676f312e34",
  "transactions": [
    {
      "hash": "0xc6c758fdc4be63c25d6726e363ed9bd956545971ffcd15ae06fa1bc058a9ba8c",
      "blockHash": "0x82574ee6d2f30c9e85e01a77e2f7e3f198dc9e2ed42723ada69fdd849f872b2a",
      "blockNumber": 77272,
      "transactionIndex": 0,
      "confirmations": null,
      "from": "0x770d98d31b4353FceEE8560c4CCf803e88C0c4e0",
      "gasPrice": {
        "_hex": "0xd5b001d94"
      },
      "gasLimit": {
        "_hex": "0x15f90"
      },
      "to": "0xCc519A6f707571a4C58F0c4b574643283a0742B8",
      "value": {
        "_hex": "0xde0b6b3a7640000"
      },
      "nonce": 5,
      "data": "0x",
      "r": "0xfa6781918e2e84f6bc772f3b7c2b774167e15d143cdefacb42e53d5567f939b2",
      "s": "0x6dada7f7cbc62a5a4e8267b1d0079fa38f940e3dcf28142942c614abc11b36a9",
      "v": 28,
      "creates": null,
      "raw": "0xf86d05850d5b001d9483015f9094cc519a6f707571a4c58f0c4b574643283a0742b8880de0b6b3a7640000801ca0fa6781918e2e84f6bc772f3b7c2b774167e15d143cdefacb42e53d5567f939b2a06dada7f7cbc62a5a4e8267b1d0079fa38f940e3dcf28142942c614abc11b36a9",
      "networkId": 0,
      "chainId": 0
    }
  ]
}