{
  "hash": "0x7d101719689a8a423814fce937c580eed4d2b0ed314130c74f8dec3e6079809b",
  "parentHash": "0x7ef6f41bbf52a16a1ba3d23177a9304240be0f8b28086d461d1fd75931f6afa3",
  "number": 111455,
  "timestamp": 1439990473,
  "nonce": "0xf8845e6fcc41dbbc",
  "difficulty": 4443954309520,
  "gasLimit": {
    "_hex": "0x2fefd8"
  },
  "gasUsed": {
    "_hex": "0x5208"
  },
  "miner": "0xA1623430350C5df1b52B0b57483A5bb45d1796Da",
  "extraData": "0x476574682f76312e302e312d38326566323666362f6c696e75782f676f312e34",
  "transactions": [
    {
      "hash": "0xad0c88c41b4ceaea55e6bbaffcaac320dae47c035d9809b5ebf7b36606eb2dc9",
      "blockHash": "0x7d101719689a8a423814fce937c580eed4d2b0ed314130c74f8dec3e6079809b",
      "blockNumber": 111455,
      "transactionIndex": 0,
      "confirmations": null,
      "from": "0x623d2411c3bb3340784155F9a688b0085251aB5c",
      "gasPrice": {
        "_hex": "0xd20c08680"
      },
      "gasLimit": {
        "_hex": "0x55f0"
      },
      "to": "0x7001C4730b81A539eF8b760A3eEb14C64515137B",
      "value": {
        "_hex": "0x4c53ecdc18a600000"
      },
      "nonce": 2,
      "data": "0x",
      "r": "0x501e47cb3af1e9944242e4834c380639823e9145b4f112202adf09740437d043",
      "s": "0x55cb26869eca269b6e5c69ec99e0211696482fd6290e220847ed84900eac01e2",
      "v": 28,
      "creates": null,
      "raw": "0xf86d02850d20c086808255f0947001c4730b81a539ef8b760a3eeb14c64515137b8904c53ecdc18a600000801ca0501e47cb3af1e9944242e4834c380639823e9145b4f112202adf09740437d043a055cb26869eca269b6e5c69ec99e0211696482fd6290e220847ed84900eac01e2",
      "networkId": 0,
      "chainId": 0
    }
  ]
}