{
  "hash": "0xc4fb4884a07c181a22897ec7564a614777dbb14a8e9fe764ac586757e80e84c8",
  "parentHash": "0x35e80cc28925c1f3364131a7934d095902012df6681a2fe280b6dc705be8683d",
  "number": 51611,
  "timestamp": 1439007903,
  "nonce": "0x63af0ce49ad3ba03",
  "difficulty": 1557394769900,
  "gasLimit": {
    "_hex": "0xc49de"
  },
  "gasUsed": {
    "_hex": "0x7a120"
  },
  "miner": "0x24339341F29d2aaD7d3c591c0f9931e7D4bFEd6e",
  "extraData": "0x476574682f76312e302e312f6c696e75782f676f312e342e32",
  "transactions": [
    {
      "hash": "0x800d7d7e8a42f13b3ec3709402c568cb2dfac68721f1dae9fa81106bd7d6a34e",
      "blockHash": "0xc4fb4884a07c181a22897ec7564a614777dbb14a8e9fe764ac586757e80e84c8",
      "blockNumber": 51611,
      "transactionIndex": 0,
      "confirmations": null,
      "from": "0xFCf9f6A78f06227522c6f948ec0119dA31680Ef7",
      "gasPrice": {
        "_hex": "0xdcda0424b"
      },
      "gasLimit": {
        "_hex": "0x7a120"
      },
      "to": "0xBAA54d6E90c3F4d7Ebec11bD180134C7eD8eBb52",
      "value": {
        "_hex": "0x16345785d8a0000"
      },
      "nonce": 22,
      "data": "0x",
      "r": "0x1b2f2a8cd7a3605d05026b5031bd0cd3bf376241e771a554d9ad1b71384351c0",
      "s": "0x5da3db0c3f44a04edb07597c2c9bf2c886a5b823463be83b1f11a71e192e9de5",
      "v": 28,
      "creates": null,
      "raw": "0xf86d16850dcda0424b8307a12094baa54d6e90c3f4d7ebec11bd180134c7ed8ebb5288016345785d8a0000801ca01b2f2a8cd7a3605d05026b5031bd0cd3bf376241e771a554d9ad1b71384351c0a05da3db0c3f44a04edb07597c2c9bf2c886a5b823463be83b1f11a71e192e9de5",
      "networkId": 0,
      "chainId": 0
    }
  ]
}