{
  "hash": "0x52d329f0155a6b03cb2f330704fbaf279e09d2fdf35b44ac5317dc8a58667e81",
  "parentHash": "0x335c870f4ccd1df5dfc3a9642da878777d5f8c0c98a375b3eda3a79b5a901d6a",
  "number": 70477,
  "timestamp": 1439320260,
  "nonce": "0xd1a9579fb5c1a9f1",
  "difficulty": 2148960375319,
  "gasLimit": {
    "_hex": "0x2fefd8"
  },
  "gasUsed": {
    "_hex": "0x524d"
  },
  "miner": "0x88D74a59454F6cF3B51ef6b9136AFb6b9D405A88",
  "extraData": "0x476574682f76312e302e312d37666266393930632f6c696e75782f676f312e34",
  "transactions": [
    {
      "hash": "0x664fc2d455a6859a1b92c2e865a02aace8ddf2a439ce77b84af7425c128b4f96",
      "blockHash": "0x52d329f0155a6b03cb2f330704fbaf279e09d2fdf35b44ac5317dc8a58667e81",
      "blockNumber": 70477,
      "transactionIndex": 0,
      "confirmations": null,
      "from": "0x7744774422Cd8b2d5895D7Bc552b9A57388DB228",
      "gasPrice": {
        "_hex": "0xd5346c5c8"
      },
      "gasLimit": {
        "_hex": "0x15f90"
      },
      "to": "0x9E15f66B34edc3262796ef5E4D27139C931223f0",
      "value": {
        "_hex": "0x6f05b59d3b20000"
      },
      "nonce": 0,
      "data": "0x",
      "r": "0x9b67ed3d34beaf9d68b798662e7fad445bf6ea91d41441503c65a56f02430cb7",
      "s": "0x7aa73a4c900966a6e3ccb2603ecf4fff5c987c9a1cf5a751c4052f815e0f4d23",
      "v": 28,
      "creates": null,
      "raw": "0xf86d80850d5346c5c883015f90949e15f66b34edc3262796ef5e4d27139c931223f08806f05b59d3b20000801ca09b67ed3d34beaf9d68b798662e7fad445bf6ea91d41441503c65a56f02430cb7a07aa73a4c900966a6e3ccb2603ecf4fff5c987c9a1cf5a751c4052f815e0f4d23",
      "networkId": 0,
      "chainId": 0
    }
  ]
}