{
  "hash": "0xa5e2c8f234e4929a5dc4bdf8c175ae7a7bbdb372688c6cb92bd3d652de5a37e4",
  "parentHash": "0x1d9bde8a2a994428d33dd03498993bf56119090ceab27cc4616baf424f16ee31",
  "number": 83021,
  "timestamp": 1439528687,
  "nonce": "0x36b1e54c1e0fd958",
  "difficulty": 2410175976138,
  "gasLimit": {
    "_hex": "0x2fefd8"
  },
  "gasUsed": {
    "_hex": "0x546c"
  },
  "miner": "0x007f7f58D3eb5b7510A301eCC749FC1fCDDBE14D",
  "extraData": "0x476574682f76312e302e312f77696e646f77732f676f312e342e32",
  "transactions": [
    {
      "hash": "0xa4adf7abc0beb420826c51b03a888c7ea81a6dcaf07494b23303b8ec5ce3e29d",
      "blockHash": "0xa5e2c8f234e4929a5dc4bdf8c175ae7a7bbdb372688c6cb92bd3d652de5a37e4",
      "blockNumber": 83021,
      "transactionIndex": 0,
      "confirmations": null,
      "from": "0x9E35399071a4A101e9194daa3f09f04a0b5F9870",
      "gasPrice": {
        "_hex": "0x110c8f7d8de"
      },
      "gasLimit": {
        "_hex": "0xc350"
      },
      "to": "0x2910543Af39abA0Cd09dBb2D50200b3E800A63D2",
      "value": {
        "_hex": "0xd891c32595358c0000"
      },
      "nonce": 0,
      "data": "0x454e4635464d433252",
      "r": "0x7f32c7be4c333b319ddc4da51490d504c947f808f4e54961254e73f12a86c438",
      "s": "0xfbceec535dd61b43586b5d26d65282aedc6b96ee06e01ba799ac177c091339ac",
      "v": 27,
      "creates": null,
      "raw": "0xf87780860110c8f7d8de82c350942910543af39aba0cd09dbb2d50200b3e800a63d289d891c32595358c000089454e4635464d4332521ba07f32c7be4c333b319ddc4da51490d504c947f808f4e54961254e73f12a86c438a0fbceec535dd61b43586b5d26d65282aedc6b96ee06e01ba799ac177c091339ac",
      "networkId": 0,
      "chainId": 0
    }
  ]
}