{
  "hash": "0xbc3e7b52b818aa7fad95b214ea10f0e188b144ff363a49db03fb989af297d8de",
  "parentHash": "0xb8e8df1eda6d7478e06311bd3e79c2d0c1d3b00af9b6d730f25830cc2f333187",
  "number": 110427,
  "timestamp": 1439973605,
  "nonce": "0x05b6b847997facc2",
  "difficulty": 4375593362236,
  "gasLimit": {
    "_hex": "0x2fefd8"
  },
  "gasUsed": {
    "_hex": "0x14820"
  },
  "miner": "0xe6A7a1d47ff21B6321162AEA7C6CB457D5476Bca",
  "extraData": "0x476574682f76312e302e312d38326566323666362f6c696e75782f676f312e34",
  "transactions": [
    {
      "hash": "0x0028824d4b950f0b51902f19d7a9f9a379f1aa292a4393e70e6e86d530e91c20",
      "blockHash": "0xbc3e7b52b818aa7fad95b214ea10f0e188b144ff363a49db03fb989af297d8de",
      "blockNumber": 110427,
      "transactionIndex": 0,
      "confirmations": null,
      "from": "0x8263B7757b139904C7cD8511B3D0a6D1479848Ba",
      "gasPrice": {
        "_hex": "0xde2cd0307"
      },
      "gasLimit": {
        "_hex": "0x5208"
      },
      "to": "0x32Be343B94f860124dC4fEe278FDCBD38C102D88",
      "value": {
        "_hex": "0x68fc1aa4fd2af400"
      },
      "nonce": 7,
      "data": "0x",
      "r": "0x603e034fe1203e0b2827f36dff075dcbed8f9416df6e8dd0593630c45a7df490",
      "s": "0x4abc3821918ec42f9e32a193839e5221b991ef33e4342f2f6f3c73efcb0f97e9",
      "v": 28,
      "creates": null,
      "raw": "0xf86c07850de2cd03078252089432be343b94f860124dc4fee278fdcbd38c102d888868fc1aa4fd2af400801ca0603e034fe1203e0b2827f36dff075dcbed8f9416df6e8dd0593630c45a7df490a04abc3821918ec42f9e32a193839e5221b991ef33e4342f2f6f3c73efcb0f97e9",
      "networkId": 0,
      "chainId": 0
    },
    {
      "hash": "0xb0d54aadc3bef51ee2f6284f78fc1f74eb2edb637de2055d253ed87bd15e6ce6",
      "blockHash": "0xbc3e7b52b818aa7fad95b214ea10f0e188b144ff363a49db03fb989af297d8de",
      "blockNumber": 110427,
      "transactionIndex": 1,
      "confirmations": null,
      "from": "0x4369BF4867c99a39513Bb176d468A7e326F3a542",
      "gasPrice": {
        "_hex": "0xde2cd0307"
      },
      "gasLimit": {
        "_hex": "0x5208"
      },
      "to": "0x32Be343B94f860124dC4fEe278FDCBD38C102D88",
      "value": {
        "_hex": "0x5c0d33c7efb91000"
      },
      "nonce": 7,
      "data": "0x",
      "r": "0xd2f67c72cad3354b60415e4247517a08bf0185558aaa717a0090947be6fb75b5",
      "s": "0x637f8f077b8755d3d7be32f2f82dae2bc75903bccb50d2dc8e4c41637cbfb6f3",
      "v": 28,
      "creates": null,
      "raw": "0xf86c07850de2cd03078252089432be343b94f860124dc4fee278fdcbd38c102d88885c0d33c7efb91000801ca0d2f67c72cad3354b60415e4247517a08bf0185558aaa717a0090947be6fb75b5a0637f8f077b8755d3d7be32f2f82dae2bc75903bccb50d2dc8e4c41637cbfb6f3",
      "networkId": 0,
      "chainId": 0
    },
    {
      "hash": "0xa70c0482379bd23e396725fa42aa9127fd447fc5f106f8a84d27d17fc402b64b",
      "blockHash": "0xbc3e7b52b818aa7fad95b214ea10f0e188b144ff363a49db03fb989af297d8de",
      "blockNumber": 110427,
      "transactionIndex": 2,
      "confirmations": null,
      "from": "0x7550E0d09f273C690454B44F794D7D381B2E55EA",
      "gasPrice": {
        "_hex": "0xde2cd0307"
      },
      "gasLimit": {
        "_hex": "0x5208"
      },
      "to": "0x32Be343B94f860124dC4fEe278FDCBD38C102D88",
      "value": {
        "_hex": "0x8542f98d1e37d800"
      },
      "nonce": 7,
      "data": "0x",
      "r": "0x5c9d399ca0bc17e57695410d50a592c16b33531575d045be99a3f0ebe3b53775",
      "s": "0x1c63d0feef1bdcfe28c404b1cf7a821de7850f022dfa92f708a55d5c33afb34a",
      "v": 28,
      "creates": null,
      "raw": "0xf86c07850de2cd03078252089432be343b94f860124dc4fee278fdcbd38c102d88888542f98d1e37d800801ca05c9d399ca0bc17e57695410d50a592c16b33531575d045be99a3f0ebe3b53775a01c63d0feef1bdcfe28c404b1cf7a821de7850f022dfa92f708a55d5c33afb34a",
      "networkId": 0,
      "chainId": 0
    },
    {
      "hash": "0xa67a20ef4b1477549d60475b41972c7246fabf40de449ee0b819df71eae23eb0",
      "blockHash": "0xbc3e7b52b818aa7fad95b214ea10f0e188b144ff363a49db03fb989af297d8de",
      "blockNumber": 110427,
      "transactionIndex": 3,
      "confirmations": null,
      "from": "0xa69Dd2F55e5A3d4CB2B4b3eE2f613562b57a1D2F",
      "gasPrice": {
        "_hex": "0xde2cd0307"
      },
      "gasLimit": {
        "_hex": "0x5208"
      },
      "to": "0x32Be343B94f860124dC4fEe278FDCBD38C102D88",
      "value": {
        "_hex": "0x380dcc4a3a5ca800"
      },
      "nonce": 5,
      "data": "0x",
      "r": "0xb4c1f37b9276ad538bf0027c0f012ac752bed74a56bffd0b2809dff6afd5fdb7",
      "s": "0x5ca539527ad5a46dbe812e68900ab535da14ccf93971492ce746005f8f08c5f1",
      "v": 27,
      "creates": null,
      "raw": "0xf86c05850de2cd03078252089432be343b94f860124dc4fee278fdcbd38c102d8888380dcc4a3a5ca800801ba0b4c1f37b9276ad538bf0027c0f012ac752bed74a56bffd0b2809dff6afd5fdb7a05ca539527ad5a46dbe812e68900ab535da14ccf93971492ce746005f8f08c5f1",
      "networkId": 0,
      "chainId": 0
    }
  ]
}