{
  "hash": "0x75f9b81ef05d1606327a26ab3375e76b46b09c0e324b59a90d3abbc87788c8ab",
  "parentHash": "0xf29c266fe49475bd7ed2dbff46bf616f025f8032b108a84dd078f063994aa5a9",
  "number": 100747,
  "timestamp": 1439811725,
  "nonce": "0xba5982498568c1a0",
  "difficulty": 3839569052466,
  "gasLimit": {
    "_hex": "0x2fefd8"
  },
  "gasUsed": {
    "_hex": "0x5208"
  },
  "miner": "0xe6A7a1d47ff21B6321162AEA7C6CB457D5476Bca",
  "extraData": "0x476574682f76312e302e312d38326566323666362f6c696e75782f676f312e34",
  "transactions": [
    {
      "hash": "0x9558d43f9a332f061eca92ca9b49df84e57438a6c140caae0d85392f8d88fafa",
      "blockHash": "0x75f9b81ef05d1606327a26ab3375e76b46b09c0e324b59a90d3abbc87788c8ab",
      "blockNumber": 100747,
      "transactionIndex": 0,
      "confirmations": null,
      "from": "0x7884D470204862a0d1A21122F41ee77430396Ee5",
      "gasPrice": {
        "_hex": "0xd8ea97f38"
      },
      "gasLimit": {
        "_hex": "0x15f90"
      },
      "to": "0xE9f1bbcC9F6d340c67Dac6983ab7fc17051Aa1C2",
      "value": {
        "_hex": "0xf8b0a10e470000"
      },
      "nonce": 73,
      "data": "0x",
      "r": "0xa1c68e51f1338b255570aebb70938240fb72780d611344a357498d2deccb70c5",
      "s": "0x53ed1b33aae851190035a67ce89ddf95cd7d333dd3f98f3a6d90dc2b022ba207",
      "v": 28,
      "creates": null,
      "raw": "0xf86c49850d8ea97f3883015f9094e9f1bbcc9f6d340c67dac6983ab7fc17051aa1c287f8b0a10e470000801ca0a1c68e51f1338b255570aebb70938240fb72780d611344a357498d2deccb70c5a053ed1b33aae851190035a67ce89ddf95cd7d333dd3f98f3a6d90dc2b022ba207",
      "networkId": 0,
      "chainId": 0
    }
  ]
}