{
  "hash": "0xc3325cab9d9692244c53517c1a8a04aec21544c240623a36fe09c09fed476b8d",
  "parentHash": "0x02409293e949e49e2d8de7df40160d95339c5747b24fd239642b319474fcc388",
  "number": 86682,
  "timestamp": 1439581400,
  "nonce": "0x6a7f98375fb5f834",
  "difficulty": 2947400250899,
  "gasLimit": {
    "_hex": "0x2fefd8"
  },
  "gasUsed": {
    "_hex": "0xa410"
  },
  "miner": "0xe6A7a1d47ff21B6321162AEA7C6CB457D5476Bca",
  "extraData": "0x476574682f76312e302e312d38326566323666362f6c696e75782f676f312e34",
  "transactions": [
    {
      "hash": "0x42ff803548a52aad298ca7cae5063f85c3867c306dda02f559b2626a519839b1",
      "blockHash": "0xc3325cab9d9692244c53517c1a8a04aec21544c240623a36fe09c09fed476b8d",
      "blockNumber": 86682,
      "transactionIndex": 0,
      "confirmations": null,
      "from": "0x32Be343B94f860124dC4fEe278FDCBD38C102D88",
      "gasPrice": {
        "_hex": "0xd3ca82d6f"
      },
      "gasLimit": {
        "_hex": "0x5208"
      },
      "to": "0x8A243A0A9fEA49b839547745ff2D11Af3F4b0522",
      "value": {
        "_hex": "0xe12cadb4e793e0000"
      },
      "nonce": 762,
      "data": "0x",
      "r": "0xb614c54b2030a2b4bb70e9cbf6ca8e25ee9575e39a73dd1859d530b9d2297503",
      "s": "0x018ed5bd764eceaceed5983a0463c1f8631ac86c6012bb2e0b6c51413be54513",
      "v": 27,
      "creates": null,
      "raw": "0xf86f8202fa850d3ca82d6f825208948a243a0a9fea49b839547745ff2d11af3f4b0522890e12cadb4e793e0000801ba0b614c54b2030a2b4bb70e9cbf6ca8e25ee9575e39a73dd1859d530b9d2297503a0018ed5bd764eceaceed5983a0463c1f8631ac86c6012bb2e0b6c51413be54513",
      "networkId": 0,
      "chainId": 0
    },
    {
      "hash": "0x2ffa678de19fd3b683780cacf01f5def819e7b6267f8aba9057ff20ca89551d7",
      "blockHash": "0xc3325cab9d9692244c53517c1a8a04aec21544c240623a36fe09c09fed476b8d",
      "blockNumber": 86682,
      "transactionIndex": 1,
      "confirmations": null,
      "from": "0x11932277269F80D0d3b34E40c5827866570C2858",
      "gasPrice": {
        "_hex": "0xd3ca82d6f"
      },
      "gasLimit": {
        "_hex": "0x5208"
      },
      "to": "0x32Be343B94f860124dC4fEe278FDCBD38C102D88",
      "value": {
        "_hex": "0x8ab116f769d2d800"
      },
      "nonce": 0,
      "data": "0x",
      "r": "0xbaccf25b265095271a75bb07b3c34afd403f5f71011db13fe1be8f38336a2c27",
      "s": "0x2f725b7e48db15bd9d6092487ca25b26d2311409a97e751e4baff9abe2510741",
      "v": 27,
      "creates": null,
      "raw": "0xf86c80850d3ca82d6f8252089432be343b94f860124dc4fee278fdcbd38c102d88888ab116f769d2d800801ba0baccf25b265095271a75bb07b3c34afd403f5f71011db13fe1be8f38336a2c27a02f725b7e48db15bd9d6092487ca25b26d2311409a97e751e4baff9abe2510741",
      "networkId": 0,
      "chainId": 0
    }
  ]
}