{
  "hash": "0xd59f622313a99791c1ae8b75c8e8b0caa3c38daa8cc4a01baea93eaec9b4703b",
  "parentHash": "0x0082db9a2945a7b4aa08e68fdea8f91ba39aca7da1bc2973e27cf740d918084a",
  "number": 84282,
  "timestamp": 1439547514,
  "nonce": "0xe50f728d4a7c3d20",
  "difficulty": 2529165202025,
  "gasLimit": {
    "_hex": "0x2fefd8"
  },
  "gasUsed": {
    "_hex": "0xa410"
  },
  "miner": "0xC603Ab5ef41fC61AA8b76bEddb09e3Cfcbb174BD",
  "extraData": "0x476574682f76312e302e312f77696e646f77732f676f312e342e32",
  "transactions": [
    {
      "hash": "0x4ac7be4ade6c4a15d745000b0b773f4430af2d02be894c37c9ea1438062bcf8d",
      "blockHash": "0xd59f622313a99791c1ae8b75c8e8b0caa3c38daa8cc4a01baea93eaec9b4703b",
      "blockNumber": 84282,
      "transactionIndex": 0,
      "confirmations": null,
      "from": "0xe6A7a1d47ff21B6321162AEA7C6CB457D5476Bca",
      "gasPrice": {
        "_hex": "0xcea61bf69"
      },
      "gasLimit": {
        "_hex": "0x55f0"
      },
      "to": "0xF0224ea727d4924A8dd69a8d2d473Cc4c3590423",
      "value": {
        "_hex": "0x7eee3635316e12c0"
      },
      "nonce": 1754,
      "data": "0x",
      "r": "0xdb07a1c0ed7357c867cfd2c0a80ef601e3d37408cbd6ace6d4889ead2578c652",
      "s": "0x542a1fab399d4ce657baf50a42109aba4c8110e63a88de5b5a2ca7a9230c5db1",
      "v": 28,
      "creates": null,
      "raw": "0xf86e8206da850cea61bf698255f094f0224ea727d4924a8dd69a8d2d473cc4c3590423887eee3635316e12c0801ca0db07a1c0ed7357c867cfd2c0a80ef601e3d37408cbd6ace6d4889ead2578c652a0542a1fab399d4ce657baf50a42109aba4c8110e63a88de5b5a2ca7a9230c5db1",
      "networkId": 0,
      "chainId": 0
    },
    {
      "hash": "0xcbc248141578192d361d17b3c7d73b417f1befe7e4eb283b2acd352824232678",
      "blockHash": "0xd59f622313a99791c1ae8b75c8e8b0caa3c38daa8cc4a01baea93eaec9b4703b",
      "blockNumber": 84282,
      "transactionIndex": 1,
      "confirmations": null,
      "from": "0xe6A7a1d47ff21B6321162AEA7C6CB457D5476Bca",
      "gasPrice": {
        "_hex": "0xcea61bf69"
      },
      "gasLimit": {
        "_hex": "0x55f0"
      },
      "to": "0x1d6C4F7d4438bd7E81D4FE153Dd956bCaBcfF265",
      "value": {
        "_hex": "0x80874e3232fde610"
      },
      "nonce": 1755,
      "data": "0x",
      "r": "0xb3d8bb4bbc2540014496859d262a127759f95616e810d319d4242cb6c570eaf9",
      "s": "0x455666e87a7fe2a8de8d0ef02a1f218cbe5e63a5e5f69f15758fa725ca64eae0",
      "v": 28,
      "creates": null,
      "raw": "0xf86e8206db850cea61bf698255f0941d6c4f7d4438bd7e81d4fe153dd956bcabcff2658880874e3232fde610801ca0b3d8bb4bbc2540014496859d262a127759f95616e810d319d4242cb6c570eaf9a0455666e87a7fe2a8de8d0ef02a1f218cbe5e63a5e5f69f15758fa725ca64eae0",
      "networkId": 0,
      "chainId": 0
    }
  ]
}