{
  "hash": "0x5b1ee72ec33d9adaff90ee7556f41fb8655961f3e6132f906dc03d95dae6507d",
  "parentHash": "0x729e9300b6a08ebe6d06b360808f43a95fb70a3ab100578515a1d549b016e580",
  "number": 101403,
  "timestamp": 1439822515,
  "nonce": "0x257ec0720b656470",
  "difficulty": 3835521348764,
  "gasLimit": {
    "_hex": "0x2fefd8"
  },
  "gasUsed": {
    "_hex": "0x1db73"
  },
  "miner": "0x70137010922f2fC2964b3792907F79FBB75fEbe8",
  "extraData": "0x476574682f76312e302e302f6c696e75782f676f312e342e32",
  "transactions": [
    {
      "hash": "0x6abd89a5010d2d369bc834a6545ff753f3f696fe29e531bb5733102722a8dee3",
      "blockHash": "0x5b1ee72ec33d9adaff90ee7556f41fb8655961f3e6132f906dc03d95dae6507d",
      "blockNumber": 101403,
      "transactionIndex": 0,
      "confirmations": null,
      "from": "0x063dD253C8da4EA9b12105781C9611b8297F5d14",
      "gasPrice": {
        "_hex": "0xd0bed7210"
      },
      "gasLimit": {
        "_hex": "0x30d40"
      },
      "to": "0xde0B295669a9FD93d5F28D9Ec85E40f4cb697BAe",
      "value": {
        "_hex": "0x0"
      },
      "nonce": 8,
      "data": "0x797af627797af6272153b9b2b56bb29c21cf47fe64fd2abdd7171b14cca48560f6f6cf294a1a5c5200000000000000000000000000000000000000000000000000000000",
      "r": "0x99a3833d2730c1aca4d4eb04b1cd4a7d18e658ff807f4bcf714ab39a4b617dce",
      "s": "0x3f97fceab04dbc82dda6b27a5cd447dd7580c7da574870495d80b39c0e35f41b",
      "v": 28,
      "creates": null,
      "raw": "0xf8aa08850d0bed721083030d4094de0b295669a9fd93d5f28d9ec85e40f4cb697bae80b844797af627797af6272153b9b2b56bb29c21cf47fe64fd2abdd7171b14cca48560f6f6cf294a1a5c52000000000000000000000000000000000000000000000000000000001ca099a3833d2730c1aca4d4eb04b1cd4a7d18e658ff807f4bcf714ab39a4b617dcea03f97fceab04dbc82dda6b27a5cd447dd7580c7da574870495d80b39c0e35f41b",
      "networkId": 0,
      "chainId": 0
    }
  ]
}