{
  "hash": "0x6c96e812f78afba992a75cc8b5bf389c10e12a6bb2972c537aab4dea563e9e80",
  "parentHash": "0x3e888ba539c2490e098c3cfb0ea193b8012c8665a7238f39638a1021f1c925e2",
  "number": 81822,
  "timestamp": 1439508452,
  "nonce": "0xda6c29fcc2aec007",
  "difficulty": 2425870314762,
  "gasLimit": {
    "_hex": "0x2fefd8"
  },
  "gasUsed": {
    "_hex": "0x546c"
  },
  "miner": "0x753562eEA69CD2D342A9c07EDD49b9753dc0F01e",
  "extraData": "0x",
  "transactions": [
    {
      "hash": "0x3a8d93625b3b3af6f83b302c407453a75eb1e46018c14bc2fd089f3e7817dfab",
      "blockHash": "0x6c96e812f78afba992a75cc8b5bf389c10e12a6bb2972c537aab4dea563e9e80",
      "blockNumber": 81822,
      "transactionIndex": 0,
      "confirmations": null,
      "from": "0x4E7aa67E12183Ef9D7468eA28ad239C2eEF71b76",
      "gasPrice": {
        "_hex": "0x110c8f7d8de"
      },
      "gasLimit": {
        "_hex": "0xc350"
      },
      "to": "0x2910543Af39abA0Cd09dBb2D50200b3E800A63D2",
      "value": {
        "_hex": "0xaaf96eb9d0d0000"
      },
      "nonce": 2,
      "data": "0x454e41315648385247",
      "r": "0x375ca5ac5ca96d61cff50a54b9d21e11d1ed2c0c0065526690977b762ababf1f",
      "s": "0xf61076b5a652efaa3f3b68d16d8eb5ee826b488012a06c950643064de5da611d",
      "v": 27,
      "creates": null,
      "raw": "0xf87602860110c8f7d8de82c350942910543af39aba0cd09dbb2d50200b3e800a63d2880aaf96eb9d0d000089454e413156483852471ba0375ca5ac5ca96d61cff50a54b9d21e11d1ed2c0c0065526690977b762ababf1fa0f61076b5a652efaa3f3b68d16d8eb5ee826b488012a06c950643064de5da611d",
      "networkId": 0,
      "chainId": 0
    }
  ]
}