{
  "hash": "0x418cfb4c2d6d49e179a4b0cf3269e507daa2954c4cb758af40c7f1a16db18488",
  "parentHash": "0x6aa28c1fcd3e551a0e73adde7c47f539a71bc0384fe2d6ef80369d4690d0dfbf",
  "number": 70006,
  "timestamp": 1439313290,
  "nonce": "0x475fe4a71f1040ad",
  "difficulty": 2110603485610,
  "gasLimit": {
    "_hex": "0x2fefd8"
  },
  "gasUsed": {
    "_hex": "0x5208"
  },
  "miner": "0x89972aA7C0b19D1aE9cd89386160c3f28f7bB590",
  "extraData": "0x",
  "transactions": [
    {
      "hash": "0x1b728581a737edb547b39381e13969e191c7263030ba966291fcb707b9440c87",
      "blockHash": "0x418cfb4c2d6d49e179a4b0cf3269e507daa2954c4cb758af40c7f1a16db18488",
      "blockNumber": 70006,
      "transactionIndex": 0,
      "confirmations": null,
      "from": "0x123843545FB525C8E134c9A5F15ADA6865cc3848",
      "gasPrice": {
        "_hex": "0xd3f5eb315"
      },
      "gasLimit": {
        "_hex": "0x7530"
      },
      "to": "0xa9f5E7bf6Cbf6fEc55B30850Eb492b47A376d050",
      "value": {
        "_hex": "0xde0b6b3a7640000"
      },
      "nonce": 6,
      "data": "0x",
      "r": "0xa3a858c3b4682b7b385c2d2eefd4f063ac429110c9d414956be5c09a09ee53de",
      "s": "0x300fdf346c8de7bdb48f2634eb6be8de9ef1cc85ce790a3dc33a8544bf6bfe2b",
      "v": 27,
      "creates": null,
      "raw": "0xf86c06850d3f5eb31582753094a9f5e7bf6cbf6fec55b30850eb492b47a376d050880de0b6b3a7640000801ba0a3a858c3b4682b7b385c2d2eefd4f063ac429110c9d414956be5c09a09ee53dea0300fdf346c8de7bdb48f2634eb6be8de9ef1cc85ce790a3dc33a8544bf6bfe2b",
      "networkId": 0,
      "chainId": 0
    }
  ]
}