{
  "hash": "0x6e179dfaecd2e39593973064c77ecb1c86b0725e2a95a4cfe4f2376a0f0b3795",
  "parentHash": "0xefc5e788770c15dd52947540f1e38da657042ae9bf413c6acf9f716551eb4908",
  "number": 117869,
  "timestamp": 1440116743,
  "nonce": "0xb60add66c99b2a1c",
  "difficulty": 4325002819439,
  "gasLimit": {
    "_hex": "0x2fefd8"
  },
  "gasUsed": {
    "_hex": "0xf618"
  },
  "miner": "0xe6A7a1d47ff21B6321162AEA7C6CB457D5476Bca",
  "extraData": "0xd783010002844765746887676f312e342e32856c696e7578",
  "transactions": [
    {
      "hash": "0x8d4d395a16ed10ed9d299c9afa36024661a35388941f281399e46df053fa6732",
      "blockHash": "0x6e179dfaecd2e39593973064c77ecb1c86b0725e2a95a4cfe4f2376a0f0b3795",
      "blockNumber": 117869,
      "transactionIndex": 0,
      "confirmations": null,
      "from": "0x9Fa88512e871481291d0416CEFf5B3764f840aED",
      "gasPrice": {
        "_hex": "0xba43b7400"
      },
      "gasLimit": {
        "_hex": "0x5208"
      },
      "to": "0x32Be343B94f860124dC4fEe278FDCBD38C102D88",
      "value": {
        "_hex": "0x42f25b3d5e45fc00"
      },
      "nonce": 10,
      "data": "0x",
      "r": "0x906654b7ba58f69e27ef0c9d9e089bd7ca7c1616eab5c3dc2a311821d449f805",
      "s": "0x1ec612a2110a37cd5317a6f28a7cff206bba0b0e84ad328145ca17e4d2694465",
      "v": 27,
      "creates": null,
      "raw": "0xf86c0a850ba43b74008252089432be343b94f860124dc4fee278fdcbd38c102d888842f25b3d5e45fc00801ba0906654b7ba58f69e27ef0c9d9e089bd7ca7c1616eab5c3dc2a311821d449f805a01ec612a2110a37cd5317a6f28a7cff206bba0b0e84ad328145ca17e4d2694465",
      "networkId": 0,
      "chainId": 0
    },
    {
      "hash": "0xf95edffb6b0a256a2ae49a387598ee5abd6b465c308d37dcca7b980d4ae6fa49",
      "blockHash": "0x6e179dfaecd2e39593973064c77ecb1c86b0725e2a95a4cfe4f2376a0f0b3795",
      "blockNumber": 117869,
      "transactionIndex": 1,
      "confirmations": null,
      "from": "0x93b3437645A67059E280a3317a93c57e2f4788EA",
      "gasPrice": {
        "_hex": "0xba43b7400"
      },
      "gasLimit": {
        "_hex": "0x5208"
      },
      "to": "0x32Be343B94f860124dC4fEe278FDCBD38C102D88",
      "value": {
        "_hex": "0x80508a1c7fd4d000"
      },
      "nonce": 10,
      "data": "0x",
      "r": "0x78fb8e4a956f98401b12a7e981f6a10bda290ae501f6df761030943f0a251350",
      "s": "0x3abf2aa12411a5de06477f4f9a9c58de04c2cb9a144ccfdf632ac40a1ef368ac",
      "v": 28,
      "creates": null,
      "raw": "0xf86c0a850ba43b74008252089432be343b94f860124dc4fee278fdcbd38c102d888880508a1c7fd4d000801ca078fb8e4a956f98401b12a7e981f6a10bda290ae501f6df761030943f0a251350a03abf2aa12411a5de06477f4f9a9c58de04c2cb9a144ccfdf632ac40a1ef368ac",
      "networkId": 0,
      "chainId": 0
    },
    {
      "hash": "0xb532051dfdf9249f7c19a4bf70eb2a81bc3f2041b8cd0c6bbfd6ee64b7524ac0",
      "blockHash": "0x6e179dfaecd2e39593973064c77ecb1c86b0725e2a95a4cfe4f2376a0f0b3795",
      "blockNumber": 117869,
      "transactionIndex": 2,
      "confirmations": null,
      "from": "0xF928B4834e4E886e04630Af5b4Ea8eBf46Fb205b",
      "gasPrice": {
        "_hex": "0xba43b7400"
      },
      "gasLimit": {
        "_hex": "0x5208"
      },
      "to": "0x32Be343B94f860124dC4fEe278FDCBD38C102D88",
      "value": {
        "_hex": "0xbe531b388eba8800"
      },
      "nonce": 10,
      "data": "0x",
      "r": "0x77e53d647951e8e3c131d06d72ec536d419572fdca58a702e1073531d14e0d17",
      "s": "0x593551be5d43dc02617e84381216a19eacbc7e437669eef0d2c617b274b584c3",
      "v": 27,
      "creates": null,
      "raw": "0xf86c0a850ba43b74008252089432be343b94f860124dc4fee278fdcbd38c102d8888be531b388eba8800801ba077e53d647951e8e3c131d06d72ec536d419572fdca58a702e1073531d14e0d17a0593551be5d43dc02617e84381216a19eacbc7e437669eef0d2c617b274b584c3",
      "networkId": 0,
      "chainId": 0
    }
  ]
}