{
  "hash": "0x73ef339ce77d8faa1518fd07c87b9261cf1badc159aa08f0303d0a3bc76643c1",
  "parentHash": "0xb5a001df43bc9704565ccc1c678ec8abb475368ee5af93d33065512e5d9f5fdb",
  "number": 58424,
  "timestamp": 1439120310,
  "nonce": "0xab59f33732570416",
  "difficulty": 1718279216544,
  "gasLimit": {
    "_hex": "0x2fe3fc"
  },
  "gasUsed": {
    "_hex": "0x546c"
  },
  "miner": "0x14a3bc0f103706650a19C5D24e5C4cF1eA5af78e",
  "extraData": "0x476574682f76312e302e302d30333937633636632f6c696e75782f676f312e34",
  "transactions": [
    {
      "hash": "0x01a452e681e80751f36206ef4c2ac6d84808bdc1d1d7d4beb4c831c127b43c54",
      "blockHash": "0x73ef339ce77d8faa1518fd07c87b9261cf1badc159aa08f0303d0a3bc76643c1",
      "blockNumber": 58424,
      "transactionIndex": 0,
      "confirmations": null,
      "from": "0x480AF52076009CA73781B70e43b95916a62203Ab",
      "gasPrice": {
        "_hex": "0x110c8f7d8de"
      },
      "gasLimit": {
        "_hex": "0xc350"
      },
      "to": "0x2910543Af39abA0Cd09dBb2D50200b3E800A63D2",
      "value": {
        "_hex": "0x1b1ae4d6e2ef500000"
      },
      "nonce": 1,
      "data": "0x454e59423357585647",
      "r": "0x8ed4b7be59a2519612bb38eaf810102c8bcdf93d9619d8d7cebc6217799a1bce",
      "s": "0x65ca9b7f0661d03de4ad6979c0b8ae54a398e1d3525c55baf6c250f290da9acd",
      "v": 27,
      "creates": null,
      "raw": "0xf87701860110c8f7d8de82c350942910543af39aba0cd09dbb2d50200b3e800a63d2891b1ae4d6e2ef50000089454e594233575856471ba08ed4b7be59a2519612bb38eaf810102c8bcdf93d9619d8d7cebc6217799a1bcea065ca9b7f0661d03de4ad6979c0b8ae54a398e1d3525c55baf6c250f290da9acd",
      "networkId": 0,
      "chainId": 0
    }
  ]
}