{
  "hash": "0x770bc8e2cbc82c1f589a21d33995b75c65f99294f41488a29cb66d31979e8e95",
  "parentHash": "0xcf0bc9730b97bbc40b62fd45ce24f753a6e67ca12fa46a067e91b1d363870ee8",
  "number": 122298,
  "timestamp": 1440191814,
  "nonce": "0xd74ac2d344782761",
  "difficulty": 4457760614054,
  "gasLimit": {
    "_hex": "0x2fefd8"
  },
  "gasUsed": {
    "_hex": "0xa410"
  },
  "miner": "0x580992B51e3925e23280EfB93d3047C82f17E038",
  "extraData": "0x",
  "transactions": [
    {
      "hash": "0xba29924b7ee16bc66ee5b27cf48ea1af7fb6e0b06982a3d8ded9d0027ac466d4",
      "blockHash": "0x770bc8e2cbc82c1f589a21d33995b75c65f99294f41488a29cb66d31979e8e95",
      "blockNumber": 122298,
      "transactionIndex": 0,
      "confirmations": null,
      "from": "0xd1129a20D1cd1978d6640b65D964113C7D54B604",
      "gasPrice": {
        "_hex": "0xd73634f2c"
      },
      "gasLimit": {
        "_hex": "0x15f90"
      },
      "to": "0x9b0a028EAfDeCdE3AFc0fD00B7937098388b7C8a",
      "value": {
        "_hex": "0x34094cbd6853fac5b"
      },
      "nonce": 0,
      "data": "0x",
      "r": "0x1c40a8b71c6d93b0bab3c87fa5bd7ecd53f4802e5855acadc09395565a2f8cf9",
      "s": "0x7bb236ec6439c6ced04b56afc210b7496fbfb82c059d0b531eac93e60e1c4f2a",
      "v": 27,
      "creates": null,
      "raw": "0xf86e80850d73634f2c83015f90949b0a028eafdecde3afc0fd00b7937098388b7c8a89034094cbd6853fac5b801ba01c40a8b71c6d93b0bab3c87fa5bd7ecd53f4802e5855acadc09395565a2f8cf9a07bb236ec6439c6ced04b56afc210b7496fbfb82c059d0b531eac93e60e1c4f2a",
      "networkId": 0,
      "chainId": 0
    },
    {
      "hash": "0x7b516563154b5fe769ca465925957b3707d7ce4ae0bfaec52264daafd10025a4",
      "blockHash": "0x770bc8e2cbc82c1f589a21d33995b75c65f99294f41488a29cb66d31979e8e95",
      "blockNumber": 122298,
      "transactionIndex": 1,
      "confirmations": null,
      "from": "0x6E4F1DD8EDB448D8F0F2829eb817B81ACEE45152",
      "gasPrice": {
        "_hex": "0xba43b7400"
      },
      "gasLimit": {
        "_hex": "0x15f90"
      },
      "to": "0x756C55cbfa47fd23c0260F958e65866E64c096CB",
      "value": {
        "_hex": "0xb1a2bc2ec50000"
      },
      "nonce": 8,
      "data": "0x",
      "r": "0x05e108458e3c703114c94a99f8a86c126738fd246e853103d223e8ab4522fa95",
      "s": "0x343e5d5d0f60cc0185b738e0a6eaffcd9150e3521e2d3ef5d1a5bca23bdcf756",
      "v": 27,
      "creates": null,
      "raw": "0xf86c08850ba43b740083015f9094756c55cbfa47fd23c0260f958e65866e64c096cb87b1a2bc2ec50000801ba005e108458e3c703114c94a99f8a86c126738fd246e853103d223e8ab4522fa95a0343e5d5d0f60cc0185b738e0a6eaffcd9150e3521e2d3ef5d1a5bca23bdcf756",
      "networkId": 0,
      "chainId": 0
    }
  ]
}