{
  "hash": "0xed341ed00efd9aed5cbc4c494c411c14c10c412dbee3a6d8e417794ccb7a9e93",
  "parentHash": "0x483a95a652e6831bc4954ef18f47f2d51d46ecb956144577f36a8771ccdad61b",
  "number": 105383,
  "timestamp": 1439886558,
  "nonce": "0xf415008ab51a4bf1",
  "difficulty": 4373951637625,
  "gasLimit": {
    "_hex": "0x2fefd8"
  },
  "gasUsed": {
    "_hex": "0x23e38"
  },
  "miner": "0xf927a40C8B7F6E07c5af7FA2155B4864a4112B13",
  "extraData": "0x",
  "transactions": [
    {
      "hash": "0x38d3e7730978eb0ad783f0768751ec43e9a812d0b5e63b7f18a0c5903ba059a9",
      "blockHash": "0xed341ed00efd9aed5cbc4c494c411c14c10c412dbee3a6d8e417794ccb7a9e93",
      "blockNumber": 105383,
      "transactionIndex": 0,
      "confirmations": null,
      "from": "0x120A270bbC009644e35F0bB6ab13f95b8199c4ad",
      "gasPrice": {
        "_hex": "0xdc8d6a38f"
      },
      "gasLimit": {
        "_hex": "0x3d090"
      },
      "to": "0xd729FB3C410640105645fea812F5d50F1b808f4C",
      "value": {
        "_hex": "0x3635c9adc5dea00000"
      },
      "nonce": 766,
      "data": "0x",
      "r": "0x0404b47d44e643adfb20125341469c2ec1cb1633c9bd6af17407a2753be518fa",
      "s": "0x414df8f0be2828a6feeac69269cb08ea1fae2442cb96a7e38f141fbeb24c1127",
      "v": 28,
      "creates": null,
      "raw": "0xf8708202fe850dc8d6a38f8303d09094d729fb3c410640105645fea812f5d50f1b808f4c893635c9adc5dea00000801ca00404b47d44e643adfb20125341469c2ec1cb1633c9bd6af17407a2753be518faa0414df8f0be2828a6feeac69269cb08ea1fae2442cb96a7e38f141fbeb24c1127",
      "networkId": 0,
      "chainId": 0
    },
    {
      "hash": "0xf57fd21a90a942eb8efd52e62d17ab24ebdc0f91273be4a6da3ef747dd25be65",
      "blockHash": "0xed341ed00efd9aed5cbc4c494c411c14c10c412dbee3a6d8e417794ccb7a9e93",
      "blockNumber": 105383,
      "transactionIndex": 1,
      "confirmations": null,
      "from": "0xdCB14605B0EE4F372D223e5DF87aa9e760886D01",
      "gasPrice": {
        "_hex": "0xd9562418c"
      },
      "gasLimit": {
        "_hex": "0x5208"
      },
      "to": "0x32Be343B94f860124dC4fEe278FDCBD38C102D88",
      "value": {
        "_hex": "0x2fe5217efd61e4000"
      },
      "nonce": 8,
      "data": "0x",
      "r": "0xc17192515a2c6d14f4afe62887a4d340d2a20875e43b9ef386d37d2aad5bbd50",
      "s": "0x649cc5be31c05a4785a3f0f0d64104a81c5396f8006f9c2e0c3b5f5b969b561d",
      "v": 27,
      "creates": null,
      "raw": "0xf86d08850d9562418c8252089432be343b94f860124dc4fee278fdcbd38c102d888902fe5217efd61e4000801ba0c17192515a2c6d14f4afe62887a4d340d2a20875e43b9ef386d37d2aad5bbd50a0649cc5be31c05a4785a3f0f0d64104a81c5396f8006f9c2e0c3b5f5b969b561d",
      "networkId": 0,
      "chainId": 0
    },
    {
      "hash": "0x257025f8f8f0e4f7a1aaf05dcffc6f06b198b60b5e53d11c2261ed1f9fa7ca41",
      "blockHash": "0xed341ed00efd9aed5cbc4c494c411c14c10c412dbee3a6d8e417794ccb7a9e93",
      "blockNumber": 105383,
      "transactionIndex": 2,
      "confirmations": null,
      "from": "0xe72717ae0d6792286968449ABA7d469BCAE1d957",
      "gasPrice": {
        "_hex": "0xd9562418c"
      },
      "gasLimit": {
        "_hex": "0x5208"
      },
      "to": "0x32Be343B94f860124dC4fEe278FDCBD38C102D88",
      "value": {
        "_hex": "0x3a8539cf9f8a6c00"
      },
      "nonce": 7,
      "data": "0x",
      "r": "0xe6f9d34b17e225a3e95282cd5f9ea502d8732e7c3a342f1ac174667b6fe31b65",
      "s": "0x75078cdc9b8b70d19502145354836390f8d8442327fcdba512b4c34be78a180a",
      "v": 28,
      "creates": null,
      "raw": "0xf86c07850d9562418c8252089432be343b94f860124dc4fee278fdcbd38c102d88883a8539cf9f8a6c00801ca0e6f9d34b17e225a3e95282cd5f9ea502d8732e7c3a342f1ac174667b6fe31b65a075078cdc9b8b70d19502145354836390f8d8442327fcdba512b4c34be78a180a",
      "networkId": 0,
      "chainId": 0
    },
    {
      "hash": "0x15c53c7b2e74d7f90694091ed1966d97522015762cee901ad0296a7f064706d8",
      "blockHash": "0xed341ed00efd9aed5cbc4c494c411c14c10c412dbee3a6d8e417794ccb7a9e93",
      "blockNumber": 105383,
      "transactionIndex": 3,
      "confirmations": null,
      "from": "0x0912001e29BbaF75C23069A22D9B9602BE86FEB7",
      "gasPrice": {
        "_hex": "0xd9562418c"
      },
      "gasLimit": {
        "_hex": "0x5208"
      },
      "to": "0x32Be343B94f860124dC4fEe278FDCBD38C102D88",
      "value": {
        "_hex": "0xe984af703e0920000"
      },
      "nonce": 6,
      "data": "0x",
      "r": "0x95795b79ee32b4e9c841696729c46c204985ba85413ef35416a24cf2e86f742a",
      "s": "0x0c1c72d20871153dfd8aebca82e5b3b9c012b321129ea81f7ba1ed483d0f4633",
      "v": 28,
      "creates": null,
      "raw": "0xf86d06850d9562418c8252089432be343b94f860124dc4fee278fdcbd38c102d88890e984af703e0920000801ca095795b79ee32b4e9c841696729c46c204985ba85413ef35416a24cf2e86f742aa00c1c72d20871153dfd8aebca82e5b3b9c012b321129ea81f7ba1ed483d0f4633",
      "networkId": 0,
      "chainId": 0
    },
    {
      "hash": "0x1874d0bf9bc32df920f254919af329fdcb641a40695bb74dcf77d06bfc6ff552",
      "blockHash": "0xed341ed00efd9aed5cbc4c494c411c14c10c412dbee3a6d8e417794ccb7a9e93",
      "blockNumber": 105383,
      "transactionIndex": 4,
      "confirmations": null,
      "from": "0xf79785E5a846aCea08F94379fCCe79B1054bDB99",
      "gasPrice": {
        "_hex": "0xd9562418c"
      },
      "gasLimit": {
        "_hex": "0x5208"
      },
      "to": "0x32Be343B94f860124dC4fEe278FDCBD38C102D88",
      "value": {
        "_hex": "0x15476e6465b3a4000"
      },
      "nonce": 13,
      "data": "0x",
      "r": "0x20cc33bbd85204c19c089f137bbf6fc835578e66241235580e4e67bd73830dd7",
      "s": "0x4f0290d40ad42adb84e8bad97c854ef2918afaa5b84748ca59e7084344e03c8b",
      "v": 28,
      "creates": null,
      "raw": "0xf86d0d850d9562418c8252089432be343b94f860124dc4fee278fdcbd38c102d8889015476e6465b3a4000801ca020cc33bbd85204c19c089f137bbf6fc835578e66241235580e4e67bd73830dd7a04f0290d40ad42adb84e8bad97c854ef2918afaa5b84748ca59e7084344e03c8b",
      "networkId": 0,
      "chainId": 0
    },
    {
      "hash": "0x510982c48c4c3ca6f41e3facab6e62e219205abd485a7e87b394abc231cbc700",
      "blockHash": "0xed341ed00efd9aed5cbc4c494c411c14c10c412dbee3a6d8e417794ccb7a9e93",
      "blockNumber": 105383,
      "transactionIndex": 5,
      "confirmations": null,
      "from": "0x1c69e6202df7794272b70FaEa8f7408c856B1f08",
      "gasPrice": {
        "_hex": "0xd9562418c"
      },
      "gasLimit": {
        "_hex": "0x5208"
      },
      "to": "0x32Be343B94f860124dC4fEe278FDCBD38C102D88",
      "value": {
        "_hex": "0x4e639d25066ea800"
      },
      "nonce": 8,
      "data": "0x",
      "r": "0x00eff199cccf0f26bd1eadf417323b3809b2ee5f1516e4e5d23ae982bd28f2e7",
      "s": "0x175f07c125fa7c668b81156d92727a4d35a16c96c01ab2b37defd160b652a072",
      "v": 28,
      "creates": null,
      "raw": "0xf86b08850d9562418c8252089432be343b94f860124dc4fee278fdcbd38c102d88884e639d25066ea800801c9feff199cccf0f26bd1eadf417323b3809b2ee5f1516e4e5d23ae982bd28f2e7a0175f07c125fa7c668b81156d92727a4d35a16c96c01ab2b37defd160b652a072",
      "networkId": 0,
      "chainId": 0
    },
    {
      "hash": "0x7f07183ba38f29457872c55b9e0949b4c1db492b66b738d146cce15b6c5f2963",
      "blockHash": "0xed341ed00efd9aed5cbc4c494c411c14c10c412dbee3a6d8e417794ccb7a9e93",
      "blockNumber": 105383,
      "transactionIndex": 6,
      "confirmations": null,
      "from": "0x097738363B1662599ad0777E19461601F5EC8dF9",
      "gasPrice": {
        "_hex": "0xd9562418c"
      },
      "gasLimit": {
        "_hex": "0x5208"
      },
      "to": "0x32Be343B94f860124dC4fEe278FDCBD38C102D88",
      "value": {
        "_hex": "0x7e4f73e93b6350000"
      },
      "nonce": 21,
      "data": "0x",
      "r": "0x91ae9758e56ad29c5726c3f4a417483e9a6e40dd02f25581467b0faf1e3c34d2",
      "s": "0x0da613ab633daad36b9cc5bcc75ae362619b28aef528869edf61231780763168",
      "v": 28,
      "creates": null,
      "raw": "0xf86d15850d9562418c8252089432be343b94f860124dc4fee278fdcbd38c102d888907e4f73e93b6350000801ca091ae9758e56ad29c5726c3f4a417483e9a6e40dd02f25581467b0faf1e3c34d2a00da613ab633daad36b9cc5bcc75ae362619b28aef528869edf61231780763168",
      "networkId": 0,
      "chainId": 0
    }
  ]
}