{
  "hash": "0x375726a681e92ba80270690b2f8dc0b4c06d99d8db566e0eef5831f894ac89d9",
  "parentHash": "0xcffd5d60038c0b92fd05c14666be99171e2a36ee9c0ff8ee657308bd29eaef2b",
  "number": 102984,
  "timestamp": 1439846030,
  "nonce": "0xf46907ef5346c09d",
  "difficulty": 4128224350508,
  "gasLimit": {
    "_hex": "0x2fefd8"
  },
  "gasUsed": {
    "_hex": "0xa674"
  },
  "miner": "0xB1A4B41b8e75a153841c99c62d18588d45e7b406",
  "extraData": "0x",
  "transactions": [
    {
      "hash": "0xc93c6832684f68a2b92cecf7415f8e1eec7f0f916fd1a6c2573a780e8d7fec79",
      "blockHash": "0x375726a681e92ba80270690b2f8dc0b4c06d99d8db566e0eef5831f894ac89d9",
      "blockNumber": 102984,
      "transactionIndex": 0,
      "confirmations": null,
      "from": "0x32Be343B94f860124dC4fEe278FDCBD38C102D88",
      "gasPrice": {
        "_hex": "0xd52d8d2b4"
      },
      "gasLimit": {
        "_hex": "0x5208"
      },
      "to": "0x0182EE8f303a9DA2A9E11928760eBC8A8d949D1B",
      "value": {
        "_hex": "0xdbd2fc137a30000"
      },
      "nonce": 1116,
      "data": "0x",
      "r": "0xb5338ca7ddf3ba85b9a42c0c90155e7bd7ab4821936a3c70419475544d8e9d68",
      "s": "0x2c154c9f8bc960efc5fd41aec9de59db6ece22066f6f4759db504daa64cdba3d",
      "v": 27,
      "creates": null,
      "raw": "0xf86e82045c850d52d8d2b4825208940182ee8f303a9da2a9e11928760ebc8a8d949d1b880dbd2fc137a30000801ba0b5338ca7ddf3ba85b9a42c0c90155e7bd7ab4821936a3c70419475544d8e9d68a02c154c9f8bc960efc5fd41aec9de59db6ece22066f6f4759db504daa64cdba3d",
      "networkId": 0,
      "chainId": 0
    },
    {
      "hash": "0x14e493d83305b7a8b1e9e9a2df8647bad84ffaca667924ca6bef2f74a8347e79",
      "blockHash": "0x375726a681e92ba80270690b2f8dc0b4c06d99d8db566e0eef5831f894ac89d9",
      "blockNumber": 102984,
      "transactionIndex": 1,
      "confirmations": null,
      "from": "0x123843545FB525C8E134c9A5F15ADA6865cc3848",
      "gasPrice": {
        "_hex": "0xba43b7400"
      },
      "gasLimit": {
        "_hex": "0x7530"
      },
      "to": "0x2910543Af39abA0Cd09dBb2D50200b3E800A63D2",
      "value": {
        "_hex": "0x7439fa2099e580000"
      },
      "nonce": 13,
      "data": "0x454e3651304d384252",
      "r": "0x1c47e39f864c23919ef48079691ecd473ab39ded1de786e4d29bf040d2d2f595",
      "s": "0x0f02abc8d2d4fb7d830c8839d600975ee160a23df21837aca3522101f03ee67c",
      "v": 28,
      "creates": null,
      "raw": "0xf8760d850ba43b7400827530942910543af39aba0cd09dbb2d50200b3e800a63d28907439fa2099e58000089454e3651304d3842521ca01c47e39f864c23919ef48079691ecd473ab39ded1de786e4d29bf040d2d2f595a00f02abc8d2d4fb7d830c8839d600975ee160a23df21837aca3522101f03ee67c",
      "networkId": 0,
      "chainId": 0
    }
  ]
}