{
  "hash": "0x201221756cac6a03a043952fae94e54eb22f639093a80d1bdba88b9cb419bea0",
  "parentHash": "0xda6b3326992ae792289c9bac1a63d5680a065512d9902b52310e2200e56c052e",
  "number": 86205,
  "timestamp": 1439575173,
  "nonce": "0xc940624151c4f593",
  "difficulty": 2813962553363,
  "gasLimit": {
    "_hex": "0x2fefd8"
  },
  "gasUsed": {
    "_hex": "0x5d9f"
  },
  "miner": "0xf927a40C8B7F6E07c5af7FA2155B4864a4112B13",
  "extraData": "0x",
  "transactions": [
    {
      "hash": "0xc46a452a9a2f1b03e33121482f4a6231129ace591edc7446a69a9118cad1b117",
      "blockHash": "0x201221756cac6a03a043952fae94e54eb22f639093a80d1bdba88b9cb419bea0",
      "blockNumber": 86205,
      "transactionIndex": 0,
      "confirmations": null,
      "from": "0x012f396A2B5eB83559BaC515E5210df2C8C362BA",
      "gasPrice": {
        "_hex": "0xd82f76ba6"
      },
      "gasLimit": {
        "_hex": "0x15f90"
      },
      "to": "0xCAc7000C7dBaa2E33Af15325AF5D435E011C7BdD",
      "value": {
        "_hex": "0x3e567fbb43008bc"
      },
      "nonce": 2,
      "data": "0xb214faa558544c534d425453520000000000000000000000000000000000000000000000",
      "r": "0x7058cd8dad12bd0aa64fda365e402830f84ee14bcf7005aa876125575d48335c",
      "s": "0x4a521b50f20b4843ae041f1ae6ee6c208f5466765c1ddaf7a8345903ebbdbcf8",
      "v": 27,
      "creates": null,
      "raw": "0xf89102850d82f76ba683015f9094cac7000c7dbaa2e33af15325af5d435e011c7bdd8803e567fbb43008bca4b214faa558544c534d4254535200000000000000000000000000000000000000000000001ba07058cd8dad12bd0aa64fda365e402830f84ee14bcf7005aa876125575d48335ca04a521b50f20b4843ae041f1ae6ee6c208f5466765c1ddaf7a8345903ebbdbcf8",
      "networkId": 0,
      "chainId": 0
    }
  ]
}