{
  "hash": "0x34a743a237f35eed650ceb1415de5ddf92e15d07e0b7e5b1598f1ac63f538aec",
  "parentHash": "0x83eecfb98f777c44526695dc1be7aac9a0dc9b10622b2fa16002d909378c7214",
  "number": 79963,
  "timestamp": 1439478042,
  "nonce": "0x65e6309ce0c6ce1c",
  "difficulty": 2346020653434,
  "gasLimit": {
    "_hex": "0x2fefd8"
  },
  "gasUsed": {
    "_hex": "0xa1c1a"
  },
  "miner": "0x2c640E5e3DE20DECa76ee10c5Fd6ECd074EFb3e8",
  "extraData": "0x476574682f76312e302e312f77696e646f77732f676f312e342e32",
  "transactions": [
    {
      "hash": "0xc042a9d73e9fd3ebcd376f0064a3238e48f35914e01f0ef15e68bf74656c60e8",
      "blockHash": "0x34a743a237f35eed650ceb1415de5ddf92e15d07e0b7e5b1598f1ac63f538aec",
      "blockNumber": 79963,
      "transactionIndex": 0,
      "confirmations": null,
      "from": "0x008FC7CBAdFFbD0D7fe44F8DFD60a79d721a1c9C",
      "gasPrice": {
        "_hex": "0xd5bd7b78e"
      },
      "gasLimit": {
        "_hex": "0xf4240"
      },
      "to": null,
      "value": {
        "_hex": "0x0"
      },
      "nonce": 48,
      "data": "0x60606040526000805433600160a060020a03199182168117835560028054909216179055426003819055600455600880546009839055600a805460ff1916905562ffffff1916905567016345785d8a00006005908155610e1060065560075561052e90819061006e90396000f300606060405236156100ae5760e060020a60003504631f2698ab81146101415780631fc3a9a71461014d578063237297a41461017957806332983c9e1461021f57806351453f9d146102a157806362287c31146102b85780636c66cbb91461032257806371a2ee521461033357806378e9792514610346578063bef4876b1461034f578063cbb683691461035d578063d55e725b1461038e578063ecff250f14610397578063efb98bcf146103a9575b6103c5600054600160a060020a03908116339091161480156100d3575060085460ff16155b156100e15760018054340190555b600054600160a060020a039081163390911614801590610104575060085460ff16155b801561011257506005543410155b1561012e576008805460ff191660011790554260038190556004555b60085460ff16156103fa576103c7610353565b6103fc60085460ff1681565b6103fc600a5460009060ff16151561043e5750600754606430600160a060020a03163190910204610343565b6103c530600160a060020a031663efb98bcf6040518160e060020a0281526004018090506020604051808303816000876161da5a03f115610002575050506040515160001480156101d25750600854610100900460ff16155b80156101ed5750600254600160a060020a0390811633909116145b156103fa5761044f5b600a5460ff1615156103fa57600a805430600160a060020a03163160095560ff19166001179055565b6103c530600160a060020a031663efb98bcf6040518160e060020a0281526004018090506020604051808303816000876161da5a03f11561000257505050604051516000148015610279575060085462010000900460ff16155b80156102945750600054600160a060020a0390811633909116145b156103fa576104946101f6565b6103fc60085460009060ff1615156104ff57610343565b6103fc600435600254600090600160a060020a03838116911614801561031c575030600160a060020a031663efb98bcf6040518160e060020a0281526004018090506020604051808303816000876161da5a03f11561000257505050604051516000145b92915050565b6103fc600854610100900460ff1681565b61040e600254600160a060020a03165b90565b6103fc60045481565b6103fc5b60006105246103ad565b6103fc600a5460009060ff16151561042b57606460076000505460640330600160a060020a03163102049050610343565b6103fc60015481565b6103fc60085462010000900460ff1681565b6103fc5b60085460009060ff1615156104d95750600654610343565b005b15156103fa5760055434106103fa576002805473ffffffffffffffffffffffffffffffffffffffff191633179055426003555b565b60408051918252519081900360200190f35b60408051600160a060020a03929092168252519081900360200190f35b5060075460095460649182030204610343565b506007546009546064910204610343565b60075460095460405133600160a060020a031692600092606491820302049082818181858883f1600880546101009290920261ff001990921691909117905550505050565b60075460095460405133600160a060020a03169260009260649102049082818181858883f160088054620100009290920262ff00001990921691909117905550505050565b600354600654014210156104f7575060035460065442910103610343565b506000610343565b610507610353565b15610519575060045460035403610343565b506004544203610343565b600014905061034356",
      "r": "0xc3d6146f921e10eb5760c274df4187d1497da43128f4d62ae28744a4d117d5b2",
      "s": "0x1d9ad9b400a74a309622f363798cbe9259069bde2e5b2cb3ece70d114ecdc5d6",
      "v": 27,
      "creates": "0x5d6f0e293786F1ec9fEEc3851c03951Dc8c6112a",
      "raw": "0xf905ef30850d5bd7b78e830f42408080b9059c60606040526000805433600160a060020a03199182168117835560028054909216179055426003819055600455600880546009839055600a805460ff1916905562ffffff1916905567016345785d8a00006005908155610e1060065560075561052e90819061006e90396000f300606060405236156100ae5760e060020a60003504631f2698ab81146101415780631fc3a9a71461014d578063237297a41461017957806332983c9e1461021f57806351453f9d146102a157806362287c31146102b85780636c66cbb91461032257806371a2ee521461033357806378e9792514610346578063bef4876b1461034f578063cbb683691461035d578063d55e725b1461038e578063ecff250f14610397578063efb98bcf146103a9575b6103c5600054600160a060020a03908116339091161480156100d3575060085460ff16155b156100e15760018054340190555b600054600160a060020a039081163390911614801590610104575060085460ff16155b801561011257506005543410155b1561012e576008805460ff191660011790554260038190556004555b60085460ff16156103fa576103c7610353565b6103fc60085460ff1681565b6103fc600a5460009060ff16151561043e5750600754606430600160a060020a03163190910204610343565b6103c530600160a060020a031663efb98bcf6040518160e060020a0281526004018090506020604051808303816000876161da5a03f115610002575050506040515160001480156101d25750600854610100900460ff16155b80156101ed5750600254600160a060020a0390811633909116145b156103fa5761044f5b600a5460ff1615156103fa57600a805430600160a060020a03163160095560ff19166001179055565b6103c530600160a060020a031663efb98bcf6040518160e060020a0281526004018090506020604051808303816000876161da5a03f11561000257505050604051516000148015610279575060085462010000900460ff16155b80156102945750600054600160a060020a0390811633909116145b156103fa576104946101f6565b6103fc60085460009060ff1615156104ff57610343565b6103fc600435600254600090600160a060020a03838116911614801561031c575030600160a060020a031663efb98bcf6040518160e060020a0281526004018090506020604051808303816000876161da5a03f11561000257505050604051516000145b92915050565b6103fc600854610100900460ff1681565b61040e600254600160a060020a03165b90565b6103fc60045481565b6103fc5b60006105246103ad565b6103fc600a5460009060ff16151561042b57606460076000505460640330600160a060020a03163102049050610343565b6103fc60015481565b6103fc60085462010000900460ff1681565b6103fc5b60085460009060ff1615156104d95750600654610343565b005b15156103fa5760055434106103fa576002805473ffffffffffffffffffffffffffffffffffffffff191633179055426003555b565b60408051918252519081900360200190f35b60408051600160a060020a03929092168252519081900360200190f35b5060075460095460649182030204610343565b506007546009546064910204610343565b60075460095460405133600160a060020a031692600092606491820302049082818181858883f1600880546101009290920261ff001990921691909117905550505050565b60075460095460405133600160a060020a03169260009260649102049082818181858883f160088054620100009290920262ff00001990921691909117905550505050565b600354600654014210156104f7575060035460065442910103610343565b506000610343565b610507610353565b15610519575060045460035403610343565b506004544203610343565b6000149050610343561ba0c3d6146f921e10eb5760c274df4187d1497da43128f4d62ae28744a4d117d5b2a01d9ad9b400a74a309622f363798cbe9259069bde2e5b2cb3ece70d114ecdc5d6",
      "networkId": 0,
      "chainId": 0
    },
    {
      "hash": "0x4f105064c934a9338093599963d98b393775690ffe8f41d75c4e5b7e72b46899",
      "blockHash": "0x34a743a237f35eed650ceb1415de5ddf92e15d07e0b7e5b1598f1ac63f538aec",
      "blockNumber": 79963,
      "transactionIndex": 1,
      "confirmations": null,
      "from": "0x32Be343B94f860124dC4fEe278FDCBD38C102D88",
      "gasPrice": {
        "_hex": "0xd5603ce86"
      },
      "gasLimit": {
        "_hex": "0x5208"
      },
      "to": "0x0C81b19Df1E50dA2c912C0a25173B5614E7D4917",
      "value": {
        "_hex": "0x8e1bc9bf040000"
      },
      "nonce": 490,
      "data": "0x",
      "r": "0xb79e1b34c5755403e5e118f49c62e76c93df26b76e6d9cef7b5699e3445a41eb",
      "s": "0x0393ab64dd949d466b36d069957813e330fd9dfd84e108b5da7046c2b3d1d1d9",
      "v": 28,
      "creates": null,
      "raw": "0xf86d8201ea850d5603ce86825208940c81b19df1e50da2c912c0a25173b5614e7d4917878e1bc9bf040000801ca0b79e1b34c5755403e5e118f49c62e76c93df26b76e6d9cef7b5699e3445a41eba00393ab64dd949d466b36d069957813e330fd9dfd84e108b5da7046c2b3d1d1d9",
      "networkId": 0,
      "chainId": 0
    },
    {
      "hash": "0x9dca6c338b0442aed283cd28dae3213cca15b98c1b72c185e1f8a4053c789ba4",
      "blockHash": "0x34a743a237f35eed650ceb1415de5ddf92e15d07e0b7e5b1598f1ac63f538aec",
      "blockNumber": 79963,
      "transactionIndex": 2,
      "confirmations": null,
      "from": "0x32Be343B94f860124dC4fEe278FDCBD38C102D88",
      "gasPrice": {
        "_hex": "0xd5603ce86"
      },
      "gasLimit": {
        "_hex": "0x5208"
      },
      "to": "0xd24E847f7aCfCb5d65Af455EB13671730E45D727",
      "value": {
        "_hex": "0x297e9d28866b0000"
      },
      "nonce": 491,
      "data": "0x",
      "r": "0xa74cacdd7b96be50f2c99d234e523586388d1e6660b719a341209f0e90f244a4",
      "s": "0x2150d75cc096b6164b7b76586c51a8fa8d80c0b8ec5e37553d5191cb58ff09de",
      "v": 28,
      "creates": null,
      "raw": "0xf86e8201eb850d5603ce8682520894d24e847f7acfcb5d65af455eb13671730e45d72788297e9d28866b0000801ca0a74cacdd7b96be50f2c99d234e523586388d1e6660b719a341209f0e90f244a4a02150d75cc096b6164b7b76586c51a8fa8d80c0b8ec5e37553d5191cb58ff09de",
      "networkId": 0,
      "chainId": 0
    },
    {
      "hash": "0x1448c959945a144a788f4c8ab8ae1c3b14a73b050a43d8dcce5ce8be73ddf509",
      "blockHash": "0x34a743a237f35eed650ceb1415de5ddf92e15d07e0b7e5b1598f1ac63f538aec",
      "blockNumber": 79963,
      "transactionIndex": 3,
      "confirmations": null,
      "from": "0x32Be343B94f860124dC4fEe278FDCBD38C102D88",
      "gasPrice": {
        "_hex": "0xd5603ce86"
      },
      "gasLimit": {
        "_hex": "0x5208"
      },
      "to": "0x28a9D631e5C22Ee57312DDdc75936822a2243A05",
      "value": {
        "_hex": "0x107af3ccc0daf5000"
      },
      "nonce": 492,
      "data": "0x",
      "r": "0x7e72fb881e70671e58f08fd8a88c10b9a8890e9419bbd97600d0458c6ce4dba6",
      "s": "0x3f02289847a9a50d92910145b3188eaee130df6398c361018999893dc9313801",
      "v": 28,
      "creates": null,
      "raw": "0xf86f8201ec850d5603ce868252089428a9d631e5c22ee57312dddc75936822a2243a05890107af3ccc0daf5000801ca07e72fb881e70671e58f08fd8a88c10b9a8890e9419bbd97600d0458c6ce4dba6a03f02289847a9a50d92910145b3188eaee130df6398c361018999893dc9313801",
      "networkId": 0,
      "chainId": 0
    },
    {
      "hash": "0x59267941282904cbc18ceacd0c4733220aaf5d6fc96fede7606643375328420a",
      "blockHash": "0x34a743a237f35eed650ceb1415de5ddf92e15d07e0b7e5b1598f1ac63f538aec",
      "blockNumber": 79963,
      "transactionIndex": 4,
      "confirmations": null,
      "from": "0x32Be343B94f860124dC4fEe278FDCBD38C102D88",
      "gasPrice": {
        "_hex": "0xd5603ce86"
      },
      "gasLimit": {
        "_hex": "0x5208"
      },
      "to": "0x859337F6BeF10dEE917c9F7086B47Fc9B019d45b",
      "value": {
        "_hex": "0x8a5c8e2f8eb0e000"
      },
      "nonce": 493,
      "data": "0x",
      "r": "0x0803c4b9cc627499e4b39ada38edbcbdf9e8e5425b55ab66a1c8079be90f76cc",
      "s": "0x384472bfbaca95632f6fd83c765483cb94028c16e57ceceb0fe02090af23f37b",
      "v": 28,
      "creates": null,
      "raw": "0xf86e8201ed850d5603ce8682520894859337f6bef10dee917c9f7086b47fc9b019d45b888a5c8e2f8eb0e000801ca00803c4b9cc627499e4b39ada38edbcbdf9e8e5425b55ab66a1c8079be90f76cca0384472bfbaca95632f6fd83c765483cb94028c16e57ceceb0fe02090af23f37b",
      "networkId": 0,
      "chainId": 0
    },
    {
      "hash": "0x98102fd991746a626c975dba0266d1f330205a644c91dfa43920179919adabcf",
      "blockHash": "0x34a743a237f35eed650ceb1415de5ddf92e15d07e0b7e5b1598f1ac63f538aec",
      "blockNumber": 79963,
      "transactionIndex": 5,
      "confirmations": null,
      "from": "0x32Be343B94f860124dC4fEe278FDCBD38C102D88",
      "gasPrice": {
        "_hex": "0xd5603ce86"
      },
      "gasLimit": {
        "_hex": "0x5208"
      },
      "to": "0xEd0057BB348b56Cb9D47dea88f50F0CadEB3Eae3",
      "value": {
        "_hex": "0x34e960a704abac00"
      },
      "nonce": 494,
      "data": "0x",
      "r": "0x8357bfd66af7b40bde5c3c5977459173102303da0511fde33d1aa300929a290e",
      "s": "0x1b40accaf47a7362621f740dfcb8e62e67837c704af7c4e7123794200de932df",
      "v": 27,
      "creates": null,
      "raw": "0xf86e8201ee850d5603ce8682520894ed0057bb348b56cb9d47dea88f50f0cadeb3eae38834e960a704abac00801ba08357bfd66af7b40bde5c3c5977459173102303da0511fde33d1aa300929a290ea01b40accaf47a7362621f740dfcb8e62e67837c704af7c4e7123794200de932df",
      "networkId": 0,
      "chainId": 0
    },
    {
      "hash": "0x9476df59ede070837f1844787b5fc5df6d9c2df781c3635ef542fff3e6b9b6c1",
      "blockHash": "0x34a743a237f35eed650ceb1415de5ddf92e15d07e0b7e5b1598f1ac63f538aec",
      "blockNumber": 79963,
      "transactionIndex": 6,
      "confirmations": null,
      "from": "0x32Be343B94f860124dC4fEe278FDCBD38C102D88",
      "gasPrice": {
        "_hex": "0xd5603ce86"
      },
      "gasLimit": {
        "_hex": "0x5208"
      },
      "to": "0xD378eb142Ad654E0bd8296DafCc5c4874EC40445",
      "value": {
        "_hex": "0x12bdee3f942a9c0000"
      },
      "nonce": 495,
      "data": "0x",
      "r": "0x44fae3035efda5d4830c7c8194902b1002a104e8fc40ec8002bdcf9478757fd4",
      "s": "0x38631dd0144d8a3757b50828610bd2f2f7de77a9d2feb1c3425c3fd0604cd3b1",
      "v": 27,
      "creates": null,
      "raw": "0xf86f8201ef850d5603ce8682520894d378eb142ad654e0bd8296dafcc5c4874ec404458912bdee3f942a9c0000801ba044fae3035efda5d4830c7c8194902b1002a104e8fc40ec8002bdcf9478757fd4a038631dd0144d8a3757b50828610bd2f2f7de77a9d2feb1c3425c3fd0604cd3b1",
      "networkId": 0,
      "chainId": 0
    }
  ]
}