{
  "hash": "0xe9d0f348db0fd89f5ef6c7a5a7cdd5be9f09cd0f8269b05b384156e1f2c5267c",
  "parentHash": "0x2f12af4facda57e5585b7fa1108923bc6258a24f209df3d51579f6776ac9548c",
  "number": 96388,
  "timestamp": 1439739538,
  "nonce": "0x48abcd9cad56baf0",
  "difficulty": 3660280999010,
  "gasLimit": {
    "_hex": "0x2fefd8"
  },
  "gasUsed": {
    "_hex": "0xa410"
  },
  "miner": "0xe6A7a1d47ff21B6321162AEA7C6CB457D5476Bca",
  "extraData": "0x476574682f76312e302e312d38326566323666362f6c696e75782f676f312e34",
  "transactions": [
    {
      "hash": "0x2844775669b60c590e660d6f4a1afff560354c4bfdf81e3eacfe3e983f38b2e7",
      "blockHash": "0xe9d0f348db0fd89f5ef6c7a5a7cdd5be9f09cd0f8269b05b384156e1f2c5267c",
      "blockNumber": 96388,
      "transactionIndex": 0,
      "confirmations": null,
      "from": "0x120A270bbC009644e35F0bB6ab13f95b8199c4ad",
      "gasPrice": {
        "_hex": "0xcc5dbab40"
      },
      "gasLimit": {
        "_hex": "0x3d090"
      },
      "to": "0xf5140B81D6039E878BD404912f2b1E66fE6DAF09",
      "value": {
        "_hex": "0x5b12aefafa8040000"
      },
      "nonce": 615,
      "data": "0x",
      "r": "0x093b5514a13ef87b36575e605cabcf46920cea1aab5ef10a8f94931a48211a93",
      "s": "0x32004aa8b7c8b6bf2985f05ec3fd42554cec7fd67b917af1722388eb27fd9668",
      "v": 27,
      "creates": null,
      "raw": "0xf870820267850cc5dbab408303d09094f5140b81d6039e878bd404912f2b1e66fe6daf098905b12aefafa8040000801ba0093b5514a13ef87b36575e605cabcf46920cea1aab5ef10a8f94931a48211a93a032004aa8b7c8b6bf2985f05ec3fd42554cec7fd67b917af1722388eb27fd9668",
      "networkId": 0,
      "chainId": 0
    },
    {
      "hash": "0x025ca28d8117c1ad6fa8f202fe55cb89c3149ad0937ee739815b8cb9c2bef06f",
      "blockHash": "0xe9d0f348db0fd89f5ef6c7a5a7cdd5be9f09cd0f8269b05b384156e1f2c5267c",
      "blockNumber": 96388,
      "transactionIndex": 1,
      "confirmations": null,
      "from": "0x120A270bbC009644e35F0bB6ab13f95b8199c4ad",
      "gasPrice": {
        "_hex": "0xcc5dbab40"
      },
      "gasLimit": {
        "_hex": "0x3d090"
      },
      "to": "0xF7AA2cF13Dc689B51E6D81149e11b2F24ea3Ca3e",
      "value": {
        "_hex": "0x1e4a5dab5d44b000"
      },
      "nonce": 616,
      "data": "0x",
      "r": "0x4b098a11e2955be1d8c1f2a00c328a9d50aa829b80e0afce307991d547e8aec6",
      "s": "0x32a35ea382b9b7501936b6ce9ca09f6f1128e7c4b4d3f0eb4484854ff02279f1",
      "v": 27,
      "creates": null,
      "raw": "0xf86f820268850cc5dbab408303d09094f7aa2cf13dc689b51e6d81149e11b2f24ea3ca3e881e4a5dab5d44b000801ba04b098a11e2955be1d8c1f2a00c328a9d50aa829b80e0afce307991d547e8aec6a032a35ea382b9b7501936b6ce9ca09f6f1128e7c4b4d3f0eb4484854ff02279f1",
      "networkId": 0,
      "chainId": 0
    }
  ]
}