{
  "hash": "0xe9bb5c570eca673fd61647ffc46eac369427866a6736831abc437479c659cddc",
  "parentHash": "0x447d85804f9292c187043ce952170c07c4fa1bbdce9d8b79064ae78f85a17af1",
  "number": 73515,
  "timestamp": 1439370416,
  "nonce": "0xec1e898266b4aaf5",
  "difficulty": 2220705967219,
  "gasLimit": {
    "_hex": "0x2fefd8"
  },
  "gasUsed": {
    "_hex": "0x299f"
  },
  "miner": "0xe6A7a1d47ff21B6321162AEA7C6CB457D5476Bca",
  "extraData": "0x476574682f76312e302e312d38326566323666362f6c696e75782f676f312e34",
  "transactions": [
    {
      "hash": "0x936147cfe9b593404979c9481c310fe0dcd944df383127636406aff0d64b14ec",
      "blockHash": "0xe9bb5c570eca673fd61647ffc46eac369427866a6736831abc437479c659cddc",
      "blockNumber": 73515,
      "transactionIndex": 0,
      "confirmations": null,
      "from": "0xD1826373C4E0938f0b4302B40324f7f9c546492C",
      "gasPrice": {
        "_hex": "0xdd7d7b3d8"
      },
      "gasLimit": {
        "_hex": "0x30d40"
      },
      "to": "0xe466EcA6595D51aB6126cA948145a029bAA522E0",
      "value": {
        "_hex": "0x6fde2b4eb000"
      },
      "nonce": 3,
      "data": "0x",
      "r": "0x7f32442689628bc158e57b435226ffb0409b2be6042aae56f67fa2595409d50a",
      "s": "0x2f0838340278830edfc3115ca8db46677d54e280e6e54b1d63e8057784d06ac8",
      "v": 27,
      "creates": null,
      "raw": "0xf86b03850dd7d7b3d883030d4094e466eca6595d51ab6126ca948145a029baa522e0866fde2b4eb000801ba07f32442689628bc158e57b435226ffb0409b2be6042aae56f67fa2595409d50aa02f0838340278830edfc3115ca8db46677d54e280e6e54b1d63e8057784d06ac8",
      "networkId": 0,
      "chainId": 0
    }
  ]
}