{
  "hash": "0x763dcccd96aa9b86a0c7fd4174614a62abb4c40f7f8285a375c7fff575954be5",
  "parentHash": "0xd8a99a7d1faac27c5e538b1948641110ba8b4035860303c93f3844de550c873a",
  "number": 47916,
  "timestamp": 1438948353,
  "nonce": "0xb80b506083a9f792",
  "difficulty": 1460112478677,
  "gasLimit": {
    "_hex": "0x106ba"
  },
  "gasUsed": {
    "_hex": "0x5208"
  },
  "miner": "0xf927a40C8B7F6E07c5af7FA2155B4864a4112B13",
  "extraData": "0x476574682f76312e302e312f6c696e75782f676f312e342e32",
  "transactions": [
    {
      "hash": "0x83edae017f8593395fedbe21c6b086c08146f6e0173c4d2d4664a88f4e41b9e1",
      "blockHash": "0x763dcccd96aa9b86a0c7fd4174614a62abb4c40f7f8285a375c7fff575954be5",
      "blockNumber": 47916,
      "transactionIndex": 0,
      "confirmations": null,
      "from": "0x48659D8f8C9A2FD44F68daA55d23A608FBE500DC",
      "gasPrice": {
        "_hex": "0xd73a52427"
      },
      "gasLimit": {
        "_hex": "0x61a8"
      },
      "to": "0xBB33a4b72d92FA335a3b591Ce7eE217f7a7338C1",
      "value": {
        "_hex": "0xde0b6b3a7640000"
      },
      "nonce": 0,
      "data": "0x",
      "r": "0x8ef2ce65ca6ed0ce3f99febdc5f1a6bb4519a6230726d7cc9f9ae4f5c3419f03",
      "s": "0x2a18b638f5fb7aaedd2025b2bd880a13dd56cde6e8e8be8db10bafb9554cac40",
      "v": 28,
      "creates": null,
      "raw": "0xf86c80850d73a524278261a894bb33a4b72d92fa335a3b591ce7ee217f7a7338c1880de0b6b3a7640000801ca08ef2ce65ca6ed0ce3f99febdc5f1a6bb4519a6230726d7cc9f9ae4f5c3419f03a02a18b638f5fb7aaedd2025b2bd880a13dd56cde6e8e8be8db10bafb9554cac40",
      "networkId": 0,
      "chainId": 0
    }
  ]
}