{
  "hash": "0x034ad80f13e02b0414d0ae03aad0770f3a73811d9283a687de5695930df9fb28",
  "parentHash": "0x3b683ec17145556e0833f15875f77175714f51cf78a831be60bef820a8ca3cb1",
  "number": 47414,
  "timestamp": 1438939974,
  "nonce": "0xea80e1ae0143fe86",
  "difficulty": 1450252063139,
  "gasLimit": {
    "_hex": "0xbb0b"
  },
  "gasUsed": {
    "_hex": "0xa410"
  },
  "miner": "0xe6A7a1d47ff21B6321162AEA7C6CB457D5476Bca",
  "extraData": "0x657468706f6f6c2e6f7267",
  "transactions": [
    {
      "hash": "0xcb12184477a772e506612a704fea831b3609134a73d3bee44a170305ba7ef617",
      "blockHash": "0x034ad80f13e02b0414d0ae03aad0770f3a73811d9283a687de5695930df9fb28",
      "blockNumber": 47414,
      "transactionIndex": 0,
      "confirmations": null,
      "from": "0x256A6D2Ae68632a3c99b66d792C13330842476d7",
      "gasPrice": {
        "_hex": "0x1264c45600"
      },
      "gasLimit": {
        "_hex": "0x5208"
      },
      "to": "0x933B648f5eaa5E0a05f6fF1E3947460bE264F7e2",
      "value": {
        "_hex": "0xad78ebc5ac6200000"
      },
      "nonce": 0,
      "data": "0x",
      "r": "0xb0ee564b303968ab00d3b4c94030212dff4ff94cbbfa017f4ce060b80ec403a9",
      "s": "0x76fdf6d9e06e94637ff3de6f76a0d3e13447a50e3d3f74ab33b28a285a95ae5b",
      "v": 27,
      "creates": null,
      "raw": "0xf86d80851264c4560082520894933b648f5eaa5e0a05f6ff1e3947460be264f7e2890ad78ebc5ac6200000801ba0b0ee564b303968ab00d3b4c94030212dff4ff94cbbfa017f4ce060b80ec403a9a076fdf6d9e06e94637ff3de6f76a0d3e13447a50e3d3f74ab33b28a285a95ae5b",
      "networkId": 0,
      "chainId": 0
    },
    {
      "hash": "0x1090df89a17da3ef0a7a8101102ad6e016ac95aa8f3274fb8759dcb3aaca2fb5",
      "blockHash": "0x034ad80f13e02b0414d0ae03aad0770f3a73811d9283a687de5695930df9fb28",
      "blockNumber": 47414,
      "transactionIndex": 1,
      "confirmations": null,
      "from": "0xe6A7a1d47ff21B6321162AEA7C6CB457D5476Bca",
      "gasPrice": {
        "_hex": "0x1b7958b363"
      },
      "gasLimit": {
        "_hex": "0x5208"
      },
      "to": "0xa256D16066104348Ae311b81867D4Ee12711911f",
      "value": {
        "_hex": "0x13402f67eb6383e08"
      },
      "nonce": 138,
      "data": "0x",
      "r": "0xdc0009117e7b8c227cd77d20267c6001948dd235d20907892a2cb2a1c9521f85",
      "s": "0x708ac35649b3bd2c353a33831a7c297f5de25bdc3966b2801007b3dc7771ead0",
      "v": 27,
      "creates": null,
      "raw": "0xf86e818a851b7958b36382520894a256d16066104348ae311b81867d4ee12711911f89013402f67eb6383e08801ba0dc0009117e7b8c227cd77d20267c6001948dd235d20907892a2cb2a1c9521f85a0708ac35649b3bd2c353a33831a7c297f5de25bdc3966b2801007b3dc7771ead0",
      "networkId": 0,
      "chainId": 0
    }
  ]
}