{
  "hash": "0xaf21db933d3dcaeb45c0b1f8a32adfcd0ee3f620c6c58100219b302fa0b70311",
  "parentHash": "0x0db8291d628da3debbe8158266548a5796abc010d6da54d0d69eb8c741ff8b79",
  "number": 65901,
  "timestamp": 1439245013,
  "nonce": "0x982e3f0b698e9b0c",
  "difficulty": 1944381117928,
  "gasLimit": {
    "_hex": "0x2fefd8"
  },
  "gasUsed": {
    "_hex": "0xa410"
  },
  "miner": "0x02020D22dCF88f5eDd66B382D7da019F161fB7e3",
  "extraData": "0x",
  "transactions": [
    {
      "hash": "0xc176825e658a75561c0e33863a53a6a811be0d798d5172adc6e67c82f759d8fd",
      "blockHash": "0xaf21db933d3dcaeb45c0b1f8a32adfcd0ee3f620c6c58100219b302fa0b70311",
      "blockNumber": 65901,
      "transactionIndex": 0,
      "confirmations": null,
      "from": "0x120A270bbC009644e35F0bB6ab13f95b8199c4ad",
      "gasPrice": {
        "_hex": "0xdcdef707c"
      },
      "gasLimit": {
        "_hex": "0x15f90"
      },
      "to": "0x9FfbDc745507Be96FEdbA053b7deC24A7C54b1f3",
      "value": {
        "_hex": "0xae56f730e6d840000"
      },
      "nonce": 137,
      "data": "0x",
      "r": "0x19f4204139b45ab4ec21ed5980d1e5359e5430a37615bcb90b5ed6e7745a0124",
      "s": "0x6728320dd1550cf66ee6f6adc814107a3d7b13b74f9146c99511d48512cd05de",
      "v": 28,
      "creates": null,
      "raw": "0xf86f8189850dcdef707c83015f90949ffbdc745507be96fedba053b7dec24a7c54b1f3890ae56f730e6d840000801ca019f4204139b45ab4ec21ed5980d1e5359e5430a37615bcb90b5ed6e7745a0124a06728320dd1550cf66ee6f6adc814107a3d7b13b74f9146c99511d48512cd05de",
      "networkId": 0,
      "chainId": 0
    },
    {
      "hash": "0xac0589f922abe9cde7fd172f9c2cb15457e71d2c0de07f5da4e4892e2f2b1dba",
      "blockHash": "0xaf21db933d3dcaeb45c0b1f8a32adfcd0ee3f620c6c58100219b302fa0b70311",
      "blockNumber": 65901,
      "transactionIndex": 1,
      "confirmations": null,
      "from": "0x71800954e6FA0Cbc43c6440d3CC80660F18a8B6F",
      "gasPrice": {
        "_hex": "0xd22d44de2"
      },
      "gasLimit": {
        "_hex": "0x5208"
      },
      "to": "0x32Be343B94f860124dC4fEe278FDCBD38C102D88",
      "value": {
        "_hex": "0x8ba4eb16a86c30000"
      },
      "nonce": 3,
      "data": "0x",
      "r": "0x5ce307d86a7dc03aff089ff4fdad66cba9ac036a1ff05fe88eae05618abdbbe5",
      "s": "0x2db53b5fe990b71f60d806d9cb7ebe668ad5ede0977dc6d0fccd86a0ed4631a0",
      "v": 28,
      "creates": null,
      "raw": "0xf86d03850d22d44de28252089432be343b94f860124dc4fee278fdcbd38c102d888908ba4eb16a86c30000801ca05ce307d86a7dc03aff089ff4fdad66cba9ac036a1ff05fe88eae05618abdbbe5a02db53b5fe990b71f60d806d9cb7ebe668ad5ede0977dc6d0fccd86a0ed4631a0",
      "networkId": 0,
      "chainId": 0
    }
  ]
}