{
  "hash": "0x186054d5921b95588d7af76571c253febb9748589fb6f37017ab3535c162f9f6",
  "parentHash": "0x0c9c27731070954e1cad92e63ec9fcdf9fe405ec6e4cd03ace4d3ad29ef5fed2",
  "number": 64219,
  "timestamp": 1439217205,
  "nonce": "0xa138a7d6195b6d11",
  "difficulty": 1877588033836,
  "gasLimit": {
    "_hex": "0x2fefd8"
  },
  "gasUsed": {
    "_hex": "0x5208"
  },
  "miner": "0x9D49F602b0fdb924Bd63DDE2Bd0907E4A07c63a7",
  "extraData": "0x476574682f76312e302e312f6c696e75782f676f312e342e32",
  "transactions": [
    {
      "hash": "0x977ba6cab89fb98064c104ba4c64571a60af620ea3e3a5449f02eaeeb21ad564",
      "blockHash": "0x186054d5921b95588d7af76571c253febb9748589fb6f37017ab3535c162f9f6",
      "blockNumber": 64219,
      "transactionIndex": 0,
      "confirmations": null,
      "from": "0xbCAc266E82Ec326595cabCb3F344cF505219985c",
      "gasPrice": {
        "_hex": "0xd88522f08"
      },
      "gasLimit": {
        "_hex": "0x5208"
      },
      "to": "0x32Be343B94f860124dC4fEe278FDCBD38C102D88",
      "value": {
        "_hex": "0xddfee1a86f06000"
      },
      "nonce": 0,
      "data": "0x",
      "r": "0x93b337edda18b2a724810e898187e9c881d0486e3cc6b9e291f280274c79baa5",
      "s": "0x2e6ae26e57669b672609081a0bd107fdaf6c953f9123b1475fc9c595fec202ed",
      "v": 28,
      "creates": null,
      "raw": "0xf86c80850d88522f088252089432be343b94f860124dc4fee278fdcbd38c102d88880ddfee1a86f06000801ca093b337edda18b2a724810e898187e9c881d0486e3cc6b9e291f280274c79baa5a02e6ae26e57669b672609081a0bd107fdaf6c953f9123b1475fc9c595fec202ed",
      "networkId": 0,
      "chainId": 0
    }
  ]
}