{
  "hash": "0x3989deac215a7a1de3b3dce3c1655d99f9717bd0b93455d873fb66cb6d278d6b",
  "parentHash": "0x7b9c1e32b70b165cf234612f52ade060fdf791fab25b355f2372c4163bfb7292",
  "number": 67570,
  "timestamp": 1439274125,
  "nonce": "0x39e116bf5a52342b",
  "difficulty": 1926042597743,
  "gasLimit": {
    "_hex": "0x2fefd8"
  },
  "gasUsed": {
    "_hex": "0x546c"
  },
  "miner": "0x9746c7e1ef2bd21FF3997fa467593a89cb852BD0",
  "extraData": "0x476574682f76312e302e312f77696e646f77732f676f312e342e32",
  "transactions": [
    {
      "hash": "0x9e7d90748567426979339474ab9d0258fbc67a79c8cb56b096c5975cedd29063",
      "blockHash": "0x3989deac215a7a1de3b3dce3c1655d99f9717bd0b93455d873fb66cb6d278d6b",
      "blockNumber": 67570,
      "transactionIndex": 0,
      "confirmations": null,
      "from": "0x04E5f5bC7c923FD1E31735e72EF968FD67110c6e",
      "gasPrice": {
        "_hex": "0x110c8f7d8de"
      },
      "gasLimit": {
        "_hex": "0xc350"
      },
      "to": "0x2910543Af39abA0Cd09dBb2D50200b3E800A63D2",
      "value": {
        "_hex": "0xc12dc63fa970000"
      },
      "nonce": 1,
      "data": "0x454e424d4342415930",
      "r": "0x642627c9e06048f9b3b87e67b6f1449f5ec4ac8743e933e24e90454be7babbcd",
      "s": "0xd6a2e014a1ae81b86a71de9ef52099b641eb8030af83522786fff2e697916577",
      "v": 28,
      "creates": null,
      "raw": "0xf87601860110c8f7d8de82c350942910543af39aba0cd09dbb2d50200b3e800a63d2880c12dc63fa97000089454e424d43424159301ca0642627c9e06048f9b3b87e67b6f1449f5ec4ac8743e933e24e90454be7babbcda0d6a2e014a1ae81b86a71de9ef52099b641eb8030af83522786fff2e697916577",
      "networkId": 0,
      "chainId": 0
    }
  ]
}