{
  "hash": "0x3bfa6eccbba80aedf98bd6e0e8708e22b880e2664b4b2e38c268da170b7a048e",
  "parentHash": "0x86a22bcbc8d59477944a2c320120afe5a8ca23d7934ea5b04f557ab1ee57caa5",
  "number": 75570,
  "timestamp": 1439405632,
  "nonce": "0x604a7d5a69cf200a",
  "difficulty": 2216912206243,
  "gasLimit": {
    "_hex": "0x2fefd8"
  },
  "gasUsed": {
    "_hex": "0x1f1db"
  },
  "miner": "0xe6A7a1d47ff21B6321162AEA7C6CB457D5476Bca",
  "extraData": "0x476574682f76312e302e312d38326566323666362f6c696e75782f676f312e34",
  "transactions": [
    {
      "hash": "0x6f3bcd2889d899e6e800189c233559897a1be21950155eea778056058ce13cf2",
      "blockHash": "0x3bfa6eccbba80aedf98bd6e0e8708e22b880e2664b4b2e38c268da170b7a048e",
      "blockNumber": 75570,
      "transactionIndex": 0,
      "confirmations": null,
      "from": "0x8674c218F0351a62C3BA78C34FD2182A93Da94E2",
      "gasPrice": {
        "_hex": "0xba43b7400"
      },
      "gasLimit": {
        "_hex": "0x2f4d60"
      },
      "to": "0x7f751820bE4b1E44464268C425Af6095995e045A",
      "value": {
        "_hex": "0x0"
      },
      "nonce": 78,
      "data": "0xde6f24bb0000000000000000000000008674c218f0351a62c3ba78c34fd2182a93da94e2000000000000000000000000000000000000000000000000000000000000004000000000000000000000000000000000000000000000000000000000000000036869210000000000000000000000000000000000000000000000000000000000",
      "r": "0x40f0fb1cab13eb3571011f524c2da3638493036cd7a12062155caf8912158ad6",
      "s": "0x5dd4d93cb87cd9df16ceb4a284c61ad84e5d884a3119f1ab63e704aaf8181d67",
      "v": 27,
      "creates": null,
      "raw": "0xf8ea4e850ba43b7400832f4d60947f751820be4b1e44464268c425af6095995e045a80b884de6f24bb0000000000000000000000008674c218f0351a62c3ba78c34fd2182a93da94e20000000000000000000000000000000000000000000000000000000000000040000000000000000000000000000000000000000000000000000000000000000368692100000000000000000000000000000000000000000000000000000000001ba040f0fb1cab13eb3571011f524c2da3638493036cd7a12062155caf8912158ad6a05dd4d93cb87cd9df16ceb4a284c61ad84e5d884a3119f1ab63e704aaf8181d67",
      "networkId": 0,
      "chainId": 0
    }
  ]
}