{
  "hash": "0x768a815ec2c87cbab36f721a0f52fd9cef5643275e31cf2fbb86fa0e3d06db65",
  "parentHash": "0xb080f7a62340b742d3f284f36fcd24a3e4976b726ab4e9688938e88814bb8213",
  "number": 61632,
  "timestamp": 1439175483,
  "nonce": "0x5b551a323c3a2b9a",
  "difficulty": 1741266613440,
  "gasLimit": {
    "_hex": "0x2fefd8"
  },
  "gasUsed": {
    "_hex": "0x546c"
  },
  "miner": "0x55bAf64fc9eAccFFd7Cc643BB61142E1C6ac093e",
  "extraData": "0x",
  "transactions": [
    {
      "hash": "0x1b008208e4d802da0ff14f04be7ed81fbe72932a85f74196613522ee37ce987b",
      "blockHash": "0x768a815ec2c87cbab36f721a0f52fd9cef5643275e31cf2fbb86fa0e3d06db65",
      "blockNumber": 61632,
      "transactionIndex": 0,
      "confirmations": null,
      "from": "0x43898c49a34d509BfeD4F76041ee91CAf3AA6AA5",
      "gasPrice": {
        "_hex": "0x110c8f7d8de"
      },
      "gasLimit": {
        "_hex": "0xc350"
      },
      "to": "0x2910543Af39abA0Cd09dBb2D50200b3E800A63D2",
      "value": {
        "_hex": "0x10357563d481cc0000"
      },
      "nonce": 2,
      "data": "0x454e374d4d38513138",
      "r": "0xd067c10b697fd1d965d3c3f8f5acb6d124f64500720b975e8e50eaed52433a43",
      "s": "0xc840f7f2de784462e09ce4f076a558d33dbc9a23dc8d95485baa13e558e4f8d1",
      "v": 28,
      "creates": null,
      "raw": "0xf87702860110c8f7d8de82c350942910543af39aba0cd09dbb2d50200b3e800a63d28910357563d481cc000089454e374d4d385131381ca0d067c10b697fd1d965d3c3f8f5acb6d124f64500720b975e8e50eaed52433a43a0c840f7f2de784462e09ce4f076a558d33dbc9a23dc8d95485baa13e558e4f8d1",
      "networkId": 0,
      "chainId": 0
    }
  ]
}