{
  "hash": "0x8b5dd3fe56046a3f57ed7e28a8664d9b5c01e8e3d16861e09bf22fa37b5ac8c1",
  "parentHash": "0xfcffc97a800e386806836cf1495fe8955ba0b18aa6669d893c0e38c9c433e057",
  "number": 122338,
  "timestamp": 1440192416,
  "nonce": "0x9e7a903393e8c45a",
  "difficulty": 4475186457772,
  "gasLimit": {
    "_hex": "0x2fefd8"
  },
  "gasUsed": {
    "_hex": "0x19a28"
  },
  "miner": "0x0037ce3d4B7f8729C8607D8D0248252Be68202c0",
  "extraData": "0x",
  "transactions": [
    {
      "hash": "0x43b813c61257df4903e92038118c6b9afce5a11d3e9cdd6913afda060de257c0",
      "blockHash": "0x8b5dd3fe56046a3f57ed7e28a8664d9b5c01e8e3d16861e09bf22fa37b5ac8c1",
      "blockNumber": 122338,
      "transactionIndex": 0,
      "confirmations": null,
      "from": "0x608f4b86321a68453f9adf6F06F7Fc3E621739ad",
      "gasPrice": {
        "_hex": "0xde8f04ba5"
      },
      "gasLimit": {
        "_hex": "0x5208"
      },
      "to": "0x32Be343B94f860124dC4fEe278FDCBD38C102D88",
      "value": {
        "_hex": "0x456389a448c69c00"
      },
      "nonce": 129,
      "data": "0x",
      "r": "0x3e8941ecf3788e615a08634b50670d77f46f055e470637e7d27524fd24a12591",
      "s": "0x6d88153d1853fd5da2af7b238e5c61198b86067759db2ade2debeed011671c5b",
      "v": 28,
      "creates": null,
      "raw": "0xf86d8181850de8f04ba58252089432be343b94f860124dc4fee278fdcbd38c102d8888456389a448c69c00801ca03e8941ecf3788e615a08634b50670d77f46f055e470637e7d27524fd24a12591a06d88153d1853fd5da2af7b238e5c61198b86067759db2ade2debeed011671c5b",
      "networkId": 0,
      "chainId": 0
    },
    {
      "hash": "0x110fddf5333e8effdf076df7686e60bf474c0b8bab0064f6517d25d9caa9468d",
      "blockHash": "0x8b5dd3fe56046a3f57ed7e28a8664d9b5c01e8e3d16861e09bf22fa37b5ac8c1",
      "blockNumber": 122338,
      "transactionIndex": 1,
      "confirmations": null,
      "from": "0x267069452478cA39b3f5F1A4fFdD4131f50Bc977",
      "gasPrice": {
        "_hex": "0xde8f04ba5"
      },
      "gasLimit": {
        "_hex": "0x5208"
      },
      "to": "0x32Be343B94f860124dC4fEe278FDCBD38C102D88",
      "value": {
        "_hex": "0xddc36b30c21e000"
      },
      "nonce": 16,
      "data": "0x",
      "r": "0x8996f614abae9b8cbb912215b292b4686cc57c80b4d1913075fe53a820191e91",
      "s": "0x1684b5eb1ed4c85f3efbebc2ab7e5ff0bc9da85dcaed4c096c458b367f61664c",
      "v": 27,
      "creates": null,
      "raw": "0xf86c10850de8f04ba58252089432be343b94f860124dc4fee278fdcbd38c102d88880ddc36b30c21e000801ba08996f614abae9b8cbb912215b292b4686cc57c80b4d1913075fe53a820191e91a01684b5eb1ed4c85f3efbebc2ab7e5ff0bc9da85dcaed4c096c458b367f61664c",
      "networkId": 0,
      "chainId": 0
    },
    {
      "hash": "0x53a3c2dbd20d7cb0f27caadad410cced2101e4537b3ea83914294b3be1bc6b63",
      "blockHash": "0x8b5dd3fe56046a3f57ed7e28a8664d9b5c01e8e3d16861e09bf22fa37b5ac8c1",
      "blockNumber": 122338,
      "transactionIndex": 2,
      "confirmations": null,
      "from": "0xb1abce2918E21ddb93AA452731a12672A3d9F75a",
      "gasPrice": {
        "_hex": "0xde8f04ba5"
      },
      "gasLimit": {
        "_hex": "0x5208"
      },
      "to": "0x32Be343B94f860124dC4fEe278FDCBD38C102D88",
      "value": {
        "_hex": "0x455f1c74f19e3000"
      },
      "nonce": 227,
      "data": "0x",
      "r": "0x52b9bbbbe29adb85443a8fc788bcead482c111aa89f1fa673114d9bf32dedea6",
      "s": "0x3cc8eec26f9b99e10473b83d76f2b5de3c754effb335a237c2c0ab935b97137a",
      "v": 27,
      "creates": null,
      "raw": "0xf86d81e3850de8f04ba58252089432be343b94f860124dc4fee278fdcbd38c102d8888455f1c74f19e3000801ba052b9bbbbe29adb85443a8fc788bcead482c111aa89f1fa673114d9bf32dedea6a03cc8eec26f9b99e10473b83d76f2b5de3c754effb335a237c2c0ab935b97137a",
      "networkId": 0,
      "chainId": 0
    },
    {
      "hash": "0x273b706f4387b477159c7eb1edb02d082c2cda3c005a1ab15ed450f9b4eee063",
      "blockHash": "0x8b5dd3fe56046a3f57ed7e28a8664d9b5c01e8e3d16861e09bf22fa37b5ac8c1",
      "blockNumber": 122338,
      "transactionIndex": 3,
      "confirmations": null,
      "from": "0x812bbf42F8926f5528823Ac6C466A63A27C26Fd9",
      "gasPrice": {
        "_hex": "0xde8f04ba5"
      },
      "gasLimit": {
        "_hex": "0x5208"
      },
      "to": "0x32Be343B94f860124dC4fEe278FDCBD38C102D88",
      "value": {
        "_hex": "0x17da358fba608a0000"
      },
      "nonce": 0,
      "data": "0x",
      "r": "0xc3514ab099e08b32850cd3bd3d2cf85e23f267a92aafa1ffbe0974da738b3af7",
      "s": "0x1c0e3ff1cba96871d0e30d76b43e2bf2f3dbfbd7de45a26f4b556187da896551",
      "v": 28,
      "creates": null,
      "raw": "0xf86d80850de8f04ba58252089432be343b94f860124dc4fee278fdcbd38c102d888917da358fba608a0000801ca0c3514ab099e08b32850cd3bd3d2cf85e23f267a92aafa1ffbe0974da738b3af7a01c0e3ff1cba96871d0e30d76b43e2bf2f3dbfbd7de45a26f4b556187da896551",
      "networkId": 0,
      "chainId": 0
    },
    {
      "hash": "0x4e8ab2375c0d9232f5c9eabf096afcfbd3cf458c73740d4c479d23ea13a7bfea",
      "blockHash": "0x8b5dd3fe56046a3f57ed7e28a8664d9b5c01e8e3d16861e09bf22fa37b5ac8c1",
      "blockNumber": 122338,
      "transactionIndex": 4,
      "confirmations": null,
      "from": "0x0DBaD90C967BFfeA4d6B589c0d2AF50A0eA16304",
      "gasPrice": {
        "_hex": "0xde8f04ba5"
      },
      "gasLimit": {
        "_hex": "0x5208"
      },
      "to": "0x32Be343B94f860124dC4fEe278FDCBD38C102D88",
      "value": {
        "_hex": "0x35b280bef49194000"
      },
      "nonce": 8,
      "data": "0x",
      "r": "0xf177e180794d7daed20e8fdde0dce16564a65e7583589c8c1104f942224bc027",
      "s": "0x3b42fb1422aa2589b5250fb4cb2f7f4ef43ae34c2d2dd50e512bc7e5cb987f8e",
      "v": 27,
      "creates": null,
      "raw": "0xf86d08850de8f04ba58252089432be343b94f860124dc4fee278fdcbd38c102d8889035b280bef49194000801ba0f177e180794d7daed20e8fdde0dce16564a65e7583589c8c1104f942224bc027a03b42fb1422aa2589b5250fb4cb2f7f4ef43ae34c2d2dd50e512bc7e5cb987f8e",
      "networkId": 0,
      "chainId": 0
    }
  ]
}