{
  "hash": "0xa878c2d8a14a6d51b847f8943d345aa0ab0f9d4b390457346ac5edc7283a36d1",
  "parentHash": "0x028b0369915a9b784e35e27b252a0df526f002bc642d6ea3cbfb984b0153df8d",
  "number": 90110,
  "timestamp": 1439634697,
  "nonce": "0x9e627aa8eb8f6b31",
  "difficulty": 3318973325712,
  "gasLimit": {
    "_hex": "0x2fefd8"
  },
  "gasUsed": {
    "_hex": "0x5208"
  },
  "miner": "0x9D49F602b0fdb924Bd63DDE2Bd0907E4A07c63a7",
  "extraData": "0x476574682f76312e302e312f6c696e75782f676f312e342e32",
  "transactions": [
    {
      "hash": "0xc58dddff6a3f5b381bb4257a7f3bce262d78b8a6dc23a088b93f5549c11caaef",
      "blockHash": "0xa878c2d8a14a6d51b847f8943d345aa0ab0f9d4b390457346ac5edc7283a36d1",
      "blockNumber": 90110,
      "transactionIndex": 0,
      "confirmations": null,
      "from": "0x30853f0562c79055Fbd88CFFC01A109b346752ba",
      "gasPrice": {
        "_hex": "0xd4400c76a"
      },
      "gasLimit": {
        "_hex": "0x7530"
      },
      "to": "0xa9f5E7bf6Cbf6fEc55B30850Eb492b47A376d050",
      "value": {
        "_hex": "0xa06d5ec0a3840000"
      },
      "nonce": 3,
      "data": "0x",
      "r": "0xfa990aef74a13754c3fa6b1651914fcdd9d370961b8cd19e6357942f8ed6f21c",
      "s": "0x284ae74dd0815a400c9f46f45d9e0fb6197ac70f39c94128d9c518a6ad4b24b6",
      "v": 28,
      "creates": null,
      "raw": "0xf86c03850d4400c76a82753094a9f5e7bf6cbf6fec55b30850eb492b47a376d05088a06d5ec0a3840000801ca0fa990aef74a13754c3fa6b1651914fcdd9d370961b8cd19e6357942f8ed6f21ca0284ae74dd0815a400c9f46f45d9e0fb6197ac70f39c94128d9c518a6ad4b24b6",
      "networkId": 0,
      "chainId": 0
    }
  ]
}