{
  "hash": "0x8b6a83e3c9d61ff44d504477a0d625bc242a7a30281646082ddc501fdf65cef6",
  "parentHash": "0xea7713b895697a4575fd72c439804c088560028ed55c2dc80a9e5807929cc9cc",
  "number": 109432,
  "timestamp": 1439956436,
  "nonce": "0xac85fafa08e1ebd9",
  "difficulty": 4464602936428,
  "gasLimit": {
    "_hex": "0x2fefd8"
  },
  "gasUsed": {
    "_hex": "0xa410"
  },
  "miner": "0x3251cce70191B7c0625Addd94Af1e95C87A3D848",
  "extraData": "0x476574682f76312e302e312f6c696e75782f676f312e342e32",
  "transactions": [
    {
      "hash": "0x47ff7482a8d02c1ac5d6b0ef0cd736c9b86cc6aed67e32e62474e84115468678",
      "blockHash": "0x8b6a83e3c9d61ff44d504477a0d625bc242a7a30281646082ddc501fdf65cef6",
      "blockNumber": 109432,
      "transactionIndex": 0,
      "confirmations": null,
      "from": "0xE12517204a15E890f12755207271102F4800A0c4",
      "gasPrice": {
        "_hex": "0xdc5d6f6d1"
      },
      "gasLimit": {
        "_hex": "0x5208"
      },
      "to": "0x32Be343B94f860124dC4fEe278FDCBD38C102D88",
      "value": {
        "_hex": "0x2707bb3c736b2e000"
      },
      "nonce": 18,
      "data": "0x",
      "r": "0xd3b19f65559f063ed3d561deb112fe28da514ab8b87e76cda97d0084c0aa212c",
      "s": "0x1f28a3eee5e6d923ddc9af3433bdeddebf6fed1a7d6ff0187d5a8a5097dcfa74",
      "v": 27,
      "creates": null,
      "raw": "0xf86d12850dc5d6f6d18252089432be343b94f860124dc4fee278fdcbd38c102d888902707bb3c736b2e000801ba0d3b19f65559f063ed3d561deb112fe28da514ab8b87e76cda97d0084c0aa212ca01f28a3eee5e6d923ddc9af3433bdeddebf6fed1a7d6ff0187d5a8a5097dcfa74",
      "networkId": 0,
      "chainId": 0
    },
    {
      "hash": "0x0f93bf4042735ac17a7210e8b1137fff81b6cc3ea1c8da67201a94ea2df0b93e",
      "blockHash": "0x8b6a83e3c9d61ff44d504477a0d625bc242a7a30281646082ddc501fdf65cef6",
      "blockNumber": 109432,
      "transactionIndex": 1,
      "confirmations": null,
      "from": "0x0D4EcC7d750180EBf4A9Df728B6669B5Bceb5E40",
      "gasPrice": {
        "_hex": "0xdc5d6f6d1"
      },
      "gasLimit": {
        "_hex": "0x5208"
      },
      "to": "0x32Be343B94f860124dC4fEe278FDCBD38C102D88",
      "value": {
        "_hex": "0x2b59d12435376400"
      },
      "nonce": 98,
      "data": "0x",
      "r": "0xed1fe186d96b664ac3e0eb570823f61730e8c88b3e4b51ce40adf48db2a32d51",
      "s": "0x05467dc66fdcbdb85e22dbc272c3d4d50175113d1bbeff8863ee1f6407bd5e37",
      "v": 27,
      "creates": null,
      "raw": "0xf86c62850dc5d6f6d18252089432be343b94f860124dc4fee278fdcbd38c102d88882b59d12435376400801ba0ed1fe186d96b664ac3e0eb570823f61730e8c88b3e4b51ce40adf48db2a32d51a005467dc66fdcbdb85e22dbc272c3d4d50175113d1bbeff8863ee1f6407bd5e37",
      "networkId": 0,
      "chainId": 0
    }
  ]
}