{
  "hash": "0x2227c22e356bde032f832edc4986b58d15c900dd4b702e7fd33a550f7f0dd404",
  "parentHash": "0x9d305791225e1dda9188a52e114baed3885b49f93ef340cc1f0853f352fcb085",
  "number": 84325,
  "timestamp": 1439548090,
  "nonce": "0x6c3918a10286a77c",
  "difficulty": 2540291134174,
  "gasLimit": {
    "_hex": "0x2fefd8"
  },
  "gasUsed": {
    "_hex": "0x19a28"
  },
  "miner": "0xe6A7a1d47ff21B6321162AEA7C6CB457D5476Bca",
  "extraData": "0x476574682f76312e302e312d38326566323666362f6c696e75782f676f312e34",
  "transactions": [
    {
      "hash": "0x25134b57cf395292eb00815cea6330b764f5ec9b63f87d7ccae5d0e3ba6a4c69",
      "blockHash": "0x2227c22e356bde032f832edc4986b58d15c900dd4b702e7fd33a550f7f0dd404",
      "blockNumber": 84325,
      "transactionIndex": 0,
      "confirmations": null,
      "from": "0x513cc87Fc09c7Dedae9A780a66dc47ebeE4B5C5A",
      "gasPrice": {
        "_hex": "0xd7d40ace3"
      },
      "gasLimit": {
        "_hex": "0x5208"
      },
      "to": "0xE3535c3A7F74fDd1447140e98FA5fE310028f40f",
      "value": {
        "_hex": "0x8ac7230489e80000"
      },
      "nonce": 0,
      "data": "0x",
      "r": "0xcfc97242ea07dd1387e43a12926df9aaa0a969fbf380151590724104f609d46a",
      "s": "0x3a5ded944485e84eb3a2dc516308e578e74fc1502c816b9d7a303178e0142cb5",
      "v": 27,
      "creates": null,
      "raw": "0xf86c80850d7d40ace382520894e3535c3a7f74fdd1447140e98fa5fe310028f40f888ac7230489e80000801ba0cfc97242ea07dd1387e43a12926df9aaa0a969fbf380151590724104f609d46aa03a5ded944485e84eb3a2dc516308e578e74fc1502c816b9d7a303178e0142cb5",
      "networkId": 0,
      "chainId": 0
    },
    {
      "hash": "0x8d040708ef3c10bd97ed88b93712991d42cf0519464274ff2a4602e4c0172410",
      "blockHash": "0x2227c22e356bde032f832edc4986b58d15c900dd4b702e7fd33a550f7f0dd404",
      "blockNumber": 84325,
      "transactionIndex": 1,
      "confirmations": null,
      "from": "0x48659D8f8C9A2FD44F68daA55d23A608FBE500DC",
      "gasPrice": {
        "_hex": "0xd1ef68223"
      },
      "gasLimit": {
        "_hex": "0x15f90"
      },
      "to": "0xBB33a4b72d92FA335a3b591Ce7eE217f7a7338C1",
      "value": {
        "_hex": "0x19801c83b6c7c0000"
      },
      "nonce": 5,
      "data": "0x",
      "r": "0xf3ea943b709c4f01b18c314843289a218b3429ca54facc08617e59e0c06d7330",
      "s": "0x4df0f7785025386efb0419890eb0178bb4c1c8bc8d71bfd418ad755849e2f1d2",
      "v": 27,
      "creates": null,
      "raw": "0xf86e05850d1ef6822383015f9094bb33a4b72d92fa335a3b591ce7ee217f7a7338c189019801c83b6c7c0000801ba0f3ea943b709c4f01b18c314843289a218b3429ca54facc08617e59e0c06d7330a04df0f7785025386efb0419890eb0178bb4c1c8bc8d71bfd418ad755849e2f1d2",
      "networkId": 0,
      "chainId": 0
    },
    {
      "hash": "0xd59de4e1aff0d784f0db5f75fca69dbb68aba957c336ea70167f4d2c7ed5b772",
      "blockHash": "0x2227c22e356bde032f832edc4986b58d15c900dd4b702e7fd33a550f7f0dd404",
      "blockNumber": 84325,
      "transactionIndex": 2,
      "confirmations": null,
      "from": "0xA971748c4C493bC96C7d490E1789481e1E96bB10",
      "gasPrice": {
        "_hex": "0xcccf52ebd"
      },
      "gasLimit": {
        "_hex": "0x5208"
      },
      "to": "0x32Be343B94f860124dC4fEe278FDCBD38C102D88",
      "value": {
        "_hex": "0x118e3b71267171000"
      },
      "nonce": 0,
      "data": "0x",
      "r": "0x16f0c0b178d7b62658abe0a28ab704d9d381ec3505fd4bb56dd0600ae7714a76",
      "s": "0x614fd3ca1fa07650f1739578ee19b1888389d300f728f6e225d11f36e074a95e",
      "v": 28,
      "creates": null,
      "raw": "0xf86d80850cccf52ebd8252089432be343b94f860124dc4fee278fdcbd38c102d88890118e3b71267171000801ca016f0c0b178d7b62658abe0a28ab704d9d381ec3505fd4bb56dd0600ae7714a76a0614fd3ca1fa07650f1739578ee19b1888389d300f728f6e225d11f36e074a95e",
      "networkId": 0,
      "chainId": 0
    },
    {
      "hash": "0x356f24398678144f076270151dc2191db74d2dd3bbbdcb210339be65f1d9b5fd",
      "blockHash": "0x2227c22e356bde032f832edc4986b58d15c900dd4b702e7fd33a550f7f0dd404",
      "blockNumber": 84325,
      "transactionIndex": 3,
      "confirmations": null,
      "from": "0xf0c896DB24137eDA6Ec88cF1a95217F8604aE55e",
      "gasPrice": {
        "_hex": "0xcccf52ebd"
      },
      "gasLimit": {
        "_hex": "0x5208"
      },
      "to": "0x32Be343B94f860124dC4fEe278FDCBD38C102D88",
      "value": {
        "_hex": "0xf7c1221df8fbc000"
      },
      "nonce": 0,
      "data": "0x",
      "r": "0x5d4194140f9feb98ec20450e13e231824162e88f2db2c43b4e7fef1d053973c5",
      "s": "0x491e82e877b6f3ce19dbe8e31c8e81e7600ddff34ab89ec7e74936c9fb9c8c14",
      "v": 28,
      "creates": null,
      "raw": "0xf86c80850cccf52ebd8252089432be343b94f860124dc4fee278fdcbd38c102d8888f7c1221df8fbc000801ca05d4194140f9feb98ec20450e13e231824162e88f2db2c43b4e7fef1d053973c5a0491e82e877b6f3ce19dbe8e31c8e81e7600ddff34ab89ec7e74936c9fb9c8c14",
      "networkId": 0,
      "chainId": 0
    },
    {
      "hash": "0x7dee38d0e08df1a660756b7a668cb7d70bfec1c8edc4e52c72e5026cc9629505",
      "blockHash": "0x2227c22e356bde032f832edc4986b58d15c900dd4b702e7fd33a550f7f0dd404",
      "blockNumber": 84325,
      "transactionIndex": 4,
      "confirmations": null,
      "from": "0x233b4fC39b20bb5eCf29882D7F068544BCc5eB78",
      "gasPrice": {
        "_hex": "0xcccf52ebd"
      },
      "gasLimit": {
        "_hex": "0x5208"
      },
      "to": "0x32Be343B94f860124dC4fEe278FDCBD38C102D88",
      "value": {
        "_hex": "0xc31e7c9f39491000"
      },
      "nonce": 0,
      "data": "0x",
      "r": "0xbfe88fda6d28e92a962b7ab1cb05e1b07f91bc747b9c2e6228c63c3e353d8aa3",
      "s": "0x6d599f88ed9d8b8d2366e8c22fcff19c6afe7c3073e32f34f5b48f376e8b16fc",
      "v": 28,
      "creates": null,
      "raw": "0xf86c80850cccf52ebd8252089432be343b94f860124dc4fee278fdcbd38c102d8888c31e7c9f39491000801ca0bfe88fda6d28e92a962b7ab1cb05e1b07f91bc747b9c2e6228c63c3e353d8aa3a06d599f88ed9d8b8d2366e8c22fcff19c6afe7c3073e32f34f5b48f376e8b16fc",
      "networkId": 0,
      "chainId": 0
    }
  ]
}