{
  "hash": "0xbdcbc2b6aef868387360c7d414d50e27a38d0d6b2dee1071d5ea1df4df15eb02",
  "parentHash": "0x9fbefdfe4e2fc15a5e3ab63ad64c39b65c30c83d59ed2a9ad62908544463cd5f",
  "number": 64806,
  "timestamp": 1439226540,
  "nonce": "0x143c20793e5f7195",
  "difficulty": 1894955510662,
  "gasLimit": {
    "_hex": "0x2fefd8"
  },
  "gasUsed": {
    "_hex": "0x17cd8"
  },
  "miner": "0xe6A7a1d47ff21B6321162AEA7C6CB457D5476Bca",
  "extraData": "0x476574682f76312e302e312f6c696e75782f676f312e342e32",
  "transactions": [
    {
      "hash": "0xecb331bb9d8f8252520f51b83235e5bc3472e601083d403a47eabde7cfe8a691",
      "blockHash": "0xbdcbc2b6aef868387360c7d414d50e27a38d0d6b2dee1071d5ea1df4df15eb02",
      "blockNumber": 64806,
      "transactionIndex": 0,
      "confirmations": null,
      "from": "0x3a84DF304F068DEdeBD09600db815e691284818D",
      "gasPrice": {
        "_hex": "0xba43b7400"
      },
      "gasLimit": {
        "_hex": "0x15f90"
      },
      "to": "0x793AE8C1b1a160BFc07BFB0d04F85eab1A71F4f2",
      "value": {
        "_hex": "0x0"
      },
      "nonce": 0,
      "data": "0x3ba15036",
      "r": "0xab5b801fae40548bd4b62c197a8303f3073f9ba3e0d6e5a0bf4fcab2bedeee9d",
      "s": "0x2f48acc380efdde6cb952f63c31b3a037097695f01b09a05d4ee3f5104c0c547",
      "v": 28,
      "creates": null,
      "raw": "0xf86980850ba43b740083015f9094793ae8c1b1a160bfc07bfb0d04f85eab1a71f4f280843ba150361ca0ab5b801fae40548bd4b62c197a8303f3073f9ba3e0d6e5a0bf4fcab2bedeee9da02f48acc380efdde6cb952f63c31b3a037097695f01b09a05d4ee3f5104c0c547",
      "networkId": 0,
      "chainId": 0
    },
    {
      "hash": "0x0fadc17d667829bb465c0c1a004f909318edaf1d8c9dbd272e2eb5bfe4ee06e6",
      "blockHash": "0xbdcbc2b6aef868387360c7d414d50e27a38d0d6b2dee1071d5ea1df4df15eb02",
      "blockNumber": 64806,
      "transactionIndex": 1,
      "confirmations": null,
      "from": "0xEB66e20bb0f2C6e3c34a574840cb7c2Bf7116Be6",
      "gasPrice": {
        "_hex": "0xba43b7400"
      },
      "gasLimit": {
        "_hex": "0x15f90"
      },
      "to": "0x793AE8C1b1a160BFc07BFB0d04F85eab1A71F4f2",
      "value": {
        "_hex": "0x0"
      },
      "nonce": 0,
      "data": "0x3ba15036",
      "r": "0x25888d1b640e480ff7c260ab8623df6134aecfd4936e86c2974b8a2e1d35ab24",
      "s": "0x13617551ba7993088d48817044a8c9c676d4a66b942d1cd1dd5b0e5e80dcb282",
      "v": 28,
      "creates": null,
      "raw": "0xf86980850ba43b740083015f9094793ae8c1b1a160bfc07bfb0d04f85eab1a71f4f280843ba150361ca025888d1b640e480ff7c260ab8623df6134aecfd4936e86c2974b8a2e1d35ab24a013617551ba7993088d48817044a8c9c676d4a66b942d1cd1dd5b0e5e80dcb282",
      "networkId": 0,
      "chainId": 0
    }
  ]
}