{
  "hash": "0x4f3bfb257035a810802d1329d4d2de2138b148624841a1355674f7c3188f7385",
  "parentHash": "0x6d0a10566074cad05f6a93f2b240ea90db202921777594d8e0f47197e946cd89",
  "number": 46438,
  "timestamp": 1438923147,
  "nonce": "0xa6d95f90103c6e53",
  "difficulty": 1468951733227,
  "gasLimit": {
    "_hex": "0x6110"
  },
  "gasUsed": {
    "_hex": "0x5208"
  },
  "miner": "0xf8E0CA3Ed80bd541b94BEdCf259e8CF2141A9523",
  "extraData": "0x476574682f76312e302e312f77696e646f77732f676f312e342e32",
  "transactions": [
    {
      "hash": "0x9aee4c6644607a6b4a03bb3d385092908902c82e65e4cff0d1b68804010331a1",
      "blockHash": "0x4f3bfb257035a810802d1329d4d2de2138b148624841a1355674f7c3188f7385",
      "blockNumber": 46438,
      "transactionIndex": 0,
      "confirmations": null,
      "from": "0xa89AC93b23370472DaAc337E9afdF642543F3E57",
      "gasPrice": {
        "_hex": "0x746a528800"
      },
      "gasLimit": {
        "_hex": "0x5208"
      },
      "to": "0xB5046cb3dC1DEDbd364514a2848E44C1dE4ED147",
      "value": {
        "_hex": "0x8ac7230489e80000"
      },
      "nonce": 0,
      "data": "0x",
      "r": "0x6208d7a9a3c8dab4d102afeedf7f12868eda99fbbec7d3493e99f4bab00463a2",
      "s": "0x1d5d21c6e82c933cd1185887d174436d2e9bb60e5bfc5213bdf4c31f2632d2dd",
      "v": 28,
      "creates": null,
      "raw": "0xf86c8085746a52880082520894b5046cb3dc1dedbd364514a2848e44c1de4ed147888ac7230489e80000801ca06208d7a9a3c8dab4d102afeedf7f12868eda99fbbec7d3493e99f4bab00463a2a01d5d21c6e82c933cd1185887d174436d2e9bb60e5bfc5213bdf4c31f2632d2dd",
      "networkId": 0,
      "chainId": 0
    }
  ]
}