{
  "hash": "0x7d1eda23b9ed0d3e8ee2282bb40bbc818e419108dbbeb334c7f637a488c2713e",
  "parentHash": "0xb8ff151789a6dbf3fedcb886f4252c54ad2638837da0c7af00689adc7e64125c",
  "number": 99914,
  "timestamp": 1439797533,
  "nonce": "0xf99d47005da5a47e",
  "difficulty": 3860630568724,
  "gasLimit": {
    "_hex": "0x2fefd8"
  },
  "gasUsed": {
    "_hex": "0x5208"
  },
  "miner": "0x858079E02403b10748B71A02195b6608Abaf6b8f",
  "extraData": "0x476574682f76312e302e312f77696e646f77732f676f312e342e32",
  "transactions": [
    {
      "hash": "0x2c830554f7e1d3aec247cfc014b23efb77238322717f1403ab719707fc6529a6",
      "blockHash": "0x7d1eda23b9ed0d3e8ee2282bb40bbc818e419108dbbeb334c7f637a488c2713e",
      "blockNumber": 99914,
      "transactionIndex": 0,
      "confirmations": null,
      "from": "0xC7F13fb553585546Dbbf3D0e4b52b20Bb52Af854",
      "gasPrice": {
        "_hex": "0xd23ee12e2"
      },
      "gasLimit": {
        "_hex": "0x15f90"
      },
      "to": "0x385e7d962Ebd5c8422B3Cb9fC6718711dccbeAa0",
      "value": {
        "_hex": "0x16fc2e998d3da0000"
      },
      "nonce": 1,
      "data": "0x",
      "r": "0x8b45252a8eb147baf26c92dfacbeaa99651114dd192ac22f5f15ee88ae42e8e5",
      "s": "0x4d8663803c7e873eb67e893c12c965411b70109361034c12e814d23fb4e9ed27",
      "v": 28,
      "creates": null,
      "raw": "0xf86e01850d23ee12e283015f9094385e7d962ebd5c8422b3cb9fc6718711dccbeaa089016fc2e998d3da0000801ca08b45252a8eb147baf26c92dfacbeaa99651114dd192ac22f5f15ee88ae42e8e5a04d8663803c7e873eb67e893c12c965411b70109361034c12e814d23fb4e9ed27",
      "networkId": 0,
      "chainId": 0
    }
  ]
}