{
  "hash": "0x68337b5e43cfbd3ceb6c9871084a30ac4cea7bbecb7d4162567efe8b0442c5e6",
  "parentHash": "0x17d7855c7749240bb1db84dacb879ae684328bb3aafb3a0ae9f013e61f1a6e82",
  "number": 97099,
  "timestamp": 1439750748,
  "nonce": "0xac30b243a49cb550",
  "difficulty": 3752256934181,
  "gasLimit": {
    "_hex": "0x2fefd8"
  },
  "gasUsed": {
    "_hex": "0x5208"
  },
  "miner": "0xbb7B8287f3F0a933474a79eAe42CBCa977791171",
  "extraData": "0x476574682f4c5649562f76312e302e312f6c696e75782f676f312e342e32",
  "transactions": [
    {
      "hash": "0x0ce414a378765b77492a579e9740cf83e84356ef511ea65e65dcc53d092ecdcc",
      "blockHash": "0x68337b5e43cfbd3ceb6c9871084a30ac4cea7bbecb7d4162567efe8b0442c5e6",
      "blockNumber": 97099,
      "transactionIndex": 0,
      "confirmations": null,
      "from": "0x32Be343B94f860124dC4fEe278FDCBD38C102D88",
      "gasPrice": {
        "_hex": "0xd11ff3132"
      },
      "gasLimit": {
        "_hex": "0x5208"
      },
      "to": "0xBa18638701c0389D7f4A852e142eDBF84B2F2446",
      "value": {
        "_hex": "0xdd96e8e08b88f800"
      },
      "nonce": 1022,
      "data": "0x",
      "r": "0x1537d85e6a87bc1d1c5f5c0ef9879635b2f2b87ca507a0698cb2820dfe99ff28",
      "s": "0x6b7f65d55b56e196d32c2941d6c9243a65aff38121b4758ab70ace8da0976c03",
      "v": 28,
      "creates": null,
      "raw": "0xf86e8203fe850d11ff313282520894ba18638701c0389d7f4a852e142edbf84b2f244688dd96e8e08b88f800801ca01537d85e6a87bc1d1c5f5c0ef9879635b2f2b87ca507a0698cb2820dfe99ff28a06b7f65d55b56e196d32c2941d6c9243a65aff38121b4758ab70ace8da0976c03",
      "networkId": 0,
      "chainId": 0
    }
  ]
}