{
  "hash": "0x4a93f1fe77472009905088c8670632d71083fac38cc7ac855eddb36c8f49a802",
  "parentHash": "0x248c4bf8f304ca53c0a6042f0bca7e959aeca4cfbcd1fd7a097fbccee5af385a",
  "number": 85220,
  "timestamp": 1439560261,
  "nonce": "0xdb8ece25c37db620",
  "difficulty": 2747757953072,
  "gasLimit": {
    "_hex": "0x2fefd8"
  },
  "gasUsed": {
    "_hex": "0x5208"
  },
  "miner": "0xe6A7a1d47ff21B6321162AEA7C6CB457D5476Bca",
  "extraData": "0x476574682f76312e302e312d38326566323666362f6c696e75782f676f312e34",
  "transactions": [
    {
      "hash": "0x7052e0c3f4a534660ef8e3a4ab216de96ed25dcc028980db0d812c77b0e3c042",
      "blockHash": "0x4a93f1fe77472009905088c8670632d71083fac38cc7ac855eddb36c8f49a802",
      "blockNumber": 85220,
      "transactionIndex": 0,
      "confirmations": null,
      "from": "0x2C3B2AF7a5f5d5066a0aDb4aE3142D2c24CAD77A",
      "gasPrice": {
        "_hex": "0xd83f8a2cf"
      },
      "gasLimit": {
        "_hex": "0x15f90"
      },
      "to": "0x417E4e2688b1Fd66d821529E46ED4F42F8B3db3d",
      "value": {
        "_hex": "0x2386f26fc10000"
      },
      "nonce": 0,
      "data": "0x",
      "r": "0x6f5f94ea8528707ed96c89b20451e7f664dfba50f2f6444e1900d9b16123179a",
      "s": "0x50484e10f850128d444dbdc3286e1c337ea0a93d659fec70717a6e4b82b1097c",
      "v": 27,
      "creates": null,
      "raw": "0xf86c80850d83f8a2cf83015f9094417e4e2688b1fd66d821529e46ed4f42f8b3db3d872386f26fc10000801ba06f5f94ea8528707ed96c89b20451e7f664dfba50f2f6444e1900d9b16123179aa050484e10f850128d444dbdc3286e1c337ea0a93d659fec70717a6e4b82b1097c",
      "networkId": 0,
      "chainId": 0
    }
  ]
}