{
  "hash": "0xf3bd2f43a248fcba0151877a0ac5466839187309c2dc9ce046e13da14dbfc38b",
  "parentHash": "0x79eafb2913eabd3c46bfece1f651981dd562df3880116c54242084ce2eddeabc",
  "number": 55120,
  "timestamp": 1439065629,
  "nonce": "0x9d09ecc4011d2289",
  "difficulty": 1637038919851,
  "gasLimit": {
    "_hex": "0x2fefd8"
  },
  "gasUsed": {
    "_hex": "0xa410"
  },
  "miner": "0xF2d2AfF1320476cb8C6b607199D23175cc595693",
  "extraData": "0x476574682f76312e302e312f77696e646f77732f676f312e342e32",
  "transactions": [
    {
      "hash": "0xfdc9fae441c81a70ae6286c9022070cb71bf6e1dfdd2d41acf70b668e4a998ca",
      "blockHash": "0xf3bd2f43a248fcba0151877a0ac5466839187309c2dc9ce046e13da14dbfc38b",
      "blockNumber": 55120,
      "transactionIndex": 0,
      "confirmations": null,
      "from": "0x71Fe0c3ce24D9eD33E2219f515E485B142ED66fC",
      "gasPrice": {
        "_hex": "0xd68b5c99b"
      },
      "gasLimit": {
        "_hex": "0x5208"
      },
      "to": "0x32Be343B94f860124dC4fEe278FDCBD38C102D88",
      "value": {
        "_hex": "0xf70201bb00780800"
      },
      "nonce": 1,
      "data": "0x",
      "r": "0xed5da15894b53f99bea35f9f585028058d6886e4081d7f527a0af9d4d064e417",
      "s": "0x4e6925b40d74c9951caf6734f28a3e46e0467d2c526e00237bc24a3674424303",
      "v": 28,
      "creates": null,
      "raw": "0xf86c01850d68b5c99b8252089432be343b94f860124dc4fee278fdcbd38c102d8888f70201bb00780800801ca0ed5da15894b53f99bea35f9f585028058d6886e4081d7f527a0af9d4d064e417a04e6925b40d74c9951caf6734f28a3e46e0467d2c526e00237bc24a3674424303",
      "networkId": 0,
      "chainId": 0
    },
    {
      "hash": "0xd09ebf1eca01cafda4403119ac45453cd95518a6ea87453bd06bebc4374e4899",
      "blockHash": "0xf3bd2f43a248fcba0151877a0ac5466839187309c2dc9ce046e13da14dbfc38b",
      "blockNumber": 55120,
      "transactionIndex": 1,
      "confirmations": null,
      "from": "0x6111E933E5e6297DFd0AAd9aAB64017c69062a08",
      "gasPrice": {
        "_hex": "0xd68b5c99b"
      },
      "gasLimit": {
        "_hex": "0x5208"
      },
      "to": "0x32Be343B94f860124dC4fEe278FDCBD38C102D88",
      "value": {
        "_hex": "0x8ac2d70e806c0800"
      },
      "nonce": 3,
      "data": "0x",
      "r": "0x97f1f260256b2da888c76a7cb012afd8cb6e4d1aad91c10c9a2715f0f860f6d2",
      "s": "0x0d295920a9e9f7a44bff114c5d3f62de2ac6a58317956eff097dc583331d32e7",
      "v": 27,
      "creates": null,
      "raw": "0xf86c03850d68b5c99b8252089432be343b94f860124dc4fee278fdcbd38c102d88888ac2d70e806c0800801ba097f1f260256b2da888c76a7cb012afd8cb6e4d1aad91c10c9a2715f0f860f6d2a00d295920a9e9f7a44bff114c5d3f62de2ac6a58317956eff097dc583331d32e7",
      "networkId": 0,
      "chainId": 0
    }
  ]
}