{
  "hash": "0xec4c02b9f1bfe336f2418e8f09d502bc15ca7c4d86cac4256806069876cf920b",
  "parentHash": "0x91f50085c9e986581262a8ba6548ddcf483ee8085985dff37bfd279311de7100",
  "number": 81063,
  "timestamp": 1439495611,
  "nonce": "0x43ab072ac90fa9af",
  "difficulty": 2432020124608,
  "gasLimit": {
    "_hex": "0x2fefd8"
  },
  "gasUsed": {
    "_hex": "0x5208"
  },
  "miner": "0x47ff6576639c2e94762eA5443978D7681C0E78DC",
  "extraData": "0x476574682f76312e302e312f6c696e75782f676f312e342e32",
  "transactions": [
    {
      "hash": "0x6b78714abe221770598ff64a125ccbe7a822f29f611f5a95037f340a11cf6732",
      "blockHash": "0xec4c02b9f1bfe336f2418e8f09d502bc15ca7c4d86cac4256806069876cf920b",
      "blockNumber": 81063,
      "transactionIndex": 0,
      "confirmations": null,
      "from": "0x16919885ae5b483cFFd18E00783c6352297bAFbA",
      "gasPrice": {
        "_hex": "0x746a528800"
      },
      "gasLimit": {
        "_hex": "0x5b04"
      },
      "to": "0xA12E42660746c6a0484965f36D7b4d6a727BDa72",
      "value": {
        "_hex": "0x6f05b59d3b20000"
      },
      "nonce": 4,
      "data": "0x",
      "r": "0x7d006a4f89b3c45b312793a367f4df4777b63cadcb49d6b0e5183addf782f1ae",
      "s": "0xe5d25c07540122b8d5df84278558ba2fca11ebfebcd09af09a79bc533ae57dc9",
      "v": 28,
      "creates": null,
      "raw": "0xf86c0485746a528800825b0494a12e42660746c6a0484965f36d7b4d6a727bda728806f05b59d3b20000801ca07d006a4f89b3c45b312793a367f4df4777b63cadcb49d6b0e5183addf782f1aea0e5d25c07540122b8d5df84278558ba2fca11ebfebcd09af09a79bc533ae57dc9",
      "networkId": 0,
      "chainId": 0
    }
  ]
}