{
  "hash": "0xb9ca0082c979f97837916cde8a0a970c6706ce540c358b579bf45ac96aad6247",
  "parentHash": "0x7ad7bd619265c1c7e12d1d966c8ace1d8d5595c1a72b9db4eca3113f09508177",
  "number": 83469,
  "timestamp": 1439535840,
  "nonce": "0x48565dbf1712be63",
  "difficulty": 2436075996373,
  "gasLimit": {
    "_hex": "0x2fefd8"
  },
  "gasUsed": {
    "_hex": "0x5208"
  },
  "miner": "0xe6A7a1d47ff21B6321162AEA7C6CB457D5476Bca",
  "extraData": "0x476574682f76312e302e312d38326566323666362f6c696e75782f676f312e34",
  "transactions": [
    {
      "hash": "0x5579b669e2420735af63e0f65212cbcaa7c1be4a2d00e27795b87df035e6c769",
      "blockHash": "0xb9ca0082c979f97837916cde8a0a970c6706ce540c358b579bf45ac96aad6247",
      "blockNumber": 83469,
      "transactionIndex": 0,
      "confirmations": null,
      "from": "0x32Be343B94f860124dC4fEe278FDCBD38C102D88",
      "gasPrice": {
        "_hex": "0xded9ceb43"
      },
      "gasLimit": {
        "_hex": "0x5208"
      },
      "to": "0x6FDdbd9BCA66E28765c2162c8433548c1052eD11",
      "value": {
        "_hex": "0x13556da92468440000"
      },
      "nonce": 652,
      "data": "0x",
      "r": "0x1279f28a523dbd317d370bdfb34faa327b9bf48b60387c5e4d68fcc18390b035",
      "s": "0x5c4e2f186f323fee3fc93ac9be4dd502948fbce9eaad75b06d570045ca25d214",
      "v": 28,
      "creates": null,
      "raw": "0xf86f82028c850ded9ceb43825208946fddbd9bca66e28765c2162c8433548c1052ed118913556da92468440000801ca01279f28a523dbd317d370bdfb34faa327b9bf48b60387c5e4d68fcc18390b035a05c4e2f186f323fee3fc93ac9be4dd502948fbce9eaad75b06d570045ca25d214",
      "networkId": 0,
      "chainId": 0
    }
  ]
}