{
  "hash": "0xe29618b3f86e40574dcb883b7dc0dab11073988168b651378bdd546d1aeb1f8d",
  "parentHash": "0x08f695873bf5f61afc10dc40c861e2c5eb9583763980d0c0a3b3abd47130f4e4",
  "number": 108478,
  "timestamp": 1439941206,
  "nonce": "0xef877607551ae180",
  "difficulty": 4310861444471,
  "gasLimit": {
    "_hex": "0x2fefd8"
  },
  "gasUsed": {
    "_hex": "0x5208"
  },
  "miner": "0x0D4EcC7d750180EBf4A9Df728B6669B5Bceb5E40",
  "extraData": "0x",
  "transactions": [
    {
      "hash": "0xa71a15db2e2b1146921d3b1412d0a506fa199b35a7e6b46e7c3e8b7f8b89557a",
      "blockHash": "0xe29618b3f86e40574dcb883b7dc0dab11073988168b651378bdd546d1aeb1f8d",
      "blockNumber": 108478,
      "transactionIndex": 0,
      "confirmations": null,
      "from": "0xb42D03A56826959eFF8FCe23096dd8e2409B2ea8",
      "gasPrice": {
        "_hex": "0xba43b7400"
      },
      "gasLimit": {
        "_hex": "0x5208"
      },
      "to": "0xC47Aaa860008be6f65B58c6C6E02a84e666EfE31",
      "value": {
        "_hex": "0x168f4a9652dd8f0"
      },
      "nonce": 0,
      "data": "0x",
      "r": "0x33ae74b415d5fb9102ce0192b7bf1d29c56d81fac0020ba96c38841103ca9fb7",
      "s": "0x14cc71d8e64aa42b50a18fb2b45fdee4550990dbeda9cfdbbdadd149574c278c",
      "v": 27,
      "creates": null,
      "raw": "0xf86c80850ba43b740082520894c47aaa860008be6f65b58c6c6e02a84e666efe31880168f4a9652dd8f0801ba033ae74b415d5fb9102ce0192b7bf1d29c56d81fac0020ba96c38841103ca9fb7a014cc71d8e64aa42b50a18fb2b45fdee4550990dbeda9cfdbbdadd149574c278c",
      "networkId": 0,
      "chainId": 0
    }
  ]
}