{
  "hash": "0x9f4f440623b70b532a111f9865e17bfa8032bccf23ca045fb16f48aada60ed5c",
  "parentHash": "0x7898d0eaede4eda17032d2ee9b13ed9ed66c0fdd111a6972c2c2075abe4ceaa5",
  "number": 100480,
  "timestamp": 1439807096,
  "nonce": "0xe0c684b695cfc018",
  "difficulty": 3830328450489,
  "gasLimit": {
    "_hex": "0x2fefd8"
  },
  "gasUsed": {
    "_hex": "0x5208"
  },
  "miner": "0xC603Ab5ef41fC61AA8b76bEddb09e3Cfcbb174BD",
  "extraData": "0x476574682f76312e302e312f77696e646f77732f676f312e342e32",
  "transactions": [
    {
      "hash": "0x7ea9b978083f003971b989581d967b90259eea4cc9cbab90e098d24fb962c3f3",
      "blockHash": "0x9f4f440623b70b532a111f9865e17bfa8032bccf23ca045fb16f48aada60ed5c",
      "blockNumber": 100480,
      "transactionIndex": 0,
      "confirmations": null,
      "from": "0xB415e74b9b5B2058EF3541265aaF7ce09C4953bc",
      "gasPrice": {
        "_hex": "0xcb464fc68"
      },
      "gasLimit": {
        "_hex": "0x5208"
      },
      "to": "0x32Be343B94f860124dC4fEe278FDCBD38C102D88",
      "value": {
        "_hex": "0x6421c17a85d8e400"
      },
      "nonce": 6,
      "data": "0x",
      "r": "0x939f326ac4fd2404f18326ffa71bbf0f3d727f6ed5bf7e2b6d33ea32a942d957",
      "s": "0x03002cdfa286f2c892f5660d76606ed36ea79659c3e41d3532e3004dc046071b",
      "v": 28,
      "creates": null,
      "raw": "0xf86c06850cb464fc688252089432be343b94f860124dc4fee278fdcbd38c102d88886421c17a85d8e400801ca0939f326ac4fd2404f18326ffa71bbf0f3d727f6ed5bf7e2b6d33ea32a942d957a003002cdfa286f2c892f5660d76606ed36ea79659c3e41d3532e3004dc046071b",
      "networkId": 0,
      "chainId": 0
    }
  ]
}