{
  "hash": "0x5e20a54a8039218f2f4391b6cc724f37399236697e04f6d7023b910ba5eebddc",
  "parentHash": "0xce5db5a06dee0a22ec392b81a543e95672051f79d3dcc3b5db4eb845b9389d33",
  "number": 48715,
  "timestamp": 1438961753,
  "nonce": "0x21e669335d9a0c12",
  "difficulty": 1475020859558,
  "gasLimit": {
    "_hex": "0x1ca2c"
  },
  "gasUsed": {
    "_hex": "0xa8d8"
  },
  "miner": "0x88D74a59454F6cF3B51ef6b9136AFb6b9D405A88",
  "extraData": "0x476574682f76312e302e302d66633739643332642f6c696e75782f676f312e34",
  "transactions": [
    {
      "hash": "0x8e37dabd5f2bc3237e0a977cee1e819fd81c99888ba370c9c70be53391b5c8ba",
      "blockHash": "0x5e20a54a8039218f2f4391b6cc724f37399236697e04f6d7023b910ba5eebddc",
      "blockNumber": 48715,
      "transactionIndex": 0,
      "confirmations": null,
      "from": "0x305f78d618b990B4295bAC8a2DfA262884f804Ea",
      "gasPrice": {
        "_hex": "0x110c8f7d8de"
      },
      "gasLimit": {
        "_hex": "0xc350"
      },
      "to": "0x2910543Af39abA0Cd09dBb2D50200b3E800A63D2",
      "value": {
        "_hex": "0x8ac7230489e80000"
      },
      "nonce": 0,
      "data": "0x454e395a524d554e47",
      "r": "0x6f4a1601c9dbca40fd729b955b818e773bda15fb155d99e7b39d9276e25585a8",
      "s": "0xe29603dc8eef8c769bc9abc8cea5f26c4fcfbac612da5839bab8106fad1ad80c",
      "v": 28,
      "creates": null,
      "raw": "0xf87680860110c8f7d8de82c350942910543af39aba0cd09dbb2d50200b3e800a63d2888ac7230489e8000089454e395a524d554e471ca06f4a1601c9dbca40fd729b955b818e773bda15fb155d99e7b39d9276e25585a8a0e29603dc8eef8c769bc9abc8cea5f26c4fcfbac612da5839bab8106fad1ad80c",
      "networkId": 0,
      "chainId": 0
    },
    {
      "hash": "0xa810b72ed7f7abed1ed9129b4c7c370269608929162abbdf8de7bbc48de35d1f",
      "blockHash": "0x5e20a54a8039218f2f4391b6cc724f37399236697e04f6d7023b910ba5eebddc",
      "blockNumber": 48715,
      "transactionIndex": 1,
      "confirmations": null,
      "from": "0x2dd325FDfFB97B19995284aFA5abDB574a1Df16a",
      "gasPrice": {
        "_hex": "0x110c8f7d8de"
      },
      "gasLimit": {
        "_hex": "0xc350"
      },
      "to": "0x2910543Af39abA0Cd09dBb2D50200b3E800A63D2",
      "value": {
        "_hex": "0x56bc75e2d63100000"
      },
      "nonce": 1,
      "data": "0x454e4d433644503147",
      "r": "0xbb5877aec13b3b4ce3cdaf281905a639fadc59e204f0d86aabe0cd29e3ef753f",
      "s": "0x18efeb3ca8975c319c457b75589e3b40a051a0aacc67f4c3087fad35023d0bc2",
      "v": 28,
      "creates": null,
      "raw": "0xf87701860110c8f7d8de82c350942910543af39aba0cd09dbb2d50200b3e800a63d289056bc75e2d6310000089454e4d4336445031471ca0bb5877aec13b3b4ce3cdaf281905a639fadc59e204f0d86aabe0cd29e3ef753fa018efeb3ca8975c319c457b75589e3b40a051a0aacc67f4c3087fad35023d0bc2",
      "networkId": 0,
      "chainId": 0
    }
  ]
}