{
  "hash": "0x18f020d39f33c77a901f1a16f2e4d7a74af4807f0b764f20b851106c664e97b3",
  "parentHash": "0x4f81ca3834e1677cc71171d3f474e741969fdce2a8685c5c179a1d20eedcdc85",
  "number": 121905,
  "timestamp": 1440184691,
  "nonce": "0xd067573d463c655d",
  "difficulty": 4481978054008,
  "gasLimit": {
    "_hex": "0x2fefd8"
  },
  "gasUsed": {
    "_hex": "0xf618"
  },
  "miner": "0x87cD3b7f4DBBFE553DB92Ac1C97c6C24231c5D26",
  "extraData": "0x476574682f76312e302e322f6c696e75782f676f312e342e32",
  "transactions": [
    {
      "hash": "0x3e2e808bca0de4755f2bbde1cc8b6f97b288a0775cbbaa0aaf679d9f8006090e",
      "blockHash": "0x18f020d39f33c77a901f1a16f2e4d7a74af4807f0b764f20b851106c664e97b3",
      "blockNumber": 121905,
      "transactionIndex": 0,
      "confirmations": null,
      "from": "0x0912001e29BbaF75C23069A22D9B9602BE86FEB7",
      "gasPrice": {
        "_hex": "0xe038f3b5e"
      },
      "gasLimit": {
        "_hex": "0x5208"
      },
      "to": "0x32Be343B94f860124dC4fEe278FDCBD38C102D88",
      "value": {
        "_hex": "0x625d20626afedc000"
      },
      "nonce": 12,
      "data": "0x",
      "r": "0xd6bb42ab6f25be3ece4c06fa3a7ee04b658009ff751e387b5ed0a91c05b500f6",
      "s": "0x090dae9392d29e7dfa30ffec3bbe2ea1e254ebb2da208528556d9f94b3888807",
      "v": 28,
      "creates": null,
      "raw": "0xf86d0c850e038f3b5e8252089432be343b94f860124dc4fee278fdcbd38c102d88890625d20626afedc000801ca0d6bb42ab6f25be3ece4c06fa3a7ee04b658009ff751e387b5ed0a91c05b500f6a0090dae9392d29e7dfa30ffec3bbe2ea1e254ebb2da208528556d9f94b3888807",
      "networkId": 0,
      "chainId": 0
    },
    {
      "hash": "0xceb16bd7401a87752889bfc9a221c1584095de19ccc0777590962e9be852c4af",
      "blockHash": "0x18f020d39f33c77a901f1a16f2e4d7a74af4807f0b764f20b851106c664e97b3",
      "blockNumber": 121905,
      "transactionIndex": 1,
      "confirmations": null,
      "from": "0x1Fab7BE036A5C6A69b2B05D6e172FF4e5b2a5e6B",
      "gasPrice": {
        "_hex": "0xe038f3b5e"
      },
      "gasLimit": {
        "_hex": "0x5208"
      },
      "to": "0x32Be343B94f860124dC4fEe278FDCBD38C102D88",
      "value": {
        "_hex": "0x15f9f4c01fb084000"
      },
      "nonce": 12,
      "data": "0x",
      "r": "0x36c95938b8d5f205a178d4ef1bc9ba90419aee18df0abbe140f76d192b6661d8",
      "s": "0x61d4fc638d487a9353fb5dffd6d06ae1be9af8b88363eb8e370072aa5d345006",
      "v": 28,
      "creates": null,
      "raw": "0xf86d0c850e038f3b5e8252089432be343b94f860124dc4fee278fdcbd38c102d8889015f9f4c01fb084000801ca036c95938b8d5f205a178d4ef1bc9ba90419aee18df0abbe140f76d192b6661d8a061d4fc638d487a9353fb5dffd6d06ae1be9af8b88363eb8e370072aa5d345006",
      "networkId": 0,
      "chainId": 0
    },
    {
      "hash": "0x3949a3a73ab1d493834bbfb1d2344226b29576517bb4614823ecc82f5c449151",
      "blockHash": "0x18f020d39f33c77a901f1a16f2e4d7a74af4807f0b764f20b851106c664e97b3",
      "blockNumber": 121905,
      "transactionIndex": 2,
      "confirmations": null,
      "from": "0x5361368eAf92E9Af8728969Ac24daca20356Aa93",
      "gasPrice": {
        "_hex": "0xd8364fc25"
      },
      "gasLimit": {
        "_hex": "0x15f90"
      },
      "to": "0x85792D2e8c48b8c2388bC027Dc45DdA07a351039",
      "value": {
        "_hex": "0x2386f26fc10000"
      },
      "nonce": 0,
      "data": "0x",
      "r": "0xcd70ab36cd629a4d8b4d5d7f7f553395ae3385dc3b472cc07c56ecc2cbe0df77",
      "s": "0x157f3b162beadbed3947241fd21b685237930d7733aee807b612b7d1d2b62c3f",
      "v": 27,
      "creates": null,
      "raw": "0xf86c80850d8364fc2583015f909485792d2e8c48b8c2388bc027dc45dda07a351039872386f26fc10000801ba0cd70ab36cd629a4d8b4d5d7f7f553395ae3385dc3b472cc07c56ecc2cbe0df77a0157f3b162beadbed3947241fd21b685237930d7733aee807b612b7d1d2b62c3f",
      "networkId": 0,
      "chainId": 0
    }
  ]
}