{
  "hash": "0xdb292c9f287b0247f0d106e727b0ddbee009c8005f643e035fd5ad823b18a106",
  "parentHash": "0xdef7e2c01a86b506115456c2dafc6e33aa6e24488085c3e6333e4ad81cbb89d9",
  "number": 102220,
  "timestamp": 1439834677,
  "nonce": "0x6bb13acb15d7f96b",
  "difficulty": 3928013234041,
  "gasLimit": {
    "_hex": "0x2fefd8"
  },
  "gasUsed": {
    "_hex": "0x261ce"
  },
  "miner": "0xe6A7a1d47ff21B6321162AEA7C6CB457D5476Bca",
  "extraData": "0x476574682f76312e302e312d38326566323666362f6c696e75782f676f312e34",
  "transactions": [
    {
      "hash": "0x57bd56a00bbc80782c912bd684526407b61893cd19335c6c3622c58f71199f56",
      "blockHash": "0xdb292c9f287b0247f0d106e727b0ddbee009c8005f643e035fd5ad823b18a106",
      "blockNumber": 102220,
      "transactionIndex": 0,
      "confirmations": null,
      "from": "0x0ED863A5E14A9946ae8EF2bcDDc9dE06360C2A62",
      "gasPrice": {
        "_hex": "0xd8364fc25"
      },
      "gasLimit": {
        "_hex": "0x249f0"
      },
      "to": "0xE28e72FCf78647ADCe1F1252F240bbfaebD63BcC",
      "value": {
        "_hex": "0x6f05b59d3b20000"
      },
      "nonce": 0,
      "data": "0x45466f3a",
      "r": "0xbc58e0149471ae6bf3345b6c9fba5f5b08e8227ab6ac7fb9ef7256eae7278c26",
      "s": "0x7be3e312249fa42fe47af49c4c45b5e270b7ebb80aee01b8ecdc9c56fd3b4f26",
      "v": 28,
      "creates": null,
      "raw": "0xf87180850d8364fc25830249f094e28e72fcf78647adce1f1252f240bbfaebd63bcc8806f05b59d3b200008445466f3a1ca0bc58e0149471ae6bf3345b6c9fba5f5b08e8227ab6ac7fb9ef7256eae7278c26a07be3e312249fa42fe47af49c4c45b5e270b7ebb80aee01b8ecdc9c56fd3b4f26",
      "networkId": 0,
      "chainId": 0
    },
    {
      "hash": "0xd80ffe9650f8ed183624d709029c1b6f3281ab6b72edd9512822a9998d9e8743",
      "blockHash": "0xdb292c9f287b0247f0d106e727b0ddbee009c8005f643e035fd5ad823b18a106",
      "blockNumber": 102220,
      "transactionIndex": 1,
      "confirmations": null,
      "from": "0xa70a9a7040d542C632D8e0bE7c5513A8a5Bbc752",
      "gasPrice": {
        "_hex": "0xd5e913ca9"
      },
      "gasLimit": {
        "_hex": "0x5208"
      },
      "to": "0x32Be343B94f860124dC4fEe278FDCBD38C102D88",
      "value": {
        "_hex": "0x457f3bb9d5b9e800"
      },
      "nonce": 218,
      "data": "0x",
      "r": "0x3e98d1f57e6da425dfbb19ea4ec1ebd8220908238f82b9b919d258baeffef503",
      "s": "0x06a1cc41c0ec59fcefe1c7df3b6549f19f7b1f8ef1c338f2f9c11f81e6e2093d",
      "v": 27,
      "creates": null,
      "raw": "0xf86d81da850d5e913ca98252089432be343b94f860124dc4fee278fdcbd38c102d8888457f3bb9d5b9e800801ba03e98d1f57e6da425dfbb19ea4ec1ebd8220908238f82b9b919d258baeffef503a006a1cc41c0ec59fcefe1c7df3b6549f19f7b1f8ef1c338f2f9c11f81e6e2093d",
      "networkId": 0,
      "chainId": 0
    },
    {
      "hash": "0x680e3b0db30d32ca871be790eca9095274f6caa3c22408bfb64195019a0fe6f9",
      "blockHash": "0xdb292c9f287b0247f0d106e727b0ddbee009c8005f643e035fd5ad823b18a106",
      "blockNumber": 102220,
      "transactionIndex": 2,
      "confirmations": null,
      "from": "0xb1abce2918E21ddb93AA452731a12672A3d9F75a",
      "gasPrice": {
        "_hex": "0xd5e913ca9"
      },
      "gasLimit": {
        "_hex": "0x5208"
      },
      "to": "0x32Be343B94f860124dC4fEe278FDCBD38C102D88",
      "value": {
        "_hex": "0x8ac2da50090ce000"
      },
      "nonce": 101,
      "data": "0x",
      "r": "0xaa7aef818d0138ed775ff76127e7347c1577ee3ac556a131a478a07df286b9af",
      "s": "0x71da842718f45b8515abfd83e0560725454889225780d7bdf7b5060812714a5f",
      "v": 28,
      "creates": null,
      "raw": "0xf86c65850d5e913ca98252089432be343b94f860124dc4fee278fdcbd38c102d88888ac2da50090ce000801ca0aa7aef818d0138ed775ff76127e7347c1577ee3ac556a131a478a07df286b9afa071da842718f45b8515abfd83e0560725454889225780d7bdf7b5060812714a5f",
      "networkId": 0,
      "chainId": 0
    }
  ]
}