{
  "hash": "0x277377706779d6f0d956456d2c9961722673fe7ffbdd365e6ab1ff70efea4143",
  "parentHash": "0x31dc39234dd6fd152e9515daa2e033314234fad39b48df822e0240a68475aa55",
  "number": 48134,
  "timestamp": 1438951986,
  "nonce": "0x6cd4286e576787f8",
  "difficulty": 1467221238868,
  "gasLimit": {
    "_hex": "0x12d06"
  },
  "gasUsed": {
    "_hex": "0x5208"
  },
  "miner": "0xE13f83e0288E460362D9E7421f0601fB88C4fd91",
  "extraData": "0x476574682f76312e302e312f6c696e75782f676f312e342e32",
  "transactions": [
    {
      "hash": "0x6237073fde3a5ac64b2962fd0e0de13e4b4af8b6f1a6e5c7730a2eac0ad0a99f",
      "blockHash": "0x277377706779d6f0d956456d2c9961722673fe7ffbdd365e6ab1ff70efea4143",
      "blockNumber": 48134,
      "transactionIndex": 0,
      "confirmations": null,
      "from": "0x17dF49518D73b129F0DA36b1c9B40CB66420FDc7",
      "gasPrice": {
        "_hex": "0xda137aee3"
      },
      "gasLimit": {
        "_hex": "0x61a8"
      },
      "to": "0x4319c276D263FDd9156052Bb78B548E6ED740a86",
      "value": {
        "_hex": "0x6c6b935b8bbd400000"
      },
      "nonce": 1,
      "data": "0x",
      "r": "0x21e3a40aec08966f57032feff710a54ef081384edfdcb5dc0dfccbabfd93afba",
      "s": "0x456a464378ab22c76bd9181d5bcaa51a31c6aeb103db7726e028ec9121fca7a0",
      "v": 28,
      "creates": null,
      "raw": "0xf86d01850da137aee38261a8944319c276d263fdd9156052bb78b548e6ed740a86896c6b935b8bbd400000801ca021e3a40aec08966f57032feff710a54ef081384edfdcb5dc0dfccbabfd93afbaa0456a464378ab22c76bd9181d5bcaa51a31c6aeb103db7726e028ec9121fca7a0",
      "networkId": 0,
      "chainId": 0
    }
  ]
}