{
  "hash": "0x26afbf5b3c2766a4d8db753f187cba385c7da121d3c93285e9da959f226aae9e",
  "parentHash": "0xf0d657c4a641d87f2898bf94f4828efba7d195fd56ac3f2476bdad840aeba603",
  "number": 73375,
  "timestamp": 1439368271,
  "nonce": "0xb404b75c5d40c651",
  "difficulty": 2197015062982,
  "gasLimit": {
    "_hex": "0x2fefd8"
  },
  "gasUsed": {
    "_hex": "0x874de"
  },
  "miner": "0x9746c7e1ef2bd21FF3997fa467593a89cb852BD0",
  "extraData": "0x476574682f76312e302e312f77696e646f77732f676f312e342e32",
  "transactions": [
    {
      "hash": "0xd9321d39baabf5f994ac184157c402b5de6ffa6a710d93f9a2a7d16436c62445",
      "blockHash": "0x26afbf5b3c2766a4d8db753f187cba385c7da121d3c93285e9da959f226aae9e",
      "blockNumber": 73375,
      "transactionIndex": 0,
      "confirmations": null,
      "from": "0x87C5B5874A18B4306DF8a752a6C8cc3E82daFc19",
      "gasPrice": {
        "_hex": "0x108bf2ea3f8"
      },
      "gasLimit": {
        "_hex": "0xf4240"
      },
      "to": null,
      "value": {
        "_hex": "0x0"
      },
      "nonce": 5,
      "data": "0x60606040526000805433600160a060020a031991821681178355600180549092161790556106dd90819061003390396000f300606060405236156100cf5760e060020a600035046303750d9481146100d157806306b5f02d146100f75780630d1fce42146101155780630e1da6c3146101275780630f06670a146101345780632d9a37d3146101635780632e1a7d4d1461017d5780632fac1d36146101a057806355b775ea146101d0578063839930ba146101f35780638d21618614610204578063a094a0311461023c578063add4c7841461024a578063bd66528a14610279578063cb96012e146102a9578063d8389dc5146102ba578063da932856146102d7575b005b6100cf600435602435600154600160a060020a0390811633919091161461035c57610358565b6103036004356024355b606460628302046101000281900492915050565b61030330600160a060020a0316315b90565b6100cf60006106b06102db565b610303600435600160a060020a033316600090815260026020526040812060048101548214156104c25761046f565b6103035b606430600160a060020a03163160050204610124565b6100cf600435600054600160a060020a0390811633919091161461031557610336565b6103036004355b600160a060020a0381166000908152600260205260408120600481015482141561046a5761046f565b6100cf600435600054600160a060020a039081163391909116146106bb57610336565b610303678ac7230489e80000610124565b6100cf600435602435600182108061021c575060ff82115b8061022e5750678ac7230489e8000034105b8061042e5750610459610167565b6103036000610463336101a7565b610303600435600160a060020a033316600090815260026020526040812060048101548214156104755761046f565b6100cf600435600160a060020a03331660009081526002602052604081206004810154909114156105b657610358565b6103036004355b60ff81165b919050565b6103036004356040805182815290519081900360200190206102b5565b6103035b600160a060020a03331660009081526002602052604081206004810154821461062f5761062b565b60408051918252519081900360200190f35b60405160008054600160a060020a031691839082818181858883f150505050505b50565b600160a060020a03821660009081526002602052604090206004018190555b5050565b600160a060020a0382166000908152600260205260408120600401541461033957610358565b6040805160a081018252348082526020828101868152438486018181526060868101898152600060808901818152600160a060020a0333168083526002808a52928c90209a518b55965160018b0155935190890155516003880155905160049690960195909555855190815291820192909252808401869052925190927f97371a3349bea11f577edf6e64350a3dfb9de665d1154c7e6d08eb0805aa043092908290030190a25050565b115b1561038257604051600160a060020a03331690600090349082818181858883f1935050505050610358565b61042c3484610101565b9050610124565b600191505b50919050565b6040805160038301548582529151908190036020019020146104965761046f565b604080516004830154858252602082015281519081900390910190206104bb906102b0565b915061046f565b6040805160038301548582529151908190036020019020146104e35761046f565b60408051600183015460048401548683526020830152825191829003909201902061050d906102b0565b101561051c576001915061046f565b6000915061046f565b6040516000818181858888f15084546001860154908252602082015260408051600160a060020a03331695507ffdc49939175858b2bb557093a7d52fa6b6f3aad917d282d61758fab4805f102a945091829003019150a25b600160a060020a033316600090815260026020819052604082208281556001810183905590810182905560038101829055600401555050565b6040805160038301548482529151908190036020019020146105d757610358565b604080516001830154600484015485835260208301528251918290039092019020610601906102b0565b101561057d5780546001820154600160a060020a033316916000916105259190610101565b600191505b5090565b805460009011610642576000915061062b565b6002810154601401431015610626576000915061062b565b50600160a060020a03331660008181526002602052604080822080549151909392919082818181858883f15050509081526002602081905281835560018301829055820181905560038201819055600482015550565b151561065a57610336565b6001805473ffffffffffffffffffffffffffffffffffffffff1916821790555056",
      "r": "0xf8cc71dc9eca2aba6d6ba8078d3715b573aa4464a00d3ad4d7d3772a761855fa",
      "s": "0x3a8865435f7166ea51753b6c98fe58ad2ba6563ac81554e39a9145f23ed5c30a",
      "v": 28,
      "creates": "0xDf595d10E76EffaBB38FB3ddFAF89a4Bd50Acf0f",
      "raw": "0xf9076405860108bf2ea3f8830f42408080b9071060606040526000805433600160a060020a031991821681178355600180549092161790556106dd90819061003390396000f300606060405236156100cf5760e060020a600035046303750d9481146100d157806306b5f02d146100f75780630d1fce42146101155780630e1da6c3146101275780630f06670a146101345780632d9a37d3146101635780632e1a7d4d1461017d5780632fac1d36146101a057806355b775ea146101d0578063839930ba146101f35780638d21618614610204578063a094a0311461023c578063add4c7841461024a578063bd66528a14610279578063cb96012e146102a9578063d8389dc5146102ba578063da932856146102d7575b005b6100cf600435602435600154600160a060020a0390811633919091161461035c57610358565b6103036004356024355b606460628302046101000281900492915050565b61030330600160a060020a0316315b90565b6100cf60006106b06102db565b610303600435600160a060020a033316600090815260026020526040812060048101548214156104c25761046f565b6103035b606430600160a060020a03163160050204610124565b6100cf600435600054600160a060020a0390811633919091161461031557610336565b6103036004355b600160a060020a0381166000908152600260205260408120600481015482141561046a5761046f565b6100cf600435600054600160a060020a039081163391909116146106bb57610336565b610303678ac7230489e80000610124565b6100cf600435602435600182108061021c575060ff82115b8061022e5750678ac7230489e8000034105b8061042e5750610459610167565b6103036000610463336101a7565b610303600435600160a060020a033316600090815260026020526040812060048101548214156104755761046f565b6100cf600435600160a060020a03331660009081526002602052604081206004810154909114156105b657610358565b6103036004355b60ff81165b919050565b6103036004356040805182815290519081900360200190206102b5565b6103035b600160a060020a03331660009081526002602052604081206004810154821461062f5761062b565b60408051918252519081900360200190f35b60405160008054600160a060020a031691839082818181858883f150505050505b50565b600160a060020a03821660009081526002602052604090206004018190555b5050565b600160a060020a0382166000908152600260205260408120600401541461033957610358565b6040805160a081018252348082526020828101868152438486018181526060868101898152600060808901818152600160a060020a0333168083526002808a52928c90209a518b55965160018b0155935190890155516003880155905160049690960195909555855190815291820192909252808401869052925190927f97371a3349bea11f577edf6e64350a3dfb9de665d1154c7e6d08eb0805aa043092908290030190a25050565b115b1561038257604051600160a060020a03331690600090349082818181858883f1935050505050610358565b61042c3484610101565b9050610124565b600191505b50919050565b6040805160038301548582529151908190036020019020146104965761046f565b604080516004830154858252602082015281519081900390910190206104bb906102b0565b915061046f565b6040805160038301548582529151908190036020019020146104e35761046f565b60408051600183015460048401548683526020830152825191829003909201902061050d906102b0565b101561051c576001915061046f565b6000915061046f565b6040516000818181858888f15084546001860154908252602082015260408051600160a060020a03331695507ffdc49939175858b2bb557093a7d52fa6b6f3aad917d282d61758fab4805f102a945091829003019150a25b600160a060020a033316600090815260026020819052604082208281556001810183905590810182905560038101829055600401555050565b6040805160038301548482529151908190036020019020146105d757610358565b604080516001830154600484015485835260208301528251918290039092019020610601906102b0565b101561057d5780546001820154600160a060020a033316916000916105259190610101565b600191505b5090565b805460009011610642576000915061062b565b6002810154601401431015610626576000915061062b565b50600160a060020a03331660008181526002602052604080822080549151909392919082818181858883f15050509081526002602081905281835560018301829055820181905560038201819055600482015550565b151561065a57610336565b6001805473ffffffffffffffffffffffffffffffffffffffff19168217905550561ca0f8cc71dc9eca2aba6d6ba8078d3715b573aa4464a00d3ad4d7d3772a761855faa03a8865435f7166ea51753b6c98fe58ad2ba6563ac81554e39a9145f23ed5c30a",
      "networkId": 0,
      "chainId": 0
    },
    {
      "hash": "0xab4d85b0aab3340d92238b253f0246d82151899c55341c011cffc9010de7369e",
      "blockHash": "0x26afbf5b3c2766a4d8db753f187cba385c7da121d3c93285e9da959f226aae9e",
      "blockNumber": 73375,
      "transactionIndex": 1,
      "confirmations": null,
      "from": "0x2159240813A73095a7Ebf7C3b3743e8028aE5f09",
      "gasPrice": {
        "_hex": "0xdf799f129"
      },
      "gasLimit": {
        "_hex": "0x15f90"
      },
      "to": "0xD41dBAC94e7B5d3aCDc4B6FFf6FC5Af9Cd60578a",
      "value": {
        "_hex": "0xde0b6b3a7640000"
      },
      "nonce": 4,
      "data": "0x",
      "r": "0x091da2f72affd273e33a6b4bc3104879855392b16d134458529b45534421f5bd",
      "s": "0x2ee6d546c39ebae45c4fac520195e6f5e7dcab022f1268cb3327233840afab7e",
      "v": 27,
      "creates": null,
      "raw": "0xf86d04850df799f12983015f9094d41dbac94e7b5d3acdc4b6fff6fc5af9cd60578a880de0b6b3a7640000801ba0091da2f72affd273e33a6b4bc3104879855392b16d134458529b45534421f5bda02ee6d546c39ebae45c4fac520195e6f5e7dcab022f1268cb3327233840afab7e",
      "networkId": 0,
      "chainId": 0
    }
  ]
}