{
  "hash": "0x1ab5368ff651a64ea9b58360b76663f425c843e1dcff333ea6a6d319eddefa57",
  "parentHash": "0x4ec60b385e586e7ec0d616aa28a0efee151a8c63038cd5b1b278af342193f99c",
  "number": 48712,
  "timestamp": 1438961632,
  "nonce": "0x9fc722fb94e95a13",
  "difficulty": 1477183646397,
  "gasLimit": {
    "_hex": "0x1c97c"
  },
  "gasUsed": {
    "_hex": "0x1a154"
  },
  "miner": "0x24339341F29d2aaD7d3c591c0f9931e7D4bFEd6e",
  "extraData": "0x476574682f76312e302e312f6c696e75782f676f312e342e32",
  "transactions": [
    {
      "hash": "0x9713ba542770e3567550555f5b496558c233490b8c43deff72c20ad59850a569",
      "blockHash": "0x1ab5368ff651a64ea9b58360b76663f425c843e1dcff333ea6a6d319eddefa57",
      "blockNumber": 48712,
      "transactionIndex": 0,
      "confirmations": null,
      "from": "0xe44ea51063405154AAE736Be2BF1Ee3B9BE639ae",
      "gasPrice": {
        "_hex": "0x110c8f7d8de"
      },
      "gasLimit": {
        "_hex": "0xc350"
      },
      "to": "0x2910543Af39abA0Cd09dBb2D50200b3E800A63D2",
      "value": {
        "_hex": "0xbd317abd3001480000"
      },
      "nonce": 1,
      "data": "0x454e52435736594147",
      "r": "0x91a0683e56431076a420bcd4f8401c45b2ec06cc77167fdd47d8ba9ef94ebf54",
      "s": "0x841a11e090008343c7d252ee473134de37461a9a0b7af6f77ea0abaa4f270374",
      "v": 27,
      "creates": null,
      "raw": "0xf87701860110c8f7d8de82c350942910543af39aba0cd09dbb2d50200b3e800a63d289bd317abd300148000089454e524357365941471ba091a0683e56431076a420bcd4f8401c45b2ec06cc77167fdd47d8ba9ef94ebf54a0841a11e090008343c7d252ee473134de37461a9a0b7af6f77ea0abaa4f270374",
      "networkId": 0,
      "chainId": 0
    },
    {
      "hash": "0xf83023a7fdd05e48af34ec89869b16a585ffeb5f0d2b7b00fe7934825dd487e4",
      "blockHash": "0x1ab5368ff651a64ea9b58360b76663f425c843e1dcff333ea6a6d319eddefa57",
      "blockNumber": 48712,
      "transactionIndex": 1,
      "confirmations": null,
      "from": "0x9c344098BA615A398F11D009905b177C44a7b602",
      "gasPrice": {
        "_hex": "0x10e43e3b6f8"
      },
      "gasLimit": {
        "_hex": "0x15f90"
      },
      "to": "0xFe0412b699317daB06160e62f01A9dB95A261143",
      "value": {
        "_hex": "0xad78ebc5ac6200000"
      },
      "nonce": 6,
      "data": "0x",
      "r": "0xd4de224a7d2188a1ece3f84200813c447d95f19ac2b782dee7d1a0d3697ac5ca",
      "s": "0x313a93c8cf8fc02ff20d1adf583cb8611ec70219026722a7d8344e54eab8a20a",
      "v": 28,
      "creates": null,
      "raw": "0xf86f0686010e43e3b6f883015f9094fe0412b699317dab06160e62f01a9db95a261143890ad78ebc5ac6200000801ca0d4de224a7d2188a1ece3f84200813c447d95f19ac2b782dee7d1a0d3697ac5caa0313a93c8cf8fc02ff20d1adf583cb8611ec70219026722a7d8344e54eab8a20a",
      "networkId": 0,
      "chainId": 0
    },
    {
      "hash": "0x8372a5e3f92e483ee21480dc59995ba3dbfb6c9e919b6e19561d45b14084eb4d",
      "blockHash": "0x1ab5368ff651a64ea9b58360b76663f425c843e1dcff333ea6a6d319eddefa57",
      "blockNumber": 48712,
      "transactionIndex": 2,
      "confirmations": null,
      "from": "0xE4Dd37247830493DE1Df7c758DD746DCdE19419e",
      "gasPrice": {
        "_hex": "0xd904e03ef"
      },
      "gasLimit": {
        "_hex": "0x7530"
      },
      "to": "0x2910543Af39abA0Cd09dBb2D50200b3E800A63D2",
      "value": {
        "_hex": "0x46419ced7f6a40000"
      },
      "nonce": 2,
      "data": "0x454e52315751343752",
      "r": "0x1b69a7037245af9d349e8714e205f5001896983c2b7c80be802c6f84a73adaaa",
      "s": "0x52de234b5f33de040b8c4e3065926ccb83878f2962e0f80966725e96c15aff4a",
      "v": 27,
      "creates": null,
      "raw": "0xf87602850d904e03ef827530942910543af39aba0cd09dbb2d50200b3e800a63d289046419ced7f6a4000089454e523157513437521ba01b69a7037245af9d349e8714e205f5001896983c2b7c80be802c6f84a73adaaaa052de234b5f33de040b8c4e3065926ccb83878f2962e0f80966725e96c15aff4a",
      "networkId": 0,
      "chainId": 0
    },
    {
      "hash": "0xe6127ab9fe64bef788b04d71c5b948ec96372c637dbd88fee5802d1caf6b106d",
      "blockHash": "0x1ab5368ff651a64ea9b58360b76663f425c843e1dcff333ea6a6d319eddefa57",
      "blockNumber": 48712,
      "transactionIndex": 3,
      "confirmations": null,
      "from": "0x2B5F4B3f1E11707A227Aa5e69fa49ddeD33fB321",
      "gasPrice": {
        "_hex": "0xcfb641f9f"
      },
      "gasLimit": {
        "_hex": "0x55f0"
      },
      "to": "0x2910543Af39abA0Cd09dBb2D50200b3E800A63D2",
      "value": {
        "_hex": "0x14534d95bef905c0000"
      },
      "nonce": 0,
      "data": "0x454e3756465a343052",
      "r": "0x799ee4ed5454b4482599e2f7abca45de729dac7243af9602c5caf6ce0d172912",
      "s": "0x3fd63c6a53178b213f8aefcc4cdd3bfc4278cddafe15d214d148fb92b9515b6e",
      "v": 27,
      "creates": null,
      "raw": "0xf87780850cfb641f9f8255f0942910543af39aba0cd09dbb2d50200b3e800a63d28a014534d95bef905c000089454e3756465a3430521ba0799ee4ed5454b4482599e2f7abca45de729dac7243af9602c5caf6ce0d172912a03fd63c6a53178b213f8aefcc4cdd3bfc4278cddafe15d214d148fb92b9515b6e",
      "networkId": 0,
      "chainId": 0
    },
    {
      "hash": "0xe8adfb2ab8caf66475d4ba7c4b3cb042ac37520a89ba970652de43e52583cb8b",
      "blockHash": "0x1ab5368ff651a64ea9b58360b76663f425c843e1dcff333ea6a6d319eddefa57",
      "blockNumber": 48712,
      "transactionIndex": 4,
      "confirmations": null,
      "from": "0xd83630DD777Ce7c8Df15D55A8Bb72EB7C7b4568D",
      "gasPrice": {
        "_hex": "0xcae3ccd37"
      },
      "gasLimit": {
        "_hex": "0x5208"
      },
      "to": "0xd83630DD777Ce7c8Df15D55A8Bb72EB7C7b4568D",
      "value": {
        "_hex": "0xde0b6b3a7640000"
      },
      "nonce": 0,
      "data": "0x",
      "r": "0xffb5dfc620999a687111d7c2d0b647d23036caab5fed721601165e10da277353",
      "s": "0x30c0250911d3553af2aa6114affa8b1bafdad282bbefcbc9c39f85d948ad47c5",
      "v": 27,
      "creates": null,
      "raw": "0xf86c80850cae3ccd3782520894d83630dd777ce7c8df15d55a8bb72eb7c7b4568d880de0b6b3a7640000801ba0ffb5dfc620999a687111d7c2d0b647d23036caab5fed721601165e10da277353a030c0250911d3553af2aa6114affa8b1bafdad282bbefcbc9c39f85d948ad47c5",
      "networkId": 0,
      "chainId": 0
    }
  ]
}