{
  "hash": "0xa36e6dcb70469931044bd55c99ae691bbae7d9dedbae89fd9b6db4f64fbc7f53",
  "parentHash": "0xd441c96dbc8753878865c675491750c8e4c59c83c59c7cfd0e99d89775119489",
  "number": 74295,
  "timestamp": 1439383895,
  "nonce": "0x2d1e64cb1f466728",
  "difficulty": 2205372055434,
  "gasLimit": {
    "_hex": "0x2fefd8"
  },
  "gasUsed": {
    "_hex": "0x5208"
  },
  "miner": "0xe6A7a1d47ff21B6321162AEA7C6CB457D5476Bca",
  "extraData": "0x476574682f76312e302e312d38326566323666362f6c696e75782f676f312e34",
  "transactions": [
    {
      "hash": "0x86d8d3c37e036df23eecaa49701ebff0c8aafc85b36c21c13f9eb2d2f0bfa333",
      "blockHash": "0xa36e6dcb70469931044bd55c99ae691bbae7d9dedbae89fd9b6db4f64fbc7f53",
      "blockNumber": 74295,
      "transactionIndex": 0,
      "confirmations": null,
      "from": "0x120A270bbC009644e35F0bB6ab13f95b8199c4ad",
      "gasPrice": {
        "_hex": "0xdc7a64be6"
      },
      "gasLimit": {
        "_hex": "0x15f90"
      },
      "to": "0x9d6e4f62e072757eb8cB47BC2E4BA7a6556b3069",
      "value": {
        "_hex": "0x207c7acb5216f000"
      },
      "nonce": 271,
      "data": "0x",
      "r": "0x488ae6833edd3220305bfa7f57f636a635402d5909c40535b91edd69b3584634",
      "s": "0x0aaa4bd28c9c321d4f8dc680670fc4b879609cf3e008d8d9dccaf99ca941f192",
      "v": 28,
      "creates": null,
      "raw": "0xf86f82010f850dc7a64be683015f90949d6e4f62e072757eb8cb47bc2e4ba7a6556b306988207c7acb5216f000801ca0488ae6833edd3220305bfa7f57f636a635402d5909c40535b91edd69b3584634a00aaa4bd28c9c321d4f8dc680670fc4b879609cf3e008d8d9dccaf99ca941f192",
      "networkId": 0,
      "chainId": 0
    }
  ]
}