{
  "hash": "0x33503a70660e64187bd39cfc548150b6a9ff9a8317fe1ede38e0595f607f8656",
  "parentHash": "0xbb0e4336c5ec25fc6a90b0c8d9019bda753388671c4103edeb8b5950603cdab4",
  "number": 46928,
  "timestamp": 1438931738,
  "nonce": "0xffad30a3b2f0c536",
  "difficulty": 1456012542374,
  "gasLimit": {
    "_hex": "0x8651"
  },
  "gasUsed": {
    "_hex": "0x5208"
  },
  "miner": "0xbb7B8287f3F0a933474a79eAe42CBCa977791171",
  "extraData": "0x476574682f4c5649562f76312e302e312f6c696e75782f676f312e342e32",
  "transactions": [
    {
      "hash": "0xa873ff98c088e5c14d537de9878bc14a9ad050f7f38bc6edd6a51b13234d4b42",
      "blockHash": "0x33503a70660e64187bd39cfc548150b6a9ff9a8317fe1ede38e0595f607f8656",
      "blockNumber": 46928,
      "transactionIndex": 0,
      "confirmations": null,
      "from": "0xe6A7a1d47ff21B6321162AEA7C6CB457D5476Bca",
      "gasPrice": {
        "_hex": "0xdb6d92317"
      },
      "gasLimit": {
        "_hex": "0x5208"
      },
      "to": "0x88F859e1F0A7C49985f0dDEa95d97c6C93435320",
      "value": {
        "_hex": "0x18f4e5d26fc6fa68"
      },
      "nonce": 22,
      "data": "0x",
      "r": "0x0b31f74939f54248eeacc28f32e6bc2133ad151a7c5327c8aa26c76673ca7bcb",
      "s": "0x1dfa2dbe8a34941e6305e9146f17f35af5a43622fa3ab5aa669aa4284dc3cc14",
      "v": 28,
      "creates": null,
      "raw": "0xf86c16850db6d923178252089488f859e1f0a7c49985f0ddea95d97c6c934353208818f4e5d26fc6fa68801ca00b31f74939f54248eeacc28f32e6bc2133ad151a7c5327c8aa26c76673ca7bcba01dfa2dbe8a34941e6305e9146f17f35af5a43622fa3ab5aa669aa4284dc3cc14",
      "networkId": 0,
      "chainId": 0
    }
  ]
}