{
  "hash": "0xa3303b9cbfe8d9e364a5f5d48bcb2e0bf2a35ba3647a434a179a489ac3a02a66",
  "parentHash": "0x9d8a81542586bc48b00344eb1d8ee2a6c3dbd05943955e4e099a441c9f9ae903",
  "number": 91171,
  "timestamp": 1439651512,
  "nonce": "0x85cd77a1994fcce4",
  "difficulty": 3438975299158,
  "gasLimit": {
    "_hex": "0x2fefd8"
  },
  "gasUsed": {
    "_hex": "0x5208"
  },
  "miner": "0x79d5794171E11dd5C2f0e26E1C187319db2FE6f7",
  "extraData": "0x",
  "transactions": [
    {
      "hash": "0x2e1a673422682c5fded37027c4f231bd73f2d9bd47a5734d932cc15ac095a79e",
      "blockHash": "0xa3303b9cbfe8d9e364a5f5d48bcb2e0bf2a35ba3647a434a179a489ac3a02a66",
      "blockNumber": 91171,
      "transactionIndex": 0,
      "confirmations": null,
      "from": "0xD2e57181beE0BF25a2E7D377EaCCec854Bd65334",
      "gasPrice": {
        "_hex": "0xd4d1a65fd"
      },
      "gasLimit": {
        "_hex": "0x5208"
      },
      "to": "0x32Be343B94f860124dC4fEe278FDCBD38C102D88",
      "value": {
        "_hex": "0x56bc781bd10ac4000"
      },
      "nonce": 6,
      "data": "0x",
      "r": "0x873e1aa86cf8ab220b2b78631b54d7c89b93580e4372e6429ea67ee299ee0f13",
      "s": "0x4087b8a4121fd30fca5af1e5c5f077c239bf1296306f50b740bb6bd1af6419ae",
      "v": 27,
      "creates": null,
      "raw": "0xf86d06850d4d1a65fd8252089432be343b94f860124dc4fee278fdcbd38c102d8889056bc781bd10ac4000801ba0873e1aa86cf8ab220b2b78631b54d7c89b93580e4372e6429ea67ee299ee0f13a04087b8a4121fd30fca5af1e5c5f077c239bf1296306f50b740bb6bd1af6419ae",
      "networkId": 0,
      "chainId": 0
    }
  ]
}