{
  "hash": "0x175ab5b91cf0c5901d609fe2dbca49a4dd17b88ad3479a87c062984a7d68b37d",
  "parentHash": "0x35935f5095edec7bbae24e47b39e4c572abe08eb3bd4e7f9031c1ce3972bd204",
  "number": 68861,
  "timestamp": 1439294834,
  "nonce": "0x4ecc3ae6a630c7d3",
  "difficulty": 2019150374239,
  "gasLimit": {
    "_hex": "0x2fefd8"
  },
  "gasUsed": {
    "_hex": "0x5208"
  },
  "miner": "0xE4BA8cF48d11D4cd54fba46C5331b5477DbF5539",
  "extraData": "0x476574682f76312e302e312f77696e646f77732f676f312e342e32",
  "transactions": [
    {
      "hash": "0x68c828d3b8dae2773dd7d69b2c723d3127487c568bf2ada142f5235223700a2a",
      "blockHash": "0x175ab5b91cf0c5901d609fe2dbca49a4dd17b88ad3479a87c062984a7d68b37d",
      "blockNumber": 68861,
      "transactionIndex": 0,
      "confirmations": null,
      "from": "0x6747f922385c9a6F9cfDf095F34345257DD597bE",
      "gasPrice": {
        "_hex": "0xba43b7400"
      },
      "gasLimit": {
        "_hex": "0x5208"
      },
      "to": "0x2BDD93a627483a82Fcd7Ca39b86E7bB55771E18A",
      "value": {
        "_hex": "0x1fcbfa42bd6000"
      },
      "nonce": 133,
      "data": "0x",
      "r": "0x7a63f962dd635bb4341710292912e84216f7f72a7f5d5d2c8d4f7f5628ef8071",
      "s": "0x0e4c500126dc8c6dde4602c9d822529a809826125c483eb4e5a39f3c9c6b0761",
      "v": 27,
      "creates": null,
      "raw": "0xf86c8185850ba43b7400825208942bdd93a627483a82fcd7ca39b86e7bb55771e18a871fcbfa42bd6000801ba07a63f962dd635bb4341710292912e84216f7f72a7f5d5d2c8d4f7f5628ef8071a00e4c500126dc8c6dde4602c9d822529a809826125c483eb4e5a39f3c9c6b0761",
      "networkId": 0,
      "chainId": 0
    }
  ]
}