{
  "hash": "0x526da18bd7959639a5053e42465a82b3668a66ff800b7bfd119c89eb39e829c1",
  "parentHash": "0xc74d83715074c8d21057ee1924785154c8a85dd0a22ca50571ad8046af2afb69",
  "number": 94387,
  "timestamp": 1439707429,
  "nonce": "0xd6a3f1f56e174fd6",
  "difficulty": 3491792354375,
  "gasLimit": {
    "_hex": "0x2fefd8"
  },
  "gasUsed": {
    "_hex": "0x5208"
  },
  "miner": "0xe6A7a1d47ff21B6321162AEA7C6CB457D5476Bca",
  "extraData": "0x476574682f76312e302e312d38326566323666362f6c696e75782f676f312e34",
  "transactions": [
    {
      "hash": "0x4218b51e009f5ae005af3de59a9e4f4a60a4553f2b9aeca17b595ff958ba30ce",
      "blockHash": "0x526da18bd7959639a5053e42465a82b3668a66ff800b7bfd119c89eb39e829c1",
      "blockNumber": 94387,
      "transactionIndex": 0,
      "confirmations": null,
      "from": "0x32Be343B94f860124dC4fEe278FDCBD38C102D88",
      "gasPrice": {
        "_hex": "0xd2cc21f6c"
      },
      "gasLimit": {
        "_hex": "0x5208"
      },
      "to": "0xc93a69dFC0fb3E867D9207599f7fe87d51619635",
      "value": {
        "_hex": "0x4563918244f400000"
      },
      "nonce": 955,
      "data": "0x",
      "r": "0x736be66437430e2db8c5678ac6de3f905095c04735f356fcc57d946910f6bb7e",
      "s": "0x3f906d146ee8607a417284fde4c8339c0acca883569bc38efdc1ea6e555ce4a6",
      "v": 27,
      "creates": null,
      "raw": "0xf86f8203bb850d2cc21f6c82520894c93a69dfc0fb3e867d9207599f7fe87d516196358904563918244f400000801ba0736be66437430e2db8c5678ac6de3f905095c04735f356fcc57d946910f6bb7ea03f906d146ee8607a417284fde4c8339c0acca883569bc38efdc1ea6e555ce4a6",
      "networkId": 0,
      "chainId": 0
    }
  ]
}