{
  "hash": "0xbc13c74d224b12bd3c5e55abee2ef509fc972d6e319a66486b5c3eebc818793d",
  "parentHash": "0x8e6c169aac5bf71617ae7a7db74cb2b9000c66074e014aeb7c0a9b95e9e22313",
  "number": 87352,
  "timestamp": 1439590948,
  "nonce": "0x6c444653d4d8b536",
  "difficulty": 3106752659878,
  "gasLimit": {
    "_hex": "0x2fefd8"
  },
  "gasUsed": {
    "_hex": "0xa410"
  },
  "miner": "0xe6A7a1d47ff21B6321162AEA7C6CB457D5476Bca",
  "extraData": "0x476574682f76312e302e312d38326566323666362f6c696e75782f676f312e34",
  "transactions": [
    {
      "hash": "0x02003304dd6d764e58bcca12fc205377a31035ad225354173f86606433fc4c4d",
      "blockHash": "0xbc13c74d224b12bd3c5e55abee2ef509fc972d6e319a66486b5c3eebc818793d",
      "blockNumber": 87352,
      "transactionIndex": 0,
      "confirmations": null,
      "from": "0xA10C59651885FeAaac91F871082a23BBbaBeDfCf",
      "gasPrice": {
        "_hex": "0xfde0b9d7fd"
      },
      "gasLimit": {
        "_hex": "0x5208"
      },
      "to": "0x4c74B6F32c9680aCB5Fe0e72B7Aa95C612540A04",
      "value": {
        "_hex": "0x22b1c8c1227a00000"
      },
      "nonce": 29,
      "data": "0x",
      "r": "0x8ad0363e29063ce945c8c7cb82f0d55a92f0d9aebfcb95cd41d455b74678a3fa",
      "s": "0x24e1b026699949420725cbc360cd75a17efff7ca52ce5e113a47423ac18ca6a6",
      "v": 28,
      "creates": null,
      "raw": "0xf86d1d85fde0b9d7fd825208944c74b6f32c9680acb5fe0e72b7aa95c612540a0489022b1c8c1227a00000801ca08ad0363e29063ce945c8c7cb82f0d55a92f0d9aebfcb95cd41d455b74678a3faa024e1b026699949420725cbc360cd75a17efff7ca52ce5e113a47423ac18ca6a6",
      "networkId": 0,
      "chainId": 0
    },
    {
      "hash": "0x4307ef22b38ff8fe7651b1320df758e219786fc3da9c52ad52fd0b9e58069157",
      "blockHash": "0xbc13c74d224b12bd3c5e55abee2ef509fc972d6e319a66486b5c3eebc818793d",
      "blockNumber": 87352,
      "transactionIndex": 1,
      "confirmations": null,
      "from": "0x120A270bbC009644e35F0bB6ab13f95b8199c4ad",
      "gasPrice": {
        "_hex": "0xdce85384c"
      },
      "gasLimit": {
        "_hex": "0x3d090"
      },
      "to": "0xc5623FA5c297c05c2d965A336b2068CfA0e567FA",
      "value": {
        "_hex": "0x19c75a65c96e135000"
      },
      "nonce": 497,
      "data": "0x",
      "r": "0xfa336cacd9faaf7b28fe80a2d71fd200cf39d4f6863ad225ee1443be3b073a0a",
      "s": "0x26aa9509789d5b64093fb1e73d1b355ab61c6b1e4a58739a5962566b26050ad6",
      "v": 27,
      "creates": null,
      "raw": "0xf8708201f1850dce85384c8303d09094c5623fa5c297c05c2d965a336b2068cfa0e567fa8919c75a65c96e135000801ba0fa336cacd9faaf7b28fe80a2d71fd200cf39d4f6863ad225ee1443be3b073a0aa026aa9509789d5b64093fb1e73d1b355ab61c6b1e4a58739a5962566b26050ad6",
      "networkId": 0,
      "chainId": 0
    }
  ]
}