{
  "hash": "0x67996d3cda25cbe711995ff0323da4e9f09af0c0e8f511f0bb9602382067d3c3",
  "parentHash": "0x3ae03149f823f786a921aea35255f5940c21d5b681b0126da234830d6cd35b9b",
  "number": 104632,
  "timestamp": 1439872890,
  "nonce": "0x72f59dd3e2a4d5b8",
  "difficulty": 4363676714556,
  "gasLimit": {
    "_hex": "0x2fefd5"
  },
  "gasUsed": {
    "_hex": "0x1bdbe"
  },
  "miner": "0x31995C46B15C84523cDEE26f49A681b8237e43F5",
  "extraData": "0x476574682f76312e302e312f77696e646f77732f676f312e342e32",
  "transactions": [
    {
      "hash": "0xa90c4b1855b2b80fa9cf0a3516c6e54275eb91e545371b1827783315102bcc00",
      "blockHash": "0x67996d3cda25cbe711995ff0323da4e9f09af0c0e8f511f0bb9602382067d3c3",
      "blockNumber": 104632,
      "transactionIndex": 0,
      "confirmations": null,
      "from": "0x095E0174829f34C3781Be1a5e38d1541EA439b7f",
      "gasPrice": {
        "_hex": "0xd1f217cbf"
      },
      "gasLimit": {
        "_hex": "0x249f0"
      },
      "to": "0xE28e72FCf78647ADCe1F1252F240bbfaebD63BcC",
      "value": {
        "_hex": "0xde0b6b3a7640000"
      },
      "nonce": 3,
      "data": "0x45466f3a",
      "r": "0xd216d1d462fd8ccc5589c5c4c4a100c4afb6ad7b8390913cea5f8ad73ee46c4c",
      "s": "0x1f5eaf85665b2c7c78f6984da2e33faf078c9a1001ece7ed591d1770a4fdf3ec",
      "v": 28,
      "creates": null,
      "raw": "0xf87103850d1f217cbf830249f094e28e72fcf78647adce1f1252f240bbfaebd63bcc880de0b6b3a76400008445466f3a1ca0d216d1d462fd8ccc5589c5c4c4a100c4afb6ad7b8390913cea5f8ad73ee46c4ca01f5eaf85665b2c7c78f6984da2e33faf078c9a1001ece7ed591d1770a4fdf3ec",
      "networkId": 0,
      "chainId": 0
    }
  ]
}