{
  "hash": "0x42f952b7641bcabfd323e2ff6e41f3d1dc945b500f9c7bccee89f1f79ae1a2cd",
  "parentHash": "0xf6b20c17413093f69fdf080583e50f142179681363cc2797bcf0496613713a98",
  "number": 74485,
  "timestamp": 1439386778,
  "nonce": "0xe95e315516cbdedb",
  "difficulty": 2216116612359,
  "gasLimit": {
    "_hex": "0x2fefd8"
  },
  "gasUsed": {
    "_hex": "0xa410"
  },
  "miner": "0x0037ce3d4B7f8729C8607D8D0248252Be68202c0",
  "extraData": "0x476574682f76312e302e312f77696e646f77732f676f312e342e32",
  "transactions": [
    {
      "hash": "0xb1905f91cefb0ce8a13ea104a8b0bc4fdbabe84fa4be026df7c62bd8ceae425f",
      "blockHash": "0x42f952b7641bcabfd323e2ff6e41f3d1dc945b500f9c7bccee89f1f79ae1a2cd",
      "blockNumber": 74485,
      "transactionIndex": 0,
      "confirmations": null,
      "from": "0xDC6A542F97876923583019b526335fD1fB0DfC6A",
      "gasPrice": {
        "_hex": "0xd22d23204"
      },
      "gasLimit": {
        "_hex": "0x5208"
      },
      "to": "0x32Be343B94f860124dC4fEe278FDCBD38C102D88",
      "value": {
        "_hex": "0x1950e9142af0570000"
      },
      "nonce": 4,
      "data": "0x",
      "r": "0x9dabfe54209ca70c09b8cf4ca82a9bd5ad4834ebc945c8224fd6e4c79c57583c",
      "s": "0x0b7a815c7da86610f4a473faa0676001961cc780e231475db351c8dd63f54ba7",
      "v": 27,
      "creates": null,
      "raw": "0xf86d04850d22d232048252089432be343b94f860124dc4fee278fdcbd38c102d88891950e9142af0570000801ba09dabfe54209ca70c09b8cf4ca82a9bd5ad4834ebc945c8224fd6e4c79c57583ca00b7a815c7da86610f4a473faa0676001961cc780e231475db351c8dd63f54ba7",
      "networkId": 0,
      "chainId": 0
    },
    {
      "hash": "0xf1e32ec93fe9fa683f150bdfe5154ababbc1430bebf20114d668d0febcc6168d",
      "blockHash": "0x42f952b7641bcabfd323e2ff6e41f3d1dc945b500f9c7bccee89f1f79ae1a2cd",
      "blockNumber": 74485,
      "transactionIndex": 1,
      "confirmations": null,
      "from": "0xC3Ff472485ebe25dAe8d7d96d49Bb59a03103B38",
      "gasPrice": {
        "_hex": "0xba43b7400"
      },
      "gasLimit": {
        "_hex": "0x5266"
      },
      "to": "0x0e2feEC433472451e3E7ea6da95D453C2a82e4dC",
      "value": {
        "_hex": "0x1"
      },
      "nonce": 0,
      "data": "0x",
      "r": "0x64221814b358674883037332f2c1154de2ac79013a7d063c149eaeb3b0ec951b",
      "s": "0x0d7f83876fdef676529334350590e62ad1bfee176d6502027ef0510da645a200",
      "v": 28,
      "creates": null,
      "raw": "0xf86480850ba43b7400825266940e2feec433472451e3e7ea6da95d453c2a82e4dc01801ca064221814b358674883037332f2c1154de2ac79013a7d063c149eaeb3b0ec951ba00d7f83876fdef676529334350590e62ad1bfee176d6502027ef0510da645a200",
      "networkId": 0,
      "chainId": 0
    }
  ]
}