{
  "hash": "0x4a93361e03581191d48504d7f51d31601466126788b4f8f731664e4f5c6ecad6",
  "parentHash": "0x3b52e7772012348a6fd47de4b3044b84f5b91b472c9baea85714553e41e187c5",
  "number": 107146,
  "timestamp": 1439916938,
  "nonce": "0xcf1e8ff73aa86c2a",
  "difficulty": 4461460738506,
  "gasLimit": {
    "_hex": "0x2fefd8"
  },
  "gasUsed": {
    "_hex": "0xa410"
  },
  "miner": "0x5F8F73E26CdF436f19Cb24C82F90A15AFe55b592",
  "extraData": "0x476574682f76312e302e312f77696e646f77732f676f312e342e32",
  "transactions": [
    {
      "hash": "0xa8e25b3050cd47298c5220b24f5a63eea1362fa44820bd79f804d65cc3380292",
      "blockHash": "0x4a93361e03581191d48504d7f51d31601466126788b4f8f731664e4f5c6ecad6",
      "blockNumber": 107146,
      "transactionIndex": 0,
      "confirmations": null,
      "from": "0xaB638742EBe3A78F2a85028350e1AADB86C0a6ed",
      "gasPrice": {
        "_hex": "0xd7d40ace3"
      },
      "gasLimit": {
        "_hex": "0x15f90"
      },
      "to": "0xD5bf64B3B17Fb895536953EfE17578a8b7b16880",
      "value": {
        "_hex": "0x2b5e3af16b1880000"
      },
      "nonce": 5,
      "data": "0x",
      "r": "0xfc37f120ec603a10ec9c5ea281041c5a5dd3bf6effaf68c8b2b4371f6ac98784",
      "s": "0x43300f528cc3b568cd393a5f04f93e621cda7adfb560e64b3ccdeff4aed29193",
      "v": 27,
      "creates": null,
      "raw": "0xf86e05850d7d40ace383015f9094d5bf64b3b17fb895536953efe17578a8b7b168808902b5e3af16b1880000801ba0fc37f120ec603a10ec9c5ea281041c5a5dd3bf6effaf68c8b2b4371f6ac98784a043300f528cc3b568cd393a5f04f93e621cda7adfb560e64b3ccdeff4aed29193",
      "networkId": 0,
      "chainId": 0
    },
    {
      "hash": "0x8fa073a0ecf9b84e89b4f8e955cd9b0e11a3db653e6438a3e35412df20c6d388",
      "blockHash": "0x4a93361e03581191d48504d7f51d31601466126788b4f8f731664e4f5c6ecad6",
      "blockNumber": 107146,
      "transactionIndex": 1,
      "confirmations": null,
      "from": "0xaB638742EBe3A78F2a85028350e1AADB86C0a6ed",
      "gasPrice": {
        "_hex": "0xd7d40ace3"
      },
      "gasLimit": {
        "_hex": "0x15f90"
      },
      "to": "0xD5bf64B3B17Fb895536953EfE17578a8b7b16880",
      "value": {
        "_hex": "0x2b5e3af16b1880000"
      },
      "nonce": 6,
      "data": "0x",
      "r": "0x0c33f9c74dcd8aeced14fe7b07292c28fec6b4317bb901e5085e4e15995ee948",
      "s": "0x31b5c465350485f41eb60c726ca05b38644445e821ecf0ff4ff9c35fe3b742a6",
      "v": 28,
      "creates": null,
      "raw": "0xf86e06850d7d40ace383015f9094d5bf64b3b17fb895536953efe17578a8b7b168808902b5e3af16b1880000801ca00c33f9c74dcd8aeced14fe7b07292c28fec6b4317bb901e5085e4e15995ee948a031b5c465350485f41eb60c726ca05b38644445e821ecf0ff4ff9c35fe3b742a6",
      "networkId": 0,
      "chainId": 0
    }
  ]
}