{
  "hash": "0x7c94b01fc5773d6febd8d79d02ce90315bf70feff1309d1d8a7d352e2777c11d",
  "parentHash": "0x67b7613c84fede4d8725a9c7d9e0775e2e07967ff377cdd90e2c1fc8e7274187",
  "number": 72991,
  "timestamp": 1439361460,
  "nonce": "0x39a8d7f6d5312c38",
  "difficulty": 2212186435859,
  "gasLimit": {
    "_hex": "0x2fefd8"
  },
  "gasUsed": {
    "_hex": "0xc368"
  },
  "miner": "0xecAb9B89BbB858a7e3DDe3ed0b13946eDAEb5533",
  "extraData": "0x476574682f76312e302e312d38326566323666362f6c696e75782f676f312e34",
  "transactions": [
    {
      "hash": "0x8faa9eae2c7f511bff335c5f785e9e2f47ac06efcb4fe01fdb16a200bb959344",
      "blockHash": "0x7c94b01fc5773d6febd8d79d02ce90315bf70feff1309d1d8a7d352e2777c11d",
      "blockNumber": 72991,
      "transactionIndex": 0,
      "confirmations": null,
      "from": "0x326Be8F71bFb0379f989aAB1CC1fE37f0a771f60",
      "gasPrice": {
        "_hex": "0x1155d1a01a8"
      },
      "gasLimit": {
        "_hex": "0x15f90"
      },
      "to": "0x070F98b1eC27942F613A73d9e22d0ba60E211668",
      "value": {
        "_hex": "0x0"
      },
      "nonce": 22,
      "data": "0x2e1a7d4d0000000000000000000000000000000000000000000000000de0b6b3a7640000",
      "r": "0x0a74c8c93c03825f029fd51e71c58ce1650ed2033278a132717384ef0951138f",
      "s": "0x6f0768889e4aee5f811a3ef43feb4c4ce7e9e5b54fc94c58ee9658996fc7204b",
      "v": 28,
      "creates": null,
      "raw": "0xf88a168601155d1a01a883015f9094070f98b1ec27942f613a73d9e22d0ba60e21166880a42e1a7d4d0000000000000000000000000000000000000000000000000de0b6b3a76400001ca00a74c8c93c03825f029fd51e71c58ce1650ed2033278a132717384ef0951138fa06f0768889e4aee5f811a3ef43feb4c4ce7e9e5b54fc94c58ee9658996fc7204b",
      "networkId": 0,
      "chainId": 0
    },
    {
      "hash": "0x6b70e5c8208ce03201e3995235554734687c7711b792a1e9d06787353d518e9c",
      "blockHash": "0x7c94b01fc5773d6febd8d79d02ce90315bf70feff1309d1d8a7d352e2777c11d",
      "blockNumber": 72991,
      "transactionIndex": 1,
      "confirmations": null,
      "from": "0x723E05fF30e4ba7A87b4D7D459eE5B488A9c36d1",
      "gasPrice": {
        "_hex": "0xcdf254c46"
      },
      "gasLimit": {
        "_hex": "0x15f90"
      },
      "to": "0xabceA603089850F8f6bB612A9031554D90A247CF",
      "value": {
        "_hex": "0x8ac7230489e80000"
      },
      "nonce": 6,
      "data": "0x",
      "r": "0x33b516ecbd115eb8eae38b60345c73c8bc16e91e8e6e718908600c2f5c4fc397",
      "s": "0x69c648676b277f2488890365529ccf1997ede727dcbf5a0cf9596415c2d0a6b2",
      "v": 28,
      "creates": null,
      "raw": "0xf86d06850cdf254c4683015f9094abcea603089850f8f6bb612a9031554d90a247cf888ac7230489e80000801ca033b516ecbd115eb8eae38b60345c73c8bc16e91e8e6e718908600c2f5c4fc397a069c648676b277f2488890365529ccf1997ede727dcbf5a0cf9596415c2d0a6b2",
      "networkId": 0,
      "chainId": 0
    }
  ]
}