{
  "hash": "0xd2ea808387c3227836c852feda8dfbab7d81ff82a6068ed298dbb36509d2125e",
  "parentHash": "0x812c04490283cd21c7ae391906f0db45bc336a4555050af66f430b66782e9028",
  "number": 57303,
  "timestamp": 1439100968,
  "nonce": "0xec3f5035384ec7a9",
  "difficulty": 1736220935654,
  "gasLimit": {
    "_hex": "0x2fefd8"
  },
  "gasUsed": {
    "_hex": "0x5208"
  },
  "miner": "0x88D74a59454F6cF3B51ef6b9136AFb6b9D405A88",
  "extraData": "0x476574682f76312e302e312d37666266393930632f6c696e75782f676f312e34",
  "transactions": [
    {
      "hash": "0x15d6df54b5d2df85930939dbaf41db3c8a64ef83b965dce21d4a0eb690d23069",
      "blockHash": "0xd2ea808387c3227836c852feda8dfbab7d81ff82a6068ed298dbb36509d2125e",
      "blockNumber": 57303,
      "transactionIndex": 0,
      "confirmations": null,
      "from": "0x3738B70e6241841FFb3e1f733d77C15EBc227278",
      "gasPrice": {
        "_hex": "0xcf43cde24"
      },
      "gasLimit": {
        "_hex": "0x15f90"
      },
      "to": "0xdD81AaddCc8448A5fC0ac28DB93ec6801C21E8Ef",
      "value": {
        "_hex": "0x154017c3185120000"
      },
      "nonce": 0,
      "data": "0x",
      "r": "0x006badb15286bf4109516d3c32e1b06956e5b1f1f98c470b82e997d9b9fc8ef8",
      "s": "0x6eefe494dd063623cbbf03f147a0882eee249903cc16d0ad3adec8daf8cab6c2",
      "v": 27,
      "creates": null,
      "raw": "0xf86d80850cf43cde2483015f9094dd81aaddcc8448a5fc0ac28db93ec6801c21e8ef890154017c3185120000801b9f6badb15286bf4109516d3c32e1b06956e5b1f1f98c470b82e997d9b9fc8ef8a06eefe494dd063623cbbf03f147a0882eee249903cc16d0ad3adec8daf8cab6c2",
      "networkId": 0,
      "chainId": 0
    }
  ]
}