{
  "hash": "0xd8169d16de688b228a172cf8d15cad04ba6296a7c4d810a192e4323f42e802e0",
  "parentHash": "0x37ecbfd908ece3c54fa5b9f8e1b4a6089139da1dc4b5013a46c5818304de47b3",
  "number": 53165,
  "timestamp": 1439033451,
  "nonce": "0x70cee9238ebd5c31",
  "difficulty": 1577000252634,
  "gasLimit": {
    "_hex": "0x20f401"
  },
  "gasUsed": {
    "_hex": "0x7a120"
  },
  "miner": "0xa50ec0D39fa913E62f1Bae7074E6F36caA71855b",
  "extraData": "0x",
  "transactions": [
    {
      "hash": "0xf9c23a225c545bf32c35179b2a705e9185ad71237f94283ec754b0244493a49b",
      "blockHash": "0xd8169d16de688b228a172cf8d15cad04ba6296a7c4d810a192e4323f42e802e0",
      "blockNumber": 53165,
      "transactionIndex": 0,
      "confirmations": null,
      "from": "0x8674c218F0351a62C3BA78C34FD2182A93Da94E2",
      "gasPrice": {
        "_hex": "0xd9afee420"
      },
      "gasLimit": {
        "_hex": "0x7a120"
      },
      "to": "0xDc884e349103eAee4aeF913D532Cb5db2745f48b",
      "value": {
        "_hex": "0x0"
      },
      "nonce": 4,
      "data": "0xde6f24bb0000000000000000000000008674c218f0351a62c3ba78c34fd2182a93da94e20000000000000000000000000000000000000000000000000000000000000040000000000000000000000000000000000000000000000000000000000000000568656c6c6f000000000000000000000000000000000000000000000000000000",
      "r": "0x4f2dfebd7c0f712119678fdd5ce6abc357a91df2284edafa5dc1c7503bb2d5c6",
      "s": "0x23b85af577d777b5cc5af8a4ece80bf45ae9f0be7b8e166a91271deb938b72af",
      "v": 27,
      "creates": null,
      "raw": "0xf8ea04850d9afee4208307a12094dc884e349103eaee4aef913d532cb5db2745f48b80b884de6f24bb0000000000000000000000008674c218f0351a62c3ba78c34fd2182a93da94e20000000000000000000000000000000000000000000000000000000000000040000000000000000000000000000000000000000000000000000000000000000568656c6c6f0000000000000000000000000000000000000000000000000000001ba04f2dfebd7c0f712119678fdd5ce6abc357a91df2284edafa5dc1c7503bb2d5c6a023b85af577d777b5cc5af8a4ece80bf45ae9f0be7b8e166a91271deb938b72af",
      "networkId": 0,
      "chainId": 0
    }
  ]
}