{
  "hash": "0x66e90c31174ae6c93378bf5bfa8bd1c0a93eaaae294fd494c6b2727dd89c3b34",
  "parentHash": "0x2e7cfbed3c495904fda82395ec895635a57725f2132577adb40000beee384b51",
  "number": 73925,
  "timestamp": 1439377559,
  "nonce": "0x64a28e30530c50b6",
  "difficulty": 2222767042618,
  "gasLimit": {
    "_hex": "0x2fefd8"
  },
  "gasUsed": {
    "_hex": "0x5208"
  },
  "miner": "0x9746c7e1ef2bd21FF3997fa467593a89cb852BD0",
  "extraData": "0x476574682f76312e302e312f77696e646f77732f676f312e342e32",
  "transactions": [
    {
      "hash": "0xa18deeb3e4085af120d7ef062621b4f8458b9b463ee89fe68ce6bc7ae08fc2f8",
      "blockHash": "0x66e90c31174ae6c93378bf5bfa8bd1c0a93eaaae294fd494c6b2727dd89c3b34",
      "blockNumber": 73925,
      "transactionIndex": 0,
      "confirmations": null,
      "from": "0x2910543Af39abA0Cd09dBb2D50200b3E800A63D2",
      "gasPrice": {
        "_hex": "0xe112db715"
      },
      "gasLimit": {
        "_hex": "0x5208"
      },
      "to": "0x19ae27E1b61445EB9f27821A5eB4b3e957319e7e",
      "value": {
        "_hex": "0x6ef3f224033f8000"
      },
      "nonce": 294,
      "data": "0x",
      "r": "0xa4a294812bf637ee2a25b692ac16e1587784b5447454e6f6db5b703827211ee8",
      "s": "0x455fd382edade39ded48310722ddd6ebb6816317efa1f4e0ae1bb11787e7db85",
      "v": 28,
      "creates": null,
      "raw": "0xf86e820126850e112db7158252089419ae27e1b61445eb9f27821a5eb4b3e957319e7e886ef3f224033f8000801ca0a4a294812bf637ee2a25b692ac16e1587784b5447454e6f6db5b703827211ee8a0455fd382edade39ded48310722ddd6ebb6816317efa1f4e0ae1bb11787e7db85",
      "networkId": 0,
      "chainId": 0
    }
  ]
}