{
  "hash": "0xdf352846eda158104a07701e2ac2e7247a32258c3e0c6453214c68c1acbcdc86",
  "parentHash": "0x4e53fda3515600b7b8c219b402a578a3b18ae5522812fd11b7a50f0de785722e",
  "number": 60644,
  "timestamp": 1439159322,
  "nonce": "0xb21bb8ecc0edb43c",
  "difficulty": 1729607714062,
  "gasLimit": {
    "_hex": "0x2fefd8"
  },
  "gasUsed": {
    "_hex": "0xa410"
  },
  "miner": "0xA0cd872D3Abd6c4BaA55f15C35aC05730a1b621b",
  "extraData": "0x",
  "transactions": [
    {
      "hash": "0xde7a7d4adea47ce9b5654f25e25eaccbcc5d95e00abc15589c6c475ef47f251d",
      "blockHash": "0xdf352846eda158104a07701e2ac2e7247a32258c3e0c6453214c68c1acbcdc86",
      "blockNumber": 60644,
      "transactionIndex": 0,
      "confirmations": null,
      "from": "0xa9f5E7bf6Cbf6fEc55B30850Eb492b47A376d050",
      "gasPrice": {
        "_hex": "0xd01bfd642"
      },
      "gasLimit": {
        "_hex": "0x5208"
      },
      "to": "0x32Be343B94f860124dC4fEe278FDCBD38C102D88",
      "value": {
        "_hex": "0xdcac8437e8ab800"
      },
      "nonce": 6,
      "data": "0x",
      "r": "0x7a893d671350ef6f692b04c86e5185fb5c3b0d328dee52b92ca72518b53aa4a6",
      "s": "0x4c5063e314cafad3c54ea697217a78d7c94480e75cab850d5dcf1ce54ebc02ef",
      "v": 27,
      "creates": null,
      "raw": "0xf86c06850d01bfd6428252089432be343b94f860124dc4fee278fdcbd38c102d88880dcac8437e8ab800801ba07a893d671350ef6f692b04c86e5185fb5c3b0d328dee52b92ca72518b53aa4a6a04c5063e314cafad3c54ea697217a78d7c94480e75cab850d5dcf1ce54ebc02ef",
      "networkId": 0,
      "chainId": 0
    },
    {
      "hash": "0x1bef31254e89728290166485f192de74c38fd31d6a9e2e11c62af91036598f50",
      "blockHash": "0xdf352846eda158104a07701e2ac2e7247a32258c3e0c6453214c68c1acbcdc86",
      "blockNumber": 60644,
      "transactionIndex": 1,
      "confirmations": null,
      "from": "0xB8CE40693C20B22C796C220C2914b4325cF109a5",
      "gasPrice": {
        "_hex": "0xd01bfd642"
      },
      "gasLimit": {
        "_hex": "0x5208"
      },
      "to": "0x32Be343B94f860124dC4fEe278FDCBD38C102D88",
      "value": {
        "_hex": "0x1b1bc0672f6e7a00000"
      },
      "nonce": 0,
      "data": "0x",
      "r": "0xf02fca0180dae2b19e1d340f969715ac59fb0ba6c0c9e59f648e2361d040e0b8",
      "s": "0x1ff5550ba616a942be514f9930201dee5c6fd267b7f5809bfab6e674263c6c63",
      "v": 28,
      "creates": null,
      "raw": "0xf86e80850d01bfd6428252089432be343b94f860124dc4fee278fdcbd38c102d888a01b1bc0672f6e7a00000801ca0f02fca0180dae2b19e1d340f969715ac59fb0ba6c0c9e59f648e2361d040e0b8a01ff5550ba616a942be514f9930201dee5c6fd267b7f5809bfab6e674263c6c63",
      "networkId": 0,
      "chainId": 0
    }
  ]
}