{
  "hash": "0x97a8f439a2467d9b3090fac42797bea4234dbc8133e32299e31f71e852d562c1",
  "parentHash": "0x2cfe82fb3dd02332efaf88ba91d223ba2f740d23ebc4b4ce14b0cd93068b689f",
  "number": 87144,
  "timestamp": 1439587801,
  "nonce": "0x28d622c7c2ecc87f",
  "difficulty": 3058662760757,
  "gasLimit": {
    "_hex": "0x2fefd8"
  },
  "gasUsed": {
    "_hex": "0x5208"
  },
  "miner": "0x5B3e850E39e6f2C7dD38707b649e2B3536F14C0b",
  "extraData": "0x476574682f76312e302e312f64617277696e2f676f312e342e32",
  "transactions": [
    {
      "hash": "0x5cc5263484460f082addb142a1654692a17c4e72b3f0c6478d306c644591e35f",
      "blockHash": "0x97a8f439a2467d9b3090fac42797bea4234dbc8133e32299e31f71e852d562c1",
      "blockNumber": 87144,
      "transactionIndex": 0,
      "confirmations": null,
      "from": "0xc8ebccC5F5689Fa8659d83713341e5aD19349448",
      "gasPrice": {
        "_hex": "0xda76345e3"
      },
      "gasLimit": {
        "_hex": "0x15f90"
      },
      "to": "0x0aab57d96E497755Ac735C0f1d5e1c24F78b5979",
      "value": {
        "_hex": "0x4563918244f40000"
      },
      "nonce": 66,
      "data": "0x",
      "r": "0xcac2c74495237c98ade9a7a2292bf310863aa48506e8a9d803fc68fbee01450c",
      "s": "0x2c07fc02e114e1e07be3f373bd5d2de0b99d466c887baefb838c405c730787f5",
      "v": 28,
      "creates": null,
      "raw": "0xf86d42850da76345e383015f90940aab57d96e497755ac735c0f1d5e1c24f78b5979884563918244f40000801ca0cac2c74495237c98ade9a7a2292bf310863aa48506e8a9d803fc68fbee01450ca02c07fc02e114e1e07be3f373bd5d2de0b99d466c887baefb838c405c730787f5",
      "networkId": 0,
      "chainId": 0
    }
  ]
}