{
  "hash": "0x029fb1d698b795bfe0d01ac1babef13d67a3a7a878c08163b6107a2bf3880a51",
  "parentHash": "0xd840f5e70ed7f81cbf6afd52c53ca7816dcc4c47e3c387b2731c5764fdbaaa09",
  "number": 61588,
  "timestamp": 1439174843,
  "nonce": "0x92c86c76b29d5dbb",
  "difficulty": 1739576112077,
  "gasLimit": {
    "_hex": "0x2fefd8"
  },
  "gasUsed": {
    "_hex": "0x5208"
  },
  "miner": "0xf927a40C8B7F6E07c5af7FA2155B4864a4112B13",
  "extraData": "0x",
  "transactions": [
    {
      "hash": "0xa2c6b5f7186e78a020235055abc6d43b80df11da43ae370694738db782805b88",
      "blockHash": "0x029fb1d698b795bfe0d01ac1babef13d67a3a7a878c08163b6107a2bf3880a51",
      "blockNumber": 61588,
      "transactionIndex": 0,
      "confirmations": null,
      "from": "0x3a35269a1cF41344F2288e9D11bA854991112015",
      "gasPrice": {
        "_hex": "0xdb2816147"
      },
      "gasLimit": {
        "_hex": "0x15f90"
      },
      "to": "0x86d3856ad0105B9d4199936c1fd203664BA325dC",
      "value": {
        "_hex": "0x4563918244f40000"
      },
      "nonce": 5,
      "data": "0x",
      "r": "0xa2f0a7d011fe3e8ee295cd846e5d30c88551ba7052a08a4a92e242b77fca82f1",
      "s": "0x4ce7c622b32d8aaaa0848ede9d36c3b34e8d40da214e8cd9141c2050cc2de49d",
      "v": 27,
      "creates": null,
      "raw": "0xf86d05850db281614783015f909486d3856ad0105b9d4199936c1fd203664ba325dc884563918244f40000801ba0a2f0a7d011fe3e8ee295cd846e5d30c88551ba7052a08a4a92e242b77fca82f1a04ce7c622b32d8aaaa0848ede9d36c3b34e8d40da214e8cd9141c2050cc2de49d",
      "networkId": 0,
      "chainId": 0
    }
  ]
}