{
  "hash": "0x393315c31b85b57b8cd4b4d8241cefb1220ef10278f7866cc988a937f8cea6e1",
  "parentHash": "0x35fbb83a1e265b7faddc32ddef7f6da9963d137038266404a18310cd628ffc12",
  "number": 61032,
  "timestamp": 1439165561,
  "nonce": "0x47390c373897a9eb",
  "difficulty": 1737993327405,
  "gasLimit": {
    "_hex": "0x2fefd8"
  },
  "gasUsed": {
    "_hex": "0x5208"
  },
  "miner": "0xbb7B8287f3F0a933474a79eAe42CBCa977791171",
  "extraData": "0x476574682f4c5649562f76312e302e312f6c696e75782f676f312e342e32",
  "transactions": [
    {
      "hash": "0xb2f7d1f794fd5037b4b9daeca949f3bf69c7e012547bc4146e9a631408779a7f",
      "blockHash": "0x393315c31b85b57b8cd4b4d8241cefb1220ef10278f7866cc988a937f8cea6e1",
      "blockNumber": 61032,
      "transactionIndex": 0,
      "confirmations": null,
      "from": "0x7c3f4907164F65CcA6ec853aC340ef1e71B1f5C9",
      "gasPrice": {
        "_hex": "0xd2423c2f4"
      },
      "gasLimit": {
        "_hex": "0x5208"
      },
      "to": "0x32Be343B94f860124dC4fEe278FDCBD38C102D88",
      "value": {
        "_hex": "0x303f253e5005b00000"
      },
      "nonce": 3,
      "data": "0x",
      "r": "0x641c5e1047b82c26a12bb15ee93ef598fe601494f304387e60703f050c00b86a",
      "s": "0x4ca6878977f07b4b440101b4575a84b0bf006ef00601ea3b5ecc5bff76e61468",
      "v": 28,
      "creates": null,
      "raw": "0xf86d03850d2423c2f48252089432be343b94f860124dc4fee278fdcbd38c102d8889303f253e5005b00000801ca0641c5e1047b82c26a12bb15ee93ef598fe601494f304387e60703f050c00b86aa04ca6878977f07b4b440101b4575a84b0bf006ef00601ea3b5ecc5bff76e61468",
      "networkId": 0,
      "chainId": 0
    }
  ]
}