{
  "hash": "0xbc6fcb42a7d6974cfcfaa1ca8cedcd1cd4d9e46ddcb5e384fa04f96c290515c6",
  "parentHash": "0x989e1f82ac77ee89dba52709eb88dbe5c13524950f9a23253fa8a4b701e7facc",
  "number": 116314,
  "timestamp": 1440071961,
  "nonce": "0x7e1f7517f34d12eb",
  "difficulty": 4593566608649,
  "gasLimit": {
    "_hex": "0x2fefd8"
  },
  "gasUsed": {
    "_hex": "0x5208"
  },
  "miner": "0xf8E0CA3Ed80bd541b94BEdCf259e8CF2141A9523",
  "extraData": "0x476574682f76312e302e312f77696e646f77732f676f312e342e32",
  "transactions": [
    {
      "hash": "0x6ebf22984bd7eaafffacc22362f1654ed65060713dc79b9025fc098aa0ace387",
      "blockHash": "0xbc6fcb42a7d6974cfcfaa1ca8cedcd1cd4d9e46ddcb5e384fa04f96c290515c6",
      "blockNumber": 116314,
      "transactionIndex": 0,
      "confirmations": null,
      "from": "0x51c6a5F0248d9a4f7CA205080e2BA8b0962Fd8ea",
      "gasPrice": {
        "_hex": "0xd1ee5bb34"
      },
      "gasLimit": {
        "_hex": "0x15f90"
      },
      "to": "0xe53864b48c56069AE69051Ec9916006cc9A41339",
      "value": {
        "_hex": "0x2386f26fc10000"
      },
      "nonce": 4,
      "data": "0x",
      "r": "0x7d9758bf897b19986d2bad2376325c53f28d5b0fcee05d6314eb5db7a80b3b20",
      "s": "0x3546422797e50f65adcecab55b0cbcc6df43a97659255f29de3e1d52b2a0a790",
      "v": 28,
      "creates": null,
      "raw": "0xf86c04850d1ee5bb3483015f9094e53864b48c56069ae69051ec9916006cc9a41339872386f26fc10000801ca07d9758bf897b19986d2bad2376325c53f28d5b0fcee05d6314eb5db7a80b3b20a03546422797e50f65adcecab55b0cbcc6df43a97659255f29de3e1d52b2a0a790",
      "networkId": 0,
      "chainId": 0
    }
  ]
}