{
  "hash": "0x5d324999fb06a3d240f97385841312b12a19f9ff4468d0dfd66f8847353fdb99",
  "parentHash": "0x81cafb8db39065bb1e35d8a2152b6dafa5574cdd85d9b4a02bb117357e8ac165",
  "number": 68570,
  "timestamp": 1439290220,
  "nonce": "0x0dca3c6bbccc39a4",
  "difficulty": 2010366360631,
  "gasLimit": {
    "_hex": "0x2fefd8"
  },
  "gasUsed": {
    "_hex": "0x7b0c0"
  },
  "miner": "0xa50ec0D39fa913E62f1Bae7074E6F36caA71855b",
  "extraData": "0x",
  "transactions": [
    {
      "hash": "0x3f6ca018007725370aa8c2d07fdd16b5aa7b2c66827165b2129d8ad5b6460e83",
      "blockHash": "0x5d324999fb06a3d240f97385841312b12a19f9ff4468d0dfd66f8847353fdb99",
      "blockNumber": 68570,
      "transactionIndex": 0,
      "confirmations": null,
      "from": "0x445C812DFAceAc12b55a9B4D21959478424C0Abd",
      "gasPrice": {
        "_hex": "0xba43b7400"
      },
      "gasLimit": {
        "_hex": "0x5208"
      },
      "to": "0xDaa83D26C4399Afd0C28A8a25812A30FAc047d34",
      "value": {
        "_hex": "0xaa9f075c200000"
      },
      "nonce": 1,
      "data": "0x",
      "r": "0x32cf59039cddfa5b3e5933c4f473d0d07ebfd62edea1b5cd3d524539deec2688",
      "s": "0x03e0b6ff1876de5e2f5fee060238df38fd46c275e14130892e0496c3647907f5",
      "v": 28,
      "creates": null,
      "raw": "0xf86b01850ba43b740082520894daa83d26c4399afd0c28a8a25812a30fac047d3487aa9f075c200000801ca032cf59039cddfa5b3e5933c4f473d0d07ebfd62edea1b5cd3d524539deec2688a003e0b6ff1876de5e2f5fee060238df38fd46c275e14130892e0496c3647907f5",
      "networkId": 0,
      "chainId": 0
    },
    {
      "hash": "0xc217e3d5fd933c93434009f062c41364f8b1685d8f043c25fcbdba0dbb42e162",
      "blockHash": "0x5d324999fb06a3d240f97385841312b12a19f9ff4468d0dfd66f8847353fdb99",
      "blockNumber": 68570,
      "transactionIndex": 1,
      "confirmations": null,
      "from": "0x58D5d273a376bFEdc5203d4DE6f53fB7676bb134",
      "gasPrice": {
        "_hex": "0xba43b7400"
      },
      "gasLimit": {
        "_hex": "0x5208"
      },
      "to": "0x04F04B0f000d12107Bde142F3A3Cf2d519B1FEE0",
      "value": {
        "_hex": "0xaa9f075c200000"
      },
      "nonce": 1,
      "data": "0x",
      "r": "0x0ef5ac2d3f20191d1a18a5ea5a9f88d69b3939e8e04aad79bec258bdd5afafae",
      "s": "0x1ccd60c93d0c1034a1693f657ef1d5e323c22eb2edc94c887a0bef544254598c",
      "v": 28,
      "creates": null,
      "raw": "0xf86b01850ba43b74008252089404f04b0f000d12107bde142f3a3cf2d519b1fee087aa9f075c200000801ca00ef5ac2d3f20191d1a18a5ea5a9f88d69b3939e8e04aad79bec258bdd5afafaea01ccd60c93d0c1034a1693f657ef1d5e323c22eb2edc94c887a0bef544254598c",
      "networkId": 0,
      "chainId": 0
    },
    {
      "hash": "0xd62cb4df0cd5024694655b243433dff9677d3b1fac3f80fa8c42e94930a721ae",
      "blockHash": "0x5d324999fb06a3d240f97385841312b12a19f9ff4468d0dfd66f8847353fdb99",
      "blockNumber": 68570,
      "transactionIndex": 2,
      "confirmations": null,
      "from": "0xb7CFd02Fd59D228C1ACA50689EAffa50AAF1384c",
      "gasPrice": {
        "_hex": "0xba43b7400"
      },
      "gasLimit": {
        "_hex": "0x5208"
      },
      "to": "0x0C031A9bBaD5F8A488AE56B1a0a097cE1320aA00",
      "value": {
        "_hex": "0xaa9f075c200000"
      },
      "nonce": 1,
      "data": "0x",
      "r": "0xdaaf281a8f3c102ff7784a9a086d1b66b00a25e3b5a8c534dcd218287fd50680",
      "s": "0x402f6918f4f18c2e63e2ffc52373d4c389eb57a5383fc3a309e5991b91b8e908",
      "v": 27,
      "creates": null,
      "raw": "0xf86b01850ba43b7400825208940c031a9bbad5f8a488ae56b1a0a097ce1320aa0087aa9f075c200000801ba0daaf281a8f3c102ff7784a9a086d1b66b00a25e3b5a8c534dcd218287fd50680a0402f6918f4f18c2e63e2ffc52373d4c389eb57a5383fc3a309e5991b91b8e908",
      "networkId": 0,
      "chainId": 0
    },
    {
      "hash": "0x4f284a163e7d1d4304ad59616fffe74bbd510680537d7a9a375eca001b96fc90",
      "blockHash": "0x5d324999fb06a3d240f97385841312b12a19f9ff4468d0dfd66f8847353fdb99",
      "blockNumber": 68570,
      "transactionIndex": 3,
      "confirmations": null,
      "from": "0xcF2bE5A91fD40bc00A497f3B7649D47aB28C4E64",
      "gasPrice": {
        "_hex": "0xba43b7400"
      },
      "gasLimit": {
        "_hex": "0x5208"
      },
      "to": "0x60d52c5289c196b99d3ec2bc6f9270043D9804cC",
      "value": {
        "_hex": "0xaa9f075c200000"
      },
      "nonce": 1,
      "data": "0x",
      "r": "0x0626d229c8efaf97a1ad58a7293c59bb3dcbe9a14943580f2db857a03d7017a2",
      "s": "0x61e1d36c339f5f43f415a5f60d810f6452c1c421e57bd1b912c33ca47728caea",
      "v": 27,
      "creates": null,
      "raw": "0xf86b01850ba43b74008252089460d52c5289c196b99d3ec2bc6f9270043d9804cc87aa9f075c200000801ba00626d229c8efaf97a1ad58a7293c59bb3dcbe9a14943580f2db857a03d7017a2a061e1d36c339f5f43f415a5f60d810f6452c1c421e57bd1b912c33ca47728caea",
      "networkId": 0,
      "chainId": 0
    },
    {
      "hash": "0xb35fd171cb3393dddfb246c8da6b739908185c9bd72caecc575804655faacddd",
      "blockHash": "0x5d324999fb06a3d240f97385841312b12a19f9ff4468d0dfd66f8847353fdb99",
      "blockNumber": 68570,
      "transactionIndex": 4,
      "confirmations": null,
      "from": "0x3cC0FbfB7DBC88C9362f6cAfc49bDa77a583996a",
      "gasPrice": {
        "_hex": "0xba43b7400"
      },
      "gasLimit": {
        "_hex": "0x5208"
      },
      "to": "0xF5Ce3C601af96518c121F35604c212E7d5c6Ab5b",
      "value": {
        "_hex": "0xaa9f075c200000"
      },
      "nonce": 1,
      "data": "0x",
      "r": "0x1b14350990421e22ec2cbcb49fe86c46a27fa03cf11b2702b95f0f0649693593",
      "s": "0x081bba3f98feeaf3225fc43a41bdec50f8113aaaab6c2392dd90e4a494c01b8e",
      "v": 28,
      "creates": null,
      "raw": "0xf86b01850ba43b740082520894f5ce3c601af96518c121f35604c212e7d5c6ab5b87aa9f075c200000801ca01b14350990421e22ec2cbcb49fe86c46a27fa03cf11b2702b95f0f0649693593a0081bba3f98feeaf3225fc43a41bdec50f8113aaaab6c2392dd90e4a494c01b8e",
      "networkId": 0,
      "chainId": 0
    },
    {
      "hash": "0xb66252fcb35741ce8ee7ddaf1b10ce23e0d286a0b88f9859d1e6d57ae3f148c6",
      "blockHash": "0x5d324999fb06a3d240f97385841312b12a19f9ff4468d0dfd66f8847353fdb99",
      "blockNumber": 68570,
      "transactionIndex": 5,
      "confirmations": null,
      "from": "0x83f38C1c24748c571c8D1dE965504D01412a4a82",
      "gasPrice": {
        "_hex": "0xba43b7400"
      },
      "gasLimit": {
        "_hex": "0x5208"
      },
      "to": "0xC829A397a9935Abf0175cC6c99693Ed29951630b",
      "value": {
        "_hex": "0xaa9f075c200000"
      },
      "nonce": 1,
      "data": "0x",
      "r": "0x27b13e88a0db1b6e79fa969cc0de9201b15e11a17d42a74f87af8fe46d6cfdc5",
      "s": "0x7d3e6ce6b500e41641e3a287e2187a07007c4075047e2b656e81a706d89d4339",
      "v": 28,
      "creates": null,
      "raw": "0xf86b01850ba43b740082520894c829a397a9935abf0175cc6c99693ed29951630b87aa9f075c200000801ca027b13e88a0db1b6e79fa969cc0de9201b15e11a17d42a74f87af8fe46d6cfdc5a07d3e6ce6b500e41641e3a287e2187a07007c4075047e2b656e81a706d89d4339",
      "networkId": 0,
      "chainId": 0
    },
    {
      "hash": "0xee29cbccc600610e6b665e040f7f29d58a12e75707cb4cfe42e29301d36127ca",
      "blockHash": "0x5d324999fb06a3d240f97385841312b12a19f9ff4468d0dfd66f8847353fdb99",
      "blockNumber": 68570,
      "transactionIndex": 6,
      "confirmations": null,
      "from": "0x63C2158D62429ee93D343be37B44efFDd896DbeB",
      "gasPrice": {
        "_hex": "0xba43b7400"
      },
      "gasLimit": {
        "_hex": "0x5208"
      },
      "to": "0xBB2e13986309484dd6468e2f7db5BC9E53EF4AFf",
      "value": {
        "_hex": "0xaa9f075c200000"
      },
      "nonce": 1,
      "data": "0x",
      "r": "0x4eace0ffbb94ecad6c2ec9c7ec56330cd553d24413716832ee0237a62d3fe8d2",
      "s": "0x5ffc00724fd99d606be2fe877fa18cf6a7f914f9b23780b93b144789f868d480",
      "v": 28,
      "creates": null,
      "raw": "0xf86b01850ba43b740082520894bb2e13986309484dd6468e2f7db5bc9e53ef4aff87aa9f075c200000801ca04eace0ffbb94ecad6c2ec9c7ec56330cd553d24413716832ee0237a62d3fe8d2a05ffc00724fd99d606be2fe877fa18cf6a7f914f9b23780b93b144789f868d480",
      "networkId": 0,
      "chainId": 0
    },
    {
      "hash": "0x3491a9ed4d09fe110e9119a5baccb899b7bb651642517c711f4d3a7a07a3b200",
      "blockHash": "0x5d324999fb06a3d240f97385841312b12a19f9ff4468d0dfd66f8847353fdb99",
      "blockNumber": 68570,
      "transactionIndex": 7,
      "confirmations": null,
      "from": "0x050DCB8C66E9d164FE7d53357fdC4B9E806ddB24",
      "gasPrice": {
        "_hex": "0xba43b7400"
      },
      "gasLimit": {
        "_hex": "0x5208"
      },
      "to": "0xCaD3f480d3C14Ef9A9C9dfA8B130354f20A93674",
      "value": {
        "_hex": "0xaa9f075c200000"
      },
      "nonce": 1,
      "data": "0x",
      "r": "0x190c168a8388d493ed4607fa65a2d8c4ca902427911d544091c35df795687f14",
      "s": "0x230770deb721b35759601e88393f18c69e47e94eb6ffe10b86611a9e63feffc0",
      "v": 27,
      "creates": null,
      "raw": "0xf86b01850ba43b740082520894cad3f480d3c14ef9a9c9dfa8b130354f20a9367487aa9f075c200000801ba0190c168a8388d493ed4607fa65a2d8c4ca902427911d544091c35df795687f14a0230770deb721b35759601e88393f18c69e47e94eb6ffe10b86611a9e63feffc0",
      "networkId": 0,
      "chainId": 0
    },
    {
      "hash": "0x3d59a2f8d43a68565d834c72b6a4c2df59c8d128cff36ab57c842278c472b42a",
      "blockHash": "0x5d324999fb06a3d240f97385841312b12a19f9ff4468d0dfd66f8847353fdb99",
      "blockNumber": 68570,
      "transactionIndex": 8,
      "confirmations": null,
      "from": "0x75AEF2aaa36c9c2B8e97A48c49A89cd673d156ad",
      "gasPrice": {
        "_hex": "0xba43b7400"
      },
      "gasLimit": {
        "_hex": "0x5208"
      },
      "to": "0x3061f9e8E5564EE320C6a619C28B02737ad36fdD",
      "value": {
        "_hex": "0xaa9f075c200000"
      },
      "nonce": 1,
      "data": "0x",
      "r": "0xc4affd2f76002e866bb60b440bfd8546569b170e605b650cb0afce23e3b4f981",
      "s": "0x10937080f5c3c59008f31545cd7604960a078ac311fc2ca8e87bf20351847305",
      "v": 27,
      "creates": null,
      "raw": "0xf86b01850ba43b7400825208943061f9e8e5564ee320c6a619c28b02737ad36fdd87aa9f075c200000801ba0c4affd2f76002e866bb60b440bfd8546569b170e605b650cb0afce23e3b4f981a010937080f5c3c59008f31545cd7604960a078ac311fc2ca8e87bf20351847305",
      "networkId": 0,
      "chainId": 0
    },
    {
      "hash": "0x09742f15021a9261308224c7bc5068dfc8baddaf6f74c81c27a46a0b803dc302",
      "blockHash": "0x5d324999fb06a3d240f97385841312b12a19f9ff4468d0dfd66f8847353fdb99",
      "blockNumber": 68570,
      "transactionIndex": 9,
      "confirmations": null,
      "from": "0x901532083719Fa328b3CF1bEbc5fef2dAd660a56",
      "gasPrice": {
        "_hex": "0xba43b7400"
      },
      "gasLimit": {
        "_hex": "0x5208"
      },
      "to": "0xed165CE1728510608A1F65591173Bf68BD597598",
      "value": {
        "_hex": "0xaa9f075c200000"
      },
      "nonce": 1,
      "data": "0x",
      "r": "0xc6aea65c01a3cf07dd78273bb864790e99b0755eee45a138312497001945f7ef",
      "s": "0x5782cccd805581b53330f0c44882a8e6d9aa573fa0e38e68ccb55f2e4e106779",
      "v": 28,
      "creates": null,
      "raw": "0xf86b01850ba43b740082520894ed165ce1728510608a1f65591173bf68bd59759887aa9f075c200000801ca0c6aea65c01a3cf07dd78273bb864790e99b0755eee45a138312497001945f7efa05782cccd805581b53330f0c44882a8e6d9aa573fa0e38e68ccb55f2e4e106779",
      "networkId": 0,
      "chainId": 0
    },
    {
      "hash": "0xa0e58a7070924adf4721727ddc00ff4a5187a5388a6018f67a8f1dfbfc9874be",
      "blockHash": "0x5d324999fb06a3d240f97385841312b12a19f9ff4468d0dfd66f8847353fdb99",
      "blockNumber": 68570,
      "transactionIndex": 10,
      "confirmations": null,
      "from": "0xeD1A17aBf6704Bc0FA17771f95b00831f24d808a",
      "gasPrice": {
        "_hex": "0xba43b7400"
      },
      "gasLimit": {
        "_hex": "0x5208"
      },
      "to": "0x80FeF5cA24064ADBd088875A85E25e5D317f36C8",
      "value": {
        "_hex": "0xaa9f075c200000"
      },
      "nonce": 1,
      "data": "0x",
      "r": "0x5ef311c7983260b3dfe4dcb756e7d960663f4390dab80654e2af5161d130930f",
      "s": "0x30ad30dcd9e846404d30b0078cf54836efaefebe5f5d05bdfb2413b10613c9ce",
      "v": 28,
      "creates": null,
      "raw": "0xf86b01850ba43b74008252089480fef5ca24064adbd088875a85e25e5d317f36c887aa9f075c200000801ca05ef311c7983260b3dfe4dcb756e7d960663f4390dab80654e2af5161d130930fa030ad30dcd9e846404d30b0078cf54836efaefebe5f5d05bdfb2413b10613c9ce",
      "networkId": 0,
      "chainId": 0
    },
    {
      "hash": "0x95b9007479a1be67471d66d8951d2c1974a09b352abaff4a3d78a06a5f50b863",
      "blockHash": "0x5d324999fb06a3d240f97385841312b12a19f9ff4468d0dfd66f8847353fdb99",
      "blockNumber": 68570,
      "transactionIndex": 11,
      "confirmations": null,
      "from": "0x50032fC3e6253a2aF31bF68da09483bfa4Ce985f",
      "gasPrice": {
        "_hex": "0xba43b7400"
      },
      "gasLimit": {
        "_hex": "0x5208"
      },
      "to": "0xEef316eDD6a387D0c065f9A3E6416d86B343c41E",
      "value": {
        "_hex": "0xaa9f075c200000"
      },
      "nonce": 1,
      "data": "0x",
      "r": "0x70e58c8db69f7f377e2efc29179f7bcd44b7ef8c816363e56bd60c615f1eb3d3",
      "s": "0x1d3be29d508dc08cc830b11dac197daefaf421a5aefb39005da93c0fe1263c03",
      "v": 28,
      "creates": null,
      "raw": "0xf86b01850ba43b740082520894eef316edd6a387d0c065f9a3e6416d86b343c41e87aa9f075c200000801ca070e58c8db69f7f377e2efc29179f7bcd44b7ef8c816363e56bd60c615f1eb3d3a01d3be29d508dc08cc830b11dac197daefaf421a5aefb39005da93c0fe1263c03",
      "networkId": 0,
      "chainId": 0
    },
    {
      "hash": "0xbce3e413aaabc568aee49441d73f60c9c6e4824bee2b28e136b9e44660380406",
      "blockHash": "0x5d324999fb06a3d240f97385841312b12a19f9ff4468d0dfd66f8847353fdb99",
      "blockNumber": 68570,
      "transactionIndex": 12,
      "confirmations": null,
      "from": "0x9A863D99DB6a3A252E3e16D01273f874C23f8548",
      "gasPrice": {
        "_hex": "0xba43b7400"
      },
      "gasLimit": {
        "_hex": "0x5208"
      },
      "to": "0xd813564893f443456979D731a6f36E7E1D030E88",
      "value": {
        "_hex": "0xaa9f075c200000"
      },
      "nonce": 1,
      "data": "0x",
      "r": "0x4ec241e2f3bb40b226f82a6f842c57d8d197bc9a3b5cfffd72305b125d5110ac",
      "s": "0x71a560f9bed2120eb6052377c9c2aeda6dcad17b0d13a52cef4b82b44d8bef4e",
      "v": 27,
      "creates": null,
      "raw": "0xf86b01850ba43b740082520894d813564893f443456979d731a6f36e7e1d030e8887aa9f075c200000801ba04ec241e2f3bb40b226f82a6f842c57d8d197bc9a3b5cfffd72305b125d5110aca071a560f9bed2120eb6052377c9c2aeda6dcad17b0d13a52cef4b82b44d8bef4e",
      "networkId": 0,
      "chainId": 0
    },
    {
      "hash": "0xa5ecfec9464e7dc41cef6586663e9e9177b4cb947f816de8d3dfe8df01738391",
      "blockHash": "0x5d324999fb06a3d240f97385841312b12a19f9ff4468d0dfd66f8847353fdb99",
      "blockNumber": 68570,
      "transactionIndex": 13,
      "confirmations": null,
      "from": "0x167D2f4De25F54528F60a58A71cF558c67fBD07F",
      "gasPrice": {
        "_hex": "0xba43b7400"
      },
      "gasLimit": {
        "_hex": "0x5208"
      },
      "to": "0xd6d6266e3ADEd2BF2874df9780Cfe7cb1f268a30",
      "value": {
        "_hex": "0xaa9f075c200000"
      },
      "nonce": 1,
      "data": "0x",
      "r": "0xfe5e2b815dbf5523665474f25f35053c4f087523d973c3e523127e17ec85f3fd",
      "s": "0x1ee1612605db1c6777d4350cdf56d6c73eaebbb0f0614b898125dddc669ff839",
      "v": 28,
      "creates": null,
      "raw": "0xf86b01850ba43b740082520894d6d6266e3aded2bf2874df9780cfe7cb1f268a3087aa9f075c200000801ca0fe5e2b815dbf5523665474f25f35053c4f087523d973c3e523127e17ec85f3fda01ee1612605db1c6777d4350cdf56d6c73eaebbb0f0614b898125dddc669ff839",
      "networkId": 0,
      "chainId": 0
    },
    {
      "hash": "0x5f59e6088dbf4fa671bcbc42035e226ff3a9d7b92f189f46aa90020a2fca75f0",
      "blockHash": "0x5d324999fb06a3d240f97385841312b12a19f9ff4468d0dfd66f8847353fdb99",
      "blockNumber": 68570,
      "transactionIndex": 14,
      "confirmations": null,
      "from": "0xB487bdc0685dfD76969e3524c68a16C9c257CbAF",
      "gasPrice": {
        "_hex": "0xba43b7400"
      },
      "gasLimit": {
        "_hex": "0x5208"
      },
      "to": "0x0d7D63eAd1F93BD1222ac64D10fdE9C04B1C5828",
      "value": {
        "_hex": "0xaa9f075c200000"
      },
      "nonce": 1,
      "data": "0x",
      "r": "0x2b697d4b556352b50f9274331ce6c0c47a0bea37932ea13dd38e45aba8ff41db",
      "s": "0x74d3d0e7ea2971b26cc4e615930c621a85cf46c2c7849c0aae772a5ee0654685",
      "v": 28,
      "creates": null,
      "raw": "0xf86b01850ba43b7400825208940d7d63ead1f93bd1222ac64d10fde9c04b1c582887aa9f075c200000801ca02b697d4b556352b50f9274331ce6c0c47a0bea37932ea13dd38e45aba8ff41dba074d3d0e7ea2971b26cc4e615930c621a85cf46c2c7849c0aae772a5ee0654685",
      "networkId": 0,
      "chainId": 0
    },
    {
      "hash": "0xb7f648c8a921a9e2e0705ce255cf2a461d92493c96fc6b982d481b4a99df82bf",
      "blockHash": "0x5d324999fb06a3d240f97385841312b12a19f9ff4468d0dfd66f8847353fdb99",
      "blockNumber": 68570,
      "transactionIndex": 15,
      "confirmations": null,
      "from": "0x029b9c31F72b36722E16Fc1251371d5525fDe25C",
      "gasPrice": {
        "_hex": "0xba43b7400"
      },
      "gasLimit": {
        "_hex": "0x5208"
      },
      "to": "0xc1a4213A66464056090aA28e751cDf9d706f23c5",
      "value": {
        "_hex": "0xaa9f075c200000"
      },
      "nonce": 1,
      "data": "0x",
      "r": "0xaa151a9119f4a3b6172c644303619fe393c9e5dd02e8666bf5e9a6199ce2098c",
      "s": "0x46c8cbf4bca9b6889a2e54dd8f864b052ba2a4bc77fc7038ded8683f724f1426",
      "v": 28,
      "creates": null,
      "raw": "0xf86b01850ba43b740082520894c1a4213a66464056090aa28e751cdf9d706f23c587aa9f075c200000801ca0aa151a9119f4a3b6172c644303619fe393c9e5dd02e8666bf5e9a6199ce2098ca046c8cbf4bca9b6889a2e54dd8f864b052ba2a4bc77fc7038ded8683f724f1426",
      "networkId": 0,
      "chainId": 0
    },
    {
      "hash": "0x9bcd14942ae1cb38eb8829ab66a38eb02b0821e971a39ec345d59a1bcf963eaf",
      "blockHash": "0x5d324999fb06a3d240f97385841312b12a19f9ff4468d0dfd66f8847353fdb99",
      "blockNumber": 68570,
      "transactionIndex": 16,
      "confirmations": null,
      "from": "0x94C8E0B66BFFCE60AefB5F139786212d42951bC1",
      "gasPrice": {
        "_hex": "0xba43b7400"
      },
      "gasLimit": {
        "_hex": "0x5208"
      },
      "to": "0x64e4869041746d9D55C6D8896fe5750E9faD30f3",
      "value": {
        "_hex": "0xaa9f075c200000"
      },
      "nonce": 1,
      "data": "0x",
      "r": "0x0bf7f2e8151a9f3e2e1d764c4f877d1f42013e15d95ffa21e5415826629b4ebc",
      "s": "0x34acd9cb56e76eba841a383a2e11555b2f98f19d8c61ecf77eb26b3308b41e80",
      "v": 28,
      "creates": null,
      "raw": "0xf86b01850ba43b74008252089464e4869041746d9d55c6d8896fe5750e9fad30f387aa9f075c200000801ca00bf7f2e8151a9f3e2e1d764c4f877d1f42013e15d95ffa21e5415826629b4ebca034acd9cb56e76eba841a383a2e11555b2f98f19d8c61ecf77eb26b3308b41e80",
      "networkId": 0,
      "chainId": 0
    },
    {
      "hash": "0xe15c8e6eba966827bed7e2feb2d5b3a57759f2dc1c987bb9a289a5e7393ba664",
      "blockHash": "0x5d324999fb06a3d240f97385841312b12a19f9ff4468d0dfd66f8847353fdb99",
      "blockNumber": 68570,
      "transactionIndex": 17,
      "confirmations": null,
      "from": "0x5dDf24d6F14c588514FE00B07Ff7550dCE01eB4B",
      "gasPrice": {
        "_hex": "0xba43b7400"
      },
      "gasLimit": {
        "_hex": "0x5208"
      },
      "to": "0x903F53d3304cE48eaf57e0A1699b66e9642A0b31",
      "value": {
        "_hex": "0xaa9f075c200000"
      },
      "nonce": 1,
      "data": "0x",
      "r": "0x85ceca00fd2de0ad13375f9ae43eb6b009740e181f04b4fa7203314fefcabee9",
      "s": "0x384723c1d0ffb1ca3fd1ffd6613f296b296570f0ae2c9cea7f3daa7e6a71a777",
      "v": 28,
      "creates": null,
      "raw": "0xf86b01850ba43b740082520894903f53d3304ce48eaf57e0a1699b66e9642a0b3187aa9f075c200000801ca085ceca00fd2de0ad13375f9ae43eb6b009740e181f04b4fa7203314fefcabee9a0384723c1d0ffb1ca3fd1ffd6613f296b296570f0ae2c9cea7f3daa7e6a71a777",
      "networkId": 0,
      "chainId": 0
    },
    {
      "hash": "0x0cb84344808968b547cbd35d251e10acfb44512df36ee90f87b62ea8233803f8",
      "blockHash": "0x5d324999fb06a3d240f97385841312b12a19f9ff4468d0dfd66f8847353fdb99",
      "blockNumber": 68570,
      "transactionIndex": 18,
      "confirmations": null,
      "from": "0x340247D6E80bD3b14Bf8A8Bc63C864cbA4df26cd",
      "gasPrice": {
        "_hex": "0xba43b7400"
      },
      "gasLimit": {
        "_hex": "0x5208"
      },
      "to": "0xB598fdd55d1B2F388E588b68E8b012eaed3D7Aad",
      "value": {
        "_hex": "0xaa9f075c200000"
      },
      "nonce": 1,
      "data": "0x",
      "r": "0x3b9e92063c651f962dfd69492a34290e06dbf8c538bf5555037d7c2bcdb1075b",
      "s": "0x26e2fef0c3c6ce36b1f116c5908282a8ac8529789e7d86c1d745695cf73106e0",
      "v": 28,
      "creates": null,
      "raw": "0xf86b01850ba43b740082520894b598fdd55d1b2f388e588b68e8b012eaed3d7aad87aa9f075c200000801ca03b9e92063c651f962dfd69492a34290e06dbf8c538bf5555037d7c2bcdb1075ba026e2fef0c3c6ce36b1f116c5908282a8ac8529789e7d86c1d745695cf73106e0",
      "networkId": 0,
      "chainId": 0
    },
    {
      "hash": "0x1bfbb856516463a149189f25595aba85e69df8abf2f97af0ba96a270e8ebe22f",
      "blockHash": "0x5d324999fb06a3d240f97385841312b12a19f9ff4468d0dfd66f8847353fdb99",
      "blockNumber": 68570,
      "transactionIndex": 19,
      "confirmations": null,
      "from": "0x043B49D2D396c76fdF30C7CAaa41b3F1fff0E706",
      "gasPrice": {
        "_hex": "0xba43b7400"
      },
      "gasLimit": {
        "_hex": "0x5208"
      },
      "to": "0x14FE79e199A27B8eb9C5666BC6B6C7ea3c9AEf52",
      "value": {
        "_hex": "0xaa9f075c200000"
      },
      "nonce": 1,
      "data": "0x",
      "r": "0x2d56bac2d59840efc493714dfda5c6914031f062af78cdc03eaa1084c29776bd",
      "s": "0x727773095ccb39b0d100ea02aafb496f9218e0f00d767e545f763ce33439e087",
      "v": 28,
      "creates": null,
      "raw": "0xf86b01850ba43b74008252089414fe79e199a27b8eb9c5666bc6b6c7ea3c9aef5287aa9f075c200000801ca02d56bac2d59840efc493714dfda5c6914031f062af78cdc03eaa1084c29776bda0727773095ccb39b0d100ea02aafb496f9218e0f00d767e545f763ce33439e087",
      "networkId": 0,
      "chainId": 0
    },
    {
      "hash": "0x2890a52bfb451c17cfe0829b3808cc8a74fe789764c881d790d803485570e023",
      "blockHash": "0x5d324999fb06a3d240f97385841312b12a19f9ff4468d0dfd66f8847353fdb99",
      "blockNumber": 68570,
      "transactionIndex": 20,
      "confirmations": null,
      "from": "0x101543e0791be1b31Ce58683a59ea1Fb91054AF7",
      "gasPrice": {
        "_hex": "0xba43b7400"
      },
      "gasLimit": {
        "_hex": "0x5208"
      },
      "to": "0xFA4F525ccb8b486672ee5768cC75a41b9b159B74",
      "value": {
        "_hex": "0xaa9f075c200000"
      },
      "nonce": 1,
      "data": "0x",
      "r": "0x18c4c75129686da0e283e769ad1ee14c2906f60fe1bd7e6e5ae4234bb04424b5",
      "s": "0x1a4607fb380c9ca91a7aeb2f77f903eda16b611175359d0340472c572222b32b",
      "v": 28,
      "creates": null,
      "raw": "0xf86b01850ba43b740082520894fa4f525ccb8b486672ee5768cc75a41b9b159b7487aa9f075c200000801ca018c4c75129686da0e283e769ad1ee14c2906f60fe1bd7e6e5ae4234bb04424b5a01a4607fb380c9ca91a7aeb2f77f903eda16b611175359d0340472c572222b32b",
      "networkId": 0,
      "chainId": 0
    },
    {
      "hash": "0xdcd30eef5523ed4490f075224445de557fd8ab07adc9b49b5449a592db414e28",
      "blockHash": "0x5d324999fb06a3d240f97385841312b12a19f9ff4468d0dfd66f8847353fdb99",
      "blockNumber": 68570,
      "transactionIndex": 21,
      "confirmations": null,
      "from": "0x4fA363bFA647527426D6408728635B116cEADCC8",
      "gasPrice": {
        "_hex": "0xba43b7400"
      },
      "gasLimit": {
        "_hex": "0x5208"
      },
      "to": "0xA5Ac8bd187F7d0e34f4ddDc2c70f6E7420f7318d",
      "value": {
        "_hex": "0xaa9f075c200000"
      },
      "nonce": 1,
      "data": "0x",
      "r": "0xc4d7d56af774beae774e1fceed51d585bc199f06c73bb57a8602bd0cf319c62c",
      "s": "0x2fc915344fb020f7ddf33b2d8cd7f0d609d4af51af2df913037f6e67934c5575",
      "v": 28,
      "creates": null,
      "raw": "0xf86b01850ba43b740082520894a5ac8bd187f7d0e34f4dddc2c70f6e7420f7318d87aa9f075c200000801ca0c4d7d56af774beae774e1fceed51d585bc199f06c73bb57a8602bd0cf319c62ca02fc915344fb020f7ddf33b2d8cd7f0d609d4af51af2df913037f6e67934c5575",
      "networkId": 0,
      "chainId": 0
    },
    {
      "hash": "0x619eaa895ad75c5a787b4c4a3e0a219fc497f98344b4c21d6500a37b07d74f24",
      "blockHash": "0x5d324999fb06a3d240f97385841312b12a19f9ff4468d0dfd66f8847353fdb99",
      "blockNumber": 68570,
      "transactionIndex": 22,
      "confirmations": null,
      "from": "0x046A624ac65bfd90b084564EAf74a48e4A643115",
      "gasPrice": {
        "_hex": "0xba43b7400"
      },
      "gasLimit": {
        "_hex": "0x5208"
      },
      "to": "0x7Cc44620350392a61433140354eac3f5d929a448",
      "value": {
        "_hex": "0xaa9f075c200000"
      },
      "nonce": 1,
      "data": "0x",
      "r": "0xd53a97fdaf1f467cd7a61cd31165042dcb8c48e3b9d9743d993623e276256c46",
      "s": "0x4eea16a8c61c6b4a475ba9010e490417bb382400300f28a5c3ded452d58c727c",
      "v": 28,
      "creates": null,
      "raw": "0xf86b01850ba43b7400825208947cc44620350392a61433140354eac3f5d929a44887aa9f075c200000801ca0d53a97fdaf1f467cd7a61cd31165042dcb8c48e3b9d9743d993623e276256c46a04eea16a8c61c6b4a475ba9010e490417bb382400300f28a5c3ded452d58c727c",
      "networkId": 0,
      "chainId": 0
    },
    {
      "hash": "0x644ece3c38e4b8946bf3885521c633578cd2d1ae4b4cd29011942380c50ba4d2",
      "blockHash": "0x5d324999fb06a3d240f97385841312b12a19f9ff4468d0dfd66f8847353fdb99",
      "blockNumber": 68570,
      "transactionIndex": 23,
      "confirmations": null,
      "from": "0xefd0F53b95c807257cA06071afF590E4251F5bbB",
      "gasPrice": {
        "_hex": "0xba43b7400"
      },
      "gasLimit": {
        "_hex": "0x5208"
      },
      "to": "0xfBb274b243adf278B9d86e286343b665B95649Eb",
      "value": {
        "_hex": "0xaa9f075c200000"
      },
      "nonce": 1,
      "data": "0x",
      "r": "0x0d704ea55d1e4ea7f94cc0d3dd9248085462d6ec93854ee950c38fa53392081c",
      "s": "0x4e447d6aab00ec7931ad7e6d389b348c8e0e4fe5b3a91a829f6c5940f93f16ad",
      "v": 28,
      "creates": null,
      "raw": "0xf86b01850ba43b740082520894fbb274b243adf278b9d86e286343b665b95649eb87aa9f075c200000801ca00d704ea55d1e4ea7f94cc0d3dd9248085462d6ec93854ee950c38fa53392081ca04e447d6aab00ec7931ad7e6d389b348c8e0e4fe5b3a91a829f6c5940f93f16ad",
      "networkId": 0,
      "chainId": 0
    }
  ]
}