{
  "hash": "0x6683f2c39b0d9056a91b3d8ab7f93803c6578905538aa60489f89b7ea7a91ee0",
  "parentHash": "0x7a66ee8b253f4127a8ba04dbee5962306a8646a2d723d5ceeb5f1becb3932b23",
  "number": 80282,
  "timestamp": 1439483024,
  "nonce": "0x40151c7d9ad68ef3",
  "difficulty": 2386367585706,
  "gasLimit": {
    "_hex": "0x2fefd8"
  },
  "gasUsed": {
    "_hex": "0x206b5"
  },
  "miner": "0x88963EC7c5F9D79b393bBF083373F86945300eA1",
  "extraData": "0x476574682f76312e302e312f6c696e75782f676f312e342e32",
  "transactions": [
    {
      "hash": "0xed2c683fb694804d696826257e15f5ce81269b40187d7f06d0080dd22dc25603",
      "blockHash": "0x6683f2c39b0d9056a91b3d8ab7f93803c6578905538aa60489f89b7ea7a91ee0",
      "blockNumber": 80282,
      "transactionIndex": 0,
      "confirmations": null,
      "from": "0x87C5B5874A18B4306DF8a752a6C8cc3E82daFc19",
      "gasPrice": {
        "_hex": "0x101e19ea4fe"
      },
      "gasLimit": {
        "_hex": "0x493e0"
      },
      "to": "0xC4c51de1AbF5D60DBd329eC0F999Fd8f021ae9fC",
      "value": {
        "_hex": "0x2c893a785669d805"
      },
      "nonce": 162,
      "data": "0x8d216186000000000000000000000000000000000000000000000000000000000000001ad3d96ceed0cfca4794c2a5a3d3aeefe69da0a2a669e66a5651f30b64831c3db0",
      "r": "0xc346624dcd29f6ae707450f89be9dbb9a13b528061c1466e7e000ad97ccef32c",
      "s": "0x2733127baaa3c12561c20143e787e0192965d1cdec0b3c7c10906c73b33daca5",
      "v": 27,
      "creates": null,
      "raw": "0xf8b481a2860101e19ea4fe830493e094c4c51de1abf5d60dbd329ec0f999fd8f021ae9fc882c893a785669d805b8448d216186000000000000000000000000000000000000000000000000000000000000001ad3d96ceed0cfca4794c2a5a3d3aeefe69da0a2a669e66a5651f30b64831c3db01ba0c346624dcd29f6ae707450f89be9dbb9a13b528061c1466e7e000ad97ccef32ca02733127baaa3c12561c20143e787e0192965d1cdec0b3c7c10906c73b33daca5",
      "networkId": 0,
      "chainId": 0
    },
    {
      "hash": "0x71cb434978d27167cd965c978abd495193d7419d12791a2b81058d854b17d076",
      "blockHash": "0x6683f2c39b0d9056a91b3d8ab7f93803c6578905538aa60489f89b7ea7a91ee0",
      "blockNumber": 80282,
      "transactionIndex": 1,
      "confirmations": null,
      "from": "0x882dEC39352D0baC3548879651FB0Fc9dED217fd",
      "gasPrice": {
        "_hex": "0xcd01555c5"
      },
      "gasLimit": {
        "_hex": "0x15f90"
      },
      "to": "0xb1abce2918E21ddb93AA452731a12672A3d9F75a",
      "value": {
        "_hex": "0x3ee23bde0e7d20000"
      },
      "nonce": 0,
      "data": "0x",
      "r": "0x91b1de05df1bf32d46a51dc7accfc0461f38537a919cc21b3c7708d127bfcb01",
      "s": "0x1036df61b8f08683cc5c53c0612d5a24e523c5773f6bd825360b230af24836ff",
      "v": 27,
      "creates": null,
      "raw": "0xf86e80850cd01555c583015f9094b1abce2918e21ddb93aa452731a12672a3d9f75a8903ee23bde0e7d20000801ba091b1de05df1bf32d46a51dc7accfc0461f38537a919cc21b3c7708d127bfcb01a01036df61b8f08683cc5c53c0612d5a24e523c5773f6bd825360b230af24836ff",
      "networkId": 0,
      "chainId": 0
    }
  ]
}