{
  "hash": "0xfd53e561491464d7551c4be8d0adae3de28b907a92c0cd8849ddf2eec09c26cd",
  "parentHash": "0x7e7decade0e599eba32152bc84dc32c2d4218e8c07a71576cf07f050b636d687",
  "number": 72328,
  "timestamp": 1439350969,
  "nonce": "0x56f5188d814fcf7d",
  "difficulty": 2179125565905,
  "gasLimit": {
    "_hex": "0x2fefd8"
  },
  "gasUsed": {
    "_hex": "0x5208"
  },
  "miner": "0x55D1554b08a5311C5c0A0B6464162192f9D2f884",
  "extraData": "0x",
  "transactions": [
    {
      "hash": "0xafea7a9a021947f9324c793adeeaac65eb942507f7e587a6a9255b49a5e13bc6",
      "blockHash": "0xfd53e561491464d7551c4be8d0adae3de28b907a92c0cd8849ddf2eec09c26cd",
      "blockNumber": 72328,
      "transactionIndex": 0,
      "confirmations": null,
      "from": "0x2C89f5FDcA3D155409b638B98A742E55eb4652B7",
      "gasPrice": {
        "_hex": "0x9184e72a000"
      },
      "gasLimit": {
        "_hex": "0x15f90"
      },
      "to": "0x113C6d39dA7c489706850Fa452cCe784d713262b",
      "value": {
        "_hex": "0x3635c9adc5dea00000"
      },
      "nonce": 1,
      "data": "0x",
      "r": "0x18022c7caf1f2d16f2d5f79eccb66d944c5132b7ee5e0510f064dc7e795bfb34",
      "s": "0x25f9af4fe261017d6151cc1527abb7fa0ef54658d39dd60bf9f50402cd819901",
      "v": 28,
      "creates": null,
      "raw": "0xf86f018609184e72a00083015f9094113c6d39da7c489706850fa452cce784d713262b893635c9adc5dea00000801ca018022c7caf1f2d16f2d5f79eccb66d944c5132b7ee5e0510f064dc7e795bfb34a025f9af4fe261017d6151cc1527abb7fa0ef54658d39dd60bf9f50402cd819901",
      "networkId": 0,
      "chainId": 0
    }
  ]
}