{
  "hash": "0x039f027c975aee0b786a7a6322fcf61d525088496aa10990ab9a0e00523cb000",
  "parentHash": "0x126b83a784d2c60b16ff1d612ccf1c24139742e0a5a30cc0adb260dc9cc0bd4a",
  "number": 59257,
  "timestamp": 1439134988,
  "nonce": "0xc793100cb63cda14",
  "difficulty": 1707237174464,
  "gasLimit": {
    "_hex": "0x2fefd8"
  },
  "gasUsed": {
    "_hex": "0x5208"
  },
  "miner": "0xbb7B8287f3F0a933474a79eAe42CBCa977791171",
  "extraData": "0x476574682f4c5649562f76312e302e312f6c696e75782f676f312e342e32",
  "transactions": [
    {
      "hash": "0x36a34b50fe6a3b9e93acff9ba508eb9d6e0a2c930313ef456286c8ed777b497b",
      "blockHash": "0x039f027c975aee0b786a7a6322fcf61d525088496aa10990ab9a0e00523cb000",
      "blockNumber": 59257,
      "transactionIndex": 0,
      "confirmations": null,
      "from": "0xA10C59651885FeAaac91F871082a23BBbaBeDfCf",
      "gasPrice": {
        "_hex": "0x114ce67acda"
      },
      "gasLimit": {
        "_hex": "0x5208"
      },
      "to": "0x4c74B6F32c9680aCB5Fe0e72B7Aa95C612540A04",
      "value": {
        "_hex": "0x56bc75e2d63100000"
      },
      "nonce": 5,
      "data": "0x",
      "r": "0x45d73f0ec478ec39c097765e1e5e18884e091a356a62e8b8c1458f6112f5a34b",
      "s": "0x32b2c73d069d117938453853a27f31763df4272003b7a58341377ae3f04d37c3",
      "v": 28,
      "creates": null,
      "raw": "0xf86e05860114ce67acda825208944c74b6f32c9680acb5fe0e72b7aa95c612540a0489056bc75e2d63100000801ca045d73f0ec478ec39c097765e1e5e18884e091a356a62e8b8c1458f6112f5a34ba032b2c73d069d117938453853a27f31763df4272003b7a58341377ae3f04d37c3",
      "networkId": 0,
      "chainId": 0
    }
  ]
}