{
  "hash": "0x2b35d3dc9bd75ecd09b00395486c0b85488aeec4358b0e53e038b44f45f821a2",
  "parentHash": "0x9c302480e4f389b34d40d4fd170510d78556825fd73d776a79fd89b2048289ec",
  "number": 65145,
  "timestamp": 1439232058,
  "nonce": "0xfe445b2ec0da2ebc",
  "difficulty": 1933195787417,
  "gasLimit": {
    "_hex": "0x2fefd8"
  },
  "gasUsed": {
    "_hex": "0x546c"
  },
  "miner": "0x88D74a59454F6cF3B51ef6b9136AFb6b9D405A88",
  "extraData": "0x476574682f76312e302e312d37666266393930632f6c696e75782f676f312e34",
  "transactions": [
    {
      "hash": "0xd492c6718a8debb26e64ae2cba8ec9881b368e3e327bebfd3e9ce2567b2c456e",
      "blockHash": "0x2b35d3dc9bd75ecd09b00395486c0b85488aeec4358b0e53e038b44f45f821a2",
      "blockNumber": 65145,
      "transactionIndex": 0,
      "confirmations": null,
      "from": "0xa914cDb571BFd93D64da66a4e108EA134e50D000",
      "gasPrice": {
        "_hex": "0x9184e72a000"
      },
      "gasLimit": {
        "_hex": "0x55f0"
      },
      "to": "0x2910543Af39abA0Cd09dBb2D50200b3E800A63D2",
      "value": {
        "_hex": "0x56bc75e2d63100000"
      },
      "nonce": 13,
      "data": "0x454e43523838455252",
      "r": "0x3713d62b2d659b3b79bcd6ad17526c697944c054126b28ee1a8d8711f15d80b9",
      "s": "0x20d7610eb1feacaf2df94cb3b406a8d09c34961646c034b853af6dc296de9f7d",
      "v": 27,
      "creates": null,
      "raw": "0xf8770d8609184e72a0008255f0942910543af39aba0cd09dbb2d50200b3e800a63d289056bc75e2d6310000089454e435238384552521ba03713d62b2d659b3b79bcd6ad17526c697944c054126b28ee1a8d8711f15d80b9a020d7610eb1feacaf2df94cb3b406a8d09c34961646c034b853af6dc296de9f7d",
      "networkId": 0,
      "chainId": 0
    }
  ]
}