{
  "hash": "0x85008e416fe2aec76df1a3f98a7ee9576ffb88e8ea580f60a4b1b8a5686f689d",
  "parentHash": "0x198002a91dd7a0a3b4ef68fc43520117b77e7e935c6c3ed23d0faeeece6acfd9",
  "number": 120526,
  "timestamp": 1440161403,
  "nonce": "0x5239887e32e4d218",
  "difficulty": 4419686257714,
  "gasLimit": {
    "_hex": "0x2fefd8"
  },
  "gasUsed": {
    "_hex": "0x5208"
  },
  "miner": "0x790b8a3cE86E707ED0eD32bF89B3269692a23CC1",
  "extraData": "0xd783010002844765746887676f312e342e32856c696e7578",
  "transactions": [
    {
      "hash": "0x88fc9b4b0d8be97a97ac694f21c2c55a6b7d394d3a3b37574e392fe621c9b822",
      "blockHash": "0x85008e416fe2aec76df1a3f98a7ee9576ffb88e8ea580f60a4b1b8a5686f689d",
      "blockNumber": 120526,
      "transactionIndex": 0,
      "confirmations": null,
      "from": "0xa70a9a7040d542C632D8e0bE7c5513A8a5Bbc752",
      "gasPrice": {
        "_hex": "0xba43b7400"
      },
      "gasLimit": {
        "_hex": "0x5208"
      },
      "to": "0x32Be343B94f860124dC4fEe278FDCBD38C102D88",
      "value": {
        "_hex": "0x456bc32adda9c000"
      },
      "nonce": 327,
      "data": "0x",
      "r": "0xaf192701521088690c7d9ab92f91fcfb49fe56dc7c7194c0e98b2b5c30d9c8c8",
      "s": "0x7cb7db258633c3f3837f4fc3838b716e9413799679b32baab88f15df2bf24f7b",
      "v": 27,
      "creates": null,
      "raw": "0xf86e820147850ba43b74008252089432be343b94f860124dc4fee278fdcbd38c102d8888456bc32adda9c000801ba0af192701521088690c7d9ab92f91fcfb49fe56dc7c7194c0e98b2b5c30d9c8c8a07cb7db258633c3f3837f4fc3838b716e9413799679b32baab88f15df2bf24f7b",
      "networkId": 0,
      "chainId": 0
    }
  ]
}