{
  "hash": "0x3afa002cb766e9bada3c6cd96debfc590ba3fd87015101a1d791867e854a44f1",
  "parentHash": "0xb998c80e7f074d9154227f11ca29140d18610b6cfd75471d6417ca645dc05f2a",
  "number": 85906,
  "timestamp": 1439570583,
  "nonce": "0x446623112a4d57ae",
  "difficulty": 2782636404589,
  "gasLimit": {
    "_hex": "0x2fefd8"
  },
  "gasUsed": {
    "_hex": "0x5208"
  },
  "miner": "0x87898CE53471043FcCa0a2aF4E1dC6d8B3fCf607",
  "extraData": "0x476574682f5369626572696131392f76312e302e312d37666266393930632f6c",
  "transactions": [
    {
      "hash": "0x62d38e056abd643dfb03b885159a756df2527e713bc704d91490e72348561f4b",
      "blockHash": "0x3afa002cb766e9bada3c6cd96debfc590ba3fd87015101a1d791867e854a44f1",
      "blockNumber": 85906,
      "transactionIndex": 0,
      "confirmations": null,
      "from": "0xa70a9a7040d542C632D8e0bE7c5513A8a5Bbc752",
      "gasPrice": {
        "_hex": "0xd64990676"
      },
      "gasLimit": {
        "_hex": "0x5208"
      },
      "to": "0x32Be343B94f860124dC4fEe278FDCBD38C102D88",
      "value": {
        "_hex": "0x478a636c3c67b000"
      },
      "nonce": 93,
      "data": "0x",
      "r": "0xb96075a7ac5f085103f0f1b7f972a49550e025c06f7323b4d528613d3dc0b2ad",
      "s": "0x298fc93733419c309800d4aa4e862cf5a1409f51bf1ea1180b2d653f3eab9fc7",
      "v": 27,
      "creates": null,
      "raw": "0xf86c5d850d649906768252089432be343b94f860124dc4fee278fdcbd38c102d8888478a636c3c67b000801ba0b96075a7ac5f085103f0f1b7f972a49550e025c06f7323b4d528613d3dc0b2ada0298fc93733419c309800d4aa4e862cf5a1409f51bf1ea1180b2d653f3eab9fc7",
      "networkId": 0,
      "chainId": 0
    }
  ]
}