{
  "hash": "0x30983ae2d9fedec5897e50151a34b756b97555b9f6b20b2b7444dfb82403dc00",
  "parentHash": "0x6377cc0b7ea2b09ae223a7e4e88e01cc0dd306b5a214524c34d2858274a24831",
  "number": 88681,
  "timestamp": 1439611754,
  "nonce": "0x6d8b76aa5a1eee77",
  "difficulty": 3231577393272,
  "gasLimit": {
    "_hex": "0x2fefd8"
  },
  "gasUsed": {
    "_hex": "0x203ca"
  },
  "miner": "0xf927a40C8B7F6E07c5af7FA2155B4864a4112B13",
  "extraData": "0x",
  "transactions": [
    {
      "hash": "0x07ec00d6cd4a3719581d4cc0adf97c98fcb2e0f0729ead0fc42b95e569d6d825",
      "blockHash": "0x30983ae2d9fedec5897e50151a34b756b97555b9f6b20b2b7444dfb82403dc00",
      "blockNumber": 88681,
      "transactionIndex": 0,
      "confirmations": null,
      "from": "0x77b97786B0FB73e55d9E92d4B182beFBF346F979",
      "gasPrice": {
        "_hex": "0xce5f5dd2b"
      },
      "gasLimit": {
        "_hex": "0x2fefd8"
      },
      "to": "0xA236078f02627205B2E3bDeA8dBA2e9D150113D3",
      "value": {
        "_hex": "0x16345785d8a0000"
      },
      "nonce": 15,
      "data": "0x1335ff3600000000000000000000000000000000f003cf4e10a043104ad18ccc64ea51860000000000000000000000000000000000000000000000000000000000000001000000000000000000000000000000000000000000000000000000000000000f0000000000000000000000000000000000000000000000000000000055d380b0000000000000000000000000e37673a8e0aaa536828f0d5b0ddba12fece1115c0000000000000000000000000000000000000000000000000000000000000000000000000000000000000000000000000000000000000000000000000000000000000000000000000000000000000000000000000000000000000000000000000000000000000000000000000000000000000000000000000000000000000000",
      "r": "0x13536f3253dc6d994394e84b5946c62c5a9130d20f447f143b0f0e857e2249e6",
      "s": "0x4070be05cd65d64839d3bd6e9c45891dae8c5b7248ab29851301aff680da628e",
      "v": 28,
      "creates": null,
      "raw": "0xf901930f850ce5f5dd2b832fefd894a236078f02627205b2e3bdea8dba2e9d150113d388016345785d8a0000b901241335ff3600000000000000000000000000000000f003cf4e10a043104ad18ccc64ea51860000000000000000000000000000000000000000000000000000000000000001000000000000000000000000000000000000000000000000000000000000000f0000000000000000000000000000000000000000000000000000000055d380b0000000000000000000000000e37673a8e0aaa536828f0d5b0ddba12fece1115c00000000000000000000000000000000000000000000000000000000000000000000000000000000000000000000000000000000000000000000000000000000000000000000000000000000000000000000000000000000000000000000000000000000000000000000000000000000000000000000000000000000000000001ca013536f3253dc6d994394e84b5946c62c5a9130d20f447f143b0f0e857e2249e6a04070be05cd65d64839d3bd6e9c45891dae8c5b7248ab29851301aff680da628e",
      "networkId": 0,
      "chainId": 0
    }
  ]
}