{
  "hash": "0x58617b6c8e401f9cb90c83a59149a353157afd782fcd5a4f82c300f7d131debf",
  "parentHash": "0xaf55917ad2739085e82a7887e4e9e7e37f89b17aeb5ab3e9f36268f86b9e2b48",
  "number": 55676,
  "timestamp": 1439074897,
  "nonce": "0x965f9befb3b6f0f4",
  "difficulty": 1609979150698,
  "gasLimit": {
    "_hex": "0x2fefd5"
  },
  "gasUsed": {
    "_hex": "0x5208"
  },
  "miner": "0xa50ec0D39fa913E62f1Bae7074E6F36caA71855b",
  "extraData": "0x",
  "transactions": [
    {
      "hash": "0x6add338632d80b23c088e1e9a7ed139fe3476f04a97e5597dc8c9624777c5f8d",
      "blockHash": "0x58617b6c8e401f9cb90c83a59149a353157afd782fcd5a4f82c300f7d131debf",
      "blockNumber": 55676,
      "transactionIndex": 0,
      "confirmations": null,
      "from": "0x32Be343B94f860124dC4fEe278FDCBD38C102D88",
      "gasPrice": {
        "_hex": "0xd0919adb3"
      },
      "gasLimit": {
        "_hex": "0x5208"
      },
      "to": "0xb794F5eA0ba39494cE839613fffBA74279579268",
      "value": {
        "_hex": "0x152d02c7e14af6000000"
      },
      "nonce": 73,
      "data": "0x",
      "r": "0x753136faa8fb4d759399a2ef9aafbe95f6c0af1bab6c0d96c15870eddfe40efb",
      "s": "0x7d58352dff8b0adb7feb1a3830310d4e3c7589e87defe51883d733ea0e23bbd4",
      "v": 27,
      "creates": null,
      "raw": "0xf86e49850d0919adb382520894b794f5ea0ba39494ce839613fffba742795792688a152d02c7e14af6000000801ba0753136faa8fb4d759399a2ef9aafbe95f6c0af1bab6c0d96c15870eddfe40efba07d58352dff8b0adb7feb1a3830310d4e3c7589e87defe51883d733ea0e23bbd4",
      "networkId": 0,
      "chainId": 0
    }
  ]
}