{
  "hash": "0x6ca37af487d782dc10c83075560421dee324135c3f6cb81537deccb8341d3563",
  "parentHash": "0xe04f6ff89477a0a330716034f4606cca26cd02b28340a3bdce674250a469d6ac",
  "number": 117374,
  "timestamp": 1440108344,
  "nonce": "0xf4a969a9de1cb4e5",
  "difficulty": 4310499677542,
  "gasLimit": {
    "_hex": "0x2fefd8"
  },
  "gasUsed": {
    "_hex": "0x5208"
  },
  "miner": "0xe6A7a1d47ff21B6321162AEA7C6CB457D5476Bca",
  "extraData": "0xd783010002844765746887676f312e342e32856c696e7578",
  "transactions": [
    {
      "hash": "0x189b5f53997500ed927a9ab470929784e4aed656a8baf44ae3022d29d6fd07e3",
      "blockHash": "0x6ca37af487d782dc10c83075560421dee324135c3f6cb81537deccb8341d3563",
      "blockNumber": 117374,
      "transactionIndex": 0,
      "confirmations": null,
      "from": "0x50087E7383C8865C1C136b8777C4350B8ed472CE",
      "gasPrice": {
        "_hex": "0xd3d37f23a"
      },
      "gasLimit": {
        "_hex": "0x15f90"
      },
      "to": "0x647fe784fb1A8380972fB6eA08D6eEd74D1a5699",
      "value": {
        "_hex": "0x1158e460913d00000"
      },
      "nonce": 8,
      "data": "0x",
      "r": "0x74defede959588c938d472782153e8f7fac211fbcfb778e3f108c7896b9b9eb9",
      "s": "0x134aa59f41013541f910d405bf38d970c8ba7fe7a386b60aa47f42d357b2caec",
      "v": 27,
      "creates": null,
      "raw": "0xf86e08850d3d37f23a83015f9094647fe784fb1a8380972fb6ea08d6eed74d1a56998901158e460913d00000801ba074defede959588c938d472782153e8f7fac211fbcfb778e3f108c7896b9b9eb9a0134aa59f41013541f910d405bf38d970c8ba7fe7a386b60aa47f42d357b2caec",
      "networkId": 0,
      "chainId": 0
    }
  ]
}