{
  "hash": "0xb980eeec6127e49babb13a079dac24d55db5d22d397425cc65682232305c75a4",
  "parentHash": "0xd94f3cf2e2a89f5dac7436adc8bd799bc057a7c4818495fa20c54897acb17339",
  "number": 70357,
  "timestamp": 1439318730,
  "nonce": "0xd53594d7460fc94b",
  "difficulty": 2136436188785,
  "gasLimit": {
    "_hex": "0x2fefd8"
  },
  "gasUsed": {
    "_hex": "0x5208"
  },
  "miner": "0xE409d18384025B84Ce2f77E21Db73aade4c3cF67",
  "extraData": "0x",
  "transactions": [
    {
      "hash": "0xb47b6c2b4b44c9643e04756490d45dc6d605a297f1a9a2c85ac004a5bf950b5d",
      "blockHash": "0xb980eeec6127e49babb13a079dac24d55db5d22d397425cc65682232305c75a4",
      "blockNumber": 70357,
      "transactionIndex": 0,
      "confirmations": null,
      "from": "0x32Be343B94f860124dC4fEe278FDCBD38C102D88",
      "gasPrice": {
        "_hex": "0xde75afbbf"
      },
      "gasLimit": {
        "_hex": "0x5208"
      },
      "to": "0xC20b3638Bf021A5f01B7732C141963181DDF3366",
      "value": {
        "_hex": "0xa2a139825f2c200000"
      },
      "nonce": 248,
      "data": "0x",
      "r": "0xb4ae79695086374bb6f5df093b63494770d72f3a1eac0bed6c6f5278ea3a8bfa",
      "s": "0x487aa99f8a67c4e2128d71785a37b35e8bd9c3118d077d9506486a48fd94cafd",
      "v": 27,
      "creates": null,
      "raw": "0xf86e81f8850de75afbbf82520894c20b3638bf021a5f01b7732c141963181ddf336689a2a139825f2c200000801ba0b4ae79695086374bb6f5df093b63494770d72f3a1eac0bed6c6f5278ea3a8bfaa0487aa99f8a67c4e2128d71785a37b35e8bd9c3118d077d9506486a48fd94cafd",
      "networkId": 0,
      "chainId": 0
    }
  ]
}