{
  "hash": "0xa03aee407e276a98bc7cd421f63575d0728ebebd4e8dba8ff9577c8e8974aeaa",
  "parentHash": "0x1e5fece31db862d118640622bc9fdb88c97f60eb57bd0fecf15bd34f15f92aa3",
  "number": 103707,
  "timestamp": 1439857757,
  "nonce": "0x5d3a83c9f9eff197",
  "difficulty": 4207228667186,
  "gasLimit": {
    "_hex": "0x2fefd8"
  },
  "gasUsed": {
    "_hex": "0x5208"
  },
  "miner": "0xe6A7a1d47ff21B6321162AEA7C6CB457D5476Bca",
  "extraData": "0x476574682f76312e302e312d38326566323666362f6c696e75782f676f312e34",
  "transactions": [
    {
      "hash": "0x4ee491aad848c46879c81d3fea17dcf109a7a18b8bbc94c1c812156f448cada8",
      "blockHash": "0xa03aee407e276a98bc7cd421f63575d0728ebebd4e8dba8ff9577c8e8974aeaa",
      "blockNumber": 103707,
      "transactionIndex": 0,
      "confirmations": null,
      "from": "0x007f7f58D3eb5b7510A301eCC749FC1fCDDBE14D",
      "gasPrice": {
        "_hex": "0xe0cfe7246"
      },
      "gasLimit": {
        "_hex": "0x15f90"
      },
      "to": "0xb1abce2918E21ddb93AA452731a12672A3d9F75a",
      "value": {
        "_hex": "0x4563918244f40000"
      },
      "nonce": 230,
      "data": "0x",
      "r": "0x62f30c4b6a6aabb1f74e55827eba5965ef7c1fbd3513da466b6a59a05d834332",
      "s": "0x0e0c6f648d5f2251284febcb11b01d1ac632f41a0124f9913033bc3c4452fe9d",
      "v": 27,
      "creates": null,
      "raw": "0xf86e81e6850e0cfe724683015f9094b1abce2918e21ddb93aa452731a12672a3d9f75a884563918244f40000801ba062f30c4b6a6aabb1f74e55827eba5965ef7c1fbd3513da466b6a59a05d834332a00e0c6f648d5f2251284febcb11b01d1ac632f41a0124f9913033bc3c4452fe9d",
      "networkId": 0,
      "chainId": 0
    }
  ]
}