{
  "hash": "0x4eff91ce8095f3c644b694d6d912264798bea948cf412c6ce939aec546280347",
  "parentHash": "0x15e2465942b3e57b8325b87ef2b364e13e648d21ff942c343425e572587ca8dd",
  "number": 50841,
  "timestamp": 1438995460,
  "nonce": "0xa4891d171763aa2e",
  "difficulty": 1546926809248,
  "gasLimit": {
    "_hex": "0x7c1e3"
  },
  "gasUsed": {
    "_hex": "0x5208"
  },
  "miner": "0x9746c7e1ef2bd21FF3997fa467593a89cb852BD0",
  "extraData": "0x476574682f76312e302e312f77696e646f77732f676f312e342e32",
  "transactions": [
    {
      "hash": "0xd54e6ece5f2179f74133733608a1a4a9530ad91a066a8c7a6273963166b5db2a",
      "blockHash": "0x4eff91ce8095f3c644b694d6d912264798bea948cf412c6ce939aec546280347",
      "blockNumber": 50841,
      "transactionIndex": 0,
      "confirmations": null,
      "from": "0xC555B93156F09101233c6f7CF6eB3c4F196D3346",
      "gasPrice": {
        "_hex": "0xccc73ae70"
      },
      "gasLimit": {
        "_hex": "0x15f90"
      },
      "to": "0x36DeE907a4DA9858CE11CDDd63FAAF89EF610d71",
      "value": {
        "_hex": "0x0"
      },
      "nonce": 1,
      "data": "0x",
      "r": "0xfa856b231c731ad590994646b489c44b1e24758032b4da03283f06557bf9e670",
      "s": "0x495ffd41103b4f5603bc96b3c2ffb72ab21716ad94936a29fb05832ba86dc652",
      "v": 28,
      "creates": null,
      "raw": "0xf86501850ccc73ae7083015f909436dee907a4da9858ce11cddd63faaf89ef610d7180801ca0fa856b231c731ad590994646b489c44b1e24758032b4da03283f06557bf9e670a0495ffd41103b4f5603bc96b3c2ffb72ab21716ad94936a29fb05832ba86dc652",
      "networkId": 0,
      "chainId": 0
    }
  ]
}