{
  "hash": "0x2d6abf6a928b00eee9d93668c46b9d0c78a9ebe5f91b116e904cb7624af8319d",
  "parentHash": "0x37e3284c800af39077a3daf9dfd4b90a6e71c544f7119067dee935040032be67",
  "number": 54544,
  "timestamp": 1439055825,
  "nonce": "0x97a489dc7a819787",
  "difficulty": 1618077938037,
  "gasLimit": {
    "_hex": "0x2fefd8"
  },
  "gasUsed": {
    "_hex": "0x13005"
  },
  "miner": "0x9746c7e1ef2bd21FF3997fa467593a89cb852BD0",
  "extraData": "0x476574682f76312e302e312f77696e646f77732f676f312e342e32",
  "transactions": [
    {
      "hash": "0x1f6d3f01eb5d8ba5a693a65addbe23c82f5377b6332d64c57e145c3a0b7a5793",
      "blockHash": "0x2d6abf6a928b00eee9d93668c46b9d0c78a9ebe5f91b116e904cb7624af8319d",
      "blockNumber": 54544,
      "transactionIndex": 0,
      "confirmations": null,
      "from": "0x35bbB7ec5b0d85fcFDFDe2179c20B13B37F84631",
      "gasPrice": {
        "_hex": "0xd641f460d"
      },
      "gasLimit": {
        "_hex": "0x7a120"
      },
      "to": "0xA327075af2a223A1C83a36aDa1126afE7430f955",
      "value": {
        "_hex": "0x8ac7230489e80000"
      },
      "nonce": 0,
      "data": "0x",
      "r": "0xf0e423f196a7485040f5c2cdaf20fdd2e01a4177602f8370489408fbc723e6b5",
      "s": "0x76972f81c2af86634b5bc2dbd8f39641d04431361996d70b2035df88dc59b54c",
      "v": 28,
      "creates": null,
      "raw": "0xf86d80850d641f460d8307a12094a327075af2a223a1c83a36ada1126afe7430f955888ac7230489e80000801ca0f0e423f196a7485040f5c2cdaf20fdd2e01a4177602f8370489408fbc723e6b5a076972f81c2af86634b5bc2dbd8f39641d04431361996d70b2035df88dc59b54c",
      "networkId": 0,
      "chainId": 0
    },
    {
      "hash": "0x2b94624ddea7b8f39aefa4128bbf09cf32ad6a819c20f651a8e83c75b30a4ad6",
      "blockHash": "0x2d6abf6a928b00eee9d93668c46b9d0c78a9ebe5f91b116e904cb7624af8319d",
      "blockNumber": 54544,
      "transactionIndex": 1,
      "confirmations": null,
      "from": "0x439632734cdF5a84774156c1938CbeDe2eF398F0",
      "gasPrice": {
        "_hex": "0xcdbe704ed"
      },
      "gasLimit": {
        "_hex": "0x5208"
      },
      "to": "0x32Be343B94f860124dC4fEe278FDCBD38C102D88",
      "value": {
        "_hex": "0xc327c750ecfd58000"
      },
      "nonce": 9,
      "data": "0x",
      "r": "0x60e2c9e1bad62fd5655670830d64cc81e75cdec978ab43383d5e45e18da5d180",
      "s": "0x565e34be4003023c96c634dcbf96417ebe83dff58fe1454c21b2137a1e9f2169",
      "v": 27,
      "creates": null,
      "raw": "0xf86d09850cdbe704ed8252089432be343b94f860124dc4fee278fdcbd38c102d88890c327c750ecfd58000801ba060e2c9e1bad62fd5655670830d64cc81e75cdec978ab43383d5e45e18da5d180a0565e34be4003023c96c634dcbf96417ebe83dff58fe1454c21b2137a1e9f2169",
      "networkId": 0,
      "chainId": 0
    }
  ]
}