{
  "hash": "0xceee2aaadb28bc649217e2b05f780766043ad04b720e843ddda0fcda560496a8",
  "parentHash": "0x6882ae810cf7402ef5714700fadf9704a22600d96593aec78e38b0f4106d477d",
  "number": 52569,
  "timestamp": 1439023708,
  "nonce": "0xab39f5c3bf574694",
  "difficulty": 1567898427518,
  "gasLimit": {
    "_hex": "0x15944c"
  },
  "gasUsed": {
    "_hex": "0xf4240"
  },
  "miner": "0x47ff6576639c2e94762eA5443978D7681C0E78DC",
  "extraData": "0x476574682f76312e302e312f6c696e75782f676f312e342e32",
  "transactions": [
    {
      "hash": "0xbce5f58c469e3d369631a440c02cabd438cab992dd5444977b318abe046db467",
      "blockHash": "0xceee2aaadb28bc649217e2b05f780766043ad04b720e843ddda0fcda560496a8",
      "blockNumber": 52569,
      "transactionIndex": 0,
      "confirmations": null,
      "from": "0x54dAeb3E8a6BBC797E4aD2b0339f134b186e4637",
      "gasPrice": {
        "_hex": "0xe7d27df17"
      },
      "gasLimit": {
        "_hex": "0x7a120"
      },
      "to": "0xBAA54d6E90c3F4d7Ebec11bD180134C7eD8eBb52",
      "value": {
        "_hex": "0x16345785d8a0000"
      },
      "nonce": 734,
      "data": "0x",
      "r": "0x10dc2fbd3ddc0c5c2bb24779053b3f315cc84f8d3980b69c7e8c93d1132940ce",
      "s": "0x5c6d1cfcf54a6781ad5592bdee32b42d1d091362a35d0b6838a9e17be7f4ba4e",
      "v": 28,
      "creates": null,
      "raw": "0xf86f8202de850e7d27df178307a12094baa54d6e90c3f4d7ebec11bd180134c7ed8ebb5288016345785d8a0000801ca010dc2fbd3ddc0c5c2bb24779053b3f315cc84f8d3980b69c7e8c93d1132940cea05c6d1cfcf54a6781ad5592bdee32b42d1d091362a35d0b6838a9e17be7f4ba4e",
      "networkId": 0,
      "chainId": 0
    },
    {
      "hash": "0x3671a51c879cdfbea2a78b8bf82f325595cdf31409e3af22995b9df2c3504680",
      "blockHash": "0xceee2aaadb28bc649217e2b05f780766043ad04b720e843ddda0fcda560496a8",
      "blockNumber": 52569,
      "transactionIndex": 1,
      "confirmations": null,
      "from": "0x54dAeb3E8a6BBC797E4aD2b0339f134b186e4637",
      "gasPrice": {
        "_hex": "0xe7d27df17"
      },
      "gasLimit": {
        "_hex": "0x7a120"
      },
      "to": "0xBAA54d6E90c3F4d7Ebec11bD180134C7eD8eBb52",
      "value": {
        "_hex": "0x16345785d8a0000"
      },
      "nonce": 735,
      "data": "0x",
      "r": "0xeb21551499e1701a2648dd478e2895ce05193251ee1a02c46202d69284a1bb66",
      "s": "0x4941a732c8ec5a16c832c74651591ff44aaf783580e1817e0a279b3fd452c095",
      "v": 28,
      "creates": null,
      "raw": "0xf86f8202df850e7d27df178307a12094baa54d6e90c3f4d7ebec11bd180134c7ed8ebb5288016345785d8a0000801ca0eb21551499e1701a2648dd478e2895ce05193251ee1a02c46202d69284a1bb66a04941a732c8ec5a16c832c74651591ff44aaf783580e1817e0a279b3fd452c095",
      "networkId": 0,
      "chainId": 0
    }
  ]
}