{
  "hash": "0xb2f24948673f9e25fbc509f6e51cef722328ebe157226d25ba6a5f09a0181ac5",
  "parentHash": "0x08e12758a9a3bf78947c2fcd1a4e41772b607c3e80b27f188200833814402646",
  "number": 65016,
  "timestamp": 1439230028,
  "nonce": "0xce5698e75d2b36ee",
  "difficulty": 1913503687265,
  "gasLimit": {
    "_hex": "0x2fefd8"
  },
  "gasUsed": {
    "_hex": "0xa410"
  },
  "miner": "0x0Cb6EEF179Ba9E7036f95bEEB01e250ab85A8c88",
  "extraData": "0x476574682f76312e302e312f77696e646f77732f676f312e342e32",
  "transactions": [
    {
      "hash": "0xf97fbe68bc1d8524f2022827a34709b2b38c662f5180c1ce216dcb1ed3e46e64",
      "blockHash": "0xb2f24948673f9e25fbc509f6e51cef722328ebe157226d25ba6a5f09a0181ac5",
      "blockNumber": 65016,
      "transactionIndex": 0,
      "confirmations": null,
      "from": "0xf38435a2F627f87Bd4B02865de4310a082FF0483",
      "gasPrice": {
        "_hex": "0xba43b7400"
      },
      "gasLimit": {
        "_hex": "0x5208"
      },
      "to": "0x1309A3dbFEeaf7AF04b65D93Ca6DE5CAdc760b7d",
      "value": {
        "_hex": "0x29081b534f93000"
      },
      "nonce": 1,
      "data": "0x",
      "r": "0xcd125312abe24f294757de9cb592730b561316bdde88f4ef5318c860e588ea03",
      "s": "0x0eb11cc8359ad8846b9fcad38a4aa9ad0db778be9fe1b5b86c8e4551cf7cd261",
      "v": 28,
      "creates": null,
      "raw": "0xf86c01850ba43b7400825208941309a3dbfeeaf7af04b65d93ca6de5cadc760b7d88029081b534f93000801ca0cd125312abe24f294757de9cb592730b561316bdde88f4ef5318c860e588ea03a00eb11cc8359ad8846b9fcad38a4aa9ad0db778be9fe1b5b86c8e4551cf7cd261",
      "networkId": 0,
      "chainId": 0
    },
    {
      "hash": "0x051436c92befabf3eace976d59e3342b50130f3da433539e8cf584c7c969f1f9",
      "blockHash": "0xb2f24948673f9e25fbc509f6e51cef722328ebe157226d25ba6a5f09a0181ac5",
      "blockNumber": 65016,
      "transactionIndex": 1,
      "confirmations": null,
      "from": "0x7B9E6152d8edFd1275cdf62126B457616EFAC6a7",
      "gasPrice": {
        "_hex": "0xba43b7400"
      },
      "gasLimit": {
        "_hex": "0x5208"
      },
      "to": "0xBE8619CCa5De94ccdB67a614cCbc18AFd78beC21",
      "value": {
        "_hex": "0x2ed0e689b3af000"
      },
      "nonce": 1,
      "data": "0x",
      "r": "0x33fcf355ae964adea2552a3db95f5cbc9c756d9f252be5d7d9fa852a45ca96c3",
      "s": "0x3cefdbd883bbfc7354e8a9b56748fa2eef13a79911071612b4e51018e098dd05",
      "v": 28,
      "creates": null,
      "raw": "0xf86c01850ba43b740082520894be8619cca5de94ccdb67a614ccbc18afd78bec218802ed0e689b3af000801ca033fcf355ae964adea2552a3db95f5cbc9c756d9f252be5d7d9fa852a45ca96c3a03cefdbd883bbfc7354e8a9b56748fa2eef13a79911071612b4e51018e098dd05",
      "networkId": 0,
      "chainId": 0
    }
  ]
}