{
  "hash": "0x082e4624b8911c23da44148cbaabc818cc3c94a8a6418874445de5237809ee2c",
  "parentHash": "0xa06adfc05d10f8d546c2ef0aff927e5315df5af2ce9102ee445a841aa415ebd5",
  "number": 115307,
  "timestamp": 1440054951,
  "nonce": "0xb4b86be1e8afbf66",
  "difficulty": 4560592666000,
  "gasLimit": {
    "_hex": "0x2fefd8"
  },
  "gasUsed": {
    "_hex": "0xf618"
  },
  "miner": "0xe6A7a1d47ff21B6321162AEA7C6CB457D5476Bca",
  "extraData": "0x476574682f76312e302e312d38326566323666362f6c696e75782f676f312e34",
  "transactions": [
    {
      "hash": "0xe65c6c6cc488d88aa9af17f0c0bd07178b7d994069259619476d71684eda822f",
      "blockHash": "0x082e4624b8911c23da44148cbaabc818cc3c94a8a6418874445de5237809ee2c",
      "blockNumber": 115307,
      "transactionIndex": 0,
      "confirmations": null,
      "from": "0xe6A7a1d47ff21B6321162AEA7C6CB457D5476Bca",
      "gasPrice": {
        "_hex": "0xd4ddceda4"
      },
      "gasLimit": {
        "_hex": "0x55f0"
      },
      "to": "0x6d84df1cFAD609EAc476cBC2553390bFC23Cf6Fc",
      "value": {
        "_hex": "0x9734070530faaafc0"
      },
      "nonce": 5486,
      "data": "0x",
      "r": "0x7f22331b0f3fba2a857c2676e240f4eb6846d8af068823e9f554eabba354e413",
      "s": "0x6c047ca61b77119d04a5cdeac4f44925eb103deaf39c706914cc74a5a5773ac6",
      "v": 28,
      "creates": null,
      "raw": "0xf86f82156e850d4ddceda48255f0946d84df1cfad609eac476cbc2553390bfc23cf6fc8909734070530faaafc0801ca07f22331b0f3fba2a857c2676e240f4eb6846d8af068823e9f554eabba354e413a06c047ca61b77119d04a5cdeac4f44925eb103deaf39c706914cc74a5a5773ac6",
      "networkId": 0,
      "chainId": 0
    },
    {
      "hash": "0x95c15c4f4b1e57922fd9101e76d5ee958807504fd905d8e26cb77a25d32dae9c",
      "blockHash": "0x082e4624b8911c23da44148cbaabc818cc3c94a8a6418874445de5237809ee2c",
      "blockNumber": 115307,
      "transactionIndex": 1,
      "confirmations": null,
      "from": "0xe6A7a1d47ff21B6321162AEA7C6CB457D5476Bca",
      "gasPrice": {
        "_hex": "0xd2f12f1a2"
      },
      "gasLimit": {
        "_hex": "0x55f0"
      },
      "to": "0x608f4b86321a68453f9adf6F06F7Fc3E621739ad",
      "value": {
        "_hex": "0x130ecfa913f3891e20"
      },
      "nonce": 5487,
      "data": "0x",
      "r": "0xf615f784639a73ff2634621f969963da396f916f1b323ecb5b8ea25b068680bd",
      "s": "0x442f1931718998d0324cc5d3a2eb2857cf50ba4182db90caf50728dfae8bb155",
      "v": 28,
      "creates": null,
      "raw": "0xf86f82156f850d2f12f1a28255f094608f4b86321a68453f9adf6f06f7fc3e621739ad89130ecfa913f3891e20801ca0f615f784639a73ff2634621f969963da396f916f1b323ecb5b8ea25b068680bda0442f1931718998d0324cc5d3a2eb2857cf50ba4182db90caf50728dfae8bb155",
      "networkId": 0,
      "chainId": 0
    },
    {
      "hash": "0xdd93dce0df9445b11139530a9ccfed65697a6354412836f560fadfc2e9e582c3",
      "blockHash": "0x082e4624b8911c23da44148cbaabc818cc3c94a8a6418874445de5237809ee2c",
      "blockNumber": 115307,
      "transactionIndex": 2,
      "confirmations": null,
      "from": "0x60a175bB691fEE8557a7b6D8eFC9E49889486f41",
      "gasPrice": {
        "_hex": "0xccf37fa14"
      },
      "gasLimit": {
        "_hex": "0x15f90"
      },
      "to": "0x67a8Acb3621e0683EC4eeb0be82BE8cf344d97c6",
      "value": {
        "_hex": "0x8ac7230489e80000"
      },
      "nonce": 14,
      "data": "0x",
      "r": "0xfd679fb2b72e4f01e25ada4b39eb380f5d745bfac8b9af990b704390bef0b91f",
      "s": "0x0c02d5d048049b5f4492f462674c9b7efed7caca59eb6472dd2152257663b9d1",
      "v": 27,
      "creates": null,
      "raw": "0xf86d0e850ccf37fa1483015f909467a8acb3621e0683ec4eeb0be82be8cf344d97c6888ac7230489e80000801ba0fd679fb2b72e4f01e25ada4b39eb380f5d745bfac8b9af990b704390bef0b91fa00c02d5d048049b5f4492f462674c9b7efed7caca59eb6472dd2152257663b9d1",
      "networkId": 0,
      "chainId": 0
    }
  ]
}