{
  "hash": "0x0186dc5d204c06632c7124e59d7e39ba5fddb0ee7d31acacf6fd8b89e6dfb989",
  "parentHash": "0x7456db5148e1eb32080ba1cbb280fe3353129d3f159e47dc01b59b9f0d76eef4",
  "number": 110750,
  "timestamp": 1439978800,
  "nonce": "0x27cf84d692ff23a0",
  "difficulty": 4394695138753,
  "gasLimit": {
    "_hex": "0x3004ae"
  },
  "gasUsed": {
    "_hex": "0x2625a0"
  },
  "miner": "0xe6A7a1d47ff21B6321162AEA7C6CB457D5476Bca",
  "extraData": "0x476574682f76312e302e312d38326566323666362f6c696e75782f676f312e34",
  "transactions": [
    {
      "hash": "0x1e1c45eb933c7f0261f5b0421e7064a66207a30688d3f3c47880d86294dc5a23",
      "blockHash": "0x0186dc5d204c06632c7124e59d7e39ba5fddb0ee7d31acacf6fd8b89e6dfb989",
      "blockNumber": 110750,
      "transactionIndex": 0,
      "confirmations": null,
      "from": "0x54dAeb3E8a6BBC797E4aD2b0339f134b186e4637",
      "gasPrice": {
        "_hex": "0xdce5b224a"
      },
      "gasLimit": {
        "_hex": "0x7a120"
      },
      "to": "0xBAA54d6E90c3F4d7Ebec11bD180134C7eD8eBb52",
      "value": {
        "_hex": "0x16345785d8a0000"
      },
      "nonce": 1000,
      "data": "0x",
      "r": "0x87467b7749c8b5b76cf941519f33d714742960f33cb345ae9199774d46bd7eb4",
      "s": "0x296929b0517a816734f694bd29820e9f819769fe046fd36ed263b288ea2db7f9",
      "v": 27,
      "creates": null,
      "raw": "0xf86f8203e8850dce5b224a8307a12094baa54d6e90c3f4d7ebec11bd180134c7ed8ebb5288016345785d8a0000801ba087467b7749c8b5b76cf941519f33d714742960f33cb345ae9199774d46bd7eb4a0296929b0517a816734f694bd29820e9f819769fe046fd36ed263b288ea2db7f9",
      "networkId": 0,
      "chainId": 0
    },
    {
      "hash": "0xebf05b12c5600f051e3c516605a36156fef4cafa78942fb7ba3ccbc2d4878f32",
      "blockHash": "0x0186dc5d204c06632c7124e59d7e39ba5fddb0ee7d31acacf6fd8b89e6dfb989",
      "blockNumber": 110750,
      "transactionIndex": 1,
      "confirmations": null,
      "from": "0x54dAeb3E8a6BBC797E4aD2b0339f134b186e4637",
      "gasPrice": {
        "_hex": "0xd8bd64e50"
      },
      "gasLimit": {
        "_hex": "0x7a120"
      },
      "to": "0xBAA54d6E90c3F4d7Ebec11bD180134C7eD8eBb52",
      "value": {
        "_hex": "0x16345785d8a0000"
      },
      "nonce": 1001,
      "data": "0x",
      "r": "0x7a2187a434d951196129e1133b12f24bd5c7c69376768d29dfe8b76e75e7dc6d",
      "s": "0x071ca2272c3f93ac12b507f10884a83b0e12639c73a054dec14379729bd4d9f0",
      "v": 27,
      "creates": null,
      "raw": "0xf86f8203e9850d8bd64e508307a12094baa54d6e90c3f4d7ebec11bd180134c7ed8ebb5288016345785d8a0000801ba07a2187a434d951196129e1133b12f24bd5c7c69376768d29dfe8b76e75e7dc6da0071ca2272c3f93ac12b507f10884a83b0e12639c73a054dec14379729bd4d9f0",
      "networkId": 0,
      "chainId": 0
    },
    {
      "hash": "0xab83350bc89dda2266b5accf021c71d037171079cb1a300d85437ea86f1b1ea0",
      "blockHash": "0x0186dc5d204c06632c7124e59d7e39ba5fddb0ee7d31acacf6fd8b89e6dfb989",
      "blockNumber": 110750,
      "transactionIndex": 2,
      "confirmations": null,
      "from": "0x54dAeb3E8a6BBC797E4aD2b0339f134b186e4637",
      "gasPrice": {
        "_hex": "0xdce5b224a"
      },
      "gasLimit": {
        "_hex": "0x7a120"
      },
      "to": "0xBAA54d6E90c3F4d7Ebec11bD180134C7eD8eBb52",
      "value": {
        "_hex": "0x16345785d8a0000"
      },
      "nonce": 1002,
      "data": "0x",
      "r": "0x06b4b4f6cec13d6884945015328308e3b382639b6537d7336de151379982145b",
      "s": "0x1c1a02510569218ffe335bb6505d27dc0273ade5693776c38fb7ab8c96a4b0c0",
      "v": 28,
      "creates": null,
      "raw": "0xf86f8203ea850dce5b224a8307a12094baa54d6e90c3f4d7ebec11bd180134c7ed8ebb5288016345785d8a0000801ca006b4b4f6cec13d6884945015328308e3b382639b6537d7336de151379982145ba01c1a02510569218ffe335bb6505d27dc0273ade5693776c38fb7ab8c96a4b0c0",
      "networkId": 0,
      "chainId": 0
    },
    {
      "hash": "0xe24922a7c53385c026b5410791232d11ecfe3e115fa60ad5aa379191c1048d3b",
      "blockHash": "0x0186dc5d204c06632c7124e59d7e39ba5fddb0ee7d31acacf6fd8b89e6dfb989",
      "blockNumber": 110750,
      "transactionIndex": 3,
      "confirmations": null,
      "from": "0x54dAeb3E8a6BBC797E4aD2b0339f134b186e4637",
      "gasPrice": {
        "_hex": "0xe7d27df17"
      },
      "gasLimit": {
        "_hex": "0x7a120"
      },
      "to": "0xBAA54d6E90c3F4d7Ebec11bD180134C7eD8eBb52",
      "value": {
        "_hex": "0x16345785d8a0000"
      },
      "nonce": 1003,
      "data": "0x",
      "r": "0x2f883afb4de4d6864a0f53036c1ddd83e3aa223689e3370a00b2cd6ff1c7564c",
      "s": "0x0a7ec22f908ecaad071144f3e35641d2ca66be090028350de71fa9c1f58391ec",
      "v": 28,
      "creates": null,
      "raw": "0xf86f8203eb850e7d27df178307a12094baa54d6e90c3f4d7ebec11bd180134c7ed8ebb5288016345785d8a0000801ca02f883afb4de4d6864a0f53036c1ddd83e3aa223689e3370a00b2cd6ff1c7564ca00a7ec22f908ecaad071144f3e35641d2ca66be090028350de71fa9c1f58391ec",
      "networkId": 0,
      "chainId": 0
    },
    {
      "hash": "0x3c2576e45d5c1552bfac06f098d69a15e56534a5f59954a0e6fc30f5fc8b18dd",
      "blockHash": "0x0186dc5d204c06632c7124e59d7e39ba5fddb0ee7d31acacf6fd8b89e6dfb989",
      "blockNumber": 110750,
      "transactionIndex": 4,
      "confirmations": null,
      "from": "0x54dAeb3E8a6BBC797E4aD2b0339f134b186e4637",
      "gasPrice": {
        "_hex": "0xe1780dfbb"
      },
      "gasLimit": {
        "_hex": "0x7a120"
      },
      "to": "0xBAA54d6E90c3F4d7Ebec11bD180134C7eD8eBb52",
      "value": {
        "_hex": "0x16345785d8a0000"
      },
      "nonce": 1004,
      "data": "0x",
      "r": "0xbc1c750720c4883174b9e5309a6dfabf471b407ab1c5ed24a288880a6f7ee45a",
      "s": "0x07e4d0d6e1f5a308303c182b3e72c78e63bbfd5379f044e113fdff5f5a73bec2",
      "v": 28,
      "creates": null,
      "raw": "0xf86f8203ec850e1780dfbb8307a12094baa54d6e90c3f4d7ebec11bd180134c7ed8ebb5288016345785d8a0000801ca0bc1c750720c4883174b9e5309a6dfabf471b407ab1c5ed24a288880a6f7ee45aa007e4d0d6e1f5a308303c182b3e72c78e63bbfd5379f044e113fdff5f5a73bec2",
      "networkId": 0,
      "chainId": 0
    }
  ]
}