{
  "hash": "0xe9ec52ee10d83192222f6bd9bb787bcfff692213232f77ce08b27e843726df19",
  "parentHash": "0x2806b6df6c6394b393a1b30d3363fb24d1a20a467173a76851555f9cd7f774c2",
  "number": 114444,
  "timestamp": 1440040356,
  "nonce": "0xa012adc81ab400f6",
  "difficulty": 4518943008587,
  "gasLimit": {
    "_hex": "0x2fefd8"
  },
  "gasUsed": {
    "_hex": "0x5208"
  },
  "miner": "0xe6A7a1d47ff21B6321162AEA7C6CB457D5476Bca",
  "extraData": "0x476574682f76312e302e312d38326566323666362f6c696e75782f676f312e34",
  "transactions": [
    {
      "hash": "0xb3c6a265671eeb5edff2a7df2cdb00cdceea335a727ccc5fb50cf5af937a1ff7",
      "blockHash": "0xe9ec52ee10d83192222f6bd9bb787bcfff692213232f77ce08b27e843726df19",
      "blockNumber": 114444,
      "transactionIndex": 0,
      "confirmations": null,
      "from": "0xE12517204a15E890f12755207271102F4800A0c4",
      "gasPrice": {
        "_hex": "0xdbfe170de"
      },
      "gasLimit": {
        "_hex": "0x5208"
      },
      "to": "0x32Be343B94f860124dC4fEe278FDCBD38C102D88",
      "value": {
        "_hex": "0x145797bad96e95000"
      },
      "nonce": 20,
      "data": "0x",
      "r": "0x57b89f18c8ee2837fb907f6014829b23098cdc35d0494bd254a36d32b1d49713",
      "s": "0x04304b955d3156b596b783aadf171a3d5abc57bc4d57e0be573668bb881d22ee",
      "v": 28,
      "creates": null,
      "raw": "0xf86d14850dbfe170de8252089432be343b94f860124dc4fee278fdcbd38c102d88890145797bad96e95000801ca057b89f18c8ee2837fb907f6014829b23098cdc35d0494bd254a36d32b1d49713a004304b955d3156b596b783aadf171a3d5abc57bc4d57e0be573668bb881d22ee",
      "networkId": 0,
      "chainId": 0
    }
  ]
}