{
  "hash": "0x0287ec879a97789a15539c7b3296953275b69c9b1274ce91df6029f2722cab55",
  "parentHash": "0x8b3fafcd3cb29d4302e634fe75c671756bf75e4cdff69857f8294ae9ddf19795",
  "number": 100783,
  "timestamp": 1439812222,
  "nonce": "0x2be8e0acd4b08702",
  "difficulty": 3850817758612,
  "gasLimit": {
    "_hex": "0x2fefd8"
  },
  "gasUsed": {
    "_hex": "0xf618"
  },
  "miner": "0xC0EdE9a639d107851462c15f2fb729c7c61bBf62",
  "extraData": "0xda8098302e392e34312b2b302d524c696e75782f672b2b2f696e74",
  "transactions": [
    {
      "hash": "0x06c6988f57362de646a6fe5bca48682bdca67a08a88d89b664dff0231416d490",
      "blockHash": "0x0287ec879a97789a15539c7b3296953275b69c9b1274ce91df6029f2722cab55",
      "blockNumber": 100783,
      "transactionIndex": 0,
      "confirmations": null,
      "from": "0x63738Ec4C9adec404749B5747F3bbE2147de632F",
      "gasPrice": {
        "_hex": "0xceed9ab8f"
      },
      "gasLimit": {
        "_hex": "0x15f90"
      },
      "to": "0x557C2806B6ceA65a66F415bb2Ed1ce897B340745",
      "value": {
        "_hex": "0x8ac7230489e80000"
      },
      "nonce": 24,
      "data": "0x",
      "r": "0xb40dbd1c855804b7fc478d14eef9387dbe5ccb79d25c5d5df16592e88d3328ef",
      "s": "0x04f2b217c8043ebe29fb21d8fd1f4e68a199c6eb442a8c149e56242f080830ef",
      "v": 28,
      "creates": null,
      "raw": "0xf86d18850ceed9ab8f83015f9094557c2806b6cea65a66f415bb2ed1ce897b340745888ac7230489e80000801ca0b40dbd1c855804b7fc478d14eef9387dbe5ccb79d25c5d5df16592e88d3328efa004f2b217c8043ebe29fb21d8fd1f4e68a199c6eb442a8c149e56242f080830ef",
      "networkId": 0,
      "chainId": 0
    },
    {
      "hash": "0x8d5b2d0b88adc0d607bbc23c637d89a44045141e1a6161e4bf5c5d8381567809",
      "blockHash": "0x0287ec879a97789a15539c7b3296953275b69c9b1274ce91df6029f2722cab55",
      "blockNumber": 100783,
      "transactionIndex": 1,
      "confirmations": null,
      "from": "0x63738Ec4C9adec404749B5747F3bbE2147de632F",
      "gasPrice": {
        "_hex": "0xceed9ab8f"
      },
      "gasLimit": {
        "_hex": "0x15f90"
      },
      "to": "0x557C2806B6ceA65a66F415bb2Ed1ce897B340745",
      "value": {
        "_hex": "0x8ac7230489e80000"
      },
      "nonce": 25,
      "data": "0x",
      "r": "0x7a88cab10825b56931a82cc192b69446b8ffc0ed93c021d9bb3f33efc774c532",
      "s": "0x3d6771b215580023feda48ff01fa9c1561ddd347634b5a5ebf0d881299a531eb",
      "v": 27,
      "creates": null,
      "raw": "0xf86d19850ceed9ab8f83015f9094557c2806b6cea65a66f415bb2ed1ce897b340745888ac7230489e80000801ba07a88cab10825b56931a82cc192b69446b8ffc0ed93c021d9bb3f33efc774c532a03d6771b215580023feda48ff01fa9c1561ddd347634b5a5ebf0d881299a531eb",
      "networkId": 0,
      "chainId": 0
    },
    {
      "hash": "0xb1660180d04a70b3052380187df930b57fe215654ac8ae6b83895ef310295427",
      "blockHash": "0x0287ec879a97789a15539c7b3296953275b69c9b1274ce91df6029f2722cab55",
      "blockNumber": 100783,
      "transactionIndex": 2,
      "confirmations": null,
      "from": "0x63738Ec4C9adec404749B5747F3bbE2147de632F",
      "gasPrice": {
        "_hex": "0xceed9ab8f"
      },
      "gasLimit": {
        "_hex": "0x15f90"
      },
      "to": "0x557C2806B6ceA65a66F415bb2Ed1ce897B340745",
      "value": {
        "_hex": "0x8ac7230489e80000"
      },
      "nonce": 26,
      "data": "0x",
      "r": "0x3af58c11e65a2d37667b55a99ec44fa0aa01fcef364ff567dbf0a8f441fdf8f9",
      "s": "0x51f3c6933498441147aafa6fd3aac4e3578ae0f266f9b3beb147cd02e3c62138",
      "v": 27,
      "creates": null,
      "raw": "0xf86d1a850ceed9ab8f83015f9094557c2806b6cea65a66f415bb2ed1ce897b340745888ac7230489e80000801ba03af58c11e65a2d37667b55a99ec44fa0aa01fcef364ff567dbf0a8f441fdf8f9a051f3c6933498441147aafa6fd3aac4e3578ae0f266f9b3beb147cd02e3c62138",
      "networkId": 0,
      "chainId": 0
    }
  ]
}