{
  "hash": "0xc3f1df946ebb8a171ae4f79e2d1bd1b450544989092222c08e82fc2f8a34df2b",
  "parentHash": "0x4cc63a0835a666eea31c77e23ab36ae40359969e115e24faafbb8343ed139cc6",
  "number": 75573,
  "timestamp": 1439405706,
  "nonce": "0xe4a11aeb479d7190",
  "difficulty": 2215829201285,
  "gasLimit": {
    "_hex": "0x2fefd8"
  },
  "gasUsed": {
    "_hex": "0x5208"
  },
  "miner": "0x47ff6576639c2e94762eA5443978D7681C0E78DC",
  "extraData": "0x476574682f76312e302e312f6c696e75782f676f312e342e32",
  "transactions": [
    {
      "hash": "0xc5989bb3289d9d641bb190532b0e0349a13feb978e2fed0da8f34f166e058a23",
      "blockHash": "0xc3f1df946ebb8a171ae4f79e2d1bd1b450544989092222c08e82fc2f8a34df2b",
      "blockNumber": 75573,
      "transactionIndex": 0,
      "confirmations": null,
      "from": "0xa70a9a7040d542C632D8e0bE7c5513A8a5Bbc752",
      "gasPrice": {
        "_hex": "0xd26b10e8e"
      },
      "gasLimit": {
        "_hex": "0x5208"
      },
      "to": "0x32Be343B94f860124dC4fEe278FDCBD38C102D88",
      "value": {
        "_hex": "0x47f9605b08d05c00"
      },
      "nonce": 38,
      "data": "0x",
      "r": "0x9bba653447228ea203b316b4a764edff4d25eb5b76833fd6782e0ef642a6c47d",
      "s": "0x13561d12aaeb2443a16ab68ba3bba638f259c0fa1d51c1af49d21d6f41d6a38c",
      "v": 28,
      "creates": null,
      "raw": "0xf86c26850d26b10e8e8252089432be343b94f860124dc4fee278fdcbd38c102d888847f9605b08d05c00801ca09bba653447228ea203b316b4a764edff4d25eb5b76833fd6782e0ef642a6c47da013561d12aaeb2443a16ab68ba3bba638f259c0fa1d51c1af49d21d6f41d6a38c",
      "networkId": 0,
      "chainId": 0
    }
  ]
}