{
  "hash": "0xb180d61b496998931d75b98b21b8b791305eaab28acbed29b3a637e65c737e1d",
  "parentHash": "0x3c53de1a81b9ea05fe00e73112b63acf050a790909fbe8a1cd8f19d2f4cedaee",
  "number": 117756,
  "timestamp": 1440114897,
  "nonce": "0xd03834df49da8aa3",
  "difficulty": 4361111887146,
  "gasLimit": {
    "_hex": "0x2fefd8"
  },
  "gasUsed": {
    "_hex": "0x5208"
  },
  "miner": "0xe6A7a1d47ff21B6321162AEA7C6CB457D5476Bca",
  "extraData": "0xd783010002844765746887676f312e342e32856c696e7578",
  "transactions": [
    {
      "hash": "0x6991a7ee4aa8f09a3c2cfa190643f8c75973b75e428c56b68e5d5aaa91dbef42",
      "blockHash": "0xb180d61b496998931d75b98b21b8b791305eaab28acbed29b3a637e65c737e1d",
      "blockNumber": 117756,
      "transactionIndex": 0,
      "confirmations": null,
      "from": "0x59C7f785C93160e5807ed34e5E534BC6188647a7",
      "gasPrice": {
        "_hex": "0xba43b7400"
      },
      "gasLimit": {
        "_hex": "0x15f90"
      },
      "to": "0x45F02181298e1C8D821ac0b1233488296742AB39",
      "value": {
        "_hex": "0x22960753bb2b380000"
      },
      "nonce": 1,
      "data": "0x",
      "r": "0x48bff1e9a84dfad467999422439b20a236d0537d608ab4880eec90d6ae45bbeb",
      "s": "0x2bb2ac46f799581c09fec0fbc21392c7312994e096d9178b479d0a912e2c8c98",
      "v": 28,
      "creates": null,
      "raw": "0xf86e01850ba43b740083015f909445f02181298e1c8d821ac0b1233488296742ab398922960753bb2b380000801ca048bff1e9a84dfad467999422439b20a236d0537d608ab4880eec90d6ae45bbeba02bb2ac46f799581c09fec0fbc21392c7312994e096d9178b479d0a912e2c8c98",
      "networkId": 0,
      "chainId": 0
    }
  ]
}