{
  "hash": "0xff5b45692aad115286acdb10a624885269b53e0c172cbadd774e3ea7f314e3e6",
  "parentHash": "0x028b4f129bb11b553f5aa6c6cb80f487e1f264d2561f9a08b5c3b1f6d17574a9",
  "number": 98635,
  "timestamp": 1439776524,
  "nonce": "0x76e500434f610c2a",
  "difficulty": 3829300757546,
  "gasLimit": {
    "_hex": "0x2fefd8"
  },
  "gasUsed": {
    "_hex": "0x5208"
  },
  "miner": "0x8B454d830feF179e66206840F8F3D1d83bC32b17",
  "extraData": "0x476574682f76312e302e312f77696e646f77732f676f312e342e32",
  "transactions": [
    {
      "hash": "0x6340e232b551c4e3c61448e1b87c46ea000848624ee49ae2df008f134bdc2e66",
      "blockHash": "0xff5b45692aad115286acdb10a624885269b53e0c172cbadd774e3ea7f314e3e6",
      "blockNumber": 98635,
      "transactionIndex": 0,
      "confirmations": null,
      "from": "0x86d3856ad0105B9d4199936c1fd203664BA325dC",
      "gasPrice": {
        "_hex": "0xdb88f7a46"
      },
      "gasLimit": {
        "_hex": "0x5208"
      },
      "to": "0x32Be343B94f860124dC4fEe278FDCBD38C102D88",
      "value": {
        "_hex": "0x3354b152107bc000"
      },
      "nonce": 19,
      "data": "0x",
      "r": "0x56482692cf00e7697bfacfbb716bf929d5f06855b84e9432b18599291354dcdc",
      "s": "0x365d68ddb2d77dbd5d39b1109d854ef0faf36db93aae3d57c3a000fb6a8b1d04",
      "v": 27,
      "creates": null,
      "raw": "0xf86c13850db88f7a468252089432be343b94f860124dc4fee278fdcbd38c102d88883354b152107bc000801ba056482692cf00e7697bfacfbb716bf929d5f06855b84e9432b18599291354dcdca0365d68ddb2d77dbd5d39b1109d854ef0faf36db93aae3d57c3a000fb6a8b1d04",
      "networkId": 0,
      "chainId": 0
    }
  ]
}