{
  "hash": "0x62c65699ba5ffbb7773d9de8921df294b84a8ad5a6a66ee04bc32a5e67e41829",
  "parentHash": "0xad9efe9b5e5dae4c4c960dd186d208cc4b4c037e90d4bdba1157d49aba30e8cc",
  "number": 99826,
  "timestamp": 1439796208,
  "nonce": "0xb6d05fa7461a95c7",
  "difficulty": 3841866082097,
  "gasLimit": {
    "_hex": "0x2fefd8"
  },
  "gasUsed": {
    "_hex": "0x5208"
  },
  "miner": "0x790b8a3cE86E707ED0eD32bF89B3269692a23CC1",
  "extraData": "0xd783010001844765746887676f312e342e32856c696e7578",
  "transactions": [
    {
      "hash": "0x45e01fe58af865ea624e53a5bcdc2a90f7c6542e14c6969161e13d2a68729530",
      "blockHash": "0x62c65699ba5ffbb7773d9de8921df294b84a8ad5a6a66ee04bc32a5e67e41829",
      "blockNumber": 99826,
      "transactionIndex": 0,
      "confirmations": null,
      "from": "0xcf00A85f3826941e7A25BFcF9Aac575d40410852",
      "gasPrice": {
        "_hex": "0xcb5bea614"
      },
      "gasLimit": {
        "_hex": "0x15f90"
      },
      "to": "0xD9666150A9dA92d9108198a4072970805a8B3428",
      "value": {
        "_hex": "0x4563918244f40000"
      },
      "nonce": 21,
      "data": "0x",
      "r": "0x4376a66fdf9c4584675bf57ca4af58f0603963b099e13d9215858609fd13d9e9",
      "s": "0x1c046c3d39f0dc2d90d563def8898477422ba84cdf688e88f363d524b06a5a3e",
      "v": 27,
      "creates": null,
      "raw": "0xf86d15850cb5bea61483015f9094d9666150a9da92d9108198a4072970805a8b3428884563918244f40000801ba04376a66fdf9c4584675bf57ca4af58f0603963b099e13d9215858609fd13d9e9a01c046c3d39f0dc2d90d563def8898477422ba84cdf688e88f363d524b06a5a3e",
      "networkId": 0,
      "chainId": 0
    }
  ]
}