{
  "hash": "0x7a67464e7260926ee344a50266ccbc9ff9bcc0984e5aa6ef40b064ffa715796a",
  "parentHash": "0xafe26d2ce2d2d3701c963ffee89b8b71e640af93d9b144b8eb6aae1e6d6786f8",
  "number": 48169,
  "timestamp": 1438952668,
  "nonce": "0x6c51c4a621a9f29b",
  "difficulty": 1460781540596,
  "gasLimit": {
    "_hex": "0x13330"
  },
  "gasUsed": {
    "_hex": "0x546c"
  },
  "miner": "0xcd39cBcF71Ff4e9592F94db59db4ff45e34b174f",
  "extraData": "0x476574682f76312e302e312f6c696e75782f676f312e342e32",
  "transactions": [
    {
      "hash": "0x0c628202d6939f3f6d63da5f5510e3650cd0c877f3f1feaabede72951d5abc22",
      "blockHash": "0x7a67464e7260926ee344a50266ccbc9ff9bcc0984e5aa6ef40b064ffa715796a",
      "blockNumber": 48169,
      "transactionIndex": 0,
      "confirmations": null,
      "from": "0x17dF49518D73b129F0DA36b1c9B40CB66420FDc7",
      "gasPrice": {
        "_hex": "0xe32195889"
      },
      "gasLimit": {
        "_hex": "0x61a8"
      },
      "to": "0x2910543Af39abA0Cd09dBb2D50200b3E800A63D2",
      "value": {
        "_hex": "0x6c6b935b8bbd400000"
      },
      "nonce": 2,
      "data": "0x454e4544374e424747",
      "r": "0x6dcb0090be7634e2c8478878cbe4c7be5cfc27c4d966acc3b13e53f014911a04",
      "s": "0x1dc94e825c1e8595fca3920f7a73d3da9e1a9d703a38057ba523fa061739d690",
      "v": 28,
      "creates": null,
      "raw": "0xf87602850e321958898261a8942910543af39aba0cd09dbb2d50200b3e800a63d2896c6b935b8bbd40000089454e4544374e4247471ca06dcb0090be7634e2c8478878cbe4c7be5cfc27c4d966acc3b13e53f014911a04a01dc94e825c1e8595fca3920f7a73d3da9e1a9d703a38057ba523fa061739d690",
      "networkId": 0,
      "chainId": 0
    }
  ]
}