{
  "hash": "0x83bb490f8fc6f98db34e1e764ec65a430c22ab1864127e10e246d8104dbbb136",
  "parentHash": "0x37266bbbdba9d5e064e57342b873f6f4d2dfc6eee6d8fe759430cc112b3230b6",
  "number": 63381,
  "timestamp": 1439203435,
  "nonce": "0xc485a895fd851894",
  "difficulty": 1834276980835,
  "gasLimit": {
    "_hex": "0x2fefd8"
  },
  "gasUsed": {
    "_hex": "0x5208"
  },
  "miner": "0x8322c3b542754aCEc5a25CA1e4C688c72aa5198E",
  "extraData": "0x476574682f76312e302e312d38326566323666362f6c696e75782f676f312e34",
  "transactions": [
    {
      "hash": "0x97ec4409af6348adbf277a81e8f376b8b4d8d20077dcc8f2636943de2244f25c",
      "blockHash": "0x83bb490f8fc6f98db34e1e764ec65a430c22ab1864127e10e246d8104dbbb136",
      "blockNumber": 63381,
      "transactionIndex": 0,
      "confirmations": null,
      "from": "0xd41CDe3742bE29F53EDb8A99B255F4c0C210935d",
      "gasPrice": {
        "_hex": "0xcf5924cb9"
      },
      "gasLimit": {
        "_hex": "0x5208"
      },
      "to": "0x32Be343B94f860124dC4fEe278FDCBD38C102D88",
      "value": {
        "_hex": "0x455f75189e4c3800"
      },
      "nonce": 3,
      "data": "0x",
      "r": "0xc77ea672393801290ec7c564809d765aeb09e54f341f552e2bb19c25e595fd89",
      "s": "0x4a599e0ff58c5f0918a7a72b5caecb39a455d394938aa10824b6de337c483a8d",
      "v": 28,
      "creates": null,
      "raw": "0xf86c03850cf5924cb98252089432be343b94f860124dc4fee278fdcbd38c102d8888455f75189e4c3800801ca0c77ea672393801290ec7c564809d765aeb09e54f341f552e2bb19c25e595fd89a04a599e0ff58c5f0918a7a72b5caecb39a455d394938aa10824b6de337c483a8d",
      "networkId": 0,
      "chainId": 0
    }
  ]
}