{
  "hash": "0xebe8407970014742af34d9e5684927a268d3c387a34087b7a9467a2e57d89560",
  "parentHash": "0x520038f51971040e1be5d0f6349cf8da50d91204e794ee598c79a39e2719623d",
  "number": 59317,
  "timestamp": 1439136098,
  "nonce": "0xce9c9778ad4046bf",
  "difficulty": 1703893793528,
  "gasLimit": {
    "_hex": "0x2fefd8"
  },
  "gasUsed": {
    "_hex": "0x5208"
  },
  "miner": "0xde8B4cca204F866220e8e25817668Cd44a5fee88",
  "extraData": "0x",
  "transactions": [
    {
      "hash": "0x688fdd967325e071f5c9cfa3a4bebfe716da1b1a35a05e1648b3bceee76896c1",
      "blockHash": "0xebe8407970014742af34d9e5684927a268d3c387a34087b7a9467a2e57d89560",
      "blockNumber": 59317,
      "transactionIndex": 0,
      "confirmations": null,
      "from": "0x87898CE53471043FcCa0a2aF4E1dC6d8B3fCf607",
      "gasPrice": {
        "_hex": "0xdc8c515bd"
      },
      "gasLimit": {
        "_hex": "0x5208"
      },
      "to": "0xBFdD9820a04283b289957956353b5F3C1F665EcF",
      "value": {
        "_hex": "0x53444835ec580000"
      },
      "nonce": 5,
      "data": "0x",
      "r": "0x70669743b592d607990d230c1e63b2040741b1e47f868888f29d629f00db22a9",
      "s": "0x02e9908a9d9f811d6d97c62d8cefadf1acfacc0d0fd79e7ecfbf1a0662bd0095",
      "v": 28,
      "creates": null,
      "raw": "0xf86c05850dc8c515bd82520894bfdd9820a04283b289957956353b5f3c1f665ecf8853444835ec580000801ca070669743b592d607990d230c1e63b2040741b1e47f868888f29d629f00db22a9a002e9908a9d9f811d6d97c62d8cefadf1acfacc0d0fd79e7ecfbf1a0662bd0095",
      "networkId": 0,
      "chainId": 0
    }
  ]
}