{
  "hash": "0xc8b4153eee023dc4524381882444f2af518041572cb22e99cf49abc3638256b2",
  "parentHash": "0xbde6380edfb3e06a9ee463335eff7ff30ae7d9b73c391cae8a77800b653cfe0d",
  "number": 64626,
  "timestamp": 1439223754,
  "nonce": "0x02cfcc85075d573c",
  "difficulty": 1891298619820,
  "gasLimit": {
    "_hex": "0x2fefd8"
  },
  "gasUsed": {
    "_hex": "0x23e38"
  },
  "miner": "0x93641e54c9aA6F9038FE7Adb03629a1747326Cd6",
  "extraData": "0x476574682f76312e302e312f77696e646f77732f676f312e342e32",
  "transactions": [
    {
      "hash": "0x0c11a3e470542ed7b4256f63882cf5dd2ba285c822c7be201bf81f7b7c338810",
      "blockHash": "0xc8b4153eee023dc4524381882444f2af518041572cb22e99cf49abc3638256b2",
      "blockNumber": 64626,
      "transactionIndex": 0,
      "confirmations": null,
      "from": "0x96081d3F391AE5125022669c0c984908A32fB5E2",
      "gasPrice": {
        "_hex": "0xba43b7400"
      },
      "gasLimit": {
        "_hex": "0x5208"
      },
      "to": "0xd73DE7370a1383882fe57D619880De56AD1c2d53",
      "value": {
        "_hex": "0xc1c23435b07000"
      },
      "nonce": 1,
      "data": "0x",
      "r": "0x80c74603b5ca63f1d123536f6cee149390c92d30ca53a011912e0e35dc711be1",
      "s": "0x08987a936bacc1c79a556dbbec4c08a7b290d4937efdb341d6dda351549a5e2f",
      "v": 28,
      "creates": null,
      "raw": "0xf86b01850ba43b740082520894d73de7370a1383882fe57d619880de56ad1c2d5387c1c23435b07000801ca080c74603b5ca63f1d123536f6cee149390c92d30ca53a011912e0e35dc711be1a008987a936bacc1c79a556dbbec4c08a7b290d4937efdb341d6dda351549a5e2f",
      "networkId": 0,
      "chainId": 0
    },
    {
      "hash": "0x31ec43a7f6a02ca9c90d2ca566581df56f4ed0f8d9dc20c824ee7907557eb43b",
      "blockHash": "0xc8b4153eee023dc4524381882444f2af518041572cb22e99cf49abc3638256b2",
      "blockNumber": 64626,
      "transactionIndex": 1,
      "confirmations": null,
      "from": "0x75d5e97b0a377B529D065F8Cb1ECA2D4793C5BBb",
      "gasPrice": {
        "_hex": "0xba43b7400"
      },
      "gasLimit": {
        "_hex": "0x5208"
      },
      "to": "0xC8d0F2B51b837f837F88D1E881f29eA073D35dc9",
      "value": {
        "_hex": "0xaa9f075c200000"
      },
      "nonce": 1,
      "data": "0x",
      "r": "0x2430b7a62e3a4df6713da8bab61c0709db3a8bd11d239e9d966a4606a258fda2",
      "s": "0x7ee07dd13f02714b3952c4e51a812dbddc66d86ff4a7f1d978697b676c8f4168",
      "v": 28,
      "creates": null,
      "raw": "0xf86b01850ba43b740082520894c8d0f2b51b837f837f88d1e881f29ea073d35dc987aa9f075c200000801ca02430b7a62e3a4df6713da8bab61c0709db3a8bd11d239e9d966a4606a258fda2a07ee07dd13f02714b3952c4e51a812dbddc66d86ff4a7f1d978697b676c8f4168",
      "networkId": 0,
      "chainId": 0
    },
    {
      "hash": "0xc6003d4a6fd42eac4bde751b7837bdaf22f896efccd8ea131b690a7e2c186797",
      "blockHash": "0xc8b4153eee023dc4524381882444f2af518041572cb22e99cf49abc3638256b2",
      "blockNumber": 64626,
      "transactionIndex": 2,
      "confirmations": null,
      "from": "0xcdd7eeb6f6553DcDD3f3e5c0dE60b1510458c2E3",
      "gasPrice": {
        "_hex": "0xba43b7400"
      },
      "gasLimit": {
        "_hex": "0x5208"
      },
      "to": "0x3f76E571eb8dF8647eA31D1Af03806033C45D6EC",
      "value": {
        "_hex": "0xc1c23435b07000"
      },
      "nonce": 1,
      "data": "0x",
      "r": "0x748084d8841b98a186587b3b3f682cb5446d947b86524c89311c2a1481221aae",
      "s": "0x218ccb6bf9e95fbccbd61dd3bf8df40ff9f947695cc0f6aad0110559a4fb087b",
      "v": 28,
      "creates": null,
      "raw": "0xf86b01850ba43b7400825208943f76e571eb8df8647ea31d1af03806033c45d6ec87c1c23435b07000801ca0748084d8841b98a186587b3b3f682cb5446d947b86524c89311c2a1481221aaea0218ccb6bf9e95fbccbd61dd3bf8df40ff9f947695cc0f6aad0110559a4fb087b",
      "networkId": 0,
      "chainId": 0
    },
    {
      "hash": "0x809e6f9a3008cc075baaacac65c839877ed6b92fbaade0c71db6aecf2dbfb157",
      "blockHash": "0xc8b4153eee023dc4524381882444f2af518041572cb22e99cf49abc3638256b2",
      "blockNumber": 64626,
      "transactionIndex": 3,
      "confirmations": null,
      "from": "0x6747f922385c9a6F9cfDf095F34345257DD597bE",
      "gasPrice": {
        "_hex": "0xba43b7400"
      },
      "gasLimit": {
        "_hex": "0x5208"
      },
      "to": "0x68a15AFeE586c121bF7c1879fa793fF48c668b8D",
      "value": {
        "_hex": "0x1fcbfa42bd6000"
      },
      "nonce": 19,
      "data": "0x",
      "r": "0xdcc209dc10c9874c83bb796451d068776295d3ca7e52406c354f2612b020dacb",
      "s": "0x4d4fbb17270adaa8657efc0374be57180c533ca42fd8621a60c09952eada9678",
      "v": 28,
      "creates": null,
      "raw": "0xf86b13850ba43b74008252089468a15afee586c121bf7c1879fa793ff48c668b8d871fcbfa42bd6000801ca0dcc209dc10c9874c83bb796451d068776295d3ca7e52406c354f2612b020dacba04d4fbb17270adaa8657efc0374be57180c533ca42fd8621a60c09952eada9678",
      "networkId": 0,
      "chainId": 0
    },
    {
      "hash": "0x69fae8ece69018201fb2ac35b1f3d68c7bc4484ab97df76b9f3b95c7a1af0505",
      "blockHash": "0xc8b4153eee023dc4524381882444f2af518041572cb22e99cf49abc3638256b2",
      "blockNumber": 64626,
      "transactionIndex": 4,
      "confirmations": null,
      "from": "0x6A9F8624353F14cCEb44fa0Ea6a70a8f066008a5",
      "gasPrice": {
        "_hex": "0xba43b7400"
      },
      "gasLimit": {
        "_hex": "0x5208"
      },
      "to": "0xAF31D10fB80041D29ca38427E92943ecf40E5fF7",
      "value": {
        "_hex": "0x937bda828f9000"
      },
      "nonce": 1,
      "data": "0x",
      "r": "0x3de73e8d492ee5a2130a7f6d2216c7e5cab70e5033ecd15c186dab6b043249d9",
      "s": "0x179a47711fdf82a2162e7fd376bd11b4b6d8969935bb5430cde0cfe28cd9b04d",
      "v": 27,
      "creates": null,
      "raw": "0xf86b01850ba43b740082520894af31d10fb80041d29ca38427e92943ecf40e5ff787937bda828f9000801ba03de73e8d492ee5a2130a7f6d2216c7e5cab70e5033ecd15c186dab6b043249d9a0179a47711fdf82a2162e7fd376bd11b4b6d8969935bb5430cde0cfe28cd9b04d",
      "networkId": 0,
      "chainId": 0
    },
    {
      "hash": "0x015dfb4dabbccfbd20e8eb70d42c98293e7936dff064b0b2559847bd5a925bc1",
      "blockHash": "0xc8b4153eee023dc4524381882444f2af518041572cb22e99cf49abc3638256b2",
      "blockNumber": 64626,
      "transactionIndex": 5,
      "confirmations": null,
      "from": "0x08018eDEaBcEb777a0d0Ed1c3D31a48C76A62fcE",
      "gasPrice": {
        "_hex": "0xba43b7400"
      },
      "gasLimit": {
        "_hex": "0x5208"
      },
      "to": "0x4CFEB0D2a1F03Dcaa43CF0aa90B112f8600192bA",
      "value": {
        "_hex": "0x36ef271c4dd000"
      },
      "nonce": 1,
      "data": "0x",
      "r": "0x6dfb50a3fbb66833d0a157ac906a906e53e47d417f7be133c590fe8a24d43206",
      "s": "0x0d5bd8833ee85cf72f7a85de44fff9c0ab83304d28773799b0724b61b173f684",
      "v": 27,
      "creates": null,
      "raw": "0xf86b01850ba43b7400825208944cfeb0d2a1f03dcaa43cf0aa90b112f8600192ba8736ef271c4dd000801ba06dfb50a3fbb66833d0a157ac906a906e53e47d417f7be133c590fe8a24d43206a00d5bd8833ee85cf72f7a85de44fff9c0ab83304d28773799b0724b61b173f684",
      "networkId": 0,
      "chainId": 0
    },
    {
      "hash": "0x35940d23b55d22bbc3cbe51d1b70a173ef8667801829591faed8db35b3befa76",
      "blockHash": "0xc8b4153eee023dc4524381882444f2af518041572cb22e99cf49abc3638256b2",
      "blockNumber": 64626,
      "transactionIndex": 6,
      "confirmations": null,
      "from": "0x302d3b0d7a8eAa079b8b34Bf43C909062Fec8C7E",
      "gasPrice": {
        "_hex": "0xba43b7400"
      },
      "gasLimit": {
        "_hex": "0x5208"
      },
      "to": "0x07540E11Db7aBF979DB83fFf5AECCA9BF6dF8fC9",
      "value": {
        "_hex": "0x937bda828f9000"
      },
      "nonce": 1,
      "data": "0x",
      "r": "0x6b34a18cc525cbf7c449b8cca6e6a16bee7203fc81ea228e5b08480ef4b84abb",
      "s": "0x0c9a8800804fe995fa3e6e1b183752d17812bb9e7bfde57c44bafb8dd34fd15a",
      "v": 27,
      "creates": null,
      "raw": "0xf86b01850ba43b74008252089407540e11db7abf979db83fff5aecca9bf6df8fc987937bda828f9000801ba06b34a18cc525cbf7c449b8cca6e6a16bee7203fc81ea228e5b08480ef4b84abba00c9a8800804fe995fa3e6e1b183752d17812bb9e7bfde57c44bafb8dd34fd15a",
      "networkId": 0,
      "chainId": 0
    }
  ]
}