{
  "hash": "0x7e89a4a3af21902a09625f88770af23e6e8162d9d77e7315d9c452ac612b5d2c",
  "parentHash": "0x30fab5fb8b4d0fc8cdfa1affabe5ff5367774df44f084528e94b25c3c3f6c970",
  "number": 89902,
  "timestamp": 1439630920,
  "nonce": "0x2917eb892770f36c",
  "difficulty": 3341822207867,
  "gasLimit": {
    "_hex": "0x2fefd8"
  },
  "gasUsed": {
    "_hex": "0x1ec30"
  },
  "miner": "0xC5e0Fa35fA08dFBD5f9268fEa7a40e25244d8306",
  "extraData": "0x476574682f76312e302e312f6c696e75782f676f312e342e32",
  "transactions": [
    {
      "hash": "0x387e58b8c4c45bb1e5e68b3c635ddab40319d9151aeb53a73d5515dc07910e85",
      "blockHash": "0x7e89a4a3af21902a09625f88770af23e6e8162d9d77e7315d9c452ac612b5d2c",
      "blockNumber": 89902,
      "transactionIndex": 0,
      "confirmations": null,
      "from": "0x10c4712a317A10F60fE9347b199400d6BaA89558",
      "gasPrice": {
        "_hex": "0xd30b25656"
      },
      "gasLimit": {
        "_hex": "0x15f90"
      },
      "to": "0x5465B1c380c9D2446965E503EB731F08A30ecD25",
      "value": {
        "_hex": "0x2a9ad4bc04730000"
      },
      "nonce": 1,
      "data": "0x",
      "r": "0x8bae7c8a74c690a52995b3cf3607c637b571bb097e8abbb6a18e33dc0ea1a382",
      "s": "0x5353f60e829f9c4aa39076751342bec2e77b13c10f40ed4f231922eecb217fb6",
      "v": 28,
      "creates": null,
      "raw": "0xf86d01850d30b2565683015f90945465b1c380c9d2446965e503eb731f08a30ecd25882a9ad4bc04730000801ca08bae7c8a74c690a52995b3cf3607c637b571bb097e8abbb6a18e33dc0ea1a382a05353f60e829f9c4aa39076751342bec2e77b13c10f40ed4f231922eecb217fb6",
      "networkId": 0,
      "chainId": 0
    },
    {
      "hash": "0x70f46fe38c5bf48cb5cb2182540da5629ab5af01bbcf7116282f43be32452760",
      "blockHash": "0x7e89a4a3af21902a09625f88770af23e6e8162d9d77e7315d9c452ac612b5d2c",
      "blockNumber": 89902,
      "transactionIndex": 1,
      "confirmations": null,
      "from": "0x4a900C6a7785648E677cd96E39603466c0C7744A",
      "gasPrice": {
        "_hex": "0xcf6d297cb"
      },
      "gasLimit": {
        "_hex": "0x5208"
      },
      "to": "0x32Be343B94f860124dC4fEe278FDCBD38C102D88",
      "value": {
        "_hex": "0x7b9e14f165063800"
      },
      "nonce": 1,
      "data": "0x",
      "r": "0xad213bd3ae5e11be59b656dda1bee36e1563846286fc8d20a9749b05f217fc11",
      "s": "0x67b97ab5c1c760158c64902000eebc4307a06d9bb99006d83307100834dc841e",
      "v": 27,
      "creates": null,
      "raw": "0xf86c01850cf6d297cb8252089432be343b94f860124dc4fee278fdcbd38c102d88887b9e14f165063800801ba0ad213bd3ae5e11be59b656dda1bee36e1563846286fc8d20a9749b05f217fc11a067b97ab5c1c760158c64902000eebc4307a06d9bb99006d83307100834dc841e",
      "networkId": 0,
      "chainId": 0
    },
    {
      "hash": "0xb6414bcd9562d893a27a7620bbeca95b22cf48ef826a24b7666b85ff89cbcd17",
      "blockHash": "0x7e89a4a3af21902a09625f88770af23e6e8162d9d77e7315d9c452ac612b5d2c",
      "blockNumber": 89902,
      "transactionIndex": 2,
      "confirmations": null,
      "from": "0x665646727edaAEbB32B5F1A9b4e4F3BD867AA8fB",
      "gasPrice": {
        "_hex": "0xcd7eca4d3"
      },
      "gasLimit": {
        "_hex": "0x5208"
      },
      "to": "0x32Be343B94f860124dC4fEe278FDCBD38C102D88",
      "value": {
        "_hex": "0x1e7aaf67d2d1e0000"
      },
      "nonce": 1,
      "data": "0x",
      "r": "0xdf3682628da945edd43ee2d4b577093dc60089a019883b2099edf918b1d6d7d0",
      "s": "0x7a15d525321612f0535af9dc1b1ea66a812bc46bd41bb4b91c9f67bfc72eeb5d",
      "v": 28,
      "creates": null,
      "raw": "0xf86d01850cd7eca4d38252089432be343b94f860124dc4fee278fdcbd38c102d888901e7aaf67d2d1e0000801ca0df3682628da945edd43ee2d4b577093dc60089a019883b2099edf918b1d6d7d0a07a15d525321612f0535af9dc1b1ea66a812bc46bd41bb4b91c9f67bfc72eeb5d",
      "networkId": 0,
      "chainId": 0
    },
    {
      "hash": "0x450a33eee67a82877f07d43cc647eceedb2ccecc352b7415e821c0ea18128120",
      "blockHash": "0x7e89a4a3af21902a09625f88770af23e6e8162d9d77e7315d9c452ac612b5d2c",
      "blockNumber": 89902,
      "transactionIndex": 3,
      "confirmations": null,
      "from": "0x59cC965F1643a68ad7a4272ff1654d4af4343ea7",
      "gasPrice": {
        "_hex": "0xcd7eca4d3"
      },
      "gasLimit": {
        "_hex": "0x5208"
      },
      "to": "0x32Be343B94f860124dC4fEe278FDCBD38C102D88",
      "value": {
        "_hex": "0x1537632b536d7a000"
      },
      "nonce": 1,
      "data": "0x",
      "r": "0x72e16e3a0a0f3314f5149cbf60f344706d316f0bdf2fd99801b995a354b8ff22",
      "s": "0x647a0b799394f2f6525dd5b2167c221e83c887e6db3b6e5d1c3b00aba2bdcfa5",
      "v": 27,
      "creates": null,
      "raw": "0xf86d01850cd7eca4d38252089432be343b94f860124dc4fee278fdcbd38c102d888901537632b536d7a000801ba072e16e3a0a0f3314f5149cbf60f344706d316f0bdf2fd99801b995a354b8ff22a0647a0b799394f2f6525dd5b2167c221e83c887e6db3b6e5d1c3b00aba2bdcfa5",
      "networkId": 0,
      "chainId": 0
    },
    {
      "hash": "0x710eb756240e2d5733622e38c4c9f0be458dc55bcf537b5f51de8480073cdaec",
      "blockHash": "0x7e89a4a3af21902a09625f88770af23e6e8162d9d77e7315d9c452ac612b5d2c",
      "blockNumber": 89902,
      "transactionIndex": 4,
      "confirmations": null,
      "from": "0x3F6DDbC103F2999640fe4AFc6884708fa691C2b8",
      "gasPrice": {
        "_hex": "0xcd7eca4d3"
      },
      "gasLimit": {
        "_hex": "0x5208"
      },
      "to": "0x32Be343B94f860124dC4fEe278FDCBD38C102D88",
      "value": {
        "_hex": "0x5dc2673562f02c00"
      },
      "nonce": 1,
      "data": "0x",
      "r": "0x17a2350e6a9a046f78f2ca9238720f7a86e665092e2b36fee78f293a8517ca61",
      "s": "0x7bb58ea05146c1285c21f1a80a3cfa221ade7f7d6d2a7ab04cb6ad30c222f082",
      "v": 27,
      "creates": null,
      "raw": "0xf86c01850cd7eca4d38252089432be343b94f860124dc4fee278fdcbd38c102d88885dc2673562f02c00801ba017a2350e6a9a046f78f2ca9238720f7a86e665092e2b36fee78f293a8517ca61a07bb58ea05146c1285c21f1a80a3cfa221ade7f7d6d2a7ab04cb6ad30c222f082",
      "networkId": 0,
      "chainId": 0
    },
    {
      "hash": "0x4a865af78c5a88141fdace3637ab35b7e0d5f60db59e88ba79c3b08f3a2fd06d",
      "blockHash": "0x7e89a4a3af21902a09625f88770af23e6e8162d9d77e7315d9c452ac612b5d2c",
      "blockNumber": 89902,
      "transactionIndex": 5,
      "confirmations": null,
      "from": "0xB28fE7b9815982FF203F751ce550111D752d8795",
      "gasPrice": {
        "_hex": "0xcd7eca4d3"
      },
      "gasLimit": {
        "_hex": "0x5208"
      },
      "to": "0x32Be343B94f860124dC4fEe278FDCBD38C102D88",
      "value": {
        "_hex": "0x38c5bf3664b9c8000"
      },
      "nonce": 1,
      "data": "0x",
      "r": "0xf0ce225211b55f89880cd80686928aaf76056f5e649e77d71f5be4f6ddbbd525",
      "s": "0x0420252ece4d66ee02f506f2c84e13df14ec7f11a167c3e7809f0cbc6758ab1c",
      "v": 28,
      "creates": null,
      "raw": "0xf86d01850cd7eca4d38252089432be343b94f860124dc4fee278fdcbd38c102d8889038c5bf3664b9c8000801ca0f0ce225211b55f89880cd80686928aaf76056f5e649e77d71f5be4f6ddbbd525a00420252ece4d66ee02f506f2c84e13df14ec7f11a167c3e7809f0cbc6758ab1c",
      "networkId": 0,
      "chainId": 0
    }
  ]
}