{
  "hash": "0x9d16cc39c9f255d8db23ab070c71c9390ef7a3da0b3217f5408267cd72d913b6",
  "parentHash": "0x1378a91734430e29071cb650ac4a57ae22f522b44cb07b147b4c17115e9df77d",
  "number": 99401,
  "timestamp": 1439789492,
  "nonce": "0x7e4b6455d8d14aa1",
  "difficulty": 3795445666664,
  "gasLimit": {
    "_hex": "0x2fefd8"
  },
  "gasUsed": {
    "_hex": "0x5208"
  },
  "miner": "0x7D45E10A0d63eCCA0694a7cbfF030f4dD87DA0dC",
  "extraData": "0x476574682f76312e302e302f77696e646f77732f676f312e342e32",
  "transactions": [
    {
      "hash": "0xd70537f844bffd23d907c1fde0945873bc40bd5fda9dc09d7d7b69d8eb4dc3dc",
      "blockHash": "0x9d16cc39c9f255d8db23ab070c71c9390ef7a3da0b3217f5408267cd72d913b6",
      "blockNumber": 99401,
      "transactionIndex": 0,
      "confirmations": null,
      "from": "0x120A270bbC009644e35F0bB6ab13f95b8199c4ad",
      "gasPrice": {
        "_hex": "0xde80aef92"
      },
      "gasLimit": {
        "_hex": "0x3d090"
      },
      "to": "0x083284f706Cde367d349AC3cDF88C3E8db4f1ac6",
      "value": {
        "_hex": "0x389651c4514cf2800"
      },
      "nonce": 667,
      "data": "0x",
      "r": "0xa1414315b527e76493f7607c624eea74462a22593aae052b8f9d6d1757fea78f",
      "s": "0x6b3b4933a690de5f02c5453881b4637c2bfe568508bd18b08cf6ad1e53bfcb04",
      "v": 27,
      "creates": null,
      "raw": "0xf87082029b850de80aef928303d09094083284f706cde367d349ac3cdf88c3e8db4f1ac6890389651c4514cf2800801ba0a1414315b527e76493f7607c624eea74462a22593aae052b8f9d6d1757fea78fa06b3b4933a690de5f02c5453881b4637c2bfe568508bd18b08cf6ad1e53bfcb04",
      "networkId": 0,
      "chainId": 0
    }
  ]
}