{
  "hash": "0x711ed6db42cf87fc41bc9ccce9bf82a80cb16c7d85efd3a342432b21fdd819fc",
  "parentHash": "0x058e11a3dd50fe9654ec35a9d2b921e5e4a9dfbaba7dcfc8b13c802e7878abf2",
  "number": 68572,
  "timestamp": 1439290254,
  "nonce": "0x19d9091cef5f362c",
  "difficulty": 2010365881322,
  "gasLimit": {
    "_hex": "0x2fefd8"
  },
  "gasUsed": {
    "_hex": "0x5208"
  },
  "miner": "0xbb7B8287f3F0a933474a79eAe42CBCa977791171",
  "extraData": "0x476574682f4c5649562f76312e302e312f6c696e75782f676f312e342e32",
  "transactions": [
    {
      "hash": "0x60cfde10b9cfb2373d7319bd7939213691189858cab88013ab30cee4e466bc11",
      "blockHash": "0x711ed6db42cf87fc41bc9ccce9bf82a80cb16c7d85efd3a342432b21fdd819fc",
      "blockNumber": 68572,
      "transactionIndex": 0,
      "confirmations": null,
      "from": "0xCB49b38368F1bE9eEA795163D84E73eFcDfB254b",
      "gasPrice": {
        "_hex": "0xba43b7400"
      },
      "gasLimit": {
        "_hex": "0x5208"
      },
      "to": "0x996Ac856a6eb5460E7fE501519e74B3f3CF00483",
      "value": {
        "_hex": "0xaa9f075c200000"
      },
      "nonce": 1,
      "data": "0x",
      "r": "0x9fa8e0f9ada11dbeecc57276cf9c65efa725fc8ada1b9f99989ae6edc48d417b",
      "s": "0x0ecde40ba48aa1be63edcec5b22b561475c34c4a20d4aa709ec2bb6c0be7b211",
      "v": 27,
      "creates": null,
      "raw": "0xf86b01850ba43b740082520894996ac856a6eb5460e7fe501519e74b3f3cf0048387aa9f075c200000801ba09fa8e0f9ada11dbeecc57276cf9c65efa725fc8ada1b9f99989ae6edc48d417ba00ecde40ba48aa1be63edcec5b22b561475c34c4a20d4aa709ec2bb6c0be7b211",
      "networkId": 0,
      "chainId": 0
    }
  ]
}