{
  "hash": "0x60c3c4f0c0b3136e758c950bd22eba6afa33dd059abdebe67f2cbbaa4cfe6f3c",
  "parentHash": "0xd71c5a5161a4163b9206844f282022885f011d820060f392b1536b08bbde247a",
  "number": 84659,
  "timestamp": 1439552689,
  "nonce": "0x517e173d3ccdfcef",
  "difficulty": 2602969588614,
  "gasLimit": {
    "_hex": "0x2fefd8"
  },
  "gasUsed": {
    "_hex": "0xf618"
  },
  "miner": "0xf8E0CA3Ed80bd541b94BEdCf259e8CF2141A9523",
  "extraData": "0x476574682f76312e302e312f77696e646f77732f676f312e342e32",
  "transactions": [
    {
      "hash": "0x6cd5c2e09589dd986ef5c878380e99fa7115f0071f34c73093a8e76aff29ef92",
      "blockHash": "0x60c3c4f0c0b3136e758c950bd22eba6afa33dd059abdebe67f2cbbaa4cfe6f3c",
      "blockNumber": 84659,
      "transactionIndex": 0,
      "confirmations": null,
      "from": "0x40B9b889A21Ff1534d018D71Dc406122EBcf3F5A",
      "gasPrice": {
        "_hex": "0x107a830cf16"
      },
      "gasLimit": {
        "_hex": "0x15f90"
      },
      "to": "0x4A18324Ad90189eF1478D65385286140fC3063D1",
      "value": {
        "_hex": "0x12f939c99edab80000"
      },
      "nonce": 20,
      "data": "0x",
      "r": "0x3113e1880e8e1e7594170ca5122635e90293d15d42dca292bbb92c3f2faf2613",
      "s": "0x53dfde7180d467a0caee91d7f94f4c8c72e4211453a8937254d38119aaa85374",
      "v": 28,
      "creates": null,
      "raw": "0xf86f14860107a830cf1683015f90944a18324ad90189ef1478d65385286140fc3063d18912f939c99edab80000801ca03113e1880e8e1e7594170ca5122635e90293d15d42dca292bbb92c3f2faf2613a053dfde7180d467a0caee91d7f94f4c8c72e4211453a8937254d38119aaa85374",
      "networkId": 0,
      "chainId": 0
    },
    {
      "hash": "0xff250c34bc17d647a580242527f3736c70c4d5746c743ccd48bd914b8dfb2e1c",
      "blockHash": "0x60c3c4f0c0b3136e758c950bd22eba6afa33dd059abdebe67f2cbbaa4cfe6f3c",
      "blockNumber": 84659,
      "transactionIndex": 1,
      "confirmations": null,
      "from": "0x7aBb10F5bd9BC33B8Ec1A82d64b55b6B18777541",
      "gasPrice": {
        "_hex": "0x174876e800"
      },
      "gasLimit": {
        "_hex": "0x5208"
      },
      "to": "0xe6eC56FCecC4dCDB26a178ca4B921b9172e8739c",
      "value": {
        "_hex": "0x4563918244f40000"
      },
      "nonce": 6,
      "data": "0x",
      "r": "0xb6b0d1011482e640009b26a77aabc8f68dbf124f305411215903639481e612d8",
      "s": "0x1ec53538b59345e66db14c4e49281cd6044b84e7e50394f0c2c17bbebcb9636b",
      "v": 28,
      "creates": null,
      "raw": "0xf86c0685174876e80082520894e6ec56fcecc4dcdb26a178ca4b921b9172e8739c884563918244f40000801ca0b6b0d1011482e640009b26a77aabc8f68dbf124f305411215903639481e612d8a01ec53538b59345e66db14c4e49281cd6044b84e7e50394f0c2c17bbebcb9636b",
      "networkId": 0,
      "chainId": 0
    },
    {
      "hash": "0xa7544add64756acef506c91306e8a2b3cb9e397322c47ea30be07878d1b732bd",
      "blockHash": "0x60c3c4f0c0b3136e758c950bd22eba6afa33dd059abdebe67f2cbbaa4cfe6f3c",
      "blockNumber": 84659,
      "transactionIndex": 2,
      "confirmations": null,
      "from": "0x120A270bbC009644e35F0bB6ab13f95b8199c4ad",
      "gasPrice": {
        "_hex": "0xd1fd406b7"
      },
      "gasLimit": {
        "_hex": "0x3d090"
      },
      "to": "0x80a9558a9ed065218D0b99d2287a7D3Bfb974783",
      "value": {
        "_hex": "0x3758daa01cd640800"
      },
      "nonce": 432,
      "data": "0x",
      "r": "0x119bdbb1037b070166eaa4d14202a0279610059bc6b1207682095a0b6ffd6d43",
      "s": "0x38423c90f420707b8c38560866c12c7fd5332ab76d005c0e6e9c13c0cd3f6fff",
      "v": 28,
      "creates": null,
      "raw": "0xf8708201b0850d1fd406b78303d0909480a9558a9ed065218d0b99d2287a7d3bfb9747838903758daa01cd640800801ca0119bdbb1037b070166eaa4d14202a0279610059bc6b1207682095a0b6ffd6d43a038423c90f420707b8c38560866c12c7fd5332ab76d005c0e6e9c13c0cd3f6fff",
      "networkId": 0,
      "chainId": 0
    }
  ]
}