{
  "hash": "0xf3e4b8fb41e204e59a219f9e2840d8d0daedf25eaf59e07a2072dd44e13f9f84",
  "parentHash": "0xeac817ab94622796f477959014b346a1ff9f58eaa4b17dd94b12f63f88eb8ea9",
  "number": 94636,
  "timestamp": 1439711426,
  "nonce": "0x4bb1e3719f5053f7",
  "difficulty": 3507066810024,
  "gasLimit": {
    "_hex": "0x2fefd8"
  },
  "gasUsed": {
    "_hex": "0x61698"
  },
  "miner": "0xbb7B8287f3F0a933474a79eAe42CBCa977791171",
  "extraData": "0x476574682f4c5649562f76312e302e312f6c696e75782f676f312e342e32",
  "transactions": [
    {
      "hash": "0xfeec1d39602d299344c9b933977838c7037c1b6b154e27998e9c8009c6473157",
      "blockHash": "0xf3e4b8fb41e204e59a219f9e2840d8d0daedf25eaf59e07a2072dd44e13f9f84",
      "blockNumber": 94636,
      "transactionIndex": 0,
      "confirmations": null,
      "from": "0x40B9b889A21Ff1534d018D71Dc406122EBcf3F5A",
      "gasPrice": {
        "_hex": "0x1099c06bb4b"
      },
      "gasLimit": {
        "_hex": "0x15f90"
      },
      "to": "0xaE4c96e4e84096d4F938582C4d9E379c2C181901",
      "value": {
        "_hex": "0xd8d726b7177a800000"
      },
      "nonce": 25,
      "data": "0x",
      "r": "0x1d932b14f5c5d7998436c7943da733df9cb859e1ec8ae0a2eff789b51162babc",
      "s": "0x4e0699eab127aedd97db6988760912865b2a69d9b6b425928d1818a954ad0f16",
      "v": 27,
      "creates": null,
      "raw": "0xf86f198601099c06bb4b83015f9094ae4c96e4e84096d4f938582c4d9e379c2c18190189d8d726b7177a800000801ba01d932b14f5c5d7998436c7943da733df9cb859e1ec8ae0a2eff789b51162babca04e0699eab127aedd97db6988760912865b2a69d9b6b425928d1818a954ad0f16",
      "networkId": 0,
      "chainId": 0
    },
    {
      "hash": "0x29231c89bad46f1f819f8fa29f1f72f639fe11afe96ec2634116b568c22eded6",
      "blockHash": "0xf3e4b8fb41e204e59a219f9e2840d8d0daedf25eaf59e07a2072dd44e13f9f84",
      "blockNumber": 94636,
      "transactionIndex": 1,
      "confirmations": null,
      "from": "0xe6A7a1d47ff21B6321162AEA7C6CB457D5476Bca",
      "gasPrice": {
        "_hex": "0xdec0b7c0e"
      },
      "gasLimit": {
        "_hex": "0x55f0"
      },
      "to": "0xB06c47325B63091CF8555d4709bC8fA20AAE1E49",
      "value": {
        "_hex": "0xde2e9621841ec14"
      },
      "nonce": 2499,
      "data": "0x",
      "r": "0x7899a6dbce3d3917bab5b87465376c76e739a982b9f9a2556d7321bf718990b5",
      "s": "0x69ee1755899cc4bc0a1eebf611c716aed2acaea8984d747b14fe95af2effe7a9",
      "v": 28,
      "creates": null,
      "raw": "0xf86e8209c3850dec0b7c0e8255f094b06c47325b63091cf8555d4709bc8fa20aae1e49880de2e9621841ec14801ca07899a6dbce3d3917bab5b87465376c76e739a982b9f9a2556d7321bf718990b5a069ee1755899cc4bc0a1eebf611c716aed2acaea8984d747b14fe95af2effe7a9",
      "networkId": 0,
      "chainId": 0
    },
    {
      "hash": "0x1a5ce6bdf39a6aa1292c57b293f48ca886a638a20b562edf75dbb4c2a702fa28",
      "blockHash": "0xf3e4b8fb41e204e59a219f9e2840d8d0daedf25eaf59e07a2072dd44e13f9f84",
      "blockNumber": 94636,
      "transactionIndex": 2,
      "confirmations": null,
      "from": "0xe6A7a1d47ff21B6321162AEA7C6CB457D5476Bca",
      "gasPrice": {
        "_hex": "0xdec0b7c0e"
      },
      "gasLimit": {
        "_hex": "0x55f0"
      },
      "to": "0x5d5C63DC6059181d044515c7602236C9cA2B25e6",
      "value": {
        "_hex": "0xdf4237a48b7a574"
      },
      "nonce": 2500,
      "data": "0x",
      "r": "0xeebf7a18474c019382f8f3ea3482ea8fed29b362c5bda271aa4537f7760adb69",
      "s": "0x013ca00c34d88b5225d9a9b6b59aca6fe422a201928155fc1706db9c9ef09e6f",
      "v": 27,
      "creates": null,
      "raw": "0xf86e8209c4850dec0b7c0e8255f0945d5c63dc6059181d044515c7602236c9ca2b25e6880df4237a48b7a574801ba0eebf7a18474c019382f8f3ea3482ea8fed29b362c5bda271aa4537f7760adb69a0013ca00c34d88b5225d9a9b6b59aca6fe422a201928155fc1706db9c9ef09e6f",
      "networkId": 0,
      "chainId": 0
    },
    {
      "hash": "0x00dbeeb3610c5a4ccb2cba4f8afd5f8cbcf1d2fae5a8f2029ffb7b0fc563ef29",
      "blockHash": "0xf3e4b8fb41e204e59a219f9e2840d8d0daedf25eaf59e07a2072dd44e13f9f84",
      "blockNumber": 94636,
      "transactionIndex": 3,
      "confirmations": null,
      "from": "0xe6A7a1d47ff21B6321162AEA7C6CB457D5476Bca",
      "gasPrice": {
        "_hex": "0xdec0b7c0e"
      },
      "gasLimit": {
        "_hex": "0x55f0"
      },
      "to": "0xC8E18619E6F0976FC389a37cba21bc6d080284ee",
      "value": {
        "_hex": "0xe1a57ccf6617b1c"
      },
      "nonce": 2501,
      "data": "0x",
      "r": "0x91f7eec267c37514852da196f7c301ecbdcd0f18325a74ee403ade039af2d7c6",
      "s": "0x138bfdeef92032b0898c55d9f1b34250e2d756e1aa20c04613a5fa2e91de33c9",
      "v": 28,
      "creates": null,
      "raw": "0xf86e8209c5850dec0b7c0e8255f094c8e18619e6f0976fc389a37cba21bc6d080284ee880e1a57ccf6617b1c801ca091f7eec267c37514852da196f7c301ecbdcd0f18325a74ee403ade039af2d7c6a0138bfdeef92032b0898c55d9f1b34250e2d756e1aa20c04613a5fa2e91de33c9",
      "networkId": 0,
      "chainId": 0
    },
    {
      "hash": "0xb292332e0c1e34d5ca670507e27c46259e55f7a6b3fe3e83f9b3778a66e54ab9",
      "blockHash": "0xf3e4b8fb41e204e59a219f9e2840d8d0daedf25eaf59e07a2072dd44e13f9f84",
      "blockNumber": 94636,
      "transactionIndex": 4,
      "confirmations": null,
      "from": "0xe6A7a1d47ff21B6321162AEA7C6CB457D5476Bca",
      "gasPrice": {
        "_hex": "0xdec0b7c0e"
      },
      "gasLimit": {
        "_hex": "0x55f0"
      },
      "to": "0x36Abc9dbfaa73C3c22c079F54D2A5434AA210cd6",
      "value": {
        "_hex": "0xe40dcd24b06c7ac"
      },
      "nonce": 2502,
      "data": "0x",
      "r": "0x95a3deae430912a7d71ec1fb0f0fc77582b0f7b1e6cb1aadc366d16be83895d7",
      "s": "0x4b803a10a00528ad9bf5afc047aca18b97ba8a3c6ce429d5e28cd2bb085ef5e5",
      "v": 27,
      "creates": null,
      "raw": "0xf86e8209c6850dec0b7c0e8255f09436abc9dbfaa73c3c22c079f54d2a5434aa210cd6880e40dcd24b06c7ac801ba095a3deae430912a7d71ec1fb0f0fc77582b0f7b1e6cb1aadc366d16be83895d7a04b803a10a00528ad9bf5afc047aca18b97ba8a3c6ce429d5e28cd2bb085ef5e5",
      "networkId": 0,
      "chainId": 0
    },
    {
      "hash": "0x74e8e13467a4484232fba52944fb62bd39cdb4627cc969cb5246a94d73f856a5",
      "blockHash": "0xf3e4b8fb41e204e59a219f9e2840d8d0daedf25eaf59e07a2072dd44e13f9f84",
      "blockNumber": 94636,
      "transactionIndex": 5,
      "confirmations": null,
      "from": "0xe6A7a1d47ff21B6321162AEA7C6CB457D5476Bca",
      "gasPrice": {
        "_hex": "0xdec0b7c0e"
      },
      "gasLimit": {
        "_hex": "0x55f0"
      },
      "to": "0x1ee96bFCC664C0D4430267bDAd17A38946655eE3",
      "value": {
        "_hex": "0xe43a4149ce531b0"
      },
      "nonce": 2503,
      "data": "0x",
      "r": "0xf443c7894d73daeac0a78be49f0c2113aaae3f02ab89b72682f3f9ea0e78057d",
      "s": "0x6b5c2e9f603f390666dc0049a88c02e8f0c4579ddbad03ef97249462f0f81d51",
      "v": 27,
      "creates": null,
      "raw": "0xf86e8209c7850dec0b7c0e8255f0941ee96bfcc664c0d4430267bdad17a38946655ee3880e43a4149ce531b0801ba0f443c7894d73daeac0a78be49f0c2113aaae3f02ab89b72682f3f9ea0e78057da06b5c2e9f603f390666dc0049a88c02e8f0c4579ddbad03ef97249462f0f81d51",
      "networkId": 0,
      "chainId": 0
    },
    {
      "hash": "0x4d0e333f6c82b64bc1ffb2f02bc5eccc6ca6fa372d537f1776699c0b75398167",
      "blockHash": "0xf3e4b8fb41e204e59a219f9e2840d8d0daedf25eaf59e07a2072dd44e13f9f84",
      "blockNumber": 94636,
      "transactionIndex": 6,
      "confirmations": null,
      "from": "0xe6A7a1d47ff21B6321162AEA7C6CB457D5476Bca",
      "gasPrice": {
        "_hex": "0xdec0b7c0e"
      },
      "gasLimit": {
        "_hex": "0x55f0"
      },
      "to": "0x399e51beB529F28056C392653C99A2Ebb654571F",
      "value": {
        "_hex": "0xe8eb316bdd1c850"
      },
      "nonce": 2504,
      "data": "0x",
      "r": "0xf2a16fe0ea9daa79868ab06f3fad83793ef1c13fda04bfadde8fd3134cfd89dc",
      "s": "0x0692793f8b112919690d9704ed67a655838fa41c91330675cba8becaae53274a",
      "v": 28,
      "creates": null,
      "raw": "0xf86e8209c8850dec0b7c0e8255f094399e51beb529f28056c392653c99a2ebb654571f880e8eb316bdd1c850801ca0f2a16fe0ea9daa79868ab06f3fad83793ef1c13fda04bfadde8fd3134cfd89dca00692793f8b112919690d9704ed67a655838fa41c91330675cba8becaae53274a",
      "networkId": 0,
      "chainId": 0
    },
    {
      "hash": "0xf94802762bf9459897952a6ebc12169b1475e25a1b51629e519dc46654d7be76",
      "blockHash": "0xf3e4b8fb41e204e59a219f9e2840d8d0daedf25eaf59e07a2072dd44e13f9f84",
      "blockNumber": 94636,
      "transactionIndex": 7,
      "confirmations": null,
      "from": "0xe6A7a1d47ff21B6321162AEA7C6CB457D5476Bca",
      "gasPrice": {
        "_hex": "0xdec0b7c0e"
      },
      "gasLimit": {
        "_hex": "0x55f0"
      },
      "to": "0x9653c9859b18f8777Fe4eEc9a67c9F64F3D6F62a",
      "value": {
        "_hex": "0xebd0eadf8cab66c"
      },
      "nonce": 2505,
      "data": "0x",
      "r": "0x180758127b9599b98c2cfc9df3a634d7420bc3448e54d6783c1023d2ca6b7587",
      "s": "0x268b9f0984b4569ce8764846f0203f0050bfbdc7f7b62b77d8a3a5d3e82fbad0",
      "v": 28,
      "creates": null,
      "raw": "0xf86e8209c9850dec0b7c0e8255f0949653c9859b18f8777fe4eec9a67c9f64f3d6f62a880ebd0eadf8cab66c801ca0180758127b9599b98c2cfc9df3a634d7420bc3448e54d6783c1023d2ca6b7587a0268b9f0984b4569ce8764846f0203f0050bfbdc7f7b62b77d8a3a5d3e82fbad0",
      "networkId": 0,
      "chainId": 0
    },
    {
      "hash": "0xc881173830516c46915fac8673001af55d53f519133141cb197878d8ea0d1161",
      "blockHash": "0xf3e4b8fb41e204e59a219f9e2840d8d0daedf25eaf59e07a2072dd44e13f9f84",
      "blockNumber": 94636,
      "transactionIndex": 8,
      "confirmations": null,
      "from": "0xe6A7a1d47ff21B6321162AEA7C6CB457D5476Bca",
      "gasPrice": {
        "_hex": "0xdec0b7c0e"
      },
      "gasLimit": {
        "_hex": "0x55f0"
      },
      "to": "0xED2aF977080D441C24E9910f1e2078A4446d0bbf",
      "value": {
        "_hex": "0xebefdaf735b0e1c"
      },
      "nonce": 2506,
      "data": "0x",
      "r": "0x1ffb8770389d136a1f1f87a510b970123812e80f9462f9580495bdc45b53c2d8",
      "s": "0x4ef13e799cce812f63088b305c6d89cb93888c0e64be74fa7b87f2c86eadf873",
      "v": 27,
      "creates": null,
      "raw": "0xf86e8209ca850dec0b7c0e8255f094ed2af977080d441c24e9910f1e2078a4446d0bbf880ebefdaf735b0e1c801ba01ffb8770389d136a1f1f87a510b970123812e80f9462f9580495bdc45b53c2d8a04ef13e799cce812f63088b305c6d89cb93888c0e64be74fa7b87f2c86eadf873",
      "networkId": 0,
      "chainId": 0
    },
    {
      "hash": "0xb4623834262a77ad4164e642ba72de6337996af1a3f26f5eef94fbd00164c2b7",
      "blockHash": "0xf3e4b8fb41e204e59a219f9e2840d8d0daedf25eaf59e07a2072dd44e13f9f84",
      "blockNumber": 94636,
      "transactionIndex": 9,
      "confirmations": null,
      "from": "0xe6A7a1d47ff21B6321162AEA7C6CB457D5476Bca",
      "gasPrice": {
        "_hex": "0xdec0b7c0e"
      },
      "gasLimit": {
        "_hex": "0x55f0"
      },
      "to": "0xEcdB85520a15054F93f7e4B556A9630c287D1F1e",
      "value": {
        "_hex": "0xf06f90c2233acec"
      },
      "nonce": 2507,
      "data": "0x",
      "r": "0x9fa2c0b4236404130e27377f4401e61c58e2dd6025d604dd3f170c648032c776",
      "s": "0x38bf03e85dd0831160210b18c5ca53ddfec78e93874297c2558351aed71a0744",
      "v": 27,
      "creates": null,
      "raw": "0xf86e8209cb850dec0b7c0e8255f094ecdb85520a15054f93f7e4b556a9630c287d1f1e880f06f90c2233acec801ba09fa2c0b4236404130e27377f4401e61c58e2dd6025d604dd3f170c648032c776a038bf03e85dd0831160210b18c5ca53ddfec78e93874297c2558351aed71a0744",
      "networkId": 0,
      "chainId": 0
    },
    {
      "hash": "0x14e18ac037ae3893390f3e3db21c4707c5f7579298478b23f077ef19f4204c74",
      "blockHash": "0xf3e4b8fb41e204e59a219f9e2840d8d0daedf25eaf59e07a2072dd44e13f9f84",
      "blockNumber": 94636,
      "transactionIndex": 10,
      "confirmations": null,
      "from": "0xe6A7a1d47ff21B6321162AEA7C6CB457D5476Bca",
      "gasPrice": {
        "_hex": "0xdec0b7c0e"
      },
      "gasLimit": {
        "_hex": "0x55f0"
      },
      "to": "0xaFF2628417768132E1d04f605Fe1e797f2ECA3F8",
      "value": {
        "_hex": "0xf074d320ca764d4"
      },
      "nonce": 2508,
      "data": "0x",
      "r": "0x3f10ecd087d8d54b320ad4277380b7a5d5f50707f51c104bf6a4e18e0f323d01",
      "s": "0x38d865c89b4d8616e37b4c07e0a7db2b9ecbc2bc5e040dc94fea23a97075e3c6",
      "v": 27,
      "creates": null,
      "raw": "0xf86e8209cc850dec0b7c0e8255f094aff2628417768132e1d04f605fe1e797f2eca3f8880f074d320ca764d4801ba03f10ecd087d8d54b320ad4277380b7a5d5f50707f51c104bf6a4e18e0f323d01a038d865c89b4d8616e37b4c07e0a7db2b9ecbc2bc5e040dc94fea23a97075e3c6",
      "networkId": 0,
      "chainId": 0
    },
    {
      "hash": "0xf7f7ebe706564acfd6cec024beaeb59d2eb3ac2f29d66c25f85c3f7e06c2f02b",
      "blockHash": "0xf3e4b8fb41e204e59a219f9e2840d8d0daedf25eaf59e07a2072dd44e13f9f84",
      "blockNumber": 94636,
      "transactionIndex": 11,
      "confirmations": null,
      "from": "0xe6A7a1d47ff21B6321162AEA7C6CB457D5476Bca",
      "gasPrice": {
        "_hex": "0xdec0b7c0e"
      },
      "gasLimit": {
        "_hex": "0x55f0"
      },
      "to": "0x972ad000397A3c903299F1353d6d4b85eE4E4e2A",
      "value": {
        "_hex": "0xf2e58331b032c60"
      },
      "nonce": 2509,
      "data": "0x",
      "r": "0xb88b2f0c984d4e5223069093abad761ffc2686263f9bd7feedc524dcc648e5c0",
      "s": "0x431dd99f7100384ac81ba703a0d5be91f8b4e309738dd81e52747f15590e5f57",
      "v": 28,
      "creates": null,
      "raw": "0xf86e8209cd850dec0b7c0e8255f094972ad000397a3c903299f1353d6d4b85ee4e4e2a880f2e58331b032c60801ca0b88b2f0c984d4e5223069093abad761ffc2686263f9bd7feedc524dcc648e5c0a0431dd99f7100384ac81ba703a0d5be91f8b4e309738dd81e52747f15590e5f57",
      "networkId": 0,
      "chainId": 0
    },
    {
      "hash": "0x991183f727168248c2b683dfaf48c533d6250a95b7fe55c4bf40afdfa11a0a64",
      "blockHash": "0xf3e4b8fb41e204e59a219f9e2840d8d0daedf25eaf59e07a2072dd44e13f9f84",
      "blockNumber": 94636,
      "transactionIndex": 12,
      "confirmations": null,
      "from": "0xe6A7a1d47ff21B6321162AEA7C6CB457D5476Bca",
      "gasPrice": {
        "_hex": "0xdec0b7c0e"
      },
      "gasLimit": {
        "_hex": "0x55f0"
      },
      "to": "0x2C82c5457b3e101b0c8bc5c7e6BA098c1FfD53B6",
      "value": {
        "_hex": "0xf47a0f538e42260"
      },
      "nonce": 2510,
      "data": "0x",
      "r": "0x67546de98273d215d7094cfc4545c4ab7d88b7a710435febd7c11588ad69ce60",
      "s": "0x783ae3b765a1868de2015238cbbcd352c49fdec91d5dfaf680f14d243ff8afe7",
      "v": 27,
      "creates": null,
      "raw": "0xf86e8209ce850dec0b7c0e8255f0942c82c5457b3e101b0c8bc5c7e6ba098c1ffd53b6880f47a0f538e42260801ba067546de98273d215d7094cfc4545c4ab7d88b7a710435febd7c11588ad69ce60a0783ae3b765a1868de2015238cbbcd352c49fdec91d5dfaf680f14d243ff8afe7",
      "networkId": 0,
      "chainId": 0
    },
    {
      "hash": "0x1e67a117266ffe62417b12053946a5774b9ad39c016807d6737608a49251c670",
      "blockHash": "0xf3e4b8fb41e204e59a219f9e2840d8d0daedf25eaf59e07a2072dd44e13f9f84",
      "blockNumber": 94636,
      "transactionIndex": 13,
      "confirmations": null,
      "from": "0xe6A7a1d47ff21B6321162AEA7C6CB457D5476Bca",
      "gasPrice": {
        "_hex": "0xdec0b7c0e"
      },
      "gasLimit": {
        "_hex": "0x55f0"
      },
      "to": "0x5c1653cb464DBbE53972CcAD9E6044C9A82b0242",
      "value": {
        "_hex": "0xf4c510042432c10"
      },
      "nonce": 2511,
      "data": "0x",
      "r": "0xe95cd7d98fcf4d63191dcc42568dc736be892df162d327abc60eab6c65e337a9",
      "s": "0x4eec1f719fd1b7023f0ab4c813f06a16f60bb03bbec660284803f68e13e28411",
      "v": 28,
      "creates": null,
      "raw": "0xf86e8209cf850dec0b7c0e8255f0945c1653cb464dbbe53972ccad9e6044c9a82b0242880f4c510042432c10801ca0e95cd7d98fcf4d63191dcc42568dc736be892df162d327abc60eab6c65e337a9a04eec1f719fd1b7023f0ab4c813f06a16f60bb03bbec660284803f68e13e28411",
      "networkId": 0,
      "chainId": 0
    },
    {
      "hash": "0x5dd955d1d9a06f83a8f61de2b8fe9ce403273ab5b9a7eb078fe9a1316bbaf6b3",
      "blockHash": "0xf3e4b8fb41e204e59a219f9e2840d8d0daedf25eaf59e07a2072dd44e13f9f84",
      "blockNumber": 94636,
      "transactionIndex": 14,
      "confirmations": null,
      "from": "0x32Be343B94f860124dC4fEe278FDCBD38C102D88",
      "gasPrice": {
        "_hex": "0xd8d4d6571"
      },
      "gasLimit": {
        "_hex": "0x5208"
      },
      "to": "0xdCd8Aa0E6fD68B057C5AC5e362619808A175CE87",
      "value": {
        "_hex": "0x21e19e0c9bab2400000"
      },
      "nonce": 962,
      "data": "0x",
      "r": "0x35b241edfe014e5888d18d86c2077dfa43fc6be37f960768d4b6112c2b7cf533",
      "s": "0x3803f019cfc8aca56b871f1ba2ca0be61be243d50776bf2a8ec04f99ff5733ce",
      "v": 27,
      "creates": null,
      "raw": "0xf8708203c2850d8d4d657182520894dcd8aa0e6fd68b057c5ac5e362619808a175ce878a021e19e0c9bab2400000801ba035b241edfe014e5888d18d86c2077dfa43fc6be37f960768d4b6112c2b7cf533a03803f019cfc8aca56b871f1ba2ca0be61be243d50776bf2a8ec04f99ff5733ce",
      "networkId": 0,
      "chainId": 0
    },
    {
      "hash": "0x12edffc1f87e4a42612940f4a4b650a1e1060bd6075548fcaa4be571cb2feda7",
      "blockHash": "0xf3e4b8fb41e204e59a219f9e2840d8d0daedf25eaf59e07a2072dd44e13f9f84",
      "blockNumber": 94636,
      "transactionIndex": 15,
      "confirmations": null,
      "from": "0x1772566704EcCE256c3745cCDFf0CB5a1558d0b3",
      "gasPrice": {
        "_hex": "0xd8d4d6571"
      },
      "gasLimit": {
        "_hex": "0x5208"
      },
      "to": "0x32Be343B94f860124dC4fEe278FDCBD38C102D88",
      "value": {
        "_hex": "0x72eca384ce9e70000"
      },
      "nonce": 1,
      "data": "0x",
      "r": "0x6b8d52b82c80d39501e8ee2d7c73798aec1339a949003cfd8b6283118a3bd583",
      "s": "0x5965a54c0627486bba53bc60f6e6a519cf4dfdea34e656a7a7861519275e22b5",
      "v": 27,
      "creates": null,
      "raw": "0xf86d01850d8d4d65718252089432be343b94f860124dc4fee278fdcbd38c102d8889072eca384ce9e70000801ba06b8d52b82c80d39501e8ee2d7c73798aec1339a949003cfd8b6283118a3bd583a05965a54c0627486bba53bc60f6e6a519cf4dfdea34e656a7a7861519275e22b5",
      "networkId": 0,
      "chainId": 0
    },
    {
      "hash": "0xe096b2e1afd974ef055264c5422ed82d2a93818141765b9011ff52eb7e332450",
      "blockHash": "0xf3e4b8fb41e204e59a219f9e2840d8d0daedf25eaf59e07a2072dd44e13f9f84",
      "blockNumber": 94636,
      "transactionIndex": 16,
      "confirmations": null,
      "from": "0x657a04FeFfb4412AA72aEe9c4d23918A998B3DF3",
      "gasPrice": {
        "_hex": "0xd7d40ace3"
      },
      "gasLimit": {
        "_hex": "0x15f90"
      },
      "to": "0xEE5a8A1aa2f2C020250829E9caB1310aC7fdE1eF",
      "value": {
        "_hex": "0x2386f26fc10000"
      },
      "nonce": 0,
      "data": "0x",
      "r": "0x22affa7b6b7d7f327b67e17fc194559ede32ec630dc80faf7e5eddfdcfe03377",
      "s": "0x4d09ed8638ce6fce73167855b0fe611d8ffd2c11327a21a8ee6f074388f6c8a9",
      "v": 27,
      "creates": null,
      "raw": "0xf86c80850d7d40ace383015f9094ee5a8a1aa2f2c020250829e9cab1310ac7fde1ef872386f26fc10000801ba022affa7b6b7d7f327b67e17fc194559ede32ec630dc80faf7e5eddfdcfe03377a04d09ed8638ce6fce73167855b0fe611d8ffd2c11327a21a8ee6f074388f6c8a9",
      "networkId": 0,
      "chainId": 0
    },
    {
      "hash": "0xaaa31652c4b7a0a17dc5ea5b836ded707bca6f119cfa072fe7db517ada5ef9d9",
      "blockHash": "0xf3e4b8fb41e204e59a219f9e2840d8d0daedf25eaf59e07a2072dd44e13f9f84",
      "blockNumber": 94636,
      "transactionIndex": 17,
      "confirmations": null,
      "from": "0xed433C980AaED4E749B3229F3993BfB2840f2433",
      "gasPrice": {
        "_hex": "0xba43b7400"
      },
      "gasLimit": {
        "_hex": "0x5208"
      },
      "to": "0xC47Aaa860008be6f65B58c6C6E02a84e666EfE31",
      "value": {
        "_hex": "0x22af54a278adb6000"
      },
      "nonce": 1,
      "data": "0x",
      "r": "0x1f9458e590834726877dfce916aa8825136be40a55381b01d2088f70f12ff800",
      "s": "0x083810aceed4fa437cce1d6c711aa147a8989545b967b3432b461f557eda94d8",
      "v": 27,
      "creates": null,
      "raw": "0xf86d01850ba43b740082520894c47aaa860008be6f65b58c6c6e02a84e666efe3189022af54a278adb6000801ba01f9458e590834726877dfce916aa8825136be40a55381b01d2088f70f12ff800a0083810aceed4fa437cce1d6c711aa147a8989545b967b3432b461f557eda94d8",
      "networkId": 0,
      "chainId": 0
    },
    {
      "hash": "0xb44be38ba3c71c307010eced7f8df6a18727a2d27d8d4043282353cc56941278",
      "blockHash": "0xf3e4b8fb41e204e59a219f9e2840d8d0daedf25eaf59e07a2072dd44e13f9f84",
      "blockNumber": 94636,
      "transactionIndex": 18,
      "confirmations": null,
      "from": "0x52F791EE5e11186Fc120EaB36Dd80277F6A630BB",
      "gasPrice": {
        "_hex": "0xba43b7400"
      },
      "gasLimit": {
        "_hex": "0x5208"
      },
      "to": "0xC47Aaa860008be6f65B58c6C6E02a84e666EfE31",
      "value": {
        "_hex": "0xddcfbbb7a606000"
      },
      "nonce": 0,
      "data": "0x",
      "r": "0x5367935f0f0e1515898aedb63678a693ed502f0c52bbe124a25e02be15de7d07",
      "s": "0x06e77dd1d2a8fc9a73ebd244a8e420da0e979f5444aefdd95993af76fffe1fbd",
      "v": 27,
      "creates": null,
      "raw": "0xf86c80850ba43b740082520894c47aaa860008be6f65b58c6c6e02a84e666efe31880ddcfbbb7a606000801ba05367935f0f0e1515898aedb63678a693ed502f0c52bbe124a25e02be15de7d07a006e77dd1d2a8fc9a73ebd244a8e420da0e979f5444aefdd95993af76fffe1fbd",
      "networkId": 0,
      "chainId": 0
    }
  ]
}