{
  "hash": "0x37776ac381161fcf70c69871ad71307547de925885522f68d00da148eac36de6",
  "parentHash": "0x2e964db07b1e61f3db9426556d22516d4d97b1d403272c5279613aa512a8f76a",
  "number": 80849,
  "timestamp": 1439492010,
  "nonce": "0x3123fc894e6eaa1d",
  "difficulty": 2448764686539,
  "gasLimit": {
    "_hex": "0x2fefd8"
  },
  "gasUsed": {
    "_hex": "0xa410"
  },
  "miner": "0xf927a40C8B7F6E07c5af7FA2155B4864a4112B13",
  "extraData": "0x",
  "transactions": [
    {
      "hash": "0xa9cb53e8768969ab0fc93b3d2e111eb03179496d96c04ade3f55efd98f6d663d",
      "blockHash": "0x37776ac381161fcf70c69871ad71307547de925885522f68d00da148eac36de6",
      "blockNumber": 80849,
      "transactionIndex": 0,
      "confirmations": null,
      "from": "0x84BDA1c0A280B67d35727441B56e102aDCc594ac",
      "gasPrice": {
        "_hex": "0xd7d40ace3"
      },
      "gasLimit": {
        "_hex": "0x15f90"
      },
      "to": "0x0000000000000000000000000000000000000000",
      "value": {
        "_hex": "0x429d069189e0000"
      },
      "nonce": 0,
      "data": "0x",
      "r": "0xcb526e457899d2e3b0c56c409a2d18be6bd4bf1c8f9dd9593459a1e1ebc7a7e0",
      "s": "0x33eeed5e1d84d52d537b751f371e4fed88d11e1e7b96b3a789cb0100bc06f854",
      "v": 28,
      "creates": null,
      "raw": "0xf86d80850d7d40ace383015f90940000000000000000000000000000000000000000880429d069189e0000801ca0cb526e457899d2e3b0c56c409a2d18be6bd4bf1c8f9dd9593459a1e1ebc7a7e0a033eeed5e1d84d52d537b751f371e4fed88d11e1e7b96b3a789cb0100bc06f854",
      "networkId": 0,
      "chainId": 0
    },
    {
      "hash": "0x79236ed7d50033e8973ce062e8070448483eba5ffe378d75d9ef465e4c4c09b1",
      "blockHash": "0x37776ac381161fcf70c69871ad71307547de925885522f68d00da148eac36de6",
      "blockNumber": 80849,
      "transactionIndex": 1,
      "confirmations": null,
      "from": "0x32Be343B94f860124dC4fEe278FDCBD38C102D88",
      "gasPrice": {
        "_hex": "0xcb2e93954"
      },
      "gasLimit": {
        "_hex": "0x5208"
      },
      "to": "0x807086749319BD30230cA063Bf880e5775728DBb",
      "value": {
        "_hex": "0xaa5c2ecc9baad8000"
      },
      "nonce": 555,
      "data": "0x",
      "r": "0x30e5cc71a31e03f5a000d374670cce8b70838531ae92518ece15f32d2754c4e1",
      "s": "0x456dc6ee5374e643e1a0b0416648f7d4a7e16f62ae5d45aaf2696ce5df6ec073",
      "v": 27,
      "creates": null,
      "raw": "0xf86f82022b850cb2e9395482520894807086749319bd30230ca063bf880e5775728dbb890aa5c2ecc9baad8000801ba030e5cc71a31e03f5a000d374670cce8b70838531ae92518ece15f32d2754c4e1a0456dc6ee5374e643e1a0b0416648f7d4a7e16f62ae5d45aaf2696ce5df6ec073",
      "networkId": 0,
      "chainId": 0
    }
  ]
}