{
  "hash": "0x99f9535586b698724282332ecb8e573b307b727b2762e80f0a3a231e9e05145a",
  "parentHash": "0x83cd548836ddd5e4b666b7890c42fe31346a13a1890c7cf1a9daf558535e4f56",
  "number": 91491,
  "timestamp": 1439656501,
  "nonce": "0x378c6236bdbed186",
  "difficulty": 3486182430172,
  "gasLimit": {
    "_hex": "0x2fefd8"
  },
  "gasUsed": {
    "_hex": "0x5208"
  },
  "miner": "0x7D45E10A0d63eCCA0694a7cbfF030f4dD87DA0dC",
  "extraData": "0x476574682f76312e302e302f77696e646f77732f676f312e342e32",
  "transactions": [
    {
      "hash": "0xdb816602798a5d30edc34c6012f44c86a3f9294b3fed1adc251b5ed1b061f240",
      "blockHash": "0x99f9535586b698724282332ecb8e573b307b727b2762e80f0a3a231e9e05145a",
      "blockNumber": 91491,
      "transactionIndex": 0,
      "confirmations": null,
      "from": "0xb2Cc35A981a37f727C203350f78142ceCb16fb45",
      "gasPrice": {
        "_hex": "0xd651435ca"
      },
      "gasLimit": {
        "_hex": "0x61a8"
      },
      "to": "0x34fDf2118f88a297b3750FAD5eEB307808d08378",
      "value": {
        "_hex": "0x36431c48afc70000"
      },
      "nonce": 2,
      "data": "0x",
      "r": "0x7f4c59af33fd9b770601e9c8229960bb2871e6f9d3afec128adc1a3f9893c056",
      "s": "0x16c949d09e1bef36cd0cdadd58812e4d84a1114f64d39067b0bf6dcf4bab2e43",
      "v": 27,
      "creates": null,
      "raw": "0xf86c02850d651435ca8261a89434fdf2118f88a297b3750fad5eeb307808d083788836431c48afc70000801ba07f4c59af33fd9b770601e9c8229960bb2871e6f9d3afec128adc1a3f9893c056a016c949d09e1bef36cd0cdadd58812e4d84a1114f64d39067b0bf6dcf4bab2e43",
      "networkId": 0,
      "chainId": 0
    }
  ]
}