{
  "hash": "0x4ecec31cdec1999a8bfb5ec6a5234b2205b997522b174ab2585b9c05f7e2fec5",
  "parentHash": "0x3221715e4fc8871ca13a195261809cab76614cef419a8900a17f70485aacdf69",
  "number": 54574,
  "timestamp": 1439056364,
  "nonce": "0xf07723df9cca6a1a",
  "difficulty": 1621235537007,
  "gasLimit": {
    "_hex": "0x2fefd8"
  },
  "gasUsed": {
    "_hex": "0x546c"
  },
  "miner": "0xbb7B8287f3F0a933474a79eAe42CBCa977791171",
  "extraData": "0x476574682f4c5649562f76312e302e312f6c696e75782f676f312e342e32",
  "transactions": [
    {
      "hash": "0x4acd0d421c46dcf4e26bdb41310c40cd642536c1cd7f2c21a3a0016d1a4c326b",
      "blockHash": "0x4ecec31cdec1999a8bfb5ec6a5234b2205b997522b174ab2585b9c05f7e2fec5",
      "blockNumber": 54574,
      "transactionIndex": 0,
      "confirmations": null,
      "from": "0xe49936A92a8CcF710eaAc342Bc454B9b14EbECb1",
      "gasPrice": {
        "_hex": "0x110c8f7d8de"
      },
      "gasLimit": {
        "_hex": "0xc350"
      },
      "to": "0x2910543Af39abA0Cd09dBb2D50200b3E800A63D2",
      "value": {
        "_hex": "0x3627e8f712373c0000"
      },
      "nonce": 1,
      "data": "0x454e45484638354e38",
      "r": "0x4d6934de5556317e684b41d35aedab572b5540f1d4b4c413aa5d2c002518fef3",
      "s": "0x886bdadd9e76a86f7593aa05bdc0b71a6e4b02d110d24fcf5eaf884e18471f52",
      "v": 27,
      "creates": null,
      "raw": "0xf87701860110c8f7d8de82c350942910543af39aba0cd09dbb2d50200b3e800a63d2893627e8f712373c000089454e45484638354e381ba04d6934de5556317e684b41d35aedab572b5540f1d4b4c413aa5d2c002518fef3a0886bdadd9e76a86f7593aa05bdc0b71a6e4b02d110d24fcf5eaf884e18471f52",
      "networkId": 0,
      "chainId": 0
    }
  ]
}