{
  "hash": "0xee6177516e7db4f830977b58cf3b0a05cdbb436e258212766cc80c935453ccd4",
  "parentHash": "0xf402ee7c0cde7b2318f8906bceadfa677de77a15ddf178ff41d77fe1972514f7",
  "number": 110418,
  "timestamp": 1439973451,
  "nonce": "0x57f663a37f212d39",
  "difficulty": 4382012321517,
  "gasLimit": {
    "_hex": "0x2fefd8"
  },
  "gasUsed": {
    "_hex": "0xa410"
  },
  "miner": "0x667c9da752B672Ce76F66cCB3DC2c0ed00693fCB",
  "extraData": "0x476574682f76312e302e312f6c696e75782f676f312e342e32",
  "transactions": [
    {
      "hash": "0xbededd78c5b871fdccd3376e360ec9820ada03043f03ef794828c0db87d79d75",
      "blockHash": "0xee6177516e7db4f830977b58cf3b0a05cdbb436e258212766cc80c935453ccd4",
      "blockNumber": 110418,
      "transactionIndex": 0,
      "confirmations": null,
      "from": "0xa61ff394e3846F8bfbBF8801afb051730B04Ee75",
      "gasPrice": {
        "_hex": "0xdb872fd34"
      },
      "gasLimit": {
        "_hex": "0x5208"
      },
      "to": "0x32Be343B94f860124dC4fEe278FDCBD38C102D88",
      "value": {
        "_hex": "0x574f5d46128a0000"
      },
      "nonce": 18,
      "data": "0x",
      "r": "0x5a5912acb7d528d061c1612b13ec6f4cf2622bb25de7b02556b4fdd82ca38520",
      "s": "0x493de56b3b4955229904ebb1ab32b457070ea1a7311df06ff0efdea5cd45b855",
      "v": 28,
      "creates": null,
      "raw": "0xf86c12850db872fd348252089432be343b94f860124dc4fee278fdcbd38c102d8888574f5d46128a0000801ca05a5912acb7d528d061c1612b13ec6f4cf2622bb25de7b02556b4fdd82ca38520a0493de56b3b4955229904ebb1ab32b457070ea1a7311df06ff0efdea5cd45b855",
      "networkId": 0,
      "chainId": 0
    },
    {
      "hash": "0xb846481e867b183b0d85e67ece27c133a066e98fab350776af2027b74642c5e4",
      "blockHash": "0xee6177516e7db4f830977b58cf3b0a05cdbb436e258212766cc80c935453ccd4",
      "blockNumber": 110418,
      "transactionIndex": 1,
      "confirmations": null,
      "from": "0xF928B4834e4E886e04630Af5b4Ea8eBf46Fb205b",
      "gasPrice": {
        "_hex": "0xd96bacb42"
      },
      "gasLimit": {
        "_hex": "0x5208"
      },
      "to": "0x32Be343B94f860124dC4fEe278FDCBD38C102D88",
      "value": {
        "_hex": "0x24e7ef61e6e1f0000"
      },
      "nonce": 7,
      "data": "0x",
      "r": "0xfcb47a767b65f10bc281fe01efead7d32e3966b0953d8bff1ff252713d53128d",
      "s": "0x4890d7f2a7abcfda3ec1dbe5a52631e4ac4ffa7809a010591681c72c2fb0256e",
      "v": 27,
      "creates": null,
      "raw": "0xf86d07850d96bacb428252089432be343b94f860124dc4fee278fdcbd38c102d8889024e7ef61e6e1f0000801ba0fcb47a767b65f10bc281fe01efead7d32e3966b0953d8bff1ff252713d53128da04890d7f2a7abcfda3ec1dbe5a52631e4ac4ffa7809a010591681c72c2fb0256e",
      "networkId": 0,
      "chainId": 0
    }
  ]
}