{
  "hash": "0x2708270deb67fc1b2a8bde8bf42bea8811b211c141caac43dd359a427dd1d2ec",
  "parentHash": "0x0ba56d3c3437dedf2fbb331bc4de9ef1bcf80b61b65db0eceeeab2f7475dbf02",
  "number": 68453,
  "timestamp": 1439288153,
  "nonce": "0xb5ea4267aefceaf9",
  "difficulty": 2007451642352,
  "gasLimit": {
    "_hex": "0x2fefd8"
  },
  "gasUsed": {
    "_hex": "0x1ec30"
  },
  "miner": "0xbb7B8287f3F0a933474a79eAe42CBCa977791171",
  "extraData": "0x476574682f4c5649562f76312e302e312f6c696e75782f676f312e342e32",
  "transactions": [
    {
      "hash": "0x88f5b01e9243f2bc249fa89c9823a954993a0598fcb38df1617b0fa2b673bf4e",
      "blockHash": "0x2708270deb67fc1b2a8bde8bf42bea8811b211c141caac43dd359a427dd1d2ec",
      "blockNumber": 68453,
      "transactionIndex": 0,
      "confirmations": null,
      "from": "0xD163792241B00D43D2d6a8dEC507f9B8e1c1A101",
      "gasPrice": {
        "_hex": "0xba43b7400"
      },
      "gasLimit": {
        "_hex": "0x5208"
      },
      "to": "0x8e112dA551CD42CA3Aac8925BB7b8c39886C6f91",
      "value": {
        "_hex": "0xd8e5610f40e000"
      },
      "nonce": 1,
      "data": "0x",
      "r": "0x2935a32936ef41c6a395857537b2871dfd7c01d0deec84cb59070f5573ce7182",
      "s": "0x5856ae33ba2fe90ea2504e9cc18422c84ee6407c9ef1b6be4eae8d79c8f048a4",
      "v": 27,
      "creates": null,
      "raw": "0xf86b01850ba43b7400825208948e112da551cd42ca3aac8925bb7b8c39886c6f9187d8e5610f40e000801ba02935a32936ef41c6a395857537b2871dfd7c01d0deec84cb59070f5573ce7182a05856ae33ba2fe90ea2504e9cc18422c84ee6407c9ef1b6be4eae8d79c8f048a4",
      "networkId": 0,
      "chainId": 0
    },
    {
      "hash": "0xa5cfa695890a128711dff77e5c850a4ab2094ef2295f4a88c22ffab202c07f6b",
      "blockHash": "0x2708270deb67fc1b2a8bde8bf42bea8811b211c141caac43dd359a427dd1d2ec",
      "blockNumber": 68453,
      "transactionIndex": 1,
      "confirmations": null,
      "from": "0xcF4FE952994877946cF32f5bf48ebB36b97ca1E3",
      "gasPrice": {
        "_hex": "0xba43b7400"
      },
      "gasLimit": {
        "_hex": "0x5208"
      },
      "to": "0xe16DDddc4ab60Ebf30F1545B215f45C3deEA8d45",
      "value": {
        "_hex": "0xd8e5610f40e000"
      },
      "nonce": 1,
      "data": "0x",
      "r": "0x4f45ada1cccaca3225de7670518753a00b7a4cc4e9a8edd9863a62d6ca231721",
      "s": "0x19110eea960fdea98111e0de9000e1982dee95052c96e5bced3fe56665dc3440",
      "v": 28,
      "creates": null,
      "raw": "0xf86b01850ba43b740082520894e16ddddc4ab60ebf30f1545b215f45c3deea8d4587d8e5610f40e000801ca04f45ada1cccaca3225de7670518753a00b7a4cc4e9a8edd9863a62d6ca231721a019110eea960fdea98111e0de9000e1982dee95052c96e5bced3fe56665dc3440",
      "networkId": 0,
      "chainId": 0
    },
    {
      "hash": "0x0c0df3edc501c433c4d005d9833c27db96f6f66839b05c2cde237e96b7df08cb",
      "blockHash": "0x2708270deb67fc1b2a8bde8bf42bea8811b211c141caac43dd359a427dd1d2ec",
      "blockNumber": 68453,
      "transactionIndex": 2,
      "confirmations": null,
      "from": "0x0F501BAfA964b0E23A47cC91f1410e737c77d528",
      "gasPrice": {
        "_hex": "0xba43b7400"
      },
      "gasLimit": {
        "_hex": "0x5208"
      },
      "to": "0x1D5282F3268F55e424Ec8088E19C20fEd8a6BA8f",
      "value": {
        "_hex": "0xd8e5610f40e000"
      },
      "nonce": 1,
      "data": "0x",
      "r": "0x736b0f1ffd27fb8d580bb2c70596ab586feb155bfb8a1fed86c5320768742b74",
      "s": "0x716294cda96bcb47aff232070173b2ae3541d8801bf3a6cdbe128bda322ea5ca",
      "v": 28,
      "creates": null,
      "raw": "0xf86b01850ba43b7400825208941d5282f3268f55e424ec8088e19c20fed8a6ba8f87d8e5610f40e000801ca0736b0f1ffd27fb8d580bb2c70596ab586feb155bfb8a1fed86c5320768742b74a0716294cda96bcb47aff232070173b2ae3541d8801bf3a6cdbe128bda322ea5ca",
      "networkId": 0,
      "chainId": 0
    },
    {
      "hash": "0x87ef669286d7b855467df453d814d7e002d18fdafe294a2f5b7611af4dfeb0f5",
      "blockHash": "0x2708270deb67fc1b2a8bde8bf42bea8811b211c141caac43dd359a427dd1d2ec",
      "blockNumber": 68453,
      "transactionIndex": 3,
      "confirmations": null,
      "from": "0xF354a694F08105B89FDE21FC1DBF944C1bfE4d14",
      "gasPrice": {
        "_hex": "0xba43b7400"
      },
      "gasLimit": {
        "_hex": "0x5208"
      },
      "to": "0x1BB642153E58868541e62d4027BbefcE5F44e409",
      "value": {
        "_hex": "0xd8e5610f40e000"
      },
      "nonce": 1,
      "data": "0x",
      "r": "0x9a6a544587bc89ae1dba15294cb6dfe3352797200418b67952da22deeb7041e1",
      "s": "0x0dc05e36c9ccc2d9b240d96c6d68eded4bfd80eda7f761d51b044b2e8346cceb",
      "v": 28,
      "creates": null,
      "raw": "0xf86b01850ba43b7400825208941bb642153e58868541e62d4027bbefce5f44e40987d8e5610f40e000801ca09a6a544587bc89ae1dba15294cb6dfe3352797200418b67952da22deeb7041e1a00dc05e36c9ccc2d9b240d96c6d68eded4bfd80eda7f761d51b044b2e8346cceb",
      "networkId": 0,
      "chainId": 0
    },
    {
      "hash": "0xd55af2ff32597a931bc6b5dc852e32cc0250be028c83081381d4ba352efaa3d3",
      "blockHash": "0x2708270deb67fc1b2a8bde8bf42bea8811b211c141caac43dd359a427dd1d2ec",
      "blockNumber": 68453,
      "transactionIndex": 4,
      "confirmations": null,
      "from": "0x678CDd6c0710898cAc5c657C5FaF7D1a7003Ce5c",
      "gasPrice": {
        "_hex": "0xba43b7400"
      },
      "gasLimit": {
        "_hex": "0x5208"
      },
      "to": "0x2209C5577bfeACbcb06e110a3A3467b8D41cCb06",
      "value": {
        "_hex": "0xd8e5610f40e000"
      },
      "nonce": 1,
      "data": "0x",
      "r": "0x6c7ca708eac6189d3b35f9514bd5d4840e7b479079fadcdf58ccb18dd32cb14b",
      "s": "0x7607b208a2d8d276bd72734aaff426a94c73f056243c36ff2e6bb214819dba49",
      "v": 27,
      "creates": null,
      "raw": "0xf86b01850ba43b7400825208942209c5577bfeacbcb06e110a3a3467b8d41ccb0687d8e5610f40e000801ba06c7ca708eac6189d3b35f9514bd5d4840e7b479079fadcdf58ccb18dd32cb14ba07607b208a2d8d276bd72734aaff426a94c73f056243c36ff2e6bb214819dba49",
      "networkId": 0,
      "chainId": 0
    },
    {
      "hash": "0xc9033e5d294f433c605b4065d0017cb8e9e33b2247e19b89ea8133a3b350f67f",
      "blockHash": "0x2708270deb67fc1b2a8bde8bf42bea8811b211c141caac43dd359a427dd1d2ec",
      "blockNumber": 68453,
      "transactionIndex": 5,
      "confirmations": null,
      "from": "0x6747f922385c9a6F9cfDf095F34345257DD597bE",
      "gasPrice": {
        "_hex": "0xba43b7400"
      },
      "gasLimit": {
        "_hex": "0x5208"
      },
      "to": "0x2e8De49475f4C914d4E0F4226532d2d714431168",
      "value": {
        "_hex": "0x1fcbfa42bd6000"
      },
      "nonce": 96,
      "data": "0x",
      "r": "0x5e8410b8b507eaaf73e46718c6548b9aec50c95b7ff388e1f2298b3c9beaaacf",
      "s": "0x06cbaaf65152dc750fb35ac19f57388cfbd604090e6be41a45734c876206082c",
      "v": 27,
      "creates": null,
      "raw": "0xf86b60850ba43b7400825208942e8de49475f4c914d4e0f4226532d2d714431168871fcbfa42bd6000801ba05e8410b8b507eaaf73e46718c6548b9aec50c95b7ff388e1f2298b3c9beaaacfa006cbaaf65152dc750fb35ac19f57388cfbd604090e6be41a45734c876206082c",
      "networkId": 0,
      "chainId": 0
    }
  ]
}