{
  "hash": "0xbc816f5153cd498b88761135fc4f107e8ac9b512ffb9f4ff6d388866b0971f53",
  "parentHash": "0x9e3c26b1aafb4b2c29e802dd32af0c0188d1f3447ce122431db2dca5e6cfb0b5",
  "number": 115349,
  "timestamp": 1440055757,
  "nonce": "0xf815065bc8b7fd02",
  "difficulty": 4542789853935,
  "gasLimit": {
    "_hex": "0x2fefd8"
  },
  "gasUsed": {
    "_hex": "0xf618"
  },
  "miner": "0xe6A7a1d47ff21B6321162AEA7C6CB457D5476Bca",
  "extraData": "0x476574682f76312e302e312d38326566323666362f6c696e75782f676f312e34",
  "transactions": [
    {
      "hash": "0x93470b9481c6953e13b4ccb2e20cb09effc57a304698b260d421c3b13c63c378",
      "blockHash": "0xbc816f5153cd498b88761135fc4f107e8ac9b512ffb9f4ff6d388866b0971f53",
      "blockNumber": 115349,
      "transactionIndex": 0,
      "confirmations": null,
      "from": "0x46b29910396E1cF71678f81101334A180876E9b1",
      "gasPrice": {
        "_hex": "0xd21927903"
      },
      "gasLimit": {
        "_hex": "0x5208"
      },
      "to": "0x32Be343B94f860124dC4fEe278FDCBD38C102D88",
      "value": {
        "_hex": "0x40250cb66001e400"
      },
      "nonce": 9,
      "data": "0x",
      "r": "0xd3db24b34e714a0e80153dd856baa1498b0fdbc0c98457708a4a46354a182eb8",
      "s": "0x0d59255200092700c11272a56350bbb8a6850007e83e5e748534c786855f9403",
      "v": 27,
      "creates": null,
      "raw": "0xf86c09850d219279038252089432be343b94f860124dc4fee278fdcbd38c102d888840250cb66001e400801ba0d3db24b34e714a0e80153dd856baa1498b0fdbc0c98457708a4a46354a182eb8a00d59255200092700c11272a56350bbb8a6850007e83e5e748534c786855f9403",
      "networkId": 0,
      "chainId": 0
    },
    {
      "hash": "0xc580f1e828665da6ba00f66176c6e3dc9db5efb4be9f0b1ed96d1708b4b08b4b",
      "blockHash": "0xbc816f5153cd498b88761135fc4f107e8ac9b512ffb9f4ff6d388866b0971f53",
      "blockNumber": 115349,
      "transactionIndex": 1,
      "confirmations": null,
      "from": "0xF928B4834e4E886e04630Af5b4Ea8eBf46Fb205b",
      "gasPrice": {
        "_hex": "0xd21927903"
      },
      "gasLimit": {
        "_hex": "0x5208"
      },
      "to": "0x32Be343B94f860124dC4fEe278FDCBD38C102D88",
      "value": {
        "_hex": "0x123ecaba63bfb7000"
      },
      "nonce": 9,
      "data": "0x",
      "r": "0x766c8e7af46dc3c9cb03e7e46db1b53709c4ce43e2d21818bf6a075792f3d69d",
      "s": "0x4cdde629680a5c474178aaac0277bf339da51fb9903a48a021012672fd673b53",
      "v": 28,
      "creates": null,
      "raw": "0xf86d09850d219279038252089432be343b94f860124dc4fee278fdcbd38c102d88890123ecaba63bfb7000801ca0766c8e7af46dc3c9cb03e7e46db1b53709c4ce43e2d21818bf6a075792f3d69da04cdde629680a5c474178aaac0277bf339da51fb9903a48a021012672fd673b53",
      "networkId": 0,
      "chainId": 0
    },
    {
      "hash": "0xf644303c9f4e79d87f5adc5e2068342eaf2b0f6817e7bee800bb3dd372bbb802",
      "blockHash": "0xbc816f5153cd498b88761135fc4f107e8ac9b512ffb9f4ff6d388866b0971f53",
      "blockNumber": 115349,
      "transactionIndex": 2,
      "confirmations": null,
      "from": "0x93b3437645A67059E280a3317a93c57e2f4788EA",
      "gasPrice": {
        "_hex": "0xd21927903"
      },
      "gasLimit": {
        "_hex": "0x5208"
      },
      "to": "0x32Be343B94f860124dC4fEe278FDCBD38C102D88",
      "value": {
        "_hex": "0xca32192bb486d800"
      },
      "nonce": 9,
      "data": "0x",
      "r": "0x780c837627f90281a854033f65d63b103fcb9967755c7c9fe3f5efb788786a6d",
      "s": "0x60dd2c20c64c00070c8931d93e9995c40da8756d05ed86048cc4f235e9d15a72",
      "v": 27,
      "creates": null,
      "raw": "0xf86c09850d219279038252089432be343b94f860124dc4fee278fdcbd38c102d8888ca32192bb486d800801ba0780c837627f90281a854033f65d63b103fcb9967755c7c9fe3f5efb788786a6da060dd2c20c64c00070c8931d93e9995c40da8756d05ed86048cc4f235e9d15a72",
      "networkId": 0,
      "chainId": 0
    }
  ]
}