{
  "hash": "0x334e6db8923ad3de03e2140d5e7a38e761fe5e3f8e72520dcc43cbbe06b467f4",
  "parentHash": "0xfb3261a56ac130ef9e07859cfd9b3436f5324468df804b4ed86ebc39f29a63ba",
  "number": 57481,
  "timestamp": 1439104198,
  "nonce": "0xbb12892125c0bc20",
  "difficulty": 1736184094735,
  "gasLimit": {
    "_hex": "0x2fefd8"
  },
  "gasUsed": {
    "_hex": "0x5208"
  },
  "miner": "0xBD744E3F13D79B33F6c8E1d5E32F8E9BA2866c46",
  "extraData": "0x476574682f76312e302e312d39613032663533372f6c696e75782f676f312e34",
  "transactions": [
    {
      "hash": "0x9ad323443df8e75e8db7893972cb0e6dfc50212b27d531c529808212bcb09b7a",
      "blockHash": "0x334e6db8923ad3de03e2140d5e7a38e761fe5e3f8e72520dcc43cbbe06b467f4",
      "blockNumber": 57481,
      "transactionIndex": 0,
      "confirmations": null,
      "from": "0x293C2306Df3604Ae4FdA0D207aBa736f67dE0792",
      "gasPrice": {
        "_hex": "0xd8364fc25"
      },
      "gasLimit": {
        "_hex": "0x15f90"
      },
      "to": "0x4DF05bc6D92d5cc80c82abCAc7261607d6F28E97",
      "value": {
        "_hex": "0xde0b6b3a7640000"
      },
      "nonce": 0,
      "data": "0x",
      "r": "0x9a36714d4e67c7765d1dae4b0fe537b71ecf742c363a401949994a0b2211d55b",
      "s": "0x71b0c0beac9ab5de66ca576b41a797ba4c509f3bb2bc194958ac00c6d502e557",
      "v": 28,
      "creates": null,
      "raw": "0xf86d80850d8364fc2583015f90944df05bc6d92d5cc80c82abcac7261607d6f28e97880de0b6b3a7640000801ca09a36714d4e67c7765d1dae4b0fe537b71ecf742c363a401949994a0b2211d55ba071b0c0beac9ab5de66ca576b41a797ba4c509f3bb2bc194958ac00c6d502e557",
      "networkId": 0,
      "chainId": 0
    }
  ]
}