{
  "hash": "0x985bebf8e3f9f6ef7a51db067d85ce4179861d8bddcf209bf7fa0fa77c41276a",
  "parentHash": "0x7d206df25261f92aec1b0b082acbbcd693feb9723d7a4b59af78f050b53260f1",
  "number": 120918,
  "timestamp": 1440168274,
  "nonce": "0xb00e3d915eb08046",
  "difficulty": 4428119962405,
  "gasLimit": {
    "_hex": "0x2fefd8"
  },
  "gasUsed": {
    "_hex": "0x5208"
  },
  "miner": "0x52bc44d5378309EE2abF1539BF71dE1b7d7bE3b5",
  "extraData": "0xd783010002844765746887676f312e342e32856c696e7578",
  "transactions": [
    {
      "hash": "0x55cdcbcd6dc89d113a04aad8e82bb77e4bdb3dc9e7061388f1880b2ced15b58e",
      "blockHash": "0x985bebf8e3f9f6ef7a51db067d85ce4179861d8bddcf209bf7fa0fa77c41276a",
      "blockNumber": 120918,
      "transactionIndex": 0,
      "confirmations": null,
      "from": "0x276e2f360f94f35DDc4a45F16Ca8771A746a4582",
      "gasPrice": {
        "_hex": "0xdb2816147"
      },
      "gasLimit": {
        "_hex": "0x15f90"
      },
      "to": "0x44Cb7068a28bc4B195e658ae160CC64289BC4012",
      "value": {
        "_hex": "0xde0b6b3a7640000"
      },
      "nonce": 3,
      "data": "0x",
      "r": "0x17037e8916a46d4762ce46ad2176c6d48f624dd417951aeee381217ebc828665",
      "s": "0x5d1f58f29c445a897caf25a962ebe0f09296165f571c549abdcc1bca48e78424",
      "v": 28,
      "creates": null,
      "raw": "0xf86d03850db281614783015f909444cb7068a28bc4b195e658ae160cc64289bc4012880de0b6b3a7640000801ca017037e8916a46d4762ce46ad2176c6d48f624dd417951aeee381217ebc828665a05d1f58f29c445a897caf25a962ebe0f09296165f571c549abdcc1bca48e78424",
      "networkId": 0,
      "chainId": 0
    }
  ]
}