{
  "hash": "0xad09646a377c18e0c491fcf3fdf73de40461c6edc35b47c91bbb02f76ed7aba6",
  "parentHash": "0x0153c99d0d67cde85f8d9a76a5780b7869142968ee09d64f03db704206f60c34",
  "number": 113413,
  "timestamp": 1440023142,
  "nonce": "0x1d05ea695e619ad2",
  "difficulty": 4469026295847,
  "gasLimit": {
    "_hex": "0x2fefd8"
  },
  "gasUsed": {
    "_hex": "0xa410"
  },
  "miner": "0xa50ec0D39fa913E62f1Bae7074E6F36caA71855b",
  "extraData": "0xd783010001844765746887676f312e342e32856c696e7578",
  "transactions": [
    {
      "hash": "0x210d95a70ce7628ce1fbcf0b9d08861149f2b38088a039396cfeeeb31d501d3a",
      "blockHash": "0xad09646a377c18e0c491fcf3fdf73de40461c6edc35b47c91bbb02f76ed7aba6",
      "blockNumber": 113413,
      "transactionIndex": 0,
      "confirmations": null,
      "from": "0xF4f2C15602B084Cae84Ea603f75527DE19705aA1",
      "gasPrice": {
        "_hex": "0xe2301e27f"
      },
      "gasLimit": {
        "_hex": "0x5208"
      },
      "to": "0x32Be343B94f860124dC4fEe278FDCBD38C102D88",
      "value": {
        "_hex": "0x3f9de68f8fc81800"
      },
      "nonce": 7,
      "data": "0x",
      "r": "0xd33e9410e4a5a67aa346d1185b975e6c24f5b13df1d206b37cd19d5310ff6d3c",
      "s": "0x5884ea14e764a9342567dca1bb034cebb1bc77cb9f4eb220984264af75da5280",
      "v": 28,
      "creates": null,
      "raw": "0xf86c07850e2301e27f8252089432be343b94f860124dc4fee278fdcbd38c102d88883f9de68f8fc81800801ca0d33e9410e4a5a67aa346d1185b975e6c24f5b13df1d206b37cd19d5310ff6d3ca05884ea14e764a9342567dca1bb034cebb1bc77cb9f4eb220984264af75da5280",
      "networkId": 0,
      "chainId": 0
    },
    {
      "hash": "0xd23b4cfc53c6afd069601041cfb52e557302d20e01cde036785642da8b4e3c35",
      "blockHash": "0xad09646a377c18e0c491fcf3fdf73de40461c6edc35b47c91bbb02f76ed7aba6",
      "blockNumber": 113413,
      "transactionIndex": 1,
      "confirmations": null,
      "from": "0x49f0609Ed78ee50FAa268a9Bdeb2949fa50d83eD",
      "gasPrice": {
        "_hex": "0xe2301e27f"
      },
      "gasLimit": {
        "_hex": "0x5208"
      },
      "to": "0x32Be343B94f860124dC4fEe278FDCBD38C102D88",
      "value": {
        "_hex": "0x2684ed9f93a95800"
      },
      "nonce": 3,
      "data": "0x",
      "r": "0x1a320bb62d12a6bf8b21c0afcd05b026c6aa5a07564d67077576758d561398c4",
      "s": "0x54c15ed2b17d226fd7ceee8ab7a7c7d50f4d7ccb92d8e88a43aab1e285c14ef9",
      "v": 27,
      "creates": null,
      "raw": "0xf86c03850e2301e27f8252089432be343b94f860124dc4fee278fdcbd38c102d88882684ed9f93a95800801ba01a320bb62d12a6bf8b21c0afcd05b026c6aa5a07564d67077576758d561398c4a054c15ed2b17d226fd7ceee8ab7a7c7d50f4d7ccb92d8e88a43aab1e285c14ef9",
      "networkId": 0,
      "chainId": 0
    }
  ]
}