{
  "hash": "0xfd055ba9682a7b9f8f29d8743e816520f02dd363f66fdaf9ce060dc5648ff844",
  "parentHash": "0xa6efaaada85dd30ac27cbcd2e41fa8b660d33f165ed1671d2045530af6b33559",
  "number": 116091,
  "timestamp": 1440068163,
  "nonce": "0x4c5c3bad225c6209",
  "difficulty": 4604917486811,
  "gasLimit": {
    "_hex": "0x2fefd8"
  },
  "gasUsed": {
    "_hex": "0x5208"
  },
  "miner": "0xe6A7a1d47ff21B6321162AEA7C6CB457D5476Bca",
  "extraData": "0x476574682f76312e302e312d38326566323666362f6c696e75782f676f312e34",
  "transactions": [
    {
      "hash": "0xc44d3f8ff6c9358de53c8f0d60e0a878ccc3e64c51696fde95ce4e17830b18ce",
      "blockHash": "0xfd055ba9682a7b9f8f29d8743e816520f02dd363f66fdaf9ce060dc5648ff844",
      "blockNumber": 116091,
      "transactionIndex": 0,
      "confirmations": null,
      "from": "0x23f2D0fd3B4C98Fb1698564deB4898275E2e831f",
      "gasPrice": {
        "_hex": "0xdbec3f5c4"
      },
      "gasLimit": {
        "_hex": "0x5208"
      },
      "to": "0x32Be343B94f860124dC4fEe278FDCBD38C102D88",
      "value": {
        "_hex": "0x8ac2b0bb04b0f000"
      },
      "nonce": 22,
      "data": "0x",
      "r": "0x4b789d5c52b716de42f970dc0a21011b354a765ff8c1ed5dedb9ecb68745ffb0",
      "s": "0x482fa0a1dda18ab709db153b565abdb226e545fb69094fc61c6194562f5dd25d",
      "v": 27,
      "creates": null,
      "raw": "0xf86c16850dbec3f5c48252089432be343b94f860124dc4fee278fdcbd38c102d88888ac2b0bb04b0f000801ba04b789d5c52b716de42f970dc0a21011b354a765ff8c1ed5dedb9ecb68745ffb0a0482fa0a1dda18ab709db153b565abdb226e545fb69094fc61c6194562f5dd25d",
      "networkId": 0,
      "chainId": 0
    }
  ]
}