{
  "hash": "0xad3f4c5409a11d0bacefafbd2fb6f1b91e316f4acb40b161bfd9a8ec30dbf131",
  "parentHash": "0x8c587d35f313e48207f38250b3593ef012352e149e08f9e04f80cbc388a873bd",
  "number": 75814,
  "timestamp": 1439409711,
  "nonce": "0xea335ec250dc803a",
  "difficulty": 2225524221054,
  "gasLimit": {
    "_hex": "0x2fefd8"
  },
  "gasUsed": {
    "_hex": "0x5208"
  },
  "miner": "0x4F85e43F44D2B0e6f57C9355806cE3e1B3F40Ab8",
  "extraData": "0x476574682f76312e302e312f6c696e75782f676f312e342e32",
  "transactions": [
    {
      "hash": "0xbec45a63eeb8eec9ed7f126a157ea2a2f081d805dd97eb575e69132d2f9cbc9c",
      "blockHash": "0xad3f4c5409a11d0bacefafbd2fb6f1b91e316f4acb40b161bfd9a8ec30dbf131",
      "blockNumber": 75814,
      "transactionIndex": 0,
      "confirmations": null,
      "from": "0x458F183347F45a4001807728A89F31E9Da9D4A58",
      "gasPrice": {
        "_hex": "0xde11f4381"
      },
      "gasLimit": {
        "_hex": "0x15f90"
      },
      "to": "0x7fa165177F28D171bA7C17f765c1904344Ec64CB",
      "value": {
        "_hex": "0x2fb474098f67c0000"
      },
      "nonce": 11,
      "data": "0x",
      "r": "0xb18d4e7f17f8758f45fd3e9e04e4fe41521dbc8f5b01aeea6daa1bcc366199ea",
      "s": "0x266d7669cd1f70778d9ff59a6969ea0cb42e4a1efe042216e4d34f7547a4e244",
      "v": 27,
      "creates": null,
      "raw": "0xf86e0b850de11f438183015f90947fa165177f28d171ba7c17f765c1904344ec64cb8902fb474098f67c0000801ba0b18d4e7f17f8758f45fd3e9e04e4fe41521dbc8f5b01aeea6daa1bcc366199eaa0266d7669cd1f70778d9ff59a6969ea0cb42e4a1efe042216e4d34f7547a4e244",
      "networkId": 0,
      "chainId": 0
    }
  ]
}