{
  "hash": "0xbd7014c2482e9cf4668c2411c53f0b14cc6fd99dd7c90447a831fafc669cbcc2",
  "parentHash": "0xa4aafc1aed1307fe0317e4436648a1f6286cb53ef5d68ab156a5fda024d3655a",
  "number": 117727,
  "timestamp": 1440114294,
  "nonce": "0xeed53e7ad48b5b46",
  "difficulty": 4358998026947,
  "gasLimit": {
    "_hex": "0x2fefd8"
  },
  "gasUsed": {
    "_hex": "0x5208"
  },
  "miner": "0xe6A7a1d47ff21B6321162AEA7C6CB457D5476Bca",
  "extraData": "0xd783010002844765746887676f312e342e32856c696e7578",
  "transactions": [
    {
      "hash": "0x7f0258c3f387461bb63cd93d2ed57d380c3ba55bfac4833be1fd7f370b5287a5",
      "blockHash": "0xbd7014c2482e9cf4668c2411c53f0b14cc6fd99dd7c90447a831fafc669cbcc2",
      "blockNumber": 117727,
      "transactionIndex": 0,
      "confirmations": null,
      "from": "0x007f7f58D3eb5b7510A301eCC749FC1fCDDBE14D",
      "gasPrice": {
        "_hex": "0xba43b7400"
      },
      "gasLimit": {
        "_hex": "0x15f90"
      },
      "to": "0xb1abce2918E21ddb93AA452731a12672A3d9F75a",
      "value": {
        "_hex": "0x4563918244f40000"
      },
      "nonce": 328,
      "data": "0x",
      "r": "0xb0aabc5f45cf8f5e008b60babb03e2c93c3c2efe8ead652bab0f7da32acb79c3",
      "s": "0x472f07b4c48dfc0374705e21425e9ee653ca4be97b9fbbedd9c0090f03cb7819",
      "v": 28,
      "creates": null,
      "raw": "0xf86f820148850ba43b740083015f9094b1abce2918e21ddb93aa452731a12672a3d9f75a884563918244f40000801ca0b0aabc5f45cf8f5e008b60babb03e2c93c3c2efe8ead652bab0f7da32acb79c3a0472f07b4c48dfc0374705e21425e9ee653ca4be97b9fbbedd9c0090f03cb7819",
      "networkId": 0,
      "chainId": 0
    }
  ]
}