{
  "hash": "0xa7096d096657eec8379b7fff587a016464143fbd5f2e002fefd53e4ecbe7311a",
  "parentHash": "0x8bf821dac964555574f2be444df618941e280324c4a7cda7dbc89f99d0eb5f54",
  "number": 101293,
  "timestamp": 1439820650,
  "nonce": "0x1071b5579397d2c2",
  "difficulty": 3813163303541,
  "gasLimit": {
    "_hex": "0x2fefd8"
  },
  "gasUsed": {
    "_hex": "0x14820"
  },
  "miner": "0xe6A7a1d47ff21B6321162AEA7C6CB457D5476Bca",
  "extraData": "0x476574682f76312e302e312d38326566323666362f6c696e75782f676f312e34",
  "transactions": [
    {
      "hash": "0x99fbba9b902ce424fa112c675769284543ba979a053d745ccff1f8d2b7b4342a",
      "blockHash": "0xa7096d096657eec8379b7fff587a016464143fbd5f2e002fefd53e4ecbe7311a",
      "blockNumber": 101293,
      "transactionIndex": 0,
      "confirmations": null,
      "from": "0x95B8Be50517B180F2F101f1cFe0E4C66Ad6fa7dd",
      "gasPrice": {
        "_hex": "0xe0f26cb6d"
      },
      "gasLimit": {
        "_hex": "0x15f90"
      },
      "to": "0xbCab99c9250A69cCD7395f2543ed52FF1e220398",
      "value": {
        "_hex": "0x0"
      },
      "nonce": 9,
      "data": "0x",
      "r": "0xefe0cd91d5e9095a7050c748f214bfed8fab016ded00711a4a5859fe3b3c0b00",
      "s": "0x11d22ae4fc77c4c23420602817d3357dfc0ba70bc42a350d6d66bb3837ea2a3c",
      "v": 27,
      "creates": null,
      "raw": "0xf86509850e0f26cb6d83015f9094bcab99c9250a69ccd7395f2543ed52ff1e22039880801ba0efe0cd91d5e9095a7050c748f214bfed8fab016ded00711a4a5859fe3b3c0b00a011d22ae4fc77c4c23420602817d3357dfc0ba70bc42a350d6d66bb3837ea2a3c",
      "networkId": 0,
      "chainId": 0
    },
    {
      "hash": "0xf71dd020550ac9c01a1545df2dcdf02c877d30c3293a2cfbf25422f351a06f27",
      "blockHash": "0xa7096d096657eec8379b7fff587a016464143fbd5f2e002fefd53e4ecbe7311a",
      "blockNumber": 101293,
      "transactionIndex": 1,
      "confirmations": null,
      "from": "0xd5d9a0033e6B0A3ba7634d0e1a9055ad5f452C3D",
      "gasPrice": {
        "_hex": "0xd80780426"
      },
      "gasLimit": {
        "_hex": "0x5208"
      },
      "to": "0x32Be343B94f860124dC4fEe278FDCBD38C102D88",
      "value": {
        "_hex": "0xddc6320d3079400"
      },
      "nonce": 8,
      "data": "0x",
      "r": "0x678519fc5f7a4afae145de4e81dae82c168d41472bc2a8b8c33669fa5569b43e",
      "s": "0x21406c748940112b58140adcc3a67892b7fd0761e76ca84e57f69724450ba0e5",
      "v": 28,
      "creates": null,
      "raw": "0xf86c08850d807804268252089432be343b94f860124dc4fee278fdcbd38c102d88880ddc6320d3079400801ca0678519fc5f7a4afae145de4e81dae82c168d41472bc2a8b8c33669fa5569b43ea021406c748940112b58140adcc3a67892b7fd0761e76ca84e57f69724450ba0e5",
      "networkId": 0,
      "chainId": 0
    },
    {
      "hash": "0x3a6a0006f5536b6e798f53dac2d48b5990060ff286c71f0a7afd9d6fc137a221",
      "blockHash": "0xa7096d096657eec8379b7fff587a016464143fbd5f2e002fefd53e4ecbe7311a",
      "blockNumber": 101293,
      "transactionIndex": 2,
      "confirmations": null,
      "from": "0x32Be343B94f860124dC4fEe278FDCBD38C102D88",
      "gasPrice": {
        "_hex": "0xd80780426"
      },
      "gasLimit": {
        "_hex": "0x5208"
      },
      "to": "0x76899c112A85c5a7d27Ff89f1b97112e900aeEBc",
      "value": {
        "_hex": "0xdde7e448067f0000"
      },
      "nonce": 1076,
      "data": "0x",
      "r": "0x9458a0c2c909524e13d28a3278f265845e918767207f041c3a9dd25cf8d48869",
      "s": "0x4621636280870aa13eb54401e45aca176bcf185e3c2d84f7d7cf96d4393e2003",
      "v": 27,
      "creates": null,
      "raw": "0xf86e820434850d807804268252089476899c112a85c5a7d27ff89f1b97112e900aeebc88dde7e448067f0000801ba09458a0c2c909524e13d28a3278f265845e918767207f041c3a9dd25cf8d48869a04621636280870aa13eb54401e45aca176bcf185e3c2d84f7d7cf96d4393e2003",
      "networkId": 0,
      "chainId": 0
    },
    {
      "hash": "0xf70404766706ff1a36ed4cce31dc293436ccff4a3cd922c2f71d7527b055513c",
      "blockHash": "0xa7096d096657eec8379b7fff587a016464143fbd5f2e002fefd53e4ecbe7311a",
      "blockNumber": 101293,
      "transactionIndex": 3,
      "confirmations": null,
      "from": "0xf2cC0eEAAAeD313542CB262B0B8c3972425143f0",
      "gasPrice": {
        "_hex": "0xd80780426"
      },
      "gasLimit": {
        "_hex": "0x5208"
      },
      "to": "0x32Be343B94f860124dC4fEe278FDCBD38C102D88",
      "value": {
        "_hex": "0x453bc29a4026e800"
      },
      "nonce": 12,
      "data": "0x",
      "r": "0x1e518e9059122b025bfd88bc7a006b22936975c356e01d28b6c7f4fd0b6ccf6d",
      "s": "0x18b0d0ae0372e124871c52f175fafd9c33da2020863a3faf432f26dc0f57cdf3",
      "v": 28,
      "creates": null,
      "raw": "0xf86c0c850d807804268252089432be343b94f860124dc4fee278fdcbd38c102d8888453bc29a4026e800801ca01e518e9059122b025bfd88bc7a006b22936975c356e01d28b6c7f4fd0b6ccf6da018b0d0ae0372e124871c52f175fafd9c33da2020863a3faf432f26dc0f57cdf3",
      "networkId": 0,
      "chainId": 0
    }
  ]
}