{
  "hash": "0xdc870634d16edf7ee20347a3552e2dff2a315b3ce9241d447080a082f5f4f330",
  "parentHash": "0x8629c58ac53679603f8a0b266f7fd97e42afc5d0e21e53024d5603abaa86a29d",
  "number": 101799,
  "timestamp": 1439828238,
  "nonce": "0x529159a376659c8a",
  "difficulty": 3880550071308,
  "gasLimit": {
    "_hex": "0x2fefd8"
  },
  "gasUsed": {
    "_hex": "0x1bdbe"
  },
  "miner": "0x13db2d4DF4EE21C407B0B3F867d2892037f05DB3",
  "extraData": "0x476574682f76312e302e312f6c696e75782f676f312e342e32",
  "transactions": [
    {
      "hash": "0xc733248a183df4073a0ca190a7fc8a28f21f7b3b3777a9b8eaaf51afb9dbb14f",
      "blockHash": "0xdc870634d16edf7ee20347a3552e2dff2a315b3ce9241d447080a082f5f4f330",
      "blockNumber": 101799,
      "transactionIndex": 0,
      "confirmations": null,
      "from": "0x0F87Fb507513e749081E34373c84E95e85b5c057",
      "gasPrice": {
        "_hex": "0xdfde45d46"
      },
      "gasLimit": {
        "_hex": "0x249f0"
      },
      "to": "0xE28e72FCf78647ADCe1F1252F240bbfaebD63BcC",
      "value": {
        "_hex": "0x56bc75e2d63100000"
      },
      "nonce": 1,
      "data": "0x45466f3a",
      "r": "0x4c994e10012fb153f9b57b7623b2d3968b0c656d859b2a6b11323f84934bcef8",
      "s": "0x3e5ff737a495bc3be1a18a558a961d2922c3292c76203b5c22d9accfa705f18d",
      "v": 28,
      "creates": null,
      "raw": "0xf87201850dfde45d46830249f094e28e72fcf78647adce1f1252f240bbfaebd63bcc89056bc75e2d631000008445466f3a1ca04c994e10012fb153f9b57b7623b2d3968b0c656d859b2a6b11323f84934bcef8a03e5ff737a495bc3be1a18a558a961d2922c3292c76203b5c22d9accfa705f18d",
      "networkId": 0,
      "chainId": 0
    }
  ]
}