{
  "hash": "0xbe3b2da0f969e8ac505bfb03783fa6d4d8a119524602adb19fe6ca1fd354480d",
  "parentHash": "0xac4810d9cfa7843c220bf3c93973a58f45d70004198672e42155436986c636e8",
  "number": 120152,
  "timestamp": 1440154878,
  "nonce": "0x67d046fbd416ee1e",
  "difficulty": 4406953382294,
  "gasLimit": {
    "_hex": "0x2fefd8"
  },
  "gasUsed": {
    "_hex": "0xa410"
  },
  "miner": "0xe6A7a1d47ff21B6321162AEA7C6CB457D5476Bca",
  "extraData": "0xd783010002844765746887676f312e342e32856c696e7578",
  "transactions": [
    {
      "hash": "0x4905e5990c883ee56489fdfd415f98604ebd28f2e2507171498a10c5c9d24d9a",
      "blockHash": "0xbe3b2da0f969e8ac505bfb03783fa6d4d8a119524602adb19fe6ca1fd354480d",
      "blockNumber": 120152,
      "transactionIndex": 0,
      "confirmations": null,
      "from": "0xa6BDc31c431B8F97848c9D60cbbe9660dc450eB7",
      "gasPrice": {
        "_hex": "0xba43b7400"
      },
      "gasLimit": {
        "_hex": "0x5208"
      },
      "to": "0x32Be343B94f860124dC4fEe278FDCBD38C102D88",
      "value": {
        "_hex": "0x455fd68a17f06000"
      },
      "nonce": 205,
      "data": "0x",
      "r": "0x7aba752c7d4b737f077e82696b3bf35872b3b2a9466bd5ee7e95886f560b38b7",
      "s": "0x74d36c6883814f1628517e0dbecfb590f1aa83fe263efb11165011e0178a7a8b",
      "v": 28,
      "creates": null,
      "raw": "0xf86d81cd850ba43b74008252089432be343b94f860124dc4fee278fdcbd38c102d8888455fd68a17f06000801ca07aba752c7d4b737f077e82696b3bf35872b3b2a9466bd5ee7e95886f560b38b7a074d36c6883814f1628517e0dbecfb590f1aa83fe263efb11165011e0178a7a8b",
      "networkId": 0,
      "chainId": 0
    },
    {
      "hash": "0xef7e608b0a0b557ab9771a9c545136d072f0cd22826b06ea2bd1c634eeb28926",
      "blockHash": "0xbe3b2da0f969e8ac505bfb03783fa6d4d8a119524602adb19fe6ca1fd354480d",
      "blockNumber": 120152,
      "transactionIndex": 1,
      "confirmations": null,
      "from": "0xfbB5F5B2Dd4e470E131C6F275bEAE4fbE36cf104",
      "gasPrice": {
        "_hex": "0xba43b7400"
      },
      "gasLimit": {
        "_hex": "0x5208"
      },
      "to": "0x32Be343B94f860124dC4fEe278FDCBD38C102D88",
      "value": {
        "_hex": "0x1c1f85b0c26a580000"
      },
      "nonce": 3,
      "data": "0x",
      "r": "0x616adfb848f1a5a333a47222788ef356f6b830d7bfe2987b7471b0a0f62ce31e",
      "s": "0x49ae08a43b1f07457e0e8c345bdf5b57541774dea16e2b0e2a096f019604693f",
      "v": 27,
      "creates": null,
      "raw": "0xf86d03850ba43b74008252089432be343b94f860124dc4fee278fdcbd38c102d88891c1f85b0c26a580000801ba0616adfb848f1a5a333a47222788ef356f6b830d7bfe2987b7471b0a0f62ce31ea049ae08a43b1f07457e0e8c345bdf5b57541774dea16e2b0e2a096f019604693f",
      "networkId": 0,
      "chainId": 0
    }
  ]
}