{
  "hash": "0xae573cd6f7514f60b82173d99c5c03ab7a67d0e2d92da06973961d07a8d4484c",
  "parentHash": "0x3f92c4fa41e69c549abe7693ad98729deecca62cfb65c831f8dc9dc57fa20517",
  "number": 115368,
  "timestamp": 1440056029,
  "nonce": "0x23f95c5fa8f71b34",
  "difficulty": 4549438903668,
  "gasLimit": {
    "_hex": "0x2fefd8"
  },
  "gasUsed": {
    "_hex": "0x5208"
  },
  "miner": "0xB6be56962eab062fC2A764216eEd2Bf07ea1bd92",
  "extraData": "0x476574682f76312e302e312d37666266393930632f6c696e75782f676f312e34",
  "transactions": [
    {
      "hash": "0x4da6d24ef3a4df41eab0b0a5f7e474e692ac9268d12fa8f81d24630d411cbf6e",
      "blockHash": "0xae573cd6f7514f60b82173d99c5c03ab7a67d0e2d92da06973961d07a8d4484c",
      "blockNumber": 115368,
      "transactionIndex": 0,
      "confirmations": null,
      "from": "0x2637e8641e6ef9C8951adf3E0c7058e76D766cbA",
      "gasPrice": {
        "_hex": "0xd6b719919"
      },
      "gasLimit": {
        "_hex": "0x5208"
      },
      "to": "0x32Be343B94f860124dC4fEe278FDCBD38C102D88",
      "value": {
        "_hex": "0x88ddd3de20ef3000"
      },
      "nonce": 8,
      "data": "0x",
      "r": "0xacba633b780995ffebc687940c708c2870125171ae8a36925b2f38f0447c60e3",
      "s": "0x0ff33692686510b11763e2aaa248a636ec4dfac193b4acd3d8f6cf3d899f6a87",
      "v": 27,
      "creates": null,
      "raw": "0xf86c08850d6b7199198252089432be343b94f860124dc4fee278fdcbd38c102d888888ddd3de20ef3000801ba0acba633b780995ffebc687940c708c2870125171ae8a36925b2f38f0447c60e3a00ff33692686510b11763e2aaa248a636ec4dfac193b4acd3d8f6cf3d899f6a87",
      "networkId": 0,
      "chainId": 0
    }
  ]
}