{
  "hash": "0x58557f67bc41986e787e0940b4f904774c955c0d2744741c72ac43e365e7b87a",
  "parentHash": "0x09df72549c10b04bf0465d7346814b26761a4fd85378db433e5ab95209d34862",
  "number": 115291,
  "timestamp": 1440054683,
  "nonce": "0x554c47df712b5e9f",
  "difficulty": 4551702632400,
  "gasLimit": {
    "_hex": "0x2fefd8"
  },
  "gasUsed": {
    "_hex": "0x3d860"
  },
  "miner": "0x753562eEA69CD2D342A9c07EDD49b9753dc0F01e",
  "extraData": "0xd783010001844765746887676f312e342e32856c696e7578",
  "transactions": [
    {
      "hash": "0x96e21a6aaa3c9509e05e3dfa0a69eb4f8cb4edb94811f76c12a9c03e4e350ba0",
      "blockHash": "0x58557f67bc41986e787e0940b4f904774c955c0d2744741c72ac43e365e7b87a",
      "blockNumber": 115291,
      "transactionIndex": 0,
      "confirmations": null,
      "from": "0xe6A7a1d47ff21B6321162AEA7C6CB457D5476Bca",
      "gasPrice": {
        "_hex": "0xded2082f7"
      },
      "gasLimit": {
        "_hex": "0x55f0"
      },
      "to": "0x24D0A28C70BAC94698980F2c297Ee1Cf505F06cB",
      "value": {
        "_hex": "0x32a4ea67dc11dfe0"
      },
      "nonce": 5261,
      "data": "0x",
      "r": "0x6350c11185c0a5c26ee6101ab42879b1556859c8037366c5dc94124e90ae5773",
      "s": "0x40e1fac4798b02f37e6fd33ef56f8b5b68348fd4ef06261df3753f5a31dd8f74",
      "v": 27,
      "creates": null,
      "raw": "0xf86e82148d850ded2082f78255f09424d0a28c70bac94698980f2c297ee1cf505f06cb8832a4ea67dc11dfe0801ba06350c11185c0a5c26ee6101ab42879b1556859c8037366c5dc94124e90ae5773a040e1fac4798b02f37e6fd33ef56f8b5b68348fd4ef06261df3753f5a31dd8f74",
      "networkId": 0,
      "chainId": 0
    },
    {
      "hash": "0x3f3f8aafa2b9deeb03ac1fe708a6137dd6c70c4c03aec918b386c6276089f089",
      "blockHash": "0x58557f67bc41986e787e0940b4f904774c955c0d2744741c72ac43e365e7b87a",
      "blockNumber": 115291,
      "transactionIndex": 1,
      "confirmations": null,
      "from": "0xe6A7a1d47ff21B6321162AEA7C6CB457D5476Bca",
      "gasPrice": {
        "_hex": "0xded2082f7"
      },
      "gasLimit": {
        "_hex": "0x55f0"
      },
      "to": "0x6589D22b54648e5D67Dc008eBd0c836D3DF39c87",
      "value": {
        "_hex": "0x32bf1a254978f9f4"
      },
      "nonce": 5262,
      "data": "0x",
      "r": "0x4f4447e5f043f370af4ac924ebd37f9b523129d703b5a2876448add163c95531",
      "s": "0x663c6255d31bc882fed6efcfab448346150671f255df4d6fcb6abda6cbfb3dfa",
      "v": 28,
      "creates": null,
      "raw": "0xf86e82148e850ded2082f78255f0946589d22b54648e5d67dc008ebd0c836d3df39c878832bf1a254978f9f4801ca04f4447e5f043f370af4ac924ebd37f9b523129d703b5a2876448add163c95531a0663c6255d31bc882fed6efcfab448346150671f255df4d6fcb6abda6cbfb3dfa",
      "networkId": 0,
      "chainId": 0
    },
    {
      "hash": "0xd54d9bcd77c19390504bff740c1683fe2043cc692e93357c61ccca1247304c50",
      "blockHash": "0x58557f67bc41986e787e0940b4f904774c955c0d2744741c72ac43e365e7b87a",
      "blockNumber": 115291,
      "transactionIndex": 2,
      "confirmations": null,
      "from": "0xe6A7a1d47ff21B6321162AEA7C6CB457D5476Bca",
      "gasPrice": {
        "_hex": "0xded2082f7"
      },
      "gasLimit": {
        "_hex": "0x55f0"
      },
      "to": "0x3B6C409e2ADC909C20B59DF21a7c48F44c259F24",
      "value": {
        "_hex": "0x3340baa3ad50ffa8"
      },
      "nonce": 5263,
      "data": "0x",
      "r": "0x295da2e69d3e5392e380eb88bd74fedc770333b59475fe242c8ad0de54f39d35",
      "s": "0x00008e4ae1298cad94938572beb186728734c285a5f51d5ff10a38bd008888c2",
      "v": 27,
      "creates": null,
      "raw": "0xf86c82148f850ded2082f78255f0943b6c409e2adc909c20b59df21a7c48f44c259f24883340baa3ad50ffa8801ba0295da2e69d3e5392e380eb88bd74fedc770333b59475fe242c8ad0de54f39d359e8e4ae1298cad94938572beb186728734c285a5f51d5ff10a38bd008888c2",
      "networkId": 0,
      "chainId": 0
    },
    {
      "hash": "0x569702a3cfaf9b5990128612d6f57de8bafcf3f34bb1a36c767f3c46657a2ed4",
      "blockHash": "0x58557f67bc41986e787e0940b4f904774c955c0d2744741c72ac43e365e7b87a",
      "blockNumber": 115291,
      "transactionIndex": 3,
      "confirmations": null,
      "from": "0xe6A7a1d47ff21B6321162AEA7C6CB457D5476Bca",
      "gasPrice": {
        "_hex": "0xded2082f7"
      },
      "gasLimit": {
        "_hex": "0x55f0"
      },
      "to": "0xeCdf9d571849dE520c84eBEd7Ac4551e483eA5b3",
      "value": {
        "_hex": "0x33b2509ab2c9cda8"
      },
      "nonce": 5264,
      "data": "0x",
      "r": "0x3c523e76122954b938bbdd8c9865def539a99f3f3248f6c1180076e283484fb6",
      "s": "0x0c1b5c8ce08b7880b2a840b7c5b4c374d72340c0758e2e4df962f6583b67023d",
      "v": 27,
      "creates": null,
      "raw": "0xf86e821490850ded2082f78255f094ecdf9d571849de520c84ebed7ac4551e483ea5b38833b2509ab2c9cda8801ba03c523e76122954b938bbdd8c9865def539a99f3f3248f6c1180076e283484fb6a00c1b5c8ce08b7880b2a840b7c5b4c374d72340c0758e2e4df962f6583b67023d",
      "networkId": 0,
      "chainId": 0
    },
    {
      "hash": "0x1b502dcc296438a26a768a5997e5b06d076f851749de44010fe2f096403c96ad",
      "blockHash": "0x58557f67bc41986e787e0940b4f904774c955c0d2744741c72ac43e365e7b87a",
      "blockNumber": 115291,
      "transactionIndex": 4,
      "confirmations": null,
      "from": "0xe6A7a1d47ff21B6321162AEA7C6CB457D5476Bca",
      "gasPrice": {
        "_hex": "0xded2082f7"
      },
      "gasLimit": {
        "_hex": "0x55f0"
      },
      "to": "0x7CabE4dE323c392C7135680c61a04d5Eb7519897",
      "value": {
        "_hex": "0x33d1fcb457dbca28"
      },
      "nonce": 5265,
      "data": "0x",
      "r": "0xc40b386c9f55648bb4f3e9184c28f6379e88e665b37853a8f03b460845aeee46",
      "s": "0x5c092d792382ed901ead9f1ccf57f815fc66b85224ddb80a18255651150f83a2",
      "v": 27,
      "creates": null,
      "raw": "0xf86e821491850ded2082f78255f0947cabe4de323c392c7135680c61a04d5eb75198978833d1fcb457dbca28801ba0c40b386c9f55648bb4f3e9184c28f6379e88e665b37853a8f03b460845aeee46a05c092d792382ed901ead9f1ccf57f815fc66b85224ddb80a18255651150f83a2",
      "networkId": 0,
      "chainId": 0
    },
    {
      "hash": "0x13d8a5f2c2280f9cfe3f793bd49974d9ce4095686c95eacfd1caf109185e3941",
      "blockHash": "0x58557f67bc41986e787e0940b4f904774c955c0d2744741c72ac43e365e7b87a",
      "blockNumber": 115291,
      "transactionIndex": 5,
      "confirmations": null,
      "from": "0xe6A7a1d47ff21B6321162AEA7C6CB457D5476Bca",
      "gasPrice": {
        "_hex": "0xded2082f7"
      },
      "gasLimit": {
        "_hex": "0x55f0"
      },
      "to": "0xfABFCDb9aD54126a8829d5aB6357F608C6B005d0",
      "value": {
        "_hex": "0x344d571c1a19e808"
      },
      "nonce": 5266,
      "data": "0x",
      "r": "0xf6388f2daddb093fdad1045044eb9b764feeb01b240b0e6031e894c64b7bebad",
      "s": "0x0bfe777417830e23404c170f77774832c405271854d0989a0ec39da596f19f3c",
      "v": 28,
      "creates": null,
      "raw": "0xf86e821492850ded2082f78255f094fabfcdb9ad54126a8829d5ab6357f608c6b005d088344d571c1a19e808801ca0f6388f2daddb093fdad1045044eb9b764feeb01b240b0e6031e894c64b7bebada00bfe777417830e23404c170f77774832c405271854d0989a0ec39da596f19f3c",
      "networkId": 0,
      "chainId": 0
    },
    {
      "hash": "0x15a0370a42ce46aeea8e67a8e07772d3f326c606850d5dec4a500484347705ba",
      "blockHash": "0x58557f67bc41986e787e0940b4f904774c955c0d2744741c72ac43e365e7b87a",
      "blockNumber": 115291,
      "transactionIndex": 6,
      "confirmations": null,
      "from": "0xe6A7a1d47ff21B6321162AEA7C6CB457D5476Bca",
      "gasPrice": {
        "_hex": "0xded2082f7"
      },
      "gasLimit": {
        "_hex": "0x55f0"
      },
      "to": "0x63d25FB5edc318Aae1DEc4F3aBd7c645f921cff8",
      "value": {
        "_hex": "0x3569117e720be0a0"
      },
      "nonce": 5267,
      "data": "0x",
      "r": "0xb6b450048b58f74f72505183cb35ed840b818d97ab708f39b4a219dd4ded1475",
      "s": "0x5ac24eb21f162db847a8e38983ef54a0dac469d62687acfc8508ad201f997788",
      "v": 28,
      "creates": null,
      "raw": "0xf86e821493850ded2082f78255f09463d25fb5edc318aae1dec4f3abd7c645f921cff8883569117e720be0a0801ca0b6b450048b58f74f72505183cb35ed840b818d97ab708f39b4a219dd4ded1475a05ac24eb21f162db847a8e38983ef54a0dac469d62687acfc8508ad201f997788",
      "networkId": 0,
      "chainId": 0
    },
    {
      "hash": "0xcf6cec6fa6b38c58b7670194edebe6fdbab35ba36baca38798ff9376f5490d0e",
      "blockHash": "0x58557f67bc41986e787e0940b4f904774c955c0d2744741c72ac43e365e7b87a",
      "blockNumber": 115291,
      "transactionIndex": 7,
      "confirmations": null,
      "from": "0xe6A7a1d47ff21B6321162AEA7C6CB457D5476Bca",
      "gasPrice": {
        "_hex": "0xded2082f7"
      },
      "gasLimit": {
        "_hex": "0x55f0"
      },
      "to": "0xE7dAdedf7cEBAaBa85903823D254601B1D459C9B",
      "value": {
        "_hex": "0x3581e5d371a024e0"
      },
      "nonce": 5268,
      "data": "0x",
      "r": "0x0096f845ddc34f0b1ea195fd40299eb44bc6c631c243ff11e6d57fca2277ea9d",
      "s": "0x2738b47af602b427311129f2e012e9a86c2dbc6bdf7655c42e729311bda6c90b",
      "v": 27,
      "creates": null,
      "raw": "0xf86d821494850ded2082f78255f094e7dadedf7cebaaba85903823d254601b1d459c9b883581e5d371a024e0801b9f96f845ddc34f0b1ea195fd40299eb44bc6c631c243ff11e6d57fca2277ea9da02738b47af602b427311129f2e012e9a86c2dbc6bdf7655c42e729311bda6c90b",
      "networkId": 0,
      "chainId": 0
    },
    {
      "hash": "0x34ee1b7403962dd3fddc76c211966228db8a64277e12ef0ac4d22d3992813fd8",
      "blockHash": "0x58557f67bc41986e787e0940b4f904774c955c0d2744741c72ac43e365e7b87a",
      "blockNumber": 115291,
      "transactionIndex": 8,
      "confirmations": null,
      "from": "0xe6A7a1d47ff21B6321162AEA7C6CB457D5476Bca",
      "gasPrice": {
        "_hex": "0xded2082f7"
      },
      "gasLimit": {
        "_hex": "0x55f0"
      },
      "to": "0x0e308556B1C6EEB7457a08f91D5E132b4a54C9F1",
      "value": {
        "_hex": "0x360984b4923585f8"
      },
      "nonce": 5269,
      "data": "0x",
      "r": "0xab10b6dd77398cfa321ed5797f5f437b7fe897d17e0328785e2d918701e00c20",
      "s": "0x584b6f100322874fe2aba112ffdde5fd074266b77b99c2f04de60bebfcfa04d4",
      "v": 28,
      "creates": null,
      "raw": "0xf86e821495850ded2082f78255f0940e308556b1c6eeb7457a08f91d5e132b4a54c9f188360984b4923585f8801ca0ab10b6dd77398cfa321ed5797f5f437b7fe897d17e0328785e2d918701e00c20a0584b6f100322874fe2aba112ffdde5fd074266b77b99c2f04de60bebfcfa04d4",
      "networkId": 0,
      "chainId": 0
    },
    {
      "hash": "0x81c3f0560ae0338b5256a5db2831123564869fa03e0a9baef8a4556d9cee1301",
      "blockHash": "0x58557f67bc41986e787e0940b4f904774c955c0d2744741c72ac43e365e7b87a",
      "blockNumber": 115291,
      "transactionIndex": 9,
      "confirmations": null,
      "from": "0xe6A7a1d47ff21B6321162AEA7C6CB457D5476Bca",
      "gasPrice": {
        "_hex": "0xded2082f7"
      },
      "gasLimit": {
        "_hex": "0x55f0"
      },
      "to": "0xA542d5046D885E5fC7Dc4006ADb648C5710Ff0ED",
      "value": {
        "_hex": "0x361f77c2b4323824"
      },
      "nonce": 5270,
      "data": "0x",
      "r": "0xb1e942299545a187d85e63e97f22ceaa0d97519e4c8a548c77207c0b727b872a",
      "s": "0x0de43d0cf18394b01717f25cea6775b51b28d1d47261ad0ca20a932c011e30e9",
      "v": 28,
      "creates": null,
      "raw": "0xf86e821496850ded2082f78255f094a542d5046d885e5fc7dc4006adb648c5710ff0ed88361f77c2b4323824801ca0b1e942299545a187d85e63e97f22ceaa0d97519e4c8a548c77207c0b727b872aa00de43d0cf18394b01717f25cea6775b51b28d1d47261ad0ca20a932c011e30e9",
      "networkId": 0,
      "chainId": 0
    },
    {
      "hash": "0x49ddec44db818e1ec3f3d973bf966ac3de1b34948754c731a147e0dbd830a947",
      "blockHash": "0x58557f67bc41986e787e0940b4f904774c955c0d2744741c72ac43e365e7b87a",
      "blockNumber": 115291,
      "transactionIndex": 10,
      "confirmations": null,
      "from": "0xe6A7a1d47ff21B6321162AEA7C6CB457D5476Bca",
      "gasPrice": {
        "_hex": "0xded2082f7"
      },
      "gasLimit": {
        "_hex": "0x55f0"
      },
      "to": "0x8d629C20608135491B5013f1002586A0383130e5",
      "value": {
        "_hex": "0x369b0284c8e41418"
      },
      "nonce": 5271,
      "data": "0x",
      "r": "0xd9cc2ce6a32c7a3d184aa57c87ec588855ac0fe2b0a33ba9410b34f0d589a7f5",
      "s": "0x7b4dce280afc5f5b7aebf5e6a27b5f66a4edac66d5f17f416228a55035e3c587",
      "v": 28,
      "creates": null,
      "raw": "0xf86e821497850ded2082f78255f0948d629c20608135491b5013f1002586a0383130e588369b0284c8e41418801ca0d9cc2ce6a32c7a3d184aa57c87ec588855ac0fe2b0a33ba9410b34f0d589a7f5a07b4dce280afc5f5b7aebf5e6a27b5f66a4edac66d5f17f416228a55035e3c587",
      "networkId": 0,
      "chainId": 0
    },
    {
      "hash": "0xe123b77fa4f69e966585e11d84bfe68ff2c96283bcac0d294b69b4728ac314aa",
      "blockHash": "0x58557f67bc41986e787e0940b4f904774c955c0d2744741c72ac43e365e7b87a",
      "blockNumber": 115291,
      "transactionIndex": 11,
      "confirmations": null,
      "from": "0xc544B25bb91b87e380dda392687c6216b0260671",
      "gasPrice": {
        "_hex": "0xde5a48f04"
      },
      "gasLimit": {
        "_hex": "0x5208"
      },
      "to": "0x32Be343B94f860124dC4fEe278FDCBD38C102D88",
      "value": {
        "_hex": "0x187363539d085400"
      },
      "nonce": 13,
      "data": "0x",
      "r": "0xf1d8920c2ef74d7bf7fdeb75c8e4730da3ca7b85c4c1d7380f92b677fc734917",
      "s": "0x741be75a9f82b8b14e44056f7fe761293e062c5e652b1fb8f02c76567876d936",
      "v": 28,
      "creates": null,
      "raw": "0xf86c0d850de5a48f048252089432be343b94f860124dc4fee278fdcbd38c102d8888187363539d085400801ca0f1d8920c2ef74d7bf7fdeb75c8e4730da3ca7b85c4c1d7380f92b677fc734917a0741be75a9f82b8b14e44056f7fe761293e062c5e652b1fb8f02c76567876d936",
      "networkId": 0,
      "chainId": 0
    }
  ]
}