{
  "hash": "0x04dcc3f0b2bde57bd3a58d5ec037752ade2aaee4306068f3e1713b7d6e990dd4",
  "parentHash": "0xddb6c3e65626a53bd048044ec64bcfa9d3eb79f17c4894892266071f3e0a5f85",
  "number": 77948,
  "timestamp": 1439445487,
  "nonce": "0x60ff1965d285674a",
  "difficulty": 2300073842354,
  "gasLimit": {
    "_hex": "0x2fefd8"
  },
  "gasUsed": {
    "_hex": "0x5208"
  },
  "miner": "0x88D74a59454F6cF3B51ef6b9136AFb6b9D405A88",
  "extraData": "0x476574682f76312e302e312d38326566323666362f6c696e75782f676f312e34",
  "transactions": [
    {
      "hash": "0x03985248ac18027a7b4ed1f06ab3a73023a67c236e8e929a01862ca9b8853b18",
      "blockHash": "0x04dcc3f0b2bde57bd3a58d5ec037752ade2aaee4306068f3e1713b7d6e990dd4",
      "blockNumber": 77948,
      "transactionIndex": 0,
      "confirmations": null,
      "from": "0x32Be343B94f860124dC4fEe278FDCBD38C102D88",
      "gasPrice": {
        "_hex": "0xd1c7d5bfa"
      },
      "gasLimit": {
        "_hex": "0x5208"
      },
      "to": "0xc384Ac6ee27C39E2F278C220BDfA5BAeD626D9d3",
      "value": {
        "_hex": "0x1696bc434821850000"
      },
      "nonce": 377,
      "data": "0x",
      "r": "0x0b0a3c84562b4ac373381576ccb5cafbc50c53cfbf43f665f2dc18c48184d723",
      "s": "0x1d73eda81175a2b76b5db4a36c2aa2f863bcd5b08104fd7334b89b14907fea6d",
      "v": 28,
      "creates": null,
      "raw": "0xf86f820179850d1c7d5bfa82520894c384ac6ee27c39e2f278c220bdfa5baed626d9d3891696bc434821850000801ca00b0a3c84562b4ac373381576ccb5cafbc50c53cfbf43f665f2dc18c48184d723a01d73eda81175a2b76b5db4a36c2aa2f863bcd5b08104fd7334b89b14907fea6d",
      "networkId": 0,
      "chainId": 0
    }
  ]
}