{
  "hash": "0xbe9e20efb95cea0c13c00aae0d0af937f9fe3268290cb8225b733e4d0c7126dd",
  "parentHash": "0x53bc2b2af3355932e13e5458dcfcd574f94a43dcefd086a85346b852a77d3cf7",
  "number": 119152,
  "timestamp": 1440137640,
  "nonce": "0x6fbdb5461ac6df47",
  "difficulty": 4424729148960,
  "gasLimit": {
    "_hex": "0x2fefd8"
  },
  "gasUsed": {
    "_hex": "0x5208"
  },
  "miner": "0x608f4b86321a68453f9adf6F06F7Fc3E621739ad",
  "extraData": "0xd783010002844765746887676f312e342e32856c696e7578",
  "transactions": [
    {
      "hash": "0x0d1287c3b660a151fea6170e5368cefb51566fce2b8bc5839c83cad6d6f5d881",
      "blockHash": "0xbe9e20efb95cea0c13c00aae0d0af937f9fe3268290cb8225b733e4d0c7126dd",
      "blockNumber": 119152,
      "transactionIndex": 0,
      "confirmations": null,
      "from": "0x007f7f58D3eb5b7510A301eCC749FC1fCDDBE14D",
      "gasPrice": {
        "_hex": "0xba43b7400"
      },
      "gasLimit": {
        "_hex": "0x15f90"
      },
      "to": "0xb1abce2918E21ddb93AA452731a12672A3d9F75a",
      "value": {
        "_hex": "0x4563918244f40000"
      },
      "nonce": 353,
      "data": "0x",
      "r": "0xe0081d078ae7024a07407aab0038cf1157929d9c1cb7b1b05ee1b3ec7b4f9157",
      "s": "0x5e88951ce5e30791b09960242667da4f46aea5377ebe41c2c9fa90fb43d1d153",
      "v": 27,
      "creates": null,
      "raw": "0xf86f820161850ba43b740083015f9094b1abce2918e21ddb93aa452731a12672a3d9f75a884563918244f40000801ba0e0081d078ae7024a07407aab0038cf1157929d9c1cb7b1b05ee1b3ec7b4f9157a05e88951ce5e30791b09960242667da4f46aea5377ebe41c2c9fa90fb43d1d153",
      "networkId": 0,
      "chainId": 0
    }
  ]
}