{
  "hash": "0x818ee8be3d559466d134a9ab959e68cb69563a2cf3fc7c9703e282a8887e72fc",
  "parentHash": "0xb5443969893ef021f1830e36773a0d9a35c3a8d2d1d77017bf1565dfa81b3050",
  "number": 105563,
  "timestamp": 1439889545,
  "nonce": "0xcb4b8547cd90e07e",
  "difficulty": 4429739245403,
  "gasLimit": {
    "_hex": "0x2fefd8"
  },
  "gasUsed": {
    "_hex": "0x5208"
  },
  "miner": "0xe6A7a1d47ff21B6321162AEA7C6CB457D5476Bca",
  "extraData": "0x476574682f76312e302e312d38326566323666362f6c696e75782f676f312e34",
  "transactions": [
    {
      "hash": "0xbb2fdf48744d0658bc71c503874033af65f97fb5a06f5fb7a66720b3fd968b7b",
      "blockHash": "0x818ee8be3d559466d134a9ab959e68cb69563a2cf3fc7c9703e282a8887e72fc",
      "blockNumber": 105563,
      "transactionIndex": 0,
      "confirmations": null,
      "from": "0x32Be343B94f860124dC4fEe278FDCBD38C102D88",
      "gasPrice": {
        "_hex": "0xcfbb01be3"
      },
      "gasLimit": {
        "_hex": "0x5208"
      },
      "to": "0x6F298BCF4f0A82Ceb3Ebfc9f2dc32C3cb8687EFc",
      "value": {
        "_hex": "0x3627e8f712373c0000"
      },
      "nonce": 1172,
      "data": "0x",
      "r": "0xf1ac3a515787c63539a7081066686361d797244a5c390ffab5441d60b9283664",
      "s": "0x151df80809b1ce46caacdb7782e6daef9a0618f610a9e6ec921984ba8dcbee55",
      "v": 27,
      "creates": null,
      "raw": "0xf86f820494850cfbb01be3825208946f298bcf4f0a82ceb3ebfc9f2dc32c3cb8687efc893627e8f712373c0000801ba0f1ac3a515787c63539a7081066686361d797244a5c390ffab5441d60b9283664a0151df80809b1ce46caacdb7782e6daef9a0618f610a9e6ec921984ba8dcbee55",
      "networkId": 0,
      "chainId": 0
    }
  ]
}