{
  "hash": "0x2985d0907aed8c21a150c426c5f653739cac8df4b4afe6f6f34203b5799c0b1e",
  "parentHash": "0x5e259ffec5d8d721fa82964c1668d80a1e3649bab332a1b0649b267f1e7c8568",
  "number": 97222,
  "timestamp": 1439752820,
  "nonce": "0xdda9eb704096ce9d",
  "difficulty": 3761373757676,
  "gasLimit": {
    "_hex": "0x2fefd8"
  },
  "gasUsed": {
    "_hex": "0x5208"
  },
  "miner": "0xC5624D986419AeBa6B6A7Ce5BAFd9883f75d8bc8",
  "extraData": "0x",
  "transactions": [
    {
      "hash": "0x9027c80052e1c4425d72d33f067f270aaa42ae5dfad746b31c2ccbdd04c70874",
      "blockHash": "0x2985d0907aed8c21a150c426c5f653739cac8df4b4afe6f6f34203b5799c0b1e",
      "blockNumber": 97222,
      "transactionIndex": 0,
      "confirmations": null,
      "from": "0x23ac86f02C0e12C822b2c991b4602fbd79EAB8Ed",
      "gasPrice": {
        "_hex": "0xba43b7400"
      },
      "gasLimit": {
        "_hex": "0x5208"
      },
      "to": "0xC47Aaa860008be6f65B58c6C6E02a84e666EfE31",
      "value": {
        "_hex": "0x4826617ad30438f0"
      },
      "nonce": 2,
      "data": "0x",
      "r": "0xfa7c7bf8bb3d8938c5ce724d12ce0775f53e858bfa05c045cba07137dc293f1c",
      "s": "0x04557190322d6e91ae50c38d6ffee4929a508bd727ce5a14e44d0d3f6dcf766c",
      "v": 27,
      "creates": null,
      "raw": "0xf86c02850ba43b740082520894c47aaa860008be6f65b58c6c6e02a84e666efe31884826617ad30438f0801ba0fa7c7bf8bb3d8938c5ce724d12ce0775f53e858bfa05c045cba07137dc293f1ca004557190322d6e91ae50c38d6ffee4929a508bd727ce5a14e44d0d3f6dcf766c",
      "networkId": 0,
      "chainId": 0
    }
  ]
}