{
  "hash": "0xbe6c4955975b9aad5abb80676acefc876a560504ebe26a6e63b4a2f428de5705",
  "parentHash": "0x48ebf313889f2350a28bd1a558c99488a878fc1c4cbf07b22044d2ee530be945",
  "number": 102668,
  "timestamp": 1439841368,
  "nonce": "0x8a50b32585326f04",
  "difficulty": 4044578050375,
  "gasLimit": {
    "_hex": "0x2fefd8"
  },
  "gasUsed": {
    "_hex": "0xa410"
  },
  "miner": "0x790b8a3cE86E707ED0eD32bF89B3269692a23CC1",
  "extraData": "0xd783010001844765746887676f312e342e32856c696e7578",
  "transactions": [
    {
      "hash": "0x705a8f06b9a678e172aa8e9d6bfc206bbe4686e473b3e9f6df462bcded3c671d",
      "blockHash": "0xbe6c4955975b9aad5abb80676acefc876a560504ebe26a6e63b4a2f428de5705",
      "blockNumber": 102668,
      "transactionIndex": 0,
      "confirmations": null,
      "from": "0x007f7f58D3eb5b7510A301eCC749FC1fCDDBE14D",
      "gasPrice": {
        "_hex": "0xe0cfe7246"
      },
      "gasLimit": {
        "_hex": "0x15f90"
      },
      "to": "0xb1abce2918E21ddb93AA452731a12672A3d9F75a",
      "value": {
        "_hex": "0x4563918244f40000"
      },
      "nonce": 213,
      "data": "0x",
      "r": "0xbfb4f9d8a8317611e50743c777dfb2aba11b964a09a8992391c4b8934537b9a4",
      "s": "0x75bbd17ab6b3229288d488ecb94cbba92277fd044df7468ec4979ddc0f760be8",
      "v": 27,
      "creates": null,
      "raw": "0xf86e81d5850e0cfe724683015f9094b1abce2918e21ddb93aa452731a12672a3d9f75a884563918244f40000801ba0bfb4f9d8a8317611e50743c777dfb2aba11b964a09a8992391c4b8934537b9a4a075bbd17ab6b3229288d488ecb94cbba92277fd044df7468ec4979ddc0f760be8",
      "networkId": 0,
      "chainId": 0
    },
    {
      "hash": "0xcff9787feffe1bc8d6d2b9a3e691d4e324fab8ffe8570a810b0168316fe433b6",
      "blockHash": "0xbe6c4955975b9aad5abb80676acefc876a560504ebe26a6e63b4a2f428de5705",
      "blockNumber": 102668,
      "transactionIndex": 1,
      "confirmations": null,
      "from": "0x2910543Af39abA0Cd09dBb2D50200b3E800A63D2",
      "gasPrice": {
        "_hex": "0xd831760a0"
      },
      "gasLimit": {
        "_hex": "0x5208"
      },
      "to": "0xc1A75C10a8df8afd0F5f33890CEc81a2FE8dbc69",
      "value": {
        "_hex": "0x1b1ad31369b76f8000"
      },
      "nonce": 1000,
      "data": "0x",
      "r": "0x05d0dfaa4bf79d7d3657b3c66289fa0c2ccb14dab40e3a9e01f26b5cd147211d",
      "s": "0x1c3d7cfa4cffd262b15582137447b21192aecd147fb4c30428271368ffb1e8cb",
      "v": 28,
      "creates": null,
      "raw": "0xf86f8203e8850d831760a082520894c1a75c10a8df8afd0f5f33890cec81a2fe8dbc69891b1ad31369b76f8000801ca005d0dfaa4bf79d7d3657b3c66289fa0c2ccb14dab40e3a9e01f26b5cd147211da01c3d7cfa4cffd262b15582137447b21192aecd147fb4c30428271368ffb1e8cb",
      "networkId": 0,
      "chainId": 0
    }
  ]
}