{
  "hash": "0x9637811a177753d8d02afaa3c015d87154ea8bfeadf383ed45d4c6bfd8ac1bab",
  "parentHash": "0x03d86c00fbc0bd82e30841050d76a3439c98d47d91ca7586e71ef8bcdd46ad66",
  "number": 53447,
  "timestamp": 1439037776,
  "nonce": "0x5ab9d5c1d47ea48d",
  "difficulty": 1595535795997,
  "gasLimit": {
    "_hex": "0x2889ff"
  },
  "gasUsed": {
    "_hex": "0x5208"
  },
  "miner": "0x5F8F73E26CdF436f19Cb24C82F90A15AFe55b592",
  "extraData": "0x476574682f76312e302e312f77696e646f77732f676f312e342e32",
  "transactions": [
    {
      "hash": "0x99f1739e37e6ff0124e4a0a53ae1dc53e36ba98639e38faababb2bf2ad8c8cea",
      "blockHash": "0x9637811a177753d8d02afaa3c015d87154ea8bfeadf383ed45d4c6bfd8ac1bab",
      "blockNumber": 53447,
      "transactionIndex": 0,
      "confirmations": null,
      "from": "0xa0A0e65204541Fca9b2fB282cd95138FAE16f809",
      "gasPrice": {
        "_hex": "0xce29e8bdd"
      },
      "gasLimit": {
        "_hex": "0x5208"
      },
      "to": "0x3B4AF94C39e87281410A3B5Cf880b4a647459363",
      "value": {
        "_hex": "0x30ca024f987b900000"
      },
      "nonce": 5,
      "data": "0x",
      "r": "0xaa8d53c90341713475e4f6a1a8424c30e56813b82496f86d6cf275ddc8d7cdc8",
      "s": "0x2486061869989b9e3b14bde9b7e9598ddbae72ef0775b510ef881bc3ca7c35e6",
      "v": 27,
      "creates": null,
      "raw": "0xf86d05850ce29e8bdd825208943b4af94c39e87281410a3b5cf880b4a6474593638930ca024f987b900000801ba0aa8d53c90341713475e4f6a1a8424c30e56813b82496f86d6cf275ddc8d7cdc8a02486061869989b9e3b14bde9b7e9598ddbae72ef0775b510ef881bc3ca7c35e6",
      "networkId": 0,
      "chainId": 0
    }
  ]
}