{
  "hash": "0x55f29dc2091108367e5de49d6fbadc87d0b7428bf9e66a7134af2ea3d4c447d8",
  "parentHash": "0x38fadb9b02556f45929cf6ef5f3dc8374b02b0d05f6487eb97c73af1e22c9534",
  "number": 73330,
  "timestamp": 1439367402,
  "nonce": "0x24ec5e70b968f90f",
  "difficulty": 2195954343487,
  "gasLimit": {
    "_hex": "0x2fefd8"
  },
  "gasUsed": {
    "_hex": "0x5208"
  },
  "miner": "0xf8E0CA3Ed80bd541b94BEdCf259e8CF2141A9523",
  "extraData": "0x476574682f76312e302e312f77696e646f77732f676f312e342e32",
  "transactions": [
    {
      "hash": "0xfa0c90c252465725ee8bc13526b2f2749e865f3dfd9921e50cda5526a193df0d",
      "blockHash": "0x55f29dc2091108367e5de49d6fbadc87d0b7428bf9e66a7134af2ea3d4c447d8",
      "blockNumber": 73330,
      "transactionIndex": 0,
      "confirmations": null,
      "from": "0x40B9b889A21Ff1534d018D71Dc406122EBcf3F5A",
      "gasPrice": {
        "_hex": "0x1052ceba9df"
      },
      "gasLimit": {
        "_hex": "0x15f90"
      },
      "to": "0xa7829B0194BEd9EC2478Ad0A6FE7c7347f0bEA86",
      "value": {
        "_hex": "0x2c68af0bb140000"
      },
      "nonce": 8,
      "data": "0x",
      "r": "0x02f8e973f8efb5d5b40be87cefefc2f7012b5d14ba39d86cef0ddbf7b8720d0f",
      "s": "0x7d0b99ab00718a8733b438283972574d12ce5ff39fa0ea588f8c4a7a15e01372",
      "v": 28,
      "creates": null,
      "raw": "0xf86e088601052ceba9df83015f9094a7829b0194bed9ec2478ad0a6fe7c7347f0bea868802c68af0bb140000801ca002f8e973f8efb5d5b40be87cefefc2f7012b5d14ba39d86cef0ddbf7b8720d0fa07d0b99ab00718a8733b438283972574d12ce5ff39fa0ea588f8c4a7a15e01372",
      "networkId": 0,
      "chainId": 0
    }
  ]
}