{
  "hash": "0x800ce461a2ff74c5386d3f3efff706c2bebb2a352a9618e57fc7490058b9a7b3",
  "parentHash": "0xf2f9ef7663573954cb8abd0c56dc4fce1f44946b1a5442074b5bf9ed17e2b9ba",
  "number": 83889,
  "timestamp": 1439542267,
  "nonce": "0xce2553a3b1390a5f",
  "difficulty": 2459859180055,
  "gasLimit": {
    "_hex": "0x2fefd8"
  },
  "gasUsed": {
    "_hex": "0x5208"
  },
  "miner": "0xA0cd872D3Abd6c4BaA55f15C35aC05730a1b621b",
  "extraData": "0x",
  "transactions": [
    {
      "hash": "0x31304485d4fbe4e1e97f7988c5a59e11ea04a2fae63253c2dc05b35d8adc3974",
      "blockHash": "0x800ce461a2ff74c5386d3f3efff706c2bebb2a352a9618e57fc7490058b9a7b3",
      "blockNumber": 83889,
      "transactionIndex": 0,
      "confirmations": null,
      "from": "0x120A270bbC009644e35F0bB6ab13f95b8199c4ad",
      "gasPrice": {
        "_hex": "0xcb367d655"
      },
      "gasLimit": {
        "_hex": "0x3d090"
      },
      "to": "0xbae281B6b389e840f52b74C832EcdaEf7820d8a5",
      "value": {
        "_hex": "0x11f2ebb07cd726800"
      },
      "nonce": 417,
      "data": "0x",
      "r": "0x31ffb8d94aa03c27f5140ded8a548948a24991c4dca8fb84198ea6cf47ff558d",
      "s": "0x172fa6ac014e6070b5e12311b97d4fa887caa7a6c34290968b39869e1edffa9e",
      "v": 27,
      "creates": null,
      "raw": "0xf8708201a1850cb367d6558303d09094bae281b6b389e840f52b74c832ecdaef7820d8a589011f2ebb07cd726800801ba031ffb8d94aa03c27f5140ded8a548948a24991c4dca8fb84198ea6cf47ff558da0172fa6ac014e6070b5e12311b97d4fa887caa7a6c34290968b39869e1edffa9e",
      "networkId": 0,
      "chainId": 0
    }
  ]
}