{
  "hash": "0x1245ac571b97d10d1d06d92eccc78b0a9918e65e811a2499efaf95868397d38c",
  "parentHash": "0xa750ae0d1a5af087b8d67fcb249452f1c72d574578d99f81317bdd8595dbfd7e",
  "number": 75879,
  "timestamp": 1439411013,
  "nonce": "0xa4c8f05ca000a83e",
  "difficulty": 2230946981412,
  "gasLimit": {
    "_hex": "0x2fefd8"
  },
  "gasUsed": {
    "_hex": "0xad77"
  },
  "miner": "0x9746c7e1ef2bd21FF3997fa467593a89cb852BD0",
  "extraData": "0x476574682f76312e302e312f77696e646f77732f676f312e342e32",
  "transactions": [
    {
      "hash": "0xce5c446c65a10e73c171b2057ca1bf403e588e9f3bc604b8e00bab0b46634984",
      "blockHash": "0x1245ac571b97d10d1d06d92eccc78b0a9918e65e811a2499efaf95868397d38c",
      "blockNumber": 75879,
      "transactionIndex": 0,
      "confirmations": null,
      "from": "0x87C5B5874A18B4306DF8a752a6C8cc3E82daFc19",
      "gasPrice": {
        "_hex": "0x107571302e1"
      },
      "gasLimit": {
        "_hex": "0x493e0"
      },
      "to": "0xD79B4C6791784184e2755B2fC1659eaaB0f80456",
      "value": {
        "_hex": "0x0"
      },
      "nonce": 71,
      "data": "0x03750d94000000000000000000000000326be8f71bfb0379f989aab1cc1fe37f0a771f603730386362626634343236616439363300000000000000000000000000000000",
      "r": "0x1fb4454965bfe1b0692c5350eedc613f5348d4f242cf1c97c2a8afff478dbb82",
      "s": "0x327b89ddd71cd0cda515c767d33ab96a88a6ebb1e5e21b2f773bfa7bfcf0ba7e",
      "v": 28,
      "creates": null,
      "raw": "0xf8ab47860107571302e1830493e094d79b4c6791784184e2755b2fc1659eaab0f8045680b84403750d94000000000000000000000000326be8f71bfb0379f989aab1cc1fe37f0a771f6037303863626266343432366164393633000000000000000000000000000000001ca01fb4454965bfe1b0692c5350eedc613f5348d4f242cf1c97c2a8afff478dbb82a0327b89ddd71cd0cda515c767d33ab96a88a6ebb1e5e21b2f773bfa7bfcf0ba7e",
      "networkId": 0,
      "chainId": 0
    }
  ]
}