{
  "hash": "0x8ea9ae7620ea9920625c1608ab3817375c935d8dae062b2791a7cd4de554161f",
  "parentHash": "0x4a221dad03124f4110af8153c2f22290617ab2cdcb5c9279c2a1bcced31edd70",
  "number": 108666,
  "timestamp": 1439944241,
  "nonce": "0x5a9fae7a1d5455a7",
  "difficulty": 4336097366967,
  "gasLimit": {
    "_hex": "0x2fefd8"
  },
  "gasUsed": {
    "_hex": "0x5208"
  },
  "miner": "0xA21Ba94e45f0E168dA824fC67aC9cb5Cb577a8aF",
  "extraData": "0x",
  "transactions": [
    {
      "hash": "0x9d3eca24b3d242ee3b6fb0f71dc99a4a8af440527870f76479648e3498470014",
      "blockHash": "0x8ea9ae7620ea9920625c1608ab3817375c935d8dae062b2791a7cd4de554161f",
      "blockNumber": 108666,
      "transactionIndex": 0,
      "confirmations": null,
      "from": "0xCbbdAd70d0ff27254925AD37B5C135EEe1116615",
      "gasPrice": {
        "_hex": "0x10872ad936d"
      },
      "gasLimit": {
        "_hex": "0x15f90"
      },
      "to": "0x886e83d9133F65B9c27A946f699E88e71A888E4C",
      "value": {
        "_hex": "0x6f05b59d3b20000"
      },
      "nonce": 14,
      "data": "0x",
      "r": "0xccc01ed9b1a43b172d2d43429b0b8fa7382227ccfee063dfc289a3c5f1680a58",
      "s": "0x138c7e6f22560514e3e6840c77c8853b9c9e350a3cedddbe950f5fa1e5160e02",
      "v": 27,
      "creates": null,
      "raw": "0xf86e0e86010872ad936d83015f9094886e83d9133f65b9c27a946f699e88e71a888e4c8806f05b59d3b20000801ba0ccc01ed9b1a43b172d2d43429b0b8fa7382227ccfee063dfc289a3c5f1680a58a0138c7e6f22560514e3e6840c77c8853b9c9e350a3cedddbe950f5fa1e5160e02",
      "networkId": 0,
      "chainId": 0
    }
  ]
}