{
  "hash": "0xfd461164ce1f5cbfdc17738ac9be642184e20c78a840e5470a675457713649a8",
  "parentHash": "0x464e5859c6059dc4ab71beba79a31b41dfdfb172473af476c0835d9dfd492044",
  "number": 47686,
  "timestamp": 1438944744,
  "nonce": "0x9450323c4a99fab2",
  "difficulty": 1444551225493,
  "gasLimit": {
    "_hex": "0xe3e2"
  },
  "gasUsed": {
    "_hex": "0x5208"
  },
  "miner": "0x97A2b04809Fd7Dfa5C1d7B25e38Aad46964330F5",
  "extraData": "0x476574682f76312e302e312f6c696e75782f676f312e342e32",
  "transactions": [
    {
      "hash": "0x1d72f53314a17d2a0f0cd6f25adafdf27e1432784a0c4848677bd53cd4998e92",
      "blockHash": "0xfd461164ce1f5cbfdc17738ac9be642184e20c78a840e5470a675457713649a8",
      "blockNumber": 47686,
      "transactionIndex": 0,
      "confirmations": null,
      "from": "0xe6A7a1d47ff21B6321162AEA7C6CB457D5476Bca",
      "gasPrice": {
        "_hex": "0xd1cae303a"
      },
      "gasLimit": {
        "_hex": "0x55f0"
      },
      "to": "0x586c9f00191c01babA71993c5a6d6eE02905816d",
      "value": {
        "_hex": "0x7dbdf7281fb368f0"
      },
      "nonce": 200,
      "data": "0x",
      "r": "0xf87c7bdba392202ab97235484132599d964e0551bf4237d62b421b3ad0b3c30f",
      "s": "0x73432d6c1d0d737983d3e1e2a408fbfc875faa34f2c085d412641506862118bc",
      "v": 27,
      "creates": null,
      "raw": "0xf86d81c8850d1cae303a8255f094586c9f00191c01baba71993c5a6d6ee02905816d887dbdf7281fb368f0801ba0f87c7bdba392202ab97235484132599d964e0551bf4237d62b421b3ad0b3c30fa073432d6c1d0d737983d3e1e2a408fbfc875faa34f2c085d412641506862118bc",
      "networkId": 0,
      "chainId": 0
    }
  ]
}