{
  "hash": "0x76b702c28db2284e8ccb1be3e281b4ead64f8d2fea17e2f663c6717ea3283a3e",
  "parentHash": "0x2c6ac5571e00cf95bb3c9e2c3214e2935d2b04321fe35b55271af47dca98c108",
  "number": 84255,
  "timestamp": 1439547072,
  "nonce": "0xa17e2cd64f91cf03",
  "difficulty": 2532880901429,
  "gasLimit": {
    "_hex": "0x2fefd8"
  },
  "gasUsed": {
    "_hex": "0x1ec30"
  },
  "miner": "0xEF247E639d49461D25F57e9362CadE3120910Ce0",
  "extraData": "0x476574682f76312e302e312f6c696e75782f676f312e342e32",
  "transactions": [
    {
      "hash": "0xa32cd413f29dd7f4fbe6205dfbfac472ae28c770bafdcedcf524430104eb878d",
      "blockHash": "0x76b702c28db2284e8ccb1be3e281b4ead64f8d2fea17e2f663c6717ea3283a3e",
      "blockNumber": 84255,
      "transactionIndex": 0,
      "confirmations": null,
      "from": "0xe6A7a1d47ff21B6321162AEA7C6CB457D5476Bca",
      "gasPrice": {
        "_hex": "0xdd1b572c0"
      },
      "gasLimit": {
        "_hex": "0x55f0"
      },
      "to": "0x52524C3c4B039D2C330eD2D34973906987B21413",
      "value": {
        "_hex": "0x113b3d3c7199a778"
      },
      "nonce": 1424,
      "data": "0x",
      "r": "0xcd6dce257942ea717c1776538805d3b6df11d971a9d263e70e6781bd7e8bec4b",
      "s": "0x6ea50d3c94f731c55971c20c475a5398e127ae13ef5c5dd09247cc43e147f258",
      "v": 28,
      "creates": null,
      "raw": "0xf86e820590850dd1b572c08255f09452524c3c4b039d2c330ed2d34973906987b2141388113b3d3c7199a778801ca0cd6dce257942ea717c1776538805d3b6df11d971a9d263e70e6781bd7e8bec4ba06ea50d3c94f731c55971c20c475a5398e127ae13ef5c5dd09247cc43e147f258",
      "networkId": 0,
      "chainId": 0
    },
    {
      "hash": "0xb2bb04186cd093be0de428c26e6447f75e7a8105bd0c11d906965c8bbce08b31",
      "blockHash": "0x76b702c28db2284e8ccb1be3e281b4ead64f8d2fea17e2f663c6717ea3283a3e",
      "blockNumber": 84255,
      "transactionIndex": 1,
      "confirmations": null,
      "from": "0xe6A7a1d47ff21B6321162AEA7C6CB457D5476Bca",
      "gasPrice": {
        "_hex": "0xdd1b572c0"
      },
      "gasLimit": {
        "_hex": "0x55f0"
      },
      "to": "0x07Ccb8e7Bc2978ec58e7a633c6894f460883a510",
      "value": {
        "_hex": "0x1147860d47dbb900"
      },
      "nonce": 1425,
      "data": "0x",
      "r": "0x2cf3d55c9410d02587a72e482c2deee0399341a0c8c0a4e417f91cd25da8ffbf",
      "s": "0x0fc5da82c5dd998567e5c861d68cc9488fbfeaf9f90125e32003a8d1c78320af",
      "v": 28,
      "creates": null,
      "raw": "0xf86e820591850dd1b572c08255f09407ccb8e7bc2978ec58e7a633c6894f460883a510881147860d47dbb900801ca02cf3d55c9410d02587a72e482c2deee0399341a0c8c0a4e417f91cd25da8ffbfa00fc5da82c5dd998567e5c861d68cc9488fbfeaf9f90125e32003a8d1c78320af",
      "networkId": 0,
      "chainId": 0
    },
    {
      "hash": "0xd3851ae640db8fe3163ef0806e35d9131ae84b4495dee1b491e36ad3cfab447f",
      "blockHash": "0x76b702c28db2284e8ccb1be3e281b4ead64f8d2fea17e2f663c6717ea3283a3e",
      "blockNumber": 84255,
      "transactionIndex": 2,
      "confirmations": null,
      "from": "0xe6A7a1d47ff21B6321162AEA7C6CB457D5476Bca",
      "gasPrice": {
        "_hex": "0xdd1b572c0"
      },
      "gasLimit": {
        "_hex": "0x55f0"
      },
      "to": "0x663555F143e6a4674c0FdF2e73f12fdaf5D51112",
      "value": {
        "_hex": "0x11508cbec2ffa0b8"
      },
      "nonce": 1426,
      "data": "0x",
      "r": "0xdd66beb4c86d59a2ecaf8b2c903eef02476e9210a0f58383845ceeb128f66db2",
      "s": "0x33ba313e3356dfbc0a36303f70bde6686fd120cec091df3f9474606dbe67c044",
      "v": 27,
      "creates": null,
      "raw": "0xf86e820592850dd1b572c08255f094663555f143e6a4674c0fdf2e73f12fdaf5d511128811508cbec2ffa0b8801ba0dd66beb4c86d59a2ecaf8b2c903eef02476e9210a0f58383845ceeb128f66db2a033ba313e3356dfbc0a36303f70bde6686fd120cec091df3f9474606dbe67c044",
      "networkId": 0,
      "chainId": 0
    },
    {
      "hash": "0xf1982269ce015ba9d78515a9ed24361ec22cd692337d9a0bb899a86e57e6eb74",
      "blockHash": "0x76b702c28db2284e8ccb1be3e281b4ead64f8d2fea17e2f663c6717ea3283a3e",
      "blockNumber": 84255,
      "transactionIndex": 3,
      "confirmations": null,
      "from": "0xe6A7a1d47ff21B6321162AEA7C6CB457D5476Bca",
      "gasPrice": {
        "_hex": "0xdd1b572c0"
      },
      "gasLimit": {
        "_hex": "0x55f0"
      },
      "to": "0xcCF7110d1Bd9A74bfd1d7d7d2d9D55607E7B837d",
      "value": {
        "_hex": "0x11922af7e4eafda8"
      },
      "nonce": 1427,
      "data": "0x",
      "r": "0xe235b0a556e6aad8e40fabd02539ce8bae0b60e15f65b6bf1581286bd00f00c1",
      "s": "0x7efb3b7c9d5b6a347b2f6e956ad4f8bae90b01dbf410261172fc539f766311a7",
      "v": 28,
      "creates": null,
      "raw": "0xf86e820593850dd1b572c08255f094ccf7110d1bd9a74bfd1d7d7d2d9d55607e7b837d8811922af7e4eafda8801ca0e235b0a556e6aad8e40fabd02539ce8bae0b60e15f65b6bf1581286bd00f00c1a07efb3b7c9d5b6a347b2f6e956ad4f8bae90b01dbf410261172fc539f766311a7",
      "networkId": 0,
      "chainId": 0
    },
    {
      "hash": "0xc6f4074fb8c5ccc25b3914c74d9400144aef549ba2d16c2a92b0f267e2ea58e1",
      "blockHash": "0x76b702c28db2284e8ccb1be3e281b4ead64f8d2fea17e2f663c6717ea3283a3e",
      "blockNumber": 84255,
      "transactionIndex": 4,
      "confirmations": null,
      "from": "0xe6A7a1d47ff21B6321162AEA7C6CB457D5476Bca",
      "gasPrice": {
        "_hex": "0xdd1b572c0"
      },
      "gasLimit": {
        "_hex": "0x55f0"
      },
      "to": "0x902cA27B08D58442b67bb4Fa988de351468AB59f",
      "value": {
        "_hex": "0x11db9d90a2acd40c"
      },
      "nonce": 1428,
      "data": "0x",
      "r": "0xd576dcd7213a7710b9d8f939db372c0d2e66c4bc150e5ce870d7e9296ba24d2c",
      "s": "0x5efc97cc30c0daea22190f8f73254c4810245fe7afce50c1938b217a3a29cc05",
      "v": 28,
      "creates": null,
      "raw": "0xf86e820594850dd1b572c08255f094902ca27b08d58442b67bb4fa988de351468ab59f8811db9d90a2acd40c801ca0d576dcd7213a7710b9d8f939db372c0d2e66c4bc150e5ce870d7e9296ba24d2ca05efc97cc30c0daea22190f8f73254c4810245fe7afce50c1938b217a3a29cc05",
      "networkId": 0,
      "chainId": 0
    },
    {
      "hash": "0xafff89fc33a78cf7513f3245c5d1d5c9bda1f29adf71fdaf08e42e5d51e7bd44",
      "blockHash": "0x76b702c28db2284e8ccb1be3e281b4ead64f8d2fea17e2f663c6717ea3283a3e",
      "blockNumber": 84255,
      "transactionIndex": 5,
      "confirmations": null,
      "from": "0xe6A7a1d47ff21B6321162AEA7C6CB457D5476Bca",
      "gasPrice": {
        "_hex": "0xdd1b572c0"
      },
      "gasLimit": {
        "_hex": "0x55f0"
      },
      "to": "0x86889b1CeA13d370E827e099e3778b17d488B3Dd",
      "value": {
        "_hex": "0x11ed451e75422fd4"
      },
      "nonce": 1429,
      "data": "0x",
      "r": "0x67e3ca226cacc6da6071b2ad67336665b46f89c5829b0c956f23f1f1b6719e52",
      "s": "0x5a28c6f3f110e8f2b61f3649e8290e8c59cf487845b3c241b05bc82ccccafbbf",
      "v": 28,
      "creates": null,
      "raw": "0xf86e820595850dd1b572c08255f09486889b1cea13d370e827e099e3778b17d488b3dd8811ed451e75422fd4801ca067e3ca226cacc6da6071b2ad67336665b46f89c5829b0c956f23f1f1b6719e52a05a28c6f3f110e8f2b61f3649e8290e8c59cf487845b3c241b05bc82ccccafbbf",
      "networkId": 0,
      "chainId": 0
    }
  ]
}