{
  "hash": "0x61024ab786aff61ac8009aeb5b2b4ad847024c8978acc1ac3c699e681bffac9a",
  "parentHash": "0x44a2402cacc37c06a6b4f90902a0c87699ba54d85bdfb642539f8d294eee4070",
  "number": 52653,
  "timestamp": 1439025195,
  "nonce": "0xac444766b34a7819",
  "difficulty": 1566352339100,
  "gasLimit": {
    "_hex": "0x170558"
  },
  "gasUsed": {
    "_hex": "0xfeb18"
  },
  "miner": "0x9746c7e1ef2bd21FF3997fa467593a89cb852BD0",
  "extraData": "0x476574682f76312e302e312f77696e646f77732f676f312e342e32",
  "transactions": [
    {
      "hash": "0x4152079775160a0e373ace07160a94e7ffac4183ea46bebe8fe5c7694ad6c732",
      "blockHash": "0x61024ab786aff61ac8009aeb5b2b4ad847024c8978acc1ac3c699e681bffac9a",
      "blockNumber": 52653,
      "transactionIndex": 0,
      "confirmations": null,
      "from": "0x594A76F06935388dDE5e234696a0668bC20d2ddC",
      "gasPrice": {
        "_hex": "0xf2af13dd4"
      },
      "gasLimit": {
        "_hex": "0x15f90"
      },
      "to": "0x2910543Af39abA0Cd09dBb2D50200b3E800A63D2",
      "value": {
        "_hex": "0x97c9a01d8877ab8000"
      },
      "nonce": 1,
      "data": "0x454e39504530485638",
      "r": "0x6f358ea1b19e1412f32c0081ecb5dd96022c597d29bee8f22e19f54260ad99e4",
      "s": "0x09d69a0a39e6fc4b173df290648cbbbb4a7c9b00e07a0fbf6cfeb8b1004e6d9b",
      "v": 28,
      "creates": null,
      "raw": "0xf87701850f2af13dd483015f90942910543af39aba0cd09dbb2d50200b3e800a63d28997c9a01d8877ab800089454e395045304856381ca06f358ea1b19e1412f32c0081ecb5dd96022c597d29bee8f22e19f54260ad99e4a009d69a0a39e6fc4b173df290648cbbbb4a7c9b00e07a0fbf6cfeb8b1004e6d9b",
      "networkId": 0,
      "chainId": 0
    },
    {
      "hash": "0xd8e7c59122b911a813f5a3f13d0539a9f3b74c81b227b36779725392bbdd4f5d",
      "blockHash": "0x61024ab786aff61ac8009aeb5b2b4ad847024c8978acc1ac3c699e681bffac9a",
      "blockNumber": 52653,
      "transactionIndex": 1,
      "confirmations": null,
      "from": "0x1B8aa0160cD79f005F88510A714913D70Ad3bE33",
      "gasPrice": {
        "_hex": "0xf10692b2f"
      },
      "gasLimit": {
        "_hex": "0x15f90"
      },
      "to": "0x2910543Af39abA0Cd09dBb2D50200b3E800A63D2",
      "value": {
        "_hex": "0x135360373407a8000"
      },
      "nonce": 8,
      "data": "0x454e42384b33564652",
      "r": "0x9f29be4e45828dc38cb9d1460b24f5be2b0264acd6e5e30da652b6834f5579fa",
      "s": "0x5a48750820a8e7c69f58ae71da382ddb7c5ca512367021be62acb0ce27830d25",
      "v": 27,
      "creates": null,
      "raw": "0xf87708850f10692b2f83015f90942910543af39aba0cd09dbb2d50200b3e800a63d2890135360373407a800089454e42384b335646521ba09f29be4e45828dc38cb9d1460b24f5be2b0264acd6e5e30da652b6834f5579faa05a48750820a8e7c69f58ae71da382ddb7c5ca512367021be62acb0ce27830d25",
      "networkId": 0,
      "chainId": 0
    },
    {
      "hash": "0x62e0d095ad940e1e129d00b9e0f9c4933f95e727299602ae9a0b61e89f5224d8",
      "blockHash": "0x61024ab786aff61ac8009aeb5b2b4ad847024c8978acc1ac3c699e681bffac9a",
      "blockNumber": 52653,
      "transactionIndex": 2,
      "confirmations": null,
      "from": "0x54dAeb3E8a6BBC797E4aD2b0339f134b186e4637",
      "gasPrice": {
        "_hex": "0xe1780dfbb"
      },
      "gasLimit": {
        "_hex": "0x7a120"
      },
      "to": "0xBAA54d6E90c3F4d7Ebec11bD180134C7eD8eBb52",
      "value": {
        "_hex": "0x16345785d8a0000"
      },
      "nonce": 854,
      "data": "0x",
      "r": "0xd5a63a577443f3a61051dfa938dd9e7d92bf993b77cf84ad472efb2de6ce7f35",
      "s": "0x55b399365c8238b55f476c8efeff467c2e7f837690743d17d438602c7b4566aa",
      "v": 28,
      "creates": null,
      "raw": "0xf86f820356850e1780dfbb8307a12094baa54d6e90c3f4d7ebec11bd180134c7ed8ebb5288016345785d8a0000801ca0d5a63a577443f3a61051dfa938dd9e7d92bf993b77cf84ad472efb2de6ce7f35a055b399365c8238b55f476c8efeff467c2e7f837690743d17d438602c7b4566aa",
      "networkId": 0,
      "chainId": 0
    },
    {
      "hash": "0x911e6d8ece4bf07c6fd13f7e04200275cbdbbc66db80a0bffa12a0d8d8a2d83f",
      "blockHash": "0x61024ab786aff61ac8009aeb5b2b4ad847024c8978acc1ac3c699e681bffac9a",
      "blockNumber": 52653,
      "transactionIndex": 3,
      "confirmations": null,
      "from": "0x54dAeb3E8a6BBC797E4aD2b0339f134b186e4637",
      "gasPrice": {
        "_hex": "0xdf4ba21f9"
      },
      "gasLimit": {
        "_hex": "0x7a120"
      },
      "to": "0xBAA54d6E90c3F4d7Ebec11bD180134C7eD8eBb52",
      "value": {
        "_hex": "0x16345785d8a0000"
      },
      "nonce": 855,
      "data": "0x",
      "r": "0x579d3c882cce512a5213b14f2a3735dc0b85ea19744cffd24030e07b8a7d344f",
      "s": "0x24fb910158fa54ce13bedeb9c8751adf4ca6179245d5aecdc353a9f55b2515ed",
      "v": 28,
      "creates": null,
      "raw": "0xf86f820357850df4ba21f98307a12094baa54d6e90c3f4d7ebec11bd180134c7ed8ebb5288016345785d8a0000801ca0579d3c882cce512a5213b14f2a3735dc0b85ea19744cffd24030e07b8a7d344fa024fb910158fa54ce13bedeb9c8751adf4ca6179245d5aecdc353a9f55b2515ed",
      "networkId": 0,
      "chainId": 0
    }
  ]
}