{
  "hash": "0x2acd673130ea3161979f2214140a96a5eac056c34915e9556574bd12eed9d3b4",
  "parentHash": "0x0674e991182e160acb7520631b15c026d0152e1447cd1d299ac86542b6c053d3",
  "number": 94247,
  "timestamp": 1439705050,
  "nonce": "0xcc9fa98f082b35e8",
  "difficulty": 3468061957468,
  "gasLimit": {
    "_hex": "0x2fefd8"
  },
  "gasUsed": {
    "_hex": "0x5208"
  },
  "miner": "0xe6A7a1d47ff21B6321162AEA7C6CB457D5476Bca",
  "extraData": "0x476574682f76312e302e312d38326566323666362f6c696e75782f676f312e34",
  "transactions": [
    {
      "hash": "0xa3354add99017b29a36c5cbe4c7e646f818074d6a33d9819e206c9130e313898",
      "blockHash": "0x2acd673130ea3161979f2214140a96a5eac056c34915e9556574bd12eed9d3b4",
      "blockNumber": 94247,
      "transactionIndex": 0,
      "confirmations": null,
      "from": "0x120A270bbC009644e35F0bB6ab13f95b8199c4ad",
      "gasPrice": {
        "_hex": "0xdb01faaef"
      },
      "gasLimit": {
        "_hex": "0x3d090"
      },
      "to": "0x80E03eAb4185068f85f9eC2a65c31bdE6Ed0A097",
      "value": {
        "_hex": "0x2b5e3af16b1880000"
      },
      "nonce": 577,
      "data": "0x",
      "r": "0xb253a49ff4d0dbad1a7251e4fae26c87675f74e26459f986c61287d9f50233ee",
      "s": "0x1c76e4e574dc93b48d43b04cf13782579cde7500fb331c2bb560ce0356c9d3fe",
      "v": 28,
      "creates": null,
      "raw": "0xf870820241850db01faaef8303d0909480e03eab4185068f85f9ec2a65c31bde6ed0a0978902b5e3af16b1880000801ca0b253a49ff4d0dbad1a7251e4fae26c87675f74e26459f986c61287d9f50233eea01c76e4e574dc93b48d43b04cf13782579cde7500fb331c2bb560ce0356c9d3fe",
      "networkId": 0,
      "chainId": 0
    }
  ]
}