{
  "hash": "0x539331f87deb597d7b1ccc8b369a24bc26ab351d1c9295a8892ec04f4cad2976",
  "parentHash": "0x0ea0c2ed1c17d06e23b47a6b4e1e1183ac29f98b46bd417293628c13b984bb12",
  "number": 72926,
  "timestamp": 1439360495,
  "nonce": "0x96976a7654a894f5",
  "difficulty": 2196060104422,
  "gasLimit": {
    "_hex": "0x2fefd8"
  },
  "gasUsed": {
    "_hex": "0x5208"
  },
  "miner": "0xf8E0CA3Ed80bd541b94BEdCf259e8CF2141A9523",
  "extraData": "0x476574682f76312e302e312f77696e646f77732f676f312e342e32",
  "transactions": [
    {
      "hash": "0x50abdd17792eb8c4d64fe5a05cc5c4eb707e157006c99c173fd43bc5fa564f4b",
      "blockHash": "0x539331f87deb597d7b1ccc8b369a24bc26ab351d1c9295a8892ec04f4cad2976",
      "blockNumber": 72926,
      "transactionIndex": 0,
      "confirmations": null,
      "from": "0xA3AA3C09d07c1DB0822Bc6CbE1154846bD2d4594",
      "gasPrice": {
        "_hex": "0xdc1e4ea9d"
      },
      "gasLimit": {
        "_hex": "0x15f90"
      },
      "to": "0xf2cC0eEAAAeD313542CB262B0B8c3972425143f0",
      "value": {
        "_hex": "0x4"
      },
      "nonce": 2,
      "data": "0x",
      "r": "0xa66828f17a3b86d0f55803f452ecb2f3a836202db5a29e0a128be11d873c492f",
      "s": "0x5f77d13f7481c1fb6c2ac36a021922c68d9306e77a11263215734ad5ea0acce6",
      "v": 27,
      "creates": null,
      "raw": "0xf86502850dc1e4ea9d83015f9094f2cc0eeaaaed313542cb262b0b8c3972425143f004801ba0a66828f17a3b86d0f55803f452ecb2f3a836202db5a29e0a128be11d873c492fa05f77d13f7481c1fb6c2ac36a021922c68d9306e77a11263215734ad5ea0acce6",
      "networkId": 0,
      "chainId": 0
    }
  ]
}