{
  "hash": "0xf79408096fd130c452d5fb881754cd405ec93a91682b2237724818f8d7a79c4b",
  "parentHash": "0x449686d001d55940b4c1c46bea5256ff26f3cf945248e4eb35c2da125c5172d8",
  "number": 107705,
  "timestamp": 1439927387,
  "nonce": "0x144cba813dc985f8",
  "difficulty": 4372741077900,
  "gasLimit": {
    "_hex": "0x2fefd8"
  },
  "gasUsed": {
    "_hex": "0x5208"
  },
  "miner": "0x458F183347F45a4001807728A89F31E9Da9D4A58",
  "extraData": "0x476574682f76312e302e312d38326566323666362f6c696e75782f676f312e34",
  "transactions": [
    {
      "hash": "0x0814f8ed919ee3df151b52820036f5385bfc3b28afcc98cc5294274081599704",
      "blockHash": "0xf79408096fd130c452d5fb881754cd405ec93a91682b2237724818f8d7a79c4b",
      "blockNumber": 107705,
      "transactionIndex": 0,
      "confirmations": null,
      "from": "0x223eA75ACE9d7F53BC6c131191Aff34B44bd57aC",
      "gasPrice": {
        "_hex": "0xcfc882193"
      },
      "gasLimit": {
        "_hex": "0x5208"
      },
      "to": "0x7339BF89A60F8a29d0Ed436F3198774F8e191f37",
      "value": {
        "_hex": "0x45aa9f6724760000"
      },
      "nonce": 6,
      "data": "0x",
      "r": "0xbcf4d6e0c6ea317e55a67952df2f9cbf7077def236419e858a07618a0762df21",
      "s": "0x54c697ed071288e6b798fa75a3170462db3fd40f9e9c78ad840a589733df32f8",
      "v": 28,
      "creates": null,
      "raw": "0xf86c06850cfc882193825208947339bf89a60f8a29d0ed436f3198774f8e191f378845aa9f6724760000801ca0bcf4d6e0c6ea317e55a67952df2f9cbf7077def236419e858a07618a0762df21a054c697ed071288e6b798fa75a3170462db3fd40f9e9c78ad840a589733df32f8",
      "networkId": 0,
      "chainId": 0
    }
  ]
}