{
  "hash": "0x519fbace3e76ee0f2f866f89ffdbb14df34d3cb3a49223d48054ff070b39a657",
  "parentHash": "0xe3ad3e24ada25450cfd8cbfbb5c28859271f46159db29ed4480ebeb33903cfce",
  "number": 65096,
  "timestamp": 1439231246,
  "nonce": "0x4488fec8418bb17c",
  "difficulty": 1928493092244,
  "gasLimit": {
    "_hex": "0x2fefd8"
  },
  "gasUsed": {
    "_hex": "0xa410"
  },
  "miner": "0x65B2003cE03eDcF961C6b724862D6a7f942B8971",
  "extraData": "0xdd809b302e392e34302b2b373237362d5257696e646f2f6d73762f4a4954",
  "transactions": [
    {
      "hash": "0x42ccb2cb3f0863c64830f32d423d439b3649b1c6fd975aa62ae65f603ca9985b",
      "blockHash": "0x519fbace3e76ee0f2f866f89ffdbb14df34d3cb3a49223d48054ff070b39a657",
      "blockNumber": 65096,
      "transactionIndex": 0,
      "confirmations": null,
      "from": "0x82a45cEc0FfE96AD5c33E63570ACC86E1fd1f81f",
      "gasPrice": {
        "_hex": "0xba43b7400"
      },
      "gasLimit": {
        "_hex": "0x5208"
      },
      "to": "0x22FD23d32e711bE429C784a170798718BbDD46C4",
      "value": {
        "_hex": "0x48d878fe762d000"
      },
      "nonce": 1,
      "data": "0x",
      "r": "0xf23b729c25cd8e4030fe4bf25fd1252a4d7bb34bc501cd406e315759a08b916b",
      "s": "0x10be78dc7ad03a24c7d161182c907e96b4795fa785232aa5fa89393b40665115",
      "v": 27,
      "creates": null,
      "raw": "0xf86c01850ba43b74008252089422fd23d32e711be429c784a170798718bbdd46c488048d878fe762d000801ba0f23b729c25cd8e4030fe4bf25fd1252a4d7bb34bc501cd406e315759a08b916ba010be78dc7ad03a24c7d161182c907e96b4795fa785232aa5fa89393b40665115",
      "networkId": 0,
      "chainId": 0
    },
    {
      "hash": "0x9f321c59a8556eddd8ec2631dbc50b3889a988afdb40647a5e16b829f5371deb",
      "blockHash": "0x519fbace3e76ee0f2f866f89ffdbb14df34d3cb3a49223d48054ff070b39a657",
      "blockNumber": 65096,
      "transactionIndex": 1,
      "confirmations": null,
      "from": "0x0379Cbbe1104170F2e845b2f6b0A853E259399f6",
      "gasPrice": {
        "_hex": "0xba43b7400"
      },
      "gasLimit": {
        "_hex": "0x5208"
      },
      "to": "0x89419017C71A31cAD180366e78ec5d206794cDBD",
      "value": {
        "_hex": "0x430fadc81211000"
      },
      "nonce": 1,
      "data": "0x",
      "r": "0xbe26b6163c216eb0bdef75217f7623fd5b0a2aec828ac179fb615b0dc4d7fb8a",
      "s": "0x447d71fc085b5620994edff2ec1a14df6a51768907ba87b9e8b913772a04b3b9",
      "v": 28,
      "creates": null,
      "raw": "0xf86c01850ba43b74008252089489419017c71a31cad180366e78ec5d206794cdbd880430fadc81211000801ca0be26b6163c216eb0bdef75217f7623fd5b0a2aec828ac179fb615b0dc4d7fb8aa0447d71fc085b5620994edff2ec1a14df6a51768907ba87b9e8b913772a04b3b9",
      "networkId": 0,
      "chainId": 0
    }
  ]
}