{
  "hash": "0x1c4666eb8bc8419fcc53bf99ffe5e68d3583bb31dfe9026ca915240702bbc391",
  "parentHash": "0xdf67406b80e78060d4e4a4b71c62d2453a99619d4b06f1443deac219e68aa3c5",
  "number": 59694,
  "timestamp": 1439142182,
  "nonce": "0xbb05d96474fa6292",
  "difficulty": 1711321173712,
  "gasLimit": {
    "_hex": "0x2fefd8"
  },
  "gasUsed": {
    "_hex": "0x5208"
  },
  "miner": "0xa50ec0D39fa913E62f1Bae7074E6F36caA71855b",
  "extraData": "0x",
  "transactions": [
    {
      "hash": "0xc1b1ef07b28b8f7620d8c406918ac8821c7b8533312668f7280689dbc29e3f98",
      "blockHash": "0x1c4666eb8bc8419fcc53bf99ffe5e68d3583bb31dfe9026ca915240702bbc391",
      "blockNumber": 59694,
      "transactionIndex": 0,
      "confirmations": null,
      "from": "0xB6AC12CefF0375Da80503AcCa54bf3061Fa917a8",
      "gasPrice": {
        "_hex": "0xceb7b7593"
      },
      "gasLimit": {
        "_hex": "0x15f90"
      },
      "to": "0x5fF827e73C5B866c300b824fe12719a3DD350513",
      "value": {
        "_hex": "0x4563918244f40000"
      },
      "nonce": 5,
      "data": "0x",
      "r": "0x377650130f3ec78a30f1d708593f7e378cbee1870c749cd98251481eb7ce41ca",
      "s": "0x145bd7fa96a0e1f172070e7ac2d76afedf5055c27efcc7026848e864283a0f15",
      "v": 27,
      "creates": null,
      "raw": "0xf86d05850ceb7b759383015f90945ff827e73c5b866c300b824fe12719a3dd350513884563918244f40000801ba0377650130f3ec78a30f1d708593f7e378cbee1870c749cd98251481eb7ce41caa0145bd7fa96a0e1f172070e7ac2d76afedf5055c27efcc7026848e864283a0f15",
      "networkId": 0,
      "chainId": 0
    }
  ]
}