{
  "hash": "0x3de8b6070ddd4aeda329cd4be0b088da5e9e47d8c4a965169253e69bafb25311",
  "parentHash": "0x297bc970ea5c3b784fc9c39f573530a8d61f08cd67d5c91dd24802569766775e",
  "number": 121896,
  "timestamp": 1440184565,
  "nonce": "0x3e16ca97431385a9",
  "difficulty": 4471053867300,
  "gasLimit": {
    "_hex": "0x2fefd8"
  },
  "gasUsed": {
    "_hex": "0x3d860"
  },
  "miner": "0x790b8a3cE86E707ED0eD32bF89B3269692a23CC1",
  "extraData": "0xd783010002844765746887676f312e342e32856c696e7578",
  "transactions": [
    {
      "hash": "0x45b52769cf7659b89317fa52066cf111b2226afaaa5fba1081673389681fe9b9",
      "blockHash": "0x3de8b6070ddd4aeda329cd4be0b088da5e9e47d8c4a965169253e69bafb25311",
      "blockNumber": 121896,
      "transactionIndex": 0,
      "confirmations": null,
      "from": "0x211D45933Ef88c3D7aD0120942CF50ab506e618F",
      "gasPrice": {
        "_hex": "0xdaf726e44"
      },
      "gasLimit": {
        "_hex": "0x5208"
      },
      "to": "0x32Be343B94f860124dC4fEe278FDCBD38C102D88",
      "value": {
        "_hex": "0x3aed34caf644fc00"
      },
      "nonce": 16,
      "data": "0x",
      "r": "0x510695158e5a5aa708151d0e6fc9fc100ae95ff9d74db088dee347aabf91c9b7",
      "s": "0x1206ebc9dc8e6a5a8203181e6a08d625264a04d8327d6f5939070eb2bf0ee03c",
      "v": 28,
      "creates": null,
      "raw": "0xf86c10850daf726e448252089432be343b94f860124dc4fee278fdcbd38c102d88883aed34caf644fc00801ca0510695158e5a5aa708151d0e6fc9fc100ae95ff9d74db088dee347aabf91c9b7a01206ebc9dc8e6a5a8203181e6a08d625264a04d8327d6f5939070eb2bf0ee03c",
      "networkId": 0,
      "chainId": 0
    },
    {
      "hash": "0xae1c12cfd21f3f138c9ece8e7a2b0b3f5e85b27bb8e527ba05bf3c2d46c58f0b",
      "blockHash": "0x3de8b6070ddd4aeda329cd4be0b088da5e9e47d8c4a965169253e69bafb25311",
      "blockNumber": 121896,
      "transactionIndex": 1,
      "confirmations": null,
      "from": "0x1d06b86EBBfD6bA717B6d14c0136dE1D88aa5989",
      "gasPrice": {
        "_hex": "0xdaf726e44"
      },
      "gasLimit": {
        "_hex": "0x5208"
      },
      "to": "0x32Be343B94f860124dC4fEe278FDCBD38C102D88",
      "value": {
        "_hex": "0x193c0479a19fdc00"
      },
      "nonce": 9,
      "data": "0x",
      "r": "0x61a9da717bf10514a2ef561dcb938e1ebc5bf063e4f807da05d6d5de7d86afa8",
      "s": "0x7910db2d05483342b060227a1918a9e8c72f35f568b695065c1c48d657854239",
      "v": 27,
      "creates": null,
      "raw": "0xf86c09850daf726e448252089432be343b94f860124dc4fee278fdcbd38c102d8888193c0479a19fdc00801ba061a9da717bf10514a2ef561dcb938e1ebc5bf063e4f807da05d6d5de7d86afa8a07910db2d05483342b060227a1918a9e8c72f35f568b695065c1c48d657854239",
      "networkId": 0,
      "chainId": 0
    },
    {
      "hash": "0xf3125873cb1e62192a84ddb85ad2207de305b20c9110011702f953174cadf500",
      "blockHash": "0x3de8b6070ddd4aeda329cd4be0b088da5e9e47d8c4a965169253e69bafb25311",
      "blockNumber": 121896,
      "transactionIndex": 2,
      "confirmations": null,
      "from": "0x68d3578bFBeEFB9C1e31cE355A29ad3a107F88C5",
      "gasPrice": {
        "_hex": "0xdaf726e44"
      },
      "gasLimit": {
        "_hex": "0x5208"
      },
      "to": "0x32Be343B94f860124dC4fEe278FDCBD38C102D88",
      "value": {
        "_hex": "0x196c347f597ffc00"
      },
      "nonce": 12,
      "data": "0x",
      "r": "0xfa39cbf34fc6010e397ccedff1079f8d9365a3dadbc2f294bd1c7f2be46d787f",
      "s": "0x2158829670e27800a10b6f39c83543ab6f90c78316645495d45256c3cfa500eb",
      "v": 28,
      "creates": null,
      "raw": "0xf86c0c850daf726e448252089432be343b94f860124dc4fee278fdcbd38c102d8888196c347f597ffc00801ca0fa39cbf34fc6010e397ccedff1079f8d9365a3dadbc2f294bd1c7f2be46d787fa02158829670e27800a10b6f39c83543ab6f90c78316645495d45256c3cfa500eb",
      "networkId": 0,
      "chainId": 0
    },
    {
      "hash": "0x8d89d53fc936268080c72125a655ebdd7d2c7b1ca3152d464432fc8c4f7761f7",
      "blockHash": "0x3de8b6070ddd4aeda329cd4be0b088da5e9e47d8c4a965169253e69bafb25311",
      "blockNumber": 121896,
      "transactionIndex": 3,
      "confirmations": null,
      "from": "0xe535C1c29F0091324F184de7a5be5520D1b0b008",
      "gasPrice": {
        "_hex": "0xdaf726e44"
      },
      "gasLimit": {
        "_hex": "0x5208"
      },
      "to": "0x32Be343B94f860124dC4fEe278FDCBD38C102D88",
      "value": {
        "_hex": "0x30d1b991d8194800"
      },
      "nonce": 11,
      "data": "0x",
      "r": "0xe663354c64231b8eecf9718abc1ea4459cdbf53d7e73be6316199733ab92974a",
      "s": "0x39dc04bac3eca7dbc8ac1a1a3b3eb012f9481343c8f173763d65e6547d9f8d0e",
      "v": 28,
      "creates": null,
      "raw": "0xf86c0b850daf726e448252089432be343b94f860124dc4fee278fdcbd38c102d888830d1b991d8194800801ca0e663354c64231b8eecf9718abc1ea4459cdbf53d7e73be6316199733ab92974aa039dc04bac3eca7dbc8ac1a1a3b3eb012f9481343c8f173763d65e6547d9f8d0e",
      "networkId": 0,
      "chainId": 0
    },
    {
      "hash": "0x26cfa6074396a1f0bc82c8b357fb7ae90547e35c8898efa9183125d70aa6d14a",
      "blockHash": "0x3de8b6070ddd4aeda329cd4be0b088da5e9e47d8c4a965169253e69bafb25311",
      "blockNumber": 121896,
      "transactionIndex": 4,
      "confirmations": null,
      "from": "0xD99b25c518320820D3C5ae9f47378DA32dED5f00",
      "gasPrice": {
        "_hex": "0xdaf726e44"
      },
      "gasLimit": {
        "_hex": "0x5208"
      },
      "to": "0x32Be343B94f860124dC4fEe278FDCBD38C102D88",
      "value": {
        "_hex": "0x75a47c02c7ae8c00"
      },
      "nonce": 13,
      "data": "0x",
      "r": "0x296e8677f3c0cfcc30b5715be536511480b2a6b3de6437ab1b5fb652e1cd15db",
      "s": "0x0eb3847d823a9917946c866a1d1fef6e6f6ac01ca420fefb09044a32a73760e6",
      "v": 28,
      "creates": null,
      "raw": "0xf86c0d850daf726e448252089432be343b94f860124dc4fee278fdcbd38c102d888875a47c02c7ae8c00801ca0296e8677f3c0cfcc30b5715be536511480b2a6b3de6437ab1b5fb652e1cd15dba00eb3847d823a9917946c866a1d1fef6e6f6ac01ca420fefb09044a32a73760e6",
      "networkId": 0,
      "chainId": 0
    },
    {
      "hash": "0x83391ad32a8e267dd84d4a698ce52de2db7e82199ed28d9d9101f93c69140e83",
      "blockHash": "0x3de8b6070ddd4aeda329cd4be0b088da5e9e47d8c4a965169253e69bafb25311",
      "blockNumber": 121896,
      "transactionIndex": 5,
      "confirmations": null,
      "from": "0x0f36D8B9254f1B059d0B4c4FeEceB82EE24a6180",
      "gasPrice": {
        "_hex": "0xdaf726e44"
      },
      "gasLimit": {
        "_hex": "0x5208"
      },
      "to": "0x32Be343B94f860124dC4fEe278FDCBD38C102D88",
      "value": {
        "_hex": "0x1d87e762afe9e000"
      },
      "nonce": 8,
      "data": "0x",
      "r": "0xf978329920990bd89b1145b73cd35c82b3e83eaf80446b97cdb0a630a8b3fe2e",
      "s": "0x1245bbd9f611af4bc60dba0a9fd6f3be6ce73d518f13f2b4549b90149eda143c",
      "v": 27,
      "creates": null,
      "raw": "0xf86c08850daf726e448252089432be343b94f860124dc4fee278fdcbd38c102d88881d87e762afe9e000801ba0f978329920990bd89b1145b73cd35c82b3e83eaf80446b97cdb0a630a8b3fe2ea01245bbd9f611af4bc60dba0a9fd6f3be6ce73d518f13f2b4549b90149eda143c",
      "networkId": 0,
      "chainId": 0
    },
    {
      "hash": "0xff5a660053dfb60550e4220c4d35ed0706ec523ec3084dba8234a8d8b283cbe7",
      "blockHash": "0x3de8b6070ddd4aeda329cd4be0b088da5e9e47d8c4a965169253e69bafb25311",
      "blockNumber": 121896,
      "transactionIndex": 6,
      "confirmations": null,
      "from": "0x629e35e0A481d821293F354E0dD27E43a354D061",
      "gasPrice": {
        "_hex": "0xdaf726e44"
      },
      "gasLimit": {
        "_hex": "0x5208"
      },
      "to": "0x32Be343B94f860124dC4fEe278FDCBD38C102D88",
      "value": {
        "_hex": "0x3955e50ffc274400"
      },
      "nonce": 12,
      "data": "0x",
      "r": "0x9c9fe63e832383f465b716633ab8d667ac31afc3979530742a941f6c68158710",
      "s": "0x410b1ba0af2a6b9280e8c6670c2e873a8b1e136216aa87b21e3a71f1cc55d0d1",
      "v": 27,
      "creates": null,
      "raw": "0xf86c0c850daf726e448252089432be343b94f860124dc4fee278fdcbd38c102d88883955e50ffc274400801ba09c9fe63e832383f465b716633ab8d667ac31afc3979530742a941f6c68158710a0410b1ba0af2a6b9280e8c6670c2e873a8b1e136216aa87b21e3a71f1cc55d0d1",
      "networkId": 0,
      "chainId": 0
    },
    {
      "hash": "0xd4ee1e98eea24e090adf0b44ff65822ba1bf2f9e30e73d313936e19a82c2110a",
      "blockHash": "0x3de8b6070ddd4aeda329cd4be0b088da5e9e47d8c4a965169253e69bafb25311",
      "blockNumber": 121896,
      "transactionIndex": 7,
      "confirmations": null,
      "from": "0xcD690730A45cdebeF24F2a3db2de181bFBA5CBea",
      "gasPrice": {
        "_hex": "0xdaf726e44"
      },
      "gasLimit": {
        "_hex": "0x5208"
      },
      "to": "0x32Be343B94f860124dC4fEe278FDCBD38C102D88",
      "value": {
        "_hex": "0x8f5862e968d62800"
      },
      "nonce": 14,
      "data": "0x",
      "r": "0x216759c4d82d7a27fe0b1850ddd88a3a93c1e295f03c42a125c287d6c8c042b8",
      "s": "0x06296b54de01a6b6575ce6bacacee702874989d8e4770126f4bf761bd910c1e0",
      "v": 27,
      "creates": null,
      "raw": "0xf86c0e850daf726e448252089432be343b94f860124dc4fee278fdcbd38c102d88888f5862e968d62800801ba0216759c4d82d7a27fe0b1850ddd88a3a93c1e295f03c42a125c287d6c8c042b8a006296b54de01a6b6575ce6bacacee702874989d8e4770126f4bf761bd910c1e0",
      "networkId": 0,
      "chainId": 0
    },
    {
      "hash": "0x39491e6d43f7ff225a08aa301146e998f6b13e2e4833ca6ad4b26aaba492db49",
      "blockHash": "0x3de8b6070ddd4aeda329cd4be0b088da5e9e47d8c4a965169253e69bafb25311",
      "blockNumber": 121896,
      "transactionIndex": 8,
      "confirmations": null,
      "from": "0x468569500925D53e06Dd0993014aD166fD7Dd381",
      "gasPrice": {
        "_hex": "0xdaf726e44"
      },
      "gasLimit": {
        "_hex": "0x5208"
      },
      "to": "0x32Be343B94f860124dC4fEe278FDCBD38C102D88",
      "value": {
        "_hex": "0x1b3cd023d86abc00"
      },
      "nonce": 8,
      "data": "0x",
      "r": "0x75f3bcc1b90aa3a4fffbff47026b2423373545e4d0565e59229fca1d4a667634",
      "s": "0x3a11d295e0b1239750535695278c5f6d49c82e6e4c9bf88affb1836716e0e982",
      "v": 28,
      "creates": null,
      "raw": "0xf86c08850daf726e448252089432be343b94f860124dc4fee278fdcbd38c102d88881b3cd023d86abc00801ca075f3bcc1b90aa3a4fffbff47026b2423373545e4d0565e59229fca1d4a667634a03a11d295e0b1239750535695278c5f6d49c82e6e4c9bf88affb1836716e0e982",
      "networkId": 0,
      "chainId": 0
    },
    {
      "hash": "0xec914f6dbd78aeec8818f759f64016aa05620eddc6440d5292f1f52877ff1428",
      "blockHash": "0x3de8b6070ddd4aeda329cd4be0b088da5e9e47d8c4a965169253e69bafb25311",
      "blockNumber": 121896,
      "transactionIndex": 9,
      "confirmations": null,
      "from": "0x64fd89BDC1a51083fa01B387A4F8d02899321850",
      "gasPrice": {
        "_hex": "0xdaf726e44"
      },
      "gasLimit": {
        "_hex": "0x5208"
      },
      "to": "0x32Be343B94f860124dC4fEe278FDCBD38C102D88",
      "value": {
        "_hex": "0x1ae07eaf08b88400"
      },
      "nonce": 6,
      "data": "0x",
      "r": "0xdf6bc024f2d01d78785f3ce3d472de7c275c8d67f4dcdd4131d3ed35a6e08a80",
      "s": "0x218ac97a052d413a19254f6c8158e6cd188682b358bf8a3acf1cc0438aa52359",
      "v": 27,
      "creates": null,
      "raw": "0xf86c06850daf726e448252089432be343b94f860124dc4fee278fdcbd38c102d88881ae07eaf08b88400801ba0df6bc024f2d01d78785f3ce3d472de7c275c8d67f4dcdd4131d3ed35a6e08a80a0218ac97a052d413a19254f6c8158e6cd188682b358bf8a3acf1cc0438aa52359",
      "networkId": 0,
      "chainId": 0
    },
    {
      "hash": "0xf3e4b77058979a95ba5d036bfc1b1962c548da51173727ae8e4fd111f383cd0b",
      "blockHash": "0x3de8b6070ddd4aeda329cd4be0b088da5e9e47d8c4a965169253e69bafb25311",
      "blockNumber": 121896,
      "transactionIndex": 10,
      "confirmations": null,
      "from": "0x022A006FcC619ebf387F413eF06932bAbd47AE0E",
      "gasPrice": {
        "_hex": "0xdaf726e44"
      },
      "gasLimit": {
        "_hex": "0x5208"
      },
      "to": "0x32Be343B94f860124dC4fEe278FDCBD38C102D88",
      "value": {
        "_hex": "0x949ad196e25fc000"
      },
      "nonce": 14,
      "data": "0x",
      "r": "0x1a79cdf8e00088776967ff0cd809b3efc6ddd02c49709d426e95d88eca57b99c",
      "s": "0x44068109cace7ce238d9d1873bbc058c6c15bbef401c1ac6feb3d58936d41f7e",
      "v": 28,
      "creates": null,
      "raw": "0xf86c0e850daf726e448252089432be343b94f860124dc4fee278fdcbd38c102d8888949ad196e25fc000801ca01a79cdf8e00088776967ff0cd809b3efc6ddd02c49709d426e95d88eca57b99ca044068109cace7ce238d9d1873bbc058c6c15bbef401c1ac6feb3d58936d41f7e",
      "networkId": 0,
      "chainId": 0
    },
    {
      "hash": "0xe49a427ae124f98ddf1f0eb608e6d071d9e50bc1d9dda7b4ef032f39461bde83",
      "blockHash": "0x3de8b6070ddd4aeda329cd4be0b088da5e9e47d8c4a965169253e69bafb25311",
      "blockNumber": 121896,
      "transactionIndex": 11,
      "confirmations": null,
      "from": "0xe6A7a1d47ff21B6321162AEA7C6CB457D5476Bca",
      "gasPrice": {
        "_hex": "0xba43b7400"
      },
      "gasLimit": {
        "_hex": "0x55f0"
      },
      "to": "0x4A29dF8a7967b36664f256F18dAcf2e58E9f1E7E",
      "value": {
        "_hex": "0x5cfdc1672286dc330"
      },
      "nonce": 6760,
      "data": "0x",
      "r": "0xca7164b30f126e28e50a3ddb451d92b7d995e6fc2eea5631ab0d7087fcfd1dee",
      "s": "0x329b1619590f526b8d4ebf22efbe445c7adb29689bc177ad4ee3b424ac53e789",
      "v": 28,
      "creates": null,
      "raw": "0xf86f821a68850ba43b74008255f0944a29df8a7967b36664f256f18dacf2e58e9f1e7e8905cfdc1672286dc330801ca0ca7164b30f126e28e50a3ddb451d92b7d995e6fc2eea5631ab0d7087fcfd1deea0329b1619590f526b8d4ebf22efbe445c7adb29689bc177ad4ee3b424ac53e789",
      "networkId": 0,
      "chainId": 0
    }
  ]
}