{
  "hash": "0x5dfd8bc09e99d69fa1b714498d5ea2b485276284b8b2cc2d0e5822d74db840e4",
  "parentHash": "0x94051bb57fb2ecd6f38938f463583047f199fd9b44949107f5ad0e73d9efc47d",
  "number": 103618,
  "timestamp": 1439856242,
  "nonce": "0x18deeaa6093fcd3b",
  "difficulty": 4197014168857,
  "gasLimit": {
    "_hex": "0x2fefd8"
  },
  "gasUsed": {
    "_hex": "0xa410"
  },
  "miner": "0x580992B51e3925e23280EfB93d3047C82f17E038",
  "extraData": "0x476574682f76312e302e312f6c696e75782f676f312e342e32",
  "transactions": [
    {
      "hash": "0x5a46c75bf13f5a6e0bc1a4f98aac4463b1179085a370334e969081246f62b31b",
      "blockHash": "0x5dfd8bc09e99d69fa1b714498d5ea2b485276284b8b2cc2d0e5822d74db840e4",
      "blockNumber": 103618,
      "transactionIndex": 0,
      "confirmations": null,
      "from": "0x32Be343B94f860124dC4fEe278FDCBD38C102D88",
      "gasPrice": {
        "_hex": "0xdd099a024"
      },
      "gasLimit": {
        "_hex": "0x5208"
      },
      "to": "0x120A270bbC009644e35F0bB6ab13f95b8199c4ad",
      "value": {
        "_hex": "0x10f0cf064dd59200000"
      },
      "nonce": 1128,
      "data": "0x",
      "r": "0x87697ee93d68954a3a5814a09ecec40f573960dffa02887cb2fc5850b05d64b2",
      "s": "0x75387468868c8c82262b8d3771985d45ee37e5ee518d919f733e9f3b08d566cd",
      "v": 28,
      "creates": null,
      "raw": "0xf870820468850dd099a02482520894120a270bbc009644e35f0bb6ab13f95b8199c4ad8a010f0cf064dd59200000801ca087697ee93d68954a3a5814a09ecec40f573960dffa02887cb2fc5850b05d64b2a075387468868c8c82262b8d3771985d45ee37e5ee518d919f733e9f3b08d566cd",
      "networkId": 0,
      "chainId": 0
    },
    {
      "hash": "0x2b36be959c73e5dffeeb9a9fd30b0e95ee4a067a6a0cd79a2ccdcebccec28815",
      "blockHash": "0x5dfd8bc09e99d69fa1b714498d5ea2b485276284b8b2cc2d0e5822d74db840e4",
      "blockNumber": 103618,
      "transactionIndex": 1,
      "confirmations": null,
      "from": "0xcf00A85f3826941e7A25BFcF9Aac575d40410852",
      "gasPrice": {
        "_hex": "0xcb5bea614"
      },
      "gasLimit": {
        "_hex": "0x15f90"
      },
      "to": "0xD9666150A9dA92d9108198a4072970805a8B3428",
      "value": {
        "_hex": "0x4563918244f40000"
      },
      "nonce": 50,
      "data": "0x",
      "r": "0x27944d0c7a05a938a07388f866a05887cc2ce9398fc0b0f049ec1a8ae686d88f",
      "s": "0x6b2be61e390e5f073c71099519927ff520e25ed610592e0418f00cc268f6caa7",
      "v": 27,
      "creates": null,
      "raw": "0xf86d32850cb5bea61483015f9094d9666150a9da92d9108198a4072970805a8b3428884563918244f40000801ba027944d0c7a05a938a07388f866a05887cc2ce9398fc0b0f049ec1a8ae686d88fa06b2be61e390e5f073c71099519927ff520e25ed610592e0418f00cc268f6caa7",
      "networkId": 0,
      "chainId": 0
    }
  ]
}