{
  "hash": "0x908d75c1165c1ca9d575a19d6730d38e0d1ecf67ce317f1cd5c5a016e710a627",
  "parentHash": "0x878a8f2116c026b21758317556867f9bb13c23d8cfc380843c1771b3fc650efd",
  "number": 88914,
  "timestamp": 1439615398,
  "nonce": "0x3b4bda582f5a97ed",
  "difficulty": 3255242646441,
  "gasLimit": {
    "_hex": "0x2fefd8"
  },
  "gasUsed": {
    "_hex": "0x546c"
  },
  "miner": "0xe6A7a1d47ff21B6321162AEA7C6CB457D5476Bca",
  "extraData": "0x476574682f76312e302e312d38326566323666362f6c696e75782f676f312e34",
  "transactions": [
    {
      "hash": "0xdbdf224d0eca0f06e0fb2df15346ceccd2e5116d6edc9ca847a9048c2b6d4448",
      "blockHash": "0x908d75c1165c1ca9d575a19d6730d38e0d1ecf67ce317f1cd5c5a016e710a627",
      "blockNumber": 88914,
      "transactionIndex": 0,
      "confirmations": null,
      "from": "0x1c99fe9BB6C6D1066D912099547fd1f4809eACD9",
      "gasPrice": {
        "_hex": "0x9184e72a000"
      },
      "gasLimit": {
        "_hex": "0x55f0"
      },
      "to": "0xB0cD03bb231E2A3CaC6DB4f828440A6C4451e69D",
      "value": {
        "_hex": "0x2288269d0783d40000"
      },
      "nonce": 3,
      "data": "0x454e334e5158585738",
      "r": "0xc8738f4613070e3c029b8ac17f9e95f20094ea83209464cdb35dffaa60033b24",
      "s": "0x466a2823f192a23315afd05f0f11575966dd0f3640522b591afe7d880632ca51",
      "v": 27,
      "creates": null,
      "raw": "0xf877038609184e72a0008255f094b0cd03bb231e2a3cac6db4f828440a6c4451e69d892288269d0783d4000089454e334e51585857381ba0c8738f4613070e3c029b8ac17f9e95f20094ea83209464cdb35dffaa60033b24a0466a2823f192a23315afd05f0f11575966dd0f3640522b591afe7d880632ca51",
      "networkId": 0,
      "chainId": 0
    }
  ]
}