{
  "hash": "0x1723061426308b6a2db9926c8d5a7337e6a373d28864e3ec71bba9772396d318",
  "parentHash": "0xd5bc509c850290ad5b441105e715b09c93bbb0024214c8e3351a3b23642899c7",
  "number": 74618,
  "timestamp": 1439389348,
  "nonce": "0xe2c357ee496a0b7a",
  "difficulty": 2199909704781,
  "gasLimit": {
    "_hex": "0x2fefd8"
  },
  "gasUsed": {
    "_hex": "0x5208"
  },
  "miner": "0x52Dc504a422f0E2A9e7632A34a50f1a82F8224c7",
  "extraData": "0x476574682f76312e302e312f6c696e75782f676f312e342e32",
  "transactions": [
    {
      "hash": "0x1ed64732b93be77c9b8886e3c1004b287555eb98292dfb2a179d7c30d836440a",
      "blockHash": "0x1723061426308b6a2db9926c8d5a7337e6a373d28864e3ec71bba9772396d318",
      "blockNumber": 74618,
      "transactionIndex": 0,
      "confirmations": null,
      "from": "0x6E8A26689f7A2FdEfd009CBaaA5310253450DABa",
      "gasPrice": {
        "_hex": "0xda1237456"
      },
      "gasLimit": {
        "_hex": "0x15f90"
      },
      "to": "0xd6986162E8B905e6a771C3BCD1b2baa2B0bb386F",
      "value": {
        "_hex": "0xde0b6b3a7640000"
      },
      "nonce": 7,
      "data": "0x",
      "r": "0x336422beef6897ad2d4a32df2e44675d55bb2df37d7689c3115cce670a61502e",
      "s": "0x26e6bd69bc710e2e61a96cc2d2759ce813ac8cf51bfb5d94e241817c5b6379f5",
      "v": 28,
      "creates": null,
      "raw": "0xf86d07850da123745683015f9094d6986162e8b905e6a771c3bcd1b2baa2b0bb386f880de0b6b3a7640000801ca0336422beef6897ad2d4a32df2e44675d55bb2df37d7689c3115cce670a61502ea026e6bd69bc710e2e61a96cc2d2759ce813ac8cf51bfb5d94e241817c5b6379f5",
      "networkId": 0,
      "chainId": 0
    }
  ]
}