{
  "hash": "0xd12a3b2bb0d29671e53f92a6dcc6060c8439cb302b165a0a5c8fefced70af817",
  "parentHash": "0xc3c3b62ab27d008da0bcbec0aa8df2428cc3c9c3151513361cfeae6cd35c02ac",
  "number": 49344,
  "timestamp": 1438972165,
  "nonce": "0x5f6ad4382bd10814",
  "difficulty": 1475630609660,
  "gasLimit": {
    "_hex": "0x2dc6b"
  },
  "gasUsed": {
    "_hex": "0x5208"
  },
  "miner": "0xf927a40C8B7F6E07c5af7FA2155B4864a4112B13",
  "extraData": "0x476574682f76312e302e312f6c696e75782f676f312e342e32",
  "transactions": [
    {
      "hash": "0x34078d7b4a4812cdbf7521d9721a18ff68478045494ef4fb3a1e43b88d863cd6",
      "blockHash": "0xd12a3b2bb0d29671e53f92a6dcc6060c8439cb302b165a0a5c8fefced70af817",
      "blockNumber": 49344,
      "transactionIndex": 0,
      "confirmations": null,
      "from": "0x725af55dE80C8186B3a89f51EBEFc719068A78B4",
      "gasPrice": {
        "_hex": "0xe1ae7875e"
      },
      "gasLimit": {
        "_hex": "0x5208"
      },
      "to": "0x32Be343B94f860124dC4fEe278FDCBD38C102D88",
      "value": {
        "_hex": "0x6c6b8ed67c982c0000"
      },
      "nonce": 0,
      "data": "0x",
      "r": "0x39e7e95e72abff171747e5afa05528992dbd386ab378deff4f00125c555fb064",
      "s": "0x1d64b54b72ba95484af2b81192179c9d97649fb7fa9719a4aea50ea6177d9513",
      "v": 28,
      "creates": null,
      "raw": "0xf86d80850e1ae7875e8252089432be343b94f860124dc4fee278fdcbd38c102d88896c6b8ed67c982c0000801ca039e7e95e72abff171747e5afa05528992dbd386ab378deff4f00125c555fb064a01d64b54b72ba95484af2b81192179c9d97649fb7fa9719a4aea50ea6177d9513",
      "networkId": 0,
      "chainId": 0
    }
  ]
}