{
  "hash": "0xe53deeb0634bdb15a146dafe6586fe66a3d32db72ae71b5bdb377da61afcbf1a",
  "parentHash": "0xf926b7d27f1556d31fc5906b0db973fdf46ef076cc421ac27a8439cf07d55b42",
  "number": 74933,
  "timestamp": 1439394879,
  "nonce": "0xc6b433c5ea8b108d",
  "difficulty": 2190181098339,
  "gasLimit": {
    "_hex": "0x2fefd8"
  },
  "gasUsed": {
    "_hex": "0x546c"
  },
  "miner": "0xf927a40C8B7F6E07c5af7FA2155B4864a4112B13",
  "extraData": "0x",
  "transactions": [
    {
      "hash": "0x575013b4b601d12ef9e22a4b5d83dc7439e4620cc6ff2fd78d2bf0cf863bcf90",
      "blockHash": "0xe53deeb0634bdb15a146dafe6586fe66a3d32db72ae71b5bdb377da61afcbf1a",
      "blockNumber": 74933,
      "transactionIndex": 0,
      "confirmations": null,
      "from": "0x271e8fC01E1C9E1621fD3d108e348450b2498541",
      "gasPrice": {
        "_hex": "0xddd62390d"
      },
      "gasLimit": {
        "_hex": "0x55f0"
      },
      "to": "0x2910543Af39abA0Cd09dBb2D50200b3E800A63D2",
      "value": {
        "_hex": "0x254beb02d1dcc0000"
      },
      "nonce": 9,
      "data": "0x454e30334b52455730",
      "r": "0xbab35cbf6e3bba54d5d0a6c766d7250e195fe402672f465297b00c631daec3b2",
      "s": "0x2430428820aa7b4a97b599a7cdc7119b920c12b4650d9372d659ae420f642daf",
      "v": 28,
      "creates": null,
      "raw": "0xf87609850ddd62390d8255f0942910543af39aba0cd09dbb2d50200b3e800a63d2890254beb02d1dcc000089454e30334b524557301ca0bab35cbf6e3bba54d5d0a6c766d7250e195fe402672f465297b00c631daec3b2a02430428820aa7b4a97b599a7cdc7119b920c12b4650d9372d659ae420f642daf",
      "networkId": 0,
      "chainId": 0
    }
  ]
}