{
  "hash": "0xef3ef250a5ceb6025b5876ecca89d53838f69b1c04520f27d3bc90031a9338df",
  "parentHash": "0xe9a6e7b035ff30fd4ac018f13c57e23ef1fed38e3d4b5ee4805e6ba12e54143f",
  "number": 48875,
  "timestamp": 1438964538,
  "nonce": "0x50ec5b2cb2481f7e",
  "difficulty": 1473553006430,
  "gasLimit": {
    "_hex": "0x2017d"
  },
  "gasUsed": {
    "_hex": "0xa410"
  },
  "miner": "0xf927a40C8B7F6E07c5af7FA2155B4864a4112B13",
  "extraData": "0x476574682f76312e302e312f6c696e75782f676f312e342e32",
  "transactions": [
    {
      "hash": "0x0227f46b51ce07a1a296ad2044994bdc0b33df89b3e1c8998f2de4ad1fcfd4ed",
      "blockHash": "0xef3ef250a5ceb6025b5876ecca89d53838f69b1c04520f27d3bc90031a9338df",
      "blockNumber": 48875,
      "transactionIndex": 0,
      "confirmations": null,
      "from": "0xCDfD8217339725d7ebac11A63655F265eFF1CC3d",
      "gasPrice": {
        "_hex": "0x10ab4bd532e"
      },
      "gasLimit": {
        "_hex": "0x5208"
      },
      "to": "0xb6Ad95318E9C1727be55974BBBBAcf7196923E4c",
      "value": {
        "_hex": "0x874114a0ec679c0000"
      },
      "nonce": 2,
      "data": "0x",
      "r": "0x92ade063bdc37e407cd4411ae378a72a41921504df574c35bfd85989ef91414d",
      "s": "0x7e453b80f22dfebb72b0bd06eda17c2e926905de67ca96d8c52d1e513b77f1b3",
      "v": 27,
      "creates": null,
      "raw": "0xf86e0286010ab4bd532e82520894b6ad95318e9c1727be55974bbbbacf7196923e4c89874114a0ec679c0000801ba092ade063bdc37e407cd4411ae378a72a41921504df574c35bfd85989ef91414da07e453b80f22dfebb72b0bd06eda17c2e926905de67ca96d8c52d1e513b77f1b3",
      "networkId": 0,
      "chainId": 0
    },
    {
      "hash": "0x0c9e34827312c22a9a9a00d7b0f32f2c27384c0828118fd9fb3c949913ecebd5",
      "blockHash": "0xef3ef250a5ceb6025b5876ecca89d53838f69b1c04520f27d3bc90031a9338df",
      "blockNumber": 48875,
      "transactionIndex": 1,
      "confirmations": null,
      "from": "0x8B454d830feF179e66206840F8F3D1d83bC32b17",
      "gasPrice": {
        "_hex": "0xe02de6395"
      },
      "gasLimit": {
        "_hex": "0x15f90"
      },
      "to": "0x1543667B9bad3e41865C3233E1764d8dda8E1F3D",
      "value": {
        "_hex": "0xde0b6b3a7640000"
      },
      "nonce": 3,
      "data": "0x",
      "r": "0x12a6027d94226b6d5fa7ae3afa0cfb14d882894d5759a633f29c5b3f8aa23f33",
      "s": "0x794725c00497279f61ae113866ef3301221a52ebf461805a4d1cde43b0e8cfd2",
      "v": 27,
      "creates": null,
      "raw": "0xf86d03850e02de639583015f90941543667b9bad3e41865c3233e1764d8dda8e1f3d880de0b6b3a7640000801ba012a6027d94226b6d5fa7ae3afa0cfb14d882894d5759a633f29c5b3f8aa23f33a0794725c00497279f61ae113866ef3301221a52ebf461805a4d1cde43b0e8cfd2",
      "networkId": 0,
      "chainId": 0
    }
  ]
}