{
  "hash": "0xf192d86a7de4db4b416eaddc6a070a8ad3c8b1d72be217fc8db875223d38bc86",
  "parentHash": "0x84502c9cce6eff49a16a8c3b50e659ad843c588b5b6651cdd74eea83613ced32",
  "number": 113268,
  "timestamp": 1440020394,
  "nonce": "0xf5fe937504d038ea",
  "difficulty": 4523992369389,
  "gasLimit": {
    "_hex": "0x2fefd8"
  },
  "gasUsed": {
    "_hex": "0xa410"
  },
  "miner": "0x52bc44d5378309EE2abF1539BF71dE1b7d7bE3b5",
  "extraData": "0x476574682f76312e302e312d39353236303766382f6c696e75782f676f312e34",
  "transactions": [
    {
      "hash": "0xc4aec4e41189923602e116979e2ab202ee37900344cce41959a47bb605b93bce",
      "blockHash": "0xf192d86a7de4db4b416eaddc6a070a8ad3c8b1d72be217fc8db875223d38bc86",
      "blockNumber": 113268,
      "transactionIndex": 0,
      "confirmations": null,
      "from": "0x32Be343B94f860124dC4fEe278FDCBD38C102D88",
      "gasPrice": {
        "_hex": "0xddffc5680"
      },
      "gasLimit": {
        "_hex": "0x5208"
      },
      "to": "0xFc8B1B712E10a89E87176215AED8352b323B7265",
      "value": {
        "_hex": "0x22b1c8c1227a0000"
      },
      "nonce": 1357,
      "data": "0x",
      "r": "0xb6365f28133fafd324392a99a9eef8f54eacaae968b4eb9397db3e95be4bb92f",
      "s": "0x199c88027ae879b5053156b252ee7e044fedf9f43e1185dba6e63f24849e369b",
      "v": 27,
      "creates": null,
      "raw": "0xf86e82054d850ddffc568082520894fc8b1b712e10a89e87176215aed8352b323b72658822b1c8c1227a0000801ba0b6365f28133fafd324392a99a9eef8f54eacaae968b4eb9397db3e95be4bb92fa0199c88027ae879b5053156b252ee7e044fedf9f43e1185dba6e63f24849e369b",
      "networkId": 0,
      "chainId": 0
    },
    {
      "hash": "0x74520ea7c5a13985bf23b85261b35986f3a875f2ba352428de4d8053ee373f85",
      "blockHash": "0xf192d86a7de4db4b416eaddc6a070a8ad3c8b1d72be217fc8db875223d38bc86",
      "blockNumber": 113268,
      "transactionIndex": 1,
      "confirmations": null,
      "from": "0x32Be343B94f860124dC4fEe278FDCBD38C102D88",
      "gasPrice": {
        "_hex": "0xddffc5680"
      },
      "gasLimit": {
        "_hex": "0x5208"
      },
      "to": "0x6aCdB36b4ba1c50356c8A71e94B1361448dDAfF9",
      "value": {
        "_hex": "0x76e94226b14ec8000"
      },
      "nonce": 1358,
      "data": "0x",
      "r": "0x3a08f7be5bfb640c4274bf2cfefd00c5dccc81aa0003b42afd682ff793a5d3cd",
      "s": "0x02c75a90ded269fad8b6eb820f249b91f5fdfed0736def9ea4275b95e771579d",
      "v": 28,
      "creates": null,
      "raw": "0xf86f82054e850ddffc5680825208946acdb36b4ba1c50356c8a71e94b1361448ddaff989076e94226b14ec8000801ca03a08f7be5bfb640c4274bf2cfefd00c5dccc81aa0003b42afd682ff793a5d3cda002c75a90ded269fad8b6eb820f249b91f5fdfed0736def9ea4275b95e771579d",
      "networkId": 0,
      "chainId": 0
    }
  ]
}