{
  "hash": "0x86a52e582d312f60a5f6f0bf43de026fb2442fa145ccd393ce8dd9322f3ef155",
  "parentHash": "0x8f7eec03de1c828170b537ad89f04b132464e555f8245ca595eb16bfd81d8e9f",
  "number": 117871,
  "timestamp": 1440116755,
  "nonce": "0xf7ad35c21d0f94c3",
  "difficulty": 4329227486164,
  "gasLimit": {
    "_hex": "0x2fefd8"
  },
  "gasUsed": {
    "_hex": "0x5208"
  },
  "miner": "0xe6A7a1d47ff21B6321162AEA7C6CB457D5476Bca",
  "extraData": "0xd783010002844765746887676f312e342e32856c696e7578",
  "transactions": [
    {
      "hash": "0xac4cb461c555ed4d4c0d96827564635d8411db7a6921ae59a4359b6de8bc3197",
      "blockHash": "0x86a52e582d312f60a5f6f0bf43de026fb2442fa145ccd393ce8dd9322f3ef155",
      "blockNumber": 117871,
      "transactionIndex": 0,
      "confirmations": null,
      "from": "0x46b29910396E1cF71678f81101334A180876E9b1",
      "gasPrice": {
        "_hex": "0xba43b7400"
      },
      "gasLimit": {
        "_hex": "0x5208"
      },
      "to": "0x32Be343B94f860124dC4fEe278FDCBD38C102D88",
      "value": {
        "_hex": "0x27e4858eacca2c00"
      },
      "nonce": 10,
      "data": "0x",
      "r": "0x0ae56997e99e453f7b126d17bdf9782705ab77d1a25363f6945be0f73eaa07a4",
      "s": "0x5c7c7bfe4c594c763888590e97e5676761063af8c9297ece88482fdef533c591",
      "v": 27,
      "creates": null,
      "raw": "0xf86c0a850ba43b74008252089432be343b94f860124dc4fee278fdcbd38c102d888827e4858eacca2c00801ba00ae56997e99e453f7b126d17bdf9782705ab77d1a25363f6945be0f73eaa07a4a05c7c7bfe4c594c763888590e97e5676761063af8c9297ece88482fdef533c591",
      "networkId": 0,
      "chainId": 0
    }
  ]
}