{
  "hash": "0xc712ccaacbf007d3c6c66999963f1a555c6ee8e2feec2e1ec8809802eb95cdb9",
  "parentHash": "0x13d39bc8b2179d33934174dc83f1a086bd4f632edb1ef936c0909e207b646472",
  "number": 119033,
  "timestamp": 1440135594,
  "nonce": "0xd04284486c60e8a6",
  "difficulty": 4418315033867,
  "gasLimit": {
    "_hex": "0x2fefd8"
  },
  "gasUsed": {
    "_hex": "0x5208"
  },
  "miner": "0xe6A7a1d47ff21B6321162AEA7C6CB457D5476Bca",
  "extraData": "0xd783010002844765746887676f312e342e32856c696e7578",
  "transactions": [
    {
      "hash": "0x4710d1b2706e273c04c4cfaa7023dbde7f481336a16f91a75c6b2da8427b1964",
      "blockHash": "0xc712ccaacbf007d3c6c66999963f1a555c6ee8e2feec2e1ec8809802eb95cdb9",
      "blockNumber": 119033,
      "transactionIndex": 0,
      "confirmations": null,
      "from": "0x21895C01b82eA35dF09ca8E69d5E77c8D639e175",
      "gasPrice": {
        "_hex": "0xba43b7400"
      },
      "gasLimit": {
        "_hex": "0x5208"
      },
      "to": "0x32Be343B94f860124dC4fEe278FDCBD38C102D88",
      "value": {
        "_hex": "0xddcfbbb7a606000"
      },
      "nonce": 0,
      "data": "0x",
      "r": "0x75e1394ff575951d4e565d66a53a6afe31271f943fba8aa16c1b99d54388e752",
      "s": "0x26913f1f4496bc3d3bb16dc1a1ba9eff90331bddf1ba20da21122bb74c3b7ca3",
      "v": 27,
      "creates": null,
      "raw": "0xf86c80850ba43b74008252089432be343b94f860124dc4fee278fdcbd38c102d88880ddcfbbb7a606000801ba075e1394ff575951d4e565d66a53a6afe31271f943fba8aa16c1b99d54388e752a026913f1f4496bc3d3bb16dc1a1ba9eff90331bddf1ba20da21122bb74c3b7ca3",
      "networkId": 0,
      "chainId": 0
    }
  ]
}