{
  "hash": "0x832e0619520d0e6cf47c98b5dc269b7daaf4f8ef6c39e0b49275ba7d65d30b87",
  "parentHash": "0xe6f6b30f8035efc904f60e7135e1ec3bccf96fb0efea7d9a1f4a90076433f2ce",
  "number": 121044,
  "timestamp": 1440170407,
  "nonce": "0x9eba02f99ffdc106",
  "difficulty": 4436710444824,
  "gasLimit": {
    "_hex": "0x2fefd8"
  },
  "gasUsed": {
    "_hex": "0xf618"
  },
  "miner": "0xe6A7a1d47ff21B6321162AEA7C6CB457D5476Bca",
  "extraData": "0xd783010002844765746887676f312e342e32856c696e7578",
  "transactions": [
    {
      "hash": "0x013999b8f75d9216180a667636d596f2872c92502aa0b26e483e272463af2ac0",
      "blockHash": "0x832e0619520d0e6cf47c98b5dc269b7daaf4f8ef6c39e0b49275ba7d65d30b87",
      "blockNumber": 121044,
      "transactionIndex": 0,
      "confirmations": null,
      "from": "0xa70a9a7040d542C632D8e0bE7c5513A8a5Bbc752",
      "gasPrice": {
        "_hex": "0xba43b7400"
      },
      "gasLimit": {
        "_hex": "0x5208"
      },
      "to": "0x32Be343B94f860124dC4fEe278FDCBD38C102D88",
      "value": {
        "_hex": "0x455fd68a17f06000"
      },
      "nonce": 331,
      "data": "0x",
      "r": "0xbe115f1a8beb0ac4147b751a88233f14b0e67dcf4d60d71ab1eba6ca478869ec",
      "s": "0x3ed96fc73d477b4de61fbe0ca5f038f9c9ffffea3d1d28ec6ea0a099907c948c",
      "v": 27,
      "creates": null,
      "raw": "0xf86e82014b850ba43b74008252089432be343b94f860124dc4fee278fdcbd38c102d8888455fd68a17f06000801ba0be115f1a8beb0ac4147b751a88233f14b0e67dcf4d60d71ab1eba6ca478869eca03ed96fc73d477b4de61fbe0ca5f038f9c9ffffea3d1d28ec6ea0a099907c948c",
      "networkId": 0,
      "chainId": 0
    },
    {
      "hash": "0xc3819db31672c860ebfe077c84d0ee1c2674f95b7ab4aa0e31849709bf0600b4",
      "blockHash": "0x832e0619520d0e6cf47c98b5dc269b7daaf4f8ef6c39e0b49275ba7d65d30b87",
      "blockNumber": 121044,
      "transactionIndex": 1,
      "confirmations": null,
      "from": "0x8F79f76381Aad7B98C19aF55eE75fdfEeb012211",
      "gasPrice": {
        "_hex": "0xba43b7400"
      },
      "gasLimit": {
        "_hex": "0x5208"
      },
      "to": "0x32Be343B94f860124dC4fEe278FDCBD38C102D88",
      "value": {
        "_hex": "0x12ae456742f2980000"
      },
      "nonce": 54,
      "data": "0x",
      "r": "0xd42680388bb9c0a733cac55ca70a0075faa224d8730c5d464649cf73a1a76bdf",
      "s": "0x1894cf305ed0659702dddc2d2feeff3a99246169c78567b89d9bd32cb54b33db",
      "v": 28,
      "creates": null,
      "raw": "0xf86d36850ba43b74008252089432be343b94f860124dc4fee278fdcbd38c102d888912ae456742f2980000801ca0d42680388bb9c0a733cac55ca70a0075faa224d8730c5d464649cf73a1a76bdfa01894cf305ed0659702dddc2d2feeff3a99246169c78567b89d9bd32cb54b33db",
      "networkId": 0,
      "chainId": 0
    },
    {
      "hash": "0x2b2054939c3423e7eec93eda9a5a02bf337b4772173eb8cdca98b2d3ac3df4a1",
      "blockHash": "0x832e0619520d0e6cf47c98b5dc269b7daaf4f8ef6c39e0b49275ba7d65d30b87",
      "blockNumber": 121044,
      "transactionIndex": 2,
      "confirmations": null,
      "from": "0x608f4b86321a68453f9adf6F06F7Fc3E621739ad",
      "gasPrice": {
        "_hex": "0xba43b7400"
      },
      "gasLimit": {
        "_hex": "0x5208"
      },
      "to": "0x32Be343B94f860124dC4fEe278FDCBD38C102D88",
      "value": {
        "_hex": "0x455fd68a17f06000"
      },
      "nonce": 90,
      "data": "0x",
      "r": "0xad396309e94dd80113f58b1462d67f5aba31ec16e046761d511a09eb8d106011",
      "s": "0x3922ff1179ad9c91b5d7109d36f345cc9d5d015c38b896549b0d455071a8f095",
      "v": 27,
      "creates": null,
      "raw": "0xf86c5a850ba43b74008252089432be343b94f860124dc4fee278fdcbd38c102d8888455fd68a17f06000801ba0ad396309e94dd80113f58b1462d67f5aba31ec16e046761d511a09eb8d106011a03922ff1179ad9c91b5d7109d36f345cc9d5d015c38b896549b0d455071a8f095",
      "networkId": 0,
      "chainId": 0
    }
  ]
}