{
  "hash": "0x01c2b0acc95e7ddd2fb12c27450830211c1f01c30057f81f6763ddddf2720380",
  "parentHash": "0xbe502dd9de2ac328bbbc2d0b96a691e4b41b8246e98fb8c755a155f9129b9219",
  "number": 122144,
  "timestamp": 1440188942,
  "nonce": "0xf479751efab35e49",
  "difficulty": 4475289954837,
  "gasLimit": {
    "_hex": "0x2fefd8"
  },
  "gasUsed": {
    "_hex": "0xa410"
  },
  "miner": "0x52bc44d5378309EE2abF1539BF71dE1b7d7bE3b5",
  "extraData": "0xd783010002844765746887676f312e342e32856c696e7578",
  "transactions": [
    {
      "hash": "0x960400c76245ca5737159e30c4890b4972b9db05652b65a7f5023b7ea0810459",
      "blockHash": "0x01c2b0acc95e7ddd2fb12c27450830211c1f01c30057f81f6763ddddf2720380",
      "blockNumber": 122144,
      "transactionIndex": 0,
      "confirmations": null,
      "from": "0xb1abce2918E21ddb93AA452731a12672A3d9F75a",
      "gasPrice": {
        "_hex": "0xde822280f"
      },
      "gasLimit": {
        "_hex": "0x5208"
      },
      "to": "0x32Be343B94f860124dC4fEe278FDCBD38C102D88",
      "value": {
        "_hex": "0x455f1cb876f70400"
      },
      "nonce": 222,
      "data": "0x",
      "r": "0xba28c2b29b3489b8ffa71efa07fe4677ff39bedc11f8efc39d2e71cb9b9e603e",
      "s": "0x38da4f5b7f0e96dbf314b409b79527a2d6782c923cf9d3764a5badc6f3a1516d",
      "v": 27,
      "creates": null,
      "raw": "0xf86d81de850de822280f8252089432be343b94f860124dc4fee278fdcbd38c102d8888455f1cb876f70400801ba0ba28c2b29b3489b8ffa71efa07fe4677ff39bedc11f8efc39d2e71cb9b9e603ea038da4f5b7f0e96dbf314b409b79527a2d6782c923cf9d3764a5badc6f3a1516d",
      "networkId": 0,
      "chainId": 0
    },
    {
      "hash": "0x74b14a52fb36a991331428b60b6dc29d3074cb9dc7b7ad0df361713f189edf0b",
      "blockHash": "0x01c2b0acc95e7ddd2fb12c27450830211c1f01c30057f81f6763ddddf2720380",
      "blockNumber": 122144,
      "transactionIndex": 1,
      "confirmations": null,
      "from": "0x608f4b86321a68453f9adf6F06F7Fc3E621739ad",
      "gasPrice": {
        "_hex": "0xde822280f"
      },
      "gasLimit": {
        "_hex": "0x5208"
      },
      "to": "0x32Be343B94f860124dC4fEe278FDCBD38C102D88",
      "value": {
        "_hex": "0x455f1cb876f70400"
      },
      "nonce": 124,
      "data": "0x",
      "r": "0x6ca0532ba81f1da0545122a727fc049412ddb549f3db173917aded8c107e2b40",
      "s": "0x3f9f5e49e4cb199baa09dd5230743a75f785a8069c83e63a3ee84630540b2235",
      "v": 27,
      "creates": null,
      "raw": "0xf86c7c850de822280f8252089432be343b94f860124dc4fee278fdcbd38c102d8888455f1cb876f70400801ba06ca0532ba81f1da0545122a727fc049412ddb549f3db173917aded8c107e2b40a03f9f5e49e4cb199baa09dd5230743a75f785a8069c83e63a3ee84630540b2235",
      "networkId": 0,
      "chainId": 0
    }
  ]
}