{
  "hash": "0xc4a8edae1b6724beee464e9410ae49b345cdd5b73f8582d24a27575cbd3b4bd9",
  "parentHash": "0x701523d26fa7a36f2d22bc6cb5c70470f2792eaa8607324280a2a16955248b58",
  "number": 67355,
  "timestamp": 1439270638,
  "nonce": "0x33454095807918de",
  "difficulty": 1927032667155,
  "gasLimit": {
    "_hex": "0x2fefd5"
  },
  "gasUsed": {
    "_hex": "0x5208"
  },
  "miner": "0xbb7B8287f3F0a933474a79eAe42CBCa977791171",
  "extraData": "0x476574682f4c5649562f76312e302e312f6c696e75782f676f312e342e32",
  "transactions": [
    {
      "hash": "0x35ce33954067af97f4c73dc3ed4f614967ed27f4524fe31596a92bfbcab4b789",
      "blockHash": "0xc4a8edae1b6724beee464e9410ae49b345cdd5b73f8582d24a27575cbd3b4bd9",
      "blockNumber": 67355,
      "transactionIndex": 0,
      "confirmations": null,
      "from": "0x2910543Af39abA0Cd09dBb2D50200b3E800A63D2",
      "gasPrice": {
        "_hex": "0xcace4f7bc"
      },
      "gasLimit": {
        "_hex": "0x5208"
      },
      "to": "0x790077820FC227245D3de4CDBd3D801f3dd6B8df",
      "value": {
        "_hex": "0x56bb59ab42b2f8000"
      },
      "nonce": 212,
      "data": "0x",
      "r": "0x784c19c4ab5da8bd74fceaab2bf1ff50f691fd49e145e7cf8612efd96958b6a6",
      "s": "0x5a583a65ca4951ba74113da0cc12d1280cfd18b3cd60932e68bf7e36850eb334",
      "v": 28,
      "creates": null,
      "raw": "0xf86e81d4850cace4f7bc82520894790077820fc227245d3de4cdbd3d801f3dd6b8df89056bb59ab42b2f8000801ca0784c19c4ab5da8bd74fceaab2bf1ff50f691fd49e145e7cf8612efd96958b6a6a05a583a65ca4951ba74113da0cc12d1280cfd18b3cd60932e68bf7e36850eb334",
      "networkId": 0,
      "chainId": 0
    }
  ]
}