{
  "hash": "0x375c729e3c1cde643a3f3ff72330f9c3734e439e4b75aa400b0e21cf1cc4ebfc",
  "parentHash": "0x3852cb568cef81174866973daf575b26f33d20b78381c49b1aa9af515eccbe19",
  "number": 52227,
  "timestamp": 1439018507,
  "nonce": "0xe29544fe7da3c121",
  "difficulty": 1548182399777,
  "gasLimit": {
    "_hex": "0x117746"
  },
  "gasUsed": {
    "_hex": "0xf4240"
  },
  "miner": "0x02020D22dCF88f5eDd66B382D7da019F161fB7e3",
  "extraData": "0x",
  "transactions": [
    {
      "hash": "0xba09d8e65c0ae321b9ca589ca0c8c3bd79e430df0decf351febe283ceb1a959c",
      "blockHash": "0x375c729e3c1cde643a3f3ff72330f9c3734e439e4b75aa400b0e21cf1cc4ebfc",
      "blockNumber": 52227,
      "transactionIndex": 0,
      "confirmations": null,
      "from": "0xAd7F5C601260b460ADAC6A54411Ca6Cf07dC83c3",
      "gasPrice": {
        "_hex": "0xdaa36d5ae"
      },
      "gasLimit": {
        "_hex": "0x7a120"
      },
      "to": "0xBAA54d6E90c3F4d7Ebec11bD180134C7eD8eBb52",
      "value": {
        "_hex": "0x16345785d8a0000"
      },
      "nonce": 6,
      "data": "0x",
      "r": "0x17b76b41cd62562a340b594c42facad06fe5e606a0abf51c86d0240c0f324765",
      "s": "0x0f6d75c6dc1365df2d4d3ea9c3a39cf6158236e0472de3da2c9d1adcff7e7ec5",
      "v": 27,
      "creates": null,
      "raw": "0xf86d06850daa36d5ae8307a12094baa54d6e90c3f4d7ebec11bd180134c7ed8ebb5288016345785d8a0000801ba017b76b41cd62562a340b594c42facad06fe5e606a0abf51c86d0240c0f324765a00f6d75c6dc1365df2d4d3ea9c3a39cf6158236e0472de3da2c9d1adcff7e7ec5",
      "networkId": 0,
      "chainId": 0
    },
    {
      "hash": "0x51ff9acd16afdc5e7563ce614476b63db09b80acc9c74c418deba13bd4d3eb4f",
      "blockHash": "0x375c729e3c1cde643a3f3ff72330f9c3734e439e4b75aa400b0e21cf1cc4ebfc",
      "blockNumber": 52227,
      "transactionIndex": 1,
      "confirmations": null,
      "from": "0xAd7F5C601260b460ADAC6A54411Ca6Cf07dC83c3",
      "gasPrice": {
        "_hex": "0xdaa36d5ae"
      },
      "gasLimit": {
        "_hex": "0x7a120"
      },
      "to": "0xBAA54d6E90c3F4d7Ebec11bD180134C7eD8eBb52",
      "value": {
        "_hex": "0x16345785d8a0000"
      },
      "nonce": 7,
      "data": "0x",
      "r": "0x853b823c543d759983cc207e412edc7d4fcce59c4710e5311907b69a0e7d4d31",
      "s": "0x7ad797b27eedd947168f6af96cf538524961db49b47f209c9b6d569c4fc60754",
      "v": 28,
      "creates": null,
      "raw": "0xf86d07850daa36d5ae8307a12094baa54d6e90c3f4d7ebec11bd180134c7ed8ebb5288016345785d8a0000801ca0853b823c543d759983cc207e412edc7d4fcce59c4710e5311907b69a0e7d4d31a07ad797b27eedd947168f6af96cf538524961db49b47f209c9b6d569c4fc60754",
      "networkId": 0,
      "chainId": 0
    }
  ]
}