{
  "hash": "0xc130cd86da4bee75f49aead33b3f4853ddcdb65bccb89906c194822fa3fe920f",
  "parentHash": "0x53e779a6b576dd42082d5cedc82910306049ebfcc8517eb2d24faa82f35bc951",
  "number": 49944,
  "timestamp": 1438981717,
  "nonce": "0x7749bf6f5661f4ae",
  "difficulty": 1497298289051,
  "gasLimit": {
    "_hex": "0x472ad"
  },
  "gasUsed": {
    "_hex": "0x5208"
  },
  "miner": "0x7A89f3D28A18aB767D538bAf88738C195795C4ce",
  "extraData": "0x476574682f76312e302e312f77696e646f77732f676f312e342e32",
  "transactions": [
    {
      "hash": "0xb910e9b3febc32daf4795c989a3b29689e3977b4f8ff78dfc4afa3114ed1c2b4",
      "blockHash": "0xc130cd86da4bee75f49aead33b3f4853ddcdb65bccb89906c194822fa3fe920f",
      "blockNumber": 49944,
      "transactionIndex": 0,
      "confirmations": null,
      "from": "0x835cFb953639ABaB9F2612b8d92C997771Ae6312",
      "gasPrice": {
        "_hex": "0xd1943ab43"
      },
      "gasLimit": {
        "_hex": "0x5208"
      },
      "to": "0x32Be343B94f860124dC4fEe278FDCBD38C102D88",
      "value": {
        "_hex": "0xddc84328be9e400"
      },
      "nonce": 1,
      "data": "0x",
      "r": "0x405354aa24a1739619dee053f9462a144ed4bc35734f1ba833105740e2bd0371",
      "s": "0x0ceed5633ce94cc28b5cfeb50a127d5ff866bcaef38cbbfc62c12c7c566caf7d",
      "v": 28,
      "creates": null,
      "raw": "0xf86c01850d1943ab438252089432be343b94f860124dc4fee278fdcbd38c102d88880ddc84328be9e400801ca0405354aa24a1739619dee053f9462a144ed4bc35734f1ba833105740e2bd0371a00ceed5633ce94cc28b5cfeb50a127d5ff866bcaef38cbbfc62c12c7c566caf7d",
      "networkId": 0,
      "chainId": 0
    }
  ]
}