{
  "hash": "0xa63be0c90fe31fceb452a64efa2c25eaee946ba3b2120698ccb23ce9ea15478e",
  "parentHash": "0x5862036ff84e59460c0eef81a4983bf680eb2637f06e17c90b24d84cc001ffb4",
  "number": 118983,
  "timestamp": 1440134681,
  "nonce": "0x7a9cc7cef97cf341",
  "difficulty": 4426979375639,
  "gasLimit": {
    "_hex": "0x2fefd8"
  },
  "gasUsed": {
    "_hex": "0x5208"
  },
  "miner": "0x52bc44d5378309EE2abF1539BF71dE1b7d7bE3b5",
  "extraData": "0xd783010002844765746887676f312e342e32856c696e7578",
  "transactions": [
    {
      "hash": "0x424ef32578c0b59ddfb7a1e6f4d88a9f620e1e90e6396a9efe9f8578d1272f38",
      "blockHash": "0xa63be0c90fe31fceb452a64efa2c25eaee946ba3b2120698ccb23ce9ea15478e",
      "blockNumber": 118983,
      "transactionIndex": 0,
      "confirmations": null,
      "from": "0x790b8a3cE86E707ED0eD32bF89B3269692a23CC1",
      "gasPrice": {
        "_hex": "0xba43b7400"
      },
      "gasLimit": {
        "_hex": "0x15f90"
      },
      "to": "0x4D67f4F0Db45b3B5a3424B39ed8d972F710381D5",
      "value": {
        "_hex": "0x50aa25f43cf540000"
      },
      "nonce": 65,
      "data": "0x",
      "r": "0x70b5b0b056bef1ad3effda4ea58a808d49663b0cc30f3122498914cb5fb9390c",
      "s": "0x61c80252008043a17a165e4274062d77aead9d351ed67987f6348d4718cf925b",
      "v": 27,
      "creates": null,
      "raw": "0xf86e41850ba43b740083015f90944d67f4f0db45b3b5a3424b39ed8d972f710381d589050aa25f43cf540000801ba070b5b0b056bef1ad3effda4ea58a808d49663b0cc30f3122498914cb5fb9390ca061c80252008043a17a165e4274062d77aead9d351ed67987f6348d4718cf925b",
      "networkId": 0,
      "chainId": 0
    }
  ]
}