{
  "hash": "0xb1ba153851cd06c96eab1c21196c6b3f9e2c53e56424502e01913fbbfef95380",
  "parentHash": "0xf0fca4ea3aca56ae5e57a4fed421a598b0dede519b64c1a1aef3b8fc21790d6a",
  "number": 51762,
  "timestamp": 1439010464,
  "nonce": "0xf57f628f8c11e0e6",
  "difficulty": 1552052791471,
  "gasLimit": {
    "_hex": "0xd9570"
  },
  "gasUsed": {
    "_hex": "0x5208"
  },
  "miner": "0xe6A7a1d47ff21B6321162AEA7C6CB457D5476Bca",
  "extraData": "0x657468706f6f6c2e6f7267",
  "transactions": [
    {
      "hash": "0x8f63234306d4b0e2e7d28fc91e29870d04df7c5a207c3f453b8f4b225b981bd3",
      "blockHash": "0xb1ba153851cd06c96eab1c21196c6b3f9e2c53e56424502e01913fbbfef95380",
      "blockNumber": 51762,
      "transactionIndex": 0,
      "confirmations": null,
      "from": "0x938936735b08092665932088cBBf2f2D879F51B7",
      "gasPrice": {
        "_hex": "0xd7d40ace3"
      },
      "gasLimit": {
        "_hex": "0x15f90"
      },
      "to": "0x617f417A3B49E92fcb8C58e241fd6A60B58fd6b7",
      "value": {
        "_hex": "0x1b"
      },
      "nonce": 0,
      "data": "0x",
      "r": "0x18194b90b91b2ee5426a568f1fbd1baaec399e78cc44bd31f3ac67c0156e306c",
      "s": "0x184e0ccf2a47aaa614a40bf65673d914caff78c91ea1373794744a92b54628aa",
      "v": 28,
      "creates": null,
      "raw": "0xf86580850d7d40ace383015f9094617f417a3b49e92fcb8c58e241fd6a60b58fd6b71b801ca018194b90b91b2ee5426a568f1fbd1baaec399e78cc44bd31f3ac67c0156e306ca0184e0ccf2a47aaa614a40bf65673d914caff78c91ea1373794744a92b54628aa",
      "networkId": 0,
      "chainId": 0
    }
  ]
}