{
  "hash": "0x0623cc27a2a52ad5b6d72ac8538c7deabc107e779d556ee2eedc1909906581cc",
  "parentHash": "0x0690cf958ff7778de4775eff37701b2f9d916ec069c0653ab4450f74d9aa8e7f",
  "number": 107207,
  "timestamp": 1439918116,
  "nonce": "0xa9c93b643e4e8cba",
  "difficulty": 4428871189791,
  "gasLimit": {
    "_hex": "0x2fefd8"
  },
  "gasUsed": {
    "_hex": "0x5208"
  },
  "miner": "0x0193d941b50d91BE6567c7eE1C0Fe7AF498b4137",
  "extraData": "0x4a5ace9e4e",
  "transactions": [
    {
      "hash": "0x997680a67dad2dd4d087d42a2f1a465ef5805d8a5857bfa136eab167758992ab",
      "blockHash": "0x0623cc27a2a52ad5b6d72ac8538c7deabc107e779d556ee2eedc1909906581cc",
      "blockNumber": 107207,
      "transactionIndex": 0,
      "confirmations": null,
      "from": "0x76dD1Af7f431f91A94752E53CBf9a52981f75947",
      "gasPrice": {
        "_hex": "0xba43b7400"
      },
      "gasLimit": {
        "_hex": "0x5208"
      },
      "to": "0xC47Aaa860008be6f65B58c6C6E02a84e666EfE31",
      "value": {
        "_hex": "0xf4e60fa137e882350"
      },
      "nonce": 1,
      "data": "0x",
      "r": "0xe79e32348c4f9a2e2bf86871f575b1e1043d2a8aa8332d7cd7dce4d3cd08a8fa",
      "s": "0x7fd3f16c3941769ace87e1e7749644e1dba5344c553b251dfcbe4f7f9269304a",
      "v": 27,
      "creates": null,
      "raw": "0xf86d01850ba43b740082520894c47aaa860008be6f65b58c6c6e02a84e666efe31890f4e60fa137e882350801ba0e79e32348c4f9a2e2bf86871f575b1e1043d2a8aa8332d7cd7dce4d3cd08a8faa07fd3f16c3941769ace87e1e7749644e1dba5344c553b251dfcbe4f7f9269304a",
      "networkId": 0,
      "chainId": 0
    }
  ]
}