{
  "hash": "0x0e63060fd061ba39c25a68415810e62937310fb28ef77b640b2f9d0b0e46e47b",
  "parentHash": "0x38355219ee796c434dc824c858472114e23c0f03ab048175b5ef7a5c6bd1522a",
  "number": 114938,
  "timestamp": 1440048979,
  "nonce": "0xc1b9e01cfa52062b",
  "difficulty": 4474763958665,
  "gasLimit": {
    "_hex": "0x2fefd8"
  },
  "gasUsed": {
    "_hex": "0x5208"
  },
  "miner": "0xb6E2d440C46510EC44266A3f58165E3956173df0",
  "extraData": "0x476574682f76312e302e312f77696e646f77732f676f312e342e32",
  "transactions": [
    {
      "hash": "0xb92b7bc543e3a05cf76f333eed8343878185937eec8515d356a1eaf0d5481aa2",
      "blockHash": "0x0e63060fd061ba39c25a68415810e62937310fb28ef77b640b2f9d0b0e46e47b",
      "blockNumber": 114938,
      "transactionIndex": 0,
      "confirmations": null,
      "from": "0x84a2dcC780Ba2Bfdc390077007DE77714793887f",
      "gasPrice": {
        "_hex": "0xd4dfa5aef"
      },
      "gasLimit": {
        "_hex": "0x15f90"
      },
      "to": "0x07fa0859A7282d3c93c1A1168421077878E5c54b",
      "value": {
        "_hex": "0xab878a838fd40000"
      },
      "nonce": 2,
      "data": "0x",
      "r": "0x27fbd7031197639f26b5c0d31c96b17d8ca91f29a156bd7cccea18b43729e9d3",
      "s": "0x4058a353bbe5b50c7d7da93006dfd3ae6ad0ab4a4d0338c79514d409e35cbf86",
      "v": 28,
      "creates": null,
      "raw": "0xf86d02850d4dfa5aef83015f909407fa0859a7282d3c93c1a1168421077878e5c54b88ab878a838fd40000801ca027fbd7031197639f26b5c0d31c96b17d8ca91f29a156bd7cccea18b43729e9d3a04058a353bbe5b50c7d7da93006dfd3ae6ad0ab4a4d0338c79514d409e35cbf86",
      "networkId": 0,
      "chainId": 0
    }
  ]
}