{
  "hash": "0xba20c8ca69a110a494af3e95438835d4b046e3a05ddb979a3c8c4e15aad4a72e",
  "parentHash": "0xbc8a87d706b7bdc50788be0ff60036f373324e16cc49af7ecd900b82a022f925",
  "number": 96215,
  "timestamp": 1439736820,
  "nonce": "0xaafd307b7150410c",
  "difficulty": 3662144206534,
  "gasLimit": {
    "_hex": "0x2fefd8"
  },
  "gasUsed": {
    "_hex": "0x5208"
  },
  "miner": "0x790b8a3cE86E707ED0eD32bF89B3269692a23CC1",
  "extraData": "0xd783010001844765746887676f312e342e32856c696e7578",
  "transactions": [
    {
      "hash": "0x7595671b22c1834ac4ce2fd54b1fe4c567cc6f1b6695db93cd9d5fa8aa639add",
      "blockHash": "0xba20c8ca69a110a494af3e95438835d4b046e3a05ddb979a3c8c4e15aad4a72e",
      "blockNumber": 96215,
      "transactionIndex": 0,
      "confirmations": null,
      "from": "0x7884D470204862a0d1A21122F41ee77430396Ee5",
      "gasPrice": {
        "_hex": "0xd8ab29287"
      },
      "gasLimit": {
        "_hex": "0x15f90"
      },
      "to": "0xfdB948C0D3FC00Bbe56f48268481A3F8cc1743A2",
      "value": {
        "_hex": "0x174876e800"
      },
      "nonce": 13,
      "data": "0x",
      "r": "0x7b1b6c1beb524f636327983df6b606381d72da92685875b8846b5f84f81f4bf0",
      "s": "0x25f820b7150942493b51c87781ea315575cd62fc853d149c6ce2aef3f18f1be3",
      "v": 28,
      "creates": null,
      "raw": "0xf86a0d850d8ab2928783015f9094fdb948c0d3fc00bbe56f48268481a3f8cc1743a285174876e800801ca07b1b6c1beb524f636327983df6b606381d72da92685875b8846b5f84f81f4bf0a025f820b7150942493b51c87781ea315575cd62fc853d149c6ce2aef3f18f1be3",
      "networkId": 0,
      "chainId": 0
    }
  ]
}