{
  "hash": "0xbe4da0043096c05a01171ad709438f3b46be0f8af87211e0ff940af1d485b4d6",
  "parentHash": "0x83ddf0194718815fbe713a02ff1be3324ff06adddc0df48d1315ad779b1433de",
  "number": 99274,
  "timestamp": 1439787305,
  "nonce": "0xc1c106a2d1f3eebb",
  "difficulty": 3789947379226,
  "gasLimit": {
    "_hex": "0x2fefd8"
  },
  "gasUsed": {
    "_hex": "0x5208"
  },
  "miner": "0x7E6930B63D03e88F5928C5cd6ee3FCee4D714F7F",
  "extraData": "0x",
  "transactions": [
    {
      "hash": "0xcee38cdc9c15a28df1d762da15b523e6a636d443191a190c645a55482fc79eaf",
      "blockHash": "0xbe4da0043096c05a01171ad709438f3b46be0f8af87211e0ff940af1d485b4d6",
      "blockNumber": 99274,
      "transactionIndex": 0,
      "confirmations": null,
      "from": "0x0D4EcC7d750180EBf4A9Df728B6669B5Bceb5E40",
      "gasPrice": {
        "_hex": "0xdce70aa9d"
      },
      "gasLimit": {
        "_hex": "0x5208"
      },
      "to": "0x32Be343B94f860124dC4fEe278FDCBD38C102D88",
      "value": {
        "_hex": "0x455f1a4ace903800"
      },
      "nonce": 56,
      "data": "0x",
      "r": "0x33abaf2b6dc5b1c32f0fc7ac5a9867847c3d9b62fe2aa5f0abfffc9b1fc49ff9",
      "s": "0x146f947409dde0ea1e7ed47e00cf77d51b98fa69a036293f7b523d3146337be2",
      "v": 28,
      "creates": null,
      "raw": "0xf86c38850dce70aa9d8252089432be343b94f860124dc4fee278fdcbd38c102d8888455f1a4ace903800801ca033abaf2b6dc5b1c32f0fc7ac5a9867847c3d9b62fe2aa5f0abfffc9b1fc49ff9a0146f947409dde0ea1e7ed47e00cf77d51b98fa69a036293f7b523d3146337be2",
      "networkId": 0,
      "chainId": 0
    }
  ]
}