{
  "hash": "0x16f4b0e92e20ff07c2088fb08c0e9f89b9995c85a98257e32046eeb97ac627d4",
  "parentHash": "0xe9b0842aa33dc3cbcd1e1cf0c1a2d1238d19a0334388df71e438670ab46ff5b0",
  "number": 47248,
  "timestamp": 1438936787,
  "nonce": "0x82cc54924b78651b",
  "difficulty": 1461655455984,
  "gasLimit": {
    "_hex": "0xa863"
  },
  "gasUsed": {
    "_hex": "0x5208"
  },
  "miner": "0xf8E0CA3Ed80bd541b94BEdCf259e8CF2141A9523",
  "extraData": "0x476574682f76312e302e312f77696e646f77732f676f312e342e32",
  "transactions": [
    {
      "hash": "0x73b362bb9ce5e263e55640a597f9735bc02c5793de22f90e3fa326c969229b14",
      "blockHash": "0x16f4b0e92e20ff07c2088fb08c0e9f89b9995c85a98257e32046eeb97ac627d4",
      "blockNumber": 47248,
      "transactionIndex": 0,
      "confirmations": null,
      "from": "0x03c647A9f929b0781fE9AE01cAA3e183E876777E",
      "gasPrice": {
        "_hex": "0xd8cfd3a73"
      },
      "gasLimit": {
        "_hex": "0x5208"
      },
      "to": "0xb583f9403De6C5B2c83D7e2DE9928331176071b8",
      "value": {
        "_hex": "0x453be93e52b499c0"
      },
      "nonce": 1,
      "data": "0x",
      "r": "0x55a51c65496651c38d2243ff10d8ec33ca99dea3dccf60a2ea0757c04066f4d1",
      "s": "0x455ff4966c420a7b646b4f2d4bd583332b6b16fb4f71ab36231b5a577e91eac8",
      "v": 27,
      "creates": null,
      "raw": "0xf86c01850d8cfd3a7382520894b583f9403de6c5b2c83d7e2de9928331176071b888453be93e52b499c0801ba055a51c65496651c38d2243ff10d8ec33ca99dea3dccf60a2ea0757c04066f4d1a0455ff4966c420a7b646b4f2d4bd583332b6b16fb4f71ab36231b5a577e91eac8",
      "networkId": 0,
      "chainId": 0
    }
  ]
}