{
  "hash": "0x65e5a0eb684e2ebe25e6c004be9ac65cf787a37f39a3433f43fa2606e10e0e68",
  "parentHash": "0x4759f22195bf5e994b161d1154033eb70f243a91a45aeff5eca552ded47b5334",
  "number": 120301,
  "timestamp": 1440157612,
  "nonce": "0xffa36c24878d0cfa",
  "difficulty": 4417647223350,
  "gasLimit": {
    "_hex": "0x2fefd8"
  },
  "gasUsed": {
    "_hex": "0x5208"
  },
  "miner": "0xDdf735543837695220A5fF5920f5756696840A5D",
  "extraData": "0xd783010100844765746887676f312e342e32856c696e7578",
  "transactions": [
    {
      "hash": "0x638690a15150b30f11bb8301e94eac4b2c97a41e399109006b0e281c69b6cb4f",
      "blockHash": "0x65e5a0eb684e2ebe25e6c004be9ac65cf787a37f39a3433f43fa2606e10e0e68",
      "blockNumber": 120301,
      "transactionIndex": 0,
      "confirmations": null,
      "from": "0x608f4b86321a68453f9adf6F06F7Fc3E621739ad",
      "gasPrice": {
        "_hex": "0xba43b7400"
      },
      "gasLimit": {
        "_hex": "0x5208"
      },
      "to": "0x32Be343B94f860124dC4fEe278FDCBD38C102D88",
      "value": {
        "_hex": "0x455fd68a17f06000"
      },
      "nonce": 61,
      "data": "0x",
      "r": "0xcd2db986cba24974a2c120a75840b5957565ada21e3b84cf0dc6318474a0bb70",
      "s": "0x600b4f0d44c20f57154a00040257c8a0e90a30e1e33f84f74dcfc069b014994b",
      "v": 27,
      "creates": null,
      "raw": "0xf86c3d850ba43b74008252089432be343b94f860124dc4fee278fdcbd38c102d8888455fd68a17f06000801ba0cd2db986cba24974a2c120a75840b5957565ada21e3b84cf0dc6318474a0bb70a0600b4f0d44c20f57154a00040257c8a0e90a30e1e33f84f74dcfc069b014994b",
      "networkId": 0,
      "chainId": 0
    }
  ]
}