{
  "hash": "0x20600392a07b971375e70eab360c6df0f51f94ee7210cb95d0ceaccfd99f1abd",
  "parentHash": "0x668c64f66275037b2b2758e9e5bb170302eed72471e0443cef090a77a7bcac8b",
  "number": 88551,
  "timestamp": 1439609820,
  "nonce": "0x3fd4ea3d7a365b16",
  "difficulty": 3228473128102,
  "gasLimit": {
    "_hex": "0x2fefd8"
  },
  "gasUsed": {
    "_hex": "0x5208"
  },
  "miner": "0xC603Ab5ef41fC61AA8b76bEddb09e3Cfcbb174BD",
  "extraData": "0x476574682f76312e302e312f77696e646f77732f676f312e342e32",
  "transactions": [
    {
      "hash": "0x0e6dbd75b6282045563cafe6c524bad8d4ebdfbea0aae77b566ac8df522aeee0",
      "blockHash": "0x20600392a07b971375e70eab360c6df0f51f94ee7210cb95d0ceaccfd99f1abd",
      "blockNumber": 88551,
      "transactionIndex": 0,
      "confirmations": null,
      "from": "0xB70f652788a24CeB11C0b586677b03679ccaCE6a",
      "gasPrice": {
        "_hex": "0xcd3e970e9"
      },
      "gasLimit": {
        "_hex": "0x15f90"
      },
      "to": "0x64aF60Be7c74AE1D077e7F350114a5098D179b4a",
      "value": {
        "_hex": "0x10d3aa536e2940000"
      },
      "nonce": 1,
      "data": "0x",
      "r": "0xcd16a28f58098658d5451eace08e931c7b4a7813689610608fb2621954e7a67c",
      "s": "0x539536d9f6dffca6f5d4b5bff23fed9346c730cd61e235054ff7c5376918ecf8",
      "v": 27,
      "creates": null,
      "raw": "0xf86e01850cd3e970e983015f909464af60be7c74ae1d077e7f350114a5098d179b4a89010d3aa536e2940000801ba0cd16a28f58098658d5451eace08e931c7b4a7813689610608fb2621954e7a67ca0539536d9f6dffca6f5d4b5bff23fed9346c730cd61e235054ff7c5376918ecf8",
      "networkId": 0,
      "chainId": 0
    }
  ]
}