{
  "hash": "0x25d74873f85b9df0e84395f4eb460ba59ad268e9faee70e8f5ac9427835d202b",
  "parentHash": "0xd1ef2bbd8de59e80b298d150ef5ccb8bdaf2ad63684b557c45b597f3d64d8c5b",
  "number": 95087,
  "timestamp": 1439718805,
  "nonce": "0xfbeecc123532faec",
  "difficulty": 3494912323247,
  "gasLimit": {
    "_hex": "0x2fefd8"
  },
  "gasUsed": {
    "_hex": "0xa410"
  },
  "miner": "0xe6A7a1d47ff21B6321162AEA7C6CB457D5476Bca",
  "extraData": "0x476574682f76312e302e312d38326566323666362f6c696e75782f676f312e34",
  "transactions": [
    {
      "hash": "0x360f67b477be06dea376e788c5d940760871dbbe9424c9bbcc34f7882c04ea49",
      "blockHash": "0x25d74873f85b9df0e84395f4eb460ba59ad268e9faee70e8f5ac9427835d202b",
      "blockNumber": 95087,
      "transactionIndex": 0,
      "confirmations": null,
      "from": "0xa522de7EB6ae1250522A513133a93bd42849475C",
      "gasPrice": {
        "_hex": "0xcf7c96e11"
      },
      "gasLimit": {
        "_hex": "0x15f90"
      },
      "to": "0x859217617481BD9b6E3e38f6aE9BB677F0D26154",
      "value": {
        "_hex": "0x5150ae84a8cdf00000"
      },
      "nonce": 11,
      "data": "0x",
      "r": "0x12fd3887dc011eb286de0e99f5ade51cffd7cc5e92a7c4b9920a8cb27cb9f20b",
      "s": "0x235eb9b95e8b653088435f54005c373fd96189006bf2b93bea3c6fe70dc1d4ad",
      "v": 28,
      "creates": null,
      "raw": "0xf86e0b850cf7c96e1183015f9094859217617481bd9b6e3e38f6ae9bb677f0d26154895150ae84a8cdf00000801ca012fd3887dc011eb286de0e99f5ade51cffd7cc5e92a7c4b9920a8cb27cb9f20ba0235eb9b95e8b653088435f54005c373fd96189006bf2b93bea3c6fe70dc1d4ad",
      "networkId": 0,
      "chainId": 0
    },
    {
      "hash": "0x03731e17ef82afed09fa0c3ae5e282075a0a8d99e914fca3a530a90734f85d84",
      "blockHash": "0x25d74873f85b9df0e84395f4eb460ba59ad268e9faee70e8f5ac9427835d202b",
      "blockNumber": 95087,
      "transactionIndex": 1,
      "confirmations": null,
      "from": "0x3735216E89f1FCA4d0aD519bD3A60F0e23338980",
      "gasPrice": {
        "_hex": "0xba43b7400"
      },
      "gasLimit": {
        "_hex": "0x5266"
      },
      "to": "0x667C4E0FaacE20313Fe1501dDb5255174100a1C5",
      "value": {
        "_hex": "0x102794ad20da680000"
      },
      "nonce": 2,
      "data": "0x",
      "r": "0x57074cd3e338e6bf92f106058ed2e5f4ac1089728401c30365569017e1813123",
      "s": "0xa7df6738c04c9111c80b0bf80ed11b34237c7291dbce413be4250f893ea7c894",
      "v": 28,
      "creates": null,
      "raw": "0xf86d02850ba43b740082526694667c4e0faace20313fe1501ddb5255174100a1c589102794ad20da680000801ca057074cd3e338e6bf92f106058ed2e5f4ac1089728401c30365569017e1813123a0a7df6738c04c9111c80b0bf80ed11b34237c7291dbce413be4250f893ea7c894",
      "networkId": 0,
      "chainId": 0
    }
  ]
}