{
  "hash": "0x4bba00fbe98f93f10db073c0892e371af3f018618f0ddabe705a7f53bae2251e",
  "parentHash": "0xc394581ca9a859d8d92a394df453dc38115d5d12ef87f467c62a1be8cd5d0d82",
  "number": 94113,
  "timestamp": 1439702883,
  "nonce": "0x79789b4dcb590963",
  "difficulty": 3481691185518,
  "gasLimit": {
    "_hex": "0x2fefd8"
  },
  "gasUsed": {
    "_hex": "0xa410"
  },
  "miner": "0xfFcD9CAE6d9f54fd8ae05296F839892677ff6EaA",
  "extraData": "0x476574682f76312e302e312f77696e646f77732f676f312e342e32",
  "transactions": [
    {
      "hash": "0x3683d3dca78cf07e5a9f70c99a0eb88af95ae181df0bbc12979516601767ff44",
      "blockHash": "0x4bba00fbe98f93f10db073c0892e371af3f018618f0ddabe705a7f53bae2251e",
      "blockNumber": 94113,
      "transactionIndex": 0,
      "confirmations": null,
      "from": "0x32Be343B94f860124dC4fEe278FDCBD38C102D88",
      "gasPrice": {
        "_hex": "0xe0c7d061e"
      },
      "gasLimit": {
        "_hex": "0x5208"
      },
      "to": "0xc93a69dFC0fb3E867D9207599f7fe87d51619635",
      "value": {
        "_hex": "0x4563918244f400000"
      },
      "nonce": 944,
      "data": "0x",
      "r": "0xfa249bdfa39f0edef05b6d1d0132fa0c8e8062325cbe194f267527ee31bef9b7",
      "s": "0x19793a57b4061fbfb794a2408c56373c607947ff014799021f600287beb044e8",
      "v": 27,
      "creates": null,
      "raw": "0xf86f8203b0850e0c7d061e82520894c93a69dfc0fb3e867d9207599f7fe87d516196358904563918244f400000801ba0fa249bdfa39f0edef05b6d1d0132fa0c8e8062325cbe194f267527ee31bef9b7a019793a57b4061fbfb794a2408c56373c607947ff014799021f600287beb044e8",
      "networkId": 0,
      "chainId": 0
    },
    {
      "hash": "0x0e255a90c3576b56315fd922fd693ca68cca23e6900ccf21ac128cba068cc724",
      "blockHash": "0x4bba00fbe98f93f10db073c0892e371af3f018618f0ddabe705a7f53bae2251e",
      "blockNumber": 94113,
      "transactionIndex": 1,
      "confirmations": null,
      "from": "0x2910543Af39abA0Cd09dBb2D50200b3E800A63D2",
      "gasPrice": {
        "_hex": "0xdf3cea9dc"
      },
      "gasLimit": {
        "_hex": "0x5208"
      },
      "to": "0x4459e455175681CB925de98347A69DcC99A640DA",
      "value": {
        "_hex": "0x3771175565af8000"
      },
      "nonce": 866,
      "data": "0x",
      "r": "0xac0d22558f63ebb78ddd29b1f6dcdda1d4c96c55cb687c243c9a58cd31e50a9b",
      "s": "0x64e5bd6dcd3da3cbd0105e8ea2addd07452014b8919c91ca7549d3d7c064fe05",
      "v": 28,
      "creates": null,
      "raw": "0xf86e820362850df3cea9dc825208944459e455175681cb925de98347a69dcc99a640da883771175565af8000801ca0ac0d22558f63ebb78ddd29b1f6dcdda1d4c96c55cb687c243c9a58cd31e50a9ba064e5bd6dcd3da3cbd0105e8ea2addd07452014b8919c91ca7549d3d7c064fe05",
      "networkId": 0,
      "chainId": 0
    }
  ]
}