{
  "hash": "0xdd8785201e7397c034b3c7575add9b9495d1ca77630d5848926be0580ed6927d",
  "parentHash": "0xe3b31c2e3a8b4d9743e95c5a04a096bb2181bddb30e1fbe61fd8b8c75d3aff44",
  "number": 86025,
  "timestamp": 1439572376,
  "nonce": "0xbce3378e1bb5c7b7",
  "difficulty": 2789398680264,
  "gasLimit": {
    "_hex": "0x2fefd8"
  },
  "gasUsed": {
    "_hex": "0x5208"
  },
  "miner": "0x9746c7e1ef2bd21FF3997fa467593a89cb852BD0",
  "extraData": "0x476574682f76312e302e312f77696e646f77732f676f312e342e32",
  "transactions": [
    {
      "hash": "0xaa7b9de856c61c6d3eca996d383a6afe9b68f9cfd8360c1e5c28c2e7be4b31ea",
      "blockHash": "0xdd8785201e7397c034b3c7575add9b9495d1ca77630d5848926be0580ed6927d",
      "blockNumber": 86025,
      "transactionIndex": 0,
      "confirmations": null,
      "from": "0x76628150e2995B5b279FC83e0DD5F102A671dd1C",
      "gasPrice": {
        "_hex": "0xd829211eb"
      },
      "gasLimit": {
        "_hex": "0x15f90"
      },
      "to": "0x00d4C26dee05E008302b543291B452768145beeD",
      "value": {
        "_hex": "0x21e0c0013070adc0000"
      },
      "nonce": 3,
      "data": "0x",
      "r": "0x04c83ef37138228d3d8ad16a36e824d4760c0131c77088cce458c248bb92a4cd",
      "s": "0x75a399d97c158ad7e482d3d869737602ccc8854b2c2d920781822144d5f2bbd8",
      "v": 28,
      "creates": null,
      "raw": "0xf86f03850d829211eb83015f909400d4c26dee05e008302b543291b452768145beed8a021e0c0013070adc0000801ca004c83ef37138228d3d8ad16a36e824d4760c0131c77088cce458c248bb92a4cda075a399d97c158ad7e482d3d869737602ccc8854b2c2d920781822144d5f2bbd8",
      "networkId": 0,
      "chainId": 0
    }
  ]
}