{
  "hash": "0x5dbda22d5307e5a0d68c7e694d6981f78db55b48d9a986d3bd4160cdd2980410",
  "parentHash": "0x8b7b2e2ba8d9ea4e4c89bd3f1b668d7bd646c596bab4e6e494c588c9f07ecbee",
  "number": 87365,
  "timestamp": 1439591123,
  "nonce": "0xebd30baa8e5936fb",
  "difficulty": 3111302080615,
  "gasLimit": {
    "_hex": "0x2fefd8"
  },
  "gasUsed": {
    "_hex": "0x14820"
  },
  "miner": "0x2f6BCe4fc330B69C9B4c2694d57C63Ec7B18feC7",
  "extraData": "0x476574682f76312e302e312f77696e646f77732f676f312e342e32",
  "transactions": [
    {
      "hash": "0x675bd6e96bd0f59cb999f87b3ef27b56257e72af817f22f82aba8823e1aa45a6",
      "blockHash": "0x5dbda22d5307e5a0d68c7e694d6981f78db55b48d9a986d3bd4160cdd2980410",
      "blockNumber": 87365,
      "transactionIndex": 0,
      "confirmations": null,
      "from": "0xC47Aaa860008be6f65B58c6C6E02a84e666EfE31",
      "gasPrice": {
        "_hex": "0xd829211eb"
      },
      "gasLimit": {
        "_hex": "0x15f90"
      },
      "to": "0x5F9Ec73c8bAc1eD8dBCA4143550A1ed27FaeB9bf",
      "value": {
        "_hex": "0x1bbddfe8aa01806e"
      },
      "nonce": 22,
      "data": "0x",
      "r": "0xd59cddbbbd9dfb928ff668269f162ea50f0ed1610dc329294beaa62665827572",
      "s": "0x102bc6bc6f7829860f50f8363da605c96f577919baa4e9b9992a99ef78b6b330",
      "v": 28,
      "creates": null,
      "raw": "0xf86d16850d829211eb83015f90945f9ec73c8bac1ed8dbca4143550a1ed27faeb9bf881bbddfe8aa01806e801ca0d59cddbbbd9dfb928ff668269f162ea50f0ed1610dc329294beaa62665827572a0102bc6bc6f7829860f50f8363da605c96f577919baa4e9b9992a99ef78b6b330",
      "networkId": 0,
      "chainId": 0
    },
    {
      "hash": "0x7f8298bf12ea5087d811879d1423cec6b4d80fe247cc38181be5c45740845df4",
      "blockHash": "0x5dbda22d5307e5a0d68c7e694d6981f78db55b48d9a986d3bd4160cdd2980410",
      "blockNumber": 87365,
      "transactionIndex": 1,
      "confirmations": null,
      "from": "0xC47Aaa860008be6f65B58c6C6E02a84e666EfE31",
      "gasPrice": {
        "_hex": "0xd829211eb"
      },
      "gasLimit": {
        "_hex": "0x15f90"
      },
      "to": "0xD99d94142876F98Ad27DFB1093E48B2a23070E38",
      "value": {
        "_hex": "0x1d92d535a05b7f275"
      },
      "nonce": 23,
      "data": "0x",
      "r": "0xd7de3b03a117b31ce828e1adff31dd2c29f53f8fdf22a0b1c30bf7d9a9a49bfd",
      "s": "0x21ed0f3db0828e9c2cdc5248da2684731498e553600292994a04ac5559f7b329",
      "v": 27,
      "creates": null,
      "raw": "0xf86e17850d829211eb83015f9094d99d94142876f98ad27dfb1093e48b2a23070e388901d92d535a05b7f275801ba0d7de3b03a117b31ce828e1adff31dd2c29f53f8fdf22a0b1c30bf7d9a9a49bfda021ed0f3db0828e9c2cdc5248da2684731498e553600292994a04ac5559f7b329",
      "networkId": 0,
      "chainId": 0
    },
    {
      "hash": "0x91b7b5af93bffe83725da03d6df25fd9632bf0566f038b2621c361a2f9675345",
      "blockHash": "0x5dbda22d5307e5a0d68c7e694d6981f78db55b48d9a986d3bd4160cdd2980410",
      "blockNumber": 87365,
      "transactionIndex": 2,
      "confirmations": null,
      "from": "0x4c74B6F32c9680aCB5Fe0e72B7Aa95C612540A04",
      "gasPrice": {
        "_hex": "0xd34e14f1c"
      },
      "gasLimit": {
        "_hex": "0x5208"
      },
      "to": "0x32Be343B94f860124dC4fEe278FDCBD38C102D88",
      "value": {
        "_hex": "0x22b1850b79af44000"
      },
      "nonce": 28,
      "data": "0x",
      "r": "0xa8d8922f5fbce4aa6d013f0cc27c4f61b584f33107543d0921fffd2c36ecb982",
      "s": "0x6e0c0b6d9ef75ed5e1a49ead9581ab944d7562c2d81fdc794be1ad29c0cf6416",
      "v": 28,
      "creates": null,
      "raw": "0xf86d1c850d34e14f1c8252089432be343b94f860124dc4fee278fdcbd38c102d8889022b1850b79af44000801ca0a8d8922f5fbce4aa6d013f0cc27c4f61b584f33107543d0921fffd2c36ecb982a06e0c0b6d9ef75ed5e1a49ead9581ab944d7562c2d81fdc794be1ad29c0cf6416",
      "networkId": 0,
      "chainId": 0
    },
    {
      "hash": "0x6f02cc78e84a28d29881aaf8d55b54e20422f9f8021617ebda9274e051e4f4a8",
      "blockHash": "0x5dbda22d5307e5a0d68c7e694d6981f78db55b48d9a986d3bd4160cdd2980410",
      "blockNumber": 87365,
      "transactionIndex": 3,
      "confirmations": null,
      "from": "0x077BC4363eBf116c408C421b293cB018d22779fc",
      "gasPrice": {
        "_hex": "0xba43b7400"
      },
      "gasLimit": {
        "_hex": "0x5208"
      },
      "to": "0xC47Aaa860008be6f65B58c6C6E02a84e666EfE31",
      "value": {
        "_hex": "0x56bc3a335360c6000"
      },
      "nonce": 4,
      "data": "0x",
      "r": "0x82b86aebab46c059f1ae2b0646a564c99b0800482347beef1e9f5a56d6cf92f6",
      "s": "0x4f6cfc7a0515434aa080f4b719f6bf92e16abcb2ad9f2336a4695fa83c468ad9",
      "v": 28,
      "creates": null,
      "raw": "0xf86d04850ba43b740082520894c47aaa860008be6f65b58c6c6e02a84e666efe3189056bc3a335360c6000801ca082b86aebab46c059f1ae2b0646a564c99b0800482347beef1e9f5a56d6cf92f6a04f6cfc7a0515434aa080f4b719f6bf92e16abcb2ad9f2336a4695fa83c468ad9",
      "networkId": 0,
      "chainId": 0
    }
  ]
}