{
  "hash": "0x7dc28f48e63f8e3f4b5c4e70259472d4289ea222a3d1ea2c34b66bc73d277a9f",
  "parentHash": "0x70269ac3668fb5a643453d11278e57d428beb033823ef1e8e92bab2111801470",
  "number": 109032,
  "timestamp": 1439950026,
  "nonce": "0x1d1423227ac68425",
  "difficulty": 4399889941969,
  "gasLimit": {
    "_hex": "0x2fe3de"
  },
  "gasUsed": {
    "_hex": "0x5208"
  },
  "miner": "0x661eedD93dA06499d3220aA2aDF05d6d2417e60c",
  "extraData": "0x476574682f76312e302e302d64373231316465632f6c696e75782f676f312e34",
  "transactions": [
    {
      "hash": "0x63c4a836cce5be0cae9f391931325b662188683489c2fc88759ab82cbb227845",
      "blockHash": "0x7dc28f48e63f8e3f4b5c4e70259472d4289ea222a3d1ea2c34b66bc73d277a9f",
      "blockNumber": 109032,
      "transactionIndex": 0,
      "confirmations": null,
      "from": "0xA10C59651885FeAaac91F871082a23BBbaBeDfCf",
      "gasPrice": {
        "_hex": "0x106a2294f1d"
      },
      "gasLimit": {
        "_hex": "0x5208"
      },
      "to": "0x4c74B6F32c9680aCB5Fe0e72B7Aa95C612540A04",
      "value": {
        "_hex": "0x4563918244f40000"
      },
      "nonce": 43,
      "data": "0x",
      "r": "0xfadbd2cef63310a203ca9d597bbdde7d0d101292bfd395ec0c406df43235cbe8",
      "s": "0x01e0ff2358684ce0521d25875d4df4011af118a9f2d0d422bfff0c1d1274f31a",
      "v": 28,
      "creates": null,
      "raw": "0xf86d2b860106a2294f1d825208944c74b6f32c9680acb5fe0e72b7aa95c612540a04884563918244f40000801ca0fadbd2cef63310a203ca9d597bbdde7d0d101292bfd395ec0c406df43235cbe8a001e0ff2358684ce0521d25875d4df4011af118a9f2d0d422bfff0c1d1274f31a",
      "networkId": 0,
      "chainId": 0
    }
  ]
}