{
  "hash": "0xdd4f1ab2b0bee6ea80589476ba07d58da2f304cad9519c07ad30d153b126f46b",
  "parentHash": "0xa2d1d375e39b43741ed4376a3234045fd8259d7c91f1ea86d5fe3e2921c9ab32",
  "number": 48985,
  "timestamp": 1438965991,
  "nonce": "0x51156c9580ccbb69",
  "difficulty": 1485090752653,
  "gasLimit": {
    "_hex": "0x22a7f"
  },
  "gasUsed": {
    "_hex": "0x546c"
  },
  "miner": "0xf927a40C8B7F6E07c5af7FA2155B4864a4112B13",
  "extraData": "0x476574682f76312e302e312f6c696e75782f676f312e342e32",
  "transactions": [
    {
      "hash": "0xa43e63956ab66503b62abd7c50a5e4530bc0d07d2d8c697e7f3a36f06a9fe88f",
      "blockHash": "0xdd4f1ab2b0bee6ea80589476ba07d58da2f304cad9519c07ad30d153b126f46b",
      "blockNumber": 48985,
      "transactionIndex": 0,
      "confirmations": null,
      "from": "0x0cDA12BF72d461BBc479eB92e6491d057e6B5Ad1",
      "gasPrice": {
        "_hex": "0x68c6171400"
      },
      "gasLimit": {
        "_hex": "0x55f0"
      },
      "to": "0x2910543Af39abA0Cd09dBb2D50200b3E800A63D2",
      "value": {
        "_hex": "0x2386f26fc10000"
      },
      "nonce": 13,
      "data": "0x454e4d57434b5a5752",
      "r": "0x363a8871e0968d5b728c402131af2acb788c483c1da9c22e609dc27f892e3a60",
      "s": "0x255283ad40f606fa7603a52e08465a8dde1ae1a269960670caa4ecb788e8301d",
      "v": 28,
      "creates": null,
      "raw": "0xf8740d8568c61714008255f0942910543af39aba0cd09dbb2d50200b3e800a63d2872386f26fc1000089454e4d57434b5a57521ca0363a8871e0968d5b728c402131af2acb788c483c1da9c22e609dc27f892e3a60a0255283ad40f606fa7603a52e08465a8dde1ae1a269960670caa4ecb788e8301d",
      "networkId": 0,
      "chainId": 0
    }
  ]
}