{
  "hash": "0xb5281534803a32438c0522a89ca04eb26948f6592fdeaa8c832c3f5739093ee2",
  "parentHash": "0x4dff0fc978933126fda0f37cca5f9e5213b20f5514ef83df1d6fbb0ecb330a44",
  "number": 105363,
  "timestamp": 1439886307,
  "nonce": "0x1ffd48ac122aabcd",
  "difficulty": 4356909602557,
  "gasLimit": {
    "_hex": "0x2fefd8"
  },
  "gasUsed": {
    "_hex": "0x5208"
  },
  "miner": "0xe6A7a1d47ff21B6321162AEA7C6CB457D5476Bca",
  "extraData": "0x476574682f76312e302e312d38326566323666362f6c696e75782f676f312e34",
  "transactions": [
    {
      "hash": "0xeefe3e2c66bd5d157f8d3ab23aa7aef2f99462dc46eec1ab3aa82e83a404312d",
      "blockHash": "0xb5281534803a32438c0522a89ca04eb26948f6592fdeaa8c832c3f5739093ee2",
      "blockNumber": 105363,
      "transactionIndex": 0,
      "confirmations": null,
      "from": "0x6589D22b54648e5D67Dc008eBd0c836D3DF39c87",
      "gasPrice": {
        "_hex": "0xd77c63b1c"
      },
      "gasLimit": {
        "_hex": "0x5208"
      },
      "to": "0x32Be343B94f860124dC4fEe278FDCBD38C102D88",
      "value": {
        "_hex": "0x7d0cabb0bae9d400"
      },
      "nonce": 7,
      "data": "0x",
      "r": "0x53606cdb2c8129b25d26ea591bc173344818e51339a914027903a73ea457084e",
      "s": "0x190ee5fe95b3dda581cb0b518eed44f16e2904273a98f94caffe090e76fd6ee3",
      "v": 28,
      "creates": null,
      "raw": "0xf86c07850d77c63b1c8252089432be343b94f860124dc4fee278fdcbd38c102d88887d0cabb0bae9d400801ca053606cdb2c8129b25d26ea591bc173344818e51339a914027903a73ea457084ea0190ee5fe95b3dda581cb0b518eed44f16e2904273a98f94caffe090e76fd6ee3",
      "networkId": 0,
      "chainId": 0
    }
  ]
}