{
  "hash": "0xda51c5375ac01bb7ce56bed99d79a95b99a8690484095c609ee4eab37d9594c2",
  "parentHash": "0x000461c2030e9f3c5a92d6a58cc7d89ce36e82159a379eedfb92e715f95e1f2e",
  "number": 48544,
  "timestamp": 1438958785,
  "nonce": "0x2489030aa29e9a28",
  "difficulty": 1468582992136,
  "gasLimit": {
    "_hex": "0x192f9"
  },
  "gasUsed": {
    "_hex": "0x5208"
  },
  "miner": "0x306e6267d94f23a9b37Cb110f20852208Fbbf1aA",
  "extraData": "0x476574682f76312e302e312f77696e646f77732f676f312e342e32",
  "transactions": [
    {
      "hash": "0x309e8e848f218a7e69ee102dc1dc347581486242e2f7067100a8167cfe373f29",
      "blockHash": "0xda51c5375ac01bb7ce56bed99d79a95b99a8690484095c609ee4eab37d9594c2",
      "blockNumber": 48544,
      "transactionIndex": 0,
      "confirmations": null,
      "from": "0xd54F0a1c743C432d7af0Db15C2D87F483b52439B",
      "gasPrice": {
        "_hex": "0xdf199614e"
      },
      "gasLimit": {
        "_hex": "0x15f90"
      },
      "to": "0xBB963702FBc80e8436661fe6B60b0638f8deFDE2",
      "value": {
        "_hex": "0xe8d4a51000"
      },
      "nonce": 2,
      "data": "0x",
      "r": "0xf1fe0740a4d09e922a5ea653d455e8509fc83d37b5ebec29dc265b2812d89497",
      "s": "0x469d04877b7f059c930dc8dbcea515c172146837cd62462f5751da893e44cd1b",
      "v": 28,
      "creates": null,
      "raw": "0xf86a02850df199614e83015f9094bb963702fbc80e8436661fe6b60b0638f8defde285e8d4a51000801ca0f1fe0740a4d09e922a5ea653d455e8509fc83d37b5ebec29dc265b2812d89497a0469d04877b7f059c930dc8dbcea515c172146837cd62462f5751da893e44cd1b",
      "networkId": 0,
      "chainId": 0
    }
  ]
}