{
  "hash": "0xbc46b460445cc121edd635b3f3aa6c817302e5198c46f3deab67d023b4eeb2d1",
  "parentHash": "0x24be953f759548882409998ae92fb235a417843d7d0c3e838e742b98891eda70",
  "number": 93531,
  "timestamp": 1439692338,
  "nonce": "0x64120ce9e706ba23",
  "difficulty": 3481932752992,
  "gasLimit": {
    "_hex": "0x2fefd8"
  },
  "gasUsed": {
    "_hex": "0x5208"
  },
  "miner": "0x9746c7e1ef2bd21FF3997fa467593a89cb852BD0",
  "extraData": "0x476574682f76312e302e312f77696e646f77732f676f312e342e32",
  "transactions": [
    {
      "hash": "0xd5b0b469056a326f6c2d4b6aeb12decb57863773f5594f94c44ef174a6e09680",
      "blockHash": "0xbc46b460445cc121edd635b3f3aa6c817302e5198c46f3deab67d023b4eeb2d1",
      "blockNumber": 93531,
      "transactionIndex": 0,
      "confirmations": null,
      "from": "0x2910543Af39abA0Cd09dBb2D50200b3E800A63D2",
      "gasPrice": {
        "_hex": "0xd84e52683"
      },
      "gasLimit": {
        "_hex": "0x5208"
      },
      "to": "0x2f86ba8019945f39edE131D38d4d8780884DA553",
      "value": {
        "_hex": "0x6c6b819812855f8000"
      },
      "nonce": 855,
      "data": "0x",
      "r": "0x651f1d4ef75a89bd5e693296c12fdaea6a7f187c2e8f3ab572ba9152bdbaa986",
      "s": "0x4e5a2f605dd38c1a42c18663dfc5308a99a3d6f7386e8bd221e1f295beec94cd",
      "v": 28,
      "creates": null,
      "raw": "0xf86f820357850d84e52683825208942f86ba8019945f39ede131d38d4d8780884da553896c6b819812855f8000801ca0651f1d4ef75a89bd5e693296c12fdaea6a7f187c2e8f3ab572ba9152bdbaa986a04e5a2f605dd38c1a42c18663dfc5308a99a3d6f7386e8bd221e1f295beec94cd",
      "networkId": 0,
      "chainId": 0
    }
  ]
}