{
  "hash": "0xed9c317216dfad9439cf0d8312658f12988025ad815c9496212efc4ccc50ff02",
  "parentHash": "0x0ba476821e4274881b09e5d3a9ea9db33b9f6d5f056179e04e2dd5ff2f9e718b",
  "number": 91905,
  "timestamp": 1439663565,
  "nonce": "0xfce3d85f880802fb",
  "difficulty": 3475812405957,
  "gasLimit": {
    "_hex": "0x2fefd8"
  },
  "gasUsed": {
    "_hex": "0x19a28"
  },
  "miner": "0x7E6930B63D03e88F5928C5cd6ee3FCee4D714F7F",
  "extraData": "0x",
  "transactions": [
    {
      "hash": "0xc00a242e00f39fad0e52ce97770fdc9564e0fed3b5ec982f4527ec1a59a162bb",
      "blockHash": "0xed9c317216dfad9439cf0d8312658f12988025ad815c9496212efc4ccc50ff02",
      "blockNumber": 91905,
      "transactionIndex": 0,
      "confirmations": null,
      "from": "0xb50405193Dc0c7077dD65252C15C39242F0aCB76",
      "gasPrice": {
        "_hex": "0xce912f95e"
      },
      "gasLimit": {
        "_hex": "0x5208"
      },
      "to": "0x32Be343B94f860124dC4fEe278FDCBD38C102D88",
      "value": {
        "_hex": "0x1e5b4d7803e103000"
      },
      "nonce": 6,
      "data": "0x",
      "r": "0x20d58ffdf69711666d425e3b4768d75d1168d821e0aa618ca1f62280ca105977",
      "s": "0x105c38eb64e0bf5728050a7ff2e68a988ae29765bb732599a9554ac2f40e7d5a",
      "v": 28,
      "creates": null,
      "raw": "0xf86d06850ce912f95e8252089432be343b94f860124dc4fee278fdcbd38c102d888901e5b4d7803e103000801ca020d58ffdf69711666d425e3b4768d75d1168d821e0aa618ca1f62280ca105977a0105c38eb64e0bf5728050a7ff2e68a988ae29765bb732599a9554ac2f40e7d5a",
      "networkId": 0,
      "chainId": 0
    },
    {
      "hash": "0x51d5f7d17eebde7f560af2c42b9fc8e078c3f7a5854adc94812b330251b38274",
      "blockHash": "0xed9c317216dfad9439cf0d8312658f12988025ad815c9496212efc4ccc50ff02",
      "blockNumber": 91905,
      "transactionIndex": 1,
      "confirmations": null,
      "from": "0x79d5794171E11dd5C2f0e26E1C187319db2FE6f7",
      "gasPrice": {
        "_hex": "0xce912f95e"
      },
      "gasLimit": {
        "_hex": "0x5208"
      },
      "to": "0x32Be343B94f860124dC4fEe278FDCBD38C102D88",
      "value": {
        "_hex": "0x340693eb9d68b800"
      },
      "nonce": 32,
      "data": "0x",
      "r": "0x6f8ad7c532f422b3e4c334d4dfb76cb25e06344e4ea9b906477a7a44df9e374c",
      "s": "0x75b212ac13b8f41ab1f1bf32144b5d4ed572479510329cd7864a27360ab566ff",
      "v": 27,
      "creates": null,
      "raw": "0xf86c20850ce912f95e8252089432be343b94f860124dc4fee278fdcbd38c102d8888340693eb9d68b800801ba06f8ad7c532f422b3e4c334d4dfb76cb25e06344e4ea9b906477a7a44df9e374ca075b212ac13b8f41ab1f1bf32144b5d4ed572479510329cd7864a27360ab566ff",
      "networkId": 0,
      "chainId": 0
    },
    {
      "hash": "0x8bcf01da7970b480201d121fa25b500345336c4cb2bb86c38afb8df1c568586e",
      "blockHash": "0xed9c317216dfad9439cf0d8312658f12988025ad815c9496212efc4ccc50ff02",
      "blockNumber": 91905,
      "transactionIndex": 2,
      "confirmations": null,
      "from": "0x3D96803b62814598744c91D312be9d41592F5FCC",
      "gasPrice": {
        "_hex": "0xce912f95e"
      },
      "gasLimit": {
        "_hex": "0x5208"
      },
      "to": "0x32Be343B94f860124dC4fEe278FDCBD38C102D88",
      "value": {
        "_hex": "0x299e010b51902c00"
      },
      "nonce": 0,
      "data": "0x",
      "r": "0x136738d40054b65677476404828faa136df91b62d85cb3e218ab07a6bf11e6d6",
      "s": "0x24bb5e9018d9830abda6dbc0f9ca7c7142a4ccddf6aed515073d268c5e7073c2",
      "v": 27,
      "creates": null,
      "raw": "0xf86c80850ce912f95e8252089432be343b94f860124dc4fee278fdcbd38c102d8888299e010b51902c00801ba0136738d40054b65677476404828faa136df91b62d85cb3e218ab07a6bf11e6d6a024bb5e9018d9830abda6dbc0f9ca7c7142a4ccddf6aed515073d268c5e7073c2",
      "networkId": 0,
      "chainId": 0
    },
    {
      "hash": "0xdaec08f39d7e413522e86556e70b52930060ab187db4f4ade654b9bcf93cc025",
      "blockHash": "0xed9c317216dfad9439cf0d8312658f12988025ad815c9496212efc4ccc50ff02",
      "blockNumber": 91905,
      "transactionIndex": 3,
      "confirmations": null,
      "from": "0xd001423ff4428020C98CE20ff5E69814A1a196cE",
      "gasPrice": {
        "_hex": "0xce912f95e"
      },
      "gasLimit": {
        "_hex": "0x5208"
      },
      "to": "0x32Be343B94f860124dC4fEe278FDCBD38C102D88",
      "value": {
        "_hex": "0xad7fac8a292c00"
      },
      "nonce": 0,
      "data": "0x",
      "r": "0x0ec8f43700299a583861dabb9cec902c138b3d4ce7e3dd28113b70ec13aa5149",
      "s": "0x03dcc6de719278471eb887e1bf895797f571df50b28c896fa27c0fb8c6ca65ba",
      "v": 27,
      "creates": null,
      "raw": "0xf86b80850ce912f95e8252089432be343b94f860124dc4fee278fdcbd38c102d8887ad7fac8a292c00801ba00ec8f43700299a583861dabb9cec902c138b3d4ce7e3dd28113b70ec13aa5149a003dcc6de719278471eb887e1bf895797f571df50b28c896fa27c0fb8c6ca65ba",
      "networkId": 0,
      "chainId": 0
    },
    {
      "hash": "0xfad8cc64ca718fdc91616dcc2fea651ba0f14c116a731d698e649965e50e4848",
      "blockHash": "0xed9c317216dfad9439cf0d8312658f12988025ad815c9496212efc4ccc50ff02",
      "blockNumber": 91905,
      "transactionIndex": 4,
      "confirmations": null,
      "from": "0xa70a9a7040d542C632D8e0bE7c5513A8a5Bbc752",
      "gasPrice": {
        "_hex": "0xce912f95e"
      },
      "gasLimit": {
        "_hex": "0x5208"
      },
      "to": "0x32Be343B94f860124dC4fEe278FDCBD38C102D88",
      "value": {
        "_hex": "0x34068a120f1b2c00"
      },
      "nonce": 122,
      "data": "0x",
      "r": "0xb6ff73f3b543427e81272e6241e9953d8cdc3090093044e05e6d99e2666a4c33",
      "s": "0x5812deade7ebf4e4dedd04b8c6e91bf9da62939b85c10b7d26154b9d6ca77e5f",
      "v": 28,
      "creates": null,
      "raw": "0xf86c7a850ce912f95e8252089432be343b94f860124dc4fee278fdcbd38c102d888834068a120f1b2c00801ca0b6ff73f3b543427e81272e6241e9953d8cdc3090093044e05e6d99e2666a4c33a05812deade7ebf4e4dedd04b8c6e91bf9da62939b85c10b7d26154b9d6ca77e5f",
      "networkId": 0,
      "chainId": 0
    }
  ]
}