{
  "hash": "0xb263dc26a9c3f3bf0cd1f0e9769cf2519b03a1a7f4d4366e92e861a2ed524cef",
  "parentHash": "0x982414d02d8a5bc5fa44605b3621049c1f34c0fe3cbf608a2c5af3bde6398367",
  "number": 73661,
  "timestamp": 1439372777,
  "nonce": "0x37c65a3e629a8c30",
  "difficulty": 2225008796690,
  "gasLimit": {
    "_hex": "0x2fefd8"
  },
  "gasUsed": {
    "_hex": "0x546c"
  },
  "miner": "0x5e1a72dde3Ffc20B77eA8382E916EF04C89ff2Bd",
  "extraData": "0x476574682f76312e302e302f77696e646f77732f676f312e342e32",
  "transactions": [
    {
      "hash": "0x4771898d37b10c8ee1f0e7b1bc3f6fc7eaa9e238b569a798674b801fab2b701f",
      "blockHash": "0xb263dc26a9c3f3bf0cd1f0e9769cf2519b03a1a7f4d4366e92e861a2ed524cef",
      "blockNumber": 73661,
      "transactionIndex": 0,
      "confirmations": null,
      "from": "0x6294EAE6e420A3d5600a39C4141f838FF8E7CC48",
      "gasPrice": {
        "_hex": "0x110c8f7d8de"
      },
      "gasLimit": {
        "_hex": "0xc350"
      },
      "to": "0x2910543Af39abA0Cd09dBb2D50200b3E800A63D2",
      "value": {
        "_hex": "0x4e8cea1ede75040000"
      },
      "nonce": 1,
      "data": "0x454e3139324b345547",
      "r": "0x26b81a19c9615381de613a73c559ab6f6e82904ce7b818f59c02977f7c86234b",
      "s": "0xb4efb6169cff82df38697882de9f3f170d1d8e9467f2251c7ee5f966147cf4ea",
      "v": 27,
      "creates": null,
      "raw": "0xf87701860110c8f7d8de82c350942910543af39aba0cd09dbb2d50200b3e800a63d2894e8cea1ede7504000089454e3139324b3455471ba026b81a19c9615381de613a73c559ab6f6e82904ce7b818f59c02977f7c86234ba0b4efb6169cff82df38697882de9f3f170d1d8e9467f2251c7ee5f966147cf4ea",
      "networkId": 0,
      "chainId": 0
    }
  ]
}