{
  "hash": "0xffbdca6585ce837d6225b5268e719ac842f0fcdc2b9e8f03823aba275921e063",
  "parentHash": "0x8c14752d209cc6a13ffc8df2c40384209d75ce67b976cca179d32e4ff914436b",
  "number": 75184,
  "timestamp": 1439399072,
  "nonce": "0x08fac48dd75d29fe",
  "difficulty": 2191185219313,
  "gasLimit": {
    "_hex": "0x2fefd8"
  },
  "gasUsed": {
    "_hex": "0x8f9f"
  },
  "miner": "0xf8E0CA3Ed80bd541b94BEdCf259e8CF2141A9523",
  "extraData": "0x476574682f76312e302e312f77696e646f77732f676f312e342e32",
  "transactions": [
    {
      "hash": "0x0a816146d7d272d1afd40db88f31cddd54d7a21c88bbabd73b84f3a2af9c308d",
      "blockHash": "0xffbdca6585ce837d6225b5268e719ac842f0fcdc2b9e8f03823aba275921e063",
      "blockNumber": 75184,
      "transactionIndex": 0,
      "confirmations": null,
      "from": "0x326Be8F71bFb0379f989aAB1CC1fE37f0a771f60",
      "gasPrice": {
        "_hex": "0x112239e19fe"
      },
      "gasLimit": {
        "_hex": "0x493e0"
      },
      "to": "0xD79B4C6791784184e2755B2fC1659eaaB0f80456",
      "value": {
        "_hex": "0xde0b6b3a7640000"
      },
      "nonce": 83,
      "data": "0x8d216186000000000000000000000000000000000000000000000000000000000000004035a006d1f9da1c217776d55216a861a10d4c931f0a07947ba8fc3a335d23dad1",
      "r": "0xbac0d236262febe25af6a6786b5ad2eff2afa9f623fdbdbc1e67fe1e2cddef35",
      "s": "0x1ff6de553b6f0a6d31a5800432acda96c3a4408daff51e8a23690b2aac3278fd",
      "v": 28,
      "creates": null,
      "raw": "0xf8b353860112239e19fe830493e094d79b4c6791784184e2755b2fc1659eaab0f80456880de0b6b3a7640000b8448d216186000000000000000000000000000000000000000000000000000000000000004035a006d1f9da1c217776d55216a861a10d4c931f0a07947ba8fc3a335d23dad11ca0bac0d236262febe25af6a6786b5ad2eff2afa9f623fdbdbc1e67fe1e2cddef35a01ff6de553b6f0a6d31a5800432acda96c3a4408daff51e8a23690b2aac3278fd",
      "networkId": 0,
      "chainId": 0
    }
  ]
}