{
  "hash": "0xcd1b7b57d3906e2fb26ca2e024d054df999e9eed8686438b91f515c1d96e47c7",
  "parentHash": "0x0c5bbb2971289e16f03a9be1434f7ec22bb802e32e8a7414189c0a6fb71fc379",
  "number": 63515,
  "timestamp": 1439205772,
  "nonce": "0x7d0c933ccb322cee",
  "difficulty": 1832457296956,
  "gasLimit": {
    "_hex": "0x2fefd8"
  },
  "gasUsed": {
    "_hex": "0x5208"
  },
  "miner": "0x9D49F602b0fdb924Bd63DDE2Bd0907E4A07c63a7",
  "extraData": "0x476574682f76312e302e312f6c696e75782f676f312e342e32",
  "transactions": [
    {
      "hash": "0xab05c1f529f80f47dd9e1f76d2d608c108d15d0013847d3dac8eb0d447780ab8",
      "blockHash": "0xcd1b7b57d3906e2fb26ca2e024d054df999e9eed8686438b91f515c1d96e47c7",
      "blockNumber": 63515,
      "transactionIndex": 0,
      "confirmations": null,
      "from": "0xEF247E639d49461D25F57e9362CadE3120910Ce0",
      "gasPrice": {
        "_hex": "0xd3e1c71e5"
      },
      "gasLimit": {
        "_hex": "0x15f90"
      },
      "to": "0xF87481A262E993a75F791E7859E71BaC36A606Eb",
      "value": {
        "_hex": "0xd8d726b7177a80000"
      },
      "nonce": 9,
      "data": "0x",
      "r": "0xe498282afdd7e60fbcda3c85789753f396c31592a8a56f3a469b1f034a4b39cb",
      "s": "0x24c021582277f465d0f79c111f15ba296c8b1f6bff1bb3e66e9f4a872ee2c8fa",
      "v": 27,
      "creates": null,
      "raw": "0xf86e09850d3e1c71e583015f9094f87481a262e993a75f791e7859e71bac36a606eb890d8d726b7177a80000801ba0e498282afdd7e60fbcda3c85789753f396c31592a8a56f3a469b1f034a4b39cba024c021582277f465d0f79c111f15ba296c8b1f6bff1bb3e66e9f4a872ee2c8fa",
      "networkId": 0,
      "chainId": 0
    }
  ]
}