{
  "hash": "0x75f9188a81414d40a46c3fe376b6c834e05fdc110d51da7fe898666bb1f07b72",
  "parentHash": "0xcd0ea215907070bd2f5720a43306cabf65f4e451e5360c7d65aa3af8a6492b5c",
  "number": 121085,
  "timestamp": 1440171150,
  "nonce": "0xa5e393632386fb0d",
  "difficulty": 4408615377085,
  "gasLimit": {
    "_hex": "0x2fefd8"
  },
  "gasUsed": {
    "_hex": "0x5208"
  },
  "miner": "0xe6A7a1d47ff21B6321162AEA7C6CB457D5476Bca",
  "extraData": "0xd783010002844765746887676f312e342e32856c696e7578",
  "transactions": [
    {
      "hash": "0x6f7c3d89bb8b1bbc3583ef35973fdedcb2194698c414ffb1d73c4a9250c138b7",
      "blockHash": "0x75f9188a81414d40a46c3fe376b6c834e05fdc110d51da7fe898666bb1f07b72",
      "blockNumber": 121085,
      "transactionIndex": 0,
      "confirmations": null,
      "from": "0x608f4b86321a68453f9adf6F06F7Fc3E621739ad",
      "gasPrice": {
        "_hex": "0xba43b7400"
      },
      "gasLimit": {
        "_hex": "0x5208"
      },
      "to": "0x32Be343B94f860124dC4fEe278FDCBD38C102D88",
      "value": {
        "_hex": "0x455fd68a17f06000"
      },
      "nonce": 92,
      "data": "0x",
      "r": "0xc06779416c2a4222b0600d9af0e9c05d529c9be2618b8e4a05f0d696a72ae3c3",
      "s": "0x41c4ed7d3c6245365cf0076a6e0e66b81a436b19a71fd25dc7be46ed906ebda8",
      "v": 28,
      "creates": null,
      "raw": "0xf86c5c850ba43b74008252089432be343b94f860124dc4fee278fdcbd38c102d8888455fd68a17f06000801ca0c06779416c2a4222b0600d9af0e9c05d529c9be2618b8e4a05f0d696a72ae3c3a041c4ed7d3c6245365cf0076a6e0e66b81a436b19a71fd25dc7be46ed906ebda8",
      "networkId": 0,
      "chainId": 0
    }
  ]
}