{
  "hash": "0x55b65622734219ed81b6d43aadd0abed97f01f4b02ebfcc4fdfa41b9d8a29039",
  "parentHash": "0x5ceb1b44177267a775a31db2e50b7bed0a64c1947aa6390184fb053593096a60",
  "number": 83615,
  "timestamp": 1439538020,
  "nonce": "0xa2d881e8e50fc552",
  "difficulty": 2447957381274,
  "gasLimit": {
    "_hex": "0x2fefd8"
  },
  "gasUsed": {
    "_hex": "0xa410"
  },
  "miner": "0x9A85C18039488f9A3712773119e8C40d7e1c5071",
  "extraData": "0x476574682f76312e302e312f6c696e75782f676f312e342e32",
  "transactions": [
    {
      "hash": "0x72662817e69f165d651e599e04cd1cce4909a6f3ddf383dea67216bc3da84ee9",
      "blockHash": "0x55b65622734219ed81b6d43aadd0abed97f01f4b02ebfcc4fdfa41b9d8a29039",
      "blockNumber": 83615,
      "transactionIndex": 0,
      "confirmations": null,
      "from": "0xd180DdA62Bf752c3BCc493B4Eb8f525B343c6515",
      "gasPrice": {
        "_hex": "0xba43b7400"
      },
      "gasLimit": {
        "_hex": "0x5208"
      },
      "to": "0xC47Aaa860008be6f65B58c6C6E02a84e666EfE31",
      "value": {
        "_hex": "0x2b5e373672eb7b2780"
      },
      "nonce": 0,
      "data": "0x",
      "r": "0x38325b54848fb39e0eaa7218daa9334476ad329e9ed0cdc14b5b3a204ed070c4",
      "s": "0x2406393ade9a4cb9fbdf360f593393fe8a5e663057f6fab3f883c0fd89bf5cb5",
      "v": 28,
      "creates": null,
      "raw": "0xf86d80850ba43b740082520894c47aaa860008be6f65b58c6c6e02a84e666efe31892b5e373672eb7b2780801ca038325b54848fb39e0eaa7218daa9334476ad329e9ed0cdc14b5b3a204ed070c4a02406393ade9a4cb9fbdf360f593393fe8a5e663057f6fab3f883c0fd89bf5cb5",
      "networkId": 0,
      "chainId": 0
    },
    {
      "hash": "0x6e8fe4f169e3aa917aae237110b058b3af16ca9349f3dcecc027b498a3794b2e",
      "blockHash": "0x55b65622734219ed81b6d43aadd0abed97f01f4b02ebfcc4fdfa41b9d8a29039",
      "blockNumber": 83615,
      "transactionIndex": 1,
      "confirmations": null,
      "from": "0xA18fa51c09A433d69c02261Ae6f708115c8a2642",
      "gasPrice": {
        "_hex": "0xba43b7400"
      },
      "gasLimit": {
        "_hex": "0x5208"
      },
      "to": "0xC47Aaa860008be6f65B58c6C6E02a84e666EfE31",
      "value": {
        "_hex": "0xddcfbbb7a606000"
      },
      "nonce": 0,
      "data": "0x",
      "r": "0xa702ace5afa50b98b6b7740ebc2127d768f77a0e751f01385c2b8e2f63ead8ed",
      "s": "0x32353d538b4e59949482fc31e2a3ce0e84e57b6a69b6f58acff4d4334acf35fb",
      "v": 27,
      "creates": null,
      "raw": "0xf86c80850ba43b740082520894c47aaa860008be6f65b58c6c6e02a84e666efe31880ddcfbbb7a606000801ba0a702ace5afa50b98b6b7740ebc2127d768f77a0e751f01385c2b8e2f63ead8eda032353d538b4e59949482fc31e2a3ce0e84e57b6a69b6f58acff4d4334acf35fb",
      "networkId": 0,
      "chainId": 0
    }
  ]
}