{
  "hash": "0x4dc80843e29fe937211bebafaae63f9f2055dba584f0d12a7351316bcd0d642f",
  "parentHash": "0x57f8c2492920b3e2679d2d0a32495458d35e20238e57733ebd1942cc090d0eb7",
  "number": 100198,
  "timestamp": 1439802530,
  "nonce": "0x7d8d192de0955261",
  "difficulty": 3826718361636,
  "gasLimit": {
    "_hex": "0x2fefd8"
  },
  "gasUsed": {
    "_hex": "0x5208"
  },
  "miner": "0xe6A7a1d47ff21B6321162AEA7C6CB457D5476Bca",
  "extraData": "0x476574682f76312e302e312d38326566323666362f6c696e75782f676f312e34",
  "transactions": [
    {
      "hash": "0x68fe080932c959d07227647cebf2196a2a4d9e1b212f7f30875f6480ffab18a8",
      "blockHash": "0x4dc80843e29fe937211bebafaae63f9f2055dba584f0d12a7351316bcd0d642f",
      "blockNumber": 100198,
      "transactionIndex": 0,
      "confirmations": null,
      "from": "0x790b8a3cE86E707ED0eD32bF89B3269692a23CC1",
      "gasPrice": {
        "_hex": "0xdc96a879f"
      },
      "gasLimit": {
        "_hex": "0x15f90"
      },
      "to": "0x4D67f4F0Db45b3B5a3424B39ed8d972F710381D5",
      "value": {
        "_hex": "0x33166d5ef36820000"
      },
      "nonce": 26,
      "data": "0x",
      "r": "0x317004c05f930603d206f0804c28e0a71d0736f0a397c220ae3b26e46d529b7e",
      "s": "0x6272e239363e80e5059d9f79594bb3ff7150fa473057ec17d3bf94c8f0f53b7f",
      "v": 27,
      "creates": null,
      "raw": "0xf86e1a850dc96a879f83015f90944d67f4f0db45b3b5a3424b39ed8d972f710381d589033166d5ef36820000801ba0317004c05f930603d206f0804c28e0a71d0736f0a397c220ae3b26e46d529b7ea06272e239363e80e5059d9f79594bb3ff7150fa473057ec17d3bf94c8f0f53b7f",
      "networkId": 0,
      "chainId": 0
    }
  ]
}