{
  "hash": "0xbea532f8855361e9d9b44e6d8f0fc75ccd694d88127dc365661ae05185e90c06",
  "parentHash": "0xa9fa9a07e502a3a48cb7b00ef1b40a00d0b14056eb27fe3c471faae5d97b76e3",
  "number": 98768,
  "timestamp": 1439778803,
  "nonce": "0x0650ebcf34f7aab8",
  "difficulty": 3838600197725,
  "gasLimit": {
    "_hex": "0x2fefd8"
  },
  "gasUsed": {
    "_hex": "0x5208"
  },
  "miner": "0xe6A7a1d47ff21B6321162AEA7C6CB457D5476Bca",
  "extraData": "0x476574682f76312e302e312d38326566323666362f6c696e75782f676f312e34",
  "transactions": [
    {
      "hash": "0x7c9e2333ee194fe6a1aa94b66d07b9234b60f63bf77ad3df65f6d0a96a33fc31",
      "blockHash": "0xbea532f8855361e9d9b44e6d8f0fc75ccd694d88127dc365661ae05185e90c06",
      "blockNumber": 98768,
      "transactionIndex": 0,
      "confirmations": null,
      "from": "0xc15fa6D616245a5c7B7D75A6dFDcA10C0250BD2B",
      "gasPrice": {
        "_hex": "0xd790d1b64"
      },
      "gasLimit": {
        "_hex": "0x15f90"
      },
      "to": "0xdeE4977F74E6Aef6D627191c9A45D2627e331150",
      "value": {
        "_hex": "0x1158e460913d00000"
      },
      "nonce": 9,
      "data": "0x",
      "r": "0xd96329c36e8fbb5139e7250ecf56a6dba5d9e771bd66a2f406199901c9d38e35",
      "s": "0x74134dd1f737a376533bb007eba7ab15b86478b0c1d4c5124b71d3811b6448e1",
      "v": 27,
      "creates": null,
      "raw": "0xf86e09850d790d1b6483015f9094dee4977f74e6aef6d627191c9a45d2627e3311508901158e460913d00000801ba0d96329c36e8fbb5139e7250ecf56a6dba5d9e771bd66a2f406199901c9d38e35a074134dd1f737a376533bb007eba7ab15b86478b0c1d4c5124b71d3811b6448e1",
      "networkId": 0,
      "chainId": 0
    }
  ]
}