{
  "hash": "0x6998d4e498a6ab46c227781b5067914b6aa929a3773c14bc0538172d4d81af29",
  "parentHash": "0xe4237b5ac68a6f03488dbcb0db4242f6b0610013cbfc0ae17f000a346b599f46",
  "number": 56044,
  "timestamp": 1439081160,
  "nonce": "0xb057a1f236757ae1",
  "difficulty": 1624120475161,
  "gasLimit": {
    "_hex": "0x2fefd8"
  },
  "gasUsed": {
    "_hex": "0xa674"
  },
  "miner": "0x72e3Ea8234b449531A581F05f1c1E07cceb559d2",
  "extraData": "0x476574682f76312e302e312f6c696e75782f676f312e342e32",
  "transactions": [
    {
      "hash": "0x6006f1169d26611f8206b45c2c62b93067b4eaacf604e7f42f99f914c74177c8",
      "blockHash": "0x6998d4e498a6ab46c227781b5067914b6aa929a3773c14bc0538172d4d81af29",
      "blockNumber": 56044,
      "transactionIndex": 0,
      "confirmations": null,
      "from": "0xa04f2Ae02add14C12FaF65Cb259022d0830a8E26",
      "gasPrice": {
        "_hex": "0x1147e91eaef"
      },
      "gasLimit": {
        "_hex": "0x15f90"
      },
      "to": "0x2910543Af39abA0Cd09dBb2D50200b3E800A63D2",
      "value": {
        "_hex": "0x7695a92c20d6fe00000"
      },
      "nonce": 2,
      "data": "0x454e34514a33553730",
      "r": "0x0a184b4048c3bccceb22053e53b0ff05020ad950eaae535d0b1b7b8bf947998e",
      "s": "0x21e0ffc46f9e96452744297a19512c7be3214cd293be804e74c045443f771eed",
      "v": 28,
      "creates": null,
      "raw": "0xf879028601147e91eaef83015f90942910543af39aba0cd09dbb2d50200b3e800a63d28a07695a92c20d6fe0000089454e34514a335537301ca00a184b4048c3bccceb22053e53b0ff05020ad950eaae535d0b1b7b8bf947998ea021e0ffc46f9e96452744297a19512c7be3214cd293be804e74c045443f771eed",
      "networkId": 0,
      "chainId": 0
    },
    {
      "hash": "0xe0fc5310af1a82756a2fa92b03dca78d448b887fa69887ab4052e25c5a38fb60",
      "blockHash": "0x6998d4e498a6ab46c227781b5067914b6aa929a3773c14bc0538172d4d81af29",
      "blockNumber": 56044,
      "transactionIndex": 1,
      "confirmations": null,
      "from": "0xA8Db0B9b201453333C757F6AD9BCB555c02DA93b",
      "gasPrice": {
        "_hex": "0xd34c5e279"
      },
      "gasLimit": {
        "_hex": "0x15f90"
      },
      "to": "0x946B4421c64331bdAe148e6F27d66B92612E0BF6",
      "value": {
        "_hex": "0xde0b6b3a7640000"
      },
      "nonce": 0,
      "data": "0x",
      "r": "0x51b847eb22e78f5b58ae6ba9383b2a47fa265e379e0938c85dbe74e647863c20",
      "s": "0x311dacc3c5e0ac55a2947300e255dac795f17b052037f21c8999e6c8ae6d5f74",
      "v": 28,
      "creates": null,
      "raw": "0xf86d80850d34c5e27983015f9094946b4421c64331bdae148e6f27d66b92612e0bf6880de0b6b3a7640000801ca051b847eb22e78f5b58ae6ba9383b2a47fa265e379e0938c85dbe74e647863c20a0311dacc3c5e0ac55a2947300e255dac795f17b052037f21c8999e6c8ae6d5f74",
      "networkId": 0,
      "chainId": 0
    }
  ]
}