{
  "hash": "0xdc274284945653c9915bcb51b93356570de022b7197ca68dea825fea318dfb54",
  "parentHash": "0x744b8213d3a08eb280b1561cfc068f13267bbe95588132792da3a72b4932925c",
  "number": 119952,
  "timestamp": 1440151307,
  "nonce": "0xff4dcac783393b6c",
  "difficulty": 4428629917179,
  "gasLimit": {
    "_hex": "0x2fefd8"
  },
  "gasUsed": {
    "_hex": "0x5208"
  },
  "miner": "0x9D49F602b0fdb924Bd63DDE2Bd0907E4A07c63a7",
  "extraData": "0x",
  "transactions": [
    {
      "hash": "0xf1ebeb6a6f9be3036ac72160dc0cd9919135efcf93a9de9163e622f351f7fba3",
      "blockHash": "0xdc274284945653c9915bcb51b93356570de022b7197ca68dea825fea318dfb54",
      "blockNumber": 119952,
      "transactionIndex": 0,
      "confirmations": null,
      "from": "0x790b8a3cE86E707ED0eD32bF89B3269692a23CC1",
      "gasPrice": {
        "_hex": "0xba43b7400"
      },
      "gasLimit": {
        "_hex": "0x15f90"
      },
      "to": "0x4D67f4F0Db45b3B5a3424B39ed8d972F710381D5",
      "value": {
        "_hex": "0x2ec03446cf18e0000"
      },
      "nonce": 69,
      "data": "0x",
      "r": "0x20b611fbb8be747bbb90461bec2cec5eed6ff58a46667b03e1608aba2ef0b70d",
      "s": "0x6887b1924e3f93082d86dc031bcc104f944661884b30a8cb1dc335040722da28",
      "v": 28,
      "creates": null,
      "raw": "0xf86e45850ba43b740083015f90944d67f4f0db45b3b5a3424b39ed8d972f710381d58902ec03446cf18e0000801ca020b611fbb8be747bbb90461bec2cec5eed6ff58a46667b03e1608aba2ef0b70da06887b1924e3f93082d86dc031bcc104f944661884b30a8cb1dc335040722da28",
      "networkId": 0,
      "chainId": 0
    }
  ]
}