{
  "hash": "0x1eb60b2b6a388c2e12f66a2afde4a39ef187a748c1ccedec80dc8b1455081a43",
  "parentHash": "0x04e961faba53dec8d2b515a7a1e73d01b883f7d668bfabbc7d830f148a8a3101",
  "number": 80479,
  "timestamp": 1439486080,
  "nonce": "0x12bdce8d1d6b61b8",
  "difficulty": 2415619846002,
  "gasLimit": {
    "_hex": "0x2fefd5"
  },
  "gasUsed": {
    "_hex": "0x546c"
  },
  "miner": "0x3FF679B0823a026F2378E5f5F22A6F127cC85828",
  "extraData": "0x",
  "transactions": [
    {
      "hash": "0x763e9f9bd596cb59215a0346ef537d68747d288d3c5f465b09717dd84144bddf",
      "blockHash": "0x1eb60b2b6a388c2e12f66a2afde4a39ef187a748c1ccedec80dc8b1455081a43",
      "blockNumber": 80479,
      "transactionIndex": 0,
      "confirmations": null,
      "from": "0x5338Ef70eaC9DD9af5a0503B5EfAd1039e67E725",
      "gasPrice": {
        "_hex": "0x110c8f7d8de"
      },
      "gasLimit": {
        "_hex": "0xc350"
      },
      "to": "0x2910543Af39abA0Cd09dBb2D50200b3E800A63D2",
      "value": {
        "_hex": "0x2078cb7e5caafc0000"
      },
      "nonce": 1,
      "data": "0x454e344b4643594738",
      "r": "0x1683d88316dbca1d2c87a7f8481c4ab0e777ec55c3c4c71fe23f93b3f1755557",
      "s": "0x2a4b9a90fa83987ab69c64e4560956324ea9253b654cc99c9a7ed258a2529e40",
      "v": 27,
      "creates": null,
      "raw": "0xf87701860110c8f7d8de82c350942910543af39aba0cd09dbb2d50200b3e800a63d2892078cb7e5caafc000089454e344b46435947381ba01683d88316dbca1d2c87a7f8481c4ab0e777ec55c3c4c71fe23f93b3f1755557a02a4b9a90fa83987ab69c64e4560956324ea9253b654cc99c9a7ed258a2529e40",
      "networkId": 0,
      "chainId": 0
    }
  ]
}