{
  "hash": "0x64145d5b6224103381caa1609945f426582265c55ef10bf9390c9f6b61774586",
  "parentHash": "0xff4a860d8b720715b5c5b74d57487a7f189cc5ec1edc148d97d84391ba12c149",
  "number": 74923,
  "timestamp": 1439394698,
  "nonce": "0x1ef2a889870eb24b",
  "difficulty": 2192323605389,
  "gasLimit": {
    "_hex": "0x2fefd8"
  },
  "gasUsed": {
    "_hex": "0xad77"
  },
  "miner": "0xe6A7a1d47ff21B6321162AEA7C6CB457D5476Bca",
  "extraData": "0x476574682f76312e302e312d38326566323666362f6c696e75782f676f312e34",
  "transactions": [
    {
      "hash": "0x1275020f75b459da92a9254a42e45e28aaa6db12ece3c7953c05b0d890ca7bc5",
      "blockHash": "0x64145d5b6224103381caa1609945f426582265c55ef10bf9390c9f6b61774586",
      "blockNumber": 74923,
      "transactionIndex": 0,
      "confirmations": null,
      "from": "0x87C5B5874A18B4306DF8a752a6C8cc3E82daFc19",
      "gasPrice": {
        "_hex": "0x102c97235bc"
      },
      "gasLimit": {
        "_hex": "0x493e0"
      },
      "to": "0xC4c51de1AbF5D60DBd329eC0F999Fd8f021ae9fC",
      "value": {
        "_hex": "0x0"
      },
      "nonce": 24,
      "data": "0x03750d94000000000000000000000000326be8f71bfb0379f989aab1cc1fe37f0a771f606562343238343732333231626662383600000000000000000000000000000000",
      "r": "0x2c9dad4b9b94c2ee755765d38c94be1da56097dae06b5012b078534bd6fd6353",
      "s": "0x3e822a10109d9b97045385bd0ce3e6e2e18e93f06350fd14069cf9e5f42a7c6b",
      "v": 27,
      "creates": null,
      "raw": "0xf8ab18860102c97235bc830493e094c4c51de1abf5d60dbd329ec0f999fd8f021ae9fc80b84403750d94000000000000000000000000326be8f71bfb0379f989aab1cc1fe37f0a771f6065623432383437323332316266623836000000000000000000000000000000001ba02c9dad4b9b94c2ee755765d38c94be1da56097dae06b5012b078534bd6fd6353a03e822a10109d9b97045385bd0ce3e6e2e18e93f06350fd14069cf9e5f42a7c6b",
      "networkId": 0,
      "chainId": 0
    }
  ]
}