{
  "hash": "0x9b273dcc66e628050df2155053cdd6c6bf54b0ce0ec4023462c0421916924065",
  "parentHash": "0xf5fb07b4b2335982f2196cc86abe51b09db53ced4aa93ef6c2f0dda9364df820",
  "number": 63828,
  "timestamp": 1439210914,
  "nonce": "0xf765b76b69441596",
  "difficulty": 1849467728400,
  "gasLimit": {
    "_hex": "0x2fefd5"
  },
  "gasUsed": {
    "_hex": "0x524d"
  },
  "miner": "0x34f0F706648F334eDf39e555766d4EACD54D61dC",
  "extraData": "0x476574682f76312e302e312d38326566323666362f6c696e75782f676f312e34",
  "transactions": [
    {
      "hash": "0xfca89a626d78cf326b1d2759af2c94d4edce3b43bd803c7be98ac776cebbb661",
      "blockHash": "0x9b273dcc66e628050df2155053cdd6c6bf54b0ce0ec4023462c0421916924065",
      "blockNumber": 63828,
      "transactionIndex": 0,
      "confirmations": null,
      "from": "0xc8ebccC5F5689Fa8659d83713341e5aD19349448",
      "gasPrice": {
        "_hex": "0xd335200e9"
      },
      "gasLimit": {
        "_hex": "0x15f90"
      },
      "to": "0x793AE8C1b1a160BFc07BFB0d04F85eab1A71F4f2",
      "value": {
        "_hex": "0x8ac7230489e80000"
      },
      "nonce": 29,
      "data": "0x",
      "r": "0x8670d068af7e1098f37234b7b33b713a2f430c7c59a2f34cf66935a0d4b0eecf",
      "s": "0x5e468d7fb9cf26502b6e868db68c80f3f4599c9e5b311bb2fede2fc32d3a9b47",
      "v": 28,
      "creates": null,
      "raw": "0xf86d1d850d335200e983015f9094793ae8c1b1a160bfc07bfb0d04f85eab1a71f4f2888ac7230489e80000801ca08670d068af7e1098f37234b7b33b713a2f430c7c59a2f34cf66935a0d4b0eecfa05e468d7fb9cf26502b6e868db68c80f3f4599c9e5b311bb2fede2fc32d3a9b47",
      "networkId": 0,
      "chainId": 0
    }
  ]
}