{
  "hash": "0x7eb6755bf27fce9f6866f63041f727dbe0f4c1daa63ac262332a310445998dde",
  "parentHash": "0x55c4570014d2a1a005cc47b3a41c4e6f6d0eb4d8395056bda563b026acb1ef9a",
  "number": 54078,
  "timestamp": 1439048347,
  "nonce": "0xfdccd0347134a566",
  "difficulty": 1599315599550,
  "gasLimit": {
    "_hex": "0x2fefd8"
  },
  "gasUsed": {
    "_hex": "0xa410"
  },
  "miner": "0x3f113041D56Dda809a245Fe338832c2D373e7c80",
  "extraData": "0x476574682f76312e302e312f77696e646f77732f676f312e342e32",
  "transactions": [
    {
      "hash": "0xcc0c5b617dfedd53fff697ace086371ce2cf44808a934ed83b553b2c915f52be",
      "blockHash": "0x7eb6755bf27fce9f6866f63041f727dbe0f4c1daa63ac262332a310445998dde",
      "blockNumber": 54078,
      "transactionIndex": 0,
      "confirmations": null,
      "from": "0x756Fd95F0bC102071dddf04c04d58F8DEf4F2AF2",
      "gasPrice": {
        "_hex": "0xcf4df4be5"
      },
      "gasLimit": {
        "_hex": "0x5208"
      },
      "to": "0x32Be343B94f860124dC4fEe278FDCBD38C102D88",
      "value": {
        "_hex": "0x2b817828464c34000"
      },
      "nonce": 0,
      "data": "0x",
      "r": "0xe150ff67006faea6549d4aca3c25c0c533045147c93ea927313a13b5ced493c3",
      "s": "0x4b0fba578ffd73a551342b1b3d163cab2483594607c063da31dea47f143170b6",
      "v": 28,
      "creates": null,
      "raw": "0xf86d80850cf4df4be58252089432be343b94f860124dc4fee278fdcbd38c102d888902b817828464c34000801ca0e150ff67006faea6549d4aca3c25c0c533045147c93ea927313a13b5ced493c3a04b0fba578ffd73a551342b1b3d163cab2483594607c063da31dea47f143170b6",
      "networkId": 0,
      "chainId": 0
    },
    {
      "hash": "0xb10106edbc8207bf2819b5e5b38846c87991142160f334fc2b3ceebb0682470c",
      "blockHash": "0x7eb6755bf27fce9f6866f63041f727dbe0f4c1daa63ac262332a310445998dde",
      "blockNumber": 54078,
      "transactionIndex": 1,
      "confirmations": null,
      "from": "0x049e02AC3F202e135d2Ae5f9bd786ccc6Ac8AB1e",
      "gasPrice": {
        "_hex": "0xcf4df4be5"
      },
      "gasLimit": {
        "_hex": "0x5208"
      },
      "to": "0x32Be343B94f860124dC4fEe278FDCBD38C102D88",
      "value": {
        "_hex": "0x8ac2fc2c51f9b000"
      },
      "nonce": 0,
      "data": "0x",
      "r": "0x2a5ff51dd523c5ec8470c53d7283374c7972d677527034e92cf5043acaa1bf3d",
      "s": "0x225dc6f719dae69d2be8dbdec4d305eb64f2dca8ea00ab11a60db59a81b57acb",
      "v": 27,
      "creates": null,
      "raw": "0xf86c80850cf4df4be58252089432be343b94f860124dc4fee278fdcbd38c102d88888ac2fc2c51f9b000801ba02a5ff51dd523c5ec8470c53d7283374c7972d677527034e92cf5043acaa1bf3da0225dc6f719dae69d2be8dbdec4d305eb64f2dca8ea00ab11a60db59a81b57acb",
      "networkId": 0,
      "chainId": 0
    }
  ]
}