{
  "hash": "0xec1be2594b2bf1f807b15d163487a81c4cc80fe58f62bd6693d4fd8b03a20dac",
  "parentHash": "0xae27d8193161d06cdb6933bded09e21eb96f368031b3d0a56643adbbd17e3d98",
  "number": 83658,
  "timestamp": 1439538602,
  "nonce": "0x666cea0c1c3ea37c",
  "difficulty": 2449140410601,
  "gasLimit": {
    "_hex": "0x2fefd8"
  },
  "gasUsed": {
    "_hex": "0xa410"
  },
  "miner": "0x6DE55b563cE6E319cCB403032Da3BE5Ad4ec4FcF",
  "extraData": "0x",
  "transactions": [
    {
      "hash": "0xf430457a811f997bdfe40e99163377addfa02d1c6fc43a2ce04336d9dfff5631",
      "blockHash": "0xec1be2594b2bf1f807b15d163487a81c4cc80fe58f62bd6693d4fd8b03a20dac",
      "blockNumber": 83658,
      "transactionIndex": 0,
      "confirmations": null,
      "from": "0xF9A59c3cC5fFACBcB67Be0fc7256F64c9B127Cb4",
      "gasPrice": {
        "_hex": "0x108daf3c4d0"
      },
      "gasLimit": {
        "_hex": "0x15f90"
      },
      "to": "0xd97FDBc4B51136F7381A02c672E73247F5D6927c",
      "value": {
        "_hex": "0xb1a2bc2ec50000"
      },
      "nonce": 0,
      "data": "0x",
      "r": "0xf8ed4c00f2165aa184ad0ea07d9af4d791f9aa67727ef13d9c682c6c91d9da00",
      "s": "0x097783b04e79644d03470e7a63a4f4ecd5a13135c37c4483ac673646b69882e4",
      "v": 28,
      "creates": null,
      "raw": "0xf86d80860108daf3c4d083015f9094d97fdbc4b51136f7381a02c672e73247f5d6927c87b1a2bc2ec50000801ca0f8ed4c00f2165aa184ad0ea07d9af4d791f9aa67727ef13d9c682c6c91d9da00a0097783b04e79644d03470e7a63a4f4ecd5a13135c37c4483ac673646b69882e4",
      "networkId": 0,
      "chainId": 0
    },
    {
      "hash": "0x3ec0c218ee4622412b4644613e9015758f92e40fe87cfa8b599e39b6cf5dbd39",
      "blockHash": "0xec1be2594b2bf1f807b15d163487a81c4cc80fe58f62bd6693d4fd8b03a20dac",
      "blockNumber": 83658,
      "transactionIndex": 1,
      "confirmations": null,
      "from": "0x823BA7647238D113bce9964A43D0A098118bfe4d",
      "gasPrice": {
        "_hex": "0xcad04f24f"
      },
      "gasLimit": {
        "_hex": "0x5208"
      },
      "to": "0x428780201c611BD04Cb80F1C3f0a54F6B4D9f8a7",
      "value": {
        "_hex": "0x8ac7230489e80000"
      },
      "nonce": 2,
      "data": "0x",
      "r": "0x19c9b0f13271766d254f7d332666e6b4a1e08c7aac4ecad852c1a5cdaa26e2c3",
      "s": "0x14ad002a5506cd408fc9196df1fb49c6793fe3857bd4d71f68a57b1829820b3b",
      "v": 27,
      "creates": null,
      "raw": "0xf86c02850cad04f24f82520894428780201c611bd04cb80f1c3f0a54f6b4d9f8a7888ac7230489e80000801ba019c9b0f13271766d254f7d332666e6b4a1e08c7aac4ecad852c1a5cdaa26e2c3a014ad002a5506cd408fc9196df1fb49c6793fe3857bd4d71f68a57b1829820b3b",
      "networkId": 0,
      "chainId": 0
    }
  ]
}