{
  "hash": "0x0969e773a3db2a7a41643395503ad871c702aa962eeed49a2203f7a830f17a02",
  "parentHash": "0xd13db333e074e4d7df0f9e37ed9d9317e210b821b4d894a2991deeeef4dd1699",
  "number": 52642,
  "timestamp": 1439025029,
  "nonce": "0x795161ffd0cf5ee3",
  "difficulty": 1565589758216,
  "gasLimit": {
    "_hex": "0x16da50"
  },
  "gasUsed": {
    "_hex": "0x103abc"
  },
  "miner": "0xa50ec0D39fa913E62f1Bae7074E6F36caA71855b",
  "extraData": "0x",
  "transactions": [
    {
      "hash": "0xcbbdd373830bbca0823b2f5eb6e3039e49aed4f84f18f82720b5155487f8d271",
      "blockHash": "0x0969e773a3db2a7a41643395503ad871c702aa962eeed49a2203f7a830f17a02",
      "blockNumber": 52642,
      "transactionIndex": 0,
      "confirmations": null,
      "from": "0x57Dd9471CBFa262709F5f486bCb774c5f527B8f8",
      "gasPrice": {
        "_hex": "0x110c8f7d8de"
      },
      "gasLimit": {
        "_hex": "0xc350"
      },
      "to": "0x2910543Af39abA0Cd09dBb2D50200b3E800A63D2",
      "value": {
        "_hex": "0x8ac7230489e80000"
      },
      "nonce": 1,
      "data": "0x454e5452364b425552",
      "r": "0x3703a241c4913720bebac7fe4fb8c7a8e36081210a5513babbe5298dcfe633be",
      "s": "0xbe489a8f765cc68e91c3f74889b779c95693fc51cd2c8a0d1ab211e4f5e6adaf",
      "v": 27,
      "creates": null,
      "raw": "0xf87601860110c8f7d8de82c350942910543af39aba0cd09dbb2d50200b3e800a63d2888ac7230489e8000089454e5452364b4255521ba03703a241c4913720bebac7fe4fb8c7a8e36081210a5513babbe5298dcfe633bea0be489a8f765cc68e91c3f74889b779c95693fc51cd2c8a0d1ab211e4f5e6adaf",
      "networkId": 0,
      "chainId": 0
    },
    {
      "hash": "0x13225462a5b59d1eb08dc018c221599f95435da3dd194adfb54a422b8f5727c5",
      "blockHash": "0x0969e773a3db2a7a41643395503ad871c702aa962eeed49a2203f7a830f17a02",
      "blockNumber": 52642,
      "transactionIndex": 1,
      "confirmations": null,
      "from": "0x3cD41F8B22D7F3f4793E10f8E96247356A567dD9",
      "gasPrice": {
        "_hex": "0x746a528800"
      },
      "gasLimit": {
        "_hex": "0x5b04"
      },
      "to": "0x2910543Af39abA0Cd09dBb2D50200b3E800A63D2",
      "value": {
        "_hex": "0x53eecff4d190000"
      },
      "nonce": 0,
      "data": "0x",
      "r": "0x85f1066bc1be11f3bffc2b599778f5afb94ccbb3e9b560063666b5dccf1e8b69",
      "s": "0x88606e73ee9212eac1a04ba98e5d42e21ad6a88d16d5fc64274a1bca0ac8918c",
      "v": 28,
      "creates": null,
      "raw": "0xf86c8085746a528800825b04942910543af39aba0cd09dbb2d50200b3e800a63d288053eecff4d190000801ca085f1066bc1be11f3bffc2b599778f5afb94ccbb3e9b560063666b5dccf1e8b69a088606e73ee9212eac1a04ba98e5d42e21ad6a88d16d5fc64274a1bca0ac8918c",
      "networkId": 0,
      "chainId": 0
    },
    {
      "hash": "0x467803e0e9186a8b21af55332f576d26d49c648112364c736f064c788bc48232",
      "blockHash": "0x0969e773a3db2a7a41643395503ad871c702aa962eeed49a2203f7a830f17a02",
      "blockNumber": 52642,
      "transactionIndex": 2,
      "confirmations": null,
      "from": "0x54dAeb3E8a6BBC797E4aD2b0339f134b186e4637",
      "gasPrice": {
        "_hex": "0xe7d27df17"
      },
      "gasLimit": {
        "_hex": "0x7a120"
      },
      "to": "0xBAA54d6E90c3F4d7Ebec11bD180134C7eD8eBb52",
      "value": {
        "_hex": "0x16345785d8a0000"
      },
      "nonce": 841,
      "data": "0x",
      "r": "0x4cf09cb312fb11a96df6d3510706d4cd7ce037eacb5fdecb76ba597fbde44565",
      "s": "0x1530fffa3c138a13a7b502b0e0689dbf3ea55cbb7e0e700db0985f962c035dbd",
      "v": 27,
      "creates": null,
      "raw": "0xf86f820349850e7d27df178307a12094baa54d6e90c3f4d7ebec11bd180134c7ed8ebb5288016345785d8a0000801ba04cf09cb312fb11a96df6d3510706d4cd7ce037eacb5fdecb76ba597fbde44565a01530fffa3c138a13a7b502b0e0689dbf3ea55cbb7e0e700db0985f962c035dbd",
      "networkId": 0,
      "chainId": 0
    },
    {
      "hash": "0xb546c058c4b385091fd04dae23ff89a1466eb7c674d54e0aa7b9e1d4599af28e",
      "blockHash": "0x0969e773a3db2a7a41643395503ad871c702aa962eeed49a2203f7a830f17a02",
      "blockNumber": 52642,
      "transactionIndex": 3,
      "confirmations": null,
      "from": "0x54dAeb3E8a6BBC797E4aD2b0339f134b186e4637",
      "gasPrice": {
        "_hex": "0xdce5b224a"
      },
      "gasLimit": {
        "_hex": "0x7a120"
      },
      "to": "0xBAA54d6E90c3F4d7Ebec11bD180134C7eD8eBb52",
      "value": {
        "_hex": "0x16345785d8a0000"
      },
      "nonce": 842,
      "data": "0x",
      "r": "0xdb564474ad46955ae97bd6ff5c94558ed72ee0af53bb1047a10bb3310a304b78",
      "s": "0x2bfb43bcc449153a72e0a16dfe67a15628400e19bdd4e5e38b977451e8e8935c",
      "v": 27,
      "creates": null,
      "raw": "0xf86f82034a850dce5b224a8307a12094baa54d6e90c3f4d7ebec11bd180134c7ed8ebb5288016345785d8a0000801ba0db564474ad46955ae97bd6ff5c94558ed72ee0af53bb1047a10bb3310a304b78a02bfb43bcc449153a72e0a16dfe67a15628400e19bdd4e5e38b977451e8e8935c",
      "networkId": 0,
      "chainId": 0
    },
    {
      "hash": "0x243beaeb0aa1745f29f9bbfc0176b649deb7ec0c103c53f851c69b39eaa919bc",
      "blockHash": "0x0969e773a3db2a7a41643395503ad871c702aa962eeed49a2203f7a830f17a02",
      "blockNumber": 52642,
      "transactionIndex": 4,
      "confirmations": null,
      "from": "0x8c62BeD016C5a2F6954504Dbc4640ded5FB14eE3",
      "gasPrice": {
        "_hex": "0xd80021fd6"
      },
      "gasLimit": {
        "_hex": "0x5208"
      },
      "to": "0x32Be343B94f860124dC4fEe278FDCBD38C102D88",
      "value": {
        "_hex": "0xad78a68ed32820000"
      },
      "nonce": 1,
      "data": "0x",
      "r": "0xa2b41f924dd4259869b72822daffbd7b6b7f069f637df809b92fddc9315166cd",
      "s": "0x43b8b17b4bfdfdfea0156ab502c1d789c996906fcc891b8579fdad838927e343",
      "v": 27,
      "creates": null,
      "raw": "0xf86d01850d80021fd68252089432be343b94f860124dc4fee278fdcbd38c102d88890ad78a68ed32820000801ba0a2b41f924dd4259869b72822daffbd7b6b7f069f637df809b92fddc9315166cda043b8b17b4bfdfdfea0156ab502c1d789c996906fcc891b8579fdad838927e343",
      "networkId": 0,
      "chainId": 0
    }
  ]
}