{
  "hash": "0x76e5454cdc054096cf65cedb5da0b90d519d1d3190c9ca337a51d793e2467317",
  "parentHash": "0x1b2a87812f02e67d8a58ec10f50e964d62ecf53fff58ce023c8a109fea5c9e0a",
  "number": 88799,
  "timestamp": 1439613646,
  "nonce": "0x5c1584b169390a5f",
  "difficulty": 3250522276342,
  "gasLimit": {
    "_hex": "0x2fefd8"
  },
  "gasUsed": {
    "_hex": "0xa410"
  },
  "miner": "0xe6A7a1d47ff21B6321162AEA7C6CB457D5476Bca",
  "extraData": "0x476574682f76312e302e312d38326566323666362f6c696e75782f676f312e34",
  "transactions": [
    {
      "hash": "0x981f3ab9cc93fcf207ef7ea1179b668564c9b1a436e51b9be2702c6630676f44",
      "blockHash": "0x76e5454cdc054096cf65cedb5da0b90d519d1d3190c9ca337a51d793e2467317",
      "blockNumber": 88799,
      "transactionIndex": 0,
      "confirmations": null,
      "from": "0x2910543Af39abA0Cd09dBb2D50200b3E800A63D2",
      "gasPrice": {
        "_hex": "0xd69a976e2"
      },
      "gasLimit": {
        "_hex": "0x5208"
      },
      "to": "0x18fB4F615e569afDc92C635a8c672039c2230B9f",
      "value": {
        "_hex": "0x11c37937e08000"
      },
      "nonce": 736,
      "data": "0x",
      "r": "0x71965218557536af49496069d6d9d911a960c72f5a792b5f7f70725a78150362",
      "s": "0x4593eb20b0b908cf365a88c7df7d25fa64669d5731b797174d095c90e0a87269",
      "v": 28,
      "creates": null,
      "raw": "0xf86d8202e0850d69a976e28252089418fb4f615e569afdc92c635a8c672039c2230b9f8711c37937e08000801ca071965218557536af49496069d6d9d911a960c72f5a792b5f7f70725a78150362a04593eb20b0b908cf365a88c7df7d25fa64669d5731b797174d095c90e0a87269",
      "networkId": 0,
      "chainId": 0
    },
    {
      "hash": "0x577411bc58fa8997fcff0326a72a2818e30548f923ef1769119e27a8a8290cba",
      "blockHash": "0x76e5454cdc054096cf65cedb5da0b90d519d1d3190c9ca337a51d793e2467317",
      "blockNumber": 88799,
      "transactionIndex": 1,
      "confirmations": null,
      "from": "0x2910543Af39abA0Cd09dBb2D50200b3E800A63D2",
      "gasPrice": {
        "_hex": "0xd69a976e2"
      },
      "gasLimit": {
        "_hex": "0x5208"
      },
      "to": "0x85582FD46E835e2694DE150F6ff48933C2B8a8b8",
      "value": {
        "_hex": "0x1b1ad31369b76f8000"
      },
      "nonce": 737,
      "data": "0x",
      "r": "0x40aaccccb78fdf040467faae2493f1fe00f1fa219132581473d5897562ff887d",
      "s": "0x7f68091153311b3f319f9e5ae0170cd6f842062757ac64f52b0d665df4a79e6a",
      "v": 28,
      "creates": null,
      "raw": "0xf86f8202e1850d69a976e28252089485582fd46e835e2694de150f6ff48933c2b8a8b8891b1ad31369b76f8000801ca040aaccccb78fdf040467faae2493f1fe00f1fa219132581473d5897562ff887da07f68091153311b3f319f9e5ae0170cd6f842062757ac64f52b0d665df4a79e6a",
      "networkId": 0,
      "chainId": 0
    }
  ]
}