{
  "hash": "0x8b552b70f3406875c91f499a16ad4be90bc9617b7d485d927b7cf8acea3895f0",
  "parentHash": "0x24c1e91e94275bb85159989427c7097105a643789742a20ef20b618891948bdc",
  "number": 119350,
  "timestamp": 1440141233,
  "nonce": "0x97349ccbb82bc580",
  "difficulty": 4407374733002,
  "gasLimit": {
    "_hex": "0x2fefd8"
  },
  "gasUsed": {
    "_hex": "0x5208"
  },
  "miner": "0x5F8F73E26CdF436f19Cb24C82F90A15AFe55b592",
  "extraData": "0x",
  "transactions": [
    {
      "hash": "0x2bdb08066a0a558193103c39b2bc3709ee2492efcf17300de6e60815b3f4be91",
      "blockHash": "0x8b552b70f3406875c91f499a16ad4be90bc9617b7d485d927b7cf8acea3895f0",
      "blockNumber": 119350,
      "transactionIndex": 0,
      "confirmations": null,
      "from": "0xe6A7a1d47ff21B6321162AEA7C6CB457D5476Bca",
      "gasPrice": {
        "_hex": "0xba43b7400"
      },
      "gasLimit": {
        "_hex": "0x55f0"
      },
      "to": "0x233b4fC39b20bb5eCf29882D7F068544BCc5eB78",
      "value": {
        "_hex": "0x8e5c47e68df23838"
      },
      "nonce": 6216,
      "data": "0x",
      "r": "0xec02ac269e9ee8792d6ce468e76aec69b741d5acb2cf90cc59425269fd9e639e",
      "s": "0x3e11eed72d82eaf88ca536a6df4ddeced0544215336782638565d6febff48245",
      "v": 27,
      "creates": null,
      "raw": "0xf86e821848850ba43b74008255f094233b4fc39b20bb5ecf29882d7f068544bcc5eb78888e5c47e68df23838801ba0ec02ac269e9ee8792d6ce468e76aec69b741d5acb2cf90cc59425269fd9e639ea03e11eed72d82eaf88ca536a6df4ddeced0544215336782638565d6febff48245",
      "networkId": 0,
      "chainId": 0
    }
  ]
}