{
  "hash": "0x78cff6eae16cf30628b49c0799aaf93fc88d3cb3e707a5833339926f45f6c2d4",
  "parentHash": "0x301dd39e9076e1eff358e85810763827a45282bc9ec0031c477f42ba82959adb",
  "number": 84594,
  "timestamp": 1439551823,
  "nonce": "0x71e50d270f76bc4b",
  "difficulty": 2586519202580,
  "gasLimit": {
    "_hex": "0x2fefd8"
  },
  "gasUsed": {
    "_hex": "0x5208"
  },
  "miner": "0xe6A7a1d47ff21B6321162AEA7C6CB457D5476Bca",
  "extraData": "0x476574682f76312e302e312d38326566323666362f6c696e75782f676f312e34",
  "transactions": [
    {
      "hash": "0x3f490abaa15e6e5d7e05def41c4de427c70bae379f0f41d6a3f0bae8d52ac399",
      "blockHash": "0x78cff6eae16cf30628b49c0799aaf93fc88d3cb3e707a5833339926f45f6c2d4",
      "blockNumber": 84594,
      "transactionIndex": 0,
      "confirmations": null,
      "from": "0x32Be343B94f860124dC4fEe278FDCBD38C102D88",
      "gasPrice": {
        "_hex": "0xd5e661208"
      },
      "gasLimit": {
        "_hex": "0x5208"
      },
      "to": "0x1f1f1f6FAA77a31e6c9aeF1eF25A6F6819177EEB",
      "value": {
        "_hex": "0x79a6fc4c033888000"
      },
      "nonce": 684,
      "data": "0x",
      "r": "0xa00a3667eb95784454193181e46e21b4d444090c7b507b8fe9c0f2975cbe8300",
      "s": "0x02ae66d22ff82c5452f5d7485e13cc5077fbe33886e6d3954d6a614d2b55b3cd",
      "v": 28,
      "creates": null,
      "raw": "0xf86f8202ac850d5e661208825208941f1f1f6faa77a31e6c9aef1ef25a6f6819177eeb89079a6fc4c033888000801ca0a00a3667eb95784454193181e46e21b4d444090c7b507b8fe9c0f2975cbe8300a002ae66d22ff82c5452f5d7485e13cc5077fbe33886e6d3954d6a614d2b55b3cd",
      "networkId": 0,
      "chainId": 0
    }
  ]
}