{
  "hash": "0x9a0ad97b6e390f7f6864fa90f35cecf00f14999233fe7126c72c55cf6df41f52",
  "parentHash": "0x9e532e8b276b10d6c1ed31d878e8fbfc8ca8eeefb89e38cf17a1a925b5bea946",
  "number": 96252,
  "timestamp": 1439737335,
  "nonce": "0xc9cfb9879f51d714",
  "difficulty": 3678256804433,
  "gasLimit": {
    "_hex": "0x2fe418"
  },
  "gasUsed": {
    "_hex": "0xa414"
  },
  "miner": "0xF03462EC92AD7d5F732197D6F2408C5B2CD44361",
  "extraData": "0xd983010001844765746887676f312e342e328777696e646f7773",
  "transactions": [
    {
      "hash": "0x5ecababb0661a4eada4cb43c0a6966c9f648069a62d20dcf57abc42106977895",
      "blockHash": "0x9a0ad97b6e390f7f6864fa90f35cecf00f14999233fe7126c72c55cf6df41f52",
      "blockNumber": 96252,
      "transactionIndex": 0,
      "confirmations": null,
      "from": "0xA126B99068EDc494d7C148686cE84E09AECaD67e",
      "gasPrice": {
        "_hex": "0xdf0d3a73c"
      },
      "gasLimit": {
        "_hex": "0x7530"
      },
      "to": "0xD8d715890BcD74AF7DDb7702aa4048AD25100280",
      "value": {
        "_hex": "0x6f93d166fa240000"
      },
      "nonce": 3,
      "data": "0x00",
      "r": "0x6bd7a774f88d737260e4dfae8c3d33199825a29df1dc7af7bab8f3c1d71e22f5",
      "s": "0x853461f187808c03ce6ff92508629aac93ab132aaee0969650cb5068706559e0",
      "v": 28,
      "creates": null,
      "raw": "0xf86c03850df0d3a73c82753094d8d715890bcd74af7ddb7702aa4048ad25100280886f93d166fa240000001ca06bd7a774f88d737260e4dfae8c3d33199825a29df1dc7af7bab8f3c1d71e22f5a0853461f187808c03ce6ff92508629aac93ab132aaee0969650cb5068706559e0",
      "networkId": 0,
      "chainId": 0
    },
    {
      "hash": "0x8ac230db13feec03d0899c40d2b68485a19e2297d0b5eea08e4efec661ea21ec",
      "blockHash": "0x9a0ad97b6e390f7f6864fa90f35cecf00f14999233fe7126c72c55cf6df41f52",
      "blockNumber": 96252,
      "transactionIndex": 1,
      "confirmations": null,
      "from": "0xcA8f4Fb1A28593337AeE456Acc76ABD4C3c83257",
      "gasPrice": {
        "_hex": "0xba43b7400"
      },
      "gasLimit": {
        "_hex": "0x5267"
      },
      "to": null,
      "value": {
        "_hex": "0x1df64f0fa6118000"
      },
      "nonce": 3,
      "data": "0x",
      "r": "0xfc5ce4815268c18231367dc91f31a18d10acc1f3894794ef5672f6778028db83",
      "s": "0x95ef74c60778c6c285745ae0db839c48155e8408d619854a8856b0030351a76e",
      "v": 27,
      "creates": "0xA1a5122773E891FC306D970FD8d056A7ca31BCfa",
      "raw": "0xf85803850ba43b740082526780881df64f0fa6118000801ba0fc5ce4815268c18231367dc91f31a18d10acc1f3894794ef5672f6778028db83a095ef74c60778c6c285745ae0db839c48155e8408d619854a8856b0030351a76e",
      "networkId": 0,
      "chainId": 0
    }
  ]
}