{
  "hash": "0xe2753084f7444fff8c804a9251e7f1067fd5d84a6e1a5f9d4209bf8f0bab02a1",
  "parentHash": "0xdbde06ae088f76628441cb9307f477f7b902ce29273176f4182e4e77686470ea",
  "number": 103655,
  "timestamp": 1439856910,
  "nonce": "0xad7f8bb57ba4dedd",
  "difficulty": 4203148105374,
  "gasLimit": {
    "_hex": "0x2fefd8"
  },
  "gasUsed": {
    "_hex": "0x5208"
  },
  "miner": "0xD0ee3F53eE0fCf3F9fbCcdd17BD1b6441DdC2074",
  "extraData": "0x476574682f76312e302e312d38326566323666362f6c696e75782f676f312e34",
  "transactions": [
    {
      "hash": "0xe934b0049fd1b82952c6433cb6ac05d719d1c922ed6cec09b9dda386ebc87372",
      "blockHash": "0xe2753084f7444fff8c804a9251e7f1067fd5d84a6e1a5f9d4209bf8f0bab02a1",
      "blockNumber": 103655,
      "transactionIndex": 0,
      "confirmations": null,
      "from": "0xF42B87d9E83eb6b6947aaBD558904Bc615C6091f",
      "gasPrice": {
        "_hex": "0xba43b7400"
      },
      "gasLimit": {
        "_hex": "0x5208"
      },
      "to": "0xC47Aaa860008be6f65B58c6C6E02a84e666EfE31",
      "value": {
        "_hex": "0x98a41ec004486000"
      },
      "nonce": 2,
      "data": "0x",
      "r": "0xd6454ce1ba07d083db90592cc1cc1415757ca7769fca97f7998df36b031311f6",
      "s": "0x4416a1a079d3b6b1154609b713885239a61456eb635906a1f20dffb035e707d9",
      "v": 28,
      "creates": null,
      "raw": "0xf86c02850ba43b740082520894c47aaa860008be6f65b58c6c6e02a84e666efe318898a41ec004486000801ca0d6454ce1ba07d083db90592cc1cc1415757ca7769fca97f7998df36b031311f6a04416a1a079d3b6b1154609b713885239a61456eb635906a1f20dffb035e707d9",
      "networkId": 0,
      "chainId": 0
    }
  ]
}