{
  "hash": "0x7d0b565c599ad0e607aba2a3c470fea88d502c4bd3720010ee9157ae3171141e",
  "parentHash": "0x5f9a3fdc5eff4b702f058ef2a690903272a9740c07c5ec5f038864607746955a",
  "number": 119434,
  "timestamp": 1440142937,
  "nonce": "0x15a32253fcb9b45b",
  "difficulty": 4377305103846,
  "gasLimit": {
    "_hex": "0x2fefd8"
  },
  "gasUsed": {
    "_hex": "0xa410"
  },
  "miner": "0x52bc44d5378309EE2abF1539BF71dE1b7d7bE3b5",
  "extraData": "0xd783010002844765746887676f312e342e32856c696e7578",
  "transactions": [
    {
      "hash": "0x6a504f09d81a2f82b1ab1d741e03b1d05195ff86fbef58dd3ab331565417fa3b",
      "blockHash": "0x7d0b565c599ad0e607aba2a3c470fea88d502c4bd3720010ee9157ae3171141e",
      "blockNumber": 119434,
      "transactionIndex": 0,
      "confirmations": null,
      "from": "0x08346c0900aefbB6730d0D188c647607eB329f9F",
      "gasPrice": {
        "_hex": "0xba43b7400"
      },
      "gasLimit": {
        "_hex": "0x5208"
      },
      "to": "0x32Be343B94f860124dC4fEe278FDCBD38C102D88",
      "value": {
        "_hex": "0x6ba9ad51cf0bc000"
      },
      "nonce": 4,
      "data": "0x",
      "r": "0x05b17d6b810e78a63c65fc98afb07d76b1c466ee261a051012e8085511b41609",
      "s": "0x5bf7935f4f6fcb3a462db1f6f3d67a24ba399fd057945eb7fec08f21a77c0fc8",
      "v": 28,
      "creates": null,
      "raw": "0xf86c04850ba43b74008252089432be343b94f860124dc4fee278fdcbd38c102d88886ba9ad51cf0bc000801ca005b17d6b810e78a63c65fc98afb07d76b1c466ee261a051012e8085511b41609a05bf7935f4f6fcb3a462db1f6f3d67a24ba399fd057945eb7fec08f21a77c0fc8",
      "networkId": 0,
      "chainId": 0
    },
    {
      "hash": "0x480e64f7c4cec1e55c7ce0655b14e0cdb49412376daf7c8cc8ac7c390dfffaeb",
      "blockHash": "0x7d0b565c599ad0e607aba2a3c470fea88d502c4bd3720010ee9157ae3171141e",
      "blockNumber": 119434,
      "transactionIndex": 1,
      "confirmations": null,
      "from": "0x0A319A7e0C887F104359e1eEe6717BD8f232d3Da",
      "gasPrice": {
        "_hex": "0xba43b7400"
      },
      "gasLimit": {
        "_hex": "0x5208"
      },
      "to": "0x32Be343B94f860124dC4fEe278FDCBD38C102D88",
      "value": {
        "_hex": "0xfb67169d12ab4000"
      },
      "nonce": 18,
      "data": "0x",
      "r": "0x7b53dd43d1cf5484eac743ca827903bb611346a85aa51b61ec3262ee5d2fd7c9",
      "s": "0x47c55f293712cbf324a8c58c555d5bce476f5decdcad0f259a7715c5a07aa729",
      "v": 28,
      "creates": null,
      "raw": "0xf86c12850ba43b74008252089432be343b94f860124dc4fee278fdcbd38c102d8888fb67169d12ab4000801ca07b53dd43d1cf5484eac743ca827903bb611346a85aa51b61ec3262ee5d2fd7c9a047c55f293712cbf324a8c58c555d5bce476f5decdcad0f259a7715c5a07aa729",
      "networkId": 0,
      "chainId": 0
    }
  ]
}