{
  "hash": "0x757410c3b5a6b067dc7956469a693aa1b454afd8c542bce28022acaa0f43a99b",
  "parentHash": "0x43f457aaaf2136da6698474ce14df5c618f55d6bfba6118c1e2df4d620b30f45",
  "number": 122372,
  "timestamp": 1440193292,
  "nonce": "0xff20232cf6599e43",
  "difficulty": 4479540735888,
  "gasLimit": {
    "_hex": "0x2fefd8"
  },
  "gasUsed": {
    "_hex": "0x173517"
  },
  "miner": "0xe6A7a1d47ff21B6321162AEA7C6CB457D5476Bca",
  "extraData": "0xd783010002844765746887676f312e342e32856c696e7578",
  "transactions": [
    {
      "hash": "0x6e5e9d6559ac0e5aa39cb5f8ac59b6d9e303c5b4e96684aadb24ecffd14efc2a",
      "blockHash": "0x757410c3b5a6b067dc7956469a693aa1b454afd8c542bce28022acaa0f43a99b",
      "blockNumber": 122372,
      "transactionIndex": 0,
      "confirmations": null,
      "from": "0x276e2f360f94f35DDc4a45F16Ca8771A746a4582",
      "gasPrice": {
        "_hex": "0xe05f0beda"
      },
      "gasLimit": {
        "_hex": "0xf4240"
      },
      "to": null,
      "value": {
        "_hex": "0x0"
      },
      "nonce": 8,
      "data": "0x606060405260405160a0806108b38339016040526060805190602001805190602001805190602001805190602001805190602001505b84600060006101000a81548173ffffffffffffffffffffffffffffffffffffffff0219169083021790555083600160005081905550603c830242016003600050819055508160046000508190555080600560006101000a81548173ffffffffffffffffffffffffffffffffffffffff021916908302179055505b50505050506107f0806100c36000396000f3006060604052361561008a576000357c01000000000000000000000000000000000000000000000000000000009004806301cb3b20146102d357806329dcb0cf146102e057806338af3eed146103015780636e66f6e9146103385780637a3a0e841461036f5780637b3e5e7b14610390578063a035b1fe146103b1578063dc0d3dff146103d25761008a565b6102d15b600060066000506006600050805460010190818154818355818115116101175760020281600202836000526020600020918201910161011691906100cd565b808211156101125760006000820160006101000a81549073ffffffffffffffffffffffffffffffffffffffff02191690556001820160005060009055506001016100cd565b5090565b5b50505081548110156100025790600052602060002090600202016000509050338160000160006101000a81548173ffffffffffffffffffffffffffffffffffffffff0219169083021790555034816001016000508190555080600101600050546002600082828250540192505081905550600560009054906101000a900473ffffffffffffffffffffffffffffffffffffffff1673ffffffffffffffffffffffffffffffffffffffff166390b98a1133600460005054846001016000505404604051837c0100000000000000000000000000000000000000000000000000000000028152600401808373ffffffffffffffffffffffffffffffffffffffff168152602001828152602001925050506020604051808303816000876161da5a03f1156100025750505060405151507fe842aea7a5f1b01049d752008c53c52890b1a6daf660cf39e8eec506112bbdf68160000160009054906101000a900473ffffffffffffffffffffffffffffffffffffffff1682600101600050546001604051808473ffffffffffffffffffffffffffffffffffffffff168152602001838152602001828152602001935050505060405180910390a15b50565b005b6102de6004506104dc565b005b6102eb60045061044e565b6040518082815260200191505060405180910390f35b61030c600450610416565b604051808273ffffffffffffffffffffffffffffffffffffffff16815260200191505060405180910390f35b610343600450610460565b604051808273ffffffffffffffffffffffffffffffffffffffff16815260200191505060405180910390f35b61037a60045061043c565b6040518082815260200191505060405180910390f35b61039b600450610445565b6040518082815260200191505060405180910390f35b6103bc600450610457565b6040518082815260200191505060405180910390f35b6103e3600480359060200150610486565b604051808373ffffffffffffffffffffffffffffffffffffffff1681526020018281526020019250505060405180910390f35b600060009054906101000a900473ffffffffffffffffffffffffffffffffffffffff1681565b60016000505481565b60026000505481565b60036000505481565b60046000505481565b600560009054906101000a900473ffffffffffffffffffffffffffffffffffffffff1681565b60066000508181548110156100025790600052602060002090600202016000915090508060000160009054906101000a900473ffffffffffffffffffffffffffffffffffffffff16908060010160005054905082565b6000600360005054421015156107ec576001600050546002600050541015156105e357600060009054906101000a900473ffffffffffffffffffffffffffffffffffffffff1673ffffffffffffffffffffffffffffffffffffffff166000600260005054604051809050600060405180830381858888f19350505050507fe842aea7a5f1b01049d752008c53c52890b1a6daf660cf39e8eec506112bbdf6600060009054906101000a900473ffffffffffffffffffffffffffffffffffffffff166002600050546000604051808473ffffffffffffffffffffffffffffffffffffffff168152602001838152602001828152602001935050505060405180910390a16107b1565b7fe842aea7a5f1b01049d752008c53c52890b1a6daf660cf39e8eec506112bbdf66000600b600060405180848152602001838152602001828152602001935050505060405180910390a1600090505b6006600050548110156107b057600660005081815481101561000257906000526020600020906002020160005060000160009054906101000a900473ffffffffffffffffffffffffffffffffffffffff1673ffffffffffffffffffffffffffffffffffffffff166000600660005083815481101561000257906000526020600020906002020160005060010160005054604051809050600060405180830381858888f19350505050507fe842aea7a5f1b01049d752008c53c52890b1a6daf660cf39e8eec506112bbdf6600660005082815481101561000257906000526020600020906002020160005060000160009054906101000a900473ffffffffffffffffffffffffffffffffffffffff166006600050838154811015610002579060005260206000209060020201600050600101600050546000604051808473ffffffffffffffffffffffffffffffffffffffff168152602001838152602001828152602001935050505060405180910390a15b8060010190508050610632565b5b600060009054906101000a900473ffffffffffffffffffffffffffffffffffffffff1673ffffffffffffffffffffffffffffffffffffffff16ff5b5b50560000000000000000000000008d7bb355b02ca6822f767a92d9125007011c313e0000000000000000000000000000000000000000000000056bc75e2d63100000000000000000000000000000000000000000000000000000000000000000001e00000000000000000000000000000000000000000000000000470de4df820000000000000000000000000000a1a040d54c897b7e7476cea14525c5c2ab7c3c00",
      "r": "0x0dddcf8c14b7fd4e6155ecca545fb64034df68540680f0b2bf4bb766998982fd",
      "s": "0x323e041f8690cd8c3b40adab76de515eefe034f22afba564ea2870fc66c560fa",
      "v": 27,
      "creates": "0xE0381E00E1F4E8F39aFebF6d93cA0C31A3B59A9f",
      "raw": "0xf909a608850e05f0beda830f42408080b90953606060405260405160a0806108b38339016040526060805190602001805190602001805190602001805190602001805190602001505b84600060006101000a81548173ffffffffffffffffffffffffffffffffffffffff0219169083021790555083600160005081905550603c830242016003600050819055508160046000508190555080600560006101000a81548173ffffffffffffffffffffffffffffffffffffffff021916908302179055505b50505050506107f0806100c36000396000f3006060604052361561008a576000357c01000000000000000000000000000000000000000000000000000000009004806301cb3b20146102d357806329dcb0cf146102e057806338af3eed146103015780636e66f6e9146103385780637a3a0e841461036f5780637b3e5e7b14610390578063a035b1fe146103b1578063dc0d3dff146103d25761008a565b6102d15b600060066000506006600050805460010190818154818355818115116101175760020281600202836000526020600020918201910161011691906100cd565b808211156101125760006000820160006101000a81549073ffffffffffffffffffffffffffffffffffffffff02191690556001820160005060009055506001016100cd565b5090565b5b50505081548110156100025790600052602060002090600202016000509050338160000160006101000a81548173ffffffffffffffffffffffffffffffffffffffff0219169083021790555034816001016000508190555080600101600050546002600082828250540192505081905550600560009054906101000a900473ffffffffffffffffffffffffffffffffffffffff1673ffffffffffffffffffffffffffffffffffffffff166390b98a1133600460005054846001016000505404604051837c0100000000000000000000000000000000000000000000000000000000028152600401808373ffffffffffffffffffffffffffffffffffffffff168152602001828152602001925050506020604051808303816000876161da5a03f1156100025750505060405151507fe842aea7a5f1b01049d752008c53c52890b1a6daf660cf39e8eec506112bbdf68160000160009054906101000a900473ffffffffffffffffffffffffffffffffffffffff1682600101600050546001604051808473ffffffffffffffffffffffffffffffffffffffff168152602001838152602001828152602001935050505060405180910390a15b50565b005b6102de6004506104dc565b005b6102eb60045061044e565b6040518082815260200191505060405180910390f35b61030c600450610416565b604051808273ffffffffffffffffffffffffffffffffffffffff16815260200191505060405180910390f35b610343600450610460565b604051808273ffffffffffffffffffffffffffffffffffffffff16815260200191505060405180910390f35b61037a60045061043c565b6040518082815260200191505060405180910390f35b61039b600450610445565b6040518082815260200191505060405180910390f35b6103bc600450610457565b6040518082815260200191505060405180910390f35b6103e3600480359060200150610486565b604051808373ffffffffffffffffffffffffffffffffffffffff1681526020018281526020019250505060405180910390f35b600060009054906101000a900473ffffffffffffffffffffffffffffffffffffffff1681565b60016000505481565b60026000505481565b60036000505481565b60046000505481565b600560009054906101000a900473ffffffffffffffffffffffffffffffffffffffff1681565b60066000508181548110156100025790600052602060002090600202016000915090508060000160009054906101000a900473ffffffffffffffffffffffffffffffffffffffff16908060010160005054905082565b6000600360005054421015156107ec576001600050546002600050541015156105e357600060009054906101000a900473ffffffffffffffffffffffffffffffffffffffff1673ffffffffffffffffffffffffffffffffffffffff166000600260005054604051809050600060405180830381858888f19350505050507fe842aea7a5f1b01049d752008c53c52890b1a6daf660cf39e8eec506112bbdf6600060009054906101000a900473ffffffffffffffffffffffffffffffffffffffff166002600050546000604051808473ffffffffffffffffffffffffffffffffffffffff168152602001838152602001828152602001935050505060405180910390a16107b1565b7fe842aea7a5f1b01049d752008c53c52890b1a6daf660cf39e8eec506112bbdf66000600b600060405180848152602001838152602001828152602001935050505060405180910390a1600090505b6006600050548110156107b057600660005081815481101561000257906000526020600020906002020160005060000160009054906101000a900473ffffffffffffffffffffffffffffffffffffffff1673ffffffffffffffffffffffffffffffffffffffff166000600660005083815481101561000257906000526020600020906002020160005060010160005054604051809050600060405180830381858888f19350505050507fe842aea7a5f1b01049d752008c53c52890b1a6daf660cf39e8eec506112bbdf6600660005082815481101561000257906000526020600020906002020160005060000160009054906101000a900473ffffffffffffffffffffffffffffffffffffffff166006600050838154811015610002579060005260206000209060020201600050600101600050546000604051808473ffffffffffffffffffffffffffffffffffffffff168152602001838152602001828152602001935050505060405180910390a15b8060010190508050610632565b5b600060009054906101000a900473ffffffffffffffffffffffffffffffffffffffff1673ffffffffffffffffffffffffffffffffffffffff16ff5b5b50560000000000000000000000008d7bb355b02ca6822f767a92d9125007011c313e0000000000000000000000000000000000000000000000056bc75e2d63100000000000000000000000000000000000000000000000000000000000000000001e00000000000000000000000000000000000000000000000000470de4df820000000000000000000000000000a1a040d54c897b7e7476cea14525c5c2ab7c3c001ba00dddcf8c14b7fd4e6155ecca545fb64034df68540680f0b2bf4bb766998982fda0323e041f8690cd8c3b40adab76de515eefe034f22afba564ea2870fc66c560fa",
      "networkId": 0,
      "chainId": 0
    },
    {
      "hash": "0x80488ed1ddf95bdcd4435ca337f8846b57cef5ad52336baf3f75de4cbb3a7463",
      "blockHash": "0x757410c3b5a6b067dc7956469a693aa1b454afd8c542bce28022acaa0f43a99b",
      "blockNumber": 122372,
      "transactionIndex": 1,
      "confirmations": null,
      "from": "0x96AA9d72B4606B440Ef85352439AEC5Db106ddAD",
      "gasPrice": {
        "_hex": "0xba43b7400"
      },
      "gasLimit": {
        "_hex": "0xf4240"
      },
      "to": "0xDf415bb7AE2363ecbb6A595F07cBc2Fc0fD417D3",
      "value": {
        "_hex": "0x3782dace9d900000"
      },
      "nonce": 6,
      "data": "0x",
      "r": "0x2d94c4eaa6d760c641b33a6cbc9a88578298f75713e385d7a6b52a1e0fe45550",
      "s": "0x5c9278c395b28ebbe0e01fd7d267508d0a6454f3e5ec1d2b68fa471378a5fdcb",
      "v": 28,
      "creates": null,
      "raw": "0xf86d06850ba43b7400830f424094df415bb7ae2363ecbb6a595f07cbc2fc0fd417d3883782dace9d900000801ca02d94c4eaa6d760c641b33a6cbc9a88578298f75713e385d7a6b52a1e0fe45550a05c9278c395b28ebbe0e01fd7d267508d0a6454f3e5ec1d2b68fa471378a5fdcb",
      "networkId": 0,
      "chainId": 0
    }
  ]
}