{
  "hash": "0x64ce2fe8b801eef9477911fe4aea21145ab9d9030808e776586e948bc572a1a5",
  "parentHash": "0x9a61585fc2e4c3a9a445f34100b602169412fba55cd8f7bc9f7b51db94085837",
  "number": 110596,
  "timestamp": 1439976410,
  "nonce": "0x1d802f500dae8650",
  "difficulty": 4369100470937,
  "gasLimit": {
    "_hex": "0x2fefd8"
  },
  "gasUsed": {
    "_hex": "0x5208"
  },
  "miner": "0xe6A7a1d47ff21B6321162AEA7C6CB457D5476Bca",
  "extraData": "0x476574682f76312e302e312d38326566323666362f6c696e75782f676f312e34",
  "transactions": [
    {
      "hash": "0x2a1608c797af91a03162352a728c530349d8e2cf1136adb9351583383ae7865d",
      "blockHash": "0x64ce2fe8b801eef9477911fe4aea21145ab9d9030808e776586e948bc572a1a5",
      "blockNumber": 110596,
      "transactionIndex": 0,
      "confirmations": null,
      "from": "0x32Be343B94f860124dC4fEe278FDCBD38C102D88",
      "gasPrice": {
        "_hex": "0xcc7f60d0b"
      },
      "gasLimit": {
        "_hex": "0x5208"
      },
      "to": "0xd268fB48FA174088a25a120aFF0fd8eb0C2d4c87",
      "value": {
        "_hex": "0xe3013c87ac944000000"
      },
      "nonce": 1290,
      "data": "0x",
      "r": "0xa7e8bb3089aea5e6d50d5a0fdb5eac3b816e2e6d28ef065b86772555e846c4ee",
      "s": "0x7c7f088013a30813144426efbe790ab459b4353a4913163139ef91cb9d30e5dd",
      "v": 27,
      "creates": null,
      "raw": "0xf87082050a850cc7f60d0b82520894d268fb48fa174088a25a120aff0fd8eb0c2d4c878a0e3013c87ac944000000801ba0a7e8bb3089aea5e6d50d5a0fdb5eac3b816e2e6d28ef065b86772555e846c4eea07c7f088013a30813144426efbe790ab459b4353a4913163139ef91cb9d30e5dd",
      "networkId": 0,
      "chainId": 0
    }
  ]
}