{
  "hash": "0x338ec2a68af21a7c825442d7a44e54f594e89bb3609d5798755b398761aaa795",
  "parentHash": "0xcd615993d780dde30cb1ba9a6c8acfff08b09875374b866d142bf027ddbb3040",
  "number": 101319,
  "timestamp": 1439821125,
  "nonce": "0x02997bffc3f75c97",
  "difficulty": 3809429521499,
  "gasLimit": {
    "_hex": "0x2fefd8"
  },
  "gasUsed": {
    "_hex": "0x5208"
  },
  "miner": "0xB1A4B41b8e75a153841c99c62d18588d45e7b406",
  "extraData": "0x",
  "transactions": [
    {
      "hash": "0xfe87b705d686b2d0f43a9c408f0ade3cc5ac9b2b5ebe55f01769362cbcd104b4",
      "blockHash": "0x338ec2a68af21a7c825442d7a44e54f594e89bb3609d5798755b398761aaa795",
      "blockNumber": 101319,
      "transactionIndex": 0,
      "confirmations": null,
      "from": "0xFD7c9117BbEB649d9b37B3D3C9917f7c12f526B3",
      "gasPrice": {
        "_hex": "0xcd353d588"
      },
      "gasLimit": {
        "_hex": "0x5208"
      },
      "to": "0x32Be343B94f860124dC4fEe278FDCBD38C102D88",
      "value": {
        "_hex": "0x1a5c1db09f2f2c0000"
      },
      "nonce": 29,
      "data": "0x",
      "r": "0xdaa6c065cae0d13840a48d1748f46b297ad2b1a1c6e4cebae1440ace8e2ab3a9",
      "s": "0x04677cf70cb2ad6359c969c58a355c59aa0e445874c050aaf3b81c34d09c9c3c",
      "v": 27,
      "creates": null,
      "raw": "0xf86d1d850cd353d5888252089432be343b94f860124dc4fee278fdcbd38c102d88891a5c1db09f2f2c0000801ba0daa6c065cae0d13840a48d1748f46b297ad2b1a1c6e4cebae1440ace8e2ab3a9a004677cf70cb2ad6359c969c58a355c59aa0e445874c050aaf3b81c34d09c9c3c",
      "networkId": 0,
      "chainId": 0
    }
  ]
}