{
  "hash": "0x84488a53c742b74ff93a7adb3362349196133c668a095b4c8667c8eec4b25447",
  "parentHash": "0x7cf6876e580298ca78bd5ef7813e99bdea418513c3090401353f6317c600dabc",
  "number": 102535,
  "timestamp": 1439839537,
  "nonce": "0x160dfdda7fa6ee03",
  "difficulty": 3979991977155,
  "gasLimit": {
    "_hex": "0x2fefd8"
  },
  "gasUsed": {
    "_hex": "0x5208"
  },
  "miner": "0xe6A7a1d47ff21B6321162AEA7C6CB457D5476Bca",
  "extraData": "0x476574682f76312e302e312d38326566323666362f6c696e75782f676f312e34",
  "transactions": [
    {
      "hash": "0xff989cf477791771c3b73315f86fa8cfa8769b29cd8a502529510fa45ca3fbae",
      "blockHash": "0x84488a53c742b74ff93a7adb3362349196133c668a095b4c8667c8eec4b25447",
      "blockNumber": 102535,
      "transactionIndex": 0,
      "confirmations": null,
      "from": "0xe0e82eD3e93079cE76aAC1dA7b4bfa990D885A0D",
      "gasPrice": {
        "_hex": "0xd8b2f843c"
      },
      "gasLimit": {
        "_hex": "0x5208"
      },
      "to": "0xFBb1b73C4f0BDa4f67dcA266ce6Ef42f520fBB98",
      "value": {
        "_hex": "0x41cd8983292497220"
      },
      "nonce": 4,
      "data": "0x",
      "r": "0xba0440782f4cbffee39b27cfb4ae42872eb67b25fe993b3b68d999a883c77c60",
      "s": "0x6b1e1dd9ed9370c2ba3eede593e7b2871856facec1ec200de133a331eecb82ee",
      "v": 28,
      "creates": null,
      "raw": "0xf86d04850d8b2f843c82520894fbb1b73c4f0bda4f67dca266ce6ef42f520fbb9889041cd8983292497220801ca0ba0440782f4cbffee39b27cfb4ae42872eb67b25fe993b3b68d999a883c77c60a06b1e1dd9ed9370c2ba3eede593e7b2871856facec1ec200de133a331eecb82ee",
      "networkId": 0,
      "chainId": 0
    }
  ]
}