{
  "hash": "0xc3ca5c33b466f229291a144d1238065fa9873c9eedd13a45f24767daea8539ac",
  "parentHash": "0xe6d5e2f06161e75088517bef3fcc2d650b74ac4f3145435967ba61d33ea573da",
  "number": 114018,
  "timestamp": 1440033473,
  "nonce": "0xb1704d596ef66d0d",
  "difficulty": 4436093793752,
  "gasLimit": {
    "_hex": "0x2fefd8"
  },
  "gasUsed": {
    "_hex": "0xa410"
  },
  "miner": "0x52bc44d5378309EE2abF1539BF71dE1b7d7bE3b5",
  "extraData": "0x476574682f76312e302e312d65626434373230372f6c696e75782f676f312e34",
  "transactions": [
    {
      "hash": "0x7136db14ee01fe854b9d0acd8a8c299274931eb781afbb0759ff2fde0c3f144f",
      "blockHash": "0xc3ca5c33b466f229291a144d1238065fa9873c9eedd13a45f24767daea8539ac",
      "blockNumber": 114018,
      "transactionIndex": 0,
      "confirmations": null,
      "from": "0x120A270bbC009644e35F0bB6ab13f95b8199c4ad",
      "gasPrice": {
        "_hex": "0xcc6307bca"
      },
      "gasLimit": {
        "_hex": "0x3d090"
      },
      "to": "0xbcA4F36c7492412C1489Cc26B1cD54259d792899",
      "value": {
        "_hex": "0x5150ae84a8cdf00000"
      },
      "nonce": 923,
      "data": "0x",
      "r": "0x846289290006539c94f1d81bbede5121918fceb67fea92cea02550ac6d9269b8",
      "s": "0x6ef33365004fd8ebb3fd8797b53821db2eb7433c5c515749afe82ecee38f62a8",
      "v": 28,
      "creates": null,
      "raw": "0xf87082039b850cc6307bca8303d09094bca4f36c7492412c1489cc26b1cd54259d792899895150ae84a8cdf00000801ca0846289290006539c94f1d81bbede5121918fceb67fea92cea02550ac6d9269b8a06ef33365004fd8ebb3fd8797b53821db2eb7433c5c515749afe82ecee38f62a8",
      "networkId": 0,
      "chainId": 0
    },
    {
      "hash": "0xc7294f8ff2c408ba38439fbf26ae6299826c562c4e37d3ed8dcc610dccf76d17",
      "blockHash": "0xc3ca5c33b466f229291a144d1238065fa9873c9eedd13a45f24767daea8539ac",
      "blockNumber": 114018,
      "transactionIndex": 1,
      "confirmations": null,
      "from": "0xAD220cCE3937674e425c9693786E3eC3615C900C",
      "gasPrice": {
        "_hex": "0xba43b7400"
      },
      "gasLimit": {
        "_hex": "0x5267"
      },
      "to": "0xB4137d028aBB8Dc65A224E4751397d50DdE6c73D",
      "value": {
        "_hex": "0xdd247e129fd98000"
      },
      "nonce": 5,
      "data": "0x",
      "r": "0xed5b38f35709caee109644904eb7b0338bf46f7288cd3ca761eca0156a6fc293",
      "s": "0xaba21f467516192310d10967fa3ad01ecc4379326fe85aa063da743e52083da4",
      "v": 27,
      "creates": null,
      "raw": "0xf86c05850ba43b740082526794b4137d028abb8dc65a224e4751397d50dde6c73d88dd247e129fd98000801ba0ed5b38f35709caee109644904eb7b0338bf46f7288cd3ca761eca0156a6fc293a0aba21f467516192310d10967fa3ad01ecc4379326fe85aa063da743e52083da4",
      "networkId": 0,
      "chainId": 0
    }
  ]
}