{
  "hash": "0x2e57519ae03bd989564fd3be264436307d3c48182cc614c79137aa7450a9b931",
  "parentHash": "0x3d233609500227d69e208d52baf92f4812bc240ba6de541fe4725da0ec092f30",
  "number": 64547,
  "timestamp": 1439222560,
  "nonce": "0xfaf539bc8c462959",
  "difficulty": 1884863005397,
  "gasLimit": {
    "_hex": "0x2fefd8"
  },
  "gasUsed": {
    "_hex": "0x23b44"
  },
  "miner": "0x88D74a59454F6cF3B51ef6b9136AFb6b9D405A88",
  "extraData": "0x476574682f76312e302e312d37666266393930632f6c696e75782f676f312e34",
  "transactions": [
    {
      "hash": "0xd00eed80489b6842d2d0507a8df3908a58cdd0cf12d51c9eac725f84bd968f75",
      "blockHash": "0x2e57519ae03bd989564fd3be264436307d3c48182cc614c79137aa7450a9b931",
      "blockNumber": 64547,
      "transactionIndex": 0,
      "confirmations": null,
      "from": "0xFed19cFBf47abF30df177e69edA1e453b920C7B2",
      "gasPrice": {
        "_hex": "0xba43b7400"
      },
      "gasLimit": {
        "_hex": "0x15f90"
      },
      "to": "0x793AE8C1b1a160BFc07BFB0d04F85eab1A71F4f2",
      "value": {
        "_hex": "0x0"
      },
      "nonce": 0,
      "data": "0x3ba15036",
      "r": "0xb5f2e53fd4e22a8c6417f4df1069e9ca0dc431e371020b19b4cc29a7e7293b6e",
      "s": "0x2ab744383e2da44f96f980e49055ef5953c7a0e29ea08d5c7b71ea3320815a01",
      "v": 28,
      "creates": null,
      "raw": "0xf86980850ba43b740083015f9094793ae8c1b1a160bfc07bfb0d04f85eab1a71f4f280843ba150361ca0b5f2e53fd4e22a8c6417f4df1069e9ca0dc431e371020b19b4cc29a7e7293b6ea02ab744383e2da44f96f980e49055ef5953c7a0e29ea08d5c7b71ea3320815a01",
      "networkId": 0,
      "chainId": 0
    },
    {
      "hash": "0x58098428232dfaab4617639a5c2d268ef531d95b2ce8b4f653c33c22c14697ea",
      "blockHash": "0x2e57519ae03bd989564fd3be264436307d3c48182cc614c79137aa7450a9b931",
      "blockNumber": 64547,
      "transactionIndex": 1,
      "confirmations": null,
      "from": "0x6F768079A84B5383218F405C1C52F45e991B29dA",
      "gasPrice": {
        "_hex": "0xba43b7400"
      },
      "gasLimit": {
        "_hex": "0x15f90"
      },
      "to": "0x793AE8C1b1a160BFc07BFB0d04F85eab1A71F4f2",
      "value": {
        "_hex": "0x0"
      },
      "nonce": 0,
      "data": "0x3ba15036",
      "r": "0xa06d228a400665cf0605f751720ec038c7a9e2e703f56160a8322a33110da00a",
      "s": "0x63797437158a41e1d9c0dac5b1663da7b6a3c40d8e582dd2c63bd813d6f2b0ad",
      "v": 27,
      "creates": null,
      "raw": "0xf86980850ba43b740083015f9094793ae8c1b1a160bfc07bfb0d04f85eab1a71f4f280843ba150361ba0a06d228a400665cf0605f751720ec038c7a9e2e703f56160a8322a33110da00aa063797437158a41e1d9c0dac5b1663da7b6a3c40d8e582dd2c63bd813d6f2b0ad",
      "networkId": 0,
      "chainId": 0
    },
    {
      "hash": "0x53ec700873b9bdfcf11a800c0271c1a1c601f8adea1ace429e040f933f6c3a05",
      "blockHash": "0x2e57519ae03bd989564fd3be264436307d3c48182cc614c79137aa7450a9b931",
      "blockNumber": 64547,
      "transactionIndex": 2,
      "confirmations": null,
      "from": "0x4518B3c332b02EaE0bcbD319dAA25A584f1034bc",
      "gasPrice": {
        "_hex": "0xba43b7400"
      },
      "gasLimit": {
        "_hex": "0x15f90"
      },
      "to": "0x793AE8C1b1a160BFc07BFB0d04F85eab1A71F4f2",
      "value": {
        "_hex": "0x0"
      },
      "nonce": 0,
      "data": "0x3ba15036",
      "r": "0x3d1b35f47d51826e02d8f163d1bd6b66c20c6ff258a47e3c0d4343cdb8495df4",
      "s": "0x30153ea98cc6bddd3c86548fc110ee60812b166ee4d53f694cd019c9d2816327",
      "v": 27,
      "creates": null,
      "raw": "0xf86980850ba43b740083015f9094793ae8c1b1a160bfc07bfb0d04f85eab1a71f4f280843ba150361ba03d1b35f47d51826e02d8f163d1bd6b66c20c6ff258a47e3c0d4343cdb8495df4a030153ea98cc6bddd3c86548fc110ee60812b166ee4d53f694cd019c9d2816327",
      "networkId": 0,
      "chainId": 0
    }
  ]
}