{
  "hash": "0x13dcb07e3ad3caf8a332eaeefd162c6f12c42f95fe7992b6bd346e5aab6f4ab1",
  "parentHash": "0x0a54ae01c5122424b21aae94eff7b6de293342a60e3b2b654f0c3e45d1e56dcf",
  "number": 73346,
  "timestamp": 1439367725,
  "nonce": "0xf315da627a06c15f",
  "difficulty": 2195950155038,
  "gasLimit": {
    "_hex": "0x2fefd5"
  },
  "gasUsed": {
    "_hex": "0x22894"
  },
  "miner": "0x9298A283561414096A90B8e52c2202D03F3406A9",
  "extraData": "0x",
  "transactions": [
    {
      "hash": "0xa9726c8298d9b0cd8d0209079414ec6b7d2ebfab178951780d7f18fcd79974e2",
      "blockHash": "0x13dcb07e3ad3caf8a332eaeefd162c6f12c42f95fe7992b6bd346e5aab6f4ab1",
      "blockNumber": 73346,
      "transactionIndex": 0,
      "confirmations": null,
      "from": "0x87C5B5874A18B4306DF8a752a6C8cc3E82daFc19",
      "gasPrice": {
        "_hex": "0x10b3274548a"
      },
      "gasLimit": {
        "_hex": "0x493e0"
      },
      "to": "0xB86A36e3E0d2E8132F5798119148eDEF957E1912",
      "value": {
        "_hex": "0x0"
      },
      "nonce": 0,
      "data": "0x03750d94000000000000000000000000326be8f71bfb0379f989aab1cc1fe37f0a771f604e6f376f56557153483977355441634100000000000000000000000000000000",
      "r": "0x48c207ab1480a6abcf40feda08ea245a356c8447df2fe27123af040e2edfbbf2",
      "s": "0x6170b3c7a973668ef367d9af35880eeb38c281bd50b0be6beb08a0d96156a507",
      "v": 27,
      "creates": null,
      "raw": "0xf8ab8086010b3274548a830493e094b86a36e3e0d2e8132f5798119148edef957e191280b84403750d94000000000000000000000000326be8f71bfb0379f989aab1cc1fe37f0a771f604e6f376f565571534839773554416341000000000000000000000000000000001ba048c207ab1480a6abcf40feda08ea245a356c8447df2fe27123af040e2edfbbf2a06170b3c7a973668ef367d9af35880eeb38c281bd50b0be6beb08a0d96156a507",
      "networkId": 0,
      "chainId": 0
    },
    {
      "hash": "0x67fd56ea42577130fd14344d4eee1a7c8a76cc5e87a3794f6830b85baf4aa549",
      "blockHash": "0x13dcb07e3ad3caf8a332eaeefd162c6f12c42f95fe7992b6bd346e5aab6f4ab1",
      "blockNumber": 73346,
      "transactionIndex": 1,
      "confirmations": null,
      "from": "0x87C5B5874A18B4306DF8a752a6C8cc3E82daFc19",
      "gasPrice": {
        "_hex": "0x10b3274548a"
      },
      "gasLimit": {
        "_hex": "0x493e0"
      },
      "to": "0xB86A36e3E0d2E8132F5798119148eDEF957E1912",
      "value": {
        "_hex": "0x0"
      },
      "nonce": 1,
      "data": "0x03750d94000000000000000000000000326be8f71bfb0379f989aab1cc1fe37f0a771f606d78427344534736757455307043457700000000000000000000000000000000",
      "r": "0xcbf1ce60ae37a5ec7a45f3cc1a98aee8fb95d6af7d054d80d5ede2bf9b774057",
      "s": "0x36ed0741b370d732c581ca08897f15bbaefe71dd0efe5b137a87298445575949",
      "v": 28,
      "creates": null,
      "raw": "0xf8ab0186010b3274548a830493e094b86a36e3e0d2e8132f5798119148edef957e191280b84403750d94000000000000000000000000326be8f71bfb0379f989aab1cc1fe37f0a771f606d784273445347367574553070434577000000000000000000000000000000001ca0cbf1ce60ae37a5ec7a45f3cc1a98aee8fb95d6af7d054d80d5ede2bf9b774057a036ed0741b370d732c581ca08897f15bbaefe71dd0efe5b137a87298445575949",
      "networkId": 0,
      "chainId": 0
    },
    {
      "hash": "0x39d4f621961aafb7089549843a7f195c5f744b84206acd26c90e83ac783e63db",
      "blockHash": "0x13dcb07e3ad3caf8a332eaeefd162c6f12c42f95fe7992b6bd346e5aab6f4ab1",
      "blockNumber": 73346,
      "transactionIndex": 2,
      "confirmations": null,
      "from": "0x87C5B5874A18B4306DF8a752a6C8cc3E82daFc19",
      "gasPrice": {
        "_hex": "0x10b3274548a"
      },
      "gasLimit": {
        "_hex": "0x493e0"
      },
      "to": "0xB86A36e3E0d2E8132F5798119148eDEF957E1912",
      "value": {
        "_hex": "0x0"
      },
      "nonce": 2,
      "data": "0x03750d94000000000000000000000000326be8f71bfb0379f989aab1cc1fe37f0a771f606162566a6462513237394371504b796200000000000000000000000000000000",
      "r": "0xaaeb94d098f7e361f14ab60d0436fb6afb0d52191ddd50733df64ad43bfa5c3a",
      "s": "0x29965271aa223f776d229c78be02ee3ca3060d7c648a4b26ce43fa38bca9d653",
      "v": 28,
      "creates": null,
      "raw": "0xf8ab0286010b3274548a830493e094b86a36e3e0d2e8132f5798119148edef957e191280b84403750d94000000000000000000000000326be8f71bfb0379f989aab1cc1fe37f0a771f606162566a6462513237394371504b7962000000000000000000000000000000001ca0aaeb94d098f7e361f14ab60d0436fb6afb0d52191ddd50733df64ad43bfa5c3aa029965271aa223f776d229c78be02ee3ca3060d7c648a4b26ce43fa38bca9d653",
      "networkId": 0,
      "chainId": 0
    },
    {
      "hash": "0x465f436d3dc5905ee96db097494d1d5fa7e4966465a2fa31173a1c66b5109e64",
      "blockHash": "0x13dcb07e3ad3caf8a332eaeefd162c6f12c42f95fe7992b6bd346e5aab6f4ab1",
      "blockNumber": 73346,
      "transactionIndex": 3,
      "confirmations": null,
      "from": "0x87C5B5874A18B4306DF8a752a6C8cc3E82daFc19",
      "gasPrice": {
        "_hex": "0x10b3274548a"
      },
      "gasLimit": {
        "_hex": "0x493e0"
      },
      "to": "0xB86A36e3E0d2E8132F5798119148eDEF957E1912",
      "value": {
        "_hex": "0x0"
      },
      "nonce": 3,
      "data": "0x03750d94000000000000000000000000326be8f71bfb0379f989aab1cc1fe37f0a771f60424b68617a377335524362735976496800000000000000000000000000000000",
      "r": "0x0425ac44c35fa658bd10c029e682a5a478c2c9dffa9b90a979ed80c5d237f9f3",
      "s": "0x6cb9968f42f9e9ce78d3ba92ce6daa6684eac4bcad033c905a1d0435c875cdd7",
      "v": 27,
      "creates": null,
      "raw": "0xf8ab0386010b3274548a830493e094b86a36e3e0d2e8132f5798119148edef957e191280b84403750d94000000000000000000000000326be8f71bfb0379f989aab1cc1fe37f0a771f60424b68617a3773355243627359764968000000000000000000000000000000001ba00425ac44c35fa658bd10c029e682a5a478c2c9dffa9b90a979ed80c5d237f9f3a06cb9968f42f9e9ce78d3ba92ce6daa6684eac4bcad033c905a1d0435c875cdd7",
      "networkId": 0,
      "chainId": 0
    },
    {
      "hash": "0x6c24e78a60b34208aedbb7167adfa85afe12640be8d5073f04fdbdabb91c1402",
      "blockHash": "0x13dcb07e3ad3caf8a332eaeefd162c6f12c42f95fe7992b6bd346e5aab6f4ab1",
      "blockNumber": 73346,
      "transactionIndex": 4,
      "confirmations": null,
      "from": "0x87C5B5874A18B4306DF8a752a6C8cc3E82daFc19",
      "gasPrice": {
        "_hex": "0x10b3274548a"
      },
      "gasLimit": {
        "_hex": "0x493e0"
      },
      "to": "0xB86A36e3E0d2E8132F5798119148eDEF957E1912",
      "value": {
        "_hex": "0x0"
      },
      "nonce": 4,
      "data": "0x03750d94000000000000000000000000326be8f71bfb0379f989aab1cc1fe37f0a771f607a4a6f3249344a62345277564f6f4f5300000000000000000000000000000000",
      "r": "0xb022135bee45f31206ff6a906929eff0eb6670b4bde308476e0ce93d6c71a8cd",
      "s": "0x5a7d359e776afc551489be01cb1a60eb3b34a19c8d5b057af79d290307dfa382",
      "v": 28,
      "creates": null,
      "raw": "0xf8ab0486010b3274548a830493e094b86a36e3e0d2e8132f5798119148edef957e191280b84403750d94000000000000000000000000326be8f71bfb0379f989aab1cc1fe37f0a771f607a4a6f3249344a62345277564f6f4f53000000000000000000000000000000001ca0b022135bee45f31206ff6a906929eff0eb6670b4bde308476e0ce93d6c71a8cda05a7d359e776afc551489be01cb1a60eb3b34a19c8d5b057af79d290307dfa382",
      "networkId": 0,
      "chainId": 0
    },
    {
      "hash": "0x2e1d3bf2cf87ef177acd27f7e5c7f65f5bf215ff5dd7c6b3365824187199ddf5",
      "blockHash": "0x13dcb07e3ad3caf8a332eaeefd162c6f12c42f95fe7992b6bd346e5aab6f4ab1",
      "blockNumber": 73346,
      "transactionIndex": 5,
      "confirmations": null,
      "from": "0x32Be343B94f860124dC4fEe278FDCBD38C102D88",
      "gasPrice": {
        "_hex": "0xdf75e345d"
      },
      "gasLimit": {
        "_hex": "0x5208"
      },
      "to": "0xf4B1114a02EFe852013277F28ed88734Fa81E54f",
      "value": {
        "_hex": "0x68155a43676e00000"
      },
      "nonce": 289,
      "data": "0x",
      "r": "0x88cefc97eea382d8035d594972a2e87c4b1e35d1ce83e494be6a367c6db18fc6",
      "s": "0x44d1f5264fecd480dca5f070ecac75512826291db22d581409a1e54a5ebbc67d",
      "v": 28,
      "creates": null,
      "raw": "0xf86f820121850df75e345d82520894f4b1114a02efe852013277f28ed88734fa81e54f89068155a43676e00000801ca088cefc97eea382d8035d594972a2e87c4b1e35d1ce83e494be6a367c6db18fc6a044d1f5264fecd480dca5f070ecac75512826291db22d581409a1e54a5ebbc67d",
      "networkId": 0,
      "chainId": 0
    }
  ]
}