{
  "hash": "0xafc4ccc0940ea1b0498035f9ac9f0c8dc2d92870eebe9c295caee03d59e8fd73",
  "parentHash": "0xf1edba6c1ed8c758c012d170f80a054fed3903cdc11392529da349c4aaccf8be",
  "number": 80279,
  "timestamp": 1439482982,
  "nonce": "0x886ec3f9b8483d03",
  "difficulty": 2387533942718,
  "gasLimit": {
    "_hex": "0x2fefd8"
  },
  "gasUsed": {
    "_hex": "0x1b6f7"
  },
  "miner": "0x9746c7e1ef2bd21FF3997fa467593a89cb852BD0",
  "extraData": "0x476574682f76312e302e312f77696e646f77732f676f312e342e32",
  "transactions": [
    {
      "hash": "0xa5ec5b54403d5a85acde7dfd79ba243ee9067cebcd6e7014d88aaaa43c551445",
      "blockHash": "0xafc4ccc0940ea1b0498035f9ac9f0c8dc2d92870eebe9c295caee03d59e8fd73",
      "blockNumber": 80279,
      "transactionIndex": 0,
      "confirmations": null,
      "from": "0x87C5B5874A18B4306DF8a752a6C8cc3E82daFc19",
      "gasPrice": {
        "_hex": "0x10942aa5fc0"
      },
      "gasLimit": {
        "_hex": "0x493e0"
      },
      "to": "0xC4c51de1AbF5D60DBd329eC0F999Fd8f021ae9fC",
      "value": {
        "_hex": "0x0"
      },
      "nonce": 161,
      "data": "0xbd66528a6b6b6b0000000000000000000000000000000000000000000000000000000000",
      "r": "0x5f937dba6e8eebf5bc1edb3a7b9a7f011b73a03d3c24dacebc0f3d3c42b20887",
      "s": "0x15cef57e1d8c07f1c2ce5f3f483875cdf1de926499c4a7c560d91b0976e834a8",
      "v": 28,
      "creates": null,
      "raw": "0xf88b81a186010942aa5fc0830493e094c4c51de1abf5d60dbd329ec0f999fd8f021ae9fc80a4bd66528a6b6b6b00000000000000000000000000000000000000000000000000000000001ca05f937dba6e8eebf5bc1edb3a7b9a7f011b73a03d3c24dacebc0f3d3c42b20887a015cef57e1d8c07f1c2ce5f3f483875cdf1de926499c4a7c560d91b0976e834a8",
      "networkId": 0,
      "chainId": 0
    },
    {
      "hash": "0xb2be18a70f5bb9188f1beaa4ceea12730b94ed1788c03be244c41441c92bb8e0",
      "blockHash": "0xafc4ccc0940ea1b0498035f9ac9f0c8dc2d92870eebe9c295caee03d59e8fd73",
      "blockNumber": 80279,
      "transactionIndex": 1,
      "confirmations": null,
      "from": "0x43279854AaF8825a6d1fcCf056caF190Ab8a7b76",
      "gasPrice": {
        "_hex": "0xd45b5e0d4"
      },
      "gasLimit": {
        "_hex": "0x5208"
      },
      "to": "0x32Be343B94f860124dC4fEe278FDCBD38C102D88",
      "value": {
        "_hex": "0xd8d72276583e480000"
      },
      "nonce": 8,
      "data": "0x",
      "r": "0xf138a8bdc4bf72245390b5814f5fbf5d8707000b6941855adebb05da685fb6ed",
      "s": "0x7e59b2436511c1532736cf13e0e4cb91cd7d8187d9b08c39e2af675cf884799f",
      "v": 28,
      "creates": null,
      "raw": "0xf86d08850d45b5e0d48252089432be343b94f860124dc4fee278fdcbd38c102d8889d8d72276583e480000801ca0f138a8bdc4bf72245390b5814f5fbf5d8707000b6941855adebb05da685fb6eda07e59b2436511c1532736cf13e0e4cb91cd7d8187d9b08c39e2af675cf884799f",
      "networkId": 0,
      "chainId": 0
    },
    {
      "hash": "0xcc85c0e8669b4b6b305d3227c7a0b02bca5277b7d022c0b78197af4cf4aeb1dc",
      "blockHash": "0xafc4ccc0940ea1b0498035f9ac9f0c8dc2d92870eebe9c295caee03d59e8fd73",
      "blockNumber": 80279,
      "transactionIndex": 2,
      "confirmations": null,
      "from": "0xD3c9D979502844332d115ff245381BE054A0b98E",
      "gasPrice": {
        "_hex": "0xd45b5e0d4"
      },
      "gasLimit": {
        "_hex": "0x5208"
      },
      "to": "0x32Be343B94f860124dC4fEe278FDCBD38C102D88",
      "value": {
        "_hex": "0x10a300e526412c00"
      },
      "nonce": 1,
      "data": "0x",
      "r": "0x0936181a683c5e04a2a87cb3393e5bdb1689298b9863899f8e4c1d04924acaac",
      "s": "0x3164c717f92a6c54e92d223147b23acd0f4606347dcd8faf847071a5d74e830e",
      "v": 28,
      "creates": null,
      "raw": "0xf86c01850d45b5e0d48252089432be343b94f860124dc4fee278fdcbd38c102d888810a300e526412c00801ca00936181a683c5e04a2a87cb3393e5bdb1689298b9863899f8e4c1d04924acaaca03164c717f92a6c54e92d223147b23acd0f4606347dcd8faf847071a5d74e830e",
      "networkId": 0,
      "chainId": 0
    },
    {
      "hash": "0xdba7129bb6c0633e42456d5bae9d2542670c6f63066e621ac5e05e4e9e4f1b8e",
      "blockHash": "0xafc4ccc0940ea1b0498035f9ac9f0c8dc2d92870eebe9c295caee03d59e8fd73",
      "blockNumber": 80279,
      "transactionIndex": 3,
      "confirmations": null,
      "from": "0x0D4EcC7d750180EBf4A9Df728B6669B5Bceb5E40",
      "gasPrice": {
        "_hex": "0xd45b5e0d4"
      },
      "gasLimit": {
        "_hex": "0x5208"
      },
      "to": "0x32Be343B94f860124dC4fEe278FDCBD38C102D88",
      "value": {
        "_hex": "0x45630bbb35c0cc00"
      },
      "nonce": 0,
      "data": "0x",
      "r": "0xf59cd9a952a9e8cd725cd5707fb9fc601133967d4efb7b0d309e51e96751b8f1",
      "s": "0x2ec3f1cc86be373d89d8faf76f0cb75aa7b4180e8c28cd992bd454157fb71962",
      "v": 27,
      "creates": null,
      "raw": "0xf86c80850d45b5e0d48252089432be343b94f860124dc4fee278fdcbd38c102d888845630bbb35c0cc00801ba0f59cd9a952a9e8cd725cd5707fb9fc601133967d4efb7b0d309e51e96751b8f1a02ec3f1cc86be373d89d8faf76f0cb75aa7b4180e8c28cd992bd454157fb71962",
      "networkId": 0,
      "chainId": 0
    },
    {
      "hash": "0xfe60ce69a3ed86b5f1ca27ceae242c440ad90b100dd5a88dabd8788b5f7dfa67",
      "blockHash": "0xafc4ccc0940ea1b0498035f9ac9f0c8dc2d92870eebe9c295caee03d59e8fd73",
      "blockNumber": 80279,
      "transactionIndex": 4,
      "confirmations": null,
      "from": "0x5E33810d055F68eBA415be93fAEC212e9a2d6723",
      "gasPrice": {
        "_hex": "0xd45b5e0d4"
      },
      "gasLimit": {
        "_hex": "0x5208"
      },
      "to": "0x32Be343B94f860124dC4fEe278FDCBD38C102D88",
      "value": {
        "_hex": "0xddc75f46b2d2c00"
      },
      "nonce": 0,
      "data": "0x",
      "r": "0x59f29c3e545a0ebd9372edbfa2c874ba5cc03e29012fe63b8ef00d48fc19847e",
      "s": "0x0944aa8013cd7156a176a0c6d85b548b7d25aafbda2602e0601c2185f649176b",
      "v": 27,
      "creates": null,
      "raw": "0xf86c80850d45b5e0d48252089432be343b94f860124dc4fee278fdcbd38c102d88880ddc75f46b2d2c00801ba059f29c3e545a0ebd9372edbfa2c874ba5cc03e29012fe63b8ef00d48fc19847ea00944aa8013cd7156a176a0c6d85b548b7d25aafbda2602e0601c2185f649176b",
      "networkId": 0,
      "chainId": 0
    }
  ]
}