{
  "hash": "0xcff581350e8c76aa3dd01380d980cd8d7b64a78531fea63e069a455997ad881b",
  "parentHash": "0xac7ba8683092443a8e42aeba8e05ae3e3650cb9336e11f2ac95706352ae7cf2b",
  "number": 120601,
  "timestamp": 1440162763,
  "nonce": "0xaceb56f21e5fd758",
  "difficulty": 4421805300569,
  "gasLimit": {
    "_hex": "0x2fefd8"
  },
  "gasUsed": {
    "_hex": "0xa410"
  },
  "miner": "0x5F8F73E26CdF436f19Cb24C82F90A15AFe55b592",
  "extraData": "0x",
  "transactions": [
    {
      "hash": "0xfc4417cf1f530907bc759c9eb174803445a92e0bfda806c5841acd8bfde8cefd",
      "blockHash": "0xcff581350e8c76aa3dd01380d980cd8d7b64a78531fea63e069a455997ad881b",
      "blockNumber": 120601,
      "transactionIndex": 0,
      "confirmations": null,
      "from": "0x32Be343B94f860124dC4fEe278FDCBD38C102D88",
      "gasPrice": {
        "_hex": "0xba43b7400"
      },
      "gasLimit": {
        "_hex": "0x5208"
      },
      "to": "0x0C473d7A7006C15EDd586751F352F1D74Bea83FE",
      "value": {
        "_hex": "0x20762686b38bde0000"
      },
      "nonce": 1528,
      "data": "0x",
      "r": "0x0e26c0b19b683c2ec03d3de598efba933070108294e5e298ddcf9c2af8b49540",
      "s": "0x461ed1875cf0d34e609af58d750a701e96a15f944d14d691be98adf0099d6352",
      "v": 28,
      "creates": null,
      "raw": "0xf86f8205f8850ba43b7400825208940c473d7a7006c15edd586751f352f1d74bea83fe8920762686b38bde0000801ca00e26c0b19b683c2ec03d3de598efba933070108294e5e298ddcf9c2af8b49540a0461ed1875cf0d34e609af58d750a701e96a15f944d14d691be98adf0099d6352",
      "networkId": 0,
      "chainId": 0
    },
    {
      "hash": "0xaaadb768d942f3c81ad54e800ec93606c135e3173591f751598895182a1c35a2",
      "blockHash": "0xcff581350e8c76aa3dd01380d980cd8d7b64a78531fea63e069a455997ad881b",
      "blockNumber": 120601,
      "transactionIndex": 1,
      "confirmations": null,
      "from": "0x32Be343B94f860124dC4fEe278FDCBD38C102D88",
      "gasPrice": {
        "_hex": "0xba43b7400"
      },
      "gasLimit": {
        "_hex": "0x5208"
      },
      "to": "0x6919d69d72A285d5d02E8451fDD2021Cf4029970",
      "value": {
        "_hex": "0xdbd2fc137a30000"
      },
      "nonce": 1529,
      "data": "0x",
      "r": "0xa1bd1ca89acc41648a5e51d90fca82cc027bd9be26770983c40fd0bf230bd6ad",
      "s": "0x10c1bb9c5c03da455be2224d63a436b61aabb6ee591387ec5a9898baff161f5d",
      "v": 28,
      "creates": null,
      "raw": "0xf86e8205f9850ba43b7400825208946919d69d72a285d5d02e8451fdd2021cf4029970880dbd2fc137a30000801ca0a1bd1ca89acc41648a5e51d90fca82cc027bd9be26770983c40fd0bf230bd6ada010c1bb9c5c03da455be2224d63a436b61aabb6ee591387ec5a9898baff161f5d",
      "networkId": 0,
      "chainId": 0
    }
  ]
}