{
  "hash": "0xdc6df510cd92d7e9e7f9b1a71aeb4bb5b21c45f8c452d9ebfdf703edde983158",
  "parentHash": "0xae0e38ababe2402515c7355bebe187941ca6bb26f9f5a99ff1b56e863d67bc25",
  "number": 102940,
  "timestamp": 1439845463,
  "nonce": "0x6b8c1efa8113fa95",
  "difficulty": 4104127788464,
  "gasLimit": {
    "_hex": "0x2fefd8"
  },
  "gasUsed": {
    "_hex": "0x5208"
  },
  "miner": "0xe6A7a1d47ff21B6321162AEA7C6CB457D5476Bca",
  "extraData": "0x476574682f76312e302e312d38326566323666362f6c696e75782f676f312e34",
  "transactions": [
    {
      "hash": "0x467aebf0a462f5c6fe94cbd8fef2427b0c07f63914a8c18a0fa582a52756adea",
      "blockHash": "0xdc6df510cd92d7e9e7f9b1a71aeb4bb5b21c45f8c452d9ebfdf703edde983158",
      "blockNumber": 102940,
      "transactionIndex": 0,
      "confirmations": null,
      "from": "0x32Be343B94f860124dC4fEe278FDCBD38C102D88",
      "gasPrice": {
        "_hex": "0xd5a92f803"
      },
      "gasLimit": {
        "_hex": "0x5208"
      },
      "to": "0xCD1e66ED539dd92Fc40bBAa1FA16de8c02C14D45",
      "value": {
        "_hex": "0x4205778692433c000"
      },
      "nonce": 1115,
      "data": "0x",
      "r": "0x0e028631d8be5d1904cd06b67309dd6884811066ec2f3c0f09180394b1523167",
      "s": "0x6d5e814d9905acc1da75231601ab8797c43dce3285621532a3377e85d8108972",
      "v": 28,
      "creates": null,
      "raw": "0xf86f82045b850d5a92f80382520894cd1e66ed539dd92fc40bbaa1fa16de8c02c14d458904205778692433c000801ca00e028631d8be5d1904cd06b67309dd6884811066ec2f3c0f09180394b1523167a06d5e814d9905acc1da75231601ab8797c43dce3285621532a3377e85d8108972",
      "networkId": 0,
      "chainId": 0
    }
  ]
}