{
  "hash": "0x0c43b02375b90e25874609e26bfeb90c5542b453c76442699deed67d24852527",
  "parentHash": "0xeceb8bc803e14c4ef758af8eddff004118aab70ea3ec47c9d4b0e3d49051be84",
  "number": 94684,
  "timestamp": 1439712388,
  "nonce": "0x3bc162ad56a48564",
  "difficulty": 3486557723894,
  "gasLimit": {
    "_hex": "0x2fefd8"
  },
  "gasUsed": {
    "_hex": "0x5208"
  },
  "miner": "0x29Ab575850dCEf127cd8D646fB3c208b3860C2F0",
  "extraData": "0x476574682f76312e302e312f6c696e75782f676f312e342e32",
  "transactions": [
    {
      "hash": "0xddfbf53efeab1b47e4d40f995dbe3c645687d40a4e5ee789a63121bac9ce35e5",
      "blockHash": "0x0c43b02375b90e25874609e26bfeb90c5542b453c76442699deed67d24852527",
      "blockNumber": 94684,
      "transactionIndex": 0,
      "confirmations": null,
      "from": "0x097738363B1662599ad0777E19461601F5EC8dF9",
      "gasPrice": {
        "_hex": "0xdf36ef797"
      },
      "gasLimit": {
        "_hex": "0x5208"
      },
      "to": "0x32Be343B94f860124dC4fEe278FDCBD38C102D88",
      "value": {
        "_hex": "0x77dbff9ba58490000"
      },
      "nonce": 19,
      "data": "0x",
      "r": "0xaccbb6f95575316bfb902fa5236c11a3c0a83a30c2d07f0e4deff520e201b622",
      "s": "0x23c614ab21b6fa5c39b16eedaf59bac092f5fb894e71a7b5cfdd6cceda9245d3",
      "v": 27,
      "creates": null,
      "raw": "0xf86d13850df36ef7978252089432be343b94f860124dc4fee278fdcbd38c102d8889077dbff9ba58490000801ba0accbb6f95575316bfb902fa5236c11a3c0a83a30c2d07f0e4deff520e201b622a023c614ab21b6fa5c39b16eedaf59bac092f5fb894e71a7b5cfdd6cceda9245d3",
      "networkId": 0,
      "chainId": 0
    }
  ]
}