{
  "hash": "0x7e0d031cc73e157b179d5924ba5cf11ebc670c123d61e7a34cb789b874396cc8",
  "parentHash": "0x11e8b5eb971ea037ebb9f9ea080bca1c50e46eac1a9c55f379ddfb688139d9d0",
  "number": 52369,
  "timestamp": 1439020416,
  "nonce": "0x180a1834c128f9e5",
  "difficulty": 1564876423365,
  "gasLimit": {
    "_hex": "0x12f9ba"
  },
  "gasUsed": {
    "_hex": "0x5208"
  },
  "miner": "0x9746c7e1ef2bd21FF3997fa467593a89cb852BD0",
  "extraData": "0x476574682f76312e302e312f77696e646f77732f676f312e342e32",
  "transactions": [
    {
      "hash": "0x5a6a4235ec48159944ac87f381b1919f9f84f4e5ab562e90369642f0de4e5e87",
      "blockHash": "0x7e0d031cc73e157b179d5924ba5cf11ebc670c123d61e7a34cb789b874396cc8",
      "blockNumber": 52369,
      "transactionIndex": 0,
      "confirmations": null,
      "from": "0xd12e0ECc7D872f9075690D7599324656456bDB39",
      "gasPrice": {
        "_hex": "0xba43b7400"
      },
      "gasLimit": {
        "_hex": "0x5208"
      },
      "to": "0x4b0C6F0297CEe4B551B6fab3277067B64B238990",
      "value": {
        "_hex": "0x29a2241af62c0000"
      },
      "nonce": 0,
      "data": "0x",
      "r": "0xeed52d76d69f8afba41eaeb1cd8714c9b8921c9e0559fd280769518a54c93e8b",
      "s": "0x11a16024d4470d95a1ddd954acb97f8892ffd371e8fd9453c2e9e9e9fb3fc248",
      "v": 28,
      "creates": null,
      "raw": "0xf86c80850ba43b7400825208944b0c6f0297cee4b551b6fab3277067b64b2389908829a2241af62c0000801ca0eed52d76d69f8afba41eaeb1cd8714c9b8921c9e0559fd280769518a54c93e8ba011a16024d4470d95a1ddd954acb97f8892ffd371e8fd9453c2e9e9e9fb3fc248",
      "networkId": 0,
      "chainId": 0
    }
  ]
}