{
  "hash": "0xddd9683bf2ce40fb9ec8a9fa048448703f2e7cfd5de79a6fbaa7ee466075c619",
  "parentHash": "0x8af2ea35398186c5004b3de47fd250d03ea9f2613895130caa3b1bf99946d375",
  "number": 114528,
  "timestamp": 1440042035,
  "nonce": "0xf0c2274401cd7644",
  "difficulty": 4496886607696,
  "gasLimit": {
    "_hex": "0x2fefd8"
  },
  "gasUsed": {
    "_hex": "0x5208"
  },
  "miner": "0xe6A7a1d47ff21B6321162AEA7C6CB457D5476Bca",
  "extraData": "0x476574682f76312e302e312d38326566323666362f6c696e75782f676f312e34",
  "transactions": [
    {
      "hash": "0xed7bff04c6e4d64a895022828f155d8d0f63b2936429ba29b062a591742807f5",
      "blockHash": "0xddd9683bf2ce40fb9ec8a9fa048448703f2e7cfd5de79a6fbaa7ee466075c619",
      "blockNumber": 114528,
      "transactionIndex": 0,
      "confirmations": null,
      "from": "0x76899c112A85c5a7d27Ff89f1b97112e900aeEBc",
      "gasPrice": {
        "_hex": "0xba43b7400"
      },
      "gasLimit": {
        "_hex": "0x5208"
      },
      "to": "0xC47Aaa860008be6f65B58c6C6E02a84e666EfE31",
      "value": {
        "_hex": "0xdde4294fd97b6000"
      },
      "nonce": 12,
      "data": "0x",
      "r": "0x3c677a5dc02397163210f31cc411633879ca9e0543de54949cde3e7ac79002b2",
      "s": "0x47922418fe13acee0758462a4fb422ed79f04f80165ec7ee5d17157fc5386fe2",
      "v": 27,
      "creates": null,
      "raw": "0xf86c0c850ba43b740082520894c47aaa860008be6f65b58c6c6e02a84e666efe3188dde4294fd97b6000801ba03c677a5dc02397163210f31cc411633879ca9e0543de54949cde3e7ac79002b2a047922418fe13acee0758462a4fb422ed79f04f80165ec7ee5d17157fc5386fe2",
      "networkId": 0,
      "chainId": 0
    }
  ]
}