{
  "hash": "0xc75e56660ff550503fcd5527b26ef47c9a1c8e2e34d17f9c61cc7d1f8d027bf1",
  "parentHash": "0xf790f492cd2deee122d921e0ac9b70c12c664f1aaa062d1d3d271a45981e72c6",
  "number": 82521,
  "timestamp": 1439520826,
  "nonce": "0xc92d5b8a10d0fb6d",
  "difficulty": 2370634888745,
  "gasLimit": {
    "_hex": "0x2fefd8"
  },
  "gasUsed": {
    "_hex": "0xf87c"
  },
  "miner": "0xC5624D986419AeBa6B6A7Ce5BAFd9883f75d8bc8",
  "extraData": "0x",
  "transactions": [
    {
      "hash": "0xd62a9418859feafebb8c90e715f30934f17a1cac31298e849d107e02dcbbfc8e",
      "blockHash": "0xc75e56660ff550503fcd5527b26ef47c9a1c8e2e34d17f9c61cc7d1f8d027bf1",
      "blockNumber": 82521,
      "transactionIndex": 0,
      "confirmations": null,
      "from": "0xD5A7BeC332aDDE18b3104b5792546aA59b879b52",
      "gasPrice": {
        "_hex": "0x110c8f7d8de"
      },
      "gasLimit": {
        "_hex": "0xc350"
      },
      "to": "0x2910543Af39abA0Cd09dBb2D50200b3E800A63D2",
      "value": {
        "_hex": "0x1bc16d674ec80000"
      },
      "nonce": 1,
      "data": "0x454e4e4a3243415930",
      "r": "0xe94b22c755e4354f6fcd35fbc6aa461cccf701eea394cabe4fdc3b89d2855c12",
      "s": "0x208f9179150f005b4fd85507001b990fc7a9cd36c1b9701137f02b6aebd4c0f4",
      "v": 27,
      "creates": null,
      "raw": "0xf87601860110c8f7d8de82c350942910543af39aba0cd09dbb2d50200b3e800a63d2881bc16d674ec8000089454e4e4a32434159301ba0e94b22c755e4354f6fcd35fbc6aa461cccf701eea394cabe4fdc3b89d2855c12a0208f9179150f005b4fd85507001b990fc7a9cd36c1b9701137f02b6aebd4c0f4",
      "networkId": 0,
      "chainId": 0
    },
    {
      "hash": "0x020c8073a914f6d5bae26e4010cd1b15fc2ef986a151c69644e66d528fc409f7",
      "blockHash": "0xc75e56660ff550503fcd5527b26ef47c9a1c8e2e34d17f9c61cc7d1f8d027bf1",
      "blockNumber": 82521,
      "transactionIndex": 1,
      "confirmations": null,
      "from": "0x32Be343B94f860124dC4fEe278FDCBD38C102D88",
      "gasPrice": {
        "_hex": "0xd7a309a6b"
      },
      "gasLimit": {
        "_hex": "0x5208"
      },
      "to": "0x0C81b19Df1E50dA2c912C0a25173B5614E7D4917",
      "value": {
        "_hex": "0xaffee57ba8f1000"
      },
      "nonce": 630,
      "data": "0x",
      "r": "0xde4e99ebb598fff8b1048b9344d5f6bc06e811daf86bde51c12a92ff167e4ff7",
      "s": "0x035af49cf25f8624baa09f566467a21d3c6af33f7d2166aaadd4dd760fcfdc05",
      "v": 28,
      "creates": null,
      "raw": "0xf86e820276850d7a309a6b825208940c81b19df1e50da2c912c0a25173b5614e7d4917880affee57ba8f1000801ca0de4e99ebb598fff8b1048b9344d5f6bc06e811daf86bde51c12a92ff167e4ff7a0035af49cf25f8624baa09f566467a21d3c6af33f7d2166aaadd4dd760fcfdc05",
      "networkId": 0,
      "chainId": 0
    },
    {
      "hash": "0x7aec5501b95a0dd9f9f1848e3926688b17dffac4766eccc5fb14af2537469d5a",
      "blockHash": "0xc75e56660ff550503fcd5527b26ef47c9a1c8e2e34d17f9c61cc7d1f8d027bf1",
      "blockNumber": 82521,
      "transactionIndex": 2,
      "confirmations": null,
      "from": "0x19b94273cAf9AE6b9560d14dB9A6709c9c5a599F",
      "gasPrice": {
        "_hex": "0xcb3f4715b"
      },
      "gasLimit": {
        "_hex": "0x15f90"
      },
      "to": "0x24e7eDc14752f3cDf84b3f75380c513781a46A8d",
      "value": {
        "_hex": "0x75f610f70ed20000"
      },
      "nonce": 1,
      "data": "0x",
      "r": "0x5d00afcb3b835e3f59fb316986e90a4a27ee0a05120683eaf308b83c89528490",
      "s": "0x32bf8addc8de57b9ba6fea8b60be1fc6d905ad94b39fcc1c767c9e850db4b796",
      "v": 27,
      "creates": null,
      "raw": "0xf86d01850cb3f4715b83015f909424e7edc14752f3cdf84b3f75380c513781a46a8d8875f610f70ed20000801ba05d00afcb3b835e3f59fb316986e90a4a27ee0a05120683eaf308b83c89528490a032bf8addc8de57b9ba6fea8b60be1fc6d905ad94b39fcc1c767c9e850db4b796",
      "networkId": 0,
      "chainId": 0
    }
  ]
}