{
  "hash": "0x078971649ec8ec74854dd59f06019a9f1cea89530eed4c818c6b59615d8f7fb8",
  "parentHash": "0x90a151c5866609630fa7d59788e52ca31d0fbabb788080b19cbc4386722b1c25",
  "number": 50312,
  "timestamp": 1438987137,
  "nonce": "0x2eb6cd86e7a346d6",
  "difficulty": 1511925645397,
  "gasLimit": {
    "_hex": "0x5c2ff"
  },
  "gasUsed": {
    "_hex": "0x546c"
  },
  "miner": "0xBb12b5a9B85D4AB8CDE6056E9c1b2a4a337D2261",
  "extraData": "0x476574682f76312e302e312d36393865393864392f6c696e75782f676f312e34",
  "transactions": [
    {
      "hash": "0xba8806a2fe9f2f33d19e11967e89510c534b8771c3793cafaab5b7b3114e7be6",
      "blockHash": "0x078971649ec8ec74854dd59f06019a9f1cea89530eed4c818c6b59615d8f7fb8",
      "blockNumber": 50312,
      "transactionIndex": 0,
      "confirmations": null,
      "from": "0x50E13023bD9CA96ad4C53fdfd410CB6b1f420Bdf",
      "gasPrice": {
        "_hex": "0xd422829d6"
      },
      "gasLimit": {
        "_hex": "0x15f90"
      },
      "to": "0x2910543Af39abA0Cd09dBb2D50200b3E800A63D2",
      "value": {
        "_hex": "0x15af1d78b58c400000"
      },
      "nonce": 3,
      "data": "0x454e434a4243344e52",
      "r": "0x823f315b1ae6c9056259999cb22487b2751c48bde01e9b80733659fc5379a2de",
      "s": "0x20496258b0828ae66e1f03f33d036afbc3b8d5a011c776f2b89250dca2e92034",
      "v": 27,
      "creates": null,
      "raw": "0xf87703850d422829d683015f90942910543af39aba0cd09dbb2d50200b3e800a63d28915af1d78b58c40000089454e434a4243344e521ba0823f315b1ae6c9056259999cb22487b2751c48bde01e9b80733659fc5379a2dea020496258b0828ae66e1f03f33d036afbc3b8d5a011c776f2b89250dca2e92034",
      "networkId": 0,
      "chainId": 0
    }
  ]
}