{
  "hash": "0x8ae25b93b6c46ef657d88b8298f69ec63151db37b5bb686766351594545916f1",
  "parentHash": "0x06ad1f97b0c2a1a38bb0ce7a9fc0e057dd8f3be20c3926adf12476afb26de8d8",
  "number": 94809,
  "timestamp": 1439714447,
  "nonce": "0x3ae4731d56671703",
  "difficulty": 3501861045195,
  "gasLimit": {
    "_hex": "0x2fefd8"
  },
  "gasUsed": {
    "_hex": "0x1d82e"
  },
  "miner": "0xe6A7a1d47ff21B6321162AEA7C6CB457D5476Bca",
  "extraData": "0x476574682f76312e302e312d38326566323666362f6c696e75782f676f312e34",
  "transactions": [
    {
      "hash": "0xf10a2d73414671663ea8feb57a46cf00eaf202a4824e2b4b5359cf806d643476",
      "blockHash": "0x8ae25b93b6c46ef657d88b8298f69ec63151db37b5bb686766351594545916f1",
      "blockNumber": 94809,
      "transactionIndex": 0,
      "confirmations": null,
      "from": "0xFBb1b73C4f0BDa4f67dcA266ce6Ef42f520fBB98",
      "gasPrice": {
        "_hex": "0xda3fda109"
      },
      "gasLimit": {
        "_hex": "0x15f90"
      },
      "to": "0xCAc7000C7dBaa2E33Af15325AF5D435E011C7BdD",
      "value": {
        "_hex": "0x0"
      },
      "nonce": 64,
      "data": "0x3feb1bd84249545452455830300000000000000000000000000000000000000000000000000000000000000000000000aee51f5a76d12d801527ca6ff6ada1ca0bbeff0b0000000000000000000000000000000000000000000000003af6f6d1efa7f000",
      "r": "0x8ab6272aa872f91ffa8118bc370541f1c90825a3482ef652a6f8bf8c710e9001",
      "s": "0x583c7a23557349768bd5713b31cd60f87798fc20684d1432659bcf237c1087c7",
      "v": 27,
      "creates": null,
      "raw": "0xf8ca40850da3fda10983015f9094cac7000c7dbaa2e33af15325af5d435e011c7bdd80b8643feb1bd84249545452455830300000000000000000000000000000000000000000000000000000000000000000000000aee51f5a76d12d801527ca6ff6ada1ca0bbeff0b0000000000000000000000000000000000000000000000003af6f6d1efa7f0001ba08ab6272aa872f91ffa8118bc370541f1c90825a3482ef652a6f8bf8c710e9001a0583c7a23557349768bd5713b31cd60f87798fc20684d1432659bcf237c1087c7",
      "networkId": 0,
      "chainId": 0
    },
    {
      "hash": "0xbbbafa5752e4b16cdef56903719965f08d89697273013ced74df2a09e1876882",
      "blockHash": "0x8ae25b93b6c46ef657d88b8298f69ec63151db37b5bb686766351594545916f1",
      "blockNumber": 94809,
      "transactionIndex": 1,
      "confirmations": null,
      "from": "0x223eA75ACE9d7F53BC6c131191Aff34B44bd57aC",
      "gasPrice": {
        "_hex": "0xd7bf51929"
      },
      "gasLimit": {
        "_hex": "0x5208"
      },
      "to": "0x7339BF89A60F8a29d0Ed436F3198774F8e191f37",
      "value": {
        "_hex": "0xcbb9d638d6bc0000"
      },
      "nonce": 3,
      "data": "0x",
      "r": "0xd2539315557083dca3a6c35793d7ace77f6271638d49965fcc4ca5388794f52f",
      "s": "0x55e0502a96a55d59c88c892f12ab168581e6dc9103e0fdf59347a3513359b05b",
      "v": 28,
      "creates": null,
      "raw": "0xf86c03850d7bf51929825208947339bf89a60f8a29d0ed436f3198774f8e191f3788cbb9d638d6bc0000801ca0d2539315557083dca3a6c35793d7ace77f6271638d49965fcc4ca5388794f52fa055e0502a96a55d59c88c892f12ab168581e6dc9103e0fdf59347a3513359b05b",
      "networkId": 0,
      "chainId": 0
    },
    {
      "hash": "0x774efc67e70c33d0bc9078b0ed5b24680a8279c0c6608401b989beed4086085a",
      "blockHash": "0x8ae25b93b6c46ef657d88b8298f69ec63151db37b5bb686766351594545916f1",
      "blockNumber": 94809,
      "transactionIndex": 2,
      "confirmations": null,
      "from": "0x007f7f58D3eb5b7510A301eCC749FC1fCDDBE14D",
      "gasPrice": {
        "_hex": "0xcc8ddf695"
      },
      "gasLimit": {
        "_hex": "0x15f90"
      },
      "to": "0xb1abce2918E21ddb93AA452731a12672A3d9F75a",
      "value": {
        "_hex": "0x4563918244f40000"
      },
      "nonce": 42,
      "data": "0x",
      "r": "0x15d69f3c20babdd72f19e2da27760f17612338dc31ebc58dabfac77f36a17120",
      "s": "0x4e8d205d5e0f4a2862122aa4e29e470bee0a3cba7b8deeaf755dd4c1455a4405",
      "v": 27,
      "creates": null,
      "raw": "0xf86d2a850cc8ddf69583015f9094b1abce2918e21ddb93aa452731a12672a3d9f75a884563918244f40000801ba015d69f3c20babdd72f19e2da27760f17612338dc31ebc58dabfac77f36a17120a04e8d205d5e0f4a2862122aa4e29e470bee0a3cba7b8deeaf755dd4c1455a4405",
      "networkId": 0,
      "chainId": 0
    },
    {
      "hash": "0xa20bf301c939e06bc7cf86968c45ff5e2ed0ffaf29556e2570a5268d478e6cbd",
      "blockHash": "0x8ae25b93b6c46ef657d88b8298f69ec63151db37b5bb686766351594545916f1",
      "blockNumber": 94809,
      "transactionIndex": 3,
      "confirmations": null,
      "from": "0xc93a69dFC0fb3E867D9207599f7fe87d51619635",
      "gasPrice": {
        "_hex": "0xba43b7400"
      },
      "gasLimit": {
        "_hex": "0x5208"
      },
      "to": "0xC47Aaa860008be6f65B58c6C6E02a84e666EfE31",
      "value": {
        "_hex": "0x456355d2c223c6000"
      },
      "nonce": 10,
      "data": "0x",
      "r": "0xee3ccd141c2944e0bee5ac162c3eaedb3ab3d8d281fcffd7e686677ca870c3ed",
      "s": "0x1aa58ae58628984e0aeaa1e0d259bef3c63a03ab9153eb142d4b093887b4a53e",
      "v": 27,
      "creates": null,
      "raw": "0xf86d0a850ba43b740082520894c47aaa860008be6f65b58c6c6e02a84e666efe31890456355d2c223c6000801ba0ee3ccd141c2944e0bee5ac162c3eaedb3ab3d8d281fcffd7e686677ca870c3eda01aa58ae58628984e0aeaa1e0d259bef3c63a03ab9153eb142d4b093887b4a53e",
      "networkId": 0,
      "chainId": 0
    }
  ]
}