{
  "hash": "0x5e06973b72749d1945227a9c0c3513aa0072dd7f67801ffb6e8c8413f541413d",
  "parentHash": "0x39c8adacb70ef74b90facc6f4d57f9d1c418228016b01e092f621aa1aebe26c5",
  "number": 106606,
  "timestamp": 1439907310,
  "nonce": "0x51d1244aa7ab3f1d",
  "difficulty": 4483587100691,
  "gasLimit": {
    "_hex": "0x2fefd8"
  },
  "gasUsed": {
    "_hex": "0x5208"
  },
  "miner": "0xf8E0CA3Ed80bd541b94BEdCf259e8CF2141A9523",
  "extraData": "0x476574682f76312e302e312f77696e646f77732f676f312e342e32",
  "transactions": [
    {
      "hash": "0x866f091d9d61a0a5de583cd1aa8b4c640bc8844c6eefcb5535fd42a44a3142fb",
      "blockHash": "0x5e06973b72749d1945227a9c0c3513aa0072dd7f67801ffb6e8c8413f541413d",
      "blockNumber": 106606,
      "transactionIndex": 0,
      "confirmations": null,
      "from": "0x8F79f76381Aad7B98C19aF55eE75fdfEeb012211",
      "gasPrice": {
        "_hex": "0xda8623e85"
      },
      "gasLimit": {
        "_hex": "0x5208"
      },
      "to": "0x32Be343B94f860124dC4fEe278FDCBD38C102D88",
      "value": {
        "_hex": "0x340a67176a054c000"
      },
      "nonce": 45,
      "data": "0x",
      "r": "0xd7d7e9d655c6a3da40b3dedf7de117b97fed6d95e4f495d35c330a748af1ae4b",
      "s": "0x25e0951b11892c6609a086231ee6400bd6388f7f1b42603bd372e5f6f7f7ced1",
      "v": 27,
      "creates": null,
      "raw": "0xf86d2d850da8623e858252089432be343b94f860124dc4fee278fdcbd38c102d88890340a67176a054c000801ba0d7d7e9d655c6a3da40b3dedf7de117b97fed6d95e4f495d35c330a748af1ae4ba025e0951b11892c6609a086231ee6400bd6388f7f1b42603bd372e5f6f7f7ced1",
      "networkId": 0,
      "chainId": 0
    }
  ]
}