{
  "hash": "0xdc34b28f6d0a9395974fac0b2a2b8f17ac44c77a7b843ad42da149582e2a2df2",
  "parentHash": "0x5c054360a484e7307b2c8763a186094e55c6331b9a441b9ee317ec2bf9cdec73",
  "number": 104616,
  "timestamp": 1439872642,
  "nonce": "0xcf1ba04d7154c9e4",
  "difficulty": 4363685037618,
  "gasLimit": {
    "_hex": "0x2fefd8"
  },
  "gasUsed": {
    "_hex": "0x5208"
  },
  "miner": "0xe343732D1eA6921c73683B947937AC902b77aD4f",
  "extraData": "0x476574682f76312e302e312f6c696e75782f676f312e342e32",
  "transactions": [
    {
      "hash": "0xc200fb9fbe9e081388eb43f861e70d08f1d97e16bbd1f5adccefb40494570f13",
      "blockHash": "0xdc34b28f6d0a9395974fac0b2a2b8f17ac44c77a7b843ad42da149582e2a2df2",
      "blockNumber": 104616,
      "transactionIndex": 0,
      "confirmations": null,
      "from": "0x2910543Af39abA0Cd09dBb2D50200b3E800A63D2",
      "gasPrice": {
        "_hex": "0xd94f92ade"
      },
      "gasLimit": {
        "_hex": "0x5208"
      },
      "to": "0x5A694aBD48819983b807355F679a5508B089C262",
      "value": {
        "_hex": "0x8e117f0dbeaa92000"
      },
      "nonce": 1017,
      "data": "0x",
      "r": "0x67bc4c7bf39dccb745d80f713154aa22799a7661c1e94f8bb393116f67bee5b6",
      "s": "0x0ada72e3eb477c6a63d719550a91f8f88398ac486a8254030e1035531b80cf90",
      "v": 27,
      "creates": null,
      "raw": "0xf86f8203f9850d94f92ade825208945a694abd48819983b807355f679a5508b089c2628908e117f0dbeaa92000801ba067bc4c7bf39dccb745d80f713154aa22799a7661c1e94f8bb393116f67bee5b6a00ada72e3eb477c6a63d719550a91f8f88398ac486a8254030e1035531b80cf90",
      "networkId": 0,
      "chainId": 0
    }
  ]
}