{
  "hash": "0x78fc7da7d54d695647260b5ad18cb2747d7b8b38345072d38f7e8a2f2e995446",
  "parentHash": "0xa77ab82807391e2af4a68f77bc05a0813ce5b861315d7359b4e92aba4a69e6d9",
  "number": 84845,
  "timestamp": 1439555187,
  "nonce": "0x4ca17ff6d4e2f183",
  "difficulty": 2656843021510,
  "gasLimit": {
    "_hex": "0x2fefd8"
  },
  "gasUsed": {
    "_hex": "0x5208"
  },
  "miner": "0xe6A7a1d47ff21B6321162AEA7C6CB457D5476Bca",
  "extraData": "0x476574682f76312e302e312d38326566323666362f6c696e75782f676f312e34",
  "transactions": [
    {
      "hash": "0xc4593b1aed6906d480347a6620d04dde01a7c3eab604aad14d26e85f793fe957",
      "blockHash": "0x78fc7da7d54d695647260b5ad18cb2747d7b8b38345072d38f7e8a2f2e995446",
      "blockNumber": 84845,
      "transactionIndex": 0,
      "confirmations": null,
      "from": "0x2910543Af39abA0Cd09dBb2D50200b3E800A63D2",
      "gasPrice": {
        "_hex": "0xddcdf6732"
      },
      "gasLimit": {
        "_hex": "0x5208"
      },
      "to": "0x141d08EDaDA2C1bA62A2940184Ba03d62d3fFF22",
      "value": {
        "_hex": "0x9896163ef96b8000"
      },
      "nonce": 577,
      "data": "0x",
      "r": "0x8ccc7ad8620ede549ac8f19c3d73a7ce6652efa1c12ca91f18a646fcfe6ffda6",
      "s": "0x623c58a96ad441e6ae8d0382c33ed85a077ae00dd59efc6870712f25b27e7604",
      "v": 27,
      "creates": null,
      "raw": "0xf86e820241850ddcdf673282520894141d08edada2c1ba62a2940184ba03d62d3fff22889896163ef96b8000801ba08ccc7ad8620ede549ac8f19c3d73a7ce6652efa1c12ca91f18a646fcfe6ffda6a0623c58a96ad441e6ae8d0382c33ed85a077ae00dd59efc6870712f25b27e7604",
      "networkId": 0,
      "chainId": 0
    }
  ]
}