{
  "hash": "0xab1edabaac9cc74591fc66020f461e11c7c43b449ace0b232997fe7653591004",
  "parentHash": "0x23e1ebc3912be5eb0a165127206dc18196a870a57243287af9aacc2c4a61b462",
  "number": 82750,
  "timestamp": 1439524552,
  "nonce": "0x72e7231688fbde8d",
  "difficulty": 2378686572151,
  "gasLimit": {
    "_hex": "0x2fefd8"
  },
  "gasUsed": {
    "_hex": "0x5208"
  },
  "miner": "0x7D45E10A0d63eCCA0694a7cbfF030f4dD87DA0dC",
  "extraData": "0x476574682f76312e302e302f77696e646f77732f676f312e342e32",
  "transactions": [
    {
      "hash": "0xb536105305632ea8551ec52199651964c80dc32e1e3fc070b6a376bacab149fe",
      "blockHash": "0xab1edabaac9cc74591fc66020f461e11c7c43b449ace0b232997fe7653591004",
      "blockNumber": 82750,
      "transactionIndex": 0,
      "confirmations": null,
      "from": "0x32Be343B94f860124dC4fEe278FDCBD38C102D88",
      "gasPrice": {
        "_hex": "0xe000bdf88"
      },
      "gasLimit": {
        "_hex": "0x5208"
      },
      "to": "0x915E19e9d6874Ad050c3D4b88D4eA496dB0Ee7DB",
      "value": {
        "_hex": "0x2386f26fc10000"
      },
      "nonce": 635,
      "data": "0x",
      "r": "0x2eb203979c0211fb7d91ea8aabadcc9901e20fdef3443ccf98617dfd5e50a6df",
      "s": "0x498844bdf36e8cd5145dd631a21994b4a3008e20db929beb707c1042ec78d375",
      "v": 27,
      "creates": null,
      "raw": "0xf86d82027b850e000bdf8882520894915e19e9d6874ad050c3d4b88d4ea496db0ee7db872386f26fc10000801ba02eb203979c0211fb7d91ea8aabadcc9901e20fdef3443ccf98617dfd5e50a6dfa0498844bdf36e8cd5145dd631a21994b4a3008e20db929beb707c1042ec78d375",
      "networkId": 0,
      "chainId": 0
    }
  ]
}