{
  "hash": "0x58ed2f031f420199f53868e07c0f3bd022e21722d5d89329d74e224bffaf1307",
  "parentHash": "0x1fd4f6c85b2f569a8ec82082489987b1097f15bc8b3ce9f9174b14467130833e",
  "number": 54133,
  "timestamp": 1439049274,
  "nonce": "0xf69a8b8902e25ef9",
  "difficulty": 1603214437642,
  "gasLimit": {
    "_hex": "0x2fefd8"
  },
  "gasUsed": {
    "_hex": "0x5208"
  },
  "miner": "0xBb12b5a9B85D4AB8CDE6056E9c1b2a4a337D2261",
  "extraData": "0x476574682f76312e302e312d36393865393864392f6c696e75782f676f312e34",
  "transactions": [
    {
      "hash": "0xfcb8cb6152018040c61b36f1e9eb60e1bf1dce800a92410c89528caeebdd86f4",
      "blockHash": "0x58ed2f031f420199f53868e07c0f3bd022e21722d5d89329d74e224bffaf1307",
      "blockNumber": 54133,
      "transactionIndex": 0,
      "confirmations": null,
      "from": "0x64CF897D51472Dc7CfF0e6368EB15B9e2d5168E3",
      "gasPrice": {
        "_hex": "0x746a528800"
      },
      "gasLimit": {
        "_hex": "0x5b04"
      },
      "to": "0x9bc6B0dEB59eF75AeDe905EBa5a779514F43D409",
      "value": {
        "_hex": "0x8ac7230489e80000"
      },
      "nonce": 7,
      "data": "0x",
      "r": "0x277ae7b8fe72ece00de04c3bc5b19e9393129f34a732658cf3786334dc297667",
      "s": "0x07d1432ebac6b3a9acdc82494b596b08affe08d999aaa827942dd8dea50203a2",
      "v": 27,
      "creates": null,
      "raw": "0xf86c0785746a528800825b04949bc6b0deb59ef75aede905eba5a779514f43d409888ac7230489e80000801ba0277ae7b8fe72ece00de04c3bc5b19e9393129f34a732658cf3786334dc297667a007d1432ebac6b3a9acdc82494b596b08affe08d999aaa827942dd8dea50203a2",
      "networkId": 0,
      "chainId": 0
    }
  ]
}