{
  "hash": "0xea62044083b4a3b3ee605ce9593643d189238bd1320ea250ac460ebd84a7574a",
  "parentHash": "0x97a6453762a091a56eca842908b858ddd4cb648e3c1fbd120482df858cb451e1",
  "number": 85335,
  "timestamp": 1439562036,
  "nonce": "0x4e41b4dad5b3db6f",
  "difficulty": 2741020164308,
  "gasLimit": {
    "_hex": "0x2fefd8"
  },
  "gasUsed": {
    "_hex": "0xa674"
  },
  "miner": "0x9746c7e1ef2bd21FF3997fa467593a89cb852BD0",
  "extraData": "0x476574682f76312e302e312f77696e646f77732f676f312e342e32",
  "transactions": [
    {
      "hash": "0xaa1245c5d7cd5f03351433179b0e7a141f0d90de8fd8fd094b3bd1e929838c7a",
      "blockHash": "0xea62044083b4a3b3ee605ce9593643d189238bd1320ea250ac460ebd84a7574a",
      "blockNumber": 85335,
      "transactionIndex": 0,
      "confirmations": null,
      "from": "0xAEF5b12258a18DEc07D5ec2E316574919D79D6D6",
      "gasPrice": {
        "_hex": "0x110c8f7d8de"
      },
      "gasLimit": {
        "_hex": "0xc350"
      },
      "to": "0x2910543Af39abA0Cd09dBb2D50200b3E800A63D2",
      "value": {
        "_hex": "0x6c5db2a4d815dc0000"
      },
      "nonce": 0,
      "data": "0x454e4b574a50323152",
      "r": "0x5976bc4c44bdb9086a0f200ed5183aecdc482742462d443fcb277273208cfcf7",
      "s": "0x7491d3b965891b08084873e2056c8dacbe047bd1b634dd0999dff28345be4721",
      "v": 28,
      "creates": null,
      "raw": "0xf87780860110c8f7d8de82c350942910543af39aba0cd09dbb2d50200b3e800a63d2896c5db2a4d815dc000089454e4b574a503231521ca05976bc4c44bdb9086a0f200ed5183aecdc482742462d443fcb277273208cfcf7a07491d3b965891b08084873e2056c8dacbe047bd1b634dd0999dff28345be4721",
      "networkId": 0,
      "chainId": 0
    },
    {
      "hash": "0x80ac9150de4bb274a45b26b53249ec8197be2ec8a188980b6ab3a9c68ab8f03b",
      "blockHash": "0xea62044083b4a3b3ee605ce9593643d189238bd1320ea250ac460ebd84a7574a",
      "blockNumber": 85335,
      "transactionIndex": 1,
      "confirmations": null,
      "from": "0x6541237dAaFf6688A79f9F2F370Ca0E7Ee20BD33",
      "gasPrice": {
        "_hex": "0xd71d360c2"
      },
      "gasLimit": {
        "_hex": "0x15f90"
      },
      "to": "0x7937e37508542e51f7087c524108ce7235e7C72e",
      "value": {
        "_hex": "0x29a2241af62c0000"
      },
      "nonce": 0,
      "data": "0x",
      "r": "0x59cae70d5d264f95ddc8480739b8705d665c93eb2376fac242e732cfdaea1625",
      "s": "0x30de003490d11a4a515856e31c6328711f5eb97698aae9fcb5768cc7f314f64e",
      "v": 27,
      "creates": null,
      "raw": "0xf86d80850d71d360c283015f90947937e37508542e51f7087c524108ce7235e7c72e8829a2241af62c0000801ba059cae70d5d264f95ddc8480739b8705d665c93eb2376fac242e732cfdaea1625a030de003490d11a4a515856e31c6328711f5eb97698aae9fcb5768cc7f314f64e",
      "networkId": 0,
      "chainId": 0
    }
  ]
}