{
  "hash": "0x9e28178c6bc413080c1d084cbce53d325c1ca38129ba03de2cdeb5f60cd995cf",
  "parentHash": "0x06544abbbc32955ef5452dceb2762272d78a9781010e941de4a795b39f8bc4d3",
  "number": 61660,
  "timestamp": 1439175935,
  "nonce": "0xf16536b2cab96a48",
  "difficulty": 1741260801344,
  "gasLimit": {
    "_hex": "0x2fefd8"
  },
  "gasUsed": {
    "_hex": "0x5208"
  },
  "miner": "0xbb7B8287f3F0a933474a79eAe42CBCa977791171",
  "extraData": "0x476574682f4c5649562f76312e302e312f6c696e75782f676f312e342e32",
  "transactions": [
    {
      "hash": "0xaf3651779b02a1a70c3d8a460de0debddeaee06483832b3f5af7632020919043",
      "blockHash": "0x9e28178c6bc413080c1d084cbce53d325c1ca38129ba03de2cdeb5f60cd995cf",
      "blockNumber": 61660,
      "transactionIndex": 0,
      "confirmations": null,
      "from": "0x120A270bbC009644e35F0bB6ab13f95b8199c4ad",
      "gasPrice": {
        "_hex": "0xd24722e92"
      },
      "gasLimit": {
        "_hex": "0x15f90"
      },
      "to": "0x68d0e1fA35d65C760F5A120aD35fB5f86BC16c19",
      "value": {
        "_hex": "0x260670f974301000"
      },
      "nonce": 78,
      "data": "0x",
      "r": "0x1343a7f6eb64167051ef6f50db23234f8e5513d26264ab5f67d0f902f1fdafe3",
      "s": "0x37853900a4c04ce205bc2ce4b19a7f7b67763486e5b6839f58a98544377f814d",
      "v": 27,
      "creates": null,
      "raw": "0xf86d4e850d24722e9283015f909468d0e1fa35d65c760f5a120ad35fb5f86bc16c1988260670f974301000801ba01343a7f6eb64167051ef6f50db23234f8e5513d26264ab5f67d0f902f1fdafe3a037853900a4c04ce205bc2ce4b19a7f7b67763486e5b6839f58a98544377f814d",
      "networkId": 0,
      "chainId": 0
    }
  ]
}