{
  "hash": "0x044ce2e15e1bd7c9459ea96b61c54263a039dbe7605bffd30b282d89dde7c6b7",
  "parentHash": "0x33b7135fdfbf79a7e6317cdc0e6a5fb954d68810fe79b5574675b7d30b06d21b",
  "number": 119012,
  "timestamp": 1440135317,
  "nonce": "0x862780add9d6b2e3",
  "difficulty": 4411858674828,
  "gasLimit": {
    "_hex": "0x2fefd8"
  },
  "gasUsed": {
    "_hex": "0x5208"
  },
  "miner": "0xe6A7a1d47ff21B6321162AEA7C6CB457D5476Bca",
  "extraData": "0xd783010002844765746887676f312e342e32856c696e7578",
  "transactions": [
    {
      "hash": "0xa1f21d7802acaa0e70e94a6558f60c4864b9b59559a3273ac34df5fb3aceac0e",
      "blockHash": "0x044ce2e15e1bd7c9459ea96b61c54263a039dbe7605bffd30b282d89dde7c6b7",
      "blockNumber": 119012,
      "transactionIndex": 0,
      "confirmations": null,
      "from": "0xAF17A4ab5d6B10055Fc1eB1BFaCcbDe69B83aF76",
      "gasPrice": {
        "_hex": "0xba43b7400"
      },
      "gasLimit": {
        "_hex": "0x5208"
      },
      "to": "0x32Be343B94f860124dC4fEe278FDCBD38C102D88",
      "value": {
        "_hex": "0x1314bf87835946000"
      },
      "nonce": 8,
      "data": "0x",
      "r": "0x7baa0d1e1da7fe5411e822c7eef915e959a2f15cee38ecdb48ca5b376a73edcf",
      "s": "0x60c0ade137774df134c464ff54168b3e0ad5208fcef423ca83c047a6b09e8979",
      "v": 27,
      "creates": null,
      "raw": "0xf86d08850ba43b74008252089432be343b94f860124dc4fee278fdcbd38c102d888901314bf87835946000801ba07baa0d1e1da7fe5411e822c7eef915e959a2f15cee38ecdb48ca5b376a73edcfa060c0ade137774df134c464ff54168b3e0ad5208fcef423ca83c047a6b09e8979",
      "networkId": 0,
      "chainId": 0
    }
  ]
}