{
  "hash": "0xb123811813e6967dd0e220eae7201e7060c3ea0fe99c85d4ac5edd4c49105480",
  "parentHash": "0xfda84dbe3ce59693cc978f5bb163f83408c31b09a18703c9f765f53f84625d0b",
  "number": 55032,
  "timestamp": 1439064378,
  "nonce": "0x333392d5a48ea290",
  "difficulty": 1619564644695,
  "gasLimit": {
    "_hex": "0x2fefd5"
  },
  "gasUsed": {
    "_hex": "0xf618"
  },
  "miner": "0x9746c7e1ef2bd21FF3997fa467593a89cb852BD0",
  "extraData": "0x476574682f76312e302e312f77696e646f77732f676f312e342e32",
  "transactions": [
    {
      "hash": "0x4d9a120e5c9d4e60890b2e6d84783abbdad3c60c215d1d688f4628467218bcd2",
      "blockHash": "0xb123811813e6967dd0e220eae7201e7060c3ea0fe99c85d4ac5edd4c49105480",
      "blockNumber": 55032,
      "transactionIndex": 0,
      "confirmations": null,
      "from": "0x3c0552a53b84E1F265708FA1AfA9b5E71ccAffFa",
      "gasPrice": {
        "_hex": "0xdfe2b7e6e"
      },
      "gasLimit": {
        "_hex": "0x5208"
      },
      "to": "0x32Be343B94f860124dC4fEe278FDCBD38C102D88",
      "value": {
        "_hex": "0x4ff594aa501f580000"
      },
      "nonce": 1,
      "data": "0x",
      "r": "0x2af22fa09e0c8e3945fabe3010758a4e54d5ccaf8e753dd8aeccc5c59f26d53b",
      "s": "0x1a6376c92d8396b9b30afb5d364ed5884090a9ac206dbdbf52f0f9430742351e",
      "v": 28,
      "creates": null,
      "raw": "0xf86d01850dfe2b7e6e8252089432be343b94f860124dc4fee278fdcbd38c102d88894ff594aa501f580000801ca02af22fa09e0c8e3945fabe3010758a4e54d5ccaf8e753dd8aeccc5c59f26d53ba01a6376c92d8396b9b30afb5d364ed5884090a9ac206dbdbf52f0f9430742351e",
      "networkId": 0,
      "chainId": 0
    },
    {
      "hash": "0xb545399fcd657355747ac4c5ccfd4b663041ab5aeb6bb6c9efaa3a8ec9422f9f",
      "blockHash": "0xb123811813e6967dd0e220eae7201e7060c3ea0fe99c85d4ac5edd4c49105480",
      "blockNumber": 55032,
      "transactionIndex": 1,
      "confirmations": null,
      "from": "0x4476f1e8426c8Cde922185046Fca80a9f3aD1fb4",
      "gasPrice": {
        "_hex": "0xdfe2b7e6e"
      },
      "gasLimit": {
        "_hex": "0x5208"
      },
      "to": "0x32Be343B94f860124dC4fEe278FDCBD38C102D88",
      "value": {
        "_hex": "0x515e67388f1f800000"
      },
      "nonce": 0,
      "data": "0x",
      "r": "0x7642700869b50a9c6dee19a8dbe3c4df644d61ffd09db004f40e070b7e285e1e",
      "s": "0x3798e32ea1c2fe9e879cfae557cacf533458dda84fa5521b9af6c15dd41ceba5",
      "v": 27,
      "creates": null,
      "raw": "0xf86d80850dfe2b7e6e8252089432be343b94f860124dc4fee278fdcbd38c102d8889515e67388f1f800000801ba07642700869b50a9c6dee19a8dbe3c4df644d61ffd09db004f40e070b7e285e1ea03798e32ea1c2fe9e879cfae557cacf533458dda84fa5521b9af6c15dd41ceba5",
      "networkId": 0,
      "chainId": 0
    },
    {
      "hash": "0x12c0720ce450417e62552be5efe8dccd867f69b6b62860bcb80941fcbbab1c7b",
      "blockHash": "0xb123811813e6967dd0e220eae7201e7060c3ea0fe99c85d4ac5edd4c49105480",
      "blockNumber": 55032,
      "transactionIndex": 2,
      "confirmations": null,
      "from": "0xE4FC13CFCbAc1B17Ce7783aCD423a845943F6b3A",
      "gasPrice": {
        "_hex": "0xd8364fc25"
      },
      "gasLimit": {
        "_hex": "0x15f90"
      },
      "to": "0x71Fe0c3ce24D9eD33E2219f515E485B142ED66fC",
      "value": {
        "_hex": "0xde0b6b3a7640000"
      },
      "nonce": 0,
      "data": "0x",
      "r": "0x12f81d641f993b9fe2274d92f67dd964e858e142efbfa97e4dd49eeec61b7d38",
      "s": "0x461a1914efb01ffae9bdb18e872cb4e0891441ef921f121f320c83da3b2c863b",
      "v": 28,
      "creates": null,
      "raw": "0xf86d80850d8364fc2583015f909471fe0c3ce24d9ed33e2219f515e485b142ed66fc880de0b6b3a7640000801ca012f81d641f993b9fe2274d92f67dd964e858e142efbfa97e4dd49eeec61b7d38a0461a1914efb01ffae9bdb18e872cb4e0891441ef921f121f320c83da3b2c863b",
      "networkId": 0,
      "chainId": 0
    }
  ]
}