{
  "hash": "0x989be72f9c8d6bb9da57efe66dd1eb86c60084ba4c01d9ca3cfc22da0de96722",
  "parentHash": "0x354a2e57d2587ead277fbc02307520b8ccc5e21f6f2c625610804e8690a381e5",
  "number": 86155,
  "timestamp": 1439574336,
  "nonce": "0x7f087a24c1aeeb42",
  "difficulty": 2803008659359,
  "gasLimit": {
    "_hex": "0x2fefd8"
  },
  "gasUsed": {
    "_hex": "0x5208"
  },
  "miner": "0x35c6f22E8fFA3d3aEf1EE7744BdbA64E1b188a15",
  "extraData": "0x476574682f76312e302e312f6c696e75782f676f312e342e32",
  "transactions": [
    {
      "hash": "0x04d0c519106294373cd159b0581bc4181665e8ab88863327a2648cb1ba395929",
      "blockHash": "0x989be72f9c8d6bb9da57efe66dd1eb86c60084ba4c01d9ca3cfc22da0de96722",
      "blockNumber": 86155,
      "transactionIndex": 0,
      "confirmations": null,
      "from": "0xE87470b43FA5904a32866396B2f798D898c13978",
      "gasPrice": {
        "_hex": "0xd7d40ace3"
      },
      "gasLimit": {
        "_hex": "0x15f90"
      },
      "to": "0x972ad000397A3c903299F1353d6d4b85eE4E4e2A",
      "value": {
        "_hex": "0xd02ab486cedc0000"
      },
      "nonce": 6,
      "data": "0x",
      "r": "0x28534fff008c1f7e183195da670b846922f14865e01ae151cb976c3383cae1f6",
      "s": "0x1fc71d40fbfb44db0866b3d95585d9541b9a73a104ba770f5496d41636a003ac",
      "v": 27,
      "creates": null,
      "raw": "0xf86d06850d7d40ace383015f9094972ad000397a3c903299f1353d6d4b85ee4e4e2a88d02ab486cedc0000801ba028534fff008c1f7e183195da670b846922f14865e01ae151cb976c3383cae1f6a01fc71d40fbfb44db0866b3d95585d9541b9a73a104ba770f5496d41636a003ac",
      "networkId": 0,
      "chainId": 0
    }
  ]
}