{
  "hash": "0xb1793b7636deda24d3e67105b399678c62b42b133fec8638f8477b82e28aa1db",
  "parentHash": "0x97c6cdd4d8d2ab586b03da2f4855c1ce74722afc59bd330eace1fe480cd7b3c5",
  "number": 122348,
  "timestamp": 1440192741,
  "nonce": "0x035f8f8a19c8ca26",
  "difficulty": 4475181122936,
  "gasLimit": {
    "_hex": "0x2fefd8"
  },
  "gasUsed": {
    "_hex": "0xa410"
  },
  "miner": "0xe6A7a1d47ff21B6321162AEA7C6CB457D5476Bca",
  "extraData": "0xd783010002844765746887676f312e342e32856c696e7578",
  "transactions": [
    {
      "hash": "0xc3a52ecea20b3eff1bf1e5635ac0c7840dba75655b79c0ccf97c39288edbc636",
      "blockHash": "0xb1793b7636deda24d3e67105b399678c62b42b133fec8638f8477b82e28aa1db",
      "blockNumber": 122348,
      "transactionIndex": 0,
      "confirmations": null,
      "from": "0xa6BDc31c431B8F97848c9D60cbbe9660dc450eB7",
      "gasPrice": {
        "_hex": "0xdebb1f29f"
      },
      "gasLimit": {
        "_hex": "0x5208"
      },
      "to": "0x32Be343B94f860124dC4fEe278FDCBD38C102D88",
      "value": {
        "_hex": "0x8ad448159f400000"
      },
      "nonce": 215,
      "data": "0x",
      "r": "0x697871fce75998d78458a2a7667fa74d1bf1af78cd517d763451521b9f98677e",
      "s": "0x1e27aeefb5b98ed9b40ed7d35da7688633c85f22c1c92fbaf9f178b765357821",
      "v": 28,
      "creates": null,
      "raw": "0xf86d81d7850debb1f29f8252089432be343b94f860124dc4fee278fdcbd38c102d88888ad448159f400000801ca0697871fce75998d78458a2a7667fa74d1bf1af78cd517d763451521b9f98677ea01e27aeefb5b98ed9b40ed7d35da7688633c85f22c1c92fbaf9f178b765357821",
      "networkId": 0,
      "chainId": 0
    },
    {
      "hash": "0x3bfff94769144eea1f9481a67887579e5369a1018a1c09f9399791b403f5006b",
      "blockHash": "0xb1793b7636deda24d3e67105b399678c62b42b133fec8638f8477b82e28aa1db",
      "blockNumber": 122348,
      "transactionIndex": 1,
      "confirmations": null,
      "from": "0x72dcecdD4a7374231676f7fA910A678DfC7c98D6",
      "gasPrice": {
        "_hex": "0xba43b7400"
      },
      "gasLimit": {
        "_hex": "0x15f90"
      },
      "to": "0xBDe8541989cF94E88cA73e2D46a8839414968F9B",
      "value": {
        "_hex": "0x6f05b59d3b200000"
      },
      "nonce": 11,
      "data": "0x",
      "r": "0x17c95167a86e80b6619e8e228ff1d269d428b4b3e584379ed9dbc432da521294",
      "s": "0x74899b8022e8cd3d48b61940ce935d85d369146cfbfb91552019074324cfe809",
      "v": 28,
      "creates": null,
      "raw": "0xf86d0b850ba43b740083015f9094bde8541989cf94e88ca73e2d46a8839414968f9b886f05b59d3b200000801ca017c95167a86e80b6619e8e228ff1d269d428b4b3e584379ed9dbc432da521294a074899b8022e8cd3d48b61940ce935d85d369146cfbfb91552019074324cfe809",
      "networkId": 0,
      "chainId": 0
    }
  ]
}