{
  "hash": "0x872c2cbbc720bd7dcc52f530808210a47ffe5ff7a508231074421d24b0d1df02",
  "parentHash": "0x9feee057a7c679a357fcee3b7fedb3ed7fa29a2b0c92a3e2cbf567d7f78e6556",
  "number": 47902,
  "timestamp": 1438948142,
  "nonce": "0x3698838b5b6a07ad",
  "difficulty": 1457265911472,
  "gasLimit": {
    "_hex": "0x1043a"
  },
  "gasUsed": {
    "_hex": "0xa410"
  },
  "miner": "0x2089035369B33403DdcaBa6258c34e0B3FfbbBd9",
  "extraData": "0x476574682f76312e302e302d30333937633636632f6c696e75782f676f312e34",
  "transactions": [
    {
      "hash": "0x4690dc3e6ef59cbd4b60ffbd4b49c8afc0e768e37e8d3b63e79db9e9c4cff8ea",
      "blockHash": "0x872c2cbbc720bd7dcc52f530808210a47ffe5ff7a508231074421d24b0d1df02",
      "blockNumber": 47902,
      "transactionIndex": 0,
      "confirmations": null,
      "from": "0x5102A4a42077e11C58df4773e3Ac944623A66d9f",
      "gasPrice": {
        "_hex": "0xff350f9701"
      },
      "gasLimit": {
        "_hex": "0x7918"
      },
      "to": "0x378ea1dc8edc19BAe82638029eA8752ce98BcFCD",
      "value": {
        "_hex": "0xde0b6b3a7640000"
      },
      "nonce": 2,
      "data": "0x",
      "r": "0xd56d9576cbf3157f93f9133eeb24ffb7564666e11ee6e86817c5f13b64e0c668",
      "s": "0x12d551ab0522d896b7feb62a20cc73c4320ecb7a84ffd19bc5ff113a7c31a0c0",
      "v": 28,
      "creates": null,
      "raw": "0xf86c0285ff350f970182791894378ea1dc8edc19bae82638029ea8752ce98bcfcd880de0b6b3a7640000801ca0d56d9576cbf3157f93f9133eeb24ffb7564666e11ee6e86817c5f13b64e0c668a012d551ab0522d896b7feb62a20cc73c4320ecb7a84ffd19bc5ff113a7c31a0c0",
      "networkId": 0,
      "chainId": 0
    },
    {
      "hash": "0x1dcce4083cb7d479384de57df2d1624a1c525311774ec451589e45ee95fa0280",
      "blockHash": "0x872c2cbbc720bd7dcc52f530808210a47ffe5ff7a508231074421d24b0d1df02",
      "blockNumber": 47902,
      "transactionIndex": 1,
      "confirmations": null,
      "from": "0x5102A4a42077e11C58df4773e3Ac944623A66d9f",
      "gasPrice": {
        "_hex": "0xff350f9701"
      },
      "gasLimit": {
        "_hex": "0x7918"
      },
      "to": "0x378ea1dc8edc19BAe82638029eA8752ce98BcFCD",
      "value": {
        "_hex": "0x8ac7230489e80000"
      },
      "nonce": 3,
      "data": "0x",
      "r": "0x18797a14b72975a6b3fb4910fef2e150b647c55cdf49edc088f9eb57d3324aca",
      "s": "0x0043a100eaa07e7ee5905281e760790b005605d4c4e75ca1a5cb37b0ebf46703",
      "v": 28,
      "creates": null,
      "raw": "0xf86b0385ff350f970182791894378ea1dc8edc19bae82638029ea8752ce98bcfcd888ac7230489e80000801ca018797a14b72975a6b3fb4910fef2e150b647c55cdf49edc088f9eb57d3324aca9f43a100eaa07e7ee5905281e760790b005605d4c4e75ca1a5cb37b0ebf46703",
      "networkId": 0,
      "chainId": 0
    }
  ]
}