{
  "hash": "0xa5f1b979736bf312b16b85bfbf4f16758ceef15dbfc57557028e1c2a5bd42e1f",
  "parentHash": "0x82fdb6b68b5f9dd5e10880738f3b7744be18eb68d287d5bcb2e4a03ec54e11ad",
  "number": 64406,
  "timestamp": 1439220160,
  "nonce": "0xe5924cdb7ad2ec07",
  "difficulty": 1874797880257,
  "gasLimit": {
    "_hex": "0x2fefd8"
  },
  "gasUsed": {
    "_hex": "0xa410"
  },
  "miner": "0xf927a40C8B7F6E07c5af7FA2155B4864a4112B13",
  "extraData": "0x",
  "transactions": [
    {
      "hash": "0x6e0321708d14cda88f6a1dd3d34dcbcd25498c0ba5f04bb3c17e122c7cb843fc",
      "blockHash": "0xa5f1b979736bf312b16b85bfbf4f16758ceef15dbfc57557028e1c2a5bd42e1f",
      "blockNumber": 64406,
      "transactionIndex": 0,
      "confirmations": null,
      "from": "0x120A270bbC009644e35F0bB6ab13f95b8199c4ad",
      "gasPrice": {
        "_hex": "0xd65870b02"
      },
      "gasLimit": {
        "_hex": "0x15f90"
      },
      "to": "0x7d1a3568eeb3C85Eb38372ebc51C38384Ab189e5",
      "value": {
        "_hex": "0x34f9512d977628cc00"
      },
      "nonce": 111,
      "data": "0x",
      "r": "0xfed63372c56e47f3bcff4bc5b0a9a57b9ac6050937904998047ada4899d9849c",
      "s": "0x3e0f77777c624ed8410cec141134141124193815f59d0c5af02bdff1c9671290",
      "v": 27,
      "creates": null,
      "raw": "0xf86e6f850d65870b0283015f90947d1a3568eeb3c85eb38372ebc51c38384ab189e58934f9512d977628cc00801ba0fed63372c56e47f3bcff4bc5b0a9a57b9ac6050937904998047ada4899d9849ca03e0f77777c624ed8410cec141134141124193815f59d0c5af02bdff1c9671290",
      "networkId": 0,
      "chainId": 0
    },
    {
      "hash": "0xbf10c3d847c7cb0ef69dd920874ee6b799ab93c2d922d1d1679fbf8e9ebd19dd",
      "blockHash": "0xa5f1b979736bf312b16b85bfbf4f16758ceef15dbfc57557028e1c2a5bd42e1f",
      "blockNumber": 64406,
      "transactionIndex": 1,
      "confirmations": null,
      "from": "0x6747f922385c9a6F9cfDf095F34345257DD597bE",
      "gasPrice": {
        "_hex": "0xba43b7400"
      },
      "gasLimit": {
        "_hex": "0x15f90"
      },
      "to": "0x21b7afa908859FF2EDAAE67ED02dC97f2ebF7089",
      "value": {
        "_hex": "0x2386f26fc10000"
      },
      "nonce": 1,
      "data": "0x",
      "r": "0x18a31e040cf5eadf888ab08f540a959ef48cc35165ee659e9bafa1cb850a46c3",
      "s": "0x259f87f0fecac70ac736cb13bb8ded15f26a26fc2cd0a019b26d29281ab7afee",
      "v": 28,
      "creates": null,
      "raw": "0xf86c01850ba43b740083015f909421b7afa908859ff2edaae67ed02dc97f2ebf7089872386f26fc10000801ca018a31e040cf5eadf888ab08f540a959ef48cc35165ee659e9bafa1cb850a46c3a0259f87f0fecac70ac736cb13bb8ded15f26a26fc2cd0a019b26d29281ab7afee",
      "networkId": 0,
      "chainId": 0
    }
  ]
}