{
  "hash": "0xa39e321e4360758ba10f2c30fed7843ba48a671f1801f2bfcf8aa217b1237238",
  "parentHash": "0xd63d0911a4744c66fd1deb7b6d975371c575f499930fd0310d81fbf1201c1d35",
  "number": 81704,
  "timestamp": 1439506270,
  "nonce": "0x72614c9c20ffd3a9",
  "difficulty": 2430647164028,
  "gasLimit": {
    "_hex": "0x2fefd8"
  },
  "gasUsed": {
    "_hex": "0x5208"
  },
  "miner": "0xe6A7a1d47ff21B6321162AEA7C6CB457D5476Bca",
  "extraData": "0x476574682f76312e302e312d38326566323666362f6c696e75782f676f312e34",
  "transactions": [
    {
      "hash": "0x49ed600cf72d408b3c6437814122d0a2f618a94492d5447d90d8b494702ffeaa",
      "blockHash": "0xa39e321e4360758ba10f2c30fed7843ba48a671f1801f2bfcf8aa217b1237238",
      "blockNumber": 81704,
      "transactionIndex": 0,
      "confirmations": null,
      "from": "0x32Be343B94f860124dC4fEe278FDCBD38C102D88",
      "gasPrice": {
        "_hex": "0xd030b501c"
      },
      "gasLimit": {
        "_hex": "0x5208"
      },
      "to": "0xE54C51118A2Cc163BC4BDb7C653Ab45Fc179d928",
      "value": {
        "_hex": "0x8aa39c121a270000"
      },
      "nonce": 610,
      "data": "0x",
      "r": "0x74fc8c6672df669af3716c9830ce1f363f396ac7820751c1e2c09c02544133f0",
      "s": "0x2168d31e5980cf4ed1118a81b725bdd65abdec3d5af1abced94005a6b92cc591",
      "v": 27,
      "creates": null,
      "raw": "0xf86e820262850d030b501c82520894e54c51118a2cc163bc4bdb7c653ab45fc179d928888aa39c121a270000801ba074fc8c6672df669af3716c9830ce1f363f396ac7820751c1e2c09c02544133f0a02168d31e5980cf4ed1118a81b725bdd65abdec3d5af1abced94005a6b92cc591",
      "networkId": 0,
      "chainId": 0
    }
  ]
}