{
  "hash": "0xdbc50c620214bfa71ae7e6045dec3fed409fdee5e05fd45fbad0a2b9ed5e1385",
  "parentHash": "0x82786850a5f9d4f1527889f7d3f1c4b4fe1a15b9ffa153c40f48565de61390a0",
  "number": 107731,
  "timestamp": 1439927896,
  "nonce": "0x2a7b0f8b0f7c2fe2",
  "difficulty": 4372727524865,
  "gasLimit": {
    "_hex": "0x2fefd8"
  },
  "gasUsed": {
    "_hex": "0x5208"
  },
  "miner": "0x090041473c833bf54B1197fD120F895C537c26B0",
  "extraData": "0x476574682f76312e302e312f6c696e75782f676f312e342e32",
  "transactions": [
    {
      "hash": "0x460ceb0ee755d14eba712f143526a70b9c0b5f9597a2ad009588bf5dd431a4a2",
      "blockHash": "0xdbc50c620214bfa71ae7e6045dec3fed409fdee5e05fd45fbad0a2b9ed5e1385",
      "blockNumber": 107731,
      "transactionIndex": 0,
      "confirmations": null,
      "from": "0x2FdA34cB6C13420bA8b8Af3cB1BA4F7CBb167821",
      "gasPrice": {
        "_hex": "0xd69b48315"
      },
      "gasLimit": {
        "_hex": "0x15f90"
      },
      "to": "0x0025BC2515C073784222cBCd1E988dBa9a0f75AF",
      "value": {
        "_hex": "0xde0b6b3a7640000"
      },
      "nonce": 0,
      "data": "0x",
      "r": "0x9bb8ff976ae7e94d301b20256f1e9d9b34fc8ff78d94bf671ae102609623cf2e",
      "s": "0x6f38709c3ecc7fd3a8830144a1971441bfb2b2443018a75420ba20633fd4d7d2",
      "v": 28,
      "creates": null,
      "raw": "0xf86d80850d69b4831583015f90940025bc2515c073784222cbcd1e988dba9a0f75af880de0b6b3a7640000801ca09bb8ff976ae7e94d301b20256f1e9d9b34fc8ff78d94bf671ae102609623cf2ea06f38709c3ecc7fd3a8830144a1971441bfb2b2443018a75420ba20633fd4d7d2",
      "networkId": 0,
      "chainId": 0
    }
  ]
}