{
  "hash": "0x3b499ce4b5a322f89d66d2ee8ad12346112618fbd4893a6d7d570fb8c8706aa4",
  "parentHash": "0xba5d47a0c2a1d6241e225bc76c1cf48dccc004e906c5ee5c3766bc6a468db350",
  "number": 48692,
  "timestamp": 1438961186,
  "nonce": "0x8b6111dfbedd7b29",
  "difficulty": 1474304852545,
  "gasLimit": {
    "_hex": "0x1c21c"
  },
  "gasUsed": {
    "_hex": "0x10370"
  },
  "miner": "0xbb7B8287f3F0a933474a79eAe42CBCa977791171",
  "extraData": "0x476574682f4c5649562f76312e302e312f6c696e75782f676f312e342e32",
  "transactions": [
    {
      "hash": "0x0fa3db2d9498e05e967f2d95f4981d6f0a73b88ea066c69663a68fe2b6ef7462",
      "blockHash": "0x3b499ce4b5a322f89d66d2ee8ad12346112618fbd4893a6d7d570fb8c8706aa4",
      "blockNumber": 48692,
      "transactionIndex": 0,
      "confirmations": null,
      "from": "0xF0d5c31cCb6cBE30C7c9ea19f268D159851F8c9c",
      "gasPrice": {
        "_hex": "0x110c8f7d8de"
      },
      "gasLimit": {
        "_hex": "0xc350"
      },
      "to": "0x2910543Af39abA0Cd09dBb2D50200b3E800A63D2",
      "value": {
        "_hex": "0x1d7a0c1016caa700000"
      },
      "nonce": 0,
      "data": "0x454e34425732313538",
      "r": "0x25100725e80336fc1138885257c02f2595f427957c2929278d510b7dacae8fd1",
      "s": "0xdf62e6260d95218804652e40f4b73307e1a5e44dae0ecedfa61e0a8406b68a88",
      "v": 28,
      "creates": null,
      "raw": "0xf87880860110c8f7d8de82c350942910543af39aba0cd09dbb2d50200b3e800a63d28a01d7a0c1016caa70000089454e344257323135381ca025100725e80336fc1138885257c02f2595f427957c2929278d510b7dacae8fd1a0df62e6260d95218804652e40f4b73307e1a5e44dae0ecedfa61e0a8406b68a88",
      "networkId": 0,
      "chainId": 0
    },
    {
      "hash": "0x06acdbe36b872b55e3266a3f04902104ee73cfc5eaeab012d3500638a51d1f61",
      "blockHash": "0x3b499ce4b5a322f89d66d2ee8ad12346112618fbd4893a6d7d570fb8c8706aa4",
      "blockNumber": 48692,
      "transactionIndex": 1,
      "confirmations": null,
      "from": "0x22F2DcFf5aD78c3Eb6850B5Cb951127B659522E6",
      "gasPrice": {
        "_hex": "0xe472af6b3"
      },
      "gasLimit": {
        "_hex": "0x15f90"
      },
      "to": "0x0000000000000000000000000000000000000000",
      "value": {
        "_hex": "0x0"
      },
      "nonce": 15,
      "data": "0xbe99a980676f640000000000000000000000000000000000000000000000000000000000000000000000000000000000b5ce1861d98e85c84531dbc18720278328fd97f60000000000000000000000000000000000000000000000000000000000000001",
      "r": "0xf755fd064320d96aa7cbda247b20c51e1acf4ede47c1cd918ff3962ea6376e1c",
      "s": "0x273e80118da115ea576910142f92885769d99c07def01f42e0563b172de1e00c",
      "v": 28,
      "creates": null,
      "raw": "0xf8ca0f850e472af6b383015f9094000000000000000000000000000000000000000080b864be99a980676f640000000000000000000000000000000000000000000000000000000000000000000000000000000000b5ce1861d98e85c84531dbc18720278328fd97f600000000000000000000000000000000000000000000000000000000000000011ca0f755fd064320d96aa7cbda247b20c51e1acf4ede47c1cd918ff3962ea6376e1ca0273e80118da115ea576910142f92885769d99c07def01f42e0563b172de1e00c",
      "networkId": 0,
      "chainId": 0
    },
    {
      "hash": "0x73eae59df9d9930b431a9e4a84819eb093ee09a740836ac09eb4a9c186c75809",
      "blockHash": "0x3b499ce4b5a322f89d66d2ee8ad12346112618fbd4893a6d7d570fb8c8706aa4",
      "blockNumber": 48692,
      "transactionIndex": 2,
      "confirmations": null,
      "from": "0x8846928d683289a2d11Df8Db7a9474988ef01348",
      "gasPrice": {
        "_hex": "0xd50fd3d66"
      },
      "gasLimit": {
        "_hex": "0x55f0"
      },
      "to": "0x2910543Af39abA0Cd09dBb2D50200b3E800A63D2",
      "value": {
        "_hex": "0xde0b6b3a7640000"
      },
      "nonce": 0,
      "data": "0x454e3756465a343052",
      "r": "0xd41f33882a81526631f4afad05c494f860c4886fbe1bc034a29cf4a482725568",
      "s": "0x66fe69ccdbf1f2c456a5285fa9375dc4da8dafadd45e3ac0e2266ad6a3ac9353",
      "v": 27,
      "creates": null,
      "raw": "0xf87580850d50fd3d668255f0942910543af39aba0cd09dbb2d50200b3e800a63d2880de0b6b3a764000089454e3756465a3430521ba0d41f33882a81526631f4afad05c494f860c4886fbe1bc034a29cf4a482725568a066fe69ccdbf1f2c456a5285fa9375dc4da8dafadd45e3ac0e2266ad6a3ac9353",
      "networkId": 0,
      "chainId": 0
    }
  ]
}