{
  "hash": "0xc23b95cc7ade482c9928bab9294d760849214006f30e839b74ca74a910bc3e65",
  "parentHash": "0xbe6af89e147d173e756b0a8c567be2fbc5ba0c918b210922d62b8140ff34b8c1",
  "number": 53026,
  "timestamp": 1439031225,
  "nonce": "0x46b305633d41b2b8",
  "difficulty": 1573180917602,
  "gasLimit": {
    "_hex": "0x1e0908"
  },
  "gasUsed": {
    "_hex": "0x5208"
  },
  "miner": "0x0037ce3d4B7f8729C8607D8D0248252Be68202c0",
  "extraData": "0x476574682f76312e302e312f77696e646f77732f676f312e342e32",
  "transactions": [
    {
      "hash": "0x79e3a666d99f861976ae79f85b3163da863cd2f6538d688606216708343b37d8",
      "blockHash": "0xc23b95cc7ade482c9928bab9294d760849214006f30e839b74ca74a910bc3e65",
      "blockNumber": 53026,
      "transactionIndex": 0,
      "confirmations": null,
      "from": "0xF2d2AfF1320476cb8C6b607199D23175cc595693",
      "gasPrice": {
        "_hex": "0xd097ca00a"
      },
      "gasLimit": {
        "_hex": "0x15f90"
      },
      "to": "0xF5EeDc192aB70b08D8354384aD94efD095849E00",
      "value": {
        "_hex": "0xde0b6b3a7640000"
      },
      "nonce": 5,
      "data": "0x",
      "r": "0x1f5d92355d2461195b36e4be598d19746eda1e4a13a68777ec85c5abbb7071d8",
      "s": "0x1628642bba1ff4c77f8e96de736e1537dcda7575bd66c1a1ffd06577b6ab7382",
      "v": 27,
      "creates": null,
      "raw": "0xf86d05850d097ca00a83015f9094f5eedc192ab70b08d8354384ad94efd095849e00880de0b6b3a7640000801ba01f5d92355d2461195b36e4be598d19746eda1e4a13a68777ec85c5abbb7071d8a01628642bba1ff4c77f8e96de736e1537dcda7575bd66c1a1ffd06577b6ab7382",
      "networkId": 0,
      "chainId": 0
    }
  ]
}