{
  "hash": "0xc147309dd5609f4300b9464e604c0ca87b48de64774350c6bdbb779ad53b0031",
  "parentHash": "0x969aceb9085a619b68f3e96f022e0b94c1422b8652c0d40ebef0eba7e1a22eb7",
  "number": 111270,
  "timestamp": 1439987584,
  "nonce": "0x9eb155f1835a0afb",
  "difficulty": 4394422725145,
  "gasLimit": {
    "_hex": "0x2fefd8"
  },
  "gasUsed": {
    "_hex": "0xa410"
  },
  "miner": "0x790b8a3cE86E707ED0eD32bF89B3269692a23CC1",
  "extraData": "0xd783010001844765746887676f312e342e32856c696e7578",
  "transactions": [
    {
      "hash": "0xeadf980e288e99c55dfdd683408416cae47c58a6819e03a164fb8dc7cd2fe44b",
      "blockHash": "0xc147309dd5609f4300b9464e604c0ca87b48de64774350c6bdbb779ad53b0031",
      "blockNumber": 111270,
      "transactionIndex": 0,
      "confirmations": null,
      "from": "0x29Ab575850dCEf127cd8D646fB3c208b3860C2F0",
      "gasPrice": {
        "_hex": "0xd42db25bd"
      },
      "gasLimit": {
        "_hex": "0x15f90"
      },
      "to": "0xA10CDF70bc138605c39F8651A78485Fe4F1C3811",
      "value": {
        "_hex": "0x15af1d78b58c40000"
      },
      "nonce": 8,
      "data": "0x",
      "r": "0xa0e4785b45d978077b88ea1ee21b4f4b96ff7e823871cd383be52c323d09ea25",
      "s": "0x5108e020fe25041e4a5b80b1f925fa6e071ce1be5c7648c978ee88e1bbe6ee37",
      "v": 27,
      "creates": null,
      "raw": "0xf86e08850d42db25bd83015f9094a10cdf70bc138605c39f8651a78485fe4f1c381189015af1d78b58c40000801ba0a0e4785b45d978077b88ea1ee21b4f4b96ff7e823871cd383be52c323d09ea25a05108e020fe25041e4a5b80b1f925fa6e071ce1be5c7648c978ee88e1bbe6ee37",
      "networkId": 0,
      "chainId": 0
    },
    {
      "hash": "0x32018e191afcc1ec28e4933328822c0d13a0d612381ac6f41eb762dbafea3033",
      "blockHash": "0xc147309dd5609f4300b9464e604c0ca87b48de64774350c6bdbb779ad53b0031",
      "blockNumber": 111270,
      "transactionIndex": 1,
      "confirmations": null,
      "from": "0x32Be343B94f860124dC4fEe278FDCBD38C102D88",
      "gasPrice": {
        "_hex": "0xcf0ccb670"
      },
      "gasLimit": {
        "_hex": "0x5208"
      },
      "to": "0xAd7F5C601260b460ADAC6A54411Ca6Cf07dC83c3",
      "value": {
        "_hex": "0x5d0625254b9a900000"
      },
      "nonce": 1302,
      "data": "0x",
      "r": "0x207c9bbca6609492bd290d644d8d1f6adfa43976d387c6e745f3629545966d86",
      "s": "0x26be9ac1ba2ff86491cfc8520ce9482bcb281d54d06f48920fdbd2e013a89280",
      "v": 27,
      "creates": null,
      "raw": "0xf86f820516850cf0ccb67082520894ad7f5c601260b460adac6a54411ca6cf07dc83c3895d0625254b9a900000801ba0207c9bbca6609492bd290d644d8d1f6adfa43976d387c6e745f3629545966d86a026be9ac1ba2ff86491cfc8520ce9482bcb281d54d06f48920fdbd2e013a89280",
      "networkId": 0,
      "chainId": 0
    }
  ]
}