{
  "hash": "0x6eb38a5ffc059d2968174fe0331518a22738973b427ec6ddbd9b0446913c57fc",
  "parentHash": "0x19057ae9c69e95cb89018c130e03d7aeb70ff96d0e5540f2d623c8a67470148d",
  "number": 100775,
  "timestamp": 1439812122,
  "nonce": "0x4ee42f125d6a5f51",
  "difficulty": 3850821431040,
  "gasLimit": {
    "_hex": "0x2fefd8"
  },
  "gasUsed": {
    "_hex": "0x14820"
  },
  "miner": "0x070c8963Cf4abCe1BFaF5973F2E0f7697925B242",
  "extraData": "0x",
  "transactions": [
    {
      "hash": "0x5d271937b8053f390622661e926123e21bdc56007f4c49dc7494a91618c61b65",
      "blockHash": "0x6eb38a5ffc059d2968174fe0331518a22738973b427ec6ddbd9b0446913c57fc",
      "blockNumber": 100775,
      "transactionIndex": 0,
      "confirmations": null,
      "from": "0xa70a9a7040d542C632D8e0bE7c5513A8a5Bbc752",
      "gasPrice": {
        "_hex": "0xe049c5c59"
      },
      "gasLimit": {
        "_hex": "0x5208"
      },
      "to": "0x32Be343B94f860124dC4fEe278FDCBD38C102D88",
      "value": {
        "_hex": "0x45636b2a21212000"
      },
      "nonce": 206,
      "data": "0x",
      "r": "0x7bfeb5edf05fb831624dbd65cd4e0841663ab7df08a1703f064e465e3c027acc",
      "s": "0x3c47d0593f714ebc83c0c1ac72db2ff8f69f0a242e1c4ee4ef2acf7ca222dc4a",
      "v": 27,
      "creates": null,
      "raw": "0xf86d81ce850e049c5c598252089432be343b94f860124dc4fee278fdcbd38c102d888845636b2a21212000801ba07bfeb5edf05fb831624dbd65cd4e0841663ab7df08a1703f064e465e3c027acca03c47d0593f714ebc83c0c1ac72db2ff8f69f0a242e1c4ee4ef2acf7ca222dc4a",
      "networkId": 0,
      "chainId": 0
    },
    {
      "hash": "0xddd80f2d9ada69021da4f27c95c8c895c5abbf4623f5b00bec3cd6bfca39582f",
      "blockHash": "0x6eb38a5ffc059d2968174fe0331518a22738973b427ec6ddbd9b0446913c57fc",
      "blockNumber": 100775,
      "transactionIndex": 1,
      "confirmations": null,
      "from": "0xdc41BFACFAaF8B0F0949aB5A3f18f47063Ae62fB",
      "gasPrice": {
        "_hex": "0xde08b953a"
      },
      "gasLimit": {
        "_hex": "0x5208"
      },
      "to": "0x32Be343B94f860124dC4fEe278FDCBD38C102D88",
      "value": {
        "_hex": "0x536c3b17699db8000"
      },
      "nonce": 5,
      "data": "0x",
      "r": "0xa80da7c2c32fc0eacd30edf155e3e856ddcf11cc2fd9eaaa465ad81a58977f52",
      "s": "0x55c0b211597f9228bfb7bb0ce57e697102df35b4c4e575e059c713ee58f87a66",
      "v": 27,
      "creates": null,
      "raw": "0xf86d05850de08b953a8252089432be343b94f860124dc4fee278fdcbd38c102d88890536c3b17699db8000801ba0a80da7c2c32fc0eacd30edf155e3e856ddcf11cc2fd9eaaa465ad81a58977f52a055c0b211597f9228bfb7bb0ce57e697102df35b4c4e575e059c713ee58f87a66",
      "networkId": 0,
      "chainId": 0
    },
    {
      "hash": "0xff563ab1dd3fc1271f57686bcaa216c647a8791adadb5ef7646157ca146a8f15",
      "blockHash": "0x6eb38a5ffc059d2968174fe0331518a22738973b427ec6ddbd9b0446913c57fc",
      "blockNumber": 100775,
      "transactionIndex": 2,
      "confirmations": null,
      "from": "0xe512429AB3036301dC4c56F9a4c9991dCbb6b496",
      "gasPrice": {
        "_hex": "0xde08b953a"
      },
      "gasLimit": {
        "_hex": "0x5208"
      },
      "to": "0x32Be343B94f860124dC4fEe278FDCBD38C102D88",
      "value": {
        "_hex": "0x34697a4c25f83c00"
      },
      "nonce": 5,
      "data": "0x",
      "r": "0xa661349aa5573c3d0c7be4840cb0941c93b857990e749f1b93b8a7116d930f0f",
      "s": "0x3e4f4cfa8f961033ce4d0b626a4cf4351f7ac9c754d2b549454f46075e618e1f",
      "v": 28,
      "creates": null,
      "raw": "0xf86c05850de08b953a8252089432be343b94f860124dc4fee278fdcbd38c102d888834697a4c25f83c00801ca0a661349aa5573c3d0c7be4840cb0941c93b857990e749f1b93b8a7116d930f0fa03e4f4cfa8f961033ce4d0b626a4cf4351f7ac9c754d2b549454f46075e618e1f",
      "networkId": 0,
      "chainId": 0
    },
    {
      "hash": "0xbee165464a35215551b0eed333739fce5c366db18d4cbef1fdb25f70fda0c4b5",
      "blockHash": "0x6eb38a5ffc059d2968174fe0331518a22738973b427ec6ddbd9b0446913c57fc",
      "blockNumber": 100775,
      "transactionIndex": 3,
      "confirmations": null,
      "from": "0x623d2411c3bb3340784155F9a688b0085251aB5c",
      "gasPrice": {
        "_hex": "0xd59ffc7e0"
      },
      "gasLimit": {
        "_hex": "0x55f0"
      },
      "to": "0xB9eE81c1A5CdE84454DC603a8000836118627cfd",
      "value": {
        "_hex": "0xde0b6b3a7640000"
      },
      "nonce": 0,
      "data": "0x",
      "r": "0xfc76dbf1c029db3e629fe801f045b33f04a335d9ed2da1999b13c009f43669e2",
      "s": "0x5dc8a98003525790dfccc8664f1afca5e9c49645c41f924d030100f1f0656e7f",
      "v": 27,
      "creates": null,
      "raw": "0xf86c80850d59ffc7e08255f094b9ee81c1a5cde84454dc603a8000836118627cfd880de0b6b3a7640000801ba0fc76dbf1c029db3e629fe801f045b33f04a335d9ed2da1999b13c009f43669e2a05dc8a98003525790dfccc8664f1afca5e9c49645c41f924d030100f1f0656e7f",
      "networkId": 0,
      "chainId": 0
    }
  ]
}