{
  "hash": "0x3af5638280151ef628ed743355c08a731055a1df618cad12384c5e09ee2e2494",
  "parentHash": "0xb2b615fd32c4357047f8c8e00844c484425c5f580b53c9486635ab2198a3c42b",
  "number": 47031,
  "timestamp": 1438933414,
  "nonce": "0x170c8fc12ff15b7e",
  "difficulty": 1449610288635,
  "gasLimit": {
    "_hex": "0x9152"
  },
  "gasUsed": {
    "_hex": "0x5bd8"
  },
  "miner": "0x70137010922f2fC2964b3792907F79FBB75fEbe8",
  "extraData": "0x476574682f76312e302e302f6c696e75782f676f312e342e32",
  "transactions": [
    {
      "hash": "0x4f6a135f40b5a4e308c2092f58d26cd62c7fa49e2e54bbd10a3d43d2cf946996",
      "blockHash": "0x3af5638280151ef628ed743355c08a731055a1df618cad12384c5e09ee2e2494",
      "blockNumber": 47031,
      "transactionIndex": 0,
      "confirmations": null,
      "from": "0xebDc6dD87D3a9840bC68c0266f06122234430DBb",
      "gasPrice": {
        "_hex": "0xdc634584c"
      },
      "gasLimit": {
        "_hex": "0x88b8"
      },
      "to": "0x0000000000000000000000000000000000000000",
      "value": {
        "_hex": "0x0"
      },
      "nonce": 1,
      "data": "0xbe99a9806272656e646f6e68000000000000000000000000000000000000000000000000000000000000000000000000ebdc6dd87d3a9840bc68c0266f06122234430dbb0000000000000000000000000000000000000000000000000000000000000001",
      "r": "0xd030e279a5ef460323b3afce200c1bee47d625f5f6f110571cc9b012330494fb",
      "s": "0x71f71130bcfe81aa6e1962b1d386ba00f9086362c874b5b4149a39b6e114fee3",
      "v": 27,
      "creates": null,
      "raw": "0xf8c901850dc634584c8288b894000000000000000000000000000000000000000080b864be99a9806272656e646f6e68000000000000000000000000000000000000000000000000000000000000000000000000ebdc6dd87d3a9840bc68c0266f06122234430dbb00000000000000000000000000000000000000000000000000000000000000011ba0d030e279a5ef460323b3afce200c1bee47d625f5f6f110571cc9b012330494fba071f71130bcfe81aa6e1962b1d386ba00f9086362c874b5b4149a39b6e114fee3",
      "networkId": 0,
      "chainId": 0
    }
  ]
}