{
  "hash": "0xe93ede9aab8e6f6159e62bf280757e5d822bf09edf00020435996d4b367c9bbf",
  "parentHash": "0xba8fcbdde23a111e449641dfe6f270242829a7ee81b7d9d9500452235f37a424",
  "number": 59418,
  "timestamp": 1439137774,
  "nonce": "0x23b9ec1403f9f8c1",
  "difficulty": 1704705451123,
  "gasLimit": {
    "_hex": "0x2fefd8"
  },
  "gasUsed": {
    "_hex": "0x5208"
  },
  "miner": "0xeB1325C8D9d3ea8D74aC11F4B00F1B2367686319",
  "extraData": "0x476574682f76312e302e312f77696e646f77732f676f312e342e32",
  "transactions": [
    {
      "hash": "0x0e0b56381d3181e3d29b11df25686c530d6f6f44d61ad15f51ba06e6e5592be6",
      "blockHash": "0xe93ede9aab8e6f6159e62bf280757e5d822bf09edf00020435996d4b367c9bbf",
      "blockNumber": 59418,
      "transactionIndex": 0,
      "confirmations": null,
      "from": "0xDf3435b39f96cA23a759D8B1eCC82ad9cE30CAAf",
      "gasPrice": {
        "_hex": "0xd84733850"
      },
      "gasLimit": {
        "_hex": "0x5208"
      },
      "to": "0x32Be343B94f860124dC4fEe278FDCBD38C102D88",
      "value": {
        "_hex": "0xd8d6fedb4c3fe00000"
      },
      "nonce": 2,
      "data": "0x",
      "r": "0xa5d54175bceb50fd6530c7c0245440d723b63d9ae7f0520e6424d4666300334d",
      "s": "0x46e273482eff004531e90c74c9e4c6689cc5986d9a0e50b9ad697ccf1bff7c99",
      "v": 27,
      "creates": null,
      "raw": "0xf86d02850d847338508252089432be343b94f860124dc4fee278fdcbd38c102d8889d8d6fedb4c3fe00000801ba0a5d54175bceb50fd6530c7c0245440d723b63d9ae7f0520e6424d4666300334da046e273482eff004531e90c74c9e4c6689cc5986d9a0e50b9ad697ccf1bff7c99",
      "networkId": 0,
      "chainId": 0
    }
  ]
}