{
  "hash": "0x5054c0cda45813b9bcf7d08d1697c2f5c811fb03c9ec8182f2d9df8b80e81544",
  "parentHash": "0xaf63da8a52cfef79fdd5580185c391d2c95e8644964ee7b07fe46ba5d9a10014",
  "number": 108388,
  "timestamp": 1439939461,
  "nonce": "0x0769b5a6f29e611e",
  "difficulty": 4336241068423,
  "gasLimit": {
    "_hex": "0x2fefd8"
  },
  "gasUsed": {
    "_hex": "0x5208"
  },
  "miner": "0xa70a9a7040d542C632D8e0bE7c5513A8a5Bbc752",
  "extraData": "0x",
  "transactions": [
    {
      "hash": "0x0a3212977595868b68b03ba28a6ff8e7d2c6d054eb5f4037a10cfe6b17946c7f",
      "blockHash": "0x5054c0cda45813b9bcf7d08d1697c2f5c811fb03c9ec8182f2d9df8b80e81544",
      "blockNumber": 108388,
      "transactionIndex": 0,
      "confirmations": null,
      "from": "0x2128E8d8db402ba3022732952487031Dd5D68c1F",
      "gasPrice": {
        "_hex": "0xd640d19a9"
      },
      "gasLimit": {
        "_hex": "0x5208"
      },
      "to": "0x32Be343B94f860124dC4fEe278FDCBD38C102D88",
      "value": {
        "_hex": "0xdd8d475d4433000"
      },
      "nonce": 0,
      "data": "0x",
      "r": "0xb52bca3591a3eae59cb358f6376f9c32c536e612a61deed0686d067e44878a5e",
      "s": "0x6d9f9084f57556664360c720c3ca777ac243e0ce71665fcc4d09e54b95275799",
      "v": 27,
      "creates": null,
      "raw": "0xf86c80850d640d19a98252089432be343b94f860124dc4fee278fdcbd38c102d88880dd8d475d4433000801ba0b52bca3591a3eae59cb358f6376f9c32c536e612a61deed0686d067e44878a5ea06d9f9084f57556664360c720c3ca777ac243e0ce71665fcc4d09e54b95275799",
      "networkId": 0,
      "chainId": 0
    }
  ]
}