{
  "hash": "0xb5d30502c5430d188961c82e4680c65b7c4ab274167053ae577b3ed70b618fe5",
  "parentHash": "0x108a800041dbb6b87eb975cf5efbc3e6a34168e30bd144ff58df55ffd4ab18c4",
  "number": 80687,
  "timestamp": 1439489231,
  "nonce": "0x07f0e30bae4733d2",
  "difficulty": 2439264963421,
  "gasLimit": {
    "_hex": "0x2fefd8"
  },
  "gasUsed": {
    "_hex": "0xa410"
  },
  "miner": "0xf32866D5cE9a9b5673e076be48AbCd6ED48ADe78",
  "extraData": "0x476574682f76312e302e312d37666266393930632f6c696e75782f676f312e34",
  "transactions": [
    {
      "hash": "0xdb20d884438a496f775f9f115d9a2672fc1e37934945a4435a26a21546fd3370",
      "blockHash": "0xb5d30502c5430d188961c82e4680c65b7c4ab274167053ae577b3ed70b618fe5",
      "blockNumber": 80687,
      "transactionIndex": 0,
      "confirmations": null,
      "from": "0x16cF55eb83BaC98CB6be71696152762c656d8c89",
      "gasPrice": {
        "_hex": "0xd4fde21b5"
      },
      "gasLimit": {
        "_hex": "0x5208"
      },
      "to": "0x32Be343B94f860124dC4fEe278FDCBD38C102D88",
      "value": {
        "_hex": "0xddc72b2e28c5400"
      },
      "nonce": 0,
      "data": "0x",
      "r": "0x28918fa0106bb9e3925dcad948096220f637a2d19db889fbf076de161492fac9",
      "s": "0x51351712a4f2300e1d37051c587552b6fbf28c78ad24d3c09d5b075d7c457495",
      "v": 28,
      "creates": null,
      "raw": "0xf86c80850d4fde21b58252089432be343b94f860124dc4fee278fdcbd38c102d88880ddc72b2e28c5400801ca028918fa0106bb9e3925dcad948096220f637a2d19db889fbf076de161492fac9a051351712a4f2300e1d37051c587552b6fbf28c78ad24d3c09d5b075d7c457495",
      "networkId": 0,
      "chainId": 0
    },
    {
      "hash": "0x40070b1a360855729a23f801bf937fc2316d5cade90ca08f0bab3191a1241fe3",
      "blockHash": "0xb5d30502c5430d188961c82e4680c65b7c4ab274167053ae577b3ed70b618fe5",
      "blockNumber": 80687,
      "transactionIndex": 1,
      "confirmations": null,
      "from": "0x2f86ba8019945f39edE131D38d4d8780884DA553",
      "gasPrice": {
        "_hex": "0xd4fde21b5"
      },
      "gasLimit": {
        "_hex": "0x5208"
      },
      "to": "0x32Be343B94f860124dC4fEe278FDCBD38C102D88",
      "value": {
        "_hex": "0x6c6b8f178af8680000"
      },
      "nonce": 5,
      "data": "0x",
      "r": "0x645e5dc1e9fa0932b961fcf1470e23409b300ca7141d2c04b0dbb9fec289bdc0",
      "s": "0x0918641f9bba48d182dadf79f407369d7abdc0ee7d50346b83e9eb029cf505f2",
      "v": 27,
      "creates": null,
      "raw": "0xf86d05850d4fde21b58252089432be343b94f860124dc4fee278fdcbd38c102d88896c6b8f178af8680000801ba0645e5dc1e9fa0932b961fcf1470e23409b300ca7141d2c04b0dbb9fec289bdc0a00918641f9bba48d182dadf79f407369d7abdc0ee7d50346b83e9eb029cf505f2",
      "networkId": 0,
      "chainId": 0
    }
  ]
}