{
  "hash": "0x96a6162812bec98b3cda642482c7b2348fea00e74886a2a8a68ba2ff0ee194da",
  "parentHash": "0x8d8d56a1bddfa3eda3999165f7802c850c61f4257f45dc99e10a13f52690822f",
  "number": 112669,
  "timestamp": 1440011060,
  "nonce": "0xb752407c18d7615a",
  "difficulty": 4434641353083,
  "gasLimit": {
    "_hex": "0x2fefd8"
  },
  "gasUsed": {
    "_hex": "0x5208"
  },
  "miner": "0x98f7A0eDF3E25675482cA52480B7e07cA828a4b9",
  "extraData": "0x476574682f76312e302e312f6c696e75782f676f312e342e32",
  "transactions": [
    {
      "hash": "0xc0e3902c84ada9b557879530d8c893f3f8ff679415a1bd227300bbc77b22643b",
      "blockHash": "0x96a6162812bec98b3cda642482c7b2348fea00e74886a2a8a68ba2ff0ee194da",
      "blockNumber": 112669,
      "transactionIndex": 0,
      "confirmations": null,
      "from": "0x2660299c07076aEB9cEF872a41EAF75E4C16020D",
      "gasPrice": {
        "_hex": "0xddb4a12ab"
      },
      "gasLimit": {
        "_hex": "0x15f90"
      },
      "to": "0x23ac86f02C0e12C822b2c991b4602fbd79EAB8Ed",
      "value": {
        "_hex": "0x4563918244f40000"
      },
      "nonce": 6,
      "data": "0x",
      "r": "0x9d59357c29f75ebb4d7cfa5847ec1ee6b317ece968dcab2fc99c590e4ac85df2",
      "s": "0x468342acf209f023d95cddf986460c524ce828041f0a588c3309126956626cee",
      "v": 27,
      "creates": null,
      "raw": "0xf86d06850ddb4a12ab83015f909423ac86f02c0e12c822b2c991b4602fbd79eab8ed884563918244f40000801ba09d59357c29f75ebb4d7cfa5847ec1ee6b317ece968dcab2fc99c590e4ac85df2a0468342acf209f023d95cddf986460c524ce828041f0a588c3309126956626cee",
      "networkId": 0,
      "chainId": 0
    }
  ]
}