{
  "hash": "0x6377cc0b7ea2b09ae223a7e4e88e01cc0dd306b5a214524c34d2858274a24831",
  "parentHash": "0x63c002b4f273e04a498f667e74a47e9869d705417c4b8e58c31c9a112f69556a",
  "number": 88680,
  "timestamp": 1439611730,
  "nonce": "0x73d7575ed1788a75",
  "difficulty": 3233156082765,
  "gasLimit": {
    "_hex": "0x2fefd8"
  },
  "gasUsed": {
    "_hex": "0x5208"
  },
  "miner": "0x790b8a3cE86E707ED0eD32bF89B3269692a23CC1",
  "extraData": "0xd783010001844765746887676f312e342e32856c696e7578",
  "transactions": [
    {
      "hash": "0xe73212951f46a17ef861d71c05de9169bad67ef98fb3f5f025a69c877d06fd79",
      "blockHash": "0x6377cc0b7ea2b09ae223a7e4e88e01cc0dd306b5a214524c34d2858274a24831",
      "blockNumber": 88680,
      "transactionIndex": 0,
      "confirmations": null,
      "from": "0xB7268c7705A1866b2A78e882fdfDc8E2a4e1428E",
      "gasPrice": {
        "_hex": "0xd1a4f4138"
      },
      "gasLimit": {
        "_hex": "0x15f90"
      },
      "to": "0x96811Ad897894eC178872117C8BF2f03971A393B",
      "value": {
        "_hex": "0x5a34a38fc00a0000"
      },
      "nonce": 32,
      "data": "0x",
      "r": "0xb51fcd311be72b27363afe34d4121ce849c45104211e4e8fafba73b8e8284db0",
      "s": "0x1353fede4bf5369cde997776957423ee269e3266799cddb4554088668a262f6f",
      "v": 27,
      "creates": null,
      "raw": "0xf86d20850d1a4f413883015f909496811ad897894ec178872117c8bf2f03971a393b885a34a38fc00a0000801ba0b51fcd311be72b27363afe34d4121ce849c45104211e4e8fafba73b8e8284db0a01353fede4bf5369cde997776957423ee269e3266799cddb4554088668a262f6f",
      "networkId": 0,
      "chainId": 0
    }
  ]
}