{
  "hash": "0x6ffb701a5b3a899f50547f97b0ac8034fee1df6a9d9adec663fd2181caa8c085",
  "parentHash": "0x7eca74bad2759497340c0d293679ce244e6a0e635018e7343c78d3d3fbc4300c",
  "number": 50795,
  "timestamp": 1438994656,
  "nonce": "0xe8a30376f8989678",
  "difficulty": 1548446709035,
  "gasLimit": {
    "_hex": "0x787e4"
  },
  "gasUsed": {
    "_hex": "0xa674"
  },
  "miner": "0x02020D22dCF88f5eDd66B382D7da019F161fB7e3",
  "extraData": "0x",
  "transactions": [
    {
      "hash": "0x8481965b603e92136f479dc56c2ed0b14f40889976a61a4a615a5b15f3ee5517",
      "blockHash": "0x6ffb701a5b3a899f50547f97b0ac8034fee1df6a9d9adec663fd2181caa8c085",
      "blockNumber": 50795,
      "transactionIndex": 0,
      "confirmations": null,
      "from": "0xC939D6e2515872B4A5bed252f1d82A4dCE4A1507",
      "gasPrice": {
        "_hex": "0x11a8bc619a7"
      },
      "gasLimit": {
        "_hex": "0x15f90"
      },
      "to": "0x3aAE6435730f753ecF6214996ae2a55A1503F97c",
      "value": {
        "_hex": "0x20f5b1eaad8d80000"
      },
      "nonce": 7,
      "data": "0x",
      "r": "0xb38c8a603eeb798d86927b809fd30f2027b28aa4d5bbd2021cf7477d9f1bb61a",
      "s": "0x58c8f30f184ea714f5f462ced8394e77c594e70259cd6775aa9cb0a9a2f0bc4a",
      "v": 27,
      "creates": null,
      "raw": "0xf86f0786011a8bc619a783015f90943aae6435730f753ecf6214996ae2a55a1503f97c89020f5b1eaad8d80000801ba0b38c8a603eeb798d86927b809fd30f2027b28aa4d5bbd2021cf7477d9f1bb61aa058c8f30f184ea714f5f462ced8394e77c594e70259cd6775aa9cb0a9a2f0bc4a",
      "networkId": 0,
      "chainId": 0
    },
    {
      "hash": "0xbe695f1c43c8413e42c63b91d379017ab81097addfe15a279b52272b11da79d0",
      "blockHash": "0x6ffb701a5b3a899f50547f97b0ac8034fee1df6a9d9adec663fd2181caa8c085",
      "blockNumber": 50795,
      "transactionIndex": 1,
      "confirmations": null,
      "from": "0x05423A54C8D0f9707E704173d923B946edc8E700",
      "gasPrice": {
        "_hex": "0x110c8f7d8de"
      },
      "gasLimit": {
        "_hex": "0xc350"
      },
      "to": "0x2910543Af39abA0Cd09dBb2D50200b3E800A63D2",
      "value": {
        "_hex": "0x6dad8a50a08250000"
      },
      "nonce": 1,
      "data": "0x454e554b5256424338",
      "r": "0xafa6fc7c0c111c35a1256555624509ca3fc8d7ee25e3b3bc8b722aa347cd42b7",
      "s": "0x6bbc08d57ad44d4e406de2c7f9617429694e8993c15c490fe1dfdcb7b3ae604b",
      "v": 27,
      "creates": null,
      "raw": "0xf87701860110c8f7d8de82c350942910543af39aba0cd09dbb2d50200b3e800a63d28906dad8a50a0825000089454e554b52564243381ba0afa6fc7c0c111c35a1256555624509ca3fc8d7ee25e3b3bc8b722aa347cd42b7a06bbc08d57ad44d4e406de2c7f9617429694e8993c15c490fe1dfdcb7b3ae604b",
      "networkId": 0,
      "chainId": 0
    }
  ]
}