{
  "hash": "0x64e1a39b2d1c55501c85878d489bbd8d9f1038de8a8de778c527eb1fbeb95739",
  "parentHash": "0x2ce26d569031e2c73a4d77ae4a4bd1c5172fcec9007120660ef44e7348c06fdd",
  "number": 102532,
  "timestamp": 1439839485,
  "nonce": "0xf31fcfd072709a13",
  "difficulty": 3981937231348,
  "gasLimit": {
    "_hex": "0x2fefd8"
  },
  "gasUsed": {
    "_hex": "0x5208"
  },
  "miner": "0x9D49F602b0fdb924Bd63DDE2Bd0907E4A07c63a7",
  "extraData": "0x476574682f76312e302e312f6c696e75782f676f312e342e32",
  "transactions": [
    {
      "hash": "0x3ebed9e7951cb0c00ae09572f5534ca278a2c8ba38b5e5412d4943ddc74306a2",
      "blockHash": "0x64e1a39b2d1c55501c85878d489bbd8d9f1038de8a8de778c527eb1fbeb95739",
      "blockNumber": 102532,
      "transactionIndex": 0,
      "confirmations": null,
      "from": "0xCD1e66ED539dd92Fc40bBAa1FA16de8c02C14D45",
      "gasPrice": {
        "_hex": "0xce69237fc"
      },
      "gasLimit": {
        "_hex": "0x5208"
      },
      "to": "0xe0e82eD3e93079cE76aAC1dA7b4bfa990D885A0D",
      "value": {
        "_hex": "0x41cdcef34da25c820"
      },
      "nonce": 15,
      "data": "0x",
      "r": "0xe7fcb9ec0cc170f642299e4df2d55e4df8c9796769700c1a7a3965edaa9fe39c",
      "s": "0x117e46d6931425ba5c7be5f01807a48d2beb371c5d7635bb24b3cbf1946709f2",
      "v": 28,
      "creates": null,
      "raw": "0xf86d0f850ce69237fc82520894e0e82ed3e93079ce76aac1da7b4bfa990d885a0d89041cdcef34da25c820801ca0e7fcb9ec0cc170f642299e4df2d55e4df8c9796769700c1a7a3965edaa9fe39ca0117e46d6931425ba5c7be5f01807a48d2beb371c5d7635bb24b3cbf1946709f2",
      "networkId": 0,
      "chainId": 0
    }
  ]
}