{
  "hash": "0x61f38408c1611f680c341dce02849b98d245fae2e4abaf17821447da84fc3d27",
  "parentHash": "0xe839b355620a58aafcdbeaeaca415529a4ab7d088a577c1b42dcba88106093c5",
  "number": 93100,
  "timestamp": 1439682436,
  "nonce": "0xa58cf330f73ddbb9",
  "difficulty": 3647440285893,
  "gasLimit": {
    "_hex": "0x2fefd8"
  },
  "gasUsed": {
    "_hex": "0x5208"
  },
  "miner": "0x6BB048244aC4f934163a15b7a472Ce7B48fC9F32",
  "extraData": "0x476574682f76312e302e312d37666266393930632f6c696e75782f676f312e34",
  "transactions": [
    {
      "hash": "0xd26d3ee8812ef1962e3380916440ff7e3dd15a8b16b9d62949ecc3820a27aac4",
      "blockHash": "0x61f38408c1611f680c341dce02849b98d245fae2e4abaf17821447da84fc3d27",
      "blockNumber": 93100,
      "transactionIndex": 0,
      "confirmations": null,
      "from": "0xaC49eeb6a55aF554D86d37b4A4eA7940010866E1",
      "gasPrice": {
        "_hex": "0xd1f722cfd"
      },
      "gasLimit": {
        "_hex": "0x15f90"
      },
      "to": "0xc97b6E47df229442524F8f210926557900f81574",
      "value": {
        "_hex": "0x2017a67f731740000"
      },
      "nonce": 8,
      "data": "0x",
      "r": "0x821c85e4bd25ace6b112ab56f99f3159fd56bdd715920a0321912c2145563180",
      "s": "0x1398f27f745103bbc11482627db891638087611aea5beb460f76b0bceae8ab79",
      "v": 27,
      "creates": null,
      "raw": "0xf86e08850d1f722cfd83015f9094c97b6e47df229442524f8f210926557900f815748902017a67f731740000801ba0821c85e4bd25ace6b112ab56f99f3159fd56bdd715920a0321912c2145563180a01398f27f745103bbc11482627db891638087611aea5beb460f76b0bceae8ab79",
      "networkId": 0,
      "chainId": 0
    }
  ]
}