{
  "hash": "0xad770d7b868358aafd388326942523a3c6af1b5ab05d0427e25056c1b8d658aa",
  "parentHash": "0xbfdf2cc8548eaa7b449f284aa1566c81bb0b120fee8549cd1640a73d664b7d33",
  "number": 81334,
  "timestamp": 1439500055,
  "nonce": "0xac65539b8e3cbcbb",
  "difficulty": 2442652318881,
  "gasLimit": {
    "_hex": "0x2fefd8"
  },
  "gasUsed": {
    "_hex": "0xa410"
  },
  "miner": "0xe6A7a1d47ff21B6321162AEA7C6CB457D5476Bca",
  "extraData": "0x476574682f76312e302e312d38326566323666362f6c696e75782f676f312e34",
  "transactions": [
    {
      "hash": "0x980d76c955e2ad5e1e51056ca7f72582cda0cd55a8b7a966d2c424dd3222e75a",
      "blockHash": "0xad770d7b868358aafd388326942523a3c6af1b5ab05d0427e25056c1b8d658aa",
      "blockNumber": 81334,
      "transactionIndex": 0,
      "confirmations": null,
      "from": "0xa914cDb571BFd93D64da66a4e108EA134e50D000",
      "gasPrice": {
        "_hex": "0x9184e72a000"
      },
      "gasLimit": {
        "_hex": "0x55f0"
      },
      "to": "0xCb88dAC50e0b4f450f3a5d02c2D65Bc56361313E",
      "value": {
        "_hex": "0x16345785d8a0000"
      },
      "nonce": 18,
      "data": "0x",
      "r": "0x51c9bb311a96482090d6c313fa6d7d137f0b9d1e0d74468249fa973f3cb50b78",
      "s": "0x31d34e4ebfdf0977b1b72197aa303f44140b883576008b077f73e8df60958fb4",
      "v": 27,
      "creates": null,
      "raw": "0xf86d128609184e72a0008255f094cb88dac50e0b4f450f3a5d02c2d65bc56361313e88016345785d8a0000801ba051c9bb311a96482090d6c313fa6d7d137f0b9d1e0d74468249fa973f3cb50b78a031d34e4ebfdf0977b1b72197aa303f44140b883576008b077f73e8df60958fb4",
      "networkId": 0,
      "chainId": 0
    },
    {
      "hash": "0x1fd6d87738b3e3328ee84e1a35343e930d75e58e5ab626356f9a23602b94c27a",
      "blockHash": "0xad770d7b868358aafd388326942523a3c6af1b5ab05d0427e25056c1b8d658aa",
      "blockNumber": 81334,
      "transactionIndex": 1,
      "confirmations": null,
      "from": "0xb5425D52895036F7033B9f276A8429905C3cf042",
      "gasPrice": {
        "_hex": "0x10aa12e9dc6"
      },
      "gasLimit": {
        "_hex": "0x15f90"
      },
      "to": "0xef134b5A9c77789C2a2F9dFF0439ccc5E3050e18",
      "value": {
        "_hex": "0xf4240"
      },
      "nonce": 2,
      "data": "0x",
      "r": "0xadfe25fcce4486ba299fbe8f8c3bbe689bdd30d020c504eb112901ec569302bc",
      "s": "0x61f5ce4e6919659f7c79dad16e5bbe95a4ec775bc56311b6df17c7d35f82b00b",
      "v": 28,
      "creates": null,
      "raw": "0xf8690286010aa12e9dc683015f9094ef134b5a9c77789c2a2f9dff0439ccc5e3050e18830f4240801ca0adfe25fcce4486ba299fbe8f8c3bbe689bdd30d020c504eb112901ec569302bca061f5ce4e6919659f7c79dad16e5bbe95a4ec775bc56311b6df17c7d35f82b00b",
      "networkId": 0,
      "chainId": 0
    }
  ]
}