{
  "hash": "0xa969ea20c4cc884df214361b687ecfd785cb20aeffdb1aa59fb82cf5bf13de25",
  "parentHash": "0xd9a083e3801e37c7f9bcc19b7cceee60a5cd6f7c4a68c9911fbea73f4c877403",
  "number": 110442,
  "timestamp": 1439973914,
  "nonce": "0xda6d18c627bc6a33",
  "difficulty": 4369180680640,
  "gasLimit": {
    "_hex": "0x2fefd8"
  },
  "gasUsed": {
    "_hex": "0x19a28"
  },
  "miner": "0xe6A7a1d47ff21B6321162AEA7C6CB457D5476Bca",
  "extraData": "0x476574682f76312e302e312d38326566323666362f6c696e75782f676f312e34",
  "transactions": [
    {
      "hash": "0x3b80f872f2e9c77e595db5362fba4bdc8b986b293a3b1b18020dee56df23ed12",
      "blockHash": "0xa969ea20c4cc884df214361b687ecfd785cb20aeffdb1aa59fb82cf5bf13de25",
      "blockNumber": 110442,
      "transactionIndex": 0,
      "confirmations": null,
      "from": "0xC47Aaa860008be6f65B58c6C6E02a84e666EfE31",
      "gasPrice": {
        "_hex": "0xddc054eb6"
      },
      "gasLimit": {
        "_hex": "0x15f90"
      },
      "to": "0x3668a45E28EDD089fcBe31209de076cef5F06501",
      "value": {
        "_hex": "0x1b1ae149644a89dc5f"
      },
      "nonce": 98,
      "data": "0x",
      "r": "0x5099b8a68b3e39fe26fae8b8c05a2ce7dbdf1032f3f871954d9e3f3d4034ab98",
      "s": "0x702ffec4bd035e95d628cbfeaf0a2aaf9a1597a6557fbc98178f003ef85f5f0e",
      "v": 27,
      "creates": null,
      "raw": "0xf86e62850ddc054eb683015f90943668a45e28edd089fcbe31209de076cef5f06501891b1ae149644a89dc5f801ba05099b8a68b3e39fe26fae8b8c05a2ce7dbdf1032f3f871954d9e3f3d4034ab98a0702ffec4bd035e95d628cbfeaf0a2aaf9a1597a6557fbc98178f003ef85f5f0e",
      "networkId": 0,
      "chainId": 0
    },
    {
      "hash": "0x02276113a2e140cba54fe40251ee20e98303c619736cd24ab54e6c7664102122",
      "blockHash": "0xa969ea20c4cc884df214361b687ecfd785cb20aeffdb1aa59fb82cf5bf13de25",
      "blockNumber": 110442,
      "transactionIndex": 1,
      "confirmations": null,
      "from": "0x090d50347263c6E24312c2A4f42C456f4AcC40Ca",
      "gasPrice": {
        "_hex": "0xd27a794e8"
      },
      "gasLimit": {
        "_hex": "0x5208"
      },
      "to": "0x32Be343B94f860124dC4fEe278FDCBD38C102D88",
      "value": {
        "_hex": "0x24b205c884d43400"
      },
      "nonce": 6,
      "data": "0x",
      "r": "0x9a32d89036c5c908349227cceceadd0c83daaeee628bbbfaf8a96dd684562f15",
      "s": "0x20b504b456cfa599c8c1381ce8668751d4ebd856ff1423e5bdd72aac60fbf77f",
      "v": 27,
      "creates": null,
      "raw": "0xf86c06850d27a794e88252089432be343b94f860124dc4fee278fdcbd38c102d888824b205c884d43400801ba09a32d89036c5c908349227cceceadd0c83daaeee628bbbfaf8a96dd684562f15a020b504b456cfa599c8c1381ce8668751d4ebd856ff1423e5bdd72aac60fbf77f",
      "networkId": 0,
      "chainId": 0
    },
    {
      "hash": "0xacb664a6a55a93e864ec3aee406ec96de7ab8e7573b6b7e5d3eb2543c8ba604a",
      "blockHash": "0xa969ea20c4cc884df214361b687ecfd785cb20aeffdb1aa59fb82cf5bf13de25",
      "blockNumber": 110442,
      "transactionIndex": 2,
      "confirmations": null,
      "from": "0xC711d87af18Db9a7EbE2CFB279b73c8785E55d41",
      "gasPrice": {
        "_hex": "0xd27a794e8"
      },
      "gasLimit": {
        "_hex": "0x5208"
      },
      "to": "0x32Be343B94f860124dC4fEe278FDCBD38C102D88",
      "value": {
        "_hex": "0x4294f65577dc4c00"
      },
      "nonce": 6,
      "data": "0x",
      "r": "0x99210ddf66d5704bd0a908262c0d54cc4a6e54bf974d2fdb4aeea1bb5c759e43",
      "s": "0x4b799acf9e61993ef9a7d2c80f494561cd521fef01522ffef0b7229bf02c306c",
      "v": 27,
      "creates": null,
      "raw": "0xf86c06850d27a794e88252089432be343b94f860124dc4fee278fdcbd38c102d88884294f65577dc4c00801ba099210ddf66d5704bd0a908262c0d54cc4a6e54bf974d2fdb4aeea1bb5c759e43a04b799acf9e61993ef9a7d2c80f494561cd521fef01522ffef0b7229bf02c306c",
      "networkId": 0,
      "chainId": 0
    },
    {
      "hash": "0xad7842bf8e4624c2f50f1c6e977c7493e2c3a8eacd2caa8e0bc1e710463fda3b",
      "blockHash": "0xa969ea20c4cc884df214361b687ecfd785cb20aeffdb1aa59fb82cf5bf13de25",
      "blockNumber": 110442,
      "transactionIndex": 3,
      "confirmations": null,
      "from": "0x463eADDDA71F29F36365F889EA7E6fcDBe1cF0c8",
      "gasPrice": {
        "_hex": "0xd27a794e8"
      },
      "gasLimit": {
        "_hex": "0x5208"
      },
      "to": "0x32Be343B94f860124dC4fEe278FDCBD38C102D88",
      "value": {
        "_hex": "0x3a0ab2c3af84a8000"
      },
      "nonce": 6,
      "data": "0x",
      "r": "0xc3a75cded288c23ada4ad6ac6d02ade7f84c65e8a634845269657f30eb52411d",
      "s": "0x2d3fa7d04c6c2b8aed13545344d4ccd959e6a947b4afb5c8b095c39dafc1f986",
      "v": 27,
      "creates": null,
      "raw": "0xf86d06850d27a794e88252089432be343b94f860124dc4fee278fdcbd38c102d888903a0ab2c3af84a8000801ba0c3a75cded288c23ada4ad6ac6d02ade7f84c65e8a634845269657f30eb52411da02d3fa7d04c6c2b8aed13545344d4ccd959e6a947b4afb5c8b095c39dafc1f986",
      "networkId": 0,
      "chainId": 0
    },
    {
      "hash": "0xfd2d7f0312297da339819b09e9f25cc50131e2b908132e88667656a9e4248709",
      "blockHash": "0xa969ea20c4cc884df214361b687ecfd785cb20aeffdb1aa59fb82cf5bf13de25",
      "blockNumber": 110442,
      "transactionIndex": 4,
      "confirmations": null,
      "from": "0xf97e4688e66CD658F9666d93FD97f779b80218a0",
      "gasPrice": {
        "_hex": "0xd27a794e8"
      },
      "gasLimit": {
        "_hex": "0x5208"
      },
      "to": "0x32Be343B94f860124dC4fEe278FDCBD38C102D88",
      "value": {
        "_hex": "0x1da9ddb0e598f400"
      },
      "nonce": 6,
      "data": "0x",
      "r": "0xcff3de38b8395720a652d6ffb5a94e2d980c0ff7711f3eb0a450d2abd29e7eeb",
      "s": "0x52f7ec2d5badc462dbeda5113287731355e10a40fc715f709827dde66e71bda7",
      "v": 28,
      "creates": null,
      "raw": "0xf86c06850d27a794e88252089432be343b94f860124dc4fee278fdcbd38c102d88881da9ddb0e598f400801ca0cff3de38b8395720a652d6ffb5a94e2d980c0ff7711f3eb0a450d2abd29e7eeba052f7ec2d5badc462dbeda5113287731355e10a40fc715f709827dde66e71bda7",
      "networkId": 0,
      "chainId": 0
    }
  ]
}