{
  "hash": "0x29486e0ac7645d7ba8529de3176fb3fadc0f615525aece2b63c77c8e28eb0558",
  "parentHash": "0x1d0423a19a2c0265dd3c9248fbe6d2aec13e4ea523de91922728fd31858486e7",
  "number": 74497,
  "timestamp": 1439386996,
  "nonce": "0x14e9be56b78de942",
  "difficulty": 2211789319424,
  "gasLimit": {
    "_hex": "0x2fefd8"
  },
  "gasUsed": {
    "_hex": "0x5208"
  },
  "miner": "0xf8E0CA3Ed80bd541b94BEdCf259e8CF2141A9523",
  "extraData": "0x476574682f76312e302e312f77696e646f77732f676f312e342e32",
  "transactions": [
    {
      "hash": "0x3c03294a59b37f303af89e7cd1f9394b2dc40eb526bdcd463a4eb8af4016f80f",
      "blockHash": "0x29486e0ac7645d7ba8529de3176fb3fadc0f615525aece2b63c77c8e28eb0558",
      "blockNumber": 74497,
      "transactionIndex": 0,
      "confirmations": null,
      "from": "0x2910543Af39abA0Cd09dBb2D50200b3E800A63D2",
      "gasPrice": {
        "_hex": "0xd236e9151"
      },
      "gasLimit": {
        "_hex": "0x5208"
      },
      "to": "0x7a920A071444d6A34440D02D09211Eeca0303D8E",
      "value": {
        "_hex": "0x1ee0c9b6213e8000"
      },
      "nonce": 303,
      "data": "0x",
      "r": "0xd8060d8b24491dc88325efaff1b759a142593fe8b8eb9c43c6b2a63104a900f1",
      "s": "0x7f4476ef421dca53fcdea5eb26926be053f2789f5346018a4452d3de0f42356e",
      "v": 27,
      "creates": null,
      "raw": "0xf86e82012f850d236e9151825208947a920a071444d6a34440d02d09211eeca0303d8e881ee0c9b6213e8000801ba0d8060d8b24491dc88325efaff1b759a142593fe8b8eb9c43c6b2a63104a900f1a07f4476ef421dca53fcdea5eb26926be053f2789f5346018a4452d3de0f42356e",
      "networkId": 0,
      "chainId": 0
    }
  ]
}