{
  "hash": "0x8926eef9c6559cace80dfb4dc97d95389765362f55cb5e63f82432159a3351f1",
  "parentHash": "0xa0628a39a5eda4510e451c9e43ed817c92781ef66290c8fd57a40558d2e79927",
  "number": 52647,
  "timestamp": 1439025125,
  "nonce": "0x4f4e5d924669697c",
  "difficulty": 1564824563926,
  "gasLimit": {
    "_hex": "0x16e5db"
  },
  "gasUsed": {
    "_hex": "0x546c"
  },
  "miner": "0xe2c324Df4bFa311cf2055DD11476a1eC8aD9B725",
  "extraData": "0x476574682f76312e302e302f6c696e75782f676f312e342e32",
  "transactions": [
    {
      "hash": "0xdb5e0375c8c49e8601349246fc4384a3e5bee5973586273823333632e9fad5fc",
      "blockHash": "0x8926eef9c6559cace80dfb4dc97d95389765362f55cb5e63f82432159a3351f1",
      "blockNumber": 52647,
      "transactionIndex": 0,
      "confirmations": null,
      "from": "0x6EEfDC850E87B715c72791773c0316C3559b58a4",
      "gasPrice": {
        "_hex": "0x110c8f7d8de"
      },
      "gasLimit": {
        "_hex": "0xc350"
      },
      "to": "0x2910543Af39abA0Cd09dBb2D50200b3E800A63D2",
      "value": {
        "_hex": "0x2b5e3af16b1880000"
      },
      "nonce": 0,
      "data": "0x454e30584a35425852",
      "r": "0x1fe85852f8d7216a5e643a50ee5d3a17eac03f25048b3de4bbcc34bf60731984",
      "s": "0x769570575ade3cc9f62cd2fd122ab6ce2b3483776348ceef1741dfe2bc1e35dd",
      "v": 27,
      "creates": null,
      "raw": "0xf87780860110c8f7d8de82c350942910543af39aba0cd09dbb2d50200b3e800a63d28902b5e3af16b188000089454e30584a354258521ba01fe85852f8d7216a5e643a50ee5d3a17eac03f25048b3de4bbcc34bf60731984a0769570575ade3cc9f62cd2fd122ab6ce2b3483776348ceef1741dfe2bc1e35dd",
      "networkId": 0,
      "chainId": 0
    }
  ]
}