{
  "hash": "0x5fa061ee24f2ffcfc3b886d8bbdbbe202472f209512dae0a5a622966db7439a0",
  "parentHash": "0xc2acd391a928fdf5b2e0502945905ced79748c85c80bf559df41d95a982abf83",
  "number": 96098,
  "timestamp": 1439734920,
  "nonce": "0x6f66b9b292db24ba",
  "difficulty": 3631922019955,
  "gasLimit": {
    "_hex": "0x2fefd8"
  },
  "gasUsed": {
    "_hex": "0x5208"
  },
  "miner": "0x33e9C19860FE62371ABE3Ed6e64F7F03a0468344",
  "extraData": "0x476574682f76312e302e312d38326566323666362f6c696e75782f676f312e34",
  "transactions": [
    {
      "hash": "0x6c78582042db26429bfe1abb95ff694ae1bad94e34ccdae8c79722a58cfb8e80",
      "blockHash": "0x5fa061ee24f2ffcfc3b886d8bbdbbe202472f209512dae0a5a622966db7439a0",
      "blockNumber": 96098,
      "transactionIndex": 0,
      "confirmations": null,
      "from": "0xEF247E639d49461D25F57e9362CadE3120910Ce0",
      "gasPrice": {
        "_hex": "0xce5b65bbb"
      },
      "gasLimit": {
        "_hex": "0x15f90"
      },
      "to": "0xF87481A262E993a75F791E7859E71BaC36A606Eb",
      "value": {
        "_hex": "0x1158e460913d00000"
      },
      "nonce": 32,
      "data": "0x",
      "r": "0xa060ef9d2dc7aea8390c687d751a882eab4e92f938927ab3e4af677d09ea2dac",
      "s": "0x2672cb409a38da63e1b12d7f3225200e3b40f5820cb6033f490f630685ac90b9",
      "v": 28,
      "creates": null,
      "raw": "0xf86e20850ce5b65bbb83015f9094f87481a262e993a75f791e7859e71bac36a606eb8901158e460913d00000801ca0a060ef9d2dc7aea8390c687d751a882eab4e92f938927ab3e4af677d09ea2daca02672cb409a38da63e1b12d7f3225200e3b40f5820cb6033f490f630685ac90b9",
      "networkId": 0,
      "chainId": 0
    }
  ]
}