{
  "hash": "0x7550d3440a27254e249f7fe501e0d89315930dba6828774c9ec3def3b032b8e8",
  "parentHash": "0x3adef6f0631c0850c387cf0b00bacc9307856773b81dccdc50c8d6aed2ce40c5",
  "number": 55262,
  "timestamp": 1439067825,
  "nonce": "0xb5c0f0360dbb71e7",
  "difficulty": 1637011208748,
  "gasLimit": {
    "_hex": "0x2fefd8"
  },
  "gasUsed": {
    "_hex": "0xddfd"
  },
  "miner": "0xe997A23B159E2E2a5Ce72333262972374B15425c",
  "extraData": "0x",
  "transactions": [
    {
      "hash": "0xdb1f0737677478568e1d3a056e2f1b8d21df841b4e2fe5aba186d08159d46700",
      "blockHash": "0x7550d3440a27254e249f7fe501e0d89315930dba6828774c9ec3def3b032b8e8",
      "blockNumber": 55262,
      "transactionIndex": 0,
      "confirmations": null,
      "from": "0x0ae3F81a67725a8A7758FeB8684c6c17dA20755D",
      "gasPrice": {
        "_hex": "0xd1e7ab519"
      },
      "gasLimit": {
        "_hex": "0x1e8480"
      },
      "to": "0xA327075af2a223A1C83a36aDa1126afE7430f955",
      "value": {
        "_hex": "0x8ac7230489e80000"
      },
      "nonce": 121,
      "data": "0x",
      "r": "0x444c6a663f1c43cb8c2f7693269183a24fe47fcec49e71601cb1bc26223780cb",
      "s": "0x343099a1639c4a424160d9f4fa5018f368f9ae5740b6506e06d336029527a351",
      "v": 27,
      "creates": null,
      "raw": "0xf86d79850d1e7ab519831e848094a327075af2a223a1c83a36ada1126afe7430f955888ac7230489e80000801ba0444c6a663f1c43cb8c2f7693269183a24fe47fcec49e71601cb1bc26223780cba0343099a1639c4a424160d9f4fa5018f368f9ae5740b6506e06d336029527a351",
      "networkId": 0,
      "chainId": 0
    }
  ]
}