{
  "hash": "0x302dfc11ed7f4a68bc79fbb35f70cdf4d542c70e4e5389a0984f71c1d9a0fe58",
  "parentHash": "0xedcc1c06a919ec4d66dfc0c86424c204d46b9365d286e0098e8e2d9c6128ce97",
  "number": 65798,
  "timestamp": 1439243009,
  "nonce": "0x6a98d10212227f75",
  "difficulty": 1951062279014,
  "gasLimit": {
    "_hex": "0x2fefd8"
  },
  "gasUsed": {
    "_hex": "0xa410"
  },
  "miner": "0x47ff6576639c2e94762eA5443978D7681C0E78DC",
  "extraData": "0x476574682f76312e302e312f6c696e75782f676f312e342e32",
  "transactions": [
    {
      "hash": "0x25bd5176a663f095d2b9388f9a96cfe58bb4a59d38c9327a95267f34992d2cdd",
      "blockHash": "0x302dfc11ed7f4a68bc79fbb35f70cdf4d542c70e4e5389a0984f71c1d9a0fe58",
      "blockNumber": 65798,
      "transactionIndex": 0,
      "confirmations": null,
      "from": "0x979F30158b574B999aAb348107B9eEd85B1fF8C1",
      "gasPrice": {
        "_hex": "0x10cd8cfb5f4"
      },
      "gasLimit": {
        "_hex": "0x15f90"
      },
      "to": "0x8F586E3212291c58DCc78980a9c3432a3aFd3b6E",
      "value": {
        "_hex": "0x2083e5aa1f974c0000"
      },
      "nonce": 1,
      "data": "0x",
      "r": "0x0ef52c09c2667d5ded39fe5351ef16aff511235e9d195a3db4de2a47d0cacfe5",
      "s": "0x5869091feb2decd77cdb8d16f387a2463b1268f90989a2044e5d9f42cb092a6d",
      "v": 28,
      "creates": null,
      "raw": "0xf86f0186010cd8cfb5f483015f90948f586e3212291c58dcc78980a9c3432a3afd3b6e892083e5aa1f974c0000801ca00ef52c09c2667d5ded39fe5351ef16aff511235e9d195a3db4de2a47d0cacfe5a05869091feb2decd77cdb8d16f387a2463b1268f90989a2044e5d9f42cb092a6d",
      "networkId": 0,
      "chainId": 0
    },
    {
      "hash": "0x9373e4dbefec614deecfb77036b3f4ac7f43a6c155736a0eed6809c2194d40c3",
      "blockHash": "0x302dfc11ed7f4a68bc79fbb35f70cdf4d542c70e4e5389a0984f71c1d9a0fe58",
      "blockNumber": 65798,
      "transactionIndex": 1,
      "confirmations": null,
      "from": "0xd767b087480fEa2168C99Bd35e6cB7bAfBb4a11b",
      "gasPrice": {
        "_hex": "0xd0a7f1123"
      },
      "gasLimit": {
        "_hex": "0x5208"
      },
      "to": "0x32Be343B94f860124dC4fEe278FDCBD38C102D88",
      "value": {
        "_hex": "0x3f649c5152d12e0000"
      },
      "nonce": 1,
      "data": "0x",
      "r": "0x1e3e729ee9328e8a5371e392b884809dfe0f3b5d302d038e7bfdc5495632a17c",
      "s": "0x60323c766c9e0ef8a0f7ed00a7aafbea19a31acab0487fef609237650f02e92f",
      "v": 27,
      "creates": null,
      "raw": "0xf86d01850d0a7f11238252089432be343b94f860124dc4fee278fdcbd38c102d88893f649c5152d12e0000801ba01e3e729ee9328e8a5371e392b884809dfe0f3b5d302d038e7bfdc5495632a17ca060323c766c9e0ef8a0f7ed00a7aafbea19a31acab0487fef609237650f02e92f",
      "networkId": 0,
      "chainId": 0
    }
  ]
}