{
  "hash": "0xdb649e1afa2cee30e867459e5a8302c886e19ef938485d48b0b9a5a22e749f23",
  "parentHash": "0xff45be09376753eec5817001a85479f1a873e08b817d1cc313ec0278a22a504f",
  "number": 65280,
  "timestamp": 1439234312,
  "nonce": "0x9254d8f5983415bc",
  "difficulty": 1939783478208,
  "gasLimit": {
    "_hex": "0x2fefd8"
  },
  "gasUsed": {
    "_hex": "0x17cd8"
  },
  "miner": "0x0Cb6EEF179Ba9E7036f95bEEB01e250ab85A8c88",
  "extraData": "0x476574682f76312e302e312f77696e646f77732f676f312e342e32",
  "transactions": [
    {
      "hash": "0x1f5fad0eb2e4c3d0abbf382455b2d7a68867c71f9e341ac6b6f2470e338d9b2c",
      "blockHash": "0xdb649e1afa2cee30e867459e5a8302c886e19ef938485d48b0b9a5a22e749f23",
      "blockNumber": 65280,
      "transactionIndex": 0,
      "confirmations": null,
      "from": "0x92e2B0950E63C72dAb3596363Ecf19e62D480c51",
      "gasPrice": {
        "_hex": "0xba43b7400"
      },
      "gasLimit": {
        "_hex": "0x15f90"
      },
      "to": "0x793AE8C1b1a160BFc07BFB0d04F85eab1A71F4f2",
      "value": {
        "_hex": "0x0"
      },
      "nonce": 0,
      "data": "0x3ba15036",
      "r": "0x3cefb122e5b7965cd62c4d4cd1650611f908a1425139a5820af77ff3450ed86b",
      "s": "0x3822ce095f53586882034ac8b81b72e51cd35c39a405848b493b1c59a3b7068c",
      "v": 28,
      "creates": null,
      "raw": "0xf86980850ba43b740083015f9094793ae8c1b1a160bfc07bfb0d04f85eab1a71f4f280843ba150361ca03cefb122e5b7965cd62c4d4cd1650611f908a1425139a5820af77ff3450ed86ba03822ce095f53586882034ac8b81b72e51cd35c39a405848b493b1c59a3b7068c",
      "networkId": 0,
      "chainId": 0
    },
    {
      "hash": "0xaba1bf35b0474bf2c840bb37532c8ae80c867cd1939d7da90b8b751a8bf657e2",
      "blockHash": "0xdb649e1afa2cee30e867459e5a8302c886e19ef938485d48b0b9a5a22e749f23",
      "blockNumber": 65280,
      "transactionIndex": 1,
      "confirmations": null,
      "from": "0xA1425E10b49c733E4cf4101f5b248E7BE6Bc660E",
      "gasPrice": {
        "_hex": "0xba43b7400"
      },
      "gasLimit": {
        "_hex": "0x15f90"
      },
      "to": "0x793AE8C1b1a160BFc07BFB0d04F85eab1A71F4f2",
      "value": {
        "_hex": "0x0"
      },
      "nonce": 0,
      "data": "0x3ba15036",
      "r": "0x5d2e18ee27e148baa524ffc1cda67fa882be11d206a2e4571427f63dd8730258",
      "s": "0x526074df699af7a5a830d8097f156cc3f67b3cf9a19b4f84a628e6ca6f29c0a3",
      "v": 27,
      "creates": null,
      "raw": "0xf86980850ba43b740083015f9094793ae8c1b1a160bfc07bfb0d04f85eab1a71f4f280843ba150361ba05d2e18ee27e148baa524ffc1cda67fa882be11d206a2e4571427f63dd8730258a0526074df699af7a5a830d8097f156cc3f67b3cf9a19b4f84a628e6ca6f29c0a3",
      "networkId": 0,
      "chainId": 0
    }
  ]
}