{
  "hash": "0x2516a34c20e7dfb4b010501f2c15bf4f0785a7356521974dfbf0bfd4396624b0",
  "parentHash": "0x16734a8fa20af600381753899aa89229c9ae54655751036dce1a7e4f3c5d7608",
  "number": 54566,
  "timestamp": 1439056219,
  "nonce": "0xe9269cbe875580b3",
  "difficulty": 1622821095921,
  "gasLimit": {
    "_hex": "0x2fefd8"
  },
  "gasUsed": {
    "_hex": "0x546c"
  },
  "miner": "0xbb7B8287f3F0a933474a79eAe42CBCa977791171",
  "extraData": "0x476574682f4c5649562f76312e302e312f6c696e75782f676f312e342e32",
  "transactions": [
    {
      "hash": "0x3337778b365ffa2dfe732fa8b8b90e7dba24b406da584dfc1a716c34e9616587",
      "blockHash": "0x2516a34c20e7dfb4b010501f2c15bf4f0785a7356521974dfbf0bfd4396624b0",
      "blockNumber": 54566,
      "transactionIndex": 0,
      "confirmations": null,
      "from": "0xe49936A92a8CcF710eaAc342Bc454B9b14EbECb1",
      "gasPrice": {
        "_hex": "0x110c8f7d8de"
      },
      "gasLimit": {
        "_hex": "0xc350"
      },
      "to": "0x2910543Af39abA0Cd09dBb2D50200b3E800A63D2",
      "value": {
        "_hex": "0x3635c9adc5dea00000"
      },
      "nonce": 0,
      "data": "0x454e45484638354e38",
      "r": "0x674677e33d43fb65f1eaac99a1b60d86f67534771543b307d24aea2a1fe241a1",
      "s": "0x484b77f5adbd447bb57be88dd77f32868aab4adcfe8240944839a0cac2c8037d",
      "v": 28,
      "creates": null,
      "raw": "0xf87780860110c8f7d8de82c350942910543af39aba0cd09dbb2d50200b3e800a63d2893635c9adc5dea0000089454e45484638354e381ca0674677e33d43fb65f1eaac99a1b60d86f67534771543b307d24aea2a1fe241a1a0484b77f5adbd447bb57be88dd77f32868aab4adcfe8240944839a0cac2c8037d",
      "networkId": 0,
      "chainId": 0
    }
  ]
}