{
  "hash": "0x3e1294245192fee002547eb998b614ae3032282c39b458cca2bfae1497f4c1e3",
  "parentHash": "0xc3dadd41a70901ea05c0cf543646f1e41fb19b0383dd6817b81350099122c051",
  "number": 94675,
  "timestamp": 1439712181,
  "nonce": "0x27ca3625ce1eb9cf",
  "difficulty": 3491672475244,
  "gasLimit": {
    "_hex": "0x2fefd8"
  },
  "gasUsed": {
    "_hex": "0xd7550"
  },
  "miner": "0x1327bD31578E52307b9A2A09122d2E6662d40513",
  "extraData": "0x476574682f76312e302e312d38326566323666362f6c696e75782f676f312e34",
  "transactions": [
    {
      "hash": "0x45e927c63330b8793d9e5da7f24a7ae9d5efc78113e26460f0b21bbac8c2680a",
      "blockHash": "0x3e1294245192fee002547eb998b614ae3032282c39b458cca2bfae1497f4c1e3",
      "blockNumber": 94675,
      "transactionIndex": 0,
      "confirmations": null,
      "from": "0x1333a55102f1f4B3df95298b6CE863eF8d5BAf45",
      "gasPrice": {
        "_hex": "0xdc41af85d"
      },
      "gasLimit": {
        "_hex": "0x5208"
      },
      "to": "0x32Be343B94f860124dC4fEe278FDCBD38C102D88",
      "value": {
        "_hex": "0x2ac0ada77d9cf000"
      },
      "nonce": 9,
      "data": "0x",
      "r": "0x437ea49b2b370b0a1aa5566035c5421096aa9eddc1166be876a278517180d9f0",
      "s": "0x29e98847f709b6620e7cb90b5865528e0d4ef27e569bc976418b4aada9eb2491",
      "v": 28,
      "creates": null,
      "raw": "0xf86c09850dc41af85d8252089432be343b94f860124dc4fee278fdcbd38c102d88882ac0ada77d9cf000801ca0437ea49b2b370b0a1aa5566035c5421096aa9eddc1166be876a278517180d9f0a029e98847f709b6620e7cb90b5865528e0d4ef27e569bc976418b4aada9eb2491",
      "networkId": 0,
      "chainId": 0
    },
    {
      "hash": "0xdaec8bb4f3a31aaf37573b65a6acb5d30023badd13fa72edf4ecb3a8f2a76c8e",
      "blockHash": "0x3e1294245192fee002547eb998b614ae3032282c39b458cca2bfae1497f4c1e3",
      "blockNumber": 94675,
      "transactionIndex": 1,
      "confirmations": null,
      "from": "0x27e806e70622d2864e1B1f4426D72FFb0457C83a",
      "gasPrice": {
        "_hex": "0xdc41af85d"
      },
      "gasLimit": {
        "_hex": "0x5208"
      },
      "to": "0x32Be343B94f860124dC4fEe278FDCBD38C102D88",
      "value": {
        "_hex": "0xeddfbb652c04d000"
      },
      "nonce": 14,
      "data": "0x",
      "r": "0x81045e33bcfe7177d32b6fb434631e9048d3d5c17efd2a2e46181f8474509230",
      "s": "0x67fa21a8fdcf799dc57d52e0edb56f9c8e997616e46101f2f609d4df8962e84e",
      "v": 27,
      "creates": null,
      "raw": "0xf86c0e850dc41af85d8252089432be343b94f860124dc4fee278fdcbd38c102d8888eddfbb652c04d000801ba081045e33bcfe7177d32b6fb434631e9048d3d5c17efd2a2e46181f8474509230a067fa21a8fdcf799dc57d52e0edb56f9c8e997616e46101f2f609d4df8962e84e",
      "networkId": 0,
      "chainId": 0
    },
    {
      "hash": "0x003451e4c83b9763c0ddd6e16f87989196acc44a7ee8a230d4cc814b587a0c77",
      "blockHash": "0x3e1294245192fee002547eb998b614ae3032282c39b458cca2bfae1497f4c1e3",
      "blockNumber": 94675,
      "transactionIndex": 2,
      "confirmations": null,
      "from": "0xe72717ae0d6792286968449ABA7d469BCAE1d957",
      "gasPrice": {
        "_hex": "0xdc41af85d"
      },
      "gasLimit": {
        "_hex": "0x5208"
      },
      "to": "0x32Be343B94f860124dC4fEe278FDCBD38C102D88",
      "value": {
        "_hex": "0x62334110d059a800"
      },
      "nonce": 5,
      "data": "0x",
      "r": "0x13562abf419e0ac27f950d962f57a9a44e195cab84619695ba7f54a7ecb0bc80",
      "s": "0x336f102ee697b77eabe46f4c41779f709fa7945f06acfa3e72d5c82b90aca21d",
      "v": 27,
      "creates": null,
      "raw": "0xf86c05850dc41af85d8252089432be343b94f860124dc4fee278fdcbd38c102d888862334110d059a800801ba013562abf419e0ac27f950d962f57a9a44e195cab84619695ba7f54a7ecb0bc80a0336f102ee697b77eabe46f4c41779f709fa7945f06acfa3e72d5c82b90aca21d",
      "networkId": 0,
      "chainId": 0
    },
    {
      "hash": "0x88f30cbc84c35e14d7ddbdd17915eba44fb3a8bcfc8255e7824a381d031286fd",
      "blockHash": "0x3e1294245192fee002547eb998b614ae3032282c39b458cca2bfae1497f4c1e3",
      "blockNumber": 94675,
      "transactionIndex": 3,
      "confirmations": null,
      "from": "0x519DC97eF09491aE962A8F13fe144c71feca4662",
      "gasPrice": {
        "_hex": "0xdc41af85d"
      },
      "gasLimit": {
        "_hex": "0x5208"
      },
      "to": "0x32Be343B94f860124dC4fEe278FDCBD38C102D88",
      "value": {
        "_hex": "0x38664fd2ac3f3000"
      },
      "nonce": 8,
      "data": "0x",
      "r": "0x742d7e111d0eea358e71e19e10ba3137e60048aa1c2c86e9e4663b50e9ea16a9",
      "s": "0x7a03e74323410d715a4a1fb90092bf7825adc973a57b992b1f2ada0da278f36a",
      "v": 28,
      "creates": null,
      "raw": "0xf86c08850dc41af85d8252089432be343b94f860124dc4fee278fdcbd38c102d888838664fd2ac3f3000801ca0742d7e111d0eea358e71e19e10ba3137e60048aa1c2c86e9e4663b50e9ea16a9a07a03e74323410d715a4a1fb90092bf7825adc973a57b992b1f2ada0da278f36a",
      "networkId": 0,
      "chainId": 0
    },
    {
      "hash": "0x04591adc22e2fde974a5aa995a418f06a6f28a6d8df155a2727f8469c397a143",
      "blockHash": "0x3e1294245192fee002547eb998b614ae3032282c39b458cca2bfae1497f4c1e3",
      "blockNumber": 94675,
      "transactionIndex": 4,
      "confirmations": null,
      "from": "0x9cF18B3eb373C383a42d06136ba331D766ed9Fbb",
      "gasPrice": {
        "_hex": "0xdc41af85d"
      },
      "gasLimit": {
        "_hex": "0x5208"
      },
      "to": "0x32Be343B94f860124dC4fEe278FDCBD38C102D88",
      "value": {
        "_hex": "0x19b21f53b90bcc000"
      },
      "nonce": 4,
      "data": "0x",
      "r": "0x1b3ccd4e1f3dbb567f1b5c02f65f23056392dd03a034850f3bea7d148610c88d",
      "s": "0x041a4bbcc2c400830785038fe78e05da12497b2a53e8193a508e2059c99a46a0",
      "v": 28,
      "creates": null,
      "raw": "0xf86d04850dc41af85d8252089432be343b94f860124dc4fee278fdcbd38c102d8889019b21f53b90bcc000801ca01b3ccd4e1f3dbb567f1b5c02f65f23056392dd03a034850f3bea7d148610c88da0041a4bbcc2c400830785038fe78e05da12497b2a53e8193a508e2059c99a46a0",
      "networkId": 0,
      "chainId": 0
    },
    {
      "hash": "0x6850471c329a0640e84621f5da7b7ee3fdfc8c699d6e706e5b89039af0a42a50",
      "blockHash": "0x3e1294245192fee002547eb998b614ae3032282c39b458cca2bfae1497f4c1e3",
      "blockNumber": 94675,
      "transactionIndex": 5,
      "confirmations": null,
      "from": "0xC15233674F0Cb7729e4Ab8aB733430C40580914d",
      "gasPrice": {
        "_hex": "0xdc41af85d"
      },
      "gasLimit": {
        "_hex": "0x5208"
      },
      "to": "0x32Be343B94f860124dC4fEe278FDCBD38C102D88",
      "value": {
        "_hex": "0x5d2098e8b3e4f400"
      },
      "nonce": 5,
      "data": "0x",
      "r": "0x217eaccf1b368bc3158ada44a44545e3c640f6aaa23bf95fdf8bffd2d605e121",
      "s": "0x1a4a331fb8ccbb7b0ac96c609026baa85ebca8a909d30ac4c425429a6c10c31c",
      "v": 27,
      "creates": null,
      "raw": "0xf86c05850dc41af85d8252089432be343b94f860124dc4fee278fdcbd38c102d88885d2098e8b3e4f400801ba0217eaccf1b368bc3158ada44a44545e3c640f6aaa23bf95fdf8bffd2d605e121a01a4a331fb8ccbb7b0ac96c609026baa85ebca8a909d30ac4c425429a6c10c31c",
      "networkId": 0,
      "chainId": 0
    },
    {
      "hash": "0x0454ca352df5b0d386bb18115c51fa8bbf4f7f2c90320ab526221b18010a12e4",
      "blockHash": "0x3e1294245192fee002547eb998b614ae3032282c39b458cca2bfae1497f4c1e3",
      "blockNumber": 94675,
      "transactionIndex": 6,
      "confirmations": null,
      "from": "0x771b12Bc207A1c4823e77075B17F8D329ACD77A3",
      "gasPrice": {
        "_hex": "0xdc41af85d"
      },
      "gasLimit": {
        "_hex": "0x5208"
      },
      "to": "0x32Be343B94f860124dC4fEe278FDCBD38C102D88",
      "value": {
        "_hex": "0x1334350e5915cc000"
      },
      "nonce": 6,
      "data": "0x",
      "r": "0x7d61827589751d94cbfb61aaaa881b4ba130ffed3dc6f9d29ba9ed58d8a8cacf",
      "s": "0x05a704ddc3d80b3d60c4d58ec718fa727dd2a61d02969523ab00b7ae95e25cee",
      "v": 27,
      "creates": null,
      "raw": "0xf86d06850dc41af85d8252089432be343b94f860124dc4fee278fdcbd38c102d888901334350e5915cc000801ba07d61827589751d94cbfb61aaaa881b4ba130ffed3dc6f9d29ba9ed58d8a8cacfa005a704ddc3d80b3d60c4d58ec718fa727dd2a61d02969523ab00b7ae95e25cee",
      "networkId": 0,
      "chainId": 0
    },
    {
      "hash": "0x0aa964f961089dc70172b1b53f144dc36f84ebc3a27f3fd2162245a9b8c4edc5",
      "blockHash": "0x3e1294245192fee002547eb998b614ae3032282c39b458cca2bfae1497f4c1e3",
      "blockNumber": 94675,
      "transactionIndex": 7,
      "confirmations": null,
      "from": "0x6111E933E5e6297DFd0AAd9aAB64017c69062a08",
      "gasPrice": {
        "_hex": "0xdc41af85d"
      },
      "gasLimit": {
        "_hex": "0x5208"
      },
      "to": "0x32Be343B94f860124dC4fEe278FDCBD38C102D88",
      "value": {
        "_hex": "0x91b32b3ff3902000"
      },
      "nonce": 14,
      "data": "0x",
      "r": "0x5b102d2d2881de2dc460a3e5e6366777e16d811dd7466a59ef03ace4409a858e",
      "s": "0x4d62958ce2a8c70d8039edf6637f14d93ca6eaf7e4e3e8dd2fa419113ac3012f",
      "v": 27,
      "creates": null,
      "raw": "0xf86c0e850dc41af85d8252089432be343b94f860124dc4fee278fdcbd38c102d888891b32b3ff3902000801ba05b102d2d2881de2dc460a3e5e6366777e16d811dd7466a59ef03ace4409a858ea04d62958ce2a8c70d8039edf6637f14d93ca6eaf7e4e3e8dd2fa419113ac3012f",
      "networkId": 0,
      "chainId": 0
    },
    {
      "hash": "0x77c2564faff77c55fb454c4801eb2e987b27347ab6375c52657f265ddcc2d51e",
      "blockHash": "0x3e1294245192fee002547eb998b614ae3032282c39b458cca2bfae1497f4c1e3",
      "blockNumber": 94675,
      "transactionIndex": 8,
      "confirmations": null,
      "from": "0x3175a28CF6105466923f11bFFabD279F162aa2f8",
      "gasPrice": {
        "_hex": "0xdc41af85d"
      },
      "gasLimit": {
        "_hex": "0x5208"
      },
      "to": "0x32Be343B94f860124dC4fEe278FDCBD38C102D88",
      "value": {
        "_hex": "0x8f81d7268d605800"
      },
      "nonce": 11,
      "data": "0x",
      "r": "0x32130862369e3de21abe11a312c1e67a21866e50e91dbf6758bc0102751ed4e9",
      "s": "0x073c8ce040720fdeaf24f801bbb6b852861b3405b6bc15f172ea8486371ffee5",
      "v": 27,
      "creates": null,
      "raw": "0xf86c0b850dc41af85d8252089432be343b94f860124dc4fee278fdcbd38c102d88888f81d7268d605800801ba032130862369e3de21abe11a312c1e67a21866e50e91dbf6758bc0102751ed4e9a0073c8ce040720fdeaf24f801bbb6b852861b3405b6bc15f172ea8486371ffee5",
      "networkId": 0,
      "chainId": 0
    },
    {
      "hash": "0x20db8cbf9ac47236266cf6cce3e1d2b5403d281e3d0541d7e2aa4b389f92f6af",
      "blockHash": "0x3e1294245192fee002547eb998b614ae3032282c39b458cca2bfae1497f4c1e3",
      "blockNumber": 94675,
      "transactionIndex": 9,
      "confirmations": null,
      "from": "0xe6A7a1d47ff21B6321162AEA7C6CB457D5476Bca",
      "gasPrice": {
        "_hex": "0xd2abc32ae"
      },
      "gasLimit": {
        "_hex": "0x55f0"
      },
      "to": "0x3222BA3F3e79eA0e31467EEE7639B57923558cCD",
      "value": {
        "_hex": "0x350651f623cda46e0"
      },
      "nonce": 2954,
      "data": "0x",
      "r": "0x993c7315062610a0453b3adb938312dd196347fa12c2e401a10956ab741e882c",
      "s": "0x5011b10a7e670b8ce3bfa65474f3b446f757ba4cf1db07c46d1e3397e550b6b3",
      "v": 28,
      "creates": null,
      "raw": "0xf86f820b8a850d2abc32ae8255f0943222ba3f3e79ea0e31467eee7639b57923558ccd890350651f623cda46e0801ca0993c7315062610a0453b3adb938312dd196347fa12c2e401a10956ab741e882ca05011b10a7e670b8ce3bfa65474f3b446f757ba4cf1db07c46d1e3397e550b6b3",
      "networkId": 0,
      "chainId": 0
    },
    {
      "hash": "0x5c5c982669113e3dc490534a102ae3e7042d252a57386431426cd31ae75fca19",
      "blockHash": "0x3e1294245192fee002547eb998b614ae3032282c39b458cca2bfae1497f4c1e3",
      "blockNumber": 94675,
      "transactionIndex": 10,
      "confirmations": null,
      "from": "0xe6A7a1d47ff21B6321162AEA7C6CB457D5476Bca",
      "gasPrice": {
        "_hex": "0xd2abc32ae"
      },
      "gasLimit": {
        "_hex": "0x55f0"
      },
      "to": "0x182c02d431a667bF08d1BB680306aB6feC4971e5",
      "value": {
        "_hex": "0x3600b7a95ab992490"
      },
      "nonce": 2955,
      "data": "0x",
      "r": "0xfe6cfdec854456079f376209356d90a9387bce9eb5778fa3775539bae5e75042",
      "s": "0x2a1f81b88545cd820f0e488ec3a5b175c1b8c751f97796d67c13b05d820bd221",
      "v": 27,
      "creates": null,
      "raw": "0xf86f820b8b850d2abc32ae8255f094182c02d431a667bf08d1bb680306ab6fec4971e58903600b7a95ab992490801ba0fe6cfdec854456079f376209356d90a9387bce9eb5778fa3775539bae5e75042a02a1f81b88545cd820f0e488ec3a5b175c1b8c751f97796d67c13b05d820bd221",
      "networkId": 0,
      "chainId": 0
    },
    {
      "hash": "0xd1fbed3aa0be4b16f61306dc743f87a322f4bd1921a33bd2687c46c8a934c0c7",
      "blockHash": "0x3e1294245192fee002547eb998b614ae3032282c39b458cca2bfae1497f4c1e3",
      "blockNumber": 94675,
      "transactionIndex": 11,
      "confirmations": null,
      "from": "0xe6A7a1d47ff21B6321162AEA7C6CB457D5476Bca",
      "gasPrice": {
        "_hex": "0xd2abc32ae"
      },
      "gasLimit": {
        "_hex": "0x55f0"
      },
      "to": "0x3629B45bBf972aDc23C064D31B7d7c6ce17415D5",
      "value": {
        "_hex": "0x361fc0ae969f8a2f0"
      },
      "nonce": 2956,
      "data": "0x",
      "r": "0x0261bf4dae37a2ca9e7cb8a63de953cb85770246c8847cd1d2f587cac1d8de2d",
      "s": "0x716392c376f5ee8589ade343fbc182563b42781347da3784128c70fa0c367321",
      "v": 28,
      "creates": null,
      "raw": "0xf86f820b8c850d2abc32ae8255f0943629b45bbf972adc23c064d31b7d7c6ce17415d5890361fc0ae969f8a2f0801ca00261bf4dae37a2ca9e7cb8a63de953cb85770246c8847cd1d2f587cac1d8de2da0716392c376f5ee8589ade343fbc182563b42781347da3784128c70fa0c367321",
      "networkId": 0,
      "chainId": 0
    },
    {
      "hash": "0x71bc6dd01aad9393996d771c19a6a26b7238bf65d0df993d8656b396c53980fb",
      "blockHash": "0x3e1294245192fee002547eb998b614ae3032282c39b458cca2bfae1497f4c1e3",
      "blockNumber": 94675,
      "transactionIndex": 12,
      "confirmations": null,
      "from": "0xe6A7a1d47ff21B6321162AEA7C6CB457D5476Bca",
      "gasPrice": {
        "_hex": "0xd2abc32ae"
      },
      "gasLimit": {
        "_hex": "0x55f0"
      },
      "to": "0x7001C4730b81A539eF8b760A3eEb14C64515137B",
      "value": {
        "_hex": "0x36f98cc4db9cf8ad0"
      },
      "nonce": 2957,
      "data": "0x",
      "r": "0xac083f3e83d1871ebbc0df32bc048b25fe365207f75c5f90c901b61da98e3fc6",
      "s": "0x56e3c2c8b5c794b474edaa7ab2730df08abe036f0071c5b3c60dbd1eb0781bd1",
      "v": 27,
      "creates": null,
      "raw": "0xf86f820b8d850d2abc32ae8255f0947001c4730b81a539ef8b760a3eeb14c64515137b89036f98cc4db9cf8ad0801ba0ac083f3e83d1871ebbc0df32bc048b25fe365207f75c5f90c901b61da98e3fc6a056e3c2c8b5c794b474edaa7ab2730df08abe036f0071c5b3c60dbd1eb0781bd1",
      "networkId": 0,
      "chainId": 0
    },
    {
      "hash": "0x6dbe0bc99ebaece8b3838d99dfa1762e8fc87afd0043baa092871230d396876c",
      "blockHash": "0x3e1294245192fee002547eb998b614ae3032282c39b458cca2bfae1497f4c1e3",
      "blockNumber": 94675,
      "transactionIndex": 13,
      "confirmations": null,
      "from": "0xe6A7a1d47ff21B6321162AEA7C6CB457D5476Bca",
      "gasPrice": {
        "_hex": "0xd2abc32ae"
      },
      "gasLimit": {
        "_hex": "0x55f0"
      },
      "to": "0x1543667B9bad3e41865C3233E1764d8dda8E1F3D",
      "value": {
        "_hex": "0x3714ec73a0098a0c0"
      },
      "nonce": 2958,
      "data": "0x",
      "r": "0x3f1b717e2b7628e86184e19ed758f05c7d444ba4ad551e239abfa58cd5d3fbf4",
      "s": "0x6dd5a001b1e06807f9b4c87c25bcaa5a7572d9060f442b74ce60af88a5e757c6",
      "v": 28,
      "creates": null,
      "raw": "0xf86f820b8e850d2abc32ae8255f0941543667b9bad3e41865c3233e1764d8dda8e1f3d8903714ec73a0098a0c0801ca03f1b717e2b7628e86184e19ed758f05c7d444ba4ad551e239abfa58cd5d3fbf4a06dd5a001b1e06807f9b4c87c25bcaa5a7572d9060f442b74ce60af88a5e757c6",
      "networkId": 0,
      "chainId": 0
    },
    {
      "hash": "0xc8bfb8a9acdd392f1987e8f7e8311f7d71bd0aef8fb1704e1d55ca8046525611",
      "blockHash": "0x3e1294245192fee002547eb998b614ae3032282c39b458cca2bfae1497f4c1e3",
      "blockNumber": 94675,
      "transactionIndex": 14,
      "confirmations": null,
      "from": "0xe6A7a1d47ff21B6321162AEA7C6CB457D5476Bca",
      "gasPrice": {
        "_hex": "0xd2abc32ae"
      },
      "gasLimit": {
        "_hex": "0x55f0"
      },
      "to": "0xBA7933704d52A3e7fdBb5B5deD29e45213EA1111",
      "value": {
        "_hex": "0x37e85aa90741c3430"
      },
      "nonce": 2959,
      "data": "0x",
      "r": "0xd423e3559de708c2bc13c47975fa560d770a3723a5af853bb4b4012158278872",
      "s": "0x787d000d3db6beab32b272cf9d7371986d733226e62d4816462fc2ecbabad505",
      "v": 27,
      "creates": null,
      "raw": "0xf86f820b8f850d2abc32ae8255f094ba7933704d52a3e7fdbb5b5ded29e45213ea111189037e85aa90741c3430801ba0d423e3559de708c2bc13c47975fa560d770a3723a5af853bb4b4012158278872a0787d000d3db6beab32b272cf9d7371986d733226e62d4816462fc2ecbabad505",
      "networkId": 0,
      "chainId": 0
    },
    {
      "hash": "0xf4faf7c4f95a79f32f4dfbe8c69a3ac5d681f313783e27c020c6ca6bd1c57ee9",
      "blockHash": "0x3e1294245192fee002547eb998b614ae3032282c39b458cca2bfae1497f4c1e3",
      "blockNumber": 94675,
      "transactionIndex": 15,
      "confirmations": null,
      "from": "0xe6A7a1d47ff21B6321162AEA7C6CB457D5476Bca",
      "gasPrice": {
        "_hex": "0xd2abc32ae"
      },
      "gasLimit": {
        "_hex": "0x55f0"
      },
      "to": "0x6d84df1cFAD609EAc476cBC2553390bFC23Cf6Fc",
      "value": {
        "_hex": "0x38aee334cec8a16d0"
      },
      "nonce": 2960,
      "data": "0x",
      "r": "0x080ab3c3761a761d3293ee3f0d2df86647e63307e387f3a0ab5d3cdcee413950",
      "s": "0x3d1113eae079543bc729d4cdaf816532357df92d7a392ba9dad9c5b4b97627dd",
      "v": 28,
      "creates": null,
      "raw": "0xf86f820b90850d2abc32ae8255f0946d84df1cfad609eac476cbc2553390bfc23cf6fc89038aee334cec8a16d0801ca0080ab3c3761a761d3293ee3f0d2df86647e63307e387f3a0ab5d3cdcee413950a03d1113eae079543bc729d4cdaf816532357df92d7a392ba9dad9c5b4b97627dd",
      "networkId": 0,
      "chainId": 0
    },
    {
      "hash": "0xf88332d86f49cdc1977bd5c14a72456c06e9c5868e64892d906814d7d3d4f3cf",
      "blockHash": "0x3e1294245192fee002547eb998b614ae3032282c39b458cca2bfae1497f4c1e3",
      "blockNumber": 94675,
      "transactionIndex": 16,
      "confirmations": null,
      "from": "0xe6A7a1d47ff21B6321162AEA7C6CB457D5476Bca",
      "gasPrice": {
        "_hex": "0xd2abc32ae"
      },
      "gasLimit": {
        "_hex": "0x55f0"
      },
      "to": "0x63738Ec4C9adec404749B5747F3bbE2147de632F",
      "value": {
        "_hex": "0x3cba995ad15d7ed00"
      },
      "nonce": 2961,
      "data": "0x",
      "r": "0xc65349b6fecce6568d66fdd8ed247fb4c310b33c09aa3578bff1e957a4170f5e",
      "s": "0x0fda814208e62941f5eb774974aaaf022f1b7e2476c8e9e5b517856e1383acf9",
      "v": 27,
      "creates": null,
      "raw": "0xf86f820b91850d2abc32ae8255f09463738ec4c9adec404749b5747f3bbe2147de632f8903cba995ad15d7ed00801ba0c65349b6fecce6568d66fdd8ed247fb4c310b33c09aa3578bff1e957a4170f5ea00fda814208e62941f5eb774974aaaf022f1b7e2476c8e9e5b517856e1383acf9",
      "networkId": 0,
      "chainId": 0
    },
    {
      "hash": "0x02baad6d5e2180a36fd6298ff30ce61f5975cd97bed62f3a46d54d8812962695",
      "blockHash": "0x3e1294245192fee002547eb998b614ae3032282c39b458cca2bfae1497f4c1e3",
      "blockNumber": 94675,
      "transactionIndex": 17,
      "confirmations": null,
      "from": "0xe6A7a1d47ff21B6321162AEA7C6CB457D5476Bca",
      "gasPrice": {
        "_hex": "0xd2abc32ae"
      },
      "gasLimit": {
        "_hex": "0x55f0"
      },
      "to": "0x3b01EBd2419f6d39DB6AB4471e6382848716641F",
      "value": {
        "_hex": "0x41197b75fa406b6d0"
      },
      "nonce": 2962,
      "data": "0x",
      "r": "0x23a460e5a24ddd975539d4911530473abd4912eb56855285a6b8f1247597cb50",
      "s": "0x65a47b0173f94994777433145e8e4bef8b88061729d55b2423ce3d3196a024d3",
      "v": 28,
      "creates": null,
      "raw": "0xf86f820b92850d2abc32ae8255f0943b01ebd2419f6d39db6ab4471e6382848716641f89041197b75fa406b6d0801ca023a460e5a24ddd975539d4911530473abd4912eb56855285a6b8f1247597cb50a065a47b0173f94994777433145e8e4bef8b88061729d55b2423ce3d3196a024d3",
      "networkId": 0,
      "chainId": 0
    },
    {
      "hash": "0xafb4baeab8952b82fd96b245e8f51f30834a9b8fb4bd25d8c541558f94cc7b03",
      "blockHash": "0x3e1294245192fee002547eb998b614ae3032282c39b458cca2bfae1497f4c1e3",
      "blockNumber": 94675,
      "transactionIndex": 18,
      "confirmations": null,
      "from": "0xe6A7a1d47ff21B6321162AEA7C6CB457D5476Bca",
      "gasPrice": {
        "_hex": "0xd2abc32ae"
      },
      "gasLimit": {
        "_hex": "0x55f0"
      },
      "to": "0x379965B927911bcF18D2d4F062Edf10c45847069",
      "value": {
        "_hex": "0x439817cf8fb0e85a0"
      },
      "nonce": 2963,
      "data": "0x",
      "r": "0xb9b5a7bfe4559b00d7d1f7376332d801d3c2024c774688602be722f518ea57ca",
      "s": "0x0b2e38270fc3e3118c625db651d0f79c98ab7f278d21de3f44ca1a7d7a1f35e4",
      "v": 28,
      "creates": null,
      "raw": "0xf86f820b93850d2abc32ae8255f094379965b927911bcf18d2d4f062edf10c45847069890439817cf8fb0e85a0801ca0b9b5a7bfe4559b00d7d1f7376332d801d3c2024c774688602be722f518ea57caa00b2e38270fc3e3118c625db651d0f79c98ab7f278d21de3f44ca1a7d7a1f35e4",
      "networkId": 0,
      "chainId": 0
    },
    {
      "hash": "0xd78206522a42475c98d1eec332290dbe661e9a3827b75ab9813928977f65c7cf",
      "blockHash": "0x3e1294245192fee002547eb998b614ae3032282c39b458cca2bfae1497f4c1e3",
      "blockNumber": 94675,
      "transactionIndex": 19,
      "confirmations": null,
      "from": "0xe6A7a1d47ff21B6321162AEA7C6CB457D5476Bca",
      "gasPrice": {
        "_hex": "0xd2abc32ae"
      },
      "gasLimit": {
        "_hex": "0x55f0"
      },
      "to": "0xB28fE7b9815982FF203F751ce550111D752d8795",
      "value": {
        "_hex": "0x44b01b3bf3eccffe0"
      },
      "nonce": 2964,
      "data": "0x",
      "r": "0x4169559e8ffb97ad297d15c2862bb6ceb700709a61027bfdb806780d03caf568",
      "s": "0x2c214173a80e2ed8c6f0109f20da179a191c6011393b73498b8c49475501c70e",
      "v": 27,
      "creates": null,
      "raw": "0xf86f820b94850d2abc32ae8255f094b28fe7b9815982ff203f751ce550111d752d879589044b01b3bf3eccffe0801ba04169559e8ffb97ad297d15c2862bb6ceb700709a61027bfdb806780d03caf568a02c214173a80e2ed8c6f0109f20da179a191c6011393b73498b8c49475501c70e",
      "networkId": 0,
      "chainId": 0
    },
    {
      "hash": "0x4cabb3c9845b249a5daa915c057fb642355ad17f71d9d0db00cb091b675086b6",
      "blockHash": "0x3e1294245192fee002547eb998b614ae3032282c39b458cca2bfae1497f4c1e3",
      "blockNumber": 94675,
      "transactionIndex": 20,
      "confirmations": null,
      "from": "0xe6A7a1d47ff21B6321162AEA7C6CB457D5476Bca",
      "gasPrice": {
        "_hex": "0xd2abc32ae"
      },
      "gasLimit": {
        "_hex": "0x55f0"
      },
      "to": "0xdc41BFACFAaF8B0F0949aB5A3f18f47063Ae62fB",
      "value": {
        "_hex": "0x4620bff704d011ce0"
      },
      "nonce": 2965,
      "data": "0x",
      "r": "0x51cdf0a257345231fecb0e50ee3e7662ab32fa892ea8ce618198031710cf09e2",
      "s": "0x25adc2cbc3a134c4cb5e261bd8831c207b1fc9e7c9cba8e1586c2fdc1e830eb0",
      "v": 28,
      "creates": null,
      "raw": "0xf86f820b95850d2abc32ae8255f094dc41bfacfaaf8b0f0949ab5a3f18f47063ae62fb8904620bff704d011ce0801ca051cdf0a257345231fecb0e50ee3e7662ab32fa892ea8ce618198031710cf09e2a025adc2cbc3a134c4cb5e261bd8831c207b1fc9e7c9cba8e1586c2fdc1e830eb0",
      "networkId": 0,
      "chainId": 0
    },
    {
      "hash": "0x348a1b7cbe0e9d6f62ec064945dc6992de742a9eac8f0567c329b981a546e7b1",
      "blockHash": "0x3e1294245192fee002547eb998b614ae3032282c39b458cca2bfae1497f4c1e3",
      "blockNumber": 94675,
      "transactionIndex": 21,
      "confirmations": null,
      "from": "0xe6A7a1d47ff21B6321162AEA7C6CB457D5476Bca",
      "gasPrice": {
        "_hex": "0xd2abc32ae"
      },
      "gasLimit": {
        "_hex": "0x55f0"
      },
      "to": "0x25A0be9f6fCbDE4F61024B86a33dd80F7cbB3cEc",
      "value": {
        "_hex": "0x4865bdc55591d4180"
      },
      "nonce": 2966,
      "data": "0x",
      "r": "0xf1a3ee47eeed9b92f4013761490589d486641b980aa7424e35ee5122f55eba00",
      "s": "0x23504b9d7b43b0f8f257611cad0d1e5843658f2995c11b335f5bd14956fe2510",
      "v": 27,
      "creates": null,
      "raw": "0xf86f820b96850d2abc32ae8255f09425a0be9f6fcbde4f61024b86a33dd80f7cbb3cec8904865bdc55591d4180801ba0f1a3ee47eeed9b92f4013761490589d486641b980aa7424e35ee5122f55eba00a023504b9d7b43b0f8f257611cad0d1e5843658f2995c11b335f5bd14956fe2510",
      "networkId": 0,
      "chainId": 0
    },
    {
      "hash": "0x820a09777c5844f4759343acba60fd5af435c0a8772c74f50f9db5b753777c53",
      "blockHash": "0x3e1294245192fee002547eb998b614ae3032282c39b458cca2bfae1497f4c1e3",
      "blockNumber": 94675,
      "transactionIndex": 22,
      "confirmations": null,
      "from": "0xe6A7a1d47ff21B6321162AEA7C6CB457D5476Bca",
      "gasPrice": {
        "_hex": "0xd2abc32ae"
      },
      "gasLimit": {
        "_hex": "0x55f0"
      },
      "to": "0x853Bff007d269E0526E871360d79d69D602770dc",
      "value": {
        "_hex": "0x48ec22c280a8987e0"
      },
      "nonce": 2967,
      "data": "0x",
      "r": "0x3b222c1a20e51e4f74dd1868fe56111b97bee3a30e9bf3efdc8625e95a817e3e",
      "s": "0x39f66b060142a8a218425c5a7a713484b5afa4db124c8dc311aae85cf61c2a70",
      "v": 28,
      "creates": null,
      "raw": "0xf86f820b97850d2abc32ae8255f094853bff007d269e0526e871360d79d69d602770dc89048ec22c280a8987e0801ca03b222c1a20e51e4f74dd1868fe56111b97bee3a30e9bf3efdc8625e95a817e3ea039f66b060142a8a218425c5a7a713484b5afa4db124c8dc311aae85cf61c2a70",
      "networkId": 0,
      "chainId": 0
    },
    {
      "hash": "0x08bd0d578bcf5fed252183c907bb7ad8b2d776e5b68525908387c1ee195873da",
      "blockHash": "0x3e1294245192fee002547eb998b614ae3032282c39b458cca2bfae1497f4c1e3",
      "blockNumber": 94675,
      "transactionIndex": 23,
      "confirmations": null,
      "from": "0xe6A7a1d47ff21B6321162AEA7C6CB457D5476Bca",
      "gasPrice": {
        "_hex": "0xd2abc32ae"
      },
      "gasLimit": {
        "_hex": "0x55f0"
      },
      "to": "0xB9eE81c1A5CdE84454DC603a8000836118627cfd",
      "value": {
        "_hex": "0x4a4c2801871a7ad80"
      },
      "nonce": 2968,
      "data": "0x",
      "r": "0x041fbbd5f75710c54d541047ee17fd3acbc47d94c0445b2a92c07f4ad64824d3",
      "s": "0x4a13cbdb3bb4875bde6ebbebb58e0b7df9d5f8bdaf8979d1ec3dfe88f207caee",
      "v": 27,
      "creates": null,
      "raw": "0xf86f820b98850d2abc32ae8255f094b9ee81c1a5cde84454dc603a8000836118627cfd8904a4c2801871a7ad80801ba0041fbbd5f75710c54d541047ee17fd3acbc47d94c0445b2a92c07f4ad64824d3a04a13cbdb3bb4875bde6ebbebb58e0b7df9d5f8bdaf8979d1ec3dfe88f207caee",
      "networkId": 0,
      "chainId": 0
    },
    {
      "hash": "0xacc1a89d5483a7952cd74facc58fb175d12130e6f395432d0dd9e89e5be5b399",
      "blockHash": "0x3e1294245192fee002547eb998b614ae3032282c39b458cca2bfae1497f4c1e3",
      "blockNumber": 94675,
      "transactionIndex": 24,
      "confirmations": null,
      "from": "0xe6A7a1d47ff21B6321162AEA7C6CB457D5476Bca",
      "gasPrice": {
        "_hex": "0xd2abc32ae"
      },
      "gasLimit": {
        "_hex": "0x55f0"
      },
      "to": "0x314D012beD8f104C4ab11ad41B96b2c5Ecf7B96c",
      "value": {
        "_hex": "0x4c7023dde51720cf0"
      },
      "nonce": 2969,
      "data": "0x",
      "r": "0x7cf0ef49ec073fbf5acd7ead3906833c8178317feb0f840b4c13d65d2ce83245",
      "s": "0x6c005f2768b1b53e451999f77c6a97fa932eb0fd3ea456132d698657c4181599",
      "v": 27,
      "creates": null,
      "raw": "0xf86f820b99850d2abc32ae8255f094314d012bed8f104c4ab11ad41b96b2c5ecf7b96c8904c7023dde51720cf0801ba07cf0ef49ec073fbf5acd7ead3906833c8178317feb0f840b4c13d65d2ce83245a06c005f2768b1b53e451999f77c6a97fa932eb0fd3ea456132d698657c4181599",
      "networkId": 0,
      "chainId": 0
    },
    {
      "hash": "0x61ce19fc240540daf1ba616530da62b5bc09f41259dd2bc905d0a978d30f7146",
      "blockHash": "0x3e1294245192fee002547eb998b614ae3032282c39b458cca2bfae1497f4c1e3",
      "blockNumber": 94675,
      "transactionIndex": 25,
      "confirmations": null,
      "from": "0xe6A7a1d47ff21B6321162AEA7C6CB457D5476Bca",
      "gasPrice": {
        "_hex": "0xd2abc32ae"
      },
      "gasLimit": {
        "_hex": "0x55f0"
      },
      "to": "0x0A45ad2348efF97fe7C25C87d65464aB3dEbF94F",
      "value": {
        "_hex": "0x4ca1e6bae753b6ec0"
      },
      "nonce": 2970,
      "data": "0x",
      "r": "0x45f753c9e594271d8cd0023696b4030e05439d37e711a690f318888e04dac04d",
      "s": "0x47cb57c2e10f51d7156a74b982ea2b65e58d4857cdf23e1ea2b1219bd12422c5",
      "v": 27,
      "creates": null,
      "raw": "0xf86f820b9a850d2abc32ae8255f0940a45ad2348eff97fe7c25c87d65464ab3debf94f8904ca1e6bae753b6ec0801ba045f753c9e594271d8cd0023696b4030e05439d37e711a690f318888e04dac04da047cb57c2e10f51d7156a74b982ea2b65e58d4857cdf23e1ea2b1219bd12422c5",
      "networkId": 0,
      "chainId": 0
    },
    {
      "hash": "0x46d8481f1784f652e2fc1218b2321d1ad89090a8b4340baa42cfdee12070b0d6",
      "blockHash": "0x3e1294245192fee002547eb998b614ae3032282c39b458cca2bfae1497f4c1e3",
      "blockNumber": 94675,
      "transactionIndex": 26,
      "confirmations": null,
      "from": "0xe6A7a1d47ff21B6321162AEA7C6CB457D5476Bca",
      "gasPrice": {
        "_hex": "0xd2abc32ae"
      },
      "gasLimit": {
        "_hex": "0x55f0"
      },
      "to": "0x52EEf4DAe819bae2d76E107069479e904e70b849",
      "value": {
        "_hex": "0x4cf5c63967841c510"
      },
      "nonce": 2971,
      "data": "0x",
      "r": "0x9c9689806fe2d902af54bacf889ea37e9459716e9abad1eaebaf4364822de944",
      "s": "0x68843de3f024069f1e1378f0755b921a700ab479fc242f603e3ebffee721f07b",
      "v": 28,
      "creates": null,
      "raw": "0xf86f820b9b850d2abc32ae8255f09452eef4dae819bae2d76e107069479e904e70b8498904cf5c63967841c510801ca09c9689806fe2d902af54bacf889ea37e9459716e9abad1eaebaf4364822de944a068843de3f024069f1e1378f0755b921a700ab479fc242f603e3ebffee721f07b",
      "networkId": 0,
      "chainId": 0
    },
    {
      "hash": "0xd44edd9876b8c6576057f2702486b9015ca9709555e9a0293fa05910f8c880c5",
      "blockHash": "0x3e1294245192fee002547eb998b614ae3032282c39b458cca2bfae1497f4c1e3",
      "blockNumber": 94675,
      "transactionIndex": 27,
      "confirmations": null,
      "from": "0xe6A7a1d47ff21B6321162AEA7C6CB457D5476Bca",
      "gasPrice": {
        "_hex": "0xd2abc32ae"
      },
      "gasLimit": {
        "_hex": "0x55f0"
      },
      "to": "0xE921770D00ff942284b8f101b71C029ecE92DA53",
      "value": {
        "_hex": "0x5137f67e7b2ed3ac0"
      },
      "nonce": 2972,
      "data": "0x",
      "r": "0x7e2b6e2ee1727ed16821a83636c9ed4348ea334a522898700564c20e0112e1d6",
      "s": "0x7727c1be1075d789b9e64180c8b6681f50fb2953475bff60ab3573d052a83ec3",
      "v": 28,
      "creates": null,
      "raw": "0xf86f820b9c850d2abc32ae8255f094e921770d00ff942284b8f101b71c029ece92da538905137f67e7b2ed3ac0801ca07e2b6e2ee1727ed16821a83636c9ed4348ea334a522898700564c20e0112e1d6a07727c1be1075d789b9e64180c8b6681f50fb2953475bff60ab3573d052a83ec3",
      "networkId": 0,
      "chainId": 0
    },
    {
      "hash": "0x0c1d2e52f352eb5f7b9f2cfad6917195332628c9b19af4467d3fcda72469c8b7",
      "blockHash": "0x3e1294245192fee002547eb998b614ae3032282c39b458cca2bfae1497f4c1e3",
      "blockNumber": 94675,
      "transactionIndex": 28,
      "confirmations": null,
      "from": "0xe6A7a1d47ff21B6321162AEA7C6CB457D5476Bca",
      "gasPrice": {
        "_hex": "0xd2abc32ae"
      },
      "gasLimit": {
        "_hex": "0x55f0"
      },
      "to": "0x4E66F49aAbe24B61cC417cf717BCd89862C69372",
      "value": {
        "_hex": "0x53eb483e3a4b74fe0"
      },
      "nonce": 2973,
      "data": "0x",
      "r": "0x77b798ee873e5b69eab14414c5a43dd311a39ec11c96c3fec942cdb3ade8fd3b",
      "s": "0x3f75035e68b546f528aba3cc53428cd7003c26f81192052e563e72d2d21b53ce",
      "v": 28,
      "creates": null,
      "raw": "0xf86f820b9d850d2abc32ae8255f0944e66f49aabe24b61cc417cf717bcd89862c6937289053eb483e3a4b74fe0801ca077b798ee873e5b69eab14414c5a43dd311a39ec11c96c3fec942cdb3ade8fd3ba03f75035e68b546f528aba3cc53428cd7003c26f81192052e563e72d2d21b53ce",
      "networkId": 0,
      "chainId": 0
    },
    {
      "hash": "0xfb29299d49acb54d25a167af36692e4e67ff1a617c704052fb528c7220a9d930",
      "blockHash": "0x3e1294245192fee002547eb998b614ae3032282c39b458cca2bfae1497f4c1e3",
      "blockNumber": 94675,
      "transactionIndex": 29,
      "confirmations": null,
      "from": "0xe6A7a1d47ff21B6321162AEA7C6CB457D5476Bca",
      "gasPrice": {
        "_hex": "0xd2abc32ae"
      },
      "gasLimit": {
        "_hex": "0x55f0"
      },
      "to": "0x40dDAE161B79aaebeb68187233fe59bd3B1c2db2",
      "value": {
        "_hex": "0x55f2ffad58655c9a0"
      },
      "nonce": 2974,
      "data": "0x",
      "r": "0x6aa51484a9d93f7c24958e4140ff56211cabe0cafb0fd06b3a32ad292eb73748",
      "s": "0x444eb8d394c4b2fd1f330debf670a5edad6676c90367fea38ef33a9846c6155f",
      "v": 28,
      "creates": null,
      "raw": "0xf86f820b9e850d2abc32ae8255f09440ddae161b79aaebeb68187233fe59bd3b1c2db289055f2ffad58655c9a0801ca06aa51484a9d93f7c24958e4140ff56211cabe0cafb0fd06b3a32ad292eb73748a0444eb8d394c4b2fd1f330debf670a5edad6676c90367fea38ef33a9846c6155f",
      "networkId": 0,
      "chainId": 0
    },
    {
      "hash": "0xafe5cc73a1f188c9ec7d03301d4db5e5262a8c2839012b1249db0417c42d8acd",
      "blockHash": "0x3e1294245192fee002547eb998b614ae3032282c39b458cca2bfae1497f4c1e3",
      "blockNumber": 94675,
      "transactionIndex": 30,
      "confirmations": null,
      "from": "0xe6A7a1d47ff21B6321162AEA7C6CB457D5476Bca",
      "gasPrice": {
        "_hex": "0xd2abc32ae"
      },
      "gasLimit": {
        "_hex": "0x55f0"
      },
      "to": "0xd0DF24FD0DfcDc3850D1590dAA1D03ca7706b11B",
      "value": {
        "_hex": "0x588f842d0a8c343c0"
      },
      "nonce": 2975,
      "data": "0x",
      "r": "0x43529e2dcec537054477ad7c0d07928c3d03ffac772dcc9be358938dc29a5da7",
      "s": "0x78da0c27a68cf7361ccd0c38cb285c6d1c01aabed655084fc78505c9b8643523",
      "v": 28,
      "creates": null,
      "raw": "0xf86f820b9f850d2abc32ae8255f094d0df24fd0dfcdc3850d1590daa1d03ca7706b11b890588f842d0a8c343c0801ca043529e2dcec537054477ad7c0d07928c3d03ffac772dcc9be358938dc29a5da7a078da0c27a68cf7361ccd0c38cb285c6d1c01aabed655084fc78505c9b8643523",
      "networkId": 0,
      "chainId": 0
    },
    {
      "hash": "0x7c50d33c7efe0f56cca4ca019e122b35fa1ef80aaa91be0a22bda50b5354626d",
      "blockHash": "0x3e1294245192fee002547eb998b614ae3032282c39b458cca2bfae1497f4c1e3",
      "blockNumber": 94675,
      "transactionIndex": 31,
      "confirmations": null,
      "from": "0xe6A7a1d47ff21B6321162AEA7C6CB457D5476Bca",
      "gasPrice": {
        "_hex": "0xd2abc32ae"
      },
      "gasLimit": {
        "_hex": "0x55f0"
      },
      "to": "0x665646727edaAEbB32B5F1A9b4e4F3BD867AA8fB",
      "value": {
        "_hex": "0x5a4cf2e5a46a4b8a0"
      },
      "nonce": 2976,
      "data": "0x",
      "r": "0x1e9af9670cc52a51f21e70792c9844c7e6274ba7cd69960c5c534bf68907dac9",
      "s": "0x34b36f5aac3fa15022295e26c180d477bc808fdff2926b32d4df04b1f02ff5d6",
      "v": 28,
      "creates": null,
      "raw": "0xf86f820ba0850d2abc32ae8255f094665646727edaaebb32b5f1a9b4e4f3bd867aa8fb8905a4cf2e5a46a4b8a0801ca01e9af9670cc52a51f21e70792c9844c7e6274ba7cd69960c5c534bf68907dac9a034b36f5aac3fa15022295e26c180d477bc808fdff2926b32d4df04b1f02ff5d6",
      "networkId": 0,
      "chainId": 0
    },
    {
      "hash": "0xba630f1c6b980567bb978e46b05a3ef34fd3f96a5ba33acccf11d5e74e1f3683",
      "blockHash": "0x3e1294245192fee002547eb998b614ae3032282c39b458cca2bfae1497f4c1e3",
      "blockNumber": 94675,
      "transactionIndex": 32,
      "confirmations": null,
      "from": "0xe6A7a1d47ff21B6321162AEA7C6CB457D5476Bca",
      "gasPrice": {
        "_hex": "0xd2abc32ae"
      },
      "gasLimit": {
        "_hex": "0x55f0"
      },
      "to": "0x5b08838334DA22Dc7E25ce6a4161672F80e9074A",
      "value": {
        "_hex": "0x5bc0fb161522c02f0"
      },
      "nonce": 2977,
      "data": "0x",
      "r": "0x2f8befeef7ed645b8534a70cba063aa8a53765d703c77af94ddae70e6465c980",
      "s": "0x7ca7cf7721b19064b97248ae1f2da52c3f7ea2f54859a84f017416722f49aaa4",
      "v": 27,
      "creates": null,
      "raw": "0xf86f820ba1850d2abc32ae8255f0945b08838334da22dc7e25ce6a4161672f80e9074a8905bc0fb161522c02f0801ba02f8befeef7ed645b8534a70cba063aa8a53765d703c77af94ddae70e6465c980a07ca7cf7721b19064b97248ae1f2da52c3f7ea2f54859a84f017416722f49aaa4",
      "networkId": 0,
      "chainId": 0
    },
    {
      "hash": "0xfc0657b1e1feadc49eb4edc8ea53fe0f35b0e17e6521fe334c9b3e07bf35b22d",
      "blockHash": "0x3e1294245192fee002547eb998b614ae3032282c39b458cca2bfae1497f4c1e3",
      "blockNumber": 94675,
      "transactionIndex": 33,
      "confirmations": null,
      "from": "0xe6A7a1d47ff21B6321162AEA7C6CB457D5476Bca",
      "gasPrice": {
        "_hex": "0xd2abc32ae"
      },
      "gasLimit": {
        "_hex": "0x55f0"
      },
      "to": "0x3A652ae439FFB94328afa58E11F544aFB5B85f7A",
      "value": {
        "_hex": "0x6c5fce85c28628960"
      },
      "nonce": 2978,
      "data": "0x",
      "r": "0x79b17d5653e8a32fdfa85947e4dc476cb1774146023c5b7fdc05afff7b0cd516",
      "s": "0x765690d91990522d72acaa70bfe578a1d5da282e426ef494a1c0459979fdb8ba",
      "v": 27,
      "creates": null,
      "raw": "0xf86f820ba2850d2abc32ae8255f0943a652ae439ffb94328afa58e11f544afb5b85f7a8906c5fce85c28628960801ba079b17d5653e8a32fdfa85947e4dc476cb1774146023c5b7fdc05afff7b0cd516a0765690d91990522d72acaa70bfe578a1d5da282e426ef494a1c0459979fdb8ba",
      "networkId": 0,
      "chainId": 0
    },
    {
      "hash": "0x8d202d888bc5eb2863513647ef545464e9a7d169401ddbfe78835b59f6136d3c",
      "blockHash": "0x3e1294245192fee002547eb998b614ae3032282c39b458cca2bfae1497f4c1e3",
      "blockNumber": 94675,
      "transactionIndex": 34,
      "confirmations": null,
      "from": "0xe6A7a1d47ff21B6321162AEA7C6CB457D5476Bca",
      "gasPrice": {
        "_hex": "0xd2abc32ae"
      },
      "gasLimit": {
        "_hex": "0x55f0"
      },
      "to": "0x097738363B1662599ad0777E19461601F5EC8dF9",
      "value": {
        "_hex": "0x77dc4671752bbf3e0"
      },
      "nonce": 2979,
      "data": "0x",
      "r": "0x992fc2dd93ed6abca3647c04c42ac0fda99fefc138f292e26c2857206a80620a",
      "s": "0x6fbce71a39625e778c59db5a0a9d557b2613db32215670804318ff78e2829856",
      "v": 28,
      "creates": null,
      "raw": "0xf86f820ba3850d2abc32ae8255f094097738363b1662599ad0777e19461601f5ec8df989077dc4671752bbf3e0801ca0992fc2dd93ed6abca3647c04c42ac0fda99fefc138f292e26c2857206a80620aa06fbce71a39625e778c59db5a0a9d557b2613db32215670804318ff78e2829856",
      "networkId": 0,
      "chainId": 0
    },
    {
      "hash": "0x1b68179787b01364a81f908ddd3a1d7a4c2cb32a273d7f67ddc07af332f22cad",
      "blockHash": "0x3e1294245192fee002547eb998b614ae3032282c39b458cca2bfae1497f4c1e3",
      "blockNumber": 94675,
      "transactionIndex": 35,
      "confirmations": null,
      "from": "0xe6A7a1d47ff21B6321162AEA7C6CB457D5476Bca",
      "gasPrice": {
        "_hex": "0xd2abc32ae"
      },
      "gasLimit": {
        "_hex": "0x55f0"
      },
      "to": "0x250978C66B17d66f4167197A38b631d8900968C0",
      "value": {
        "_hex": "0x7c8c9c2229c13f2c0"
      },
      "nonce": 2980,
      "data": "0x",
      "r": "0x07ee530b9996b02750a82e4cc67bf27edfa727e8b5053fafccfd40757c72ae6e",
      "s": "0x2d45f668b044e07d52c47bee9bef45dd6a27e421a7264757c64e510644a1445e",
      "v": 27,
      "creates": null,
      "raw": "0xf86f820ba4850d2abc32ae8255f094250978c66b17d66f4167197a38b631d8900968c08907c8c9c2229c13f2c0801ba007ee530b9996b02750a82e4cc67bf27edfa727e8b5053fafccfd40757c72ae6ea02d45f668b044e07d52c47bee9bef45dd6a27e421a7264757c64e510644a1445e",
      "networkId": 0,
      "chainId": 0
    },
    {
      "hash": "0x21236533b89b03bc68446d358d759929a291a31db12dd074ff384e0c00931026",
      "blockHash": "0x3e1294245192fee002547eb998b614ae3032282c39b458cca2bfae1497f4c1e3",
      "blockNumber": 94675,
      "transactionIndex": 36,
      "confirmations": null,
      "from": "0xe6A7a1d47ff21B6321162AEA7C6CB457D5476Bca",
      "gasPrice": {
        "_hex": "0xd2abc32ae"
      },
      "gasLimit": {
        "_hex": "0x55f0"
      },
      "to": "0x837A2A346557050c8cF0fb24b84Aa695E8Add19f",
      "value": {
        "_hex": "0x90e0014f16f6883f0"
      },
      "nonce": 2981,
      "data": "0x",
      "r": "0xdd83f097255ac3357f7294cbe841499f0c50401d34083fcebebb0d1ecf302c08",
      "s": "0x150c6fc62ea826599b96d05e4d516c4dd82ae71db666e2c130ba66e3cdb6499d",
      "v": 27,
      "creates": null,
      "raw": "0xf86f820ba5850d2abc32ae8255f094837a2a346557050c8cf0fb24b84aa695e8add19f89090e0014f16f6883f0801ba0dd83f097255ac3357f7294cbe841499f0c50401d34083fcebebb0d1ecf302c08a0150c6fc62ea826599b96d05e4d516c4dd82ae71db666e2c130ba66e3cdb6499d",
      "networkId": 0,
      "chainId": 0
    },
    {
      "hash": "0x3948296b4714e9f18a1f6b4031ddc3539da5c78b8c0d46b527d722fe89937e8b",
      "blockHash": "0x3e1294245192fee002547eb998b614ae3032282c39b458cca2bfae1497f4c1e3",
      "blockNumber": 94675,
      "transactionIndex": 37,
      "confirmations": null,
      "from": "0xe6A7a1d47ff21B6321162AEA7C6CB457D5476Bca",
      "gasPrice": {
        "_hex": "0xd2abc32ae"
      },
      "gasLimit": {
        "_hex": "0x55f0"
      },
      "to": "0xDE209fd98dEc789370402D891e7401d3947379e4",
      "value": {
        "_hex": "0x96b28cbe4fe143880"
      },
      "nonce": 2982,
      "data": "0x",
      "r": "0x2a38adb436269a52c50dd9b20beeeeb07dfb0b4653a07f5a1b17b0122822f08b",
      "s": "0x06923a698cb5a12bd47468087a3b9f3a00d509479be332dcc6835a2a906b8973",
      "v": 27,
      "creates": null,
      "raw": "0xf86f820ba6850d2abc32ae8255f094de209fd98dec789370402d891e7401d3947379e489096b28cbe4fe143880801ba02a38adb436269a52c50dd9b20beeeeb07dfb0b4653a07f5a1b17b0122822f08ba006923a698cb5a12bd47468087a3b9f3a00d509479be332dcc6835a2a906b8973",
      "networkId": 0,
      "chainId": 0
    },
    {
      "hash": "0x370e97b7fc78831d74ef31addf3bd47181c8eef0cefd9fd4e23862aa82d2d07a",
      "blockHash": "0x3e1294245192fee002547eb998b614ae3032282c39b458cca2bfae1497f4c1e3",
      "blockNumber": 94675,
      "transactionIndex": 38,
      "confirmations": null,
      "from": "0xe6A7a1d47ff21B6321162AEA7C6CB457D5476Bca",
      "gasPrice": {
        "_hex": "0xd2abc32ae"
      },
      "gasLimit": {
        "_hex": "0x55f0"
      },
      "to": "0x4A29dF8a7967b36664f256F18dAcf2e58E9f1E7E",
      "value": {
        "_hex": "0x997ff1e2f8676f7e0"
      },
      "nonce": 2983,
      "data": "0x",
      "r": "0xf4138f0b5cce5c5a079824e06959a4e78dda4857b9f57ade50581ebee0e9fb49",
      "s": "0x7d82810ec65c7eecda9f02609e3f27d6c65163a0e731d8b4e3a49ff22f0be428",
      "v": 28,
      "creates": null,
      "raw": "0xf86f820ba7850d2abc32ae8255f0944a29df8a7967b36664f256f18dacf2e58e9f1e7e890997ff1e2f8676f7e0801ca0f4138f0b5cce5c5a079824e06959a4e78dda4857b9f57ade50581ebee0e9fb49a07d82810ec65c7eecda9f02609e3f27d6c65163a0e731d8b4e3a49ff22f0be428",
      "networkId": 0,
      "chainId": 0
    },
    {
      "hash": "0x76ce2cbc706dfab66774afcd2c68d54378fe54f64a8d158a862cc25b2a180d38",
      "blockHash": "0x3e1294245192fee002547eb998b614ae3032282c39b458cca2bfae1497f4c1e3",
      "blockNumber": 94675,
      "transactionIndex": 39,
      "confirmations": null,
      "from": "0xe6A7a1d47ff21B6321162AEA7C6CB457D5476Bca",
      "gasPrice": {
        "_hex": "0xd2abc32ae"
      },
      "gasLimit": {
        "_hex": "0x55f0"
      },
      "to": "0x0912001e29BbaF75C23069A22D9B9602BE86FEB7",
      "value": {
        "_hex": "0xb9b41abefb1233ae0"
      },
      "nonce": 2984,
      "data": "0x",
      "r": "0x4a42d40f94998b4ce6aa4efb0e4f64a6c47cd531b6ac37235e5d8c6284ea8e79",
      "s": "0x4f7a9a340bf442aa321ae4be9d5e923faa6394260e33b2ab6927919083b5b84a",
      "v": 28,
      "creates": null,
      "raw": "0xf86f820ba8850d2abc32ae8255f0940912001e29bbaf75c23069a22d9b9602be86feb7890b9b41abefb1233ae0801ca04a42d40f94998b4ce6aa4efb0e4f64a6c47cd531b6ac37235e5d8c6284ea8e79a04f7a9a340bf442aa321ae4be9d5e923faa6394260e33b2ab6927919083b5b84a",
      "networkId": 0,
      "chainId": 0
    },
    {
      "hash": "0x832f35e2c067230bbc899a49f9b49e900de305600f8fce67c4dfab4c2d01c1d5",
      "blockHash": "0x3e1294245192fee002547eb998b614ae3032282c39b458cca2bfae1497f4c1e3",
      "blockNumber": 94675,
      "transactionIndex": 40,
      "confirmations": null,
      "from": "0xe6A7a1d47ff21B6321162AEA7C6CB457D5476Bca",
      "gasPrice": {
        "_hex": "0xd2abc32ae"
      },
      "gasLimit": {
        "_hex": "0x55f0"
      },
      "to": "0xF2d2AfF1320476cb8C6b607199D23175cc595693",
      "value": {
        "_hex": "0x13d29e8854fe915a40"
      },
      "nonce": 2985,
      "data": "0x",
      "r": "0xf0a36c432244c3ddf8bf6ad89d74dc76a8de8c7b189f26082d4b1b78c992ddc5",
      "s": "0x201187bcc5be910a0f11b1967414c0d5d013d4bb8f6273483fbe0e109ad6299c",
      "v": 27,
      "creates": null,
      "raw": "0xf86f820ba9850d2abc32ae8255f094f2d2aff1320476cb8c6b607199d23175cc5956938913d29e8854fe915a40801ba0f0a36c432244c3ddf8bf6ad89d74dc76a8de8c7b189f26082d4b1b78c992ddc5a0201187bcc5be910a0f11b1967414c0d5d013d4bb8f6273483fbe0e109ad6299c",
      "networkId": 0,
      "chainId": 0
    },
    {
      "hash": "0xa1ee0df0078a97fd10ea607ffb84b445b99a28a7c756a3d7ce9147da71bc3512",
      "blockHash": "0x3e1294245192fee002547eb998b614ae3032282c39b458cca2bfae1497f4c1e3",
      "blockNumber": 94675,
      "transactionIndex": 41,
      "confirmations": null,
      "from": "0xe6A7a1d47ff21B6321162AEA7C6CB457D5476Bca",
      "gasPrice": {
        "_hex": "0xd2abc32ae"
      },
      "gasLimit": {
        "_hex": "0x55f0"
      },
      "to": "0x608f4b86321a68453f9adf6F06F7Fc3E621739ad",
      "value": {
        "_hex": "0x193e83591f12c00250"
      },
      "nonce": 2986,
      "data": "0x",
      "r": "0xfe26fe00e7a15e3ff8e48db6448d29155c7df93257053bf32f81b11a485c2557",
      "s": "0x52c778abe653b7e3b7355c8bbf89091bcda5f9f3056c02b4911611a00b616c9f",
      "v": 28,
      "creates": null,
      "raw": "0xf86f820baa850d2abc32ae8255f094608f4b86321a68453f9adf6f06f7fc3e621739ad89193e83591f12c00250801ca0fe26fe00e7a15e3ff8e48db6448d29155c7df93257053bf32f81b11a485c2557a052c778abe653b7e3b7355c8bbf89091bcda5f9f3056c02b4911611a00b616c9f",
      "networkId": 0,
      "chainId": 0
    }
  ]
}