{
  "hash": "0x8301354bd48eb1a0ab49e249713bfaa1453bdcdee27ee6857b7ea30192d13365",
  "parentHash": "0x16358484211a797efcd7f1c9ae32ca1c43d93d850aed11f01319211a99d32698",
  "number": 52602,
  "timestamp": 1439024162,
  "nonce": "0xe7cff31877d79f4a",
  "difficulty": 1568658018953,
  "gasLimit": {
    "_hex": "0x162390"
  },
  "gasUsed": {
    "_hex": "0xf4240"
  },
  "miner": "0x157c6f2431eB1a95797EE86F7d17b3c0FD47A247",
  "extraData": "0x476574682f76312e302e312f77696e646f77732f676f312e342e32",
  "transactions": [
    {
      "hash": "0x2f299583580efb8ca505e8fd6664cb086eba39ef716ba0d1ce887e4f71238019",
      "blockHash": "0x8301354bd48eb1a0ab49e249713bfaa1453bdcdee27ee6857b7ea30192d13365",
      "blockNumber": 52602,
      "transactionIndex": 0,
      "confirmations": null,
      "from": "0x54dAeb3E8a6BBC797E4aD2b0339f134b186e4637",
      "gasPrice": {
        "_hex": "0xdada9c769"
      },
      "gasLimit": {
        "_hex": "0x7a120"
      },
      "to": "0xBAA54d6E90c3F4d7Ebec11bD180134C7eD8eBb52",
      "value": {
        "_hex": "0x16345785d8a0000"
      },
      "nonce": 783,
      "data": "0x",
      "r": "0x7f5fb88a63fe7c22910790ba08aa1140c375e93cd342f9be1f84cc069489f367",
      "s": "0x78abe0503080079a6a9b65806451a5492ca2717da8f41411d5070c314df2f868",
      "v": 27,
      "creates": null,
      "raw": "0xf86f82030f850dada9c7698307a12094baa54d6e90c3f4d7ebec11bd180134c7ed8ebb5288016345785d8a0000801ba07f5fb88a63fe7c22910790ba08aa1140c375e93cd342f9be1f84cc069489f367a078abe0503080079a6a9b65806451a5492ca2717da8f41411d5070c314df2f868",
      "networkId": 0,
      "chainId": 0
    },
    {
      "hash": "0xd227261c0b641f5db47f4b50ef87b97505dd9cc691db53813117176464d40729",
      "blockHash": "0x8301354bd48eb1a0ab49e249713bfaa1453bdcdee27ee6857b7ea30192d13365",
      "blockNumber": 52602,
      "transactionIndex": 1,
      "confirmations": null,
      "from": "0x54dAeb3E8a6BBC797E4aD2b0339f134b186e4637",
      "gasPrice": {
        "_hex": "0xdf4ba21f9"
      },
      "gasLimit": {
        "_hex": "0x7a120"
      },
      "to": "0xBAA54d6E90c3F4d7Ebec11bD180134C7eD8eBb52",
      "value": {
        "_hex": "0x16345785d8a0000"
      },
      "nonce": 784,
      "data": "0x",
      "r": "0x8ec2137d844b23b42fb9361bdd5987cf12c2312a24f9be91e2d5ad06235fdd91",
      "s": "0x6b7bb9ba7d65a407fbab17a50950817fd169bada15391984dacf593ceef98df9",
      "v": 27,
      "creates": null,
      "raw": "0xf86f820310850df4ba21f98307a12094baa54d6e90c3f4d7ebec11bd180134c7ed8ebb5288016345785d8a0000801ba08ec2137d844b23b42fb9361bdd5987cf12c2312a24f9be91e2d5ad06235fdd91a06b7bb9ba7d65a407fbab17a50950817fd169bada15391984dacf593ceef98df9",
      "networkId": 0,
      "chainId": 0
    }
  ]
}