{
  "hash": "0x60054e012c31efaa2187e9e998debf0bd2ab6f6b05a334e9c8c7b4428ae3fef2",
  "parentHash": "0x825a4c6f65f8b079e897609a98da15823c03a675455838e6c3c8da785f5d76ad",
  "number": 120170,
  "timestamp": 1440155220,
  "nonce": "0x6ab57dcc7687b8df",
  "difficulty": 4411249684605,
  "gasLimit": {
    "_hex": "0x2fefd8"
  },
  "gasUsed": {
    "_hex": "0x5208"
  },
  "miner": "0x52bc44d5378309EE2abF1539BF71dE1b7d7bE3b5",
  "extraData": "0xd783010002844765746887676f312e342e32856c696e7578",
  "transactions": [
    {
      "hash": "0x3ce563429424dd0ef5320d30a91780377c68320632d5d3d8a91d70efc656c4ef",
      "blockHash": "0x60054e012c31efaa2187e9e998debf0bd2ab6f6b05a334e9c8c7b4428ae3fef2",
      "blockNumber": 120170,
      "transactionIndex": 0,
      "confirmations": null,
      "from": "0xC5e0Fa35fA08dFBD5f9268fEa7a40e25244d8306",
      "gasPrice": {
        "_hex": "0xba43b7400"
      },
      "gasLimit": {
        "_hex": "0x15f90"
      },
      "to": "0xA86d21e804Fd088C09B7Eba8BB78d726b1F75231",
      "value": {
        "_hex": "0x1236efcbcbb340000"
      },
      "nonce": 0,
      "data": "0x",
      "r": "0xa64e7658d31bddfd1aa2c0468310459da05a4f06b295d6af52b00ff4a2d7fd95",
      "s": "0x62bbdf5a9d896d2ca666e553f9688455909389a5e1699ae84f5b917e6c93d527",
      "v": 27,
      "creates": null,
      "raw": "0xf86e80850ba43b740083015f9094a86d21e804fd088c09b7eba8bb78d726b1f752318901236efcbcbb340000801ba0a64e7658d31bddfd1aa2c0468310459da05a4f06b295d6af52b00ff4a2d7fd95a062bbdf5a9d896d2ca666e553f9688455909389a5e1699ae84f5b917e6c93d527",
      "networkId": 0,
      "chainId": 0
    }
  ]
}