{
  "hash": "0x5d1e6b2c0c73a466cfc92dae583ffbd4b4721e47175fed1cde10da52083ca043",
  "parentHash": "0xa0ac906a72297f61c68ba01465d8b869df8ec43451f8eb45fcc03b0b3d0a2f9f",
  "number": 86821,
  "timestamp": 1439583321,
  "nonce": "0xbeccb16c41a2d493",
  "difficulty": 2951671985955,
  "gasLimit": {
    "_hex": "0x2fefd8"
  },
  "gasUsed": {
    "_hex": "0x546c"
  },
  "miner": "0xAa9164cC61C67064351596c21760491616AA95F4",
  "extraData": "0x",
  "transactions": [
    {
      "hash": "0x46d9b30216a5bc6381427c8f8cdb51b71001ae150618c205792b3e85614e6219",
      "blockHash": "0x5d1e6b2c0c73a466cfc92dae583ffbd4b4721e47175fed1cde10da52083ca043",
      "blockNumber": 86821,
      "transactionIndex": 0,
      "confirmations": null,
      "from": "0x55852943492970f8d629A15366CddA06A94f4513",
      "gasPrice": {
        "_hex": "0x110c8f7d8de"
      },
      "gasLimit": {
        "_hex": "0xc350"
      },
      "to": "0x2910543Af39abA0Cd09dBb2D50200b3E800A63D2",
      "value": {
        "_hex": "0xde0b6b3a7640000"
      },
      "nonce": 0,
      "data": "0x454e48554e55334238",
      "r": "0xe225ba9691e26561f83e6048069afff26470abd3fcb8d03e7aa886a93ab16fcb",
      "s": "0x6026c3eaa8fb585a928ce49a70e31f71eb4496b8b70f2128ed023332429ab8e1",
      "v": 28,
      "creates": null,
      "raw": "0xf87680860110c8f7d8de82c350942910543af39aba0cd09dbb2d50200b3e800a63d2880de0b6b3a764000089454e48554e553342381ca0e225ba9691e26561f83e6048069afff26470abd3fcb8d03e7aa886a93ab16fcba06026c3eaa8fb585a928ce49a70e31f71eb4496b8b70f2128ed023332429ab8e1",
      "networkId": 0,
      "chainId": 0
    }
  ]
}