{
  "hash": "0xc99611c658639524f29ffce279a02277f5f59f01f4bfb66aa0097d3e228a3f5b",
  "parentHash": "0xec5acd0d7bb4054bcb69162ac08b62a2775493b47bcf80fbe0d8ab867047aa76",
  "number": 79486,
  "timestamp": 1439470530,
  "nonce": "0xe9f98d3bbe146058",
  "difficulty": 2331308644606,
  "gasLimit": {
    "_hex": "0x2fefd8"
  },
  "gasUsed": {
    "_hex": "0xf618"
  },
  "miner": "0xbb7B8287f3F0a933474a79eAe42CBCa977791171",
  "extraData": "0x476574682f4c5649562f76312e302e312f6c696e75782f676f312e342e32",
  "transactions": [
    {
      "hash": "0x322caea4326688400fe36bd24a07b53a65bbdb52bdd7b3f4cc45385c895b12c4",
      "blockHash": "0xc99611c658639524f29ffce279a02277f5f59f01f4bfb66aa0097d3e228a3f5b",
      "blockNumber": 79486,
      "transactionIndex": 0,
      "confirmations": null,
      "from": "0x32Be343B94f860124dC4fEe278FDCBD38C102D88",
      "gasPrice": {
        "_hex": "0xe190878fe"
      },
      "gasLimit": {
        "_hex": "0x5208"
      },
      "to": "0x3730a07b6d2d7413d0d76B91935F60bB0b1d8E2F",
      "value": {
        "_hex": "0x13fbe85edc90000"
      },
      "nonce": 431,
      "data": "0x",
      "r": "0xefa243d1472408dc14475a50f9800c2a0149523de5c6e28f7c83ee662910e94d",
      "s": "0x0bacb19db28aaf137da6320b5483ce652387558dc70b1cc721a805c03c5d8320",
      "v": 28,
      "creates": null,
      "raw": "0xf86e8201af850e190878fe825208943730a07b6d2d7413d0d76b91935f60bb0b1d8e2f88013fbe85edc90000801ca0efa243d1472408dc14475a50f9800c2a0149523de5c6e28f7c83ee662910e94da00bacb19db28aaf137da6320b5483ce652387558dc70b1cc721a805c03c5d8320",
      "networkId": 0,
      "chainId": 0
    },
    {
      "hash": "0x35334af274e74f23eb9617cecef4edb7d24e6c49f9b60f4f056e50499ccb3f4e",
      "blockHash": "0xc99611c658639524f29ffce279a02277f5f59f01f4bfb66aa0097d3e228a3f5b",
      "blockNumber": 79486,
      "transactionIndex": 1,
      "confirmations": null,
      "from": "0x8df03bD37602d97980327B58D940258dC57007B3",
      "gasPrice": {
        "_hex": "0xd651435ca"
      },
      "gasLimit": {
        "_hex": "0x15f90"
      },
      "to": "0x98f2c2754c77b49993EEA4Dcd2D9ABa71B696B60",
      "value": {
        "_hex": "0x477879b6d1430000"
      },
      "nonce": 4,
      "data": "0x",
      "r": "0x3fc80fef30d8d76fe8c23d2923155c318c92d3a0b0a7d6d25e8c062f75d1bec4",
      "s": "0x0dbc1b8d7fef9844846ff3bb060f66247f3565129bee9b4ca375edaf18c48d47",
      "v": 27,
      "creates": null,
      "raw": "0xf86d04850d651435ca83015f909498f2c2754c77b49993eea4dcd2d9aba71b696b6088477879b6d1430000801ba03fc80fef30d8d76fe8c23d2923155c318c92d3a0b0a7d6d25e8c062f75d1bec4a00dbc1b8d7fef9844846ff3bb060f66247f3565129bee9b4ca375edaf18c48d47",
      "networkId": 0,
      "chainId": 0
    },
    {
      "hash": "0x211649c5aafbd6915bd062f5f55b6a853572c24593701a2a7833e7b442e08f68",
      "blockHash": "0xc99611c658639524f29ffce279a02277f5f59f01f4bfb66aa0097d3e228a3f5b",
      "blockNumber": 79486,
      "transactionIndex": 2,
      "confirmations": null,
      "from": "0x2910543Af39abA0Cd09dBb2D50200b3E800A63D2",
      "gasPrice": {
        "_hex": "0xd2a3e31dd"
      },
      "gasLimit": {
        "_hex": "0x5208"
      },
      "to": "0x845756B00082FC31A538B70Cb8eC08746baB5Be4",
      "value": {
        "_hex": "0x4e0ee77afa1478000"
      },
      "nonce": 358,
      "data": "0x",
      "r": "0xd16520a0c66a64b7a326672f2b75d7f2b85aa06d79201c8ec6b979604cc6ea4a",
      "s": "0x2c242dbddf8233acb59af65600d1fab3ff27a5532df54294738aef868eb9c505",
      "v": 28,
      "creates": null,
      "raw": "0xf86f820166850d2a3e31dd82520894845756b00082fc31a538b70cb8ec08746bab5be48904e0ee77afa1478000801ca0d16520a0c66a64b7a326672f2b75d7f2b85aa06d79201c8ec6b979604cc6ea4aa02c242dbddf8233acb59af65600d1fab3ff27a5532df54294738aef868eb9c505",
      "networkId": 0,
      "chainId": 0
    }
  ]
}