{
  "hash": "0x40a78a8aff08bd4e4eec99730e02b0898d05e238184e24559cf343941102e313",
  "parentHash": "0xeeb422cf6385c4556614b7d6a259160ab21d81140a73421c4de346205c031436",
  "number": 80117,
  "timestamp": 1439480473,
  "nonce": "0x2e10c62cf9762d2f",
  "difficulty": 2345977585031,
  "gasLimit": {
    "_hex": "0x2fefd5"
  },
  "gasUsed": {
    "_hex": "0xa410"
  },
  "miner": "0x0037ce3d4B7f8729C8607D8D0248252Be68202c0",
  "extraData": "0x476574682f76312e302e312f77696e646f77732f676f312e342e32",
  "transactions": [
    {
      "hash": "0x2ff8772f46f0630702377d9e0605014c93aca07584b528ce1d801baed37d9d56",
      "blockHash": "0x40a78a8aff08bd4e4eec99730e02b0898d05e238184e24559cf343941102e313",
      "blockNumber": 80117,
      "transactionIndex": 0,
      "confirmations": null,
      "from": "0x32Be343B94f860124dC4fEe278FDCBD38C102D88",
      "gasPrice": {
        "_hex": "0xe07895a66"
      },
      "gasLimit": {
        "_hex": "0x5208"
      },
      "to": "0x1E1f7dDeCbe7b21492957BF4C5365eae580aA990",
      "value": {
        "_hex": "0xe20730966a94000"
      },
      "nonce": 511,
      "data": "0x",
      "r": "0x18048ce7c027be007c289a446419de0a8536e3600d840a22fc78a6f39a6f0120",
      "s": "0x159adcdec970568451ecaa828330c84c94e5a67e10135ae623ca368c43ebd88a",
      "v": 28,
      "creates": null,
      "raw": "0xf86e8201ff850e07895a66825208941e1f7ddecbe7b21492957bf4c5365eae580aa990880e20730966a94000801ca018048ce7c027be007c289a446419de0a8536e3600d840a22fc78a6f39a6f0120a0159adcdec970568451ecaa828330c84c94e5a67e10135ae623ca368c43ebd88a",
      "networkId": 0,
      "chainId": 0
    },
    {
      "hash": "0x0c3a65ed2af9a502bd6fcef92fa84894850a43c5f2792c1e8fa5c36be9a66db2",
      "blockHash": "0x40a78a8aff08bd4e4eec99730e02b0898d05e238184e24559cf343941102e313",
      "blockNumber": 80117,
      "transactionIndex": 1,
      "confirmations": null,
      "from": "0xF2d2AfF1320476cb8C6b607199D23175cc595693",
      "gasPrice": {
        "_hex": "0xcb644c6e8"
      },
      "gasLimit": {
        "_hex": "0x15f90"
      },
      "to": "0xF5EeDc192aB70b08D8354384aD94efD095849E00",
      "value": {
        "_hex": "0x4b75e170de2fc0000"
      },
      "nonce": 32,
      "data": "0x",
      "r": "0xf8c90ed043b5d6a442c8a08a30a38e2fe1f82a8cf64a85ce1a607538a4a7a0b3",
      "s": "0x4eb2083f4b62e25d74c9caffaaaf7b31d425b5a8049c2282175d7661537dda19",
      "v": 28,
      "creates": null,
      "raw": "0xf86e20850cb644c6e883015f9094f5eedc192ab70b08d8354384ad94efd095849e008904b75e170de2fc0000801ca0f8c90ed043b5d6a442c8a08a30a38e2fe1f82a8cf64a85ce1a607538a4a7a0b3a04eb2083f4b62e25d74c9caffaaaf7b31d425b5a8049c2282175d7661537dda19",
      "networkId": 0,
      "chainId": 0
    }
  ]
}