{
  "hash": "0x92202c1bc70e04896d0d9c30acb5557809db0f96c4d1af936d663a66c1868985",
  "parentHash": "0xc97a50e88ed9b2ee28e7be2a72063d3baf8e9d8fe12f05c19de4456fc8e1ca05",
  "number": 88630,
  "timestamp": 1439611014,
  "nonce": "0x943ca85a01761c4e",
  "difficulty": 3230019497076,
  "gasLimit": {
    "_hex": "0x2fefd8"
  },
  "gasUsed": {
    "_hex": "0x5208"
  },
  "miner": "0xe6A7a1d47ff21B6321162AEA7C6CB457D5476Bca",
  "extraData": "0x476574682f76312e302e312d38326566323666362f6c696e75782f676f312e34",
  "transactions": [
    {
      "hash": "0x585654902b99989b643af9237865e921c9ff04a8760f94e104f8a9150e612951",
      "blockHash": "0x92202c1bc70e04896d0d9c30acb5557809db0f96c4d1af936d663a66c1868985",
      "blockNumber": 88630,
      "transactionIndex": 0,
      "confirmations": null,
      "from": "0x7D45E10A0d63eCCA0694a7cbfF030f4dD87DA0dC",
      "gasPrice": {
        "_hex": "0xd23ee12e2"
      },
      "gasLimit": {
        "_hex": "0x15f90"
      },
      "to": "0x6d921977dEFE5f4e0682CA512De1D07b1f4802E1",
      "value": {
        "_hex": "0x1ae361fc1451c0000"
      },
      "nonce": 16,
      "data": "0x",
      "r": "0x642c106a536d893e657b1fa8781573d534c0c63048664fabf637cfa276741366",
      "s": "0x6c67bc3c2e63da6c96ec21e513cba41fc8dd6387fbb69da287fa80be3cda2114",
      "v": 28,
      "creates": null,
      "raw": "0xf86e10850d23ee12e283015f90946d921977defe5f4e0682ca512de1d07b1f4802e18901ae361fc1451c0000801ca0642c106a536d893e657b1fa8781573d534c0c63048664fabf637cfa276741366a06c67bc3c2e63da6c96ec21e513cba41fc8dd6387fbb69da287fa80be3cda2114",
      "networkId": 0,
      "chainId": 0
    }
  ]
}