{
  "hash": "0x7e7d13e16e20be50557f8be64aed8233bfb2e4cc6be1f6ded306cae2a5383faf",
  "parentHash": "0x51c6cbe157c0e38bb2341cdb2c70e3217a018f2a9cf5d6791bab65e42badb276",
  "number": 112700,
  "timestamp": 1440011740,
  "nonce": "0x7a191d71415ccd22",
  "difficulty": 4419493428488,
  "gasLimit": {
    "_hex": "0x2fefd8"
  },
  "gasUsed": {
    "_hex": "0xa410"
  },
  "miner": "0xe6A7a1d47ff21B6321162AEA7C6CB457D5476Bca",
  "extraData": "0x476574682f76312e302e312d38326566323666362f6c696e75782f676f312e34",
  "transactions": [
    {
      "hash": "0xee064ba1f67707faa22d53fd2c28e706be30a6e40dc71943e2c7d030dd62bb28",
      "blockHash": "0x7e7d13e16e20be50557f8be64aed8233bfb2e4cc6be1f6ded306cae2a5383faf",
      "blockNumber": 112700,
      "transactionIndex": 0,
      "confirmations": null,
      "from": "0xeD3Fe86896534C24D9F91232faE34b78DFf3c1f4",
      "gasPrice": {
        "_hex": "0xd8a51bec8"
      },
      "gasLimit": {
        "_hex": "0x5208"
      },
      "to": "0x32Be343B94f860124dC4fEe278FDCBD38C102D88",
      "value": {
        "_hex": "0x31d8dae2b14c4400"
      },
      "nonce": 8,
      "data": "0x",
      "r": "0x81d7d74c234ae36f9f4b229273118658cde69644369c977063089893f3ea3efd",
      "s": "0x13ea36010239e6913180dd54803163f01859bc5107c7246b57521f565e26ef2e",
      "v": 27,
      "creates": null,
      "raw": "0xf86c08850d8a51bec88252089432be343b94f860124dc4fee278fdcbd38c102d888831d8dae2b14c4400801ba081d7d74c234ae36f9f4b229273118658cde69644369c977063089893f3ea3efda013ea36010239e6913180dd54803163f01859bc5107c7246b57521f565e26ef2e",
      "networkId": 0,
      "chainId": 0
    },
    {
      "hash": "0x6ce2dbbc0038958785ef7b0d697aec63b851641427ea1ec6936aa56f2b260930",
      "blockHash": "0x7e7d13e16e20be50557f8be64aed8233bfb2e4cc6be1f6ded306cae2a5383faf",
      "blockNumber": 112700,
      "transactionIndex": 1,
      "confirmations": null,
      "from": "0x519DC97eF09491aE962A8F13fe144c71feca4662",
      "gasPrice": {
        "_hex": "0xd8a51bec8"
      },
      "gasLimit": {
        "_hex": "0x5208"
      },
      "to": "0x32Be343B94f860124dC4fEe278FDCBD38C102D88",
      "value": {
        "_hex": "0x3388aae1e7c84800"
      },
      "nonce": 12,
      "data": "0x",
      "r": "0x446ecb509fa4c4d6259c4f1be7c77d5e2cb0ab12c8c690725b7d77d4552c0a58",
      "s": "0x5480722ec989a71159873f97287cf9ef24ce32217258b05440c8fc1bd85c10a0",
      "v": 28,
      "creates": null,
      "raw": "0xf86c0c850d8a51bec88252089432be343b94f860124dc4fee278fdcbd38c102d88883388aae1e7c84800801ca0446ecb509fa4c4d6259c4f1be7c77d5e2cb0ab12c8c690725b7d77d4552c0a58a05480722ec989a71159873f97287cf9ef24ce32217258b05440c8fc1bd85c10a0",
      "networkId": 0,
      "chainId": 0
    }
  ]
}