{
  "hash": "0x72a09cd4196aa94f26b68a20abb970c86251c6c3cec16d5420e4dd5c92a8fee7",
  "parentHash": "0xcfb3fbbf1a9c33198045dc0cb7233a65eed733f1311d9acec80678d9c50d59cc",
  "number": 95065,
  "timestamp": 1439718448,
  "nonce": "0x7977f447ca550e7f",
  "difficulty": 3491510145463,
  "gasLimit": {
    "_hex": "0x2fefd5"
  },
  "gasUsed": {
    "_hex": "0xf618"
  },
  "miner": "0x9746c7e1ef2bd21FF3997fa467593a89cb852BD0",
  "extraData": "0x476574682f76312e302e312f77696e646f77732f676f312e342e32",
  "transactions": [
    {
      "hash": "0xe1366fff7efde13aa44e2b9388ab2ed8191fbe0d1c9cd074302cc860c27bcd96",
      "blockHash": "0x72a09cd4196aa94f26b68a20abb970c86251c6c3cec16d5420e4dd5c92a8fee7",
      "blockNumber": 95065,
      "transactionIndex": 0,
      "confirmations": null,
      "from": "0xB7268c7705A1866b2A78e882fdfDc8E2a4e1428E",
      "gasPrice": {
        "_hex": "0xce78da0c3"
      },
      "gasLimit": {
        "_hex": "0x15f90"
      },
      "to": "0x96811Ad897894eC178872117C8BF2f03971A393B",
      "value": {
        "_hex": "0x1ae361fc1451c0000"
      },
      "nonce": 33,
      "data": "0x",
      "r": "0xe0d357119e89b1953a290a78bd19fede4c5e57e162412aebab2b3499d3f6ce34",
      "s": "0x5715c0bee9ce1e44e8b299f53408879f9c0ab3ae7294b683fc84089216cce48c",
      "v": 27,
      "creates": null,
      "raw": "0xf86e21850ce78da0c383015f909496811ad897894ec178872117c8bf2f03971a393b8901ae361fc1451c0000801ba0e0d357119e89b1953a290a78bd19fede4c5e57e162412aebab2b3499d3f6ce34a05715c0bee9ce1e44e8b299f53408879f9c0ab3ae7294b683fc84089216cce48c",
      "networkId": 0,
      "chainId": 0
    },
    {
      "hash": "0x9f329257c2e32f495245e4c7b5f7a7bc30776f8efa1894638436e789a166212c",
      "blockHash": "0x72a09cd4196aa94f26b68a20abb970c86251c6c3cec16d5420e4dd5c92a8fee7",
      "blockNumber": 95065,
      "transactionIndex": 1,
      "confirmations": null,
      "from": "0x859217617481BD9b6E3e38f6aE9BB677F0D26154",
      "gasPrice": {
        "_hex": "0xcbc5f7c79"
      },
      "gasLimit": {
        "_hex": "0x5208"
      },
      "to": "0x32Be343B94f860124dC4fEe278FDCBD38C102D88",
      "value": {
        "_hex": "0x6c6b8f46cf2dcc0000"
      },
      "nonce": 9,
      "data": "0x",
      "r": "0xe7232b5c9bfdddb4b4cbf581ad4419bd16e5f9cf8869031cba8764e0b394c201",
      "s": "0x05fbe07fd6cf74215234ed5f93b06203c1486d714c6cdb99e531a2a574a4cb61",
      "v": 28,
      "creates": null,
      "raw": "0xf86d09850cbc5f7c798252089432be343b94f860124dc4fee278fdcbd38c102d88896c6b8f46cf2dcc0000801ca0e7232b5c9bfdddb4b4cbf581ad4419bd16e5f9cf8869031cba8764e0b394c201a005fbe07fd6cf74215234ed5f93b06203c1486d714c6cdb99e531a2a574a4cb61",
      "networkId": 0,
      "chainId": 0
    },
    {
      "hash": "0xc877d75f9a3cf13f70eca9336aef56829597e7a87c836132464ad705555d9ac6",
      "blockHash": "0x72a09cd4196aa94f26b68a20abb970c86251c6c3cec16d5420e4dd5c92a8fee7",
      "blockNumber": 95065,
      "transactionIndex": 2,
      "confirmations": null,
      "from": "0xa70a9a7040d542C632D8e0bE7c5513A8a5Bbc752",
      "gasPrice": {
        "_hex": "0xcbc5f7c79"
      },
      "gasLimit": {
        "_hex": "0x5208"
      },
      "to": "0x32Be343B94f860124dC4fEe278FDCBD38C102D88",
      "value": {
        "_hex": "0x455f7cc5b57fe800"
      },
      "nonce": 153,
      "data": "0x",
      "r": "0x7acbfcc367651c0c6b075ba09166f8461528d813531dff3ab9d90a0c1e35093c",
      "s": "0x0c6f38ea258f75646b80849fba43dba60dd600a83598c6534be017e45f144955",
      "v": 28,
      "creates": null,
      "raw": "0xf86d8199850cbc5f7c798252089432be343b94f860124dc4fee278fdcbd38c102d8888455f7cc5b57fe800801ca07acbfcc367651c0c6b075ba09166f8461528d813531dff3ab9d90a0c1e35093ca00c6f38ea258f75646b80849fba43dba60dd600a83598c6534be017e45f144955",
      "networkId": 0,
      "chainId": 0
    }
  ]
}