{
  "hash": "0x319ce3c9d499989771486d7a9564122218175a442f65bb5f4155378ee66e4090",
  "parentHash": "0xc4d328b6b4e9d4b7c86b03cc41179e01a85ca39f1d06f13e1a67e791cdf8b4fa",
  "number": 75798,
  "timestamp": 1439409467,
  "nonce": "0xf0b98024931668d0",
  "difficulty": 2229879449161,
  "gasLimit": {
    "_hex": "0x2fefd8"
  },
  "gasUsed": {
    "_hex": "0x2069f"
  },
  "miner": "0xB1A4B41b8e75a153841c99c62d18588d45e7b406",
  "extraData": "0x",
  "transactions": [
    {
      "hash": "0x3868ec42cc5ed82530c50b97430c9f525eb185816b99c1e65289a967d01a9474",
      "blockHash": "0x319ce3c9d499989771486d7a9564122218175a442f65bb5f4155378ee66e4090",
      "blockNumber": 75798,
      "transactionIndex": 0,
      "confirmations": null,
      "from": "0x326Be8F71bFb0379f989aAB1CC1fE37f0a771f60",
      "gasPrice": {
        "_hex": "0xfda88a20ec"
      },
      "gasLimit": {
        "_hex": "0x493e0"
      },
      "to": "0xD79B4C6791784184e2755B2fC1659eaaB0f80456",
      "value": {
        "_hex": "0xde0b6b3a7640000"
      },
      "nonce": 112,
      "data": "0x8d216186000000000000000000000000000000000000000000000000000000000000008012d60a85e4578dd657f92277316aaa034a57d3a470c120825aef249dcefa4446",
      "r": "0x9f0ff49ff1a82281a87470706b1d20aeaa14d1f62fe4b5f057eb8d836fccc37c",
      "s": "0x0c858f3bf9879747c7a67c517ec182932795188a60f01d13e7a70659a64e9b95",
      "v": 28,
      "creates": null,
      "raw": "0xf8b27085fda88a20ec830493e094d79b4c6791784184e2755b2fc1659eaab0f80456880de0b6b3a7640000b8448d216186000000000000000000000000000000000000000000000000000000000000008012d60a85e4578dd657f92277316aaa034a57d3a470c120825aef249dcefa44461ca09f0ff49ff1a82281a87470706b1d20aeaa14d1f62fe4b5f057eb8d836fccc37ca00c858f3bf9879747c7a67c517ec182932795188a60f01d13e7a70659a64e9b95",
      "networkId": 0,
      "chainId": 0
    },
    {
      "hash": "0xdfa546d04f0fa074d9c86e3ec86cbc97eeecf591d7df09be4891d0996c79aa74",
      "blockHash": "0x319ce3c9d499989771486d7a9564122218175a442f65bb5f4155378ee66e4090",
      "blockNumber": 75798,
      "transactionIndex": 1,
      "confirmations": null,
      "from": "0x32Be343B94f860124dC4fEe278FDCBD38C102D88",
      "gasPrice": {
        "_hex": "0xd615409ea"
      },
      "gasLimit": {
        "_hex": "0x5208"
      },
      "to": "0x7bCa1da6C80A66bAA5dB5ac98541c4be276B447D",
      "value": {
        "_hex": "0x14cc0598c890ad0000"
      },
      "nonce": 345,
      "data": "0x",
      "r": "0xa9e1e722fe53ca6014760fbb154377aea583d419997eb4bc631d0ba350bf25c9",
      "s": "0x0d2a9285d42387e0fbba5b56460beff0b3022f78878b3ebdac8b09e414c9d095",
      "v": 28,
      "creates": null,
      "raw": "0xf86f820159850d615409ea825208947bca1da6c80a66baa5db5ac98541c4be276b447d8914cc0598c890ad0000801ca0a9e1e722fe53ca6014760fbb154377aea583d419997eb4bc631d0ba350bf25c9a00d2a9285d42387e0fbba5b56460beff0b3022f78878b3ebdac8b09e414c9d095",
      "networkId": 0,
      "chainId": 0
    }
  ]
}