{
  "hash": "0xefa7b48513d808ff9884edc81524692fdaaaa3e366716fd8dcc04ec1a27b0a1c",
  "parentHash": "0x36e0cbc57ec0143027410d3f28f3f6e92bc315b7cf1ec5836d8bdae882ff0c07",
  "number": 49149,
  "timestamp": 1438968886,
  "nonce": "0x697606cb8488f977",
  "difficulty": 1474944548608,
  "gasLimit": {
    "_hex": "0x2728a"
  },
  "gasUsed": {
    "_hex": "0x546c"
  },
  "miner": "0xf8E0CA3Ed80bd541b94BEdCf259e8CF2141A9523",
  "extraData": "0x476574682f76312e302e312f77696e646f77732f676f312e342e32",
  "transactions": [
    {
      "hash": "0x1440f9d80af3fdc61bb3da412b69a101533e0b9ac6d35f051cb3ffd9c9fc17b1",
      "blockHash": "0xefa7b48513d808ff9884edc81524692fdaaaa3e366716fd8dcc04ec1a27b0a1c",
      "blockNumber": 49149,
      "transactionIndex": 0,
      "confirmations": null,
      "from": "0x892E75d6aA470004954fCAcc47Dce91652467906",
      "gasPrice": {
        "_hex": "0xd4ba00269"
      },
      "gasLimit": {
        "_hex": "0x7530"
      },
      "to": "0x2910543Af39abA0Cd09dBb2D50200b3E800A63D2",
      "value": {
        "_hex": "0x97c9ce4cf6d5c0000"
      },
      "nonce": 0,
      "data": "0x454e52315751343752",
      "r": "0x64d009eb78a10a9d4baf32432e84bd19f7aa0f6f0ff9fa2cd0a052e5155dfd46",
      "s": "0x2c214a4feacebbd7ad07bbd565c95ae74338f1c99f06ab5fa6dd3ca3b5cf76e1",
      "v": 27,
      "creates": null,
      "raw": "0xf87680850d4ba00269827530942910543af39aba0cd09dbb2d50200b3e800a63d289097c9ce4cf6d5c000089454e523157513437521ba064d009eb78a10a9d4baf32432e84bd19f7aa0f6f0ff9fa2cd0a052e5155dfd46a02c214a4feacebbd7ad07bbd565c95ae74338f1c99f06ab5fa6dd3ca3b5cf76e1",
      "networkId": 0,
      "chainId": 0
    }
  ]
}