{
  "hash": "0x34ce4aa770b320c7cfef2ad8a64637e678b959812d2d80eb9b0b69e8b056351a",
  "parentHash": "0x38a5e32639bb925b40d539282a7eba7447ac3a2aee7a684ac0f5beecbd56b56e",
  "number": 110372,
  "timestamp": 1439972682,
  "nonce": "0x970a3540fa0dbeeb",
  "difficulty": 4360691840377,
  "gasLimit": {
    "_hex": "0x2fefd8"
  },
  "gasUsed": {
    "_hex": "0x5208"
  },
  "miner": "0xe6A7a1d47ff21B6321162AEA7C6CB457D5476Bca",
  "extraData": "0x476574682f76312e302e312d38326566323666362f6c696e75782f676f312e34",
  "transactions": [
    {
      "hash": "0x0b80f91fef4e14989e272e2f45f0bbb9d8fe093efcbccecc3f801ffbad9364c6",
      "blockHash": "0x34ce4aa770b320c7cfef2ad8a64637e678b959812d2d80eb9b0b69e8b056351a",
      "blockNumber": 110372,
      "transactionIndex": 0,
      "confirmations": null,
      "from": "0x267069452478cA39b3f5F1A4fFdD4131f50Bc977",
      "gasPrice": {
        "_hex": "0xde0ce6419"
      },
      "gasLimit": {
        "_hex": "0x5208"
      },
      "to": "0x32Be343B94f860124dC4fEe278FDCBD38C102D88",
      "value": {
        "_hex": "0x1a7091eaf0bcce000"
      },
      "nonce": 10,
      "data": "0x",
      "r": "0xe3e010a7a2dcd0a93c0620ddc796b5171fee09f0bd0c172dda816bb62501b7f4",
      "s": "0x292910ab55cd3e878594cf24e5efa0d8ff44a4bfe3e21def863f375f6079fc1b",
      "v": 28,
      "creates": null,
      "raw": "0xf86d0a850de0ce64198252089432be343b94f860124dc4fee278fdcbd38c102d888901a7091eaf0bcce000801ca0e3e010a7a2dcd0a93c0620ddc796b5171fee09f0bd0c172dda816bb62501b7f4a0292910ab55cd3e878594cf24e5efa0d8ff44a4bfe3e21def863f375f6079fc1b",
      "networkId": 0,
      "chainId": 0
    }
  ]
}