{
  "hash": "0xf0dd42d4f121c808ceb236a6c3658b41ec9fd4ffdbd6342e2fe5af2172542dea",
  "parentHash": "0xd401cda4fbe9c4dedc665588e61cc4f28a6b39331781e1bf35208e442f8e80fc",
  "number": 67352,
  "timestamp": 1439270573,
  "nonce": "0xc414b059d68d85ce",
  "difficulty": 1927974520403,
  "gasLimit": {
    "_hex": "0x2fefd8"
  },
  "gasUsed": {
    "_hex": "0x5208"
  },
  "miner": "0x72e3Ea8234b449531A581F05f1c1E07cceb559d2",
  "extraData": "0x476574682f76312e302e312f6c696e75782f676f312e342e32",
  "transactions": [
    {
      "hash": "0x193a9d7f8def84fcae7a136dc75f6abbb8c137823be6e78da8d66cece4494a79",
      "blockHash": "0xf0dd42d4f121c808ceb236a6c3658b41ec9fd4ffdbd6342e2fe5af2172542dea",
      "blockNumber": 67352,
      "transactionIndex": 0,
      "confirmations": null,
      "from": "0x32Be343B94f860124dC4fEe278FDCBD38C102D88",
      "gasPrice": {
        "_hex": "0xd24b051f6"
      },
      "gasLimit": {
        "_hex": "0x5208"
      },
      "to": "0x120A270bbC009644e35F0bB6ab13f95b8199c4ad",
      "value": {
        "_hex": "0x5150ae84a8cdf00000"
      },
      "nonce": 210,
      "data": "0x",
      "r": "0x05a7018b5c0e762823840b37f1426c83a13495f6dc6fcc1e780f54f448170964",
      "s": "0x2f394252436b1c294dd1f884fe544e478897136f0bfa222e4a9fafc274151ad8",
      "v": 27,
      "creates": null,
      "raw": "0xf86e81d2850d24b051f682520894120a270bbc009644e35f0bb6ab13f95b8199c4ad895150ae84a8cdf00000801ba005a7018b5c0e762823840b37f1426c83a13495f6dc6fcc1e780f54f448170964a02f394252436b1c294dd1f884fe544e478897136f0bfa222e4a9fafc274151ad8",
      "networkId": 0,
      "chainId": 0
    }
  ]
}