{
  "hash": "0xd0fef25d755056efe50431c66a1df709bfccfd8352e29be6947ddf1c2accac83",
  "parentHash": "0xc1e52c21a1d551edf509938d9a117558e50b6661670574ff14cd37af77b33b85",
  "number": 94422,
  "timestamp": 1439708125,
  "nonce": "0x8877d1e560ce449b",
  "difficulty": 3490073231938,
  "gasLimit": {
    "_hex": "0x2fefd8"
  },
  "gasUsed": {
    "_hex": "0x5208"
  },
  "miner": "0xa70a9a7040d542C632D8e0bE7c5513A8a5Bbc752",
  "extraData": "0x",
  "transactions": [
    {
      "hash": "0x7cae58ae115fdf3059d7a9b3a09d392e9adef0cd1a3228a4a97500ba43605406",
      "blockHash": "0xd0fef25d755056efe50431c66a1df709bfccfd8352e29be6947ddf1c2accac83",
      "blockNumber": 94422,
      "transactionIndex": 0,
      "confirmations": null,
      "from": "0x0F7606315036EF870B5D92Cd9e52b8d4f771a7eA",
      "gasPrice": {
        "_hex": "0xd2f05a88a"
      },
      "gasLimit": {
        "_hex": "0x15f90"
      },
      "to": "0x52F791EE5e11186Fc120EaB36Dd80277F6A630BB",
      "value": {
        "_hex": "0x3782dace9d900000"
      },
      "nonce": 2,
      "data": "0x",
      "r": "0xc01ab30602033d4052b2ecaa6497b8861db6a99504e96cd9ba644007f2838613",
      "s": "0x5e8c3e20bb584b43d25582ad1f69dfd6bfb622fd66684f28efad555e5d655bfd",
      "v": 28,
      "creates": null,
      "raw": "0xf86d02850d2f05a88a83015f909452f791ee5e11186fc120eab36dd80277f6a630bb883782dace9d900000801ca0c01ab30602033d4052b2ecaa6497b8861db6a99504e96cd9ba644007f2838613a05e8c3e20bb584b43d25582ad1f69dfd6bfb622fd66684f28efad555e5d655bfd",
      "networkId": 0,
      "chainId": 0
    }
  ]
}