{
  "hash": "0x52054625bd5cfa6de0ff78b486a76c4dcc800dd7b13fdce48b226f63c108fff7",
  "parentHash": "0x3e491dc35eee94f2183cd916ea5e3eb8db4cbbe1d5a0388bd6c1161878077d53",
  "number": 107989,
  "timestamp": 1439932144,
  "nonce": "0x361ea757b95f0a77",
  "difficulty": 4359801453959,
  "gasLimit": {
    "_hex": "0x2fefd8"
  },
  "gasUsed": {
    "_hex": "0x2e248"
  },
  "miner": "0xf927a40C8B7F6E07c5af7FA2155B4864a4112B13",
  "extraData": "0x",
  "transactions": [
    {
      "hash": "0x827f54697dc8ce3ed557586637396b5296db8fd19a78ea5e93204def328f85a1",
      "blockHash": "0x52054625bd5cfa6de0ff78b486a76c4dcc800dd7b13fdce48b226f63c108fff7",
      "blockNumber": 107989,
      "transactionIndex": 0,
      "confirmations": null,
      "from": "0x9D551f41feD6FC27B719777c224DfeCcE170004d",
      "gasPrice": {
        "_hex": "0xe0b6c2636"
      },
      "gasLimit": {
        "_hex": "0x15f90"
      },
      "to": "0x27B5b2873c459B6ed3802C07a67449D4c584d29B",
      "value": {
        "_hex": "0x13be6764dfc3e500"
      },
      "nonce": 0,
      "data": "0x",
      "r": "0x53ec3123b7ef7d900c199497a3e5cd77c144042a6d57f512326502b53ef1df4d",
      "s": "0x36585b5781f30b9cacca23a60623722fce57272427d5d0d7524dcda1aac78959",
      "v": 28,
      "creates": null,
      "raw": "0xf86d80850e0b6c263683015f909427b5b2873c459b6ed3802c07a67449d4c584d29b8813be6764dfc3e500801ca053ec3123b7ef7d900c199497a3e5cd77c144042a6d57f512326502b53ef1df4da036585b5781f30b9cacca23a60623722fce57272427d5d0d7524dcda1aac78959",
      "networkId": 0,
      "chainId": 0
    },
    {
      "hash": "0xe45ed45b14c392f7c8505c38bdcf8f4bc302b515284ee07cf2f84b93b1ca477c",
      "blockHash": "0x52054625bd5cfa6de0ff78b486a76c4dcc800dd7b13fdce48b226f63c108fff7",
      "blockNumber": 107989,
      "transactionIndex": 1,
      "confirmations": null,
      "from": "0x9D551f41feD6FC27B719777c224DfeCcE170004d",
      "gasPrice": {
        "_hex": "0xe0b6c2636"
      },
      "gasLimit": {
        "_hex": "0x15f90"
      },
      "to": "0xc1F479503E1c1Faa9ca5736CE190804960580F38",
      "value": {
        "_hex": "0x11d1621512baae00"
      },
      "nonce": 1,
      "data": "0x",
      "r": "0xdb6ee7f5d4d7365d8e70ae682dac55b69666a50b88a496c79296e2472b90bf05",
      "s": "0x26a03b3b8b34bea08aeb4609f03bd4898592b1452d2aa078b622d00eae7baa2f",
      "v": 27,
      "creates": null,
      "raw": "0xf86d01850e0b6c263683015f9094c1f479503e1c1faa9ca5736ce190804960580f388811d1621512baae00801ba0db6ee7f5d4d7365d8e70ae682dac55b69666a50b88a496c79296e2472b90bf05a026a03b3b8b34bea08aeb4609f03bd4898592b1452d2aa078b622d00eae7baa2f",
      "networkId": 0,
      "chainId": 0
    },
    {
      "hash": "0x02c1c238c51d3d51c45a20362c8e60f9210c2e200f107a9c172f3fa7ccec3cee",
      "blockHash": "0x52054625bd5cfa6de0ff78b486a76c4dcc800dd7b13fdce48b226f63c108fff7",
      "blockNumber": 107989,
      "transactionIndex": 2,
      "confirmations": null,
      "from": "0x9D551f41feD6FC27B719777c224DfeCcE170004d",
      "gasPrice": {
        "_hex": "0xe0b6c2636"
      },
      "gasLimit": {
        "_hex": "0x15f90"
      },
      "to": "0xbd4937d0D4B8028BbeF37193be765cf34082FAD2",
      "value": {
        "_hex": "0x40dfe28002feb800"
      },
      "nonce": 2,
      "data": "0x",
      "r": "0xb46c8afd46a92ae7a8ef1dece296d6980f29077d62f84ccf9e3ab8d3c3d92b06",
      "s": "0x26a218a78f76749603d06b7226cd786b3e15fff777f2c197e94831558d1cc380",
      "v": 27,
      "creates": null,
      "raw": "0xf86d02850e0b6c263683015f9094bd4937d0d4b8028bbef37193be765cf34082fad28840dfe28002feb800801ba0b46c8afd46a92ae7a8ef1dece296d6980f29077d62f84ccf9e3ab8d3c3d92b06a026a218a78f76749603d06b7226cd786b3e15fff777f2c197e94831558d1cc380",
      "networkId": 0,
      "chainId": 0
    },
    {
      "hash": "0x5534d8ba7d9d162f2dba6ea324af18c399ae73a57b4be0461dc759860628702d",
      "blockHash": "0x52054625bd5cfa6de0ff78b486a76c4dcc800dd7b13fdce48b226f63c108fff7",
      "blockNumber": 107989,
      "transactionIndex": 3,
      "confirmations": null,
      "from": "0x9D551f41feD6FC27B719777c224DfeCcE170004d",
      "gasPrice": {
        "_hex": "0xe0b6c2636"
      },
      "gasLimit": {
        "_hex": "0x15f90"
      },
      "to": "0xe0F2071907ecf7F55DF7a681Cd68fa5b7575eA7b",
      "value": {
        "_hex": "0x4128ad084aed8800"
      },
      "nonce": 3,
      "data": "0x",
      "r": "0xa714b521c9ad8270dac991d6c4a13f34eadb0ce95076e4e79667604d0420bfd0",
      "s": "0x52a507c6039f54ff25b1ccce9ea06240d0f23bea063c544e323450c1609a63e4",
      "v": 28,
      "creates": null,
      "raw": "0xf86d03850e0b6c263683015f9094e0f2071907ecf7f55df7a681cd68fa5b7575ea7b884128ad084aed8800801ca0a714b521c9ad8270dac991d6c4a13f34eadb0ce95076e4e79667604d0420bfd0a052a507c6039f54ff25b1ccce9ea06240d0f23bea063c544e323450c1609a63e4",
      "networkId": 0,
      "chainId": 0
    },
    {
      "hash": "0xe3af4d00340e80ec28c51a5c2d30494c69e00a33e1d16011ec09cda31b084311",
      "blockHash": "0x52054625bd5cfa6de0ff78b486a76c4dcc800dd7b13fdce48b226f63c108fff7",
      "blockNumber": 107989,
      "transactionIndex": 4,
      "confirmations": null,
      "from": "0x9D551f41feD6FC27B719777c224DfeCcE170004d",
      "gasPrice": {
        "_hex": "0xe0b6c2636"
      },
      "gasLimit": {
        "_hex": "0x15f90"
      },
      "to": "0x5F8beD872590656DbaD937e60468CF7b0ECf12BF",
      "value": {
        "_hex": "0x2481646da79c6a00"
      },
      "nonce": 4,
      "data": "0x",
      "r": "0xcf616b4dc7ea9c66c35c398955282cd431ce2774971eb54f2c8425428ea15707",
      "s": "0x4c8fc898e13ceec9d1d3f0a93bf4cc49b50794614979ab4c485db58456b49f08",
      "v": 28,
      "creates": null,
      "raw": "0xf86d04850e0b6c263683015f90945f8bed872590656dbad937e60468cf7b0ecf12bf882481646da79c6a00801ca0cf616b4dc7ea9c66c35c398955282cd431ce2774971eb54f2c8425428ea15707a04c8fc898e13ceec9d1d3f0a93bf4cc49b50794614979ab4c485db58456b49f08",
      "networkId": 0,
      "chainId": 0
    },
    {
      "hash": "0x073fb0589bc0bcc9c389eba04e49b086863834f2b39684e4c6a7163a0adfe33f",
      "blockHash": "0x52054625bd5cfa6de0ff78b486a76c4dcc800dd7b13fdce48b226f63c108fff7",
      "blockNumber": 107989,
      "transactionIndex": 5,
      "confirmations": null,
      "from": "0x9D551f41feD6FC27B719777c224DfeCcE170004d",
      "gasPrice": {
        "_hex": "0xe0b6c2636"
      },
      "gasLimit": {
        "_hex": "0x15f90"
      },
      "to": "0x7C8DB6DAEA570E518f36c83653E7cc0fcF87C232",
      "value": {
        "_hex": "0x29aebe9029538800"
      },
      "nonce": 5,
      "data": "0x",
      "r": "0x6e0e242d302d392e1fe265d8ac5e50a525597013803d86534e5ca0efbc6ed45b",
      "s": "0x341aa8a2ff28b53f46dc25a12f96d459f6c417f2cfa21af37cf4d9d700740628",
      "v": 28,
      "creates": null,
      "raw": "0xf86d05850e0b6c263683015f90947c8db6daea570e518f36c83653e7cc0fcf87c2328829aebe9029538800801ca06e0e242d302d392e1fe265d8ac5e50a525597013803d86534e5ca0efbc6ed45ba0341aa8a2ff28b53f46dc25a12f96d459f6c417f2cfa21af37cf4d9d700740628",
      "networkId": 0,
      "chainId": 0
    },
    {
      "hash": "0x5dfaf7fbd11e251504b663b793eb00cc3f94bb6dcf455acc74958f0e6101e22f",
      "blockHash": "0x52054625bd5cfa6de0ff78b486a76c4dcc800dd7b13fdce48b226f63c108fff7",
      "blockNumber": 107989,
      "transactionIndex": 6,
      "confirmations": null,
      "from": "0x9D551f41feD6FC27B719777c224DfeCcE170004d",
      "gasPrice": {
        "_hex": "0xe0b6c2636"
      },
      "gasLimit": {
        "_hex": "0x15f90"
      },
      "to": "0xc42333fFCaB0a62138cf32808723Db35bB9dC45b",
      "value": {
        "_hex": "0x24e109f3b59aa800"
      },
      "nonce": 6,
      "data": "0x",
      "r": "0x2da5a52ae48a966289562897d3d1698c8e62d2bee444b6868b39c141ee6bd276",
      "s": "0x7addf833ec359eb97f3c1bc31881918c58f05556f440a368eaaa9b61802ee380",
      "v": 27,
      "creates": null,
      "raw": "0xf86d06850e0b6c263683015f9094c42333ffcab0a62138cf32808723db35bb9dc45b8824e109f3b59aa800801ba02da5a52ae48a966289562897d3d1698c8e62d2bee444b6868b39c141ee6bd276a07addf833ec359eb97f3c1bc31881918c58f05556f440a368eaaa9b61802ee380",
      "networkId": 0,
      "chainId": 0
    },
    {
      "hash": "0xc38d57c617eef0e1505465fbf97f599be94e42b616a14061a2fbd2b986071c3a",
      "blockHash": "0x52054625bd5cfa6de0ff78b486a76c4dcc800dd7b13fdce48b226f63c108fff7",
      "blockNumber": 107989,
      "transactionIndex": 7,
      "confirmations": null,
      "from": "0x9D551f41feD6FC27B719777c224DfeCcE170004d",
      "gasPrice": {
        "_hex": "0xe0b6c2636"
      },
      "gasLimit": {
        "_hex": "0x15f90"
      },
      "to": "0x983C3f45E26ee1a84155C1dDBB1cfDBf85a4d2b3",
      "value": {
        "_hex": "0x166154927f04190"
      },
      "nonce": 7,
      "data": "0x",
      "r": "0x8556db21fec0ecf68c8097f860409fa2a25b5e804d7d184ae8be32b94a767e2e",
      "s": "0x1790da192edb720385744eff1fa2017c3a74056585d61b733e8a99f9ffb41888",
      "v": 27,
      "creates": null,
      "raw": "0xf86d07850e0b6c263683015f9094983c3f45e26ee1a84155c1ddbb1cfdbf85a4d2b3880166154927f04190801ba08556db21fec0ecf68c8097f860409fa2a25b5e804d7d184ae8be32b94a767e2ea01790da192edb720385744eff1fa2017c3a74056585d61b733e8a99f9ffb41888",
      "networkId": 0,
      "chainId": 0
    },
    {
      "hash": "0xfb7593b52406f14cec467419a275e391dc6d8671b166d67f27bb0a4b56f5279d",
      "blockHash": "0x52054625bd5cfa6de0ff78b486a76c4dcc800dd7b13fdce48b226f63c108fff7",
      "blockNumber": 107989,
      "transactionIndex": 8,
      "confirmations": null,
      "from": "0x120A270bbC009644e35F0bB6ab13f95b8199c4ad",
      "gasPrice": {
        "_hex": "0xdad9117eb"
      },
      "gasLimit": {
        "_hex": "0x3d090"
      },
      "to": "0xD021d7e87Aa8053C9A196aEF9ad37Aa7CdC44898",
      "value": {
        "_hex": "0x5aff0804fd7620000"
      },
      "nonce": 822,
      "data": "0x",
      "r": "0x7bd52773235daefff3b47896366a7c2e7f1a69b8578635b087bee2f3dcd251a2",
      "s": "0x0574f17fc1a452a4505b81101b868900dca88b7817051e3bb1179cbf960d6988",
      "v": 27,
      "creates": null,
      "raw": "0xf870820336850dad9117eb8303d09094d021d7e87aa8053c9a196aef9ad37aa7cdc448988905aff0804fd7620000801ba07bd52773235daefff3b47896366a7c2e7f1a69b8578635b087bee2f3dcd251a2a00574f17fc1a452a4505b81101b868900dca88b7817051e3bb1179cbf960d6988",
      "networkId": 0,
      "chainId": 0
    }
  ]
}