{
  "hash": "0xfa7cd7539c886d7a8c449049e235c9dfdc6347822600a6cb56498065ab4e8a14",
  "parentHash": "0x109b447e237daf3a9137efe2ac1a8d1f586e179d1df6fdefa3b3904db8e68167",
  "number": 89835,
  "timestamp": 1439629865,
  "nonce": "0xa278170d0e8029f6",
  "difficulty": 3343481059918,
  "gasLimit": {
    "_hex": "0x2fefd8"
  },
  "gasUsed": {
    "_hex": "0x61698"
  },
  "miner": "0x89972aA7C0b19D1aE9cd89386160c3f28f7bB590",
  "extraData": "0xd983010001844765746887676f312e342e328777696e646f7773",
  "transactions": [
    {
      "hash": "0x2cf555f5135da143838481d5b2d96418dcd46590ce28fd5b0097ce75fe3d5034",
      "blockHash": "0xfa7cd7539c886d7a8c449049e235c9dfdc6347822600a6cb56498065ab4e8a14",
      "blockNumber": 89835,
      "transactionIndex": 0,
      "confirmations": null,
      "from": "0xc8ebccC5F5689Fa8659d83713341e5aD19349448",
      "gasPrice": {
        "_hex": "0xd95cf7f34"
      },
      "gasLimit": {
        "_hex": "0x15f90"
      },
      "to": "0x0aab57d96E497755Ac735C0f1d5e1c24F78b5979",
      "value": {
        "_hex": "0xf3014d6d887276c0"
      },
      "nonce": 67,
      "data": "0x",
      "r": "0xb30001d172d9fdf43b4ba6185d60253a1d8f5b9da2b1f73be93308b91e7bdf41",
      "s": "0x53dd8db3483d4dd78f8d8345e6a55b1453f84971112bf2de78b9049e0f7816bf",
      "v": 28,
      "creates": null,
      "raw": "0xf86d43850d95cf7f3483015f90940aab57d96e497755ac735c0f1d5e1c24f78b597988f3014d6d887276c0801ca0b30001d172d9fdf43b4ba6185d60253a1d8f5b9da2b1f73be93308b91e7bdf41a053dd8db3483d4dd78f8d8345e6a55b1453f84971112bf2de78b9049e0f7816bf",
      "networkId": 0,
      "chainId": 0
    },
    {
      "hash": "0x340947b91392702d728b2b888152ccb186825e660715a50ad8249e6e9b31a6e5",
      "blockHash": "0xfa7cd7539c886d7a8c449049e235c9dfdc6347822600a6cb56498065ab4e8a14",
      "blockNumber": 89835,
      "transactionIndex": 1,
      "confirmations": null,
      "from": "0x7fDF07A0f977e4032C1f082Df831423abf58D13D",
      "gasPrice": {
        "_hex": "0xd7f7fbad0"
      },
      "gasLimit": {
        "_hex": "0x5208"
      },
      "to": "0x32Be343B94f860124dC4fEe278FDCBD38C102D88",
      "value": {
        "_hex": "0x46934d3afe38d000"
      },
      "nonce": 2,
      "data": "0x",
      "r": "0xd09233c37913f6d47ea2fecea2466b9409a1e66a18be4570f1020303b63efafb",
      "s": "0x261fad2b399ee07c0627a98a681d80edd626bb050f1a289283faa58de63acadb",
      "v": 27,
      "creates": null,
      "raw": "0xf86c02850d7f7fbad08252089432be343b94f860124dc4fee278fdcbd38c102d888846934d3afe38d000801ba0d09233c37913f6d47ea2fecea2466b9409a1e66a18be4570f1020303b63efafba0261fad2b399ee07c0627a98a681d80edd626bb050f1a289283faa58de63acadb",
      "networkId": 0,
      "chainId": 0
    },
    {
      "hash": "0x98fde9f706179173b658d5b6b4d029f904a788d1b3b1fb4a4dff07924f661f8e",
      "blockHash": "0xfa7cd7539c886d7a8c449049e235c9dfdc6347822600a6cb56498065ab4e8a14",
      "blockNumber": 89835,
      "transactionIndex": 2,
      "confirmations": null,
      "from": "0x0f7E5465DB8bC57940471E530a83Fb7Ac5b82d7f",
      "gasPrice": {
        "_hex": "0xd7f7fbad0"
      },
      "gasLimit": {
        "_hex": "0x5208"
      },
      "to": "0x32Be343B94f860124dC4fEe278FDCBD38C102D88",
      "value": {
        "_hex": "0x2ece314b334be400"
      },
      "nonce": 4,
      "data": "0x",
      "r": "0xe0f7e07e3d85e286dc299b986ecc08ce726ce3c9938fdceabb6440268c0791f0",
      "s": "0x386f4a93f84a3baba40ed1b5b1c7e855df5e647b1f9390776953ae856dc1d6cf",
      "v": 28,
      "creates": null,
      "raw": "0xf86c04850d7f7fbad08252089432be343b94f860124dc4fee278fdcbd38c102d88882ece314b334be400801ca0e0f7e07e3d85e286dc299b986ecc08ce726ce3c9938fdceabb6440268c0791f0a0386f4a93f84a3baba40ed1b5b1c7e855df5e647b1f9390776953ae856dc1d6cf",
      "networkId": 0,
      "chainId": 0
    },
    {
      "hash": "0x377c6724fd6dd14c55faefaebc1aab99e4a86ddfd11c524e6c81e36892a3095d",
      "blockHash": "0xfa7cd7539c886d7a8c449049e235c9dfdc6347822600a6cb56498065ab4e8a14",
      "blockNumber": 89835,
      "transactionIndex": 3,
      "confirmations": null,
      "from": "0x2b176421eEBBf303fa94aD4fE78362Fa9e4Ca693",
      "gasPrice": {
        "_hex": "0xd7f7fbad0"
      },
      "gasLimit": {
        "_hex": "0x5208"
      },
      "to": "0x32Be343B94f860124dC4fEe278FDCBD38C102D88",
      "value": {
        "_hex": "0x29d2806e26ccd8000"
      },
      "nonce": 4,
      "data": "0x",
      "r": "0xa45a65336178d845d5510ebaf4649a2d9153a92b06037374ab49a16868aafc30",
      "s": "0x0289349a14469ad2d67b35a173d39cee213ce796961f4db23702d215f201e205",
      "v": 27,
      "creates": null,
      "raw": "0xf86d04850d7f7fbad08252089432be343b94f860124dc4fee278fdcbd38c102d8889029d2806e26ccd8000801ba0a45a65336178d845d5510ebaf4649a2d9153a92b06037374ab49a16868aafc30a00289349a14469ad2d67b35a173d39cee213ce796961f4db23702d215f201e205",
      "networkId": 0,
      "chainId": 0
    },
    {
      "hash": "0xbe266804fe69354bee574eee72a92496a16f8e9afb2cd95868d59073a2469516",
      "blockHash": "0xfa7cd7539c886d7a8c449049e235c9dfdc6347822600a6cb56498065ab4e8a14",
      "blockNumber": 89835,
      "transactionIndex": 4,
      "confirmations": null,
      "from": "0x0D81FD2bB264D9Ee0F432599b443ae1B691f6134",
      "gasPrice": {
        "_hex": "0xd7f7fbad0"
      },
      "gasLimit": {
        "_hex": "0x5208"
      },
      "to": "0x32Be343B94f860124dC4fEe278FDCBD38C102D88",
      "value": {
        "_hex": "0x1069ba230d8669000"
      },
      "nonce": 4,
      "data": "0x",
      "r": "0x9361a58fb3ea99a6a3141f0c75c7b3750a1e48d40780fd8f09d2768f50056283",
      "s": "0x2aac10b23e150188237087cad63f184aa3b761b48872cc70017b59d4c4492d3f",
      "v": 28,
      "creates": null,
      "raw": "0xf86d04850d7f7fbad08252089432be343b94f860124dc4fee278fdcbd38c102d888901069ba230d8669000801ca09361a58fb3ea99a6a3141f0c75c7b3750a1e48d40780fd8f09d2768f50056283a02aac10b23e150188237087cad63f184aa3b761b48872cc70017b59d4c4492d3f",
      "networkId": 0,
      "chainId": 0
    },
    {
      "hash": "0xbd9dfa31e1a0bc38599d3ca5ba4715802ad2f1a524e68f1501e9dd6339f07aed",
      "blockHash": "0xfa7cd7539c886d7a8c449049e235c9dfdc6347822600a6cb56498065ab4e8a14",
      "blockNumber": 89835,
      "transactionIndex": 5,
      "confirmations": null,
      "from": "0xe6A7a1d47ff21B6321162AEA7C6CB457D5476Bca",
      "gasPrice": {
        "_hex": "0xd13ed228f"
      },
      "gasLimit": {
        "_hex": "0x55f0"
      },
      "to": "0x0a856CdC3EaFBAD120c51220d0F71d4Aa2Dee7AE",
      "value": {
        "_hex": "0x88c1a8c2e49be660"
      },
      "nonce": 2485,
      "data": "0x",
      "r": "0x225b6fa945c71b391059587fbb420859ac156411b3d89b7d319b7c7073d4b325",
      "s": "0x3ff26dfff331173c7eb6a5627a68094360e23aed05d43b47835525e174b9bc6d",
      "v": 27,
      "creates": null,
      "raw": "0xf86e8209b5850d13ed228f8255f0940a856cdc3eafbad120c51220d0f71d4aa2dee7ae8888c1a8c2e49be660801ba0225b6fa945c71b391059587fbb420859ac156411b3d89b7d319b7c7073d4b325a03ff26dfff331173c7eb6a5627a68094360e23aed05d43b47835525e174b9bc6d",
      "networkId": 0,
      "chainId": 0
    },
    {
      "hash": "0x5828076689413e9ba1b3d02ae7ba0c5005d2243b8acf426bd30494b392d0a588",
      "blockHash": "0xfa7cd7539c886d7a8c449049e235c9dfdc6347822600a6cb56498065ab4e8a14",
      "blockNumber": 89835,
      "transactionIndex": 6,
      "confirmations": null,
      "from": "0xe6A7a1d47ff21B6321162AEA7C6CB457D5476Bca",
      "gasPrice": {
        "_hex": "0xd13ed228f"
      },
      "gasLimit": {
        "_hex": "0x55f0"
      },
      "to": "0x63d25FB5edc318Aae1DEc4F3aBd7c645f921cff8",
      "value": {
        "_hex": "0x9fa34bccbab046e8"
      },
      "nonce": 2486,
      "data": "0x",
      "r": "0xf36eba3c8dfaaa2d5c758682738b3b4ecfa0a6f8742cadb250abb3a22afa195a",
      "s": "0x59f99d55370ea7d6efc2617a6f3f9664775f2373d1928cd5548a6623391a2c40",
      "v": 27,
      "creates": null,
      "raw": "0xf86e8209b6850d13ed228f8255f09463d25fb5edc318aae1dec4f3abd7c645f921cff8889fa34bccbab046e8801ba0f36eba3c8dfaaa2d5c758682738b3b4ecfa0a6f8742cadb250abb3a22afa195aa059f99d55370ea7d6efc2617a6f3f9664775f2373d1928cd5548a6623391a2c40",
      "networkId": 0,
      "chainId": 0
    },
    {
      "hash": "0xcbfddce7dbda155cde153e9b5d9113f7bd7e3088793466025f44eb9cce777534",
      "blockHash": "0xfa7cd7539c886d7a8c449049e235c9dfdc6347822600a6cb56498065ab4e8a14",
      "blockNumber": 89835,
      "transactionIndex": 7,
      "confirmations": null,
      "from": "0xe6A7a1d47ff21B6321162AEA7C6CB457D5476Bca",
      "gasPrice": {
        "_hex": "0xd13ed228f"
      },
      "gasLimit": {
        "_hex": "0x55f0"
      },
      "to": "0x4Ae88c32B4ab8552f9116CAD3560Ffd0e3155007",
      "value": {
        "_hex": "0xa9384c4584911160"
      },
      "nonce": 2487,
      "data": "0x",
      "r": "0x8b1e78ee4a4b93ac7baf74615da6ffa9b289cddf2dbb40cef2e8ad27d4d3d401",
      "s": "0x3e821f2b2318822c1b01a64b0b144193e495054de3b9934d80cc878d4bab207e",
      "v": 27,
      "creates": null,
      "raw": "0xf86e8209b7850d13ed228f8255f0944ae88c32b4ab8552f9116cad3560ffd0e315500788a9384c4584911160801ba08b1e78ee4a4b93ac7baf74615da6ffa9b289cddf2dbb40cef2e8ad27d4d3d401a03e821f2b2318822c1b01a64b0b144193e495054de3b9934d80cc878d4bab207e",
      "networkId": 0,
      "chainId": 0
    },
    {
      "hash": "0x581eecfc7c03dc16f26ac0550d9a8ffa01497c31ce003ee8b5a55da58f196530",
      "blockHash": "0xfa7cd7539c886d7a8c449049e235c9dfdc6347822600a6cb56498065ab4e8a14",
      "blockNumber": 89835,
      "transactionIndex": 8,
      "confirmations": null,
      "from": "0xe6A7a1d47ff21B6321162AEA7C6CB457D5476Bca",
      "gasPrice": {
        "_hex": "0xd13ed228f"
      },
      "gasLimit": {
        "_hex": "0x55f0"
      },
      "to": "0xD15B7A3ADE211fcCf62eb4d41557Bb7e62C7e3a0",
      "value": {
        "_hex": "0xb0712e7230d26890"
      },
      "nonce": 2488,
      "data": "0x",
      "r": "0x174014a3110757f347f33ca9363df115e35517221712b8151452a66329e1e310",
      "s": "0x030af7b7677187d83c213f70255048d1542c290063794147fc6d1ad9f4530670",
      "v": 28,
      "creates": null,
      "raw": "0xf86e8209b8850d13ed228f8255f094d15b7a3ade211fccf62eb4d41557bb7e62c7e3a088b0712e7230d26890801ca0174014a3110757f347f33ca9363df115e35517221712b8151452a66329e1e310a0030af7b7677187d83c213f70255048d1542c290063794147fc6d1ad9f4530670",
      "networkId": 0,
      "chainId": 0
    },
    {
      "hash": "0xb74febd8e768f4a40b5e7565dcbb58011d2d1fa60188d42632183cf6a5a975ee",
      "blockHash": "0xfa7cd7539c886d7a8c449049e235c9dfdc6347822600a6cb56498065ab4e8a14",
      "blockNumber": 89835,
      "transactionIndex": 9,
      "confirmations": null,
      "from": "0xe6A7a1d47ff21B6321162AEA7C6CB457D5476Bca",
      "gasPrice": {
        "_hex": "0xd13ed228f"
      },
      "gasLimit": {
        "_hex": "0x55f0"
      },
      "to": "0x1463cEF3d9007Db05b7C3B8981D38602EE0D855a",
      "value": {
        "_hex": "0xcaef9fe269160958"
      },
      "nonce": 2489,
      "data": "0x",
      "r": "0x83fd61100d4797581e763686d2ad962d97785c84fdbd9f360833805e1ded5957",
      "s": "0x6b4b2ac26f1e52a90c7b4e131959f54ec07b4e2f8bf575d53fac326376beaeb0",
      "v": 28,
      "creates": null,
      "raw": "0xf86e8209b9850d13ed228f8255f0941463cef3d9007db05b7c3b8981d38602ee0d855a88caef9fe269160958801ca083fd61100d4797581e763686d2ad962d97785c84fdbd9f360833805e1ded5957a06b4b2ac26f1e52a90c7b4e131959f54ec07b4e2f8bf575d53fac326376beaeb0",
      "networkId": 0,
      "chainId": 0
    },
    {
      "hash": "0x8be42618b2c834941d68c674893eb78e3de3f844ffbd8b5210e242350f3957fa",
      "blockHash": "0xfa7cd7539c886d7a8c449049e235c9dfdc6347822600a6cb56498065ab4e8a14",
      "blockNumber": 89835,
      "transactionIndex": 10,
      "confirmations": null,
      "from": "0xe6A7a1d47ff21B6321162AEA7C6CB457D5476Bca",
      "gasPrice": {
        "_hex": "0xd13ed228f"
      },
      "gasLimit": {
        "_hex": "0x55f0"
      },
      "to": "0x27e806e70622d2864e1B1f4426D72FFb0457C83a",
      "value": {
        "_hex": "0x15130d66e64792ee0"
      },
      "nonce": 2490,
      "data": "0x",
      "r": "0xba044b2569d3b1bde760bd25244da8b60d689a64a6cd1be8f2b9c24c86143d3e",
      "s": "0x5495358f29e230822bf358b2da4738554d60f0718c1f4eaff8a33fb489b62cb3",
      "v": 27,
      "creates": null,
      "raw": "0xf86f8209ba850d13ed228f8255f09427e806e70622d2864e1b1f4426d72ffb0457c83a89015130d66e64792ee0801ba0ba044b2569d3b1bde760bd25244da8b60d689a64a6cd1be8f2b9c24c86143d3ea05495358f29e230822bf358b2da4738554d60f0718c1f4eaff8a33fb489b62cb3",
      "networkId": 0,
      "chainId": 0
    },
    {
      "hash": "0x8676efc65bfaac1b881da57c917010aadea09afb8c4260073786710e83745841",
      "blockHash": "0xfa7cd7539c886d7a8c449049e235c9dfdc6347822600a6cb56498065ab4e8a14",
      "blockNumber": 89835,
      "transactionIndex": 11,
      "confirmations": null,
      "from": "0xe6A7a1d47ff21B6321162AEA7C6CB457D5476Bca",
      "gasPrice": {
        "_hex": "0xd13ed228f"
      },
      "gasLimit": {
        "_hex": "0x55f0"
      },
      "to": "0xC96Bd2Aa7AcB234ecA4E38E33bF2C080e7680FA5",
      "value": {
        "_hex": "0x1741a61e8be948e58"
      },
      "nonce": 2491,
      "data": "0x",
      "r": "0x5ccc2826ac56774d6d5e9acc7caf8db50c0635b17ba0f7341efb65e4311566eb",
      "s": "0x2cf72d317f32e18fd060672e450a6095fef1aaf203b3ef31e753f51a45a68642",
      "v": 27,
      "creates": null,
      "raw": "0xf86f8209bb850d13ed228f8255f094c96bd2aa7acb234eca4e38e33bf2c080e7680fa58901741a61e8be948e58801ba05ccc2826ac56774d6d5e9acc7caf8db50c0635b17ba0f7341efb65e4311566eba02cf72d317f32e18fd060672e450a6095fef1aaf203b3ef31e753f51a45a68642",
      "networkId": 0,
      "chainId": 0
    },
    {
      "hash": "0x361fbd745cbe39c64e19a20cea479429ef7c3f04b1d801345a58541391e37f60",
      "blockHash": "0xfa7cd7539c886d7a8c449049e235c9dfdc6347822600a6cb56498065ab4e8a14",
      "blockNumber": 89835,
      "transactionIndex": 12,
      "confirmations": null,
      "from": "0xe6A7a1d47ff21B6321162AEA7C6CB457D5476Bca",
      "gasPrice": {
        "_hex": "0xd13ed228f"
      },
      "gasLimit": {
        "_hex": "0x55f0"
      },
      "to": "0x665646727edaAEbB32B5F1A9b4e4F3BD867AA8fB",
      "value": {
        "_hex": "0x1e7af140f511ebec0"
      },
      "nonce": 2492,
      "data": "0x",
      "r": "0x4a1c27a149115d814bafed620c023dc803e77744f8bcb54613f2cbba8bee5fa7",
      "s": "0x24e30503d588865a849d0c825cf1d468838b4a70f08eaef26ce4160a49bc9bd4",
      "v": 28,
      "creates": null,
      "raw": "0xf86f8209bc850d13ed228f8255f094665646727edaaebb32b5f1a9b4e4f3bd867aa8fb8901e7af140f511ebec0801ca04a1c27a149115d814bafed620c023dc803e77744f8bcb54613f2cbba8bee5fa7a024e30503d588865a849d0c825cf1d468838b4a70f08eaef26ce4160a49bc9bd4",
      "networkId": 0,
      "chainId": 0
    },
    {
      "hash": "0x9d3523f9f21a075406e80165b9def986b645c07fdd6b35b5fdeff212531b5f53",
      "blockHash": "0xfa7cd7539c886d7a8c449049e235c9dfdc6347822600a6cb56498065ab4e8a14",
      "blockNumber": 89835,
      "transactionIndex": 13,
      "confirmations": null,
      "from": "0xe6A7a1d47ff21B6321162AEA7C6CB457D5476Bca",
      "gasPrice": {
        "_hex": "0xd13ed228f"
      },
      "gasLimit": {
        "_hex": "0x55f0"
      },
      "to": "0x04a6c6a293340Fc3f2244D097b0CFD84d5317bA5",
      "value": {
        "_hex": "0x2f9d48a95b2467320"
      },
      "nonce": 2493,
      "data": "0x",
      "r": "0x33f502b4eb6c82c536cbce6cc8e427c8a97446386b3c7fbee25b69c460579072",
      "s": "0x3f7f432ebbe9bc7e04c1e203f475ae6daabdc938a323310586b302174b258265",
      "v": 28,
      "creates": null,
      "raw": "0xf86f8209bd850d13ed228f8255f09404a6c6a293340fc3f2244d097b0cfd84d5317ba58902f9d48a95b2467320801ca033f502b4eb6c82c536cbce6cc8e427c8a97446386b3c7fbee25b69c460579072a03f7f432ebbe9bc7e04c1e203f475ae6daabdc938a323310586b302174b258265",
      "networkId": 0,
      "chainId": 0
    },
    {
      "hash": "0xab03da290551ccfcd9bb3848fdb480492cbff62dd6915ec9b0ef00ab86a02125",
      "blockHash": "0xfa7cd7539c886d7a8c449049e235c9dfdc6347822600a6cb56498065ab4e8a14",
      "blockNumber": 89835,
      "transactionIndex": 14,
      "confirmations": null,
      "from": "0xe6A7a1d47ff21B6321162AEA7C6CB457D5476Bca",
      "gasPrice": {
        "_hex": "0xd13ed228f"
      },
      "gasLimit": {
        "_hex": "0x55f0"
      },
      "to": "0xBA7933704d52A3e7fdBb5B5deD29e45213EA1111",
      "value": {
        "_hex": "0x39b300238791e5eb0"
      },
      "nonce": 2494,
      "data": "0x",
      "r": "0xb85263aeda28f81a524dc20a802b56eb9f037d87ab3dca32be888023780c17f6",
      "s": "0x7648ab709b7a352b805fafc7379e5c874e3040bd38f14b2cbbbdd83e5aa82598",
      "v": 28,
      "creates": null,
      "raw": "0xf86f8209be850d13ed228f8255f094ba7933704d52a3e7fdbb5b5ded29e45213ea111189039b300238791e5eb0801ca0b85263aeda28f81a524dc20a802b56eb9f037d87ab3dca32be888023780c17f6a07648ab709b7a352b805fafc7379e5c874e3040bd38f14b2cbbbdd83e5aa82598",
      "networkId": 0,
      "chainId": 0
    },
    {
      "hash": "0xcedbd0715007b2b031735b39bf735bea0ac5a8f4c751961f440f92090607ab9c",
      "blockHash": "0xfa7cd7539c886d7a8c449049e235c9dfdc6347822600a6cb56498065ab4e8a14",
      "blockNumber": 89835,
      "transactionIndex": 15,
      "confirmations": null,
      "from": "0xe6A7a1d47ff21B6321162AEA7C6CB457D5476Bca",
      "gasPrice": {
        "_hex": "0xd13ed228f"
      },
      "gasLimit": {
        "_hex": "0x55f0"
      },
      "to": "0x63738Ec4C9adec404749B5747F3bbE2147de632F",
      "value": {
        "_hex": "0x67d982857ec63ca30"
      },
      "nonce": 2495,
      "data": "0x",
      "r": "0x1bee96b62468f0ff45c6e10ec8bea70b2e0b58aa7395b9c27bc06ac795bcc5a7",
      "s": "0x4f9de19bdc650961c46c0b87c2382adee4be75758b75412adbd3c39b220164f2",
      "v": 27,
      "creates": null,
      "raw": "0xf86f8209bf850d13ed228f8255f09463738ec4c9adec404749b5747f3bbe2147de632f89067d982857ec63ca30801ba01bee96b62468f0ff45c6e10ec8bea70b2e0b58aa7395b9c27bc06ac795bcc5a7a04f9de19bdc650961c46c0b87c2382adee4be75758b75412adbd3c39b220164f2",
      "networkId": 0,
      "chainId": 0
    },
    {
      "hash": "0x584478a2e05f2f84d19de7a8a221eca29423a0f44e31d242bb13f95b8c6ed2a4",
      "blockHash": "0xfa7cd7539c886d7a8c449049e235c9dfdc6347822600a6cb56498065ab4e8a14",
      "blockNumber": 89835,
      "transactionIndex": 16,
      "confirmations": null,
      "from": "0xe6A7a1d47ff21B6321162AEA7C6CB457D5476Bca",
      "gasPrice": {
        "_hex": "0xd13ed228f"
      },
      "gasLimit": {
        "_hex": "0x55f0"
      },
      "to": "0x837A2A346557050c8cF0fb24b84Aa695E8Add19f",
      "value": {
        "_hex": "0xad1625f81d71b75a0"
      },
      "nonce": 2496,
      "data": "0x",
      "r": "0xb4962a9aaf8651e0c1bcbaab2b653146f93e250c5edf26eb789278959892192a",
      "s": "0x2485520f4ee270410138d79c7960a8132d36002ae89bb3ab7ea01c14457b561f",
      "v": 27,
      "creates": null,
      "raw": "0xf86f8209c0850d13ed228f8255f094837a2a346557050c8cf0fb24b84aa695e8add19f890ad1625f81d71b75a0801ba0b4962a9aaf8651e0c1bcbaab2b653146f93e250c5edf26eb789278959892192aa02485520f4ee270410138d79c7960a8132d36002ae89bb3ab7ea01c14457b561f",
      "networkId": 0,
      "chainId": 0
    },
    {
      "hash": "0x68ca637060bc97b5a95b3889c1abf94bcf9128eaf5d7ac93f5c962a5ea89fe84",
      "blockHash": "0xfa7cd7539c886d7a8c449049e235c9dfdc6347822600a6cb56498065ab4e8a14",
      "blockNumber": 89835,
      "transactionIndex": 17,
      "confirmations": null,
      "from": "0x2910543Af39abA0Cd09dBb2D50200b3E800A63D2",
      "gasPrice": {
        "_hex": "0xcdfe98901"
      },
      "gasLimit": {
        "_hex": "0x5208"
      },
      "to": "0x6E2035C3Cb6EB480e07749D4fa252837d91BFE2D",
      "value": {
        "_hex": "0x54b40a034d985bf8000"
      },
      "nonce": 766,
      "data": "0x",
      "r": "0x774ae6b3d77950506a3841e452ae12904393f4e6817822daf1e1099d72a950f0",
      "s": "0x33236a8691762588fce1073c4768629bfd22b9edb86c8f65076e93bddf80cce4",
      "v": 28,
      "creates": null,
      "raw": "0xf8708202fe850cdfe98901825208946e2035c3cb6eb480e07749d4fa252837d91bfe2d8a054b40a034d985bf8000801ca0774ae6b3d77950506a3841e452ae12904393f4e6817822daf1e1099d72a950f0a033236a8691762588fce1073c4768629bfd22b9edb86c8f65076e93bddf80cce4",
      "networkId": 0,
      "chainId": 0
    },
    {
      "hash": "0xb5355e0000b911600272eb3adedce9589bb32cfe88791ec2988ec6c9decb07a7",
      "blockHash": "0xfa7cd7539c886d7a8c449049e235c9dfdc6347822600a6cb56498065ab4e8a14",
      "blockNumber": 89835,
      "transactionIndex": 18,
      "confirmations": null,
      "from": "0x9C5Fed4DF0354d09d822D62434e451815D1cD75d",
      "gasPrice": {
        "_hex": "0xcd01555c5"
      },
      "gasLimit": {
        "_hex": "0x15f90"
      },
      "to": "0xb1A2a1e9b8AC33fdcB2118b73A875b096AEd24aD",
      "value": {
        "_hex": "0x45400a8fd5330000"
      },
      "nonce": 0,
      "data": "0x",
      "r": "0x253667379421dc9fc33cccf8a2a37e65d918de16e3b00d5c651f9a89821362ae",
      "s": "0x1c2ada3f7fc5b993509e663dd4c58faa5c9e30cc541a976fc0e040e9247e1f64",
      "v": 28,
      "creates": null,
      "raw": "0xf86d80850cd01555c583015f9094b1a2a1e9b8ac33fdcb2118b73a875b096aed24ad8845400a8fd5330000801ca0253667379421dc9fc33cccf8a2a37e65d918de16e3b00d5c651f9a89821362aea01c2ada3f7fc5b993509e663dd4c58faa5c9e30cc541a976fc0e040e9247e1f64",
      "networkId": 0,
      "chainId": 0
    }
  ]
}