{
  "hash": "0x83d710ee6e99e5b7ba4e830fd2ac12794548e1d6581faf02109ce50dad066ae9",
  "parentHash": "0xd7c65a27860a73763d7a1f55ccce5412855eecb1326c2a1a400a87589346778a",
  "number": 58092,
  "timestamp": 1439115082,
  "nonce": "0x643623a5f22d8122",
  "difficulty": 1703310735846,
  "gasLimit": {
    "_hex": "0x2fefd8"
  },
  "gasUsed": {
    "_hex": "0x5208"
  },
  "miner": "0x5F8F73E26CdF436f19Cb24C82F90A15AFe55b592",
  "extraData": "0x476574682f76312e302e312f77696e646f77732f676f312e342e32",
  "transactions": [
    {
      "hash": "0x2624c00713ea0a9a611b2897080a288865df93f62987ca288b8f7eae3b35c01e",
      "blockHash": "0x83d710ee6e99e5b7ba4e830fd2ac12794548e1d6581faf02109ce50dad066ae9",
      "blockNumber": 58092,
      "transactionIndex": 0,
      "confirmations": null,
      "from": "0x120A270bbC009644e35F0bB6ab13f95b8199c4ad",
      "gasPrice": {
        "_hex": "0xd7d7d5f99"
      },
      "gasLimit": {
        "_hex": "0x15f90"
      },
      "to": "0x7cB6238e868f46E988975F3B52ce56598ECaE7AF",
      "value": {
        "_hex": "0xbc0d84da6d595b000"
      },
      "nonce": 44,
      "data": "0x",
      "r": "0x05cbbc85fa7417d81467eb8afdfcce02a17c9e44191afe124f9844545c45e952",
      "s": "0x06d055778381e1de7317af049f3b98d7f772f248ac42372e8b0ea2dcf961ba6b",
      "v": 28,
      "creates": null,
      "raw": "0xf86e2c850d7d7d5f9983015f90947cb6238e868f46e988975f3b52ce56598ecae7af890bc0d84da6d595b000801ca005cbbc85fa7417d81467eb8afdfcce02a17c9e44191afe124f9844545c45e952a006d055778381e1de7317af049f3b98d7f772f248ac42372e8b0ea2dcf961ba6b",
      "networkId": 0,
      "chainId": 0
    }
  ]
}