{
  "hash": "0x2ce1cbbce8e6864cf1e473b867bdc74b10f88617e9c4ff795ec440be24319253",
  "parentHash": "0x9b3297c94a1fdf2c80fdbe69e649549ed4f862c74ebfc8789747737792319887",
  "number": 64700,
  "timestamp": 1439225077,
  "nonce": "0x030f9ed117c28afc",
  "difficulty": 1883908525746,
  "gasLimit": {
    "_hex": "0x2fefd8"
  },
  "gasUsed": {
    "_hex": "0xbef1"
  },
  "miner": "0xf927a40C8B7F6E07c5af7FA2155B4864a4112B13",
  "extraData": "0x",
  "transactions": [
    {
      "hash": "0x340f2cee5298ef1e7127df68e1c769dee3174ae5fe0b83613e605a43ec7120a1",
      "blockHash": "0x2ce1cbbce8e6864cf1e473b867bdc74b10f88617e9c4ff795ec440be24319253",
      "blockNumber": 64700,
      "transactionIndex": 0,
      "confirmations": null,
      "from": "0xE2beA3e7d349ab64EBD9873418e78912e13CD35f",
      "gasPrice": {
        "_hex": "0xd2673974b"
      },
      "gasLimit": {
        "_hex": "0x15f90"
      },
      "to": "0x125B606C67E8066Da65069652b656c19717745Fa",
      "value": {
        "_hex": "0x16345785d8a0000"
      },
      "nonce": 31,
      "data": "0xa55526db",
      "r": "0x381d83478ed065da184cdd312181947bb9c9a0ed58e1aa69d4c65341e783914d",
      "s": "0x25e660520db8d2f42cb124c683a24976874ec01d3d6e32adb6d63790c5ff56c7",
      "v": 27,
      "creates": null,
      "raw": "0xf8711f850d2673974b83015f9094125b606c67e8066da65069652b656c19717745fa88016345785d8a000084a55526db1ba0381d83478ed065da184cdd312181947bb9c9a0ed58e1aa69d4c65341e783914da025e660520db8d2f42cb124c683a24976874ec01d3d6e32adb6d63790c5ff56c7",
      "networkId": 0,
      "chainId": 0
    }
  ]
}