{
  "hash": "0x059563e1a3cc034e97881adb20123576696e987749020aff8c98962ed5fa21e8",
  "parentHash": "0xde45b9491819cfdc701ce09e1ef5bf5b9e0b6a1afe47d92b6d081631fb979504",
  "number": 87795,
  "timestamp": 1439597638,
  "nonce": "0x61568d97d0b1bab2",
  "difficulty": 3169407756955,
  "gasLimit": {
    "_hex": "0x2fefd5"
  },
  "gasUsed": {
    "_hex": "0x5208"
  },
  "miner": "0x580992B51e3925e23280EfB93d3047C82f17E038",
  "extraData": "0x476574682f76312e302e312f6c696e75782f676f312e342e32",
  "transactions": [
    {
      "hash": "0xd895cc5a918c203cbc1d8dbfbd3c9704c803945e51a31bb70e6bced47f3e7cb7",
      "blockHash": "0x059563e1a3cc034e97881adb20123576696e987749020aff8c98962ed5fa21e8",
      "blockNumber": 87795,
      "transactionIndex": 0,
      "confirmations": null,
      "from": "0xa70a9a7040d542C632D8e0bE7c5513A8a5Bbc752",
      "gasPrice": {
        "_hex": "0xd5a5f7463"
      },
      "gasLimit": {
        "_hex": "0x5208"
      },
      "to": "0x32Be343B94f860124dC4fEe278FDCBD38C102D88",
      "value": {
        "_hex": "0x340671083b3c4800"
      },
      "nonce": 102,
      "data": "0x",
      "r": "0x4e06b257b17e080507b8d21c8de3d87149cbe17b0ba23d746208fbe7d95de9a0",
      "s": "0x6906571910f4db2c6cae371df55d7d6d5c4a8a892a3d82519f091db7894f9072",
      "v": 28,
      "creates": null,
      "raw": "0xf86c66850d5a5f74638252089432be343b94f860124dc4fee278fdcbd38c102d8888340671083b3c4800801ca04e06b257b17e080507b8d21c8de3d87149cbe17b0ba23d746208fbe7d95de9a0a06906571910f4db2c6cae371df55d7d6d5c4a8a892a3d82519f091db7894f9072",
      "networkId": 0,
      "chainId": 0
    }
  ]
}