{
  "hash": "0xac271aced292fcfc9c7f2643feadd3b8d38ebd9ff8b9d1e60254f70812da5543",
  "parentHash": "0x7618239b3f2f89f1c5da1591a7ac14b42e1d726f9cd169aae3e76f7153382c4b",
  "number": 61910,
  "timestamp": 1439180224,
  "nonce": "0xe1ede7ea8e6f8880",
  "difficulty": 1739509339028,
  "gasLimit": {
    "_hex": "0x2fefd8"
  },
  "gasUsed": {
    "_hex": "0x546c"
  },
  "miner": "0x3FF679B0823a026F2378E5f5F22A6F127cC85828",
  "extraData": "0x",
  "transactions": [
    {
      "hash": "0x2ca34471a8e13f636fa3a6a9cb0bd4a74fba1094fd5f2150ca08f67a2d1129ce",
      "blockHash": "0xac271aced292fcfc9c7f2643feadd3b8d38ebd9ff8b9d1e60254f70812da5543",
      "blockNumber": 61910,
      "transactionIndex": 0,
      "confirmations": null,
      "from": "0x157c6f2431eB1a95797EE86F7d17b3c0FD47A247",
      "gasPrice": {
        "_hex": "0xd69b48315"
      },
      "gasLimit": {
        "_hex": "0x15f90"
      },
      "to": "0xc0b9d23f8d37650D0141B559dbD33d94Ea004e07",
      "value": {
        "_hex": "0x10357563d481cc0000"
      },
      "nonce": 3,
      "data": "0x454e433933464b3330",
      "r": "0xcc996c8719593cba36adcee09e826dc874bb15e37054cbdaefc65ac648e7876d",
      "s": "0x755786d668057a5ad9e2362f592a8caad4b027c8d962ed5c01a29d2e7626fc66",
      "v": 28,
      "creates": null,
      "raw": "0xf87703850d69b4831583015f9094c0b9d23f8d37650d0141b559dbd33d94ea004e078910357563d481cc000089454e433933464b33301ca0cc996c8719593cba36adcee09e826dc874bb15e37054cbdaefc65ac648e7876da0755786d668057a5ad9e2362f592a8caad4b027c8d962ed5c01a29d2e7626fc66",
      "networkId": 0,
      "chainId": 0
    }
  ]
}