{
  "hash": "0xf302d7f837f25b44278831176a9ab85423e31ef698169dddcd35a74a0c822b04",
  "parentHash": "0x08b06a7daf70e4989d407bc03e50eeb60b54f571e02ca66b8a99f4d28eea91cb",
  "number": 86695,
  "timestamp": 1439581566,
  "nonce": "0x99a443f83d47de24",
  "difficulty": 2945956876391,
  "gasLimit": {
    "_hex": "0x2fefd8"
  },
  "gasUsed": {
    "_hex": "0x5208"
  },
  "miner": "0x0089508679abF8c71BF6781687120e3E6a84584D",
  "extraData": "0x",
  "transactions": [
    {
      "hash": "0xc38e2e858f6ab202a0809a4e1d068b8fc1c7a57577e13ce76e4498540dd9e1aa",
      "blockHash": "0xf302d7f837f25b44278831176a9ab85423e31ef698169dddcd35a74a0c822b04",
      "blockNumber": 86695,
      "transactionIndex": 0,
      "confirmations": null,
      "from": "0x8C93d2F70d641AC1F4cCc3287E2A1376Ce3c7DCC",
      "gasPrice": {
        "_hex": "0xd908d24d2"
      },
      "gasLimit": {
        "_hex": "0x15f90"
      },
      "to": "0xF5B20ca0d57DFaB96f1695100df93BFF1B7EEe96",
      "value": {
        "_hex": "0x30927f74c9de00000"
      },
      "nonce": 3,
      "data": "0x",
      "r": "0xbe3926d5f056e062bc6a0acd08e36c80f2e59e8bff91949666bc66bc024a6c7d",
      "s": "0x48a235af37e006ce1f15f52abc2dc4835e22115aaeeae7a94fe51b38594fcba6",
      "v": 28,
      "creates": null,
      "raw": "0xf86e03850d908d24d283015f9094f5b20ca0d57dfab96f1695100df93bff1b7eee9689030927f74c9de00000801ca0be3926d5f056e062bc6a0acd08e36c80f2e59e8bff91949666bc66bc024a6c7da048a235af37e006ce1f15f52abc2dc4835e22115aaeeae7a94fe51b38594fcba6",
      "networkId": 0,
      "chainId": 0
    }
  ]
}