{
  "hash": "0xa55667bc6aced8c41bdcda2141421dbf01c7c68dd53f5407dab3b60eda7e35de",
  "parentHash": "0xe1b10638e42c9623751dba4f38a93c0bb795297a477d86e1d9d98dfdc824abdf",
  "number": 70960,
  "timestamp": 1439327997,
  "nonce": "0x0f2fad9604dbcdf4",
  "difficulty": 2170983971352,
  "gasLimit": {
    "_hex": "0x2fefd8"
  },
  "gasUsed": {
    "_hex": "0xaec1"
  },
  "miner": "0x88D74a59454F6cF3B51ef6b9136AFb6b9D405A88",
  "extraData": "0x476574682f76312e302e312d37666266393930632f6c696e75782f676f312e34",
  "transactions": [
    {
      "hash": "0xbe1600ecc1a35ea991a83763f7e26b31d79501d8e103cc0f8cb3dc2a7e97ac56",
      "blockHash": "0xa55667bc6aced8c41bdcda2141421dbf01c7c68dd53f5407dab3b60eda7e35de",
      "blockNumber": 70960,
      "transactionIndex": 0,
      "confirmations": null,
      "from": "0x17580B766f7453525ca4C6A88b01b50570EA088C",
      "gasPrice": {
        "_hex": "0xd8763b4c4"
      },
      "gasLimit": {
        "_hex": "0x61a80"
      },
      "to": "0x5Fe5B7546D1628f7348B023A0393de1FC825A4fD",
      "value": {
        "_hex": "0x29a2241af62c0000"
      },
      "nonce": 62,
      "data": "0xb595b8b50000000000000000000000000000000000000000000000000000000000000001",
      "r": "0xf7f7e045478c8635a217066d225c2b9a9c72f0b31176c57f15f3786f522e6143",
      "s": "0x7caef91d6a694b4636ead9b0f682fc0610139333f7f095172dbcd4bfb991026e",
      "v": 27,
      "creates": null,
      "raw": "0xf8913e850d8763b4c483061a80945fe5b7546d1628f7348b023a0393de1fc825a4fd8829a2241af62c0000a4b595b8b500000000000000000000000000000000000000000000000000000000000000011ba0f7f7e045478c8635a217066d225c2b9a9c72f0b31176c57f15f3786f522e6143a07caef91d6a694b4636ead9b0f682fc0610139333f7f095172dbcd4bfb991026e",
      "networkId": 0,
      "chainId": 0
    }
  ]
}