{
  "hash": "0x913fe50ec63f9c02611d32e625354ed4fd076fb8d45e780199643d8db5425198",
  "parentHash": "0x042af9340fadaff3d5fec97d7225e849752d52010f18a936c471eccd6428aa1e",
  "number": 77196,
  "timestamp": 1439433360,
  "nonce": "0x162333c200f9e8a4",
  "difficulty": 2231686177825,
  "gasLimit": {
    "_hex": "0x2fefd8"
  },
  "gasUsed": {
    "_hex": "0x5208"
  },
  "miner": "0x01d9DA08cc6Fb97c0DE1B6F4C28910A0859Ed1A1",
  "extraData": "0x476574682f76312e302e312f6c696e75782f676f312e342e32",
  "transactions": [
    {
      "hash": "0x8c32e1ff52c5eb595aca880ff6e1a7b1565aa353d6286bd9734d9563c696a3d1",
      "blockHash": "0x913fe50ec63f9c02611d32e625354ed4fd076fb8d45e780199643d8db5425198",
      "blockNumber": 77196,
      "transactionIndex": 0,
      "confirmations": null,
      "from": "0x40B9b889A21Ff1534d018D71Dc406122EBcf3F5A",
      "gasPrice": {
        "_hex": "0x105372e46d0"
      },
      "gasLimit": {
        "_hex": "0x15f90"
      },
      "to": "0xa7829B0194BEd9EC2478Ad0A6FE7c7347f0bEA86",
      "value": {
        "_hex": "0x429d069189e0000"
      },
      "nonce": 11,
      "data": "0x",
      "r": "0xe2a5a4020b99c98c623455b09ce89a745922334c832f73f32778fd2e43e32ed2",
      "s": "0x514cebedec64893272c3c20841097a1445073d0b6e723103041e7f105c0e4530",
      "v": 27,
      "creates": null,
      "raw": "0xf86e0b860105372e46d083015f9094a7829b0194bed9ec2478ad0a6fe7c7347f0bea86880429d069189e0000801ba0e2a5a4020b99c98c623455b09ce89a745922334c832f73f32778fd2e43e32ed2a0514cebedec64893272c3c20841097a1445073d0b6e723103041e7f105c0e4530",
      "networkId": 0,
      "chainId": 0
    }
  ]
}