{
  "hash": "0x335e5a2a29e21bcdd5357502cb7232223411f907efcef2383fc2ad10c581d307",
  "parentHash": "0xe98f2c9f693e5acc6fe131186aba8e2dea63ba67b97e681b21f352fd4251ae81",
  "number": 89828,
  "timestamp": 1439629749,
  "nonce": "0x319a071e0ff2a6c0",
  "difficulty": 3345116809180,
  "gasLimit": {
    "_hex": "0x2fefd8"
  },
  "gasUsed": {
    "_hex": "0xa410"
  },
  "miner": "0xf8E0CA3Ed80bd541b94BEdCf259e8CF2141A9523",
  "extraData": "0x476574682f76312e302e312f77696e646f77732f676f312e342e32",
  "transactions": [
    {
      "hash": "0xdf068d0dcb7ba313fd963dfe6ae267df1cfd4d66d2da5fd491b7146702405d6b",
      "blockHash": "0x335e5a2a29e21bcdd5357502cb7232223411f907efcef2383fc2ad10c581d307",
      "blockNumber": 89828,
      "transactionIndex": 0,
      "confirmations": null,
      "from": "0x3B399fF2b96F27056Ab8a7f6e028b0dBaF386279",
      "gasPrice": {
        "_hex": "0xd1eb8c92c"
      },
      "gasLimit": {
        "_hex": "0x5208"
      },
      "to": "0x32Be343B94f860124dC4fEe278FDCBD38C102D88",
      "value": {
        "_hex": "0x1e3972eeda43ba000"
      },
      "nonce": 4,
      "data": "0x",
      "r": "0x3c514abd1b5655cf5c7a571ec3a5d55599ccce84f7d3a0beb8ad76286c070d47",
      "s": "0x418c38712d57b99b4a2808454fb51a4ed9a69cb56201ba73d29a26b5fe9e4c5e",
      "v": 28,
      "creates": null,
      "raw": "0xf86d04850d1eb8c92c8252089432be343b94f860124dc4fee278fdcbd38c102d888901e3972eeda43ba000801ca03c514abd1b5655cf5c7a571ec3a5d55599ccce84f7d3a0beb8ad76286c070d47a0418c38712d57b99b4a2808454fb51a4ed9a69cb56201ba73d29a26b5fe9e4c5e",
      "networkId": 0,
      "chainId": 0
    },
    {
      "hash": "0x64f58f1727b89907ab50ff2691e97a35fe1e7bdfba7c131da87bf0ade0177546",
      "blockHash": "0x335e5a2a29e21bcdd5357502cb7232223411f907efcef2383fc2ad10c581d307",
      "blockNumber": 89828,
      "transactionIndex": 1,
      "confirmations": null,
      "from": "0x701aE497d3522329870Ada714AA902424EA8Da01",
      "gasPrice": {
        "_hex": "0xd1eb8c92c"
      },
      "gasLimit": {
        "_hex": "0x5208"
      },
      "to": "0x32Be343B94f860124dC4fEe278FDCBD38C102D88",
      "value": {
        "_hex": "0x21d278236afcca000"
      },
      "nonce": 4,
      "data": "0x",
      "r": "0x2b2d171e386bdc52443f864b0d7f51d2692b506b22265068f5b684e758ede05e",
      "s": "0x5a4dd519f58bd6855af79b99da3ed8f3015c8bf449e05e47e6580f9b0cd64de5",
      "v": 28,
      "creates": null,
      "raw": "0xf86d04850d1eb8c92c8252089432be343b94f860124dc4fee278fdcbd38c102d8889021d278236afcca000801ca02b2d171e386bdc52443f864b0d7f51d2692b506b22265068f5b684e758ede05ea05a4dd519f58bd6855af79b99da3ed8f3015c8bf449e05e47e6580f9b0cd64de5",
      "networkId": 0,
      "chainId": 0
    }
  ]
}