{
  "hash": "0xc0bcb381c08bb1f7c5c2f7fb51c558a31b4b97e5b5c5bc4981a6f51875230ca8",
  "parentHash": "0xf3e09a13f81e288a140fb06ea7bad19a3da688b9b8e1d010569e0446d69457e6",
  "number": 95986,
  "timestamp": 1439733183,
  "nonce": "0x08a695ee053bd75b",
  "difficulty": 3614279505339,
  "gasLimit": {
    "_hex": "0x2fefd8"
  },
  "gasUsed": {
    "_hex": "0xa410"
  },
  "miner": "0xe6A7a1d47ff21B6321162AEA7C6CB457D5476Bca",
  "extraData": "0x476574682f76312e302e312d38326566323666362f6c696e75782f676f312e34",
  "transactions": [
    {
      "hash": "0x12eaf29e2a3418b2ae599a62696ecd9fa71e0a2596415871994a72d96a48d5bb",
      "blockHash": "0xc0bcb381c08bb1f7c5c2f7fb51c558a31b4b97e5b5c5bc4981a6f51875230ca8",
      "blockNumber": 95986,
      "transactionIndex": 0,
      "confirmations": null,
      "from": "0x01Ad0ACFf478127D9d702B1A13599D706cB759b1",
      "gasPrice": {
        "_hex": "0xdb78e2092"
      },
      "gasLimit": {
        "_hex": "0x5208"
      },
      "to": "0x32Be343B94f860124dC4fEe278FDCBD38C102D88",
      "value": {
        "_hex": "0x8ac2bdca7763e000"
      },
      "nonce": 33,
      "data": "0x",
      "r": "0xd3c5a3718d8dbad279566f98189cd94cfee7edadc59361170bb2f9ad0203e5d6",
      "s": "0x40c5df7917bae80efd195accb32faf7042775eceac8f86fc5323f74135e5582c",
      "v": 27,
      "creates": null,
      "raw": "0xf86c21850db78e20928252089432be343b94f860124dc4fee278fdcbd38c102d88888ac2bdca7763e000801ba0d3c5a3718d8dbad279566f98189cd94cfee7edadc59361170bb2f9ad0203e5d6a040c5df7917bae80efd195accb32faf7042775eceac8f86fc5323f74135e5582c",
      "networkId": 0,
      "chainId": 0
    },
    {
      "hash": "0x130873d991953d913b79ab1ef8399fb1b946868ba8b89d9aa57d6b8b30e038ac",
      "blockHash": "0xc0bcb381c08bb1f7c5c2f7fb51c558a31b4b97e5b5c5bc4981a6f51875230ca8",
      "blockNumber": 95986,
      "transactionIndex": 1,
      "confirmations": null,
      "from": "0xBFdD9820a04283b289957956353b5F3C1F665EcF",
      "gasPrice": {
        "_hex": "0xdb78e2092"
      },
      "gasLimit": {
        "_hex": "0x5208"
      },
      "to": "0x32Be343B94f860124dC4fEe278FDCBD38C102D88",
      "value": {
        "_hex": "0x11589e0cf014be000"
      },
      "nonce": 43,
      "data": "0x",
      "r": "0xeb9a7771ebd198585173f592ea3edc0fd2601531d4ffa068a783dc56fda150c6",
      "s": "0x45419213d8cafb54df30299ac5c14cf890f8780c2b5cea214c0bfd007ed54356",
      "v": 27,
      "creates": null,
      "raw": "0xf86d2b850db78e20928252089432be343b94f860124dc4fee278fdcbd38c102d8889011589e0cf014be000801ba0eb9a7771ebd198585173f592ea3edc0fd2601531d4ffa068a783dc56fda150c6a045419213d8cafb54df30299ac5c14cf890f8780c2b5cea214c0bfd007ed54356",
      "networkId": 0,
      "chainId": 0
    }
  ]
}