{
  "hash": "0x09fe61225b9ae3796256fd8c27e7de7a6fe4015123edde983f354cf3b671f4fd",
  "parentHash": "0x0f703244ad644e6da05dd20ffaa6514aaa39c6b2ab48c2b0c9e3d5a10cca2af5",
  "number": 55810,
  "timestamp": 1439077491,
  "nonce": "0x16a81200c82895ed",
  "difficulty": 1602111492595,
  "gasLimit": {
    "_hex": "0x2fefd8"
  },
  "gasUsed": {
    "_hex": "0x61698"
  },
  "miner": "0xDB1045Bc6102648A8A70F35892836Fa6B5e451D7",
  "extraData": "0x476574682f76312e302e312f6c696e75782f676f312e342e32",
  "transactions": [
    {
      "hash": "0xa0fd8e12c7f1c1c439ccf1667241245ecc9b94e5a1b9edae4aa181791dff79a4",
      "blockHash": "0x09fe61225b9ae3796256fd8c27e7de7a6fe4015123edde983f354cf3b671f4fd",
      "blockNumber": 55810,
      "transactionIndex": 0,
      "confirmations": null,
      "from": "0x10FCF58DF80FC9E737BC27ed2c301394019cb8a4",
      "gasPrice": {
        "_hex": "0xd85c29c3f"
      },
      "gasLimit": {
        "_hex": "0x15f90"
      },
      "to": "0x120A270bbC009644e35F0bB6ab13f95b8199c4ad",
      "value": {
        "_hex": "0x14a56238c363260400"
      },
      "nonce": 0,
      "data": "0x",
      "r": "0x8e868386b072e9f73e3905b95a35db8b81b648ebd50f9c495fbe6ea0b5f8cf9b",
      "s": "0x0e8bcb05160b95203860ae43efaf78eb6f37b3e62e9b261fcc009a261368a8cc",
      "v": 27,
      "creates": null,
      "raw": "0xf86e80850d85c29c3f83015f9094120a270bbc009644e35f0bb6ab13f95b8199c4ad8914a56238c363260400801ba08e868386b072e9f73e3905b95a35db8b81b648ebd50f9c495fbe6ea0b5f8cf9ba00e8bcb05160b95203860ae43efaf78eb6f37b3e62e9b261fcc009a261368a8cc",
      "networkId": 0,
      "chainId": 0
    },
    {
      "hash": "0x11873a81bf43372882dfb4928bb8272340f36900a329c31bb1801e0615eec503",
      "blockHash": "0x09fe61225b9ae3796256fd8c27e7de7a6fe4015123edde983f354cf3b671f4fd",
      "blockNumber": 55810,
      "transactionIndex": 1,
      "confirmations": null,
      "from": "0x48E9b95595D704b304515D3ff903939f0244c8Fc",
      "gasPrice": {
        "_hex": "0xd737f4a1e"
      },
      "gasLimit": {
        "_hex": "0x15f90"
      },
      "to": "0x120A270bbC009644e35F0bB6ab13f95b8199c4ad",
      "value": {
        "_hex": "0x9d25e5bd76f000"
      },
      "nonce": 0,
      "data": "0x",
      "r": "0x0288aca6275a2aeecb3af72e7d427407d22a01681c72b49ea8fb90528bf70c3e",
      "s": "0x75c8b526182745068e4a3645034428e90db4c6a405effd21164f8116295ea5a3",
      "v": 27,
      "creates": null,
      "raw": "0xf86c80850d737f4a1e83015f9094120a270bbc009644e35f0bb6ab13f95b8199c4ad879d25e5bd76f000801ba00288aca6275a2aeecb3af72e7d427407d22a01681c72b49ea8fb90528bf70c3ea075c8b526182745068e4a3645034428e90db4c6a405effd21164f8116295ea5a3",
      "networkId": 0,
      "chainId": 0
    },
    {
      "hash": "0xb82696d25ea52171fdbccdae86fdd01ce47aa8a5a12938d3d8a82737cb4fe2bf",
      "blockHash": "0x09fe61225b9ae3796256fd8c27e7de7a6fe4015123edde983f354cf3b671f4fd",
      "blockNumber": 55810,
      "transactionIndex": 2,
      "confirmations": null,
      "from": "0x8078bf560A1A5De1af089a72B20F9F0710FCa9DA",
      "gasPrice": {
        "_hex": "0xd737f4a1e"
      },
      "gasLimit": {
        "_hex": "0x15f90"
      },
      "to": "0x120A270bbC009644e35F0bB6ab13f95b8199c4ad",
      "value": {
        "_hex": "0x3b93d248d0fe000"
      },
      "nonce": 0,
      "data": "0x",
      "r": "0x1f4cc71f53c22e256f3a722fa3475b2ff7baf5882e47e38edd2ec3683235e06c",
      "s": "0x5b7841c39d6582e4babcdf2bfc2f4c27504bf04ddb10a1a62f758bd6c0cab991",
      "v": 27,
      "creates": null,
      "raw": "0xf86d80850d737f4a1e83015f9094120a270bbc009644e35f0bb6ab13f95b8199c4ad8803b93d248d0fe000801ba01f4cc71f53c22e256f3a722fa3475b2ff7baf5882e47e38edd2ec3683235e06ca05b7841c39d6582e4babcdf2bfc2f4c27504bf04ddb10a1a62f758bd6c0cab991",
      "networkId": 0,
      "chainId": 0
    },
    {
      "hash": "0x8ebfdab800072f57c282e95bbb9a16750d6754b0303c721422d0706693d68e3c",
      "blockHash": "0x09fe61225b9ae3796256fd8c27e7de7a6fe4015123edde983f354cf3b671f4fd",
      "blockNumber": 55810,
      "transactionIndex": 3,
      "confirmations": null,
      "from": "0x7B947AD0e759B2B1bBC28C78D659000E9824f258",
      "gasPrice": {
        "_hex": "0xd737f4a1e"
      },
      "gasLimit": {
        "_hex": "0x15f90"
      },
      "to": "0x120A270bbC009644e35F0bB6ab13f95b8199c4ad",
      "value": {
        "_hex": "0x8e1bc9bf040000"
      },
      "nonce": 0,
      "data": "0x",
      "r": "0x829e6b13d855b072ae2aefbda32f3dee9aa02b1a3bddb89d905fbfd1e7e750be",
      "s": "0x1324e187948ab8533eae61da648d03cf6bd078d8a4204dfa679b9e658abbc2bd",
      "v": 28,
      "creates": null,
      "raw": "0xf86c80850d737f4a1e83015f9094120a270bbc009644e35f0bb6ab13f95b8199c4ad878e1bc9bf040000801ca0829e6b13d855b072ae2aefbda32f3dee9aa02b1a3bddb89d905fbfd1e7e750bea01324e187948ab8533eae61da648d03cf6bd078d8a4204dfa679b9e658abbc2bd",
      "networkId": 0,
      "chainId": 0
    },
    {
      "hash": "0xa45b26c2b8bf89ab1ad41cdb71811565cdd7293985651b8aca4d930f14eff144",
      "blockHash": "0x09fe61225b9ae3796256fd8c27e7de7a6fe4015123edde983f354cf3b671f4fd",
      "blockNumber": 55810,
      "transactionIndex": 4,
      "confirmations": null,
      "from": "0xF1d95cec972C7Fc9Deec5481fC17AD8a31bb05C3",
      "gasPrice": {
        "_hex": "0xd737f4a1e"
      },
      "gasLimit": {
        "_hex": "0x15f90"
      },
      "to": "0x120A270bbC009644e35F0bB6ab13f95b8199c4ad",
      "value": {
        "_hex": "0x71e9d7f5252b65800"
      },
      "nonce": 0,
      "data": "0x",
      "r": "0x6e6c692ce802d6b2e5096bf9d59e5826701b97a063766b62154b4b4adc9e0178",
      "s": "0x247db1dcf4bf0d2f126f8cb4ef6d2d153735ee14b72383fd1fc488321f3a8aba",
      "v": 27,
      "creates": null,
      "raw": "0xf86e80850d737f4a1e83015f9094120a270bbc009644e35f0bb6ab13f95b8199c4ad89071e9d7f5252b65800801ba06e6c692ce802d6b2e5096bf9d59e5826701b97a063766b62154b4b4adc9e0178a0247db1dcf4bf0d2f126f8cb4ef6d2d153735ee14b72383fd1fc488321f3a8aba",
      "networkId": 0,
      "chainId": 0
    },
    {
      "hash": "0x58bedef6ca858be4e5b95de9a56f1f6cb21d4b0bf690b208effc634946bf315e",
      "blockHash": "0x09fe61225b9ae3796256fd8c27e7de7a6fe4015123edde983f354cf3b671f4fd",
      "blockNumber": 55810,
      "transactionIndex": 5,
      "confirmations": null,
      "from": "0x92EEa4A1bC26D134B0489259eaC512657477c8A9",
      "gasPrice": {
        "_hex": "0xd737f4a1e"
      },
      "gasLimit": {
        "_hex": "0x15f90"
      },
      "to": "0x120A270bbC009644e35F0bB6ab13f95b8199c4ad",
      "value": {
        "_hex": "0x5e1e517b8faf400"
      },
      "nonce": 0,
      "data": "0x",
      "r": "0xb8cc0607bdb0a00e7bde9a675d2a1ee70d598790d4fcdadc4c4cf91e64754331",
      "s": "0x1242723e6d60bf4542f0274a224be1da5849864e5fb9030f9572b03c820e8fc1",
      "v": 28,
      "creates": null,
      "raw": "0xf86d80850d737f4a1e83015f9094120a270bbc009644e35f0bb6ab13f95b8199c4ad8805e1e517b8faf400801ca0b8cc0607bdb0a00e7bde9a675d2a1ee70d598790d4fcdadc4c4cf91e64754331a01242723e6d60bf4542f0274a224be1da5849864e5fb9030f9572b03c820e8fc1",
      "networkId": 0,
      "chainId": 0
    },
    {
      "hash": "0xfdcaa2a79de787d49aa667589bd7ad9367857ca1c8367ea4c800d40ca69457a9",
      "blockHash": "0x09fe61225b9ae3796256fd8c27e7de7a6fe4015123edde983f354cf3b671f4fd",
      "blockNumber": 55810,
      "transactionIndex": 6,
      "confirmations": null,
      "from": "0xD389aC13552bd71e1FdF6238A264D9eE511B67Ea",
      "gasPrice": {
        "_hex": "0xd737f4a1e"
      },
      "gasLimit": {
        "_hex": "0x15f90"
      },
      "to": "0x120A270bbC009644e35F0bB6ab13f95b8199c4ad",
      "value": {
        "_hex": "0x2d0899cda2da3e2"
      },
      "nonce": 0,
      "data": "0x",
      "r": "0xf604163f0957e0b04e500a1fbea26b3f0a5f5b9cc2c9b903332da3678bc4d008",
      "s": "0x2a993eb7b96bf191e6b5a1d2924261cf2af61349f234cb5aa178372bca71305b",
      "v": 28,
      "creates": null,
      "raw": "0xf86d80850d737f4a1e83015f9094120a270bbc009644e35f0bb6ab13f95b8199c4ad8802d0899cda2da3e2801ca0f604163f0957e0b04e500a1fbea26b3f0a5f5b9cc2c9b903332da3678bc4d008a02a993eb7b96bf191e6b5a1d2924261cf2af61349f234cb5aa178372bca71305b",
      "networkId": 0,
      "chainId": 0
    },
    {
      "hash": "0xe3a97e2a8478df715a681b1f506012cdcaa4a235718afbb2917a94c22a1dddc0",
      "blockHash": "0x09fe61225b9ae3796256fd8c27e7de7a6fe4015123edde983f354cf3b671f4fd",
      "blockNumber": 55810,
      "transactionIndex": 7,
      "confirmations": null,
      "from": "0xaD9cAE8C33a736f37a0f839675665B0669745b27",
      "gasPrice": {
        "_hex": "0xd737f4a1e"
      },
      "gasLimit": {
        "_hex": "0x15f90"
      },
      "to": "0x120A270bbC009644e35F0bB6ab13f95b8199c4ad",
      "value": {
        "_hex": "0xcfacfeaccea400"
      },
      "nonce": 0,
      "data": "0x",
      "r": "0x51d954135de50e1566eac42fcfe039c90207fbbce515086325ec720d9b18b213",
      "s": "0x4a52712329fdb886f49b71a7ae7f6c459e0f7647247cf7aa695a1800570a0686",
      "v": 28,
      "creates": null,
      "raw": "0xf86c80850d737f4a1e83015f9094120a270bbc009644e35f0bb6ab13f95b8199c4ad87cfacfeaccea400801ca051d954135de50e1566eac42fcfe039c90207fbbce515086325ec720d9b18b213a04a52712329fdb886f49b71a7ae7f6c459e0f7647247cf7aa695a1800570a0686",
      "networkId": 0,
      "chainId": 0
    },
    {
      "hash": "0x9c904b7d1e48411bc7b4e68512489f7575753d8b3b332be5329a51ae5918e0a0",
      "blockHash": "0x09fe61225b9ae3796256fd8c27e7de7a6fe4015123edde983f354cf3b671f4fd",
      "blockNumber": 55810,
      "transactionIndex": 8,
      "confirmations": null,
      "from": "0x5d5De1914CAFd268A7dF68028B849637c0c01cD6",
      "gasPrice": {
        "_hex": "0xd737f4a1e"
      },
      "gasLimit": {
        "_hex": "0x15f90"
      },
      "to": "0x120A270bbC009644e35F0bB6ab13f95b8199c4ad",
      "value": {
        "_hex": "0x394437a040d1be2"
      },
      "nonce": 0,
      "data": "0x",
      "r": "0x8877a5b416df7f4b7f61ad7a4cc7b52c7ccb376699bf8657a263c6d11111c39b",
      "s": "0x0d68343f6c881ade2f857c9fb80dfc2ff6f0ec25b201dcb0eccade38fb90d7cc",
      "v": 28,
      "creates": null,
      "raw": "0xf86d80850d737f4a1e83015f9094120a270bbc009644e35f0bb6ab13f95b8199c4ad880394437a040d1be2801ca08877a5b416df7f4b7f61ad7a4cc7b52c7ccb376699bf8657a263c6d11111c39ba00d68343f6c881ade2f857c9fb80dfc2ff6f0ec25b201dcb0eccade38fb90d7cc",
      "networkId": 0,
      "chainId": 0
    },
    {
      "hash": "0xfd18d6c3ce8fc87b6907ec3b1e5da7e0eb20ca160b4fcbfd6537eea90a28ce63",
      "blockHash": "0x09fe61225b9ae3796256fd8c27e7de7a6fe4015123edde983f354cf3b671f4fd",
      "blockNumber": 55810,
      "transactionIndex": 9,
      "confirmations": null,
      "from": "0x77b9E5A712e862b6feaaC49BbcAE8BE895E22A85",
      "gasPrice": {
        "_hex": "0xd737f4a1e"
      },
      "gasLimit": {
        "_hex": "0x15f90"
      },
      "to": "0x120A270bbC009644e35F0bB6ab13f95b8199c4ad",
      "value": {
        "_hex": "0x3096f224c120400"
      },
      "nonce": 0,
      "data": "0x",
      "r": "0xeefc7c130155d2775050983c7a266fbda6126ecab40e405fb7b1c619d3b7b4ec",
      "s": "0x00db698261848e111511bbbf54eee44b1e1798dccc79b3db9972ca247bba9ae5",
      "v": 27,
      "creates": null,
      "raw": "0xf86c80850d737f4a1e83015f9094120a270bbc009644e35f0bb6ab13f95b8199c4ad8803096f224c120400801ba0eefc7c130155d2775050983c7a266fbda6126ecab40e405fb7b1c619d3b7b4ec9fdb698261848e111511bbbf54eee44b1e1798dccc79b3db9972ca247bba9ae5",
      "networkId": 0,
      "chainId": 0
    },
    {
      "hash": "0xa6df38574a5c4a689e234a9e9cb500801987b62fc0cf9ac7d4414d1de07d08bb",
      "blockHash": "0x09fe61225b9ae3796256fd8c27e7de7a6fe4015123edde983f354cf3b671f4fd",
      "blockNumber": 55810,
      "transactionIndex": 10,
      "confirmations": null,
      "from": "0xd55086FAF6cFF549A0cc1F00af4F9c26733A4307",
      "gasPrice": {
        "_hex": "0xd737f4a1e"
      },
      "gasLimit": {
        "_hex": "0x15f90"
      },
      "to": "0x120A270bbC009644e35F0bB6ab13f95b8199c4ad",
      "value": {
        "_hex": "0x56ba3d73af34f0000"
      },
      "nonce": 0,
      "data": "0x",
      "r": "0x6302f9dd4a4e5d33c823d7a47a1e9911f5d08eafbd0280032eb651834fd70dd6",
      "s": "0x62502fbe4aba396bfa0d26896940f0e076f7bac4c13b65fa93ac9a2fce673937",
      "v": 27,
      "creates": null,
      "raw": "0xf86e80850d737f4a1e83015f9094120a270bbc009644e35f0bb6ab13f95b8199c4ad89056ba3d73af34f0000801ba06302f9dd4a4e5d33c823d7a47a1e9911f5d08eafbd0280032eb651834fd70dd6a062502fbe4aba396bfa0d26896940f0e076f7bac4c13b65fa93ac9a2fce673937",
      "networkId": 0,
      "chainId": 0
    },
    {
      "hash": "0xc7734013ca3bfa3a225e7209135bae09d9f2bbb1b0019164944ec5d8617ffc82",
      "blockHash": "0x09fe61225b9ae3796256fd8c27e7de7a6fe4015123edde983f354cf3b671f4fd",
      "blockNumber": 55810,
      "transactionIndex": 11,
      "confirmations": null,
      "from": "0x63F31A3e1e0cAA8aCe0dD732D556e210BfF11d2a",
      "gasPrice": {
        "_hex": "0xd737f4a1e"
      },
      "gasLimit": {
        "_hex": "0x15f90"
      },
      "to": "0x120A270bbC009644e35F0bB6ab13f95b8199c4ad",
      "value": {
        "_hex": "0x1f161421c8dffec"
      },
      "nonce": 0,
      "data": "0x",
      "r": "0xefd8c7b7f07031ab6965ba5426542c508404c0d5c47999ce3b92139211908e06",
      "s": "0x6be98a214037b8b40f75b12698ee95f94123dc36bfcc56d002c3579a8a3593ea",
      "v": 27,
      "creates": null,
      "raw": "0xf86d80850d737f4a1e83015f9094120a270bbc009644e35f0bb6ab13f95b8199c4ad8801f161421c8dffec801ba0efd8c7b7f07031ab6965ba5426542c508404c0d5c47999ce3b92139211908e06a06be98a214037b8b40f75b12698ee95f94123dc36bfcc56d002c3579a8a3593ea",
      "networkId": 0,
      "chainId": 0
    },
    {
      "hash": "0xd256bd34f3c154a5f8fde70bdee1ecf07413561807f16150d5d151e233c1f9d9",
      "blockHash": "0x09fe61225b9ae3796256fd8c27e7de7a6fe4015123edde983f354cf3b671f4fd",
      "blockNumber": 55810,
      "transactionIndex": 12,
      "confirmations": null,
      "from": "0x862A21351A791698636b05CE75f667d35c1B53bE",
      "gasPrice": {
        "_hex": "0xd737f4a1e"
      },
      "gasLimit": {
        "_hex": "0x15f90"
      },
      "to": "0x120A270bbC009644e35F0bB6ab13f95b8199c4ad",
      "value": {
        "_hex": "0xeb17e8800a14b9c"
      },
      "nonce": 0,
      "data": "0x",
      "r": "0x14a656a0b91c3eeddda375b578dd1fcf964b728640937e3a383b0911fd34ae2f",
      "s": "0x4c6ddfbe20e12d2091bee9ad3a836bf464888ee90e7fe445a4e1c395cb134b4c",
      "v": 28,
      "creates": null,
      "raw": "0xf86d80850d737f4a1e83015f9094120a270bbc009644e35f0bb6ab13f95b8199c4ad880eb17e8800a14b9c801ca014a656a0b91c3eeddda375b578dd1fcf964b728640937e3a383b0911fd34ae2fa04c6ddfbe20e12d2091bee9ad3a836bf464888ee90e7fe445a4e1c395cb134b4c",
      "networkId": 0,
      "chainId": 0
    },
    {
      "hash": "0x0916f2cbec3c57688dfc77e7b2961f4e2e285977c50e615e56c8a7150a7adcc7",
      "blockHash": "0x09fe61225b9ae3796256fd8c27e7de7a6fe4015123edde983f354cf3b671f4fd",
      "blockNumber": 55810,
      "transactionIndex": 13,
      "confirmations": null,
      "from": "0x0dF7ae2e9c38Dbc402E44788BBe3A9bA9179d677",
      "gasPrice": {
        "_hex": "0xd737f4a1e"
      },
      "gasLimit": {
        "_hex": "0x15f90"
      },
      "to": "0x120A270bbC009644e35F0bB6ab13f95b8199c4ad",
      "value": {
        "_hex": "0xdbd2fc137a30000"
      },
      "nonce": 0,
      "data": "0x",
      "r": "0x618b1208501be85b09d4a82d00b4027bf7e24589e673d1e007e451902c711cbd",
      "s": "0x4102627426d765e6c7c6bd604b300ca96710e1df8b6b7e11b67af6d3d1af2f6c",
      "v": 27,
      "creates": null,
      "raw": "0xf86d80850d737f4a1e83015f9094120a270bbc009644e35f0bb6ab13f95b8199c4ad880dbd2fc137a30000801ba0618b1208501be85b09d4a82d00b4027bf7e24589e673d1e007e451902c711cbda04102627426d765e6c7c6bd604b300ca96710e1df8b6b7e11b67af6d3d1af2f6c",
      "networkId": 0,
      "chainId": 0
    },
    {
      "hash": "0xf331d8c7ffd09662bb3bac463c62a2832d8fe9f191d618820c1a958e759f70c5",
      "blockHash": "0x09fe61225b9ae3796256fd8c27e7de7a6fe4015123edde983f354cf3b671f4fd",
      "blockNumber": 55810,
      "transactionIndex": 14,
      "confirmations": null,
      "from": "0x355570fD166575E7B1374F2E778b03a8Df3352c4",
      "gasPrice": {
        "_hex": "0xd737f4a1e"
      },
      "gasLimit": {
        "_hex": "0x15f90"
      },
      "to": "0x120A270bbC009644e35F0bB6ab13f95b8199c4ad",
      "value": {
        "_hex": "0x13fbe85edc90014"
      },
      "nonce": 0,
      "data": "0x",
      "r": "0x4ff0bb066d7d92d5cd568086a99046396bd0eeaacd40b7cc5922070e160b562e",
      "s": "0x0e7bbb4999f9c0e8f2656be95f806ed4ddfea1993994d2b994e526fb41b569d0",
      "v": 27,
      "creates": null,
      "raw": "0xf86d80850d737f4a1e83015f9094120a270bbc009644e35f0bb6ab13f95b8199c4ad88013fbe85edc90014801ba04ff0bb066d7d92d5cd568086a99046396bd0eeaacd40b7cc5922070e160b562ea00e7bbb4999f9c0e8f2656be95f806ed4ddfea1993994d2b994e526fb41b569d0",
      "networkId": 0,
      "chainId": 0
    },
    {
      "hash": "0xddba82cdd80056cfa0bdf36eb43f0cb3f623ca1318586da5f785993e93ab3bfa",
      "blockHash": "0x09fe61225b9ae3796256fd8c27e7de7a6fe4015123edde983f354cf3b671f4fd",
      "blockNumber": 55810,
      "transactionIndex": 15,
      "confirmations": null,
      "from": "0x3042703b60A86b8252Df4790275aAc80fB2D0530",
      "gasPrice": {
        "_hex": "0xd737f4a1e"
      },
      "gasLimit": {
        "_hex": "0x15f90"
      },
      "to": "0x120A270bbC009644e35F0bB6ab13f95b8199c4ad",
      "value": {
        "_hex": "0x2621b1204f497e2"
      },
      "nonce": 0,
      "data": "0x",
      "r": "0x31a413a824ce648b35ba4f7d30c838e745a5c856d42e395eea46e9c9e8bb8186",
      "s": "0x6de7c826acb371de6810dbc5b4c1ff5953b21f8f9cd9488e350e4c060d128bac",
      "v": 28,
      "creates": null,
      "raw": "0xf86d80850d737f4a1e83015f9094120a270bbc009644e35f0bb6ab13f95b8199c4ad8802621b1204f497e2801ca031a413a824ce648b35ba4f7d30c838e745a5c856d42e395eea46e9c9e8bb8186a06de7c826acb371de6810dbc5b4c1ff5953b21f8f9cd9488e350e4c060d128bac",
      "networkId": 0,
      "chainId": 0
    },
    {
      "hash": "0x2d70c22b6371f9ea051d69201c2391f5dfc2d2feb25cec1a7222014d9d74d127",
      "blockHash": "0x09fe61225b9ae3796256fd8c27e7de7a6fe4015123edde983f354cf3b671f4fd",
      "blockNumber": 55810,
      "transactionIndex": 16,
      "confirmations": null,
      "from": "0x1f001AE98Ba862874f28b766aDC44Ca46F582c65",
      "gasPrice": {
        "_hex": "0xd737f4a1e"
      },
      "gasLimit": {
        "_hex": "0x15f90"
      },
      "to": "0x120A270bbC009644e35F0bB6ab13f95b8199c4ad",
      "value": {
        "_hex": "0x56541767d353000"
      },
      "nonce": 0,
      "data": "0x",
      "r": "0xc80d42b2fcf7dd3deb6060ffbe6e74c19aa3661969787285112628a20c49c0a4",
      "s": "0x730942c48400c57d981f9d817f3119c5e3b61ea8da84bde83bd2792b2edb8ddd",
      "v": 28,
      "creates": null,
      "raw": "0xf86d80850d737f4a1e83015f9094120a270bbc009644e35f0bb6ab13f95b8199c4ad88056541767d353000801ca0c80d42b2fcf7dd3deb6060ffbe6e74c19aa3661969787285112628a20c49c0a4a0730942c48400c57d981f9d817f3119c5e3b61ea8da84bde83bd2792b2edb8ddd",
      "networkId": 0,
      "chainId": 0
    },
    {
      "hash": "0x02b9e345e8fe813223e2995ed69ca7c35ea2fd683945c4fd6f0fc0626e995d04",
      "blockHash": "0x09fe61225b9ae3796256fd8c27e7de7a6fe4015123edde983f354cf3b671f4fd",
      "blockNumber": 55810,
      "transactionIndex": 17,
      "confirmations": null,
      "from": "0x4E57775D79Ae04fCc3bD35F9E2E9058Ec0916518",
      "gasPrice": {
        "_hex": "0xd737f4a1e"
      },
      "gasLimit": {
        "_hex": "0x15f90"
      },
      "to": "0x120A270bbC009644e35F0bB6ab13f95b8199c4ad",
      "value": {
        "_hex": "0x54da581bad13fc"
      },
      "nonce": 0,
      "data": "0x",
      "r": "0x337c9a4d1801b8ef00cdf264593ed1ba3ac3113204f5f02f6b1c988604739ddc",
      "s": "0x755465efefbb5c72913d726c0759e28be97d1684662baf6228c4abe1497d355f",
      "v": 28,
      "creates": null,
      "raw": "0xf86c80850d737f4a1e83015f9094120a270bbc009644e35f0bb6ab13f95b8199c4ad8754da581bad13fc801ca0337c9a4d1801b8ef00cdf264593ed1ba3ac3113204f5f02f6b1c988604739ddca0755465efefbb5c72913d726c0759e28be97d1684662baf6228c4abe1497d355f",
      "networkId": 0,
      "chainId": 0
    },
    {
      "hash": "0xf6f9b9cf59d8eaf56e1c382ffa69fb6245a7a11c72b0501fd739e502a7d9d01d",
      "blockHash": "0x09fe61225b9ae3796256fd8c27e7de7a6fe4015123edde983f354cf3b671f4fd",
      "blockNumber": 55810,
      "transactionIndex": 18,
      "confirmations": null,
      "from": "0x7D1Ed2a26C8F85B7508bB6E5dABC2516448Bd3b4",
      "gasPrice": {
        "_hex": "0xd737f4a1e"
      },
      "gasLimit": {
        "_hex": "0x15f90"
      },
      "to": "0x120A270bbC009644e35F0bB6ab13f95b8199c4ad",
      "value": {
        "_hex": "0x1f787ebc655400"
      },
      "nonce": 0,
      "data": "0x",
      "r": "0x2334ecaaeb9c05c5573193adc7d56de35af6e9b67b8238331c336534142568a6",
      "s": "0x29a62c28ce67e8905b66e537c648b242d0469dce15ca82bd594d9003833292f4",
      "v": 28,
      "creates": null,
      "raw": "0xf86c80850d737f4a1e83015f9094120a270bbc009644e35f0bb6ab13f95b8199c4ad871f787ebc655400801ca02334ecaaeb9c05c5573193adc7d56de35af6e9b67b8238331c336534142568a6a029a62c28ce67e8905b66e537c648b242d0469dce15ca82bd594d9003833292f4",
      "networkId": 0,
      "chainId": 0
    }
  ]
}