{
  "hash": "0x12841bc8829a7457b256d03ce79182c408988d4d3e7a41a8fd4b390525e0d625",
  "parentHash": "0x51c180523ba7e8d4fbb9fd1f52e0aab5e47e16ce11356d3380e31b30a3618674",
  "number": 80784,
  "timestamp": 1439490773,
  "nonce": "0xfc745c86c146f716",
  "difficulty": 2447588257749,
  "gasLimit": {
    "_hex": "0x2fefd8"
  },
  "gasUsed": {
    "_hex": "0xa410"
  },
  "miner": "0xe6A7a1d47ff21B6321162AEA7C6CB457D5476Bca",
  "extraData": "0x476574682f76312e302e312d38326566323666362f6c696e75782f676f312e34",
  "transactions": [
    {
      "hash": "0xcec33ac92df967d9d2842f8d22fa5bd624ab525516fa40f7af9b083a7f384a87",
      "blockHash": "0x12841bc8829a7457b256d03ce79182c408988d4d3e7a41a8fd4b390525e0d625",
      "blockNumber": 80784,
      "transactionIndex": 0,
      "confirmations": null,
      "from": "0x8F79f76381Aad7B98C19aF55eE75fdfEeb012211",
      "gasPrice": {
        "_hex": "0xcf9b69244"
      },
      "gasLimit": {
        "_hex": "0x5208"
      },
      "to": "0x32Be343B94f860124dC4fEe278FDCBD38C102D88",
      "value": {
        "_hex": "0x3cb6dccbbbd844000"
      },
      "nonce": 18,
      "data": "0x",
      "r": "0x804cdb1132cbb954db6f7bf174e50b042a45e9af555795c03503b633650fe49d",
      "s": "0x304d919172595a6443eab9747df53fb3d845dafdcbf16c3a853d6972b6696a3d",
      "v": 27,
      "creates": null,
      "raw": "0xf86d12850cf9b692448252089432be343b94f860124dc4fee278fdcbd38c102d888903cb6dccbbbd844000801ba0804cdb1132cbb954db6f7bf174e50b042a45e9af555795c03503b633650fe49da0304d919172595a6443eab9747df53fb3d845dafdcbf16c3a853d6972b6696a3d",
      "networkId": 0,
      "chainId": 0
    },
    {
      "hash": "0x40a9564c8a9decbbb8cd9f0f6fe047c840ec06feb4cbd5b1f110924cf3c1b573",
      "blockHash": "0x12841bc8829a7457b256d03ce79182c408988d4d3e7a41a8fd4b390525e0d625",
      "blockNumber": 80784,
      "transactionIndex": 1,
      "confirmations": null,
      "from": "0x34d34F0a638F6991e4E2536F41295DF6E934A646",
      "gasPrice": {
        "_hex": "0xcf9b69244"
      },
      "gasLimit": {
        "_hex": "0x5208"
      },
      "to": "0x32Be343B94f860124dC4fEe278FDCBD38C102D88",
      "value": {
        "_hex": "0x7a182b7d7ad5c400"
      },
      "nonce": 5,
      "data": "0x",
      "r": "0x005b20c962549696c7aca6cb0fabf7140fa014e21f0278c7c2a2a8b43ed59213",
      "s": "0x46e4cf2fe66b2fdd50b8ad96365c6bd85677e39c787c19e8192cf8a7b31b783a",
      "v": 27,
      "creates": null,
      "raw": "0xf86b05850cf9b692448252089432be343b94f860124dc4fee278fdcbd38c102d88887a182b7d7ad5c400801b9f5b20c962549696c7aca6cb0fabf7140fa014e21f0278c7c2a2a8b43ed59213a046e4cf2fe66b2fdd50b8ad96365c6bd85677e39c787c19e8192cf8a7b31b783a",
      "networkId": 0,
      "chainId": 0
    }
  ]
}