{
  "hash": "0xecb225d6d5494b267431ed3e89425019602951f9edb7e2c0e6f8abc38d939e60",
  "parentHash": "0xd00b0031ea6c2e5d181b06b74cdc2b09fd0143ab85b43c492d4d944377550638",
  "number": 107597,
  "timestamp": 1439925370,
  "nonce": "0xf6b9becb9c5ef0fd",
  "difficulty": 4377069771647,
  "gasLimit": {
    "_hex": "0x2fefd8"
  },
  "gasUsed": {
    "_hex": "0x5208"
  },
  "miner": "0x8Ab68e66cBE9f38Ad5C330a6B888DbC73788254A",
  "extraData": "0xda8098302e392e34302b2b302d524c696e75782f672b2b2f696e74",
  "transactions": [
    {
      "hash": "0x9ddc5daddfcb1abaf5b880ca7e4bff32a4865f5615ccfe17ab263b34ecccbae2",
      "blockHash": "0xecb225d6d5494b267431ed3e89425019602951f9edb7e2c0e6f8abc38d939e60",
      "blockNumber": 107597,
      "transactionIndex": 0,
      "confirmations": null,
      "from": "0x00f222E7C680F9932feCAC767cC279C84C0A3285",
      "gasPrice": {
        "_hex": "0xba43b7400"
      },
      "gasLimit": {
        "_hex": "0x9965e"
      },
      "to": "0x2FdA34cB6C13420bA8b8Af3cB1BA4F7CBb167821",
      "value": {
        "_hex": "0x16345785d8a0000"
      },
      "nonce": 1,
      "data": "0x",
      "r": "0xed7359a4f72c781346d5c481d246375daea0e3f3a29e725da77009b0bf20b43e",
      "s": "0x7bd216a0df5fb9935908027ee3f42fe20df2c3a22472d784323cfc342dfc08d4",
      "v": 28,
      "creates": null,
      "raw": "0xf86d01850ba43b74008309965e942fda34cb6c13420ba8b8af3cb1ba4f7cbb16782188016345785d8a0000801ca0ed7359a4f72c781346d5c481d246375daea0e3f3a29e725da77009b0bf20b43ea07bd216a0df5fb9935908027ee3f42fe20df2c3a22472d784323cfc342dfc08d4",
      "networkId": 0,
      "chainId": 0
    }
  ]
}