{
  "hash": "0xadcf4702bb6994861d142f5ec8c0b61fb72739a184b8bf27ada576b4d866e349",
  "parentHash": "0x3d96ddda64d3e9b569079d9ea85c80c1cdd02758d0bb601d160c96af25baa2a4",
  "number": 76185,
  "timestamp": 1439416188,
  "nonce": "0x47aa0de88b3e3863",
  "difficulty": 2237410925076,
  "gasLimit": {
    "_hex": "0x2fefd8"
  },
  "gasUsed": {
    "_hex": "0x5208"
  },
  "miner": "0xEF247E639d49461D25F57e9362CadE3120910Ce0",
  "extraData": "0x476574682f76312e302e312f6c696e75782f676f312e342e32",
  "transactions": [
    {
      "hash": "0xd9eebf9a03f825dea7f0f8002ee63712743478e49e954e2b3fff53a947f6d671",
      "blockHash": "0xadcf4702bb6994861d142f5ec8c0b61fb72739a184b8bf27ada576b4d866e349",
      "blockNumber": 76185,
      "transactionIndex": 0,
      "confirmations": null,
      "from": "0x120A270bbC009644e35F0bB6ab13f95b8199c4ad",
      "gasPrice": {
        "_hex": "0xd6ecb8123"
      },
      "gasLimit": {
        "_hex": "0x3d090"
      },
      "to": "0x6079e376F15F6cecd70C8AA4e081c7C74EC25F5f",
      "value": {
        "_hex": "0x1dff6f376cc71c00"
      },
      "nonce": 307,
      "data": "0x",
      "r": "0x586dae28cf4c4773dd3ceddf437d441075e4d61a9345fb5ba0534591cbaedd89",
      "s": "0x633cfd8f5faaddf65e671f3b767ecc4fcd3e9f2fffc0f9d1ba3353e17959ee66",
      "v": 27,
      "creates": null,
      "raw": "0xf86f820133850d6ecb81238303d090946079e376f15f6cecd70c8aa4e081c7c74ec25f5f881dff6f376cc71c00801ba0586dae28cf4c4773dd3ceddf437d441075e4d61a9345fb5ba0534591cbaedd89a0633cfd8f5faaddf65e671f3b767ecc4fcd3e9f2fffc0f9d1ba3353e17959ee66",
      "networkId": 0,
      "chainId": 0
    }
  ]
}