{
  "hash": "0x100f4101337a8e46d4a3effcfe6873e0441c6ad32493f4064ba02b6c52107f79",
  "parentHash": "0x438591610d5ad13c18cd9edb5a01536da7c5b0c693428543804b85ee05c8ab9f",
  "number": 66991,
  "timestamp": 1439263807,
  "nonce": "0x47a503078b5713be",
  "difficulty": 1949832525906,
  "gasLimit": {
    "_hex": "0x2fefd8"
  },
  "gasUsed": {
    "_hex": "0x5208"
  },
  "miner": "0x70137010922f2fC2964b3792907F79FBB75fEbe8",
  "extraData": "0x476574682f76312e302e302f6c696e75782f676f312e342e32",
  "transactions": [
    {
      "hash": "0x9c92bda92b61b3ddbb266b623d02fc69a0b6c727c318ed57f2f0c5fb34b5dec6",
      "blockHash": "0x100f4101337a8e46d4a3effcfe6873e0441c6ad32493f4064ba02b6c52107f79",
      "blockNumber": 66991,
      "transactionIndex": 0,
      "confirmations": null,
      "from": "0x32Be343B94f860124dC4fEe278FDCBD38C102D88",
      "gasPrice": {
        "_hex": "0xd4f01a151"
      },
      "gasLimit": {
        "_hex": "0x5208"
      },
      "to": "0x120A270bbC009644e35F0bB6ab13f95b8199c4ad",
      "value": {
        "_hex": "0xa2a15d09519be00000"
      },
      "nonce": 202,
      "data": "0x",
      "r": "0x828424809d2f56e210b25e700fc0ff4d0f4173005203be4fa74b951e90468e0c",
      "s": "0x0487dd27e119c879814381b3b3aea02929c55042b52d6e872b76f56a6d205e39",
      "v": 28,
      "creates": null,
      "raw": "0xf86e81ca850d4f01a15182520894120a270bbc009644e35f0bb6ab13f95b8199c4ad89a2a15d09519be00000801ca0828424809d2f56e210b25e700fc0ff4d0f4173005203be4fa74b951e90468e0ca00487dd27e119c879814381b3b3aea02929c55042b52d6e872b76f56a6d205e39",
      "networkId": 0,
      "chainId": 0
    }
  ]
}