{
  "hash": "0xc77c370a5e4f12e8e0b20e8435132a04d474a02323c86077d678cbaba2af5905",
  "parentHash": "0x079e8ddc250dede908a59daf0d04f1f703026607a26fa41ae9db6d4a287249af",
  "number": 47505,
  "timestamp": 1438941708,
  "nonce": "0x7a1f034e137966c1",
  "difficulty": 1448113516204,
  "gasLimit": {
    "_hex": "0xc81c"
  },
  "gasUsed": {
    "_hex": "0x546c"
  },
  "miner": "0xa50ec0D39fa913E62f1Bae7074E6F36caA71855b",
  "extraData": "0x476574682f76312e302e302f6c696e75782f676f312e342e32",
  "transactions": [
    {
      "hash": "0xcbaa1b514a4565003fa0708a21cf0ddb115ab20d2c9373ffda0c129d1deaeebc",
      "blockHash": "0xc77c370a5e4f12e8e0b20e8435132a04d474a02323c86077d678cbaba2af5905",
      "blockNumber": 47505,
      "transactionIndex": 0,
      "confirmations": null,
      "from": "0xE09C68e61998D9c81b14E4ee802BA7ADf6d74CdB",
      "gasPrice": {
        "_hex": "0x110c8f7d8de"
      },
      "gasLimit": {
        "_hex": "0xc350"
      },
      "to": "0x2910543Af39abA0Cd09dBb2D50200b3E800A63D2",
      "value": {
        "_hex": "0xde0b6b3a7640000"
      },
      "nonce": 0,
      "data": "0x454e32413658483230",
      "r": "0xa6b4a2a7988821ea5456e2debe38c2f12dfe3468db69b189473e0b839a10ed47",
      "s": "0xbc36ad2139e4d87ed96702ae2eb06723575381d804f38592bda59c936c1872c9",
      "v": 28,
      "creates": null,
      "raw": "0xf87680860110c8f7d8de82c350942910543af39aba0cd09dbb2d50200b3e800a63d2880de0b6b3a764000089454e324136584832301ca0a6b4a2a7988821ea5456e2debe38c2f12dfe3468db69b189473e0b839a10ed47a0bc36ad2139e4d87ed96702ae2eb06723575381d804f38592bda59c936c1872c9",
      "networkId": 0,
      "chainId": 0
    }
  ]
}