{
  "hash": "0x2c6ac5571e00cf95bb3c9e2c3214e2935d2b04321fe35b55271af47dca98c108",
  "parentHash": "0x004b857387d782ab107760e0a56a932c1aa54484616bcfb89774c15d2d30ac53",
  "number": 84254,
  "timestamp": 1439547065,
  "nonce": "0x97471826cedc5867",
  "difficulty": 2531644746768,
  "gasLimit": {
    "_hex": "0x2fefd8"
  },
  "gasUsed": {
    "_hex": "0x2e248"
  },
  "miner": "0x9Fa9952255B2b06639A04D63804d4BdFFf6E2d7e",
  "extraData": "0x476574682f76312e302e312f77696e646f77732f676f312e342e32",
  "transactions": [
    {
      "hash": "0x0b64333ff0168c18d6e571f321eccb53e1b660db19ee6892882bd57d48c33b28",
      "blockHash": "0x2c6ac5571e00cf95bb3c9e2c3214e2935d2b04321fe35b55271af47dca98c108",
      "blockNumber": 84254,
      "transactionIndex": 0,
      "confirmations": null,
      "from": "0xe6A7a1d47ff21B6321162AEA7C6CB457D5476Bca",
      "gasPrice": {
        "_hex": "0xdf75b77a8"
      },
      "gasLimit": {
        "_hex": "0x55f0"
      },
      "to": "0x7871C9936A21B89507B5B65C7B13d8216D832D76",
      "value": {
        "_hex": "0xf79addef3a6a6a4"
      },
      "nonce": 1415,
      "data": "0x",
      "r": "0x948a02ed1a2b5451cc4360a39648880e0ba1ebf851e00a59351f36da96dc7196",
      "s": "0x48b90b50e6a1bef0066bef2fe3f8b2906cdec08ef94879dfdf8afb6150594edc",
      "v": 27,
      "creates": null,
      "raw": "0xf86e820587850df75b77a88255f0947871c9936a21b89507b5b65c7b13d8216d832d76880f79addef3a6a6a4801ba0948a02ed1a2b5451cc4360a39648880e0ba1ebf851e00a59351f36da96dc7196a048b90b50e6a1bef0066bef2fe3f8b2906cdec08ef94879dfdf8afb6150594edc",
      "networkId": 0,
      "chainId": 0
    },
    {
      "hash": "0xe047df57b251c1b9f0b12ef0ab09c9035644d9fe68dafe752259f4ed5e44c560",
      "blockHash": "0x2c6ac5571e00cf95bb3c9e2c3214e2935d2b04321fe35b55271af47dca98c108",
      "blockNumber": 84254,
      "transactionIndex": 1,
      "confirmations": null,
      "from": "0xe6A7a1d47ff21B6321162AEA7C6CB457D5476Bca",
      "gasPrice": {
        "_hex": "0xdf75b77a8"
      },
      "gasLimit": {
        "_hex": "0x55f0"
      },
      "to": "0x911C819565DA29661e97381cbde506ACF7aabf65",
      "value": {
        "_hex": "0xfb1caae27b0e3dc"
      },
      "nonce": 1416,
      "data": "0x",
      "r": "0xbf156a10c83673b65b002ce6e2e6a17a5e597632000ddc38d56400f294d9cd49",
      "s": "0x3e5fa6578da1b2d429503fe94a45421255e698e1653b6eb33f78a5c97f133f51",
      "v": 28,
      "creates": null,
      "raw": "0xf86e820588850df75b77a88255f094911c819565da29661e97381cbde506acf7aabf65880fb1caae27b0e3dc801ca0bf156a10c83673b65b002ce6e2e6a17a5e597632000ddc38d56400f294d9cd49a03e5fa6578da1b2d429503fe94a45421255e698e1653b6eb33f78a5c97f133f51",
      "networkId": 0,
      "chainId": 0
    },
    {
      "hash": "0x7b278fb27edf4f21837b683796020a1c385886318aa16e5c9debc686ddda8611",
      "blockHash": "0x2c6ac5571e00cf95bb3c9e2c3214e2935d2b04321fe35b55271af47dca98c108",
      "blockNumber": 84254,
      "transactionIndex": 2,
      "confirmations": null,
      "from": "0xe6A7a1d47ff21B6321162AEA7C6CB457D5476Bca",
      "gasPrice": {
        "_hex": "0xdf75b77a8"
      },
      "gasLimit": {
        "_hex": "0x55f0"
      },
      "to": "0xdCe26B66eabfB4dE900E4944DcC2FA2d455021fc",
      "value": {
        "_hex": "0xfde87bdf7613bb0"
      },
      "nonce": 1417,
      "data": "0x",
      "r": "0x834cfddda595a56fb8566ad45853655942082655897279ff3576afbca6ffb7e7",
      "s": "0x479cf97bf21b9d5354d630adde188e4ae6ddc420301e6768fc2049935e8e829a",
      "v": 28,
      "creates": null,
      "raw": "0xf86e820589850df75b77a88255f094dce26b66eabfb4de900e4944dcc2fa2d455021fc880fde87bdf7613bb0801ca0834cfddda595a56fb8566ad45853655942082655897279ff3576afbca6ffb7e7a0479cf97bf21b9d5354d630adde188e4ae6ddc420301e6768fc2049935e8e829a",
      "networkId": 0,
      "chainId": 0
    },
    {
      "hash": "0x37d5de11704db37f298a5f1d3bb64c5d2784422f53b19300386b0b2061e8d7b5",
      "blockHash": "0x2c6ac5571e00cf95bb3c9e2c3214e2935d2b04321fe35b55271af47dca98c108",
      "blockNumber": 84254,
      "transactionIndex": 3,
      "confirmations": null,
      "from": "0xe6A7a1d47ff21B6321162AEA7C6CB457D5476Bca",
      "gasPrice": {
        "_hex": "0xdf75b77a8"
      },
      "gasLimit": {
        "_hex": "0x55f0"
      },
      "to": "0xb1eeAd479B0De423c2E956CA277BE7C70a612293",
      "value": {
        "_hex": "0x103bb291234ee618"
      },
      "nonce": 1418,
      "data": "0x",
      "r": "0x75e55bac286dfbbf4218b0d3791690aaee1614c944b859defcc3d0df5015898c",
      "s": "0x366325e50574ecdcc31f41ecfc2f837dbf70c8875f6cb68f7bc0158b82170ce2",
      "v": 28,
      "creates": null,
      "raw": "0xf86e82058a850df75b77a88255f094b1eead479b0de423c2e956ca277be7c70a61229388103bb291234ee618801ca075e55bac286dfbbf4218b0d3791690aaee1614c944b859defcc3d0df5015898ca0366325e50574ecdcc31f41ecfc2f837dbf70c8875f6cb68f7bc0158b82170ce2",
      "networkId": 0,
      "chainId": 0
    },
    {
      "hash": "0x0476d47e6f17288b8ce097b7af1688cded0cb61eeb475a4198bfcd57a3624e70",
      "blockHash": "0x2c6ac5571e00cf95bb3c9e2c3214e2935d2b04321fe35b55271af47dca98c108",
      "blockNumber": 84254,
      "transactionIndex": 4,
      "confirmations": null,
      "from": "0xe6A7a1d47ff21B6321162AEA7C6CB457D5476Bca",
      "gasPrice": {
        "_hex": "0xdf75b77a8"
      },
      "gasLimit": {
        "_hex": "0x55f0"
      },
      "to": "0x5E4b2D8d8fc2332da92f225890520d41EdB0Ea50",
      "value": {
        "_hex": "0x105a3ad00c4e30dc"
      },
      "nonce": 1419,
      "data": "0x",
      "r": "0x7040842569ee88e0f0ce2e49d3824db0ed086514c007d116e8b1629d910c4147",
      "s": "0x5aedacb8b454711dda95981c6d1a2d4c5b2537f89161cc5a935ccbea8c70fa59",
      "v": 28,
      "creates": null,
      "raw": "0xf86e82058b850df75b77a88255f0945e4b2d8d8fc2332da92f225890520d41edb0ea5088105a3ad00c4e30dc801ca07040842569ee88e0f0ce2e49d3824db0ed086514c007d116e8b1629d910c4147a05aedacb8b454711dda95981c6d1a2d4c5b2537f89161cc5a935ccbea8c70fa59",
      "networkId": 0,
      "chainId": 0
    },
    {
      "hash": "0x1d8e28435db73f65528646c0c8f48f0f42034175e769471d765fff411bbffe5b",
      "blockHash": "0x2c6ac5571e00cf95bb3c9e2c3214e2935d2b04321fe35b55271af47dca98c108",
      "blockNumber": 84254,
      "transactionIndex": 5,
      "confirmations": null,
      "from": "0xe6A7a1d47ff21B6321162AEA7C6CB457D5476Bca",
      "gasPrice": {
        "_hex": "0xdf75b77a8"
      },
      "gasLimit": {
        "_hex": "0x55f0"
      },
      "to": "0x519DC97eF09491aE962A8F13fe144c71feca4662",
      "value": {
        "_hex": "0x107e6bea03df01f0"
      },
      "nonce": 1420,
      "data": "0x",
      "r": "0x563b20ecfbf90c90927b5c3bc1580d751e909d64ce580d193107cb7a4d3bef6c",
      "s": "0x52ebc05fd673935921ee41452b4705f83549c4d49a54f8d39fe09328e622925b",
      "v": 27,
      "creates": null,
      "raw": "0xf86e82058c850df75b77a88255f094519dc97ef09491ae962a8f13fe144c71feca466288107e6bea03df01f0801ba0563b20ecfbf90c90927b5c3bc1580d751e909d64ce580d193107cb7a4d3bef6ca052ebc05fd673935921ee41452b4705f83549c4d49a54f8d39fe09328e622925b",
      "networkId": 0,
      "chainId": 0
    },
    {
      "hash": "0x8cee52327d7cb3d91aff03122b7fa9bffcaa60016f0f35fcc5e320680f87a2a7",
      "blockHash": "0x2c6ac5571e00cf95bb3c9e2c3214e2935d2b04321fe35b55271af47dca98c108",
      "blockNumber": 84254,
      "transactionIndex": 6,
      "confirmations": null,
      "from": "0xe6A7a1d47ff21B6321162AEA7C6CB457D5476Bca",
      "gasPrice": {
        "_hex": "0xdf75b77a8"
      },
      "gasLimit": {
        "_hex": "0x55f0"
      },
      "to": "0x62C0628EeA08203A030EE278217315fD43A5d57A",
      "value": {
        "_hex": "0x108b5c5999d2fbf0"
      },
      "nonce": 1421,
      "data": "0x",
      "r": "0xc801f6ff2b9a47e327afc3f54c1325b689c37828b2a12e145e8173b3b5a68098",
      "s": "0x319e60026b742935bc6aaa2fdd25c2e310e84563b33f73cf8338906d10187fc9",
      "v": 28,
      "creates": null,
      "raw": "0xf86e82058d850df75b77a88255f09462c0628eea08203a030ee278217315fd43a5d57a88108b5c5999d2fbf0801ca0c801f6ff2b9a47e327afc3f54c1325b689c37828b2a12e145e8173b3b5a68098a0319e60026b742935bc6aaa2fdd25c2e310e84563b33f73cf8338906d10187fc9",
      "networkId": 0,
      "chainId": 0
    },
    {
      "hash": "0x78b0efe7bee2c957f3218ae67600d7e93835ada711c37f1f7bbbe31239a7af4e",
      "blockHash": "0x2c6ac5571e00cf95bb3c9e2c3214e2935d2b04321fe35b55271af47dca98c108",
      "blockNumber": 84254,
      "transactionIndex": 7,
      "confirmations": null,
      "from": "0xe6A7a1d47ff21B6321162AEA7C6CB457D5476Bca",
      "gasPrice": {
        "_hex": "0xdf75b77a8"
      },
      "gasLimit": {
        "_hex": "0x55f0"
      },
      "to": "0xC13Dad778D7BcE116BD97f744625D57f7124c38A",
      "value": {
        "_hex": "0x10f3684c218b68a0"
      },
      "nonce": 1422,
      "data": "0x",
      "r": "0x5c5f5838481be8a91d7ed62cdeaefac5d6a249126e15da1b3063e66ad018edea",
      "s": "0x21739a64503404d31078600dcc453c59c0b80478655388c820d87b2f0181687e",
      "v": 27,
      "creates": null,
      "raw": "0xf86e82058e850df75b77a88255f094c13dad778d7bce116bd97f744625d57f7124c38a8810f3684c218b68a0801ba05c5f5838481be8a91d7ed62cdeaefac5d6a249126e15da1b3063e66ad018edeaa021739a64503404d31078600dcc453c59c0b80478655388c820d87b2f0181687e",
      "networkId": 0,
      "chainId": 0
    },
    {
      "hash": "0x24c30fb7cc49b9d1a1d60a025e74b74b673d2048807015e6c08d31ddb0ce680d",
      "blockHash": "0x2c6ac5571e00cf95bb3c9e2c3214e2935d2b04321fe35b55271af47dca98c108",
      "blockNumber": 84254,
      "transactionIndex": 8,
      "confirmations": null,
      "from": "0xe6A7a1d47ff21B6321162AEA7C6CB457D5476Bca",
      "gasPrice": {
        "_hex": "0xdf75b77a8"
      },
      "gasLimit": {
        "_hex": "0x55f0"
      },
      "to": "0xc61cbA90ba820f8D70f3AfE3dDfEA5201A0Bb795",
      "value": {
        "_hex": "0x111c0141b90517b0"
      },
      "nonce": 1423,
      "data": "0x",
      "r": "0x24b0216f10715c9c2131fbba27ae598eec4b88c6ca699214f9cf444aae4f544f",
      "s": "0x2443e0b3298577150339c013e60146e448c591b087586740afe7447ad8ae7a05",
      "v": 28,
      "creates": null,
      "raw": "0xf86e82058f850df75b77a88255f094c61cba90ba820f8d70f3afe3ddfea5201a0bb79588111c0141b90517b0801ca024b0216f10715c9c2131fbba27ae598eec4b88c6ca699214f9cf444aae4f544fa02443e0b3298577150339c013e60146e448c591b087586740afe7447ad8ae7a05",
      "networkId": 0,
      "chainId": 0
    }
  ]
}