{
  "hash": "0x66121d657e6da6315280d414dc1df05c66e3ee2eca8248c809ae25889e1c7866",
  "parentHash": "0x080343666d1edabc7c2a639bcf68f03b67177df8021d1d5261b1593ae6b28416",
  "number": 46940,
  "timestamp": 1438931899,
  "nonce": "0xea890dfb3d1f25e3",
  "difficulty": 1458857009115,
  "gasLimit": {
    "_hex": "0x8791"
  },
  "gasUsed": {
    "_hex": "0x5428"
  },
  "miner": "0xbb7B8287f3F0a933474a79eAe42CBCa977791171",
  "extraData": "0x476574682f4c5649562f76312e302e312f6c696e75782f676f312e342e32",
  "transactions": [
    {
      "hash": "0x9c1039693972484c4efbd1901136cbcae9c2be4e3dbad6a86b065ffa672161d1",
      "blockHash": "0x66121d657e6da6315280d414dc1df05c66e3ee2eca8248c809ae25889e1c7866",
      "blockNumber": 46940,
      "transactionIndex": 0,
      "confirmations": null,
      "from": "0xf7500C166f8beA2f82347606e5024BE9e4f4cE99",
      "gasPrice": {
        "_hex": "0x68c6171400"
      },
      "gasLimit": {
        "_hex": "0x80e8"
      },
      "to": "0x2d3Cf607ADCE246F0750b08eBDC87789edb2a407",
      "value": {
        "_hex": "0xde0b6b3a7640000"
      },
      "nonce": 2,
      "data": "0x5634564547414e21",
      "r": "0x223391e6c64459274e66eaebcdc12d3ca50e7ce5c7932779bba33fa998b05d80",
      "s": "0x23c7f6ca6d33528562bc9249fc8d32b36844a61ec2602ca6dc55f3b69313b879",
      "v": 28,
      "creates": null,
      "raw": "0xf874028568c61714008280e8942d3cf607adce246f0750b08ebdc87789edb2a407880de0b6b3a7640000885634564547414e211ca0223391e6c64459274e66eaebcdc12d3ca50e7ce5c7932779bba33fa998b05d80a023c7f6ca6d33528562bc9249fc8d32b36844a61ec2602ca6dc55f3b69313b879",
      "networkId": 0,
      "chainId": 0
    }
  ]
}