{
  "hash": "0x036c795bd5c4a226e310dbef62e1cd4deefcbd743f6bc5dc21c1cee8cd34d50d",
  "parentHash": "0xb7f36e59ae92a533377d03cae16f528f48cbf2024d4c7e74b523102f323265af",
  "number": 91070,
  "timestamp": 1439650011,
  "nonce": "0xa6ddd34c5bf30517",
  "difficulty": 3430630908347,
  "gasLimit": {
    "_hex": "0x2fefd8"
  },
  "gasUsed": {
    "_hex": "0x5208"
  },
  "miner": "0x47ff6576639c2e94762eA5443978D7681C0E78DC",
  "extraData": "0x476574682f76312e302e312f6c696e75782f676f312e342e32",
  "transactions": [
    {
      "hash": "0x5f2e77b70598152458e6f9c985d1a0bba80204fca6e7799b0b152a531439063e",
      "blockHash": "0x036c795bd5c4a226e310dbef62e1cd4deefcbd743f6bc5dc21c1cee8cd34d50d",
      "blockNumber": 91070,
      "transactionIndex": 0,
      "confirmations": null,
      "from": "0x8F79f76381Aad7B98C19aF55eE75fdfEeb012211",
      "gasPrice": {
        "_hex": "0xccebcee6a"
      },
      "gasLimit": {
        "_hex": "0x5208"
      },
      "to": "0x32Be343B94f860124dC4fEe278FDCBD38C102D88",
      "value": {
        "_hex": "0x2707c02f57312a000"
      },
      "nonce": 30,
      "data": "0x",
      "r": "0xfb5619f51a2222fad83fa84645a6a2fafc98902aabd04c37b19fefa58c453dbf",
      "s": "0x19de03d34cec621d22e52d8c7fe9b643089f328f396b20d6fa24246d04f53b63",
      "v": 28,
      "creates": null,
      "raw": "0xf86d1e850ccebcee6a8252089432be343b94f860124dc4fee278fdcbd38c102d888902707c02f57312a000801ca0fb5619f51a2222fad83fa84645a6a2fafc98902aabd04c37b19fefa58c453dbfa019de03d34cec621d22e52d8c7fe9b643089f328f396b20d6fa24246d04f53b63",
      "networkId": 0,
      "chainId": 0
    }
  ]
}