{
  "hash": "0xcb2237a235b195acd89d2282d119debfb042a270891457ff18d99ef69a84b657",
  "parentHash": "0x4d0270685804a796120fa9b953d3a0ebf66d429df8874c1d07c8117f2cba2b25",
  "number": 115986,
  "timestamp": 1440066500,
  "nonce": "0xcf28fda130d08c97",
  "difficulty": 4584782818476,
  "gasLimit": {
    "_hex": "0x2fefd5"
  },
  "gasUsed": {
    "_hex": "0x5208"
  },
  "miner": "0x8f6E4E97770BD1F1C5CDBd294213B28657C28690",
  "extraData": "0x476574682f76312e302e312f6c696e75782f676f312e342e32",
  "transactions": [
    {
      "hash": "0xe9db085f1dca312b591f646ffe63ed8fc2e6dd59a0b9f55a31f4fca7e31a1ae1",
      "blockHash": "0xcb2237a235b195acd89d2282d119debfb042a270891457ff18d99ef69a84b657",
      "blockNumber": 115986,
      "transactionIndex": 0,
      "confirmations": null,
      "from": "0x890Fe11f3c24dB8732D6C2e772E2297c7E65F139",
      "gasPrice": {
        "_hex": "0xd797af1c6"
      },
      "gasLimit": {
        "_hex": "0x15f90"
      },
      "to": "0x45E19D9F052b9c35AC8385094C9fff6f1C544794",
      "value": {
        "_hex": "0x4b75e170de2fc0000"
      },
      "nonce": 5,
      "data": "0x",
      "r": "0x08289b5063b4e348959f6406f563438503dfe7199459de39ded6450556e6d0e4",
      "s": "0x17789c0c19b141de3e97c7d058fe4bf61fc343f02a3f3ae69809c3db04df6157",
      "v": 27,
      "creates": null,
      "raw": "0xf86e05850d797af1c683015f909445e19d9f052b9c35ac8385094c9fff6f1c5447948904b75e170de2fc0000801ba008289b5063b4e348959f6406f563438503dfe7199459de39ded6450556e6d0e4a017789c0c19b141de3e97c7d058fe4bf61fc343f02a3f3ae69809c3db04df6157",
      "networkId": 0,
      "chainId": 0
    }
  ]
}