{
  "hash": "0x9dbfabd455114bee9a5b427acd15d2915dc008f926b174237ee828c846135ea8",
  "parentHash": "0x580c733e0c36461a9e511c2991abf1aba9f486f4c4c03b467861258cbb5eb15b",
  "number": 108295,
  "timestamp": 1439937948,
  "nonce": "0xdad4e3b25af5395d",
  "difficulty": 4346888720202,
  "gasLimit": {
    "_hex": "0x2fefd8"
  },
  "gasUsed": {
    "_hex": "0x5208"
  },
  "miner": "0xfFcD9CAE6d9f54fd8ae05296F839892677ff6EaA",
  "extraData": "0x476574682f76312e302e312f77696e646f77732f676f312e342e32",
  "transactions": [
    {
      "hash": "0x79df3e81be458defb368009b4dd1b0a7de84aa876d109164d6bfbada0ea79b53",
      "blockHash": "0x9dbfabd455114bee9a5b427acd15d2915dc008f926b174237ee828c846135ea8",
      "blockNumber": 108295,
      "transactionIndex": 0,
      "confirmations": null,
      "from": "0xA2Cb067D1B3038eEe446d994440C0ae9cf1abfdF",
      "gasPrice": {
        "_hex": "0xd1ef68223"
      },
      "gasLimit": {
        "_hex": "0x7530"
      },
      "to": "0x6De181Fc4C140FA31F196e5393516c49EEeBdAd3",
      "value": {
        "_hex": "0x97f636fc02870000"
      },
      "nonce": 8,
      "data": "0x",
      "r": "0x4756f521b5cddffbee3300ef8feeb01121573e687c77cb8f15af9124bdfd957d",
      "s": "0x2bb228a928665f7f78409ca526421f2942566aeda26544c9da61084bcd33b681",
      "v": 28,
      "creates": null,
      "raw": "0xf86c08850d1ef68223827530946de181fc4c140fa31f196e5393516c49eeebdad38897f636fc02870000801ca04756f521b5cddffbee3300ef8feeb01121573e687c77cb8f15af9124bdfd957da02bb228a928665f7f78409ca526421f2942566aeda26544c9da61084bcd33b681",
      "networkId": 0,
      "chainId": 0
    }
  ]
}