{
  "hash": "0x4d8cbfc488c8b7e68d9f6a3d8af0fde9695f2923b5c869ea812c1d0b01177fca",
  "parentHash": "0x0071b05732c265a79c47b7c927039a5a13a1fb01aee586500c24591ce6870350",
  "number": 117889,
  "timestamp": 1440117017,
  "nonce": "0xc80e336ad757b102",
  "difficulty": 4341920051247,
  "gasLimit": {
    "_hex": "0x2fefd8"
  },
  "gasUsed": {
    "_hex": "0x29040"
  },
  "miner": "0x52bc44d5378309EE2abF1539BF71dE1b7d7bE3b5",
  "extraData": "0xd783010002844765746887676f312e342e32856c696e7578",
  "transactions": [
    {
      "hash": "0x36afb5416224160044062eb1aa1227ba70c126818feb3e12d3905761500aa231",
      "blockHash": "0x4d8cbfc488c8b7e68d9f6a3d8af0fde9695f2923b5c869ea812c1d0b01177fca",
      "blockNumber": 117889,
      "transactionIndex": 0,
      "confirmations": null,
      "from": "0x0f36D8B9254f1B059d0B4c4FeEceB82EE24a6180",
      "gasPrice": {
        "_hex": "0xba43b7400"
      },
      "gasLimit": {
        "_hex": "0x5208"
      },
      "to": "0x32Be343B94f860124dC4fEe278FDCBD38C102D88",
      "value": {
        "_hex": "0x143e993dcb733800"
      },
      "nonce": 6,
      "data": "0x",
      "r": "0xa702e2cbd9d67a37f9bf3058aa520eb95f5499bab5541d46e27f50e573fe953a",
      "s": "0x79b900ba1e3da1cedf5878ef05735b8372714ff1230cf64ba8e0d154d5fa7dbd",
      "v": 27,
      "creates": null,
      "raw": "0xf86c06850ba43b74008252089432be343b94f860124dc4fee278fdcbd38c102d8888143e993dcb733800801ba0a702e2cbd9d67a37f9bf3058aa520eb95f5499bab5541d46e27f50e573fe953aa079b900ba1e3da1cedf5878ef05735b8372714ff1230cf64ba8e0d154d5fa7dbd",
      "networkId": 0,
      "chainId": 0
    },
    {
      "hash": "0x51824e8e5a4c6e623f2c02a8822acbffde0b2d033f857c35319ad1563788354b",
      "blockHash": "0x4d8cbfc488c8b7e68d9f6a3d8af0fde9695f2923b5c869ea812c1d0b01177fca",
      "blockNumber": 117889,
      "transactionIndex": 1,
      "confirmations": null,
      "from": "0x8C37447a7930187595EC51FEA6f749C4F8a96cD4",
      "gasPrice": {
        "_hex": "0xba43b7400"
      },
      "gasLimit": {
        "_hex": "0x5208"
      },
      "to": "0x32Be343B94f860124dC4fEe278FDCBD38C102D88",
      "value": {
        "_hex": "0x59d066d76f237800"
      },
      "nonce": 13,
      "data": "0x",
      "r": "0xe85a2384d0381b51b604e6d6a9b1bf90707c0b3ca564be162b16b82193354429",
      "s": "0x11898e86d533c944ad7d4d656bfa6fa03411ffe273394ffce0ad7c12948c3fd3",
      "v": 28,
      "creates": null,
      "raw": "0xf86c0d850ba43b74008252089432be343b94f860124dc4fee278fdcbd38c102d888859d066d76f237800801ca0e85a2384d0381b51b604e6d6a9b1bf90707c0b3ca564be162b16b82193354429a011898e86d533c944ad7d4d656bfa6fa03411ffe273394ffce0ad7c12948c3fd3",
      "networkId": 0,
      "chainId": 0
    },
    {
      "hash": "0xfbe54fede07ec5a44d1defe9b61f015da486000084b37b30f32a4359b5ac7a9d",
      "blockHash": "0x4d8cbfc488c8b7e68d9f6a3d8af0fde9695f2923b5c869ea812c1d0b01177fca",
      "blockNumber": 117889,
      "transactionIndex": 2,
      "confirmations": null,
      "from": "0x64fd89BDC1a51083fa01B387A4F8d02899321850",
      "gasPrice": {
        "_hex": "0xba43b7400"
      },
      "gasLimit": {
        "_hex": "0x5208"
      },
      "to": "0x32Be343B94f860124dC4fEe278FDCBD38C102D88",
      "value": {
        "_hex": "0x1235ac42f36a0c00"
      },
      "nonce": 4,
      "data": "0x",
      "r": "0xf1e614d4e20263052b1aa59ca93b44da2713ad016bf6e4c526ec4fcfc0021ebd",
      "s": "0x72c6b93693cd0a7d91fb35f6eb3708e6c5d2079de44e8298e77c8d30c096dbbf",
      "v": 27,
      "creates": null,
      "raw": "0xf86c04850ba43b74008252089432be343b94f860124dc4fee278fdcbd38c102d88881235ac42f36a0c00801ba0f1e614d4e20263052b1aa59ca93b44da2713ad016bf6e4c526ec4fcfc0021ebda072c6b93693cd0a7d91fb35f6eb3708e6c5d2079de44e8298e77c8d30c096dbbf",
      "networkId": 0,
      "chainId": 0
    },
    {
      "hash": "0x83e0821785f436bfdf4418208a8c20ed7921a1d4b2270e2d0907ac6a49777354",
      "blockHash": "0x4d8cbfc488c8b7e68d9f6a3d8af0fde9695f2923b5c869ea812c1d0b01177fca",
      "blockNumber": 117889,
      "transactionIndex": 3,
      "confirmations": null,
      "from": "0xB9A0a0410aA5e26bFa66Cc3ACAF0A6FC61Df5588",
      "gasPrice": {
        "_hex": "0xba43b7400"
      },
      "gasLimit": {
        "_hex": "0x5208"
      },
      "to": "0x32Be343B94f860124dC4fEe278FDCBD38C102D88",
      "value": {
        "_hex": "0x2ed62ceed22146000"
      },
      "nonce": 12,
      "data": "0x",
      "r": "0x28f78a22e9db9e3967c0843914a2afa09d2062e9212290cb4a7117f8f33f6b5e",
      "s": "0x7f6dbbb26d3d616cdc57a48c9f642f02f59924dbf2dda451bd63fc6012202609",
      "v": 27,
      "creates": null,
      "raw": "0xf86d0c850ba43b74008252089432be343b94f860124dc4fee278fdcbd38c102d888902ed62ceed22146000801ba028f78a22e9db9e3967c0843914a2afa09d2062e9212290cb4a7117f8f33f6b5ea07f6dbbb26d3d616cdc57a48c9f642f02f59924dbf2dda451bd63fc6012202609",
      "networkId": 0,
      "chainId": 0
    },
    {
      "hash": "0x0d4cd29005725d6f4bfb84c6cde4fd0261788ad13a01596dc03c471a10c7aa0b",
      "blockHash": "0x4d8cbfc488c8b7e68d9f6a3d8af0fde9695f2923b5c869ea812c1d0b01177fca",
      "blockNumber": 117889,
      "transactionIndex": 4,
      "confirmations": null,
      "from": "0x68d3578bFBeEFB9C1e31cE355A29ad3a107F88C5",
      "gasPrice": {
        "_hex": "0xba43b7400"
      },
      "gasLimit": {
        "_hex": "0x5208"
      },
      "to": "0x32Be343B94f860124dC4fEe278FDCBD38C102D88",
      "value": {
        "_hex": "0x137936e83dd06400"
      },
      "nonce": 10,
      "data": "0x",
      "r": "0x40309757197dae70b560d3039313943519cd27f8c58540a2a605400fe03bdfe2",
      "s": "0x390fd4159e39d5edd26ca72d0c640cf8b7ff81d35be301e779125dc4dc815906",
      "v": 28,
      "creates": null,
      "raw": "0xf86c0a850ba43b74008252089432be343b94f860124dc4fee278fdcbd38c102d8888137936e83dd06400801ca040309757197dae70b560d3039313943519cd27f8c58540a2a605400fe03bdfe2a0390fd4159e39d5edd26ca72d0c640cf8b7ff81d35be301e779125dc4dc815906",
      "networkId": 0,
      "chainId": 0
    },
    {
      "hash": "0x07421ae72fc10c4cb4de3fa47e0472c80ae94daafad3575b4fa6e116b3412f94",
      "blockHash": "0x4d8cbfc488c8b7e68d9f6a3d8af0fde9695f2923b5c869ea812c1d0b01177fca",
      "blockNumber": 117889,
      "transactionIndex": 5,
      "confirmations": null,
      "from": "0x19ae27E1b61445EB9f27821A5eB4b3e957319e7e",
      "gasPrice": {
        "_hex": "0xba43b7400"
      },
      "gasLimit": {
        "_hex": "0x5208"
      },
      "to": "0x32Be343B94f860124dC4fEe278FDCBD38C102D88",
      "value": {
        "_hex": "0xf8a7f0e11e8a600000"
      },
      "nonce": 19,
      "data": "0x",
      "r": "0x94454a4e05dd1c7baf818492de426af8116b8538bf7f3821cd5114fa5684601a",
      "s": "0x396d0bfa24836358ebf4cad31a14a3cfeec7d5fe0cca63d6651e8c096dab5d75",
      "v": 27,
      "creates": null,
      "raw": "0xf86d13850ba43b74008252089432be343b94f860124dc4fee278fdcbd38c102d8889f8a7f0e11e8a600000801ba094454a4e05dd1c7baf818492de426af8116b8538bf7f3821cd5114fa5684601aa0396d0bfa24836358ebf4cad31a14a3cfeec7d5fe0cca63d6651e8c096dab5d75",
      "networkId": 0,
      "chainId": 0
    },
    {
      "hash": "0xa44b84cc74575e34bccc38b1c3f0f0bf906f00876b22d54f3f54d36cbbeb5f37",
      "blockHash": "0x4d8cbfc488c8b7e68d9f6a3d8af0fde9695f2923b5c869ea812c1d0b01177fca",
      "blockNumber": 117889,
      "transactionIndex": 6,
      "confirmations": null,
      "from": "0x04a6c6a293340Fc3f2244D097b0CFD84d5317bA5",
      "gasPrice": {
        "_hex": "0xba43b7400"
      },
      "gasLimit": {
        "_hex": "0x5208"
      },
      "to": "0x32Be343B94f860124dC4fEe278FDCBD38C102D88",
      "value": {
        "_hex": "0xae3e616c8cac8000"
      },
      "nonce": 8,
      "data": "0x",
      "r": "0x95b635be8b7884db4a27e8b91bb699e5223314fe41c2800ffecb09a8a8938b27",
      "s": "0x201a3ea4b0dc4e67d4a598978fb0297167d9f1b51b5cabcb1a9c45f15244cb59",
      "v": 28,
      "creates": null,
      "raw": "0xf86c08850ba43b74008252089432be343b94f860124dc4fee278fdcbd38c102d8888ae3e616c8cac8000801ca095b635be8b7884db4a27e8b91bb699e5223314fe41c2800ffecb09a8a8938b27a0201a3ea4b0dc4e67d4a598978fb0297167d9f1b51b5cabcb1a9c45f15244cb59",
      "networkId": 0,
      "chainId": 0
    },
    {
      "hash": "0x1d003f17416f9baaf8d4129f3debc67199465e8ff81e55b48417a3ae584cdb91",
      "blockHash": "0x4d8cbfc488c8b7e68d9f6a3d8af0fde9695f2923b5c869ea812c1d0b01177fca",
      "blockNumber": 117889,
      "transactionIndex": 7,
      "confirmations": null,
      "from": "0xe535C1c29F0091324F184de7a5be5520D1b0b008",
      "gasPrice": {
        "_hex": "0xba43b7400"
      },
      "gasLimit": {
        "_hex": "0x5208"
      },
      "to": "0x32Be343B94f860124dC4fEe278FDCBD38C102D88",
      "value": {
        "_hex": "0x1fe6fbbd3c672400"
      },
      "nonce": 9,
      "data": "0x",
      "r": "0xe92200b63527cfb415fa7e6a0837493a0be7ff6127ccd7a2e147db0a146ce0f9",
      "s": "0x72a3a245ac6c91c8679c5da02bac5308834be26a139e6b8b841141fda52a953c",
      "v": 28,
      "creates": null,
      "raw": "0xf86c09850ba43b74008252089432be343b94f860124dc4fee278fdcbd38c102d88881fe6fbbd3c672400801ca0e92200b63527cfb415fa7e6a0837493a0be7ff6127ccd7a2e147db0a146ce0f9a072a3a245ac6c91c8679c5da02bac5308834be26a139e6b8b841141fda52a953c",
      "networkId": 0,
      "chainId": 0
    }
  ]
}