{
  "hash": "0xdf9c3689babf96dc8494a9712bb6d53ede174fa7be61ae05f48d6477f28fbb62",
  "parentHash": "0x6132ac42833d4d140656913da1ef3a9e69ee33ca6b93f231d0aa019989d335be",
  "number": 108148,
  "timestamp": 1439934938,
  "nonce": "0x51b887a1697d4014",
  "difficulty": 4378919898929,
  "gasLimit": {
    "_hex": "0x2fefd8"
  },
  "gasUsed": {
    "_hex": "0x5208"
  },
  "miner": "0x55bAf64fc9eAccFFd7Cc643BB61142E1C6ac093e",
  "extraData": "0x",
  "transactions": [
    {
      "hash": "0x81ba1b37d6324fd14942571f6d656bf8557715278d366c4738ee3d9ffbc02cdd",
      "blockHash": "0xdf9c3689babf96dc8494a9712bb6d53ede174fa7be61ae05f48d6477f28fbb62",
      "blockNumber": 108148,
      "transactionIndex": 0,
      "confirmations": null,
      "from": "0x2547379D8E07e629D3726c8BeE29854981C8903C",
      "gasPrice": {
        "_hex": "0xce7f40627"
      },
      "gasLimit": {
        "_hex": "0x5208"
      },
      "to": "0xFBb1b73C4f0BDa4f67dcA266ce6Ef42f520fBB98",
      "value": {
        "_hex": "0x1f88ec51767ec50c8"
      },
      "nonce": 1,
      "data": "0x",
      "r": "0x77cb64d5f2c96ade0791fd5975fa5d51f997485daaaea42ca46ed58e3cc48ce0",
      "s": "0x1836be577d6da8d9e5b2a7ca02ab8376a30e10a46a2bc525d995c625ec9ccf37",
      "v": 27,
      "creates": null,
      "raw": "0xf86d01850ce7f4062782520894fbb1b73c4f0bda4f67dca266ce6ef42f520fbb988901f88ec51767ec50c8801ba077cb64d5f2c96ade0791fd5975fa5d51f997485daaaea42ca46ed58e3cc48ce0a01836be577d6da8d9e5b2a7ca02ab8376a30e10a46a2bc525d995c625ec9ccf37",
      "networkId": 0,
      "chainId": 0
    }
  ]
}