{
  "hash": "0xbb96e0e48605c19a95c0d006c97a8f75208c714877aa753fb549d48e5b70f75b",
  "parentHash": "0x4d9bbe9a9721a191cb404bc7ff5efb1215bdf494599f9051dd06bb43e476966a",
  "number": 70746,
  "timestamp": 1439324908,
  "nonce": "0xf456d61e6f2e06fb",
  "difficulty": 2133210009966,
  "gasLimit": {
    "_hex": "0x2fefd8"
  },
  "gasUsed": {
    "_hex": "0x5208"
  },
  "miner": "0x88D74a59454F6cF3B51ef6b9136AFb6b9D405A88",
  "extraData": "0x476574682f76312e302e312d37666266393930632f6c696e75782f676f312e34",
  "transactions": [
    {
      "hash": "0xfa28cd358ee00f74f8419195c928797d5003f44d4b545aee30341f70020adf79",
      "blockHash": "0xbb96e0e48605c19a95c0d006c97a8f75208c714877aa753fb549d48e5b70f75b",
      "blockNumber": 70746,
      "transactionIndex": 0,
      "confirmations": null,
      "from": "0xA21Ba94e45f0E168dA824fC67aC9cb5Cb577a8aF",
      "gasPrice": {
        "_hex": "0x45d964b800"
      },
      "gasLimit": {
        "_hex": "0x5208"
      },
      "to": "0x56011d6b57A70c27F7cc294905A5DdA65BfBd154",
      "value": {
        "_hex": "0x3860e639d80640000"
      },
      "nonce": 5,
      "data": "0x",
      "r": "0xe28ed3918635b58649476b6005feac47e71d343e416ab91c407c8795d7fc1a15",
      "s": "0x6c1a3a93e3fcf73b9a3d9657407661d92586f8d00c22fafd70eb91f3d2bab534",
      "v": 27,
      "creates": null,
      "raw": "0xf86d058545d964b8008252089456011d6b57a70c27f7cc294905a5dda65bfbd1548903860e639d80640000801ba0e28ed3918635b58649476b6005feac47e71d343e416ab91c407c8795d7fc1a15a06c1a3a93e3fcf73b9a3d9657407661d92586f8d00c22fafd70eb91f3d2bab534",
      "networkId": 0,
      "chainId": 0
    }
  ]
}