{
  "hash": "0x310d25cc453aa06b7e988bed8f66f518b18643bfec99c8dd2a4d43a2dbb26886",
  "parentHash": "0x36bc86c6c4a63f51205ec1154de9ea8b14c2786f43b2e4377294eb46ba5a39f2",
  "number": 85161,
  "timestamp": 1439559324,
  "nonce": "0x1d8e02ad2f239686",
  "difficulty": 2746435918356,
  "gasLimit": {
    "_hex": "0x2fefd8"
  },
  "gasUsed": {
    "_hex": "0xa410"
  },
  "miner": "0x77EC9ad4A7E9418774C29415CAaF4Ee0da96eF64",
  "extraData": "0x",
  "transactions": [
    {
      "hash": "0x69a2aad8a2658d65deb30d6f0526e210214f3db434e9f0ed010103850ddfa2a1",
      "blockHash": "0x310d25cc453aa06b7e988bed8f66f518b18643bfec99c8dd2a4d43a2dbb26886",
      "blockNumber": 85161,
      "transactionIndex": 0,
      "confirmations": null,
      "from": "0x32Be343B94f860124dC4fEe278FDCBD38C102D88",
      "gasPrice": {
        "_hex": "0xd17a8281d"
      },
      "gasLimit": {
        "_hex": "0x5208"
      },
      "to": "0xAaA4BEfA989B980188a418Cc5C4C02E7d9103818",
      "value": {
        "_hex": "0x1b9de674df070000"
      },
      "nonce": 724,
      "data": "0x",
      "r": "0x0cc2e8ecf1e1b31ed3b936d517c3603fadc140816cae755e14aa750004ca12d8",
      "s": "0x7df424c2ebf5fd6a220297f43cad2a5f3faf31cc0b4efb3f948ab1c00780d3ed",
      "v": 28,
      "creates": null,
      "raw": "0xf86e8202d4850d17a8281d82520894aaa4befa989b980188a418cc5c4c02e7d9103818881b9de674df070000801ca00cc2e8ecf1e1b31ed3b936d517c3603fadc140816cae755e14aa750004ca12d8a07df424c2ebf5fd6a220297f43cad2a5f3faf31cc0b4efb3f948ab1c00780d3ed",
      "networkId": 0,
      "chainId": 0
    },
    {
      "hash": "0x74c213c7131140c77594d05231eace229702f77c62db200b3977c2e968802373",
      "blockHash": "0x310d25cc453aa06b7e988bed8f66f518b18643bfec99c8dd2a4d43a2dbb26886",
      "blockNumber": 85161,
      "transactionIndex": 1,
      "confirmations": null,
      "from": "0xC96Bd2Aa7AcB234ecA4E38E33bF2C080e7680FA5",
      "gasPrice": {
        "_hex": "0xba43b7400"
      },
      "gasLimit": {
        "_hex": "0x5208"
      },
      "to": "0xC47Aaa860008be6f65B58c6C6E02a84e666EfE31",
      "value": {
        "_hex": "0x7d456c71f740f180"
      },
      "nonce": 0,
      "data": "0x",
      "r": "0x40a64be6f17e5aa987d3b3c3fb5317a56135f75d3645f27782de72be4ca6a278",
      "s": "0x431fdbb5d95d86e8147a79e80c41ac08a08ddbdb481199855a7633475a4ba643",
      "v": 27,
      "creates": null,
      "raw": "0xf86c80850ba43b740082520894c47aaa860008be6f65b58c6c6e02a84e666efe31887d456c71f740f180801ba040a64be6f17e5aa987d3b3c3fb5317a56135f75d3645f27782de72be4ca6a278a0431fdbb5d95d86e8147a79e80c41ac08a08ddbdb481199855a7633475a4ba643",
      "networkId": 0,
      "chainId": 0
    }
  ]
}