{
  "hash": "0x6540a7bb82424cfe640f7aaff1f756de723b9144d4e42bb6989a91a520d402d1",
  "parentHash": "0x4123bec92e3925490d25ee1507c56f4f489e389c8845d3b1c0e745a02811d8e9",
  "number": 81528,
  "timestamp": 1439503259,
  "nonce": "0xcdbee8177feaecc8",
  "difficulty": 2447371186557,
  "gasLimit": {
    "_hex": "0x2fefd8"
  },
  "gasUsed": {
    "_hex": "0xa410"
  },
  "miner": "0xeB1325C8D9d3ea8D74aC11F4B00F1B2367686319",
  "extraData": "0x476574682f76312e302e312f77696e646f77732f676f312e342e32",
  "transactions": [
    {
      "hash": "0x06bcd183caa8f01b75d4e14ab96d354cbb22edfb2363848f5c3ce352fd1612b2",
      "blockHash": "0x6540a7bb82424cfe640f7aaff1f756de723b9144d4e42bb6989a91a520d402d1",
      "blockNumber": 81528,
      "transactionIndex": 0,
      "confirmations": null,
      "from": "0x7fa165177F28D171bA7C17f765c1904344Ec64CB",
      "gasPrice": {
        "_hex": "0xdf01b912d"
      },
      "gasLimit": {
        "_hex": "0x5208"
      },
      "to": "0x32Be343B94f860124dC4fEe278FDCBD38C102D88",
      "value": {
        "_hex": "0x28f039e946765c000"
      },
      "nonce": 13,
      "data": "0x",
      "r": "0xbab82ad5594f8fa654ea09a4358374395883ccce4c111ebb017ff2e27966520a",
      "s": "0x1a1c2210b5747d528b5669aec94b5546a31baf5ad04356ea869f1678b2a156da",
      "v": 27,
      "creates": null,
      "raw": "0xf86d0d850df01b912d8252089432be343b94f860124dc4fee278fdcbd38c102d8889028f039e946765c000801ba0bab82ad5594f8fa654ea09a4358374395883ccce4c111ebb017ff2e27966520aa01a1c2210b5747d528b5669aec94b5546a31baf5ad04356ea869f1678b2a156da",
      "networkId": 0,
      "chainId": 0
    },
    {
      "hash": "0x26dd3f8d46d4e41468b3504e9fdc9c441c9573632da109cc03f74dfb6787b9d6",
      "blockHash": "0x6540a7bb82424cfe640f7aaff1f756de723b9144d4e42bb6989a91a520d402d1",
      "blockNumber": 81528,
      "transactionIndex": 1,
      "confirmations": null,
      "from": "0x2910543Af39abA0Cd09dBb2D50200b3E800A63D2",
      "gasPrice": {
        "_hex": "0xd3643cf18"
      },
      "gasLimit": {
        "_hex": "0x5208"
      },
      "to": "0xa61e151af0007B7406d969Dce51740caf0D69088",
      "value": {
        "_hex": "0x8c433e6c9f540a000"
      },
      "nonce": 488,
      "data": "0x",
      "r": "0xf28fe32a7aded651f8548b5f36ac28cfdab86cb83a8df30fb00adef07fe772e8",
      "s": "0x2e9e5a97c72f6285396d1c7ce4906ba870f8cdecb89a1068a578c8dc51b93579",
      "v": 27,
      "creates": null,
      "raw": "0xf86f8201e8850d3643cf1882520894a61e151af0007b7406d969dce51740caf0d690888908c433e6c9f540a000801ba0f28fe32a7aded651f8548b5f36ac28cfdab86cb83a8df30fb00adef07fe772e8a02e9e5a97c72f6285396d1c7ce4906ba870f8cdecb89a1068a578c8dc51b93579",
      "networkId": 0,
      "chainId": 0
    }
  ]
}