{
  "hash": "0x74074cd066124dd9ab5913e189d961483dbbecdc9f9a08c3f95f4e2e34da032a",
  "parentHash": "0x7c701770f608fe740b63e971b63ab9d0a23c6d1d9de4c99c9908e3ff588f8b06",
  "number": 89095,
  "timestamp": 1439618070,
  "nonce": "0xba246dc7190fc481",
  "difficulty": 3272703284616,
  "gasLimit": {
    "_hex": "0x2fefd8"
  },
  "gasUsed": {
    "_hex": "0x5208"
  },
  "miner": "0xbb7B8287f3F0a933474a79eAe42CBCa977791171",
  "extraData": "0x476574682f4c5649562f76312e302e312f6c696e75782f676f312e342e32",
  "transactions": [
    {
      "hash": "0x2352a9788598622a0b3d681de796c1878ab7e3a1dbd0302bf17cf7ee80c1a07e",
      "blockHash": "0x74074cd066124dd9ab5913e189d961483dbbecdc9f9a08c3f95f4e2e34da032a",
      "blockNumber": 89095,
      "transactionIndex": 0,
      "confirmations": null,
      "from": "0xF9634a7Ee627EeF74f4d803113CD4F87E5162079",
      "gasPrice": {
        "_hex": "0xba43b7400"
      },
      "gasLimit": {
        "_hex": "0x5b04"
      },
      "to": "0x9f78552704fe7e52cC7C3853534aA2C3cf580D54",
      "value": {
        "_hex": "0x8ef0f36da2860000"
      },
      "nonce": 11,
      "data": "0x",
      "r": "0xc91ef46c0b22dea90a76337b6d20cc23c9db7216e792760305745bdf45b31655",
      "s": "0x7c921141fbf5719e57777513a65037da9ce6eaf8d8cef3737bc5f6802f328288",
      "v": 28,
      "creates": null,
      "raw": "0xf86c0b850ba43b7400825b04949f78552704fe7e52cc7c3853534aa2c3cf580d54888ef0f36da2860000801ca0c91ef46c0b22dea90a76337b6d20cc23c9db7216e792760305745bdf45b31655a07c921141fbf5719e57777513a65037da9ce6eaf8d8cef3737bc5f6802f328288",
      "networkId": 0,
      "chainId": 0
    }
  ]
}