{
  "hash": "0x49eb661aed0e419e2f95c935a71c739e7c189611a8b52f7994e0780cd3fe12ad",
  "parentHash": "0x908950423550505f4120e8d9f8170361c528791afba8d83a10894d3d23dff7de",
  "number": 118407,
  "timestamp": 1440125551,
  "nonce": "0xfa9024201b2aa5b3",
  "difficulty": 4282697345070,
  "gasLimit": {
    "_hex": "0x2fefd8"
  },
  "gasUsed": {
    "_hex": "0x5208"
  },
  "miner": "0x88D74a59454F6cF3B51ef6b9136AFb6b9D405A88",
  "extraData": "0x",
  "transactions": [
    {
      "hash": "0xfbc9126aefdd961b77ffba243e15f3830c77466d96122d2824afafeb4a933905",
      "blockHash": "0x49eb661aed0e419e2f95c935a71c739e7c189611a8b52f7994e0780cd3fe12ad",
      "blockNumber": 118407,
      "transactionIndex": 0,
      "confirmations": null,
      "from": "0x1c11Aa45C792e202e9ffDc2F12f99D0d209BEf70",
      "gasPrice": {
        "_hex": "0xba43b7400"
      },
      "gasLimit": {
        "_hex": "0x15f90"
      },
      "to": "0x001aA0CB9c5fA098a119070024460feBb868742D",
      "value": {
        "_hex": "0xa0fe194250e538"
      },
      "nonce": 31,
      "data": "0x",
      "r": "0x5c69cf5e88a58db0c7eac912716abd25afa67cf89e8fbd2babdc7e8450203481",
      "s": "0x73256df7543b7b0f5faa352387ce48b89169d5821956dd4e7e639949bf8574a7",
      "v": 27,
      "creates": null,
      "raw": "0xf86c1f850ba43b740083015f9094001aa0cb9c5fa098a119070024460febb868742d87a0fe194250e538801ba05c69cf5e88a58db0c7eac912716abd25afa67cf89e8fbd2babdc7e8450203481a073256df7543b7b0f5faa352387ce48b89169d5821956dd4e7e639949bf8574a7",
      "networkId": 0,
      "chainId": 0
    }
  ]
}