{
  "hash": "0x70e286edfb3ec48ac5f3d278858296f9394478073e51736ab32353c4b1593dde",
  "parentHash": "0x4c854bf18b9ac173c3c8997845af1dc8ecbecf82b94bbaf69af3a72990e8352b",
  "number": 119529,
  "timestamp": 1440144484,
  "nonce": "0xd5f227fc6622d1b3",
  "difficulty": 4387955247383,
  "gasLimit": {
    "_hex": "0x2fefd8"
  },
  "gasUsed": {
    "_hex": "0x5208"
  },
  "miner": "0x9746c7e1ef2bd21FF3997fa467593a89cb852BD0",
  "extraData": "0x476574682f76312e302e312f77696e646f77732f676f312e342e32",
  "transactions": [
    {
      "hash": "0xecfa8977438c140782df3936978dfe4be815a904164e85b594dfe4f7f3fc364a",
      "blockHash": "0x70e286edfb3ec48ac5f3d278858296f9394478073e51736ab32353c4b1593dde",
      "blockNumber": 119529,
      "transactionIndex": 0,
      "confirmations": null,
      "from": "0x32Be343B94f860124dC4fEe278FDCBD38C102D88",
      "gasPrice": {
        "_hex": "0xba43b7400"
      },
      "gasLimit": {
        "_hex": "0x5208"
      },
      "to": "0x0C473d7A7006C15EDd586751F352F1D74Bea83FE",
      "value": {
        "_hex": "0x6ccd46763f10000"
      },
      "nonce": 1507,
      "data": "0x",
      "r": "0xe9e2671c8a7116399eefa4687a654a81aa848b9fddf82462d6da9ff97b009273",
      "s": "0x5ff1be63db641514535b4b32ea863da40009fc1df5e9fbe4b2d09fc47fe04167",
      "v": 28,
      "creates": null,
      "raw": "0xf86e8205e3850ba43b7400825208940c473d7a7006c15edd586751f352f1d74bea83fe8806ccd46763f10000801ca0e9e2671c8a7116399eefa4687a654a81aa848b9fddf82462d6da9ff97b009273a05ff1be63db641514535b4b32ea863da40009fc1df5e9fbe4b2d09fc47fe04167",
      "networkId": 0,
      "chainId": 0
    }
  ]
}