{
  "hash": "0x244d29573dd19b052462d32230a5e99166bbb40dfc5568e7437718fb7fc1aee1",
  "parentHash": "0x3685828f513ecea4392b0be9d8b9623889cb146cfa37a51fb0afd1fc8eb973ca",
  "number": 95739,
  "timestamp": 1439728903,
  "nonce": "0xa83ea248e271adc5",
  "difficulty": 3616151196238,
  "gasLimit": {
    "_hex": "0x2fefd8"
  },
  "gasUsed": {
    "_hex": "0x5208"
  },
  "miner": "0x55bAf64fc9eAccFFd7Cc643BB61142E1C6ac093e",
  "extraData": "0x",
  "transactions": [
    {
      "hash": "0x1218d50d173204111aa72786bcd97208a224b5d5cc42d2ba8169c8abb188c099",
      "blockHash": "0x244d29573dd19b052462d32230a5e99166bbb40dfc5568e7437718fb7fc1aee1",
      "blockNumber": 95739,
      "transactionIndex": 0,
      "confirmations": null,
      "from": "0x853Bff007d269E0526E871360d79d69D602770dc",
      "gasPrice": {
        "_hex": "0xce8f41450"
      },
      "gasLimit": {
        "_hex": "0x5208"
      },
      "to": "0x32Be343B94f860124dC4fEe278FDCBD38C102D88",
      "value": {
        "_hex": "0x448a44cd5201bc00"
      },
      "nonce": 8,
      "data": "0x",
      "r": "0xe083271b28af95ed950f2680d3970dcf5a3226068a0fc29fcdf2e802bd48ff3a",
      "s": "0x3a359d98232f3d0829d42653f2a7773d43c535e51c239deaa47b25179ad1ece6",
      "v": 27,
      "creates": null,
      "raw": "0xf86c08850ce8f414508252089432be343b94f860124dc4fee278fdcbd38c102d8888448a44cd5201bc00801ba0e083271b28af95ed950f2680d3970dcf5a3226068a0fc29fcdf2e802bd48ff3aa03a359d98232f3d0829d42653f2a7773d43c535e51c239deaa47b25179ad1ece6",
      "networkId": 0,
      "chainId": 0
    }
  ]
}