{
  "hash": "0xeeb309dc4f12dbbd2227baa514e7626f3b72bff16546c71eaf22c9ba65914409",
  "parentHash": "0x0237e11948950c61f075cac8b937724a2158220685bc89f5e400a55de5e13a81",
  "number": 107969,
  "timestamp": 1439931763,
  "nonce": "0xfb9a1ad3098a9cf7",
  "difficulty": 4376875671015,
  "gasLimit": {
    "_hex": "0x2fefd8"
  },
  "gasUsed": {
    "_hex": "0x5208"
  },
  "miner": "0x19dafe19F11E960E4cCfC6A5AA8890ebD748cA1E",
  "extraData": "0x476574682f76312e302e312d38326566323666362f6c696e75782f676f312e34",
  "transactions": [
    {
      "hash": "0x9e70fd29dd13567bb55b49e99c2b48d71d32fb48bb8c5b6754716bd8a230cf9b",
      "blockHash": "0xeeb309dc4f12dbbd2227baa514e7626f3b72bff16546c71eaf22c9ba65914409",
      "blockNumber": 107969,
      "transactionIndex": 0,
      "confirmations": null,
      "from": "0x023cA10cAd1726AcD8A9bF8fcea0174862C80025",
      "gasPrice": {
        "_hex": "0xd48ff2dfe"
      },
      "gasLimit": {
        "_hex": "0x5208"
      },
      "to": "0xFBb1b73C4f0BDa4f67dcA266ce6Ef42f520fBB98",
      "value": {
        "_hex": "0x3bc871d84298d6410"
      },
      "nonce": 0,
      "data": "0x",
      "r": "0x049a399671db6647b8195f2fbc9cf06268f51dc12b174b99c1812e86d1ff5a0a",
      "s": "0x5b2daa107648bef621f54a35d75a3233e584e8400543cb33ce65a2c72d0f1e9d",
      "v": 27,
      "creates": null,
      "raw": "0xf86d80850d48ff2dfe82520894fbb1b73c4f0bda4f67dca266ce6ef42f520fbb988903bc871d84298d6410801ba0049a399671db6647b8195f2fbc9cf06268f51dc12b174b99c1812e86d1ff5a0aa05b2daa107648bef621f54a35d75a3233e584e8400543cb33ce65a2c72d0f1e9d",
      "networkId": 0,
      "chainId": 0
    }
  ]
}