{
  "hash": "0xd818c73cf5233e1101ce7f9f49ecc436090aa2eec46745d0a5bde7d01726605e",
  "parentHash": "0xfebf9483d3a2b40164cc746b8a544acc6b184e2fe33efa7cf535f61abe846b7f",
  "number": 100346,
  "timestamp": 1439804848,
  "nonce": "0xcb4884998fe40573",
  "difficulty": 3822915707608,
  "gasLimit": {
    "_hex": "0x2fefd8"
  },
  "gasUsed": {
    "_hex": "0xf618"
  },
  "miner": "0x580992B51e3925e23280EfB93d3047C82f17E038",
  "extraData": "0x476574682f76312e302e312f6c696e75782f676f312e342e32",
  "transactions": [
    {
      "hash": "0x45f2bb9b180920a3a54ad490b76d37120cfb0e45ca4ac214a8147b4ed42c6a4a",
      "blockHash": "0xd818c73cf5233e1101ce7f9f49ecc436090aa2eec46745d0a5bde7d01726605e",
      "blockNumber": 100346,
      "transactionIndex": 0,
      "confirmations": null,
      "from": "0x92857A8BC0A6F66180324f49541C695A3a0Ff944",
      "gasPrice": {
        "_hex": "0xdec5203a2"
      },
      "gasLimit": {
        "_hex": "0x5208"
      },
      "to": "0x32Be343B94f860124dC4fEe278FDCBD38C102D88",
      "value": {
        "_hex": "0x2ed6213c2ea3b4000"
      },
      "nonce": 5,
      "data": "0x",
      "r": "0x892fbcb8edd1d6abffef191597aba4f1ab42505cac12998d695e4e0e3207b6af",
      "s": "0x278329e6ab9ba2304977fed986973cea1bf6c408b6e66db55391b5bd857e76fc",
      "v": 28,
      "creates": null,
      "raw": "0xf86d05850dec5203a28252089432be343b94f860124dc4fee278fdcbd38c102d888902ed6213c2ea3b4000801ca0892fbcb8edd1d6abffef191597aba4f1ab42505cac12998d695e4e0e3207b6afa0278329e6ab9ba2304977fed986973cea1bf6c408b6e66db55391b5bd857e76fc",
      "networkId": 0,
      "chainId": 0
    },
    {
      "hash": "0xc05589837799697c25da78a915da29f750af3473bc2bdea6cbd13fb783fd7a77",
      "blockHash": "0xd818c73cf5233e1101ce7f9f49ecc436090aa2eec46745d0a5bde7d01726605e",
      "blockNumber": 100346,
      "transactionIndex": 1,
      "confirmations": null,
      "from": "0xC8E61bFB4846B622B084B98Bc586388aFCb70d5F",
      "gasPrice": {
        "_hex": "0xdec5203a2"
      },
      "gasLimit": {
        "_hex": "0x5208"
      },
      "to": "0x32Be343B94f860124dC4fEe278FDCBD38C102D88",
      "value": {
        "_hex": "0xaabb0b08e9a21800"
      },
      "nonce": 6,
      "data": "0x",
      "r": "0xc8a2d94c74626c5036b56d8517a43866170e88a5ca276b5d234a1d648c39247f",
      "s": "0x327be9a2409561d18a845880ed96e3ec6419ccd01f0bf6a7924e8328d1da59f0",
      "v": 28,
      "creates": null,
      "raw": "0xf86c06850dec5203a28252089432be343b94f860124dc4fee278fdcbd38c102d8888aabb0b08e9a21800801ca0c8a2d94c74626c5036b56d8517a43866170e88a5ca276b5d234a1d648c39247fa0327be9a2409561d18a845880ed96e3ec6419ccd01f0bf6a7924e8328d1da59f0",
      "networkId": 0,
      "chainId": 0
    },
    {
      "hash": "0xf486834c071628917acdf02e36f0b8524567d8c437e33e3c8a5bc10c881a9191",
      "blockHash": "0xd818c73cf5233e1101ce7f9f49ecc436090aa2eec46745d0a5bde7d01726605e",
      "blockNumber": 100346,
      "transactionIndex": 2,
      "confirmations": null,
      "from": "0xC47Aaa860008be6f65B58c6C6E02a84e666EfE31",
      "gasPrice": {
        "_hex": "0xdb6d14b17"
      },
      "gasLimit": {
        "_hex": "0x15f90"
      },
      "to": "0x3aFca45be577815985f0d83E5E4C738F45804Fec",
      "value": {
        "_hex": "0xa968163f0a57b400000"
      },
      "nonce": 38,
      "data": "0x",
      "r": "0xadd88d400b237178e278925cdf8c198765b419b9ce6f835ac0f5c611d376f6f3",
      "s": "0x1a04ce61047e9334ed792274be6911ebe56a2e513528688d3b8a346dde9981c4",
      "v": 27,
      "creates": null,
      "raw": "0xf86f26850db6d14b1783015f90943afca45be577815985f0d83e5e4c738f45804fec8a0a968163f0a57b400000801ba0add88d400b237178e278925cdf8c198765b419b9ce6f835ac0f5c611d376f6f3a01a04ce61047e9334ed792274be6911ebe56a2e513528688d3b8a346dde9981c4",
      "networkId": 0,
      "chainId": 0
    }
  ]
}