{
  "hash": "0xbbfd5b891ee9b5e2d5c1e75ef1040d0fb6067d2126f9cc1d2f38aed6219b31c9",
  "parentHash": "0xfbf8f0b946321d90859502efb4ad5977f575e1218b754a4b256fc14f2b40dfbd",
  "number": 48016,
  "timestamp": 1438949958,
  "nonce": "0x43523459ed5e6c32",
  "difficulty": 1461521643542,
  "gasLimit": {
    "_hex": "0x11955"
  },
  "gasUsed": {
    "_hex": "0x546c"
  },
  "miner": "0x6dED38803DA575897de5d51b7AEF3b86f35945A1",
  "extraData": "0x476574682f76312e302e312f6c696e75782f676f312e342e32",
  "transactions": [
    {
      "hash": "0xdbd0925b93ea6667b1fb4781ab4c1993c50a224c11b3c2ae3b3f5a923e4f5cd8",
      "blockHash": "0xbbfd5b891ee9b5e2d5c1e75ef1040d0fb6067d2126f9cc1d2f38aed6219b31c9",
      "blockNumber": 48016,
      "transactionIndex": 0,
      "confirmations": null,
      "from": "0xE09C68e61998D9c81b14E4ee802BA7ADf6d74CdB",
      "gasPrice": {
        "_hex": "0x110c8f7d8de"
      },
      "gasLimit": {
        "_hex": "0xc350"
      },
      "to": "0x2910543Af39abA0Cd09dBb2D50200b3E800A63D2",
      "value": {
        "_hex": "0x2386f26fc10000"
      },
      "nonce": 4,
      "data": "0x454e32413658483230",
      "r": "0x78e954d369aa5dc03b585b37fbf87531b163c7bf14d492680b97b581b96c4f90",
      "s": "0x9f382d835199e971cdbb8ec006ca425dd7772aa31ece678cc9a0adbb8f4abc8d",
      "v": 28,
      "creates": null,
      "raw": "0xf87504860110c8f7d8de82c350942910543af39aba0cd09dbb2d50200b3e800a63d2872386f26fc1000089454e324136584832301ca078e954d369aa5dc03b585b37fbf87531b163c7bf14d492680b97b581b96c4f90a09f382d835199e971cdbb8ec006ca425dd7772aa31ece678cc9a0adbb8f4abc8d",
      "networkId": 0,
      "chainId": 0
    }
  ]
}