{
  "hash": "0x2bef20e6503f0d79940b9852d3f2ca0b0cf1dfdd963b59d26358aeb4b3845494",
  "parentHash": "0xbd2a5a07907be3f631bb00ceaee7987d1516093617792a28ee2053e542e5b521",
  "number": 121103,
  "timestamp": 1440171526,
  "nonce": "0x28fb8f02436c2ef4",
  "difficulty": 4395708979786,
  "gasLimit": {
    "_hex": "0x2fefd8"
  },
  "gasUsed": {
    "_hex": "0x546c"
  },
  "miner": "0xa50ec0D39fa913E62f1Bae7074E6F36caA71855b",
  "extraData": "0xd783010100844765746887676f312e342e32856c696e7578",
  "transactions": [
    {
      "hash": "0x5631f009dfb98b40f7f9759229c7c49ff0e5fbf899ba39987061d52ffcaf4c06",
      "blockHash": "0x2bef20e6503f0d79940b9852d3f2ca0b0cf1dfdd963b59d26358aeb4b3845494",
      "blockNumber": 121103,
      "transactionIndex": 0,
      "confirmations": null,
      "from": "0x24Fd9A6C874c2faB3Ff36e9AFBF8CE0d32c7DE92",
      "gasPrice": {
        "_hex": "0x110c8f7d8de"
      },
      "gasLimit": {
        "_hex": "0xc350"
      },
      "to": "0x2910543Af39abA0Cd09dBb2D50200b3E800A63D2",
      "value": {
        "_hex": "0x485ed8c2ddea7c0000"
      },
      "nonce": 4,
      "data": "0x454e505a3357575638",
      "r": "0x116eabf8729088ac259c7fa5af8fc29b45bf6496ae97157dcccfbaee1b3f158b",
      "s": "0x8b6da483b746ed16d30527a284f6f389923167a7243a21368156829b1427f382",
      "v": 28,
      "creates": null,
      "raw": "0xf87704860110c8f7d8de82c350942910543af39aba0cd09dbb2d50200b3e800a63d289485ed8c2ddea7c000089454e505a33575756381ca0116eabf8729088ac259c7fa5af8fc29b45bf6496ae97157dcccfbaee1b3f158ba08b6da483b746ed16d30527a284f6f389923167a7243a21368156829b1427f382",
      "networkId": 0,
      "chainId": 0
    }
  ]
}