{
  "hash": "0xf1da7d5781bea95d782d94f1bdc54f57723a17a7bf96c80d92f65b02e7e33c6c",
  "parentHash": "0x9dc41eb15cae0c79badd29f9d46787103097ec9d966c4482a8239785bc74e8e4",
  "number": 47705,
  "timestamp": 1438945111,
  "nonce": "0xb86f263b43696f96",
  "difficulty": 1442433465489,
  "gasLimit": {
    "_hex": "0xe667"
  },
  "gasUsed": {
    "_hex": "0xa410"
  },
  "miner": "0x3f113041D56Dda809a245Fe338832c2D373e7c80",
  "extraData": "0x476574682f76312e302e312f77696e646f77732f676f312e342e32",
  "transactions": [
    {
      "hash": "0x2d296fa1b349848a409b87702f54db36286fe86c64836229f66ad73862785be0",
      "blockHash": "0xf1da7d5781bea95d782d94f1bdc54f57723a17a7bf96c80d92f65b02e7e33c6c",
      "blockNumber": 47705,
      "transactionIndex": 0,
      "confirmations": null,
      "from": "0xe6A7a1d47ff21B6321162AEA7C6CB457D5476Bca",
      "gasPrice": {
        "_hex": "0xd39234471"
      },
      "gasLimit": {
        "_hex": "0x55f0"
      },
      "to": "0x2a53CDf1BD82971A0383522D9D2D20eabB832143",
      "value": {
        "_hex": "0x13915814ef10274f0"
      },
      "nonce": 212,
      "data": "0x",
      "r": "0x4a748ad615a7b572837fba390a3cc5b8cb826e9428c19ea3183198367056e92d",
      "s": "0x71291b6a0ed3a5a766d8d53386ac035efc1bb5cf350bb6319777c5ab6a7e9893",
      "v": 28,
      "creates": null,
      "raw": "0xf86e81d4850d392344718255f0942a53cdf1bd82971a0383522d9d2d20eabb83214389013915814ef10274f0801ca04a748ad615a7b572837fba390a3cc5b8cb826e9428c19ea3183198367056e92da071291b6a0ed3a5a766d8d53386ac035efc1bb5cf350bb6319777c5ab6a7e9893",
      "networkId": 0,
      "chainId": 0
    },
    {
      "hash": "0xb027c144e0135aae4ae74c7d42081e202bb1da938bdd4f8807794ce0a8b176e4",
      "blockHash": "0xf1da7d5781bea95d782d94f1bdc54f57723a17a7bf96c80d92f65b02e7e33c6c",
      "blockNumber": 47705,
      "transactionIndex": 1,
      "confirmations": null,
      "from": "0xe6A7a1d47ff21B6321162AEA7C6CB457D5476Bca",
      "gasPrice": {
        "_hex": "0xd39234471"
      },
      "gasLimit": {
        "_hex": "0x55f0"
      },
      "to": "0x4adA827a479Cf31e27be19Fcf33Fb06D881057b7",
      "value": {
        "_hex": "0x140d109836330e0a0"
      },
      "nonce": 213,
      "data": "0x",
      "r": "0x6d153dc1bc678664f2519e50cd4a26b13f345ba0e89e76ef93799b2ab2b28b4c",
      "s": "0x3962c082b84647a3d139192d4f03bdd5802f5545f824af74aaef2a6c8e4396ef",
      "v": 27,
      "creates": null,
      "raw": "0xf86e81d5850d392344718255f0944ada827a479cf31e27be19fcf33fb06d881057b7890140d109836330e0a0801ba06d153dc1bc678664f2519e50cd4a26b13f345ba0e89e76ef93799b2ab2b28b4ca03962c082b84647a3d139192d4f03bdd5802f5545f824af74aaef2a6c8e4396ef",
      "networkId": 0,
      "chainId": 0
    }
  ]
}