{
  "hash": "0xf5674f4a8c62bb27480155adfbaf272b8bc969509f5a9ce00600be802d00e1f2",
  "parentHash": "0x0a9de917402a5e975cf1f7c45973e6d6c55b123d4fc710dc88a913a5fcb39feb",
  "number": 46219,
  "timestamp": 1438919461,
  "nonce": "0xbb6fd2d073f31ef4",
  "difficulty": 1456846786263,
  "gasLimit": {
    "_hex": "0x552e"
  },
  "gasUsed": {
    "_hex": "0x54f4"
  },
  "miner": "0x1D889aFF5D57138c9819412d63b5d877567B5936",
  "extraData": "0x476574682f76312e302e302f77696e646f77732f676f312e342e32",
  "transactions": [
    {
      "hash": "0xe891897177614c91284b6929dc2ada5a87705c4729bda2d5eeae47ea2ca9d175",
      "blockHash": "0xf5674f4a8c62bb27480155adfbaf272b8bc969509f5a9ce00600be802d00e1f2",
      "blockNumber": 46219,
      "transactionIndex": 0,
      "confirmations": null,
      "from": "0xA1E4380A3B1f749673E270229993eE55F35663b4",
      "gasPrice": {
        "_hex": "0x2d79883d2000"
      },
      "gasLimit": {
        "_hex": "0x5528"
      },
      "to": "0x5DF9B87991262F6BA471F09758CDE1c0FC1De734",
      "value": {
        "_hex": "0x7a69"
      },
      "nonce": 2,
      "data": "0x74796d3474406469676978",
      "r": "0x29a04655a6a8fefde219f28f849e74de9d4b00c5e4b1eb70586d6eca2584657b",
      "s": "0x734dff9439be85e833c7f62eb3cd85d6c95005173c819e0907b95bd6c5d159a4",
      "v": 28,
      "creates": null,
      "raw": "0xf87202862d79883d2000825528945df9b87991262f6ba471f09758cde1c0fc1de734827a698b74796d34744064696769781ca029a04655a6a8fefde219f28f849e74de9d4b00c5e4b1eb70586d6eca2584657ba0734dff9439be85e833c7f62eb3cd85d6c95005173c819e0907b95bd6c5d159a4",
      "networkId": 0,
      "chainId": 0
    }
  ]
}