{
  "hash": "0x4d37cdeaf61cfddb057f5b9770b9c56495aeb45ff3269b7e10e1427c65ebeb98",
  "parentHash": "0xe93faeb39e803ccec3a487ce2f1ac18b48b1ab10b3394a32ea0609fadeb5e295",
  "number": 98317,
  "timestamp": 1439770647,
  "nonce": "0x8cb5fc8682b9a6cb",
  "difficulty": 3878371847976,
  "gasLimit": {
    "_hex": "0x2fefd8"
  },
  "gasUsed": {
    "_hex": "0x5208"
  },
  "miner": "0x123843545FB525C8E134c9A5F15ADA6865cc3848",
  "extraData": "0x476574682f76312e302e312f77696e646f77732f676f312e342e32",
  "transactions": [
    {
      "hash": "0xcfebd1fa0234ec0fdd743a05cfea801316753e8c58a068c4398878d836d9dbe5",
      "blockHash": "0x4d37cdeaf61cfddb057f5b9770b9c56495aeb45ff3269b7e10e1427c65ebeb98",
      "blockNumber": 98317,
      "transactionIndex": 0,
      "confirmations": null,
      "from": "0x54310b3aA88703a725dfa57DE6e646935164802C",
      "gasPrice": {
        "_hex": "0xd8e35305f"
      },
      "gasLimit": {
        "_hex": "0x15f90"
      },
      "to": "0xa7ae731fD9EbF24D5a99104a3c2a65a7240B2B04",
      "value": {
        "_hex": "0xad78ebc5ac6200000"
      },
      "nonce": 2,
      "data": "0x",
      "r": "0x2fd11ada8a0312819fff8719221d7ed0e5a171013b1e554c0f11663756530ab7",
      "s": "0x299963f0fe37df2210b7b17853752ac2e8d783e8e26e3f961f886f0708da4a54",
      "v": 27,
      "creates": null,
      "raw": "0xf86e02850d8e35305f83015f9094a7ae731fd9ebf24d5a99104a3c2a65a7240b2b04890ad78ebc5ac6200000801ba02fd11ada8a0312819fff8719221d7ed0e5a171013b1e554c0f11663756530ab7a0299963f0fe37df2210b7b17853752ac2e8d783e8e26e3f961f886f0708da4a54",
      "networkId": 0,
      "chainId": 0
    }
  ]
}