{
  "hash": "0x66c083a74de0521aa0be197c2c29e64d354cda75b4de4b27d08cebf860706032",
  "parentHash": "0x9bdb42ec79baa94ff2548e8968e04ce13dca8c874a01c9781ca9912232dfc440",
  "number": 51628,
  "timestamp": 1439008143,
  "nonce": "0x369316603dd2c33b",
  "difficulty": 1558152244621,
  "gasLimit": {
    "_hex": "0xc74d6"
  },
  "gasUsed": {
    "_hex": "0x7a120"
  },
  "miner": "0x9746c7e1ef2bd21FF3997fa467593a89cb852BD0",
  "extraData": "0x476574682f76312e302e312f77696e646f77732f676f312e342e32",
  "transactions": [
    {
      "hash": "0x6ccb3330133d17f51a882cee5151980341a05a2b8dab8b4f12d74b3db7f86d7c",
      "blockHash": "0x66c083a74de0521aa0be197c2c29e64d354cda75b4de4b27d08cebf860706032",
      "blockNumber": 51628,
      "transactionIndex": 0,
      "confirmations": null,
      "from": "0xFCf9f6A78f06227522c6f948ec0119dA31680Ef7",
      "gasPrice": {
        "_hex": "0xdc4b653f2"
      },
      "gasLimit": {
        "_hex": "0x7a120"
      },
      "to": "0x109C4f2CCc82C4d77Bde15F306707320294Aea3F",
      "value": {
        "_hex": "0xde0b6b3a7640000"
      },
      "nonce": 36,
      "data": "0x",
      "r": "0xf33d4f611f60366c8931d762083db3e91d29c9e325236e666d44c7248d573786",
      "s": "0x2869f4ec4b44688707425fc8c40268c6da3fd69c6f3cca90a5d1e3d392b20b87",
      "v": 28,
      "creates": null,
      "raw": "0xf86d24850dc4b653f28307a12094109c4f2ccc82c4d77bde15f306707320294aea3f880de0b6b3a7640000801ca0f33d4f611f60366c8931d762083db3e91d29c9e325236e666d44c7248d573786a02869f4ec4b44688707425fc8c40268c6da3fd69c6f3cca90a5d1e3d392b20b87",
      "networkId": 0,
      "chainId": 0
    }
  ]
}