{
  "hash": "0x57a4a2079e70cd50ecc062c9f5a614763da6aaf0a22b084104342d70fbe4b739",
  "parentHash": "0x64717d02c415481d6ddf8c68bc8eab4225f159ad79d568402d650750c137bbc6",
  "number": 66799,
  "timestamp": 1439260441,
  "nonce": "0x6a11e089948b94ff",
  "difficulty": 1955598061869,
  "gasLimit": {
    "_hex": "0x2fefd8"
  },
  "gasUsed": {
    "_hex": "0x5208"
  },
  "miner": "0x02020D22dCF88f5eDd66B382D7da019F161fB7e3",
  "extraData": "0x",
  "transactions": [
    {
      "hash": "0xda4e9e1de97f2acc3d39f2d822e4ecb612915f788c82d0ae20c1cadbc5569dfa",
      "blockHash": "0x57a4a2079e70cd50ecc062c9f5a614763da6aaf0a22b084104342d70fbe4b739",
      "blockNumber": 66799,
      "transactionIndex": 0,
      "confirmations": null,
      "from": "0xc3631c7698b6C5111989BF452727B3f9395a6deA",
      "gasPrice": {
        "_hex": "0x45d964b800"
      },
      "gasLimit": {
        "_hex": "0x5208"
      },
      "to": "0x431FDD9f2Fdc4A532867E0e0a85463436807d17C",
      "value": {
        "_hex": "0x6c6b935b8bbd400000"
      },
      "nonce": 4,
      "data": "0x",
      "r": "0x5f8b646ea99199fbcbeedbe0c1ab127bea34b04b4513ab366653cfbc220b8c4e",
      "s": "0x1ff5c864d42df20a8e3620044dae20508ef6e0f3b14c752cd561074f500a3d5e",
      "v": 28,
      "creates": null,
      "raw": "0xf86d048545d964b80082520894431fdd9f2fdc4a532867e0e0a85463436807d17c896c6b935b8bbd400000801ca05f8b646ea99199fbcbeedbe0c1ab127bea34b04b4513ab366653cfbc220b8c4ea01ff5c864d42df20a8e3620044dae20508ef6e0f3b14c752cd561074f500a3d5e",
      "networkId": 0,
      "chainId": 0
    }
  ]
}