{
  "hash": "0xb60e2fea656f347fbef155dade4d472b0322440c88933c253e10f44eb75ccc49",
  "parentHash": "0xe6607fc2f40619c0df5c16f28845f364a2e3d8d92557405c7f6addcebb92b033",
  "number": 119344,
  "timestamp": 1440141170,
  "nonce": "0x16b37639c6c35b2d",
  "difficulty": 4407377885404,
  "gasLimit": {
    "_hex": "0x2fefd8"
  },
  "gasUsed": {
    "_hex": "0x14820"
  },
  "miner": "0x52bc44d5378309EE2abF1539BF71dE1b7d7bE3b5",
  "extraData": "0xd783010002844765746887676f312e342e32856c696e7578",
  "transactions": [
    {
      "hash": "0x64c5e270bd82b02824ccda155be237f318d3e9c0b58d5e42aab9a6c778d87d82",
      "blockHash": "0xb60e2fea656f347fbef155dade4d472b0322440c88933c253e10f44eb75ccc49",
      "blockNumber": 119344,
      "transactionIndex": 0,
      "confirmations": null,
      "from": "0xED2aF977080D441C24E9910f1e2078A4446d0bbf",
      "gasPrice": {
        "_hex": "0xba43b7400"
      },
      "gasLimit": {
        "_hex": "0x5208"
      },
      "to": "0x32Be343B94f860124dC4fEe278FDCBD38C102D88",
      "value": {
        "_hex": "0xe2cb1eb60757000"
      },
      "nonce": 5,
      "data": "0x",
      "r": "0xcd1b8a0130d7dac1986aa83d7c19bdaa91ce27eb38756c3b7bb4e0f03162bbbc",
      "s": "0x6e7b0ddc996f8fae92206135f2973d34ac748bbe7289dbeaca8eefec51fc9ff3",
      "v": 28,
      "creates": null,
      "raw": "0xf86c05850ba43b74008252089432be343b94f860124dc4fee278fdcbd38c102d88880e2cb1eb60757000801ca0cd1b8a0130d7dac1986aa83d7c19bdaa91ce27eb38756c3b7bb4e0f03162bbbca06e7b0ddc996f8fae92206135f2973d34ac748bbe7289dbeaca8eefec51fc9ff3",
      "networkId": 0,
      "chainId": 0
    },
    {
      "hash": "0x5e18dcc7a18d697cff2ce83b7107056973aed55f44d4aa0e0fc21c933c837838",
      "blockHash": "0xb60e2fea656f347fbef155dade4d472b0322440c88933c253e10f44eb75ccc49",
      "blockNumber": 119344,
      "transactionIndex": 1,
      "confirmations": null,
      "from": "0xe6A7a1d47ff21B6321162AEA7C6CB457D5476Bca",
      "gasPrice": {
        "_hex": "0xba43b7400"
      },
      "gasLimit": {
        "_hex": "0x55f0"
      },
      "to": "0x98468422cC6f9c345bb48c434c8048409D5F2724",
      "value": {
        "_hex": "0x5846cb20a8adc220"
      },
      "nonce": 6185,
      "data": "0x",
      "r": "0x92757ad589526d083b53299d2c842ffc4734cf689924bf1a907e6b9219fcfca5",
      "s": "0x527779646ab73ff4c7e6175094b5ee9d3903fe1caa40bbd2f5163e48d773ee27",
      "v": 27,
      "creates": null,
      "raw": "0xf86e821829850ba43b74008255f09498468422cc6f9c345bb48c434c8048409d5f2724885846cb20a8adc220801ba092757ad589526d083b53299d2c842ffc4734cf689924bf1a907e6b9219fcfca5a0527779646ab73ff4c7e6175094b5ee9d3903fe1caa40bbd2f5163e48d773ee27",
      "networkId": 0,
      "chainId": 0
    },
    {
      "hash": "0xad2805ed0ef162daafb805d8fe80e151f3082211c1cd8eb5893b1babd2307e4d",
      "blockHash": "0xb60e2fea656f347fbef155dade4d472b0322440c88933c253e10f44eb75ccc49",
      "blockNumber": 119344,
      "transactionIndex": 2,
      "confirmations": null,
      "from": "0x2118baa5B9d6423676CF5502Eb6eaeD859228c33",
      "gasPrice": {
        "_hex": "0xba43b7400"
      },
      "gasLimit": {
        "_hex": "0x5208"
      },
      "to": "0x32Be343B94f860124dC4fEe278FDCBD38C102D88",
      "value": {
        "_hex": "0x19bb6c0298a86c00"
      },
      "nonce": 12,
      "data": "0x",
      "r": "0xaafe10c8d065ce11beaf2de75accc665e6070cb656b457febffaba6d21ae3a0d",
      "s": "0x636a3e141dd50e8be10d4b5ebf75f603de75eca4c47050ecd836ffafe3603f63",
      "v": 27,
      "creates": null,
      "raw": "0xf86c0c850ba43b74008252089432be343b94f860124dc4fee278fdcbd38c102d888819bb6c0298a86c00801ba0aafe10c8d065ce11beaf2de75accc665e6070cb656b457febffaba6d21ae3a0da0636a3e141dd50e8be10d4b5ebf75f603de75eca4c47050ecd836ffafe3603f63",
      "networkId": 0,
      "chainId": 0
    },
    {
      "hash": "0xebe35308965e18a5c5faa15bc9ae92b19342c8f9309ba1656722a6d9f594f830",
      "blockHash": "0xb60e2fea656f347fbef155dade4d472b0322440c88933c253e10f44eb75ccc49",
      "blockNumber": 119344,
      "transactionIndex": 3,
      "confirmations": null,
      "from": "0xe6A7a1d47ff21B6321162AEA7C6CB457D5476Bca",
      "gasPrice": {
        "_hex": "0xba43b7400"
      },
      "gasLimit": {
        "_hex": "0x55f0"
      },
      "to": "0x2637e8641e6ef9C8951adf3E0c7058e76D766cbA",
      "value": {
        "_hex": "0x59577b40afd72000"
      },
      "nonce": 6186,
      "data": "0x",
      "r": "0xdc76ee20ec7e88597b6867985faa0261707b38116d3e3458d755b915b2937865",
      "s": "0x7c3db6057ba6dcf76721cdb8e142e5d968ccc528a9a6404d9c8a416f196b2c51",
      "v": 27,
      "creates": null,
      "raw": "0xf86e82182a850ba43b74008255f0942637e8641e6ef9c8951adf3e0c7058e76d766cba8859577b40afd72000801ba0dc76ee20ec7e88597b6867985faa0261707b38116d3e3458d755b915b2937865a07c3db6057ba6dcf76721cdb8e142e5d968ccc528a9a6404d9c8a416f196b2c51",
      "networkId": 0,
      "chainId": 0
    }
  ]
}