{
  "hash": "0x8a1075ce8df893e67b516d63a51af851c0041d73528347b0b8b49be26db41503",
  "parentHash": "0xab1b65119bb8c6ee5c8270c37b527375223087c46f20090c181da43c8941b1f0",
  "number": 99477,
  "timestamp": 1439790914,
  "nonce": "0xfd5e023f3ca9af11",
  "difficulty": 3776924168609,
  "gasLimit": {
    "_hex": "0x2fefd8"
  },
  "gasUsed": {
    "_hex": "0x5208"
  },
  "miner": "0xf927a40C8B7F6E07c5af7FA2155B4864a4112B13",
  "extraData": "0x",
  "transactions": [
    {
      "hash": "0x9f88aa24413c0dda552b97440398b3daa96ccc2c08d70601a7266e4c01257f02",
      "blockHash": "0x8a1075ce8df893e67b516d63a51af851c0041d73528347b0b8b49be26db41503",
      "blockNumber": 99477,
      "transactionIndex": 0,
      "confirmations": null,
      "from": "0xC47Aaa860008be6f65B58c6C6E02a84e666EfE31",
      "gasPrice": {
        "_hex": "0xdf1f6e044"
      },
      "gasLimit": {
        "_hex": "0x15f90"
      },
      "to": "0xF9BFF0e2775C7cfEA8348161E82B15e58A31C78E",
      "value": {
        "_hex": "0x46c3497bfdb780c7"
      },
      "nonce": 34,
      "data": "0x",
      "r": "0x10f47506dc57a49c404da077db4c7c6224d49b00b3bb1778683ba432a377c921",
      "s": "0x1f0bb35a81e0e3f0d60152254f8716249ef23d2cd0b8e39a82b3111765c56eb3",
      "v": 28,
      "creates": null,
      "raw": "0xf86d22850df1f6e04483015f9094f9bff0e2775c7cfea8348161e82b15e58a31c78e8846c3497bfdb780c7801ca010f47506dc57a49c404da077db4c7c6224d49b00b3bb1778683ba432a377c921a01f0bb35a81e0e3f0d60152254f8716249ef23d2cd0b8e39a82b3111765c56eb3",
      "networkId": 0,
      "chainId": 0
    }
  ]
}