{
  "hash": "0x34406dc1ad80b461daee4077dc5c5708c837401e7fb4c69129ae3689a0b9f819",
  "parentHash": "0x6ed23b0c4e92057b5070ac0d1d0cbbf0330c8f218d8d989cdcdea7cd32065781",
  "number": 46781,
  "timestamp": 1438929022,
  "nonce": "0xdcdfd72d3c69a2fd",
  "difficulty": 1461023265187,
  "gasLimit": {
    "_hex": "0x7823"
  },
  "gasUsed": {
    "_hex": "0x5208"
  },
  "miner": "0xF2d2AfF1320476cb8C6b607199D23175cc595693",
  "extraData": "0x476574682f76312e302e312f77696e646f77732f676f312e342e32",
  "transactions": [
    {
      "hash": "0xf567e2d2dac115d1abfecf5b38cda3ac7bacecfef73d9321b4f2948fc8cd049a",
      "blockHash": "0x34406dc1ad80b461daee4077dc5c5708c837401e7fb4c69129ae3689a0b9f819",
      "blockNumber": 46781,
      "transactionIndex": 0,
      "confirmations": null,
      "from": "0x4EA56E1112641c038d0565A9c296c463AFeFc17E",
      "gasPrice": {
        "_hex": "0xd39bf3f1c"
      },
      "gasLimit": {
        "_hex": "0x5208"
      },
      "to": "0xb583f9403De6C5B2c83D7e2DE9928331176071b8",
      "value": {
        "_hex": "0x9c8f0d1ab86020000"
      },
      "nonce": 1,
      "data": "0x",
      "r": "0xfbb7bc2e9fe8484b834a2736e5917c7e9ca9e107afade837b718c0040fe0e12e",
      "s": "0x2788fdffdb5706bb618249fecf5f5b7a7b8436f234bf86fa0b18d4d663f63831",
      "v": 27,
      "creates": null,
      "raw": "0xf86d01850d39bf3f1c82520894b583f9403de6c5b2c83d7e2de9928331176071b88909c8f0d1ab86020000801ba0fbb7bc2e9fe8484b834a2736e5917c7e9ca9e107afade837b718c0040fe0e12ea02788fdffdb5706bb618249fecf5f5b7a7b8436f234bf86fa0b18d4d663f63831",
      "networkId": 0,
      "chainId": 0
    }
  ]
}