{
  "hash": "0xede568f260ee12854a806488dab10dd084e0c4070a277ee2e9f2286beba80dd4",
  "parentHash": "0x5fa639cb783523e1220e17b4c73b7f840bfd3f1238da8c508feefa76c4d26bba",
  "number": 58237,
  "timestamp": 1439117286,
  "nonce": "0xcf6158cf0d197709",
  "difficulty": 1722517757716,
  "gasLimit": {
    "_hex": "0x2fefd8"
  },
  "gasUsed": {
    "_hex": "0x546c"
  },
  "miner": "0x3F98e477a361F777DA14611a7e419A75Fd238b6b",
  "extraData": "0x476574682f76312e302e312f6c696e75782f676f312e342e32",
  "transactions": [
    {
      "hash": "0xcd00795300793a1a4209dd8c33c7e70703f4831349b4025ca19e4ec2d917fce1",
      "blockHash": "0xede568f260ee12854a806488dab10dd084e0c4070a277ee2e9f2286beba80dd4",
      "blockNumber": 58237,
      "transactionIndex": 0,
      "confirmations": null,
      "from": "0x708A2AF425CeB01e87fFC1be54c0f532b20EaCD6",
      "gasPrice": {
        "_hex": "0xdd9439798"
      },
      "gasLimit": {
        "_hex": "0x55f0"
      },
      "to": "0x2910543Af39abA0Cd09dBb2D50200b3E800A63D2",
      "value": {
        "_hex": "0x4563918244f40000"
      },
      "nonce": 0,
      "data": "0x454e59334d47575952",
      "r": "0xd72d76797fd6b552c5bd73ad5e38a575991f6b7b978f00a49509dc4c8a8f48d1",
      "s": "0x5e83ed6fd266d9de41cc3c5e9ee13893f1b292de7620779731aa6c0d9b6fb7ab",
      "v": 28,
      "creates": null,
      "raw": "0xf87580850dd94397988255f0942910543af39aba0cd09dbb2d50200b3e800a63d2884563918244f4000089454e59334d475759521ca0d72d76797fd6b552c5bd73ad5e38a575991f6b7b978f00a49509dc4c8a8f48d1a05e83ed6fd266d9de41cc3c5e9ee13893f1b292de7620779731aa6c0d9b6fb7ab",
      "networkId": 0,
      "chainId": 0
    }
  ]
}