{
  "hash": "0xbfdb70805c996f471969c76d8d5c18a647f00e3f2f5ff88e3c9f2598cf4e7a6b",
  "parentHash": "0x8c17e1c3ce96ee5279e7702b6365e60f213e8121d492d814c0db39660f4d2ea3",
  "number": 112513,
  "timestamp": 1440008619,
  "nonce": "0x403a570819a13e1a",
  "difficulty": 4421750480548,
  "gasLimit": {
    "_hex": "0x2fefd8"
  },
  "gasUsed": {
    "_hex": "0x5208"
  },
  "miner": "0xe6A7a1d47ff21B6321162AEA7C6CB457D5476Bca",
  "extraData": "0x476574682f76312e302e312d38326566323666362f6c696e75782f676f312e34",
  "transactions": [
    {
      "hash": "0xa1fb423a77274da9affa8d50bf9a0968cf69c988f9a1b7ad2f134337345daee1",
      "blockHash": "0xbfdb70805c996f471969c76d8d5c18a647f00e3f2f5ff88e3c9f2598cf4e7a6b",
      "blockNumber": 112513,
      "transactionIndex": 0,
      "confirmations": null,
      "from": "0x2c640E5e3DE20DECa76ee10c5Fd6ECd074EFb3e8",
      "gasPrice": {
        "_hex": "0xd3d37f23a"
      },
      "gasLimit": {
        "_hex": "0x7530"
      },
      "to": "0xDb8207d158c5396E26545A979C7A788852f81Eb6",
      "value": {
        "_hex": "0xebec21ee1da40000"
      },
      "nonce": 3,
      "data": "0x",
      "r": "0xc53f5e1ff23ac9906aafda2c8469baddd4a3b8f777de3203392a377ad1ea18b5",
      "s": "0x3dfc30af35f4300f4cc2d76fd92702c3a7accc8ab75f13a93926febf3a10c7d5",
      "v": 27,
      "creates": null,
      "raw": "0xf86c03850d3d37f23a82753094db8207d158c5396e26545a979c7a788852f81eb688ebec21ee1da40000801ba0c53f5e1ff23ac9906aafda2c8469baddd4a3b8f777de3203392a377ad1ea18b5a03dfc30af35f4300f4cc2d76fd92702c3a7accc8ab75f13a93926febf3a10c7d5",
      "networkId": 0,
      "chainId": 0
    }
  ]
}