{
  "hash": "0xf420500177ce3f6ded251c3270749a16790435d8c93ec442787e02823205553c",
  "parentHash": "0xab466e3799a4d84bb67a2ef5fe15687cd3ca59a143bff2d069d99290674aebeb",
  "number": 56149,
  "timestamp": 1439082661,
  "nonce": "0x2d2edbec83da66ba",
  "difficulty": 1642442356623,
  "gasLimit": {
    "_hex": "0x2fefd8"
  },
  "gasUsed": {
    "_hex": "0x5208"
  },
  "miner": "0x4947190fcC30D3fb3a16233b259bFe6b3492339a",
  "extraData": "0x",
  "transactions": [
    {
      "hash": "0x477293645e3b3afc2cfbdc023d778e3c0df1a3dc79b9ac53cb2954ac1f1e483a",
      "blockHash": "0xf420500177ce3f6ded251c3270749a16790435d8c93ec442787e02823205553c",
      "blockNumber": 56149,
      "transactionIndex": 0,
      "confirmations": null,
      "from": "0x946B4421c64331bdAe148e6F27d66B92612E0BF6",
      "gasPrice": {
        "_hex": "0xd9f1836a1"
      },
      "gasLimit": {
        "_hex": "0x5208"
      },
      "to": "0x32Be343B94f860124dC4fEe278FDCBD38C102D88",
      "value": {
        "_hex": "0x77431dba85c4f00000"
      },
      "nonce": 2,
      "data": "0x",
      "r": "0x522ea76610dd1fb2a14bb90644eced6a04d4b7cf650642dc23f812c1bb42334c",
      "s": "0x5174136f273f2523f64d60b2d7f566fe2deae1022cc2d2203b215d125f7ac593",
      "v": 28,
      "creates": null,
      "raw": "0xf86d02850d9f1836a18252089432be343b94f860124dc4fee278fdcbd38c102d888977431dba85c4f00000801ca0522ea76610dd1fb2a14bb90644eced6a04d4b7cf650642dc23f812c1bb42334ca05174136f273f2523f64d60b2d7f566fe2deae1022cc2d2203b215d125f7ac593",
      "networkId": 0,
      "chainId": 0
    }
  ]
}