{
  "hash": "0xafd42a48ff418f7b971deed03933f28249a2f094dcf7957bfe31b7cb2d45625a",
  "parentHash": "0x0888c92d75e468ea0061f910c18b88a774c3190f507bd2301c48628722c2fce7",
  "number": 87601,
  "timestamp": 1439594678,
  "nonce": "0x8abd908926f3a1ad",
  "difficulty": 3163296703644,
  "gasLimit": {
    "_hex": "0x2fefd8"
  },
  "gasUsed": {
    "_hex": "0xa410"
  },
  "miner": "0xe6A7a1d47ff21B6321162AEA7C6CB457D5476Bca",
  "extraData": "0x476574682f76312e302e312d38326566323666362f6c696e75782f676f312e34",
  "transactions": [
    {
      "hash": "0x2e09d33739ccf5935783322c735150e9f95ba48ca244f818ada03ce3e6cba6f6",
      "blockHash": "0xafd42a48ff418f7b971deed03933f28249a2f094dcf7957bfe31b7cb2d45625a",
      "blockNumber": 87601,
      "transactionIndex": 0,
      "confirmations": null,
      "from": "0xa70a9a7040d542C632D8e0bE7c5513A8a5Bbc752",
      "gasPrice": {
        "_hex": "0xdd373f090"
      },
      "gasLimit": {
        "_hex": "0x5208"
      },
      "to": "0x32Be343B94f860124dC4fEe278FDCBD38C102D88",
      "value": {
        "_hex": "0x455f18c152b6b400"
      },
      "nonce": 100,
      "data": "0x",
      "r": "0x75b011af0637d2f78586f6afb196290bc6627e5898829bf967ec00753209ac1d",
      "s": "0x6580b2f001172641d9498692890dae1dbdec31496428e33da77bbca24b432b93",
      "v": 28,
      "creates": null,
      "raw": "0xf86c64850dd373f0908252089432be343b94f860124dc4fee278fdcbd38c102d8888455f18c152b6b400801ca075b011af0637d2f78586f6afb196290bc6627e5898829bf967ec00753209ac1da06580b2f001172641d9498692890dae1dbdec31496428e33da77bbca24b432b93",
      "networkId": 0,
      "chainId": 0
    },
    {
      "hash": "0x538a46df647c77efa71c1f085be67ce67faea593030ef58c95dfa056761693c4",
      "blockHash": "0xafd42a48ff418f7b971deed03933f28249a2f094dcf7957bfe31b7cb2d45625a",
      "blockNumber": 87601,
      "transactionIndex": 1,
      "confirmations": null,
      "from": "0x2910543Af39abA0Cd09dBb2D50200b3E800A63D2",
      "gasPrice": {
        "_hex": "0xdcef6a6fc"
      },
      "gasLimit": {
        "_hex": "0x5208"
      },
      "to": "0xb6E6C3222B6b6f9bE2875D2a89f127fb64100Fe2",
      "value": {
        "_hex": "0x4551ce090d138000"
      },
      "nonce": 710,
      "data": "0x",
      "r": "0xaf91f36522d4f291516223f48250ace2df65d595bf6a5ac47945205b0264b013",
      "s": "0x69ec6f4143ef94f9ce0ef3dc0bd67996925f68fadf6b3694ac2beaca85842683",
      "v": 28,
      "creates": null,
      "raw": "0xf86e8202c6850dcef6a6fc82520894b6e6c3222b6b6f9be2875d2a89f127fb64100fe2884551ce090d138000801ca0af91f36522d4f291516223f48250ace2df65d595bf6a5ac47945205b0264b013a069ec6f4143ef94f9ce0ef3dc0bd67996925f68fadf6b3694ac2beaca85842683",
      "networkId": 0,
      "chainId": 0
    }
  ]
}