{
  "hash": "0x78c025878c6b5a34f9371d4112121f6005fd45301db03e25ba9c8eb5378a31ad",
  "parentHash": "0x789ecddbfa8ec5cdd68ddcc253bf110ec91ca11fd3b1c4007b76c69f9e4ca4b5",
  "number": 79932,
  "timestamp": 1439477478,
  "nonce": "0xef6e3af03c8b96e4",
  "difficulty": 2351763931652,
  "gasLimit": {
    "_hex": "0x2fefd5"
  },
  "gasUsed": {
    "_hex": "0xf618"
  },
  "miner": "0xe6A7a1d47ff21B6321162AEA7C6CB457D5476Bca",
  "extraData": "0x476574682f76312e302e312d38326566323666362f6c696e75782f676f312e34",
  "transactions": [
    {
      "hash": "0xb146eb7625c9849056504fa05e0629334fd87cee2238d9ed042813569f50452a",
      "blockHash": "0x78c025878c6b5a34f9371d4112121f6005fd45301db03e25ba9c8eb5378a31ad",
      "blockNumber": 79932,
      "transactionIndex": 0,
      "confirmations": null,
      "from": "0x32Be343B94f860124dC4fEe278FDCBD38C102D88",
      "gasPrice": {
        "_hex": "0xd76c34ea5"
      },
      "gasLimit": {
        "_hex": "0x5208"
      },
      "to": "0x5Fc6b105a862830c0Ab0b9972a656C9B2eD66b9F",
      "value": {
        "_hex": "0x104353e219023400000"
      },
      "nonce": 485,
      "data": "0x",
      "r": "0xe6b6ba46d7aca2cbc0a2a871c0a217269f0592ed996963c23a79c8a6d45efa97",
      "s": "0x2b424325957aa4215a45433f446d243a8551149d57350aecd5543c0463a50c5c",
      "v": 27,
      "creates": null,
      "raw": "0xf8708201e5850d76c34ea5825208945fc6b105a862830c0ab0b9972a656c9b2ed66b9f8a0104353e219023400000801ba0e6b6ba46d7aca2cbc0a2a871c0a217269f0592ed996963c23a79c8a6d45efa97a02b424325957aa4215a45433f446d243a8551149d57350aecd5543c0463a50c5c",
      "networkId": 0,
      "chainId": 0
    },
    {
      "hash": "0xf4a6234a4d0732d80f812f698271ffd0d563a91a4b899f67224e0fbd0443dc79",
      "blockHash": "0x78c025878c6b5a34f9371d4112121f6005fd45301db03e25ba9c8eb5378a31ad",
      "blockNumber": 79932,
      "transactionIndex": 1,
      "confirmations": null,
      "from": "0x32Be343B94f860124dC4fEe278FDCBD38C102D88",
      "gasPrice": {
        "_hex": "0xd76c34ea5"
      },
      "gasLimit": {
        "_hex": "0x5208"
      },
      "to": "0xcf41dDE715EF1162386575F0d21d9172Dcd1b291",
      "value": {
        "_hex": "0x3bd6db779ae330000"
      },
      "nonce": 486,
      "data": "0x",
      "r": "0x0a5ef06417bb976e95dccebd95570b6022311a631a2c11988e1ef591f1711aad",
      "s": "0x6031470d3ae2b6b5bdc49855817b448ffc876aed6628d6a699379a75f2fe97a7",
      "v": 28,
      "creates": null,
      "raw": "0xf86f8201e6850d76c34ea582520894cf41dde715ef1162386575f0d21d9172dcd1b2918903bd6db779ae330000801ca00a5ef06417bb976e95dccebd95570b6022311a631a2c11988e1ef591f1711aada06031470d3ae2b6b5bdc49855817b448ffc876aed6628d6a699379a75f2fe97a7",
      "networkId": 0,
      "chainId": 0
    },
    {
      "hash": "0xed70e5802a235a0d322f63a2f1b110bbfb717f645e9989ad7c158833801478c7",
      "blockHash": "0x78c025878c6b5a34f9371d4112121f6005fd45301db03e25ba9c8eb5378a31ad",
      "blockNumber": 79932,
      "transactionIndex": 2,
      "confirmations": null,
      "from": "0xc2E9e042B88164B5408bd895Df7DdaD491c6321E",
      "gasPrice": {
        "_hex": "0xd7347b74f"
      },
      "gasLimit": {
        "_hex": "0x15f90"
      },
      "to": "0xa114c802ef29776f05f9c6925cE915232e8ae102",
      "value": {
        "_hex": "0xf9ccd8a1c5080000"
      },
      "nonce": 12,
      "data": "0x",
      "r": "0xbca2c13b8122f947d14372179da3208b538f993a78886f70aa5e75b13912e5f8",
      "s": "0x1ea6a987b996e4795b54f5c6571923e7347a04ac0e25ebeb27f90b54c0ccd9b3",
      "v": 28,
      "creates": null,
      "raw": "0xf86d0c850d7347b74f83015f9094a114c802ef29776f05f9c6925ce915232e8ae10288f9ccd8a1c5080000801ca0bca2c13b8122f947d14372179da3208b538f993a78886f70aa5e75b13912e5f8a01ea6a987b996e4795b54f5c6571923e7347a04ac0e25ebeb27f90b54c0ccd9b3",
      "networkId": 0,
      "chainId": 0
    }
  ]
}