{
  "hash": "0x82f6e84200b4fb75c408a3157f9b88d304b499c8dbb3fd755c699b7e3584de57",
  "parentHash": "0x53dd62d97ab87ae0bb179e6443bf91c58f51530eb19ea642133fe4bbb3ea54d2",
  "number": 119556,
  "timestamp": 1440144949,
  "nonce": "0x65fe17fcb6320972",
  "difficulty": 4390084196826,
  "gasLimit": {
    "_hex": "0x2fefd8"
  },
  "gasUsed": {
    "_hex": "0x5208"
  },
  "miner": "0x52bc44d5378309EE2abF1539BF71dE1b7d7bE3b5",
  "extraData": "0xd783010002844765746887676f312e342e32856c696e7578",
  "transactions": [
    {
      "hash": "0x7144f25773b037819492ce5c36672e5c886ed4398ba417e0b82df55bfde893c3",
      "blockHash": "0x82f6e84200b4fb75c408a3157f9b88d304b499c8dbb3fd755c699b7e3584de57",
      "blockNumber": 119556,
      "transactionIndex": 0,
      "confirmations": null,
      "from": "0x65553f5e8FA2eDfCe37Aec51A90ed28777dDe402",
      "gasPrice": {
        "_hex": "0xba43b7400"
      },
      "gasLimit": {
        "_hex": "0x5208"
      },
      "to": "0xFBb1b73C4f0BDa4f67dcA266ce6Ef42f520fBB98",
      "value": {
        "_hex": "0x2be12318252270000"
      },
      "nonce": 8,
      "data": "0x",
      "r": "0x41ead509bc1e043261dd3f1c764a87b75615688e2a6e7cf548d7e57345f6d8d2",
      "s": "0x1dd73818378e52930e0734ed2937531ea98e5a5d75017168ce7bde76ee28580c",
      "v": 28,
      "creates": null,
      "raw": "0xf86d08850ba43b740082520894fbb1b73c4f0bda4f67dca266ce6ef42f520fbb988902be12318252270000801ca041ead509bc1e043261dd3f1c764a87b75615688e2a6e7cf548d7e57345f6d8d2a01dd73818378e52930e0734ed2937531ea98e5a5d75017168ce7bde76ee28580c",
      "networkId": 0,
      "chainId": 0
    }
  ]
}