{
  "hash": "0x7baef58af9a67665b9fe73eaf32fb3ff04c9ab0271ef1fb541d637e63e9faf0a",
  "parentHash": "0x0efee5cb91c5ec608e2c04e93e2be5a4b8067b6d4729feb4631322304bcab46f",
  "number": 102264,
  "timestamp": 1439835320,
  "nonce": "0x048900e1fd4310ef",
  "difficulty": 3935671988991,
  "gasLimit": {
    "_hex": "0x2fefd8"
  },
  "gasUsed": {
    "_hex": "0xa410"
  },
  "miner": "0xE300c4587D260cE22a677755Db6429B491A4309E",
  "extraData": "0x",
  "transactions": [
    {
      "hash": "0x8fe9472422d9e9a9635bbb33503ee84de3d83165877c29c3096488e2ecfebb96",
      "blockHash": "0x7baef58af9a67665b9fe73eaf32fb3ff04c9ab0271ef1fb541d637e63e9faf0a",
      "blockNumber": 102264,
      "transactionIndex": 0,
      "confirmations": null,
      "from": "0x297d128041190ec4D477Cd476D194eFcA4E9cf67",
      "gasPrice": {
        "_hex": "0x746a528800"
      },
      "gasLimit": {
        "_hex": "0x5b04"
      },
      "to": "0x01f2c407D48959817C396105d402041EeAfD9090",
      "value": {
        "_hex": "0xb6f36ca749f98000"
      },
      "nonce": 4,
      "data": "0x",
      "r": "0x33f9c2673c2b8e0c9f352859037493d06d869da6b9094a6d097f1d2a71d9f07b",
      "s": "0xb29e32d2d4a0f4cb3bf8dfbd6eca1ee11ef760d5c3df3bc29231cf1d5dd6c649",
      "v": 27,
      "creates": null,
      "raw": "0xf86c0485746a528800825b049401f2c407d48959817c396105d402041eeafd909088b6f36ca749f98000801ba033f9c2673c2b8e0c9f352859037493d06d869da6b9094a6d097f1d2a71d9f07ba0b29e32d2d4a0f4cb3bf8dfbd6eca1ee11ef760d5c3df3bc29231cf1d5dd6c649",
      "networkId": 0,
      "chainId": 0
    },
    {
      "hash": "0x749d042bdaa300a11403ec8fdd245f768e0754cf204767c35265ff8497dd07c4",
      "blockHash": "0x7baef58af9a67665b9fe73eaf32fb3ff04c9ab0271ef1fb541d637e63e9faf0a",
      "blockNumber": 102264,
      "transactionIndex": 1,
      "confirmations": null,
      "from": "0x4197AAB12B9F602257C187FB63Ea77eF9036e2F8",
      "gasPrice": {
        "_hex": "0xd7ce61387"
      },
      "gasLimit": {
        "_hex": "0x7a120"
      },
      "to": "0xBBDa93a81B882774e1c9b5e3F933Fa35DaC8bc88",
      "value": {
        "_hex": "0xcf7911caa0170000"
      },
      "nonce": 0,
      "data": "0x",
      "r": "0x17030977ad3aef15cc87613ff80997841cce4cf5faa9c911e215bccb8f2d8ce4",
      "s": "0x3c07e759a21dbd8dd9b93fc26c5be9b582607b073593909003b6269d8c7cbf61",
      "v": 28,
      "creates": null,
      "raw": "0xf86d80850d7ce613878307a12094bbda93a81b882774e1c9b5e3f933fa35dac8bc8888cf7911caa0170000801ca017030977ad3aef15cc87613ff80997841cce4cf5faa9c911e215bccb8f2d8ce4a03c07e759a21dbd8dd9b93fc26c5be9b582607b073593909003b6269d8c7cbf61",
      "networkId": 0,
      "chainId": 0
    }
  ]
}