{
  "hash": "0xd47308f9eeddbf13e85b7ff2c021b12cb6da052cc4b3e5d94911ff07e2cd8e1e",
  "parentHash": "0xc62ad046e44aa6e996230f24dd7ecd59d53fc7e897c9da74ff387a545b1413d3",
  "number": 114365,
  "timestamp": 1440039162,
  "nonce": "0x7512151ff5a3d5db",
  "difficulty": 4503566179922,
  "gasLimit": {
    "_hex": "0x2fefd8"
  },
  "gasUsed": {
    "_hex": "0xa410"
  },
  "miner": "0xe6A7a1d47ff21B6321162AEA7C6CB457D5476Bca",
  "extraData": "0x476574682f76312e302e312d38326566323666362f6c696e75782f676f312e34",
  "transactions": [
    {
      "hash": "0xdd036156bf5c977d5e397d5ee7fd1cce995eff94b2d5d05014bc598615758a59",
      "blockHash": "0xd47308f9eeddbf13e85b7ff2c021b12cb6da052cc4b3e5d94911ff07e2cd8e1e",
      "blockNumber": 114365,
      "transactionIndex": 0,
      "confirmations": null,
      "from": "0x32Be343B94f860124dC4fEe278FDCBD38C102D88",
      "gasPrice": {
        "_hex": "0xe25c61e44"
      },
      "gasLimit": {
        "_hex": "0x5208"
      },
      "to": "0x02020D22dCF88f5eDd66B382D7da019F161fB7e3",
      "value": {
        "_hex": "0x2a68cfc8baac020000"
      },
      "nonce": 1391,
      "data": "0x",
      "r": "0x7f2a5596a6e3c58abaedef2e7dd0de818d666782531ea81755ef9727f8a5b3c1",
      "s": "0x5c3810f7b9005c8e79e310935bcd55e8bd5053cb1ce4be4ca39f8778b2517ed7",
      "v": 27,
      "creates": null,
      "raw": "0xf86f82056f850e25c61e448252089402020d22dcf88f5edd66b382d7da019f161fb7e3892a68cfc8baac020000801ba07f2a5596a6e3c58abaedef2e7dd0de818d666782531ea81755ef9727f8a5b3c1a05c3810f7b9005c8e79e310935bcd55e8bd5053cb1ce4be4ca39f8778b2517ed7",
      "networkId": 0,
      "chainId": 0
    },
    {
      "hash": "0xc5b5e4482fe1d0f6498850a7f82488183d372731472d62f2d85fe4a10c51e0e1",
      "blockHash": "0xd47308f9eeddbf13e85b7ff2c021b12cb6da052cc4b3e5d94911ff07e2cd8e1e",
      "blockNumber": 114365,
      "transactionIndex": 1,
      "confirmations": null,
      "from": "0x32Be343B94f860124dC4fEe278FDCBD38C102D88",
      "gasPrice": {
        "_hex": "0xe25c61e44"
      },
      "gasLimit": {
        "_hex": "0x5208"
      },
      "to": "0x4A2D52D0898f560E53cdf4585A034517c06d0544",
      "value": {
        "_hex": "0x268fc35d291c9800"
      },
      "nonce": 1392,
      "data": "0x",
      "r": "0x82069b8970a0f332f967086f9a84de56beebad9c18737b3e393183d3c1e885a8",
      "s": "0x094770776468dc4a21933513759540796e41a03e5c682db24e0ed8a032890615",
      "v": 28,
      "creates": null,
      "raw": "0xf86e820570850e25c61e44825208944a2d52d0898f560e53cdf4585a034517c06d054488268fc35d291c9800801ca082069b8970a0f332f967086f9a84de56beebad9c18737b3e393183d3c1e885a8a0094770776468dc4a21933513759540796e41a03e5c682db24e0ed8a032890615",
      "networkId": 0,
      "chainId": 0
    }
  ]
}