{
  "hash": "0x346c4e2bb1669f8ab38c992305d41a3cb8086f4d34c1f2c334a5b96f016eb4d1",
  "parentHash": "0x40d4aa7c64341609c2fb8fb42da49b575b19ba7e9a0cfd952ae465fbb1e3e9cf",
  "number": 75659,
  "timestamp": 1439406986,
  "nonce": "0x8c7eda7c4db1275c",
  "difficulty": 2235367182124,
  "gasLimit": {
    "_hex": "0x2fefd8"
  },
  "gasUsed": {
    "_hex": "0xa410"
  },
  "miner": "0x9746c7e1ef2bd21FF3997fa467593a89cb852BD0",
  "extraData": "0x476574682f76312e302e312f77696e646f77732f676f312e342e32",
  "transactions": [
    {
      "hash": "0xfaa94c62669e8ea9d65d540fa6f82a0a229bac5d568f42ecf99a02618acfec5c",
      "blockHash": "0x346c4e2bb1669f8ab38c992305d41a3cb8086f4d34c1f2c334a5b96f016eb4d1",
      "blockNumber": 75659,
      "transactionIndex": 0,
      "confirmations": null,
      "from": "0xa70a9a7040d542C632D8e0bE7c5513A8a5Bbc752",
      "gasPrice": {
        "_hex": "0xde9a24332"
      },
      "gasLimit": {
        "_hex": "0x5208"
      },
      "to": "0x32Be343B94f860124dC4fEe278FDCBD38C102D88",
      "value": {
        "_hex": "0x455f1c3d1080d000"
      },
      "nonce": 39,
      "data": "0x",
      "r": "0xb64ec4bcd046de5d85533cd97907a0e4defd9bc360b771a953fb25aeea5cc110",
      "s": "0x22bd8e8024fb0a4a2bb13de10f1eea91a6a1dbe02f220fe1905b8c01d9904672",
      "v": 27,
      "creates": null,
      "raw": "0xf86c27850de9a243328252089432be343b94f860124dc4fee278fdcbd38c102d8888455f1c3d1080d000801ba0b64ec4bcd046de5d85533cd97907a0e4defd9bc360b771a953fb25aeea5cc110a022bd8e8024fb0a4a2bb13de10f1eea91a6a1dbe02f220fe1905b8c01d9904672",
      "networkId": 0,
      "chainId": 0
    },
    {
      "hash": "0x9b07a0678ffa45282f12c715d6056ebe92f38db121923828fdcf7d7e1c64c2cc",
      "blockHash": "0x346c4e2bb1669f8ab38c992305d41a3cb8086f4d34c1f2c334a5b96f016eb4d1",
      "blockNumber": 75659,
      "transactionIndex": 1,
      "confirmations": null,
      "from": "0x1467bcfA961fE8067c779935a78B4a73E7393BD8",
      "gasPrice": {
        "_hex": "0xde9a24332"
      },
      "gasLimit": {
        "_hex": "0x5208"
      },
      "to": "0x32Be343B94f860124dC4fEe278FDCBD38C102D88",
      "value": {
        "_hex": "0x43fbd6c4b2f6d000"
      },
      "nonce": 2,
      "data": "0x",
      "r": "0x8afc8c42b9e5601f2a6d86c6a57b02e349f10fb37df497699ac6f78dd3d55e37",
      "s": "0x0ea242e2700c08e831b26ae33cd5fb4a4995cdb3840c27bca5bdea92dcc88589",
      "v": 27,
      "creates": null,
      "raw": "0xf86c02850de9a243328252089432be343b94f860124dc4fee278fdcbd38c102d888843fbd6c4b2f6d000801ba08afc8c42b9e5601f2a6d86c6a57b02e349f10fb37df497699ac6f78dd3d55e37a00ea242e2700c08e831b26ae33cd5fb4a4995cdb3840c27bca5bdea92dcc88589",
      "networkId": 0,
      "chainId": 0
    }
  ]
}