{
  "hash": "0x4a5265425240e6ba4dfb2079263202da327eb85a87803060d9313e76d76e8ffb",
  "parentHash": "0xcf9816527556040db7e23abeec9942755f93eb7551c6fd017343f28f968bf456",
  "number": 96998,
  "timestamp": 1439749218,
  "nonce": "0xd613bc2c1328e3c2",
  "difficulty": 3746809599237,
  "gasLimit": {
    "_hex": "0x2fefd5"
  },
  "gasUsed": {
    "_hex": "0x5208"
  },
  "miner": "0xB1A4B41b8e75a153841c99c62d18588d45e7b406",
  "extraData": "0x",
  "transactions": [
    {
      "hash": "0xbfbcaddc62acf7798250a676de005e0f37e7aff82fd0c391a2b04cfe8e513fb7",
      "blockHash": "0x4a5265425240e6ba4dfb2079263202da327eb85a87803060d9313e76d76e8ffb",
      "blockNumber": 96998,
      "transactionIndex": 0,
      "confirmations": null,
      "from": "0xD9666150A9dA92d9108198a4072970805a8B3428",
      "gasPrice": {
        "_hex": "0xddd1b7b11"
      },
      "gasLimit": {
        "_hex": "0x5208"
      },
      "to": "0x32Be343B94f860124dC4fEe278FDCBD38C102D88",
      "value": {
        "_hex": "0x455f203fd8fc9400"
      },
      "nonce": 21,
      "data": "0x",
      "r": "0xfc294b6de6a1177c325cda0d34bf47185b1fbdb36b71759ca7b54dd4b4c4775d",
      "s": "0x75ee3b5af978fdd625d77e7ffa7524ab71cc02003ded75e96d92e67b87457b0a",
      "v": 28,
      "creates": null,
      "raw": "0xf86c15850ddd1b7b118252089432be343b94f860124dc4fee278fdcbd38c102d8888455f203fd8fc9400801ca0fc294b6de6a1177c325cda0d34bf47185b1fbdb36b71759ca7b54dd4b4c4775da075ee3b5af978fdd625d77e7ffa7524ab71cc02003ded75e96d92e67b87457b0a",
      "networkId": 0,
      "chainId": 0
    }
  ]
}