{
  "hash": "0xd9027d36f8d42be8ead034218b511ed0cb881d7debca7290966d4e2642243ffa",
  "parentHash": "0x5a96846cd68ad82ee37f9b6ba8d71235eec9ec37c47880606fe021be846cce84",
  "number": 121888,
  "timestamp": 1440184409,
  "nonce": "0xed454f40673ba7a1",
  "difficulty": 4475426531945,
  "gasLimit": {
    "_hex": "0x2fefd8"
  },
  "gasUsed": {
    "_hex": "0xa410"
  },
  "miner": "0xe6A7a1d47ff21B6321162AEA7C6CB457D5476Bca",
  "extraData": "0xd783010002844765746887676f312e342e32856c696e7578",
  "transactions": [
    {
      "hash": "0x2111aa19843a854d75c95951f48f5cd9c03a1813cb78c897ef723d9553087d8a",
      "blockHash": "0xd9027d36f8d42be8ead034218b511ed0cb881d7debca7290966d4e2642243ffa",
      "blockNumber": 121888,
      "transactionIndex": 0,
      "confirmations": null,
      "from": "0x3175a28CF6105466923f11bFFabD279F162aa2f8",
      "gasPrice": {
        "_hex": "0xd799fe2a7"
      },
      "gasLimit": {
        "_hex": "0x5208"
      },
      "to": "0x32Be343B94f860124dC4fEe278FDCBD38C102D88",
      "value": {
        "_hex": "0x2cefa217c07c6000"
      },
      "nonce": 20,
      "data": "0x",
      "r": "0x8b5a1a3770ad04f4e6a3baf9354f0a01e9fb469e607326941204ef4ceded5e06",
      "s": "0x7cbd7e0a14ee2ec0a1d1c673c365356364c123930d8348799bc7180c6f4a6fe7",
      "v": 27,
      "creates": null,
      "raw": "0xf86c14850d799fe2a78252089432be343b94f860124dc4fee278fdcbd38c102d88882cefa217c07c6000801ba08b5a1a3770ad04f4e6a3baf9354f0a01e9fb469e607326941204ef4ceded5e06a07cbd7e0a14ee2ec0a1d1c673c365356364c123930d8348799bc7180c6f4a6fe7",
      "networkId": 0,
      "chainId": 0
    },
    {
      "hash": "0xd7301e873f36b4ee3b838256301e6f55ff247e497c00474e613822c893e0f7b7",
      "blockHash": "0xd9027d36f8d42be8ead034218b511ed0cb881d7debca7290966d4e2642243ffa",
      "blockNumber": 121888,
      "transactionIndex": 1,
      "confirmations": null,
      "from": "0xe6A7a1d47ff21B6321162AEA7C6CB457D5476Bca",
      "gasPrice": {
        "_hex": "0xba43b7400"
      },
      "gasLimit": {
        "_hex": "0x55f0"
      },
      "to": "0x1543667B9bad3e41865C3233E1764d8dda8E1F3D",
      "value": {
        "_hex": "0xd9cb8651e5f9e9b8"
      },
      "nonce": 6700,
      "data": "0x",
      "r": "0x74e09f0e58b9b73b23d5fd2fd11156920e48d0c8af4647ffde416228561d93dd",
      "s": "0x27ca443d91815280a18c13e09a668b48a202ff6935ab28a6e1b99c0409995853",
      "v": 28,
      "creates": null,
      "raw": "0xf86e821a2c850ba43b74008255f0941543667b9bad3e41865c3233e1764d8dda8e1f3d88d9cb8651e5f9e9b8801ca074e09f0e58b9b73b23d5fd2fd11156920e48d0c8af4647ffde416228561d93dda027ca443d91815280a18c13e09a668b48a202ff6935ab28a6e1b99c0409995853",
      "networkId": 0,
      "chainId": 0
    }
  ]
}