{
  "hash": "0x2e167f335ab4778b59103c551fd383f069a135e8d7908d6b2de525e812114780",
  "parentHash": "0x8c7ec9f2e49f9d4845a0245fc97e407b238fd690ac7d355d584126863159931e",
  "number": 85302,
  "timestamp": 1439561493,
  "nonce": "0x0efa51bdae304307",
  "difficulty": 2750415735430,
  "gasLimit": {
    "_hex": "0x2fefd8"
  },
  "gasUsed": {
    "_hex": "0x5208"
  },
  "miner": "0xbb7B8287f3F0a933474a79eAe42CBCa977791171",
  "extraData": "0x476574682f4c5649562f76312e302e312f6c696e75782f676f312e342e32",
  "transactions": [
    {
      "hash": "0x3cd2dc671b271554e329da71400defe7f6f4c3d0ba1f0e543998c66936536e6a",
      "blockHash": "0x2e167f335ab4778b59103c551fd383f069a135e8d7908d6b2de525e812114780",
      "blockNumber": 85302,
      "transactionIndex": 0,
      "confirmations": null,
      "from": "0xc597A5d92F5dC1137D847db733cfe02c6d209f13",
      "gasPrice": {
        "_hex": "0xd1d8eefe2"
      },
      "gasLimit": {
        "_hex": "0x15f90"
      },
      "to": "0xA6CF15Cc4e4C6d1cE63B43E5963CBD0450fd9566",
      "value": {
        "_hex": "0x56bc75e2d63100000"
      },
      "nonce": 25,
      "data": "0x",
      "r": "0x5a82ba414e899fc1fe6a5a1058ae548a9f112bce904afbe0b3a1309eded18e38",
      "s": "0x5aa45d9731cfb08d203f8bda1b450eb6a3f48639a52db9eeedd708c337a8da4d",
      "v": 28,
      "creates": null,
      "raw": "0xf86e19850d1d8eefe283015f9094a6cf15cc4e4c6d1ce63b43e5963cbd0450fd956689056bc75e2d63100000801ca05a82ba414e899fc1fe6a5a1058ae548a9f112bce904afbe0b3a1309eded18e38a05aa45d9731cfb08d203f8bda1b450eb6a3f48639a52db9eeedd708c337a8da4d",
      "networkId": 0,
      "chainId": 0
    }
  ]
}