{
  "hash": "0x6388ede2e428c5b7c5e9be7dedf9384ce349e81d1a5aaa72aa2cb5102a7bbb5d",
  "parentHash": "0xa6c61e84f1f61a7135f266100d02a357082edff4a601a836cfd35bc268c977d7",
  "number": 120006,
  "timestamp": 1440152192,
  "nonce": "0x072be8c5d5c72783",
  "difficulty": 4424278713470,
  "gasLimit": {
    "_hex": "0x2fefd8"
  },
  "gasUsed": {
    "_hex": "0x5208"
  },
  "miner": "0xe6A7a1d47ff21B6321162AEA7C6CB457D5476Bca",
  "extraData": "0xd783010002844765746887676f312e342e32856c696e7578",
  "transactions": [
    {
      "hash": "0x38bccce3c7fe5631a7be5bb17c9f7fbdacc6e389f8d31187061fa9e55068c9c9",
      "blockHash": "0x6388ede2e428c5b7c5e9be7dedf9384ce349e81d1a5aaa72aa2cb5102a7bbb5d",
      "blockNumber": 120006,
      "transactionIndex": 0,
      "confirmations": null,
      "from": "0x379965B927911bcF18D2d4F062Edf10c45847069",
      "gasPrice": {
        "_hex": "0xba43b7400"
      },
      "gasLimit": {
        "_hex": "0x5267"
      },
      "to": "0xE9820EfC74A9fe5fb68bf1e0FBf9945c1302bC0B",
      "value": {
        "_hex": "0x4563918244f400000"
      },
      "nonce": 13,
      "data": "0x",
      "r": "0x36867a98d45c0464b766706559c842a54f48ca3a16806441736ef054fd4262e0",
      "s": "0xc40f039c7a86703e21141e50350477d00383c648183bca81b437a7c37be0b1ab",
      "v": 28,
      "creates": null,
      "raw": "0xf86d0d850ba43b740082526794e9820efc74a9fe5fb68bf1e0fbf9945c1302bc0b8904563918244f400000801ca036867a98d45c0464b766706559c842a54f48ca3a16806441736ef054fd4262e0a0c40f039c7a86703e21141e50350477d00383c648183bca81b437a7c37be0b1ab",
      "networkId": 0,
      "chainId": 0
    }
  ]
}