{
  "hash": "0xb1977b6b93aff9265390aa27b7ce7ca650e2439870253e7cf3559350ec8d5bfd",
  "parentHash": "0xdff1f2c284ef2d83d6929ea4e6a0976f34f4dccbff811f850846ed54fe03906a",
  "number": 117924,
  "timestamp": 1440117605,
  "nonce": "0xd16800954b9d9127",
  "difficulty": 4344022522534,
  "gasLimit": {
    "_hex": "0x2fefd8"
  },
  "gasUsed": {
    "_hex": "0xa410"
  },
  "miner": "0xe6A7a1d47ff21B6321162AEA7C6CB457D5476Bca",
  "extraData": "0xd783010002844765746887676f312e342e32856c696e7578",
  "transactions": [
    {
      "hash": "0x1be803cbf6ceb870ce0db612cfad344bedd39e0a76f659909dce8c49b42e5b11",
      "blockHash": "0xb1977b6b93aff9265390aa27b7ce7ca650e2439870253e7cf3559350ec8d5bfd",
      "blockNumber": 117924,
      "transactionIndex": 0,
      "confirmations": null,
      "from": "0xF4f2C15602B084Cae84Ea603f75527DE19705aA1",
      "gasPrice": {
        "_hex": "0xba43b7400"
      },
      "gasLimit": {
        "_hex": "0x5208"
      },
      "to": "0x32Be343B94f860124dC4fEe278FDCBD38C102D88",
      "value": {
        "_hex": "0x64c2b4ed2b380000"
      },
      "nonce": 8,
      "data": "0x",
      "r": "0xfddd7ad957c0e4fcb0e62885ae99998b3aa59ff86a48857a07889500e714c1c1",
      "s": "0x4f23534e3beee6f3ec41bd340342599f2f1cc67c6254b28e18493564085a69b5",
      "v": 28,
      "creates": null,
      "raw": "0xf86c08850ba43b74008252089432be343b94f860124dc4fee278fdcbd38c102d888864c2b4ed2b380000801ca0fddd7ad957c0e4fcb0e62885ae99998b3aa59ff86a48857a07889500e714c1c1a04f23534e3beee6f3ec41bd340342599f2f1cc67c6254b28e18493564085a69b5",
      "networkId": 0,
      "chainId": 0
    },
    {
      "hash": "0x68a4330c77e1adb4a6e1a6120ff48a32cff028c412484d4aee0cb240f737f48c",
      "blockHash": "0xb1977b6b93aff9265390aa27b7ce7ca650e2439870253e7cf3559350ec8d5bfd",
      "blockNumber": 117924,
      "transactionIndex": 1,
      "confirmations": null,
      "from": "0x3B6C409e2ADC909C20B59DF21a7c48F44c259F24",
      "gasPrice": {
        "_hex": "0xba43b7400"
      },
      "gasLimit": {
        "_hex": "0x5208"
      },
      "to": "0x32Be343B94f860124dC4fEe278FDCBD38C102D88",
      "value": {
        "_hex": "0x2a2a18319e1d3800"
      },
      "nonce": 7,
      "data": "0x",
      "r": "0x104af4d581ec66751cc1040c2c40c04d05a8a5f6f1e3e4dab19cf23a1e5cd754",
      "s": "0x45304c9e55185e716dde17342fab1f7f356b9d33c9be3beaf09d89d578d9a5b7",
      "v": 27,
      "creates": null,
      "raw": "0xf86c07850ba43b74008252089432be343b94f860124dc4fee278fdcbd38c102d88882a2a18319e1d3800801ba0104af4d581ec66751cc1040c2c40c04d05a8a5f6f1e3e4dab19cf23a1e5cd754a045304c9e55185e716dde17342fab1f7f356b9d33c9be3beaf09d89d578d9a5b7",
      "networkId": 0,
      "chainId": 0
    }
  ]
}