{
  "hash": "0xf89d0af99d37043c02d417dbb0abd4bb1e5d8f8d957965f9ab87770f8460cafb",
  "parentHash": "0x6d478c4249562f891f2533ca442a91cd99f95c4c88836efaf2810ee2b99d5207",
  "number": 121885,
  "timestamp": 1440184387,
  "nonce": "0x363da74b9db1bc45",
  "difficulty": 4473243398092,
  "gasLimit": {
    "_hex": "0x2fefd8"
  },
  "gasUsed": {
    "_hex": "0x52080"
  },
  "miner": "0x9D49F602b0fdb924Bd63DDE2Bd0907E4A07c63a7",
  "extraData": "0x",
  "transactions": [
    {
      "hash": "0x4e169bfea41371eab08b2fbfae8d2c3859fb032abcdf6b9c6cefbeb6afe99271",
      "blockHash": "0xf89d0af99d37043c02d417dbb0abd4bb1e5d8f8d957965f9ab87770f8460cafb",
      "blockNumber": 121885,
      "transactionIndex": 0,
      "confirmations": null,
      "from": "0xe6A7a1d47ff21B6321162AEA7C6CB457D5476Bca",
      "gasPrice": {
        "_hex": "0xba43b7400"
      },
      "gasLimit": {
        "_hex": "0x55f0"
      },
      "to": "0xAF654b2845616930f74573a909B477E23752DcA4",
      "value": {
        "_hex": "0xa8449b5936416988"
      },
      "nonce": 6681,
      "data": "0x",
      "r": "0x1d3497a047b8046bbf9ee25894ff5b0533a50d17c84f4c5a4ff94cb38107bf1e",
      "s": "0x259583c6579d844454e7d1f891d1e99bbbc7e3bd861c0eb1ee64b1f3e44a16be",
      "v": 28,
      "creates": null,
      "raw": "0xf86e821a19850ba43b74008255f094af654b2845616930f74573a909b477e23752dca488a8449b5936416988801ca01d3497a047b8046bbf9ee25894ff5b0533a50d17c84f4c5a4ff94cb38107bf1ea0259583c6579d844454e7d1f891d1e99bbbc7e3bd861c0eb1ee64b1f3e44a16be",
      "networkId": 0,
      "chainId": 0
    },
    {
      "hash": "0x995ceef0d68ec9e6bf48b1c02c252d294c1e10587c8d355fe2b477894822c66f",
      "blockHash": "0xf89d0af99d37043c02d417dbb0abd4bb1e5d8f8d957965f9ab87770f8460cafb",
      "blockNumber": 121885,
      "transactionIndex": 1,
      "confirmations": null,
      "from": "0xe6A7a1d47ff21B6321162AEA7C6CB457D5476Bca",
      "gasPrice": {
        "_hex": "0xba43b7400"
      },
      "gasLimit": {
        "_hex": "0x55f0"
      },
      "to": "0x1CaC89419da71AC175A5B99CEE0163720430990c",
      "value": {
        "_hex": "0xab84a36c199c6900"
      },
      "nonce": 6682,
      "data": "0x",
      "r": "0xe748c6bbcbb426142572ea9ca7e3b0d1a07d49a045340b10b45a75512cc749a6",
      "s": "0x0dfd1b5acb84099d71676994e70d6b517fbf81b44168eba2658e77dd3d3e684e",
      "v": 28,
      "creates": null,
      "raw": "0xf86e821a1a850ba43b74008255f0941cac89419da71ac175a5b99cee0163720430990c88ab84a36c199c6900801ca0e748c6bbcbb426142572ea9ca7e3b0d1a07d49a045340b10b45a75512cc749a6a00dfd1b5acb84099d71676994e70d6b517fbf81b44168eba2658e77dd3d3e684e",
      "networkId": 0,
      "chainId": 0
    },
    {
      "hash": "0x8656d37cd8101d9f3419111cb4f0abf435a039973d0efa0b55f889350c3269d3",
      "blockHash": "0xf89d0af99d37043c02d417dbb0abd4bb1e5d8f8d957965f9ab87770f8460cafb",
      "blockNumber": 121885,
      "transactionIndex": 2,
      "confirmations": null,
      "from": "0xe6A7a1d47ff21B6321162AEA7C6CB457D5476Bca",
      "gasPrice": {
        "_hex": "0xba43b7400"
      },
      "gasLimit": {
        "_hex": "0x55f0"
      },
      "to": "0xB70f652788a24CeB11C0b586677b03679ccaCE6a",
      "value": {
        "_hex": "0xae1f400204db3fa8"
      },
      "nonce": 6683,
      "data": "0x",
      "r": "0x486db29816096ce45a9527e6bbe8ff7b0c1558a78b0faf41209e540149727fe9",
      "s": "0x11a0c108a37b4e8413eac21a6113a9db938b22e25b697f8460e5bf33208f4b8c",
      "v": 27,
      "creates": null,
      "raw": "0xf86e821a1b850ba43b74008255f094b70f652788a24ceb11c0b586677b03679ccace6a88ae1f400204db3fa8801ba0486db29816096ce45a9527e6bbe8ff7b0c1558a78b0faf41209e540149727fe9a011a0c108a37b4e8413eac21a6113a9db938b22e25b697f8460e5bf33208f4b8c",
      "networkId": 0,
      "chainId": 0
    },
    {
      "hash": "0x4d8ce4fca155123966ff246fd1c9dd6c9e641ff7a2e14fa1fca2ff301f801016",
      "blockHash": "0xf89d0af99d37043c02d417dbb0abd4bb1e5d8f8d957965f9ab87770f8460cafb",
      "blockNumber": 121885,
      "transactionIndex": 3,
      "confirmations": null,
      "from": "0xe6A7a1d47ff21B6321162AEA7C6CB457D5476Bca",
      "gasPrice": {
        "_hex": "0xba43b7400"
      },
      "gasLimit": {
        "_hex": "0x55f0"
      },
      "to": "0x93b3437645A67059E280a3317a93c57e2f4788EA",
      "value": {
        "_hex": "0xafbc5d38d558a7c8"
      },
      "nonce": 6684,
      "data": "0x",
      "r": "0x1bb46d193f30ab8d31740611266545002b7f95c6e734c81865cd5831246a6529",
      "s": "0x33a016460f6660d82d27df7340ee21dbe43a4e3ce116817e4bc8a642c13b5b3c",
      "v": 28,
      "creates": null,
      "raw": "0xf86e821a1c850ba43b74008255f09493b3437645a67059e280a3317a93c57e2f4788ea88afbc5d38d558a7c8801ca01bb46d193f30ab8d31740611266545002b7f95c6e734c81865cd5831246a6529a033a016460f6660d82d27df7340ee21dbe43a4e3ce116817e4bc8a642c13b5b3c",
      "networkId": 0,
      "chainId": 0
    },
    {
      "hash": "0x617d543ded96203e8609a5027b516082d7c77be466df609081ba4edf0e4100b8",
      "blockHash": "0xf89d0af99d37043c02d417dbb0abd4bb1e5d8f8d957965f9ab87770f8460cafb",
      "blockNumber": 121885,
      "transactionIndex": 4,
      "confirmations": null,
      "from": "0xe6A7a1d47ff21B6321162AEA7C6CB457D5476Bca",
      "gasPrice": {
        "_hex": "0xba43b7400"
      },
      "gasLimit": {
        "_hex": "0x55f0"
      },
      "to": "0x04a2a3ee9C9ea82e1F918ecE209f8A7E6d7521E7",
      "value": {
        "_hex": "0xb1da3baf32ce2148"
      },
      "nonce": 6685,
      "data": "0x",
      "r": "0x160cd7499873a740726dcecb98963ddac3090729c3832eb96ebc1ee9351d0cc3",
      "s": "0x7d0dde91d7864184554f5fc2cc97f10a7bcccbaf6226e5b673f4859a8c1ff293",
      "v": 27,
      "creates": null,
      "raw": "0xf86e821a1d850ba43b74008255f09404a2a3ee9c9ea82e1f918ece209f8a7e6d7521e788b1da3baf32ce2148801ba0160cd7499873a740726dcecb98963ddac3090729c3832eb96ebc1ee9351d0cc3a07d0dde91d7864184554f5fc2cc97f10a7bcccbaf6226e5b673f4859a8c1ff293",
      "networkId": 0,
      "chainId": 0
    },
    {
      "hash": "0xce92dd435dbce562a86fb4d6c6858539d5666b10babb3cdc90de394e42a2448d",
      "blockHash": "0xf89d0af99d37043c02d417dbb0abd4bb1e5d8f8d957965f9ab87770f8460cafb",
      "blockNumber": 121885,
      "transactionIndex": 5,
      "confirmations": null,
      "from": "0xe6A7a1d47ff21B6321162AEA7C6CB457D5476Bca",
      "gasPrice": {
        "_hex": "0xba43b7400"
      },
      "gasLimit": {
        "_hex": "0x55f0"
      },
      "to": "0xe70361D11B44B2fBA997417D7AAa26eb69EBfef0",
      "value": {
        "_hex": "0xb21e6d8dadccd980"
      },
      "nonce": 6686,
      "data": "0x",
      "r": "0x8b9bc0e5eb1b3cf270957417e927495553af2aee0b99d00d417280ed31691f99",
      "s": "0x01f519d476c4a5993bf89802d5990189ccbab53f89490929db07378f1b47d814",
      "v": 27,
      "creates": null,
      "raw": "0xf86e821a1e850ba43b74008255f094e70361d11b44b2fba997417d7aaa26eb69ebfef088b21e6d8dadccd980801ba08b9bc0e5eb1b3cf270957417e927495553af2aee0b99d00d417280ed31691f99a001f519d476c4a5993bf89802d5990189ccbab53f89490929db07378f1b47d814",
      "networkId": 0,
      "chainId": 0
    },
    {
      "hash": "0x833e224f4f1df8afcd75e53d020e9c9511d7927743755b5858b3771e6d316668",
      "blockHash": "0xf89d0af99d37043c02d417dbb0abd4bb1e5d8f8d957965f9ab87770f8460cafb",
      "blockNumber": 121885,
      "transactionIndex": 6,
      "confirmations": null,
      "from": "0xe6A7a1d47ff21B6321162AEA7C6CB457D5476Bca",
      "gasPrice": {
        "_hex": "0xba43b7400"
      },
      "gasLimit": {
        "_hex": "0x55f0"
      },
      "to": "0xC96Bd2Aa7AcB234ecA4E38E33bF2C080e7680FA5",
      "value": {
        "_hex": "0xb41cf6cb89ee9860"
      },
      "nonce": 6687,
      "data": "0x",
      "r": "0x0483f5a3cc35f0967fdc9e66ab19e47a591fcbb928efef4a5bd6768bb342ab68",
      "s": "0x62d20733621945b0f793c83f76351acfe41b1619030f91f520f5f49a68db6b0c",
      "v": 27,
      "creates": null,
      "raw": "0xf86e821a1f850ba43b74008255f094c96bd2aa7acb234eca4e38e33bf2c080e7680fa588b41cf6cb89ee9860801ba00483f5a3cc35f0967fdc9e66ab19e47a591fcbb928efef4a5bd6768bb342ab68a062d20733621945b0f793c83f76351acfe41b1619030f91f520f5f49a68db6b0c",
      "networkId": 0,
      "chainId": 0
    },
    {
      "hash": "0x09dc482c8558aa6e9a33188d99c1136eddcba744bf5b4b0dda81ef2cc1cb5d81",
      "blockHash": "0xf89d0af99d37043c02d417dbb0abd4bb1e5d8f8d957965f9ab87770f8460cafb",
      "blockNumber": 121885,
      "transactionIndex": 7,
      "confirmations": null,
      "from": "0xe6A7a1d47ff21B6321162AEA7C6CB457D5476Bca",
      "gasPrice": {
        "_hex": "0xba43b7400"
      },
      "gasLimit": {
        "_hex": "0x55f0"
      },
      "to": "0x2bcDf5ef3BA83578A36146bFF9A3FAEF1CAf038B",
      "value": {
        "_hex": "0xb4c037c05a37cf90"
      },
      "nonce": 6688,
      "data": "0x",
      "r": "0xc8311566168a4c8ee5b3c1017dd806f38491f47f924b106611e9d3f153e86835",
      "s": "0x2b0856c17d065e9a1090b317776526d794a7ffb173018206b72b53f39cb6de35",
      "v": 27,
      "creates": null,
      "raw": "0xf86e821a20850ba43b74008255f0942bcdf5ef3ba83578a36146bff9a3faef1caf038b88b4c037c05a37cf90801ba0c8311566168a4c8ee5b3c1017dd806f38491f47f924b106611e9d3f153e86835a02b0856c17d065e9a1090b317776526d794a7ffb173018206b72b53f39cb6de35",
      "networkId": 0,
      "chainId": 0
    },
    {
      "hash": "0xf74cd1a8791cfdffe026a0e8f45c56fa63a5c38bd048bef379c911ee8881315a",
      "blockHash": "0xf89d0af99d37043c02d417dbb0abd4bb1e5d8f8d957965f9ab87770f8460cafb",
      "blockNumber": 121885,
      "transactionIndex": 8,
      "confirmations": null,
      "from": "0xe6A7a1d47ff21B6321162AEA7C6CB457D5476Bca",
      "gasPrice": {
        "_hex": "0xba43b7400"
      },
      "gasLimit": {
        "_hex": "0x55f0"
      },
      "to": "0xcCA04dde313A912347DBE3b8f78E73Ab14B51CbE",
      "value": {
        "_hex": "0xb4e42a95b8ec3e90"
      },
      "nonce": 6689,
      "data": "0x",
      "r": "0x9537de1c1f507bde57e0a5565f35947866eade938c76020f9ef4c1f4e6d673ae",
      "s": "0x7c9e2746350aca83173fe40932703661df18ba05dbf79b2b9ae48a5c4048640f",
      "v": 27,
      "creates": null,
      "raw": "0xf86e821a21850ba43b74008255f094cca04dde313a912347dbe3b8f78e73ab14b51cbe88b4e42a95b8ec3e90801ba09537de1c1f507bde57e0a5565f35947866eade938c76020f9ef4c1f4e6d673aea07c9e2746350aca83173fe40932703661df18ba05dbf79b2b9ae48a5c4048640f",
      "networkId": 0,
      "chainId": 0
    },
    {
      "hash": "0xef4ca5cd786a6ec8f19671275a4fcbfef2a7d41efa68f3ab1844469d4f45079a",
      "blockHash": "0xf89d0af99d37043c02d417dbb0abd4bb1e5d8f8d957965f9ab87770f8460cafb",
      "blockNumber": 121885,
      "transactionIndex": 9,
      "confirmations": null,
      "from": "0xe6A7a1d47ff21B6321162AEA7C6CB457D5476Bca",
      "gasPrice": {
        "_hex": "0xba43b7400"
      },
      "gasLimit": {
        "_hex": "0x55f0"
      },
      "to": "0x9B7280891dc19fd3A2e754cB9007203820650403",
      "value": {
        "_hex": "0xb6692babb4e9f628"
      },
      "nonce": 6690,
      "data": "0x",
      "r": "0x7e8d1f6c0e37fab91a07b07ea01011c8d88748f8dc84eeee16b633ffbdc6fa71",
      "s": "0x3bebb5ccef4a217ef25910a44a1d7e4cf83e0307f2d1d0b662e3277dbd4f05a4",
      "v": 27,
      "creates": null,
      "raw": "0xf86e821a22850ba43b74008255f0949b7280891dc19fd3a2e754cb900720382065040388b6692babb4e9f628801ba07e8d1f6c0e37fab91a07b07ea01011c8d88748f8dc84eeee16b633ffbdc6fa71a03bebb5ccef4a217ef25910a44a1d7e4cf83e0307f2d1d0b662e3277dbd4f05a4",
      "networkId": 0,
      "chainId": 0
    },
    {
      "hash": "0x950f66aa053daef07f33f3975703504d096f052735fa402c7253eaf7db8079bd",
      "blockHash": "0xf89d0af99d37043c02d417dbb0abd4bb1e5d8f8d957965f9ab87770f8460cafb",
      "blockNumber": 121885,
      "transactionIndex": 10,
      "confirmations": null,
      "from": "0xe6A7a1d47ff21B6321162AEA7C6CB457D5476Bca",
      "gasPrice": {
        "_hex": "0xba43b7400"
      },
      "gasLimit": {
        "_hex": "0x55f0"
      },
      "to": "0x58cAfc9A3273821ec5691840ABfc256952Df94B8",
      "value": {
        "_hex": "0xb7bc1aca26179fb0"
      },
      "nonce": 6691,
      "data": "0x",
      "r": "0x719cd7870370475da21662d89eed13b3b8f00b5c62862d25a31c86d9c0120d43",
      "s": "0x649a2149332e4e2b46aa4d44b40a288c7aa22b86baff36f59b882b2302edb6ad",
      "v": 28,
      "creates": null,
      "raw": "0xf86e821a23850ba43b74008255f09458cafc9a3273821ec5691840abfc256952df94b888b7bc1aca26179fb0801ca0719cd7870370475da21662d89eed13b3b8f00b5c62862d25a31c86d9c0120d43a0649a2149332e4e2b46aa4d44b40a288c7aa22b86baff36f59b882b2302edb6ad",
      "networkId": 0,
      "chainId": 0
    },
    {
      "hash": "0x8d9f5157f4e5860c5cff0cdb2c2c6f7fa11e73038e5c28de8d1f4c71f54527f0",
      "blockHash": "0xf89d0af99d37043c02d417dbb0abd4bb1e5d8f8d957965f9ab87770f8460cafb",
      "blockNumber": 121885,
      "transactionIndex": 11,
      "confirmations": null,
      "from": "0xe6A7a1d47ff21B6321162AEA7C6CB457D5476Bca",
      "gasPrice": {
        "_hex": "0xba43b7400"
      },
      "gasLimit": {
        "_hex": "0x55f0"
      },
      "to": "0xA338ba84d5d4734988a5Ed5CabC55ed61371e198",
      "value": {
        "_hex": "0xc2a862494d13be60"
      },
      "nonce": 6692,
      "data": "0x",
      "r": "0xa87d541f04f7326f6d98b7a4607408dc16bf9690e4ff5d13f90bf19e6d96fa5e",
      "s": "0x30c3e4f00248a1ce554d63bb924e6c4c9aa59a1bc36c4b9afa63e07a85453317",
      "v": 27,
      "creates": null,
      "raw": "0xf86e821a24850ba43b74008255f094a338ba84d5d4734988a5ed5cabc55ed61371e19888c2a862494d13be60801ba0a87d541f04f7326f6d98b7a4607408dc16bf9690e4ff5d13f90bf19e6d96fa5ea030c3e4f00248a1ce554d63bb924e6c4c9aa59a1bc36c4b9afa63e07a85453317",
      "networkId": 0,
      "chainId": 0
    },
    {
      "hash": "0xe1d214854ee326720fa9eb5e190e0e068404c9ce70b6928338710d81497fb5db",
      "blockHash": "0xf89d0af99d37043c02d417dbb0abd4bb1e5d8f8d957965f9ab87770f8460cafb",
      "blockNumber": 121885,
      "transactionIndex": 12,
      "confirmations": null,
      "from": "0xe6A7a1d47ff21B6321162AEA7C6CB457D5476Bca",
      "gasPrice": {
        "_hex": "0xba43b7400"
      },
      "gasLimit": {
        "_hex": "0x55f0"
      },
      "to": "0x785ffdDd5cE55c6DF963f345e68d3F2024E5Acb1",
      "value": {
        "_hex": "0xc806054087708ff0"
      },
      "nonce": 6693,
      "data": "0x",
      "r": "0x6a21c697cc23914d29e554d5d2fcbbad3ff92e502bdac3c5b7d14bc6dec427b3",
      "s": "0x53079e1e3047d192ce2ae5bb85110591972d70bf90a192a582eb9e62d1f62cea",
      "v": 28,
      "creates": null,
      "raw": "0xf86e821a25850ba43b74008255f094785ffddd5ce55c6df963f345e68d3f2024e5acb188c806054087708ff0801ca06a21c697cc23914d29e554d5d2fcbbad3ff92e502bdac3c5b7d14bc6dec427b3a053079e1e3047d192ce2ae5bb85110591972d70bf90a192a582eb9e62d1f62cea",
      "networkId": 0,
      "chainId": 0
    },
    {
      "hash": "0xdf7a67fc47ae89f11de84c9b2125a6dafa7d18bf5f0dda8b22c987097a781c83",
      "blockHash": "0xf89d0af99d37043c02d417dbb0abd4bb1e5d8f8d957965f9ab87770f8460cafb",
      "blockNumber": 121885,
      "transactionIndex": 13,
      "confirmations": null,
      "from": "0xe6A7a1d47ff21B6321162AEA7C6CB457D5476Bca",
      "gasPrice": {
        "_hex": "0xba43b7400"
      },
      "gasLimit": {
        "_hex": "0x55f0"
      },
      "to": "0x556ca325C21e450b2aFf86D9c8eF0Fa371971c97",
      "value": {
        "_hex": "0xcb2d8f3abe9ce920"
      },
      "nonce": 6694,
      "data": "0x",
      "r": "0xa0cc8afcd282836f4c0d0b422d2f742a7e542ac1adc726565b6b47dc7e2ff06a",
      "s": "0x40a7cd796929b1d48640f3dd6593b28dc9e3e2eea245f487ff573586b4d2796a",
      "v": 27,
      "creates": null,
      "raw": "0xf86e821a26850ba43b74008255f094556ca325c21e450b2aff86d9c8ef0fa371971c9788cb2d8f3abe9ce920801ba0a0cc8afcd282836f4c0d0b422d2f742a7e542ac1adc726565b6b47dc7e2ff06aa040a7cd796929b1d48640f3dd6593b28dc9e3e2eea245f487ff573586b4d2796a",
      "networkId": 0,
      "chainId": 0
    },
    {
      "hash": "0x77533ee97b93ce3f7109acaf3447b7f126e0e82ad3bacd7581b50ba75f964c30",
      "blockHash": "0xf89d0af99d37043c02d417dbb0abd4bb1e5d8f8d957965f9ab87770f8460cafb",
      "blockNumber": 121885,
      "transactionIndex": 14,
      "confirmations": null,
      "from": "0xe6A7a1d47ff21B6321162AEA7C6CB457D5476Bca",
      "gasPrice": {
        "_hex": "0xba43b7400"
      },
      "gasLimit": {
        "_hex": "0x55f0"
      },
      "to": "0xa6BDc31c431B8F97848c9D60cbbe9660dc450eB7",
      "value": {
        "_hex": "0xcebb6ef20e64de40"
      },
      "nonce": 6695,
      "data": "0x",
      "r": "0x96cd1eb511fc080846803be8c0349e80b3d6d1aca309040ec90b72e70837dbe5",
      "s": "0x2e89696f7558ab28bc5b5b859220e998c20058ec7cf55d7792bdc4871027c37e",
      "v": 27,
      "creates": null,
      "raw": "0xf86e821a27850ba43b74008255f094a6bdc31c431b8f97848c9d60cbbe9660dc450eb788cebb6ef20e64de40801ba096cd1eb511fc080846803be8c0349e80b3d6d1aca309040ec90b72e70837dbe5a02e89696f7558ab28bc5b5b859220e998c20058ec7cf55d7792bdc4871027c37e",
      "networkId": 0,
      "chainId": 0
    },
    {
      "hash": "0xb088b497f2093248eda65a9780441883e8a08662615596b38b14e72b38e5afa8",
      "blockHash": "0xf89d0af99d37043c02d417dbb0abd4bb1e5d8f8d957965f9ab87770f8460cafb",
      "blockNumber": 121885,
      "transactionIndex": 15,
      "confirmations": null,
      "from": "0xe6A7a1d47ff21B6321162AEA7C6CB457D5476Bca",
      "gasPrice": {
        "_hex": "0xba43b7400"
      },
      "gasLimit": {
        "_hex": "0x55f0"
      },
      "to": "0xf0c896DB24137eDA6Ec88cF1a95217F8604aE55e",
      "value": {
        "_hex": "0xcee16cbff0167790"
      },
      "nonce": 6696,
      "data": "0x",
      "r": "0x0b0609509e79ab4ee51458f69093d08dec74dce92c8c42d393968eecbc05c4a8",
      "s": "0x66808b98fa41309f982867ed7804d5b607a030e3a5d2a2045c7a5bf421f2af21",
      "v": 27,
      "creates": null,
      "raw": "0xf86e821a28850ba43b74008255f094f0c896db24137eda6ec88cf1a95217f8604ae55e88cee16cbff0167790801ba00b0609509e79ab4ee51458f69093d08dec74dce92c8c42d393968eecbc05c4a8a066808b98fa41309f982867ed7804d5b607a030e3a5d2a2045c7a5bf421f2af21",
      "networkId": 0,
      "chainId": 0
    }
  ]
}