{
  "hash": "0x07506d6a3252848c5f2714a6bf3ff222028d44a812fbc72269e9ecd10a1c6e84",
  "parentHash": "0x03943aae6b25dea7c31cb560579a861fc5cecd3714996b2a590635bfd445420c",
  "number": 68968,
  "timestamp": 1439296445,
  "nonce": "0x4897c4c0dfd20337",
  "difficulty": 2033967420517,
  "gasLimit": {
    "_hex": "0x2fefd8"
  },
  "gasUsed": {
    "_hex": "0xa410"
  },
  "miner": "0xe6A7a1d47ff21B6321162AEA7C6CB457D5476Bca",
  "extraData": "0x476574682f76312e302e312d38326566323666362f6c696e75782f676f312e34",
  "transactions": [
    {
      "hash": "0xd2390a08ef0c30b0b1ebaa1e5db9988c13f2db28ab3b6adce350266e7d9c9117",
      "blockHash": "0x07506d6a3252848c5f2714a6bf3ff222028d44a812fbc72269e9ecd10a1c6e84",
      "blockNumber": 68968,
      "transactionIndex": 0,
      "confirmations": null,
      "from": "0xe104540EE2b60C819124Ce4747FB9B46c8B68360",
      "gasPrice": {
        "_hex": "0xba43b7400"
      },
      "gasLimit": {
        "_hex": "0x5208"
      },
      "to": "0x9ABe975A69E69c24010BFE44776fae940d087B48",
      "value": {
        "_hex": "0x1072bbac261c000"
      },
      "nonce": 1,
      "data": "0x",
      "r": "0x27e3025d68f5a5599e897ebcb52bd4e2f4495b0acd12c2d0fb13f52871d450ab",
      "s": "0x1472b40f3e298f70b9b1c6790ef56903f2e4d890960f257506a60d9267a9393d",
      "v": 28,
      "creates": null,
      "raw": "0xf86c01850ba43b7400825208949abe975a69e69c24010bfe44776fae940d087b488801072bbac261c000801ca027e3025d68f5a5599e897ebcb52bd4e2f4495b0acd12c2d0fb13f52871d450aba01472b40f3e298f70b9b1c6790ef56903f2e4d890960f257506a60d9267a9393d",
      "networkId": 0,
      "chainId": 0
    },
    {
      "hash": "0xfa31ebaad24cd229547f14240a3db20c9ebfeaef376c6c7bdcbaf52f9785167e",
      "blockHash": "0x07506d6a3252848c5f2714a6bf3ff222028d44a812fbc72269e9ecd10a1c6e84",
      "blockNumber": 68968,
      "transactionIndex": 1,
      "confirmations": null,
      "from": "0x30536a7cE04af7d0A22dbd14D0B93E8659CdE621",
      "gasPrice": {
        "_hex": "0xba43b7400"
      },
      "gasLimit": {
        "_hex": "0x5208"
      },
      "to": "0x514782Ea38CFF616083231A028D932C218eB354c",
      "value": {
        "_hex": "0x1072bbac261c000"
      },
      "nonce": 1,
      "data": "0x",
      "r": "0xb72841d614e840744a28584edd182d34533b4f183f704e28d260e395b21919d8",
      "s": "0x1f3bbbd059fe487efc20c7487b8bee9a1e11d4f124896d5e4c1abf60e284b65a",
      "v": 27,
      "creates": null,
      "raw": "0xf86c01850ba43b740082520894514782ea38cff616083231a028d932c218eb354c8801072bbac261c000801ba0b72841d614e840744a28584edd182d34533b4f183f704e28d260e395b21919d8a01f3bbbd059fe487efc20c7487b8bee9a1e11d4f124896d5e4c1abf60e284b65a",
      "networkId": 0,
      "chainId": 0
    }
  ]
}