{
  "hash": "0x8119217923fd36a4958aea84bb309c6e1aa5cb5a649ea6511a37a3ff484ae253",
  "parentHash": "0xd0ad31bb9fe9cac68b54179c3a5b11c05cb91cbedec71e256fd273c76c4e1843",
  "number": 85178,
  "timestamp": 1439559552,
  "nonce": "0x4d92e6b18a331a55",
  "difficulty": 2750456392244,
  "gasLimit": {
    "_hex": "0x2fe3db"
  },
  "gasUsed": {
    "_hex": "0x5208"
  },
  "miner": "0xf8E0CA3Ed80bd541b94BEdCf259e8CF2141A9523",
  "extraData": "0x476574682f76312e302e312f77696e646f77732f676f312e342e32",
  "transactions": [
    {
      "hash": "0x9308be8008f791546d6bb7b0afe289ffe016f7b3f1aca16770f459810b55d1c8",
      "blockHash": "0x8119217923fd36a4958aea84bb309c6e1aa5cb5a649ea6511a37a3ff484ae253",
      "blockNumber": 85178,
      "transactionIndex": 0,
      "confirmations": null,
      "from": "0x417E4e2688b1Fd66d821529E46ED4F42F8B3db3d",
      "gasPrice": {
        "_hex": "0xd976db548"
      },
      "gasLimit": {
        "_hex": "0x15f90"
      },
      "to": "0x2C3B2AF7a5f5d5066a0aDb4aE3142D2c24CAD77A",
      "value": {
        "_hex": "0x2386f26fc10000"
      },
      "nonce": 0,
      "data": "0x",
      "r": "0x2a4aa29778d0f2afa2149df506b9c84def09a051f61d97188fd989a424c18083",
      "s": "0x72fbe09ec8f49a29bcc18c9637668e4eb685f59f7fdb36942a4628b3a392db34",
      "v": 28,
      "creates": null,
      "raw": "0xf86c80850d976db54883015f90942c3b2af7a5f5d5066a0adb4ae3142d2c24cad77a872386f26fc10000801ca02a4aa29778d0f2afa2149df506b9c84def09a051f61d97188fd989a424c18083a072fbe09ec8f49a29bcc18c9637668e4eb685f59f7fdb36942a4628b3a392db34",
      "networkId": 0,
      "chainId": 0
    }
  ]
}