{
  "hash": "0x58a18a6921c81c38f43603b764ece9cc93e603e97c4d837ff7810164f4511bd0",
  "parentHash": "0x860ee6abddbf4bfba0cf8add301b40322b5da5cb323f1cdefa75cb80826fff9f",
  "number": 104629,
  "timestamp": 1439872851,
  "nonce": "0x2b0e2edc75a166d1",
  "difficulty": 4361548092784,
  "gasLimit": {
    "_hex": "0x2fefd8"
  },
  "gasUsed": {
    "_hex": "0x5208"
  },
  "miner": "0xe6A7a1d47ff21B6321162AEA7C6CB457D5476Bca",
  "extraData": "0x476574682f76312e302e312d38326566323666362f6c696e75782f676f312e34",
  "transactions": [
    {
      "hash": "0x4a8399f63d43f87fd2f8da985e5de57250832b1aed499cd6d4ce060c6bdd64e0",
      "blockHash": "0x58a18a6921c81c38f43603b764ece9cc93e603e97c4d837ff7810164f4511bd0",
      "blockNumber": 104629,
      "transactionIndex": 0,
      "confirmations": null,
      "from": "0xFBb1b73C4f0BDa4f67dcA266ce6Ef42f520fBB98",
      "gasPrice": {
        "_hex": "0xcd5d0ac34"
      },
      "gasLimit": {
        "_hex": "0x5208"
      },
      "to": "0xECEF3BcAed90d05bF27b0939aAFD24e9Ca958EcB",
      "value": {
        "_hex": "0xdbd2fc137a30000"
      },
      "nonce": 105,
      "data": "0x",
      "r": "0xe6951b4bed22ee03c744874e6a7736bc70d394ad02b88c85b0408d12345b6523",
      "s": "0x408f01804233bc34879aeed0907eb7b802599903e9d246acfd041c91ce76c1dc",
      "v": 28,
      "creates": null,
      "raw": "0xf86c69850cd5d0ac3482520894ecef3bcaed90d05bf27b0939aafd24e9ca958ecb880dbd2fc137a30000801ca0e6951b4bed22ee03c744874e6a7736bc70d394ad02b88c85b0408d12345b6523a0408f01804233bc34879aeed0907eb7b802599903e9d246acfd041c91ce76c1dc",
      "networkId": 0,
      "chainId": 0
    }
  ]
}