{
  "hash": "0x06650f66633bbb801c521689be54940217599af27a67a3af6e4d1414797d7c99",
  "parentHash": "0x79919fda18f15a8b74c4a25fb7f3575df08a1f185e3af4d52802e652ac518277",
  "number": 98284,
  "timestamp": 1439770127,
  "nonce": "0x1dd389bfe20b63e2",
  "difficulty": 3872710032626,
  "gasLimit": {
    "_hex": "0x2fefd5"
  },
  "gasUsed": {
    "_hex": "0x5208"
  },
  "miner": "0x0D4EcC7d750180EBf4A9Df728B6669B5Bceb5E40",
  "extraData": "0x",
  "transactions": [
    {
      "hash": "0x6d70ca967ca3f4eb52ddc268c9627c3cb24cd9fb39cc0a6b125cb8bc5a1b77c3",
      "blockHash": "0x06650f66633bbb801c521689be54940217599af27a67a3af6e4d1414797d7c99",
      "blockNumber": 98284,
      "transactionIndex": 0,
      "confirmations": null,
      "from": "0x87898CE53471043FcCa0a2aF4E1dC6d8B3fCf607",
      "gasPrice": {
        "_hex": "0xd13829568"
      },
      "gasLimit": {
        "_hex": "0x5208"
      },
      "to": "0xBFdD9820a04283b289957956353b5F3C1F665EcF",
      "value": {
        "_hex": "0x15af1d78b58c40000"
      },
      "nonce": 42,
      "data": "0x",
      "r": "0xc14ba2f3ce920e713f07ea3a0add32a8afe5808c663ac1601f0f0adbeee7b4ac",
      "s": "0x694877626c7071a16e3643f3f7ce537708eca1741da89f6a532e8a5bfe682296",
      "v": 27,
      "creates": null,
      "raw": "0xf86d2a850d1382956882520894bfdd9820a04283b289957956353b5f3c1f665ecf89015af1d78b58c40000801ba0c14ba2f3ce920e713f07ea3a0add32a8afe5808c663ac1601f0f0adbeee7b4aca0694877626c7071a16e3643f3f7ce537708eca1741da89f6a532e8a5bfe682296",
      "networkId": 0,
      "chainId": 0
    }
  ]
}