{
  "hash": "0x14fdbe6e84f250b260a6816e72c6af5b4cb86ba85735d6ffc71a57e3f62ad210",
  "parentHash": "0x1da26ade821ef57ad16e567a778de55774d977cbb344fc20d0a8e84036976c23",
  "number": 57178,
  "timestamp": 1439098865,
  "nonce": "0x28c71bd8e559e74c",
  "difficulty": 1728633556691,
  "gasLimit": {
    "_hex": "0x2fefd8"
  },
  "gasUsed": {
    "_hex": "0x546c"
  },
  "miner": "0x02020D22dCF88f5eDd66B382D7da019F161fB7e3",
  "extraData": "0x",
  "transactions": [
    {
      "hash": "0x74fc5cde55a665b75b1a0195966718dddce851de47c96cf4d415ef2e21b55674",
      "blockHash": "0x14fdbe6e84f250b260a6816e72c6af5b4cb86ba85735d6ffc71a57e3f62ad210",
      "blockNumber": 57178,
      "transactionIndex": 0,
      "confirmations": null,
      "from": "0x58ba1569650e5bBBb21D35d3e175c0d6B0C651A9",
      "gasPrice": {
        "_hex": "0x110c8f7d8de"
      },
      "gasLimit": {
        "_hex": "0xc350"
      },
      "to": "0x2910543Af39abA0Cd09dBb2D50200b3E800A63D2",
      "value": {
        "_hex": "0xde0b6b3a7640000"
      },
      "nonce": 0,
      "data": "0x454e52383143553838",
      "r": "0xa188f5b69459e9d817e82be22cf9dc961d9fba692ecfd525a2c592ec8a9c2cc5",
      "s": "0xbfb84d48ce9be0606332ac3c95eecf9b42c42c5f9d55a26ebf3850a46d76283e",
      "v": 27,
      "creates": null,
      "raw": "0xf87680860110c8f7d8de82c350942910543af39aba0cd09dbb2d50200b3e800a63d2880de0b6b3a764000089454e523831435538381ba0a188f5b69459e9d817e82be22cf9dc961d9fba692ecfd525a2c592ec8a9c2cc5a0bfb84d48ce9be0606332ac3c95eecf9b42c42c5f9d55a26ebf3850a46d76283e",
      "networkId": 0,
      "chainId": 0
    }
  ]
}