{
  "hash": "0xbfde766908d27e027d888d90f1f5fd81349c18aeefd1d1b3486e0b7c0361a1f1",
  "parentHash": "0xa0edf52a071783b79ab8ac069ba38620ac9c84f397a9ffd839576e04e5c02006",
  "number": 69018,
  "timestamp": 1439297229,
  "nonce": "0x67e011780589c961",
  "difficulty": 2033955297164,
  "gasLimit": {
    "_hex": "0x2fefd8"
  },
  "gasUsed": {
    "_hex": "0x33450"
  },
  "miner": "0x458F183347F45a4001807728A89F31E9Da9D4A58",
  "extraData": "0x",
  "transactions": [
    {
      "hash": "0x09a905a4822692b3466775a5c658836fee6c7949c74cf4d4fec7fcba4ff9d3c1",
      "blockHash": "0xbfde766908d27e027d888d90f1f5fd81349c18aeefd1d1b3486e0b7c0361a1f1",
      "blockNumber": 69018,
      "transactionIndex": 0,
      "confirmations": null,
      "from": "0x9De8eca2d37437ef9F7B762b89e27302fB61Efda",
      "gasPrice": {
        "_hex": "0xba43b7400"
      },
      "gasLimit": {
        "_hex": "0x5208"
      },
      "to": "0xA2B09f388CB07cCce7a57734CbcDB57Fbe5126A0",
      "value": {
        "_hex": "0x1a921f4b554d000"
      },
      "nonce": 1,
      "data": "0x",
      "r": "0xeab06e49332802ae3719be5c81c8df72e4a1991ae9aa3e21f443abde93a02539",
      "s": "0x2639f058d4a82a7dfbcedd145a31eecf486788c0b955d41a4e98638786c05fce",
      "v": 28,
      "creates": null,
      "raw": "0xf86c01850ba43b740082520894a2b09f388cb07ccce7a57734cbcdb57fbe5126a08801a921f4b554d000801ca0eab06e49332802ae3719be5c81c8df72e4a1991ae9aa3e21f443abde93a02539a02639f058d4a82a7dfbcedd145a31eecf486788c0b955d41a4e98638786c05fce",
      "networkId": 0,
      "chainId": 0
    },
    {
      "hash": "0xb67f47f47ea76f0328859afec1d958d247b33b19e0301269d9d9226ca37b9644",
      "blockHash": "0xbfde766908d27e027d888d90f1f5fd81349c18aeefd1d1b3486e0b7c0361a1f1",
      "blockNumber": 69018,
      "transactionIndex": 1,
      "confirmations": null,
      "from": "0x07f60A5E6090E4EA2c7b9f0EeF580e9Bc60920A7",
      "gasPrice": {
        "_hex": "0xba43b7400"
      },
      "gasLimit": {
        "_hex": "0x5208"
      },
      "to": "0xcDaDeDD85a9112D5616252BC62BcC39F30c0723a",
      "value": {
        "_hex": "0x1a921f4b554d000"
      },
      "nonce": 1,
      "data": "0x",
      "r": "0x7e809fc264e43c8ddb1ce5aa666cc5116b1179f43a9e6264dd0515290b3b9a9f",
      "s": "0x70aa648e69582266e2fed4cee912c17bc92216f8104113de2c4cf5273fe9aef8",
      "v": 28,
      "creates": null,
      "raw": "0xf86c01850ba43b740082520894cdadedd85a9112d5616252bc62bcc39f30c0723a8801a921f4b554d000801ca07e809fc264e43c8ddb1ce5aa666cc5116b1179f43a9e6264dd0515290b3b9a9fa070aa648e69582266e2fed4cee912c17bc92216f8104113de2c4cf5273fe9aef8",
      "networkId": 0,
      "chainId": 0
    },
    {
      "hash": "0x14111c961744e8f7df032802a4211874b49611edd24951b1ca9fe7cb229ea2be",
      "blockHash": "0xbfde766908d27e027d888d90f1f5fd81349c18aeefd1d1b3486e0b7c0361a1f1",
      "blockNumber": 69018,
      "transactionIndex": 2,
      "confirmations": null,
      "from": "0x54C83F367C8eA8Abe8dAF46888443C3b93bFe4c1",
      "gasPrice": {
        "_hex": "0xba43b7400"
      },
      "gasLimit": {
        "_hex": "0x5208"
      },
      "to": "0xB0f8a25f0cE8e1359470da6341B5ce390377b3EF",
      "value": {
        "_hex": "0x1a921f4b554d000"
      },
      "nonce": 1,
      "data": "0x",
      "r": "0xef34dc6ea4b4ef3c646c72904d8046d7c86f9b537b879fddafeea747be7eeaa9",
      "s": "0x72ca7d34a7cc97ec8d0495a6429c59f3608c300f4a9fed065c32b84388ec633f",
      "v": 27,
      "creates": null,
      "raw": "0xf86c01850ba43b740082520894b0f8a25f0ce8e1359470da6341b5ce390377b3ef8801a921f4b554d000801ba0ef34dc6ea4b4ef3c646c72904d8046d7c86f9b537b879fddafeea747be7eeaa9a072ca7d34a7cc97ec8d0495a6429c59f3608c300f4a9fed065c32b84388ec633f",
      "networkId": 0,
      "chainId": 0
    },
    {
      "hash": "0x2bd055ed3e6d8aaea5629572ed4cecbb05a9bd3feb9e1b3e052727c01f3e46d2",
      "blockHash": "0xbfde766908d27e027d888d90f1f5fd81349c18aeefd1d1b3486e0b7c0361a1f1",
      "blockNumber": 69018,
      "transactionIndex": 3,
      "confirmations": null,
      "from": "0x6aB90D5d357dED5c4Aee06f2B3aA5CeeC6c7dc0A",
      "gasPrice": {
        "_hex": "0xba43b7400"
      },
      "gasLimit": {
        "_hex": "0x5208"
      },
      "to": "0x381d12209F3d12ca9b10b47EeDDb206c4e790137",
      "value": {
        "_hex": "0x1a921f4b554d000"
      },
      "nonce": 1,
      "data": "0x",
      "r": "0xfccce97016e9064f115d55197db4f8304f76d8b94a8705a9e9f84abe59233795",
      "s": "0x7f53c5e341976a85cd7402d4e4a6714e085b85acd4460375298c7029f8752408",
      "v": 27,
      "creates": null,
      "raw": "0xf86c01850ba43b740082520894381d12209f3d12ca9b10b47eeddb206c4e7901378801a921f4b554d000801ba0fccce97016e9064f115d55197db4f8304f76d8b94a8705a9e9f84abe59233795a07f53c5e341976a85cd7402d4e4a6714e085b85acd4460375298c7029f8752408",
      "networkId": 0,
      "chainId": 0
    },
    {
      "hash": "0x76900638250199ccd34f6241225878d382a36bd196c409d1859c541e37c58507",
      "blockHash": "0xbfde766908d27e027d888d90f1f5fd81349c18aeefd1d1b3486e0b7c0361a1f1",
      "blockNumber": 69018,
      "transactionIndex": 4,
      "confirmations": null,
      "from": "0xEcA50F9F6A4BFfb86d95b7C0AFFeed70b54af734",
      "gasPrice": {
        "_hex": "0xba43b7400"
      },
      "gasLimit": {
        "_hex": "0x5208"
      },
      "to": "0xECa79f6AAdbBc84f72a6A9C192841Bd28dF011eA",
      "value": {
        "_hex": "0x1a921f4b554d000"
      },
      "nonce": 1,
      "data": "0x",
      "r": "0x4e2df313a7f0d33c45c64c1b7a66c63680cdcaf97a94534c66a2db8033a94bd4",
      "s": "0x492b8c2b5d8c602352178c2197b994897b8f3f22c5ea4cabc3a8748d7b6d45d2",
      "v": 28,
      "creates": null,
      "raw": "0xf86c01850ba43b740082520894eca79f6aadbbc84f72a6a9c192841bd28df011ea8801a921f4b554d000801ca04e2df313a7f0d33c45c64c1b7a66c63680cdcaf97a94534c66a2db8033a94bd4a0492b8c2b5d8c602352178c2197b994897b8f3f22c5ea4cabc3a8748d7b6d45d2",
      "networkId": 0,
      "chainId": 0
    },
    {
      "hash": "0xec6479768135030584d5002095b76e29d6c39cbdaf40107010f3155c40091cc4",
      "blockHash": "0xbfde766908d27e027d888d90f1f5fd81349c18aeefd1d1b3486e0b7c0361a1f1",
      "blockNumber": 69018,
      "transactionIndex": 5,
      "confirmations": null,
      "from": "0xE8d87aC2C83953C4C0E3aC1034ECc8AA375E0A2B",
      "gasPrice": {
        "_hex": "0xba43b7400"
      },
      "gasLimit": {
        "_hex": "0x5208"
      },
      "to": "0x530571C67B1c96FCC8943F9809E2c33F8cfFC587",
      "value": {
        "_hex": "0x1a921f4b554d000"
      },
      "nonce": 1,
      "data": "0x",
      "r": "0x5169b76300970f24460a7aef3e827e71f3fa32d1a2f9851beb5bb7f2ad0c87a1",
      "s": "0x3380205f1f4535e332debb7529a6ecabb1b152c3c0ca95d64c535587ad215cca",
      "v": 27,
      "creates": null,
      "raw": "0xf86c01850ba43b740082520894530571c67b1c96fcc8943f9809e2c33f8cffc5878801a921f4b554d000801ba05169b76300970f24460a7aef3e827e71f3fa32d1a2f9851beb5bb7f2ad0c87a1a03380205f1f4535e332debb7529a6ecabb1b152c3c0ca95d64c535587ad215cca",
      "networkId": 0,
      "chainId": 0
    },
    {
      "hash": "0x7cc3370e71f908399c0378fc761577c7dd3cb53801f68e5a98c7c1e02cdecb1b",
      "blockHash": "0xbfde766908d27e027d888d90f1f5fd81349c18aeefd1d1b3486e0b7c0361a1f1",
      "blockNumber": 69018,
      "transactionIndex": 6,
      "confirmations": null,
      "from": "0xB5d7627B1161e85f9D081A4681D4d3159De3434a",
      "gasPrice": {
        "_hex": "0xba43b7400"
      },
      "gasLimit": {
        "_hex": "0x5208"
      },
      "to": "0x4612eD12344b7ca97814d61261bC7F539962b654",
      "value": {
        "_hex": "0x1a921f4b554d000"
      },
      "nonce": 1,
      "data": "0x",
      "r": "0xa4e079dcfe5eb75c19459e2748f2ba009242a19ae5312082aa2cf6869d84c7fb",
      "s": "0x2acb5e6a338bdff3513e21ce0c704754479300fbc5a71339234430a38e46196b",
      "v": 27,
      "creates": null,
      "raw": "0xf86c01850ba43b7400825208944612ed12344b7ca97814d61261bc7f539962b6548801a921f4b554d000801ba0a4e079dcfe5eb75c19459e2748f2ba009242a19ae5312082aa2cf6869d84c7fba02acb5e6a338bdff3513e21ce0c704754479300fbc5a71339234430a38e46196b",
      "networkId": 0,
      "chainId": 0
    },
    {
      "hash": "0x829f9b8b569b03e47243449bb14122368a6aac996e78847ec355183da6f6d3d1",
      "blockHash": "0xbfde766908d27e027d888d90f1f5fd81349c18aeefd1d1b3486e0b7c0361a1f1",
      "blockNumber": 69018,
      "transactionIndex": 7,
      "confirmations": null,
      "from": "0x410eb1483E878D298D54E58b5DeCc8d517D9A732",
      "gasPrice": {
        "_hex": "0xba43b7400"
      },
      "gasLimit": {
        "_hex": "0x5208"
      },
      "to": "0x585e19f87878b77c19BBDA8be0c976D1049F0edc",
      "value": {
        "_hex": "0x1a921f4b554d000"
      },
      "nonce": 1,
      "data": "0x",
      "r": "0x315ca613daacb004fe354684967f7d59e2ad5210ebacea02c27ab5b60e7b8705",
      "s": "0x40d0f908e78a8ec5cb5e6684616f11df5601fe8b20b0628004042407666c0ed3",
      "v": 27,
      "creates": null,
      "raw": "0xf86c01850ba43b740082520894585e19f87878b77c19bbda8be0c976d1049f0edc8801a921f4b554d000801ba0315ca613daacb004fe354684967f7d59e2ad5210ebacea02c27ab5b60e7b8705a040d0f908e78a8ec5cb5e6684616f11df5601fe8b20b0628004042407666c0ed3",
      "networkId": 0,
      "chainId": 0
    },
    {
      "hash": "0x32bb450c6872fb70bd447edc0e97681bc67da376fe14c913c602974687c347a1",
      "blockHash": "0xbfde766908d27e027d888d90f1f5fd81349c18aeefd1d1b3486e0b7c0361a1f1",
      "blockNumber": 69018,
      "transactionIndex": 8,
      "confirmations": null,
      "from": "0x0892593Ac75ce6E8E04B2748aDC2b20Ee3fFF7a7",
      "gasPrice": {
        "_hex": "0xba43b7400"
      },
      "gasLimit": {
        "_hex": "0x5208"
      },
      "to": "0xB3B53E5aB9733f9B6139ebf9287cBce491802dd3",
      "value": {
        "_hex": "0x1a921f4b554d000"
      },
      "nonce": 1,
      "data": "0x",
      "r": "0xacdada15e6c88e36a794d84b435b091295c6bfc1b03badd25a5c82671dcb3893",
      "s": "0x51d9e7cd17bdf398a2096c6c321536d82bdbda57e480897d597d890e74b10560",
      "v": 27,
      "creates": null,
      "raw": "0xf86c01850ba43b740082520894b3b53e5ab9733f9b6139ebf9287cbce491802dd38801a921f4b554d000801ba0acdada15e6c88e36a794d84b435b091295c6bfc1b03badd25a5c82671dcb3893a051d9e7cd17bdf398a2096c6c321536d82bdbda57e480897d597d890e74b10560",
      "networkId": 0,
      "chainId": 0
    },
    {
      "hash": "0xfe13d52c25e710c388e6059ce9080f60bfcf6b96257e5eaa86073c20e0bfa37d",
      "blockHash": "0xbfde766908d27e027d888d90f1f5fd81349c18aeefd1d1b3486e0b7c0361a1f1",
      "blockNumber": 69018,
      "transactionIndex": 9,
      "confirmations": null,
      "from": "0x8Bf1d6f6DD25bd727666b1fC615266e16A067a4E",
      "gasPrice": {
        "_hex": "0xba43b7400"
      },
      "gasLimit": {
        "_hex": "0x5208"
      },
      "to": "0x2f1A0cf338738fcd21351ec745029bA061b11D92",
      "value": {
        "_hex": "0x1a921f4b554d000"
      },
      "nonce": 1,
      "data": "0x",
      "r": "0x2618452417bdd0e77e2df231c35314de3c0c0a385ac2fb427aacaa92d00cf908",
      "s": "0x03e680129c4a8be00687d0065121aad1c872b8d658edaba43567a152af9ff500",
      "v": 28,
      "creates": null,
      "raw": "0xf86c01850ba43b7400825208942f1a0cf338738fcd21351ec745029ba061b11d928801a921f4b554d000801ca02618452417bdd0e77e2df231c35314de3c0c0a385ac2fb427aacaa92d00cf908a003e680129c4a8be00687d0065121aad1c872b8d658edaba43567a152af9ff500",
      "networkId": 0,
      "chainId": 0
    }
  ]
}