{
  "hash": "0x31f79fa5701ac58521d68e8df42e9a99c347247bfdb1b0bbaf84602ecaa79206",
  "parentHash": "0x1f7c13d45d489ec7f9025787b7be02b2f10d5d91afc0630783e50fea07e745a5",
  "number": 64995,
  "timestamp": 1439229654,
  "nonce": "0x70b56a58622df710",
  "difficulty": 1912574375211,
  "gasLimit": {
    "_hex": "0x2fefd8"
  },
  "gasUsed": {
    "_hex": "0x17cd8"
  },
  "miner": "0x01d9DA08cc6Fb97c0DE1B6F4C28910A0859Ed1A1",
  "extraData": "0x476574682f76312e302e312f6c696e75782f676f312e342e32",
  "transactions": [
    {
      "hash": "0x9d906c524f32c97bced1fb57961323eb651a7783f76acf84f05e4fe45307a212",
      "blockHash": "0x31f79fa5701ac58521d68e8df42e9a99c347247bfdb1b0bbaf84602ecaa79206",
      "blockNumber": 64995,
      "transactionIndex": 0,
      "confirmations": null,
      "from": "0x09b45E04f0788b7dFBe2C5c60206C36Fd17Aebe1",
      "gasPrice": {
        "_hex": "0xba43b7400"
      },
      "gasLimit": {
        "_hex": "0x15f90"
      },
      "to": "0x793AE8C1b1a160BFc07BFB0d04F85eab1A71F4f2",
      "value": {
        "_hex": "0x0"
      },
      "nonce": 0,
      "data": "0x3ba15036",
      "r": "0x66506370ba393d21519467a13cc0a80739e4011f5b2af51aeae622305d65cc05",
      "s": "0x5ff120303090163ac6d46335e34eac3774036957e3ac3c4a95f78e44a1a798d9",
      "v": 27,
      "creates": null,
      "raw": "0xf86980850ba43b740083015f9094793ae8c1b1a160bfc07bfb0d04f85eab1a71f4f280843ba150361ba066506370ba393d21519467a13cc0a80739e4011f5b2af51aeae622305d65cc05a05ff120303090163ac6d46335e34eac3774036957e3ac3c4a95f78e44a1a798d9",
      "networkId": 0,
      "chainId": 0
    },
    {
      "hash": "0xf92b119353191632eacce093356e79fac851a0a7bd89606ca14b9ff3a6b1eac5",
      "blockHash": "0x31f79fa5701ac58521d68e8df42e9a99c347247bfdb1b0bbaf84602ecaa79206",
      "blockNumber": 64995,
      "transactionIndex": 1,
      "confirmations": null,
      "from": "0x0541D801c77aab786CdcaD21C6362a55b5DC36b7",
      "gasPrice": {
        "_hex": "0xba43b7400"
      },
      "gasLimit": {
        "_hex": "0x15f90"
      },
      "to": "0x793AE8C1b1a160BFc07BFB0d04F85eab1A71F4f2",
      "value": {
        "_hex": "0x0"
      },
      "nonce": 0,
      "data": "0x3ba15036",
      "r": "0x41fed5dd376fe1d4886b8a0a73e8eedf5097afb1ab9a573767b6f0a72495c07d",
      "s": "0x402774594af6969b395743f9a472d806051c87966d729be9600d5001c2fa6e33",
      "v": 28,
      "creates": null,
      "raw": "0xf86980850ba43b740083015f9094793ae8c1b1a160bfc07bfb0d04f85eab1a71f4f280843ba150361ca041fed5dd376fe1d4886b8a0a73e8eedf5097afb1ab9a573767b6f0a72495c07da0402774594af6969b395743f9a472d806051c87966d729be9600d5001c2fa6e33",
      "networkId": 0,
      "chainId": 0
    }
  ]
}