{
  "hash": "0x907e5fa28e3cdb83a6902ee3737006a6f8557f1700295dd6d8488001b8bc3206",
  "parentHash": "0xf815e5d04064c4a23e8a4bfe3379bbcc32033b4f0aeaab1572aa22543dc925db",
  "number": 83479,
  "timestamp": 1439536014,
  "nonce": "0xadc378528019d3c8",
  "difficulty": 2433695275762,
  "gasLimit": {
    "_hex": "0x2fefd8"
  },
  "gasUsed": {
    "_hex": "0x5208"
  },
  "miner": "0xe6A7a1d47ff21B6321162AEA7C6CB457D5476Bca",
  "extraData": "0x476574682f76312e302e312d38326566323666362f6c696e75782f676f312e34",
  "transactions": [
    {
      "hash": "0xe80bf1ba6b234aa4e4781285c1b6450659e58cd33e5362db6950e08b77714be6",
      "blockHash": "0x907e5fa28e3cdb83a6902ee3737006a6f8557f1700295dd6d8488001b8bc3206",
      "blockNumber": 83479,
      "transactionIndex": 0,
      "confirmations": null,
      "from": "0x6f4250B4C1Db1B611E43cbd9a04c4138c7c0aF39",
      "gasPrice": {
        "_hex": "0x10f56038859"
      },
      "gasLimit": {
        "_hex": "0x59d8"
      },
      "to": "0xF3786E61962AB4fBD64819cCf11A8Bb563f9EC47",
      "value": {
        "_hex": "0xb1a2bc2ec50000"
      },
      "nonce": 2,
      "data": "0x",
      "r": "0x459f8114f72053115833a27b34650843755ec0d1378c365bad6f73d020c73daf",
      "s": "0x2865f0d9a5caa0f1ef394d61e13967e3e96ed8f24ab78de557403553486898b2",
      "v": 27,
      "creates": null,
      "raw": "0xf86c0286010f560388598259d894f3786e61962ab4fbd64819ccf11a8bb563f9ec4787b1a2bc2ec50000801ba0459f8114f72053115833a27b34650843755ec0d1378c365bad6f73d020c73dafa02865f0d9a5caa0f1ef394d61e13967e3e96ed8f24ab78de557403553486898b2",
      "networkId": 0,
      "chainId": 0
    }
  ]
}