{
  "hash": "0x9aaee68111b21386cfaec76e78f711cd4dcd20bcb47eef761a9fee0a0c6c6ff7",
  "parentHash": "0x4a67310fbc5d70cbc34ddf95f66f839d8e1eca2129af469c997a155bdf3f2bd5",
  "number": 84076,
  "timestamp": 1439544784,
  "nonce": "0xebf163749e73f1ee",
  "difficulty": 2490015273765,
  "gasLimit": {
    "_hex": "0x2fefd8"
  },
  "gasUsed": {
    "_hex": "0x5208"
  },
  "miner": "0x0193d941b50d91BE6567c7eE1C0Fe7AF498b4137",
  "extraData": "0x4a5ace9e4e",
  "transactions": [
    {
      "hash": "0xf5eb6e111182bb56179d5f56ebb61d47fbe0371aa049d7cff8c11f627341d2b1",
      "blockHash": "0x9aaee68111b21386cfaec76e78f711cd4dcd20bcb47eef761a9fee0a0c6c6ff7",
      "blockNumber": 84076,
      "transactionIndex": 0,
      "confirmations": null,
      "from": "0x32Be343B94f860124dC4fEe278FDCBD38C102D88",
      "gasPrice": {
        "_hex": "0xd71aed725"
      },
      "gasLimit": {
        "_hex": "0x5208"
      },
      "to": "0xa4F5576fAE9f2e1321EC6eB1EADFf7f7a4fc42ba",
      "value": {
        "_hex": "0x176c23db6916b8000"
      },
      "nonce": 675,
      "data": "0x",
      "r": "0x0ad1cca97df0d80395bc58e0aa8ae4097023b054c6cf86eff0a9f22203947298",
      "s": "0x6b120418fa6a4c3dbb947a163d79b2a1c698621349049986fe84de0dc523134f",
      "v": 27,
      "creates": null,
      "raw": "0xf86f8202a3850d71aed72582520894a4f5576fae9f2e1321ec6eb1eadff7f7a4fc42ba890176c23db6916b8000801ba00ad1cca97df0d80395bc58e0aa8ae4097023b054c6cf86eff0a9f22203947298a06b120418fa6a4c3dbb947a163d79b2a1c698621349049986fe84de0dc523134f",
      "networkId": 0,
      "chainId": 0
    }
  ]
}