{
  "hash": "0x54e7b14f994247cecf80298caed3d0217f5c3ff753c6e8a81229f4f554d8abb4",
  "parentHash": "0x28821dc22df82fb5e4d54c35876620b70563dfed01e48014886a3987e7bf7cab",
  "number": 79640,
  "timestamp": 1439472999,
  "nonce": "0xf9c53efd648f349b",
  "difficulty": 2338105741728,
  "gasLimit": {
    "_hex": "0x2fefd8"
  },
  "gasUsed": {
    "_hex": "0xa410"
  },
  "miner": "0xe6A7a1d47ff21B6321162AEA7C6CB457D5476Bca",
  "extraData": "0x476574682f76312e302e312d38326566323666362f6c696e75782f676f312e34",
  "transactions": [
    {
      "hash": "0x87e6d65e65e33aaadf81187b8185f38bf7f9db3f3a8dd95f9b9969995a537a5a",
      "blockHash": "0x54e7b14f994247cecf80298caed3d0217f5c3ff753c6e8a81229f4f554d8abb4",
      "blockNumber": 79640,
      "transactionIndex": 0,
      "confirmations": null,
      "from": "0x2910543Af39abA0Cd09dBb2D50200b3E800A63D2",
      "gasPrice": {
        "_hex": "0xdddcd5ede"
      },
      "gasLimit": {
        "_hex": "0x5208"
      },
      "to": "0x5a0f0935E8E5591B2f9f2d55f29C626B50292088",
      "value": {
        "_hex": "0x56bb59ab42b2f8000"
      },
      "nonce": 364,
      "data": "0x",
      "r": "0x2bfcc2f44bbb74f7e3f6a63efeaf4e45040a023d4450adfa784ae01dcaba0d53",
      "s": "0x6d148128cd69e5fa09ee21c91cd25ca114eb6f9763ba3bbed5c470c1f7494b74",
      "v": 28,
      "creates": null,
      "raw": "0xf86f82016c850dddcd5ede825208945a0f0935e8e5591b2f9f2d55f29c626b5029208889056bb59ab42b2f8000801ca02bfcc2f44bbb74f7e3f6a63efeaf4e45040a023d4450adfa784ae01dcaba0d53a06d148128cd69e5fa09ee21c91cd25ca114eb6f9763ba3bbed5c470c1f7494b74",
      "networkId": 0,
      "chainId": 0
    },
    {
      "hash": "0xd6f0741cbf324e8d3d8bc32cd74cdb48a243045fc4cca9128318ee3097611229",
      "blockHash": "0x54e7b14f994247cecf80298caed3d0217f5c3ff753c6e8a81229f4f554d8abb4",
      "blockNumber": 79640,
      "transactionIndex": 1,
      "confirmations": null,
      "from": "0xa6BDc31c431B8F97848c9D60cbbe9660dc450eB7",
      "gasPrice": {
        "_hex": "0xd4dc0ab42"
      },
      "gasLimit": {
        "_hex": "0x5208"
      },
      "to": "0x32Be343B94f860124dC4fEe278FDCBD38C102D88",
      "value": {
        "_hex": "0x455f4e2dcb8c3c00"
      },
      "nonce": 37,
      "data": "0x",
      "r": "0xf62da170d40251c2063c5c3d4b691599118e74e87b3b859971aa4a201d4c74c2",
      "s": "0x0473323e1252ec5a93fa227a9dd6233cb09fa275e91eba40f6470c923fc07eac",
      "v": 28,
      "creates": null,
      "raw": "0xf86c25850d4dc0ab428252089432be343b94f860124dc4fee278fdcbd38c102d8888455f4e2dcb8c3c00801ca0f62da170d40251c2063c5c3d4b691599118e74e87b3b859971aa4a201d4c74c2a00473323e1252ec5a93fa227a9dd6233cb09fa275e91eba40f6470c923fc07eac",
      "networkId": 0,
      "chainId": 0
    }
  ]
}