{
  "hash": "0x78ae6b37047edef235be815de86c18fb75535d98927d9a6c31b6fe4733ccfa79",
  "parentHash": "0x51541039481c74197a86fc9f1c371162fdc4c09b5ea045f57b829e0f70efc4da",
  "number": 52057,
  "timestamp": 1439015358,
  "nonce": "0x410a7534ad65662c",
  "difficulty": 1564934627363,
  "gasLimit": {
    "_hex": "0xfec22"
  },
  "gasUsed": {
    "_hex": "0x5208"
  },
  "miner": "0x36a3706566A8f9b27e7d604f4702900Acd31f32E",
  "extraData": "0x476574682f76312e302e312f6c696e75782f676f312e342e32",
  "transactions": [
    {
      "hash": "0x2f9afcc2404dac1497350c409126f81415797d1948953ed2b953a436a6ed0c3f",
      "blockHash": "0x78ae6b37047edef235be815de86c18fb75535d98927d9a6c31b6fe4733ccfa79",
      "blockNumber": 52057,
      "transactionIndex": 0,
      "confirmations": null,
      "from": "0x9746c7e1ef2bd21FF3997fa467593a89cb852BD0",
      "gasPrice": {
        "_hex": "0xced1f7111"
      },
      "gasLimit": {
        "_hex": "0x5208"
      },
      "to": "0xB0bF4A71F730782368Ef660FE6D298F432F95450",
      "value": {
        "_hex": "0x1b36a6444a3e180000"
      },
      "nonce": 5,
      "data": "0x",
      "r": "0x30a80d6e30039a6e2f93d90fde25a3c54fcf71ba52f0a9ba2d9c07442ad16c76",
      "s": "0x3db75a8585748a4fee0de337fcb405fe58e72c47579fd49e1818cc5ba7a11234",
      "v": 28,
      "creates": null,
      "raw": "0xf86d05850ced1f711182520894b0bf4a71f730782368ef660fe6d298f432f95450891b36a6444a3e180000801ca030a80d6e30039a6e2f93d90fde25a3c54fcf71ba52f0a9ba2d9c07442ad16c76a03db75a8585748a4fee0de337fcb405fe58e72c47579fd49e1818cc5ba7a11234",
      "networkId": 0,
      "chainId": 0
    }
  ]
}