{
  "hash": "0xf9a47257284c51352d775c19c5c88bd46c1a139a9dc781865fa720d7ae00a4eb",
  "parentHash": "0x4c2bba462aa26e5e5d049670b9f0c67dacefdde013d38ec81d171e08141081ae",
  "number": 64542,
  "timestamp": 1439222520,
  "nonce": "0x47f4cf79182d01e1",
  "difficulty": 1880268022200,
  "gasLimit": {
    "_hex": "0x2fefd8"
  },
  "gasUsed": {
    "_hex": "0x23b44"
  },
  "miner": "0x88D74a59454F6cF3B51ef6b9136AFb6b9D405A88",
  "extraData": "0x476574682f76312e302e312d37666266393930632f6c696e75782f676f312e34",
  "transactions": [
    {
      "hash": "0x41910b5c1a172358344989d327d53959e7dc6a75c1f526d162ea9141fbba2272",
      "blockHash": "0xf9a47257284c51352d775c19c5c88bd46c1a139a9dc781865fa720d7ae00a4eb",
      "blockNumber": 64542,
      "transactionIndex": 0,
      "confirmations": null,
      "from": "0x7e26A2908c0D194b846982c402445E44011629a0",
      "gasPrice": {
        "_hex": "0xba43b7400"
      },
      "gasLimit": {
        "_hex": "0x15f90"
      },
      "to": "0x793AE8C1b1a160BFc07BFB0d04F85eab1A71F4f2",
      "value": {
        "_hex": "0x0"
      },
      "nonce": 0,
      "data": "0x3ba15036",
      "r": "0x4fb231bb9e1c1a262f0f98915affeac9aefa400d093248d8a92a0fed330d9da7",
      "s": "0x0e1c24be85e38a2872cdaed488a7c948ea3a49d836ac8eadf91686e6f6cef02c",
      "v": 27,
      "creates": null,
      "raw": "0xf86980850ba43b740083015f9094793ae8c1b1a160bfc07bfb0d04f85eab1a71f4f280843ba150361ba04fb231bb9e1c1a262f0f98915affeac9aefa400d093248d8a92a0fed330d9da7a00e1c24be85e38a2872cdaed488a7c948ea3a49d836ac8eadf91686e6f6cef02c",
      "networkId": 0,
      "chainId": 0
    },
    {
      "hash": "0x60d7a67dc5c86b06cd04ae65f1536d7b2dd4ac053a82b91932ac7cfd93c03575",
      "blockHash": "0xf9a47257284c51352d775c19c5c88bd46c1a139a9dc781865fa720d7ae00a4eb",
      "blockNumber": 64542,
      "transactionIndex": 1,
      "confirmations": null,
      "from": "0x59f2b76930cC7012f4B8C13622c6b2CDa157d9AF",
      "gasPrice": {
        "_hex": "0xba43b7400"
      },
      "gasLimit": {
        "_hex": "0x15f90"
      },
      "to": "0x793AE8C1b1a160BFc07BFB0d04F85eab1A71F4f2",
      "value": {
        "_hex": "0x0"
      },
      "nonce": 0,
      "data": "0x3ba15036",
      "r": "0x4a849452421eed57ed9993668f158198dee32ac87df9d9d674c9df7bc85b2409",
      "s": "0x5dca7cfe8e1e6f41c090e2d7387d623fec8d486739f0f845ed809b5b67c429db",
      "v": 28,
      "creates": null,
      "raw": "0xf86980850ba43b740083015f9094793ae8c1b1a160bfc07bfb0d04f85eab1a71f4f280843ba150361ca04a849452421eed57ed9993668f158198dee32ac87df9d9d674c9df7bc85b2409a05dca7cfe8e1e6f41c090e2d7387d623fec8d486739f0f845ed809b5b67c429db",
      "networkId": 0,
      "chainId": 0
    },
    {
      "hash": "0x409145dbc547a1c0a6ce660b69d5cae12b64908d051f27c4c6c89e1d5e028dc0",
      "blockHash": "0xf9a47257284c51352d775c19c5c88bd46c1a139a9dc781865fa720d7ae00a4eb",
      "blockNumber": 64542,
      "transactionIndex": 2,
      "confirmations": null,
      "from": "0x1D5c60C025F0F56B3bc0aFbc2BA575912fcaF7Cc",
      "gasPrice": {
        "_hex": "0xba43b7400"
      },
      "gasLimit": {
        "_hex": "0x15f90"
      },
      "to": "0x793AE8C1b1a160BFc07BFB0d04F85eab1A71F4f2",
      "value": {
        "_hex": "0x0"
      },
      "nonce": 0,
      "data": "0x3ba15036",
      "r": "0xd5ddffc72eca1fdf698e9d9ccd35a48c1a03d2901e4bb7577b2e4fc7d31e0b84",
      "s": "0x1aa05d008c466332fe1d97f59376444d480831044f99c444150b8bcb66bf6453",
      "v": 27,
      "creates": null,
      "raw": "0xf86980850ba43b740083015f9094793ae8c1b1a160bfc07bfb0d04f85eab1a71f4f280843ba150361ba0d5ddffc72eca1fdf698e9d9ccd35a48c1a03d2901e4bb7577b2e4fc7d31e0b84a01aa05d008c466332fe1d97f59376444d480831044f99c444150b8bcb66bf6453",
      "networkId": 0,
      "chainId": 0
    }
  ]
}