{
  "hash": "0xe9ccddd125a53b69c7e68d06e3e39cbfb0813fbd658e655a8767a49bddff1277",
  "parentHash": "0xfbe8691e16a1c29b03c896f40516bcb0be0936d706e92d52a919c6e1c10c995c",
  "number": 108075,
  "timestamp": 1439933653,
  "nonce": "0x5e79c4a8ca4c0503",
  "difficulty": 4385377195860,
  "gasLimit": {
    "_hex": "0x2fefd8"
  },
  "gasUsed": {
    "_hex": "0x14a84"
  },
  "miner": "0x33b01a7fe4A1a5F774Bb73f89A4eF15a6Ffe1141",
  "extraData": "0x476574682f76312e302e312f6c696e75782f676f312e342e32",
  "transactions": [
    {
      "hash": "0x52262584e40867a52e753493b9e92f6a0f7e9326a1fd1462143c558e06578da2",
      "blockHash": "0xe9ccddd125a53b69c7e68d06e3e39cbfb0813fbd658e655a8767a49bddff1277",
      "blockNumber": 108075,
      "transactionIndex": 0,
      "confirmations": null,
      "from": "0x9EEF442d291A447d74c5d253c49Ef324eAc1d8f0",
      "gasPrice": {
        "_hex": "0x110c8f7d8de"
      },
      "gasLimit": {
        "_hex": "0xc350"
      },
      "to": "0x2910543Af39abA0Cd09dBb2D50200b3E800A63D2",
      "value": {
        "_hex": "0xa688906bd8b000000"
      },
      "nonce": 7,
      "data": "0x454e424e434e524547",
      "r": "0x5eb39a17987d5d4be7cfc8bf26095a5f7aa404cb2a913e6657d0c58fbacb8347",
      "s": "0xb69b7758da8a827fa56ecf53e302c90ef6efe6a6607b931fb4e146856072c8d4",
      "v": 28,
      "creates": null,
      "raw": "0xf87707860110c8f7d8de82c350942910543af39aba0cd09dbb2d50200b3e800a63d2890a688906bd8b00000089454e424e434e5245471ca05eb39a17987d5d4be7cfc8bf26095a5f7aa404cb2a913e6657d0c58fbacb8347a0b69b7758da8a827fa56ecf53e302c90ef6efe6a6607b931fb4e146856072c8d4",
      "networkId": 0,
      "chainId": 0
    },
    {
      "hash": "0x8186549d4862c8bd644b19c7cc91b4d89e0eb88e133a166cb53f239c1b777030",
      "blockHash": "0xe9ccddd125a53b69c7e68d06e3e39cbfb0813fbd658e655a8767a49bddff1277",
      "blockNumber": 108075,
      "transactionIndex": 1,
      "confirmations": null,
      "from": "0x2910543Af39abA0Cd09dBb2D50200b3E800A63D2",
      "gasPrice": {
        "_hex": "0xdb6da49d9"
      },
      "gasLimit": {
        "_hex": "0x5208"
      },
      "to": "0xC5421FF9a6C1dfE6fE5BE19FA1322E70b77c8cb1",
      "value": {
        "_hex": "0x17508f1956a8000"
      },
      "nonce": 1062,
      "data": "0x",
      "r": "0xb98cc2f30e025b1688a9e7331f1fab3b3366c2fb89c81efee114028704a72e23",
      "s": "0x6ddd69755f941272adf83c56d9e75dedcb16f3bf10a71b4a028cc8d9b0bda48b",
      "v": 28,
      "creates": null,
      "raw": "0xf86e820426850db6da49d982520894c5421ff9a6c1dfe6fe5be19fa1322e70b77c8cb188017508f1956a8000801ca0b98cc2f30e025b1688a9e7331f1fab3b3366c2fb89c81efee114028704a72e23a06ddd69755f941272adf83c56d9e75dedcb16f3bf10a71b4a028cc8d9b0bda48b",
      "networkId": 0,
      "chainId": 0
    },
    {
      "hash": "0x1d0e91975b0c4b965cbb5294d1eb1dae82bcddbe2b28e2f761c35f2a90c41fb9",
      "blockHash": "0xe9ccddd125a53b69c7e68d06e3e39cbfb0813fbd658e655a8767a49bddff1277",
      "blockNumber": 108075,
      "transactionIndex": 2,
      "confirmations": null,
      "from": "0x10c4712a317A10F60fE9347b199400d6BaA89558",
      "gasPrice": {
        "_hex": "0xd5d666555"
      },
      "gasLimit": {
        "_hex": "0x15f90"
      },
      "to": "0x5465B1c380c9D2446965E503EB731F08A30ecD25",
      "value": {
        "_hex": "0xde0b6b3a7640000"
      },
      "nonce": 7,
      "data": "0x",
      "r": "0xf26bbc6401b32354f2cf86b9a73364be204aecd9269e614537e10e4e24d82aea",
      "s": "0x53e5aa323e462890af1592c6bc20d2492e15c0bce1b3681e9bb3194b8b0d5713",
      "v": 28,
      "creates": null,
      "raw": "0xf86d07850d5d66655583015f90945465b1c380c9d2446965e503eb731f08a30ecd25880de0b6b3a7640000801ca0f26bbc6401b32354f2cf86b9a73364be204aecd9269e614537e10e4e24d82aeaa053e5aa323e462890af1592c6bc20d2492e15c0bce1b3681e9bb3194b8b0d5713",
      "networkId": 0,
      "chainId": 0
    },
    {
      "hash": "0xb7457e53f0f68b25d7f7be665fe4c710e120a55cb5340858ae8dedb9e621f3ef",
      "blockHash": "0xe9ccddd125a53b69c7e68d06e3e39cbfb0813fbd658e655a8767a49bddff1277",
      "blockNumber": 108075,
      "transactionIndex": 3,
      "confirmations": null,
      "from": "0xFBb1b73C4f0BDa4f67dcA266ce6Ef42f520fBB98",
      "gasPrice": {
        "_hex": "0xce4785352"
      },
      "gasLimit": {
        "_hex": "0x5208"
      },
      "to": "0x2Ba293248CEDDE748A4b083fb63829d20D32607d",
      "value": {
        "_hex": "0xa61529fefffa800"
      },
      "nonce": 129,
      "data": "0x",
      "r": "0x5400a6c8779b1963f9fd6bbe0fb79277bf529dfec0cd5c624a3db2d35a67e84e",
      "s": "0x64911687f3d3b98237c70daf4dd803f9d595289c28f10ae60839b453522adc9e",
      "v": 28,
      "creates": null,
      "raw": "0xf86d8181850ce4785352825208942ba293248cedde748a4b083fb63829d20d32607d880a61529fefffa800801ca05400a6c8779b1963f9fd6bbe0fb79277bf529dfec0cd5c624a3db2d35a67e84ea064911687f3d3b98237c70daf4dd803f9d595289c28f10ae60839b453522adc9e",
      "networkId": 0,
      "chainId": 0
    }
  ]
}