{
  "hash": "0x50a915fa068142d94fa20e0e49135015724b93802beec48c702ea4d8f4c66a4d",
  "parentHash": "0x0d699319031f1a6c6b187d486adca0a077038c326f8bc3ccb1eab702aac86b50",
  "number": 69536,
  "timestamp": 1439305588,
  "nonce": "0x456d84b1addaf9ec",
  "difficulty": 2069896685323,
  "gasLimit": {
    "_hex": "0x2fefd8"
  },
  "gasUsed": {
    "_hex": "0x5208"
  },
  "miner": "0x39A1BB80a741bF5EC39FB9BE59408Fa0F418fFBf",
  "extraData": "0x476574682f76312e302e312f77696e646f77732f676f312e342e32",
  "transactions": [
    {
      "hash": "0x547fa97d5be04fc52200b8f8d4f282cc266210abf6c293156394fe6fe150b38c",
      "blockHash": "0x50a915fa068142d94fa20e0e49135015724b93802beec48c702ea4d8f4c66a4d",
      "blockNumber": 69536,
      "transactionIndex": 0,
      "confirmations": null,
      "from": "0x03B35D960c861Fe987C50380d76db9D6Ae1fa510",
      "gasPrice": {
        "_hex": "0xd22489314"
      },
      "gasLimit": {
        "_hex": "0x15f90"
      },
      "to": "0x1B636B7A496f044d7359596e353A104616436F6b",
      "value": {
        "_hex": "0x2769b4f3fa1c0000"
      },
      "nonce": 7,
      "data": "0x",
      "r": "0x516a4dbe64c5959d7e651cde8c2bd8b165d9d595399e0c6c58ee885d95ee0143",
      "s": "0x3be75a4f92ed2e9a12b3ea76889e9facae465d2d2b09e300b5373415219371ce",
      "v": 28,
      "creates": null,
      "raw": "0xf86d07850d2248931483015f90941b636b7a496f044d7359596e353a104616436f6b882769b4f3fa1c0000801ca0516a4dbe64c5959d7e651cde8c2bd8b165d9d595399e0c6c58ee885d95ee0143a03be75a4f92ed2e9a12b3ea76889e9facae465d2d2b09e300b5373415219371ce",
      "networkId": 0,
      "chainId": 0
    }
  ]
}