{
  "hash": "0xe72b34f9ff4c67d56e3982ed0c2e10c20bea23992942fa8da44f195018518d1d",
  "parentHash": "0xcedea6e04dfec4b0ef0dc0146fd93f091f046d5da4cc688460a6121fbba946bc",
  "number": 120246,
  "timestamp": 1440156720,
  "nonce": "0x077e8eb8c2dd6aa1",
  "difficulty": 4411209719274,
  "gasLimit": {
    "_hex": "0x2fefd8"
  },
  "gasUsed": {
    "_hex": "0x5208"
  },
  "miner": "0x17B719A685fC6C0002798e7f8151D0E2E83B7497",
  "extraData": "0x",
  "transactions": [
    {
      "hash": "0x6d9324d7a7ae1baea85894653eadd32702db5cd1a42e1e8852f642a7f833fc67",
      "blockHash": "0xe72b34f9ff4c67d56e3982ed0c2e10c20bea23992942fa8da44f195018518d1d",
      "blockNumber": 120246,
      "transactionIndex": 0,
      "confirmations": null,
      "from": "0x8BeF58cf6D5f4fdE02e940a20D56b052F89Cf42f",
      "gasPrice": {
        "_hex": "0x9184e72a000"
      },
      "gasLimit": {
        "_hex": "0x985f6"
      },
      "to": "0xFAe95941f26f565646Cc5bF443AfFDe60868f17e",
      "value": {
        "_hex": "0xde0b6b3a7640000"
      },
      "nonce": 2,
      "data": "0x",
      "r": "0x91854efae09d60535d7da4308a64f0dd03a5a48a6739147a5da2f33f31ded0d3",
      "s": "0x7c3d498d719d23bb76d8c2f0528d6815c8dbb98929d04e044e3fe564cf9d1303",
      "v": 27,
      "creates": null,
      "raw": "0xf86e028609184e72a000830985f694fae95941f26f565646cc5bf443affde60868f17e880de0b6b3a7640000801ba091854efae09d60535d7da4308a64f0dd03a5a48a6739147a5da2f33f31ded0d3a07c3d498d719d23bb76d8c2f0528d6815c8dbb98929d04e044e3fe564cf9d1303",
      "networkId": 0,
      "chainId": 0
    }
  ]
}