{
  "hash": "0x5608711354ccc53c9abb9caebd13998c01f239b9a4f59282b2dbbdf00c9a1b92",
  "parentHash": "0x718e6f256c7994860f60211c68c8f9f094a2d94c37654914a0033a9e47266ce9",
  "number": 85028,
  "timestamp": 1439557556,
  "nonce": "0x6134098532751567",
  "difficulty": 2715807759960,
  "gasLimit": {
    "_hex": "0x2fefd8"
  },
  "gasUsed": {
    "_hex": "0x5208"
  },
  "miner": "0x88D74a59454F6cF3B51ef6b9136AFb6b9D405A88",
  "extraData": "0x476574682f76312e302e312d38326566323666362f6c696e75782f676f312e34",
  "transactions": [
    {
      "hash": "0x6bba4cd3898b6729c86ca6cf30d118e62a8e69b5c6cffab39fdfb56caea9a794",
      "blockHash": "0x5608711354ccc53c9abb9caebd13998c01f239b9a4f59282b2dbbdf00c9a1b92",
      "blockNumber": 85028,
      "transactionIndex": 0,
      "confirmations": null,
      "from": "0x6De181Fc4C140FA31F196e5393516c49EEeBdAd3",
      "gasPrice": {
        "_hex": "0xdf638cc7a"
      },
      "gasLimit": {
        "_hex": "0x5208"
      },
      "to": "0x32Be343B94f860124dC4fEe278FDCBD38C102D88",
      "value": {
        "_hex": "0x19d05f3eee9ea40000"
      },
      "nonce": 11,
      "data": "0x",
      "r": "0x6f29d5b640d1c94849aad8c32efe112c52e672725e3a39aa5db7106b165da2b6",
      "s": "0x2c29984ff587f64ae87f19d43f308afcff1828b4b7504b23b526930e5f57c457",
      "v": 27,
      "creates": null,
      "raw": "0xf86d0b850df638cc7a8252089432be343b94f860124dc4fee278fdcbd38c102d888919d05f3eee9ea40000801ba06f29d5b640d1c94849aad8c32efe112c52e672725e3a39aa5db7106b165da2b6a02c29984ff587f64ae87f19d43f308afcff1828b4b7504b23b526930e5f57c457",
      "networkId": 0,
      "chainId": 0
    }
  ]
}