{
  "hash": "0xd65ffedbce7cbf10711c1c6e811eddbf11689f2efe75af68255035f780af315e",
  "parentHash": "0x287eea4e36ab63fdf887b2023655a7f50629933dbc80d1f7a79cb4e08bf51154",
  "number": 115095,
  "timestamp": 1440051383,
  "nonce": "0x102d0ef68c26e2b0",
  "difficulty": 4538493120527,
  "gasLimit": {
    "_hex": "0x2fefd8"
  },
  "gasUsed": {
    "_hex": "0x5208"
  },
  "miner": "0xe6A7a1d47ff21B6321162AEA7C6CB457D5476Bca",
  "extraData": "0x476574682f76312e302e312d38326566323666362f6c696e75782f676f312e34",
  "transactions": [
    {
      "hash": "0x5ab948efff8eedc841c74931b1af8289c1e2fd7276e8f5db4ef2ab9408d57b33",
      "blockHash": "0xd65ffedbce7cbf10711c1c6e811eddbf11689f2efe75af68255035f780af315e",
      "blockNumber": 115095,
      "transactionIndex": 0,
      "confirmations": null,
      "from": "0xa9f5E7bf6Cbf6fEc55B30850Eb492b47A376d050",
      "gasPrice": {
        "_hex": "0xda9bfd041"
      },
      "gasLimit": {
        "_hex": "0x5208"
      },
      "to": "0x32Be343B94f860124dC4fEe278FDCBD38C102D88",
      "value": {
        "_hex": "0x29a1de0e332daa000"
      },
      "nonce": 31,
      "data": "0x",
      "r": "0x90c593c6215a1016035984d98fb04348e723a40818fcd551a48801644eeb8df5",
      "s": "0x20b576c1e887d80cb0acf885a3f1d8f7d9f5e46ac8b0f56fd81d1f70d1038488",
      "v": 27,
      "creates": null,
      "raw": "0xf86d1f850da9bfd0418252089432be343b94f860124dc4fee278fdcbd38c102d8889029a1de0e332daa000801ba090c593c6215a1016035984d98fb04348e723a40818fcd551a48801644eeb8df5a020b576c1e887d80cb0acf885a3f1d8f7d9f5e46ac8b0f56fd81d1f70d1038488",
      "networkId": 0,
      "chainId": 0
    }
  ]
}