{
  "hash": "0x55cbaaf815a1c054ade44a02224057f545f2a61303e7d9afd6154f14bab05110",
  "parentHash": "0xaeb0a1678e51b3aa3cd7da72ac989db536207e1a88f7921b2c709ef6ea39201b",
  "number": 115322,
  "timestamp": 1440055200,
  "nonce": "0xd3f6166475f9e93d",
  "difficulty": 4558358206525,
  "gasLimit": {
    "_hex": "0x2fefd8"
  },
  "gasUsed": {
    "_hex": "0x14820"
  },
  "miner": "0x7366ADF97960d404c38D975e1A8786bEb14B6507",
  "extraData": "0x476574682f76312e302e312f77696e646f77732f676f312e342e32",
  "transactions": [
    {
      "hash": "0x79155ad9da82284232a6a02ce003303dfb4a9b9504e61487f39cbacc3e584a53",
      "blockHash": "0x55cbaaf815a1c054ade44a02224057f545f2a61303e7d9afd6154f14bab05110",
      "blockNumber": 115322,
      "transactionIndex": 0,
      "confirmations": null,
      "from": "0xe7523F78ae9eDb81dC7B2A9ca718Ba3776C14f2e",
      "gasPrice": {
        "_hex": "0xde669ba1a"
      },
      "gasLimit": {
        "_hex": "0x5208"
      },
      "to": "0x32Be343B94f860124dC4fEe278FDCBD38C102D88",
      "value": {
        "_hex": "0x9275179bdc899800"
      },
      "nonce": 10,
      "data": "0x",
      "r": "0xa73c42a4d9fbfa1e0b21872ca27b5fb4bfec7b78175eceefc5e9b963e1b9a4c5",
      "s": "0x02a91f8367b392a0820271422fe9cb99acdcafecb70ae14ce8124b13da4c4b13",
      "v": 28,
      "creates": null,
      "raw": "0xf86c0a850de669ba1a8252089432be343b94f860124dc4fee278fdcbd38c102d88889275179bdc899800801ca0a73c42a4d9fbfa1e0b21872ca27b5fb4bfec7b78175eceefc5e9b963e1b9a4c5a002a91f8367b392a0820271422fe9cb99acdcafecb70ae14ce8124b13da4c4b13",
      "networkId": 0,
      "chainId": 0
    },
    {
      "hash": "0xc025cc253679196a8377febdfac19babd0ad9fe1e6179f8f8d9062e66676c129",
      "blockHash": "0x55cbaaf815a1c054ade44a02224057f545f2a61303e7d9afd6154f14bab05110",
      "blockNumber": 115322,
      "transactionIndex": 1,
      "confirmations": null,
      "from": "0xc0920452d99591a4e8b190632c52754c72F73328",
      "gasPrice": {
        "_hex": "0xde669ba1a"
      },
      "gasLimit": {
        "_hex": "0x5208"
      },
      "to": "0x32Be343B94f860124dC4fEe278FDCBD38C102D88",
      "value": {
        "_hex": "0x12cf51cc8eeec7000"
      },
      "nonce": 12,
      "data": "0x",
      "r": "0x9f43dcf4b93f3bbc22dee4d7d05e4079df19e7c9a0e41bbfcf062216ebfd290a",
      "s": "0x65f44a58845ae901518c079e2a0fba7a4c346887b61d5808badd967024157ffa",
      "v": 27,
      "creates": null,
      "raw": "0xf86d0c850de669ba1a8252089432be343b94f860124dc4fee278fdcbd38c102d8889012cf51cc8eeec7000801ba09f43dcf4b93f3bbc22dee4d7d05e4079df19e7c9a0e41bbfcf062216ebfd290aa065f44a58845ae901518c079e2a0fba7a4c346887b61d5808badd967024157ffa",
      "networkId": 0,
      "chainId": 0
    },
    {
      "hash": "0x52d40ab29747610c9a3244728572bceafbe4174d9f9dd708ea0993f410ff8ba1",
      "blockHash": "0x55cbaaf815a1c054ade44a02224057f545f2a61303e7d9afd6154f14bab05110",
      "blockNumber": 115322,
      "transactionIndex": 2,
      "confirmations": null,
      "from": "0xabceA603089850F8f6bB612A9031554D90A247CF",
      "gasPrice": {
        "_hex": "0xde669ba1a"
      },
      "gasLimit": {
        "_hex": "0x5208"
      },
      "to": "0x32Be343B94f860124dC4fEe278FDCBD38C102D88",
      "value": {
        "_hex": "0xce5167f80d55e000"
      },
      "nonce": 35,
      "data": "0x",
      "r": "0x764574fd781e58e0399ba2fb677a71e5e6adc12340fd94ca62ab5d96911bd948",
      "s": "0x0082a63d861f3dd0cd3fa3ad5a589c1aae508e723647bb1c2d4fd8eb881c1b38",
      "v": 28,
      "creates": null,
      "raw": "0xf86b23850de669ba1a8252089432be343b94f860124dc4fee278fdcbd38c102d8888ce5167f80d55e000801ca0764574fd781e58e0399ba2fb677a71e5e6adc12340fd94ca62ab5d96911bd9489f82a63d861f3dd0cd3fa3ad5a589c1aae508e723647bb1c2d4fd8eb881c1b38",
      "networkId": 0,
      "chainId": 0
    },
    {
      "hash": "0x59ba21e2293d7f138add32e74ebecec804f47f7b15174e943f86ae060674a44c",
      "blockHash": "0x55cbaaf815a1c054ade44a02224057f545f2a61303e7d9afd6154f14bab05110",
      "blockNumber": 115322,
      "transactionIndex": 3,
      "confirmations": null,
      "from": "0xA5fb3E4399E8F18643f969D0Ce65CC352fc252C6",
      "gasPrice": {
        "_hex": "0xde669ba1a"
      },
      "gasLimit": {
        "_hex": "0x5208"
      },
      "to": "0x32Be343B94f860124dC4fEe278FDCBD38C102D88",
      "value": {
        "_hex": "0x2d7b7195c2d56a000"
      },
      "nonce": 13,
      "data": "0x",
      "r": "0xedafd6f1b9a12ba002b62875161fdb57287be7fa5a79d7f0fc572c187192a76f",
      "s": "0x28456b9103f0ffa5ea0783ca8d50aa968b6d39065aedfe8926e2683ce7779407",
      "v": 27,
      "creates": null,
      "raw": "0xf86d0d850de669ba1a8252089432be343b94f860124dc4fee278fdcbd38c102d888902d7b7195c2d56a000801ba0edafd6f1b9a12ba002b62875161fdb57287be7fa5a79d7f0fc572c187192a76fa028456b9103f0ffa5ea0783ca8d50aa968b6d39065aedfe8926e2683ce7779407",
      "networkId": 0,
      "chainId": 0
    }
  ]
}