{
  "hash": "0xb83d8d4eb10f1c5f7411b1fce7cd4b034c731c9e9cfcbf03660e475c6e5b4315",
  "parentHash": "0xe86555d3f35a1cd2f38a5ede218139b2dcff2356dd6229c6b8909cc9248f647a",
  "number": 51408,
  "timestamp": 1439004473,
  "nonce": "0x101cc3b03224c9be",
  "difficulty": 1564291705210,
  "gasLimit": {
    "_hex": "0xadaa5"
  },
  "gasUsed": {
    "_hex": "0x5725"
  },
  "miner": "0x0eDEd3DA479d0beF8eeC92A76644D3f4E3C177f7",
  "extraData": "0x476574682f76312e302e312f6c696e75782f676f312e342e32",
  "transactions": [
    {
      "hash": "0xc8da2062c48dff86146138aac877808397e84b63f5506870dff3a2c80e54fe0f",
      "blockHash": "0xb83d8d4eb10f1c5f7411b1fce7cd4b034c731c9e9cfcbf03660e475c6e5b4315",
      "blockNumber": 51408,
      "transactionIndex": 0,
      "confirmations": null,
      "from": "0x2905726Ed11131A984ce9C0119cB32DBC99dE90B",
      "gasPrice": {
        "_hex": "0x10761a80d7e"
      },
      "gasLimit": {
        "_hex": "0x186a0"
      },
      "to": "0xd94BAdbEC21695B7a36ABCb979EFad0108319d18",
      "value": {
        "_hex": "0x0"
      },
      "nonce": 11,
      "data": "0xa69beaba4d656c616e63686f6c6961000000000000000000000000000000000000000000",
      "r": "0x7251609c2a58a9e56fbebcfdd9b6ef7f0addaf6766808755dce757fece751b8a",
      "s": "0x756766da73021671f013a15535eb64e762e93437ec99bbd473b7cda585e6ffe0",
      "v": 27,
      "creates": null,
      "raw": "0xf88a0b86010761a80d7e830186a094d94badbec21695b7a36abcb979efad0108319d1880a4a69beaba4d656c616e63686f6c69610000000000000000000000000000000000000000001ba07251609c2a58a9e56fbebcfdd9b6ef7f0addaf6766808755dce757fece751b8aa0756766da73021671f013a15535eb64e762e93437ec99bbd473b7cda585e6ffe0",
      "networkId": 0,
      "chainId": 0
    }
  ]
}