{
  "hash": "0x7cec340396095726160c472928449b0a267fb442fbd101710244c05cd67589d3",
  "parentHash": "0xab188a7fc09aab5d314db80da0d5737ac8261af9e753ba323e95196fa2cc96c5",
  "number": 52619,
  "timestamp": 1439024569,
  "nonce": "0xa2fba80707045054",
  "difficulty": 1567889082141,
  "gasLimit": {
    "_hex": "0x1668b0"
  },
  "gasUsed": {
    "_hex": "0x546c"
  },
  "miner": "0xc539E5d2311bc56B7aBb15e01af9b15f04e16c6D",
  "extraData": "0x476574682f76312e302e302d64666563343435382f6c696e75782f676f312e34",
  "transactions": [
    {
      "hash": "0x852accc3e05307a3eed0af9a5b13088dd537cb6002eff36f8cc86396078248f6",
      "blockHash": "0x7cec340396095726160c472928449b0a267fb442fbd101710244c05cd67589d3",
      "blockNumber": 52619,
      "transactionIndex": 0,
      "confirmations": null,
      "from": "0x7D5D2f73949DaDdA0856B206989Df0078D51A1E5",
      "gasPrice": {
        "_hex": "0x1040c6f4fd0"
      },
      "gasLimit": {
        "_hex": "0x15f90"
      },
      "to": "0x2910543Af39abA0Cd09dBb2D50200b3E800A63D2",
      "value": {
        "_hex": "0x14542ba12a337c00000"
      },
      "nonce": 4,
      "data": "0x454e364738394a4147",
      "r": "0x7f3e1b6a9e8b432bb6915226946521972075e5e8293b95d5a1753be0ff2ef62e",
      "s": "0x1bd375f1d2471b3c85bc8c74ab20d148b2d3ad89556d6507eadfad7fd7e7572b",
      "v": 27,
      "creates": null,
      "raw": "0xf879048601040c6f4fd083015f90942910543af39aba0cd09dbb2d50200b3e800a63d28a014542ba12a337c0000089454e364738394a41471ba07f3e1b6a9e8b432bb6915226946521972075e5e8293b95d5a1753be0ff2ef62ea01bd375f1d2471b3c85bc8c74ab20d148b2d3ad89556d6507eadfad7fd7e7572b",
      "networkId": 0,
      "chainId": 0
    }
  ]
}