{
  "hash": "0x89f1e96d32c2b2d4ecc6fead93a2dee6b0a5a9477e37f46e606f5f397a09bb88",
  "parentHash": "0x6bd5afde7c1d5b8c2b9ae825f3e3a058704c89d2659c60be689e540b8be42287",
  "number": 84123,
  "timestamp": 1439545288,
  "nonce": "0x7dc0f99aa2a40206",
  "difficulty": 2505857267165,
  "gasLimit": {
    "_hex": "0x2fefd8"
  },
  "gasUsed": {
    "_hex": "0x5208"
  },
  "miner": "0x5F8F73E26CdF436f19Cb24C82F90A15AFe55b592",
  "extraData": "0x476574682f76312e302e312f77696e646f77732f676f312e342e32",
  "transactions": [
    {
      "hash": "0x4ad12e637ce08d3119d88a0518ac8209493883e5df48bd0c1803e8c3943a3624",
      "blockHash": "0x89f1e96d32c2b2d4ecc6fead93a2dee6b0a5a9477e37f46e606f5f397a09bb88",
      "blockNumber": 84123,
      "transactionIndex": 0,
      "confirmations": null,
      "from": "0xa6BDc31c431B8F97848c9D60cbbe9660dc450eB7",
      "gasPrice": {
        "_hex": "0xcdc6f9fc3"
      },
      "gasLimit": {
        "_hex": "0x5208"
      },
      "to": "0x32Be343B94f860124dC4fEe278FDCBD38C102D88",
      "value": {
        "_hex": "0x455f72810d0f6400"
      },
      "nonce": 61,
      "data": "0x",
      "r": "0xb30ebebdf05f07d2d30f79eb2a84a0f8b46fcf39ddb9e3b75822764875b8acd6",
      "s": "0x586fe150b51b1e598cd451efa05e9f416c701b7a1fe615619229a081f1bd7923",
      "v": 27,
      "creates": null,
      "raw": "0xf86c3d850cdc6f9fc38252089432be343b94f860124dc4fee278fdcbd38c102d8888455f72810d0f6400801ba0b30ebebdf05f07d2d30f79eb2a84a0f8b46fcf39ddb9e3b75822764875b8acd6a0586fe150b51b1e598cd451efa05e9f416c701b7a1fe615619229a081f1bd7923",
      "networkId": 0,
      "chainId": 0
    }
  ]
}