{
  "hash": "0xdb9f3f3f0704aec8431fae2a7d135e3180a46de5fe7face8961c5ef704f51ee2",
  "parentHash": "0x346ebb66f1cb845baf44c00b98a1c78df448819757d7a6c7319fde9e7ffd25ff",
  "number": 93148,
  "timestamp": 1439683772,
  "nonce": "0xcdceeadd5c0f7ee8",
  "difficulty": 3615502480825,
  "gasLimit": {
    "_hex": "0x2fefd8"
  },
  "gasUsed": {
    "_hex": "0x5208"
  },
  "miner": "0xf927a40C8B7F6E07c5af7FA2155B4864a4112B13",
  "extraData": "0x",
  "transactions": [
    {
      "hash": "0x9af22f570bcee652544f2ecb2827df3a1dd9f6d6efb0d727a7939c949833e9eb",
      "blockHash": "0xdb9f3f3f0704aec8431fae2a7d135e3180a46de5fe7face8961c5ef704f51ee2",
      "blockNumber": 93148,
      "transactionIndex": 0,
      "confirmations": null,
      "from": "0x02Ade5Db22F8B758Ee1443626C64Ec2F32Aa0a15",
      "gasPrice": {
        "_hex": "0xd7d40ace3"
      },
      "gasLimit": {
        "_hex": "0x15f90"
      },
      "to": "0x2707836DbE604b0eBfdb0F20870dD749C8572676",
      "value": {
        "_hex": "0xde0b6b3a7640000"
      },
      "nonce": 0,
      "data": "0x",
      "r": "0xf58c73b679e7093f86e78a6da27ea51c4f5cb0baf2c26a1b41a8f9a6c584dcff",
      "s": "0x5154540eb88dad500278c341cca4f4064d03e2e0cbe501c83eda1f339b9563a3",
      "v": 28,
      "creates": null,
      "raw": "0xf86d80850d7d40ace383015f90942707836dbe604b0ebfdb0f20870dd749c8572676880de0b6b3a7640000801ca0f58c73b679e7093f86e78a6da27ea51c4f5cb0baf2c26a1b41a8f9a6c584dcffa05154540eb88dad500278c341cca4f4064d03e2e0cbe501c83eda1f339b9563a3",
      "networkId": 0,
      "chainId": 0
    }
  ]
}