{
  "hash": "0x0d0bfaf4f783baa53911b2e956947cd0d21f2696333f11b2d6bc5f458ce51acc",
  "parentHash": "0x332d44f3477cc8e780e7960b225bca6a3eb8692b9394413f011e7e22ee579f62",
  "number": 108275,
  "timestamp": 1439937518,
  "nonce": "0x18bd74f75c690333",
  "difficulty": 4355397418407,
  "gasLimit": {
    "_hex": "0x2fefd8"
  },
  "gasUsed": {
    "_hex": "0x5208"
  },
  "miner": "0x8Bf770A8F2F4cCa135f0699F96f4FB1CEb9c44c9",
  "extraData": "0x",
  "transactions": [
    {
      "hash": "0x32e132ba42f23039e90ffe82461fc5c6cf5127383cdef795876f3467f0dae154",
      "blockHash": "0x0d0bfaf4f783baa53911b2e956947cd0d21f2696333f11b2d6bc5f458ce51acc",
      "blockNumber": 108275,
      "transactionIndex": 0,
      "confirmations": null,
      "from": "0xd10E6C4B44Ee5557dF0f11239Ca4BE5025791E8E",
      "gasPrice": {
        "_hex": "0xcc005fe27"
      },
      "gasLimit": {
        "_hex": "0x7a120"
      },
      "to": "0xBBDa93a81B882774e1c9b5e3F933Fa35DaC8bc88",
      "value": {
        "_hex": "0xd02ab486cedc0000"
      },
      "nonce": 1,
      "data": "0x",
      "r": "0x6e7354f712393f5545bd1f97d2bc183ae2c4e264e3ce4b41ac12f9983dacebef",
      "s": "0x47c56817ead3f82ee70f8f40e240d3bd6ec56ab0c5ac61214aa9ac15328f0202",
      "v": 27,
      "creates": null,
      "raw": "0xf86d01850cc005fe278307a12094bbda93a81b882774e1c9b5e3f933fa35dac8bc8888d02ab486cedc0000801ba06e7354f712393f5545bd1f97d2bc183ae2c4e264e3ce4b41ac12f9983dacebefa047c56817ead3f82ee70f8f40e240d3bd6ec56ab0c5ac61214aa9ac15328f0202",
      "networkId": 0,
      "chainId": 0
    }
  ]
}