{
  "hash": "0x300fa596b6c51f73a166f65b8a7f6616c3ddf753dbc46cd953563a6be42f8ae6",
  "parentHash": "0xc8f294ee11b12d1c7d9e8c6857f0887c92c550f22ed2a104a668f92d5d68b0b4",
  "number": 52701,
  "timestamp": 1439025958,
  "nonce": "0x8dc573c0073f8846",
  "difficulty": 1570939001946,
  "gasLimit": {
    "_hex": "0x18168f"
  },
  "gasUsed": {
    "_hex": "0x5208"
  },
  "miner": "0xf927a40C8B7F6E07c5af7FA2155B4864a4112B13",
  "extraData": "0x476574682f76312e302e312f6c696e75782f676f312e342e32",
  "transactions": [
    {
      "hash": "0x3f78ec26dab574e8b9856b34f2a992337b91f18a582bcdc198b26800899c0e8e",
      "blockHash": "0x300fa596b6c51f73a166f65b8a7f6616c3ddf753dbc46cd953563a6be42f8ae6",
      "blockNumber": 52701,
      "transactionIndex": 0,
      "confirmations": null,
      "from": "0x1a79c7f4039C67A39d7513884cDC0E2C34222490",
      "gasPrice": {
        "_hex": "0xf1d21ee43"
      },
      "gasLimit": {
        "_hex": "0x15f90"
      },
      "to": "0x99425213944D7885b88Ec9D20D974B7Ac89D62E2",
      "value": {
        "_hex": "0xde0b6b3a7640000"
      },
      "nonce": 2,
      "data": "0x",
      "r": "0x1bab8782cd6b06633515af58837e8d534695ef730d3c35b4dce5ad0830d6b4a2",
      "s": "0x1e5844f94a1811686bee31b02126d340c55cd8a8c86ccc50018b5f6407172817",
      "v": 28,
      "creates": null,
      "raw": "0xf86d02850f1d21ee4383015f909499425213944d7885b88ec9d20d974b7ac89d62e2880de0b6b3a7640000801ca01bab8782cd6b06633515af58837e8d534695ef730d3c35b4dce5ad0830d6b4a2a01e5844f94a1811686bee31b02126d340c55cd8a8c86ccc50018b5f6407172817",
      "networkId": 0,
      "chainId": 0
    }
  ]
}