{
  "hash": "0xf7d04d03eddf1bb862813114eae4cd3dbabec573ddbc6a6d7d40fdbb0ee8154e",
  "parentHash": "0x7e3c3b265b7c07f573f4a6d5cb040a10c0d6e12372b137d2d92a882df614e1c8",
  "number": 112679,
  "timestamp": 1440011269,
  "nonce": "0x806577f9bd347397",
  "difficulty": 4430307480864,
  "gasLimit": {
    "_hex": "0x2fefd8"
  },
  "gasUsed": {
    "_hex": "0xa410"
  },
  "miner": "0xe6A7a1d47ff21B6321162AEA7C6CB457D5476Bca",
  "extraData": "0x476574682f76312e302e312d38326566323666362f6c696e75782f676f312e34",
  "transactions": [
    {
      "hash": "0x3acca4a5ce2a2e8b1001cbd39b9218e8e32c6c1ad8207e47581965a32c65c83f",
      "blockHash": "0xf7d04d03eddf1bb862813114eae4cd3dbabec573ddbc6a6d7d40fdbb0ee8154e",
      "blockNumber": 112679,
      "transactionIndex": 0,
      "confirmations": null,
      "from": "0xe6A7a1d47ff21B6321162AEA7C6CB457D5476Bca",
      "gasPrice": {
        "_hex": "0xd94bb9f72"
      },
      "gasLimit": {
        "_hex": "0x55f0"
      },
      "to": "0x0F7606315036EF870B5D92Cd9e52b8d4f771a7eA",
      "value": {
        "_hex": "0x148bc4c141c4a3f8"
      },
      "nonce": 4679,
      "data": "0x",
      "r": "0x910646adcc14b60b7600c491448da2fcfc7e0ff36f6defe8c5019554d9b9b72b",
      "s": "0x3e11b9e542dcdd7017e6c596977d9b5ad2e43ad57df337c1ed3f0f9c672c7e94",
      "v": 27,
      "creates": null,
      "raw": "0xf86e821247850d94bb9f728255f0940f7606315036ef870b5d92cd9e52b8d4f771a7ea88148bc4c141c4a3f8801ba0910646adcc14b60b7600c491448da2fcfc7e0ff36f6defe8c5019554d9b9b72ba03e11b9e542dcdd7017e6c596977d9b5ad2e43ad57df337c1ed3f0f9c672c7e94",
      "networkId": 0,
      "chainId": 0
    },
    {
      "hash": "0xf4d522885a29aae0f57bb0360c44f15c8bfa8688cbea00d0294ebcc7486d6d25",
      "blockHash": "0xf7d04d03eddf1bb862813114eae4cd3dbabec573ddbc6a6d7d40fdbb0ee8154e",
      "blockNumber": 112679,
      "transactionIndex": 1,
      "confirmations": null,
      "from": "0xe6A7a1d47ff21B6321162AEA7C6CB457D5476Bca",
      "gasPrice": {
        "_hex": "0xd94bb9f72"
      },
      "gasLimit": {
        "_hex": "0x55f0"
      },
      "to": "0x9E0Afd592B1e40BEe26816E360f02eebF04aD74B",
      "value": {
        "_hex": "0x14b10b6f561f2318"
      },
      "nonce": 4680,
      "data": "0x",
      "r": "0x51287e74a7d6cc7ecf91f6ac04c47161f2db1ead8c57af91da0ade9d27c1a1bb",
      "s": "0x37005517149c382c1af6c20e901af77fe11cc76ef2bd604ba48af55ef373bb25",
      "v": 27,
      "creates": null,
      "raw": "0xf86e821248850d94bb9f728255f0949e0afd592b1e40bee26816e360f02eebf04ad74b8814b10b6f561f2318801ba051287e74a7d6cc7ecf91f6ac04c47161f2db1ead8c57af91da0ade9d27c1a1bba037005517149c382c1af6c20e901af77fe11cc76ef2bd604ba48af55ef373bb25",
      "networkId": 0,
      "chainId": 0
    }
  ]
}