{
  "hash": "0x68a52d5929ef959fd35bb7a4556d0db7e2b464de89d32f5afb2c35a701cc2c2f",
  "parentHash": "0xb96a595f2ae0a99189652a024f65bd6549b71769827f70799ea12d2f1ac929b4",
  "number": 68897,
  "timestamp": 1439295340,
  "nonce": "0xc0b16db2298a8fb5",
  "difficulty": 2025065837383,
  "gasLimit": {
    "_hex": "0x2fefd8"
  },
  "gasUsed": {
    "_hex": "0x5208"
  },
  "miner": "0xf927a40C8B7F6E07c5af7FA2155B4864a4112B13",
  "extraData": "0x",
  "transactions": [
    {
      "hash": "0x8f21cf4d0244ad30d3d0a9615bd6c2872e5f9909dbbc0c7e1f1ede70202525d0",
      "blockHash": "0x68a52d5929ef959fd35bb7a4556d0db7e2b464de89d32f5afb2c35a701cc2c2f",
      "blockNumber": 68897,
      "transactionIndex": 0,
      "confirmations": null,
      "from": "0x6747f922385c9a6F9cfDf095F34345257DD597bE",
      "gasPrice": {
        "_hex": "0xba43b7400"
      },
      "gasLimit": {
        "_hex": "0x5208"
      },
      "to": "0x1CF02cCA26c81016Aa955EC9eF1Bc892A0f10D3B",
      "value": {
        "_hex": "0x1fcbfa42bd6000"
      },
      "nonce": 151,
      "data": "0x",
      "r": "0x9bfa825c5b22135546e2bd45f8b9c8f59e18ea060acd2466aca59f2294413dda",
      "s": "0x15e3134b599bcd0c05d24de92dc185b77643ff080f730bebb0888eac569abcde",
      "v": 28,
      "creates": null,
      "raw": "0xf86c8197850ba43b7400825208941cf02cca26c81016aa955ec9ef1bc892a0f10d3b871fcbfa42bd6000801ca09bfa825c5b22135546e2bd45f8b9c8f59e18ea060acd2466aca59f2294413ddaa015e3134b599bcd0c05d24de92dc185b77643ff080f730bebb0888eac569abcde",
      "networkId": 0,
      "chainId": 0
    }
  ]
}