{
  "hash": "0x25a927326f9603a9bbb59e8adade90a5bdf95bc20beb1d9c107294d3f7b2914d",
  "parentHash": "0x39cf03c59bb4160bc9cae10aea27984ade13c1a493d5ada6f72118c369f3069a",
  "number": 60758,
  "timestamp": 1439161081,
  "nonce": "0x2fef67003db6d9ac",
  "difficulty": 1729584209091,
  "gasLimit": {
    "_hex": "0x2fefd8"
  },
  "gasUsed": {
    "_hex": "0x5208"
  },
  "miner": "0x909755D480A27911cB7EeeB5edB918fae50883c0",
  "extraData": "0x476574682f76312e302e312d39383130306634372f6c696e75782f676f312e34",
  "transactions": [
    {
      "hash": "0x9debd144a4bac1b8353ff12df8d3b8a4eb095103d06c512d33bfbce7bf9fae89",
      "blockHash": "0x25a927326f9603a9bbb59e8adade90a5bdf95bc20beb1d9c107294d3f7b2914d",
      "blockNumber": 60758,
      "transactionIndex": 0,
      "confirmations": null,
      "from": "0x120A270bbC009644e35F0bB6ab13f95b8199c4ad",
      "gasPrice": {
        "_hex": "0xd814aafd8"
      },
      "gasLimit": {
        "_hex": "0x15f90"
      },
      "to": "0xb7D2dA6be86fA2bA1aF36d09448F029e438Fc419",
      "value": {
        "_hex": "0x2086ac351052600000"
      },
      "nonce": 50,
      "data": "0x",
      "r": "0xf08ce43a0ce523a2f0521474cec22cb77266d97d943c12879a6178a7c3229126",
      "s": "0x4b3cead336bfb6770b30e6ee80a78ef92ba31518953b521928398f943a55525f",
      "v": 27,
      "creates": null,
      "raw": "0xf86e32850d814aafd883015f9094b7d2da6be86fa2ba1af36d09448f029e438fc419892086ac351052600000801ba0f08ce43a0ce523a2f0521474cec22cb77266d97d943c12879a6178a7c3229126a04b3cead336bfb6770b30e6ee80a78ef92ba31518953b521928398f943a55525f",
      "networkId": 0,
      "chainId": 0
    }
  ]
}