{
  "hash": "0x060e9180b148a87270f3ff72d9fe88b8f73ff52fc4e3b45c37cf98223d86b538",
  "parentHash": "0xf2d23a1bf58723c1820ca84b436c5ad553acfae001f2cf1c8708646c32565d68",
  "number": 51535,
  "timestamp": 1439006526,
  "nonce": "0x05b804118e45415a",
  "difficulty": 1563504406305,
  "gasLimit": {
    "_hex": "0xbc5ec"
  },
  "gasUsed": {
    "_hex": "0x7f328"
  },
  "miner": "0x0037ce3d4B7f8729C8607D8D0248252Be68202c0",
  "extraData": "0x476574682f76312e302e312f77696e646f77732f676f312e342e32",
  "transactions": [
    {
      "hash": "0x459626ef9eaf2b4ddf36ba4e17370ce41b768caa183f07911f2b485c243fe6e2",
      "blockHash": "0x060e9180b148a87270f3ff72d9fe88b8f73ff52fc4e3b45c37cf98223d86b538",
      "blockNumber": 51535,
      "transactionIndex": 0,
      "confirmations": null,
      "from": "0xa261512125c57b597c5B0F9FA51Fdbe85cE65e37",
      "gasPrice": {
        "_hex": "0xda5e6f3b5"
      },
      "gasLimit": {
        "_hex": "0x7a120"
      },
      "to": "0x109C4f2CCc82C4d77Bde15F306707320294Aea3F",
      "value": {
        "_hex": "0xde0b6b3a7640000"
      },
      "nonce": 4,
      "data": "0x",
      "r": "0x4a1e63b4b14fd9fc089524e176041d4f733ec70f0bedea94406a215a22b045d3",
      "s": "0x4c0eebabe736ea5bd1c0f18c5db8e3844003e71919df28c4c04933d0d39f0fa8",
      "v": 27,
      "creates": null,
      "raw": "0xf86d04850da5e6f3b58307a12094109c4f2ccc82c4d77bde15f306707320294aea3f880de0b6b3a7640000801ba04a1e63b4b14fd9fc089524e176041d4f733ec70f0bedea94406a215a22b045d3a04c0eebabe736ea5bd1c0f18c5db8e3844003e71919df28c4c04933d0d39f0fa8",
      "networkId": 0,
      "chainId": 0
    },
    {
      "hash": "0xfd3887419a2086fc140f2cdff09ee058298d5f635558fc0e37dccdbd2cfd6044",
      "blockHash": "0x060e9180b148a87270f3ff72d9fe88b8f73ff52fc4e3b45c37cf98223d86b538",
      "blockNumber": 51535,
      "transactionIndex": 1,
      "confirmations": null,
      "from": "0x1308A2e95c0160B90803ddCA9B9a5bb55E416d79",
      "gasPrice": {
        "_hex": "0xcf745482b"
      },
      "gasLimit": {
        "_hex": "0x15f90"
      },
      "to": "0xe6282e5294D064DD01851808dE43b9be32066E72",
      "value": {
        "_hex": "0x4e679e33dba32740000"
      },
      "nonce": 3,
      "data": "0x",
      "r": "0x069094f54d3ed121f2b46af28644a21f32d89436ba9ee32346109b97e1eba9b5",
      "s": "0x7b1c1c326d5afd4e008b7e3bfdeb543c2c860a8b77127e3006edfe3699010b84",
      "v": 27,
      "creates": null,
      "raw": "0xf86f03850cf745482b83015f9094e6282e5294d064dd01851808de43b9be32066e728a04e679e33dba32740000801ba0069094f54d3ed121f2b46af28644a21f32d89436ba9ee32346109b97e1eba9b5a07b1c1c326d5afd4e008b7e3bfdeb543c2c860a8b77127e3006edfe3699010b84",
      "networkId": 0,
      "chainId": 0
    }
  ]
}