{
  "hash": "0xe895b95c51487bf5c1473c966019408e86cfec32f8fdee4ff36365ffb16da1f5",
  "parentHash": "0xf80a40c03cf633cbb5db258b4f6291ea70c7912324d5d44b0bca5c6b7fcd767e",
  "number": 68405,
  "timestamp": 1439287253,
  "nonce": "0xf4c78c8b01ea095e",
  "difficulty": 2021233034168,
  "gasLimit": {
    "_hex": "0x2fefd8"
  },
  "gasUsed": {
    "_hex": "0x5208"
  },
  "miner": "0xBb12b5a9B85D4AB8CDE6056E9c1b2a4a337D2261",
  "extraData": "0x476574682f76312e302e312d36393865393864392f6c696e75782f676f312e34",
  "transactions": [
    {
      "hash": "0x29d2daa8a38477ee2d2d4e812aa5b00ef905e564fc0aab93865f97b495ee5791",
      "blockHash": "0xe895b95c51487bf5c1473c966019408e86cfec32f8fdee4ff36365ffb16da1f5",
      "blockNumber": 68405,
      "transactionIndex": 0,
      "confirmations": null,
      "from": "0x11DD2528C4DAb917CABb57d4F233A846a9772858",
      "gasPrice": {
        "_hex": "0xba43b7400"
      },
      "gasLimit": {
        "_hex": "0x5208"
      },
      "to": "0x2A4640F87138253C2343205ae3296669d88a8128",
      "value": {
        "_hex": "0x4e1253f5de4000"
      },
      "nonce": 1,
      "data": "0x",
      "r": "0x486a3ebf4e58c988a5d149276ee8628d592a90ed1e47398d1233aa0f14ea372d",
      "s": "0x5e40c73eaafce3bd812a294cd72800b4270ada8dfa45b4436853d35a3dc59898",
      "v": 27,
      "creates": null,
      "raw": "0xf86b01850ba43b7400825208942a4640f87138253c2343205ae3296669d88a8128874e1253f5de4000801ba0486a3ebf4e58c988a5d149276ee8628d592a90ed1e47398d1233aa0f14ea372da05e40c73eaafce3bd812a294cd72800b4270ada8dfa45b4436853d35a3dc59898",
      "networkId": 0,
      "chainId": 0
    }
  ]
}