{
  "hash": "0x6fce2429ed192aaf41097951bbeb037583544e31978d8e2366a04099c709dbfc",
  "parentHash": "0xcfeb4dee303684d86bb7561e0864c1592e5228d83127f9310360d77ffc1ef58a",
  "number": 114363,
  "timestamp": 1440039094,
  "nonce": "0x896699d016747770",
  "difficulty": 4507967417069,
  "gasLimit": {
    "_hex": "0x2fefd8"
  },
  "gasUsed": {
    "_hex": "0x5208"
  },
  "miner": "0x98f7A0eDF3E25675482cA52480B7e07cA828a4b9",
  "extraData": "0x476574682f76312e302e312f6c696e75782f676f312e342e32",
  "transactions": [
    {
      "hash": "0x858409a3bfb23df90a09ebb0682e2c980258cf686e1b3a673254c330bbb94531",
      "blockHash": "0x6fce2429ed192aaf41097951bbeb037583544e31978d8e2366a04099c709dbfc",
      "blockNumber": 114363,
      "transactionIndex": 0,
      "confirmations": null,
      "from": "0x2dfA6c0e7A0C06592BEADeEDb71dc959E98fdE6C",
      "gasPrice": {
        "_hex": "0xce7874b0e"
      },
      "gasLimit": {
        "_hex": "0x5208"
      },
      "to": "0x32Be343B94f860124dC4fEe278FDCBD38C102D88",
      "value": {
        "_hex": "0x1ae31fd31af0e2000"
      },
      "nonce": 1,
      "data": "0x",
      "r": "0x6f94f6cb83eaaea05f107784fd202be9aa66a4362cbe2789ef8708c5eac5d718",
      "s": "0x77602719578d84c0bf8df9e37717f31bb2a016c3f6ff098553750fc2061023eb",
      "v": 28,
      "creates": null,
      "raw": "0xf86d01850ce7874b0e8252089432be343b94f860124dc4fee278fdcbd38c102d888901ae31fd31af0e2000801ca06f94f6cb83eaaea05f107784fd202be9aa66a4362cbe2789ef8708c5eac5d718a077602719578d84c0bf8df9e37717f31bb2a016c3f6ff098553750fc2061023eb",
      "networkId": 0,
      "chainId": 0
    }
  ]
}