{
  "hash": "0x0b9930041d74c5ac8464e851bbb62d33a658606e80128b2b41fa3621cc52d672",
  "parentHash": "0xca54eb9e52bb0f810f559ce3487c743e7cfa8a99a458a30cc1b2e750b6cbb047",
  "number": 74909,
  "timestamp": 1439394503,
  "nonce": "0xdcb6f71f49bb3e38",
  "difficulty": 2192327264228,
  "gasLimit": {
    "_hex": "0x2fefd8"
  },
  "gasUsed": {
    "_hex": "0xab689"
  },
  "miner": "0xbb7B8287f3F0a933474a79eAe42CBCa977791171",
  "extraData": "0x476574682f4c5649562f76312e302e312f6c696e75782f676f312e342e32",
  "transactions": [
    {
      "hash": "0x27290a8108aae0eda4165d2e663c6596c4f9eca649479eade95e23a75f2ecdaa",
      "blockHash": "0x0b9930041d74c5ac8464e851bbb62d33a658606e80128b2b41fa3621cc52d672",
      "blockNumber": 74909,
      "transactionIndex": 0,
      "confirmations": null,
      "from": "0x326Be8F71bFb0379f989aAB1CC1fE37f0a771f60",
      "gasPrice": {
        "_hex": "0x107d72b538a"
      },
      "gasLimit": {
        "_hex": "0x493e0"
      },
      "to": "0xC4c51de1AbF5D60DBd329eC0F999Fd8f021ae9fC",
      "value": {
        "_hex": "0x8ac7230489e80000"
      },
      "nonce": 59,
      "data": "0x8d2161860000000000000000000000000000000000000000000000000000000000000080c223d3a6b748caa0dfef9a509dedcf4ef697fe6ffb623157f9df94edd46eff54",
      "r": "0x699c5efc7449f3f7a293d20ee6bac843b71e648f2c6ace448c3dcec4c4a376cd",
      "s": "0x550b69059e2a07bacfd6db4be3503435be523d701a1daf41f341ee8f3bd62a1e",
      "v": 27,
      "creates": null,
      "raw": "0xf8b33b860107d72b538a830493e094c4c51de1abf5d60dbd329ec0f999fd8f021ae9fc888ac7230489e80000b8448d2161860000000000000000000000000000000000000000000000000000000000000080c223d3a6b748caa0dfef9a509dedcf4ef697fe6ffb623157f9df94edd46eff541ba0699c5efc7449f3f7a293d20ee6bac843b71e648f2c6ace448c3dcec4c4a376cda0550b69059e2a07bacfd6db4be3503435be523d701a1daf41f341ee8f3bd62a1e",
      "networkId": 0,
      "chainId": 0
    },
    {
      "hash": "0x7722e4002d56649751dfcfcc39253601139fcf466e1caa6a0e4ab598ca4735a2",
      "blockHash": "0x0b9930041d74c5ac8464e851bbb62d33a658606e80128b2b41fa3621cc52d672",
      "blockNumber": 74909,
      "transactionIndex": 1,
      "confirmations": null,
      "from": "0x2905726Ed11131A984ce9C0119cB32DBC99dE90B",
      "gasPrice": {
        "_hex": "0x106ce997e44"
      },
      "gasLimit": {
        "_hex": "0xf4240"
      },
      "to": null,
      "value": {
        "_hex": "0x0"
      },
      "nonce": 26,
      "data": "0x606060405260016307bfa4815560006307bfa482556307bfa4838054600160a060020a031916331790556107a3806100386000396000f300606060405236156100a35760e060020a600035046325416ecd81146100a5578063278ecde1146100b15780632fe9cc5b1461017d57806356fbf54f146101f757806357e3d45814610220578063690167fc1461028357806375b4d78c146102f557806379d5f12c1461030157806393b0719d14610316578063c6888fa11461037b578063c9d27afe14610394578063d96a094a146103d2578063f40e4f6f1461042d575b005b6103826307bfa4815481565b6100a360043560008080836298968081101561000257600d8102935062989680811015610002575050600b820154600160a060020a03908116339091161480156100ff5750600682015460ff165b801561010f575060028201546000145b80156101225750600a8201546014014310155b15610178575060068101805460ff191690556000600a8201819055600b82018054600160a060020a03191690556007820154604051909133600160a060020a031691839082818181858883f15050506007840155505b505050565b6100a36004356024356044355b828160005b826000141580156101a05750600082115b1561071a576000836298968081101561000257604051600d9190910260068101549093506101009004600160a060020a03169190879082818181858883f1505050506001820154935050600019919091019061018f565b6100a360043533600160a060020a031660009081526307bfa480602052604090208181555b5050565b6100a3600435600080826298968081101561000257505050600d8102600981015443611c209091011061021c5760405160068201546008830154610100909104600160a060020a0316916000919082818181858883f15050506008830155505050565b6100a3600435602435604435606435608435600160a060020a03821660009081526307bfa4806020526040812080549091808080848114806102ca5750866103e88a870204115b156105555760405133600160a060020a031690600090349082818181858883f1935050505050610548565b6103826307bfa4825481565b6100a360016307bfa4815560006307bfa48255565b6100a360043560243560008080846298968081101561000257600d02600681015490935060ff169050801561035c5750600c820154600160a060020a0390811633909116145b1561074c5750600781015460018201546107359060028304600461018a565b6007600435025b60408051918252519081900360200190f35b6100a3600435602435600080836298968081101561000257600d02600b810154909250600160a060020a039081163390911614905061075257610178565b6100a3600435600080826298968081101561000257600d0260058101549092503410905061021c5760068101805460ff1916600117905543600a820155600b81018054600160a060020a031916331790553460078201555050565b6104af60043560008162989680811015610002575050600d0280546001820154600283015460038401546004850154600586015460068701546007880154600889015460098a0154600a8b0154600b8c0154600c909c01549a9b999a989997989697959660ff861696610100909604600160a060020a0390811696811691168e565b604051808f81526020018e81526020018d81526020018c81526020018b81526020018a815260200189815260200188600160a060020a0316815260200187815260200186815260200185815260200184815260200183600160a060020a0316815260200182600160a060020a031681526020019e50505050505050505050505050505060405180910390f35b6307bfa481805460010190555b5050505050505050505050565b604051600160a060020a03891690600090899082818181858883f15091965050508b851490506105c457838b62989680811015610002575050600d8b0260068101549093506101009004600160a060020a039081163390911614156105c057600183015493506105c4565b8a93505b8a8155600281018a90553487900360048201819055600582018a905560068201805474ffffffffffffffffffffffffffffffffffffffff00191633610100021790556307bfa4815490925081906000906298968081101561000257600d028d815560019283015492810192909255506002828101549082015560038281015490820155600482810154828201556005838101549083015560068381018054918401805460ff9390931660ff199390931692909217808355905474ffffffffffffffffffffffffffffffffffffffff00199190911661010091829004600160a060020a0390811690920217909155600784810154908401556008848101549084015560098481015490840155600a8481015490840155600b848101549084018054918316600160a060020a0319928316179055600c85810154940180549490921693169290921790915561053b908590849061018a565b600082111561072d578482026307bfa482555b505050505050565b600280820460088401558201839055600060078301555b50505050565b811561078d57600881015460405160068301546101009004600160a060020a03169160009182818181858883f1505050600883015550610178565b600181015460088201546101789190600461018a56",
      "r": "0xfd9eff181b5d40cba4df8d578b16263c39a4b1cac5f121051e9abd9c6a6b5910",
      "s": "0x64ef152db89a778f2e227a5a5de673f33679d290e3b309051562cbc9f66e0666",
      "v": 27,
      "creates": "0x93D38e72C5281e78f6B364eACaC6fa907EcBa164",
      "raw": "0xf9082f1a860106ce997e44830f42408080b907db606060405260016307bfa4815560006307bfa482556307bfa4838054600160a060020a031916331790556107a3806100386000396000f300606060405236156100a35760e060020a600035046325416ecd81146100a5578063278ecde1146100b15780632fe9cc5b1461017d57806356fbf54f146101f757806357e3d45814610220578063690167fc1461028357806375b4d78c146102f557806379d5f12c1461030157806393b0719d14610316578063c6888fa11461037b578063c9d27afe14610394578063d96a094a146103d2578063f40e4f6f1461042d575b005b6103826307bfa4815481565b6100a360043560008080836298968081101561000257600d8102935062989680811015610002575050600b820154600160a060020a03908116339091161480156100ff5750600682015460ff165b801561010f575060028201546000145b80156101225750600a8201546014014310155b15610178575060068101805460ff191690556000600a8201819055600b82018054600160a060020a03191690556007820154604051909133600160a060020a031691839082818181858883f15050506007840155505b505050565b6100a36004356024356044355b828160005b826000141580156101a05750600082115b1561071a576000836298968081101561000257604051600d9190910260068101549093506101009004600160a060020a03169190879082818181858883f1505050506001820154935050600019919091019061018f565b6100a360043533600160a060020a031660009081526307bfa480602052604090208181555b5050565b6100a3600435600080826298968081101561000257505050600d8102600981015443611c209091011061021c5760405160068201546008830154610100909104600160a060020a0316916000919082818181858883f15050506008830155505050565b6100a3600435602435604435606435608435600160a060020a03821660009081526307bfa4806020526040812080549091808080848114806102ca5750866103e88a870204115b156105555760405133600160a060020a031690600090349082818181858883f1935050505050610548565b6103826307bfa4825481565b6100a360016307bfa4815560006307bfa48255565b6100a360043560243560008080846298968081101561000257600d02600681015490935060ff169050801561035c5750600c820154600160a060020a0390811633909116145b1561074c5750600781015460018201546107359060028304600461018a565b6007600435025b60408051918252519081900360200190f35b6100a3600435602435600080836298968081101561000257600d02600b810154909250600160a060020a039081163390911614905061075257610178565b6100a3600435600080826298968081101561000257600d0260058101549092503410905061021c5760068101805460ff1916600117905543600a820155600b81018054600160a060020a031916331790553460078201555050565b6104af60043560008162989680811015610002575050600d0280546001820154600283015460038401546004850154600586015460068701546007880154600889015460098a0154600a8b0154600b8c0154600c909c01549a9b999a989997989697959660ff861696610100909604600160a060020a0390811696811691168e565b604051808f81526020018e81526020018d81526020018c81526020018b81526020018a815260200189815260200188600160a060020a0316815260200187815260200186815260200185815260200184815260200183600160a060020a0316815260200182600160a060020a031681526020019e50505050505050505050505050505060405180910390f35b6307bfa481805460010190555b5050505050505050505050565b604051600160a060020a03891690600090899082818181858883f15091965050508b851490506105c457838b62989680811015610002575050600d8b0260068101549093506101009004600160a060020a039081163390911614156105c057600183015493506105c4565b8a93505b8a8155600281018a90553487900360048201819055600582018a905560068201805474ffffffffffffffffffffffffffffffffffffffff00191633610100021790556307bfa4815490925081906000906298968081101561000257600d028d815560019283015492810192909255506002828101549082015560038281015490820155600482810154828201556005838101549083015560068381018054918401805460ff9390931660ff199390931692909217808355905474ffffffffffffffffffffffffffffffffffffffff00199190911661010091829004600160a060020a0390811690920217909155600784810154908401556008848101549084015560098481015490840155600a8481015490840155600b848101549084018054918316600160a060020a0319928316179055600c85810154940180549490921693169290921790915561053b908590849061018a565b600082111561072d578482026307bfa482555b505050505050565b600280820460088401558201839055600060078301555b50505050565b811561078d57600881015460405160068301546101009004600160a060020a03169160009182818181858883f1505050600883015550610178565b600181015460088201546101789190600461018a561ba0fd9eff181b5d40cba4df8d578b16263c39a4b1cac5f121051e9abd9c6a6b5910a064ef152db89a778f2e227a5a5de673f33679d290e3b309051562cbc9f66e0666",
      "networkId": 0,
      "chainId": 0
    }
  ]
}