{
  "hash": "0xc3934f6ece61cda036652db079c2c2e5b5af19a78d01015a18bb4a976b11e98c",
  "parentHash": "0x39d21c5be168d8da0707307bec6cfa60edc5cc2225b1f5b921146eb361364e0e",
  "number": 81948,
  "timestamp": 1439510585,
  "nonce": "0xe0275c6418c8987e",
  "difficulty": 2414017855825,
  "gasLimit": {
    "_hex": "0x2fefd8"
  },
  "gasUsed": {
    "_hex": "0x546c"
  },
  "miner": "0xbb7B8287f3F0a933474a79eAe42CBCa977791171",
  "extraData": "0x476574682f4c5649562f76312e302e312f6c696e75782f676f312e342e32",
  "transactions": [
    {
      "hash": "0x5fee1acc9114f0f1db6b39dfe3a28b067417b20df27b7c7ce83252426f43ec97",
      "blockHash": "0xc3934f6ece61cda036652db079c2c2e5b5af19a78d01015a18bb4a976b11e98c",
      "blockNumber": 81948,
      "transactionIndex": 0,
      "confirmations": null,
      "from": "0x82f39B2758aE42277B86d69F75E628d958EbCAb0",
      "gasPrice": {
        "_hex": "0x110c8f7d8de"
      },
      "gasLimit": {
        "_hex": "0xc350"
      },
      "to": "0x2910543Af39abA0Cd09dBb2D50200b3E800A63D2",
      "value": {
        "_hex": "0x80bfbefcb5f0bc00000"
      },
      "nonce": 1,
      "data": "0x454e34483356554547",
      "r": "0x305cbf8948176892d3fa0dd33cc0e39ca40e52c0889804630591722914595a46",
      "s": "0xe811b3496ec3bde294fa8405577486366c09f4e6d2357c26f405af2cd94dfa09",
      "v": 28,
      "creates": null,
      "raw": "0xf87801860110c8f7d8de82c350942910543af39aba0cd09dbb2d50200b3e800a63d28a080bfbefcb5f0bc0000089454e344833565545471ca0305cbf8948176892d3fa0dd33cc0e39ca40e52c0889804630591722914595a46a0e811b3496ec3bde294fa8405577486366c09f4e6d2357c26f405af2cd94dfa09",
      "networkId": 0,
      "chainId": 0
    }
  ]
}