{
  "hash": "0x91346355a8fa73d036e39fae93b41390871070fb5d594017c42f3e28f41e404e",
  "parentHash": "0x617980a71c8dda77870da00bc56e8fe02fbe5a664d78b7822f4c2ab6413384f2",
  "number": 115418,
  "timestamp": 1440056924,
  "nonce": "0x8e376ae2a1fc9b0f",
  "difficulty": 4562759685919,
  "gasLimit": {
    "_hex": "0x2fefd8"
  },
  "gasUsed": {
    "_hex": "0xf618"
  },
  "miner": "0xe6A7a1d47ff21B6321162AEA7C6CB457D5476Bca",
  "extraData": "0x476574682f76312e302e312d38326566323666362f6c696e75782f676f312e34",
  "transactions": [
    {
      "hash": "0x49c3026f98634aa8b3a79c3ed2ab1424f2a006532315108b1708d15dd060c79f",
      "blockHash": "0x91346355a8fa73d036e39fae93b41390871070fb5d594017c42f3e28f41e404e",
      "blockNumber": 115418,
      "transactionIndex": 0,
      "confirmations": null,
      "from": "0x2bCc16248fEC82100d969224df6b88525e6048B4",
      "gasPrice": {
        "_hex": "0x9184e72a000"
      },
      "gasLimit": {
        "_hex": "0x9758e"
      },
      "to": null,
      "value": {
        "_hex": "0xde0b6b3a7640000"
      },
      "nonce": 0,
      "data": "0x",
      "r": "0x6f31e1afcc839c0c01f22f4d90b39dc9cf9234c05b816f913d87fd4fd1b378b1",
      "s": "0xf72e53f2902f7767fe2593cad5ab17789df606270273b0f3f373abb18ca333e0",
      "v": 28,
      "creates": "0xcf7280D4BdfB483c6C79D3c16850F90648cD5D25",
      "raw": "0xf85a808609184e72a0008309758e80880de0b6b3a7640000801ca06f31e1afcc839c0c01f22f4d90b39dc9cf9234c05b816f913d87fd4fd1b378b1a0f72e53f2902f7767fe2593cad5ab17789df606270273b0f3f373abb18ca333e0",
      "networkId": 0,
      "chainId": 0
    },
    {
      "hash": "0x785eedb88bd4fa3df5b187436c76498ffd198921dd5d89e68dc440a2ee330b44",
      "blockHash": "0x91346355a8fa73d036e39fae93b41390871070fb5d594017c42f3e28f41e404e",
      "blockNumber": 115418,
      "transactionIndex": 1,
      "confirmations": null,
      "from": "0x13065c2648269D5b802D31341006d0b458a187fE",
      "gasPrice": {
        "_hex": "0xd9a4e50ee"
      },
      "gasLimit": {
        "_hex": "0x5208"
      },
      "to": "0x32Be343B94f860124dC4fEe278FDCBD38C102D88",
      "value": {
        "_hex": "0xb5f897fb24d93800"
      },
      "nonce": 7,
      "data": "0x",
      "r": "0x1ead5ef21468e7ce02650dcfb5aec4e620a0d4b42650cf7b0a8cb6787ab99418",
      "s": "0x0fdca307cb07ecfaf797ff2644cc28cab359ae24725b7c48890583f213fe71f1",
      "v": 27,
      "creates": null,
      "raw": "0xf86c07850d9a4e50ee8252089432be343b94f860124dc4fee278fdcbd38c102d8888b5f897fb24d93800801ba01ead5ef21468e7ce02650dcfb5aec4e620a0d4b42650cf7b0a8cb6787ab99418a00fdca307cb07ecfaf797ff2644cc28cab359ae24725b7c48890583f213fe71f1",
      "networkId": 0,
      "chainId": 0
    },
    {
      "hash": "0x99657ac4cbae00099b91ca06e03a7e39df2ddf8d574eecd473d335394b9e1fc7",
      "blockHash": "0x91346355a8fa73d036e39fae93b41390871070fb5d594017c42f3e28f41e404e",
      "blockNumber": 115418,
      "transactionIndex": 2,
      "confirmations": null,
      "from": "0x30beD8049947963394D93412326225E4e3123601",
      "gasPrice": {
        "_hex": "0xd9a4e50ee"
      },
      "gasLimit": {
        "_hex": "0x5208"
      },
      "to": "0x32Be343B94f860124dC4fEe278FDCBD38C102D88",
      "value": {
        "_hex": "0xe3941b199de54800"
      },
      "nonce": 18,
      "data": "0x",
      "r": "0x29cc1661c07378a3307f504439c1e949dbe49e57d5e8ce310c575386262bb645",
      "s": "0x7a9825e07085956acf621a95e79f861a8ca312c6f2adf0c960a0bf74d4397d23",
      "v": 27,
      "creates": null,
      "raw": "0xf86c12850d9a4e50ee8252089432be343b94f860124dc4fee278fdcbd38c102d8888e3941b199de54800801ba029cc1661c07378a3307f504439c1e949dbe49e57d5e8ce310c575386262bb645a07a9825e07085956acf621a95e79f861a8ca312c6f2adf0c960a0bf74d4397d23",
      "networkId": 0,
      "chainId": 0
    }
  ]
}