{
  "hash": "0x08f6e73ad437e062430ce12ed1b78d7811daf279b7d278c2468441ea2a80f0d3",
  "parentHash": "0xb3013a5ebe19898b5ed74e8476ea87fc9249a748964c8128f724b9fcb31152c6",
  "number": 95562,
  "timestamp": 1439725817,
  "nonce": "0xf849bf71244217a3",
  "difficulty": 3632154093335,
  "gasLimit": {
    "_hex": "0x2fefd8"
  },
  "gasUsed": {
    "_hex": "0x5208"
  },
  "miner": "0xe6A7a1d47ff21B6321162AEA7C6CB457D5476Bca",
  "extraData": "0x476574682f76312e302e312d38326566323666362f6c696e75782f676f312e34",
  "transactions": [
    {
      "hash": "0x11e10ad7c44689403c8c504964fa82592163b28027f4f43e4d4672557c21e534",
      "blockHash": "0x08f6e73ad437e062430ce12ed1b78d7811daf279b7d278c2468441ea2a80f0d3",
      "blockNumber": 95562,
      "transactionIndex": 0,
      "confirmations": null,
      "from": "0x742259a297d480753626dA79958287165fdD3f64",
      "gasPrice": {
        "_hex": "0xba43b7400"
      },
      "gasLimit": {
        "_hex": "0x5208"
      },
      "to": "0xC47Aaa860008be6f65B58c6C6E02a84e666EfE31",
      "value": {
        "_hex": "0x4deeae1367ff8d800"
      },
      "nonce": 3,
      "data": "0x",
      "r": "0x032ee314721f5a4cdc80731bc9716321a1b5411b44c221a362d3e89a2562287c",
      "s": "0x0c01004cb16e85fe0130fb9342847c4b26f2521145f4243483b20239d2fae52a",
      "v": 28,
      "creates": null,
      "raw": "0xf86d03850ba43b740082520894c47aaa860008be6f65b58c6c6e02a84e666efe318904deeae1367ff8d800801ca0032ee314721f5a4cdc80731bc9716321a1b5411b44c221a362d3e89a2562287ca00c01004cb16e85fe0130fb9342847c4b26f2521145f4243483b20239d2fae52a",
      "networkId": 0,
      "chainId": 0
    }
  ]
}