{
  "hash": "0xc460d405534a45cc5741b50fe8bc14320a00c62df13888496b9e87aa8a702a33",
  "parentHash": "0xfe82b0c1b24f4f29b6318dbcbcde653705f4a612e882403e9226619946c5b5fb",
  "number": 100260,
  "timestamp": 1439803584,
  "nonce": "0xcc39a968e736b16d",
  "difficulty": 3826690078555,
  "gasLimit": {
    "_hex": "0x2fefd8"
  },
  "gasUsed": {
    "_hex": "0x5208"
  },
  "miner": "0x790b8a3cE86E707ED0eD32bF89B3269692a23CC1",
  "extraData": "0xd783010001844765746887676f312e342e32856c696e7578",
  "transactions": [
    {
      "hash": "0x4b85607ebc32d5de8f98ca674ddcce4bf937f28cce297cbfd710334882ae8d9e",
      "blockHash": "0xc460d405534a45cc5741b50fe8bc14320a00c62df13888496b9e87aa8a702a33",
      "blockNumber": 100260,
      "transactionIndex": 0,
      "confirmations": null,
      "from": "0xEe2e3665531f220d70d01CCaBb559537a2663174",
      "gasPrice": {
        "_hex": "0xd2d08c1b3"
      },
      "gasLimit": {
        "_hex": "0x5208"
      },
      "to": "0x32Be343B94f860124dC4fEe278FDCBD38C102D88",
      "value": {
        "_hex": "0x340a699459fa20000"
      },
      "nonce": 7,
      "data": "0x",
      "r": "0xf785a7b6421b935a4b3a00a94bc4c473e5acab7d81a0ba1e8e1ab0cd7361a587",
      "s": "0x019134191dac07f1d336d8e01b4a8f998071631ae6269b0e2e57d82f74ff350a",
      "v": 28,
      "creates": null,
      "raw": "0xf86d07850d2d08c1b38252089432be343b94f860124dc4fee278fdcbd38c102d88890340a699459fa20000801ca0f785a7b6421b935a4b3a00a94bc4c473e5acab7d81a0ba1e8e1ab0cd7361a587a0019134191dac07f1d336d8e01b4a8f998071631ae6269b0e2e57d82f74ff350a",
      "networkId": 0,
      "chainId": 0
    }
  ]
}