{
  "hash": "0x634334298da2f4ac19f3228d160a38c01f82c3b999b62d3c03ad1a2671d0a522",
  "parentHash": "0xfa88c46c92fea58adef4cf876a8b47039044ca3c7b181b66f7240a5a32bc526a",
  "number": 54761,
  "timestamp": 1439059602,
  "nonce": "0xa861d03474f70f4c",
  "difficulty": 1620407988505,
  "gasLimit": {
    "_hex": "0x2fefd8"
  },
  "gasUsed": {
    "_hex": "0xa410"
  },
  "miner": "0xf927a40C8B7F6E07c5af7FA2155B4864a4112B13",
  "extraData": "0x476574682f76312e302e302f6c696e75782f676f312e342e32",
  "transactions": [
    {
      "hash": "0xb6695dbbc6ef98bd8e129a7875bf8aa6134f385d4ede5a78c6e85508a7c7c27f",
      "blockHash": "0x634334298da2f4ac19f3228d160a38c01f82c3b999b62d3c03ad1a2671d0a522",
      "blockNumber": 54761,
      "transactionIndex": 0,
      "confirmations": null,
      "from": "0x32Be343B94f860124dC4fEe278FDCBD38C102D88",
      "gasPrice": {
        "_hex": "0xe033ab55d"
      },
      "gasLimit": {
        "_hex": "0x5208"
      },
      "to": "0xEC73114c5e406fdBBE09B4FA621bd70ED54eA1ef",
      "value": {
        "_hex": "0xd8d6ff1f0e21e80000"
      },
      "nonce": 58,
      "data": "0x",
      "r": "0xc7d172a48177c74b179fd5632fbf4dd39663245104f90001a49360fca7562fdd",
      "s": "0x6fd92e3791dbda26e8f3f43eaa6788aad0c484d002eee54e206cf38724583e38",
      "v": 27,
      "creates": null,
      "raw": "0xf86d3a850e033ab55d82520894ec73114c5e406fdbbe09b4fa621bd70ed54ea1ef89d8d6ff1f0e21e80000801ba0c7d172a48177c74b179fd5632fbf4dd39663245104f90001a49360fca7562fdda06fd92e3791dbda26e8f3f43eaa6788aad0c484d002eee54e206cf38724583e38",
      "networkId": 0,
      "chainId": 0
    },
    {
      "hash": "0xc19db1d94f2149388026a7b5273f86471b7db553c17389f0602feab9dd927f5f",
      "blockHash": "0x634334298da2f4ac19f3228d160a38c01f82c3b999b62d3c03ad1a2671d0a522",
      "blockNumber": 54761,
      "transactionIndex": 1,
      "confirmations": null,
      "from": "0x32Be343B94f860124dC4fEe278FDCBD38C102D88",
      "gasPrice": {
        "_hex": "0xe033ab55d"
      },
      "gasLimit": {
        "_hex": "0x5208"
      },
      "to": "0xD6CBc00b3ECFF6E48a1106fEaf62f77C4F52E465",
      "value": {
        "_hex": "0x15aef9f1c31c7f0000"
      },
      "nonce": 59,
      "data": "0x",
      "r": "0xf4f624b9f4a72fbbc0adc7a4546d3f4e13fbce944499d548a2bcb659de67def6",
      "s": "0x13f487a08ff204c7a50a9dea188dcbcab9fe9fd0a902d9c7876889f9520c6dfe",
      "v": 28,
      "creates": null,
      "raw": "0xf86d3b850e033ab55d82520894d6cbc00b3ecff6e48a1106feaf62f77c4f52e4658915aef9f1c31c7f0000801ca0f4f624b9f4a72fbbc0adc7a4546d3f4e13fbce944499d548a2bcb659de67def6a013f487a08ff204c7a50a9dea188dcbcab9fe9fd0a902d9c7876889f9520c6dfe",
      "networkId": 0,
      "chainId": 0
    }
  ]
}