{
  "hash": "0x46907b735d8335d35733bb0e112f671316888822969a584a1ae45fd439203a2a",
  "parentHash": "0x73b006b1a47b503650fd3df490711d3a1b602479d133606c2a92e9a53db39c22",
  "number": 65035,
  "timestamp": 1439230248,
  "nonce": "0xec2a19af13f416e9",
  "difficulty": 1920050824722,
  "gasLimit": {
    "_hex": "0x2fefd8"
  },
  "gasUsed": {
    "_hex": "0xa410"
  },
  "miner": "0xf927a40C8B7F6E07c5af7FA2155B4864a4112B13",
  "extraData": "0x",
  "transactions": [
    {
      "hash": "0x1ff5ccc45f3c48e5714b4c04b9384e7ac2944f3392204c43677db3a008ebb9e3",
      "blockHash": "0x46907b735d8335d35733bb0e112f671316888822969a584a1ae45fd439203a2a",
      "blockNumber": 65035,
      "transactionIndex": 0,
      "confirmations": null,
      "from": "0x011370355a7591952a1Bd17c6BE81b20C1FEAeaC",
      "gasPrice": {
        "_hex": "0xba43b7400"
      },
      "gasLimit": {
        "_hex": "0x5208"
      },
      "to": "0x00Ecd14b8Bb5Ef60a932462074a4107870bd9efA",
      "value": {
        "_hex": "0x3499b1c017cb000"
      },
      "nonce": 1,
      "data": "0x",
      "r": "0x08cd2a19858e36352506f7f10876b4a09f29052efb4291cedc1a188cdeea38a1",
      "s": "0x0a23d5be56e912ac94eb0012542ead471729123dce581ad2e086c4a9e2c75855",
      "v": 27,
      "creates": null,
      "raw": "0xf86c01850ba43b74008252089400ecd14b8bb5ef60a932462074a4107870bd9efa8803499b1c017cb000801ba008cd2a19858e36352506f7f10876b4a09f29052efb4291cedc1a188cdeea38a1a00a23d5be56e912ac94eb0012542ead471729123dce581ad2e086c4a9e2c75855",
      "networkId": 0,
      "chainId": 0
    },
    {
      "hash": "0x26a1022a812169d4d23af4947594961a16ae08c873f232daec4999c4f907a113",
      "blockHash": "0x46907b735d8335d35733bb0e112f671316888822969a584a1ae45fd439203a2a",
      "blockNumber": 65035,
      "transactionIndex": 1,
      "confirmations": null,
      "from": "0xbcb73a3fa9b60E650913E591ddD36D3f2bf08B5f",
      "gasPrice": {
        "_hex": "0xba43b7400"
      },
      "gasLimit": {
        "_hex": "0x5208"
      },
      "to": "0x6c1fd76592E37F792f7DD0FB44C96A82d75252FB",
      "value": {
        "_hex": "0x2ed0e689b3af000"
      },
      "nonce": 1,
      "data": "0x",
      "r": "0xb19775ccefc9aef89478553910ff11ed9692dd1d3044380417fb78bcad47ecf8",
      "s": "0x255d885051ae82afbfd033f22dd040b60c3917f6024084717a79fae0d77f9dcc",
      "v": 28,
      "creates": null,
      "raw": "0xf86c01850ba43b7400825208946c1fd76592e37f792f7dd0fb44c96a82d75252fb8802ed0e689b3af000801ca0b19775ccefc9aef89478553910ff11ed9692dd1d3044380417fb78bcad47ecf8a0255d885051ae82afbfd033f22dd040b60c3917f6024084717a79fae0d77f9dcc",
      "networkId": 0,
      "chainId": 0
    }
  ]
}