{
  "hash": "0x264b0c1602d307956edf14f86c2bd347842c30e8f0b05ce1f4d673cd8edc43d6",
  "parentHash": "0x148560eebecc86512f2ee663777799da614b7e0decaf276bae608e20621d75eb",
  "number": 61478,
  "timestamp": 1439173015,
  "nonce": "0xb8e205af1dc51178",
  "difficulty": 1734509899971,
  "gasLimit": {
    "_hex": "0x2fefd8"
  },
  "gasUsed": {
    "_hex": "0x85e2"
  },
  "miner": "0x2134e2a2b718DCa96580ECAC31E653Ea1fdd58DA",
  "extraData": "0x476574682f76312e302e312f77696e646f77732f676f312e342e32",
  "transactions": [
    {
      "hash": "0xca8aa7359603b49b4ec09cb9f9e30ca141efad949b245576637be19cfdc0429f",
      "blockHash": "0x264b0c1602d307956edf14f86c2bd347842c30e8f0b05ce1f4d673cd8edc43d6",
      "blockNumber": 61478,
      "transactionIndex": 0,
      "confirmations": null,
      "from": "0xE2beA3e7d349ab64EBD9873418e78912e13CD35f",
      "gasPrice": {
        "_hex": "0xd237a2ef9"
      },
      "gasLimit": {
        "_hex": "0x15f90"
      },
      "to": "0x3d20CA881Df543228b314BBE1D47bB54DB124383",
      "value": {
        "_hex": "0x0"
      },
      "nonce": 6,
      "data": "0xf783d7090000000000000000000000000000000000000000000000000000000000000020000000000000000000000000000000000000000000000000000000000000001c48656c6c6f2046726f6d20546172617320426f62726f767974736b7900000000",
      "r": "0x2c1d7f04f305dbacc682051b28fe8cb5d6be4546745db0b155939f61bd0c75c9",
      "s": "0x188b30ef4f9746d309b737a5fedf3ae35ce85caec4e76455b45192f3bd98134f",
      "v": 28,
      "creates": null,
      "raw": "0xf8ca06850d237a2ef983015f90943d20ca881df543228b314bbe1d47bb54db12438380b864f783d7090000000000000000000000000000000000000000000000000000000000000020000000000000000000000000000000000000000000000000000000000000001c48656c6c6f2046726f6d20546172617320426f62726f767974736b79000000001ca02c1d7f04f305dbacc682051b28fe8cb5d6be4546745db0b155939f61bd0c75c9a0188b30ef4f9746d309b737a5fedf3ae35ce85caec4e76455b45192f3bd98134f",
      "networkId": 0,
      "chainId": 0
    }
  ]
}