{
  "hash": "0x47ec6a0c3467850cf88112c212c262819de6f1d084d396981d18d8f949cb3017",
  "parentHash": "0x61c32195685499e27de8d3513487374ad2abe58c9b62cde96a370d6ac38e4f27",
  "number": 46194,
  "timestamp": 1438918983,
  "nonce": "0xa9dac455868a2c30",
  "difficulty": 1457562654857,
  "gasLimit": {
    "_hex": "0x5484"
  },
  "gasUsed": {
    "_hex": "0x5208"
  },
  "miner": "0x4F85e43F44D2B0e6f57C9355806cE3e1B3F40Ab8",
  "extraData": "0x476574682f76312e302e312f6c696e75782f676f312e342e32",
  "transactions": [
    {
      "hash": "0xcb9378977089c773c074045b20ede2cdcc3a6ff562f4e64b51b20c5205234525",
      "blockHash": "0x47ec6a0c3467850cf88112c212c262819de6f1d084d396981d18d8f949cb3017",
      "blockNumber": 46194,
      "transactionIndex": 0,
      "confirmations": null,
      "from": "0x037dd056e7FDBd641DB5b6BEA2A8780A83FAe180",
      "gasPrice": {
        "_hex": "0xe8d4a51000"
      },
      "gasLimit": {
        "_hex": "0x5208"
      },
      "to": "0x7e7eC15A5944e978257dDae0008C2F2eCe0A6090",
      "value": {
        "_hex": "0x56bc75e2d63100000"
      },
      "nonce": 0,
      "data": "0x",
      "r": "0x6836d376f961be73844fac168d178b3c7dafc1b348893abae64afbe32bf11e15",
      "s": "0x37fe800b9145d88c43bfbcc8aaba39c358d9fbbc8038c0b52b5c7032133a0135",
      "v": 27,
      "creates": null,
      "raw": "0xf86d8085e8d4a51000825208947e7ec15a5944e978257ddae0008c2f2ece0a609089056bc75e2d63100000801ba06836d376f961be73844fac168d178b3c7dafc1b348893abae64afbe32bf11e15a037fe800b9145d88c43bfbcc8aaba39c358d9fbbc8038c0b52b5c7032133a0135",
      "networkId": 0,
      "chainId": 0
    }
  ]
}