{
  "hash": "0xba4b2e83f85847d8db160249aff5d4a46d6d56b71c8981b292e3f2edc2cb4394",
  "parentHash": "0x017549e860015fe141934f158b6003668f06203ef47b075399792b4767fcabd3",
  "number": 105453,
  "timestamp": 1439887902,
  "nonce": "0xfe5a97b967131ba6",
  "difficulty": 4391034159866,
  "gasLimit": {
    "_hex": "0x2fefd8"
  },
  "gasUsed": {
    "_hex": "0x5208"
  },
  "miner": "0x9D49F602b0fdb924Bd63DDE2Bd0907E4A07c63a7",
  "extraData": "0x476574682f76312e302e312f6c696e75782f676f312e342e32",
  "transactions": [
    {
      "hash": "0xffe282ac3dabd36525d6758260a7079a522bdb8b6bdad0d1348376b4fd86f9cf",
      "blockHash": "0xba4b2e83f85847d8db160249aff5d4a46d6d56b71c8981b292e3f2edc2cb4394",
      "blockNumber": 105453,
      "transactionIndex": 0,
      "confirmations": null,
      "from": "0x59cC965F1643a68ad7a4272ff1654d4af4343ea7",
      "gasPrice": {
        "_hex": "0xcab15a115"
      },
      "gasLimit": {
        "_hex": "0x5208"
      },
      "to": "0x32Be343B94f860124dC4fEe278FDCBD38C102D88",
      "value": {
        "_hex": "0x8596846e39ae30000"
      },
      "nonce": 4,
      "data": "0x",
      "r": "0xe1f0db339a09957f1478132c7a3633f02fe24f7d04f322999fb51abcf5536ea4",
      "s": "0x753ae80dabf4d175e4eb76bc656b20ffcb8d4c1eb0696d2792e8446b9774f038",
      "v": 27,
      "creates": null,
      "raw": "0xf86d04850cab15a1158252089432be343b94f860124dc4fee278fdcbd38c102d888908596846e39ae30000801ba0e1f0db339a09957f1478132c7a3633f02fe24f7d04f322999fb51abcf5536ea4a0753ae80dabf4d175e4eb76bc656b20ffcb8d4c1eb0696d2792e8446b9774f038",
      "networkId": 0,
      "chainId": 0
    }
  ]
}