{
  "hash": "0xb08cb64590c301b478ccd5531e2d565165f7754033591f531351adb133ac8bb3",
  "parentHash": "0xff4c7dfdbe9ec2449c565ae76c99cab619e9db653073598e7849d6b93642e135",
  "number": 64779,
  "timestamp": 1439226101,
  "nonce": "0xfaabc2938f8b0d01",
  "difficulty": 1894036561437,
  "gasLimit": {
    "_hex": "0x2fefd8"
  },
  "gasUsed": {
    "_hex": "0xbe6c"
  },
  "miner": "0x70137010922f2fC2964b3792907F79FBB75fEbe8",
  "extraData": "0x476574682f76312e302e302f6c696e75782f676f312e342e32",
  "transactions": [
    {
      "hash": "0x3277a56b9516fcc17c28c5b0541fbd2637e6d790979be978832ad6cff06a593b",
      "blockHash": "0xb08cb64590c301b478ccd5531e2d565165f7754033591f531351adb133ac8bb3",
      "blockNumber": 64779,
      "transactionIndex": 0,
      "confirmations": null,
      "from": "0x121270a122545d8a2aEB91aCF8f32492471D7c69",
      "gasPrice": {
        "_hex": "0xba43b7400"
      },
      "gasLimit": {
        "_hex": "0x15f90"
      },
      "to": "0x793AE8C1b1a160BFc07BFB0d04F85eab1A71F4f2",
      "value": {
        "_hex": "0x0"
      },
      "nonce": 0,
      "data": "0x3ba15036",
      "r": "0x092b5163a6ad313682a93c7390863da9a508a38236e10556211a374b776b51eb",
      "s": "0x0ee2174f17c5a5142dc168c761ad74e5f022f5c05008cc26e70f9e4f47eaaedc",
      "v": 27,
      "creates": null,
      "raw": "0xf86980850ba43b740083015f9094793ae8c1b1a160bfc07bfb0d04f85eab1a71f4f280843ba150361ba0092b5163a6ad313682a93c7390863da9a508a38236e10556211a374b776b51eba00ee2174f17c5a5142dc168c761ad74e5f022f5c05008cc26e70f9e4f47eaaedc",
      "networkId": 0,
      "chainId": 0
    }
  ]
}