{
  "hash": "0xe76afca13f4f689a00c23b094e924de7735861136337ea6f69df6ca13ef66131",
  "parentHash": "0x91f42e0deeca744d63f76fc32a0d05917378727a7621485d6cada92c1e4ac25e",
  "number": 58244,
  "timestamp": 1439117395,
  "nonce": "0x439efa2a394961cb",
  "difficulty": 1718316087218,
  "gasLimit": {
    "_hex": "0x2fefd8"
  },
  "gasUsed": {
    "_hex": "0x5208"
  },
  "miner": "0xf927a40C8B7F6E07c5af7FA2155B4864a4112B13",
  "extraData": "0x476574682f76312e302e312f6c696e75782f676f312e342e32",
  "transactions": [
    {
      "hash": "0xbddb37fc376089162d0dcaa5e25e4e36f1b86b6f0d8053e80157103bacf76236",
      "blockHash": "0xe76afca13f4f689a00c23b094e924de7735861136337ea6f69df6ca13ef66131",
      "blockNumber": 58244,
      "transactionIndex": 0,
      "confirmations": null,
      "from": "0x47ff6576639c2e94762eA5443978D7681C0E78DC",
      "gasPrice": {
        "_hex": "0xce6887289"
      },
      "gasLimit": {
        "_hex": "0x5208"
      },
      "to": "0xeD17Ea8E9fd42159037deE95ea173a56c54f55ce",
      "value": {
        "_hex": "0x6d499ec6c63380000"
      },
      "nonce": 12,
      "data": "0x",
      "r": "0x3de3c3a5ecd8e8eb8db8103f40a2a8c59d1bf36c86605fbea163fc7eaecb3699",
      "s": "0x7a441646ffa67a2aec960e193c58f7e672d76b170681df558aa9ae61ed73e7e0",
      "v": 28,
      "creates": null,
      "raw": "0xf86d0c850ce688728982520894ed17ea8e9fd42159037dee95ea173a56c54f55ce8906d499ec6c63380000801ca03de3c3a5ecd8e8eb8db8103f40a2a8c59d1bf36c86605fbea163fc7eaecb3699a07a441646ffa67a2aec960e193c58f7e672d76b170681df558aa9ae61ed73e7e0",
      "networkId": 0,
      "chainId": 0
    }
  ]
}