{
  "hash": "0xe22739de63a17fe4dcc68034d628e0bbd1f3ebe350be60f67d0f5d0fe73ef0f2",
  "parentHash": "0x1ab5237c2f5657ce2c9a5b2496ae03c25bd33db06f0615fa19a6ec8d77bf6031",
  "number": 103174,
  "timestamp": 1439848972,
  "nonce": "0x97310ae6823dfd8b",
  "difficulty": 4180872843264,
  "gasLimit": {
    "_hex": "0x2fefd8"
  },
  "gasUsed": {
    "_hex": "0x4320a"
  },
  "miner": "0xe6A7a1d47ff21B6321162AEA7C6CB457D5476Bca",
  "extraData": "0x476574682f76312e302e312d38326566323666362f6c696e75782f676f312e34",
  "transactions": [
    {
      "hash": "0xd1896091b4a3c80a133ff869738f2e27378f5cd53b3b24a2b27f47b69a1ea7a9",
      "blockHash": "0xe22739de63a17fe4dcc68034d628e0bbd1f3ebe350be60f67d0f5d0fe73ef0f2",
      "blockNumber": 103174,
      "transactionIndex": 0,
      "confirmations": null,
      "from": "0x42E6723A0c884E922240e56D7B618BeC96F35800",
      "gasPrice": {
        "_hex": "0xdf8475800"
      },
      "gasLimit": {
        "_hex": "0x2fefd8"
      },
      "to": null,
      "value": {
        "_hex": "0x0"
      },
      "nonce": 7,
      "data": "0x60606040525b33600060006101000a81548173ffffffffffffffffffffffffffffffffffffffff02191690830217905550600060009054906101000a900473ffffffffffffffffffffffffffffffffffffffff1673ffffffffffffffffffffffffffffffffffffffff1660010260405180807f4f776e6572206f662074686520666565643a2000000000000000000000000000815260200150601301905060405180910390a15b6102b6806100b56000396000f30060606040526000357c01000000000000000000000000000000000000000000000000000000009004806304289bec1461005a57806331d98b3f14610081578063b9dccd55146100a8578063c8507cbd146100c757610058565b005b61006b600480359060200150610109565b6040518082815260200191505060405180910390f35b61009260048035906020015061028e565b6040518082815260200191505060405180910390f35b6100c5600480359060200180359060200180359060200150610124565b005b6100d86004803590602001506100ee565b6040518082815260200191505060405180910390f35b60016000506020528060005260406000206000915090505481565b60026000506020528060005260406000206000915090505481565b600060009054906101000a900473ffffffffffffffffffffffffffffffffffffffff1673ffffffffffffffffffffffffffffffffffffffff163373ffffffffffffffffffffffffffffffffffffffff16141561022157826001600050600084815260200190815260200160002060005081905550806002600050600084815260200190815260200160002060005081905550816040518082815260200191505060405180910390a08260010260405180807f707269636520757064617465643a200000000000000000000000000000000000815260200150600f01905060405180910390a1604051808050600001905060405180910390a0610288565b3373ffffffffffffffffffffffffffffffffffffffff1660010260405180807f41636365737320726573746972637465643a2000000000000000000000000000815260200150601301905060405180910390a1604051808050600001905060405180910390a05b5b505050565b6000600160005060008381526020019081526020016000206000505490506102b1565b91905056",
      "r": "0x6b438f2e6df3fe2dfbb7744625b9a2a9c1f2900f9202e494652407d9b71e3cd9",
      "s": "0x59b4d3ef1211ebd8782ed0c9f756fb25bc47d2a5fe97f0c47e5af437ffe8c5a5",
      "v": 27,
      "creates": "0x0a0cb39d974f8492F7B1b200b430ceC972619C20",
      "raw": "0xf903be07850df8475800832fefd88080b9036b60606040525b33600060006101000a81548173ffffffffffffffffffffffffffffffffffffffff02191690830217905550600060009054906101000a900473ffffffffffffffffffffffffffffffffffffffff1673ffffffffffffffffffffffffffffffffffffffff1660010260405180807f4f776e6572206f662074686520666565643a2000000000000000000000000000815260200150601301905060405180910390a15b6102b6806100b56000396000f30060606040526000357c01000000000000000000000000000000000000000000000000000000009004806304289bec1461005a57806331d98b3f14610081578063b9dccd55146100a8578063c8507cbd146100c757610058565b005b61006b600480359060200150610109565b6040518082815260200191505060405180910390f35b61009260048035906020015061028e565b6040518082815260200191505060405180910390f35b6100c5600480359060200180359060200180359060200150610124565b005b6100d86004803590602001506100ee565b6040518082815260200191505060405180910390f35b60016000506020528060005260406000206000915090505481565b60026000506020528060005260406000206000915090505481565b600060009054906101000a900473ffffffffffffffffffffffffffffffffffffffff1673ffffffffffffffffffffffffffffffffffffffff163373ffffffffffffffffffffffffffffffffffffffff16141561022157826001600050600084815260200190815260200160002060005081905550806002600050600084815260200190815260200160002060005081905550816040518082815260200191505060405180910390a08260010260405180807f707269636520757064617465643a200000000000000000000000000000000000815260200150600f01905060405180910390a1604051808050600001905060405180910390a0610288565b3373ffffffffffffffffffffffffffffffffffffffff1660010260405180807f41636365737320726573746972637465643a2000000000000000000000000000815260200150601301905060405180910390a1604051808050600001905060405180910390a05b5b505050565b6000600160005060008381526020019081526020016000206000505490506102b1565b919050561ba06b438f2e6df3fe2dfbb7744625b9a2a9c1f2900f9202e494652407d9b71e3cd9a059b4d3ef1211ebd8782ed0c9f756fb25bc47d2a5fe97f0c47e5af437ffe8c5a5",
      "networkId": 0,
      "chainId": 0
    },
    {
      "hash": "0x6e3fe1050634ec3a897282eca140e9ac94c758703238c060658ee2dca4299aee",
      "blockHash": "0xe22739de63a17fe4dcc68034d628e0bbd1f3ebe350be60f67d0f5d0fe73ef0f2",
      "blockNumber": 103174,
      "transactionIndex": 1,
      "confirmations": null,
      "from": "0x2910543Af39abA0Cd09dBb2D50200b3E800A63D2",
      "gasPrice": {
        "_hex": "0xdc6149aa9"
      },
      "gasLimit": {
        "_hex": "0x5208"
      },
      "to": "0x00587Ffa0A43D793209E8e7C24f8Ec55Fd021220",
      "value": {
        "_hex": "0x2f7ff1b4a5a000"
      },
      "nonce": 1008,
      "data": "0x",
      "r": "0xfe4bee06e8a0187fc442dd03d31d2e02fad99c7b437953a6364a1641df6b6d29",
      "s": "0x21f0b094774fb6a584cb2587fd98462f7e403c2e0e0135f59f1e1c9002928bb5",
      "v": 28,
      "creates": null,
      "raw": "0xf86d8203f0850dc6149aa98252089400587ffa0a43d793209e8e7c24f8ec55fd021220872f7ff1b4a5a000801ca0fe4bee06e8a0187fc442dd03d31d2e02fad99c7b437953a6364a1641df6b6d29a021f0b094774fb6a584cb2587fd98462f7e403c2e0e0135f59f1e1c9002928bb5",
      "networkId": 0,
      "chainId": 0
    },
    {
      "hash": "0xb783e695ed95910c18d61b1f80e881497b77c4d08e594f219cc4fed1462a7491",
      "blockHash": "0xe22739de63a17fe4dcc68034d628e0bbd1f3ebe350be60f67d0f5d0fe73ef0f2",
      "blockNumber": 103174,
      "transactionIndex": 2,
      "confirmations": null,
      "from": "0x55bAf64fc9eAccFFd7Cc643BB61142E1C6ac093e",
      "gasPrice": {
        "_hex": "0xba43b7400"
      },
      "gasLimit": {
        "_hex": "0x55f0"
      },
      "to": "0xfE439e496730A23d448f85fA219972ea04793aB7",
      "value": {
        "_hex": "0xde0b6b3a7640000"
      },
      "nonce": 8,
      "data": "0x",
      "r": "0x575a047e5bd648dbed42502159c3632845cc2648a9b4a449e6247f79314cc07b",
      "s": "0x5aa069bac2d8523bb532364879e8db6c92295702c9a98ef66f016e29e1ee0bb0",
      "v": 27,
      "creates": null,
      "raw": "0xf86c08850ba43b74008255f094fe439e496730a23d448f85fa219972ea04793ab7880de0b6b3a7640000801ba0575a047e5bd648dbed42502159c3632845cc2648a9b4a449e6247f79314cc07ba05aa069bac2d8523bb532364879e8db6c92295702c9a98ef66f016e29e1ee0bb0",
      "networkId": 0,
      "chainId": 0
    }
  ]
}