{
  "hash": "0x9a9bcefa0ce081a4a2919f675abccada6487a870da05e4dd423f2c5866779882",
  "parentHash": "0x3d7d3431a7a6b7a3213d53832b8e9f09027cfc09b17d13772589ad6998291909",
  "number": 85790,
  "timestamp": 1439568892,
  "nonce": "0xd1f4941aac861098",
  "difficulty": 2769120721295,
  "gasLimit": {
    "_hex": "0x2fefd8"
  },
  "gasUsed": {
    "_hex": "0x5208"
  },
  "miner": "0xe6A7a1d47ff21B6321162AEA7C6CB457D5476Bca",
  "extraData": "0x476574682f76312e302e312d38326566323666362f6c696e75782f676f312e34",
  "transactions": [
    {
      "hash": "0xa91285b23c144ff3902062ba14a4bfc7cdf7e88639e5f63077b21f9ff1734dce",
      "blockHash": "0x9a9bcefa0ce081a4a2919f675abccada6487a870da05e4dd423f2c5866779882",
      "blockNumber": 85790,
      "transactionIndex": 0,
      "confirmations": null,
      "from": "0x21D46e5e1C37D3fa2157A393Fa444EafE63646Fa",
      "gasPrice": {
        "_hex": "0xd2b64721a"
      },
      "gasLimit": {
        "_hex": "0x15f90"
      },
      "to": "0x2D1d94521E896625F8Ec3f65171Fa82262Da6BCF",
      "value": {
        "_hex": "0x14d1120d7b1600000"
      },
      "nonce": 2,
      "data": "0x",
      "r": "0x7677691b33287bda2c0f5efc5e5be1b794b4143a7964ce8ae02818099a06cb90",
      "s": "0x1c4f97b35b42a2cc1738713736196eed25c3635a729656abdc09b6f7dc7cce21",
      "v": 27,
      "creates": null,
      "raw": "0xf86e02850d2b64721a83015f90942d1d94521e896625f8ec3f65171fa82262da6bcf89014d1120d7b1600000801ba07677691b33287bda2c0f5efc5e5be1b794b4143a7964ce8ae02818099a06cb90a01c4f97b35b42a2cc1738713736196eed25c3635a729656abdc09b6f7dc7cce21",
      "networkId": 0,
      "chainId": 0
    }
  ]
}