{
  "hash": "0xb62b794cfd0206a98a6d7108f49c5438367c9811709fbe54b32e437c38356fff",
  "parentHash": "0xa337c19ba9d650f23950d986adc2ecaecf48fafcd9b02903711ac75236d3fefe",
  "number": 56798,
  "timestamp": 1439092670,
  "nonce": "0x691511a54f58f9c8",
  "difficulty": 1690316188205,
  "gasLimit": {
    "_hex": "0x2fefd8"
  },
  "gasUsed": {
    "_hex": "0x5208"
  },
  "miner": "0x88D74a59454F6cF3B51ef6b9136AFb6b9D405A88",
  "extraData": "0x476574682f76312e302e312d37666266393930632f6c696e75782f676f312e34",
  "transactions": [
    {
      "hash": "0xa6521ddd4f6f0e5b3815135db8b42b7bd930be61c40c868e897cb30d6d54212e",
      "blockHash": "0xb62b794cfd0206a98a6d7108f49c5438367c9811709fbe54b32e437c38356fff",
      "blockNumber": 56798,
      "transactionIndex": 0,
      "confirmations": null,
      "from": "0x3e24D2A72282bE2807BB9e0B9e6D75ed7776e4fb",
      "gasPrice": {
        "_hex": "0x746a528800"
      },
      "gasLimit": {
        "_hex": "0x5267"
      },
      "to": "0x5a9bC4FDfE098D03128afDCCa4Ff1Ae24fEc72bC",
      "value": {
        "_hex": "0x13e"
      },
      "nonce": 0,
      "data": "0x",
      "r": "0x125364c35bd8caf1f37973ac9082050522f385ae2702cc8e84b3de2a279159cb",
      "s": "0x4e10ae35ea6d7be72a01fa3d06cd014d4561ee0274e0522dfd50b339f042660d",
      "v": 27,
      "creates": null,
      "raw": "0xf8668085746a528800825267945a9bc4fdfe098d03128afdcca4ff1ae24fec72bc82013e801ba0125364c35bd8caf1f37973ac9082050522f385ae2702cc8e84b3de2a279159cba04e10ae35ea6d7be72a01fa3d06cd014d4561ee0274e0522dfd50b339f042660d",
      "networkId": 0,
      "chainId": 0
    }
  ]
}