{
  "hash": "0xce3a7ed8850fdd4e7f9fb8a6d65df2085638d47711e35aead81087409ed42b4f",
  "parentHash": "0xf18589de28ed75962577b94cbddd3b3105c3ad4bc795db9342bff53ff6300e36",
  "number": 113313,
  "timestamp": 1440021297,
  "nonce": "0x86fcb5e9d20fb0c7",
  "difficulty": 4495342453207,
  "gasLimit": {
    "_hex": "0x2fefd8"
  },
  "gasUsed": {
    "_hex": "0xa410"
  },
  "miner": "0x47ff6576639c2e94762eA5443978D7681C0E78DC",
  "extraData": "0x",
  "transactions": [
    {
      "hash": "0xc03bfea6236caf7175b81900ee1454bacf803692207ae1d03a952c7323955dd8",
      "blockHash": "0xce3a7ed8850fdd4e7f9fb8a6d65df2085638d47711e35aead81087409ed42b4f",
      "blockNumber": 113313,
      "transactionIndex": 0,
      "confirmations": null,
      "from": "0x34fDf2118f88a297b3750FAD5eEB307808d08378",
      "gasPrice": {
        "_hex": "0xda235df66"
      },
      "gasLimit": {
        "_hex": "0x5208"
      },
      "to": "0x32Be343B94f860124dC4fEe278FDCBD38C102D88",
      "value": {
        "_hex": "0x105be06b8bdaa000"
      },
      "nonce": 5,
      "data": "0x",
      "r": "0xfd6b17e6ad63013e0abd0e1c8f7f39ba70122dc307e3913791ba3fc525c30375",
      "s": "0x28672a08f7954487acc53d9c3e76c7d50ba78eb1be1b1219a67a6d2b2bd3f899",
      "v": 28,
      "creates": null,
      "raw": "0xf86c05850da235df668252089432be343b94f860124dc4fee278fdcbd38c102d8888105be06b8bdaa000801ca0fd6b17e6ad63013e0abd0e1c8f7f39ba70122dc307e3913791ba3fc525c30375a028672a08f7954487acc53d9c3e76c7d50ba78eb1be1b1219a67a6d2b2bd3f899",
      "networkId": 0,
      "chainId": 0
    },
    {
      "hash": "0xf5531c87a905bd9d47ed41dc7163f5f34775d6b646f3f66bd7fbb7d6f7040d6f",
      "blockHash": "0xce3a7ed8850fdd4e7f9fb8a6d65df2085638d47711e35aead81087409ed42b4f",
      "blockNumber": 113313,
      "transactionIndex": 1,
      "confirmations": null,
      "from": "0x8c0A6b62918D317e3B431EfB67E3fB5eff333b1c",
      "gasPrice": {
        "_hex": "0xba43b7400"
      },
      "gasLimit": {
        "_hex": "0x5208"
      },
      "to": "0xC47Aaa860008be6f65B58c6C6E02a84e666EfE31",
      "value": {
        "_hex": "0x2b5bc6d2c14c36000"
      },
      "nonce": 9,
      "data": "0x",
      "r": "0xc31f1863df3e22a79fe1dc1a62ee5801312f70090ac9a9bfeb8988ed259ea0b6",
      "s": "0x76dd724c02c48ca8acfafe9bd8e78cc42b0b26a37daf1fde26925d61f2f5b0c3",
      "v": 28,
      "creates": null,
      "raw": "0xf86d09850ba43b740082520894c47aaa860008be6f65b58c6c6e02a84e666efe318902b5bc6d2c14c36000801ca0c31f1863df3e22a79fe1dc1a62ee5801312f70090ac9a9bfeb8988ed259ea0b6a076dd724c02c48ca8acfafe9bd8e78cc42b0b26a37daf1fde26925d61f2f5b0c3",
      "networkId": 0,
      "chainId": 0
    }
  ]
}