{
  "hash": "0xe1dd3e67b74476012e0bae7c3eda7221afdcd5151ae4487317176610fa5e4c19",
  "parentHash": "0x4aafe0897b8d8d1c30c19c1606b5f9eb80e1e4f92cd09472f5d8bd3ee8f2d86e",
  "number": 93490,
  "timestamp": 1439691377,
  "nonce": "0x4d536ef2b6996f48",
  "difficulty": 3507545956699,
  "gasLimit": {
    "_hex": "0x2fefd8"
  },
  "gasUsed": {
    "_hex": "0xa410"
  },
  "miner": "0x945133f5F817b984e41D4798b45C9B8ed7CE3EAc",
  "extraData": "0x476574682f76312e302e312f77696e646f77732f676f312e342e32",
  "transactions": [
    {
      "hash": "0xd13b56f321fb0ef62a0ef755a18d15926927244e6f8d8386723461d575950d81",
      "blockHash": "0xe1dd3e67b74476012e0bae7c3eda7221afdcd5151ae4487317176610fa5e4c19",
      "blockNumber": 93490,
      "transactionIndex": 0,
      "confirmations": null,
      "from": "0x32Be343B94f860124dC4fEe278FDCBD38C102D88",
      "gasPrice": {
        "_hex": "0xcf0b2842f"
      },
      "gasLimit": {
        "_hex": "0x5208"
      },
      "to": "0x742259a297d480753626dA79958287165fdD3f64",
      "value": {
        "_hex": "0xdbd2fc137a30000"
      },
      "nonce": 920,
      "data": "0x",
      "r": "0xfdb52832608d8c4bbf5ccfb3b8934d05a85e8da89a9db9ec23255237f58b1248",
      "s": "0x255be5287a5a80543e935ef10b6569fc38ef9899f3290a8a8346b7a43d9602ac",
      "v": 28,
      "creates": null,
      "raw": "0xf86e820398850cf0b2842f82520894742259a297d480753626da79958287165fdd3f64880dbd2fc137a30000801ca0fdb52832608d8c4bbf5ccfb3b8934d05a85e8da89a9db9ec23255237f58b1248a0255be5287a5a80543e935ef10b6569fc38ef9899f3290a8a8346b7a43d9602ac",
      "networkId": 0,
      "chainId": 0
    },
    {
      "hash": "0x7353e02f1ddfeb8f831d4b73b2d3f59987ec0d9048b5db65dfc454d4f10a387a",
      "blockHash": "0xe1dd3e67b74476012e0bae7c3eda7221afdcd5151ae4487317176610fa5e4c19",
      "blockNumber": 93490,
      "transactionIndex": 1,
      "confirmations": null,
      "from": "0x32Be343B94f860124dC4fEe278FDCBD38C102D88",
      "gasPrice": {
        "_hex": "0xcf0b2842f"
      },
      "gasLimit": {
        "_hex": "0x5208"
      },
      "to": "0xCD1e66ED539dd92Fc40bBAa1FA16de8c02C14D45",
      "value": {
        "_hex": "0x4e54a050810cc8000"
      },
      "nonce": 921,
      "data": "0x",
      "r": "0xaf055641bb516570903b384d8bffad0c11291fff80f2aee0063c8c4006a609e0",
      "s": "0x5d755b792cfd2d309811ea13b458336c022b70b30728349a7a49a47fe670192d",
      "v": 27,
      "creates": null,
      "raw": "0xf86f820399850cf0b2842f82520894cd1e66ed539dd92fc40bbaa1fa16de8c02c14d458904e54a050810cc8000801ba0af055641bb516570903b384d8bffad0c11291fff80f2aee0063c8c4006a609e0a05d755b792cfd2d309811ea13b458336c022b70b30728349a7a49a47fe670192d",
      "networkId": 0,
      "chainId": 0
    }
  ]
}