{
  "hash": "0x661d16ad1d5019d0badf8a2f956fb3efe099e84e65ab56ad2fed9940b3a403a3",
  "parentHash": "0xddce1bbd9f18eeb48c5190513ef8d58e9704d6f1cfd7590a0ba39ef96826c2da",
  "number": 106809,
  "timestamp": 1439910925,
  "nonce": "0x458d54c6d8e83750",
  "difficulty": 4433408711609,
  "gasLimit": {
    "_hex": "0x2fefd8"
  },
  "gasUsed": {
    "_hex": "0x5208"
  },
  "miner": "0x223eA75ACE9d7F53BC6c131191Aff34B44bd57aC",
  "extraData": "0x",
  "transactions": [
    {
      "hash": "0x599fbbcf7b11820d9b54f8fb7eba9e83cd3025fb6b6ee520049fbea1a67f7fa1",
      "blockHash": "0x661d16ad1d5019d0badf8a2f956fb3efe099e84e65ab56ad2fed9940b3a403a3",
      "blockNumber": 106809,
      "transactionIndex": 0,
      "confirmations": null,
      "from": "0xc27376f45D21E15edE3b26F2655FceE02Ccc0F2a",
      "gasPrice": {
        "_hex": "0x10349c26fb0"
      },
      "gasLimit": {
        "_hex": "0x55f0"
      },
      "to": "0x0117aCA5D98443a8CE8AeE7aC4BEc8450ABbd852",
      "value": {
        "_hex": "0xde0b6b3a7640000"
      },
      "nonce": 8,
      "data": "0x",
      "r": "0x362bb44c20a2687f43743530ba449204ca250d0c9e6657a598ebb2f8a84a31d9",
      "s": "0x020b10a0d32dd7536f64058fcfabe176a63c96065330e39da770a5ee1c6b159e",
      "v": 27,
      "creates": null,
      "raw": "0xf86d0886010349c26fb08255f0940117aca5d98443a8ce8aee7ac4bec8450abbd852880de0b6b3a7640000801ba0362bb44c20a2687f43743530ba449204ca250d0c9e6657a598ebb2f8a84a31d9a0020b10a0d32dd7536f64058fcfabe176a63c96065330e39da770a5ee1c6b159e",
      "networkId": 0,
      "chainId": 0
    }
  ]
}