{
  "hash": "0xbad48f57b6ed0941067d24b971d5b814ff6b040ba812442f531730c7fab4b4b4",
  "parentHash": "0x3cee66f272dbf1468e3f86b9cf041b3550fcc1b2a1e3244768461952fe918d48",
  "number": 49498,
  "timestamp": 1438974403,
  "nonce": "0x67493a5409205bd5",
  "difficulty": 1479932916264,
  "gasLimit": {
    "_hex": "0x333d7"
  },
  "gasUsed": {
    "_hex": "0xfa14"
  },
  "miner": "0x55bAf64fc9eAccFFd7Cc643BB61142E1C6ac093e",
  "extraData": "0x",
  "transactions": [
    {
      "hash": "0xa4bc7c16de6733659decbcbaa978005f58750df25bdac67c066f9806a25edfe9",
      "blockHash": "0xbad48f57b6ed0941067d24b971d5b814ff6b040ba812442f531730c7fab4b4b4",
      "blockNumber": 49498,
      "transactionIndex": 0,
      "confirmations": null,
      "from": "0xbDE4c73f969b89e9ceAE66A2B51844480E038E9A",
      "gasPrice": {
        "_hex": "0xff5af3ca2e"
      },
      "gasLimit": {
        "_hex": "0x15f90"
      },
      "to": "0x2910543Af39abA0Cd09dBb2D50200b3E800A63D2",
      "value": {
        "_hex": "0x36330322d5238c0000"
      },
      "nonce": 0,
      "data": "0x454e42304a42363352",
      "r": "0x82718e7b0ff5a02e7502855e0ac67da0e0456a7f297a33cd06b5c2f4bc96f7eb",
      "s": "0x65aa3b485af65a85f17146bdd66c4c76321d6725aa12bbea6da4ea3e55d2e915",
      "v": 27,
      "creates": null,
      "raw": "0xf8778085ff5af3ca2e83015f90942910543af39aba0cd09dbb2d50200b3e800a63d28936330322d5238c000089454e42304a423633521ba082718e7b0ff5a02e7502855e0ac67da0e0456a7f297a33cd06b5c2f4bc96f7eba065aa3b485af65a85f17146bdd66c4c76321d6725aa12bbea6da4ea3e55d2e915",
      "networkId": 0,
      "chainId": 0
    },
    {
      "hash": "0x881e366473e0103882624022c794139c99ec711e7825b7c28adff07bab7cd5f0",
      "blockHash": "0xbad48f57b6ed0941067d24b971d5b814ff6b040ba812442f531730c7fab4b4b4",
      "blockNumber": 49498,
      "transactionIndex": 1,
      "confirmations": null,
      "from": "0xE91Df4c9BF7dB929bf5c093da6540cd73B342fD4",
      "gasPrice": {
        "_hex": "0xd3d37f23a"
      },
      "gasLimit": {
        "_hex": "0x59d8"
      },
      "to": "0x858079E02403b10748B71A02195b6608Abaf6b8f",
      "value": {
        "_hex": "0x4563918244f40000"
      },
      "nonce": 0,
      "data": "0x4d696e757335",
      "r": "0x316bacfbd0e891026a87cf53b61f73042dcaeda0496955424d68016bac00fd6d",
      "s": "0x59a4c1b3afb6c403a54a554feb2d163f2dca392046b5a7da2010e4f155eb375f",
      "v": 28,
      "creates": null,
      "raw": "0xf87280850d3d37f23a8259d894858079e02403b10748b71a02195b6608abaf6b8f884563918244f40000864d696e7573351ca0316bacfbd0e891026a87cf53b61f73042dcaeda0496955424d68016bac00fd6da059a4c1b3afb6c403a54a554feb2d163f2dca392046b5a7da2010e4f155eb375f",
      "networkId": 0,
      "chainId": 0
    },
    {
      "hash": "0xb69239e2bd2fc6d2e5868a14225f5e7d626e025f41e2766a63f900eefa25ff18",
      "blockHash": "0xbad48f57b6ed0941067d24b971d5b814ff6b040ba812442f531730c7fab4b4b4",
      "blockNumber": 49498,
      "transactionIndex": 2,
      "confirmations": null,
      "from": "0xb2B4188b76453042a4d799751c095229E50d40c2",
      "gasPrice": {
        "_hex": "0xd1a35bafa"
      },
      "gasLimit": {
        "_hex": "0x5208"
      },
      "to": "0x32Be343B94f860124dC4fEe278FDCBD38C102D88",
      "value": {
        "_hex": "0xad78a898cd51d8000"
      },
      "nonce": 1,
      "data": "0x",
      "r": "0xf1931608a8cb782b3f1959cffeff6ebce8a521b3e7d61caff5871a0b9e93a81c",
      "s": "0x0e91d91a12f9000b8fcc89d29ac9674ab4a19d1d29acb1c118583ad503476515",
      "v": 28,
      "creates": null,
      "raw": "0xf86d01850d1a35bafa8252089432be343b94f860124dc4fee278fdcbd38c102d88890ad78a898cd51d8000801ca0f1931608a8cb782b3f1959cffeff6ebce8a521b3e7d61caff5871a0b9e93a81ca00e91d91a12f9000b8fcc89d29ac9674ab4a19d1d29acb1c118583ad503476515",
      "networkId": 0,
      "chainId": 0
    }
  ]
}