{
  "hash": "0x50d9ff49e654d1626920d1a19064d0ff62abd16a7d37553b065cf034199304e3",
  "parentHash": "0xec2f8d603780a30dd4358c5d87859d9419d83a452ef401f11b98ae9b474978b6",
  "number": 118941,
  "timestamp": 1440133966,
  "nonce": "0xeb5030d227963553",
  "difficulty": 4405438008668,
  "gasLimit": {
    "_hex": "0x2fefd8"
  },
  "gasUsed": {
    "_hex": "0x5208"
  },
  "miner": "0x52bc44d5378309EE2abF1539BF71dE1b7d7bE3b5",
  "extraData": "0xd783010002844765746887676f312e342e32856c696e7578",
  "transactions": [
    {
      "hash": "0x4de98d9c450bb481b7ab14aa53b91be7b5e923cbc8a3913e959bc92b9c470791",
      "blockHash": "0x50d9ff49e654d1626920d1a19064d0ff62abd16a7d37553b065cf034199304e3",
      "blockNumber": 118941,
      "transactionIndex": 0,
      "confirmations": null,
      "from": "0x063814ec45404958A5e6D30b59ea5D95bB9972E0",
      "gasPrice": {
        "_hex": "0xba43b7400"
      },
      "gasLimit": {
        "_hex": "0x15f90"
      },
      "to": "0xeDc1c224e7D9A03E71143A45645d83e12fB0acb5",
      "value": {
        "_hex": "0x6e05e9d9a28dc00"
      },
      "nonce": 0,
      "data": "0x",
      "r": "0x3954d552233196d6d6ff6a8d53f381d47ecc70da5e201ab3fdd296e1b9910d2b",
      "s": "0x396d58a4a44b299e8272fb4c3283962a83f9bff19a2e3bb2533594254fcd29f8",
      "v": 27,
      "creates": null,
      "raw": "0xf86d80850ba43b740083015f9094edc1c224e7d9a03e71143a45645d83e12fb0acb58806e05e9d9a28dc00801ba03954d552233196d6d6ff6a8d53f381d47ecc70da5e201ab3fdd296e1b9910d2ba0396d58a4a44b299e8272fb4c3283962a83f9bff19a2e3bb2533594254fcd29f8",
      "networkId": 0,
      "chainId": 0
    }
  ]
}