{
  "hash": "0xe05b60c9c025a2cf10d4d796c294f6cadce0c30b5a8d5d3c311a0696f231047c",
  "parentHash": "0x952ac87b145ea0d6f343bb0f5a16109d152172186b018a054556dc4bddb3d013",
  "number": 102312,
  "timestamp": 1439835928,
  "nonce": "0x949052b4697946f4",
  "difficulty": 3943343796480,
  "gasLimit": {
    "_hex": "0x2fefd8"
  },
  "gasUsed": {
    "_hex": "0x5208"
  },
  "miner": "0xe6A7a1d47ff21B6321162AEA7C6CB457D5476Bca",
  "extraData": "0x476574682f76312e302e312d38326566323666362f6c696e75782f676f312e34",
  "transactions": [
    {
      "hash": "0x06babf7516303dd3fa6a05e3b22eccff171f62729cfff548574d85fb8a1c5333",
      "blockHash": "0xe05b60c9c025a2cf10d4d796c294f6cadce0c30b5a8d5d3c311a0696f231047c",
      "blockNumber": 102312,
      "transactionIndex": 0,
      "confirmations": null,
      "from": "0xcf00A85f3826941e7A25BFcF9Aac575d40410852",
      "gasPrice": {
        "_hex": "0xcb5bea614"
      },
      "gasLimit": {
        "_hex": "0x15f90"
      },
      "to": "0xD9666150A9dA92d9108198a4072970805a8B3428",
      "value": {
        "_hex": "0x4563918244f40000"
      },
      "nonce": 44,
      "data": "0x",
      "r": "0x3b46957216aac5d2c886f5e50f24c7252c54310d952e59ec69ff384e8841b2ab",
      "s": "0x0a3c3044851402f6cb033991f811427b11e02a001c70984e020ddf71dd704367",
      "v": 28,
      "creates": null,
      "raw": "0xf86d2c850cb5bea61483015f9094d9666150a9da92d9108198a4072970805a8b3428884563918244f40000801ca03b46957216aac5d2c886f5e50f24c7252c54310d952e59ec69ff384e8841b2aba00a3c3044851402f6cb033991f811427b11e02a001c70984e020ddf71dd704367",
      "networkId": 0,
      "chainId": 0
    }
  ]
}