{
  "hash": "0x91048a798512825edfed79ba92f6f2748ba56c51e49c59163880586be7891e57",
  "parentHash": "0x2fbe4f2654ea89aed5564381c0656579e93b05814b5f2d01e67c77b0fa02f684",
  "number": 68659,
  "timestamp": 1439291506,
  "nonce": "0xf2ba8f1072749abd",
  "difficulty": 2019198996530,
  "gasLimit": {
    "_hex": "0x2fefd8"
  },
  "gasUsed": {
    "_hex": "0x23e38"
  },
  "miner": "0x88D74a59454F6cF3B51ef6b9136AFb6b9D405A88",
  "extraData": "0x476574682f76312e302e312d37666266393930632f6c696e75782f676f312e34",
  "transactions": [
    {
      "hash": "0x46729d5b5a09f121023c7aa2d8686920dfc0fe9662de67b08bdf21f9ee4793c5",
      "blockHash": "0x91048a798512825edfed79ba92f6f2748ba56c51e49c59163880586be7891e57",
      "blockNumber": 68659,
      "transactionIndex": 0,
      "confirmations": null,
      "from": "0x7A1c6178DFfBEB02e00Ae8DE2FCFb1c311Ad19A6",
      "gasPrice": {
        "_hex": "0xba43b7400"
      },
      "gasLimit": {
        "_hex": "0x5208"
      },
      "to": "0xD32c1E83032a0E7e230684B29f607af42C72B81B",
      "value": {
        "_hex": "0x1d7684e6875b000"
      },
      "nonce": 1,
      "data": "0x",
      "r": "0x8ae64d1efb43b171621080858d2568fd76fba71826c6d967cf0b8550fae1b789",
      "s": "0x44dde237b6b983bb16776ef43cf96e616943ba2bef0b4da1c462545fb8c6b3d0",
      "v": 27,
      "creates": null,
      "raw": "0xf86c01850ba43b740082520894d32c1e83032a0e7e230684b29f607af42c72b81b8801d7684e6875b000801ba08ae64d1efb43b171621080858d2568fd76fba71826c6d967cf0b8550fae1b789a044dde237b6b983bb16776ef43cf96e616943ba2bef0b4da1c462545fb8c6b3d0",
      "networkId": 0,
      "chainId": 0
    },
    {
      "hash": "0x301302e945e17688af132cec8447718271fa1aa64e4e1ab453eb909b6bfee01b",
      "blockHash": "0x91048a798512825edfed79ba92f6f2748ba56c51e49c59163880586be7891e57",
      "blockNumber": 68659,
      "transactionIndex": 1,
      "confirmations": null,
      "from": "0xcd446049D9F15DBdb0Ed402aD0EaD54D5B39759e",
      "gasPrice": {
        "_hex": "0xba43b7400"
      },
      "gasLimit": {
        "_hex": "0x5208"
      },
      "to": "0x545BD84a81668470e8BaEeb93DFC927697D23e98",
      "value": {
        "_hex": "0x1d7684e6875b000"
      },
      "nonce": 1,
      "data": "0x",
      "r": "0xeabab96ecbabddd95c47cf23fd16e71d234a8237880f7f085b885c69dd6063f4",
      "s": "0x4ba6f631550a46c6ccec50d2067862a52df552ec4d039f5de8131efc376a45ab",
      "v": 27,
      "creates": null,
      "raw": "0xf86c01850ba43b740082520894545bd84a81668470e8baeeb93dfc927697d23e988801d7684e6875b000801ba0eabab96ecbabddd95c47cf23fd16e71d234a8237880f7f085b885c69dd6063f4a04ba6f631550a46c6ccec50d2067862a52df552ec4d039f5de8131efc376a45ab",
      "networkId": 0,
      "chainId": 0
    },
    {
      "hash": "0xbbf1532c1d50918b738a425ae01dfbab7212ba875b7d912823df904926f56a6b",
      "blockHash": "0x91048a798512825edfed79ba92f6f2748ba56c51e49c59163880586be7891e57",
      "blockNumber": 68659,
      "transactionIndex": 2,
      "confirmations": null,
      "from": "0x3AA93Ddb27c17D1E8749BaB8a3eBE1b657120284",
      "gasPrice": {
        "_hex": "0xba43b7400"
      },
      "gasLimit": {
        "_hex": "0x5208"
      },
      "to": "0xF1114b0a9dB8d89Ee378755505cA14af611cD95D",
      "value": {
        "_hex": "0x1d7684e6875b000"
      },
      "nonce": 1,
      "data": "0x",
      "r": "0x9965e04c1d0604a15142d68a25eca50a8ea773f3b64a259697f178232dd85e46",
      "s": "0x5362ab9102c7e210231911a367e349245addd941d50b7fb3afc9ee1bdd1e7d5d",
      "v": 27,
      "creates": null,
      "raw": "0xf86c01850ba43b740082520894f1114b0a9db8d89ee378755505ca14af611cd95d8801d7684e6875b000801ba09965e04c1d0604a15142d68a25eca50a8ea773f3b64a259697f178232dd85e46a05362ab9102c7e210231911a367e349245addd941d50b7fb3afc9ee1bdd1e7d5d",
      "networkId": 0,
      "chainId": 0
    },
    {
      "hash": "0x3e23bb1501649512fcc3a676df58386694f3da1fe3aa5d2216aa250c6f4330b2",
      "blockHash": "0x91048a798512825edfed79ba92f6f2748ba56c51e49c59163880586be7891e57",
      "blockNumber": 68659,
      "transactionIndex": 3,
      "confirmations": null,
      "from": "0xeA40b6DA24CdF11f08D1A30b8c649beFCd75059E",
      "gasPrice": {
        "_hex": "0xba43b7400"
      },
      "gasLimit": {
        "_hex": "0x5208"
      },
      "to": "0x7372F06387e0A6DE60f7B6117E9580D23Ab40E43",
      "value": {
        "_hex": "0x1d7684e6875b000"
      },
      "nonce": 1,
      "data": "0x",
      "r": "0x0c9d413d06e0feeeae9b8e13b317ec311244ecd9c830bd3bb51d22d1f4fa23cf",
      "s": "0x27c4f80a65d53f069698cfe8f80bee5b1b1c4037f3d964b2d9bdf702685739c6",
      "v": 28,
      "creates": null,
      "raw": "0xf86c01850ba43b7400825208947372f06387e0a6de60f7b6117e9580d23ab40e438801d7684e6875b000801ca00c9d413d06e0feeeae9b8e13b317ec311244ecd9c830bd3bb51d22d1f4fa23cfa027c4f80a65d53f069698cfe8f80bee5b1b1c4037f3d964b2d9bdf702685739c6",
      "networkId": 0,
      "chainId": 0
    },
    {
      "hash": "0x78f832a2398b56acc65d35a0615cbe1c12ab064a0aced020599fbcbfd427916b",
      "blockHash": "0x91048a798512825edfed79ba92f6f2748ba56c51e49c59163880586be7891e57",
      "blockNumber": 68659,
      "transactionIndex": 4,
      "confirmations": null,
      "from": "0xb34FfC3789Ca8986F7322C166b0c9bb8357776C6",
      "gasPrice": {
        "_hex": "0xba43b7400"
      },
      "gasLimit": {
        "_hex": "0x5208"
      },
      "to": "0x946daB0F9054c590b8EB9660850aae13c272381D",
      "value": {
        "_hex": "0x1d7684e6875b000"
      },
      "nonce": 1,
      "data": "0x",
      "r": "0x7f402c24125d69627024e066ba49011e43014442b8cc1c0a535729857450464b",
      "s": "0x5e69234b15218329314c2bdc0734f53d42c9e4a31725ccdd7333abc391a1c015",
      "v": 27,
      "creates": null,
      "raw": "0xf86c01850ba43b740082520894946dab0f9054c590b8eb9660850aae13c272381d8801d7684e6875b000801ba07f402c24125d69627024e066ba49011e43014442b8cc1c0a535729857450464ba05e69234b15218329314c2bdc0734f53d42c9e4a31725ccdd7333abc391a1c015",
      "networkId": 0,
      "chainId": 0
    },
    {
      "hash": "0x867e4efa43a107638e1d5c0467ef07afcd6ad5ab1bead71ae46fb4387419e4f6",
      "blockHash": "0x91048a798512825edfed79ba92f6f2748ba56c51e49c59163880586be7891e57",
      "blockNumber": 68659,
      "transactionIndex": 5,
      "confirmations": null,
      "from": "0xdab9265e6192B858e12b14a24A38a8c761573B95",
      "gasPrice": {
        "_hex": "0xba43b7400"
      },
      "gasLimit": {
        "_hex": "0x5208"
      },
      "to": "0x4FFF15213aB3B92929D89947B7dE30d7ed970A1F",
      "value": {
        "_hex": "0x1d7684e6875b000"
      },
      "nonce": 1,
      "data": "0x",
      "r": "0x900f7305030751671a683d3977f85ece7d26e5c03c2abedcc8b2fe31fc15615a",
      "s": "0x00b4f864cde63670d09548c6f57bb7a2623c0d50735716a7cce0e2562448b926",
      "v": 28,
      "creates": null,
      "raw": "0xf86b01850ba43b7400825208944fff15213ab3b92929d89947b7de30d7ed970a1f8801d7684e6875b000801ca0900f7305030751671a683d3977f85ece7d26e5c03c2abedcc8b2fe31fc15615a9fb4f864cde63670d09548c6f57bb7a2623c0d50735716a7cce0e2562448b926",
      "networkId": 0,
      "chainId": 0
    },
    {
      "hash": "0x58e8abb494adb0231b1b21bbd1463f7f24c3c6cee227021fe82e1a5522fa54ab",
      "blockHash": "0x91048a798512825edfed79ba92f6f2748ba56c51e49c59163880586be7891e57",
      "blockNumber": 68659,
      "transactionIndex": 6,
      "confirmations": null,
      "from": "0x1eF52E8A6f6FE661f1d0912Ed966E634E37B1284",
      "gasPrice": {
        "_hex": "0xba43b7400"
      },
      "gasLimit": {
        "_hex": "0x5208"
      },
      "to": "0x519DBf805acC946F7Ac70044f032bc5f14695615",
      "value": {
        "_hex": "0x1d7684e6875b000"
      },
      "nonce": 1,
      "data": "0x",
      "r": "0xf23d0c19e90d14a8eca667df56ff3f86bd6a5aec4e9d1bf57e9d4ebff06af2ae",
      "s": "0x330ee7705017c0ce02c0485f62100ffab0ca32a5fd3c66073557671f6eb2dd11",
      "v": 28,
      "creates": null,
      "raw": "0xf86c01850ba43b740082520894519dbf805acc946f7ac70044f032bc5f146956158801d7684e6875b000801ca0f23d0c19e90d14a8eca667df56ff3f86bd6a5aec4e9d1bf57e9d4ebff06af2aea0330ee7705017c0ce02c0485f62100ffab0ca32a5fd3c66073557671f6eb2dd11",
      "networkId": 0,
      "chainId": 0
    }
  ]
}