{
  "hash": "0xace30c8603317cff2dd4ba7ddfce8e67bc94ea74ec5479ef1c802985551a1662",
  "parentHash": "0xd9d68173bb59563f20ec99fcce92dbc33c25160a1c77dd1257243b1fcf723003",
  "number": 120522,
  "timestamp": 1440161311,
  "nonce": "0xad38d3085398e54b",
  "difficulty": 4424006575604,
  "gasLimit": {
    "_hex": "0x2fefd8"
  },
  "gasUsed": {
    "_hex": "0x5208"
  },
  "miner": "0xe6A7a1d47ff21B6321162AEA7C6CB457D5476Bca",
  "extraData": "0xd783010002844765746887676f312e342e32856c696e7578",
  "transactions": [
    {
      "hash": "0x8fda3564427d18f119aa2309306babc7cd137893bd32260e4c75b9f74d3eeff6",
      "blockHash": "0xace30c8603317cff2dd4ba7ddfce8e67bc94ea74ec5479ef1c802985551a1662",
      "blockNumber": 120522,
      "transactionIndex": 0,
      "confirmations": null,
      "from": "0x90d331F19e4eF54C4Dc2710087EbD8536084a85a",
      "gasPrice": {
        "_hex": "0xdf38ebf38"
      },
      "gasLimit": {
        "_hex": "0x15f90"
      },
      "to": "0x8f22398F1567CDDABA1b6bB1973E62B4992d5c9C",
      "value": {
        "_hex": "0xde0b6b3a7640000"
      },
      "nonce": 0,
      "data": "0x",
      "r": "0x8e8614ab4530943c97f79a3784a31f417cc37005b4c20bf09668ab6db53c31d7",
      "s": "0x37163ca164bf6a4d272bf45a6e4d06965fa56ad8c07cfd982ada191d24859692",
      "v": 28,
      "creates": null,
      "raw": "0xf86d80850df38ebf3883015f90948f22398f1567cddaba1b6bb1973e62b4992d5c9c880de0b6b3a7640000801ca08e8614ab4530943c97f79a3784a31f417cc37005b4c20bf09668ab6db53c31d7a037163ca164bf6a4d272bf45a6e4d06965fa56ad8c07cfd982ada191d24859692",
      "networkId": 0,
      "chainId": 0
    }
  ]
}