{
  "hash": "0x384efbaa2e436b6fab8207242d451ee09a770c22fe9c62397323f7f176ddb33f",
  "parentHash": "0xb8249027bb7b7a90567a4e1ee8d19d7d9db20b108fbd4081cb4975a6a600e2ef",
  "number": 88696,
  "timestamp": 1439612021,
  "nonce": "0xa35e01cb5b9ed68e",
  "difficulty": 3233149916013,
  "gasLimit": {
    "_hex": "0x2fefd8"
  },
  "gasUsed": {
    "_hex": "0x5208"
  },
  "miner": "0xe6A7a1d47ff21B6321162AEA7C6CB457D5476Bca",
  "extraData": "0x476574682f76312e302e312d38326566323666362f6c696e75782f676f312e34",
  "transactions": [
    {
      "hash": "0x095ee24e4b0841d9f9b10a5bdc7f481abbff57f5b65adab3cc1e9eb880410c84",
      "blockHash": "0x384efbaa2e436b6fab8207242d451ee09a770c22fe9c62397323f7f176ddb33f",
      "blockNumber": 88696,
      "transactionIndex": 0,
      "confirmations": null,
      "from": "0x120A270bbC009644e35F0bB6ab13f95b8199c4ad",
      "gasPrice": {
        "_hex": "0xddc0050e5"
      },
      "gasLimit": {
        "_hex": "0x3d090"
      },
      "to": "0xd52B311564bB4Ff6e0f8112c2C3E1C3508C2ddbF",
      "value": {
        "_hex": "0x4fefa17b72400000"
      },
      "nonce": 519,
      "data": "0x",
      "r": "0x78802f0caef3725e7c47b6ad1a1f628fffc028c4f896c3194504d6845a9a73e7",
      "s": "0x1876d70061431301ab0fe878bfd315d51ca3caeb590219ce8d5bab5277fda2bf",
      "v": 28,
      "creates": null,
      "raw": "0xf86f820207850ddc0050e58303d09094d52b311564bb4ff6e0f8112c2c3e1c3508c2ddbf884fefa17b72400000801ca078802f0caef3725e7c47b6ad1a1f628fffc028c4f896c3194504d6845a9a73e7a01876d70061431301ab0fe878bfd315d51ca3caeb590219ce8d5bab5277fda2bf",
      "networkId": 0,
      "chainId": 0
    }
  ]
}