{
  "hash": "0x33e53abcb061945d60c8e1260bca2f5d3cf53efe4d8a687c939a970d7616c9fc",
  "parentHash": "0x2bf202e1117e1e271f2bf821f1ef1200d9c77a3351b269c2f5545e456e292e3e",
  "number": 71813,
  "timestamp": 1439342408,
  "nonce": "0x08c8e810a5c3ad33",
  "difficulty": 2167585723544,
  "gasLimit": {
    "_hex": "0x2fefd8"
  },
  "gasUsed": {
    "_hex": "0x5208"
  },
  "miner": "0xe6A7a1d47ff21B6321162AEA7C6CB457D5476Bca",
  "extraData": "0x476574682f76312e302e312d38326566323666362f6c696e75782f676f312e34",
  "transactions": [
    {
      "hash": "0x4e023f9cfa19b77f7ab4332102f84d33f550454a4eab11ef5b81b523d6c783e8",
      "blockHash": "0x33e53abcb061945d60c8e1260bca2f5d3cf53efe4d8a687c939a970d7616c9fc",
      "blockNumber": 71813,
      "transactionIndex": 0,
      "confirmations": null,
      "from": "0x2910543Af39abA0Cd09dBb2D50200b3E800A63D2",
      "gasPrice": {
        "_hex": "0xd558491cb"
      },
      "gasLimit": {
        "_hex": "0x5208"
      },
      "to": "0x675f7F19C4852879594ebC3F517b5094A838408D",
      "value": {
        "_hex": "0xd8d60a7f83fc78000"
      },
      "nonce": 277,
      "data": "0x",
      "r": "0x4e7736860da8e9b3ca50d007bd1fc73e6a7b87671006f60b90449ccb6d3671c1",
      "s": "0x1455d76033c51fee2e3bd26531e7b0920bc54f754bc3173adb934b06fc1661ff",
      "v": 27,
      "creates": null,
      "raw": "0xf86f820115850d558491cb82520894675f7f19c4852879594ebc3f517b5094a838408d890d8d60a7f83fc78000801ba04e7736860da8e9b3ca50d007bd1fc73e6a7b87671006f60b90449ccb6d3671c1a01455d76033c51fee2e3bd26531e7b0920bc54f754bc3173adb934b06fc1661ff",
      "networkId": 0,
      "chainId": 0
    }
  ]
}