{
  "hash": "0x206f957de21dac48cc9f691f45414ea178e0f0837a29caae8fde1256e49f7a02",
  "parentHash": "0x03b1ed81fa26a4c7a870c543862850a0e243e031d58bfec5875f7095ab7fd653",
  "number": 53710,
  "timestamp": 1439042376,
  "nonce": "0xbb2e61528260888b",
  "difficulty": 1593150346852,
  "gasLimit": {
    "_hex": "0x2fefd8"
  },
  "gasUsed": {
    "_hex": "0x5208"
  },
  "miner": "0x9746c7e1ef2bd21FF3997fa467593a89cb852BD0",
  "extraData": "0x476574682f76312e302e312f77696e646f77732f676f312e342e32",
  "transactions": [
    {
      "hash": "0x5683fa2f69700e061adcbae170b8834e47cf5ac2a095eb927235dd5dcd849dcb",
      "blockHash": "0x206f957de21dac48cc9f691f45414ea178e0f0837a29caae8fde1256e49f7a02",
      "blockNumber": 53710,
      "transactionIndex": 0,
      "confirmations": null,
      "from": "0x0037ce3d4B7f8729C8607D8D0248252Be68202c0",
      "gasPrice": {
        "_hex": "0xda018581b"
      },
      "gasLimit": {
        "_hex": "0x15f90"
      },
      "to": "0xDC6A542F97876923583019b526335fD1fB0DfC6A",
      "value": {
        "_hex": "0x183b5f03b1479c0000"
      },
      "nonce": 6,
      "data": "0x",
      "r": "0x8d798d299c390be4e43846c11ac9395a2107c4595f4d3d6defab167145e2ec9e",
      "s": "0x4c815789bbbd4a9c20a196e047c2a4cc8772f0bc5dd0f2509185d1883b929e13",
      "v": 28,
      "creates": null,
      "raw": "0xf86e06850da018581b83015f9094dc6a542f97876923583019b526335fd1fb0dfc6a89183b5f03b1479c0000801ca08d798d299c390be4e43846c11ac9395a2107c4595f4d3d6defab167145e2ec9ea04c815789bbbd4a9c20a196e047c2a4cc8772f0bc5dd0f2509185d1883b929e13",
      "networkId": 0,
      "chainId": 0
    }
  ]
}