{
  "hash": "0x31efe03cd4a0977ac2bc8e5f50155743f4a12d456f2dc69af9aa2c29e2951240",
  "parentHash": "0x0781ae09cee40c825d18b5733e33e5b250e3a5997d774f5002a28e4470e2b27c",
  "number": 47499,
  "timestamp": 1438941621,
  "nonce": "0xc27f591689b6de9d",
  "difficulty": 1446701067788,
  "gasLimit": {
    "_hex": "0xc6fc"
  },
  "gasUsed": {
    "_hex": "0x5208"
  },
  "miner": "0xecAb9B89BbB858a7e3DDe3ed0b13946eDAEb5533",
  "extraData": "0x476574682f76312e302e312d38326566323666362f6c696e75782f676f312e34",
  "transactions": [
    {
      "hash": "0x357d1db6ee50f7998f9810fc405d8cb84e29da8766bce423c666832b05e0b8b4",
      "blockHash": "0x31efe03cd4a0977ac2bc8e5f50155743f4a12d456f2dc69af9aa2c29e2951240",
      "blockNumber": 47499,
      "transactionIndex": 0,
      "confirmations": null,
      "from": "0xF9A19Aea1193D9b9E4ef2F5B8c9eC8df93a22356",
      "gasPrice": {
        "_hex": "0x2253473f7e"
      },
      "gasLimit": {
        "_hex": "0x5208"
      },
      "to": "0x32Be343B94f860124dC4fEe278FDCBD38C102D88",
      "value": {
        "_hex": "0x6efacb04d72b8c00"
      },
      "nonce": 3,
      "data": "0x",
      "r": "0xe910c933b2f44d5c281de7ebfc52f8e8cd708185accf9168ec630aa303a46790",
      "s": "0x10c9b0569a43e65b158b6cbcc3cdc85435a463aac2094a1d49424a82f2c8b5fc",
      "v": 27,
      "creates": null,
      "raw": "0xf86c03852253473f7e8252089432be343b94f860124dc4fee278fdcbd38c102d88886efacb04d72b8c00801ba0e910c933b2f44d5c281de7ebfc52f8e8cd708185accf9168ec630aa303a46790a010c9b0569a43e65b158b6cbcc3cdc85435a463aac2094a1d49424a82f2c8b5fc",
      "networkId": 0,
      "chainId": 0
    }
  ]
}