{
  "hash": "0x54e2761b4d3a126099b79639c30893dd241406705305cee5b62b9b442f64d738",
  "parentHash": "0xa0e156489cc1624236d29cd9f1751203fa9b1fd32e5d94c90047a860552ee587",
  "number": 94737,
  "timestamp": 1439713433,
  "nonce": "0x37b81ba08d591c78",
  "difficulty": 3478034027095,
  "gasLimit": {
    "_hex": "0x2fefd8"
  },
  "gasUsed": {
    "_hex": "0x23e38"
  },
  "miner": "0xa50ec0D39fa913E62f1Bae7074E6F36caA71855b",
  "extraData": "0xd783010001844765746887676f312e342e32856c696e7578",
  "transactions": [
    {
      "hash": "0x0278d02066c373ae83d94e436bfa092697a000eea674e2293b1fec607f8939cd",
      "blockHash": "0x54e2761b4d3a126099b79639c30893dd241406705305cee5b62b9b442f64d738",
      "blockNumber": 94737,
      "transactionIndex": 0,
      "confirmations": null,
      "from": "0x7ceE0020B379cA6AB79a6821639aF44BB82aCfA8",
      "gasPrice": {
        "_hex": "0xdd41af69d"
      },
      "gasLimit": {
        "_hex": "0x5208"
      },
      "to": "0x32Be343B94f860124dC4fEe278FDCBD38C102D88",
      "value": {
        "_hex": "0x1d13566e621ef6000"
      },
      "nonce": 1,
      "data": "0x",
      "r": "0x50a285cbeb07b63a828cf75b70dedde8a22937e1347772448e100b126580dbe9",
      "s": "0x14b409bf3e4bcde673925221278dd9e817f48ad9c5ee4db37c704ab3c8e0475c",
      "v": 28,
      "creates": null,
      "raw": "0xf86d01850dd41af69d8252089432be343b94f860124dc4fee278fdcbd38c102d888901d13566e621ef6000801ca050a285cbeb07b63a828cf75b70dedde8a22937e1347772448e100b126580dbe9a014b409bf3e4bcde673925221278dd9e817f48ad9c5ee4db37c704ab3c8e0475c",
      "networkId": 0,
      "chainId": 0
    },
    {
      "hash": "0xd4ff59488b022b0506a7b7d6bc8f19a4f407fbe6e6af3a339ef0aeeaa591bf33",
      "blockHash": "0x54e2761b4d3a126099b79639c30893dd241406705305cee5b62b9b442f64d738",
      "blockNumber": 94737,
      "transactionIndex": 1,
      "confirmations": null,
      "from": "0x2aBD9e50d51e97aFc9a984f64657eD9539c59c91",
      "gasPrice": {
        "_hex": "0xdad2a06d8"
      },
      "gasLimit": {
        "_hex": "0x5208"
      },
      "to": "0x32Be343B94f860124dC4fEe278FDCBD38C102D88",
      "value": {
        "_hex": "0x1b1ae07f7e37720000"
      },
      "nonce": 9,
      "data": "0x",
      "r": "0xf1287da03d0e7871eb05bac340f5c0fbc4a1f74c30e8c7a22251c70dfd772df0",
      "s": "0x0bc9167ecccb9f621345d8c1301dfceb65fbe1ad077f4f7216676fb520c74ebb",
      "v": 27,
      "creates": null,
      "raw": "0xf86d09850dad2a06d88252089432be343b94f860124dc4fee278fdcbd38c102d88891b1ae07f7e37720000801ba0f1287da03d0e7871eb05bac340f5c0fbc4a1f74c30e8c7a22251c70dfd772df0a00bc9167ecccb9f621345d8c1301dfceb65fbe1ad077f4f7216676fb520c74ebb",
      "networkId": 0,
      "chainId": 0
    },
    {
      "hash": "0xdb482043b23523aced418d03ee32bd3b2de3b65338145f896128d12abc2d30bf",
      "blockHash": "0x54e2761b4d3a126099b79639c30893dd241406705305cee5b62b9b442f64d738",
      "blockNumber": 94737,
      "transactionIndex": 2,
      "confirmations": null,
      "from": "0xE3535c3A7F74fDd1447140e98FA5fE310028f40f",
      "gasPrice": {
        "_hex": "0xdad2a06d8"
      },
      "gasLimit": {
        "_hex": "0x5208"
      },
      "to": "0x32Be343B94f860124dC4fEe278FDCBD38C102D88",
      "value": {
        "_hex": "0x28e1792c9a398e000"
      },
      "nonce": 4,
      "data": "0x",
      "r": "0x3d46670b8d695b4a9bb6574f3ae3c2c5549641d61d568a8cf9e0be047e7b910f",
      "s": "0x0293cb47d0e2f9431d7c99424def8f6c17c2b45ca3bcad8a06450c18a3679b92",
      "v": 28,
      "creates": null,
      "raw": "0xf86d04850dad2a06d88252089432be343b94f860124dc4fee278fdcbd38c102d8889028e1792c9a398e000801ca03d46670b8d695b4a9bb6574f3ae3c2c5549641d61d568a8cf9e0be047e7b910fa00293cb47d0e2f9431d7c99424def8f6c17c2b45ca3bcad8a06450c18a3679b92",
      "networkId": 0,
      "chainId": 0
    },
    {
      "hash": "0xdf9eb9859f3a5e9aa1398db851f3c332294732b9facfad4693c8b78752819423",
      "blockHash": "0x54e2761b4d3a126099b79639c30893dd241406705305cee5b62b9b442f64d738",
      "blockNumber": 94737,
      "transactionIndex": 3,
      "confirmations": null,
      "from": "0xa70a9a7040d542C632D8e0bE7c5513A8a5Bbc752",
      "gasPrice": {
        "_hex": "0xdad2a06d8"
      },
      "gasLimit": {
        "_hex": "0x5208"
      },
      "to": "0x32Be343B94f860124dC4fEe278FDCBD38C102D88",
      "value": {
        "_hex": "0x8acfbdab1acf2000"
      },
      "nonce": 151,
      "data": "0x",
      "r": "0x745638d0fa4a9bd5bc45bb0443a53122810b14b9870099fb2367e68609e330e9",
      "s": "0x5da2f54aab12ddd7bd2e6129d9fb4a62d4a51a0f83c73c84d3d0c049f028a1da",
      "v": 28,
      "creates": null,
      "raw": "0xf86d8197850dad2a06d88252089432be343b94f860124dc4fee278fdcbd38c102d88888acfbdab1acf2000801ca0745638d0fa4a9bd5bc45bb0443a53122810b14b9870099fb2367e68609e330e9a05da2f54aab12ddd7bd2e6129d9fb4a62d4a51a0f83c73c84d3d0c049f028a1da",
      "networkId": 0,
      "chainId": 0
    },
    {
      "hash": "0xf41b5c5098e2eefe352dc494f518f6370de261e2f094a992a9532121744e41fc",
      "blockHash": "0x54e2761b4d3a126099b79639c30893dd241406705305cee5b62b9b442f64d738",
      "blockNumber": 94737,
      "transactionIndex": 4,
      "confirmations": null,
      "from": "0x8C37447a7930187595EC51FEA6f749C4F8a96cD4",
      "gasPrice": {
        "_hex": "0xdad2a06d8"
      },
      "gasLimit": {
        "_hex": "0x5208"
      },
      "to": "0x32Be343B94f860124dC4fEe278FDCBD38C102D88",
      "value": {
        "_hex": "0x11e02c1769de2d000"
      },
      "nonce": 3,
      "data": "0x",
      "r": "0x3dbb8f3ed6e2048d14b2a62cfc1dafa7dcb22967649a63025d575e3d1e4958f3",
      "s": "0x555f05a20b85a36a8e11ae4978e0ed73434553e31f224802f973537aee7a31de",
      "v": 28,
      "creates": null,
      "raw": "0xf86d03850dad2a06d88252089432be343b94f860124dc4fee278fdcbd38c102d8889011e02c1769de2d000801ca03dbb8f3ed6e2048d14b2a62cfc1dafa7dcb22967649a63025d575e3d1e4958f3a0555f05a20b85a36a8e11ae4978e0ed73434553e31f224802f973537aee7a31de",
      "networkId": 0,
      "chainId": 0
    },
    {
      "hash": "0x94a3d054166d5142feb284277e742d290c56d7340488e86895f30d98d63bcc75",
      "blockHash": "0x54e2761b4d3a126099b79639c30893dd241406705305cee5b62b9b442f64d738",
      "blockNumber": 94737,
      "transactionIndex": 5,
      "confirmations": null,
      "from": "0xa6BDc31c431B8F97848c9D60cbbe9660dc450eB7",
      "gasPrice": {
        "_hex": "0xdad2a06d8"
      },
      "gasLimit": {
        "_hex": "0x5208"
      },
      "to": "0x32Be343B94f860124dC4fEe278FDCBD38C102D88",
      "value": {
        "_hex": "0x478a4c2ac1a35c00"
      },
      "nonce": 112,
      "data": "0x",
      "r": "0x8d44626dd2f303adbe47b297ae21eb10cf1fe4b6ef8d3612d98db1e0108c712c",
      "s": "0x19554322ed5acbf46cbe339cd989c8b7df3d081cf226b14ee1cc2375e62c5acf",
      "v": 28,
      "creates": null,
      "raw": "0xf86c70850dad2a06d88252089432be343b94f860124dc4fee278fdcbd38c102d8888478a4c2ac1a35c00801ca08d44626dd2f303adbe47b297ae21eb10cf1fe4b6ef8d3612d98db1e0108c712ca019554322ed5acbf46cbe339cd989c8b7df3d081cf226b14ee1cc2375e62c5acf",
      "networkId": 0,
      "chainId": 0
    },
    {
      "hash": "0x7b45a43c2a1a305335285250562f6c07e49bc25c0414afb75158816c82d1fa77",
      "blockHash": "0x54e2761b4d3a126099b79639c30893dd241406705305cee5b62b9b442f64d738",
      "blockNumber": 94737,
      "transactionIndex": 6,
      "confirmations": null,
      "from": "0x6F2a83BC1c1846bf84ffC43B8776f1AA4a9F890F",
      "gasPrice": {
        "_hex": "0xdab3d5a15"
      },
      "gasLimit": {
        "_hex": "0x15f90"
      },
      "to": "0x01Ad0ACFf478127D9d702B1A13599D706cB759b1",
      "value": {
        "_hex": "0x1156abf16a40f0000"
      },
      "nonce": 1,
      "data": "0x",
      "r": "0xfd28bbf9c848798f6e0154d470934202625525ed53149435bf4da319fa0608bb",
      "s": "0x3b0e8be8a139f76ecfc6e98953e49c9d2f7baf1f431ace89a0141e81efbd5617",
      "v": 27,
      "creates": null,
      "raw": "0xf86e01850dab3d5a1583015f909401ad0acff478127d9d702b1a13599d706cb759b18901156abf16a40f0000801ba0fd28bbf9c848798f6e0154d470934202625525ed53149435bf4da319fa0608bba03b0e8be8a139f76ecfc6e98953e49c9d2f7baf1f431ace89a0141e81efbd5617",
      "networkId": 0,
      "chainId": 0
    }
  ]
}