{
  "hash": "0x0a9109516e7cdea38302523c9d2e3771d06a340c6f29abcb84c5fd746b16191a",
  "parentHash": "0xfd445777fa01fd19dc79542654f4d6e7f3f3f7773980100efef60726e450a8ee",
  "number": 114028,
  "timestamp": 1440033639,
  "nonce": "0xac9c72bc49132ae8",
  "difficulty": 4440422739524,
  "gasLimit": {
    "_hex": "0x2fefd8"
  },
  "gasUsed": {
    "_hex": "0x5208"
  },
  "miner": "0x47ff6576639c2e94762eA5443978D7681C0E78DC",
  "extraData": "0x",
  "transactions": [
    {
      "hash": "0xf98a7fdc375f8b4995b5fd57e48e0227d25bc53fda693572ba3de0c9aecc6aa9",
      "blockHash": "0x0a9109516e7cdea38302523c9d2e3771d06a340c6f29abcb84c5fd746b16191a",
      "blockNumber": 114028,
      "transactionIndex": 0,
      "confirmations": null,
      "from": "0x32Be343B94f860124dC4fEe278FDCBD38C102D88",
      "gasPrice": {
        "_hex": "0xd47dd73e1"
      },
      "gasLimit": {
        "_hex": "0x5208"
      },
      "to": "0x120A270bbC009644e35F0bB6ab13f95b8199c4ad",
      "value": {
        "_hex": "0x14542ba12a337c00000"
      },
      "nonce": 1376,
      "data": "0x",
      "r": "0x3a1599b1fa4b4320aa7248235871799950479d17bee06e1c51224631401f969f",
      "s": "0x583d4d3268ce7b5c8544c1528c6d3a6e27c3ac311365460684f23729b2d2a260",
      "v": 28,
      "creates": null,
      "raw": "0xf870820560850d47dd73e182520894120a270bbc009644e35f0bb6ab13f95b8199c4ad8a014542ba12a337c00000801ca03a1599b1fa4b4320aa7248235871799950479d17bee06e1c51224631401f969fa0583d4d3268ce7b5c8544c1528c6d3a6e27c3ac311365460684f23729b2d2a260",
      "networkId": 0,
      "chainId": 0
    }
  ]
}