{
  "hash": "0x80f99d60aa9b20800f4263fe7b65e378fb10e816a1877b6a0c9eb75e1167e527",
  "parentHash": "0x2f3e05ed8237f24f4f1e4a005cbd54b9732b58e14692fc283eb523373110efaf",
  "number": 52628,
  "timestamp": 1439024705,
  "nonce": "0x6f127f5b665fa567",
  "difficulty": 1567122016775,
  "gasLimit": {
    "_hex": "0x169623"
  },
  "gasUsed": {
    "_hex": "0xf4240"
  },
  "miner": "0x1E79617E91b265330Cdb34B9a2d2925855323113",
  "extraData": "0xdd809b302e392e34302b2b383832362d5257696e646f2f6d73762f4a4954",
  "transactions": [
    {
      "hash": "0x3c7efbf8bb0c23553b4c929a0851444013b06fbc1f399886ea23a0a26a778140",
      "blockHash": "0x80f99d60aa9b20800f4263fe7b65e378fb10e816a1877b6a0c9eb75e1167e527",
      "blockNumber": 52628,
      "transactionIndex": 0,
      "confirmations": null,
      "from": "0xdFEa98c36ccCe9785DAFd1932E128d53621DA69b",
      "gasPrice": {
        "_hex": "0xdb0d59d68"
      },
      "gasLimit": {
        "_hex": "0x7a120"
      },
      "to": "0x109C4f2CCc82C4d77Bde15F306707320294Aea3F",
      "value": {
        "_hex": "0xde0b6b3a7640000"
      },
      "nonce": 2,
      "data": "0x",
      "r": "0xe764156519cb311033ca073bff85485697097784ea41b5b0662ed7ad2795019a",
      "s": "0x1647eb585784b981f37db02e903cbec0eebdce3715898a08816f0a27f9239571",
      "v": 28,
      "creates": null,
      "raw": "0xf86d02850db0d59d688307a12094109c4f2ccc82c4d77bde15f306707320294aea3f880de0b6b3a7640000801ca0e764156519cb311033ca073bff85485697097784ea41b5b0662ed7ad2795019aa01647eb585784b981f37db02e903cbec0eebdce3715898a08816f0a27f9239571",
      "networkId": 0,
      "chainId": 0
    },
    {
      "hash": "0x26f8d7600ca8a7831f60dd65cb7b5885908a42fc4569bc8856cb58ef98e47a28",
      "blockHash": "0x80f99d60aa9b20800f4263fe7b65e378fb10e816a1877b6a0c9eb75e1167e527",
      "blockNumber": 52628,
      "transactionIndex": 1,
      "confirmations": null,
      "from": "0x54dAeb3E8a6BBC797E4aD2b0339f134b186e4637",
      "gasPrice": {
        "_hex": "0xe7d27df17"
      },
      "gasLimit": {
        "_hex": "0x7a120"
      },
      "to": "0xBAA54d6E90c3F4d7Ebec11bD180134C7eD8eBb52",
      "value": {
        "_hex": "0x16345785d8a0000"
      },
      "nonce": 818,
      "data": "0x",
      "r": "0x2dc70c467773de8ba9dfe958bc370ee32502a1d939a6fda5a80e4497147638c3",
      "s": "0x4b610e9038180848fce5a2850ae34b4b004e7799c127d844e758b5c235c89483",
      "v": 28,
      "creates": null,
      "raw": "0xf86f820332850e7d27df178307a12094baa54d6e90c3f4d7ebec11bd180134c7ed8ebb5288016345785d8a0000801ca02dc70c467773de8ba9dfe958bc370ee32502a1d939a6fda5a80e4497147638c3a04b610e9038180848fce5a2850ae34b4b004e7799c127d844e758b5c235c89483",
      "networkId": 0,
      "chainId": 0
    }
  ]
}