{
  "hash": "0x4a2da72f250929b98524afea7f00ccbe1dbfeefe7d918915a0c21bdd570bf070",
  "parentHash": "0xb956f5824455f5f4d2d59007b6faf9ecbf250ea2961bbeeeabe099a718b16992",
  "number": 78720,
  "timestamp": 1439458189,
  "nonce": "0xe6fd395dcdd8f4fc",
  "difficulty": 2299862177258,
  "gasLimit": {
    "_hex": "0x2fefd8"
  },
  "gasUsed": {
    "_hex": "0x5208"
  },
  "miner": "0xf8E0CA3Ed80bd541b94BEdCf259e8CF2141A9523",
  "extraData": "0x476574682f76312e302e312f77696e646f77732f676f312e342e32",
  "transactions": [
    {
      "hash": "0x5373be488ff5a1b5a8c398c37721b9dc0553502bbacb2cd891f21acbb37a69f8",
      "blockHash": "0x4a2da72f250929b98524afea7f00ccbe1dbfeefe7d918915a0c21bdd570bf070",
      "blockNumber": 78720,
      "transactionIndex": 0,
      "confirmations": null,
      "from": "0x31353beec2eD3DFfC213c27A9F28ad8dfee828e9",
      "gasPrice": {
        "_hex": "0xcf911f3b0"
      },
      "gasLimit": {
        "_hex": "0x15f90"
      },
      "to": "0xfDC46f32a632B2B3D5d18776B2FD8Cce5E6C37dd",
      "value": {
        "_hex": "0xde0b6b3a7640000"
      },
      "nonce": 0,
      "data": "0x",
      "r": "0xc1324815f1ae411ff1830e7792c48820aeed790b7434d8c39f6bdd2c4e88fa5b",
      "s": "0x68a5d4360b5466b33c7a5c5d2f0793925bb437ef43a57866d843c7862683a978",
      "v": 28,
      "creates": null,
      "raw": "0xf86d80850cf911f3b083015f9094fdc46f32a632b2b3d5d18776b2fd8cce5e6c37dd880de0b6b3a7640000801ca0c1324815f1ae411ff1830e7792c48820aeed790b7434d8c39f6bdd2c4e88fa5ba068a5d4360b5466b33c7a5c5d2f0793925bb437ef43a57866d843c7862683a978",
      "networkId": 0,
      "chainId": 0
    }
  ]
}