{
  "hash": "0xf973857d346bcc2383e7db3848f645eae471feb3a4301b9486f709bed9173829",
  "parentHash": "0xac5124513048133c7b7ef61c1ad8cdcd7de2fdc5b913c929d45a3607f20116ce",
  "number": 113657,
  "timestamp": 1440027319,
  "nonce": "0xf68cde1f5d8f390d",
  "difficulty": 4451473729906,
  "gasLimit": {
    "_hex": "0x2fefd8"
  },
  "gasUsed": {
    "_hex": "0x5208"
  },
  "miner": "0xe6A7a1d47ff21B6321162AEA7C6CB457D5476Bca",
  "extraData": "0x476574682f76312e302e312d38326566323666362f6c696e75782f676f312e34",
  "transactions": [
    {
      "hash": "0xc358a1f94470ea7e54b83054bfbd02c67428cd618d0906cf4ab6c85359bd98a7",
      "blockHash": "0xf973857d346bcc2383e7db3848f645eae471feb3a4301b9486f709bed9173829",
      "blockNumber": 113657,
      "transactionIndex": 0,
      "confirmations": null,
      "from": "0x1151790FE5F7C3113dfb07Dc3914B1916EcC8a7A",
      "gasPrice": {
        "_hex": "0xcfc358e2f"
      },
      "gasLimit": {
        "_hex": "0x5208"
      },
      "to": "0x32Be343B94f860124dC4fEe278FDCBD38C102D88",
      "value": {
        "_hex": "0x139eedcfd9436400"
      },
      "nonce": 6,
      "data": "0x",
      "r": "0x3bc753b6046a0759a88c9448a40b66395edccf9e57543e386d9850cb87a4749e",
      "s": "0x2f9cff409c46ac04aed0f1169583c4a83ae8f1956233cb53ec3748d2fce614b2",
      "v": 27,
      "creates": null,
      "raw": "0xf86c06850cfc358e2f8252089432be343b94f860124dc4fee278fdcbd38c102d8888139eedcfd9436400801ba03bc753b6046a0759a88c9448a40b66395edccf9e57543e386d9850cb87a4749ea02f9cff409c46ac04aed0f1169583c4a83ae8f1956233cb53ec3748d2fce614b2",
      "networkId": 0,
      "chainId": 0
    }
  ]
}