{
  "hash": "0x407d013bc1342a70702c1bfa9d952c54d089c5256db9aecb4a7d2985921bf1b1",
  "parentHash": "0x1dfc64522bbb5511427320518c89d56a10b61b54f3fb8b0fe8ae7751fa090080",
  "number": 93486,
  "timestamp": 1439691240,
  "nonce": "0x155f8285e2fbc022",
  "difficulty": 3514405003208,
  "gasLimit": {
    "_hex": "0x2fefd5"
  },
  "gasUsed": {
    "_hex": "0x5208"
  },
  "miner": "0xF2d2AfF1320476cb8C6b607199D23175cc595693",
  "extraData": "0x476574682f76312e302e312f77696e646f77732f676f312e342e32",
  "transactions": [
    {
      "hash": "0xb51169a5deca8fba72ff18a8b2c1b730b2800fa2621eee640017e4da173edb17",
      "blockHash": "0x407d013bc1342a70702c1bfa9d952c54d089c5256db9aecb4a7d2985921bf1b1",
      "blockNumber": 93486,
      "transactionIndex": 0,
      "confirmations": null,
      "from": "0x2910543Af39abA0Cd09dBb2D50200b3E800A63D2",
      "gasPrice": {
        "_hex": "0xcc4eb4548"
      },
      "gasLimit": {
        "_hex": "0x5208"
      },
      "to": "0xB0bA9ec050654A083c88777e30261F815cB0A3B7",
      "value": {
        "_hex": "0xc326f192f5a988000"
      },
      "nonce": 853,
      "data": "0x",
      "r": "0x3ef14d60ceef6486eafe7c977ebbccac40d44c3e6662606441906c3b45262121",
      "s": "0x319f276d7d9e0394a7dfcfc828da71782c6f6aa4e4124465acfc96362a1f07f4",
      "v": 28,
      "creates": null,
      "raw": "0xf86f820355850cc4eb454882520894b0ba9ec050654a083c88777e30261f815cb0a3b7890c326f192f5a988000801ca03ef14d60ceef6486eafe7c977ebbccac40d44c3e6662606441906c3b45262121a0319f276d7d9e0394a7dfcfc828da71782c6f6aa4e4124465acfc96362a1f07f4",
      "networkId": 0,
      "chainId": 0
    }
  ]
}