{
  "hash": "0x7df0dd6299ce5bf163d58708446dc120c0e8ca0e50c7085f04dd4f039382c67a",
  "parentHash": "0x49d6f12205e723d1d992632f8af86ee44d1c482ae0d9e41f14dc8d123fc3e2a1",
  "number": 61088,
  "timestamp": 1439166593,
  "nonce": "0x8649bb5a4106b0b6",
  "difficulty": 1726141505309,
  "gasLimit": {
    "_hex": "0x2fefd8"
  },
  "gasUsed": {
    "_hex": "0x5208"
  },
  "miner": "0x47ff6576639c2e94762eA5443978D7681C0E78DC",
  "extraData": "0x476574682f76312e302e312f6c696e75782f676f312e342e32",
  "transactions": [
    {
      "hash": "0x250c67d23535b97f17fe7539cf408a63ef1c7787cbcab3cc1c20feaa44cc95f4",
      "blockHash": "0x7df0dd6299ce5bf163d58708446dc120c0e8ca0e50c7085f04dd4f039382c67a",
      "blockNumber": 61088,
      "transactionIndex": 0,
      "confirmations": null,
      "from": "0xA10C59651885FeAaac91F871082a23BBbaBeDfCf",
      "gasPrice": {
        "_hex": "0x10b2a4fea4b"
      },
      "gasLimit": {
        "_hex": "0x5208"
      },
      "to": "0x4c74B6F32c9680aCB5Fe0e72B7Aa95C612540A04",
      "value": {
        "_hex": "0x56bc75e2d63100000"
      },
      "nonce": 6,
      "data": "0x",
      "r": "0xecd5bb495b590fc46815b93e266098b16e1d64636e4ff63b5a4f094ce694b108",
      "s": "0x29577f0bbec563ed36763db9295a2d89b3f9296c44a435666565d41d1434480d",
      "v": 27,
      "creates": null,
      "raw": "0xf86e0686010b2a4fea4b825208944c74b6f32c9680acb5fe0e72b7aa95c612540a0489056bc75e2d63100000801ba0ecd5bb495b590fc46815b93e266098b16e1d64636e4ff63b5a4f094ce694b108a029577f0bbec563ed36763db9295a2d89b3f9296c44a435666565d41d1434480d",
      "networkId": 0,
      "chainId": 0
    }
  ]
}