{
  "hash": "0xc89698073a58fb753d1949177bf3f220d8aba8c91d2257fa2f29a59769398f9e",
  "parentHash": "0x9f1364096906e88de39036764b010eb6b4fd1d39b3229ddc17e0099dd6a1342b",
  "number": 75978,
  "timestamp": 1439412862,
  "nonce": "0x541b17a79ee9cbc6",
  "difficulty": 2232010235354,
  "gasLimit": {
    "_hex": "0x2fe3de"
  },
  "gasUsed": {
    "_hex": "0x5208"
  },
  "miner": "0x48CD680bb700F6b7DE89Dd9FF4932CcC158c3e05",
  "extraData": "0x476574682f76312e302e302d65376634323332622f6c696e75782f676f312e34",
  "transactions": [
    {
      "hash": "0x2e7f9f5cd410a9487016092f5c2b5cd687861ac630d1cc81ab664778194d0376",
      "blockHash": "0xc89698073a58fb753d1949177bf3f220d8aba8c91d2257fa2f29a59769398f9e",
      "blockNumber": 75978,
      "transactionIndex": 0,
      "confirmations": null,
      "from": "0xa748fac76B1d857E2f77484a0F816463e8b56EDc",
      "gasPrice": {
        "_hex": "0x10bb2aa35e1"
      },
      "gasLimit": {
        "_hex": "0x5208"
      },
      "to": "0xc2ac6849Aec3938FB8c9B36F1c07be76f766637E",
      "value": {
        "_hex": "0x8ac7230489e80000"
      },
      "nonce": 7,
      "data": "0x",
      "r": "0x300306369a38a2de3940c34945b9ce60fd8bbabc55598865b2c3d6c60f465ba0",
      "s": "0x447791fe5999c2d6b5006a97997920166a56d421c28de8ffadbf6ae32312f386",
      "v": 28,
      "creates": null,
      "raw": "0xf86d0786010bb2aa35e182520894c2ac6849aec3938fb8c9b36f1c07be76f766637e888ac7230489e80000801ca0300306369a38a2de3940c34945b9ce60fd8bbabc55598865b2c3d6c60f465ba0a0447791fe5999c2d6b5006a97997920166a56d421c28de8ffadbf6ae32312f386",
      "networkId": 0,
      "chainId": 0
    }
  ]
}