{
  "hash": "0x1e8465408c477f81c479498696923352ca51e0d76a0ddec732600616ac629fe8",
  "parentHash": "0xa2fa130df9b0f506db50a262f5cf8c83b727a512ade777d5ab7deac90932cfd9",
  "number": 80912,
  "timestamp": 1439493217,
  "nonce": "0xafb041b830397805",
  "difficulty": 2435629107325,
  "gasLimit": {
    "_hex": "0x2fefd8"
  },
  "gasUsed": {
    "_hex": "0x5208"
  },
  "miner": "0xbb7B8287f3F0a933474a79eAe42CBCa977791171",
  "extraData": "0x476574682f4c5649562f76312e302e312f6c696e75782f676f312e342e32",
  "transactions": [
    {
      "hash": "0x08653d179acde24f8e5ab4bc568b52fa9eee6053bb41cfc936881e389aeadab3",
      "blockHash": "0x1e8465408c477f81c479498696923352ca51e0d76a0ddec732600616ac629fe8",
      "blockNumber": 80912,
      "transactionIndex": 0,
      "confirmations": null,
      "from": "0x120A270bbC009644e35F0bB6ab13f95b8199c4ad",
      "gasPrice": {
        "_hex": "0xceaa891fa"
      },
      "gasLimit": {
        "_hex": "0x3d090"
      },
      "to": "0x2A3A69c490DD4c3b15959D4dF6531d37E4F3e0d6",
      "value": {
        "_hex": "0x1a450463a17077dc00"
      },
      "nonce": 355,
      "data": "0x",
      "r": "0x987d38f778d00b239b139c963521e93f63661470f0f42f5a6dd871b740a5c197",
      "s": "0x43b6595d43ce15712a5d8c19b1e5412d4797750f333404bcb6f89e0d69402d8e",
      "v": 28,
      "creates": null,
      "raw": "0xf870820163850ceaa891fa8303d090942a3a69c490dd4c3b15959d4df6531d37e4f3e0d6891a450463a17077dc00801ca0987d38f778d00b239b139c963521e93f63661470f0f42f5a6dd871b740a5c197a043b6595d43ce15712a5d8c19b1e5412d4797750f333404bcb6f89e0d69402d8e",
      "networkId": 0,
      "chainId": 0
    }
  ]
}