{
  "hash": "0x3936bf6ed6595dbdf3a9dff9c49a78ec5aef5a016477b70733d36d83a99c57fe",
  "parentHash": "0x128bc793372db06e26edc0cb2eb1711d6ed79439c71a4b3c00adeef08be96435",
  "number": 80342,
  "timestamp": 1439484180,
  "nonce": "0x0ca7f67884495706",
  "difficulty": 2386350517138,
  "gasLimit": {
    "_hex": "0x2fefd8"
  },
  "gasUsed": {
    "_hex": "0xaa37"
  },
  "miner": "0x4b0424c09BaC4Ee3f4376f1D3fA354E8Cb2D3171",
  "extraData": "0x",
  "transactions": [
    {
      "hash": "0xea4950b2cb859ed9cc262996a10366eb28964d71ac00639b82bebaa2a6d3a3dd",
      "blockHash": "0x3936bf6ed6595dbdf3a9dff9c49a78ec5aef5a016477b70733d36d83a99c57fe",
      "blockNumber": 80342,
      "transactionIndex": 0,
      "confirmations": null,
      "from": "0x87C5B5874A18B4306DF8a752a6C8cc3E82daFc19",
      "gasPrice": {
        "_hex": "0x1044f022dcd"
      },
      "gasLimit": {
        "_hex": "0x493e0"
      },
      "to": "0xC4c51de1AbF5D60DBd329eC0F999Fd8f021ae9fC",
      "value": {
        "_hex": "0x0"
      },
      "nonce": 179,
      "data": "0x03750d9400000000000000000000000087c5b5874a18b4306df8a752a6c8cc3e82dafc196b6b6b0000000000000000000000000000000000000000000000000000000000",
      "r": "0xe5684625343aba5b4b7180db670ebefce18b7cd1af238bae233a13efe53fc811",
      "s": "0x439982cd3340f52c52fba59fffd8be26fe3113a4c83e2092fe1e4797df5fbaa5",
      "v": 27,
      "creates": null,
      "raw": "0xf8ac81b38601044f022dcd830493e094c4c51de1abf5d60dbd329ec0f999fd8f021ae9fc80b84403750d9400000000000000000000000087c5b5874a18b4306df8a752a6c8cc3e82dafc196b6b6b00000000000000000000000000000000000000000000000000000000001ba0e5684625343aba5b4b7180db670ebefce18b7cd1af238bae233a13efe53fc811a0439982cd3340f52c52fba59fffd8be26fe3113a4c83e2092fe1e4797df5fbaa5",
      "networkId": 0,
      "chainId": 0
    }
  ]
}