{
  "hash": "0x93f05d6a6c77d9f60826806aab2f9b4bf90112c93001d0bd7c13fea5dca12c19",
  "parentHash": "0x6fead52ca008df4096605fd5fafa3e317679f8b42924e85bd0b9ecd050ae1b18",
  "number": 68517,
  "timestamp": 1439289285,
  "nonce": "0xd879999c18e7bb85",
  "difficulty": 2003519378772,
  "gasLimit": {
    "_hex": "0x2fefd8"
  },
  "gasUsed": {
    "_hex": "0x47c70"
  },
  "miner": "0x88D74a59454F6cF3B51ef6b9136AFb6b9D405A88",
  "extraData": "0x476574682f76312e302e312d37666266393930632f6c696e75782f676f312e34",
  "transactions": [
    {
      "hash": "0x679591bfe9dcbab1647561dca33b393abd618ebdd7e8e8756061c5838880a8d4",
      "blockHash": "0x93f05d6a6c77d9f60826806aab2f9b4bf90112c93001d0bd7c13fea5dca12c19",
      "blockNumber": 68517,
      "transactionIndex": 0,
      "confirmations": null,
      "from": "0xC7861BF8C367f012123a9976BcC312F1a412E9bB",
      "gasPrice": {
        "_hex": "0xba43b7400"
      },
      "gasLimit": {
        "_hex": "0x5208"
      },
      "to": "0xfDA0C1D3110C77Cf600308cb86764E0C6744d55F",
      "value": {
        "_hex": "0xc1c23435b07000"
      },
      "nonce": 1,
      "data": "0x",
      "r": "0x0dc0182d83ce2b3409931b6ef90f73a3415d410f96fc9ff4fa087f0019020162",
      "s": "0x45f4f9ab0d93df63b673a3677fb428d1cd7942fd8f66b6b585aeeeb68abbd21e",
      "v": 28,
      "creates": null,
      "raw": "0xf86b01850ba43b740082520894fda0c1d3110c77cf600308cb86764e0c6744d55f87c1c23435b07000801ca00dc0182d83ce2b3409931b6ef90f73a3415d410f96fc9ff4fa087f0019020162a045f4f9ab0d93df63b673a3677fb428d1cd7942fd8f66b6b585aeeeb68abbd21e",
      "networkId": 0,
      "chainId": 0
    },
    {
      "hash": "0x5785e2fa6f1e909cbf92761c01b2bcb2e372133a53ef9a571b67f9b701bc79f9",
      "blockHash": "0x93f05d6a6c77d9f60826806aab2f9b4bf90112c93001d0bd7c13fea5dca12c19",
      "blockNumber": 68517,
      "transactionIndex": 1,
      "confirmations": null,
      "from": "0x8961C9C9F9721021e63f9D4fAF987B0DdA50fe72",
      "gasPrice": {
        "_hex": "0xba43b7400"
      },
      "gasLimit": {
        "_hex": "0x5208"
      },
      "to": "0x94f7f374AEa3371ccE2Dcfb0c50525Eedd90AdF0",
      "value": {
        "_hex": "0xc1c23435b07000"
      },
      "nonce": 1,
      "data": "0x",
      "r": "0xfd29d2469639969ebb020f27292711bd3c8e05dcccd9575238723105524b3727",
      "s": "0x2a2e149f85599041e7c3c8d1911f4d00c7d096fe0c2772e1f2c73ece950657e6",
      "v": 28,
      "creates": null,
      "raw": "0xf86b01850ba43b74008252089494f7f374aea3371cce2dcfb0c50525eedd90adf087c1c23435b07000801ca0fd29d2469639969ebb020f27292711bd3c8e05dcccd9575238723105524b3727a02a2e149f85599041e7c3c8d1911f4d00c7d096fe0c2772e1f2c73ece950657e6",
      "networkId": 0,
      "chainId": 0
    },
    {
      "hash": "0xbe34bf7a29ac001662a5675713947c9f301a0ad349f791c7c9a48aff9353022e",
      "blockHash": "0x93f05d6a6c77d9f60826806aab2f9b4bf90112c93001d0bd7c13fea5dca12c19",
      "blockNumber": 68517,
      "transactionIndex": 2,
      "confirmations": null,
      "from": "0x6747f922385c9a6F9cfDf095F34345257DD597bE",
      "gasPrice": {
        "_hex": "0xba43b7400"
      },
      "gasLimit": {
        "_hex": "0x5208"
      },
      "to": "0x27d873d62ceB0A4DD25dCED398febdC9Cb31b93a",
      "value": {
        "_hex": "0x1fcbfa42bd6000"
      },
      "nonce": 121,
      "data": "0x",
      "r": "0xa8fb494e18be6823505e277036eac03b17cb57c50e35d79e473a295c2ffa4e0d",
      "s": "0x4e5167a567c4465e604c4bce728356d9dfbac7441dc0a2841d38af3a87481b7d",
      "v": 28,
      "creates": null,
      "raw": "0xf86b79850ba43b74008252089427d873d62ceb0a4dd25dced398febdc9cb31b93a871fcbfa42bd6000801ca0a8fb494e18be6823505e277036eac03b17cb57c50e35d79e473a295c2ffa4e0da04e5167a567c4465e604c4bce728356d9dfbac7441dc0a2841d38af3a87481b7d",
      "networkId": 0,
      "chainId": 0
    },
    {
      "hash": "0x7742554d897e8b9c412583021e81136955542eda6d273f7074126b49ddd39150",
      "blockHash": "0x93f05d6a6c77d9f60826806aab2f9b4bf90112c93001d0bd7c13fea5dca12c19",
      "blockNumber": 68517,
      "transactionIndex": 3,
      "confirmations": null,
      "from": "0x94DBc0615a05D32F698ce4FC90ee1Ec61bceF8Df",
      "gasPrice": {
        "_hex": "0xba43b7400"
      },
      "gasLimit": {
        "_hex": "0x5208"
      },
      "to": "0x3BA6349156f9e83A2963Da4600cd12dff6AE2E28",
      "value": {
        "_hex": "0xc1c23435b07000"
      },
      "nonce": 1,
      "data": "0x",
      "r": "0x25cbebf459840e047e15196d2f942953a507c2dd75986d7abf7ec45821a80b15",
      "s": "0x43acb5ea166a40633c5a64f3c9a2f7e20c7a533a77e0a9b7e48f66555b9ec544",
      "v": 28,
      "creates": null,
      "raw": "0xf86b01850ba43b7400825208943ba6349156f9e83a2963da4600cd12dff6ae2e2887c1c23435b07000801ca025cbebf459840e047e15196d2f942953a507c2dd75986d7abf7ec45821a80b15a043acb5ea166a40633c5a64f3c9a2f7e20c7a533a77e0a9b7e48f66555b9ec544",
      "networkId": 0,
      "chainId": 0
    },
    {
      "hash": "0x39177c9bbda17f80f5b6d08f7cf23853be8b44a7fc650cf0141efc64cfba57a2",
      "blockHash": "0x93f05d6a6c77d9f60826806aab2f9b4bf90112c93001d0bd7c13fea5dca12c19",
      "blockNumber": 68517,
      "transactionIndex": 4,
      "confirmations": null,
      "from": "0x0f474a5205155404aAc37D04494e5129224AD117",
      "gasPrice": {
        "_hex": "0xba43b7400"
      },
      "gasLimit": {
        "_hex": "0x5208"
      },
      "to": "0xdB1783D791A215308C7d2331110E571Af76Ee9d8",
      "value": {
        "_hex": "0xc1c23435b07000"
      },
      "nonce": 1,
      "data": "0x",
      "r": "0x6925a938ba27bb20c3b637501dfddd4801d4d78e1758344fd9a6cfffc572b535",
      "s": "0x6504bfed32f487f7ac084266915869f11fde62503273707455fe4bfcae797418",
      "v": 28,
      "creates": null,
      "raw": "0xf86b01850ba43b740082520894db1783d791a215308c7d2331110e571af76ee9d887c1c23435b07000801ca06925a938ba27bb20c3b637501dfddd4801d4d78e1758344fd9a6cfffc572b535a06504bfed32f487f7ac084266915869f11fde62503273707455fe4bfcae797418",
      "networkId": 0,
      "chainId": 0
    },
    {
      "hash": "0x26c00bbb859fa6e7a28c79fe99c27cc8312f2a4c1ae7673713055c5c04905fa9",
      "blockHash": "0x93f05d6a6c77d9f60826806aab2f9b4bf90112c93001d0bd7c13fea5dca12c19",
      "blockNumber": 68517,
      "transactionIndex": 5,
      "confirmations": null,
      "from": "0xb00961b542D43044B2cA6684ffa7F98Bc1567414",
      "gasPrice": {
        "_hex": "0xba43b7400"
      },
      "gasLimit": {
        "_hex": "0x5208"
      },
      "to": "0x3A9F65df026Fc2c7B39FD23Dc639BdF9609d329c",
      "value": {
        "_hex": "0xc1c23435b07000"
      },
      "nonce": 1,
      "data": "0x",
      "r": "0x228b6174d08d4f0871ff70784e2bbc038cf0d0a5333de599588e605bfa4a66b6",
      "s": "0x48718623d6ee44edf91802aa267a88020404f17ce85e3d7d971b20ae38fbe840",
      "v": 27,
      "creates": null,
      "raw": "0xf86b01850ba43b7400825208943a9f65df026fc2c7b39fd23dc639bdf9609d329c87c1c23435b07000801ba0228b6174d08d4f0871ff70784e2bbc038cf0d0a5333de599588e605bfa4a66b6a048718623d6ee44edf91802aa267a88020404f17ce85e3d7d971b20ae38fbe840",
      "networkId": 0,
      "chainId": 0
    },
    {
      "hash": "0x82842dd062024d5886d2502f803d9f8a1227d92c85cc68de5cae12f059ccc69f",
      "blockHash": "0x93f05d6a6c77d9f60826806aab2f9b4bf90112c93001d0bd7c13fea5dca12c19",
      "blockNumber": 68517,
      "transactionIndex": 6,
      "confirmations": null,
      "from": "0x9E5af72b1d1FB6bDD9A3fD873CF6b425777b3667",
      "gasPrice": {
        "_hex": "0xba43b7400"
      },
      "gasLimit": {
        "_hex": "0x5208"
      },
      "to": "0x528ff87f89965934De0aBFcb65aaaFA4487fd82d",
      "value": {
        "_hex": "0xc1c23435b07000"
      },
      "nonce": 1,
      "data": "0x",
      "r": "0x88770f320a148c1ee6636af40b78ea52170180e13e322ad3abf3b8a2b65a40dd",
      "s": "0x27825cb726a9ecc3dc0da9223a081e65d22b82fa04ae57e8ef52970002998a67",
      "v": 27,
      "creates": null,
      "raw": "0xf86b01850ba43b740082520894528ff87f89965934de0abfcb65aaafa4487fd82d87c1c23435b07000801ba088770f320a148c1ee6636af40b78ea52170180e13e322ad3abf3b8a2b65a40dda027825cb726a9ecc3dc0da9223a081e65d22b82fa04ae57e8ef52970002998a67",
      "networkId": 0,
      "chainId": 0
    },
    {
      "hash": "0x3a16fad5032b254c82a2c0a90c811eb8b07b4d93a4d20bdd321e16273d8e6e59",
      "blockHash": "0x93f05d6a6c77d9f60826806aab2f9b4bf90112c93001d0bd7c13fea5dca12c19",
      "blockNumber": 68517,
      "transactionIndex": 7,
      "confirmations": null,
      "from": "0x62aC65597bbc75C1f17777479424da1fB9120440",
      "gasPrice": {
        "_hex": "0xba43b7400"
      },
      "gasLimit": {
        "_hex": "0x5208"
      },
      "to": "0xCe18dB6c6daFA17eEC92EdE938410C737a0f9be6",
      "value": {
        "_hex": "0xc1c23435b07000"
      },
      "nonce": 1,
      "data": "0x",
      "r": "0x1f370c5e41936e8d7c3ffb984220f02d4821637c06938bb386e556cfeb05fc53",
      "s": "0x124ddd3a4029121a35081dd2ac09f5b0d4fadc9d11192ceee360974aa3c317ac",
      "v": 27,
      "creates": null,
      "raw": "0xf86b01850ba43b740082520894ce18db6c6dafa17eec92ede938410c737a0f9be687c1c23435b07000801ba01f370c5e41936e8d7c3ffb984220f02d4821637c06938bb386e556cfeb05fc53a0124ddd3a4029121a35081dd2ac09f5b0d4fadc9d11192ceee360974aa3c317ac",
      "networkId": 0,
      "chainId": 0
    },
    {
      "hash": "0xcb4ce175b040049f2bb7d22bd025201ae0765cc787ce17688c9bb3ebdc0bbf46",
      "blockHash": "0x93f05d6a6c77d9f60826806aab2f9b4bf90112c93001d0bd7c13fea5dca12c19",
      "blockNumber": 68517,
      "transactionIndex": 8,
      "confirmations": null,
      "from": "0x809516C8A73B83bF351e9e1F7466D17c7144bDb8",
      "gasPrice": {
        "_hex": "0xba43b7400"
      },
      "gasLimit": {
        "_hex": "0x5208"
      },
      "to": "0xF279ee7C96D3e2AF8296f100f2Ef24DF8331a87c",
      "value": {
        "_hex": "0xc1c23435b07000"
      },
      "nonce": 1,
      "data": "0x",
      "r": "0x76f13234a263fa180d60be0c422d0dd6cb9475293b1779ac1daa7426c7bc7ddb",
      "s": "0x1c53ec31e60d339f172d0167a73dce966cb11b688c19bb66de8acde135fd1bb7",
      "v": 28,
      "creates": null,
      "raw": "0xf86b01850ba43b740082520894f279ee7c96d3e2af8296f100f2ef24df8331a87c87c1c23435b07000801ca076f13234a263fa180d60be0c422d0dd6cb9475293b1779ac1daa7426c7bc7ddba01c53ec31e60d339f172d0167a73dce966cb11b688c19bb66de8acde135fd1bb7",
      "networkId": 0,
      "chainId": 0
    },
    {
      "hash": "0xa492ecb38bf0c6b318d7e78f894b636b267f3ee79f4a3349178244a248421e89",
      "blockHash": "0x93f05d6a6c77d9f60826806aab2f9b4bf90112c93001d0bd7c13fea5dca12c19",
      "blockNumber": 68517,
      "transactionIndex": 9,
      "confirmations": null,
      "from": "0x544B0036689DB83D9671850D97e08273803D940c",
      "gasPrice": {
        "_hex": "0xba43b7400"
      },
      "gasLimit": {
        "_hex": "0x5208"
      },
      "to": "0x7427A70c01E8A7B752acD97229b4d86E4403371d",
      "value": {
        "_hex": "0xc1c23435b07000"
      },
      "nonce": 1,
      "data": "0x",
      "r": "0x07426ad6530d3915c0637369ea6542a6ff70fd21a4e320b942e1c6ab953823b3",
      "s": "0x5884dd919b4e4cdf918fa289c1adc6e6d090f1691971209d13038b49cc6a0fca",
      "v": 27,
      "creates": null,
      "raw": "0xf86b01850ba43b7400825208947427a70c01e8a7b752acd97229b4d86e4403371d87c1c23435b07000801ba007426ad6530d3915c0637369ea6542a6ff70fd21a4e320b942e1c6ab953823b3a05884dd919b4e4cdf918fa289c1adc6e6d090f1691971209d13038b49cc6a0fca",
      "networkId": 0,
      "chainId": 0
    },
    {
      "hash": "0x7f665ed2c8dbb5dbed78ae60966c191a8ec60883a1abb9d4c5fd30ba6bf8ba31",
      "blockHash": "0x93f05d6a6c77d9f60826806aab2f9b4bf90112c93001d0bd7c13fea5dca12c19",
      "blockNumber": 68517,
      "transactionIndex": 10,
      "confirmations": null,
      "from": "0xB261a44AFfA63f1DDD1d584Ab1ACCC0471D361a4",
      "gasPrice": {
        "_hex": "0xba43b7400"
      },
      "gasLimit": {
        "_hex": "0x5208"
      },
      "to": "0xB550C8090fC49524b37de6f1C4E99D92c299A57C",
      "value": {
        "_hex": "0xc1c23435b07000"
      },
      "nonce": 1,
      "data": "0x",
      "r": "0xb40367565e3fb95e143eb815b354a037788d635fc1c8bb8d6ca9e93bc67aca8f",
      "s": "0x4274a268f8f9cef3d55e7762d23a54943a13ac80a281c70838f34f98bb7b6366",
      "v": 28,
      "creates": null,
      "raw": "0xf86b01850ba43b740082520894b550c8090fc49524b37de6f1c4e99d92c299a57c87c1c23435b07000801ca0b40367565e3fb95e143eb815b354a037788d635fc1c8bb8d6ca9e93bc67aca8fa04274a268f8f9cef3d55e7762d23a54943a13ac80a281c70838f34f98bb7b6366",
      "networkId": 0,
      "chainId": 0
    },
    {
      "hash": "0xbeffc03ae7c9bda78239ad787e88f4dd23be36a3e25da5fb748fa04fa7821506",
      "blockHash": "0x93f05d6a6c77d9f60826806aab2f9b4bf90112c93001d0bd7c13fea5dca12c19",
      "blockNumber": 68517,
      "transactionIndex": 11,
      "confirmations": null,
      "from": "0x423346353B42642c1bb5A0A9b1c3e3f95A6f252b",
      "gasPrice": {
        "_hex": "0xba43b7400"
      },
      "gasLimit": {
        "_hex": "0x5208"
      },
      "to": "0x27eb7a21FE45aB5b11f633ab2D1039003582ccbb",
      "value": {
        "_hex": "0xc1c23435b07000"
      },
      "nonce": 1,
      "data": "0x",
      "r": "0xeeb8a2e3375060979f5e795f684c9f106466ac914fc32059ee674e7414510003",
      "s": "0x03efd0e83218cd433423e60071e2d53d2f9dab3b134c20059bf9bfb54b120d14",
      "v": 27,
      "creates": null,
      "raw": "0xf86b01850ba43b74008252089427eb7a21fe45ab5b11f633ab2d1039003582ccbb87c1c23435b07000801ba0eeb8a2e3375060979f5e795f684c9f106466ac914fc32059ee674e7414510003a003efd0e83218cd433423e60071e2d53d2f9dab3b134c20059bf9bfb54b120d14",
      "networkId": 0,
      "chainId": 0
    },
    {
      "hash": "0x78ab3bd661eae6f33e5ccc2acef62a50efa42b832f1912f9509cd31599a39049",
      "blockHash": "0x93f05d6a6c77d9f60826806aab2f9b4bf90112c93001d0bd7c13fea5dca12c19",
      "blockNumber": 68517,
      "transactionIndex": 12,
      "confirmations": null,
      "from": "0x4F4c754135f52216b5328c89f378b916D865b560",
      "gasPrice": {
        "_hex": "0xba43b7400"
      },
      "gasLimit": {
        "_hex": "0x5208"
      },
      "to": "0xA52F7f3E529a8E2E0c84657B8F9053f8AD31137F",
      "value": {
        "_hex": "0xc1c23435b07000"
      },
      "nonce": 1,
      "data": "0x",
      "r": "0xf1093c36062f54724edc402a111011702528bb102258b05b77470bd4bbe2bdcb",
      "s": "0x48f346d8f808c877e327ce67e96c83c8cf0531cf1c65c602bcc98b1e65c6dad3",
      "v": 27,
      "creates": null,
      "raw": "0xf86b01850ba43b740082520894a52f7f3e529a8e2e0c84657b8f9053f8ad31137f87c1c23435b07000801ba0f1093c36062f54724edc402a111011702528bb102258b05b77470bd4bbe2bdcba048f346d8f808c877e327ce67e96c83c8cf0531cf1c65c602bcc98b1e65c6dad3",
      "networkId": 0,
      "chainId": 0
    },
    {
      "hash": "0x3f3c7aaf95acd250fbf665ccf333d1db3d4a53823e5c4cbd9ed1020a158dc7d4",
      "blockHash": "0x93f05d6a6c77d9f60826806aab2f9b4bf90112c93001d0bd7c13fea5dca12c19",
      "blockNumber": 68517,
      "transactionIndex": 13,
      "confirmations": null,
      "from": "0x240faA729706e51F8FB23ae71bd1D0518e1084ff",
      "gasPrice": {
        "_hex": "0xba43b7400"
      },
      "gasLimit": {
        "_hex": "0x5208"
      },
      "to": "0xD66f44F49197aC90183eb0784178d0a5DEb3fF25",
      "value": {
        "_hex": "0xc1c23435b07000"
      },
      "nonce": 1,
      "data": "0x",
      "r": "0xb39e1372d513ad7882356e628a775b6fae44b9861b0d0bc422d5882d63fe1cde",
      "s": "0x7ed5a74533e8b14d1b147ee6a72ba06ed0a5c42545087a07143f523b071ab3c7",
      "v": 28,
      "creates": null,
      "raw": "0xf86b01850ba43b740082520894d66f44f49197ac90183eb0784178d0a5deb3ff2587c1c23435b07000801ca0b39e1372d513ad7882356e628a775b6fae44b9861b0d0bc422d5882d63fe1cdea07ed5a74533e8b14d1b147ee6a72ba06ed0a5c42545087a07143f523b071ab3c7",
      "networkId": 0,
      "chainId": 0
    }
  ]
}