{
  "hash": "0x8881fbd926d6afe88f974c8e91d8e4c6525da348ab8613c1394dd68c2f3015f3",
  "parentHash": "0x54cee5fa0712bbd39d5fbc35e44f5d03f9e66de2788d55e876e8eb4dd7ecbf8d",
  "number": 94754,
  "timestamp": 1439713758,
  "nonce": "0xa4995f10d1afde9d",
  "difficulty": 3476329137713,
  "gasLimit": {
    "_hex": "0x2fefd8"
  },
  "gasUsed": {
    "_hex": "0x29040"
  },
  "miner": "0xbb7B8287f3F0a933474a79eAe42CBCa977791171",
  "extraData": "0x476574682f4c5649562f76312e302e312f6c696e75782f676f312e342e32",
  "transactions": [
    {
      "hash": "0xe201bfa6196b485099c5aa8cbf38cdf201048018c409a3794857a25071188c82",
      "blockHash": "0x8881fbd926d6afe88f974c8e91d8e4c6525da348ab8613c1394dd68c2f3015f3",
      "blockNumber": 94754,
      "transactionIndex": 0,
      "confirmations": null,
      "from": "0x46532c79E7F23Aa3520221582D7AC182fb98C56B",
      "gasPrice": {
        "_hex": "0x10622c54a48"
      },
      "gasLimit": {
        "_hex": "0x15f90"
      },
      "to": "0x95A466C2ba3A392003E9ef63F4442236C6E1B40E",
      "value": {
        "_hex": "0x5e5e73f8d8a80000"
      },
      "nonce": 3,
      "data": "0x",
      "r": "0xfa47a9e793b4e3fb567ed2de9ba2d55789b8648577d75519cbfedd201fdc5335",
      "s": "0x6114fc13124d904f03d60aa2b174b9d2ff298b6d039667f09066a2dac4bc4d3e",
      "v": 27,
      "creates": null,
      "raw": "0xf86e0386010622c54a4883015f909495a466c2ba3a392003e9ef63f4442236c6e1b40e885e5e73f8d8a80000801ba0fa47a9e793b4e3fb567ed2de9ba2d55789b8648577d75519cbfedd201fdc5335a06114fc13124d904f03d60aa2b174b9d2ff298b6d039667f09066a2dac4bc4d3e",
      "networkId": 0,
      "chainId": 0
    },
    {
      "hash": "0x933bfab1df91c8eb6837483e7b79eed5991204fff65fb8b73ec957fca6b274e7",
      "blockHash": "0x8881fbd926d6afe88f974c8e91d8e4c6525da348ab8613c1394dd68c2f3015f3",
      "blockNumber": 94754,
      "transactionIndex": 1,
      "confirmations": null,
      "from": "0x6d84df1cFAD609EAc476cBC2553390bFC23Cf6Fc",
      "gasPrice": {
        "_hex": "0xcd2fde68a"
      },
      "gasLimit": {
        "_hex": "0x5208"
      },
      "to": "0x32Be343B94f860124dC4fEe278FDCBD38C102D88",
      "value": {
        "_hex": "0x38aea17511976a000"
      },
      "nonce": 4,
      "data": "0x",
      "r": "0x8445a11a4f1ca5ec23030c91a94a4dbc3a8bf87c86a4ffd18749a679758b0db3",
      "s": "0x12ba0210a76cafbb6a81a7f387747a8028bcedecdec4cc0b4e7cad44997452ac",
      "v": 27,
      "creates": null,
      "raw": "0xf86d04850cd2fde68a8252089432be343b94f860124dc4fee278fdcbd38c102d8889038aea17511976a000801ba08445a11a4f1ca5ec23030c91a94a4dbc3a8bf87c86a4ffd18749a679758b0db3a012ba0210a76cafbb6a81a7f387747a8028bcedecdec4cc0b4e7cad44997452ac",
      "networkId": 0,
      "chainId": 0
    },
    {
      "hash": "0x49ddfe9a3fab249fdf3bb819e54ee350e9e343e6872e574f492b5240395494e2",
      "blockHash": "0x8881fbd926d6afe88f974c8e91d8e4c6525da348ab8613c1394dd68c2f3015f3",
      "blockNumber": 94754,
      "transactionIndex": 2,
      "confirmations": null,
      "from": "0x608f4b86321a68453f9adf6F06F7Fc3E621739ad",
      "gasPrice": {
        "_hex": "0xcd2fde68a"
      },
      "gasLimit": {
        "_hex": "0x5208"
      },
      "to": "0x32Be343B94f860124dC4fEe278FDCBD38C102D88",
      "value": {
        "_hex": "0x193e7f3d2402580000"
      },
      "nonce": 2,
      "data": "0x",
      "r": "0x8011cf04c0207f2e332a67ec39eabfdd9957d61ba322351de02620b9d29d233d",
      "s": "0x075840e5c7509de13c4a84be5f7c3658f97a927074731c7973b80d355a0029f1",
      "v": 28,
      "creates": null,
      "raw": "0xf86d02850cd2fde68a8252089432be343b94f860124dc4fee278fdcbd38c102d8889193e7f3d2402580000801ca08011cf04c0207f2e332a67ec39eabfdd9957d61ba322351de02620b9d29d233da0075840e5c7509de13c4a84be5f7c3658f97a927074731c7973b80d355a0029f1",
      "networkId": 0,
      "chainId": 0
    },
    {
      "hash": "0xde3d7a70e62aad4039ad2aaff98bb52cd215dfd8783a7d8e32971627dd0c75b9",
      "blockHash": "0x8881fbd926d6afe88f974c8e91d8e4c6525da348ab8613c1394dd68c2f3015f3",
      "blockNumber": 94754,
      "transactionIndex": 3,
      "confirmations": null,
      "from": "0x3b01EBd2419f6d39DB6AB4471e6382848716641F",
      "gasPrice": {
        "_hex": "0xcd2fde68a"
      },
      "gasLimit": {
        "_hex": "0x5208"
      },
      "to": "0x32Be343B94f860124dC4fEe278FDCBD38C102D88",
      "value": {
        "_hex": "0x411939b64440a4000"
      },
      "nonce": 1,
      "data": "0x",
      "r": "0x9544999df6a2a641984a76d68e599d69dcbfe354f3c19c7c2ae0e55525391d21",
      "s": "0x068b028cb7c9fcff70fa991793b4a43718e8973fed8d8ed335e0675e03d80c81",
      "v": 27,
      "creates": null,
      "raw": "0xf86d01850cd2fde68a8252089432be343b94f860124dc4fee278fdcbd38c102d88890411939b64440a4000801ba09544999df6a2a641984a76d68e599d69dcbfe354f3c19c7c2ae0e55525391d21a0068b028cb7c9fcff70fa991793b4a43718e8973fed8d8ed335e0675e03d80c81",
      "networkId": 0,
      "chainId": 0
    },
    {
      "hash": "0x0077cfd7d2774fcb01e03db3f25ebd32ee8a38accdc5a54047edaf02ce94c363",
      "blockHash": "0x8881fbd926d6afe88f974c8e91d8e4c6525da348ab8613c1394dd68c2f3015f3",
      "blockNumber": 94754,
      "transactionIndex": 4,
      "confirmations": null,
      "from": "0x13065c2648269D5b802D31341006d0b458a187fE",
      "gasPrice": {
        "_hex": "0xcd2fde68a"
      },
      "gasLimit": {
        "_hex": "0x5208"
      },
      "to": "0x32Be343B94f860124dC4fEe278FDCBD38C102D88",
      "value": {
        "_hex": "0x13e152308f8082000"
      },
      "nonce": 2,
      "data": "0x",
      "r": "0x938c8828fec17d85b720db07937a8fd2f2ad2bd25daff6ca8c33f67ac4d702c8",
      "s": "0x3af1ca136691c00744e9476f158ea29982a9daf627bcd0fbc3fec324e312d537",
      "v": 28,
      "creates": null,
      "raw": "0xf86d02850cd2fde68a8252089432be343b94f860124dc4fee278fdcbd38c102d8889013e152308f8082000801ca0938c8828fec17d85b720db07937a8fd2f2ad2bd25daff6ca8c33f67ac4d702c8a03af1ca136691c00744e9476f158ea29982a9daf627bcd0fbc3fec324e312d537",
      "networkId": 0,
      "chainId": 0
    },
    {
      "hash": "0xb6b931f8f4338578005a946ef09181d71fc47102d8e54cfa05c22889abb64105",
      "blockHash": "0x8881fbd926d6afe88f974c8e91d8e4c6525da348ab8613c1394dd68c2f3015f3",
      "blockNumber": 94754,
      "transactionIndex": 5,
      "confirmations": null,
      "from": "0x383Ad663AFd1716301FC92d469d9985b97cfBCB0",
      "gasPrice": {
        "_hex": "0xcd2fde68a"
      },
      "gasLimit": {
        "_hex": "0x5208"
      },
      "to": "0x32Be343B94f860124dC4fEe278FDCBD38C102D88",
      "value": {
        "_hex": "0x19c6e629443ffc000"
      },
      "nonce": 2,
      "data": "0x",
      "r": "0xe10d29ff95a3b6003c4b517e65566aa409ac4f0ac463e7550f1e5ca33709d585",
      "s": "0x435648fcdd5d81d3015f24881df74fad73ff8cd3a4d18a76ec16db1a73f6e875",
      "v": 28,
      "creates": null,
      "raw": "0xf86d02850cd2fde68a8252089432be343b94f860124dc4fee278fdcbd38c102d8889019c6e629443ffc000801ca0e10d29ff95a3b6003c4b517e65566aa409ac4f0ac463e7550f1e5ca33709d585a0435648fcdd5d81d3015f24881df74fad73ff8cd3a4d18a76ec16db1a73f6e875",
      "networkId": 0,
      "chainId": 0
    },
    {
      "hash": "0xe2929af19b911d9262f365206b99794e5cdb1c2de1c5abc488c6d2e9f24e8bf7",
      "blockHash": "0x8881fbd926d6afe88f974c8e91d8e4c6525da348ab8613c1394dd68c2f3015f3",
      "blockNumber": 94754,
      "transactionIndex": 6,
      "confirmations": null,
      "from": "0x8101538Df7E005d06CA303f609631c4029130687",
      "gasPrice": {
        "_hex": "0xcd2fde68a"
      },
      "gasLimit": {
        "_hex": "0x5208"
      },
      "to": "0x32Be343B94f860124dC4fEe278FDCBD38C102D88",
      "value": {
        "_hex": "0x1b49cf510f01aa000"
      },
      "nonce": 2,
      "data": "0x",
      "r": "0x5959979188758b55dd7c884bf869edd71711aab9fabc03ae89462a32a67354d4",
      "s": "0x5b59631f739867901abc042077a53d74e285709212f15f1f93d602280d2993fa",
      "v": 28,
      "creates": null,
      "raw": "0xf86d02850cd2fde68a8252089432be343b94f860124dc4fee278fdcbd38c102d888901b49cf510f01aa000801ca05959979188758b55dd7c884bf869edd71711aab9fabc03ae89462a32a67354d4a05b59631f739867901abc042077a53d74e285709212f15f1f93d602280d2993fa",
      "networkId": 0,
      "chainId": 0
    },
    {
      "hash": "0xfead381648506dd01c73b226faba17b9ee7cd1a27297ca1b82755bcd790fe4cf",
      "blockHash": "0x8881fbd926d6afe88f974c8e91d8e4c6525da348ab8613c1394dd68c2f3015f3",
      "blockNumber": 94754,
      "transactionIndex": 7,
      "confirmations": null,
      "from": "0x7E4252d3d1881b358f2c1Fc2264ce4C27B83683d",
      "gasPrice": {
        "_hex": "0xcd2fde68a"
      },
      "gasLimit": {
        "_hex": "0x5208"
      },
      "to": "0x32Be343B94f860124dC4fEe278FDCBD38C102D88",
      "value": {
        "_hex": "0x286a2586d05c4400"
      },
      "nonce": 2,
      "data": "0x",
      "r": "0xed3110becd8937663acc266d1fbc3de1b731055f87a3a377981444896d5815da",
      "s": "0x1eb02e311223eaaf1fb5cf20361435b81face3fd05f3bbd5b07e667e28b5b128",
      "v": 27,
      "creates": null,
      "raw": "0xf86c02850cd2fde68a8252089432be343b94f860124dc4fee278fdcbd38c102d8888286a2586d05c4400801ba0ed3110becd8937663acc266d1fbc3de1b731055f87a3a377981444896d5815daa01eb02e311223eaaf1fb5cf20361435b81face3fd05f3bbd5b07e667e28b5b128",
      "networkId": 0,
      "chainId": 0
    }
  ]
}