{
  "hash": "0x091e0a7f2340935c5f04d81d18018a3afc2d00f9c175947e7b4019c2f831c9ca",
  "parentHash": "0x0e1052fcff86bbd17e46c58d71a3706e4a8788627b398a84bc3a75258a964568",
  "number": 91027,
  "timestamp": 1439649339,
  "nonce": "0x4779f87bbdb1837c",
  "difficulty": 3428973781237,
  "gasLimit": {
    "_hex": "0x2fefd8"
  },
  "gasUsed": {
    "_hex": "0x802e"
  },
  "miner": "0x56A1018A2F565672E98f4cB657cEB8059ff3E5a2",
  "extraData": "0x476574682f76312e302e312f77696e646f77732f676f312e342e32",
  "transactions": [
    {
      "hash": "0xc042e4d2d63d684b1caed73dc240b8d44f02df5e30bf241a7d25c90d27f786a7",
      "blockHash": "0x091e0a7f2340935c5f04d81d18018a3afc2d00f9c175947e7b4019c2f831c9ca",
      "blockNumber": 91027,
      "transactionIndex": 0,
      "confirmations": null,
      "from": "0xFBb1b73C4f0BDa4f67dcA266ce6Ef42f520fBB98",
      "gasPrice": {
        "_hex": "0xce4759922"
      },
      "gasLimit": {
        "_hex": "0x15f90"
      },
      "to": "0xCAc7000C7dBaa2E33Af15325AF5D435E011C7BdD",
      "value": {
        "_hex": "0x0"
      },
      "nonce": 44,
      "data": "0x3feb1bd842495454524558303000000000000000000000000000000000000000000000000000000000000000000000000c81b19df1e50da2c912c0a25173b5614e7d491700000000000000000000000000000000000000000000000006ccd46763f10000",
      "r": "0xaa350615641a171560d3480320e3414cc06f8966989d386e10f5abc63a709dba",
      "s": "0x7f1ce0d5c0f5aa560c568f36832d8ac2d807559039944be8a4172c93729c73a8",
      "v": 28,
      "creates": null,
      "raw": "0xf8ca2c850ce475992283015f9094cac7000c7dbaa2e33af15325af5d435e011c7bdd80b8643feb1bd842495454524558303000000000000000000000000000000000000000000000000000000000000000000000000c81b19df1e50da2c912c0a25173b5614e7d491700000000000000000000000000000000000000000000000006ccd46763f100001ca0aa350615641a171560d3480320e3414cc06f8966989d386e10f5abc63a709dbaa07f1ce0d5c0f5aa560c568f36832d8ac2d807559039944be8a4172c93729c73a8",
      "networkId": 0,
      "chainId": 0
    }
  ]
}