{
  "hash": "0xbf725e08d361e778bcd74b542e0d5ace01205f66d281fc0bc2cd6f9cde35335e",
  "parentHash": "0x5e9f0d994ffb73a70d1121b8e0c87a4425f4b9b06fdee41eb8df064cd3c28bc1",
  "number": 81995,
  "timestamp": 1439511531,
  "nonce": "0x2f09b81f982f78ee",
  "difficulty": 2405767423264,
  "gasLimit": {
    "_hex": "0x2fefd8"
  },
  "gasUsed": {
    "_hex": "0xa674"
  },
  "miner": "0xe6A7a1d47ff21B6321162AEA7C6CB457D5476Bca",
  "extraData": "0x476574682f76312e302e312d38326566323666362f6c696e75782f676f312e34",
  "transactions": [
    {
      "hash": "0xb345cb5af73a8055df923bc652e4be5b1e2e767e7eb9d49b65982d707e4f6fc5",
      "blockHash": "0xbf725e08d361e778bcd74b542e0d5ace01205f66d281fc0bc2cd6f9cde35335e",
      "blockNumber": 81995,
      "transactionIndex": 0,
      "confirmations": null,
      "from": "0x21408b4D7A2C0E6ecA4143f2CACdbbccbA121bD8",
      "gasPrice": {
        "_hex": "0x110c8f7d8de"
      },
      "gasLimit": {
        "_hex": "0xc350"
      },
      "to": "0x2910543Af39abA0Cd09dBb2D50200b3E800A63D2",
      "value": {
        "_hex": "0x43c1800260e15b80000"
      },
      "nonce": 1,
      "data": "0x454e35444748554347",
      "r": "0xe55546e8e4bb7a68c43a99bd5751463032c6442a59a8da0c18aefaa627a01867",
      "s": "0xb54de98ee4b5515d26a25bff02dd7c15b1e197aa89d6d94931a6f695e8ef5826",
      "v": 27,
      "creates": null,
      "raw": "0xf87801860110c8f7d8de82c350942910543af39aba0cd09dbb2d50200b3e800a63d28a043c1800260e15b8000089454e354447485543471ba0e55546e8e4bb7a68c43a99bd5751463032c6442a59a8da0c18aefaa627a01867a0b54de98ee4b5515d26a25bff02dd7c15b1e197aa89d6d94931a6f695e8ef5826",
      "networkId": 0,
      "chainId": 0
    },
    {
      "hash": "0xb3a814bf42d8412b6c9de044cb2bf97b70e82c3422391325461d1d85abad5da9",
      "blockHash": "0xbf725e08d361e778bcd74b542e0d5ace01205f66d281fc0bc2cd6f9cde35335e",
      "blockNumber": 81995,
      "transactionIndex": 1,
      "confirmations": null,
      "from": "0x32Be343B94f860124dC4fEe278FDCBD38C102D88",
      "gasPrice": {
        "_hex": "0xd1f10536d"
      },
      "gasLimit": {
        "_hex": "0x5208"
      },
      "to": "0x292A4665C62E2D22EA1cb391F797aFC2084156E0",
      "value": {
        "_hex": "0x8ac7230489e80000"
      },
      "nonce": 619,
      "data": "0x",
      "r": "0xa7ecfae74350db675fca1b9f817f70307f1bdb449f660fc00279c5e7fffabdb3",
      "s": "0x518da07a7be33ee8f5d39454ed05d7a1650a6ef10e2d423ccccc76b75cd284e1",
      "v": 27,
      "creates": null,
      "raw": "0xf86e82026b850d1f10536d82520894292a4665c62e2d22ea1cb391f797afc2084156e0888ac7230489e80000801ba0a7ecfae74350db675fca1b9f817f70307f1bdb449f660fc00279c5e7fffabdb3a0518da07a7be33ee8f5d39454ed05d7a1650a6ef10e2d423ccccc76b75cd284e1",
      "networkId": 0,
      "chainId": 0
    }
  ]
}