{
  "hash": "0xabd60f5454115026965d38c50031c5e0df35f55b0bde9e0abf6a4a0136c62a1e",
  "parentHash": "0x7c7404fec3898817ded2fd8ae2bd087bcab8324299bd9dbd76b96fd9ba08fbd7",
  "number": 52105,
  "timestamp": 1439016234,
  "nonce": "0xd17345998e53e530",
  "difficulty": 1557303058567,
  "gasLimit": {
    "_hex": "0x105d08"
  },
  "gasUsed": {
    "_hex": "0xa8d8"
  },
  "miner": "0x3F98e477a361F777DA14611a7e419A75Fd238b6b",
  "extraData": "0x476574682f76312e302e312f6c696e75782f676f312e342e32",
  "transactions": [
    {
      "hash": "0x88f8102546c17e55301e3c412477f3027f19bcd3bb2b5e302f6ce0d2bcaf0145",
      "blockHash": "0xabd60f5454115026965d38c50031c5e0df35f55b0bde9e0abf6a4a0136c62a1e",
      "blockNumber": 52105,
      "transactionIndex": 0,
      "confirmations": null,
      "from": "0x26D4a16891F52922789217fcd886F7FCe296D400",
      "gasPrice": {
        "_hex": "0xd829211eb"
      },
      "gasLimit": {
        "_hex": "0x15f90"
      },
      "to": "0x2910543Af39abA0Cd09dBb2D50200b3E800A63D2",
      "value": {
        "_hex": "0x4563918244f40000"
      },
      "nonce": 0,
      "data": "0x454e50325539363130",
      "r": "0x793b5f89e522f42d28a711c4de09250080dc54eb4cde774a729688e2a5ff3bab",
      "s": "0x176b9cf25a14a874803ca1fd9a5e9d46692ffca69dc8d9e04f834d3934827353",
      "v": 28,
      "creates": null,
      "raw": "0xf87680850d829211eb83015f90942910543af39aba0cd09dbb2d50200b3e800a63d2884563918244f4000089454e503255393631301ca0793b5f89e522f42d28a711c4de09250080dc54eb4cde774a729688e2a5ff3baba0176b9cf25a14a874803ca1fd9a5e9d46692ffca69dc8d9e04f834d3934827353",
      "networkId": 0,
      "chainId": 0
    },
    {
      "hash": "0xfd36fbdc60c0ee6323eddbbbfd9379e7f1287fddaefc29121faf8cf797b31016",
      "blockHash": "0xabd60f5454115026965d38c50031c5e0df35f55b0bde9e0abf6a4a0136c62a1e",
      "blockNumber": 52105,
      "transactionIndex": 1,
      "confirmations": null,
      "from": "0x26D4a16891F52922789217fcd886F7FCe296D400",
      "gasPrice": {
        "_hex": "0xd5cc4b67a"
      },
      "gasLimit": {
        "_hex": "0x15f90"
      },
      "to": "0x2910543Af39abA0Cd09dBb2D50200b3E800A63D2",
      "value": {
        "_hex": "0x4563918244f40000"
      },
      "nonce": 1,
      "data": "0x454e50325539363130",
      "r": "0x2e848ec37e50a0822602210c6f365a18cf2eef9ba45585f932d2daadd15088a9",
      "s": "0x745b29307fb13449e937f1314677a8581bd6613edb49a1c905fabc6182eed053",
      "v": 27,
      "creates": null,
      "raw": "0xf87601850d5cc4b67a83015f90942910543af39aba0cd09dbb2d50200b3e800a63d2884563918244f4000089454e503255393631301ba02e848ec37e50a0822602210c6f365a18cf2eef9ba45585f932d2daadd15088a9a0745b29307fb13449e937f1314677a8581bd6613edb49a1c905fabc6182eed053",
      "networkId": 0,
      "chainId": 0
    }
  ]
}