{
  "hash": "0x904efbf7b58e789bc37aa72516cad44aeaf3aacc97d27ce736a081325a3ca47b",
  "parentHash": "0xdb9352912f0b1766ec418be92071ce589c48b7633ac9d553918f898d57777945",
  "number": 46337,
  "timestamp": 1438921521,
  "nonce": "0x4dd4de4aa7f18db3",
  "difficulty": 1459674437949,
  "gasLimit": {
    "_hex": "0x5b4f"
  },
  "gasUsed": {
    "_hex": "0x5208"
  },
  "miner": "0x0037ce3d4B7f8729C8607D8D0248252Be68202c0",
  "extraData": "0x476574682f76312e302e312f77696e646f77732f676f312e342e32",
  "transactions": [
    {
      "hash": "0x80b2f11a6243461a47db1e2cd7830b7da4199cb871a000340509a54eba203328",
      "blockHash": "0x904efbf7b58e789bc37aa72516cad44aeaf3aacc97d27ce736a081325a3ca47b",
      "blockNumber": 46337,
      "transactionIndex": 0,
      "confirmations": null,
      "from": "0x232CB1cd49993c144A3F88B3611E233569a86bd6",
      "gasPrice": {
        "_hex": "0x64dddd0c5b"
      },
      "gasLimit": {
        "_hex": "0x5208"
      },
      "to": "0xa08d215B5B6aAC4861A281aC7E400b78FEF04cbf",
      "value": {
        "_hex": "0x3635c9adc5dea00000"
      },
      "nonce": 1,
      "data": "0x",
      "r": "0x17a2496ac77cd59e901c04027d157bbe00c472b4dc1bf8120576d079810275d6",
      "s": "0x1d417437d43f64205dba57a026cb2016691184ab9b37ea401055b9cc7840327f",
      "v": 27,
      "creates": null,
      "raw": "0xf86d018564dddd0c5b82520894a08d215b5b6aac4861a281ac7e400b78fef04cbf893635c9adc5dea00000801ba017a2496ac77cd59e901c04027d157bbe00c472b4dc1bf8120576d079810275d6a01d417437d43f64205dba57a026cb2016691184ab9b37ea401055b9cc7840327f",
      "networkId": 0,
      "chainId": 0
    }
  ]
}