{
  "hash": "0xe596ed0ba283214499df602347fb5012ee1577b695b08bf9f9f8b15693ca411c",
  "parentHash": "0xdecd35c026219f99b6e043e70469eef94bfab127db31fbc8741ed8e432033424",
  "number": 79616,
  "timestamp": 1439472602,
  "nonce": "0xa19aa5ab35e6e09f",
  "difficulty": 2342683519815,
  "gasLimit": {
    "_hex": "0x2fefd8"
  },
  "gasUsed": {
    "_hex": "0x5208"
  },
  "miner": "0xe6A7a1d47ff21B6321162AEA7C6CB457D5476Bca",
  "extraData": "0x476574682f76312e302e312d38326566323666362f6c696e75782f676f312e34",
  "transactions": [
    {
      "hash": "0x5d124f650d63ea45016feb9aa18cfbaf288232916d802ff78668c25658da1527",
      "blockHash": "0xe596ed0ba283214499df602347fb5012ee1577b695b08bf9f9f8b15693ca411c",
      "blockNumber": 79616,
      "transactionIndex": 0,
      "confirmations": null,
      "from": "0x76d4a9bc9612bE738A81d0fE632b00B971E2bB9a",
      "gasPrice": {
        "_hex": "0xdfb23943c"
      },
      "gasLimit": {
        "_hex": "0x55f0"
      },
      "to": "0xb50405193Dc0c7077dD65252C15C39242F0aCB76",
      "value": {
        "_hex": "0x1a055690d9db80000"
      },
      "nonce": 5,
      "data": "0x",
      "r": "0xa86a513cdc7f03660ebd156a7fa7450821e29c4d71910948019c4dfc64459ca5",
      "s": "0x2b718ea1c6a1663f817d0895289b120e52031ca1b14a9d6bb6508c0505ab05ad",
      "v": 27,
      "creates": null,
      "raw": "0xf86d05850dfb23943c8255f094b50405193dc0c7077dd65252c15c39242f0acb768901a055690d9db80000801ba0a86a513cdc7f03660ebd156a7fa7450821e29c4d71910948019c4dfc64459ca5a02b718ea1c6a1663f817d0895289b120e52031ca1b14a9d6bb6508c0505ab05ad",
      "networkId": 0,
      "chainId": 0
    }
  ]
}