{
  "hash": "0x0de57e55b8dd0ead0bdd95f4fc36934b43feac387910866ef78d5a4bfb52987f",
  "parentHash": "0xcb841b9cee9957374934fac4bbd73c0a5540a592ecb94788ab5a2d34a7ad9157",
  "number": 84990,
  "timestamp": 1439557057,
  "nonce": "0x8ec39f010b261dbd",
  "difficulty": 2718473526134,
  "gasLimit": {
    "_hex": "0x2fefd8"
  },
  "gasUsed": {
    "_hex": "0xa410"
  },
  "miner": "0xe6A7a1d47ff21B6321162AEA7C6CB457D5476Bca",
  "extraData": "0x476574682f76312e302e312d38326566323666362f6c696e75782f676f312e34",
  "transactions": [
    {
      "hash": "0xa7ccff2d4cf6ee7363b0e1b111cd55415b53570e0d719781c9ecbe8bdd183101",
      "blockHash": "0x0de57e55b8dd0ead0bdd95f4fc36934b43feac387910866ef78d5a4bfb52987f",
      "blockNumber": 84990,
      "transactionIndex": 0,
      "confirmations": null,
      "from": "0x120A270bbC009644e35F0bB6ab13f95b8199c4ad",
      "gasPrice": {
        "_hex": "0xdabf94fc3"
      },
      "gasLimit": {
        "_hex": "0x3d090"
      },
      "to": "0x904a1546B526D1E66F16BDF09C3380C6190F2392",
      "value": {
        "_hex": "0x3e4ed7f84e457800"
      },
      "nonce": 441,
      "data": "0x",
      "r": "0x231045439b45d5c1e4b4c5eee793c050495880753239f2842aee6f50f7df2fbf",
      "s": "0x421c8d58273f0d2b21e996fda07a41c0564a14f2c55d6dfee54299864a5932b8",
      "v": 28,
      "creates": null,
      "raw": "0xf86f8201b9850dabf94fc38303d09094904a1546b526d1e66f16bdf09c3380c6190f2392883e4ed7f84e457800801ca0231045439b45d5c1e4b4c5eee793c050495880753239f2842aee6f50f7df2fbfa0421c8d58273f0d2b21e996fda07a41c0564a14f2c55d6dfee54299864a5932b8",
      "networkId": 0,
      "chainId": 0
    },
    {
      "hash": "0x76eafc952f167f0805a2930bc9e0d47d24385d9fdc396dc24c6022596a5e992c",
      "blockHash": "0x0de57e55b8dd0ead0bdd95f4fc36934b43feac387910866ef78d5a4bfb52987f",
      "blockNumber": 84990,
      "transactionIndex": 1,
      "confirmations": null,
      "from": "0x4E61B2316C9A92a4F5F078A71f2E78f1e2208F34",
      "gasPrice": {
        "_hex": "0xd2b900e60"
      },
      "gasLimit": {
        "_hex": "0x5208"
      },
      "to": "0x32Be343B94f860124dC4fEe278FDCBD38C102D88",
      "value": {
        "_hex": "0x3bc147514563dc000"
      },
      "nonce": 0,
      "data": "0x",
      "r": "0x17d5a73d1e6071b0d098ed73358016ea28277f65232484692a621622670a7e0d",
      "s": "0x47f6eb1f57103e32810d1943564541164c241e03efa04c76067d3fdc1a987ae4",
      "v": 27,
      "creates": null,
      "raw": "0xf86d80850d2b900e608252089432be343b94f860124dc4fee278fdcbd38c102d888903bc147514563dc000801ba017d5a73d1e6071b0d098ed73358016ea28277f65232484692a621622670a7e0da047f6eb1f57103e32810d1943564541164c241e03efa04c76067d3fdc1a987ae4",
      "networkId": 0,
      "chainId": 0
    }
  ]
}