{
  "hash": "0x56bb02a389845be5fa61c916b663b982e1d31e807b53d3b26baacba62e4b8fc2",
  "parentHash": "0xde9ce4cc58c34bada93252a79c78c7245e47319fd1318a9c2abf10ad17f230d1",
  "number": 80002,
  "timestamp": 1439478598,
  "nonce": "0x21684e2c7b0728e8",
  "difficulty": 2349448802638,
  "gasLimit": {
    "_hex": "0x2fefd8"
  },
  "gasUsed": {
    "_hex": "0x5208"
  },
  "miner": "0xfC25864D8326b4CB335C6942218e5F4Ee8D1E1EF",
  "extraData": "0x476574682f76312e302e312f77696e646f77732f676f312e342e32",
  "transactions": [
    {
      "hash": "0xc4484e3448168cf2035fa118b9a0c6a713608cb2e463ebb4a91c3853df83094d",
      "blockHash": "0x56bb02a389845be5fa61c916b663b982e1d31e807b53d3b26baacba62e4b8fc2",
      "blockNumber": 80002,
      "transactionIndex": 0,
      "confirmations": null,
      "from": "0x82A15CeF1d6c8260EAf159eA3f0180D8677DcE1c",
      "gasPrice": {
        "_hex": "0xd4eeef1c7"
      },
      "gasLimit": {
        "_hex": "0x15f90"
      },
      "to": "0x0000000000000000000000000000000000000000",
      "value": {
        "_hex": "0x2386f26fc10000"
      },
      "nonce": 0,
      "data": "0x",
      "r": "0x1d8beceb161fe4eaa7a09a09839837502c49a6578b3b008f494ee2666ba856ce",
      "s": "0x6c1e89ef33c904a5a4ddc65b70a518ec9084c58f012bd07ac2f65978fd35eecb",
      "v": 28,
      "creates": null,
      "raw": "0xf86c80850d4eeef1c783015f90940000000000000000000000000000000000000000872386f26fc10000801ca01d8beceb161fe4eaa7a09a09839837502c49a6578b3b008f494ee2666ba856cea06c1e89ef33c904a5a4ddc65b70a518ec9084c58f012bd07ac2f65978fd35eecb",
      "networkId": 0,
      "chainId": 0
    }
  ]
}