{
  "hash": "0x962a9e340d246568c8e431b1f1ea15a1023f718aae920f6a3c1730e62e8fa8c1",
  "parentHash": "0xff1e985b8b7ae848162cc2aeecfadd3f546fbc384bf4a0a252def83aa4c7b767",
  "number": 75219,
  "timestamp": 1439399745,
  "nonce": "0x41f50b6af0789c3a",
  "difficulty": 2192246248524,
  "gasLimit": {
    "_hex": "0x2fefd8"
  },
  "gasUsed": {
    "_hex": "0x54cf"
  },
  "miner": "0x36F60f6fAe70855D6a506c3cbDfa8B1Cc4d77c35",
  "extraData": "0x",
  "transactions": [
    {
      "hash": "0x2c2c5d9cd6b87bb84fc825d1f6bc7198b55bff04f2008bdec63e54cf9a5bd449",
      "blockHash": "0x962a9e340d246568c8e431b1f1ea15a1023f718aae920f6a3c1730e62e8fa8c1",
      "blockNumber": 75219,
      "transactionIndex": 0,
      "confirmations": null,
      "from": "0x87C5B5874A18B4306DF8a752a6C8cc3E82daFc19",
      "gasPrice": {
        "_hex": "0x11071a0e392"
      },
      "gasLimit": {
        "_hex": "0x493e0"
      },
      "to": "0xC4c51de1AbF5D60DBd329eC0F999Fd8f021ae9fC",
      "value": {
        "_hex": "0x0"
      },
      "nonce": 37,
      "data": "0x46b305d6",
      "r": "0x921d17948cfef17331dbfcdd9f1918f55b1e812998b06f400a1c448cc5a70a5f",
      "s": "0x4da6ba04713fdc702b9f3a577b4a9494a2d8f814adb702033550e9cc55e36b6b",
      "v": 28,
      "creates": null,
      "raw": "0xf86a2586011071a0e392830493e094c4c51de1abf5d60dbd329ec0f999fd8f021ae9fc808446b305d61ca0921d17948cfef17331dbfcdd9f1918f55b1e812998b06f400a1c448cc5a70a5fa04da6ba04713fdc702b9f3a577b4a9494a2d8f814adb702033550e9cc55e36b6b",
      "networkId": 0,
      "chainId": 0
    }
  ]
}