{
  "hash": "0x83bb616cbd31bc868078fa26494c6aabff2d89bad1b6a459514094c2e74cbc5c",
  "parentHash": "0x67d8f41f51a5630d8c162bdd3174dc822f630212f7bd65d49a54a67e1cbec6c0",
  "number": 72836,
  "timestamp": 1439358791,
  "nonce": "0x0699ef41cce90cf6",
  "difficulty": 2196083665716,
  "gasLimit": {
    "_hex": "0x2fefd8"
  },
  "gasUsed": {
    "_hex": "0xae73"
  },
  "miner": "0xf927a40C8B7F6E07c5af7FA2155B4864a4112B13",
  "extraData": "0x",
  "transactions": [
    {
      "hash": "0x6ed070cc8a84b1a6f23103a4aebad72cc6890e43db5b839ac2df23e6c8851ce0",
      "blockHash": "0x83bb616cbd31bc868078fa26494c6aabff2d89bad1b6a459514094c2e74cbc5c",
      "blockNumber": 72836,
      "transactionIndex": 0,
      "confirmations": null,
      "from": "0xc8ebccC5F5689Fa8659d83713341e5aD19349448",
      "gasPrice": {
        "_hex": "0xd55dd96d1"
      },
      "gasLimit": {
        "_hex": "0x61a80"
      },
      "to": "0x5Fe5B7546D1628f7348B023A0393de1FC825A4fD",
      "value": {
        "_hex": "0xde0b6b3a7640000"
      },
      "nonce": 49,
      "data": "0xb595b8b50000000000000000000000000000000000000000000000000000000000000000",
      "r": "0xecf8597828e5d850c16633a6002f7fcdd54836e803254a00dd38a970f9d8485d",
      "s": "0x49e2c0d107bce63b16ff942b6b8e223f9d07bedbb3e0da293bd1b4d93a1ff8b8",
      "v": 27,
      "creates": null,
      "raw": "0xf89131850d55dd96d183061a80945fe5b7546d1628f7348b023a0393de1fc825a4fd880de0b6b3a7640000a4b595b8b500000000000000000000000000000000000000000000000000000000000000001ba0ecf8597828e5d850c16633a6002f7fcdd54836e803254a00dd38a970f9d8485da049e2c0d107bce63b16ff942b6b8e223f9d07bedbb3e0da293bd1b4d93a1ff8b8",
      "networkId": 0,
      "chainId": 0
    }
  ]
}