{
  "hash": "0x557fc97328f1fcec885a96e5dc0d2516a5e5fce9ad36a0540e0248833eaa3f8b",
  "parentHash": "0x5bca6fb996cc818ae532b22b8d5ba8c66792661ca3d353c73f2912f2a24fe86f",
  "number": 81317,
  "timestamp": 1439499751,
  "nonce": "0x414a278879ded872",
  "difficulty": 2446238002549,
  "gasLimit": {
    "_hex": "0x2fefd8"
  },
  "gasUsed": {
    "_hex": "0x14820"
  },
  "miner": "0xF2d2AfF1320476cb8C6b607199D23175cc595693",
  "extraData": "0x476574682f76312e302e312f77696e646f77732f676f312e342e32",
  "transactions": [
    {
      "hash": "0x4afae92a34488b5f0b0715608d030b61dbe11d17175fbc9be41f88439ba35881",
      "blockHash": "0x557fc97328f1fcec885a96e5dc0d2516a5e5fce9ad36a0540e0248833eaa3f8b",
      "blockNumber": 81317,
      "transactionIndex": 0,
      "confirmations": null,
      "from": "0x42e16B3732ae6f3e38AeE7546f36149C9eCB8F26",
      "gasPrice": {
        "_hex": "0xde593c0b3"
      },
      "gasLimit": {
        "_hex": "0x5208"
      },
      "to": "0x32Be343B94f860124dC4fEe278FDCBD38C102D88",
      "value": {
        "_hex": "0x455f28e16910c800"
      },
      "nonce": 3,
      "data": "0x",
      "r": "0x7356bcb5d66834d5efb1113bada8cef129666a040376ebba638837c20b5e9139",
      "s": "0x23a0e4f882611455b2e2e17d027b387f70507dc0ba34b7b1aef30d112cbfdbec",
      "v": 28,
      "creates": null,
      "raw": "0xf86c03850de593c0b38252089432be343b94f860124dc4fee278fdcbd38c102d8888455f28e16910c800801ca07356bcb5d66834d5efb1113bada8cef129666a040376ebba638837c20b5e9139a023a0e4f882611455b2e2e17d027b387f70507dc0ba34b7b1aef30d112cbfdbec",
      "networkId": 0,
      "chainId": 0
    },
    {
      "hash": "0x0b8cd458c0f2c6421a8f31dea490e02af6e98898c77cdeaec3a5e52806c4644d",
      "blockHash": "0x557fc97328f1fcec885a96e5dc0d2516a5e5fce9ad36a0540e0248833eaa3f8b",
      "blockNumber": 81317,
      "transactionIndex": 1,
      "confirmations": null,
      "from": "0xDA4E0Ba268486216E0B3Ad5ccEAa1E7EdB1C2751",
      "gasPrice": {
        "_hex": "0xde593c0b3"
      },
      "gasLimit": {
        "_hex": "0x5208"
      },
      "to": "0x32Be343B94f860124dC4fEe278FDCBD38C102D88",
      "value": {
        "_hex": "0x47740f9a71cd9c00"
      },
      "nonce": 5,
      "data": "0x",
      "r": "0x36d9048670b0beff703bb90e919632159ccc4fcc42ccc3e6bcbbacf29d68b6b5",
      "s": "0x3db11e259925839b498654631a7cc9e492bf8bcde7fba2e401561029e0e87eb5",
      "v": 27,
      "creates": null,
      "raw": "0xf86c05850de593c0b38252089432be343b94f860124dc4fee278fdcbd38c102d888847740f9a71cd9c00801ba036d9048670b0beff703bb90e919632159ccc4fcc42ccc3e6bcbbacf29d68b6b5a03db11e259925839b498654631a7cc9e492bf8bcde7fba2e401561029e0e87eb5",
      "networkId": 0,
      "chainId": 0
    },
    {
      "hash": "0x08cacee81b622e9b91a00da04bf17dc7cab05839f220e9d8961213d82d9f6c58",
      "blockHash": "0x557fc97328f1fcec885a96e5dc0d2516a5e5fce9ad36a0540e0248833eaa3f8b",
      "blockNumber": 81317,
      "transactionIndex": 2,
      "confirmations": null,
      "from": "0xb68c4428193f7F71bA7351366022f0c3E81ca552",
      "gasPrice": {
        "_hex": "0xde593c0b3"
      },
      "gasLimit": {
        "_hex": "0x5208"
      },
      "to": "0x32Be343B94f860124dC4fEe278FDCBD38C102D88",
      "value": {
        "_hex": "0xdca7f422db4ac00"
      },
      "nonce": 2,
      "data": "0x",
      "r": "0x9c903d52ed84fb0bc0f941e0fb083bb0577878ee2017662d06a96ad9c22a7c70",
      "s": "0x10ebfa62b55bc9bd2e2d4a18df9dde181868b888872bd5376e3b0ee97a58f849",
      "v": 28,
      "creates": null,
      "raw": "0xf86c02850de593c0b38252089432be343b94f860124dc4fee278fdcbd38c102d88880dca7f422db4ac00801ca09c903d52ed84fb0bc0f941e0fb083bb0577878ee2017662d06a96ad9c22a7c70a010ebfa62b55bc9bd2e2d4a18df9dde181868b888872bd5376e3b0ee97a58f849",
      "networkId": 0,
      "chainId": 0
    },
    {
      "hash": "0x065e37086e3f57122158c5b7e048371da3c0c2df2dbf60825e5637082c1a267f",
      "blockHash": "0x557fc97328f1fcec885a96e5dc0d2516a5e5fce9ad36a0540e0248833eaa3f8b",
      "blockNumber": 81317,
      "transactionIndex": 3,
      "confirmations": null,
      "from": "0x2910543Af39abA0Cd09dBb2D50200b3E800A63D2",
      "gasPrice": {
        "_hex": "0xdbf9ce110"
      },
      "gasLimit": {
        "_hex": "0x5208"
      },
      "to": "0x9630Db4398d754a15E7E3A395269D2e884C5ec59",
      "value": {
        "_hex": "0xad7a07fd3fe008000"
      },
      "nonce": 467,
      "data": "0x",
      "r": "0xbb4474fb7c7d107784b68770b4788e209e4a746c5d8d188e6ffa0a087991acf6",
      "s": "0x425681a042cf5c613e9900acf55c494dc6b3652acdea9bacfbcb608f394e85e0",
      "v": 27,
      "creates": null,
      "raw": "0xf86f8201d3850dbf9ce110825208949630db4398d754a15e7e3a395269d2e884c5ec59890ad7a07fd3fe008000801ba0bb4474fb7c7d107784b68770b4788e209e4a746c5d8d188e6ffa0a087991acf6a0425681a042cf5c613e9900acf55c494dc6b3652acdea9bacfbcb608f394e85e0",
      "networkId": 0,
      "chainId": 0
    }
  ]
}