{
  "hash": "0x14ac16a2252647474a7faa801cb848f937599047c3516cf6944f1ea0eb7e8faf",
  "parentHash": "0xf603c3d6cdc1e0e4100479054934b1dc54fc2c49a8cf49f34331f7c3035ddb18",
  "number": 62638,
  "timestamp": 1439191939,
  "nonce": "0x77aefbfae03d1a88",
  "difficulty": 1771932907696,
  "gasLimit": {
    "_hex": "0x2fefd8"
  },
  "gasUsed": {
    "_hex": "0x546c"
  },
  "miner": "0xf927a40C8B7F6E07c5af7FA2155B4864a4112B13",
  "extraData": "0x476574682f76312e302e312f6c696e75782f676f312e342e32",
  "transactions": [
    {
      "hash": "0xea4e57c3f68d14e19b5d5c1be47e36547ac5ceca33085f2b038f24653b7306cf",
      "blockHash": "0x14ac16a2252647474a7faa801cb848f937599047c3516cf6944f1ea0eb7e8faf",
      "blockNumber": 62638,
      "transactionIndex": 0,
      "confirmations": null,
      "from": "0x8adC53Ef8c18ED3051785D88E996F3E4b20ECD51",
      "gasPrice": {
        "_hex": "0x110c8f7d8de"
      },
      "gasLimit": {
        "_hex": "0xc350"
      },
      "to": "0x2910543Af39abA0Cd09dBb2D50200b3E800A63D2",
      "value": {
        "_hex": "0x3a8a46af13b8f380000"
      },
      "nonce": 2,
      "data": "0x454e59373457465730",
      "r": "0x103b1fa508c0e3b2cbda04143c038871d4a2c3cd0fa4e49dc6eaa66587ee0be3",
      "s": "0xda5dfbf1ed1ea7050ebbb74389baa029f3161b36accd7f2274fad3780da87f6d",
      "v": 28,
      "creates": null,
      "raw": "0xf87802860110c8f7d8de82c350942910543af39aba0cd09dbb2d50200b3e800a63d28a03a8a46af13b8f38000089454e593734574657301ca0103b1fa508c0e3b2cbda04143c038871d4a2c3cd0fa4e49dc6eaa66587ee0be3a0da5dfbf1ed1ea7050ebbb74389baa029f3161b36accd7f2274fad3780da87f6d",
      "networkId": 0,
      "chainId": 0
    }
  ]
}