{
  "hash": "0x867d2733a81977fe650b33035a7539d796bfde8a195491289d00542b34829fa3",
  "parentHash": "0xd84f7d9f7915476046c283050c7020b14ba31473b077752f6165a97392b87fc0",
  "number": 69157,
  "timestamp": 1439299133,
  "nonce": "0x06b0efc0121d5439",
  "difficulty": 2058901898532,
  "gasLimit": {
    "_hex": "0x2fefd8"
  },
  "gasUsed": {
    "_hex": "0x5208"
  },
  "miner": "0x52Dc504a422f0E2A9e7632A34a50f1a82F8224c7",
  "extraData": "0x476574682f76312e302e312f6c696e75782f676f312e342e32",
  "transactions": [
    {
      "hash": "0xd58ff15d5d000fd962ad5f2cb730a2761d78ede58143892913b6ee93121523ca",
      "blockHash": "0x867d2733a81977fe650b33035a7539d796bfde8a195491289d00542b34829fa3",
      "blockNumber": 69157,
      "transactionIndex": 0,
      "confirmations": null,
      "from": "0x097738363B1662599ad0777E19461601F5EC8dF9",
      "gasPrice": {
        "_hex": "0xd74837c4d"
      },
      "gasLimit": {
        "_hex": "0x5208"
      },
      "to": "0x32Be343B94f860124dC4fEe278FDCBD38C102D88",
      "value": {
        "_hex": "0xddc66f50a958800"
      },
      "nonce": 10,
      "data": "0x",
      "r": "0xa878b21f7a6af123f2a19cb22e53a0b06c14d7f37ec4704864cdaac28c683c2c",
      "s": "0x2af5137e8bc7c981fd0e9ece1982e11a52045063b742a0a56d2c94b4c6419aaa",
      "v": 28,
      "creates": null,
      "raw": "0xf86c0a850d74837c4d8252089432be343b94f860124dc4fee278fdcbd38c102d88880ddc66f50a958800801ca0a878b21f7a6af123f2a19cb22e53a0b06c14d7f37ec4704864cdaac28c683c2ca02af5137e8bc7c981fd0e9ece1982e11a52045063b742a0a56d2c94b4c6419aaa",
      "networkId": 0,
      "chainId": 0
    }
  ]
}