{
  "hash": "0xff25bd1d4ec11bef226fd6622accb10a58632f97e37c7a1920aef007471a3fb0",
  "parentHash": "0x9a1bf9e9fb97f31c87bc91533e92f4124c484ddac8e906f061c1b227a35656ec",
  "number": 55962,
  "timestamp": 1439079902,
  "nonce": "0xfb147333a79262fe",
  "difficulty": 1614647752377,
  "gasLimit": {
    "_hex": "0x2fefd8"
  },
  "gasUsed": {
    "_hex": "0x305c0"
  },
  "miner": "0x580992B51e3925e23280EfB93d3047C82f17E038",
  "extraData": "0x476574682f76312e302e312f6c696e75782f676f312e342e32",
  "transactions": [
    {
      "hash": "0x27d92bc20c3d5f524f4e5f2c1bef4bd4439ef9e99147d9aff00d981688c4d456",
      "blockHash": "0xff25bd1d4ec11bef226fd6622accb10a58632f97e37c7a1920aef007471a3fb0",
      "blockNumber": 55962,
      "transactionIndex": 0,
      "confirmations": null,
      "from": "0x9B2c46642CAF6B936dc0633da521f1E946B7e18F",
      "gasPrice": {
        "_hex": "0xdb2816147"
      },
      "gasLimit": {
        "_hex": "0xf4240"
      },
      "to": null,
      "value": {
        "_hex": "0x0"
      },
      "nonce": 5,
      "data": "0x606060405260405160208061025a8339016040526060805190602001505b8080602757506127105b600060005060003373ffffffffffffffffffffffffffffffffffffffff168152602001908152602001600020600050819055505b506101ef8061006b6000396000f30060606040526000357c01000000000000000000000000000000000000000000000000000000009004806390b98a1114610044578063bbd39ac01461007157610042565b005b61005b6004803590602001803590602001506100b3565b6040518082815260200191505060405180910390f35b610082600480359060200150610098565b6040518082815260200191505060405180910390f35b60006000506020528060005260406000206000915090505481565b600081600060005060003373ffffffffffffffffffffffffffffffffffffffff1681526020019081526020016000206000505410156100f557600090506101e9565b81600060005060003373ffffffffffffffffffffffffffffffffffffffff16815260200190815260200160002060008282825054039250508190555081600060005060008573ffffffffffffffffffffffffffffffffffffffff1681526020019081526020016000206000828282505401925050819055507f16cdf1707799c6655baac6e210f52b94b7cec08adcaf9ede7dfe8649da926146338484604051808473ffffffffffffffffffffffffffffffffffffffff1681526020018373ffffffffffffffffffffffffffffffffffffffff168152602001828152602001935050505060405180910390a1600190506101e9565b92915050560000000000000000000000000000000000000000000000000000000000002710",
      "r": "0x052681e3c023d812b3ec39e32036692a65af3ffa7aaf7c11d4e3f480ceb5a11b",
      "s": "0x72d3c3715e7e63e70cdc81c7514f05b9c589106a394427308fd1ea05538045ca",
      "v": 27,
      "creates": "0xDBB576b5B0e7BF0570A981AAb3AD39A0c5F19EB1",
      "raw": "0xf902cd05850db2816147830f42408080b9027a606060405260405160208061025a8339016040526060805190602001505b8080602757506127105b600060005060003373ffffffffffffffffffffffffffffffffffffffff168152602001908152602001600020600050819055505b506101ef8061006b6000396000f30060606040526000357c01000000000000000000000000000000000000000000000000000000009004806390b98a1114610044578063bbd39ac01461007157610042565b005b61005b6004803590602001803590602001506100b3565b6040518082815260200191505060405180910390f35b610082600480359060200150610098565b6040518082815260200191505060405180910390f35b60006000506020528060005260406000206000915090505481565b600081600060005060003373ffffffffffffffffffffffffffffffffffffffff1681526020019081526020016000206000505410156100f557600090506101e9565b81600060005060003373ffffffffffffffffffffffffffffffffffffffff16815260200190815260200160002060008282825054039250508190555081600060005060008573ffffffffffffffffffffffffffffffffffffffff1681526020019081526020016000206000828282505401925050819055507f16cdf1707799c6655baac6e210f52b94b7cec08adcaf9ede7dfe8649da926146338484604051808473ffffffffffffffffffffffffffffffffffffffff1681526020018373ffffffffffffffffffffffffffffffffffffffff168152602001828152602001935050505060405180910390a1600190506101e9565b929150505600000000000000000000000000000000000000000000000000000000000027101ba0052681e3c023d812b3ec39e32036692a65af3ffa7aaf7c11d4e3f480ceb5a11ba072d3c3715e7e63e70cdc81c7514f05b9c589106a394427308fd1ea05538045ca",
      "networkId": 0,
      "chainId": 0
    },
    {
      "hash": "0xf7c48fe71c4e218355ce6af5699b45cbcff4d53e461cfc169989d38788b91046",
      "blockHash": "0xff25bd1d4ec11bef226fd6622accb10a58632f97e37c7a1920aef007471a3fb0",
      "blockNumber": 55962,
      "transactionIndex": 1,
      "confirmations": null,
      "from": "0xf64EE50154E0D74461966B4bB90139C010BCA68B",
      "gasPrice": {
        "_hex": "0xd0b82cfbd"
      },
      "gasLimit": {
        "_hex": "0x15f90"
      },
      "to": "0xc97b6E47df229442524F8f210926557900f81574",
      "value": {
        "_hex": "0xebec21ee1da40000"
      },
      "nonce": 2,
      "data": "0x",
      "r": "0xd772e118405257a75150c133f51fcae5178aca36fe906f05a3ef5bc11b737f45",
      "s": "0x6a7df090f6719efb2a30009c7f35e1da4d6c2bc68cf013f93d30686ffe114620",
      "v": 27,
      "creates": null,
      "raw": "0xf86d02850d0b82cfbd83015f9094c97b6e47df229442524f8f210926557900f8157488ebec21ee1da40000801ba0d772e118405257a75150c133f51fcae5178aca36fe906f05a3ef5bc11b737f45a06a7df090f6719efb2a30009c7f35e1da4d6c2bc68cf013f93d30686ffe114620",
      "networkId": 0,
      "chainId": 0
    }
  ]
}