{
  "hash": "0xd2018c7025853c06a45704758a62c59c466e95c0776a849b2c22eb4f099910ea",
  "parentHash": "0xef1329631c06c4342ef997b97906afdaf3ad9f61b31caadeb56364ecf7c9b9ac",
  "number": 99835,
  "timestamp": 1439796339,
  "nonce": "0xf1d2485b48a5ca72",
  "difficulty": 3836238352155,
  "gasLimit": {
    "_hex": "0x2fefd8"
  },
  "gasUsed": {
    "_hex": "0xa410"
  },
  "miner": "0xcf00A85f3826941e7A25BFcF9Aac575d40410852",
  "extraData": "0x476574682f76312e302e312f77696e646f77732f676f312e342e32",
  "transactions": [
    {
      "hash": "0xa5fce91d27d500ee97faff00445273e9aaf9e223380926505377ff6d9cfb4ee3",
      "blockHash": "0xd2018c7025853c06a45704758a62c59c466e95c0776a849b2c22eb4f099910ea",
      "blockNumber": 99835,
      "transactionIndex": 0,
      "confirmations": null,
      "from": "0xD9666150A9dA92d9108198a4072970805a8B3428",
      "gasPrice": {
        "_hex": "0xcbb4ba3c1"
      },
      "gasLimit": {
        "_hex": "0x5208"
      },
      "to": "0x32Be343B94f860124dC4fEe278FDCBD38C102D88",
      "value": {
        "_hex": "0xd026a022b92bc000"
      },
      "nonce": 38,
      "data": "0x",
      "r": "0xc4cd08b4c205811ba049dfb11e2645b1dd2f74958c0b6fcd6abd0586d18dbdfd",
      "s": "0x7b9cca8bd38d0ff732c416bb7f807ba25962bf3d75598a5b63645bcaf8b9e0c0",
      "v": 28,
      "creates": null,
      "raw": "0xf86c26850cbb4ba3c18252089432be343b94f860124dc4fee278fdcbd38c102d8888d026a022b92bc000801ca0c4cd08b4c205811ba049dfb11e2645b1dd2f74958c0b6fcd6abd0586d18dbdfda07b9cca8bd38d0ff732c416bb7f807ba25962bf3d75598a5b63645bcaf8b9e0c0",
      "networkId": 0,
      "chainId": 0
    },
    {
      "hash": "0x3a940632588fc02d1fb6da655ac1ee5ab8c2c0762d839987aa28308a906a56b5",
      "blockHash": "0xd2018c7025853c06a45704758a62c59c466e95c0776a849b2c22eb4f099910ea",
      "blockNumber": 99835,
      "transactionIndex": 1,
      "confirmations": null,
      "from": "0xa70a9a7040d542C632D8e0bE7c5513A8a5Bbc752",
      "gasPrice": {
        "_hex": "0xcbb4ba3c1"
      },
      "gasLimit": {
        "_hex": "0x5208"
      },
      "to": "0x32Be343B94f860124dC4fEe278FDCBD38C102D88",
      "value": {
        "_hex": "0x4563c0a835bd0000"
      },
      "nonce": 200,
      "data": "0x",
      "r": "0x45e479d3a9542937e1cb8389c1201543ad10ca8e7e51a6d48adf1028cb50a653",
      "s": "0x5a2f20806008b69a7e7b218d2c1fa4d37f64eb3eda3b23e7884487f2a4353e2d",
      "v": 28,
      "creates": null,
      "raw": "0xf86d81c8850cbb4ba3c18252089432be343b94f860124dc4fee278fdcbd38c102d88884563c0a835bd0000801ca045e479d3a9542937e1cb8389c1201543ad10ca8e7e51a6d48adf1028cb50a653a05a2f20806008b69a7e7b218d2c1fa4d37f64eb3eda3b23e7884487f2a4353e2d",
      "networkId": 0,
      "chainId": 0
    }
  ]
}