{
  "hash": "0x991132b98d2b036eca8b1b1cc8111ba315931ce87b18c06833b83460760e6370",
  "parentHash": "0x9b9920282deca73d0a0cbf3ebadd12d245fce295b71ccdf2925add21e78cdf8c",
  "number": 83309,
  "timestamp": 1439533420,
  "nonce": "0x7b7b49e0e4a70f5a",
  "difficulty": 2421890042381,
  "gasLimit": {
    "_hex": "0x2fefd8"
  },
  "gasUsed": {
    "_hex": "0xd236"
  },
  "miner": "0x0eDEd3DA479d0beF8eeC92A76644D3f4E3C177f7",
  "extraData": "0x476574682f76312e302e312f6c696e75782f676f312e342e32",
  "transactions": [
    {
      "hash": "0x17356699d8bc5743f655681654189569adbdc19299e2d262abc1789d37bb4a8e",
      "blockHash": "0x991132b98d2b036eca8b1b1cc8111ba315931ce87b18c06833b83460760e6370",
      "blockNumber": 83309,
      "transactionIndex": 0,
      "confirmations": null,
      "from": "0xFBb1b73C4f0BDa4f67dcA266ce6Ef42f520fBB98",
      "gasPrice": {
        "_hex": "0xd86b822fa"
      },
      "gasLimit": {
        "_hex": "0x15f90"
      },
      "to": "0xCAc7000C7dBaa2E33Af15325AF5D435E011C7BdD",
      "value": {
        "_hex": "0x0"
      },
      "nonce": 30,
      "data": "0x3feb1bd84249545452455830300000000000000000000000000000000000000000000000000000000000000000000000770d98d31b4353fceee8560c4ccf803e88c0c4e00000000000000000000000000000000000000000000000000de0b6b3a7640000",
      "r": "0xdedc3f2189d03a984648dc92a676dea14fc7c78f4993bfc0c73ced6441f99e0e",
      "s": "0x78c97468f12f94e867ea6a074124c52e0bf6d345b27f4a4886369183f0d4a2bc",
      "v": 28,
      "creates": null,
      "raw": "0xf8ca1e850d86b822fa83015f9094cac7000c7dbaa2e33af15325af5d435e011c7bdd80b8643feb1bd84249545452455830300000000000000000000000000000000000000000000000000000000000000000000000770d98d31b4353fceee8560c4ccf803e88c0c4e00000000000000000000000000000000000000000000000000de0b6b3a76400001ca0dedc3f2189d03a984648dc92a676dea14fc7c78f4993bfc0c73ced6441f99e0ea078c97468f12f94e867ea6a074124c52e0bf6d345b27f4a4886369183f0d4a2bc",
      "networkId": 0,
      "chainId": 0
    },
    {
      "hash": "0x4926309a64c50fc2534eacd8fb27fe3fdcd5c27361da840f53d72ab027fa1246",
      "blockHash": "0x991132b98d2b036eca8b1b1cc8111ba315931ce87b18c06833b83460760e6370",
      "blockNumber": 83309,
      "transactionIndex": 1,
      "confirmations": null,
      "from": "0xC47Aaa860008be6f65B58c6C6E02a84e666EfE31",
      "gasPrice": {
        "_hex": "0xd8364fc25"
      },
      "gasLimit": {
        "_hex": "0x15f90"
      },
      "to": "0x5757aD9187871b88a825F0dBF416cE7CF1606898",
      "value": {
        "_hex": "0x82e96d47e1a4e259d"
      },
      "nonce": 10,
      "data": "0x",
      "r": "0x086518f048ef0089082cea04d7d2ebac090f0c00d6ac89b407aa079a441bec7d",
      "s": "0x35eb604b8789d32ad5885ccd8112a670a0bdd0ccc3d275c085d48e8c1eaca3dd",
      "v": 27,
      "creates": null,
      "raw": "0xf86e0a850d8364fc2583015f90945757ad9187871b88a825f0dbf416ce7cf160689889082e96d47e1a4e259d801ba0086518f048ef0089082cea04d7d2ebac090f0c00d6ac89b407aa079a441bec7da035eb604b8789d32ad5885ccd8112a670a0bdd0ccc3d275c085d48e8c1eaca3dd",
      "networkId": 0,
      "chainId": 0
    }
  ]
}