{
  "hash": "0x75c1ca94fc3ee33093465fb2d3504a1b148f88c2efd2566f1b565428cd8c20b4",
  "parentHash": "0x09c2a7448b1f1e5cbb9e4996261ebd0745389d2e54458f1f1313d178bc2e9453",
  "number": 53148,
  "timestamp": 1439033284,
  "nonce": "0xc42cc090d7ade180",
  "difficulty": 1573158038156,
  "gasLimit": {
    "_hex": "0x20baa7"
  },
  "gasUsed": {
    "_hex": "0x546c"
  },
  "miner": "0x47ff6576639c2e94762eA5443978D7681C0E78DC",
  "extraData": "0x476574682f76312e302e312f6c696e75782f676f312e342e32",
  "transactions": [
    {
      "hash": "0xd808e9af3aaf14a4e523841943faa8870435085222b821b7c3b5fa42aa9f7f75",
      "blockHash": "0x75c1ca94fc3ee33093465fb2d3504a1b148f88c2efd2566f1b565428cd8c20b4",
      "blockNumber": 53148,
      "transactionIndex": 0,
      "confirmations": null,
      "from": "0x2abCE1808940Cd4Ef5B5E05285F82dF7a9Ab5E03",
      "gasPrice": {
        "_hex": "0x110c8f7d8de"
      },
      "gasLimit": {
        "_hex": "0xc350"
      },
      "to": "0x2910543Af39abA0Cd09dBb2D50200b3E800A63D2",
      "value": {
        "_hex": "0x213417ce3b14d9a0000"
      },
      "nonce": 0,
      "data": "0x454e5256424a505252",
      "r": "0xf20ec61c73f353f4721636888430ebb8215285f9123359aa649d8165dec19997",
      "s": "0x51e3827c9b312a4d91361d941b1fb645c76def9082789ff91462409f14ba4265",
      "v": 28,
      "creates": null,
      "raw": "0xf87880860110c8f7d8de82c350942910543af39aba0cd09dbb2d50200b3e800a63d28a0213417ce3b14d9a000089454e5256424a5052521ca0f20ec61c73f353f4721636888430ebb8215285f9123359aa649d8165dec19997a051e3827c9b312a4d91361d941b1fb645c76def9082789ff91462409f14ba4265",
      "networkId": 0,
      "chainId": 0
    }
  ]
}