{
  "hash": "0xc46359676a217cf1225a7fcf2e2e75ba24080b26ebef615d02f4eec7fafdea5c",
  "parentHash": "0xf740ff07f8bda7f50a61ee2514363dddcf36a3398b85c031b0b812ca7b6a34c5",
  "number": 47410,
  "timestamp": 1438939792,
  "nonce": "0xf13d1924ab2c6e2e",
  "difficulty": 1451669709001,
  "gasLimit": {
    "_hex": "0xba93"
  },
  "gasUsed": {
    "_hex": "0x5208"
  },
  "miner": "0xF2d2AfF1320476cb8C6b607199D23175cc595693",
  "extraData": "0x476574682f76312e302e312f77696e646f77732f676f312e342e32",
  "transactions": [
    {
      "hash": "0xab4b9830441b8e4c0baedaf115048e198c13ad130dc038e41fef6e1c9b27f2c2",
      "blockHash": "0xc46359676a217cf1225a7fcf2e2e75ba24080b26ebef615d02f4eec7fafdea5c",
      "blockNumber": 47410,
      "transactionIndex": 0,
      "confirmations": null,
      "from": "0xe6A7a1d47ff21B6321162AEA7C6CB457D5476Bca",
      "gasPrice": {
        "_hex": "0x1c529e39b8"
      },
      "gasLimit": {
        "_hex": "0x5208"
      },
      "to": "0x3FF679B0823a026F2378E5f5F22A6F127cC85828",
      "value": {
        "_hex": "0x1254ea6f6c04a7090"
      },
      "nonce": 135,
      "data": "0x",
      "r": "0x0688345018ff6b2e1224523cd1a0ed922a373495fb42404d4a7868255e4b200a",
      "s": "0x43dabdb38baf9558bf5b612a3d2ac548df4df76eeff2d528d7f9d97106f608a6",
      "v": 27,
      "creates": null,
      "raw": "0xf86e8187851c529e39b8825208943ff679b0823a026f2378e5f5f22a6f127cc858288901254ea6f6c04a7090801ba00688345018ff6b2e1224523cd1a0ed922a373495fb42404d4a7868255e4b200aa043dabdb38baf9558bf5b612a3d2ac548df4df76eeff2d528d7f9d97106f608a6",
      "networkId": 0,
      "chainId": 0
    }
  ]
}