{
  "hash": "0xe2b8d38664e54897c91b26b2346f0ea5cf8abb1c0bd51bf979958765b7473e96",
  "parentHash": "0x5d22b5a459cde16d98942f1e7e908d62aa53cb271c4e162a17e800e592bafd8d",
  "number": 65515,
  "timestamp": 1439238320,
  "nonce": "0xda9d696ce5b20dcd",
  "difficulty": 1952081033590,
  "gasLimit": {
    "_hex": "0x2fefd8"
  },
  "gasUsed": {
    "_hex": "0x81d4d"
  },
  "miner": "0x1B7047b4338ACf65bE94C1A3e8c5c9338ad7d67C",
  "extraData": "0x476574682f76312e302e312d38326566323666362f6c696e75782f676f312e34",
  "transactions": [
    {
      "hash": "0x49b308e5632b66cd22df298d9022a4a5c06c362c5c826665c9ee4c6b744909d8",
      "blockHash": "0xe2b8d38664e54897c91b26b2346f0ea5cf8abb1c0bd51bf979958765b7473e96",
      "blockNumber": 65515,
      "transactionIndex": 0,
      "confirmations": null,
      "from": "0xD9E6086071980fE3484b6BaABA07A10b47B046A6",
      "gasPrice": {
        "_hex": "0xff249ffe5c"
      },
      "gasLimit": {
        "_hex": "0x15f90"
      },
      "to": "0x125B606C67E8066Da65069652b656c19717745Fa",
      "value": {
        "_hex": "0x16345785d8a0000"
      },
      "nonce": 9,
      "data": "0xa55526db",
      "r": "0x5ee08ec386f635631d028873af34cd1471db8162d7af7d9fa7b0fc7c5cd7f9ca",
      "s": "0x4375eb540ca569b6ba7226c3076d4352881ce7384e45383dacbe7dd6d31080be",
      "v": 28,
      "creates": null,
      "raw": "0xf8710985ff249ffe5c83015f9094125b606c67e8066da65069652b656c19717745fa88016345785d8a000084a55526db1ca05ee08ec386f635631d028873af34cd1471db8162d7af7d9fa7b0fc7c5cd7f9caa04375eb540ca569b6ba7226c3076d4352881ce7384e45383dacbe7dd6d31080be",
      "networkId": 0,
      "chainId": 0
    },
    {
      "hash": "0x1f9dea1002c0853c600e027ccc86f5b0e6a173b935eed7ad3c845d45617c3c3d",
      "blockHash": "0xe2b8d38664e54897c91b26b2346f0ea5cf8abb1c0bd51bf979958765b7473e96",
      "blockNumber": 65515,
      "transactionIndex": 1,
      "confirmations": null,
      "from": "0xd2731F6A25bC94eD032b33085b23fC37f6A554a6",
      "gasPrice": {
        "_hex": "0xd08c31faf"
      },
      "gasLimit": {
        "_hex": "0x7a120"
      },
      "to": "0xA327075af2a223A1C83a36aDa1126afE7430f955",
      "value": {
        "_hex": "0x8ac7230489e80000"
      },
      "nonce": 2,
      "data": "0x",
      "r": "0x278c48b8cf72ba5cb52466ace201048ff97262aee781275004f0340a47d2b5ad",
      "s": "0x4c011c4ca76ac75cd21ec34d07a25949c3f50ff5bc851048b4ec6a1b1cda14ac",
      "v": 28,
      "creates": null,
      "raw": "0xf86d02850d08c31faf8307a12094a327075af2a223a1c83a36ada1126afe7430f955888ac7230489e80000801ca0278c48b8cf72ba5cb52466ace201048ff97262aee781275004f0340a47d2b5ada04c011c4ca76ac75cd21ec34d07a25949c3f50ff5bc851048b4ec6a1b1cda14ac",
      "networkId": 0,
      "chainId": 0
    }
  ]
}