{
  "hash": "0xba65650190c0850c82a1f49266f18f0106292fb466d6f5098e4f4c9f5c91de1f",
  "parentHash": "0xe2e7e9acb6e16073095c696b41eded0225273a817b0f52e39f44ff83cdf88145",
  "number": 92612,
  "timestamp": 1439674622,
  "nonce": "0x8ec8aea5727f2c4e",
  "difficulty": 3552731039379,
  "gasLimit": {
    "_hex": "0x2fefd8"
  },
  "gasUsed": {
    "_hex": "0x19a28"
  },
  "miner": "0xC5624D986419AeBa6B6A7Ce5BAFd9883f75d8bc8",
  "extraData": "0x",
  "transactions": [
    {
      "hash": "0xf9aed86a67ec66368c94f5717650ce3245f9065f5072ee8b040028ab8fe1497c",
      "blockHash": "0xba65650190c0850c82a1f49266f18f0106292fb466d6f5098e4f4c9f5c91de1f",
      "blockNumber": 92612,
      "transactionIndex": 0,
      "confirmations": null,
      "from": "0x458F183347F45a4001807728A89F31E9Da9D4A58",
      "gasPrice": {
        "_hex": "0xe01eaea6e"
      },
      "gasLimit": {
        "_hex": "0x15f90"
      },
      "to": "0x1D3ffA437e5bce40fCC134f4E0ac62841E4A9E81",
      "value": {
        "_hex": "0x81103cb9fb220000"
      },
      "nonce": 29,
      "data": "0x",
      "r": "0x777551281b805cac33c3993d580814e9db78bd2a85f1a04a5395f25381600a57",
      "s": "0x0274d2c3dc041137143998cb499f75e1e16d391e712d94a30fbbc490a875064b",
      "v": 27,
      "creates": null,
      "raw": "0xf86d1d850e01eaea6e83015f90941d3ffa437e5bce40fcc134f4e0ac62841e4a9e818881103cb9fb220000801ba0777551281b805cac33c3993d580814e9db78bd2a85f1a04a5395f25381600a57a00274d2c3dc041137143998cb499f75e1e16d391e712d94a30fbbc490a875064b",
      "networkId": 0,
      "chainId": 0
    },
    {
      "hash": "0x8ebaa6d173594c36ca6b41fbc7b2c950dea3d7928071ee0096b32f2eff75198a",
      "blockHash": "0xba65650190c0850c82a1f49266f18f0106292fb466d6f5098e4f4c9f5c91de1f",
      "blockNumber": 92612,
      "transactionIndex": 1,
      "confirmations": null,
      "from": "0x458F183347F45a4001807728A89F31E9Da9D4A58",
      "gasPrice": {
        "_hex": "0xe2fb3fcc8"
      },
      "gasLimit": {
        "_hex": "0x15f90"
      },
      "to": "0x7313946aA53dCDd777C90905D75A9B41e17Ca2c9",
      "value": {
        "_hex": "0x75f610f70ed20000"
      },
      "nonce": 30,
      "data": "0x",
      "r": "0x5430b06d3c090309334a9d2c2e4be97ee21de7a2753bb9c828b1ab7d1440053a",
      "s": "0x6d8ab0c2dc456423c3671af00bbb0b02a4728d5117a8a318f10efc1c9d743c8d",
      "v": 28,
      "creates": null,
      "raw": "0xf86d1e850e2fb3fcc883015f90947313946aa53dcdd777c90905d75a9b41e17ca2c98875f610f70ed20000801ca05430b06d3c090309334a9d2c2e4be97ee21de7a2753bb9c828b1ab7d1440053aa06d8ab0c2dc456423c3671af00bbb0b02a4728d5117a8a318f10efc1c9d743c8d",
      "networkId": 0,
      "chainId": 0
    },
    {
      "hash": "0x0906cdd38b9a7fe672db89a4ac8790f57eac96b1c39638b6c9f9f32a54635ecd",
      "blockHash": "0xba65650190c0850c82a1f49266f18f0106292fb466d6f5098e4f4c9f5c91de1f",
      "blockNumber": 92612,
      "transactionIndex": 2,
      "confirmations": null,
      "from": "0x2910543Af39abA0Cd09dBb2D50200b3E800A63D2",
      "gasPrice": {
        "_hex": "0xde5a19187"
      },
      "gasLimit": {
        "_hex": "0x5208"
      },
      "to": "0x40D992204baF2ae5adEa86071c68eb9aFfbc725b",
      "value": {
        "_hex": "0x2dbd610e676058f8000"
      },
      "nonce": 832,
      "data": "0x",
      "r": "0xe2461594059c233c4ffb9460255fc350b7bf0b9f77402e97d41fe8a3e62b2a06",
      "s": "0x482ff8b23e4fe997e0889964c91a5fd03dcd5806c0948288d047a63ee29d31d9",
      "v": 28,
      "creates": null,
      "raw": "0xf870820340850de5a191878252089440d992204baf2ae5adea86071c68eb9affbc725b8a02dbd610e676058f8000801ca0e2461594059c233c4ffb9460255fc350b7bf0b9f77402e97d41fe8a3e62b2a06a0482ff8b23e4fe997e0889964c91a5fd03dcd5806c0948288d047a63ee29d31d9",
      "networkId": 0,
      "chainId": 0
    },
    {
      "hash": "0xbbe4c55090653b2b52b8e3c7fce7cdb8cdcd320848be14e2706b1017046a2760",
      "blockHash": "0xba65650190c0850c82a1f49266f18f0106292fb466d6f5098e4f4c9f5c91de1f",
      "blockNumber": 92612,
      "transactionIndex": 3,
      "confirmations": null,
      "from": "0xbd8e0aF411BA54d241f583a53b8FF42f8c0Bf1fF",
      "gasPrice": {
        "_hex": "0xd8c1aeaee"
      },
      "gasLimit": {
        "_hex": "0x15f90"
      },
      "to": "0x52191276589069F70F0E46bcCc718d793d1Aa1D0",
      "value": {
        "_hex": "0x1bc16d674ec80000"
      },
      "nonce": 0,
      "data": "0x",
      "r": "0x3b991a82a44752a3b6dbd2dcaa4dac1513c9ef19ea735885fbff8dbad9ee76fa",
      "s": "0x0fd163867d45329bf853ceb6c005186967eea4fe2a18cb975998e3f63b61bca4",
      "v": 27,
      "creates": null,
      "raw": "0xf86d80850d8c1aeaee83015f909452191276589069f70f0e46bccc718d793d1aa1d0881bc16d674ec80000801ba03b991a82a44752a3b6dbd2dcaa4dac1513c9ef19ea735885fbff8dbad9ee76faa00fd163867d45329bf853ceb6c005186967eea4fe2a18cb975998e3f63b61bca4",
      "networkId": 0,
      "chainId": 0
    },
    {
      "hash": "0x07f8957780625fe79c153cf80793939ae351cd45025b9f07585c7afcc2610b8a",
      "blockHash": "0xba65650190c0850c82a1f49266f18f0106292fb466d6f5098e4f4c9f5c91de1f",
      "blockNumber": 92612,
      "transactionIndex": 4,
      "confirmations": null,
      "from": "0xd11050820106D3E1D7a516B074b13D5ec2b4A8F1",
      "gasPrice": {
        "_hex": "0xd1f217cbf"
      },
      "gasLimit": {
        "_hex": "0x15f90"
      },
      "to": "0x83467Bcd87d0E6b641A9c2868e63Cb239adf1dc4",
      "value": {
        "_hex": "0x2b04bb46e3029d0"
      },
      "nonce": 1,
      "data": "0x",
      "r": "0xd5d8306b599eb3dd1944daaf1f87d5c0140681be40b41fd66cf819d0039b46a4",
      "s": "0x6b801834b02277923cdb7cec7fc0dccb581cee7190cd95e9f2ea13f462b8b8e4",
      "v": 27,
      "creates": null,
      "raw": "0xf86d01850d1f217cbf83015f909483467bcd87d0e6b641a9c2868e63cb239adf1dc48802b04bb46e3029d0801ba0d5d8306b599eb3dd1944daaf1f87d5c0140681be40b41fd66cf819d0039b46a4a06b801834b02277923cdb7cec7fc0dccb581cee7190cd95e9f2ea13f462b8b8e4",
      "networkId": 0,
      "chainId": 0
    }
  ]
}