{
  "hash": "0xb2b7bc88aa0778c81f4503df84cf8db8228c00eb9ee8be6241c8ebe3c528a2a8",
  "parentHash": "0xbd3b971283423cd2a51b7576cdc416d160c8eef54f5773a7fad686630a5535be",
  "number": 105638,
  "timestamp": 1439891023,
  "nonce": "0xadf7a7747cbb644c",
  "difficulty": 4401670481642,
  "gasLimit": {
    "_hex": "0x2fefd8"
  },
  "gasUsed": {
    "_hex": "0x5208"
  },
  "miner": "0x9746c7e1ef2bd21FF3997fa467593a89cb852BD0",
  "extraData": "0x476574682f76312e302e312f77696e646f77732f676f312e342e32",
  "transactions": [
    {
      "hash": "0xe42764343815c095fc753b6f0e110fbd821e7f3dab88270a7a501dad079c723a",
      "blockHash": "0xb2b7bc88aa0778c81f4503df84cf8db8228c00eb9ee8be6241c8ebe3c528a2a8",
      "blockNumber": 105638,
      "transactionIndex": 0,
      "confirmations": null,
      "from": "0xb1abce2918E21ddb93AA452731a12672A3d9F75a",
      "gasPrice": {
        "_hex": "0xe0ab1b741"
      },
      "gasLimit": {
        "_hex": "0x5208"
      },
      "to": "0x32Be343B94f860124dC4fEe278FDCBD38C102D88",
      "value": {
        "_hex": "0x455f11a496643c00"
      },
      "nonce": 138,
      "data": "0x",
      "r": "0xa2ae50eafcada1b1d5c486ed90f6bb613c7aa499ed60057910a8b9e0aaf63a84",
      "s": "0x2daf4c537d047424054faa04e5f1ca1923bc804402bdce0aa18142f526012766",
      "v": 27,
      "creates": null,
      "raw": "0xf86d818a850e0ab1b7418252089432be343b94f860124dc4fee278fdcbd38c102d8888455f11a496643c00801ba0a2ae50eafcada1b1d5c486ed90f6bb613c7aa499ed60057910a8b9e0aaf63a84a02daf4c537d047424054faa04e5f1ca1923bc804402bdce0aa18142f526012766",
      "networkId": 0,
      "chainId": 0
    }
  ]
}