{
  "hash": "0xb2a93f7d3b3812a97039cc9faf86148b8d5b16219f3f9e93037c9ecca1d75135",
  "parentHash": "0x95d87508ed3cb01e3f8331c1cc7c0b8a40cc16e10931065580b77ca7055a09ef",
  "number": 65854,
  "timestamp": 1439243982,
  "nonce": "0x75f2b929b3665e34",
  "difficulty": 1949144862654,
  "gasLimit": {
    "_hex": "0x2fefd8"
  },
  "gasUsed": {
    "_hex": "0xa97a"
  },
  "miner": "0x52Dc504a422f0E2A9e7632A34a50f1a82F8224c7",
  "extraData": "0x476574682f76312e302e312f6c696e75782f676f312e342e32",
  "transactions": [
    {
      "hash": "0x2d54133437706e7c3d8560c03ea8118a2f8147abd7fee1fc08a79e684df863de",
      "blockHash": "0xb2a93f7d3b3812a97039cc9faf86148b8d5b16219f3f9e93037c9ecca1d75135",
      "blockNumber": 65854,
      "transactionIndex": 0,
      "confirmations": null,
      "from": "0xFBb1b73C4f0BDa4f67dcA266ce6Ef42f520fBB98",
      "gasPrice": {
        "_hex": "0xd000f09f0"
      },
      "gasLimit": {
        "_hex": "0x15f90"
      },
      "to": "0xa1A111bc074c9cfa781F0C38e63bD51c91b8af00",
      "value": {
        "_hex": "0x3bd913e6c1df40000"
      },
      "nonce": 9,
      "data": "0x432ced044254525800000000000000000000000000000000000000000000000000000000",
      "r": "0x9b94937e8c6cadfb1782b53cd781226c3213eab81e7b0b605bd0322f5ae6704f",
      "s": "0x371d964ba662660f6da11892fb7e7f08294b913590c4df424cd316cb11d87d9b",
      "v": 28,
      "creates": null,
      "raw": "0xf89209850d000f09f083015f9094a1a111bc074c9cfa781f0c38e63bd51c91b8af008903bd913e6c1df40000a4432ced0442545258000000000000000000000000000000000000000000000000000000001ca09b94937e8c6cadfb1782b53cd781226c3213eab81e7b0b605bd0322f5ae6704fa0371d964ba662660f6da11892fb7e7f08294b913590c4df424cd316cb11d87d9b",
      "networkId": 0,
      "chainId": 0
    }
  ]
}