{
  "hash": "0x4612c46e4b4b428c3f8d32db544db81a6078148cfe0af9ac37da673307bb0258",
  "parentHash": "0xe0f1b10a4c6799b68871f2409cbca9490f3fdef834bc7ccb79f03397f3a786a7",
  "number": 118910,
  "timestamp": 1440133409,
  "nonce": "0x49f845d22f42407c",
  "difficulty": 4399005710484,
  "gasLimit": {
    "_hex": "0x2fefd8"
  },
  "gasUsed": {
    "_hex": "0xa410"
  },
  "miner": "0x35e8e5dC5FBd97c5b421A80B596C030a2Be2A04D",
  "extraData": "0x",
  "transactions": [
    {
      "hash": "0x6818ded8b1829c347081f8c223f3e3dd00ccfb52cc74fa5dccba2ed51de7bad0",
      "blockHash": "0x4612c46e4b4b428c3f8d32db544db81a6078148cfe0af9ac37da673307bb0258",
      "blockNumber": 118910,
      "transactionIndex": 0,
      "confirmations": null,
      "from": "0x31191beEB5a3d7f5eBC5B193e98bd15ce10Eb249",
      "gasPrice": {
        "_hex": "0xba43b7400"
      },
      "gasLimit": {
        "_hex": "0x5208"
      },
      "to": "0x32Be343B94f860124dC4fEe278FDCBD38C102D88",
      "value": {
        "_hex": "0xb5d7eaf9ece6000"
      },
      "nonce": 4,
      "data": "0x",
      "r": "0x1f96a112b9bcdaac4dd74328a49f92ba92d67d23ad108034c0179c6f2ec25a78",
      "s": "0x06861f3e24c00c8df0f09e8c0f068f4f7671ac803faa2303567c5a4150a26c88",
      "v": 27,
      "creates": null,
      "raw": "0xf86c04850ba43b74008252089432be343b94f860124dc4fee278fdcbd38c102d88880b5d7eaf9ece6000801ba01f96a112b9bcdaac4dd74328a49f92ba92d67d23ad108034c0179c6f2ec25a78a006861f3e24c00c8df0f09e8c0f068f4f7671ac803faa2303567c5a4150a26c88",
      "networkId": 0,
      "chainId": 0
    },
    {
      "hash": "0x2ee7b4c4e6c10fed973f596ba5ab93df73bf21093c46bf9d1dad5ec59c69aa3b",
      "blockHash": "0x4612c46e4b4b428c3f8d32db544db81a6078148cfe0af9ac37da673307bb0258",
      "blockNumber": 118910,
      "transactionIndex": 1,
      "confirmations": null,
      "from": "0xe8F1653CdbC016d2232f901997CF1440d39aee47",
      "gasPrice": {
        "_hex": "0xba43b7400"
      },
      "gasLimit": {
        "_hex": "0x5208"
      },
      "to": "0x32Be343B94f860124dC4fEe278FDCBD38C102D88",
      "value": {
        "_hex": "0x1582791a270ac6000"
      },
      "nonce": 0,
      "data": "0x",
      "r": "0xd923e8ebb18c2242682e51d83cca26da749b1a6b7598e8e03f1e0d43ad58d3a1",
      "s": "0x2f44ffead3600b389cde21deec0e5ea4dbf2942e0fd14292244e7f5b1913e230",
      "v": 27,
      "creates": null,
      "raw": "0xf86d80850ba43b74008252089432be343b94f860124dc4fee278fdcbd38c102d888901582791a270ac6000801ba0d923e8ebb18c2242682e51d83cca26da749b1a6b7598e8e03f1e0d43ad58d3a1a02f44ffead3600b389cde21deec0e5ea4dbf2942e0fd14292244e7f5b1913e230",
      "networkId": 0,
      "chainId": 0
    }
  ]
}