{
  "hash": "0xd8a7e7ed59c5645b566eb476f2296e3b56ba2768e8b02973da3da670e4e95d24",
  "parentHash": "0x92babc7e91264f432c48d3043e3cbd834be335a064beaa73fda8b121b12db4a1",
  "number": 79943,
  "timestamp": 1439477660,
  "nonce": "0xc274df1bf6a2e08b",
  "difficulty": 2350612807270,
  "gasLimit": {
    "_hex": "0x2fefd8"
  },
  "gasUsed": {
    "_hex": "0xd9b2"
  },
  "miner": "0xf8E0CA3Ed80bd541b94BEdCf259e8CF2141A9523",
  "extraData": "0x476574682f76312e302e312f77696e646f77732f676f312e342e32",
  "transactions": [
    {
      "hash": "0xb696f4e2cd36f4d2561d0daeef8712e43c94d01cd58898cba3e69908f6a404db",
      "blockHash": "0xd8a7e7ed59c5645b566eb476f2296e3b56ba2768e8b02973da3da670e4e95d24",
      "blockNumber": 79943,
      "transactionIndex": 0,
      "confirmations": null,
      "from": "0xD1826373C4E0938f0b4302B40324f7f9c546492C",
      "gasPrice": {
        "_hex": "0xd4d6428b4"
      },
      "gasLimit": {
        "_hex": "0x15f90"
      },
      "to": "0x67DE0f2F71e29b8003D957fbcDE9C9AE393CbE94",
      "value": {
        "_hex": "0x0"
      },
      "nonce": 30,
      "data": "0x32983c9e",
      "r": "0xca0d301721c8260fb2772d4221d163e2e12bf8be735a4fe61f180805978a5e32",
      "s": "0x3e1a566d9e53edf063bf3894c95e8db10d6f4e6bf8194b773f7c81270f4736d3",
      "v": 28,
      "creates": null,
      "raw": "0xf8691e850d4d6428b483015f909467de0f2f71e29b8003d957fbcde9c9ae393cbe94808432983c9e1ca0ca0d301721c8260fb2772d4221d163e2e12bf8be735a4fe61f180805978a5e32a03e1a566d9e53edf063bf3894c95e8db10d6f4e6bf8194b773f7c81270f4736d3",
      "networkId": 0,
      "chainId": 0
    },
    {
      "hash": "0xfe0d73e5048e88243a97c0cdc2ad582eb7e978d364ab3aa00748960b4decd8fb",
      "blockHash": "0xd8a7e7ed59c5645b566eb476f2296e3b56ba2768e8b02973da3da670e4e95d24",
      "blockNumber": 79943,
      "transactionIndex": 1,
      "confirmations": null,
      "from": "0x943800a6196105B4937F48570Dc5D0232a962da5",
      "gasPrice": {
        "_hex": "0xba43b7400"
      },
      "gasLimit": {
        "_hex": "0x5b04"
      },
      "to": "0x2910543Af39abA0Cd09dBb2D50200b3E800A63D2",
      "value": {
        "_hex": "0x6f05b59d3b20000"
      },
      "nonce": 0,
      "data": "0x",
      "r": "0x5391a4d1eead8230e14c5ae11a22b13d6885860d366bd862a18503119dbe135e",
      "s": "0x7dac2c90b04bdbbd92ee2ac040ab82912082deadcd6c582cf1599311ce0ee2d5",
      "v": 27,
      "creates": null,
      "raw": "0xf86c80850ba43b7400825b04942910543af39aba0cd09dbb2d50200b3e800a63d28806f05b59d3b20000801ba05391a4d1eead8230e14c5ae11a22b13d6885860d366bd862a18503119dbe135ea07dac2c90b04bdbbd92ee2ac040ab82912082deadcd6c582cf1599311ce0ee2d5",
      "networkId": 0,
      "chainId": 0
    }
  ]
}