{
  "hash": "0x8e8f71b427b32cbe031293a96fb014f07bf2611c259dc599cba37d470a96ba57",
  "parentHash": "0x25163f7a1ee1a60e8f29a41dca694f092884793f80c16a61ffc6feb4497141fa",
  "number": 95241,
  "timestamp": 1439721184,
  "nonce": "0x658a29b26c8ebe08",
  "difficulty": 3549884018244,
  "gasLimit": {
    "_hex": "0x2fefd8"
  },
  "gasUsed": {
    "_hex": "0xf618"
  },
  "miner": "0xad7210d76107F888745616FFF7979623b84F928c",
  "extraData": "0x476574682f76312e302e312f77696e646f77732f676f312e342e32",
  "transactions": [
    {
      "hash": "0x2d67edf1843e34e95a85a77f69e2beffca1a1ebd1a91e00b150fad406643aaf9",
      "blockHash": "0x8e8f71b427b32cbe031293a96fb014f07bf2611c259dc599cba37d470a96ba57",
      "blockNumber": 95241,
      "transactionIndex": 0,
      "confirmations": null,
      "from": "0x0F7606315036EF870B5D92Cd9e52b8d4f771a7eA",
      "gasPrice": {
        "_hex": "0xdb2816147"
      },
      "gasLimit": {
        "_hex": "0x15f90"
      },
      "to": "0x52F791EE5e11186Fc120EaB36Dd80277F6A630BB",
      "value": {
        "_hex": "0x3782dace9d900000"
      },
      "nonce": 3,
      "data": "0x",
      "r": "0x868fe3ad0fcb94901a47ff8f7d4d936891c9ef0cb633fd61071dcefc23083f29",
      "s": "0x49b4af49f4ab50b569e5c7da6ce42575696db5ad82e91151419d1cac5969749e",
      "v": 27,
      "creates": null,
      "raw": "0xf86d03850db281614783015f909452f791ee5e11186fc120eab36dd80277f6a630bb883782dace9d900000801ba0868fe3ad0fcb94901a47ff8f7d4d936891c9ef0cb633fd61071dcefc23083f29a049b4af49f4ab50b569e5c7da6ce42575696db5ad82e91151419d1cac5969749e",
      "networkId": 0,
      "chainId": 0
    },
    {
      "hash": "0x6599a96a62a68a824fd60b77a24d447037f4ca234504a261399fba77092d4a28",
      "blockHash": "0x8e8f71b427b32cbe031293a96fb014f07bf2611c259dc599cba37d470a96ba57",
      "blockNumber": 95241,
      "transactionIndex": 1,
      "confirmations": null,
      "from": "0x52191276589069F70F0E46bcCc718d793d1Aa1D0",
      "gasPrice": {
        "_hex": "0xcdeceb3b5"
      },
      "gasLimit": {
        "_hex": "0x5208"
      },
      "to": "0x32Be343B94f860124dC4fEe278FDCBD38C102D88",
      "value": {
        "_hex": "0x1154c49bc5719400"
      },
      "nonce": 9,
      "data": "0x",
      "r": "0x147a4188748cd1b2797e1b43ae8dbd8fc66714d663c3f5c429977388d60730bb",
      "s": "0x6df8674b2a6087da0f67c7789a738e068519137f39388c85adf9e23efc14af1d",
      "v": 27,
      "creates": null,
      "raw": "0xf86c09850cdeceb3b58252089432be343b94f860124dc4fee278fdcbd38c102d88881154c49bc5719400801ba0147a4188748cd1b2797e1b43ae8dbd8fc66714d663c3f5c429977388d60730bba06df8674b2a6087da0f67c7789a738e068519137f39388c85adf9e23efc14af1d",
      "networkId": 0,
      "chainId": 0
    },
    {
      "hash": "0xca120e71bce584ade9aa002b18704c289de06f50441907a7ece2d86ca8a11033",
      "blockHash": "0x8e8f71b427b32cbe031293a96fb014f07bf2611c259dc599cba37d470a96ba57",
      "blockNumber": 95241,
      "transactionIndex": 2,
      "confirmations": null,
      "from": "0x120A270bbC009644e35F0bB6ab13f95b8199c4ad",
      "gasPrice": {
        "_hex": "0xcb3234310"
      },
      "gasLimit": {
        "_hex": "0x3d090"
      },
      "to": "0x36B33F21Ba59c53E3502E52b8e0a7fD311215FFd",
      "value": {
        "_hex": "0x2cac95a94b43dd9400"
      },
      "nonce": 593,
      "data": "0x",
      "r": "0xd29e4be42b37b36d8bec939acaec45879bad55331b6afe36893a1e72b5136474",
      "s": "0x51fc8fd9ba3621aaa33d77f5ca1b95b8f2969bbc2e4db8331bdabfc0c13a705c",
      "v": 28,
      "creates": null,
      "raw": "0xf870820251850cb32343108303d0909436b33f21ba59c53e3502e52b8e0a7fd311215ffd892cac95a94b43dd9400801ca0d29e4be42b37b36d8bec939acaec45879bad55331b6afe36893a1e72b5136474a051fc8fd9ba3621aaa33d77f5ca1b95b8f2969bbc2e4db8331bdabfc0c13a705c",
      "networkId": 0,
      "chainId": 0
    }
  ]
}