{
  "hash": "0xfcab7f261e7319f4ce9134cc4d07fb790a2532814addda2f764c17a830bf8a3d",
  "parentHash": "0xc2b2b0cc8a8723cbae0f872dafccd2780779a40090bab133df73073d1ccaaa1c",
  "number": 64502,
  "timestamp": 1439221835,
  "nonce": "0xd6f2cb0958294258",
  "difficulty": 1874776425016,
  "gasLimit": {
    "_hex": "0x2fefd8"
  },
  "gasUsed": {
    "_hex": "0xbe6c"
  },
  "miner": "0xbb7B8287f3F0a933474a79eAe42CBCa977791171",
  "extraData": "0x476574682f4c5649562f76312e302e312f6c696e75782f676f312e342e32",
  "transactions": [
    {
      "hash": "0xe164634a945206dfe8dc87c268886e15f6d611cd662de2582225e9062b866d6c",
      "blockHash": "0xfcab7f261e7319f4ce9134cc4d07fb790a2532814addda2f764c17a830bf8a3d",
      "blockNumber": 64502,
      "transactionIndex": 0,
      "confirmations": null,
      "from": "0x853Dd95A31e99D0c743206A703a883198f8efBC4",
      "gasPrice": {
        "_hex": "0xba43b7400"
      },
      "gasLimit": {
        "_hex": "0x15f90"
      },
      "to": "0x793AE8C1b1a160BFc07BFB0d04F85eab1A71F4f2",
      "value": {
        "_hex": "0x0"
      },
      "nonce": 0,
      "data": "0x3ba15036",
      "r": "0x5c8213ac578cbdffcb48a7dcb10e29a858d8e9d1c362c35ca0d7dc6f79d11350",
      "s": "0x2ac914191b4f621ec1723ede59c656b25f27c24662f6b2af45d0240ee6a043a9",
      "v": 27,
      "creates": null,
      "raw": "0xf86980850ba43b740083015f9094793ae8c1b1a160bfc07bfb0d04f85eab1a71f4f280843ba150361ba05c8213ac578cbdffcb48a7dcb10e29a858d8e9d1c362c35ca0d7dc6f79d11350a02ac914191b4f621ec1723ede59c656b25f27c24662f6b2af45d0240ee6a043a9",
      "networkId": 0,
      "chainId": 0
    }
  ]
}