{
  "hash": "0xe62301f7a965f5ddb9bff49652c7266fe727888b36f808aae011959e16cd40c0",
  "parentHash": "0xbc5407f35326f7c14744e822035bef80ddab9faf5b189b2ae795f7c9f69a89ee",
  "number": 116551,
  "timestamp": 1440089672,
  "nonce": "0x7a968eec5e68a2b2",
  "difficulty": 4537705448317,
  "gasLimit": {
    "_hex": "0x2fefd8"
  },
  "gasUsed": {
    "_hex": "0x5208"
  },
  "miner": "0xe6A7a1d47ff21B6321162AEA7C6CB457D5476Bca",
  "extraData": "0xd783010002844765746887676f312e342e32856c696e7578",
  "transactions": [
    {
      "hash": "0xaca1b72e46b073af85511da7f95c75ba0caaf7bcea84a8a9f5ec70e6bcd0fcef",
      "blockHash": "0xe62301f7a965f5ddb9bff49652c7266fe727888b36f808aae011959e16cd40c0",
      "blockNumber": 116551,
      "transactionIndex": 0,
      "confirmations": null,
      "from": "0x3048a8bFee849B0F52475259ee76Eaf20BD985a3",
      "gasPrice": {
        "_hex": "0xd0fa74b5e"
      },
      "gasLimit": {
        "_hex": "0x15f90"
      },
      "to": "0x8d1264e8ba87b9CDE1c3d7596b670A80a9179DbE",
      "value": {
        "_hex": "0x13fbe85edc90000"
      },
      "nonce": 6,
      "data": "0x",
      "r": "0x4693087a32089aca340277c0fc3856a8688af4da022463aa3c6d2d4eefd8d4c5",
      "s": "0x194addc83fee8fbbbc7d6d68ea195146e29344346de8ea7e825f4ce20a2342b5",
      "v": 28,
      "creates": null,
      "raw": "0xf86d06850d0fa74b5e83015f90948d1264e8ba87b9cde1c3d7596b670a80a9179dbe88013fbe85edc90000801ca04693087a32089aca340277c0fc3856a8688af4da022463aa3c6d2d4eefd8d4c5a0194addc83fee8fbbbc7d6d68ea195146e29344346de8ea7e825f4ce20a2342b5",
      "networkId": 0,
      "chainId": 0
    }
  ]
}