{
  "hash": "0xa2fa130df9b0f506db50a262f5cf8c83b727a512ade777d5ab7deac90932cfd9",
  "parentHash": "0xc16b36a77c0b5bc0bf001cbad5fa0be6be0ea9cfe71d73be0e7629579ac2931c",
  "number": 80911,
  "timestamp": 1439493205,
  "nonce": "0xf162fee2c3c5b07f",
  "difficulty": 2434440415716,
  "gasLimit": {
    "_hex": "0x2fefd8"
  },
  "gasUsed": {
    "_hex": "0xa410"
  },
  "miner": "0xe6A7a1d47ff21B6321162AEA7C6CB457D5476Bca",
  "extraData": "0x476574682f76312e302e312d38326566323666362f6c696e75782f676f312e34",
  "transactions": [
    {
      "hash": "0xf41a40a20dfa0ae98d0b867a5de1b9e009e506367cf1bf0608c705a8cc40a216",
      "blockHash": "0xa2fa130df9b0f506db50a262f5cf8c83b727a512ade777d5ab7deac90932cfd9",
      "blockNumber": 80911,
      "transactionIndex": 0,
      "confirmations": null,
      "from": "0x120A270bbC009644e35F0bB6ab13f95b8199c4ad",
      "gasPrice": {
        "_hex": "0xd0c76c6ed"
      },
      "gasLimit": {
        "_hex": "0x3d090"
      },
      "to": "0xF6F1A44309051c6B25e47dff909B179Bb9aB591C",
      "value": {
        "_hex": "0x1b1ae4d6e2ef500000"
      },
      "nonce": 353,
      "data": "0x",
      "r": "0x8cf0d55897abeada6e9400bb144bbdac70940e0cca9b3e43e07d9b37233c1ca3",
      "s": "0x39860066590440334cdbcacd419ab81fffa779b06842c4662c2410b852d1711f",
      "v": 27,
      "creates": null,
      "raw": "0xf870820161850d0c76c6ed8303d09094f6f1a44309051c6b25e47dff909b179bb9ab591c891b1ae4d6e2ef500000801ba08cf0d55897abeada6e9400bb144bbdac70940e0cca9b3e43e07d9b37233c1ca3a039860066590440334cdbcacd419ab81fffa779b06842c4662c2410b852d1711f",
      "networkId": 0,
      "chainId": 0
    },
    {
      "hash": "0xa3721e9030a2546b351e32493ca3135460591f4ac4935259614e6f2e045f2d79",
      "blockHash": "0xa2fa130df9b0f506db50a262f5cf8c83b727a512ade777d5ab7deac90932cfd9",
      "blockNumber": 80911,
      "transactionIndex": 1,
      "confirmations": null,
      "from": "0x120A270bbC009644e35F0bB6ab13f95b8199c4ad",
      "gasPrice": {
        "_hex": "0xd0c76c6ed"
      },
      "gasLimit": {
        "_hex": "0x3d090"
      },
      "to": "0x2A3A69c490DD4c3b15959D4dF6531d37E4F3e0d6",
      "value": {
        "_hex": "0x168447d467be269800"
      },
      "nonce": 354,
      "data": "0x",
      "r": "0x6a0f77af3e1213d9963c6d601c4fbd76fadbac14e8c3f872765dce41d7b45ead",
      "s": "0x2bf0b07abf3c971a38fbc187ee6ac71c101a7719d1204b39bfe95f362fc8cd10",
      "v": 27,
      "creates": null,
      "raw": "0xf870820162850d0c76c6ed8303d090942a3a69c490dd4c3b15959d4df6531d37e4f3e0d689168447d467be269800801ba06a0f77af3e1213d9963c6d601c4fbd76fadbac14e8c3f872765dce41d7b45eada02bf0b07abf3c971a38fbc187ee6ac71c101a7719d1204b39bfe95f362fc8cd10",
      "networkId": 0,
      "chainId": 0
    }
  ]
}