{
  "hash": "0x4b787edc48e842bf8c0a6300c1b8ac18708923ef0ab06e33531b28aeded529c2",
  "parentHash": "0xf9c92d688bf5d7b02b6202b004174a52e4baf503a89dbb551face35de07970b9",
  "number": 65598,
  "timestamp": 1439239692,
  "nonce": "0xee698f73a763f68a",
  "difficulty": 1941605118573,
  "gasLimit": {
    "_hex": "0x2fefd8"
  },
  "gasUsed": {
    "_hex": "0x5501"
  },
  "miner": "0x88D74a59454F6cF3B51ef6b9136AFb6b9D405A88",
  "extraData": "0x476574682f76312e302e312d37666266393930632f6c696e75782f676f312e34",
  "transactions": [
    {
      "hash": "0x704842f4e54371c4b5d5c57b9ace5de11433de7aef0d2194eb42373e2dd0aef3",
      "blockHash": "0x4b787edc48e842bf8c0a6300c1b8ac18708923ef0ab06e33531b28aeded529c2",
      "blockNumber": 65598,
      "transactionIndex": 0,
      "confirmations": null,
      "from": "0x976349705b839e2F5719387Fb27D2519d519da03",
      "gasPrice": {
        "_hex": "0xddac66155"
      },
      "gasLimit": {
        "_hex": "0x15f90"
      },
      "to": "0x125B606C67E8066Da65069652b656c19717745Fa",
      "value": {
        "_hex": "0x0"
      },
      "nonce": 4,
      "data": "0xa55526db",
      "r": "0x8b24fc2e4866378a632bf3fb1630c81aa56bb0e8d20511226836b46d5f33c34a",
      "s": "0x14a0912e7bcbb680b54fd7e8b493ffa70d9ae71dbeda6ee11a6ef33dbbe17602",
      "v": 28,
      "creates": null,
      "raw": "0xf86904850ddac6615583015f9094125b606c67e8066da65069652b656c19717745fa8084a55526db1ca08b24fc2e4866378a632bf3fb1630c81aa56bb0e8d20511226836b46d5f33c34aa014a0912e7bcbb680b54fd7e8b493ffa70d9ae71dbeda6ee11a6ef33dbbe17602",
      "networkId": 0,
      "chainId": 0
    }
  ]
}