{
  "hash": "0xd82c90e771d690921a0d464a406950f621e2154ba796a1c27d73d63bc8a06e79",
  "parentHash": "0x54803a0763b8ef648301c136724e7364511c1cf90b2f72e4596b5d89f15cdd71",
  "number": 80318,
  "timestamp": 1439483725,
  "nonce": "0x86b7443952900ff8",
  "difficulty": 2379376293858,
  "gasLimit": {
    "_hex": "0x2fefd8"
  },
  "gasUsed": {
    "_hex": "0xf618"
  },
  "miner": "0x8B454d830feF179e66206840F8F3D1d83bC32b17",
  "extraData": "0x476574682f76312e302e312f77696e646f77732f676f312e342e32",
  "transactions": [
    {
      "hash": "0x620736e8d9ba0dcd90541a3d627e8ae822e023674580c0235791b6e3154cb6ce",
      "blockHash": "0xd82c90e771d690921a0d464a406950f621e2154ba796a1c27d73d63bc8a06e79",
      "blockNumber": 80318,
      "transactionIndex": 0,
      "confirmations": null,
      "from": "0x9A067cCaE90A80da2C4f33039d4E574d4A89F79b",
      "gasPrice": {
        "_hex": "0xcd6987f46"
      },
      "gasLimit": {
        "_hex": "0x5208"
      },
      "to": "0x32Be343B94f860124dC4fEe278FDCBD38C102D88",
      "value": {
        "_hex": "0x6c6b6bb77563200000"
      },
      "nonce": 0,
      "data": "0x",
      "r": "0x03c372b3b1a2d32b7a3e9e7fdc678d67089e8d525f42ec7802f07ab488a22ac0",
      "s": "0x229df2bc39dd999fd4fc98a0dbdb2857b8291b78555135dddd2f246913fc1dc8",
      "v": 28,
      "creates": null,
      "raw": "0xf86d80850cd6987f468252089432be343b94f860124dc4fee278fdcbd38c102d88896c6b6bb77563200000801ca003c372b3b1a2d32b7a3e9e7fdc678d67089e8d525f42ec7802f07ab488a22ac0a0229df2bc39dd999fd4fc98a0dbdb2857b8291b78555135dddd2f246913fc1dc8",
      "networkId": 0,
      "chainId": 0
    },
    {
      "hash": "0x3f7a2eab2a914f7e829b1a4d432a436b7539f1f40070d20236f2cd125b545633",
      "blockHash": "0xd82c90e771d690921a0d464a406950f621e2154ba796a1c27d73d63bc8a06e79",
      "blockNumber": 80318,
      "transactionIndex": 1,
      "confirmations": null,
      "from": "0x6e6bD2E762ecBa2B68ddB39b05916A9531AA0EA6",
      "gasPrice": {
        "_hex": "0xcd6987f46"
      },
      "gasLimit": {
        "_hex": "0x5208"
      },
      "to": "0x32Be343B94f860124dC4fEe278FDCBD38C102D88",
      "value": {
        "_hex": "0x3635c590a1f4400000"
      },
      "nonce": 1,
      "data": "0x",
      "r": "0x8bdebfaa25a015bca31138b9732e821190613d6119a3ecf8cf988521a49de7fe",
      "s": "0x2bc968fa0530753370ef74fc9cb918b1ec299292f7b2eb5836beea91a591a920",
      "v": 28,
      "creates": null,
      "raw": "0xf86d01850cd6987f468252089432be343b94f860124dc4fee278fdcbd38c102d88893635c590a1f4400000801ca08bdebfaa25a015bca31138b9732e821190613d6119a3ecf8cf988521a49de7fea02bc968fa0530753370ef74fc9cb918b1ec299292f7b2eb5836beea91a591a920",
      "networkId": 0,
      "chainId": 0
    },
    {
      "hash": "0xcf688ae0de18c622dad08d28e838bead806c1129cc1ef1dac1b5e9a8fb1f6820",
      "blockHash": "0xd82c90e771d690921a0d464a406950f621e2154ba796a1c27d73d63bc8a06e79",
      "blockNumber": 80318,
      "transactionIndex": 2,
      "confirmations": null,
      "from": "0x01Ad0ACFf478127D9d702B1A13599D706cB759b1",
      "gasPrice": {
        "_hex": "0xcd6987f46"
      },
      "gasLimit": {
        "_hex": "0x5208"
      },
      "to": "0x32Be343B94f860124dC4fEe278FDCBD38C102D88",
      "value": {
        "_hex": "0x34b832b9f81cf800"
      },
      "nonce": 22,
      "data": "0x",
      "r": "0x830b7494c8b9f4332bbbaa71abb1822c017304f1fc20e75bd0811ceffe9b9e5e",
      "s": "0x0825f26c3c24b232c7c8c6f61c9e3319575217ad13697c30e084f30ede572671",
      "v": 27,
      "creates": null,
      "raw": "0xf86c16850cd6987f468252089432be343b94f860124dc4fee278fdcbd38c102d888834b832b9f81cf800801ba0830b7494c8b9f4332bbbaa71abb1822c017304f1fc20e75bd0811ceffe9b9e5ea00825f26c3c24b232c7c8c6f61c9e3319575217ad13697c30e084f30ede572671",
      "networkId": 0,
      "chainId": 0
    }
  ]
}