{
  "hash": "0x932a1c07d0ead641e2d96158612199ce56163dddd7e2bd65b9278c10bfef8fc8",
  "parentHash": "0x8547a3b619e54a89577c824065f1700155f3bf07f1efc4248508dd83c2501c8c",
  "number": 92125,
  "timestamp": 1439667169,
  "nonce": "0xb3cb723a8015750b",
  "difficulty": 3475721250331,
  "gasLimit": {
    "_hex": "0x2fefd8"
  },
  "gasUsed": {
    "_hex": "0x546c"
  },
  "miner": "0x790b8a3cE86E707ED0eD32bF89B3269692a23CC1",
  "extraData": "0xd783010001844765746887676f312e342e32856c696e7578",
  "transactions": [
    {
      "hash": "0xa769a556eaa07af7ba546bfe780a78b301a3f31634d3a2e5fec8ae6ee4489ace",
      "blockHash": "0x932a1c07d0ead641e2d96158612199ce56163dddd7e2bd65b9278c10bfef8fc8",
      "blockNumber": 92125,
      "transactionIndex": 0,
      "confirmations": null,
      "from": "0x4CA783B556e5Bf53AA13c8116613d65782C9B642",
      "gasPrice": {
        "_hex": "0x110c8f7d8de"
      },
      "gasLimit": {
        "_hex": "0xc350"
      },
      "to": "0x2910543Af39abA0Cd09dBb2D50200b3E800A63D2",
      "value": {
        "_hex": "0x10f0cf064dd59200000"
      },
      "nonce": 1,
      "data": "0x454e46554d4d574830",
      "r": "0x4175e9fbd3cfeb5708db2e73bc8c8ad48c5a8758dd880f54ca17b1b3c559c3e9",
      "s": "0xca21c8ee89bdbdb68b9d4d3bda8b852cf79450beffbf5f46b704b0d08a650ab1",
      "v": 28,
      "creates": null,
      "raw": "0xf87801860110c8f7d8de82c350942910543af39aba0cd09dbb2d50200b3e800a63d28a010f0cf064dd5920000089454e46554d4d5748301ca04175e9fbd3cfeb5708db2e73bc8c8ad48c5a8758dd880f54ca17b1b3c559c3e9a0ca21c8ee89bdbdb68b9d4d3bda8b852cf79450beffbf5f46b704b0d08a650ab1",
      "networkId": 0,
      "chainId": 0
    }
  ]
}