{
  "hash": "0x7cdebf884811e9cd4b4be9eb6cdbe607aa8b5bd6184a4af8635a1ddce107bfc3",
  "parentHash": "0xdcd0ac576391345b320c169dbd4f202f0e89e9a373c31d6a5565f30e953d7786",
  "number": 51487,
  "timestamp": 1439005701,
  "nonce": "0xf1955ee3a1a44363",
  "difficulty": 1561987229448,
  "gasLimit": {
    "_hex": "0xb742c"
  },
  "gasUsed": {
    "_hex": "0x5208"
  },
  "miner": "0xBb12b5a9B85D4AB8CDE6056E9c1b2a4a337D2261",
  "extraData": "0x476574682f76312e302e312d36393865393864392f6c696e75782f676f312e34",
  "transactions": [
    {
      "hash": "0x9366ded35c5f896a9dc6024d89cb5d3481fcacbc7d218b68412c58608d8c41f4",
      "blockHash": "0x7cdebf884811e9cd4b4be9eb6cdbe607aa8b5bd6184a4af8635a1ddce107bfc3",
      "blockNumber": 51487,
      "transactionIndex": 0,
      "confirmations": null,
      "from": "0x1308A2e95c0160B90803ddCA9B9a5bb55E416d79",
      "gasPrice": {
        "_hex": "0xddc276376"
      },
      "gasLimit": {
        "_hex": "0x15f90"
      },
      "to": "0x42Dd879f8Eb7e9B43036A5b4C97B02c6176D6B99",
      "value": {
        "_hex": "0x4e687c3f46dd9d80000"
      },
      "nonce": 2,
      "data": "0x",
      "r": "0xdfee93a2c1b508d5d01dc7caf70540e6533277698b31babb96f35d0eabe8f5ee",
      "s": "0x73d832e9fc462b983d49b6711c60a0147f6ca9d5e9bd4128a46f83caf44b89f8",
      "v": 27,
      "creates": null,
      "raw": "0xf86f02850ddc27637683015f909442dd879f8eb7e9b43036a5b4c97b02c6176d6b998a04e687c3f46dd9d80000801ba0dfee93a2c1b508d5d01dc7caf70540e6533277698b31babb96f35d0eabe8f5eea073d832e9fc462b983d49b6711c60a0147f6ca9d5e9bd4128a46f83caf44b89f8",
      "networkId": 0,
      "chainId": 0
    }
  ]
}