{
  "hash": "0xda2d1c1559c72a2ed85939dfd55feb764adc6bd9c7daf0aede9406f01fb166eb",
  "parentHash": "0xcba2f1edce290a5bde962f9444302ffd9ee4d4ad7f1a47294c74fbc0718acff7",
  "number": 85486,
  "timestamp": 1439564390,
  "nonce": "0x3e9512cb1f42a282",
  "difficulty": 2755732444698,
  "gasLimit": {
    "_hex": "0x2fefd8"
  },
  "gasUsed": {
    "_hex": "0x5208"
  },
  "miner": "0x52Dc504a422f0E2A9e7632A34a50f1a82F8224c7",
  "extraData": "0x476574682f76312e302e312f6c696e75782f676f312e342e32",
  "transactions": [
    {
      "hash": "0x86d8e98f05959d94fdf56f31293b610dde4e867534f207cf1affac6749736a5d",
      "blockHash": "0xda2d1c1559c72a2ed85939dfd55feb764adc6bd9c7daf0aede9406f01fb166eb",
      "blockNumber": 85486,
      "transactionIndex": 0,
      "confirmations": null,
      "from": "0x9D49F602b0fdb924Bd63DDE2Bd0907E4A07c63a7",
      "gasPrice": {
        "_hex": "0xd788ab8e3"
      },
      "gasLimit": {
        "_hex": "0x15f90"
      },
      "to": "0xC6c676946C54B5e7c31A07a079166C488Bf06dd7",
      "value": {
        "_hex": "0x164bef22d6d62a0000"
      },
      "nonce": 2,
      "data": "0x",
      "r": "0x4407ad5d3ed9304a03bffc7ed4db8df781e8a0dd22c170b642390702520013f8",
      "s": "0x3484fe5bb0f3682a9e8dbceac4150c2efc6867d3685b0dd83389ab7cb78676eb",
      "v": 28,
      "creates": null,
      "raw": "0xf86e02850d788ab8e383015f9094c6c676946c54b5e7c31a07a079166c488bf06dd789164bef22d6d62a0000801ca04407ad5d3ed9304a03bffc7ed4db8df781e8a0dd22c170b642390702520013f8a03484fe5bb0f3682a9e8dbceac4150c2efc6867d3685b0dd83389ab7cb78676eb",
      "networkId": 0,
      "chainId": 0
    }
  ]
}