{
  "hash": "0x328dc68d2088338c0148570423d0d6fe014613622a90cccc859ef8a083a2852a",
  "parentHash": "0x15b4bf4635fcce22b63f38d7c3dbc57a4630f227dd76c20514ed11cac31d4cd6",
  "number": 89618,
  "timestamp": 1439626311,
  "nonce": "0xd4fedebf855f2166",
  "difficulty": 3322410950912,
  "gasLimit": {
    "_hex": "0x2fefd5"
  },
  "gasUsed": {
    "_hex": "0x5208"
  },
  "miner": "0xf8E0CA3Ed80bd541b94BEdCf259e8CF2141A9523",
  "extraData": "0x476574682f76312e302e312f77696e646f77732f676f312e342e32",
  "transactions": [
    {
      "hash": "0xec105a4b9fcbd57a9e6848727f8ea50befc63697ccf0e6c5a2cb80e1e00890c7",
      "blockHash": "0x328dc68d2088338c0148570423d0d6fe014613622a90cccc859ef8a083a2852a",
      "blockNumber": 89618,
      "transactionIndex": 0,
      "confirmations": null,
      "from": "0x019D3FA6E3cdA649b26F74395A846575c7bEA14C",
      "gasPrice": {
        "_hex": "0xdaf309a81"
      },
      "gasLimit": {
        "_hex": "0x15f90"
      },
      "to": "0x04a2a3ee9C9ea82e1F918ecE209f8A7E6d7521E7",
      "value": {
        "_hex": "0x46c6d6faa27e0000"
      },
      "nonce": 9,
      "data": "0x",
      "r": "0xea711ab0f98292c45555f9da10750bdd712a3e80b94428ef76d094f19dcf39ec",
      "s": "0x37cd6ddf632ce5c78244de5c685b5095fd57650faec73eff20267d60d57d1f2c",
      "v": 28,
      "creates": null,
      "raw": "0xf86d09850daf309a8183015f909404a2a3ee9c9ea82e1f918ece209f8a7e6d7521e78846c6d6faa27e0000801ca0ea711ab0f98292c45555f9da10750bdd712a3e80b94428ef76d094f19dcf39eca037cd6ddf632ce5c78244de5c685b5095fd57650faec73eff20267d60d57d1f2c",
      "networkId": 0,
      "chainId": 0
    }
  ]
}