{
  "hash": "0xe168c308fd597bf576c4c258d96a8d0149481b44fe5f926d6641409d366e4edd",
  "parentHash": "0xf8bdd2587af88f12f46d10402d12d55b4aa649177397547f60ba312dbdae16ef",
  "number": 87416,
  "timestamp": 1439591846,
  "nonce": "0xddbd6815ba07004e",
  "difficulty": 3124985883611,
  "gasLimit": {
    "_hex": "0x2fefd8"
  },
  "gasUsed": {
    "_hex": "0x546c"
  },
  "miner": "0x6BB048244aC4f934163a15b7a472Ce7B48fC9F32",
  "extraData": "0x476574682f76312e302e312d37666266393930632f6c696e75782f676f312e34",
  "transactions": [
    {
      "hash": "0xe2413dac27cc6b8029dcb10410bdbe4d2c5b76b517cc8f8d2165b8c4b7c22c4a",
      "blockHash": "0xe168c308fd597bf576c4c258d96a8d0149481b44fe5f926d6641409d366e4edd",
      "blockNumber": 87416,
      "transactionIndex": 0,
      "confirmations": null,
      "from": "0x369eF761195f3A373e24eCE6CD22520fE0b9E86E",
      "gasPrice": {
        "_hex": "0x110c8f7d8de"
      },
      "gasLimit": {
        "_hex": "0xc350"
      },
      "to": "0x2910543Af39abA0Cd09dBb2D50200b3E800A63D2",
      "value": {
        "_hex": "0x4563918244f40000"
      },
      "nonce": 1,
      "data": "0x454e385451354e4a38",
      "r": "0x7d1b8f8e5886258c81cd566b085b576f5eacac2dc0ebe648a91b3bbdcef41a71",
      "s": "0x5b2a9f8a82b1ed94ad13d4310c479aedf3f34d99399b3e6e9425e0873f38bf5b",
      "v": 27,
      "creates": null,
      "raw": "0xf87601860110c8f7d8de82c350942910543af39aba0cd09dbb2d50200b3e800a63d2884563918244f4000089454e385451354e4a381ba07d1b8f8e5886258c81cd566b085b576f5eacac2dc0ebe648a91b3bbdcef41a71a05b2a9f8a82b1ed94ad13d4310c479aedf3f34d99399b3e6e9425e0873f38bf5b",
      "networkId": 0,
      "chainId": 0
    }
  ]
}