{
  "hash": "0xe26750baeaf438eddb6547946d7cfb7c8efadc884fa1f3a0c6599b29f25cdab5",
  "parentHash": "0x34a20ce411b7537c12a60738016669da81d9fb715b0ee0ec6fb9e27a1686b832",
  "number": 50918,
  "timestamp": 1438996615,
  "nonce": "0x4bf8c098f9dfdb64",
  "difficulty": 1549180255808,
  "gasLimit": {
    "_hex": "0x83586"
  },
  "gasUsed": {
    "_hex": "0x5208"
  },
  "miner": "0x0338116f55fEd2F5ee9391C8624612Dc9744D149",
  "extraData": "0x476574682f76312e302e312f6c696e75782f676f312e342e32",
  "transactions": [
    {
      "hash": "0xa69c16f10abf1ce7dbef6f3bfe547438aff6be4e45da661e96a1900a8e4f98be",
      "blockHash": "0xe26750baeaf438eddb6547946d7cfb7c8efadc884fa1f3a0c6599b29f25cdab5",
      "blockNumber": 50918,
      "transactionIndex": 0,
      "confirmations": null,
      "from": "0x3Ad06149b21C55Ff867cc3fb9740D2BCc7101231",
      "gasPrice": {
        "_hex": "0xd7fcee8ae"
      },
      "gasLimit": {
        "_hex": "0x15f90"
      },
      "to": "0x1308A2e95c0160B90803ddCA9B9a5bb55E416d79",
      "value": {
        "_hex": "0x10f0cf064dd59200000"
      },
      "nonce": 2,
      "data": "0x",
      "r": "0x01dd2140d2b55b598264b7f0a53637e2617973d41f54d0fede78cd86ea13b790",
      "s": "0x735b6f14fdb59b92ec364a8e35d3b9ec735b04014bf74b6a79e63d2b97e36a16",
      "v": 28,
      "creates": null,
      "raw": "0xf86f02850d7fcee8ae83015f90941308a2e95c0160b90803ddca9b9a5bb55e416d798a010f0cf064dd59200000801ca001dd2140d2b55b598264b7f0a53637e2617973d41f54d0fede78cd86ea13b790a0735b6f14fdb59b92ec364a8e35d3b9ec735b04014bf74b6a79e63d2b97e36a16",
      "networkId": 0,
      "chainId": 0
    }
  ]
}