{
  "hash": "0x24467be33edc37e1283e44fcea15c1b9fb3ce3bac1fe6eb1fb61d814de52ad1f",
  "parentHash": "0xd0fef25d755056efe50431c66a1df709bfccfd8352e29be6947ddf1c2accac83",
  "number": 94423,
  "timestamp": 1439708160,
  "nonce": "0xe174d068b6831b14",
  "difficulty": 3488369094618,
  "gasLimit": {
    "_hex": "0x2fefd8"
  },
  "gasUsed": {
    "_hex": "0xa410"
  },
  "miner": "0xf927a40C8B7F6E07c5af7FA2155B4864a4112B13",
  "extraData": "0x",
  "transactions": [
    {
      "hash": "0x084bf23e5f8a7f7a78696180bfe56327a02f1f17f6c35ba14102463d44c686a0",
      "blockHash": "0x24467be33edc37e1283e44fcea15c1b9fb3ce3bac1fe6eb1fb61d814de52ad1f",
      "blockNumber": 94423,
      "transactionIndex": 0,
      "confirmations": null,
      "from": "0x32Be343B94f860124dC4fEe278FDCBD38C102D88",
      "gasPrice": {
        "_hex": "0xddb81d912"
      },
      "gasLimit": {
        "_hex": "0x5208"
      },
      "to": "0x120A270bbC009644e35F0bB6ab13f95b8199c4ad",
      "value": {
        "_hex": "0x1b1ae4d6e2ef5000000"
      },
      "nonce": 957,
      "data": "0x",
      "r": "0x8636e503fd9d459bcdb74577e2ada4f1549ed7417dd1d2231c3d8c856df1d101",
      "s": "0x624e31a75e972de220cf208aa9af49a96a85ef11abb89127d4b912bc808365e6",
      "v": 27,
      "creates": null,
      "raw": "0xf8708203bd850ddb81d91282520894120a270bbc009644e35f0bb6ab13f95b8199c4ad8a01b1ae4d6e2ef5000000801ba08636e503fd9d459bcdb74577e2ada4f1549ed7417dd1d2231c3d8c856df1d101a0624e31a75e972de220cf208aa9af49a96a85ef11abb89127d4b912bc808365e6",
      "networkId": 0,
      "chainId": 0
    },
    {
      "hash": "0x80c0790a099e53a0d21b9c8ad9d05f683ab8486c42c762e25b780015108f5e5e",
      "blockHash": "0x24467be33edc37e1283e44fcea15c1b9fb3ce3bac1fe6eb1fb61d814de52ad1f",
      "blockNumber": 94423,
      "transactionIndex": 1,
      "confirmations": null,
      "from": "0x32Be343B94f860124dC4fEe278FDCBD38C102D88",
      "gasPrice": {
        "_hex": "0xddb81d912"
      },
      "gasLimit": {
        "_hex": "0x5208"
      },
      "to": "0xceE5B64f0B4F8ecf107fE721BB62e276dF19b40c",
      "value": {
        "_hex": "0xdbd2fc137a30000"
      },
      "nonce": 958,
      "data": "0x",
      "r": "0x44af2aec6221290951cf0f3adc2d0e19a232e00f61bc3c2abf106ad25dfa2d7d",
      "s": "0x162810bf77de6df1bf39e8b223eda3a11e0e8528c281a3ac42d254ff297c9d4e",
      "v": 27,
      "creates": null,
      "raw": "0xf86e8203be850ddb81d91282520894cee5b64f0b4f8ecf107fe721bb62e276df19b40c880dbd2fc137a30000801ba044af2aec6221290951cf0f3adc2d0e19a232e00f61bc3c2abf106ad25dfa2d7da0162810bf77de6df1bf39e8b223eda3a11e0e8528c281a3ac42d254ff297c9d4e",
      "networkId": 0,
      "chainId": 0
    }
  ]
}