{
  "hash": "0xb8fe0e78cc265445606db36ef0e9bee88dc0a1468d6ed67ed1fdae51288cf406",
  "parentHash": "0x5f866b22334a2c394b714ea63de88b7054abcc74f0d4d7458b66dd0b6694e3d0",
  "number": 110350,
  "timestamp": 1439972333,
  "nonce": "0x442ab7f5eb00706d",
  "difficulty": 4356446855801,
  "gasLimit": {
    "_hex": "0x2fefd8"
  },
  "gasUsed": {
    "_hex": "0xd2348"
  },
  "miner": "0xe6A7a1d47ff21B6321162AEA7C6CB457D5476Bca",
  "extraData": "0x476574682f76312e302e312d38326566323666362f6c696e75782f676f312e34",
  "transactions": [
    {
      "hash": "0x803b783d775fb8c62e9cad1a22bb288428fe1be915df3880c735c39216f34295",
      "blockHash": "0xb8fe0e78cc265445606db36ef0e9bee88dc0a1468d6ed67ed1fdae51288cf406",
      "blockNumber": 110350,
      "transactionIndex": 0,
      "confirmations": null,
      "from": "0x4bA6C728e6251DC89C317f7dbCA89D4136C0baB0",
      "gasPrice": {
        "_hex": "0xdf6e7bf7a"
      },
      "gasLimit": {
        "_hex": "0x5208"
      },
      "to": "0x32Be343B94f860124dC4fEe278FDCBD38C102D88",
      "value": {
        "_hex": "0x8d4776495381c800"
      },
      "nonce": 8,
      "data": "0x",
      "r": "0x33aab09efa98cd1a224f06be38dfcc5d68f5ba18285fd131019de4ac40254e4c",
      "s": "0x640f9e7539dc55dcad4efd1d67c933e0d36e7088725aa6e316a8e742f2d7b5e0",
      "v": 28,
      "creates": null,
      "raw": "0xf86c08850df6e7bf7a8252089432be343b94f860124dc4fee278fdcbd38c102d88888d4776495381c800801ca033aab09efa98cd1a224f06be38dfcc5d68f5ba18285fd131019de4ac40254e4ca0640f9e7539dc55dcad4efd1d67c933e0d36e7088725aa6e316a8e742f2d7b5e0",
      "networkId": 0,
      "chainId": 0
    },
    {
      "hash": "0x43577fb87185842c6ccd1b53c4aff880e15c1b5d484777ef0489cf29a2b2fdf0",
      "blockHash": "0xb8fe0e78cc265445606db36ef0e9bee88dc0a1468d6ed67ed1fdae51288cf406",
      "blockNumber": 110350,
      "transactionIndex": 1,
      "confirmations": null,
      "from": "0xED2aF977080D441C24E9910f1e2078A4446d0bbf",
      "gasPrice": {
        "_hex": "0xdf6e7bf7a"
      },
      "gasLimit": {
        "_hex": "0x5208"
      },
      "to": "0x32Be343B94f860124dC4fEe278FDCBD38C102D88",
      "value": {
        "_hex": "0x126ea676f6edb400"
      },
      "nonce": 3,
      "data": "0x",
      "r": "0xbfe4c3203ade8108ebf618135136330d17092e6ecf888ab667df0136dc512341",
      "s": "0x3af83ac0fcd0d913b816611157752b5d037bb1dfb4b19d593e558658dce6222b",
      "v": 28,
      "creates": null,
      "raw": "0xf86c03850df6e7bf7a8252089432be343b94f860124dc4fee278fdcbd38c102d8888126ea676f6edb400801ca0bfe4c3203ade8108ebf618135136330d17092e6ecf888ab667df0136dc512341a03af83ac0fcd0d913b816611157752b5d037bb1dfb4b19d593e558658dce6222b",
      "networkId": 0,
      "chainId": 0
    },
    {
      "hash": "0x1bc849f391588a093fbba9f02f7b72a0a0728658b7612653ecabe8a772992f65",
      "blockHash": "0xb8fe0e78cc265445606db36ef0e9bee88dc0a1468d6ed67ed1fdae51288cf406",
      "blockNumber": 110350,
      "transactionIndex": 2,
      "confirmations": null,
      "from": "0x60c84CBDBAc16e3cd806520Ab204029D7aab5588",
      "gasPrice": {
        "_hex": "0xdf6e7bf7a"
      },
      "gasLimit": {
        "_hex": "0x5208"
      },
      "to": "0x32Be343B94f860124dC4fEe278FDCBD38C102D88",
      "value": {
        "_hex": "0xe186e1b6a619800"
      },
      "nonce": 4,
      "data": "0x",
      "r": "0xd05c4dfa99949ed28d915c528b1a138b87d3e918427b247508d5c9dfa1af6e02",
      "s": "0x1588a9ad24ebebd10ce5257669a27274aef15c310957118c19849b0de560f1f1",
      "v": 27,
      "creates": null,
      "raw": "0xf86c04850df6e7bf7a8252089432be343b94f860124dc4fee278fdcbd38c102d88880e186e1b6a619800801ba0d05c4dfa99949ed28d915c528b1a138b87d3e918427b247508d5c9dfa1af6e02a01588a9ad24ebebd10ce5257669a27274aef15c310957118c19849b0de560f1f1",
      "networkId": 0,
      "chainId": 0
    },
    {
      "hash": "0xbeb14682d39774cbfa72a3efad32794ee35cfb05741ba25d5d994c4b1836244c",
      "blockHash": "0xb8fe0e78cc265445606db36ef0e9bee88dc0a1468d6ed67ed1fdae51288cf406",
      "blockNumber": 110350,
      "transactionIndex": 3,
      "confirmations": null,
      "from": "0xBDda295a4aa9E3A60063548157510B47c6BE932f",
      "gasPrice": {
        "_hex": "0xdf6e7bf7a"
      },
      "gasLimit": {
        "_hex": "0x5208"
      },
      "to": "0x32Be343B94f860124dC4fEe278FDCBD38C102D88",
      "value": {
        "_hex": "0x38b0f2738580a000"
      },
      "nonce": 8,
      "data": "0x",
      "r": "0x37f070abe9c545403b31f521180ee410411747232d7d503d97145ddd2bf4702d",
      "s": "0x1d89dec23f4080391cbc54d80c55427a6397169fc863c3afd2aa81c8b0cd5314",
      "v": 28,
      "creates": null,
      "raw": "0xf86c08850df6e7bf7a8252089432be343b94f860124dc4fee278fdcbd38c102d888838b0f2738580a000801ca037f070abe9c545403b31f521180ee410411747232d7d503d97145ddd2bf4702da01d89dec23f4080391cbc54d80c55427a6397169fc863c3afd2aa81c8b0cd5314",
      "networkId": 0,
      "chainId": 0
    },
    {
      "hash": "0x728f4a93b146bfa25d9d8a475f7d53f2b825addcb5ad9f49269f92a1764ff3a9",
      "blockHash": "0xb8fe0e78cc265445606db36ef0e9bee88dc0a1468d6ed67ed1fdae51288cf406",
      "blockNumber": 110350,
      "transactionIndex": 4,
      "confirmations": null,
      "from": "0xe6A7a1d47ff21B6321162AEA7C6CB457D5476Bca",
      "gasPrice": {
        "_hex": "0xd1e5dcbde"
      },
      "gasLimit": {
        "_hex": "0x55f0"
      },
      "to": "0x51c6a5F0248d9a4f7CA205080e2BA8b0962Fd8ea",
      "value": {
        "_hex": "0x24b56b98454585e90"
      },
      "nonce": 4536,
      "data": "0x",
      "r": "0xd37ffeaec059cbc9e6f8a97a67b111cb50ca6699294da8e29ff685919f689b6e",
      "s": "0x6777e0b01f39b2b3a060f2685531bb679e828363379146a330e40649530a5a55",
      "v": 27,
      "creates": null,
      "raw": "0xf86f8211b8850d1e5dcbde8255f09451c6a5f0248d9a4f7ca205080e2ba8b0962fd8ea89024b56b98454585e90801ba0d37ffeaec059cbc9e6f8a97a67b111cb50ca6699294da8e29ff685919f689b6ea06777e0b01f39b2b3a060f2685531bb679e828363379146a330e40649530a5a55",
      "networkId": 0,
      "chainId": 0
    },
    {
      "hash": "0x1d99402f94aefe774e40f09f56f03168efa19265292a319a10b8fa8773bde135",
      "blockHash": "0xb8fe0e78cc265445606db36ef0e9bee88dc0a1468d6ed67ed1fdae51288cf406",
      "blockNumber": 110350,
      "transactionIndex": 5,
      "confirmations": null,
      "from": "0xe6A7a1d47ff21B6321162AEA7C6CB457D5476Bca",
      "gasPrice": {
        "_hex": "0xd1e5dcbde"
      },
      "gasLimit": {
        "_hex": "0x55f0"
      },
      "to": "0xF928B4834e4E886e04630Af5b4Ea8eBf46Fb205b",
      "value": {
        "_hex": "0x24e834585b35e3240"
      },
      "nonce": 4537,
      "data": "0x",
      "r": "0xbe0310c67af077fc8bbe09abef098c196a8c318561db52fcfa7c830a40302a5a",
      "s": "0x60119e779cf423ad6b408a7ea76ce4659bd0d5721d8ed20635f0073756d7d7e6",
      "v": 27,
      "creates": null,
      "raw": "0xf86f8211b9850d1e5dcbde8255f094f928b4834e4e886e04630af5b4ea8ebf46fb205b89024e834585b35e3240801ba0be0310c67af077fc8bbe09abef098c196a8c318561db52fcfa7c830a40302a5aa060119e779cf423ad6b408a7ea76ce4659bd0d5721d8ed20635f0073756d7d7e6",
      "networkId": 0,
      "chainId": 0
    },
    {
      "hash": "0x792a1245a47f3cea97def6498372658daab2b709998f7f82e0f23436cbea6538",
      "blockHash": "0xb8fe0e78cc265445606db36ef0e9bee88dc0a1468d6ed67ed1fdae51288cf406",
      "blockNumber": 110350,
      "transactionIndex": 6,
      "confirmations": null,
      "from": "0xe6A7a1d47ff21B6321162AEA7C6CB457D5476Bca",
      "gasPrice": {
        "_hex": "0xd1e5dcbde"
      },
      "gasLimit": {
        "_hex": "0x55f0"
      },
      "to": "0x5248EfBC7319bd65d436374266765D9727253F12",
      "value": {
        "_hex": "0x25083a7528280e038"
      },
      "nonce": 4538,
      "data": "0x",
      "r": "0x06818270f8f2806e18a3cfc5cdbfc4b6a8ba9401da0c2c9ae378ddcfb2a0aee5",
      "s": "0x4237d5affb22b468aeca9662dd2b79146930db77170c360f436bd488570c627b",
      "v": 27,
      "creates": null,
      "raw": "0xf86f8211ba850d1e5dcbde8255f0945248efbc7319bd65d436374266765d9727253f1289025083a7528280e038801ba006818270f8f2806e18a3cfc5cdbfc4b6a8ba9401da0c2c9ae378ddcfb2a0aee5a04237d5affb22b468aeca9662dd2b79146930db77170c360f436bd488570c627b",
      "networkId": 0,
      "chainId": 0
    },
    {
      "hash": "0x4e2d463a9b065b4d5d565b5e94a8da3f2f0ade9728d9c683cecfc57de2b74291",
      "blockHash": "0xb8fe0e78cc265445606db36ef0e9bee88dc0a1468d6ed67ed1fdae51288cf406",
      "blockNumber": 110350,
      "transactionIndex": 7,
      "confirmations": null,
      "from": "0xe6A7a1d47ff21B6321162AEA7C6CB457D5476Bca",
      "gasPrice": {
        "_hex": "0xd1e5dcbde"
      },
      "gasLimit": {
        "_hex": "0x55f0"
      },
      "to": "0xc3DBDB3Efa722db2a3F6041b0ca0042782296ba9",
      "value": {
        "_hex": "0x271bfa6f4325ad560"
      },
      "nonce": 4539,
      "data": "0x",
      "r": "0xa79f96c31659388133852f8ced136e1f577bedd0d14191388362913015f816f1",
      "s": "0x156017cdfbc06534757fb01768a8c0170b0338571df2d99fffa44c270fda51a7",
      "v": 28,
      "creates": null,
      "raw": "0xf86f8211bb850d1e5dcbde8255f094c3dbdb3efa722db2a3f6041b0ca0042782296ba9890271bfa6f4325ad560801ca0a79f96c31659388133852f8ced136e1f577bedd0d14191388362913015f816f1a0156017cdfbc06534757fb01768a8c0170b0338571df2d99fffa44c270fda51a7",
      "networkId": 0,
      "chainId": 0
    },
    {
      "hash": "0x7c07e8d480eb9fb8f8a192f51843ae1ee2c62aa0053089b734ca1be1f0a48044",
      "blockHash": "0xb8fe0e78cc265445606db36ef0e9bee88dc0a1468d6ed67ed1fdae51288cf406",
      "blockNumber": 110350,
      "transactionIndex": 8,
      "confirmations": null,
      "from": "0xe6A7a1d47ff21B6321162AEA7C6CB457D5476Bca",
      "gasPrice": {
        "_hex": "0xd1e5dcbde"
      },
      "gasLimit": {
        "_hex": "0x55f0"
      },
      "to": "0x0A38f5Ba343D4eA8641F955ecf98e1c43dF1B5a3",
      "value": {
        "_hex": "0x271fd063a059d4a20"
      },
      "nonce": 4540,
      "data": "0x",
      "r": "0x847e3c538d7298ee480eb0a678e6e0bbe45aea148f6e41f15085cd84b4615313",
      "s": "0x209d8d6f4e0c6ee69f5a84e4d3a8c23f04f4ef5a11fe11dbb0261f7f6721dd14",
      "v": 28,
      "creates": null,
      "raw": "0xf86f8211bc850d1e5dcbde8255f0940a38f5ba343d4ea8641f955ecf98e1c43df1b5a3890271fd063a059d4a20801ca0847e3c538d7298ee480eb0a678e6e0bbe45aea148f6e41f15085cd84b4615313a0209d8d6f4e0c6ee69f5a84e4d3a8c23f04f4ef5a11fe11dbb0261f7f6721dd14",
      "networkId": 0,
      "chainId": 0
    },
    {
      "hash": "0x80639a1a7b95be2bdf3541ad9afee54a8253373a15d8a54464ef42319d9c90db",
      "blockHash": "0xb8fe0e78cc265445606db36ef0e9bee88dc0a1468d6ed67ed1fdae51288cf406",
      "blockNumber": 110350,
      "transactionIndex": 9,
      "confirmations": null,
      "from": "0xe6A7a1d47ff21B6321162AEA7C6CB457D5476Bca",
      "gasPrice": {
        "_hex": "0xd1e5dcbde"
      },
      "gasLimit": {
        "_hex": "0x55f0"
      },
      "to": "0x50087E7383C8865C1C136b8777C4350B8ed472CE",
      "value": {
        "_hex": "0x274c2abe7ca5f9d70"
      },
      "nonce": 4541,
      "data": "0x",
      "r": "0xdeeb0e7b6ab04853665f669b3a7355bcb99ab5b718115acf1e0f92dc5c73296b",
      "s": "0x4d509742d8830b105a4d76877aecf75108df40cbd2d3562dd0336d2fa80d3a84",
      "v": 27,
      "creates": null,
      "raw": "0xf86f8211bd850d1e5dcbde8255f09450087e7383c8865c1c136b8777c4350b8ed472ce890274c2abe7ca5f9d70801ba0deeb0e7b6ab04853665f669b3a7355bcb99ab5b718115acf1e0f92dc5c73296ba04d509742d8830b105a4d76877aecf75108df40cbd2d3562dd0336d2fa80d3a84",
      "networkId": 0,
      "chainId": 0
    },
    {
      "hash": "0xb60b268e5b56179ec532e2266fce3c35dc749a538b50810daba0fea18deb292e",
      "blockHash": "0xb8fe0e78cc265445606db36ef0e9bee88dc0a1468d6ed67ed1fdae51288cf406",
      "blockNumber": 110350,
      "transactionIndex": 10,
      "confirmations": null,
      "from": "0xe6A7a1d47ff21B6321162AEA7C6CB457D5476Bca",
      "gasPrice": {
        "_hex": "0xd1e5dcbde"
      },
      "gasLimit": {
        "_hex": "0x55f0"
      },
      "to": "0x853Bff007d269E0526E871360d79d69D602770dc",
      "value": {
        "_hex": "0x27789688ccbab5180"
      },
      "nonce": 4542,
      "data": "0x",
      "r": "0xe526c9c9482fb0aef66664d605335a577f75e692f2da67b909b4189fc6f97843",
      "s": "0x4af3b5d78745a0c5fadebffa5241c6ce808311457a5c2fd3d66b39a26e667a6a",
      "v": 27,
      "creates": null,
      "raw": "0xf86f8211be850d1e5dcbde8255f094853bff007d269e0526e871360d79d69d602770dc89027789688ccbab5180801ba0e526c9c9482fb0aef66664d605335a577f75e692f2da67b909b4189fc6f97843a04af3b5d78745a0c5fadebffa5241c6ce808311457a5c2fd3d66b39a26e667a6a",
      "networkId": 0,
      "chainId": 0
    },
    {
      "hash": "0xb80d21b0d8c7ddfb0ba4dc604409d3e450cc91c08e76551132ef4f633b7fa214",
      "blockHash": "0xb8fe0e78cc265445606db36ef0e9bee88dc0a1468d6ed67ed1fdae51288cf406",
      "blockNumber": 110350,
      "transactionIndex": 11,
      "confirmations": null,
      "from": "0xe6A7a1d47ff21B6321162AEA7C6CB457D5476Bca",
      "gasPrice": {
        "_hex": "0xd1e5dcbde"
      },
      "gasLimit": {
        "_hex": "0x55f0"
      },
      "to": "0x06BcFDb20583cc822f2031724E36F3678BBCa6E9",
      "value": {
        "_hex": "0x277dcf4cad9fe6150"
      },
      "nonce": 4543,
      "data": "0x",
      "r": "0x1bc1abd2342e21e59511a2b549422ac5159c95eb72a4b937f8c148bbe780763c",
      "s": "0x4f0203ac3430e7f2b0c518d46da581c12e1da74d4c9b340ced50aff5e8c88cd2",
      "v": 28,
      "creates": null,
      "raw": "0xf86f8211bf850d1e5dcbde8255f09406bcfdb20583cc822f2031724e36f3678bbca6e9890277dcf4cad9fe6150801ca01bc1abd2342e21e59511a2b549422ac5159c95eb72a4b937f8c148bbe780763ca04f0203ac3430e7f2b0c518d46da581c12e1da74d4c9b340ced50aff5e8c88cd2",
      "networkId": 0,
      "chainId": 0
    },
    {
      "hash": "0x197e6c26e45654d44dada4bf6b4ea1d5b485b390c74e8a093e4a6391963dd77d",
      "blockHash": "0xb8fe0e78cc265445606db36ef0e9bee88dc0a1468d6ed67ed1fdae51288cf406",
      "blockNumber": 110350,
      "transactionIndex": 12,
      "confirmations": null,
      "from": "0xe6A7a1d47ff21B6321162AEA7C6CB457D5476Bca",
      "gasPrice": {
        "_hex": "0xd1e5dcbde"
      },
      "gasLimit": {
        "_hex": "0x55f0"
      },
      "to": "0x0dd48f729D5084545452A08F5E5AB412d7c2888a",
      "value": {
        "_hex": "0x27c9cfdc3117d8b40"
      },
      "nonce": 4544,
      "data": "0x",
      "r": "0xa47e04321d4209c00eefd420df4592c68539110108100221f414230dc9201b59",
      "s": "0x2c04cee12076122352d3961d7469135ea689897abd5afa6109459c7325f24f6d",
      "v": 27,
      "creates": null,
      "raw": "0xf86f8211c0850d1e5dcbde8255f0940dd48f729d5084545452a08f5e5ab412d7c2888a89027c9cfdc3117d8b40801ba0a47e04321d4209c00eefd420df4592c68539110108100221f414230dc9201b59a02c04cee12076122352d3961d7469135ea689897abd5afa6109459c7325f24f6d",
      "networkId": 0,
      "chainId": 0
    },
    {
      "hash": "0x543004a4947160c53af27023a12ebb0b5fb6f33da08a2f46cd24fc46418a4fb4",
      "blockHash": "0xb8fe0e78cc265445606db36ef0e9bee88dc0a1468d6ed67ed1fdae51288cf406",
      "blockNumber": 110350,
      "transactionIndex": 13,
      "confirmations": null,
      "from": "0xe6A7a1d47ff21B6321162AEA7C6CB457D5476Bca",
      "gasPrice": {
        "_hex": "0xd1e5dcbde"
      },
      "gasLimit": {
        "_hex": "0x55f0"
      },
      "to": "0xcA422f88253D0492F13F304eBCF34892B3c07AEc",
      "value": {
        "_hex": "0x283a3604b8b6697b0"
      },
      "nonce": 4545,
      "data": "0x",
      "r": "0xb7c131782b0e46a35e2af0b4c348dee534d3c52f1587a004d24aa420fecf942a",
      "s": "0x623a9abd0093dec8e164c823ab0a58ea971757ce020d8cacf961103d2c2687c6",
      "v": 28,
      "creates": null,
      "raw": "0xf86f8211c1850d1e5dcbde8255f094ca422f88253d0492f13f304ebcf34892b3c07aec890283a3604b8b6697b0801ca0b7c131782b0e46a35e2af0b4c348dee534d3c52f1587a004d24aa420fecf942aa0623a9abd0093dec8e164c823ab0a58ea971757ce020d8cacf961103d2c2687c6",
      "networkId": 0,
      "chainId": 0
    },
    {
      "hash": "0x38e7ef00ec5274a210e582f97aeee32e6bc863b68d070de0fcf3126c291db59d",
      "blockHash": "0xb8fe0e78cc265445606db36ef0e9bee88dc0a1468d6ed67ed1fdae51288cf406",
      "blockNumber": 110350,
      "transactionIndex": 14,
      "confirmations": null,
      "from": "0xe6A7a1d47ff21B6321162AEA7C6CB457D5476Bca",
      "gasPrice": {
        "_hex": "0xd1e5dcbde"
      },
      "gasLimit": {
        "_hex": "0x55f0"
      },
      "to": "0xc0920452d99591a4e8b190632c52754c72F73328",
      "value": {
        "_hex": "0x284ccf560fdb06128"
      },
      "nonce": 4546,
      "data": "0x",
      "r": "0x2ae1278e2861fcf5e3d4b6d614d5a9fdaad974b40e741977904bbcdbaaa1c5a2",
      "s": "0x0540197e21f7fabfd7cffd92a1ef93a9b838132c5c1039c8978c121d6502bb05",
      "v": 28,
      "creates": null,
      "raw": "0xf86f8211c2850d1e5dcbde8255f094c0920452d99591a4e8b190632c52754c72f73328890284ccf560fdb06128801ca02ae1278e2861fcf5e3d4b6d614d5a9fdaad974b40e741977904bbcdbaaa1c5a2a00540197e21f7fabfd7cffd92a1ef93a9b838132c5c1039c8978c121d6502bb05",
      "networkId": 0,
      "chainId": 0
    },
    {
      "hash": "0x608401cbe26fb002641083dad25eee06d837d2dd264dde6b4cbc92117f62945a",
      "blockHash": "0xb8fe0e78cc265445606db36ef0e9bee88dc0a1468d6ed67ed1fdae51288cf406",
      "blockNumber": 110350,
      "transactionIndex": 15,
      "confirmations": null,
      "from": "0xe6A7a1d47ff21B6321162AEA7C6CB457D5476Bca",
      "gasPrice": {
        "_hex": "0xd1e5dcbde"
      },
      "gasLimit": {
        "_hex": "0x55f0"
      },
      "to": "0xBFdD9820a04283b289957956353b5F3C1F665EcF",
      "value": {
        "_hex": "0x288079b1d8e116a60"
      },
      "nonce": 4547,
      "data": "0x",
      "r": "0xa1e2f43cf513726b83ab333d063c6b802c921065d85d2b2cf520fb524a740be3",
      "s": "0x284ebb4b92348f6c90baee21a46f022d3ede241861b6f14397df2c6a508b3a77",
      "v": 27,
      "creates": null,
      "raw": "0xf86f8211c3850d1e5dcbde8255f094bfdd9820a04283b289957956353b5f3c1f665ecf890288079b1d8e116a60801ba0a1e2f43cf513726b83ab333d063c6b802c921065d85d2b2cf520fb524a740be3a0284ebb4b92348f6c90baee21a46f022d3ede241861b6f14397df2c6a508b3a77",
      "networkId": 0,
      "chainId": 0
    },
    {
      "hash": "0xcd1567119a83e054fad7e43ae7160866489087a7278474a1c6f3759f0b23e692",
      "blockHash": "0xb8fe0e78cc265445606db36ef0e9bee88dc0a1468d6ed67ed1fdae51288cf406",
      "blockNumber": 110350,
      "transactionIndex": 16,
      "confirmations": null,
      "from": "0xe6A7a1d47ff21B6321162AEA7C6CB457D5476Bca",
      "gasPrice": {
        "_hex": "0xcffd6be50"
      },
      "gasLimit": {
        "_hex": "0x55f0"
      },
      "to": "0xBA7933704d52A3e7fdBb5B5deD29e45213EA1111",
      "value": {
        "_hex": "0x2d2f5f458feacfe10"
      },
      "nonce": 4548,
      "data": "0x",
      "r": "0x97f6236f8898f657f47a13f709771894f87b23a4f70264e44814ca29781cd684",
      "s": "0x0e8440a183805c269769b06a94694335b2208b6e4d6f6add204ec9491d35b059",
      "v": 27,
      "creates": null,
      "raw": "0xf86f8211c4850cffd6be508255f094ba7933704d52a3e7fdbb5b5ded29e45213ea11118902d2f5f458feacfe10801ba097f6236f8898f657f47a13f709771894f87b23a4f70264e44814ca29781cd684a00e8440a183805c269769b06a94694335b2208b6e4d6f6add204ec9491d35b059",
      "networkId": 0,
      "chainId": 0
    },
    {
      "hash": "0x58ca4e5bdd22d4d5b4a977856a8dedc837f879ebfdd8800fd5b34d902c1c7b2a",
      "blockHash": "0xb8fe0e78cc265445606db36ef0e9bee88dc0a1468d6ed67ed1fdae51288cf406",
      "blockNumber": 110350,
      "transactionIndex": 17,
      "confirmations": null,
      "from": "0xe6A7a1d47ff21B6321162AEA7C6CB457D5476Bca",
      "gasPrice": {
        "_hex": "0xcffd6be50"
      },
      "gasLimit": {
        "_hex": "0x55f0"
      },
      "to": "0x6964b95BF8BA16b837e2f3Ae8dA7D299553eC1f7",
      "value": {
        "_hex": "0x2e15be47d990783d0"
      },
      "nonce": 4549,
      "data": "0x",
      "r": "0x0795f29f55a90ae4313ccf74ec9ffdc19b8f6d6be902e7548019542a4ea3cec4",
      "s": "0x6a849d5dfa7ea37007cddd13e506081799564e2c7253abbdd1767d42e09d91bd",
      "v": 27,
      "creates": null,
      "raw": "0xf86f8211c5850cffd6be508255f0946964b95bf8ba16b837e2f3ae8da7d299553ec1f78902e15be47d990783d0801ba00795f29f55a90ae4313ccf74ec9ffdc19b8f6d6be902e7548019542a4ea3cec4a06a849d5dfa7ea37007cddd13e506081799564e2c7253abbdd1767d42e09d91bd",
      "networkId": 0,
      "chainId": 0
    },
    {
      "hash": "0xcd20f97e655c9e4c7c16210987183d96a219a324230f3ffaadda7fa3805a12fd",
      "blockHash": "0xb8fe0e78cc265445606db36ef0e9bee88dc0a1468d6ed67ed1fdae51288cf406",
      "blockNumber": 110350,
      "transactionIndex": 18,
      "confirmations": null,
      "from": "0xe6A7a1d47ff21B6321162AEA7C6CB457D5476Bca",
      "gasPrice": {
        "_hex": "0xcffd6be50"
      },
      "gasLimit": {
        "_hex": "0x55f0"
      },
      "to": "0x2c640E5e3DE20DECa76ee10c5Fd6ECd074EFb3e8",
      "value": {
        "_hex": "0x2fadef03748ee2130"
      },
      "nonce": 4550,
      "data": "0x",
      "r": "0x42864c6bc87cf69bc5e213f72e2020b8aecb0b25018dfc725ca98d2a2b06f5a1",
      "s": "0x0970075cc0113a4ed60189f9c7b91cc08f2bd11e45bbb23177ecc86761c57fdb",
      "v": 27,
      "creates": null,
      "raw": "0xf86f8211c6850cffd6be508255f0942c640e5e3de20deca76ee10c5fd6ecd074efb3e88902fadef03748ee2130801ba042864c6bc87cf69bc5e213f72e2020b8aecb0b25018dfc725ca98d2a2b06f5a1a00970075cc0113a4ed60189f9c7b91cc08f2bd11e45bbb23177ecc86761c57fdb",
      "networkId": 0,
      "chainId": 0
    },
    {
      "hash": "0x89b9125c9d6115dbd9071732a61879f049e09ab6462df90d858c94b69608c186",
      "blockHash": "0xb8fe0e78cc265445606db36ef0e9bee88dc0a1468d6ed67ed1fdae51288cf406",
      "blockNumber": 110350,
      "transactionIndex": 19,
      "confirmations": null,
      "from": "0xe6A7a1d47ff21B6321162AEA7C6CB457D5476Bca",
      "gasPrice": {
        "_hex": "0xcffd6be50"
      },
      "gasLimit": {
        "_hex": "0x55f0"
      },
      "to": "0x943800a6196105B4937F48570Dc5D0232a962da5",
      "value": {
        "_hex": "0x302ed0322ab933960"
      },
      "nonce": 4551,
      "data": "0x",
      "r": "0x241a2968a7ea3081dadb868a1424b71c0e8d47c043766b89d8f91e93569f1bb2",
      "s": "0x2b2f3e18b2db57a203a19ca07c19998e92be4ef681a796343b875fe4a14cee5e",
      "v": 28,
      "creates": null,
      "raw": "0xf86f8211c7850cffd6be508255f094943800a6196105b4937f48570dc5d0232a962da5890302ed0322ab933960801ca0241a2968a7ea3081dadb868a1424b71c0e8d47c043766b89d8f91e93569f1bb2a02b2f3e18b2db57a203a19ca07c19998e92be4ef681a796343b875fe4a14cee5e",
      "networkId": 0,
      "chainId": 0
    },
    {
      "hash": "0x7afab18632c48210fd976e933b5e50897bbf832294903391b24817bff0017f60",
      "blockHash": "0xb8fe0e78cc265445606db36ef0e9bee88dc0a1468d6ed67ed1fdae51288cf406",
      "blockNumber": 110350,
      "transactionIndex": 20,
      "confirmations": null,
      "from": "0xe6A7a1d47ff21B6321162AEA7C6CB457D5476Bca",
      "gasPrice": {
        "_hex": "0xcffd6be50"
      },
      "gasLimit": {
        "_hex": "0x55f0"
      },
      "to": "0x187b1f47Cd55b27878699DfCDCee2234cD49E97e",
      "value": {
        "_hex": "0x3124eb7073111c0d0"
      },
      "nonce": 4552,
      "data": "0x",
      "r": "0x4a1bd20b8b8e58204a23a27ddadc4ce3d0ffd12abe7f2cc729850ff4dfe6df71",
      "s": "0x370a8e0b20f121ae63a4f32db808b7ee29371d7d592a56d0629889811c1ba7f8",
      "v": 27,
      "creates": null,
      "raw": "0xf86f8211c8850cffd6be508255f094187b1f47cd55b27878699dfcdcee2234cd49e97e8903124eb7073111c0d0801ba04a1bd20b8b8e58204a23a27ddadc4ce3d0ffd12abe7f2cc729850ff4dfe6df71a0370a8e0b20f121ae63a4f32db808b7ee29371d7d592a56d0629889811c1ba7f8",
      "networkId": 0,
      "chainId": 0
    },
    {
      "hash": "0x0843000798e62d94cf507d9017cf92d0db5326530e39a178549a37304a5b98ae",
      "blockHash": "0xb8fe0e78cc265445606db36ef0e9bee88dc0a1468d6ed67ed1fdae51288cf406",
      "blockNumber": 110350,
      "transactionIndex": 21,
      "confirmations": null,
      "from": "0xe6A7a1d47ff21B6321162AEA7C6CB457D5476Bca",
      "gasPrice": {
        "_hex": "0xcffd6be50"
      },
      "gasLimit": {
        "_hex": "0x55f0"
      },
      "to": "0x1Fab7BE036A5C6A69b2B05D6e172FF4e5b2a5e6B",
      "value": {
        "_hex": "0x31b73d7e920541e10"
      },
      "nonce": 4553,
      "data": "0x",
      "r": "0x8594625a61f5a33cf124561474ce10b7b1ce026a6f8ca27434c66dc7c5216615",
      "s": "0x74f2b89ea9a610e31607e67c29a65d0f18d4d59ba9079176c69f21bad8a4d163",
      "v": 27,
      "creates": null,
      "raw": "0xf86f8211c9850cffd6be508255f0941fab7be036a5c6a69b2b05d6e172ff4e5b2a5e6b89031b73d7e920541e10801ba08594625a61f5a33cf124561474ce10b7b1ce026a6f8ca27434c66dc7c5216615a074f2b89ea9a610e31607e67c29a65d0f18d4d59ba9079176c69f21bad8a4d163",
      "networkId": 0,
      "chainId": 0
    },
    {
      "hash": "0x1443144f4ecd28e9725f48be66f0da47b48a228894025da4e56ced8357813cb7",
      "blockHash": "0xb8fe0e78cc265445606db36ef0e9bee88dc0a1468d6ed67ed1fdae51288cf406",
      "blockNumber": 110350,
      "transactionIndex": 22,
      "confirmations": null,
      "from": "0xe6A7a1d47ff21B6321162AEA7C6CB457D5476Bca",
      "gasPrice": {
        "_hex": "0xcffd6be50"
      },
      "gasLimit": {
        "_hex": "0x55f0"
      },
      "to": "0xdCB14605B0EE4F372D223e5DF87aa9e760886D01",
      "value": {
        "_hex": "0x32be91ff39c755c70"
      },
      "nonce": 4554,
      "data": "0x",
      "r": "0xf4b7429ce2c67b0a588115a92e686ca34877596757bfd69ac2e5ade5ae39480b",
      "s": "0x0190f307eb81e71553dc72ca6a8ab87babab326c02cda597f5c610b593d256c5",
      "v": 27,
      "creates": null,
      "raw": "0xf86f8211ca850cffd6be508255f094dcb14605b0ee4f372d223e5df87aa9e760886d0189032be91ff39c755c70801ba0f4b7429ce2c67b0a588115a92e686ca34877596757bfd69ac2e5ade5ae39480ba00190f307eb81e71553dc72ca6a8ab87babab326c02cda597f5c610b593d256c5",
      "networkId": 0,
      "chainId": 0
    },
    {
      "hash": "0x1e42728e5e7bcec95fa6de7452b53109b318303a66c29c7226f150762894020f",
      "blockHash": "0xb8fe0e78cc265445606db36ef0e9bee88dc0a1468d6ed67ed1fdae51288cf406",
      "blockNumber": 110350,
      "transactionIndex": 23,
      "confirmations": null,
      "from": "0xe6A7a1d47ff21B6321162AEA7C6CB457D5476Bca",
      "gasPrice": {
        "_hex": "0xcffd6be50"
      },
      "gasLimit": {
        "_hex": "0x55f0"
      },
      "to": "0x8b687892C6Cf88925ddD772718782A864e5353Df",
      "value": {
        "_hex": "0x32c1a7d82f4a11920"
      },
      "nonce": 4555,
      "data": "0x",
      "r": "0xa489c987422d403e40c8653fc56e2ce3101f9e2ea561f9b158a2ce83c7d50571",
      "s": "0x5f1e6151c71695359f245cb2ee43016073fb2c7ba750c660e847f64c8fe71244",
      "v": 28,
      "creates": null,
      "raw": "0xf86f8211cb850cffd6be508255f0948b687892c6cf88925ddd772718782a864e5353df89032c1a7d82f4a11920801ca0a489c987422d403e40c8653fc56e2ce3101f9e2ea561f9b158a2ce83c7d50571a05f1e6151c71695359f245cb2ee43016073fb2c7ba750c660e847f64c8fe71244",
      "networkId": 0,
      "chainId": 0
    },
    {
      "hash": "0xcf3a9c8a14fbc619d2da059e3bcbd24a0eb8668365de5c48bbb32677836c8b16",
      "blockHash": "0xb8fe0e78cc265445606db36ef0e9bee88dc0a1468d6ed67ed1fdae51288cf406",
      "blockNumber": 110350,
      "transactionIndex": 24,
      "confirmations": null,
      "from": "0xe6A7a1d47ff21B6321162AEA7C6CB457D5476Bca",
      "gasPrice": {
        "_hex": "0xcffd6be50"
      },
      "gasLimit": {
        "_hex": "0x55f0"
      },
      "to": "0x30853f0562c79055Fbd88CFFC01A109b346752ba",
      "value": {
        "_hex": "0x35bbbe9281f77d3a0"
      },
      "nonce": 4556,
      "data": "0x",
      "r": "0x963f069c3f9593bd3bb570351b6d69918f881a031b8a1ffb63b8704c8ee9e2be",
      "s": "0x0fe650bf2168042f04f1aada2704fcc1065f29cd71292f2fd05a7ff46a9ce519",
      "v": 28,
      "creates": null,
      "raw": "0xf86f8211cc850cffd6be508255f09430853f0562c79055fbd88cffc01a109b346752ba89035bbbe9281f77d3a0801ca0963f069c3f9593bd3bb570351b6d69918f881a031b8a1ffb63b8704c8ee9e2bea00fe650bf2168042f04f1aada2704fcc1065f29cd71292f2fd05a7ff46a9ce519",
      "networkId": 0,
      "chainId": 0
    },
    {
      "hash": "0x226d6b480aa6ddb211b5789df2d777ac1376a06c355153c85540c79dcbd23a42",
      "blockHash": "0xb8fe0e78cc265445606db36ef0e9bee88dc0a1468d6ed67ed1fdae51288cf406",
      "blockNumber": 110350,
      "transactionIndex": 25,
      "confirmations": null,
      "from": "0xe6A7a1d47ff21B6321162AEA7C6CB457D5476Bca",
      "gasPrice": {
        "_hex": "0xcffd6be50"
      },
      "gasLimit": {
        "_hex": "0x55f0"
      },
      "to": "0x945133f5F817b984e41D4798b45C9B8ed7CE3EAc",
      "value": {
        "_hex": "0x365dfd400fa6675c0"
      },
      "nonce": 4557,
      "data": "0x",
      "r": "0x45f0aba68b546e2e6be275a48552f23cbd3087106b94fe625806cbfdb83a7e1d",
      "s": "0x1f1bb33a299526b75930a1f69b5b5d8de9a9d9fd9d3ec99121f47094c9511530",
      "v": 28,
      "creates": null,
      "raw": "0xf86f8211cd850cffd6be508255f094945133f5f817b984e41d4798b45c9b8ed7ce3eac890365dfd400fa6675c0801ca045f0aba68b546e2e6be275a48552f23cbd3087106b94fe625806cbfdb83a7e1da01f1bb33a299526b75930a1f69b5b5d8de9a9d9fd9d3ec99121f47094c9511530",
      "networkId": 0,
      "chainId": 0
    },
    {
      "hash": "0x10b2e952aac085f4f29da4f009b0478b941e72cb8979066a09fdad5f25513e6f",
      "blockHash": "0xb8fe0e78cc265445606db36ef0e9bee88dc0a1468d6ed67ed1fdae51288cf406",
      "blockNumber": 110350,
      "transactionIndex": 26,
      "confirmations": null,
      "from": "0xe6A7a1d47ff21B6321162AEA7C6CB457D5476Bca",
      "gasPrice": {
        "_hex": "0xcffd6be50"
      },
      "gasLimit": {
        "_hex": "0x55f0"
      },
      "to": "0x46b92ea5c3E696bf123354DfCc564cbac1C90671",
      "value": {
        "_hex": "0x371e4638a4d776c50"
      },
      "nonce": 4558,
      "data": "0x",
      "r": "0x83f39ca2ac57200925dd90a82387a036eaf39fc8acc7ae2846ec481763f11ad2",
      "s": "0x4a83b5b0e33ba22c0aeba5f103528e52aab927cd3c527a5e8f875772a82e6410",
      "v": 28,
      "creates": null,
      "raw": "0xf86f8211ce850cffd6be508255f09446b92ea5c3e696bf123354dfcc564cbac1c90671890371e4638a4d776c50801ca083f39ca2ac57200925dd90a82387a036eaf39fc8acc7ae2846ec481763f11ad2a04a83b5b0e33ba22c0aeba5f103528e52aab927cd3c527a5e8f875772a82e6410",
      "networkId": 0,
      "chainId": 0
    },
    {
      "hash": "0x890275156dba1841395978d8ad99a6a2bf3792486ebab14ee3a893998e15f910",
      "blockHash": "0xb8fe0e78cc265445606db36ef0e9bee88dc0a1468d6ed67ed1fdae51288cf406",
      "blockNumber": 110350,
      "transactionIndex": 27,
      "confirmations": null,
      "from": "0xe6A7a1d47ff21B6321162AEA7C6CB457D5476Bca",
      "gasPrice": {
        "_hex": "0xcffd6be50"
      },
      "gasLimit": {
        "_hex": "0x55f0"
      },
      "to": "0x463eADDDA71F29F36365F889EA7E6fcDBe1cF0c8",
      "value": {
        "_hex": "0x3a0af63586c62de20"
      },
      "nonce": 4559,
      "data": "0x",
      "r": "0x0b92a65984d7ec4c0e3bbde1d02027f6bcd53742d88685788e66bf91e431a47e",
      "s": "0x7bbcb191ade8afb03d6515c4754e43844a635afaeae8b779be1bdd24d0a1a25c",
      "v": 27,
      "creates": null,
      "raw": "0xf86f8211cf850cffd6be508255f094463eaddda71f29f36365f889ea7e6fcdbe1cf0c88903a0af63586c62de20801ba00b92a65984d7ec4c0e3bbde1d02027f6bcd53742d88685788e66bf91e431a47ea07bbcb191ade8afb03d6515c4754e43844a635afaeae8b779be1bdd24d0a1a25c",
      "networkId": 0,
      "chainId": 0
    },
    {
      "hash": "0xc8fa2a423a0a660a9427dc6d6688a06356a5f9b4562e4f8efe2d9b4c5a99a212",
      "blockHash": "0xb8fe0e78cc265445606db36ef0e9bee88dc0a1468d6ed67ed1fdae51288cf406",
      "blockNumber": 110350,
      "transactionIndex": 28,
      "confirmations": null,
      "from": "0xe6A7a1d47ff21B6321162AEA7C6CB457D5476Bca",
      "gasPrice": {
        "_hex": "0xcffd6be50"
      },
      "gasLimit": {
        "_hex": "0x55f0"
      },
      "to": "0x182c02d431a667bF08d1BB680306aB6feC4971e5",
      "value": {
        "_hex": "0x3b1c1f7055e788530"
      },
      "nonce": 4560,
      "data": "0x",
      "r": "0x7add504a039d1bd4c6944513bb40f4f67713821691c59d36439875d8264885b6",
      "s": "0x2c53690ba3e7d881f650d51575134d5f7e7e139bf6e03be382de84e8b2d8d095",
      "v": 28,
      "creates": null,
      "raw": "0xf86f8211d0850cffd6be508255f094182c02d431a667bf08d1bb680306ab6fec4971e58903b1c1f7055e788530801ca07add504a039d1bd4c6944513bb40f4f67713821691c59d36439875d8264885b6a02c53690ba3e7d881f650d51575134d5f7e7e139bf6e03be382de84e8b2d8d095",
      "networkId": 0,
      "chainId": 0
    },
    {
      "hash": "0x027789fb143a723c84156b92a7f94e282e0086ac38238f764db1cb1bd0483a08",
      "blockHash": "0xb8fe0e78cc265445606db36ef0e9bee88dc0a1468d6ed67ed1fdae51288cf406",
      "blockNumber": 110350,
      "transactionIndex": 29,
      "confirmations": null,
      "from": "0xe6A7a1d47ff21B6321162AEA7C6CB457D5476Bca",
      "gasPrice": {
        "_hex": "0xcffd6be50"
      },
      "gasLimit": {
        "_hex": "0x55f0"
      },
      "to": "0x3222BA3F3e79eA0e31467EEE7639B57923558cCD",
      "value": {
        "_hex": "0x3ecc49eab829efcb0"
      },
      "nonce": 4561,
      "data": "0x",
      "r": "0xcb9e210d664b3695664c098ea48f49bc53cbc601408dd43983c0f1187bee38de",
      "s": "0x407b5062274f689f58058635f0586a4cb7f6c1200fde487ff582ad590fef2858",
      "v": 27,
      "creates": null,
      "raw": "0xf86f8211d1850cffd6be508255f0943222ba3f3e79ea0e31467eee7639b57923558ccd8903ecc49eab829efcb0801ba0cb9e210d664b3695664c098ea48f49bc53cbc601408dd43983c0f1187bee38dea0407b5062274f689f58058635f0586a4cb7f6c1200fde487ff582ad590fef2858",
      "networkId": 0,
      "chainId": 0
    },
    {
      "hash": "0xb14b8b2c512e55d226416f5b976d4e7176326340bf8b8ff56b3f782c6f0b5af0",
      "blockHash": "0xb8fe0e78cc265445606db36ef0e9bee88dc0a1468d6ed67ed1fdae51288cf406",
      "blockNumber": 110350,
      "transactionIndex": 30,
      "confirmations": null,
      "from": "0xe6A7a1d47ff21B6321162AEA7C6CB457D5476Bca",
      "gasPrice": {
        "_hex": "0xcffd6be50"
      },
      "gasLimit": {
        "_hex": "0x55f0"
      },
      "to": "0x3629B45bBf972aDc23C064D31B7d7c6ce17415D5",
      "value": {
        "_hex": "0x3fdc8dc74b34ed940"
      },
      "nonce": 4562,
      "data": "0x",
      "r": "0xcabe898c29f7dc34a1c60f80309395da0cbcae76f2ee9390e584ab5d0d425994",
      "s": "0x000c1c75539b8b03e8a0c75f72ed32d8a124e788fd5d965c3f533044c5cbc3c0",
      "v": 28,
      "creates": null,
      "raw": "0xf86e8211d2850cffd6be508255f0943629b45bbf972adc23c064d31b7d7c6ce17415d58903fdc8dc74b34ed940801ca0cabe898c29f7dc34a1c60f80309395da0cbcae76f2ee9390e584ab5d0d4259949f0c1c75539b8b03e8a0c75f72ed32d8a124e788fd5d965c3f533044c5cbc3c0",
      "networkId": 0,
      "chainId": 0
    },
    {
      "hash": "0x8dc9ccbe3e0f2116f6cd3c10176543dc3a5db936c4ac0f0226cd7cb2e5ad0d9a",
      "blockHash": "0xb8fe0e78cc265445606db36ef0e9bee88dc0a1468d6ed67ed1fdae51288cf406",
      "blockNumber": 110350,
      "transactionIndex": 31,
      "confirmations": null,
      "from": "0xe6A7a1d47ff21B6321162AEA7C6CB457D5476Bca",
      "gasPrice": {
        "_hex": "0xcffd6be50"
      },
      "gasLimit": {
        "_hex": "0x55f0"
      },
      "to": "0x63738Ec4C9adec404749B5747F3bbE2147de632F",
      "value": {
        "_hex": "0x434c5f67659703cc0"
      },
      "nonce": 4563,
      "data": "0x",
      "r": "0xba4b251e8c83517bd46e9ff7eac14de61d359d707674e164d3c2ad0a26768c6f",
      "s": "0x7064a71362eef37a196090e868e1716e535156183132f4fe2394ad6e26f001a4",
      "v": 28,
      "creates": null,
      "raw": "0xf86f8211d3850cffd6be508255f09463738ec4c9adec404749b5747f3bbe2147de632f890434c5f67659703cc0801ca0ba4b251e8c83517bd46e9ff7eac14de61d359d707674e164d3c2ad0a26768c6fa07064a71362eef37a196090e868e1716e535156183132f4fe2394ad6e26f001a4",
      "networkId": 0,
      "chainId": 0
    },
    {
      "hash": "0x64e0bcaabc087f6dc480077a0e96559631a30c63451d62aea30472c15069723b",
      "blockHash": "0xb8fe0e78cc265445606db36ef0e9bee88dc0a1468d6ed67ed1fdae51288cf406",
      "blockNumber": 110350,
      "transactionIndex": 32,
      "confirmations": null,
      "from": "0xe6A7a1d47ff21B6321162AEA7C6CB457D5476Bca",
      "gasPrice": {
        "_hex": "0xcffd6be50"
      },
      "gasLimit": {
        "_hex": "0x55f0"
      },
      "to": "0xdc41BFACFAaF8B0F0949aB5A3f18f47063Ae62fB",
      "value": {
        "_hex": "0x4394cdabd249c3600"
      },
      "nonce": 4564,
      "data": "0x",
      "r": "0x91e10925371d759b0cdeb891b6d331e77d565ea27a4b960917261f8075b660f9",
      "s": "0x624f6abd319dada99c07dc1997d9ff713e2973224ccab5fc809dec372a5acaac",
      "v": 27,
      "creates": null,
      "raw": "0xf86f8211d4850cffd6be508255f094dc41bfacfaaf8b0f0949ab5a3f18f47063ae62fb8904394cdabd249c3600801ba091e10925371d759b0cdeb891b6d331e77d565ea27a4b960917261f8075b660f9a0624f6abd319dada99c07dc1997d9ff713e2973224ccab5fc809dec372a5acaac",
      "networkId": 0,
      "chainId": 0
    },
    {
      "hash": "0x1139c711d798a592d91c121618a59eaaf05f641a9a0c75ee26903d77c0e7bfd9",
      "blockHash": "0xb8fe0e78cc265445606db36ef0e9bee88dc0a1468d6ed67ed1fdae51288cf406",
      "blockNumber": 110350,
      "transactionIndex": 33,
      "confirmations": null,
      "from": "0xe6A7a1d47ff21B6321162AEA7C6CB457D5476Bca",
      "gasPrice": {
        "_hex": "0xcffd6be50"
      },
      "gasLimit": {
        "_hex": "0x55f0"
      },
      "to": "0xbAeF66124E137Eb5eE0DE1BbAB5a30002508a1bf",
      "value": {
        "_hex": "0x4ad020aea325643e0"
      },
      "nonce": 4565,
      "data": "0x",
      "r": "0xee2089ee8be82dba794a5b4d56cd29b5931d81586f32b6d6bf8fb08bc6fcca44",
      "s": "0x114fc754e78be4da4ae043b8b653f255489349b640719e71902617c5c792437b",
      "v": 27,
      "creates": null,
      "raw": "0xf86f8211d5850cffd6be508255f094baef66124e137eb5ee0de1bbab5a30002508a1bf8904ad020aea325643e0801ba0ee2089ee8be82dba794a5b4d56cd29b5931d81586f32b6d6bf8fb08bc6fcca44a0114fc754e78be4da4ae043b8b653f255489349b640719e71902617c5c792437b",
      "networkId": 0,
      "chainId": 0
    },
    {
      "hash": "0x798d7f681284c0edf640e283f94419fc472b09463a8c99402134ca200ab127b8",
      "blockHash": "0xb8fe0e78cc265445606db36ef0e9bee88dc0a1468d6ed67ed1fdae51288cf406",
      "blockNumber": 110350,
      "transactionIndex": 34,
      "confirmations": null,
      "from": "0xe6A7a1d47ff21B6321162AEA7C6CB457D5476Bca",
      "gasPrice": {
        "_hex": "0xcffd6be50"
      },
      "gasLimit": {
        "_hex": "0x55f0"
      },
      "to": "0x379965B927911bcF18D2d4F062Edf10c45847069",
      "value": {
        "_hex": "0x508c38ff69b38b0b0"
      },
      "nonce": 4566,
      "data": "0x",
      "r": "0x416c51910932a3978a604af9e05b120a2bfee9d8e24d78db995ed9b674c5a14d",
      "s": "0x388756ac28173c91f28a41262cf15c4d6b0e886652327822b3e095b9aa68d56f",
      "v": 27,
      "creates": null,
      "raw": "0xf86f8211d6850cffd6be508255f094379965b927911bcf18d2d4f062edf10c45847069890508c38ff69b38b0b0801ba0416c51910932a3978a604af9e05b120a2bfee9d8e24d78db995ed9b674c5a14da0388756ac28173c91f28a41262cf15c4d6b0e886652327822b3e095b9aa68d56f",
      "networkId": 0,
      "chainId": 0
    },
    {
      "hash": "0x90ce2e0e7dd20d78e2880bb262d11ae77310db9fe1e707a5d08b246c1baacaf0",
      "blockHash": "0xb8fe0e78cc265445606db36ef0e9bee88dc0a1468d6ed67ed1fdae51288cf406",
      "blockNumber": 110350,
      "transactionIndex": 35,
      "confirmations": null,
      "from": "0xe6A7a1d47ff21B6321162AEA7C6CB457D5476Bca",
      "gasPrice": {
        "_hex": "0xcffd6be50"
      },
      "gasLimit": {
        "_hex": "0x55f0"
      },
      "to": "0xB28fE7b9815982FF203F751ce550111D752d8795",
      "value": {
        "_hex": "0x52496a416faa0cc40"
      },
      "nonce": 4567,
      "data": "0x",
      "r": "0x83923830d638e6e4a19c8e3508130ed6cebde9aa64f57f6c1495a27d4b42f01c",
      "s": "0x479b7b039746634bfa771340fdb90df81b44879e09823d256d5b99fbf6effef3",
      "v": 27,
      "creates": null,
      "raw": "0xf86f8211d7850cffd6be508255f094b28fe7b9815982ff203f751ce550111d752d879589052496a416faa0cc40801ba083923830d638e6e4a19c8e3508130ed6cebde9aa64f57f6c1495a27d4b42f01ca0479b7b039746634bfa771340fdb90df81b44879e09823d256d5b99fbf6effef3",
      "networkId": 0,
      "chainId": 0
    },
    {
      "hash": "0xeccaeeb79fc416a57e5426df3a73fa7eab47837f09cf8e949326fda83a61a5ea",
      "blockHash": "0xb8fe0e78cc265445606db36ef0e9bee88dc0a1468d6ed67ed1fdae51288cf406",
      "blockNumber": 110350,
      "transactionIndex": 36,
      "confirmations": null,
      "from": "0xe6A7a1d47ff21B6321162AEA7C6CB457D5476Bca",
      "gasPrice": {
        "_hex": "0xcffd6be50"
      },
      "gasLimit": {
        "_hex": "0x55f0"
      },
      "to": "0x40dDAE161B79aaebeb68187233fe59bd3B1c2db2",
      "value": {
        "_hex": "0x5351ef7dbb15bf2b0"
      },
      "nonce": 4568,
      "data": "0x",
      "r": "0xce345f18330552743c857be4bafb0e81fc5cee8eb9b11c5587818be04e0f4f9e",
      "s": "0x2bc96f4d15575490e1a93052f0067d6c43c6ce6aa2e388cc1e9426868f5db68c",
      "v": 27,
      "creates": null,
      "raw": "0xf86f8211d8850cffd6be508255f09440ddae161b79aaebeb68187233fe59bd3b1c2db28905351ef7dbb15bf2b0801ba0ce345f18330552743c857be4bafb0e81fc5cee8eb9b11c5587818be04e0f4f9ea02bc96f4d15575490e1a93052f0067d6c43c6ce6aa2e388cc1e9426868f5db68c",
      "networkId": 0,
      "chainId": 0
    },
    {
      "hash": "0x6e0f14468c16fa9471e4a16ccda9eea3a1e1f84a10704eb38a4869bc3bc1ee24",
      "blockHash": "0xb8fe0e78cc265445606db36ef0e9bee88dc0a1468d6ed67ed1fdae51288cf406",
      "blockNumber": 110350,
      "transactionIndex": 37,
      "confirmations": null,
      "from": "0xe6A7a1d47ff21B6321162AEA7C6CB457D5476Bca",
      "gasPrice": {
        "_hex": "0xcffd6be50"
      },
      "gasLimit": {
        "_hex": "0x55f0"
      },
      "to": "0xE921770D00ff942284b8f101b71C029ecE92DA53",
      "value": {
        "_hex": "0x5a2ba9b19db3902e0"
      },
      "nonce": 4569,
      "data": "0x",
      "r": "0x2dc15265abb493876c129aa1426a6a18d604e927f170275de7175734f817f2fb",
      "s": "0x38f93a9047ed11ac348d0c077c6e765a39513994a3180b9a8a84724386ec88aa",
      "v": 28,
      "creates": null,
      "raw": "0xf86f8211d9850cffd6be508255f094e921770d00ff942284b8f101b71c029ece92da538905a2ba9b19db3902e0801ca02dc15265abb493876c129aa1426a6a18d604e927f170275de7175734f817f2fba038f93a9047ed11ac348d0c077c6e765a39513994a3180b9a8a84724386ec88aa",
      "networkId": 0,
      "chainId": 0
    },
    {
      "hash": "0x1b7a89ba855ded89f25d88d6f000026532b254363f3412c38ae325530c5fd659",
      "blockHash": "0xb8fe0e78cc265445606db36ef0e9bee88dc0a1468d6ed67ed1fdae51288cf406",
      "blockNumber": 110350,
      "transactionIndex": 38,
      "confirmations": null,
      "from": "0xe6A7a1d47ff21B6321162AEA7C6CB457D5476Bca",
      "gasPrice": {
        "_hex": "0xcffd6be50"
      },
      "gasLimit": {
        "_hex": "0x55f0"
      },
      "to": "0xBFa71Aba804c2b986D969E175aCFdAC7266CDe9C",
      "value": {
        "_hex": "0x5bf568f4065d38470"
      },
      "nonce": 4570,
      "data": "0x",
      "r": "0x43c647a82ca7d8c3527dc713793771c082748328d4a03d87fd6f946708d543ae",
      "s": "0x1a369d347f54118de4eda1121353454cca87e1e3da1b10eddf89491e33cc8386",
      "v": 27,
      "creates": null,
      "raw": "0xf86f8211da850cffd6be508255f094bfa71aba804c2b986d969e175acfdac7266cde9c8905bf568f4065d38470801ba043c647a82ca7d8c3527dc713793771c082748328d4a03d87fd6f946708d543aea01a369d347f54118de4eda1121353454cca87e1e3da1b10eddf89491e33cc8386",
      "networkId": 0,
      "chainId": 0
    },
    {
      "hash": "0x60c5d32ed075106e0bd2fe6a39bc2b1cb30d42167fdb66dbbdc1a162c8d9f7e4",
      "blockHash": "0xb8fe0e78cc265445606db36ef0e9bee88dc0a1468d6ed67ed1fdae51288cf406",
      "blockNumber": 110350,
      "transactionIndex": 39,
      "confirmations": null,
      "from": "0xe6A7a1d47ff21B6321162AEA7C6CB457D5476Bca",
      "gasPrice": {
        "_hex": "0xcffd6be50"
      },
      "gasLimit": {
        "_hex": "0x55f0"
      },
      "to": "0xeDbc07d54406D3B56bdaeADEEa788b9721f779ba",
      "value": {
        "_hex": "0x616fc6c9acf3e0040"
      },
      "nonce": 4571,
      "data": "0x",
      "r": "0x0127bbebcdfe83a54042a7cab1f31881c19f47b99a78dc21786ec67c1fccf708",
      "s": "0x306a275b6b50d7c57d88ca083d7ed1572e686c686471f065e60c0bd96d95b15a",
      "v": 27,
      "creates": null,
      "raw": "0xf86f8211db850cffd6be508255f094edbc07d54406d3b56bdaeadeea788b9721f779ba890616fc6c9acf3e0040801ba00127bbebcdfe83a54042a7cab1f31881c19f47b99a78dc21786ec67c1fccf708a0306a275b6b50d7c57d88ca083d7ed1572e686c686471f065e60c0bd96d95b15a",
      "networkId": 0,
      "chainId": 0
    },
    {
      "hash": "0x4de603dda73d712248b468a3e7dfb6924cb92417aa2f526888d552b12052f5fc",
      "blockHash": "0xb8fe0e78cc265445606db36ef0e9bee88dc0a1468d6ed67ed1fdae51288cf406",
      "blockNumber": 110350,
      "transactionIndex": 40,
      "confirmations": null,
      "from": "0xe6A7a1d47ff21B6321162AEA7C6CB457D5476Bca",
      "gasPrice": {
        "_hex": "0xcffd6be50"
      },
      "gasLimit": {
        "_hex": "0x55f0"
      },
      "to": "0x3b01EBd2419f6d39DB6AB4471e6382848716641F",
      "value": {
        "_hex": "0x645571d3fef3e0a50"
      },
      "nonce": 4572,
      "data": "0x",
      "r": "0x047957cb7fbd3f360e405c033451beef617d5b23c787099506a08ac9da51bbd6",
      "s": "0x6c852867be724d47eec13a11ac90b18532c3d971a06f1d791f9d9b7871cc7d1f",
      "v": 28,
      "creates": null,
      "raw": "0xf86f8211dc850cffd6be508255f0943b01ebd2419f6d39db6ab4471e6382848716641f890645571d3fef3e0a50801ca0047957cb7fbd3f360e405c033451beef617d5b23c787099506a08ac9da51bbd6a06c852867be724d47eec13a11ac90b18532c3d971a06f1d791f9d9b7871cc7d1f",
      "networkId": 0,
      "chainId": 0
    }
  ]
}