{
  "hash": "0xe1b23ffb25a1b518ddfc48e6909ca3f93a38799b3d33f31da260ed518c27b2a3",
  "parentHash": "0x087d5f893c2eca06933353801fe5929aa76ca4053c5f4ae48999740c3dd82bb2",
  "number": 93094,
  "timestamp": 1439682361,
  "nonce": "0x0593259caa46e5c2",
  "difficulty": 3647442894747,
  "gasLimit": {
    "_hex": "0x2fefd8"
  },
  "gasUsed": {
    "_hex": "0xf618"
  },
  "miner": "0xf927a40C8B7F6E07c5af7FA2155B4864a4112B13",
  "extraData": "0x",
  "transactions": [
    {
      "hash": "0x3ed558f54456d544884af27214ce30256c9b733f5d73409c6c73d20b420e18fd",
      "blockHash": "0xe1b23ffb25a1b518ddfc48e6909ca3f93a38799b3d33f31da260ed518c27b2a3",
      "blockNumber": 93094,
      "transactionIndex": 0,
      "confirmations": null,
      "from": "0xeDb63085aAC5CF2eDbc0C9AD9c274076201da37E",
      "gasPrice": {
        "_hex": "0xd829211eb"
      },
      "gasLimit": {
        "_hex": "0x15f90"
      },
      "to": "0x2AeDF47e935C75601e9D779453F1a5F8c616bd6E",
      "value": {
        "_hex": "0xdbd2fc137a30000"
      },
      "nonce": 0,
      "data": "0x",
      "r": "0xa10e168fc25ae5ac26e24bbf7779ca0273b1da4e9fd724af0e6bb067abfbdf36",
      "s": "0x0dcfe719075132587f7f0347adbeaebbcb784e2537b5140f9b0d7c4d6f54962b",
      "v": 27,
      "creates": null,
      "raw": "0xf86d80850d829211eb83015f90942aedf47e935c75601e9d779453f1a5f8c616bd6e880dbd2fc137a30000801ba0a10e168fc25ae5ac26e24bbf7779ca0273b1da4e9fd724af0e6bb067abfbdf36a00dcfe719075132587f7f0347adbeaebbcb784e2537b5140f9b0d7c4d6f54962b",
      "networkId": 0,
      "chainId": 0
    },
    {
      "hash": "0xe51ce51357a910f7a42fe6d3b328c3e91ed40561ac17879732bb5895673ac23b",
      "blockHash": "0xe1b23ffb25a1b518ddfc48e6909ca3f93a38799b3d33f31da260ed518c27b2a3",
      "blockNumber": 93094,
      "transactionIndex": 1,
      "confirmations": null,
      "from": "0x32Be343B94f860124dC4fEe278FDCBD38C102D88",
      "gasPrice": {
        "_hex": "0xd8252bd70"
      },
      "gasLimit": {
        "_hex": "0x5208"
      },
      "to": "0x72bb27Cb99f3E2C2CF90A98F707d30E4A201A071",
      "value": {
        "_hex": "0x5f66afa3f7d370000"
      },
      "nonce": 911,
      "data": "0x",
      "r": "0x48579059f724aacda1f7edf9bcc43f28d1ddf0ee70072701488139504a71fafc",
      "s": "0x781f189fdde5a54a4ba57e37db188db1fb4942508c6e119eabb5e766a3b73bc2",
      "v": 27,
      "creates": null,
      "raw": "0xf86f82038f850d8252bd708252089472bb27cb99f3e2c2cf90a98f707d30e4a201a0718905f66afa3f7d370000801ba048579059f724aacda1f7edf9bcc43f28d1ddf0ee70072701488139504a71fafca0781f189fdde5a54a4ba57e37db188db1fb4942508c6e119eabb5e766a3b73bc2",
      "networkId": 0,
      "chainId": 0
    },
    {
      "hash": "0xadb189f9c1c9e445edd5bd88199f33004ed324601af226671eda944fe004ee41",
      "blockHash": "0xe1b23ffb25a1b518ddfc48e6909ca3f93a38799b3d33f31da260ed518c27b2a3",
      "blockNumber": 93094,
      "transactionIndex": 2,
      "confirmations": null,
      "from": "0xCbbdAd70d0ff27254925AD37B5C135EEe1116615",
      "gasPrice": {
        "_hex": "0xd59f5dc84"
      },
      "gasLimit": {
        "_hex": "0x15f90"
      },
      "to": "0x886e83d9133F65B9c27A946f699E88e71A888E4C",
      "value": {
        "_hex": "0x16345785d8a0000"
      },
      "nonce": 3,
      "data": "0x",
      "r": "0xe2c160b7f7636409f4eb09391cf575e1592e22bf1f7f27490735808ae0a0f2a4",
      "s": "0x2373ab8597e0cf7d2c616b6b63e273df3e0ded1fe969030fd6fe23fcbede362e",
      "v": 27,
      "creates": null,
      "raw": "0xf86d03850d59f5dc8483015f9094886e83d9133f65b9c27a946f699e88e71a888e4c88016345785d8a0000801ba0e2c160b7f7636409f4eb09391cf575e1592e22bf1f7f27490735808ae0a0f2a4a02373ab8597e0cf7d2c616b6b63e273df3e0ded1fe969030fd6fe23fcbede362e",
      "networkId": 0,
      "chainId": 0
    }
  ]
}