{
  "hash": "0xc6f64ee055cdc8a729892abb069cbb26735f65808d68c7dfddd81c3458563eb0",
  "parentHash": "0x13f9cbe9c8c3862d2fd1773b8f51881eb7b55edcfb0c778381cf81639a99591d",
  "number": 81756,
  "timestamp": 1439507247,
  "nonce": "0xaf3a66e494b9f633",
  "difficulty": 2425889401135,
  "gasLimit": {
    "_hex": "0x2fefd8"
  },
  "gasUsed": {
    "_hex": "0x5208"
  },
  "miner": "0x31995C46B15C84523cDEE26f49A681b8237e43F5",
  "extraData": "0x476574682f76312e302e312f77696e646f77732f676f312e342e32",
  "transactions": [
    {
      "hash": "0x3d850421ab697bbbfd36fd600ac93a4f3cced270b4df2d968447c4adfa133572",
      "blockHash": "0xc6f64ee055cdc8a729892abb069cbb26735f65808d68c7dfddd81c3458563eb0",
      "blockNumber": 81756,
      "transactionIndex": 0,
      "confirmations": null,
      "from": "0x3D01cd9bD80e2165FFf6F863E0ddd402EbC4ae9c",
      "gasPrice": {
        "_hex": "0xd1828230f"
      },
      "gasLimit": {
        "_hex": "0x5208"
      },
      "to": "0x32Be343B94f860124dC4fEe278FDCBD38C102D88",
      "value": {
        "_hex": "0x391c3bb5fdd8be0000"
      },
      "nonce": 1,
      "data": "0x",
      "r": "0xc680108d2e96368f9492822469d318ca820e9871c6d09eb6d5081ce584a30d90",
      "s": "0x67490136542b58857efd6639480d1843c1327221baf4221c4c3dcdc41d23430f",
      "v": 28,
      "creates": null,
      "raw": "0xf86d01850d1828230f8252089432be343b94f860124dc4fee278fdcbd38c102d8889391c3bb5fdd8be0000801ca0c680108d2e96368f9492822469d318ca820e9871c6d09eb6d5081ce584a30d90a067490136542b58857efd6639480d1843c1327221baf4221c4c3dcdc41d23430f",
      "networkId": 0,
      "chainId": 0
    }
  ]
}