{
  "hash": "0x533d7c626300aab8c5ea5b29e9a969819fb733c7ea691dd4b93ee6fba03cdb0a",
  "parentHash": "0x5f46036205d4635998e468d9c2ac59a86f59c3d6c5ac0e5db7d3eeac804d54db",
  "number": 52716,
  "timestamp": 1439026178,
  "nonce": "0x21297f5359163d7b",
  "difficulty": 1568636701255,
  "gasLimit": {
    "_hex": "0x18716c"
  },
  "gasUsed": {
    "_hex": "0x546c"
  },
  "miner": "0xc56e71225f1372c990E6829D53A1Ab76d27301cf",
  "extraData": "0x476574682f76312e302e302f77696e646f77732f676f312e342e32",
  "transactions": [
    {
      "hash": "0x6f0ea55098948a28ff5bbb2552ef486caa8b6d3310d5a84caf0f3e391ef37b93",
      "blockHash": "0x533d7c626300aab8c5ea5b29e9a969819fb733c7ea691dd4b93ee6fba03cdb0a",
      "blockNumber": 52716,
      "transactionIndex": 0,
      "confirmations": null,
      "from": "0xAe6F0C73fdD77C489727512174D9b50296611C4C",
      "gasPrice": {
        "_hex": "0x110c8f7d8de"
      },
      "gasLimit": {
        "_hex": "0xc350"
      },
      "to": "0x2910543Af39abA0Cd09dBb2D50200b3E800A63D2",
      "value": {
        "_hex": "0x5150ae84a8cdf00000"
      },
      "nonce": 1,
      "data": "0x454e41454e58304438",
      "r": "0x1f4f1400e42a8c043925260d0c5738fc40202bb29088977534de38e06159dde3",
      "s": "0xd68b06e33feb9460d834dcd5202831a7b8de1d6b7fdf16b32822166953d7e6c9",
      "v": 28,
      "creates": null,
      "raw": "0xf87701860110c8f7d8de82c350942910543af39aba0cd09dbb2d50200b3e800a63d2895150ae84a8cdf0000089454e41454e583044381ca01f4f1400e42a8c043925260d0c5738fc40202bb29088977534de38e06159dde3a0d68b06e33feb9460d834dcd5202831a7b8de1d6b7fdf16b32822166953d7e6c9",
      "networkId": 0,
      "chainId": 0
    }
  ]
}