{
  "hash": "0x8dd400764cb107b870b5864a83e2436fb392fe25e4bfe81745de595f04dc05e6",
  "parentHash": "0x56643711d7cc76bd4db62f7ba57dc304b6bbfb02f5ad407662d03a546f4498df",
  "number": 50138,
  "timestamp": 1438984479,
  "nonce": "0x438a78bdc0df73f3",
  "difficulty": 1510481206809,
  "gasLimit": {
    "_hex": "0x51e59"
  },
  "gasUsed": {
    "_hex": "0x546c"
  },
  "miner": "0x70C6b45fe0A5116E97B112B806A76E2F51E24413",
  "extraData": "0x476574682f76312e302e302f77696e646f77732f676f312e342e32",
  "transactions": [
    {
      "hash": "0xad943d88a2b3a739ec1e924eae3c59edc27cf28ad6d8133d0b3264a811a6468c",
      "blockHash": "0x8dd400764cb107b870b5864a83e2436fb392fe25e4bfe81745de595f04dc05e6",
      "blockNumber": 50138,
      "transactionIndex": 0,
      "confirmations": null,
      "from": "0xF2fbB6D887f8b8cc3a869AbA847f3D1F643c53d6",
      "gasPrice": {
        "_hex": "0x10dc90d85e7"
      },
      "gasLimit": {
        "_hex": "0x15f90"
      },
      "to": "0x2910543Af39abA0Cd09dBb2D50200b3E800A63D2",
      "value": {
        "_hex": "0x4563918244f40000"
      },
      "nonce": 0,
      "data": "0x454e54573347503438",
      "r": "0xf0808d605757835a953af56ecd70c60f3540a1eec2afefcd13cdb29446f93ca9",
      "s": "0x7963fed80433817e166bec55db3c8cc8484288bff2a4762e89b3c301e9105f4d",
      "v": 28,
      "creates": null,
      "raw": "0xf8778086010dc90d85e783015f90942910543af39aba0cd09dbb2d50200b3e800a63d2884563918244f4000089454e545733475034381ca0f0808d605757835a953af56ecd70c60f3540a1eec2afefcd13cdb29446f93ca9a07963fed80433817e166bec55db3c8cc8484288bff2a4762e89b3c301e9105f4d",
      "networkId": 0,
      "chainId": 0
    }
  ]
}