{
  "hash": "0xb76c8abc59f5361e050a85a79c02e6003cd14735c5f7f75a840f6234355bc04b",
  "parentHash": "0x3867507985d3672a8758a2fd896e64e5a3ef1fe3936146fd3a3e6b088298e3ca",
  "number": 48555,
  "timestamp": 1438958959,
  "nonce": "0x0316b8e8edbfbdfd",
  "difficulty": 1467864160765,
  "gasLimit": {
    "_hex": "0x19524"
  },
  "gasUsed": {
    "_hex": "0xa674"
  },
  "miner": "0x5F8F73E26CdF436f19Cb24C82F90A15AFe55b592",
  "extraData": "0x476574682f76312e302e312f77696e646f77732f676f312e342e32",
  "transactions": [
    {
      "hash": "0x5f3a522241e83a756af283ae5ddd51c0db6759ab523134c1519db70e960bd93f",
      "blockHash": "0xb76c8abc59f5361e050a85a79c02e6003cd14735c5f7f75a840f6234355bc04b",
      "blockNumber": 48555,
      "transactionIndex": 0,
      "confirmations": null,
      "from": "0xf6939024FA41613B3B6c4DE6D086Aa16648f5fa3",
      "gasPrice": {
        "_hex": "0xd822f7f4c"
      },
      "gasLimit": {
        "_hex": "0x15f90"
      },
      "to": "0x2910543Af39abA0Cd09dBb2D50200b3E800A63D2",
      "value": {
        "_hex": "0x161779e0ddd330000"
      },
      "nonce": 0,
      "data": "0x454e51343033375047",
      "r": "0x32bc7b1f8409362b307fe8c33108ff7368552a9fa98dbd9b096da083e9da4c92",
      "s": "0x670aa5511de61603da4a35b9d5f75f3843cb3e625f497d568c6580cf0eb5e225",
      "v": 28,
      "creates": null,
      "raw": "0xf87780850d822f7f4c83015f90942910543af39aba0cd09dbb2d50200b3e800a63d2890161779e0ddd33000089454e513430333750471ca032bc7b1f8409362b307fe8c33108ff7368552a9fa98dbd9b096da083e9da4c92a0670aa5511de61603da4a35b9d5f75f3843cb3e625f497d568c6580cf0eb5e225",
      "networkId": 0,
      "chainId": 0
    },
    {
      "hash": "0x6fd06b744649d80dd48e8ce895a77ac10fa533819a4cd931e35c0e28cad78e90",
      "blockHash": "0xb76c8abc59f5361e050a85a79c02e6003cd14735c5f7f75a840f6234355bc04b",
      "blockNumber": 48555,
      "transactionIndex": 1,
      "confirmations": null,
      "from": "0x15674e39f68d518367ECDd22cB73534Cb74bDC28",
      "gasPrice": {
        "_hex": "0xcc6a6b3a8"
      },
      "gasLimit": {
        "_hex": "0x5208"
      },
      "to": "0x32Be343B94f860124dC4fEe278FDCBD38C102D88",
      "value": {
        "_hex": "0xddc9eac3f1f8000"
      },
      "nonce": 1,
      "data": "0x",
      "r": "0xbacd6a4bcbb5afbee896cac4fb357de45a2424644b5c9d92cc220e7c3c073448",
      "s": "0x318ebab243b9e92b1117508849478c98782b8028cf00301708dc6bd72c8a87ce",
      "v": 27,
      "creates": null,
      "raw": "0xf86c01850cc6a6b3a88252089432be343b94f860124dc4fee278fdcbd38c102d88880ddc9eac3f1f8000801ba0bacd6a4bcbb5afbee896cac4fb357de45a2424644b5c9d92cc220e7c3c073448a0318ebab243b9e92b1117508849478c98782b8028cf00301708dc6bd72c8a87ce",
      "networkId": 0,
      "chainId": 0
    }
  ]
}