{
  "hash": "0x268c34d21230b84351b4878e62922029afaa78bc965d8e76434e28dd19a02314",
  "parentHash": "0x1b00266f290a8055a8e4e382cccd7324d678952dded73b30b28e62e82f93c720",
  "number": 85276,
  "timestamp": 1439561078,
  "nonce": "0xbeb0e7f39da2635d",
  "difficulty": 2750424260194,
  "gasLimit": {
    "_hex": "0x2fefd8"
  },
  "gasUsed": {
    "_hex": "0x5208"
  },
  "miner": "0xe6A7a1d47ff21B6321162AEA7C6CB457D5476Bca",
  "extraData": "0x476574682f76312e302e312d38326566323666362f6c696e75782f676f312e34",
  "transactions": [
    {
      "hash": "0xf59559be265ad3ba1eb0f7f3f7a623354930591cb24110e455734bf6452f72f3",
      "blockHash": "0x268c34d21230b84351b4878e62922029afaa78bc965d8e76434e28dd19a02314",
      "blockNumber": 85276,
      "transactionIndex": 0,
      "confirmations": null,
      "from": "0x32Be343B94f860124dC4fEe278FDCBD38C102D88",
      "gasPrice": {
        "_hex": "0xcb94a19f2"
      },
      "gasLimit": {
        "_hex": "0x5208"
      },
      "to": "0x8259E039E6a80780C3E455e00EA04DF29f9b6e5C",
      "value": {
        "_hex": "0x337fc277bcbd580000"
      },
      "nonce": 729,
      "data": "0x",
      "r": "0x50e0c27da5e33cc499b1092939b5595cbc8ea60303d26fc98356823374b4ddcd",
      "s": "0x2abaa8bfe35bb45fcd2db34f00561f24ae7560bfcb1771600976eb983f6c1d8b",
      "v": 27,
      "creates": null,
      "raw": "0xf86f8202d9850cb94a19f2825208948259e039e6a80780c3e455e00ea04df29f9b6e5c89337fc277bcbd580000801ba050e0c27da5e33cc499b1092939b5595cbc8ea60303d26fc98356823374b4ddcda02abaa8bfe35bb45fcd2db34f00561f24ae7560bfcb1771600976eb983f6c1d8b",
      "networkId": 0,
      "chainId": 0
    }
  ]
}