{
  "hash": "0x029627c18c49877503539c47c696d7ba78e3858b61056b1cc0012d7dd9124bdb",
  "parentHash": "0x0e045360125100207ebf3d2a4129613ff90e554e438c46c29d69060152e61e66",
  "number": 60313,
  "timestamp": 1439153334,
  "nonce": "0x99155bf33a71e558",
  "difficulty": 1745797429069,
  "gasLimit": {
    "_hex": "0x2fefd8"
  },
  "gasUsed": {
    "_hex": "0x19a28"
  },
  "miner": "0xf927a40C8B7F6E07c5af7FA2155B4864a4112B13",
  "extraData": "0x",
  "transactions": [
    {
      "hash": "0x8a3696e9c8a9e9d91d3a3720cfc6f9798d6555100336e449c9efec73511da2fc",
      "blockHash": "0x029627c18c49877503539c47c696d7ba78e3858b61056b1cc0012d7dd9124bdb",
      "blockNumber": 60313,
      "transactionIndex": 0,
      "confirmations": null,
      "from": "0xa072691C8DD7cD4237fF72a75C1A9506d0Ce5B9E",
      "gasPrice": {
        "_hex": "0xfec9818d84"
      },
      "gasLimit": {
        "_hex": "0x15f90"
      },
      "to": "0xE61f07672D088d1df25512d8a9A7A9B9a47A9654",
      "value": {
        "_hex": "0x8ac7230489e80000"
      },
      "nonce": 3,
      "data": "0x",
      "r": "0x476e52e8a4b66adcd5fff063060485af68c18f4fb252d93e3deb42585e34d445",
      "s": "0x0132e5fb7229abb37b14056ebe113effde74be445187378e9690d26783ce84cd",
      "v": 28,
      "creates": null,
      "raw": "0xf86d0385fec9818d8483015f9094e61f07672d088d1df25512d8a9a7a9b9a47a9654888ac7230489e80000801ca0476e52e8a4b66adcd5fff063060485af68c18f4fb252d93e3deb42585e34d445a00132e5fb7229abb37b14056ebe113effde74be445187378e9690d26783ce84cd",
      "networkId": 0,
      "chainId": 0
    },
    {
      "hash": "0xb7198f58799dc38cf05b3ee0e2e0e17e085750f72b9442b9e92a39f61aaebf7b",
      "blockHash": "0x029627c18c49877503539c47c696d7ba78e3858b61056b1cc0012d7dd9124bdb",
      "blockNumber": 60313,
      "transactionIndex": 1,
      "confirmations": null,
      "from": "0xF82890B42d44a4a6a8b91d83ceb018553526bBB3",
      "gasPrice": {
        "_hex": "0xd19dcfc0e"
      },
      "gasLimit": {
        "_hex": "0x5208"
      },
      "to": "0x32Be343B94f860124dC4fEe278FDCBD38C102D88",
      "value": {
        "_hex": "0xa6729a40a05bb000"
      },
      "nonce": 0,
      "data": "0x",
      "r": "0x9465264ab415be301fa1cf7960ca9f963a2ed7661482af44fdfb6dc219ec454a",
      "s": "0x602af02425aa21c595747887e8eb93844d7b2b3dbfe5b33de8ea510cd9912c96",
      "v": 28,
      "creates": null,
      "raw": "0xf86c80850d19dcfc0e8252089432be343b94f860124dc4fee278fdcbd38c102d8888a6729a40a05bb000801ca09465264ab415be301fa1cf7960ca9f963a2ed7661482af44fdfb6dc219ec454aa0602af02425aa21c595747887e8eb93844d7b2b3dbfe5b33de8ea510cd9912c96",
      "networkId": 0,
      "chainId": 0
    },
    {
      "hash": "0xf39a343419c326014e6891cad64543240c32d3e30df86d8c5c77693228e83ec9",
      "blockHash": "0x029627c18c49877503539c47c696d7ba78e3858b61056b1cc0012d7dd9124bdb",
      "blockNumber": 60313,
      "transactionIndex": 2,
      "confirmations": null,
      "from": "0x6111E933E5e6297DFd0AAd9aAB64017c69062a08",
      "gasPrice": {
        "_hex": "0xd19dcfc0e"
      },
      "gasLimit": {
        "_hex": "0x5208"
      },
      "to": "0x32Be343B94f860124dC4fEe278FDCBD38C102D88",
      "value": {
        "_hex": "0x455f5ed044803000"
      },
      "nonce": 6,
      "data": "0x",
      "r": "0xcc0f4a7d85f9007452e7ba0b72fa7172c06f839ec5539c1cec492cc085f93614",
      "s": "0x6162fbfea4414d82b4a5aa8cd17f619c1371d409b10c6f32222d653d5306041f",
      "v": 27,
      "creates": null,
      "raw": "0xf86c06850d19dcfc0e8252089432be343b94f860124dc4fee278fdcbd38c102d8888455f5ed044803000801ba0cc0f4a7d85f9007452e7ba0b72fa7172c06f839ec5539c1cec492cc085f93614a06162fbfea4414d82b4a5aa8cd17f619c1371d409b10c6f32222d653d5306041f",
      "networkId": 0,
      "chainId": 0
    },
    {
      "hash": "0x0a16e840e44d5be4ecc7b32e1a6d62a33839807117477f9af69c29e4ba6a8ef7",
      "blockHash": "0x029627c18c49877503539c47c696d7ba78e3858b61056b1cc0012d7dd9124bdb",
      "blockNumber": 60313,
      "transactionIndex": 3,
      "confirmations": null,
      "from": "0x32Be343B94f860124dC4fEe278FDCBD38C102D88",
      "gasPrice": {
        "_hex": "0xd19dcfc0e"
      },
      "gasLimit": {
        "_hex": "0x5208"
      },
      "to": "0xA3A56867DCF18D04e2Cf07351d2f692DEE6e6925",
      "value": {
        "_hex": "0xdbd2fc137a30000"
      },
      "nonce": 116,
      "data": "0x",
      "r": "0x86abac2c06a361a02360f294e4f2398dfaa5f2002e1881b89225590fdb3263b8",
      "s": "0x7ea288c001902e880bcea44899cfa4039ff84d4e31232234297a3ae747d1c7f5",
      "v": 28,
      "creates": null,
      "raw": "0xf86c74850d19dcfc0e82520894a3a56867dcf18d04e2cf07351d2f692dee6e6925880dbd2fc137a30000801ca086abac2c06a361a02360f294e4f2398dfaa5f2002e1881b89225590fdb3263b8a07ea288c001902e880bcea44899cfa4039ff84d4e31232234297a3ae747d1c7f5",
      "networkId": 0,
      "chainId": 0
    },
    {
      "hash": "0x6b68438f2bd78b0740bd703860e197ccdfd0a185ddd36b55d460fe386d16c86f",
      "blockHash": "0x029627c18c49877503539c47c696d7ba78e3858b61056b1cc0012d7dd9124bdb",
      "blockNumber": 60313,
      "transactionIndex": 4,
      "confirmations": null,
      "from": "0x2910543Af39abA0Cd09dBb2D50200b3E800A63D2",
      "gasPrice": {
        "_hex": "0xd18f0ecc5"
      },
      "gasLimit": {
        "_hex": "0x5208"
      },
      "to": "0x288E4356F12D0D3D0F8DF3506E457E7cFd5f4Ab0",
      "value": {
        "_hex": "0xd1d507e40be80000"
      },
      "nonce": 19,
      "data": "0x",
      "r": "0xe8e024a3a39049b7ed5f825d80b890a9223e30388dfdcc690f7d3b3ceb7fb2e6",
      "s": "0x56640d35ff25a1206ae4cafddc9de1b296c728a4ab43e274e046133a2d54a137",
      "v": 27,
      "creates": null,
      "raw": "0xf86c13850d18f0ecc582520894288e4356f12d0d3d0f8df3506e457e7cfd5f4ab088d1d507e40be80000801ba0e8e024a3a39049b7ed5f825d80b890a9223e30388dfdcc690f7d3b3ceb7fb2e6a056640d35ff25a1206ae4cafddc9de1b296c728a4ab43e274e046133a2d54a137",
      "networkId": 0,
      "chainId": 0
    }
  ]
}