{
  "hash": "0xae353dbc9c24f9e2a767def842230e24ea3af4c13ee21f1813907da5bbe299f8",
  "parentHash": "0x545bf95676715ac2cb7f7ca3560d176416d954f81657f422fe5d599d53f15097",
  "number": 68662,
  "timestamp": 1439291665,
  "nonce": "0x82ae8e56a75379b3",
  "difficulty": 2018212578342,
  "gasLimit": {
    "_hex": "0x2fefd8"
  },
  "gasUsed": {
    "_hex": "0xbe6c0"
  },
  "miner": "0x9746c7e1ef2bd21FF3997fa467593a89cb852BD0",
  "extraData": "0x476574682f76312e302e312f77696e646f77732f676f312e342e32",
  "transactions": [
    {
      "hash": "0x1a3af67a82960cddad607f9591fcef06d0706abd5da6fcf66c937028e74b780c",
      "blockHash": "0xae353dbc9c24f9e2a767def842230e24ea3af4c13ee21f1813907da5bbe299f8",
      "blockNumber": 68662,
      "transactionIndex": 0,
      "confirmations": null,
      "from": "0xDBf81E29CcbfD8A1129da3A78305e3B4A58d2303",
      "gasPrice": {
        "_hex": "0xba43b7400"
      },
      "gasLimit": {
        "_hex": "0x15f90"
      },
      "to": "0x793AE8C1b1a160BFc07BFB0d04F85eab1A71F4f2",
      "value": {
        "_hex": "0x0"
      },
      "nonce": 0,
      "data": "0x3ba15036",
      "r": "0xe007e7ba5ad156d92cc0cee4858843c92fc5523247c4219cedec618a736bcf8e",
      "s": "0x204871b4bfc95952026ba1b29f791a6581e3655d34e07387560ebbf6a74210b5",
      "v": 28,
      "creates": null,
      "raw": "0xf86980850ba43b740083015f9094793ae8c1b1a160bfc07bfb0d04f85eab1a71f4f280843ba150361ca0e007e7ba5ad156d92cc0cee4858843c92fc5523247c4219cedec618a736bcf8ea0204871b4bfc95952026ba1b29f791a6581e3655d34e07387560ebbf6a74210b5",
      "networkId": 0,
      "chainId": 0
    },
    {
      "hash": "0xc1f93b48c80502a494a1117501836790b65a5ae02fce0738319d076a49f51f5e",
      "blockHash": "0xae353dbc9c24f9e2a767def842230e24ea3af4c13ee21f1813907da5bbe299f8",
      "blockNumber": 68662,
      "transactionIndex": 1,
      "confirmations": null,
      "from": "0xaf7AeE4DB4d23C0c96D067D96f020147fED242C5",
      "gasPrice": {
        "_hex": "0xba43b7400"
      },
      "gasLimit": {
        "_hex": "0x15f90"
      },
      "to": "0x793AE8C1b1a160BFc07BFB0d04F85eab1A71F4f2",
      "value": {
        "_hex": "0x0"
      },
      "nonce": 0,
      "data": "0x3ba15036",
      "r": "0x5a332b03082d30776b76d5d11e2850c834312024723911e280678d00ba8da568",
      "s": "0x436571acfffc9cb32c476b057c8f1c10fc5a6d5b4fd17d159713601a69551240",
      "v": 28,
      "creates": null,
      "raw": "0xf86980850ba43b740083015f9094793ae8c1b1a160bfc07bfb0d04f85eab1a71f4f280843ba150361ca05a332b03082d30776b76d5d11e2850c834312024723911e280678d00ba8da568a0436571acfffc9cb32c476b057c8f1c10fc5a6d5b4fd17d159713601a69551240",
      "networkId": 0,
      "chainId": 0
    },
    {
      "hash": "0xb825ace3f5a968f4d94d50d7985b4c9f55dc0495a92155b983bfbcba657ef1c7",
      "blockHash": "0xae353dbc9c24f9e2a767def842230e24ea3af4c13ee21f1813907da5bbe299f8",
      "blockNumber": 68662,
      "transactionIndex": 2,
      "confirmations": null,
      "from": "0x847599CA040B4F2eA042b7d2C7980630027315ba",
      "gasPrice": {
        "_hex": "0xba43b7400"
      },
      "gasLimit": {
        "_hex": "0x15f90"
      },
      "to": "0x793AE8C1b1a160BFc07BFB0d04F85eab1A71F4f2",
      "value": {
        "_hex": "0x0"
      },
      "nonce": 0,
      "data": "0x3ba15036",
      "r": "0x04d7df7077b4e021826573ad3d403c6c6f543140915851867a169cc10f4980e2",
      "s": "0x779c66bfda5978692a8f7e37aa9b1914e1c3ff452962048415142d6c7e38c9b7",
      "v": 27,
      "creates": null,
      "raw": "0xf86980850ba43b740083015f9094793ae8c1b1a160bfc07bfb0d04f85eab1a71f4f280843ba150361ba004d7df7077b4e021826573ad3d403c6c6f543140915851867a169cc10f4980e2a0779c66bfda5978692a8f7e37aa9b1914e1c3ff452962048415142d6c7e38c9b7",
      "networkId": 0,
      "chainId": 0
    },
    {
      "hash": "0xca2e3ba1cc891bf897e5179c3951ad9f141431a07ef230d50e2cb2ac3962f46e",
      "blockHash": "0xae353dbc9c24f9e2a767def842230e24ea3af4c13ee21f1813907da5bbe299f8",
      "blockNumber": 68662,
      "transactionIndex": 3,
      "confirmations": null,
      "from": "0xD32c1E83032a0E7e230684B29f607af42C72B81B",
      "gasPrice": {
        "_hex": "0xba43b7400"
      },
      "gasLimit": {
        "_hex": "0x15f90"
      },
      "to": "0x793AE8C1b1a160BFc07BFB0d04F85eab1A71F4f2",
      "value": {
        "_hex": "0x0"
      },
      "nonce": 0,
      "data": "0x3ba15036",
      "r": "0xd391d87960be2f491c1c068a18ca00085ea98d7c6cbd2303c1ddb896ae71332c",
      "s": "0x6ec71cbd3c2d4dab2fde1d265cd027bfdf61d5d2fd4e593dec700ae999f77146",
      "v": 27,
      "creates": null,
      "raw": "0xf86980850ba43b740083015f9094793ae8c1b1a160bfc07bfb0d04f85eab1a71f4f280843ba150361ba0d391d87960be2f491c1c068a18ca00085ea98d7c6cbd2303c1ddb896ae71332ca06ec71cbd3c2d4dab2fde1d265cd027bfdf61d5d2fd4e593dec700ae999f77146",
      "networkId": 0,
      "chainId": 0
    },
    {
      "hash": "0xd68455a022fbfd3dbd45561e99c1a7a93bdc1540d606c1771714b93fea992aac",
      "blockHash": "0xae353dbc9c24f9e2a767def842230e24ea3af4c13ee21f1813907da5bbe299f8",
      "blockNumber": 68662,
      "transactionIndex": 4,
      "confirmations": null,
      "from": "0x9Dd091647B06fbb9380147feeDd3fe3Ecc827990",
      "gasPrice": {
        "_hex": "0xba43b7400"
      },
      "gasLimit": {
        "_hex": "0x15f90"
      },
      "to": "0x793AE8C1b1a160BFc07BFB0d04F85eab1A71F4f2",
      "value": {
        "_hex": "0x0"
      },
      "nonce": 0,
      "data": "0x3ba15036",
      "r": "0xb05ad4bab72439e7996a4696ce4e85c04cb9f519750d6797254f6b37936a38f9",
      "s": "0x4c6a75466df87ebc0a7532f3ed10296864431cb3e1905d87cfdb6acce7b04de3",
      "v": 27,
      "creates": null,
      "raw": "0xf86980850ba43b740083015f9094793ae8c1b1a160bfc07bfb0d04f85eab1a71f4f280843ba150361ba0b05ad4bab72439e7996a4696ce4e85c04cb9f519750d6797254f6b37936a38f9a04c6a75466df87ebc0a7532f3ed10296864431cb3e1905d87cfdb6acce7b04de3",
      "networkId": 0,
      "chainId": 0
    },
    {
      "hash": "0x9c938c010e6594216abec814a20bcd73044351dcda460fbb4e6de1753e67d76a",
      "blockHash": "0xae353dbc9c24f9e2a767def842230e24ea3af4c13ee21f1813907da5bbe299f8",
      "blockNumber": 68662,
      "transactionIndex": 5,
      "confirmations": null,
      "from": "0xBF9B812BaD5FD0301bF4ae4C6415d9dfcfdCA889",
      "gasPrice": {
        "_hex": "0xba43b7400"
      },
      "gasLimit": {
        "_hex": "0x15f90"
      },
      "to": "0x793AE8C1b1a160BFc07BFB0d04F85eab1A71F4f2",
      "value": {
        "_hex": "0x0"
      },
      "nonce": 0,
      "data": "0x3ba15036",
      "r": "0xa52499b7cc9bcdd14e9b6856910e777fc59fc18860eeb099d6a5c5412d210590",
      "s": "0x26b006224bbdae26cfc8bfe7a4d9d0071fe6bc4e92f819caaf204838890e91b3",
      "v": 27,
      "creates": null,
      "raw": "0xf86980850ba43b740083015f9094793ae8c1b1a160bfc07bfb0d04f85eab1a71f4f280843ba150361ba0a52499b7cc9bcdd14e9b6856910e777fc59fc18860eeb099d6a5c5412d210590a026b006224bbdae26cfc8bfe7a4d9d0071fe6bc4e92f819caaf204838890e91b3",
      "networkId": 0,
      "chainId": 0
    },
    {
      "hash": "0x4d02676f9237543947d08784b7676475164f1f541a1a1b246d38a625b6a4ba5c",
      "blockHash": "0xae353dbc9c24f9e2a767def842230e24ea3af4c13ee21f1813907da5bbe299f8",
      "blockNumber": 68662,
      "transactionIndex": 6,
      "confirmations": null,
      "from": "0xF1114b0a9dB8d89Ee378755505cA14af611cD95D",
      "gasPrice": {
        "_hex": "0xba43b7400"
      },
      "gasLimit": {
        "_hex": "0x15f90"
      },
      "to": "0x793AE8C1b1a160BFc07BFB0d04F85eab1A71F4f2",
      "value": {
        "_hex": "0x0"
      },
      "nonce": 0,
      "data": "0x3ba15036",
      "r": "0x2044b0489174b325daa593ba856699ffd00d5dd9fc6ea42b8afa01d97ff675e9",
      "s": "0x50b8a7f55d948eec35970ffb3dee7368f31ca83ffe333402826e74c92c0b2df6",
      "v": 27,
      "creates": null,
      "raw": "0xf86980850ba43b740083015f9094793ae8c1b1a160bfc07bfb0d04f85eab1a71f4f280843ba150361ba02044b0489174b325daa593ba856699ffd00d5dd9fc6ea42b8afa01d97ff675e9a050b8a7f55d948eec35970ffb3dee7368f31ca83ffe333402826e74c92c0b2df6",
      "networkId": 0,
      "chainId": 0
    },
    {
      "hash": "0x8b10cce34ebc14ecfa5ef363e752e43d57a681b872580aa89cbd7faf4c459883",
      "blockHash": "0xae353dbc9c24f9e2a767def842230e24ea3af4c13ee21f1813907da5bbe299f8",
      "blockNumber": 68662,
      "transactionIndex": 7,
      "confirmations": null,
      "from": "0xEfD17419b3f8C278F396F4e60eF3CE4c7B082919",
      "gasPrice": {
        "_hex": "0xba43b7400"
      },
      "gasLimit": {
        "_hex": "0x15f90"
      },
      "to": "0x793AE8C1b1a160BFc07BFB0d04F85eab1A71F4f2",
      "value": {
        "_hex": "0x0"
      },
      "nonce": 0,
      "data": "0x3ba15036",
      "r": "0xa144f93d3dec41c435b286ced6f64f61c39f3855623dc48a5abcb6a16d5cfda9",
      "s": "0x616d02f983231084add89b9d2ea448145f33fe3448a4d48515dda38891292ba6",
      "v": 28,
      "creates": null,
      "raw": "0xf86980850ba43b740083015f9094793ae8c1b1a160bfc07bfb0d04f85eab1a71f4f280843ba150361ca0a144f93d3dec41c435b286ced6f64f61c39f3855623dc48a5abcb6a16d5cfda9a0616d02f983231084add89b9d2ea448145f33fe3448a4d48515dda38891292ba6",
      "networkId": 0,
      "chainId": 0
    },
    {
      "hash": "0xc81a51e2ae2f694e5c9c4ec3767a94a17713ff4ede29d3a53667cd28297f4600",
      "blockHash": "0xae353dbc9c24f9e2a767def842230e24ea3af4c13ee21f1813907da5bbe299f8",
      "blockNumber": 68662,
      "transactionIndex": 8,
      "confirmations": null,
      "from": "0xA2c6dDAA9A96067993BFc8671608589de3Ba60F0",
      "gasPrice": {
        "_hex": "0xba43b7400"
      },
      "gasLimit": {
        "_hex": "0x15f90"
      },
      "to": "0x793AE8C1b1a160BFc07BFB0d04F85eab1A71F4f2",
      "value": {
        "_hex": "0x0"
      },
      "nonce": 0,
      "data": "0x3ba15036",
      "r": "0x30b097332d2670aeda3e745bb2f6f1f418794e742647be39be056f089535f300",
      "s": "0x09d20a8e88f60b958e653710c4fd267ac0e7181d2800c90486de6cfa5bd7e3a7",
      "v": 27,
      "creates": null,
      "raw": "0xf86980850ba43b740083015f9094793ae8c1b1a160bfc07bfb0d04f85eab1a71f4f280843ba150361ba030b097332d2670aeda3e745bb2f6f1f418794e742647be39be056f089535f300a009d20a8e88f60b958e653710c4fd267ac0e7181d2800c90486de6cfa5bd7e3a7",
      "networkId": 0,
      "chainId": 0
    },
    {
      "hash": "0x59c0951625d6cdde4a73365f8ae9b339076df0edcbcd3361cf2afcb138df00b8",
      "blockHash": "0xae353dbc9c24f9e2a767def842230e24ea3af4c13ee21f1813907da5bbe299f8",
      "blockNumber": 68662,
      "transactionIndex": 9,
      "confirmations": null,
      "from": "0x4FFF15213aB3B92929D89947B7dE30d7ed970A1F",
      "gasPrice": {
        "_hex": "0xba43b7400"
      },
      "gasLimit": {
        "_hex": "0x15f90"
      },
      "to": "0x793AE8C1b1a160BFc07BFB0d04F85eab1A71F4f2",
      "value": {
        "_hex": "0x0"
      },
      "nonce": 0,
      "data": "0x3ba15036",
      "r": "0xebb265605684e941df6a225814843fece8b4d6a90c722ce21e71126384b25746",
      "s": "0x40b22f1695e38a57428842e526c4a70439873efa56c73d1046c2cfebf722c97b",
      "v": 27,
      "creates": null,
      "raw": "0xf86980850ba43b740083015f9094793ae8c1b1a160bfc07bfb0d04f85eab1a71f4f280843ba150361ba0ebb265605684e941df6a225814843fece8b4d6a90c722ce21e71126384b25746a040b22f1695e38a57428842e526c4a70439873efa56c73d1046c2cfebf722c97b",
      "networkId": 0,
      "chainId": 0
    },
    {
      "hash": "0x7fa419c723d265cc80d96abe9d74f8929c3406567782dd2558192373de7b0a71",
      "blockHash": "0xae353dbc9c24f9e2a767def842230e24ea3af4c13ee21f1813907da5bbe299f8",
      "blockNumber": 68662,
      "transactionIndex": 10,
      "confirmations": null,
      "from": "0xeeD203A3ACD617a6bd47Ca74b0c27bb025609C5d",
      "gasPrice": {
        "_hex": "0xba43b7400"
      },
      "gasLimit": {
        "_hex": "0x15f90"
      },
      "to": "0x793AE8C1b1a160BFc07BFB0d04F85eab1A71F4f2",
      "value": {
        "_hex": "0x0"
      },
      "nonce": 0,
      "data": "0x3ba15036",
      "r": "0x9d19b844a643ca5dba4e61b307f1db6c2ddb50f2057e0e0177fb6afb3eea83b3",
      "s": "0x7115de4e88374a91af4432c63967a92f95413bc46001b548a3a7ee99312b96c4",
      "v": 28,
      "creates": null,
      "raw": "0xf86980850ba43b740083015f9094793ae8c1b1a160bfc07bfb0d04f85eab1a71f4f280843ba150361ca09d19b844a643ca5dba4e61b307f1db6c2ddb50f2057e0e0177fb6afb3eea83b3a07115de4e88374a91af4432c63967a92f95413bc46001b548a3a7ee99312b96c4",
      "networkId": 0,
      "chainId": 0
    },
    {
      "hash": "0xebde925ce1597408f007940a2c0c7d9d5ced1490710b5a4790f6854c1d994734",
      "blockHash": "0xae353dbc9c24f9e2a767def842230e24ea3af4c13ee21f1813907da5bbe299f8",
      "blockNumber": 68662,
      "transactionIndex": 11,
      "confirmations": null,
      "from": "0xd9Bf1c77439dB284A4f0f6243fbC214252906afD",
      "gasPrice": {
        "_hex": "0xba43b7400"
      },
      "gasLimit": {
        "_hex": "0x15f90"
      },
      "to": "0x793AE8C1b1a160BFc07BFB0d04F85eab1A71F4f2",
      "value": {
        "_hex": "0x0"
      },
      "nonce": 0,
      "data": "0x3ba15036",
      "r": "0x7b8ef867c2d5a84664846cc4de443b989fb86c7568385e70438a0027d4e6c2ff",
      "s": "0x23b7377406151315f5efa0331d8ccbb49ee1e9f07f50002347e1663b3fd02e9c",
      "v": 27,
      "creates": null,
      "raw": "0xf86980850ba43b740083015f9094793ae8c1b1a160bfc07bfb0d04f85eab1a71f4f280843ba150361ba07b8ef867c2d5a84664846cc4de443b989fb86c7568385e70438a0027d4e6c2ffa023b7377406151315f5efa0331d8ccbb49ee1e9f07f50002347e1663b3fd02e9c",
      "networkId": 0,
      "chainId": 0
    },
    {
      "hash": "0x28a1442d5f0c4ead4a67f25e76849cf3d453e92836afd6ac4c98c98b160fbf5f",
      "blockHash": "0xae353dbc9c24f9e2a767def842230e24ea3af4c13ee21f1813907da5bbe299f8",
      "blockNumber": 68662,
      "transactionIndex": 12,
      "confirmations": null,
      "from": "0x7372F06387e0A6DE60f7B6117E9580D23Ab40E43",
      "gasPrice": {
        "_hex": "0xba43b7400"
      },
      "gasLimit": {
        "_hex": "0x15f90"
      },
      "to": "0x793AE8C1b1a160BFc07BFB0d04F85eab1A71F4f2",
      "value": {
        "_hex": "0x0"
      },
      "nonce": 0,
      "data": "0x3ba15036",
      "r": "0x352f7bb61f4c6efa5d6587f98e9606efe61b665e5e4d3a5283d0870b90b78758",
      "s": "0x24766ae99125b2c49fe7c63b9335a7a73e63ec3aa2af73730fd5dff511849710",
      "v": 28,
      "creates": null,
      "raw": "0xf86980850ba43b740083015f9094793ae8c1b1a160bfc07bfb0d04f85eab1a71f4f280843ba150361ca0352f7bb61f4c6efa5d6587f98e9606efe61b665e5e4d3a5283d0870b90b78758a024766ae99125b2c49fe7c63b9335a7a73e63ec3aa2af73730fd5dff511849710",
      "networkId": 0,
      "chainId": 0
    },
    {
      "hash": "0x44ac390068f4ad4af10eb9605f83531fce9f075c42bace011b9d7f30940b2ae8",
      "blockHash": "0xae353dbc9c24f9e2a767def842230e24ea3af4c13ee21f1813907da5bbe299f8",
      "blockNumber": 68662,
      "transactionIndex": 13,
      "confirmations": null,
      "from": "0x946daB0F9054c590b8EB9660850aae13c272381D",
      "gasPrice": {
        "_hex": "0xba43b7400"
      },
      "gasLimit": {
        "_hex": "0x15f90"
      },
      "to": "0x793AE8C1b1a160BFc07BFB0d04F85eab1A71F4f2",
      "value": {
        "_hex": "0x0"
      },
      "nonce": 0,
      "data": "0x3ba15036",
      "r": "0x97cb65b4360e82033cd9d4704c31f7c7dfd51843b17b8879730b4d9b224b3056",
      "s": "0x6abe8b988096b5389055286661d6a0910d1549c2db9254aeb09e19926fff725c",
      "v": 27,
      "creates": null,
      "raw": "0xf86980850ba43b740083015f9094793ae8c1b1a160bfc07bfb0d04f85eab1a71f4f280843ba150361ba097cb65b4360e82033cd9d4704c31f7c7dfd51843b17b8879730b4d9b224b3056a06abe8b988096b5389055286661d6a0910d1549c2db9254aeb09e19926fff725c",
      "networkId": 0,
      "chainId": 0
    },
    {
      "hash": "0xd5f5137a0cd878b6165af8377aa0e9243f38f31b6bce04ca3058431d380503ba",
      "blockHash": "0xae353dbc9c24f9e2a767def842230e24ea3af4c13ee21f1813907da5bbe299f8",
      "blockNumber": 68662,
      "transactionIndex": 14,
      "confirmations": null,
      "from": "0xbA66d47eC3F5151712D1CEaDEbb272624A60d195",
      "gasPrice": {
        "_hex": "0xba43b7400"
      },
      "gasLimit": {
        "_hex": "0x15f90"
      },
      "to": "0x793AE8C1b1a160BFc07BFB0d04F85eab1A71F4f2",
      "value": {
        "_hex": "0x0"
      },
      "nonce": 0,
      "data": "0x3ba15036",
      "r": "0xbd1371fa80fa3ff7e109381b0084f553d4eccf0f9d1bb38d5012504d2e9af8cf",
      "s": "0x052f7f9e39a8b581654537eb4ccd2123607cc5ec5ac81bb04533e1adf2371b52",
      "v": 27,
      "creates": null,
      "raw": "0xf86980850ba43b740083015f9094793ae8c1b1a160bfc07bfb0d04f85eab1a71f4f280843ba150361ba0bd1371fa80fa3ff7e109381b0084f553d4eccf0f9d1bb38d5012504d2e9af8cfa0052f7f9e39a8b581654537eb4ccd2123607cc5ec5ac81bb04533e1adf2371b52",
      "networkId": 0,
      "chainId": 0
    },
    {
      "hash": "0xa2477cef8347c06a694ca0b0a923f6d95f11e8a1d92452ff7e79343db0578116",
      "blockHash": "0xae353dbc9c24f9e2a767def842230e24ea3af4c13ee21f1813907da5bbe299f8",
      "blockNumber": 68662,
      "transactionIndex": 15,
      "confirmations": null,
      "from": "0x545BD84a81668470e8BaEeb93DFC927697D23e98",
      "gasPrice": {
        "_hex": "0xba43b7400"
      },
      "gasLimit": {
        "_hex": "0x15f90"
      },
      "to": "0x793AE8C1b1a160BFc07BFB0d04F85eab1A71F4f2",
      "value": {
        "_hex": "0x0"
      },
      "nonce": 0,
      "data": "0x3ba15036",
      "r": "0x9ee61e16755191920141336be6e00f8fc00b9a00856d20195489484c60531205",
      "s": "0x09d3aea9cb0c85414f5e3e214fe106313d82e5d25708fa1c4655ae7698eb58b7",
      "v": 28,
      "creates": null,
      "raw": "0xf86980850ba43b740083015f9094793ae8c1b1a160bfc07bfb0d04f85eab1a71f4f280843ba150361ca09ee61e16755191920141336be6e00f8fc00b9a00856d20195489484c60531205a009d3aea9cb0c85414f5e3e214fe106313d82e5d25708fa1c4655ae7698eb58b7",
      "networkId": 0,
      "chainId": 0
    }
  ]
}