{
  "hash": "0xf30565b86a39b550d9684630feaeb1b79d3c0724f707f180a4d08ad227b84367",
  "parentHash": "0x8ad538a37167c7a6bedffb886e1bcbf52f4aba8583b17749b046fc5f014d4517",
  "number": 117880,
  "timestamp": 1440116885,
  "nonce": "0x08a11e75e6f27fc0",
  "difficulty": 4331337236085,
  "gasLimit": {
    "_hex": "0x2fefd8"
  },
  "gasUsed": {
    "_hex": "0x19a28"
  },
  "miner": "0xe6A7a1d47ff21B6321162AEA7C6CB457D5476Bca",
  "extraData": "0xd783010002844765746887676f312e342e32856c696e7578",
  "transactions": [
    {
      "hash": "0x41968641b1a0bd6ad5ab27e3ea9eaceab99d3be8b98ee4f53ceaec2fdb76f4e4",
      "blockHash": "0xf30565b86a39b550d9684630feaeb1b79d3c0724f707f180a4d08ad227b84367",
      "blockNumber": 117880,
      "transactionIndex": 0,
      "confirmations": null,
      "from": "0xB0b3385a645Eb80B431224920043447Ab1303eA8",
      "gasPrice": {
        "_hex": "0xba43b7400"
      },
      "gasLimit": {
        "_hex": "0x5208"
      },
      "to": "0x32Be343B94f860124dC4fEe278FDCBD38C102D88",
      "value": {
        "_hex": "0x24085c45ca8fa000"
      },
      "nonce": 8,
      "data": "0x",
      "r": "0x9f90f350355393db08036b849086fecdcc1a9756868eba666e142d682b206795",
      "s": "0x58907810bd5fab7862cae61cdfd24f01843d787b308d197d49d7898d084b540a",
      "v": 28,
      "creates": null,
      "raw": "0xf86c08850ba43b74008252089432be343b94f860124dc4fee278fdcbd38c102d888824085c45ca8fa000801ca09f90f350355393db08036b849086fecdcc1a9756868eba666e142d682b206795a058907810bd5fab7862cae61cdfd24f01843d787b308d197d49d7898d084b540a",
      "networkId": 0,
      "chainId": 0
    },
    {
      "hash": "0x98e44211ae77ad4ca8507d5896540ecda4d5bf262677031a11d35f88f2ce50b6",
      "blockHash": "0xf30565b86a39b550d9684630feaeb1b79d3c0724f707f180a4d08ad227b84367",
      "blockNumber": 117880,
      "transactionIndex": 1,
      "confirmations": null,
      "from": "0xb1abce2918E21ddb93AA452731a12672A3d9F75a",
      "gasPrice": {
        "_hex": "0xba43b7400"
      },
      "gasLimit": {
        "_hex": "0x5208"
      },
      "to": "0x32Be343B94f860124dC4fEe278FDCBD38C102D88",
      "value": {
        "_hex": "0xcbd43fbf27bc88000"
      },
      "nonce": 185,
      "data": "0x",
      "r": "0x1b00a50fa41e35dd818191abd46e7e16b335476f071c2d9fe43c38cf7b227f42",
      "s": "0x671dce0408e1cb3eaa6d223f6fa861f5a0ad523a0f35fb52e0c1acfbcf0ed67f",
      "v": 28,
      "creates": null,
      "raw": "0xf86e81b9850ba43b74008252089432be343b94f860124dc4fee278fdcbd38c102d88890cbd43fbf27bc88000801ca01b00a50fa41e35dd818191abd46e7e16b335476f071c2d9fe43c38cf7b227f42a0671dce0408e1cb3eaa6d223f6fa861f5a0ad523a0f35fb52e0c1acfbcf0ed67f",
      "networkId": 0,
      "chainId": 0
    },
    {
      "hash": "0x14319aed0ad192d79d9ceb7ad3636c01311f34bb3526301fcd1e7ab6c9594024",
      "blockHash": "0xf30565b86a39b550d9684630feaeb1b79d3c0724f707f180a4d08ad227b84367",
      "blockNumber": 117880,
      "transactionIndex": 2,
      "confirmations": null,
      "from": "0xdc41BFACFAaF8B0F0949aB5A3f18f47063Ae62fB",
      "gasPrice": {
        "_hex": "0xba43b7400"
      },
      "gasLimit": {
        "_hex": "0x5208"
      },
      "to": "0x32Be343B94f860124dC4fEe278FDCBD38C102D88",
      "value": {
        "_hex": "0x1524291be58aba000"
      },
      "nonce": 10,
      "data": "0x",
      "r": "0xc953ba95df3e71149f8b9eef88cc3d6a71b0b9f0d1a8536cdf79512de700edd3",
      "s": "0x6d6274a8668af5ea199c54fa30fa13a341a081515a43a0c8b606c94c352a44f5",
      "v": 28,
      "creates": null,
      "raw": "0xf86d0a850ba43b74008252089432be343b94f860124dc4fee278fdcbd38c102d888901524291be58aba000801ca0c953ba95df3e71149f8b9eef88cc3d6a71b0b9f0d1a8536cdf79512de700edd3a06d6274a8668af5ea199c54fa30fa13a341a081515a43a0c8b606c94c352a44f5",
      "networkId": 0,
      "chainId": 0
    },
    {
      "hash": "0x0004ff3ed5ea8aa3e8ba61af087e5ed94ef9eb25e30a284d8e96de98d087b7ac",
      "blockHash": "0xf30565b86a39b550d9684630feaeb1b79d3c0724f707f180a4d08ad227b84367",
      "blockNumber": 117880,
      "transactionIndex": 3,
      "confirmations": null,
      "from": "0x3b09EfC81d5e3F72737B4063883CEDdfBc79ae88",
      "gasPrice": {
        "_hex": "0xba43b7400"
      },
      "gasLimit": {
        "_hex": "0x5208"
      },
      "to": "0x32Be343B94f860124dC4fEe278FDCBD38C102D88",
      "value": {
        "_hex": "0x1d04e8a91a976800"
      },
      "nonce": 10,
      "data": "0x",
      "r": "0x254089fb2be22f6b025711bcae39876e5e6573d603b9a53f4e562966196f167d",
      "s": "0x05f127499d142e375f81ebd8f62d7c8e9111a13067f2c208c2a78ce210ebc732",
      "v": 28,
      "creates": null,
      "raw": "0xf86c0a850ba43b74008252089432be343b94f860124dc4fee278fdcbd38c102d88881d04e8a91a976800801ca0254089fb2be22f6b025711bcae39876e5e6573d603b9a53f4e562966196f167da005f127499d142e375f81ebd8f62d7c8e9111a13067f2c208c2a78ce210ebc732",
      "networkId": 0,
      "chainId": 0
    },
    {
      "hash": "0xd836788bcbe3c127cf9184190d328699d8ff086ce2b727481449264613f63b90",
      "blockHash": "0xf30565b86a39b550d9684630feaeb1b79d3c0724f707f180a4d08ad227b84367",
      "blockNumber": 117880,
      "transactionIndex": 4,
      "confirmations": null,
      "from": "0xe512429AB3036301dC4c56F9a4c9991dCbb6b496",
      "gasPrice": {
        "_hex": "0xba43b7400"
      },
      "gasLimit": {
        "_hex": "0x5208"
      },
      "to": "0x32Be343B94f860124dC4fEe278FDCBD38C102D88",
      "value": {
        "_hex": "0xfb0ae2293b18400"
      },
      "nonce": 10,
      "data": "0x",
      "r": "0xda44f33a9db04ae9dc2b744e9a1622ee1f3e227348f86222a4e182cbc2b5a9f3",
      "s": "0x6703552b9f70ee28d9e1b9100a93d4b1f50049617c5284fa7b03fde3e44666b9",
      "v": 28,
      "creates": null,
      "raw": "0xf86c0a850ba43b74008252089432be343b94f860124dc4fee278fdcbd38c102d88880fb0ae2293b18400801ca0da44f33a9db04ae9dc2b744e9a1622ee1f3e227348f86222a4e182cbc2b5a9f3a06703552b9f70ee28d9e1b9100a93d4b1f50049617c5284fa7b03fde3e44666b9",
      "networkId": 0,
      "chainId": 0
    }
  ]
}