{
  "hash": "0xeab685494b975aac2533fea8f126574b4742ed5675bc040aa09fbdb2bd235a0c",
  "parentHash": "0xbab94572bb0602aaf285cca48f844c77c86f1612abe02708b7e6e5636f680700",
  "number": 88033,
  "timestamp": 1439601489,
  "nonce": "0xd7643e33b452ae24",
  "difficulty": 3200419826351,
  "gasLimit": {
    "_hex": "0x2fefd8"
  },
  "gasUsed": {
    "_hex": "0x5208"
  },
  "miner": "0x77EC9ad4A7E9418774C29415CAaF4Ee0da96eF64",
  "extraData": "0x",
  "transactions": [
    {
      "hash": "0x283f60571e66a6b9a5a8b7bbee954dbfe46b9582566a21395e55a979af60bcd9",
      "blockHash": "0xeab685494b975aac2533fea8f126574b4742ed5675bc040aa09fbdb2bd235a0c",
      "blockNumber": 88033,
      "transactionIndex": 0,
      "confirmations": null,
      "from": "0x510EdA5601499a0D5E1A006BfFFd833672F2E267",
      "gasPrice": {
        "_hex": "0xd7d40ace3"
      },
      "gasLimit": {
        "_hex": "0x7a120"
      },
      "to": "0xa80b38CE85260252BDb8BE027868c1A32a2201a6",
      "value": {
        "_hex": "0xd8d726b7177a80000"
      },
      "nonce": 2,
      "data": "0x",
      "r": "0xe02d0e3e736bc97344cf6a0b79bfa2defad14bfe655523880e3390165ac5e9a9",
      "s": "0x2dff01fc9e1587b440ea16fe977c45e4a6f00e3baf87d936457da320f7c64311",
      "v": 27,
      "creates": null,
      "raw": "0xf86e02850d7d40ace38307a12094a80b38ce85260252bdb8be027868c1a32a2201a6890d8d726b7177a80000801ba0e02d0e3e736bc97344cf6a0b79bfa2defad14bfe655523880e3390165ac5e9a9a02dff01fc9e1587b440ea16fe977c45e4a6f00e3baf87d936457da320f7c64311",
      "networkId": 0,
      "chainId": 0
    }
  ]
}