{
  "hash": "0x67e08e26e35b22277b0b1a5fae6ee8f16351c32905e33aac54b829eb349d719d",
  "parentHash": "0xaeeed22dc41f763a22e9a7c8bf526528ecf8b39aabcce4a7b4fbe5bee2fc4ca9",
  "number": 104086,
  "timestamp": 1439864126,
  "nonce": "0x67152401b5c12bb2",
  "difficulty": 4250399097594,
  "gasLimit": {
    "_hex": "0x2fefd8"
  },
  "gasUsed": {
    "_hex": "0x5208"
  },
  "miner": "0xe6A7a1d47ff21B6321162AEA7C6CB457D5476Bca",
  "extraData": "0x476574682f76312e302e312d38326566323666362f6c696e75782f676f312e34",
  "transactions": [
    {
      "hash": "0x4832d75fc350418ffe6e4f240722cc0f67410f26d50f4c71b2ee04b96a71dc4e",
      "blockHash": "0x67e08e26e35b22277b0b1a5fae6ee8f16351c32905e33aac54b829eb349d719d",
      "blockNumber": 104086,
      "transactionIndex": 0,
      "confirmations": null,
      "from": "0xc93a69dFC0fb3E867D9207599f7fe87d51619635",
      "gasPrice": {
        "_hex": "0xba43b7400"
      },
      "gasLimit": {
        "_hex": "0x5208"
      },
      "to": "0xC47Aaa860008be6f65B58c6C6E02a84e666EfE31",
      "value": {
        "_hex": "0x56bc3a335360c6000"
      },
      "nonce": 12,
      "data": "0x",
      "r": "0xc059a9f83972fffffc71dad2e03c48d7ee4b42e5f4dba10740b789601da95e91",
      "s": "0x17052d1526c1724add70b79e1f75a9d8c581f1ca959bc1da80ac3686ddad8885",
      "v": 27,
      "creates": null,
      "raw": "0xf86d0c850ba43b740082520894c47aaa860008be6f65b58c6c6e02a84e666efe3189056bc3a335360c6000801ba0c059a9f83972fffffc71dad2e03c48d7ee4b42e5f4dba10740b789601da95e91a017052d1526c1724add70b79e1f75a9d8c581f1ca959bc1da80ac3686ddad8885",
      "networkId": 0,
      "chainId": 0
    }
  ]
}