{
  "hash": "0xc5167c06ce1fe8c92e36a9407595a934e72f8f89fe115d468a90834156f76538",
  "parentHash": "0x66bd99af6f9d3c1c0549979a5c8531aa612b277b163a77d28d996e579c346d92",
  "number": 112282,
  "timestamp": 1440004882,
  "nonce": "0xcf9534dd0846e0ff",
  "difficulty": 4393892614789,
  "gasLimit": {
    "_hex": "0x2fefd8"
  },
  "gasUsed": {
    "_hex": "0x5208"
  },
  "miner": "0xf927a40C8B7F6E07c5af7FA2155B4864a4112B13",
  "extraData": "0x",
  "transactions": [
    {
      "hash": "0x6d080526393a9965b6140db11d517e9cd75a82241fdda866eb9a19e8946276b0",
      "blockHash": "0xc5167c06ce1fe8c92e36a9407595a934e72f8f89fe115d468a90834156f76538",
      "blockNumber": 112282,
      "transactionIndex": 0,
      "confirmations": null,
      "from": "0x790b8a3cE86E707ED0eD32bF89B3269692a23CC1",
      "gasPrice": {
        "_hex": "0xd11e3773f"
      },
      "gasLimit": {
        "_hex": "0x15f90"
      },
      "to": "0x4D67f4F0Db45b3B5a3424B39ed8d972F710381D5",
      "value": {
        "_hex": "0x2f9e3fb2098f20000"
      },
      "nonce": 47,
      "data": "0x",
      "r": "0xb0d025a61547f33b1fb584846c55b251115d87694bf21995f61ccc0aa7b28528",
      "s": "0x1aa42386df0c7514c8a5e67193d2695c1dfd60f2fcf2c7d70b888e644bd9833d",
      "v": 27,
      "creates": null,
      "raw": "0xf86e2f850d11e3773f83015f90944d67f4f0db45b3b5a3424b39ed8d972f710381d58902f9e3fb2098f20000801ba0b0d025a61547f33b1fb584846c55b251115d87694bf21995f61ccc0aa7b28528a01aa42386df0c7514c8a5e67193d2695c1dfd60f2fcf2c7d70b888e644bd9833d",
      "networkId": 0,
      "chainId": 0
    }
  ]
}