{
  "hash": "0x7a0f5c56433593ca6af9f032ce73e24353c1d310b052bc3c4bc536758669f7c2",
  "parentHash": "0x97a8f439a2467d9b3090fac42797bea4234dbc8133e32299e31f71e852d562c1",
  "number": 87145,
  "timestamp": 1439587810,
  "nonce": "0xd35172b4124186c4",
  "difficulty": 3060156248433,
  "gasLimit": {
    "_hex": "0x2fefd8"
  },
  "gasUsed": {
    "_hex": "0xa410"
  },
  "miner": "0xe6A7a1d47ff21B6321162AEA7C6CB457D5476Bca",
  "extraData": "0x476574682f76312e302e312d38326566323666362f6c696e75782f676f312e34",
  "transactions": [
    {
      "hash": "0x51c859d21457d84354cef1cc75d140ecc71ba97c6cb2f6027fd3736119870784",
      "blockHash": "0x7a0f5c56433593ca6af9f032ce73e24353c1d310b052bc3c4bc536758669f7c2",
      "blockNumber": 87145,
      "transactionIndex": 0,
      "confirmations": null,
      "from": "0x2910543Af39abA0Cd09dBb2D50200b3E800A63D2",
      "gasPrice": {
        "_hex": "0xdc2d13dd9"
      },
      "gasLimit": {
        "_hex": "0x5208"
      },
      "to": "0x6De181Fc4C140FA31F196e5393516c49EEeBdAd3",
      "value": {
        "_hex": "0x27f00c64d2ca8ea000"
      },
      "nonce": 696,
      "data": "0x",
      "r": "0x871bfd9b2d105364bcbbcc6c4e3fef7b5d9a06f4a30b10a7ba7c396c7b8be788",
      "s": "0x1f5a97392ac921a806f0ab22cb2c9ca81bd5e4636f1f8f72c1eb7adaca7272bd",
      "v": 27,
      "creates": null,
      "raw": "0xf86f8202b8850dc2d13dd9825208946de181fc4c140fa31f196e5393516c49eeebdad38927f00c64d2ca8ea000801ba0871bfd9b2d105364bcbbcc6c4e3fef7b5d9a06f4a30b10a7ba7c396c7b8be788a01f5a97392ac921a806f0ab22cb2c9ca81bd5e4636f1f8f72c1eb7adaca7272bd",
      "networkId": 0,
      "chainId": 0
    },
    {
      "hash": "0x55ea883540b02b5412d3cfdf7b0047317960b05784772b61339cc29a05e38cf5",
      "blockHash": "0x7a0f5c56433593ca6af9f032ce73e24353c1d310b052bc3c4bc536758669f7c2",
      "blockNumber": 87145,
      "transactionIndex": 1,
      "confirmations": null,
      "from": "0x4e96216fbC5639aDDa0a18c2f896A18bDE0682EF",
      "gasPrice": {
        "_hex": "0xba43b7400"
      },
      "gasLimit": {
        "_hex": "0x5208"
      },
      "to": "0xC47Aaa860008be6f65B58c6C6E02a84e666EfE31",
      "value": {
        "_hex": "0x1b8bf5821ee938f0"
      },
      "nonce": 0,
      "data": "0x",
      "r": "0x1c063b7c5d4cbf470125789ef9a938ac9e708786652df03a03dab76fa4a3a658",
      "s": "0x1c3a27d5a280c438dc92f6bece3c577fbaf2b7264f69a4337a80feca60d9da5a",
      "v": 28,
      "creates": null,
      "raw": "0xf86c80850ba43b740082520894c47aaa860008be6f65b58c6c6e02a84e666efe31881b8bf5821ee938f0801ca01c063b7c5d4cbf470125789ef9a938ac9e708786652df03a03dab76fa4a3a658a01c3a27d5a280c438dc92f6bece3c577fbaf2b7264f69a4337a80feca60d9da5a",
      "networkId": 0,
      "chainId": 0
    }
  ]
}