{
  "hash": "0x36120cf857723e1c09e38210eca5cefdca576cedb5e0962020bc209e68c472ed",
  "parentHash": "0xf85c9fdbc9a51ff6a904d4767c1da2c9870105cdd044e9ea5f689942da0fa936",
  "number": 98023,
  "timestamp": 1439765762,
  "nonce": "0x26df4783ce45d17e",
  "difficulty": 3870939959481,
  "gasLimit": {
    "_hex": "0x2fefd8"
  },
  "gasUsed": {
    "_hex": "0x546c"
  },
  "miner": "0x790b8a3cE86E707ED0eD32bF89B3269692a23CC1",
  "extraData": "0xd783010001844765746887676f312e342e32856c696e7578",
  "transactions": [
    {
      "hash": "0xadc0325bc05497c809e6abc38b7a5f6a7946074288cc02c8e02801b4bc4cb5aa",
      "blockHash": "0x36120cf857723e1c09e38210eca5cefdca576cedb5e0962020bc209e68c472ed",
      "blockNumber": 98023,
      "transactionIndex": 0,
      "confirmations": null,
      "from": "0x2f6BCe4fc330B69C9B4c2694d57C63Ec7B18feC7",
      "gasPrice": {
        "_hex": "0xd39954623"
      },
      "gasLimit": {
        "_hex": "0x7530"
      },
      "to": "0x2910543Af39abA0Cd09dBb2D50200b3E800A63D2",
      "value": {
        "_hex": "0x4a97d605a3b980000"
      },
      "nonce": 6,
      "data": "0x454e3651304d384252",
      "r": "0x2cfe8f5e19cb2a0ad06402ab6794f2a3a756448142f73446d20250c722fcdb72",
      "s": "0x6b12bc49575d40c1f3d11e395cd55ee52b29a3c2fcbfbc8e437ccb01a7dff887",
      "v": 28,
      "creates": null,
      "raw": "0xf87606850d39954623827530942910543af39aba0cd09dbb2d50200b3e800a63d28904a97d605a3b98000089454e3651304d3842521ca02cfe8f5e19cb2a0ad06402ab6794f2a3a756448142f73446d20250c722fcdb72a06b12bc49575d40c1f3d11e395cd55ee52b29a3c2fcbfbc8e437ccb01a7dff887",
      "networkId": 0,
      "chainId": 0
    }
  ]
}