{
  "hash": "0x758b7a322475f00fb514d9bbfb3aa3e0bd2fed877d7fae8eeef9849a323d5e89",
  "parentHash": "0x9747bd9ca93c7b4819602ba1297af8df178f2e1858c1e172830076e16ac49191",
  "number": 99981,
  "timestamp": 1439798753,
  "nonce": "0x391db572bc866561",
  "difficulty": 3851185936963,
  "gasLimit": {
    "_hex": "0x2fefd8"
  },
  "gasUsed": {
    "_hex": "0xa410"
  },
  "miner": "0xeB1325C8D9d3ea8D74aC11F4B00F1B2367686319",
  "extraData": "0x",
  "transactions": [
    {
      "hash": "0x4b9023a1daace219eaecebefe617edafe32807b13b6ab5260608ae7cb5ad847d",
      "blockHash": "0x758b7a322475f00fb514d9bbfb3aa3e0bd2fed877d7fae8eeef9849a323d5e89",
      "blockNumber": 99981,
      "transactionIndex": 0,
      "confirmations": null,
      "from": "0xe6A7a1d47ff21B6321162AEA7C6CB457D5476Bca",
      "gasPrice": {
        "_hex": "0xd8f04b74e"
      },
      "gasLimit": {
        "_hex": "0x55f0"
      },
      "to": "0x608f4b86321a68453f9adf6F06F7Fc3E621739ad",
      "value": {
        "_hex": "0x293e38b5acfb4747a0"
      },
      "nonce": 3513,
      "data": "0x",
      "r": "0x0d6b2569d9d6b4411d56aa7b71d79b40ebfc7765203c571b2363a414614eeba6",
      "s": "0x1b245a99d22308c7824466ebfb64a029481458cbef24f12814311768ec6b1245",
      "v": 27,
      "creates": null,
      "raw": "0xf86f820db9850d8f04b74e8255f094608f4b86321a68453f9adf6f06f7fc3e621739ad89293e38b5acfb4747a0801ba00d6b2569d9d6b4411d56aa7b71d79b40ebfc7765203c571b2363a414614eeba6a01b245a99d22308c7824466ebfb64a029481458cbef24f12814311768ec6b1245",
      "networkId": 0,
      "chainId": 0
    },
    {
      "hash": "0x1255a1cd88908fff823a073360d5e8f876cb0c6c187bd4a9abe44c67b3acf6a6",
      "blockHash": "0x758b7a322475f00fb514d9bbfb3aa3e0bd2fed877d7fae8eeef9849a323d5e89",
      "blockNumber": 99981,
      "transactionIndex": 1,
      "confirmations": null,
      "from": "0xe2F27cFd700a6d294Ac1BaFFa42c24bA0968631D",
      "gasPrice": {
        "_hex": "0xce1c5e4bc"
      },
      "gasLimit": {
        "_hex": "0x15f90"
      },
      "to": "0x89Ea4C778D3f3D6BE70883BB9995D41Bd4c453Ab",
      "value": {
        "_hex": "0x3782dace9d900000"
      },
      "nonce": 0,
      "data": "0x",
      "r": "0x70b769e9aa3c0a30011a191ef4f38fe595e69422d39138a8fdc8b9a64a610e76",
      "s": "0x4f7cf99b6b885bac5ef89afba110ebfd2a73fad001135083faf4da2837f06038",
      "v": 28,
      "creates": null,
      "raw": "0xf86d80850ce1c5e4bc83015f909489ea4c778d3f3d6be70883bb9995d41bd4c453ab883782dace9d900000801ca070b769e9aa3c0a30011a191ef4f38fe595e69422d39138a8fdc8b9a64a610e76a04f7cf99b6b885bac5ef89afba110ebfd2a73fad001135083faf4da2837f06038",
      "networkId": 0,
      "chainId": 0
    }
  ]
}