{
  "hash": "0xdc2bab73f356a01243a6573cc52df12fd0dfe575006698208133fa3030d77f3f",
  "parentHash": "0xd28922cca9176b268493c83f2aa072639d09000562a5d3647e13ed6b3ef5933a",
  "number": 64837,
  "timestamp": 1439227036,
  "nonce": "0x2f582003b0c0e5fe",
  "difficulty": 1903294243349,
  "gasLimit": {
    "_hex": "0x2fefd8"
  },
  "gasUsed": {
    "_hex": "0x17cd8"
  },
  "miner": "0x47ff6576639c2e94762eA5443978D7681C0E78DC",
  "extraData": "0x476574682f76312e302e312f6c696e75782f676f312e342e32",
  "transactions": [
    {
      "hash": "0xb2a94b20593ef0a3197508bc1dc69b81241b0c5a4d58f128ea3a76082a2d5697",
      "blockHash": "0xdc2bab73f356a01243a6573cc52df12fd0dfe575006698208133fa3030d77f3f",
      "blockNumber": 64837,
      "transactionIndex": 0,
      "confirmations": null,
      "from": "0x62863432702C48884c8831D4d2bB2C8Ef3867182",
      "gasPrice": {
        "_hex": "0xba43b7400"
      },
      "gasLimit": {
        "_hex": "0x15f90"
      },
      "to": "0x793AE8C1b1a160BFc07BFB0d04F85eab1A71F4f2",
      "value": {
        "_hex": "0x0"
      },
      "nonce": 0,
      "data": "0x3ba15036",
      "r": "0x9620ccd4aeb0ae7cff5451583e08a549410bd78ac2213c47aac2f0f1f1d95148",
      "s": "0x08168e3226575f3c63588209540b74b5da123e7e6c8c1e57b551e2e954c71959",
      "v": 27,
      "creates": null,
      "raw": "0xf86980850ba43b740083015f9094793ae8c1b1a160bfc07bfb0d04f85eab1a71f4f280843ba150361ba09620ccd4aeb0ae7cff5451583e08a549410bd78ac2213c47aac2f0f1f1d95148a008168e3226575f3c63588209540b74b5da123e7e6c8c1e57b551e2e954c71959",
      "networkId": 0,
      "chainId": 0
    },
    {
      "hash": "0xa400fa0e96b9f52fcbe2af0426f52dcf16fd0c57d549ac7a3bb88b7b8b2fec22",
      "blockHash": "0xdc2bab73f356a01243a6573cc52df12fd0dfe575006698208133fa3030d77f3f",
      "blockNumber": 64837,
      "transactionIndex": 1,
      "confirmations": null,
      "from": "0x1cc15169AeE1d7dffEFF5CAcaaBe484b4c172d60",
      "gasPrice": {
        "_hex": "0xba43b7400"
      },
      "gasLimit": {
        "_hex": "0x15f90"
      },
      "to": "0x793AE8C1b1a160BFc07BFB0d04F85eab1A71F4f2",
      "value": {
        "_hex": "0x0"
      },
      "nonce": 0,
      "data": "0x3ba15036",
      "r": "0xc3310fec1adbd0ade2dcf51bd566e9e58e352dd03e887ad76fb607ad62acb581",
      "s": "0x63782664be74a8568455129030556be57b62778f15ca1164748625ed49d25ea4",
      "v": 27,
      "creates": null,
      "raw": "0xf86980850ba43b740083015f9094793ae8c1b1a160bfc07bfb0d04f85eab1a71f4f280843ba150361ba0c3310fec1adbd0ade2dcf51bd566e9e58e352dd03e887ad76fb607ad62acb581a063782664be74a8568455129030556be57b62778f15ca1164748625ed49d25ea4",
      "networkId": 0,
      "chainId": 0
    }
  ]
}