{
  "hash": "0x4db8149281ad6ac08cef3f4f7b8bacc3bf80984140a0794c99f5a756b23bec5b",
  "parentHash": "0xb3d7c832c6885b36ca8add0444ee78e070387cbb8d6c69fca1a202456b49ee25",
  "number": 120248,
  "timestamp": 1440156762,
  "nonce": "0xb14c962b052c960a",
  "difficulty": 4406902948998,
  "gasLimit": {
    "_hex": "0x2fefd8"
  },
  "gasUsed": {
    "_hex": "0x5208"
  },
  "miner": "0x608f4b86321a68453f9adf6F06F7Fc3E621739ad",
  "extraData": "0xd783010002844765746887676f312e342e32856c696e7578",
  "transactions": [
    {
      "hash": "0xc1ae93278824d41583abf64d133f6110f93a6d942148cf0529ae5ba875f8bad3",
      "blockHash": "0x4db8149281ad6ac08cef3f4f7b8bacc3bf80984140a0794c99f5a756b23bec5b",
      "blockNumber": 120248,
      "transactionIndex": 0,
      "confirmations": null,
      "from": "0xFAe95941f26f565646Cc5bF443AfFDe60868f17e",
      "gasPrice": {
        "_hex": "0xba43b7400"
      },
      "gasLimit": {
        "_hex": "0x5208"
      },
      "to": "0xFBb1b73C4f0BDa4f67dcA266ce6Ef42f520fBB98",
      "value": {
        "_hex": "0xddcfbbb7a606000"
      },
      "nonce": 0,
      "data": "0x",
      "r": "0xf158d99c93491015e0875f6e51b5634fe781be3c896d21a600b881a7fd887bb3",
      "s": "0x4e78f9603ef29104d6ea59936bcb64fee7265f48dadd42eca14cf6357571c295",
      "v": 27,
      "creates": null,
      "raw": "0xf86c80850ba43b740082520894fbb1b73c4f0bda4f67dca266ce6ef42f520fbb98880ddcfbbb7a606000801ba0f158d99c93491015e0875f6e51b5634fe781be3c896d21a600b881a7fd887bb3a04e78f9603ef29104d6ea59936bcb64fee7265f48dadd42eca14cf6357571c295",
      "networkId": 0,
      "chainId": 0
    }
  ]
}