{
  "hash": "0xc2edcf53fd75a400168ba6881bbe3cd17fbc063b18db672b23175cdfb10d2f23",
  "parentHash": "0x1fe57992821988fa285581b6f46aff4998185d8c15d4245e588080672d1acf57",
  "number": 100616,
  "timestamp": 1439809383,
  "nonce": "0x68d1d285b798e2c8",
  "difficulty": 3826527682961,
  "gasLimit": {
    "_hex": "0x2fefd8"
  },
  "gasUsed": {
    "_hex": "0xbe90"
  },
  "miner": "0xe6A7a1d47ff21B6321162AEA7C6CB457D5476Bca",
  "extraData": "0x476574682f76312e302e312d38326566323666362f6c696e75782f676f312e34",
  "transactions": [
    {
      "hash": "0xf892e1e7b54dd038bb29e13e9eb16572f3a35c967e2cd57c23c0ec0be1f48d92",
      "blockHash": "0xc2edcf53fd75a400168ba6881bbe3cd17fbc063b18db672b23175cdfb10d2f23",
      "blockNumber": 100616,
      "transactionIndex": 0,
      "confirmations": null,
      "from": "0xd268fB48FA174088a25a120aFF0fd8eb0C2d4c87",
      "gasPrice": {
        "_hex": "0xceff3e80b"
      },
      "gasLimit": {
        "_hex": "0x1f328"
      },
      "to": "0x3C7771db7F343B79003e8c9BA787BBE47764ed05",
      "value": {
        "_hex": "0x6f05b59d3b20000"
      },
      "nonce": 12,
      "data": "0x",
      "r": "0x85eb2fef8862dcf0c3ff337562929de11b7bc880042a1a409fba638ce556fb75",
      "s": "0x39967900f55ff6e00dcbb510d3a60461eec0dd1f90d768a7e56e42382c2f9710",
      "v": 27,
      "creates": null,
      "raw": "0xf86d0c850ceff3e80b8301f328943c7771db7f343b79003e8c9ba787bbe47764ed058806f05b59d3b20000801ba085eb2fef8862dcf0c3ff337562929de11b7bc880042a1a409fba638ce556fb75a039967900f55ff6e00dcbb510d3a60461eec0dd1f90d768a7e56e42382c2f9710",
      "networkId": 0,
      "chainId": 0
    },
    {
      "hash": "0x364b4607d72433dcdb37f2a07d9ce49ee20f497092be47c92c8a8621dfb1bcc5",
      "blockHash": "0xc2edcf53fd75a400168ba6881bbe3cd17fbc063b18db672b23175cdfb10d2f23",
      "blockNumber": 100616,
      "transactionIndex": 1,
      "confirmations": null,
      "from": "0xAdCa16b4654a92cb67666C0cF61976cEEE81cEEB",
      "gasPrice": {
        "_hex": "0xcc9210735"
      },
      "gasLimit": {
        "_hex": "0x5208"
      },
      "to": "0x32Be343B94f860124dC4fEe278FDCBD38C102D88",
      "value": {
        "_hex": "0x90ad629646806000"
      },
      "nonce": 5,
      "data": "0x",
      "r": "0xfebf3fa4b8d7825612adbfa5fd103eb604efd6d453179f79979dabaf9eb6af1f",
      "s": "0x76d047e6d22f9a9710924c850bef883b98e4b2de3ab7361c96f4125491eeae0d",
      "v": 27,
      "creates": null,
      "raw": "0xf86c05850cc92107358252089432be343b94f860124dc4fee278fdcbd38c102d888890ad629646806000801ba0febf3fa4b8d7825612adbfa5fd103eb604efd6d453179f79979dabaf9eb6af1fa076d047e6d22f9a9710924c850bef883b98e4b2de3ab7361c96f4125491eeae0d",
      "networkId": 0,
      "chainId": 0
    }
  ]
}