{
  "hash": "0x0e98b4c6ab8a2ccbcb33879af6df59ce8f1638276d68b26106fc7634aa80370f",
  "parentHash": "0x5f36b89b03bc562b3cebe054d94d01b363b91b75022228fa7d5c0448c908e459",
  "number": 55883,
  "timestamp": 1439078615,
  "nonce": "0x883bf2a95e84c073",
  "difficulty": 1609153511405,
  "gasLimit": {
    "_hex": "0x2fefd8"
  },
  "gasUsed": {
    "_hex": "0x29040"
  },
  "miner": "0xA1623430350C5df1b52B0b57483A5bb45d1796Da",
  "extraData": "0x476574682f76312e302e312d38326566323666362f6c696e75782f676f312e34",
  "transactions": [
    {
      "hash": "0x4c5203d27d5f45e3830e801f0df9781e0ebb4a796decf5fc34c2f08d99fac216",
      "blockHash": "0x0e98b4c6ab8a2ccbcb33879af6df59ce8f1638276d68b26106fc7634aa80370f",
      "blockNumber": 55883,
      "transactionIndex": 0,
      "confirmations": null,
      "from": "0xe6A7a1d47ff21B6321162AEA7C6CB457D5476Bca",
      "gasPrice": {
        "_hex": "0xcd70aee86"
      },
      "gasLimit": {
        "_hex": "0x55f0"
      },
      "to": "0xeEa71DC26083232a9e7a61b6A7836Dc2428376Cf",
      "value": {
        "_hex": "0x6fd4f10c987adf98"
      },
      "nonce": 425,
      "data": "0x",
      "r": "0xf6dfacd717f119ff84a250751c028c1ad0765325c38839a6f3d1f36bd38e5774",
      "s": "0x0b06e1da99b371195f8f01a9a5bf84d49a0800d629d28f816ffcfe6e482f6ed2",
      "v": 27,
      "creates": null,
      "raw": "0xf86e8201a9850cd70aee868255f094eea71dc26083232a9e7a61b6a7836dc2428376cf886fd4f10c987adf98801ba0f6dfacd717f119ff84a250751c028c1ad0765325c38839a6f3d1f36bd38e5774a00b06e1da99b371195f8f01a9a5bf84d49a0800d629d28f816ffcfe6e482f6ed2",
      "networkId": 0,
      "chainId": 0
    },
    {
      "hash": "0xc1b902c43f686914dc88a7193cdfef516f84978effcc1630b37992079e47d68e",
      "blockHash": "0x0e98b4c6ab8a2ccbcb33879af6df59ce8f1638276d68b26106fc7634aa80370f",
      "blockNumber": 55883,
      "transactionIndex": 1,
      "confirmations": null,
      "from": "0xe6A7a1d47ff21B6321162AEA7C6CB457D5476Bca",
      "gasPrice": {
        "_hex": "0xcd70aee86"
      },
      "gasLimit": {
        "_hex": "0x55f0"
      },
      "to": "0x0785A86bE9c2D68DbAEbaf1DB72641680529E2FD",
      "value": {
        "_hex": "0x701e55ad9a39cd18"
      },
      "nonce": 426,
      "data": "0x",
      "r": "0xa16cf20a35c7a1495ded806bbec96fceaa8f28b50ef4bb13f3fc7d7c4d3d64e1",
      "s": "0x14df402ad76764cf8c16ae003ece85205b06193a8b65315f1f127416b53b6e57",
      "v": 27,
      "creates": null,
      "raw": "0xf86e8201aa850cd70aee868255f0940785a86be9c2d68dbaebaf1db72641680529e2fd88701e55ad9a39cd18801ba0a16cf20a35c7a1495ded806bbec96fceaa8f28b50ef4bb13f3fc7d7c4d3d64e1a014df402ad76764cf8c16ae003ece85205b06193a8b65315f1f127416b53b6e57",
      "networkId": 0,
      "chainId": 0
    },
    {
      "hash": "0x2a998b9f611318fa923ad2f73dea8a60d6b86e83701e3daa46d6d086acfe1931",
      "blockHash": "0x0e98b4c6ab8a2ccbcb33879af6df59ce8f1638276d68b26106fc7634aa80370f",
      "blockNumber": 55883,
      "transactionIndex": 2,
      "confirmations": null,
      "from": "0xe6A7a1d47ff21B6321162AEA7C6CB457D5476Bca",
      "gasPrice": {
        "_hex": "0xcd70aee86"
      },
      "gasLimit": {
        "_hex": "0x55f0"
      },
      "to": "0x41E156194adAdC44dd666899FC008c32690398b5",
      "value": {
        "_hex": "0x71a2fd39a4971130"
      },
      "nonce": 427,
      "data": "0x",
      "r": "0xd537b2a1a219ae2ec82db84e733458871ad6df30dfb99627e1a9ade157e61ecc",
      "s": "0x0b004022587ea399ce9da60ba3f613bf53f29b3eea9679a76fc7b6f8246c5d6d",
      "v": 28,
      "creates": null,
      "raw": "0xf86e8201ab850cd70aee868255f09441e156194adadc44dd666899fc008c32690398b58871a2fd39a4971130801ca0d537b2a1a219ae2ec82db84e733458871ad6df30dfb99627e1a9ade157e61ecca00b004022587ea399ce9da60ba3f613bf53f29b3eea9679a76fc7b6f8246c5d6d",
      "networkId": 0,
      "chainId": 0
    },
    {
      "hash": "0x9c3eeaac567ff13b0f2e857bcde9a3f796ef9ea59800ae6c8309ac4069246a5d",
      "blockHash": "0x0e98b4c6ab8a2ccbcb33879af6df59ce8f1638276d68b26106fc7634aa80370f",
      "blockNumber": 55883,
      "transactionIndex": 3,
      "confirmations": null,
      "from": "0xe6A7a1d47ff21B6321162AEA7C6CB457D5476Bca",
      "gasPrice": {
        "_hex": "0xcd70aee86"
      },
      "gasLimit": {
        "_hex": "0x55f0"
      },
      "to": "0xc56e71225f1372c990E6829D53A1Ab76d27301cf",
      "value": {
        "_hex": "0x75c545b6783271c0"
      },
      "nonce": 428,
      "data": "0x",
      "r": "0xca2f07d5be22743d9c3cd098b3e1526f6c81a97b1a7caf646ed5c4b7c828b189",
      "s": "0x75771f67c3fb34b23b511260f95cb636f6d1ed2d9f732dc557afbc97c7db004e",
      "v": 27,
      "creates": null,
      "raw": "0xf86e8201ac850cd70aee868255f094c56e71225f1372c990e6829d53a1ab76d27301cf8875c545b6783271c0801ba0ca2f07d5be22743d9c3cd098b3e1526f6c81a97b1a7caf646ed5c4b7c828b189a075771f67c3fb34b23b511260f95cb636f6d1ed2d9f732dc557afbc97c7db004e",
      "networkId": 0,
      "chainId": 0
    },
    {
      "hash": "0x2bd1a0e8e48a41f03903fa24ee87f08669e4485ccf8963a437cf86520f592fe2",
      "blockHash": "0x0e98b4c6ab8a2ccbcb33879af6df59ce8f1638276d68b26106fc7634aa80370f",
      "blockNumber": 55883,
      "transactionIndex": 4,
      "confirmations": null,
      "from": "0xe6A7a1d47ff21B6321162AEA7C6CB457D5476Bca",
      "gasPrice": {
        "_hex": "0xcd70aee86"
      },
      "gasLimit": {
        "_hex": "0x55f0"
      },
      "to": "0xacc8dECDFDCbed202B8632947c60487494F5D2c7",
      "value": {
        "_hex": "0x7af3933fac38f048"
      },
      "nonce": 429,
      "data": "0x",
      "r": "0x6bf424c80935d3b8fc3b73cd8db18abce7105116614bc3e5098a81f4f8c8bcd2",
      "s": "0x7fc4936ff12227e72aadd6006b53aa4741ca831472e3c967f237a8b076438bdd",
      "v": 28,
      "creates": null,
      "raw": "0xf86e8201ad850cd70aee868255f094acc8decdfdcbed202b8632947c60487494f5d2c7887af3933fac38f048801ca06bf424c80935d3b8fc3b73cd8db18abce7105116614bc3e5098a81f4f8c8bcd2a07fc4936ff12227e72aadd6006b53aa4741ca831472e3c967f237a8b076438bdd",
      "networkId": 0,
      "chainId": 0
    },
    {
      "hash": "0x6f5c3a76f181236bfd5b713e475e4b930779d9dbcc281ff381cc424a3e473812",
      "blockHash": "0x0e98b4c6ab8a2ccbcb33879af6df59ce8f1638276d68b26106fc7634aa80370f",
      "blockNumber": 55883,
      "transactionIndex": 5,
      "confirmations": null,
      "from": "0xe6A7a1d47ff21B6321162AEA7C6CB457D5476Bca",
      "gasPrice": {
        "_hex": "0xcd70aee86"
      },
      "gasLimit": {
        "_hex": "0x55f0"
      },
      "to": "0x6111E933E5e6297DFd0AAd9aAB64017c69062a08",
      "value": {
        "_hex": "0x7de6b366c136f3b8"
      },
      "nonce": 430,
      "data": "0x",
      "r": "0x61a93e4e96a1306705e9cdff6baca71f7653bc6d04ba85b0636a12bc4e6de5b3",
      "s": "0x24e33a8f5c2884bfe37b35de73742a0772ee812d13eba7c2b24a81ea24ebf420",
      "v": 28,
      "creates": null,
      "raw": "0xf86e8201ae850cd70aee868255f0946111e933e5e6297dfd0aad9aab64017c69062a08887de6b366c136f3b8801ca061a93e4e96a1306705e9cdff6baca71f7653bc6d04ba85b0636a12bc4e6de5b3a024e33a8f5c2884bfe37b35de73742a0772ee812d13eba7c2b24a81ea24ebf420",
      "networkId": 0,
      "chainId": 0
    },
    {
      "hash": "0x2ba77ced46ce57f83e5bfb3eff02f85073ab67553df7ea4182bb5be5a45a1af4",
      "blockHash": "0x0e98b4c6ab8a2ccbcb33879af6df59ce8f1638276d68b26106fc7634aa80370f",
      "blockNumber": 55883,
      "transactionIndex": 6,
      "confirmations": null,
      "from": "0xe6A7a1d47ff21B6321162AEA7C6CB457D5476Bca",
      "gasPrice": {
        "_hex": "0xcd70aee86"
      },
      "gasLimit": {
        "_hex": "0x55f0"
      },
      "to": "0x7Bd46b71ceE5Bb9e27d837625365cdafDA812D87",
      "value": {
        "_hex": "0x7e9e4ef0e19a0a90"
      },
      "nonce": 431,
      "data": "0x",
      "r": "0xfa1ce6f558aa74b78599c91039e58363e0703a18a7053cbb3cbf447bf3390884",
      "s": "0x36651c88e1a1136aee6c469a2fe232306d22624866dd4765729995a0b53534c1",
      "v": 28,
      "creates": null,
      "raw": "0xf86e8201af850cd70aee868255f0947bd46b71cee5bb9e27d837625365cdafda812d87887e9e4ef0e19a0a90801ca0fa1ce6f558aa74b78599c91039e58363e0703a18a7053cbb3cbf447bf3390884a036651c88e1a1136aee6c469a2fe232306d22624866dd4765729995a0b53534c1",
      "networkId": 0,
      "chainId": 0
    },
    {
      "hash": "0xbc5cfdf71eabe63306868b666e09c916e91410201e5643d174e2352db9748bb8",
      "blockHash": "0x0e98b4c6ab8a2ccbcb33879af6df59ce8f1638276d68b26106fc7634aa80370f",
      "blockNumber": 55883,
      "transactionIndex": 7,
      "confirmations": null,
      "from": "0xe6A7a1d47ff21B6321162AEA7C6CB457D5476Bca",
      "gasPrice": {
        "_hex": "0xcd70aee86"
      },
      "gasLimit": {
        "_hex": "0x55f0"
      },
      "to": "0x17bF56c2B514eDf8fF776D44D4a85908B645F5ED",
      "value": {
        "_hex": "0x8035f6f63f2cf820"
      },
      "nonce": 432,
      "data": "0x",
      "r": "0x3e517f8d59a7ca3ae30660f3f595b40606fb468684d8e72569642325a4d85de8",
      "s": "0x7f26f767095dc1458fb346c408f456b404d603c4bee870b533a73f01dfb389bd",
      "v": 27,
      "creates": null,
      "raw": "0xf86e8201b0850cd70aee868255f09417bf56c2b514edf8ff776d44d4a85908b645f5ed888035f6f63f2cf820801ba03e517f8d59a7ca3ae30660f3f595b40606fb468684d8e72569642325a4d85de8a07f26f767095dc1458fb346c408f456b404d603c4bee870b533a73f01dfb389bd",
      "networkId": 0,
      "chainId": 0
    }
  ]
}