{
  "hash": "0x86178fd2a3e47b7fbd327d22ae262bf461289061b41175b78bc441aac8438005",
  "parentHash": "0xef47b7ad1291f51dbb1a3a4833c3560096b7b23f0a89d8e17ae83e063011b455",
  "number": 52694,
  "timestamp": 1439025795,
  "nonce": "0x5e05430262d69ee8",
  "difficulty": 1571707560901,
  "gasLimit": {
    "_hex": "0x17ec9b"
  },
  "gasUsed": {
    "_hex": "0x173568"
  },
  "miner": "0x306e6267d94f23a9b37Cb110f20852208Fbbf1aA",
  "extraData": "0x476574682f76312e302e312f77696e646f77732f676f312e342e32",
  "transactions": [
    {
      "hash": "0x9dc2d5b61ba417d5b972597da39af9993af46a4650db8db150981f5cfb9b0f31",
      "blockHash": "0x86178fd2a3e47b7fbd327d22ae262bf461289061b41175b78bc441aac8438005",
      "blockNumber": 52694,
      "transactionIndex": 0,
      "confirmations": null,
      "from": "0xA5fb3E4399E8F18643f969D0Ce65CC352fc252C6",
      "gasPrice": {
        "_hex": "0xf29ef8bd3"
      },
      "gasLimit": {
        "_hex": "0x5208"
      },
      "to": "0x32Be343B94f860124dC4fEe278FDCBD38C102D88",
      "value": {
        "_hex": "0xddbdacb82c71c00"
      },
      "nonce": 1,
      "data": "0x",
      "r": "0x87cb81ece057668c2f638942352cec079052e2e598dcafc76b4e1b6dbf070219",
      "s": "0x7fefe18ec0ebdb1c4f4f39d107c61b2ec7213f4e172db0b2fd3869fe5b53c52e",
      "v": 28,
      "creates": null,
      "raw": "0xf86c01850f29ef8bd38252089432be343b94f860124dc4fee278fdcbd38c102d88880ddbdacb82c71c00801ca087cb81ece057668c2f638942352cec079052e2e598dcafc76b4e1b6dbf070219a07fefe18ec0ebdb1c4f4f39d107c61b2ec7213f4e172db0b2fd3869fe5b53c52e",
      "networkId": 0,
      "chainId": 0
    },
    {
      "hash": "0x8e706c95dd7885d449469127ac3beaab9218a7c430e4bc6a45a19a4ed1eb41f8",
      "blockHash": "0x86178fd2a3e47b7fbd327d22ae262bf461289061b41175b78bc441aac8438005",
      "blockNumber": 52694,
      "transactionIndex": 1,
      "confirmations": null,
      "from": "0x54dAeb3E8a6BBC797E4aD2b0339f134b186e4637",
      "gasPrice": {
        "_hex": "0xdf4ba21f9"
      },
      "gasLimit": {
        "_hex": "0x7a120"
      },
      "to": "0xBAA54d6E90c3F4d7Ebec11bD180134C7eD8eBb52",
      "value": {
        "_hex": "0x16345785d8a0000"
      },
      "nonce": 963,
      "data": "0x",
      "r": "0xd213513f00a03e0c08d4f1342b18bd92c4553cb3a5aaa12ec36c84597c080200",
      "s": "0x1ab65bcc6714e7b504fa7e12c8dccf837449b9d55b9f09fd2b646f04f7b8c6ca",
      "v": 28,
      "creates": null,
      "raw": "0xf86f8203c3850df4ba21f98307a12094baa54d6e90c3f4d7ebec11bd180134c7ed8ebb5288016345785d8a0000801ca0d213513f00a03e0c08d4f1342b18bd92c4553cb3a5aaa12ec36c84597c080200a01ab65bcc6714e7b504fa7e12c8dccf837449b9d55b9f09fd2b646f04f7b8c6ca",
      "networkId": 0,
      "chainId": 0
    },
    {
      "hash": "0xac7a9e410233830efbd8173de8fb5f8e96b4d2fa0ca4be7ec168cc85fb10d178",
      "blockHash": "0x86178fd2a3e47b7fbd327d22ae262bf461289061b41175b78bc441aac8438005",
      "blockNumber": 52694,
      "transactionIndex": 2,
      "confirmations": null,
      "from": "0x54dAeb3E8a6BBC797E4aD2b0339f134b186e4637",
      "gasPrice": {
        "_hex": "0xdce5b224a"
      },
      "gasLimit": {
        "_hex": "0x7a120"
      },
      "to": "0xBAA54d6E90c3F4d7Ebec11bD180134C7eD8eBb52",
      "value": {
        "_hex": "0x16345785d8a0000"
      },
      "nonce": 964,
      "data": "0x",
      "r": "0x5d61aeeda472e7f4841079f340ba9fba8ad3f03d187fbc6621f823756221ea55",
      "s": "0x4f3fc5b3342100d7894fc7dd9d5225572d85451a8f64025ab9936adb97933f3f",
      "v": 28,
      "creates": null,
      "raw": "0xf86f8203c4850dce5b224a8307a12094baa54d6e90c3f4d7ebec11bd180134c7ed8ebb5288016345785d8a0000801ca05d61aeeda472e7f4841079f340ba9fba8ad3f03d187fbc6621f823756221ea55a04f3fc5b3342100d7894fc7dd9d5225572d85451a8f64025ab9936adb97933f3f",
      "networkId": 0,
      "chainId": 0
    },
    {
      "hash": "0xb087144a90c63e77c5929a2db211d27cd6f7e24a7d7a7e2f3dfc3fcfbe81f6ed",
      "blockHash": "0x86178fd2a3e47b7fbd327d22ae262bf461289061b41175b78bc441aac8438005",
      "blockNumber": 52694,
      "transactionIndex": 3,
      "confirmations": null,
      "from": "0x54dAeb3E8a6BBC797E4aD2b0339f134b186e4637",
      "gasPrice": {
        "_hex": "0xd8bd64e50"
      },
      "gasLimit": {
        "_hex": "0x7a120"
      },
      "to": "0xBAA54d6E90c3F4d7Ebec11bD180134C7eD8eBb52",
      "value": {
        "_hex": "0x16345785d8a0000"
      },
      "nonce": 965,
      "data": "0x",
      "r": "0xf1976eeb1bf5af5781d29d20946842a59ce14764b27630be38f277e84d709901",
      "s": "0x356086497bf49df15a2f3454e93e21f5f9cc9238249ca5b46abf610b84eded3a",
      "v": 27,
      "creates": null,
      "raw": "0xf86f8203c5850d8bd64e508307a12094baa54d6e90c3f4d7ebec11bd180134c7ed8ebb5288016345785d8a0000801ba0f1976eeb1bf5af5781d29d20946842a59ce14764b27630be38f277e84d709901a0356086497bf49df15a2f3454e93e21f5f9cc9238249ca5b46abf610b84eded3a",
      "networkId": 0,
      "chainId": 0
    }
  ]
}