{
  "hash": "0x22a7ace77de5b910d44bcc09948439c48248faecada9a9721b7a1cc5b2a9dd2f",
  "parentHash": "0xa5093121cb2db3964c34811eacc9ff3cd91f4fc989f11316364a49d51db14854",
  "number": 115207,
  "timestamp": 1440053386,
  "nonce": "0xafbe36b544acab51",
  "difficulty": 4525155793247,
  "gasLimit": {
    "_hex": "0x2fefd8"
  },
  "gasUsed": {
    "_hex": "0x5208"
  },
  "miner": "0xe6A7a1d47ff21B6321162AEA7C6CB457D5476Bca",
  "extraData": "0x476574682f76312e302e312d38326566323666362f6c696e75782f676f312e34",
  "transactions": [
    {
      "hash": "0xafcc42a4ea81a0972f9790eb4556f2e418c0a8b0268f7192c3fee58f54403c2b",
      "blockHash": "0x22a7ace77de5b910d44bcc09948439c48248faecada9a9721b7a1cc5b2a9dd2f",
      "blockNumber": 115207,
      "transactionIndex": 0,
      "confirmations": null,
      "from": "0xa70a9a7040d542C632D8e0bE7c5513A8a5Bbc752",
      "gasPrice": {
        "_hex": "0xdc411ee83"
      },
      "gasLimit": {
        "_hex": "0x5208"
      },
      "to": "0x32Be343B94f860124dC4fEe278FDCBD38C102D88",
      "value": {
        "_hex": "0x455f284569f41c00"
      },
      "nonce": 308,
      "data": "0x",
      "r": "0xd0df4f8fce8f3333dc30a115ac2cea159e51d147aa350b39fd7d5bab30e4c98c",
      "s": "0x43876e5008297144d81e7bce8f4725d19910149a356968e5ad154bdb210ed0ce",
      "v": 28,
      "creates": null,
      "raw": "0xf86e820134850dc411ee838252089432be343b94f860124dc4fee278fdcbd38c102d8888455f284569f41c00801ca0d0df4f8fce8f3333dc30a115ac2cea159e51d147aa350b39fd7d5bab30e4c98ca043876e5008297144d81e7bce8f4725d19910149a356968e5ad154bdb210ed0ce",
      "networkId": 0,
      "chainId": 0
    }
  ]
}