{
  "hash": "0x29dcd5e371e2e7e9b4c324ec2214a9a89a100c1a7f190fd6fe166c155deb4443",
  "parentHash": "0x5b2e007db043ae6c9cb2d3988df4e86c79e6eb591b6942d68d7c1900e90e16d5",
  "number": 109389,
  "timestamp": 1439955682,
  "nonce": "0x1e65019ef6a9e3e7",
  "difficulty": 4475539104748,
  "gasLimit": {
    "_hex": "0x2fefd8"
  },
  "gasUsed": {
    "_hex": "0xa410"
  },
  "miner": "0xf927a40C8B7F6E07c5af7FA2155B4864a4112B13",
  "extraData": "0x",
  "transactions": [
    {
      "hash": "0x5838b59597e08d659e9fd37ef9fd6f2b59f9446bfe0c41ebb9877e10ba5bd138",
      "blockHash": "0x29dcd5e371e2e7e9b4c324ec2214a9a89a100c1a7f190fd6fe166c155deb4443",
      "blockNumber": 109389,
      "transactionIndex": 0,
      "confirmations": null,
      "from": "0x32Be343B94f860124dC4fEe278FDCBD38C102D88",
      "gasPrice": {
        "_hex": "0xdf5080be8"
      },
      "gasLimit": {
        "_hex": "0x5208"
      },
      "to": "0x30fd214a66128A1f1BAc83c571eB84AB1225Bd45",
      "value": {
        "_hex": "0xde0b6b3a7640000"
      },
      "nonce": 1273,
      "data": "0x",
      "r": "0xb168a5a665f0b459b0d8683c009a3aae91df8e96ddc1f979fbf0979d71f45356",
      "s": "0x1bc5f4f1780ccf10b2b93889783e48d229f6a5cd51a2d3b62839dc0bf90967ae",
      "v": 27,
      "creates": null,
      "raw": "0xf86e8204f9850df5080be88252089430fd214a66128a1f1bac83c571eb84ab1225bd45880de0b6b3a7640000801ba0b168a5a665f0b459b0d8683c009a3aae91df8e96ddc1f979fbf0979d71f45356a01bc5f4f1780ccf10b2b93889783e48d229f6a5cd51a2d3b62839dc0bf90967ae",
      "networkId": 0,
      "chainId": 0
    },
    {
      "hash": "0xeb54273f068146bbf422d90ed6009be295820f49175cea15acd11082e7171b43",
      "blockHash": "0x29dcd5e371e2e7e9b4c324ec2214a9a89a100c1a7f190fd6fe166c155deb4443",
      "blockNumber": 109389,
      "transactionIndex": 1,
      "confirmations": null,
      "from": "0xD0317e8d007a61B8d740516E8a268D4faDADccbF",
      "gasPrice": {
        "_hex": "0xcb7a91f17"
      },
      "gasLimit": {
        "_hex": "0x15f90"
      },
      "to": "0xdeE4977F74E6Aef6D627191c9A45D2627e331150",
      "value": {
        "_hex": "0xd02ab486cedc0000"
      },
      "nonce": 9,
      "data": "0x",
      "r": "0x5257c8b8fed7aff0bd1f752cce92692258f6a2bb62a7f43f1cf973afa0499b64",
      "s": "0x6b8ecbdf4dd4cc8985b31d496228667a2d61b4ca84364ced977cb6a0e0787316",
      "v": 27,
      "creates": null,
      "raw": "0xf86d09850cb7a91f1783015f9094dee4977f74e6aef6d627191c9a45d2627e33115088d02ab486cedc0000801ba05257c8b8fed7aff0bd1f752cce92692258f6a2bb62a7f43f1cf973afa0499b64a06b8ecbdf4dd4cc8985b31d496228667a2d61b4ca84364ced977cb6a0e0787316",
      "networkId": 0,
      "chainId": 0
    }
  ]
}