{
  "hash": "0x9c19dbc4cc9ede1cd98fde0cc42f7a132cc6c58c0ebc33c11d3a968ebfd187ad",
  "parentHash": "0x333567cff28ae81d7aa4df1ff6547ea87c4cc1b4f77cc357871c550218b89930",
  "number": 96534,
  "timestamp": 1439741821,
  "nonce": "0x7b7dbb3c88158d01",
  "difficulty": 3685324028898,
  "gasLimit": {
    "_hex": "0x2fefd8"
  },
  "gasUsed": {
    "_hex": "0x5208"
  },
  "miner": "0xf927a40C8B7F6E07c5af7FA2155B4864a4112B13",
  "extraData": "0x",
  "transactions": [
    {
      "hash": "0x75ce7be1ad5fe3307fcf01ef3fe3310162a4f56e03ee8f476e981df89377da9d",
      "blockHash": "0x9c19dbc4cc9ede1cd98fde0cc42f7a132cc6c58c0ebc33c11d3a968ebfd187ad",
      "blockNumber": 96534,
      "transactionIndex": 0,
      "confirmations": null,
      "from": "0x2910543Af39abA0Cd09dBb2D50200b3E800A63D2",
      "gasPrice": {
        "_hex": "0xd2719776c"
      },
      "gasLimit": {
        "_hex": "0x5208"
      },
      "to": "0xA143616A882230de7571d01f1916F0A781d6480a",
      "value": {
        "_hex": "0x4f9485eabaa98f8000"
      },
      "nonce": 909,
      "data": "0x",
      "r": "0xd0386ef7a92c81b629725251b5c48d9d14460f929ac36774f542280f49ade4bd",
      "s": "0x243dd47a4e228fbc117a07e22be29873296a429a8841b490d732115eddd9f2fa",
      "v": 27,
      "creates": null,
      "raw": "0xf86f82038d850d2719776c82520894a143616a882230de7571d01f1916f0a781d6480a894f9485eabaa98f8000801ba0d0386ef7a92c81b629725251b5c48d9d14460f929ac36774f542280f49ade4bda0243dd47a4e228fbc117a07e22be29873296a429a8841b490d732115eddd9f2fa",
      "networkId": 0,
      "chainId": 0
    }
  ]
}