{
  "hash": "0x7c324bf7122d420c2cd9b45873a94876b87a78f6b2652194765f3cda3649ac85",
  "parentHash": "0xc11a5b190cc1d61bb042e6cee0ed47d778ae101c60213b20479d0d4b9da4e81c",
  "number": 93776,
  "timestamp": 1439697517,
  "nonce": "0xf526a26d3a7859a4",
  "difficulty": 3429524432598,
  "gasLimit": {
    "_hex": "0x2fefd8"
  },
  "gasUsed": {
    "_hex": "0x520c"
  },
  "miner": "0x76d4a9bc9612bE738A81d0fE632b00B971E2bB9a",
  "extraData": "0x",
  "transactions": [
    {
      "hash": "0x44d36ed90ef551b9d875d67dad74b7844b645d7f4b5913632170befc13e705d4",
      "blockHash": "0x7c324bf7122d420c2cd9b45873a94876b87a78f6b2652194765f3cda3649ac85",
      "blockNumber": 93776,
      "transactionIndex": 0,
      "confirmations": null,
      "from": "0x8375eA550366a24550ec93283600485F4Ba8CFE5",
      "gasPrice": {
        "_hex": "0xe3fb9b656"
      },
      "gasLimit": {
        "_hex": "0x7530"
      },
      "to": "0xb9836ec1f42Bd48331bceaedb74a6Bcdc22832bD",
      "value": {
        "_hex": "0x38d7ea4c68000"
      },
      "nonce": 12,
      "data": "0x00",
      "r": "0x93819de8f31939cc3aeffc9024b92a4a2fbbe40dbce715e18ec887cea4c9f763",
      "s": "0xcdc7254bc11c97b204ff422abe642efb93ac8f4bbd4a46100416220f6ebcbd40",
      "v": 28,
      "creates": null,
      "raw": "0xf86b0c850e3fb9b65682753094b9836ec1f42bd48331bceaedb74a6bcdc22832bd87038d7ea4c68000001ca093819de8f31939cc3aeffc9024b92a4a2fbbe40dbce715e18ec887cea4c9f763a0cdc7254bc11c97b204ff422abe642efb93ac8f4bbd4a46100416220f6ebcbd40",
      "networkId": 0,
      "chainId": 0
    }
  ]
}