{
  "hash": "0x16739867222b9722a575cf63dd9a4a4b7799c5f1f97c2e612065cbe8840dc775",
  "parentHash": "0xa6584848c565dca9636b50359400323296d7d80a42622d5e05d71f5ad01a5cf7",
  "number": 59098,
  "timestamp": 1439131932,
  "nonce": "0x4efb95ab94d9b539",
  "difficulty": 1716464110033,
  "gasLimit": {
    "_hex": "0x2fe3db"
  },
  "gasUsed": {
    "_hex": "0x5208"
  },
  "miner": "0xf927a40C8B7F6E07c5af7FA2155B4864a4112B13",
  "extraData": "0x476574682f76312e302e312f6c696e75782f676f312e342e32",
  "transactions": [
    {
      "hash": "0xb35b0eff3cd3c00fab29cdc782d40ee4aff7e70b56ab8cade87025624ab1cc13",
      "blockHash": "0x16739867222b9722a575cf63dd9a4a4b7799c5f1f97c2e612065cbe8840dc775",
      "blockNumber": 59098,
      "transactionIndex": 0,
      "confirmations": null,
      "from": "0x320e69e693Df6C1476c13836CDBE2F6E5dEf83A1",
      "gasPrice": {
        "_hex": "0xd56b3daf6"
      },
      "gasLimit": {
        "_hex": "0x15f90"
      },
      "to": "0x80F60E0837d10aE93ae63C7Dd87A13fc3984126d",
      "value": {
        "_hex": "0x2386f26fc10000"
      },
      "nonce": 6,
      "data": "0x",
      "r": "0xe4613253f53acb0a23cdc0857e7d362e054f3ba65b13ddff40c224868730bf4e",
      "s": "0x410bb9fb0b55f3daa31ee853103a0bc2307d3803faaa1a22befa248fcfd4db7d",
      "v": 27,
      "creates": null,
      "raw": "0xf86c06850d56b3daf683015f909480f60e0837d10ae93ae63c7dd87a13fc3984126d872386f26fc10000801ba0e4613253f53acb0a23cdc0857e7d362e054f3ba65b13ddff40c224868730bf4ea0410bb9fb0b55f3daa31ee853103a0bc2307d3803faaa1a22befa248fcfd4db7d",
      "networkId": 0,
      "chainId": 0
    }
  ]
}