{
  "hash": "0x9716504fe81a52e0460bb1d30eb342bfe454eb8763ad8d5f38f8a205a162df32",
  "parentHash": "0xd13f874a3f937bc30693442e361d40d33570e076d7a7c88b4e3cef753e7be5a0",
  "number": 65190,
  "timestamp": 1439232668,
  "nonce": "0xf548f7a4eafdb627",
  "difficulty": 1945495643649,
  "gasLimit": {
    "_hex": "0x2fefd8"
  },
  "gasUsed": {
    "_hex": "0x17cd8"
  },
  "miner": "0xe6A7a1d47ff21B6321162AEA7C6CB457D5476Bca",
  "extraData": "0x476574682f76312e302e312f6c696e75782f676f312e342e32",
  "transactions": [
    {
      "hash": "0xdec83510e4954e957ed69ea45b5008f9623406e773abf9cbb18e72ed80b8f088",
      "blockHash": "0x9716504fe81a52e0460bb1d30eb342bfe454eb8763ad8d5f38f8a205a162df32",
      "blockNumber": 65190,
      "transactionIndex": 0,
      "confirmations": null,
      "from": "0xA6dca0416a3D0F89A99328eD355c8EA39ea1780A",
      "gasPrice": {
        "_hex": "0xba43b7400"
      },
      "gasLimit": {
        "_hex": "0x15f90"
      },
      "to": "0x793AE8C1b1a160BFc07BFB0d04F85eab1A71F4f2",
      "value": {
        "_hex": "0x0"
      },
      "nonce": 0,
      "data": "0x3ba15036",
      "r": "0xc3b052ecee53fcfa66c48002bf51119f121435811f464922829a1b73e1f05b7c",
      "s": "0x4cb676d4e9f21cd6e3dcf30ff8e9a4641354c24e1eaac6faad03289b9aa29560",
      "v": 28,
      "creates": null,
      "raw": "0xf86980850ba43b740083015f9094793ae8c1b1a160bfc07bfb0d04f85eab1a71f4f280843ba150361ca0c3b052ecee53fcfa66c48002bf51119f121435811f464922829a1b73e1f05b7ca04cb676d4e9f21cd6e3dcf30ff8e9a4641354c24e1eaac6faad03289b9aa29560",
      "networkId": 0,
      "chainId": 0
    },
    {
      "hash": "0x5cc2df1310fb24f85299a4d1fe7309ee02928f696e86e28363c51826c5c56845",
      "blockHash": "0x9716504fe81a52e0460bb1d30eb342bfe454eb8763ad8d5f38f8a205a162df32",
      "blockNumber": 65190,
      "transactionIndex": 1,
      "confirmations": null,
      "from": "0x86b428854f09314aee20Bf68D2C537f2263617E6",
      "gasPrice": {
        "_hex": "0xba43b7400"
      },
      "gasLimit": {
        "_hex": "0x15f90"
      },
      "to": "0x793AE8C1b1a160BFc07BFB0d04F85eab1A71F4f2",
      "value": {
        "_hex": "0x0"
      },
      "nonce": 0,
      "data": "0x3ba15036",
      "r": "0x2aef046b8afe87ae09b3d8c46dca4cab782f87e0915f50853b7cc61cf8df7132",
      "s": "0x2d2dd6a2845ca4258953964ebf70e00b6cee3f48ea7d3a2cec9fe06929c677d5",
      "v": 28,
      "creates": null,
      "raw": "0xf86980850ba43b740083015f9094793ae8c1b1a160bfc07bfb0d04f85eab1a71f4f280843ba150361ca02aef046b8afe87ae09b3d8c46dca4cab782f87e0915f50853b7cc61cf8df7132a02d2dd6a2845ca4258953964ebf70e00b6cee3f48ea7d3a2cec9fe06929c677d5",
      "networkId": 0,
      "chainId": 0
    }
  ]
}