{
  "hash": "0xbff3aa98aa8c5e2e27c0f575d8814f3084ad1275c0e63bd62a7ebf2dcb595b44",
  "parentHash": "0xb3c86b497a6956d812c01734bce99802b913f8978230b352f08210405e6581fa",
  "number": 89450,
  "timestamp": 1439623700,
  "nonce": "0xdf9584f59c247f39",
  "difficulty": 3303066769839,
  "gasLimit": {
    "_hex": "0x2fefd8"
  },
  "gasUsed": {
    "_hex": "0x5208"
  },
  "miner": "0x34c77D0da441612D3fE5860b7FA35Be66D5084A3",
  "extraData": "0x476574682f6b656c6c792f76312e302e312d39613032663533372f6c696e7578",
  "transactions": [
    {
      "hash": "0xde54062447ae391faefa5b2ff798b030305f041ae2ece3e3fc4b3d14b92dcaed",
      "blockHash": "0xbff3aa98aa8c5e2e27c0f575d8814f3084ad1275c0e63bd62a7ebf2dcb595b44",
      "blockNumber": 89450,
      "transactionIndex": 0,
      "confirmations": null,
      "from": "0x9eDef03C73bf73CA99d5a51a0A08763fF1Cea877",
      "gasPrice": {
        "_hex": "0xd491eb4cc"
      },
      "gasLimit": {
        "_hex": "0x5208"
      },
      "to": "0x32Be343B94f860124dC4fEe278FDCBD38C102D88",
      "value": {
        "_hex": "0x4219164e3f85c0000"
      },
      "nonce": 0,
      "data": "0x",
      "r": "0xc944651cfb2c7714fdc48b50bc9bacf654651c2d8588ec6a167b68880f8ec013",
      "s": "0x4664dbe6ecc77c1a2ce1e37a5a144620665c3151626b8636a9b6e44b7444d128",
      "v": 27,
      "creates": null,
      "raw": "0xf86d80850d491eb4cc8252089432be343b94f860124dc4fee278fdcbd38c102d888904219164e3f85c0000801ba0c944651cfb2c7714fdc48b50bc9bacf654651c2d8588ec6a167b68880f8ec013a04664dbe6ecc77c1a2ce1e37a5a144620665c3151626b8636a9b6e44b7444d128",
      "networkId": 0,
      "chainId": 0
    }
  ]
}