{
  "hash": "0x9b5c09503b65c03e64ed4712c090acd717e9b46090a81a28bc6121faee4bd850",
  "parentHash": "0xfb2a341cd71f940a08b3ac4590e24f426a6ec2ab814f2259d8f9d7fdd87b1fba",
  "number": 95722,
  "timestamp": 1439728569,
  "nonce": "0xfd96f193ef84badf",
  "difficulty": 3632084816152,
  "gasLimit": {
    "_hex": "0x2fefd8"
  },
  "gasUsed": {
    "_hex": "0x5208"
  },
  "miner": "0x55bAf64fc9eAccFFd7Cc643BB61142E1C6ac093e",
  "extraData": "0x",
  "transactions": [
    {
      "hash": "0x876b891a9cef86eedf05018466a2186008b5b7b941e746cf39a86cd06ec1418b",
      "blockHash": "0x9b5c09503b65c03e64ed4712c090acd717e9b46090a81a28bc6121faee4bd850",
      "blockNumber": 95722,
      "transactionIndex": 0,
      "confirmations": null,
      "from": "0x7e438f91d967E175a700EfBD9A471f4724449dcd",
      "gasPrice": {
        "_hex": "0xd5a86fc40"
      },
      "gasLimit": {
        "_hex": "0x15f90"
      },
      "to": "0xf2cC0eEAAAeD313542CB262B0B8c3972425143f0",
      "value": {
        "_hex": "0x45400a8fd5330000"
      },
      "nonce": 2,
      "data": "0x",
      "r": "0x4589e037aa91383bc3319ef0f23808d202f06fe497ad5e88cb66d3595fc5ee1e",
      "s": "0x792681ba7d90f223b4276f06036542d2cb42cc343f669085b139cfb912ed070b",
      "v": 28,
      "creates": null,
      "raw": "0xf86d02850d5a86fc4083015f9094f2cc0eeaaaed313542cb262b0b8c3972425143f08845400a8fd5330000801ca04589e037aa91383bc3319ef0f23808d202f06fe497ad5e88cb66d3595fc5ee1ea0792681ba7d90f223b4276f06036542d2cb42cc343f669085b139cfb912ed070b",
      "networkId": 0,
      "chainId": 0
    }
  ]
}