{
  "hash": "0x43a469a1adbd94cbae6807fe3ce2de4035ec9c3320dc9094a0174d39a6e1e572",
  "parentHash": "0x46043c3e5b8e69e8bd269a1200d512764705164a4b1061ac8bd7cc1e261ed4f4",
  "number": 65766,
  "timestamp": 1439242520,
  "nonce": "0xc642502ad691efc2",
  "difficulty": 1952975994063,
  "gasLimit": {
    "_hex": "0x2fefd8"
  },
  "gasUsed": {
    "_hex": "0x5208"
  },
  "miner": "0x123843545FB525C8E134c9A5F15ADA6865cc3848",
  "extraData": "0x476574682f76312e302e312f77696e646f77732f676f312e342e32",
  "transactions": [
    {
      "hash": "0x38d44b4ae1a184ba71b0558485da54b7060c7f83b1769ade696549590c382396",
      "blockHash": "0x43a469a1adbd94cbae6807fe3ce2de4035ec9c3320dc9094a0174d39a6e1e572",
      "blockNumber": 65766,
      "transactionIndex": 0,
      "confirmations": null,
      "from": "0xE39B4869A938DB56F372ec7e9DC8750B2C6dCE58",
      "gasPrice": {
        "_hex": "0xd460ca5e3"
      },
      "gasLimit": {
        "_hex": "0x5208"
      },
      "to": "0x32Be343B94f860124dC4fEe278FDCBD38C102D88",
      "value": {
        "_hex": "0x799656f688cf8c0000"
      },
      "nonce": 0,
      "data": "0x",
      "r": "0xaa50aa1253592ebb9e0af5b79b4643a2ef2d17384cdc30ba9c974665685f1f78",
      "s": "0x4519042ee195cca4effb99c4431aef8e195e335f1ca89c35db96cf06daf85dd8",
      "v": 27,
      "creates": null,
      "raw": "0xf86d80850d460ca5e38252089432be343b94f860124dc4fee278fdcbd38c102d8889799656f688cf8c0000801ba0aa50aa1253592ebb9e0af5b79b4643a2ef2d17384cdc30ba9c974665685f1f78a04519042ee195cca4effb99c4431aef8e195e335f1ca89c35db96cf06daf85dd8",
      "networkId": 0,
      "chainId": 0
    }
  ]
}