{
  "hash": "0xf79528c55054b9a9425537b23be4744551cb2c4b047ee09b57e43a2c84aa0a70",
  "parentHash": "0x0510161ae26fd8f2fa283fc9080692db27b790d5ba99c6513573291c78365c7d",
  "number": 115854,
  "timestamp": 1440064516,
  "nonce": "0xd52acca3c465759d",
  "difficulty": 4553620060584,
  "gasLimit": {
    "_hex": "0x2fefd8"
  },
  "gasUsed": {
    "_hex": "0xf87c"
  },
  "miner": "0x52bc44d5378309EE2abF1539BF71dE1b7d7bE3b5",
  "extraData": "0x476574682f76312e302e312d65626434373230372f6c696e75782f676f312e34",
  "transactions": [
    {
      "hash": "0xd5927a9ce2cdece1fd4eab6cfbfe57928bfba65cdf33d47b9e3d686ffb5e390d",
      "blockHash": "0xf79528c55054b9a9425537b23be4744551cb2c4b047ee09b57e43a2c84aa0a70",
      "blockNumber": 115854,
      "transactionIndex": 0,
      "confirmations": null,
      "from": "0x4258fD662fc4Ce3295f0d4Ed8F7BB1449600A0A9",
      "gasPrice": {
        "_hex": "0x110c8f7d8de"
      },
      "gasLimit": {
        "_hex": "0xc350"
      },
      "to": "0x2910543Af39abA0Cd09dBb2D50200b3E800A63D2",
      "value": {
        "_hex": "0x3635c9adc5dea00000"
      },
      "nonce": 2,
      "data": "0x454e4d564533555730",
      "r": "0x259372e5101d29e494cf3aabb934937f6ac415bb632aa4daad8228148cf0c4f4",
      "s": "0x752f955f394c55441da1221457ab37056be6c9a3f9c07e282287f414fe75100f",
      "v": 28,
      "creates": null,
      "raw": "0xf87702860110c8f7d8de82c350942910543af39aba0cd09dbb2d50200b3e800a63d2893635c9adc5dea0000089454e4d5645335557301ca0259372e5101d29e494cf3aabb934937f6ac415bb632aa4daad8228148cf0c4f4a0752f955f394c55441da1221457ab37056be6c9a3f9c07e282287f414fe75100f",
      "networkId": 0,
      "chainId": 0
    },
    {
      "hash": "0x8e793c3c9d56b05670f002cedb218ae75e444b242b20d50434baa3df2761c3c8",
      "blockHash": "0xf79528c55054b9a9425537b23be4744551cb2c4b047ee09b57e43a2c84aa0a70",
      "blockNumber": 115854,
      "transactionIndex": 1,
      "confirmations": null,
      "from": "0xed433C980AaED4E749B3229F3993BfB2840f2433",
      "gasPrice": {
        "_hex": "0xba43b7400"
      },
      "gasLimit": {
        "_hex": "0x5208"
      },
      "to": "0xC47Aaa860008be6f65B58c6C6E02a84e666EfE31",
      "value": {
        "_hex": "0x2fb1ffeae59b76000"
      },
      "nonce": 5,
      "data": "0x",
      "r": "0x84a53d71dde36cec943dfe9e8f60bac8782e3c5c87636908db4c377147f5ca01",
      "s": "0x2da2312939c72eaae64ff6f6dcb88137b7a018664fa2dd1650c5433dc33eeca1",
      "v": 27,
      "creates": null,
      "raw": "0xf86d05850ba43b740082520894c47aaa860008be6f65b58c6c6e02a84e666efe318902fb1ffeae59b76000801ba084a53d71dde36cec943dfe9e8f60bac8782e3c5c87636908db4c377147f5ca01a02da2312939c72eaae64ff6f6dcb88137b7a018664fa2dd1650c5433dc33eeca1",
      "networkId": 0,
      "chainId": 0
    },
    {
      "hash": "0x934e34bed074a0457caf885883ea3188ff38fc96f4a668d4552cd4ab9e87477c",
      "blockHash": "0xf79528c55054b9a9425537b23be4744551cb2c4b047ee09b57e43a2c84aa0a70",
      "blockNumber": 115854,
      "transactionIndex": 2,
      "confirmations": null,
      "from": "0xAAc7c655830b2fF580BDFEa1a416E5efAfAb3291",
      "gasPrice": {
        "_hex": "0xba43b7400"
      },
      "gasLimit": {
        "_hex": "0x5208"
      },
      "to": "0xC47Aaa860008be6f65B58c6C6E02a84e666EfE31",
      "value": {
        "_hex": "0x27057207e6c8ce400"
      },
      "nonce": 3,
      "data": "0x",
      "r": "0x45ffe6df53402a87355d77b5f8b7457e1d8bf2d0aba7b85e074eda74bfce1f8a",
      "s": "0x3131840f1a751ca195e5571996e679b647053e41841dfa6f5f1b6fca7775c393",
      "v": 28,
      "creates": null,
      "raw": "0xf86d03850ba43b740082520894c47aaa860008be6f65b58c6c6e02a84e666efe3189027057207e6c8ce400801ca045ffe6df53402a87355d77b5f8b7457e1d8bf2d0aba7b85e074eda74bfce1f8aa03131840f1a751ca195e5571996e679b647053e41841dfa6f5f1b6fca7775c393",
      "networkId": 0,
      "chainId": 0
    }
  ]
}