{
  "hash": "0x0deac210951757b622b128fae482a7d5ab1c10a70f353a659b3254da5c7e9bc1",
  "parentHash": "0x311dd130e197fbb810c13973583ca4fe530f30fb2575759a947e3e06386c3ad6",
  "number": 90410,
  "timestamp": 1439639576,
  "nonce": "0x1b46e92e0525fa64",
  "difficulty": 3338358130845,
  "gasLimit": {
    "_hex": "0x2fefd8"
  },
  "gasUsed": {
    "_hex": "0xf618"
  },
  "miner": "0x2C674A948592B20a4B775E1a3991Db043E6CF0FE",
  "extraData": "0x476574682f76312e302e312d38326566323666362f6c696e75782f676f312e34",
  "transactions": [
    {
      "hash": "0xd60d054c613c2deeb7b0f1a99259caa4b8b49670ff13fddd696019ce9b70f0c5",
      "blockHash": "0x0deac210951757b622b128fae482a7d5ab1c10a70f353a659b3254da5c7e9bc1",
      "blockNumber": 90410,
      "transactionIndex": 0,
      "confirmations": null,
      "from": "0xACAB9A83F47D28Fdc1d12772A0B571f80444b5DD",
      "gasPrice": {
        "_hex": "0xd7d40ace3"
      },
      "gasLimit": {
        "_hex": "0x7a120"
      },
      "to": "0x19939AD9F09d103B670c9EE56cA41d5764380f8A",
      "value": {
        "_hex": "0xe6ed27d66680000"
      },
      "nonce": 2,
      "data": "0x",
      "r": "0x133da3f07db56497f86bdf2fe1eda07e668ddfe74abc3a5d665f1063740e9fa5",
      "s": "0x6ea70adc2de42be19c78dea3365ef88ec6c206f1fe7e595b0928addaf97fb759",
      "v": 28,
      "creates": null,
      "raw": "0xf86d02850d7d40ace38307a1209419939ad9f09d103b670c9ee56ca41d5764380f8a880e6ed27d66680000801ca0133da3f07db56497f86bdf2fe1eda07e668ddfe74abc3a5d665f1063740e9fa5a06ea70adc2de42be19c78dea3365ef88ec6c206f1fe7e595b0928addaf97fb759",
      "networkId": 0,
      "chainId": 0
    },
    {
      "hash": "0x0dc855eafb3e5dadcca3608a538a29d023d6cf9b75721a1f7cf39aee9cdaf3db",
      "blockHash": "0x0deac210951757b622b128fae482a7d5ab1c10a70f353a659b3254da5c7e9bc1",
      "blockNumber": 90410,
      "transactionIndex": 1,
      "confirmations": null,
      "from": "0xb9289C79cE6fc22568e67658e65058ea1236d0E8",
      "gasPrice": {
        "_hex": "0xd4afe8168"
      },
      "gasLimit": {
        "_hex": "0x5208"
      },
      "to": "0x32Be343B94f860124dC4fEe278FDCBD38C102D88",
      "value": {
        "_hex": "0x100b8f18b4bdf8000"
      },
      "nonce": 0,
      "data": "0x",
      "r": "0x5d40a558f983d10211270c9c96c540fcbcdffef04d5b686eddd26a118a5b99ac",
      "s": "0x37f8bf0da471523d74c673797978f118fd02fdacdb6ee3d82afe5e8d80174e0a",
      "v": 27,
      "creates": null,
      "raw": "0xf86d80850d4afe81688252089432be343b94f860124dc4fee278fdcbd38c102d88890100b8f18b4bdf8000801ba05d40a558f983d10211270c9c96c540fcbcdffef04d5b686eddd26a118a5b99aca037f8bf0da471523d74c673797978f118fd02fdacdb6ee3d82afe5e8d80174e0a",
      "networkId": 0,
      "chainId": 0
    },
    {
      "hash": "0xc144b35788a0610899ca81a8f7b54771110f591f32d84f9a14d207d7a1f273cd",
      "blockHash": "0x0deac210951757b622b128fae482a7d5ab1c10a70f353a659b3254da5c7e9bc1",
      "blockNumber": 90410,
      "transactionIndex": 2,
      "confirmations": null,
      "from": "0x95A466C2ba3A392003E9ef63F4442236C6E1B40E",
      "gasPrice": {
        "_hex": "0xd4afe8168"
      },
      "gasLimit": {
        "_hex": "0x5208"
      },
      "to": "0x32Be343B94f860124dC4fEe278FDCBD38C102D88",
      "value": {
        "_hex": "0x8ac2eabf48fb4000"
      },
      "nonce": 1,
      "data": "0x",
      "r": "0xf823a79599b012e173e9ff725bf53174b95808205d6d09c6bef77c4ee921364b",
      "s": "0x316c4c28e262ad969d3a5dee68e9e76a563fbe431ec1bbcb01790ad53541a61a",
      "v": 28,
      "creates": null,
      "raw": "0xf86c01850d4afe81688252089432be343b94f860124dc4fee278fdcbd38c102d88888ac2eabf48fb4000801ca0f823a79599b012e173e9ff725bf53174b95808205d6d09c6bef77c4ee921364ba0316c4c28e262ad969d3a5dee68e9e76a563fbe431ec1bbcb01790ad53541a61a",
      "networkId": 0,
      "chainId": 0
    }
  ]
}