{
  "hash": "0x07adbfcfe1c60cbe175bba6414cb4c6cfc736b3e70b67d641235999b9a527b31",
  "parentHash": "0xbcbda8222ecd556ae7de3708b3986aa948e0dc47b9dfb65ff72d06bd9633c494",
  "number": 62162,
  "timestamp": 1439184205,
  "nonce": "0x97a04a1b28ac5732",
  "difficulty": 1770303799585,
  "gasLimit": {
    "_hex": "0x2fe3de"
  },
  "gasUsed": {
    "_hex": "0x546c"
  },
  "miner": "0xd0DF24FD0DfcDc3850D1590dAA1D03ca7706b11B",
  "extraData": "0x476574682f76312e302e302f77696e646f77732f676f312e342e32",
  "transactions": [
    {
      "hash": "0x116af65b2b56209a230eb9ae6c38cb5c0f613a17b892f213df3c07136aac3d1c",
      "blockHash": "0x07adbfcfe1c60cbe175bba6414cb4c6cfc736b3e70b67d641235999b9a527b31",
      "blockNumber": 62162,
      "transactionIndex": 0,
      "confirmations": null,
      "from": "0xE2EE691F237Ee6529B6557F2fCDd3dCF0C59ec63",
      "gasPrice": {
        "_hex": "0x110c8f7d8de"
      },
      "gasLimit": {
        "_hex": "0xc350"
      },
      "to": "0x2910543Af39abA0Cd09dBb2D50200b3E800A63D2",
      "value": {
        "_hex": "0x1276410d5f5ef840000"
      },
      "nonce": 0,
      "data": "0x454e363648554b3747",
      "r": "0x65ed75294bc1eb88c6cdfd9d31fca0389f32a58e8f044894f25398813a92274c",
      "s": "0xc4703e11f08adc9d67446deb9e1360e3227652e6206c38a2d9a336ac52e5c492",
      "v": 28,
      "creates": null,
      "raw": "0xf87880860110c8f7d8de82c350942910543af39aba0cd09dbb2d50200b3e800a63d28a01276410d5f5ef84000089454e363648554b37471ca065ed75294bc1eb88c6cdfd9d31fca0389f32a58e8f044894f25398813a92274ca0c4703e11f08adc9d67446deb9e1360e3227652e6206c38a2d9a336ac52e5c492",
      "networkId": 0,
      "chainId": 0
    }
  ]
}