{
  "hash": "0xb80bdab4b79292000fe36537c43b065774f06a72df26421f91d4f0f68e044afe",
  "parentHash": "0xa887fc4a9cc77a3dec46882b4d74091531598ca4dfc22aeb34c5aa1d80ec047b",
  "number": 82270,
  "timestamp": 1439516413,
  "nonce": "0x3a31d30a726b8f42",
  "difficulty": 2381146889479,
  "gasLimit": {
    "_hex": "0x2fefd8"
  },
  "gasUsed": {
    "_hex": "0x5208"
  },
  "miner": "0xe6A7a1d47ff21B6321162AEA7C6CB457D5476Bca",
  "extraData": "0x476574682f76312e302e312d38326566323666362f6c696e75782f676f312e34",
  "transactions": [
    {
      "hash": "0x1d6f74c9dcbf496abd8c247b95cb92c493887c0df5ef3dbbf08e6c028f497e82",
      "blockHash": "0xb80bdab4b79292000fe36537c43b065774f06a72df26421f91d4f0f68e044afe",
      "blockNumber": 82270,
      "transactionIndex": 0,
      "confirmations": null,
      "from": "0x1D3ffA437e5bce40fCC134f4E0ac62841E4A9E81",
      "gasPrice": {
        "_hex": "0xba43b7400"
      },
      "gasLimit": {
        "_hex": "0x5208"
      },
      "to": "0xC47Aaa860008be6f65B58c6C6E02a84e666EfE31",
      "value": {
        "_hex": "0x3a45aac72b911dc0"
      },
      "nonce": 1,
      "data": "0x",
      "r": "0x7ca5e0d971bd65148f8c498ed6586684e8639aeb69c93cf7bda6208beba4f9e0",
      "s": "0x59a0d4bcd0852f93cfc62db7c5b924070079b4604e09b8a646198223398ce5ff",
      "v": 28,
      "creates": null,
      "raw": "0xf86c01850ba43b740082520894c47aaa860008be6f65b58c6c6e02a84e666efe31883a45aac72b911dc0801ca07ca5e0d971bd65148f8c498ed6586684e8639aeb69c93cf7bda6208beba4f9e0a059a0d4bcd0852f93cfc62db7c5b924070079b4604e09b8a646198223398ce5ff",
      "networkId": 0,
      "chainId": 0
    }
  ]
}