{
  "hash": "0xf3ee0062322db1f4f77f7b7644e36dff4c09d2611f5ec679043ecb9e7c5181c8",
  "parentHash": "0xa537eb9acd820cb63dbd0646653e7c14af34328610931c76c35688c546d47b43",
  "number": 74218,
  "timestamp": 1439382527,
  "nonce": "0xf7351d3655c290af",
  "difficulty": 2212943158396,
  "gasLimit": {
    "_hex": "0x2fefd5"
  },
  "gasUsed": {
    "_hex": "0x5208"
  },
  "miner": "0xf927a40C8B7F6E07c5af7FA2155B4864a4112B13",
  "extraData": "0x",
  "transactions": [
    {
      "hash": "0x560b8fb041c1878813ffc231a3ff7a9e5f9ac4344a6257e5d0209c8e5bfe6ff8",
      "blockHash": "0xf3ee0062322db1f4f77f7b7644e36dff4c09d2611f5ec679043ecb9e7c5181c8",
      "blockNumber": 74218,
      "transactionIndex": 0,
      "confirmations": null,
      "from": "0x2dd8Eeef87194Abc2Ce7585da1E35B7CEa780Cb7",
      "gasPrice": {
        "_hex": "0xcba3a4f50"
      },
      "gasLimit": {
        "_hex": "0x15f90"
      },
      "to": "0xd6a456c0d46f7a8404f662bBEc6BA7da6252F503",
      "value": {
        "_hex": "0xad78ebc5ac6200000"
      },
      "nonce": 4,
      "data": "0x",
      "r": "0xbb4a1a7af53937ac373a7ac91dcb075d86ed08f382bcd58638e5594f7cde6ef8",
      "s": "0x61aa5526e8e2c0e8c3a98b391acc2259e7879f20fb29c24faf54b844c7ac0a7c",
      "v": 28,
      "creates": null,
      "raw": "0xf86e04850cba3a4f5083015f9094d6a456c0d46f7a8404f662bbec6ba7da6252f503890ad78ebc5ac6200000801ca0bb4a1a7af53937ac373a7ac91dcb075d86ed08f382bcd58638e5594f7cde6ef8a061aa5526e8e2c0e8c3a98b391acc2259e7879f20fb29c24faf54b844c7ac0a7c",
      "networkId": 0,
      "chainId": 0
    }
  ]
}