{
  "hash": "0x5c9f1b3945168428d5c1dcd1f01515a1b897c54ee7bdd050151f1f50d9f96266",
  "parentHash": "0x283e7a4c4d03fdbabd852cab1920eb17cdb07d07a03ff1d1793046405d86c958",
  "number": 83457,
  "timestamp": 1439535668,
  "nonce": "0x6e4fb13733c2929c",
  "difficulty": 2433701658391,
  "gasLimit": {
    "_hex": "0x2fefd8"
  },
  "gasUsed": {
    "_hex": "0x546c"
  },
  "miner": "0xbb7B8287f3F0a933474a79eAe42CBCa977791171",
  "extraData": "0x476574682f4c5649562f76312e302e312f6c696e75782f676f312e342e32",
  "transactions": [
    {
      "hash": "0xf2e7685648fb951c15b79a1493127d0c50fad6e80664e596e9f7a1676054995a",
      "blockHash": "0x5c9f1b3945168428d5c1dcd1f01515a1b897c54ee7bdd050151f1f50d9f96266",
      "blockNumber": 83457,
      "transactionIndex": 0,
      "confirmations": null,
      "from": "0xc239aBdfAe3e9Af5457F52Ed2B91FD0aB4d9C700",
      "gasPrice": {
        "_hex": "0x110c8f7d8de"
      },
      "gasLimit": {
        "_hex": "0xc350"
      },
      "to": "0x2910543Af39abA0Cd09dBb2D50200b3E800A63D2",
      "value": {
        "_hex": "0x1b1ae4d6e2ef500000"
      },
      "nonce": 1,
      "data": "0x454e33435043594430",
      "r": "0xf6681c9284045d0f9233e5417ef95507510cefdeb896f951643f6d2a979f13f3",
      "s": "0x07c883d909c999e5e73f8ee26a36ca74ff13173b1af0880519e1133cb8f60635",
      "v": 28,
      "creates": null,
      "raw": "0xf87701860110c8f7d8de82c350942910543af39aba0cd09dbb2d50200b3e800a63d2891b1ae4d6e2ef50000089454e334350435944301ca0f6681c9284045d0f9233e5417ef95507510cefdeb896f951643f6d2a979f13f3a007c883d909c999e5e73f8ee26a36ca74ff13173b1af0880519e1133cb8f60635",
      "networkId": 0,
      "chainId": 0
    }
  ]
}