{
  "hash": "0x7bccee0adb6d0b2ceed3abb3fe431f789305c6c506751dc0afb049eebddcaf3b",
  "parentHash": "0xc825b8f3da398dfa72ba2eccab50d412a3354121a49d28c45aeb41042a068183",
  "number": 91791,
  "timestamp": 1439661571,
  "nonce": "0x07bb9ce416d7a20e",
  "difficulty": 3479255694495,
  "gasLimit": {
    "_hex": "0x2fefd8"
  },
  "gasUsed": {
    "_hex": "0x5208"
  },
  "miner": "0x19e83223b783b5c6673c06b06E093de7E85F3F87",
  "extraData": "0x",
  "transactions": [
    {
      "hash": "0x4435069e0efbe491406ed0aa2242b6f354eb8c943478d0e7e53a29e17e9bf96e",
      "blockHash": "0x7bccee0adb6d0b2ceed3abb3fe431f789305c6c506751dc0afb049eebddcaf3b",
      "blockNumber": 91791,
      "transactionIndex": 0,
      "confirmations": null,
      "from": "0x2095d52287e5272d654D7dD782CCb862AFF4d37c",
      "gasPrice": {
        "_hex": "0xda17c50b2"
      },
      "gasLimit": {
        "_hex": "0x5208"
      },
      "to": "0xD5eC7fec1F39ba7E58cDe6Abed1Dd4E530DAEF6e",
      "value": {
        "_hex": "0xf9ccd8a1c5080000"
      },
      "nonce": 0,
      "data": "0x",
      "r": "0xcbb45fb81a205c6f07817046f52d3eba584a9f93cae64d75fa57e90c8ae2a0f6",
      "s": "0x3c943f506681acabaede6b060588c56ff86a06d698cc1890f263f3fb35272832",
      "v": 28,
      "creates": null,
      "raw": "0xf86c80850da17c50b282520894d5ec7fec1f39ba7e58cde6abed1dd4e530daef6e88f9ccd8a1c5080000801ca0cbb45fb81a205c6f07817046f52d3eba584a9f93cae64d75fa57e90c8ae2a0f6a03c943f506681acabaede6b060588c56ff86a06d698cc1890f263f3fb35272832",
      "networkId": 0,
      "chainId": 0
    }
  ]
}