{
  "hash": "0x1db25e91af578cf8d614d9c2a85031a41e267735aa2de2f04d7714f81c50f110",
  "parentHash": "0xc959766e4d8eae4dcf9e77a7cce2b42c485b15ed55e944222742bd81b982d976",
  "number": 64255,
  "timestamp": 1439217697,
  "nonce": "0xff11616051fa5030",
  "difficulty": 1881250708333,
  "gasLimit": {
    "_hex": "0x2fefd5"
  },
  "gasUsed": {
    "_hex": "0x5208"
  },
  "miner": "0xf927a40C8B7F6E07c5af7FA2155B4864a4112B13",
  "extraData": "0x476574682f76312e302e312f6c696e75782f676f312e342e32",
  "transactions": [
    {
      "hash": "0x3345a2b78d974675a001ddd953229f11be4118371c680c3725d628cb2e46e438",
      "blockHash": "0x1db25e91af578cf8d614d9c2a85031a41e267735aa2de2f04d7714f81c50f110",
      "blockNumber": 64255,
      "transactionIndex": 0,
      "confirmations": null,
      "from": "0x32Be343B94f860124dC4fEe278FDCBD38C102D88",
      "gasPrice": {
        "_hex": "0xd2754dfbe"
      },
      "gasLimit": {
        "_hex": "0x5208"
      },
      "to": "0x4BD5f0Ee173C81d42765154865EE69361b6aD189",
      "value": {
        "_hex": "0x1b9de674df070000"
      },
      "nonce": 175,
      "data": "0x",
      "r": "0x53fe4e39f358541ddddfef52e9ca1f0558e4bc359d5b588e7ec0f7da9a125989",
      "s": "0x68e0919f4b870aeaae50dcf647ca9166e1d279ecffe65f189c5062ed7222a136",
      "v": 28,
      "creates": null,
      "raw": "0xf86d81af850d2754dfbe825208944bd5f0ee173c81d42765154865ee69361b6ad189881b9de674df070000801ca053fe4e39f358541ddddfef52e9ca1f0558e4bc359d5b588e7ec0f7da9a125989a068e0919f4b870aeaae50dcf647ca9166e1d279ecffe65f189c5062ed7222a136",
      "networkId": 0,
      "chainId": 0
    }
  ]
}