{
  "hash": "0x3e9c2c8fe016b0cf154d3fd0fe6d86d7d0d41c6458235aa03ac4c755d07915e9",
  "parentHash": "0x82d80067143a1b74ab9eaf169f36d25b3c157f0881dd58d65c60e7c8f8cee7a2",
  "number": 64790,
  "timestamp": 1439226311,
  "nonce": "0x6ed6ec33a0c0bf67",
  "difficulty": 1893109482133,
  "gasLimit": {
    "_hex": "0x2fefd8"
  },
  "gasUsed": {
    "_hex": "0xa410"
  },
  "miner": "0x88D74a59454F6cF3B51ef6b9136AFb6b9D405A88",
  "extraData": "0x476574682f76312e302e312d37666266393930632f6c696e75782f676f312e34",
  "transactions": [
    {
      "hash": "0x55e53728f100ef2be8c40ddd858f2a8fb8a6bd03f39f0d0c4a232b15f851aefe",
      "blockHash": "0x3e9c2c8fe016b0cf154d3fd0fe6d86d7d0d41c6458235aa03ac4c755d07915e9",
      "blockNumber": 64790,
      "transactionIndex": 0,
      "confirmations": null,
      "from": "0xffAdF482D806BBb6adA61Eea870862a234F0E7E2",
      "gasPrice": {
        "_hex": "0xba43b7400"
      },
      "gasLimit": {
        "_hex": "0x5208"
      },
      "to": "0x60BEBb5856800d824cc3D639c2F92F82e095247f",
      "value": {
        "_hex": "0x11e4ee79bf23000"
      },
      "nonce": 1,
      "data": "0x",
      "r": "0xaf2c7b3ff2a23a70e0af9ae812a0d59a6837bbc45065926d7082fbfe7db569ea",
      "s": "0x0c2903672ad323b1a041ad68d6dbe27723169022989f4215232438fec12731b6",
      "v": 27,
      "creates": null,
      "raw": "0xf86c01850ba43b74008252089460bebb5856800d824cc3d639c2f92f82e095247f88011e4ee79bf23000801ba0af2c7b3ff2a23a70e0af9ae812a0d59a6837bbc45065926d7082fbfe7db569eaa00c2903672ad323b1a041ad68d6dbe27723169022989f4215232438fec12731b6",
      "networkId": 0,
      "chainId": 0
    },
    {
      "hash": "0x5b8a18520acf2d8febdc792b2aaf82dd86810c45ab9851b3f473fd3cbec099f3",
      "blockHash": "0x3e9c2c8fe016b0cf154d3fd0fe6d86d7d0d41c6458235aa03ac4c755d07915e9",
      "blockNumber": 64790,
      "transactionIndex": 1,
      "confirmations": null,
      "from": "0x89472C5d1e5CA8356a96f6C9EBaB8a7C539cc1a8",
      "gasPrice": {
        "_hex": "0xba43b7400"
      },
      "gasLimit": {
        "_hex": "0x5208"
      },
      "to": "0x55d5779241b4bF93870DB124701AB0Aa78cEd5Ee",
      "value": {
        "_hex": "0x14c95414f131000"
      },
      "nonce": 1,
      "data": "0x",
      "r": "0x2a6dd9531b113cfb8190ca00782872e177bb192b0b7956ccf8fcdffd176ccb67",
      "s": "0x4425461683707d8d8bc33c51d84275ad80a4ca185b6aae228ee7884314fe8c7f",
      "v": 27,
      "creates": null,
      "raw": "0xf86c01850ba43b74008252089455d5779241b4bf93870db124701ab0aa78ced5ee88014c95414f131000801ba02a6dd9531b113cfb8190ca00782872e177bb192b0b7956ccf8fcdffd176ccb67a04425461683707d8d8bc33c51d84275ad80a4ca185b6aae228ee7884314fe8c7f",
      "networkId": 0,
      "chainId": 0
    }
  ]
}