{
  "hash": "0x7feb29aa6db5a39e33bdeee75249f5140cab37ea4d5e6f044f0dbf6641cbd0a8",
  "parentHash": "0x6944f4b3da99086351d198f892f98fec27c2bb67db77c061589fe734dda820d4",
  "number": 92227,
  "timestamp": 1439668895,
  "nonce": "0x24304f4c8f7c108a",
  "difficulty": 3475678988085,
  "gasLimit": {
    "_hex": "0x2fefd8"
  },
  "gasUsed": {
    "_hex": "0x5208"
  },
  "miner": "0xe6A7a1d47ff21B6321162AEA7C6CB457D5476Bca",
  "extraData": "0x476574682f76312e302e312d38326566323666362f6c696e75782f676f312e34",
  "transactions": [
    {
      "hash": "0x42a641eaa7ca2eb4e86e94326a705c7553293e5df773aa3b568f118c602d3863",
      "blockHash": "0x7feb29aa6db5a39e33bdeee75249f5140cab37ea4d5e6f044f0dbf6641cbd0a8",
      "blockNumber": 92227,
      "transactionIndex": 0,
      "confirmations": null,
      "from": "0x120A270bbC009644e35F0bB6ab13f95b8199c4ad",
      "gasPrice": {
        "_hex": "0xcf878e642"
      },
      "gasLimit": {
        "_hex": "0x3d090"
      },
      "to": "0x36B33F21Ba59c53E3502E52b8e0a7fD311215FFd",
      "value": {
        "_hex": "0x1d776bca40bd3bec00"
      },
      "nonce": 544,
      "data": "0x",
      "r": "0x868d3807d16877247f61833666966f073d6126c5dfe5aa0efab4ca42cdb8c8e3",
      "s": "0x0f777936448b642fdd50016e5ae0cd69beed4ae2a828927ca52c786666c68375",
      "v": 28,
      "creates": null,
      "raw": "0xf870820220850cf878e6428303d0909436b33f21ba59c53e3502e52b8e0a7fd311215ffd891d776bca40bd3bec00801ca0868d3807d16877247f61833666966f073d6126c5dfe5aa0efab4ca42cdb8c8e3a00f777936448b642fdd50016e5ae0cd69beed4ae2a828927ca52c786666c68375",
      "networkId": 0,
      "chainId": 0
    }
  ]
}