{
  "hash": "0x9b24644639f82c4d29d1a9888ddf3f6d25a82ac66f8fa91724eb85c56872d3a9",
  "parentHash": "0xa73cc00c4499a5f58092b5e1c5788ae5c5c26add17a6c20a8f4e6c2d45b3b499",
  "number": 105632,
  "timestamp": 1439890943,
  "nonce": "0x0b4f86129c518abb",
  "difficulty": 4405974239273,
  "gasLimit": {
    "_hex": "0x2fefd8"
  },
  "gasUsed": {
    "_hex": "0x5208"
  },
  "miner": "0x580992B51e3925e23280EfB93d3047C82f17E038",
  "extraData": "0x476574682f76312e302e312f6c696e75782f676f312e342e32",
  "transactions": [
    {
      "hash": "0x3232f131c0dc971768434ea99d5980ab8a1d5544fcaf3d1917814a1e6b5bc3dc",
      "blockHash": "0x9b24644639f82c4d29d1a9888ddf3f6d25a82ac66f8fa91724eb85c56872d3a9",
      "blockNumber": 105632,
      "transactionIndex": 0,
      "confirmations": null,
      "from": "0x412a68f6C645559cC977Fc4964047a201d1bb0e2",
      "gasPrice": {
        "_hex": "0xdf12907b3"
      },
      "gasLimit": {
        "_hex": "0x15f90"
      },
      "to": "0x8e0ebD4AC59632E767BED39320cef618Bd558917",
      "value": {
        "_hex": "0x56bc75e2d63100000"
      },
      "nonce": 2,
      "data": "0x",
      "r": "0x5b33ae198003fc1760298b4891b79ca2e97197a5bb060a9660beb610b6ab9a46",
      "s": "0x4344556a2aef300473003c9a4712e576777f790bdc191ea3cea97b073c70fb47",
      "v": 28,
      "creates": null,
      "raw": "0xf86e02850df12907b383015f90948e0ebd4ac59632e767bed39320cef618bd55891789056bc75e2d63100000801ca05b33ae198003fc1760298b4891b79ca2e97197a5bb060a9660beb610b6ab9a46a04344556a2aef300473003c9a4712e576777f790bdc191ea3cea97b073c70fb47",
      "networkId": 0,
      "chainId": 0
    }
  ]
}