{
  "hash": "0x1669ca20950505e25e7a2861868ae8520db5ec13b51b04bd57bf3c9034597c10",
  "parentHash": "0xcda8d9bbd5219d8612afcbf4532038898b29bc0e7aea12ac29aa4aeff409a05e",
  "number": 121705,
  "timestamp": 1440181173,
  "nonce": "0x19279a8b6b785729",
  "difficulty": 4499627299726,
  "gasLimit": {
    "_hex": "0x2fefd8"
  },
  "gasUsed": {
    "_hex": "0x19a28"
  },
  "miner": "0xa70a9a7040d542C632D8e0bE7c5513A8a5Bbc752",
  "extraData": "0x",
  "transactions": [
    {
      "hash": "0x0ced425452d6a03fa72398ad0e2de5ee5bb84713fd6f2e42be3a914b575a2bf3",
      "blockHash": "0x1669ca20950505e25e7a2861868ae8520db5ec13b51b04bd57bf3c9034597c10",
      "blockNumber": 121705,
      "transactionIndex": 0,
      "confirmations": null,
      "from": "0x5bBc8885Cd987500BEba7842e7dD88c4b1dFBEDc",
      "gasPrice": {
        "_hex": "0xe0af40953"
      },
      "gasLimit": {
        "_hex": "0x5208"
      },
      "to": "0x32Be343B94f860124dC4fEe278FDCBD38C102D88",
      "value": {
        "_hex": "0x175d1ef68e065000"
      },
      "nonce": 4,
      "data": "0x",
      "r": "0xaee97049bb589f026f3ee30e54dd8230022ab080782eb8c4317b7c4c2e0bbbe0",
      "s": "0x6e11b2960d5b25f1b96be76cdbdb7827ecfa5bcb998bc228d28fd4cedd4a1d53",
      "v": 27,
      "creates": null,
      "raw": "0xf86c04850e0af409538252089432be343b94f860124dc4fee278fdcbd38c102d8888175d1ef68e065000801ba0aee97049bb589f026f3ee30e54dd8230022ab080782eb8c4317b7c4c2e0bbbe0a06e11b2960d5b25f1b96be76cdbdb7827ecfa5bcb998bc228d28fd4cedd4a1d53",
      "networkId": 0,
      "chainId": 0
    },
    {
      "hash": "0x7f006106cca86df6acf7fca04dabb91070b572cb64e9ae2dd5994bee7fe76f51",
      "blockHash": "0x1669ca20950505e25e7a2861868ae8520db5ec13b51b04bd57bf3c9034597c10",
      "blockNumber": 121705,
      "transactionIndex": 1,
      "confirmations": null,
      "from": "0x7884D470204862a0d1A21122F41ee77430396Ee5",
      "gasPrice": {
        "_hex": "0xd5db11085"
      },
      "gasLimit": {
        "_hex": "0x15f90"
      },
      "to": "0x1cE5d819B4F8ccAe022dE09D93aaeD19388727EA",
      "value": {
        "_hex": "0x2386f26fc10000"
      },
      "nonce": 123,
      "data": "0x",
      "r": "0x95cff92c8aad960d87f8c46ec72e6f953aa31280fc3d2e60570492efa620ca38",
      "s": "0x76f307b4407e39914d3d2346f55cafd707e28e9625da03a5382129202c257454",
      "v": 28,
      "creates": null,
      "raw": "0xf86c7b850d5db1108583015f90941ce5d819b4f8ccae022de09d93aaed19388727ea872386f26fc10000801ca095cff92c8aad960d87f8c46ec72e6f953aa31280fc3d2e60570492efa620ca38a076f307b4407e39914d3d2346f55cafd707e28e9625da03a5382129202c257454",
      "networkId": 0,
      "chainId": 0
    },
    {
      "hash": "0xcac200debe940e48eed0c16fb0e4b1fff444bd50e5c6a84178adccaa3d7d4c39",
      "blockHash": "0x1669ca20950505e25e7a2861868ae8520db5ec13b51b04bd57bf3c9034597c10",
      "blockNumber": 121705,
      "transactionIndex": 2,
      "confirmations": null,
      "from": "0xF4f2C15602B084Cae84Ea603f75527DE19705aA1",
      "gasPrice": {
        "_hex": "0xcaf2e259b"
      },
      "gasLimit": {
        "_hex": "0x5208"
      },
      "to": "0x32Be343B94f860124dC4fEe278FDCBD38C102D88",
      "value": {
        "_hex": "0x461ea2adf6353800"
      },
      "nonce": 9,
      "data": "0x",
      "r": "0x02828d0cfae5162debb19f46b464c49b23273628f3e87d7a91ed00f802f2cd31",
      "s": "0x02b3ed282884c6eef7631b3dcb139dc0c7640874c8a0e4db48af5eba53c47894",
      "v": 28,
      "creates": null,
      "raw": "0xf86c09850caf2e259b8252089432be343b94f860124dc4fee278fdcbd38c102d8888461ea2adf6353800801ca002828d0cfae5162debb19f46b464c49b23273628f3e87d7a91ed00f802f2cd31a002b3ed282884c6eef7631b3dcb139dc0c7640874c8a0e4db48af5eba53c47894",
      "networkId": 0,
      "chainId": 0
    },
    {
      "hash": "0xfb8f377f03836bc1a1b8cf3f385381794b8ba44c222c83e216677b663569faeb",
      "blockHash": "0x1669ca20950505e25e7a2861868ae8520db5ec13b51b04bd57bf3c9034597c10",
      "blockNumber": 121705,
      "transactionIndex": 3,
      "confirmations": null,
      "from": "0xfCcd1ab7e0922F08995104b3019E6b7bfCe006F8",
      "gasPrice": {
        "_hex": "0xcaf2e259b"
      },
      "gasLimit": {
        "_hex": "0x5208"
      },
      "to": "0x32Be343B94f860124dC4fEe278FDCBD38C102D88",
      "value": {
        "_hex": "0x8d4d579753132000"
      },
      "nonce": 1,
      "data": "0x",
      "r": "0xda9164efcea03f495555aadb9fd6681ad639e9c0793595c782c6c668e81e9888",
      "s": "0x3c66fcebbfa595de2331f32abbd36d4d008e2dc8ac68b6ef48272c9c8a8d4f13",
      "v": 28,
      "creates": null,
      "raw": "0xf86c01850caf2e259b8252089432be343b94f860124dc4fee278fdcbd38c102d88888d4d579753132000801ca0da9164efcea03f495555aadb9fd6681ad639e9c0793595c782c6c668e81e9888a03c66fcebbfa595de2331f32abbd36d4d008e2dc8ac68b6ef48272c9c8a8d4f13",
      "networkId": 0,
      "chainId": 0
    },
    {
      "hash": "0x83caf2569a27297601563a5024b0fc66243f648a5d4936cb3ab99dd7c5f3a626",
      "blockHash": "0x1669ca20950505e25e7a2861868ae8520db5ec13b51b04bd57bf3c9034597c10",
      "blockNumber": 121705,
      "transactionIndex": 4,
      "confirmations": null,
      "from": "0xFc8B1B712E10a89E87176215AED8352b323B7265",
      "gasPrice": {
        "_hex": "0xcaf2e259b"
      },
      "gasLimit": {
        "_hex": "0x5208"
      },
      "to": "0x32Be343B94f860124dC4fEe278FDCBD38C102D88",
      "value": {
        "_hex": "0x35bae389a5337400"
      },
      "nonce": 5,
      "data": "0x",
      "r": "0x255670a4de1e4419a331b889054eaff8743fe7c1a56b8ff806de07f8b924b309",
      "s": "0x133bb630f32eca6dc3dd74ed97f2d6ed15ef1d171edb86c0aba062d785f48719",
      "v": 28,
      "creates": null,
      "raw": "0xf86c05850caf2e259b8252089432be343b94f860124dc4fee278fdcbd38c102d888835bae389a5337400801ca0255670a4de1e4419a331b889054eaff8743fe7c1a56b8ff806de07f8b924b309a0133bb630f32eca6dc3dd74ed97f2d6ed15ef1d171edb86c0aba062d785f48719",
      "networkId": 0,
      "chainId": 0
    }
  ]
}