{
  "hash": "0xc55d12e0bcb57f13eef4bc67951c297113738b63a2c011764c8e4d224ed313c0",
  "parentHash": "0x2ddf5445c3c6232d5b8c634e5796fa7808a8adc6c09cba2c2508816c07046d8c",
  "number": 90780,
  "timestamp": 1439645364,
  "nonce": "0x1652200348e0e150",
  "difficulty": 3394092990393,
  "gasLimit": {
    "_hex": "0x2fefd8"
  },
  "gasUsed": {
    "_hex": "0x546c"
  },
  "miner": "0x47ff6576639c2e94762eA5443978D7681C0E78DC",
  "extraData": "0x476574682f76312e302e312f6c696e75782f676f312e342e32",
  "transactions": [
    {
      "hash": "0xb805576ae529d05177f80047857f73007c8a7f28d24128b80451416aa567e2e7",
      "blockHash": "0xc55d12e0bcb57f13eef4bc67951c297113738b63a2c011764c8e4d224ed313c0",
      "blockNumber": 90780,
      "transactionIndex": 0,
      "confirmations": null,
      "from": "0xF70D637A845c06dB6cdc91E6371Ce7c4388A628e",
      "gasPrice": {
        "_hex": "0xd191583ce"
      },
      "gasLimit": {
        "_hex": "0x55f0"
      },
      "to": "0x2910543Af39abA0Cd09dBb2D50200b3E800A63D2",
      "value": {
        "_hex": "0x114720e7595c80000"
      },
      "nonce": 0,
      "data": "0x454e51343033375047",
      "r": "0xdfe648a6e91d5e0530e3bf271773182c2ffc16068f96e210536af254fae62ec9",
      "s": "0x618897a3b84385d07e9cb6614ffd14025a59a65e8107930b3633457cab634f3c",
      "v": 27,
      "creates": null,
      "raw": "0xf87680850d191583ce8255f0942910543af39aba0cd09dbb2d50200b3e800a63d2890114720e7595c8000089454e513430333750471ba0dfe648a6e91d5e0530e3bf271773182c2ffc16068f96e210536af254fae62ec9a0618897a3b84385d07e9cb6614ffd14025a59a65e8107930b3633457cab634f3c",
      "networkId": 0,
      "chainId": 0
    }
  ]
}