{
  "hash": "0x6032fdf6dd5d1283f4a328a31e7eddd4dc4f9ca7f34fc75527db82f05596a7ef",
  "parentHash": "0xb12202424c29c76797e96a92545e40ea72574d417217aaf5bca7ccce8968004a",
  "number": 107151,
  "timestamp": 1439917080,
  "nonce": "0xf2f999f855a99dc9",
  "difficulty": 4459280164529,
  "gasLimit": {
    "_hex": "0x2fefd8"
  },
  "gasUsed": {
    "_hex": "0x5208"
  },
  "miner": "0xe6A7a1d47ff21B6321162AEA7C6CB457D5476Bca",
  "extraData": "0x476574682f76312e302e312d38326566323666362f6c696e75782f676f312e34",
  "transactions": [
    {
      "hash": "0x56aba2a91694c7e654c96f76688fa3e47de9e8a3cb6ce8281f8377aa1508376b",
      "blockHash": "0x6032fdf6dd5d1283f4a328a31e7eddd4dc4f9ca7f34fc75527db82f05596a7ef",
      "blockNumber": 107151,
      "transactionIndex": 0,
      "confirmations": null,
      "from": "0xDb2c60B49188a8D0C96A730C0B4b62D25866864C",
      "gasPrice": {
        "_hex": "0xd8a3d9d49"
      },
      "gasLimit": {
        "_hex": "0x15f90"
      },
      "to": "0x85987614170a7d08Fbae35c5bc179A0110d1fA2F",
      "value": {
        "_hex": "0x0"
      },
      "nonce": 0,
      "data": "0x",
      "r": "0x801f0b59911fbc1ba468b9b9a410090faca5c097cacb741c923bc406ad8842ce",
      "s": "0x32ad9d67e3a5d69e28735513028a67f0702585d5956cad615b801b28829141d2",
      "v": 28,
      "creates": null,
      "raw": "0xf86580850d8a3d9d4983015f909485987614170a7d08fbae35c5bc179a0110d1fa2f80801ca0801f0b59911fbc1ba468b9b9a410090faca5c097cacb741c923bc406ad8842cea032ad9d67e3a5d69e28735513028a67f0702585d5956cad615b801b28829141d2",
      "networkId": 0,
      "chainId": 0
    }
  ]
}