{
  "hash": "0x8e0ebaea20df7f29c9e4e7e2f77cdd37f9abd3584a5018b939946ee0f02c1245",
  "parentHash": "0x5f3ef08655023ad841914b9de9c26bb6330bda21ae9a38b80345dcccbf525210",
  "number": 92633,
  "timestamp": 1439674857,
  "nonce": "0x561b22135d63d8b1",
  "difficulty": 3564886015755,
  "gasLimit": {
    "_hex": "0x2fefd8"
  },
  "gasUsed": {
    "_hex": "0x7a120"
  },
  "miner": "0x4CF67c265Bb0E51CF92A0b3E37becCFd721a1506",
  "extraData": "0x476574682f76312e302e312d38326566323666362f6c696e75782f676f312e34",
  "transactions": [
    {
      "hash": "0xb9add8ad3cb6486172b8404836e791f6cbf0676cc9386f743f70b37f1e42b374",
      "blockHash": "0x8e0ebaea20df7f29c9e4e7e2f77cdd37f9abd3584a5018b939946ee0f02c1245",
      "blockNumber": 92633,
      "transactionIndex": 0,
      "confirmations": null,
      "from": "0xD471D70e80FfBE99bA58A42b10Fe81c49379C8ec",
      "gasPrice": {
        "_hex": "0xd6b187d36"
      },
      "gasLimit": {
        "_hex": "0x7a120"
      },
      "to": "0xA327075af2a223A1C83a36aDa1126afE7430f955",
      "value": {
        "_hex": "0x8ac7230489e80000"
      },
      "nonce": 2,
      "data": "0x",
      "r": "0x65ebeb80b09f1fec2f1ce68b98a8aa3e684e26f3b4231d11d58f3a4a4b557810",
      "s": "0x2c43be4f2cd336c5b00315a3a38aa9f70f663192f3deffae6fbd066a3bd1df5f",
      "v": 27,
      "creates": null,
      "raw": "0xf86d02850d6b187d368307a12094a327075af2a223a1c83a36ada1126afe7430f955888ac7230489e80000801ba065ebeb80b09f1fec2f1ce68b98a8aa3e684e26f3b4231d11d58f3a4a4b557810a02c43be4f2cd336c5b00315a3a38aa9f70f663192f3deffae6fbd066a3bd1df5f",
      "networkId": 0,
      "chainId": 0
    }
  ]
}