{
  "hash": "0x8459cd98cebbc798ba99c9cacc8c64e81ab685efa0680e8b6e84b6e251f42f7d",
  "parentHash": "0xaf35b74f4910e1b1e4b1dd1754288481b467603c9b885e264a91c5bda9051a07",
  "number": 90187,
  "timestamp": 1439636157,
  "nonce": "0x0b925bb11e4b82ab",
  "difficulty": 3297942073959,
  "gasLimit": {
    "_hex": "0x2fefd8"
  },
  "gasUsed": {
    "_hex": "0x5208"
  },
  "miner": "0xe6A7a1d47ff21B6321162AEA7C6CB457D5476Bca",
  "extraData": "0x476574682f76312e302e312d38326566323666362f6c696e75782f676f312e34",
  "transactions": [
    {
      "hash": "0x450015e1a1b6bbc0827ab86162cbf5befc2a068ee45c88926ad86bc204f3cc88",
      "blockHash": "0x8459cd98cebbc798ba99c9cacc8c64e81ab685efa0680e8b6e84b6e251f42f7d",
      "blockNumber": 90187,
      "transactionIndex": 0,
      "confirmations": null,
      "from": "0xD1dbf6AE8f14259aDb50f4425dd056204391a578",
      "gasPrice": {
        "_hex": "0xd01fae4e6"
      },
      "gasLimit": {
        "_hex": "0x55f0"
      },
      "to": "0x9040C4FEa1b297d3e033743bB8dFF3485fE80cFd",
      "value": {
        "_hex": "0x5b12aefafa8040000"
      },
      "nonce": 2,
      "data": "0x",
      "r": "0x6fc9adb88b6cb8540db8031ef8e9401b94d04fd7839f9639f3a49e6785bfe5c3",
      "s": "0x4dfdb4a9b542f42e45f4ef0d112473d84390eb3d560db7e8ac0476d088becb8d",
      "v": 28,
      "creates": null,
      "raw": "0xf86d02850d01fae4e68255f0949040c4fea1b297d3e033743bb8dff3485fe80cfd8905b12aefafa8040000801ca06fc9adb88b6cb8540db8031ef8e9401b94d04fd7839f9639f3a49e6785bfe5c3a04dfdb4a9b542f42e45f4ef0d112473d84390eb3d560db7e8ac0476d088becb8d",
      "networkId": 0,
      "chainId": 0
    }
  ]
}