{
  "hash": "0xf8aec109d29bd6da972547d796e27c04efca4f2762154cbab73e2c71cb3dec6c",
  "parentHash": "0xdc8065667d37f758603145751d0c57c7f44b24e8a03355c855c7b5a390f579fa",
  "number": 49638,
  "timestamp": 1438976695,
  "nonce": "0x61c5de2f81e01c0f",
  "difficulty": 1482801487924,
  "gasLimit": {
    "_hex": "0x38903"
  },
  "gasUsed": {
    "_hex": "0x546c"
  },
  "miner": "0xf1C63182E2074b561fC3999a9ABEf18aD2B18052",
  "extraData": "0x606461746560206f6e2060686f73746e616d6560",
  "transactions": [
    {
      "hash": "0x38865fd0e7d735833bcb8e91bf03830a00aa11b8bc6a807c72351a3ffb095d6a",
      "blockHash": "0xf8aec109d29bd6da972547d796e27c04efca4f2762154cbab73e2c71cb3dec6c",
      "blockNumber": 49638,
      "transactionIndex": 0,
      "confirmations": null,
      "from": "0x0A63E1A8C33e351679e3581AC84ce341C32f813a",
      "gasPrice": {
        "_hex": "0x1098a152c17"
      },
      "gasLimit": {
        "_hex": "0x15f90"
      },
      "to": "0x2910543Af39abA0Cd09dBb2D50200b3E800A63D2",
      "value": {
        "_hex": "0x52663ccab1e1c0000"
      },
      "nonce": 3,
      "data": "0x454e47325538393338",
      "r": "0xc337a6d7599fe86cd9f40c122fe797b8e5424b7df6c921a289f54aa79f500ecb",
      "s": "0x500a9b9ac9bcc4cc6ccb1f7736cf16e3a21e6eab468e218e968d3d5f0e34307a",
      "v": 28,
      "creates": null,
      "raw": "0xf878038601098a152c1783015f90942910543af39aba0cd09dbb2d50200b3e800a63d289052663ccab1e1c000089454e473255383933381ca0c337a6d7599fe86cd9f40c122fe797b8e5424b7df6c921a289f54aa79f500ecba0500a9b9ac9bcc4cc6ccb1f7736cf16e3a21e6eab468e218e968d3d5f0e34307a",
      "networkId": 0,
      "chainId": 0
    }
  ]
}