{
  "hash": "0x08d625beaba080abca80965615d27a45b8cd3b62cecd08ca2d126a9ad5a852ed",
  "parentHash": "0x97c0c8f01cb7cf98affe2f01698960452a4e0e5815a00a6d6843e33c2608fe58",
  "number": 96198,
  "timestamp": 1439736513,
  "nonce": "0x56d7432bfbdf8d78",
  "difficulty": 3663940224839,
  "gasLimit": {
    "_hex": "0x2fe3de"
  },
  "gasUsed": {
    "_hex": "0x5208"
  },
  "miner": "0xA10C59651885FeAaac91F871082a23BBbaBeDfCf",
  "extraData": "0x476574682f76312e302e302f77696e646f77732f676f312e342e32",
  "transactions": [
    {
      "hash": "0x9c95fdc4e321459ecd2f8ac63363915352e855fbfa40f9d09793723a80aafddf",
      "blockHash": "0x08d625beaba080abca80965615d27a45b8cd3b62cecd08ca2d126a9ad5a852ed",
      "blockNumber": 96198,
      "transactionIndex": 0,
      "confirmations": null,
      "from": "0x40B9b889A21Ff1534d018D71Dc406122EBcf3F5A",
      "gasPrice": {
        "_hex": "0x10780417c8f"
      },
      "gasLimit": {
        "_hex": "0x15f90"
      },
      "to": "0x8F6864Db2057a8A1C2b2c16D39f64CE4F929F3D9",
      "value": {
        "_hex": "0x821ab0d4414980000"
      },
      "nonce": 29,
      "data": "0x",
      "r": "0x8c6a7f04bb1949fca72f6f33098bd7837bc6af08c6cf52953ddc4086edc6b2b0",
      "s": "0x3cce1a508aefab4119973af62ae57f3fca6bcde6a00a6a7c10b22099a5536f70",
      "v": 28,
      "creates": null,
      "raw": "0xf86f1d86010780417c8f83015f90948f6864db2057a8a1c2b2c16d39f64ce4f929f3d9890821ab0d4414980000801ca08c6a7f04bb1949fca72f6f33098bd7837bc6af08c6cf52953ddc4086edc6b2b0a03cce1a508aefab4119973af62ae57f3fca6bcde6a00a6a7c10b22099a5536f70",
      "networkId": 0,
      "chainId": 0
    }
  ]
}