{
  "hash": "0xcc68e126497deb12e8d7ad19f947e267a9e2d762076c306887b579b8d5432a81",
  "parentHash": "0xc961b871c85edef3d52947fc9bb4913384ce0a520f024f268743cb06e11837d6",
  "number": 47689,
  "timestamp": 1438944780,
  "nonce": "0xf743fd9dba5ca458",
  "difficulty": 1445256228194,
  "gasLimit": {
    "_hex": "0xe489"
  },
  "gasUsed": {
    "_hex": "0x5208"
  },
  "miner": "0xB7f5530DF01aeFE061dAbFA6E778eE694157A71f",
  "extraData": "0x476574682f76312e302e312f6c696e75782f676f312e342e32",
  "transactions": [
    {
      "hash": "0xcacd6984f1d8fa71a4ab469f66e48ec1af57e96d6d042af515c52b6543b3a979",
      "blockHash": "0xcc68e126497deb12e8d7ad19f947e267a9e2d762076c306887b579b8d5432a81",
      "blockNumber": 47689,
      "transactionIndex": 0,
      "confirmations": null,
      "from": "0xe6A7a1d47ff21B6321162AEA7C6CB457D5476Bca",
      "gasPrice": {
        "_hex": "0xdfa253ba8"
      },
      "gasLimit": {
        "_hex": "0x55f0"
      },
      "to": "0xDFAEf2eeE901dde3f2f790b3D81c491D2EeEaeB4",
      "value": {
        "_hex": "0x8c4fdb016f8f10b0"
      },
      "nonce": 202,
      "data": "0x",
      "r": "0xfdec5b6958bf1ceb24969d6b3814df9fa39a3807fee199550c5f00e129431ca4",
      "s": "0x01c371552d1ab535f286cd6d7e1a6292d9370dbac28de401f1224639532d4070",
      "v": 28,
      "creates": null,
      "raw": "0xf86d81ca850dfa253ba88255f094dfaef2eee901dde3f2f790b3d81c491d2eeeaeb4888c4fdb016f8f10b0801ca0fdec5b6958bf1ceb24969d6b3814df9fa39a3807fee199550c5f00e129431ca4a001c371552d1ab535f286cd6d7e1a6292d9370dbac28de401f1224639532d4070",
      "networkId": 0,
      "chainId": 0
    }
  ]
}