{
  "hash": "0xb8e3ec574036a4bbdbc11cf5dd5650b7e031181c869c5a08fceb1557a3f6f25c",
  "parentHash": "0x2f1e926df78f9ad8d553e5c841b2d286b742d8d97a7bfa4715f0518984842a32",
  "number": 60457,
  "timestamp": 1439155979,
  "nonce": "0xfac307f0bdfc7894",
  "difficulty": 1737263982212,
  "gasLimit": {
    "_hex": "0x2fefd8"
  },
  "gasUsed": {
    "_hex": "0x7a120"
  },
  "miner": "0xf927a40C8B7F6E07c5af7FA2155B4864a4112B13",
  "extraData": "0x476574682f76312e302e312f6c696e75782f676f312e342e32",
  "transactions": [
    {
      "hash": "0x49f35bbf9d7d63f7918791fff1e9e1bbbf5b2b6527cea5104d62ba203c591574",
      "blockHash": "0xb8e3ec574036a4bbdbc11cf5dd5650b7e031181c869c5a08fceb1557a3f6f25c",
      "blockNumber": 60457,
      "transactionIndex": 0,
      "confirmations": null,
      "from": "0xBeb3B1d443791e4B2207a9866800E02DAcF19c02",
      "gasPrice": {
        "_hex": "0xdf505df60"
      },
      "gasLimit": {
        "_hex": "0x7a120"
      },
      "to": "0x109C4f2CCc82C4d77Bde15F306707320294Aea3F",
      "value": {
        "_hex": "0xde0b6b3a7640000"
      },
      "nonce": 9,
      "data": "0x",
      "r": "0xa3b5211d4415ecb27a014824fd754e9746f727b60c086d70449c172e6a55541f",
      "s": "0x28dcded3726c4d7f5ec4d594fdc5fdfd2bbf9e1c8bfb841b8c57698cc33dc5e5",
      "v": 27,
      "creates": null,
      "raw": "0xf86d09850df505df608307a12094109c4f2ccc82c4d77bde15f306707320294aea3f880de0b6b3a7640000801ba0a3b5211d4415ecb27a014824fd754e9746f727b60c086d70449c172e6a55541fa028dcded3726c4d7f5ec4d594fdc5fdfd2bbf9e1c8bfb841b8c57698cc33dc5e5",
      "networkId": 0,
      "chainId": 0
    }
  ]
}