{
  "hash": "0xd6944ba6fc44ba8c7c3a1cae6dee3f22a3df22c7d2a4bb525652a223d17d524d",
  "parentHash": "0xc729112b254d21ed6df2fe51701bf1fd4fd67895acc03d7e098d519857a139dd",
  "number": 112182,
  "timestamp": 1440003255,
  "nonce": "0xaeee3d1c3cbd3532",
  "difficulty": 4389656126653,
  "gasLimit": {
    "_hex": "0x2fefd8"
  },
  "gasUsed": {
    "_hex": "0x5208"
  },
  "miner": "0xf8E0CA3Ed80bd541b94BEdCf259e8CF2141A9523",
  "extraData": "0x476574682f76312e302e312f77696e646f77732f676f312e342e32",
  "transactions": [
    {
      "hash": "0x3b85bff6fafa1009fc9a20ff9addda008285d23b910ec364534282fa86db475d",
      "blockHash": "0xd6944ba6fc44ba8c7c3a1cae6dee3f22a3df22c7d2a4bb525652a223d17d524d",
      "blockNumber": 112182,
      "transactionIndex": 0,
      "confirmations": null,
      "from": "0x38DD392D8b9B5E5aB6eDd96D6e677d575502DfC2",
      "gasPrice": {
        "_hex": "0xce3b0f218"
      },
      "gasLimit": {
        "_hex": "0x5208"
      },
      "to": "0xFBb1b73C4f0BDa4f67dcA266ce6Ef42f520fBB98",
      "value": {
        "_hex": "0x70c18a5e535b4bf40"
      },
      "nonce": 1,
      "data": "0x",
      "r": "0x870ab4a14fc66c085df4201c73b5be817c214d01c2f3037f711331b708c331e4",
      "s": "0x063315f4be69004c80c7eaae0e7ddad70458c8acfcff4ddc24894b34695ba34b",
      "v": 28,
      "creates": null,
      "raw": "0xf86d01850ce3b0f21882520894fbb1b73c4f0bda4f67dca266ce6ef42f520fbb9889070c18a5e535b4bf40801ca0870ab4a14fc66c085df4201c73b5be817c214d01c2f3037f711331b708c331e4a0063315f4be69004c80c7eaae0e7ddad70458c8acfcff4ddc24894b34695ba34b",
      "networkId": 0,
      "chainId": 0
    }
  ]
}