{
  "hash": "0x545c883d12e430a07a94aaf862b08363a072bd57da5a9269b863a2f2171dc349",
  "parentHash": "0x75ec2cc900a486d29e95a6f66468127bf4172779ad1d62a36b42f2264e3f0878",
  "number": 75843,
  "timestamp": 1439410255,
  "nonce": "0xedcf085f25650fa8",
  "difficulty": 2230956555618,
  "gasLimit": {
    "_hex": "0x2fefd8"
  },
  "gasUsed": {
    "_hex": "0x1b457"
  },
  "miner": "0xe6A7a1d47ff21B6321162AEA7C6CB457D5476Bca",
  "extraData": "0x476574682f76312e302e312d38326566323666362f6c696e75782f676f312e34",
  "transactions": [
    {
      "hash": "0xebf96b31bebd68315171774dca54597895b95e84a45e9f75cd7355b4279f0886",
      "blockHash": "0x545c883d12e430a07a94aaf862b08363a072bd57da5a9269b863a2f2171dc349",
      "blockNumber": 75843,
      "transactionIndex": 0,
      "confirmations": null,
      "from": "0x9724Ac4dc56e03379eBA5d157D1513EcC32cBD8f",
      "gasPrice": {
        "_hex": "0xdc7b7a94f"
      },
      "gasLimit": {
        "_hex": "0x493e0"
      },
      "to": "0xD79B4C6791784184e2755B2fC1659eaaB0f80456",
      "value": {
        "_hex": "0x29a2241af62c0000"
      },
      "nonce": 12,
      "data": "0x8d216186000000000000000000000000000000000000000000000000000000000000008054c12780238c2300d2e937e21ba66cee402fde83fbafd1de80780dce873a9573",
      "r": "0x8bacf4fc2886e03e0dab89a4b825eb207c4b772c9b3d626279003892bd4e554d",
      "s": "0x420b77929f7a9f6dcbc2f87d0182e0d6bf0c65e1c188583f72f5fbdf63016af8",
      "v": 28,
      "creates": null,
      "raw": "0xf8b20c850dc7b7a94f830493e094d79b4c6791784184e2755b2fc1659eaab0f804568829a2241af62c0000b8448d216186000000000000000000000000000000000000000000000000000000000000008054c12780238c2300d2e937e21ba66cee402fde83fbafd1de80780dce873a95731ca08bacf4fc2886e03e0dab89a4b825eb207c4b772c9b3d626279003892bd4e554da0420b77929f7a9f6dcbc2f87d0182e0d6bf0c65e1c188583f72f5fbdf63016af8",
      "networkId": 0,
      "chainId": 0
    }
  ]
}