{
  "hash": "0x2b77341c5da1cce180ab0bdf9ba85bbce2856cb2a580b68790955598ada1d48b",
  "parentHash": "0x2130d5e093234c8314354e9e4753ced41d1b06229a3086c3714d94a53b65ca0d",
  "number": 58647,
  "timestamp": 1439124236,
  "nonce": "0x01dbc01b21dfba90",
  "difficulty": 1710699274305,
  "gasLimit": {
    "_hex": "0x2fe3de"
  },
  "gasUsed": {
    "_hex": "0x546c"
  },
  "miner": "0x70C6b45fe0A5116E97B112B806A76E2F51E24413",
  "extraData": "0x476574682f76312e302e302f77696e646f77732f676f312e342e32",
  "transactions": [
    {
      "hash": "0xcb00c7fa91ae03724a35a386b2205d91a3ef0d43cb542a0e928cae13921e539f",
      "blockHash": "0x2b77341c5da1cce180ab0bdf9ba85bbce2856cb2a580b68790955598ada1d48b",
      "blockNumber": 58647,
      "transactionIndex": 0,
      "confirmations": null,
      "from": "0x726a14c90E3f84144c765CfFACBA3e0DF11b48BE",
      "gasPrice": {
        "_hex": "0x110c8f7d8de"
      },
      "gasLimit": {
        "_hex": "0xc350"
      },
      "to": "0x2910543Af39abA0Cd09dBb2D50200b3E800A63D2",
      "value": {
        "_hex": "0x1b1ae4d6e2ef5000000"
      },
      "nonce": 1,
      "data": "0x454e59474d4b355938",
      "r": "0x50832023fdf560035e17987e5a1691864cf9005f5f3cb17b455f09e57d821559",
      "s": "0xdd1d43f48e6ab3761ae9f4ed8550a560dc7a69c97d874ec5a5c76fd6b3b805dc",
      "v": 28,
      "creates": null,
      "raw": "0xf87801860110c8f7d8de82c350942910543af39aba0cd09dbb2d50200b3e800a63d28a01b1ae4d6e2ef500000089454e59474d4b3559381ca050832023fdf560035e17987e5a1691864cf9005f5f3cb17b455f09e57d821559a0dd1d43f48e6ab3761ae9f4ed8550a560dc7a69c97d874ec5a5c76fd6b3b805dc",
      "networkId": 0,
      "chainId": 0
    }
  ]
}