{
  "hash": "0x2c3a600f0de3632ecfb93785ebfa1a6020bfc485187b9d26f1b5703556a42d20",
  "parentHash": "0x39f2503e111d658ee2d956822c1aeb29198c1801c6a0f7911068a28fa7829e0e",
  "number": 116396,
  "timestamp": 1440073517,
  "nonce": "0x054feb2e7a3cf0e9",
  "difficulty": 4584558738959,
  "gasLimit": {
    "_hex": "0x2fefd8"
  },
  "gasUsed": {
    "_hex": "0xa410"
  },
  "miner": "0x35e8e5dC5FBd97c5b421A80B596C030a2Be2A04D",
  "extraData": "0x476574682f76312e302e312f6c696e75782f676f312e342e32",
  "transactions": [
    {
      "hash": "0xcdc5a8a58a7d37b97c6b64f2ea2c0d01e4192928f1a7996079bb62f1de97fc0b",
      "blockHash": "0x2c3a600f0de3632ecfb93785ebfa1a6020bfc485187b9d26f1b5703556a42d20",
      "blockNumber": 116396,
      "transactionIndex": 0,
      "confirmations": null,
      "from": "0xC759dc67E0c3816fdC56A2f5bb29920fc07e767D",
      "gasPrice": {
        "_hex": "0xd5c1f6a6c"
      },
      "gasLimit": {
        "_hex": "0x5208"
      },
      "to": "0x910a4aADabb3A7B3F7879118332E13Da66b68D77",
      "value": {
        "_hex": "0xd02ab486cedc0000"
      },
      "nonce": 25,
      "data": "0x",
      "r": "0x6d80782024c733905f8c6897f51c68f91b7dfaf198cc5d2bae260ffdd4b9d4ff",
      "s": "0x52f793302a3a79e58fa9348c59fdfda1eb7bc8fa0b6c7e7026a904ad815ac0be",
      "v": 27,
      "creates": null,
      "raw": "0xf86c19850d5c1f6a6c82520894910a4aadabb3a7b3f7879118332e13da66b68d7788d02ab486cedc0000801ba06d80782024c733905f8c6897f51c68f91b7dfaf198cc5d2bae260ffdd4b9d4ffa052f793302a3a79e58fa9348c59fdfda1eb7bc8fa0b6c7e7026a904ad815ac0be",
      "networkId": 0,
      "chainId": 0
    },
    {
      "hash": "0x196ec3268ae000c99817e9ff246912c74ae592ebe0436a637061889d7fe3dbab",
      "blockHash": "0x2c3a600f0de3632ecfb93785ebfa1a6020bfc485187b9d26f1b5703556a42d20",
      "blockNumber": 116396,
      "transactionIndex": 1,
      "confirmations": null,
      "from": "0x2910543Af39abA0Cd09dBb2D50200b3E800A63D2",
      "gasPrice": {
        "_hex": "0xd142eea38"
      },
      "gasLimit": {
        "_hex": "0x5208"
      },
      "to": "0x3120869dfC5b2e9D636fd0BFA6717C51146d5F7a",
      "value": {
        "_hex": "0xdcef33a6f838000"
      },
      "nonce": 1132,
      "data": "0x",
      "r": "0xb1b3307ccfcb85accb3c7945602c72cdef09f880e7771b10020e97ea97debc41",
      "s": "0x05af5c33b549d3c065df1142a8e793739b39a0802a4985f697c00930f24badaf",
      "v": 28,
      "creates": null,
      "raw": "0xf86e82046c850d142eea38825208943120869dfc5b2e9d636fd0bfa6717c51146d5f7a880dcef33a6f838000801ca0b1b3307ccfcb85accb3c7945602c72cdef09f880e7771b10020e97ea97debc41a005af5c33b549d3c065df1142a8e793739b39a0802a4985f697c00930f24badaf",
      "networkId": 0,
      "chainId": 0
    }
  ]
}