{
  "hash": "0x485af7ca0c64ca13f2c829fd1c6ae2dcdd8a185e22d39612f75741372b9fa7fe",
  "parentHash": "0xc27ddfe052e15e231a0c7a4d2977c37513b873930116ee226a63f10ac46ef0e4",
  "number": 109789,
  "timestamp": 1439962436,
  "nonce": "0xe94c564608f12898",
  "difficulty": 4440498435831,
  "gasLimit": {
    "_hex": "0x2fefd8"
  },
  "gasUsed": {
    "_hex": "0x5208"
  },
  "miner": "0x20c6Efe179C293690A5B3375F5bd81c2f07Ed037",
  "extraData": "0x476574682f76312e302e312d38326566323666362f6c696e75782f676f312e34",
  "transactions": [
    {
      "hash": "0xc161ffdb15423d1ed48673743c6067f365c3ff09fa923401fd6ae8f9ee2829f0",
      "blockHash": "0x485af7ca0c64ca13f2c829fd1c6ae2dcdd8a185e22d39612f75741372b9fa7fe",
      "blockNumber": 109789,
      "transactionIndex": 0,
      "confirmations": null,
      "from": "0xa70a9a7040d542C632D8e0bE7c5513A8a5Bbc752",
      "gasPrice": {
        "_hex": "0xdc600a748"
      },
      "gasLimit": {
        "_hex": "0x5208"
      },
      "to": "0x32Be343B94f860124dC4fEe278FDCBD38C102D88",
      "value": {
        "_hex": "0x455f32e9884c2400"
      },
      "nonce": 279,
      "data": "0x",
      "r": "0xa49efa1aca3b5380ab94ea0dec422a6c1e41631dc0791f79730a2e8767c1af02",
      "s": "0x704ff18a004201ce1fa2297a74e3c0da1bb92dbe8e05dc8176ed2f563441b010",
      "v": 27,
      "creates": null,
      "raw": "0xf86e820117850dc600a7488252089432be343b94f860124dc4fee278fdcbd38c102d8888455f32e9884c2400801ba0a49efa1aca3b5380ab94ea0dec422a6c1e41631dc0791f79730a2e8767c1af02a0704ff18a004201ce1fa2297a74e3c0da1bb92dbe8e05dc8176ed2f563441b010",
      "networkId": 0,
      "chainId": 0
    }
  ]
}