{
  "hash": "0x032ecc76e817a3d889a2d041ce72e7c4437f42e030464a7ede027bbf296ea0c4",
  "parentHash": "0x99b95ff905accdb76b7ced442432202da7014d95e6f4284a5ce62442adb6797b",
  "number": 50433,
  "timestamp": 1438989151,
  "nonce": "0xb2657ff238238dda",
  "difficulty": 1509690755293,
  "gasLimit": {
    "_hex": "0x62403"
  },
  "gasUsed": {
    "_hex": "0x5208"
  },
  "miner": "0xf927a40C8B7F6E07c5af7FA2155B4864a4112B13",
  "extraData": "0x476574682f76312e302e312f6c696e75782f676f312e342e32",
  "transactions": [
    {
      "hash": "0xcf06c238c105f78c7ce7410ff6b356510a900d146bc0ee6ef9ae6f1ee64f552c",
      "blockHash": "0x032ecc76e817a3d889a2d041ce72e7c4437f42e030464a7ede027bbf296ea0c4",
      "blockNumber": 50433,
      "transactionIndex": 0,
      "confirmations": null,
      "from": "0xAb5199486803893a6dc1AD1D31612895300BCcA9",
      "gasPrice": {
        "_hex": "0xd7d40ace3"
      },
      "gasLimit": {
        "_hex": "0x7530"
      },
      "to": "0xF109ca710C0Df51c1a86dBA1B0BA0Ed038114463",
      "value": {
        "_hex": "0x16345785d8a0000"
      },
      "nonce": 0,
      "data": "0x",
      "r": "0xaf19ea1093d203bac1f321c5f5dd5ebde747f54c8da0167ca2132e9c56e4d0b9",
      "s": "0x58e65e90f0cd0794b6df41c8da5e3add15cef0b3a17f09300d1de2637ebcd077",
      "v": 28,
      "creates": null,
      "raw": "0xf86c80850d7d40ace382753094f109ca710c0df51c1a86dba1b0ba0ed03811446388016345785d8a0000801ca0af19ea1093d203bac1f321c5f5dd5ebde747f54c8da0167ca2132e9c56e4d0b9a058e65e90f0cd0794b6df41c8da5e3add15cef0b3a17f09300d1de2637ebcd077",
      "networkId": 0,
      "chainId": 0
    }
  ]
}