{
  "hash": "0xaf511b0ff3498e991d59370834b6eeaa4e4c33f8f6affc0743fe8b099df0ce65",
  "parentHash": "0x2c59cbe23225a631539585acbdf83d5bcff012a0eb320534c797d29aeecbb1b7",
  "number": 79814,
  "timestamp": 1439475518,
  "nonce": "0xbaa7750f7054f0a5",
  "difficulty": 2356394855958,
  "gasLimit": {
    "_hex": "0x2fefd8"
  },
  "gasUsed": {
    "_hex": "0x546c"
  },
  "miner": "0x0eDEd3DA479d0beF8eeC92A76644D3f4E3C177f7",
  "extraData": "0x476574682f76312e302e312f6c696e75782f676f312e342e32",
  "transactions": [
    {
      "hash": "0xe08518fc42d01d23d4d29f98680c60473c671bdc87daf960bbe5b56c07e1a102",
      "blockHash": "0xaf511b0ff3498e991d59370834b6eeaa4e4c33f8f6affc0743fe8b099df0ce65",
      "blockNumber": 79814,
      "transactionIndex": 0,
      "confirmations": null,
      "from": "0xB01e389b28a31D8e4995BDD7d7c81beeab1E4119",
      "gasPrice": {
        "_hex": "0x110c8f7d8de"
      },
      "gasLimit": {
        "_hex": "0xc350"
      },
      "to": "0x2910543Af39abA0Cd09dBb2D50200b3E800A63D2",
      "value": {
        "_hex": "0xca0f82db99b0000"
      },
      "nonce": 1,
      "data": "0x454e41514456454152",
      "r": "0x222ab40a5b1840d6326a74239e7ea8df77820c48fa01c99abecb9fffb1d8dac2",
      "s": "0x391fe03b699b06c483bc7a23b7b8be446ccb42fb44d0cb6ca71817befabaadd4",
      "v": 28,
      "creates": null,
      "raw": "0xf87601860110c8f7d8de82c350942910543af39aba0cd09dbb2d50200b3e800a63d2880ca0f82db99b000089454e415144564541521ca0222ab40a5b1840d6326a74239e7ea8df77820c48fa01c99abecb9fffb1d8dac2a0391fe03b699b06c483bc7a23b7b8be446ccb42fb44d0cb6ca71817befabaadd4",
      "networkId": 0,
      "chainId": 0
    }
  ]
}