{
  "hash": "0x3ddced3fc1d66c3339cb7ad713263440319178119cc7f7f0bd18bb7a8bacca6c",
  "parentHash": "0x89c7126bc684d105cf300dff897fc2d2b5072af3a60c1031e322b33bf975f2d8",
  "number": 46833,
  "timestamp": 1438929961,
  "nonce": "0x89ca4f0012db39f0",
  "difficulty": 1458163449748,
  "gasLimit": {
    "_hex": "0x7d2c"
  },
  "gasUsed": {
    "_hex": "0x5208"
  },
  "miner": "0xf927a40C8B7F6E07c5af7FA2155B4864a4112B13",
  "extraData": "0x476574682f76312e302e312f6c696e75782f676f312e342e32",
  "transactions": [
    {
      "hash": "0xcebeed634adc7abe3aea1b3941f053c4957c297a6ef305d43ce095bbb34ce406",
      "blockHash": "0x3ddced3fc1d66c3339cb7ad713263440319178119cc7f7f0bd18bb7a8bacca6c",
      "blockNumber": 46833,
      "transactionIndex": 0,
      "confirmations": null,
      "from": "0x1B7047b4338ACf65bE94C1A3e8c5c9338ad7d67C",
      "gasPrice": {
        "_hex": "0xdf8475800"
      },
      "gasLimit": {
        "_hex": "0x5208"
      },
      "to": "0x2Fe86C0450Bf1bE6001d119aA87f6f33117bD699",
      "value": {
        "_hex": "0x3637507a30abeb0000"
      },
      "nonce": 2,
      "data": "0x",
      "r": "0x2a210cbf379bbbafe745d9ad7c74a626de5e724ecacdf25951da0dcbf08cf9ae",
      "s": "0x0cb2560b6aa9ed1c97fef5527323d77ce22693515b3967cc4abf0638ebe31447",
      "v": 28,
      "creates": null,
      "raw": "0xf86d02850df8475800825208942fe86c0450bf1be6001d119aa87f6f33117bd699893637507a30abeb0000801ca02a210cbf379bbbafe745d9ad7c74a626de5e724ecacdf25951da0dcbf08cf9aea00cb2560b6aa9ed1c97fef5527323d77ce22693515b3967cc4abf0638ebe31447",
      "networkId": 0,
      "chainId": 0
    }
  ]
}