{
  "hash": "0x3b09a8343e12bd684b70896d1c25263617e190fe0d4746198cf1a0d0d5390ab6",
  "parentHash": "0xd8bc6fd56c7c8e97b8946f994dd05287dc8ec7524531f78de03f48a4201bf04c",
  "number": 85914,
  "timestamp": 1439570703,
  "nonce": "0x592a2de8b1225195",
  "difficulty": 2785352494144,
  "gasLimit": {
    "_hex": "0x2fefd8"
  },
  "gasUsed": {
    "_hex": "0xa410"
  },
  "miner": "0xf927a40C8B7F6E07c5af7FA2155B4864a4112B13",
  "extraData": "0x",
  "transactions": [
    {
      "hash": "0x8904d2c3cfb7cd3921bf569a7f24232a99824052dc350823c302970d26523d37",
      "blockHash": "0x3b09a8343e12bd684b70896d1c25263617e190fe0d4746198cf1a0d0d5390ab6",
      "blockNumber": 85914,
      "transactionIndex": 0,
      "confirmations": null,
      "from": "0x095E0174829f34C3781Be1a5e38d1541EA439b7f",
      "gasPrice": {
        "_hex": "0xd3d37f23a"
      },
      "gasLimit": {
        "_hex": "0x15f90"
      },
      "to": "0xea2F139F026F72AB7CDec19069F185C0714b4D6E",
      "value": {
        "_hex": "0x1f4"
      },
      "nonce": 0,
      "data": "0x",
      "r": "0xfb479b027ee5b1a1c145af17abc93f4739c8ed78f8d4e6abc7c5a0ee13a953d0",
      "s": "0x764b5e3a00a3453ce265ac897f81378291cebcbe17facea7c5c2041d1d77ebb7",
      "v": 28,
      "creates": null,
      "raw": "0xf86780850d3d37f23a83015f9094ea2f139f026f72ab7cdec19069f185c0714b4d6e8201f4801ca0fb479b027ee5b1a1c145af17abc93f4739c8ed78f8d4e6abc7c5a0ee13a953d0a0764b5e3a00a3453ce265ac897f81378291cebcbe17facea7c5c2041d1d77ebb7",
      "networkId": 0,
      "chainId": 0
    },
    {
      "hash": "0xbd851518aa77995918ac9c727b27af0cb9faaa4c05b29f9e2db6222d4e451d67",
      "blockHash": "0x3b09a8343e12bd684b70896d1c25263617e190fe0d4746198cf1a0d0d5390ab6",
      "blockNumber": 85914,
      "transactionIndex": 1,
      "confirmations": null,
      "from": "0x423F06030a6c726925816243446a11Ed6d40Ab99",
      "gasPrice": {
        "_hex": "0xba43b7400"
      },
      "gasLimit": {
        "_hex": "0x5208"
      },
      "to": "0xC47Aaa860008be6f65B58c6C6E02a84e666EfE31",
      "value": {
        "_hex": "0x173783294cfd38f0"
      },
      "nonce": 2,
      "data": "0x",
      "r": "0x1e37528fdc5ccd78d593a268df257aaabbbe361209cf74c3af8407c483863f3f",
      "s": "0x25cd32d90244b04fc700712fa6a021bd5305388b6ac71b95ab3f640e12af8404",
      "v": 27,
      "creates": null,
      "raw": "0xf86c02850ba43b740082520894c47aaa860008be6f65b58c6c6e02a84e666efe3188173783294cfd38f0801ba01e37528fdc5ccd78d593a268df257aaabbbe361209cf74c3af8407c483863f3fa025cd32d90244b04fc700712fa6a021bd5305388b6ac71b95ab3f640e12af8404",
      "networkId": 0,
      "chainId": 0
    }
  ]
}