{
  "hash": "0xa8bb65cc50c2e0cc8a0108746d8b5dcb84f400b67b160b7f34e7d77dbaa97bfa",
  "parentHash": "0x7c8dc539dcf9985bb90b788c5b9d7ba7b16b52805131c6394b039f90327639b7",
  "number": 84065,
  "timestamp": 1439544577,
  "nonce": "0x121eac48e7dfaee9",
  "difficulty": 2493668700118,
  "gasLimit": {
    "_hex": "0x2fefd8"
  },
  "gasUsed": {
    "_hex": "0x5208"
  },
  "miner": "0xF2d2AfF1320476cb8C6b607199D23175cc595693",
  "extraData": "0x476574682f76312e302e312f77696e646f77732f676f312e342e32",
  "transactions": [
    {
      "hash": "0x526a0bc70e708905eb9519fe492d4e5257acc16830ae5ee7830b043324d71269",
      "blockHash": "0xa8bb65cc50c2e0cc8a0108746d8b5dcb84f400b67b160b7f34e7d77dbaa97bfa",
      "blockNumber": 84065,
      "transactionIndex": 0,
      "confirmations": null,
      "from": "0xf48313D6892f75dCb41dFdf48901C9cb9B146ac8",
      "gasPrice": {
        "_hex": "0xe0cb7d688"
      },
      "gasLimit": {
        "_hex": "0x5208"
      },
      "to": "0x06725632199fccdc1Ec4F28e2c23C2b5144CFDA2",
      "value": {
        "_hex": "0x2386f26fc10000"
      },
      "nonce": 2,
      "data": "0x",
      "r": "0x69548f49fb7f64c7d3e5c355d3e6882038ae58f068575887c190ece37b75727c",
      "s": "0x0a57920591e090269911ea27c9b8f8c63f98d6ebea18d16ce9c66e985afdaa52",
      "v": 27,
      "creates": null,
      "raw": "0xf86b02850e0cb7d6888252089406725632199fccdc1ec4f28e2c23c2b5144cfda2872386f26fc10000801ba069548f49fb7f64c7d3e5c355d3e6882038ae58f068575887c190ece37b75727ca00a57920591e090269911ea27c9b8f8c63f98d6ebea18d16ce9c66e985afdaa52",
      "networkId": 0,
      "chainId": 0
    }
  ]
}