{
  "hash": "0x31d62c5c8987b8ac7877ffa255b21fe4dbe775391cc880ba26f9771f455bd0a0",
  "parentHash": "0x71a46193f0b1f5f3c7d310465e05215d098f7bfa6e3c620c3fdbb95483414c21",
  "number": 114686,
  "timestamp": 1440044571,
  "nonce": "0xa7695e6463bea53e",
  "difficulty": 4488027663778,
  "gasLimit": {
    "_hex": "0x2fefd8"
  },
  "gasUsed": {
    "_hex": "0x10c04"
  },
  "miner": "0x52bc44d5378309EE2abF1539BF71dE1b7d7bE3b5",
  "extraData": "0x476574682f76312e302e312d61383839306436312f6c696e75782f676f312e34",
  "transactions": [
    {
      "hash": "0x09bd2f86f763a0e0944674e7c7f35e5594077c55f3d6e4d16fd82bdc98391129",
      "blockHash": "0x31d62c5c8987b8ac7877ffa255b21fe4dbe775391cc880ba26f9771f455bd0a0",
      "blockNumber": 114686,
      "transactionIndex": 0,
      "confirmations": null,
      "from": "0xB0Eee1bF305686EcfDAF5FFac67FD7bDaF514d51",
      "gasPrice": {
        "_hex": "0xdb2816147"
      },
      "gasLimit": {
        "_hex": "0x15f90"
      },
      "to": "0x3edDc7ebC7db94f54b72D8Ed1F42cE6A527305bB",
      "value": {
        "_hex": "0x0"
      },
      "nonce": 0,
      "data": "0x5479f98b",
      "r": "0x12cea1315341ad0e3b81f7dae1f201ccd1d666801f0264a27c226ad2f9546e0c",
      "s": "0x73d1cb5877d209bd739091cced30b6d0ba5641812f45f645e5e0b84fb2eb7d07",
      "v": 27,
      "creates": null,
      "raw": "0xf86980850db281614783015f90943eddc7ebc7db94f54b72d8ed1f42ce6a527305bb80845479f98b1ba012cea1315341ad0e3b81f7dae1f201ccd1d666801f0264a27c226ad2f9546e0ca073d1cb5877d209bd739091cced30b6d0ba5641812f45f645e5e0b84fb2eb7d07",
      "networkId": 0,
      "chainId": 0
    },
    {
      "hash": "0xb366b3730a04bfe00de812a9974e454c1346c9d91f6e90adc0a2728e49697b0a",
      "blockHash": "0x31d62c5c8987b8ac7877ffa255b21fe4dbe775391cc880ba26f9771f455bd0a0",
      "blockNumber": 114686,
      "transactionIndex": 1,
      "confirmations": null,
      "from": "0x0B5Ec5ACa458C1693E5Abdc8cA6989c2CBFeB81b",
      "gasPrice": {
        "_hex": "0xced8c8de8"
      },
      "gasLimit": {
        "_hex": "0x15f90"
      },
      "to": "0x0a856CdC3EaFBAD120c51220d0F71d4Aa2Dee7AE",
      "value": {
        "_hex": "0xde0b6b3a7640000"
      },
      "nonce": 0,
      "data": "0x",
      "r": "0xbd62103b4ef6d8b8c8eac4c9bcdbe6234b5826b298e3cfaac47c53b9fc1b6afa",
      "s": "0x5518fae245c0c70a2b227663a532dea00ea205e0cdd5a2e00e5fb7a2015562b7",
      "v": 28,
      "creates": null,
      "raw": "0xf86d80850ced8c8de883015f90940a856cdc3eafbad120c51220d0f71d4aa2dee7ae880de0b6b3a7640000801ca0bd62103b4ef6d8b8c8eac4c9bcdbe6234b5826b298e3cfaac47c53b9fc1b6afaa05518fae245c0c70a2b227663a532dea00ea205e0cdd5a2e00e5fb7a2015562b7",
      "networkId": 0,
      "chainId": 0
    }
  ]
}