{
  "hash": "0xe242730ffd08d243f4fc91e823c299503344d47a843743523ac7b157ed36fdad",
  "parentHash": "0x6ba4a616c9e04e41b38d88cf2cda4fda451c3b7e4cdf89e9e5da34222f8a56a0",
  "number": 92827,
  "timestamp": 1439677639,
  "nonce": "0x9b295c36cf4db1bc",
  "difficulty": 3642219797709,
  "gasLimit": {
    "_hex": "0x2fefd8"
  },
  "gasUsed": {
    "_hex": "0x5208"
  },
  "miner": "0xe6A7a1d47ff21B6321162AEA7C6CB457D5476Bca",
  "extraData": "0x476574682f76312e302e312d38326566323666362f6c696e75782f676f312e34",
  "transactions": [
    {
      "hash": "0x113adc22f74d7b3f55ea3a34119dadd7a14e27f5f5b0af6ea69ccb716ae2f266",
      "blockHash": "0xe242730ffd08d243f4fc91e823c299503344d47a843743523ac7b157ed36fdad",
      "blockNumber": 92827,
      "transactionIndex": 0,
      "confirmations": null,
      "from": "0xee5379D0c1ca47327368027455074C26D9952628",
      "gasPrice": {
        "_hex": "0xd207767c6"
      },
      "gasLimit": {
        "_hex": "0x15f90"
      },
      "to": "0xeBe03d9d305540BEe866FC154eFD8C28eCA41A9b",
      "value": {
        "_hex": "0xd4e2a0b9a67e0000"
      },
      "nonce": 11,
      "data": "0x",
      "r": "0x084a91d1d667c3281a8ed9de7fd2e6218eb048726204f65f09a351a3dbeea6fd",
      "s": "0x5917b54af6e22dfd73bd68e44bf432f65e7db7aa01e0a90abdef86d427a11089",
      "v": 28,
      "creates": null,
      "raw": "0xf86d0b850d207767c683015f9094ebe03d9d305540bee866fc154efd8c28eca41a9b88d4e2a0b9a67e0000801ca0084a91d1d667c3281a8ed9de7fd2e6218eb048726204f65f09a351a3dbeea6fda05917b54af6e22dfd73bd68e44bf432f65e7db7aa01e0a90abdef86d427a11089",
      "networkId": 0,
      "chainId": 0
    }
  ]
}