{
  "hash": "0xb46d4126b4eb6b16af19285b942046a486d23d289d45cb88389359d0b234506b",
  "parentHash": "0x618932c54eabea64f23d0080c61a78ea5526fee210b968562ade71cba84eacac",
  "number": 71377,
  "timestamp": 1439334935,
  "nonce": "0x124f9b32fd223177",
  "difficulty": 2180437029839,
  "gasLimit": {
    "_hex": "0x2fefd8"
  },
  "gasUsed": {
    "_hex": "0x152d1"
  },
  "miner": "0x458F183347F45a4001807728A89F31E9Da9D4A58",
  "extraData": "0x476574682f76312e302e312d38326566323666362f6c696e75782f676f312e34",
  "transactions": [
    {
      "hash": "0x54a2bb4308cd8c5803212dabcbe617d3ac09e736d3059575fc12fbebfdf1263a",
      "blockHash": "0xb46d4126b4eb6b16af19285b942046a486d23d289d45cb88389359d0b234506b",
      "blockNumber": 71377,
      "transactionIndex": 0,
      "confirmations": null,
      "from": "0x17580B766f7453525ca4C6A88b01b50570EA088C",
      "gasPrice": {
        "_hex": "0xdf5f5debe"
      },
      "gasLimit": {
        "_hex": "0x61a80"
      },
      "to": "0x5Fe5B7546D1628f7348B023A0393de1FC825A4fD",
      "value": {
        "_hex": "0x4563918244f40000"
      },
      "nonce": 167,
      "data": "0xb595b8b50000000000000000000000000000000000000000000000000000000000000001",
      "r": "0x25d2dfbe91dac4b9362a0c523950c6d9280a042616b815ea45a1674cefac4701",
      "s": "0x0d3d24f159364b304239efd9c01fd5d3a821189702415285d1c81ab98750eff6",
      "v": 28,
      "creates": null,
      "raw": "0xf89281a7850df5f5debe83061a80945fe5b7546d1628f7348b023a0393de1fc825a4fd884563918244f40000a4b595b8b500000000000000000000000000000000000000000000000000000000000000011ca025d2dfbe91dac4b9362a0c523950c6d9280a042616b815ea45a1674cefac4701a00d3d24f159364b304239efd9c01fd5d3a821189702415285d1c81ab98750eff6",
      "networkId": 0,
      "chainId": 0
    },
    {
      "hash": "0x6f0d039600a7a5e78e984a5d60d2c0869251f13fe4e3240fa8be7dfcf22f3d30",
      "blockHash": "0xb46d4126b4eb6b16af19285b942046a486d23d289d45cb88389359d0b234506b",
      "blockNumber": 71377,
      "transactionIndex": 1,
      "confirmations": null,
      "from": "0xa70a9a7040d542C632D8e0bE7c5513A8a5Bbc752",
      "gasPrice": {
        "_hex": "0xcc0059786"
      },
      "gasLimit": {
        "_hex": "0x5208"
      },
      "to": "0x32Be343B94f860124dC4fEe278FDCBD38C102D88",
      "value": {
        "_hex": "0x796a28bb0f390400"
      },
      "nonce": 15,
      "data": "0x",
      "r": "0x5299cacf05ff4c3ecd46fa784a89bbc32a6b9c11978b157c37b2727fae930058",
      "s": "0x48d88be13b8b4ecafa4553da4575c05e712d017ec7f8dfde3251bd48424e8e2b",
      "v": 28,
      "creates": null,
      "raw": "0xf86c0f850cc00597868252089432be343b94f860124dc4fee278fdcbd38c102d8888796a28bb0f390400801ca05299cacf05ff4c3ecd46fa784a89bbc32a6b9c11978b157c37b2727fae930058a048d88be13b8b4ecafa4553da4575c05e712d017ec7f8dfde3251bd48424e8e2b",
      "networkId": 0,
      "chainId": 0
    },
    {
      "hash": "0x409354825ca0674fca0c92066e18da0ed0eb22e3af15f7e557fdae0e8c3a0b2d",
      "blockHash": "0xb46d4126b4eb6b16af19285b942046a486d23d289d45cb88389359d0b234506b",
      "blockNumber": 71377,
      "transactionIndex": 2,
      "confirmations": null,
      "from": "0x5c59E28366c83f1d262567c1c529185146e68b16",
      "gasPrice": {
        "_hex": "0xcc0059786"
      },
      "gasLimit": {
        "_hex": "0x5208"
      },
      "to": "0x32Be343B94f860124dC4fEe278FDCBD38C102D88",
      "value": {
        "_hex": "0x1b1acefd80cdfe0000"
      },
      "nonce": 2,
      "data": "0x",
      "r": "0xb39532508490beb4b0f9bd6df6fe39833d5af4c2792589acc432f205fcc243f9",
      "s": "0x594a3963b3f6b37fab63335d0c3fa16e046889d0f5587ad7ca915d3a580b29be",
      "v": 28,
      "creates": null,
      "raw": "0xf86d02850cc00597868252089432be343b94f860124dc4fee278fdcbd38c102d88891b1acefd80cdfe0000801ca0b39532508490beb4b0f9bd6df6fe39833d5af4c2792589acc432f205fcc243f9a0594a3963b3f6b37fab63335d0c3fa16e046889d0f5587ad7ca915d3a580b29be",
      "networkId": 0,
      "chainId": 0
    }
  ]
}