{
  "hash": "0x114044531619816ffe1c363c65064fa720b9a306385f8059e22cda467fb0982c",
  "parentHash": "0x1b34dae61ff4026ffdc813fec823dbd00c3407416226928e8ad6ed81627351ed",
  "number": 47405,
  "timestamp": 1438939712,
  "nonce": "0xf47ec0dc838cf5dd",
  "difficulty": 1452379570924,
  "gasLimit": {
    "_hex": "0xb9cf"
  },
  "gasUsed": {
    "_hex": "0x5208"
  },
  "miner": "0xA09503A48cDB1bb521dD4F5a921F877bC7D8DfA0",
  "extraData": "0x476574682f76312e302e312f77696e646f77732f676f312e342e32",
  "transactions": [
    {
      "hash": "0xdd94c5255fdec4e533103f6cbe5051a088e638eea61a7bd2e13d2e6ad5a17c8b",
      "blockHash": "0x114044531619816ffe1c363c65064fa720b9a306385f8059e22cda467fb0982c",
      "blockNumber": 47405,
      "transactionIndex": 0,
      "confirmations": null,
      "from": "0xe6A7a1d47ff21B6321162AEA7C6CB457D5476Bca",
      "gasPrice": {
        "_hex": "0x1ad7811c80"
      },
      "gasLimit": {
        "_hex": "0x5208"
      },
      "to": "0xc47d9E6C75d388Aeb92574429dAD43A148f2f3ea",
      "value": {
        "_hex": "0x120430f8af472c020"
      },
      "nonce": 133,
      "data": "0x",
      "r": "0x48cc0c83c3ae8241c58bf8c1785cfa48688ff26622742e133167a0522f7621cd",
      "s": "0x1a14b31d30138c8235b1324c752a3ba3450a022d0ca12e746dc8faaf39be436f",
      "v": 27,
      "creates": null,
      "raw": "0xf86e8185851ad7811c8082520894c47d9e6c75d388aeb92574429dad43a148f2f3ea890120430f8af472c020801ba048cc0c83c3ae8241c58bf8c1785cfa48688ff26622742e133167a0522f7621cda01a14b31d30138c8235b1324c752a3ba3450a022d0ca12e746dc8faaf39be436f",
      "networkId": 0,
      "chainId": 0
    }
  ]
}