{
  "hash": "0x491c4e40971d984c13583022a95516301e4e4fdcbb6b7bb680b94b6b17e1b6a7",
  "parentHash": "0xf19569ba5a373331dd83042c0662afbd67f7390a7552c089d9486b2895248fe1",
  "number": 46672,
  "timestamp": 1438927207,
  "nonce": "0xdeed2846f1fc5e8a",
  "difficulty": 1461755823368,
  "gasLimit": {
    "_hex": "0x7037"
  },
  "gasUsed": {
    "_hex": "0x5208"
  },
  "miner": "0xC759dc67E0c3816fdC56A2f5bb29920fc07e767D",
  "extraData": "0x476574682f76312e302e312f77696e646f77732f676f312e342e32",
  "transactions": [
    {
      "hash": "0xbac662974e392c2bdbf2ad25427f69076dece2cafdcdf27850f15af86437669f",
      "blockHash": "0x491c4e40971d984c13583022a95516301e4e4fdcbb6b7bb680b94b6b17e1b6a7",
      "blockNumber": 46672,
      "transactionIndex": 0,
      "confirmations": null,
      "from": "0x4BD5f0Ee173C81d42765154865EE69361b6aD189",
      "gasPrice": {
        "_hex": "0x12309ce54000"
      },
      "gasLimit": {
        "_hex": "0x5b04"
      },
      "to": "0xFD7c9117BbEB649d9b37B3D3C9917f7c12f526B3",
      "value": {
        "_hex": "0x8ac7230489e80000"
      },
      "nonce": 4,
      "data": "0x",
      "r": "0x6208e180093689e9fbc4f4915fff7ed9d11de757a4495c98354216acf84a3ff8",
      "s": "0x51c31298f725c5841bacc9cb787e6733d80f518c07a094774d650c3795b1c307",
      "v": 27,
      "creates": null,
      "raw": "0xf86d048612309ce54000825b0494fd7c9117bbeb649d9b37b3d3c9917f7c12f526b3888ac7230489e80000801ba06208e180093689e9fbc4f4915fff7ed9d11de757a4495c98354216acf84a3ff8a051c31298f725c5841bacc9cb787e6733d80f518c07a094774d650c3795b1c307",
      "networkId": 0,
      "chainId": 0
    }
  ]
}