{
  "hash": "0x82786850a5f9d4f1527889f7d3f1c4b4fe1a15b9ffa153c40f48565de61390a0",
  "parentHash": "0x327b3c4a1da97735462c957934cf90cb85699a75c4decc4647159e5c1639db10",
  "number": 107730,
  "timestamp": 1439927855,
  "nonce": "0xcba2a660be5558e3",
  "difficulty": 4374863688775,
  "gasLimit": {
    "_hex": "0x2fefd8"
  },
  "gasUsed": {
    "_hex": "0x5208"
  },
  "miner": "0x623d2411c3bb3340784155F9a688b0085251aB5c",
  "extraData": "0x",
  "transactions": [
    {
      "hash": "0x75ca82b3005698e545bb55bb36b010fc3a4b7684c5a23d2769dd49952ec1fc21",
      "blockHash": "0x82786850a5f9d4f1527889f7d3f1c4b4fe1a15b9ffa153c40f48565de61390a0",
      "blockNumber": 107730,
      "transactionIndex": 0,
      "confirmations": null,
      "from": "0xa70a9a7040d542C632D8e0bE7c5513A8a5Bbc752",
      "gasPrice": {
        "_hex": "0xcbb3d76b9"
      },
      "gasLimit": {
        "_hex": "0x5208"
      },
      "to": "0x32Be343B94f860124dC4fEe278FDCBD38C102D88",
      "value": {
        "_hex": "0x455f7d22d75b8800"
      },
      "nonce": 259,
      "data": "0x",
      "r": "0xf334ec09a577ca391b2064528b9f0c3800ed11fa3f96bd2963b3c32d5073e786",
      "s": "0x3adcafc33c3cf0a2454fd3eb191d640701d77a9bea5012db261238d4ddd5fe01",
      "v": 27,
      "creates": null,
      "raw": "0xf86e820103850cbb3d76b98252089432be343b94f860124dc4fee278fdcbd38c102d8888455f7d22d75b8800801ba0f334ec09a577ca391b2064528b9f0c3800ed11fa3f96bd2963b3c32d5073e786a03adcafc33c3cf0a2454fd3eb191d640701d77a9bea5012db261238d4ddd5fe01",
      "networkId": 0,
      "chainId": 0
    }
  ]
}