{
  "hash": "0xb98cce25f64ed3eeadddc360b3f60d8b5f889d9f25332c834df111f686a53a0b",
  "parentHash": "0xf182ed1eedac503f5e983c23f7a9a926b3833d4c9311c181ecb853bd78c0b269",
  "number": 117297,
  "timestamp": 1440106955,
  "nonce": "0x786f030d47066d4d",
  "difficulty": 4321075879460,
  "gasLimit": {
    "_hex": "0x2fefd8"
  },
  "gasUsed": {
    "_hex": "0xafe2"
  },
  "miner": "0xe6A7a1d47ff21B6321162AEA7C6CB457D5476Bca",
  "extraData": "0xd783010002844765746887676f312e342e32856c696e7578",
  "transactions": [
    {
      "hash": "0x1d9765f0a5a71907382b6882cc214adc1ba89828a792a5a13ecb648f6400706a",
      "blockHash": "0xb98cce25f64ed3eeadddc360b3f60d8b5f889d9f25332c834df111f686a53a0b",
      "blockNumber": 117297,
      "transactionIndex": 0,
      "confirmations": null,
      "from": "0xAcE365e4cD93314Ccf1C389F17216FFC5966BB1F",
      "gasPrice": {
        "_hex": "0xcea4060ea"
      },
      "gasLimit": {
        "_hex": "0x186a0"
      },
      "to": "0x449C5B639e9852aDA644ffaACfE325dFcE6E6E0A",
      "value": {
        "_hex": "0x0"
      },
      "nonce": 6,
      "data": "0x34af2ade00000000000000000000000000000000000000000000000000000000000003e8000000000000000000000000317c5c2a8c84b82fd77f5cc32f10cc1c1f25efba",
      "r": "0xf7b51de2d8e7aeac129616a8bd2d6d770eda4f2c75a603b0d6de9b56c581da47",
      "s": "0x235b1d673f2effa53048064864d990d08e1e01a9249410221997ccd105fc81c2",
      "v": 27,
      "creates": null,
      "raw": "0xf8aa06850cea4060ea830186a094449c5b639e9852ada644ffaacfe325dfce6e6e0a80b84434af2ade00000000000000000000000000000000000000000000000000000000000003e8000000000000000000000000317c5c2a8c84b82fd77f5cc32f10cc1c1f25efba1ba0f7b51de2d8e7aeac129616a8bd2d6d770eda4f2c75a603b0d6de9b56c581da47a0235b1d673f2effa53048064864d990d08e1e01a9249410221997ccd105fc81c2",
      "networkId": 0,
      "chainId": 0
    }
  ]
}