{
  "hash": "0xab9c0f6fae52ddb7ba0816884437168a6ba065ff90ddf790b98f8be215136ddd",
  "parentHash": "0xf8106a2847c17c51fd581d1aad9aa0e7e5a42dc8f8d0bac0b2b7ca164b007203",
  "number": 106016,
  "timestamp": 1439897273,
  "nonce": "0x8f9915597dc3474b",
  "difficulty": 4466421377695,
  "gasLimit": {
    "_hex": "0x2fefd8"
  },
  "gasUsed": {
    "_hex": "0x5208"
  },
  "miner": "0xbb7B8287f3F0a933474a79eAe42CBCa977791171",
  "extraData": "0x476574682f4c5649562f76312e302e312f6c696e75782f676f312e342e32",
  "transactions": [
    {
      "hash": "0x4a955f47123c92e458839eadd04675970caa6884c1e21c92398161c424be6e46",
      "blockHash": "0xab9c0f6fae52ddb7ba0816884437168a6ba065ff90ddf790b98f8be215136ddd",
      "blockNumber": 106016,
      "transactionIndex": 0,
      "confirmations": null,
      "from": "0x53937BE115FF5C49519ca11B9482C21b73FbB83F",
      "gasPrice": {
        "_hex": "0xba43b7400"
      },
      "gasLimit": {
        "_hex": "0x5265"
      },
      "to": "0x0a0a0a169A784a9B524d0d40f03552053B360F21",
      "value": {
        "_hex": "0x8980498152920000"
      },
      "nonce": 0,
      "data": "0x",
      "r": "0xf3d765ab0da26cce902cbc9331acdfd2c2466cec7ef1d0b88bbe2e0c8d04b8b4",
      "s": "0x9d7abee4cd8862076a51f8a5d770c3625ed4e0a4dcb365cebb8f3ad6f472477e",
      "v": 27,
      "creates": null,
      "raw": "0xf86c80850ba43b7400825265940a0a0a169a784a9b524d0d40f03552053b360f21888980498152920000801ba0f3d765ab0da26cce902cbc9331acdfd2c2466cec7ef1d0b88bbe2e0c8d04b8b4a09d7abee4cd8862076a51f8a5d770c3625ed4e0a4dcb365cebb8f3ad6f472477e",
      "networkId": 0,
      "chainId": 0
    }
  ]
}