{
  "hash": "0xdea31f06ff0a1459e19b66d3ed8605396d6c141ef70793a47084b83eb2276ddb",
  "parentHash": "0x4fec172ae634ca688ef6b0034f670dda02496d4e08341f56315a651751ca75ce",
  "number": 69456,
  "timestamp": 1439304374,
  "nonce": "0x6590b1435ba5f2f5",
  "difficulty": 2065877565134,
  "gasLimit": {
    "_hex": "0x2fefd2"
  },
  "gasUsed": {
    "_hex": "0x56cc"
  },
  "miner": "0xf927a40C8B7F6E07c5af7FA2155B4864a4112B13",
  "extraData": "0x",
  "transactions": [
    {
      "hash": "0x1ae215c99135820036d8a4600ceb6934606fe0bedd069cc537543c51f6cb27bc",
      "blockHash": "0xdea31f06ff0a1459e19b66d3ed8605396d6c141ef70793a47084b83eb2276ddb",
      "blockNumber": 69456,
      "transactionIndex": 0,
      "confirmations": null,
      "from": "0xcD063B3081Ea55535E5b60a21eff7f14E785A877",
      "gasPrice": {
        "_hex": "0xdff4bebf9"
      },
      "gasLimit": {
        "_hex": "0x15f90"
      },
      "to": "0x9E15f66B34edc3262796ef5E4D27139C931223f0",
      "value": {
        "_hex": "0x0"
      },
      "nonce": 1,
      "data": "0x55c87eb00000000000000000000000000000000000000000000000008ac7230489e80000",
      "r": "0xd798295eb5342e36c99a60fb35558965203cf4afc5d72b69a0af3c59f26a0087",
      "s": "0x6145fd237b1db8135f75a2dd31a3536393998de058a137b4627bf4a77d7b268c",
      "v": 27,
      "creates": null,
      "raw": "0xf88901850dff4bebf983015f90949e15f66b34edc3262796ef5e4d27139c931223f080a455c87eb00000000000000000000000000000000000000000000000008ac7230489e800001ba0d798295eb5342e36c99a60fb35558965203cf4afc5d72b69a0af3c59f26a0087a06145fd237b1db8135f75a2dd31a3536393998de058a137b4627bf4a77d7b268c",
      "networkId": 0,
      "chainId": 0
    }
  ]
}