{
  "hash": "0xe0c42f5012a112261e22f2e1bee8c06e07928beed90089aed5c6ee0cacad2072",
  "parentHash": "0x410ea05c6ceb7ab7f0abdcdbe6d683a8cc03cb3b5c5647105f9c5b6823aea7c0",
  "number": 49098,
  "timestamp": 1438967944,
  "nonce": "0x9382db35ff6f979a",
  "difficulty": 1480003486640,
  "gasLimit": {
    "_hex": "0x25dac"
  },
  "gasUsed": {
    "_hex": "0x546c"
  },
  "miner": "0x107C98584d4B18bC54E1D74F4d7a0bF505Ca466f",
  "extraData": "0x476574682f76312e302e312f6c696e75782f676f312e342e32",
  "transactions": [
    {
      "hash": "0x67259d902acb9483ccf6a6171326cfd2e6b4d4f6398a58be31dc726db61dff8d",
      "blockHash": "0xe0c42f5012a112261e22f2e1bee8c06e07928beed90089aed5c6ee0cacad2072",
      "blockNumber": 49098,
      "transactionIndex": 0,
      "confirmations": null,
      "from": "0xb884add88d83dC564Ab8E0E02cbDB63919Aea844",
      "gasPrice": {
        "_hex": "0x110c8f7d8de"
      },
      "gasLimit": {
        "_hex": "0xc350"
      },
      "to": "0x2910543Af39abA0Cd09dBb2D50200b3E800A63D2",
      "value": {
        "_hex": "0x3635c9adc5dea00000"
      },
      "nonce": 0,
      "data": "0x454e425a4d57575038",
      "r": "0x9051535e669d31b45cfd326f478a45162e212e08e7dc4d58c0504e3a5c16cdc7",
      "s": "0x75df6b549ff1c8d75a5cdeaef6ed341964bd51242b15943dd2874e66b38cb027",
      "v": 28,
      "creates": null,
      "raw": "0xf87780860110c8f7d8de82c350942910543af39aba0cd09dbb2d50200b3e800a63d2893635c9adc5dea0000089454e425a4d575750381ca09051535e669d31b45cfd326f478a45162e212e08e7dc4d58c0504e3a5c16cdc7a075df6b549ff1c8d75a5cdeaef6ed341964bd51242b15943dd2874e66b38cb027",
      "networkId": 0,
      "chainId": 0
    }
  ]
}