{
  "hash": "0x99f6389bf05aa385e6eede71459288304c41605feedc1dc6d7f815459ce76f32",
  "parentHash": "0xad8cdf29ad36cfe0ee818f8f51fd8404307bdd620ecc437952f6c11bb552614f",
  "number": 119798,
  "timestamp": 1440148828,
  "nonce": "0x9d9845cc049a1470",
  "difficulty": 4407139360063,
  "gasLimit": {
    "_hex": "0x2fefd8"
  },
  "gasUsed": {
    "_hex": "0xa410"
  },
  "miner": "0xf8E0CA3Ed80bd541b94BEdCf259e8CF2141A9523",
  "extraData": "0x",
  "transactions": [
    {
      "hash": "0x36f9a947dc54c5a60552a4e3f56203b5588fdeb7ea8dd3cc2c0a7c04163f0fa8",
      "blockHash": "0x99f6389bf05aa385e6eede71459288304c41605feedc1dc6d7f815459ce76f32",
      "blockNumber": 119798,
      "transactionIndex": 0,
      "confirmations": null,
      "from": "0x007f7f58D3eb5b7510A301eCC749FC1fCDDBE14D",
      "gasPrice": {
        "_hex": "0xba43b7400"
      },
      "gasLimit": {
        "_hex": "0x15f90"
      },
      "to": "0xb1abce2918E21ddb93AA452731a12672A3d9F75a",
      "value": {
        "_hex": "0x4563918244f40000"
      },
      "nonce": 363,
      "data": "0x",
      "r": "0x421385947116ee917f13a5b4cdbfa9bd3ded00b2596b967ecbbfceed18f2f382",
      "s": "0x2525d14c64a1ae5087219471e5c0c29a9dc2b3129a1ef7d2036c49225bb59fe7",
      "v": 27,
      "creates": null,
      "raw": "0xf86f82016b850ba43b740083015f9094b1abce2918e21ddb93aa452731a12672a3d9f75a884563918244f40000801ba0421385947116ee917f13a5b4cdbfa9bd3ded00b2596b967ecbbfceed18f2f382a02525d14c64a1ae5087219471e5c0c29a9dc2b3129a1ef7d2036c49225bb59fe7",
      "networkId": 0,
      "chainId": 0
    },
    {
      "hash": "0x82940ca5be19d32158a31b195f8423adecf7574c4b18fd79d98fb8c90cb8f98c",
      "blockHash": "0x99f6389bf05aa385e6eede71459288304c41605feedc1dc6d7f815459ce76f32",
      "blockNumber": 119798,
      "transactionIndex": 1,
      "confirmations": null,
      "from": "0x8B454d830feF179e66206840F8F3D1d83bC32b17",
      "gasPrice": {
        "_hex": "0xba43b7400"
      },
      "gasLimit": {
        "_hex": "0x15f90"
      },
      "to": "0x1543667B9bad3e41865C3233E1764d8dda8E1F3D",
      "value": {
        "_hex": "0x5188315f776b80000"
      },
      "nonce": 18,
      "data": "0x",
      "r": "0xcb6b2a50b64054ae14efc86ddd969942165462cb6052eb1cdb5347485adc02e7",
      "s": "0x34fde378af6271adb28a16f648fa08ea3c0a326def56ee3b263cf461e40d9cb5",
      "v": 28,
      "creates": null,
      "raw": "0xf86e12850ba43b740083015f90941543667b9bad3e41865c3233e1764d8dda8e1f3d8905188315f776b80000801ca0cb6b2a50b64054ae14efc86ddd969942165462cb6052eb1cdb5347485adc02e7a034fde378af6271adb28a16f648fa08ea3c0a326def56ee3b263cf461e40d9cb5",
      "networkId": 0,
      "chainId": 0
    }
  ]
}