{
  "hash": "0x3edbaec7b23cc42e712a221d8d5eef03cd816f6504c95f2184f3f09140b6febb",
  "parentHash": "0x3d5c299cf4434525c79203a0eca5bb0296496660f8f71305e0cfdbc893b0f9f4",
  "number": 50940,
  "timestamp": 1438996917,
  "nonce": "0x6954d383c4ed298c",
  "difficulty": 1550689799366,
  "gasLimit": {
    "_hex": "0x84a2e"
  },
  "gasUsed": {
    "_hex": "0x5208"
  },
  "miner": "0xbb7B8287f3F0a933474a79eAe42CBCa977791171",
  "extraData": "0x476574682f4c5649562f76312e302e312f6c696e75782f676f312e342e32",
  "transactions": [
    {
      "hash": "0x3af4116e65dce46cc4dcbe7dbfc8e7c26d9573dfa4a8d254c8baf177fc3b5b75",
      "blockHash": "0x3edbaec7b23cc42e712a221d8d5eef03cd816f6504c95f2184f3f09140b6febb",
      "blockNumber": 50940,
      "transactionIndex": 0,
      "confirmations": null,
      "from": "0xc8ebccC5F5689Fa8659d83713341e5aD19349448",
      "gasPrice": {
        "_hex": "0xdefaf436c"
      },
      "gasLimit": {
        "_hex": "0x15f90"
      },
      "to": "0x7d0D6EeD5F643Be25a49604Ef142AD987265D14C",
      "value": {
        "_hex": "0x3635c9adc5dea00000"
      },
      "nonce": 7,
      "data": "0x",
      "r": "0xb00d065ad636a67633aa4980644bbeecb378ce2222405b6c0eaee9ceaae1ccb6",
      "s": "0x10fdd46c52be41b156fd360cc9b7ad37f29ec430488b8929fb358e3211956363",
      "v": 27,
      "creates": null,
      "raw": "0xf86e07850defaf436c83015f90947d0d6eed5f643be25a49604ef142ad987265d14c893635c9adc5dea00000801ba0b00d065ad636a67633aa4980644bbeecb378ce2222405b6c0eaee9ceaae1ccb6a010fdd46c52be41b156fd360cc9b7ad37f29ec430488b8929fb358e3211956363",
      "networkId": 0,
      "chainId": 0
    }
  ]
}