{
  "hash": "0xe713838170a582a0babca59784d27c1eec7421189f5647427c0620e7d38bde0e",
  "parentHash": "0x0d591a1e45e9370f4f4b6bc35573fb290c3cfdb835d9cf4635b233ad3cda09fb",
  "number": 67263,
  "timestamp": 1439269041,
  "nonce": "0x45b63d5e052042c9",
  "difficulty": 1923293697445,
  "gasLimit": {
    "_hex": "0x2fefd8"
  },
  "gasUsed": {
    "_hex": "0x49c9a"
  },
  "miner": "0xD6D327d45e2F3bddBc5DEA12815F871d4375bd25",
  "extraData": "0x476574682f76312e302e312d38326566323666362f6c696e75782f676f312e34",
  "transactions": [
    {
      "hash": "0xa753fb67fed3305a50202d7c72570edd2c54a3eaed616168dcbb24684731942d",
      "blockHash": "0xe713838170a582a0babca59784d27c1eec7421189f5647427c0620e7d38bde0e",
      "blockNumber": 67263,
      "transactionIndex": 0,
      "confirmations": null,
      "from": "0xD3221E91D252E8f4ec403E46ae6478b7EBaC265c",
      "gasPrice": {
        "_hex": "0x746a528800"
      },
      "gasLimit": {
        "_hex": "0x5b04"
      },
      "to": "0x0d187496799a43E7c43e4324026E32d1Dc80D8E4",
      "value": {
        "_hex": "0x381377f"
      },
      "nonce": 4,
      "data": "0x",
      "r": "0x4e4ce9d0607e5e53db161196350235f8fcda4e028867236ac5139d4fd00b3dbb",
      "s": "0x463aea6e7bd26cd68020b78282d57a543495b2872e9cd177d462c54725ad06ab",
      "v": 27,
      "creates": null,
      "raw": "0xf8680485746a528800825b04940d187496799a43e7c43e4324026e32d1dc80d8e4840381377f801ba04e4ce9d0607e5e53db161196350235f8fcda4e028867236ac5139d4fd00b3dbba0463aea6e7bd26cd68020b78282d57a543495b2872e9cd177d462c54725ad06ab",
      "networkId": 0,
      "chainId": 0
    },
    {
      "hash": "0x36ad43dfc870cee29e96b97ffd14d9318e7ff2b29a40c4c2b3a193b2b78b4ce3",
      "blockHash": "0xe713838170a582a0babca59784d27c1eec7421189f5647427c0620e7d38bde0e",
      "blockNumber": 67263,
      "transactionIndex": 1,
      "confirmations": null,
      "from": "0xB100987e77FEbA6F022dBd22B80B008e35d3Ff2E",
      "gasPrice": {
        "_hex": "0xd49e687ab"
      },
      "gasLimit": {
        "_hex": "0xf4240"
      },
      "to": null,
      "value": {
        "_hex": "0x0"
      },
      "nonce": 17,
      "data": "0x6060604052600660006000505560026001600050555b33600260006101000a81548173ffffffffffffffffffffffffffffffffffffffff021916908302179055505b6102ea806100506000396000f30060606040526000357c01000000000000000000000000000000000000000000000000000000009004806341c0e1b5146100655780635ec01e4d14610072578063a856f35914610093578063b189fd4c146100a6578063c2ca0ac5146100d357610063565b005b6100706004506100e6565b005b61007d6004506102d8565b6040518082815260200191505060405180910390f35b6100a46004803590602001506101a2565b005b6100b760048035906020015061017a565b604051808263ffffffff16815260200191505060405180910390f35b6100e460048035906020015061021f565b005b600260009054906101000a900473ffffffffffffffffffffffffffffffffffffffff1673ffffffffffffffffffffffffffffffffffffffff163373ffffffffffffffffffffffffffffffffffffffff16141561017757600260009054906101000a900473ffffffffffffffffffffffffffffffffffffffff1673ffffffffffffffffffffffffffffffffffffffff16ff5b5b565b60008160405180828152602001915050604051809103902060019004905061019d565b919050565b60406040519081016040528082815260200143815260200150600360005060003373ffffffffffffffffffffffffffffffffffffffff16815260200190815260200160002060005060008201518160000160006101000a81548163ffffffff02191690830217905550602082015181600101600050559050505b50565b6000600360005060003373ffffffffffffffffffffffffffffffffffffffff1681526020019081526020016000206000509050604d6004600050819055506000600050548160010160005054014310806102a157508060000160009054906101000a900463ffffffff1663ffffffff166102988361017a565b63ffffffff1614155b156102b65760586004600050819055506102d4565b60636004600050819055508160046000828282505418925050819055505b5050565b600060046000505490506102e7565b9056",
      "r": "0xd23469c2882d7905b054d277f3ded0c8faef2bdfcf69966b4855ceb8213b57ed",
      "s": "0x0d5320c65c2d0659ed7f1abd6b5150d47ab4e38eda18828c2e5cbc32dd78772f",
      "v": 28,
      "creates": "0xD251a133116194Faa5aD2Bf40F4baF2Aa97D2ae4",
      "raw": "0xf9038d11850d49e687ab830f42408080b9033a6060604052600660006000505560026001600050555b33600260006101000a81548173ffffffffffffffffffffffffffffffffffffffff021916908302179055505b6102ea806100506000396000f30060606040526000357c01000000000000000000000000000000000000000000000000000000009004806341c0e1b5146100655780635ec01e4d14610072578063a856f35914610093578063b189fd4c146100a6578063c2ca0ac5146100d357610063565b005b6100706004506100e6565b005b61007d6004506102d8565b6040518082815260200191505060405180910390f35b6100a46004803590602001506101a2565b005b6100b760048035906020015061017a565b604051808263ffffffff16815260200191505060405180910390f35b6100e460048035906020015061021f565b005b600260009054906101000a900473ffffffffffffffffffffffffffffffffffffffff1673ffffffffffffffffffffffffffffffffffffffff163373ffffffffffffffffffffffffffffffffffffffff16141561017757600260009054906101000a900473ffffffffffffffffffffffffffffffffffffffff1673ffffffffffffffffffffffffffffffffffffffff16ff5b5b565b60008160405180828152602001915050604051809103902060019004905061019d565b919050565b60406040519081016040528082815260200143815260200150600360005060003373ffffffffffffffffffffffffffffffffffffffff16815260200190815260200160002060005060008201518160000160006101000a81548163ffffffff02191690830217905550602082015181600101600050559050505b50565b6000600360005060003373ffffffffffffffffffffffffffffffffffffffff1681526020019081526020016000206000509050604d6004600050819055506000600050548160010160005054014310806102a157508060000160009054906101000a900463ffffffff1663ffffffff166102988361017a565b63ffffffff1614155b156102b65760586004600050819055506102d4565b60636004600050819055508160046000828282505418925050819055505b5050565b600060046000505490506102e7565b90561ca0d23469c2882d7905b054d277f3ded0c8faef2bdfcf69966b4855ceb8213b57eda00d5320c65c2d0659ed7f1abd6b5150d47ab4e38eda18828c2e5cbc32dd78772f",
      "networkId": 0,
      "chainId": 0
    }
  ]
}