{
  "hash": "0x7e4e4e7089673ddaa2092147be08542141e57e33726e33b5cb51c836b9bf68e0",
  "parentHash": "0x28af78a5e4cd7adde98b28f422a93eebe450c1162d859794b0b37cfa18cf0ecb",
  "number": 90771,
  "timestamp": 1439645258,
  "nonce": "0xf19b8cc482bd9edc",
  "difficulty": 3385820369447,
  "gasLimit": {
    "_hex": "0x2fefd8"
  },
  "gasUsed": {
    "_hex": "0x5208"
  },
  "miner": "0xEF247E639d49461D25F57e9362CadE3120910Ce0",
  "extraData": "0x476574682f76312e302e312f6c696e75782f676f312e342e32",
  "transactions": [
    {
      "hash": "0x91f1ddd62c0618ea0a464d2599ad1475200cbea9cbed57c2c67a7c89774f4833",
      "blockHash": "0x7e4e4e7089673ddaa2092147be08542141e57e33726e33b5cb51c836b9bf68e0",
      "blockNumber": 90771,
      "transactionIndex": 0,
      "confirmations": null,
      "from": "0xa6BDc31c431B8F97848c9D60cbbe9660dc450eB7",
      "gasPrice": {
        "_hex": "0xd78690ea6"
      },
      "gasLimit": {
        "_hex": "0x5208"
      },
      "to": "0x32Be343B94f860124dC4fEe278FDCBD38C102D88",
      "value": {
        "_hex": "0x45635b911578b400"
      },
      "nonce": 90,
      "data": "0x",
      "r": "0x0b8ac4b7b7b945592e6a3865738c63d65b0dea85f262cec6646d16ce2a0e44fe",
      "s": "0x39680dc7f23f3832e87875aa3236f078f8ae38eaa649b287e07722362a5f414f",
      "v": 28,
      "creates": null,
      "raw": "0xf86c5a850d78690ea68252089432be343b94f860124dc4fee278fdcbd38c102d888845635b911578b400801ca00b8ac4b7b7b945592e6a3865738c63d65b0dea85f262cec6646d16ce2a0e44fea039680dc7f23f3832e87875aa3236f078f8ae38eaa649b287e07722362a5f414f",
      "networkId": 0,
      "chainId": 0
    }
  ]
}