{
  "hash": "0xce5e677079b43034bb73226f56ed18d0b0e10dcfebe9e07ab07123ee5edf8c89",
  "parentHash": "0xb328a03ba0de1b1c0760a422d75600b31a15f389b4d73a047a198e0f30c2792c",
  "number": 86720,
  "timestamp": 1439581958,
  "nonce": "0x8562f2f06e3c4aac",
  "difficulty": 2941635901886,
  "gasLimit": {
    "_hex": "0x2fefd8"
  },
  "gasUsed": {
    "_hex": "0xf618"
  },
  "miner": "0xe6A7a1d47ff21B6321162AEA7C6CB457D5476Bca",
  "extraData": "0x476574682f76312e302e312d38326566323666362f6c696e75782f676f312e34",
  "transactions": [
    {
      "hash": "0x5d03b5e57515531eb0534cb4621cc1c05777b80a01ae9fd724bbb8ba71892f6e",
      "blockHash": "0xce5e677079b43034bb73226f56ed18d0b0e10dcfebe9e07ab07123ee5edf8c89",
      "blockNumber": 86720,
      "transactionIndex": 0,
      "confirmations": null,
      "from": "0x120A270bbC009644e35F0bB6ab13f95b8199c4ad",
      "gasPrice": {
        "_hex": "0xdaaaefdc7"
      },
      "gasLimit": {
        "_hex": "0x3d090"
      },
      "to": "0x8d304933a1F93F268bFDcFF9FFE6846a75167279",
      "value": {
        "_hex": "0x2ff1bc2a866fc00"
      },
      "nonce": 480,
      "data": "0x",
      "r": "0xc0a924c9376a97547a3481d628a9ce12f4a714a542f89864686c184b4a1bb9e6",
      "s": "0x01c3dc65bfa2a026c56e089b8bcbfce95e2cc1212a46fa62dc52c5961b18d8d6",
      "v": 28,
      "creates": null,
      "raw": "0xf86f8201e0850daaaefdc78303d090948d304933a1f93f268bfdcff9ffe6846a751672798802ff1bc2a866fc00801ca0c0a924c9376a97547a3481d628a9ce12f4a714a542f89864686c184b4a1bb9e6a001c3dc65bfa2a026c56e089b8bcbfce95e2cc1212a46fa62dc52c5961b18d8d6",
      "networkId": 0,
      "chainId": 0
    },
    {
      "hash": "0x1da3d82eb70d87183b56213d58b55a82ce12073f8c2c58a2cb80f7a5ee99fc7a",
      "blockHash": "0xce5e677079b43034bb73226f56ed18d0b0e10dcfebe9e07ab07123ee5edf8c89",
      "blockNumber": 86720,
      "transactionIndex": 1,
      "confirmations": null,
      "from": "0x5532A650304265014A873E4399A3487d0296B8CF",
      "gasPrice": {
        "_hex": "0xd8cac2e96"
      },
      "gasLimit": {
        "_hex": "0x15f90"
      },
      "to": "0xcD690730A45cdebeF24F2a3db2de181bFBA5CBea",
      "value": {
        "_hex": "0x44004c09e76a0000"
      },
      "nonce": 0,
      "data": "0x",
      "r": "0xb55cb0ef879a742501a13be8697ad53d917e76f43f541caeeaa5b705f4cc6f05",
      "s": "0x66c27bd924792c11d97707fe8b346fcc7fbfd5840d4270f12de661f0d26c6815",
      "v": 27,
      "creates": null,
      "raw": "0xf86d80850d8cac2e9683015f9094cd690730a45cdebef24f2a3db2de181bfba5cbea8844004c09e76a0000801ba0b55cb0ef879a742501a13be8697ad53d917e76f43f541caeeaa5b705f4cc6f05a066c27bd924792c11d97707fe8b346fcc7fbfd5840d4270f12de661f0d26c6815",
      "networkId": 0,
      "chainId": 0
    },
    {
      "hash": "0xedfdd4f0e822fd8f4211dcdf7be486412f04dc6d68547913bdccc0d0898c0ae8",
      "blockHash": "0xce5e677079b43034bb73226f56ed18d0b0e10dcfebe9e07ab07123ee5edf8c89",
      "blockNumber": 86720,
      "transactionIndex": 2,
      "confirmations": null,
      "from": "0x47fe9Ce29dA03E8466a067e4321fD32312e39607",
      "gasPrice": {
        "_hex": "0xcfd1a1253"
      },
      "gasLimit": {
        "_hex": "0x15f90"
      },
      "to": "0x132ACC4ebA2B5039C65849368648bc19f32BEd97",
      "value": {
        "_hex": "0xde0b6b3a7640000"
      },
      "nonce": 0,
      "data": "0x",
      "r": "0x72cd4907d630162c84c8786251aa6c7559b2f6dfb3a452c9a76b95653398abc7",
      "s": "0x6de5ec6aba063cc895a07eec6e5f02ba1ffcf016244ef14b59c2d2ae56f4cf17",
      "v": 27,
      "creates": null,
      "raw": "0xf86d80850cfd1a125383015f9094132acc4eba2b5039c65849368648bc19f32bed97880de0b6b3a7640000801ba072cd4907d630162c84c8786251aa6c7559b2f6dfb3a452c9a76b95653398abc7a06de5ec6aba063cc895a07eec6e5f02ba1ffcf016244ef14b59c2d2ae56f4cf17",
      "networkId": 0,
      "chainId": 0
    }
  ]
}