{
  "hash": "0x4313244ab1a318bf3af94077827151306a5e312d9883eb812ba9b88330031767",
  "parentHash": "0x94adc0fd68b205528fb349a4a40018a9a59bd01d20ad54e07de5dbeea7997523",
  "number": 80621,
  "timestamp": 1439488205,
  "nonce": "0x859917dbd98eaf5d",
  "difficulty": 2425033264880,
  "gasLimit": {
    "_hex": "0x2fefd8"
  },
  "gasUsed": {
    "_hex": "0x1b4ad"
  },
  "miner": "0x123843545FB525C8E134c9A5F15ADA6865cc3848",
  "extraData": "0x476574682f76312e302e312f77696e646f77732f676f312e342e32",
  "transactions": [
    {
      "hash": "0x7dbb4d9d8ca7bd6a1602b569ff7384bab76d6fc3e76d605305d5dc8e10c907bc",
      "blockHash": "0x4313244ab1a318bf3af94077827151306a5e312d9883eb812ba9b88330031767",
      "blockNumber": 80621,
      "transactionIndex": 0,
      "confirmations": null,
      "from": "0x87C5B5874A18B4306DF8a752a6C8cc3E82daFc19",
      "gasPrice": {
        "_hex": "0x10dbb01a0e8"
      },
      "gasLimit": {
        "_hex": "0x493e0"
      },
      "to": "0xC4c51de1AbF5D60DBd329eC0F999Fd8f021ae9fC",
      "value": {
        "_hex": "0x2760697cec6b3bc"
      },
      "nonce": 264,
      "data": "0x8d2161860000000000000000000000000000000000000000000000000000000000000006d3d96ceed0cfca4794c2a5a3d3aeefe69da0a2a669e66a5651f30b64831c3db0",
      "r": "0xbe4a7612ab6b167d09cd510ba4ae4c5b416625f09f562a98396bca0cae40f6bf",
      "s": "0x04f53261931cbe153b9d6dc60194204d4c47925735a442a04b6bde08011da795",
      "v": 28,
      "creates": null,
      "raw": "0xf8b582010886010dbb01a0e8830493e094c4c51de1abf5d60dbd329ec0f999fd8f021ae9fc8802760697cec6b3bcb8448d2161860000000000000000000000000000000000000000000000000000000000000006d3d96ceed0cfca4794c2a5a3d3aeefe69da0a2a669e66a5651f30b64831c3db01ca0be4a7612ab6b167d09cd510ba4ae4c5b416625f09f562a98396bca0cae40f6bfa004f53261931cbe153b9d6dc60194204d4c47925735a442a04b6bde08011da795",
      "networkId": 0,
      "chainId": 0
    }
  ]
}