{
  "hash": "0x12b90870ad304207b15eec03f7d9453a58adc5a0a4be50d7a159fb94c1de910a",
  "parentHash": "0x7a1e9b2eb018a5bed2984a80e11f6a74d47c7781ebc4d26c11a32977600d2189",
  "number": 110525,
  "timestamp": 1439975174,
  "nonce": "0x39824a746a7a9832",
  "difficulty": 4375542244612,
  "gasLimit": {
    "_hex": "0x2fefd8"
  },
  "gasUsed": {
    "_hex": "0xa410"
  },
  "miner": "0x9746c7e1ef2bd21FF3997fa467593a89cb852BD0",
  "extraData": "0x476574682f76312e302e312f77696e646f77732f676f312e342e32",
  "transactions": [
    {
      "hash": "0xb452fc23eff2c556529c4131d6237269fe941a12ab238fe6c1059bca9058f09f",
      "blockHash": "0x12b90870ad304207b15eec03f7d9453a58adc5a0a4be50d7a159fb94c1de910a",
      "blockNumber": 110525,
      "transactionIndex": 0,
      "confirmations": null,
      "from": "0x3FF679B0823a026F2378E5f5F22A6F127cC85828",
      "gasPrice": {
        "_hex": "0x106eb7cb4cf"
      },
      "gasLimit": {
        "_hex": "0x61a8"
      },
      "to": "0xD5C99f3AD1fA58DfC24962640F981070e5647749",
      "value": {
        "_hex": "0x2c68af0bb140000"
      },
      "nonce": 8,
      "data": "0x",
      "r": "0xd193d29636f192886b6e822bbfc02f949f3e7ef6e0e7fd2f5580244974862538",
      "s": "0x5552f4b8a2d02a3b87d301dc63945bc2f28ce9fe79409c2f723d2b0c206cdba8",
      "v": 27,
      "creates": null,
      "raw": "0xf86d08860106eb7cb4cf8261a894d5c99f3ad1fa58dfc24962640f981070e56477498802c68af0bb140000801ba0d193d29636f192886b6e822bbfc02f949f3e7ef6e0e7fd2f5580244974862538a05552f4b8a2d02a3b87d301dc63945bc2f28ce9fe79409c2f723d2b0c206cdba8",
      "networkId": 0,
      "chainId": 0
    },
    {
      "hash": "0x3022f6d9c1bdaab912bbdeefecd47dd9a33fcf3eb87d94d4de3a7cf4b5062555",
      "blockHash": "0x12b90870ad304207b15eec03f7d9453a58adc5a0a4be50d7a159fb94c1de910a",
      "blockNumber": 110525,
      "transactionIndex": 1,
      "confirmations": null,
      "from": "0x3FF679B0823a026F2378E5f5F22A6F127cC85828",
      "gasPrice": {
        "_hex": "0x106eb7cb4cf"
      },
      "gasLimit": {
        "_hex": "0x61a8"
      },
      "to": "0x37AaD32F4b316d18A23db46BD3531D7D4d5fCa8a",
      "value": {
        "_hex": "0x2c68af0bb140000"
      },
      "nonce": 9,
      "data": "0x",
      "r": "0xe3065e7351290dcf0ddac3c5aa62221177a93e68e8d9bd1f83e8f7f05b88174c",
      "s": "0x6a19a67bca4274b5d9f91cce9c1d562577f8748f1c961d652e98226a9a99a02c",
      "v": 28,
      "creates": null,
      "raw": "0xf86d09860106eb7cb4cf8261a89437aad32f4b316d18a23db46bd3531d7d4d5fca8a8802c68af0bb140000801ca0e3065e7351290dcf0ddac3c5aa62221177a93e68e8d9bd1f83e8f7f05b88174ca06a19a67bca4274b5d9f91cce9c1d562577f8748f1c961d652e98226a9a99a02c",
      "networkId": 0,
      "chainId": 0
    }
  ]
}