{
  "hash": "0xe02f3434ada4e2d29d1e4d38714f3e4a3e92d7d448c192801839d66abf425152",
  "parentHash": "0x28a6dbf128a4f09e3f3e6c117b7699ae3c6d9a3ffa0dc7f1aef96049bb54a1e3",
  "number": 60420,
  "timestamp": 1439155330,
  "nonce": "0xb6a853bb0fe26134",
  "difficulty": 1736423574683,
  "gasLimit": {
    "_hex": "0x2fefd8"
  },
  "gasUsed": {
    "_hex": "0x5208"
  },
  "miner": "0xf927a40C8B7F6E07c5af7FA2155B4864a4112B13",
  "extraData": "0x476574682f76312e302e312f6c696e75782f676f312e342e32",
  "transactions": [
    {
      "hash": "0x0cfcb3e165883243cf1dcd52eca97dae47d747edd483731f63fe6ed98ec3cdf2",
      "blockHash": "0xe02f3434ada4e2d29d1e4d38714f3e4a3e92d7d448c192801839d66abf425152",
      "blockNumber": 60420,
      "transactionIndex": 0,
      "confirmations": null,
      "from": "0xFb75d7e985405567216Fd0917Eb8bB3b3E63fd48",
      "gasPrice": {
        "_hex": "0xba43b7400"
      },
      "gasLimit": {
        "_hex": "0x5b04"
      },
      "to": "0x27e806e70622d2864e1B1f4426D72FFb0457C83a",
      "value": {
        "_hex": "0xb7e3721d93000"
      },
      "nonce": 1,
      "data": "0x",
      "r": "0xefdb3a4b700fa4d1e0ab487bf28acd1fff93d693a999c6366a0180d44e74ea18",
      "s": "0x8662a55329d91e04e91b44d438b3b5f7fbcb0f22d5b1845a9c8581bc8e1b79cd",
      "v": 28,
      "creates": null,
      "raw": "0xf86b01850ba43b7400825b049427e806e70622d2864e1b1f4426d72ffb0457c83a870b7e3721d93000801ca0efdb3a4b700fa4d1e0ab487bf28acd1fff93d693a999c6366a0180d44e74ea18a08662a55329d91e04e91b44d438b3b5f7fbcb0f22d5b1845a9c8581bc8e1b79cd",
      "networkId": 0,
      "chainId": 0
    }
  ]
}