{
  "hash": "0x8ea094202938b385e7fcd30a3fedb5490bfbd0ab0bdd39c55d6f38dfd73efe36",
  "parentHash": "0xa848269afd0c436bd3648c2b3e365f9ccd23f770cec4bfa0820fe767d1256a10",
  "number": 116086,
  "timestamp": 1440068109,
  "nonce": "0xb5e3282e969d7cad",
  "difficulty": 4602672284031,
  "gasLimit": {
    "_hex": "0x2fefd8"
  },
  "gasUsed": {
    "_hex": "0xa410"
  },
  "miner": "0xe6A7a1d47ff21B6321162AEA7C6CB457D5476Bca",
  "extraData": "0x476574682f76312e302e312d38326566323666362f6c696e75782f676f312e34",
  "transactions": [
    {
      "hash": "0x8370d24a4c383458bbce8403101d244fb06af9a4d8567cb1242d83b745601eb1",
      "blockHash": "0x8ea094202938b385e7fcd30a3fedb5490bfbd0ab0bdd39c55d6f38dfd73efe36",
      "blockNumber": 116086,
      "transactionIndex": 0,
      "confirmations": null,
      "from": "0x2071130408d9aAf3D5D65953118c3FE37aCB8D04",
      "gasPrice": {
        "_hex": "0xba43b7400"
      },
      "gasLimit": {
        "_hex": "0x5208"
      },
      "to": "0xC47Aaa860008be6f65B58c6C6E02a84e666EfE31",
      "value": {
        "_hex": "0x123d3923e8e89c41e0"
      },
      "nonce": 10,
      "data": "0x",
      "r": "0x45517e25c9ed4c7f2077c1ee16c879b19eba79efdbb4878230de55db5db65fe0",
      "s": "0x2f49d54b93c1f37d1e3066680567a80dd5bcb222722945e53c3843427bc13031",
      "v": 27,
      "creates": null,
      "raw": "0xf86d0a850ba43b740082520894c47aaa860008be6f65b58c6c6e02a84e666efe3189123d3923e8e89c41e0801ba045517e25c9ed4c7f2077c1ee16c879b19eba79efdbb4878230de55db5db65fe0a02f49d54b93c1f37d1e3066680567a80dd5bcb222722945e53c3843427bc13031",
      "networkId": 0,
      "chainId": 0
    },
    {
      "hash": "0xaed461a3ed28796011c1c9249eab3a976190ca16ac7a9759a47407f3bd467369",
      "blockHash": "0x8ea094202938b385e7fcd30a3fedb5490bfbd0ab0bdd39c55d6f38dfd73efe36",
      "blockNumber": 116086,
      "transactionIndex": 1,
      "confirmations": null,
      "from": "0x53BaC213A469D246927FF2525bB2cefb54f0CAED",
      "gasPrice": {
        "_hex": "0xba43b7400"
      },
      "gasLimit": {
        "_hex": "0x5208"
      },
      "to": "0xC47Aaa860008be6f65B58c6C6E02a84e666EfE31",
      "value": {
        "_hex": "0xf769857a3e44800"
      },
      "nonce": 0,
      "data": "0x",
      "r": "0xeb41a6fc36d99dd6075e11d5adfff8353d1dd95a09b8b9b233513bdff623de7e",
      "s": "0x45bf4b7198effad4a4dec2560fcacee3b7fca93c26a546e94c0b6ca24e7764c5",
      "v": 28,
      "creates": null,
      "raw": "0xf86c80850ba43b740082520894c47aaa860008be6f65b58c6c6e02a84e666efe31880f769857a3e44800801ca0eb41a6fc36d99dd6075e11d5adfff8353d1dd95a09b8b9b233513bdff623de7ea045bf4b7198effad4a4dec2560fcacee3b7fca93c26a546e94c0b6ca24e7764c5",
      "networkId": 0,
      "chainId": 0
    }
  ]
}