{
  "hash": "0x292f59ad3fb5ecd3c2ff4525ad69c2cc3229adb908816c29686ca81bd0396c32",
  "parentHash": "0x3ab4e8508f9c2ee584d17ee51c73bd3988c9b5147a56132cb482b8baf78fcef7",
  "number": 121714,
  "timestamp": 1440181343,
  "nonce": "0xbb0dc70d5d378deb",
  "difficulty": 4493036052989,
  "gasLimit": {
    "_hex": "0x2fefd8"
  },
  "gasUsed": {
    "_hex": "0x42a68"
  },
  "miner": "0xe6A7a1d47ff21B6321162AEA7C6CB457D5476Bca",
  "extraData": "0xd783010002844765746887676f312e342e32856c696e7578",
  "transactions": [
    {
      "hash": "0xd0249a7ceb1cbe0c679179833a4d054b5cf0b2f2d9f0e1afa8b4fcf8a3d2227b",
      "blockHash": "0x292f59ad3fb5ecd3c2ff4525ad69c2cc3229adb908816c29686ca81bd0396c32",
      "blockNumber": 121714,
      "transactionIndex": 0,
      "confirmations": null,
      "from": "0x1e0Cf4971f42462823b122a9a0a2206902B51132",
      "gasPrice": {
        "_hex": "0xcf447f2ad"
      },
      "gasLimit": {
        "_hex": "0x5208"
      },
      "to": "0x32Be343B94f860124dC4fEe278FDCBD38C102D88",
      "value": {
        "_hex": "0x6311da0525a1d000"
      },
      "nonce": 1,
      "data": "0x",
      "r": "0x1a5ed53bce4320f748b8efdd482b5f52226c6c5c1b74ad36ae9067d737d9d65c",
      "s": "0x46b06ac2d2bc22feb2223ccdc6f7a7a40729e05b4ff5b0db1fb588f5696d71a0",
      "v": 27,
      "creates": null,
      "raw": "0xf86c01850cf447f2ad8252089432be343b94f860124dc4fee278fdcbd38c102d88886311da0525a1d000801ba01a5ed53bce4320f748b8efdd482b5f52226c6c5c1b74ad36ae9067d737d9d65ca046b06ac2d2bc22feb2223ccdc6f7a7a40729e05b4ff5b0db1fb588f5696d71a0",
      "networkId": 0,
      "chainId": 0
    },
    {
      "hash": "0x5c7facfc94da7948cbb99b4940238d6400aa5525c14d26988f6851e18a5ecff6",
      "blockHash": "0x292f59ad3fb5ecd3c2ff4525ad69c2cc3229adb908816c29686ca81bd0396c32",
      "blockNumber": 121714,
      "transactionIndex": 1,
      "confirmations": null,
      "from": "0x77f190fc96c507F40dC13AaDc48d2CaFCDE5358b",
      "gasPrice": {
        "_hex": "0xcf447f2ad"
      },
      "gasLimit": {
        "_hex": "0x5208"
      },
      "to": "0x32Be343B94f860124dC4fEe278FDCBD38C102D88",
      "value": {
        "_hex": "0x1e1ef1cf99803c000"
      },
      "nonce": 2,
      "data": "0x",
      "r": "0x9f563323d3e63c6e060b4750aac917a5e3d6cee7c782686958e58a6b189a54bf",
      "s": "0x2faf37fef27d407d55c1e3c2514be2b972f0c2f77675486685fcbed84c28a7dc",
      "v": 27,
      "creates": null,
      "raw": "0xf86d02850cf447f2ad8252089432be343b94f860124dc4fee278fdcbd38c102d888901e1ef1cf99803c000801ba09f563323d3e63c6e060b4750aac917a5e3d6cee7c782686958e58a6b189a54bfa02faf37fef27d407d55c1e3c2514be2b972f0c2f77675486685fcbed84c28a7dc",
      "networkId": 0,
      "chainId": 0
    },
    {
      "hash": "0x2015dc6b3adea9e56ecb79db39118f617309358b573490876c8deffd2d594eb6",
      "blockHash": "0x292f59ad3fb5ecd3c2ff4525ad69c2cc3229adb908816c29686ca81bd0396c32",
      "blockNumber": 121714,
      "transactionIndex": 2,
      "confirmations": null,
      "from": "0x7D8f437a7e9930D9116EdaF3102AD77995a0082f",
      "gasPrice": {
        "_hex": "0xcf447f2ad"
      },
      "gasLimit": {
        "_hex": "0x5208"
      },
      "to": "0x32Be343B94f860124dC4fEe278FDCBD38C102D88",
      "value": {
        "_hex": "0x13c80b4425587e000"
      },
      "nonce": 1,
      "data": "0x",
      "r": "0x0c3210da12b6b789d9a00a38f772d3efd3ab5f30df894594abb672045e036d4b",
      "s": "0x02f3a11c10a7b37e6bf2c47f6c1065de4bc87b90ca52de148344f5bafef02f13",
      "v": 28,
      "creates": null,
      "raw": "0xf86d01850cf447f2ad8252089432be343b94f860124dc4fee278fdcbd38c102d8889013c80b4425587e000801ca00c3210da12b6b789d9a00a38f772d3efd3ab5f30df894594abb672045e036d4ba002f3a11c10a7b37e6bf2c47f6c1065de4bc87b90ca52de148344f5bafef02f13",
      "networkId": 0,
      "chainId": 0
    },
    {
      "hash": "0xdf08cf8f7b9a03b039446a9b372d9e21eb87067c630859355f088dfc60d69b0a",
      "blockHash": "0x292f59ad3fb5ecd3c2ff4525ad69c2cc3229adb908816c29686ca81bd0396c32",
      "blockNumber": 121714,
      "transactionIndex": 3,
      "confirmations": null,
      "from": "0xCD424C53F5dc7d22cDFf536309C24Ad87A97E6aF",
      "gasPrice": {
        "_hex": "0xcf447f2ad"
      },
      "gasLimit": {
        "_hex": "0x5208"
      },
      "to": "0x32Be343B94f860124dC4fEe278FDCBD38C102D88",
      "value": {
        "_hex": "0xd118756e4efc4000"
      },
      "nonce": 1,
      "data": "0x",
      "r": "0x95554d48d9c2575ad8d8a7aa4b0b0b2dde99d3897906c8e7876389b7b63ad93f",
      "s": "0x5364755383b164eaf42a61f32e68088a9cd2cab5aab3815cd0c15d02f1a2c84e",
      "v": 28,
      "creates": null,
      "raw": "0xf86c01850cf447f2ad8252089432be343b94f860124dc4fee278fdcbd38c102d8888d118756e4efc4000801ca095554d48d9c2575ad8d8a7aa4b0b0b2dde99d3897906c8e7876389b7b63ad93fa05364755383b164eaf42a61f32e68088a9cd2cab5aab3815cd0c15d02f1a2c84e",
      "networkId": 0,
      "chainId": 0
    },
    {
      "hash": "0x6747a6b49bac4e80c0a53d875820993121c06211a163e04315a7c2ff2159eda6",
      "blockHash": "0x292f59ad3fb5ecd3c2ff4525ad69c2cc3229adb908816c29686ca81bd0396c32",
      "blockNumber": 121714,
      "transactionIndex": 4,
      "confirmations": null,
      "from": "0x3Aa549C938e6Bab1e44b506944F5498b28854936",
      "gasPrice": {
        "_hex": "0xcf447f2ad"
      },
      "gasLimit": {
        "_hex": "0x5208"
      },
      "to": "0x32Be343B94f860124dC4fEe278FDCBD38C102D88",
      "value": {
        "_hex": "0x5a4c8ffd5d663000"
      },
      "nonce": 1,
      "data": "0x",
      "r": "0x56ab15c4da2dd56fdba8a64bbdf1f52b55f75a77ee0e4b67b6f79510f047d6cf",
      "s": "0x1eae2b94fc9a210b85be7d8c1f808b7d7aa650ead84494cb05e1ed77a532bf34",
      "v": 28,
      "creates": null,
      "raw": "0xf86c01850cf447f2ad8252089432be343b94f860124dc4fee278fdcbd38c102d88885a4c8ffd5d663000801ca056ab15c4da2dd56fdba8a64bbdf1f52b55f75a77ee0e4b67b6f79510f047d6cfa01eae2b94fc9a210b85be7d8c1f808b7d7aa650ead84494cb05e1ed77a532bf34",
      "networkId": 0,
      "chainId": 0
    },
    {
      "hash": "0x4bdd78eb0a1bb729b478ec4777b1cd38b2c5e5c10ab83c710fe025947af714f5",
      "blockHash": "0x292f59ad3fb5ecd3c2ff4525ad69c2cc3229adb908816c29686ca81bd0396c32",
      "blockNumber": 121714,
      "transactionIndex": 5,
      "confirmations": null,
      "from": "0x917cDD148Ebec4699A523905424Ee1f7de261258",
      "gasPrice": {
        "_hex": "0xcf447f2ad"
      },
      "gasLimit": {
        "_hex": "0x5208"
      },
      "to": "0x32Be343B94f860124dC4fEe278FDCBD38C102D88",
      "value": {
        "_hex": "0x759009f80982a800"
      },
      "nonce": 1,
      "data": "0x",
      "r": "0x89f0c81c81fa9a88134a42205381171c22ebbdcafe87fe2f38f8c78d5f206ac3",
      "s": "0x5f721e300dff7b5bdeab73f6e6e5a7f5be72316794a76c16904ea0ce2976a6e2",
      "v": 27,
      "creates": null,
      "raw": "0xf86c01850cf447f2ad8252089432be343b94f860124dc4fee278fdcbd38c102d8888759009f80982a800801ba089f0c81c81fa9a88134a42205381171c22ebbdcafe87fe2f38f8c78d5f206ac3a05f721e300dff7b5bdeab73f6e6e5a7f5be72316794a76c16904ea0ce2976a6e2",
      "networkId": 0,
      "chainId": 0
    },
    {
      "hash": "0x822f715fa25b68540d22f7414815628ae6089fa83f66aea3d5699825b2caf8ba",
      "blockHash": "0x292f59ad3fb5ecd3c2ff4525ad69c2cc3229adb908816c29686ca81bd0396c32",
      "blockNumber": 121714,
      "transactionIndex": 6,
      "confirmations": null,
      "from": "0x460825a3542f4823818184020bA3861da1E26872",
      "gasPrice": {
        "_hex": "0xcf447f2ad"
      },
      "gasLimit": {
        "_hex": "0x5208"
      },
      "to": "0x32Be343B94f860124dC4fEe278FDCBD38C102D88",
      "value": {
        "_hex": "0x19d36ec68817fc00"
      },
      "nonce": 2,
      "data": "0x",
      "r": "0xb97350baa1be3c31dfd88338bd472c1887784577683432b274cdd53294dd3694",
      "s": "0x2c2fda72912784b1ebd4662b3c9ddf2a2a00b0f551cf580bdabdaf66235d5b13",
      "v": 27,
      "creates": null,
      "raw": "0xf86c02850cf447f2ad8252089432be343b94f860124dc4fee278fdcbd38c102d888819d36ec68817fc00801ba0b97350baa1be3c31dfd88338bd472c1887784577683432b274cdd53294dd3694a02c2fda72912784b1ebd4662b3c9ddf2a2a00b0f551cf580bdabdaf66235d5b13",
      "networkId": 0,
      "chainId": 0
    },
    {
      "hash": "0xa970480192e5e127faf29a7890f8baf0b56d1a71d6d7af2aa99535ea8a7907ee",
      "blockHash": "0x292f59ad3fb5ecd3c2ff4525ad69c2cc3229adb908816c29686ca81bd0396c32",
      "blockNumber": 121714,
      "transactionIndex": 7,
      "confirmations": null,
      "from": "0x832a92A886288ACC68dF3115cf74aEbd67Ba1bf8",
      "gasPrice": {
        "_hex": "0xcf447f2ad"
      },
      "gasLimit": {
        "_hex": "0x5208"
      },
      "to": "0x32Be343B94f860124dC4fEe278FDCBD38C102D88",
      "value": {
        "_hex": "0x7cbfb205fa606000"
      },
      "nonce": 1,
      "data": "0x",
      "r": "0x19aad51c248f1dccc000b6b20762fe2b78e0f2d177565b964cb001b0dbc0cd82",
      "s": "0x095e27d82e2cbcc85208807b42744b66dca4c3ebe347f4b5d358acb3ae02b400",
      "v": 28,
      "creates": null,
      "raw": "0xf86c01850cf447f2ad8252089432be343b94f860124dc4fee278fdcbd38c102d88887cbfb205fa606000801ca019aad51c248f1dccc000b6b20762fe2b78e0f2d177565b964cb001b0dbc0cd82a0095e27d82e2cbcc85208807b42744b66dca4c3ebe347f4b5d358acb3ae02b400",
      "networkId": 0,
      "chainId": 0
    },
    {
      "hash": "0x2f61b67ed4c9cf0456c21cdd60eea579b357cf227a70cd7824420ddb99e13896",
      "blockHash": "0x292f59ad3fb5ecd3c2ff4525ad69c2cc3229adb908816c29686ca81bd0396c32",
      "blockNumber": 121714,
      "transactionIndex": 8,
      "confirmations": null,
      "from": "0x7Af87a6D25246B24301347cF0662926760C0B013",
      "gasPrice": {
        "_hex": "0xcf447f2ad"
      },
      "gasLimit": {
        "_hex": "0x5208"
      },
      "to": "0x32Be343B94f860124dC4fEe278FDCBD38C102D88",
      "value": {
        "_hex": "0x1034357e4eccd800"
      },
      "nonce": 1,
      "data": "0x",
      "r": "0xa9bbda39f05cd9642bc2d1030b683139399832630752e7ec3e281726a0ccd4c5",
      "s": "0x7d235593146c72d93e9a8f85cca64860e4305e9b282b4a9f3c99bc8497f67a28",
      "v": 27,
      "creates": null,
      "raw": "0xf86c01850cf447f2ad8252089432be343b94f860124dc4fee278fdcbd38c102d88881034357e4eccd800801ba0a9bbda39f05cd9642bc2d1030b683139399832630752e7ec3e281726a0ccd4c5a07d235593146c72d93e9a8f85cca64860e4305e9b282b4a9f3c99bc8497f67a28",
      "networkId": 0,
      "chainId": 0
    },
    {
      "hash": "0x93e69e288b37b619eea2193112b3f6ba229dc60f7a2c0a149da60bf768e9ae41",
      "blockHash": "0x292f59ad3fb5ecd3c2ff4525ad69c2cc3229adb908816c29686ca81bd0396c32",
      "blockNumber": 121714,
      "transactionIndex": 9,
      "confirmations": null,
      "from": "0x5c67d94468c06c92E2d5f8446c41E7A859377994",
      "gasPrice": {
        "_hex": "0xcf447f2ad"
      },
      "gasLimit": {
        "_hex": "0x5208"
      },
      "to": "0x32Be343B94f860124dC4fEe278FDCBD38C102D88",
      "value": {
        "_hex": "0x4f43d8364302a000"
      },
      "nonce": 1,
      "data": "0x",
      "r": "0x9a9ecfd7fabf9dc4a01ef0a8b186cf60db4803d91ab59f5e37c20d00cd16b089",
      "s": "0x7819d4543ca655dafd3fee03e2bd6c7cc1a37d04e18f6ca68b489a4ba9181f5f",
      "v": 27,
      "creates": null,
      "raw": "0xf86c01850cf447f2ad8252089432be343b94f860124dc4fee278fdcbd38c102d88884f43d8364302a000801ba09a9ecfd7fabf9dc4a01ef0a8b186cf60db4803d91ab59f5e37c20d00cd16b089a07819d4543ca655dafd3fee03e2bd6c7cc1a37d04e18f6ca68b489a4ba9181f5f",
      "networkId": 0,
      "chainId": 0
    },
    {
      "hash": "0x40998e44e4648df505f4442a4fee406d6624103a013f3af87cf1a81820d8208a",
      "blockHash": "0x292f59ad3fb5ecd3c2ff4525ad69c2cc3229adb908816c29686ca81bd0396c32",
      "blockNumber": 121714,
      "transactionIndex": 10,
      "confirmations": null,
      "from": "0x51033F1a1a59cb6a1bF6ca2087a53bD202Ac1C83",
      "gasPrice": {
        "_hex": "0xcf447f2ad"
      },
      "gasLimit": {
        "_hex": "0x5208"
      },
      "to": "0x32Be343B94f860124dC4fEe278FDCBD38C102D88",
      "value": {
        "_hex": "0x16f1b28b65cfd400"
      },
      "nonce": 1,
      "data": "0x",
      "r": "0xeedbe84d9f4ac9c992f58d43fd20f3ba1af6aed4923453d462beaf648e8dba0b",
      "s": "0x4827f1616d5e9a29d90255d023971cf01ed442aca772de3199b77f2a62985753",
      "v": 27,
      "creates": null,
      "raw": "0xf86c01850cf447f2ad8252089432be343b94f860124dc4fee278fdcbd38c102d888816f1b28b65cfd400801ba0eedbe84d9f4ac9c992f58d43fd20f3ba1af6aed4923453d462beaf648e8dba0ba04827f1616d5e9a29d90255d023971cf01ed442aca772de3199b77f2a62985753",
      "networkId": 0,
      "chainId": 0
    },
    {
      "hash": "0x638a47325b5a3bf158a9d313df6b05b77b4c1036f61dcc11b6e76256b29b212d",
      "blockHash": "0x292f59ad3fb5ecd3c2ff4525ad69c2cc3229adb908816c29686ca81bd0396c32",
      "blockNumber": 121714,
      "transactionIndex": 11,
      "confirmations": null,
      "from": "0x156b8406C35B2817293e2C99e788c2457C227C54",
      "gasPrice": {
        "_hex": "0xcf447f2ad"
      },
      "gasLimit": {
        "_hex": "0x5208"
      },
      "to": "0x32Be343B94f860124dC4fEe278FDCBD38C102D88",
      "value": {
        "_hex": "0x11147aaa4afb4c00"
      },
      "nonce": 2,
      "data": "0x",
      "r": "0xd944337eb1b56f9ffdedfd8e5df02659238e0830567011eeed4d77802a0a861e",
      "s": "0x7142d3d5a012fc79b40edc5e7354e3dc093e064ae5baf364f9ec0f43d4cf74de",
      "v": 28,
      "creates": null,
      "raw": "0xf86c02850cf447f2ad8252089432be343b94f860124dc4fee278fdcbd38c102d888811147aaa4afb4c00801ca0d944337eb1b56f9ffdedfd8e5df02659238e0830567011eeed4d77802a0a861ea07142d3d5a012fc79b40edc5e7354e3dc093e064ae5baf364f9ec0f43d4cf74de",
      "networkId": 0,
      "chainId": 0
    },
    {
      "hash": "0xe946765b41cbffb75c43715ac819a0de7dd1332ebd4f1b6cd8dd64a30d425a5d",
      "blockHash": "0x292f59ad3fb5ecd3c2ff4525ad69c2cc3229adb908816c29686ca81bd0396c32",
      "blockNumber": 121714,
      "transactionIndex": 12,
      "confirmations": null,
      "from": "0xFFf1471A813EaF20Ade11C3d58E3a64157216587",
      "gasPrice": {
        "_hex": "0xcc13af7b8"
      },
      "gasLimit": {
        "_hex": "0x15f90"
      },
      "to": "0x9b0a028EAfDeCdE3AFc0fD00B7937098388b7C8a",
      "value": {
        "_hex": "0x4c52a5070f211cb08"
      },
      "nonce": 3,
      "data": "0x",
      "r": "0xd89f03b961313b87df11f5e77319a02868887bc2dca6eef1cb30b2d384772191",
      "s": "0x55c6e9a85cd7a5de42db68a76ff7ce892adf23fcfb1ef5d1659eb91ab3246fa1",
      "v": 28,
      "creates": null,
      "raw": "0xf86e03850cc13af7b883015f90949b0a028eafdecde3afc0fd00b7937098388b7c8a8904c52a5070f211cb08801ca0d89f03b961313b87df11f5e77319a02868887bc2dca6eef1cb30b2d384772191a055c6e9a85cd7a5de42db68a76ff7ce892adf23fcfb1ef5d1659eb91ab3246fa1",
      "networkId": 0,
      "chainId": 0
    }
  ]
}