{
  "hash": "0x3a1bec79f30091988f4be3315ed6e68de9fb2aacfe63cf4758bffe31921b6ae5",
  "parentHash": "0x858c85e00eaa8d2631cb2d966c57ff75937f91f7c01157915a5c45d089f8ce0f",
  "number": 61316,
  "timestamp": 1439170587,
  "nonce": "0x6c0441c118a006a5",
  "difficulty": 1722726601263,
  "gasLimit": {
    "_hex": "0x2fefd8"
  },
  "gasUsed": {
    "_hex": "0xfa44"
  },
  "miner": "0x5F8F73E26CdF436f19Cb24C82F90A15AFe55b592",
  "extraData": "0x476574682f76312e302e312f77696e646f77732f676f312e342e32",
  "transactions": [
    {
      "hash": "0x42c080758d8b620c040e0877934a8f95b17a5cb2e2254423ccb4830d45c3e690",
      "blockHash": "0x3a1bec79f30091988f4be3315ed6e68de9fb2aacfe63cf4758bffe31921b6ae5",
      "blockNumber": 61316,
      "transactionIndex": 0,
      "confirmations": null,
      "from": "0x5e0320BB4D82AB8Bb5d7291f2C67D1c99aBb3C05",
      "gasPrice": {
        "_hex": "0xd8f667dc7"
      },
      "gasLimit": {
        "_hex": "0x15f90"
      },
      "to": "0x2473Aaa3cbf24903c381650Ffeb0626abf2F41EE",
      "value": {
        "_hex": "0x5af3107a4000"
      },
      "nonce": 2,
      "data": "0x",
      "r": "0xdcf51d404b0b41e9ecf588c922a0a0da909285b320d46fcf878625143c9fca94",
      "s": "0x294e8e7b2814e231da15f3548813a2d70962a7060901bed36d21fb8d372c4ef1",
      "v": 28,
      "creates": null,
      "raw": "0xf86b02850d8f667dc783015f90942473aaa3cbf24903c381650ffeb0626abf2f41ee865af3107a4000801ca0dcf51d404b0b41e9ecf588c922a0a0da909285b320d46fcf878625143c9fca94a0294e8e7b2814e231da15f3548813a2d70962a7060901bed36d21fb8d372c4ef1",
      "networkId": 0,
      "chainId": 0
    },
    {
      "hash": "0xe9dec79b24341f9e20f4aa71d4313941b75356f1fe0e376f58d8addec8e33189",
      "blockHash": "0x3a1bec79f30091988f4be3315ed6e68de9fb2aacfe63cf4758bffe31921b6ae5",
      "blockNumber": 61316,
      "transactionIndex": 1,
      "confirmations": null,
      "from": "0xc8ebccC5F5689Fa8659d83713341e5aD19349448",
      "gasPrice": {
        "_hex": "0xd34c3374e"
      },
      "gasLimit": {
        "_hex": "0x15f90"
      },
      "to": "0xC7d3E431Be6222543364408a94C12C0D089Be305",
      "value": {
        "_hex": "0x0"
      },
      "nonce": 20,
      "data": "0xf5938baf",
      "r": "0x5315ee8a58a28bc5afbdc33a7406664eea7ff765172174f103d7bfbcbf986d59",
      "s": "0x35426e8aff91c60bb80e0cf40925806c2ac061b2b086ad653f413cd7b5100155",
      "v": 28,
      "creates": null,
      "raw": "0xf86914850d34c3374e83015f9094c7d3e431be6222543364408a94c12c0d089be3058084f5938baf1ca05315ee8a58a28bc5afbdc33a7406664eea7ff765172174f103d7bfbcbf986d59a035426e8aff91c60bb80e0cf40925806c2ac061b2b086ad653f413cd7b5100155",
      "networkId": 0,
      "chainId": 0
    },
    {
      "hash": "0x284e957b088fe53654e75634ba77b93493632c9af38d0a4e5164c43ca92e4c35",
      "blockHash": "0x3a1bec79f30091988f4be3315ed6e68de9fb2aacfe63cf4758bffe31921b6ae5",
      "blockNumber": 61316,
      "transactionIndex": 2,
      "confirmations": null,
      "from": "0xcb2Ff4305625D98A9E13C9cA10ca47cf2345e1F8",
      "gasPrice": {
        "_hex": "0xcffd70a86"
      },
      "gasLimit": {
        "_hex": "0x5208"
      },
      "to": "0x32Be343B94f860124dC4fEe278FDCBD38C102D88",
      "value": {
        "_hex": "0x2b5df84bbbfabe000"
      },
      "nonce": 5,
      "data": "0x",
      "r": "0x14075e43e0aa250acaf8f7882105b315cc7b7036eaaf5539a0a2fd245fb21c44",
      "s": "0x76b8b4653a958ff75bbbc5464d1e002e86e3e13d526b7312454947b4d6e1a010",
      "v": 27,
      "creates": null,
      "raw": "0xf86d05850cffd70a868252089432be343b94f860124dc4fee278fdcbd38c102d888902b5df84bbbfabe000801ba014075e43e0aa250acaf8f7882105b315cc7b7036eaaf5539a0a2fd245fb21c44a076b8b4653a958ff75bbbc5464d1e002e86e3e13d526b7312454947b4d6e1a010",
      "networkId": 0,
      "chainId": 0
    }
  ]
}