{
  "hash": "0xc2f2fc117bb0d677c7f4c32bbab5f2a01aea1bd646c8fe7fa8ce2cbbeffc8af8",
  "parentHash": "0x095f661ddf57db988dddb4d6bbd1408ff91cbf53b824dc5fc69a2e70d7130a75",
  "number": 101360,
  "timestamp": 1439821850,
  "nonce": "0x654bb4467b0b5316",
  "difficulty": 3811271420904,
  "gasLimit": {
    "_hex": "0x2fefd8"
  },
  "gasUsed": {
    "_hex": "0x5208"
  },
  "miner": "0xe6A7a1d47ff21B6321162AEA7C6CB457D5476Bca",
  "extraData": "0x476574682f76312e302e312d38326566323666362f6c696e75782f676f312e34",
  "transactions": [
    {
      "hash": "0xa5239f36281e6d4b4171a191ff910e7fd8fb086254c26728be69132c2a7f512f",
      "blockHash": "0xc2f2fc117bb0d677c7f4c32bbab5f2a01aea1bd646c8fe7fa8ce2cbbeffc8af8",
      "blockNumber": 101360,
      "transactionIndex": 0,
      "confirmations": null,
      "from": "0xb62A0BF317fceb39ed916f0F9E60e623Ad309127",
      "gasPrice": {
        "_hex": "0xd829211eb"
      },
      "gasLimit": {
        "_hex": "0x15f90"
      },
      "to": "0x6107CF14d0229Ca0D8F3256D50D8114e5Dae6E1d",
      "value": {
        "_hex": "0x8ac7230489e80000"
      },
      "nonce": 4,
      "data": "0x",
      "r": "0x45e9b4028a616de16a1246fa33e5e797603b2612e051e476e339608b0159997f",
      "s": "0x2f2c8ec4153b357f92e4ceabc21f11dc9c1b695e1ca89d22c2724f13fc30cec2",
      "v": 27,
      "creates": null,
      "raw": "0xf86d04850d829211eb83015f90946107cf14d0229ca0d8f3256d50d8114e5dae6e1d888ac7230489e80000801ba045e9b4028a616de16a1246fa33e5e797603b2612e051e476e339608b0159997fa02f2c8ec4153b357f92e4ceabc21f11dc9c1b695e1ca89d22c2724f13fc30cec2",
      "networkId": 0,
      "chainId": 0
    }
  ]
}