{
  "hash": "0xe6f3b61a782e719afaff2864510e0495bb6fd7c92a94839d8e9592f548c96c6e",
  "parentHash": "0xfafc1b9a3aedbacf256a75f90750f49be328c64abea8867004016b54acd0df94",
  "number": 60531,
  "timestamp": 1439157316,
  "nonce": "0x346b2eca183155d5",
  "difficulty": 1738946017705,
  "gasLimit": {
    "_hex": "0x2fefd5"
  },
  "gasUsed": {
    "_hex": "0xa410"
  },
  "miner": "0x02020D22dCF88f5eDd66B382D7da019F161fB7e3",
  "extraData": "0x",
  "transactions": [
    {
      "hash": "0xb487a515b9f4e878cedb4105430553152fc02c03ccdbc698408d1b5ec5190ed7",
      "blockHash": "0xe6f3b61a782e719afaff2864510e0495bb6fd7c92a94839d8e9592f548c96c6e",
      "blockNumber": 60531,
      "transactionIndex": 0,
      "confirmations": null,
      "from": "0x8d92b9eb5d4Abe7d993CebD93D97CeE06D79F369",
      "gasPrice": {
        "_hex": "0x746a528800"
      },
      "gasLimit": {
        "_hex": "0x5b04"
      },
      "to": "0x0000000000000000000000000000000000000000",
      "value": {
        "_hex": "0x34d8bbd308b00000"
      },
      "nonce": 0,
      "data": "0x",
      "r": "0x0968f8f1679c2df233837c837df3992468e1884c51b3c0176232f5639263b4bb",
      "s": "0x0e789acfe7c1ff95fc777c93b47a6a975344ae92f2f224150931f215c5393676",
      "v": 27,
      "creates": null,
      "raw": "0xf86c8085746a528800825b049400000000000000000000000000000000000000008834d8bbd308b00000801ba00968f8f1679c2df233837c837df3992468e1884c51b3c0176232f5639263b4bba00e789acfe7c1ff95fc777c93b47a6a975344ae92f2f224150931f215c5393676",
      "networkId": 0,
      "chainId": 0
    },
    {
      "hash": "0xe19d2e9f3af9eb2a99680c6f66be4acb220d636c02c45436fa0ceda2d0c94fd6",
      "blockHash": "0xe6f3b61a782e719afaff2864510e0495bb6fd7c92a94839d8e9592f548c96c6e",
      "blockNumber": 60531,
      "transactionIndex": 1,
      "confirmations": null,
      "from": "0x32Be343B94f860124dC4fEe278FDCBD38C102D88",
      "gasPrice": {
        "_hex": "0xd165ed32d"
      },
      "gasLimit": {
        "_hex": "0x5208"
      },
      "to": "0x526384ca4cF099ECa3f719e8ac32dEf6eaDB1E80",
      "value": {
        "_hex": "0x7cc2e55e72c30000"
      },
      "nonce": 121,
      "data": "0x",
      "r": "0xe1493cdde36596e7fd9ee564edb474f9c1f300738d73cd91cd11c1e38762fcdb",
      "s": "0x30fb767819fc540a8af8cbadf4f3eb15414fbc0f165fe091e1dd7d27854880f5",
      "v": 28,
      "creates": null,
      "raw": "0xf86c79850d165ed32d82520894526384ca4cf099eca3f719e8ac32def6eadb1e80887cc2e55e72c30000801ca0e1493cdde36596e7fd9ee564edb474f9c1f300738d73cd91cd11c1e38762fcdba030fb767819fc540a8af8cbadf4f3eb15414fbc0f165fe091e1dd7d27854880f5",
      "networkId": 0,
      "chainId": 0
    }
  ]
}