{
  "hash": "0x5b6cb4378cf11a7b821aeff57fd54234f3c4b6a2458a6cec7527840c388b638e",
  "parentHash": "0xe6f6ab78244d125dbe2470fde49462ce997ef6c6bcdebd19f257061cbecf81f2",
  "number": 74358,
  "timestamp": 1439384824,
  "nonce": "0x28f9dac2b31eb886",
  "difficulty": 2212906226230,
  "gasLimit": {
    "_hex": "0x2fefd8"
  },
  "gasUsed": {
    "_hex": "0x5208"
  },
  "miner": "0xe6A7a1d47ff21B6321162AEA7C6CB457D5476Bca",
  "extraData": "0x476574682f76312e302e312d38326566323666362f6c696e75782f676f312e34",
  "transactions": [
    {
      "hash": "0xe4fb5d8df3ab39d81ad7e1c173aef94d3960c2728af2b94ffb47800cd3b80680",
      "blockHash": "0x5b6cb4378cf11a7b821aeff57fd54234f3c4b6a2458a6cec7527840c388b638e",
      "blockNumber": 74358,
      "transactionIndex": 0,
      "confirmations": null,
      "from": "0x32Be343B94f860124dC4fEe278FDCBD38C102D88",
      "gasPrice": {
        "_hex": "0xd1a8fe2e6"
      },
      "gasLimit": {
        "_hex": "0x5208"
      },
      "to": "0xCB44206190cFF6f59d4674f5239d254f1E9eaD09",
      "value": {
        "_hex": "0x7a1fe16027700000"
      },
      "nonce": 317,
      "data": "0x",
      "r": "0x3d7e8e730e31ae95b1d8938b58aab7bbde4cd9d8da11a0cda0ee152db356cdce",
      "s": "0x22ab0b87d08076ade7f3253b4c07f0a80ea47d141fe714edac10cfc7cb72037e",
      "v": 28,
      "creates": null,
      "raw": "0xf86e82013d850d1a8fe2e682520894cb44206190cff6f59d4674f5239d254f1e9ead09887a1fe16027700000801ca03d7e8e730e31ae95b1d8938b58aab7bbde4cd9d8da11a0cda0ee152db356cdcea022ab0b87d08076ade7f3253b4c07f0a80ea47d141fe714edac10cfc7cb72037e",
      "networkId": 0,
      "chainId": 0
    }
  ]
}