{
  "hash": "0x352cc22453099416573deca41eef93e0d39b6ffb95f614115fc9927cba4f5b69",
  "parentHash": "0x0b0836ef485667a91a84b028f821c12bbc7a3159d0538c31b514f87f5d89336b",
  "number": 89759,
  "timestamp": 1439628610,
  "nonce": "0xf4c8205a94d5cb5f",
  "difficulty": 3346778094573,
  "gasLimit": {
    "_hex": "0x2fefd8"
  },
  "gasUsed": {
    "_hex": "0x5208"
  },
  "miner": "0xe6A7a1d47ff21B6321162AEA7C6CB457D5476Bca",
  "extraData": "0x476574682f76312e302e312d38326566323666362f6c696e75782f676f312e34",
  "transactions": [
    {
      "hash": "0xcb8c82fd2ec4df5fd0826af37bfa2a4a520b653e6e526fd5f11a62daacb7ead0",
      "blockHash": "0x352cc22453099416573deca41eef93e0d39b6ffb95f614115fc9927cba4f5b69",
      "blockNumber": 89759,
      "transactionIndex": 0,
      "confirmations": null,
      "from": "0x72b5633FE477fe542E742FAcFd690c137854F216",
      "gasPrice": {
        "_hex": "0xcbd791122"
      },
      "gasLimit": {
        "_hex": "0x15f90"
      },
      "to": "0x9E9b687E37e359c5a5E1468dDb0803c592DEc47f",
      "value": {
        "_hex": "0x55005f0c6144800000"
      },
      "nonce": 2,
      "data": "0x",
      "r": "0xbba8fa8ea6bcc80993674733ed60ac9608f91d50b8d54ee220c240a6edbe0a4f",
      "s": "0x6fd1069f13c14d8afba23f7542a4bdb5523c2505f5eb171870dccef0e8159d33",
      "v": 28,
      "creates": null,
      "raw": "0xf86e02850cbd79112283015f90949e9b687e37e359c5a5e1468ddb0803c592dec47f8955005f0c6144800000801ca0bba8fa8ea6bcc80993674733ed60ac9608f91d50b8d54ee220c240a6edbe0a4fa06fd1069f13c14d8afba23f7542a4bdb5523c2505f5eb171870dccef0e8159d33",
      "networkId": 0,
      "chainId": 0
    }
  ]
}