{
  "hash": "0x37d1ffa43f4ebac4c850b952ae64c03253d8d5be4752c4372ffed93380078c5e",
  "parentHash": "0xe7a9027e1af760c98e9c029122c34c4102c8ed89d3fbab65bb4e2528864ff118",
  "number": 122013,
  "timestamp": 1440186735,
  "nonce": "0x81de345cc031abe4",
  "difficulty": 4460089314048,
  "gasLimit": {
    "_hex": "0x2fefd8"
  },
  "gasUsed": {
    "_hex": "0xa410"
  },
  "miner": "0x7E6930B63D03e88F5928C5cd6ee3FCee4D714F7F",
  "extraData": "0xd783010003844765746887676f312e342e32856c696e7578",
  "transactions": [
    {
      "hash": "0x327027a0b11c332514c77e6318a87d177b63e3637df854848e37b0081b2b9693",
      "blockHash": "0x37d1ffa43f4ebac4c850b952ae64c03253d8d5be4752c4372ffed93380078c5e",
      "blockNumber": 122013,
      "transactionIndex": 0,
      "confirmations": null,
      "from": "0x32Be343B94f860124dC4fEe278FDCBD38C102D88",
      "gasPrice": {
        "_hex": "0xd8f936c0c"
      },
      "gasLimit": {
        "_hex": "0x5208"
      },
      "to": "0xBdF25376dA0767EfBF7eE3dCAe463ECe5572bFF3",
      "value": {
        "_hex": "0xd0072d945f1b0000"
      },
      "nonce": 1592,
      "data": "0x",
      "r": "0xda18ccbb718e3157469e31fe26f63978695ef492ecafc67bb562f1d62d32bbab",
      "s": "0x04a7e0e3e119dbbcc364084b5751a37146cc2f3c60e0b9be43c0c132f48bf6cd",
      "v": 28,
      "creates": null,
      "raw": "0xf86e820638850d8f936c0c82520894bdf25376da0767efbf7ee3dcae463ece5572bff388d0072d945f1b0000801ca0da18ccbb718e3157469e31fe26f63978695ef492ecafc67bb562f1d62d32bbaba004a7e0e3e119dbbcc364084b5751a37146cc2f3c60e0b9be43c0c132f48bf6cd",
      "networkId": 0,
      "chainId": 0
    },
    {
      "hash": "0x6eb1da945537ca9157d58c2e561b040eccb9ad16a68212118d10548027418824",
      "blockHash": "0x37d1ffa43f4ebac4c850b952ae64c03253d8d5be4752c4372ffed93380078c5e",
      "blockNumber": 122013,
      "transactionIndex": 1,
      "confirmations": null,
      "from": "0xFBb1b73C4f0BDa4f67dcA266ce6Ef42f520fBB98",
      "gasPrice": {
        "_hex": "0xba43b7400"
      },
      "gasLimit": {
        "_hex": "0x5208"
      },
      "to": "0xf7723B56b738EC1EBdB445a9a0eae711c87B3c54",
      "value": {
        "_hex": "0x6ccd46763f10000"
      },
      "nonce": 262,
      "data": "0x",
      "r": "0xc4a91283b703c08bcd90dd8c1ed48ea0dec601c87fc533281ae97b090744826f",
      "s": "0x0c9e9268045e92a933ffecef6293dbdce69f1e44a6d887df375ef07941954cf0",
      "v": 27,
      "creates": null,
      "raw": "0xf86e820106850ba43b740082520894f7723b56b738ec1ebdb445a9a0eae711c87b3c548806ccd46763f10000801ba0c4a91283b703c08bcd90dd8c1ed48ea0dec601c87fc533281ae97b090744826fa00c9e9268045e92a933ffecef6293dbdce69f1e44a6d887df375ef07941954cf0",
      "networkId": 0,
      "chainId": 0
    }
  ]
}