{
  "hash": "0x68083d789d58f93abfa75f442c619ac8b4db649ac91e6d801131726d7408911d",
  "parentHash": "0xfe803806bd89a0d84be7e94b0d6f05ece21fefdcda8520fd905b13f794f52655",
  "number": 115148,
  "timestamp": 1440052387,
  "nonce": "0x363f0eb1ea43fb4b",
  "difficulty": 4531821171056,
  "gasLimit": {
    "_hex": "0x2fefd8"
  },
  "gasUsed": {
    "_hex": "0x5208"
  },
  "miner": "0x9827C93917a0c59899BEfBa58d104A788782e1d4",
  "extraData": "0xd983010001844765746887676f312e342e328777696e646f7773",
  "transactions": [
    {
      "hash": "0x9cf9b51c491ab1cd2293c9e11a967c7351df3208011f7d955bc175aa019a89a7",
      "blockHash": "0x68083d789d58f93abfa75f442c619ac8b4db649ac91e6d801131726d7408911d",
      "blockNumber": 115148,
      "transactionIndex": 0,
      "confirmations": null,
      "from": "0x32Be343B94f860124dC4fEe278FDCBD38C102D88",
      "gasPrice": {
        "_hex": "0xd70745339"
      },
      "gasLimit": {
        "_hex": "0x5208"
      },
      "to": "0xed433C980AaED4E749B3229F3993BfB2840f2433",
      "value": {
        "_hex": "0x2c3a0ded7e92b0000"
      },
      "nonce": 1410,
      "data": "0x",
      "r": "0x6b0a16dbc51843b260a10c245781d77759f37fecc112f11462db6370045918fd",
      "s": "0x3e280c79f2d3a28d92b41f746a464c1356a1445e86257c8b49cc8dfc704be037",
      "v": 27,
      "creates": null,
      "raw": "0xf86f820582850d7074533982520894ed433c980aaed4e749b3229f3993bfb2840f24338902c3a0ded7e92b0000801ba06b0a16dbc51843b260a10c245781d77759f37fecc112f11462db6370045918fda03e280c79f2d3a28d92b41f746a464c1356a1445e86257c8b49cc8dfc704be037",
      "networkId": 0,
      "chainId": 0
    }
  ]
}