{
  "hash": "0x1b2a665a4c131892170add3c6c55add8c7753a70f4a300e62cb5c0ba9d6c9a03",
  "parentHash": "0x400c09855815f5efea5da0ea0f4059aa94ee242425c282b1ef10f792aa0df811",
  "number": 114750,
  "timestamp": 1440045689,
  "nonce": "0x9d087b3410ec21d4",
  "difficulty": 4461773475695,
  "gasLimit": {
    "_hex": "0x2fefd8"
  },
  "gasUsed": {
    "_hex": "0xa410"
  },
  "miner": "0xf8E0CA3Ed80bd541b94BEdCf259e8CF2141A9523",
  "extraData": "0x476574682f76312e302e312f77696e646f77732f676f312e342e32",
  "transactions": [
    {
      "hash": "0x862637412206c5fcf6ad3c38d778f18bfc5ba8018d7926bce4717c16752d5928",
      "blockHash": "0x1b2a665a4c131892170add3c6c55add8c7753a70f4a300e62cb5c0ba9d6c9a03",
      "blockNumber": 114750,
      "transactionIndex": 0,
      "confirmations": null,
      "from": "0xa8E7201ff619fAFFc332E6aD37Ed41e301bf014a",
      "gasPrice": {
        "_hex": "0xde062ed2b"
      },
      "gasLimit": {
        "_hex": "0x15f90"
      },
      "to": "0xb0322e042c6d3062151184d90a8451Db8e76E6C3",
      "value": {
        "_hex": "0x1ae361fc1451c0000"
      },
      "nonce": 8,
      "data": "0x",
      "r": "0x76f7cb60ecf3055cea92fa33349a2da6795b94902968b8a2007e2ab2fde52bd5",
      "s": "0x76351368233c503e3c15e3f7911c20542aa58bf9808352768a4b6550febf0418",
      "v": 27,
      "creates": null,
      "raw": "0xf86e08850de062ed2b83015f9094b0322e042c6d3062151184d90a8451db8e76e6c38901ae361fc1451c0000801ba076f7cb60ecf3055cea92fa33349a2da6795b94902968b8a2007e2ab2fde52bd5a076351368233c503e3c15e3f7911c20542aa58bf9808352768a4b6550febf0418",
      "networkId": 0,
      "chainId": 0
    },
    {
      "hash": "0x163c02c918d80ae38ce9b6c8b3c9e7987b280264aba60d355d63e072e98fb96d",
      "blockHash": "0x1b2a665a4c131892170add3c6c55add8c7753a70f4a300e62cb5c0ba9d6c9a03",
      "blockNumber": 114750,
      "transactionIndex": 1,
      "confirmations": null,
      "from": "0x5eb371C407406C427b3b7dE271aD3c1e04269579",
      "gasPrice": {
        "_hex": "0xba43b7400"
      },
      "gasLimit": {
        "_hex": "0x15f90"
      },
      "to": "0x99C1262466e1623551D496779CEFF1Fc07d14841",
      "value": {
        "_hex": "0x6c6b935b8bbd400000"
      },
      "nonce": 0,
      "data": "0x",
      "r": "0x1203641b71472eeabcced352a52e89fd5c354a87a5628b0383bedacec5ceee01",
      "s": "0x512eadc3e33f394e4bcb88cbb2e874fdf114162b95979f25ce6a346e5146fd21",
      "v": 28,
      "creates": null,
      "raw": "0xf86e80850ba43b740083015f909499c1262466e1623551d496779ceff1fc07d14841896c6b935b8bbd400000801ca01203641b71472eeabcced352a52e89fd5c354a87a5628b0383bedacec5ceee01a0512eadc3e33f394e4bcb88cbb2e874fdf114162b95979f25ce6a346e5146fd21",
      "networkId": 0,
      "chainId": 0
    }
  ]
}