{
  "hash": "0x67e4c0159ea8ec7a262e3861b68b59663b7b6bff0b748d80d4a8dc97c61f55ef",
  "parentHash": "0x27a9a6a1d07d05efbc4b3f131ea999b6a3647dabd6c2e5dbb909f7c290847733",
  "number": 68389,
  "timestamp": 1439287008,
  "nonce": "0x3d167ac7a6ea4413",
  "difficulty": 2017293013452,
  "gasLimit": {
    "_hex": "0x2fefd8"
  },
  "gasUsed": {
    "_hex": "0xa8ff"
  },
  "miner": "0x39A1BB80a741bF5EC39FB9BE59408Fa0F418fFBf",
  "extraData": "0x476574682f76312e302e312f77696e646f77732f676f312e342e32",
  "transactions": [
    {
      "hash": "0x05be95788c441173775c99439583bec3cfb493e40de6cf932032d4ed8e2d1bc1",
      "blockHash": "0x67e4c0159ea8ec7a262e3861b68b59663b7b6bff0b748d80d4a8dc97c61f55ef",
      "blockNumber": 68389,
      "transactionIndex": 0,
      "confirmations": null,
      "from": "0x17580B766f7453525ca4C6A88b01b50570EA088C",
      "gasPrice": {
        "_hex": "0xdca849b09"
      },
      "gasLimit": {
        "_hex": "0x61a80"
      },
      "to": "0x5Fe5B7546D1628f7348B023A0393de1FC825A4fD",
      "value": {
        "_hex": "0xb1a2bc2ec50000"
      },
      "nonce": 15,
      "data": "0xb595b8b50000000000000000000000000000000000000000000000000000000000000000",
      "r": "0x9ed0f9902739e2a942f3b1bcdecf3fe2c837297ce033c20c2e1da479869d61e1",
      "s": "0x1a13ab55cae675ca3af226d7b612cefb239058d3267c27d08a6a2422f4e80338",
      "v": 27,
      "creates": null,
      "raw": "0xf8900f850dca849b0983061a80945fe5b7546d1628f7348b023a0393de1fc825a4fd87b1a2bc2ec50000a4b595b8b500000000000000000000000000000000000000000000000000000000000000001ba09ed0f9902739e2a942f3b1bcdecf3fe2c837297ce033c20c2e1da479869d61e1a01a13ab55cae675ca3af226d7b612cefb239058d3267c27d08a6a2422f4e80338",
      "networkId": 0,
      "chainId": 0
    },
    {
      "hash": "0x7826817172bf43f657e577e0dca0a339938b3b17666540d1c936045d5b3fa238",
      "blockHash": "0x67e4c0159ea8ec7a262e3861b68b59663b7b6bff0b748d80d4a8dc97c61f55ef",
      "blockNumber": 68389,
      "transactionIndex": 1,
      "confirmations": null,
      "from": "0x6747f922385c9a6F9cfDf095F34345257DD597bE",
      "gasPrice": {
        "_hex": "0xba43b7400"
      },
      "gasLimit": {
        "_hex": "0x5208"
      },
      "to": "0x9e35614A1392fcD60F5FfCCf9c28261D088FE961",
      "value": {
        "_hex": "0x1fcbfa42bd6000"
      },
      "nonce": 74,
      "data": "0x",
      "r": "0x85e259a4ba7ab9a0a11f113e1f34858566da5df417ac79550ec716957f3ee22e",
      "s": "0x2ead0675df25b431b81fd37416a36046d5689a488548723e3a0ba99d67fda260",
      "v": 27,
      "creates": null,
      "raw": "0xf86b4a850ba43b7400825208949e35614a1392fcd60f5ffccf9c28261d088fe961871fcbfa42bd6000801ba085e259a4ba7ab9a0a11f113e1f34858566da5df417ac79550ec716957f3ee22ea02ead0675df25b431b81fd37416a36046d5689a488548723e3a0ba99d67fda260",
      "networkId": 0,
      "chainId": 0
    }
  ]
}