{
  "hash": "0x4b46ac6d1b39996b7f1aaa1ac948d6b211d8a89e62e1f77b33aa47f152416d90",
  "parentHash": "0x91346355a8fa73d036e39fae93b41390871070fb5d594017c42f3e28f41e404e",
  "number": 115419,
  "timestamp": 1440056948,
  "nonce": "0xdcf7b091c7263a16",
  "difficulty": 4560531775917,
  "gasLimit": {
    "_hex": "0x2fefd8"
  },
  "gasUsed": {
    "_hex": "0xf618"
  },
  "miner": "0xf8E0CA3Ed80bd541b94BEdCf259e8CF2141A9523",
  "extraData": "0x476574682f76312e302e312f77696e646f77732f676f312e342e32",
  "transactions": [
    {
      "hash": "0xf82dc19fa02e9a5b837e15e3b51e3d04aaeef150ab2ebdb3fcf099afcffd53f3",
      "blockHash": "0x4b46ac6d1b39996b7f1aaa1ac948d6b211d8a89e62e1f77b33aa47f152416d90",
      "blockNumber": 115419,
      "transactionIndex": 0,
      "confirmations": null,
      "from": "0x108feDb097c1DCfED441480170144D8e19BB217f",
      "gasPrice": {
        "_hex": "0xd78870dd6"
      },
      "gasLimit": {
        "_hex": "0x5208"
      },
      "to": "0x32Be343B94f860124dC4fEe278FDCBD38C102D88",
      "value": {
        "_hex": "0x33c424887cf20000"
      },
      "nonce": 7,
      "data": "0x",
      "r": "0xc41555d4b1f5cbee90e9c7c4060a9f3e438e09c835734b22660ce9ac21d5d5b8",
      "s": "0x27e4ac83c49ccd9ec029ba941e0d2ffd39bc9fc90b8961ef1c10fd477ebcfa1c",
      "v": 27,
      "creates": null,
      "raw": "0xf86c07850d78870dd68252089432be343b94f860124dc4fee278fdcbd38c102d888833c424887cf20000801ba0c41555d4b1f5cbee90e9c7c4060a9f3e438e09c835734b22660ce9ac21d5d5b8a027e4ac83c49ccd9ec029ba941e0d2ffd39bc9fc90b8961ef1c10fd477ebcfa1c",
      "networkId": 0,
      "chainId": 0
    },
    {
      "hash": "0xdd41993de6f92be4866f43310bbb31c0c537a1c661f8793417a2607e66a9edc5",
      "blockHash": "0x4b46ac6d1b39996b7f1aaa1ac948d6b211d8a89e62e1f77b33aa47f152416d90",
      "blockNumber": 115419,
      "transactionIndex": 1,
      "confirmations": null,
      "from": "0x378fCAEF49580b550cB7164f14811a5E613BD683",
      "gasPrice": {
        "_hex": "0xd78870dd6"
      },
      "gasLimit": {
        "_hex": "0x5208"
      },
      "to": "0x32Be343B94f860124dC4fEe278FDCBD38C102D88",
      "value": {
        "_hex": "0x4678528019a88400"
      },
      "nonce": 6,
      "data": "0x",
      "r": "0xc18c40c0ae7c013ff959d7200d40e9dd6cea197636d13a153da69fbf20e25daa",
      "s": "0x31718a71584584954785faedf08b03ae6e96f80dd23fa0f7d06fa368bec043d9",
      "v": 28,
      "creates": null,
      "raw": "0xf86c06850d78870dd68252089432be343b94f860124dc4fee278fdcbd38c102d88884678528019a88400801ca0c18c40c0ae7c013ff959d7200d40e9dd6cea197636d13a153da69fbf20e25daaa031718a71584584954785faedf08b03ae6e96f80dd23fa0f7d06fa368bec043d9",
      "networkId": 0,
      "chainId": 0
    },
    {
      "hash": "0x072d1186a92222c778a82bc5ed31905eda0107bee116a5af8ad099f0649d07fd",
      "blockHash": "0x4b46ac6d1b39996b7f1aaa1ac948d6b211d8a89e62e1f77b33aa47f152416d90",
      "blockNumber": 115419,
      "transactionIndex": 2,
      "confirmations": null,
      "from": "0xdCe26B66eabfB4dE900E4944DcC2FA2d455021fc",
      "gasPrice": {
        "_hex": "0xd78870dd6"
      },
      "gasLimit": {
        "_hex": "0x5208"
      },
      "to": "0x32Be343B94f860124dC4fEe278FDCBD38C102D88",
      "value": {
        "_hex": "0x11d7f0d5df24d800"
      },
      "nonce": 6,
      "data": "0x",
      "r": "0xdea3160c3cdbf637ab30e3a1e3f02bfc9da1afe73c4152595a8df183cb782fc5",
      "s": "0x3c5f7b10213ffd49002160599fb66c7192f7a249b18d30a682bc50fa2c4fb72b",
      "v": 27,
      "creates": null,
      "raw": "0xf86c06850d78870dd68252089432be343b94f860124dc4fee278fdcbd38c102d888811d7f0d5df24d800801ba0dea3160c3cdbf637ab30e3a1e3f02bfc9da1afe73c4152595a8df183cb782fc5a03c5f7b10213ffd49002160599fb66c7192f7a249b18d30a682bc50fa2c4fb72b",
      "networkId": 0,
      "chainId": 0
    }
  ]
}