{
  "hash": "0xe04d25a12900284227bbfff0dd8d0a0be8e46b6082ea58c895708af55d0bb491",
  "parentHash": "0x2e023393c26d66a85d2f05fae920b164e080c0c03a9815c83a509aae8626d0e1",
  "number": 109099,
  "timestamp": 1439951026,
  "nonce": "0x54982d3f9e514bd1",
  "difficulty": 4423550413294,
  "gasLimit": {
    "_hex": "0x2fefd8"
  },
  "gasUsed": {
    "_hex": "0x546c"
  },
  "miner": "0x790b8a3cE86E707ED0eD32bF89B3269692a23CC1",
  "extraData": "0xd783010001844765746887676f312e342e32856c696e7578",
  "transactions": [
    {
      "hash": "0x420ab41987a447210b05249ba5a81a119bfa06b3eb76e723600e9ea3819cf748",
      "blockHash": "0xe04d25a12900284227bbfff0dd8d0a0be8e46b6082ea58c895708af55d0bb491",
      "blockNumber": 109099,
      "transactionIndex": 0,
      "confirmations": null,
      "from": "0x52D380511DF19D5eC2807bbCb676581B67FD37A3",
      "gasPrice": {
        "_hex": "0xcd3049a5b"
      },
      "gasLimit": {
        "_hex": "0x55f0"
      },
      "to": "0x2910543Af39abA0Cd09dBb2D50200b3E800A63D2",
      "value": {
        "_hex": "0xb45cbbf181251788"
      },
      "nonce": 1,
      "data": "0x454e4432414b4b5847",
      "r": "0x15d6dcfa69b343c074f097aa033a801b2542b31051bc7fd691c5a9225365f412",
      "s": "0x21d0634f1a80e9299e9aa77074de1c1dd8543e9444eb2ffb83b99bc590137bc0",
      "v": 27,
      "creates": null,
      "raw": "0xf87501850cd3049a5b8255f0942910543af39aba0cd09dbb2d50200b3e800a63d288b45cbbf18125178889454e4432414b4b58471ba015d6dcfa69b343c074f097aa033a801b2542b31051bc7fd691c5a9225365f412a021d0634f1a80e9299e9aa77074de1c1dd8543e9444eb2ffb83b99bc590137bc0",
      "networkId": 0,
      "chainId": 0
    }
  ]
}