{
  "hash": "0x1d26f3b4def8e1d46e847baf257fbbcd5a3a8e21fb29cc14a48034cbd747becc",
  "parentHash": "0x06f23561a9bb3b3fde33ca6fb9c4719e392dc16aa66b86b01f36c5afac76fa31",
  "number": 76465,
  "timestamp": 1439421124,
  "nonce": "0x200ec2b05cb6a1ae",
  "difficulty": 2224265183092,
  "gasLimit": {
    "_hex": "0x2fefd8"
  },
  "gasUsed": {
    "_hex": "0x1b497"
  },
  "miner": "0xD6e6b0E55C9b50F68269e40E31f8Ce7a8B43f9fC",
  "extraData": "0x476574682f76312e302e312f77696e646f77732f676f312e342e32",
  "transactions": [
    {
      "hash": "0x2f216a3575f42b41878dee892dbac85ac006c801bc7c5c89544558d6f66227e5",
      "blockHash": "0x1d26f3b4def8e1d46e847baf257fbbcd5a3a8e21fb29cc14a48034cbd747becc",
      "blockNumber": 76465,
      "transactionIndex": 0,
      "confirmations": null,
      "from": "0x8Be84A3adfBc51c59023B2413766E229108c35DE",
      "gasPrice": {
        "_hex": "0xd219c74ad"
      },
      "gasLimit": {
        "_hex": "0x493e0"
      },
      "to": "0xD79B4C6791784184e2755B2fC1659eaaB0f80456",
      "value": {
        "_hex": "0x1bc16d674ec80000"
      },
      "nonce": 7,
      "data": "0x8d21618600000000000000000000000000000000000000000000000000000000000000e69aa6c43e41d0f7e821b682861483068c860f5e744fd7ec6be13a658a48ceba11",
      "r": "0xcf115d812237034cf211c8a86fec336b249d36af457170dca26cc62c5003f5e9",
      "s": "0x2c4440e3d640d56f2c2cd58f52057fd37825772441d3e0032752d832e9d6fd7a",
      "v": 28,
      "creates": null,
      "raw": "0xf8b207850d219c74ad830493e094d79b4c6791784184e2755b2fc1659eaab0f80456881bc16d674ec80000b8448d21618600000000000000000000000000000000000000000000000000000000000000e69aa6c43e41d0f7e821b682861483068c860f5e744fd7ec6be13a658a48ceba111ca0cf115d812237034cf211c8a86fec336b249d36af457170dca26cc62c5003f5e9a02c4440e3d640d56f2c2cd58f52057fd37825772441d3e0032752d832e9d6fd7a",
      "networkId": 0,
      "chainId": 0
    }
  ]
}