{
  "hash": "0x2bf9778b2d8da7d17f1a47d56946d079ad2afeb8fb178e046d0f15c70cae3fcb",
  "parentHash": "0xc4fb10804ec8beb2417459616640d10565d04e00e55b37b68de519a6a39586ca",
  "number": 51874,
  "timestamp": 1439012365,
  "nonce": "0x31fca81dc188b61d",
  "difficulty": 1562678010571,
  "gasLimit": {
    "_hex": "0xe872f"
  },
  "gasUsed": {
    "_hex": "0x5208"
  },
  "miner": "0xF2d2AfF1320476cb8C6b607199D23175cc595693",
  "extraData": "0x476574682f76312e302e312f77696e646f77732f676f312e342e32",
  "transactions": [
    {
      "hash": "0xe343f4398df0b039fc9d56b0fd366f78438fe9752634e71b40b06ce1aa7ccf25",
      "blockHash": "0x2bf9778b2d8da7d17f1a47d56946d079ad2afeb8fb178e046d0f15c70cae3fcb",
      "blockNumber": 51874,
      "transactionIndex": 0,
      "confirmations": null,
      "from": "0xFEc14e5485dE2B3eEf5e74C46146dB8e454E0335",
      "gasPrice": {
        "_hex": "0xd1977dcee"
      },
      "gasLimit": {
        "_hex": "0x15f90"
      },
      "to": "0x55eeb8fb7dDf70493b2B210204f5134eFb734Fe6",
      "value": {
        "_hex": "0x2386f26fc10000"
      },
      "nonce": 0,
      "data": "0x",
      "r": "0x180fdc12b6707c9a75ccefa1b4d7933f072db4e95b9f00a08249eadbdb221a07",
      "s": "0x550171fa257014f017b952376eabeb8c8316929741837e44cc1a4f7c321e4fa7",
      "v": 27,
      "creates": null,
      "raw": "0xf86c80850d1977dcee83015f909455eeb8fb7ddf70493b2b210204f5134efb734fe6872386f26fc10000801ba0180fdc12b6707c9a75ccefa1b4d7933f072db4e95b9f00a08249eadbdb221a07a0550171fa257014f017b952376eabeb8c8316929741837e44cc1a4f7c321e4fa7",
      "networkId": 0,
      "chainId": 0
    }
  ]
}