{
  "hash": "0xc082e5838590aa1ceb1f2ee9eb84f69696f14d4a6264108d6a68886c54679c13",
  "parentHash": "0x1cb3eca4d1bcdf28393067444d338460361540c2d138e4bc7f36d693cf1d1dc1",
  "number": 65779,
  "timestamp": 1439242724,
  "nonce": "0x8e39e9e907f78d5d",
  "difficulty": 1952019600115,
  "gasLimit": {
    "_hex": "0x2fefd8"
  },
  "gasUsed": {
    "_hex": "0x5208"
  },
  "miner": "0xde8B4cca204F866220e8e25817668Cd44a5fee88",
  "extraData": "0x",
  "transactions": [
    {
      "hash": "0xb5d9251c62bf0239fdb2ed305df960ffb716305c0ecadde4b1bb13a5b3960416",
      "blockHash": "0xc082e5838590aa1ceb1f2ee9eb84f69696f14d4a6264108d6a68886c54679c13",
      "blockNumber": 65779,
      "transactionIndex": 0,
      "confirmations": null,
      "from": "0x2910543Af39abA0Cd09dBb2D50200b3E800A63D2",
      "gasPrice": {
        "_hex": "0xcfb79f51a"
      },
      "gasLimit": {
        "_hex": "0x5208"
      },
      "to": "0xd767b087480fEa2168C99Bd35e6cB7bAfBb4a11b",
      "value": {
        "_hex": "0x3f64a0746021bd8000"
      },
      "nonce": 190,
      "data": "0x",
      "r": "0x5e895f6c9c440970dd25807a8de24488c55161a71ff631b03001a2f6c3367cb1",
      "s": "0x55db40e1d78a8c398d9df77b48593a90a9063688740f100072f75d84714217ab",
      "v": 27,
      "creates": null,
      "raw": "0xf86e81be850cfb79f51a82520894d767b087480fea2168c99bd35e6cb7bafbb4a11b893f64a0746021bd8000801ba05e895f6c9c440970dd25807a8de24488c55161a71ff631b03001a2f6c3367cb1a055db40e1d78a8c398d9df77b48593a90a9063688740f100072f75d84714217ab",
      "networkId": 0,
      "chainId": 0
    }
  ]
}