{
  "hash": "0xe43733774c489252faf5e3209ca2b065d29b9dcdf2ecc69ea41b255b71f415f5",
  "parentHash": "0x5b70cf3f81eee78ae43d4e93741224008e688a6cdf9751715d1f738b8e03dcd9",
  "number": 74747,
  "timestamp": 1439391497,
  "nonce": "0x7125bc0e147fd5a8",
  "difficulty": 2205253227445,
  "gasLimit": {
    "_hex": "0x2fefd5"
  },
  "gasUsed": {
    "_hex": "0x5208"
  },
  "miner": "0xf927a40C8B7F6E07c5af7FA2155B4864a4112B13",
  "extraData": "0x",
  "transactions": [
    {
      "hash": "0xe431114baa9d9b491698156d74b224b74e39cf2e8df9c4fbdaa66916e14049af",
      "blockHash": "0xe43733774c489252faf5e3209ca2b065d29b9dcdf2ecc69ea41b255b71f415f5",
      "blockNumber": 74747,
      "transactionIndex": 0,
      "confirmations": null,
      "from": "0x3810f2978dbC4f892c9a600624B0467Bb3058b25",
      "gasPrice": {
        "_hex": "0xcfd084437"
      },
      "gasLimit": {
        "_hex": "0x15f90"
      },
      "to": "0x3fe698DDd00ce16bFb0F2B875D29Cf6B91eB677d",
      "value": {
        "_hex": "0x7ce66c50e2840000"
      },
      "nonce": 0,
      "data": "0x",
      "r": "0x8e167d16cf6c20795086407ade248223642f182ea4810299c7d89f9f284468c4",
      "s": "0x087bc493e951c4db528449b5fb66b606b46b1e041bb964d008bd1686c6f5006c",
      "v": 27,
      "creates": null,
      "raw": "0xf86d80850cfd08443783015f90943fe698ddd00ce16bfb0f2b875d29cf6b91eb677d887ce66c50e2840000801ba08e167d16cf6c20795086407ade248223642f182ea4810299c7d89f9f284468c4a0087bc493e951c4db528449b5fb66b606b46b1e041bb964d008bd1686c6f5006c",
      "networkId": 0,
      "chainId": 0
    }
  ]
}