{
  "hash": "0xed160b24b3ecd7907626e20e8d36efb9df77d28c63b8258eff5e5006aac86853",
  "parentHash": "0xf76711fbb7fb9f9377c872f8aa6e7cf09469aa27bbc67804d1b11eda08ffb11d",
  "number": 121820,
  "timestamp": 1440183150,
  "nonce": "0x26562ce00080c5f4",
  "difficulty": 4488593744808,
  "gasLimit": {
    "_hex": "0x2fefd8"
  },
  "gasUsed": {
    "_hex": "0x14820"
  },
  "miner": "0xe6A7a1d47ff21B6321162AEA7C6CB457D5476Bca",
  "extraData": "0xd783010002844765746887676f312e342e32856c696e7578",
  "transactions": [
    {
      "hash": "0x20a5184ee5b55cbf0eb1ae19e2967e2a45ceff10a537f84bacb39b3fb551daa6",
      "blockHash": "0xed160b24b3ecd7907626e20e8d36efb9df77d28c63b8258eff5e5006aac86853",
      "blockNumber": 121820,
      "transactionIndex": 0,
      "confirmations": null,
      "from": "0x2910543Af39abA0Cd09dBb2D50200b3E800A63D2",
      "gasPrice": {
        "_hex": "0xdfc1a31b7"
      },
      "gasLimit": {
        "_hex": "0x5208"
      },
      "to": "0x26478EaD6b557aB755298E8D63779D9c659bA335",
      "value": {
        "_hex": "0x56bc75e2d63100000"
      },
      "nonce": 1201,
      "data": "0x",
      "r": "0xd249fcb0c870c039dae83f85c869d0b9da690fffb5ca2637fd47949659521d5c",
      "s": "0x01ddb17dd98bf44adb57688c504e0a2f44fb2e4cf6e34c6585b7f4acd40a82b5",
      "v": 28,
      "creates": null,
      "raw": "0xf86f8204b1850dfc1a31b78252089426478ead6b557ab755298e8d63779d9c659ba33589056bc75e2d63100000801ca0d249fcb0c870c039dae83f85c869d0b9da690fffb5ca2637fd47949659521d5ca001ddb17dd98bf44adb57688c504e0a2f44fb2e4cf6e34c6585b7f4acd40a82b5",
      "networkId": 0,
      "chainId": 0
    },
    {
      "hash": "0x98a5a9807bc5b7393de549f8a75e3ca243e92c27ff9b616e231400e0b4787b61",
      "blockHash": "0xed160b24b3ecd7907626e20e8d36efb9df77d28c63b8258eff5e5006aac86853",
      "blockNumber": 121820,
      "transactionIndex": 1,
      "confirmations": null,
      "from": "0xc00f7F96CeAcEc5a46E95242554D9d966e8ed74f",
      "gasPrice": {
        "_hex": "0xdcdca35d1"
      },
      "gasLimit": {
        "_hex": "0x15f90"
      },
      "to": "0x9b0a028EAfDeCdE3AFc0fD00B7937098388b7C8a",
      "value": {
        "_hex": "0x35aafd85c372cac8f0"
      },
      "nonce": 1,
      "data": "0x",
      "r": "0x20e35741e099da8941cbe9c3b1e33e966ca4d164ee234848ad942965d6df2f69",
      "s": "0x00e59c53e816e2d8a0da078452bb7e41a596e4575eb4e80745ab52271d0417d6",
      "v": 28,
      "creates": null,
      "raw": "0xf86d01850dcdca35d183015f90949b0a028eafdecde3afc0fd00b7937098388b7c8a8935aafd85c372cac8f0801ca020e35741e099da8941cbe9c3b1e33e966ca4d164ee234848ad942965d6df2f699fe59c53e816e2d8a0da078452bb7e41a596e4575eb4e80745ab52271d0417d6",
      "networkId": 0,
      "chainId": 0
    },
    {
      "hash": "0x1628aa4945b5977739cba96f9d856f33b7cc817e92a36f6a7fec6ef886acd57e",
      "blockHash": "0xed160b24b3ecd7907626e20e8d36efb9df77d28c63b8258eff5e5006aac86853",
      "blockNumber": 121820,
      "transactionIndex": 2,
      "confirmations": null,
      "from": "0x5fA54d061A07E621f6878B553E127b064c2a3aec",
      "gasPrice": {
        "_hex": "0xba43b7400"
      },
      "gasLimit": {
        "_hex": "0x15f90"
      },
      "to": "0x9FA0960220d2d51D54f755501E391Da140c2EF63",
      "value": {
        "_hex": "0x7cc2e55e72c30000"
      },
      "nonce": 1,
      "data": "0x",
      "r": "0xfd665e8b063553f42be21891cdc6a7cbc4d237bda0058f9636aaa33dee271b96",
      "s": "0x00e4a1923984111aa043ef50eaf2b5ef1e8367bb0c2bb5193d255a239f89966b",
      "v": 27,
      "creates": null,
      "raw": "0xf86c01850ba43b740083015f90949fa0960220d2d51d54f755501e391da140c2ef63887cc2e55e72c30000801ba0fd665e8b063553f42be21891cdc6a7cbc4d237bda0058f9636aaa33dee271b969fe4a1923984111aa043ef50eaf2b5ef1e8367bb0c2bb5193d255a239f89966b",
      "networkId": 0,
      "chainId": 0
    },
    {
      "hash": "0xb8929404aa178c1f27d21484a640c4e4565760f796a9a9cc0447da62bd3f39f3",
      "blockHash": "0xed160b24b3ecd7907626e20e8d36efb9df77d28c63b8258eff5e5006aac86853",
      "blockNumber": 121820,
      "transactionIndex": 3,
      "confirmations": null,
      "from": "0xb6E2d440C46510EC44266A3f58165E3956173df0",
      "gasPrice": {
        "_hex": "0xba43b7400"
      },
      "gasLimit": {
        "_hex": "0x15f90"
      },
      "to": "0xf139E449202bD167D3B34a53Efe805b9479fEAdC",
      "value": {
        "_hex": "0x6cbff3db5527a0000"
      },
      "nonce": 8,
      "data": "0x",
      "r": "0x10705e527f237f16131f9489780b10fa152f2706fd00400535fdac00746338f7",
      "s": "0x32948eeaf1084b86273704ca2441bb22aa505e3a5429804b09e65590baafa72d",
      "v": 28,
      "creates": null,
      "raw": "0xf86e08850ba43b740083015f9094f139e449202bd167d3b34a53efe805b9479feadc8906cbff3db5527a0000801ca010705e527f237f16131f9489780b10fa152f2706fd00400535fdac00746338f7a032948eeaf1084b86273704ca2441bb22aa505e3a5429804b09e65590baafa72d",
      "networkId": 0,
      "chainId": 0
    }
  ]
}