{
  "hash": "0x4ebfa1586ca190e9ba4212be9c3fded54a84af10e20b607804b2dc4ae14e6c44",
  "parentHash": "0x0a6ab214f1debaa8798df00ae2fc22532b15f69df4b99d17ac97b4138e8f6425",
  "number": 85537,
  "timestamp": 1439565171,
  "nonce": "0x91fec0dd2a50aced",
  "difficulty": 2757061583759,
  "gasLimit": {
    "_hex": "0x2fefd8"
  },
  "gasUsed": {
    "_hex": "0x5208"
  },
  "miner": "0xe6A7a1d47ff21B6321162AEA7C6CB457D5476Bca",
  "extraData": "0x476574682f76312e302e312d38326566323666362f6c696e75782f676f312e34",
  "transactions": [
    {
      "hash": "0x3380efcf6418b2e9f4176b7acb6d36a10ada8060429a72faf361513c635ec1fc",
      "blockHash": "0x4ebfa1586ca190e9ba4212be9c3fded54a84af10e20b607804b2dc4ae14e6c44",
      "blockNumber": 85537,
      "transactionIndex": 0,
      "confirmations": null,
      "from": "0x6866e5e1FaBB4AbceF3EEb9Ea0d8CD6b52dfC9FF",
      "gasPrice": {
        "_hex": "0xd94b66c86"
      },
      "gasLimit": {
        "_hex": "0x15f90"
      },
      "to": "0x01Ad0ACFf478127D9d702B1A13599D706cB759b1",
      "value": {
        "_hex": "0x8b58cc4cedb28000"
      },
      "nonce": 19,
      "data": "0x",
      "r": "0x0b4c3faf966ebbcc8d89abce73e3287e320ceabfcdf05ace5e1d6fa60d623bd7",
      "s": "0x783384d0892c4f282ce2d641002218fc0baac57497500abe3831775fccb55187",
      "v": 28,
      "creates": null,
      "raw": "0xf86d13850d94b66c8683015f909401ad0acff478127d9d702b1a13599d706cb759b1888b58cc4cedb28000801ca00b4c3faf966ebbcc8d89abce73e3287e320ceabfcdf05ace5e1d6fa60d623bd7a0783384d0892c4f282ce2d641002218fc0baac57497500abe3831775fccb55187",
      "networkId": 0,
      "chainId": 0
    }
  ]
}