{
  "hash": "0x8ed5a7d313cdfd585b3de3c2c54a846b9a1c9b89d28ea9f7def0784086edb4c3",
  "parentHash": "0x544ab2ed34e44e829d8d9764e905aeae699aad1abbf777b43fe3864a937e645d",
  "number": 114099,
  "timestamp": 1440034870,
  "nonce": "0x13af058634c623f4",
  "difficulty": 4446894393866,
  "gasLimit": {
    "_hex": "0x2fefd8"
  },
  "gasUsed": {
    "_hex": "0xa410"
  },
  "miner": "0xe6A7a1d47ff21B6321162AEA7C6CB457D5476Bca",
  "extraData": "0x476574682f76312e302e312d38326566323666362f6c696e75782f676f312e34",
  "transactions": [
    {
      "hash": "0x56a2863dddd31acb7f1f9687383dc51758818b8c8224ba191723f7568bf09257",
      "blockHash": "0x8ed5a7d313cdfd585b3de3c2c54a846b9a1c9b89d28ea9f7def0784086edb4c3",
      "blockNumber": 114099,
      "transactionIndex": 0,
      "confirmations": null,
      "from": "0x32Be343B94f860124dC4fEe278FDCBD38C102D88",
      "gasPrice": {
        "_hex": "0xdb9447033"
      },
      "gasLimit": {
        "_hex": "0x5208"
      },
      "to": "0x289B9bA6dC9c12D3130F1115180397C20cCBF220",
      "value": {
        "_hex": "0x6c6b6fd4994d800000"
      },
      "nonce": 1381,
      "data": "0x",
      "r": "0xba8043132c9f27996e8be8b156ab13edb8b38eae75614041d270c87a284223ba",
      "s": "0x440849700945bc080c7edba9a8fba7326a791bf4c673b14ab247f2d42839b9a8",
      "v": 27,
      "creates": null,
      "raw": "0xf86f820565850db944703382520894289b9ba6dc9c12d3130f1115180397c20ccbf220896c6b6fd4994d800000801ba0ba8043132c9f27996e8be8b156ab13edb8b38eae75614041d270c87a284223baa0440849700945bc080c7edba9a8fba7326a791bf4c673b14ab247f2d42839b9a8",
      "networkId": 0,
      "chainId": 0
    },
    {
      "hash": "0x6ede67a52ee65dee70b5b7234935a4876e2f68cdbc4d55f29cff81d1c3073346",
      "blockHash": "0x8ed5a7d313cdfd585b3de3c2c54a846b9a1c9b89d28ea9f7def0784086edb4c3",
      "blockNumber": 114099,
      "transactionIndex": 1,
      "confirmations": null,
      "from": "0x32Be343B94f860124dC4fEe278FDCBD38C102D88",
      "gasPrice": {
        "_hex": "0xdb9447033"
      },
      "gasLimit": {
        "_hex": "0x5208"
      },
      "to": "0x050A4C817B7DD7334cd378B11c0Be4f9D4684816",
      "value": {
        "_hex": "0xebec21ee1da40000"
      },
      "nonce": 1382,
      "data": "0x",
      "r": "0x2b622f01655f1de412db754268cd1965c0c80d6f640dcaea6244c54b995c286e",
      "s": "0x490fd9072188189d01ec7d72a4939f933c548719420f8f9f3a630cbc18326bf2",
      "v": 27,
      "creates": null,
      "raw": "0xf86e820566850db944703382520894050a4c817b7dd7334cd378b11c0be4f9d468481688ebec21ee1da40000801ba02b622f01655f1de412db754268cd1965c0c80d6f640dcaea6244c54b995c286ea0490fd9072188189d01ec7d72a4939f933c548719420f8f9f3a630cbc18326bf2",
      "networkId": 0,
      "chainId": 0
    }
  ]
}