{
  "hash": "0x21afe725d80a900dfee5de64a06da35bda08624b451710aa80045f157e5d424c",
  "parentHash": "0x5bce2de0cd6e983686016b1c52620d92a15656f1ee8d5c2566322c70b0c7fa4d",
  "number": 106947,
  "timestamp": 1439913326,
  "nonce": "0xd8974cbcdc4bc5f4",
  "difficulty": 4455035863402,
  "gasLimit": {
    "_hex": "0x2fefd8"
  },
  "gasUsed": {
    "_hex": "0x546c"
  },
  "miner": "0xe6A7a1d47ff21B6321162AEA7C6CB457D5476Bca",
  "extraData": "0x476574682f76312e302e312d38326566323666362f6c696e75782f676f312e34",
  "transactions": [
    {
      "hash": "0x3dbf3d362198515aab52dc7e4a94be500df7ebad67a5089dde0c6c864dcd8716",
      "blockHash": "0x21afe725d80a900dfee5de64a06da35bda08624b451710aa80045f157e5d424c",
      "blockNumber": 106947,
      "transactionIndex": 0,
      "confirmations": null,
      "from": "0x1a3520453582c718a21c42375BC50773255253e1",
      "gasPrice": {
        "_hex": "0x110c8f7d8de"
      },
      "gasLimit": {
        "_hex": "0xc350"
      },
      "to": "0x2910543Af39abA0Cd09dBb2D50200b3E800A63D2",
      "value": {
        "_hex": "0xde0b6b3a7640000"
      },
      "nonce": 2,
      "data": "0x454e454b4856544a47",
      "r": "0x42bfd8035c560c1c9312094a30177fb5e70a4f086bb14c6d22b386c64f1084ae",
      "s": "0x7e308cba768b745a79a8be305e250a5b96669d310f0502a86afbc9138c12305f",
      "v": 27,
      "creates": null,
      "raw": "0xf87602860110c8f7d8de82c350942910543af39aba0cd09dbb2d50200b3e800a63d2880de0b6b3a764000089454e454b4856544a471ba042bfd8035c560c1c9312094a30177fb5e70a4f086bb14c6d22b386c64f1084aea07e308cba768b745a79a8be305e250a5b96669d310f0502a86afbc9138c12305f",
      "networkId": 0,
      "chainId": 0
    }
  ]
}