{
  "hash": "0x05c29d088d09df430463b1bb8ba4077392b36253ec56df6befd87e285083a37f",
  "parentHash": "0xdc3dff238218d883bc371ea49d947c83c8e1fd180f0fe4fc5cae5259765ee70d",
  "number": 100169,
  "timestamp": 1439801952,
  "nonce": "0x4d986dd317a7fee8",
  "difficulty": 3836085611889,
  "gasLimit": {
    "_hex": "0x2fefd8"
  },
  "gasUsed": {
    "_hex": "0x5208"
  },
  "miner": "0x2f6BCe4fc330B69C9B4c2694d57C63Ec7B18feC7",
  "extraData": "0x476574682f76312e302e312f77696e646f77732f676f312e342e32",
  "transactions": [
    {
      "hash": "0x1427b3e1c1217a47ec1d7c34fb51691e45fec823c169c8b04cc594320f232e5d",
      "blockHash": "0x05c29d088d09df430463b1bb8ba4077392b36253ec56df6befd87e285083a37f",
      "blockNumber": 100169,
      "transactionIndex": 0,
      "confirmations": null,
      "from": "0x7884D470204862a0d1A21122F41ee77430396Ee5",
      "gasPrice": {
        "_hex": "0xde96f025b"
      },
      "gasLimit": {
        "_hex": "0x15f90"
      },
      "to": "0x3C224111361D244282eB3d906011eDD2598C95A6",
      "value": {
        "_hex": "0x2ea11e32ad50000"
      },
      "nonce": 45,
      "data": "0x",
      "r": "0xf582ddcf8f3b7537fed5afc721d44b8a69488de7ed7b2ebaa11b19bd2844b7f5",
      "s": "0x53539ed93f1bc2e767b56d6174c1503dfe7ef882128d11f20c83e5bac00a2600",
      "v": 28,
      "creates": null,
      "raw": "0xf86d2d850de96f025b83015f90943c224111361d244282eb3d906011edd2598c95a68802ea11e32ad50000801ca0f582ddcf8f3b7537fed5afc721d44b8a69488de7ed7b2ebaa11b19bd2844b7f5a053539ed93f1bc2e767b56d6174c1503dfe7ef882128d11f20c83e5bac00a2600",
      "networkId": 0,
      "chainId": 0
    }
  ]
}