{
  "hash": "0x1f941940b87ff39579dfc37a427ddfc898bd50ec35e41ea2a4c72416a5fdda6f",
  "parentHash": "0x4796b506585b0228c36529e1fb454946f10a425c5508a4d55fb2ba202399d762",
  "number": 61862,
  "timestamp": 1439179348,
  "nonce": "0x1fa8766bff158bc1",
  "difficulty": 1741218871794,
  "gasLimit": {
    "_hex": "0x2fefd8"
  },
  "gasUsed": {
    "_hex": "0x5208"
  },
  "miner": "0x5B3e850E39e6f2C7dD38707b649e2B3536F14C0b",
  "extraData": "0x476574682f76312e302e312f64617277696e2f676f312e342e32",
  "transactions": [
    {
      "hash": "0xa6e93856a159cb11af3f6653fa813cdaf2cca4086e28de468daa45691ee979fc",
      "blockHash": "0x1f941940b87ff39579dfc37a427ddfc898bd50ec35e41ea2a4c72416a5fdda6f",
      "blockNumber": 61862,
      "transactionIndex": 0,
      "confirmations": null,
      "from": "0xf79785E5a846aCea08F94379fCCe79B1054bDB99",
      "gasPrice": {
        "_hex": "0xd241bbd71"
      },
      "gasLimit": {
        "_hex": "0x5208"
      },
      "to": "0x32Be343B94f860124dC4fEe278FDCBD38C102D88",
      "value": {
        "_hex": "0xd0267e8c49a3b000"
      },
      "nonce": 2,
      "data": "0x",
      "r": "0xb8c13bb451796b344c39be332b6151a31695e201350218c26fae6067c6c63604",
      "s": "0x0fbd3371d8b89bdb11c2db56456774a576ebbc86ddfa84bb5470b5d37159b300",
      "v": 27,
      "creates": null,
      "raw": "0xf86c02850d241bbd718252089432be343b94f860124dc4fee278fdcbd38c102d8888d0267e8c49a3b000801ba0b8c13bb451796b344c39be332b6151a31695e201350218c26fae6067c6c63604a00fbd3371d8b89bdb11c2db56456774a576ebbc86ddfa84bb5470b5d37159b300",
      "networkId": 0,
      "chainId": 0
    }
  ]
}