{
  "hash": "0x9033bb8682bc01899d27d362842e5e0a91789b597cf2b62804c7a135da4e4a99",
  "parentHash": "0x2f6fccf17ea7b760e1cc32643a9f355ac588720294402a4e9d8c831c543889f9",
  "number": 109896,
  "timestamp": 1439964435,
  "nonce": "0x0bb9a8c413876570",
  "difficulty": 4403735214388,
  "gasLimit": {
    "_hex": "0x2fefd8"
  },
  "gasUsed": {
    "_hex": "0x5208"
  },
  "miner": "0xf927a40C8B7F6E07c5af7FA2155B4864a4112B13",
  "extraData": "0x",
  "transactions": [
    {
      "hash": "0x37916e716b7b46cd47061ec954840099d38cd65bc011ec95dfb94115e2aa6977",
      "blockHash": "0x9033bb8682bc01899d27d362842e5e0a91789b597cf2b62804c7a135da4e4a99",
      "blockNumber": 109896,
      "transactionIndex": 0,
      "confirmations": null,
      "from": "0xFD7c9117BbEB649d9b37B3D3C9917f7c12f526B3",
      "gasPrice": {
        "_hex": "0xd8f1a541a"
      },
      "gasLimit": {
        "_hex": "0x5208"
      },
      "to": "0x32Be343B94f860124dC4fEe278FDCBD38C102D88",
      "value": {
        "_hex": "0x24ea54c19b7b920000"
      },
      "nonce": 31,
      "data": "0x",
      "r": "0x10d4c920a443a0d5374409283175cf84eccb97e5a5d11038a7cf2ae3a4f02600",
      "s": "0x715cda1e8d7bdba56e76d8468a8a558ec04b817632d1fc923a7d49bb3d058f9b",
      "v": 28,
      "creates": null,
      "raw": "0xf86d1f850d8f1a541a8252089432be343b94f860124dc4fee278fdcbd38c102d888924ea54c19b7b920000801ca010d4c920a443a0d5374409283175cf84eccb97e5a5d11038a7cf2ae3a4f02600a0715cda1e8d7bdba56e76d8468a8a558ec04b817632d1fc923a7d49bb3d058f9b",
      "networkId": 0,
      "chainId": 0
    }
  ]
}