{
  "hash": "0xfdc79b7009a199c9d54ae127d5e15a5748ec49621afad6b99b304bbc5a10e321",
  "parentHash": "0xafbb5638abc914a528a7b022f951b5252cd29e8d3cf7334a0f6131da6eee896b",
  "number": 63670,
  "timestamp": 1439208229,
  "nonce": "0x632089f2895db830",
  "difficulty": 1842292035856,
  "gasLimit": {
    "_hex": "0x2fefd8"
  },
  "gasUsed": {
    "_hex": "0xa410"
  },
  "miner": "0x65d948E7Ff8d2104C2bd01F9b5896b357e01916c",
  "extraData": "0x476574682f76312e302e302f77696e646f77732f676f312e342e32",
  "transactions": [
    {
      "hash": "0x71dbf99d7b7862c926f9943c1b39b3cc4391e6a3a64b9efed1a53bd5cb0f0f48",
      "blockHash": "0xfdc79b7009a199c9d54ae127d5e15a5748ec49621afad6b99b304bbc5a10e321",
      "blockNumber": 63670,
      "transactionIndex": 0,
      "confirmations": null,
      "from": "0x8B454d830feF179e66206840F8F3D1d83bC32b17",
      "gasPrice": {
        "_hex": "0xd7b9f6624"
      },
      "gasLimit": {
        "_hex": "0x15f90"
      },
      "to": "0x1543667B9bad3e41865C3233E1764d8dda8E1F3D",
      "value": {
        "_hex": "0x8f1d5c1cae3740000"
      },
      "nonce": 8,
      "data": "0x",
      "r": "0xcbd6f1ac04dd65998e9fc325fb53680dbbaaa4f6449d5425b10c8e19d032b1db",
      "s": "0x3563f0d9ab991ed02ee1ba40d67799464ec429d41302e257c1db05f6228a1afd",
      "v": 27,
      "creates": null,
      "raw": "0xf86e08850d7b9f662483015f90941543667b9bad3e41865c3233e1764d8dda8e1f3d8908f1d5c1cae3740000801ba0cbd6f1ac04dd65998e9fc325fb53680dbbaaa4f6449d5425b10c8e19d032b1dba03563f0d9ab991ed02ee1ba40d67799464ec429d41302e257c1db05f6228a1afd",
      "networkId": 0,
      "chainId": 0
    },
    {
      "hash": "0xf446f937a6e9a59af264beda90b0145dc746dc2fb40561a91bf81c8aea924ed8",
      "blockHash": "0xfdc79b7009a199c9d54ae127d5e15a5748ec49621afad6b99b304bbc5a10e321",
      "blockNumber": 63670,
      "transactionIndex": 1,
      "confirmations": null,
      "from": "0x32Be343B94f860124dC4fEe278FDCBD38C102D88",
      "gasPrice": {
        "_hex": "0xd3718ee2a"
      },
      "gasLimit": {
        "_hex": "0x5208"
      },
      "to": "0x2910543Af39abA0Cd09dBb2D50200b3E800A63D2",
      "value": {
        "_hex": "0x16345785d8a0000"
      },
      "nonce": 169,
      "data": "0x",
      "r": "0x6d09a7fea64bb1b3538a29a625f44dc2b04eaebff883172bc49f29f9462bd4b7",
      "s": "0x5df19ecdc9c191c28da64c7b7ac47d382e102c2167b4926a9e0f719041fa1685",
      "v": 27,
      "creates": null,
      "raw": "0xf86d81a9850d3718ee2a825208942910543af39aba0cd09dbb2d50200b3e800a63d288016345785d8a0000801ba06d09a7fea64bb1b3538a29a625f44dc2b04eaebff883172bc49f29f9462bd4b7a05df19ecdc9c191c28da64c7b7ac47d382e102c2167b4926a9e0f719041fa1685",
      "networkId": 0,
      "chainId": 0
    }
  ]
}