{
  "hash": "0x8ef4a38102c0c04154517126e3705efa13ccadaf799bb5eb925b4216a83ca295",
  "parentHash": "0xe5dc1f1935800ee8e24c5c4bc85d0a90c035d9aab0af5a1a7395321f05b8a732",
  "number": 78976,
  "timestamp": 1439462539,
  "nonce": "0x4cc96fce8ee66e26",
  "difficulty": 2295304594158,
  "gasLimit": {
    "_hex": "0x2fefd8"
  },
  "gasUsed": {
    "_hex": "0xfa68"
  },
  "miner": "0x01d9DA08cc6Fb97c0DE1B6F4C28910A0859Ed1A1",
  "extraData": "0x476574682f76312e302e312f6c696e75782f676f312e342e32",
  "transactions": [
    {
      "hash": "0x1e7d601c2845e560a609c85ca0faa15b24d0a32c86b6dc7b43fd002caec1b21f",
      "blockHash": "0x8ef4a38102c0c04154517126e3705efa13ccadaf799bb5eb925b4216a83ca295",
      "blockNumber": 78976,
      "transactionIndex": 0,
      "confirmations": null,
      "from": "0x32Be343B94f860124dC4fEe278FDCBD38C102D88",
      "gasPrice": {
        "_hex": "0xd70cfc5a8"
      },
      "gasLimit": {
        "_hex": "0x5208"
      },
      "to": "0xf747F959535B01d4BfDAB64A40DB48D0D6c68edb",
      "value": {
        "_hex": "0xdb614c3ee160000"
      },
      "nonce": 405,
      "data": "0x",
      "r": "0x9a695cc5e0c2e6a2d25e562d3187251ddec52cbe79a637301e6119c87b93b7c5",
      "s": "0x261c2621c6dbe6cd6e45d7c0a6f300c1d2536270e1d610fb1a805acee179058b",
      "v": 28,
      "creates": null,
      "raw": "0xf86e820195850d70cfc5a882520894f747f959535b01d4bfdab64a40db48d0d6c68edb880db614c3ee160000801ca09a695cc5e0c2e6a2d25e562d3187251ddec52cbe79a637301e6119c87b93b7c5a0261c2621c6dbe6cd6e45d7c0a6f300c1d2536270e1d610fb1a805acee179058b",
      "networkId": 0,
      "chainId": 0
    },
    {
      "hash": "0x7ffdb8d9fcb3f20e8c4041a3c5671f4ad39f853067758f39143d756f0181acaa",
      "blockHash": "0x8ef4a38102c0c04154517126e3705efa13ccadaf799bb5eb925b4216a83ca295",
      "blockNumber": 78976,
      "transactionIndex": 1,
      "confirmations": null,
      "from": "0x32Be343B94f860124dC4fEe278FDCBD38C102D88",
      "gasPrice": {
        "_hex": "0xd70cfc5a8"
      },
      "gasLimit": {
        "_hex": "0x5208"
      },
      "to": "0xe275C9b8990069b909572AD61eE5172586Ca535c",
      "value": {
        "_hex": "0x1e5ee44bf70da90000"
      },
      "nonce": 406,
      "data": "0x",
      "r": "0x2bb0f88c294eb354c84d90e9292d3d6b9cfeb8c43a390abd327b9c82c57e9ae7",
      "s": "0x1cf7a0a721215ca903bf2cf45813ae3d236ff2799db64cfd23505a6f0c348d95",
      "v": 27,
      "creates": null,
      "raw": "0xf86f820196850d70cfc5a882520894e275c9b8990069b909572ad61ee5172586ca535c891e5ee44bf70da90000801ba02bb0f88c294eb354c84d90e9292d3d6b9cfeb8c43a390abd327b9c82c57e9ae7a01cf7a0a721215ca903bf2cf45813ae3d236ff2799db64cfd23505a6f0c348d95",
      "networkId": 0,
      "chainId": 0
    },
    {
      "hash": "0x183d864c6a8d4c8afefe46188c6bf0033b3f703c58c075fab527e7a6ed9faa3e",
      "blockHash": "0x8ef4a38102c0c04154517126e3705efa13ccadaf799bb5eb925b4216a83ca295",
      "blockNumber": 78976,
      "transactionIndex": 2,
      "confirmations": null,
      "from": "0x7cFa3d23636173A3beFaabc8ca86846A07C4B3DD",
      "gasPrice": {
        "_hex": "0xd5c0ea78a"
      },
      "gasLimit": {
        "_hex": "0xc3500"
      },
      "to": "0x4d149EB99BDEEFC1f858f8fd22289C6beAE99f2c",
      "value": {
        "_hex": "0x0"
      },
      "nonce": 2,
      "data": "0x6ffcc7190000000000000000000000000000000000000000000000001b5df38d4912000000000000000000000000000000000000000000000000000000000000002f6249",
      "r": "0x610f729976a7b17dd238b8c4bf899ba5a432e9f398453696a2a59e09bba131c6",
      "s": "0x4a4e9002b2c4269e781c6b6572b82cf80aac88a271b8e8ed78b4e43d304f54e5",
      "v": 27,
      "creates": null,
      "raw": "0xf8aa02850d5c0ea78a830c3500944d149eb99bdeefc1f858f8fd22289c6beae99f2c80b8446ffcc7190000000000000000000000000000000000000000000000001b5df38d4912000000000000000000000000000000000000000000000000000000000000002f62491ba0610f729976a7b17dd238b8c4bf899ba5a432e9f398453696a2a59e09bba131c6a04a4e9002b2c4269e781c6b6572b82cf80aac88a271b8e8ed78b4e43d304f54e5",
      "networkId": 0,
      "chainId": 0
    }
  ]
}