{
  "hash": "0xb52d28085b748710e3d14558b54abc9f922f32caaa6f6618ffdc82f399dfa215",
  "parentHash": "0x41f191dd82b76a4929bcb760b78f7d9f7f8505837c9fb9223a94b921aac39ad4",
  "number": 88363,
  "timestamp": 1439607005,
  "nonce": "0x1e87ad68ee2686f6",
  "difficulty": 3200293927288,
  "gasLimit": {
    "_hex": "0x2fefd8"
  },
  "gasUsed": {
    "_hex": "0x5998"
  },
  "miner": "0x6DE55b563cE6E319cCB403032Da3BE5Ad4ec4FcF",
  "extraData": "0x",
  "transactions": [
    {
      "hash": "0xaef59f828cd9c23e705d435d5f29bd1a644ced58db4436302524b6d11e505269",
      "blockHash": "0xb52d28085b748710e3d14558b54abc9f922f32caaa6f6618ffdc82f399dfa215",
      "blockNumber": 88363,
      "transactionIndex": 0,
      "confirmations": null,
      "from": "0xf2Ae859397af92154241eAd0aC7c4ce3bea76E8F",
      "gasPrice": {
        "_hex": "0xcc9d3e248"
      },
      "gasLimit": {
        "_hex": "0x15f90"
      },
      "to": "0xf2Ae859397af92154241eAd0aC7c4ce3bea76E8F",
      "value": {
        "_hex": "0x0"
      },
      "nonce": 17,
      "data": "0x90b98a11000000000000000000000000c2b34a73703b5274e7b7ec06f35895ba696bac3f00000000000000000000000000000000000000000000000000000000000003e8",
      "r": "0xd942b896d64086104359985d78c099683d07c7b90a1b74070eaaaa6fbdd5895f",
      "s": "0x1e91f2583cfbeaa859572eabb46440f0d8957ec95ae9c169f69c5609cbd4dc53",
      "v": 27,
      "creates": null,
      "raw": "0xf8aa11850cc9d3e24883015f9094f2ae859397af92154241ead0ac7c4ce3bea76e8f80b84490b98a11000000000000000000000000c2b34a73703b5274e7b7ec06f35895ba696bac3f00000000000000000000000000000000000000000000000000000000000003e81ba0d942b896d64086104359985d78c099683d07c7b90a1b74070eaaaa6fbdd5895fa01e91f2583cfbeaa859572eabb46440f0d8957ec95ae9c169f69c5609cbd4dc53",
      "networkId": 0,
      "chainId": 0
    }
  ]
}