{
  "hash": "0x4aff865d590c16337e496df6f5235f6825cb91331eafca72190ac9783a7bf76c",
  "parentHash": "0x918a209858c43e0fbdf035b2ce950ff02bec7921b6aadf2753001c29b8088baa",
  "number": 79321,
  "timestamp": 1439467621,
  "nonce": "0x14f0a3e4d12b7601",
  "difficulty": 2343910113902,
  "gasLimit": {
    "_hex": "0x2fefd8"
  },
  "gasUsed": {
    "_hex": "0x5208"
  },
  "miner": "0xf8E0CA3Ed80bd541b94BEdCf259e8CF2141A9523",
  "extraData": "0x476574682f76312e302e312f77696e646f77732f676f312e342e32",
  "transactions": [
    {
      "hash": "0xb93c8bc3807d20a146afde23291457f84f451653aed6475826086ba93728ff18",
      "blockHash": "0x4aff865d590c16337e496df6f5235f6825cb91331eafca72190ac9783a7bf76c",
      "blockNumber": 79321,
      "transactionIndex": 0,
      "confirmations": null,
      "from": "0x120A270bbC009644e35F0bB6ab13f95b8199c4ad",
      "gasPrice": {
        "_hex": "0xd0cd9c0f5"
      },
      "gasLimit": {
        "_hex": "0x3d090"
      },
      "to": "0x07DD04f7355E91a3556482a927Dfa3122a2AD580",
      "value": {
        "_hex": "0x6e966a1c31743800"
      },
      "nonce": 334,
      "data": "0x",
      "r": "0x8e2e24b538a97c3ad36bf330820f26b4c66a1b18460baec7821e30db97dda525",
      "s": "0x654f855429afabd20d761c056ff30498bd254d5304e88542c06938ef4c2dccdf",
      "v": 27,
      "creates": null,
      "raw": "0xf86f82014e850d0cd9c0f58303d0909407dd04f7355e91a3556482a927dfa3122a2ad580886e966a1c31743800801ba08e2e24b538a97c3ad36bf330820f26b4c66a1b18460baec7821e30db97dda525a0654f855429afabd20d761c056ff30498bd254d5304e88542c06938ef4c2dccdf",
      "networkId": 0,
      "chainId": 0
    }
  ]
}