{
  "hash": "0xb2918ad5fecb35fd851b9c7a1689ed80309a5d95e9fb90d04a620d16d50e6fdf",
  "parentHash": "0xbf4e9257f157eb386c35ec452d0f607340d352b82442e69dc2dd2247298116b7",
  "number": 121792,
  "timestamp": 1440182549,
  "nonce": "0x92e645f7eb3b214a",
  "difficulty": 4506176646369,
  "gasLimit": {
    "_hex": "0x2fefd8"
  },
  "gasUsed": {
    "_hex": "0x5208"
  },
  "miner": "0xaB638742EBe3A78F2a85028350e1AADB86C0a6ed",
  "extraData": "0xd983010002844765746887676f312e342e328777696e646f7773",
  "transactions": [
    {
      "hash": "0xe0f9ebbcdeb7e95971b1651a25b6b04a786d02228accf480c7f0e58ee4a9e483",
      "blockHash": "0xb2918ad5fecb35fd851b9c7a1689ed80309a5d95e9fb90d04a620d16d50e6fdf",
      "blockNumber": 121792,
      "transactionIndex": 0,
      "confirmations": null,
      "from": "0xBdF25376dA0767EfBF7eE3dCAe463ECe5572bFF3",
      "gasPrice": {
        "_hex": "0xd4ef6b248"
      },
      "gasLimit": {
        "_hex": "0x15f90"
      },
      "to": "0x9b0a028EAfDeCdE3AFc0fD00B7937098388b7C8a",
      "value": {
        "_hex": "0xaaa3175cfd0b9cf48"
      },
      "nonce": 5,
      "data": "0x",
      "r": "0x8f51d51331aafc014e1fd04f260a46ab3c23f5691ef8ccff760d3197950c5421",
      "s": "0x543b7217c2b2c69253f5c99eb3bc6bedf53ddb1cae3ead57a91b63d6b2a3e9a8",
      "v": 27,
      "creates": null,
      "raw": "0xf86e05850d4ef6b24883015f90949b0a028eafdecde3afc0fd00b7937098388b7c8a890aaa3175cfd0b9cf48801ba08f51d51331aafc014e1fd04f260a46ab3c23f5691ef8ccff760d3197950c5421a0543b7217c2b2c69253f5c99eb3bc6bedf53ddb1cae3ead57a91b63d6b2a3e9a8",
      "networkId": 0,
      "chainId": 0
    }
  ]
}