{
  "hash": "0xefe8630d33e3b98ef0b9b11057afd404b720ae129c8c14407fa79b4074ce3f3f",
  "parentHash": "0x13d78147ab0ec73b5a21dac38013ffd8487a292e42a47e47b3f279b834fbb809",
  "number": 47263,
  "timestamp": 1438937034,
  "nonce": "0x5290f7c9a87ca4dc",
  "difficulty": 1463795504494,
  "gasLimit": {
    "_hex": "0xa9f2"
  },
  "gasUsed": {
    "_hex": "0x5208"
  },
  "miner": "0x82efFBAaaf28614E55b2BA440FB198E0e5789B0f",
  "extraData": "0x476574682f44616e6b486173682f76312e302e312f77696e646f77732f676f31",
  "transactions": [
    {
      "hash": "0x6a97ee927ffb677acb2398e7f0b8b373eb34108974731a29739e3ffb72f80f66",
      "blockHash": "0xefe8630d33e3b98ef0b9b11057afd404b720ae129c8c14407fa79b4074ce3f3f",
      "blockNumber": 47263,
      "transactionIndex": 0,
      "confirmations": null,
      "from": "0xe6A7a1d47ff21B6321162AEA7C6CB457D5476Bca",
      "gasPrice": {
        "_hex": "0xe6ebc280a"
      },
      "gasLimit": {
        "_hex": "0x5208"
      },
      "to": "0xDf6DdC40f2297Bfac49bE5503b2bc6AC094E96be",
      "value": {
        "_hex": "0x8d9c8d846b7b5e60"
      },
      "nonce": 92,
      "data": "0x",
      "r": "0xd3c80b82526575c861a0a48317395a5aab3519dd1eed5d1f7e3fad19e552abfe",
      "s": "0x4d2e7b5377619470045b24b8fbc06481766ceb7a7f359157e65602bbf27158dd",
      "v": 28,
      "creates": null,
      "raw": "0xf86c5c850e6ebc280a82520894df6ddc40f2297bfac49be5503b2bc6ac094e96be888d9c8d846b7b5e60801ca0d3c80b82526575c861a0a48317395a5aab3519dd1eed5d1f7e3fad19e552abfea04d2e7b5377619470045b24b8fbc06481766ceb7a7f359157e65602bbf27158dd",
      "networkId": 0,
      "chainId": 0
    }
  ]
}