{
  "hash": "0x0e4f198e52f5631e8459312655f49f465266544615f45a9dab0ede4586141049",
  "parentHash": "0x9bf0a9780158f99e1a63d0e6654dddb6aabb47bfc93bd0357d634c930d1e5f54",
  "number": 73954,
  "timestamp": 1439378111,
  "nonce": "0xa55dcf9d3aebda9d",
  "difficulty": 2217339318305,
  "gasLimit": {
    "_hex": "0x2fefd8"
  },
  "gasUsed": {
    "_hex": "0x54b0"
  },
  "miner": "0x923707da8Dd7Ff41a0bDD87b62c9E5DfA9c420a5",
  "extraData": "0x",
  "transactions": [
    {
      "hash": "0x82b29c11a834d146b8b740fec54bdd24552610564535b6148b6ac55cf7279242",
      "blockHash": "0x0e4f198e52f5631e8459312655f49f465266544615f45a9dab0ede4586141049",
      "blockNumber": 73954,
      "transactionIndex": 0,
      "confirmations": null,
      "from": "0x6E866D032D405abDD65cf651411d803796C22311",
      "gasPrice": {
        "_hex": "0x107284dc96f"
      },
      "gasLimit": {
        "_hex": "0x55f0"
      },
      "to": "0x40B9b889A21Ff1534d018D71Dc406122EBcf3F5A",
      "value": {
        "_hex": "0xad78ebc5ac6200000"
      },
      "nonce": 2,
      "data": "0x4e524d59523131393335",
      "r": "0x9e473b3f4eb2ad4d3474653a1d82a29f96601e9f31cda2b8921063571dcfcaaf",
      "s": "0x10800cff2a489a59b04bb1c00481dbd6dfa8c91e5a534b31093b02376fe078df",
      "v": 27,
      "creates": null,
      "raw": "0xf87802860107284dc96f8255f09440b9b889a21ff1534d018d71dc406122ebcf3f5a890ad78ebc5ac62000008a4e524d595231313933351ba09e473b3f4eb2ad4d3474653a1d82a29f96601e9f31cda2b8921063571dcfcaafa010800cff2a489a59b04bb1c00481dbd6dfa8c91e5a534b31093b02376fe078df",
      "networkId": 0,
      "chainId": 0
    }
  ]
}