{
  "hash": "0x00fefea70541e495e7076d3c6009b563ef5eccb01546de62b57d6655d5cb22a4",
  "parentHash": "0x54551e4cffa09ff2a74f119fe36c727a4149f218d0f7f9fb3b6750cbe9c4bc01",
  "number": 93791,
  "timestamp": 1439697852,
  "nonce": "0xbb51b7dd288b8cff",
  "difficulty": 3427844139284,
  "gasLimit": {
    "_hex": "0x2fefd8"
  },
  "gasUsed": {
    "_hex": "0x5208"
  },
  "miner": "0x306e6267d94f23a9b37Cb110f20852208Fbbf1aA",
  "extraData": "0x",
  "transactions": [
    {
      "hash": "0x9a0e5d775af98f5e8ca0fe660e7319bde89d261e84aa7c66daf52373fc995a23",
      "blockHash": "0x00fefea70541e495e7076d3c6009b563ef5eccb01546de62b57d6655d5cb22a4",
      "blockNumber": 93791,
      "transactionIndex": 0,
      "confirmations": null,
      "from": "0x6d921977dEFE5f4e0682CA512De1D07b1f4802E1",
      "gasPrice": {
        "_hex": "0xe1b9c2fbd"
      },
      "gasLimit": {
        "_hex": "0x5208"
      },
      "to": "0x32Be343B94f860124dC4fEe278FDCBD38C102D88",
      "value": {
        "_hex": "0x8ac2a8a77b721000"
      },
      "nonce": 19,
      "data": "0x",
      "r": "0x31231cb21f872e221a0d6ac6580f8bc139b5aab748e0a08caec6a317760a8bdf",
      "s": "0x0cd40a96a81aad7e13d1dfffec48ab986f480060114f1d4a55acdfc443bb14bc",
      "v": 27,
      "creates": null,
      "raw": "0xf86c13850e1b9c2fbd8252089432be343b94f860124dc4fee278fdcbd38c102d88888ac2a8a77b721000801ba031231cb21f872e221a0d6ac6580f8bc139b5aab748e0a08caec6a317760a8bdfa00cd40a96a81aad7e13d1dfffec48ab986f480060114f1d4a55acdfc443bb14bc",
      "networkId": 0,
      "chainId": 0
    }
  ]
}