{
  "hash": "0x08cb936b3fdbf5d88b2ae695115668921ca7d86d25e6254e34a88d710ceae94e",
  "parentHash": "0xff2cc7531f1849c583fc13e1b128a9b7ad3a37dec7f2172f08bdec0912ef9c73",
  "number": 64993,
  "timestamp": 1439229642,
  "nonce": "0xeba9c28309b3cb65",
  "difficulty": 1910707993889,
  "gasLimit": {
    "_hex": "0x2fefd8"
  },
  "gasUsed": {
    "_hex": "0x14820"
  },
  "miner": "0x0193d941b50d91BE6567c7eE1C0Fe7AF498b4137",
  "extraData": "0x4a5ace9e4e",
  "transactions": [
    {
      "hash": "0xb6b090cf7b1c757e83742fa05afab1d7ce7defc2bf11fb08ebd7c10be9ddf108",
      "blockHash": "0x08cb936b3fdbf5d88b2ae695115668921ca7d86d25e6254e34a88d710ceae94e",
      "blockNumber": 64993,
      "transactionIndex": 0,
      "confirmations": null,
      "from": "0xa21E0cF3793cf75D63930696158E4474aF8383bA",
      "gasPrice": {
        "_hex": "0xd7d40ace3"
      },
      "gasLimit": {
        "_hex": "0x15f90"
      },
      "to": "0x556ca325C21e450b2aFf86D9c8eF0Fa371971c97",
      "value": {
        "_hex": "0x3bd913e6c1df40000"
      },
      "nonce": 9,
      "data": "0x",
      "r": "0x7010ed0837cccf020d0126b93322a2a080d653ccf9cae61d9f2a2a9a776a44f3",
      "s": "0x346d707f55ca0c2f6fddba9125ef90c2dd1a8d00019dfcc21b2fec90432132dc",
      "v": 27,
      "creates": null,
      "raw": "0xf86e09850d7d40ace383015f9094556ca325c21e450b2aff86d9c8ef0fa371971c978903bd913e6c1df40000801ba07010ed0837cccf020d0126b93322a2a080d653ccf9cae61d9f2a2a9a776a44f3a0346d707f55ca0c2f6fddba9125ef90c2dd1a8d00019dfcc21b2fec90432132dc",
      "networkId": 0,
      "chainId": 0
    },
    {
      "hash": "0x8b8f4c30874cc2a0f58a2fed99cf796d5c41edb29581ce8154ea8ac0e0832538",
      "blockHash": "0x08cb936b3fdbf5d88b2ae695115668921ca7d86d25e6254e34a88d710ceae94e",
      "blockNumber": 64993,
      "transactionIndex": 1,
      "confirmations": null,
      "from": "0x2910543Af39abA0Cd09dBb2D50200b3E800A63D2",
      "gasPrice": {
        "_hex": "0xd57c82307"
      },
      "gasLimit": {
        "_hex": "0x5208"
      },
      "to": "0x29aeA5f51879982Fdb53Fb4F0720823Ed77E49Dc",
      "value": {
        "_hex": "0x12f9280625a2d78000"
      },
      "nonce": 165,
      "data": "0x",
      "r": "0x4d8e1f7e296327e3ffb19f263619fb12efe9d51a6d3198e31720863fc8ad6074",
      "s": "0x426eba92a41c779b03b26704ce56a76764fb9e3b61b4219b9e9dd17c1c68b00b",
      "v": 27,
      "creates": null,
      "raw": "0xf86e81a5850d57c823078252089429aea5f51879982fdb53fb4f0720823ed77e49dc8912f9280625a2d78000801ba04d8e1f7e296327e3ffb19f263619fb12efe9d51a6d3198e31720863fc8ad6074a0426eba92a41c779b03b26704ce56a76764fb9e3b61b4219b9e9dd17c1c68b00b",
      "networkId": 0,
      "chainId": 0
    },
    {
      "hash": "0x1e87aab42dbab6464756df386e658b070d9f72b22d3983df21536db15bb573d8",
      "blockHash": "0x08cb936b3fdbf5d88b2ae695115668921ca7d86d25e6254e34a88d710ceae94e",
      "blockNumber": 64993,
      "transactionIndex": 2,
      "confirmations": null,
      "from": "0xb86dA052B31F0d4e34Fb29d900109675eBBC05b9",
      "gasPrice": {
        "_hex": "0xba43b7400"
      },
      "gasLimit": {
        "_hex": "0x5208"
      },
      "to": "0x09b45E04f0788b7dFBe2C5c60206C36Fd17Aebe1",
      "value": {
        "_hex": "0x21cd1d4f5270000"
      },
      "nonce": 1,
      "data": "0x",
      "r": "0xcfbf0eb57aebee5be5d47739f4f4ee3bd8261e0439e62e548a1a2de7ce88fd19",
      "s": "0x719880456b4bb270cf2985eb42b77b3a976ad7c901241db1d80ba0d9bdbb22a3",
      "v": 28,
      "creates": null,
      "raw": "0xf86c01850ba43b74008252089409b45e04f0788b7dfbe2c5c60206c36fd17aebe188021cd1d4f5270000801ca0cfbf0eb57aebee5be5d47739f4f4ee3bd8261e0439e62e548a1a2de7ce88fd19a0719880456b4bb270cf2985eb42b77b3a976ad7c901241db1d80ba0d9bdbb22a3",
      "networkId": 0,
      "chainId": 0
    },
    {
      "hash": "0x3edc77ca88d6f2d4703a92dd8c094205cbf0b887c31bf394488e2a0abc6ff5be",
      "blockHash": "0x08cb936b3fdbf5d88b2ae695115668921ca7d86d25e6254e34a88d710ceae94e",
      "blockNumber": 64993,
      "transactionIndex": 3,
      "confirmations": null,
      "from": "0x097792D1ded393098D05f199457Be3E8A5B77E6E",
      "gasPrice": {
        "_hex": "0xba43b7400"
      },
      "gasLimit": {
        "_hex": "0x5208"
      },
      "to": "0x0541D801c77aab786CdcaD21C6362a55b5DC36b7",
      "value": {
        "_hex": "0x2795e885b68c000"
      },
      "nonce": 1,
      "data": "0x",
      "r": "0x94420719d556248602beec8bd9006ff042acd36c44ebf7e3b0ce0c476d1194be",
      "s": "0x13530c557ccc6a7155b9d8ddd298de40d0be05eea3c0cdc11fdf1ae0eeff1514",
      "v": 28,
      "creates": null,
      "raw": "0xf86c01850ba43b7400825208940541d801c77aab786cdcad21c6362a55b5dc36b78802795e885b68c000801ca094420719d556248602beec8bd9006ff042acd36c44ebf7e3b0ce0c476d1194bea013530c557ccc6a7155b9d8ddd298de40d0be05eea3c0cdc11fdf1ae0eeff1514",
      "networkId": 0,
      "chainId": 0
    }
  ]
}