{
  "hash": "0x982138e9bd9ba118630c5f60e151f0e02c23c9b8be391bc9c404adf9c73c3b99",
  "parentHash": "0xb178c107e7959d242643a26ea449b2a792701193f2d995254569ed106a7fcaba",
  "number": 84904,
  "timestamp": 1439556043,
  "nonce": "0xde5f33809946ff89",
  "difficulty": 2678969839788,
  "gasLimit": {
    "_hex": "0x2fefd8"
  },
  "gasUsed": {
    "_hex": "0x5208"
  },
  "miner": "0x790b8a3cE86E707ED0eD32bF89B3269692a23CC1",
  "extraData": "0xd783010001844765746887676f312e342e32856c696e7578",
  "transactions": [
    {
      "hash": "0x902545e183cd02b6a89772f3cd5093905bf320cbf3c530000b6aba5993fc083f",
      "blockHash": "0x982138e9bd9ba118630c5f60e151f0e02c23c9b8be391bc9c404adf9c73c3b99",
      "blockNumber": 84904,
      "transactionIndex": 0,
      "confirmations": null,
      "from": "0x120A270bbC009644e35F0bB6ab13f95b8199c4ad",
      "gasPrice": {
        "_hex": "0xdc37b5f6a"
      },
      "gasLimit": {
        "_hex": "0x3d090"
      },
      "to": "0xE652BB86f049541e438AF3b8bCafdA935C686691",
      "value": {
        "_hex": "0x1c2f0b511e8a000"
      },
      "nonce": 439,
      "data": "0x",
      "r": "0xb27e19e543dd423ed66dfca5578263bbc9fc058aca4f3c06216d4df09ec45581",
      "s": "0x440eab3f5b026f400c26f0e663c104de6a545c2ba20f3ab19994651ad6d7c9bb",
      "v": 28,
      "creates": null,
      "raw": "0xf86f8201b7850dc37b5f6a8303d09094e652bb86f049541e438af3b8bcafda935c6866918801c2f0b511e8a000801ca0b27e19e543dd423ed66dfca5578263bbc9fc058aca4f3c06216d4df09ec45581a0440eab3f5b026f400c26f0e663c104de6a545c2ba20f3ab19994651ad6d7c9bb",
      "networkId": 0,
      "chainId": 0
    }
  ]
}