{
  "hash": "0xb2d59e3916390a486154a2a518cbb2a98a40922d1547340bdbbfede3eba89c8b",
  "parentHash": "0xdeffc1712cd1a2ad42848e40f546e1bffb7575c03e75d558457d9c75035844d2",
  "number": 109411,
  "timestamp": 1439956086,
  "nonce": "0xd19143771c5e2c31",
  "difficulty": 4471158868056,
  "gasLimit": {
    "_hex": "0x2fefd8"
  },
  "gasUsed": {
    "_hex": "0xa674"
  },
  "miner": "0xe6A7a1d47ff21B6321162AEA7C6CB457D5476Bca",
  "extraData": "0x476574682f76312e302e312d38326566323666362f6c696e75782f676f312e34",
  "transactions": [
    {
      "hash": "0x542ee7159460f10fc1730eb0cbb46506d777a064e038e0e47b7fcfaab290f623",
      "blockHash": "0xb2d59e3916390a486154a2a518cbb2a98a40922d1547340bdbbfede3eba89c8b",
      "blockNumber": 109411,
      "transactionIndex": 0,
      "confirmations": null,
      "from": "0x03Cc9D2d21F86B84aC8ceaf971dBA78a90e62570",
      "gasPrice": {
        "_hex": "0x110c8f7d8de"
      },
      "gasLimit": {
        "_hex": "0xc350"
      },
      "to": "0x2910543Af39abA0Cd09dBb2D50200b3E800A63D2",
      "value": {
        "_hex": "0x572252cdf29c5e0000"
      },
      "nonce": 2,
      "data": "0x454e544e4457313352",
      "r": "0x24b1030353c9001a24adff17bd0cde38a732c3d178e0e62deb898484c78c019c",
      "s": "0x91ce68fea46fe051498e554ed83affc254a715e1ee60e34dd5f17ff0bdbfedcf",
      "v": 28,
      "creates": null,
      "raw": "0xf87702860110c8f7d8de82c350942910543af39aba0cd09dbb2d50200b3e800a63d289572252cdf29c5e000089454e544e44573133521ca024b1030353c9001a24adff17bd0cde38a732c3d178e0e62deb898484c78c019ca091ce68fea46fe051498e554ed83affc254a715e1ee60e34dd5f17ff0bdbfedcf",
      "networkId": 0,
      "chainId": 0
    },
    {
      "hash": "0x2f12f315add5d6a7cc5f7ab00cb4967b071d54268ab4a8c89fc3d6ddeac43880",
      "blockHash": "0xb2d59e3916390a486154a2a518cbb2a98a40922d1547340bdbbfede3eba89c8b",
      "blockNumber": 109411,
      "transactionIndex": 1,
      "confirmations": null,
      "from": "0x2910543Af39abA0Cd09dBb2D50200b3E800A63D2",
      "gasPrice": {
        "_hex": "0xd39eb500b"
      },
      "gasLimit": {
        "_hex": "0x5208"
      },
      "to": "0x4319859681be12b36f4420F4A26FD67429306cD1",
      "value": {
        "_hex": "0xee60cd083d45f8a000"
      },
      "nonce": 1074,
      "data": "0x",
      "r": "0x766dc593596931cddc496676735ad5ec253b454a9a23be41d8f35dd66ced8b47",
      "s": "0x7807807ab9f9d5c259cc953e108ee9d6e5e9d106b508312bd96eb0fa2e0c18d8",
      "v": 28,
      "creates": null,
      "raw": "0xf86f820432850d39eb500b825208944319859681be12b36f4420f4a26fd67429306cd189ee60cd083d45f8a000801ca0766dc593596931cddc496676735ad5ec253b454a9a23be41d8f35dd66ced8b47a07807807ab9f9d5c259cc953e108ee9d6e5e9d106b508312bd96eb0fa2e0c18d8",
      "networkId": 0,
      "chainId": 0
    }
  ]
}