{
  "hash": "0xa82211af4d3672d5935c6d0288d2472822347f03a08f664aa22455b649ec428a",
  "parentHash": "0x9bf31e660ae7e89718baea0f48f0d27ef0655d7104a791e2d837c1ab3f8477fc",
  "number": 78760,
  "timestamp": 1439458916,
  "nonce": "0x2c530d8dd29f243d",
  "difficulty": 2302098256324,
  "gasLimit": {
    "_hex": "0x2fefd8"
  },
  "gasUsed": {
    "_hex": "0x5208"
  },
  "miner": "0x88D74a59454F6cF3B51ef6b9136AFb6b9D405A88",
  "extraData": "0x476574682f76312e302e312d37666266393930632f6c696e75782f676f312e34",
  "transactions": [
    {
      "hash": "0xe5811dde7fdb56ff60d6736ef8821df72c0a3a068dcd5a7c25f7c6f2481562aa",
      "blockHash": "0xa82211af4d3672d5935c6d0288d2472822347f03a08f664aa22455b649ec428a",
      "blockNumber": 78760,
      "transactionIndex": 0,
      "confirmations": null,
      "from": "0xe22B20c77894463Baf774CC256D5bDDbbF7DDd09",
      "gasPrice": {
        "_hex": "0xd8364fc25"
      },
      "gasLimit": {
        "_hex": "0x55f0"
      },
      "to": "0x3312E14473d0B1CDd335DEDA6C0f6B4d9596c0D2",
      "value": {
        "_hex": "0xde0b6b3a7640000"
      },
      "nonce": 3,
      "data": "0x",
      "r": "0x54799672a990de2698b45a1d4adeee8525e7b75b21481316837ed6a0c900d90f",
      "s": "0x7c7ff7f346b1f4feffcc2b081fe65d844495cf483a3d2e0af0309c4a1dfe1488",
      "v": 27,
      "creates": null,
      "raw": "0xf86c03850d8364fc258255f0943312e14473d0b1cdd335deda6c0f6b4d9596c0d2880de0b6b3a7640000801ba054799672a990de2698b45a1d4adeee8525e7b75b21481316837ed6a0c900d90fa07c7ff7f346b1f4feffcc2b081fe65d844495cf483a3d2e0af0309c4a1dfe1488",
      "networkId": 0,
      "chainId": 0
    }
  ]
}