{
  "hash": "0x319008fb35835d6660bf13cf6d99063b9da79cb48dd1f9b1329a0ea33bc37769",
  "parentHash": "0xe2c3e6d54d93fe7033ffffcfcf203e9eec3ce3843063cfba726ec67297f6f545",
  "number": 113044,
  "timestamp": 1440017070,
  "nonce": "0xde1c68c9b2567023",
  "difficulty": 4471405655511,
  "gasLimit": {
    "_hex": "0x2fefd8"
  },
  "gasUsed": {
    "_hex": "0x5208"
  },
  "miner": "0x580992B51e3925e23280EfB93d3047C82f17E038",
  "extraData": "0x476574682f76312e302e312f6c696e75782f676f312e342e32",
  "transactions": [
    {
      "hash": "0x59c158a70fa2e319b993cb2f345943d4e582453266f3a90375df5acca3c60a2c",
      "blockHash": "0x319008fb35835d6660bf13cf6d99063b9da79cb48dd1f9b1329a0ea33bc37769",
      "blockNumber": 113044,
      "transactionIndex": 0,
      "confirmations": null,
      "from": "0x32Be343B94f860124dC4fEe278FDCBD38C102D88",
      "gasPrice": {
        "_hex": "0xcc91e206a"
      },
      "gasLimit": {
        "_hex": "0x5208"
      },
      "to": "0x289B9bA6dC9c12D3130F1115180397C20cCBF220",
      "value": {
        "_hex": "0x6c6b6fd4994d800000"
      },
      "nonce": 1351,
      "data": "0x",
      "r": "0xdd6052e51dce222562fd72aba6086d77aff840bbb2fdc246b44711b261c40ae8",
      "s": "0x5933a7da3766b0642856d0e6a7d05a1449cb2b2b608c68a22d8ccd4defc8fc61",
      "v": 28,
      "creates": null,
      "raw": "0xf86f820547850cc91e206a82520894289b9ba6dc9c12d3130f1115180397c20ccbf220896c6b6fd4994d800000801ca0dd6052e51dce222562fd72aba6086d77aff840bbb2fdc246b44711b261c40ae8a05933a7da3766b0642856d0e6a7d05a1449cb2b2b608c68a22d8ccd4defc8fc61",
      "networkId": 0,
      "chainId": 0
    }
  ]
}