{
  "hash": "0x2a90e3896401ea83bd67f6ce9638d93efd84c4361dd07b37822b518b122ca546",
  "parentHash": "0x81bbe3c61834d42f176a23eae4496dc79c2489b59d4a0fc6ebd3b55104c6083f",
  "number": 119481,
  "timestamp": 1440143732,
  "nonce": "0xfcf01cf5287d2ec4",
  "difficulty": 4392267585976,
  "gasLimit": {
    "_hex": "0x2fefd8"
  },
  "gasUsed": {
    "_hex": "0xa410"
  },
  "miner": "0x52bc44d5378309EE2abF1539BF71dE1b7d7bE3b5",
  "extraData": "0xd783010002844765746887676f312e342e32856c696e7578",
  "transactions": [
    {
      "hash": "0xf592b684909a00ea820b2f53d715f6b76cbc19505632e56067c54a77c58bfb96",
      "blockHash": "0x2a90e3896401ea83bd67f6ce9638d93efd84c4361dd07b37822b518b122ca546",
      "blockNumber": 119481,
      "transactionIndex": 0,
      "confirmations": null,
      "from": "0x5bBc8885Cd987500BEba7842e7dD88c4b1dFBEDc",
      "gasPrice": {
        "_hex": "0xba43b7400"
      },
      "gasLimit": {
        "_hex": "0x5208"
      },
      "to": "0x32Be343B94f860124dC4fEe278FDCBD38C102D88",
      "value": {
        "_hex": "0x168021fb84afcc00"
      },
      "nonce": 3,
      "data": "0x",
      "r": "0x24dd0eb3e778addad3e1b687744d4d1ecf228065ee033c04acb48f0cfce37be8",
      "s": "0x44536481aa0601403d508bdce85316c9fea29bb35e79878995632161c696c57d",
      "v": 28,
      "creates": null,
      "raw": "0xf86c03850ba43b74008252089432be343b94f860124dc4fee278fdcbd38c102d8888168021fb84afcc00801ca024dd0eb3e778addad3e1b687744d4d1ecf228065ee033c04acb48f0cfce37be8a044536481aa0601403d508bdce85316c9fea29bb35e79878995632161c696c57d",
      "networkId": 0,
      "chainId": 0
    },
    {
      "hash": "0xc267504e77f8908546726a641de6adfc60d22f572f42102db6c2046722f4d2ab",
      "blockHash": "0x2a90e3896401ea83bd67f6ce9638d93efd84c4361dd07b37822b518b122ca546",
      "blockNumber": 119481,
      "transactionIndex": 1,
      "confirmations": null,
      "from": "0xAf3A6A5088BFBFc43bFf4eFC46e3142092B49258",
      "gasPrice": {
        "_hex": "0xba43b7400"
      },
      "gasLimit": {
        "_hex": "0x5208"
      },
      "to": "0x32Be343B94f860124dC4fEe278FDCBD38C102D88",
      "value": {
        "_hex": "0x216a1018eb8b8400"
      },
      "nonce": 5,
      "data": "0x",
      "r": "0x765a1ddc1008b82a5fdfa9e16b2df3634d7393470a855e7a2d47778971990bb2",
      "s": "0x6941ce12c16d7c12d62d3cc35d2ffc32053a0da847db41ae616415f95659fb6f",
      "v": 27,
      "creates": null,
      "raw": "0xf86c05850ba43b74008252089432be343b94f860124dc4fee278fdcbd38c102d8888216a1018eb8b8400801ba0765a1ddc1008b82a5fdfa9e16b2df3634d7393470a855e7a2d47778971990bb2a06941ce12c16d7c12d62d3cc35d2ffc32053a0da847db41ae616415f95659fb6f",
      "networkId": 0,
      "chainId": 0
    }
  ]
}