{
  "hash": "0x1783dfe36de12e645a7ec2cdec018e8f9d33232831ffb115cf95323addadcb9b",
  "parentHash": "0x09a50b3e32a5eab3929cdd4a5c83bea7a62b5f11391d75a983cfd46a92ed1710",
  "number": 75204,
  "timestamp": 1439399424,
  "nonce": "0x9c782b7c91985bef",
  "difficulty": 2195463825960,
  "gasLimit": {
    "_hex": "0x2fefd8"
  },
  "gasUsed": {
    "_hex": "0xa410"
  },
  "miner": "0xf927a40C8B7F6E07c5af7FA2155B4864a4112B13",
  "extraData": "0x",
  "transactions": [
    {
      "hash": "0xdc1051ce1ebd52aa7d75a09eb8f62e2582adeb4a9d9a094ec7c53f8557eda040",
      "blockHash": "0x1783dfe36de12e645a7ec2cdec018e8f9d33232831ffb115cf95323addadcb9b",
      "blockNumber": 75204,
      "transactionIndex": 0,
      "confirmations": null,
      "from": "0xF78645Ea06d743C6B52a11EB3f3d486bbb4Cf01F",
      "gasPrice": {
        "_hex": "0xd9677b4c6"
      },
      "gasLimit": {
        "_hex": "0x15f90"
      },
      "to": "0x6A8CC233E14F874983bB2F37D1DE706f6910Ef0b",
      "value": {
        "_hex": "0x5188315f776b80000"
      },
      "nonce": 2,
      "data": "0x",
      "r": "0x49653ae5b7c531d5991bfbb332a0cae759b464b7df265ba09f676b920d3e17af",
      "s": "0x1ca9666926d8aac4733d8e48b62d9aaab52aec06e0ec01984179f879ea78df24",
      "v": 27,
      "creates": null,
      "raw": "0xf86e02850d9677b4c683015f90946a8cc233e14f874983bb2f37d1de706f6910ef0b8905188315f776b80000801ba049653ae5b7c531d5991bfbb332a0cae759b464b7df265ba09f676b920d3e17afa01ca9666926d8aac4733d8e48b62d9aaab52aec06e0ec01984179f879ea78df24",
      "networkId": 0,
      "chainId": 0
    },
    {
      "hash": "0x389d51bc5e3108310d2cb497e7b1f5fd3bd2a34ac21457e91809b88b4a2ebeea",
      "blockHash": "0x1783dfe36de12e645a7ec2cdec018e8f9d33232831ffb115cf95323addadcb9b",
      "blockNumber": 75204,
      "transactionIndex": 1,
      "confirmations": null,
      "from": "0x3fe698DDd00ce16bFb0F2B875D29Cf6B91eB677d",
      "gasPrice": {
        "_hex": "0xcea4060ea"
      },
      "gasLimit": {
        "_hex": "0x15f90"
      },
      "to": "0x36a3706566A8f9b27e7d604f4702900Acd31f32E",
      "value": {
        "_hex": "0xde0b6b3a7640000"
      },
      "nonce": 0,
      "data": "0x",
      "r": "0x66b62aa876bf057cab2fb4fe4451d476b7ecc5ef92fb8768c7a9e900f7b060e4",
      "s": "0x5c1d9f79b21c097d2acec3902a73f4fab51304d4b287552a32ba665db429c770",
      "v": 28,
      "creates": null,
      "raw": "0xf86d80850cea4060ea83015f909436a3706566a8f9b27e7d604f4702900acd31f32e880de0b6b3a7640000801ca066b62aa876bf057cab2fb4fe4451d476b7ecc5ef92fb8768c7a9e900f7b060e4a05c1d9f79b21c097d2acec3902a73f4fab51304d4b287552a32ba665db429c770",
      "networkId": 0,
      "chainId": 0
    }
  ]
}