{
  "hash": "0x3c93edd408fc2e7da2d97628a2b9946854b84c354dc151b253e31f94de5d8654",
  "parentHash": "0x6b18940776c6f7439fa002189da0772950c75a651384fb836b39a57e99e2fe6e",
  "number": 99433,
  "timestamp": 1439790055,
  "nonce": "0x6ee7e770785aa83d",
  "difficulty": 3788025470588,
  "gasLimit": {
    "_hex": "0x2fefd8"
  },
  "gasUsed": {
    "_hex": "0xa410"
  },
  "miner": "0xe6A7a1d47ff21B6321162AEA7C6CB457D5476Bca",
  "extraData": "0x476574682f76312e302e312d38326566323666362f6c696e75782f676f312e34",
  "transactions": [
    {
      "hash": "0x82978d210a25898b94a0e62f08ee6445d6027792a0a1859d9e860c507b289efb",
      "blockHash": "0x3c93edd408fc2e7da2d97628a2b9946854b84c354dc151b253e31f94de5d8654",
      "blockNumber": 99433,
      "transactionIndex": 0,
      "confirmations": null,
      "from": "0xa70a9a7040d542C632D8e0bE7c5513A8a5Bbc752",
      "gasPrice": {
        "_hex": "0xd4acb296e"
      },
      "gasLimit": {
        "_hex": "0x5208"
      },
      "to": "0x32Be343B94f860124dC4fEe278FDCBD38C102D88",
      "value": {
        "_hex": "0x34066ac1b32fc000"
      },
      "nonce": 194,
      "data": "0x",
      "r": "0x9b182de004879d296bf4ac933f94c3c03793f9e5b4cd6668e89d33feff5c6d37",
      "s": "0x11508bc3e89626bd8c2edcbe9da2f07217684cc3f4d2b6abc08e34532f210171",
      "v": 28,
      "creates": null,
      "raw": "0xf86d81c2850d4acb296e8252089432be343b94f860124dc4fee278fdcbd38c102d888834066ac1b32fc000801ca09b182de004879d296bf4ac933f94c3c03793f9e5b4cd6668e89d33feff5c6d37a011508bc3e89626bd8c2edcbe9da2f07217684cc3f4d2b6abc08e34532f210171",
      "networkId": 0,
      "chainId": 0
    },
    {
      "hash": "0x7e26965b8470e3e186e08796c13168574423ef0e0518e166dc39213beff95fa6",
      "blockHash": "0x3c93edd408fc2e7da2d97628a2b9946854b84c354dc151b253e31f94de5d8654",
      "blockNumber": 99433,
      "transactionIndex": 1,
      "confirmations": null,
      "from": "0x1a88c57A263f87c39AB07f02045f7bBe559d93bc",
      "gasPrice": {
        "_hex": "0xcb58f2ffb"
      },
      "gasLimit": {
        "_hex": "0x5208"
      },
      "to": "0xFBb1b73C4f0BDa4f67dcA266ce6Ef42f520fBB98",
      "value": {
        "_hex": "0x1d67ae3701fc1a28"
      },
      "nonce": 2,
      "data": "0x",
      "r": "0x7a1c1826ed297c1bfa46125ee203e518a69f122e63f6aabb78ba18e084fdeee6",
      "s": "0x714b639ab77626779db99c8ae59d708fdf79fbe9c2fcf76f581b1b8d6277613b",
      "v": 27,
      "creates": null,
      "raw": "0xf86c02850cb58f2ffb82520894fbb1b73c4f0bda4f67dca266ce6ef42f520fbb98881d67ae3701fc1a28801ba07a1c1826ed297c1bfa46125ee203e518a69f122e63f6aabb78ba18e084fdeee6a0714b639ab77626779db99c8ae59d708fdf79fbe9c2fcf76f581b1b8d6277613b",
      "networkId": 0,
      "chainId": 0
    }
  ]
}