{
  "hash": "0x3a90a4537471366246b697b90581fce8293e1598498e8d01b28246ae3481dc84",
  "parentHash": "0x401004327f0cbc1d1239b9292e7079392fdcea8001ae126bf385767445007498",
  "number": 106528,
  "timestamp": 1439905844,
  "nonce": "0x2ec7ad69c8381ff2",
  "difficulty": 4496783683453,
  "gasLimit": {
    "_hex": "0x2fefd8"
  },
  "gasUsed": {
    "_hex": "0x2f83d"
  },
  "miner": "0x5F8F73E26CdF436f19Cb24C82F90A15AFe55b592",
  "extraData": "0x476574682f76312e302e312f77696e646f77732f676f312e342e32",
  "transactions": [
    {
      "hash": "0xb73c6a654882137d8631b8e33ffd6b64cdb2bed4a7b9fa391fee3d525d8afbd3",
      "blockHash": "0x3a90a4537471366246b697b90581fce8293e1598498e8d01b28246ae3481dc84",
      "blockNumber": 106528,
      "transactionIndex": 0,
      "confirmations": null,
      "from": "0x0D82Cd113DC35DdDA93f38166cD5CDe8b88e36A1",
      "gasPrice": {
        "_hex": "0xd92b4d296"
      },
      "gasLimit": {
        "_hex": "0x30d40"
      },
      "to": "0x4d6387f3B967dA39B11DE111158D49754C31985d",
      "value": {
        "_hex": "0x16345785d8a0000"
      },
      "nonce": 23,
      "data": "0x02dc2e1d00000000000000000000000000000000000000000000000000000000000000200000000000000000000000000000000000000000000000000000000000000022314858416b567468516268586d3861365a755a41374c4759685a6a66734243347954000000000000000000000000000000000000000000000000000000000000",
      "r": "0xb8264acae896327834d223b5076e7a93e70e5fcff7554c386964e07de9527cdc",
      "s": "0x73b5fef0ff1f38bb8b210b224eb9145ca114d6ba42c747404c290b1763d2e6ab",
      "v": 27,
      "creates": null,
      "raw": "0xf8f217850d92b4d29683030d40944d6387f3b967da39b11de111158d49754c31985d88016345785d8a0000b88402dc2e1d00000000000000000000000000000000000000000000000000000000000000200000000000000000000000000000000000000000000000000000000000000022314858416b567468516268586d3861365a755a41374c4759685a6a667342433479540000000000000000000000000000000000000000000000000000000000001ba0b8264acae896327834d223b5076e7a93e70e5fcff7554c386964e07de9527cdca073b5fef0ff1f38bb8b210b224eb9145ca114d6ba42c747404c290b1763d2e6ab",
      "networkId": 0,
      "chainId": 0
    },
    {
      "hash": "0xe7d70c17f85c17f5d39b8908e529c6616c49f679e7d5b4dc240bda8f3e2724a8",
      "blockHash": "0x3a90a4537471366246b697b90581fce8293e1598498e8d01b28246ae3481dc84",
      "blockNumber": 106528,
      "transactionIndex": 1,
      "confirmations": null,
      "from": "0xC47Aaa860008be6f65B58c6C6E02a84e666EfE31",
      "gasPrice": {
        "_hex": "0xd8c60b0fe"
      },
      "gasLimit": {
        "_hex": "0x15f90"
      },
      "to": "0x6204c5A7CD96C7C9D5ae62283ed7039A0f55B3c5",
      "value": {
        "_hex": "0x295f087361f0f3a6"
      },
      "nonce": 84,
      "data": "0x",
      "r": "0x91f33cbaeb360f26b37f8e9df3c4763eb2ef6c2c3ffd5f4fcc1fbe843110265e",
      "s": "0x571ce72bb3f91839439f010b25045d2483d6a3f4bd09b34d4c6f4cfac3f00db3",
      "v": 27,
      "creates": null,
      "raw": "0xf86d54850d8c60b0fe83015f90946204c5a7cd96c7c9d5ae62283ed7039a0f55b3c588295f087361f0f3a6801ba091f33cbaeb360f26b37f8e9df3c4763eb2ef6c2c3ffd5f4fcc1fbe843110265ea0571ce72bb3f91839439f010b25045d2483d6a3f4bd09b34d4c6f4cfac3f00db3",
      "networkId": 0,
      "chainId": 0
    },
    {
      "hash": "0xcce51e86226aa5a94e24ceacb8554c7164198e7a0f2c0f048ed87e8ccb1b0446",
      "blockHash": "0x3a90a4537471366246b697b90581fce8293e1598498e8d01b28246ae3481dc84",
      "blockNumber": 106528,
      "transactionIndex": 2,
      "confirmations": null,
      "from": "0x2D1d94521E896625F8Ec3f65171Fa82262Da6BCF",
      "gasPrice": {
        "_hex": "0xcbd334f22"
      },
      "gasLimit": {
        "_hex": "0x5208"
      },
      "to": "0x32Be343B94f860124dC4fEe278FDCBD38C102D88",
      "value": {
        "_hex": "0x8eecde6d8db91000"
      },
      "nonce": 10,
      "data": "0x",
      "r": "0x24679d3539c701581e7205b7c4057ed01389541842be67f77458339a784c34ad",
      "s": "0x16a7695d7f3aca045608f0a54e36e06dd982451fd4196534949abaae505115bd",
      "v": 27,
      "creates": null,
      "raw": "0xf86c0a850cbd334f228252089432be343b94f860124dc4fee278fdcbd38c102d88888eecde6d8db91000801ba024679d3539c701581e7205b7c4057ed01389541842be67f77458339a784c34ada016a7695d7f3aca045608f0a54e36e06dd982451fd4196534949abaae505115bd",
      "networkId": 0,
      "chainId": 0
    },
    {
      "hash": "0xc4d426e9601da3e396ba2af78e0e14d5def2e95f78eddbc1d85772fd33fba221",
      "blockHash": "0x3a90a4537471366246b697b90581fce8293e1598498e8d01b28246ae3481dc84",
      "blockNumber": 106528,
      "transactionIndex": 3,
      "confirmations": null,
      "from": "0x1151790FE5F7C3113dfb07Dc3914B1916EcC8a7A",
      "gasPrice": {
        "_hex": "0xcbd334f22"
      },
      "gasLimit": {
        "_hex": "0x5208"
      },
      "to": "0x32Be343B94f860124dC4fEe278FDCBD38C102D88",
      "value": {
        "_hex": "0x308e6a74b5111400"
      },
      "nonce": 4,
      "data": "0x",
      "r": "0xc9c1eab2bc6da40bee5219b24b70553a325cf3e9bab3140c0fffbbf03feba8ea",
      "s": "0x03cb06137ff169f248ed0a9e3deb3ffb638201fe01a6eef451e6814ff464ea3f",
      "v": 27,
      "creates": null,
      "raw": "0xf86c04850cbd334f228252089432be343b94f860124dc4fee278fdcbd38c102d8888308e6a74b5111400801ba0c9c1eab2bc6da40bee5219b24b70553a325cf3e9bab3140c0fffbbf03feba8eaa003cb06137ff169f248ed0a9e3deb3ffb638201fe01a6eef451e6814ff464ea3f",
      "networkId": 0,
      "chainId": 0
    }
  ]
}