{
  "hash": "0x55f1e59f4bfe8ab7171f8bdb1fbb4f020850c8a1b6742928a1e2439d7cb4dad9",
  "parentHash": "0xabd07455e0dc99146ac2c9a6cea64cd2ca2c82f7efa2af33d6b3a163284b18fd",
  "number": 49480,
  "timestamp": 1438974094,
  "nonce": "0x974eae69180efa50",
  "difficulty": 1482829416859,
  "gasLimit": {
    "_hex": "0x32a02"
  },
  "gasUsed": {
    "_hex": "0xa8d8"
  },
  "miner": "0xf32866D5cE9a9b5673e076be48AbCd6ED48ADe78",
  "extraData": "0x476574682f76312e302e312d38326566323666362f6c696e75782f676f312e34",
  "transactions": [
    {
      "hash": "0x569e4e0c821c38403f7e673d381afc352379e840e27ceafbfa5db0db89305c06",
      "blockHash": "0x55f1e59f4bfe8ab7171f8bdb1fbb4f020850c8a1b6742928a1e2439d7cb4dad9",
      "blockNumber": 49480,
      "transactionIndex": 0,
      "confirmations": null,
      "from": "0x24aA1151bb765FA3a89ca50Eb6E1b1c706417fD4",
      "gasPrice": {
        "_hex": "0x110c8f7d8de"
      },
      "gasLimit": {
        "_hex": "0xc350"
      },
      "to": "0x2910543Af39abA0Cd09dBb2D50200b3E800A63D2",
      "value": {
        "_hex": "0xa80bc12206a1660000"
      },
      "nonce": 0,
      "data": "0x454e46324134585838",
      "r": "0x1720b9dc688a620755865fad4ed265b95eca50bf2e86a4fcfd59ffa1a2ed1697",
      "s": "0x1ff9c90383a1a48f8d990678f5068354589195b20eb96dc30826c3311bedda05",
      "v": 27,
      "creates": null,
      "raw": "0xf87780860110c8f7d8de82c350942910543af39aba0cd09dbb2d50200b3e800a63d289a80bc12206a166000089454e463241345858381ba01720b9dc688a620755865fad4ed265b95eca50bf2e86a4fcfd59ffa1a2ed1697a01ff9c90383a1a48f8d990678f5068354589195b20eb96dc30826c3311bedda05",
      "networkId": 0,
      "chainId": 0
    },
    {
      "hash": "0x459c5b581eb0f35ace14a4296063b79e3e127d032de72afdd657b2d02f688fd3",
      "blockHash": "0x55f1e59f4bfe8ab7171f8bdb1fbb4f020850c8a1b6742928a1e2439d7cb4dad9",
      "blockNumber": 49480,
      "transactionIndex": 1,
      "confirmations": null,
      "from": "0xF897399d0f64B7Fd450E1ED83B0F794e4686090A",
      "gasPrice": {
        "_hex": "0xdcd17fe0e"
      },
      "gasLimit": {
        "_hex": "0x15f90"
      },
      "to": "0x2910543Af39abA0Cd09dBb2D50200b3E800A63D2",
      "value": {
        "_hex": "0x83d6c7aab6360000"
      },
      "nonce": 0,
      "data": "0x454e38575833393930",
      "r": "0x9479eb3d3da8033f49cb085d1e7efc31183ad2231d8b4a29bd17a178bf961dac",
      "s": "0x27f1bfbd7959f5743e03b38507dac0b5253d2656ce8477223966b06e0b77907d",
      "v": 28,
      "creates": null,
      "raw": "0xf87680850dcd17fe0e83015f90942910543af39aba0cd09dbb2d50200b3e800a63d28883d6c7aab636000089454e385758333939301ca09479eb3d3da8033f49cb085d1e7efc31183ad2231d8b4a29bd17a178bf961daca027f1bfbd7959f5743e03b38507dac0b5253d2656ce8477223966b06e0b77907d",
      "networkId": 0,
      "chainId": 0
    }
  ]
}