{
  "hash": "0x7fff8836d043b2fe930685e003a8e55720e3acb1b0458dc7164451a87aa49b48",
  "parentHash": "0x2e7fdc49e3f2594403fe229b5ceb4cc5bebe52c2324af39898ac608120239642",
  "number": 61227,
  "timestamp": 1439169079,
  "nonce": "0x519050c57558e7d3",
  "difficulty": 1723586268340,
  "gasLimit": {
    "_hex": "0x2fefd8"
  },
  "gasUsed": {
    "_hex": "0x5208"
  },
  "miner": "0x0037ce3d4B7f8729C8607D8D0248252Be68202c0",
  "extraData": "0x476574682f76312e302e312f77696e646f77732f676f312e342e32",
  "transactions": [
    {
      "hash": "0xc3261e4ea3ddce85e2ffb9a8619112f05d254c3fc645b9c1e2ea4e4ea00e6004",
      "blockHash": "0x7fff8836d043b2fe930685e003a8e55720e3acb1b0458dc7164451a87aa49b48",
      "blockNumber": 61227,
      "transactionIndex": 0,
      "confirmations": null,
      "from": "0x4c74B6F32c9680aCB5Fe0e72B7Aa95C612540A04",
      "gasPrice": {
        "_hex": "0xdf7e806ea"
      },
      "gasLimit": {
        "_hex": "0x5208"
      },
      "to": "0x32Be343B94f860124dC4fEe278FDCBD38C102D88",
      "value": {
        "_hex": "0x56bc2e4550b3fc000"
      },
      "nonce": 6,
      "data": "0x",
      "r": "0x3963d77166f169ca8b1f3add8bfeeef6ae5f359a6832665ed4e32ab8937839ad",
      "s": "0x587f34e5bb5dde29211f525b8ef2b14a31bfad0c8d6f7eeead053b87636ec634",
      "v": 28,
      "creates": null,
      "raw": "0xf86d06850df7e806ea8252089432be343b94f860124dc4fee278fdcbd38c102d8889056bc2e4550b3fc000801ca03963d77166f169ca8b1f3add8bfeeef6ae5f359a6832665ed4e32ab8937839ada0587f34e5bb5dde29211f525b8ef2b14a31bfad0c8d6f7eeead053b87636ec634",
      "networkId": 0,
      "chainId": 0
    }
  ]
}