{
  "hash": "0xcde398a7bc34f23fbc99d9e4bfa75a2716d8a40d5027acfc85923bd27c09495f",
  "parentHash": "0x2ea2f9fa8183890768dbb3a0b5872fd204a95b0cadd7098cfab7b1723d6fd3f7",
  "number": 85779,
  "timestamp": 1439568723,
  "nonce": "0x39cda9dbc64867ff",
  "difficulty": 2770476794218,
  "gasLimit": {
    "_hex": "0x2fefd8"
  },
  "gasUsed": {
    "_hex": "0x546c"
  },
  "miner": "0xe090Ffdced499691fA9379752a59F8A058c1eE4A",
  "extraData": "0x476574682f76312e302e312f6c696e75782f676f312e342e32",
  "transactions": [
    {
      "hash": "0x5e55a153ebb68e43b99d70f83c2c99b282b9c32e8654b1f6a0c5de3be8c1e074",
      "blockHash": "0xcde398a7bc34f23fbc99d9e4bfa75a2716d8a40d5027acfc85923bd27c09495f",
      "blockNumber": 85779,
      "transactionIndex": 0,
      "confirmations": null,
      "from": "0x47f4696BD462B20dA09FB83eD2039818d77625B3",
      "gasPrice": {
        "_hex": "0x110c8f7d8de"
      },
      "gasLimit": {
        "_hex": "0xc350"
      },
      "to": "0x2910543Af39abA0Cd09dBb2D50200b3E800A63D2",
      "value": {
        "_hex": "0x7ce66c50e2840000"
      },
      "nonce": 0,
      "data": "0x454e4d4d34334d5538",
      "r": "0x48e669d939e3ab71418db02b79bf9c0bda75fb193c59d2cfdf17940739e4c4fe",
      "s": "0x35eba665d48d91457cbcf874466eb33b326cfea1ab789098d0302fe3d0b17789",
      "v": 27,
      "creates": null,
      "raw": "0xf87680860110c8f7d8de82c350942910543af39aba0cd09dbb2d50200b3e800a63d2887ce66c50e284000089454e4d4d34334d55381ba048e669d939e3ab71418db02b79bf9c0bda75fb193c59d2cfdf17940739e4c4fea035eba665d48d91457cbcf874466eb33b326cfea1ab789098d0302fe3d0b17789",
      "networkId": 0,
      "chainId": 0
    }
  ]
}