{
  "hash": "0xc74ef088eafcfeb1e6ea71b85f435647a5d8da6f5a946322a37c84c45a7144f9",
  "parentHash": "0x6a82ff945681a9a6ad7d036de085e41f425c57114b8e0f7d69ea27a19c9593c5",
  "number": 56444,
  "timestamp": 1439087422,
  "nonce": "0x3b09ae09dce97fca",
  "difficulty": 1656074414124,
  "gasLimit": {
    "_hex": "0x2fefd8"
  },
  "gasUsed": {
    "_hex": "0x5208"
  },
  "miner": "0xf8E0CA3Ed80bd541b94BEdCf259e8CF2141A9523",
  "extraData": "0x476574682f76312e302e312f77696e646f77732f676f312e342e32",
  "transactions": [
    {
      "hash": "0xd6ef405bf8102a8518bce966af84033ace9f0fae05535449cb80d2db2adb9d4c",
      "blockHash": "0xc74ef088eafcfeb1e6ea71b85f435647a5d8da6f5a946322a37c84c45a7144f9",
      "blockNumber": 56444,
      "transactionIndex": 0,
      "confirmations": null,
      "from": "0xF2d2AfF1320476cb8C6b607199D23175cc595693",
      "gasPrice": {
        "_hex": "0xd1a48b4ab"
      },
      "gasLimit": {
        "_hex": "0x15f90"
      },
      "to": "0xF5EeDc192aB70b08D8354384aD94efD095849E00",
      "value": {
        "_hex": "0x3afb087b876900000"
      },
      "nonce": 9,
      "data": "0x",
      "r": "0xba0d6fcc1755434e35812f0f5855a17ff4bac7f530c7dca8bc97be7669f85865",
      "s": "0x0826d41b920999cb2075daf872ad362ba59dd7efd6e8f92bb8bc3bc49466dd4a",
      "v": 27,
      "creates": null,
      "raw": "0xf86e09850d1a48b4ab83015f9094f5eedc192ab70b08d8354384ad94efd095849e008903afb087b876900000801ba0ba0d6fcc1755434e35812f0f5855a17ff4bac7f530c7dca8bc97be7669f85865a00826d41b920999cb2075daf872ad362ba59dd7efd6e8f92bb8bc3bc49466dd4a",
      "networkId": 0,
      "chainId": 0
    }
  ]
}