{
  "hash": "0xfe6e422b0f5501cf53fed495a9389260f31e321be29bb5b6f45db40aaac5f395",
  "parentHash": "0x07f682e71a9b8595c8f1cfbaae8e1b116908d1fa8e04998755445d11f1b0179c",
  "number": 57487,
  "timestamp": 1439104294,
  "nonce": "0xe508f5b7b2017327",
  "difficulty": 1736182852920,
  "gasLimit": {
    "_hex": "0x2fefd8"
  },
  "gasUsed": {
    "_hex": "0x546c"
  },
  "miner": "0xf927a40C8B7F6E07c5af7FA2155B4864a4112B13",
  "extraData": "0x476574682f76312e302e312f6c696e75782f676f312e342e32",
  "transactions": [
    {
      "hash": "0x105250ca53d18de1309c772555d01858b3a9d66635287a8afe0f1228876c3c51",
      "blockHash": "0xfe6e422b0f5501cf53fed495a9389260f31e321be29bb5b6f45db40aaac5f395",
      "blockNumber": 57487,
      "transactionIndex": 0,
      "confirmations": null,
      "from": "0xc6045b3C350b4Ce9cA0c6b754fb41A69B97e9900",
      "gasPrice": {
        "_hex": "0x110c8f7d8de"
      },
      "gasLimit": {
        "_hex": "0xc350"
      },
      "to": "0x2910543Af39abA0Cd09dBb2D50200b3E800A63D2",
      "value": {
        "_hex": "0x31fb520308de280000"
      },
      "nonce": 1,
      "data": "0x454e58395a39444b52",
      "r": "0xce8a230a7f485e0353366c1a825ef93f3330afc78cd8910a664fbb40c03f34c7",
      "s": "0xef53566ae50b7325a78c35045ec7994b206f45dba39d3095bb9d33225b9d35f2",
      "v": 27,
      "creates": null,
      "raw": "0xf87701860110c8f7d8de82c350942910543af39aba0cd09dbb2d50200b3e800a63d28931fb520308de28000089454e58395a39444b521ba0ce8a230a7f485e0353366c1a825ef93f3330afc78cd8910a664fbb40c03f34c7a0ef53566ae50b7325a78c35045ec7994b206f45dba39d3095bb9d33225b9d35f2",
      "networkId": 0,
      "chainId": 0
    }
  ]
}