{
  "hash": "0x414ac580da4288c91e8240fae2c1570f1523bec43fedac2a6140b2972e47cb56",
  "parentHash": "0x122d473d9a76ce8acb67603ecabaacea65831be363c8d72287d73d8c2f206c04",
  "number": 106067,
  "timestamp": 1439898044,
  "nonce": "0x382d6c022a7d4196",
  "difficulty": 4477311828756,
  "gasLimit": {
    "_hex": "0x2fefd8"
  },
  "gasUsed": {
    "_hex": "0x5208"
  },
  "miner": "0xe6A7a1d47ff21B6321162AEA7C6CB457D5476Bca",
  "extraData": "0x476574682f76312e302e312d38326566323666362f6c696e75782f676f312e34",
  "transactions": [
    {
      "hash": "0xbad1782b0e3e7442390b5adf900f404f5f35ba6e008cd9982885f6042d3732b6",
      "blockHash": "0x414ac580da4288c91e8240fae2c1570f1523bec43fedac2a6140b2972e47cb56",
      "blockNumber": 106067,
      "transactionIndex": 0,
      "confirmations": null,
      "from": "0xdeE4977F74E6Aef6D627191c9A45D2627e331150",
      "gasPrice": {
        "_hex": "0xd615aa763"
      },
      "gasLimit": {
        "_hex": "0x5208"
      },
      "to": "0x32Be343B94f860124dC4fEe278FDCBD38C102D88",
      "value": {
        "_hex": "0xd0266aebcd67b000"
      },
      "nonce": 19,
      "data": "0x",
      "r": "0xb1e5bf68963980ccba689c5ca805693c7f7a000f80e9446edde92d24adf29323",
      "s": "0x0e87e754f572dab130696e487f2d41932f05ed733120773443b9d4d5d7b628df",
      "v": 27,
      "creates": null,
      "raw": "0xf86c13850d615aa7638252089432be343b94f860124dc4fee278fdcbd38c102d8888d0266aebcd67b000801ba0b1e5bf68963980ccba689c5ca805693c7f7a000f80e9446edde92d24adf29323a00e87e754f572dab130696e487f2d41932f05ed733120773443b9d4d5d7b628df",
      "networkId": 0,
      "chainId": 0
    }
  ]
}