{
  "hash": "0x0a5e12bb91b3cae733f34b9b1bf83958539c3f8350ff10d161482e9fd40b7d0e",
  "parentHash": "0x0070d9041f082358b39b70a63a2829d081d8b855f5ae8a9b8b1019977b8b53bb",
  "number": 71291,
  "timestamp": 1439333810,
  "nonce": "0x5c2098e67b6ab582",
  "difficulty": 2155056260523,
  "gasLimit": {
    "_hex": "0x2fefd8"
  },
  "gasUsed": {
    "_hex": "0xae73"
  },
  "miner": "0x123843545FB525C8E134c9A5F15ADA6865cc3848",
  "extraData": "0x476574682f76312e302e312f77696e646f77732f676f312e342e32",
  "transactions": [
    {
      "hash": "0x1f850a4571096fe248d725b08ac4ea59227a1337cfee0e9c214bd0685fe1b865",
      "blockHash": "0x0a5e12bb91b3cae733f34b9b1bf83958539c3f8350ff10d161482e9fd40b7d0e",
      "blockNumber": 71291,
      "transactionIndex": 0,
      "confirmations": null,
      "from": "0x17580B766f7453525ca4C6A88b01b50570EA088C",
      "gasPrice": {
        "_hex": "0xcc2b53ec4"
      },
      "gasLimit": {
        "_hex": "0x61a80"
      },
      "to": "0x5Fe5B7546D1628f7348B023A0393de1FC825A4fD",
      "value": {
        "_hex": "0x3782dace9d900000"
      },
      "nonce": 146,
      "data": "0xb595b8b50000000000000000000000000000000000000000000000000000000000000000",
      "r": "0xf7cad3d4d998cd7be77accfe7c3b7a51b4012692fdb0d1d626580f3a2a60e0ea",
      "s": "0x5eabe0ffd474b5d47e2be8048149a2b82e9077196797bf05517a75b7ce78b7c2",
      "v": 28,
      "creates": null,
      "raw": "0xf8928192850cc2b53ec483061a80945fe5b7546d1628f7348b023a0393de1fc825a4fd883782dace9d900000a4b595b8b500000000000000000000000000000000000000000000000000000000000000001ca0f7cad3d4d998cd7be77accfe7c3b7a51b4012692fdb0d1d626580f3a2a60e0eaa05eabe0ffd474b5d47e2be8048149a2b82e9077196797bf05517a75b7ce78b7c2",
      "networkId": 0,
      "chainId": 0
    }
  ]
}