{
  "hash": "0x370ed51060d83ba74151cb4012a979d1e8b3cad6683335e2978ab50c1c6479f3",
  "parentHash": "0xf9c3dfb7b6e6a91a67369842d9f0710026306bb12a6fdd9b2eba5179383f0d64",
  "number": 68036,
  "timestamp": 1439281589,
  "nonce": "0xf9cd45b3458e0258",
  "difficulty": 1954355198825,
  "gasLimit": {
    "_hex": "0x2fefd8"
  },
  "gasUsed": {
    "_hex": "0x5208"
  },
  "miner": "0xe6A7a1d47ff21B6321162AEA7C6CB457D5476Bca",
  "extraData": "0x476574682f76312e302e312d38326566323666362f6c696e75782f676f312e34",
  "transactions": [
    {
      "hash": "0x014bece19c96bc5de749fd8f6c0cf3ba1066496163d2169745fbe1db5a45ae6f",
      "blockHash": "0x370ed51060d83ba74151cb4012a979d1e8b3cad6683335e2978ab50c1c6479f3",
      "blockNumber": 68036,
      "transactionIndex": 0,
      "confirmations": null,
      "from": "0xdD81AaddCc8448A5fC0ac28DB93ec6801C21E8Ef",
      "gasPrice": {
        "_hex": "0xd5bbf4566"
      },
      "gasLimit": {
        "_hex": "0x5208"
      },
      "to": "0x32Be343B94f860124dC4fEe278FDCBD38C102D88",
      "value": {
        "_hex": "0x13f2c225609ba1000"
      },
      "nonce": 4,
      "data": "0x",
      "r": "0x354ad581370dfeaca951e124cb4cfe55681cb5e8a462b1b3cad536252304d8af",
      "s": "0x39da8f12cde1efe9a269e7aea3dd7ca4986eebcdd1d8fd8867f9ed6a3879f93f",
      "v": 28,
      "creates": null,
      "raw": "0xf86d04850d5bbf45668252089432be343b94f860124dc4fee278fdcbd38c102d8889013f2c225609ba1000801ca0354ad581370dfeaca951e124cb4cfe55681cb5e8a462b1b3cad536252304d8afa039da8f12cde1efe9a269e7aea3dd7ca4986eebcdd1d8fd8867f9ed6a3879f93f",
      "networkId": 0,
      "chainId": 0
    }
  ]
}