{
  "hash": "0xe262c514f9a2c5b9117d6cede7332918ecc4ab847906cabdfda494f35a94964f",
  "parentHash": "0xe5d14b51dc4f1f03c0d7ac5f19de517c0ae2d3bc6669dfc39cf987e01c9cb7b1",
  "number": 65003,
  "timestamp": 1439229870,
  "nonce": "0xd26938ffe2879f68",
  "difficulty": 1910705716148,
  "gasLimit": {
    "_hex": "0x2fefd8"
  },
  "gasUsed": {
    "_hex": "0x17cd8"
  },
  "miner": "0x88D74a59454F6cF3B51ef6b9136AFb6b9D405A88",
  "extraData": "0x476574682f76312e302e312d37666266393930632f6c696e75782f676f312e34",
  "transactions": [
    {
      "hash": "0x056e12d439117cef5430a1b5a08b55adb368ed6bbf685d81640612b38270e5e4",
      "blockHash": "0xe262c514f9a2c5b9117d6cede7332918ecc4ab847906cabdfda494f35a94964f",
      "blockNumber": 65003,
      "transactionIndex": 0,
      "confirmations": null,
      "from": "0x4a84DD56301cdFdE70436822038bA1548f99D259",
      "gasPrice": {
        "_hex": "0xba43b7400"
      },
      "gasLimit": {
        "_hex": "0x15f90"
      },
      "to": "0x793AE8C1b1a160BFc07BFB0d04F85eab1A71F4f2",
      "value": {
        "_hex": "0x0"
      },
      "nonce": 0,
      "data": "0x3ba15036",
      "r": "0x837f4fe6b0005aa7cc276a82c6e15168d927a37dbc6d0e02165d8918e89bc41a",
      "s": "0x52e41743b01fbf58224e1d51db9021f8ddaf167b67f04cb660ef0b61a2b99e36",
      "v": 27,
      "creates": null,
      "raw": "0xf86980850ba43b740083015f9094793ae8c1b1a160bfc07bfb0d04f85eab1a71f4f280843ba150361ba0837f4fe6b0005aa7cc276a82c6e15168d927a37dbc6d0e02165d8918e89bc41aa052e41743b01fbf58224e1d51db9021f8ddaf167b67f04cb660ef0b61a2b99e36",
      "networkId": 0,
      "chainId": 0
    },
    {
      "hash": "0x3725effabf3d02bbc9b9c38959383ad1bd4cf02a1169c7190d8c879dd1b94efd",
      "blockHash": "0xe262c514f9a2c5b9117d6cede7332918ecc4ab847906cabdfda494f35a94964f",
      "blockNumber": 65003,
      "transactionIndex": 1,
      "confirmations": null,
      "from": "0x4604F2D284bAc789ddCA0A30b6157606B9E70E87",
      "gasPrice": {
        "_hex": "0xba43b7400"
      },
      "gasLimit": {
        "_hex": "0x15f90"
      },
      "to": "0x793AE8C1b1a160BFc07BFB0d04F85eab1A71F4f2",
      "value": {
        "_hex": "0x0"
      },
      "nonce": 0,
      "data": "0x3ba15036",
      "r": "0x2efea3ba367d4e2966af04c478f35db94f61e1957e7fda571530ff3905d08863",
      "s": "0x714cc95b0cf91a2f59dd8693e3d34d0796fdd15721769aeac3bc4da0d2adb036",
      "v": 28,
      "creates": null,
      "raw": "0xf86980850ba43b740083015f9094793ae8c1b1a160bfc07bfb0d04f85eab1a71f4f280843ba150361ca02efea3ba367d4e2966af04c478f35db94f61e1957e7fda571530ff3905d08863a0714cc95b0cf91a2f59dd8693e3d34d0796fdd15721769aeac3bc4da0d2adb036",
      "networkId": 0,
      "chainId": 0
    }
  ]
}