{
  "hash": "0x99d03d8e01e4fb36ae978c60b878925cd3dd8a5896fb9a8e8030115a672f00f3",
  "parentHash": "0x4576c0512f465e71c0fdeceb336f172874ab4243797cb47b30d7a7476a8e1580",
  "number": 76315,
  "timestamp": 1439418370,
  "nonce": "0xaea180544ed9de95",
  "difficulty": 2217797973842,
  "gasLimit": {
    "_hex": "0x2fefd8"
  },
  "gasUsed": {
    "_hex": "0x5208"
  },
  "miner": "0xe6A7a1d47ff21B6321162AEA7C6CB457D5476Bca",
  "extraData": "0x476574682f76312e302e312d38326566323666362f6c696e75782f676f312e34",
  "transactions": [
    {
      "hash": "0x0e3b18c7718855826e0ef4e88c5180f0e27bf781fc670743fbec76003861dab0",
      "blockHash": "0x99d03d8e01e4fb36ae978c60b878925cd3dd8a5896fb9a8e8030115a672f00f3",
      "blockNumber": 76315,
      "transactionIndex": 0,
      "confirmations": null,
      "from": "0x9c138F36D624fbF52f1c898A30980d78859A446A",
      "gasPrice": {
        "_hex": "0xd7826cfac"
      },
      "gasLimit": {
        "_hex": "0x55f0"
      },
      "to": "0xfa61FFF5ba13ff0DD59B579457F557e0ddeD02dA",
      "value": {
        "_hex": "0xd02ab486cedc0000"
      },
      "nonce": 0,
      "data": "0x",
      "r": "0x044925b890d1c77e010f22c14910a0e8b335a08195026e51a1226d2f88e499e4",
      "s": "0x5b8b50d23ec50268a79578a358739c41301e4df2d83d844031f0bed1f9b77974",
      "v": 28,
      "creates": null,
      "raw": "0xf86c80850d7826cfac8255f094fa61fff5ba13ff0dd59b579457f557e0dded02da88d02ab486cedc0000801ca0044925b890d1c77e010f22c14910a0e8b335a08195026e51a1226d2f88e499e4a05b8b50d23ec50268a79578a358739c41301e4df2d83d844031f0bed1f9b77974",
      "networkId": 0,
      "chainId": 0
    }
  ]
}