{
  "hash": "0x8e5ba4010a86fe2fab86b6da08ab6873956cec90f0cf9217f008f1826a86c839",
  "parentHash": "0xe97b30b8f17f4d4c6c9634df8b60b38b1b3acdadd0e057a899cd36339cc8484a",
  "number": 88748,
  "timestamp": 1439612729,
  "nonce": "0x2a97be0a430f9e74",
  "difficulty": 3245783987703,
  "gasLimit": {
    "_hex": "0x2fefd8"
  },
  "gasUsed": {
    "_hex": "0x5208"
  },
  "miner": "0x0eDEd3DA479d0beF8eeC92A76644D3f4E3C177f7",
  "extraData": "0x476574682f76312e302e312f6c696e75782f676f312e342e32",
  "transactions": [
    {
      "hash": "0xbbd3bed991e3c1fd393714d42fbd2c163153cccd20f2addc54c832c58119cba3",
      "blockHash": "0x8e5ba4010a86fe2fab86b6da08ab6873956cec90f0cf9217f008f1826a86c839",
      "blockNumber": 88748,
      "transactionIndex": 0,
      "confirmations": null,
      "from": "0x4b0424c09BaC4Ee3f4376f1D3fA354E8Cb2D3171",
      "gasPrice": {
        "_hex": "0xdc83a90cb"
      },
      "gasLimit": {
        "_hex": "0x15f90"
      },
      "to": "0x34d34F0a638F6991e4E2536F41295DF6E934A646",
      "value": {
        "_hex": "0x4563918244f40000"
      },
      "nonce": 13,
      "data": "0x",
      "r": "0xe1c5b76ad6eb75c9e6fb36408c70cdb70bc69ac09b1720f5d3a615c9924c7e5f",
      "s": "0x0b93925569ea528a08ce8b80ffd110b3e3bdbdbf0aa679b14cc9234c734d514d",
      "v": 27,
      "creates": null,
      "raw": "0xf86d0d850dc83a90cb83015f909434d34f0a638f6991e4e2536f41295df6e934a646884563918244f40000801ba0e1c5b76ad6eb75c9e6fb36408c70cdb70bc69ac09b1720f5d3a615c9924c7e5fa00b93925569ea528a08ce8b80ffd110b3e3bdbdbf0aa679b14cc9234c734d514d",
      "networkId": 0,
      "chainId": 0
    }
  ]
}