{
  "hash": "0xbfe487066eb1dfbab108a77ff30ac6a8017505cc88ebd1858c7aeb553655f72e",
  "parentHash": "0x0e88ed8b5943acc92ae0bc5c6b1703d93b903ad86af8a7c5a772c4eb11add954",
  "number": 90626,
  "timestamp": 1439643008,
  "nonce": "0x616113109dc2f2c5",
  "difficulty": 3338272171861,
  "gasLimit": {
    "_hex": "0x2fefd8"
  },
  "gasUsed": {
    "_hex": "0x5208"
  },
  "miner": "0x790b8a3cE86E707ED0eD32bF89B3269692a23CC1",
  "extraData": "0xd783010001844765746887676f312e342e32856c696e7578",
  "transactions": [
    {
      "hash": "0xbaec7d98c1785f89a02cf0e46a141543b86f404f34b530f75580ec6ece3d8b86",
      "blockHash": "0xbfe487066eb1dfbab108a77ff30ac6a8017505cc88ebd1858c7aeb553655f72e",
      "blockNumber": 90626,
      "transactionIndex": 0,
      "confirmations": null,
      "from": "0xC603Ab5ef41fC61AA8b76bEddb09e3Cfcbb174BD",
      "gasPrice": {
        "_hex": "0xd102260be"
      },
      "gasLimit": {
        "_hex": "0x15f90"
      },
      "to": "0x8F79f76381Aad7B98C19aF55eE75fdfEeb012211",
      "value": {
        "_hex": "0x62e115c008a880000"
      },
      "nonce": 22,
      "data": "0x",
      "r": "0x3171fe520e86d7a14706f603619ae59cb73ac311277837016c115ea5ed615ff1",
      "s": "0x5b95bbd857c23299463915d76f2d2db08b63e1b561be36b3ce80f9bc27b03896",
      "v": 28,
      "creates": null,
      "raw": "0xf86e16850d102260be83015f90948f79f76381aad7b98c19af55ee75fdfeeb01221189062e115c008a880000801ca03171fe520e86d7a14706f603619ae59cb73ac311277837016c115ea5ed615ff1a05b95bbd857c23299463915d76f2d2db08b63e1b561be36b3ce80f9bc27b03896",
      "networkId": 0,
      "chainId": 0
    }
  ]
}