{
  "hash": "0xfa9aa5e159ca21c646c2490a88855b317ef8a5bb6bffdc62e3834f0bf988fe78",
  "parentHash": "0xefc84c912e5fce46e2ec35b71df157484860e1da92f83ddce9c7e0618391d51a",
  "number": 56678,
  "timestamp": 1439090751,
  "nonce": "0x19be5cf557eafe4e",
  "difficulty": 1687042144224,
  "gasLimit": {
    "_hex": "0x2fefd5"
  },
  "gasUsed": {
    "_hex": "0x19cb9"
  },
  "miner": "0x0eDEd3DA479d0beF8eeC92A76644D3f4E3C177f7",
  "extraData": "0x476574682f76312e302e312f6c696e75782f676f312e342e32",
  "transactions": [
    {
      "hash": "0xd0880129ec505200e6def1dd34c081710c1d4fb3d2be6c18e63bbafda9052411",
      "blockHash": "0xfa9aa5e159ca21c646c2490a88855b317ef8a5bb6bffdc62e3834f0bf988fe78",
      "blockNumber": 56678,
      "transactionIndex": 0,
      "confirmations": null,
      "from": "0x0BE2B94AD950a2a62640c35bfCCd6c67daE450f6",
      "gasPrice": {
        "_hex": "0x110c8f7d8de"
      },
      "gasLimit": {
        "_hex": "0xc350"
      },
      "to": "0x2910543Af39abA0Cd09dBb2D50200b3E800A63D2",
      "value": {
        "_hex": "0x6923f82e16ae1e0000"
      },
      "nonce": 0,
      "data": "0x454e30394e48374b38",
      "r": "0x7eb5c383b61ebcf50e63788f4e8209c3f1438b7854fe1a2c5c79f7e9c8ccd378",
      "s": "0xa8e9e077bcfdf4ef52acb9b3958229a1fc700739ad25e35e541a9e2652b45b7d",
      "v": 27,
      "creates": null,
      "raw": "0xf87780860110c8f7d8de82c350942910543af39aba0cd09dbb2d50200b3e800a63d2896923f82e16ae1e000089454e30394e48374b381ba07eb5c383b61ebcf50e63788f4e8209c3f1438b7854fe1a2c5c79f7e9c8ccd378a0a8e9e077bcfdf4ef52acb9b3958229a1fc700739ad25e35e541a9e2652b45b7d",
      "networkId": 0,
      "chainId": 0
    },
    {
      "hash": "0x26d66f6c11884f636843e25eaa99c3317715daa160d539c719de06575f3b8be7",
      "blockHash": "0xfa9aa5e159ca21c646c2490a88855b317ef8a5bb6bffdc62e3834f0bf988fe78",
      "blockNumber": 56678,
      "transactionIndex": 1,
      "confirmations": null,
      "from": "0xFD2605a2bF58fDbB90db1Da55dF61628B47F9e8c",
      "gasPrice": {
        "_hex": "0xd4bf3667c"
      },
      "gasLimit": {
        "_hex": "0x186a0"
      },
      "to": "0x7AF6Af3d4491A161670837d0737baDA43FfbB992",
      "value": {
        "_hex": "0x2c68af0bb140000"
      },
      "nonce": 43,
      "data": "0x67dd74caf395757e0d74803aae4e8adb875451d99622e911b61c64e044e0bd16a16f18cd",
      "r": "0xdd5716a65ee13b88f779529e66b3c4471deab8a882ddda599c6067dd5d023913",
      "s": "0x04713ddce52071c5ebf1ae2702dac552a694d7cc3a5cb38295ea14edfa3d2fa5",
      "v": 27,
      "creates": null,
      "raw": "0xf8912b850d4bf3667c830186a0947af6af3d4491a161670837d0737bada43ffbb9928802c68af0bb140000a467dd74caf395757e0d74803aae4e8adb875451d99622e911b61c64e044e0bd16a16f18cd1ba0dd5716a65ee13b88f779529e66b3c4471deab8a882ddda599c6067dd5d023913a004713ddce52071c5ebf1ae2702dac552a694d7cc3a5cb38295ea14edfa3d2fa5",
      "networkId": 0,
      "chainId": 0
    }
  ]
}