{
  "hash": "0xcade4d45b7c2785617c796b985e4b60afaf82f6a2d9f49c5594afd652bdbfb87",
  "parentHash": "0x0b0044f0312f42571d3db309bcd54be13ac613934b95fc7e744cf050d929dd05",
  "number": 57447,
  "timestamp": 1439103580,
  "nonce": "0x63e26c50326fde05",
  "difficulty": 1741285087768,
  "gasLimit": {
    "_hex": "0x2fefd8"
  },
  "gasUsed": {
    "_hex": "0x5208"
  },
  "miner": "0x19dafe19F11E960E4cCfC6A5AA8890ebD748cA1E",
  "extraData": "0x476574682f76312e302e312d37666266393930632f6c696e75782f676f312e34",
  "transactions": [
    {
      "hash": "0x51cf515676178fe6978532ec78ff5f15f2c5d9b161e1496787119a15aba606a2",
      "blockHash": "0xcade4d45b7c2785617c796b985e4b60afaf82f6a2d9f49c5594afd652bdbfb87",
      "blockNumber": 57447,
      "transactionIndex": 0,
      "confirmations": null,
      "from": "0xd8aE46Ba60513f7811Dcd26882405F6Be01C730F",
      "gasPrice": {
        "_hex": "0xd204c9649"
      },
      "gasLimit": {
        "_hex": "0x15f90"
      },
      "to": "0xAF1EF6DF77a840d59d6093F025A60c3d6BC7d5c8",
      "value": {
        "_hex": "0x2386f26fc10000"
      },
      "nonce": 3,
      "data": "0x",
      "r": "0x3ed89739dddfe1bbe1d272978d69f81003ca6bb6cdf39f3179d0b806337b5276",
      "s": "0x05e91404fb7f6ef3f236d199826c9627c130cf8a543cbbd1ae3c650e3f31ef9e",
      "v": 27,
      "creates": null,
      "raw": "0xf86c03850d204c964983015f9094af1ef6df77a840d59d6093f025a60c3d6bc7d5c8872386f26fc10000801ba03ed89739dddfe1bbe1d272978d69f81003ca6bb6cdf39f3179d0b806337b5276a005e91404fb7f6ef3f236d199826c9627c130cf8a543cbbd1ae3c650e3f31ef9e",
      "networkId": 0,
      "chainId": 0
    }
  ]
}