{
  "hash": "0x7d00af8672987ad97bea96ade91b5fd08345b9b3f7751df2832cd75dbc32954a",
  "parentHash": "0x62dd3aeae12e85b7dd263605239a098b8f19af5c214de7112ff3370d2f931e42",
  "number": 115370,
  "timestamp": 1440056046,
  "nonce": "0xdbb48b3c50869e71",
  "difficulty": 4553882799767,
  "gasLimit": {
    "_hex": "0x2fefd8"
  },
  "gasUsed": {
    "_hex": "0x5208"
  },
  "miner": "0x9D49F602b0fdb924Bd63DDE2Bd0907E4A07c63a7",
  "extraData": "0x476574682f76312e302e312f6c696e75782f676f312e342e32",
  "transactions": [
    {
      "hash": "0x5f7ce21d4fac0b899b05af5f8de1cecf6be395f4017feef213de139125ee44d2",
      "blockHash": "0x7d00af8672987ad97bea96ade91b5fd08345b9b3f7751df2832cd75dbc32954a",
      "blockNumber": 115370,
      "transactionIndex": 0,
      "confirmations": null,
      "from": "0x8b687892C6Cf88925ddD772718782A864e5353Df",
      "gasPrice": {
        "_hex": "0xd2a00e110"
      },
      "gasLimit": {
        "_hex": "0x5208"
      },
      "to": "0x32Be343B94f860124dC4fEe278FDCBD38C102D88",
      "value": {
        "_hex": "0x11ac6c3a7e7c83000"
      },
      "nonce": 8,
      "data": "0x",
      "r": "0xa7a7ff98175b51aa6a62c27b64bbc503209951feeacf5618623788237659d7e7",
      "s": "0x75bc026470dd91588a20a9fac6aa019c59fd697d14933a46601338246327a700",
      "v": 28,
      "creates": null,
      "raw": "0xf86d08850d2a00e1108252089432be343b94f860124dc4fee278fdcbd38c102d8889011ac6c3a7e7c83000801ca0a7a7ff98175b51aa6a62c27b64bbc503209951feeacf5618623788237659d7e7a075bc026470dd91588a20a9fac6aa019c59fd697d14933a46601338246327a700",
      "networkId": 0,
      "chainId": 0
    }
  ]
}