{
  "hash": "0xb856e037f6826c6e57886fc9464a38d900f9d48eb842c07bc3d99aaeea04319b",
  "parentHash": "0xc0c5d072ff6758103b9ef86b7aaea76f0097e0117b2e87e205bbbb4078f0e415",
  "number": 101689,
  "timestamp": 1439826676,
  "nonce": "0x98d9a96eca58b61f",
  "difficulty": 3876813157525,
  "gasLimit": {
    "_hex": "0x2fefd8"
  },
  "gasUsed": {
    "_hex": "0x5208"
  },
  "miner": "0xe6A7a1d47ff21B6321162AEA7C6CB457D5476Bca",
  "extraData": "0x476574682f76312e302e312d38326566323666362f6c696e75782f676f312e34",
  "transactions": [
    {
      "hash": "0xe621aeea95577e8ad3d54574ac6efb2115f5e7a110aba5ffc1dc83a4ee95df53",
      "blockHash": "0xb856e037f6826c6e57886fc9464a38d900f9d48eb842c07bc3d99aaeea04319b",
      "blockNumber": 101689,
      "transactionIndex": 0,
      "confirmations": null,
      "from": "0x65Fe776c996eB7c15f86F236B945353b9a18f335",
      "gasPrice": {
        "_hex": "0xd2ea9779f"
      },
      "gasLimit": {
        "_hex": "0x7530"
      },
      "to": "0x6De181Fc4C140FA31F196e5393516c49EEeBdAd3",
      "value": {
        "_hex": "0x270801d946c940000"
      },
      "nonce": 4,
      "data": "0x",
      "r": "0xe7a9983ebefed64844359570501c6ddd1fed00fbb48183e06a67f84cd055878b",
      "s": "0x4d4efefa9718d3f494903338ab8056b1a6f19f8101d611bc9a7a610f10bea117",
      "v": 27,
      "creates": null,
      "raw": "0xf86d04850d2ea9779f827530946de181fc4c140fa31f196e5393516c49eeebdad3890270801d946c940000801ba0e7a9983ebefed64844359570501c6ddd1fed00fbb48183e06a67f84cd055878ba04d4efefa9718d3f494903338ab8056b1a6f19f8101d611bc9a7a610f10bea117",
      "networkId": 0,
      "chainId": 0
    }
  ]
}