{
  "hash": "0x6d2621f7351442cdf27ae3dc3ffc2a05ac0204cb395b97fedd13e5d9a1d5fb24",
  "parentHash": "0x6f3b72b77cf433fa486e4db26b5de677e5ef437560f45901a934bd15838ccf64",
  "number": 64359,
  "timestamp": 1439219370,
  "nonce": "0xb508def7491a819f",
  "difficulty": 1881227385171,
  "gasLimit": {
    "_hex": "0x2fefd8"
  },
  "gasUsed": {
    "_hex": "0x5208"
  },
  "miner": "0x55bAf64fc9eAccFFd7Cc643BB61142E1C6ac093e",
  "extraData": "0x",
  "transactions": [
    {
      "hash": "0xee7974df4778a298fa615fe5ec729f87c45107489c7f65548383c5ae078bec3f",
      "blockHash": "0x6d2621f7351442cdf27ae3dc3ffc2a05ac0204cb395b97fedd13e5d9a1d5fb24",
      "blockNumber": 64359,
      "transactionIndex": 0,
      "confirmations": null,
      "from": "0x3F98e477a361F777DA14611a7e419A75Fd238b6b",
      "gasPrice": {
        "_hex": "0xda771fa42"
      },
      "gasLimit": {
        "_hex": "0x15f90"
      },
      "to": "0x097738363B1662599ad0777E19461601F5EC8dF9",
      "value": {
        "_hex": "0xad78ebc5ac6200000"
      },
      "nonce": 11,
      "data": "0x",
      "r": "0x53c706cfccf8b76f9a1843cbb15f3baa9299619730d31a5f9eaa01fe0290ce41",
      "s": "0x7cf1f23a0bbea61ddf8bd6fcbfd4c16b7e6d3a5b29d4cb292663f86bfd92cbae",
      "v": 28,
      "creates": null,
      "raw": "0xf86e0b850da771fa4283015f9094097738363b1662599ad0777e19461601f5ec8df9890ad78ebc5ac6200000801ca053c706cfccf8b76f9a1843cbb15f3baa9299619730d31a5f9eaa01fe0290ce41a07cf1f23a0bbea61ddf8bd6fcbfd4c16b7e6d3a5b29d4cb292663f86bfd92cbae",
      "networkId": 0,
      "chainId": 0
    }
  ]
}