{
  "hash": "0x89f9a38a60a35741390f63fe9fb8e4c461fd5ed41d50248feae2fd43d511811e",
  "parentHash": "0xd2d47dbd5bc2c93ef74da81a26fa31d619e3a61a7a4970492e2f69ba5cbbcbe6",
  "number": 80300,
  "timestamp": 1439483429,
  "nonce": "0x5438b363eae779f1",
  "difficulty": 2374738705146,
  "gasLimit": {
    "_hex": "0x2fefd8"
  },
  "gasUsed": {
    "_hex": "0x2d95e"
  },
  "miner": "0x53824166ea5271d3425e3194c848A90CA4e97eB2",
  "extraData": "0x476574682f76312e302e312f6c696e75782f676f312e342e32",
  "transactions": [
    {
      "hash": "0x24948bc4ce6b211ecdda24e85b935b2431ddea46ce568670fc9b99da0662e9bb",
      "blockHash": "0x89f9a38a60a35741390f63fe9fb8e4c461fd5ed41d50248feae2fd43d511811e",
      "blockNumber": 80300,
      "transactionIndex": 0,
      "confirmations": null,
      "from": "0x87C5B5874A18B4306DF8a752a6C8cc3E82daFc19",
      "gasPrice": {
        "_hex": "0x10968b6b10a"
      },
      "gasLimit": {
        "_hex": "0x493e0"
      },
      "to": "0xC4c51de1AbF5D60DBd329eC0F999Fd8f021ae9fC",
      "value": {
        "_hex": "0x0"
      },
      "nonce": 168,
      "data": "0x03750d9400000000000000000000000087c5b5874a18b4306df8a752a6c8cc3e82dafc196b6b6b0000000000000000000000000000000000000000000000000000000000",
      "r": "0x225850c855466037875beac4a403f74a88b8106307a3d49809b9da1a616c5863",
      "s": "0x0c4f69819cace1cb078c46554508752192fa62deed98f70ab866719a9fe12a29",
      "v": 27,
      "creates": null,
      "raw": "0xf8ac81a886010968b6b10a830493e094c4c51de1abf5d60dbd329ec0f999fd8f021ae9fc80b84403750d9400000000000000000000000087c5b5874a18b4306df8a752a6c8cc3e82dafc196b6b6b00000000000000000000000000000000000000000000000000000000001ba0225850c855466037875beac4a403f74a88b8106307a3d49809b9da1a616c5863a00c4f69819cace1cb078c46554508752192fa62deed98f70ab866719a9fe12a29",
      "networkId": 0,
      "chainId": 0
    },
    {
      "hash": "0x8d758e2376b6eafda2d3cb2e954cf9b1496b493824b2931419bc3f6960603d69",
      "blockHash": "0x89f9a38a60a35741390f63fe9fb8e4c461fd5ed41d50248feae2fd43d511811e",
      "blockNumber": 80300,
      "transactionIndex": 1,
      "confirmations": null,
      "from": "0xCABAb6274eD15089737e287Be878B757934864e2",
      "gasPrice": {
        "_hex": "0xd42963e29"
      },
      "gasLimit": {
        "_hex": "0x15f90"
      },
      "to": "0x6e6bD2E762ecBa2B68ddB39b05916A9531AA0EA6",
      "value": {
        "_hex": "0x3635c9adc5dea00000"
      },
      "nonce": 0,
      "data": "0x",
      "r": "0x84667474ccbc53768307566d6ef417bc921d40fd3413af6136b8f2ce1952e967",
      "s": "0x733c33e0d1048fae37ac65103490798d70ac75eaa0692c1ede6a166fc09eedb7",
      "v": 27,
      "creates": null,
      "raw": "0xf86e80850d42963e2983015f90946e6bd2e762ecba2b68ddb39b05916a9531aa0ea6893635c9adc5dea00000801ba084667474ccbc53768307566d6ef417bc921d40fd3413af6136b8f2ce1952e967a0733c33e0d1048fae37ac65103490798d70ac75eaa0692c1ede6a166fc09eedb7",
      "networkId": 0,
      "chainId": 0
    },
    {
      "hash": "0xd9d521abbf44ff349481f082fe7020127c0e4e72b39833a4005b88057f148a77",
      "blockHash": "0x89f9a38a60a35741390f63fe9fb8e4c461fd5ed41d50248feae2fd43d511811e",
      "blockNumber": 80300,
      "transactionIndex": 2,
      "confirmations": null,
      "from": "0x063dD253C8da4EA9b12105781C9611b8297F5d14",
      "gasPrice": {
        "_hex": "0xd06a888fe"
      },
      "gasLimit": {
        "_hex": "0x249f0"
      },
      "to": "0xde0B295669a9FD93d5F28D9Ec85E40f4cb697BAe",
      "value": {
        "_hex": "0x0"
      },
      "nonce": 4,
      "data": "0xf00d4b5d0000000000000000000000007c56d94ebeccb769524379c450873519a9d805ff0000000000000000000000000037a6b811ffeb6e072da21179d11b1406371c63",
      "r": "0xaeee344d836f353e166f732b0cc95428a827dfb3071afa8eabb8b4c2ed1cda7d",
      "s": "0x767295ff53cd27ae2d6c1fb1fe55981462a131bd1b533823f573920be6bdbee4",
      "v": 28,
      "creates": null,
      "raw": "0xf8aa04850d06a888fe830249f094de0b295669a9fd93d5f28d9ec85e40f4cb697bae80b844f00d4b5d0000000000000000000000007c56d94ebeccb769524379c450873519a9d805ff0000000000000000000000000037a6b811ffeb6e072da21179d11b1406371c631ca0aeee344d836f353e166f732b0cc95428a827dfb3071afa8eabb8b4c2ed1cda7da0767295ff53cd27ae2d6c1fb1fe55981462a131bd1b533823f573920be6bdbee4",
      "networkId": 0,
      "chainId": 0
    }
  ]
}