{
  "hash": "0x2774e055a2d5d8ef063b4afca8a6a3564619246aa98e54e3b2a9994916c2e234",
  "parentHash": "0xa9ee4ac02ef9ba8249404fb8ae13715e3557a3ecd0428ffeb70495028e9ee9fc",
  "number": 70390,
  "timestamp": 1439319126,
  "nonce": "0x6b4bde10e71920f4",
  "difficulty": 2141650045056,
  "gasLimit": {
    "_hex": "0x2fefd8"
  },
  "gasUsed": {
    "_hex": "0x5208"
  },
  "miner": "0x580992B51e3925e23280EfB93d3047C82f17E038",
  "extraData": "0x476574682f76312e302e312f6c696e75782f676f312e342e32",
  "transactions": [
    {
      "hash": "0x49fdaad7f674e0fdff99416b5daa946dbfa1f92d1d6e7c0afdb74b26db75b9ae",
      "blockHash": "0x2774e055a2d5d8ef063b4afca8a6a3564619246aa98e54e3b2a9994916c2e234",
      "blockNumber": 70390,
      "transactionIndex": 0,
      "confirmations": null,
      "from": "0xaC49eeb6a55aF554D86d37b4A4eA7940010866E1",
      "gasPrice": {
        "_hex": "0xd3e0dd636"
      },
      "gasLimit": {
        "_hex": "0x15f90"
      },
      "to": "0xc97b6E47df229442524F8f210926557900f81574",
      "value": {
        "_hex": "0x75f610f70ed20000"
      },
      "nonce": 2,
      "data": "0x",
      "r": "0x3de3df5bce4b1cbd9d1d623576c1e00dc8004a2174e0bc9814b4d008a39bf2f1",
      "s": "0x51c3df96748e32ff4c58e370f59a28a65b79845d559df19e5e06471ebbd8e532",
      "v": 27,
      "creates": null,
      "raw": "0xf86d02850d3e0dd63683015f9094c97b6e47df229442524f8f210926557900f815748875f610f70ed20000801ba03de3df5bce4b1cbd9d1d623576c1e00dc8004a2174e0bc9814b4d008a39bf2f1a051c3df96748e32ff4c58e370f59a28a65b79845d559df19e5e06471ebbd8e532",
      "networkId": 0,
      "chainId": 0
    }
  ]
}