{
  "hash": "0xe104d2c015f42d8fa12d29e29bef4bf5fa54657b56509c7bcdf25c56e3d478cd",
  "parentHash": "0x97ae34e120575605ec807885a2aea943cb5caf07d29342e3bf2a782220fb2c8d",
  "number": 78575,
  "timestamp": 1439456013,
  "nonce": "0xea63f6c2cc45d0a8",
  "difficulty": 2298779206567,
  "gasLimit": {
    "_hex": "0x2fefd8"
  },
  "gasUsed": {
    "_hex": "0x5208"
  },
  "miner": "0x88D74a59454F6cF3B51ef6b9136AFb6b9D405A88",
  "extraData": "0x476574682f76312e302e312d37666266393930632f6c696e75782f676f312e34",
  "transactions": [
    {
      "hash": "0x0ddc98a09af515b8a90e41c958e3789868f680bcdc4537b79ad422ff92d934e7",
      "blockHash": "0xe104d2c015f42d8fa12d29e29bef4bf5fa54657b56509c7bcdf25c56e3d478cd",
      "blockNumber": 78575,
      "transactionIndex": 0,
      "confirmations": null,
      "from": "0x9746c7e1ef2bd21FF3997fa467593a89cb852BD0",
      "gasPrice": {
        "_hex": "0xd413214cb"
      },
      "gasLimit": {
        "_hex": "0x5208"
      },
      "to": "0xB0bF4A71F730782368Ef660FE6D298F432F95450",
      "value": {
        "_hex": "0xad78ebc5ac6200000"
      },
      "nonce": 21,
      "data": "0x",
      "r": "0xabe0d1cf08343869605438dd025d34c34bc6ffbbd0592f1647bfbba24910d3fa",
      "s": "0x3160b5c4d0c04f3fb40ff1f2d35854c0ab4ace3590a4a95c8564a669a22aeed7",
      "v": 28,
      "creates": null,
      "raw": "0xf86d15850d413214cb82520894b0bf4a71f730782368ef660fe6d298f432f95450890ad78ebc5ac6200000801ca0abe0d1cf08343869605438dd025d34c34bc6ffbbd0592f1647bfbba24910d3faa03160b5c4d0c04f3fb40ff1f2d35854c0ab4ace3590a4a95c8564a669a22aeed7",
      "networkId": 0,
      "chainId": 0
    }
  ]
}