{
  "hash": "0x8b17cc359e33d1170626bc3f9c154a5ae34ca91feb3084820268c66c04b8e6f2",
  "parentHash": "0x32d13b34bcf11b48bd48bf14fafbd379afab93d1e11a034018333c4470332ee2",
  "number": 106737,
  "timestamp": 1439909604,
  "nonce": "0x584ca591dae14802",
  "difficulty": 4459500247250,
  "gasLimit": {
    "_hex": "0x2fefd8"
  },
  "gasUsed": {
    "_hex": "0x5208"
  },
  "miner": "0xbb7B8287f3F0a933474a79eAe42CBCa977791171",
  "extraData": "0x476574682f4c5649562f76312e302e312f6c696e75782f676f312e342e32",
  "transactions": [
    {
      "hash": "0x9803ad5096dbc417fd34292dcab1fead1f2615dcaeb705e7bfe7f9beae129500",
      "blockHash": "0x8b17cc359e33d1170626bc3f9c154a5ae34ca91feb3084820268c66c04b8e6f2",
      "blockNumber": 106737,
      "transactionIndex": 0,
      "confirmations": null,
      "from": "0xb2d1cCd26cdfC4474Ac02423AeFc62dA2A3Bc839",
      "gasPrice": {
        "_hex": "0xdede15f08"
      },
      "gasLimit": {
        "_hex": "0x5208"
      },
      "to": "0x32Be343B94f860124dC4fEe278FDCBD38C102D88",
      "value": {
        "_hex": "0x1572e25571bfe4000"
      },
      "nonce": 4,
      "data": "0x",
      "r": "0x5ba82d2548ba75edcc4419b7d70c4c2014ea1ff95fabc746cdc8989abda64760",
      "s": "0x411f7d20761674ab0437761837dda3a1890247fa7eb4b541685a3c38af738a9c",
      "v": 27,
      "creates": null,
      "raw": "0xf86d04850dede15f088252089432be343b94f860124dc4fee278fdcbd38c102d888901572e25571bfe4000801ba05ba82d2548ba75edcc4419b7d70c4c2014ea1ff95fabc746cdc8989abda64760a0411f7d20761674ab0437761837dda3a1890247fa7eb4b541685a3c38af738a9c",
      "networkId": 0,
      "chainId": 0
    }
  ]
}