{
  "hash": "0x1c90078ebb22ccf566539a8fe2e2d31db57b59ac7ad5e758ac2bbf8d3478baf3",
  "parentHash": "0x1d786965509e266c8a0010f779367e7e4e66088444f836770f9b08686d30fab7",
  "number": 113598,
  "timestamp": 1440026425,
  "nonce": "0x483cc89966e00aee",
  "difficulty": 4449331982742,
  "gasLimit": {
    "_hex": "0x2fefd8"
  },
  "gasUsed": {
    "_hex": "0x5208"
  },
  "miner": "0xa70a9a7040d542C632D8e0bE7c5513A8a5Bbc752",
  "extraData": "0x",
  "transactions": [
    {
      "hash": "0xc5d984b49d3f8f3d1331bcfd5201feba342d3801e784c326a6a72096899f1181",
      "blockHash": "0x1c90078ebb22ccf566539a8fe2e2d31db57b59ac7ad5e758ac2bbf8d3478baf3",
      "blockNumber": 113598,
      "transactionIndex": 0,
      "confirmations": null,
      "from": "0x120A270bbC009644e35F0bB6ab13f95b8199c4ad",
      "gasPrice": {
        "_hex": "0xd4d1d1a60"
      },
      "gasLimit": {
        "_hex": "0x3d090"
      },
      "to": "0xef39804Fd2836Ef471E13ecFa2B91C42C368cE76",
      "value": {
        "_hex": "0xde0b6b3a7640000"
      },
      "nonce": 913,
      "data": "0x",
      "r": "0x4bd8377ae3bc7bea156a51f0d16e470f8c2dd1aaffd23d63e94a22528d4684d2",
      "s": "0x2d39dcb95fc6215c92366f01e35d3c1963366b012e544eccc4266d5bc8e41070",
      "v": 27,
      "creates": null,
      "raw": "0xf86f820391850d4d1d1a608303d09094ef39804fd2836ef471e13ecfa2b91c42c368ce76880de0b6b3a7640000801ba04bd8377ae3bc7bea156a51f0d16e470f8c2dd1aaffd23d63e94a22528d4684d2a02d39dcb95fc6215c92366f01e35d3c1963366b012e544eccc4266d5bc8e41070",
      "networkId": 0,
      "chainId": 0
    }
  ]
}