{
  "hash": "0x5c28835b593eecb2a2ff247dce2c631f0c953adbe1809464371ebe861899be65",
  "parentHash": "0xa8076e34ccb3cb1ff6dd048ebba867fa64f5fa87b58cbd3eff2844d9fa855bf4",
  "number": 110435,
  "timestamp": 1439973784,
  "nonce": "0xdd7db1ef35a0b9a5",
  "difficulty": 4375589189346,
  "gasLimit": {
    "_hex": "0x2fefd8"
  },
  "gasUsed": {
    "_hex": "0x5208"
  },
  "miner": "0xbb7B8287f3F0a933474a79eAe42CBCa977791171",
  "extraData": "0x476574682f4c5649562f76312e302e312f6c696e75782f676f312e342e32",
  "transactions": [
    {
      "hash": "0xdefd22d382e6589661c11073b65015e4096d73a5a573945f1446d431b2cd692c",
      "blockHash": "0x5c28835b593eecb2a2ff247dce2c631f0c953adbe1809464371ebe861899be65",
      "blockNumber": 110435,
      "transactionIndex": 0,
      "confirmations": null,
      "from": "0x629e35e0A481d821293F354E0dD27E43a354D061",
      "gasPrice": {
        "_hex": "0xccf78bff5"
      },
      "gasLimit": {
        "_hex": "0x5208"
      },
      "to": "0x32Be343B94f860124dC4fEe278FDCBD38C102D88",
      "value": {
        "_hex": "0xb734d046bef85000"
      },
      "nonce": 7,
      "data": "0x",
      "r": "0xfdf3a5b997c61306955a0f54c82c3f19705ea8f070d618f311f52fadb5104a94",
      "s": "0x027366c09581985f91833ddc0833f397cb0846ae4abaf55fc08a24c0eeb41ad6",
      "v": 28,
      "creates": null,
      "raw": "0xf86c07850ccf78bff58252089432be343b94f860124dc4fee278fdcbd38c102d8888b734d046bef85000801ca0fdf3a5b997c61306955a0f54c82c3f19705ea8f070d618f311f52fadb5104a94a0027366c09581985f91833ddc0833f397cb0846ae4abaf55fc08a24c0eeb41ad6",
      "networkId": 0,
      "chainId": 0
    }
  ]
}