{
  "hash": "0x03e8a1885e66714bb6fd82778bd8355ee453dc00992aac97335f5988ac70e85a",
  "parentHash": "0x424d3e0e9958cefc7a40a3b1014a08879719b19b2ec117534cb76e170e9706eb",
  "number": 89503,
  "timestamp": 1439624436,
  "nonce": "0x7ebdac9972800d02",
  "difficulty": 3330577874846,
  "gasLimit": {
    "_hex": "0x2fefd5"
  },
  "gasUsed": {
    "_hex": "0xa410"
  },
  "miner": "0x47ff6576639c2e94762eA5443978D7681C0E78DC",
  "extraData": "0x476574682f76312e302e312f6c696e75782f676f312e342e32",
  "transactions": [
    {
      "hash": "0x125ce200c4f7278a69cc5946b14ad40a1c7842e12534fd05a96c80614f54d09a",
      "blockHash": "0x03e8a1885e66714bb6fd82778bd8355ee453dc00992aac97335f5988ac70e85a",
      "blockNumber": 89503,
      "transactionIndex": 0,
      "confirmations": null,
      "from": "0x8293b65bD915B9FF87F6aDAb479da2e5b6633fDB",
      "gasPrice": {
        "_hex": "0xd8dd2f123"
      },
      "gasLimit": {
        "_hex": "0x15f90"
      },
      "to": "0x9f78552704fe7e52cC7C3853534aA2C3cf580D54",
      "value": {
        "_hex": "0x1bc16d674ec80000"
      },
      "nonce": 0,
      "data": "0x",
      "r": "0x6752c7d0917ba714afdf14f7250f207e26ac731622fe5e1544917bfcf67e5df0",
      "s": "0x12085ac30b4967685f38c949e376694b3ceed4983664c0834c88c312f6122920",
      "v": 27,
      "creates": null,
      "raw": "0xf86d80850d8dd2f12383015f90949f78552704fe7e52cc7c3853534aa2c3cf580d54881bc16d674ec80000801ba06752c7d0917ba714afdf14f7250f207e26ac731622fe5e1544917bfcf67e5df0a012085ac30b4967685f38c949e376694b3ceed4983664c0834c88c312f6122920",
      "networkId": 0,
      "chainId": 0
    },
    {
      "hash": "0x8ffa7926ffe7d4e887f7b9fde5c27352f0f5c8d289cf519ef8ec5ea117e69f99",
      "blockHash": "0x03e8a1885e66714bb6fd82778bd8355ee453dc00992aac97335f5988ac70e85a",
      "blockNumber": 89503,
      "transactionIndex": 1,
      "confirmations": null,
      "from": "0xCe0df7AD79C6DBaB57E0b7ddc7612Bb087AaffF4",
      "gasPrice": {
        "_hex": "0xd15f6214e"
      },
      "gasLimit": {
        "_hex": "0x5208"
      },
      "to": "0x32Be343B94f860124dC4fEe278FDCBD38C102D88",
      "value": {
        "_hex": "0x1b1aced77ecfe30000"
      },
      "nonce": 2,
      "data": "0x",
      "r": "0x7b2b04473d19f572d7d5c964b3a6f370c75fd0c20398a5fa2ef64a5f171272c4",
      "s": "0x487587941ed5b8a5b9d7526863184c4a004a6a7401257c5c5ddfc9aa56c41be2",
      "v": 27,
      "creates": null,
      "raw": "0xf86d02850d15f6214e8252089432be343b94f860124dc4fee278fdcbd38c102d88891b1aced77ecfe30000801ba07b2b04473d19f572d7d5c964b3a6f370c75fd0c20398a5fa2ef64a5f171272c4a0487587941ed5b8a5b9d7526863184c4a004a6a7401257c5c5ddfc9aa56c41be2",
      "networkId": 0,
      "chainId": 0
    }
  ]
}