{
  "hash": "0xda09caf613fac95204701fd95edca017b8370525ed0b31bfc2df2f6bf5cb64d5",
  "parentHash": "0x5a45d76e156efd657d77213e2ce3e55255c5461fe2d46ec0096f0997068c7579",
  "number": 121911,
  "timestamp": 1440184782,
  "nonce": "0xcc6ff4786a6bcb2d",
  "difficulty": 4481974848247,
  "gasLimit": {
    "_hex": "0x2fefd8"
  },
  "gasUsed": {
    "_hex": "0xf618"
  },
  "miner": "0xe6A7a1d47ff21B6321162AEA7C6CB457D5476Bca",
  "extraData": "0xd783010002844765746887676f312e342e32856c696e7578",
  "transactions": [
    {
      "hash": "0x2f5e4c4a5ab171d1fa8bac00aefff7b6c8f82471d7ad89fa32e86b90d9948703",
      "blockHash": "0xda09caf613fac95204701fd95edca017b8370525ed0b31bfc2df2f6bf5cb64d5",
      "blockNumber": 121911,
      "transactionIndex": 0,
      "confirmations": null,
      "from": "0x3F6DDbC103F2999640fe4AFc6884708fa691C2b8",
      "gasPrice": {
        "_hex": "0xd2d4840c4"
      },
      "gasLimit": {
        "_hex": "0x5208"
      },
      "to": "0x32Be343B94f860124dC4fEe278FDCBD38C102D88",
      "value": {
        "_hex": "0x3244d7fc8c66d000"
      },
      "nonce": 10,
      "data": "0x",
      "r": "0x84682c63376cf800583ae86ba719b1e030bdd9920b21f8d0ccef19183fa38528",
      "s": "0x3119ddffb433e78a33dd01a6e0191dac5fb5fcbd6ef3bcff2cbb5c5994dfec2b",
      "v": 28,
      "creates": null,
      "raw": "0xf86c0a850d2d4840c48252089432be343b94f860124dc4fee278fdcbd38c102d88883244d7fc8c66d000801ca084682c63376cf800583ae86ba719b1e030bdd9920b21f8d0ccef19183fa38528a03119ddffb433e78a33dd01a6e0191dac5fb5fcbd6ef3bcff2cbb5c5994dfec2b",
      "networkId": 0,
      "chainId": 0
    },
    {
      "hash": "0x03f09a3007658de87b62363d5bd09c41ad05b2600b2e4a076e824cc7d9c487c0",
      "blockHash": "0xda09caf613fac95204701fd95edca017b8370525ed0b31bfc2df2f6bf5cb64d5",
      "blockNumber": 121911,
      "transactionIndex": 1,
      "confirmations": null,
      "from": "0xB28fE7b9815982FF203F751ce550111D752d8795",
      "gasPrice": {
        "_hex": "0xd2d4840c4"
      },
      "gasLimit": {
        "_hex": "0x5208"
      },
      "to": "0x32Be343B94f860124dC4fEe278FDCBD38C102D88",
      "value": {
        "_hex": "0x2453576c7ba6be000"
      },
      "nonce": 10,
      "data": "0x",
      "r": "0xbc3b8d023900c72c35108cb27d3b9674ba5b3ff2a9c97ac39274ced102b858e3",
      "s": "0x30ff838bc033885de1fa8b818c77e2dc9a557b7a2e46dc146233d1a259fc3eac",
      "v": 27,
      "creates": null,
      "raw": "0xf86d0a850d2d4840c48252089432be343b94f860124dc4fee278fdcbd38c102d888902453576c7ba6be000801ba0bc3b8d023900c72c35108cb27d3b9674ba5b3ff2a9c97ac39274ced102b858e3a030ff838bc033885de1fa8b818c77e2dc9a557b7a2e46dc146233d1a259fc3eac",
      "networkId": 0,
      "chainId": 0
    },
    {
      "hash": "0xa01f91a4857d4423072705f11706b201dc1ed51a31b5aaf891c1632acce299e8",
      "blockHash": "0xda09caf613fac95204701fd95edca017b8370525ed0b31bfc2df2f6bf5cb64d5",
      "blockNumber": 121911,
      "transactionIndex": 2,
      "confirmations": null,
      "from": "0x378fCAEF49580b550cB7164f14811a5E613BD683",
      "gasPrice": {
        "_hex": "0xd2d4840c4"
      },
      "gasLimit": {
        "_hex": "0x5208"
      },
      "to": "0x32Be343B94f860124dC4fEe278FDCBD38C102D88",
      "value": {
        "_hex": "0x3ea7f6e3ddb75400"
      },
      "nonce": 9,
      "data": "0x",
      "r": "0x19800599c898053d57e4a935c6117521f0c0a0ec9a7b46d19ab2774a66d174c5",
      "s": "0x25cab0f8109742c48d47bb8cd0c9c1dfc6f9c89b6d2983c322dab96871968450",
      "v": 27,
      "creates": null,
      "raw": "0xf86c09850d2d4840c48252089432be343b94f860124dc4fee278fdcbd38c102d88883ea7f6e3ddb75400801ba019800599c898053d57e4a935c6117521f0c0a0ec9a7b46d19ab2774a66d174c5a025cab0f8109742c48d47bb8cd0c9c1dfc6f9c89b6d2983c322dab96871968450",
      "networkId": 0,
      "chainId": 0
    }
  ]
}