{
  "hash": "0x507dc687162c6376fd65df01cfe751771fc8233041f647c46bebdeaf514ad6a9",
  "parentHash": "0x0e09d5fec1d44636bb340469d0cdafc0cc54093a695349eb91d2b97eb6e30142",
  "number": 103975,
  "timestamp": 1439862054,
  "nonce": "0x35afa31d49bc5671",
  "difficulty": 4273346356026,
  "gasLimit": {
    "_hex": "0x2fefd8"
  },
  "gasUsed": {
    "_hex": "0x520c"
  },
  "miner": "0xe6A7a1d47ff21B6321162AEA7C6CB457D5476Bca",
  "extraData": "0x476574682f76312e302e312d38326566323666362f6c696e75782f676f312e34",
  "transactions": [
    {
      "hash": "0x7c540227ab7f149b7abfa8d8a96e4788f43a39a88eb9f87c00a4d8d635f05622",
      "blockHash": "0x507dc687162c6376fd65df01cfe751771fc8233041f647c46bebdeaf514ad6a9",
      "blockNumber": 103975,
      "transactionIndex": 0,
      "confirmations": null,
      "from": "0x854c0c469C246b83b5D1B3eca443B39aF5EE128a",
      "gasPrice": {
        "_hex": "0xd0d3e3451"
      },
      "gasLimit": {
        "_hex": "0x7530"
      },
      "to": "0x7cB57B5A97eAbe94205C07890BE4c1aD31E486A8",
      "value": {
        "_hex": "0x88009813ced40000"
      },
      "nonce": 1,
      "data": "0x00",
      "r": "0x399dfcae833b3a08ededcec37a23b6cb064fe7feba79ed23035922de1d2ee495",
      "s": "0x99d473e0a6d79c6dc4d357a20e3af6c20df52436c980f810d98dfefecaa9e82d",
      "v": 28,
      "creates": null,
      "raw": "0xf86c01850d0d3e3451827530947cb57b5a97eabe94205c07890be4c1ad31e486a88888009813ced40000001ca0399dfcae833b3a08ededcec37a23b6cb064fe7feba79ed23035922de1d2ee495a099d473e0a6d79c6dc4d357a20e3af6c20df52436c980f810d98dfefecaa9e82d",
      "networkId": 0,
      "chainId": 0
    }
  ]
}