{
  "hash": "0x722aeb1c41564cba1d137661da4d4707f17cace3b247d2abb3fa2c22602c2106",
  "parentHash": "0x07d51ae250936d059182bba830b6f04b1b17c4304776b5f4ca6ae26bbd196adf",
  "number": 84681,
  "timestamp": 1439553056,
  "nonce": "0xdae557858a7816c5",
  "difficulty": 2610599811756,
  "gasLimit": {
    "_hex": "0x2fefd8"
  },
  "gasUsed": {
    "_hex": "0xa410"
  },
  "miner": "0x77EC9ad4A7E9418774C29415CAaF4Ee0da96eF64",
  "extraData": "0x",
  "transactions": [
    {
      "hash": "0x77c7a26e9f999af73f1cc64a09d432273d3e124d4960f332950854978be5ae89",
      "blockHash": "0x722aeb1c41564cba1d137661da4d4707f17cace3b247d2abb3fa2c22602c2106",
      "blockNumber": 84681,
      "transactionIndex": 0,
      "confirmations": null,
      "from": "0x32Be343B94f860124dC4fEe278FDCBD38C102D88",
      "gasPrice": {
        "_hex": "0xd3e3c3200"
      },
      "gasLimit": {
        "_hex": "0x5208"
      },
      "to": "0x81f6AEC7c17808240f306Ac0E8987a6c74e165f4",
      "value": {
        "_hex": "0x1b9de674df070000"
      },
      "nonce": 694,
      "data": "0x",
      "r": "0x517ae06693027dfeba3875cd48a8b6aeea5303668f2442e89989ff187396bcf8",
      "s": "0x2ae07267455c81328c0b67bb819c7a601c0f6684b31bc7fd23a88e013709796b",
      "v": 28,
      "creates": null,
      "raw": "0xf86e8202b6850d3e3c32008252089481f6aec7c17808240f306ac0e8987a6c74e165f4881b9de674df070000801ca0517ae06693027dfeba3875cd48a8b6aeea5303668f2442e89989ff187396bcf8a02ae07267455c81328c0b67bb819c7a601c0f6684b31bc7fd23a88e013709796b",
      "networkId": 0,
      "chainId": 0
    },
    {
      "hash": "0xe695695ac3087ae71a634410bc84cfe367c5cb903736d2757766bbedbd1d942b",
      "blockHash": "0x722aeb1c41564cba1d137661da4d4707f17cace3b247d2abb3fa2c22602c2106",
      "blockNumber": 84681,
      "transactionIndex": 1,
      "confirmations": null,
      "from": "0x32Be343B94f860124dC4fEe278FDCBD38C102D88",
      "gasPrice": {
        "_hex": "0xd1db05a7a"
      },
      "gasLimit": {
        "_hex": "0x5208"
      },
      "to": "0x5F28bcc5faFC8982536A9e4be559657998CdE1E3",
      "value": {
        "_hex": "0x2b45ce2abe43d0000"
      },
      "nonce": 695,
      "data": "0x",
      "r": "0xd968ebe6b6b157c085e36d7bd0d678da10a5fe4a9b1510c6d6db8286a7c2d87b",
      "s": "0x29910e14eae2a82ce6c74b68186038e69489aa1ed02c24b1fb608110f812ca8e",
      "v": 27,
      "creates": null,
      "raw": "0xf86f8202b7850d1db05a7a825208945f28bcc5fafc8982536a9e4be559657998cde1e38902b45ce2abe43d0000801ba0d968ebe6b6b157c085e36d7bd0d678da10a5fe4a9b1510c6d6db8286a7c2d87ba029910e14eae2a82ce6c74b68186038e69489aa1ed02c24b1fb608110f812ca8e",
      "networkId": 0,
      "chainId": 0
    }
  ]
}