{
  "hash": "0xe4bb4b9916b06d0c9476adb8df07523c7c4a0b350343ba39a37f61f3007e63f9",
  "parentHash": "0x39001a4566c9580268c350f9854c339bfdfe3b83280f97567930c98f3d62b81d",
  "number": 49979,
  "timestamp": 1438982262,
  "nonce": "0x42a06b68bf15a493",
  "difficulty": 1495100348428,
  "gasLimit": {
    "_hex": "0x49331"
  },
  "gasUsed": {
    "_hex": "0xa674"
  },
  "miner": "0xF2d2AfF1320476cb8C6b607199D23175cc595693",
  "extraData": "0x476574682f76312e302e312f77696e646f77732f676f312e342e32",
  "transactions": [
    {
      "hash": "0x8a2d6f563a53723cde1f23f89c567eff877c04180faf5a28d4916d37869fe8e5",
      "blockHash": "0xe4bb4b9916b06d0c9476adb8df07523c7c4a0b350343ba39a37f61f3007e63f9",
      "blockNumber": 49979,
      "transactionIndex": 0,
      "confirmations": null,
      "from": "0x344C97aef984D928676f82C2BeDB1d159EFE3d7f",
      "gasPrice": {
        "_hex": "0x174876e800"
      },
      "gasLimit": {
        "_hex": "0x15f90"
      },
      "to": "0x3463f942ecbBfD18f1CF702576c99BC11F7cB1Ae",
      "value": {
        "_hex": "0xde0b6b3a7640000"
      },
      "nonce": 0,
      "data": "0x",
      "r": "0x4542b17e0cc4abebbbc6d64ca18e0d729a688abd235825c97a39a7443d0a99f3",
      "s": "0x13235c3a740e42f28ea59f1e633050d5805dbbe1a1fcd2557fa63b9811028ff5",
      "v": 27,
      "creates": null,
      "raw": "0xf86d8085174876e80083015f90943463f942ecbbfd18f1cf702576c99bc11f7cb1ae880de0b6b3a7640000801ba04542b17e0cc4abebbbc6d64ca18e0d729a688abd235825c97a39a7443d0a99f3a013235c3a740e42f28ea59f1e633050d5805dbbe1a1fcd2557fa63b9811028ff5",
      "networkId": 0,
      "chainId": 0
    },
    {
      "hash": "0x41351b22a98f03aef5b90bcdea98ec9f020b475bbe7840ad15ce977c570b8506",
      "blockHash": "0xe4bb4b9916b06d0c9476adb8df07523c7c4a0b350343ba39a37f61f3007e63f9",
      "blockNumber": 49979,
      "transactionIndex": 1,
      "confirmations": null,
      "from": "0xAD6628352eD3390bAfA86d923e56014cfcb360F4",
      "gasPrice": {
        "_hex": "0xd8b1b3b37"
      },
      "gasLimit": {
        "_hex": "0x15f90"
      },
      "to": "0x2910543Af39abA0Cd09dBb2D50200b3E800A63D2",
      "value": {
        "_hex": "0x6c184f1355d0e80000"
      },
      "nonce": 1,
      "data": "0x454e544545364e4852",
      "r": "0xb65aefb22a11b60923a0f631b183d47cd26a3ff4ea05bb1f330dca7ae436f383",
      "s": "0x71a77ff855bb19ba3e20b6753d898bb470d9b5d16ce63173a9a4c0247a56ffdc",
      "v": 27,
      "creates": null,
      "raw": "0xf87701850d8b1b3b3783015f90942910543af39aba0cd09dbb2d50200b3e800a63d2896c184f1355d0e8000089454e544545364e48521ba0b65aefb22a11b60923a0f631b183d47cd26a3ff4ea05bb1f330dca7ae436f383a071a77ff855bb19ba3e20b6753d898bb470d9b5d16ce63173a9a4c0247a56ffdc",
      "networkId": 0,
      "chainId": 0
    }
  ]
}