{
  "hash": "0x8d1dca76792fa44bcdafce7dc40e2dc59d9974c6e6fd987f5bf358dc6bee89e6",
  "parentHash": "0x051b45f653b88562d7570d5f5561c5cbb4fd5ea43b98981f28710bcb09a20756",
  "number": 72250,
  "timestamp": 1439349807,
  "nonce": "0xa439b4ac0de9818a",
  "difficulty": 2170650143092,
  "gasLimit": {
    "_hex": "0x2fefd8"
  },
  "gasUsed": {
    "_hex": "0x3abae"
  },
  "miner": "0xe6A7a1d47ff21B6321162AEA7C6CB457D5476Bca",
  "extraData": "0x476574682f76312e302e312d38326566323666362f6c696e75782f676f312e34",
  "transactions": [
    {
      "hash": "0x88b87e76260ba8d83a028fa90604b8d59571a136bddbb15e21edecb662fe0da5",
      "blockHash": "0x8d1dca76792fa44bcdafce7dc40e2dc59d9974c6e6fd987f5bf358dc6bee89e6",
      "blockNumber": 72250,
      "transactionIndex": 0,
      "confirmations": null,
      "from": "0x17580B766f7453525ca4C6A88b01b50570EA088C",
      "gasPrice": {
        "_hex": "0xdfa4e7862"
      },
      "gasLimit": {
        "_hex": "0x61a80"
      },
      "to": "0x5Fe5B7546D1628f7348B023A0393de1FC825A4fD",
      "value": {
        "_hex": "0x8ac7230489e80000"
      },
      "nonce": 415,
      "data": "0xb595b8b50000000000000000000000000000000000000000000000000000000000000000",
      "r": "0x8976015ddbfdbe1fd1ad1dbb8bef2866a4541a162383497fb9d973577da681de",
      "s": "0x6c408d84197691e93e78788e215264c7762e28c7375a72cbdcfcb151f6dab3d3",
      "v": 27,
      "creates": null,
      "raw": "0xf89382019f850dfa4e786283061a80945fe5b7546d1628f7348b023a0393de1fc825a4fd888ac7230489e80000a4b595b8b500000000000000000000000000000000000000000000000000000000000000001ba08976015ddbfdbe1fd1ad1dbb8bef2866a4541a162383497fb9d973577da681dea06c408d84197691e93e78788e215264c7762e28c7375a72cbdcfcb151f6dab3d3",
      "networkId": 0,
      "chainId": 0
    },
    {
      "hash": "0xb84182255a6afc3eb8b05bc82257680acf18fce8e6d554ac79b6081ec0eb7078",
      "blockHash": "0x8d1dca76792fa44bcdafce7dc40e2dc59d9974c6e6fd987f5bf358dc6bee89e6",
      "blockNumber": 72250,
      "transactionIndex": 1,
      "confirmations": null,
      "from": "0x17580B766f7453525ca4C6A88b01b50570EA088C",
      "gasPrice": {
        "_hex": "0xdfa4e7862"
      },
      "gasLimit": {
        "_hex": "0x61a80"
      },
      "to": "0x5Fe5B7546D1628f7348B023A0393de1FC825A4fD",
      "value": {
        "_hex": "0x8ac7230489e80000"
      },
      "nonce": 416,
      "data": "0xb595b8b50000000000000000000000000000000000000000000000000000000000000000",
      "r": "0xfa69fa4fa8a8d179249edafedd154f1ddd353ff5b9323d7c1c24b3f442d572ba",
      "s": "0x1e1592031dad71b6273355c3097e710be7779801436d2f6ed8638d35baa38393",
      "v": 27,
      "creates": null,
      "raw": "0xf8938201a0850dfa4e786283061a80945fe5b7546d1628f7348b023a0393de1fc825a4fd888ac7230489e80000a4b595b8b500000000000000000000000000000000000000000000000000000000000000001ba0fa69fa4fa8a8d179249edafedd154f1ddd353ff5b9323d7c1c24b3f442d572baa01e1592031dad71b6273355c3097e710be7779801436d2f6ed8638d35baa38393",
      "networkId": 0,
      "chainId": 0
    },
    {
      "hash": "0xf6140b36675e0311963670fecc0dfe1afa93af3a9ef070b870c82bb4d35f0322",
      "blockHash": "0x8d1dca76792fa44bcdafce7dc40e2dc59d9974c6e6fd987f5bf358dc6bee89e6",
      "blockNumber": 72250,
      "transactionIndex": 2,
      "confirmations": null,
      "from": "0x17580B766f7453525ca4C6A88b01b50570EA088C",
      "gasPrice": {
        "_hex": "0xdfa4e7862"
      },
      "gasLimit": {
        "_hex": "0x61a80"
      },
      "to": "0x5Fe5B7546D1628f7348B023A0393de1FC825A4fD",
      "value": {
        "_hex": "0x8ac7230489e80000"
      },
      "nonce": 417,
      "data": "0xb595b8b50000000000000000000000000000000000000000000000000000000000000000",
      "r": "0x613d291b5ebf55153324db9dbd10c78de632b70c95d79e0a0ecb56f1931073e2",
      "s": "0x5335a37d8632ab648b827117326a6803d5b619ed2a99d5b0df25a29594ede374",
      "v": 27,
      "creates": null,
      "raw": "0xf8938201a1850dfa4e786283061a80945fe5b7546d1628f7348b023a0393de1fc825a4fd888ac7230489e80000a4b595b8b500000000000000000000000000000000000000000000000000000000000000001ba0613d291b5ebf55153324db9dbd10c78de632b70c95d79e0a0ecb56f1931073e2a05335a37d8632ab648b827117326a6803d5b619ed2a99d5b0df25a29594ede374",
      "networkId": 0,
      "chainId": 0
    },
    {
      "hash": "0x2099235e1ec3387b7807783ee176fd3316b4d5eff3a7f4781e4e1644c680f46b",
      "blockHash": "0x8d1dca76792fa44bcdafce7dc40e2dc59d9974c6e6fd987f5bf358dc6bee89e6",
      "blockNumber": 72250,
      "transactionIndex": 3,
      "confirmations": null,
      "from": "0x17580B766f7453525ca4C6A88b01b50570EA088C",
      "gasPrice": {
        "_hex": "0xdfa4e7862"
      },
      "gasLimit": {
        "_hex": "0x61a80"
      },
      "to": "0x5Fe5B7546D1628f7348B023A0393de1FC825A4fD",
      "value": {
        "_hex": "0x8ac7230489e80000"
      },
      "nonce": 418,
      "data": "0xb595b8b50000000000000000000000000000000000000000000000000000000000000000",
      "r": "0x3344165eead5e021aea42aa295da4bd6c2e39fab72caaf12d9f4c66993098997",
      "s": "0x6175949279636f2f231e432aec5b341480f60deb03436517d42f27151bfa9fdf",
      "v": 27,
      "creates": null,
      "raw": "0xf8938201a2850dfa4e786283061a80945fe5b7546d1628f7348b023a0393de1fc825a4fd888ac7230489e80000a4b595b8b500000000000000000000000000000000000000000000000000000000000000001ba03344165eead5e021aea42aa295da4bd6c2e39fab72caaf12d9f4c66993098997a06175949279636f2f231e432aec5b341480f60deb03436517d42f27151bfa9fdf",
      "networkId": 0,
      "chainId": 0
    },
    {
      "hash": "0x6da034c6d40050c013c2603582c8ec861f463e7121077802fbe6e87fcd2cc77e",
      "blockHash": "0x8d1dca76792fa44bcdafce7dc40e2dc59d9974c6e6fd987f5bf358dc6bee89e6",
      "blockNumber": 72250,
      "transactionIndex": 4,
      "confirmations": null,
      "from": "0x17580B766f7453525ca4C6A88b01b50570EA088C",
      "gasPrice": {
        "_hex": "0xdfa4e7862"
      },
      "gasLimit": {
        "_hex": "0x61a80"
      },
      "to": "0x5Fe5B7546D1628f7348B023A0393de1FC825A4fD",
      "value": {
        "_hex": "0x8ac7230489e80000"
      },
      "nonce": 419,
      "data": "0xb595b8b50000000000000000000000000000000000000000000000000000000000000000",
      "r": "0x42e17e650866207a494cfcfe5fb2d77a03131f9055bd0cff9e0ded1a6c6edf3b",
      "s": "0x595f31081886458f6615d4d676fda886adf9db39e0e9739af1e52559c6835724",
      "v": 27,
      "creates": null,
      "raw": "0xf8938201a3850dfa4e786283061a80945fe5b7546d1628f7348b023a0393de1fc825a4fd888ac7230489e80000a4b595b8b500000000000000000000000000000000000000000000000000000000000000001ba042e17e650866207a494cfcfe5fb2d77a03131f9055bd0cff9e0ded1a6c6edf3ba0595f31081886458f6615d4d676fda886adf9db39e0e9739af1e52559c6835724",
      "networkId": 0,
      "chainId": 0
    },
    {
      "hash": "0x058481f5db5c74ee48d46eef5579ce57d4b4cae74ef1a59dc5d544b320d3c378",
      "blockHash": "0x8d1dca76792fa44bcdafce7dc40e2dc59d9974c6e6fd987f5bf358dc6bee89e6",
      "blockNumber": 72250,
      "transactionIndex": 5,
      "confirmations": null,
      "from": "0x17580B766f7453525ca4C6A88b01b50570EA088C",
      "gasPrice": {
        "_hex": "0xdfa4e7862"
      },
      "gasLimit": {
        "_hex": "0x61a80"
      },
      "to": "0x5Fe5B7546D1628f7348B023A0393de1FC825A4fD",
      "value": {
        "_hex": "0x8ac7230489e80000"
      },
      "nonce": 420,
      "data": "0xb595b8b50000000000000000000000000000000000000000000000000000000000000000",
      "r": "0x1c3cbd44c24aa8206be25705b12092d30dceaed098d92eb5411f689d4546a998",
      "s": "0x00d12623896088846777e61221e78d97758b16808fe1031f5e6e29582b4db4b2",
      "v": 27,
      "creates": null,
      "raw": "0xf8928201a4850dfa4e786283061a80945fe5b7546d1628f7348b023a0393de1fc825a4fd888ac7230489e80000a4b595b8b500000000000000000000000000000000000000000000000000000000000000001ba01c3cbd44c24aa8206be25705b12092d30dceaed098d92eb5411f689d4546a9989fd12623896088846777e61221e78d97758b16808fe1031f5e6e29582b4db4b2",
      "networkId": 0,
      "chainId": 0
    }
  ]
}