{
  "hash": "0xc08759badd378060c151dfb763d0ab89407056c16c4f0a0f5593894611f3bc6c",
  "parentHash": "0xf5cdf77f37146147d3b410bb5dde6a0f4b5848e5f0ef35db05e28e9411249730",
  "number": 81467,
  "timestamp": 1439502180,
  "nonce": "0xcac08fcf6ab0d14f",
  "difficulty": 2450976653120,
  "gasLimit": {
    "_hex": "0x2fefd8"
  },
  "gasUsed": {
    "_hex": "0x5208"
  },
  "miner": "0x9746c7e1ef2bd21FF3997fa467593a89cb852BD0",
  "extraData": "0x476574682f76312e302e312f77696e646f77732f676f312e342e32",
  "transactions": [
    {
      "hash": "0xdfad5a4eed0025e56012f178b9e687c3c4d5c4654bc47e20d300d98ebf07f31b",
      "blockHash": "0xc08759badd378060c151dfb763d0ab89407056c16c4f0a0f5593894611f3bc6c",
      "blockNumber": 81467,
      "transactionIndex": 0,
      "confirmations": null,
      "from": "0x120A270bbC009644e35F0bB6ab13f95b8199c4ad",
      "gasPrice": {
        "_hex": "0xcd9fb4406"
      },
      "gasLimit": {
        "_hex": "0x3d090"
      },
      "to": "0xFbc92cE518a6CA6341B08b4468880Cc9Dd61a027",
      "value": {
        "_hex": "0x1a2de4ff0760dbcc00"
      },
      "nonce": 380,
      "data": "0x",
      "r": "0x0ae6e034bfe30b8cf1ed61fcf96aa1167450d2382e4025956c090890849143a3",
      "s": "0x09a5f450042d4a61400f43026b08d53bb73319aa34c60cbe4af59c447c9cf30d",
      "v": 27,
      "creates": null,
      "raw": "0xf87082017c850cd9fb44068303d09094fbc92ce518a6ca6341b08b4468880cc9dd61a027891a2de4ff0760dbcc00801ba00ae6e034bfe30b8cf1ed61fcf96aa1167450d2382e4025956c090890849143a3a009a5f450042d4a61400f43026b08d53bb73319aa34c60cbe4af59c447c9cf30d",
      "networkId": 0,
      "chainId": 0
    }
  ]
}