{
  "hash": "0x72836b12f76040b2a36e14974ff40bd01a4d8c1d8c347bac57ddbe668ca8b363",
  "parentHash": "0x71ccf634e3e389000e1bdc2b75802a8dc335de4245b518616cab2cfd542e6702",
  "number": 57761,
  "timestamp": 1439109224,
  "nonce": "0x4a509548c7f91636",
  "difficulty": 1724298565903,
  "gasLimit": {
    "_hex": "0x2fefd5"
  },
  "gasUsed": {
    "_hex": "0x5208"
  },
  "miner": "0x47ff6576639c2e94762eA5443978D7681C0E78DC",
  "extraData": "0x476574682f76312e302e312f6c696e75782f676f312e342e32",
  "transactions": [
    {
      "hash": "0x362738d63688d03b5864b698eb18821e786fb8970064fee789ddec3bca53453c",
      "blockHash": "0x72836b12f76040b2a36e14974ff40bd01a4d8c1d8c347bac57ddbe668ca8b363",
      "blockNumber": 57761,
      "transactionIndex": 0,
      "confirmations": null,
      "from": "0x3234d29E2390E0Ac637B3ad0ACA3dF88aC82dC5d",
      "gasPrice": {
        "_hex": "0xd4876c2f9"
      },
      "gasLimit": {
        "_hex": "0x5208"
      },
      "to": "0x32Be343B94f860124dC4fEe278FDCBD38C102D88",
      "value": {
        "_hex": "0x14ccd06c665dc800"
      },
      "nonce": 3,
      "data": "0x",
      "r": "0x45b0a31411d854017be684b0d1689caef11c410b9bd7490b20a05ccae95874eb",
      "s": "0x1b50f600a0e260455761e94eef153a9c6d4cce6605aecd9c513c36beb16b8861",
      "v": 28,
      "creates": null,
      "raw": "0xf86c03850d4876c2f98252089432be343b94f860124dc4fee278fdcbd38c102d888814ccd06c665dc800801ca045b0a31411d854017be684b0d1689caef11c410b9bd7490b20a05ccae95874eba01b50f600a0e260455761e94eef153a9c6d4cce6605aecd9c513c36beb16b8861",
      "networkId": 0,
      "chainId": 0
    }
  ]
}