{
  "hash": "0xaa89d9bd1ee93bf6ea4bdbeac7650a4b6cdbcc15045cbc4e92e1baba89cf2d91",
  "parentHash": "0x07740e842a8f78280ec4b1facf633c45a15c2a89037271fa4a5d26859e044459",
  "number": 77807,
  "timestamp": 1439443219,
  "nonce": "0x491c7c141240f2e2",
  "difficulty": 2274425667460,
  "gasLimit": {
    "_hex": "0x2fefd8"
  },
  "gasUsed": {
    "_hex": "0x14820"
  },
  "miner": "0xf927a40C8B7F6E07c5af7FA2155B4864a4112B13",
  "extraData": "0x",
  "transactions": [
    {
      "hash": "0x5c4ec20bd44159b6d75290cb38d133804cae7f4ed86c181f51b66a6997e4d504",
      "blockHash": "0xaa89d9bd1ee93bf6ea4bdbeac7650a4b6cdbcc15045cbc4e92e1baba89cf2d91",
      "blockNumber": 77807,
      "transactionIndex": 0,
      "confirmations": null,
      "from": "0x43279854AaF8825a6d1fcCf056caF190Ab8a7b76",
      "gasPrice": {
        "_hex": "0xd98b2eef0"
      },
      "gasLimit": {
        "_hex": "0x5208"
      },
      "to": "0x32Be343B94f860124dC4fEe278FDCBD38C102D88",
      "value": {
        "_hex": "0xd8d7225bc29a880000"
      },
      "nonce": 7,
      "data": "0x",
      "r": "0xb3ad06d871e3961e26923e080876f981f81e817e4c5529a10b16c9f5ca97ac62",
      "s": "0x5e59548fd3387225a92404f650de250b298964e840780a0ec72f235fddc3b435",
      "v": 28,
      "creates": null,
      "raw": "0xf86d07850d98b2eef08252089432be343b94f860124dc4fee278fdcbd38c102d8889d8d7225bc29a880000801ca0b3ad06d871e3961e26923e080876f981f81e817e4c5529a10b16c9f5ca97ac62a05e59548fd3387225a92404f650de250b298964e840780a0ec72f235fddc3b435",
      "networkId": 0,
      "chainId": 0
    },
    {
      "hash": "0x840a168ac05c42a502930294c1f58b146f384e3280f7695ae671e48f8b75832b",
      "blockHash": "0xaa89d9bd1ee93bf6ea4bdbeac7650a4b6cdbcc15045cbc4e92e1baba89cf2d91",
      "blockNumber": 77807,
      "transactionIndex": 1,
      "confirmations": null,
      "from": "0x55eeb8fb7dDf70493b2B210204f5134eFb734Fe6",
      "gasPrice": {
        "_hex": "0xd98b2eef0"
      },
      "gasLimit": {
        "_hex": "0x5208"
      },
      "to": "0x32Be343B94f860124dC4fEe278FDCBD38C102D88",
      "value": {
        "_hex": "0x8ac2c7ad55e10000"
      },
      "nonce": 1,
      "data": "0x",
      "r": "0x08f20048263aaf5fb15e29c41d432fe1f56d32ccca8cac2c52a9d53502eff9c6",
      "s": "0x61e0dd366fa5f782e82d19050b5d34b2e8242d06a451d7b6d5c282d1c74efb76",
      "v": 27,
      "creates": null,
      "raw": "0xf86c01850d98b2eef08252089432be343b94f860124dc4fee278fdcbd38c102d88888ac2c7ad55e10000801ba008f20048263aaf5fb15e29c41d432fe1f56d32ccca8cac2c52a9d53502eff9c6a061e0dd366fa5f782e82d19050b5d34b2e8242d06a451d7b6d5c282d1c74efb76",
      "networkId": 0,
      "chainId": 0
    },
    {
      "hash": "0x13e551ddf6610ff5153f3354a910c9aa756c1d33707b89645f3ebee179159803",
      "blockHash": "0xaa89d9bd1ee93bf6ea4bdbeac7650a4b6cdbcc15045cbc4e92e1baba89cf2d91",
      "blockNumber": 77807,
      "transactionIndex": 2,
      "confirmations": null,
      "from": "0x4c74B6F32c9680aCB5Fe0e72B7Aa95C612540A04",
      "gasPrice": {
        "_hex": "0xd98b2eef0"
      },
      "gasLimit": {
        "_hex": "0x5208"
      },
      "to": "0x32Be343B94f860124dC4fEe278FDCBD38C102D88",
      "value": {
        "_hex": "0x2b5df53bf7d810000"
      },
      "nonce": 20,
      "data": "0x",
      "r": "0x121819f115a8df2a72de4e140e7b21cc22719362a9633105a029c61c44433d35",
      "s": "0x1cacbafa3742bfdda919714765b9588e2773af771e3161354e1f1a5af7fa8a69",
      "v": 27,
      "creates": null,
      "raw": "0xf86d14850d98b2eef08252089432be343b94f860124dc4fee278fdcbd38c102d888902b5df53bf7d810000801ba0121819f115a8df2a72de4e140e7b21cc22719362a9633105a029c61c44433d35a01cacbafa3742bfdda919714765b9588e2773af771e3161354e1f1a5af7fa8a69",
      "networkId": 0,
      "chainId": 0
    },
    {
      "hash": "0x5c21bc35b6ad71971ad381102c37554cd52b18faa248ff125af8af214ee31869",
      "blockHash": "0xaa89d9bd1ee93bf6ea4bdbeac7650a4b6cdbcc15045cbc4e92e1baba89cf2d91",
      "blockNumber": 77807,
      "transactionIndex": 3,
      "confirmations": null,
      "from": "0xa6BDc31c431B8F97848c9D60cbbe9660dc450eB7",
      "gasPrice": {
        "_hex": "0xd98b2eef0"
      },
      "gasLimit": {
        "_hex": "0x5208"
      },
      "to": "0x32Be343B94f860124dC4fEe278FDCBD38C102D88",
      "value": {
        "_hex": "0x455f362b10ecfc00"
      },
      "nonce": 21,
      "data": "0x",
      "r": "0x2155c772cf65172d81c25b26623bc723e529e696da624368363b24f7fb9adf6d",
      "s": "0x19de3f5db05f38b7d31f518ccb84af8c8a80759c0186e4060dc263ed6859e97e",
      "v": 28,
      "creates": null,
      "raw": "0xf86c15850d98b2eef08252089432be343b94f860124dc4fee278fdcbd38c102d8888455f362b10ecfc00801ca02155c772cf65172d81c25b26623bc723e529e696da624368363b24f7fb9adf6da019de3f5db05f38b7d31f518ccb84af8c8a80759c0186e4060dc263ed6859e97e",
      "networkId": 0,
      "chainId": 0
    }
  ]
}