{
  "hash": "0x15b34c219d312f48af89957796461e79fdedcee68278a93a31540833825bc44e",
  "parentHash": "0xed63d24214449d194ac6a2a06b131db946c99f322b4457b751debed5e5a00f49",
  "number": 61285,
  "timestamp": 1439169888,
  "nonce": "0x5cd3070f5d6abc10",
  "difficulty": 1735396962013,
  "gasLimit": {
    "_hex": "0x2fefd8"
  },
  "gasUsed": {
    "_hex": "0x5208"
  },
  "miner": "0x47ff6576639c2e94762eA5443978D7681C0E78DC",
  "extraData": "0x476574682f76312e302e312f6c696e75782f676f312e342e32",
  "transactions": [
    {
      "hash": "0xd94e8691e4cf606be552edd0228764d403b2cc632bc4a65c18a84703b7c48f72",
      "blockHash": "0x15b34c219d312f48af89957796461e79fdedcee68278a93a31540833825bc44e",
      "blockNumber": 61285,
      "transactionIndex": 0,
      "confirmations": null,
      "from": "0x30beD8049947963394D93412326225E4e3123601",
      "gasPrice": {
        "_hex": "0xd02560467"
      },
      "gasLimit": {
        "_hex": "0x5208"
      },
      "to": "0x32Be343B94f860124dC4fEe278FDCBD38C102D88",
      "value": {
        "_hex": "0xac117b2578e58000"
      },
      "nonce": 2,
      "data": "0x",
      "r": "0x4428b91011b87358957bc25dce1a0c964dfc35eae51249803e5283f58f369d47",
      "s": "0x5b2e90e7cc00047dd562e0cdd2732f86d1a9641407de3f6e980b45e73e12809f",
      "v": 28,
      "creates": null,
      "raw": "0xf86c02850d025604678252089432be343b94f860124dc4fee278fdcbd38c102d8888ac117b2578e58000801ca04428b91011b87358957bc25dce1a0c964dfc35eae51249803e5283f58f369d47a05b2e90e7cc00047dd562e0cdd2732f86d1a9641407de3f6e980b45e73e12809f",
      "networkId": 0,
      "chainId": 0
    }
  ]
}