{
  "hash": "0x13a95ebefbedb1a4389a016e8fa53bb0ad1397324ba522725fd93b68a7c15155",
  "parentHash": "0x17ee8c277d6d2a4eec8a1bb2bdd7163adfcc28bfa80055db2434345bdaec5d03",
  "number": 116014,
  "timestamp": 1440066914,
  "nonce": "0x4125e09894623d01",
  "difficulty": 4598219147200,
  "gasLimit": {
    "_hex": "0x2fefd8"
  },
  "gasUsed": {
    "_hex": "0xf618"
  },
  "miner": "0x87cD3b7f4DBBFE553DB92Ac1C97c6C24231c5D26",
  "extraData": "0x476574682f76312e302e312f6c696e75782f676f312e342e32",
  "transactions": [
    {
      "hash": "0xbafcf6da7878856837341662bdb997d162205242629bfb845e53aaf740d68a51",
      "blockHash": "0x13a95ebefbedb1a4389a016e8fa53bb0ad1397324ba522725fd93b68a7c15155",
      "blockNumber": 116014,
      "transactionIndex": 0,
      "confirmations": null,
      "from": "0x4D67f4F0Db45b3B5a3424B39ed8d972F710381D5",
      "gasPrice": {
        "_hex": "0xcab2d685d"
      },
      "gasLimit": {
        "_hex": "0x5208"
      },
      "to": "0x32Be343B94f860124dC4fEe278FDCBD38C102D88",
      "value": {
        "_hex": "0x2f9dfebe6fda3a000"
      },
      "nonce": 47,
      "data": "0x",
      "r": "0x1b6d587231f6a1949d45945c5f515556d7cfcab579af19442f86bc91de48109e",
      "s": "0x0049adff3025967af65cfb470ba559fa419458c094fe59358a7a08d48aee52f5",
      "v": 28,
      "creates": null,
      "raw": "0xf86c2f850cab2d685d8252089432be343b94f860124dc4fee278fdcbd38c102d888902f9dfebe6fda3a000801ca01b6d587231f6a1949d45945c5f515556d7cfcab579af19442f86bc91de48109e9f49adff3025967af65cfb470ba559fa419458c094fe59358a7a08d48aee52f5",
      "networkId": 0,
      "chainId": 0
    },
    {
      "hash": "0x6ff7f89d1ebf6fc10e3f0137fe3ae8101c3071edf8a1d1ed82c93ff0ae3feccc",
      "blockHash": "0x13a95ebefbedb1a4389a016e8fa53bb0ad1397324ba522725fd93b68a7c15155",
      "blockNumber": 116014,
      "transactionIndex": 1,
      "confirmations": null,
      "from": "0x65d6F6040D1B3E8E8bFD5F70B46A2dB2ADBFca9a",
      "gasPrice": {
        "_hex": "0xba43b7400"
      },
      "gasLimit": {
        "_hex": "0x5208"
      },
      "to": "0xC47Aaa860008be6f65B58c6C6E02a84e666EfE31",
      "value": {
        "_hex": "0x41896cf8a07e574f0"
      },
      "nonce": 5,
      "data": "0x",
      "r": "0x0511eaffc69aa9e26e72b0985eb83e57f588d3bfacc3327170372223bb7cefd6",
      "s": "0x3ecff39256027c3a0ba64d423f5dd7d39643cb1e5f1c9bcf04391aa2d8d22fd1",
      "v": 28,
      "creates": null,
      "raw": "0xf86d05850ba43b740082520894c47aaa860008be6f65b58c6c6e02a84e666efe3189041896cf8a07e574f0801ca00511eaffc69aa9e26e72b0985eb83e57f588d3bfacc3327170372223bb7cefd6a03ecff39256027c3a0ba64d423f5dd7d39643cb1e5f1c9bcf04391aa2d8d22fd1",
      "networkId": 0,
      "chainId": 0
    },
    {
      "hash": "0x99b44b72c59f256cceca225c24da0e03af37e7470005049b21dbcbcb20e24128",
      "blockHash": "0x13a95ebefbedb1a4389a016e8fa53bb0ad1397324ba522725fd93b68a7c15155",
      "blockNumber": 116014,
      "transactionIndex": 2,
      "confirmations": null,
      "from": "0x76899c112A85c5a7d27Ff89f1b97112e900aeEBc",
      "gasPrice": {
        "_hex": "0xba43b7400"
      },
      "gasLimit": {
        "_hex": "0x5208"
      },
      "to": "0xC47Aaa860008be6f65B58c6C6E02a84e666EfE31",
      "value": {
        "_hex": "0xdde4294fd97b6000"
      },
      "nonce": 14,
      "data": "0x",
      "r": "0x884ef2b229d72dae3f78d7a55ca86db3f99adfab1ceb01b4701ba120c2406774",
      "s": "0x27eaf9b4926ecba731550174349e7b9ffd6e60696fbb44d79b2c9260e71f461a",
      "v": 27,
      "creates": null,
      "raw": "0xf86c0e850ba43b740082520894c47aaa860008be6f65b58c6c6e02a84e666efe3188dde4294fd97b6000801ba0884ef2b229d72dae3f78d7a55ca86db3f99adfab1ceb01b4701ba120c2406774a027eaf9b4926ecba731550174349e7b9ffd6e60696fbb44d79b2c9260e71f461a",
      "networkId": 0,
      "chainId": 0
    }
  ]
}