{
  "hash": "0x2032cfd457165da6a3551e97dca4032adeb2280ea75ddd038f9bc3fadb6a7ddf",
  "parentHash": "0x82fb81fdeefeaf013c1845b5ed49c97d53ef0112e0b0df4caed6e61bf69890b7",
  "number": 49772,
  "timestamp": 1438978844,
  "nonce": "0x15f58334b5c0548b",
  "difficulty": 1492948703168,
  "gasLimit": {
    "_hex": "0x3e6d5"
  },
  "gasUsed": {
    "_hex": "0x5208"
  },
  "miner": "0x2134e2a2b718DCa96580ECAC31E653Ea1fdd58DA",
  "extraData": "0x476574682f76312e302e312f77696e646f77732f676f312e342e32",
  "transactions": [
    {
      "hash": "0xa3c5f75b8c27d5c4cec5741365050c2205149d78943c40feadadec6362ad8f09",
      "blockHash": "0x2032cfd457165da6a3551e97dca4032adeb2280ea75ddd038f9bc3fadb6a7ddf",
      "blockNumber": 49772,
      "transactionIndex": 0,
      "confirmations": null,
      "from": "0x458F183347F45a4001807728A89F31E9Da9D4A58",
      "gasPrice": {
        "_hex": "0x10731bf1e2f"
      },
      "gasLimit": {
        "_hex": "0x15f90"
      },
      "to": "0x7fa165177F28D171bA7C17f765c1904344Ec64CB",
      "value": {
        "_hex": "0xde0b6b3a7640000"
      },
      "nonce": 0,
      "data": "0x",
      "r": "0xadbc00de1b179d6a05f3411a3d4458a223e2b4d82ae82719bd1328672041eff3",
      "s": "0x25c80f84630b07e7315858d791d7a5176ee165b46d99057704f70aaa14d2dfb3",
      "v": 28,
      "creates": null,
      "raw": "0xf86e8086010731bf1e2f83015f90947fa165177f28d171ba7c17f765c1904344ec64cb880de0b6b3a7640000801ca0adbc00de1b179d6a05f3411a3d4458a223e2b4d82ae82719bd1328672041eff3a025c80f84630b07e7315858d791d7a5176ee165b46d99057704f70aaa14d2dfb3",
      "networkId": 0,
      "chainId": 0
    }
  ]
}