{
  "hash": "0x3b5c7e437002655dabcf60804f6cd80bc1e51f53b9785f6b4ddb7d64389e3a74",
  "parentHash": "0x33b844f4342422b5a77e976bd2afda1ef100b39cd8b3385877765b20d350f7ca",
  "number": 52212,
  "timestamp": 1439018240,
  "nonce": "0xac7ea918458d9363",
  "difficulty": 1550454679524,
  "gasLimit": {
    "_hex": "0x115871"
  },
  "gasUsed": {
    "_hex": "0x5208"
  },
  "miner": "0x5Bf5E9cf9B456d6591073513De7Fd69A9BEF04Bc",
  "extraData": "0x476574682f76312e302e312f77696e646f77732f676f312e342e32",
  "transactions": [
    {
      "hash": "0xab1e39e72766aace43ce5c3f029466a45bd7a667530160310834151322238c3a",
      "blockHash": "0x3b5c7e437002655dabcf60804f6cd80bc1e51f53b9785f6b4ddb7d64389e3a74",
      "blockNumber": 52212,
      "transactionIndex": 0,
      "confirmations": null,
      "from": "0x9aB9F7a4B85412bfbe2f4F63b1C98808851C4F32",
      "gasPrice": {
        "_hex": "0xdb0370907"
      },
      "gasLimit": {
        "_hex": "0x15f90"
      },
      "to": "0xfBC1aB9a735012CF8Aa4f8738c5811CDbF39a0C5",
      "value": {
        "_hex": "0x2710"
      },
      "nonce": 2,
      "data": "0x",
      "r": "0x04975d2e2c48b29dcc06c9fc80533203399f8f3c09892472052fcbb659b3f9fe",
      "s": "0x38b6e41d98eb6f3053ce67bbaeb5ca1872e42b9df027286d52c9240cfa267cf3",
      "v": 27,
      "creates": null,
      "raw": "0xf86702850db037090783015f9094fbc1ab9a735012cf8aa4f8738c5811cdbf39a0c5822710801ba004975d2e2c48b29dcc06c9fc80533203399f8f3c09892472052fcbb659b3f9fea038b6e41d98eb6f3053ce67bbaeb5ca1872e42b9df027286d52c9240cfa267cf3",
      "networkId": 0,
      "chainId": 0
    }
  ]
}