{
  "hash": "0x6c12673ae8b7a01a1f6f9dbb1335047f09fb32324bef2d145ca1037e92ade107",
  "parentHash": "0x4603a456a997be7f43be95660b95d7ad54b055cc465cce8fcdc48d6a646b1182",
  "number": 52546,
  "timestamp": 1439023361,
  "nonce": "0x52d6ee315f055abb",
  "difficulty": 1564079507506,
  "gasLimit": {
    "_hex": "0x1537f0"
  },
  "gasUsed": {
    "_hex": "0xf4240"
  },
  "miner": "0xf8E0CA3Ed80bd541b94BEdCf259e8CF2141A9523",
  "extraData": "0x476574682f76312e302e312f77696e646f77732f676f312e342e32",
  "transactions": [
    {
      "hash": "0xdd314daf12db129012fd481fc85263fafd3f7410e5b0a00fde4fda31030bb289",
      "blockHash": "0x6c12673ae8b7a01a1f6f9dbb1335047f09fb32324bef2d145ca1037e92ade107",
      "blockNumber": 52546,
      "transactionIndex": 0,
      "confirmations": null,
      "from": "0x54dAeb3E8a6BBC797E4aD2b0339f134b186e4637",
      "gasPrice": {
        "_hex": "0xe7d27df17"
      },
      "gasLimit": {
        "_hex": "0x7a120"
      },
      "to": "0xBAA54d6E90c3F4d7Ebec11bD180134C7eD8eBb52",
      "value": {
        "_hex": "0x16345785d8a0000"
      },
      "nonce": 697,
      "data": "0x",
      "r": "0x86883e9358734613dedd9e44be6ebba458c5270f032bca8840a7fb349c2b975b",
      "s": "0x4612b2ce66facad1ed33101d322612ab646572bdeb0bfeae65b6db1f22bdfbe2",
      "v": 27,
      "creates": null,
      "raw": "0xf86f8202b9850e7d27df178307a12094baa54d6e90c3f4d7ebec11bd180134c7ed8ebb5288016345785d8a0000801ba086883e9358734613dedd9e44be6ebba458c5270f032bca8840a7fb349c2b975ba04612b2ce66facad1ed33101d322612ab646572bdeb0bfeae65b6db1f22bdfbe2",
      "networkId": 0,
      "chainId": 0
    },
    {
      "hash": "0xe1346b88f3b64352a7d1a4a6178f7bb200e35e1e8ea8dedbf63e1d00f9e6dc46",
      "blockHash": "0x6c12673ae8b7a01a1f6f9dbb1335047f09fb32324bef2d145ca1037e92ade107",
      "blockNumber": 52546,
      "transactionIndex": 1,
      "confirmations": null,
      "from": "0x54dAeb3E8a6BBC797E4aD2b0339f134b186e4637",
      "gasPrice": {
        "_hex": "0xe7d27df17"
      },
      "gasLimit": {
        "_hex": "0x7a120"
      },
      "to": "0xBAA54d6E90c3F4d7Ebec11bD180134C7eD8eBb52",
      "value": {
        "_hex": "0x16345785d8a0000"
      },
      "nonce": 698,
      "data": "0x",
      "r": "0x46fd3ec38c1bafbbd35bfe46bba26e68a1b685a47a4ddc090d8ee8b93fff76de",
      "s": "0x23b4c8b9e9b9237145be68416831ac1966e9a3581351f6f950ebb75ba6728a07",
      "v": 28,
      "creates": null,
      "raw": "0xf86f8202ba850e7d27df178307a12094baa54d6e90c3f4d7ebec11bd180134c7ed8ebb5288016345785d8a0000801ca046fd3ec38c1bafbbd35bfe46bba26e68a1b685a47a4ddc090d8ee8b93fff76dea023b4c8b9e9b9237145be68416831ac1966e9a3581351f6f950ebb75ba6728a07",
      "networkId": 0,
      "chainId": 0
    }
  ]
}