{
  "hash": "0x9ad9c8d87cd663fc37df378672b94afe15e7c93f66239cc75f695de8c6a32750",
  "parentHash": "0x8e003f94de7aab4c53859127b40d2d7e287946d14c226128b9c4311a6830f954",
  "number": 122052,
  "timestamp": 1440187300,
  "nonce": "0x939cac2d4c20dcaa",
  "difficulty": 4466606669983,
  "gasLimit": {
    "_hex": "0x2fefd8"
  },
  "gasUsed": {
    "_hex": "0xa410"
  },
  "miner": "0xe6A7a1d47ff21B6321162AEA7C6CB457D5476Bca",
  "extraData": "0xd783010002844765746887676f312e342e32856c696e7578",
  "transactions": [
    {
      "hash": "0x970a353869445098b51cbbbda4c083c1362b84ce1415a38585a44f9cd3909e04",
      "blockHash": "0x9ad9c8d87cd663fc37df378672b94afe15e7c93f66239cc75f695de8c6a32750",
      "blockNumber": 122052,
      "transactionIndex": 0,
      "confirmations": null,
      "from": "0x120A270bbC009644e35F0bB6ab13f95b8199c4ad",
      "gasPrice": {
        "_hex": "0xbcf301097"
      },
      "gasLimit": {
        "_hex": "0x3d090"
      },
      "to": "0x5DC7667fD89E4CA9860a0d9663A55c5df723eb00",
      "value": {
        "_hex": "0xe4979638242ad400"
      },
      "nonce": 989,
      "data": "0x",
      "r": "0xbc81c9d4126fbf2cb5200e74bb24c3f5d16b6bcac309de9fd9a95ab026acb937",
      "s": "0x5a478c518c60032d1fdde01cb70c3cd510c8f70e4b6aeaf491c06375592fd04d",
      "v": 27,
      "creates": null,
      "raw": "0xf86f8203dd850bcf3010978303d090945dc7667fd89e4ca9860a0d9663a55c5df723eb0088e4979638242ad400801ba0bc81c9d4126fbf2cb5200e74bb24c3f5d16b6bcac309de9fd9a95ab026acb937a05a478c518c60032d1fdde01cb70c3cd510c8f70e4b6aeaf491c06375592fd04d",
      "networkId": 0,
      "chainId": 0
    },
    {
      "hash": "0xe664edefa5fc626b08965c1460ec7e820a5c517423f6d494987e3ba3d82d3d18",
      "blockHash": "0x9ad9c8d87cd663fc37df378672b94afe15e7c93f66239cc75f695de8c6a32750",
      "blockNumber": 122052,
      "transactionIndex": 1,
      "confirmations": null,
      "from": "0x8674c218F0351a62C3BA78C34FD2182A93Da94E2",
      "gasPrice": {
        "_hex": "0xba43b7400"
      },
      "gasLimit": {
        "_hex": "0x15f90"
      },
      "to": "0x0396d43A2B6C2795509Cb88DA53e6c4b41b8D55e",
      "value": {
        "_hex": "0x1a5c0893441821219"
      },
      "nonce": 90,
      "data": "0x",
      "r": "0x7226f4e8ab7f16a6cc2b1dcbc24beb52ddf3a9d9f47ab77b1124ab59f334291d",
      "s": "0x75105f4aeacc6f5282274082874689d07c233fb8e2b54c3d10261a8f3d7429cf",
      "v": 27,
      "creates": null,
      "raw": "0xf86e5a850ba43b740083015f90940396d43a2b6c2795509cb88da53e6c4b41b8d55e8901a5c0893441821219801ba07226f4e8ab7f16a6cc2b1dcbc24beb52ddf3a9d9f47ab77b1124ab59f334291da075105f4aeacc6f5282274082874689d07c233fb8e2b54c3d10261a8f3d7429cf",
      "networkId": 0,
      "chainId": 0
    }
  ]
}