{
  "hash": "0xea6da96920ea594c1955f35c0265c046b7686584671a861a7cfe2389468f9938",
  "parentHash": "0xc88d1694fc04dcf21fdce25f8b604628b368d95bef59ba963810b32a7d564e6a",
  "number": 68026,
  "timestamp": 1439281451,
  "nonce": "0x63212d6d3e10819e",
  "difficulty": 1952449907780,
  "gasLimit": {
    "_hex": "0x2fefd8"
  },
  "gasUsed": {
    "_hex": "0xa674"
  },
  "miner": "0x2c640E5e3DE20DECa76ee10c5Fd6ECd074EFb3e8",
  "extraData": "0x476574682f76312e302e312f77696e646f77732f676f312e342e32",
  "transactions": [
    {
      "hash": "0xa03017a69a30bc6ac58a49576acaf54bf0813d04cee2ebe37f16cf752ae8c1de",
      "blockHash": "0xea6da96920ea594c1955f35c0265c046b7686584671a861a7cfe2389468f9938",
      "blockNumber": 68026,
      "transactionIndex": 0,
      "confirmations": null,
      "from": "0xb6Ad95318E9C1727be55974BBBBAcf7196923E4c",
      "gasPrice": {
        "_hex": "0x11381596fba"
      },
      "gasLimit": {
        "_hex": "0x15f90"
      },
      "to": "0x40B9b889A21Ff1534d018D71Dc406122EBcf3F5A",
      "value": {
        "_hex": "0xde0b6b3a7640000"
      },
      "nonce": 1,
      "data": "0x",
      "r": "0x73f5436a77937a011842e0d20e0a4034269267cee6161295de00b5fe439afabb",
      "s": "0x79be269138100eb2283c8d2a4ad8f59de4394b4afb246d6977de17c78277ea9a",
      "v": 27,
      "creates": null,
      "raw": "0xf86e0186011381596fba83015f909440b9b889a21ff1534d018d71dc406122ebcf3f5a880de0b6b3a7640000801ba073f5436a77937a011842e0d20e0a4034269267cee6161295de00b5fe439afabba079be269138100eb2283c8d2a4ad8f59de4394b4afb246d6977de17c78277ea9a",
      "networkId": 0,
      "chainId": 0
    },
    {
      "hash": "0x07abe9f582786225375ae27bee8d0d2a5fe8fd21257066391518d95d22661c52",
      "blockHash": "0xea6da96920ea594c1955f35c0265c046b7686584671a861a7cfe2389468f9938",
      "blockNumber": 68026,
      "transactionIndex": 1,
      "confirmations": null,
      "from": "0xB01e389b28a31D8e4995BDD7d7c81beeab1E4119",
      "gasPrice": {
        "_hex": "0x110c8f7d8de"
      },
      "gasLimit": {
        "_hex": "0xc350"
      },
      "to": "0x2910543Af39abA0Cd09dBb2D50200b3E800A63D2",
      "value": {
        "_hex": "0x3627e8f712373c0000"
      },
      "nonce": 0,
      "data": "0x454e41514456454152",
      "r": "0xbb8e20fdeae685017ffb62c9f8ccaba5bd977b435e6610279413dc3d5987fe42",
      "s": "0x977f267d66bdf37cc3649c7c352b16fef32d5e9bf7cd3626dee3d5f4502a2837",
      "v": 27,
      "creates": null,
      "raw": "0xf87780860110c8f7d8de82c350942910543af39aba0cd09dbb2d50200b3e800a63d2893627e8f712373c000089454e415144564541521ba0bb8e20fdeae685017ffb62c9f8ccaba5bd977b435e6610279413dc3d5987fe42a0977f267d66bdf37cc3649c7c352b16fef32d5e9bf7cd3626dee3d5f4502a2837",
      "networkId": 0,
      "chainId": 0
    }
  ]
}