{
  "hash": "0x9d463d8ef88f3ab1de486e5120a612b33912f9f98702f4ef224cd6a26f7cf0f6",
  "parentHash": "0x2120176bbc82fa5f8932a6ad80cd9c3c6b405c45aa319cbdf4ca2ddc2a75d6d1",
  "number": 79676,
  "timestamp": 1439473493,
  "nonce": "0xd196ab0f8ed12f17",
  "difficulty": 2344955641820,
  "gasLimit": {
    "_hex": "0x2fefd5"
  },
  "gasUsed": {
    "_hex": "0xa410"
  },
  "miner": "0xbb7B8287f3F0a933474a79eAe42CBCa977791171",
  "extraData": "0x476574682f4c5649562f76312e302e312f6c696e75782f676f312e342e32",
  "transactions": [
    {
      "hash": "0x05a08eb7eb05d2634406c5f2c41ed2dd4c934d0062585a586afeb08f5f512490",
      "blockHash": "0x9d463d8ef88f3ab1de486e5120a612b33912f9f98702f4ef224cd6a26f7cf0f6",
      "blockNumber": 79676,
      "transactionIndex": 0,
      "confirmations": null,
      "from": "0xFD7c9117BbEB649d9b37B3D3C9917f7c12f526B3",
      "gasPrice": {
        "_hex": "0xccdb05121"
      },
      "gasLimit": {
        "_hex": "0x5208"
      },
      "to": "0x32Be343B94f860124dC4fEe278FDCBD38C102D88",
      "value": {
        "_hex": "0x1043403226a7460000"
      },
      "nonce": 12,
      "data": "0x",
      "r": "0x20a332c9285a4dc478e9662aa6999d4b24d583b4cd8f3582e96fe0d6cdf4a17e",
      "s": "0x0d12ea11e16c6a42e6f28d5c436a872ccb1aeae8e802f4df27de1a2cd68bcab3",
      "v": 28,
      "creates": null,
      "raw": "0xf86d0c850ccdb051218252089432be343b94f860124dc4fee278fdcbd38c102d88891043403226a7460000801ca020a332c9285a4dc478e9662aa6999d4b24d583b4cd8f3582e96fe0d6cdf4a17ea00d12ea11e16c6a42e6f28d5c436a872ccb1aeae8e802f4df27de1a2cd68bcab3",
      "networkId": 0,
      "chainId": 0
    },
    {
      "hash": "0xb2f05520bc09c8fd22fac86dca5839353a7f64ecc43e1b0926e8ea0d0eeecf42",
      "blockHash": "0x9d463d8ef88f3ab1de486e5120a612b33912f9f98702f4ef224cd6a26f7cf0f6",
      "blockNumber": 79676,
      "transactionIndex": 1,
      "confirmations": null,
      "from": "0x8F79f76381Aad7B98C19aF55eE75fdfEeb012211",
      "gasPrice": {
        "_hex": "0xccdb05121"
      },
      "gasLimit": {
        "_hex": "0x5208"
      },
      "to": "0x32Be343B94f860124dC4fEe278FDCBD38C102D88",
      "value": {
        "_hex": "0x67370d339fbb28000"
      },
      "nonce": 16,
      "data": "0x",
      "r": "0x68c2a2228c06bfe4a322607122e9c0a2a0899d88c5042507b3374cdc77e0ea6d",
      "s": "0x61aeffd660dfe5939250fa9ddde6dd500bc1c8e95532c35f3bf99703da626bdf",
      "v": 28,
      "creates": null,
      "raw": "0xf86d10850ccdb051218252089432be343b94f860124dc4fee278fdcbd38c102d8889067370d339fbb28000801ca068c2a2228c06bfe4a322607122e9c0a2a0899d88c5042507b3374cdc77e0ea6da061aeffd660dfe5939250fa9ddde6dd500bc1c8e95532c35f3bf99703da626bdf",
      "networkId": 0,
      "chainId": 0
    }
  ]
}