{
  "hash": "0xa7664e2220a0265f2e8686da414fe78ec69037d091b9ac27205464dfa50d14ea",
  "parentHash": "0xa9988f3acee2d083630a3da378a062717535234a7895aeaa5f69e0865695c539",
  "number": 82929,
  "timestamp": 1439527152,
  "nonce": "0x9892e38c841adcd0",
  "difficulty": 2410202409301,
  "gasLimit": {
    "_hex": "0x2fefd8"
  },
  "gasUsed": {
    "_hex": "0x5208"
  },
  "miner": "0x9D49F602b0fdb924Bd63DDE2Bd0907E4A07c63a7",
  "extraData": "0x476574682f76312e302e312f6c696e75782f676f312e342e32",
  "transactions": [
    {
      "hash": "0x92789f9f9a94d95456642babb43d95438fa298ee45bc381503a35a533bba79d0",
      "blockHash": "0xa7664e2220a0265f2e8686da414fe78ec69037d091b9ac27205464dfa50d14ea",
      "blockNumber": 82929,
      "transactionIndex": 0,
      "confirmations": null,
      "from": "0x120A270bbC009644e35F0bB6ab13f95b8199c4ad",
      "gasPrice": {
        "_hex": "0xcef8cd761"
      },
      "gasLimit": {
        "_hex": "0x3d090"
      },
      "to": "0xbaB22d0E2b0e2A75CA77773d8e8420241176789B",
      "value": {
        "_hex": "0x59121bdc483b9ec00"
      },
      "nonce": 406,
      "data": "0x",
      "r": "0x1f36036959b76888ab231953c943c1ffeb43cc949296d3ec2a92a3e9fb1521ea",
      "s": "0x3cfac7e6cb5f98bf5270328527313302fafabf56e3895d1744dedd0de0531e16",
      "v": 28,
      "creates": null,
      "raw": "0xf870820196850cef8cd7618303d09094bab22d0e2b0e2a75ca77773d8e8420241176789b89059121bdc483b9ec00801ca01f36036959b76888ab231953c943c1ffeb43cc949296d3ec2a92a3e9fb1521eaa03cfac7e6cb5f98bf5270328527313302fafabf56e3895d1744dedd0de0531e16",
      "networkId": 0,
      "chainId": 0
    }
  ]
}