{
  "hash": "0xa46dfb7bc785987a8bb8d8b52d4f25706f8383d4145915ef71df5f65fb7b7d6b",
  "parentHash": "0x756259f29d5aa4880f439907aeeb1f998ec0b880a2718f4c904fee6dc3b544ab",
  "number": 108865,
  "timestamp": 1439947427,
  "nonce": "0x8cfba35963e0f3c4",
  "difficulty": 4376408195168,
  "gasLimit": {
    "_hex": "0x2fefd8"
  },
  "gasUsed": {
    "_hex": "0x5208"
  },
  "miner": "0xe6A7a1d47ff21B6321162AEA7C6CB457D5476Bca",
  "extraData": "0x476574682f76312e302e312d38326566323666362f6c696e75782f676f312e34",
  "transactions": [
    {
      "hash": "0x0ad43242fe2c31f5bd7203eb067f4cc73e2066671c2923682ba8f0dba0b7ec07",
      "blockHash": "0xa46dfb7bc785987a8bb8d8b52d4f25706f8383d4145915ef71df5f65fb7b7d6b",
      "blockNumber": 108865,
      "transactionIndex": 0,
      "confirmations": null,
      "from": "0x4959f006CBae0C011BCEDc07F76ee86288B67A88",
      "gasPrice": {
        "_hex": "0xd64b2e4c9"
      },
      "gasLimit": {
        "_hex": "0x15f90"
      },
      "to": "0xd6a11e232034E46794bf55A927B2bdf1e73e6cEe",
      "value": {
        "_hex": "0xde0b6b3a7640000"
      },
      "nonce": 1,
      "data": "0x",
      "r": "0xcf65717e57ca79e3575205d49e7223a096345165c8bdedf8e0b5fe214492dee8",
      "s": "0x2af0d0378bd297a8642ac8507156fcbe249d090877334ab8ba867208ff355247",
      "v": 27,
      "creates": null,
      "raw": "0xf86d01850d64b2e4c983015f9094d6a11e232034e46794bf55a927b2bdf1e73e6cee880de0b6b3a7640000801ba0cf65717e57ca79e3575205d49e7223a096345165c8bdedf8e0b5fe214492dee8a02af0d0378bd297a8642ac8507156fcbe249d090877334ab8ba867208ff355247",
      "networkId": 0,
      "chainId": 0
    }
  ]
}