{
  "hash": "0xa816a464e9660b47edce0153f51c5f91b8016aaee586c544cc6860c321ba1590",
  "parentHash": "0x32f54e02940756ff1f0c81e6c3e9e64695a87e760b040307929744de4a2a9082",
  "number": 68349,
  "timestamp": 1439286447,
  "nonce": "0x337ef533e9487743",
  "difficulty": 2015333572033,
  "gasLimit": {
    "_hex": "0x2fefd8"
  },
  "gasUsed": {
    "_hex": "0x5208"
  },
  "miner": "0x0193d941b50d91BE6567c7eE1C0Fe7AF498b4137",
  "extraData": "0x4a5ace9e4e",
  "transactions": [
    {
      "hash": "0x7a587446002e3d8da644c01f0ec7b086b163cbd0c8bb77027e552109142fc084",
      "blockHash": "0xa816a464e9660b47edce0153f51c5f91b8016aaee586c544cc6860c321ba1590",
      "blockNumber": 68349,
      "transactionIndex": 0,
      "confirmations": null,
      "from": "0x6747f922385c9a6F9cfDf095F34345257DD597bE",
      "gasPrice": {
        "_hex": "0xba43b7400"
      },
      "gasLimit": {
        "_hex": "0x5208"
      },
      "to": "0x31A538002E5E3764176012ca69F27f4B9f917f1e",
      "value": {
        "_hex": "0x1fcbfa42bd6000"
      },
      "nonce": 55,
      "data": "0x",
      "r": "0x15ee5853e222dfc6aac52a1c4dafbfcdcaa6beb9e45f2485731432ac30daec48",
      "s": "0x09a62c2b9887b3dc0b97534772e671fc2b5288254bd5baf03cea0b50f493e41a",
      "v": 27,
      "creates": null,
      "raw": "0xf86b37850ba43b74008252089431a538002e5e3764176012ca69f27f4b9f917f1e871fcbfa42bd6000801ba015ee5853e222dfc6aac52a1c4dafbfcdcaa6beb9e45f2485731432ac30daec48a009a62c2b9887b3dc0b97534772e671fc2b5288254bd5baf03cea0b50f493e41a",
      "networkId": 0,
      "chainId": 0
    }
  ]
}