{
  "hash": "0xa1bc40f7d612f34491b2a5e70a91f5debe1394b4666a6fa662cb1b583ac62a2a",
  "parentHash": "0x84f4fad564060abe9d1adf9186633ff0911bd9b183c10258f4cd7f7081ae7cd6",
  "number": 95589,
  "timestamp": 1439726181,
  "nonce": "0x714724ff3435cc3b",
  "difficulty": 3637466823007,
  "gasLimit": {
    "_hex": "0x2fefd8"
  },
  "gasUsed": {
    "_hex": "0xf618"
  },
  "miner": "0x0eDEd3DA479d0beF8eeC92A76644D3f4E3C177f7",
  "extraData": "0x476574682f76312e302e312f6c696e75782f676f312e342e32",
  "transactions": [
    {
      "hash": "0x2e5747d4c85074bb1a1ba406175d6f4410ddf7952fbafb8a621cbf6382e2daaa",
      "blockHash": "0xa1bc40f7d612f34491b2a5e70a91f5debe1394b4666a6fa662cb1b583ac62a2a",
      "blockNumber": 95589,
      "transactionIndex": 0,
      "confirmations": null,
      "from": "0xa6BDc31c431B8F97848c9D60cbbe9660dc450eB7",
      "gasPrice": {
        "_hex": "0xcfbf01ff2"
      },
      "gasLimit": {
        "_hex": "0x5208"
      },
      "to": "0x32Be343B94f860124dC4fEe278FDCBD38C102D88",
      "value": {
        "_hex": "0x455f6868a180cc00"
      },
      "nonce": 119,
      "data": "0x",
      "r": "0x9bf4e83d2b53b5607de584557b1a728ca60f3d13fb6e5f64edd25bcdd7f4304b",
      "s": "0x42a35ad031fc9bf3c66025805e7d3c559dc92f80d4171e76ee12f4c727825d77",
      "v": 27,
      "creates": null,
      "raw": "0xf86c77850cfbf01ff28252089432be343b94f860124dc4fee278fdcbd38c102d8888455f6868a180cc00801ba09bf4e83d2b53b5607de584557b1a728ca60f3d13fb6e5f64edd25bcdd7f4304ba042a35ad031fc9bf3c66025805e7d3c559dc92f80d4171e76ee12f4c727825d77",
      "networkId": 0,
      "chainId": 0
    },
    {
      "hash": "0x4e82e638e157541f5e1d75ff39093a711c5eec8f0a7057d223d8b2fd982c36a2",
      "blockHash": "0xa1bc40f7d612f34491b2a5e70a91f5debe1394b4666a6fa662cb1b583ac62a2a",
      "blockNumber": 95589,
      "transactionIndex": 1,
      "confirmations": null,
      "from": "0xF87481A262E993a75F791E7859E71BaC36A606Eb",
      "gasPrice": {
        "_hex": "0xcfbf01ff2"
      },
      "gasLimit": {
        "_hex": "0x5208"
      },
      "to": "0x32Be343B94f860124dC4fEe278FDCBD38C102D88",
      "value": {
        "_hex": "0x7dc4352a82c30c000"
      },
      "nonce": 29,
      "data": "0x",
      "r": "0xd5c5fe8962a8541952c2b04eddf45fe56befe5f613fb034e23742cbdc2abe503",
      "s": "0x71e3a3fe3d44ba71a05d3fb5e740d547682c2ba928ef31b48836f5bb24093d5a",
      "v": 28,
      "creates": null,
      "raw": "0xf86d1d850cfbf01ff28252089432be343b94f860124dc4fee278fdcbd38c102d888907dc4352a82c30c000801ca0d5c5fe8962a8541952c2b04eddf45fe56befe5f613fb034e23742cbdc2abe503a071e3a3fe3d44ba71a05d3fb5e740d547682c2ba928ef31b48836f5bb24093d5a",
      "networkId": 0,
      "chainId": 0
    },
    {
      "hash": "0xf6e782354855434a9080f4cae988a76a0886cc0f0a865b59ad7f6ceae0cbf318",
      "blockHash": "0xa1bc40f7d612f34491b2a5e70a91f5debe1394b4666a6fa662cb1b583ac62a2a",
      "blockNumber": 95589,
      "transactionIndex": 2,
      "confirmations": null,
      "from": "0x007f7f58D3eb5b7510A301eCC749FC1fCDDBE14D",
      "gasPrice": {
        "_hex": "0xcc8ddf695"
      },
      "gasLimit": {
        "_hex": "0x15f90"
      },
      "to": "0xb1abce2918E21ddb93AA452731a12672A3d9F75a",
      "value": {
        "_hex": "0x4563918244f40000"
      },
      "nonce": 59,
      "data": "0x",
      "r": "0xca1f1552b30603eda8960f1f36b321ecc6ba0190ab7bf7172210e4fd79d39684",
      "s": "0x087839ced6c3828163434b1e03f10abe51c9cfc2ec53dde9e7c6ae2c009a0fc4",
      "v": 28,
      "creates": null,
      "raw": "0xf86d3b850cc8ddf69583015f9094b1abce2918e21ddb93aa452731a12672a3d9f75a884563918244f40000801ca0ca1f1552b30603eda8960f1f36b321ecc6ba0190ab7bf7172210e4fd79d39684a0087839ced6c3828163434b1e03f10abe51c9cfc2ec53dde9e7c6ae2c009a0fc4",
      "networkId": 0,
      "chainId": 0
    }
  ]
}