{
  "hash": "0x358a6ed1f3259af4bfeb9a4a8725182b945e581d564cedb3d57ab1be2cbc1840",
  "parentHash": "0x2136bf9643274854c295f343d4a13c781064601d8ac4b4f07be919feae921e3a",
  "number": 99828,
  "timestamp": 1439796238,
  "nonce": "0xb339db1b5d56cace",
  "difficulty": 3841865166124,
  "gasLimit": {
    "_hex": "0x2fefd8"
  },
  "gasUsed": {
    "_hex": "0x5208"
  },
  "miner": "0xe6A7a1d47ff21B6321162AEA7C6CB457D5476Bca",
  "extraData": "0x476574682f76312e302e312d38326566323666362f6c696e75782f676f312e34",
  "transactions": [
    {
      "hash": "0x324038959fdc59a2ed1ae2c6ffdd17c9dfd2838058cfbd4f70746b955c51d633",
      "blockHash": "0x358a6ed1f3259af4bfeb9a4a8725182b945e581d564cedb3d57ab1be2cbc1840",
      "blockNumber": 99828,
      "transactionIndex": 0,
      "confirmations": null,
      "from": "0xcf00A85f3826941e7A25BFcF9Aac575d40410852",
      "gasPrice": {
        "_hex": "0xcb5bea614"
      },
      "gasLimit": {
        "_hex": "0x15f90"
      },
      "to": "0xD9666150A9dA92d9108198a4072970805a8B3428",
      "value": {
        "_hex": "0x4563918244f40000"
      },
      "nonce": 22,
      "data": "0x",
      "r": "0x11a56b46f107a3134551e02444aed65e65e0b0f148c00d88d9e9db1ce4e61b9c",
      "s": "0x65f2e6ae7fcb4149a73d89e815f13f7e95c4496fe4343251ee51fbfb4778cc84",
      "v": 28,
      "creates": null,
      "raw": "0xf86d16850cb5bea61483015f9094d9666150a9da92d9108198a4072970805a8b3428884563918244f40000801ca011a56b46f107a3134551e02444aed65e65e0b0f148c00d88d9e9db1ce4e61b9ca065f2e6ae7fcb4149a73d89e815f13f7e95c4496fe4343251ee51fbfb4778cc84",
      "networkId": 0,
      "chainId": 0
    }
  ]
}