{
  "hash": "0x4ac1431105a290a062fb76b5fb4893ccbd61f1d7cf310852c04e99372cc4518b",
  "parentHash": "0x20248b684cdbb5517bd662c014b3ae24235a568cdc6c90d7d22f0eb85af6ce5b",
  "number": 90227,
  "timestamp": 1439636748,
  "nonce": "0x7899db9a505e5ba0",
  "difficulty": 3294707288789,
  "gasLimit": {
    "_hex": "0x2fefd8"
  },
  "gasUsed": {
    "_hex": "0xf618"
  },
  "miner": "0x458F183347F45a4001807728A89F31E9Da9D4A58",
  "extraData": "0x476574682f76312e302e312d38326566323666362f6c696e75782f676f312e34",
  "transactions": [
    {
      "hash": "0x5f295c8007275f835efbfcfc16d56bdc996fdf6a4ab88a140f39cb66d17cc5f2",
      "blockHash": "0x4ac1431105a290a062fb76b5fb4893ccbd61f1d7cf310852c04e99372cc4518b",
      "blockNumber": 90227,
      "transactionIndex": 0,
      "confirmations": null,
      "from": "0x90fba3C13F19F8cf72A3Bb9EE63C8f728F548654",
      "gasPrice": {
        "_hex": "0xd8fca6b04"
      },
      "gasLimit": {
        "_hex": "0x5208"
      },
      "to": "0x32Be343B94f860124dC4fEe278FDCBD38C102D88",
      "value": {
        "_hex": "0x6ebf8040ad72000"
      },
      "nonce": 3,
      "data": "0x",
      "r": "0x02982d69b2247e7d40d0733f5ac65ec49e7fe2ae0f23d13efd01f80f79e34435",
      "s": "0x6c93d11c68b1c412c2a6b9039ec107346abc6f5a096def451fd89990f812b34e",
      "v": 27,
      "creates": null,
      "raw": "0xf86c03850d8fca6b048252089432be343b94f860124dc4fee278fdcbd38c102d888806ebf8040ad72000801ba002982d69b2247e7d40d0733f5ac65ec49e7fe2ae0f23d13efd01f80f79e34435a06c93d11c68b1c412c2a6b9039ec107346abc6f5a096def451fd89990f812b34e",
      "networkId": 0,
      "chainId": 0
    },
    {
      "hash": "0x3c9887af02c6c831599287d90fdbffa9a7d330bb987b4106c8f4c32f5a785af4",
      "blockHash": "0x4ac1431105a290a062fb76b5fb4893ccbd61f1d7cf310852c04e99372cc4518b",
      "blockNumber": 90227,
      "transactionIndex": 1,
      "confirmations": null,
      "from": "0x32Be343B94f860124dC4fEe278FDCBD38C102D88",
      "gasPrice": {
        "_hex": "0xd8fca6b04"
      },
      "gasLimit": {
        "_hex": "0x5208"
      },
      "to": "0x468A3d6DB3CE7967A022329073a281567e14e0Ed",
      "value": {
        "_hex": "0x1b9de674df070000"
      },
      "nonce": 850,
      "data": "0x",
      "r": "0x5bbdb01d235792dcd133b22b7200502370e0dfa3fc33a3b50e22c7798b16803b",
      "s": "0x7930d239b1615eca461c478f6bc65ab4c56786836b4e684594ad22b0380d14ac",
      "v": 28,
      "creates": null,
      "raw": "0xf86e820352850d8fca6b0482520894468a3d6db3ce7967a022329073a281567e14e0ed881b9de674df070000801ca05bbdb01d235792dcd133b22b7200502370e0dfa3fc33a3b50e22c7798b16803ba07930d239b1615eca461c478f6bc65ab4c56786836b4e684594ad22b0380d14ac",
      "networkId": 0,
      "chainId": 0
    },
    {
      "hash": "0xc2e0a252ab3a16fd84112966e8efb9d2137c4b28dfad9c7ced28a3d21920260f",
      "blockHash": "0x4ac1431105a290a062fb76b5fb4893ccbd61f1d7cf310852c04e99372cc4518b",
      "blockNumber": 90227,
      "transactionIndex": 2,
      "confirmations": null,
      "from": "0x4D67f4F0Db45b3B5a3424B39ed8d972F710381D5",
      "gasPrice": {
        "_hex": "0xd8fca6b04"
      },
      "gasLimit": {
        "_hex": "0x5208"
      },
      "to": "0x32Be343B94f860124dC4fEe278FDCBD38C102D88",
      "value": {
        "_hex": "0xa84461ba8bc568000"
      },
      "nonce": 3,
      "data": "0x",
      "r": "0xeafc64bbf28f8aa811ad228db7ca97d9d9f6aa52f5607cbcecc07e1c2c606908",
      "s": "0x208cad1287d525ed889f783ba5721e2e2132fffef66d353fdc1c32bb79def4fd",
      "v": 27,
      "creates": null,
      "raw": "0xf86d03850d8fca6b048252089432be343b94f860124dc4fee278fdcbd38c102d88890a84461ba8bc568000801ba0eafc64bbf28f8aa811ad228db7ca97d9d9f6aa52f5607cbcecc07e1c2c606908a0208cad1287d525ed889f783ba5721e2e2132fffef66d353fdc1c32bb79def4fd",
      "networkId": 0,
      "chainId": 0
    }
  ]
}