{
  "hash": "0xc337660c7a2ec66bd8b69cddb7e695a76a7e8ee0eadd0f6d0c064921c60bb917",
  "parentHash": "0xfa7147e5ba50bee88211a40e88bbf5388ec2b2124d9de4e7121182bb476743c7",
  "number": 110586,
  "timestamp": 1439976222,
  "nonce": "0x9f9a89cd4a348f09",
  "difficulty": 4369105679314,
  "gasLimit": {
    "_hex": "0x2fefd8"
  },
  "gasUsed": {
    "_hex": "0xa410"
  },
  "miner": "0xb6E2d440C46510EC44266A3f58165E3956173df0",
  "extraData": "0x476574682f76312e302e312f77696e646f77732f676f312e342e32",
  "transactions": [
    {
      "hash": "0x8f5aa78c5838e1df0623f76aa6469a683db880ba0d9f1251db334fffbfe20b9f",
      "blockHash": "0xc337660c7a2ec66bd8b69cddb7e695a76a7e8ee0eadd0f6d0c064921c60bb917",
      "blockNumber": 110586,
      "transactionIndex": 0,
      "confirmations": null,
      "from": "0x6934e4839d59dEa0583b03643eCb8c10d6B150fc",
      "gasPrice": {
        "_hex": "0xe163a2d66"
      },
      "gasLimit": {
        "_hex": "0x5208"
      },
      "to": "0x32Be343B94f860124dC4fEe278FDCBD38C102D88",
      "value": {
        "_hex": "0x147816b641584400"
      },
      "nonce": 2,
      "data": "0x",
      "r": "0x1923a86370dd25ef9dda8bcdedcd133dc7abcfd861782afddf606add1ed0e604",
      "s": "0x64dbab69198f5f7356125472932e0e23e6d84c091610a5560feca8b19af4ad48",
      "v": 28,
      "creates": null,
      "raw": "0xf86c02850e163a2d668252089432be343b94f860124dc4fee278fdcbd38c102d8888147816b641584400801ca01923a86370dd25ef9dda8bcdedcd133dc7abcfd861782afddf606add1ed0e604a064dbab69198f5f7356125472932e0e23e6d84c091610a5560feca8b19af4ad48",
      "networkId": 0,
      "chainId": 0
    },
    {
      "hash": "0xe2424d619d9f7a4bc64004495d5ee0cc822345a7dedff5e6914333e34be0fe3a",
      "blockHash": "0xc337660c7a2ec66bd8b69cddb7e695a76a7e8ee0eadd0f6d0c064921c60bb917",
      "blockNumber": 110586,
      "transactionIndex": 1,
      "confirmations": null,
      "from": "0x379965B927911bcF18D2d4F062Edf10c45847069",
      "gasPrice": {
        "_hex": "0xba43b7400"
      },
      "gasLimit": {
        "_hex": "0x5267"
      },
      "to": "0xE9820EfC74A9fe5fb68bf1e0FBf9945c1302bC0B",
      "value": {
        "_hex": "0xde0b6b3a7640000"
      },
      "nonce": 8,
      "data": "0x",
      "r": "0x5d792b2234c107bc60fbb184b20a95bad90fb0fb073d3078240eb4145d8f32b7",
      "s": "0x22928a8ca2fa1dd1ca838ddbb66a9bf7052edc715243cdf8960f487656a6a822",
      "v": 28,
      "creates": null,
      "raw": "0xf86c08850ba43b740082526794e9820efc74a9fe5fb68bf1e0fbf9945c1302bc0b880de0b6b3a7640000801ca05d792b2234c107bc60fbb184b20a95bad90fb0fb073d3078240eb4145d8f32b7a022928a8ca2fa1dd1ca838ddbb66a9bf7052edc715243cdf8960f487656a6a822",
      "networkId": 0,
      "chainId": 0
    }
  ]
}