{
  "hash": "0x207fe57b31ed3f6b7aea0e4d6d7a18ceae1c4745002ea5004a697c812aafefed",
  "parentHash": "0x5fb4d2117104e603c56eb260838f71af0eae52d10218c4dc63664a2d54290655",
  "number": 99629,
  "timestamp": 1439793395,
  "nonce": "0x87387484e724cdd7",
  "difficulty": 3776855732066,
  "gasLimit": {
    "_hex": "0x2fefd8"
  },
  "gasUsed": {
    "_hex": "0x5208"
  },
  "miner": "0xf927a40C8B7F6E07c5af7FA2155B4864a4112B13",
  "extraData": "0x",
  "transactions": [
    {
      "hash": "0xb714d6e3052ba7d13dc99fdf2419195578bb830860393ef11627818282808f5b",
      "blockHash": "0x207fe57b31ed3f6b7aea0e4d6d7a18ceae1c4745002ea5004a697c812aafefed",
      "blockNumber": 99629,
      "transactionIndex": 0,
      "confirmations": null,
      "from": "0x007f7f58D3eb5b7510A301eCC749FC1fCDDBE14D",
      "gasPrice": {
        "_hex": "0xe0cfe7246"
      },
      "gasLimit": {
        "_hex": "0x15f90"
      },
      "to": "0xb1abce2918E21ddb93AA452731a12672A3d9F75a",
      "value": {
        "_hex": "0x4563918244f40000"
      },
      "nonce": 148,
      "data": "0x",
      "r": "0x7464324a192a6b752500c5e5a085565ccd35016217f04b2e04ea25c87fd178f0",
      "s": "0x0ee29439b69200e9ef79f507dda4ca8a274afa9ca60df9d0371d051aed6a122a",
      "v": 28,
      "creates": null,
      "raw": "0xf86e8194850e0cfe724683015f9094b1abce2918e21ddb93aa452731a12672a3d9f75a884563918244f40000801ca07464324a192a6b752500c5e5a085565ccd35016217f04b2e04ea25c87fd178f0a00ee29439b69200e9ef79f507dda4ca8a274afa9ca60df9d0371d051aed6a122a",
      "networkId": 0,
      "chainId": 0
    }
  ]
}