{
  "hash": "0x290d29831672c3521f6d52177cc3aeadaa6ce154c204cee66bec52fd01ac8283",
  "parentHash": "0x88ed469112e46e482d525407eef46cdf4f614557beb6ccdc69c444bf443d89a6",
  "number": 75881,
  "timestamp": 1439411048,
  "nonce": "0xcbf978a40de69492",
  "difficulty": 2230946449513,
  "gasLimit": {
    "_hex": "0x2fe3de"
  },
  "gasUsed": {
    "_hex": "0x546c"
  },
  "miner": "0xF78645Ea06d743C6B52a11EB3f3d486bbb4Cf01F",
  "extraData": "0x476574682f76312e302e302f77696e646f77732f676f312e342e32",
  "transactions": [
    {
      "hash": "0xaaccfaca351bcd3704793db73b70644286fcedd006f393c4661e0001c66f57d5",
      "blockHash": "0x290d29831672c3521f6d52177cc3aeadaa6ce154c204cee66bec52fd01ac8283",
      "blockNumber": 75881,
      "transactionIndex": 0,
      "confirmations": null,
      "from": "0xAa16269AAC9C0d803068D82Fc79151DADd334b66",
      "gasPrice": {
        "_hex": "0x110c8f7d8de"
      },
      "gasLimit": {
        "_hex": "0xc350"
      },
      "to": "0x2910543Af39abA0Cd09dBb2D50200b3E800A63D2",
      "value": {
        "_hex": "0xd8d5c3719f1cf60000"
      },
      "nonce": 0,
      "data": "0x454e384335544d4630",
      "r": "0x5ca2fbcb73d8c97c4a1014970cae7ded96691ebb14e640958ab234250226e939",
      "s": "0xce06c7352cb338785da13c751d5a0624a4b0d807cfd42e25130ed2ef8b49ebf3",
      "v": 27,
      "creates": null,
      "raw": "0xf87780860110c8f7d8de82c350942910543af39aba0cd09dbb2d50200b3e800a63d289d8d5c3719f1cf6000089454e384335544d46301ba05ca2fbcb73d8c97c4a1014970cae7ded96691ebb14e640958ab234250226e939a0ce06c7352cb338785da13c751d5a0624a4b0d807cfd42e25130ed2ef8b49ebf3",
      "networkId": 0,
      "chainId": 0
    }
  ]
}