{
  "hash": "0x5f506819c7235f94f477af0a34bb4d1f6f3b8a8c6d38fc0effe0696d2e2aef35",
  "parentHash": "0xf1da7d5781bea95d782d94f1bdc54f57723a17a7bf96c80d92f65b02e7e33c6c",
  "number": 47706,
  "timestamp": 1438945116,
  "nonce": "0x964e6b02175f8629",
  "difficulty": 1443137778704,
  "gasLimit": {
    "_hex": "0xe69f"
  },
  "gasUsed": {
    "_hex": "0xa410"
  },
  "miner": "0xc56e71225f1372c990E6829D53A1Ab76d27301cf",
  "extraData": "0x476574682f76312e302e302f77696e646f77732f676f312e342e32",
  "transactions": [
    {
      "hash": "0x1a3e41c1cb3eff3e08e56abba1d2550fdc7c44d56436d75e3855496848c511e6",
      "blockHash": "0x5f506819c7235f94f477af0a34bb4d1f6f3b8a8c6d38fc0effe0696d2e2aef35",
      "blockNumber": 47706,
      "transactionIndex": 0,
      "confirmations": null,
      "from": "0x35D53E319229147b651f3Fe017c6792611FB5FA7",
      "gasPrice": {
        "_hex": "0x9184e72a000"
      },
      "gasLimit": {
        "_hex": "0x5208"
      },
      "to": "0xD8788DC4E59d07e002DEe751E2FDb4f687716f09",
      "value": {
        "_hex": "0x8ac7230489e80000"
      },
      "nonce": 1,
      "data": "0x",
      "r": "0x21fa82f823c81dc5283cef78ec0770225cd220f9ce4461c7b6b426dea5ffa69e",
      "s": "0x003de6f6a63d6e0137d5691508d247420bdec63fea68eb437fa973b918e86d98",
      "v": 28,
      "creates": null,
      "raw": "0xf86c018609184e72a00082520894d8788dc4e59d07e002dee751e2fdb4f687716f09888ac7230489e80000801ca021fa82f823c81dc5283cef78ec0770225cd220f9ce4461c7b6b426dea5ffa69e9f3de6f6a63d6e0137d5691508d247420bdec63fea68eb437fa973b918e86d98",
      "networkId": 0,
      "chainId": 0
    },
    {
      "hash": "0xb4fa817143a78c0d1641a5d72024d3ce7bb2a2581be6897aef529aeb5077b500",
      "blockHash": "0x5f506819c7235f94f477af0a34bb4d1f6f3b8a8c6d38fc0effe0696d2e2aef35",
      "blockNumber": 47706,
      "transactionIndex": 1,
      "confirmations": null,
      "from": "0xe6A7a1d47ff21B6321162AEA7C6CB457D5476Bca",
      "gasPrice": {
        "_hex": "0xd39234471"
      },
      "gasLimit": {
        "_hex": "0x55f0"
      },
      "to": "0x79c2eB532397ADb2237Fc3Aa1433b25fFEbaD915",
      "value": {
        "_hex": "0x15844e3d277ff9350"
      },
      "nonce": 214,
      "data": "0x",
      "r": "0xfabb01fffc109c6980680313f54e1f9a7e61cbfe6e2175a54c0c48d6f682ef4c",
      "s": "0x731167cba2aacb349654b8af2af5bb5d3a1485f135d65ae4585550aaacca9dcf",
      "v": 27,
      "creates": null,
      "raw": "0xf86e81d6850d392344718255f09479c2eb532397adb2237fc3aa1433b25ffebad91589015844e3d277ff9350801ba0fabb01fffc109c6980680313f54e1f9a7e61cbfe6e2175a54c0c48d6f682ef4ca0731167cba2aacb349654b8af2af5bb5d3a1485f135d65ae4585550aaacca9dcf",
      "networkId": 0,
      "chainId": 0
    }
  ]
}