{
  "hash": "0xce003a911daee482f19e90fab983513acf82cb71862413a0e2e79080b08d1ae1",
  "parentHash": "0x45f44fe1aa1e211bc32b40faee75109c33a4585b0689cc679816381ba43b3c0a",
  "number": 65057,
  "timestamp": 1439230525,
  "nonce": "0xe0f1110011e748f8",
  "difficulty": 1929443939546,
  "gasLimit": {
    "_hex": "0x2fefd8"
  },
  "gasUsed": {
    "_hex": "0x1cee0"
  },
  "miner": "0xf927a40C8B7F6E07c5af7FA2155B4864a4112B13",
  "extraData": "0x",
  "transactions": [
    {
      "hash": "0xb3a8880cc6b0c426e0874280d97245f192454e4fd2f5365b0eb1723b6175192e",
      "blockHash": "0xce003a911daee482f19e90fab983513acf82cb71862413a0e2e79080b08d1ae1",
      "blockNumber": 65057,
      "transactionIndex": 0,
      "confirmations": null,
      "from": "0x0A319A7e0C887F104359e1eEe6717BD8f232d3Da",
      "gasPrice": {
        "_hex": "0xd2c2de60a"
      },
      "gasLimit": {
        "_hex": "0x5208"
      },
      "to": "0x32Be343B94f860124dC4fEe278FDCBD38C102D88",
      "value": {
        "_hex": "0x455f4ec522912000"
      },
      "nonce": 0,
      "data": "0x",
      "r": "0x02619cbbdec3c2fb9b7378094a1a6768d04009ac8f03e3a5f941386147b87806",
      "s": "0x2dc59dc2347fedccdcfd336553bd6e17dd39d3922fbeabfe40a0c4ab05aabe36",
      "v": 27,
      "creates": null,
      "raw": "0xf86c80850d2c2de60a8252089432be343b94f860124dc4fee278fdcbd38c102d8888455f4ec522912000801ba002619cbbdec3c2fb9b7378094a1a6768d04009ac8f03e3a5f941386147b87806a02dc59dc2347fedccdcfd336553bd6e17dd39d3922fbeabfe40a0c4ab05aabe36",
      "networkId": 0,
      "chainId": 0
    },
    {
      "hash": "0xe870d5ab4685b78fde42ccb88fb6d39b9eddace37f4a72189996575e852f3e85",
      "blockHash": "0xce003a911daee482f19e90fab983513acf82cb71862413a0e2e79080b08d1ae1",
      "blockNumber": 65057,
      "transactionIndex": 1,
      "confirmations": null,
      "from": "0xaDD913A0f724d1f77afd1011e623E2f4593a5a5C",
      "gasPrice": {
        "_hex": "0xba43b7400"
      },
      "gasLimit": {
        "_hex": "0x15f90"
      },
      "to": "0x793AE8C1b1a160BFc07BFB0d04F85eab1A71F4f2",
      "value": {
        "_hex": "0x0"
      },
      "nonce": 0,
      "data": "0x3ba15036",
      "r": "0xbdcab611c49a1d2457bec2d6e3776f424981ff3ce9d5690877b9549571e70344",
      "s": "0x29150601a4b4574537e5b2e0c0f0c8f6a7427ec3b8e785ca9102dfd53fdd3a4c",
      "v": 27,
      "creates": null,
      "raw": "0xf86980850ba43b740083015f9094793ae8c1b1a160bfc07bfb0d04f85eab1a71f4f280843ba150361ba0bdcab611c49a1d2457bec2d6e3776f424981ff3ce9d5690877b9549571e70344a029150601a4b4574537e5b2e0c0f0c8f6a7427ec3b8e785ca9102dfd53fdd3a4c",
      "networkId": 0,
      "chainId": 0
    },
    {
      "hash": "0x7e864f3a517ec7ad8cebbbb239756d2604a75e52babec3af58f5d99207de09ee",
      "blockHash": "0xce003a911daee482f19e90fab983513acf82cb71862413a0e2e79080b08d1ae1",
      "blockNumber": 65057,
      "transactionIndex": 2,
      "confirmations": null,
      "from": "0xcc85ABF21744FF9dbfdEAb2F1D8e4EB94d9dEC90",
      "gasPrice": {
        "_hex": "0xba43b7400"
      },
      "gasLimit": {
        "_hex": "0x15f90"
      },
      "to": "0x793AE8C1b1a160BFc07BFB0d04F85eab1A71F4f2",
      "value": {
        "_hex": "0x0"
      },
      "nonce": 0,
      "data": "0x3ba15036",
      "r": "0x8419913c699dc0851b744db39928ded717b61098a70320433ad9eccb4f602dd4",
      "s": "0x41be8a07ddeb952f627e9388cd050bab5eb34abcf255d22dfd4188808f628867",
      "v": 28,
      "creates": null,
      "raw": "0xf86980850ba43b740083015f9094793ae8c1b1a160bfc07bfb0d04f85eab1a71f4f280843ba150361ca08419913c699dc0851b744db39928ded717b61098a70320433ad9eccb4f602dd4a041be8a07ddeb952f627e9388cd050bab5eb34abcf255d22dfd4188808f628867",
      "networkId": 0,
      "chainId": 0
    }
  ]
}