{
  "hash": "0x006344e39e7d4d454445722eab9741dd77fe8deefa20238b3e13c75f5bfb71f4",
  "parentHash": "0xd094f391a072ebbc3e50c85e6b3ed6325f2287d238ad9f5aec6ee9bd2203da47",
  "number": 80313,
  "timestamp": 1439483688,
  "nonce": "0x67e10380c35f1a41",
  "difficulty": 2373575769332,
  "gasLimit": {
    "_hex": "0x2fefd8"
  },
  "gasUsed": {
    "_hex": "0xa410"
  },
  "miner": "0x88D74a59454F6cF3B51ef6b9136AFb6b9D405A88",
  "extraData": "0x476574682f76312e302e312d37666266393930632f6c696e75782f676f312e34",
  "transactions": [
    {
      "hash": "0x298ee318773d8047b9e667e347edf7461ec5d364adf19855be7245ceb3844ae0",
      "blockHash": "0x006344e39e7d4d454445722eab9741dd77fe8deefa20238b3e13c75f5bfb71f4",
      "blockNumber": 80313,
      "transactionIndex": 0,
      "confirmations": null,
      "from": "0x7Eb9F59f9547E376188eD83EFCD1F6dbF3712eA6",
      "gasPrice": {
        "_hex": "0xdb82c6106"
      },
      "gasLimit": {
        "_hex": "0x15f90"
      },
      "to": "0xAd941B747c499E3ad5728C285446813783A33564",
      "value": {
        "_hex": "0x392d2e2bda9c0000"
      },
      "nonce": 5,
      "data": "0x",
      "r": "0xa885f4959dcc9555d60ccecdc555178a9f006028a823c0534d1d6efe798a5dfd",
      "s": "0x2499f5d2f0ac94c9326650127c25608cb74e23d8d3fe6038cb7351c37589b386",
      "v": 27,
      "creates": null,
      "raw": "0xf86d05850db82c610683015f9094ad941b747c499e3ad5728c285446813783a3356488392d2e2bda9c0000801ba0a885f4959dcc9555d60ccecdc555178a9f006028a823c0534d1d6efe798a5dfda02499f5d2f0ac94c9326650127c25608cb74e23d8d3fe6038cb7351c37589b386",
      "networkId": 0,
      "chainId": 0
    },
    {
      "hash": "0x6e3f2a9119e63dcaefb1da569a0b440141a403e912ed50224a8bdbb649ee19c8",
      "blockHash": "0x006344e39e7d4d454445722eab9741dd77fe8deefa20238b3e13c75f5bfb71f4",
      "blockNumber": 80313,
      "transactionIndex": 1,
      "confirmations": null,
      "from": "0xCABAb6274eD15089737e287Be878B757934864e2",
      "gasPrice": {
        "_hex": "0xd067a1475"
      },
      "gasLimit": {
        "_hex": "0x15f90"
      },
      "to": "0x6e6bD2E762ecBa2B68ddB39b05916A9531AA0EA6",
      "value": {
        "_hex": "0x6c6b935b8bbd400000"
      },
      "nonce": 1,
      "data": "0x",
      "r": "0xe6f38bf6b5f27a2d68984dfb4891e5b0ce002a072c95407c21eb5d624ae5e63a",
      "s": "0x175d5c3f4388a45e74d9e7519aab4a8e387e74a78efb945f2285b9a37e1f44ad",
      "v": 27,
      "creates": null,
      "raw": "0xf86e01850d067a147583015f90946e6bd2e762ecba2b68ddb39b05916a9531aa0ea6896c6b935b8bbd400000801ba0e6f38bf6b5f27a2d68984dfb4891e5b0ce002a072c95407c21eb5d624ae5e63aa0175d5c3f4388a45e74d9e7519aab4a8e387e74a78efb945f2285b9a37e1f44ad",
      "networkId": 0,
      "chainId": 0
    }
  ]
}