{
  "hash": "0xf49b9efa99813c7c3231b225ca2c63f37ec2601db9431ae56fb01e8b37e45125",
  "parentHash": "0xe1d9e225f8e2e4df2cf410c30bad0841dd111c4a71f4161d59f822c86aac79c5",
  "number": 85393,
  "timestamp": 1439562923,
  "nonce": "0x845b2db0deee0b0a",
  "difficulty": 2738325759955,
  "gasLimit": {
    "_hex": "0x2fe3fc"
  },
  "gasUsed": {
    "_hex": "0x5208"
  },
  "miner": "0x356CEFb4Eb836DC68403308309E075a31DD991D2",
  "extraData": "0x476574682f76312e302e302f6c696e75782f676f312e342e32",
  "transactions": [
    {
      "hash": "0x08c3fe17ecb844c9ff346bbe97bb989f529310ffaeb3824fd0a9658f9b4d6afb",
      "blockHash": "0xf49b9efa99813c7c3231b225ca2c63f37ec2601db9431ae56fb01e8b37e45125",
      "blockNumber": 85393,
      "transactionIndex": 0,
      "confirmations": null,
      "from": "0x630A913a9031C9492abd4C41Dbb15054CfeC4416",
      "gasPrice": {
        "_hex": "0x1021b80dfdd"
      },
      "gasLimit": {
        "_hex": "0x15f90"
      },
      "to": "0xd97FDBc4B51136F7381A02c672E73247F5D6927c",
      "value": {
        "_hex": "0x429d069189e0000"
      },
      "nonce": 1,
      "data": "0x",
      "r": "0xe1099349b22ee83cb9db351698d13e5505b4043f0de2f60587886609a81d4a75",
      "s": "0x574625dca1dff810e300de2a40adc87889668f7e44b9db303bdaca75cd16c537",
      "v": 27,
      "creates": null,
      "raw": "0xf86e018601021b80dfdd83015f9094d97fdbc4b51136f7381a02c672e73247f5d6927c880429d069189e0000801ba0e1099349b22ee83cb9db351698d13e5505b4043f0de2f60587886609a81d4a75a0574625dca1dff810e300de2a40adc87889668f7e44b9db303bdaca75cd16c537",
      "networkId": 0,
      "chainId": 0
    }
  ]
}