{
  "hash": "0x8f317cf0d2af16aa4f24fec97b4a557b6801debc65cf77d483a38e6bca92fecf",
  "parentHash": "0x4dba404ffc1e04c93c7988315a31d292f6c5082d4b5298d4a85360b098ace19a",
  "number": 95991,
  "timestamp": 1439733261,
  "nonce": "0xdb1691872b59307f",
  "difficulty": 3616042565989,
  "gasLimit": {
    "_hex": "0x2fefd8"
  },
  "gasUsed": {
    "_hex": "0x5208"
  },
  "miner": "0xe6A7a1d47ff21B6321162AEA7C6CB457D5476Bca",
  "extraData": "0x476574682f76312e302e312d38326566323666362f6c696e75782f676f312e34",
  "transactions": [
    {
      "hash": "0xe63a1c96c4545ed8fb368cd1baf94469c82b922936d054732a2cf354576105e1",
      "blockHash": "0x8f317cf0d2af16aa4f24fec97b4a557b6801debc65cf77d483a38e6bca92fecf",
      "blockNumber": 95991,
      "transactionIndex": 0,
      "confirmations": null,
      "from": "0x007f7f58D3eb5b7510A301eCC749FC1fCDDBE14D",
      "gasPrice": {
        "_hex": "0xcc8ddf695"
      },
      "gasLimit": {
        "_hex": "0x15f90"
      },
      "to": "0xb1abce2918E21ddb93AA452731a12672A3d9F75a",
      "value": {
        "_hex": "0x4563918244f40000"
      },
      "nonce": 67,
      "data": "0x",
      "r": "0xcd34d73563a0f1941c252ac6d64addd4fc1df05c512d5051fc778ec2d8ed6158",
      "s": "0x0ea5efeb6014f91f79f24bddff0925d3759ffceca7d21206c6c7959f8505a590",
      "v": 27,
      "creates": null,
      "raw": "0xf86d43850cc8ddf69583015f9094b1abce2918e21ddb93aa452731a12672a3d9f75a884563918244f40000801ba0cd34d73563a0f1941c252ac6d64addd4fc1df05c512d5051fc778ec2d8ed6158a00ea5efeb6014f91f79f24bddff0925d3759ffceca7d21206c6c7959f8505a590",
      "networkId": 0,
      "chainId": 0
    }
  ]
}