{
  "hash": "0x92e4b9f1d3135dbee97ccc0a5df685f1fc5c579280ef080a0d2ca6d80841727c",
  "parentHash": "0xbd1bd45ec4e18157b2e71b4db02aa57da998844a2423b4443ebc1fe3aaf5cc8b",
  "number": 110720,
  "timestamp": 1439978303,
  "nonce": "0xe7e4f94ae1947df3",
  "difficulty": 4394710855435,
  "gasLimit": {
    "_hex": "0x2fefd8"
  },
  "gasUsed": {
    "_hex": "0x5208"
  },
  "miner": "0x0eDEd3DA479d0beF8eeC92A76644D3f4E3C177f7",
  "extraData": "0x476574682f76312e302e312f6c696e75782f676f312e342e32",
  "transactions": [
    {
      "hash": "0xf02db1e03945122a866401d163084e127afaf3ea9a7690635ec5f482a389b63f",
      "blockHash": "0x92e4b9f1d3135dbee97ccc0a5df685f1fc5c579280ef080a0d2ca6d80841727c",
      "blockNumber": 110720,
      "transactionIndex": 0,
      "confirmations": null,
      "from": "0x007f7f58D3eb5b7510A301eCC749FC1fCDDBE14D",
      "gasPrice": {
        "_hex": "0xd382b0b9c"
      },
      "gasLimit": {
        "_hex": "0x15f90"
      },
      "to": "0xb1abce2918E21ddb93AA452731a12672A3d9F75a",
      "value": {
        "_hex": "0x4563918244f40000"
      },
      "nonce": 293,
      "data": "0x",
      "r": "0xfdc0662d883ec0957e360677d09502e558b6a7475a46fe7eccd818a7aa572cb4",
      "s": "0x24602ec95c08f83a653102c9611d725da7656f38be5c35a297bdc829d8f0296b",
      "v": 28,
      "creates": null,
      "raw": "0xf86f820125850d382b0b9c83015f9094b1abce2918e21ddb93aa452731a12672a3d9f75a884563918244f40000801ca0fdc0662d883ec0957e360677d09502e558b6a7475a46fe7eccd818a7aa572cb4a024602ec95c08f83a653102c9611d725da7656f38be5c35a297bdc829d8f0296b",
      "networkId": 0,
      "chainId": 0
    }
  ]
}