{
  "hash": "0x32f36892c959d11ce5a035b4e3d63b92220e2494e688d94a26d986b776c9a85b",
  "parentHash": "0xb6985539f2e4cf980b414fddce438b9ba196007785a858784161cc134c3fb16d",
  "number": 64126,
  "timestamp": 1439215680,
  "nonce": "0x5eb4321f8aedef97",
  "difficulty": 1863907069415,
  "gasLimit": {
    "_hex": "0x2fefd8"
  },
  "gasUsed": {
    "_hex": "0x5208"
  },
  "miner": "0x9677f39Dc9F3A6ED82C3057a3C3c3bf35b21E32a",
  "extraData": "0x476574682f676f3263762f76312e302e312f77696e646f77732f676f312e342e",
  "transactions": [
    {
      "hash": "0x6a03771ada0e34cc8e09f9896577b43be3625f8edc7ef432f7b679c7800e9271",
      "blockHash": "0x32f36892c959d11ce5a035b4e3d63b92220e2494e688d94a26d986b776c9a85b",
      "blockNumber": 64126,
      "transactionIndex": 0,
      "confirmations": null,
      "from": "0x097738363B1662599ad0777E19461601F5EC8dF9",
      "gasPrice": {
        "_hex": "0xd932679ca"
      },
      "gasLimit": {
        "_hex": "0x5208"
      },
      "to": "0x32Be343B94f860124dC4fEe278FDCBD38C102D88",
      "value": {
        "_hex": "0xddc5d24cc778c00"
      },
      "nonce": 3,
      "data": "0x",
      "r": "0x38851c83a094ee505ec5ba6b412e13f9b64ff4f50845f7eb6d90516c7ea601c0",
      "s": "0x7367986b1d3b8c5a5dc56d401cb13acddfad62ff0c5232c0a69a3286bd9f126b",
      "v": 27,
      "creates": null,
      "raw": "0xf86c03850d932679ca8252089432be343b94f860124dc4fee278fdcbd38c102d88880ddc5d24cc778c00801ba038851c83a094ee505ec5ba6b412e13f9b64ff4f50845f7eb6d90516c7ea601c0a07367986b1d3b8c5a5dc56d401cb13acddfad62ff0c5232c0a69a3286bd9f126b",
      "networkId": 0,
      "chainId": 0
    }
  ]
}