{
  "hash": "0x1ba8d4b6cbc557622194e4380bf2e7cecf9765276156318f978894b56c765107",
  "parentHash": "0xb68fc5d91e7bc29fe21c18a13d0199cbcee5de33c0754d810e78c0407f8e06b0",
  "number": 112277,
  "timestamp": 1440004818,
  "nonce": "0x86003fd34363c5c9",
  "difficulty": 4391750300635,
  "gasLimit": {
    "_hex": "0x2fefd8"
  },
  "gasUsed": {
    "_hex": "0x5208"
  },
  "miner": "0xe6A7a1d47ff21B6321162AEA7C6CB457D5476Bca",
  "extraData": "0x476574682f76312e302e312d38326566323666362f6c696e75782f676f312e34",
  "transactions": [
    {
      "hash": "0x0d1b7132f6728f5aa26238ed6e1b38bd0086a9b44ddc9f188ed6859bba4da1a3",
      "blockHash": "0x1ba8d4b6cbc557622194e4380bf2e7cecf9765276156318f978894b56c765107",
      "blockNumber": 112277,
      "transactionIndex": 0,
      "confirmations": null,
      "from": "0x32Be343B94f860124dC4fEe278FDCBD38C102D88",
      "gasPrice": {
        "_hex": "0xdae18a6bf"
      },
      "gasLimit": {
        "_hex": "0x5208"
      },
      "to": "0xA61A4A69dcB2D8C74BdeCd17AD5821Adc21E95ec",
      "value": {
        "_hex": "0xd0072d945f1b0000"
      },
      "nonce": 1337,
      "data": "0x",
      "r": "0x62b046246af8a82885f91b3f0eac39c8f76ab93bc0030c4b8586f1b5904f3a90",
      "s": "0x51e3dca8244ba1a93ec1ba77f4e23a8f7489fe33e0e74b025a6d6e1d684578ec",
      "v": 27,
      "creates": null,
      "raw": "0xf86e820539850dae18a6bf82520894a61a4a69dcb2d8c74bdecd17ad5821adc21e95ec88d0072d945f1b0000801ba062b046246af8a82885f91b3f0eac39c8f76ab93bc0030c4b8586f1b5904f3a90a051e3dca8244ba1a93ec1ba77f4e23a8f7489fe33e0e74b025a6d6e1d684578ec",
      "networkId": 0,
      "chainId": 0
    }
  ]
}