{
  "hash": "0x470113d22d5b4c5c5e58af8918fddb7be87df9f105230a606281d2110b30dbcc",
  "parentHash": "0x7192c22ec72e1f0d89117cd8b2a086d6c312f28b61924747c2636fbe5a012455",
  "number": 79713,
  "timestamp": 1439473999,
  "nonce": "0x9eb2de26f46f7b04",
  "difficulty": 2346090571340,
  "gasLimit": {
    "_hex": "0x2fefd8"
  },
  "gasUsed": {
    "_hex": "0x5208"
  },
  "miner": "0x580992B51e3925e23280EfB93d3047C82f17E038",
  "extraData": "0x476574682f76312e302e312f6c696e75782f676f312e342e32",
  "transactions": [
    {
      "hash": "0xcfe3cf52637dd8d9970f784557665a789ccaf409c51c366d6e6555427e62e829",
      "blockHash": "0x470113d22d5b4c5c5e58af8918fddb7be87df9f105230a606281d2110b30dbcc",
      "blockNumber": 79713,
      "transactionIndex": 0,
      "confirmations": null,
      "from": "0x2910543Af39abA0Cd09dBb2D50200b3E800A63D2",
      "gasPrice": {
        "_hex": "0xdfd7cb441"
      },
      "gasLimit": {
        "_hex": "0x5208"
      },
      "to": "0x5520a56e563e93652B6867Cf334eE14fCa33480f",
      "value": {
        "_hex": "0xda70ec670cc66a000"
      },
      "nonce": 369,
      "data": "0x",
      "r": "0xb5e894bf37a5e9732268181867884d78e85680f0f0590b051071af1fbf84f017",
      "s": "0x70f3e7ea620c581b643bbbe3b1bd2453f7ee5ce8eaf5db3e44e1c23407d45988",
      "v": 27,
      "creates": null,
      "raw": "0xf86f820171850dfd7cb441825208945520a56e563e93652b6867cf334ee14fca33480f890da70ec670cc66a000801ba0b5e894bf37a5e9732268181867884d78e85680f0f0590b051071af1fbf84f017a070f3e7ea620c581b643bbbe3b1bd2453f7ee5ce8eaf5db3e44e1c23407d45988",
      "networkId": 0,
      "chainId": 0
    }
  ]
}