{
  "hash": "0x35060688758bede8ce6845d032395072a1a5164bd4e9f69575f195b9b0819290",
  "parentHash": "0x281693546713f93e8980d347a5f48b14fd75c9e0fb4d79fb86cc0514fd70287a",
  "number": 101364,
  "timestamp": 1439821938,
  "nonce": "0x281a1b42045c8891",
  "difficulty": 3811269603549,
  "gasLimit": {
    "_hex": "0x2fefd8"
  },
  "gasUsed": {
    "_hex": "0x520c"
  },
  "miner": "0xe6A7a1d47ff21B6321162AEA7C6CB457D5476Bca",
  "extraData": "0x476574682f76312e302e312d38326566323666362f6c696e75782f676f312e34",
  "transactions": [
    {
      "hash": "0xa995974aa7e0d62cba42dbe8b989b34d91791a7fedaea628740d75620da59e40",
      "blockHash": "0x35060688758bede8ce6845d032395072a1a5164bd4e9f69575f195b9b0819290",
      "blockNumber": 101364,
      "transactionIndex": 0,
      "confirmations": null,
      "from": "0x60d85a32126130b225913C23dF4e5EF8b759fA09",
      "gasPrice": {
        "_hex": "0xe0bcf2d4d"
      },
      "gasLimit": {
        "_hex": "0x7530"
      },
      "to": "0xdDbddD1BBd38fFADE0305d30f02028D92e9f3Aa8",
      "value": {
        "_hex": "0x22b1c8c1227a0000"
      },
      "nonce": 1,
      "data": "0x00",
      "r": "0x95120e416554b8104a7f0c7e29acfdb6ee7ce5eeec0af69c0a795f4e6d27adf7",
      "s": "0x5d0723723b37a444d5a1312f8c64d7859729a9ab012f5ebd2755be267b947311",
      "v": 28,
      "creates": null,
      "raw": "0xf86c01850e0bcf2d4d82753094ddbddd1bbd38ffade0305d30f02028d92e9f3aa88822b1c8c1227a0000001ca095120e416554b8104a7f0c7e29acfdb6ee7ce5eeec0af69c0a795f4e6d27adf7a05d0723723b37a444d5a1312f8c64d7859729a9ab012f5ebd2755be267b947311",
      "networkId": 0,
      "chainId": 0
    }
  ]
}