{
  "hash": "0xfbc14db0edcd3bdb7c861bbbd96f942fb287fc75cc227aa2e5019717d43d6bf6",
  "parentHash": "0xcc256ff4d13a36992b7af0888c4d20ecedf18c07e90b287560465dd51ab632d1",
  "number": 83733,
  "timestamp": 1439540042,
  "nonce": "0xac7b18c769488f4e",
  "difficulty": 2433621586628,
  "gasLimit": {
    "_hex": "0x2fefd8"
  },
  "gasUsed": {
    "_hex": "0x5208"
  },
  "miner": "0xe6A7a1d47ff21B6321162AEA7C6CB457D5476Bca",
  "extraData": "0x476574682f76312e302e312d38326566323666362f6c696e75782f676f312e34",
  "transactions": [
    {
      "hash": "0xede1eabc4856fec783a761627fb3d8a3fc29e07f086bb666e16eaacce16340f7",
      "blockHash": "0xfbc14db0edcd3bdb7c861bbbd96f942fb287fc75cc227aa2e5019717d43d6bf6",
      "blockNumber": 83733,
      "transactionIndex": 0,
      "confirmations": null,
      "from": "0x0D4EcC7d750180EBf4A9Df728B6669B5Bceb5E40",
      "gasPrice": {
        "_hex": "0xdf4812805"
      },
      "gasLimit": {
        "_hex": "0x5208"
      },
      "to": "0x32Be343B94f860124dC4fEe278FDCBD38C102D88",
      "value": {
        "_hex": "0x455f18c152b6b400"
      },
      "nonce": 22,
      "data": "0x",
      "r": "0x10360a8fcc392ea71512941e24bb21ffc46ff0f73c8d75d662d44075d5ceaf0e",
      "s": "0x6ae3940ac11a9ad19b9ef49fd6ca168710d139a3d7d781acd0ca221e2927200a",
      "v": 27,
      "creates": null,
      "raw": "0xf86c16850df48128058252089432be343b94f860124dc4fee278fdcbd38c102d8888455f18c152b6b400801ba010360a8fcc392ea71512941e24bb21ffc46ff0f73c8d75d662d44075d5ceaf0ea06ae3940ac11a9ad19b9ef49fd6ca168710d139a3d7d781acd0ca221e2927200a",
      "networkId": 0,
      "chainId": 0
    }
  ]
}