{
  "hash": "0x14e1f5cfc0911ac8beee8b59de1622a1d975e754d9f82a5bbd294b1b23c473d5",
  "parentHash": "0x2b6fc705b811819d25c051415c67d13d8910dd31b7e3e0d44a5a224b734fd022",
  "number": 80589,
  "timestamp": 1439487752,
  "nonce": "0x3c41b5c8236017c1",
  "difficulty": 2417948295358,
  "gasLimit": {
    "_hex": "0x2fe3de"
  },
  "gasUsed": {
    "_hex": "0x57b4"
  },
  "miner": "0xF78645Ea06d743C6B52a11EB3f3d486bbb4Cf01F",
  "extraData": "0x476574682f76312e302e302f77696e646f77732f676f312e342e32",
  "transactions": [
    {
      "hash": "0xa44de786a4bdb03b54b86b2e4ff3c952aa34d08b53e0a10943d6e9244a207469",
      "blockHash": "0x14e1f5cfc0911ac8beee8b59de1622a1d975e754d9f82a5bbd294b1b23c473d5",
      "blockNumber": 80589,
      "transactionIndex": 0,
      "confirmations": null,
      "from": "0x87C5B5874A18B4306DF8a752a6C8cc3E82daFc19",
      "gasPrice": {
        "_hex": "0x10ec54d9e8a"
      },
      "gasLimit": {
        "_hex": "0x493e0"
      },
      "to": "0xC4c51de1AbF5D60DBd329eC0F999Fd8f021ae9fC",
      "value": {
        "_hex": "0x0"
      },
      "nonce": 254,
      "data": "0xbd66528a6b6b6b0000000000000000000000000000000000000000000000000000000000",
      "r": "0x3eefb951c86c29f5e721e14cc7f579f2a503f13019c4cba006e739ab7aed98f4",
      "s": "0x3c394416ab4e1f8376aa879e5021917c4d5eed8b852db4e1e8f053d1e16f2988",
      "v": 28,
      "creates": null,
      "raw": "0xf88b81fe86010ec54d9e8a830493e094c4c51de1abf5d60dbd329ec0f999fd8f021ae9fc80a4bd66528a6b6b6b00000000000000000000000000000000000000000000000000000000001ca03eefb951c86c29f5e721e14cc7f579f2a503f13019c4cba006e739ab7aed98f4a03c394416ab4e1f8376aa879e5021917c4d5eed8b852db4e1e8f053d1e16f2988",
      "networkId": 0,
      "chainId": 0
    }
  ]
}