{
  "hash": "0x1baeaab1f9543dfe64818e7bee316e5b6249475b1bc8e70b9dc2f616c8dd39f6",
  "parentHash": "0x64dca954c8e58373058694e231589658d3e14e5b782c1635709033166cdc980f",
  "number": 47833,
  "timestamp": 1438947145,
  "nonce": "0x3c9b6f534abc5687",
  "difficulty": 1459414147019,
  "gasLimit": {
    "_hex": "0xf913"
  },
  "gasUsed": {
    "_hex": "0x5208"
  },
  "miner": "0xf927a40C8B7F6E07c5af7FA2155B4864a4112B13",
  "extraData": "0x476574682f76312e302e302f6c696e75782f676f312e342e32",
  "transactions": [
    {
      "hash": "0xee07b96b57cfbae139f901c5475e72657e970a626c4cabef6d9e1d3aa469a4e5",
      "blockHash": "0x1baeaab1f9543dfe64818e7bee316e5b6249475b1bc8e70b9dc2f616c8dd39f6",
      "blockNumber": 47833,
      "transactionIndex": 0,
      "confirmations": null,
      "from": "0xCDfD8217339725d7ebac11A63655F265eFF1CC3d",
      "gasPrice": {
        "_hex": "0x10bd2717cdb"
      },
      "gasLimit": {
        "_hex": "0x5208"
      },
      "to": "0xb6Ad95318E9C1727be55974BBBBAcf7196923E4c",
      "value": {
        "_hex": "0xaa87bee538000"
      },
      "nonce": 0,
      "data": "0x",
      "r": "0x7d37f56c0d5297293e05d5ca855786f46ad0b903cde4c1f868a90e9020a98810",
      "s": "0x6aef725c11fcd60ae9ddce337d6e073180f4fad69ed97df1537cd81daddf43c2",
      "v": 27,
      "creates": null,
      "raw": "0xf86c8086010bd2717cdb82520894b6ad95318e9c1727be55974bbbbacf7196923e4c870aa87bee538000801ba07d37f56c0d5297293e05d5ca855786f46ad0b903cde4c1f868a90e9020a98810a06aef725c11fcd60ae9ddce337d6e073180f4fad69ed97df1537cd81daddf43c2",
      "networkId": 0,
      "chainId": 0
    }
  ]
}