{
  "hash": "0x3e7e2e71daefcc14bf435b0576aa2b51453de0f47b3b1453421684d1f9e631c7",
  "parentHash": "0xc2572420783b39f9a3e1217369c17b1cef05ed4c0fbe6799efed299c76378690",
  "number": 110850,
  "timestamp": 1439980597,
  "nonce": "0x5e2210b43bdc2f21",
  "difficulty": 4398936490074,
  "gasLimit": {
    "_hex": "0x2fefd8"
  },
  "gasUsed": {
    "_hex": "0x5208"
  },
  "miner": "0xfFcD9CAE6d9f54fd8ae05296F839892677ff6EaA",
  "extraData": "0x476574682f76312e302e312f77696e646f77732f676f312e342e32",
  "transactions": [
    {
      "hash": "0xca09772bc1fa533b4c0b33c92d8203b7c0d3669e969f214d5bcfdcd64e27c6ff",
      "blockHash": "0x3e7e2e71daefcc14bf435b0576aa2b51453de0f47b3b1453421684d1f9e631c7",
      "blockNumber": 110850,
      "transactionIndex": 0,
      "confirmations": null,
      "from": "0x8d7b4db3D7B3455f309B138fE3f813633e8577B4",
      "gasPrice": {
        "_hex": "0xba43b7400"
      },
      "gasLimit": {
        "_hex": "0x7530"
      },
      "to": "0xDb8207d158c5396E26545A979C7A788852f81Eb6",
      "value": {
        "_hex": "0xde0b6b3a7640000"
      },
      "nonce": 0,
      "data": "0x",
      "r": "0xfb65f8ca0eee9eb751a6504de8c8d45bd97458e114c164c4c60a628e3d395f67",
      "s": "0x52e02754d5e5483a1ae745fa55669229da6d4e87474c8eb8fc4954057a64a36a",
      "v": 28,
      "creates": null,
      "raw": "0xf86c80850ba43b740082753094db8207d158c5396e26545a979c7a788852f81eb6880de0b6b3a7640000801ca0fb65f8ca0eee9eb751a6504de8c8d45bd97458e114c164c4c60a628e3d395f67a052e02754d5e5483a1ae745fa55669229da6d4e87474c8eb8fc4954057a64a36a",
      "networkId": 0,
      "chainId": 0
    }
  ]
}