{
  "hash": "0x55ad09d433870fa141fa7329d258c34ea93777ad7f898d7e75930084e61de7e1",
  "parentHash": "0x44fc499cbf77ba2692532a4785721ef006674f1495a689514e8239f2ba9e19b8",
  "number": 106820,
  "timestamp": 1439911179,
  "nonce": "0xb91506e8cb6e9d2b",
  "difficulty": 4422592361498,
  "gasLimit": {
    "_hex": "0x2fefd8"
  },
  "gasUsed": {
    "_hex": "0x5208"
  },
  "miner": "0xB1A4B41b8e75a153841c99c62d18588d45e7b406",
  "extraData": "0x",
  "transactions": [
    {
      "hash": "0xa18f9720fa0dee6fffc1c0a5ddb8d335cc5a61a413960b43a04abf0d52f4cadc",
      "blockHash": "0x55ad09d433870fa141fa7329d258c34ea93777ad7f898d7e75930084e61de7e1",
      "blockNumber": 106820,
      "transactionIndex": 0,
      "confirmations": null,
      "from": "0x2910543Af39abA0Cd09dBb2D50200b3E800A63D2",
      "gasPrice": {
        "_hex": "0xdad86878e"
      },
      "gasLimit": {
        "_hex": "0x5208"
      },
      "to": "0x4Eaf4CaDd87499C20bA3412B1D222f9a72DA7AFF",
      "value": {
        "_hex": "0x8703f2ecc31c038000"
      },
      "nonce": 1039,
      "data": "0x",
      "r": "0x6155f15cc1ad2d9930102ff547b32dda2ef9b943b619eee283d4a3508173b159",
      "s": "0x54f0361e0eee9cd19daf8ab224baad32ac409fd4eed009be696751fde67d5631",
      "v": 27,
      "creates": null,
      "raw": "0xf86f82040f850dad86878e825208944eaf4cadd87499c20ba3412b1d222f9a72da7aff898703f2ecc31c038000801ba06155f15cc1ad2d9930102ff547b32dda2ef9b943b619eee283d4a3508173b159a054f0361e0eee9cd19daf8ab224baad32ac409fd4eed009be696751fde67d5631",
      "networkId": 0,
      "chainId": 0
    }
  ]
}