{
  "hash": "0x211b64b86f9697b9e6d0f21218d9c92dd39045f3ca9ac89cde0c54436e297620",
  "parentHash": "0x8bad7f291c7fca7ad05718724f7a4b7c61762366999123dd75ab80a8e0b27940",
  "number": 96164,
  "timestamp": 1439735938,
  "nonce": "0xce313ccb61770675",
  "difficulty": 3656805896319,
  "gasLimit": {
    "_hex": "0x2fefd8"
  },
  "gasUsed": {
    "_hex": "0xa410"
  },
  "miner": "0xe6A7a1d47ff21B6321162AEA7C6CB457D5476Bca",
  "extraData": "0x476574682f76312e302e312d38326566323666362f6c696e75782f676f312e34",
  "transactions": [
    {
      "hash": "0x799be35bf64bad40dd6ca08c6e053c396f3c4561dc07ac323d66e005104ae74e",
      "blockHash": "0x211b64b86f9697b9e6d0f21218d9c92dd39045f3ca9ac89cde0c54436e297620",
      "blockNumber": 96164,
      "transactionIndex": 0,
      "confirmations": null,
      "from": "0xB0bF4A71F730782368Ef660FE6D298F432F95450",
      "gasPrice": {
        "_hex": "0xe0c22d2fd"
      },
      "gasLimit": {
        "_hex": "0x5208"
      },
      "to": "0x32Be343B94f860124dC4fEe278FDCBD38C102D88",
      "value": {
        "_hex": "0xad78a3c0659320000"
      },
      "nonce": 27,
      "data": "0x",
      "r": "0x5019e37c51724d90dfb812b13fa29163ca7797137ed7c6c63894bcde62ecc78b",
      "s": "0x073b6773bff6c29787ccb035d52731b4f952a6cb491e005067422de5a611326c",
      "v": 27,
      "creates": null,
      "raw": "0xf86d1b850e0c22d2fd8252089432be343b94f860124dc4fee278fdcbd38c102d88890ad78a3c0659320000801ba05019e37c51724d90dfb812b13fa29163ca7797137ed7c6c63894bcde62ecc78ba0073b6773bff6c29787ccb035d52731b4f952a6cb491e005067422de5a611326c",
      "networkId": 0,
      "chainId": 0
    },
    {
      "hash": "0x29fdd873073a44145a42881e8aa9dcff0252f9baad85e97d4885072dde77c8ef",
      "blockHash": "0x211b64b86f9697b9e6d0f21218d9c92dd39045f3ca9ac89cde0c54436e297620",
      "blockNumber": 96164,
      "transactionIndex": 1,
      "confirmations": null,
      "from": "0x99181ED48C7c51532622dA23e20E2B38392476A7",
      "gasPrice": {
        "_hex": "0xde81118fc"
      },
      "gasLimit": {
        "_hex": "0x5208"
      },
      "to": "0x32Be343B94f860124dC4fEe278FDCBD38C102D88",
      "value": {
        "_hex": "0xd0263fc1a8f6d000"
      },
      "nonce": 6,
      "data": "0x",
      "r": "0x3382bb9f96b1ab65b022666a4b8983dfa933d18bb084c166c1319aeb47e4e5b3",
      "s": "0x458a9bf902bf7b34c0f4ffdb2fb96b4b93c339ab0d91a01c95581d3003d2fb3b",
      "v": 27,
      "creates": null,
      "raw": "0xf86c06850de81118fc8252089432be343b94f860124dc4fee278fdcbd38c102d8888d0263fc1a8f6d000801ba03382bb9f96b1ab65b022666a4b8983dfa933d18bb084c166c1319aeb47e4e5b3a0458a9bf902bf7b34c0f4ffdb2fb96b4b93c339ab0d91a01c95581d3003d2fb3b",
      "networkId": 0,
      "chainId": 0
    }
  ]
}