{
  "hash": "0x9e77427de97345a8406cf0ff4b82eae89d9b56b94798cea627de3cc97e81c8d5",
  "parentHash": "0x38b1de7e95aeafaaa99aa52a4aa473a1d7e629f1ce6b2b1a3f8623a132a01077",
  "number": 97198,
  "timestamp": 1439752458,
  "nonce": "0xc2876779283713d6",
  "difficulty": 3765059540582,
  "gasLimit": {
    "_hex": "0x2fefd8"
  },
  "gasUsed": {
    "_hex": "0x5208"
  },
  "miner": "0x9c138F36D624fbF52f1c898A30980d78859A446A",
  "extraData": "0x476574682f76312e302e312f77696e646f77732f676f312e342e32",
  "transactions": [
    {
      "hash": "0x740d13228724da9e24d8d007e01a916b0958af851220606abb885a751465ee3c",
      "blockHash": "0x9e77427de97345a8406cf0ff4b82eae89d9b56b94798cea627de3cc97e81c8d5",
      "blockNumber": 97198,
      "transactionIndex": 0,
      "confirmations": null,
      "from": "0x7339BF89A60F8a29d0Ed436F3198774F8e191f37",
      "gasPrice": {
        "_hex": "0xcd0cdc34a"
      },
      "gasLimit": {
        "_hex": "0x5208"
      },
      "to": "0x32Be343B94f860124dC4fEe278FDCBD38C102D88",
      "value": {
        "_hex": "0x4797e560501ea800"
      },
      "nonce": 7,
      "data": "0x",
      "r": "0x3923b29429c78c59e0e4bb8bb26aade6b1d6c2a7dfe614b0a4f93bf59e502570",
      "s": "0x1c02f0a22a94d7de1e4615724186d17fd77720c98164150db220a564db7bfbda",
      "v": 27,
      "creates": null,
      "raw": "0xf86c07850cd0cdc34a8252089432be343b94f860124dc4fee278fdcbd38c102d88884797e560501ea800801ba03923b29429c78c59e0e4bb8bb26aade6b1d6c2a7dfe614b0a4f93bf59e502570a01c02f0a22a94d7de1e4615724186d17fd77720c98164150db220a564db7bfbda",
      "networkId": 0,
      "chainId": 0
    }
  ]
}