{
  "hash": "0xfd19e331b6aab6580abb043acee7edf20fc30509004b93610f480b60026e7ec0",
  "parentHash": "0xb3bcd05f08cef5639912b879c675c5d1f65087b90f38e7fc131336b47ac171b0",
  "number": 99013,
  "timestamp": 1439782809,
  "nonce": "0x02a43007b085c9e1",
  "difficulty": 3840362807708,
  "gasLimit": {
    "_hex": "0x2fefd8"
  },
  "gasUsed": {
    "_hex": "0x5208"
  },
  "miner": "0x0eDEd3DA479d0beF8eeC92A76644D3f4E3C177f7",
  "extraData": "0x476574682f76312e302e312f6c696e75782f676f312e342e32",
  "transactions": [
    {
      "hash": "0x8aa65fabe7395b20fcf0e191667ec1e97fef8e3ae8de8b8080d96c413ff7ee9b",
      "blockHash": "0xfd19e331b6aab6580abb043acee7edf20fc30509004b93610f480b60026e7ec0",
      "blockNumber": 99013,
      "transactionIndex": 0,
      "confirmations": null,
      "from": "0xEeEF7b645016C97Fa22E2B9FA68008c0F7a8E825",
      "gasPrice": {
        "_hex": "0xdabb62da9"
      },
      "gasLimit": {
        "_hex": "0x5208"
      },
      "to": "0x32Be343B94f860124dC4fEe278FDCBD38C102D88",
      "value": {
        "_hex": "0x56bc2f290d7f0c000"
      },
      "nonce": 1,
      "data": "0x",
      "r": "0x3a019cefc9356589b21b29fd1b374b94ec75513afc056e2eec6a3212c4308a84",
      "s": "0x055a37886297422be274f68a18415ab6fa5f5f182d61ce9b34f8db2aa29daa7b",
      "v": 27,
      "creates": null,
      "raw": "0xf86d01850dabb62da98252089432be343b94f860124dc4fee278fdcbd38c102d8889056bc2f290d7f0c000801ba03a019cefc9356589b21b29fd1b374b94ec75513afc056e2eec6a3212c4308a84a0055a37886297422be274f68a18415ab6fa5f5f182d61ce9b34f8db2aa29daa7b",
      "networkId": 0,
      "chainId": 0
    }
  ]
}