{
  "hash": "0x28f7fa008d5484ce60c568c4cd79feb6446066f97e216332aef0e92efbcebe4d",
  "parentHash": "0xc4760656bbd14ca4e362a6fd2724d990673c8225e64c72fde28a056e1f2e43d6",
  "number": 103955,
  "timestamp": 1439861770,
  "nonce": "0x54754859dc3d6218",
  "difficulty": 4265018289808,
  "gasLimit": {
    "_hex": "0x2fefd8"
  },
  "gasUsed": {
    "_hex": "0x546c"
  },
  "miner": "0x0D70592F27eC3d8996b4317150B3eD8C0CD57e38",
  "extraData": "0x476574682f76312e302e312f6c696e75782f676f312e342e32",
  "transactions": [
    {
      "hash": "0xa2075cb5f3b285c3e87033e56fddf0dc99272c6553bc90e27df9401c5c1d62b9",
      "blockHash": "0x28f7fa008d5484ce60c568c4cd79feb6446066f97e216332aef0e92efbcebe4d",
      "blockNumber": 103955,
      "transactionIndex": 0,
      "confirmations": null,
      "from": "0xE3712701619ca7623c55DB3a0AD30e867Db0168B",
      "gasPrice": {
        "_hex": "0x110c8f7d8de"
      },
      "gasLimit": {
        "_hex": "0xc350"
      },
      "to": "0x2910543Af39abA0Cd09dBb2D50200b3E800A63D2",
      "value": {
        "_hex": "0x16345785d8a0000"
      },
      "nonce": 1,
      "data": "0x4d4f59594557484f4e",
      "r": "0x7844002f97c35163ddee692efb0c563c2a119a57cd8357eaffeb76f5c7ced614",
      "s": "0x218ed317528ace1b56cf5d3a13729bbbaa6c5084206b32c52f3b94714f4eaead",
      "v": 27,
      "creates": null,
      "raw": "0xf87601860110c8f7d8de82c350942910543af39aba0cd09dbb2d50200b3e800a63d288016345785d8a0000894d4f59594557484f4e1ba07844002f97c35163ddee692efb0c563c2a119a57cd8357eaffeb76f5c7ced614a0218ed317528ace1b56cf5d3a13729bbbaa6c5084206b32c52f3b94714f4eaead",
      "networkId": 0,
      "chainId": 0
    }
  ]
}