{
  "hash": "0xe24c24fe69e18cc48d5ecd67924b286f1583029fd7af12c54c64bd310ca80afd",
  "parentHash": "0x10411dbd7532e3c8115c938284fadf1235c81860533eec6c4ae03ec048fd5b44",
  "number": 65293,
  "timestamp": 1439234430,
  "nonce": "0x3dcd7c291687d4ec",
  "difficulty": 1946421925322,
  "gasLimit": {
    "_hex": "0x2fefd8"
  },
  "gasUsed": {
    "_hex": "0x17cd8"
  },
  "miner": "0x88D74a59454F6cF3B51ef6b9136AFb6b9D405A88",
  "extraData": "0x476574682f76312e302e312d38326566323666362f6c696e75782f676f312e34",
  "transactions": [
    {
      "hash": "0x07134d8da409d23c41514cd5f66069fd6eb12889f4ae6687170561137716200d",
      "blockHash": "0xe24c24fe69e18cc48d5ecd67924b286f1583029fd7af12c54c64bd310ca80afd",
      "blockNumber": 65293,
      "transactionIndex": 0,
      "confirmations": null,
      "from": "0x11511DC0B60AEC4198353b797FE30498F14fb2e9",
      "gasPrice": {
        "_hex": "0xba43b7400"
      },
      "gasLimit": {
        "_hex": "0x15f90"
      },
      "to": "0x793AE8C1b1a160BFc07BFB0d04F85eab1A71F4f2",
      "value": {
        "_hex": "0x0"
      },
      "nonce": 0,
      "data": "0x3ba15036",
      "r": "0x79eaecdd51146bd1f06947b2113dbe8f30ec3d15b24795d83b72aba90ac63e24",
      "s": "0x1a4ac4e4e04de31c8e95c9f8192bf54f3848891ad0b68316636e9ff104b2d42b",
      "v": 28,
      "creates": null,
      "raw": "0xf86980850ba43b740083015f9094793ae8c1b1a160bfc07bfb0d04f85eab1a71f4f280843ba150361ca079eaecdd51146bd1f06947b2113dbe8f30ec3d15b24795d83b72aba90ac63e24a01a4ac4e4e04de31c8e95c9f8192bf54f3848891ad0b68316636e9ff104b2d42b",
      "networkId": 0,
      "chainId": 0
    },
    {
      "hash": "0x7164a0a0001feb25b299a8744b85b7001f204c798d431de41d2079581510d037",
      "blockHash": "0xe24c24fe69e18cc48d5ecd67924b286f1583029fd7af12c54c64bd310ca80afd",
      "blockNumber": 65293,
      "transactionIndex": 1,
      "confirmations": null,
      "from": "0x05ED11E01706D9C8E9067D78C7802f64afc4016f",
      "gasPrice": {
        "_hex": "0xba43b7400"
      },
      "gasLimit": {
        "_hex": "0x15f90"
      },
      "to": "0x793AE8C1b1a160BFc07BFB0d04F85eab1A71F4f2",
      "value": {
        "_hex": "0x0"
      },
      "nonce": 0,
      "data": "0x3ba15036",
      "r": "0xc4de3055c8b40e1629d044584e7465e51989b97e02c2d144dfaa4beaad65effc",
      "s": "0x66bc75abf862578ea94a0c7b8ac8cd40de0949d06486cc28e8e309855f94278a",
      "v": 28,
      "creates": null,
      "raw": "0xf86980850ba43b740083015f9094793ae8c1b1a160bfc07bfb0d04f85eab1a71f4f280843ba150361ca0c4de3055c8b40e1629d044584e7465e51989b97e02c2d144dfaa4beaad65effca066bc75abf862578ea94a0c7b8ac8cd40de0949d06486cc28e8e309855f94278a",
      "networkId": 0,
      "chainId": 0
    }
  ]
}