{
  "hash": "0x937d3aa4d98530d74dcec85ddf07db530de846434bbaad5f86d5ad7b43bae4c7",
  "parentHash": "0x55867d40c329a5d7ba70ec2366d86e47a9a8919f741cc88d4d72f102f2b293a5",
  "number": 74265,
  "timestamp": 1439383278,
  "nonce": "0x934532ead19a52d4",
  "difficulty": 2209691534682,
  "gasLimit": {
    "_hex": "0x2fefd8"
  },
  "gasUsed": {
    "_hex": "0x47c70"
  },
  "miner": "0x0eDEd3DA479d0beF8eeC92A76644D3f4E3C177f7",
  "extraData": "0x476574682f76312e302e312f6c696e75782f676f312e342e32",
  "transactions": [
    {
      "hash": "0x100fd29a0ddac0872af433f4fe71cd973c85dc6895bc6a7e5ffbd046a6cca453",
      "blockHash": "0x937d3aa4d98530d74dcec85ddf07db530de846434bbaad5f86d5ad7b43bae4c7",
      "blockNumber": 74265,
      "transactionIndex": 0,
      "confirmations": null,
      "from": "0xe6A7a1d47ff21B6321162AEA7C6CB457D5476Bca",
      "gasPrice": {
        "_hex": "0xd5c69a265"
      },
      "gasLimit": {
        "_hex": "0x55f0"
      },
      "to": "0x3175a28CF6105466923f11bFFabD279F162aa2f8",
      "value": {
        "_hex": "0xb6983c101f613e50"
      },
      "nonce": 896,
      "data": "0x",
      "r": "0xb880bfd96ee3e19f513b63867efcf20206779e88469242b2ed4124d652b23e49",
      "s": "0x53b5f65d116371ac8fdee40b65044a4f21207b9d9d4dc438b7a58d7b8bf771bf",
      "v": 27,
      "creates": null,
      "raw": "0xf86e820380850d5c69a2658255f0943175a28cf6105466923f11bffabd279f162aa2f888b6983c101f613e50801ba0b880bfd96ee3e19f513b63867efcf20206779e88469242b2ed4124d652b23e49a053b5f65d116371ac8fdee40b65044a4f21207b9d9d4dc438b7a58d7b8bf771bf",
      "networkId": 0,
      "chainId": 0
    },
    {
      "hash": "0xe5db29ef5670d4fc93815e2442afee40d9f081ff07de529ef3cd0995483e1d53",
      "blockHash": "0x937d3aa4d98530d74dcec85ddf07db530de846434bbaad5f86d5ad7b43bae4c7",
      "blockNumber": 74265,
      "transactionIndex": 1,
      "confirmations": null,
      "from": "0xe6A7a1d47ff21B6321162AEA7C6CB457D5476Bca",
      "gasPrice": {
        "_hex": "0xd5c69a265"
      },
      "gasLimit": {
        "_hex": "0x55f0"
      },
      "to": "0xeD3Fe86896534C24D9F91232faE34b78DFf3c1f4",
      "value": {
        "_hex": "0xb7c98c22b1b6d078"
      },
      "nonce": 897,
      "data": "0x",
      "r": "0x639d4bd92d455912545766ce04945eff2bb3cd0b3b3fc8aa7bf1f5f030018162",
      "s": "0x6e1098dae583b6e7a861640065ec7125f72a047a021ea40196b797db90e92562",
      "v": 27,
      "creates": null,
      "raw": "0xf86e820381850d5c69a2658255f094ed3fe86896534c24d9f91232fae34b78dff3c1f488b7c98c22b1b6d078801ba0639d4bd92d455912545766ce04945eff2bb3cd0b3b3fc8aa7bf1f5f030018162a06e1098dae583b6e7a861640065ec7125f72a047a021ea40196b797db90e92562",
      "networkId": 0,
      "chainId": 0
    },
    {
      "hash": "0xb03bda2754e232604a9a3094a2dd4f3cf89a1e9e85ada4334998ce9f3510c016",
      "blockHash": "0x937d3aa4d98530d74dcec85ddf07db530de846434bbaad5f86d5ad7b43bae4c7",
      "blockNumber": 74265,
      "transactionIndex": 2,
      "confirmations": null,
      "from": "0xe6A7a1d47ff21B6321162AEA7C6CB457D5476Bca",
      "gasPrice": {
        "_hex": "0xd5c69a265"
      },
      "gasLimit": {
        "_hex": "0x55f0"
      },
      "to": "0x31353beec2eD3DFfC213c27A9F28ad8dfee828e9",
      "value": {
        "_hex": "0xbf99a3fc1875d660"
      },
      "nonce": 898,
      "data": "0x",
      "r": "0xf3dc04e538b61280b9fb42e8666ea7bb83ae45fb9af3bdaff31e52c31a33cf72",
      "s": "0x5fb684ba373d66db88f4d7bf2f01e1ebc9432aa8095dc595a56d81e053e899be",
      "v": 27,
      "creates": null,
      "raw": "0xf86e820382850d5c69a2658255f09431353beec2ed3dffc213c27a9f28ad8dfee828e988bf99a3fc1875d660801ba0f3dc04e538b61280b9fb42e8666ea7bb83ae45fb9af3bdaff31e52c31a33cf72a05fb684ba373d66db88f4d7bf2f01e1ebc9432aa8095dc595a56d81e053e899be",
      "networkId": 0,
      "chainId": 0
    },
    {
      "hash": "0x1bbc266eccc64e8a60cb5a7b05b702200793840128881741be914aca5a4a8ff1",
      "blockHash": "0x937d3aa4d98530d74dcec85ddf07db530de846434bbaad5f86d5ad7b43bae4c7",
      "blockNumber": 74265,
      "transactionIndex": 3,
      "confirmations": null,
      "from": "0xe6A7a1d47ff21B6321162AEA7C6CB457D5476Bca",
      "gasPrice": {
        "_hex": "0xd5c69a265"
      },
      "gasLimit": {
        "_hex": "0x55f0"
      },
      "to": "0x94b20d3d932AA82aD71b86b904A3D769689351b4",
      "value": {
        "_hex": "0xc32239bf5e252820"
      },
      "nonce": 899,
      "data": "0x",
      "r": "0xacb3e8dad9310ad8045d1a3585c1862436207d43a8ff3c9ad9d4f6074ed68f5a",
      "s": "0x25d6b5f92b4c285a7e77d35a560838d477ae3b25de94bf62e7e6191b721531b9",
      "v": 27,
      "creates": null,
      "raw": "0xf86e820383850d5c69a2658255f09494b20d3d932aa82ad71b86b904a3d769689351b488c32239bf5e252820801ba0acb3e8dad9310ad8045d1a3585c1862436207d43a8ff3c9ad9d4f6074ed68f5aa025d6b5f92b4c285a7e77d35a560838d477ae3b25de94bf62e7e6191b721531b9",
      "networkId": 0,
      "chainId": 0
    },
    {
      "hash": "0x71865e711198dac00e8e7677cdf7e9e84c1ecc53147ba1da3d093a588157a713",
      "blockHash": "0x937d3aa4d98530d74dcec85ddf07db530de846434bbaad5f86d5ad7b43bae4c7",
      "blockNumber": 74265,
      "transactionIndex": 4,
      "confirmations": null,
      "from": "0xe6A7a1d47ff21B6321162AEA7C6CB457D5476Bca",
      "gasPrice": {
        "_hex": "0xd5c69a265"
      },
      "gasLimit": {
        "_hex": "0x55f0"
      },
      "to": "0x9Fa9952255B2b06639A04D63804d4BdFFf6E2d7e",
      "value": {
        "_hex": "0xc9235bb220f57e70"
      },
      "nonce": 900,
      "data": "0x",
      "r": "0xf25bb3f0eae599790a4b9274cd2b3e7b77a640168954db762b82187367786e7c",
      "s": "0x760d77d6a6a7a4f13b2aa4d90bdd098043b319640cbbf269dab23a77ee452b97",
      "v": 27,
      "creates": null,
      "raw": "0xf86e820384850d5c69a2658255f0949fa9952255b2b06639a04d63804d4bdfff6e2d7e88c9235bb220f57e70801ba0f25bb3f0eae599790a4b9274cd2b3e7b77a640168954db762b82187367786e7ca0760d77d6a6a7a4f13b2aa4d90bdd098043b319640cbbf269dab23a77ee452b97",
      "networkId": 0,
      "chainId": 0
    },
    {
      "hash": "0xcb99a73bfac08554b387692c11bd50090830e6b4fbafd8458ff8d48a0a1ca1fe",
      "blockHash": "0x937d3aa4d98530d74dcec85ddf07db530de846434bbaad5f86d5ad7b43bae4c7",
      "blockNumber": 74265,
      "transactionIndex": 5,
      "confirmations": null,
      "from": "0xe6A7a1d47ff21B6321162AEA7C6CB457D5476Bca",
      "gasPrice": {
        "_hex": "0xd5c69a265"
      },
      "gasLimit": {
        "_hex": "0x55f0"
      },
      "to": "0x573fA39ba232a67268788CE9D5a7Bd8426856A6d",
      "value": {
        "_hex": "0xca4460a51b66c918"
      },
      "nonce": 901,
      "data": "0x",
      "r": "0x863ba361af7e1117d0a8930aa83d0bc37aa870ef76bb0d8597f8bd3e78575a8d",
      "s": "0x14aa580222358c7b4e32b90444915fe3d2ce22d96a5ea8576f55453fb36c2ab6",
      "v": 28,
      "creates": null,
      "raw": "0xf86e820385850d5c69a2658255f094573fa39ba232a67268788ce9d5a7bd8426856a6d88ca4460a51b66c918801ca0863ba361af7e1117d0a8930aa83d0bc37aa870ef76bb0d8597f8bd3e78575a8da014aa580222358c7b4e32b90444915fe3d2ce22d96a5ea8576f55453fb36c2ab6",
      "networkId": 0,
      "chainId": 0
    },
    {
      "hash": "0xaa81ce319d6fa71c7853b63d21c56700658ee68be79ff886917084c84aacdc02",
      "blockHash": "0x937d3aa4d98530d74dcec85ddf07db530de846434bbaad5f86d5ad7b43bae4c7",
      "blockNumber": 74265,
      "transactionIndex": 6,
      "confirmations": null,
      "from": "0xe6A7a1d47ff21B6321162AEA7C6CB457D5476Bca",
      "gasPrice": {
        "_hex": "0xd5c69a265"
      },
      "gasLimit": {
        "_hex": "0x55f0"
      },
      "to": "0x842aC76913Df36aFcbdfE5fA4872759ed84210Bf",
      "value": {
        "_hex": "0xcea0269e53cc6848"
      },
      "nonce": 902,
      "data": "0x",
      "r": "0xd67fbf15359861200631654248aecae42e5dc41da3e3fdff9435642a238cd7f3",
      "s": "0x3ffc67423cc5a34fb8f2c626d5987c81bc3ceaf92c5a4356366997fc14d23df4",
      "v": 28,
      "creates": null,
      "raw": "0xf86e820386850d5c69a2658255f094842ac76913df36afcbdfe5fa4872759ed84210bf88cea0269e53cc6848801ca0d67fbf15359861200631654248aecae42e5dc41da3e3fdff9435642a238cd7f3a03ffc67423cc5a34fb8f2c626d5987c81bc3ceaf92c5a4356366997fc14d23df4",
      "networkId": 0,
      "chainId": 0
    },
    {
      "hash": "0x9b8d643bee88d236fbfccf090a929e7bd4e3e6c1c9fe801224d9699f2092c0b3",
      "blockHash": "0x937d3aa4d98530d74dcec85ddf07db530de846434bbaad5f86d5ad7b43bae4c7",
      "blockNumber": 74265,
      "transactionIndex": 7,
      "confirmations": null,
      "from": "0xe6A7a1d47ff21B6321162AEA7C6CB457D5476Bca",
      "gasPrice": {
        "_hex": "0xd5c69a265"
      },
      "gasLimit": {
        "_hex": "0x55f0"
      },
      "to": "0xB6AC12CefF0375Da80503AcCa54bf3061Fa917a8",
      "value": {
        "_hex": "0xcf1201c5c1a88738"
      },
      "nonce": 903,
      "data": "0x",
      "r": "0x9551a905a72d695adb67c01c7ce72775529bc126b540699b56afb6d655313e7e",
      "s": "0x1fef96b380859fb3833e33512d30df12229f0eb5ca60ad216951c35204a809e1",
      "v": 27,
      "creates": null,
      "raw": "0xf86e820387850d5c69a2658255f094b6ac12ceff0375da80503acca54bf3061fa917a888cf1201c5c1a88738801ba09551a905a72d695adb67c01c7ce72775529bc126b540699b56afb6d655313e7ea01fef96b380859fb3833e33512d30df12229f0eb5ca60ad216951c35204a809e1",
      "networkId": 0,
      "chainId": 0
    },
    {
      "hash": "0xe3fe785c6b4d490e25eb4d3ddf91c19c87b88e364c6067f610df9ad13d60d795",
      "blockHash": "0x937d3aa4d98530d74dcec85ddf07db530de846434bbaad5f86d5ad7b43bae4c7",
      "blockNumber": 74265,
      "transactionIndex": 8,
      "confirmations": null,
      "from": "0xCCe96724c29e042F35bCe1c2405feB0e8E30082b",
      "gasPrice": {
        "_hex": "0xd0d4564f6"
      },
      "gasLimit": {
        "_hex": "0x5208"
      },
      "to": "0x32Be343B94f860124dC4fEe278FDCBD38C102D88",
      "value": {
        "_hex": "0x4fe5e65dfc29ec00"
      },
      "nonce": 0,
      "data": "0x",
      "r": "0x638e5608663cbafc7a77dc783ee14642d6a744c410411cbf174dae8caeb24056",
      "s": "0x3385f7fd6f7773433d326be9c9122851eb96489ca4ec238714c52f41eecbfd14",
      "v": 27,
      "creates": null,
      "raw": "0xf86c80850d0d4564f68252089432be343b94f860124dc4fee278fdcbd38c102d88884fe5e65dfc29ec00801ba0638e5608663cbafc7a77dc783ee14642d6a744c410411cbf174dae8caeb24056a03385f7fd6f7773433d326be9c9122851eb96489ca4ec238714c52f41eecbfd14",
      "networkId": 0,
      "chainId": 0
    },
    {
      "hash": "0x021a8d5703c21f5756c8f47054e57078d0ce55950fd4fec6ad54ac2fb5e7d7ed",
      "blockHash": "0x937d3aa4d98530d74dcec85ddf07db530de846434bbaad5f86d5ad7b43bae4c7",
      "blockNumber": 74265,
      "transactionIndex": 9,
      "confirmations": null,
      "from": "0x8263B7757b139904C7cD8511B3D0a6D1479848Ba",
      "gasPrice": {
        "_hex": "0xce9c969f4"
      },
      "gasLimit": {
        "_hex": "0x5208"
      },
      "to": "0x32Be343B94f860124dC4fEe278FDCBD38C102D88",
      "value": {
        "_hex": "0x4fdda5af06b8dc00"
      },
      "nonce": 0,
      "data": "0x",
      "r": "0x637d7ee0e9380fdba155a1c0b64db87e3167989af08322129d5a6ac0879cb08e",
      "s": "0x09f7ca03a4247ee128b8a4a19e5396a13526d01ae5cc5d713e6e3b61a19fd009",
      "v": 27,
      "creates": null,
      "raw": "0xf86c80850ce9c969f48252089432be343b94f860124dc4fee278fdcbd38c102d88884fdda5af06b8dc00801ba0637d7ee0e9380fdba155a1c0b64db87e3167989af08322129d5a6ac0879cb08ea009f7ca03a4247ee128b8a4a19e5396a13526d01ae5cc5d713e6e3b61a19fd009",
      "networkId": 0,
      "chainId": 0
    },
    {
      "hash": "0xb1675ce3d664c0b35a76093e895106069f52b37d7ed4e66380c16c1a272b6eab",
      "blockHash": "0x937d3aa4d98530d74dcec85ddf07db530de846434bbaad5f86d5ad7b43bae4c7",
      "blockNumber": 74265,
      "transactionIndex": 10,
      "confirmations": null,
      "from": "0xBf2E71Ec98f4FAbfFC80EAc8f941ce73d5e02E9b",
      "gasPrice": {
        "_hex": "0xce9c969f4"
      },
      "gasLimit": {
        "_hex": "0x5208"
      },
      "to": "0x32Be343B94f860124dC4fEe278FDCBD38C102D88",
      "value": {
        "_hex": "0x51f99b61a7a72c00"
      },
      "nonce": 0,
      "data": "0x",
      "r": "0x8dbd922160cf2b8b0407ffcd406c97e62665f8d1907647f29ac01076e2f8566d",
      "s": "0x1e21eb0cacab8dd3635344b085322f67938c07480969e5c77f80f8ef8d1b50f7",
      "v": 27,
      "creates": null,
      "raw": "0xf86c80850ce9c969f48252089432be343b94f860124dc4fee278fdcbd38c102d888851f99b61a7a72c00801ba08dbd922160cf2b8b0407ffcd406c97e62665f8d1907647f29ac01076e2f8566da01e21eb0cacab8dd3635344b085322f67938c07480969e5c77f80f8ef8d1b50f7",
      "networkId": 0,
      "chainId": 0
    },
    {
      "hash": "0x92cf52b624058f825636b6dfd8270a3bb6f2589a37787145e2bb3ac5e873f305",
      "blockHash": "0x937d3aa4d98530d74dcec85ddf07db530de846434bbaad5f86d5ad7b43bae4c7",
      "blockNumber": 74265,
      "transactionIndex": 11,
      "confirmations": null,
      "from": "0xe512429AB3036301dC4c56F9a4c9991dCbb6b496",
      "gasPrice": {
        "_hex": "0xce9c969f4"
      },
      "gasLimit": {
        "_hex": "0x5208"
      },
      "to": "0x32Be343B94f860124dC4fEe278FDCBD38C102D88",
      "value": {
        "_hex": "0x3e95fa2e9d8b2000"
      },
      "nonce": 0,
      "data": "0x",
      "r": "0xeebd60c5a8e69f8ce77ccbde3cc6cc06db5e32ff1d988b135d70377dcb8895ac",
      "s": "0x36eff194d9cf5f54e1985d1ce6d6f1ed0af7f8a8b03a0510f58e6613699ecba6",
      "v": 27,
      "creates": null,
      "raw": "0xf86c80850ce9c969f48252089432be343b94f860124dc4fee278fdcbd38c102d88883e95fa2e9d8b2000801ba0eebd60c5a8e69f8ce77ccbde3cc6cc06db5e32ff1d988b135d70377dcb8895aca036eff194d9cf5f54e1985d1ce6d6f1ed0af7f8a8b03a0510f58e6613699ecba6",
      "networkId": 0,
      "chainId": 0
    },
    {
      "hash": "0xa3fcb78f72f0710cf77ea7bef163690520e11d1b134d0071151f628aaa41bc63",
      "blockHash": "0x937d3aa4d98530d74dcec85ddf07db530de846434bbaad5f86d5ad7b43bae4c7",
      "blockNumber": 74265,
      "transactionIndex": 12,
      "confirmations": null,
      "from": "0x7bC11D546783d2e3b7Bb2241D5f43Fb2611C3B98",
      "gasPrice": {
        "_hex": "0xce9c969f4"
      },
      "gasLimit": {
        "_hex": "0x5208"
      },
      "to": "0x32Be343B94f860124dC4fEe278FDCBD38C102D88",
      "value": {
        "_hex": "0x1d1e7dc000b0a800"
      },
      "nonce": 0,
      "data": "0x",
      "r": "0xc482582b4ab3dc18ca79204e9e608497dbfe69a6ab09268f0d77d5d9cf2f7967",
      "s": "0x5180089cb75284b02fcd92f8f76e0345d7989d01fdd5198b71c4a6fb4713e065",
      "v": 27,
      "creates": null,
      "raw": "0xf86c80850ce9c969f48252089432be343b94f860124dc4fee278fdcbd38c102d88881d1e7dc000b0a800801ba0c482582b4ab3dc18ca79204e9e608497dbfe69a6ab09268f0d77d5d9cf2f7967a05180089cb75284b02fcd92f8f76e0345d7989d01fdd5198b71c4a6fb4713e065",
      "networkId": 0,
      "chainId": 0
    },
    {
      "hash": "0xb19dd76ac4e6b1fc8497d9d934febb90586af99f8f19082b7fc5c5b8c26a628b",
      "blockHash": "0x937d3aa4d98530d74dcec85ddf07db530de846434bbaad5f86d5ad7b43bae4c7",
      "blockNumber": 74265,
      "transactionIndex": 13,
      "confirmations": null,
      "from": "0x629e35e0A481d821293F354E0dD27E43a354D061",
      "gasPrice": {
        "_hex": "0xce9c969f4"
      },
      "gasLimit": {
        "_hex": "0x5208"
      },
      "to": "0x32Be343B94f860124dC4fEe278FDCBD38C102D88",
      "value": {
        "_hex": "0x4a0117e39482e800"
      },
      "nonce": 0,
      "data": "0x",
      "r": "0x92459b52efab4dc333fb8e3db7cc0c600146e32ab246e1032febc02e5533971e",
      "s": "0x6a8fcc67186b8b41fbcd0e916f05656e206b5e69a3712ef1e2096db614a4bdaa",
      "v": 28,
      "creates": null,
      "raw": "0xf86c80850ce9c969f48252089432be343b94f860124dc4fee278fdcbd38c102d88884a0117e39482e800801ca092459b52efab4dc333fb8e3db7cc0c600146e32ab246e1032febc02e5533971ea06a8fcc67186b8b41fbcd0e916f05656e206b5e69a3712ef1e2096db614a4bdaa",
      "networkId": 0,
      "chainId": 0
    }
  ]
}