{
  "hash": "0x1533378d70b532d8d298cbf918fb558d56c0c40478dbfe9da78fbd61131b1028",
  "parentHash": "0xfdaa1b06cf1e692e4b6168648b3966d5fb3f4c974b37817cd260c65f39c398a9",
  "number": 62777,
  "timestamp": 1439194205,
  "nonce": "0xaf0dce8fa29b47bf",
  "difficulty": 1769309884921,
  "gasLimit": {
    "_hex": "0x2fe3de"
  },
  "gasUsed": {
    "_hex": "0x546c"
  },
  "miner": "0x356CEFb4Eb836DC68403308309E075a31DD991D2",
  "extraData": "0x476574682f76312e302e302f6c696e75782f676f312e342e32",
  "transactions": [
    {
      "hash": "0xe710dacedcb76fee7d9ec7965466c567afd166fd2981d340420f01d9c952f74d",
      "blockHash": "0x1533378d70b532d8d298cbf918fb558d56c0c40478dbfe9da78fbd61131b1028",
      "blockNumber": 62777,
      "transactionIndex": 0,
      "confirmations": null,
      "from": "0x9c344098BA615A398F11D009905b177C44a7b602",
      "gasPrice": {
        "_hex": "0x1024d079644"
      },
      "gasLimit": {
        "_hex": "0x15f90"
      },
      "to": "0x2910543Af39abA0Cd09dBb2D50200b3E800A63D2",
      "value": {
        "_hex": "0x1b28c58d9696b40000"
      },
      "nonce": 8,
      "data": "0x454e515a3244355030",
      "r": "0x5ea97571293dd9709b7766128bd46af0eeef1ce6af6cfd5f77369acc14869303",
      "s": "0x775565f9b9207119b8d3816d4ddfcfa62a7fab77154f695c80bdc61f08ac5755",
      "v": 27,
      "creates": null,
      "raw": "0xf878088601024d07964483015f90942910543af39aba0cd09dbb2d50200b3e800a63d2891b28c58d9696b4000089454e515a32443550301ba05ea97571293dd9709b7766128bd46af0eeef1ce6af6cfd5f77369acc14869303a0775565f9b9207119b8d3816d4ddfcfa62a7fab77154f695c80bdc61f08ac5755",
      "networkId": 0,
      "chainId": 0
    }
  ]
}