{
  "hash": "0x345524b1114041ea27bc5f645c6b5ee22df434b3d2b7c45bdc2d4f91f14bdc08",
  "parentHash": "0x26a3634cb4ea03d02d54749f5fa8a2062315b6e0eb522e5020c9c8552ad7069a",
  "number": 106830,
  "timestamp": 1439911318,
  "nonce": "0xccb7459d9e52aaf0",
  "difficulty": 4426908131947,
  "gasLimit": {
    "_hex": "0x2fefd8"
  },
  "gasUsed": {
    "_hex": "0x5208"
  },
  "miner": "0xe6A7a1d47ff21B6321162AEA7C6CB457D5476Bca",
  "extraData": "0x476574682f76312e302e312d38326566323666362f6c696e75782f676f312e34",
  "transactions": [
    {
      "hash": "0xef556c5989257034bd03ecf7dd5b31701b2873aa893b4b40e1ccfb1d81f57f06",
      "blockHash": "0x345524b1114041ea27bc5f645c6b5ee22df434b3d2b7c45bdc2d4f91f14bdc08",
      "blockNumber": 106830,
      "transactionIndex": 0,
      "confirmations": null,
      "from": "0xfFcD9CAE6d9f54fd8ae05296F839892677ff6EaA",
      "gasPrice": {
        "_hex": "0xce9d5fa37"
      },
      "gasLimit": {
        "_hex": "0x15f90"
      },
      "to": "0xd5d9a0033e6B0A3ba7634d0e1a9055ad5f452C3D",
      "value": {
        "_hex": "0x3cb71f51fc5580000"
      },
      "nonce": 7,
      "data": "0x",
      "r": "0x4c82283c731513e13ea56862279418b58d9bd49b9ff9ca6801432bcbcccca7a3",
      "s": "0x64dc73c0f01c14212c8ebb340247a50b250ebffb9a1509711369f34d4da35ac5",
      "v": 27,
      "creates": null,
      "raw": "0xf86e07850ce9d5fa3783015f9094d5d9a0033e6b0a3ba7634d0e1a9055ad5f452c3d8903cb71f51fc5580000801ba04c82283c731513e13ea56862279418b58d9bd49b9ff9ca6801432bcbcccca7a3a064dc73c0f01c14212c8ebb340247a50b250ebffb9a1509711369f34d4da35ac5",
      "networkId": 0,
      "chainId": 0
    }
  ]
}