{
  "hash": "0x8bee34f1c76f87a4dfa27f6ea56c56e5cc3912d7d15d747f545b20fa234736af",
  "parentHash": "0x85a100b6eb746f1539de40526023f8c68c423e35145c59d90081cf0735711b74",
  "number": 115117,
  "timestamp": 1440051658,
  "nonce": "0x724042c8ffd5d652",
  "difficulty": 4538481217868,
  "gasLimit": {
    "_hex": "0x2fefd8"
  },
  "gasUsed": {
    "_hex": "0xa410"
  },
  "miner": "0x0902CcD9E9eA1659837D8B4a5ea83C601F1F6744",
  "extraData": "0x476574682f76312e302e312d38326566323666362f6c696e75782f676f312e34",
  "transactions": [
    {
      "hash": "0xb58752e8533c692c7013dc07431ca843d6f8b3edc0a570fc55a99b334b39f9d3",
      "blockHash": "0x8bee34f1c76f87a4dfa27f6ea56c56e5cc3912d7d15d747f545b20fa234736af",
      "blockNumber": 115117,
      "transactionIndex": 0,
      "confirmations": null,
      "from": "0x32Be343B94f860124dC4fEe278FDCBD38C102D88",
      "gasPrice": {
        "_hex": "0xda067fac1"
      },
      "gasLimit": {
        "_hex": "0x5208"
      },
      "to": "0xA5ab30442100373e87AA2B87Cb448881f9Ec5AFd",
      "value": {
        "_hex": "0x56bc75e2d63100000"
      },
      "nonce": 1404,
      "data": "0x",
      "r": "0xc93b5895ed049386e0e6f3e452d383700cc674df971f05c715e5269636c3f63c",
      "s": "0x62ece97ecf4355c3f8300747ea55b3e98985f210e072f356b9aa762ec7744ce1",
      "v": 28,
      "creates": null,
      "raw": "0xf86f82057c850da067fac182520894a5ab30442100373e87aa2b87cb448881f9ec5afd89056bc75e2d63100000801ca0c93b5895ed049386e0e6f3e452d383700cc674df971f05c715e5269636c3f63ca062ece97ecf4355c3f8300747ea55b3e98985f210e072f356b9aa762ec7744ce1",
      "networkId": 0,
      "chainId": 0
    },
    {
      "hash": "0x5831f843c80697827d265d504e8c47527006439bef1cfe977a9a11e8c32225cc",
      "blockHash": "0x8bee34f1c76f87a4dfa27f6ea56c56e5cc3912d7d15d747f545b20fa234736af",
      "blockNumber": 115117,
      "transactionIndex": 1,
      "confirmations": null,
      "from": "0x32Be343B94f860124dC4fEe278FDCBD38C102D88",
      "gasPrice": {
        "_hex": "0xda067fac1"
      },
      "gasLimit": {
        "_hex": "0x5208"
      },
      "to": "0x663F37156fa35DBA128c9682f13D515b68002002",
      "value": {
        "_hex": "0x3cb71f51fc5580000"
      },
      "nonce": 1405,
      "data": "0x",
      "r": "0xbe3c84830d2477d009e1b4e0af8f9cd0bac93581263f877db4e5c1d2866de0a5",
      "s": "0x5c39c88bee40be9317329d122929bfc9688055173a78b5e0fa74759313d15222",
      "v": 28,
      "creates": null,
      "raw": "0xf86f82057d850da067fac182520894663f37156fa35dba128c9682f13d515b680020028903cb71f51fc5580000801ca0be3c84830d2477d009e1b4e0af8f9cd0bac93581263f877db4e5c1d2866de0a5a05c39c88bee40be9317329d122929bfc9688055173a78b5e0fa74759313d15222",
      "networkId": 0,
      "chainId": 0
    }
  ]
}