{
  "hash": "0xbc5cc2f7a4a8fbb166d26c5bc06ff7397ce31632580e72c64c9ef8e6dc1f8885",
  "parentHash": "0xe07a26e0e728d2e96715ed7dc8022c52b618fc93ec2f80071bb876d0aa94e571",
  "number": 101839,
  "timestamp": 1439828813,
  "nonce": "0x60e3375608a86cb8",
  "difficulty": 3888118137608,
  "gasLimit": {
    "_hex": "0x2fefd8"
  },
  "gasUsed": {
    "_hex": "0x5208"
  },
  "miner": "0xd70c667add50d3d9989Ef58A81a698c09f415Bff",
  "extraData": "0x",
  "transactions": [
    {
      "hash": "0xd62bf02a6fbda05f81fe1a0e72792f874f2ec981db519f81ec5c6abe73d4c24c",
      "blockHash": "0xbc5cc2f7a4a8fbb166d26c5bc06ff7397ce31632580e72c64c9ef8e6dc1f8885",
      "blockNumber": 101839,
      "transactionIndex": 0,
      "confirmations": null,
      "from": "0x007f7f58D3eb5b7510A301eCC749FC1fCDDBE14D",
      "gasPrice": {
        "_hex": "0xe0cfe7246"
      },
      "gasLimit": {
        "_hex": "0x15f90"
      },
      "to": "0xb1abce2918E21ddb93AA452731a12672A3d9F75a",
      "value": {
        "_hex": "0x4563918244f40000"
      },
      "nonce": 196,
      "data": "0x",
      "r": "0xa0afe0472384dbde6a48eee2867cce548e1f7a7fc5c3c22a996615d1f72db2d1",
      "s": "0x047d7f8b8c181a6200c7f36280142a4cc057dd25d6232668ac47bb8f277c97e8",
      "v": 27,
      "creates": null,
      "raw": "0xf86e81c4850e0cfe724683015f9094b1abce2918e21ddb93aa452731a12672a3d9f75a884563918244f40000801ba0a0afe0472384dbde6a48eee2867cce548e1f7a7fc5c3c22a996615d1f72db2d1a0047d7f8b8c181a6200c7f36280142a4cc057dd25d6232668ac47bb8f277c97e8",
      "networkId": 0,
      "chainId": 0
    }
  ]
}