{
  "hash": "0x378058a9497de852c089c5a91ed5756903970670cf81c3771de7301a792b0358",
  "parentHash": "0xb3b50ace4dc4493da351f6dadc63a2fda3af6acbf23adc20db668217985b694c",
  "number": 90813,
  "timestamp": 1439645867,
  "nonce": "0x91d42cffe90c29c2",
  "difficulty": 3399055078344,
  "gasLimit": {
    "_hex": "0x2fefd8"
  },
  "gasUsed": {
    "_hex": "0x5208"
  },
  "miner": "0xa6BDc31c431B8F97848c9D60cbbe9660dc450eB7",
  "extraData": "0x",
  "transactions": [
    {
      "hash": "0x3ca152b6360707defccf54dfe82493836692d465ef06d1b5f5317072312d18fa",
      "blockHash": "0x378058a9497de852c089c5a91ed5756903970670cf81c3771de7301a792b0358",
      "blockNumber": 90813,
      "transactionIndex": 0,
      "confirmations": null,
      "from": "0x10BD1134A760f6b35247e3cb33673a18bC95a7E7",
      "gasPrice": {
        "_hex": "0xd606428e3"
      },
      "gasLimit": {
        "_hex": "0x15f90"
      },
      "to": "0x55192e9eEF50b024e6800e4657590f33D1070545",
      "value": {
        "_hex": "0x16345785d8a0000"
      },
      "nonce": 1,
      "data": "0x",
      "r": "0x6110d2dc5080cc8a78bc5631314aca05f182a10794307345613f0354472886bf",
      "s": "0x002ac61eb9a486416d7b81c1a6e6ab5ee172481ffcae931e73f7d62658ea150c",
      "v": 27,
      "creates": null,
      "raw": "0xf86c01850d606428e383015f909455192e9eef50b024e6800e4657590f33d107054588016345785d8a0000801ba06110d2dc5080cc8a78bc5631314aca05f182a10794307345613f0354472886bf9f2ac61eb9a486416d7b81c1a6e6ab5ee172481ffcae931e73f7d62658ea150c",
      "networkId": 0,
      "chainId": 0
    }
  ]
}