{
  "hash": "0x3e9fce5bae7d2caf0860f961709c4df5dce4a48117c54e3ddf5e4f19b289e0aa",
  "parentHash": "0x0738d0d759ba3d3ef9e467a8f945519e13fdfe69cc6846ac6a470f50e7a8cccb",
  "number": 121171,
  "timestamp": 1440172608,
  "nonce": "0x831965b388959af6",
  "difficulty": 4404267037017,
  "gasLimit": {
    "_hex": "0x2fefd8"
  },
  "gasUsed": {
    "_hex": "0x33450"
  },
  "miner": "0xa6BDc31c431B8F97848c9D60cbbe9660dc450eB7",
  "extraData": "0x",
  "transactions": [
    {
      "hash": "0xdce6e3c13aa88aab96d9b23b1e50fa5336ab73ae0d98750425a4f6411eb76c06",
      "blockHash": "0x3e9fce5bae7d2caf0860f961709c4df5dce4a48117c54e3ddf5e4f19b289e0aa",
      "blockNumber": 121171,
      "transactionIndex": 0,
      "confirmations": null,
      "from": "0xE996d36DB289Ef8D9F0a9f9a903cc42fEA50CD4E",
      "gasPrice": {
        "_hex": "0xba43b7400"
      },
      "gasLimit": {
        "_hex": "0x5208"
      },
      "to": "0xC47Aaa860008be6f65B58c6C6E02a84e666EfE31",
      "value": {
        "_hex": "0x198b43905fc9ec80"
      },
      "nonce": 9,
      "data": "0x",
      "r": "0xc5a5e68b9abe009da9ac3659284e5a54454ee60fa38778571ea57fd9e7eb880e",
      "s": "0x2ca2aab483c1f48c9f819e30d25ba8fcdbda2b588d9d651a163d353bff4d7f7e",
      "v": 27,
      "creates": null,
      "raw": "0xf86c09850ba43b740082520894c47aaa860008be6f65b58c6c6e02a84e666efe3188198b43905fc9ec80801ba0c5a5e68b9abe009da9ac3659284e5a54454ee60fa38778571ea57fd9e7eb880ea02ca2aab483c1f48c9f819e30d25ba8fcdbda2b588d9d651a163d353bff4d7f7e",
      "networkId": 0,
      "chainId": 0
    },
    {
      "hash": "0x296c09d0c108bc6aaac89e30d70ba44461db162f229547a617171810995b3e4e",
      "blockHash": "0x3e9fce5bae7d2caf0860f961709c4df5dce4a48117c54e3ddf5e4f19b289e0aa",
      "blockNumber": 121171,
      "transactionIndex": 1,
      "confirmations": null,
      "from": "0x423F06030a6c726925816243446a11Ed6d40Ab99",
      "gasPrice": {
        "_hex": "0xba43b7400"
      },
      "gasLimit": {
        "_hex": "0x5208"
      },
      "to": "0xC47Aaa860008be6f65B58c6C6E02a84e666EfE31",
      "value": {
        "_hex": "0x17711d00928cc070"
      },
      "nonce": 10,
      "data": "0x",
      "r": "0x1f7f290b1b6fdfe60b16a73f24c44bcb52b54767bc00c5c3757a161a411f0ffb",
      "s": "0x58f64f73f6eed3b17e27f9b03348312fba2a50ac2fb563cc93c8f73ec6edbcd0",
      "v": 27,
      "creates": null,
      "raw": "0xf86c0a850ba43b740082520894c47aaa860008be6f65b58c6c6e02a84e666efe318817711d00928cc070801ba01f7f290b1b6fdfe60b16a73f24c44bcb52b54767bc00c5c3757a161a411f0ffba058f64f73f6eed3b17e27f9b03348312fba2a50ac2fb563cc93c8f73ec6edbcd0",
      "networkId": 0,
      "chainId": 0
    },
    {
      "hash": "0x0492b50574990ea7385cbe93af849e42ca609a7b8e89142a2ad5ae82c9b01aad",
      "blockHash": "0x3e9fce5bae7d2caf0860f961709c4df5dce4a48117c54e3ddf5e4f19b289e0aa",
      "blockNumber": 121171,
      "transactionIndex": 2,
      "confirmations": null,
      "from": "0xc9f1625E65Cda7A2aE5ea1EdF0107872A1baAC99",
      "gasPrice": {
        "_hex": "0xba43b7400"
      },
      "gasLimit": {
        "_hex": "0x5208"
      },
      "to": "0xC47Aaa860008be6f65B58c6C6E02a84e666EfE31",
      "value": {
        "_hex": "0x93a364e3ba1dc330"
      },
      "nonce": 5,
      "data": "0x",
      "r": "0x3af39d2dfbac471d08bcd431150210a23b710b43d5e720d3b47832236f0d4010",
      "s": "0x0a87332f4b95b122cac38aae7aa2b417885ec7dcb5f25ebf26d4e19a595a372e",
      "v": 28,
      "creates": null,
      "raw": "0xf86c05850ba43b740082520894c47aaa860008be6f65b58c6c6e02a84e666efe318893a364e3ba1dc330801ca03af39d2dfbac471d08bcd431150210a23b710b43d5e720d3b47832236f0d4010a00a87332f4b95b122cac38aae7aa2b417885ec7dcb5f25ebf26d4e19a595a372e",
      "networkId": 0,
      "chainId": 0
    },
    {
      "hash": "0xf0f5e8ed39d712cf278ac4b8b6c63ddc12d04c58977b2f0b482158015827f61f",
      "blockHash": "0x3e9fce5bae7d2caf0860f961709c4df5dce4a48117c54e3ddf5e4f19b289e0aa",
      "blockNumber": 121171,
      "transactionIndex": 3,
      "confirmations": null,
      "from": "0xEa63C59e990047BF874D6A47900521D711460B79",
      "gasPrice": {
        "_hex": "0xba43b7400"
      },
      "gasLimit": {
        "_hex": "0x5208"
      },
      "to": "0xC47Aaa860008be6f65B58c6C6E02a84e666EfE31",
      "value": {
        "_hex": "0xddcfbbb7a606000"
      },
      "nonce": 4,
      "data": "0x",
      "r": "0x4f5017d5133734f460e527151420482cd616b43dde571db36a8b93e19ccc30d2",
      "s": "0x0883fc30b4136ba2bf5587852ce5135504fcd61246b66fabceb7964327bf0891",
      "v": 28,
      "creates": null,
      "raw": "0xf86c04850ba43b740082520894c47aaa860008be6f65b58c6c6e02a84e666efe31880ddcfbbb7a606000801ca04f5017d5133734f460e527151420482cd616b43dde571db36a8b93e19ccc30d2a00883fc30b4136ba2bf5587852ce5135504fcd61246b66fabceb7964327bf0891",
      "networkId": 0,
      "chainId": 0
    },
    {
      "hash": "0x8b09c2680fd2bc9a98aa7c0c1703e74acc144ab6d051a73a5794f0f2ab5ecf83",
      "blockHash": "0x3e9fce5bae7d2caf0860f961709c4df5dce4a48117c54e3ddf5e4f19b289e0aa",
      "blockNumber": 121171,
      "transactionIndex": 4,
      "confirmations": null,
      "from": "0x1332996a46dcBBE02f9cF164Dfc153aB976a9766",
      "gasPrice": {
        "_hex": "0xba43b7400"
      },
      "gasLimit": {
        "_hex": "0x5208"
      },
      "to": "0xC47Aaa860008be6f65B58c6C6E02a84e666EfE31",
      "value": {
        "_hex": "0xdde3ac667dc3fa30"
      },
      "nonce": 16,
      "data": "0x",
      "r": "0x7dad5f5b50ec07a6f54e3bc38d18d3a7bc580507949c68b24067d9fac4f64e03",
      "s": "0x0ff62375edbeceeaa08cf4228c79e559759865536c3a65ef8523c61056be066d",
      "v": 27,
      "creates": null,
      "raw": "0xf86c10850ba43b740082520894c47aaa860008be6f65b58c6c6e02a84e666efe3188dde3ac667dc3fa30801ba07dad5f5b50ec07a6f54e3bc38d18d3a7bc580507949c68b24067d9fac4f64e03a00ff62375edbeceeaa08cf4228c79e559759865536c3a65ef8523c61056be066d",
      "networkId": 0,
      "chainId": 0
    },
    {
      "hash": "0xdf3686c3bfc8372ae559addcf76e5baf69c20503e91abe8329bc0bf4bf398cfb",
      "blockHash": "0x3e9fce5bae7d2caf0860f961709c4df5dce4a48117c54e3ddf5e4f19b289e0aa",
      "blockNumber": 121171,
      "transactionIndex": 5,
      "confirmations": null,
      "from": "0xcF9DD62019778E76a6B393f0ac4590f03A7429F7",
      "gasPrice": {
        "_hex": "0xba43b7400"
      },
      "gasLimit": {
        "_hex": "0x5208"
      },
      "to": "0xC47Aaa860008be6f65B58c6C6E02a84e666EfE31",
      "value": {
        "_hex": "0x4c0284babd19e9c0"
      },
      "nonce": 10,
      "data": "0x",
      "r": "0x86c52d740fda2eb65e0abce57b542312709a6eded2449ec01f1c6d6fae5278fe",
      "s": "0x4eed3218a58364f02906c1422534ff20df4983bcf829725cc3ea7efd7109aae6",
      "v": 27,
      "creates": null,
      "raw": "0xf86c0a850ba43b740082520894c47aaa860008be6f65b58c6c6e02a84e666efe31884c0284babd19e9c0801ba086c52d740fda2eb65e0abce57b542312709a6eded2449ec01f1c6d6fae5278fea04eed3218a58364f02906c1422534ff20df4983bcf829725cc3ea7efd7109aae6",
      "networkId": 0,
      "chainId": 0
    },
    {
      "hash": "0xc2c6f0d0686204e6ccd1bd32ab1ca7e240c6589e07b58963355f4357fc718f30",
      "blockHash": "0x3e9fce5bae7d2caf0860f961709c4df5dce4a48117c54e3ddf5e4f19b289e0aa",
      "blockNumber": 121171,
      "transactionIndex": 6,
      "confirmations": null,
      "from": "0x63d25FB5edc318Aae1DEc4F3aBd7c645f921cff8",
      "gasPrice": {
        "_hex": "0xba43b7400"
      },
      "gasLimit": {
        "_hex": "0x5208"
      },
      "to": "0xC47Aaa860008be6f65B58c6C6E02a84e666EfE31",
      "value": {
        "_hex": "0x32dc6a020563b340"
      },
      "nonce": 10,
      "data": "0x",
      "r": "0x6f4cbbf76a8b1aa77175738196cee7b776d644e02f990503307510f520427376",
      "s": "0x265f2060c7c69a11ed347cc3510a060fcffdb07dd7c9d553ff47d8a8f72eb3eb",
      "v": 27,
      "creates": null,
      "raw": "0xf86c0a850ba43b740082520894c47aaa860008be6f65b58c6c6e02a84e666efe318832dc6a020563b340801ba06f4cbbf76a8b1aa77175738196cee7b776d644e02f990503307510f520427376a0265f2060c7c69a11ed347cc3510a060fcffdb07dd7c9d553ff47d8a8f72eb3eb",
      "networkId": 0,
      "chainId": 0
    },
    {
      "hash": "0x288d308789b47818bd77a9da8f2ca8e938c0b36c5f95ec58bb82a2507aaa8f7a",
      "blockHash": "0x3e9fce5bae7d2caf0860f961709c4df5dce4a48117c54e3ddf5e4f19b289e0aa",
      "blockNumber": 121171,
      "transactionIndex": 7,
      "confirmations": null,
      "from": "0x6Ca7109e3020A822bc419d4F8d35F6b929398407",
      "gasPrice": {
        "_hex": "0xba43b7400"
      },
      "gasLimit": {
        "_hex": "0x5208"
      },
      "to": "0xC47Aaa860008be6f65B58c6C6E02a84e666EfE31",
      "value": {
        "_hex": "0x25d6342db0d07c40"
      },
      "nonce": 9,
      "data": "0x",
      "r": "0x820e5af18ad3ba0ae59eabb05898cc8ba63b273b1749471a458073d79fc93a76",
      "s": "0x289142ba97ff0ba6e618d2333e14b3bb81194dad3f882d2f0ec97a00710c7605",
      "v": 27,
      "creates": null,
      "raw": "0xf86c09850ba43b740082520894c47aaa860008be6f65b58c6c6e02a84e666efe318825d6342db0d07c40801ba0820e5af18ad3ba0ae59eabb05898cc8ba63b273b1749471a458073d79fc93a76a0289142ba97ff0ba6e618d2333e14b3bb81194dad3f882d2f0ec97a00710c7605",
      "networkId": 0,
      "chainId": 0
    },
    {
      "hash": "0x828352c78818159bad88ba222a871ae3ad8f9ec45d83b66db5c60bcdf0a7743a",
      "blockHash": "0x3e9fce5bae7d2caf0860f961709c4df5dce4a48117c54e3ddf5e4f19b289e0aa",
      "blockNumber": 121171,
      "transactionIndex": 8,
      "confirmations": null,
      "from": "0x02f4c7248513B56356B261cB797fBC618c410569",
      "gasPrice": {
        "_hex": "0xba43b7400"
      },
      "gasLimit": {
        "_hex": "0x5208"
      },
      "to": "0xC47Aaa860008be6f65B58c6C6E02a84e666EfE31",
      "value": {
        "_hex": "0x28151c3b82b269e0"
      },
      "nonce": 8,
      "data": "0x",
      "r": "0x76f063e3a6b584039b2956add1a2bcc7a251663ec47113de8fd6dda704afe6f0",
      "s": "0x757612f9e22a090a83b6972617816e58491070345b2822011352227a134d6056",
      "v": 27,
      "creates": null,
      "raw": "0xf86c08850ba43b740082520894c47aaa860008be6f65b58c6c6e02a84e666efe318828151c3b82b269e0801ba076f063e3a6b584039b2956add1a2bcc7a251663ec47113de8fd6dda704afe6f0a0757612f9e22a090a83b6972617816e58491070345b2822011352227a134d6056",
      "networkId": 0,
      "chainId": 0
    },
    {
      "hash": "0x548a20a9ceeaf73def23c83a8a882d18c647de70e62a9e4af1fa667ea338dc18",
      "blockHash": "0x3e9fce5bae7d2caf0860f961709c4df5dce4a48117c54e3ddf5e4f19b289e0aa",
      "blockNumber": 121171,
      "transactionIndex": 9,
      "confirmations": null,
      "from": "0xC96Bd2Aa7AcB234ecA4E38E33bF2C080e7680FA5",
      "gasPrice": {
        "_hex": "0xba43b7400"
      },
      "gasLimit": {
        "_hex": "0x5208"
      },
      "to": "0xC47Aaa860008be6f65B58c6C6E02a84e666EfE31",
      "value": {
        "_hex": "0xabae4e610025c240"
      },
      "nonce": 9,
      "data": "0x",
      "r": "0x94789cf032ce11b7f38dac4dbca357f976e39ed1d00131b50379e8ab669e4338",
      "s": "0x1e8b67b325d8fd4977669582d518ca18176a55b12cf89d5406cc618558539a5b",
      "v": 27,
      "creates": null,
      "raw": "0xf86c09850ba43b740082520894c47aaa860008be6f65b58c6c6e02a84e666efe3188abae4e610025c240801ba094789cf032ce11b7f38dac4dbca357f976e39ed1d00131b50379e8ab669e4338a01e8b67b325d8fd4977669582d518ca18176a55b12cf89d5406cc618558539a5b",
      "networkId": 0,
      "chainId": 0
    }
  ]
}