{
  "hash": "0x3ac94cd6cac84cae3392ec20bf8f81146072595874678afbf95deee103d329bf",
  "parentHash": "0x0233ca213e3db404173192622ee9b379c37ab1ca16c51049b392c1dbf4f9b012",
  "number": 118454,
  "timestamp": 1440126428,
  "nonce": "0x1a82a9d9dbfe4896",
  "difficulty": 4268060292758,
  "gasLimit": {
    "_hex": "0x2fefd8"
  },
  "gasUsed": {
    "_hex": "0x1bdbe"
  },
  "miner": "0xe6A7a1d47ff21B6321162AEA7C6CB457D5476Bca",
  "extraData": "0xd783010002844765746887676f312e342e32856c696e7578",
  "transactions": [
    {
      "hash": "0x3e6e25994bdb9ade8b026139da9119f25bab6a6864d462f8e287a83c18fac22b",
      "blockHash": "0x3ac94cd6cac84cae3392ec20bf8f81146072595874678afbf95deee103d329bf",
      "blockNumber": 118454,
      "transactionIndex": 0,
      "confirmations": null,
      "from": "0x001aA0CB9c5fA098a119070024460feBb868742D",
      "gasPrice": {
        "_hex": "0xba43b7400"
      },
      "gasLimit": {
        "_hex": "0x24dd8"
      },
      "to": "0xE28e72FCf78647ADCe1F1252F240bbfaebD63BcC",
      "value": {
        "_hex": "0x71afd498d0000"
      },
      "nonce": 3,
      "data": "0x45466f3a",
      "r": "0x7b1db5918b1afc6f186438f878209a1a12524482b345e9425f371baeb89237da",
      "s": "0x16091e60d23caca969def654af8f36ee27841a0569fb7a811406854a07000fa4",
      "v": 27,
      "creates": null,
      "raw": "0xf87003850ba43b740083024dd894e28e72fcf78647adce1f1252f240bbfaebd63bcc87071afd498d00008445466f3a1ba07b1db5918b1afc6f186438f878209a1a12524482b345e9425f371baeb89237daa016091e60d23caca969def654af8f36ee27841a0569fb7a811406854a07000fa4",
      "networkId": 0,
      "chainId": 0
    }
  ]
}