{
  "hash": "0xbb17f279197bf260fbe73d54e7704ac7aa36589db21d121ef2d51ada979d54ce",
  "parentHash": "0x21921956b99cf771616e33e778f6553ea328f51d9f20a60718053eff2374af3a",
  "number": 116423,
  "timestamp": 1440074103,
  "nonce": "0xe9ced2fc356380ea",
  "difficulty": 4564441262862,
  "gasLimit": {
    "_hex": "0x2fefd8"
  },
  "gasUsed": {
    "_hex": "0x5208"
  },
  "miner": "0x7E6930B63D03e88F5928C5cd6ee3FCee4D714F7F",
  "extraData": "0x",
  "transactions": [
    {
      "hash": "0x86edace3b9781a601252ad3faaa3fd59b21a9bcdca0be3631d882e3bf58080f1",
      "blockHash": "0xbb17f279197bf260fbe73d54e7704ac7aa36589db21d121ef2d51ada979d54ce",
      "blockNumber": 116423,
      "transactionIndex": 0,
      "confirmations": null,
      "from": "0x3D92adD52e14562fb2621F47a37dBd6172483A7f",
      "gasPrice": {
        "_hex": "0xdffdb0e58"
      },
      "gasLimit": {
        "_hex": "0x15f90"
      },
      "to": "0x61F642543d22bAf5382908a714E675Cc0b51ea45",
      "value": {
        "_hex": "0x4563918244f40000"
      },
      "nonce": 3,
      "data": "0x",
      "r": "0xf320f4fb5af313780957954f36ac26554b294e6bada865a96f3f532f94006d7d",
      "s": "0x44e8bd062c038a272203f0d8805c1af2bc85d76cce64ac83d1e98f8f3732dad0",
      "v": 28,
      "creates": null,
      "raw": "0xf86d03850dffdb0e5883015f909461f642543d22baf5382908a714e675cc0b51ea45884563918244f40000801ca0f320f4fb5af313780957954f36ac26554b294e6bada865a96f3f532f94006d7da044e8bd062c038a272203f0d8805c1af2bc85d76cce64ac83d1e98f8f3732dad0",
      "networkId": 0,
      "chainId": 0
    }
  ]
}