{
  "hash": "0xdaad9970dc0ebbee2aafa0cc44c4bc73e4f1c843f305b94bfcee65deaa0ca426",
  "parentHash": "0x8fc1d85fb170b771d7f38cf6c55d21ce7a548180e5cb6c9ded1aea0f252f1f39",
  "number": 84396,
  "timestamp": 1439549085,
  "nonce": "0x21daf6ba45d6a15f",
  "difficulty": 2558943427546,
  "gasLimit": {
    "_hex": "0x2fefd8"
  },
  "gasUsed": {
    "_hex": "0x33450"
  },
  "miner": "0x458F183347F45a4001807728A89F31E9Da9D4A58",
  "extraData": "0x476574682f76312e302e312d38326566323666362f6c696e75782f676f312e34",
  "transactions": [
    {
      "hash": "0x2ad1e11072e405eda2d054caa5ab9ce22b39fce08cddaea96e827d12962f4da0",
      "blockHash": "0xdaad9970dc0ebbee2aafa0cc44c4bc73e4f1c843f305b94bfcee65deaa0ca426",
      "blockNumber": 84396,
      "transactionIndex": 0,
      "confirmations": null,
      "from": "0xF928B4834e4E886e04630Af5b4Ea8eBf46Fb205b",
      "gasPrice": {
        "_hex": "0xd4d4a2bf2"
      },
      "gasLimit": {
        "_hex": "0x5208"
      },
      "to": "0x32Be343B94f860124dC4fEe278FDCBD38C102D88",
      "value": {
        "_hex": "0x2c1c3c29918d26000"
      },
      "nonce": 2,
      "data": "0x",
      "r": "0x833dd14fed726fe96dbeb380f8eec6d16630ca15714427fe29527e663e15a1c3",
      "s": "0x29708fa18e80d9d9f0bb22daef0d77b414415ada788670fb3f567e5ef56d6a4b",
      "v": 27,
      "creates": null,
      "raw": "0xf86d02850d4d4a2bf28252089432be343b94f860124dc4fee278fdcbd38c102d888902c1c3c29918d26000801ba0833dd14fed726fe96dbeb380f8eec6d16630ca15714427fe29527e663e15a1c3a029708fa18e80d9d9f0bb22daef0d77b414415ada788670fb3f567e5ef56d6a4b",
      "networkId": 0,
      "chainId": 0
    },
    {
      "hash": "0x5b79644b8ba2f17dd73f748288c867312dc13ce9efe74a1676c5d9167c71a029",
      "blockHash": "0xdaad9970dc0ebbee2aafa0cc44c4bc73e4f1c843f305b94bfcee65deaa0ca426",
      "blockNumber": 84396,
      "transactionIndex": 1,
      "confirmations": null,
      "from": "0xa6BDc31c431B8F97848c9D60cbbe9660dc450eB7",
      "gasPrice": {
        "_hex": "0xd4d4a2bf2"
      },
      "gasLimit": {
        "_hex": "0x5208"
      },
      "to": "0x32Be343B94f860124dC4fEe278FDCBD38C102D88",
      "value": {
        "_hex": "0x340669f4cf196000"
      },
      "nonce": 64,
      "data": "0x",
      "r": "0xdefed9b0ea7a443ac9d9160489cc6245c1cb7013a52cac942cebc350be8fe957",
      "s": "0x1f732507521b851b3250a1ded6e0e124baf39c49267e56cac6fe4e8bee3c5a1e",
      "v": 27,
      "creates": null,
      "raw": "0xf86c40850d4d4a2bf28252089432be343b94f860124dc4fee278fdcbd38c102d8888340669f4cf196000801ba0defed9b0ea7a443ac9d9160489cc6245c1cb7013a52cac942cebc350be8fe957a01f732507521b851b3250a1ded6e0e124baf39c49267e56cac6fe4e8bee3c5a1e",
      "networkId": 0,
      "chainId": 0
    },
    {
      "hash": "0xf69a180ee81553cff0f53c5278d8b55a39f247a34db8127f45c571be5fd1268d",
      "blockHash": "0xdaad9970dc0ebbee2aafa0cc44c4bc73e4f1c843f305b94bfcee65deaa0ca426",
      "blockNumber": 84396,
      "transactionIndex": 2,
      "confirmations": null,
      "from": "0xE921770D00ff942284b8f101b71C029ecE92DA53",
      "gasPrice": {
        "_hex": "0xd4d4a2bf2"
      },
      "gasLimit": {
        "_hex": "0x5208"
      },
      "to": "0x32Be343B94f860124dC4fEe278FDCBD38C102D88",
      "value": {
        "_hex": "0x1215265d73308400"
      },
      "nonce": 0,
      "data": "0x",
      "r": "0x43b8e77b9eb5076bf90fd22a5bf73bcde74a41bec7e9557185614ad4477462f3",
      "s": "0x05d6b1cadb87ec689ce3d8a01df07ff35dd4ab15d4dc4b47de8c602ce9023d41",
      "v": 28,
      "creates": null,
      "raw": "0xf86c80850d4d4a2bf28252089432be343b94f860124dc4fee278fdcbd38c102d88881215265d73308400801ca043b8e77b9eb5076bf90fd22a5bf73bcde74a41bec7e9557185614ad4477462f3a005d6b1cadb87ec689ce3d8a01df07ff35dd4ab15d4dc4b47de8c602ce9023d41",
      "networkId": 0,
      "chainId": 0
    },
    {
      "hash": "0x2186aab72ac4b564ec68781496d8cc8edd8a9c017965ecba26749fea7f2e780a",
      "blockHash": "0xdaad9970dc0ebbee2aafa0cc44c4bc73e4f1c843f305b94bfcee65deaa0ca426",
      "blockNumber": 84396,
      "transactionIndex": 3,
      "confirmations": null,
      "from": "0x047fF53dFE1F7BD2c3Ed2D1f777F35D1f64e9ffE",
      "gasPrice": {
        "_hex": "0xd4d4a2bf2"
      },
      "gasLimit": {
        "_hex": "0x5208"
      },
      "to": "0x32Be343B94f860124dC4fEe278FDCBD38C102D88",
      "value": {
        "_hex": "0x37bfaf23dfba0c000"
      },
      "nonce": 3,
      "data": "0x",
      "r": "0x2341748ab4b9cd080cf730b89698f73cbd881d8dff66b9d427d600390744f1c9",
      "s": "0x05c7d2098fdd22a06e07823fb9ddefd28d98871afe972f9705d838c66baa5a13",
      "v": 28,
      "creates": null,
      "raw": "0xf86d03850d4d4a2bf28252089432be343b94f860124dc4fee278fdcbd38c102d8889037bfaf23dfba0c000801ca02341748ab4b9cd080cf730b89698f73cbd881d8dff66b9d427d600390744f1c9a005c7d2098fdd22a06e07823fb9ddefd28d98871afe972f9705d838c66baa5a13",
      "networkId": 0,
      "chainId": 0
    },
    {
      "hash": "0x4046e44889c1e79dad417b4cd675e21b77409aa104b2f03ab1e476e2c81570d9",
      "blockHash": "0xdaad9970dc0ebbee2aafa0cc44c4bc73e4f1c843f305b94bfcee65deaa0ca426",
      "blockNumber": 84396,
      "transactionIndex": 4,
      "confirmations": null,
      "from": "0x61E20833179bA2eCCc2065e5F733CC8CdA7394c0",
      "gasPrice": {
        "_hex": "0xd4d4a2bf2"
      },
      "gasLimit": {
        "_hex": "0x5208"
      },
      "to": "0x32Be343B94f860124dC4fEe278FDCBD38C102D88",
      "value": {
        "_hex": "0x97dab3bd3cc87000"
      },
      "nonce": 1,
      "data": "0x",
      "r": "0x6c62cae8b3b94532145f4b2e22ed2d98009182b272d8352e9c81b59f260e51b9",
      "s": "0x1dc2e21b4daa407e3acc3bef164277a773fe268512f4c478fafb17987d65595d",
      "v": 28,
      "creates": null,
      "raw": "0xf86c01850d4d4a2bf28252089432be343b94f860124dc4fee278fdcbd38c102d888897dab3bd3cc87000801ca06c62cae8b3b94532145f4b2e22ed2d98009182b272d8352e9c81b59f260e51b9a01dc2e21b4daa407e3acc3bef164277a773fe268512f4c478fafb17987d65595d",
      "networkId": 0,
      "chainId": 0
    },
    {
      "hash": "0xde79bcfc9a6559b7249f93837600e4ce60cd0e66b5e05ea2847c5116e80408cd",
      "blockHash": "0xdaad9970dc0ebbee2aafa0cc44c4bc73e4f1c843f305b94bfcee65deaa0ca426",
      "blockNumber": 84396,
      "transactionIndex": 5,
      "confirmations": null,
      "from": "0xcA422f88253D0492F13F304eBCF34892B3c07AEc",
      "gasPrice": {
        "_hex": "0xd4d4a2bf2"
      },
      "gasLimit": {
        "_hex": "0x5208"
      },
      "to": "0x32Be343B94f860124dC4fEe278FDCBD38C102D88",
      "value": {
        "_hex": "0x12a34a62bfffc3000"
      },
      "nonce": 1,
      "data": "0x",
      "r": "0x3ab351e360ce7fdda637483b60ea7cc21c6f2b741052b33319bd137ffb318161",
      "s": "0x6c8a5ca00f4eab8c10dd4df13ed267116577f33ef53012504f5f7c2594efb4af",
      "v": 28,
      "creates": null,
      "raw": "0xf86d01850d4d4a2bf28252089432be343b94f860124dc4fee278fdcbd38c102d8889012a34a62bfffc3000801ca03ab351e360ce7fdda637483b60ea7cc21c6f2b741052b33319bd137ffb318161a06c8a5ca00f4eab8c10dd4df13ed267116577f33ef53012504f5f7c2594efb4af",
      "networkId": 0,
      "chainId": 0
    },
    {
      "hash": "0x6b61035b1e9e9ece52ba34ce4e308f58c50e7c4b70d54e7a55a61d1cb61d2e3d",
      "blockHash": "0xdaad9970dc0ebbee2aafa0cc44c4bc73e4f1c843f305b94bfcee65deaa0ca426",
      "blockNumber": 84396,
      "transactionIndex": 6,
      "confirmations": null,
      "from": "0x027698B61229ECCa19311e977ADE3C2923D4e414",
      "gasPrice": {
        "_hex": "0xd4d4a2bf2"
      },
      "gasLimit": {
        "_hex": "0x5208"
      },
      "to": "0x32Be343B94f860124dC4fEe278FDCBD38C102D88",
      "value": {
        "_hex": "0x68e71ede5f977000"
      },
      "nonce": 3,
      "data": "0x",
      "r": "0x035a3d657a8f383955673a04d2427155e0985b2b0f99835319528366f5e06dbc",
      "s": "0x61e5943a5ac86ac0664fd40089e9d4acf0501927dc62e15dba1c44e789e8c917",
      "v": 27,
      "creates": null,
      "raw": "0xf86c03850d4d4a2bf28252089432be343b94f860124dc4fee278fdcbd38c102d888868e71ede5f977000801ba0035a3d657a8f383955673a04d2427155e0985b2b0f99835319528366f5e06dbca061e5943a5ac86ac0664fd40089e9d4acf0501927dc62e15dba1c44e789e8c917",
      "networkId": 0,
      "chainId": 0
    },
    {
      "hash": "0xa6861e34cb699e5b69706612b3387f923fe699e592a5f2f75972755d664d39f5",
      "blockHash": "0xdaad9970dc0ebbee2aafa0cc44c4bc73e4f1c843f305b94bfcee65deaa0ca426",
      "blockNumber": 84396,
      "transactionIndex": 7,
      "confirmations": null,
      "from": "0x13065c2648269D5b802D31341006d0b458a187fE",
      "gasPrice": {
        "_hex": "0xd4d4a2bf2"
      },
      "gasLimit": {
        "_hex": "0x5208"
      },
      "to": "0x32Be343B94f860124dC4fEe278FDCBD38C102D88",
      "value": {
        "_hex": "0xea4ec2f03541a000"
      },
      "nonce": 0,
      "data": "0x",
      "r": "0x83e64c432850ca7e26e8b7ea7e3d7dfccf42b6605886224d930b7abbc33b3084",
      "s": "0x131291c9454c1ebcf25da572cd75b3a06bad5db67f36c3472b067d9a67ec8404",
      "v": 28,
      "creates": null,
      "raw": "0xf86c80850d4d4a2bf28252089432be343b94f860124dc4fee278fdcbd38c102d8888ea4ec2f03541a000801ca083e64c432850ca7e26e8b7ea7e3d7dfccf42b6605886224d930b7abbc33b3084a0131291c9454c1ebcf25da572cd75b3a06bad5db67f36c3472b067d9a67ec8404",
      "networkId": 0,
      "chainId": 0
    },
    {
      "hash": "0x86ffc427aefbfd10a870d3ed18bf599b5cab7c13a83a635f0737b290c4aa006c",
      "blockHash": "0xdaad9970dc0ebbee2aafa0cc44c4bc73e4f1c843f305b94bfcee65deaa0ca426",
      "blockNumber": 84396,
      "transactionIndex": 8,
      "confirmations": null,
      "from": "0x4fA3954A093E9916a48C5960B4303d7832b21A9b",
      "gasPrice": {
        "_hex": "0xd4d4a2bf2"
      },
      "gasLimit": {
        "_hex": "0x5208"
      },
      "to": "0x32Be343B94f860124dC4fEe278FDCBD38C102D88",
      "value": {
        "_hex": "0x2f29a8a35df93a0000"
      },
      "nonce": 1,
      "data": "0x",
      "r": "0x0f08a9dd0ff34b08a07c8bf202f227486221fcf4c80e3a56e5da7b9e55303ecf",
      "s": "0x34f87ab37b5be9b533235ce5c0480edfa595a349847bebc3fdf3eafbc38b2743",
      "v": 27,
      "creates": null,
      "raw": "0xf86d01850d4d4a2bf28252089432be343b94f860124dc4fee278fdcbd38c102d88892f29a8a35df93a0000801ba00f08a9dd0ff34b08a07c8bf202f227486221fcf4c80e3a56e5da7b9e55303ecfa034f87ab37b5be9b533235ce5c0480edfa595a349847bebc3fdf3eafbc38b2743",
      "networkId": 0,
      "chainId": 0
    },
    {
      "hash": "0x21f92f557182d06fa875c598dc03e26cbf10ca232462fa919d56bdd57dcb5455",
      "blockHash": "0xdaad9970dc0ebbee2aafa0cc44c4bc73e4f1c843f305b94bfcee65deaa0ca426",
      "blockNumber": 84396,
      "transactionIndex": 9,
      "confirmations": null,
      "from": "0xa83A3BD5fBcceD1b6e82119B404769f74a89Cab4",
      "gasPrice": {
        "_hex": "0xcc645ff05"
      },
      "gasLimit": {
        "_hex": "0x15f90"
      },
      "to": "0xCDA330c8160f0c90B8B528C6Db267acc17381818",
      "value": {
        "_hex": "0xde0b6b3a7640000"
      },
      "nonce": 4,
      "data": "0x",
      "r": "0x918f25fdc286d4671d9ffaee4e4e0777d2ed74dffcbca1474bc6ff023daea737",
      "s": "0x710f56e8ef2666c414b9f71ceedffe8a0af1e69f1b92991f62e366063eeeff85",
      "v": 28,
      "creates": null,
      "raw": "0xf86d04850cc645ff0583015f9094cda330c8160f0c90b8b528c6db267acc17381818880de0b6b3a7640000801ca0918f25fdc286d4671d9ffaee4e4e0777d2ed74dffcbca1474bc6ff023daea737a0710f56e8ef2666c414b9f71ceedffe8a0af1e69f1b92991f62e366063eeeff85",
      "networkId": 0,
      "chainId": 0
    }
  ]
}