{
  "hash": "0xf4ab1ce1f998172293a7b31f1e7a5136be72458749cab2f0f817e302cbea0b3f",
  "parentHash": "0xcfb3834a04bb31ac7fd6f32472ec6ec7c730040063422faf0e4be4863da02b42",
  "number": 51829,
  "timestamp": 1439011710,
  "nonce": "0x435107c6e60005ae",
  "difficulty": 1554315558065,
  "gasLimit": {
    "_hex": "0xe46d7"
  },
  "gasUsed": {
    "_hex": "0x546c"
  },
  "miner": "0x3F98e477a361F777DA14611a7e419A75Fd238b6b",
  "extraData": "0x476574682f76312e302e312f6c696e75782f676f312e342e32",
  "transactions": [
    {
      "hash": "0xc255d82e787ab16d4cd285170c93549d3879277616459c985ceb832a049e36ed",
      "blockHash": "0xf4ab1ce1f998172293a7b31f1e7a5136be72458749cab2f0f817e302cbea0b3f",
      "blockNumber": 51829,
      "transactionIndex": 0,
      "confirmations": null,
      "from": "0xC7bf17c4C11f98941F507e77084fFfBd2DBd3dB5",
      "gasPrice": {
        "_hex": "0xcdccb9a69"
      },
      "gasLimit": {
        "_hex": "0x15f90"
      },
      "to": "0x2910543Af39abA0Cd09dBb2D50200b3E800A63D2",
      "value": {
        "_hex": "0x56bc75e2d63100000"
      },
      "nonce": 0,
      "data": "0x454e36503741554a52",
      "r": "0x294ddc50bf6c6f7dbe26107e3043fc2c407a672ac62f1b1f57d77a7a2baff59e",
      "s": "0x12f6383730b18eece6675eef894741514121ae73b44744dc16c47d54414a1fe3",
      "v": 27,
      "creates": null,
      "raw": "0xf87780850cdccb9a6983015f90942910543af39aba0cd09dbb2d50200b3e800a63d289056bc75e2d6310000089454e36503741554a521ba0294ddc50bf6c6f7dbe26107e3043fc2c407a672ac62f1b1f57d77a7a2baff59ea012f6383730b18eece6675eef894741514121ae73b44744dc16c47d54414a1fe3",
      "networkId": 0,
      "chainId": 0
    }
  ]
}