{
  "hash": "0xa3b6bac14289ec2259f4c0608f3f3a0b4d8ebbb5297ed828f74854311da39824",
  "parentHash": "0x71d2c3f6f43768c2377e51d847dad95c5b17a723d92b31e6716321145b44d96e",
  "number": 48388,
  "timestamp": 1438956403,
  "nonce": "0x1b28ff1191f9e922",
  "difficulty": 1454338205896,
  "gasLimit": {
    "_hex": "0x167b2"
  },
  "gasUsed": {
    "_hex": "0x5208"
  },
  "miner": "0x4947190fcC30D3fb3a16233b259bFe6b3492339a",
  "extraData": "0x476574682f6e75632f76312e302e312f6c696e75782f676f312e342e32",
  "transactions": [
    {
      "hash": "0xd58ff034de6b29639965e56580d5ac52b9ccc047d65d47c7801b72340ec6451e",
      "blockHash": "0xa3b6bac14289ec2259f4c0608f3f3a0b4d8ebbb5297ed828f74854311da39824",
      "blockNumber": 48388,
      "transactionIndex": 0,
      "confirmations": null,
      "from": "0x1d11039E8aba91dB85Cd57374db27D992c384305",
      "gasPrice": {
        "_hex": "0xd65e48843"
      },
      "gasLimit": {
        "_hex": "0x15f90"
      },
      "to": "0x85A2F6ea94D05E8C1d9Ae2F4910338a358e98DeD",
      "value": {
        "_hex": "0x8e1bc9bf040000"
      },
      "nonce": 0,
      "data": "0x",
      "r": "0x58c3627e65025e795194cbc0bb0f3cc2df0f2a20f9989d2cda7cfb0cc0dbad7c",
      "s": "0x20ed4a1758eb80fd00bf257f3be53ef3b23d75aeedb8951c9e195ab06e96dbe7",
      "v": 28,
      "creates": null,
      "raw": "0xf86c80850d65e4884383015f909485a2f6ea94d05e8c1d9ae2f4910338a358e98ded878e1bc9bf040000801ca058c3627e65025e795194cbc0bb0f3cc2df0f2a20f9989d2cda7cfb0cc0dbad7ca020ed4a1758eb80fd00bf257f3be53ef3b23d75aeedb8951c9e195ab06e96dbe7",
      "networkId": 0,
      "chainId": 0
    }
  ]
}