{
  "hash": "0x37b0c7e90a0c004f8deffec7222d75f965e7bf97f5f0e0c0ba7c1100e72f07de",
  "parentHash": "0x33141a77b641544bca8b6359b3aae7e93ab7ce108455cb595aeadca983d59320",
  "number": 68524,
  "timestamp": 1439289499,
  "nonce": "0x91a2228a45a0bbb6",
  "difficulty": 2000585014775,
  "gasLimit": {
    "_hex": "0x2fefd8"
  },
  "gasUsed": {
    "_hex": "0x23e38"
  },
  "miner": "0xf8E0CA3Ed80bd541b94BEdCf259e8CF2141A9523",
  "extraData": "0x476574682f76312e302e312f77696e646f77732f676f312e342e32",
  "transactions": [
    {
      "hash": "0xd6096f773625bcfdef22b43a30250c5aa9d6c23d9389fb9d839c565f15308441",
      "blockHash": "0x37b0c7e90a0c004f8deffec7222d75f965e7bf97f5f0e0c0ba7c1100e72f07de",
      "blockNumber": 68524,
      "transactionIndex": 0,
      "confirmations": null,
      "from": "0x05a293c73042d3dDC4aD884266a84f60cD364924",
      "gasPrice": {
        "_hex": "0xba43b7400"
      },
      "gasLimit": {
        "_hex": "0x5208"
      },
      "to": "0xCD58f878B956773Cf3336a981b1c6A087F66769f",
      "value": {
        "_hex": "0xd8e5610f40e000"
      },
      "nonce": 1,
      "data": "0x",
      "r": "0xc0caf2ec288936a665332579de0c377d05b05e2b1bb0b7ac6bdb9b8bdf21aebf",
      "s": "0x353d68f63381ca7d0bcb692bd33150f7ff4bf355f6e7dcd2bf0d4e140c872a69",
      "v": 28,
      "creates": null,
      "raw": "0xf86b01850ba43b740082520894cd58f878b956773cf3336a981b1c6a087f66769f87d8e5610f40e000801ca0c0caf2ec288936a665332579de0c377d05b05e2b1bb0b7ac6bdb9b8bdf21aebfa0353d68f63381ca7d0bcb692bd33150f7ff4bf355f6e7dcd2bf0d4e140c872a69",
      "networkId": 0,
      "chainId": 0
    },
    {
      "hash": "0xc90ad5c6fd12e2c75915a1e9ac17664669b26f409c66afedf6c9f3a02a0ea1f9",
      "blockHash": "0x37b0c7e90a0c004f8deffec7222d75f965e7bf97f5f0e0c0ba7c1100e72f07de",
      "blockNumber": 68524,
      "transactionIndex": 1,
      "confirmations": null,
      "from": "0x1b7aF00a4f83C711f3acFfbED0BE0Df003B3E298",
      "gasPrice": {
        "_hex": "0xba43b7400"
      },
      "gasLimit": {
        "_hex": "0x5208"
      },
      "to": "0x860c5a079DF68698B57692c63e71D661204fdCFA",
      "value": {
        "_hex": "0xd8e5610f40e000"
      },
      "nonce": 1,
      "data": "0x",
      "r": "0x4d94bf6196c4b6dc9f675f859107b8b4daddfbc6cb762adb5ebb57d8b7c89339",
      "s": "0x62ab27cf4c687d1ed35c42b82e446c9e6b68c778c4d912627125b684d77bea8e",
      "v": 27,
      "creates": null,
      "raw": "0xf86b01850ba43b740082520894860c5a079df68698b57692c63e71d661204fdcfa87d8e5610f40e000801ba04d94bf6196c4b6dc9f675f859107b8b4daddfbc6cb762adb5ebb57d8b7c89339a062ab27cf4c687d1ed35c42b82e446c9e6b68c778c4d912627125b684d77bea8e",
      "networkId": 0,
      "chainId": 0
    },
    {
      "hash": "0xde5dab4cc54e76f27f69610ffc3b5fffd19a39c858325cc07167c5c0a5af2343",
      "blockHash": "0x37b0c7e90a0c004f8deffec7222d75f965e7bf97f5f0e0c0ba7c1100e72f07de",
      "blockNumber": 68524,
      "transactionIndex": 2,
      "confirmations": null,
      "from": "0xD70B1dc0559053FfCAE9F71e0f1809f64a2b024c",
      "gasPrice": {
        "_hex": "0xba43b7400"
      },
      "gasLimit": {
        "_hex": "0x5208"
      },
      "to": "0x0E874D30c41dCBCC3bF2A9AfDd8cBc79E6e8EFb1",
      "value": {
        "_hex": "0xd8e5610f40e000"
      },
      "nonce": 1,
      "data": "0x",
      "r": "0x18e560585da60646a77a54113d8b0ec8ef0792b6a54d5dad1c73f02c9a4a6d4f",
      "s": "0x62df0e01a7b5e1741f48abd57aa2180a9ee2ad96a6c0a5616253dbdf7b58da4d",
      "v": 28,
      "creates": null,
      "raw": "0xf86b01850ba43b7400825208940e874d30c41dcbcc3bf2a9afdd8cbc79e6e8efb187d8e5610f40e000801ca018e560585da60646a77a54113d8b0ec8ef0792b6a54d5dad1c73f02c9a4a6d4fa062df0e01a7b5e1741f48abd57aa2180a9ee2ad96a6c0a5616253dbdf7b58da4d",
      "networkId": 0,
      "chainId": 0
    },
    {
      "hash": "0xf605bfeacf34c00b1ace76974733324a22894121c634d8f0f1528b02f4ee120b",
      "blockHash": "0x37b0c7e90a0c004f8deffec7222d75f965e7bf97f5f0e0c0ba7c1100e72f07de",
      "blockNumber": 68524,
      "transactionIndex": 3,
      "confirmations": null,
      "from": "0xb7E4D58bbA3ffD083F569F1E4ed7C3faD1F5F465",
      "gasPrice": {
        "_hex": "0xba43b7400"
      },
      "gasLimit": {
        "_hex": "0x5208"
      },
      "to": "0x96F300115aaAE54ca824ee738600d488660b0BE8",
      "value": {
        "_hex": "0xd8e5610f40e000"
      },
      "nonce": 1,
      "data": "0x",
      "r": "0xd1bff82fc7ba15e2a2f01418364a362e5a050d0ae54d6b9f3b100bb0a8a798be",
      "s": "0x3e85f9aa9c6a4cfcf75fea55cae398fbdb964ef47f1f1f0dea97a28e06a0d1c4",
      "v": 27,
      "creates": null,
      "raw": "0xf86b01850ba43b74008252089496f300115aaae54ca824ee738600d488660b0be887d8e5610f40e000801ba0d1bff82fc7ba15e2a2f01418364a362e5a050d0ae54d6b9f3b100bb0a8a798bea03e85f9aa9c6a4cfcf75fea55cae398fbdb964ef47f1f1f0dea97a28e06a0d1c4",
      "networkId": 0,
      "chainId": 0
    },
    {
      "hash": "0x6d039d491ff8f0d9299441cdf2828d9d5ff7809b9e25c5c526ee06626aa92a64",
      "blockHash": "0x37b0c7e90a0c004f8deffec7222d75f965e7bf97f5f0e0c0ba7c1100e72f07de",
      "blockNumber": 68524,
      "transactionIndex": 4,
      "confirmations": null,
      "from": "0x9222931397344F0f098d7cF874A29c9C92e38d1A",
      "gasPrice": {
        "_hex": "0xba43b7400"
      },
      "gasLimit": {
        "_hex": "0x5208"
      },
      "to": "0x0684FE816ADE3B123abcc9D6d46Da8e685b97fC0",
      "value": {
        "_hex": "0xd8e5610f40e000"
      },
      "nonce": 1,
      "data": "0x",
      "r": "0xc486a6d39aff2c7b2d3e15dd5c878ec2dccc0b7bf1339cb84ebb891d24de6b2f",
      "s": "0x61a677692b70f7ddc59f816db418bb32246b99762d32dad797ea6f9162e28d11",
      "v": 27,
      "creates": null,
      "raw": "0xf86b01850ba43b7400825208940684fe816ade3b123abcc9d6d46da8e685b97fc087d8e5610f40e000801ba0c486a6d39aff2c7b2d3e15dd5c878ec2dccc0b7bf1339cb84ebb891d24de6b2fa061a677692b70f7ddc59f816db418bb32246b99762d32dad797ea6f9162e28d11",
      "networkId": 0,
      "chainId": 0
    },
    {
      "hash": "0x2b053be105e112cb14242019fb71685d1cf67440f8b8fd289c3fbd51877024c1",
      "blockHash": "0x37b0c7e90a0c004f8deffec7222d75f965e7bf97f5f0e0c0ba7c1100e72f07de",
      "blockNumber": 68524,
      "transactionIndex": 5,
      "confirmations": null,
      "from": "0x2b43a3855BeAb666ec5b35ba8825820Bcd5b92E0",
      "gasPrice": {
        "_hex": "0xba43b7400"
      },
      "gasLimit": {
        "_hex": "0x5208"
      },
      "to": "0x1aA050AF65d5F057C76a3473986455D269782Ef6",
      "value": {
        "_hex": "0xd8e5610f40e000"
      },
      "nonce": 1,
      "data": "0x",
      "r": "0xc978b660fa2ed9dff7dd7eab7c18863d80d8e00c3b11291cb7ef2a570c3105a8",
      "s": "0x270c39cc7bfd25be554d554fe257bfc92c0b3470e443961723d046dd60c185c6",
      "v": 27,
      "creates": null,
      "raw": "0xf86b01850ba43b7400825208941aa050af65d5f057c76a3473986455d269782ef687d8e5610f40e000801ba0c978b660fa2ed9dff7dd7eab7c18863d80d8e00c3b11291cb7ef2a570c3105a8a0270c39cc7bfd25be554d554fe257bfc92c0b3470e443961723d046dd60c185c6",
      "networkId": 0,
      "chainId": 0
    },
    {
      "hash": "0x068b7b1b9bacb2bb400595a6aaf013fdebd63d320086e9c555f64ed6bb1a9f7d",
      "blockHash": "0x37b0c7e90a0c004f8deffec7222d75f965e7bf97f5f0e0c0ba7c1100e72f07de",
      "blockNumber": 68524,
      "transactionIndex": 6,
      "confirmations": null,
      "from": "0x55C34517f1b5B9f9e6e2996C9Eb8aE48dA2E8f42",
      "gasPrice": {
        "_hex": "0xba43b7400"
      },
      "gasLimit": {
        "_hex": "0x5208"
      },
      "to": "0x49356735441BDF2E8Aef2CD354483502b28FC658",
      "value": {
        "_hex": "0xd8e5610f40e000"
      },
      "nonce": 1,
      "data": "0x",
      "r": "0x7ee991ca79f5566c9780dc574686c88cfe5dd3a90fe5f3aefcf5a3f0541925f1",
      "s": "0x24a640d7df4d6d2ec26cfd215c38e75de3a29b72109d1838b6cd9cec13f14ab8",
      "v": 28,
      "creates": null,
      "raw": "0xf86b01850ba43b74008252089449356735441bdf2e8aef2cd354483502b28fc65887d8e5610f40e000801ca07ee991ca79f5566c9780dc574686c88cfe5dd3a90fe5f3aefcf5a3f0541925f1a024a640d7df4d6d2ec26cfd215c38e75de3a29b72109d1838b6cd9cec13f14ab8",
      "networkId": 0,
      "chainId": 0
    }
  ]
}