{
  "hash": "0xaa93a45df8dd31df48b47f481de648b2acd0e75f5932fc62dcd656d8e67c246a",
  "parentHash": "0xd9b8b5407bf19e69e77072c3da70de0d8e676b0a215cc8f8b33318185785ca13",
  "number": 122369,
  "timestamp": 1440193194,
  "nonce": "0x732e454f033af901",
  "difficulty": 4486108976389,
  "gasLimit": {
    "_hex": "0x2fefd8"
  },
  "gasUsed": {
    "_hex": "0x61a80"
  },
  "miner": "0x52bc44d5378309EE2abF1539BF71dE1b7d7bE3b5",
  "extraData": "0xd783010002844765746887676f312e342e32856c696e7578",
  "transactions": [
    {
      "hash": "0x0a5ee881be49a28965ae0ed2ad6e9a98ab52ee7f809cf3cdeb254f4526eabc0d",
      "blockHash": "0xaa93a45df8dd31df48b47f481de648b2acd0e75f5932fc62dcd656d8e67c246a",
      "blockNumber": 122369,
      "transactionIndex": 0,
      "confirmations": null,
      "from": "0x96AA9d72B4606B440Ef85352439AEC5Db106ddAD",
      "gasPrice": {
        "_hex": "0xba43b7400"
      },
      "gasLimit": {
        "_hex": "0x61a80"
      },
      "to": "0xDf415bb7AE2363ecbb6A595F07cBc2Fc0fD417D3",
      "value": {
        "_hex": "0x3782dace9d900000"
      },
      "nonce": 5,
      "data": "0x",
      "r": "0x9dd83183e450424a806124db265ceff8867877877e0465da0714905319f1724e",
      "s": "0x3a3a06134ff2a23e869c4c4f982c2cb20cca09053d8296e65d8246729a8fe2ce",
      "v": 27,
      "creates": null,
      "raw": "0xf86d05850ba43b740083061a8094df415bb7ae2363ecbb6a595f07cbc2fc0fd417d3883782dace9d900000801ba09dd83183e450424a806124db265ceff8867877877e0465da0714905319f1724ea03a3a06134ff2a23e869c4c4f982c2cb20cca09053d8296e65d8246729a8fe2ce",
      "networkId": 0,
      "chainId": 0
    }
  ]
}