{
  "hash": "0xb105bc94a846f7d1b5b68d6a9414ee4fbb79fb57236047f48e24694df76ba67a",
  "parentHash": "0x40f427a610af59a159f01584f70d5d6ed3ef95897dd407c6c46325703832354c",
  "number": 115804,
  "timestamp": 1440063691,
  "nonce": "0xde4ad994856acf12",
  "difficulty": 4558096295862,
  "gasLimit": {
    "_hex": "0x2fefd8"
  },
  "gasUsed": {
    "_hex": "0xa410"
  },
  "miner": "0xe6A7a1d47ff21B6321162AEA7C6CB457D5476Bca",
  "extraData": "0x476574682f76312e302e312d38326566323666362f6c696e75782f676f312e34",
  "transactions": [
    {
      "hash": "0x2cf99a6d1db8ba53b4b9b7171e194c7316cf78a5edc7ea9c66ffddf61915cbec",
      "blockHash": "0xb105bc94a846f7d1b5b68d6a9414ee4fbb79fb57236047f48e24694df76ba67a",
      "blockNumber": 115804,
      "transactionIndex": 0,
      "confirmations": null,
      "from": "0x1C356cfdB95FEbb714633B28d5C132dD84A9b436",
      "gasPrice": {
        "_hex": "0x11510d7ada7"
      },
      "gasLimit": {
        "_hex": "0x15f90"
      },
      "to": "0x64916978a6c23c21Ce9526E4eE9a2A6077dD0e01",
      "value": {
        "_hex": "0xde0b6b3a7640000"
      },
      "nonce": 7,
      "data": "0x",
      "r": "0x8b391a6424e6733e3232f025c50d6be042ab6b9c8f6d37546a49c3033353f861",
      "s": "0x02cbb5dd4fc607d8956c339e2190d92844a15deb99630576f06b603295973eb5",
      "v": 27,
      "creates": null,
      "raw": "0xf86e0786011510d7ada783015f909464916978a6c23c21ce9526e4ee9a2a6077dd0e01880de0b6b3a7640000801ba08b391a6424e6733e3232f025c50d6be042ab6b9c8f6d37546a49c3033353f861a002cbb5dd4fc607d8956c339e2190d92844a15deb99630576f06b603295973eb5",
      "networkId": 0,
      "chainId": 0
    },
    {
      "hash": "0xbaea76f8a929600ce55fc401ea34cbe16ac7efd6dff460f51810aba3578ee6ef",
      "blockHash": "0xb105bc94a846f7d1b5b68d6a9414ee4fbb79fb57236047f48e24694df76ba67a",
      "blockNumber": 115804,
      "transactionIndex": 1,
      "confirmations": null,
      "from": "0x32Be343B94f860124dC4fEe278FDCBD38C102D88",
      "gasPrice": {
        "_hex": "0xe0b04a2cf"
      },
      "gasLimit": {
        "_hex": "0x5208"
      },
      "to": "0x3048a8bFee849B0F52475259ee76Eaf20BD985a3",
      "value": {
        "_hex": "0xdbd2fc137a30000"
      },
      "nonce": 1449,
      "data": "0x",
      "r": "0x370b7bba9e8aab8a29fa9042936bf0836af6132afb678fc61bcb254a8bec4cda",
      "s": "0x7b50f4ede09a7503bb9a1b152a4c1f1632b51a2a73381b3690c8586fba9ad40a",
      "v": 28,
      "creates": null,
      "raw": "0xf86e8205a9850e0b04a2cf825208943048a8bfee849b0f52475259ee76eaf20bd985a3880dbd2fc137a30000801ca0370b7bba9e8aab8a29fa9042936bf0836af6132afb678fc61bcb254a8bec4cdaa07b50f4ede09a7503bb9a1b152a4c1f1632b51a2a73381b3690c8586fba9ad40a",
      "networkId": 0,
      "chainId": 0
    }
  ]
}