{
  "hash": "0x08b703ee299895220206777cd4266926886b7ebc03d98fbfc78fe1ec99d652c3",
  "parentHash": "0x10f21385c329321a17cc3bb09bc1f0103add0169f1922c27a16bb309f47d8c18",
  "number": 107460,
  "timestamp": 1439922872,
  "nonce": "0xa0b7ac6a9aca3351",
  "difficulty": 4400714545524,
  "gasLimit": {
    "_hex": "0x2fefd8"
  },
  "gasUsed": {
    "_hex": "0x5208"
  },
  "miner": "0x007f7f58D3eb5b7510A301eCC749FC1fCDDBE14D",
  "extraData": "0x476574682f76312e302e312f77696e646f77732f676f312e342e32",
  "transactions": [
    {
      "hash": "0x1091c6bd8c9af981801d4158adb33fc443c6ab75419831719d83b41d57139320",
      "blockHash": "0x08b703ee299895220206777cd4266926886b7ebc03d98fbfc78fe1ec99d652c3",
      "blockNumber": 107460,
      "transactionIndex": 0,
      "confirmations": null,
      "from": "0x32Be343B94f860124dC4fEe278FDCBD38C102D88",
      "gasPrice": {
        "_hex": "0xdbfd4a600"
      },
      "gasLimit": {
        "_hex": "0x5208"
      },
      "to": "0xAaA4BEfA989B980188a418Cc5C4C02E7d9103818",
      "value": {
        "_hex": "0x1f1e3c6531f6810000"
      },
      "nonce": 1219,
      "data": "0x",
      "r": "0xdb3389aac941e13e174dc9d3bb93f8be7c6a64ec98807bfe462e32b338f2c313",
      "s": "0x1f1cdab624523e15f880e4e6759e2d5d8bc5fbc3982d6b8cc2a3c637ecbcbfe9",
      "v": 28,
      "creates": null,
      "raw": "0xf86f8204c3850dbfd4a60082520894aaa4befa989b980188a418cc5c4c02e7d9103818891f1e3c6531f6810000801ca0db3389aac941e13e174dc9d3bb93f8be7c6a64ec98807bfe462e32b338f2c313a01f1cdab624523e15f880e4e6759e2d5d8bc5fbc3982d6b8cc2a3c637ecbcbfe9",
      "networkId": 0,
      "chainId": 0
    }
  ]
}