{
  "hash": "0x4f796606c049b32c1fac9bb45f24aaa5455cc97457524ff48c028b82b618d807",
  "parentHash": "0xee5c15ba8e403395f7a1e5636824fbb7048ad5ac48fffad8e631ece828079569",
  "number": 105919,
  "timestamp": 1439895579,
  "nonce": "0xcb30470b8c2cd4ab",
  "difficulty": 4459935128628,
  "gasLimit": {
    "_hex": "0x2fefd8"
  },
  "gasUsed": {
    "_hex": "0x1b497"
  },
  "miner": "0x007f7f58D3eb5b7510A301eCC749FC1fCDDBE14D",
  "extraData": "0x476574682f76312e302e312f77696e646f77732f676f312e342e32",
  "transactions": [
    {
      "hash": "0x21121954b51c7311704e0edcb61c8465e3475efd081af3bbc08fecbbd0843b72",
      "blockHash": "0x4f796606c049b32c1fac9bb45f24aaa5455cc97457524ff48c028b82b618d807",
      "blockNumber": 105919,
      "transactionIndex": 0,
      "confirmations": null,
      "from": "0x87C5B5874A18B4306DF8a752a6C8cc3E82daFc19",
      "gasPrice": {
        "_hex": "0x10a5b834f39"
      },
      "gasLimit": {
        "_hex": "0x493e0"
      },
      "to": "0xD79B4C6791784184e2755B2fC1659eaaB0f80456",
      "value": {
        "_hex": "0x1c5e1729666a1e5d"
      },
      "nonce": 300,
      "data": "0x8d2161860000000000000000000000000000000000000000000000000000000000000007d3d96ceed0cfca4794c2a5a3d3aeefe69da0a2a669e66a5651f30b64831c3db0",
      "r": "0x972e690abe3f66f0036888f9a2fa7ba5d848ba5aa95f0901d50b5c837ec0b7d3",
      "s": "0x258b15798f29c9f1ce77b7c2850645d769ed092db4148ce59317d5e68bd53c80",
      "v": 28,
      "creates": null,
      "raw": "0xf8b582012c86010a5b834f39830493e094d79b4c6791784184e2755b2fc1659eaab0f80456881c5e1729666a1e5db8448d2161860000000000000000000000000000000000000000000000000000000000000007d3d96ceed0cfca4794c2a5a3d3aeefe69da0a2a669e66a5651f30b64831c3db01ca0972e690abe3f66f0036888f9a2fa7ba5d848ba5aa95f0901d50b5c837ec0b7d3a0258b15798f29c9f1ce77b7c2850645d769ed092db4148ce59317d5e68bd53c80",
      "networkId": 0,
      "chainId": 0
    }
  ]
}