{
  "hash": "0x1201868bfcc4a12997c326bf84afb1adfd79c3ea6f9fdd5cb637581f0fd17efc",
  "parentHash": "0xcc7a109863c73a041c041a5fdc649824c6e9c66aefc25d8d5987ff37a0d46d0d",
  "number": 56770,
  "timestamp": 1439092199,
  "nonce": "0x472182d9791758fb",
  "difficulty": 1691973341566,
  "gasLimit": {
    "_hex": "0x2fe3db"
  },
  "gasUsed": {
    "_hex": "0x5208"
  },
  "miner": "0x9746c7e1ef2bd21FF3997fa467593a89cb852BD0",
  "extraData": "0x476574682f76312e302e312f77696e646f77732f676f312e342e32",
  "transactions": [
    {
      "hash": "0x6111ade963b00478d372b77c1d0bd7078abe3f9624fd963d739a8c793c272f43",
      "blockHash": "0x1201868bfcc4a12997c326bf84afb1adfd79c3ea6f9fdd5cb637581f0fd17efc",
      "blockNumber": 56770,
      "transactionIndex": 0,
      "confirmations": null,
      "from": "0xeD17Ea8E9fd42159037deE95ea173a56c54f55ce",
      "gasPrice": {
        "_hex": "0xd486a333b"
      },
      "gasLimit": {
        "_hex": "0x5208"
      },
      "to": "0x32Be343B94f860124dC4fEe278FDCBD38C102D88",
      "value": {
        "_hex": "0x10e9da695795400000"
      },
      "nonce": 10,
      "data": "0x",
      "r": "0x251b6df4b0f1f16d0c1d8a859da5cb8d4554be4fc2e2a05c78ed62a1d8c93fbf",
      "s": "0x1480e61537de711db3c8ccae2711090c39803f8488d9ee2d3eaa7bd32f0e8efa",
      "v": 27,
      "creates": null,
      "raw": "0xf86d0a850d486a333b8252089432be343b94f860124dc4fee278fdcbd38c102d888910e9da695795400000801ba0251b6df4b0f1f16d0c1d8a859da5cb8d4554be4fc2e2a05c78ed62a1d8c93fbfa01480e61537de711db3c8ccae2711090c39803f8488d9ee2d3eaa7bd32f0e8efa",
      "networkId": 0,
      "chainId": 0
    }
  ]
}