{
  "hash": "0x1e2dbcb1b8d17f53e1a98b64b26e6a29a6bc16c3daa6dd1dc8252d0c48d67d45",
  "parentHash": "0x6270f44875ab8976dbcc9e7e5b77f7bd4c4237f36c33c22813732a6848880f20",
  "number": 104556,
  "timestamp": 1439871733,
  "nonce": "0x71174c75d80cfb72",
  "difficulty": 4363716249244,
  "gasLimit": {
    "_hex": "0x2fefd8"
  },
  "gasUsed": {
    "_hex": "0x5208"
  },
  "miner": "0x9746c7e1ef2bd21FF3997fa467593a89cb852BD0",
  "extraData": "0x476574682f76312e302e312f77696e646f77732f676f312e342e32",
  "transactions": [
    {
      "hash": "0x623c5cbd9fbd9b4cda9e96453eba71a27211b278dbb8eeba3e8f650edae0e5e8",
      "blockHash": "0x1e2dbcb1b8d17f53e1a98b64b26e6a29a6bc16c3daa6dd1dc8252d0c48d67d45",
      "blockNumber": 104556,
      "transactionIndex": 0,
      "confirmations": null,
      "from": "0xD9666150A9dA92d9108198a4072970805a8B3428",
      "gasPrice": {
        "_hex": "0xd5bd26c86"
      },
      "gasLimit": {
        "_hex": "0x5208"
      },
      "to": "0x32Be343B94f860124dC4fEe278FDCBD38C102D88",
      "value": {
        "_hex": "0x455f552e97500400"
      },
      "nonce": 69,
      "data": "0x",
      "r": "0x745736e37e51d6d21612bf0d536a6002e46122d766e5fa746a61439ba53c0999",
      "s": "0x7e8368ae8fcbe67a4339577f3d792f1da2c1490c1704dca0cb89cb0b20b2defc",
      "v": 27,
      "creates": null,
      "raw": "0xf86c45850d5bd26c868252089432be343b94f860124dc4fee278fdcbd38c102d8888455f552e97500400801ba0745736e37e51d6d21612bf0d536a6002e46122d766e5fa746a61439ba53c0999a07e8368ae8fcbe67a4339577f3d792f1da2c1490c1704dca0cb89cb0b20b2defc",
      "networkId": 0,
      "chainId": 0
    }
  ]
}