{
  "hash": "0x2ff2d70669deea094abf2a28c3720871800aa307913f0128c33f3d7a6747c267",
  "parentHash": "0x704056d86d28e3eabb4cdcacbf66c6b49138ee2d3f8c41a8cb0c6b69306ae1d8",
  "number": 93112,
  "timestamp": 1439682698,
  "nonce": "0xcddf53ee61bb4842",
  "difficulty": 3643874858268,
  "gasLimit": {
    "_hex": "0x2fefd8"
  },
  "gasUsed": {
    "_hex": "0x5208"
  },
  "miner": "0x47ff6576639c2e94762eA5443978D7681C0E78DC",
  "extraData": "0x476574682f76312e302e312f6c696e75782f676f312e342e32",
  "transactions": [
    {
      "hash": "0x0e36048c3c91597e3def57c8ad60f58b59d51028f0be13f28d1e8e0346075087",
      "blockHash": "0x2ff2d70669deea094abf2a28c3720871800aa307913f0128c33f3d7a6747c267",
      "blockNumber": 93112,
      "transactionIndex": 0,
      "confirmations": null,
      "from": "0x120A270bbC009644e35F0bB6ab13f95b8199c4ad",
      "gasPrice": {
        "_hex": "0xdedb32b38"
      },
      "gasLimit": {
        "_hex": "0x3d090"
      },
      "to": "0x36B33F21Ba59c53E3502E52b8e0a7fD311215FFd",
      "value": {
        "_hex": "0x1ddc3d61c569161800"
      },
      "nonce": 560,
      "data": "0x",
      "r": "0x3e3ac6110b8ea0de64d96131000ec76cc02fb255d20a389403d83882f9fba877",
      "s": "0x114e519c61e0945ce9508a11e356c4da2f425a36d4c5b9828d031f11a2e3938c",
      "v": 28,
      "creates": null,
      "raw": "0xf870820230850dedb32b388303d0909436b33f21ba59c53e3502e52b8e0a7fd311215ffd891ddc3d61c569161800801ca03e3ac6110b8ea0de64d96131000ec76cc02fb255d20a389403d83882f9fba877a0114e519c61e0945ce9508a11e356c4da2f425a36d4c5b9828d031f11a2e3938c",
      "networkId": 0,
      "chainId": 0
    }
  ]
}