{
  "hash": "0x8811cf0a9d073ec1e005bfc786a62ddf5452e04bb33eee8eea644449de6b98d3",
  "parentHash": "0x6bbf423d2066eb81ff814d81bccd9cad18266b0d4a4c34ceb82999ea8900e2d0",
  "number": 85143,
  "timestamp": 1439559075,
  "nonce": "0xab92159ce5b237d2",
  "difficulty": 2738407369643,
  "gasLimit": {
    "_hex": "0x2fefd8"
  },
  "gasUsed": {
    "_hex": "0xa410"
  },
  "miner": "0xe6A7a1d47ff21B6321162AEA7C6CB457D5476Bca",
  "extraData": "0x476574682f76312e302e312d38326566323666362f6c696e75782f676f312e34",
  "transactions": [
    {
      "hash": "0x82371b3093685d101b6974b4fa54d20a1d7390f5d2380362c2734efa360c4840",
      "blockHash": "0x8811cf0a9d073ec1e005bfc786a62ddf5452e04bb33eee8eea644449de6b98d3",
      "blockNumber": 85143,
      "transactionIndex": 0,
      "confirmations": null,
      "from": "0xCA611F7B0cc18457C6bC5D0B198ECFA868E0fA31",
      "gasPrice": {
        "_hex": "0xcc19f1411"
      },
      "gasLimit": {
        "_hex": "0x5208"
      },
      "to": "0x32Be343B94f860124dC4fEe278FDCBD38C102D88",
      "value": {
        "_hex": "0x36a4cb420485c80000"
      },
      "nonce": 0,
      "data": "0x",
      "r": "0x9da1740a70dd03e380cca3bc848c39cc8c9ba2c098cfbfb04130da9bf24bdb8a",
      "s": "0x0eaec8fe8b6427454f155a746ed87ede3e79b36897db5f7fa54018b20f6fcfac",
      "v": 28,
      "creates": null,
      "raw": "0xf86d80850cc19f14118252089432be343b94f860124dc4fee278fdcbd38c102d888936a4cb420485c80000801ca09da1740a70dd03e380cca3bc848c39cc8c9ba2c098cfbfb04130da9bf24bdb8aa00eaec8fe8b6427454f155a746ed87ede3e79b36897db5f7fa54018b20f6fcfac",
      "networkId": 0,
      "chainId": 0
    },
    {
      "hash": "0x182acb49df7370c88520c9426a37bf05ac83a1bd4bb2857850ce54bd60396c72",
      "blockHash": "0x8811cf0a9d073ec1e005bfc786a62ddf5452e04bb33eee8eea644449de6b98d3",
      "blockNumber": 85143,
      "transactionIndex": 1,
      "confirmations": null,
      "from": "0x2aBAA2b360f586C7B4997E0532C4BD76bCFb20fF",
      "gasPrice": {
        "_hex": "0xcc19f1411"
      },
      "gasLimit": {
        "_hex": "0x5208"
      },
      "to": "0x32Be343B94f860124dC4fEe278FDCBD38C102D88",
      "value": {
        "_hex": "0xddca0485b582400"
      },
      "nonce": 0,
      "data": "0x",
      "r": "0x396cb06cb9f09b32ec87c8780e6f7b09a00e05853c7590c2f3637e7b03edf755",
      "s": "0x501a602acdf767dd10e691dd764ec55839a3396412d7a02186e19eec2d71604a",
      "v": 28,
      "creates": null,
      "raw": "0xf86c80850cc19f14118252089432be343b94f860124dc4fee278fdcbd38c102d88880ddca0485b582400801ca0396cb06cb9f09b32ec87c8780e6f7b09a00e05853c7590c2f3637e7b03edf755a0501a602acdf767dd10e691dd764ec55839a3396412d7a02186e19eec2d71604a",
      "networkId": 0,
      "chainId": 0
    }
  ]
}