{
  "hash": "0x7bca63a3e8ef3048adecc13dda97aaa1a850d762354b3aeab63e9850f02013e9",
  "parentHash": "0x9d19736d8b93bae756cc73ecafe2dcea0b1d61f0bc198d36d8ee305e3f0371d6",
  "number": 99997,
  "timestamp": 1439799070,
  "nonce": "0x87a2e81a471b21eb",
  "difficulty": 3847419510312,
  "gasLimit": {
    "_hex": "0x2fefd8"
  },
  "gasUsed": {
    "_hex": "0x5208"
  },
  "miner": "0xc15fa6D616245a5c7B7D75A6dFDcA10C0250BD2B",
  "extraData": "0x476574682f76312e302e312f77696e646f77732f676f312e342e32",
  "transactions": [
    {
      "hash": "0xc8e1e560486f99339eae692ebfa4f12ee240b228b1446d7c55f4a65a976494c4",
      "blockHash": "0x7bca63a3e8ef3048adecc13dda97aaa1a850d762354b3aeab63e9850f02013e9",
      "blockNumber": 99997,
      "transactionIndex": 0,
      "confirmations": null,
      "from": "0x771b12Bc207A1c4823e77075B17F8D329ACD77A3",
      "gasPrice": {
        "_hex": "0xcfce418e5"
      },
      "gasLimit": {
        "_hex": "0x5208"
      },
      "to": "0x32Be343B94f860124dC4fEe278FDCBD38C102D88",
      "value": {
        "_hex": "0x177973fb91d56a000"
      },
      "nonce": 7,
      "data": "0x",
      "r": "0x95294ff9a56a7ebfe66987562b74354c2b65d0dcde843fc6af76dad3004d9468",
      "s": "0x41bf4ac7efba3ad42f60d7ee4686c7e20cef141d15817046f9836413ff6fcb7a",
      "v": 28,
      "creates": null,
      "raw": "0xf86d07850cfce418e58252089432be343b94f860124dc4fee278fdcbd38c102d88890177973fb91d56a000801ca095294ff9a56a7ebfe66987562b74354c2b65d0dcde843fc6af76dad3004d9468a041bf4ac7efba3ad42f60d7ee4686c7e20cef141d15817046f9836413ff6fcb7a",
      "networkId": 0,
      "chainId": 0
    }
  ]
}