{
  "hash": "0xd45383c5eac66327c25e1acd1b22169b776c58717aa223dc3ab648b02a976e54",
  "parentHash": "0xc1023c8857b05bddd16704a8f4a13fccee33b9aef361ab630245ac18f3a8cf5a",
  "number": 50675,
  "timestamp": 1438992900,
  "nonce": "0xfd8762b25e99fe82",
  "difficulty": 1528934820018,
  "gasLimit": {
    "_hex": "0x70b4a"
  },
  "gasUsed": {
    "_hex": "0xddfd"
  },
  "miner": "0xbb7B8287f3F0a933474a79eAe42CBCa977791171",
  "extraData": "0x476574682f4c5649562f76312e302e312f6c696e75782f676f312e342e32",
  "transactions": [
    {
      "hash": "0xc28734c39cd11f77bcd19f7a5cb3b646fb10309c258fcb6329c2d054c8149fb5",
      "blockHash": "0xd45383c5eac66327c25e1acd1b22169b776c58717aa223dc3ab648b02a976e54",
      "blockNumber": 50675,
      "transactionIndex": 0,
      "confirmations": null,
      "from": "0x073f70b5bfAde6409E4951EF72BC8F4157677729",
      "gasPrice": {
        "_hex": "0xcc70a36ec"
      },
      "gasLimit": {
        "_hex": "0x30d40"
      },
      "to": "0x109C4f2CCc82C4d77Bde15F306707320294Aea3F",
      "value": {
        "_hex": "0xde0b6b3a7640000"
      },
      "nonce": 1,
      "data": "0x",
      "r": "0x5ab1d287ed26e047f772600f6e57dee59b5f7bc0c431941c854ff0be478d9510",
      "s": "0x328a6c77e4bfa18ad5d4b8570f80fd00a447ffe38d5e5d2c599cac1aab158296",
      "v": 27,
      "creates": null,
      "raw": "0xf86d01850cc70a36ec83030d4094109c4f2ccc82c4d77bde15f306707320294aea3f880de0b6b3a7640000801ba05ab1d287ed26e047f772600f6e57dee59b5f7bc0c431941c854ff0be478d9510a0328a6c77e4bfa18ad5d4b8570f80fd00a447ffe38d5e5d2c599cac1aab158296",
      "networkId": 0,
      "chainId": 0
    }
  ]
}