{
  "hash": "0xb306facb3dc92130bfd7d8724013777192119a9f9c40aef3f05516c91e6c4339",
  "parentHash": "0xabf07f142b5ffd73890a2d92bc181d79a26ded5f765d890d9df6fa093ba43025",
  "number": 48106,
  "timestamp": 1438951398,
  "nonce": "0x0e79d70225d27833",
  "difficulty": 1467226136257,
  "gasLimit": {
    "_hex": "0x12a1a"
  },
  "gasUsed": {
    "_hex": "0x5208"
  },
  "miner": "0xbb7B8287f3F0a933474a79eAe42CBCa977791171",
  "extraData": "0x476574682f4c5649562f76312e302e312f6c696e75782f676f312e342e32",
  "transactions": [
    {
      "hash": "0x919241ec4bee2edd4d71b341e71bf03f0353981358b08363d4fc3d02f2779b4c",
      "blockHash": "0xb306facb3dc92130bfd7d8724013777192119a9f9c40aef3f05516c91e6c4339",
      "blockNumber": 48106,
      "transactionIndex": 0,
      "confirmations": null,
      "from": "0x949131F28943925Cfc97d41E0CeA0B262973a730",
      "gasPrice": {
        "_hex": "0xd4c00cce1"
      },
      "gasLimit": {
        "_hex": "0x61a8"
      },
      "to": "0x4Ca2bE31e663B55D31AE89189C50864ae7B5aC7d",
      "value": {
        "_hex": "0xde0b6b3a7640000"
      },
      "nonce": 0,
      "data": "0x",
      "r": "0x410706b4acc187c91b22ff685dc181fbdcdcc470973df8e8f9c1051aed901d33",
      "s": "0x2071535d5c45e366dcb76bfc7224764414731f1a340f858198cdcc12d80bdcc6",
      "v": 28,
      "creates": null,
      "raw": "0xf86c80850d4c00cce18261a8944ca2be31e663b55d31ae89189c50864ae7b5ac7d880de0b6b3a7640000801ca0410706b4acc187c91b22ff685dc181fbdcdcc470973df8e8f9c1051aed901d33a02071535d5c45e366dcb76bfc7224764414731f1a340f858198cdcc12d80bdcc6",
      "networkId": 0,
      "chainId": 0
    }
  ]
}