{
  "hash": "0xfe0b53815410542bca2c022e87e0e0626705d9ef2182b355ad4088ecb2a0ddd4",
  "parentHash": "0x652efec736060a020f0465d536b3bb4095f00a5665847538b2129d40bfc2493c",
  "number": 49021,
  "timestamp": 1438966510,
  "nonce": "0xd21b2959968a52da",
  "difficulty": 1487987769422,
  "gasLimit": {
    "_hex": "0x23aea"
  },
  "gasUsed": {
    "_hex": "0xa674"
  },
  "miner": "0xeB1325C8D9d3ea8D74aC11F4B00F1B2367686319",
  "extraData": "0x476574682f76312e302e312f77696e646f77732f676f312e342e32",
  "transactions": [
    {
      "hash": "0x5068ae6c0c8fa9f1bf3167fa0fd264a78762419337eea03d6b44630a3403bfd4",
      "blockHash": "0xfe0b53815410542bca2c022e87e0e0626705d9ef2182b355ad4088ecb2a0ddd4",
      "blockNumber": 49021,
      "transactionIndex": 0,
      "confirmations": null,
      "from": "0x204F9117A8348a64a82C3B2324eA406D0867d6A8",
      "gasPrice": {
        "_hex": "0xf0e2af34e"
      },
      "gasLimit": {
        "_hex": "0x15f90"
      },
      "to": "0x2910543Af39abA0Cd09dBb2D50200b3E800A63D2",
      "value": {
        "_hex": "0xde0b6b3a7640000"
      },
      "nonce": 1,
      "data": "0x454e445041504a5947",
      "r": "0xe2e14c7f42f62d66989abc2e62252c4e5f348e2789be834f74fd8374cb7792c2",
      "s": "0x37778f7d56d3409ca0b839eba6bbde7633c5cfb70e28334d209b20f0ebbae878",
      "v": 28,
      "creates": null,
      "raw": "0xf87601850f0e2af34e83015f90942910543af39aba0cd09dbb2d50200b3e800a63d2880de0b6b3a764000089454e445041504a59471ca0e2e14c7f42f62d66989abc2e62252c4e5f348e2789be834f74fd8374cb7792c2a037778f7d56d3409ca0b839eba6bbde7633c5cfb70e28334d209b20f0ebbae878",
      "networkId": 0,
      "chainId": 0
    },
    {
      "hash": "0xeeed9d2541858c2cd11aa2f154a38302b1228a19e41490a44c37dd7e17d3906a",
      "blockHash": "0xfe0b53815410542bca2c022e87e0e0626705d9ef2182b355ad4088ecb2a0ddd4",
      "blockNumber": 49021,
      "transactionIndex": 1,
      "confirmations": null,
      "from": "0xE4324912D64ea3AEF76B3C2ff9dF82c7E13ae991",
      "gasPrice": {
        "_hex": "0xe14fdfc3e"
      },
      "gasLimit": {
        "_hex": "0x15f90"
      },
      "to": "0x885936eaee918456Ee4e71C32497C0114AE56476",
      "value": {
        "_hex": "0x8ac7230489e80000"
      },
      "nonce": 1,
      "data": "0x",
      "r": "0xdca37e982c7b8c9b4e59bc8aee1f8c82d6399b57acac2d4b523616395b0e0e18",
      "s": "0x005f783ecc6855e8b57f2975beb9b3e3189286242cc85f98782dafb8ecc70e03",
      "v": 27,
      "creates": null,
      "raw": "0xf86c01850e14fdfc3e83015f9094885936eaee918456ee4e71c32497c0114ae56476888ac7230489e80000801ba0dca37e982c7b8c9b4e59bc8aee1f8c82d6399b57acac2d4b523616395b0e0e189f5f783ecc6855e8b57f2975beb9b3e3189286242cc85f98782dafb8ecc70e03",
      "networkId": 0,
      "chainId": 0
    }
  ]
}