{
  "hash": "0x49b95ead9282f4b505ed24681007a326238ec6a021b9f7867c9d8d6ad075c904",
  "parentHash": "0x47dbbab6d26ef80c12555c949264e37a5fb65ccfeb04237e7b7465f60f68144d",
  "number": 70540,
  "timestamp": 1439321431,
  "nonce": "0x8aadd0cee400e816",
  "difficulty": 2137432996067,
  "gasLimit": {
    "_hex": "0x2fefd5"
  },
  "gasUsed": {
    "_hex": "0xf618"
  },
  "miner": "0x3FF679B0823a026F2378E5f5F22A6F127cC85828",
  "extraData": "0x",
  "transactions": [
    {
      "hash": "0x8abe5e3c652dd9ac3774630c804a459d19714c89cead75a258148a38e8b41789",
      "blockHash": "0x49b95ead9282f4b505ed24681007a326238ec6a021b9f7867c9d8d6ad075c904",
      "blockNumber": 70540,
      "transactionIndex": 0,
      "confirmations": null,
      "from": "0xF109ca710C0Df51c1a86dBA1B0BA0Ed038114463",
      "gasPrice": {
        "_hex": "0xd4d3fb634"
      },
      "gasLimit": {
        "_hex": "0x5208"
      },
      "to": "0x32Be343B94f860124dC4fEe278FDCBD38C102D88",
      "value": {
        "_hex": "0x6828016221e4d800"
      },
      "nonce": 6,
      "data": "0x",
      "r": "0x43cd52cce1ca89d40a733833abc262232d57ab83a1868e7d7df15e23298288df",
      "s": "0x17ba72100f063041958b3c1a1f0cb32b2c29862af7461b158395874bc0e63440",
      "v": 27,
      "creates": null,
      "raw": "0xf86c06850d4d3fb6348252089432be343b94f860124dc4fee278fdcbd38c102d88886828016221e4d800801ba043cd52cce1ca89d40a733833abc262232d57ab83a1868e7d7df15e23298288dfa017ba72100f063041958b3c1a1f0cb32b2c29862af7461b158395874bc0e63440",
      "networkId": 0,
      "chainId": 0
    },
    {
      "hash": "0x1864611d90a799fd9ebb6e4768cb163f7a24bb96fad7e634060021eb4006ec3d",
      "blockHash": "0x49b95ead9282f4b505ed24681007a326238ec6a021b9f7867c9d8d6ad075c904",
      "blockNumber": 70540,
      "transactionIndex": 1,
      "confirmations": null,
      "from": "0x0f7E5465DB8bC57940471E530a83Fb7Ac5b82d7f",
      "gasPrice": {
        "_hex": "0xd4d3fb634"
      },
      "gasLimit": {
        "_hex": "0x5208"
      },
      "to": "0x32Be343B94f860124dC4fEe278FDCBD38C102D88",
      "value": {
        "_hex": "0x18f69f4e572e2800"
      },
      "nonce": 1,
      "data": "0x",
      "r": "0xd2fb3cbc6fada680e224d6107adb799ad90655212893932b9b104d95b14d04f8",
      "s": "0x3a05ee0e78d3256e3f1ec1d2e5ef5983ec13bae151ddc114ab65bd3242b6f8e1",
      "v": 28,
      "creates": null,
      "raw": "0xf86c01850d4d3fb6348252089432be343b94f860124dc4fee278fdcbd38c102d888818f69f4e572e2800801ca0d2fb3cbc6fada680e224d6107adb799ad90655212893932b9b104d95b14d04f8a03a05ee0e78d3256e3f1ec1d2e5ef5983ec13bae151ddc114ab65bd3242b6f8e1",
      "networkId": 0,
      "chainId": 0
    },
    {
      "hash": "0x0a2231f65a131fa1a5e128ae8c63433fc526356a411577b279c67c8b04cf2d25",
      "blockHash": "0x49b95ead9282f4b505ed24681007a326238ec6a021b9f7867c9d8d6ad075c904",
      "blockNumber": 70540,
      "transactionIndex": 2,
      "confirmations": null,
      "from": "0xEA3779D14A13F6C78566bCDE403591413a6239db",
      "gasPrice": {
        "_hex": "0xd0697a95d"
      },
      "gasLimit": {
        "_hex": "0x15f90"
      },
      "to": "0x314c7Daa4825ffC0293819119c5FDCC0CcF19827",
      "value": {
        "_hex": "0xd99a8cec7e20000"
      },
      "nonce": 10,
      "data": "0x",
      "r": "0xa0405565708d93caac6a3a46b4ecb6c9080bf9dc302a3ef95271ca1c92badc84",
      "s": "0x2e762698a9a12d2f3e9ef855281a69bf227c0ad3adffa547fef2454577396cd0",
      "v": 27,
      "creates": null,
      "raw": "0xf86d0a850d0697a95d83015f9094314c7daa4825ffc0293819119c5fdcc0ccf19827880d99a8cec7e20000801ba0a0405565708d93caac6a3a46b4ecb6c9080bf9dc302a3ef95271ca1c92badc84a02e762698a9a12d2f3e9ef855281a69bf227c0ad3adffa547fef2454577396cd0",
      "networkId": 0,
      "chainId": 0
    }
  ]
}