{
  "hash": "0x1b3cdefded18123b0afdecc6a4aeed2da069f35ca5d4efb2c35285ec7b26d2dc",
  "parentHash": "0x641de73d3949da6593f774b959041415fda0e2133f7f06f15c1435fd32b3cbeb",
  "number": 119445,
  "timestamp": 1440143180,
  "nonce": "0xb98f70d482a8f36f",
  "difficulty": 4379437239155,
  "gasLimit": {
    "_hex": "0x2fefd8"
  },
  "gasUsed": {
    "_hex": "0x14820"
  },
  "miner": "0x52bc44d5378309EE2abF1539BF71dE1b7d7bE3b5",
  "extraData": "0xd783010002844765746887676f312e342e32856c696e7578",
  "transactions": [
    {
      "hash": "0x307141eedae47ca81a21f1d100864591f7a0ebde650d68eb9fea8e9071b14870",
      "blockHash": "0x1b3cdefded18123b0afdecc6a4aeed2da069f35ca5d4efb2c35285ec7b26d2dc",
      "blockNumber": 119445,
      "transactionIndex": 0,
      "confirmations": null,
      "from": "0x250978C66B17d66f4167197A38b631d8900968C0",
      "gasPrice": {
        "_hex": "0xba43b7400"
      },
      "gasLimit": {
        "_hex": "0x5208"
      },
      "to": "0x32Be343B94f860124dC4fEe278FDCBD38C102D88",
      "value": {
        "_hex": "0x54ec68d9bfd104000"
      },
      "nonce": 9,
      "data": "0x",
      "r": "0xb870b51fa83beeb7312081a3ca7a760720aeeae87bc846d75476ff351c8a50d9",
      "s": "0x09b9c32749d861b9cca9c381550de3b3f9a1e5b1055f326c0f6e484e9ec5dd57",
      "v": 27,
      "creates": null,
      "raw": "0xf86d09850ba43b74008252089432be343b94f860124dc4fee278fdcbd38c102d8889054ec68d9bfd104000801ba0b870b51fa83beeb7312081a3ca7a760720aeeae87bc846d75476ff351c8a50d9a009b9c32749d861b9cca9c381550de3b3f9a1e5b1055f326c0f6e484e9ec5dd57",
      "networkId": 0,
      "chainId": 0
    },
    {
      "hash": "0x1ad237ee22fd852f93ea07eaf361bbca1b305484000dd8d71249b8a87b42ab3f",
      "blockHash": "0x1b3cdefded18123b0afdecc6a4aeed2da069f35ca5d4efb2c35285ec7b26d2dc",
      "blockNumber": 119445,
      "transactionIndex": 1,
      "confirmations": null,
      "from": "0xB9eE81c1A5CdE84454DC603a8000836118627cfd",
      "gasPrice": {
        "_hex": "0xba43b7400"
      },
      "gasLimit": {
        "_hex": "0x5208"
      },
      "to": "0x32Be343B94f860124dC4fEe278FDCBD38C102D88",
      "value": {
        "_hex": "0x689b9d1886bd8400"
      },
      "nonce": 8,
      "data": "0x",
      "r": "0x942400318cfbe05fa2999f2e68d5f0be95e966424cb5a473b0d8baf90ae54f78",
      "s": "0x3a51677218c760f91bdcefb0bfba236c9b6011a056654baea461d521507b6691",
      "v": 27,
      "creates": null,
      "raw": "0xf86c08850ba43b74008252089432be343b94f860124dc4fee278fdcbd38c102d8888689b9d1886bd8400801ba0942400318cfbe05fa2999f2e68d5f0be95e966424cb5a473b0d8baf90ae54f78a03a51677218c760f91bdcefb0bfba236c9b6011a056654baea461d521507b6691",
      "networkId": 0,
      "chainId": 0
    },
    {
      "hash": "0x6b570276492cb9d19e93bc8873e0bbda07dab50f23672871d73e9d8dde9b7c98",
      "blockHash": "0x1b3cdefded18123b0afdecc6a4aeed2da069f35ca5d4efb2c35285ec7b26d2dc",
      "blockNumber": 119445,
      "transactionIndex": 2,
      "confirmations": null,
      "from": "0x357A01795bfA480a007fB4B1B6eDf2e8C23f1840",
      "gasPrice": {
        "_hex": "0xba43b7400"
      },
      "gasLimit": {
        "_hex": "0x5208"
      },
      "to": "0x32Be343B94f860124dC4fEe278FDCBD38C102D88",
      "value": {
        "_hex": "0x210e28450f4b0400"
      },
      "nonce": 11,
      "data": "0x",
      "r": "0xa124e1704c89fb6f9f0ddd53a75015f7bee33ace1acd35f44530007809a65b14",
      "s": "0x199359af8980b6b4a2254fc879fc58c22c88a38598bb01b19480481839b7acf1",
      "v": 27,
      "creates": null,
      "raw": "0xf86c0b850ba43b74008252089432be343b94f860124dc4fee278fdcbd38c102d8888210e28450f4b0400801ba0a124e1704c89fb6f9f0ddd53a75015f7bee33ace1acd35f44530007809a65b14a0199359af8980b6b4a2254fc879fc58c22c88a38598bb01b19480481839b7acf1",
      "networkId": 0,
      "chainId": 0
    },
    {
      "hash": "0x30709ee6f1ed14578d9ad1088fe5890547324b75fcdc25f9fc823669fff2c2ba",
      "blockHash": "0x1b3cdefded18123b0afdecc6a4aeed2da069f35ca5d4efb2c35285ec7b26d2dc",
      "blockNumber": 119445,
      "transactionIndex": 3,
      "confirmations": null,
      "from": "0x9A6eb0bBBE50281644D7a7839147F59819506Ac0",
      "gasPrice": {
        "_hex": "0xba43b7400"
      },
      "gasLimit": {
        "_hex": "0x5208"
      },
      "to": "0x32Be343B94f860124dC4fEe278FDCBD38C102D88",
      "value": {
        "_hex": "0x8bef089cbdea5000"
      },
      "nonce": 9,
      "data": "0x",
      "r": "0xc09c3a60e2f68de636429df38caa37de3892e0dd18f5db1e372aa61a2e14f525",
      "s": "0x2e24a117ee4574ff5679063942e98fdc4bf563b9b70fa43d0f1ce4eb91330dbe",
      "v": 28,
      "creates": null,
      "raw": "0xf86c09850ba43b74008252089432be343b94f860124dc4fee278fdcbd38c102d88888bef089cbdea5000801ca0c09c3a60e2f68de636429df38caa37de3892e0dd18f5db1e372aa61a2e14f525a02e24a117ee4574ff5679063942e98fdc4bf563b9b70fa43d0f1ce4eb91330dbe",
      "networkId": 0,
      "chainId": 0
    }
  ]
}