{
  "hash": "0x0f314e573a24bc749eeaa2517ebc37ed5194fe7e1da28d0575b584c342a4f454",
  "parentHash": "0x6005f6f8b80ae1ffd5e4148abe2f9386b473a067076d4ff2cd4ab2784750d24d",
  "number": 104502,
  "timestamp": 1439870759,
  "nonce": "0x2748b4a6ef0dc576",
  "difficulty": 4372275607340,
  "gasLimit": {
    "_hex": "0x2fefd5"
  },
  "gasUsed": {
    "_hex": "0x5208"
  },
  "miner": "0xe6A7a1d47ff21B6321162AEA7C6CB457D5476Bca",
  "extraData": "0x476574682f76312e302e312d38326566323666362f6c696e75782f676f312e34",
  "transactions": [
    {
      "hash": "0x48b89fc28a16145a029ca397dd3f5c48bf016b2e2e8fe70e739c6bf895109832",
      "blockHash": "0x0f314e573a24bc749eeaa2517ebc37ed5194fe7e1da28d0575b584c342a4f454",
      "blockNumber": 104502,
      "transactionIndex": 0,
      "confirmations": null,
      "from": "0x32Be343B94f860124dC4fEe278FDCBD38C102D88",
      "gasPrice": {
        "_hex": "0xd9c7946bb"
      },
      "gasLimit": {
        "_hex": "0x5208"
      },
      "to": "0x7cB57B5A97eAbe94205C07890BE4c1aD31E486A8",
      "value": {
        "_hex": "0x8aa39c121a270000"
      },
      "nonce": 1151,
      "data": "0x",
      "r": "0x9c552915ffc1f817a53c7804efd6d2d7846fea983c01b9c3f28de6b15b6ee7fc",
      "s": "0x7e57a8bbf27b4dd28dfc65ea3fe2f06e84a0c88fb4bef7ea924384254d2a6e9b",
      "v": 28,
      "creates": null,
      "raw": "0xf86e82047f850d9c7946bb825208947cb57b5a97eabe94205c07890be4c1ad31e486a8888aa39c121a270000801ca09c552915ffc1f817a53c7804efd6d2d7846fea983c01b9c3f28de6b15b6ee7fca07e57a8bbf27b4dd28dfc65ea3fe2f06e84a0c88fb4bef7ea924384254d2a6e9b",
      "networkId": 0,
      "chainId": 0
    }
  ]
}