{
  "hash": "0x3612d4ed832f37af75546a357c8791628a3f89a45aadde62eac55fe418d590c3",
  "parentHash": "0x4e9b2600e72a7b148b02a0b58e8ee5ee234938afa755fcacb42716ec69616b3f",
  "number": 71046,
  "timestamp": 1439329653,
  "nonce": "0x6f894977e9f7e76d",
  "difficulty": 2149864098250,
  "gasLimit": {
    "_hex": "0x2fefd5"
  },
  "gasUsed": {
    "_hex": "0xe608"
  },
  "miner": "0xF78645Ea06d743C6B52a11EB3f3d486bbb4Cf01F",
  "extraData": "0x",
  "transactions": [
    {
      "hash": "0x136ebdc5ba2e1f9d7ba1967c83a661f043c3d8c0548aeda133ed265146081e9d",
      "blockHash": "0x3612d4ed832f37af75546a357c8791628a3f89a45aadde62eac55fe418d590c3",
      "blockNumber": 71046,
      "transactionIndex": 0,
      "confirmations": null,
      "from": "0xB57a69A9cFD1BC39510a70Ab14De3BDa11d1dF70",
      "gasPrice": {
        "_hex": "0xd7d40ace3"
      },
      "gasLimit": {
        "_hex": "0x15f90"
      },
      "to": "0x197D8Ac346334Cf05e98ABd8f8c886Af37F6D274",
      "value": {
        "_hex": "0x8ac7230489e80000"
      },
      "nonce": 0,
      "data": "0x",
      "r": "0xf2ca543455271c58805e37630c56b71a926378202c8de4e30f0076a9d06a2a35",
      "s": "0x23502dd38d8dc784a51b613a294d18288a5a31dfca0d9bdfa21beb7c6e795565",
      "v": 27,
      "creates": null,
      "raw": "0xf86d80850d7d40ace383015f9094197d8ac346334cf05e98abd8f8c886af37f6d274888ac7230489e80000801ba0f2ca543455271c58805e37630c56b71a926378202c8de4e30f0076a9d06a2a35a023502dd38d8dc784a51b613a294d18288a5a31dfca0d9bdfa21beb7c6e795565",
      "networkId": 0,
      "chainId": 0
    },
    {
      "hash": "0x1cdb97966f6d91ea64f76dd6192385594d1969de9ceb2f00d67f400796bc094a",
      "blockHash": "0x3612d4ed832f37af75546a357c8791628a3f89a45aadde62eac55fe418d590c3",
      "blockNumber": 71046,
      "transactionIndex": 1,
      "confirmations": null,
      "from": "0x17580B766f7453525ca4C6A88b01b50570EA088C",
      "gasPrice": {
        "_hex": "0xd6ba639c0"
      },
      "gasLimit": {
        "_hex": "0x61a80"
      },
      "to": "0x5Fe5B7546D1628f7348B023A0393de1FC825A4fD",
      "value": {
        "_hex": "0x29a2241af62c0000"
      },
      "nonce": 88,
      "data": "0xb595b8b50000000000000000000000000000000000000000000000000000000000000001",
      "r": "0x38742303c1b17c8509e095b0ae695b583d82ba0aedb8517cb1c58e58677279a9",
      "s": "0x1c6d25da8e059e12fd04d425c70e84c478ef4803eaeff73a63216f89dae7b637",
      "v": 28,
      "creates": null,
      "raw": "0xf89158850d6ba639c083061a80945fe5b7546d1628f7348b023a0393de1fc825a4fd8829a2241af62c0000a4b595b8b500000000000000000000000000000000000000000000000000000000000000011ca038742303c1b17c8509e095b0ae695b583d82ba0aedb8517cb1c58e58677279a9a01c6d25da8e059e12fd04d425c70e84c478ef4803eaeff73a63216f89dae7b637",
      "networkId": 0,
      "chainId": 0
    }
  ]
}