{
  "hash": "0x75d172a456048383215d37b90c9c25ab3eaf07c812fd2a6188887c8a3d611bf0",
  "parentHash": "0x24c63b1e804eeea427fbfb1926eddb9b924cd313e322ec65b2b0acbb9b936a7f",
  "number": 116816,
  "timestamp": 1440097974,
  "nonce": "0xbce2ecc0f676b009",
  "difficulty": 4336119076774,
  "gasLimit": {
    "_hex": "0x2fefd8"
  },
  "gasUsed": {
    "_hex": "0x2e248"
  },
  "miner": "0xD0ee3F53eE0fCf3F9fbCcdd17BD1b6441DdC2074",
  "extraData": "0x",
  "transactions": [
    {
      "hash": "0xe185b2ebf0e5e79c7aeb6caf84c297bbece2f9e35facc81c4a51a97dd369d492",
      "blockHash": "0x75d172a456048383215d37b90c9c25ab3eaf07c812fd2a6188887c8a3d611bf0",
      "blockNumber": 116816,
      "transactionIndex": 0,
      "confirmations": null,
      "from": "0xe6A7a1d47ff21B6321162AEA7C6CB457D5476Bca",
      "gasPrice": {
        "_hex": "0xba43b7400"
      },
      "gasLimit": {
        "_hex": "0x55f0"
      },
      "to": "0x528419cd4425d074D168Ae82CdFc335076b09B2F",
      "value": {
        "_hex": "0x25c66f375aa87e14"
      },
      "nonce": 5673,
      "data": "0x",
      "r": "0x842fcb73035361e792fa06e85f6441dac7adb49ca307a890938da84cedf8d2c6",
      "s": "0x3ec73e35098afec8c7256261ac9980390a4c463bbbccb7bf7389a19445febbe7",
      "v": 27,
      "creates": null,
      "raw": "0xf86e821629850ba43b74008255f094528419cd4425d074d168ae82cdfc335076b09b2f8825c66f375aa87e14801ba0842fcb73035361e792fa06e85f6441dac7adb49ca307a890938da84cedf8d2c6a03ec73e35098afec8c7256261ac9980390a4c463bbbccb7bf7389a19445febbe7",
      "networkId": 0,
      "chainId": 0
    },
    {
      "hash": "0xf60395003a68b9d22a87c6a8ab3737a50a5fedc8218ab2e26842f63fbf3a489a",
      "blockHash": "0x75d172a456048383215d37b90c9c25ab3eaf07c812fd2a6188887c8a3d611bf0",
      "blockNumber": 116816,
      "transactionIndex": 1,
      "confirmations": null,
      "from": "0xe6A7a1d47ff21B6321162AEA7C6CB457D5476Bca",
      "gasPrice": {
        "_hex": "0xba43b7400"
      },
      "gasLimit": {
        "_hex": "0x55f0"
      },
      "to": "0x7A3554F1e75C6Cf86Cb0eb6Ef3515C8008437be8",
      "value": {
        "_hex": "0x25d0155122e279c0"
      },
      "nonce": 5674,
      "data": "0x",
      "r": "0xd53e426d9ec9b5c123792b08f3cc300a29524133c32b7d69b5aa24dc2411c471",
      "s": "0x08cddc5569d45835e273058c4b526bd99814d9aec3f4939c20e9a09f5497716f",
      "v": 27,
      "creates": null,
      "raw": "0xf86e82162a850ba43b74008255f0947a3554f1e75c6cf86cb0eb6ef3515c8008437be88825d0155122e279c0801ba0d53e426d9ec9b5c123792b08f3cc300a29524133c32b7d69b5aa24dc2411c471a008cddc5569d45835e273058c4b526bd99814d9aec3f4939c20e9a09f5497716f",
      "networkId": 0,
      "chainId": 0
    },
    {
      "hash": "0x43d792ac858a994650853b77ae846d247ba6138d4247d725fca25c244047ab0e",
      "blockHash": "0x75d172a456048383215d37b90c9c25ab3eaf07c812fd2a6188887c8a3d611bf0",
      "blockNumber": 116816,
      "transactionIndex": 2,
      "confirmations": null,
      "from": "0xe6A7a1d47ff21B6321162AEA7C6CB457D5476Bca",
      "gasPrice": {
        "_hex": "0xba43b7400"
      },
      "gasLimit": {
        "_hex": "0x55f0"
      },
      "to": "0x6CB5e8313a5B29aDb14AE1884D3EcE4489d02D77",
      "value": {
        "_hex": "0x25d13fee9bf26870"
      },
      "nonce": 5675,
      "data": "0x",
      "r": "0x83fd43f4ffd4135972b782ba8c4716ceab872c4853bbcbd7a2bd2eec2583da2e",
      "s": "0x75df66bf8a186c07ffb5ccba7f002ad7edc7ad21ffdf0e40b5132e09043e25de",
      "v": 27,
      "creates": null,
      "raw": "0xf86e82162b850ba43b74008255f0946cb5e8313a5b29adb14ae1884d3ece4489d02d778825d13fee9bf26870801ba083fd43f4ffd4135972b782ba8c4716ceab872c4853bbcbd7a2bd2eec2583da2ea075df66bf8a186c07ffb5ccba7f002ad7edc7ad21ffdf0e40b5132e09043e25de",
      "networkId": 0,
      "chainId": 0
    },
    {
      "hash": "0xe1852378537eb43e0a361920e83ee2c5908ed44b07cf084dd1f6ffc8d1ab548f",
      "blockHash": "0x75d172a456048383215d37b90c9c25ab3eaf07c812fd2a6188887c8a3d611bf0",
      "blockNumber": 116816,
      "transactionIndex": 3,
      "confirmations": null,
      "from": "0xe6A7a1d47ff21B6321162AEA7C6CB457D5476Bca",
      "gasPrice": {
        "_hex": "0xba43b7400"
      },
      "gasLimit": {
        "_hex": "0x55f0"
      },
      "to": "0xe33977E292cceF99Ea8828733e97562F3690a8ad",
      "value": {
        "_hex": "0x25f6a01ab6302e14"
      },
      "nonce": 5676,
      "data": "0x",
      "r": "0xbd3eb1ef089c59f0fe7816ea42352a8cfd5c5b8b60e45405cf7d782cf225f050",
      "s": "0x1323ff2df961bf3e680603f9afc5ef193ea1351862971a5083797ef6cf6c6ad2",
      "v": 27,
      "creates": null,
      "raw": "0xf86e82162c850ba43b74008255f094e33977e292ccef99ea8828733e97562f3690a8ad8825f6a01ab6302e14801ba0bd3eb1ef089c59f0fe7816ea42352a8cfd5c5b8b60e45405cf7d782cf225f050a01323ff2df961bf3e680603f9afc5ef193ea1351862971a5083797ef6cf6c6ad2",
      "networkId": 0,
      "chainId": 0
    },
    {
      "hash": "0x43a28e1da0a40c37ad9768c32291b835621887cd1bffff60be138516fc577002",
      "blockHash": "0x75d172a456048383215d37b90c9c25ab3eaf07c812fd2a6188887c8a3d611bf0",
      "blockNumber": 116816,
      "transactionIndex": 4,
      "confirmations": null,
      "from": "0xe6A7a1d47ff21B6321162AEA7C6CB457D5476Bca",
      "gasPrice": {
        "_hex": "0xba43b7400"
      },
      "gasLimit": {
        "_hex": "0x55f0"
      },
      "to": "0x59C7860aBcb1eE791165B63365c3C8657EEe54c5",
      "value": {
        "_hex": "0x261d720e78a8b6f0"
      },
      "nonce": 5677,
      "data": "0x",
      "r": "0x27f5992882dea06904e5cd3e395574655c356102a3fb1ad3294e7ce43f41fc2a",
      "s": "0x30dc2fd94ceb555f1ea785f4d33798dcefcf159ac72e2446df6cc7ea0becc7b3",
      "v": 28,
      "creates": null,
      "raw": "0xf86e82162d850ba43b74008255f09459c7860abcb1ee791165b63365c3c8657eee54c588261d720e78a8b6f0801ca027f5992882dea06904e5cd3e395574655c356102a3fb1ad3294e7ce43f41fc2aa030dc2fd94ceb555f1ea785f4d33798dcefcf159ac72e2446df6cc7ea0becc7b3",
      "networkId": 0,
      "chainId": 0
    },
    {
      "hash": "0xed0f716237f19073957e2e802bf1168274d24a918bfb40b2eb6d120d9e7a4535",
      "blockHash": "0x75d172a456048383215d37b90c9c25ab3eaf07c812fd2a6188887c8a3d611bf0",
      "blockNumber": 116816,
      "transactionIndex": 5,
      "confirmations": null,
      "from": "0xe6A7a1d47ff21B6321162AEA7C6CB457D5476Bca",
      "gasPrice": {
        "_hex": "0xba43b7400"
      },
      "gasLimit": {
        "_hex": "0x55f0"
      },
      "to": "0x211D45933Ef88c3D7aD0120942CF50ab506e618F",
      "value": {
        "_hex": "0x265e4547048152d0"
      },
      "nonce": 5678,
      "data": "0x",
      "r": "0xd319c4bf680c98bcf0d9b6274c256703351d3557486ab48c6200f7f34c145dc7",
      "s": "0x6e9e358d96ee0174e6163ee87c9cf309a82072780de5458466161351ccaf5edb",
      "v": 28,
      "creates": null,
      "raw": "0xf86e82162e850ba43b74008255f094211d45933ef88c3d7ad0120942cf50ab506e618f88265e4547048152d0801ca0d319c4bf680c98bcf0d9b6274c256703351d3557486ab48c6200f7f34c145dc7a06e9e358d96ee0174e6163ee87c9cf309a82072780de5458466161351ccaf5edb",
      "networkId": 0,
      "chainId": 0
    },
    {
      "hash": "0x280f07b6053b28d0cc062bdf5ded00bc0c3615827241862e5fe6981e22034fe7",
      "blockHash": "0x75d172a456048383215d37b90c9c25ab3eaf07c812fd2a6188887c8a3d611bf0",
      "blockNumber": 116816,
      "transactionIndex": 6,
      "confirmations": null,
      "from": "0xe6A7a1d47ff21B6321162AEA7C6CB457D5476Bca",
      "gasPrice": {
        "_hex": "0xba43b7400"
      },
      "gasLimit": {
        "_hex": "0x55f0"
      },
      "to": "0x0d62E666D681E8Be96903Ac4aBD3537f28c6125A",
      "value": {
        "_hex": "0x26636d4fdae2c9f0"
      },
      "nonce": 5679,
      "data": "0x",
      "r": "0x9bb9a990debdddad38c6afed08cd81059efb27c776f3240aac2c86c2c72e16dd",
      "s": "0x7a5c20a9ee0436088cb88f6ae552d2efd34f5e511fc5de15b275adcc1fe779d6",
      "v": 28,
      "creates": null,
      "raw": "0xf86e82162f850ba43b74008255f0940d62e666d681e8be96903ac4abd3537f28c6125a8826636d4fdae2c9f0801ca09bb9a990debdddad38c6afed08cd81059efb27c776f3240aac2c86c2c72e16dda07a5c20a9ee0436088cb88f6ae552d2efd34f5e511fc5de15b275adcc1fe779d6",
      "networkId": 0,
      "chainId": 0
    },
    {
      "hash": "0x5e7d89241e93680eae5af9f8d7495345efc94316ac8d0ed61c5d19ee415e8554",
      "blockHash": "0x75d172a456048383215d37b90c9c25ab3eaf07c812fd2a6188887c8a3d611bf0",
      "blockNumber": 116816,
      "transactionIndex": 7,
      "confirmations": null,
      "from": "0xe6A7a1d47ff21B6321162AEA7C6CB457D5476Bca",
      "gasPrice": {
        "_hex": "0xba43b7400"
      },
      "gasLimit": {
        "_hex": "0x55f0"
      },
      "to": "0x0a856CdC3EaFBAD120c51220d0F71d4Aa2Dee7AE",
      "value": {
        "_hex": "0x266746017ce170c0"
      },
      "nonce": 5680,
      "data": "0x",
      "r": "0x5435a63cf47b8f8f4b9e5f4d85eb6fa4c38f4a4fd23ca769070a22931ae9f639",
      "s": "0x389980f04f9526017f75580ac5366a2234d0e50475dc6be64c8ac67b5fd3a78b",
      "v": 27,
      "creates": null,
      "raw": "0xf86e821630850ba43b74008255f0940a856cdc3eafbad120c51220d0f71d4aa2dee7ae88266746017ce170c0801ba05435a63cf47b8f8f4b9e5f4d85eb6fa4c38f4a4fd23ca769070a22931ae9f639a0389980f04f9526017f75580ac5366a2234d0e50475dc6be64c8ac67b5fd3a78b",
      "networkId": 0,
      "chainId": 0
    },
    {
      "hash": "0x584618839ccc3285a5da95d1cace4a81ef00ec7698ff8ba6fc13b4ed271cc42e",
      "blockHash": "0x75d172a456048383215d37b90c9c25ab3eaf07c812fd2a6188887c8a3d611bf0",
      "blockNumber": 116816,
      "transactionIndex": 8,
      "confirmations": null,
      "from": "0xe6A7a1d47ff21B6321162AEA7C6CB457D5476Bca",
      "gasPrice": {
        "_hex": "0xba43b7400"
      },
      "gasLimit": {
        "_hex": "0x55f0"
      },
      "to": "0x0a58b1C9aaF19693813c11b8a20D20C2a8Fe8883",
      "value": {
        "_hex": "0x26fe514040b0b5d4"
      },
      "nonce": 5681,
      "data": "0x",
      "r": "0x3f9024ebe9c95d60a723ad36dfdc4b7a16431328b6b97c739cf692d16f04945d",
      "s": "0x3af19f1c709794fc2eef422b9d77f0dfe0a5cf5dacdebbc9f3f8fcc5530386c4",
      "v": 28,
      "creates": null,
      "raw": "0xf86e821631850ba43b74008255f0940a58b1c9aaf19693813c11b8a20d20c2a8fe88838826fe514040b0b5d4801ca03f9024ebe9c95d60a723ad36dfdc4b7a16431328b6b97c739cf692d16f04945da03af19f1c709794fc2eef422b9d77f0dfe0a5cf5dacdebbc9f3f8fcc5530386c4",
      "networkId": 0,
      "chainId": 0
    }
  ]
}