{
  "hash": "0x312fa33d71dd34c672768da70c25489be94a98c27d3ed15c7e77dd327ee463d7",
  "parentHash": "0xb5b789a4f79537629e7f95da81666338b95b176729fb9ae3c8fb5151df286c28",
  "number": 106292,
  "timestamp": 1439901809,
  "nonce": "0xb3bb5c3a0b6135d1",
  "difficulty": 4461914959483,
  "gasLimit": {
    "_hex": "0x2fefd8"
  },
  "gasUsed": {
    "_hex": "0xa410"
  },
  "miner": "0x623d2411c3bb3340784155F9a688b0085251aB5c",
  "extraData": "0x",
  "transactions": [
    {
      "hash": "0xdc00025c4e0f028e252905e6d049ac16f760d13a880f75a9336f512f2c8b452e",
      "blockHash": "0x312fa33d71dd34c672768da70c25489be94a98c27d3ed15c7e77dd327ee463d7",
      "blockNumber": 106292,
      "transactionIndex": 0,
      "confirmations": null,
      "from": "0xD9176cf582B2f51fAD57941e0a84dfBa0Ed3620D",
      "gasPrice": {
        "_hex": "0xd23d34fe2"
      },
      "gasLimit": {
        "_hex": "0x5208"
      },
      "to": "0x32Be343B94f860124dC4fEe278FDCBD38C102D88",
      "value": {
        "_hex": "0xddc80d06aa29400"
      },
      "nonce": 0,
      "data": "0x",
      "r": "0xc0fdcf7c2fb411689a24d8920c2cc567feb52ebaf3cc88be0351bd8b540467fb",
      "s": "0x20edcc768f062eee48bedc372aa987fde9feccc40568afbcfd1dcca513197e4c",
      "v": 28,
      "creates": null,
      "raw": "0xf86c80850d23d34fe28252089432be343b94f860124dc4fee278fdcbd38c102d88880ddc80d06aa29400801ca0c0fdcf7c2fb411689a24d8920c2cc567feb52ebaf3cc88be0351bd8b540467fba020edcc768f062eee48bedc372aa987fde9feccc40568afbcfd1dcca513197e4c",
      "networkId": 0,
      "chainId": 0
    },
    {
      "hash": "0x50e13e426e52adcbc5cd39db54baae10c0d97fc38735466e882a2d2733adf50c",
      "blockHash": "0x312fa33d71dd34c672768da70c25489be94a98c27d3ed15c7e77dd327ee463d7",
      "blockNumber": 106292,
      "transactionIndex": 1,
      "confirmations": null,
      "from": "0x2878c60b86FBf89645547fEcFA7f74B067f32E52",
      "gasPrice": {
        "_hex": "0xd23d34fe2"
      },
      "gasLimit": {
        "_hex": "0x5208"
      },
      "to": "0x32Be343B94f860124dC4fEe278FDCBD38C102D88",
      "value": {
        "_hex": "0xb6f4a9b12ac77800000"
      },
      "nonce": 6,
      "data": "0x",
      "r": "0xa39dde91f8da9c24ad5aa4f1afa83fe7c44d54f9be85ecc13a5d10b58e17697b",
      "s": "0x5d8cbe3c1f07b66a8fd74b05e8ad3acd586307a9083255332912fc050f5999db",
      "v": 27,
      "creates": null,
      "raw": "0xf86e06850d23d34fe28252089432be343b94f860124dc4fee278fdcbd38c102d888a0b6f4a9b12ac77800000801ba0a39dde91f8da9c24ad5aa4f1afa83fe7c44d54f9be85ecc13a5d10b58e17697ba05d8cbe3c1f07b66a8fd74b05e8ad3acd586307a9083255332912fc050f5999db",
      "networkId": 0,
      "chainId": 0
    }
  ]
}