{
  "hash": "0x0e4ae37e72df1107657e53f4d3cce5000ea2f584920c99d39f7990ce77fc7f32",
  "parentHash": "0x44655fec3121616dcb747ffd67dea86f0fa2f9899fd425d41ab34b227f3f891d",
  "number": 70470,
  "timestamp": 1439320179,
  "nonce": "0x220c1017970394ef",
  "difficulty": 2145816578963,
  "gasLimit": {
    "_hex": "0x2fefd8"
  },
  "gasUsed": {
    "_hex": "0x5208"
  },
  "miner": "0x9746c7e1ef2bd21FF3997fa467593a89cb852BD0",
  "extraData": "0x476574682f76312e302e312f77696e646f77732f676f312e342e32",
  "transactions": [
    {
      "hash": "0x7c9a3d2708eb2fda8f14fa4faf2c9df1a9792d70479810e3187c48b356111b41",
      "blockHash": "0x0e4ae37e72df1107657e53f4d3cce5000ea2f584920c99d39f7990ce77fc7f32",
      "blockNumber": 70470,
      "transactionIndex": 0,
      "confirmations": null,
      "from": "0x2910543Af39abA0Cd09dBb2D50200b3E800A63D2",
      "gasPrice": {
        "_hex": "0xd17100221"
      },
      "gasLimit": {
        "_hex": "0x5208"
      },
      "to": "0x241361559FEEF80Ef137302153Bd9Ed2f25db3eF",
      "value": {
        "_hex": "0x3aead3d6c11be36a000"
      },
      "nonce": 242,
      "data": "0x",
      "r": "0xf9d85326e3a85539f000d37fdc87fb8dd6a275f22665c0e1d8922e90ab40651b",
      "s": "0x0d30c6e564f1e9114638e8f22e9d3af256a1b3a566edf2739c041eef67ce5068",
      "v": 27,
      "creates": null,
      "raw": "0xf86f81f2850d1710022182520894241361559feef80ef137302153bd9ed2f25db3ef8a03aead3d6c11be36a000801ba0f9d85326e3a85539f000d37fdc87fb8dd6a275f22665c0e1d8922e90ab40651ba00d30c6e564f1e9114638e8f22e9d3af256a1b3a566edf2739c041eef67ce5068",
      "networkId": 0,
      "chainId": 0
    }
  ]
}