{
  "hash": "0xc09ca052578dc8ee3c751aad104f10e78231fc87ca2430b8de6d2b352129cf7b",
  "parentHash": "0x51145e2ca341897ab54b7ca0d7616366d3216018b738908fe18d8ee19b124498",
  "number": 109188,
  "timestamp": 1439952336,
  "nonce": "0x1649f5f653585149",
  "difficulty": 4460374837820,
  "gasLimit": {
    "_hex": "0x2fefd8"
  },
  "gasUsed": {
    "_hex": "0x406b6"
  },
  "miner": "0xe6A7a1d47ff21B6321162AEA7C6CB457D5476Bca",
  "extraData": "0x476574682f76312e302e312d38326566323666362f6c696e75782f676f312e34",
  "transactions": [
    {
      "hash": "0xcd5ae8d26513e30ccd41eaa9db2347fc14d0de0c76ef55d8482b68b531c2f442",
      "blockHash": "0xc09ca052578dc8ee3c751aad104f10e78231fc87ca2430b8de6d2b352129cf7b",
      "blockNumber": 109188,
      "transactionIndex": 0,
      "confirmations": null,
      "from": "0x13F26856CBaCaAba9c4488a31C72E605fAe029FC",
      "gasPrice": {
        "_hex": "0xd76231e4e"
      },
      "gasLimit": {
        "_hex": "0x493e0"
      },
      "to": null,
      "value": {
        "_hex": "0x0"
      },
      "nonce": 0,
      "data": "0x60606040526040516102b43803806102b48339016040526060805160600190602001505b5b33600060006101000a81548173ffffffffffffffffffffffffffffffffffffffff021916908302179055505b806001600050908051906020019082805482825590600052602060002090601f01602090048101928215609e579182015b82811115609d5782518260005055916020019190600101906081565b5b50905060c5919060a9565b8082111560c1576000818150600090555060010160a9565b5090565b50505b506101dc806100d86000396000f30060606040526000357c01000000000000000000000000000000000000000000000000000000009004806341c0e1b514610044578063cfae32171461005157610042565b005b61004f6004506100ca565b005b61005c60045061015e565b60405180806020018281038252838181518152602001915080519060200190808383829060006004602084601f0104600302600f01f150905090810190601f1680156100bc5780820380516001836020036101000a031916815260200191505b509250505060405180910390f35b600060009054906101000a900473ffffffffffffffffffffffffffffffffffffffff1673ffffffffffffffffffffffffffffffffffffffff163373ffffffffffffffffffffffffffffffffffffffff16141561015b57600060009054906101000a900473ffffffffffffffffffffffffffffffffffffffff1673ffffffffffffffffffffffffffffffffffffffff16ff5b5b565b60206040519081016040528060008152602001506001600050805480601f016020809104026020016040519081016040528092919081815260200182805480156101cd57820191906000526020600020905b8154815290600101906020018083116101b057829003601f168201915b505050505090506101d9565b90560000000000000000000000000000000000000000000000000000000000000020000000000000000000000000000000000000000000000000000000000000002348656c6c6f2066726f6d2041647269616e277320666972737420636f6e7472616374210000000000000000000000000000000000000000000000000000000000",
      "r": "0x368a809692908726ce6f792ff0c6bad8f4332dcd2f9148266033ee3791db885e",
      "s": "0x59b164c3dc7709d488d3daaa4ee2bb54289f046137d2895af422b96ff3f16948",
      "v": 27,
      "creates": "0x40447eA85464f629a06ad4Ae418B6d5091E7f2d8",
      "raw": "0xf9038780850d76231e4e830493e08080b9033460606040526040516102b43803806102b48339016040526060805160600190602001505b5b33600060006101000a81548173ffffffffffffffffffffffffffffffffffffffff021916908302179055505b806001600050908051906020019082805482825590600052602060002090601f01602090048101928215609e579182015b82811115609d5782518260005055916020019190600101906081565b5b50905060c5919060a9565b8082111560c1576000818150600090555060010160a9565b5090565b50505b506101dc806100d86000396000f30060606040526000357c01000000000000000000000000000000000000000000000000000000009004806341c0e1b514610044578063cfae32171461005157610042565b005b61004f6004506100ca565b005b61005c60045061015e565b60405180806020018281038252838181518152602001915080519060200190808383829060006004602084601f0104600302600f01f150905090810190601f1680156100bc5780820380516001836020036101000a031916815260200191505b509250505060405180910390f35b600060009054906101000a900473ffffffffffffffffffffffffffffffffffffffff1673ffffffffffffffffffffffffffffffffffffffff163373ffffffffffffffffffffffffffffffffffffffff16141561015b57600060009054906101000a900473ffffffffffffffffffffffffffffffffffffffff1673ffffffffffffffffffffffffffffffffffffffff16ff5b5b565b60206040519081016040528060008152602001506001600050805480601f016020809104026020016040519081016040528092919081815260200182805480156101cd57820191906000526020600020905b8154815290600101906020018083116101b057829003601f168201915b505050505090506101d9565b90560000000000000000000000000000000000000000000000000000000000000020000000000000000000000000000000000000000000000000000000000000002348656c6c6f2066726f6d2041647269616e277320666972737420636f6e74726163742100000000000000000000000000000000000000000000000000000000001ba0368a809692908726ce6f792ff0c6bad8f4332dcd2f9148266033ee3791db885ea059b164c3dc7709d488d3daaa4ee2bb54289f046137d2895af422b96ff3f16948",
      "networkId": 0,
      "chainId": 0
    },
    {
      "hash": "0x8f7074e5ffb2eb09006cd4964ae61fdf6e7aec39f01fab9d7db773780721a42a",
      "blockHash": "0xc09ca052578dc8ee3c751aad104f10e78231fc87ca2430b8de6d2b352129cf7b",
      "blockNumber": 109188,
      "transactionIndex": 1,
      "confirmations": null,
      "from": "0x007f7f58D3eb5b7510A301eCC749FC1fCDDBE14D",
      "gasPrice": {
        "_hex": "0xd382b0b9c"
      },
      "gasLimit": {
        "_hex": "0x15f90"
      },
      "to": "0xb1abce2918E21ddb93AA452731a12672A3d9F75a",
      "value": {
        "_hex": "0x4563918244f40000"
      },
      "nonce": 261,
      "data": "0x",
      "r": "0x5d5aa56037341914ad814f554e689ea8de09f87c0ebdf62bc7f933c2e09dae7a",
      "s": "0x727a9f5556a1ca92ac208dbe8c50c1ee8f99d44b6a8d06b82654670e62c0f3ba",
      "v": 28,
      "creates": null,
      "raw": "0xf86f820105850d382b0b9c83015f9094b1abce2918e21ddb93aa452731a12672a3d9f75a884563918244f40000801ca05d5aa56037341914ad814f554e689ea8de09f87c0ebdf62bc7f933c2e09dae7aa0727a9f5556a1ca92ac208dbe8c50c1ee8f99d44b6a8d06b82654670e62c0f3ba",
      "networkId": 0,
      "chainId": 0
    }
  ]
}