{
  "hash": "0x6173cd3f5c0ecd7534ba495c1c50a06f64739580e2e5e828feb3fec3ff5b48b7",
  "parentHash": "0xf555d57546d57049e7b96e5e87325309b123713d889ed715c4b9a631d656b9f1",
  "number": 54605,
  "timestamp": 1439056894,
  "nonce": "0x903de0b289cc347e",
  "difficulty": 1622021355111,
  "gasLimit": {
    "_hex": "0x2fe3de"
  },
  "gasUsed": {
    "_hex": "0x546c"
  },
  "miner": "0x0Cb6EEF179Ba9E7036f95bEEB01e250ab85A8c88",
  "extraData": "0x476574682f76312e302e302f77696e646f77732f676f312e342e32",
  "transactions": [
    {
      "hash": "0xc47a5bd5a4dcd9d687ff76fb042612d0631208e18cb5c6758f3c935703a360dd",
      "blockHash": "0x6173cd3f5c0ecd7534ba495c1c50a06f64739580e2e5e828feb3fec3ff5b48b7",
      "blockNumber": 54605,
      "transactionIndex": 0,
      "confirmations": null,
      "from": "0xe49936A92a8CcF710eaAc342Bc454B9b14EbECb1",
      "gasPrice": {
        "_hex": "0x110c8f7d8de"
      },
      "gasLimit": {
        "_hex": "0xc350"
      },
      "to": "0x2910543Af39abA0Cd09dBb2D50200b3E800A63D2",
      "value": {
        "_hex": "0x6f05b59d3b20000"
      },
      "nonce": 2,
      "data": "0x454e45484638354e38",
      "r": "0x8a44aceb540bb4744b93690e1aede8ce3519d1a99323b76158d3ffba69c6243d",
      "s": "0xd644acad2b56c9ca252e585af2b77e56894e19728e0c85a47f78f72670c82a00",
      "v": 27,
      "creates": null,
      "raw": "0xf87602860110c8f7d8de82c350942910543af39aba0cd09dbb2d50200b3e800a63d28806f05b59d3b2000089454e45484638354e381ba08a44aceb540bb4744b93690e1aede8ce3519d1a99323b76158d3ffba69c6243da0d644acad2b56c9ca252e585af2b77e56894e19728e0c85a47f78f72670c82a00",
      "networkId": 0,
      "chainId": 0
    }
  ]
}