{
  "hash": "0x51de097f7c8fa4636511886e44dcd4a4b022b978a1e3f0b5e7a21d505e756847",
  "parentHash": "0x8b2c7345aadddf3db112368f2c6e937fb60fa798b146d25f4ee4d7f20e4cdfcf",
  "number": 74337,
  "timestamp": 1439384539,
  "nonce": "0xaeca36f48d165907",
  "difficulty": 2211831506365,
  "gasLimit": {
    "_hex": "0x2fefd5"
  },
  "gasUsed": {
    "_hex": "0xf618"
  },
  "miner": "0xe6A7a1d47ff21B6321162AEA7C6CB457D5476Bca",
  "extraData": "0x476574682f76312e302e312d38326566323666362f6c696e75782f676f312e34",
  "transactions": [
    {
      "hash": "0x8c23cb01ea2afdcb0205a8ec83f7be8a1f20304e49a95ab4023c90963cb240b8",
      "blockHash": "0x51de097f7c8fa4636511886e44dcd4a4b022b978a1e3f0b5e7a21d505e756847",
      "blockNumber": 74337,
      "transactionIndex": 0,
      "confirmations": null,
      "from": "0x707e0B3205D90E717a6b1171816F3C36d18c2D63",
      "gasPrice": {
        "_hex": "0x45d964b800"
      },
      "gasLimit": {
        "_hex": "0x5208"
      },
      "to": "0x827039b481254dee41Ef8f8333AdF1aba69a2f5A",
      "value": {
        "_hex": "0x16345785d8a00000"
      },
      "nonce": 3,
      "data": "0x",
      "r": "0x37097a0b298fca48f12909be70a874c6a640e3e5ab28cf7e8f37db6106c1cc40",
      "s": "0x1e2e97d68054cc84472fabbf96fc31b31282266087b18d8db0f2886d0aa6c938",
      "v": 27,
      "creates": null,
      "raw": "0xf86c038545d964b80082520894827039b481254dee41ef8f8333adf1aba69a2f5a8816345785d8a00000801ba037097a0b298fca48f12909be70a874c6a640e3e5ab28cf7e8f37db6106c1cc40a01e2e97d68054cc84472fabbf96fc31b31282266087b18d8db0f2886d0aa6c938",
      "networkId": 0,
      "chainId": 0
    },
    {
      "hash": "0x9ec22e3f2ac6417d5f77bd8061208441aa0f7e3dac805f14b43bfa1ccac157ce",
      "blockHash": "0x51de097f7c8fa4636511886e44dcd4a4b022b978a1e3f0b5e7a21d505e756847",
      "blockNumber": 74337,
      "transactionIndex": 1,
      "confirmations": null,
      "from": "0x3010cacF5965f60685011055570972e92B4479aB",
      "gasPrice": {
        "_hex": "0xd39ed2caa"
      },
      "gasLimit": {
        "_hex": "0x5208"
      },
      "to": "0x32Be343B94f860124dC4fEe278FDCBD38C102D88",
      "value": {
        "_hex": "0x377e9dd7f4abac00"
      },
      "nonce": 1,
      "data": "0x",
      "r": "0xdec759442e143a399a97d04a90f8e869dab62ceae136beb7209ebe97ecba0e69",
      "s": "0x5c95b77df64d4b7838350b0ccbf7dd986fd03f54128d3aac45c87e07fe32b4c9",
      "v": 27,
      "creates": null,
      "raw": "0xf86c01850d39ed2caa8252089432be343b94f860124dc4fee278fdcbd38c102d8888377e9dd7f4abac00801ba0dec759442e143a399a97d04a90f8e869dab62ceae136beb7209ebe97ecba0e69a05c95b77df64d4b7838350b0ccbf7dd986fd03f54128d3aac45c87e07fe32b4c9",
      "networkId": 0,
      "chainId": 0
    },
    {
      "hash": "0xbd1010c35105e26ca217742247f1fcd081d8f5c492bd7d039bc3d90a576550f7",
      "blockHash": "0x51de097f7c8fa4636511886e44dcd4a4b022b978a1e3f0b5e7a21d505e756847",
      "blockNumber": 74337,
      "transactionIndex": 2,
      "confirmations": null,
      "from": "0xBDda295a4aa9E3A60063548157510B47c6BE932f",
      "gasPrice": {
        "_hex": "0xd39ed2caa"
      },
      "gasLimit": {
        "_hex": "0x5208"
      },
      "to": "0x32Be343B94f860124dC4fEe278FDCBD38C102D88",
      "value": {
        "_hex": "0x4027d312bfcf2800"
      },
      "nonce": 1,
      "data": "0x",
      "r": "0x7e3ac4d0c3ebce672b6abe97723aab16a4bfdb5944ccbcfbadfd545fe74374d4",
      "s": "0x7546013f5a45181eb1242d3556c35f2f192b4049b4d752b0c8f4ec959e8d8801",
      "v": 27,
      "creates": null,
      "raw": "0xf86c01850d39ed2caa8252089432be343b94f860124dc4fee278fdcbd38c102d88884027d312bfcf2800801ba07e3ac4d0c3ebce672b6abe97723aab16a4bfdb5944ccbcfbadfd545fe74374d4a07546013f5a45181eb1242d3556c35f2f192b4049b4d752b0c8f4ec959e8d8801",
      "networkId": 0,
      "chainId": 0
    }
  ]
}