{
  "hash": "0xcfee97d0526b77a19d8dc64067011bbb0dbed04380ea51225ff203d33e701a1f",
  "parentHash": "0x6d7935c4047bc50b60887ce817cb2e38b40921f89372c83e93a8f387d46e1347",
  "number": 68071,
  "timestamp": 1439282097,
  "nonce": "0x70f23043ee2b6cfd",
  "difficulty": 1962954383233,
  "gasLimit": {
    "_hex": "0x2fefd8"
  },
  "gasUsed": {
    "_hex": "0x5208"
  },
  "miner": "0xA2Cb067D1B3038eEe446d994440C0ae9cf1abfdF",
  "extraData": "0x476574682f76312e302e312f77696e646f77732f676f312e342e32",
  "transactions": [
    {
      "hash": "0x29a5e7df4e194d724fa41d04ca76d9be82586a324e12bb371f7e3f660a7ae1ed",
      "blockHash": "0xcfee97d0526b77a19d8dc64067011bbb0dbed04380ea51225ff203d33e701a1f",
      "blockNumber": 68071,
      "transactionIndex": 0,
      "confirmations": null,
      "from": "0xF109ca710C0Df51c1a86dBA1B0BA0Ed038114463",
      "gasPrice": {
        "_hex": "0xcd7463ad5"
      },
      "gasLimit": {
        "_hex": "0x5208"
      },
      "to": "0x32Be343B94f860124dC4fEe278FDCBD38C102D88",
      "value": {
        "_hex": "0xd026972b035f9800"
      },
      "nonce": 5,
      "data": "0x",
      "r": "0xf2d16012302de9bfded424e59a835ca35cbd172f917a2e1382e01a86943b4459",
      "s": "0x38d91925a37fbdcc2e0954695c87a33701aab4e762553a7c879ad7ae215815ea",
      "v": 28,
      "creates": null,
      "raw": "0xf86c05850cd7463ad58252089432be343b94f860124dc4fee278fdcbd38c102d8888d026972b035f9800801ca0f2d16012302de9bfded424e59a835ca35cbd172f917a2e1382e01a86943b4459a038d91925a37fbdcc2e0954695c87a33701aab4e762553a7c879ad7ae215815ea",
      "networkId": 0,
      "chainId": 0
    }
  ]
}