{
  "hash": "0xd701ee10d217e4d9c15fd5959cad17d10af37b9d0db14e1f058b862421708608",
  "parentHash": "0xfd61fc11c5693144a442c178c3600ea04511690b0a866afc2868e780ff0edb7a",
  "number": 65826,
  "timestamp": 1439243471,
  "nonce": "0x70e4f68c05b01250",
  "difficulty": 1949151368639,
  "gasLimit": {
    "_hex": "0x2fefd8"
  },
  "gasUsed": {
    "_hex": "0x4bfe8"
  },
  "miner": "0x5F8F73E26CdF436f19Cb24C82F90A15AFe55b592",
  "extraData": "0x476574682f76312e302e312f77696e646f77732f676f312e342e32",
  "transactions": [
    {
      "hash": "0xbb0ae8c7dc64580da9a79ddd568ac78c25edba77cb684711565f9ad6645f9509",
      "blockHash": "0xd701ee10d217e4d9c15fd5959cad17d10af37b9d0db14e1f058b862421708608",
      "blockNumber": 65826,
      "transactionIndex": 0,
      "confirmations": null,
      "from": "0xFBb1b73C4f0BDa4f67dcA266ce6Ef42f520fBB98",
      "gasPrice": {
        "_hex": "0xde03e38fb"
      },
      "gasLimit": {
        "_hex": "0x15f90"
      },
      "to": "0xa1A111bc074c9cfa781F0C38e63bD51c91b8af00",
      "value": {
        "_hex": "0x3bd913e6c1df40000"
      },
      "nonce": 6,
      "data": "0x432ced044254525800000000000000000000000000000000000000000000000000000000",
      "r": "0x5cc3bd41a26190f0d95589ff0159955f9be096d0b1ae06bc9871bc2f7796556c",
      "s": "0x12efd20903a295210febc07b3487d624fc47375e0d89d8a97564144a4e31b886",
      "v": 28,
      "creates": null,
      "raw": "0xf89206850de03e38fb83015f9094a1a111bc074c9cfa781f0c38e63bd51c91b8af008903bd913e6c1df40000a4432ced0442545258000000000000000000000000000000000000000000000000000000001ca05cc3bd41a26190f0d95589ff0159955f9be096d0b1ae06bc9871bc2f7796556ca012efd20903a295210febc07b3487d624fc47375e0d89d8a97564144a4e31b886",
      "networkId": 0,
      "chainId": 0
    },
    {
      "hash": "0x4f601e205165a4761c1d5b39eb664e2e8d0854f802eed47d4d2a6cad8a398fba",
      "blockHash": "0xd701ee10d217e4d9c15fd5959cad17d10af37b9d0db14e1f058b862421708608",
      "blockNumber": 65826,
      "transactionIndex": 1,
      "confirmations": null,
      "from": "0xFBb1b73C4f0BDa4f67dcA266ce6Ef42f520fBB98",
      "gasPrice": {
        "_hex": "0xde03e38fb"
      },
      "gasLimit": {
        "_hex": "0x445c0"
      },
      "to": null,
      "value": {
        "_hex": "0x0"
      },
      "nonce": 7,
      "data": "0x60606040525b33600060006101000a81548173ffffffffffffffffffffffffffffffffffffffff021916908302179055505b610352806100406000396000f30060606040523615610053576000357c0100000000000000000000000000000000000000000000000000000000900480633feb1bd8146100aa5780636042a760146100c9578063b214faa5146100ee57610053565b6100a85b3373ffffffffffffffffffffffffffffffffffffffff167fceaafb6781e240ba6b317a906047690d1c227df2d967ff3f53b44f14a62c2cab346040518082815260200191505060405180910390a25b565b005b6100c7600480359060200180359060200180359060200150610154565b005b6100ec600480359060200180359060200180359060200180359060200150610233565b005b6100ff600480359060200150610101565b005b803373ffffffffffffffffffffffffffffffffffffffff167f19dacbf83c5de6658e14cbf7bcae5c15eca2eedecf1c66fbca928e4d351bea0f346040518082815260200191505060405180910390a35b50565b600060009054906101000a900473ffffffffffffffffffffffffffffffffffffffff1673ffffffffffffffffffffffffffffffffffffffff163373ffffffffffffffffffffffffffffffffffffffff16141561022d578173ffffffffffffffffffffffffffffffffffffffff16600082604051809050600060405180830381858888f19350505050508173ffffffffffffffffffffffffffffffffffffffff16837f4c13017ee95afc4bbd8a701dd9fbc9733f1f09f5a1b5438b5b9abd48e4c92d78836040518082815260200191505060405180910390a35b5b505050565b600060009054906101000a900473ffffffffffffffffffffffffffffffffffffffff1673ffffffffffffffffffffffffffffffffffffffff163373ffffffffffffffffffffffffffffffffffffffff16141561034b578273ffffffffffffffffffffffffffffffffffffffff1663b214faa58284604051837c01000000000000000000000000000000000000000000000000000000000281526004018082815260200191505060006040518083038185886185025a03f11561000257505050508273ffffffffffffffffffffffffffffffffffffffff16847f260c3af1b30cb645202dd6dbf41affda680b1ffebd32d401b7f121c2b92626808484604051808381526020018281526020019250505060405180910390a35b5b5050505056",
      "r": "0x9e52d73ec2ef9d146fda0750f6aec4ff5b4904017d00b10ca6131393013e46a7",
      "s": "0x2173d00a395a13a141e79cd3a08d2770c49062c93b1a7008e4c6270dda2998e4",
      "v": 28,
      "creates": "0x0fa647372d8535054f3A9C269F1c5d8299fD0bF6",
      "raw": "0xf903e507850de03e38fb830445c08080b9039260606040525b33600060006101000a81548173ffffffffffffffffffffffffffffffffffffffff021916908302179055505b610352806100406000396000f30060606040523615610053576000357c0100000000000000000000000000000000000000000000000000000000900480633feb1bd8146100aa5780636042a760146100c9578063b214faa5146100ee57610053565b6100a85b3373ffffffffffffffffffffffffffffffffffffffff167fceaafb6781e240ba6b317a906047690d1c227df2d967ff3f53b44f14a62c2cab346040518082815260200191505060405180910390a25b565b005b6100c7600480359060200180359060200180359060200150610154565b005b6100ec600480359060200180359060200180359060200180359060200150610233565b005b6100ff600480359060200150610101565b005b803373ffffffffffffffffffffffffffffffffffffffff167f19dacbf83c5de6658e14cbf7bcae5c15eca2eedecf1c66fbca928e4d351bea0f346040518082815260200191505060405180910390a35b50565b600060009054906101000a900473ffffffffffffffffffffffffffffffffffffffff1673ffffffffffffffffffffffffffffffffffffffff163373ffffffffffffffffffffffffffffffffffffffff16141561022d578173ffffffffffffffffffffffffffffffffffffffff16600082604051809050600060405180830381858888f19350505050508173ffffffffffffffffffffffffffffffffffffffff16837f4c13017ee95afc4bbd8a701dd9fbc9733f1f09f5a1b5438b5b9abd48e4c92d78836040518082815260200191505060405180910390a35b5b505050565b600060009054906101000a900473ffffffffffffffffffffffffffffffffffffffff1673ffffffffffffffffffffffffffffffffffffffff163373ffffffffffffffffffffffffffffffffffffffff16141561034b578273ffffffffffffffffffffffffffffffffffffffff1663b214faa58284604051837c01000000000000000000000000000000000000000000000000000000000281526004018082815260200191505060006040518083038185886185025a03f11561000257505050508273ffffffffffffffffffffffffffffffffffffffff16847f260c3af1b30cb645202dd6dbf41affda680b1ffebd32d401b7f121c2b92626808484604051808381526020018281526020019250505060405180910390a35b5b50505050561ca09e52d73ec2ef9d146fda0750f6aec4ff5b4904017d00b10ca6131393013e46a7a02173d00a395a13a141e79cd3a08d2770c49062c93b1a7008e4c6270dda2998e4",
      "networkId": 0,
      "chainId": 0
    }
  ]
}