{
  "hash": "0x92eb880e0d9961701f446bf91d87cc1b2cf68aab7191e0289d9c08d668367101",
  "parentHash": "0x25387662256c55fdb16018fe70dac05b9d0a66c62cd68f4a272bb4d9e9e33c19",
  "number": 48567,
  "timestamp": 1438959111,
  "nonce": "0xd486ff9ac9de0ed6",
  "difficulty": 1470731780834,
  "gasLimit": {
    "_hex": "0x198a2"
  },
  "gasUsed": {
    "_hex": "0xa674"
  },
  "miner": "0x55D1554b08a5311C5c0A0B6464162192f9D2f884",
  "extraData": "0x476574682f76312e302e312f6c696e75782f676f312e342e32",
  "transactions": [
    {
      "hash": "0xdf5aa09033604743398f98c5922f71ab696dd0500e736ff7d66713a97a4f3eff",
      "blockHash": "0x92eb880e0d9961701f446bf91d87cc1b2cf68aab7191e0289d9c08d668367101",
      "blockNumber": 48567,
      "transactionIndex": 0,
      "confirmations": null,
      "from": "0xE0C4AB9072B4E6e3654A49F8A8Db026A4B3386a9",
      "gasPrice": {
        "_hex": "0xd706f1054"
      },
      "gasLimit": {
        "_hex": "0x15f90"
      },
      "to": "0x2910543Af39abA0Cd09dBb2D50200b3E800A63D2",
      "value": {
        "_hex": "0x6f05b59d3b20000"
      },
      "nonce": 0,
      "data": "0x454e46365244454d30",
      "r": "0x599c4a59d6f40f40897a0fa1aedee713e05c3b7b572925460b5963e1c3aa352a",
      "s": "0x5d354bb93b30a3de298d1b26ce3c73b1da3e264c521d54c2551cf73b87a655f4",
      "v": 28,
      "creates": null,
      "raw": "0xf87680850d706f105483015f90942910543af39aba0cd09dbb2d50200b3e800a63d28806f05b59d3b2000089454e46365244454d301ca0599c4a59d6f40f40897a0fa1aedee713e05c3b7b572925460b5963e1c3aa352aa05d354bb93b30a3de298d1b26ce3c73b1da3e264c521d54c2551cf73b87a655f4",
      "networkId": 0,
      "chainId": 0
    },
    {
      "hash": "0x384815f4059847ff82393484208499a976226f2b6394696d30737bad29b1886d",
      "blockHash": "0x92eb880e0d9961701f446bf91d87cc1b2cf68aab7191e0289d9c08d668367101",
      "blockNumber": 48567,
      "transactionIndex": 1,
      "confirmations": null,
      "from": "0x7a19C3C33f2a800b2FA361fD24277cAb0A1C1dB1",
      "gasPrice": {
        "_hex": "0xcd0d3b13b"
      },
      "gasLimit": {
        "_hex": "0x5208"
      },
      "to": "0x32Be343B94f860124dC4fEe278FDCBD38C102D88",
      "value": {
        "_hex": "0x8ac307b944f6c000"
      },
      "nonce": 1,
      "data": "0x",
      "r": "0x2f2dbc91fc76c736e75520500cd7e5806ef61df719555061993b4f582297c4cd",
      "s": "0x2a49639b84863c726ca64ce50a2a43752fdf0c13d51366159dfb27d8527a37bd",
      "v": 27,
      "creates": null,
      "raw": "0xf86c01850cd0d3b13b8252089432be343b94f860124dc4fee278fdcbd38c102d88888ac307b944f6c000801ba02f2dbc91fc76c736e75520500cd7e5806ef61df719555061993b4f582297c4cda02a49639b84863c726ca64ce50a2a43752fdf0c13d51366159dfb27d8527a37bd",
      "networkId": 0,
      "chainId": 0
    }
  ]
}