{
  "hash": "0x2082b3f2a45a24f48dd15606626ac4073bddb3e49220e106961b42c73369df8e",
  "parentHash": "0x0790dcfab8e17de062788a922cb6b96469eb6324ec83db27a188f1c06c16197c",
  "number": 78605,
  "timestamp": 1439456455,
  "nonce": "0x60ad1ca0abe438e6",
  "difficulty": 2294285579778,
  "gasLimit": {
    "_hex": "0x2fefd8"
  },
  "gasUsed": {
    "_hex": "0xf618"
  },
  "miner": "0xC603Ab5ef41fC61AA8b76bEddb09e3Cfcbb174BD",
  "extraData": "0x476574682f76312e302e312f77696e646f77732f676f312e342e32",
  "transactions": [
    {
      "hash": "0x258dc8cdfaa8e11bdc702061526a43effdd3e97cd926b42140eadf3edd220bdc",
      "blockHash": "0x2082b3f2a45a24f48dd15606626ac4073bddb3e49220e106961b42c73369df8e",
      "blockNumber": 78605,
      "transactionIndex": 0,
      "confirmations": null,
      "from": "0xc597A5d92F5dC1137D847db733cfe02c6d209f13",
      "gasPrice": {
        "_hex": "0xdfc584d36"
      },
      "gasLimit": {
        "_hex": "0x15f90"
      },
      "to": "0x5a0f0935E8E5591B2f9f2d55f29C626B50292088",
      "value": {
        "_hex": "0xbe659223d80808000"
      },
      "nonce": 10,
      "data": "0x",
      "r": "0xbcd2a3d5e82973277c5b10add34cd1877fa613489a1812ada46c3cfb994433a0",
      "s": "0x14d688bed63dad10ab3ef44236f69bb8d710d534ab64f8d3bd724db7283f9c68",
      "v": 28,
      "creates": null,
      "raw": "0xf86e0a850dfc584d3683015f90945a0f0935e8e5591b2f9f2d55f29c626b50292088890be659223d80808000801ca0bcd2a3d5e82973277c5b10add34cd1877fa613489a1812ada46c3cfb994433a0a014d688bed63dad10ab3ef44236f69bb8d710d534ab64f8d3bd724db7283f9c68",
      "networkId": 0,
      "chainId": 0
    },
    {
      "hash": "0xafd095feabb86218c061f2ce69eaed259d392a85c8576fda31eb20c7bc9dcb72",
      "blockHash": "0x2082b3f2a45a24f48dd15606626ac4073bddb3e49220e106961b42c73369df8e",
      "blockNumber": 78605,
      "transactionIndex": 1,
      "confirmations": null,
      "from": "0xc597A5d92F5dC1137D847db733cfe02c6d209f13",
      "gasPrice": {
        "_hex": "0xdfc584d36"
      },
      "gasLimit": {
        "_hex": "0x15f90"
      },
      "to": "0xFAc1B5968b6CC27786d1A28c3E360B8c421569B9",
      "value": {
        "_hex": "0xb654b4bb6b614800"
      },
      "nonce": 11,
      "data": "0x",
      "r": "0x2bc77ae4fd5632de2b5d3b38f447969f4bad78b05d0e251c6ee0b5902f786090",
      "s": "0x4282a5fa2ee6bc8757fc9f297aab7e82e3a925ce0c35c5313b4d8034f2e89947",
      "v": 27,
      "creates": null,
      "raw": "0xf86d0b850dfc584d3683015f9094fac1b5968b6cc27786d1a28c3e360b8c421569b988b654b4bb6b614800801ba02bc77ae4fd5632de2b5d3b38f447969f4bad78b05d0e251c6ee0b5902f786090a04282a5fa2ee6bc8757fc9f297aab7e82e3a925ce0c35c5313b4d8034f2e89947",
      "networkId": 0,
      "chainId": 0
    },
    {
      "hash": "0xc73a3e47a79ca9707047a9342dcfbd025cee9a540fa7b928ea6e177ee0f2989a",
      "blockHash": "0x2082b3f2a45a24f48dd15606626ac4073bddb3e49220e106961b42c73369df8e",
      "blockNumber": 78605,
      "transactionIndex": 2,
      "confirmations": null,
      "from": "0xc597A5d92F5dC1137D847db733cfe02c6d209f13",
      "gasPrice": {
        "_hex": "0xdfc584d36"
      },
      "gasLimit": {
        "_hex": "0x15f90"
      },
      "to": "0x5a0f0935E8E5591B2f9f2d55f29C626B50292088",
      "value": {
        "_hex": "0x28a0f0f7af08cc000"
      },
      "nonce": 12,
      "data": "0x",
      "r": "0x4d38d7150d64bfd88a011bb7d8980c78074de8a7753e4ed1166c3ae758005d1b",
      "s": "0x72476fbe44c52dd077983691f7ba42b395e7b56890fd257fbff6c7363f657412",
      "v": 27,
      "creates": null,
      "raw": "0xf86e0c850dfc584d3683015f90945a0f0935e8e5591b2f9f2d55f29c626b5029208889028a0f0f7af08cc000801ba04d38d7150d64bfd88a011bb7d8980c78074de8a7753e4ed1166c3ae758005d1ba072476fbe44c52dd077983691f7ba42b395e7b56890fd257fbff6c7363f657412",
      "networkId": 0,
      "chainId": 0
    }
  ]
}