{
  "hash": "0xacd9cb57f2fa4f5b7121fbe86f6d63368667f7734b4f8cd2c0950040a935f847",
  "parentHash": "0x501f714a4fb4bb9d94aba96bd46a62b33e5eaff824cceee318194bb898db9431",
  "number": 100656,
  "timestamp": 1439809961,
  "nonce": "0x6e057f7287c19462",
  "difficulty": 3833990391776,
  "gasLimit": {
    "_hex": "0x2fefd8"
  },
  "gasUsed": {
    "_hex": "0x5208"
  },
  "miner": "0xbb7B8287f3F0a933474a79eAe42CBCa977791171",
  "extraData": "0x476574682f4c5649562f76312e302e312f6c696e75782f676f312e342e32",
  "transactions": [
    {
      "hash": "0x23558ed0a497433b0390aef7f235a2e0a33b1ecff01a271aa21d301f80abeca1",
      "blockHash": "0xacd9cb57f2fa4f5b7121fbe86f6d63368667f7734b4f8cd2c0950040a935f847",
      "blockNumber": 100656,
      "transactionIndex": 0,
      "confirmations": null,
      "from": "0x007f7f58D3eb5b7510A301eCC749FC1fCDDBE14D",
      "gasPrice": {
        "_hex": "0xe0cfe7246"
      },
      "gasLimit": {
        "_hex": "0x15f90"
      },
      "to": "0xb1abce2918E21ddb93AA452731a12672A3d9F75a",
      "value": {
        "_hex": "0x4563918244f40000"
      },
      "nonce": 167,
      "data": "0x",
      "r": "0x4155d3fc79b72ba316b31ff2a74fecea8d937dc52100eb949e3d203708e00215",
      "s": "0x7a5bf726cf86fc23d970ea71bfd61bda18d2375bc343837ef41d34efaa5817d4",
      "v": 27,
      "creates": null,
      "raw": "0xf86e81a7850e0cfe724683015f9094b1abce2918e21ddb93aa452731a12672a3d9f75a884563918244f40000801ba04155d3fc79b72ba316b31ff2a74fecea8d937dc52100eb949e3d203708e00215a07a5bf726cf86fc23d970ea71bfd61bda18d2375bc343837ef41d34efaa5817d4",
      "networkId": 0,
      "chainId": 0
    }
  ]
}