{
  "hash": "0xff21907a90803cdb4d50270c34d19fe15c9cc8b013be00639bafa050711075e0",
  "parentHash": "0xfddbbb07362adb506ab27e7a86d2e53574435f6ee5f7266fa3f6157ace41605f",
  "number": 104263,
  "timestamp": 1439866983,
  "nonce": "0xa45035f2165fbb0f",
  "difficulty": 4269028634926,
  "gasLimit": {
    "_hex": "0x2fefd8"
  },
  "gasUsed": {
    "_hex": "0x5208"
  },
  "miner": "0xbb7B8287f3F0a933474a79eAe42CBCa977791171",
  "extraData": "0x476574682f4c5649562f76312e302e312f6c696e75782f676f312e342e32",
  "transactions": [
    {
      "hash": "0x430d47aa2fc3efae43135fe5e9066c82276013797f8739f94392c286fb9bba05",
      "blockHash": "0xff21907a90803cdb4d50270c34d19fe15c9cc8b013be00639bafa050711075e0",
      "blockNumber": 104263,
      "transactionIndex": 0,
      "confirmations": null,
      "from": "0xa6BDc31c431B8F97848c9D60cbbe9660dc450eB7",
      "gasPrice": {
        "_hex": "0xd34602bbc"
      },
      "gasLimit": {
        "_hex": "0x5208"
      },
      "to": "0x32Be343B94f860124dC4fEe278FDCBD38C102D88",
      "value": {
        "_hex": "0x455f5653f52a3c00"
      },
      "nonce": 167,
      "data": "0x",
      "r": "0xbf0928a86b7eaea24215c0e53b21583abc2e85338e2fdaf3a5c3c4c240df873c",
      "s": "0x4cc162af8f46ab73c00d04a2cebedb12e291b21e097686edb6fb4829e8cecf4f",
      "v": 27,
      "creates": null,
      "raw": "0xf86d81a7850d34602bbc8252089432be343b94f860124dc4fee278fdcbd38c102d8888455f5653f52a3c00801ba0bf0928a86b7eaea24215c0e53b21583abc2e85338e2fdaf3a5c3c4c240df873ca04cc162af8f46ab73c00d04a2cebedb12e291b21e097686edb6fb4829e8cecf4f",
      "networkId": 0,
      "chainId": 0
    }
  ]
}