{
  "hash": "0xc42c636d3566263085749a82e6baef8bd9fd6b62846e1a19b5c338346cfd93c0",
  "parentHash": "0x64d7d813bf25f997b44078cf99d1681cb0b3147e84ae3cc88b1b0916b1423a4b",
  "number": 117826,
  "timestamp": 1440116009,
  "nonce": "0xef3b0c700be74651",
  "difficulty": 4344073271925,
  "gasLimit": {
    "_hex": "0x2fefd8"
  },
  "gasUsed": {
    "_hex": "0x14820"
  },
  "miner": "0x790b8a3cE86E707ED0eD32bF89B3269692a23CC1",
  "extraData": "0xd783010002844765746887676f312e342e32856c696e7578",
  "transactions": [
    {
      "hash": "0xcc83bcb781d508929b8539d48ecc5a6a8494bffe517744a2fa50636e146f31c1",
      "blockHash": "0xc42c636d3566263085749a82e6baef8bd9fd6b62846e1a19b5c338346cfd93c0",
      "blockNumber": 117826,
      "transactionIndex": 0,
      "confirmations": null,
      "from": "0xabceA603089850F8f6bB612A9031554D90A247CF",
      "gasPrice": {
        "_hex": "0xba43b7400"
      },
      "gasLimit": {
        "_hex": "0x5208"
      },
      "to": "0x32Be343B94f860124dC4fEe278FDCBD38C102D88",
      "value": {
        "_hex": "0x78797bf2ebb2b000"
      },
      "nonce": 36,
      "data": "0x",
      "r": "0x6216bb760f90c84bd5801ba130fc6088105cdb06048682e82cb97e3557e5be15",
      "s": "0x4c7576ca5597790a9019cb7bcf8e632459fd18210746aa111a9d43be671e87a0",
      "v": 27,
      "creates": null,
      "raw": "0xf86c24850ba43b74008252089432be343b94f860124dc4fee278fdcbd38c102d888878797bf2ebb2b000801ba06216bb760f90c84bd5801ba130fc6088105cdb06048682e82cb97e3557e5be15a04c7576ca5597790a9019cb7bcf8e632459fd18210746aa111a9d43be671e87a0",
      "networkId": 0,
      "chainId": 0
    },
    {
      "hash": "0x511638fc8c716a725645634a441f8ed41c6139c04a57d7db5c01d8e49c085309",
      "blockHash": "0xc42c636d3566263085749a82e6baef8bd9fd6b62846e1a19b5c338346cfd93c0",
      "blockNumber": 117826,
      "transactionIndex": 1,
      "confirmations": null,
      "from": "0xCadcea36EC3feB740167E4370777fab1549F8759",
      "gasPrice": {
        "_hex": "0xba43b7400"
      },
      "gasLimit": {
        "_hex": "0x5208"
      },
      "to": "0x32Be343B94f860124dC4fEe278FDCBD38C102D88",
      "value": {
        "_hex": "0x1372f39abdc59000"
      },
      "nonce": 13,
      "data": "0x",
      "r": "0x5892998f48c9812515a5d83b200054c51e6a2ef4ee13fbc30fb882d08ebc9740",
      "s": "0x62b89dfacce61abf7751890abb7dd99f9b6751024d3d83784c72a23fd3423b8a",
      "v": 27,
      "creates": null,
      "raw": "0xf86c0d850ba43b74008252089432be343b94f860124dc4fee278fdcbd38c102d88881372f39abdc59000801ba05892998f48c9812515a5d83b200054c51e6a2ef4ee13fbc30fb882d08ebc9740a062b89dfacce61abf7751890abb7dd99f9b6751024d3d83784c72a23fd3423b8a",
      "networkId": 0,
      "chainId": 0
    },
    {
      "hash": "0x24b6147ce267ee45dc2463bb28c063b2cd9ff281fc8fc7ccb20b5622f5913b1b",
      "blockHash": "0xc42c636d3566263085749a82e6baef8bd9fd6b62846e1a19b5c338346cfd93c0",
      "blockNumber": 117826,
      "transactionIndex": 2,
      "confirmations": null,
      "from": "0x1543667B9bad3e41865C3233E1764d8dda8E1F3D",
      "gasPrice": {
        "_hex": "0xba43b7400"
      },
      "gasLimit": {
        "_hex": "0x5208"
      },
      "to": "0x32Be343B94f860124dC4fEe278FDCBD38C102D88",
      "value": {
        "_hex": "0x5e10b6efbe600800"
      },
      "nonce": 15,
      "data": "0x",
      "r": "0xf1a052606721e93ed07934d2743891b8a9cb44b38169675c9cc6fb0535ed3e08",
      "s": "0x6cd08cda316f791e6ff2bdd71f904be1c7b96fea02aeb143a4053c0b8605aeb0",
      "v": 28,
      "creates": null,
      "raw": "0xf86c0f850ba43b74008252089432be343b94f860124dc4fee278fdcbd38c102d88885e10b6efbe600800801ca0f1a052606721e93ed07934d2743891b8a9cb44b38169675c9cc6fb0535ed3e08a06cd08cda316f791e6ff2bdd71f904be1c7b96fea02aeb143a4053c0b8605aeb0",
      "networkId": 0,
      "chainId": 0
    },
    {
      "hash": "0x709acb31e1d11232278a4d59d56ee88319da0a9c34e12cd319240b62cb54eed1",
      "blockHash": "0xc42c636d3566263085749a82e6baef8bd9fd6b62846e1a19b5c338346cfd93c0",
      "blockNumber": 117826,
      "transactionIndex": 3,
      "confirmations": null,
      "from": "0xbb30e448B72d6Fdd44973A4C7a312F92f22C8F07",
      "gasPrice": {
        "_hex": "0xba43b7400"
      },
      "gasLimit": {
        "_hex": "0x5208"
      },
      "to": "0x32Be343B94f860124dC4fEe278FDCBD38C102D88",
      "value": {
        "_hex": "0x254790c9ff8c4800"
      },
      "nonce": 16,
      "data": "0x",
      "r": "0xe3b4109e01f8f7e71759331dbfb3de5ed3a07ea32622271e22087c86d61ffb5e",
      "s": "0x7bb302e5df4221ee5962ba43a34daeeddecd13408f99846c165b62a3559b13a9",
      "v": 27,
      "creates": null,
      "raw": "0xf86c10850ba43b74008252089432be343b94f860124dc4fee278fdcbd38c102d8888254790c9ff8c4800801ba0e3b4109e01f8f7e71759331dbfb3de5ed3a07ea32622271e22087c86d61ffb5ea07bb302e5df4221ee5962ba43a34daeeddecd13408f99846c165b62a3559b13a9",
      "networkId": 0,
      "chainId": 0
    }
  ]
}