{
  "hash": "0x9b250858b90ec0a79a392d25091ddfc9112cef51fedf8ea0d1af61fdb360de7f",
  "parentHash": "0x336169eedda58f48cc0b267d5e3df351b30b5ca7897c5836abcd25b8466713f6",
  "number": 110652,
  "timestamp": 1439977219,
  "nonce": "0x34127825ad031df4",
  "difficulty": 4381890087084,
  "gasLimit": {
    "_hex": "0x2fefd8"
  },
  "gasUsed": {
    "_hex": "0x5208"
  },
  "miner": "0xc906Ae93D343aCA8ba19808F03257DF9904441a9",
  "extraData": "0x",
  "transactions": [
    {
      "hash": "0xd7047b7da52b8c3303954cdc40bd43ca52ebcf81cdff86d23e76708e5c8865a3",
      "blockHash": "0x9b250858b90ec0a79a392d25091ddfc9112cef51fedf8ea0d1af61fdb360de7f",
      "blockNumber": 110652,
      "transactionIndex": 0,
      "confirmations": null,
      "from": "0xb1abce2918E21ddb93AA452731a12672A3d9F75a",
      "gasPrice": {
        "_hex": "0xd7ddad4d6"
      },
      "gasLimit": {
        "_hex": "0x5208"
      },
      "to": "0x32Be343B94f860124dC4fEe278FDCBD38C102D88",
      "value": {
        "_hex": "0x455f3ec5a4dd8400"
      },
      "nonce": 165,
      "data": "0x",
      "r": "0xd8dcee762bbd9bb3f8c5c133b40a183467634d7c4abe2208aee5465fd633d1ca",
      "s": "0x38f32b9c4f6a956899853437a46f7215b61062b0648f9000e26341b800712231",
      "v": 27,
      "creates": null,
      "raw": "0xf86d81a5850d7ddad4d68252089432be343b94f860124dc4fee278fdcbd38c102d8888455f3ec5a4dd8400801ba0d8dcee762bbd9bb3f8c5c133b40a183467634d7c4abe2208aee5465fd633d1caa038f32b9c4f6a956899853437a46f7215b61062b0648f9000e26341b800712231",
      "networkId": 0,
      "chainId": 0
    }
  ]
}