{
  "hash": "0x7292f9f64c63845bbc6cb9e98a5acc580590efaf49c3440494e8fc65abe7b383",
  "parentHash": "0x03d8e92e95bd7d888a34ae244f6ac4c15655675f69150525cc59818bd29a44d9",
  "number": 53776,
  "timestamp": 1439043345,
  "nonce": "0xa9456fe649764507",
  "difficulty": 1593137812292,
  "gasLimit": {
    "_hex": "0x2fefd8"
  },
  "gasUsed": {
    "_hex": "0x5208"
  },
  "miner": "0x5B3e850E39e6f2C7dD38707b649e2B3536F14C0b",
  "extraData": "0x476574682f76312e302e312f64617277696e2f676f312e342e32",
  "transactions": [
    {
      "hash": "0x86ece51b6e82bb51d04f6c11d91cd9c401affb940029241e18a8b21a4e168c82",
      "blockHash": "0x7292f9f64c63845bbc6cb9e98a5acc580590efaf49c3440494e8fc65abe7b383",
      "blockNumber": 53776,
      "transactionIndex": 0,
      "confirmations": null,
      "from": "0x3a35269a1cF41344F2288e9D11bA854991112015",
      "gasPrice": {
        "_hex": "0x10dc90d85e7"
      },
      "gasLimit": {
        "_hex": "0x15f90"
      },
      "to": "0x86d3856ad0105B9d4199936c1fd203664BA325dC",
      "value": {
        "_hex": "0x29a2241af62c0000"
      },
      "nonce": 0,
      "data": "0x",
      "r": "0xf0bbde78003d08c9bfa401f684b521277589ff4b899e99719ee0cd2d758a8d68",
      "s": "0x1820ffd2a11ef04bc0125fd54e5fad823b398a7d2e2a522d83348e11695efed6",
      "v": 27,
      "creates": null,
      "raw": "0xf86e8086010dc90d85e783015f909486d3856ad0105b9d4199936c1fd203664ba325dc8829a2241af62c0000801ba0f0bbde78003d08c9bfa401f684b521277589ff4b899e99719ee0cd2d758a8d68a01820ffd2a11ef04bc0125fd54e5fad823b398a7d2e2a522d83348e11695efed6",
      "networkId": 0,
      "chainId": 0
    }
  ]
}