{
  "hash": "0xfe264410d10c96ac84452fc53d0802fe784f2729c273b86aa770b54f8066172d",
  "parentHash": "0x1691ac257ec802ba0357c94ba6dce69be1e3b758df7b4fe5eeb362882234165e",
  "number": 108664,
  "timestamp": 1439944195,
  "nonce": "0xc0f421ac379ebb94",
  "difficulty": 4336098400773,
  "gasLimit": {
    "_hex": "0x2fefd8"
  },
  "gasUsed": {
    "_hex": "0x5208"
  },
  "miner": "0xe6A7a1d47ff21B6321162AEA7C6CB457D5476Bca",
  "extraData": "0x476574682f76312e302e312d38326566323666362f6c696e75782f676f312e34",
  "transactions": [
    {
      "hash": "0x86edc56f8026bdd38121dfba3f3bccde1616199c53bbadeab62648a58a993301",
      "blockHash": "0xfe264410d10c96ac84452fc53d0802fe784f2729c273b86aa770b54f8066172d",
      "blockNumber": 108664,
      "transactionIndex": 0,
      "confirmations": null,
      "from": "0x32Be343B94f860124dC4fEe278FDCBD38C102D88",
      "gasPrice": {
        "_hex": "0xdfdec7e90"
      },
      "gasLimit": {
        "_hex": "0x5208"
      },
      "to": "0x5a891155f50E42074374C739BAADF7df2651153A",
      "value": {
        "_hex": "0x568dd4c4a383b0000"
      },
      "nonce": 1257,
      "data": "0x",
      "r": "0x923726b4f484a0e6fc296fb1e7122cd5cc6911fb4466063070766e67cee243ef",
      "s": "0x719aa1ec7ac22dbf6a59309ff3655d86fd5fb8ded855bb86110267f2dff58ca1",
      "v": 28,
      "creates": null,
      "raw": "0xf86f8204e9850dfdec7e90825208945a891155f50e42074374c739baadf7df2651153a890568dd4c4a383b0000801ca0923726b4f484a0e6fc296fb1e7122cd5cc6911fb4466063070766e67cee243efa0719aa1ec7ac22dbf6a59309ff3655d86fd5fb8ded855bb86110267f2dff58ca1",
      "networkId": 0,
      "chainId": 0
    }
  ]
}