{
  "hash": "0x10ac9b2dc76cdab11a964e075ebdd69bb90f9f51c82d0de82820fba2d54a70b1",
  "parentHash": "0x4d1e7c33cf19094f17c4f1397af30b78781a6bd1c31edce6dbcd60eef657e39e",
  "number": 82490,
  "timestamp": 1439520299,
  "nonce": "0xc5b5c0341af762a9",
  "difficulty": 2376438424918,
  "gasLimit": {
    "_hex": "0x2fefd8"
  },
  "gasUsed": {
    "_hex": "0xf618"
  },
  "miner": "0xfFcD9CAE6d9f54fd8ae05296F839892677ff6EaA",
  "extraData": "0x476574682f76312e302e312f77696e646f77732f676f312e342e32",
  "transactions": [
    {
      "hash": "0x6bd63d3a30e2a0c34da4e98a9fb1bc4578a3df37b4e3d0fe66fce93db90b66fd",
      "blockHash": "0x10ac9b2dc76cdab11a964e075ebdd69bb90f9f51c82d0de82820fba2d54a70b1",
      "blockNumber": 82490,
      "transactionIndex": 0,
      "confirmations": null,
      "from": "0xC8224326e29eD30AEEC1B70ec238A818169ecaBA",
      "gasPrice": {
        "_hex": "0xcfb5b272d"
      },
      "gasLimit": {
        "_hex": "0x15f90"
      },
      "to": "0x27A2f708f13CFE24f8e5d6E8b7D8E971D2449Ba0",
      "value": {
        "_hex": "0xde0b6b3a7640000"
      },
      "nonce": 1,
      "data": "0x",
      "r": "0x6e86873c8ba8f5ff42e45788748176c7f3b45fde724d78799f0db9fb60cb0a0f",
      "s": "0x52b70374ba0249435c2d8cef666f998ce18bc6279fa5e9626d6f12f768638b98",
      "v": 28,
      "creates": null,
      "raw": "0xf86d01850cfb5b272d83015f909427a2f708f13cfe24f8e5d6e8b7d8e971d2449ba0880de0b6b3a7640000801ca06e86873c8ba8f5ff42e45788748176c7f3b45fde724d78799f0db9fb60cb0a0fa052b70374ba0249435c2d8cef666f998ce18bc6279fa5e9626d6f12f768638b98",
      "networkId": 0,
      "chainId": 0
    },
    {
      "hash": "0xc2c6dd3205aead6600e3b7f415b9d4a98f17f6c58023c5ad5fc62a90906a6316",
      "blockHash": "0x10ac9b2dc76cdab11a964e075ebdd69bb90f9f51c82d0de82820fba2d54a70b1",
      "blockNumber": 82490,
      "transactionIndex": 1,
      "confirmations": null,
      "from": "0xC8224326e29eD30AEEC1B70ec238A818169ecaBA",
      "gasPrice": {
        "_hex": "0xcfb5b272d"
      },
      "gasLimit": {
        "_hex": "0x15f90"
      },
      "to": "0x27A2f708f13CFE24f8e5d6E8b7D8E971D2449Ba0",
      "value": {
        "_hex": "0xde0b6b3a7640000"
      },
      "nonce": 2,
      "data": "0x",
      "r": "0x4026b5732f4d362b0ad8fa0687824ba63a75e5d200fd699efb4a1274ac9a01e8",
      "s": "0x416aece0828140d4c9871cabfa52d9e3add1c5a7038d20bb5b9cfd8a5f76040c",
      "v": 27,
      "creates": null,
      "raw": "0xf86d02850cfb5b272d83015f909427a2f708f13cfe24f8e5d6e8b7d8e971d2449ba0880de0b6b3a7640000801ba04026b5732f4d362b0ad8fa0687824ba63a75e5d200fd699efb4a1274ac9a01e8a0416aece0828140d4c9871cabfa52d9e3add1c5a7038d20bb5b9cfd8a5f76040c",
      "networkId": 0,
      "chainId": 0
    },
    {
      "hash": "0x32b23426e9ee3a84ee827dfe8329702ad3dff575e5efd3183af42547b9335bf0",
      "blockHash": "0x10ac9b2dc76cdab11a964e075ebdd69bb90f9f51c82d0de82820fba2d54a70b1",
      "blockNumber": 82490,
      "transactionIndex": 2,
      "confirmations": null,
      "from": "0xC8224326e29eD30AEEC1B70ec238A818169ecaBA",
      "gasPrice": {
        "_hex": "0xcfb5b272d"
      },
      "gasLimit": {
        "_hex": "0x15f90"
      },
      "to": "0x27A2f708f13CFE24f8e5d6E8b7D8E971D2449Ba0",
      "value": {
        "_hex": "0xde0b6b3a7640000"
      },
      "nonce": 3,
      "data": "0x",
      "r": "0x14044b4a27219557b45ae1c4cd49859ab1b84d4ec5b4e17c2ee291dabdbb6920",
      "s": "0x3605150565e381b398dba5fd608a6804e42133cad591efc0f150795cd2e94fad",
      "v": 27,
      "creates": null,
      "raw": "0xf86d03850cfb5b272d83015f909427a2f708f13cfe24f8e5d6e8b7d8e971d2449ba0880de0b6b3a7640000801ba014044b4a27219557b45ae1c4cd49859ab1b84d4ec5b4e17c2ee291dabdbb6920a03605150565e381b398dba5fd608a6804e42133cad591efc0f150795cd2e94fad",
      "networkId": 0,
      "chainId": 0
    }
  ]
}