{
  "hash": "0x5188238ebb0adea7062492d73a5da7c5120be0f30e2d98d1ffc3a3f3bd584dea",
  "parentHash": "0x9c7b29a426cafd46cff97d797a210dd07377472517f5ca72d8d834b17623a474",
  "number": 66640,
  "timestamp": 1439257924,
  "nonce": "0x455845d1151e7c4e",
  "difficulty": 1937575928633,
  "gasLimit": {
    "_hex": "0x2fefd8"
  },
  "gasUsed": {
    "_hex": "0x5208"
  },
  "miner": "0x87898CE53471043FcCa0a2aF4E1dC6d8B3fCf607",
  "extraData": "0x476574682f5369626572696131392f76312e302e312d37666266393930632f6c",
  "transactions": [
    {
      "hash": "0xe85773aceeadd2da0d4b9772cc0fcd7aa4e4866a8be6ff9d6340fd6b4a23b659",
      "blockHash": "0x5188238ebb0adea7062492d73a5da7c5120be0f30e2d98d1ffc3a3f3bd584dea",
      "blockNumber": 66640,
      "transactionIndex": 0,
      "confirmations": null,
      "from": "0x15e1C47974Cff16E4F82aE97a444EA7BA3cF1a1E",
      "gasPrice": {
        "_hex": "0xba43b7400"
      },
      "gasLimit": {
        "_hex": "0x5208"
      },
      "to": "0x00818287ff6BA78A461D21bD5832891592dc6C6B",
      "value": {
        "_hex": "0x1c5ca01c74e426000"
      },
      "nonce": 4,
      "data": "0x",
      "r": "0x1e7c7da7634cf05dc48d4c8262668fb11a8c0c7cfbc0279ad2a600edca77f3c4",
      "s": "0x5cf392b3a999d37921988279742b6d52dd6988694980e91d7ca60482ca08e097",
      "v": 27,
      "creates": null,
      "raw": "0xf86d04850ba43b74008252089400818287ff6ba78a461d21bd5832891592dc6c6b8901c5ca01c74e426000801ba01e7c7da7634cf05dc48d4c8262668fb11a8c0c7cfbc0279ad2a600edca77f3c4a05cf392b3a999d37921988279742b6d52dd6988694980e91d7ca60482ca08e097",
      "networkId": 0,
      "chainId": 0
    }
  ]
}