{
  "hash": "0xf8654786f554074b8bfd2d60bbd81a8f5151fcd20c3c26b235c78f2590ac11c9",
  "parentHash": "0xfa7e5b10d55a680de73a3bb6b78ee20fabf8639775f86fbd94151fb0f8423e02",
  "number": 75765,
  "timestamp": 1439408933,
  "nonce": "0xd3c054f86e10cefc",
  "difficulty": 2224450798029,
  "gasLimit": {
    "_hex": "0x2fefd8"
  },
  "gasUsed": {
    "_hex": "0x15e68"
  },
  "miner": "0x3FEe2E5f121CFb9d6D9BAb6Cec64eb60585124d4",
  "extraData": "0x476574682f76312e302e312f77696e646f77732f676f312e342e32",
  "transactions": [
    {
      "hash": "0xdc7d7f3a96cb35ab17214e6fe53d79cd680155b06670c905bc88ae27f2dfd065",
      "blockHash": "0xf8654786f554074b8bfd2d60bbd81a8f5151fcd20c3c26b235c78f2590ac11c9",
      "blockNumber": 75765,
      "transactionIndex": 0,
      "confirmations": null,
      "from": "0x87C5B5874A18B4306DF8a752a6C8cc3E82daFc19",
      "gasPrice": {
        "_hex": "0x100d296def9"
      },
      "gasLimit": {
        "_hex": "0x493e0"
      },
      "to": "0xD79B4C6791784184e2755B2fC1659eaaB0f80456",
      "value": {
        "_hex": "0x0"
      },
      "nonce": 64,
      "data": "0x03750d94000000000000000000000000326be8f71bfb0379f989aab1cc1fe37f0a771f603166376530646135663865393934656600000000000000000000000000000000",
      "r": "0xf961320c3155c6ab31859172bee883e012f49bb65c9fcb23fef5ba7b6619712c",
      "s": "0x2bf60de231c8e7611f940c23533192e85e8139d63789ed9294e9af4773fdc2c0",
      "v": 28,
      "creates": null,
      "raw": "0xf8ab40860100d296def9830493e094d79b4c6791784184e2755b2fc1659eaab0f8045680b84403750d94000000000000000000000000326be8f71bfb0379f989aab1cc1fe37f0a771f6031663765306461356638653939346566000000000000000000000000000000001ca0f961320c3155c6ab31859172bee883e012f49bb65c9fcb23fef5ba7b6619712ca02bf60de231c8e7611f940c23533192e85e8139d63789ed9294e9af4773fdc2c0",
      "networkId": 0,
      "chainId": 0
    },
    {
      "hash": "0xcab051986029677a6d90d646a6355c9b057339385af58692523e641e4d1a41da",
      "blockHash": "0xf8654786f554074b8bfd2d60bbd81a8f5151fcd20c3c26b235c78f2590ac11c9",
      "blockNumber": 75765,
      "transactionIndex": 1,
      "confirmations": null,
      "from": "0x87C5B5874A18B4306DF8a752a6C8cc3E82daFc19",
      "gasPrice": {
        "_hex": "0x100d296def9"
      },
      "gasLimit": {
        "_hex": "0x493e0"
      },
      "to": "0xD79B4C6791784184e2755B2fC1659eaaB0f80456",
      "value": {
        "_hex": "0x0"
      },
      "nonce": 65,
      "data": "0x03750d94000000000000000000000000326be8f71bfb0379f989aab1cc1fe37f0a771f603434306564663532313733333939643700000000000000000000000000000000",
      "r": "0x8a1f87731b40f617c0b3f5dc1aa73b8296db0c9134009da5128aa5fd8c092e73",
      "s": "0x08b7a79960991ac4a240003ad2f52e46f92f0ba06d293328175a16d95a592181",
      "v": 28,
      "creates": null,
      "raw": "0xf8ab41860100d296def9830493e094d79b4c6791784184e2755b2fc1659eaab0f8045680b84403750d94000000000000000000000000326be8f71bfb0379f989aab1cc1fe37f0a771f6034343065646635323137333339396437000000000000000000000000000000001ca08a1f87731b40f617c0b3f5dc1aa73b8296db0c9134009da5128aa5fd8c092e73a008b7a79960991ac4a240003ad2f52e46f92f0ba06d293328175a16d95a592181",
      "networkId": 0,
      "chainId": 0
    },
    {
      "hash": "0x5307957c2907b940023d3ad145017e27d6c913e272638f0d13b49909e5f2b785",
      "blockHash": "0xf8654786f554074b8bfd2d60bbd81a8f5151fcd20c3c26b235c78f2590ac11c9",
      "blockNumber": 75765,
      "transactionIndex": 2,
      "confirmations": null,
      "from": "0x3E42056BEc9b6a92e1EfAF784224F8BC060618C4",
      "gasPrice": {
        "_hex": "0xd846cd265"
      },
      "gasLimit": {
        "_hex": "0x5208"
      },
      "to": "0x32Be343B94f860124dC4fEe278FDCBD38C102D88",
      "value": {
        "_hex": "0x48b580e52231e0000"
      },
      "nonce": 0,
      "data": "0x",
      "r": "0xb517dca2baa3576d401d8ade578e4494d40f7843e86b37a2bec9607226ae934f",
      "s": "0x04b769018b82b8c3947f2a9bc2ad354fb25d1ede6182cea0705a8769f82dc7ec",
      "v": 27,
      "creates": null,
      "raw": "0xf86d80850d846cd2658252089432be343b94f860124dc4fee278fdcbd38c102d8889048b580e52231e0000801ba0b517dca2baa3576d401d8ade578e4494d40f7843e86b37a2bec9607226ae934fa004b769018b82b8c3947f2a9bc2ad354fb25d1ede6182cea0705a8769f82dc7ec",
      "networkId": 0,
      "chainId": 0
    }
  ]
}