{
  "hash": "0xd44c605925bf13289692a38eb2af1b298a7052b79bd38bbffd2a70b0edd5b9f5",
  "parentHash": "0xeeda9c40f571f9a552a337e974e233713eea9ed564463b5c1d4eb29f3ec0a279",
  "number": 121324,
  "timestamp": 1440175260,
  "nonce": "0x9504023c90a568a2",
  "difficulty": 4414952254212,
  "gasLimit": {
    "_hex": "0x2fefd8"
  },
  "gasUsed": {
    "_hex": "0x5208"
  },
  "miner": "0xe6A7a1d47ff21B6321162AEA7C6CB457D5476Bca",
  "extraData": "0xd783010002844765746887676f312e342e32856c696e7578",
  "transactions": [
    {
      "hash": "0x2421d435f3fdd7ac69f047e2a52f613f91412c3b221ee51334b91cdedc862191",
      "blockHash": "0xd44c605925bf13289692a38eb2af1b298a7052b79bd38bbffd2a70b0edd5b9f5",
      "blockNumber": 121324,
      "transactionIndex": 0,
      "confirmations": null,
      "from": "0x007f7f58D3eb5b7510A301eCC749FC1fCDDBE14D",
      "gasPrice": {
        "_hex": "0xba43b7400"
      },
      "gasLimit": {
        "_hex": "0x15f90"
      },
      "to": "0xb1abce2918E21ddb93AA452731a12672A3d9F75a",
      "value": {
        "_hex": "0x4563918244f40000"
      },
      "nonce": 371,
      "data": "0x",
      "r": "0x54a0a561e16b5e4c1c719de16d4b758f29e20f143af8caa881a81a042c51ec0d",
      "s": "0x2d18cf12cb0a7e43b5cd2212c0b6543d27983cd1f937a86b23eb156be009ba33",
      "v": 27,
      "creates": null,
      "raw": "0xf86f820173850ba43b740083015f9094b1abce2918e21ddb93aa452731a12672a3d9f75a884563918244f40000801ba054a0a561e16b5e4c1c719de16d4b758f29e20f143af8caa881a81a042c51ec0da02d18cf12cb0a7e43b5cd2212c0b6543d27983cd1f937a86b23eb156be009ba33",
      "networkId": 0,
      "chainId": 0
    }
  ]
}