{
  "hash": "0xc2641ace5b109240ebfd5938d20e700ce153aa2f1eaf038ac1b095995889e48f",
  "parentHash": "0xb094aafcd028737308de4055d5f60bf4aefd107ef006533cf8ce4207a6fa1796",
  "number": 57262,
  "timestamp": 1439100281,
  "nonce": "0x180c46b283183efc",
  "difficulty": 1740473441871,
  "gasLimit": {
    "_hex": "0x2fefd8"
  },
  "gasUsed": {
    "_hex": "0x5208"
  },
  "miner": "0xf927a40C8B7F6E07c5af7FA2155B4864a4112B13",
  "extraData": "0x476574682f76312e302e312f6c696e75782f676f312e342e32",
  "transactions": [
    {
      "hash": "0x703a60a06a4fc8a44787c88df4e1a812078d78a84638f15ee504257367c1d72d",
      "blockHash": "0xc2641ace5b109240ebfd5938d20e700ce153aa2f1eaf038ac1b095995889e48f",
      "blockNumber": 57262,
      "transactionIndex": 0,
      "confirmations": null,
      "from": "0xa8a97ab562BC801a2C5f47b58ED0f7b0C3076a1c",
      "gasPrice": {
        "_hex": "0x746a528800"
      },
      "gasLimit": {
        "_hex": "0x5b04"
      },
      "to": "0xF0224ea727d4924A8dd69a8d2d473Cc4c3590423",
      "value": {
        "_hex": "0x0"
      },
      "nonce": 1,
      "data": "0x",
      "r": "0x6b70dce0ccad79c0ff803ee8301f3231e30190178f42f4c46034ee8209f1d56d",
      "s": "0x4d54f96807c8a6fbfb8dc8d25f9d2ecd2225d8d0fcabd11d24689e430353edd5",
      "v": 27,
      "creates": null,
      "raw": "0xf8640185746a528800825b0494f0224ea727d4924a8dd69a8d2d473cc4c359042380801ba06b70dce0ccad79c0ff803ee8301f3231e30190178f42f4c46034ee8209f1d56da04d54f96807c8a6fbfb8dc8d25f9d2ecd2225d8d0fcabd11d24689e430353edd5",
      "networkId": 0,
      "chainId": 0
    }
  ]
}