{
  "hash": "0x4f8b62a1ac2172dfe17e80e7e0dae0f6a0021c6b9d92b6078c6384a4b1e245ca",
  "parentHash": "0x13f4e91eedd85a7a57d9ee1ef23752755720354b0d9d2fce1c2df42737e34037",
  "number": 90026,
  "timestamp": 1439632910,
  "nonce": "0xfeb92f5cef2397c9",
  "difficulty": 3348306088185,
  "gasLimit": {
    "_hex": "0x2fefd8"
  },
  "gasUsed": {
    "_hex": "0x5208"
  },
  "miner": "0xe6A7a1d47ff21B6321162AEA7C6CB457D5476Bca",
  "extraData": "0x476574682f76312e302e312d38326566323666362f6c696e75782f676f312e34",
  "transactions": [
    {
      "hash": "0xd61c5571c3a70a4be0cdfc0fa99635f5a3ed26b68e2e14594efa8b051a8cff8a",
      "blockHash": "0x4f8b62a1ac2172dfe17e80e7e0dae0f6a0021c6b9d92b6078c6384a4b1e245ca",
      "blockNumber": 90026,
      "transactionIndex": 0,
      "confirmations": null,
      "from": "0x46532c79E7F23Aa3520221582D7AC182fb98C56B",
      "gasPrice": {
        "_hex": "0x1112e5321c1"
      },
      "gasLimit": {
        "_hex": "0x15f90"
      },
      "to": "0x53696a26f41D65A5452805b93DBc8cd369FaCC06",
      "value": {
        "_hex": "0x16345785d8a0000"
      },
      "nonce": 0,
      "data": "0x",
      "r": "0xa3d45338ee4ee1ad80a75cc2628790971f8fdf807a56b693053cee1c5acb5e95",
      "s": "0x42c73bd2828499f0ea0538c5856fa4ead3688b210f84ea9f646e2e8d177e3831",
      "v": 27,
      "creates": null,
      "raw": "0xf86e808601112e5321c183015f909453696a26f41d65a5452805b93dbc8cd369facc0688016345785d8a0000801ba0a3d45338ee4ee1ad80a75cc2628790971f8fdf807a56b693053cee1c5acb5e95a042c73bd2828499f0ea0538c5856fa4ead3688b210f84ea9f646e2e8d177e3831",
      "networkId": 0,
      "chainId": 0
    }
  ]
}