{
  "hash": "0x8c6b7f25868617ba8bab9f507044e0b04c32431bc2fd2a734574a801b952a97e",
  "parentHash": "0xf2341304b78851b7a5af5dd64473fc9abdc26bf91af6dbed0695d4d0db2f790c",
  "number": 107928,
  "timestamp": 1439931039,
  "nonce": "0x22a7611cc957d02d",
  "difficulty": 4383313232415,
  "gasLimit": {
    "_hex": "0x2fefd8"
  },
  "gasUsed": {
    "_hex": "0x19a28"
  },
  "miner": "0x7E6930B63D03e88F5928C5cd6ee3FCee4D714F7F",
  "extraData": "0x",
  "transactions": [
    {
      "hash": "0x46af5f216f9fe2cd3265f04aae746a57ac5e957080ffff63a9cc1748256749b2",
      "blockHash": "0x8c6b7f25868617ba8bab9f507044e0b04c32431bc2fd2a734574a801b952a97e",
      "blockNumber": 107928,
      "transactionIndex": 0,
      "confirmations": null,
      "from": "0x2910543Af39abA0Cd09dBb2D50200b3E800A63D2",
      "gasPrice": {
        "_hex": "0xdc608c85b"
      },
      "gasLimit": {
        "_hex": "0x5208"
      },
      "to": "0x428e168d9b842c09ceb1b19Adcf2dc163e7D67EC",
      "value": {
        "_hex": "0xde0b6b3a7640000"
      },
      "nonce": 1059,
      "data": "0x",
      "r": "0x44a0f2276fbc0375855bbb0279bfd8247599e67a6e7068ee87f05f98dbce2156",
      "s": "0x306ae9ec88081046d034e1488cfa1bb870fe66721822e2a364f3636b31f056fa",
      "v": 28,
      "creates": null,
      "raw": "0xf86e820423850dc608c85b82520894428e168d9b842c09ceb1b19adcf2dc163e7d67ec880de0b6b3a7640000801ca044a0f2276fbc0375855bbb0279bfd8247599e67a6e7068ee87f05f98dbce2156a0306ae9ec88081046d034e1488cfa1bb870fe66721822e2a364f3636b31f056fa",
      "networkId": 0,
      "chainId": 0
    },
    {
      "hash": "0x1791d9da24f08a0d0e70b6f390b2698d2454afbadcca76a443015b72a860e4dc",
      "blockHash": "0x8c6b7f25868617ba8bab9f507044e0b04c32431bc2fd2a734574a801b952a97e",
      "blockNumber": 107928,
      "transactionIndex": 1,
      "confirmations": null,
      "from": "0x1C8e5A97aA5eBe26e30C90D5dFDb84a597982aec",
      "gasPrice": {
        "_hex": "0xd7251e745"
      },
      "gasLimit": {
        "_hex": "0x5208"
      },
      "to": "0xFBb1b73C4f0BDa4f67dcA266ce6Ef42f520fBB98",
      "value": {
        "_hex": "0xa6727de8d22c2bd8"
      },
      "nonce": 0,
      "data": "0x",
      "r": "0x5676ec81bad9407acb396c4d0d454885f2ecbf41c35456e93908a9c3644b5a43",
      "s": "0x21b315fc19404860b673cf654217dc6f5b60bf88fcc6fe88b83f2f46d2f0efb9",
      "v": 27,
      "creates": null,
      "raw": "0xf86c80850d7251e74582520894fbb1b73c4f0bda4f67dca266ce6ef42f520fbb9888a6727de8d22c2bd8801ba05676ec81bad9407acb396c4d0d454885f2ecbf41c35456e93908a9c3644b5a43a021b315fc19404860b673cf654217dc6f5b60bf88fcc6fe88b83f2f46d2f0efb9",
      "networkId": 0,
      "chainId": 0
    },
    {
      "hash": "0x5fd312b5b141ceaa6c2a5c8afac00496b07884303171b082c8003e973b2a4c6f",
      "blockHash": "0x8c6b7f25868617ba8bab9f507044e0b04c32431bc2fd2a734574a801b952a97e",
      "blockNumber": 107928,
      "transactionIndex": 2,
      "confirmations": null,
      "from": "0xf762fA8763d258609E079c03E23aa2D7d6Dc12C2",
      "gasPrice": {
        "_hex": "0xba43b7400"
      },
      "gasLimit": {
        "_hex": "0x5208"
      },
      "to": "0xC47Aaa860008be6f65B58c6C6E02a84e666EfE31",
      "value": {
        "_hex": "0xe08d19f832631c00"
      },
      "nonce": 0,
      "data": "0x",
      "r": "0x56b0d508fb4d996622fa8297151290e9588b6267009aafaba163b1134748ca7c",
      "s": "0x7b228109f606d7c840cb2b3df89756293046b1d7e0ee15c5ecea58d7fa6ffb6b",
      "v": 27,
      "creates": null,
      "raw": "0xf86c80850ba43b740082520894c47aaa860008be6f65b58c6c6e02a84e666efe3188e08d19f832631c00801ba056b0d508fb4d996622fa8297151290e9588b6267009aafaba163b1134748ca7ca07b228109f606d7c840cb2b3df89756293046b1d7e0ee15c5ecea58d7fa6ffb6b",
      "networkId": 0,
      "chainId": 0
    },
    {
      "hash": "0xea2d888a3ce64e8ff4d294362da3a84c533f7d8c113c9f44ac4f2e9313f8e61a",
      "blockHash": "0x8c6b7f25868617ba8bab9f507044e0b04c32431bc2fd2a734574a801b952a97e",
      "blockNumber": 107928,
      "transactionIndex": 3,
      "confirmations": null,
      "from": "0x051B69BB7073F7385370C5751F988b31A7567a63",
      "gasPrice": {
        "_hex": "0xba43b7400"
      },
      "gasLimit": {
        "_hex": "0x5208"
      },
      "to": "0xC47Aaa860008be6f65B58c6C6E02a84e666EfE31",
      "value": {
        "_hex": "0x4aecec6b8e186000"
      },
      "nonce": 5,
      "data": "0x",
      "r": "0xc4ca1a5d42c9bbb1ebe65f09ff88ff75ddfe34f41a5e398e7ae604bf31209ce8",
      "s": "0x17661903b40a625bfb0b8945d492cd72a2982e36ea35ef2cb93069cfde2e2995",
      "v": 27,
      "creates": null,
      "raw": "0xf86c05850ba43b740082520894c47aaa860008be6f65b58c6c6e02a84e666efe31884aecec6b8e186000801ba0c4ca1a5d42c9bbb1ebe65f09ff88ff75ddfe34f41a5e398e7ae604bf31209ce8a017661903b40a625bfb0b8945d492cd72a2982e36ea35ef2cb93069cfde2e2995",
      "networkId": 0,
      "chainId": 0
    },
    {
      "hash": "0xcdcb8a503dcbc064ec51d990e5cf51cd02ec174908a32144cf7dbc2a44633f5c",
      "blockHash": "0x8c6b7f25868617ba8bab9f507044e0b04c32431bc2fd2a734574a801b952a97e",
      "blockNumber": 107928,
      "transactionIndex": 4,
      "confirmations": null,
      "from": "0x4A2D52D0898f560E53cdf4585A034517c06d0544",
      "gasPrice": {
        "_hex": "0xba43b7400"
      },
      "gasLimit": {
        "_hex": "0x5208"
      },
      "to": "0xC47Aaa860008be6f65B58c6C6E02a84e666EfE31",
      "value": {
        "_hex": "0x299916c91ba7b8f0"
      },
      "nonce": 2,
      "data": "0x",
      "r": "0xd3c203a0d1e6c3dbfe28d04dd2b433a1a720e53631369f57dfbc0dfe24d04abb",
      "s": "0x31e5ebbded9532665449fe566877a02715fe28d0657846dc16b54778d9186385",
      "v": 28,
      "creates": null,
      "raw": "0xf86c02850ba43b740082520894c47aaa860008be6f65b58c6c6e02a84e666efe3188299916c91ba7b8f0801ca0d3c203a0d1e6c3dbfe28d04dd2b433a1a720e53631369f57dfbc0dfe24d04abba031e5ebbded9532665449fe566877a02715fe28d0657846dc16b54778d9186385",
      "networkId": 0,
      "chainId": 0
    }
  ]
}