{
  "hash": "0x248408c0e7dcd6a24e636fe7b26d6bd348183e41536dfcd591c9eaf63340f10b",
  "parentHash": "0x87ceaae82e486b6bd37b75a829ae7ba80be06432ad0f25ca6c2267ae76d79e71",
  "number": 71910,
  "timestamp": 1439343882,
  "nonce": "0x25e6bed1c3974de4",
  "difficulty": 2166502538279,
  "gasLimit": {
    "_hex": "0x2fefd8"
  },
  "gasUsed": {
    "_hex": "0x5208"
  },
  "miner": "0x8E61bF5A2e46D15774172781Cf100ED0962cBb63",
  "extraData": "0x476574682f76312e302e312d37666266393930632f6c696e75782f676f312e34",
  "transactions": [
    {
      "hash": "0x31a97f50b5897a73b367c467efe4e26b525e64d14dd22d1552159620e9904560",
      "blockHash": "0x248408c0e7dcd6a24e636fe7b26d6bd348183e41536dfcd591c9eaf63340f10b",
      "blockNumber": 71910,
      "transactionIndex": 0,
      "confirmations": null,
      "from": "0xc3a9226aE275dF2CAB312B911040634A9C9C9eF6",
      "gasPrice": {
        "_hex": "0xcb41b3b0f"
      },
      "gasLimit": {
        "_hex": "0x5208"
      },
      "to": "0x24e0fEAc2aabaE5625b91D8e9310bEd1E19eAc2a",
      "value": {
        "_hex": "0x3635c9adc5dea00000"
      },
      "nonce": 4,
      "data": "0x",
      "r": "0xfbe5da95056a4006628779f088a2f5b1e2ed5857f6edff6bf65f4d00d005bb72",
      "s": "0x48e8d1d61f64f567979af69fb1e4e521f9e3e5351d60f2814870cf2ab882bb0c",
      "v": 28,
      "creates": null,
      "raw": "0xf86d04850cb41b3b0f8252089424e0feac2aabae5625b91d8e9310bed1e19eac2a893635c9adc5dea00000801ca0fbe5da95056a4006628779f088a2f5b1e2ed5857f6edff6bf65f4d00d005bb72a048e8d1d61f64f567979af69fb1e4e521f9e3e5351d60f2814870cf2ab882bb0c",
      "networkId": 0,
      "chainId": 0
    }
  ]
}