{
  "hash": "0xb2682763679b798c4e891bb788c1820e51144e0217e4c4e6344ea22984e0d5df",
  "parentHash": "0x68763c1ce5773a06499eeb3a6f3860e136cdc07d960b2694307c3b7d508d4062",
  "number": 112521,
  "timestamp": 1440008778,
  "nonce": "0x3c97ecabd58472dc",
  "difficulty": 4421746263640,
  "gasLimit": {
    "_hex": "0x2fefd8"
  },
  "gasUsed": {
    "_hex": "0x5208"
  },
  "miner": "0xe6A7a1d47ff21B6321162AEA7C6CB457D5476Bca",
  "extraData": "0x476574682f76312e302e312d38326566323666362f6c696e75782f676f312e34",
  "transactions": [
    {
      "hash": "0x3c62735404d244bf0b6c90f078f539aa7b08a8426bf39f034ea6f70b334d900f",
      "blockHash": "0xb2682763679b798c4e891bb788c1820e51144e0217e4c4e6344ea22984e0d5df",
      "blockNumber": 112521,
      "transactionIndex": 0,
      "confirmations": null,
      "from": "0xDb8207d158c5396E26545A979C7A788852f81Eb6",
      "gasPrice": {
        "_hex": "0xd4ef76a77"
      },
      "gasLimit": {
        "_hex": "0x5208"
      },
      "to": "0xFBb1b73C4f0BDa4f67dcA266ce6Ef42f520fBB98",
      "value": {
        "_hex": "0xebe7de3865ce8e48"
      },
      "nonce": 3,
      "data": "0x",
      "r": "0x2548dc46b722d90ea7ba9a559d01b44543bd97d4dc2fe539fecea4cc1fb0e820",
      "s": "0x73aff671f3436503cae5561ee0adb067be7adcf77ba08c2216ca8985f5bd61c8",
      "v": 27,
      "creates": null,
      "raw": "0xf86c03850d4ef76a7782520894fbb1b73c4f0bda4f67dca266ce6ef42f520fbb9888ebe7de3865ce8e48801ba02548dc46b722d90ea7ba9a559d01b44543bd97d4dc2fe539fecea4cc1fb0e820a073aff671f3436503cae5561ee0adb067be7adcf77ba08c2216ca8985f5bd61c8",
      "networkId": 0,
      "chainId": 0
    }
  ]
}