{
  "hash": "0x77dede965f2faf086ddf4e15a9440cbcb5933caa6dc75935789a230ffd4b1974",
  "parentHash": "0x1807ada5b09abf6a33d25390efa310b24fc15bbe99280ec457811d255e5f6374",
  "number": 90895,
  "timestamp": 1439647073,
  "nonce": "0xabeecb8e156b3635",
  "difficulty": 3408994526086,
  "gasLimit": {
    "_hex": "0x2fefd8"
  },
  "gasUsed": {
    "_hex": "0x5208"
  },
  "miner": "0xe6A7a1d47ff21B6321162AEA7C6CB457D5476Bca",
  "extraData": "0x476574682f76312e302e312d38326566323666362f6c696e75782f676f312e34",
  "transactions": [
    {
      "hash": "0x5cd25e5b4ae0f54f56cdde173ab74b11244e7fc4e145fb2f0c85ec562d806f4b",
      "blockHash": "0x77dede965f2faf086ddf4e15a9440cbcb5933caa6dc75935789a230ffd4b1974",
      "blockNumber": 90895,
      "transactionIndex": 0,
      "confirmations": null,
      "from": "0x8293b65bD915B9FF87F6aDAb479da2e5b6633fDB",
      "gasPrice": {
        "_hex": "0xdd4608201"
      },
      "gasLimit": {
        "_hex": "0x15f90"
      },
      "to": "0x9f78552704fe7e52cC7C3853534aA2C3cf580D54",
      "value": {
        "_hex": "0x4563918244f40000"
      },
      "nonce": 11,
      "data": "0x",
      "r": "0x0f09c300a0dff1d1aadda289e907fe96a2d2b38364819108353aa171863a2f70",
      "s": "0x4b3ad8802e1a07e139c52fdbb91f5e82dc14ddcbbdd601a954cc2acb0f4ed5d5",
      "v": 27,
      "creates": null,
      "raw": "0xf86d0b850dd460820183015f90949f78552704fe7e52cc7c3853534aa2c3cf580d54884563918244f40000801ba00f09c300a0dff1d1aadda289e907fe96a2d2b38364819108353aa171863a2f70a04b3ad8802e1a07e139c52fdbb91f5e82dc14ddcbbdd601a954cc2acb0f4ed5d5",
      "networkId": 0,
      "chainId": 0
    }
  ]
}