{
  "hash": "0x3133113f82e5a03369e17cb687667fd013cf9b8205971213e346e4108c828e24",
  "parentHash": "0x3ddced3fc1d66c3339cb7ad713263440319178119cc7f7f0bd18bb7a8bacca6c",
  "number": 46834,
  "timestamp": 1438929962,
  "nonce": "0x42e84e1e0d165c8d",
  "difficulty": 1458875443619,
  "gasLimit": {
    "_hex": "0x7d4a"
  },
  "gasUsed": {
    "_hex": "0x5208"
  },
  "miner": "0xab84940B570d6358ed6A9Dbf7e0bc8Ec8F5A6E89",
  "extraData": "0x322831652933",
  "transactions": [
    {
      "hash": "0x040b6f1ae787ac818bc70c35c40e9471993854dfa3d14b6803b08a8c6f093974",
      "blockHash": "0x3133113f82e5a03369e17cb687667fd013cf9b8205971213e346e4108c828e24",
      "blockNumber": 46834,
      "transactionIndex": 0,
      "confirmations": null,
      "from": "0x1B7047b4338ACf65bE94C1A3e8c5c9338ad7d67C",
      "gasPrice": {
        "_hex": "0xdf8475800"
      },
      "gasLimit": {
        "_hex": "0x5208"
      },
      "to": "0x2Fe86C0450Bf1bE6001d119aA87f6f33117bD699",
      "value": {
        "_hex": "0x3637507a30abeb0000"
      },
      "nonce": 3,
      "data": "0x",
      "r": "0xb5a6f73e63e5e0e46b46aebf35ecb72d062fb9d18f5795ecf832770a44d153f2",
      "s": "0x36320af23c79dc2f1feebad3274888e5b7cc9ea91073ed178e694299d64499ae",
      "v": 28,
      "creates": null,
      "raw": "0xf86d03850df8475800825208942fe86c0450bf1be6001d119aa87f6f33117bd699893637507a30abeb0000801ca0b5a6f73e63e5e0e46b46aebf35ecb72d062fb9d18f5795ecf832770a44d153f2a036320af23c79dc2f1feebad3274888e5b7cc9ea91073ed178e694299d64499ae",
      "networkId": 0,
      "chainId": 0
    }
  ]
}