{
  "hash": "0x9d15d15fd23333c82a511dcb91ea6b56a46030a37208166234c35690405d06bd",
  "parentHash": "0x1b523f3cd268b2581b3ff3161fdfea8eae969b5a5d59fc6d6539e228477f4eb1",
  "number": 48087,
  "timestamp": 1438951130,
  "nonce": "0x4ff7a59d08229c9d",
  "difficulty": 1462223075366,
  "gasLimit": {
    "_hex": "0x126dd"
  },
  "gasUsed": {
    "_hex": "0x546c"
  },
  "miner": "0xf927a40C8B7F6E07c5af7FA2155B4864a4112B13",
  "extraData": "0x476574682f76312e302e302f6c696e75782f676f312e342e32",
  "transactions": [
    {
      "hash": "0xce68f0415a1e10142d7a71050d8db842af1716ff2823ae98894dd6de2722de96",
      "blockHash": "0x9d15d15fd23333c82a511dcb91ea6b56a46030a37208166234c35690405d06bd",
      "blockNumber": 48087,
      "transactionIndex": 0,
      "confirmations": null,
      "from": "0x5aC99Ad7816AE9020fF8Adf79fA9869B7Cea6601",
      "gasPrice": {
        "_hex": "0x110c8f7d8de"
      },
      "gasLimit": {
        "_hex": "0xc350"
      },
      "to": "0x2910543Af39abA0Cd09dBb2D50200b3E800A63D2",
      "value": {
        "_hex": "0x56bc75e2d63100000"
      },
      "nonce": 1,
      "data": "0x454e4b594346424447",
      "r": "0x2d5bb440834e4237b48123c493cc74470cf6d331d454128403e11b2b8d017420",
      "s": "0x08cfe2e4f60a629f786b51eab730634eafcb5831e5ee4a5584bb10642514ff85",
      "v": 27,
      "creates": null,
      "raw": "0xf87701860110c8f7d8de82c350942910543af39aba0cd09dbb2d50200b3e800a63d289056bc75e2d6310000089454e4b5943464244471ba02d5bb440834e4237b48123c493cc74470cf6d331d454128403e11b2b8d017420a008cfe2e4f60a629f786b51eab730634eafcb5831e5ee4a5584bb10642514ff85",
      "networkId": 0,
      "chainId": 0
    }
  ]
}