{
  "hash": "0x3f92c4fa41e69c549abe7693ad98729deecca62cfb65c831f8dc9dc57fa20517",
  "parentHash": "0xe68474fc5d374335ebf79587c72c63e126deda31cf01f8ef5e3f191455d5d3f0",
  "number": 115367,
  "timestamp": 1440056020,
  "nonce": "0xcce40b0ff50585cf",
  "difficulty": 4547218582095,
  "gasLimit": {
    "_hex": "0x2fefd8"
  },
  "gasUsed": {
    "_hex": "0x23e38"
  },
  "miner": "0xe6A7a1d47ff21B6321162AEA7C6CB457D5476Bca",
  "extraData": "0x476574682f76312e302e312d38326566323666362f6c696e75782f676f312e34",
  "transactions": [
    {
      "hash": "0x60ef57633fbc362fc6fd2ec55b6dfdb515ebcaa66cf94a30194337f5bc70a964",
      "blockHash": "0x3f92c4fa41e69c549abe7693ad98729deecca62cfb65c831f8dc9dc57fa20517",
      "blockNumber": 115367,
      "transactionIndex": 0,
      "confirmations": null,
      "from": "0x8C37447a7930187595EC51FEA6f749C4F8a96cD4",
      "gasPrice": {
        "_hex": "0xd8bba7166"
      },
      "gasLimit": {
        "_hex": "0x5208"
      },
      "to": "0x32Be343B94f860124dC4fEe278FDCBD38C102D88",
      "value": {
        "_hex": "0xc97b533278dac800"
      },
      "nonce": 11,
      "data": "0x",
      "r": "0x508e1940c25375ec9afb60db9bc0ca58153842a625e8fa61ba64477ff3798be3",
      "s": "0x18676e20c70e44ba79bfdbe852730d644410cfca6eade0e8b9a146f818b8c5d2",
      "v": 28,
      "creates": null,
      "raw": "0xf86c0b850d8bba71668252089432be343b94f860124dc4fee278fdcbd38c102d8888c97b533278dac800801ca0508e1940c25375ec9afb60db9bc0ca58153842a625e8fa61ba64477ff3798be3a018676e20c70e44ba79bfdbe852730d644410cfca6eade0e8b9a146f818b8c5d2",
      "networkId": 0,
      "chainId": 0
    },
    {
      "hash": "0xc9e337d6000a3d3921dceb1cd1ae94b0c9682c6a07d442da1a3df1de993c426c",
      "blockHash": "0x3f92c4fa41e69c549abe7693ad98729deecca62cfb65c831f8dc9dc57fa20517",
      "blockNumber": 115367,
      "transactionIndex": 1,
      "confirmations": null,
      "from": "0xA10DcDc99cF571e66c6Af1F1175a15686C4C6800",
      "gasPrice": {
        "_hex": "0xd8bba7166"
      },
      "gasLimit": {
        "_hex": "0x5208"
      },
      "to": "0x32Be343B94f860124dC4fEe278FDCBD38C102D88",
      "value": {
        "_hex": "0x198e6ed54a9cf000"
      },
      "nonce": 7,
      "data": "0x",
      "r": "0x029ff6613e06bac73179823c012f630709976a87cac93729bb41757a7c4ea644",
      "s": "0x394ece5cbca65087ebfddd6a6461c62a245b9d5d3cc416ae8c00fe507fd182a6",
      "v": 28,
      "creates": null,
      "raw": "0xf86c07850d8bba71668252089432be343b94f860124dc4fee278fdcbd38c102d8888198e6ed54a9cf000801ca0029ff6613e06bac73179823c012f630709976a87cac93729bb41757a7c4ea644a0394ece5cbca65087ebfddd6a6461c62a245b9d5d3cc416ae8c00fe507fd182a6",
      "networkId": 0,
      "chainId": 0
    },
    {
      "hash": "0xa154da7d0f2ef0e9a3ba43ba0e7a4e08a273a2c3635b0e319b67de63f6e9d4e9",
      "blockHash": "0x3f92c4fa41e69c549abe7693ad98729deecca62cfb65c831f8dc9dc57fa20517",
      "blockNumber": 115367,
      "transactionIndex": 2,
      "confirmations": null,
      "from": "0xFCb0b0382b155BE6Dd68dcdB7f29d2366D1C7502",
      "gasPrice": {
        "_hex": "0xd8bba7166"
      },
      "gasLimit": {
        "_hex": "0x5208"
      },
      "to": "0x32Be343B94f860124dC4fEe278FDCBD38C102D88",
      "value": {
        "_hex": "0x2b4fd2a1fef3c800"
      },
      "nonce": 7,
      "data": "0x",
      "r": "0x65c1e1cb50668bb07fa18d9ad5e00cfc5ca8fd674015a7d91a7d5ba12517cea4",
      "s": "0x64c7c49031b4dc8d929b52b7a7d9810e86b011c16e965cc8c3b1de0ef645fcfc",
      "v": 28,
      "creates": null,
      "raw": "0xf86c07850d8bba71668252089432be343b94f860124dc4fee278fdcbd38c102d88882b4fd2a1fef3c800801ca065c1e1cb50668bb07fa18d9ad5e00cfc5ca8fd674015a7d91a7d5ba12517cea4a064c7c49031b4dc8d929b52b7a7d9810e86b011c16e965cc8c3b1de0ef645fcfc",
      "networkId": 0,
      "chainId": 0
    },
    {
      "hash": "0xc751a6f574363428c94bb1d7eaffacf4053924a541b7ebd9073785d3aba3d488",
      "blockHash": "0x3f92c4fa41e69c549abe7693ad98729deecca62cfb65c831f8dc9dc57fa20517",
      "blockNumber": 115367,
      "transactionIndex": 3,
      "confirmations": null,
      "from": "0x04a6c6a293340Fc3f2244D097b0CFD84d5317bA5",
      "gasPrice": {
        "_hex": "0xd8bba7166"
      },
      "gasLimit": {
        "_hex": "0x5208"
      },
      "to": "0x32Be343B94f860124dC4fEe278FDCBD38C102D88",
      "value": {
        "_hex": "0x105c4e656d8010000"
      },
      "nonce": 7,
      "data": "0x",
      "r": "0x9b1300a53a047b0acde63d655cf9f5a2212d77e15431460dc82a3ad340cfd7da",
      "s": "0x498c760b6b09b004b3a4b38fe736da2a10d6892144fba82c3bcd2907dd7cbec4",
      "v": 28,
      "creates": null,
      "raw": "0xf86d07850d8bba71668252089432be343b94f860124dc4fee278fdcbd38c102d88890105c4e656d8010000801ca09b1300a53a047b0acde63d655cf9f5a2212d77e15431460dc82a3ad340cfd7daa0498c760b6b09b004b3a4b38fe736da2a10d6892144fba82c3bcd2907dd7cbec4",
      "networkId": 0,
      "chainId": 0
    },
    {
      "hash": "0xba184e89c0139fca0f3514062ee0873c5589e03809162ce624ab4bd86a102bca",
      "blockHash": "0x3f92c4fa41e69c549abe7693ad98729deecca62cfb65c831f8dc9dc57fa20517",
      "blockNumber": 115367,
      "transactionIndex": 4,
      "confirmations": null,
      "from": "0xe535C1c29F0091324F184de7a5be5520D1b0b008",
      "gasPrice": {
        "_hex": "0xd8bba7166"
      },
      "gasLimit": {
        "_hex": "0x5208"
      },
      "to": "0x32Be343B94f860124dC4fEe278FDCBD38C102D88",
      "value": {
        "_hex": "0x2d74b80e2b422000"
      },
      "nonce": 8,
      "data": "0x",
      "r": "0x448b2058962f392226eb0a7ffa6456db97c01455058614f714d07d93620ef2a8",
      "s": "0x0385fb7943f29259aa4024f35da2464f9081666e52baf25036a64d35233668da",
      "v": 27,
      "creates": null,
      "raw": "0xf86c08850d8bba71668252089432be343b94f860124dc4fee278fdcbd38c102d88882d74b80e2b422000801ba0448b2058962f392226eb0a7ffa6456db97c01455058614f714d07d93620ef2a8a00385fb7943f29259aa4024f35da2464f9081666e52baf25036a64d35233668da",
      "networkId": 0,
      "chainId": 0
    },
    {
      "hash": "0xe705c5db356bdd6b02038ed7d7069f62a22665affc1127ba59f7506079e6aa52",
      "blockHash": "0x3f92c4fa41e69c549abe7693ad98729deecca62cfb65c831f8dc9dc57fa20517",
      "blockNumber": 115367,
      "transactionIndex": 5,
      "confirmations": null,
      "from": "0xEa4933866ad977Ce24bBb244ECc2C79463454Fe4",
      "gasPrice": {
        "_hex": "0xd8bba7166"
      },
      "gasLimit": {
        "_hex": "0x5208"
      },
      "to": "0x32Be343B94f860124dC4fEe278FDCBD38C102D88",
      "value": {
        "_hex": "0x2f4f6f7e06004c00"
      },
      "nonce": 7,
      "data": "0x",
      "r": "0xf9579a5d8fe4c4c88fb72f2df3572a91c073fd7c429b5cee1f8bd158923ed79a",
      "s": "0x65e38c33abc9ef63f03c26fc73c25fd7065e26d002328767b05596abf4f1c208",
      "v": 27,
      "creates": null,
      "raw": "0xf86c07850d8bba71668252089432be343b94f860124dc4fee278fdcbd38c102d88882f4f6f7e06004c00801ba0f9579a5d8fe4c4c88fb72f2df3572a91c073fd7c429b5cee1f8bd158923ed79aa065e38c33abc9ef63f03c26fc73c25fd7065e26d002328767b05596abf4f1c208",
      "networkId": 0,
      "chainId": 0
    },
    {
      "hash": "0xd77e629062d154a85a7fef9c8824ec4964300bdb7997259b756069b5441fe5b1",
      "blockHash": "0x3f92c4fa41e69c549abe7693ad98729deecca62cfb65c831f8dc9dc57fa20517",
      "blockNumber": 115367,
      "transactionIndex": 6,
      "confirmations": null,
      "from": "0x2910543Af39abA0Cd09dBb2D50200b3E800A63D2",
      "gasPrice": {
        "_hex": "0xcb9665167"
      },
      "gasLimit": {
        "_hex": "0x5208"
      },
      "to": "0xBD5198beaFFEeb7db91FB313C8667Cd238db8DAE",
      "value": {
        "_hex": "0x1bafa9ee16e78000"
      },
      "nonce": 1124,
      "data": "0x",
      "r": "0xd05c7458898b6ba93f82b8d6ef4352d6f998c18f7cc559451f04a1f3a56e6cec",
      "s": "0x565d79f09ea98a2919ddc6bab208b1863ef046d1729ee98a72f16cf6909182a1",
      "v": 27,
      "creates": null,
      "raw": "0xf86e820464850cb966516782520894bd5198beaffeeb7db91fb313c8667cd238db8dae881bafa9ee16e78000801ba0d05c7458898b6ba93f82b8d6ef4352d6f998c18f7cc559451f04a1f3a56e6ceca0565d79f09ea98a2919ddc6bab208b1863ef046d1729ee98a72f16cf6909182a1",
      "networkId": 0,
      "chainId": 0
    }
  ]
}