{
  "hash": "0x0be1565bf810fa9212d634bf7c4d1e550b04b23a133556177a269384a6e2b166",
  "parentHash": "0x896d77d3a8ce5500d183e598dfd5ba2218961a94f6df3ed1df3e359a8d13387b",
  "number": 60727,
  "timestamp": 1439160560,
  "nonce": "0xabf543c7aeef5915",
  "difficulty": 1732126037500,
  "gasLimit": {
    "_hex": "0x2fefd5"
  },
  "gasUsed": {
    "_hex": "0x13005"
  },
  "miner": "0xf927a40C8B7F6E07c5af7FA2155B4864a4112B13",
  "extraData": "0x476574682f76312e302e312f6c696e75782f676f312e342e32",
  "transactions": [
    {
      "hash": "0xf19c5f6c04df59c134b944b5330d7d8b5e3e7a00ddf5557394283b618fb48454",
      "blockHash": "0x0be1565bf810fa9212d634bf7c4d1e550b04b23a133556177a269384a6e2b166",
      "blockNumber": 60727,
      "transactionIndex": 0,
      "confirmations": null,
      "from": "0xe043F7B6fc487e0Ad927C9bEcd1D586F30eE1639",
      "gasPrice": {
        "_hex": "0xe1057c5fd"
      },
      "gasLimit": {
        "_hex": "0x61a80"
      },
      "to": "0x020522bF9B8eD6FF41E2fa6765a17E20E2767D64",
      "value": {
        "_hex": "0x56bc75e2d63100000"
      },
      "nonce": 0,
      "data": "0x",
      "r": "0x08ad78dac43981a2b30637755e286a7fc59c95a25ab28ade6466da9fe33a1093",
      "s": "0x32f3e01192e7ac2f63d5744532ae4b13d27d179f0ed9e06083b920e2a5bdbc15",
      "v": 27,
      "creates": null,
      "raw": "0xf86e80850e1057c5fd83061a8094020522bf9b8ed6ff41e2fa6765a17e20e2767d6489056bc75e2d63100000801ba008ad78dac43981a2b30637755e286a7fc59c95a25ab28ade6466da9fe33a1093a032f3e01192e7ac2f63d5744532ae4b13d27d179f0ed9e06083b920e2a5bdbc15",
      "networkId": 0,
      "chainId": 0
    },
    {
      "hash": "0x1256c4c63a91451e8c35d69ef3b0bc30ca1c7db34651b50f95280eb50dc5770a",
      "blockHash": "0x0be1565bf810fa9212d634bf7c4d1e550b04b23a133556177a269384a6e2b166",
      "blockNumber": 60727,
      "transactionIndex": 1,
      "confirmations": null,
      "from": "0x314c7Daa4825ffC0293819119c5FDCC0CcF19827",
      "gasPrice": {
        "_hex": "0xd30d5ec96"
      },
      "gasLimit": {
        "_hex": "0x5208"
      },
      "to": "0x32Be343B94f860124dC4fEe278FDCBD38C102D88",
      "value": {
        "_hex": "0x43c33bd5967ca800000"
      },
      "nonce": 3,
      "data": "0x",
      "r": "0x68439ed6f45b532724fc09185fd512527483ef093250bdbbe141716857e3daf8",
      "s": "0x160d60088d5ab5fff51f15a69aac7b3fcac153adb0a44077cf85ff1495a48f6f",
      "v": 28,
      "creates": null,
      "raw": "0xf86e03850d30d5ec968252089432be343b94f860124dc4fee278fdcbd38c102d888a043c33bd5967ca800000801ca068439ed6f45b532724fc09185fd512527483ef093250bdbbe141716857e3daf8a0160d60088d5ab5fff51f15a69aac7b3fcac153adb0a44077cf85ff1495a48f6f",
      "networkId": 0,
      "chainId": 0
    }
  ]
}