{
  "hash": "0x9af8ef8a81ecf0c17b419700a8b1a1ace1ebfbdc1b6758da8330dc99312b858b",
  "parentHash": "0x7876ad66aa5185d9c6c1bba20d4c117b870c5df3c74db61557a4f0c617069b52",
  "number": 81003,
  "timestamp": 1439494466,
  "nonce": "0x6ddf2d4a8221254b",
  "difficulty": 2443941743376,
  "gasLimit": {
    "_hex": "0x2fefd8"
  },
  "gasUsed": {
    "_hex": "0xf618"
  },
  "miner": "0x52Dc504a422f0E2A9e7632A34a50f1a82F8224c7",
  "extraData": "0x476574682f76312e302e312f6c696e75782f676f312e342e32",
  "transactions": [
    {
      "hash": "0xf016d3f56f20c9f7d50bf84c7959c5761568bce3a4c13faefe3ad834473e11f6",
      "blockHash": "0x9af8ef8a81ecf0c17b419700a8b1a1ace1ebfbdc1b6758da8330dc99312b858b",
      "blockNumber": 81003,
      "transactionIndex": 0,
      "confirmations": null,
      "from": "0x120A270bbC009644e35F0bB6ab13f95b8199c4ad",
      "gasPrice": {
        "_hex": "0xd405c52e0"
      },
      "gasLimit": {
        "_hex": "0x3d090"
      },
      "to": "0x2A3A69c490DD4c3b15959D4dF6531d37E4F3e0d6",
      "value": {
        "_hex": "0x1c39e404c8fcc36000"
      },
      "nonce": 358,
      "data": "0x",
      "r": "0x9a629ff9069380c72e74cbd61815b724a3d672ba1ccf71a4a87d2b9aec00ad7d",
      "s": "0x3234bc5a41a22462dcc4adc372d285458662191357313c113d1d591677d99cc7",
      "v": 27,
      "creates": null,
      "raw": "0xf870820166850d405c52e08303d090942a3a69c490dd4c3b15959d4df6531d37e4f3e0d6891c39e404c8fcc36000801ba09a629ff9069380c72e74cbd61815b724a3d672ba1ccf71a4a87d2b9aec00ad7da03234bc5a41a22462dcc4adc372d285458662191357313c113d1d591677d99cc7",
      "networkId": 0,
      "chainId": 0
    },
    {
      "hash": "0xf5f2fa960f14168dc3bc1cdcbf68c52d4628c7d47f7fe8e75ecc594f5526326c",
      "blockHash": "0x9af8ef8a81ecf0c17b419700a8b1a1ace1ebfbdc1b6758da8330dc99312b858b",
      "blockNumber": 81003,
      "transactionIndex": 1,
      "confirmations": null,
      "from": "0x120A270bbC009644e35F0bB6ab13f95b8199c4ad",
      "gasPrice": {
        "_hex": "0xd405c52e0"
      },
      "gasLimit": {
        "_hex": "0x3d090"
      },
      "to": "0x2A3A69c490DD4c3b15959D4dF6531d37E4F3e0d6",
      "value": {
        "_hex": "0x1b611c1cc1d43f8400"
      },
      "nonce": 359,
      "data": "0x",
      "r": "0x22b9552702ae6a62efc83ccb3d9a32ad76390086a969fb9e550e84b60236363b",
      "s": "0x1a1fa8357e8f322c10cbad82dffcfc1907a4ec0f48637569636ba1f86e9ef600",
      "v": 28,
      "creates": null,
      "raw": "0xf870820167850d405c52e08303d090942a3a69c490dd4c3b15959d4df6531d37e4f3e0d6891b611c1cc1d43f8400801ca022b9552702ae6a62efc83ccb3d9a32ad76390086a969fb9e550e84b60236363ba01a1fa8357e8f322c10cbad82dffcfc1907a4ec0f48637569636ba1f86e9ef600",
      "networkId": 0,
      "chainId": 0
    },
    {
      "hash": "0xf2bac7641e49e6df097ad11f59a5293485d15a012d4032662fe7a47bdbfb9dea",
      "blockHash": "0x9af8ef8a81ecf0c17b419700a8b1a1ace1ebfbdc1b6758da8330dc99312b858b",
      "blockNumber": 81003,
      "transactionIndex": 2,
      "confirmations": null,
      "from": "0x120A270bbC009644e35F0bB6ab13f95b8199c4ad",
      "gasPrice": {
        "_hex": "0xd405c52e0"
      },
      "gasLimit": {
        "_hex": "0x3d090"
      },
      "to": "0x6079e376F15F6cecd70C8AA4e081c7C74EC25F5f",
      "value": {
        "_hex": "0x5d69df5ec790ea800"
      },
      "nonce": 360,
      "data": "0x",
      "r": "0x912912523280437eb1d7ffa3756bcb84ea92885161de11b99f5b5bb2bb967a4d",
      "s": "0x14dde9e7be1f77a945653603afd3c1eaaab96b31b2d1ee2355a0fa615872385f",
      "v": 28,
      "creates": null,
      "raw": "0xf870820168850d405c52e08303d090946079e376f15f6cecd70c8aa4e081c7c74ec25f5f8905d69df5ec790ea800801ca0912912523280437eb1d7ffa3756bcb84ea92885161de11b99f5b5bb2bb967a4da014dde9e7be1f77a945653603afd3c1eaaab96b31b2d1ee2355a0fa615872385f",
      "networkId": 0,
      "chainId": 0
    }
  ]
}