{
  "hash": "0x3e6404a3b5b8cd0338b8b0b3377fce055e1258fd36e1183d6eb242513b785167",
  "parentHash": "0x166967e989d827bbfe3a1c5a2fb58c1b37d071dc91aad7b4f8aa9cde860f48e9",
  "number": 74823,
  "timestamp": 1439393034,
  "nonce": "0x8f9a54f4c2e188c3",
  "difficulty": 2190209818422,
  "gasLimit": {
    "_hex": "0x2fefd8"
  },
  "gasUsed": {
    "_hex": "0x5208"
  },
  "miner": "0x4F85e43F44D2B0e6f57C9355806cE3e1B3F40Ab8",
  "extraData": "0x476574682f76312e302e312f6c696e75782f676f312e342e32",
  "transactions": [
    {
      "hash": "0x718ff04efaeb0acb660bf839978477724780a4133d01976a83bd405a11a7aad9",
      "blockHash": "0x3e6404a3b5b8cd0338b8b0b3377fce055e1258fd36e1183d6eb242513b785167",
      "blockNumber": 74823,
      "transactionIndex": 0,
      "confirmations": null,
      "from": "0x481FBF5Ed8E1bC51d277dB7D8F51d95b758F05ED",
      "gasPrice": {
        "_hex": "0xba43b7400"
      },
      "gasLimit": {
        "_hex": "0x5263"
      },
      "to": "0x014e478251F22a79fA7014f285647d91462A9669",
      "value": {
        "_hex": "0x11c37937e08000"
      },
      "nonce": 2,
      "data": "0x",
      "r": "0xfac5af7bdb0ac42cafcd064d2db3d45aab0dee88a4ff4ad80a0cd41e50d5fdb1",
      "s": "0x820441b6fb7d9c2e98d783662ab13f9d7fbdaba2b86e9f00c6dc254673461c89",
      "v": 27,
      "creates": null,
      "raw": "0xf86b02850ba43b740082526394014e478251f22a79fa7014f285647d91462a96698711c37937e08000801ba0fac5af7bdb0ac42cafcd064d2db3d45aab0dee88a4ff4ad80a0cd41e50d5fdb1a0820441b6fb7d9c2e98d783662ab13f9d7fbdaba2b86e9f00c6dc254673461c89",
      "networkId": 0,
      "chainId": 0
    }
  ]
}