{
  "hash": "0x96fcefc86301750f8678953e2d4564eea51a20e51ec02e007a44f5f2d3b98218",
  "parentHash": "0xa026cab8bb96bd7a32d2d504cf2fbf44b6079cd57951acb42782070ed364d338",
  "number": 107943,
  "timestamp": 1439931334,
  "nonce": "0x68b44c0d6c3e6835",
  "difficulty": 4376889236907,
  "gasLimit": {
    "_hex": "0x2fefd8"
  },
  "gasUsed": {
    "_hex": "0xa410"
  },
  "miner": "0xe6A7a1d47ff21B6321162AEA7C6CB457D5476Bca",
  "extraData": "0x476574682f76312e302e312d38326566323666362f6c696e75782f676f312e34",
  "transactions": [
    {
      "hash": "0x20dd01371f452725529016422744e8012551b21025c1536b6470d8eee826dd9c",
      "blockHash": "0x96fcefc86301750f8678953e2d4564eea51a20e51ec02e007a44f5f2d3b98218",
      "blockNumber": 107943,
      "transactionIndex": 0,
      "confirmations": null,
      "from": "0xBCf9CBee07209482191e52B1136D0dF410dA4925",
      "gasPrice": {
        "_hex": "0xdffe93b88"
      },
      "gasLimit": {
        "_hex": "0x5208"
      },
      "to": "0x2F853817afd3B8F3B86E9F60ee77B5d97773c0e3",
      "value": {
        "_hex": "0x1b9de674df070000"
      },
      "nonce": 0,
      "data": "0x",
      "r": "0xa580f7e4e5ebf7c68b209b34933f3870f00a44e264a237097f90c1553617c822",
      "s": "0x26b0e9fcdcbc040fe8f2fd2c88910393ee0f8e84eda2e48050677e8914f9e773",
      "v": 27,
      "creates": null,
      "raw": "0xf86c80850dffe93b88825208942f853817afd3b8f3b86e9f60ee77b5d97773c0e3881b9de674df070000801ba0a580f7e4e5ebf7c68b209b34933f3870f00a44e264a237097f90c1553617c822a026b0e9fcdcbc040fe8f2fd2c88910393ee0f8e84eda2e48050677e8914f9e773",
      "networkId": 0,
      "chainId": 0
    },
    {
      "hash": "0xb85f0cb3428c14a6f044f8884fc79bb3bca9a57c0d831c27883c5fa13d0a08cd",
      "blockHash": "0x96fcefc86301750f8678953e2d4564eea51a20e51ec02e007a44f5f2d3b98218",
      "blockNumber": 107943,
      "transactionIndex": 1,
      "confirmations": null,
      "from": "0x8c0A6b62918D317e3B431EfB67E3fB5eff333b1c",
      "gasPrice": {
        "_hex": "0xba43b7400"
      },
      "gasLimit": {
        "_hex": "0x5208"
      },
      "to": "0xC47Aaa860008be6f65B58c6C6E02a84e666EfE31",
      "value": {
        "_hex": "0x56bc3a335360c6000"
      },
      "nonce": 5,
      "data": "0x",
      "r": "0x17a7f904fbe10b1dbaf1798938e7577f5453e8c2895103180bc17a67685ad2ff",
      "s": "0x7dfb986863910af762a0e830d800e69217acc06f48de18af44a4b852cdb14f01",
      "v": 27,
      "creates": null,
      "raw": "0xf86d05850ba43b740082520894c47aaa860008be6f65b58c6c6e02a84e666efe3189056bc3a335360c6000801ba017a7f904fbe10b1dbaf1798938e7577f5453e8c2895103180bc17a67685ad2ffa07dfb986863910af762a0e830d800e69217acc06f48de18af44a4b852cdb14f01",
      "networkId": 0,
      "chainId": 0
    }
  ]
}