{
  "hash": "0x710b602c1dd7c3c0d15d1b018ff7a5545adaad828d11609cf2e0464544a6256d",
  "parentHash": "0x23e168dcc91f4e62fb613091c09db46b6ce5180fe3d35186defcd209a3869e40",
  "number": 99102,
  "timestamp": 1439784363,
  "nonce": "0x76c685d9e1cb1158",
  "difficulty": 3812297456479,
  "gasLimit": {
    "_hex": "0x2fefd8"
  },
  "gasUsed": {
    "_hex": "0x5208"
  },
  "miner": "0x4F85e43F44D2B0e6f57C9355806cE3e1B3F40Ab8",
  "extraData": "0x476574682f76312e302e312f6c696e75782f676f312e342e32",
  "transactions": [
    {
      "hash": "0x8a188212d27062d3653fcee8a5d129955e1c35ea421deb7af8b6cbe36a0182f8",
      "blockHash": "0x710b602c1dd7c3c0d15d1b018ff7a5545adaad828d11609cf2e0464544a6256d",
      "blockNumber": 99102,
      "transactionIndex": 0,
      "confirmations": null,
      "from": "0xd84b922F7841FC5774f00e14604Ae0dF42c8551e",
      "gasPrice": {
        "_hex": "0xcd3988157"
      },
      "gasLimit": {
        "_hex": "0x15f90"
      },
      "to": "0x6d78A7668164638F56613862c3Df1c68F7B1FB22",
      "value": {
        "_hex": "0x31b5ee718699340000"
      },
      "nonce": 6,
      "data": "0x",
      "r": "0x3dbf0a1c6caa65312aa43ee7daa4a9cb3414e784bd2a538aa17e2622426db3d2",
      "s": "0x3531e5adcae59e754de0ecb1560704d54d98d8cca2918f8029706288c88dc641",
      "v": 28,
      "creates": null,
      "raw": "0xf86e06850cd398815783015f90946d78a7668164638f56613862c3df1c68f7b1fb228931b5ee718699340000801ca03dbf0a1c6caa65312aa43ee7daa4a9cb3414e784bd2a538aa17e2622426db3d2a03531e5adcae59e754de0ecb1560704d54d98d8cca2918f8029706288c88dc641",
      "networkId": 0,
      "chainId": 0
    }
  ]
}