{
  "hash": "0x590ab717e383997a43709ef6f49cc10a1a73344d6f3d876122646a5b2a8d8c68",
  "parentHash": "0xa6c21ce70b8cec9fabd6c29bd397b0e9f3d989f6609a8319b323b20db5ff6e34",
  "number": 75353,
  "timestamp": 1439401937,
  "nonce": "0x43ce5ecbd7e10e31",
  "difficulty": 2192211229752,
  "gasLimit": {
    "_hex": "0x2fefd8"
  },
  "gasUsed": {
    "_hex": "0x5208"
  },
  "miner": "0xbb7B8287f3F0a933474a79eAe42CBCa977791171",
  "extraData": "0x476574682f4c5649562f76312e302e312f6c696e75782f676f312e342e32",
  "transactions": [
    {
      "hash": "0x494e28340146509106f0103ec0bf69e7f1fa73833c5997f044e9922c3b967c8f",
      "blockHash": "0x590ab717e383997a43709ef6f49cc10a1a73344d6f3d876122646a5b2a8d8c68",
      "blockNumber": 75353,
      "transactionIndex": 0,
      "confirmations": null,
      "from": "0x00d4C26dee05E008302b543291B452768145beeD",
      "gasPrice": {
        "_hex": "0xd76d9cc60"
      },
      "gasLimit": {
        "_hex": "0x5208"
      },
      "to": "0x32Be343B94f860124dC4fEe278FDCBD38C102D88",
      "value": {
        "_hex": "0x2189253ada877c00000"
      },
      "nonce": 2,
      "data": "0x",
      "r": "0xe8136aa8c9b9861dbfef650a0fc32634a3f8683fc543274a184b5cade2289736",
      "s": "0x0992e3242db756774c9dac6f0785a25659b8e4e2f83a4181383b0baf9c61af88",
      "v": 27,
      "creates": null,
      "raw": "0xf86e02850d76d9cc608252089432be343b94f860124dc4fee278fdcbd38c102d888a02189253ada877c00000801ba0e8136aa8c9b9861dbfef650a0fc32634a3f8683fc543274a184b5cade2289736a00992e3242db756774c9dac6f0785a25659b8e4e2f83a4181383b0baf9c61af88",
      "networkId": 0,
      "chainId": 0
    }
  ]
}