{
  "hash": "0xde567673d2db467b53411db593b9d4263b227e93919a85b51b836cf9b31256e0",
  "parentHash": "0x6d75dfcf78e8cd375ced6c6aa334f711230fa10a2079d2c7fed35e7f7c4be4e1",
  "number": 84721,
  "timestamp": 1439553704,
  "nonce": "0x6d5f1388fa4e1b92",
  "difficulty": 2610587363475,
  "gasLimit": {
    "_hex": "0x2fefd8"
  },
  "gasUsed": {
    "_hex": "0x8f5f"
  },
  "miner": "0x19dFA9C93e19858130E213C2B35bD3062F5d0a6D",
  "extraData": "0x476574682f76312e302e312d38326566323666362f6c696e75782f676f312e34",
  "transactions": [
    {
      "hash": "0xc9e844e5e87dfe3a2c9f8cefa1432c96a88d8d252c5a634951b416586d856532",
      "blockHash": "0xde567673d2db467b53411db593b9d4263b227e93919a85b51b836cf9b31256e0",
      "blockNumber": 84721,
      "transactionIndex": 0,
      "confirmations": null,
      "from": "0xe0368CB092B5D09A6Ce3adB583CC82d17E644E39",
      "gasPrice": {
        "_hex": "0xdd614ee06"
      },
      "gasLimit": {
        "_hex": "0x493e0"
      },
      "to": "0xD79B4C6791784184e2755B2fC1659eaaB0f80456",
      "value": {
        "_hex": "0xde0b6b3a7640000"
      },
      "nonce": 1,
      "data": "0x8d21618600000000000000000000000000000000000000000000000000000000000000808cbbf1b9e04097e0c80eec23fc2717df00bbd8790c0cc82adb63163fef98ad3d",
      "r": "0xe94581afeb6da005db0728cc4a36cfcac89066a6f969eb1fd02376d5ac9ae688",
      "s": "0x140901319d722cfa8f05d49532ab46120cc5d7465fe833edba990214e1af852f",
      "v": 27,
      "creates": null,
      "raw": "0xf8b201850dd614ee06830493e094d79b4c6791784184e2755b2fc1659eaab0f80456880de0b6b3a7640000b8448d21618600000000000000000000000000000000000000000000000000000000000000808cbbf1b9e04097e0c80eec23fc2717df00bbd8790c0cc82adb63163fef98ad3d1ba0e94581afeb6da005db0728cc4a36cfcac89066a6f969eb1fd02376d5ac9ae688a0140901319d722cfa8f05d49532ab46120cc5d7465fe833edba990214e1af852f",
      "networkId": 0,
      "chainId": 0
    }
  ]
}