{
  "hash": "0x33e9d9343b66d2c196c4846136b1b6aa57f041b9d9fe397a503ee0319bb38887",
  "parentHash": "0x5f9dfe0ab0e69456039554a4b06d936afbb936254c62a6b8d243fb845d71d78a",
  "number": 90589,
  "timestamp": 1439642496,
  "nonce": "0xfff221e7698906f5",
  "difficulty": 3326896212559,
  "gasLimit": {
    "_hex": "0x2fefd8"
  },
  "gasUsed": {
    "_hex": "0xa410"
  },
  "miner": "0x88D74a59454F6cF3B51ef6b9136AFb6b9D405A88",
  "extraData": "0x476574682f76312e302e312d38326566323666362f6c696e75782f676f312e34",
  "transactions": [
    {
      "hash": "0xe08eeae474fee87fecd4443b037014113890308d3a172fc8e6fafebf7d02dd76",
      "blockHash": "0x33e9d9343b66d2c196c4846136b1b6aa57f041b9d9fe397a503ee0319bb38887",
      "blockNumber": 90589,
      "transactionIndex": 0,
      "confirmations": null,
      "from": "0xa6BDc31c431B8F97848c9D60cbbe9660dc450eB7",
      "gasPrice": {
        "_hex": "0xd954352d6"
      },
      "gasLimit": {
        "_hex": "0x5208"
      },
      "to": "0x32Be343B94f860124dC4fEe278FDCBD38C102D88",
      "value": {
        "_hex": "0x455f37471e97a400"
      },
      "nonce": 88,
      "data": "0x",
      "r": "0xb1eedf8edf37f1097e78c7e6804daf24cc126ff2afed5c8bd144dd17e45ce8f4",
      "s": "0x6d9b784ec10465003209f7b6a466490bd0b40b0ac476d74ea6898060383465e8",
      "v": 28,
      "creates": null,
      "raw": "0xf86c58850d954352d68252089432be343b94f860124dc4fee278fdcbd38c102d8888455f37471e97a400801ca0b1eedf8edf37f1097e78c7e6804daf24cc126ff2afed5c8bd144dd17e45ce8f4a06d9b784ec10465003209f7b6a466490bd0b40b0ac476d74ea6898060383465e8",
      "networkId": 0,
      "chainId": 0
    },
    {
      "hash": "0x37d6133c209c4f88e0c144e22e29c36bb7d85c8d410b277e8f7366fe45d854a7",
      "blockHash": "0x33e9d9343b66d2c196c4846136b1b6aa57f041b9d9fe397a503ee0319bb38887",
      "blockNumber": 90589,
      "transactionIndex": 1,
      "confirmations": null,
      "from": "0x2910543Af39abA0Cd09dBb2D50200b3E800A63D2",
      "gasPrice": {
        "_hex": "0xd0dd3316c"
      },
      "gasLimit": {
        "_hex": "0x5208"
      },
      "to": "0x913f7f0f57ED0245F2937dAE625b7e941061735A",
      "value": {
        "_hex": "0x65a4da25d3016c00000"
      },
      "nonce": 783,
      "data": "0x",
      "r": "0xff879fa0e40414654bda37244e53bde05a944adeb42f169cb7d7b4d0af3d5082",
      "s": "0x3c3a9cec8de221c1089b27a188fa928a9006f286a0387aa82d059480bc937cf6",
      "v": 27,
      "creates": null,
      "raw": "0xf87082030f850d0dd3316c82520894913f7f0f57ed0245f2937dae625b7e941061735a8a065a4da25d3016c00000801ba0ff879fa0e40414654bda37244e53bde05a944adeb42f169cb7d7b4d0af3d5082a03c3a9cec8de221c1089b27a188fa928a9006f286a0387aa82d059480bc937cf6",
      "networkId": 0,
      "chainId": 0
    }
  ]
}