{
  "hash": "0x50787b25e82c2f56499194e7cb0b50931bb39cf4bfd57d782451cfbba7dc1b7e",
  "parentHash": "0xac415037e6d2adee1b34f99f400cea3ff983e76e4c50647c301c20e8de98dad4",
  "number": 118915,
  "timestamp": 1440133471,
  "nonce": "0xd1a782949fb488c7",
  "difficulty": 4401151563857,
  "gasLimit": {
    "_hex": "0x2fefd8"
  },
  "gasUsed": {
    "_hex": "0x5208"
  },
  "miner": "0xe6A7a1d47ff21B6321162AEA7C6CB457D5476Bca",
  "extraData": "0xd783010002844765746887676f312e342e32856c696e7578",
  "transactions": [
    {
      "hash": "0xa82af29ed1417b29872031a554b87e5000fa608d40929a6b8bea46e656ed3706",
      "blockHash": "0x50787b25e82c2f56499194e7cb0b50931bb39cf4bfd57d782451cfbba7dc1b7e",
      "blockNumber": 118915,
      "transactionIndex": 0,
      "confirmations": null,
      "from": "0x007f7f58D3eb5b7510A301eCC749FC1fCDDBE14D",
      "gasPrice": {
        "_hex": "0xba43b7400"
      },
      "gasLimit": {
        "_hex": "0x15f90"
      },
      "to": "0xb1abce2918E21ddb93AA452731a12672A3d9F75a",
      "value": {
        "_hex": "0x4563918244f40000"
      },
      "nonce": 350,
      "data": "0x",
      "r": "0x01258008158b7125ea9def7963aabf64cc5408d066e739518e85e46e61af6338",
      "s": "0x04975922eed53ce0dec3ee27c560da0c91f727b57225b4ad2f69edd3e25bfc2f",
      "v": 27,
      "creates": null,
      "raw": "0xf86f82015e850ba43b740083015f9094b1abce2918e21ddb93aa452731a12672a3d9f75a884563918244f40000801ba001258008158b7125ea9def7963aabf64cc5408d066e739518e85e46e61af6338a004975922eed53ce0dec3ee27c560da0c91f727b57225b4ad2f69edd3e25bfc2f",
      "networkId": 0,
      "chainId": 0
    }
  ]
}