{
  "hash": "0xf3413cc2f2b2936211a5734bc9eed0f49210db6311be47b35b0c04a2e6c31820",
  "parentHash": "0xd1a24096fe6e17a26b9550bba0bb317c27596892970c1aaa70dc9f798939cfb7",
  "number": 101425,
  "timestamp": 1439822852,
  "nonce": "0xd33b6280f04d9a55",
  "difficulty": 3839258736018,
  "gasLimit": {
    "_hex": "0x2fefd8"
  },
  "gasUsed": {
    "_hex": "0x5208"
  },
  "miner": "0xe6A7a1d47ff21B6321162AEA7C6CB457D5476Bca",
  "extraData": "0x476574682f76312e302e312d38326566323666362f6c696e75782f676f312e34",
  "transactions": [
    {
      "hash": "0xab5e85926a551d02b0e902d705b830cde9d2ea9ffb1375fa3c2f39b476847ec3",
      "blockHash": "0xf3413cc2f2b2936211a5734bc9eed0f49210db6311be47b35b0c04a2e6c31820",
      "blockNumber": 101425,
      "transactionIndex": 0,
      "confirmations": null,
      "from": "0xb2Cc35A981a37f727C203350f78142ceCb16fb45",
      "gasPrice": {
        "_hex": "0xd6ad9a7f9"
      },
      "gasLimit": {
        "_hex": "0x61a8"
      },
      "to": "0x34fDf2118f88a297b3750FAD5eEB307808d08378",
      "value": {
        "_hex": "0x4b5b3c3b0a5f0000"
      },
      "nonce": 3,
      "data": "0x",
      "r": "0x0df222c53d1ea8c82679bffd3701ecc02c2199668357b0050a8517a61f8c8e0d",
      "s": "0x08d4e9d3ae7b65c0631b92ede0e609711027548d1e4fdf44efd9902750c19967",
      "v": 27,
      "creates": null,
      "raw": "0xf86c03850d6ad9a7f98261a89434fdf2118f88a297b3750fad5eeb307808d08378884b5b3c3b0a5f0000801ba00df222c53d1ea8c82679bffd3701ecc02c2199668357b0050a8517a61f8c8e0da008d4e9d3ae7b65c0631b92ede0e609711027548d1e4fdf44efd9902750c19967",
      "networkId": 0,
      "chainId": 0
    }
  ]
}