{
  "hash": "0x83966ea59beab3311e2c19182cd3f461c38d98d1ffcb5b0f18ede24f4bc3424f",
  "parentHash": "0x0b6fe7784df9e4819e559fd47fc7309c6716bb366099f33e02fe8d73ffb0e643",
  "number": 82742,
  "timestamp": 1439524417,
  "nonce": "0xa17b0cda65ad7528",
  "difficulty": 2378688840643,
  "gasLimit": {
    "_hex": "0x2fefd8"
  },
  "gasUsed": {
    "_hex": "0xa6b8"
  },
  "miner": "0xf8E0CA3Ed80bd541b94BEdCf259e8CF2141A9523",
  "extraData": "0x476574682f76312e302e312f77696e646f77732f676f312e342e32",
  "transactions": [
    {
      "hash": "0x7a7f71b474031fef8fad692a00cc79a889ce3b15198f020cb90128f4da88e22a",
      "blockHash": "0x83966ea59beab3311e2c19182cd3f461c38d98d1ffcb5b0f18ede24f4bc3424f",
      "blockNumber": 82742,
      "transactionIndex": 0,
      "confirmations": null,
      "from": "0x40B9b889A21Ff1534d018D71Dc406122EBcf3F5A",
      "gasPrice": {
        "_hex": "0x1063331f9e7"
      },
      "gasLimit": {
        "_hex": "0x15f90"
      },
      "to": "0x4864f5F389Ceb1d994Fec11790F25FA7BbC0c495",
      "value": {
        "_hex": "0xcb49b44ba602d800000"
      },
      "nonce": 19,
      "data": "0x",
      "r": "0x187fb509aa61e98801bcd5fc1949185a5ec40403c8c3e93bd67a0d54d43bd9a0",
      "s": "0x72982a6d994566b56902434d7134d4e44d41de96dc2981a14ff5cac9fb0b23b4",
      "v": 27,
      "creates": null,
      "raw": "0xf870138601063331f9e783015f90944864f5f389ceb1d994fec11790f25fa7bbc0c4958a0cb49b44ba602d800000801ba0187fb509aa61e98801bcd5fc1949185a5ec40403c8c3e93bd67a0d54d43bd9a0a072982a6d994566b56902434d7134d4e44d41de96dc2981a14ff5cac9fb0b23b4",
      "networkId": 0,
      "chainId": 0
    },
    {
      "hash": "0x30f4a21ef889a76ab92c64803ba139c62d44b4e6c8b94a648725dc2e6dbf7895",
      "blockHash": "0x83966ea59beab3311e2c19182cd3f461c38d98d1ffcb5b0f18ede24f4bc3424f",
      "blockNumber": 82742,
      "transactionIndex": 1,
      "confirmations": null,
      "from": "0x82A15CeF1d6c8260EAf159eA3f0180D8677DcE1c",
      "gasPrice": {
        "_hex": "0xd35470a68"
      },
      "gasLimit": {
        "_hex": "0x55f0"
      },
      "to": "0x40B9b889A21Ff1534d018D71Dc406122EBcf3F5A",
      "value": {
        "_hex": "0xde0b6b3a7640000"
      },
      "nonce": 6,
      "data": "0x5246454c553137333631",
      "r": "0x9b8b9c003d222226d880988d6b86e7c7b428d4b8ba927f960deb68bfb1795a3a",
      "s": "0x44e97c15bba635cd3e8181d5bad9f61b0fc2dd00647bc3d9c8a1f27f40d973b6",
      "v": 27,
      "creates": null,
      "raw": "0xf87606850d35470a688255f09440b9b889a21ff1534d018d71dc406122ebcf3f5a880de0b6b3a76400008a5246454c5531373336311ba09b8b9c003d222226d880988d6b86e7c7b428d4b8ba927f960deb68bfb1795a3aa044e97c15bba635cd3e8181d5bad9f61b0fc2dd00647bc3d9c8a1f27f40d973b6",
      "networkId": 0,
      "chainId": 0
    }
  ]
}