{
  "hash": "0x1149d666897e3e9d9aaec4a955ad2dce639db1a561a457feb7305f5514edd06b",
  "parentHash": "0x02771aea0508ab26d4defea266d049cfb01fe0cd017c4cdca203a4b149eaa462",
  "number": 46350,
  "timestamp": 1438921698,
  "nonce": "0x4e0291848158bcbd",
  "difficulty": 1461811934520,
  "gasLimit": {
    "_hex": "0x5c64"
  },
  "gasUsed": {
    "_hex": "0x5208"
  },
  "miner": "0xeB1325C8D9d3ea8D74aC11F4B00F1B2367686319",
  "extraData": "0x476574682f76312e302e312f77696e646f77732f676f312e342e32",
  "transactions": [
    {
      "hash": "0x589ccb8546a62fc93a6c97838fb43e56acc9964866d50b0a632489397703e448",
      "blockHash": "0x1149d666897e3e9d9aaec4a955ad2dce639db1a561a457feb7305f5514edd06b",
      "blockNumber": 46350,
      "transactionIndex": 0,
      "confirmations": null,
      "from": "0xDB0CC78f74d9827bdc8A6473276eB84Fdc976212",
      "gasPrice": {
        "_hex": "0x11810d24b15"
      },
      "gasLimit": {
        "_hex": "0x5208"
      },
      "to": "0x529049b336Ebfd6dF2f059c7FA964BA833a2c32B",
      "value": {
        "_hex": "0xde0b6b3a7640000"
      },
      "nonce": 0,
      "data": "0x",
      "r": "0x11965b30006e2007ad334c2808be31795bf5d1027604f6172ce7f522a0b00f71",
      "s": "0x7365c140ddd3f7620860facbb6f2be53981217f4939b184590ed6f2ebc8c308f",
      "v": 27,
      "creates": null,
      "raw": "0xf86d8086011810d24b1582520894529049b336ebfd6df2f059c7fa964ba833a2c32b880de0b6b3a7640000801ba011965b30006e2007ad334c2808be31795bf5d1027604f6172ce7f522a0b00f71a07365c140ddd3f7620860facbb6f2be53981217f4939b184590ed6f2ebc8c308f",
      "networkId": 0,
      "chainId": 0
    }
  ]
}