{
  "hash": "0x48a26ac73afa9230a69ac114b32f57e3cf098ed3cfee8f1580e82385f9a83a50",
  "parentHash": "0x40f70f2b125b3ecf9cd931df8c3cbe5495da96e7ec89d6adbc23d88dacb0ad6d",
  "number": 70952,
  "timestamp": 1439327937,
  "nonce": "0xa0a85ed05bb48262",
  "difficulty": 2166749972451,
  "gasLimit": {
    "_hex": "0x2fefd8"
  },
  "gasUsed": {
    "_hex": "0x2489b"
  },
  "miner": "0xE8CfAf09a32020eF1C065904a244b4dD6E7C69c6",
  "extraData": "0x",
  "transactions": [
    {
      "hash": "0x654765f65cbe83bff9ee40890eaecb94596ed438576db61596581d9e782e69b4",
      "blockHash": "0x48a26ac73afa9230a69ac114b32f57e3cf098ed3cfee8f1580e82385f9a83a50",
      "blockNumber": 70952,
      "transactionIndex": 0,
      "confirmations": null,
      "from": "0x98077F47f89BEd877C8877Bf95753f6cE0CE4fcF",
      "gasPrice": {
        "_hex": "0xdbb893274"
      },
      "gasLimit": {
        "_hex": "0x5208"
      },
      "to": "0x32Be343B94f860124dC4fEe278FDCBD38C102D88",
      "value": {
        "_hex": "0xb2900c3c0fca60000"
      },
      "nonce": 2,
      "data": "0x",
      "r": "0xe4c9381bde9a5526ede0c271d22df2df51d47d2a541435731649b7089cfa2780",
      "s": "0x7ddf6b6e3a9f0a1c5ce317d53545598fedf185c15359900667fa3f7eaa21467f",
      "v": 28,
      "creates": null,
      "raw": "0xf86d02850dbb8932748252089432be343b94f860124dc4fee278fdcbd38c102d88890b2900c3c0fca60000801ca0e4c9381bde9a5526ede0c271d22df2df51d47d2a541435731649b7089cfa2780a07ddf6b6e3a9f0a1c5ce317d53545598fedf185c15359900667fa3f7eaa21467f",
      "networkId": 0,
      "chainId": 0
    },
    {
      "hash": "0xe85dab8fe3dfeb8d7c393f3f1e26ccca71f1ca2337a3b19907a39312fe0fa9a6",
      "blockHash": "0x48a26ac73afa9230a69ac114b32f57e3cf098ed3cfee8f1580e82385f9a83a50",
      "blockNumber": 70952,
      "transactionIndex": 1,
      "confirmations": null,
      "from": "0xC3fe64D1af00F0d9c324E4387EF7533f7D788e95",
      "gasPrice": {
        "_hex": "0xdbb893274"
      },
      "gasLimit": {
        "_hex": "0x5208"
      },
      "to": "0x32Be343B94f860124dC4fEe278FDCBD38C102D88",
      "value": {
        "_hex": "0xa68429ebcfab3000"
      },
      "nonce": 5,
      "data": "0x",
      "r": "0x4b72ed8183bc198ce4cff771f19764d1c9ca6d25d33abcf4dd47e9f56b9b3d3f",
      "s": "0x7953c0aa5850a9cc467b96eb7daf18718911cad0ed7dedad6d52d55b1e5201f6",
      "v": 27,
      "creates": null,
      "raw": "0xf86c05850dbb8932748252089432be343b94f860124dc4fee278fdcbd38c102d8888a68429ebcfab3000801ba04b72ed8183bc198ce4cff771f19764d1c9ca6d25d33abcf4dd47e9f56b9b3d3fa07953c0aa5850a9cc467b96eb7daf18718911cad0ed7dedad6d52d55b1e5201f6",
      "networkId": 0,
      "chainId": 0
    },
    {
      "hash": "0xac7945ac1ba0472ce5e7d6b9623ad25d5e9ab6300cadc0743635ec4f7845cd8b",
      "blockHash": "0x48a26ac73afa9230a69ac114b32f57e3cf098ed3cfee8f1580e82385f9a83a50",
      "blockNumber": 70952,
      "transactionIndex": 2,
      "confirmations": null,
      "from": "0x585aE8Cf889282751b3C38c38A9C833D96d0dc59",
      "gasPrice": {
        "_hex": "0xdbb893274"
      },
      "gasLimit": {
        "_hex": "0x5208"
      },
      "to": "0x32Be343B94f860124dC4fEe278FDCBD38C102D88",
      "value": {
        "_hex": "0x3d0b8a300ab33000"
      },
      "nonce": 1,
      "data": "0x",
      "r": "0x7f3468756f57b675cfdaabcbf0c4ea5049519207e3d07b69089d705b9acc7ab9",
      "s": "0x45afdbf914bf01174faa36b236aa44c618602fa292746e61eba134827ad43cf7",
      "v": 27,
      "creates": null,
      "raw": "0xf86c01850dbb8932748252089432be343b94f860124dc4fee278fdcbd38c102d88883d0b8a300ab33000801ba07f3468756f57b675cfdaabcbf0c4ea5049519207e3d07b69089d705b9acc7ab9a045afdbf914bf01174faa36b236aa44c618602fa292746e61eba134827ad43cf7",
      "networkId": 0,
      "chainId": 0
    },
    {
      "hash": "0x2781ad3d00296bfef525337b58e776e0116e19813771f227ead6494e306bec2c",
      "blockHash": "0x48a26ac73afa9230a69ac114b32f57e3cf098ed3cfee8f1580e82385f9a83a50",
      "blockNumber": 70952,
      "transactionIndex": 3,
      "confirmations": null,
      "from": "0x65C40Ee4e07E09671fF3cE2dff2AcCbE366bb5C8",
      "gasPrice": {
        "_hex": "0xdbb893274"
      },
      "gasLimit": {
        "_hex": "0x5208"
      },
      "to": "0x32Be343B94f860124dC4fEe278FDCBD38C102D88",
      "value": {
        "_hex": "0x2dbe66854d93d800"
      },
      "nonce": 2,
      "data": "0x",
      "r": "0x9e51b7bbba1785ea14f6efd22b73bdf0e1c880c3e0f1bf08caacdafd4a6275ee",
      "s": "0x66fe286dc27fc6f902db8aa8c0bcb7c4556dcb5e2528b5a10c996403a00e9b66",
      "v": 28,
      "creates": null,
      "raw": "0xf86c02850dbb8932748252089432be343b94f860124dc4fee278fdcbd38c102d88882dbe66854d93d800801ca09e51b7bbba1785ea14f6efd22b73bdf0e1c880c3e0f1bf08caacdafd4a6275eea066fe286dc27fc6f902db8aa8c0bcb7c4556dcb5e2528b5a10c996403a00e9b66",
      "networkId": 0,
      "chainId": 0
    },
    {
      "hash": "0x6b8aa5f88518e6c56148f062617e2d9fdb87de842723f43e53731a6fb471a114",
      "blockHash": "0x48a26ac73afa9230a69ac114b32f57e3cf098ed3cfee8f1580e82385f9a83a50",
      "blockNumber": 70952,
      "transactionIndex": 4,
      "confirmations": null,
      "from": "0x8C65FdfE51a3493bC533ee2db5b1f639a702F145",
      "gasPrice": {
        "_hex": "0xdbb893274"
      },
      "gasLimit": {
        "_hex": "0x5208"
      },
      "to": "0x32Be343B94f860124dC4fEe278FDCBD38C102D88",
      "value": {
        "_hex": "0xddc50339e5f3000"
      },
      "nonce": 0,
      "data": "0x",
      "r": "0x26a054669fd752f4b93c3c9bec1898c13d798a6c5998fcdfc7d5c99926727974",
      "s": "0x59534e80a800fda98006ebcb052423de66cf203a85ad47fd360fe61471c33e29",
      "v": 27,
      "creates": null,
      "raw": "0xf86c80850dbb8932748252089432be343b94f860124dc4fee278fdcbd38c102d88880ddc50339e5f3000801ba026a054669fd752f4b93c3c9bec1898c13d798a6c5998fcdfc7d5c99926727974a059534e80a800fda98006ebcb052423de66cf203a85ad47fd360fe61471c33e29",
      "networkId": 0,
      "chainId": 0
    },
    {
      "hash": "0xbf62ca4955b66444f447659f18acabf413c6de52b6ba481caeed44bc17b84e25",
      "blockHash": "0x48a26ac73afa9230a69ac114b32f57e3cf098ed3cfee8f1580e82385f9a83a50",
      "blockNumber": 70952,
      "transactionIndex": 5,
      "confirmations": null,
      "from": "0x17580B766f7453525ca4C6A88b01b50570EA088C",
      "gasPrice": {
        "_hex": "0xd3dc1b646"
      },
      "gasLimit": {
        "_hex": "0x61a80"
      },
      "to": "0x5Fe5B7546D1628f7348B023A0393de1FC825A4fD",
      "value": {
        "_hex": "0x8ac7230489e80000"
      },
      "nonce": 60,
      "data": "0xb595b8b50000000000000000000000000000000000000000000000000000000000000000",
      "r": "0x1ac8615203856e1bd73ffac242eafd306a83eed1d64125f90a2ccd7bb6b76d9e",
      "s": "0x4a31b81db7487a2780cb84d99a0b6085e83870b143f8e5c4c4c2bedab9477aa9",
      "v": 28,
      "creates": null,
      "raw": "0xf8913c850d3dc1b64683061a80945fe5b7546d1628f7348b023a0393de1fc825a4fd888ac7230489e80000a4b595b8b500000000000000000000000000000000000000000000000000000000000000001ca01ac8615203856e1bd73ffac242eafd306a83eed1d64125f90a2ccd7bb6b76d9ea04a31b81db7487a2780cb84d99a0b6085e83870b143f8e5c4c4c2bedab9477aa9",
      "networkId": 0,
      "chainId": 0
    }
  ]
}