{
  "hash": "0xf272803954d92a465beb5167e2a5cd4b521b47a1b4a00064d4c0b3e4b7159809",
  "parentHash": "0x9ddde9f8a11d706080c3d5c74d834d73b2ceedd089c09f647c5092bad14855ce",
  "number": 112821,
  "timestamp": 1440013802,
  "nonce": "0xee6db68e6da20702",
  "difficulty": 4430232486489,
  "gasLimit": {
    "_hex": "0x2fefd8"
  },
  "gasUsed": {
    "_hex": "0x14820"
  },
  "miner": "0xB0f52b1677b8C31c9AC98914254E0782a5f98110",
  "extraData": "0xda8098302e392e34302b2b302d524c696e75782f672b2b2f696e74",
  "transactions": [
    {
      "hash": "0x9ae206390817d323c812de63151954f3d174ff6ec62c152e8dba32df89cd2c8b",
      "blockHash": "0xf272803954d92a465beb5167e2a5cd4b521b47a1b4a00064d4c0b3e4b7159809",
      "blockNumber": 112821,
      "transactionIndex": 0,
      "confirmations": null,
      "from": "0x285B048CC4cB946abCF3eF11aDe982C36946AF18",
      "gasPrice": {
        "_hex": "0xe01181e5a"
      },
      "gasLimit": {
        "_hex": "0x5208"
      },
      "to": "0x32Be343B94f860124dC4fEe278FDCBD38C102D88",
      "value": {
        "_hex": "0xa68413a121d34000"
      },
      "nonce": 17,
      "data": "0x",
      "r": "0x7f3e2d9918725837338262bb6fcaa3491764bd4c38b3eec92ab49059936b3047",
      "s": "0x10025efc5d60ae7de2ca203c6f02dcd05169f37c6e153840b33fb565d2535cfd",
      "v": 27,
      "creates": null,
      "raw": "0xf86c11850e01181e5a8252089432be343b94f860124dc4fee278fdcbd38c102d8888a68413a121d34000801ba07f3e2d9918725837338262bb6fcaa3491764bd4c38b3eec92ab49059936b3047a010025efc5d60ae7de2ca203c6f02dcd05169f37c6e153840b33fb565d2535cfd",
      "networkId": 0,
      "chainId": 0
    },
    {
      "hash": "0x48834a96e2c191df015f1485767963909331ddee0825ba00b0b10b0efc2a958c",
      "blockHash": "0xf272803954d92a465beb5167e2a5cd4b521b47a1b4a00064d4c0b3e4b7159809",
      "blockNumber": 112821,
      "transactionIndex": 1,
      "confirmations": null,
      "from": "0xBc8405A1c3b4f67A4Ba6C70C91eF1F0152B6d3ab",
      "gasPrice": {
        "_hex": "0xe01181e5a"
      },
      "gasLimit": {
        "_hex": "0x5208"
      },
      "to": "0x32Be343B94f860124dC4fEe278FDCBD38C102D88",
      "value": {
        "_hex": "0x235e034b0c2d3800"
      },
      "nonce": 5,
      "data": "0x",
      "r": "0xcf96b0a86a0ef5ed36cd5ca50e1e9efcf7c75ac7df54c4ba5e7715138a6e2720",
      "s": "0x38418e634dd258b4ff8cc6b25f01b0d4ed94443ce629277bc1ca81f0666247dd",
      "v": 27,
      "creates": null,
      "raw": "0xf86c05850e01181e5a8252089432be343b94f860124dc4fee278fdcbd38c102d8888235e034b0c2d3800801ba0cf96b0a86a0ef5ed36cd5ca50e1e9efcf7c75ac7df54c4ba5e7715138a6e2720a038418e634dd258b4ff8cc6b25f01b0d4ed94443ce629277bc1ca81f0666247dd",
      "networkId": 0,
      "chainId": 0
    },
    {
      "hash": "0xdbfe0e3d3414919098bafde7fbaad83a859dbc65fead502ef212717efb4600f7",
      "blockHash": "0xf272803954d92a465beb5167e2a5cd4b521b47a1b4a00064d4c0b3e4b7159809",
      "blockNumber": 112821,
      "transactionIndex": 2,
      "confirmations": null,
      "from": "0xe6F63A7e7F8dc774F8E3504c9b0c5458D7E28ED8",
      "gasPrice": {
        "_hex": "0xdda3b56b6"
      },
      "gasLimit": {
        "_hex": "0x5208"
      },
      "to": "0x32Be343B94f860124dC4fEe278FDCBD38C102D88",
      "value": {
        "_hex": "0x5566ea3b01a63000"
      },
      "nonce": 5,
      "data": "0x",
      "r": "0x6910962eb795bb52666510c51c67244098fff51da8f079fc1eb7fe28b0c1260d",
      "s": "0x0a457a9ceb20d029e0c962574c061d6807b5e8c5e6f3d8f947704042f8827155",
      "v": 27,
      "creates": null,
      "raw": "0xf86c05850dda3b56b68252089432be343b94f860124dc4fee278fdcbd38c102d88885566ea3b01a63000801ba06910962eb795bb52666510c51c67244098fff51da8f079fc1eb7fe28b0c1260da00a457a9ceb20d029e0c962574c061d6807b5e8c5e6f3d8f947704042f8827155",
      "networkId": 0,
      "chainId": 0
    },
    {
      "hash": "0xd636ca756f0824b9cb1442ce4a266b015f9f01f82468f9b2efb8d46db77abe6e",
      "blockHash": "0xf272803954d92a465beb5167e2a5cd4b521b47a1b4a00064d4c0b3e4b7159809",
      "blockNumber": 112821,
      "transactionIndex": 3,
      "confirmations": null,
      "from": "0xC47Aaa860008be6f65B58c6C6E02a84e666EfE31",
      "gasPrice": {
        "_hex": "0xd3291e8b5"
      },
      "gasLimit": {
        "_hex": "0x15f90"
      },
      "to": "0x0473e56185EeDe93f7eD48234a8750c9B60f2D6d",
      "value": {
        "_hex": "0x1206f99e1b3b7fbc"
      },
      "nonce": 104,
      "data": "0x",
      "r": "0xa922f76632838380a97ebb87c08e21789a88601beaf46277808f36181ca348f3",
      "s": "0x51be13ab11283ca0825c6f3a4d5f45d37d8d96fa9708e3d485021efaec438568",
      "v": 28,
      "creates": null,
      "raw": "0xf86d68850d3291e8b583015f90940473e56185eede93f7ed48234a8750c9b60f2d6d881206f99e1b3b7fbc801ca0a922f76632838380a97ebb87c08e21789a88601beaf46277808f36181ca348f3a051be13ab11283ca0825c6f3a4d5f45d37d8d96fa9708e3d485021efaec438568",
      "networkId": 0,
      "chainId": 0
    }
  ]
}