{
  "hash": "0xf511b1347fc4d569b9805a0b22ddc3a85e5a9567dcee885b84b017be36296e46",
  "parentHash": "0xd086f27163779b62fcab64b7186446b9c25a48224ed521e7e32724d0b5eb961b",
  "number": 76292,
  "timestamp": 1439417974,
  "nonce": "0x0fbfae56cbe922d0",
  "difficulty": 2229748136761,
  "gasLimit": {
    "_hex": "0x2fefd8"
  },
  "gasUsed": {
    "_hex": "0x7530"
  },
  "miner": "0x580992B51e3925e23280EfB93d3047C82f17E038",
  "extraData": "0x476574682f76312e302e312f6c696e75782f676f312e342e32",
  "transactions": [
    {
      "hash": "0xf129488aa3e22a8a9dc54adabb3c422bdce976ed27718c3f8d55bfd54130853b",
      "blockHash": "0xf511b1347fc4d569b9805a0b22ddc3a85e5a9567dcee885b84b017be36296e46",
      "blockNumber": 76292,
      "transactionIndex": 0,
      "confirmations": null,
      "from": "0x84505745115a8C041C0c4A7F9d3Ca52a5bf375f4",
      "gasPrice": {
        "_hex": "0x10a193458d1"
      },
      "gasLimit": {
        "_hex": "0x7530"
      },
      "to": "0x35E57F2b08596f1946ECD9D31975eC3c2D7e1C1D",
      "value": {
        "_hex": "0xb1a2bc2ec50000"
      },
      "nonce": 0,
      "data": "0xe2543d1c0000000000000000000000000000000000000000000000000000000000000028",
      "r": "0x1bf37c06cf12bc0df1522cb2b41e52332bcdf0b73ff2537992101407fa8005bb",
      "s": "0x7d88584cbc738bbc303a2b840ce3409cb9ac30ecab46efb2f9c0929f1461e0af",
      "v": 27,
      "creates": null,
      "raw": "0xf8908086010a193458d18275309435e57f2b08596f1946ecd9d31975ec3c2d7e1c1d87b1a2bc2ec50000a4e2543d1c00000000000000000000000000000000000000000000000000000000000000281ba01bf37c06cf12bc0df1522cb2b41e52332bcdf0b73ff2537992101407fa8005bba07d88584cbc738bbc303a2b840ce3409cb9ac30ecab46efb2f9c0929f1461e0af",
      "networkId": 0,
      "chainId": 0
    }
  ]
}