{
  "hash": "0x4bb8d69b29b54b415633690d942991d28ebd77cd774e4a0cfc85ab1c0d5c3ab7",
  "parentHash": "0xec972bc24e37fa3d8e83a4d8d225eafa81201068ec468f5d45652e6806c1b8b4",
  "number": 59070,
  "timestamp": 1439131562,
  "nonce": "0xe103faaa91cbb09a",
  "difficulty": 1711448477834,
  "gasLimit": {
    "_hex": "0x2fefd8"
  },
  "gasUsed": {
    "_hex": "0x5208"
  },
  "miner": "0x108b54b7E3c09F8127CB8B28ffA3AD4001b32998",
  "extraData": "0x",
  "transactions": [
    {
      "hash": "0xba46be98eb6464edd0e066a6efad06d51aec215cf60caec816e6167d7a17a1db",
      "blockHash": "0x4bb8d69b29b54b415633690d942991d28ebd77cd774e4a0cfc85ab1c0d5c3ab7",
      "blockNumber": 59070,
      "transactionIndex": 0,
      "confirmations": null,
      "from": "0xE73aa111fd3Ebc226B09A83b591b7D5143CE7F34",
      "gasPrice": {
        "_hex": "0xdb5a42870"
      },
      "gasLimit": {
        "_hex": "0x15f90"
      },
      "to": "0x2d5b42FC59ebda0Dfd66aE914BC28c1B0a6Ef83A",
      "value": {
        "_hex": "0xdbd2fc137a30000"
      },
      "nonce": 5,
      "data": "0x",
      "r": "0xc58181dedf7575f050ec5057f8ea11564e167b538d39f6e7ebabc3ea228f0a33",
      "s": "0x0acc594eaa05637969516f6f494aff18dd1738d827bb6c0f71bbc5489fc39d70",
      "v": 27,
      "creates": null,
      "raw": "0xf86d05850db5a4287083015f90942d5b42fc59ebda0dfd66ae914bc28c1b0a6ef83a880dbd2fc137a30000801ba0c58181dedf7575f050ec5057f8ea11564e167b538d39f6e7ebabc3ea228f0a33a00acc594eaa05637969516f6f494aff18dd1738d827bb6c0f71bbc5489fc39d70",
      "networkId": 0,
      "chainId": 0
    }
  ]
}