{
  "hash": "0xc7aa68b66676fdad7d392c649714cf176944796b458b67bec532b36fb1877f38",
  "parentHash": "0x0fa9d21761f532d86188fb0b4664fa5ec40dca0f413e26508011c08fabfe8023",
  "number": 57457,
  "timestamp": 1439103702,
  "nonce": "0x34408ced36e630c1",
  "difficulty": 1742984314400,
  "gasLimit": {
    "_hex": "0x2fefd8"
  },
  "gasUsed": {
    "_hex": "0xa410"
  },
  "miner": "0x40dDAE161B79aaebeb68187233fe59bd3B1c2db2",
  "extraData": "0x476574682f76312e302e312f77696e646f77732f676f312e342e32",
  "transactions": [
    {
      "hash": "0xb79fce2c32caff862942eb4365a5b98dbd8f3eb907e169cc0ddb91b3c748bf3c",
      "blockHash": "0xc7aa68b66676fdad7d392c649714cf176944796b458b67bec532b36fb1877f38",
      "blockNumber": 57457,
      "transactionIndex": 0,
      "confirmations": null,
      "from": "0x96811Ad897894eC178872117C8BF2f03971A393B",
      "gasPrice": {
        "_hex": "0xd02f1e762"
      },
      "gasLimit": {
        "_hex": "0x5208"
      },
      "to": "0x32Be343B94f860124dC4fEe278FDCBD38C102D88",
      "value": {
        "_hex": "0x455f66298a07d000"
      },
      "nonce": 4,
      "data": "0x",
      "r": "0xa36800a223b6a335664df290ab931942d25c91114d75f41d83378c62701fcad3",
      "s": "0x3def0ed19edd9b85ce9ff01c6031d051cd2778665d9dd5bf5770892a38980a5f",
      "v": 27,
      "creates": null,
      "raw": "0xf86c04850d02f1e7628252089432be343b94f860124dc4fee278fdcbd38c102d8888455f66298a07d000801ba0a36800a223b6a335664df290ab931942d25c91114d75f41d83378c62701fcad3a03def0ed19edd9b85ce9ff01c6031d051cd2778665d9dd5bf5770892a38980a5f",
      "networkId": 0,
      "chainId": 0
    },
    {
      "hash": "0x7320cea78b95418120dd178495bbea2a9dc3eaabb16723752c052f75ba5e6b8a",
      "blockHash": "0xc7aa68b66676fdad7d392c649714cf176944796b458b67bec532b36fb1877f38",
      "blockNumber": 57457,
      "transactionIndex": 1,
      "confirmations": null,
      "from": "0x71685764F4d080b317A51947290164605e5D1Ced",
      "gasPrice": {
        "_hex": "0xce3ef101a"
      },
      "gasLimit": {
        "_hex": "0x5208"
      },
      "to": "0x32Be343B94f860124dC4fEe278FDCBD38C102D88",
      "value": {
        "_hex": "0x56bc332d4a823c000"
      },
      "nonce": 0,
      "data": "0x",
      "r": "0xae7a842c73b85516f0ac665de5d5efdc57fbc9a41ff5cbb86b3a09d1ffca9e57",
      "s": "0x0b2d9603ae631f8565971f6070fe314efa657d6121a992b3b226c37799ac14a8",
      "v": 27,
      "creates": null,
      "raw": "0xf86d80850ce3ef101a8252089432be343b94f860124dc4fee278fdcbd38c102d8889056bc332d4a823c000801ba0ae7a842c73b85516f0ac665de5d5efdc57fbc9a41ff5cbb86b3a09d1ffca9e57a00b2d9603ae631f8565971f6070fe314efa657d6121a992b3b226c37799ac14a8",
      "networkId": 0,
      "chainId": 0
    }
  ]
}