{
  "hash": "0x5a498450f84d5d0421f98c4aa06d16730142f3a71a79deadbb6c9223316e456a",
  "parentHash": "0xe98dac931569d993b1421021ac5f711cf4d4e367918af24e3db51a63b3b3a025",
  "number": 69502,
  "timestamp": 1439305170,
  "nonce": "0xa3ccf0d113e12722",
  "difficulty": 2059822750782,
  "gasLimit": {
    "_hex": "0x2fefd5"
  },
  "gasUsed": {
    "_hex": "0x546c"
  },
  "miner": "0xf8E0CA3Ed80bd541b94BEdCf259e8CF2141A9523",
  "extraData": "0x476574682f76312e302e312f77696e646f77732f676f312e342e32",
  "transactions": [
    {
      "hash": "0x8262eb1a6b97d118a9647e7e9d9327b0a6ceeb860dde4a5bd93fea21a6e40883",
      "blockHash": "0x5a498450f84d5d0421f98c4aa06d16730142f3a71a79deadbb6c9223316e456a",
      "blockNumber": 69502,
      "transactionIndex": 0,
      "confirmations": null,
      "from": "0x45272b8F62E9f9fA8ce04420E1AEa3eba9686EAC",
      "gasPrice": {
        "_hex": "0x110c8f7d8de"
      },
      "gasLimit": {
        "_hex": "0xc350"
      },
      "to": "0x2910543Af39abA0Cd09dBb2D50200b3E800A63D2",
      "value": {
        "_hex": "0x27e60d44813f80000"
      },
      "nonce": 1,
      "data": "0x454e47354a34375130",
      "r": "0x83d1dc3726ec2f869b2d46d689bda709c8f8242f6551165afef39e4af3143083",
      "s": "0xdd352d53945e3b6123fd898bc83a33cf4ef284772dc82ecbeace53754cbb2422",
      "v": 28,
      "creates": null,
      "raw": "0xf87701860110c8f7d8de82c350942910543af39aba0cd09dbb2d50200b3e800a63d289027e60d44813f8000089454e47354a343751301ca083d1dc3726ec2f869b2d46d689bda709c8f8242f6551165afef39e4af3143083a0dd352d53945e3b6123fd898bc83a33cf4ef284772dc82ecbeace53754cbb2422",
      "networkId": 0,
      "chainId": 0
    }
  ]
}