{
  "hash": "0x894f45d9b307375fc23af3b81e7f1ba3e4645685621f553529d4c3301e8c402b",
  "parentHash": "0x44254bf68d76c2794ce63accc829abcc3edf955389f5a39768478be84f7223b5",
  "number": 118842,
  "timestamp": 1440132406,
  "nonce": "0x8569e4a8fdfdeb26",
  "difficulty": 4386172412675,
  "gasLimit": {
    "_hex": "0x2fefd8"
  },
  "gasUsed": {
    "_hex": "0x5208"
  },
  "miner": "0x52bc44d5378309EE2abF1539BF71dE1b7d7bE3b5",
  "extraData": "0xd783010002844765746887676f312e342e32856c696e7578",
  "transactions": [
    {
      "hash": "0x8eab85c5d7b322df9f1ed7cb19cd45e6482eaba1648c68fb77fa2adc2a4f486d",
      "blockHash": "0x894f45d9b307375fc23af3b81e7f1ba3e4645685621f553529d4c3301e8c402b",
      "blockNumber": 118842,
      "transactionIndex": 0,
      "confirmations": null,
      "from": "0x2910543Af39abA0Cd09dBb2D50200b3E800A63D2",
      "gasPrice": {
        "_hex": "0xdc595e120"
      },
      "gasLimit": {
        "_hex": "0x5208"
      },
      "to": "0xF93f1437b05Ad46eF153702cB73E4443f760f4d0",
      "value": {
        "_hex": "0xdcef33a6f838000"
      },
      "nonce": 1151,
      "data": "0x",
      "r": "0x6e4c73722a894e849abcfb15d9d2655f1fde035c400e75740226854905b2c201",
      "s": "0x1e46b2422b46b3bd499d924430abd46ff8db5aa6843ff995cbc4e13d66adbd7a",
      "v": 28,
      "creates": null,
      "raw": "0xf86e82047f850dc595e12082520894f93f1437b05ad46ef153702cb73e4443f760f4d0880dcef33a6f838000801ca06e4c73722a894e849abcfb15d9d2655f1fde035c400e75740226854905b2c201a01e46b2422b46b3bd499d924430abd46ff8db5aa6843ff995cbc4e13d66adbd7a",
      "networkId": 0,
      "chainId": 0
    }
  ]
}