{
  "hash": "0x5bb2e65f4ad3e0312a4b46bcc864fdb307b0f695431fdbf745eddcb77342147b",
  "parentHash": "0xba62233ba48a53d61ab6100f4df74f2561eeeb9858eb91d32036988bf4948018",
  "number": 52902,
  "timestamp": 1439029321,
  "nonce": "0x819b5f8e3af24f35",
  "difficulty": 1570134506518,
  "gasLimit": {
    "_hex": "0x1b8f12"
  },
  "gasUsed": {
    "_hex": "0xf87c"
  },
  "miner": "0xf927a40C8B7F6E07c5af7FA2155B4864a4112B13",
  "extraData": "0x476574682f76312e302e312f6c696e75782f676f312e342e32",
  "transactions": [
    {
      "hash": "0xcc3166c290b345cd6921bce5b434bb9ef804825eb971ab40d1ec06924fcf41f1",
      "blockHash": "0x5bb2e65f4ad3e0312a4b46bcc864fdb307b0f695431fdbf745eddcb77342147b",
      "blockNumber": 52902,
      "transactionIndex": 0,
      "confirmations": null,
      "from": "0xA009bF076F1ba3FA57d2a7217218BEd5565a7a7A",
      "gasPrice": {
        "_hex": "0x110c8f7d8de"
      },
      "gasLimit": {
        "_hex": "0xc350"
      },
      "to": "0x2910543Af39abA0Cd09dBb2D50200b3E800A63D2",
      "value": {
        "_hex": "0x3782dace9d900000"
      },
      "nonce": 1,
      "data": "0x454e46484345384630",
      "r": "0x5d6986943d285019ace514ce94491ab35b101e75c375214864476a8f872a2c33",
      "s": "0x0be65732781243a1c25f7379aa4173c9e7ed3d8095b06ca4a0d1db847bdb1bda",
      "v": 27,
      "creates": null,
      "raw": "0xf87601860110c8f7d8de82c350942910543af39aba0cd09dbb2d50200b3e800a63d2883782dace9d90000089454e464843453846301ba05d6986943d285019ace514ce94491ab35b101e75c375214864476a8f872a2c33a00be65732781243a1c25f7379aa4173c9e7ed3d8095b06ca4a0d1db847bdb1bda",
      "networkId": 0,
      "chainId": 0
    },
    {
      "hash": "0xd2637d79dbcb106f674368fdf7981ea300c032b89f01b00d51f8652578ff0f2f",
      "blockHash": "0x5bb2e65f4ad3e0312a4b46bcc864fdb307b0f695431fdbf745eddcb77342147b",
      "blockNumber": 52902,
      "transactionIndex": 1,
      "confirmations": null,
      "from": "0xE11F174499fF162DE6D0A49D6E9dF8Ef0645982d",
      "gasPrice": {
        "_hex": "0xd63f1e4fe"
      },
      "gasLimit": {
        "_hex": "0x5208"
      },
      "to": "0x32Be343B94f860124dC4fEe278FDCBD38C102D88",
      "value": {
        "_hex": "0x3619e06efd3e680000"
      },
      "nonce": 2,
      "data": "0x",
      "r": "0x31d0f1a58046938a9b3dd00a30ab8d074e9e5802a0a46f83e67390c937dec973",
      "s": "0x16c51569e70c4f60591bf7b9a06ee1ad8c08a3c510f210b47f2507d53c371360",
      "v": 27,
      "creates": null,
      "raw": "0xf86d02850d63f1e4fe8252089432be343b94f860124dc4fee278fdcbd38c102d88893619e06efd3e680000801ba031d0f1a58046938a9b3dd00a30ab8d074e9e5802a0a46f83e67390c937dec973a016c51569e70c4f60591bf7b9a06ee1ad8c08a3c510f210b47f2507d53c371360",
      "networkId": 0,
      "chainId": 0
    },
    {
      "hash": "0x9c40f83d05be683616afa553b43dfcb95199d99d1ff17c60f256c2f10894bdd2",
      "blockHash": "0x5bb2e65f4ad3e0312a4b46bcc864fdb307b0f695431fdbf745eddcb77342147b",
      "blockNumber": 52902,
      "transactionIndex": 2,
      "confirmations": null,
      "from": "0x6111E933E5e6297DFd0AAd9aAB64017c69062a08",
      "gasPrice": {
        "_hex": "0xd4039c86c"
      },
      "gasLimit": {
        "_hex": "0x5208"
      },
      "to": "0x32Be343B94f860124dC4fEe278FDCBD38C102D88",
      "value": {
        "_hex": "0x6ec10eaf203a800"
      },
      "nonce": 0,
      "data": "0x",
      "r": "0xd77296a41f37a6cf2058d7b3814560d7a34165e6ca6c5633ba4cc4912d308898",
      "s": "0x102769c4cb6bddf56fb21c159264a1866fb139b017f047a19483dbd490fc0d5d",
      "v": 28,
      "creates": null,
      "raw": "0xf86c80850d4039c86c8252089432be343b94f860124dc4fee278fdcbd38c102d888806ec10eaf203a800801ca0d77296a41f37a6cf2058d7b3814560d7a34165e6ca6c5633ba4cc4912d308898a0102769c4cb6bddf56fb21c159264a1866fb139b017f047a19483dbd490fc0d5d",
      "networkId": 0,
      "chainId": 0
    }
  ]
}