{
  "hash": "0x4c3360beeedc7d63b130a8380702d26f8068342d57f7b797d86e6de30484e93b",
  "parentHash": "0x7a29bf489978fc1cdf13e75f3291bb566b0ea23ddad3c8b250182678e6643f33",
  "number": 89726,
  "timestamp": 1439628206,
  "nonce": "0x3fcf9a2d9fd0eb52",
  "difficulty": 3328863518361,
  "gasLimit": {
    "_hex": "0x2fefd8"
  },
  "gasUsed": {
    "_hex": "0x5208"
  },
  "miner": "0x87898CE53471043FcCa0a2aF4E1dC6d8B3fCf607",
  "extraData": "0x476574682f5369626572696131392f76312e302e312d37666266393930632f6c",
  "transactions": [
    {
      "hash": "0x9a0bcd18a62fdd127d3c2bb94aeb6ae4c7baeec44eef8be2fc9ddffd8d0d6674",
      "blockHash": "0x4c3360beeedc7d63b130a8380702d26f8068342d57f7b797d86e6de30484e93b",
      "blockNumber": 89726,
      "transactionIndex": 0,
      "confirmations": null,
      "from": "0x556ca325C21e450b2aFf86D9c8eF0Fa371971c97",
      "gasPrice": {
        "_hex": "0xcba637b91"
      },
      "gasLimit": {
        "_hex": "0x5208"
      },
      "to": "0x32Be343B94f860124dC4fEe278FDCBD38C102D88",
      "value": {
        "_hex": "0x3bd8d2a5289c04000"
      },
      "nonce": 11,
      "data": "0x",
      "r": "0xcebdbd5a672d7fc9eaf5cff1db332247b5bed7425c1c7a3f951fe75e19a77040",
      "s": "0x4c1591f2e3cbf7409970f9a47ae51012e7c9af5531dd665511c15c84d5ab4a02",
      "v": 28,
      "creates": null,
      "raw": "0xf86d0b850cba637b918252089432be343b94f860124dc4fee278fdcbd38c102d888903bd8d2a5289c04000801ca0cebdbd5a672d7fc9eaf5cff1db332247b5bed7425c1c7a3f951fe75e19a77040a04c1591f2e3cbf7409970f9a47ae51012e7c9af5531dd665511c15c84d5ab4a02",
      "networkId": 0,
      "chainId": 0
    }
  ]
}