{
  "hash": "0xd24427e839df4722ef5a8209eeb6126afab7d16786e88b267839b4e3cb8430d8",
  "parentHash": "0xc5cf4e206d77e60de1502e526796f03d8de0c04d1e7565836493b4c9cdea0a48",
  "number": 75763,
  "timestamp": 1439408875,
  "nonce": "0xf7b05624f0336375",
  "difficulty": 2224451328380,
  "gasLimit": {
    "_hex": "0x2fefd8"
  },
  "gasUsed": {
    "_hex": "0x8f9f"
  },
  "miner": "0x02dE7d35a60bf6A216411476040ec648668769D7",
  "extraData": "0x476574682f76312e302e312f77696e646f77732f676f312e342e32",
  "transactions": [
    {
      "hash": "0x638f193c70fb51a22b37a8bac87bc306089ec7d5d7368c0f52d10203b07084ed",
      "blockHash": "0xd24427e839df4722ef5a8209eeb6126afab7d16786e88b267839b4e3cb8430d8",
      "blockNumber": 75763,
      "transactionIndex": 0,
      "confirmations": null,
      "from": "0x326Be8F71bFb0379f989aAB1CC1fE37f0a771f60",
      "gasPrice": {
        "_hex": "0x101fa64b58d"
      },
      "gasLimit": {
        "_hex": "0x493e0"
      },
      "to": "0xD79B4C6791784184e2755B2fC1659eaaB0f80456",
      "value": {
        "_hex": "0xde0b6b3a7640000"
      },
      "nonce": 110,
      "data": "0x8d21618600000000000000000000000000000000000000000000000000000000000000804359f8b8bf661a209a966dbc18c991796f0cade05030869d5bd9a3567d7f58ab",
      "r": "0x8263959aed63aa87aa1695b33d1c07c9796938f069c7dbeec56e28d8c8f46300",
      "s": "0x25fa232fe11e4a97fb4858ab42f3522dad5fe2b8abeb27b1a94541deee840bdf",
      "v": 27,
      "creates": null,
      "raw": "0xf8b36e860101fa64b58d830493e094d79b4c6791784184e2755b2fc1659eaab0f80456880de0b6b3a7640000b8448d21618600000000000000000000000000000000000000000000000000000000000000804359f8b8bf661a209a966dbc18c991796f0cade05030869d5bd9a3567d7f58ab1ba08263959aed63aa87aa1695b33d1c07c9796938f069c7dbeec56e28d8c8f46300a025fa232fe11e4a97fb4858ab42f3522dad5fe2b8abeb27b1a94541deee840bdf",
      "networkId": 0,
      "chainId": 0
    }
  ]
}