{
  "hash": "0x72781942e2871cfd1ed6811ba8e8b8060f8e5208bdcabbbd333422dc8c3589e1",
  "parentHash": "0xc4e505acf3ae9b1b549940d420a4c454699d9478fe6b373e99eaf65f3ef2ef88",
  "number": 117852,
  "timestamp": 1440116399,
  "nonce": "0x6769e38ce791f1a3",
  "difficulty": 4335583595505,
  "gasLimit": {
    "_hex": "0x2fefd8"
  },
  "gasUsed": {
    "_hex": "0x14820"
  },
  "miner": "0xe6A7a1d47ff21B6321162AEA7C6CB457D5476Bca",
  "extraData": "0xd783010002844765746887676f312e342e32856c696e7578",
  "transactions": [
    {
      "hash": "0x0fbfb3290138028bd20dba5d5b3a31540a1e0c3b4e9bd324b7545a9784441738",
      "blockHash": "0x72781942e2871cfd1ed6811ba8e8b8060f8e5208bdcabbbd333422dc8c3589e1",
      "blockNumber": 117852,
      "transactionIndex": 0,
      "confirmations": null,
      "from": "0x6589D22b54648e5D67Dc008eBd0c836D3DF39c87",
      "gasPrice": {
        "_hex": "0xba43b7400"
      },
      "gasLimit": {
        "_hex": "0x5208"
      },
      "to": "0x32Be343B94f860124dC4fEe278FDCBD38C102D88",
      "value": {
        "_hex": "0x217ede6f51117800"
      },
      "nonce": 11,
      "data": "0x",
      "r": "0xb1413c4110c1e39c580640817083f8861927b984d244df816a33efab895b5a60",
      "s": "0x1629fe306107298972760781d4f3bd28431bee05e434aa8faf5f1e33dbe67fe5",
      "v": 28,
      "creates": null,
      "raw": "0xf86c0b850ba43b74008252089432be343b94f860124dc4fee278fdcbd38c102d8888217ede6f51117800801ca0b1413c4110c1e39c580640817083f8861927b984d244df816a33efab895b5a60a01629fe306107298972760781d4f3bd28431bee05e434aa8faf5f1e33dbe67fe5",
      "networkId": 0,
      "chainId": 0
    },
    {
      "hash": "0x8cd9fc5b25c8247232d51a7964ed005a5cf7cecb88483484b7d58cb5d90e48f6",
      "blockHash": "0x72781942e2871cfd1ed6811ba8e8b8060f8e5208bdcabbbd333422dc8c3589e1",
      "blockNumber": 117852,
      "transactionIndex": 1,
      "confirmations": null,
      "from": "0x61E20833179bA2eCCc2065e5F733CC8CdA7394c0",
      "gasPrice": {
        "_hex": "0xba43b7400"
      },
      "gasLimit": {
        "_hex": "0x5208"
      },
      "to": "0x32Be343B94f860124dC4fEe278FDCBD38C102D88",
      "value": {
        "_hex": "0x2ebc8870ef5f4000"
      },
      "nonce": 10,
      "data": "0x",
      "r": "0x0feab8c2828316d0d7beb00a6d939046618d79d1bc18f909d52c70db39806685",
      "s": "0x1ba23272988bf4d8ab94cc396048f25415034718ab8c2339091133b2829807de",
      "v": 27,
      "creates": null,
      "raw": "0xf86c0a850ba43b74008252089432be343b94f860124dc4fee278fdcbd38c102d88882ebc8870ef5f4000801ba00feab8c2828316d0d7beb00a6d939046618d79d1bc18f909d52c70db39806685a01ba23272988bf4d8ab94cc396048f25415034718ab8c2339091133b2829807de",
      "networkId": 0,
      "chainId": 0
    },
    {
      "hash": "0xe0a2dc0a20d3cad68b7bc9e5d7017df59f250d7040ce2c08ca411a7817078ce7",
      "blockHash": "0x72781942e2871cfd1ed6811ba8e8b8060f8e5208bdcabbbd333422dc8c3589e1",
      "blockNumber": 117852,
      "transactionIndex": 2,
      "confirmations": null,
      "from": "0x52191276589069F70F0E46bcCc718d793d1Aa1D0",
      "gasPrice": {
        "_hex": "0xba43b7400"
      },
      "gasLimit": {
        "_hex": "0x5208"
      },
      "to": "0x32Be343B94f860124dC4fEe278FDCBD38C102D88",
      "value": {
        "_hex": "0xb73274c5a4e20000"
      },
      "nonce": 17,
      "data": "0x",
      "r": "0x839f0caca3b6f83f34534234f8b7809dacc9c4e80ea795644ffefdda697aa3ae",
      "s": "0x3d9ea61c2b759d40365446d8bec7357ba2a380cf4231962413b842058334e610",
      "v": 27,
      "creates": null,
      "raw": "0xf86c11850ba43b74008252089432be343b94f860124dc4fee278fdcbd38c102d8888b73274c5a4e20000801ba0839f0caca3b6f83f34534234f8b7809dacc9c4e80ea795644ffefdda697aa3aea03d9ea61c2b759d40365446d8bec7357ba2a380cf4231962413b842058334e610",
      "networkId": 0,
      "chainId": 0
    },
    {
      "hash": "0x1ebfee988b27b4e07f2aec966908a76bd9c45e50545bcec44a4d65f1ef042280",
      "blockHash": "0x72781942e2871cfd1ed6811ba8e8b8060f8e5208bdcabbbd333422dc8c3589e1",
      "blockNumber": 117852,
      "transactionIndex": 3,
      "confirmations": null,
      "from": "0x99181ED48C7c51532622dA23e20E2B38392476A7",
      "gasPrice": {
        "_hex": "0xba43b7400"
      },
      "gasLimit": {
        "_hex": "0x5208"
      },
      "to": "0x32Be343B94f860124dC4fEe278FDCBD38C102D88",
      "value": {
        "_hex": "0x1592cfb335813c00"
      },
      "nonce": 15,
      "data": "0x",
      "r": "0x162d30c3ec4b192834f47e42a2bf5278d430347f6967971009d2eb356085e5ce",
      "s": "0x46594e49a07ab0ae6c484912b312847ba822247af7799ccf37068b1b23955f63",
      "v": 27,
      "creates": null,
      "raw": "0xf86c0f850ba43b74008252089432be343b94f860124dc4fee278fdcbd38c102d88881592cfb335813c00801ba0162d30c3ec4b192834f47e42a2bf5278d430347f6967971009d2eb356085e5cea046594e49a07ab0ae6c484912b312847ba822247af7799ccf37068b1b23955f63",
      "networkId": 0,
      "chainId": 0
    }
  ]
}