{
  "hash": "0xf681b6cc76c495967aca2b42c55ecb28b99be1ad43f7bf8afec779e68ac0cb51",
  "parentHash": "0x86a15380d86f92ef53534090faf89eaf83b0c9d8fb68943f459c585184e18f95",
  "number": 102197,
  "timestamp": 1439834298,
  "nonce": "0xaebc20f1d6567cac",
  "difficulty": 3918445797729,
  "gasLimit": {
    "_hex": "0x2fefd8"
  },
  "gasUsed": {
    "_hex": "0x5208"
  },
  "miner": "0x580992B51e3925e23280EfB93d3047C82f17E038",
  "extraData": "0x476574682f76312e302e312f6c696e75782f676f312e342e32",
  "transactions": [
    {
      "hash": "0x8e7115152087b825b1d8315ebad7f3751bceb2eb5895146bbef6a0c9fbfe0de7",
      "blockHash": "0xf681b6cc76c495967aca2b42c55ecb28b99be1ad43f7bf8afec779e68ac0cb51",
      "blockNumber": 102197,
      "transactionIndex": 0,
      "confirmations": null,
      "from": "0x2910543Af39abA0Cd09dBb2D50200b3E800A63D2",
      "gasPrice": {
        "_hex": "0xd4a0ffcd4"
      },
      "gasLimit": {
        "_hex": "0x5208"
      },
      "to": "0x9f8aF3029af4Ba51bbAa32cF064816e07A35BBbD",
      "value": {
        "_hex": "0x4bf2b619b5da638000"
      },
      "nonce": 987,
      "data": "0x",
      "r": "0x941083b42558205b41443e82ca4e141608bcf09d677736ee68e37240f8afab1c",
      "s": "0x3bbe5799e32f53cdbf646db3b3ab136d782cf5f20637c3de13efd85ae9e02907",
      "v": 28,
      "creates": null,
      "raw": "0xf86f8203db850d4a0ffcd4825208949f8af3029af4ba51bbaa32cf064816e07a35bbbd894bf2b619b5da638000801ca0941083b42558205b41443e82ca4e141608bcf09d677736ee68e37240f8afab1ca03bbe5799e32f53cdbf646db3b3ab136d782cf5f20637c3de13efd85ae9e02907",
      "networkId": 0,
      "chainId": 0
    }
  ]
}