{
  "hash": "0x9ab31d10f14f7ebf72dcd94498b7c09c045015bc591ad168a2ac87c451dad479",
  "parentHash": "0x365336465bec4785ff6088fe9d6b75d82f5776cd1e9e06b32080de4e39bb68a4",
  "number": 65604,
  "timestamp": 1439239841,
  "nonce": "0x0f543d761d6dcbb8",
  "difficulty": 1939708557816,
  "gasLimit": {
    "_hex": "0x2fefd8"
  },
  "gasUsed": {
    "_hex": "0x6f2d"
  },
  "miner": "0xf927a40C8B7F6E07c5af7FA2155B4864a4112B13",
  "extraData": "0x",
  "transactions": [
    {
      "hash": "0xe03f402103b14d98e58bb48da63d8676e8d87c701c9f01469a702ba10d932df5",
      "blockHash": "0x9ab31d10f14f7ebf72dcd94498b7c09c045015bc591ad168a2ac87c451dad479",
      "blockNumber": 65604,
      "transactionIndex": 0,
      "confirmations": null,
      "from": "0x976349705b839e2F5719387Fb27D2519d519da03",
      "gasPrice": {
        "_hex": "0xd0ae06f9f"
      },
      "gasLimit": {
        "_hex": "0x15f90"
      },
      "to": "0x125B606C67E8066Da65069652b656c19717745Fa",
      "value": {
        "_hex": "0x133d275819a559e"
      },
      "nonce": 5,
      "data": "0xa55526db",
      "r": "0x10e7290556a0f82a84518eb20cfde964dacd2b5be2706260413482a1d816e4c2",
      "s": "0x785b1ff393768ef63470ce065aa8a4ef125e16814632030fa9888f747ab886fa",
      "v": 28,
      "creates": null,
      "raw": "0xf87105850d0ae06f9f83015f9094125b606c67e8066da65069652b656c19717745fa880133d275819a559e84a55526db1ca010e7290556a0f82a84518eb20cfde964dacd2b5be2706260413482a1d816e4c2a0785b1ff393768ef63470ce065aa8a4ef125e16814632030fa9888f747ab886fa",
      "networkId": 0,
      "chainId": 0
    }
  ]
}