{
  "hash": "0x6fe3090efa7ca4c7f76465d5e50081acf072c60525f76c852b774436adda4ab4",
  "parentHash": "0xee717cc6c1de1c9de5b16ebaa1baa8b4907a4352819becb6d4e1dae62617873a",
  "number": 90883,
  "timestamp": 1439646915,
  "nonce": "0x7fa2138dea0b2230",
  "difficulty": 3402347698131,
  "gasLimit": {
    "_hex": "0x2fefd8"
  },
  "gasUsed": {
    "_hex": "0x5208"
  },
  "miner": "0x790b8a3cE86E707ED0eD32bF89B3269692a23CC1",
  "extraData": "0xd783010001844765746887676f312e342e32856c696e7578",
  "transactions": [
    {
      "hash": "0x86579116530ff54431560348ea10550a10c095e83d88839590a2bc6f21944a17",
      "blockHash": "0x6fe3090efa7ca4c7f76465d5e50081acf072c60525f76c852b774436adda4ab4",
      "blockNumber": 90883,
      "transactionIndex": 0,
      "confirmations": null,
      "from": "0x3fc4eAB8A8df5a124043b29146709935c65F1f7d",
      "gasPrice": {
        "_hex": "0xd8364fc25"
      },
      "gasLimit": {
        "_hex": "0x15f90"
      },
      "to": "0x051B69BB7073F7385370C5751F988b31A7567a63",
      "value": {
        "_hex": "0x5fc1b97136320000"
      },
      "nonce": 2,
      "data": "0x",
      "r": "0x25d8c28e60a3e5accabc962ae94a7cf717e86fc721badf5968f7264a4ca9c867",
      "s": "0x288bcbbc53fdbd0d64dd51720da4b437e10f444bd9f4e2fdd50c65552815dce9",
      "v": 27,
      "creates": null,
      "raw": "0xf86d02850d8364fc2583015f9094051b69bb7073f7385370c5751f988b31a7567a63885fc1b97136320000801ba025d8c28e60a3e5accabc962ae94a7cf717e86fc721badf5968f7264a4ca9c867a0288bcbbc53fdbd0d64dd51720da4b437e10f444bd9f4e2fdd50c65552815dce9",
      "networkId": 0,
      "chainId": 0
    }
  ]
}