{
  "hash": "0xec343f7aca15a8f6c4649cc4aa4ec100f11fbe2d4af86d028f0fec9bbf83f4e7",
  "parentHash": "0x445bc31710980a4c1527d8cf1ec405b243cc6ed41ddb9c3b6f0c04b6a67370d6",
  "number": 64560,
  "timestamp": 1439222739,
  "nonce": "0xd74df5c7237d102c",
  "difficulty": 1885780651028,
  "gasLimit": {
    "_hex": "0x2fefd8"
  },
  "gasUsed": {
    "_hex": "0x5208"
  },
  "miner": "0xf927a40C8B7F6E07c5af7FA2155B4864a4112B13",
  "extraData": "0x",
  "transactions": [
    {
      "hash": "0x62ffc12dab1a45a5784c565e7acc07c25fc49970ff32aa63c021e84d419e6977",
      "blockHash": "0xec343f7aca15a8f6c4649cc4aa4ec100f11fbe2d4af86d028f0fec9bbf83f4e7",
      "blockNumber": 64560,
      "transactionIndex": 0,
      "confirmations": null,
      "from": "0x26e3C8817Fd23B1197E298E2C371E5eB5209bb1a",
      "gasPrice": {
        "_hex": "0xba43b7400"
      },
      "gasLimit": {
        "_hex": "0x5208"
      },
      "to": "0x6747f922385c9a6F9cfDf095F34345257DD597bE",
      "value": {
        "_hex": "0x1072bbac261c000"
      },
      "nonce": 1,
      "data": "0x",
      "r": "0x48046535c8ebe4f1b328f6e4c89fcbe29e9e004db4453aa562192befe6102cda",
      "s": "0x4e1efb8ab51c59ec208820058c330bac3915d9a1ab451735395abf71db9a8376",
      "v": 27,
      "creates": null,
      "raw": "0xf86c01850ba43b7400825208946747f922385c9a6f9cfdf095f34345257dd597be8801072bbac261c000801ba048046535c8ebe4f1b328f6e4c89fcbe29e9e004db4453aa562192befe6102cdaa04e1efb8ab51c59ec208820058c330bac3915d9a1ab451735395abf71db9a8376",
      "networkId": 0,
      "chainId": 0
    }
  ]
}