{
  "hash": "0xe6274876d9feed982748fde865bff6ce8c3cc7daba93b58afc306c96b08a3ca7",
  "parentHash": "0x7d6c77a013e393804bfd71986dc829f7593bf137dfad587d8a5a7348f79ed32d",
  "number": 110758,
  "timestamp": 1439978918,
  "nonce": "0x124abc3590964231",
  "difficulty": 4398984734600,
  "gasLimit": {
    "_hex": "0x2fefd8"
  },
  "gasUsed": {
    "_hex": "0xa410"
  },
  "miner": "0x8B454d830feF179e66206840F8F3D1d83bC32b17",
  "extraData": "0x476574682f76312e302e312f77696e646f77732f676f312e342e32",
  "transactions": [
    {
      "hash": "0x10b91257799c06b6b64915c3445793757ea721f399a6349e0e120ec184f3ff44",
      "blockHash": "0xe6274876d9feed982748fde865bff6ce8c3cc7daba93b58afc306c96b08a3ca7",
      "blockNumber": 110758,
      "transactionIndex": 0,
      "confirmations": null,
      "from": "0x136D4b662BbD1080Cfe4445B0fA213864435B7f1",
      "gasPrice": {
        "_hex": "0xe78cd268f"
      },
      "gasLimit": {
        "_hex": "0x5208"
      },
      "to": "0x0F87Fb507513e749081E34373c84E95e85b5c057",
      "value": {
        "_hex": "0xddc520d905ec570"
      },
      "nonce": 7,
      "data": "0x",
      "r": "0x0f316d5c70e7236f353424f90f335a41203281f058e145c51b756535971275b6",
      "s": "0x5c6291f51cf289edeb4f866d935cadf10dd8bebb64998c95dc65ae7177ce8250",
      "v": 28,
      "creates": null,
      "raw": "0xf86c07850e78cd268f825208940f87fb507513e749081e34373c84e95e85b5c057880ddc520d905ec570801ca00f316d5c70e7236f353424f90f335a41203281f058e145c51b756535971275b6a05c6291f51cf289edeb4f866d935cadf10dd8bebb64998c95dc65ae7177ce8250",
      "networkId": 0,
      "chainId": 0
    },
    {
      "hash": "0xaf5c34de2146790b8ba3ebdf3388c716842f59bb3df741da4ee15d4b8d53c6db",
      "blockHash": "0xe6274876d9feed982748fde865bff6ce8c3cc7daba93b58afc306c96b08a3ca7",
      "blockNumber": 110758,
      "transactionIndex": 1,
      "confirmations": null,
      "from": "0x976349705b839e2F5719387Fb27D2519d519da03",
      "gasPrice": {
        "_hex": "0xdf4aa23ec"
      },
      "gasLimit": {
        "_hex": "0x15f90"
      },
      "to": "0x4245271A2F40593fb9F66A98202b3Dc1a8593cD2",
      "value": {
        "_hex": "0x16345785d8a0000"
      },
      "nonce": 24,
      "data": "0x",
      "r": "0xc95f4bd1412902ee593c13410a5829f89a3b0dcdef710046053c78f71f794632",
      "s": "0x5e3cdd56d81e5ddbdcbb1eb9d3929d309830a4168b95f3426ac6a4eb004ead78",
      "v": 27,
      "creates": null,
      "raw": "0xf86d18850df4aa23ec83015f90944245271a2f40593fb9f66a98202b3dc1a8593cd288016345785d8a0000801ba0c95f4bd1412902ee593c13410a5829f89a3b0dcdef710046053c78f71f794632a05e3cdd56d81e5ddbdcbb1eb9d3929d309830a4168b95f3426ac6a4eb004ead78",
      "networkId": 0,
      "chainId": 0
    }
  ]
}