{
  "hash": "0x82cc8b217b43479d5665793bba43ab274efe1321572686f08af01f78809bb9bb",
  "parentHash": "0xbdf119922342846732ce76588675698fbd9a9f164dbef220cafad4c2e411a170",
  "number": 96655,
  "timestamp": 1439743721,
  "nonce": "0xba1b76a71f60e0f4",
  "difficulty": 3730532786002,
  "gasLimit": {
    "_hex": "0x2fefd8"
  },
  "gasUsed": {
    "_hex": "0xa410"
  },
  "miner": "0xe6A7a1d47ff21B6321162AEA7C6CB457D5476Bca",
  "extraData": "0x476574682f76312e302e312d38326566323666362f6c696e75782f676f312e34",
  "transactions": [
    {
      "hash": "0xd41478b6fa8aebfbffd4f16925a3b9001508631762f3621508ce9be115bfe3ba",
      "blockHash": "0x82cc8b217b43479d5665793bba43ab274efe1321572686f08af01f78809bb9bb",
      "blockNumber": 96655,
      "transactionIndex": 0,
      "confirmations": null,
      "from": "0xb1abce2918E21ddb93AA452731a12672A3d9F75a",
      "gasPrice": {
        "_hex": "0xdd4854144"
      },
      "gasLimit": {
        "_hex": "0x5208"
      },
      "to": "0x32Be343B94f860124dC4fEe278FDCBD38C102D88",
      "value": {
        "_hex": "0x455f2301530f7000"
      },
      "nonce": 61,
      "data": "0x",
      "r": "0x698ffc4856031eb8222fe4555ed2c6817d7411a10dee150f3700ea684c1af2dd",
      "s": "0x1fcb51e068636357aa338f85c6f239ce95d5d95fe8f33b26946b594f44420c6e",
      "v": 28,
      "creates": null,
      "raw": "0xf86c3d850dd48541448252089432be343b94f860124dc4fee278fdcbd38c102d8888455f2301530f7000801ca0698ffc4856031eb8222fe4555ed2c6817d7411a10dee150f3700ea684c1af2dda01fcb51e068636357aa338f85c6f239ce95d5d95fe8f33b26946b594f44420c6e",
      "networkId": 0,
      "chainId": 0
    },
    {
      "hash": "0x0967db824eff504c9c77fd42d78b4202567395dde48deea8666d7e3d27c9c0bf",
      "blockHash": "0x82cc8b217b43479d5665793bba43ab274efe1321572686f08af01f78809bb9bb",
      "blockNumber": 96655,
      "transactionIndex": 1,
      "confirmations": null,
      "from": "0xD9666150A9dA92d9108198a4072970805a8B3428",
      "gasPrice": {
        "_hex": "0xdd4854144"
      },
      "gasLimit": {
        "_hex": "0x5208"
      },
      "to": "0x32Be343B94f860124dC4fEe278FDCBD38C102D88",
      "value": {
        "_hex": "0x455f2301530f7000"
      },
      "nonce": 20,
      "data": "0x",
      "r": "0x72c3ef12d1957c152b9008eb3fc0d57de79021be44a85075cd7cf07503668b51",
      "s": "0x56850e2aa17c13ed13bdd5ff28bf7952de07065098f009d4401405ec44891414",
      "v": 28,
      "creates": null,
      "raw": "0xf86c14850dd48541448252089432be343b94f860124dc4fee278fdcbd38c102d8888455f2301530f7000801ca072c3ef12d1957c152b9008eb3fc0d57de79021be44a85075cd7cf07503668b51a056850e2aa17c13ed13bdd5ff28bf7952de07065098f009d4401405ec44891414",
      "networkId": 0,
      "chainId": 0
    }
  ]
}