{
  "hash": "0xc229d6f6b9cf43de0267a964cd2afd52de5b0051255ecfc63981881d7ea5b8e8",
  "parentHash": "0xf76e415f83b5dcd5029319bad4e6320cfa0a8c7b7f64805e8175677fadbd4b6e",
  "number": 92118,
  "timestamp": 1439667041,
  "nonce": "0xe373107c6ea925d8",
  "difficulty": 3474027433905,
  "gasLimit": {
    "_hex": "0x2fefd8"
  },
  "gasUsed": {
    "_hex": "0x5208"
  },
  "miner": "0xe6A7a1d47ff21B6321162AEA7C6CB457D5476Bca",
  "extraData": "0x476574682f76312e302e312d38326566323666362f6c696e75782f676f312e34",
  "transactions": [
    {
      "hash": "0xfd6831a35329794c8261316be2067dca19bf7f5bac7bb0fb9622eecc4c9d251b",
      "blockHash": "0xc229d6f6b9cf43de0267a964cd2afd52de5b0051255ecfc63981881d7ea5b8e8",
      "blockNumber": 92118,
      "transactionIndex": 0,
      "confirmations": null,
      "from": "0xa70a9a7040d542C632D8e0bE7c5513A8a5Bbc752",
      "gasPrice": {
        "_hex": "0xdf4bcdbd6"
      },
      "gasLimit": {
        "_hex": "0x5208"
      },
      "to": "0x32Be343B94f860124dC4fEe278FDCBD38C102D88",
      "value": {
        "_hex": "0x455f0dd05ed64800"
      },
      "nonce": 126,
      "data": "0x",
      "r": "0xe021862192bb310da9c3cbd59f04c98cf7821c2ec86b83846292986a98de79d9",
      "s": "0x2756163e9273e3ef9ac26d464bc35780c7d7a394fcf5db64d88b408f7fefc4c0",
      "v": 27,
      "creates": null,
      "raw": "0xf86c7e850df4bcdbd68252089432be343b94f860124dc4fee278fdcbd38c102d8888455f0dd05ed64800801ba0e021862192bb310da9c3cbd59f04c98cf7821c2ec86b83846292986a98de79d9a02756163e9273e3ef9ac26d464bc35780c7d7a394fcf5db64d88b408f7fefc4c0",
      "networkId": 0,
      "chainId": 0
    }
  ]
}