{
  "hash": "0x35168073217b5548915c5bee4ca4c4d3ba4b2658e5e585bf1967b61e41edf429",
  "parentHash": "0xc4fba3bb6f3b867647aa42c574ea2b2ac97c735062cfc16a6bfa7bc0ece99741",
  "number": 56058,
  "timestamp": 1439081401,
  "nonce": "0xcd5a9e85eb133591",
  "difficulty": 1624117764621,
  "gasLimit": {
    "_hex": "0x2fefd5"
  },
  "gasUsed": {
    "_hex": "0x5208"
  },
  "miner": "0x3F98e477a361F777DA14611a7e419A75Fd238b6b",
  "extraData": "0x476574682f76312e302e312f6c696e75782f676f312e342e32",
  "transactions": [
    {
      "hash": "0xf8a76e19715caedfbeebebe132c6426216341a01b560500a2fa5970968fb2a53",
      "blockHash": "0x35168073217b5548915c5bee4ca4c4d3ba4b2658e5e585bf1967b61e41edf429",
      "blockNumber": 56058,
      "transactionIndex": 0,
      "confirmations": null,
      "from": "0x946B4421c64331bdAe148e6F27d66B92612E0BF6",
      "gasPrice": {
        "_hex": "0xd8d1091ba"
      },
      "gasLimit": {
        "_hex": "0x5208"
      },
      "to": "0x32Be343B94f860124dC4fEe278FDCBD38C102D88",
      "value": {
        "_hex": "0xddc6a9161061c00"
      },
      "nonce": 1,
      "data": "0x",
      "r": "0x5f49eeaaa25edef552a9b273063c47d8629281b05963e2318094e304873c90f6",
      "s": "0x64e7466ea37ed25926c5e63393d94039c654eb3cabfdcd168595c9aff56e9bc9",
      "v": 27,
      "creates": null,
      "raw": "0xf86c01850d8d1091ba8252089432be343b94f860124dc4fee278fdcbd38c102d88880ddc6a9161061c00801ba05f49eeaaa25edef552a9b273063c47d8629281b05963e2318094e304873c90f6a064e7466ea37ed25926c5e63393d94039c654eb3cabfdcd168595c9aff56e9bc9",
      "networkId": 0,
      "chainId": 0
    }
  ]
}