{
  "hash": "0xf01df0fbc20b7ab932feb00d22b02d27e71131cac56c7b829e4d7ca7546b33a5",
  "parentHash": "0x6aabf153420a65c579a249003f1f95d66de62390bc0cf8e5c670896b26437078",
  "number": 93959,
  "timestamp": 1439700378,
  "nonce": "0x9be100f195c5ef8b",
  "difficulty": 3478356611752,
  "gasLimit": {
    "_hex": "0x2fefd8"
  },
  "gasUsed": {
    "_hex": "0xa410"
  },
  "miner": "0x9D49F602b0fdb924Bd63DDE2Bd0907E4A07c63a7",
  "extraData": "0x476574682f76312e302e312f6c696e75782f676f312e342e32",
  "transactions": [
    {
      "hash": "0xf4c11c6bfc01056e41053f6f9793f4389ac7951c2d48f8301cafbd791b754bd9",
      "blockHash": "0xf01df0fbc20b7ab932feb00d22b02d27e71131cac56c7b829e4d7ca7546b33a5",
      "blockNumber": 93959,
      "transactionIndex": 0,
      "confirmations": null,
      "from": "0xb1abce2918E21ddb93AA452731a12672A3d9F75a",
      "gasPrice": {
        "_hex": "0xcec852d50"
      },
      "gasLimit": {
        "_hex": "0x5208"
      },
      "to": "0x32Be343B94f860124dC4fEe278FDCBD38C102D88",
      "value": {
        "_hex": "0x1158a2c9b1c646000"
      },
      "nonce": 9,
      "data": "0x",
      "r": "0x51f0054faa7003889bf3bf658475435cd82232fc923de99618e2abbcc756b4a8",
      "s": "0x257037a974f96595a7f50629cfde4fc35dc16fafc3059f7c16e6233cf14c5ddf",
      "v": 27,
      "creates": null,
      "raw": "0xf86d09850cec852d508252089432be343b94f860124dc4fee278fdcbd38c102d888901158a2c9b1c646000801ba051f0054faa7003889bf3bf658475435cd82232fc923de99618e2abbcc756b4a8a0257037a974f96595a7f50629cfde4fc35dc16fafc3059f7c16e6233cf14c5ddf",
      "networkId": 0,
      "chainId": 0
    },
    {
      "hash": "0x5b5cf5c17787c80e77f4281cd67311cfb4dd8aa90446f9353e289032f1a4fe73",
      "blockHash": "0xf01df0fbc20b7ab932feb00d22b02d27e71131cac56c7b829e4d7ca7546b33a5",
      "blockNumber": 93959,
      "transactionIndex": 1,
      "confirmations": null,
      "from": "0x32Be343B94f860124dC4fEe278FDCBD38C102D88",
      "gasPrice": {
        "_hex": "0xcec852d50"
      },
      "gasLimit": {
        "_hex": "0x5208"
      },
      "to": "0x9b7999611FD5eFF3ef9A86653490c42E83ED4B8E",
      "value": {
        "_hex": "0xd0287c17a7dff0000"
      },
      "nonce": 938,
      "data": "0x",
      "r": "0x3093b3fdd4cb4e6822c53bd8fc78bbc574d35e284fdcbf141194e49b85d58dba",
      "s": "0x2fa979633dc0edc2ab5df8249dd3155dd8b601934a449af9fca38a8cc9528abb",
      "v": 27,
      "creates": null,
      "raw": "0xf86f8203aa850cec852d50825208949b7999611fd5eff3ef9a86653490c42e83ed4b8e890d0287c17a7dff0000801ba03093b3fdd4cb4e6822c53bd8fc78bbc574d35e284fdcbf141194e49b85d58dbaa02fa979633dc0edc2ab5df8249dd3155dd8b601934a449af9fca38a8cc9528abb",
      "networkId": 0,
      "chainId": 0
    }
  ]
}