{
  "hash": "0x1a779d62c003c51604ae2af17f64b9321d589eb02056fa75d139570363a6d2d0",
  "parentHash": "0x9d7c6c58ef336b5ceb3c2bb0f8d0ed2952e144a9d354f6a0e250b464d90dc4d2",
  "number": 86596,
  "timestamp": 1439580311,
  "nonce": "0x8d96c9f5dea32d04",
  "difficulty": 2910248432166,
  "gasLimit": {
    "_hex": "0x2fefd5"
  },
  "gasUsed": {
    "_hex": "0xa82c"
  },
  "miner": "0xe6A7a1d47ff21B6321162AEA7C6CB457D5476Bca",
  "extraData": "0x476574682f76312e302e312d38326566323666362f6c696e75782f676f312e34",
  "transactions": [
    {
      "hash": "0xd913e758af3a6ccfa98b398f3d8f2349be6a6bf5a6213ddd85de08de0da3399d",
      "blockHash": "0x1a779d62c003c51604ae2af17f64b9321d589eb02056fa75d139570363a6d2d0",
      "blockNumber": 86596,
      "transactionIndex": 0,
      "confirmations": null,
      "from": "0x77b97786B0FB73e55d9E92d4B182beFBF346F979",
      "gasPrice": {
        "_hex": "0xd259a3707"
      },
      "gasLimit": {
        "_hex": "0xf4240"
      },
      "to": "0x33cA8b5377c9776eb59863Fb63814dc00a5CB10D",
      "value": {
        "_hex": "0x0"
      },
      "nonce": 8,
      "data": "0xbf95d44f000000000000000000000000000000000000000000000000000000000001388000000000000000000000000000000000000000000000000000000000053573540000000000000000000000000000000000000000000000000000000006946714",
      "r": "0x5994ba1b94320f7cdc5d6ce3c7e66df225b30c7b6458ceb230b4a1ae54b7f390",
      "s": "0x2a4b1515d11e1c0ffba5ae466f1d8a3defbeda53116781a8cd7487d81c161cab",
      "v": 28,
      "creates": null,
      "raw": "0xf8ca08850d259a3707830f42409433ca8b5377c9776eb59863fb63814dc00a5cb10d80b864bf95d44f0000000000000000000000000000000000000000000000000000000000013880000000000000000000000000000000000000000000000000000000000535735400000000000000000000000000000000000000000000000000000000069467141ca05994ba1b94320f7cdc5d6ce3c7e66df225b30c7b6458ceb230b4a1ae54b7f390a02a4b1515d11e1c0ffba5ae466f1d8a3defbeda53116781a8cd7487d81c161cab",
      "networkId": 0,
      "chainId": 0
    }
  ]
}