{
  "hash": "0x3ab37acd9905c69e73883b894a06a35300f7f9800b29021fd2809c1e230ce825",
  "parentHash": "0x2f0a50902068cd1b15297d199135f6f6881e005c7b29209bec023ee4c28bb837",
  "number": 85572,
  "timestamp": 1439565623,
  "nonce": "0x5d4003608dfa4c0b",
  "difficulty": 2766489715186,
  "gasLimit": {
    "_hex": "0x2fefd8"
  },
  "gasUsed": {
    "_hex": "0x5208"
  },
  "miner": "0x5F8F73E26CdF436f19Cb24C82F90A15AFe55b592",
  "extraData": "0x476574682f76312e302e312f77696e646f77732f676f312e342e32",
  "transactions": [
    {
      "hash": "0xa78ed991a3b4adbc3673eb56a87cc3effad0410f5865c7631695658bc72083e2",
      "blockHash": "0x3ab37acd9905c69e73883b894a06a35300f7f9800b29021fd2809c1e230ce825",
      "blockNumber": 85572,
      "transactionIndex": 0,
      "confirmations": null,
      "from": "0x0a74B0C23Cb4Fa806CA0C6621318D1c1F2778baF",
      "gasPrice": {
        "_hex": "0xba43b7400"
      },
      "gasLimit": {
        "_hex": "0x5208"
      },
      "to": "0xC47Aaa860008be6f65B58c6C6E02a84e666EfE31",
      "value": {
        "_hex": "0x8ac3680c5ce46000"
      },
      "nonce": 0,
      "data": "0x",
      "r": "0x0821c20a3c54a668114e479ebd0fd9bd3b191d2665227f9403db406328247e70",
      "s": "0x64e4f4c2ad7c642a5c3240a33a22877d134bfea1e47ca5b4cef1d06dd324722f",
      "v": 27,
      "creates": null,
      "raw": "0xf86c80850ba43b740082520894c47aaa860008be6f65b58c6c6e02a84e666efe31888ac3680c5ce46000801ba00821c20a3c54a668114e479ebd0fd9bd3b191d2665227f9403db406328247e70a064e4f4c2ad7c642a5c3240a33a22877d134bfea1e47ca5b4cef1d06dd324722f",
      "networkId": 0,
      "chainId": 0
    }
  ]
}