{
  "hash": "0xbd88977dca8531c8c515462e88ffcd2d4da2f1ab10328af0d64f79071d382dcc",
  "parentHash": "0xd4c918455fcfb0de646294b060cb03985b43625b00a385670c01eb28bb952719",
  "number": 82729,
  "timestamp": 1439524285,
  "nonce": "0xf3d50b4c862397ee",
  "difficulty": 2372892254980,
  "gasLimit": {
    "_hex": "0x2fefd8"
  },
  "gasUsed": {
    "_hex": "0x5208"
  },
  "miner": "0xe6A7a1d47ff21B6321162AEA7C6CB457D5476Bca",
  "extraData": "0x476574682f76312e302e312d38326566323666362f6c696e75782f676f312e34",
  "transactions": [
    {
      "hash": "0xaf1d56f0a5d778219aa236e40c8ab4b6ab53fb7d559be7a98ded99a9832731ec",
      "blockHash": "0xbd88977dca8531c8c515462e88ffcd2d4da2f1ab10328af0d64f79071d382dcc",
      "blockNumber": 82729,
      "transactionIndex": 0,
      "confirmations": null,
      "from": "0x15eC455c1446538CaA87b185CEa4A0c7A537c56F",
      "gasPrice": {
        "_hex": "0x10b80ca0e3e"
      },
      "gasLimit": {
        "_hex": "0x15f90"
      },
      "to": "0x40B9b889A21Ff1534d018D71Dc406122EBcf3F5A",
      "value": {
        "_hex": "0x28d8a8a5919d57f8000"
      },
      "nonce": 0,
      "data": "0x",
      "r": "0xd5eb8bb8396353a73e95a6d61c165f535f4594a1d734f864e603e154f1146a59",
      "s": "0x23fd11d6c4c6d09c86f39da35aab001abcd961b61d7dfe58171029f1c0bdcda0",
      "v": 28,
      "creates": null,
      "raw": "0xf8708086010b80ca0e3e83015f909440b9b889a21ff1534d018d71dc406122ebcf3f5a8a028d8a8a5919d57f8000801ca0d5eb8bb8396353a73e95a6d61c165f535f4594a1d734f864e603e154f1146a59a023fd11d6c4c6d09c86f39da35aab001abcd961b61d7dfe58171029f1c0bdcda0",
      "networkId": 0,
      "chainId": 0
    }
  ]
}