{
  "hash": "0x220d10e2757e9a9b5c177836c1236fdfc7e714172311e232c6d6b6e42aa2f637",
  "parentHash": "0x20449d4f3714c775877380ebf1705ebc6dc47afeb934e124bfdac92b26308190",
  "number": 61607,
  "timestamp": 1439175090,
  "nonce": "0x4db90e0c026460eb",
  "difficulty": 1738722978781,
  "gasLimit": {
    "_hex": "0x2fefd5"
  },
  "gasUsed": {
    "_hex": "0x5208"
  },
  "miner": "0x72e3Ea8234b449531A581F05f1c1E07cceb559d2",
  "extraData": "0x476574682f76312e302e312f6c696e75782f676f312e342e32",
  "transactions": [
    {
      "hash": "0x18e5ae140ac5027320a873f8b865758404310d8cb11ee9622457583022e8e849",
      "blockHash": "0x220d10e2757e9a9b5c177836c1236fdfc7e714172311e232c6d6b6e42aa2f637",
      "blockNumber": 61607,
      "transactionIndex": 0,
      "confirmations": null,
      "from": "0x86d3856ad0105B9d4199936c1fd203664BA325dC",
      "gasPrice": {
        "_hex": "0xd61b9cdfc"
      },
      "gasLimit": {
        "_hex": "0x5208"
      },
      "to": "0x32Be343B94f860124dC4fEe278FDCBD38C102D88",
      "value": {
        "_hex": "0x455f47c8fee52000"
      },
      "nonce": 6,
      "data": "0x",
      "r": "0x5bbf3d9edfc3b3e957606b1098e733407fb33a9c6b35d6581694ed42078c2a91",
      "s": "0x6ea1b7cc1194ceddff7abaf729dbd835101ca1c6690e41dcc5dd5ba1f88584f2",
      "v": 27,
      "creates": null,
      "raw": "0xf86c06850d61b9cdfc8252089432be343b94f860124dc4fee278fdcbd38c102d8888455f47c8fee52000801ba05bbf3d9edfc3b3e957606b1098e733407fb33a9c6b35d6581694ed42078c2a91a06ea1b7cc1194ceddff7abaf729dbd835101ca1c6690e41dcc5dd5ba1f88584f2",
      "networkId": 0,
      "chainId": 0
    }
  ]
}