{
  "hash": "0x21c8a0627ff865ce4a7df4ec57bfaba2d4b51bb6269ffb3ac10e74f65c6e6a9f",
  "parentHash": "0x76aa18acf25c8cbff6341c267673fbe6570fab939e73a1f2d19d79e6d3e97ae2",
  "number": 69661,
  "timestamp": 1439307682,
  "nonce": "0x1f33cbc5cfb5abde",
  "difficulty": 2081013195998,
  "gasLimit": {
    "_hex": "0x2fefd8"
  },
  "gasUsed": {
    "_hex": "0x5208"
  },
  "miner": "0xDdf735543837695220A5fF5920f5756696840A5D",
  "extraData": "0x476574682f76312e302e312f6c696e75782f676f312e342e32",
  "transactions": [
    {
      "hash": "0x60e6fddea8f90f8363164cf75906271b6c7a02e3905254bf6f6255e919e0cef2",
      "blockHash": "0x21c8a0627ff865ce4a7df4ec57bfaba2d4b51bb6269ffb3ac10e74f65c6e6a9f",
      "blockNumber": 69661,
      "transactionIndex": 0,
      "confirmations": null,
      "from": "0xB83b76f35cF6b2149B34Ee092B3Fc93b7Bb54A8D",
      "gasPrice": {
        "_hex": "0xd89473828"
      },
      "gasLimit": {
        "_hex": "0x5208"
      },
      "to": "0x32Be343B94f860124dC4fEe278FDCBD38C102D88",
      "value": {
        "_hex": "0x56bc3133c1ec7c000"
      },
      "nonce": 2,
      "data": "0x",
      "r": "0xf89e2f5bb590fd4b2e55bed41aa02f6c375340e45f2e811209435aeeb34b5de5",
      "s": "0x0deffacbe4c04764b27270cc299de66479f4ae7c3a7ba6621b41ecb45b0a02f5",
      "v": 27,
      "creates": null,
      "raw": "0xf86d02850d894738288252089432be343b94f860124dc4fee278fdcbd38c102d8889056bc3133c1ec7c000801ba0f89e2f5bb590fd4b2e55bed41aa02f6c375340e45f2e811209435aeeb34b5de5a00deffacbe4c04764b27270cc299de66479f4ae7c3a7ba6621b41ecb45b0a02f5",
      "networkId": 0,
      "chainId": 0
    }
  ]
}