{
  "hash": "0x0cacab09e81bbb913205904809cfb880a660c6fcbcc7dd383a6f546effd75df8",
  "parentHash": "0xe41a857d2361fa90b5378b26c518da0609cc8a1828b0f48fe02250e200d81056",
  "number": 48146,
  "timestamp": 1438952219,
  "nonce": "0x045eefed2eb46a22",
  "difficulty": 1465787008085,
  "gasLimit": {
    "_hex": "0x12f95"
  },
  "gasUsed": {
    "_hex": "0x546c"
  },
  "miner": "0xe6A7a1d47ff21B6321162AEA7C6CB457D5476Bca",
  "extraData": "0x657468706f6f6c2e6f7267",
  "transactions": [
    {
      "hash": "0x2533ea0c4fdd8cbb65f839579b8d8ff3f515e62eab77ffff724f833a50c1ad87",
      "blockHash": "0x0cacab09e81bbb913205904809cfb880a660c6fcbcc7dd383a6f546effd75df8",
      "blockNumber": 48146,
      "transactionIndex": 0,
      "confirmations": null,
      "from": "0x5e8e12A2E6F4510fF2b1b3122B55dE102Caad0d8",
      "gasPrice": {
        "_hex": "0xf12362410"
      },
      "gasLimit": {
        "_hex": "0x7530"
      },
      "to": "0x2910543Af39abA0Cd09dBb2D50200b3E800A63D2",
      "value": {
        "_hex": "0x35c6c3f828a380000"
      },
      "nonce": 0,
      "data": "0x454e3651304d384252",
      "r": "0x269ac9a787d1656d46348cd74a2ecd793f7e50ab39175c67787ebab362b34405",
      "s": "0x6ea75515a76eac2aadaf79daff3ad898c07785403be39c66603dc0d26076b505",
      "v": 27,
      "creates": null,
      "raw": "0xf87680850f12362410827530942910543af39aba0cd09dbb2d50200b3e800a63d289035c6c3f828a38000089454e3651304d3842521ba0269ac9a787d1656d46348cd74a2ecd793f7e50ab39175c67787ebab362b34405a06ea75515a76eac2aadaf79daff3ad898c07785403be39c66603dc0d26076b505",
      "networkId": 0,
      "chainId": 0
    }
  ]
}