{
  "hash": "0x2a87a8d3bceac28c1093075bb3a1cadc91945acc8e15f0c2c260aef003a81670",
  "parentHash": "0x0e6ab7210189c3018e8995248b2b388140b7b3cf788064e5fc55a6751710b79a",
  "number": 48488,
  "timestamp": 1438957989,
  "nonce": "0x9717ce7202e049af",
  "difficulty": 1461439410724,
  "gasLimit": {
    "_hex": "0x18035"
  },
  "gasUsed": {
    "_hex": "0x546c"
  },
  "miner": "0xDdf735543837695220A5fF5920f5756696840A5D",
  "extraData": "0x476574682f76312e302e312f6c696e75782f676f312e342e32",
  "transactions": [
    {
      "hash": "0x61edffa0b15a44f0e3ab0965614c0d7c9eb11b0e0b847a660e978b7cc51886f2",
      "blockHash": "0x2a87a8d3bceac28c1093075bb3a1cadc91945acc8e15f0c2c260aef003a81670",
      "blockNumber": 48488,
      "transactionIndex": 0,
      "confirmations": null,
      "from": "0x06D138312754bDEB5c1175f47cE00620c480E9C9",
      "gasPrice": {
        "_hex": "0xcf11225b8"
      },
      "gasLimit": {
        "_hex": "0x15f90"
      },
      "to": "0x2910543Af39abA0Cd09dBb2D50200b3E800A63D2",
      "value": {
        "_hex": "0x4563918244f40000"
      },
      "nonce": 0,
      "data": "0x454e44454354474847",
      "r": "0x607ed24c6af7e364d6935d443e419fa969865138ed5b9104c5d59978ac2e2b54",
      "s": "0x55b94a6b935f91417629ddfb73d729d819bc673d2e101a64b24a32df1e79f2be",
      "v": 27,
      "creates": null,
      "raw": "0xf87680850cf11225b883015f90942910543af39aba0cd09dbb2d50200b3e800a63d2884563918244f4000089454e444543544748471ba0607ed24c6af7e364d6935d443e419fa969865138ed5b9104c5d59978ac2e2b54a055b94a6b935f91417629ddfb73d729d819bc673d2e101a64b24a32df1e79f2be",
      "networkId": 0,
      "chainId": 0
    }
  ]
}