{
  "hash": "0xa619b146404a2ab40b90e705f0df2554beb38347ad79ec365ffe9c756b1ef40a",
  "parentHash": "0xf067f9cd683a42b319d2e964ccf0564720756a49ef23d7f9064a2c478e18260f",
  "number": 83472,
  "timestamp": 1439535893,
  "nonce": "0x3ccfab06fa7a634c",
  "difficulty": 2432509267811,
  "gasLimit": {
    "_hex": "0x2fefd8"
  },
  "gasUsed": {
    "_hex": "0x5208"
  },
  "miner": "0x900deD2eC098c430caD5347E6F3322932D7BB3a9",
  "extraData": "0x476574682f76312e302e312f77696e646f77732f676f312e342e32",
  "transactions": [
    {
      "hash": "0x78f28d3b3cd531e864bff36cc4985b9b5f8d807b6569f02cbee9fd5b598fd6c0",
      "blockHash": "0xa619b146404a2ab40b90e705f0df2554beb38347ad79ec365ffe9c756b1ef40a",
      "blockNumber": 83472,
      "transactionIndex": 0,
      "confirmations": null,
      "from": "0x3cb561Ce86424b359891E364eC925FfEFf277DF7",
      "gasPrice": {
        "_hex": "0xd8364fc25"
      },
      "gasLimit": {
        "_hex": "0x15f90"
      },
      "to": "0x1a9a2d477B21bf34d80D5c528ff4696278c1786d",
      "value": {
        "_hex": "0xad78ebc5ac6200000"
      },
      "nonce": 1,
      "data": "0x",
      "r": "0x4dbc99837e210a195e3b8ed025aec6bec346b0cd830d2735bc9d4345c94a4279",
      "s": "0x40a91d6f4304466713f504f9b5e45010a4cd92ad0cc4fbe4d733897c56b3f9ca",
      "v": 27,
      "creates": null,
      "raw": "0xf86e01850d8364fc2583015f90941a9a2d477b21bf34d80d5c528ff4696278c1786d890ad78ebc5ac6200000801ba04dbc99837e210a195e3b8ed025aec6bec346b0cd830d2735bc9d4345c94a4279a040a91d6f4304466713f504f9b5e45010a4cd92ad0cc4fbe4d733897c56b3f9ca",
      "networkId": 0,
      "chainId": 0
    }
  ]
}