{
  "hash": "0x60e22c2d5b496817b9efdeb303fd73f540684e8d810e974505e912baada91de4",
  "parentHash": "0x0ed8b2cd242777cefb3715966d59ce2992c7d1a54b617a380d0cc2e08d63fcf8",
  "number": 111750,
  "timestamp": 1439995329,
  "nonce": "0x4b560b5dfb967a79",
  "difficulty": 4454660404352,
  "gasLimit": {
    "_hex": "0x2fefd8"
  },
  "gasUsed": {
    "_hex": "0x5208"
  },
  "miner": "0x007f7f58D3eb5b7510A301eCC749FC1fCDDBE14D",
  "extraData": "0x476574682f76312e302e312f77696e646f77732f676f312e342e32",
  "transactions": [
    {
      "hash": "0xea8a8272d0437eb6d4a107413ffdac0391c816ddde6b5158bd35c94a61545f57",
      "blockHash": "0x60e22c2d5b496817b9efdeb303fd73f540684e8d810e974505e912baada91de4",
      "blockNumber": 111750,
      "transactionIndex": 0,
      "confirmations": null,
      "from": "0x32Be343B94f860124dC4fEe278FDCBD38C102D88",
      "gasPrice": {
        "_hex": "0xcc8840f4a"
      },
      "gasLimit": {
        "_hex": "0x5208"
      },
      "to": "0x84078c6DC14427391374a57ed8969AF8d7D84799",
      "value": {
        "_hex": "0xde0b6b3a7640000"
      },
      "nonce": 1316,
      "data": "0x",
      "r": "0xa1e83eb6ba2d47c65cc4a9a1c468a4ef7e1a6066a82c1b6bea5d9d3c9b058716",
      "s": "0x5bfce1bb2aedeb3839fad46989af2971ccbeb89804cf9edf93d6563af5e0a49b",
      "v": 28,
      "creates": null,
      "raw": "0xf86e820524850cc8840f4a8252089484078c6dc14427391374a57ed8969af8d7d84799880de0b6b3a7640000801ca0a1e83eb6ba2d47c65cc4a9a1c468a4ef7e1a6066a82c1b6bea5d9d3c9b058716a05bfce1bb2aedeb3839fad46989af2971ccbeb89804cf9edf93d6563af5e0a49b",
      "networkId": 0,
      "chainId": 0
    }
  ]
}