{
  "hash": "0x72a380fa7540e525c11dfe6850e9f771c889323f970a6111a57b6504d71b2160",
  "parentHash": "0xccc6c2b146ad8bb174b5b386d0e448024b83ba0c014512da8194088b6082d0d2",
  "number": 122248,
  "timestamp": 1440190780,
  "nonce": "0xa4362d716097e183",
  "difficulty": 4470866258331,
  "gasLimit": {
    "_hex": "0x2fefd8"
  },
  "gasUsed": {
    "_hex": "0x5208"
  },
  "miner": "0x52bc44d5378309EE2abF1539BF71dE1b7d7bE3b5",
  "extraData": "0xd783010002844765746887676f312e342e32856c696e7578",
  "transactions": [
    {
      "hash": "0x8edc7ba2b5598c107f6b95d84a666f5c81382e0ad9163060d4e202085e9df8f5",
      "blockHash": "0x72a380fa7540e525c11dfe6850e9f771c889323f970a6111a57b6504d71b2160",
      "blockNumber": 122248,
      "transactionIndex": 0,
      "confirmations": null,
      "from": "0x52Dc504a422f0E2A9e7632A34a50f1a82F8224c7",
      "gasPrice": {
        "_hex": "0xd5ddb8772"
      },
      "gasLimit": {
        "_hex": "0x15f90"
      },
      "to": "0x097738363B1662599ad0777E19461601F5EC8dF9",
      "value": {
        "_hex": "0xde0b6b3a7640000"
      },
      "nonce": 8,
      "data": "0x",
      "r": "0x058c04b194cada84c715fb41df558fabff956690a6089f390583c9afdcddc733",
      "s": "0x64db806fd8e708e0527ac8e6b56e1dcedaed65793fe8970762f0be41ecd88d5a",
      "v": 28,
      "creates": null,
      "raw": "0xf86d08850d5ddb877283015f9094097738363b1662599ad0777e19461601f5ec8df9880de0b6b3a7640000801ca0058c04b194cada84c715fb41df558fabff956690a6089f390583c9afdcddc733a064db806fd8e708e0527ac8e6b56e1dcedaed65793fe8970762f0be41ecd88d5a",
      "networkId": 0,
      "chainId": 0
    }
  ]
}