{
  "hash": "0x76b0b635db17bac2543b0aa3cdb711ba42bf0e2f708bcd811d8bfc87ae9ce2d5",
  "parentHash": "0x3506dda6c15592c9f3a23ea96b51f027c76dd050346427d40483f1bf22e0dec5",
  "number": 74414,
  "timestamp": 1439385665,
  "nonce": "0x182039f3c1ccbd87",
  "difficulty": 2215053536049,
  "gasLimit": {
    "_hex": "0x2fefd8"
  },
  "gasUsed": {
    "_hex": "0x5208"
  },
  "miner": "0xe6A7a1d47ff21B6321162AEA7C6CB457D5476Bca",
  "extraData": "0x476574682f76312e302e312d38326566323666362f6c696e75782f676f312e34",
  "transactions": [
    {
      "hash": "0x6f96e806aace1321a476e3217b72cee95d86e3d7dbd2ff7d392f9d2164262998",
      "blockHash": "0x76b0b635db17bac2543b0aa3cdb711ba42bf0e2f708bcd811d8bfc87ae9ce2d5",
      "blockNumber": 74414,
      "transactionIndex": 0,
      "confirmations": null,
      "from": "0xd561cbbc05515DE73AB8cF9eAe1357341E7dFDF4",
      "gasPrice": {
        "_hex": "0xd08c42c5e"
      },
      "gasLimit": {
        "_hex": "0x15f90"
      },
      "to": "0xb60eA8D404E000D6e1f9258Aaf5623a5C8249cdc",
      "value": {
        "_hex": "0x2b5e3af16b18800000"
      },
      "nonce": 2,
      "data": "0x",
      "r": "0xcc2788e40f6ca749abccb3ee91b09f11c181965193ecc23ce4a88e618ea3078a",
      "s": "0x648c173fcc9ee029f0afc74d3b5db4992837128a50ec8c79ad62d69fe41181f1",
      "v": 28,
      "creates": null,
      "raw": "0xf86e02850d08c42c5e83015f9094b60ea8d404e000d6e1f9258aaf5623a5c8249cdc892b5e3af16b18800000801ca0cc2788e40f6ca749abccb3ee91b09f11c181965193ecc23ce4a88e618ea3078aa0648c173fcc9ee029f0afc74d3b5db4992837128a50ec8c79ad62d69fe41181f1",
      "networkId": 0,
      "chainId": 0
    }
  ]
}