{
  "hash": "0x0e87930b0042dbc65344026ec75c37e213bced90a1f5b5ced9bfb35d43f46170",
  "parentHash": "0x038cde45513dd92f2549bca6594436c40fe0264659765cce11c9db5ec270e634",
  "number": 100448,
  "timestamp": 1439806779,
  "nonce": "0x073fc07fc5b7833c",
  "difficulty": 3807965267878,
  "gasLimit": {
    "_hex": "0x2fefd8"
  },
  "gasUsed": {
    "_hex": "0x5208"
  },
  "miner": "0xe6A7a1d47ff21B6321162AEA7C6CB457D5476Bca",
  "extraData": "0x476574682f76312e302e312d38326566323666362f6c696e75782f676f312e34",
  "transactions": [
    {
      "hash": "0x7f47d7d4125c5b369e135396b7772b9e950a14e6a3490684226535aa879ddc48",
      "blockHash": "0x0e87930b0042dbc65344026ec75c37e213bced90a1f5b5ced9bfb35d43f46170",
      "blockNumber": 100448,
      "transactionIndex": 0,
      "confirmations": null,
      "from": "0x2910543Af39abA0Cd09dBb2D50200b3E800A63D2",
      "gasPrice": {
        "_hex": "0xcf2b72037"
      },
      "gasLimit": {
        "_hex": "0x5208"
      },
      "to": "0xd68ba7734753e2eE54103116323aBA2D94C78dC5",
      "value": {
        "_hex": "0xb62441be618278000"
      },
      "nonce": 953,
      "data": "0x",
      "r": "0xbd5f73e05d55c2c8cd1ccfdae25719d7113a2bc6a6464582b1ff418ea9571b7e",
      "s": "0x339aa8a9963879ba2148b9c1fb9460b7fbd0a539f622662bd61c19721007fb0f",
      "v": 28,
      "creates": null,
      "raw": "0xf86f8203b9850cf2b7203782520894d68ba7734753e2ee54103116323aba2d94c78dc5890b62441be618278000801ca0bd5f73e05d55c2c8cd1ccfdae25719d7113a2bc6a6464582b1ff418ea9571b7ea0339aa8a9963879ba2148b9c1fb9460b7fbd0a539f622662bd61c19721007fb0f",
      "networkId": 0,
      "chainId": 0
    }
  ]
}