{
  "hash": "0xa94d055b94463649fe212bc0983c5ce41b8b4c122d71be6b80525d8bc7f38254",
  "parentHash": "0x5b24db80796f455ebeb7dd09efa7c9a01d1844f18fed273028a6c9718a12b2f1",
  "number": 87715,
  "timestamp": 1439596393,
  "nonce": "0x57209cc280b7af42",
  "difficulty": 3157081514274,
  "gasLimit": {
    "_hex": "0x2fefd8"
  },
  "gasUsed": {
    "_hex": "0x5208"
  },
  "miner": "0xe6A7a1d47ff21B6321162AEA7C6CB457D5476Bca",
  "extraData": "0x476574682f76312e302e312d38326566323666362f6c696e75782f676f312e34",
  "transactions": [
    {
      "hash": "0xa470aba5b4658a11ab8b1d62e9cbb2f7bfca7393d3bdbeec2c38d94c0887cae4",
      "blockHash": "0xa94d055b94463649fe212bc0983c5ce41b8b4c122d71be6b80525d8bc7f38254",
      "blockNumber": 87715,
      "transactionIndex": 0,
      "confirmations": null,
      "from": "0xa6BDc31c431B8F97848c9D60cbbe9660dc450eB7",
      "gasPrice": {
        "_hex": "0xce241c986"
      },
      "gasLimit": {
        "_hex": "0x5208"
      },
      "to": "0x32Be343B94f860124dC4fEe278FDCBD38C102D88",
      "value": {
        "_hex": "0x456383009ede7400"
      },
      "nonce": 80,
      "data": "0x",
      "r": "0xd094ee572df106bd2ec91c5d78d34e78a5d5a12766ab57421d7971ed3f8bd42e",
      "s": "0x6ce4e020fbcb38630d7f3825e28429f8476b1ac01623e4206df646de8e683361",
      "v": 28,
      "creates": null,
      "raw": "0xf86c50850ce241c9868252089432be343b94f860124dc4fee278fdcbd38c102d8888456383009ede7400801ca0d094ee572df106bd2ec91c5d78d34e78a5d5a12766ab57421d7971ed3f8bd42ea06ce4e020fbcb38630d7f3825e28429f8476b1ac01623e4206df646de8e683361",
      "networkId": 0,
      "chainId": 0
    }
  ]
}