{
  "hash": "0x57e55eb4929310259ce375af36d30a218abbbef174b821bd7907bf2139197c56",
  "parentHash": "0x236c0b4eca06bbcb40f5a07f685d1bba5e0f3d19b40b7a132a47fed609a08fa7",
  "number": 51531,
  "timestamp": 1439006461,
  "nonce": "0x5302f33a33917b93",
  "difficulty": 1565032758243,
  "gasLimit": {
    "_hex": "0xbba33"
  },
  "gasUsed": {
    "_hex": "0x7a120"
  },
  "miner": "0xcfB28bCf7F2c14f488e13B0C6598bcf00c233b92",
  "extraData": "0x476574682f76312e302e302f77696e646f77732f676f312e342e32",
  "transactions": [
    {
      "hash": "0x53aca275325150f4fbdcc1ecc791852bb0c4475cedc929df93443a1fd66a9a15",
      "blockHash": "0x57e55eb4929310259ce375af36d30a218abbbef174b821bd7907bf2139197c56",
      "blockNumber": 51531,
      "transactionIndex": 0,
      "confirmations": null,
      "from": "0xa261512125c57b597c5B0F9FA51Fdbe85cE65e37",
      "gasPrice": {
        "_hex": "0xdcbc33d27"
      },
      "gasLimit": {
        "_hex": "0x7a120"
      },
      "to": "0x109C4f2CCc82C4d77Bde15F306707320294Aea3F",
      "value": {
        "_hex": "0xde0b6b3a7640000"
      },
      "nonce": 0,
      "data": "0x",
      "r": "0x151fc84c9502b5ce7b142d4c581175efbb137151aa41a228869eb746a007376a",
      "s": "0x1874e6b6b4b3ccf1f52aece1f7f34f45e8b24dad9ecdd78e786a7208729138ae",
      "v": 28,
      "creates": null,
      "raw": "0xf86d80850dcbc33d278307a12094109c4f2ccc82c4d77bde15f306707320294aea3f880de0b6b3a7640000801ca0151fc84c9502b5ce7b142d4c581175efbb137151aa41a228869eb746a007376aa01874e6b6b4b3ccf1f52aece1f7f34f45e8b24dad9ecdd78e786a7208729138ae",
      "networkId": 0,
      "chainId": 0
    }
  ]
}