{
  "hash": "0xa5de48b77133803ad2cb0cba0600cf83f82d191a193cc76c60bdbb18cc46d42b",
  "parentHash": "0x5d35b1b77a37f153a03ab3a268adf308eafc1f1bc0c468fa47652de52d3d6d99",
  "number": 113090,
  "timestamp": 1440017726,
  "nonce": "0xdf35dae14e37a071",
  "difficulty": 4484500094356,
  "gasLimit": {
    "_hex": "0x2fefd8"
  },
  "gasUsed": {
    "_hex": "0xa410"
  },
  "miner": "0x7E6930B63D03e88F5928C5cd6ee3FCee4D714F7F",
  "extraData": "0x",
  "transactions": [
    {
      "hash": "0x9feb01d515ff8228b7dd03ebef569ce3ea9fb9dd6e7779341287a77bd2336e75",
      "blockHash": "0xa5de48b77133803ad2cb0cba0600cf83f82d191a193cc76c60bdbb18cc46d42b",
      "blockNumber": 113090,
      "transactionIndex": 0,
      "confirmations": null,
      "from": "0xE996d36DB289Ef8D9F0a9f9a903cc42fEA50CD4E",
      "gasPrice": {
        "_hex": "0xba43b7400"
      },
      "gasLimit": {
        "_hex": "0x5208"
      },
      "to": "0xC47Aaa860008be6f65B58c6C6E02a84e666EfE31",
      "value": {
        "_hex": "0x18619f56330985b0"
      },
      "nonce": 6,
      "data": "0x",
      "r": "0xe28ff51e171998b56b6769f876dff2c25457881c63840d07cf6e9990d829ca8f",
      "s": "0x4cad57756c285311c8de13679d85fe3f06d411d5837e083add140e2df3679342",
      "v": 27,
      "creates": null,
      "raw": "0xf86c06850ba43b740082520894c47aaa860008be6f65b58c6c6e02a84e666efe318818619f56330985b0801ba0e28ff51e171998b56b6769f876dff2c25457881c63840d07cf6e9990d829ca8fa04cad57756c285311c8de13679d85fe3f06d411d5837e083add140e2df3679342",
      "networkId": 0,
      "chainId": 0
    },
    {
      "hash": "0x4ace7897cb8e72744c6b24691da4a09fcef524e8cc4ea0b68be08752d98b7e46",
      "blockHash": "0xa5de48b77133803ad2cb0cba0600cf83f82d191a193cc76c60bdbb18cc46d42b",
      "blockNumber": 113090,
      "transactionIndex": 1,
      "confirmations": null,
      "from": "0x23ac86f02C0e12C822b2c991b4602fbd79EAB8Ed",
      "gasPrice": {
        "_hex": "0xba43b7400"
      },
      "gasLimit": {
        "_hex": "0x5208"
      },
      "to": "0xC47Aaa860008be6f65B58c6C6E02a84e666EfE31",
      "value": {
        "_hex": "0x455fd68a17f038f0"
      },
      "nonce": 6,
      "data": "0x",
      "r": "0xcbb0c467d0c6271d38b80a1c895185e26fc15124482b5b511e5bab37e18a1752",
      "s": "0x017bcc6ef865a5ccbe47750b0e9469494a1d3601350269fbecd604c4b1103b48",
      "v": 28,
      "creates": null,
      "raw": "0xf86c06850ba43b740082520894c47aaa860008be6f65b58c6c6e02a84e666efe3188455fd68a17f038f0801ca0cbb0c467d0c6271d38b80a1c895185e26fc15124482b5b511e5bab37e18a1752a0017bcc6ef865a5ccbe47750b0e9469494a1d3601350269fbecd604c4b1103b48",
      "networkId": 0,
      "chainId": 0
    }
  ]
}