{
  "hash": "0xef3e54c36b2c4a2cae4da1265f2c2f49966127f72f1b07c09d4b056bd3d0d204",
  "parentHash": "0x39e61fb58cf8e2bf50daad831b907e2a5c5ee681260687f7b145e30ff4dd1942",
  "number": 118998,
  "timestamp": 1440135056,
  "nonce": "0x4be700cfc650e3aa",
  "difficulty": 4420491384906,
  "gasLimit": {
    "_hex": "0x2fefd8"
  },
  "gasUsed": {
    "_hex": "0x5208"
  },
  "miner": "0x52bc44d5378309EE2abF1539BF71dE1b7d7bE3b5",
  "extraData": "0xd783010002844765746887676f312e342e32856c696e7578",
  "transactions": [
    {
      "hash": "0xbe3a8987bf9e42743945279a79e90e94b395bf98a3db900268def38392117995",
      "blockHash": "0xef3e54c36b2c4a2cae4da1265f2c2f49966127f72f1b07c09d4b056bd3d0d204",
      "blockNumber": 118998,
      "transactionIndex": 0,
      "confirmations": null,
      "from": "0xbAeF66124E137Eb5eE0DE1BbAB5a30002508a1bf",
      "gasPrice": {
        "_hex": "0xd175607d7"
      },
      "gasLimit": {
        "_hex": "0x15f90"
      },
      "to": "0xAF17A4ab5d6B10055Fc1eB1BFaCcbDe69B83aF76",
      "value": {
        "_hex": "0x1314fb37062980000"
      },
      "nonce": 8,
      "data": "0x",
      "r": "0xc410d4f9ceddbb4f35ea38e56b9d0f1fffdc28601bad5dd6678face6b0eb0764",
      "s": "0x7950fc29278130b1b85215e729d8910cb7286f88ad1462fc84dfb0529139f0ee",
      "v": 28,
      "creates": null,
      "raw": "0xf86e08850d175607d783015f9094af17a4ab5d6b10055fc1eb1bfaccbde69b83af768901314fb37062980000801ca0c410d4f9ceddbb4f35ea38e56b9d0f1fffdc28601bad5dd6678face6b0eb0764a07950fc29278130b1b85215e729d8910cb7286f88ad1462fc84dfb0529139f0ee",
      "networkId": 0,
      "chainId": 0
    }
  ]
}