{
  "hash": "0xc3976de343257fbd2f6b7009cf8418486e22d1a20e495fcbd3f119ae96a0a7e4",
  "parentHash": "0x4dc006587747eed8efe8008a3a7cf7dfd40bd237d2ecadba2df600038f62676e",
  "number": 65829,
  "timestamp": 1439243501,
  "nonce": "0x78de37fbd7154bdf",
  "difficulty": 1948199170086,
  "gasLimit": {
    "_hex": "0x2fefd8"
  },
  "gasUsed": {
    "_hex": "0x5208"
  },
  "miner": "0x157c6f2431eB1a95797EE86F7d17b3c0FD47A247",
  "extraData": "0x476574682f76312e302e312f77696e646f77732f676f312e342e32",
  "transactions": [
    {
      "hash": "0xaeb8685742edd114875631412f254e19ba9e6ccfa1a25a86dc4df949285ca9e1",
      "blockHash": "0xc3976de343257fbd2f6b7009cf8418486e22d1a20e495fcbd3f119ae96a0a7e4",
      "blockNumber": 65829,
      "transactionIndex": 0,
      "confirmations": null,
      "from": "0x2910543Af39abA0Cd09dBb2D50200b3E800A63D2",
      "gasPrice": {
        "_hex": "0xd5aa1e26e"
      },
      "gasLimit": {
        "_hex": "0x5208"
      },
      "to": "0x3668a45E28EDD089fcBe31209de076cef5F06501",
      "value": {
        "_hex": "0x2b5d1eb9d79a78000"
      },
      "nonce": 191,
      "data": "0x",
      "r": "0xb4f919a11eee66203e726c81def0492c4d956820bb4e37661724b9dfe617d651",
      "s": "0x6653e518cc42a5d83d0000b02b2047360058415f91e692fe9a9c13378e6ce076",
      "v": 28,
      "creates": null,
      "raw": "0xf86e81bf850d5aa1e26e825208943668a45e28edd089fcbe31209de076cef5f065018902b5d1eb9d79a78000801ca0b4f919a11eee66203e726c81def0492c4d956820bb4e37661724b9dfe617d651a06653e518cc42a5d83d0000b02b2047360058415f91e692fe9a9c13378e6ce076",
      "networkId": 0,
      "chainId": 0
    }
  ]
}