{
  "hash": "0xae80472c15125e614dc390cb263b24000fe9f37eff5df52972fbfbbeac493d17",
  "parentHash": "0x6b894e6866d9a0283967104483c1b00b2aef5be6126062d7de36e929c89c0055",
  "number": 50774,
  "timestamp": 1438994295,
  "nonce": "0x254094f35cb1357d",
  "difficulty": 1547694690528,
  "gasLimit": {
    "_hex": "0x76e9e"
  },
  "gasUsed": {
    "_hex": "0x22835"
  },
  "miner": "0xbb7B8287f3F0a933474a79eAe42CBCa977791171",
  "extraData": "0x476574682f4c5649562f76312e302e312f6c696e75782f676f312e342e32",
  "transactions": [
    {
      "hash": "0xc59ea08e1b475ed570de5bb6725309e1e6c13a158d50b3b256ef13008deed16e",
      "blockHash": "0xae80472c15125e614dc390cb263b24000fe9f37eff5df52972fbfbbeac493d17",
      "blockNumber": 50774,
      "transactionIndex": 0,
      "confirmations": null,
      "from": "0xb884add88d83dC564Ab8E0E02cbDB63919Aea844",
      "gasPrice": {
        "_hex": "0xda0e95ac0"
      },
      "gasLimit": {
        "_hex": "0x30d40"
      },
      "to": "0xBAA54d6E90c3F4d7Ebec11bD180134C7eD8eBb52",
      "value": {
        "_hex": "0x16345785d8a0000"
      },
      "nonce": 3,
      "data": "0x",
      "r": "0x6957a5349d8c8d99f70a4409bfa2bbf831ca0ac42c7584cdc3e21a616a969bba",
      "s": "0x6a3ee64601ce59bbd97d25e5fdf37e84bd1d771515e3295428de5e8f5bb8a489",
      "v": 27,
      "creates": null,
      "raw": "0xf86d03850da0e95ac083030d4094baa54d6e90c3f4d7ebec11bd180134c7ed8ebb5288016345785d8a0000801ba06957a5349d8c8d99f70a4409bfa2bbf831ca0ac42c7584cdc3e21a616a969bbaa06a3ee64601ce59bbd97d25e5fdf37e84bd1d771515e3295428de5e8f5bb8a489",
      "networkId": 0,
      "chainId": 0
    }
  ]
}