{
  "hash": "0xc91bb28852b03d0fc67b3fa9475c4aef289d8964a066d110ec54771990c83723",
  "parentHash": "0x8f2c846356bb4ea90319066bcd04df6aacf30aa1bd0a14d2d7543e855fd4c932",
  "number": 68655,
  "timestamp": 1439291435,
  "nonce": "0xad1cad2a4e08f0f7",
  "difficulty": 2019199959359,
  "gasLimit": {
    "_hex": "0x2fefd8"
  },
  "gasUsed": {
    "_hex": "0xee070"
  },
  "miner": "0xf8E0CA3Ed80bd541b94BEdCf259e8CF2141A9523",
  "extraData": "0x476574682f76312e302e312f77696e646f77732f676f312e342e32",
  "transactions": [
    {
      "hash": "0xc247494d26157cf49cb39750c9ba002fb3f00f3869bc9a9ce378fcb629d032b7",
      "blockHash": "0xc91bb28852b03d0fc67b3fa9475c4aef289d8964a066d110ec54771990c83723",
      "blockNumber": 68655,
      "transactionIndex": 0,
      "confirmations": null,
      "from": "0xdab9265e6192B858e12b14a24A38a8c761573B95",
      "gasPrice": {
        "_hex": "0xba43b7400"
      },
      "gasLimit": {
        "_hex": "0x15f90"
      },
      "to": "0x793AE8C1b1a160BFc07BFB0d04F85eab1A71F4f2",
      "value": {
        "_hex": "0x0"
      },
      "nonce": 0,
      "data": "0x3ba15036",
      "r": "0xc474609772e9a69f2d121c41d53444485a2a538d051a468c0a7bc242607fec5f",
      "s": "0x7468e30b46ec4498c74517b12f70122d3ae2328eb6fdd79001565e6b74c8338c",
      "v": 28,
      "creates": null,
      "raw": "0xf86980850ba43b740083015f9094793ae8c1b1a160bfc07bfb0d04f85eab1a71f4f280843ba150361ca0c474609772e9a69f2d121c41d53444485a2a538d051a468c0a7bc242607fec5fa07468e30b46ec4498c74517b12f70122d3ae2328eb6fdd79001565e6b74c8338c",
      "networkId": 0,
      "chainId": 0
    },
    {
      "hash": "0x58bdc1b2bc22b4c97da672199f172865683f7d8d21323a41359aefcf48a98f61",
      "blockHash": "0xc91bb28852b03d0fc67b3fa9475c4aef289d8964a066d110ec54771990c83723",
      "blockNumber": 68655,
      "transactionIndex": 1,
      "confirmations": null,
      "from": "0x4d293a52b7838A44EE791C2ABfC09daBd41985aE",
      "gasPrice": {
        "_hex": "0xba43b7400"
      },
      "gasLimit": {
        "_hex": "0x15f90"
      },
      "to": "0x793AE8C1b1a160BFc07BFB0d04F85eab1A71F4f2",
      "value": {
        "_hex": "0x0"
      },
      "nonce": 0,
      "data": "0x3ba15036",
      "r": "0x674a1543b35694457acab290d0cc09f2fc6f3b46b98af0eb43addf5d2924b7e8",
      "s": "0x53314b797d4048ba2f4621f636f53280775f99bf8db34ba730e523cf46d95184",
      "v": 28,
      "creates": null,
      "raw": "0xf86980850ba43b740083015f9094793ae8c1b1a160bfc07bfb0d04f85eab1a71f4f280843ba150361ca0674a1543b35694457acab290d0cc09f2fc6f3b46b98af0eb43addf5d2924b7e8a053314b797d4048ba2f4621f636f53280775f99bf8db34ba730e523cf46d95184",
      "networkId": 0,
      "chainId": 0
    },
    {
      "hash": "0x478195382198c8b6afc786d94026298b41e5211fa2374439f3c3a06cdc2c9802",
      "blockHash": "0xc91bb28852b03d0fc67b3fa9475c4aef289d8964a066d110ec54771990c83723",
      "blockNumber": 68655,
      "transactionIndex": 2,
      "confirmations": null,
      "from": "0xE88E2A3ba421815f8B1117dd99A03b59dE07bF7a",
      "gasPrice": {
        "_hex": "0xba43b7400"
      },
      "gasLimit": {
        "_hex": "0x15f90"
      },
      "to": "0x793AE8C1b1a160BFc07BFB0d04F85eab1A71F4f2",
      "value": {
        "_hex": "0x0"
      },
      "nonce": 0,
      "data": "0x3ba15036",
      "r": "0x158cb2bffac296a67af43f6975bf7bb150a8b1a215db2a403b3861ee0cdbf0f0",
      "s": "0x185d7a358597b827d97a91519b6e2b62f1734ff461d1708c3b6157dfc460f6f9",
      "v": 27,
      "creates": null,
      "raw": "0xf86980850ba43b740083015f9094793ae8c1b1a160bfc07bfb0d04f85eab1a71f4f280843ba150361ba0158cb2bffac296a67af43f6975bf7bb150a8b1a215db2a403b3861ee0cdbf0f0a0185d7a358597b827d97a91519b6e2b62f1734ff461d1708c3b6157dfc460f6f9",
      "networkId": 0,
      "chainId": 0
    },
    {
      "hash": "0x8d03df2c59fc970d760c996fa8e6aa2b3cdd38a56cf70a7834ebb1e6875159bb",
      "blockHash": "0xc91bb28852b03d0fc67b3fa9475c4aef289d8964a066d110ec54771990c83723",
      "blockNumber": 68655,
      "transactionIndex": 3,
      "confirmations": null,
      "from": "0xa45e8160D2C6Bc02c737CDE37A16B84eBD24Ea61",
      "gasPrice": {
        "_hex": "0xba43b7400"
      },
      "gasLimit": {
        "_hex": "0x15f90"
      },
      "to": "0x793AE8C1b1a160BFc07BFB0d04F85eab1A71F4f2",
      "value": {
        "_hex": "0x0"
      },
      "nonce": 0,
      "data": "0x3ba15036",
      "r": "0x6f6740cb9ac8952a5b64cdffd0ddd352e7a5bc68facc8c2f86e5149fbf58bf21",
      "s": "0x0492455ef0c931523838ff699615502a52f91a1925d59ab53c0eb79dcd8563e7",
      "v": 28,
      "creates": null,
      "raw": "0xf86980850ba43b740083015f9094793ae8c1b1a160bfc07bfb0d04f85eab1a71f4f280843ba150361ca06f6740cb9ac8952a5b64cdffd0ddd352e7a5bc68facc8c2f86e5149fbf58bf21a00492455ef0c931523838ff699615502a52f91a1925d59ab53c0eb79dcd8563e7",
      "networkId": 0,
      "chainId": 0
    },
    {
      "hash": "0x30a20e1cabaffe9c8169af1566bc35185d23630868dd8c27e006dbcba82380f1",
      "blockHash": "0xc91bb28852b03d0fc67b3fa9475c4aef289d8964a066d110ec54771990c83723",
      "blockNumber": 68655,
      "transactionIndex": 4,
      "confirmations": null,
      "from": "0x0E6788A59Df4090Ad4b616ed8AB0EBC2b7747cdF",
      "gasPrice": {
        "_hex": "0xba43b7400"
      },
      "gasLimit": {
        "_hex": "0x15f90"
      },
      "to": "0x793AE8C1b1a160BFc07BFB0d04F85eab1A71F4f2",
      "value": {
        "_hex": "0x0"
      },
      "nonce": 0,
      "data": "0x3ba15036",
      "r": "0x0bd595e1f9c817b6f51fd72c964e616037405daea58e9cdc6e40cbc61981ed34",
      "s": "0x79c3d6c0650f20237d7bbd8432dd3b95d0b015c5f8d5adda817d03ad849854b4",
      "v": 28,
      "creates": null,
      "raw": "0xf86980850ba43b740083015f9094793ae8c1b1a160bfc07bfb0d04f85eab1a71f4f280843ba150361ca00bd595e1f9c817b6f51fd72c964e616037405daea58e9cdc6e40cbc61981ed34a079c3d6c0650f20237d7bbd8432dd3b95d0b015c5f8d5adda817d03ad849854b4",
      "networkId": 0,
      "chainId": 0
    },
    {
      "hash": "0xd96e6502e1e152ce233d28a588cc9b9dc8a66c7e63cb9f3a1a6808fae0ba1a48",
      "blockHash": "0xc91bb28852b03d0fc67b3fa9475c4aef289d8964a066d110ec54771990c83723",
      "blockNumber": 68655,
      "transactionIndex": 5,
      "confirmations": null,
      "from": "0x21ed96c11BF1B0a620A18822793e9F96d301ddDB",
      "gasPrice": {
        "_hex": "0xba43b7400"
      },
      "gasLimit": {
        "_hex": "0x15f90"
      },
      "to": "0x793AE8C1b1a160BFc07BFB0d04F85eab1A71F4f2",
      "value": {
        "_hex": "0x0"
      },
      "nonce": 0,
      "data": "0x3ba15036",
      "r": "0x133473a409f469ba6d9fb48b622646db5160875f381a0aa2f26c51bb4f3a7283",
      "s": "0x366e28c376c9df58d6ca7a811d6a69890afee59e10e16102b919b3a538a30143",
      "v": 27,
      "creates": null,
      "raw": "0xf86980850ba43b740083015f9094793ae8c1b1a160bfc07bfb0d04f85eab1a71f4f280843ba150361ba0133473a409f469ba6d9fb48b622646db5160875f381a0aa2f26c51bb4f3a7283a0366e28c376c9df58d6ca7a811d6a69890afee59e10e16102b919b3a538a30143",
      "networkId": 0,
      "chainId": 0
    },
    {
      "hash": "0x62de0706b460ed2dcdb57260ba8c503414450d4d1e63638d47eebfd580d79ca5",
      "blockHash": "0xc91bb28852b03d0fc67b3fa9475c4aef289d8964a066d110ec54771990c83723",
      "blockNumber": 68655,
      "transactionIndex": 6,
      "confirmations": null,
      "from": "0x4a7003798C6Ef43Eda17c4F26BD5f08bD36B5180",
      "gasPrice": {
        "_hex": "0xba43b7400"
      },
      "gasLimit": {
        "_hex": "0x15f90"
      },
      "to": "0x793AE8C1b1a160BFc07BFB0d04F85eab1A71F4f2",
      "value": {
        "_hex": "0x0"
      },
      "nonce": 0,
      "data": "0x3ba15036",
      "r": "0x7142da70f5c5cc32586348ab6ea4cf0fcb2b9f992f506cd55cf9c899a1e354a1",
      "s": "0x5bdb59986cf3e0a51d46809f13b937104fb856315320ff8963a09b7f93872ecd",
      "v": 28,
      "creates": null,
      "raw": "0xf86980850ba43b740083015f9094793ae8c1b1a160bfc07bfb0d04f85eab1a71f4f280843ba150361ca07142da70f5c5cc32586348ab6ea4cf0fcb2b9f992f506cd55cf9c899a1e354a1a05bdb59986cf3e0a51d46809f13b937104fb856315320ff8963a09b7f93872ecd",
      "networkId": 0,
      "chainId": 0
    },
    {
      "hash": "0x23780ffd88740ae2af1cc41dc1e9b64b44e9be650d232548ce3924af68e6e20e",
      "blockHash": "0xc91bb28852b03d0fc67b3fa9475c4aef289d8964a066d110ec54771990c83723",
      "blockNumber": 68655,
      "transactionIndex": 7,
      "confirmations": null,
      "from": "0xB3266dFBd5D48973a1cB6C58C949aeDF28Ef8f52",
      "gasPrice": {
        "_hex": "0xba43b7400"
      },
      "gasLimit": {
        "_hex": "0x15f90"
      },
      "to": "0x793AE8C1b1a160BFc07BFB0d04F85eab1A71F4f2",
      "value": {
        "_hex": "0x0"
      },
      "nonce": 0,
      "data": "0x3ba15036",
      "r": "0x5cd065ada04210ba27bc405f7a29ae202eef07c8644da99c6890a85bbde08012",
      "s": "0x4edbb6079243817b3d1d431423aa1a0be9b4aff54ebc7c3d35952e9a942c02bc",
      "v": 28,
      "creates": null,
      "raw": "0xf86980850ba43b740083015f9094793ae8c1b1a160bfc07bfb0d04f85eab1a71f4f280843ba150361ca05cd065ada04210ba27bc405f7a29ae202eef07c8644da99c6890a85bbde08012a04edbb6079243817b3d1d431423aa1a0be9b4aff54ebc7c3d35952e9a942c02bc",
      "networkId": 0,
      "chainId": 0
    },
    {
      "hash": "0x216fd4b14dc5ac958cfd23eb3767df6c43ee9233e9b78f3a709e93cc4e866e8d",
      "blockHash": "0xc91bb28852b03d0fc67b3fa9475c4aef289d8964a066d110ec54771990c83723",
      "blockNumber": 68655,
      "transactionIndex": 8,
      "confirmations": null,
      "from": "0x4EC4073e557675aDed6F50847877782Fe3b84e94",
      "gasPrice": {
        "_hex": "0xba43b7400"
      },
      "gasLimit": {
        "_hex": "0x15f90"
      },
      "to": "0x793AE8C1b1a160BFc07BFB0d04F85eab1A71F4f2",
      "value": {
        "_hex": "0x0"
      },
      "nonce": 0,
      "data": "0x3ba15036",
      "r": "0x0791c2646d3e07060f17c691e419b0e5fafbdb06158ad84f17a4315abb0c959e",
      "s": "0x0d4cfba323a74e2f37533d6868f3eb48c49eb86ad3ef032ea9643f4934d79fc1",
      "v": 27,
      "creates": null,
      "raw": "0xf86980850ba43b740083015f9094793ae8c1b1a160bfc07bfb0d04f85eab1a71f4f280843ba150361ba00791c2646d3e07060f17c691e419b0e5fafbdb06158ad84f17a4315abb0c959ea00d4cfba323a74e2f37533d6868f3eb48c49eb86ad3ef032ea9643f4934d79fc1",
      "networkId": 0,
      "chainId": 0
    },
    {
      "hash": "0x713bbf28366409918276554b3a8f5025ef9efba1576cfbce889aa88cbcffd413",
      "blockHash": "0xc91bb28852b03d0fc67b3fa9475c4aef289d8964a066d110ec54771990c83723",
      "blockNumber": 68655,
      "transactionIndex": 9,
      "confirmations": null,
      "from": "0xb34FfC3789Ca8986F7322C166b0c9bb8357776C6",
      "gasPrice": {
        "_hex": "0xba43b7400"
      },
      "gasLimit": {
        "_hex": "0x15f90"
      },
      "to": "0x793AE8C1b1a160BFc07BFB0d04F85eab1A71F4f2",
      "value": {
        "_hex": "0x0"
      },
      "nonce": 0,
      "data": "0x3ba15036",
      "r": "0x3588bde2823361ebefa73ad863e2584b088bcd532ebc1ecf15ed4a7ebe43960a",
      "s": "0x5ba0ed6c84b6ccff1efcf17aaf93293439b88f3e3a3b7c56cf32378a4e3b3b7c",
      "v": 28,
      "creates": null,
      "raw": "0xf86980850ba43b740083015f9094793ae8c1b1a160bfc07bfb0d04f85eab1a71f4f280843ba150361ca03588bde2823361ebefa73ad863e2584b088bcd532ebc1ecf15ed4a7ebe43960aa05ba0ed6c84b6ccff1efcf17aaf93293439b88f3e3a3b7c56cf32378a4e3b3b7c",
      "networkId": 0,
      "chainId": 0
    },
    {
      "hash": "0x22d914153c570cbb6ac6ca7595d72b54752c0afdd9d693fabb99c0e1ded5ab4f",
      "blockHash": "0xc91bb28852b03d0fc67b3fa9475c4aef289d8964a066d110ec54771990c83723",
      "blockNumber": 68655,
      "transactionIndex": 10,
      "confirmations": null,
      "from": "0xeA40b6DA24CdF11f08D1A30b8c649beFCd75059E",
      "gasPrice": {
        "_hex": "0xba43b7400"
      },
      "gasLimit": {
        "_hex": "0x15f90"
      },
      "to": "0x793AE8C1b1a160BFc07BFB0d04F85eab1A71F4f2",
      "value": {
        "_hex": "0x0"
      },
      "nonce": 0,
      "data": "0x3ba15036",
      "r": "0xf2f622879cc3a4cc243ee11f394da0fcc67e9f4110106ad7335d395fa06de52b",
      "s": "0x57d0de6fe64350866c9bfd877e7a374862a98558f6ef3d940058a457b5ebe99b",
      "v": 28,
      "creates": null,
      "raw": "0xf86980850ba43b740083015f9094793ae8c1b1a160bfc07bfb0d04f85eab1a71f4f280843ba150361ca0f2f622879cc3a4cc243ee11f394da0fcc67e9f4110106ad7335d395fa06de52ba057d0de6fe64350866c9bfd877e7a374862a98558f6ef3d940058a457b5ebe99b",
      "networkId": 0,
      "chainId": 0
    },
    {
      "hash": "0x36e6405c1224ec70569a0cbb1ec9a825d8fced695e2034e78da0e8db4e79719e",
      "blockHash": "0xc91bb28852b03d0fc67b3fa9475c4aef289d8964a066d110ec54771990c83723",
      "blockNumber": 68655,
      "transactionIndex": 11,
      "confirmations": null,
      "from": "0xcd446049D9F15DBdb0Ed402aD0EaD54D5B39759e",
      "gasPrice": {
        "_hex": "0xba43b7400"
      },
      "gasLimit": {
        "_hex": "0x15f90"
      },
      "to": "0x793AE8C1b1a160BFc07BFB0d04F85eab1A71F4f2",
      "value": {
        "_hex": "0x0"
      },
      "nonce": 0,
      "data": "0x3ba15036",
      "r": "0x0940e1091601719cfee4d33a7d0bd0e56fd99c51e5ac4f000cf39164621afa90",
      "s": "0x04ae4c7e65ca538044aedbf877ff0ffce313b62e9c54b77158701f9f060599ae",
      "v": 28,
      "creates": null,
      "raw": "0xf86980850ba43b740083015f9094793ae8c1b1a160bfc07bfb0d04f85eab1a71f4f280843ba150361ca00940e1091601719cfee4d33a7d0bd0e56fd99c51e5ac4f000cf39164621afa90a004ae4c7e65ca538044aedbf877ff0ffce313b62e9c54b77158701f9f060599ae",
      "networkId": 0,
      "chainId": 0
    },
    {
      "hash": "0xdf32b0f2144f678100d9846828c0e7ae7a3748350adb26ba1e803088ffed3317",
      "blockHash": "0xc91bb28852b03d0fc67b3fa9475c4aef289d8964a066d110ec54771990c83723",
      "blockNumber": 68655,
      "transactionIndex": 12,
      "confirmations": null,
      "from": "0xE4c12fD570f076F76CA78D1BF128E59041304f61",
      "gasPrice": {
        "_hex": "0xba43b7400"
      },
      "gasLimit": {
        "_hex": "0x15f90"
      },
      "to": "0x793AE8C1b1a160BFc07BFB0d04F85eab1A71F4f2",
      "value": {
        "_hex": "0x0"
      },
      "nonce": 0,
      "data": "0x3ba15036",
      "r": "0x50789fde72519f74e3f1fbaa9e752f27993b611ec0854b4626c3417cb379aef6",
      "s": "0x3174e9309d3bea76d3425a692684242bd2fe9250e0d515df3867daefc5fe10a0",
      "v": 27,
      "creates": null,
      "raw": "0xf86980850ba43b740083015f9094793ae8c1b1a160bfc07bfb0d04f85eab1a71f4f280843ba150361ba050789fde72519f74e3f1fbaa9e752f27993b611ec0854b4626c3417cb379aef6a03174e9309d3bea76d3425a692684242bd2fe9250e0d515df3867daefc5fe10a0",
      "networkId": 0,
      "chainId": 0
    },
    {
      "hash": "0x5ce9b64acdb421f4c034836ffa471872360a79cb0f7444e4ae829aeeae50f113",
      "blockHash": "0xc91bb28852b03d0fc67b3fa9475c4aef289d8964a066d110ec54771990c83723",
      "blockNumber": 68655,
      "transactionIndex": 13,
      "confirmations": null,
      "from": "0x26CE3503991060FdC3D8c9b7c27da33742D07b10",
      "gasPrice": {
        "_hex": "0xba43b7400"
      },
      "gasLimit": {
        "_hex": "0x15f90"
      },
      "to": "0x793AE8C1b1a160BFc07BFB0d04F85eab1A71F4f2",
      "value": {
        "_hex": "0x0"
      },
      "nonce": 0,
      "data": "0x3ba15036",
      "r": "0x8d7fe0439b917da836f687138d7f8629d63d929aff81067d5115adfa2c8d3188",
      "s": "0x53c5ec9066632a0b40fccedb7fad74132bb420efc372104bc97d0639b464c40f",
      "v": 27,
      "creates": null,
      "raw": "0xf86980850ba43b740083015f9094793ae8c1b1a160bfc07bfb0d04f85eab1a71f4f280843ba150361ba08d7fe0439b917da836f687138d7f8629d63d929aff81067d5115adfa2c8d3188a053c5ec9066632a0b40fccedb7fad74132bb420efc372104bc97d0639b464c40f",
      "networkId": 0,
      "chainId": 0
    },
    {
      "hash": "0x2132fbd67116b14de5318159ea6c3fdc38ef05b838c70690d9cfd64c5dc2adf3",
      "blockHash": "0xc91bb28852b03d0fc67b3fa9475c4aef289d8964a066d110ec54771990c83723",
      "blockNumber": 68655,
      "transactionIndex": 14,
      "confirmations": null,
      "from": "0x5843E88CE5f22026758c6bd772eF4c9724E82e93",
      "gasPrice": {
        "_hex": "0xba43b7400"
      },
      "gasLimit": {
        "_hex": "0x15f90"
      },
      "to": "0x793AE8C1b1a160BFc07BFB0d04F85eab1A71F4f2",
      "value": {
        "_hex": "0x0"
      },
      "nonce": 0,
      "data": "0x3ba15036",
      "r": "0x45706fad0f14c4c65aa548359631db2a4f0984e287ae76f2723b466a81a74614",
      "s": "0x6bd620244d6df5b55a2b9ad8f8db402fce90bc5650360d1b8269d159504fb761",
      "v": 27,
      "creates": null,
      "raw": "0xf86980850ba43b740083015f9094793ae8c1b1a160bfc07bfb0d04f85eab1a71f4f280843ba150361ba045706fad0f14c4c65aa548359631db2a4f0984e287ae76f2723b466a81a74614a06bd620244d6df5b55a2b9ad8f8db402fce90bc5650360d1b8269d159504fb761",
      "networkId": 0,
      "chainId": 0
    },
    {
      "hash": "0x5c6d1a8021853f57bc7594fe505aa2ca6b41b62717159a17f353a4cffcce71ea",
      "blockHash": "0xc91bb28852b03d0fc67b3fa9475c4aef289d8964a066d110ec54771990c83723",
      "blockNumber": 68655,
      "transactionIndex": 15,
      "confirmations": null,
      "from": "0xC8C731737A2824862DB9B6194Ad169De0F52c598",
      "gasPrice": {
        "_hex": "0xba43b7400"
      },
      "gasLimit": {
        "_hex": "0x15f90"
      },
      "to": "0x793AE8C1b1a160BFc07BFB0d04F85eab1A71F4f2",
      "value": {
        "_hex": "0x0"
      },
      "nonce": 0,
      "data": "0x3ba15036",
      "r": "0x8919d212b4369790607b81af3f9a905a4d5fd974590135a96a3621cbebef1aa6",
      "s": "0x022ea88df737596d9fa765ec48fd816aa52d032f646e81682abba2049ecf2841",
      "v": 27,
      "creates": null,
      "raw": "0xf86980850ba43b740083015f9094793ae8c1b1a160bfc07bfb0d04f85eab1a71f4f280843ba150361ba08919d212b4369790607b81af3f9a905a4d5fd974590135a96a3621cbebef1aa6a0022ea88df737596d9fa765ec48fd816aa52d032f646e81682abba2049ecf2841",
      "networkId": 0,
      "chainId": 0
    },
    {
      "hash": "0xec3ab5765069d0f6ee18aa3b2555cddad1616fba0a6fdbe0bf612a72f20af58a",
      "blockHash": "0xc91bb28852b03d0fc67b3fa9475c4aef289d8964a066d110ec54771990c83723",
      "blockNumber": 68655,
      "transactionIndex": 16,
      "confirmations": null,
      "from": "0x7A1c6178DFfBEB02e00Ae8DE2FCFb1c311Ad19A6",
      "gasPrice": {
        "_hex": "0xba43b7400"
      },
      "gasLimit": {
        "_hex": "0x15f90"
      },
      "to": "0x793AE8C1b1a160BFc07BFB0d04F85eab1A71F4f2",
      "value": {
        "_hex": "0x0"
      },
      "nonce": 0,
      "data": "0x3ba15036",
      "r": "0x56f2da1bc7f40f60bdba5e6bf7f2f4271ab47c5d2458a2820850e5e2c7d69176",
      "s": "0x2d31cade47bef8a17c0360bf5dcec27eac49e2c6d6fe18c0027cb8c6b1f9ec5c",
      "v": 28,
      "creates": null,
      "raw": "0xf86980850ba43b740083015f9094793ae8c1b1a160bfc07bfb0d04f85eab1a71f4f280843ba150361ca056f2da1bc7f40f60bdba5e6bf7f2f4271ab47c5d2458a2820850e5e2c7d69176a02d31cade47bef8a17c0360bf5dcec27eac49e2c6d6fe18c0027cb8c6b1f9ec5c",
      "networkId": 0,
      "chainId": 0
    },
    {
      "hash": "0xac384f6692579bbcced0053f198bc70e87d92835d6563845857a2b1201813b41",
      "blockHash": "0xc91bb28852b03d0fc67b3fa9475c4aef289d8964a066d110ec54771990c83723",
      "blockNumber": 68655,
      "transactionIndex": 17,
      "confirmations": null,
      "from": "0x3AA93Ddb27c17D1E8749BaB8a3eBE1b657120284",
      "gasPrice": {
        "_hex": "0xba43b7400"
      },
      "gasLimit": {
        "_hex": "0x15f90"
      },
      "to": "0x793AE8C1b1a160BFc07BFB0d04F85eab1A71F4f2",
      "value": {
        "_hex": "0x0"
      },
      "nonce": 0,
      "data": "0x3ba15036",
      "r": "0x08a097780ea4033d1aef24c8fe9de799ce90e51006fa50f37af015603da96eed",
      "s": "0x20f2d4ea9e05acd8160667916d391622e78cbf9041573782c416c64a8eed7333",
      "v": 28,
      "creates": null,
      "raw": "0xf86980850ba43b740083015f9094793ae8c1b1a160bfc07bfb0d04f85eab1a71f4f280843ba150361ca008a097780ea4033d1aef24c8fe9de799ce90e51006fa50f37af015603da96eeda020f2d4ea9e05acd8160667916d391622e78cbf9041573782c416c64a8eed7333",
      "networkId": 0,
      "chainId": 0
    },
    {
      "hash": "0x138948c7d0c1c395f2f79678e14ec1c22a8b5a838e6dbb5c9216e3ab41c2ac13",
      "blockHash": "0xc91bb28852b03d0fc67b3fa9475c4aef289d8964a066d110ec54771990c83723",
      "blockNumber": 68655,
      "transactionIndex": 18,
      "confirmations": null,
      "from": "0x1eF52E8A6f6FE661f1d0912Ed966E634E37B1284",
      "gasPrice": {
        "_hex": "0xba43b7400"
      },
      "gasLimit": {
        "_hex": "0x15f90"
      },
      "to": "0x793AE8C1b1a160BFc07BFB0d04F85eab1A71F4f2",
      "value": {
        "_hex": "0x0"
      },
      "nonce": 0,
      "data": "0x3ba15036",
      "r": "0x001c60021e732e7ecab8d5d4d0bfd9592c422e7b56bef409ec366985921769c3",
      "s": "0x7c262e104c9b6b9e4219930de306cf9a4fc1c7f52f2c22740863717dd0c1ce8b",
      "v": 27,
      "creates": null,
      "raw": "0xf86880850ba43b740083015f9094793ae8c1b1a160bfc07bfb0d04f85eab1a71f4f280843ba150361b9f1c60021e732e7ecab8d5d4d0bfd9592c422e7b56bef409ec366985921769c3a07c262e104c9b6b9e4219930de306cf9a4fc1c7f52f2c22740863717dd0c1ce8b",
      "networkId": 0,
      "chainId": 0
    },
    {
      "hash": "0xf34729699ca6a724c05a989d4235baa00e967c383f5c28a0dea27eb22a8d8c7f",
      "blockHash": "0xc91bb28852b03d0fc67b3fa9475c4aef289d8964a066d110ec54771990c83723",
      "blockNumber": 68655,
      "transactionIndex": 19,
      "confirmations": null,
      "from": "0xe5c24F0Eb8b884E180431f9bFd5418827605aEA0",
      "gasPrice": {
        "_hex": "0xba43b7400"
      },
      "gasLimit": {
        "_hex": "0x15f90"
      },
      "to": "0x793AE8C1b1a160BFc07BFB0d04F85eab1A71F4f2",
      "value": {
        "_hex": "0x0"
      },
      "nonce": 0,
      "data": "0x3ba15036",
      "r": "0x436c69be46f29201b069cff588de1be9dd2bbc96b369ee83347da85c29a475fe",
      "s": "0x6dd1114694f2d1ffe46ee20120c60fefa97d81a12f2fb90f9eccafd1ef0ae3ad",
      "v": 27,
      "creates": null,
      "raw": "0xf86980850ba43b740083015f9094793ae8c1b1a160bfc07bfb0d04f85eab1a71f4f280843ba150361ba0436c69be46f29201b069cff588de1be9dd2bbc96b369ee83347da85c29a475fea06dd1114694f2d1ffe46ee20120c60fefa97d81a12f2fb90f9eccafd1ef0ae3ad",
      "networkId": 0,
      "chainId": 0
    }
  ]
}