{
  "hash": "0xbb60282abff122814f70dacda845ba9faf5523463eaa3e83683663803e67f819",
  "parentHash": "0xfc47fa6ab47c413ae8bb80d95d94bd37f6e27add70cf44f4e9d73b60eee80591",
  "number": 120334,
  "timestamp": 1440158081,
  "nonce": "0xb829934d7f8c197e",
  "difficulty": 4428428251025,
  "gasLimit": {
    "_hex": "0x2fefd8"
  },
  "gasUsed": {
    "_hex": "0x5208"
  },
  "miner": "0x52bc44d5378309EE2abF1539BF71dE1b7d7bE3b5",
  "extraData": "0xd783010002844765746887676f312e342e32856c696e7578",
  "transactions": [
    {
      "hash": "0xa1be9dc6e512a59b2a11200e227ab252d530ed2aea3bdffc168441d5e316b890",
      "blockHash": "0xbb60282abff122814f70dacda845ba9faf5523463eaa3e83683663803e67f819",
      "blockNumber": 120334,
      "transactionIndex": 0,
      "confirmations": null,
      "from": "0x2910543Af39abA0Cd09dBb2D50200b3E800A63D2",
      "gasPrice": {
        "_hex": "0xcfb22e5ad"
      },
      "gasLimit": {
        "_hex": "0x5208"
      },
      "to": "0x548938756fCb5655A7523f66C01F1cd40aa620bE",
      "value": {
        "_hex": "0x56bb59ab42b2f8000"
      },
      "nonce": 1178,
      "data": "0x",
      "r": "0x5e5f9bd9368002c07a643b41526607e7be774b94bbaa7bf61c76b0d44ffe5123",
      "s": "0x1797353816ccff7d6e3e40310e7046cd7070866fd9e9d971ce19642955f2af37",
      "v": 28,
      "creates": null,
      "raw": "0xf86f82049a850cfb22e5ad82520894548938756fcb5655a7523f66c01f1cd40aa620be89056bb59ab42b2f8000801ca05e5f9bd9368002c07a643b41526607e7be774b94bbaa7bf61c76b0d44ffe5123a01797353816ccff7d6e3e40310e7046cd7070866fd9e9d971ce19642955f2af37",
      "networkId": 0,
      "chainId": 0
    }
  ]
}