{
  "hash": "0xa1ed5fdeccfd2e20be3e4838782959da66f018bee6e6286df300b651f97d1184",
  "parentHash": "0x7dc4d2054f0ee6041233ad1b2b26a1999d99b3c37ba7515c10ba0d5190bcfa10",
  "number": 50004,
  "timestamp": 1438982634,
  "nonce": "0x0e4ac5c8ac36c82e",
  "difficulty": 1495826098295,
  "gasLimit": {
    "_hex": "0x4a6ce"
  },
  "gasUsed": {
    "_hex": "0x546c"
  },
  "miner": "0xB7f5530DF01aeFE061dAbFA6E778eE694157A71f",
  "extraData": "0x476574682f76312e302e312f6c696e75782f676f312e342e32",
  "transactions": [
    {
      "hash": "0x594ac155fe26c61b75295cdd95bf63c285f25708f5c895c673f40b21c0f8150c",
      "blockHash": "0xa1ed5fdeccfd2e20be3e4838782959da66f018bee6e6286df300b651f97d1184",
      "blockNumber": 50004,
      "transactionIndex": 0,
      "confirmations": null,
      "from": "0x2F85B3bF062769b2A2672200aFb21e3F4067a86d",
      "gasPrice": {
        "_hex": "0xdbe8eac23"
      },
      "gasLimit": {
        "_hex": "0x15f90"
      },
      "to": "0x2910543Af39abA0Cd09dBb2D50200b3E800A63D2",
      "value": {
        "_hex": "0x10a741a46278000000"
      },
      "nonce": 1,
      "data": "0x454e48554550384530",
      "r": "0xd102a32da85e7cf8d4eb866884653bc6b13ed2ae5c441f5f7080822ad49d31a5",
      "s": "0x00acff2930cf6581d4ba37313107a81531e0f43f266c869f90f83cf6f2324bb1",
      "v": 27,
      "creates": null,
      "raw": "0xf87601850dbe8eac2383015f90942910543af39aba0cd09dbb2d50200b3e800a63d28910a741a4627800000089454e485545503845301ba0d102a32da85e7cf8d4eb866884653bc6b13ed2ae5c441f5f7080822ad49d31a59facff2930cf6581d4ba37313107a81531e0f43f266c869f90f83cf6f2324bb1",
      "networkId": 0,
      "chainId": 0
    }
  ]
}