{
  "hash": "0x49d50eb8adcf59a272163eefd8164b9e4892bdbdf9876cb3c47665d05dd43498",
  "parentHash": "0xa0820094bbedfbb11984ccfb73435c1d9e75edf2d8e47a57d9cb7e7c1f76a2a8",
  "number": 106488,
  "timestamp": 1439905065,
  "nonce": "0x698e20ad1044dd75",
  "difficulty": 4496805125839,
  "gasLimit": {
    "_hex": "0x2fefd8"
  },
  "gasUsed": {
    "_hex": "0x5208"
  },
  "miner": "0x623d2411c3bb3340784155F9a688b0085251aB5c",
  "extraData": "0x",
  "transactions": [
    {
      "hash": "0xe024de189563c2229a7604d3459c10a36bccd1f742727b09f20720e166facee7",
      "blockHash": "0x49d50eb8adcf59a272163eefd8164b9e4892bdbdf9876cb3c47665d05dd43498",
      "blockNumber": 106488,
      "transactionIndex": 0,
      "confirmations": null,
      "from": "0x79272Cd2A392C13Ba9eB01208f882E83E93e8E96",
      "gasPrice": {
        "_hex": "0xdd6359004"
      },
      "gasLimit": {
        "_hex": "0x5208"
      },
      "to": "0x32Be343B94f860124dC4fEe278FDCBD38C102D88",
      "value": {
        "_hex": "0x3cc1601f13e722000"
      },
      "nonce": 0,
      "data": "0x",
      "r": "0xd80b7d601a9ad12b23d083002110e75b24f27133955358dc6b540574ca945ac7",
      "s": "0x787939fb365daecabf3330a2d910148f70d8bce7f1b88e9e1037816e6f372865",
      "v": 27,
      "creates": null,
      "raw": "0xf86d80850dd63590048252089432be343b94f860124dc4fee278fdcbd38c102d888903cc1601f13e722000801ba0d80b7d601a9ad12b23d083002110e75b24f27133955358dc6b540574ca945ac7a0787939fb365daecabf3330a2d910148f70d8bce7f1b88e9e1037816e6f372865",
      "networkId": 0,
      "chainId": 0
    }
  ]
}