{
  "hash": "0x14af44ccfcb71b2e5289781b9f84691ae4198bc8c1582788dc710ffbb19f98b8",
  "parentHash": "0x82ee447c9ebca0c116f8020b30893e01b61677e7978cf8b9a218d08df1ec1e22",
  "number": 62428,
  "timestamp": 1439188542,
  "nonce": "0x5fa9457d287a8325",
  "difficulty": 1768519750947,
  "gasLimit": {
    "_hex": "0x2fefd8"
  },
  "gasUsed": {
    "_hex": "0x2a34"
  },
  "miner": "0xf927a40C8B7F6E07c5af7FA2155B4864a4112B13",
  "extraData": "0x476574682f76312e302e312f6c696e75782f676f312e342e32",
  "transactions": [
    {
      "hash": "0x8a584651ab4009c47768be9971a456a085f69b7efe251f9e748bb24720fa7e26",
      "blockHash": "0x14af44ccfcb71b2e5289781b9f84691ae4198bc8c1582788dc710ffbb19f98b8",
      "blockNumber": 62428,
      "transactionIndex": 0,
      "confirmations": null,
      "from": "0xE2beA3e7d349ab64EBD9873418e78912e13CD35f",
      "gasPrice": {
        "_hex": "0xd2635840f"
      },
      "gasLimit": {
        "_hex": "0x15f90"
      },
      "to": "0x8B9a77eA50493eea6bA980f74dd66ff633172917",
      "value": {
        "_hex": "0x0"
      },
      "nonce": 17,
      "data": "0x41c0e1b5",
      "r": "0x7bc5b455ad96aaef421a935bfb6591e39915bd9d99823d7108e35ee388c80e9d",
      "s": "0x725b34208189562a1b0553dff5cb8de3acbba9b0c78c794b30f7c3f125053b53",
      "v": 28,
      "creates": null,
      "raw": "0xf86911850d2635840f83015f90948b9a77ea50493eea6ba980f74dd66ff633172917808441c0e1b51ca07bc5b455ad96aaef421a935bfb6591e39915bd9d99823d7108e35ee388c80e9da0725b34208189562a1b0553dff5cb8de3acbba9b0c78c794b30f7c3f125053b53",
      "networkId": 0,
      "chainId": 0
    }
  ]
}