{
  "hash": "0x9f79b316baf6ff1729c5babb742ecfaf6f0d82195d44a1a633718a1f26ab7ee6",
  "parentHash": "0x14ef8604e47d3a0f9eaace0f681363cdb2366ac87d4863d3f444aebf633ead78",
  "number": 69415,
  "timestamp": 1439303868,
  "nonce": "0xdfbbf931b9ac46f0",
  "difficulty": 2052815648756,
  "gasLimit": {
    "_hex": "0x2fefd8"
  },
  "gasUsed": {
    "_hex": "0x5208"
  },
  "miner": "0x9746c7e1ef2bd21FF3997fa467593a89cb852BD0",
  "extraData": "0x476574682f76312e302e312f77696e646f77732f676f312e342e32",
  "transactions": [
    {
      "hash": "0x8b98916b257780b64d89070110b487e53dc288519b46ce357e9ebbf9d5d58cbf",
      "blockHash": "0x9f79b316baf6ff1729c5babb742ecfaf6f0d82195d44a1a633718a1f26ab7ee6",
      "blockNumber": 69415,
      "transactionIndex": 0,
      "confirmations": null,
      "from": "0x8bae48F227d978d084B009b775222BAaF61ed9fe",
      "gasPrice": {
        "_hex": "0xba43b7400"
      },
      "gasLimit": {
        "_hex": "0x5267"
      },
      "to": "0x000Df160997ba9420e4622996b05447871848834",
      "value": {
        "_hex": "0x3e8"
      },
      "nonce": 16,
      "data": "0x",
      "r": "0x341960e3e3cdeb7f1b1080ea8ac0b2a4c76ea967c273a2877db5790f0936f095",
      "s": "0x0db55d7b9e6766df729d50f6ce587284c745968a593e1bce69c8f0c44bae8d24",
      "v": 27,
      "creates": null,
      "raw": "0xf86610850ba43b740082526794000df160997ba9420e4622996b054478718488348203e8801ba0341960e3e3cdeb7f1b1080ea8ac0b2a4c76ea967c273a2877db5790f0936f095a00db55d7b9e6766df729d50f6ce587284c745968a593e1bce69c8f0c44bae8d24",
      "networkId": 0,
      "chainId": 0
    }
  ]
}