{
  "hash": "0x6f3b762aae5ed410726ad4f4fac52e1dd23345881415b67637023d1ae0d0a048",
  "parentHash": "0xe20022f5327dbb7a4892cb54d6092ff66b0d8170530d6afd15624c8ff8af0499",
  "number": 90089,
  "timestamp": 1439634206,
  "nonce": "0x3a5c8a553d52d28e",
  "difficulty": 3327094516965,
  "gasLimit": {
    "_hex": "0x2fefd8"
  },
  "gasUsed": {
    "_hex": "0x5208"
  },
  "miner": "0xe6A7a1d47ff21B6321162AEA7C6CB457D5476Bca",
  "extraData": "0x476574682f76312e302e312d38326566323666362f6c696e75782f676f312e34",
  "transactions": [
    {
      "hash": "0xe9bf8875bb512c76038506573e9012c07bec1266c27d57000e2b03a371ec43cf",
      "blockHash": "0x6f3b762aae5ed410726ad4f4fac52e1dd23345881415b67637023d1ae0d0a048",
      "blockNumber": 90089,
      "transactionIndex": 0,
      "confirmations": null,
      "from": "0x2910543Af39abA0Cd09dBb2D50200b3E800A63D2",
      "gasPrice": {
        "_hex": "0xdea73ee6a"
      },
      "gasLimit": {
        "_hex": "0x5208"
      },
      "to": "0x393bDab930c8C8Ca9411C1f00026391edB284Ac9",
      "value": {
        "_hex": "0x5817669e29f645f8000"
      },
      "nonce": 775,
      "data": "0x",
      "r": "0xe0d918a43f813efb552dd35f2dec4303f0b3b1dfe6997a053378c7598f97de27",
      "s": "0x4c70acf4354190682744b2ac9d527718d07398ed14e5f8e9bef64971e3791647",
      "v": 27,
      "creates": null,
      "raw": "0xf870820307850dea73ee6a82520894393bdab930c8c8ca9411c1f00026391edb284ac98a05817669e29f645f8000801ba0e0d918a43f813efb552dd35f2dec4303f0b3b1dfe6997a053378c7598f97de27a04c70acf4354190682744b2ac9d527718d07398ed14e5f8e9bef64971e3791647",
      "networkId": 0,
      "chainId": 0
    }
  ]
}