{
  "hash": "0xe28b0a16d8af8eaec17c4a18c2c81cccad986174786ead5646ed079f91f643ab",
  "parentHash": "0xcabb5cc391a4b515932647e39919b729d992fce5307ae9de0f2d389048d7b24b",
  "number": 52621,
  "timestamp": 1439024595,
  "nonce": "0x7a5d1a84ce5b23ef",
  "difficulty": 1567888708327,
  "gasLimit": {
    "_hex": "0x1673e3"
  },
  "gasUsed": {
    "_hex": "0x105798"
  },
  "miner": "0x0eDEd3DA479d0beF8eeC92A76644D3f4E3C177f7",
  "extraData": "0x476574682f76312e302e312f6c696e75782f676f312e342e32",
  "transactions": [
    {
      "hash": "0xa6f92d7f97fd09bad283780bd5624a113fe6ded042a3cda37c9156f35ab27163",
      "blockHash": "0xe28b0a16d8af8eaec17c4a18c2c81cccad986174786ead5646ed079f91f643ab",
      "blockNumber": 52621,
      "transactionIndex": 0,
      "confirmations": null,
      "from": "0x54dAeb3E8a6BBC797E4aD2b0339f134b186e4637",
      "gasPrice": {
        "_hex": "0xdc89443da"
      },
      "gasLimit": {
        "_hex": "0x5208"
      },
      "to": "0x54dAeb3E8a6BBC797E4aD2b0339f134b186e4637",
      "value": {
        "_hex": "0x0"
      },
      "nonce": 805,
      "data": "0x",
      "r": "0xaa81fbcbacd7009fce52ea33734569a1a60a019680b89db20b88435b51c0b0a6",
      "s": "0x47454baf3ed7e62d5999ff211f17e241b70b09522d7bb201c3d56c91727af4cd",
      "v": 27,
      "creates": null,
      "raw": "0xf866820325850dc89443da8252089454daeb3e8a6bbc797e4ad2b0339f134b186e463780801ba0aa81fbcbacd7009fce52ea33734569a1a60a019680b89db20b88435b51c0b0a6a047454baf3ed7e62d5999ff211f17e241b70b09522d7bb201c3d56c91727af4cd",
      "networkId": 0,
      "chainId": 0
    },
    {
      "hash": "0xde92196427da3a30f9855c2663cd773628e836de61a7a484dda16eb4e8944080",
      "blockHash": "0xe28b0a16d8af8eaec17c4a18c2c81cccad986174786ead5646ed079f91f643ab",
      "blockNumber": 52621,
      "transactionIndex": 1,
      "confirmations": null,
      "from": "0x54dAeb3E8a6BBC797E4aD2b0339f134b186e4637",
      "gasPrice": {
        "_hex": "0xd8bd64e50"
      },
      "gasLimit": {
        "_hex": "0x7a120"
      },
      "to": "0xBAA54d6E90c3F4d7Ebec11bD180134C7eD8eBb52",
      "value": {
        "_hex": "0x16345785d8a0000"
      },
      "nonce": 806,
      "data": "0x",
      "r": "0xaaa3f1728fd183259d3558639f6b1f38d096311bcc7c0df1bba7069983833693",
      "s": "0x2f9bfc0bab6949368d947b3c4d9f4ebf7c112cf494a4362bd31da750ae3e57b9",
      "v": 27,
      "creates": null,
      "raw": "0xf86f820326850d8bd64e508307a12094baa54d6e90c3f4d7ebec11bd180134c7ed8ebb5288016345785d8a0000801ba0aaa3f1728fd183259d3558639f6b1f38d096311bcc7c0df1bba7069983833693a02f9bfc0bab6949368d947b3c4d9f4ebf7c112cf494a4362bd31da750ae3e57b9",
      "networkId": 0,
      "chainId": 0
    },
    {
      "hash": "0x59ab6804191437fb4d8a64c0949587e76ad7a188403fcd34be316391af30bc9d",
      "blockHash": "0xe28b0a16d8af8eaec17c4a18c2c81cccad986174786ead5646ed079f91f643ab",
      "blockNumber": 52621,
      "transactionIndex": 2,
      "confirmations": null,
      "from": "0x54dAeb3E8a6BBC797E4aD2b0339f134b186e4637",
      "gasPrice": {
        "_hex": "0xd8bd64e50"
      },
      "gasLimit": {
        "_hex": "0x7a120"
      },
      "to": "0xBAA54d6E90c3F4d7Ebec11bD180134C7eD8eBb52",
      "value": {
        "_hex": "0x16345785d8a0000"
      },
      "nonce": 807,
      "data": "0x",
      "r": "0x3a300d27ccf9d34c2cc7549fe7b33a481bc32891af05ed1c6e9e09636db62804",
      "s": "0x6d914592733581970403b3e6627f2f3226c3f908bc21168a7dd68a4199d75218",
      "v": 27,
      "creates": null,
      "raw": "0xf86f820327850d8bd64e508307a12094baa54d6e90c3f4d7ebec11bd180134c7ed8ebb5288016345785d8a0000801ba03a300d27ccf9d34c2cc7549fe7b33a481bc32891af05ed1c6e9e09636db62804a06d914592733581970403b3e6627f2f3226c3f908bc21168a7dd68a4199d75218",
      "networkId": 0,
      "chainId": 0
    },
    {
      "hash": "0xcde67d08ffc70fbddda5d4ad86990943d1b2ab6be472b5d1e71ccd3f96b9c8f7",
      "blockHash": "0xe28b0a16d8af8eaec17c4a18c2c81cccad986174786ead5646ed079f91f643ab",
      "blockNumber": 52621,
      "transactionIndex": 3,
      "confirmations": null,
      "from": "0xdFEa98c36ccCe9785DAFd1932E128d53621DA69b",
      "gasPrice": {
        "_hex": "0xd15fa7226"
      },
      "gasLimit": {
        "_hex": "0xc350"
      },
      "to": "0x109C4f2CCc82C4d77Bde15F306707320294Aea3F",
      "value": {
        "_hex": "0xde0b6b3a7640000"
      },
      "nonce": 0,
      "data": "0x",
      "r": "0x2ede646e13d4e25ef988fb2a4a53708886bf989f1ef4bf1e96a6b176eb6e7c53",
      "s": "0x3a74bcef22c3ac47ed5eaa3db004c33a401ad0e3adafbae43b46b107ba5e7cb8",
      "v": 28,
      "creates": null,
      "raw": "0xf86c80850d15fa722682c35094109c4f2ccc82c4d77bde15f306707320294aea3f880de0b6b3a7640000801ca02ede646e13d4e25ef988fb2a4a53708886bf989f1ef4bf1e96a6b176eb6e7c53a03a74bcef22c3ac47ed5eaa3db004c33a401ad0e3adafbae43b46b107ba5e7cb8",
      "networkId": 0,
      "chainId": 0
    }
  ]
}