{
  "hash": "0xbb3e3d56a7b4677b9a2d8a7ff2b898eadb732f28c91ac105b8fe44b962a211e3",
  "parentHash": "0x66032f029820bc496a0539c0bcc3c2a15e3b84a25d57359827d3753491735e1f",
  "number": 81361,
  "timestamp": 1439500380,
  "nonce": "0xed56e6effab691e4",
  "difficulty": 2453402355746,
  "gasLimit": {
    "_hex": "0x2fefd8"
  },
  "gasUsed": {
    "_hex": "0x546c"
  },
  "miner": "0xF2d2AfF1320476cb8C6b607199D23175cc595693",
  "extraData": "0x476574682f76312e302e312f77696e646f77732f676f312e342e32",
  "transactions": [
    {
      "hash": "0xba80349f3fd8cd7ee881349b6334aa3dc8e7a175a4b41611c95a4c6f0864dccc",
      "blockHash": "0xbb3e3d56a7b4677b9a2d8a7ff2b898eadb732f28c91ac105b8fe44b962a211e3",
      "blockNumber": 81361,
      "transactionIndex": 0,
      "confirmations": null,
      "from": "0xa914cDb571BFd93D64da66a4e108EA134e50D000",
      "gasPrice": {
        "_hex": "0x9184e72a000"
      },
      "gasLimit": {
        "_hex": "0x55f0"
      },
      "to": "0x2910543Af39abA0Cd09dBb2D50200b3E800A63D2",
      "value": {
        "_hex": "0x16345785d8a0000"
      },
      "nonce": 21,
      "data": "0x454e43523838455252",
      "r": "0x5a55b3d75ee6306e6eae2a772017f8bbadcfee6ec98ba8902ae83a0d3aae3d8e",
      "s": "0x56b3fc92bd620dea504e531c4f42afc7021a5c3b3a741bc53e5e64e34f5d532f",
      "v": 27,
      "creates": null,
      "raw": "0xf876158609184e72a0008255f0942910543af39aba0cd09dbb2d50200b3e800a63d288016345785d8a000089454e435238384552521ba05a55b3d75ee6306e6eae2a772017f8bbadcfee6ec98ba8902ae83a0d3aae3d8ea056b3fc92bd620dea504e531c4f42afc7021a5c3b3a741bc53e5e64e34f5d532f",
      "networkId": 0,
      "chainId": 0
    }
  ]
}