{
  "hash": "0xfc28741995c64fe26ca993b42ccf84f72cbd4f9588dd31905cf5b8c32077acf5",
  "parentHash": "0x964df275bee96dfd9cb4855ed30c455961515e243de5a5ec676c836ec31ba9f7",
  "number": 47441,
  "timestamp": 1438940411,
  "nonce": "0x0252b526cc0110be",
  "difficulty": 1450955696868,
  "gasLimit": {
    "_hex": "0xbe4f"
  },
  "gasUsed": {
    "_hex": "0x5208"
  },
  "miner": "0x400fb5A6482E54E44b2250E75251707514c605C1",
  "extraData": "0x476574682f76312e302e312f77696e646f77732f676f312e342e32",
  "transactions": [
    {
      "hash": "0x824b5c44d55e7a50f6f57600059dae63418586a011eec52301e96fa8fcd6c16b",
      "blockHash": "0xfc28741995c64fe26ca993b42ccf84f72cbd4f9588dd31905cf5b8c32077acf5",
      "blockNumber": 47441,
      "transactionIndex": 0,
      "confirmations": null,
      "from": "0x3B7Ce4d16316f594a3c5ebB7CCc4c022FC2858c6",
      "gasPrice": {
        "_hex": "0x746a528800"
      },
      "gasLimit": {
        "_hex": "0x5b04"
      },
      "to": "0x0000000000000000000000000000000000000000",
      "value": {
        "_hex": "0xde0b6b3a7640000"
      },
      "nonce": 0,
      "data": "0x",
      "r": "0x73ae3f59065ebb3a1169e8214500179425d6422056e23b5286fee23167ac2af4",
      "s": "0x28de347f7b784286130370109a951c8db8303df81dfe6b990e02547e9710093f",
      "v": 28,
      "creates": null,
      "raw": "0xf86c8085746a528800825b04940000000000000000000000000000000000000000880de0b6b3a7640000801ca073ae3f59065ebb3a1169e8214500179425d6422056e23b5286fee23167ac2af4a028de347f7b784286130370109a951c8db8303df81dfe6b990e02547e9710093f",
      "networkId": 0,
      "chainId": 0
    }
  ]
}