{
  "hash": "0x76fa6b673e10e7b58fcad93e9472c5207cd1d0b252b6b295b75ffcd9c5f751e9",
  "parentHash": "0x0d84ab9a03d307a89d64ceb2ca00036c6ec14eb823f15c441c77d95f0cd5286f",
  "number": 103760,
  "timestamp": 1439858482,
  "nonce": "0xbae574656e3480e0",
  "difficulty": 4225731452235,
  "gasLimit": {
    "_hex": "0x2fefd8"
  },
  "gasUsed": {
    "_hex": "0x1bdbe"
  },
  "miner": "0xe6A7a1d47ff21B6321162AEA7C6CB457D5476Bca",
  "extraData": "0x476574682f76312e302e312d38326566323666362f6c696e75782f676f312e34",
  "transactions": [
    {
      "hash": "0xf27377871272059582ddf2208920a97fbfb2309abe841c239a63798e42c5ffc7",
      "blockHash": "0x76fa6b673e10e7b58fcad93e9472c5207cd1d0b252b6b295b75ffcd9c5f751e9",
      "blockNumber": 103760,
      "transactionIndex": 0,
      "confirmations": null,
      "from": "0x75804aAC64B4199083982902994D9C5Ed8828f11",
      "gasPrice": {
        "_hex": "0xd651435ca"
      },
      "gasLimit": {
        "_hex": "0x249f0"
      },
      "to": "0xE28e72FCf78647ADCe1F1252F240bbfaebD63BcC",
      "value": {
        "_hex": "0x2b5e3af16b1880000"
      },
      "nonce": 0,
      "data": "0x45466f3a",
      "r": "0x27c380386198ef8bbe5a3dfae98358a74611be981d075cccc293290eff0595e4",
      "s": "0x0ab31ca866527d146192566aff2b4c3dda7d23564e5d56b0c55f18a7b0991256",
      "v": 27,
      "creates": null,
      "raw": "0xf87280850d651435ca830249f094e28e72fcf78647adce1f1252f240bbfaebd63bcc8902b5e3af16b18800008445466f3a1ba027c380386198ef8bbe5a3dfae98358a74611be981d075cccc293290eff0595e4a00ab31ca866527d146192566aff2b4c3dda7d23564e5d56b0c55f18a7b0991256",
      "networkId": 0,
      "chainId": 0
    }
  ]
}