{
  "hash": "0x26be833d9cecf1909969d1dac406c0fe039ccd865b1e4928f5e60f0ee8a851f9",
  "parentHash": "0x5ca817a0c4c1157fa87bca3b18a8900a1b37a213c4bf643e33c4893f82d1051c",
  "number": 67622,
  "timestamp": 1439274825,
  "nonce": "0x22005a27ba78114f",
  "difficulty": 1933568929921,
  "gasLimit": {
    "_hex": "0x2fefd8"
  },
  "gasUsed": {
    "_hex": "0x5208"
  },
  "miner": "0xe6A7a1d47ff21B6321162AEA7C6CB457D5476Bca",
  "extraData": "0x476574682f76312e302e312f6c696e75782f676f312e342e32",
  "transactions": [
    {
      "hash": "0x9a7a9f19b9a5af0740f5f03854f8de0757338e5f6725a180c9847f3f4319fb92",
      "blockHash": "0x26be833d9cecf1909969d1dac406c0fe039ccd865b1e4928f5e60f0ee8a851f9",
      "blockNumber": 67622,
      "transactionIndex": 0,
      "confirmations": null,
      "from": "0x01Ad0ACFf478127D9d702B1A13599D706cB759b1",
      "gasPrice": {
        "_hex": "0xd2024b689"
      },
      "gasLimit": {
        "_hex": "0x5208"
      },
      "to": "0x32Be343B94f860124dC4fEe278FDCBD38C102D88",
      "value": {
        "_hex": "0x455f5ccdb63c5c00"
      },
      "nonce": 8,
      "data": "0x",
      "r": "0xfdc0540a902928eb8ccfd118837a13e070690350c626722cb7c9aeaf8757c960",
      "s": "0x7a78f2a72c7af2ef1804ff66640102fb3430392b14d4783ca2af5a2c91ea676f",
      "v": 28,
      "creates": null,
      "raw": "0xf86c08850d2024b6898252089432be343b94f860124dc4fee278fdcbd38c102d8888455f5ccdb63c5c00801ca0fdc0540a902928eb8ccfd118837a13e070690350c626722cb7c9aeaf8757c960a07a78f2a72c7af2ef1804ff66640102fb3430392b14d4783ca2af5a2c91ea676f",
      "networkId": 0,
      "chainId": 0
    }
  ]
}