{
  "hash": "0xf2c65c32a4a991ac936efac070954cbab412f382a584c690a25213200ecfc11b",
  "parentHash": "0xa99fc4094b94f3cafadb3b34415435645bc5deaf10023733f474d49455a0e45e",
  "number": 48295,
  "timestamp": 1438954827,
  "nonce": "0x3011cf2d3935f70b",
  "difficulty": 1456486292585,
  "gasLimit": {
    "_hex": "0x15337"
  },
  "gasUsed": {
    "_hex": "0x546c"
  },
  "miner": "0x0193d941b50d91BE6567c7eE1C0Fe7AF498b4137",
  "extraData": "0x4a5ace9e4e",
  "transactions": [
    {
      "hash": "0x45a5c8ef2d783bd9dc2b3d70270466b320732756cb8860e9e2d031b3e389f4fd",
      "blockHash": "0xf2c65c32a4a991ac936efac070954cbab412f382a584c690a25213200ecfc11b",
      "blockNumber": 48295,
      "transactionIndex": 0,
      "confirmations": null,
      "from": "0xdd2F1e6e498202e86D8f5442Af596580A4f03c2C",
      "gasPrice": {
        "_hex": "0xd02d96ddf"
      },
      "gasLimit": {
        "_hex": "0x55f0"
      },
      "to": "0x2910543Af39abA0Cd09dBb2D50200b3E800A63D2",
      "value": {
        "_hex": "0xde0b6b3a7640000"
      },
      "nonce": 1,
      "data": "0x454e3756465a343052",
      "r": "0xd60e47106b6a9b4e31d1c8851b2ef97aef010b670b9048fb8dd85465ab8e04e2",
      "s": "0x40921411237a5651759a828c7de6ad44e308b1a736b5d80a64dc7e757b20cf8a",
      "v": 28,
      "creates": null,
      "raw": "0xf87501850d02d96ddf8255f0942910543af39aba0cd09dbb2d50200b3e800a63d2880de0b6b3a764000089454e3756465a3430521ca0d60e47106b6a9b4e31d1c8851b2ef97aef010b670b9048fb8dd85465ab8e04e2a040921411237a5651759a828c7de6ad44e308b1a736b5d80a64dc7e757b20cf8a",
      "networkId": 0,
      "chainId": 0
    }
  ]
}