{
  "hash": "0xc939b5580f3a75be745db8d799f37e4b8c26962aabf02fbef908e9a7c9fd37f5",
  "parentHash": "0x52b1d45e47b48f8dbebbf354ce0fece7c42364d31b024ad6a3f5b2451fecd56b",
  "number": 98504,
  "timestamp": 1439773942,
  "nonce": "0x80dfd5f86c3b6063",
  "difficulty": 3865052160683,
  "gasLimit": {
    "_hex": "0x2fefd8"
  },
  "gasUsed": {
    "_hex": "0x546c"
  },
  "miner": "0xe6A7a1d47ff21B6321162AEA7C6CB457D5476Bca",
  "extraData": "0x476574682f76312e302e312d38326566323666362f6c696e75782f676f312e34",
  "transactions": [
    {
      "hash": "0x89a7a64aaf04e45b626179740ee679181aff7f19aa6611bc24a37647c532b900",
      "blockHash": "0xc939b5580f3a75be745db8d799f37e4b8c26962aabf02fbef908e9a7c9fd37f5",
      "blockNumber": 98504,
      "transactionIndex": 0,
      "confirmations": null,
      "from": "0xB3A6Bd41f9d9C3201e050b87198FBdA399342210",
      "gasPrice": {
        "_hex": "0x110c8f7d8de"
      },
      "gasLimit": {
        "_hex": "0xc350"
      },
      "to": "0x2910543Af39abA0Cd09dBb2D50200b3E800A63D2",
      "value": {
        "_hex": "0xbe70ab27540b440000"
      },
      "nonce": 1,
      "data": "0x454e504647514d3138",
      "r": "0x9fbc8b7ca9b25124c5dd7852d5b92a7068d84b5c971516640058319a6c76fccf",
      "s": "0x6a75dfdbc1c13fa969ffe6a2ad0f0053688e54d7f8bf7523c297cf37f43059bb",
      "v": 27,
      "creates": null,
      "raw": "0xf87701860110c8f7d8de82c350942910543af39aba0cd09dbb2d50200b3e800a63d289be70ab27540b44000089454e504647514d31381ba09fbc8b7ca9b25124c5dd7852d5b92a7068d84b5c971516640058319a6c76fccfa06a75dfdbc1c13fa969ffe6a2ad0f0053688e54d7f8bf7523c297cf37f43059bb",
      "networkId": 0,
      "chainId": 0
    }
  ]
}