{
  "hash": "0xa63feca64273b16a87023b719f6942f05ee82022333753f0911c2d2c52719840",
  "parentHash": "0x10564029618870e164b2bb88083accb9474b608b50a7a84605e41f9ebb17230e",
  "number": 59934,
  "timestamp": 1439146196,
  "nonce": "0x081bfea6bb77d863",
  "difficulty": 1733135839497,
  "gasLimit": {
    "_hex": "0x2fefd8"
  },
  "gasUsed": {
    "_hex": "0x5208"
  },
  "miner": "0x3DfCf2bF579C831a03379a140b74f884e49CaFf3",
  "extraData": "0x",
  "transactions": [
    {
      "hash": "0x0d54d151615769fe682ccc30c33f19a14a0e4c6c86eb9e2dc5015ee330e4af0d",
      "blockHash": "0xa63feca64273b16a87023b719f6942f05ee82022333753f0911c2d2c52719840",
      "blockNumber": 59934,
      "transactionIndex": 0,
      "confirmations": null,
      "from": "0x8155Fa6c51Eb31D808412d748aA086105018122f",
      "gasPrice": {
        "_hex": "0xd3d37f23a"
      },
      "gasLimit": {
        "_hex": "0x15f90"
      },
      "to": "0xc955d372Fe1c428D17CD86E05d26F0206F3677b1",
      "value": {
        "_hex": "0xde0b6b3a7640000"
      },
      "nonce": 0,
      "data": "0x",
      "r": "0x410f2fd8364f1d921a9e31b90c6f6589cc6a039dd8d6e77fe3c079eb3a71332f",
      "s": "0x582bb54f3ab9742fa849aed625458f084a9d7070c0b15cee80b78dae7791a768",
      "v": 27,
      "creates": null,
      "raw": "0xf86d80850d3d37f23a83015f9094c955d372fe1c428d17cd86e05d26f0206f3677b1880de0b6b3a7640000801ba0410f2fd8364f1d921a9e31b90c6f6589cc6a039dd8d6e77fe3c079eb3a71332fa0582bb54f3ab9742fa849aed625458f084a9d7070c0b15cee80b78dae7791a768",
      "networkId": 0,
      "chainId": 0
    }
  ]
}