{
  "hash": "0x765f8ef916d84e5b7a4c657f3c1d929d590db0f73159d0b126b9286efa2232d5",
  "parentHash": "0x15999af219753b3a9186b8f38133d7f2074194290edf3bc3003219929cb5ab11",
  "number": 77100,
  "timestamp": 1439431412,
  "nonce": "0x5fd0e74594e9d273",
  "difficulty": 2240446390989,
  "gasLimit": {
    "_hex": "0x2fefd8"
  },
  "gasUsed": {
    "_hex": "0x17145"
  },
  "miner": "0xf8E0CA3Ed80bd541b94BEdCf259e8CF2141A9523",
  "extraData": "0x476574682f76312e302e312f77696e646f77732f676f312e342e32",
  "transactions": [
    {
      "hash": "0x258fe8d6b722cc47a63e8c0f1ee15ae7a77f492c7509b652cbef0148264f48a1",
      "blockHash": "0x765f8ef916d84e5b7a4c657f3c1d929d590db0f73159d0b126b9286efa2232d5",
      "blockNumber": 77100,
      "transactionIndex": 0,
      "confirmations": null,
      "from": "0x77b97786B0FB73e55d9E92d4B182beFBF346F979",
      "gasPrice": {
        "_hex": "0xcbf206e4e"
      },
      "gasLimit": {
        "_hex": "0x493e0"
      },
      "to": "0xA236078f02627205B2E3bDeA8dBA2e9D150113D3",
      "value": {
        "_hex": "0x2386f26fc10000"
      },
      "nonce": 7,
      "data": "0x3f887fad000000000000000000000008391d75f1df680814c1d8b7987f8af3caea24e3060000000000000000000000000000000000000000000000000000000000000001000000000000000000000000000000000000000000000000002386f26fc100000000000000000000000000000000000000000000000000000000000000000000",
      "r": "0x3c09350b02318b5a196a346fc035301e05071432915af7eb69c124553e8af7fc",
      "s": "0x2a14640406bbf3453137e606940bf82745132ddb30e95c97f31626b9f65943f0",
      "v": 28,
      "creates": null,
      "raw": "0xf8f107850cbf206e4e830493e094a236078f02627205b2e3bdea8dba2e9d150113d3872386f26fc10000b8843f887fad000000000000000000000008391d75f1df680814c1d8b7987f8af3caea24e3060000000000000000000000000000000000000000000000000000000000000001000000000000000000000000000000000000000000000000002386f26fc1000000000000000000000000000000000000000000000000000000000000000000001ca03c09350b02318b5a196a346fc035301e05071432915af7eb69c124553e8af7fca02a14640406bbf3453137e606940bf82745132ddb30e95c97f31626b9f65943f0",
      "networkId": 0,
      "chainId": 0
    }
  ]
}