{
  "hash": "0x10bdd56816f848baab8c2efe4854d76ffb295eb1d640b65392fe37f877faa03f",
  "parentHash": "0xca37a2e197d553e14217c3428e084002a59f7d95e6a83a21613594de2da00475",
  "number": 110405,
  "timestamp": 1439973228,
  "nonce": "0x2292223456227354",
  "difficulty": 4384159292821,
  "gasLimit": {
    "_hex": "0x2fefd8"
  },
  "gasUsed": {
    "_hex": "0x5208"
  },
  "miner": "0xe6A7a1d47ff21B6321162AEA7C6CB457D5476Bca",
  "extraData": "0x476574682f76312e302e312d38326566323666362f6c696e75782f676f312e34",
  "transactions": [
    {
      "hash": "0x0e99cf2d6d1e71d54dd1929f7d0b93ce22c4872cebae78c387324dc81d5e4f5f",
      "blockHash": "0x10bdd56816f848baab8c2efe4854d76ffb295eb1d640b65392fe37f877faa03f",
      "blockNumber": 110405,
      "transactionIndex": 0,
      "confirmations": null,
      "from": "0xa6BDc31c431B8F97848c9D60cbbe9660dc450eB7",
      "gasPrice": {
        "_hex": "0xdcd46db6b"
      },
      "gasLimit": {
        "_hex": "0x5208"
      },
      "to": "0x32Be343B94f860124dC4fEe278FDCBD38C102D88",
      "value": {
        "_hex": "0x4585b78472416800"
      },
      "nonce": 193,
      "data": "0x",
      "r": "0xa7c33240d669d33a0cd99b52df09916fb7cd78f1dda0c63e8b4a4725e3e08d98",
      "s": "0x3cce7c0d8d6e86c0daa002483611ea0ea9ff8d86b3d4d40a76140fc0a0bc07f6",
      "v": 28,
      "creates": null,
      "raw": "0xf86d81c1850dcd46db6b8252089432be343b94f860124dc4fee278fdcbd38c102d88884585b78472416800801ca0a7c33240d669d33a0cd99b52df09916fb7cd78f1dda0c63e8b4a4725e3e08d98a03cce7c0d8d6e86c0daa002483611ea0ea9ff8d86b3d4d40a76140fc0a0bc07f6",
      "networkId": 0,
      "chainId": 0
    }
  ]
}