{
  "hash": "0xfce0c846aa5fbc8658cd9965e3ee00e3b4806a05f3334e7527e4aa688a033dc0",
  "parentHash": "0x3c4e59e7260e953574887544a8f31116a8f763b5996bc912d73d38a0d7daef44",
  "number": 107332,
  "timestamp": 1439920640,
  "nonce": "0xba9ad62c93e11e69",
  "difficulty": 4400781695618,
  "gasLimit": {
    "_hex": "0x2fefd8"
  },
  "gasUsed": {
    "_hex": "0x5208"
  },
  "miner": "0xC272293AD54739bF7aAdd8924Aa3d712D672Eed1",
  "extraData": "0xd783010001844765746887676f312e342e32856c696e7578",
  "transactions": [
    {
      "hash": "0xdcdb9a6e8371f80c3c40a128f52bd3dbe1828e703906049720b816415e598a32",
      "blockHash": "0xfce0c846aa5fbc8658cd9965e3ee00e3b4806a05f3334e7527e4aa688a033dc0",
      "blockNumber": 107332,
      "transactionIndex": 0,
      "confirmations": null,
      "from": "0x32Be343B94f860124dC4fEe278FDCBD38C102D88",
      "gasPrice": {
        "_hex": "0xcb994542f"
      },
      "gasLimit": {
        "_hex": "0x5208"
      },
      "to": "0x8259E039E6a80780C3E455e00EA04DF29f9b6e5C",
      "value": {
        "_hex": "0x3635c9adc5dea00000"
      },
      "nonce": 1208,
      "data": "0x",
      "r": "0xb1bdf69860d59222c42c35a2bc202f4b347cbf0c4fad5267a46c6004a92c7c00",
      "s": "0x722907acf7576534c513f13c8f7b5f27af4a6eba3d76f8c23432e10ceb268dfd",
      "v": 27,
      "creates": null,
      "raw": "0xf86f8204b8850cb994542f825208948259e039e6a80780c3e455e00ea04df29f9b6e5c893635c9adc5dea00000801ba0b1bdf69860d59222c42c35a2bc202f4b347cbf0c4fad5267a46c6004a92c7c00a0722907acf7576534c513f13c8f7b5f27af4a6eba3d76f8c23432e10ceb268dfd",
      "networkId": 0,
      "chainId": 0
    }
  ]
}