{
  "hash": "0xe20634dc2d07d44633545da380e39dfa8d2a2e4a6fe26fed4efff8e1c3abd435",
  "parentHash": "0x22a3e505b6dc5f6bca7a9f56584d2e9f0b330e7c9a998c6d4bf8cf6de25d1321",
  "number": 96240,
  "timestamp": 1439737171,
  "nonce": "0xd523f65344a6fe37",
  "difficulty": 3671084971223,
  "gasLimit": {
    "_hex": "0x2fefd8"
  },
  "gasUsed": {
    "_hex": "0x5208"
  },
  "miner": "0x007f7f58D3eb5b7510A301eCC749FC1fCDDBE14D",
  "extraData": "0x476574682f76312e302e312f77696e646f77732f676f312e342e32",
  "transactions": [
    {
      "hash": "0xcc4674bc83106ab9bb56268762d8410d925ac85006ffc6c164782fe33c988c06",
      "blockHash": "0xe20634dc2d07d44633545da380e39dfa8d2a2e4a6fe26fed4efff8e1c3abd435",
      "blockNumber": 96240,
      "transactionIndex": 0,
      "confirmations": null,
      "from": "0x7884D470204862a0d1A21122F41ee77430396Ee5",
      "gasPrice": {
        "_hex": "0xce6b8f75d"
      },
      "gasLimit": {
        "_hex": "0x15f90"
      },
      "to": "0x3FaDe06b661606B07c00e4Bba376e5f943aD43d5",
      "value": {
        "_hex": "0x174876e800"
      },
      "nonce": 15,
      "data": "0x",
      "r": "0x12d95bee638a48373c100cfaf45c669a99b9df4bf29413e88e45f771879b13f4",
      "s": "0x1521f796dac072511a14e22c2dae7a4a13ed4d7d38981b563f031cf5de38efef",
      "v": 27,
      "creates": null,
      "raw": "0xf86a0f850ce6b8f75d83015f90943fade06b661606b07c00e4bba376e5f943ad43d585174876e800801ba012d95bee638a48373c100cfaf45c669a99b9df4bf29413e88e45f771879b13f4a01521f796dac072511a14e22c2dae7a4a13ed4d7d38981b563f031cf5de38efef",
      "networkId": 0,
      "chainId": 0
    }
  ]
}