{
  "hash": "0xb38f61ff710dc652ec569dea972c6c9378c2c6d8600e15861c074c50f27f7f1a",
  "parentHash": "0xfd58529c6a324cc8bcc67f35d4e0ab72e1ea823443cf3076300d5aa6f9d7c344",
  "number": 53839,
  "timestamp": 1439044529,
  "nonce": "0x39794ae4abc9b239",
  "difficulty": 1597020067036,
  "gasLimit": {
    "_hex": "0x2fefd8"
  },
  "gasUsed": {
    "_hex": "0x546c"
  },
  "miner": "0x457C428117c1b8507111392d50876A9D548a6D36",
  "extraData": "0x",
  "transactions": [
    {
      "hash": "0xd202464d77be8039b16eb6f8c89bcc48f3cabffd44908cdeced548b1d1aaf686",
      "blockHash": "0xb38f61ff710dc652ec569dea972c6c9378c2c6d8600e15861c074c50f27f7f1a",
      "blockNumber": 53839,
      "transactionIndex": 0,
      "confirmations": null,
      "from": "0xd82251456dc1380f8F5692f962828640ab9f2A03",
      "gasPrice": {
        "_hex": "0xe8d4a51000"
      },
      "gasLimit": {
        "_hex": "0x55f0"
      },
      "to": "0x2910543Af39abA0Cd09dBb2D50200b3E800A63D2",
      "value": {
        "_hex": "0x1087dba09f33adc0000"
      },
      "nonce": 0,
      "data": "0x454e33373037304e38",
      "r": "0xe7542a26a6fbb9484d4fc306410b066a484e45e1cdb5012afb37347cd826f1f9",
      "s": "0x300852d5f12c8e39f5d194cb6e5c6c8f3f4cdce498a21341f85be3e2bbc91e05",
      "v": 27,
      "creates": null,
      "raw": "0xf8778085e8d4a510008255f0942910543af39aba0cd09dbb2d50200b3e800a63d28a01087dba09f33adc000089454e33373037304e381ba0e7542a26a6fbb9484d4fc306410b066a484e45e1cdb5012afb37347cd826f1f9a0300852d5f12c8e39f5d194cb6e5c6c8f3f4cdce498a21341f85be3e2bbc91e05",
      "networkId": 0,
      "chainId": 0
    }
  ]
}