{
  "hash": "0x288cc45dc6f84ced1735617763663192f41c9e1e2edc3cb57b99c04d23312f99",
  "parentHash": "0xc540dbe3c8fab65b4d8515c0570e6151dac26dcddd07b61c4ec5983caf0081e6",
  "number": 57562,
  "timestamp": 1439105603,
  "nonce": "0xf7edd03a3ee8816f",
  "difficulty": 1733625978034,
  "gasLimit": {
    "_hex": "0x2fefd5"
  },
  "gasUsed": {
    "_hex": "0x5348"
  },
  "miner": "0x53824166ea5271d3425e3194c848A90CA4e97eB2",
  "extraData": "0x476574682f76312e302e312f6c696e75782f676f312e342e32",
  "transactions": [
    {
      "hash": "0x207e0e981fb2f02d41872adcc5f47ee9d03253132906d2de6e97e5373f5e4e83",
      "blockHash": "0x288cc45dc6f84ced1735617763663192f41c9e1e2edc3cb57b99c04d23312f99",
      "blockNumber": 57562,
      "transactionIndex": 0,
      "confirmations": null,
      "from": "0x6E4F1DD8EDB448D8F0F2829eb817B81ACEE45152",
      "gasPrice": {
        "_hex": "0x746a528800"
      },
      "gasLimit": {
        "_hex": "0x53a7"
      },
      "to": "0x2910543Af39abA0Cd09dBb2D50200b3E800A63D2",
      "value": {
        "_hex": "0xde0b6b3a7640000"
      },
      "nonce": 3,
      "data": "0x000000000000000000000000000000000000000000000000000000000053a090",
      "r": "0x8ca53ffc8e65b251a9b779a13032b3a6166d3c767dda0e233e9947fa1d63d042",
      "s": "0xcd28cdc27a4750eaf6884595df3df869bc0f2213bf221532a275637a833a9db8",
      "v": 27,
      "creates": null,
      "raw": "0xf88c0385746a5288008253a7942910543af39aba0cd09dbb2d50200b3e800a63d2880de0b6b3a7640000a0000000000000000000000000000000000000000000000000000000000053a0901ba08ca53ffc8e65b251a9b779a13032b3a6166d3c767dda0e233e9947fa1d63d042a0cd28cdc27a4750eaf6884595df3df869bc0f2213bf221532a275637a833a9db8",
      "networkId": 0,
      "chainId": 0
    }
  ]
}