{
  "hash": "0x59f31d005888f107b53710daf00616a63529308698f8c3dec0ba8ba1295e12ca",
  "parentHash": "0xed76119cd2045ddabcb90bb36f048fae3d0f141820caeae242f2cd59ab5f187d",
  "number": 83661,
  "timestamp": 1439538677,
  "nonce": "0xbf6f2377d86f575d",
  "difficulty": 2447943957626,
  "gasLimit": {
    "_hex": "0x2fefd8"
  },
  "gasUsed": {
    "_hex": "0x5208"
  },
  "miner": "0x1217627fe41A00f0b828317F43E6d58F47dBfc43",
  "extraData": "0x476574682f76312e302e302d66313265303136312f6c696e75782f676f312e34",
  "transactions": [
    {
      "hash": "0x74bf475086dfd4752fcde331e7a4cd9c9219e564e7d9e1fe47c775649d798e5f",
      "blockHash": "0x59f31d005888f107b53710daf00616a63529308698f8c3dec0ba8ba1295e12ca",
      "blockNumber": 83661,
      "transactionIndex": 0,
      "confirmations": null,
      "from": "0x428780201c611BD04Cb80F1C3f0a54F6B4D9f8a7",
      "gasPrice": {
        "_hex": "0xd8f5a8555"
      },
      "gasLimit": {
        "_hex": "0x5208"
      },
      "to": "0x823BA7647238D113bce9964A43D0A098118bfe4d",
      "value": {
        "_hex": "0x1bc16d674ec80000"
      },
      "nonce": 0,
      "data": "0x",
      "r": "0x10ba40f252224d6a1f9e94b9ae819b28f25404f989ac807055cd6d833a2a2ea5",
      "s": "0x16b8498b02b8d38df7cdd32ad3da787c697a27472be50985a0e4081bdc1e2f01",
      "v": 28,
      "creates": null,
      "raw": "0xf86c80850d8f5a855582520894823ba7647238d113bce9964a43d0a098118bfe4d881bc16d674ec80000801ca010ba40f252224d6a1f9e94b9ae819b28f25404f989ac807055cd6d833a2a2ea5a016b8498b02b8d38df7cdd32ad3da787c697a27472be50985a0e4081bdc1e2f01",
      "networkId": 0,
      "chainId": 0
    }
  ]
}