{
  "hash": "0xa09e5cbce5f052d4c6879fd500cac47ec20936538097eb991d5560995fdd343f",
  "parentHash": "0xe5b4ce442b20fdcb85a7aac3cccda829146fb99f265d45465729cdc838654d0e",
  "number": 119339,
  "timestamp": 1440141071,
  "nonce": "0xce4c7f578ce9131f",
  "difficulty": 4418153865305,
  "gasLimit": {
    "_hex": "0x2fefd8"
  },
  "gasUsed": {
    "_hex": "0x14820"
  },
  "miner": "0x790b8a3cE86E707ED0eD32bF89B3269692a23CC1",
  "extraData": "0xd783010002844765746887676f312e342e32856c696e7578",
  "transactions": [
    {
      "hash": "0x3922edb0dbc3dad4dd9f5f0b1c19309d24d2407aaf4351a064dce0cedec72407",
      "blockHash": "0xa09e5cbce5f052d4c6879fd500cac47ec20936538097eb991d5560995fdd343f",
      "blockNumber": 119339,
      "transactionIndex": 0,
      "confirmations": null,
      "from": "0xe6A7a1d47ff21B6321162AEA7C6CB457D5476Bca",
      "gasPrice": {
        "_hex": "0xba43b7400"
      },
      "gasLimit": {
        "_hex": "0x55f0"
      },
      "to": "0x519DC97eF09491aE962A8F13fe144c71feca4662",
      "value": {
        "_hex": "0x2d3b39d06417d5dc"
      },
      "nonce": 6095,
      "data": "0x",
      "r": "0x34c920491ff476d9b8544ed71d9439e5b33a81829bc477869f45fe743ebc4097",
      "s": "0x60f3ed0415f1f8d728d81d768f1ba9b1de2c6ee4f4696cb36dff9fbe9dee5cb9",
      "v": 27,
      "creates": null,
      "raw": "0xf86e8217cf850ba43b74008255f094519dc97ef09491ae962a8f13fe144c71feca4662882d3b39d06417d5dc801ba034c920491ff476d9b8544ed71d9439e5b33a81829bc477869f45fe743ebc4097a060f3ed0415f1f8d728d81d768f1ba9b1de2c6ee4f4696cb36dff9fbe9dee5cb9",
      "networkId": 0,
      "chainId": 0
    },
    {
      "hash": "0x1b2922dcad3b4226eedab0897781d3bb9ff543ad32fb646683ae596736af41c8",
      "blockHash": "0xa09e5cbce5f052d4c6879fd500cac47ec20936538097eb991d5560995fdd343f",
      "blockNumber": 119339,
      "transactionIndex": 1,
      "confirmations": null,
      "from": "0xD042e5C2443591c48f1FBa5F6bAf8E7193f454B9",
      "gasPrice": {
        "_hex": "0xba43b7400"
      },
      "gasLimit": {
        "_hex": "0x5208"
      },
      "to": "0x32Be343B94f860124dC4fEe278FDCBD38C102D88",
      "value": {
        "_hex": "0x17c2f22e86e85400"
      },
      "nonce": 12,
      "data": "0x",
      "r": "0xa0d317ef02030ad33bf43f138254b4070125512f5fe3406ca963635983b0056c",
      "s": "0x25c1cf1e238d329c75b7dc7356a04b3bac41e6631371cd028d06ba73ef6e54c5",
      "v": 28,
      "creates": null,
      "raw": "0xf86c0c850ba43b74008252089432be343b94f860124dc4fee278fdcbd38c102d888817c2f22e86e85400801ca0a0d317ef02030ad33bf43f138254b4070125512f5fe3406ca963635983b0056ca025c1cf1e238d329c75b7dc7356a04b3bac41e6631371cd028d06ba73ef6e54c5",
      "networkId": 0,
      "chainId": 0
    },
    {
      "hash": "0xfac7086655bfb1f97e30d2eac4e8fcf6440ddad0293b021626911cf3bdb3cf1e",
      "blockHash": "0xa09e5cbce5f052d4c6879fd500cac47ec20936538097eb991d5560995fdd343f",
      "blockNumber": 119339,
      "transactionIndex": 2,
      "confirmations": null,
      "from": "0xe6A7a1d47ff21B6321162AEA7C6CB457D5476Bca",
      "gasPrice": {
        "_hex": "0xba43b7400"
      },
      "gasLimit": {
        "_hex": "0x55f0"
      },
      "to": "0x2374d8ad849F04E476f8D13457503f7cca23892E",
      "value": {
        "_hex": "0x2d5ab21c314b9fec"
      },
      "nonce": 6096,
      "data": "0x",
      "r": "0x2b4e428b82059381899e6fbd6b4935b02687d2e3639e7ad0e3277f6333d46846",
      "s": "0x0248b51bf64b7de63cf2013da32230cbc9a2c421e14c5fa602488fffceabd5e9",
      "v": 28,
      "creates": null,
      "raw": "0xf86e8217d0850ba43b74008255f0942374d8ad849f04e476f8d13457503f7cca23892e882d5ab21c314b9fec801ca02b4e428b82059381899e6fbd6b4935b02687d2e3639e7ad0e3277f6333d46846a00248b51bf64b7de63cf2013da32230cbc9a2c421e14c5fa602488fffceabd5e9",
      "networkId": 0,
      "chainId": 0
    },
    {
      "hash": "0x340b4b45de3cd5524a2fbb18531ec76b7bc010945c345dacb1276cb544975a5b",
      "blockHash": "0xa09e5cbce5f052d4c6879fd500cac47ec20936538097eb991d5560995fdd343f",
      "blockNumber": 119339,
      "transactionIndex": 3,
      "confirmations": null,
      "from": "0xe6A7a1d47ff21B6321162AEA7C6CB457D5476Bca",
      "gasPrice": {
        "_hex": "0xba43b7400"
      },
      "gasLimit": {
        "_hex": "0x55f0"
      },
      "to": "0xbb30e448B72d6Fdd44973A4C7a312F92f22C8F07",
      "value": {
        "_hex": "0x2d84150c45f71ddc"
      },
      "nonce": 6097,
      "data": "0x",
      "r": "0x16f2c48a73313a88ca5f3c45f4ceb4c6b95f6548783240b81ae9848a9e78e145",
      "s": "0x29a7cbc57260fce1298667ac97132ff634865df3edbdc80fa63fc204086e89d9",
      "v": 27,
      "creates": null,
      "raw": "0xf86e8217d1850ba43b74008255f094bb30e448b72d6fdd44973a4c7a312f92f22c8f07882d84150c45f71ddc801ba016f2c48a73313a88ca5f3c45f4ceb4c6b95f6548783240b81ae9848a9e78e145a029a7cbc57260fce1298667ac97132ff634865df3edbdc80fa63fc204086e89d9",
      "networkId": 0,
      "chainId": 0
    }
  ]
}