{
  "hash": "0xbc6e4c70dbd9f6cb58eb69a272521dfa40d8951a600935bd7f8f0b435163f03f",
  "parentHash": "0xb0395a076da48e0f0c282e622023d8b8a18078c1fffc545cff8afa0d9e9177e2",
  "number": 85770,
  "timestamp": 1439568575,
  "nonce": "0x2780e5eb1a4452b0",
  "difficulty": 2774541060766,
  "gasLimit": {
    "_hex": "0x2fefd8"
  },
  "gasUsed": {
    "_hex": "0x5208"
  },
  "miner": "0xe6A7a1d47ff21B6321162AEA7C6CB457D5476Bca",
  "extraData": "0x476574682f76312e302e312d38326566323666362f6c696e75782f676f312e34",
  "transactions": [
    {
      "hash": "0xa0952ed1cf992a22cca877b728b05c466eb9a24fb5a16b79870eda17db2e84b4",
      "blockHash": "0xbc6e4c70dbd9f6cb58eb69a272521dfa40d8951a600935bd7f8f0b435163f03f",
      "blockNumber": 85770,
      "transactionIndex": 0,
      "confirmations": null,
      "from": "0xE12517204a15E890f12755207271102F4800A0c4",
      "gasPrice": {
        "_hex": "0xcd0353a12"
      },
      "gasLimit": {
        "_hex": "0x5208"
      },
      "to": "0x32Be343B94f860124dC4fEe278FDCBD38C102D88",
      "value": {
        "_hex": "0x1a051424a5a34b000"
      },
      "nonce": 9,
      "data": "0x",
      "r": "0x236f96362d260a46354bd6a00e72054397e00c8d66736f955392beec1f03f60c",
      "s": "0x7e8a35b5b4fe32ab59a2ad7f65b746d3cadd85259627fcea79ce0079e8bdf1bd",
      "v": 27,
      "creates": null,
      "raw": "0xf86d09850cd0353a128252089432be343b94f860124dc4fee278fdcbd38c102d888901a051424a5a34b000801ba0236f96362d260a46354bd6a00e72054397e00c8d66736f955392beec1f03f60ca07e8a35b5b4fe32ab59a2ad7f65b746d3cadd85259627fcea79ce0079e8bdf1bd",
      "networkId": 0,
      "chainId": 0
    }
  ]
}