{
  "hash": "0xc92ec1c6f9d75f125d9e4ed5952e95fd33dfc50e29f4e574a743bc42556374b5",
  "parentHash": "0x5764de5c81d8a7d139ed1b3633f060c06f400ea1c2613befe4f005326c73b829",
  "number": 105331,
  "timestamp": 1439885713,
  "nonce": "0x4a3dfdfb73cfc9df",
  "difficulty": 4361183112205,
  "gasLimit": {
    "_hex": "0x2fefd8"
  },
  "gasUsed": {
    "_hex": "0x1ec30"
  },
  "miner": "0xfFcD9CAE6d9f54fd8ae05296F839892677ff6EaA",
  "extraData": "0x476574682f76312e302e312f77696e646f77732f676f312e342e32",
  "transactions": [
    {
      "hash": "0x4afb3a93e73485e93c097c6f80c46e9cbc0bc4c1573642323d69d732ebe01b53",
      "blockHash": "0xc92ec1c6f9d75f125d9e4ed5952e95fd33dfc50e29f4e574a743bc42556374b5",
      "blockNumber": 105331,
      "transactionIndex": 0,
      "confirmations": null,
      "from": "0x08FE5A3C0709cF74d76cFd0e0Cd9d2A447eA263C",
      "gasPrice": {
        "_hex": "0xd8f87023e"
      },
      "gasLimit": {
        "_hex": "0x5208"
      },
      "to": "0x32Be343B94f860124dC4fEe278FDCBD38C102D88",
      "value": {
        "_hex": "0x10e2994271d30000"
      },
      "nonce": 6,
      "data": "0x",
      "r": "0x9505c1abf9d8a28763bf6c4954d7e8022ed34f3c97a1db34c46bc4ae0e738804",
      "s": "0x4aa1171b373a355f096002f79946f546da327017aea28a3476a037998747387b",
      "v": 27,
      "creates": null,
      "raw": "0xf86c06850d8f87023e8252089432be343b94f860124dc4fee278fdcbd38c102d888810e2994271d30000801ba09505c1abf9d8a28763bf6c4954d7e8022ed34f3c97a1db34c46bc4ae0e738804a04aa1171b373a355f096002f79946f546da327017aea28a3476a037998747387b",
      "networkId": 0,
      "chainId": 0
    },
    {
      "hash": "0x103c3054095be096dac7de60dbba7dfa72e53214bf6ec0b75a2760072337cfeb",
      "blockHash": "0xc92ec1c6f9d75f125d9e4ed5952e95fd33dfc50e29f4e574a743bc42556374b5",
      "blockNumber": 105331,
      "transactionIndex": 1,
      "confirmations": null,
      "from": "0xB9eE81c1A5CdE84454DC603a8000836118627cfd",
      "gasPrice": {
        "_hex": "0xd8f87023e"
      },
      "gasLimit": {
        "_hex": "0x5208"
      },
      "to": "0x32Be343B94f860124dC4fEe278FDCBD38C102D88",
      "value": {
        "_hex": "0x1592d8c92fe7f800"
      },
      "nonce": 5,
      "data": "0x",
      "r": "0x6b2a161f508d9bc75149385871ad92aad374d716f4037469dc23e8ce322130c7",
      "s": "0x676aae4272bb427684752e5d03ae645d80931b52864f0b1f0a9eb2865daaa6ab",
      "v": 27,
      "creates": null,
      "raw": "0xf86c05850d8f87023e8252089432be343b94f860124dc4fee278fdcbd38c102d88881592d8c92fe7f800801ba06b2a161f508d9bc75149385871ad92aad374d716f4037469dc23e8ce322130c7a0676aae4272bb427684752e5d03ae645d80931b52864f0b1f0a9eb2865daaa6ab",
      "networkId": 0,
      "chainId": 0
    },
    {
      "hash": "0xdd1054f5756e60d2a53812c8a16881cf5dc43eb695e3ca419d5d19aa7f4e1fc8",
      "blockHash": "0xc92ec1c6f9d75f125d9e4ed5952e95fd33dfc50e29f4e574a743bc42556374b5",
      "blockNumber": 105331,
      "transactionIndex": 2,
      "confirmations": null,
      "from": "0xb26EE724AA819BddDf6d87754C61669f000AbF6A",
      "gasPrice": {
        "_hex": "0xd8f87023e"
      },
      "gasLimit": {
        "_hex": "0x5208"
      },
      "to": "0x32Be343B94f860124dC4fEe278FDCBD38C102D88",
      "value": {
        "_hex": "0x23d30d40036d7800"
      },
      "nonce": 5,
      "data": "0x",
      "r": "0xd983e3c1cdbf6d9b4d9114eecf8df3a02b6af48de3e2eee419b378452a466147",
      "s": "0x514fb3d423f91fe2bb8e72de4a3f0470b28409a72f520b7583c939b570906dca",
      "v": 28,
      "creates": null,
      "raw": "0xf86c05850d8f87023e8252089432be343b94f860124dc4fee278fdcbd38c102d888823d30d40036d7800801ca0d983e3c1cdbf6d9b4d9114eecf8df3a02b6af48de3e2eee419b378452a466147a0514fb3d423f91fe2bb8e72de4a3f0470b28409a72f520b7583c939b570906dca",
      "networkId": 0,
      "chainId": 0
    },
    {
      "hash": "0xdad4d27ac2cdaf0c5f9ce5b17dd9e4756f0689f765f9c03f341498089218430a",
      "blockHash": "0xc92ec1c6f9d75f125d9e4ed5952e95fd33dfc50e29f4e574a743bc42556374b5",
      "blockNumber": 105331,
      "transactionIndex": 3,
      "confirmations": null,
      "from": "0xe6A7a1d47ff21B6321162AEA7C6CB457D5476Bca",
      "gasPrice": {
        "_hex": "0xd39d42674"
      },
      "gasLimit": {
        "_hex": "0x55f0"
      },
      "to": "0x0959BFF932df2642345f8C3C8FBf0e1B94854311",
      "value": {
        "_hex": "0x970e857ebfcf5120"
      },
      "nonce": 3869,
      "data": "0x",
      "r": "0xca5cb807694c2666039be773c0a6114fe619fe2e564e25a945c5b80f13875992",
      "s": "0x26c59e570c177b41575729f56f687c9538a0d1b83a26d01aefccba791e99e630",
      "v": 27,
      "creates": null,
      "raw": "0xf86e820f1d850d39d426748255f0940959bff932df2642345f8c3c8fbf0e1b9485431188970e857ebfcf5120801ba0ca5cb807694c2666039be773c0a6114fe619fe2e564e25a945c5b80f13875992a026c59e570c177b41575729f56f687c9538a0d1b83a26d01aefccba791e99e630",
      "networkId": 0,
      "chainId": 0
    },
    {
      "hash": "0x877d0522a6719987fdeb54dad331209ca7739b364d71198bfdedb8a0bc08a399",
      "blockHash": "0xc92ec1c6f9d75f125d9e4ed5952e95fd33dfc50e29f4e574a743bc42556374b5",
      "blockNumber": 105331,
      "transactionIndex": 4,
      "confirmations": null,
      "from": "0xe6A7a1d47ff21B6321162AEA7C6CB457D5476Bca",
      "gasPrice": {
        "_hex": "0xd15ab060d"
      },
      "gasLimit": {
        "_hex": "0x55f0"
      },
      "to": "0xe6F63A7e7F8dc774F8E3504c9b0c5458D7E28ED8",
      "value": {
        "_hex": "0x981ba39da3320030"
      },
      "nonce": 3870,
      "data": "0x",
      "r": "0x33d71976bdbe6565d3c2babcde78237bb2a08f7172691c11fb2a0cb770f18880",
      "s": "0x4ba9b1fa0fb7f19d681f1fe05ce50ea86c09c9f8175402557d13c9fe09e063bc",
      "v": 27,
      "creates": null,
      "raw": "0xf86e820f1e850d15ab060d8255f094e6f63a7e7f8dc774f8e3504c9b0c5458d7e28ed888981ba39da3320030801ba033d71976bdbe6565d3c2babcde78237bb2a08f7172691c11fb2a0cb770f18880a04ba9b1fa0fb7f19d681f1fe05ce50ea86c09c9f8175402557d13c9fe09e063bc",
      "networkId": 0,
      "chainId": 0
    },
    {
      "hash": "0xa5308d37c633b2f5f92b444ebda41b587003720f1bc4c6f3cf4f9340e82ecb5a",
      "blockHash": "0xc92ec1c6f9d75f125d9e4ed5952e95fd33dfc50e29f4e574a743bc42556374b5",
      "blockNumber": 105331,
      "transactionIndex": 5,
      "confirmations": null,
      "from": "0xFBb1b73C4f0BDa4f67dcA266ce6Ef42f520fBB98",
      "gasPrice": {
        "_hex": "0xcc20246e8"
      },
      "gasLimit": {
        "_hex": "0x5208"
      },
      "to": "0xF4bB828E9F72a642Fb5ade27728251e00aC71f66",
      "value": {
        "_hex": "0x8ce81bebec269800"
      },
      "nonce": 110,
      "data": "0x",
      "r": "0xde5e6bc79cdfb2f1d738425dbc8bd49052636408f2a8b9911181a3732ea916d6",
      "s": "0x4e024b26996ad64280d677da6568190764a4271425af97b630d8d8eeb6a0501f",
      "v": 27,
      "creates": null,
      "raw": "0xf86c6e850cc20246e882520894f4bb828e9f72a642fb5ade27728251e00ac71f66888ce81bebec269800801ba0de5e6bc79cdfb2f1d738425dbc8bd49052636408f2a8b9911181a3732ea916d6a04e024b26996ad64280d677da6568190764a4271425af97b630d8d8eeb6a0501f",
      "networkId": 0,
      "chainId": 0
    }
  ]
}