{
  "hash": "0x7113e86373481095a04424fdce2f25f384b05f32e0ebd6591fa26429c84af02d",
  "parentHash": "0xb117d07ae6e0d732f4d58c1eada528c4fc3b08650c0bdced7173f014dfd4adae",
  "number": 97576,
  "timestamp": 1439758224,
  "nonce": "0xd94c4e5b71334d2b",
  "difficulty": 3839145691933,
  "gasLimit": {
    "_hex": "0x2fefd8"
  },
  "gasUsed": {
    "_hex": "0xf618"
  },
  "miner": "0xe6A7a1d47ff21B6321162AEA7C6CB457D5476Bca",
  "extraData": "0x476574682f76312e302e312d38326566323666362f6c696e75782f676f312e34",
  "transactions": [
    {
      "hash": "0xb55b6404da83f3f72591574f0192404ae2c4e1eba86b6c86e1d2e151ba8f4727",
      "blockHash": "0x7113e86373481095a04424fdce2f25f384b05f32e0ebd6591fa26429c84af02d",
      "blockNumber": 97576,
      "transactionIndex": 0,
      "confirmations": null,
      "from": "0x72B04597570ca1Bd15727a8a23D7df9D432530b1",
      "gasPrice": {
        "_hex": "0x45d964b800"
      },
      "gasLimit": {
        "_hex": "0x5208"
      },
      "to": "0x69b8bc60d27EC3b7526bC96385C0f5ad76cD534A",
      "value": {
        "_hex": "0x1ae361fc1451c0000"
      },
      "nonce": 2,
      "data": "0x",
      "r": "0x7ebb597c4348bdb535b4375f41dd36849ef05f23c95685fae1f9c722e50e25a3",
      "s": "0x08d4ccb6ac2f720d341bba16b73c9d3a55152232fcf9ddacefb9698508105445",
      "v": 28,
      "creates": null,
      "raw": "0xf86d028545d964b8008252089469b8bc60d27ec3b7526bc96385c0f5ad76cd534a8901ae361fc1451c0000801ca07ebb597c4348bdb535b4375f41dd36849ef05f23c95685fae1f9c722e50e25a3a008d4ccb6ac2f720d341bba16b73c9d3a55152232fcf9ddacefb9698508105445",
      "networkId": 0,
      "chainId": 0
    },
    {
      "hash": "0xafc90bebeaee5242efd94910d7f0eab1e770f06c06dc1dc6868d8024c026e4ce",
      "blockHash": "0x7113e86373481095a04424fdce2f25f384b05f32e0ebd6591fa26429c84af02d",
      "blockNumber": 97576,
      "transactionIndex": 1,
      "confirmations": null,
      "from": "0xa70a9a7040d542C632D8e0bE7c5513A8a5Bbc752",
      "gasPrice": {
        "_hex": "0xde833e0c6"
      },
      "gasLimit": {
        "_hex": "0x5208"
      },
      "to": "0x32Be343B94f860124dC4fEe278FDCBD38C102D88",
      "value": {
        "_hex": "0x455f1cb17ad35800"
      },
      "nonce": 178,
      "data": "0x",
      "r": "0x8a45abebceaa9640b3eaf4dc662c1c0aedd58a402ccc4bff1fd847d93fc17326",
      "s": "0x306b78e23e04f78245fc85dda173f9132e2dddaf43b67a0e4a179f7f0c914fa3",
      "v": 27,
      "creates": null,
      "raw": "0xf86d81b2850de833e0c68252089432be343b94f860124dc4fee278fdcbd38c102d8888455f1cb17ad35800801ba08a45abebceaa9640b3eaf4dc662c1c0aedd58a402ccc4bff1fd847d93fc17326a0306b78e23e04f78245fc85dda173f9132e2dddaf43b67a0e4a179f7f0c914fa3",
      "networkId": 0,
      "chainId": 0
    },
    {
      "hash": "0x6ab06e0f351e49f7670fa3ff40932cf4f81f0e322ab87a741c2f5a44ebcb769d",
      "blockHash": "0x7113e86373481095a04424fdce2f25f384b05f32e0ebd6591fa26429c84af02d",
      "blockNumber": 97576,
      "transactionIndex": 2,
      "confirmations": null,
      "from": "0x2910543Af39abA0Cd09dBb2D50200b3E800A63D2",
      "gasPrice": {
        "_hex": "0xd35a17046"
      },
      "gasLimit": {
        "_hex": "0x5208"
      },
      "to": "0xb4Ad43131139584E8f6F31D578E0dC4d11Df6D7b",
      "value": {
        "_hex": "0x2b5e3af16b1880000"
      },
      "nonce": 923,
      "data": "0x",
      "r": "0x4f76f990cbc91cfdde11e5a24e687fe031be2430e236f40d1c34aa4f35944148",
      "s": "0x689f4bd1b43163a2e3ba828def663a43a69900e75e756128705ba72d946240a0",
      "v": 28,
      "creates": null,
      "raw": "0xf86f82039b850d35a1704682520894b4ad43131139584e8f6f31d578e0dc4d11df6d7b8902b5e3af16b1880000801ca04f76f990cbc91cfdde11e5a24e687fe031be2430e236f40d1c34aa4f35944148a0689f4bd1b43163a2e3ba828def663a43a69900e75e756128705ba72d946240a0",
      "networkId": 0,
      "chainId": 0
    }
  ]
}