{
  "hash": "0xdf1b0d59a2d01a5ba123b7cd5a1af0b3f68c44bce4dac4e85de3e75d870d7e7d",
  "parentHash": "0x1da3b0faa399713e5c64acbc708a5bf41bde35e3621dd0649558dd30f7b0d81a",
  "number": 53353,
  "timestamp": 1439036300,
  "nonce": "0x63033656250fdaa3",
  "difficulty": 1589333200391,
  "gasLimit": {
    "_hex": "0x25915f"
  },
  "gasUsed": {
    "_hex": "0x5208"
  },
  "miner": "0x1D889aFF5D57138c9819412d63b5d877567B5936",
  "extraData": "0x476574682f76312e302e312f77696e646f77732f676f312e342e32",
  "transactions": [
    {
      "hash": "0x445d53ea97f5430ef45d49779ee32e8a652a1e393a62ba41d45de617d45fa5da",
      "blockHash": "0xdf1b0d59a2d01a5ba123b7cd5a1af0b3f68c44bce4dac4e85de3e75d870d7e7d",
      "blockNumber": 53353,
      "transactionIndex": 0,
      "confirmations": null,
      "from": "0x4cfeF0a00715760Ed2b03C3782D07a4EA9A8dfDc",
      "gasPrice": {
        "_hex": "0xd7d40ace3"
      },
      "gasLimit": {
        "_hex": "0x61a8"
      },
      "to": "0xB2eF1f77B5Ef5c17655ec1765797E71449C28815",
      "value": {
        "_hex": "0x8ac7230489e80000"
      },
      "nonce": 5,
      "data": "0x",
      "r": "0x915fbcc6e4b953ce08e3176e95e0cf934d661e5353f1b179fcab31fe0bb6a09d",
      "s": "0x756d0d28fedf5046c21f856c61ccdb7ea2b640574f9aa42c5c0b258f573214e9",
      "v": 28,
      "creates": null,
      "raw": "0xf86c05850d7d40ace38261a894b2ef1f77b5ef5c17655ec1765797e71449c28815888ac7230489e80000801ca0915fbcc6e4b953ce08e3176e95e0cf934d661e5353f1b179fcab31fe0bb6a09da0756d0d28fedf5046c21f856c61ccdb7ea2b640574f9aa42c5c0b258f573214e9",
      "networkId": 0,
      "chainId": 0
    }
  ]
}