{
  "hash": "0x9353e7734b4aef6473279900ed3b581f985e2865301159ec63d3609d66c5ce40",
  "parentHash": "0x35e334df34bcd898f476a39a3004354b82703eed499857393720e6576a375843",
  "number": 66000,
  "timestamp": 1439246724,
  "nonce": "0x70fc59f65bbe3956",
  "difficulty": 1949110938948,
  "gasLimit": {
    "_hex": "0x2fefd8"
  },
  "gasUsed": {
    "_hex": "0x7c28"
  },
  "miner": "0xa50ec0D39fa913E62f1Bae7074E6F36caA71855b",
  "extraData": "0x",
  "transactions": [
    {
      "hash": "0xf2af3a537ad93713d701f3c106b77031e3d20e6d47a61df5fda617157da76e3a",
      "blockHash": "0x9353e7734b4aef6473279900ed3b581f985e2865301159ec63d3609d66c5ce40",
      "blockNumber": 66000,
      "transactionIndex": 0,
      "confirmations": null,
      "from": "0xBeb3B1d443791e4B2207a9866800E02DAcF19c02",
      "gasPrice": {
        "_hex": "0xd3984ed0a"
      },
      "gasLimit": {
        "_hex": "0x15f90"
      },
      "to": "0xd2c12462b5B2E3cad01C9034F9e8f6921811Cc63",
      "value": {
        "_hex": "0x0"
      },
      "nonce": 16,
      "data": "0x41c0e1b5",
      "r": "0xe22525ad55bd42f3c9715738ad6b8a2c6ff5e8331badb99581bb1ede9b43bf54",
      "s": "0x0be62eb71b80f2b9c20e0ce9363bb481229d2f27257bf1b1c7e403a82e2eeb88",
      "v": 28,
      "creates": null,
      "raw": "0xf86910850d3984ed0a83015f9094d2c12462b5b2e3cad01c9034f9e8f6921811cc63808441c0e1b51ca0e22525ad55bd42f3c9715738ad6b8a2c6ff5e8331badb99581bb1ede9b43bf54a00be62eb71b80f2b9c20e0ce9363bb481229d2f27257bf1b1c7e403a82e2eeb88",
      "networkId": 0,
      "chainId": 0
    },
    {
      "hash": "0xf0f7ba0e8460e50f22459dff10711c4336681df9bba94dcbd73ff3aa63c20721",
      "blockHash": "0x9353e7734b4aef6473279900ed3b581f985e2865301159ec63d3609d66c5ce40",
      "blockNumber": 66000,
      "transactionIndex": 1,
      "confirmations": null,
      "from": "0x2910543Af39abA0Cd09dBb2D50200b3E800A63D2",
      "gasPrice": {
        "_hex": "0xcd4102548"
      },
      "gasLimit": {
        "_hex": "0x5208"
      },
      "to": "0x91d52F8dabbfE1bd85ec64Df0D4768e1efb75B11",
      "value": {
        "_hex": "0x8ab55f8b52078000"
      },
      "nonce": 195,
      "data": "0x",
      "r": "0x98373f04fba1149c445da1fb7d8006ad8235fdea377b3ad013c8f15b89dac4bf",
      "s": "0x62982a225fb7c91503b33a0b52e8711c661802e4562eff70fa29509d50cec32f",
      "v": 27,
      "creates": null,
      "raw": "0xf86d81c3850cd41025488252089491d52f8dabbfe1bd85ec64df0d4768e1efb75b11888ab55f8b52078000801ba098373f04fba1149c445da1fb7d8006ad8235fdea377b3ad013c8f15b89dac4bfa062982a225fb7c91503b33a0b52e8711c661802e4562eff70fa29509d50cec32f",
      "networkId": 0,
      "chainId": 0
    }
  ]
}