{
  "hash": "0x6dbfd57cbd33205ddc1ec803db9d3d10235006bca23f5b5051996bdd6a1b479e",
  "parentHash": "0xb6604906e5d4a905ccb5551b351b50d8160ada56d4214b3fb10690adedc2d97e",
  "number": 79079,
  "timestamp": 1439464075,
  "nonce": "0xa04b7922b8884c63",
  "difficulty": 2316669563630,
  "gasLimit": {
    "_hex": "0x2fefd8"
  },
  "gasUsed": {
    "_hex": "0x75eb8"
  },
  "miner": "0xf927a40C8B7F6E07c5af7FA2155B4864a4112B13",
  "extraData": "0x",
  "transactions": [
    {
      "hash": "0x5ce06615488a657df2d834bf5ae791d342ddb3697bf2b7276751f9af1518ec95",
      "blockHash": "0x6dbfd57cbd33205ddc1ec803db9d3d10235006bca23f5b5051996bdd6a1b479e",
      "blockNumber": 79079,
      "transactionIndex": 0,
      "confirmations": null,
      "from": "0xe6A7a1d47ff21B6321162AEA7C6CB457D5476Bca",
      "gasPrice": {
        "_hex": "0xd82d1eaf1"
      },
      "gasLimit": {
        "_hex": "0x55f0"
      },
      "to": "0x83B72f566f6ef3fd4a25C58119809f846602292C",
      "value": {
        "_hex": "0xec82433ef3d7c64"
      },
      "nonce": 1006,
      "data": "0x",
      "r": "0x3383a1ba8ec64859f0b7198dfa0e87c8aa4c16f6819c1a343d572aff07d31de7",
      "s": "0x287f9f7137b8dbdb05ad93fd31fba24986c23ad2ba590752c6291945406c9527",
      "v": 27,
      "creates": null,
      "raw": "0xf86e8203ee850d82d1eaf18255f09483b72f566f6ef3fd4a25c58119809f846602292c880ec82433ef3d7c64801ba03383a1ba8ec64859f0b7198dfa0e87c8aa4c16f6819c1a343d572aff07d31de7a0287f9f7137b8dbdb05ad93fd31fba24986c23ad2ba590752c6291945406c9527",
      "networkId": 0,
      "chainId": 0
    },
    {
      "hash": "0x32b604b455f8947b3d354d4fb8d627a6ba34e673cde1fc71ce7effd72ab20f5f",
      "blockHash": "0x6dbfd57cbd33205ddc1ec803db9d3d10235006bca23f5b5051996bdd6a1b479e",
      "blockNumber": 79079,
      "transactionIndex": 1,
      "confirmations": null,
      "from": "0xe6A7a1d47ff21B6321162AEA7C6CB457D5476Bca",
      "gasPrice": {
        "_hex": "0xd82d1eaf1"
      },
      "gasLimit": {
        "_hex": "0x55f0"
      },
      "to": "0xb9b373b3776bAcfE434e7c2dc66D4Ee715d91C0E",
      "value": {
        "_hex": "0xed4ae03b5fc84fc"
      },
      "nonce": 1007,
      "data": "0x",
      "r": "0x2b22e394486609a908e367a201150482aa35d868fb43594105fe9faad78f6042",
      "s": "0x637cc1f840f0d997a3de4de56644e9cb1a365a0315c80d7392b96b617918f642",
      "v": 28,
      "creates": null,
      "raw": "0xf86e8203ef850d82d1eaf18255f094b9b373b3776bacfe434e7c2dc66d4ee715d91c0e880ed4ae03b5fc84fc801ca02b22e394486609a908e367a201150482aa35d868fb43594105fe9faad78f6042a0637cc1f840f0d997a3de4de56644e9cb1a365a0315c80d7392b96b617918f642",
      "networkId": 0,
      "chainId": 0
    },
    {
      "hash": "0x362516dec5c7fc72b4973116ce33624d372e5aa1847c4d7ff9ee40bb2647475b",
      "blockHash": "0x6dbfd57cbd33205ddc1ec803db9d3d10235006bca23f5b5051996bdd6a1b479e",
      "blockNumber": 79079,
      "transactionIndex": 2,
      "confirmations": null,
      "from": "0xe6A7a1d47ff21B6321162AEA7C6CB457D5476Bca",
      "gasPrice": {
        "_hex": "0xd82d1eaf1"
      },
      "gasLimit": {
        "_hex": "0x55f0"
      },
      "to": "0x7fDF07A0f977e4032C1f082Df831423abf58D13D",
      "value": {
        "_hex": "0xeea250766a6af64"
      },
      "nonce": 1008,
      "data": "0x",
      "r": "0xfbeecb476fb3a93f66cc6f53d85a4c958e9391cd8d30452ff858fe0658ba5745",
      "s": "0x68e96cd2bbd64d98e0b963f3488369856bce15284e2928f1d48dea5df524d69f",
      "v": 28,
      "creates": null,
      "raw": "0xf86e8203f0850d82d1eaf18255f0947fdf07a0f977e4032c1f082df831423abf58d13d880eea250766a6af64801ca0fbeecb476fb3a93f66cc6f53d85a4c958e9391cd8d30452ff858fe0658ba5745a068e96cd2bbd64d98e0b963f3488369856bce15284e2928f1d48dea5df524d69f",
      "networkId": 0,
      "chainId": 0
    },
    {
      "hash": "0x4363557fffe25abc9d8c9ce20ccf30150acd97c374d78aa898e37249b5c1f849",
      "blockHash": "0x6dbfd57cbd33205ddc1ec803db9d3d10235006bca23f5b5051996bdd6a1b479e",
      "blockNumber": 79079,
      "transactionIndex": 3,
      "confirmations": null,
      "from": "0xe6A7a1d47ff21B6321162AEA7C6CB457D5476Bca",
      "gasPrice": {
        "_hex": "0xd82d1eaf1"
      },
      "gasLimit": {
        "_hex": "0x55f0"
      },
      "to": "0xDf6DdC40f2297Bfac49bE5503b2bc6AC094E96be",
      "value": {
        "_hex": "0xf2c3502bd62ddf8"
      },
      "nonce": 1009,
      "data": "0x",
      "r": "0x6d67a3e222e5996bb851750a7a41574f1c0a3bdc6618517825ab4a4c95818de2",
      "s": "0x6568cb62c481d8dd6ea8c425e111cad3309dc2a4192acee73ddfc7fbddf58189",
      "v": 27,
      "creates": null,
      "raw": "0xf86e8203f1850d82d1eaf18255f094df6ddc40f2297bfac49be5503b2bc6ac094e96be880f2c3502bd62ddf8801ba06d67a3e222e5996bb851750a7a41574f1c0a3bdc6618517825ab4a4c95818de2a06568cb62c481d8dd6ea8c425e111cad3309dc2a4192acee73ddfc7fbddf58189",
      "networkId": 0,
      "chainId": 0
    },
    {
      "hash": "0x8b26eeeac575fbb872cd1b9b4e3641b1155edf2b64ac882d18464f27906f8620",
      "blockHash": "0x6dbfd57cbd33205ddc1ec803db9d3d10235006bca23f5b5051996bdd6a1b479e",
      "blockNumber": 79079,
      "transactionIndex": 4,
      "confirmations": null,
      "from": "0xe6A7a1d47ff21B6321162AEA7C6CB457D5476Bca",
      "gasPrice": {
        "_hex": "0xd82d1eaf1"
      },
      "gasLimit": {
        "_hex": "0x55f0"
      },
      "to": "0xF53cEB46156c2a0bC1a7aAd59774F5DfDA068CEc",
      "value": {
        "_hex": "0xf2f0000291ace00"
      },
      "nonce": 1010,
      "data": "0x",
      "r": "0xdaf2d1a7869a5aae8322b07a25cc51a76d57c64fc94bd5a328d811eacb59ae24",
      "s": "0x6601f2b8d8788f1175d4cb85bf3eb5a6ba11fd6524476b09bc2c9a8745a19fd8",
      "v": 28,
      "creates": null,
      "raw": "0xf86e8203f2850d82d1eaf18255f094f53ceb46156c2a0bc1a7aad59774f5dfda068cec880f2f0000291ace00801ca0daf2d1a7869a5aae8322b07a25cc51a76d57c64fc94bd5a328d811eacb59ae24a06601f2b8d8788f1175d4cb85bf3eb5a6ba11fd6524476b09bc2c9a8745a19fd8",
      "networkId": 0,
      "chainId": 0
    },
    {
      "hash": "0x7e96ff0740500b1e1649442093727b12fa7bfee1b0a412c9e99cb997ee76196e",
      "blockHash": "0x6dbfd57cbd33205ddc1ec803db9d3d10235006bca23f5b5051996bdd6a1b479e",
      "blockNumber": 79079,
      "transactionIndex": 5,
      "confirmations": null,
      "from": "0xe6A7a1d47ff21B6321162AEA7C6CB457D5476Bca",
      "gasPrice": {
        "_hex": "0xd82d1eaf1"
      },
      "gasLimit": {
        "_hex": "0x55f0"
      },
      "to": "0x28cF1915522F9744EF20294FAeBe6575e2fd5F38",
      "value": {
        "_hex": "0xf52746303a64280"
      },
      "nonce": 1011,
      "data": "0x",
      "r": "0xddb570e741bd2fd3f305989689283e709b056bd97f88d81f47dc3c5358306c87",
      "s": "0x65175c155d66e014879ca1d615ef198158c4348bf5e1977b050353448babb2b5",
      "v": 27,
      "creates": null,
      "raw": "0xf86e8203f3850d82d1eaf18255f09428cf1915522f9744ef20294faebe6575e2fd5f38880f52746303a64280801ba0ddb570e741bd2fd3f305989689283e709b056bd97f88d81f47dc3c5358306c87a065175c155d66e014879ca1d615ef198158c4348bf5e1977b050353448babb2b5",
      "networkId": 0,
      "chainId": 0
    },
    {
      "hash": "0xb785481d3b544be41e201432535069fcc92ce14e2d736c1694e2afa38eb7611b",
      "blockHash": "0x6dbfd57cbd33205ddc1ec803db9d3d10235006bca23f5b5051996bdd6a1b479e",
      "blockNumber": 79079,
      "transactionIndex": 6,
      "confirmations": null,
      "from": "0xe6A7a1d47ff21B6321162AEA7C6CB457D5476Bca",
      "gasPrice": {
        "_hex": "0xd82d1eaf1"
      },
      "gasLimit": {
        "_hex": "0x55f0"
      },
      "to": "0x9E0Afd592B1e40BEe26816E360f02eebF04aD74B",
      "value": {
        "_hex": "0xf79ec9f8d58fb04"
      },
      "nonce": 1012,
      "data": "0x",
      "r": "0xf240cd491ec58e74601c3c7b984ec582ad4d6e389c3e9e9559eafddd11112221",
      "s": "0x42f1c1767ccbedd1d0625088fcf88160235b962aa2b477cd498bb4a659863c42",
      "v": 28,
      "creates": null,
      "raw": "0xf86e8203f4850d82d1eaf18255f0949e0afd592b1e40bee26816e360f02eebf04ad74b880f79ec9f8d58fb04801ca0f240cd491ec58e74601c3c7b984ec582ad4d6e389c3e9e9559eafddd11112221a042f1c1767ccbedd1d0625088fcf88160235b962aa2b477cd498bb4a659863c42",
      "networkId": 0,
      "chainId": 0
    },
    {
      "hash": "0xf722011e59c178970ad5236b6dea2777f33568b04bd5ea1046748cee729f7977",
      "blockHash": "0x6dbfd57cbd33205ddc1ec803db9d3d10235006bca23f5b5051996bdd6a1b479e",
      "blockNumber": 79079,
      "transactionIndex": 7,
      "confirmations": null,
      "from": "0xe6A7a1d47ff21B6321162AEA7C6CB457D5476Bca",
      "gasPrice": {
        "_hex": "0xd82d1eaf1"
      },
      "gasLimit": {
        "_hex": "0x55f0"
      },
      "to": "0x450c88307d9437885599aC6A3949b2D97B642d84",
      "value": {
        "_hex": "0xf948af41a6386b0"
      },
      "nonce": 1013,
      "data": "0x",
      "r": "0xff032f9a6b22ec2b390e3c6083b8c9f0ac762fdc89873b4d9ac97d20db221e9c",
      "s": "0x53a4b656ce5de5f8d9bd0d6136d42fd573a098938df1324b079713714d82d295",
      "v": 28,
      "creates": null,
      "raw": "0xf86e8203f5850d82d1eaf18255f094450c88307d9437885599ac6a3949b2d97b642d84880f948af41a6386b0801ca0ff032f9a6b22ec2b390e3c6083b8c9f0ac762fdc89873b4d9ac97d20db221e9ca053a4b656ce5de5f8d9bd0d6136d42fd573a098938df1324b079713714d82d295",
      "networkId": 0,
      "chainId": 0
    },
    {
      "hash": "0xc460ba0447ca187430934f1d805354fe6a087083b526059bd12cc780ecdbb070",
      "blockHash": "0x6dbfd57cbd33205ddc1ec803db9d3d10235006bca23f5b5051996bdd6a1b479e",
      "blockNumber": 79079,
      "transactionIndex": 8,
      "confirmations": null,
      "from": "0xe6A7a1d47ff21B6321162AEA7C6CB457D5476Bca",
      "gasPrice": {
        "_hex": "0xd82d1eaf1"
      },
      "gasLimit": {
        "_hex": "0x55f0"
      },
      "to": "0x9E5B4729c3266d77caE7F08C303b191Ac4d6B8CD",
      "value": {
        "_hex": "0xfa00700147284fc"
      },
      "nonce": 1014,
      "data": "0x",
      "r": "0xb673d001a8c8b771fdbeec9a6c187585a06ad09d018cba5c2c7527f31f495ac2",
      "s": "0x656c34f60b5801a93bccb1650372c9ab8fe730d95a6a90665e8073b25cb25052",
      "v": 27,
      "creates": null,
      "raw": "0xf86e8203f6850d82d1eaf18255f0949e5b4729c3266d77cae7f08c303b191ac4d6b8cd880fa00700147284fc801ba0b673d001a8c8b771fdbeec9a6c187585a06ad09d018cba5c2c7527f31f495ac2a0656c34f60b5801a93bccb1650372c9ab8fe730d95a6a90665e8073b25cb25052",
      "networkId": 0,
      "chainId": 0
    },
    {
      "hash": "0x6a0a1bd543fbbbbc96603d53e378c7b65046f8faa0e14943e0b0110528fc537b",
      "blockHash": "0x6dbfd57cbd33205ddc1ec803db9d3d10235006bca23f5b5051996bdd6a1b479e",
      "blockNumber": 79079,
      "transactionIndex": 9,
      "confirmations": null,
      "from": "0xe6A7a1d47ff21B6321162AEA7C6CB457D5476Bca",
      "gasPrice": {
        "_hex": "0xd82d1eaf1"
      },
      "gasLimit": {
        "_hex": "0x55f0"
      },
      "to": "0x1a5d2F51cBF3F488892363D5A3CD7D79e72612d6",
      "value": {
        "_hex": "0xfa4640ef790b154"
      },
      "nonce": 1015,
      "data": "0x",
      "r": "0xe714f5f5ed2857faf79ad02a0c14c4dd5738b4e88994bc69597e6ab84d604f8b",
      "s": "0x08570e2400af33710d18889bf5ab617427a8c612fe525d4183ad7613f8c216a2",
      "v": 27,
      "creates": null,
      "raw": "0xf86e8203f7850d82d1eaf18255f0941a5d2f51cbf3f488892363d5a3cd7d79e72612d6880fa4640ef790b154801ba0e714f5f5ed2857faf79ad02a0c14c4dd5738b4e88994bc69597e6ab84d604f8ba008570e2400af33710d18889bf5ab617427a8c612fe525d4183ad7613f8c216a2",
      "networkId": 0,
      "chainId": 0
    },
    {
      "hash": "0x999f42ec2f200193d8292c9e0f5c438fdee6a128fa8226ca132f25db167e1d44",
      "blockHash": "0x6dbfd57cbd33205ddc1ec803db9d3d10235006bca23f5b5051996bdd6a1b479e",
      "blockNumber": 79079,
      "transactionIndex": 10,
      "confirmations": null,
      "from": "0xe6A7a1d47ff21B6321162AEA7C6CB457D5476Bca",
      "gasPrice": {
        "_hex": "0xd82d1eaf1"
      },
      "gasLimit": {
        "_hex": "0x55f0"
      },
      "to": "0x144BC9FE471D3C71D8e09D58060d78661B1D4F32",
      "value": {
        "_hex": "0xfa5b53b907f37f4"
      },
      "nonce": 1016,
      "data": "0x",
      "r": "0x533cd3fcad7db5b24a8f2538b7879ca2ae5d78f11a5911233e7314035d3428b9",
      "s": "0x59c8a41df065426b4cc97252062293b2a84c000efbbaa3856b898e3f75f13e60",
      "v": 27,
      "creates": null,
      "raw": "0xf86e8203f8850d82d1eaf18255f094144bc9fe471d3c71d8e09d58060d78661b1d4f32880fa5b53b907f37f4801ba0533cd3fcad7db5b24a8f2538b7879ca2ae5d78f11a5911233e7314035d3428b9a059c8a41df065426b4cc97252062293b2a84c000efbbaa3856b898e3f75f13e60",
      "networkId": 0,
      "chainId": 0
    },
    {
      "hash": "0x1df2460a5f263f57581a7cb77f51b16802fd20cd734a5ae881f79816e4d03902",
      "blockHash": "0x6dbfd57cbd33205ddc1ec803db9d3d10235006bca23f5b5051996bdd6a1b479e",
      "blockNumber": 79079,
      "transactionIndex": 11,
      "confirmations": null,
      "from": "0xe6A7a1d47ff21B6321162AEA7C6CB457D5476Bca",
      "gasPrice": {
        "_hex": "0xd82d1eaf1"
      },
      "gasLimit": {
        "_hex": "0x55f0"
      },
      "to": "0x60c84CBDBAc16e3cd806520Ab204029D7aab5588",
      "value": {
        "_hex": "0xfc137a818152908"
      },
      "nonce": 1017,
      "data": "0x",
      "r": "0x8ccf197e16337a48aa97c983ed9114450219f30540c0f46b3f07eb09a7715320",
      "s": "0x300e4ed38af4c7cc9136c09bd133b193290b131452fa0d8c106198f4b7df4501",
      "v": 27,
      "creates": null,
      "raw": "0xf86e8203f9850d82d1eaf18255f09460c84cbdbac16e3cd806520ab204029d7aab5588880fc137a818152908801ba08ccf197e16337a48aa97c983ed9114450219f30540c0f46b3f07eb09a7715320a0300e4ed38af4c7cc9136c09bd133b193290b131452fa0d8c106198f4b7df4501",
      "networkId": 0,
      "chainId": 0
    },
    {
      "hash": "0x336c5e9e841dec45259c43dcb17204a5af3887a7d6c41f04819788f34f5e853b",
      "blockHash": "0x6dbfd57cbd33205ddc1ec803db9d3d10235006bca23f5b5051996bdd6a1b479e",
      "blockNumber": 79079,
      "transactionIndex": 12,
      "confirmations": null,
      "from": "0xe6A7a1d47ff21B6321162AEA7C6CB457D5476Bca",
      "gasPrice": {
        "_hex": "0xd82d1eaf1"
      },
      "gasLimit": {
        "_hex": "0x55f0"
      },
      "to": "0xe1d9d0792E4175fbd6FA9Ab344AE5b1F9B0D78B2",
      "value": {
        "_hex": "0xfcc862a221bb800"
      },
      "nonce": 1018,
      "data": "0x",
      "r": "0x7aa7bf59f068e7092cda4b5d5f35af811cf5cb1b5161c278bbba9f00cbf0d304",
      "s": "0x2795faf02be4d14222d6697b677de326cf9676299a62cbf53f404bfe3a2a87e6",
      "v": 27,
      "creates": null,
      "raw": "0xf86e8203fa850d82d1eaf18255f094e1d9d0792e4175fbd6fa9ab344ae5b1f9b0d78b2880fcc862a221bb800801ba07aa7bf59f068e7092cda4b5d5f35af811cf5cb1b5161c278bbba9f00cbf0d304a02795faf02be4d14222d6697b677de326cf9676299a62cbf53f404bfe3a2a87e6",
      "networkId": 0,
      "chainId": 0
    },
    {
      "hash": "0x39151af7c37c6aada4c0ce7a98f0e595419368001451509f91e16cb326fbb705",
      "blockHash": "0x6dbfd57cbd33205ddc1ec803db9d3d10235006bca23f5b5051996bdd6a1b479e",
      "blockNumber": 79079,
      "transactionIndex": 13,
      "confirmations": null,
      "from": "0xe6A7a1d47ff21B6321162AEA7C6CB457D5476Bca",
      "gasPrice": {
        "_hex": "0xd82d1eaf1"
      },
      "gasLimit": {
        "_hex": "0x55f0"
      },
      "to": "0x04d6C4A9e21ABAea1060Fc39e42F8667Bf14Fcb7",
      "value": {
        "_hex": "0xfe2a2933fe5f828"
      },
      "nonce": 1019,
      "data": "0x",
      "r": "0x9c98d031eaa69b934000ef39b43f9fcfd204c115130d9ca3e37ef16ad01ef000",
      "s": "0x3326bf8d5e8ad0147c7560e5c964937c9ef34d624771030c93645202745e4fc4",
      "v": 28,
      "creates": null,
      "raw": "0xf86e8203fb850d82d1eaf18255f09404d6c4a9e21abaea1060fc39e42f8667bf14fcb7880fe2a2933fe5f828801ca09c98d031eaa69b934000ef39b43f9fcfd204c115130d9ca3e37ef16ad01ef000a03326bf8d5e8ad0147c7560e5c964937c9ef34d624771030c93645202745e4fc4",
      "networkId": 0,
      "chainId": 0
    },
    {
      "hash": "0x4e45a85702518c242a1ac7e42cc00321183a6e976992f0500c2efd4bb0e2ca68",
      "blockHash": "0x6dbfd57cbd33205ddc1ec803db9d3d10235006bca23f5b5051996bdd6a1b479e",
      "blockNumber": 79079,
      "transactionIndex": 14,
      "confirmations": null,
      "from": "0xe6A7a1d47ff21B6321162AEA7C6CB457D5476Bca",
      "gasPrice": {
        "_hex": "0xd82d1eaf1"
      },
      "gasLimit": {
        "_hex": "0x55f0"
      },
      "to": "0xA4443808F939D8F77f6f6F4bE908490Ef9a3e7e5",
      "value": {
        "_hex": "0xfe3ba85c677d414"
      },
      "nonce": 1020,
      "data": "0x",
      "r": "0x58a5d8565d1a9b227ebe068ee3f76ac65ed2df137e6902509a020648e5b694e5",
      "s": "0x3609a17cb968f653001158ce95404becc4d14dda87119c221e2274be2a616ba0",
      "v": 27,
      "creates": null,
      "raw": "0xf86e8203fc850d82d1eaf18255f094a4443808f939d8f77f6f6f4be908490ef9a3e7e5880fe3ba85c677d414801ba058a5d8565d1a9b227ebe068ee3f76ac65ed2df137e6902509a020648e5b694e5a03609a17cb968f653001158ce95404becc4d14dda87119c221e2274be2a616ba0",
      "networkId": 0,
      "chainId": 0
    },
    {
      "hash": "0x7e6b6bfc89f15afa6466dcbda0565f5393b374c43608d3870067fe5cc0a3ac97",
      "blockHash": "0x6dbfd57cbd33205ddc1ec803db9d3d10235006bca23f5b5051996bdd6a1b479e",
      "blockNumber": 79079,
      "transactionIndex": 15,
      "confirmations": null,
      "from": "0xe6A7a1d47ff21B6321162AEA7C6CB457D5476Bca",
      "gasPrice": {
        "_hex": "0xd82d1eaf1"
      },
      "gasLimit": {
        "_hex": "0x55f0"
      },
      "to": "0x58A17909eDC491750161050e0F3E4f0eE68Fe669",
      "value": {
        "_hex": "0x101598eae3cf5d28"
      },
      "nonce": 1021,
      "data": "0x",
      "r": "0x0a83299ce3caa5617f4248a539fbfff81157e893ecaa03c8131c92d926033446",
      "s": "0x0333a26cd2e95c30c69feedd4eda57819d36d2ab86dbf53f5b2a8fe7bc08a70f",
      "v": 27,
      "creates": null,
      "raw": "0xf86e8203fd850d82d1eaf18255f09458a17909edc491750161050e0f3e4f0ee68fe66988101598eae3cf5d28801ba00a83299ce3caa5617f4248a539fbfff81157e893ecaa03c8131c92d926033446a00333a26cd2e95c30c69feedd4eda57819d36d2ab86dbf53f5b2a8fe7bc08a70f",
      "networkId": 0,
      "chainId": 0
    },
    {
      "hash": "0x109ad97d7fb46839b8cf605035bc84384c005f6e7df15394c9f5b2af8e4804e6",
      "blockHash": "0x6dbfd57cbd33205ddc1ec803db9d3d10235006bca23f5b5051996bdd6a1b479e",
      "blockNumber": 79079,
      "transactionIndex": 16,
      "confirmations": null,
      "from": "0xe6A7a1d47ff21B6321162AEA7C6CB457D5476Bca",
      "gasPrice": {
        "_hex": "0xd82d1eaf1"
      },
      "gasLimit": {
        "_hex": "0x55f0"
      },
      "to": "0x87F0CDC55E68055E6dbBa5d6ffcB02DC53dc41b4",
      "value": {
        "_hex": "0x101c8cdcaba636a0"
      },
      "nonce": 1022,
      "data": "0x",
      "r": "0xbc48baf64cda9c99a4b5cea185c6c29343657ebf5cba328eb2f2e958ded1b7b1",
      "s": "0x0f877ff27db6915723f2ec5106a6e1d9d18f8c4b1b9c23e95c0d9ce73fb2a630",
      "v": 28,
      "creates": null,
      "raw": "0xf86e8203fe850d82d1eaf18255f09487f0cdc55e68055e6dbba5d6ffcb02dc53dc41b488101c8cdcaba636a0801ca0bc48baf64cda9c99a4b5cea185c6c29343657ebf5cba328eb2f2e958ded1b7b1a00f877ff27db6915723f2ec5106a6e1d9d18f8c4b1b9c23e95c0d9ce73fb2a630",
      "networkId": 0,
      "chainId": 0
    },
    {
      "hash": "0x3805da5a2db336f7b26481940fbf740611b0fd512a4769dd8e654993b8d6298c",
      "blockHash": "0x6dbfd57cbd33205ddc1ec803db9d3d10235006bca23f5b5051996bdd6a1b479e",
      "blockNumber": 79079,
      "transactionIndex": 17,
      "confirmations": null,
      "from": "0xe6A7a1d47ff21B6321162AEA7C6CB457D5476Bca",
      "gasPrice": {
        "_hex": "0xd82d1eaf1"
      },
      "gasLimit": {
        "_hex": "0x55f0"
      },
      "to": "0xa1F06Ac44D11e33a70B43C8B3B45F877B4CAEFC8",
      "value": {
        "_hex": "0x10353b9ebc8caaec"
      },
      "nonce": 1023,
      "data": "0x",
      "r": "0x6e9560f5a0ba3fbe60e43313d945e09a2877cb026b2636b3567632d0df3b5f39",
      "s": "0x440b639f922281d70a5fe3aa2023ec288a862509692e2d6322490da7d7d5e44e",
      "v": 27,
      "creates": null,
      "raw": "0xf86e8203ff850d82d1eaf18255f094a1f06ac44d11e33a70b43c8b3b45f877b4caefc88810353b9ebc8caaec801ba06e9560f5a0ba3fbe60e43313d945e09a2877cb026b2636b3567632d0df3b5f39a0440b639f922281d70a5fe3aa2023ec288a862509692e2d6322490da7d7d5e44e",
      "networkId": 0,
      "chainId": 0
    },
    {
      "hash": "0x510987c327fbfb4fa22eabacfb77d299e3a8a9a516076e5c193740f2a6e05bf2",
      "blockHash": "0x6dbfd57cbd33205ddc1ec803db9d3d10235006bca23f5b5051996bdd6a1b479e",
      "blockNumber": 79079,
      "transactionIndex": 18,
      "confirmations": null,
      "from": "0xe6A7a1d47ff21B6321162AEA7C6CB457D5476Bca",
      "gasPrice": {
        "_hex": "0xd82d1eaf1"
      },
      "gasLimit": {
        "_hex": "0x55f0"
      },
      "to": "0xFc8bc4ed86dF73001ce6082F3dB914d7c7A9a6cC",
      "value": {
        "_hex": "0x10657bb7217a2b18"
      },
      "nonce": 1024,
      "data": "0x",
      "r": "0x39368c5c2e15a96e92f25451b075ad9c59d326e8659d8504dbe3998f071035ee",
      "s": "0x3bf0e88d5626184b909c55ecadca8a6163d4f5fe7f343be223a21245d3a6050e",
      "v": 27,
      "creates": null,
      "raw": "0xf86e820400850d82d1eaf18255f094fc8bc4ed86df73001ce6082f3db914d7c7a9a6cc8810657bb7217a2b18801ba039368c5c2e15a96e92f25451b075ad9c59d326e8659d8504dbe3998f071035eea03bf0e88d5626184b909c55ecadca8a6163d4f5fe7f343be223a21245d3a6050e",
      "networkId": 0,
      "chainId": 0
    },
    {
      "hash": "0xd812ac33b6f4ff157ada1ac120381933f7b1cbdd63e4f8c1c6c2a0c60de06e8f",
      "blockHash": "0x6dbfd57cbd33205ddc1ec803db9d3d10235006bca23f5b5051996bdd6a1b479e",
      "blockNumber": 79079,
      "transactionIndex": 19,
      "confirmations": null,
      "from": "0xe6A7a1d47ff21B6321162AEA7C6CB457D5476Bca",
      "gasPrice": {
        "_hex": "0xd82d1eaf1"
      },
      "gasLimit": {
        "_hex": "0x55f0"
      },
      "to": "0x357A01795bfA480a007fB4B1B6eDf2e8C23f1840",
      "value": {
        "_hex": "0x1093c255565b5808"
      },
      "nonce": 1025,
      "data": "0x",
      "r": "0xf94a7af1617f1a9053200f504010e900c5dd0cf262c61fcd15102abac157ad56",
      "s": "0x53dd7862195055a73aa1ae945ca3090c7f84a65f1831776784c78b5732be7970",
      "v": 27,
      "creates": null,
      "raw": "0xf86e820401850d82d1eaf18255f094357a01795bfa480a007fb4b1b6edf2e8c23f1840881093c255565b5808801ba0f94a7af1617f1a9053200f504010e900c5dd0cf262c61fcd15102abac157ad56a053dd7862195055a73aa1ae945ca3090c7f84a65f1831776784c78b5732be7970",
      "networkId": 0,
      "chainId": 0
    },
    {
      "hash": "0x84f4e398473c27505d715672983fa7d436cca3a94e73810cebdc15bcc6ae206d",
      "blockHash": "0x6dbfd57cbd33205ddc1ec803db9d3d10235006bca23f5b5051996bdd6a1b479e",
      "blockNumber": 79079,
      "transactionIndex": 20,
      "confirmations": null,
      "from": "0xe6A7a1d47ff21B6321162AEA7C6CB457D5476Bca",
      "gasPrice": {
        "_hex": "0xd82d1eaf1"
      },
      "gasLimit": {
        "_hex": "0x55f0"
      },
      "to": "0xD72ab61a64fEAeE7b5EB3D42B5445858B95d38fd",
      "value": {
        "_hex": "0x1096f8456fa21f08"
      },
      "nonce": 1026,
      "data": "0x",
      "r": "0x3cd3b78cdb539eac467c69ee769199aef14ebdc7f24b2763cbe3bb6157bc9a94",
      "s": "0x60113064d55ff1682393737da9268c74f6b8358d54900579029bfa75c51cd927",
      "v": 28,
      "creates": null,
      "raw": "0xf86e820402850d82d1eaf18255f094d72ab61a64feaee7b5eb3d42b5445858b95d38fd881096f8456fa21f08801ca03cd3b78cdb539eac467c69ee769199aef14ebdc7f24b2763cbe3bb6157bc9a94a060113064d55ff1682393737da9268c74f6b8358d54900579029bfa75c51cd927",
      "networkId": 0,
      "chainId": 0
    },
    {
      "hash": "0x31b74a1465985fca5b9ae2da17187f2b795c17c453fc3dfcf8764af7ed8181ed",
      "blockHash": "0x6dbfd57cbd33205ddc1ec803db9d3d10235006bca23f5b5051996bdd6a1b479e",
      "blockNumber": 79079,
      "transactionIndex": 21,
      "confirmations": null,
      "from": "0xe6A7a1d47ff21B6321162AEA7C6CB457D5476Bca",
      "gasPrice": {
        "_hex": "0xd82d1eaf1"
      },
      "gasLimit": {
        "_hex": "0x55f0"
      },
      "to": "0x6fa7a51725800Af7973be549ac5c5Bb2c057DE37",
      "value": {
        "_hex": "0x10b96bb2a2b3f4f4"
      },
      "nonce": 1027,
      "data": "0x",
      "r": "0xc08718dc23f39bc44301553951035d23eec85e0bc9571ca95405cd5e8f8bbcc1",
      "s": "0x18148308d459fee787029c072a8d5089acd006fc55e98b024686c1b916a16fe8",
      "v": 28,
      "creates": null,
      "raw": "0xf86e820403850d82d1eaf18255f0946fa7a51725800af7973be549ac5c5bb2c057de378810b96bb2a2b3f4f4801ca0c08718dc23f39bc44301553951035d23eec85e0bc9571ca95405cd5e8f8bbcc1a018148308d459fee787029c072a8d5089acd006fc55e98b024686c1b916a16fe8",
      "networkId": 0,
      "chainId": 0
    },
    {
      "hash": "0x522023bc0369731235587f4218ed9109bd3c1cda27abb1645211269474ee8901",
      "blockHash": "0x6dbfd57cbd33205ddc1ec803db9d3d10235006bca23f5b5051996bdd6a1b479e",
      "blockNumber": 79079,
      "transactionIndex": 22,
      "confirmations": null,
      "from": "0xe6A7a1d47ff21B6321162AEA7C6CB457D5476Bca",
      "gasPrice": {
        "_hex": "0xd82d1eaf1"
      },
      "gasLimit": {
        "_hex": "0x55f0"
      },
      "to": "0x5C6935CC46A0ccd4f0E1eb8c27103e46AA9517dB",
      "value": {
        "_hex": "0x10e4c228403b8de4"
      },
      "nonce": 1028,
      "data": "0x",
      "r": "0xd2c1fa5b87c24f367c9fd7adabfaad15f6e0c6ec9715ea23a69fab57873165d5",
      "s": "0x46648d00d207fd1dc4bec440a8621cb5eee79136f696387aaab405f05bfc85b1",
      "v": 27,
      "creates": null,
      "raw": "0xf86e820404850d82d1eaf18255f0945c6935cc46a0ccd4f0e1eb8c27103e46aa9517db8810e4c228403b8de4801ba0d2c1fa5b87c24f367c9fd7adabfaad15f6e0c6ec9715ea23a69fab57873165d5a046648d00d207fd1dc4bec440a8621cb5eee79136f696387aaab405f05bfc85b1",
      "networkId": 0,
      "chainId": 0
    }
  ]
}