{
  "hash": "0x3e638c0fe1793b8ffa8145d502b39f4dd0663ed00898d36f88f071f24d60305c",
  "parentHash": "0x4c38cd4e68f8faceda838ff935a7d09251b6f0bde06fe6784c61fbee5c1b59c4",
  "number": 110339,
  "timestamp": 1439972051,
  "nonce": "0x15127d3b9334a7b5",
  "difficulty": 4367101433612,
  "gasLimit": {
    "_hex": "0x2fefd8"
  },
  "gasUsed": {
    "_hex": "0xa410"
  },
  "miner": "0xe6A7a1d47ff21B6321162AEA7C6CB457D5476Bca",
  "extraData": "0x476574682f76312e302e312d38326566323666362f6c696e75782f676f312e34",
  "transactions": [
    {
      "hash": "0xcedba4686a43fbb349c43295e4d60487321b202fc98479e2d9545659e7006b57",
      "blockHash": "0x3e638c0fe1793b8ffa8145d502b39f4dd0663ed00898d36f88f071f24d60305c",
      "blockNumber": 110339,
      "transactionIndex": 0,
      "confirmations": null,
      "from": "0xe6A7a1d47ff21B6321162AEA7C6CB457D5476Bca",
      "gasPrice": {
        "_hex": "0xcf8cbbd08"
      },
      "gasLimit": {
        "_hex": "0x55f0"
      },
      "to": "0x314D012beD8f104C4ab11ad41B96b2c5Ecf7B96c",
      "value": {
        "_hex": "0x5e25e7ed44dd1c18"
      },
      "nonce": 4343,
      "data": "0x",
      "r": "0xc9ac2425fa469aa3e0158017701616ad26bc3d22c7cf77fb050f1bfddf79e1cb",
      "s": "0x0dc87dfd9fd4f1a6c7baf068fcb8528fc1d198ece0157717f0b18ac9c6ff0868",
      "v": 27,
      "creates": null,
      "raw": "0xf86e8210f7850cf8cbbd088255f094314d012bed8f104c4ab11ad41b96b2c5ecf7b96c885e25e7ed44dd1c18801ba0c9ac2425fa469aa3e0158017701616ad26bc3d22c7cf77fb050f1bfddf79e1cba00dc87dfd9fd4f1a6c7baf068fcb8528fc1d198ece0157717f0b18ac9c6ff0868",
      "networkId": 0,
      "chainId": 0
    },
    {
      "hash": "0xe05636a2a5852d1e1f08ca5da3daef7db907f55bd8fcf56d6c0554c7d41a8c38",
      "blockHash": "0x3e638c0fe1793b8ffa8145d502b39f4dd0663ed00898d36f88f071f24d60305c",
      "blockNumber": 110339,
      "transactionIndex": 1,
      "confirmations": null,
      "from": "0xe6A7a1d47ff21B6321162AEA7C6CB457D5476Bca",
      "gasPrice": {
        "_hex": "0xcf8cbbd08"
      },
      "gasLimit": {
        "_hex": "0x55f0"
      },
      "to": "0x72dcecdD4a7374231676f7fA910A678DfC7c98D6",
      "value": {
        "_hex": "0x5eca0f50af628440"
      },
      "nonce": 4344,
      "data": "0x",
      "r": "0x1dddb17cd70e96013b5503e08f44a232004b920d759590cc1435d06abb4f0929",
      "s": "0x0475cdbd5d2044b54a538b98d56029539a8e3e369418fe45f3a2895dc751d545",
      "v": 28,
      "creates": null,
      "raw": "0xf86e8210f8850cf8cbbd088255f09472dcecdd4a7374231676f7fa910a678dfc7c98d6885eca0f50af628440801ca01dddb17cd70e96013b5503e08f44a232004b920d759590cc1435d06abb4f0929a00475cdbd5d2044b54a538b98d56029539a8e3e369418fe45f3a2895dc751d545",
      "networkId": 0,
      "chainId": 0
    }
  ]
}