{
  "hash": "0xed32f52944a5a0c56e4e18d622d57a05ab68948ebd00607935a1d8886d90dd80",
  "parentHash": "0x244f5d4a857fd4bda682b0866d2053c15445125678a47c6430b60f65a40c8cb3",
  "number": 70760,
  "timestamp": 1439325176,
  "nonce": "0x118fd32bc26343aa",
  "difficulty": 2131124257063,
  "gasLimit": {
    "_hex": "0x2fefd8"
  },
  "gasUsed": {
    "_hex": "0xa410"
  },
  "miner": "0xe6A7a1d47ff21B6321162AEA7C6CB457D5476Bca",
  "extraData": "0x476574682f76312e302e312d38326566323666362f6c696e75782f676f312e34",
  "transactions": [
    {
      "hash": "0xcb1a471118c5a6c0f5b91a8195c01d7ac7a1748fc0ee18d17508e0346e843b0d",
      "blockHash": "0xed32f52944a5a0c56e4e18d622d57a05ab68948ebd00607935a1d8886d90dd80",
      "blockNumber": 70760,
      "transactionIndex": 0,
      "confirmations": null,
      "from": "0xb50405193Dc0c7077dD65252C15C39242F0aCB76",
      "gasPrice": {
        "_hex": "0xd1f894c1b"
      },
      "gasLimit": {
        "_hex": "0x5208"
      },
      "to": "0x32Be343B94f860124dC4fEe278FDCBD38C102D88",
      "value": {
        "_hex": "0x176af1bc8b7c59000"
      },
      "nonce": 2,
      "data": "0x",
      "r": "0x3d905454f5aa6662ce636b5cfa7bce0b349452cd7b322493cfd407da9fff288a",
      "s": "0x5de3a47793d3163d50c56b848cde6c600ea5c7ece32b6b8c99291e6e493f8fae",
      "v": 27,
      "creates": null,
      "raw": "0xf86d02850d1f894c1b8252089432be343b94f860124dc4fee278fdcbd38c102d88890176af1bc8b7c59000801ba03d905454f5aa6662ce636b5cfa7bce0b349452cd7b322493cfd407da9fff288aa05de3a47793d3163d50c56b848cde6c600ea5c7ece32b6b8c99291e6e493f8fae",
      "networkId": 0,
      "chainId": 0
    },
    {
      "hash": "0x2e11ab2e9b7d04a0fd363e33b03f19d342630aa05ce58c089fbba235ae1c26a4",
      "blockHash": "0xed32f52944a5a0c56e4e18d622d57a05ab68948ebd00607935a1d8886d90dd80",
      "blockNumber": 70760,
      "transactionIndex": 1,
      "confirmations": null,
      "from": "0xa70a9a7040d542C632D8e0bE7c5513A8a5Bbc752",
      "gasPrice": {
        "_hex": "0xd1f894c1b"
      },
      "gasLimit": {
        "_hex": "0x5208"
      },
      "to": "0x32Be343B94f860124dC4fEe278FDCBD38C102D88",
      "value": {
        "_hex": "0x455f5cfe9b361000"
      },
      "nonce": 11,
      "data": "0x",
      "r": "0x21d82445f2a36f95da708d43fa83c6f63eb8dbdb96e325651f44171e90d93158",
      "s": "0x28239cc6cfbadf2868bb9628aa22efbf0c10a7ffa0f7f8dac2e8f6ed62f71592",
      "v": 28,
      "creates": null,
      "raw": "0xf86c0b850d1f894c1b8252089432be343b94f860124dc4fee278fdcbd38c102d8888455f5cfe9b361000801ca021d82445f2a36f95da708d43fa83c6f63eb8dbdb96e325651f44171e90d93158a028239cc6cfbadf2868bb9628aa22efbf0c10a7ffa0f7f8dac2e8f6ed62f71592",
      "networkId": 0,
      "chainId": 0
    }
  ]
}