{
  "hash": "0x33bdc23b026d6b14fa4a4a20d6443bfcf668efdb8678fcdb41aff0b082f227fe",
  "parentHash": "0xce4f60e6b8187e7fb2dddf7f16c868c2f190a4bf1aa82c50d62c8727d3ac1083",
  "number": 69263,
  "timestamp": 1439300743,
  "nonce": "0x5f6eee9e84c5c4fd",
  "difficulty": 2070975020936,
  "gasLimit": {
    "_hex": "0x2fefd8"
  },
  "gasUsed": {
    "_hex": "0xa410"
  },
  "miner": "0xf927a40C8B7F6E07c5af7FA2155B4864a4112B13",
  "extraData": "0x",
  "transactions": [
    {
      "hash": "0x67d5b3051f82c92fdc896600e65716f197b495a954cc1277a13089abc7e241da",
      "blockHash": "0x33bdc23b026d6b14fa4a4a20d6443bfcf668efdb8678fcdb41aff0b082f227fe",
      "blockNumber": 69263,
      "transactionIndex": 0,
      "confirmations": null,
      "from": "0xe6A7a1d47ff21B6321162AEA7C6CB457D5476Bca",
      "gasPrice": {
        "_hex": "0xcde4d1488"
      },
      "gasLimit": {
        "_hex": "0x55f0"
      },
      "to": "0xB06c47325B63091CF8555d4709bC8fA20AAE1E49",
      "value": {
        "_hex": "0x10a67758032ea110"
      },
      "nonce": 521,
      "data": "0x",
      "r": "0x7301bec63c1963fc7edd89448e69e53b5c54902dc7032d5ccf6cfaa95334bd78",
      "s": "0x442a9478085a8356956ebe143898b569ab75395d88a450fed8821ef251d0a119",
      "v": 28,
      "creates": null,
      "raw": "0xf86e820209850cde4d14888255f094b06c47325b63091cf8555d4709bc8fa20aae1e498810a67758032ea110801ca07301bec63c1963fc7edd89448e69e53b5c54902dc7032d5ccf6cfaa95334bd78a0442a9478085a8356956ebe143898b569ab75395d88a450fed8821ef251d0a119",
      "networkId": 0,
      "chainId": 0
    },
    {
      "hash": "0x4838bbddf6bb87fcd5c275b2ff13d47fb106b14672ade769d029a10c7038577c",
      "blockHash": "0x33bdc23b026d6b14fa4a4a20d6443bfcf668efdb8678fcdb41aff0b082f227fe",
      "blockNumber": 69263,
      "transactionIndex": 1,
      "confirmations": null,
      "from": "0xe6A7a1d47ff21B6321162AEA7C6CB457D5476Bca",
      "gasPrice": {
        "_hex": "0xcde4d1488"
      },
      "gasLimit": {
        "_hex": "0x55f0"
      },
      "to": "0x62C0628EeA08203A030EE278217315fD43A5d57A",
      "value": {
        "_hex": "0x1102a8a3f6d68930"
      },
      "nonce": 522,
      "data": "0x",
      "r": "0x462d91dcd042c3c14920e3eebd5d37119dd4159005986a1df9d9c3862b2b6ab9",
      "s": "0x51c19ba4ee0d58a4a9bc12aeae3e065173073671ad3e2b958d13bed738b6eb3d",
      "v": 27,
      "creates": null,
      "raw": "0xf86e82020a850cde4d14888255f09462c0628eea08203a030ee278217315fd43a5d57a881102a8a3f6d68930801ba0462d91dcd042c3c14920e3eebd5d37119dd4159005986a1df9d9c3862b2b6ab9a051c19ba4ee0d58a4a9bc12aeae3e065173073671ad3e2b958d13bed738b6eb3d",
      "networkId": 0,
      "chainId": 0
    }
  ]
}