{
  "hash": "0x44a5c59f9aec8ac6a4a839eb36bcde541c10c32c35e46d9b2ec67e9e186876f1",
  "parentHash": "0x6b2806ab60f3083d9e58214ecdf42464468d432f6eff7603854aac53d88c610b",
  "number": 110433,
  "timestamp": 1439973718,
  "nonce": "0x12c8553049a5e3fa",
  "difficulty": 4379865357367,
  "gasLimit": {
    "_hex": "0x2fefd8"
  },
  "gasUsed": {
    "_hex": "0x5208"
  },
  "miner": "0xe6A7a1d47ff21B6321162AEA7C6CB457D5476Bca",
  "extraData": "0x476574682f76312e302e312d38326566323666362f6c696e75782f676f312e34",
  "transactions": [
    {
      "hash": "0x6b5b84398cbb2f98089b1ca0c23ac535134ea415cab17f58e748218caca8232b",
      "blockHash": "0x44a5c59f9aec8ac6a4a839eb36bcde541c10c32c35e46d9b2ec67e9e186876f1",
      "blockNumber": 110433,
      "transactionIndex": 0,
      "confirmations": null,
      "from": "0x93b3437645A67059E280a3317a93c57e2f4788EA",
      "gasPrice": {
        "_hex": "0xd1372525e"
      },
      "gasLimit": {
        "_hex": "0x5208"
      },
      "to": "0x32Be343B94f860124dC4fEe278FDCBD38C102D88",
      "value": {
        "_hex": "0x18acb93fdeb539000"
      },
      "nonce": 7,
      "data": "0x",
      "r": "0xb79c9d2bc5ff24d8b73fe7eac0baea615e6e2cf22078f4d772a6ea520e873694",
      "s": "0x27282e272d49ad3bece886820423a9b0745dce81ff356eea564d77716668628a",
      "v": 27,
      "creates": null,
      "raw": "0xf86d07850d1372525e8252089432be343b94f860124dc4fee278fdcbd38c102d8889018acb93fdeb539000801ba0b79c9d2bc5ff24d8b73fe7eac0baea615e6e2cf22078f4d772a6ea520e873694a027282e272d49ad3bece886820423a9b0745dce81ff356eea564d77716668628a",
      "networkId": 0,
      "chainId": 0
    }
  ]
}