{
  "hash": "0x4dc3aae0a65523ebf5dd2e8c77b04b096ace3c91089a9adaa7edbeca038b7202",
  "parentHash": "0xe7b95eba3c5be2c1443d14941eb0614f90721f08d89c4757217f4df0baa1fd12",
  "number": 49271,
  "timestamp": 1438970855,
  "nonce": "0xb17dc897250f8018",
  "difficulty": 1480695784101,
  "gasLimit": {
    "_hex": "0x2b231"
  },
  "gasUsed": {
    "_hex": "0x5208"
  },
  "miner": "0x72e3Ea8234b449531A581F05f1c1E07cceb559d2",
  "extraData": "0x476574682f76312e302e312f6c696e75782f676f312e342e32",
  "transactions": [
    {
      "hash": "0xdce13673b1ead1aa475e12e3532ec3e789e8cf3182efe5be35a2c3b9d8723776",
      "blockHash": "0x4dc3aae0a65523ebf5dd2e8c77b04b096ace3c91089a9adaa7edbeca038b7202",
      "blockNumber": 49271,
      "transactionIndex": 0,
      "confirmations": null,
      "from": "0x4F177f9D56953DED71a5611F393322C30279895c",
      "gasPrice": {
        "_hex": "0x45d964b800"
      },
      "gasLimit": {
        "_hex": "0x5208"
      },
      "to": "0x38876939fFE3E2F973C27BB77c403BB85CD78645",
      "value": {
        "_hex": "0x541efdbda0c249c00"
      },
      "nonce": 0,
      "data": "0x",
      "r": "0x604fa5e8a570fc8c699fdf163e9bb278b8eac72128e7305faccf5be3b36bdf60",
      "s": "0x052c58897ec8fc05abafc9eddb1cb9284182d871eaac363d5a1ce9fd64c984e4",
      "v": 27,
      "creates": null,
      "raw": "0xf86d808545d964b8008252089438876939ffe3e2f973c27bb77c403bb85cd78645890541efdbda0c249c00801ba0604fa5e8a570fc8c699fdf163e9bb278b8eac72128e7305faccf5be3b36bdf60a0052c58897ec8fc05abafc9eddb1cb9284182d871eaac363d5a1ce9fd64c984e4",
      "networkId": 0,
      "chainId": 0
    }
  ]
}