{
  "hash": "0xd386bc6ca17f37b2ab36622c4b7290f02d855d367d4ed15d0fae88c2f39e96db",
  "parentHash": "0x7e82adf057c8bb5c92b985f0544c592c623088303a3eed3486db19a7b19c31fa",
  "number": 51184,
  "timestamp": 1439000701,
  "nonce": "0xe7edb5207c64bd75",
  "difficulty": 1565861892582,
  "gasLimit": {
    "_hex": "0x978e9"
  },
  "gasUsed": {
    "_hex": "0x5208"
  },
  "miner": "0x9746c7e1ef2bd21FF3997fa467593a89cb852BD0",
  "extraData": "0x476574682f76312e302e312f77696e646f77732f676f312e342e32",
  "transactions": [
    {
      "hash": "0x465c2566c84b0564a0ee836c66c69456c629fb7c17be64d17feb8d9e642c7108",
      "blockHash": "0xd386bc6ca17f37b2ab36622c4b7290f02d855d367d4ed15d0fae88c2f39e96db",
      "blockNumber": 51184,
      "transactionIndex": 0,
      "confirmations": null,
      "from": "0xF13F836dbea154Dd993C658955bA3e7D21A6032B",
      "gasPrice": {
        "_hex": "0xdad655208"
      },
      "gasLimit": {
        "_hex": "0x5208"
      },
      "to": "0x32Be343B94f860124dC4fEe278FDCBD38C102D88",
      "value": {
        "_hex": "0x2b5e368f728e9c0000"
      },
      "nonce": 0,
      "data": "0x",
      "r": "0x51fcc23273517cf7aef814566bf4210ddb8d052bdc80f509a03849e95d9f257f",
      "s": "0x377f863d9b2f0b797530fecbc6c23347f8bbe46ab821a71f0f407b23739836e1",
      "v": 28,
      "creates": null,
      "raw": "0xf86d80850dad6552088252089432be343b94f860124dc4fee278fdcbd38c102d88892b5e368f728e9c0000801ca051fcc23273517cf7aef814566bf4210ddb8d052bdc80f509a03849e95d9f257fa0377f863d9b2f0b797530fecbc6c23347f8bbe46ab821a71f0f407b23739836e1",
      "networkId": 0,
      "chainId": 0
    }
  ]
}