{
  "hash": "0x5015e488cb847ed8956fc40d97bc3f8baf76546b804507b3f8b6f9bd00362ac4",
  "parentHash": "0x8bee153f79fae1d8f2e1b2990ac1c5b7e685ffabe50b53918debe167b9972f6f",
  "number": 84787,
  "timestamp": 1439554582,
  "nonce": "0xa97354b4cd03a717",
  "difficulty": 2628473632181,
  "gasLimit": {
    "_hex": "0x2fefd8"
  },
  "gasUsed": {
    "_hex": "0x14820"
  },
  "miner": "0x0eDEd3DA479d0beF8eeC92A76644D3f4E3C177f7",
  "extraData": "0x476574682f76312e302e312f6c696e75782f676f312e342e32",
  "transactions": [
    {
      "hash": "0x792a618e4fcb90f2490494e3211ea4af18c92fae15949adc936cc189544c968a",
      "blockHash": "0x5015e488cb847ed8956fc40d97bc3f8baf76546b804507b3f8b6f9bd00362ac4",
      "blockNumber": 84787,
      "transactionIndex": 0,
      "confirmations": null,
      "from": "0x32Be343B94f860124dC4fEe278FDCBD38C102D88",
      "gasPrice": {
        "_hex": "0xce7b823c7"
      },
      "gasLimit": {
        "_hex": "0x5208"
      },
      "to": "0xfa72d6482366B60E46D16e94e72775ED53B4836F",
      "value": {
        "_hex": "0x4cef9418abdec8000"
      },
      "nonce": 702,
      "data": "0x",
      "r": "0x32e5cf6132bead06d1a18240252b45b27793e3c04b46161f3fcec00bf688adb1",
      "s": "0x56e41248b24abf4e67e62222f812a45fece166d57dca2e273253d527f64fc6b5",
      "v": 28,
      "creates": null,
      "raw": "0xf86f8202be850ce7b823c782520894fa72d6482366b60e46d16e94e72775ed53b4836f8904cef9418abdec8000801ca032e5cf6132bead06d1a18240252b45b27793e3c04b46161f3fcec00bf688adb1a056e41248b24abf4e67e62222f812a45fece166d57dca2e273253d527f64fc6b5",
      "networkId": 0,
      "chainId": 0
    },
    {
      "hash": "0xefc57a789ba100637cc2646e9a827f95c1260c520eeb6179877076f674f3f3fe",
      "blockHash": "0x5015e488cb847ed8956fc40d97bc3f8baf76546b804507b3f8b6f9bd00362ac4",
      "blockNumber": 84787,
      "transactionIndex": 1,
      "confirmations": null,
      "from": "0x32Be343B94f860124dC4fEe278FDCBD38C102D88",
      "gasPrice": {
        "_hex": "0xce7b823c7"
      },
      "gasLimit": {
        "_hex": "0x5208"
      },
      "to": "0xd63d66704099F24ED9DD6a45BD57b13B872ad515",
      "value": {
        "_hex": "0x9e34b05dd004f0000"
      },
      "nonce": 703,
      "data": "0x",
      "r": "0x77b45f76c3fab16c4ec54fd12919afda1ab753a48ab18c5249162f938609441c",
      "s": "0x38a8b71a4a4a5d8829e6044dbffe7f78e1bbebe96b25b792b867657f3e0ddac3",
      "v": 28,
      "creates": null,
      "raw": "0xf86f8202bf850ce7b823c782520894d63d66704099f24ed9dd6a45bd57b13b872ad5158909e34b05dd004f0000801ca077b45f76c3fab16c4ec54fd12919afda1ab753a48ab18c5249162f938609441ca038a8b71a4a4a5d8829e6044dbffe7f78e1bbebe96b25b792b867657f3e0ddac3",
      "networkId": 0,
      "chainId": 0
    },
    {
      "hash": "0xd6a6a3aa38d948b6e8db6e7f6fbc67affb5fcaad1cab488986f04c51226da782",
      "blockHash": "0x5015e488cb847ed8956fc40d97bc3f8baf76546b804507b3f8b6f9bd00362ac4",
      "blockNumber": 84787,
      "transactionIndex": 2,
      "confirmations": null,
      "from": "0x32Be343B94f860124dC4fEe278FDCBD38C102D88",
      "gasPrice": {
        "_hex": "0xce7b823c7"
      },
      "gasLimit": {
        "_hex": "0x5208"
      },
      "to": "0x0a74B0C23Cb4Fa806CA0C6621318D1c1F2778baF",
      "value": {
        "_hex": "0x8ac7230489e80000"
      },
      "nonce": 704,
      "data": "0x",
      "r": "0xc4cee9bff6e363823aba4116df8a722c3c64b8c7a2e0b9c0140c2df4268b9bed",
      "s": "0x05fb49114a84a3d32b4e22fe7de60b2044e2a1293872a36cc2f5a3de8364642c",
      "v": 28,
      "creates": null,
      "raw": "0xf86e8202c0850ce7b823c7825208940a74b0c23cb4fa806ca0c6621318d1c1f2778baf888ac7230489e80000801ca0c4cee9bff6e363823aba4116df8a722c3c64b8c7a2e0b9c0140c2df4268b9beda005fb49114a84a3d32b4e22fe7de60b2044e2a1293872a36cc2f5a3de8364642c",
      "networkId": 0,
      "chainId": 0
    },
    {
      "hash": "0x1ef2748ad4aaf6834cf91c41d141cb50bc4f747ec62b2b2e3dfc304d5147e183",
      "blockHash": "0x5015e488cb847ed8956fc40d97bc3f8baf76546b804507b3f8b6f9bd00362ac4",
      "blockNumber": 84787,
      "transactionIndex": 3,
      "confirmations": null,
      "from": "0x32Be343B94f860124dC4fEe278FDCBD38C102D88",
      "gasPrice": {
        "_hex": "0xce7b823c7"
      },
      "gasLimit": {
        "_hex": "0x5208"
      },
      "to": "0xfD1e5ef2A7a53dB5Db821C04f6B9A3443eBD1Aa2",
      "value": {
        "_hex": "0x95d311d0bf72000"
      },
      "nonce": 705,
      "data": "0x",
      "r": "0x0de9f71e62fe6a1eacc0b0927ef02516efbdc0e9d49ac4945577bea57b71e512",
      "s": "0x04f1ad3d4ae5687484bdc619daad0781f9727323881b7806a780c9b34d554ca9",
      "v": 27,
      "creates": null,
      "raw": "0xf86e8202c1850ce7b823c782520894fd1e5ef2a7a53db5db821c04f6b9a3443ebd1aa288095d311d0bf72000801ba00de9f71e62fe6a1eacc0b0927ef02516efbdc0e9d49ac4945577bea57b71e512a004f1ad3d4ae5687484bdc619daad0781f9727323881b7806a780c9b34d554ca9",
      "networkId": 0,
      "chainId": 0
    }
  ]
}