{
  "hash": "0x65e5b55b36255e263c12d5a53a802bf08cfc9d50f1725616d87ef6fedf55b5da",
  "parentHash": "0xc603f5fd21f832f6a1db2f22ced4ca216e0b4dd077121e21ba3fa0b35f935908",
  "number": 68879,
  "timestamp": 1439295067,
  "nonce": "0x4c06c2f1a4dadfca",
  "difficulty": 2025070182707,
  "gasLimit": {
    "_hex": "0x2fefd8"
  },
  "gasUsed": {
    "_hex": "0x5208"
  },
  "miner": "0x24A98cf1216cf7af513fc2F21ed7Adb0cb1b1A65",
  "extraData": "0x476574682f76312e302e312f6c696e75782f676f312e342e32",
  "transactions": [
    {
      "hash": "0x59089eb63083b9c6b00e42cadad2823ea1a6b3f5cdf9bf11534496cce1f03db1",
      "blockHash": "0x65e5b55b36255e263c12d5a53a802bf08cfc9d50f1725616d87ef6fedf55b5da",
      "blockNumber": 68879,
      "transactionIndex": 0,
      "confirmations": null,
      "from": "0x6747f922385c9a6F9cfDf095F34345257DD597bE",
      "gasPrice": {
        "_hex": "0xba43b7400"
      },
      "gasLimit": {
        "_hex": "0x5208"
      },
      "to": "0x3BAb1ddedC0e48214279984A1D8A0ef2146a3Bbf",
      "value": {
        "_hex": "0x1fcbfa42bd6000"
      },
      "nonce": 142,
      "data": "0x",
      "r": "0x4846a2dcebd8301d8bb977460c1df85cbd46531401d167acc02bb8a4195c5d59",
      "s": "0x4951a4903ff4348d859dac00508ba690399a9c1d4911102f823e74117ddc0c0b",
      "v": 27,
      "creates": null,
      "raw": "0xf86c818e850ba43b7400825208943bab1ddedc0e48214279984a1d8a0ef2146a3bbf871fcbfa42bd6000801ba04846a2dcebd8301d8bb977460c1df85cbd46531401d167acc02bb8a4195c5d59a04951a4903ff4348d859dac00508ba690399a9c1d4911102f823e74117ddc0c0b",
      "networkId": 0,
      "chainId": 0
    }
  ]
}