{
  "hash": "0x55ecc48c9751db362b9625c2798e290e43829a1c759642ed3fcaf97059908284",
  "parentHash": "0xbeaf195f47308216bdfbdd5407889ef5cc953280a5677033d9295c949f73a493",
  "number": 90454,
  "timestamp": 1439640308,
  "nonce": "0xf82158c528ad8958",
  "difficulty": 3338340620500,
  "gasLimit": {
    "_hex": "0x2fefd8"
  },
  "gasUsed": {
    "_hex": "0x5d9f"
  },
  "miner": "0x47ff6576639c2e94762eA5443978D7681C0E78DC",
  "extraData": "0x476574682f76312e302e312f6c696e75782f676f312e342e32",
  "transactions": [
    {
      "hash": "0x72ef1e96dc3eec5045d401d08af73ed2d84b8e44cdeefa06524f57c81fe88108",
      "blockHash": "0x55ecc48c9751db362b9625c2798e290e43829a1c759642ed3fcaf97059908284",
      "blockNumber": 90454,
      "transactionIndex": 0,
      "confirmations": null,
      "from": "0xD096565b7C7407D06536580355fdd6D239144aa1",
      "gasPrice": {
        "_hex": "0xcba6bf610"
      },
      "gasLimit": {
        "_hex": "0x15f90"
      },
      "to": "0xCAc7000C7dBaa2E33Af15325AF5D435E011C7BdD",
      "value": {
        "_hex": "0x8212d914b891f02e0"
      },
      "nonce": 1,
      "data": "0xb214faa53145534e424d3646530000000000000000000000000000000000000000000000",
      "r": "0xa4cb115a51a08a25eca029ba2c8c95dd3d1488cb03fe539d504c8b4f23b4e34c",
      "s": "0x6e8a44caa8240bf3def38b486879dc18d86e2e3a2598c5fecd5bee9949064304",
      "v": 27,
      "creates": null,
      "raw": "0xf89201850cba6bf61083015f9094cac7000c7dbaa2e33af15325af5d435e011c7bdd8908212d914b891f02e0a4b214faa53145534e424d36465300000000000000000000000000000000000000000000001ba0a4cb115a51a08a25eca029ba2c8c95dd3d1488cb03fe539d504c8b4f23b4e34ca06e8a44caa8240bf3def38b486879dc18d86e2e3a2598c5fecd5bee9949064304",
      "networkId": 0,
      "chainId": 0
    }
  ]
}