{
  "hash": "0x720a164c9afabc365148b6725c12d178ff283b726fc309259b21d5336f8ef531",
  "parentHash": "0x30acfc7ac208962d4d9d18371b7761bc01ecb952f858bc9d54354304b83010b1",
  "number": 69870,
  "timestamp": 1439311105,
  "nonce": "0xf2696edc66f8ab31",
  "difficulty": 2100356974858,
  "gasLimit": {
    "_hex": "0x2fefd8"
  },
  "gasUsed": {
    "_hex": "0x5208"
  },
  "miner": "0x87898CE53471043FcCa0a2aF4E1dC6d8B3fCf607",
  "extraData": "0x",
  "transactions": [
    {
      "hash": "0x9848b09974ce3446ad1e310eb2d2f14a132d4d8dd1a3de3223f043d62121990f",
      "blockHash": "0x720a164c9afabc365148b6725c12d178ff283b726fc309259b21d5336f8ef531",
      "blockNumber": 69870,
      "transactionIndex": 0,
      "confirmations": null,
      "from": "0xA8471786fF71d0F894e60Ab9e3217a7E842c7b38",
      "gasPrice": {
        "_hex": "0xd8364fc25"
      },
      "gasLimit": {
        "_hex": "0x15f90"
      },
      "to": "0x8bad691D78D1023D8d5e31219D9BD792EbD7764c",
      "value": {
        "_hex": "0xb1a2bc2ec50000"
      },
      "nonce": 0,
      "data": "0x",
      "r": "0x97005b19143c2d6868d4804c4bf25064d9e698417cfce33db0ad69d363879cec",
      "s": "0x5aa0e2a1a8747a6aa273b02530cc5f5897e2becd0bffd1fa850fc314361ec348",
      "v": 27,
      "creates": null,
      "raw": "0xf86c80850d8364fc2583015f90948bad691d78d1023d8d5e31219d9bd792ebd7764c87b1a2bc2ec50000801ba097005b19143c2d6868d4804c4bf25064d9e698417cfce33db0ad69d363879ceca05aa0e2a1a8747a6aa273b02530cc5f5897e2becd0bffd1fa850fc314361ec348",
      "networkId": 0,
      "chainId": 0
    }
  ]
}