{
  "hash": "0x43fc8445489b7dab4173ac1d7cc355d9c6dc6d5c8c013dcf3aaa90bfa1d881a7",
  "parentHash": "0xed25f0a3450e589c121e39e5c6f75971794d95495c63a842a1fe2f394fcefdc3",
  "number": 101291,
  "timestamp": 1439820594,
  "nonce": "0xbcddc423e3229f8e",
  "difficulty": 3816889824992,
  "gasLimit": {
    "_hex": "0x2fefd8"
  },
  "gasUsed": {
    "_hex": "0x5208"
  },
  "miner": "0xf927a40C8B7F6E07c5af7FA2155B4864a4112B13",
  "extraData": "0x",
  "transactions": [
    {
      "hash": "0x4f7a2d2e9f2b322dffbb0515e6d99f0e12c08dc8422cbedeb1fc332d84661367",
      "blockHash": "0x43fc8445489b7dab4173ac1d7cc355d9c6dc6d5c8c013dcf3aaa90bfa1d881a7",
      "blockNumber": 101291,
      "transactionIndex": 0,
      "confirmations": null,
      "from": "0xfFcD9CAE6d9f54fd8ae05296F839892677ff6EaA",
      "gasPrice": {
        "_hex": "0xd7daccd67"
      },
      "gasLimit": {
        "_hex": "0x15f90"
      },
      "to": "0xd5d9a0033e6B0A3ba7634d0e1a9055ad5f452C3D",
      "value": {
        "_hex": "0xc328093e61ee40000"
      },
      "nonce": 6,
      "data": "0x",
      "r": "0xc53965d13e391df2803f967848e08c94bc84d4b692a321458411fab1672f498f",
      "s": "0x09f5c42404dc4b0ebca7915a3587898ca5715b221c84191993e8dc86e96ea3f5",
      "v": 27,
      "creates": null,
      "raw": "0xf86e06850d7daccd6783015f9094d5d9a0033e6b0a3ba7634d0e1a9055ad5f452c3d890c328093e61ee40000801ba0c53965d13e391df2803f967848e08c94bc84d4b692a321458411fab1672f498fa009f5c42404dc4b0ebca7915a3587898ca5715b221c84191993e8dc86e96ea3f5",
      "networkId": 0,
      "chainId": 0
    }
  ]
}