{
  "hash": "0x3e1218fa17677c9daedd3a4a0dcaad3e5b509b47c260c4d824ab271177be9cee",
  "parentHash": "0x74c0c956f9622562b5a82fd0909d4e76918424d5126945571c11679c360388f6",
  "number": 83035,
  "timestamp": 1439528824,
  "nonce": "0x6239c107258b7978",
  "difficulty": 2412526787094,
  "gasLimit": {
    "_hex": "0x2fefd5"
  },
  "gasUsed": {
    "_hex": "0x5208"
  },
  "miner": "0xe6A7a1d47ff21B6321162AEA7C6CB457D5476Bca",
  "extraData": "0x476574682f76312e302e312d38326566323666362f6c696e75782f676f312e34",
  "transactions": [
    {
      "hash": "0xb5cc32055a60b98a799270b648d64de7ed277dbf295e9dced6d592707b2bbfa6",
      "blockHash": "0x3e1218fa17677c9daedd3a4a0dcaad3e5b509b47c260c4d824ab271177be9cee",
      "blockNumber": 83035,
      "transactionIndex": 0,
      "confirmations": null,
      "from": "0x5a09fCD65081Be9d1baFa0493697d85AeCBb22AE",
      "gasPrice": {
        "_hex": "0xba43b7400"
      },
      "gasLimit": {
        "_hex": "0x5267"
      },
      "to": "0x1527fcd698B3A8707bb745F80ab114FfF3Db35E2",
      "value": {
        "_hex": "0xe2d2b071af5000"
      },
      "nonce": 4,
      "data": "0x",
      "r": "0x015cf69553bfb182a07b8f4b0fce84cc9160e0b15939ad6938d05923ba7c9215",
      "s": "0x9c6f409313c626084f5601b7f43bf082b14480a47a814b40d9a23b7ae59d396f",
      "v": 27,
      "creates": null,
      "raw": "0xf86b04850ba43b7400825267941527fcd698b3a8707bb745f80ab114fff3db35e287e2d2b071af5000801ba0015cf69553bfb182a07b8f4b0fce84cc9160e0b15939ad6938d05923ba7c9215a09c6f409313c626084f5601b7f43bf082b14480a47a814b40d9a23b7ae59d396f",
      "networkId": 0,
      "chainId": 0
    }
  ]
}