{
  "hash": "0xbf2e6ba1c01dffe9502118a12e30346556e81b1012098515f40ce890450ffa5e",
  "parentHash": "0x9a92a79796a43d6b13d1a2d09c7d16f4d7dea2f01298037c974ddfc7bdc81fe4",
  "number": 74825,
  "timestamp": 1439393076,
  "nonce": "0xe8acb7cfd34bc6d3",
  "difficulty": 2190209296236,
  "gasLimit": {
    "_hex": "0x2fefd8"
  },
  "gasUsed": {
    "_hex": "0x5208"
  },
  "miner": "0x9D49F602b0fdb924Bd63DDE2Bd0907E4A07c63a7",
  "extraData": "0x476574682f76312e302e312f6c696e75782f676f312e342e32",
  "transactions": [
    {
      "hash": "0x3ec3bf561ff0d8bdca3cdaa69c06366e794b6297e2324dd5eb5bc3495ee84104",
      "blockHash": "0xbf2e6ba1c01dffe9502118a12e30346556e81b1012098515f40ce890450ffa5e",
      "blockNumber": 74825,
      "transactionIndex": 0,
      "confirmations": null,
      "from": "0x481FBF5Ed8E1bC51d277dB7D8F51d95b758F05ED",
      "gasPrice": {
        "_hex": "0xba43b7400"
      },
      "gasLimit": {
        "_hex": "0x5266"
      },
      "to": "0x014e478251F22a79fA7014f285647d91462A9669",
      "value": {
        "_hex": "0x1550f7dca70000"
      },
      "nonce": 3,
      "data": "0x",
      "r": "0xdfa7a35674e0620a226681decc45366afa4f7c99fd417124a3a4f3e19c3a36ed",
      "s": "0x353ad74623273bcefb3e204a2f191ab21cd533ded49a5fd9128fdd9ca8c45bc7",
      "v": 27,
      "creates": null,
      "raw": "0xf86b03850ba43b740082526694014e478251f22a79fa7014f285647d91462a9669871550f7dca70000801ba0dfa7a35674e0620a226681decc45366afa4f7c99fd417124a3a4f3e19c3a36eda0353ad74623273bcefb3e204a2f191ab21cd533ded49a5fd9128fdd9ca8c45bc7",
      "networkId": 0,
      "chainId": 0
    }
  ]
}