{
  "hash": "0xd79cca1ecaf0f761e0f3142c55fe3af9acbcf9295a137e7456afd838a0fe6311",
  "parentHash": "0x4117f8ac80e83c9ab4ee448c7eff030247df23a22cfd557c6a4198c143e02537",
  "number": 65039,
  "timestamp": 1439230282,
  "nonce": "0x3a5f176318c6a2ef",
  "difficulty": 1923803671535,
  "gasLimit": {
    "_hex": "0x2fefd8"
  },
  "gasUsed": {
    "_hex": "0xa410"
  },
  "miner": "0xf927a40C8B7F6E07c5af7FA2155B4864a4112B13",
  "extraData": "0x",
  "transactions": [
    {
      "hash": "0xe37bc52b76cdc6bcead39a1644a7e8c534c0d3675772ab7e0f498194799f8dab",
      "blockHash": "0xd79cca1ecaf0f761e0f3142c55fe3af9acbcf9295a137e7456afd838a0fe6311",
      "blockNumber": 65039,
      "transactionIndex": 0,
      "confirmations": null,
      "from": "0x00Ecd14b8Bb5Ef60a932462074a4107870bd9efA",
      "gasPrice": {
        "_hex": "0xba43b7400"
      },
      "gasLimit": {
        "_hex": "0x5208"
      },
      "to": "0x4Cb08c8b93F06b3bF94f26d5cE702a9Bc827d669",
      "value": {
        "_hex": "0x360be48db0d2000"
      },
      "nonce": 1,
      "data": "0x",
      "r": "0xf923e7c4402d5dc632ec0413c75825aef286b01825c4b3dc403f9e97e33e4337",
      "s": "0x160b8afe72d7635320dbd7830bdaf5ad1839eeb88b3093354331e9044fe38524",
      "v": 28,
      "creates": null,
      "raw": "0xf86c01850ba43b7400825208944cb08c8b93f06b3bf94f26d5ce702a9bc827d669880360be48db0d2000801ca0f923e7c4402d5dc632ec0413c75825aef286b01825c4b3dc403f9e97e33e4337a0160b8afe72d7635320dbd7830bdaf5ad1839eeb88b3093354331e9044fe38524",
      "networkId": 0,
      "chainId": 0
    },
    {
      "hash": "0x34a5315261687a1c36fe570653e30ecc3d87fdcd6a6039b752d94bbdd6ad2c4d",
      "blockHash": "0xd79cca1ecaf0f761e0f3142c55fe3af9acbcf9295a137e7456afd838a0fe6311",
      "blockNumber": 65039,
      "transactionIndex": 1,
      "confirmations": null,
      "from": "0x6c1fd76592E37F792f7DD0FB44C96A82d75252FB",
      "gasPrice": {
        "_hex": "0xba43b7400"
      },
      "gasLimit": {
        "_hex": "0x5208"
      },
      "to": "0x1cE501F87C4123068e4F0997647c00332545b09C",
      "value": {
        "_hex": "0x304319574cb6000"
      },
      "nonce": 1,
      "data": "0x",
      "r": "0x248a390893f8415a59dfec3eaeb43bae7b2e201cda458f64b11e53032993485b",
      "s": "0x20e2944a1dec03b7c3445bba94417798141c6b9d042d5f340d02e2cacedda8d2",
      "v": 28,
      "creates": null,
      "raw": "0xf86c01850ba43b7400825208941ce501f87c4123068e4f0997647c00332545b09c880304319574cb6000801ca0248a390893f8415a59dfec3eaeb43bae7b2e201cda458f64b11e53032993485ba020e2944a1dec03b7c3445bba94417798141c6b9d042d5f340d02e2cacedda8d2",
      "networkId": 0,
      "chainId": 0
    }
  ]
}