{
  "hash": "0xb23b2a94d151ce956f4d8a4df14ee91069dd7503c1d9456fe77c46ed00c18370",
  "parentHash": "0x73c8fb5efe3750d59d0294935a97558a5078e302cd29d775612dbce4113107cd",
  "number": 105797,
  "timestamp": 1439893544,
  "nonce": "0xf4bcb67ff181f3ac",
  "difficulty": 4433943589461,
  "gasLimit": {
    "_hex": "0x2fefd8"
  },
  "gasUsed": {
    "_hex": "0x5208"
  },
  "miner": "0x0eDEd3DA479d0beF8eeC92A76644D3f4E3C177f7",
  "extraData": "0x476574682f76312e302e312f6c696e75782f676f312e342e32",
  "transactions": [
    {
      "hash": "0x2d21b5e6981618cc87f2719380b476828e37a9ca7f3e047ce807f8c56a55a919",
      "blockHash": "0xb23b2a94d151ce956f4d8a4df14ee91069dd7503c1d9456fe77c46ed00c18370",
      "blockNumber": 105797,
      "transactionIndex": 0,
      "confirmations": null,
      "from": "0x0cA19A53a3256482A89770FC1daFC7630717F201",
      "gasPrice": {
        "_hex": "0xcd57e7d19"
      },
      "gasLimit": {
        "_hex": "0x5208"
      },
      "to": "0x32Be343B94f860124dC4fEe278FDCBD38C102D88",
      "value": {
        "_hex": "0xf2155a2373a4800"
      },
      "nonce": 4,
      "data": "0x",
      "r": "0x02c526af93f75cd9ed79f04f670f8876e580334da878c3c42b51c35f8757ef5b",
      "s": "0x2a36f95cfee3c76bcc0778a7da2eafbab03d06f03e24b9245a8d67b3c2da0f56",
      "v": 27,
      "creates": null,
      "raw": "0xf86c04850cd57e7d198252089432be343b94f860124dc4fee278fdcbd38c102d88880f2155a2373a4800801ba002c526af93f75cd9ed79f04f670f8876e580334da878c3c42b51c35f8757ef5ba02a36f95cfee3c76bcc0778a7da2eafbab03d06f03e24b9245a8d67b3c2da0f56",
      "networkId": 0,
      "chainId": 0
    }
  ]
}