{
  "hash": "0xa5d37083aaabe730c0799780ce574010ff55c3b4bd651fa40bc392c4a58b3e12",
  "parentHash": "0x551cf7529df56741d0bf7b031fd581bb47cb4327c113effe214176a63e180a4e",
  "number": 119118,
  "timestamp": 1440137072,
  "nonce": "0xf23f0ced9b4798f0",
  "difficulty": 4411802926117,
  "gasLimit": {
    "_hex": "0x2fefd8"
  },
  "gasUsed": {
    "_hex": "0x5208"
  },
  "miner": "0xe6A7a1d47ff21B6321162AEA7C6CB457D5476Bca",
  "extraData": "0xd783010002844765746887676f312e342e32856c696e7578",
  "transactions": [
    {
      "hash": "0x60feb68edef9cd3a4d92744d90f095b52d6cf634edfcb13c7d331a952e8ae97f",
      "blockHash": "0xa5d37083aaabe730c0799780ce574010ff55c3b4bd651fa40bc392c4a58b3e12",
      "blockNumber": 119118,
      "transactionIndex": 0,
      "confirmations": null,
      "from": "0xc597A5d92F5dC1137D847db733cfe02c6d209f13",
      "gasPrice": {
        "_hex": "0xba43b7400"
      },
      "gasLimit": {
        "_hex": "0x15f90"
      },
      "to": "0x5F965F10e1BD020753Ca496fee6b3E4D809aff67",
      "value": {
        "_hex": "0xca193f564ebda800"
      },
      "nonce": 53,
      "data": "0x",
      "r": "0xb62091c25f19035df56105cfd217fdb330aa5950bad874cd5f4411024ea6e21c",
      "s": "0x5808aa81478442f57cc231810cbd02b1fbe8ab98cd9b80a272db6fbed95fdaa6",
      "v": 28,
      "creates": null,
      "raw": "0xf86d35850ba43b740083015f90945f965f10e1bd020753ca496fee6b3e4d809aff6788ca193f564ebda800801ca0b62091c25f19035df56105cfd217fdb330aa5950bad874cd5f4411024ea6e21ca05808aa81478442f57cc231810cbd02b1fbe8ab98cd9b80a272db6fbed95fdaa6",
      "networkId": 0,
      "chainId": 0
    }
  ]
}