{
  "hash": "0x4cb06dd6c91ac8c309fe5fb6cfb746c6a013da305cdb840b7d4cda6569785210",
  "parentHash": "0xee6177516e7db4f830977b58cf3b0a05cdbb436e258212766cc80c935453ccd4",
  "number": 110419,
  "timestamp": 1439973458,
  "nonce": "0x71f67ea2e787c6e1",
  "difficulty": 4384151975970,
  "gasLimit": {
    "_hex": "0x2fefd8"
  },
  "gasUsed": {
    "_hex": "0x5208"
  },
  "miner": "0xBf034FB91a14C1FdC209f70e194C5704a6D844eB",
  "extraData": "0x",
  "transactions": [
    {
      "hash": "0x3234e2d068c3b8a862e37a74f349c9285adc6323b3b1da6ffb201ce96942d5e4",
      "blockHash": "0x4cb06dd6c91ac8c309fe5fb6cfb746c6a013da305cdb840b7d4cda6569785210",
      "blockNumber": 110419,
      "transactionIndex": 0,
      "confirmations": null,
      "from": "0xbc681E36E2BC0d9Cb397811ce7a5821da2D66059",
      "gasPrice": {
        "_hex": "0xd7645eaf1"
      },
      "gasLimit": {
        "_hex": "0x5208"
      },
      "to": "0x32Be343B94f860124dC4fEe278FDCBD38C102D88",
      "value": {
        "_hex": "0x8295fcb9799d0000"
      },
      "nonce": 8,
      "data": "0x",
      "r": "0xbdb26186b53336707cc8dbebbdda8b21ca17a115103879a80573c2921a38be51",
      "s": "0x5c3a43f831c610cd49067be2985ac65ee74375ad66680e03d2483d8926bea556",
      "v": 27,
      "creates": null,
      "raw": "0xf86c08850d7645eaf18252089432be343b94f860124dc4fee278fdcbd38c102d88888295fcb9799d0000801ba0bdb26186b53336707cc8dbebbdda8b21ca17a115103879a80573c2921a38be51a05c3a43f831c610cd49067be2985ac65ee74375ad66680e03d2483d8926bea556",
      "networkId": 0,
      "chainId": 0
    }
  ]
}