{
  "hash": "0x2686db754896b94d7e72f696e37f6c75281d5e60e38b255394240a52fc6c64d5",
  "parentHash": "0xb6b725e7f804e06e0a92a6e94b7e555769344f56a4045eb7db3d76638037fcae",
  "number": 101969,
  "timestamp": 1439830648,
  "nonce": "0x132fb6fe173d4622",
  "difficulty": 3930049269087,
  "gasLimit": {
    "_hex": "0x2fefd8"
  },
  "gasUsed": {
    "_hex": "0x5208"
  },
  "miner": "0xe6A7a1d47ff21B6321162AEA7C6CB457D5476Bca",
  "extraData": "0x476574682f76312e302e312d38326566323666362f6c696e75782f676f312e34",
  "transactions": [
    {
      "hash": "0x77aaa72188a9cd2730c15dbd60a915348749399a07e7e43767b828177c3a47ef",
      "blockHash": "0x2686db754896b94d7e72f696e37f6c75281d5e60e38b255394240a52fc6c64d5",
      "blockNumber": 101969,
      "transactionIndex": 0,
      "confirmations": null,
      "from": "0x248EB54E7424aDF3b191E8E76D36D15F4ECD6b64",
      "gasPrice": {
        "_hex": "0xcbed83b01"
      },
      "gasLimit": {
        "_hex": "0x5208"
      },
      "to": "0x32Be343B94f860124dC4fEe278FDCBD38C102D88",
      "value": {
        "_hex": "0x70c1518b895d90000"
      },
      "nonce": 0,
      "data": "0x",
      "r": "0xda18a0b2bb8c5ae77f735147d6c299d8992c2945c4c3857ae8c9fb6277ed6564",
      "s": "0x2be346a0cc68eb00579e05424de85b47cce1e98006735c76f15988463ec6c674",
      "v": 28,
      "creates": null,
      "raw": "0xf86d80850cbed83b018252089432be343b94f860124dc4fee278fdcbd38c102d8889070c1518b895d90000801ca0da18a0b2bb8c5ae77f735147d6c299d8992c2945c4c3857ae8c9fb6277ed6564a02be346a0cc68eb00579e05424de85b47cce1e98006735c76f15988463ec6c674",
      "networkId": 0,
      "chainId": 0
    }
  ]
}