{
  "hash": "0xf85425d5f2cf1a892aba56b684fd4e5c2e08b14fafe077d7d525a84950230e33",
  "parentHash": "0x0b3b316132151c72fb2099bdc307b07861a62ddd0f8fd4e026a04c312349a680",
  "number": 112615,
  "timestamp": 1440010191,
  "nonce": "0x5fd9fe2d511a1bb9",
  "difficulty": 4430341281563,
  "gasLimit": {
    "_hex": "0x2fefd5"
  },
  "gasUsed": {
    "_hex": "0x5208"
  },
  "miner": "0xe6A7a1d47ff21B6321162AEA7C6CB457D5476Bca",
  "extraData": "0x476574682f76312e302e312d38326566323666362f6c696e75782f676f312e34",
  "transactions": [
    {
      "hash": "0xeac546789e3fd0e8b56528da5b7f1217be89756d6c565701c5467445d689ec57",
      "blockHash": "0xf85425d5f2cf1a892aba56b684fd4e5c2e08b14fafe077d7d525a84950230e33",
      "blockNumber": 112615,
      "transactionIndex": 0,
      "confirmations": null,
      "from": "0x120A270bbC009644e35F0bB6ab13f95b8199c4ad",
      "gasPrice": {
        "_hex": "0xd1fed55fa"
      },
      "gasLimit": {
        "_hex": "0x3d090"
      },
      "to": "0xD3c6b518F1631509963232bA8e1882D3474a5838",
      "value": {
        "_hex": "0x2305b4e0ad1fd6d000"
      },
      "nonce": 897,
      "data": "0x",
      "r": "0xa1e04df5aed83c27f8f664d2743604320ca25b1267af74486528cc819a2d453a",
      "s": "0x4310a0057a6dde1f2608673aed35bb17e49135f090ad8af7bab74f1a4d544fbe",
      "v": 28,
      "creates": null,
      "raw": "0xf870820381850d1fed55fa8303d09094d3c6b518f1631509963232ba8e1882d3474a5838892305b4e0ad1fd6d000801ca0a1e04df5aed83c27f8f664d2743604320ca25b1267af74486528cc819a2d453aa04310a0057a6dde1f2608673aed35bb17e49135f090ad8af7bab74f1a4d544fbe",
      "networkId": 0,
      "chainId": 0
    }
  ]
}