{
  "hash": "0xa960f3aa0a64af5c3a12bb82926aa6d4dda30f84bb8b9f0ac5a184344e993de1",
  "parentHash": "0xe17c2f0bf4fd1ebc014d87ff2d1effe406a7ee0d71e11e432de3b3eb1456c8a7",
  "number": 117859,
  "timestamp": 1440116498,
  "nonce": "0x1252dba5bc784f63",
  "difficulty": 4337697477118,
  "gasLimit": {
    "_hex": "0x2fefd8"
  },
  "gasUsed": {
    "_hex": "0x5208"
  },
  "miner": "0xe6A7a1d47ff21B6321162AEA7C6CB457D5476Bca",
  "extraData": "0xd783010002844765746887676f312e342e32856c696e7578",
  "transactions": [
    {
      "hash": "0x716193744fea9c31ddf20ecdd1d79df316328f57e343814a27f1a47cba928ea3",
      "blockHash": "0xa960f3aa0a64af5c3a12bb82926aa6d4dda30f84bb8b9f0ac5a184344e993de1",
      "blockNumber": 117859,
      "transactionIndex": 0,
      "confirmations": null,
      "from": "0x5248EfBC7319bd65d436374266765D9727253F12",
      "gasPrice": {
        "_hex": "0xba43b7400"
      },
      "gasLimit": {
        "_hex": "0x5208"
      },
      "to": "0x32Be343B94f860124dC4fEe278FDCBD38C102D88",
      "value": {
        "_hex": "0xb26be790b78d2000"
      },
      "nonce": 13,
      "data": "0x",
      "r": "0x8f879f4111cf7bb97203568848f1710d06ae65c80a826c7a0db3ce45f07519f8",
      "s": "0x46ad6e8f3cd0b928b1d8e3ac790f151224accc3a921b71211b9861c4fa4dcaa4",
      "v": 28,
      "creates": null,
      "raw": "0xf86c0d850ba43b74008252089432be343b94f860124dc4fee278fdcbd38c102d8888b26be790b78d2000801ca08f879f4111cf7bb97203568848f1710d06ae65c80a826c7a0db3ce45f07519f8a046ad6e8f3cd0b928b1d8e3ac790f151224accc3a921b71211b9861c4fa4dcaa4",
      "networkId": 0,
      "chainId": 0
    }
  ]
}