{
  "hash": "0xb57069746249deebe02287d244e89682d27cc237bb4243aa6dcde0df221e4021",
  "parentHash": "0x9cc6a65daf90c81625f7b91b00f52d2b243c7f0cde8766a79e80a6b49d61a043",
  "number": 84279,
  "timestamp": 1439547475,
  "nonce": "0x26cf93c7a9857021",
  "difficulty": 2530401352560,
  "gasLimit": {
    "_hex": "0x2fefd8"
  },
  "gasUsed": {
    "_hex": "0xae510"
  },
  "miner": "0xb553EA87675eF890a0318b068C2272d76c1c672C",
  "extraData": "0x",
  "transactions": [
    {
      "hash": "0x57710092ce8d86b218ca2d5b69522c10c80c8cc89ad337bb45ada6d28e13e718",
      "blockHash": "0xb57069746249deebe02287d244e89682d27cc237bb4243aa6dcde0df221e4021",
      "blockNumber": 84279,
      "transactionIndex": 0,
      "confirmations": null,
      "from": "0xe6A7a1d47ff21B6321162AEA7C6CB457D5476Bca",
      "gasPrice": {
        "_hex": "0xd735e6344"
      },
      "gasLimit": {
        "_hex": "0x55f0"
      },
      "to": "0x13258A1Aa418C990ce59616C26338A44899d854c",
      "value": {
        "_hex": "0x4d3c90b05e79ae18"
      },
      "nonce": 1703,
      "data": "0x",
      "r": "0x78b1b36e1ac2f646fd66cd53aa9fd100491d5026075f75e2d1a225375b2dc4f3",
      "s": "0x06d3111b26ff739f58dec0c3b0d0abb5617edbd41f43a16d0ca4634e5328f076",
      "v": 28,
      "creates": null,
      "raw": "0xf86e8206a7850d735e63448255f09413258a1aa418c990ce59616c26338a44899d854c884d3c90b05e79ae18801ca078b1b36e1ac2f646fd66cd53aa9fd100491d5026075f75e2d1a225375b2dc4f3a006d3111b26ff739f58dec0c3b0d0abb5617edbd41f43a16d0ca4634e5328f076",
      "networkId": 0,
      "chainId": 0
    },
    {
      "hash": "0xfe9d403b39f940a52f401762fe86009f5e31adda9a6ea715c0314a8acb60e889",
      "blockHash": "0xb57069746249deebe02287d244e89682d27cc237bb4243aa6dcde0df221e4021",
      "blockNumber": 84279,
      "transactionIndex": 1,
      "confirmations": null,
      "from": "0xe6A7a1d47ff21B6321162AEA7C6CB457D5476Bca",
      "gasPrice": {
        "_hex": "0xd735e6344"
      },
      "gasLimit": {
        "_hex": "0x55f0"
      },
      "to": "0xCe266fafD0c5b4fA61Ac52879Cbc1574570Aca16",
      "value": {
        "_hex": "0x4d81eae0d6509990"
      },
      "nonce": 1704,
      "data": "0x",
      "r": "0xbb6e16336fbe88c0d4d72a4f3c87065234c5ecf11712c46f77accc66e8380d92",
      "s": "0x531b80b0368a1a2a1fd777d1bd0ca0400abbde473534832ff11345e8475eea19",
      "v": 27,
      "creates": null,
      "raw": "0xf86e8206a8850d735e63448255f094ce266fafd0c5b4fa61ac52879cbc1574570aca16884d81eae0d6509990801ba0bb6e16336fbe88c0d4d72a4f3c87065234c5ecf11712c46f77accc66e8380d92a0531b80b0368a1a2a1fd777d1bd0ca0400abbde473534832ff11345e8475eea19",
      "networkId": 0,
      "chainId": 0
    },
    {
      "hash": "0xf6ac3453bc9355e24915e9721d77cbb6c2388f35f7b1533c9f966af28443c423",
      "blockHash": "0xb57069746249deebe02287d244e89682d27cc237bb4243aa6dcde0df221e4021",
      "blockNumber": 84279,
      "transactionIndex": 2,
      "confirmations": null,
      "from": "0xe6A7a1d47ff21B6321162AEA7C6CB457D5476Bca",
      "gasPrice": {
        "_hex": "0xd735e6344"
      },
      "gasLimit": {
        "_hex": "0x55f0"
      },
      "to": "0xd8F5f0458bDA93A6d2ffA08cee7c1A0CbeA410aE",
      "value": {
        "_hex": "0x51189b70eb3c2f38"
      },
      "nonce": 1705,
      "data": "0x",
      "r": "0x2d1c61dcf12d5ff1165446788aea12fa730d713ad97295d2a6df60caccef9aea",
      "s": "0x59a66c51968b979e93043af294155cacd48fb05371cfc0b8d0b8582a86ef7753",
      "v": 27,
      "creates": null,
      "raw": "0xf86e8206a9850d735e63448255f094d8f5f0458bda93a6d2ffa08cee7c1a0cbea410ae8851189b70eb3c2f38801ba02d1c61dcf12d5ff1165446788aea12fa730d713ad97295d2a6df60caccef9aeaa059a66c51968b979e93043af294155cacd48fb05371cfc0b8d0b8582a86ef7753",
      "networkId": 0,
      "chainId": 0
    },
    {
      "hash": "0x4b7e2873d8cc400f23304f95ee7fd24bb54f69969f335e70b08eb0c532eb695c",
      "blockHash": "0xb57069746249deebe02287d244e89682d27cc237bb4243aa6dcde0df221e4021",
      "blockNumber": 84279,
      "transactionIndex": 3,
      "confirmations": null,
      "from": "0xe6A7a1d47ff21B6321162AEA7C6CB457D5476Bca",
      "gasPrice": {
        "_hex": "0xd735e6344"
      },
      "gasLimit": {
        "_hex": "0x55f0"
      },
      "to": "0xa114c802ef29776f05f9c6925cE915232e8ae102",
      "value": {
        "_hex": "0x5149ab96726c9b08"
      },
      "nonce": 1706,
      "data": "0x",
      "r": "0xe40fe6dfa7794fe0c13981d997945d1914cdc958b75123551fa3845fe62dd352",
      "s": "0x3fd99c80b36a5b13153c17b617221a02ca5183a4ffbd0552f0e2c832f9fa321d",
      "v": 27,
      "creates": null,
      "raw": "0xf86e8206aa850d735e63448255f094a114c802ef29776f05f9c6925ce915232e8ae102885149ab96726c9b08801ba0e40fe6dfa7794fe0c13981d997945d1914cdc958b75123551fa3845fe62dd352a03fd99c80b36a5b13153c17b617221a02ca5183a4ffbd0552f0e2c832f9fa321d",
      "networkId": 0,
      "chainId": 0
    },
    {
      "hash": "0xe3a33dbb3cf5dd4afa7cbf48decd872bb49ae4d3ee16c1360b5ce74304683d3c",
      "blockHash": "0xb57069746249deebe02287d244e89682d27cc237bb4243aa6dcde0df221e4021",
      "blockNumber": 84279,
      "transactionIndex": 4,
      "confirmations": null,
      "from": "0xe6A7a1d47ff21B6321162AEA7C6CB457D5476Bca",
      "gasPrice": {
        "_hex": "0xd4e13b785"
      },
      "gasLimit": {
        "_hex": "0x55f0"
      },
      "to": "0x08FE5A3C0709cF74d76cFd0e0Cd9d2A447eA263C",
      "value": {
        "_hex": "0x51ce3a009182ee70"
      },
      "nonce": 1707,
      "data": "0x",
      "r": "0xca9ba4338f0799f5b56c3808a970485dfc36d2d8b89c5c3e11071034e44ee1a9",
      "s": "0x50182b9473c51cbf18d278df3b17c6bc520e5543728c671589d4f8600c3d272f",
      "v": 28,
      "creates": null,
      "raw": "0xf86e8206ab850d4e13b7858255f09408fe5a3c0709cf74d76cfd0e0cd9d2a447ea263c8851ce3a009182ee70801ca0ca9ba4338f0799f5b56c3808a970485dfc36d2d8b89c5c3e11071034e44ee1a9a050182b9473c51cbf18d278df3b17c6bc520e5543728c671589d4f8600c3d272f",
      "networkId": 0,
      "chainId": 0
    },
    {
      "hash": "0x433bbe2a6be6c85bc9b721665b279bbbfde67946990c5944976b9a47bae8c80b",
      "blockHash": "0xb57069746249deebe02287d244e89682d27cc237bb4243aa6dcde0df221e4021",
      "blockNumber": 84279,
      "transactionIndex": 5,
      "confirmations": null,
      "from": "0xe6A7a1d47ff21B6321162AEA7C6CB457D5476Bca",
      "gasPrice": {
        "_hex": "0xd4e13b785"
      },
      "gasLimit": {
        "_hex": "0x55f0"
      },
      "to": "0xaA35779Ef4dfBEd0B3D6F46F5f11cb86261B17A5",
      "value": {
        "_hex": "0x53c2984447f54b70"
      },
      "nonce": 1708,
      "data": "0x",
      "r": "0x60ed6a7b4428c40145edc0601195120f849d6286792f864dbb8454b13c4dc7c2",
      "s": "0x3df5e38ff5790632659ffbea0246a619ce1b7772c0f1383740fdd0661f20d5c6",
      "v": 28,
      "creates": null,
      "raw": "0xf86e8206ac850d4e13b7858255f094aa35779ef4dfbed0b3d6f46f5f11cb86261b17a58853c2984447f54b70801ca060ed6a7b4428c40145edc0601195120f849d6286792f864dbb8454b13c4dc7c2a03df5e38ff5790632659ffbea0246a619ce1b7772c0f1383740fdd0661f20d5c6",
      "networkId": 0,
      "chainId": 0
    },
    {
      "hash": "0x416a84788954a3aeb1bf2a10364637c3b8fa54038dd51b2888daf2a29c2965f3",
      "blockHash": "0xb57069746249deebe02287d244e89682d27cc237bb4243aa6dcde0df221e4021",
      "blockNumber": 84279,
      "transactionIndex": 6,
      "confirmations": null,
      "from": "0xe6A7a1d47ff21B6321162AEA7C6CB457D5476Bca",
      "gasPrice": {
        "_hex": "0xd4e13b785"
      },
      "gasLimit": {
        "_hex": "0x55f0"
      },
      "to": "0x94c4f7b5aaF084e74A7611900D93eaDeA47A137F",
      "value": {
        "_hex": "0x544bddfd8c346068"
      },
      "nonce": 1709,
      "data": "0x",
      "r": "0x7d2430463f3fe87ab9b533269fefa00008eaa8977c9bfcc432a93c4cf0d28551",
      "s": "0x75855710b6fc4f9013f1444673c3e6d432b5d340c786bf6403df8835c46dac77",
      "v": 27,
      "creates": null,
      "raw": "0xf86e8206ad850d4e13b7858255f09494c4f7b5aaf084e74a7611900d93eadea47a137f88544bddfd8c346068801ba07d2430463f3fe87ab9b533269fefa00008eaa8977c9bfcc432a93c4cf0d28551a075855710b6fc4f9013f1444673c3e6d432b5d340c786bf6403df8835c46dac77",
      "networkId": 0,
      "chainId": 0
    },
    {
      "hash": "0xd64e463a336029020a6a150d2ba32c9d0a1e7a6fd3c4b83b38567c425f8e78d3",
      "blockHash": "0xb57069746249deebe02287d244e89682d27cc237bb4243aa6dcde0df221e4021",
      "blockNumber": 84279,
      "transactionIndex": 7,
      "confirmations": null,
      "from": "0xe6A7a1d47ff21B6321162AEA7C6CB457D5476Bca",
      "gasPrice": {
        "_hex": "0xd4e13b785"
      },
      "gasLimit": {
        "_hex": "0x55f0"
      },
      "to": "0x5adA3743144f1235d8cef97daAD6c123F20E7330",
      "value": {
        "_hex": "0x54be1a7fdb795530"
      },
      "nonce": 1710,
      "data": "0x",
      "r": "0xe80fbb4b7b77889ae3bd199b06ecb90b1c80881f3eabc576cd809709004ac1d9",
      "s": "0x2d6b5bd8783cefad348a7450ac438e5ee4019c8b7c89dd52ae05237ff1663959",
      "v": 28,
      "creates": null,
      "raw": "0xf86e8206ae850d4e13b7858255f0945ada3743144f1235d8cef97daad6c123f20e73308854be1a7fdb795530801ca0e80fbb4b7b77889ae3bd199b06ecb90b1c80881f3eabc576cd809709004ac1d9a02d6b5bd8783cefad348a7450ac438e5ee4019c8b7c89dd52ae05237ff1663959",
      "networkId": 0,
      "chainId": 0
    },
    {
      "hash": "0x73ecbad722e3d9b58769855974d6f2de8a56040528456a32b3ef4e0a25e61498",
      "blockHash": "0xb57069746249deebe02287d244e89682d27cc237bb4243aa6dcde0df221e4021",
      "blockNumber": 84279,
      "transactionIndex": 8,
      "confirmations": null,
      "from": "0xe6A7a1d47ff21B6321162AEA7C6CB457D5476Bca",
      "gasPrice": {
        "_hex": "0xd4e13b785"
      },
      "gasLimit": {
        "_hex": "0x55f0"
      },
      "to": "0x4b0a38C16B842d68A8721B4CAd662e07cc430652",
      "value": {
        "_hex": "0x55b1cae5516189e8"
      },
      "nonce": 1711,
      "data": "0x",
      "r": "0xd9c612defcc6c5d3599a83ccd29bc4792968c5c8ff4500f16679c3023f054c3c",
      "s": "0x1504d3255b542f8090efcfbdce5df4d8d58c1b7a2f6192cc673965bdd5e02055",
      "v": 27,
      "creates": null,
      "raw": "0xf86e8206af850d4e13b7858255f0944b0a38c16b842d68a8721b4cad662e07cc4306528855b1cae5516189e8801ba0d9c612defcc6c5d3599a83ccd29bc4792968c5c8ff4500f16679c3023f054c3ca01504d3255b542f8090efcfbdce5df4d8d58c1b7a2f6192cc673965bdd5e02055",
      "networkId": 0,
      "chainId": 0
    },
    {
      "hash": "0x56ef26c0cf006d3192d1fa87ee35f0d709902a0899322193230daaba66aea8ef",
      "blockHash": "0xb57069746249deebe02287d244e89682d27cc237bb4243aa6dcde0df221e4021",
      "blockNumber": 84279,
      "transactionIndex": 9,
      "confirmations": null,
      "from": "0xe6A7a1d47ff21B6321162AEA7C6CB457D5476Bca",
      "gasPrice": {
        "_hex": "0xd4e13b785"
      },
      "gasLimit": {
        "_hex": "0x55f0"
      },
      "to": "0x528419cd4425d074D168Ae82CdFc335076b09B2F",
      "value": {
        "_hex": "0x562dd71226d03ef8"
      },
      "nonce": 1712,
      "data": "0x",
      "r": "0x62aa6757914fc77bc976b8dda7f4c66884ac601095e5ba27e0c189bf023a2223",
      "s": "0x6ea4dc2ca634cffcef70d0a5ea8b17507867680f501c0a9b87ea09278a083d1e",
      "v": 27,
      "creates": null,
      "raw": "0xf86e8206b0850d4e13b7858255f094528419cd4425d074d168ae82cdfc335076b09b2f88562dd71226d03ef8801ba062aa6757914fc77bc976b8dda7f4c66884ac601095e5ba27e0c189bf023a2223a06ea4dc2ca634cffcef70d0a5ea8b17507867680f501c0a9b87ea09278a083d1e",
      "networkId": 0,
      "chainId": 0
    },
    {
      "hash": "0xe8804354a4bf26da7ece77574413bca4690ee8738cd57728122329559680d9fb",
      "blockHash": "0xb57069746249deebe02287d244e89682d27cc237bb4243aa6dcde0df221e4021",
      "blockNumber": 84279,
      "transactionIndex": 10,
      "confirmations": null,
      "from": "0xe6A7a1d47ff21B6321162AEA7C6CB457D5476Bca",
      "gasPrice": {
        "_hex": "0xd4e13b785"
      },
      "gasLimit": {
        "_hex": "0x55f0"
      },
      "to": "0x8b687892C6Cf88925ddD772718782A864e5353Df",
      "value": {
        "_hex": "0x56646aa787b6f040"
      },
      "nonce": 1713,
      "data": "0x",
      "r": "0x04627a3c27ec1c8fb6c5626a1c4a4dbb67c94a570a1b497673f9b1a80d5d1fb9",
      "s": "0x4a21aa85ca0eb2d269baf7059c06e9906c1dd97c276b6da8a963c614072339b5",
      "v": 27,
      "creates": null,
      "raw": "0xf86e8206b1850d4e13b7858255f0948b687892c6cf88925ddd772718782a864e5353df8856646aa787b6f040801ba004627a3c27ec1c8fb6c5626a1c4a4dbb67c94a570a1b497673f9b1a80d5d1fb9a04a21aa85ca0eb2d269baf7059c06e9906c1dd97c276b6da8a963c614072339b5",
      "networkId": 0,
      "chainId": 0
    },
    {
      "hash": "0x640392c12c791f81c1b6ab4480e39260cae830564670d694995ac0f65dd09000",
      "blockHash": "0xb57069746249deebe02287d244e89682d27cc237bb4243aa6dcde0df221e4021",
      "blockNumber": 84279,
      "transactionIndex": 11,
      "confirmations": null,
      "from": "0xe6A7a1d47ff21B6321162AEA7C6CB457D5476Bca",
      "gasPrice": {
        "_hex": "0xd4e13b785"
      },
      "gasLimit": {
        "_hex": "0x55f0"
      },
      "to": "0x72dcecdD4a7374231676f7fA910A678DfC7c98D6",
      "value": {
        "_hex": "0x575e4a9f00a0fc90"
      },
      "nonce": 1714,
      "data": "0x",
      "r": "0x477a965d9c9f89337f8ce65d3613c76874c27572db7346c5d7f7fb7653cee1af",
      "s": "0x4afc9297a919097d5f3044f1ab6f404af3651e016595d0718f047a8b8710435a",
      "v": 27,
      "creates": null,
      "raw": "0xf86e8206b2850d4e13b7858255f09472dcecdd4a7374231676f7fa910a678dfc7c98d688575e4a9f00a0fc90801ba0477a965d9c9f89337f8ce65d3613c76874c27572db7346c5d7f7fb7653cee1afa04afc9297a919097d5f3044f1ab6f404af3651e016595d0718f047a8b8710435a",
      "networkId": 0,
      "chainId": 0
    },
    {
      "hash": "0xe1e18b516b5b09d2b5432dc91e2cfcd7da183b0f2f48eb5e3c720280e4594db8",
      "blockHash": "0xb57069746249deebe02287d244e89682d27cc237bb4243aa6dcde0df221e4021",
      "blockNumber": 84279,
      "transactionIndex": 12,
      "confirmations": null,
      "from": "0xe6A7a1d47ff21B6321162AEA7C6CB457D5476Bca",
      "gasPrice": {
        "_hex": "0xd4e13b785"
      },
      "gasLimit": {
        "_hex": "0x55f0"
      },
      "to": "0xAD220cCE3937674e425c9693786E3eC3615C900C",
      "value": {
        "_hex": "0x584049a2de088410"
      },
      "nonce": 1715,
      "data": "0x",
      "r": "0xb349f0613181500060284383dba797d60f1976f63e136a93d79845e38fd6a75a",
      "s": "0x4b65a31ac802865725e4b9e4955e4d9ab210ca78595570fc670658b1f8985ba4",
      "v": 27,
      "creates": null,
      "raw": "0xf86e8206b3850d4e13b7858255f094ad220cce3937674e425c9693786e3ec3615c900c88584049a2de088410801ba0b349f0613181500060284383dba797d60f1976f63e136a93d79845e38fd6a75aa04b65a31ac802865725e4b9e4955e4d9ab210ca78595570fc670658b1f8985ba4",
      "networkId": 0,
      "chainId": 0
    },
    {
      "hash": "0x6a9bfcf97d85fc37ee0b1ebe4683871b383cf1c46ab6d7e5812faf74577cbd5b",
      "blockHash": "0xb57069746249deebe02287d244e89682d27cc237bb4243aa6dcde0df221e4021",
      "blockNumber": 84279,
      "transactionIndex": 13,
      "confirmations": null,
      "from": "0xe6A7a1d47ff21B6321162AEA7C6CB457D5476Bca",
      "gasPrice": {
        "_hex": "0xd4e13b785"
      },
      "gasLimit": {
        "_hex": "0x55f0"
      },
      "to": "0x952f389eCE021cECc7e7E00B5316925e14396B92",
      "value": {
        "_hex": "0x58e751efe2e2c188"
      },
      "nonce": 1716,
      "data": "0x",
      "r": "0xc05d4454b0cafdfbaadfc574d87d5c0308c3ce36b203818ac345f2f1a00c9e7b",
      "s": "0x26723cb2cf825b635a48e7ca7eeb8aa06e69d67e8243d7eb568032fb3c8261ca",
      "v": 27,
      "creates": null,
      "raw": "0xf86e8206b4850d4e13b7858255f094952f389ece021cecc7e7e00b5316925e14396b928858e751efe2e2c188801ba0c05d4454b0cafdfbaadfc574d87d5c0308c3ce36b203818ac345f2f1a00c9e7ba026723cb2cf825b635a48e7ca7eeb8aa06e69d67e8243d7eb568032fb3c8261ca",
      "networkId": 0,
      "chainId": 0
    },
    {
      "hash": "0x228414989ab351ee86284752c5c72492817a5cc1f0ba38c9b1cb5b2920d09930",
      "blockHash": "0xb57069746249deebe02287d244e89682d27cc237bb4243aa6dcde0df221e4021",
      "blockNumber": 84279,
      "transactionIndex": 14,
      "confirmations": null,
      "from": "0xe6A7a1d47ff21B6321162AEA7C6CB457D5476Bca",
      "gasPrice": {
        "_hex": "0xd4e13b785"
      },
      "gasLimit": {
        "_hex": "0x55f0"
      },
      "to": "0xFAF4d1326d886D8dFe403B3F8A00DC7a7EA05629",
      "value": {
        "_hex": "0x590594b34fb62ec0"
      },
      "nonce": 1717,
      "data": "0x",
      "r": "0x34f9bee1b0bed852dbf5473bc03097dfde98cf507fd7087f59bdcf38b29b46c4",
      "s": "0x5673e7bdf0a520d1823f3ddaab0aed3a594472ba8035f163b6513cc4c7585f69",
      "v": 28,
      "creates": null,
      "raw": "0xf86e8206b5850d4e13b7858255f094faf4d1326d886d8dfe403b3f8a00dc7a7ea0562988590594b34fb62ec0801ca034f9bee1b0bed852dbf5473bc03097dfde98cf507fd7087f59bdcf38b29b46c4a05673e7bdf0a520d1823f3ddaab0aed3a594472ba8035f163b6513cc4c7585f69",
      "networkId": 0,
      "chainId": 0
    },
    {
      "hash": "0x836c960fbbfb2c16723863e946136c3cfc796458b02e7ca9e92648a0bed7bc62",
      "blockHash": "0xb57069746249deebe02287d244e89682d27cc237bb4243aa6dcde0df221e4021",
      "blockNumber": 84279,
      "transactionIndex": 15,
      "confirmations": null,
      "from": "0xe6A7a1d47ff21B6321162AEA7C6CB457D5476Bca",
      "gasPrice": {
        "_hex": "0xd4e13b785"
      },
      "gasLimit": {
        "_hex": "0x55f0"
      },
      "to": "0x0d62E666D681E8Be96903Ac4aBD3537f28c6125A",
      "value": {
        "_hex": "0x5bdad6ceee513a68"
      },
      "nonce": 1718,
      "data": "0x",
      "r": "0x32034e82bda8ce6b713822f7beaa6b34d36d5e32dc3da648b45eeb9dcba28003",
      "s": "0x40be34c04f71402d5a04c9baab58f53014da16c2a4aada1f6e3486c4c1cb7a27",
      "v": 27,
      "creates": null,
      "raw": "0xf86e8206b6850d4e13b7858255f0940d62e666d681e8be96903ac4abd3537f28c6125a885bdad6ceee513a68801ba032034e82bda8ce6b713822f7beaa6b34d36d5e32dc3da648b45eeb9dcba28003a040be34c04f71402d5a04c9baab58f53014da16c2a4aada1f6e3486c4c1cb7a27",
      "networkId": 0,
      "chainId": 0
    },
    {
      "hash": "0x427823d6e9902137651859abbfe4e9dc07c4560bb29821584e788664fc1f5774",
      "blockHash": "0xb57069746249deebe02287d244e89682d27cc237bb4243aa6dcde0df221e4021",
      "blockNumber": 84279,
      "transactionIndex": 16,
      "confirmations": null,
      "from": "0xe6A7a1d47ff21B6321162AEA7C6CB457D5476Bca",
      "gasPrice": {
        "_hex": "0xd4e13b785"
      },
      "gasLimit": {
        "_hex": "0x55f0"
      },
      "to": "0xBf7d5E6CD66bc79d7759B640cbe188bCFA030cc4",
      "value": {
        "_hex": "0x5c6c23a2d30adab8"
      },
      "nonce": 1719,
      "data": "0x",
      "r": "0x1d00a1ec03e16e2351797492fa4d7f5edaa49c01daaef256764af5f30511eff1",
      "s": "0x33daff2d09cbda3aed574ec1d574bdcac3f0dfa3f196810687be52635640662b",
      "v": 28,
      "creates": null,
      "raw": "0xf86e8206b7850d4e13b7858255f094bf7d5e6cd66bc79d7759b640cbe188bcfa030cc4885c6c23a2d30adab8801ca01d00a1ec03e16e2351797492fa4d7f5edaa49c01daaef256764af5f30511eff1a033daff2d09cbda3aed574ec1d574bdcac3f0dfa3f196810687be52635640662b",
      "networkId": 0,
      "chainId": 0
    },
    {
      "hash": "0x89ecb04230c37e3e56834f76876a6c0c8cfe4c4a91e51dc9f242d495ffabbded",
      "blockHash": "0xb57069746249deebe02287d244e89682d27cc237bb4243aa6dcde0df221e4021",
      "blockNumber": 84279,
      "transactionIndex": 17,
      "confirmations": null,
      "from": "0xe6A7a1d47ff21B6321162AEA7C6CB457D5476Bca",
      "gasPrice": {
        "_hex": "0xd4e13b785"
      },
      "gasLimit": {
        "_hex": "0x55f0"
      },
      "to": "0x1c69e6202df7794272b70FaEa8f7408c856B1f08",
      "value": {
        "_hex": "0x5cd6cc3235ae7fb0"
      },
      "nonce": 1720,
      "data": "0x",
      "r": "0xf89e87bbee0195979f5839370146bc3927a56cdcc2797d38e50b56d6321f8670",
      "s": "0x2c858c040872c665e53b82609ce66483efc44de3835de5e9f3bc2fb2d06fff61",
      "v": 28,
      "creates": null,
      "raw": "0xf86e8206b8850d4e13b7858255f0941c69e6202df7794272b70faea8f7408c856b1f08885cd6cc3235ae7fb0801ca0f89e87bbee0195979f5839370146bc3927a56cdcc2797d38e50b56d6321f8670a02c858c040872c665e53b82609ce66483efc44de3835de5e9f3bc2fb2d06fff61",
      "networkId": 0,
      "chainId": 0
    },
    {
      "hash": "0xd79b27f124564039ee369d31603527305710398e80bbb65cd92d2c91dbc4f50d",
      "blockHash": "0xb57069746249deebe02287d244e89682d27cc237bb4243aa6dcde0df221e4021",
      "blockNumber": 84279,
      "transactionIndex": 18,
      "confirmations": null,
      "from": "0xe6A7a1d47ff21B6321162AEA7C6CB457D5476Bca",
      "gasPrice": {
        "_hex": "0xd4e13b785"
      },
      "gasLimit": {
        "_hex": "0x55f0"
      },
      "to": "0xB28fE7b9815982FF203F751ce550111D752d8795",
      "value": {
        "_hex": "0x5d7770431f789cc0"
      },
      "nonce": 1721,
      "data": "0x",
      "r": "0x28024c1211e87b4badcc0065192e686fd6539970a76d4faba5a62569956d6f15",
      "s": "0x06d98f4e2fb995aabeb3fc2573f17ac6ee21a91ce4d3085d6a006c7c0abc043a",
      "v": 27,
      "creates": null,
      "raw": "0xf86e8206b9850d4e13b7858255f094b28fe7b9815982ff203f751ce550111d752d8795885d7770431f789cc0801ba028024c1211e87b4badcc0065192e686fd6539970a76d4faba5a62569956d6f15a006d98f4e2fb995aabeb3fc2573f17ac6ee21a91ce4d3085d6a006c7c0abc043a",
      "networkId": 0,
      "chainId": 0
    },
    {
      "hash": "0x2644f054a48eb28cfe97148d16e5d0ad94b64075b207972c02a5adfc59634964",
      "blockHash": "0xb57069746249deebe02287d244e89682d27cc237bb4243aa6dcde0df221e4021",
      "blockNumber": 84279,
      "transactionIndex": 19,
      "confirmations": null,
      "from": "0xe6A7a1d47ff21B6321162AEA7C6CB457D5476Bca",
      "gasPrice": {
        "_hex": "0xd4e13b785"
      },
      "gasLimit": {
        "_hex": "0x55f0"
      },
      "to": "0x2561d06bcc264cb07D32663B326f510d61E48f4c",
      "value": {
        "_hex": "0x5f22a5c656f8c9a8"
      },
      "nonce": 1722,
      "data": "0x",
      "r": "0xb0d500ddec860433807b327911a832f447c2af5d32aeb4a93019ccd7c1b0a0ba",
      "s": "0x56abf004bc4eb161ec4116fb4bf01cacf7bf74965fc9724c0e378d6f9d2bf834",
      "v": 28,
      "creates": null,
      "raw": "0xf86e8206ba850d4e13b7858255f0942561d06bcc264cb07d32663b326f510d61e48f4c885f22a5c656f8c9a8801ca0b0d500ddec860433807b327911a832f447c2af5d32aeb4a93019ccd7c1b0a0baa056abf004bc4eb161ec4116fb4bf01cacf7bf74965fc9724c0e378d6f9d2bf834",
      "networkId": 0,
      "chainId": 0
    },
    {
      "hash": "0xdbce59ba55113ad29b997833e74f9c11bfd01a064cf025fbc333560b2d3d7073",
      "blockHash": "0xb57069746249deebe02287d244e89682d27cc237bb4243aa6dcde0df221e4021",
      "blockNumber": 84279,
      "transactionIndex": 20,
      "confirmations": null,
      "from": "0xe6A7a1d47ff21B6321162AEA7C6CB457D5476Bca",
      "gasPrice": {
        "_hex": "0xd4e13b785"
      },
      "gasLimit": {
        "_hex": "0x55f0"
      },
      "to": "0x3205cd1aC9e2Bb844A056D57E3f2463613554677",
      "value": {
        "_hex": "0x60592c89363267e8"
      },
      "nonce": 1723,
      "data": "0x",
      "r": "0x76d85a1a1d85cb21f9657c8d0fa4f3c5f67fffc6e09e38b2c980b15e32d82838",
      "s": "0x24ed051d55ea0c8403ea6ac469faf9b2d06bf675df25a29463f6fbfa4b249a64",
      "v": 27,
      "creates": null,
      "raw": "0xf86e8206bb850d4e13b7858255f0943205cd1ac9e2bb844a056d57e3f24636135546778860592c89363267e8801ba076d85a1a1d85cb21f9657c8d0fa4f3c5f67fffc6e09e38b2c980b15e32d82838a024ed051d55ea0c8403ea6ac469faf9b2d06bf675df25a29463f6fbfa4b249a64",
      "networkId": 0,
      "chainId": 0
    },
    {
      "hash": "0x390d1bb2fc58f9f23a5ff93fb380d0b2c66f46ae46519d9de3009ec183f9d24d",
      "blockHash": "0xb57069746249deebe02287d244e89682d27cc237bb4243aa6dcde0df221e4021",
      "blockNumber": 84279,
      "transactionIndex": 21,
      "confirmations": null,
      "from": "0xe6A7a1d47ff21B6321162AEA7C6CB457D5476Bca",
      "gasPrice": {
        "_hex": "0xd4e13b785"
      },
      "gasLimit": {
        "_hex": "0x55f0"
      },
      "to": "0x9B7280891dc19fd3A2e754cB9007203820650403",
      "value": {
        "_hex": "0x612378d2b83e9080"
      },
      "nonce": 1724,
      "data": "0x",
      "r": "0x868242c038ee34654ac595ad868f8ad8ba77990a32b118a63efab4f17f0c271e",
      "s": "0x51ad7d3c89cdb7d576435d94db7555fcbc889130fa73b263d17775924e751eaf",
      "v": 28,
      "creates": null,
      "raw": "0xf86e8206bc850d4e13b7858255f0949b7280891dc19fd3a2e754cb900720382065040388612378d2b83e9080801ca0868242c038ee34654ac595ad868f8ad8ba77990a32b118a63efab4f17f0c271ea051ad7d3c89cdb7d576435d94db7555fcbc889130fa73b263d17775924e751eaf",
      "networkId": 0,
      "chainId": 0
    },
    {
      "hash": "0x2d37ef7a1361ff23a733f5fec2052aa82fc5e8b44eb4484d7fc195ad8b56d7eb",
      "blockHash": "0xb57069746249deebe02287d244e89682d27cc237bb4243aa6dcde0df221e4021",
      "blockNumber": 84279,
      "transactionIndex": 22,
      "confirmations": null,
      "from": "0xe6A7a1d47ff21B6321162AEA7C6CB457D5476Bca",
      "gasPrice": {
        "_hex": "0xd4e13b785"
      },
      "gasLimit": {
        "_hex": "0x55f0"
      },
      "to": "0x4CA7cc5aF3D69A52e705DcEac59B9f76e0906DA8",
      "value": {
        "_hex": "0x61895940cb99d0e0"
      },
      "nonce": 1725,
      "data": "0x",
      "r": "0x8b7b382b2fc182fcc45eb6e8a88a2089b857c959f7d84902346bdbe7c9438df2",
      "s": "0x38a6e319a48fe883044f89271310cf5a83bf46bc2c0c85dfb11654e7982d8bc1",
      "v": 27,
      "creates": null,
      "raw": "0xf86e8206bd850d4e13b7858255f0944ca7cc5af3d69a52e705dceac59b9f76e0906da88861895940cb99d0e0801ba08b7b382b2fc182fcc45eb6e8a88a2089b857c959f7d84902346bdbe7c9438df2a038a6e319a48fe883044f89271310cf5a83bf46bc2c0c85dfb11654e7982d8bc1",
      "networkId": 0,
      "chainId": 0
    },
    {
      "hash": "0xca55200bc8d29c6f5828b085fa5b5ef06c2588414f45bdafc6fb5a95f7ea0ddb",
      "blockHash": "0xb57069746249deebe02287d244e89682d27cc237bb4243aa6dcde0df221e4021",
      "blockNumber": 84279,
      "transactionIndex": 23,
      "confirmations": null,
      "from": "0xe6A7a1d47ff21B6321162AEA7C6CB457D5476Bca",
      "gasPrice": {
        "_hex": "0xd4e13b785"
      },
      "gasLimit": {
        "_hex": "0x55f0"
      },
      "to": "0x6d37bd781411ccDd33792481E2C9CE5b62D3a5B8",
      "value": {
        "_hex": "0x61d71ae867697078"
      },
      "nonce": 1726,
      "data": "0x",
      "r": "0xc148ddced55b26c4cd33f2d865779bbf35ebf9c69ec20365bc2c9febe39a91ed",
      "s": "0x3cf93705d24db5c789b5f7d2860bc5b8ada77bc1596db74b44d2270525922dad",
      "v": 27,
      "creates": null,
      "raw": "0xf86e8206be850d4e13b7858255f0946d37bd781411ccdd33792481e2c9ce5b62d3a5b88861d71ae867697078801ba0c148ddced55b26c4cd33f2d865779bbf35ebf9c69ec20365bc2c9febe39a91eda03cf93705d24db5c789b5f7d2860bc5b8ada77bc1596db74b44d2270525922dad",
      "networkId": 0,
      "chainId": 0
    },
    {
      "hash": "0xdc6fbeac15357b5b6b2e22fd2ec3b5ea5bbe15bde64aaec761dfca18b21069a2",
      "blockHash": "0xb57069746249deebe02287d244e89682d27cc237bb4243aa6dcde0df221e4021",
      "blockNumber": 84279,
      "transactionIndex": 24,
      "confirmations": null,
      "from": "0xe6A7a1d47ff21B6321162AEA7C6CB457D5476Bca",
      "gasPrice": {
        "_hex": "0xd4e13b785"
      },
      "gasLimit": {
        "_hex": "0x55f0"
      },
      "to": "0x59cC965F1643a68ad7a4272ff1654d4af4343ea7",
      "value": {
        "_hex": "0x6251416f72ab34f8"
      },
      "nonce": 1727,
      "data": "0x",
      "r": "0x32294dc217c7a23621d3a353f04cd04fddb077e44aaa933252b59753f9446b8e",
      "s": "0x74c13296c4867707607c09ff7a2ef48764109ced91114aa5f221774b577efae1",
      "v": 28,
      "creates": null,
      "raw": "0xf86e8206bf850d4e13b7858255f09459cc965f1643a68ad7a4272ff1654d4af4343ea7886251416f72ab34f8801ca032294dc217c7a23621d3a353f04cd04fddb077e44aaa933252b59753f9446b8ea074c13296c4867707607c09ff7a2ef48764109ced91114aa5f221774b577efae1",
      "networkId": 0,
      "chainId": 0
    },
    {
      "hash": "0x89a4b54c9a7c13b3575ecd1706233d8b3371fca677c4642dea39dc567c508ff4",
      "blockHash": "0xb57069746249deebe02287d244e89682d27cc237bb4243aa6dcde0df221e4021",
      "blockNumber": 84279,
      "transactionIndex": 25,
      "confirmations": null,
      "from": "0xe6A7a1d47ff21B6321162AEA7C6CB457D5476Bca",
      "gasPrice": {
        "_hex": "0xd4e13b785"
      },
      "gasLimit": {
        "_hex": "0x55f0"
      },
      "to": "0x796C24bD0325fc7d33BE618526173a8f4D5083Ce",
      "value": {
        "_hex": "0x62fb6793ac738268"
      },
      "nonce": 1728,
      "data": "0x",
      "r": "0xebafbb618e2ea9b5ec7d02f602fd2a2866deb28a9109a370c759d5df76dc2016",
      "s": "0x583b97734672d882bdd15bb5c69c8bbd53537c0f8a893d1d138f211ae84fb56d",
      "v": 27,
      "creates": null,
      "raw": "0xf86e8206c0850d4e13b7858255f094796c24bd0325fc7d33be618526173a8f4d5083ce8862fb6793ac738268801ba0ebafbb618e2ea9b5ec7d02f602fd2a2866deb28a9109a370c759d5df76dc2016a0583b97734672d882bdd15bb5c69c8bbd53537c0f8a893d1d138f211ae84fb56d",
      "networkId": 0,
      "chainId": 0
    },
    {
      "hash": "0xc24265a98b11843a8de4a5509269e8807228057b882e153f2d043c190356baf1",
      "blockHash": "0xb57069746249deebe02287d244e89682d27cc237bb4243aa6dcde0df221e4021",
      "blockNumber": 84279,
      "transactionIndex": 26,
      "confirmations": null,
      "from": "0xe6A7a1d47ff21B6321162AEA7C6CB457D5476Bca",
      "gasPrice": {
        "_hex": "0xd4e13b785"
      },
      "gasLimit": {
        "_hex": "0x55f0"
      },
      "to": "0x0c5aa6cDcC0582B50e5D76B1aA092071b5c3eC74",
      "value": {
        "_hex": "0x636c15b66ef53f70"
      },
      "nonce": 1729,
      "data": "0x",
      "r": "0x9951656bbd398175c43c8e44c916d13cb0b6c4412327d2b1d10a18282f08a611",
      "s": "0x44abd90bc35cf8a482dddc0b67d691ded532c6ecf8a2615e710691fb87986008",
      "v": 28,
      "creates": null,
      "raw": "0xf86e8206c1850d4e13b7858255f0940c5aa6cdcc0582b50e5d76b1aa092071b5c3ec7488636c15b66ef53f70801ca09951656bbd398175c43c8e44c916d13cb0b6c4412327d2b1d10a18282f08a611a044abd90bc35cf8a482dddc0b67d691ded532c6ecf8a2615e710691fb87986008",
      "networkId": 0,
      "chainId": 0
    },
    {
      "hash": "0x689b253cc0e9a1b2557047781d2e5a0c6c924cc1e6b83742b8d7ea3167414ead",
      "blockHash": "0xb57069746249deebe02287d244e89682d27cc237bb4243aa6dcde0df221e4021",
      "blockNumber": 84279,
      "transactionIndex": 27,
      "confirmations": null,
      "from": "0xe6A7a1d47ff21B6321162AEA7C6CB457D5476Bca",
      "gasPrice": {
        "_hex": "0xd4e13b785"
      },
      "gasLimit": {
        "_hex": "0x55f0"
      },
      "to": "0x226E8B888E9F360E1Aea28229C40E2adC5D698b5",
      "value": {
        "_hex": "0x63b3e8159f2fac60"
      },
      "nonce": 1730,
      "data": "0x",
      "r": "0xdd4a67bff2701311a70a3fa8e9465fe37051bb68a1935dd36f14c5bed3042913",
      "s": "0x07fb354af1938d7f4e5e17989d0d11b362f1b0c72549e3456d3ee294e3fd1a99",
      "v": 27,
      "creates": null,
      "raw": "0xf86e8206c2850d4e13b7858255f094226e8b888e9f360e1aea28229c40e2adc5d698b58863b3e8159f2fac60801ba0dd4a67bff2701311a70a3fa8e9465fe37051bb68a1935dd36f14c5bed3042913a007fb354af1938d7f4e5e17989d0d11b362f1b0c72549e3456d3ee294e3fd1a99",
      "networkId": 0,
      "chainId": 0
    },
    {
      "hash": "0x920811f0a570d8e786d48bc7d8e2b2c52f1bc7e8c0f77df2b054515fc0e27f92",
      "blockHash": "0xb57069746249deebe02287d244e89682d27cc237bb4243aa6dcde0df221e4021",
      "blockNumber": 84279,
      "transactionIndex": 28,
      "confirmations": null,
      "from": "0xe6A7a1d47ff21B6321162AEA7C6CB457D5476Bca",
      "gasPrice": {
        "_hex": "0xd4e13b785"
      },
      "gasLimit": {
        "_hex": "0x55f0"
      },
      "to": "0xAD8c7FBFaBC46C35aDb03F7b3A67e731E5793899",
      "value": {
        "_hex": "0x645045d5b000d040"
      },
      "nonce": 1731,
      "data": "0x",
      "r": "0x295ff5e615428bd8291c9bf788ce0f5a4700626b13eeac175df040fa77be8e0b",
      "s": "0x0b7cf7b432d83c92f1df185222839f6f6f6492f8cb5fc657b7231f92176cd242",
      "v": 27,
      "creates": null,
      "raw": "0xf86e8206c3850d4e13b7858255f094ad8c7fbfabc46c35adb03f7b3a67e731e579389988645045d5b000d040801ba0295ff5e615428bd8291c9bf788ce0f5a4700626b13eeac175df040fa77be8e0ba00b7cf7b432d83c92f1df185222839f6f6f6492f8cb5fc657b7231f92176cd242",
      "networkId": 0,
      "chainId": 0
    },
    {
      "hash": "0x4a1c3354ca778aba584b82119c75269023399c4829b46def4eb3877929d1ed02",
      "blockHash": "0xb57069746249deebe02287d244e89682d27cc237bb4243aa6dcde0df221e4021",
      "blockNumber": 84279,
      "transactionIndex": 29,
      "confirmations": null,
      "from": "0xe6A7a1d47ff21B6321162AEA7C6CB457D5476Bca",
      "gasPrice": {
        "_hex": "0xd4e13b785"
      },
      "gasLimit": {
        "_hex": "0x55f0"
      },
      "to": "0xCE09fD3E23b65BaD12809190a19b6BFCFfD48c35",
      "value": {
        "_hex": "0x64f34b967cee7558"
      },
      "nonce": 1732,
      "data": "0x",
      "r": "0x1379b4db1280b57c3efd8d799c196eb9343fd6b34e47a19b11b84bd6b35ab4be",
      "s": "0x6cdc1839342ca57e4ea5d90ec88d67590da9049b83e16f266cc5b788edc86627",
      "v": 27,
      "creates": null,
      "raw": "0xf86e8206c4850d4e13b7858255f094ce09fd3e23b65bad12809190a19b6bfcffd48c358864f34b967cee7558801ba01379b4db1280b57c3efd8d799c196eb9343fd6b34e47a19b11b84bd6b35ab4bea06cdc1839342ca57e4ea5d90ec88d67590da9049b83e16f266cc5b788edc86627",
      "networkId": 0,
      "chainId": 0
    },
    {
      "hash": "0x7880830b9fbcfce8912b669ec11ed732f800abfc0c694fa300df8ecc6fc3897e",
      "blockHash": "0xb57069746249deebe02287d244e89682d27cc237bb4243aa6dcde0df221e4021",
      "blockNumber": 84279,
      "transactionIndex": 30,
      "confirmations": null,
      "from": "0xe6A7a1d47ff21B6321162AEA7C6CB457D5476Bca",
      "gasPrice": {
        "_hex": "0xd4e13b785"
      },
      "gasLimit": {
        "_hex": "0x55f0"
      },
      "to": "0x05a56E2D52c817161883f50c441c3228CFe54d9f",
      "value": {
        "_hex": "0x64ffbb94718e1a18"
      },
      "nonce": 1733,
      "data": "0x",
      "r": "0x09d9f49b9c9f09d676353647a41ae162e8a2c9f853004c08ad3153ece461a50d",
      "s": "0x46a6b59d7c618cae7e08fecd52b3a1c40b3d6b08d57108f695f9c31a4361e67e",
      "v": 27,
      "creates": null,
      "raw": "0xf86e8206c5850d4e13b7858255f09405a56e2d52c817161883f50c441c3228cfe54d9f8864ffbb94718e1a18801ba009d9f49b9c9f09d676353647a41ae162e8a2c9f853004c08ad3153ece461a50da046a6b59d7c618cae7e08fecd52b3a1c40b3d6b08d57108f695f9c31a4361e67e",
      "networkId": 0,
      "chainId": 0
    },
    {
      "hash": "0xc1fd59cc03063aa5f51b73f11cc120eff8a463fa0becf0763c64b9554fc9c750",
      "blockHash": "0xb57069746249deebe02287d244e89682d27cc237bb4243aa6dcde0df221e4021",
      "blockNumber": 84279,
      "transactionIndex": 31,
      "confirmations": null,
      "from": "0xe6A7a1d47ff21B6321162AEA7C6CB457D5476Bca",
      "gasPrice": {
        "_hex": "0xd4e13b785"
      },
      "gasLimit": {
        "_hex": "0x55f0"
      },
      "to": "0x59C7860aBcb1eE791165B63365c3C8657EEe54c5",
      "value": {
        "_hex": "0x669bddd0b0982c20"
      },
      "nonce": 1734,
      "data": "0x",
      "r": "0x4d359d2f79faf5cca126a4b5e0d4f1f9dc133ff3c17f116812e8f5cc7a50eeee",
      "s": "0x6969688990c3bace2b1d80fef2e45234817bda08c81439e437d0fafc2c465230",
      "v": 28,
      "creates": null,
      "raw": "0xf86e8206c6850d4e13b7858255f09459c7860abcb1ee791165b63365c3c8657eee54c588669bddd0b0982c20801ca04d359d2f79faf5cca126a4b5e0d4f1f9dc133ff3c17f116812e8f5cc7a50eeeea06969688990c3bace2b1d80fef2e45234817bda08c81439e437d0fafc2c465230",
      "networkId": 0,
      "chainId": 0
    },
    {
      "hash": "0x7d6afb7d178125c59635c6b81d896cef8970a112fd5a9dc31e0fed38cd35010d",
      "blockHash": "0xb57069746249deebe02287d244e89682d27cc237bb4243aa6dcde0df221e4021",
      "blockNumber": 84279,
      "transactionIndex": 32,
      "confirmations": null,
      "from": "0xe6A7a1d47ff21B6321162AEA7C6CB457D5476Bca",
      "gasPrice": {
        "_hex": "0xd4e13b785"
      },
      "gasLimit": {
        "_hex": "0x55f0"
      },
      "to": "0x2B15C5211bdA6A867c582080536f6c61766aA5Af",
      "value": {
        "_hex": "0x6748dec4c3e9fa40"
      },
      "nonce": 1735,
      "data": "0x",
      "r": "0xe99025da6e2bfb77313e07ad8a662d58c6447e85220bcc0467e9ed3c18e9e7fb",
      "s": "0x4f0dbe66dadf14c7857336bc3d96e08b6a4b75f79b54d63eec0f05682d3657d3",
      "v": 27,
      "creates": null,
      "raw": "0xf86e8206c7850d4e13b7858255f0942b15c5211bda6a867c582080536f6c61766aa5af886748dec4c3e9fa40801ba0e99025da6e2bfb77313e07ad8a662d58c6447e85220bcc0467e9ed3c18e9e7fba04f0dbe66dadf14c7857336bc3d96e08b6a4b75f79b54d63eec0f05682d3657d3",
      "networkId": 0,
      "chainId": 0
    },
    {
      "hash": "0xb9f2efef6e0457a0a804ce54238a6b9a592af478c010a5d29adbe9f00cb4916e",
      "blockHash": "0xb57069746249deebe02287d244e89682d27cc237bb4243aa6dcde0df221e4021",
      "blockNumber": 84279,
      "transactionIndex": 33,
      "confirmations": null,
      "from": "0xe6A7a1d47ff21B6321162AEA7C6CB457D5476Bca",
      "gasPrice": {
        "_hex": "0xd4e13b785"
      },
      "gasLimit": {
        "_hex": "0x55f0"
      },
      "to": "0xfABFCDb9aD54126a8829d5aB6357F608C6B005d0",
      "value": {
        "_hex": "0x679ffbcd0ae7baf0"
      },
      "nonce": 1736,
      "data": "0x",
      "r": "0xf9e0700114d2278225c41c751e037ee8059d6ec2af0c1080fe0358deb13cd95d",
      "s": "0x216a407b028ff296197ade000cb915cecea2c30218445877b3993d7930d4c08d",
      "v": 28,
      "creates": null,
      "raw": "0xf86e8206c8850d4e13b7858255f094fabfcdb9ad54126a8829d5ab6357f608c6b005d088679ffbcd0ae7baf0801ca0f9e0700114d2278225c41c751e037ee8059d6ec2af0c1080fe0358deb13cd95da0216a407b028ff296197ade000cb915cecea2c30218445877b3993d7930d4c08d",
      "networkId": 0,
      "chainId": 0
    }
  ]
}