{
  "hash": "0x0ba56d3c3437dedf2fbb331bc4de9ef1bcf80b61b65db0eceeeab2f7475dbf02",
  "parentHash": "0x51ccd6fb4d5bec9e64e7227e07b51e2d104660d0f142b7d8ef22ab4e328eabdc",
  "number": 68452,
  "timestamp": 1439288139,
  "nonce": "0x331f2788167b4ee6",
  "difficulty": 2008432322196,
  "gasLimit": {
    "_hex": "0x2fefd8"
  },
  "gasUsed": {
    "_hex": "0xa410"
  },
  "miner": "0xbb7B8287f3F0a933474a79eAe42CBCa977791171",
  "extraData": "0x476574682f4c5649562f76312e302e312f6c696e75782f676f312e342e32",
  "transactions": [
    {
      "hash": "0xe44219c75cd6527590c4b9bfb718b72410e4e3b8879a65e50c4da5be1a8c3c91",
      "blockHash": "0x0ba56d3c3437dedf2fbb331bc4de9ef1bcf80b61b65db0eceeeab2f7475dbf02",
      "blockNumber": 68452,
      "transactionIndex": 0,
      "confirmations": null,
      "from": "0x48a9a294D33acEF9dbcBE9D4266d7586F14F6C4e",
      "gasPrice": {
        "_hex": "0xba43b7400"
      },
      "gasLimit": {
        "_hex": "0x5208"
      },
      "to": "0x369248D0a81F8Cf05305190043e08D9C225b0D6D",
      "value": {
        "_hex": "0xd8e5610f40e000"
      },
      "nonce": 1,
      "data": "0x",
      "r": "0x77d2cb2a9e79730d4b3008712665fc5bc73fc530a864db1313c2b3721f446de6",
      "s": "0x6a36f365d4b7586f12fd5c63bfe4a981e6496fa122c639230c3d315b19ca857a",
      "v": 28,
      "creates": null,
      "raw": "0xf86b01850ba43b740082520894369248d0a81f8cf05305190043e08d9c225b0d6d87d8e5610f40e000801ca077d2cb2a9e79730d4b3008712665fc5bc73fc530a864db1313c2b3721f446de6a06a36f365d4b7586f12fd5c63bfe4a981e6496fa122c639230c3d315b19ca857a",
      "networkId": 0,
      "chainId": 0
    },
    {
      "hash": "0xc2795b9b0266fde8c50534eeafa6b65704893063e91c7921286e9ca94453d719",
      "blockHash": "0x0ba56d3c3437dedf2fbb331bc4de9ef1bcf80b61b65db0eceeeab2f7475dbf02",
      "blockNumber": 68452,
      "transactionIndex": 1,
      "confirmations": null,
      "from": "0xc32485140534E2c3C14E9a972380de02C2467fF6",
      "gasPrice": {
        "_hex": "0xba43b7400"
      },
      "gasLimit": {
        "_hex": "0x5208"
      },
      "to": "0xbC6284349e527B59AB4921FBD85952c81aff8c53",
      "value": {
        "_hex": "0xd8e5610f40e000"
      },
      "nonce": 1,
      "data": "0x",
      "r": "0xf9d53ee4dd0d66ad04c2f43d1e9766e41bfdc8e6640b063ef01edf5ed9c73f03",
      "s": "0x44d34a6a58c4355d2c7d158e9a51396b77179b99f50bd987f81d99a59c22cac4",
      "v": 27,
      "creates": null,
      "raw": "0xf86b01850ba43b740082520894bc6284349e527b59ab4921fbd85952c81aff8c5387d8e5610f40e000801ba0f9d53ee4dd0d66ad04c2f43d1e9766e41bfdc8e6640b063ef01edf5ed9c73f03a044d34a6a58c4355d2c7d158e9a51396b77179b99f50bd987f81d99a59c22cac4",
      "networkId": 0,
      "chainId": 0
    }
  ]
}