{
  "hash": "0xdb326436e118d5773191a239634d798c05ccf066267820f470f3256192d88fb2",
  "parentHash": "0x54d6a7637f66b0bf47d59fe46125bfa83d0d9279286a57003fd9c2044e11c5c9",
  "number": 95827,
  "timestamp": 1439730167,
  "nonce": "0x4fd41734ea9855dc",
  "difficulty": 3648035587652,
  "gasLimit": {
    "_hex": "0x2fefd8"
  },
  "gasUsed": {
    "_hex": "0x5208"
  },
  "miner": "0xe6A7a1d47ff21B6321162AEA7C6CB457D5476Bca",
  "extraData": "0x476574682f76312e302e312d38326566323666362f6c696e75782f676f312e34",
  "transactions": [
    {
      "hash": "0xd9db6315709d432c4090ccef32ca482dc20120932f3d625057a972b79c0a06ce",
      "blockHash": "0xdb326436e118d5773191a239634d798c05ccf066267820f470f3256192d88fb2",
      "blockNumber": 95827,
      "transactionIndex": 0,
      "confirmations": null,
      "from": "0x007f7f58D3eb5b7510A301eCC749FC1fCDDBE14D",
      "gasPrice": {
        "_hex": "0xcc8ddf695"
      },
      "gasLimit": {
        "_hex": "0x15f90"
      },
      "to": "0xb1abce2918E21ddb93AA452731a12672A3d9F75a",
      "value": {
        "_hex": "0x4563918244f40000"
      },
      "nonce": 63,
      "data": "0x",
      "r": "0x6af55d37b7a2bf2891927f7575db3f94fc3f9682383953a32b6b930a1b477b80",
      "s": "0x5544f48b58775f7d38438a608d93cab229366fe9adfd031f8e11832e1e0ca290",
      "v": 28,
      "creates": null,
      "raw": "0xf86d3f850cc8ddf69583015f9094b1abce2918e21ddb93aa452731a12672a3d9f75a884563918244f40000801ca06af55d37b7a2bf2891927f7575db3f94fc3f9682383953a32b6b930a1b477b80a05544f48b58775f7d38438a608d93cab229366fe9adfd031f8e11832e1e0ca290",
      "networkId": 0,
      "chainId": 0
    }
  ]
}