{
  "hash": "0x119e154170c57facb71b84b595e02f2b1d7d23f314a960dba3274ad8bb1150ac",
  "parentHash": "0x5e2d97b001d35fc5cd0cc9c538a11aca8a073dfd97639b7c027668d99c48ea00",
  "number": 122111,
  "timestamp": 1440188330,
  "nonce": "0x8794e0a017015a99",
  "difficulty": 4473122884710,
  "gasLimit": {
    "_hex": "0x2fefd8"
  },
  "gasUsed": {
    "_hex": "0x5208"
  },
  "miner": "0xe6A7a1d47ff21B6321162AEA7C6CB457D5476Bca",
  "extraData": "0xd783010002844765746887676f312e342e32856c696e7578",
  "transactions": [
    {
      "hash": "0x9bbef5502030789c0a30ad2ca161a1af564d639903ac5e7003981b64132d857f",
      "blockHash": "0x119e154170c57facb71b84b595e02f2b1d7d23f314a960dba3274ad8bb1150ac",
      "blockNumber": 122111,
      "transactionIndex": 0,
      "confirmations": null,
      "from": "0x0D6D909581388c94e7F15CAd3293F940180486a3",
      "gasPrice": {
        "_hex": "0x746a528800"
      },
      "gasLimit": {
        "_hex": "0x5b04"
      },
      "to": "0x97D351634e7f843376938A697d736B86876c6709",
      "value": {
        "_hex": "0x14d1120d7b1600000"
      },
      "nonce": 1,
      "data": "0x",
      "r": "0x0a6d5ba77673a048c0bce12aa82075452d64ed6489c9684195f344847e9111f0",
      "s": "0x0cf55591131da30766da6906be7e776da495bd200e679e0fa02cf2a602b27749",
      "v": 28,
      "creates": null,
      "raw": "0xf86d0185746a528800825b049497d351634e7f843376938a697d736b86876c670989014d1120d7b1600000801ca00a6d5ba77673a048c0bce12aa82075452d64ed6489c9684195f344847e9111f0a00cf55591131da30766da6906be7e776da495bd200e679e0fa02cf2a602b27749",
      "networkId": 0,
      "chainId": 0
    }
  ]
}