{
  "hash": "0x4c72f7621fdf671c5e28bd0dbc71b8cb8d6e6673765efa9ff3b790f8eb833daa",
  "parentHash": "0x4e2253d044abbabedaba2cf69703e74867d340f7cb5ebeb68e327f9712b49fcb",
  "number": 87848,
  "timestamp": 1439598409,
  "nonce": "0xb6664bf237d8276f",
  "difficulty": 3183346355280,
  "gasLimit": {
    "_hex": "0x2fefd8"
  },
  "gasUsed": {
    "_hex": "0xa410"
  },
  "miner": "0x6DE55b563cE6E319cCB403032Da3BE5Ad4ec4FcF",
  "extraData": "0x",
  "transactions": [
    {
      "hash": "0x7996302842892ba64fb41be60971803fe0124323cdf4d28954af41e755de689d",
      "blockHash": "0x4c72f7621fdf671c5e28bd0dbc71b8cb8d6e6673765efa9ff3b790f8eb833daa",
      "blockNumber": 87848,
      "transactionIndex": 0,
      "confirmations": null,
      "from": "0x32Be343B94f860124dC4fEe278FDCBD38C102D88",
      "gasPrice": {
        "_hex": "0xd3e6472c0"
      },
      "gasLimit": {
        "_hex": "0x5208"
      },
      "to": "0x910560734C1155e546d762CB1C5e1669E798AEb4",
      "value": {
        "_hex": "0x1f488fc48da2f60000"
      },
      "nonce": 803,
      "data": "0x",
      "r": "0x11bb2e8ef4c635980aa521df6a2267df7609b1c25c25fd57ae18c34f322b6ff1",
      "s": "0x1b503f4ddc0714858b63f8a572d0eb67b7a6a358bbaddba4243a8e2765b0114b",
      "v": 28,
      "creates": null,
      "raw": "0xf86f820323850d3e6472c082520894910560734c1155e546d762cb1c5e1669e798aeb4891f488fc48da2f60000801ca011bb2e8ef4c635980aa521df6a2267df7609b1c25c25fd57ae18c34f322b6ff1a01b503f4ddc0714858b63f8a572d0eb67b7a6a358bbaddba4243a8e2765b0114b",
      "networkId": 0,
      "chainId": 0
    },
    {
      "hash": "0x8b6dd02d7d8a859968ada4eb0441dbe1d42df0f9a5b24d2b3235884018579543",
      "blockHash": "0x4c72f7621fdf671c5e28bd0dbc71b8cb8d6e6673765efa9ff3b790f8eb833daa",
      "blockNumber": 87848,
      "transactionIndex": 1,
      "confirmations": null,
      "from": "0x32Be343B94f860124dC4fEe278FDCBD38C102D88",
      "gasPrice": {
        "_hex": "0xd3e6472c0"
      },
      "gasLimit": {
        "_hex": "0x5208"
      },
      "to": "0x2f0ca050Fc765CA22c752A40a74Fc981BB40D63e",
      "value": {
        "_hex": "0x8aa39c121a270000"
      },
      "nonce": 804,
      "data": "0x",
      "r": "0x39f4116c5729e2baaa925aa702202f8d0c6dec11d37e5f4d3822c6fef03474e2",
      "s": "0x56ef290dc58331ca5aaa081d5062d3d509c465e145f27727119434bc397b8892",
      "v": 28,
      "creates": null,
      "raw": "0xf86e820324850d3e6472c0825208942f0ca050fc765ca22c752a40a74fc981bb40d63e888aa39c121a270000801ca039f4116c5729e2baaa925aa702202f8d0c6dec11d37e5f4d3822c6fef03474e2a056ef290dc58331ca5aaa081d5062d3d509c465e145f27727119434bc397b8892",
      "networkId": 0,
      "chainId": 0
    }
  ]
}