{
  "hash": "0x095e352c364fcd6243d669dac14a88d7dcb6a0748a5de99f2b3a175f6ba373d4",
  "parentHash": "0xfc4eae49fdd8470fc9278fdb4af855cf5cd209828791c2a95dec7cf544a4e84f",
  "number": 120657,
  "timestamp": 1440163781,
  "nonce": "0x6abee21f3fe132be",
  "difficulty": 4417459748956,
  "gasLimit": {
    "_hex": "0x2fefd8"
  },
  "gasUsed": {
    "_hex": "0x5208"
  },
  "miner": "0xe6A7a1d47ff21B6321162AEA7C6CB457D5476Bca",
  "extraData": "0xd783010002844765746887676f312e342e32856c696e7578",
  "transactions": [
    {
      "hash": "0x8337700fa47dc714f36b6bf2ffd2e51f7b77f1a80ccaecd8257eb1a5592d692c",
      "blockHash": "0x095e352c364fcd6243d669dac14a88d7dcb6a0748a5de99f2b3a175f6ba373d4",
      "blockNumber": 120657,
      "transactionIndex": 0,
      "confirmations": null,
      "from": "0x2910543Af39abA0Cd09dBb2D50200b3E800A63D2",
      "gasPrice": {
        "_hex": "0xd704e7f5b"
      },
      "gasLimit": {
        "_hex": "0x5208"
      },
      "to": "0x595dD3C0ee282DF1B9eB590bDc5120A3716be0f3",
      "value": {
        "_hex": "0x410d46a6a76cdf8000"
      },
      "nonce": 1181,
      "data": "0x",
      "r": "0x7c787b105551743946699d1aa933f6d10349865f26778857fc7b280b53706681",
      "s": "0x340df434abb8e9b3dcc624da8f4023bbe4a2a8e5b734f2e8e814220eef130fa3",
      "v": 28,
      "creates": null,
      "raw": "0xf86f82049d850d704e7f5b82520894595dd3c0ee282df1b9eb590bdc5120a3716be0f389410d46a6a76cdf8000801ca07c787b105551743946699d1aa933f6d10349865f26778857fc7b280b53706681a0340df434abb8e9b3dcc624da8f4023bbe4a2a8e5b734f2e8e814220eef130fa3",
      "networkId": 0,
      "chainId": 0
    }
  ]
}