{
  "hash": "0x97df060b906070e6d9e6370aa9c1424497387db52fdf37d31df1993dd6252eeb",
  "parentHash": "0x862f9139979c3e65962d12efdf23a8b88690d8b759695cd6f83640da0195a460",
  "number": 56474,
  "timestamp": 1439087762,
  "nonce": "0x184b906b1536443f",
  "difficulty": 1660927369114,
  "gasLimit": {
    "_hex": "0x2fefd8"
  },
  "gasUsed": {
    "_hex": "0x6f34"
  },
  "miner": "0xEF247E639d49461D25F57e9362CadE3120910Ce0",
  "extraData": "0x476574682f76312e302e312f6c696e75782f676f312e342e32",
  "transactions": [
    {
      "hash": "0x48a323c7f6e6c0edef5982a21173eef791a640fb1b429464ae4d67dc802c2627",
      "blockHash": "0x97df060b906070e6d9e6370aa9c1424497387db52fdf37d31df1993dd6252eeb",
      "blockNumber": 56474,
      "transactionIndex": 0,
      "confirmations": null,
      "from": "0xA1eEc0a9b7C50B8e79A0D9B8760bC5681fb199EC",
      "gasPrice": {
        "_hex": "0xcfde91fb2"
      },
      "gasLimit": {
        "_hex": "0x15f90"
      },
      "to": "0xABFF46330bc70e19673b280d2F77F6BbB485F029",
      "value": {
        "_hex": "0x0"
      },
      "nonce": 14,
      "data": "0xa52c101e00000000000000000000000000000000000000000000000000000000000002a5",
      "r": "0xc3953b1876ec000d64a2cc7704478c3bbbaa37da7639c89a906f6449fd2c5818",
      "s": "0x421385388747cf01696d7dc53840ac9d107f604583c8304f7e6f9159c6b4c7b1",
      "v": 28,
      "creates": null,
      "raw": "0xf8890e850cfde91fb283015f9094abff46330bc70e19673b280d2f77f6bbb485f02980a4a52c101e00000000000000000000000000000000000000000000000000000000000002a51ca0c3953b1876ec000d64a2cc7704478c3bbbaa37da7639c89a906f6449fd2c5818a0421385388747cf01696d7dc53840ac9d107f604583c8304f7e6f9159c6b4c7b1",
      "networkId": 0,
      "chainId": 0
    }
  ]
}