{
  "hash": "0x64ebb85895d330fdb1f48659984c74ba85980db8ba0f4cefc85f8421c27d1184",
  "parentHash": "0x6fd7d73129001a7672caf7e6cc2ed8d6b94218c4c6a8a1de63bd29d297072790",
  "number": 74527,
  "timestamp": 1439387507,
  "nonce": "0x25eb1a7fd86bebf5",
  "difficulty": 2216105516753,
  "gasLimit": {
    "_hex": "0x2fefd5"
  },
  "gasUsed": {
    "_hex": "0x14820"
  },
  "miner": "0xF2d2AfF1320476cb8C6b607199D23175cc595693",
  "extraData": "0x476574682f76312e302e312f77696e646f77732f676f312e342e32",
  "transactions": [
    {
      "hash": "0x4b98833514a5ba34f50262ac7dc6410282b1565c4b2e4cf280977101e632de0c",
      "blockHash": "0x64ebb85895d330fdb1f48659984c74ba85980db8ba0f4cefc85f8421c27d1184",
      "blockNumber": 74527,
      "transactionIndex": 0,
      "confirmations": null,
      "from": "0x285B048CC4cB946abCF3eF11aDe982C36946AF18",
      "gasPrice": {
        "_hex": "0xd9cd93900"
      },
      "gasLimit": {
        "_hex": "0x5208"
      },
      "to": "0x32Be343B94f860124dC4fEe278FDCBD38C102D88",
      "value": {
        "_hex": "0xd0266278ce415000"
      },
      "nonce": 7,
      "data": "0x",
      "r": "0x9f1a567cff1dfae87cb08b661cf66c600216d02b9b95725897abc78767530d19",
      "s": "0x250963423729a2ad546de205a7e49a47a9b14d69dd1bd280670c3cd09b285811",
      "v": 27,
      "creates": null,
      "raw": "0xf86c07850d9cd939008252089432be343b94f860124dc4fee278fdcbd38c102d8888d0266278ce415000801ba09f1a567cff1dfae87cb08b661cf66c600216d02b9b95725897abc78767530d19a0250963423729a2ad546de205a7e49a47a9b14d69dd1bd280670c3cd09b285811",
      "networkId": 0,
      "chainId": 0
    },
    {
      "hash": "0x1ff3555deef09d13020b1940739fb4c6c5305aa1bd172033161140b42fa482ea",
      "blockHash": "0x64ebb85895d330fdb1f48659984c74ba85980db8ba0f4cefc85f8421c27d1184",
      "blockNumber": 74527,
      "transactionIndex": 1,
      "confirmations": null,
      "from": "0xa70a9a7040d542C632D8e0bE7c5513A8a5Bbc752",
      "gasPrice": {
        "_hex": "0xd9cd93900"
      },
      "gasLimit": {
        "_hex": "0x5208"
      },
      "to": "0x32Be343B94f860124dC4fEe278FDCBD38C102D88",
      "value": {
        "_hex": "0x455f34d72224f400"
      },
      "nonce": 34,
      "data": "0x",
      "r": "0xda8838cf8b474248f8a2a6e2ea144e82e70f1e74f1f527210c6ca2fbaa272647",
      "s": "0x42fb9b82f5dafe721e0acc25bc011f59c94e030c9b7703071d0b555ba242b389",
      "v": 28,
      "creates": null,
      "raw": "0xf86c22850d9cd939008252089432be343b94f860124dc4fee278fdcbd38c102d8888455f34d72224f400801ca0da8838cf8b474248f8a2a6e2ea144e82e70f1e74f1f527210c6ca2fbaa272647a042fb9b82f5dafe721e0acc25bc011f59c94e030c9b7703071d0b555ba242b389",
      "networkId": 0,
      "chainId": 0
    },
    {
      "hash": "0x0b836112b727683942e9e737b6ddfcdf02a084db3f21b8781e3886051fa88b49",
      "blockHash": "0x64ebb85895d330fdb1f48659984c74ba85980db8ba0f4cefc85f8421c27d1184",
      "blockNumber": 74527,
      "transactionIndex": 2,
      "confirmations": null,
      "from": "0x98781996FF0F2C5dE96Bb45755683BB5a09A5727",
      "gasPrice": {
        "_hex": "0xd9cd93900"
      },
      "gasLimit": {
        "_hex": "0x5208"
      },
      "to": "0x32Be343B94f860124dC4fEe278FDCBD38C102D88",
      "value": {
        "_hex": "0x55dd0875560fc8000"
      },
      "nonce": 1,
      "data": "0x",
      "r": "0xa9f5047922e2ccca0365c0ef584a339aeed8bdd33bb8b01e72c4e029a9905bae",
      "s": "0x52366e1a8bd5e8e172c70ce4de65f4c13146fbb43ae903b25ef89a4cafd21abe",
      "v": 28,
      "creates": null,
      "raw": "0xf86d01850d9cd939008252089432be343b94f860124dc4fee278fdcbd38c102d8889055dd0875560fc8000801ca0a9f5047922e2ccca0365c0ef584a339aeed8bdd33bb8b01e72c4e029a9905baea052366e1a8bd5e8e172c70ce4de65f4c13146fbb43ae903b25ef89a4cafd21abe",
      "networkId": 0,
      "chainId": 0
    },
    {
      "hash": "0x71b157e4676079334b4a9ae01ae1a6839636d3bac0c451bcea711c9f8a4b7f04",
      "blockHash": "0x64ebb85895d330fdb1f48659984c74ba85980db8ba0f4cefc85f8421c27d1184",
      "blockNumber": 74527,
      "transactionIndex": 3,
      "confirmations": null,
      "from": "0xd6986162E8B905e6a771C3BCD1b2baa2B0bb386F",
      "gasPrice": {
        "_hex": "0xd9cd93900"
      },
      "gasLimit": {
        "_hex": "0x5208"
      },
      "to": "0x32Be343B94f860124dC4fEe278FDCBD38C102D88",
      "value": {
        "_hex": "0xddc5a0ad8a0d800"
      },
      "nonce": 4,
      "data": "0x",
      "r": "0xa32862f02f4cb3768f847b158e13a58ae1766236d1c744c6d0dd40644aa041cc",
      "s": "0x16b7bc5d0f5190f2c000cde321714e46812f87d7fd13d433c5828da7a0fc11fc",
      "v": 28,
      "creates": null,
      "raw": "0xf86c04850d9cd939008252089432be343b94f860124dc4fee278fdcbd38c102d88880ddc5a0ad8a0d800801ca0a32862f02f4cb3768f847b158e13a58ae1766236d1c744c6d0dd40644aa041cca016b7bc5d0f5190f2c000cde321714e46812f87d7fd13d433c5828da7a0fc11fc",
      "networkId": 0,
      "chainId": 0
    }
  ]
}