{
  "hash": "0x22b69b4fc16c890e27992bb0b1313cad04e07cd2d294c999ee975d8a6abf0233",
  "parentHash": "0x9deeb79c4cdd025abc342ed3df3e0681bca06851d97a19fd3986d669ddf3c130",
  "number": 60406,
  "timestamp": 1439155047,
  "nonce": "0x9e237c63a81a2021",
  "difficulty": 1739821245006,
  "gasLimit": {
    "_hex": "0x2fefd8"
  },
  "gasUsed": {
    "_hex": "0x5208"
  },
  "miner": "0x190174d939CC332eE1Ea9351AD703ddF7364Ca68",
  "extraData": "0x476574682f76312e302e312d38326566323666362f6c696e75782f676f312e34",
  "transactions": [
    {
      "hash": "0x9ddfe9cb3713a076b620cc32cdb8f3479b28f79d37f1726ad2c960e15ad73aea",
      "blockHash": "0x22b69b4fc16c890e27992bb0b1313cad04e07cd2d294c999ee975d8a6abf0233",
      "blockNumber": 60406,
      "transactionIndex": 0,
      "confirmations": null,
      "from": "0xa072691C8DD7cD4237fF72a75C1A9506d0Ce5B9E",
      "gasPrice": {
        "_hex": "0x1077fd8ad70"
      },
      "gasLimit": {
        "_hex": "0x15f90"
      },
      "to": "0xE61f07672D088d1df25512d8a9A7A9B9a47A9654",
      "value": {
        "_hex": "0xdee976a5b0b640000"
      },
      "nonce": 5,
      "data": "0x",
      "r": "0x79edf00e8a97d1bdb0d6e806c5fb6e13635f1903ee559b426eb9476f934ae7ed",
      "s": "0x7fc4ef6d05490da7c8b7e3340ab056aa595ec092e2116a76c419858e361f4f33",
      "v": 28,
      "creates": null,
      "raw": "0xf86f058601077fd8ad7083015f9094e61f07672d088d1df25512d8a9a7a9b9a47a9654890dee976a5b0b640000801ca079edf00e8a97d1bdb0d6e806c5fb6e13635f1903ee559b426eb9476f934ae7eda07fc4ef6d05490da7c8b7e3340ab056aa595ec092e2116a76c419858e361f4f33",
      "networkId": 0,
      "chainId": 0
    }
  ]
}