{
  "hash": "0xb563378c7b1a030ef4a1a0e2f41c9fff3bd3ac6543f04db4841bf2e1ecb2ef4c",
  "parentHash": "0x34b33954a1981d4488e02846f1ee5a3832da75937b386c7ff6f65d0415581004",
  "number": 115724,
  "timestamp": 1440062280,
  "nonce": "0xce34b0c6d3fe3b39",
  "difficulty": 4575979821519,
  "gasLimit": {
    "_hex": "0x2fefd8"
  },
  "gasUsed": {
    "_hex": "0x5208"
  },
  "miner": "0x580992B51e3925e23280EfB93d3047C82f17E038",
  "extraData": "0x476574682f76312e302e312f6c696e75782f676f312e342e32",
  "transactions": [
    {
      "hash": "0xa053dd9bd68326db377eba5abd21b5f457d4b9e428415557cce20b768ae09f60",
      "blockHash": "0xb563378c7b1a030ef4a1a0e2f41c9fff3bd3ac6543f04db4841bf2e1ecb2ef4c",
      "blockNumber": 115724,
      "transactionIndex": 0,
      "confirmations": null,
      "from": "0x406598dCeF6Ba564F5705c8C61857fE905EEC03c",
      "gasPrice": {
        "_hex": "0xd1d0c1b9d"
      },
      "gasLimit": {
        "_hex": "0x15f90"
      },
      "to": "0x7B60F3f033e6D7808428C9f2dBC81682ff24984F",
      "value": {
        "_hex": "0x4563918244f40000"
      },
      "nonce": 2,
      "data": "0x",
      "r": "0x5aae0229076db3f845a3114dc1476adb464fb2fa324103eb0b085063e51517f0",
      "s": "0x46bd85ec61a2933daf53084c89004dce5552e1f0ef48c8aaaaec7d84e4efa7db",
      "v": 27,
      "creates": null,
      "raw": "0xf86d02850d1d0c1b9d83015f90947b60f3f033e6d7808428c9f2dbc81682ff24984f884563918244f40000801ba05aae0229076db3f845a3114dc1476adb464fb2fa324103eb0b085063e51517f0a046bd85ec61a2933daf53084c89004dce5552e1f0ef48c8aaaaec7d84e4efa7db",
      "networkId": 0,
      "chainId": 0
    }
  ]
}