{
  "hash": "0x596be64748f294fa4b62c53be34f512b6a53dccda7516a09c5af14c85264ce29",
  "parentHash": "0x293445ebc164cc15bc0c7a4fdcbfebf868aa3eccdada3f8fc38a4ed7c86406fd",
  "number": 117538,
  "timestamp": 1440111196,
  "nonce": "0xbca6f2d264c104c4",
  "difficulty": 4310415406695,
  "gasLimit": {
    "_hex": "0x2fefd8"
  },
  "gasUsed": {
    "_hex": "0x546c"
  },
  "miner": "0xe6A7a1d47ff21B6321162AEA7C6CB457D5476Bca",
  "extraData": "0xd783010002844765746887676f312e342e32856c696e7578",
  "transactions": [
    {
      "hash": "0x8d8c577e1d3e57c752db2903157178719e48bd65de745c74b07f732b68ed29e0",
      "blockHash": "0x596be64748f294fa4b62c53be34f512b6a53dccda7516a09c5af14c85264ce29",
      "blockNumber": 117538,
      "transactionIndex": 0,
      "confirmations": null,
      "from": "0xA12E42660746c6a0484965f36D7b4d6a727BDa72",
      "gasPrice": {
        "_hex": "0x10330c3a703"
      },
      "gasLimit": {
        "_hex": "0x55f0"
      },
      "to": "0x2910543Af39abA0Cd09dBb2D50200b3E800A63D2",
      "value": {
        "_hex": "0x4563918244f40000"
      },
      "nonce": 12,
      "data": "0x454e54314834395730",
      "r": "0x0f294cb93b28b23c19e15b5da6dce53b777ae15eb1258226100b025a3482cdf2",
      "s": "0x4ec0d7e2e8a014ef55584fdcd6a73eb7d1b84de3782e3124e59b9bfa6e0c0c33",
      "v": 28,
      "creates": null,
      "raw": "0xf8760c86010330c3a7038255f0942910543af39aba0cd09dbb2d50200b3e800a63d2884563918244f4000089454e543148343957301ca00f294cb93b28b23c19e15b5da6dce53b777ae15eb1258226100b025a3482cdf2a04ec0d7e2e8a014ef55584fdcd6a73eb7d1b84de3782e3124e59b9bfa6e0c0c33",
      "networkId": 0,
      "chainId": 0
    }
  ]
}