{
  "hash": "0xacaef6b58ddfa8fd998a433c61812b3ce936c4e520c5458586fa562917e2e12a",
  "parentHash": "0x719ca9d04ebcae4fe972f397107dd6e98a68896e69395804f2b083f6405db311",
  "number": 80272,
  "timestamp": 1439482914,
  "nonce": "0xaf517353850e42f8",
  "difficulty": 2384041127962,
  "gasLimit": {
    "_hex": "0x2fefd8"
  },
  "gasUsed": {
    "_hex": "0xa410"
  },
  "miner": "0xe6A7a1d47ff21B6321162AEA7C6CB457D5476Bca",
  "extraData": "0x476574682f76312e302e312d38326566323666362f6c696e75782f676f312e34",
  "transactions": [
    {
      "hash": "0xe1ac0164e242a38f088ceeb97ab257a889b14e4b81bdda5c147506c7a907d5cd",
      "blockHash": "0xacaef6b58ddfa8fd998a433c61812b3ce936c4e520c5458586fa562917e2e12a",
      "blockNumber": 80272,
      "transactionIndex": 0,
      "confirmations": null,
      "from": "0xc7178C8B9a4d03e33d8d695169Ce476014c71Ada",
      "gasPrice": {
        "_hex": "0xba43b7400"
      },
      "gasLimit": {
        "_hex": "0x5208"
      },
      "to": "0xC47Aaa860008be6f65B58c6C6E02a84e666EfE31",
      "value": {
        "_hex": "0x4a3a72fbea59d9800"
      },
      "nonce": 0,
      "data": "0x",
      "r": "0xf654c3fa76d7264cb40270ad5577487203344a096a4805ab78da014970d9fd71",
      "s": "0x579fc2a660201f80f392b7329cee29c338a414bdeecee9a2d3a8c66bde4f6d10",
      "v": 28,
      "creates": null,
      "raw": "0xf86d80850ba43b740082520894c47aaa860008be6f65b58c6c6e02a84e666efe318904a3a72fbea59d9800801ca0f654c3fa76d7264cb40270ad5577487203344a096a4805ab78da014970d9fd71a0579fc2a660201f80f392b7329cee29c338a414bdeecee9a2d3a8c66bde4f6d10",
      "networkId": 0,
      "chainId": 0
    },
    {
      "hash": "0x0c38f4f099b656a9d58ea343dffa6d081f3f8ed7a3de43bf6611154451fe7464",
      "blockHash": "0xacaef6b58ddfa8fd998a433c61812b3ce936c4e520c5458586fa562917e2e12a",
      "blockNumber": 80272,
      "transactionIndex": 1,
      "confirmations": null,
      "from": "0x8eC407EDf8FAbf4dCDD81b9bf6AC7f07591D1488",
      "gasPrice": {
        "_hex": "0xba43b7400"
      },
      "gasLimit": {
        "_hex": "0x5208"
      },
      "to": "0xC47Aaa860008be6f65B58c6C6E02a84e666EfE31",
      "value": {
        "_hex": "0x385e721b2e39f11e0"
      },
      "nonce": 1,
      "data": "0x",
      "r": "0x348e70369c293fea9e4c8de9f7b860a20a0cc69d62583f22f01b0c35ac0d3bb0",
      "s": "0x3fe6d3b46a6ecb3d4fa72f35a02dbd36b72581c44564c80d95c673a1a5abb558",
      "v": 27,
      "creates": null,
      "raw": "0xf86d01850ba43b740082520894c47aaa860008be6f65b58c6c6e02a84e666efe31890385e721b2e39f11e0801ba0348e70369c293fea9e4c8de9f7b860a20a0cc69d62583f22f01b0c35ac0d3bb0a03fe6d3b46a6ecb3d4fa72f35a02dbd36b72581c44564c80d95c673a1a5abb558",
      "networkId": 0,
      "chainId": 0
    }
  ]
}