{
  "hash": "0x5e53d080de9c3ff084dbe54c48e47c2bc4a8e9c3d7f60e0627b901645ee3986a",
  "parentHash": "0x1938af68e4a9059ad15ecf0915cb25a1105cc2d9af86217c4783ec9e91bb36ed",
  "number": 85037,
  "timestamp": 1439557653,
  "nonce": "0x74e071a6fd8471a2",
  "difficulty": 2719785991450,
  "gasLimit": {
    "_hex": "0x2fefd8"
  },
  "gasUsed": {
    "_hex": "0x5208"
  },
  "miner": "0xf8E0CA3Ed80bd541b94BEdCf259e8CF2141A9523",
  "extraData": "0x476574682f76312e302e312f77696e646f77732f676f312e342e32",
  "transactions": [
    {
      "hash": "0x0ca791b114fc8537df44739cd6fc156223cbde6e6ab24c7582f31092958aba36",
      "blockHash": "0x5e53d080de9c3ff084dbe54c48e47c2bc4a8e9c3d7f60e0627b901645ee3986a",
      "blockNumber": 85037,
      "transactionIndex": 0,
      "confirmations": null,
      "from": "0xee5379D0c1ca47327368027455074C26D9952628",
      "gasPrice": {
        "_hex": "0xdeee45505"
      },
      "gasLimit": {
        "_hex": "0x15f90"
      },
      "to": "0xa6b0Df3d84cb20F4F4a593855BfFAA0d3aaa02Aa",
      "value": {
        "_hex": "0x2552945046d0f0000"
      },
      "nonce": 10,
      "data": "0x",
      "r": "0x72daecd8b060c8b11a79665ac103b4b3a7aee513bc47b99cddb03587f14f0eae",
      "s": "0x688d7dc4f93635f06f0c19517d6798d2c72aff9155a6493c7cf5628bff556c5d",
      "v": 28,
      "creates": null,
      "raw": "0xf86e0a850deee4550583015f9094a6b0df3d84cb20f4f4a593855bffaa0d3aaa02aa8902552945046d0f0000801ca072daecd8b060c8b11a79665ac103b4b3a7aee513bc47b99cddb03587f14f0eaea0688d7dc4f93635f06f0c19517d6798d2c72aff9155a6493c7cf5628bff556c5d",
      "networkId": 0,
      "chainId": 0
    }
  ]
}