{
  "hash": "0x8094b9448f2db0acef1cbe0d75478fdae58fd3ddea33e25e556ae6a521c2332c",
  "parentHash": "0x159c1e4bdc39b469e529d3473a0c740aff94bbd7eabb851077e6317cda26a6b1",
  "number": 68442,
  "timestamp": 1439288003,
  "nonce": "0x6103697eac35b75a",
  "difficulty": 2006474311637,
  "gasLimit": {
    "_hex": "0x2fefd8"
  },
  "gasUsed": {
    "_hex": "0x323f2"
  },
  "miner": "0x39A1BB80a741bF5EC39FB9BE59408Fa0F418fFBf",
  "extraData": "0x476574682f76312e302e312f77696e646f77732f676f312e342e32",
  "transactions": [
    {
      "hash": "0x9c4001dab28447442edfddc98f6615d4929073ee18937f150a1624d372f4893c",
      "blockHash": "0x8094b9448f2db0acef1cbe0d75478fdae58fd3ddea33e25e556ae6a521c2332c",
      "blockNumber": 68442,
      "transactionIndex": 0,
      "confirmations": null,
      "from": "0x17580B766f7453525ca4C6A88b01b50570EA088C",
      "gasPrice": {
        "_hex": "0xda44eac4a"
      },
      "gasLimit": {
        "_hex": "0x61a80"
      },
      "to": "0x5Fe5B7546D1628f7348B023A0393de1FC825A4fD",
      "value": {
        "_hex": "0xde0b6b3a7640000"
      },
      "nonce": 26,
      "data": "0xb595b8b50000000000000000000000000000000000000000000000000000000000000000",
      "r": "0xd4da983b81ba6e6147fb1d368d4fcea8d22bbdab86dec20908e99af9e15681d0",
      "s": "0x0bbab3c00f7d65eb75198f109258e32c1597062c0efcaad6070963899ec11196",
      "v": 27,
      "creates": null,
      "raw": "0xf8911a850da44eac4a83061a80945fe5b7546d1628f7348b023a0393de1fc825a4fd880de0b6b3a7640000a4b595b8b500000000000000000000000000000000000000000000000000000000000000001ba0d4da983b81ba6e6147fb1d368d4fcea8d22bbdab86dec20908e99af9e15681d0a00bbab3c00f7d65eb75198f109258e32c1597062c0efcaad6070963899ec11196",
      "networkId": 0,
      "chainId": 0
    },
    {
      "hash": "0x9022f673f6ceb4ec27166a8fc64199bd70bb5b9222a4cb2a2a99a4b308a82483",
      "blockHash": "0x8094b9448f2db0acef1cbe0d75478fdae58fd3ddea33e25e556ae6a521c2332c",
      "blockNumber": 68442,
      "transactionIndex": 1,
      "confirmations": null,
      "from": "0xAf3d715925d56662b225A85B47fCF21b6991ebBA",
      "gasPrice": {
        "_hex": "0xba43b7400"
      },
      "gasLimit": {
        "_hex": "0x5208"
      },
      "to": "0x5e1474925C6cfb4f341CaCf29f8Ad8258d82a6fd",
      "value": {
        "_hex": "0xc1c23435b07000"
      },
      "nonce": 1,
      "data": "0x",
      "r": "0xfad803f39a672ea52630e8e4bf83d1f0a50e5bec163b9358d19632a7b8385a04",
      "s": "0x2c6705597556dce96aa4cc403073e7bf5f7f0cd68bc6e9fb8029dc8bdbf27ec4",
      "v": 27,
      "creates": null,
      "raw": "0xf86b01850ba43b7400825208945e1474925c6cfb4f341cacf29f8ad8258d82a6fd87c1c23435b07000801ba0fad803f39a672ea52630e8e4bf83d1f0a50e5bec163b9358d19632a7b8385a04a02c6705597556dce96aa4cc403073e7bf5f7f0cd68bc6e9fb8029dc8bdbf27ec4",
      "networkId": 0,
      "chainId": 0
    },
    {
      "hash": "0x5dcfc07d9d109d8dc14a946ea4cb9bd8f6f8b41cf0d681772228b22d3159eb70",
      "blockHash": "0x8094b9448f2db0acef1cbe0d75478fdae58fd3ddea33e25e556ae6a521c2332c",
      "blockNumber": 68442,
      "transactionIndex": 2,
      "confirmations": null,
      "from": "0x6747f922385c9a6F9cfDf095F34345257DD597bE",
      "gasPrice": {
        "_hex": "0xba43b7400"
      },
      "gasLimit": {
        "_hex": "0x5208"
      },
      "to": "0xbF2aA1D21c90323bEe086cFDF0634EaA8CE0C625",
      "value": {
        "_hex": "0x1fcbfa42bd6000"
      },
      "nonce": 91,
      "data": "0x",
      "r": "0x3306421c7aa6c42e38c50faae00f2b533978e816431531c2c7c45282ab149044",
      "s": "0x500a3543c5f2256e3b97edbc7762f777b127099e63d2e0acf22d399d7084161a",
      "v": 28,
      "creates": null,
      "raw": "0xf86b5b850ba43b740082520894bf2aa1d21c90323bee086cfdf0634eaa8ce0c625871fcbfa42bd6000801ca03306421c7aa6c42e38c50faae00f2b533978e816431531c2c7c45282ab149044a0500a3543c5f2256e3b97edbc7762f777b127099e63d2e0acf22d399d7084161a",
      "networkId": 0,
      "chainId": 0
    },
    {
      "hash": "0x2358ffc39197e822d1752c893b920e59c44a122a0d651ce1e8d33b0853ebf325",
      "blockHash": "0x8094b9448f2db0acef1cbe0d75478fdae58fd3ddea33e25e556ae6a521c2332c",
      "blockNumber": 68442,
      "transactionIndex": 3,
      "confirmations": null,
      "from": "0x994E45646d2F10ADec526E4DC0988D90b8CDE9CC",
      "gasPrice": {
        "_hex": "0xba43b7400"
      },
      "gasLimit": {
        "_hex": "0x5208"
      },
      "to": "0x2B128FC30e652CE07aB9799B1Fd570CccDc7690E",
      "value": {
        "_hex": "0xc1c23435b07000"
      },
      "nonce": 1,
      "data": "0x",
      "r": "0xfef9f9f154987bc72bfa9ab6feb9fcacc06a58ea15127f3b302f5fd79e369a1f",
      "s": "0x603a147dc28521af0a273fec0fc6b1d1aa3ab9a337247c4927401e5e4819ebe4",
      "v": 28,
      "creates": null,
      "raw": "0xf86b01850ba43b7400825208942b128fc30e652ce07ab9799b1fd570cccdc7690e87c1c23435b07000801ca0fef9f9f154987bc72bfa9ab6feb9fcacc06a58ea15127f3b302f5fd79e369a1fa0603a147dc28521af0a273fec0fc6b1d1aa3ab9a337247c4927401e5e4819ebe4",
      "networkId": 0,
      "chainId": 0
    },
    {
      "hash": "0xfc4d037aab764f14241d18b771de876f666bc6ce1ef1c537384954e8b3b4d111",
      "blockHash": "0x8094b9448f2db0acef1cbe0d75478fdae58fd3ddea33e25e556ae6a521c2332c",
      "blockNumber": 68442,
      "transactionIndex": 4,
      "confirmations": null,
      "from": "0x9b07f3597C7A7d9712E1d9bbcAB7D037BD01f0B9",
      "gasPrice": {
        "_hex": "0xba43b7400"
      },
      "gasLimit": {
        "_hex": "0x5208"
      },
      "to": "0xc61905B7C4645FD47428e8ABb1e48CA720E2303c",
      "value": {
        "_hex": "0xc1c23435b07000"
      },
      "nonce": 1,
      "data": "0x",
      "r": "0x3a16625c5c1b86690d2dec5befc202d37c279e748a2410f087449c2d75820878",
      "s": "0x750a26cd3f36e472ff53fc9d0ae024bb2ae679d684f240b1f3686baf1b9c4fd1",
      "v": 28,
      "creates": null,
      "raw": "0xf86b01850ba43b740082520894c61905b7c4645fd47428e8abb1e48ca720e2303c87c1c23435b07000801ca03a16625c5c1b86690d2dec5befc202d37c279e748a2410f087449c2d75820878a0750a26cd3f36e472ff53fc9d0ae024bb2ae679d684f240b1f3686baf1b9c4fd1",
      "networkId": 0,
      "chainId": 0
    },
    {
      "hash": "0xd9e27d60e2fa03a64d8c7ba54391ba01d5d93fe92e1374222b965eb46141f52f",
      "blockHash": "0x8094b9448f2db0acef1cbe0d75478fdae58fd3ddea33e25e556ae6a521c2332c",
      "blockNumber": 68442,
      "transactionIndex": 5,
      "confirmations": null,
      "from": "0x9dc77f7370089B2725B0Be73A627A3152AaD5407",
      "gasPrice": {
        "_hex": "0xba43b7400"
      },
      "gasLimit": {
        "_hex": "0x5208"
      },
      "to": "0xB21e26968eDc0D4685f79321313296448c8693CA",
      "value": {
        "_hex": "0xc1c23435b07000"
      },
      "nonce": 1,
      "data": "0x",
      "r": "0x40c31caa043a4554234af58abc7f0678b19616856f46d4fbbe77a6f6d0f9367d",
      "s": "0x6d233aef489df390d96297a717e5c9b1624cbc7ab5012a5d531265f0c8d0b11e",
      "v": 27,
      "creates": null,
      "raw": "0xf86b01850ba43b740082520894b21e26968edc0d4685f79321313296448c8693ca87c1c23435b07000801ba040c31caa043a4554234af58abc7f0678b19616856f46d4fbbe77a6f6d0f9367da06d233aef489df390d96297a717e5c9b1624cbc7ab5012a5d531265f0c8d0b11e",
      "networkId": 0,
      "chainId": 0
    },
    {
      "hash": "0x721d873bd1e1cf65742991b9e4690adb449102b7103929979388ab9c714f831a",
      "blockHash": "0x8094b9448f2db0acef1cbe0d75478fdae58fd3ddea33e25e556ae6a521c2332c",
      "blockNumber": 68442,
      "transactionIndex": 6,
      "confirmations": null,
      "from": "0xFD667982F79a2521BC26d8F49F0BC64d99d638CA",
      "gasPrice": {
        "_hex": "0xba43b7400"
      },
      "gasLimit": {
        "_hex": "0x5208"
      },
      "to": "0x14d23d75A666AC1A9372d97A83393aED93A008e8",
      "value": {
        "_hex": "0xc1c23435b07000"
      },
      "nonce": 1,
      "data": "0x",
      "r": "0x390852b6079397f13a0d1c803f51036c5dfe7175847dedc49446fc006b2d768e",
      "s": "0x23a2dee3e1fe4bdc34e5e4ccff93bc7f7132d6a43df6bb98e30a240da2c1d037",
      "v": 28,
      "creates": null,
      "raw": "0xf86b01850ba43b74008252089414d23d75a666ac1a9372d97a83393aed93a008e887c1c23435b07000801ca0390852b6079397f13a0d1c803f51036c5dfe7175847dedc49446fc006b2d768ea023a2dee3e1fe4bdc34e5e4ccff93bc7f7132d6a43df6bb98e30a240da2c1d037",
      "networkId": 0,
      "chainId": 0
    },
    {
      "hash": "0xa30109bed6eb87c859ed85655161ff4e36e5e49cb499a06d7c0702b91a8a8370",
      "blockHash": "0x8094b9448f2db0acef1cbe0d75478fdae58fd3ddea33e25e556ae6a521c2332c",
      "blockNumber": 68442,
      "transactionIndex": 7,
      "confirmations": null,
      "from": "0x4936Ccb17c0e21159A3908BC0554E951064221b9",
      "gasPrice": {
        "_hex": "0xba43b7400"
      },
      "gasLimit": {
        "_hex": "0x5208"
      },
      "to": "0x5Ee6b1b8efA3028b7A5ECAA064E4ae56BA23Ac6d",
      "value": {
        "_hex": "0xc1c23435b07000"
      },
      "nonce": 1,
      "data": "0x",
      "r": "0x66706f28906d3041ee77bffd51d85911d74708674401de570bf8136f4fa29943",
      "s": "0x4edbe7826d6ce20ee9f706dd6c2b4daf4aea3297a39cc9388053ead0d467163f",
      "v": 27,
      "creates": null,
      "raw": "0xf86b01850ba43b7400825208945ee6b1b8efa3028b7a5ecaa064e4ae56ba23ac6d87c1c23435b07000801ba066706f28906d3041ee77bffd51d85911d74708674401de570bf8136f4fa29943a04edbe7826d6ce20ee9f706dd6c2b4daf4aea3297a39cc9388053ead0d467163f",
      "networkId": 0,
      "chainId": 0
    },
    {
      "hash": "0x853f515be3b08c2cb22a39e8ba09341a3351bb9e12b30262a3121ec092eca32f",
      "blockHash": "0x8094b9448f2db0acef1cbe0d75478fdae58fd3ddea33e25e556ae6a521c2332c",
      "blockNumber": 68442,
      "transactionIndex": 8,
      "confirmations": null,
      "from": "0x52E3Deb5A89E619f226d4881E93819d0Fa386BEd",
      "gasPrice": {
        "_hex": "0xba43b7400"
      },
      "gasLimit": {
        "_hex": "0x5208"
      },
      "to": "0xcD118Cbb6a3Be6ae7A237F134Cf3421de033FfCd",
      "value": {
        "_hex": "0xc1c23435b07000"
      },
      "nonce": 1,
      "data": "0x",
      "r": "0x3eef5cfa2508dfdf4683ad480aed4d64260d86b55b2dac7b34a2b934cad42152",
      "s": "0x6299f7e4e35130823ff536fe62a3e7f48e64cdc15f89d2f82fb529b20a415067",
      "v": 27,
      "creates": null,
      "raw": "0xf86b01850ba43b740082520894cd118cbb6a3be6ae7a237f134cf3421de033ffcd87c1c23435b07000801ba03eef5cfa2508dfdf4683ad480aed4d64260d86b55b2dac7b34a2b934cad42152a06299f7e4e35130823ff536fe62a3e7f48e64cdc15f89d2f82fb529b20a415067",
      "networkId": 0,
      "chainId": 0
    }
  ]
}