{
  "hash": "0x9a8621824cf92d90c7aab1d76e3883df97f93e2c636fae859397dab1702323f7",
  "parentHash": "0xf0e7524b99c66f44cb3aa09f77bfdb2bf66fe6aab4ab95554a84d860d4ca8dbf",
  "number": 94682,
  "timestamp": 1439712353,
  "nonce": "0x761ff85c41ce329b",
  "difficulty": 3486558555154,
  "gasLimit": {
    "_hex": "0x2fefd8"
  },
  "gasUsed": {
    "_hex": "0xf618"
  },
  "miner": "0xe6A7a1d47ff21B6321162AEA7C6CB457D5476Bca",
  "extraData": "0x476574682f76312e302e312d38326566323666362f6c696e75782f676f312e34",
  "transactions": [
    {
      "hash": "0x6ec5d02210afff09af0105e95368f5b879021cf031ceb7091c51dcbc7a67a80a",
      "blockHash": "0x9a8621824cf92d90c7aab1d76e3883df97f93e2c636fae859397dab1702323f7",
      "blockNumber": 94682,
      "transactionIndex": 0,
      "confirmations": null,
      "from": "0x267069452478cA39b3f5F1A4fFdD4131f50Bc977",
      "gasPrice": {
        "_hex": "0xcd2e6e641"
      },
      "gasLimit": {
        "_hex": "0x5208"
      },
      "to": "0x32Be343B94f860124dC4fEe278FDCBD38C102D88",
      "value": {
        "_hex": "0x10e197d7f37469000"
      },
      "nonce": 7,
      "data": "0x",
      "r": "0x97343fdc4a857a58a69e822e2a7569207a0deaf5f814c559b8825453ed7f58d5",
      "s": "0x415a55a645f205320c931420596d7e132feec85703567656786caa917caab202",
      "v": 28,
      "creates": null,
      "raw": "0xf86d07850cd2e6e6418252089432be343b94f860124dc4fee278fdcbd38c102d8889010e197d7f37469000801ca097343fdc4a857a58a69e822e2a7569207a0deaf5f814c559b8825453ed7f58d5a0415a55a645f205320c931420596d7e132feec85703567656786caa917caab202",
      "networkId": 0,
      "chainId": 0
    },
    {
      "hash": "0x7e0b7f4105cd5c5d84596a22dd9ecd230fe0bfda009ef987dd1018e492e54284",
      "blockHash": "0x9a8621824cf92d90c7aab1d76e3883df97f93e2c636fae859397dab1702323f7",
      "blockNumber": 94682,
      "transactionIndex": 1,
      "confirmations": null,
      "from": "0xE6D67E3661E28eE2DfC1c68D5DeeA3C3bB880059",
      "gasPrice": {
        "_hex": "0xcd2e6e641"
      },
      "gasLimit": {
        "_hex": "0x5208"
      },
      "to": "0x32Be343B94f860124dC4fEe278FDCBD38C102D88",
      "value": {
        "_hex": "0xd69aff77ad145000"
      },
      "nonce": 5,
      "data": "0x",
      "r": "0x4f4d55870fd9d0513c4d3e4c5bfe228b8794029c0fc24f5dcb8642562868756c",
      "s": "0x1859df4de43b386dca69dafe8e56e46dc4a99a967118fe05a852be68b30b4e03",
      "v": 28,
      "creates": null,
      "raw": "0xf86c05850cd2e6e6418252089432be343b94f860124dc4fee278fdcbd38c102d8888d69aff77ad145000801ca04f4d55870fd9d0513c4d3e4c5bfe228b8794029c0fc24f5dcb8642562868756ca01859df4de43b386dca69dafe8e56e46dc4a99a967118fe05a852be68b30b4e03",
      "networkId": 0,
      "chainId": 0
    },
    {
      "hash": "0x14fc6f198ae32877d80b2d5ad777de80be3dc9632d4ac9c27cc91e78a8f6b608",
      "blockHash": "0x9a8621824cf92d90c7aab1d76e3883df97f93e2c636fae859397dab1702323f7",
      "blockNumber": 94682,
      "transactionIndex": 2,
      "confirmations": null,
      "from": "0x19aF4b2766b8115B49E1fd31Ae71CaA12E706A96",
      "gasPrice": {
        "_hex": "0xcd2e6e641"
      },
      "gasLimit": {
        "_hex": "0x5208"
      },
      "to": "0x32Be343B94f860124dC4fEe278FDCBD38C102D88",
      "value": {
        "_hex": "0x81277251a6c0f000"
      },
      "nonce": 5,
      "data": "0x",
      "r": "0x04938c0675b2292143aa596297238e93994766fa6a2620a46a58ca6e47b4f091",
      "s": "0x4a2c960ed2ea8e81935d0fb578451a613ce7f99c7eaac3305401a14569f4ca27",
      "v": 28,
      "creates": null,
      "raw": "0xf86c05850cd2e6e6418252089432be343b94f860124dc4fee278fdcbd38c102d888881277251a6c0f000801ca004938c0675b2292143aa596297238e93994766fa6a2620a46a58ca6e47b4f091a04a2c960ed2ea8e81935d0fb578451a613ce7f99c7eaac3305401a14569f4ca27",
      "networkId": 0,
      "chainId": 0
    }
  ]
}