{
  "hash": "0xc29b653f231c94f572ca5df23d290c21ac87ca872a8b1081d0acf6061f0f7c93",
  "parentHash": "0x7c0dc3191243f37495c97ea1c22d4ae7f573357b63acc3d3b7df4a609e91633d",
  "number": 101427,
  "timestamp": 1439822877,
  "nonce": "0x0796943fab1182ca",
  "difficulty": 3839257820667,
  "gasLimit": {
    "_hex": "0x2fefd8"
  },
  "gasUsed": {
    "_hex": "0x5208"
  },
  "miner": "0x790b8a3cE86E707ED0eD32bF89B3269692a23CC1",
  "extraData": "0xd783010001844765746887676f312e342e32856c696e7578",
  "transactions": [
    {
      "hash": "0xeee62958696d2cd03a8255e9fba6de8964a2770043fb420cb5786fcc98d96e31",
      "blockHash": "0xc29b653f231c94f572ca5df23d290c21ac87ca872a8b1081d0acf6061f0f7c93",
      "blockNumber": 101427,
      "transactionIndex": 0,
      "confirmations": null,
      "from": "0xf0c896DB24137eDA6Ec88cF1a95217F8604aE55e",
      "gasPrice": {
        "_hex": "0xdf3680d97"
      },
      "gasLimit": {
        "_hex": "0x5208"
      },
      "to": "0x32Be343B94f860124dC4fEe278FDCBD38C102D88",
      "value": {
        "_hex": "0x1e152a04302923000"
      },
      "nonce": 3,
      "data": "0x",
      "r": "0x70739093411bfd7058e04dc5ec1c3f656db8dd52a50378e20d5dc669194928ab",
      "s": "0x5483e76b86f6f1ac3cf4c6a2be18495abb856f080b02c9f1ad05ec802137f668",
      "v": 28,
      "creates": null,
      "raw": "0xf86d03850df3680d978252089432be343b94f860124dc4fee278fdcbd38c102d888901e152a04302923000801ca070739093411bfd7058e04dc5ec1c3f656db8dd52a50378e20d5dc669194928aba05483e76b86f6f1ac3cf4c6a2be18495abb856f080b02c9f1ad05ec802137f668",
      "networkId": 0,
      "chainId": 0
    }
  ]
}