{
  "hash": "0xd503c0fd6207b5efa881489e4c9b80814dd360c221dec6f9597277471fe2b455",
  "parentHash": "0xae98a319b54a2487141500d589c4b3649098e5a3d717f18f6b2d4c40a6c9410f",
  "number": 96177,
  "timestamp": 1439736232,
  "nonce": "0xc8d32285370b859c",
  "difficulty": 3651447509315,
  "gasLimit": {
    "_hex": "0x2fefd8"
  },
  "gasUsed": {
    "_hex": "0x3dd22"
  },
  "miner": "0xf8E0CA3Ed80bd541b94BEdCf259e8CF2141A9523",
  "extraData": "0x476574682f76312e302e312f77696e646f77732f676f312e342e32",
  "transactions": [
    {
      "hash": "0x4bf8622ea406586a99b205e389a02192cc0691b2a6fca8dea366384eee7a0d5d",
      "blockHash": "0xd503c0fd6207b5efa881489e4c9b80814dd360c221dec6f9597277471fe2b455",
      "blockNumber": 96177,
      "transactionIndex": 0,
      "confirmations": null,
      "from": "0xb1abce2918E21ddb93AA452731a12672A3d9F75a",
      "gasPrice": {
        "_hex": "0xd90c7b00d"
      },
      "gasLimit": {
        "_hex": "0x5208"
      },
      "to": "0x32Be343B94f860124dC4fEe278FDCBD38C102D88",
      "value": {
        "_hex": "0x455f38b6fdee5c00"
      },
      "nonce": 51,
      "data": "0x",
      "r": "0xd7fc2d71ac5fbc10ab12d850b87a8817a35fd60cacbc95f3a67012eeeeb9d882",
      "s": "0x5c23bb5ef892fd20440587b37577e8e1c97e38960891b5f812f3bdb3272553c7",
      "v": 27,
      "creates": null,
      "raw": "0xf86c33850d90c7b00d8252089432be343b94f860124dc4fee278fdcbd38c102d8888455f38b6fdee5c00801ba0d7fc2d71ac5fbc10ab12d850b87a8817a35fd60cacbc95f3a67012eeeeb9d882a05c23bb5ef892fd20440587b37577e8e1c97e38960891b5f812f3bdb3272553c7",
      "networkId": 0,
      "chainId": 0
    },
    {
      "hash": "0xe8d7c5deac2b05e9d2ff3c7623d4428c946d453df1eaf725f44bb6b02460724d",
      "blockHash": "0xd503c0fd6207b5efa881489e4c9b80814dd360c221dec6f9597277471fe2b455",
      "blockNumber": 96177,
      "transactionIndex": 1,
      "confirmations": null,
      "from": "0x4D67f4F0Db45b3B5a3424B39ed8d972F710381D5",
      "gasPrice": {
        "_hex": "0xd90c7b00d"
      },
      "gasLimit": {
        "_hex": "0x5208"
      },
      "to": "0x32Be343B94f860124dC4fEe278FDCBD38C102D88",
      "value": {
        "_hex": "0x2f9dfa252fde08000"
      },
      "nonce": 9,
      "data": "0x",
      "r": "0x57d7d416879e99fa91b42a2e3ab5311b871e2842386c1b3a03680c8d971b1ae4",
      "s": "0x6bb8887f506e5d4ed0a3082aa193bcf91220bea4523eaa8f978708a21826c9a1",
      "v": 27,
      "creates": null,
      "raw": "0xf86d09850d90c7b00d8252089432be343b94f860124dc4fee278fdcbd38c102d888902f9dfa252fde08000801ba057d7d416879e99fa91b42a2e3ab5311b871e2842386c1b3a03680c8d971b1ae4a06bb8887f506e5d4ed0a3082aa193bcf91220bea4523eaa8f978708a21826c9a1",
      "networkId": 0,
      "chainId": 0
    },
    {
      "hash": "0xe3518db41fcef4b1da5ff97fc727b1d32c7595de9c1323a1d3050efdc5f84790",
      "blockHash": "0xd503c0fd6207b5efa881489e4c9b80814dd360c221dec6f9597277471fe2b455",
      "blockNumber": 96177,
      "transactionIndex": 2,
      "confirmations": null,
      "from": "0xc07082b0caEF1afaAA062CDae1c592c110B82aa5",
      "gasPrice": {
        "_hex": "0xd90c7b00d"
      },
      "gasLimit": {
        "_hex": "0x5208"
      },
      "to": "0x32Be343B94f860124dC4fEe278FDCBD38C102D88",
      "value": {
        "_hex": "0x18f689a8f8a27800"
      },
      "nonce": 3,
      "data": "0x",
      "r": "0xedd9339de603899860199664b564dd5175d66b0d54ee470ff9ca8d1ca6dfd541",
      "s": "0x543dc55172159ece3fd490303edcab2eb9581c15230cb0d3b3869479f1857cbe",
      "v": 28,
      "creates": null,
      "raw": "0xf86c03850d90c7b00d8252089432be343b94f860124dc4fee278fdcbd38c102d888818f689a8f8a27800801ca0edd9339de603899860199664b564dd5175d66b0d54ee470ff9ca8d1ca6dfd541a0543dc55172159ece3fd490303edcab2eb9581c15230cb0d3b3869479f1857cbe",
      "networkId": 0,
      "chainId": 0
    },
    {
      "hash": "0x0968e29284b9e051aedc98eabb905b44ec4ad31a5cdda6a9de1514359b9a3b17",
      "blockHash": "0xd503c0fd6207b5efa881489e4c9b80814dd360c221dec6f9597277471fe2b455",
      "blockNumber": 96177,
      "transactionIndex": 3,
      "confirmations": null,
      "from": "0x645B979F8ce622236DB26feB803455d40C328615",
      "gasPrice": {
        "_hex": "0xd90c7b00d"
      },
      "gasLimit": {
        "_hex": "0x5208"
      },
      "to": "0x32Be343B94f860124dC4fEe278FDCBD38C102D88",
      "value": {
        "_hex": "0x66ffc7a490bf200000"
      },
      "nonce": 0,
      "data": "0x",
      "r": "0x65eebee765e03370ab7d0c1ed7e90cc6af15a35724e023ca32265f3d7d6dad74",
      "s": "0x04b1a186b02886329d778ccee583152e1d72880dc2b6b561e2984d1b61995e5d",
      "v": 28,
      "creates": null,
      "raw": "0xf86d80850d90c7b00d8252089432be343b94f860124dc4fee278fdcbd38c102d888966ffc7a490bf200000801ca065eebee765e03370ab7d0c1ed7e90cc6af15a35724e023ca32265f3d7d6dad74a004b1a186b02886329d778ccee583152e1d72880dc2b6b561e2984d1b61995e5d",
      "networkId": 0,
      "chainId": 0
    },
    {
      "hash": "0x06b48337624b27dded51fc81125655279d70c12f77dbfc1a4c6c6d8cdd82600e",
      "blockHash": "0xd503c0fd6207b5efa881489e4c9b80814dd360c221dec6f9597277471fe2b455",
      "blockNumber": 96177,
      "transactionIndex": 4,
      "confirmations": null,
      "from": "0xE3A4CD0E7193d90A4e94EAb73d2a546a34130170",
      "gasPrice": {
        "_hex": "0xd90c7b00d"
      },
      "gasLimit": {
        "_hex": "0x5208"
      },
      "to": "0x32Be343B94f860124dC4fEe278FDCBD38C102D88",
      "value": {
        "_hex": "0x20199961c06238000"
      },
      "nonce": 1,
      "data": "0x",
      "r": "0x0b09cea0cb199813af180f39e7257b836656336aa7af2d9f3485c2744309a5f0",
      "s": "0x7b7504be73973f12ba565ecda03f2e791cb2feaea68d58352728356b24fa788b",
      "v": 28,
      "creates": null,
      "raw": "0xf86d01850d90c7b00d8252089432be343b94f860124dc4fee278fdcbd38c102d8889020199961c06238000801ca00b09cea0cb199813af180f39e7257b836656336aa7af2d9f3485c2744309a5f0a07b7504be73973f12ba565ecda03f2e791cb2feaea68d58352728356b24fa788b",
      "networkId": 0,
      "chainId": 0
    },
    {
      "hash": "0xca013c61dd5f52a12dc10fd38c0926758f3c8cff2ca8fc51119cc96da1a361a4",
      "blockHash": "0xd503c0fd6207b5efa881489e4c9b80814dd360c221dec6f9597277471fe2b455",
      "blockNumber": 96177,
      "transactionIndex": 5,
      "confirmations": null,
      "from": "0xa14Cf6cEC1c6aAe4b608458F6e14692863A937Aa",
      "gasPrice": {
        "_hex": "0xd2ebcd2aa"
      },
      "gasLimit": {
        "_hex": "0x61a80"
      },
      "to": "0x580E45f982a0A01cFab3B36B3Ec8Df63fcc5D290",
      "value": {
        "_hex": "0x2b5e3af16b1880000"
      },
      "nonce": 23,
      "data": "0xd0e30db0",
      "r": "0x4607b655123e5e1f2999230c6c51e55f80ab8bb20fe0c5c7fd139348b1540f99",
      "s": "0x6bf656f3a4d33cbf9b13547e129d13626f58b7e123eab3c195267d31a6fc2f77",
      "v": 27,
      "creates": null,
      "raw": "0xf87217850d2ebcd2aa83061a8094580e45f982a0a01cfab3b36b3ec8df63fcc5d2908902b5e3af16b188000084d0e30db01ba04607b655123e5e1f2999230c6c51e55f80ab8bb20fe0c5c7fd139348b1540f99a06bf656f3a4d33cbf9b13547e129d13626f58b7e123eab3c195267d31a6fc2f77",
      "networkId": 0,
      "chainId": 0
    }
  ]
}