{
  "hash": "0x9ecaf769b9f37a2bb590546b4d9990bb7939b6bafbe33f5325a5853cee36f487",
  "parentHash": "0x90d2c17900b1f522f20f64eb860a9b4a5dd194afe8bee10d6158b2f04faef079",
  "number": 65656,
  "timestamp": 1439240741,
  "nonce": "0xc677fc34f4702409",
  "difficulty": 1935911761006,
  "gasLimit": {
    "_hex": "0x2fefd8"
  },
  "gasUsed": {
    "_hex": "0x5208"
  },
  "miner": "0xbb7B8287f3F0a933474a79eAe42CBCa977791171",
  "extraData": "0x476574682f4c5649562f76312e302e312f6c696e75782f676f312e342e32",
  "transactions": [
    {
      "hash": "0xa0d67bbc4323422b62b0ad3de9a89a44c8f5744d8c9caf77639074a61991210b",
      "blockHash": "0x9ecaf769b9f37a2bb590546b4d9990bb7939b6bafbe33f5325a5853cee36f487",
      "blockNumber": 65656,
      "transactionIndex": 0,
      "confirmations": null,
      "from": "0x6CEaB690C13c569062c3E85A2A27fAF1eBad174b",
      "gasPrice": {
        "_hex": "0x117b8f42991"
      },
      "gasLimit": {
        "_hex": "0x15f90"
      },
      "to": "0xC916425CB50d7f1d6DF5178D0709844a9C92C50F",
      "value": {
        "_hex": "0x29a2241af62c00000"
      },
      "nonce": 1,
      "data": "0x",
      "r": "0xc915fbdc6439f73f8d7716c91d0bb9231c2470cf67dc072ac5e84c12ee4dd9e0",
      "s": "0x4121a55cf4f432ce8b23454f72263b5dfa0e426f765a59f9f55abc0c68610467",
      "v": 27,
      "creates": null,
      "raw": "0xf86f01860117b8f4299183015f9094c916425cb50d7f1d6df5178d0709844a9c92c50f89029a2241af62c00000801ba0c915fbdc6439f73f8d7716c91d0bb9231c2470cf67dc072ac5e84c12ee4dd9e0a04121a55cf4f432ce8b23454f72263b5dfa0e426f765a59f9f55abc0c68610467",
      "networkId": 0,
      "chainId": 0
    }
  ]
}