{
  "hash": "0xaf0f68e43922f967c3f01070de09f64eff545bebde9081dac5100809d9a86f28",
  "parentHash": "0x7556ce3c648f7df2643ddf10b08e715572ee110230f506772615d0d19d3e863a",
  "number": 113240,
  "timestamp": 1440019984,
  "nonce": "0xd472c968408bb196",
  "difficulty": 4515180140324,
  "gasLimit": {
    "_hex": "0x2fefd8"
  },
  "gasUsed": {
    "_hex": "0x5208"
  },
  "miner": "0xbb7B8287f3F0a933474a79eAe42CBCa977791171",
  "extraData": "0x476574682f4c5649562f76312e302e312f6c696e75782f676f312e342e32",
  "transactions": [
    {
      "hash": "0xdcd88e52286b127bfaaa10c38000f439234badac52f9fdcc5b82940cc5fec1ba",
      "blockHash": "0xaf0f68e43922f967c3f01070de09f64eff545bebde9081dac5100809d9a86f28",
      "blockNumber": 113240,
      "transactionIndex": 0,
      "confirmations": null,
      "from": "0x6969ADAD9FF8F3D9384E2Ce3f3F9Db6761f85D59",
      "gasPrice": {
        "_hex": "0xba43b7400"
      },
      "gasLimit": {
        "_hex": "0x5267"
      },
      "to": "0x2875Ef35Cd405025cb2e087B4eaE9D8134597E2F",
      "value": {
        "_hex": "0x16345785d8a0000"
      },
      "nonce": 0,
      "data": "0x",
      "r": "0x0df6a4c31c28540707d3fa4f0d2a21a5fb16fd623aae0c6bbbc10157225667d9",
      "s": "0x328f5a3234e5685f17f264ace1043275b129dcdb721b2b963abc6405df8a4f22",
      "v": 28,
      "creates": null,
      "raw": "0xf86c80850ba43b7400825267942875ef35cd405025cb2e087b4eae9d8134597e2f88016345785d8a0000801ca00df6a4c31c28540707d3fa4f0d2a21a5fb16fd623aae0c6bbbc10157225667d9a0328f5a3234e5685f17f264ace1043275b129dcdb721b2b963abc6405df8a4f22",
      "networkId": 0,
      "chainId": 0
    }
  ]
}