{
  "hash": "0x28abd1a99d7741f85ae9f4d80610e74ea3e388818d35caa5898a4a90d014ac9a",
  "parentHash": "0xa39a05550470b3a88de88c9da22f32a806b8255cfa26603e44aed0fbbd408823",
  "number": 101660,
  "timestamp": 1439826129,
  "nonce": "0x49d66c77fda644fb",
  "difficulty": 3890100104401,
  "gasLimit": {
    "_hex": "0x2fefd8"
  },
  "gasUsed": {
    "_hex": "0x5208"
  },
  "miner": "0xe6A7a1d47ff21B6321162AEA7C6CB457D5476Bca",
  "extraData": "0x476574682f76312e302e312d38326566323666362f6c696e75782f676f312e34",
  "transactions": [
    {
      "hash": "0x49e0188f100c8b4bdcab58a738fed3ee16f94f93316c51d0eebd9a42ecbedddf",
      "blockHash": "0x28abd1a99d7741f85ae9f4d80610e74ea3e388818d35caa5898a4a90d014ac9a",
      "blockNumber": 101660,
      "transactionIndex": 0,
      "confirmations": null,
      "from": "0x0D4EcC7d750180EBf4A9Df728B6669B5Bceb5E40",
      "gasPrice": {
        "_hex": "0xdb1da63d2"
      },
      "gasLimit": {
        "_hex": "0x5208"
      },
      "to": "0x32Be343B94f860124dC4fEe278FDCBD38C102D88",
      "value": {
        "_hex": "0x455f2e1c2fc5e400"
      },
      "nonce": 63,
      "data": "0x",
      "r": "0xdf9550d862597389cef0b93b6783bbe88d3aec0f15b0562d4648cb49393a0cae",
      "s": "0x419dadba92af680c6cbce2b264c9e960a8244c69a1daa6e62becf85ddc6d076c",
      "v": 27,
      "creates": null,
      "raw": "0xf86c3f850db1da63d28252089432be343b94f860124dc4fee278fdcbd38c102d8888455f2e1c2fc5e400801ba0df9550d862597389cef0b93b6783bbe88d3aec0f15b0562d4648cb49393a0caea0419dadba92af680c6cbce2b264c9e960a8244c69a1daa6e62becf85ddc6d076c",
      "networkId": 0,
      "chainId": 0
    }
  ]
}