{
  "hash": "0x558d8e02315b4db4a7c141b7aedabf4a376863ce2b6fcf7f94f9f93fb7736951",
  "parentHash": "0xe7604a51e456a41190bfd7b72fe61b73e6febc03d54a37e22d5f4f9cf5cdfa42",
  "number": 118394,
  "timestamp": 1440125373,
  "nonce": "0xc17e696775547c90",
  "difficulty": 4293172577006,
  "gasLimit": {
    "_hex": "0x2fefd8"
  },
  "gasUsed": {
    "_hex": "0xa410"
  },
  "miner": "0xe6A7a1d47ff21B6321162AEA7C6CB457D5476Bca",
  "extraData": "0xd783010002844765746887676f312e342e32856c696e7578",
  "transactions": [
    {
      "hash": "0x1dbe9d9b573bf7755f853d483f0db0d534896f026d9d06b1a2868276008ad62c",
      "blockHash": "0x558d8e02315b4db4a7c141b7aedabf4a376863ce2b6fcf7f94f9f93fb7736951",
      "blockNumber": 118394,
      "transactionIndex": 0,
      "confirmations": null,
      "from": "0x5cAc89812Db1B72D5Ec8a83305c3ABC99aDD9a41",
      "gasPrice": {
        "_hex": "0xd1291186d"
      },
      "gasLimit": {
        "_hex": "0x15f90"
      },
      "to": "0x31191beEB5a3d7f5eBC5B193e98bd15ce10Eb249",
      "value": {
        "_hex": "0xb6139a7cbd20000"
      },
      "nonce": 0,
      "data": "0x",
      "r": "0x4fdce721fc9f8fa777af91192341e09efe366a188befd453106b76b0a273ec59",
      "s": "0x36e1a788fa3f9e9ca7a03a8659aab8cf8847a17c87c6df23f46af42568fa0dec",
      "v": 28,
      "creates": null,
      "raw": "0xf86d80850d1291186d83015f909431191beeb5a3d7f5ebc5b193e98bd15ce10eb249880b6139a7cbd20000801ca04fdce721fc9f8fa777af91192341e09efe366a188befd453106b76b0a273ec59a036e1a788fa3f9e9ca7a03a8659aab8cf8847a17c87c6df23f46af42568fa0dec",
      "networkId": 0,
      "chainId": 0
    },
    {
      "hash": "0x10ab51dd55edc6355c6928fffc7cc72f31a4974b6c8d3464c8097a41fe065098",
      "blockHash": "0x558d8e02315b4db4a7c141b7aedabf4a376863ce2b6fcf7f94f9f93fb7736951",
      "blockNumber": 118394,
      "transactionIndex": 1,
      "confirmations": null,
      "from": "0x1c11Aa45C792e202e9ffDc2F12f99D0d209BEf70",
      "gasPrice": {
        "_hex": "0xba43b7400"
      },
      "gasLimit": {
        "_hex": "0x15f90"
      },
      "to": "0x001aA0CB9c5fA098a119070024460feBb868742D",
      "value": {
        "_hex": "0xe8d4a51000"
      },
      "nonce": 30,
      "data": "0x",
      "r": "0x709e23b52a577d6745af4a54dc70d701471e9a44146dff252e696060b83aa99d",
      "s": "0x6a99faf31f6449f50d09127a97db1772968f10821059fc0e1a0f8f04b01d0488",
      "v": 28,
      "creates": null,
      "raw": "0xf86a1e850ba43b740083015f9094001aa0cb9c5fa098a119070024460febb868742d85e8d4a51000801ca0709e23b52a577d6745af4a54dc70d701471e9a44146dff252e696060b83aa99da06a99faf31f6449f50d09127a97db1772968f10821059fc0e1a0f8f04b01d0488",
      "networkId": 0,
      "chainId": 0
    }
  ]
}