{
  "hash": "0xc5790f06104fd783d63d6e8729af4035f4611b31c06c5ccae4aad0268568a176",
  "parentHash": "0xa8db0296bb8620be713c7beb29b6c7969242fb3ac6555063eff7bf92d5fa7588",
  "number": 56719,
  "timestamp": 1439091417,
  "nonce": "0x07bc6feb6559a506",
  "difficulty": 1692809993920,
  "gasLimit": {
    "_hex": "0x2fefd8"
  },
  "gasUsed": {
    "_hex": "0xa410"
  },
  "miner": "0xa50ec0D39fa913E62f1Bae7074E6F36caA71855b",
  "extraData": "0x",
  "transactions": [
    {
      "hash": "0xb05606bb16b90f074054e096b50c61d3361b5b034b038e6e293759e3fb866c15",
      "blockHash": "0xc5790f06104fd783d63d6e8729af4035f4611b31c06c5ccae4aad0268568a176",
      "blockNumber": 56719,
      "transactionIndex": 0,
      "confirmations": null,
      "from": "0x1308A2e95c0160B90803ddCA9B9a5bb55E416d79",
      "gasPrice": {
        "_hex": "0xe8d4a51000"
      },
      "gasLimit": {
        "_hex": "0x15f90"
      },
      "to": "0x7266c8FD66eD582bEA23bd8BC48E58D7f17321F3",
      "value": {
        "_hex": "0x56bc75e2d63100000"
      },
      "nonce": 72,
      "data": "0x",
      "r": "0xf292f42e9b09440ad2593b38b6f0cbf83386aeac72c75eea3bfa3d3813b221e3",
      "s": "0x30312c031999b253d9a7bb3a15469075782a21c129a3b5340103dfe009116655",
      "v": 28,
      "creates": null,
      "raw": "0xf86e4885e8d4a5100083015f90947266c8fd66ed582bea23bd8bc48e58d7f17321f389056bc75e2d63100000801ca0f292f42e9b09440ad2593b38b6f0cbf83386aeac72c75eea3bfa3d3813b221e3a030312c031999b253d9a7bb3a15469075782a21c129a3b5340103dfe009116655",
      "networkId": 0,
      "chainId": 0
    },
    {
      "hash": "0x5e6c687295f3c062cef000ca0b3daf6e7cd48e17f1fb5d57575764fdbed783ca",
      "blockHash": "0xc5790f06104fd783d63d6e8729af4035f4611b31c06c5ccae4aad0268568a176",
      "blockNumber": 56719,
      "transactionIndex": 1,
      "confirmations": null,
      "from": "0x1308A2e95c0160B90803ddCA9B9a5bb55E416d79",
      "gasPrice": {
        "_hex": "0xe8d4a51000"
      },
      "gasLimit": {
        "_hex": "0x15f90"
      },
      "to": "0x7266c8FD66eD582bEA23bd8BC48E58D7f17321F3",
      "value": {
        "_hex": "0x56bc75e2d63100000"
      },
      "nonce": 73,
      "data": "0x",
      "r": "0x289bc687bb58f2d66f7fff2ce56bbe41f288e383e945117b3741823c35fd51d3",
      "s": "0x4260b2f6cb4c0a6bc15241bfb7d4c112ab16ba2682aec36761ec7ed845f6e39a",
      "v": 27,
      "creates": null,
      "raw": "0xf86e4985e8d4a5100083015f90947266c8fd66ed582bea23bd8bc48e58d7f17321f389056bc75e2d63100000801ba0289bc687bb58f2d66f7fff2ce56bbe41f288e383e945117b3741823c35fd51d3a04260b2f6cb4c0a6bc15241bfb7d4c112ab16ba2682aec36761ec7ed845f6e39a",
      "networkId": 0,
      "chainId": 0
    }
  ]
}