{
  "hash": "0x810be9125ccdd12fe974390c517b67b69f6acfa39884d60fdd89c760725a606d",
  "parentHash": "0xcfc0e680b6194aae1f2b484ceea1b1e5eb1a02a11520cb835c9e7aca55c7cdc9",
  "number": 90452,
  "timestamp": 1439640255,
  "nonce": "0x2ac937be3022dd03",
  "difficulty": 3338341416423,
  "gasLimit": {
    "_hex": "0x2fefd8"
  },
  "gasUsed": {
    "_hex": "0xa410"
  },
  "miner": "0xe6A7a1d47ff21B6321162AEA7C6CB457D5476Bca",
  "extraData": "0x476574682f76312e302e312d38326566323666362f6c696e75782f676f312e34",
  "transactions": [
    {
      "hash": "0x3a4d9178de4ce047ef8e00e1e0c8d0a6514f185336daa1b4265d3a90d8aba2aa",
      "blockHash": "0x810be9125ccdd12fe974390c517b67b69f6acfa39884d60fdd89c760725a606d",
      "blockNumber": 90452,
      "transactionIndex": 0,
      "confirmations": null,
      "from": "0xC02766F362b0Cd21e0D78012DAe8Cd1Df1B0E8eD",
      "gasPrice": {
        "_hex": "0xd734548ad"
      },
      "gasLimit": {
        "_hex": "0x15f90"
      },
      "to": "0x11A42D31455126b99dc8e6c0bdAC156eFBe6dDEe",
      "value": {
        "_hex": "0xde0b6b3a7640000"
      },
      "nonce": 0,
      "data": "0x",
      "r": "0xbfccc31bf281954a87fe2c2f80b4675a1ca0ac47d6d9f7b2cb498c52a9e0c97e",
      "s": "0x1f382e791cb751499831a18a4e3d20a877ee1119867c802f237c012f1b39a906",
      "v": 28,
      "creates": null,
      "raw": "0xf86d80850d734548ad83015f909411a42d31455126b99dc8e6c0bdac156efbe6ddee880de0b6b3a7640000801ca0bfccc31bf281954a87fe2c2f80b4675a1ca0ac47d6d9f7b2cb498c52a9e0c97ea01f382e791cb751499831a18a4e3d20a877ee1119867c802f237c012f1b39a906",
      "networkId": 0,
      "chainId": 0
    },
    {
      "hash": "0x2942f9da2c4b43cae286b28f5a3e4a73553ca83de3e48ceddb130c3e1d16d370",
      "blockHash": "0x810be9125ccdd12fe974390c517b67b69f6acfa39884d60fdd89c760725a606d",
      "blockNumber": 90452,
      "transactionIndex": 1,
      "confirmations": null,
      "from": "0x859217617481BD9b6E3e38f6aE9BB677F0D26154",
      "gasPrice": {
        "_hex": "0xd51e8f0de"
      },
      "gasLimit": {
        "_hex": "0x5208"
      },
      "to": "0x32Be343B94f860124dC4fEe278FDCBD38C102D88",
      "value": {
        "_hex": "0x6c6b8f16e5a91c0000"
      },
      "nonce": 4,
      "data": "0x",
      "r": "0x7ec6881250561f783452ffd6028ced1cd0745cc7b15e54919fefaadb2327110d",
      "s": "0x361628d7782daaa7efc2f9ac2ed0ffc09e2652d713550c07cb8fc6f5a3c474f2",
      "v": 27,
      "creates": null,
      "raw": "0xf86d04850d51e8f0de8252089432be343b94f860124dc4fee278fdcbd38c102d88896c6b8f16e5a91c0000801ba07ec6881250561f783452ffd6028ced1cd0745cc7b15e54919fefaadb2327110da0361628d7782daaa7efc2f9ac2ed0ffc09e2652d713550c07cb8fc6f5a3c474f2",
      "networkId": 0,
      "chainId": 0
    }
  ]
}