{
  "hash": "0xe512d7dc7e3dc3b9a866c47b315004b9270ebc3667a2d96f956e6685d51cfc3f",
  "parentHash": "0xae53a79c98d1299117f242cfd48371f9f2359e99f3fe147e9e84d42f4937a227",
  "number": 63153,
  "timestamp": 1439200046,
  "nonce": "0x7eb714c48428d5cf",
  "difficulty": 1804125530727,
  "gasLimit": {
    "_hex": "0x2fefd8"
  },
  "gasUsed": {
    "_hex": "0x546c"
  },
  "miner": "0x47ff6576639c2e94762eA5443978D7681C0E78DC",
  "extraData": "0x476574682f76312e302e312f6c696e75782f676f312e342e32",
  "transactions": [
    {
      "hash": "0xce87bd64616168289206833a2f96983e228b5a6f5e550d454874c0e06abf8a94",
      "blockHash": "0xe512d7dc7e3dc3b9a866c47b315004b9270ebc3667a2d96f956e6685d51cfc3f",
      "blockNumber": 63153,
      "transactionIndex": 0,
      "confirmations": null,
      "from": "0x72dcecdD4a7374231676f7fA910A678DfC7c98D6",
      "gasPrice": {
        "_hex": "0xd3b7a10f9"
      },
      "gasLimit": {
        "_hex": "0x15f90"
      },
      "to": "0x2910543Af39abA0Cd09dBb2D50200b3E800A63D2",
      "value": {
        "_hex": "0x8ac7230489e80000"
      },
      "nonce": 0,
      "data": "0x454e35585546344d47",
      "r": "0xc1ded16883cc530bf42d31714ef4287ba41c0d0d83358f038b0afa4610f9bcf7",
      "s": "0x4aad97690704fabd0ae52b75b7a1bf5d3c4d5b1339521932c6a54b48d2596a3e",
      "v": 28,
      "creates": null,
      "raw": "0xf87680850d3b7a10f983015f90942910543af39aba0cd09dbb2d50200b3e800a63d2888ac7230489e8000089454e35585546344d471ca0c1ded16883cc530bf42d31714ef4287ba41c0d0d83358f038b0afa4610f9bcf7a04aad97690704fabd0ae52b75b7a1bf5d3c4d5b1339521932c6a54b48d2596a3e",
      "networkId": 0,
      "chainId": 0
    }
  ]
}