{
  "hash": "0x7df0179856329011fe3364e6b465cd8260db60ec7798af158201e94621a2adad",
  "parentHash": "0x3a79addea74f9d6897778952ba9e60e9bf007eef982ae7d1f3010dc2d084009b",
  "number": 74059,
  "timestamp": 1439379722,
  "nonce": "0xbef6a92ca6c024b1",
  "difficulty": 2235793585298,
  "gasLimit": {
    "_hex": "0x2fefd8"
  },
  "gasUsed": {
    "_hex": "0x5208"
  },
  "miner": "0xfFcD9CAE6d9f54fd8ae05296F839892677ff6EaA",
  "extraData": "0x476574682f76312e302e312f77696e646f77732f676f312e342e32",
  "transactions": [
    {
      "hash": "0xc522f5d698959e2ce484acaf0f9c3c3e23f02fe676cc30d3f2f95d20085f6477",
      "blockHash": "0x7df0179856329011fe3364e6b465cd8260db60ec7798af158201e94621a2adad",
      "blockNumber": 74059,
      "transactionIndex": 0,
      "confirmations": null,
      "from": "0xabceA603089850F8f6bB612A9031554D90A247CF",
      "gasPrice": {
        "_hex": "0xdf01a31f4"
      },
      "gasLimit": {
        "_hex": "0x5208"
      },
      "to": "0x32Be343B94f860124dC4fEe278FDCBD38C102D88",
      "value": {
        "_hex": "0x455f1a2a35e9c000"
      },
      "nonce": 9,
      "data": "0x",
      "r": "0xf716bdd4f0c0800dbf5aaad0ecdedf1f191b86133a51d2136766536de9413be9",
      "s": "0x5e4afca75b85c5a012279588eb1ef895044271d5bfc7c4742e0a1a3465d9a4f6",
      "v": 27,
      "creates": null,
      "raw": "0xf86c09850df01a31f48252089432be343b94f860124dc4fee278fdcbd38c102d8888455f1a2a35e9c000801ba0f716bdd4f0c0800dbf5aaad0ecdedf1f191b86133a51d2136766536de9413be9a05e4afca75b85c5a012279588eb1ef895044271d5bfc7c4742e0a1a3465d9a4f6",
      "networkId": 0,
      "chainId": 0
    }
  ]
}