{
  "hash": "0x04dcd027a8bffb8ea682873a73e863c87ba13f575a05de1dbc92478b55a903ec",
  "parentHash": "0xe77a0481dc9be1f99aa80d1e1f4ab39f825f58965c009590a2bab1817db82690",
  "number": 97166,
  "timestamp": 1439751855,
  "nonce": "0x76a30a7d46e5d507",
  "difficulty": 3765073903174,
  "gasLimit": {
    "_hex": "0x2fefd8"
  },
  "gasUsed": {
    "_hex": "0x5208"
  },
  "miner": "0xe6A7a1d47ff21B6321162AEA7C6CB457D5476Bca",
  "extraData": "0x476574682f76312e302e312d38326566323666362f6c696e75782f676f312e34",
  "transactions": [
    {
      "hash": "0x74b1416422dade2e2ae7e9cdba5506fb0a36547200a4ede5d12d61b9a9550a6e",
      "blockHash": "0x04dcd027a8bffb8ea682873a73e863c87ba13f575a05de1dbc92478b55a903ec",
      "blockNumber": 97166,
      "transactionIndex": 0,
      "confirmations": null,
      "from": "0x007f7f58D3eb5b7510A301eCC749FC1fCDDBE14D",
      "gasPrice": {
        "_hex": "0xe308e1d1f"
      },
      "gasLimit": {
        "_hex": "0x15f90"
      },
      "to": "0xb1abce2918E21ddb93AA452731a12672A3d9F75a",
      "value": {
        "_hex": "0x4563918244f40000"
      },
      "nonce": 93,
      "data": "0x",
      "r": "0x715ad17d280b25b3001dfda14e8120be313290bd68047d47ec2d9fa03a6f3f7b",
      "s": "0x325714aeb3c21228784602f9db061841f0e6fabd84f2d95bf9ce60975c21a31e",
      "v": 28,
      "creates": null,
      "raw": "0xf86d5d850e308e1d1f83015f9094b1abce2918e21ddb93aa452731a12672a3d9f75a884563918244f40000801ca0715ad17d280b25b3001dfda14e8120be313290bd68047d47ec2d9fa03a6f3f7ba0325714aeb3c21228784602f9db061841f0e6fabd84f2d95bf9ce60975c21a31e",
      "networkId": 0,
      "chainId": 0
    }
  ]
}