{
  "hash": "0xbe4acd93bb7f206350fc20ae3de470916fcdc8135adb5e22ac08ada240574e5f",
  "parentHash": "0xdf416afc61375283604cb7c30220e136ca8d45ddcdbb7e83503455c30e3950e6",
  "number": 115568,
  "timestamp": 1440059407,
  "nonce": "0x0c75f0b48f39986a",
  "difficulty": 4611955445061,
  "gasLimit": {
    "_hex": "0x2fefd8"
  },
  "gasUsed": {
    "_hex": "0x4519b"
  },
  "miner": "0x0037ce3d4B7f8729C8607D8D0248252Be68202c0",
  "extraData": "0x476574682f76312e302e312f77696e646f77732f676f312e342e32",
  "transactions": [
    {
      "hash": "0x1a93a29f33cd6411dfe8627107ba08773f25062c3ae962acb37ce698c3c86138",
      "blockHash": "0xbe4acd93bb7f206350fc20ae3de470916fcdc8135adb5e22ac08ada240574e5f",
      "blockNumber": 115568,
      "transactionIndex": 0,
      "confirmations": null,
      "from": "0x037AB403e6A6e3dB6bC6728BAddCaB5f1BAAb4BA",
      "gasPrice": {
        "_hex": "0xba43b7400"
      },
      "gasLimit": {
        "_hex": "0x5208"
      },
      "to": "0xC47Aaa860008be6f65B58c6C6E02a84e666EfE31",
      "value": {
        "_hex": "0xddcfbbb7a606000"
      },
      "nonce": 0,
      "data": "0x",
      "r": "0xef1d5f658e3b8663cbceb898e78a7c5a52a2bbc52d080e3864c8fa7730fc30db",
      "s": "0x1bc2399cadbec433c1806eef20da4206a7cc97195e0fa515636e3f430bf3f950",
      "v": 27,
      "creates": null,
      "raw": "0xf86c80850ba43b740082520894c47aaa860008be6f65b58c6c6e02a84e666efe31880ddcfbbb7a606000801ba0ef1d5f658e3b8663cbceb898e78a7c5a52a2bbc52d080e3864c8fa7730fc30dba01bc2399cadbec433c1806eef20da4206a7cc97195e0fa515636e3f430bf3f950",
      "networkId": 0,
      "chainId": 0
    },
    {
      "hash": "0xcc8146760ca27228cfc06fb56907a1f7e6625ce6c5fa4f0e3810afedbe8faf45",
      "blockHash": "0xbe4acd93bb7f206350fc20ae3de470916fcdc8135adb5e22ac08ada240574e5f",
      "blockNumber": 115568,
      "transactionIndex": 1,
      "confirmations": null,
      "from": "0x76899c112A85c5a7d27Ff89f1b97112e900aeEBc",
      "gasPrice": {
        "_hex": "0xba43b7400"
      },
      "gasLimit": {
        "_hex": "0x5208"
      },
      "to": "0xC47Aaa860008be6f65B58c6C6E02a84e666EfE31",
      "value": {
        "_hex": "0xdde4294fd97b6000"
      },
      "nonce": 13,
      "data": "0x",
      "r": "0x47f6df5c7da9347444f2e6f7f5d6433bb1552416c97795529483d0d32d1a158e",
      "s": "0x50503f442ca23dba078592fcf3a0e5935c46db0a3471b42b282885bce3c77f12",
      "v": 27,
      "creates": null,
      "raw": "0xf86c0d850ba43b740082520894c47aaa860008be6f65b58c6c6e02a84e666efe3188dde4294fd97b6000801ba047f6df5c7da9347444f2e6f7f5d6433bb1552416c97795529483d0d32d1a158ea050503f442ca23dba078592fcf3a0e5935c46db0a3471b42b282885bce3c77f12",
      "networkId": 0,
      "chainId": 0
    },
    {
      "hash": "0x29200dd423749b2b4497deecf3774154bac9a6534fa257c0fbab277e77def2fc",
      "blockHash": "0xbe4acd93bb7f206350fc20ae3de470916fcdc8135adb5e22ac08ada240574e5f",
      "blockNumber": 115568,
      "transactionIndex": 2,
      "confirmations": null,
      "from": "0x9b22a80D5c7B3374a05b446081f97d0A34079e7F",
      "gasPrice": {
        "_hex": "0xba43b7400"
      },
      "gasLimit": {
        "_hex": "0xf4240"
      },
      "to": null,
      "value": {
        "_hex": "0x0"
      },
      "nonce": 4,
      "data": "0x606060405260405161014938038061014983398101604052805160805160a051919092019190808383815160019081018155600090600160a060020a0333169060029060038390559183525061010260205260408220555b82518110156100e257828181518110156100025790602001906020020151600160a060020a03166002600050826002016101008110156100025790900160005081905550806002016101026000506000858481518110156100025790602001906020020151600160a060020a0316815260200190815260200160002060005081905550600101610057565b81600060005081905550505050806101056000508190555061010662015180420490565b6101075550505050602d8061011c6000396000f30036600080376020600036600034734efc6389b88569a375668b7b3bd4a9b6c8f4a94261235a5a03f260206000f3000000000000000000000000000000000000000000000000000000000000006000000000000000000000000000000000000000000000000000000000000000020000000000000000000000000000000000000000000000004563918244f4000000000000000000000000000000000000000000000000000000000000000000020000000000000000000000009b22a80d5c7b3374a05b446081f97d0a34079e7f000000000000000000000000b1a2b43a7433dd150bb82227ed519cd6b142d382",
      "r": "0x44097629906c6b849e5df9469a35a217ebb7e0dc564617b6432cb020746ed5e2",
      "s": "0x63b8e9706aa73e9e8f0bf324d4fe091abb3f26408179e32e11116efa4443699b",
      "v": 28,
      "creates": "0xF6ED6e73a8109ef79bAEc6389654233455f510cF",
      "raw": "0xf9025c04850ba43b7400830f42408080b90209606060405260405161014938038061014983398101604052805160805160a051919092019190808383815160019081018155600090600160a060020a0333169060029060038390559183525061010260205260408220555b82518110156100e257828181518110156100025790602001906020020151600160a060020a03166002600050826002016101008110156100025790900160005081905550806002016101026000506000858481518110156100025790602001906020020151600160a060020a0316815260200190815260200160002060005081905550600101610057565b81600060005081905550505050806101056000508190555061010662015180420490565b6101075550505050602d8061011c6000396000f30036600080376020600036600034734efc6389b88569a375668b7b3bd4a9b6c8f4a94261235a5a03f260206000f3000000000000000000000000000000000000000000000000000000000000006000000000000000000000000000000000000000000000000000000000000000020000000000000000000000000000000000000000000000004563918244f4000000000000000000000000000000000000000000000000000000000000000000020000000000000000000000009b22a80d5c7b3374a05b446081f97d0a34079e7f000000000000000000000000b1a2b43a7433dd150bb82227ed519cd6b142d3821ca044097629906c6b849e5df9469a35a217ebb7e0dc564617b6432cb020746ed5e2a063b8e9706aa73e9e8f0bf324d4fe091abb3f26408179e32e11116efa4443699b",
      "networkId": 0,
      "chainId": 0
    }
  ]
}