{
  "hash": "0x38293be5134dad0695f50f15aa8be05d370abb09001d7b14dda27077ce19c84d",
  "parentHash": "0x1de74ab75b996fc1eac12ba6fc6dcc0ec81c674d1608c295a241281035d79f3f",
  "number": 102886,
  "timestamp": 1439844522,
  "nonce": "0x8356aa4a3ddb7f9b",
  "difficulty": 4104154208059,
  "gasLimit": {
    "_hex": "0x2fefd8"
  },
  "gasUsed": {
    "_hex": "0x5208"
  },
  "miner": "0xbb7B8287f3F0a933474a79eAe42CBCa977791171",
  "extraData": "0x476574682f4c5649562f76312e302e312f6c696e75782f676f312e342e32",
  "transactions": [
    {
      "hash": "0x578b0f1c5d913eacd207660d7286d880ed85c8202a749e127ad0470708c29cb8",
      "blockHash": "0x38293be5134dad0695f50f15aa8be05d370abb09001d7b14dda27077ce19c84d",
      "blockNumber": 102886,
      "transactionIndex": 0,
      "confirmations": null,
      "from": "0xFBb1b73C4f0BDa4f67dcA266ce6Ef42f520fBB98",
      "gasPrice": {
        "_hex": "0xd38c0b3d2"
      },
      "gasLimit": {
        "_hex": "0x5208"
      },
      "to": "0xCff928F8F989F12608df9ad8563C8A6BE2657268",
      "value": {
        "_hex": "0x15bbb17ba218b000"
      },
      "nonce": 100,
      "data": "0x",
      "r": "0xf81a23b06da5620bffe672cb4613d4ef7a4a413b472e9a911afa8ec742b33f2a",
      "s": "0x7c2192c2bb73f59bfc39b71189bd41ddfdad23f838fa6cb2d565a638d41471d9",
      "v": 27,
      "creates": null,
      "raw": "0xf86c64850d38c0b3d282520894cff928f8f989f12608df9ad8563c8a6be26572688815bbb17ba218b000801ba0f81a23b06da5620bffe672cb4613d4ef7a4a413b472e9a911afa8ec742b33f2aa07c2192c2bb73f59bfc39b71189bd41ddfdad23f838fa6cb2d565a638d41471d9",
      "networkId": 0,
      "chainId": 0
    }
  ]
}