{
  "hash": "0x92cd3eda9828e89ab06046fb7c3be7409f6e2fe6431d119db05ea4eb4a6a9c0d",
  "parentHash": "0xaaef28131a0cad44b93f60277eaed6c46cfebc6e87a182da2ed9697ee1251c6b",
  "number": 96923,
  "timestamp": 1439748212,
  "nonce": "0x49123c94e83ce507",
  "difficulty": 3726772400396,
  "gasLimit": {
    "_hex": "0x2fefd8"
  },
  "gasUsed": {
    "_hex": "0x5208"
  },
  "miner": "0x88D74a59454F6cF3B51ef6b9136AFb6b9D405A88",
  "extraData": "0x476574682f76312e302e312d37666266393930632f6c696e75782f676f312e34",
  "transactions": [
    {
      "hash": "0x79e102c885f5d7c18551edccf9285928a4d3268a5008b454a1066df65edee894",
      "blockHash": "0x92cd3eda9828e89ab06046fb7c3be7409f6e2fe6431d119db05ea4eb4a6a9c0d",
      "blockNumber": 96923,
      "transactionIndex": 0,
      "confirmations": null,
      "from": "0xa70a9a7040d542C632D8e0bE7c5513A8a5Bbc752",
      "gasPrice": {
        "_hex": "0xdd6468271"
      },
      "gasLimit": {
        "_hex": "0x5208"
      },
      "to": "0x32Be343B94f860124dC4fEe278FDCBD38C102D88",
      "value": {
        "_hex": "0x455f1725367e1000"
      },
      "nonce": 172,
      "data": "0x",
      "r": "0x4d29fab659c0041a721b0cf3a2cdad24ebfe32e21989655c623324cf4a03a71d",
      "s": "0x771d16212fb6a834f07daca3d8cbacdd0f5d72a92219afd1a29a1a8333439456",
      "v": 27,
      "creates": null,
      "raw": "0xf86d81ac850dd64682718252089432be343b94f860124dc4fee278fdcbd38c102d8888455f1725367e1000801ba04d29fab659c0041a721b0cf3a2cdad24ebfe32e21989655c623324cf4a03a71da0771d16212fb6a834f07daca3d8cbacdd0f5d72a92219afd1a29a1a8333439456",
      "networkId": 0,
      "chainId": 0
    }
  ]
}