{
  "hash": "0x3e226b63c3ca5cbddb4a97885338c19048cecff4aedfd852bbe4d9f2a84c049b",
  "parentHash": "0xbae43e05d480c945afdc2f1544c16dcff6b8408e6a2cb64c9f1792d8d21ba802",
  "number": 54812,
  "timestamp": 1439060448,
  "nonce": "0xccff5c6513584fa4",
  "difficulty": 1611718157350,
  "gasLimit": {
    "_hex": "0x2fefd8"
  },
  "gasUsed": {
    "_hex": "0xf618"
  },
  "miner": "0xab84940B570d6358ed6A9Dbf7e0bc8Ec8F5A6E89",
  "extraData": "0x322831652933",
  "transactions": [
    {
      "hash": "0xc4727e3b149773a8d8ee7f093b8217e64d8fb7b707110c02a919e6d1d17ee84c",
      "blockHash": "0x3e226b63c3ca5cbddb4a97885338c19048cecff4aedfd852bbe4d9f2a84c049b",
      "blockNumber": 54812,
      "transactionIndex": 0,
      "confirmations": null,
      "from": "0x5e1fBd4E58e2312b3C78d7aAAAfA10bf9C3189E3",
      "gasPrice": {
        "_hex": "0x1109f61ca46"
      },
      "gasLimit": {
        "_hex": "0x15f90"
      },
      "to": "0x5129857C8008747c19d683Fc29eEF4618f9932b8",
      "value": {
        "_hex": "0x3635c9adc5dea00000"
      },
      "nonce": 12,
      "data": "0x",
      "r": "0x720cd8e088d519e480bbb9ad6cc510e5764023b812eb967271cd597100b9bad7",
      "s": "0x56f89de798c06b79b85b513aeb79768e27c3ba1e660838b39211a8e48dadeb51",
      "v": 28,
      "creates": null,
      "raw": "0xf86f0c8601109f61ca4683015f90945129857c8008747c19d683fc29eef4618f9932b8893635c9adc5dea00000801ca0720cd8e088d519e480bbb9ad6cc510e5764023b812eb967271cd597100b9bad7a056f89de798c06b79b85b513aeb79768e27c3ba1e660838b39211a8e48dadeb51",
      "networkId": 0,
      "chainId": 0
    },
    {
      "hash": "0x70473c49d44f6de988ae5e6f28802ffcb9d7fef173e2d4df18c07e3588b71510",
      "blockHash": "0x3e226b63c3ca5cbddb4a97885338c19048cecff4aedfd852bbe4d9f2a84c049b",
      "blockNumber": 54812,
      "transactionIndex": 1,
      "confirmations": null,
      "from": "0x5e1fBd4E58e2312b3C78d7aAAAfA10bf9C3189E3",
      "gasPrice": {
        "_hex": "0x10e037a7cd0"
      },
      "gasLimit": {
        "_hex": "0x15f90"
      },
      "to": "0x5129857C8008747c19d683Fc29eEF4618f9932b8",
      "value": {
        "_hex": "0x3635c9adc5dea00000"
      },
      "nonce": 13,
      "data": "0x",
      "r": "0x662507a9c124e226baff13a8e6dddca0ffb8479a36af96f8a50631549472364a",
      "s": "0x03333978abb4587ec65837085e2af63b3e9afb16411b126a0bdc45181f38553a",
      "v": 28,
      "creates": null,
      "raw": "0xf86f0d86010e037a7cd083015f90945129857c8008747c19d683fc29eef4618f9932b8893635c9adc5dea00000801ca0662507a9c124e226baff13a8e6dddca0ffb8479a36af96f8a50631549472364aa003333978abb4587ec65837085e2af63b3e9afb16411b126a0bdc45181f38553a",
      "networkId": 0,
      "chainId": 0
    },
    {
      "hash": "0x5febc08d29207af44d73cfa19d9cb8368c2cd0cc8f401d2a29e624f3862c1484",
      "blockHash": "0x3e226b63c3ca5cbddb4a97885338c19048cecff4aedfd852bbe4d9f2a84c049b",
      "blockNumber": 54812,
      "transactionIndex": 2,
      "confirmations": null,
      "from": "0x705dDD38355482B8c7D3B515Bda1500dd7d7A817",
      "gasPrice": {
        "_hex": "0x746a528800"
      },
      "gasLimit": {
        "_hex": "0x5208"
      },
      "to": "0x481bfBe24683C3aaCFCEac84dd144283A655F47B",
      "value": {
        "_hex": "0x15aef82b03ca1bc000"
      },
      "nonce": 0,
      "data": "0x",
      "r": "0x84bb85f432ac7aa78f314a6db980089e6a766fa7fd48a925ef2409f63ca6e363",
      "s": "0xd0fa6e86fde9e5f14ccab71dcbbc529308cc5289d00f808e2d43dd913a799822",
      "v": 27,
      "creates": null,
      "raw": "0xf86d8085746a52880082520894481bfbe24683c3aacfceac84dd144283a655f47b8915aef82b03ca1bc000801ba084bb85f432ac7aa78f314a6db980089e6a766fa7fd48a925ef2409f63ca6e363a0d0fa6e86fde9e5f14ccab71dcbbc529308cc5289d00f808e2d43dd913a799822",
      "networkId": 0,
      "chainId": 0
    }
  ]
}