{
  "hash": "0xb256bf9f07df404eec4378d3a9f082c63b9dd104c45a1d337637226c027f8fbd",
  "parentHash": "0x5016cba5ece7e8bc94e0348ee08e9fc4894116d7630b86ce3c24ff0434983d9f",
  "number": 71490,
  "timestamp": 1439336983,
  "nonce": "0xf2fd8362d856ad8f",
  "difficulty": 2177216039530,
  "gasLimit": {
    "_hex": "0x2fefd8"
  },
  "gasUsed": {
    "_hex": "0xae73"
  },
  "miner": "0x1B8F8F8b66B72Dae86da6656622a11Ee08f09285",
  "extraData": "0x476574682f76312e302e312d38326566323666362f6c696e75782f676f312e34",
  "transactions": [
    {
      "hash": "0x0c7479e639b4668dcdcf1fff161be44b6328dcabd768e7054d097320f03fa8f9",
      "blockHash": "0xb256bf9f07df404eec4378d3a9f082c63b9dd104c45a1d337637226c027f8fbd",
      "blockNumber": 71490,
      "transactionIndex": 0,
      "confirmations": null,
      "from": "0x17580B766f7453525ca4C6A88b01b50570EA088C",
      "gasPrice": {
        "_hex": "0xe0a9cea87"
      },
      "gasLimit": {
        "_hex": "0x61a80"
      },
      "to": "0x5Fe5B7546D1628f7348B023A0393de1FC825A4fD",
      "value": {
        "_hex": "0x1bc16d674ec80000"
      },
      "nonce": 206,
      "data": "0xb595b8b50000000000000000000000000000000000000000000000000000000000000000",
      "r": "0x290241ada618c89b37882a46e921c02e628c27d860c4ce4124a6acfac8fec6b4",
      "s": "0x12de20f6d08bc58074e9f3a6a2b28049511b445f0ee1d15b4d337ade5f76d820",
      "v": 28,
      "creates": null,
      "raw": "0xf89281ce850e0a9cea8783061a80945fe5b7546d1628f7348b023a0393de1fc825a4fd881bc16d674ec80000a4b595b8b500000000000000000000000000000000000000000000000000000000000000001ca0290241ada618c89b37882a46e921c02e628c27d860c4ce4124a6acfac8fec6b4a012de20f6d08bc58074e9f3a6a2b28049511b445f0ee1d15b4d337ade5f76d820",
      "networkId": 0,
      "chainId": 0
    }
  ]
}