{
  "hash": "0xda1f128f0b143cd007f66c1cccdf4291d0aecdb0fbb81749d3e102e251eac9ab",
  "parentHash": "0x92e13a626d25bdebb85f154d171c160e1fb62bccc216e7d37b62a1ff3199c0e5",
  "number": 77290,
  "timestamp": 1439434713,
  "nonce": "0x8354214d28918912",
  "difficulty": 2231661170415,
  "gasLimit": {
    "_hex": "0x2fefd8"
  },
  "gasUsed": {
    "_hex": "0xa410"
  },
  "miner": "0x9746c7e1ef2bd21FF3997fa467593a89cb852BD0",
  "extraData": "0x476574682f76312e302e312f77696e646f77732f676f312e342e32",
  "transactions": [
    {
      "hash": "0x8acd8421ec53f14a42bccd4908de9362b602bafcb09f66a4f7fa556b53894e19",
      "blockHash": "0xda1f128f0b143cd007f66c1cccdf4291d0aecdb0fbb81749d3e102e251eac9ab",
      "blockNumber": 77290,
      "transactionIndex": 0,
      "confirmations": null,
      "from": "0xCc519A6f707571a4C58F0c4b574643283a0742B8",
      "gasPrice": {
        "_hex": "0xda4a7d0ac"
      },
      "gasLimit": {
        "_hex": "0x5208"
      },
      "to": "0x32Be343B94f860124dC4fEe278FDCBD38C102D88",
      "value": {
        "_hex": "0x1fde79f4268c6d0000"
      },
      "nonce": 2,
      "data": "0x",
      "r": "0x76e2aa6fb4dc27f9d4052eeadbef89d40ad712d46be526b87474855680d9ad6a",
      "s": "0x2db4170ce316f457241b0a40083a265aa4790ab9b8654c7f606dfcb32c72dabd",
      "v": 27,
      "creates": null,
      "raw": "0xf86d02850da4a7d0ac8252089432be343b94f860124dc4fee278fdcbd38c102d88891fde79f4268c6d0000801ba076e2aa6fb4dc27f9d4052eeadbef89d40ad712d46be526b87474855680d9ad6aa02db4170ce316f457241b0a40083a265aa4790ab9b8654c7f606dfcb32c72dabd",
      "networkId": 0,
      "chainId": 0
    },
    {
      "hash": "0xd5c9da5d782c637257390afb7d645f95a7cdbde0d33487608599f1fc7224e6cd",
      "blockHash": "0xda1f128f0b143cd007f66c1cccdf4291d0aecdb0fbb81749d3e102e251eac9ab",
      "blockNumber": 77290,
      "transactionIndex": 1,
      "confirmations": null,
      "from": "0xa6BDc31c431B8F97848c9D60cbbe9660dc450eB7",
      "gasPrice": {
        "_hex": "0xda4a7d0ac"
      },
      "gasLimit": {
        "_hex": "0x5208"
      },
      "to": "0x32Be343B94f860124dC4fEe278FDCBD38C102D88",
      "value": {
        "_hex": "0x455f3256d95f0800"
      },
      "nonce": 19,
      "data": "0x",
      "r": "0xad219cd73bfa77a8d52401733c27ed5eb206a65ed389e8247f0b8e0596459628",
      "s": "0x04a32035003110db9ea7a9b3a9d26c4aa1fa97b88c3f1746e96e3f2cd3003faf",
      "v": 27,
      "creates": null,
      "raw": "0xf86c13850da4a7d0ac8252089432be343b94f860124dc4fee278fdcbd38c102d8888455f3256d95f0800801ba0ad219cd73bfa77a8d52401733c27ed5eb206a65ed389e8247f0b8e0596459628a004a32035003110db9ea7a9b3a9d26c4aa1fa97b88c3f1746e96e3f2cd3003faf",
      "networkId": 0,
      "chainId": 0
    }
  ]
}