{
  "hash": "0x5031587a1aa539bd84bcca3a86771a2f45313cf6d793557d2687669e13dad3b8",
  "parentHash": "0x2dede17f6c56ed36eb180b18f5d52077b0b70a9260a99c1a708768df7b4b21c0",
  "number": 70885,
  "timestamp": 1439326925,
  "nonce": "0x44a6506ae377a239",
  "difficulty": 2150955375230,
  "gasLimit": {
    "_hex": "0x2fefd8"
  },
  "gasUsed": {
    "_hex": "0xa410"
  },
  "miner": "0xe6A7a1d47ff21B6321162AEA7C6CB457D5476Bca",
  "extraData": "0x476574682f76312e302e312d38326566323666362f6c696e75782f676f312e34",
  "transactions": [
    {
      "hash": "0x6970b102b5ae475c143997178a52b8c2fd5868ae7c82dfae46d03a6c4fff541a",
      "blockHash": "0x5031587a1aa539bd84bcca3a86771a2f45313cf6d793557d2687669e13dad3b8",
      "blockNumber": 70885,
      "transactionIndex": 0,
      "confirmations": null,
      "from": "0x120A270bbC009644e35F0bB6ab13f95b8199c4ad",
      "gasPrice": {
        "_hex": "0xd474eff28"
      },
      "gasLimit": {
        "_hex": "0x15f90"
      },
      "to": "0x0258Afde42492E62Ba883e6169d5c502275A7a24",
      "value": {
        "_hex": "0x2e98dfe0346e0a8000"
      },
      "nonce": 213,
      "data": "0x",
      "r": "0xca7400d5bdcc51e448072bf4eccce6ac26400e3f2f20010db3b96bcfb1b5cc9e",
      "s": "0x3288a8e2647f2a7e12ca1e0a35cd0f60f41eee9692c3179ccd78d2ef3dc118fd",
      "v": 28,
      "creates": null,
      "raw": "0xf86f81d5850d474eff2883015f90940258afde42492e62ba883e6169d5c502275a7a24892e98dfe0346e0a8000801ca0ca7400d5bdcc51e448072bf4eccce6ac26400e3f2f20010db3b96bcfb1b5cc9ea03288a8e2647f2a7e12ca1e0a35cd0f60f41eee9692c3179ccd78d2ef3dc118fd",
      "networkId": 0,
      "chainId": 0
    },
    {
      "hash": "0x8b697803968571f01090da525cf8efb4d5f8510472f195e22e579ab038a085fb",
      "blockHash": "0x5031587a1aa539bd84bcca3a86771a2f45313cf6d793557d2687669e13dad3b8",
      "blockNumber": 70885,
      "transactionIndex": 1,
      "confirmations": null,
      "from": "0x8d304933a1F93F268bFDcFF9FFE6846a75167279",
      "gasPrice": {
        "_hex": "0xcf48e9266"
      },
      "gasLimit": {
        "_hex": "0x5208"
      },
      "to": "0x32Be343B94f860124dC4fEe278FDCBD38C102D88",
      "value": {
        "_hex": "0x359461bbd98c800"
      },
      "nonce": 0,
      "data": "0x",
      "r": "0x7fa3734962d890c6858ec55317ff4d2dcf7e26a2d65946e89abe4e0bf7fcab16",
      "s": "0x34fef95da576a8f77623692e2cca272c3b89fb2128e9107be22c9ae1c2e4e1df",
      "v": 27,
      "creates": null,
      "raw": "0xf86c80850cf48e92668252089432be343b94f860124dc4fee278fdcbd38c102d88880359461bbd98c800801ba07fa3734962d890c6858ec55317ff4d2dcf7e26a2d65946e89abe4e0bf7fcab16a034fef95da576a8f77623692e2cca272c3b89fb2128e9107be22c9ae1c2e4e1df",
      "networkId": 0,
      "chainId": 0
    }
  ]
}