{
  "hash": "0xbee5fa798cc58521e6d22b04c2a5814027dc2a107934265017971dc9c8eaa3a8",
  "parentHash": "0x8f9431892eac2ff60587c3232184a1089a044783ac873961dae58ffab968d547",
  "number": 88712,
  "timestamp": 1439612251,
  "nonce": "0x728e20b7bb5be256",
  "difficulty": 3239464654412,
  "gasLimit": {
    "_hex": "0x2fefd8"
  },
  "gasUsed": {
    "_hex": "0x5208"
  },
  "miner": "0xe6A7a1d47ff21B6321162AEA7C6CB457D5476Bca",
  "extraData": "0x476574682f76312e302e312d38326566323666362f6c696e75782f676f312e34",
  "transactions": [
    {
      "hash": "0xbc3bf75fa31915bdde5c32b87c824d10b2afd818b2c1106cb8388f2c052b3c07",
      "blockHash": "0xbee5fa798cc58521e6d22b04c2a5814027dc2a107934265017971dc9c8eaa3a8",
      "blockNumber": 88712,
      "transactionIndex": 0,
      "confirmations": null,
      "from": "0x9Fa9952255B2b06639A04D63804d4BdFFf6E2d7e",
      "gasPrice": {
        "_hex": "0xd2dba40ee"
      },
      "gasLimit": {
        "_hex": "0x15f90"
      },
      "to": "0xE12517204a15E890f12755207271102F4800A0c4",
      "value": {
        "_hex": "0x1a055690d9db80000"
      },
      "nonce": 9,
      "data": "0x",
      "r": "0xc6c96b80008698d259c86749e5da1b84adf1e5e10b46eb65fde00409a6dc2dca",
      "s": "0x5ba954f9ce0b5a925f035ef3d605a54bf4d0ff364c78dacb7b3a13150d5433bd",
      "v": 28,
      "creates": null,
      "raw": "0xf86e09850d2dba40ee83015f9094e12517204a15e890f12755207271102f4800a0c48901a055690d9db80000801ca0c6c96b80008698d259c86749e5da1b84adf1e5e10b46eb65fde00409a6dc2dcaa05ba954f9ce0b5a925f035ef3d605a54bf4d0ff364c78dacb7b3a13150d5433bd",
      "networkId": 0,
      "chainId": 0
    }
  ]
}