{
  "hash": "0x97d25e95998f8d62f069434b3b7fe4a53f9cf7305541c115713baaeee613b0c6",
  "parentHash": "0x6f9978da911103812701a25f9c99dc85ba82fd777a081a0c3610712ace59ff3a",
  "number": 51853,
  "timestamp": 1439012068,
  "nonce": "0x8bdad82327111e8e",
  "difficulty": 1561919080490,
  "gasLimit": {
    "_hex": "0xe6ad7"
  },
  "gasUsed": {
    "_hex": "0x5208"
  },
  "miner": "0x3DfCf2bF579C831a03379a140b74f884e49CaFf3",
  "extraData": "0x",
  "transactions": [
    {
      "hash": "0x60831af109a81dec20f1f4aeaa3210857b6db5f3e740f5e1e229ff55cbb7d2ad",
      "blockHash": "0x97d25e95998f8d62f069434b3b7fe4a53f9cf7305541c115713baaeee613b0c6",
      "blockNumber": 51853,
      "transactionIndex": 0,
      "confirmations": null,
      "from": "0xD2581A55ce23aB10D8AD8c44378F59079BD6F658",
      "gasPrice": {
        "_hex": "0xd50b0d584"
      },
      "gasLimit": {
        "_hex": "0x7a120"
      },
      "to": "0x3f4e6ef4c172d29A5bfc4CC6073A6602eca6c2EB",
      "value": {
        "_hex": "0xde0b6b3a7640000"
      },
      "nonce": 2,
      "data": "0x",
      "r": "0xcdab687497cc0124bc2c8a0a66b79e9fdae422163f0e75c316fead2f404b713e",
      "s": "0x5ef9d5e67cf0c5c6dcbbd66a0df2b0794e606cacd2e1931aa749e3b00b900b39",
      "v": 28,
      "creates": null,
      "raw": "0xf86d02850d50b0d5848307a120943f4e6ef4c172d29a5bfc4cc6073a6602eca6c2eb880de0b6b3a7640000801ca0cdab687497cc0124bc2c8a0a66b79e9fdae422163f0e75c316fead2f404b713ea05ef9d5e67cf0c5c6dcbbd66a0df2b0794e606cacd2e1931aa749e3b00b900b39",
      "networkId": 0,
      "chainId": 0
    }
  ]
}