{
  "hash": "0x4836a9183d45110ed0e11613cd7eddd91980bcb5c0fc7f502232bf09b66017d0",
  "parentHash": "0xa0c6df46567c47bced7b8cce65aafe5f2f3add13a4ecd18218cdc09806f0ca31",
  "number": 88219,
  "timestamp": 1439604674,
  "nonce": "0x4779310a1faa9482",
  "difficulty": 3206605654478,
  "gasLimit": {
    "_hex": "0x2fefd8"
  },
  "gasUsed": {
    "_hex": "0x5208"
  },
  "miner": "0x9667dF29De26704cE04E2fF2BE67BEd99308812D",
  "extraData": "0x476574682f76312e302e312d38326566323666362f6c696e75782f676f312e34",
  "transactions": [
    {
      "hash": "0xa93535247e18b4eded8c40e59c30b01076816a6cd0aaf88c792492597b7fa9fe",
      "blockHash": "0x4836a9183d45110ed0e11613cd7eddd91980bcb5c0fc7f502232bf09b66017d0",
      "blockNumber": 88219,
      "transactionIndex": 0,
      "confirmations": null,
      "from": "0x6625997D5DDC109B93B0e6dD488f416D8592Cd25",
      "gasPrice": {
        "_hex": "0xdffc0407b"
      },
      "gasLimit": {
        "_hex": "0x5208"
      },
      "to": "0x32Be343B94f860124dC4fEe278FDCBD38C102D88",
      "value": {
        "_hex": "0x28a82f3f0702960000"
      },
      "nonce": 4,
      "data": "0x",
      "r": "0xe21dc8dd9e186df87247e6f3c7e547655629e9d7ee2a3c71143931f0c5a70831",
      "s": "0x33ffa1ba3a581eb78cc2531d373efcc483a0e0c32d76835fb2a45a87e7f918e9",
      "v": 27,
      "creates": null,
      "raw": "0xf86d04850dffc0407b8252089432be343b94f860124dc4fee278fdcbd38c102d888928a82f3f0702960000801ba0e21dc8dd9e186df87247e6f3c7e547655629e9d7ee2a3c71143931f0c5a70831a033ffa1ba3a581eb78cc2531d373efcc483a0e0c32d76835fb2a45a87e7f918e9",
      "networkId": 0,
      "chainId": 0
    }
  ]
}