{
  "hash": "0x6d5a4abee67a2eb2a9f0dc95b41a4266ac5c596b8d3693d629af61baf98accd9",
  "parentHash": "0x4514260ebf829b629858495504a7a77a5ffc7e9910051779207fc85c7a14cb45",
  "number": 94348,
  "timestamp": 1439706826,
  "nonce": "0x382a0f5a70bef25f",
  "difficulty": 3483294062277,
  "gasLimit": {
    "_hex": "0x2fefd8"
  },
  "gasUsed": {
    "_hex": "0x5208"
  },
  "miner": "0x5F8F73E26CdF436f19Cb24C82F90A15AFe55b592",
  "extraData": "0x476574682f76312e302e312f77696e646f77732f676f312e342e32",
  "transactions": [
    {
      "hash": "0x15c80d7f3baf0ce080ddb796ac8bc7fc85910630bac01c6c1b89f33f1456f5a3",
      "blockHash": "0x6d5a4abee67a2eb2a9f0dc95b41a4266ac5c596b8d3693d629af61baf98accd9",
      "blockNumber": 94348,
      "transactionIndex": 0,
      "confirmations": null,
      "from": "0x2e29Ce99617fa737a66E4e9aF7595496b9448822",
      "gasPrice": {
        "_hex": "0xd7d40ace3"
      },
      "gasLimit": {
        "_hex": "0x15f90"
      },
      "to": "0xF4f2C15602B084Cae84Ea603f75527DE19705aA1",
      "value": {
        "_hex": "0x4563918244f40000"
      },
      "nonce": 5,
      "data": "0x",
      "r": "0xb8deffad3e16b1882d07131a20a47b41ee9f099447f4f74b1de33da7b1dab3b2",
      "s": "0x6f8d9d01cb38e082a34fd4fd0355dda9a6864a60848e9be0117a693fc3c68fdc",
      "v": 28,
      "creates": null,
      "raw": "0xf86d05850d7d40ace383015f9094f4f2c15602b084cae84ea603f75527de19705aa1884563918244f40000801ca0b8deffad3e16b1882d07131a20a47b41ee9f099447f4f74b1de33da7b1dab3b2a06f8d9d01cb38e082a34fd4fd0355dda9a6864a60848e9be0117a693fc3c68fdc",
      "networkId": 0,
      "chainId": 0
    }
  ]
}