{
  "hash": "0xee33987afc31874b58f5c341f7b742aa35df048710afa97771a9d6845d0ac01b",
  "parentHash": "0xff92f0efa8f96731c28b9a8c62e0291e1b1f86d42887369b34fde9a47c26ba02",
  "number": 65207,
  "timestamp": 1439232944,
  "nonce": "0x210f58bc66e77878",
  "difficulty": 1950247239705,
  "gasLimit": {
    "_hex": "0x2fefd8"
  },
  "gasUsed": {
    "_hex": "0x5208"
  },
  "miner": "0x02020D22dCF88f5eDd66B382D7da019F161fB7e3",
  "extraData": "0x",
  "transactions": [
    {
      "hash": "0x2b045c0d27e0d3b18a95131f9de08463bb63f993a9a51df859dfdce0b9b9bc6d",
      "blockHash": "0xee33987afc31874b58f5c341f7b742aa35df048710afa97771a9d6845d0ac01b",
      "blockNumber": 65207,
      "transactionIndex": 0,
      "confirmations": null,
      "from": "0x84ad64deFF6B187f690634051D2a096C359D1099",
      "gasPrice": {
        "_hex": "0xd01247514"
      },
      "gasLimit": {
        "_hex": "0x5208"
      },
      "to": "0xd8806Af9F36874CABFdC064548e4B74197E75e11",
      "value": {
        "_hex": "0x0"
      },
      "nonce": 3,
      "data": "0x",
      "r": "0x9ec572710ae8607c95fa56667678bed39be85f1cf8119fc4d4f706ac1f5a2c7c",
      "s": "0x3480d42aa5a8c25368ea1b376077036cbb7fc0f54e886b0a60440e5d40764fe5",
      "v": 27,
      "creates": null,
      "raw": "0xf86403850d0124751482520894d8806af9f36874cabfdc064548e4b74197e75e1180801ba09ec572710ae8607c95fa56667678bed39be85f1cf8119fc4d4f706ac1f5a2c7ca03480d42aa5a8c25368ea1b376077036cbb7fc0f54e886b0a60440e5d40764fe5",
      "networkId": 0,
      "chainId": 0
    }
  ]
}