{
  "hash": "0xb971cb0731583b7e228ab066b6e5fc35ad2fed762d83367573e3fbb76ccb266b",
  "parentHash": "0x1f624eff8065127108335313795ec4606f035554826568f28281159f4882d342",
  "number": 56180,
  "timestamp": 1439083151,
  "nonce": "0xebfc9f4518ceaf2e",
  "difficulty": 1640032135572,
  "gasLimit": {
    "_hex": "0x2fefd8"
  },
  "gasUsed": {
    "_hex": "0x5208"
  },
  "miner": "0x157c6f2431eB1a95797EE86F7d17b3c0FD47A247",
  "extraData": "0x476574682f76312e302e312f77696e646f77732f676f312e342e32",
  "transactions": [
    {
      "hash": "0xab7c9d13e14ff8dde810c3052a3914e0715f37b240a5aad85a0a5ef950045c5f",
      "blockHash": "0xb971cb0731583b7e228ab066b6e5fc35ad2fed762d83367573e3fbb76ccb266b",
      "blockNumber": 56180,
      "transactionIndex": 0,
      "confirmations": null,
      "from": "0xEe2e3665531f220d70d01CCaBb559537a2663174",
      "gasPrice": {
        "_hex": "0xdcd435df2"
      },
      "gasLimit": {
        "_hex": "0x5208"
      },
      "to": "0x32Be343B94f860124dC4fEe278FDCBD38C102D88",
      "value": {
        "_hex": "0x22b181fe5419f8000"
      },
      "nonce": 3,
      "data": "0x",
      "r": "0x0985c307d029f1a3e6f30e4b6d374b88c1a7993d52184784de7631fb20d8dfc9",
      "s": "0x2d99de7144518819fab0901abfa65e59b6f3bcac5c004228f9537608d02f4365",
      "v": 27,
      "creates": null,
      "raw": "0xf86d03850dcd435df28252089432be343b94f860124dc4fee278fdcbd38c102d8889022b181fe5419f8000801ba00985c307d029f1a3e6f30e4b6d374b88c1a7993d52184784de7631fb20d8dfc9a02d99de7144518819fab0901abfa65e59b6f3bcac5c004228f9537608d02f4365",
      "networkId": 0,
      "chainId": 0
    }
  ]
}