{
  "hash": "0x42e6778895f22d3c3f65579e06897e4aee61154010d8a0a02c0f45068b2162db",
  "parentHash": "0xf90dedaa150c1095cdf48b36d10ddae1a9a3c1467eecc1aebe631e0150efe827",
  "number": 84195,
  "timestamp": 1439546241,
  "nonce": "0x70862005cca55bc4",
  "difficulty": 2520561491538,
  "gasLimit": {
    "_hex": "0x2fefd8"
  },
  "gasUsed": {
    "_hex": "0x5208"
  },
  "miner": "0xEF247E639d49461D25F57e9362CadE3120910Ce0",
  "extraData": "0x476574682f76312e302e312f6c696e75782f676f312e342e32",
  "transactions": [
    {
      "hash": "0x20b816387e86609ef01d59ff725fdf427d37ae9d0a5490d582bf558ec312f27b",
      "blockHash": "0x42e6778895f22d3c3f65579e06897e4aee61154010d8a0a02c0f45068b2162db",
      "blockNumber": 84195,
      "transactionIndex": 0,
      "confirmations": null,
      "from": "0xa522de7EB6ae1250522A513133a93bd42849475C",
      "gasPrice": {
        "_hex": "0xd4ac52ba4"
      },
      "gasLimit": {
        "_hex": "0x15f90"
      },
      "to": "0x859217617481BD9b6E3e38f6aE9BB677F0D26154",
      "value": {
        "_hex": "0x1b1ae4d6e2ef500000"
      },
      "nonce": 2,
      "data": "0x",
      "r": "0x30d03d429ed3517a2720f8b4c1e5dbcd954f27ee7279913dbda1d6fb21ef9e8f",
      "s": "0x00d3a6c1f1afe29440ee05bb969a38ccb31c312f2c1f71754dc15d5972738185",
      "v": 28,
      "creates": null,
      "raw": "0xf86d02850d4ac52ba483015f9094859217617481bd9b6e3e38f6ae9bb677f0d26154891b1ae4d6e2ef500000801ca030d03d429ed3517a2720f8b4c1e5dbcd954f27ee7279913dbda1d6fb21ef9e8f9fd3a6c1f1afe29440ee05bb969a38ccb31c312f2c1f71754dc15d5972738185",
      "networkId": 0,
      "chainId": 0
    }
  ]
}