{
  "hash": "0x8aceb26f6af82dac746ba99b9ca2ee7d7634558e46e6cd9657e1a94f604a16db",
  "parentHash": "0x75f9188a81414d40a46c3fe376b6c834e05fdc110d51da7fe898666bb1f07b72",
  "number": 121086,
  "timestamp": 1440171172,
  "nonce": "0xda25c45063ee3bac",
  "difficulty": 4406462732858,
  "gasLimit": {
    "_hex": "0x2fefd8"
  },
  "gasUsed": {
    "_hex": "0x1bdbe"
  },
  "miner": "0xEcbbFE46500E669149DD031fcdbeb3ed9be638Fb",
  "extraData": "0x476574682f76312e302e312d39363965623631382f6c696e75782f676f312e34",
  "transactions": [
    {
      "hash": "0xa9bda4e743c36149a136562db215c0a20e4e6be55ec4fe389412d709ed3e21d5",
      "blockHash": "0x8aceb26f6af82dac746ba99b9ca2ee7d7634558e46e6cd9657e1a94f604a16db",
      "blockNumber": 121086,
      "transactionIndex": 0,
      "confirmations": null,
      "from": "0x7aAaa306d4a7Fd1696A82A66cc538D29f5af4e39",
      "gasPrice": {
        "_hex": "0xba43b7400"
      },
      "gasLimit": {
        "_hex": "0x249f0"
      },
      "to": "0xE28e72FCf78647ADCe1F1252F240bbfaebD63BcC",
      "value": {
        "_hex": "0x796e3ea3f8ab00000"
      },
      "nonce": 2,
      "data": "0x45466f3a",
      "r": "0x9b46656c0bc47cf4664a18ac296adcb9ec28738e9492b9847d0f04ce0ac00cfe",
      "s": "0x646f05818d422c8c49df7fcca01f020ed4cd6502b6c4e969e41b7659386862bb",
      "v": 28,
      "creates": null,
      "raw": "0xf87202850ba43b7400830249f094e28e72fcf78647adce1f1252f240bbfaebd63bcc890796e3ea3f8ab000008445466f3a1ca09b46656c0bc47cf4664a18ac296adcb9ec28738e9492b9847d0f04ce0ac00cfea0646f05818d422c8c49df7fcca01f020ed4cd6502b6c4e969e41b7659386862bb",
      "networkId": 0,
      "chainId": 0
    }
  ]
}