{
  "hash": "0x248aa72797030211e2d3805d97ef4b8602594b3bf4932380b9f48fd6189420dc",
  "parentHash": "0xaa6ac64c428d79412495b6a21364b7d6cb33ed2a7d583e3e499d1d80e0c932b4",
  "number": 85211,
  "timestamp": 1439560109,
  "nonce": "0xca497c4cd69d9fc2",
  "difficulty": 2743738806986,
  "gasLimit": {
    "_hex": "0x2fefd8"
  },
  "gasUsed": {
    "_hex": "0x5208"
  },
  "miner": "0x6DE55b563cE6E319cCB403032Da3BE5Ad4ec4FcF",
  "extraData": "0x",
  "transactions": [
    {
      "hash": "0xb04a6cad9292ee6b2b978cd7c4f7785fa9d2ceacead0672934260a4b8377b3be",
      "blockHash": "0x248aa72797030211e2d3805d97ef4b8602594b3bf4932380b9f48fd6189420dc",
      "blockNumber": 85211,
      "transactionIndex": 0,
      "confirmations": null,
      "from": "0x739f8ab33a41B67952f16778e3CC6D2dEcC3a2d5",
      "gasPrice": {
        "_hex": "0xfe6a388135"
      },
      "gasLimit": {
        "_hex": "0x15f90"
      },
      "to": "0x0a2b7bfEAaE2E2a8E0b16566F7b707F968938a56",
      "value": {
        "_hex": "0x138b0ef059d264f400"
      },
      "nonce": 3,
      "data": "0x",
      "r": "0x00acd4dd21e649075960e83e14a9e9bb61ca1afc89f2aae874768fc081f1928c",
      "s": "0x0f994f09acf520b35d007f9859f70c5548d50d1c9f2c69747cf18acf346a7ce0",
      "v": 28,
      "creates": null,
      "raw": "0xf86d0385fe6a38813583015f90940a2b7bfeaae2e2a8e0b16566f7b707f968938a5689138b0ef059d264f400801c9facd4dd21e649075960e83e14a9e9bb61ca1afc89f2aae874768fc081f1928ca00f994f09acf520b35d007f9859f70c5548d50d1c9f2c69747cf18acf346a7ce0",
      "networkId": 0,
      "chainId": 0
    }
  ]
}