{
  "hash": "0xe4ba9ca9e22ec94147ace89273e8d66da9dc2a4d49acdf60016d7383760f6662",
  "parentHash": "0x7d87bb6b68828dffab1562652cf6101b4088c4be6a824793334dda10570815a1",
  "number": 109194,
  "timestamp": 1439952439,
  "nonce": "0xd75cc59cb4656d4b",
  "difficulty": 4460371647512,
  "gasLimit": {
    "_hex": "0x2fefd8"
  },
  "gasUsed": {
    "_hex": "0x5208"
  },
  "miner": "0x623d2411c3bb3340784155F9a688b0085251aB5c",
  "extraData": "0x",
  "transactions": [
    {
      "hash": "0xfcf2a52899a87f3ac348494199c5b4c5af0ef6ea1354b3d34ac66496fa8e6de5",
      "blockHash": "0xe4ba9ca9e22ec94147ace89273e8d66da9dc2a4d49acdf60016d7383760f6662",
      "blockNumber": 109194,
      "transactionIndex": 0,
      "confirmations": null,
      "from": "0x32Be343B94f860124dC4fEe278FDCBD38C102D88",
      "gasPrice": {
        "_hex": "0xce6903be1"
      },
      "gasLimit": {
        "_hex": "0x5208"
      },
      "to": "0x0d13f392404e2a5ef1cB11B44d7C0d47a69359Aa",
      "value": {
        "_hex": "0x2ae8bed834ece800"
      },
      "nonce": 1269,
      "data": "0x",
      "r": "0x67f49ddb78e80ee7e45118c5d89e51cc552bc0149fc244b6191a184e10ec75cd",
      "s": "0x1e97a39cd2bb2e82cac97d0eb1ed61edc1e3e441635b9cd2dc152bd3eee22779",
      "v": 28,
      "creates": null,
      "raw": "0xf86e8204f5850ce6903be1825208940d13f392404e2a5ef1cb11b44d7c0d47a69359aa882ae8bed834ece800801ca067f49ddb78e80ee7e45118c5d89e51cc552bc0149fc244b6191a184e10ec75cda01e97a39cd2bb2e82cac97d0eb1ed61edc1e3e441635b9cd2dc152bd3eee22779",
      "networkId": 0,
      "chainId": 0
    }
  ]
}