{
  "hash": "0xfad21432d88a4cccf5fa8b8032420a792d1c966fb4d3efa7697076cef1241966",
  "parentHash": "0xbcccbd8582db5aada7b3c3ee253f4f0145659181b4fab4909ee37f00f5fa3382",
  "number": 62183,
  "timestamp": 1439184595,
  "nonce": "0x874569eeda9e3a97",
  "difficulty": 1767708054050,
  "gasLimit": {
    "_hex": "0x2fefd8"
  },
  "gasUsed": {
    "_hex": "0x546c"
  },
  "miner": "0xF2d2AfF1320476cb8C6b607199D23175cc595693",
  "extraData": "0x476574682f76312e302e312f77696e646f77732f676f312e342e32",
  "transactions": [
    {
      "hash": "0x47c458e0a1df6fbe5b97f74db39803ffa2232880eeba0e1bc42257f41196cab4",
      "blockHash": "0xfad21432d88a4cccf5fa8b8032420a792d1c966fb4d3efa7697076cef1241966",
      "blockNumber": 62183,
      "transactionIndex": 0,
      "confirmations": null,
      "from": "0xbD51eE2Ea143D7b1D6b77E7E44bDD7Da12f485aC",
      "gasPrice": {
        "_hex": "0x110c8f7d8de"
      },
      "gasLimit": {
        "_hex": "0xc350"
      },
      "to": "0x2910543Af39abA0Cd09dBb2D50200b3E800A63D2",
      "value": {
        "_hex": "0x25f273933db5700000"
      },
      "nonce": 0,
      "data": "0x454e59504257313138",
      "r": "0xe14377498e4a3512fb41527ebbae46e211cb5f44f5e98621e6639227441630bd",
      "s": "0x68288469f954d91adc0a6d18deda9275861df5c470e8203560dd392eff352e98",
      "v": 28,
      "creates": null,
      "raw": "0xf87780860110c8f7d8de82c350942910543af39aba0cd09dbb2d50200b3e800a63d28925f273933db570000089454e595042573131381ca0e14377498e4a3512fb41527ebbae46e211cb5f44f5e98621e6639227441630bda068288469f954d91adc0a6d18deda9275861df5c470e8203560dd392eff352e98",
      "networkId": 0,
      "chainId": 0
    }
  ]
}