{
  "hash": "0x168ee7b53dffa4e516d75a0d9952c45bdfdeb211ae5e4444f4cb29d0bc7b7605",
  "parentHash": "0x3c04499a5d496d59bac6078a0600701fb5486cf7e480c4698af67f7866842e2a",
  "number": 61290,
  "timestamp": 1439170060,
  "nonce": "0x4229ddf64f9a1059",
  "difficulty": 1731164288515,
  "gasLimit": {
    "_hex": "0x2fefd8"
  },
  "gasUsed": {
    "_hex": "0x5208"
  },
  "miner": "0xf927a40C8B7F6E07c5af7FA2155B4864a4112B13",
  "extraData": "0x476574682f76312e302e312f6c696e75782f676f312e342e32",
  "transactions": [
    {
      "hash": "0x459a6b69cd8420ec7873e7722ca8338dc0b59d53c579f94834f3db8b89a19ab2",
      "blockHash": "0x168ee7b53dffa4e516d75a0d9952c45bdfdeb211ae5e4444f4cb29d0bc7b7605",
      "blockNumber": 61290,
      "transactionIndex": 0,
      "confirmations": null,
      "from": "0xE2beA3e7d349ab64EBD9873418e78912e13CD35f",
      "gasPrice": {
        "_hex": "0xcd717fb50"
      },
      "gasLimit": {
        "_hex": "0x15f90"
      },
      "to": "0xE2beA3e7d349ab64EBD9873418e78912e13CD35f",
      "value": {
        "_hex": "0xde0b6b3a7640000"
      },
      "nonce": 1,
      "data": "0x",
      "r": "0x8a89a8572df6bec1842c401827a1a44b6920939d8adaf94258d185ad8bb05be8",
      "s": "0x5d40d2921ba7640548595c22797c5809caaeac74c6909bc637fbaa27fc0b09f6",
      "v": 28,
      "creates": null,
      "raw": "0xf86d01850cd717fb5083015f9094e2bea3e7d349ab64ebd9873418e78912e13cd35f880de0b6b3a7640000801ca08a89a8572df6bec1842c401827a1a44b6920939d8adaf94258d185ad8bb05be8a05d40d2921ba7640548595c22797c5809caaeac74c6909bc637fbaa27fc0b09f6",
      "networkId": 0,
      "chainId": 0
    }
  ]
}