{
  "hash": "0x202f5632c6d59f05f3a3cc548bfa706b3e6ef3bcceb7c5c11f24c4400b9e8499",
  "parentHash": "0xb27df9f497a6ff23a2e57f83f83a32e84357b227ea70694cd7646c71afed44ae",
  "number": 46620,
  "timestamp": 1438926421,
  "nonce": "0xcce2b6f9ae9c6051",
  "difficulty": 1453224899279,
  "gasLimit": {
    "_hex": "0x6c4b"
  },
  "gasUsed": {
    "_hex": "0x5208"
  },
  "miner": "0x5F8F73E26CdF436f19Cb24C82F90A15AFe55b592",
  "extraData": "0x476574682f76312e302e312f77696e646f77732f676f312e342e32",
  "transactions": [
    {
      "hash": "0xb9d97b66190ddb44f0d80b238e139dc60cef929c26485452780ba4afe7bec493",
      "blockHash": "0x202f5632c6d59f05f3a3cc548bfa706b3e6ef3bcceb7c5c11f24c4400b9e8499",
      "blockNumber": 46620,
      "transactionIndex": 0,
      "confirmations": null,
      "from": "0x36d85Dc3683156e63Bf880A9fAb7788CF8143a27",
      "gasPrice": {
        "_hex": "0x45d964b800"
      },
      "gasLimit": {
        "_hex": "0x5208"
      },
      "to": "0xDE72E29D65eAabbD236b21c1d59a486c19AbDad5",
      "value": {
        "_hex": "0x56bc75e2d63100000"
      },
      "nonce": 0,
      "data": "0x",
      "r": "0x689ffb843f6b999c7e4ac9b82c5e8a710cd83898bb06ff89c06a27c0e543997a",
      "s": "0x473caf932b0087a66f2d6535154ebdfd009eff7816c3ad4ec800d435053ffbe3",
      "v": 28,
      "creates": null,
      "raw": "0xf86d808545d964b80082520894de72e29d65eaabbd236b21c1d59a486c19abdad589056bc75e2d63100000801ca0689ffb843f6b999c7e4ac9b82c5e8a710cd83898bb06ff89c06a27c0e543997aa0473caf932b0087a66f2d6535154ebdfd009eff7816c3ad4ec800d435053ffbe3",
      "networkId": 0,
      "chainId": 0
    }
  ]
}