{
  "hash": "0x17ac940450ce859814dd95f1d87d0286e821fa88e084169644d753d28855d6d7",
  "parentHash": "0x236157d5b387f31683de007ea7b2e2d91cdfe3db4fba613197cec090cd38230f",
  "number": 50088,
  "timestamp": 1438983772,
  "nonce": "0x42fec35cea8936e8",
  "difficulty": 1509015841817,
  "gasLimit": {
    "_hex": "0x4f603"
  },
  "gasUsed": {
    "_hex": "0xa674"
  },
  "miner": "0x4947190fcC30D3fb3a16233b259bFe6b3492339a",
  "extraData": "0x",
  "transactions": [
    {
      "hash": "0xa8bbd79eb1bbed0dc3fe057ee3d5c25e80e2fc94ef53943e2fb94f1a1033f0df",
      "blockHash": "0x17ac940450ce859814dd95f1d87d0286e821fa88e084169644d753d28855d6d7",
      "blockNumber": 50088,
      "transactionIndex": 0,
      "confirmations": null,
      "from": "0x1715dfcf43df151DB1538FcC13532432a7AC1314",
      "gasPrice": {
        "_hex": "0xd93799c71"
      },
      "gasLimit": {
        "_hex": "0x15f90"
      },
      "to": "0x2910543Af39abA0Cd09dBb2D50200b3E800A63D2",
      "value": {
        "_hex": "0x1f399b1438a100000"
      },
      "nonce": 1,
      "data": "0x454e33504b54584e38",
      "r": "0x6dddf3cbe17f0e0f9768562495872019033b6066d5b87cb3b9394fab6e83958a",
      "s": "0x0dd89c4d488cac66063b36a6e1793a40aeb2f873b6b8afeb3078d5be8adb5966",
      "v": 28,
      "creates": null,
      "raw": "0xf87701850d93799c7183015f90942910543af39aba0cd09dbb2d50200b3e800a63d28901f399b1438a10000089454e33504b54584e381ca06dddf3cbe17f0e0f9768562495872019033b6066d5b87cb3b9394fab6e83958aa00dd89c4d488cac66063b36a6e1793a40aeb2f873b6b8afeb3078d5be8adb5966",
      "networkId": 0,
      "chainId": 0
    },
    {
      "hash": "0xf77927183e7d641702e200d4e208847e18f91d7602e86161941966990400593a",
      "blockHash": "0x17ac940450ce859814dd95f1d87d0286e821fa88e084169644d753d28855d6d7",
      "blockNumber": 50088,
      "transactionIndex": 1,
      "confirmations": null,
      "from": "0x344C97aef984D928676f82C2BeDB1d159EFE3d7f",
      "gasPrice": {
        "_hex": "0xb68a0aa00"
      },
      "gasLimit": {
        "_hex": "0x5208"
      },
      "to": "0x3463f942ecbBfD18f1CF702576c99BC11F7cB1Ae",
      "value": {
        "_hex": "0x261ec58585482000"
      },
      "nonce": 1,
      "data": "0x",
      "r": "0xdcf0078f6ddabd41d10585af1394244f177a0549c0747b0106b6c1de52ddae18",
      "s": "0x4a697dccdbc1669417c7741cbef76a0cc8778d91044ac0b56e48ea0748943c0a",
      "v": 28,
      "creates": null,
      "raw": "0xf86c01850b68a0aa00825208943463f942ecbbfd18f1cf702576c99bc11f7cb1ae88261ec58585482000801ca0dcf0078f6ddabd41d10585af1394244f177a0549c0747b0106b6c1de52ddae18a04a697dccdbc1669417c7741cbef76a0cc8778d91044ac0b56e48ea0748943c0a",
      "networkId": 0,
      "chainId": 0
    }
  ]
}