{
  "hash": "0xa7fbee1f4a07d2a7d5f7b66a96f2dafb1cb7a9e731571ed53d1851af6ad5cbe9",
  "parentHash": "0x5d3f207afb7b6af7d27046a5fc0156ccf37173a79f7867efc8644c36600b91ca",
  "number": 76453,
  "timestamp": 1439420938,
  "nonce": "0x6224f572b57957e9",
  "difficulty": 2224268364933,
  "gasLimit": {
    "_hex": "0x2fefd8"
  },
  "gasUsed": {
    "_hex": "0x5208"
  },
  "miner": "0xa50ec0D39fa913E62f1Bae7074E6F36caA71855b",
  "extraData": "0xd783010001844765746887676f312e342e32856c696e7578",
  "transactions": [
    {
      "hash": "0xb4c43353b77da8bbb0188bc49b5c5bf1ca7ba685ae1edffab4eb14e9d1d92679",
      "blockHash": "0xa7fbee1f4a07d2a7d5f7b66a96f2dafb1cb7a9e731571ed53d1851af6ad5cbe9",
      "blockNumber": 76453,
      "transactionIndex": 0,
      "confirmations": null,
      "from": "0x249502491a53b217181420Cc4A6dE23a720636CA",
      "gasPrice": {
        "_hex": "0xcfa5a6122"
      },
      "gasLimit": {
        "_hex": "0x5208"
      },
      "to": "0x32Be343B94f860124dC4fEe278FDCBD38C102D88",
      "value": {
        "_hex": "0x6b482036356d280000"
      },
      "nonce": 5,
      "data": "0x",
      "r": "0xa139be2ad8892502946625c7af0c3194bc7bd99d15cb966879c9bd8e44ef52f7",
      "s": "0x06d28cea26aa8ecf225756120318de6e2b3d713b357de438bda1d27b2611142d",
      "v": 28,
      "creates": null,
      "raw": "0xf86d05850cfa5a61228252089432be343b94f860124dc4fee278fdcbd38c102d88896b482036356d280000801ca0a139be2ad8892502946625c7af0c3194bc7bd99d15cb966879c9bd8e44ef52f7a006d28cea26aa8ecf225756120318de6e2b3d713b357de438bda1d27b2611142d",
      "networkId": 0,
      "chainId": 0
    }
  ]
}