{
  "hash": "0xb3496e2b1400c41553e574f85bd952086cc0fb71dba2228530b0b8c5d0333a5f",
  "parentHash": "0xa2b7662a31486e796d39665ebad42bdde1d0571353a0b149c45743efa2408a1f",
  "number": 96762,
  "timestamp": 1439745206,
  "nonce": "0xb88e86d37e2d9fab",
  "difficulty": 3772616436651,
  "gasLimit": {
    "_hex": "0x2fefd8"
  },
  "gasUsed": {
    "_hex": "0x5208"
  },
  "miner": "0x790b8a3cE86E707ED0eD32bF89B3269692a23CC1",
  "extraData": "0xd783010001844765746887676f312e342e32856c696e7578",
  "transactions": [
    {
      "hash": "0xb2ca068e26780036fc999f14387e1bfcd44899947a190e56490b488650b977d7",
      "blockHash": "0xb3496e2b1400c41553e574f85bd952086cc0fb71dba2228530b0b8c5d0333a5f",
      "blockNumber": 96762,
      "transactionIndex": 0,
      "confirmations": null,
      "from": "0x43279854AaF8825a6d1fcCf056caF190Ab8a7b76",
      "gasPrice": {
        "_hex": "0xd9239ddf2"
      },
      "gasLimit": {
        "_hex": "0x5208"
      },
      "to": "0x32Be343B94f860124dC4fEe278FDCBD38C102D88",
      "value": {
        "_hex": "0xf366e74055c3200000"
      },
      "nonce": 13,
      "data": "0x",
      "r": "0x27e968f2658b193aa5363bbcc29c17a2ccc353b87744356aee9bb5d9549fed91",
      "s": "0x166335c23e3394c5dd3cce8ecc82ca9df9372759c10f033275a32cf49898d11d",
      "v": 28,
      "creates": null,
      "raw": "0xf86d0d850d9239ddf28252089432be343b94f860124dc4fee278fdcbd38c102d8889f366e74055c3200000801ca027e968f2658b193aa5363bbcc29c17a2ccc353b87744356aee9bb5d9549fed91a0166335c23e3394c5dd3cce8ecc82ca9df9372759c10f033275a32cf49898d11d",
      "networkId": 0,
      "chainId": 0
    }
  ]
}