{
  "hash": "0x1ddb23e2d10bf7b47513f1a5cbc8ee4f6e4a36cacd4feb3e8d44d13bd3d34474",
  "parentHash": "0x40d13b88787562faefeda85cf697526635c5633a218874fa0e9252b15ef29f4c",
  "number": 113122,
  "timestamp": 1440018260,
  "nonce": "0x295dba34103be360",
  "difficulty": 4480105746784,
  "gasLimit": {
    "_hex": "0x2fefd8"
  },
  "gasUsed": {
    "_hex": "0x5208"
  },
  "miner": "0xe6A7a1d47ff21B6321162AEA7C6CB457D5476Bca",
  "extraData": "0x476574682f76312e302e312d38326566323666362f6c696e75782f676f312e34",
  "transactions": [
    {
      "hash": "0x2cd6e33a4b6e33203b0b9e09e6f67c11385cdc95304f77df5f824496db2e9532",
      "blockHash": "0x1ddb23e2d10bf7b47513f1a5cbc8ee4f6e4a36cacd4feb3e8d44d13bd3d34474",
      "blockNumber": 113122,
      "transactionIndex": 0,
      "confirmations": null,
      "from": "0x475526af19ba007Bc39bA43c0946892035AA1B08",
      "gasPrice": {
        "_hex": "0xbdfd63e00"
      },
      "gasLimit": {
        "_hex": "0x5208"
      },
      "to": "0xCaf15532163DAb6d1a5Ab60D7C65277a16f446dd",
      "value": {
        "_hex": "0x8ac7230489e80000"
      },
      "nonce": 2,
      "data": "0x",
      "r": "0xd1bc1cd5e3268c8740e0996212bb96a52a142642320409b073223fc12600a3a9",
      "s": "0x2a84777cbae83a17454e03226b9a9b42ccc077a5ebeb0c370e32d722da12d369",
      "v": 27,
      "creates": null,
      "raw": "0xf86c02850bdfd63e0082520894caf15532163dab6d1a5ab60d7c65277a16f446dd888ac7230489e80000801ba0d1bc1cd5e3268c8740e0996212bb96a52a142642320409b073223fc12600a3a9a02a84777cbae83a17454e03226b9a9b42ccc077a5ebeb0c370e32d722da12d369",
      "networkId": 0,
      "chainId": 0
    }
  ]
}