{
  "hash": "0xe2d4220d7e84b049515b06c58234c04ef36506b01a055edddfc5d4ba7fe424f8",
  "parentHash": "0x48414cc85cd8ee7ad868fe6e35078978e74bb4df736ae8ab68416da1e5298efa",
  "number": 114068,
  "timestamp": 1440034384,
  "nonce": "0xda34b9c2208891a3",
  "difficulty": 4440401565984,
  "gasLimit": {
    "_hex": "0x2fefd8"
  },
  "gasUsed": {
    "_hex": "0x5208"
  },
  "miner": "0xe6A7a1d47ff21B6321162AEA7C6CB457D5476Bca",
  "extraData": "0x476574682f76312e302e312d38326566323666362f6c696e75782f676f312e34",
  "transactions": [
    {
      "hash": "0xe5b2b8c3f9a7d9ebaf36659876c453654648ba97d310a28317ce60332f8fcec6",
      "blockHash": "0xe2d4220d7e84b049515b06c58234c04ef36506b01a055edddfc5d4ba7fe424f8",
      "blockNumber": 114068,
      "transactionIndex": 0,
      "confirmations": null,
      "from": "0x5384c4223E73131DfefA94C3285cECe880883A09",
      "gasPrice": {
        "_hex": "0xd95b8cfc9"
      },
      "gasLimit": {
        "_hex": "0x5208"
      },
      "to": "0x32Be343B94f860124dC4fEe278FDCBD38C102D88",
      "value": {
        "_hex": "0x17da321ce653f30000"
      },
      "nonce": 0,
      "data": "0x",
      "r": "0x76af3c308ddf335a7154868442b402f7f47ea8dbbafd5d88df5716834357d5d4",
      "s": "0x3a8da3cda51fedf874ccaaef100ce17198b7287d8bd79532841e67138fbdacac",
      "v": 28,
      "creates": null,
      "raw": "0xf86d80850d95b8cfc98252089432be343b94f860124dc4fee278fdcbd38c102d888917da321ce653f30000801ca076af3c308ddf335a7154868442b402f7f47ea8dbbafd5d88df5716834357d5d4a03a8da3cda51fedf874ccaaef100ce17198b7287d8bd79532841e67138fbdacac",
      "networkId": 0,
      "chainId": 0
    }
  ]
}