{
  "hash": "0x8dca41dd0841c5bbdc632b44d15c8061071c71661e3c88f8ca2bd6cb23adbeca",
  "parentHash": "0x2f0322a620cafec5c91376ad6a3e104a577a32fed30f190768742ca95936c8dc",
  "number": 79073,
  "timestamp": 1439463977,
  "nonce": "0x3f02a6c30f10e422",
  "difficulty": 2316671220643,
  "gasLimit": {
    "_hex": "0x2fefd8"
  },
  "gasUsed": {
    "_hex": "0x5208"
  },
  "miner": "0x02dE7d35a60bf6A216411476040ec648668769D7",
  "extraData": "0x476574682f76312e302e312f77696e646f77732f676f312e342e32",
  "transactions": [
    {
      "hash": "0x1447ad505a526ab73088cb68b85805cbb62774c8c636c03632fe7ccb929aba38",
      "blockHash": "0x8dca41dd0841c5bbdc632b44d15c8061071c71661e3c88f8ca2bd6cb23adbeca",
      "blockNumber": 79073,
      "transactionIndex": 0,
      "confirmations": null,
      "from": "0xf2881e3e520bF84469Fa00a56449D357FB1af54A",
      "gasPrice": {
        "_hex": "0xd44c04355"
      },
      "gasLimit": {
        "_hex": "0x5208"
      },
      "to": "0x32Be343B94f860124dC4fEe278FDCBD38C102D88",
      "value": {
        "_hex": "0x49cfbb9818e614000"
      },
      "nonce": 4,
      "data": "0x",
      "r": "0x59b942f06d2b1ae7843fd245a597c534edfc5dde3c20ae619a02f67e1fd3b03c",
      "s": "0x3e633c2e688eb5bd02201e327b13be3d393784a21b7e9b9a36b718afd982d9df",
      "v": 27,
      "creates": null,
      "raw": "0xf86d04850d44c043558252089432be343b94f860124dc4fee278fdcbd38c102d8889049cfbb9818e614000801ba059b942f06d2b1ae7843fd245a597c534edfc5dde3c20ae619a02f67e1fd3b03ca03e633c2e688eb5bd02201e327b13be3d393784a21b7e9b9a36b718afd982d9df",
      "networkId": 0,
      "chainId": 0
    }
  ]
}