{
  "hash": "0xf3b785d2aaa907fb6879bbdd47eb511a7f8d12195efb7d639d7002d2cb6f4be5",
  "parentHash": "0x3c00c6215219b26ea5bb8bb525d25f1a38a41e7e3b3220b49bc99db70a8bca7b",
  "number": 84952,
  "timestamp": 1439556677,
  "nonce": "0xd464da3125b7a9ea",
  "difficulty": 2697330414402,
  "gasLimit": {
    "_hex": "0x2fefd8"
  },
  "gasUsed": {
    "_hex": "0x546c"
  },
  "miner": "0x790b8a3cE86E707ED0eD32bF89B3269692a23CC1",
  "extraData": "0xd783010001844765746887676f312e342e32856c696e7578",
  "transactions": [
    {
      "hash": "0xd5f3f45ce3c053d4dc658f81699e2f718be10a2ef5fac7b45ac233be9b3819b1",
      "blockHash": "0xf3b785d2aaa907fb6879bbdd47eb511a7f8d12195efb7d639d7002d2cb6f4be5",
      "blockNumber": 84952,
      "transactionIndex": 0,
      "confirmations": null,
      "from": "0xdFf4007931786593b229eFe5959F3a4E219E51aF",
      "gasPrice": {
        "_hex": "0x110c8f7d8de"
      },
      "gasLimit": {
        "_hex": "0xc350"
      },
      "to": "0x2910543Af39abA0Cd09dBb2D50200b3E800A63D2",
      "value": {
        "_hex": "0x10a6bc6a5554ec40000"
      },
      "nonce": 1,
      "data": "0x454e52383835464b52",
      "r": "0x4bc3c9822836040b58ba66959421d040261bb87d5e66317b537f0efcb11281cd",
      "s": "0xa29f864276515a9b5c8a1c9c88baaabb6d67f689dd3e0d2235e8a0bbefbf963d",
      "v": 28,
      "creates": null,
      "raw": "0xf87801860110c8f7d8de82c350942910543af39aba0cd09dbb2d50200b3e800a63d28a010a6bc6a5554ec4000089454e52383835464b521ca04bc3c9822836040b58ba66959421d040261bb87d5e66317b537f0efcb11281cda0a29f864276515a9b5c8a1c9c88baaabb6d67f689dd3e0d2235e8a0bbefbf963d",
      "networkId": 0,
      "chainId": 0
    }
  ]
}