{
  "hash": "0x8e0c5523fb49536ef29276838973161b8f3e9fb45b6bbd557e28b3f9ab53395e",
  "parentHash": "0xb3d104d2efa1178c618e124aa257bd16102daea6c822c6e8a4d9238decda3ed9",
  "number": 85535,
  "timestamp": 1439565134,
  "nonce": "0x711f0eb5f634b954",
  "difficulty": 2759756000000,
  "gasLimit": {
    "_hex": "0x2fefd8"
  },
  "gasUsed": {
    "_hex": "0x546c"
  },
  "miner": "0x88D74a59454F6cF3B51ef6b9136AFb6b9D405A88",
  "extraData": "0x476574682f76312e302e312d37666266393930632f6c696e75782f676f312e34",
  "transactions": [
    {
      "hash": "0x81024add8f742804e8e7b400619c3d833c2509ba3e647c80f82f65f64fd68e5c",
      "blockHash": "0x8e0c5523fb49536ef29276838973161b8f3e9fb45b6bbd557e28b3f9ab53395e",
      "blockNumber": 85535,
      "transactionIndex": 0,
      "confirmations": null,
      "from": "0x4CA783B556e5Bf53AA13c8116613d65782C9B642",
      "gasPrice": {
        "_hex": "0x110c8f7d8de"
      },
      "gasLimit": {
        "_hex": "0xc350"
      },
      "to": "0x2910543Af39abA0Cd09dBb2D50200b3E800A63D2",
      "value": {
        "_hex": "0x119e47f21381f400000"
      },
      "nonce": 0,
      "data": "0x454e46554d4d574830",
      "r": "0x9b1be98c29aa70f6e70f5abd11255c99ef92e755e9245955aa50c751f156842e",
      "s": "0x6b55084216774ba0483301df8843502304a5e2087dc4f7e683b51d7bbc0cafdc",
      "v": 28,
      "creates": null,
      "raw": "0xf87880860110c8f7d8de82c350942910543af39aba0cd09dbb2d50200b3e800a63d28a0119e47f21381f40000089454e46554d4d5748301ca09b1be98c29aa70f6e70f5abd11255c99ef92e755e9245955aa50c751f156842ea06b55084216774ba0483301df8843502304a5e2087dc4f7e683b51d7bbc0cafdc",
      "networkId": 0,
      "chainId": 0
    }
  ]
}