{
  "hash": "0x6d293f7012fa54905729c8549e98ebd09dec61f871fd38a6acd9625f6b1239f8",
  "parentHash": "0x20c6e7d9287062c152a5fb9f0509235f5458fb6ae206df38301e45e1e35c76e8",
  "number": 117882,
  "timestamp": 1440116904,
  "nonce": "0xba10fb3c2702e25d",
  "difficulty": 4335568090275,
  "gasLimit": {
    "_hex": "0x2fefd8"
  },
  "gasUsed": {
    "_hex": "0x5208"
  },
  "miner": "0xe6A7a1d47ff21B6321162AEA7C6CB457D5476Bca",
  "extraData": "0xd783010002844765746887676f312e342e32856c696e7578",
  "transactions": [
    {
      "hash": "0xd4fa0ad771d0b588e141f7dc22fa5f1953e194f71b3c2eb71902f5596f35a83c",
      "blockHash": "0x6d293f7012fa54905729c8549e98ebd09dec61f871fd38a6acd9625f6b1239f8",
      "blockNumber": 117882,
      "transactionIndex": 0,
      "confirmations": null,
      "from": "0x211D45933Ef88c3D7aD0120942CF50ab506e618F",
      "gasPrice": {
        "_hex": "0xba43b7400"
      },
      "gasLimit": {
        "_hex": "0x5208"
      },
      "to": "0x32Be343B94f860124dC4fEe278FDCBD38C102D88",
      "value": {
        "_hex": "0x265a8a4e3e264c00"
      },
      "nonce": 13,
      "data": "0x",
      "r": "0x47b6aa997aea7f2799f5f01376af09f641e041a85c4e227d5a99f44275e2a62b",
      "s": "0x447c2f6851a2a7f38a229ebbda33a6ba7e3140fc545fd5035bd59c6ab705a1ce",
      "v": 28,
      "creates": null,
      "raw": "0xf86c0d850ba43b74008252089432be343b94f860124dc4fee278fdcbd38c102d8888265a8a4e3e264c00801ca047b6aa997aea7f2799f5f01376af09f641e041a85c4e227d5a99f44275e2a62ba0447c2f6851a2a7f38a229ebbda33a6ba7e3140fc545fd5035bd59c6ab705a1ce",
      "networkId": 0,
      "chainId": 0
    }
  ]
}