{
  "hash": "0x645716c409b4830af9494a6038263cfa3dcd6b03a445d6ee0285c54c6aaf6a98",
  "parentHash": "0x6143fc878a0b3e3c5d1e05f5c989ed6684b7491bc6afe1b4c8fc0d81070b467b",
  "number": 71275,
  "timestamp": 1439333559,
  "nonce": "0x761bfbc6e2f8f98b",
  "difficulty": 2152956846939,
  "gasLimit": {
    "_hex": "0x2fefd8"
  },
  "gasUsed": {
    "_hex": "0x100c9"
  },
  "miner": "0xe6A7a1d47ff21B6321162AEA7C6CB457D5476Bca",
  "extraData": "0x476574682f76312e302e312d38326566323666362f6c696e75782f676f312e34",
  "transactions": [
    {
      "hash": "0xa5f08d0f6307089eed9f69c61c8056f2193efa6360fc041ac6225d698b6461f0",
      "blockHash": "0x645716c409b4830af9494a6038263cfa3dcd6b03a445d6ee0285c54c6aaf6a98",
      "blockNumber": 71275,
      "transactionIndex": 0,
      "confirmations": null,
      "from": "0x2910543Af39abA0Cd09dBb2D50200b3E800A63D2",
      "gasPrice": {
        "_hex": "0xdd6bbd466"
      },
      "gasLimit": {
        "_hex": "0x5208"
      },
      "to": "0x5c59E28366c83f1d262567c1c529185146e68b16",
      "value": {
        "_hex": "0x8ab55f8b52078000"
      },
      "nonce": 268,
      "data": "0x",
      "r": "0x22065b19b0fd12f3312256c41ac7cb99be62748bfdcbbcf4eda99d9d2ea4a0ad",
      "s": "0x093d4849446ee52513c0f8757fce8d3f35b8627c25a5b76b15f638e72c7ea6c8",
      "v": 28,
      "creates": null,
      "raw": "0xf86e82010c850dd6bbd466825208945c59e28366c83f1d262567c1c529185146e68b16888ab55f8b52078000801ca022065b19b0fd12f3312256c41ac7cb99be62748bfdcbbcf4eda99d9d2ea4a0ada0093d4849446ee52513c0f8757fce8d3f35b8627c25a5b76b15f638e72c7ea6c8",
      "networkId": 0,
      "chainId": 0
    },
    {
      "hash": "0x058c9873be8e0e4f9a07b1f0cb8b74a03378369f9c59d694ca9fd4bff3c83bc8",
      "blockHash": "0x645716c409b4830af9494a6038263cfa3dcd6b03a445d6ee0285c54c6aaf6a98",
      "blockNumber": 71275,
      "transactionIndex": 1,
      "confirmations": null,
      "from": "0x17580B766f7453525ca4C6A88b01b50570EA088C",
      "gasPrice": {
        "_hex": "0xd9a962efb"
      },
      "gasLimit": {
        "_hex": "0x61a80"
      },
      "to": "0x5Fe5B7546D1628f7348B023A0393de1FC825A4fD",
      "value": {
        "_hex": "0x3782dace9d900000"
      },
      "nonce": 140,
      "data": "0xb595b8b50000000000000000000000000000000000000000000000000000000000000001",
      "r": "0x8570b1c3f6affacfda0f41b8a579f01ee7f62372dd4a7f6cf43f23d936d0ba59",
      "s": "0x66f8aa813dedc55aa1d0059b5189eb2482e5fd81f8ab0cb8d9e46b15a6582e35",
      "v": 28,
      "creates": null,
      "raw": "0xf892818c850d9a962efb83061a80945fe5b7546d1628f7348b023a0393de1fc825a4fd883782dace9d900000a4b595b8b500000000000000000000000000000000000000000000000000000000000000011ca08570b1c3f6affacfda0f41b8a579f01ee7f62372dd4a7f6cf43f23d936d0ba59a066f8aa813dedc55aa1d0059b5189eb2482e5fd81f8ab0cb8d9e46b15a6582e35",
      "networkId": 0,
      "chainId": 0
    }
  ]
}