{
  "hash": "0xd64ecc888f373f703f9663d8752d8574b9bc43d5ee1284aaa46195c93eb01fa5",
  "parentHash": "0x4929de0066b1911710c46a01ff4f53bc1041d23d2011a50e8e05e06684459719",
  "number": 74488,
  "timestamp": 1439386816,
  "nonce": "0x28f37779c5c1b6de",
  "difficulty": 2215033996065,
  "gasLimit": {
    "_hex": "0x2fefd8"
  },
  "gasUsed": {
    "_hex": "0xe105"
  },
  "miner": "0xe6A7a1d47ff21B6321162AEA7C6CB457D5476Bca",
  "extraData": "0x476574682f76312e302e312d38326566323666362f6c696e75782f676f312e34",
  "transactions": [
    {
      "hash": "0x3d723ce5b8b4d177d3a556dd665232e4cf8788c2519563c6c8ace1bebe1622fe",
      "blockHash": "0xd64ecc888f373f703f9663d8752d8574b9bc43d5ee1284aaa46195c93eb01fa5",
      "blockNumber": 74488,
      "transactionIndex": 0,
      "confirmations": null,
      "from": "0x0037ce3d4B7f8729C8607D8D0248252Be68202c0",
      "gasPrice": {
        "_hex": "0xda16666b2"
      },
      "gasLimit": {
        "_hex": "0x15f90"
      },
      "to": "0x8B454d830feF179e66206840F8F3D1d83bC32b17",
      "value": {
        "_hex": "0xde0b6b3a7640000"
      },
      "nonce": 9,
      "data": "0x",
      "r": "0x5f4ef84e6561c929d391ac10bc3de51ea62627a0e0b9baf8478b2601bd6ec794",
      "s": "0x27a1110026124a1316272739aa14997b5d9eb088b89d85f01898ef7459725dde",
      "v": 27,
      "creates": null,
      "raw": "0xf86d09850da16666b283015f90948b454d830fef179e66206840f8f3d1d83bc32b17880de0b6b3a7640000801ba05f4ef84e6561c929d391ac10bc3de51ea62627a0e0b9baf8478b2601bd6ec794a027a1110026124a1316272739aa14997b5d9eb088b89d85f01898ef7459725dde",
      "networkId": 0,
      "chainId": 0
    },
    {
      "hash": "0x2ff142848432e9cca3ad81f5a7e535e10737b0e00f1eb935b7f799e1bb7e2375",
      "blockHash": "0xd64ecc888f373f703f9663d8752d8574b9bc43d5ee1284aaa46195c93eb01fa5",
      "blockNumber": 74488,
      "transactionIndex": 1,
      "confirmations": null,
      "from": "0x7c56d94ebECcb769524379C450873519a9d805FF",
      "gasPrice": {
        "_hex": "0xba43b7400"
      },
      "gasLimit": {
        "_hex": "0x1dd23"
      },
      "to": "0xde0B295669a9FD93d5F28D9Ec85E40f4cb697BAe",
      "value": {
        "_hex": "0x0"
      },
      "nonce": 4,
      "data": "0xf00d4b5d0000000000000000000000003fb1cd2cd96c6d5c0b5eb3322d807b34482481d4000000000000000000000000c2c2c26961e5560081003bb157549916b21744db",
      "r": "0xad0cb77812a05ba39fd1a8e2a6dbf38811e3406acf025d958975a0e1e7a786d7",
      "s": "0x2ecafc570aa360d22f7e32a9538df7ea2337ecadeeef447ec4893cd60fe3f1a1",
      "v": 27,
      "creates": null,
      "raw": "0xf8aa04850ba43b74008301dd2394de0b295669a9fd93d5f28d9ec85e40f4cb697bae80b844f00d4b5d0000000000000000000000003fb1cd2cd96c6d5c0b5eb3322d807b34482481d4000000000000000000000000c2c2c26961e5560081003bb157549916b21744db1ba0ad0cb77812a05ba39fd1a8e2a6dbf38811e3406acf025d958975a0e1e7a786d7a02ecafc570aa360d22f7e32a9538df7ea2337ecadeeef447ec4893cd60fe3f1a1",
      "networkId": 0,
      "chainId": 0
    }
  ]
}