{
  "hash": "0xb2941c957cf27567ea055fb1afbca5e2b8124bb8730cf452cf07e771c224e77a",
  "parentHash": "0xffaa9732a764e77e815d38c5a8d3bf1af84cf89e3a15a71970d24a23c7b7cac4",
  "number": 81987,
  "timestamp": 1439511368,
  "nonce": "0x745a0520f511450d",
  "difficulty": 2408120249794,
  "gasLimit": {
    "_hex": "0x2fefd8"
  },
  "gasUsed": {
    "_hex": "0x5208"
  },
  "miner": "0xe6A7a1d47ff21B6321162AEA7C6CB457D5476Bca",
  "extraData": "0x476574682f76312e302e312d38326566323666362f6c696e75782f676f312e34",
  "transactions": [
    {
      "hash": "0x430797c846a0098df7625cf76dec146431051f913080452bc9ff387b0d9ff3ed",
      "blockHash": "0xb2941c957cf27567ea055fb1afbca5e2b8124bb8730cf452cf07e771c224e77a",
      "blockNumber": 81987,
      "transactionIndex": 0,
      "confirmations": null,
      "from": "0x0617194e49BaAD419B57FB8EBba265E417362835",
      "gasPrice": {
        "_hex": "0xdb3cf6d77"
      },
      "gasLimit": {
        "_hex": "0x15f90"
      },
      "to": "0x0F87Fb507513e749081E34373c84E95e85b5c057",
      "value": {
        "_hex": "0x1988fe4052b80000"
      },
      "nonce": 2,
      "data": "0x",
      "r": "0xf915dca78bb7ad722bf2551cf339fcebba75623f763d4f66e2aaa4b91b1823de",
      "s": "0x1b86e25959b71b5203a0098d3787c17beabf291c7baeb73aa62f6eedde9ca161",
      "v": 27,
      "creates": null,
      "raw": "0xf86d02850db3cf6d7783015f90940f87fb507513e749081e34373c84e95e85b5c057881988fe4052b80000801ba0f915dca78bb7ad722bf2551cf339fcebba75623f763d4f66e2aaa4b91b1823dea01b86e25959b71b5203a0098d3787c17beabf291c7baeb73aa62f6eedde9ca161",
      "networkId": 0,
      "chainId": 0
    }
  ]
}