{
  "hash": "0x86723e37ff5260e16a6dc466a1a91d79f3ed033a0881e52bc728ad9db45228bd",
  "parentHash": "0xd3c87ab9b120a3bfe91e70e89b9ac1e52c6aee23f29b58bec029973a6dd8d00f",
  "number": 74257,
  "timestamp": 1439383163,
  "nonce": "0x68a43b5ad89b4434",
  "difficulty": 2211852600133,
  "gasLimit": {
    "_hex": "0x2fefd8"
  },
  "gasUsed": {
    "_hex": "0x5208"
  },
  "miner": "0x8B454d830feF179e66206840F8F3D1d83bC32b17",
  "extraData": "0x476574682f76312e302e312f77696e646f77732f676f312e342e32",
  "transactions": [
    {
      "hash": "0x97063ce26e4f97dca66a52648685aa4874998610a175feed6faf3f1edba4173f",
      "blockHash": "0x86723e37ff5260e16a6dc466a1a91d79f3ed033a0881e52bc728ad9db45228bd",
      "blockNumber": 74257,
      "transactionIndex": 0,
      "confirmations": null,
      "from": "0xe6A7a1d47ff21B6321162AEA7C6CB457D5476Bca",
      "gasPrice": {
        "_hex": "0xcc754e355"
      },
      "gasLimit": {
        "_hex": "0x55f0"
      },
      "to": "0xDD6f935a791F13ce18c10310c688E09cfc4a5d60",
      "value": {
        "_hex": "0x6b77001cbf84ffd0"
      },
      "nonce": 850,
      "data": "0x",
      "r": "0x795dd37c1ad2af6fd24f8a874e7de524f9e49323ad5853d4652f934ee2c33f67",
      "s": "0x27e820117f1e812bcd11d49880d8787790899f1eeb6b644eb5050142e70650e3",
      "v": 27,
      "creates": null,
      "raw": "0xf86e820352850cc754e3558255f094dd6f935a791f13ce18c10310c688e09cfc4a5d60886b77001cbf84ffd0801ba0795dd37c1ad2af6fd24f8a874e7de524f9e49323ad5853d4652f934ee2c33f67a027e820117f1e812bcd11d49880d8787790899f1eeb6b644eb5050142e70650e3",
      "networkId": 0,
      "chainId": 0
    }
  ]
}