{
  "hash": "0x05163b63a9b4e9b1d7f4f909a244bbbeb432b53c60bf7f19f718d00a00c62d3c",
  "parentHash": "0x29627d02e3afa510b4315d947501e39eb07e91790d403c0060d80c92371cf9e1",
  "number": 99307,
  "timestamp": 1439787813,
  "nonce": "0xe909547102f79eb2",
  "difficulty": 3795488197427,
  "gasLimit": {
    "_hex": "0x2fefd8"
  },
  "gasUsed": {
    "_hex": "0xa410"
  },
  "miner": "0xe6A7a1d47ff21B6321162AEA7C6CB457D5476Bca",
  "extraData": "0x476574682f76312e302e312d38326566323666362f6c696e75782f676f312e34",
  "transactions": [
    {
      "hash": "0x0627a33ea74d3cf9bb884d265b186cc1d8515533f00cef61d094bb73d57a43f1",
      "blockHash": "0x05163b63a9b4e9b1d7f4f909a244bbbeb432b53c60bf7f19f718d00a00c62d3c",
      "blockNumber": 99307,
      "transactionIndex": 0,
      "confirmations": null,
      "from": "0xf8a58969d2FbBf009542432480fe2D49037Ed976",
      "gasPrice": {
        "_hex": "0xd87e8d576"
      },
      "gasLimit": {
        "_hex": "0x5208"
      },
      "to": "0x32Be343B94f860124dC4fEe278FDCBD38C102D88",
      "value": {
        "_hex": "0x6f015fa862983c00"
      },
      "nonce": 0,
      "data": "0x",
      "r": "0x43865018cd8cb51a99dc5b6c0524f468db58da590f2b466ef9a6f1ff9d327d3e",
      "s": "0x74e9891e5fea9e9f8574c0396de744b6181604742d8fe453b1deedb8459927d2",
      "v": 28,
      "creates": null,
      "raw": "0xf86c80850d87e8d5768252089432be343b94f860124dc4fee278fdcbd38c102d88886f015fa862983c00801ca043865018cd8cb51a99dc5b6c0524f468db58da590f2b466ef9a6f1ff9d327d3ea074e9891e5fea9e9f8574c0396de744b6181604742d8fe453b1deedb8459927d2",
      "networkId": 0,
      "chainId": 0
    },
    {
      "hash": "0xe94b67306d28aba0a96541cc582097c6316b6316fb502d2ae819b67c36e4815d",
      "blockHash": "0x05163b63a9b4e9b1d7f4f909a244bbbeb432b53c60bf7f19f718d00a00c62d3c",
      "blockNumber": 99307,
      "transactionIndex": 1,
      "confirmations": null,
      "from": "0xAa37b1200B856ce897a85b9C2b11a8213095Bf2a",
      "gasPrice": {
        "_hex": "0xd87e8d576"
      },
      "gasLimit": {
        "_hex": "0x5208"
      },
      "to": "0x32Be343B94f860124dC4fEe278FDCBD38C102D88",
      "value": {
        "_hex": "0xf1c1f44bca53c00"
      },
      "nonce": 0,
      "data": "0x",
      "r": "0x00a43bd7de8d3673dd5ac9831b8b5932726b87878a04ba8780f43c185ef01c97",
      "s": "0x05f57071a41f4d1430c65748dbe36ad61a151cdee7e263aff73ad8d3d8b6df44",
      "v": 28,
      "creates": null,
      "raw": "0xf86b80850d87e8d5768252089432be343b94f860124dc4fee278fdcbd38c102d88880f1c1f44bca53c00801c9fa43bd7de8d3673dd5ac9831b8b5932726b87878a04ba8780f43c185ef01c97a005f57071a41f4d1430c65748dbe36ad61a151cdee7e263aff73ad8d3d8b6df44",
      "networkId": 0,
      "chainId": 0
    }
  ]
}