{
  "hash": "0xb9288ed9186ef009e6ce0c5bb38c8445388b6962676f8e7fc8895892b92a48f4",
  "parentHash": "0x892ed8c32e0c0bd2506fe9b73ccb78e57dde1bdd67eb31906d569f90d50ec106",
  "number": 68281,
  "timestamp": 1439285281,
  "nonce": "0x2efcb0080faa6358",
  "difficulty": 1993816505557,
  "gasLimit": {
    "_hex": "0x2fefd8"
  },
  "gasUsed": {
    "_hex": "0x5208"
  },
  "miner": "0x67B3F11a0e02DBe28208D4F85528D08Cd7C0AA75",
  "extraData": "0x",
  "transactions": [
    {
      "hash": "0x27aba60305ea9fc97515ed81c35e6df78ce6e10214ea7ffbdaaa1cf8cd954480",
      "blockHash": "0xb9288ed9186ef009e6ce0c5bb38c8445388b6962676f8e7fc8895892b92a48f4",
      "blockNumber": 68281,
      "transactionIndex": 0,
      "confirmations": null,
      "from": "0x6747f922385c9a6F9cfDf095F34345257DD597bE",
      "gasPrice": {
        "_hex": "0xba43b7400"
      },
      "gasLimit": {
        "_hex": "0x5208"
      },
      "to": "0x7EB7b469D1D930518225f7e9f4De41250601afbd",
      "value": {
        "_hex": "0x1fcbfa42bd6000"
      },
      "nonce": 45,
      "data": "0x",
      "r": "0x379f22b668ee2bb9520c4c052e27536515e5ba150f71982124166c2b51b2525c",
      "s": "0x1cb47b2305f8e6fe213ef7f47ad6c68a90a9e2e451832c13d24a3b39cae8bb95",
      "v": 28,
      "creates": null,
      "raw": "0xf86b2d850ba43b7400825208947eb7b469d1d930518225f7e9f4de41250601afbd871fcbfa42bd6000801ca0379f22b668ee2bb9520c4c052e27536515e5ba150f71982124166c2b51b2525ca01cb47b2305f8e6fe213ef7f47ad6c68a90a9e2e451832c13d24a3b39cae8bb95",
      "networkId": 0,
      "chainId": 0
    }
  ]
}