{
  "hash": "0xe90f026dcb11e142e0fa9723a729324d1698bf43e2eaac97af06e4ce01c02bc0",
  "parentHash": "0x6760f3eb5d906418d1b97f7c9baa5a3fc8520f6054120c2b0e435457b123429d",
  "number": 99158,
  "timestamp": 1439785382,
  "nonce": "0x8aedafc1bae9cda3",
  "difficulty": 3804833428977,
  "gasLimit": {
    "_hex": "0x2fefd8"
  },
  "gasUsed": {
    "_hex": "0xf618"
  },
  "miner": "0xf927a40C8B7F6E07c5af7FA2155B4864a4112B13",
  "extraData": "0x",
  "transactions": [
    {
      "hash": "0x2a8862468ab6632a915a0b03ff3b478cee6a4e2b04f4badbb7155f08d2d99e0f",
      "blockHash": "0xe90f026dcb11e142e0fa9723a729324d1698bf43e2eaac97af06e4ce01c02bc0",
      "blockNumber": 99158,
      "transactionIndex": 0,
      "confirmations": null,
      "from": "0xf64998300727C2484E0E15602f9f49f2654f604e",
      "gasPrice": {
        "_hex": "0xd8bfdf1e5"
      },
      "gasLimit": {
        "_hex": "0x5208"
      },
      "to": "0x32Be343B94f860124dC4fEe278FDCBD38C102D88",
      "value": {
        "_hex": "0x6c870963ca0d4c0000"
      },
      "nonce": 2,
      "data": "0x",
      "r": "0xc1ecacb10e6fb6eaef85336cf592ac0904fccf0d62211e8878d854b3cec62721",
      "s": "0x203ca64ba06b570e069f66830d10482daded2d968fae89767a99997bbba94002",
      "v": 28,
      "creates": null,
      "raw": "0xf86d02850d8bfdf1e58252089432be343b94f860124dc4fee278fdcbd38c102d88896c870963ca0d4c0000801ca0c1ecacb10e6fb6eaef85336cf592ac0904fccf0d62211e8878d854b3cec62721a0203ca64ba06b570e069f66830d10482daded2d968fae89767a99997bbba94002",
      "networkId": 0,
      "chainId": 0
    },
    {
      "hash": "0x156a2c8259b96ec4f2253d64eaa3667434c7daa23683852cd1d38ca38d1b7d92",
      "blockHash": "0xe90f026dcb11e142e0fa9723a729324d1698bf43e2eaac97af06e4ce01c02bc0",
      "blockNumber": 99158,
      "transactionIndex": 1,
      "confirmations": null,
      "from": "0x7B81Dc9CE21e4bcA988509595a1d4673553113Cd",
      "gasPrice": {
        "_hex": "0xd8bfdf1e5"
      },
      "gasLimit": {
        "_hex": "0x5208"
      },
      "to": "0x32Be343B94f860124dC4fEe278FDCBD38C102D88",
      "value": {
        "_hex": "0x377e77354f5c4c00"
      },
      "nonce": 0,
      "data": "0x",
      "r": "0x039480b09e5a653077ae5877848350aa315a128db54ee1f2286cf472942e11e4",
      "s": "0x78c1f42e8e31b03320e9313e312f3c9c94a7f4f544f2ef72151dd36f6f3b0dc6",
      "v": 27,
      "creates": null,
      "raw": "0xf86c80850d8bfdf1e58252089432be343b94f860124dc4fee278fdcbd38c102d8888377e77354f5c4c00801ba0039480b09e5a653077ae5877848350aa315a128db54ee1f2286cf472942e11e4a078c1f42e8e31b03320e9313e312f3c9c94a7f4f544f2ef72151dd36f6f3b0dc6",
      "networkId": 0,
      "chainId": 0
    },
    {
      "hash": "0xd3d1a666374f0fdca0741184ad248dab134f919ca3af3754de71069535227050",
      "blockHash": "0xe90f026dcb11e142e0fa9723a729324d1698bf43e2eaac97af06e4ce01c02bc0",
      "blockNumber": 99158,
      "transactionIndex": 2,
      "confirmations": null,
      "from": "0x645B979F8ce622236DB26feB803455d40C328615",
      "gasPrice": {
        "_hex": "0xd8bfdf1e5"
      },
      "gasLimit": {
        "_hex": "0x5208"
      },
      "to": "0x32Be343B94f860124dC4fEe278FDCBD38C102D88",
      "value": {
        "_hex": "0x6ec0415b479fc00"
      },
      "nonce": 6,
      "data": "0x",
      "r": "0xd5104beeb79189c52595be9ac4aa000829affff0cd07e34518c28c98cfbae8df",
      "s": "0x38e3e3681c74b562020e1739adeaeb161fe98eef62a835a6377263cf9956c9bc",
      "v": 28,
      "creates": null,
      "raw": "0xf86c06850d8bfdf1e58252089432be343b94f860124dc4fee278fdcbd38c102d888806ec0415b479fc00801ca0d5104beeb79189c52595be9ac4aa000829affff0cd07e34518c28c98cfbae8dfa038e3e3681c74b562020e1739adeaeb161fe98eef62a835a6377263cf9956c9bc",
      "networkId": 0,
      "chainId": 0
    }
  ]
}