{
  "hash": "0xa201c3623e388c35bd680b290d3dfe8ec65d74e5d37d5766b24588c180099332",
  "parentHash": "0x48a057786ec1f979f79bd0ccb9865791936e0378b4ea5b4ce4200c68efbff892",
  "number": 105411,
  "timestamp": 1439887146,
  "nonce": "0x1c74917f14dd4f92",
  "difficulty": 4369667699760,
  "gasLimit": {
    "_hex": "0x2fefd8"
  },
  "gasUsed": {
    "_hex": "0x5208"
  },
  "miner": "0xeB1325C8D9d3ea8D74aC11F4B00F1B2367686319",
  "extraData": "0x",
  "transactions": [
    {
      "hash": "0x1089a0699898150a8f664273d59bbad73562102e19b8deb8b03ae04a09c05b01",
      "blockHash": "0xa201c3623e388c35bd680b290d3dfe8ec65d74e5d37d5766b24588c180099332",
      "blockNumber": 105411,
      "transactionIndex": 0,
      "confirmations": null,
      "from": "0xE921770D00ff942284b8f101b71C029ecE92DA53",
      "gasPrice": {
        "_hex": "0xe02c5697f"
      },
      "gasLimit": {
        "_hex": "0x5208"
      },
      "to": "0x32Be343B94f860124dC4fEe278FDCBD38C102D88",
      "value": {
        "_hex": "0x64518c94559170000"
      },
      "nonce": 4,
      "data": "0x",
      "r": "0xcd9af43ac2ca382bd40eb268fd7772e5baf9f8bddee0306c6b66f02fa2a0d1e6",
      "s": "0x209e0d1bbb7df9eb1decf83cc73e7bce74c3dc980104685e780a05a539b6e0d9",
      "v": 28,
      "creates": null,
      "raw": "0xf86d04850e02c5697f8252089432be343b94f860124dc4fee278fdcbd38c102d8889064518c94559170000801ca0cd9af43ac2ca382bd40eb268fd7772e5baf9f8bddee0306c6b66f02fa2a0d1e6a0209e0d1bbb7df9eb1decf83cc73e7bce74c3dc980104685e780a05a539b6e0d9",
      "networkId": 0,
      "chainId": 0
    }
  ]
}