{
  "hash": "0x7d82e7c4d0da532d44b720c0a822d7c6b913e91ad8edd21e9000a7e4c972f46d",
  "parentHash": "0x3411626b2bdea39f60d9a2f495bc12c0e6d3898197b8c202573ccd1f9cc4be70",
  "number": 75192,
  "timestamp": 1439399173,
  "nonce": "0x739761fba053609a",
  "difficulty": 2191183129637,
  "gasLimit": {
    "_hex": "0x2fefd8"
  },
  "gasUsed": {
    "_hex": "0xe1a7"
  },
  "miner": "0x580992B51e3925e23280EfB93d3047C82f17E038",
  "extraData": "0x476574682f76312e302e312f6c696e75782f676f312e342e32",
  "transactions": [
    {
      "hash": "0x6d55d39d3a2ab525a6da3140283a7dba16b86cdda41a30ac32a922f9d1c7347a",
      "blockHash": "0x7d82e7c4d0da532d44b720c0a822d7c6b913e91ad8edd21e9000a7e4c972f46d",
      "blockNumber": 75192,
      "transactionIndex": 0,
      "confirmations": null,
      "from": "0x326Be8F71bFb0379f989aAB1CC1fE37f0a771f60",
      "gasPrice": {
        "_hex": "0x10949fd11f4"
      },
      "gasLimit": {
        "_hex": "0x493e0"
      },
      "to": "0xD79B4C6791784184e2755B2fC1659eaaB0f80456",
      "value": {
        "_hex": "0xde0b6b3a7640000"
      },
      "nonce": 84,
      "data": "0x8d2161860000000000000000000000000000000000000000000000000000000000000080c86267c619b0fccda3e5190d8c0a3fc50731bb52d5cf5977fe656057b1304188",
      "r": "0x5d1a23f9b2b9c4063fb07b1d42ced40c6fd6167453b8bb5fede6d8755dac9c48",
      "s": "0x48ea2c39a328f18aa06e8fa2cc919969faa2a230b5066df48f901e9c83b23a5f",
      "v": 28,
      "creates": null,
      "raw": "0xf8b35486010949fd11f4830493e094d79b4c6791784184e2755b2fc1659eaab0f80456880de0b6b3a7640000b8448d2161860000000000000000000000000000000000000000000000000000000000000080c86267c619b0fccda3e5190d8c0a3fc50731bb52d5cf5977fe656057b13041881ca05d1a23f9b2b9c4063fb07b1d42ced40c6fd6167453b8bb5fede6d8755dac9c48a048ea2c39a328f18aa06e8fa2cc919969faa2a230b5066df48f901e9c83b23a5f",
      "networkId": 0,
      "chainId": 0
    },
    {
      "hash": "0x4c9e9906202d26f4756bbb09d9fe68e47f21b2eec690e73ba88624d543cb44c9",
      "blockHash": "0x7d82e7c4d0da532d44b720c0a822d7c6b913e91ad8edd21e9000a7e4c972f46d",
      "blockNumber": 75192,
      "transactionIndex": 1,
      "confirmations": null,
      "from": "0xF11940EA05aA9CC3F13aCF5C5cA6EDCF312E3Aec",
      "gasPrice": {
        "_hex": "0xcd01555c5"
      },
      "gasLimit": {
        "_hex": "0x15f90"
      },
      "to": "0x59C62d3D43f9EA1c4118d98c188AA5d028b8bB8E",
      "value": {
        "_hex": "0xde0b6b3a76400000"
      },
      "nonce": 1,
      "data": "0x",
      "r": "0xdbbb238d1aba80868818722d3cf73699542e68f5a47ac0e9da26c2ee25ff2b16",
      "s": "0x30c63619a375453f9fa0840090b7f22c5d9533b7a8c46bef71df7bf4215c0fe2",
      "v": 27,
      "creates": null,
      "raw": "0xf86d01850cd01555c583015f909459c62d3d43f9ea1c4118d98c188aa5d028b8bb8e88de0b6b3a76400000801ba0dbbb238d1aba80868818722d3cf73699542e68f5a47ac0e9da26c2ee25ff2b16a030c63619a375453f9fa0840090b7f22c5d9533b7a8c46bef71df7bf4215c0fe2",
      "networkId": 0,
      "chainId": 0
    }
  ]
}