{
  "hash": "0xeca698511a36e396a6b110cde01b32f9630e2db3ede5c5a9e017099cb55eb575",
  "parentHash": "0x9486ffc28f11aadd6b5206cabbb00f318e91eea86cf89a0d5dd6e6040efb3f1a",
  "number": 71169,
  "timestamp": 1439331889,
  "nonce": "0x4ef08ab6273a4c84",
  "difficulty": 2144590362263,
  "gasLimit": {
    "_hex": "0x2fefd8"
  },
  "gasUsed": {
    "_hex": "0xc9c3"
  },
  "miner": "0xbb7B8287f3F0a933474a79eAe42CBCa977791171",
  "extraData": "0x476574682f4c5649562f76312e302e312f6c696e75782f676f312e342e32",
  "transactions": [
    {
      "hash": "0xc1934806eadb76c5bd8272f6e29824119bb42350792a0cb9f0744f9250afa7d1",
      "blockHash": "0xeca698511a36e396a6b110cde01b32f9630e2db3ede5c5a9e017099cb55eb575",
      "blockNumber": 71169,
      "transactionIndex": 0,
      "confirmations": null,
      "from": "0xDe32AA8b1fc4E7565006809b8929E4e2ceAE817a",
      "gasPrice": {
        "_hex": "0xcbd25efca"
      },
      "gasLimit": {
        "_hex": "0x7a120"
      },
      "to": "0xfBc128067A2FE13C11BBC6cc55f29AA1F27630DA",
      "value": {
        "_hex": "0xde0b6b3a7640000"
      },
      "nonce": 0,
      "data": "0x",
      "r": "0x9fbe0d99fc22f8c61456816471933fe46d73b6e3e7f2af0edd55c36dcc131bc5",
      "s": "0x6f2d9314bbddd8107f29980de9a937c36aa86d4a3bd58b6a63648aba3b91a0b3",
      "v": 27,
      "creates": null,
      "raw": "0xf86d80850cbd25efca8307a12094fbc128067a2fe13c11bbc6cc55f29aa1f27630da880de0b6b3a7640000801ba09fbe0d99fc22f8c61456816471933fe46d73b6e3e7f2af0edd55c36dcc131bc5a06f2d9314bbddd8107f29980de9a937c36aa86d4a3bd58b6a63648aba3b91a0b3",
      "networkId": 0,
      "chainId": 0
    }
  ]
}