{
  "hash": "0x9556b94c9bbff961a5f7ad2f418226565f643eb830d6efe6aea3867277bc045d",
  "parentHash": "0xc75a7428afcfdf3040a9df96e128c1f67fb9be3842e25da861e54dd90dc6c439",
  "number": 85236,
  "timestamp": 1439560469,
  "nonce": "0xf058de406b395041",
  "difficulty": 2753124661422,
  "gasLimit": {
    "_hex": "0x2fefd8"
  },
  "gasUsed": {
    "_hex": "0x5208"
  },
  "miner": "0xe6A7a1d47ff21B6321162AEA7C6CB457D5476Bca",
  "extraData": "0x476574682f76312e302e312d38326566323666362f6c696e75782f676f312e34",
  "transactions": [
    {
      "hash": "0x0fbf564e3ff621d2da983b2f0dd87239292acbf971fed3491cb2628ede76b577",
      "blockHash": "0x9556b94c9bbff961a5f7ad2f418226565f643eb830d6efe6aea3867277bc045d",
      "blockNumber": 85236,
      "transactionIndex": 0,
      "confirmations": null,
      "from": "0x9fF6094D95665AA596F05f1F4841d9B29df75188",
      "gasPrice": {
        "_hex": "0xcb3c3d2ce"
      },
      "gasLimit": {
        "_hex": "0x15f90"
      },
      "to": "0x9bedc029a8A8234B7e364E4eB37a9bd8da7d24C9",
      "value": {
        "_hex": "0x2386f26fc10000"
      },
      "nonce": 0,
      "data": "0x",
      "r": "0xf3b141c1852ce28c3bdd7dfadd34fe161eda6db5c7b598deb4caf3481b4e4703",
      "s": "0x3965be15cc5e4b05eb37d91ebd3b21195711f867a6248864a52cd864a5609813",
      "v": 27,
      "creates": null,
      "raw": "0xf86c80850cb3c3d2ce83015f90949bedc029a8a8234b7e364e4eb37a9bd8da7d24c9872386f26fc10000801ba0f3b141c1852ce28c3bdd7dfadd34fe161eda6db5c7b598deb4caf3481b4e4703a03965be15cc5e4b05eb37d91ebd3b21195711f867a6248864a52cd864a5609813",
      "networkId": 0,
      "chainId": 0
    }
  ]
}