{
  "hash": "0xc7873216a676a30c285935449e8c18e46457d951aa100a477d64cbdd014062c6",
  "parentHash": "0x786af12cd031db1fc059c33f48b89abaa9c7917b147a9937eec1b405e3976b5b",
  "number": 107921,
  "timestamp": 1439930911,
  "nonce": "0x4376ed2c1c6e36f4",
  "difficulty": 4385457704376,
  "gasLimit": {
    "_hex": "0x2fefd8"
  },
  "gasUsed": {
    "_hex": "0xa410"
  },
  "miner": "0xeB1325C8D9d3ea8D74aC11F4B00F1B2367686319",
  "extraData": "0x",
  "transactions": [
    {
      "hash": "0x7fd8803658ac5c28080a79832b325d0dc261720f68430ff9577b2b4e2bf79c09",
      "blockHash": "0xc7873216a676a30c285935449e8c18e46457d951aa100a477d64cbdd014062c6",
      "blockNumber": 107921,
      "transactionIndex": 0,
      "confirmations": null,
      "from": "0x2910543Af39abA0Cd09dBb2D50200b3E800A63D2",
      "gasPrice": {
        "_hex": "0xd5809f50e"
      },
      "gasLimit": {
        "_hex": "0x5208"
      },
      "to": "0x1C8e5A97aA5eBe26e30C90D5dFDb84a597982aec",
      "value": {
        "_hex": "0xa676ccf2a0cf8000"
      },
      "nonce": 1057,
      "data": "0x",
      "r": "0xa761b80d72becdf72b8162ed4f234d8ceedfe6cd637190879fbcc0d1fb21b171",
      "s": "0x404b3056a5e3cfebe43b180832290686e1ce51472e4cbeac6f8b4471c1bf22ee",
      "v": 28,
      "creates": null,
      "raw": "0xf86e820421850d5809f50e825208941c8e5a97aa5ebe26e30c90d5dfdb84a597982aec88a676ccf2a0cf8000801ca0a761b80d72becdf72b8162ed4f234d8ceedfe6cd637190879fbcc0d1fb21b171a0404b3056a5e3cfebe43b180832290686e1ce51472e4cbeac6f8b4471c1bf22ee",
      "networkId": 0,
      "chainId": 0
    },
    {
      "hash": "0x5e121a1c2d699784c14568cfa96f88cc8c667a4082cb8e22e2098d3b309d0dc7",
      "blockHash": "0xc7873216a676a30c285935449e8c18e46457d951aa100a477d64cbdd014062c6",
      "blockNumber": 107921,
      "transactionIndex": 1,
      "confirmations": null,
      "from": "0x2910543Af39abA0Cd09dBb2D50200b3E800A63D2",
      "gasPrice": {
        "_hex": "0xd5809f50e"
      },
      "gasLimit": {
        "_hex": "0x5208"
      },
      "to": "0x72D20DA75a53AB09B38562F24a3712590b417fDd",
      "value": {
        "_hex": "0x3635c9adc5dea00000"
      },
      "nonce": 1058,
      "data": "0x",
      "r": "0x55a562c8f7accffdbdbdbd0dbbcfcaab89b9123f15a1cdbb8cbe86446f569bb5",
      "s": "0x4a9edec334ed2d0df96cea484f83480e8f04b46d3c4cae8d3b7d6ddf9675013f",
      "v": 28,
      "creates": null,
      "raw": "0xf86f820422850d5809f50e8252089472d20da75a53ab09b38562f24a3712590b417fdd893635c9adc5dea00000801ca055a562c8f7accffdbdbdbd0dbbcfcaab89b9123f15a1cdbb8cbe86446f569bb5a04a9edec334ed2d0df96cea484f83480e8f04b46d3c4cae8d3b7d6ddf9675013f",
      "networkId": 0,
      "chainId": 0
    }
  ]
}