{
  "hash": "0xb149545acffaf109d322fd7296bea157d28187c737c915b020232c17dbeb9e8e",
  "parentHash": "0xea246043fd4aa142018a436a1bc6a392e6ba9f82a0984dace12bd249d1e9658d",
  "number": 89871,
  "timestamp": 1439630483,
  "nonce": "0x24a4e05d6990cfcc",
  "difficulty": 3336942875352,
  "gasLimit": {
    "_hex": "0x2fefd8"
  },
  "gasUsed": {
    "_hex": "0xa410"
  },
  "miner": "0x55bAf64fc9eAccFFd7Cc643BB61142E1C6ac093e",
  "extraData": "0x",
  "transactions": [
    {
      "hash": "0x4924d913d12d3cc068ee4e784f471f1fb95e5a1921629f38ce6065fa3796c527",
      "blockHash": "0xb149545acffaf109d322fd7296bea157d28187c737c915b020232c17dbeb9e8e",
      "blockNumber": 89871,
      "transactionIndex": 0,
      "confirmations": null,
      "from": "0x8b687892C6Cf88925ddD772718782A864e5353Df",
      "gasPrice": {
        "_hex": "0xcce5ab1e2"
      },
      "gasLimit": {
        "_hex": "0x5208"
      },
      "to": "0x32Be343B94f860124dC4fEe278FDCBD38C102D88",
      "value": {
        "_hex": "0x26e0025deb2912000"
      },
      "nonce": 2,
      "data": "0x",
      "r": "0xdcb03fd8ed6e6c0b4678e80a7294a178ffcbb73a2d273f942cd72330f2042292",
      "s": "0x78f6b7a9af478452210336a8e21a61b1b9561f1ed1131e8a4c7cb6bc8bf525bb",
      "v": 27,
      "creates": null,
      "raw": "0xf86d02850cce5ab1e28252089432be343b94f860124dc4fee278fdcbd38c102d8889026e0025deb2912000801ba0dcb03fd8ed6e6c0b4678e80a7294a178ffcbb73a2d273f942cd72330f2042292a078f6b7a9af478452210336a8e21a61b1b9561f1ed1131e8a4c7cb6bc8bf525bb",
      "networkId": 0,
      "chainId": 0
    },
    {
      "hash": "0x598a689fe8ea086601fd0c0a71368e4cc5288d138edfa1c5be47ca12922b7a01",
      "blockHash": "0xb149545acffaf109d322fd7296bea157d28187c737c915b020232c17dbeb9e8e",
      "blockNumber": 89871,
      "transactionIndex": 1,
      "confirmations": null,
      "from": "0x8293b65bD915B9FF87F6aDAb479da2e5b6633fDB",
      "gasPrice": {
        "_hex": "0xccbd07b5b"
      },
      "gasLimit": {
        "_hex": "0x15f90"
      },
      "to": "0x9f78552704fe7e52cC7C3853534aA2C3cf580D54",
      "value": {
        "_hex": "0xb469471f80140000"
      },
      "nonce": 2,
      "data": "0x",
      "r": "0xe0349d3d19d635b4eaca41173bc48d5d36a924170ac564c72bd03350e912b179",
      "s": "0x1c22d6dfd6f614093c3c91785fe7dd05d42efb5c392bc7a555c67f5c49bd3c82",
      "v": 28,
      "creates": null,
      "raw": "0xf86d02850ccbd07b5b83015f90949f78552704fe7e52cc7c3853534aa2c3cf580d5488b469471f80140000801ca0e0349d3d19d635b4eaca41173bc48d5d36a924170ac564c72bd03350e912b179a01c22d6dfd6f614093c3c91785fe7dd05d42efb5c392bc7a555c67f5c49bd3c82",
      "networkId": 0,
      "chainId": 0
    }
  ]
}