{
  "hash": "0x16a4dd41e614de2a5ce50d3d45a5abd9f2b3d56b7e205736fec2677fc7df80d3",
  "parentHash": "0x2f6f6c40bb1ae57a72e3d6733c6bd0e852c4531a73983e6b5e99b8437853af2a",
  "number": 55229,
  "timestamp": 1439067368,
  "nonce": "0x6ed65eeffc8867b0",
  "difficulty": 1636218518640,
  "gasLimit": {
    "_hex": "0x2fefd8"
  },
  "gasUsed": {
    "_hex": "0xcaa1f"
  },
  "miner": "0x3FF679B0823a026F2378E5f5F22A6F127cC85828",
  "extraData": "0x476574682f76312e302e302f6c696e75782f676f312e342e32",
  "transactions": [
    {
      "hash": "0x1b700c7a44742afa229e8d2634d835493d4b14cb6b2120ee0ac047c6d78c7526",
      "blockHash": "0x16a4dd41e614de2a5ce50d3d45a5abd9f2b3d56b7e205736fec2677fc7df80d3",
      "blockNumber": 55229,
      "transactionIndex": 0,
      "confirmations": null,
      "from": "0x0ae3F81a67725a8A7758FeB8684c6c17dA20755D",
      "gasPrice": {
        "_hex": "0xcf149bff5"
      },
      "gasLimit": {
        "_hex": "0x1e8480"
      },
      "to": "0xA327075af2a223A1C83a36aDa1126afE7430f955",
      "value": {
        "_hex": "0x8ac7230489e80000"
      },
      "nonce": 73,
      "data": "0x",
      "r": "0xa0c70fbad227d9c98cf9d7fea4905278ba20adeb2b77b8b4aaa776cdcbae55d2",
      "s": "0x0f493b3b236586e1f1dc20e6355a68d7f6532998d97871ebb8105bbae0085455",
      "v": 27,
      "creates": null,
      "raw": "0xf86d49850cf149bff5831e848094a327075af2a223a1c83a36ada1126afe7430f955888ac7230489e80000801ba0a0c70fbad227d9c98cf9d7fea4905278ba20adeb2b77b8b4aaa776cdcbae55d2a00f493b3b236586e1f1dc20e6355a68d7f6532998d97871ebb8105bbae0085455",
      "networkId": 0,
      "chainId": 0
    }
  ]
}