{
  "hash": "0x32145fbd342a1fbfbcf0421c8d94c57afa95ac90c0744daa53b3b6a9f8ea681e",
  "parentHash": "0x5cd4038221a13b6b32b1497e3a5c800754a2a526aa17f02c5d11fb3b1bf619a3",
  "number": 63105,
  "timestamp": 1439199189,
  "nonce": "0xfb952a0d3cf8cbec",
  "difficulty": 1804135854045,
  "gasLimit": {
    "_hex": "0x2fefd8"
  },
  "gasUsed": {
    "_hex": "0x5208"
  },
  "miner": "0x72dcecdD4a7374231676f7fA910A678DfC7c98D6",
  "extraData": "0x476574682f76312e302e312f77696e646f77732f676f312e342e32",
  "transactions": [
    {
      "hash": "0x52663627a46ef621662f9339b3842034545c62732af52ec58e7cc886b3c48fec",
      "blockHash": "0x32145fbd342a1fbfbcf0421c8d94c57afa95ac90c0744daa53b3b6a9f8ea681e",
      "blockNumber": 63105,
      "transactionIndex": 0,
      "confirmations": null,
      "from": "0x4F68024B7CEB5ca92e7308BD08e523c632C0c739",
      "gasPrice": {
        "_hex": "0xd67a59e06"
      },
      "gasLimit": {
        "_hex": "0x7530"
      },
      "to": "0xA8dd28824D25dd5d57F5eCe5Ad5d5aBEf3d690C7",
      "value": {
        "_hex": "0xde0b6b3a7640000"
      },
      "nonce": 3,
      "data": "0x",
      "r": "0x98970c8ad7211f42a8f50794fc4abc193ee94582408e9a162b00794dcde1879e",
      "s": "0x6b8214e0ba872e2208d22508414970f82c2ab6e8c94662fa4981ed7e618a3eec",
      "v": 27,
      "creates": null,
      "raw": "0xf86c03850d67a59e0682753094a8dd28824d25dd5d57f5ece5ad5d5abef3d690c7880de0b6b3a7640000801ba098970c8ad7211f42a8f50794fc4abc193ee94582408e9a162b00794dcde1879ea06b8214e0ba872e2208d22508414970f82c2ab6e8c94662fa4981ed7e618a3eec",
      "networkId": 0,
      "chainId": 0
    }
  ]
}