{
  "hash": "0x12eb3538867b5204c41e6b12991726b7b51d3537c445223c4c43133c8b8931b7",
  "parentHash": "0x6d5036e642bbbda40a07e966fb9bc86b0817efd1ca9d3d1b63077d479226e60e",
  "number": 85858,
  "timestamp": 1439569906,
  "nonce": "0xd1abcb542a976e58",
  "difficulty": 2777222762789,
  "gasLimit": {
    "_hex": "0x2fefd8"
  },
  "gasUsed": {
    "_hex": "0x16334"
  },
  "miner": "0x0037ce3d4B7f8729C8607D8D0248252Be68202c0",
  "extraData": "0x476574682f76312e302e312f77696e646f77732f676f312e342e32",
  "transactions": [
    {
      "hash": "0x719495e42075dfdef1dad11cdaced688d41339ae85e8a9379247dc6df87f199f",
      "blockHash": "0x12eb3538867b5204c41e6b12991726b7b51d3537c445223c4c43133c8b8931b7",
      "blockNumber": 85858,
      "transactionIndex": 0,
      "confirmations": null,
      "from": "0x18E113D8177c691A61Be785852Fa5Bb47aEeBdAf",
      "gasPrice": {
        "_hex": "0xd13e8d749"
      },
      "gasLimit": {
        "_hex": "0x249f0"
      },
      "to": "0xc2ac6849Aec3938FB8c9B36F1c07be76f766637E",
      "value": {
        "_hex": "0x53444835ec580000"
      },
      "nonce": 14,
      "data": "0x",
      "r": "0xb4ce245395337ab4328e5678282f200af574181df89300515d72f289ec0867d9",
      "s": "0x537f42da0b5fda149d59ef0086ada63a9b6e7efc7282f9b222683bc75529f36f",
      "v": 28,
      "creates": null,
      "raw": "0xf86d0e850d13e8d749830249f094c2ac6849aec3938fb8c9b36f1c07be76f766637e8853444835ec580000801ca0b4ce245395337ab4328e5678282f200af574181df89300515d72f289ec0867d9a0537f42da0b5fda149d59ef0086ada63a9b6e7efc7282f9b222683bc75529f36f",
      "networkId": 0,
      "chainId": 0
    }
  ]
}