{
  "hash": "0xb4f84ef729b24b320ecaf1b0ad0df18ad11c24539f470c7599d4b4ac75935b02",
  "parentHash": "0xd3f92a6049bea1a2864e0c85e44d3f41669a0fe616c9d040d529331fbc0821b5",
  "number": 64370,
  "timestamp": 1439219527,
  "nonce": "0x9a2c055733c85ed8",
  "difficulty": 1880306575612,
  "gasLimit": {
    "_hex": "0x2fefd8"
  },
  "gasUsed": {
    "_hex": "0x546c"
  },
  "miner": "0x70137010922f2fC2964b3792907F79FBB75fEbe8",
  "extraData": "0x476574682f76312e302e302f6c696e75782f676f312e342e32",
  "transactions": [
    {
      "hash": "0xf7f480e1e2772965b0c8a07a8c5bc39ea153623d324798692388eb7cce970873",
      "blockHash": "0xb4f84ef729b24b320ecaf1b0ad0df18ad11c24539f470c7599d4b4ac75935b02",
      "blockNumber": 64370,
      "transactionIndex": 0,
      "confirmations": null,
      "from": "0x0F206E1a1da7207ea518b112418BAa8B06260328",
      "gasPrice": {
        "_hex": "0x10b8410e961"
      },
      "gasLimit": {
        "_hex": "0x55f0"
      },
      "to": "0x2910543Af39abA0Cd09dBb2D50200b3E800A63D2",
      "value": {
        "_hex": "0x2b5e3af16b1880000"
      },
      "nonce": 0,
      "data": "0x454e324e5a57353547",
      "r": "0x5451fb9c71b120ab21c527ccba2d40633ff0cab822ad9f264b6e7c6c70fb577d",
      "s": "0x0c96b13cca0e437031e6b8ad0fec781b715b7b03a82d83b6e3904ea8410c431f",
      "v": 28,
      "creates": null,
      "raw": "0xf8778086010b8410e9618255f0942910543af39aba0cd09dbb2d50200b3e800a63d28902b5e3af16b188000089454e324e5a573535471ca05451fb9c71b120ab21c527ccba2d40633ff0cab822ad9f264b6e7c6c70fb577da00c96b13cca0e437031e6b8ad0fec781b715b7b03a82d83b6e3904ea8410c431f",
      "networkId": 0,
      "chainId": 0
    }
  ]
}