{
  "hash": "0xded076443be01ef8c8746d0459f9995e353c7eaf8de0b05ebf10fb5b96348fed",
  "parentHash": "0xabc99488ad2f863903c75e084540b967d3ceec2219ea8abbb27edc2489e68db9",
  "number": 81484,
  "timestamp": 1439502528,
  "nonce": "0xf4969591928b335a",
  "difficulty": 2442608641243,
  "gasLimit": {
    "_hex": "0x2fefd8"
  },
  "gasUsed": {
    "_hex": "0x14820"
  },
  "miner": "0xa50ec0D39fa913E62f1Bae7074E6F36caA71855b",
  "extraData": "0xd783010001844765746887676f312e342e32856c696e7578",
  "transactions": [
    {
      "hash": "0x623644034060604059513f55639c26bf3b72ba14ad7eb5d6cbcf14ab1980f599",
      "blockHash": "0xded076443be01ef8c8746d0459f9995e353c7eaf8de0b05ebf10fb5b96348fed",
      "blockNumber": 81484,
      "transactionIndex": 0,
      "confirmations": null,
      "from": "0x06EC48800B2DB3eEfa052e98A9b5Fc2Bf783Ee74",
      "gasPrice": {
        "_hex": "0xe2b0db910"
      },
      "gasLimit": {
        "_hex": "0x5208"
      },
      "to": "0x32Be343B94f860124dC4fEe278FDCBD38C102D88",
      "value": {
        "_hex": "0x2bccf8036e5c2c000"
      },
      "nonce": 3,
      "data": "0x",
      "r": "0xb7c0821131f1d1e99cfa3eeb12881d35dcb5e0fcbb889c008ae10d292357b194",
      "s": "0x0f174fcbd29c518aefc49a277c9ef5069fe153df078c519b11a35fe81e340f57",
      "v": 28,
      "creates": null,
      "raw": "0xf86d03850e2b0db9108252089432be343b94f860124dc4fee278fdcbd38c102d888902bccf8036e5c2c000801ca0b7c0821131f1d1e99cfa3eeb12881d35dcb5e0fcbb889c008ae10d292357b194a00f174fcbd29c518aefc49a277c9ef5069fe153df078c519b11a35fe81e340f57",
      "networkId": 0,
      "chainId": 0
    },
    {
      "hash": "0x0a08f370d0cc7e6ae8173ab00e4fc8e22c615d2be26d7705a3b5ca4da39a6dd2",
      "blockHash": "0xded076443be01ef8c8746d0459f9995e353c7eaf8de0b05ebf10fb5b96348fed",
      "blockNumber": 81484,
      "transactionIndex": 1,
      "confirmations": null,
      "from": "0x9630Db4398d754a15E7E3A395269D2e884C5ec59",
      "gasPrice": {
        "_hex": "0xe2b0db910"
      },
      "gasLimit": {
        "_hex": "0x5208"
      },
      "to": "0x32Be343B94f860124dC4fEe278FDCBD38C102D88",
      "value": {
        "_hex": "0xc8f1e66cc8f1c8000"
      },
      "nonce": 3,
      "data": "0x",
      "r": "0x61be8d84ae2a0fb9f343c1b31d09f331ae1c094162e2d5e25a90d07783da6444",
      "s": "0x7735b1f55d8bb38b8402732dd0116742acb4bcd20ffef2d31b2087efc18f8ba0",
      "v": 27,
      "creates": null,
      "raw": "0xf86d03850e2b0db9108252089432be343b94f860124dc4fee278fdcbd38c102d88890c8f1e66cc8f1c8000801ba061be8d84ae2a0fb9f343c1b31d09f331ae1c094162e2d5e25a90d07783da6444a07735b1f55d8bb38b8402732dd0116742acb4bcd20ffef2d31b2087efc18f8ba0",
      "networkId": 0,
      "chainId": 0
    },
    {
      "hash": "0xf3debc87e76a3084279c94600b4ad2cbb2701258dacc821b7f7afe1146371ab8",
      "blockHash": "0xded076443be01ef8c8746d0459f9995e353c7eaf8de0b05ebf10fb5b96348fed",
      "blockNumber": 81484,
      "transactionIndex": 2,
      "confirmations": null,
      "from": "0x4eC68687B54dba931f2Ab0c35B4487b16F10f2e9",
      "gasPrice": {
        "_hex": "0xe2b0db910"
      },
      "gasLimit": {
        "_hex": "0x5208"
      },
      "to": "0x32Be343B94f860124dC4fEe278FDCBD38C102D88",
      "value": {
        "_hex": "0x98a35ac5ab6d3000"
      },
      "nonce": 2,
      "data": "0x",
      "r": "0x7e7a589ad821f80c668714d331221fc5faacefa8d2116265b11e6e0ff3a94de2",
      "s": "0x1ec36bda10180a6a249bcbdc4e52229bc556aadd7f7f7350c68e106b16865153",
      "v": 28,
      "creates": null,
      "raw": "0xf86c02850e2b0db9108252089432be343b94f860124dc4fee278fdcbd38c102d888898a35ac5ab6d3000801ca07e7a589ad821f80c668714d331221fc5faacefa8d2116265b11e6e0ff3a94de2a01ec36bda10180a6a249bcbdc4e52229bc556aadd7f7f7350c68e106b16865153",
      "networkId": 0,
      "chainId": 0
    },
    {
      "hash": "0x9a407bba4f86bd6b6fb0043b956ae1f30b9d8aabae69d94e7a2cea5751b3079e",
      "blockHash": "0xded076443be01ef8c8746d0459f9995e353c7eaf8de0b05ebf10fb5b96348fed",
      "blockNumber": 81484,
      "transactionIndex": 3,
      "confirmations": null,
      "from": "0x2910543Af39abA0Cd09dBb2D50200b3E800A63D2",
      "gasPrice": {
        "_hex": "0xd882b09da"
      },
      "gasLimit": {
        "_hex": "0x5208"
      },
      "to": "0x4835b2f84407499A34fE1240dd3148257bFa9E87",
      "value": {
        "_hex": "0xddf9a7c13e5f8000"
      },
      "nonce": 485,
      "data": "0x",
      "r": "0x9c1a53cd1da0527f8db5e6295905f9d3d599585fd2eb8fcf12a18f365d46f99a",
      "s": "0x628c1e6731df89f54951947a040c9c012d7cd15bbcd9b0da2d1e5e2d32019836",
      "v": 28,
      "creates": null,
      "raw": "0xf86e8201e5850d882b09da825208944835b2f84407499a34fe1240dd3148257bfa9e8788ddf9a7c13e5f8000801ca09c1a53cd1da0527f8db5e6295905f9d3d599585fd2eb8fcf12a18f365d46f99aa0628c1e6731df89f54951947a040c9c012d7cd15bbcd9b0da2d1e5e2d32019836",
      "networkId": 0,
      "chainId": 0
    }
  ]
}