{
  "hash": "0x394ce9a117ccfac7b684896b9a8164d7940d8e3948d146def9c19d6633b0c4cd",
  "parentHash": "0x2752062089910ac0e2e3f48388f4e9bce066c0e5ff250c14b6a83f210b61e86d",
  "number": 102604,
  "timestamp": 1439840496,
  "nonce": "0x6a89362a5fabce0f",
  "difficulty": 4005303006912,
  "gasLimit": {
    "_hex": "0x2fefd8"
  },
  "gasUsed": {
    "_hex": "0x5208"
  },
  "miner": "0x019D3FA6E3cdA649b26F74395A846575c7bEA14C",
  "extraData": "0x",
  "transactions": [
    {
      "hash": "0x38b9a2c2e57cc20a59e1275ac47e08ed44bc775812810c3eb3f1392c0794c7b2",
      "blockHash": "0x394ce9a117ccfac7b684896b9a8164d7940d8e3948d146def9c19d6633b0c4cd",
      "blockNumber": 102604,
      "transactionIndex": 0,
      "confirmations": null,
      "from": "0x16a4739e52878d2924e0F51cb5D3068aFafb397B",
      "gasPrice": {
        "_hex": "0xd52f49bdb"
      },
      "gasLimit": {
        "_hex": "0x7a120"
      },
      "to": "0xBBDa93a81B882774e1c9b5e3F933Fa35DaC8bc88",
      "value": {
        "_hex": "0x18e4ae1f0ddb60000"
      },
      "nonce": 0,
      "data": "0x",
      "r": "0xcfef78524eb5ef938bc07bc91b2d7719f4a1216a5474576a82f5f205e1e9acd6",
      "s": "0x4b8be39c034ad78edb3755b5809551914eed69d425b0eef852b10fb83d1be35a",
      "v": 28,
      "creates": null,
      "raw": "0xf86e80850d52f49bdb8307a12094bbda93a81b882774e1c9b5e3f933fa35dac8bc8889018e4ae1f0ddb60000801ca0cfef78524eb5ef938bc07bc91b2d7719f4a1216a5474576a82f5f205e1e9acd6a04b8be39c034ad78edb3755b5809551914eed69d425b0eef852b10fb83d1be35a",
      "networkId": 0,
      "chainId": 0
    }
  ]
}