{
  "hash": "0x24c2ec29db7a502673c6d8e1d4d7889957fd82e6433dd27a215874dd43d9ae4e",
  "parentHash": "0xf8c3c3e55509f48c3933a82de1def310ed0b5faf7c7900a2d957aa4590662374",
  "number": 87842,
  "timestamp": 1439598327,
  "nonce": "0xa9245be6d415294b",
  "difficulty": 3183348632187,
  "gasLimit": {
    "_hex": "0x2fefd8"
  },
  "gasUsed": {
    "_hex": "0x5208"
  },
  "miner": "0xe6A7a1d47ff21B6321162AEA7C6CB457D5476Bca",
  "extraData": "0x476574682f76312e302e312d38326566323666362f6c696e75782f676f312e34",
  "transactions": [
    {
      "hash": "0xf14ba0aab68e34633ed0070c9da4db7ca3e4fb6aa39354e050f0d177af8782b9",
      "blockHash": "0x24c2ec29db7a502673c6d8e1d4d7889957fd82e6433dd27a215874dd43d9ae4e",
      "blockNumber": 87842,
      "transactionIndex": 0,
      "confirmations": null,
      "from": "0x29D19206747E4Db867186f5899D9F7188DF153F6",
      "gasPrice": {
        "_hex": "0xd23ee12e2"
      },
      "gasLimit": {
        "_hex": "0x55f0"
      },
      "to": "0xC0EdE9a639d107851462c15f2fb729c7c61bBf62",
      "value": {
        "_hex": "0xc249fdd3277800000"
      },
      "nonce": 0,
      "data": "0x",
      "r": "0x055d5488717f42ae712f3badb119e658ba8dc8645944532cce216f328c457cc4",
      "s": "0x44c90ef433f3d71e202eb7c27d185e89e0bb2c741f89790eb537c8778aa61f12",
      "v": 28,
      "creates": null,
      "raw": "0xf86d80850d23ee12e28255f094c0ede9a639d107851462c15f2fb729c7c61bbf62890c249fdd3277800000801ca0055d5488717f42ae712f3badb119e658ba8dc8645944532cce216f328c457cc4a044c90ef433f3d71e202eb7c27d185e89e0bb2c741f89790eb537c8778aa61f12",
      "networkId": 0,
      "chainId": 0
    }
  ]
}