{
  "hash": "0x500cadfa5be01e14bbd8dd7ffaf69c050550b98f3c8859ee9561fc50a7fa2fd1",
  "parentHash": "0x66f13006e90bb1b3af8f19a83f59447c64b30a4c26c25a43b2dae6f7176bba06",
  "number": 115400,
  "timestamp": 1440056487,
  "nonce": "0x04f5966454ab2c63",
  "difficulty": 4576156566732,
  "gasLimit": {
    "_hex": "0x2fefd8"
  },
  "gasUsed": {
    "_hex": "0x5208"
  },
  "miner": "0x88D74a59454F6cF3B51ef6b9136AFb6b9D405A88",
  "extraData": "0x",
  "transactions": [
    {
      "hash": "0x3cb81f5a53144ae462ba65d31e73ee776d5e42b5422e9408a7d2d38df2fe2103",
      "blockHash": "0x500cadfa5be01e14bbd8dd7ffaf69c050550b98f3c8859ee9561fc50a7fa2fd1",
      "blockNumber": 115400,
      "transactionIndex": 0,
      "confirmations": null,
      "from": "0x2cf4364bc4C7C3333aB9963C4B3473664f42D83A",
      "gasPrice": {
        "_hex": "0xd2f15585b"
      },
      "gasLimit": {
        "_hex": "0x5208"
      },
      "to": "0x32Be343B94f860124dC4fEe278FDCBD38C102D88",
      "value": {
        "_hex": "0xaa5164d85d291800"
      },
      "nonce": 7,
      "data": "0x",
      "r": "0x680b28805539cf651add4ab32129a9dc149636d553c03807bf8591e87f914455",
      "s": "0x142a2096e17cdb057e31a5648ed1992ca183877a548099a3d0ba243ccbf998c0",
      "v": 27,
      "creates": null,
      "raw": "0xf86c07850d2f15585b8252089432be343b94f860124dc4fee278fdcbd38c102d8888aa5164d85d291800801ba0680b28805539cf651add4ab32129a9dc149636d553c03807bf8591e87f914455a0142a2096e17cdb057e31a5648ed1992ca183877a548099a3d0ba243ccbf998c0",
      "networkId": 0,
      "chainId": 0
    }
  ]
}