{
  "hash": "0xf8544e366b7451a9f71c6442e1b88491ea94f9e94bbbd7cf0a08ccf0c18c8429",
  "parentHash": "0xaf3c849f93f1fade18364645e768ea8efc9c73c7001fe3dad95f3e427e7e6d3e",
  "number": 99319,
  "timestamp": 1439788050,
  "nonce": "0x570cb61e34b4e043",
  "difficulty": 3791778050745,
  "gasLimit": {
    "_hex": "0x2fefd8"
  },
  "gasUsed": {
    "_hex": "0xa410"
  },
  "miner": "0xe6A7a1d47ff21B6321162AEA7C6CB457D5476Bca",
  "extraData": "0x476574682f76312e302e312d38326566323666362f6c696e75782f676f312e34",
  "transactions": [
    {
      "hash": "0x9ac1dd7ea370569a257feb098479e46559ffb991ea5f55a34c7f85b727244211",
      "blockHash": "0xf8544e366b7451a9f71c6442e1b88491ea94f9e94bbbd7cf0a08ccf0c18c8429",
      "blockNumber": 99319,
      "transactionIndex": 0,
      "confirmations": null,
      "from": "0xa70a9a7040d542C632D8e0bE7c5513A8a5Bbc752",
      "gasPrice": {
        "_hex": "0xd46fc948e"
      },
      "gasLimit": {
        "_hex": "0x5208"
      },
      "to": "0x32Be343B94f860124dC4fEe278FDCBD38C102D88",
      "value": {
        "_hex": "0x455f505a42a61800"
      },
      "nonce": 193,
      "data": "0x",
      "r": "0x438132463a3b4e75b22d65e2ea4f68bec27c5180ce54bc2d992303444b230fe1",
      "s": "0x05b8f4325b8435b65efdf40b1ca73d0dc6d25c1992c5c49f816904baf3571a7e",
      "v": 28,
      "creates": null,
      "raw": "0xf86d81c1850d46fc948e8252089432be343b94f860124dc4fee278fdcbd38c102d8888455f505a42a61800801ca0438132463a3b4e75b22d65e2ea4f68bec27c5180ce54bc2d992303444b230fe1a005b8f4325b8435b65efdf40b1ca73d0dc6d25c1992c5c49f816904baf3571a7e",
      "networkId": 0,
      "chainId": 0
    },
    {
      "hash": "0x8aa75475c3f04572e733daa102b26f60a651a1900252bc44eaca260bbbd52778",
      "blockHash": "0xf8544e366b7451a9f71c6442e1b88491ea94f9e94bbbd7cf0a08ccf0c18c8429",
      "blockNumber": 99319,
      "transactionIndex": 1,
      "confirmations": null,
      "from": "0xC9e7F2eBaBDF92695E7aDcda4B3DF6081D167099",
      "gasPrice": {
        "_hex": "0xd46fc948e"
      },
      "gasLimit": {
        "_hex": "0x5208"
      },
      "to": "0x32Be343B94f860124dC4fEe278FDCBD38C102D88",
      "value": {
        "_hex": "0xddc758ba5161800"
      },
      "nonce": 0,
      "data": "0x",
      "r": "0x89bc6558bd52573b893e12180f3223000a2ff75a87fd1e06ad29b6369a9a65ff",
      "s": "0x3a270bbde0ac9a02f23184714716b8c4ad33bbe7ef63e85cd38f2ccfe67acc2e",
      "v": 27,
      "creates": null,
      "raw": "0xf86c80850d46fc948e8252089432be343b94f860124dc4fee278fdcbd38c102d88880ddc758ba5161800801ba089bc6558bd52573b893e12180f3223000a2ff75a87fd1e06ad29b6369a9a65ffa03a270bbde0ac9a02f23184714716b8c4ad33bbe7ef63e85cd38f2ccfe67acc2e",
      "networkId": 0,
      "chainId": 0
    }
  ]
}