{
  "hash": "0x16e9e8abc999c90ef6b23e53bd738476ca2c2251ab231fdcf5559ab1fa16322e",
  "parentHash": "0x2a81ec66612424dbd3a9f6eebdb30c2f68fa581a9ba36857a88849cc14256975",
  "number": 103355,
  "timestamp": 1439851904,
  "nonce": "0x7e81c42b62b363b7",
  "difficulty": 4178741734406,
  "gasLimit": {
    "_hex": "0x2fefd8"
  },
  "gasUsed": {
    "_hex": "0x5208"
  },
  "miner": "0xe6A7a1d47ff21B6321162AEA7C6CB457D5476Bca",
  "extraData": "0x476574682f76312e302e312d38326566323666362f6c696e75782f676f312e34",
  "transactions": [
    {
      "hash": "0x1d23eeb3f914eb38a660bf7e4fc0022717b7bd1e23701110f3f16fc0ba0585d2",
      "blockHash": "0x16e9e8abc999c90ef6b23e53bd738476ca2c2251ab231fdcf5559ab1fa16322e",
      "blockNumber": 103355,
      "transactionIndex": 0,
      "confirmations": null,
      "from": "0x6Ea9d172E15e969316f49CB2D5549fc3b00c1ef3",
      "gasPrice": {
        "_hex": "0xcf74f78c7"
      },
      "gasLimit": {
        "_hex": "0x5208"
      },
      "to": "0xFBb1b73C4f0BDa4f67dcA266ce6Ef42f520fBB98",
      "value": {
        "_hex": "0x116807e7f799b45fbc8"
      },
      "nonce": 1,
      "data": "0x",
      "r": "0x8103232e2d150f3153b6834589e9fd6b33f9ce6607f10490bab6e44f291947ba",
      "s": "0x45eb5a3c731fbf9b7fca658b4ff36ba86bf23cd0781889458bd82521cad22f1d",
      "v": 28,
      "creates": null,
      "raw": "0xf86e01850cf74f78c782520894fbb1b73c4f0bda4f67dca266ce6ef42f520fbb988a0116807e7f799b45fbc8801ca08103232e2d150f3153b6834589e9fd6b33f9ce6607f10490bab6e44f291947baa045eb5a3c731fbf9b7fca658b4ff36ba86bf23cd0781889458bd82521cad22f1d",
      "networkId": 0,
      "chainId": 0
    }
  ]
}