{
  "hash": "0x424ab2096ea667bfa4643578290dba51c065fea843551869fb35b9442b53f2d4",
  "parentHash": "0x204fce9e21dd5a19ccd298ba1440799e87b211a1ecfccd5abfdb0e909eea3cd2",
  "number": 105463,
  "timestamp": 1439888011,
  "nonce": "0x9370a2f3e9743258",
  "difficulty": 4399613535077,
  "gasLimit": {
    "_hex": "0x2fefd8"
  },
  "gasUsed": {
    "_hex": "0xf618"
  },
  "miner": "0xEF247E639d49461D25F57e9362CadE3120910Ce0",
  "extraData": "0x476574682f76312e302e312f6c696e75782f676f312e342e32",
  "transactions": [
    {
      "hash": "0x9b422e15a20c8f38a7f8d12e253769048709f6faa7c028f9a931f4a4f2c87afa",
      "blockHash": "0x424ab2096ea667bfa4643578290dba51c065fea843551869fb35b9442b53f2d4",
      "blockNumber": 105463,
      "transactionIndex": 0,
      "confirmations": null,
      "from": "0xDdaCBcba2a4fe9313F7CCA044872A9c51bD1E4c8",
      "gasPrice": {
        "_hex": "0xdca559807"
      },
      "gasLimit": {
        "_hex": "0x5208"
      },
      "to": "0x32Be343B94f860124dC4fEe278FDCBD38C102D88",
      "value": {
        "_hex": "0x65eb7ee77993cc00"
      },
      "nonce": 3,
      "data": "0x",
      "r": "0xd4d7a56aaf9e36200035eff2a1308e0bbc9ec8163b4892ecbd505141d601011a",
      "s": "0x0ff2731bad33d1ba268edbf14e1a3093265d4c52f75b8ef8c12ea49a77f88b22",
      "v": 28,
      "creates": null,
      "raw": "0xf86c03850dca5598078252089432be343b94f860124dc4fee278fdcbd38c102d888865eb7ee77993cc00801ca0d4d7a56aaf9e36200035eff2a1308e0bbc9ec8163b4892ecbd505141d601011aa00ff2731bad33d1ba268edbf14e1a3093265d4c52f75b8ef8c12ea49a77f88b22",
      "networkId": 0,
      "chainId": 0
    },
    {
      "hash": "0x1c1b83dbf93edc6d90ec7db9693b65e91446b49b35fef9b28cdc2c10954267ec",
      "blockHash": "0x424ab2096ea667bfa4643578290dba51c065fea843551869fb35b9442b53f2d4",
      "blockNumber": 105463,
      "transactionIndex": 1,
      "confirmations": null,
      "from": "0xfe8635C30D5b0a49D09Fc9480d59e05d7450fd41",
      "gasPrice": {
        "_hex": "0xdca559807"
      },
      "gasLimit": {
        "_hex": "0x5208"
      },
      "to": "0x32Be343B94f860124dC4fEe278FDCBD38C102D88",
      "value": {
        "_hex": "0x406afa043170b4000"
      },
      "nonce": 6,
      "data": "0x",
      "r": "0x3e1443e54a0fea7b202214232289f55f15c775a5954964f36ac40b16ad192087",
      "s": "0x3a9deccb2657241dfd94d08bdb63b28a5d22ed4e4879a6427f24f1c9d501b09d",
      "v": 27,
      "creates": null,
      "raw": "0xf86d06850dca5598078252089432be343b94f860124dc4fee278fdcbd38c102d88890406afa043170b4000801ba03e1443e54a0fea7b202214232289f55f15c775a5954964f36ac40b16ad192087a03a9deccb2657241dfd94d08bdb63b28a5d22ed4e4879a6427f24f1c9d501b09d",
      "networkId": 0,
      "chainId": 0
    },
    {
      "hash": "0x665b36ade86f951287d49aff5407bf53b0eca6ae4970140e94afcd8f801e33f4",
      "blockHash": "0x424ab2096ea667bfa4643578290dba51c065fea843551869fb35b9442b53f2d4",
      "blockNumber": 105463,
      "transactionIndex": 2,
      "confirmations": null,
      "from": "0xbAeF66124E137Eb5eE0DE1BbAB5a30002508a1bf",
      "gasPrice": {
        "_hex": "0xcd774d677"
      },
      "gasLimit": {
        "_hex": "0x15f90"
      },
      "to": "0xAF17A4ab5d6B10055Fc1eB1BFaCcbDe69B83aF76",
      "value": {
        "_hex": "0x47fdb3c3f456c0000"
      },
      "nonce": 4,
      "data": "0x",
      "r": "0x22e6b5b155e7b12172f601564bd0a7b29884e147664214b507cf36b704093188",
      "s": "0x46bd3f7c865dbcd23c6fef969655f56cc8977d7467409b807b8ec56e802be315",
      "v": 27,
      "creates": null,
      "raw": "0xf86e04850cd774d67783015f9094af17a4ab5d6b10055fc1eb1bfaccbde69b83af7689047fdb3c3f456c0000801ba022e6b5b155e7b12172f601564bd0a7b29884e147664214b507cf36b704093188a046bd3f7c865dbcd23c6fef969655f56cc8977d7467409b807b8ec56e802be315",
      "networkId": 0,
      "chainId": 0
    }
  ]
}