{
  "hash": "0x8d47b6dfdb257a8951797291f76923f8da98c180ebff164b9ca624672dae3a74",
  "parentHash": "0x1eb3c5c724fda4c690652b20b784833f0f13c37a66f4d025e88f6378eaefe646",
  "number": 84761,
  "timestamp": 1439554232,
  "nonce": "0x8fdb052b95237341",
  "difficulty": 2625916155005,
  "gasLimit": {
    "_hex": "0x2fefd8"
  },
  "gasUsed": {
    "_hex": "0xf87c"
  },
  "miner": "0xEF247E639d49461D25F57e9362CadE3120910Ce0",
  "extraData": "0x476574682f76312e302e312f6c696e75782f676f312e342e32",
  "transactions": [
    {
      "hash": "0x4cdeb3a658c0f63554f7243d96ea0e3ae049775ae8d8d63f3dbf94a4ddc55042",
      "blockHash": "0x8d47b6dfdb257a8951797291f76923f8da98c180ebff164b9ca624672dae3a74",
      "blockNumber": 84761,
      "transactionIndex": 0,
      "confirmations": null,
      "from": "0x974d0541Ab4A47ec7f75369c0069b64a1b817710",
      "gasPrice": {
        "_hex": "0x110c8f7d8de"
      },
      "gasLimit": {
        "_hex": "0xc350"
      },
      "to": "0x2910543Af39abA0Cd09dBb2D50200b3E800A63D2",
      "value": {
        "_hex": "0x1569b9e733474c0000"
      },
      "nonce": 0,
      "data": "0x454e45353257394b52",
      "r": "0x809855f08d831495763897c42b80135ffa6a01ab5fe07a56f1cde09c80310bf4",
      "s": "0xddd0f7b88fb282f3d04c189859dc495049433a0fb68ce8c138cc1924b2459812",
      "v": 28,
      "creates": null,
      "raw": "0xf87780860110c8f7d8de82c350942910543af39aba0cd09dbb2d50200b3e800a63d2891569b9e733474c000089454e45353257394b521ca0809855f08d831495763897c42b80135ffa6a01ab5fe07a56f1cde09c80310bf4a0ddd0f7b88fb282f3d04c189859dc495049433a0fb68ce8c138cc1924b2459812",
      "networkId": 0,
      "chainId": 0
    },
    {
      "hash": "0x6be7722dd779509e07f5377dbc0ea3f676b84505a61853e5f37dcb9a559389ea",
      "blockHash": "0x8d47b6dfdb257a8951797291f76923f8da98c180ebff164b9ca624672dae3a74",
      "blockNumber": 84761,
      "transactionIndex": 1,
      "confirmations": null,
      "from": "0x32Be343B94f860124dC4fEe278FDCBD38C102D88",
      "gasPrice": {
        "_hex": "0xd901122fe"
      },
      "gasLimit": {
        "_hex": "0x5208"
      },
      "to": "0xb794F5eA0ba39494cE839613fffBA74279579268",
      "value": {
        "_hex": "0xfe1c215e8f839000000"
      },
      "nonce": 700,
      "data": "0x",
      "r": "0x054e215459052b269ef4d80c824941b0efd79e9c435e3d8ddf193002d9bb999d",
      "s": "0x73ed910abb0b0139495f06231cd2efe26b927d3e2048814a0490d03ae466da7f",
      "v": 28,
      "creates": null,
      "raw": "0xf8708202bc850d901122fe82520894b794f5ea0ba39494ce839613fffba742795792688a0fe1c215e8f839000000801ca0054e215459052b269ef4d80c824941b0efd79e9c435e3d8ddf193002d9bb999da073ed910abb0b0139495f06231cd2efe26b927d3e2048814a0490d03ae466da7f",
      "networkId": 0,
      "chainId": 0
    },
    {
      "hash": "0xfb81e4a38179cc55e9473ed5919cb4c0bc0a2bdc70f856c118b27812915cf490",
      "blockHash": "0x8d47b6dfdb257a8951797291f76923f8da98c180ebff164b9ca624672dae3a74",
      "blockNumber": 84761,
      "transactionIndex": 2,
      "confirmations": null,
      "from": "0xBE07744f624130f75511A91a43495e5C11114950",
      "gasPrice": {
        "_hex": "0xccb1ac8c5"
      },
      "gasLimit": {
        "_hex": "0x15f90"
      },
      "to": "0x23f2D0fd3B4C98Fb1698564deB4898275E2e831f",
      "value": {
        "_hex": "0x5320c1437c970000"
      },
      "nonce": 3,
      "data": "0x",
      "r": "0xb9e7dd6d573e2c1551ee5d97c68df4b585602117908115ac2aefa8c6efc50945",
      "s": "0x23e31c3b9c9ebbe821d873f9a8bae0ffc50b71ddede59259180baa27c36ce278",
      "v": 27,
      "creates": null,
      "raw": "0xf86d03850ccb1ac8c583015f909423f2d0fd3b4c98fb1698564deb4898275e2e831f885320c1437c970000801ba0b9e7dd6d573e2c1551ee5d97c68df4b585602117908115ac2aefa8c6efc50945a023e31c3b9c9ebbe821d873f9a8bae0ffc50b71ddede59259180baa27c36ce278",
      "networkId": 0,
      "chainId": 0
    }
  ]
}