{
  "hash": "0xead194897f74ca7896027e93e4f40dc89d6a50a9c446c9b60a2bcefda94ea4d7",
  "parentHash": "0x746159827d15b96881f9f7a7fcfd639609cdd38093fdd66ad897471bb98b745a",
  "number": 90498,
  "timestamp": 1439640913,
  "nonce": "0x7ea1eed9f31e72c9",
  "difficulty": 3348117695044,
  "gasLimit": {
    "_hex": "0x2fefd8"
  },
  "gasUsed": {
    "_hex": "0x5208"
  },
  "miner": "0xe6A7a1d47ff21B6321162AEA7C6CB457D5476Bca",
  "extraData": "0x476574682f76312e302e312d38326566323666362f6c696e75782f676f312e34",
  "transactions": [
    {
      "hash": "0xaacfb54799227313a85b663792cde6cf82a60c850c2e21568c49af8e05d31a93",
      "blockHash": "0xead194897f74ca7896027e93e4f40dc89d6a50a9c446c9b60a2bcefda94ea4d7",
      "blockNumber": 90498,
      "transactionIndex": 0,
      "confirmations": null,
      "from": "0x8293b65bD915B9FF87F6aDAb479da2e5b6633fDB",
      "gasPrice": {
        "_hex": "0xcc3a0c0cf"
      },
      "gasLimit": {
        "_hex": "0x15f90"
      },
      "to": "0x9f78552704fe7e52cC7C3853534aA2C3cf580D54",
      "value": {
        "_hex": "0x4563918244f40000"
      },
      "nonce": 5,
      "data": "0x",
      "r": "0x0b16704caf416604ea5e37ff572f8cc1954f9a6a6beaced8d78f6c16fc373c6a",
      "s": "0x709139431d2f1ee2430771daaa504c790ce28db80dec60ae580cb4c423ee598b",
      "v": 28,
      "creates": null,
      "raw": "0xf86d05850cc3a0c0cf83015f90949f78552704fe7e52cc7c3853534aa2c3cf580d54884563918244f40000801ca00b16704caf416604ea5e37ff572f8cc1954f9a6a6beaced8d78f6c16fc373c6aa0709139431d2f1ee2430771daaa504c790ce28db80dec60ae580cb4c423ee598b",
      "networkId": 0,
      "chainId": 0
    }
  ]
}