{
  "hash": "0x97de7b132c543829591be6aedfa77189fef8cfeafa5549548042161ce880c73e",
  "parentHash": "0xe8bac8976e8e71ed4060109aa62bd1fd62b2936c25bbc027697f4ded906dfc05",
  "number": 111562,
  "timestamp": 1439992425,
  "nonce": "0x82b309c8753f05c7",
  "difficulty": 4428734449467,
  "gasLimit": {
    "_hex": "0x2fefd8"
  },
  "gasUsed": {
    "_hex": "0x5208"
  },
  "miner": "0xe6A7a1d47ff21B6321162AEA7C6CB457D5476Bca",
  "extraData": "0x476574682f76312e302e312d38326566323666362f6c696e75782f676f312e34",
  "transactions": [
    {
      "hash": "0xdef487de2416be47579575e0d9f4f87daec640881a8ee4fd90f6a9203bc9c06a",
      "blockHash": "0x97de7b132c543829591be6aedfa77189fef8cfeafa5549548042161ce880c73e",
      "blockNumber": 111562,
      "transactionIndex": 0,
      "confirmations": null,
      "from": "0x4245271A2F40593fb9F66A98202b3Dc1a8593cD2",
      "gasPrice": {
        "_hex": "0xe2a81ba6b"
      },
      "gasLimit": {
        "_hex": "0x15f90"
      },
      "to": "0x976349705b839e2F5719387Fb27D2519d519da03",
      "value": {
        "_hex": "0x470de4df820000"
      },
      "nonce": 3,
      "data": "0x",
      "r": "0x58f3e24ec1485222304ee443ac5d7337c52a1efd42cea44c8c39f350de7dcf92",
      "s": "0x7360c2d96fe1a8483689050349108432f1a941854a24a03eef2993880530d749",
      "v": 27,
      "creates": null,
      "raw": "0xf86c03850e2a81ba6b83015f9094976349705b839e2f5719387fb27d2519d519da0387470de4df820000801ba058f3e24ec1485222304ee443ac5d7337c52a1efd42cea44c8c39f350de7dcf92a07360c2d96fe1a8483689050349108432f1a941854a24a03eef2993880530d749",
      "networkId": 0,
      "chainId": 0
    }
  ]
}