{
  "hash": "0x72c7a979341a8819f65b6bdd0d3037dde3fc9ce71f5b8a89b20a7b5703547bde",
  "parentHash": "0x6192bcebf4cdb7723e260b30d6ffa4b6f3f694e0f5562dd8f541e84db92f2e27",
  "number": 58907,
  "timestamp": 1439128733,
  "nonce": "0xcd611827187aa18b",
  "difficulty": 1708976515320,
  "gasLimit": {
    "_hex": "0x2fefd8"
  },
  "gasUsed": {
    "_hex": "0x5208"
  },
  "miner": "0x88D74a59454F6cF3B51ef6b9136AFb6b9D405A88",
  "extraData": "0x476574682f76312e302e312d38326566323666362f6c696e75782f676f312e34",
  "transactions": [
    {
      "hash": "0x9d87229b4817a1252b57c18f8bdba75bfc996ba7637677ea94ad67614dc1cca1",
      "blockHash": "0x72c7a979341a8819f65b6bdd0d3037dde3fc9ce71f5b8a89b20a7b5703547bde",
      "blockNumber": 58907,
      "transactionIndex": 0,
      "confirmations": null,
      "from": "0xC2fe7d75731f636Dcd09DbDa0671393bA0C82a7d",
      "gasPrice": {
        "_hex": "0xdb66ba096"
      },
      "gasLimit": {
        "_hex": "0x15f90"
      },
      "to": "0xa94Ab2f554159a9A8a1F1b91A4a76f5eeA976564",
      "value": {
        "_hex": "0xde0b6b3a7640000"
      },
      "nonce": 1,
      "data": "0x",
      "r": "0x3b982133378055d9c70454ec952b12100dd33e1636eee383604fb178dfe1dbd1",
      "s": "0x1fcd7803bbc4c0b686e6b8bbf76b37213ecf65333aaa5782fe0b524f6ecda4bd",
      "v": 28,
      "creates": null,
      "raw": "0xf86d01850db66ba09683015f9094a94ab2f554159a9a8a1f1b91a4a76f5eea976564880de0b6b3a7640000801ca03b982133378055d9c70454ec952b12100dd33e1636eee383604fb178dfe1dbd1a01fcd7803bbc4c0b686e6b8bbf76b37213ecf65333aaa5782fe0b524f6ecda4bd",
      "networkId": 0,
      "chainId": 0
    }
  ]
}