{
  "hash": "0x07b2ac808090710c5502fda32a4b422ba167af0d60320d3c32a26d25c11fa2a0",
  "parentHash": "0xa5de88cf2e18668e11705ad68f6264f3c0826c1961ec4dcf39ad17cd6994e0e1",
  "number": 108827,
  "timestamp": 1439946775,
  "nonce": "0x68fb93b89e1c842b",
  "difficulty": 4376428020138,
  "gasLimit": {
    "_hex": "0x2fefd8"
  },
  "gasUsed": {
    "_hex": "0xa674"
  },
  "miner": "0xe6A7a1d47ff21B6321162AEA7C6CB457D5476Bca",
  "extraData": "0x476574682f76312e302e312d38326566323666362f6c696e75782f676f312e34",
  "transactions": [
    {
      "hash": "0x11183b0622622006c89339e600eba6ec09aa1804cfaa6a8be08a78fbe945d484",
      "blockHash": "0x07b2ac808090710c5502fda32a4b422ba167af0d60320d3c32a26d25c11fa2a0",
      "blockNumber": 108827,
      "transactionIndex": 0,
      "confirmations": null,
      "from": "0x40AB0a3E83d0C8ac9366910520Eab1772bAc3B1A",
      "gasPrice": {
        "_hex": "0x110c8f7d8de"
      },
      "gasLimit": {
        "_hex": "0xc350"
      },
      "to": "0x2910543Af39abA0Cd09dBb2D50200b3E800A63D2",
      "value": {
        "_hex": "0x34e8b88cee2d400000"
      },
      "nonce": 0,
      "data": "0x454e344d4d48364e30",
      "r": "0x79e583279068b28a521160980dcae4ce3f4fc406828f8f2328a498658c3a3b03",
      "s": "0xe6164709506e3332cb17ddcfadc4553e1fc7b84892d46fa7b7763af1a7867abf",
      "v": 27,
      "creates": null,
      "raw": "0xf87780860110c8f7d8de82c350942910543af39aba0cd09dbb2d50200b3e800a63d28934e8b88cee2d40000089454e344d4d48364e301ba079e583279068b28a521160980dcae4ce3f4fc406828f8f2328a498658c3a3b03a0e6164709506e3332cb17ddcfadc4553e1fc7b84892d46fa7b7763af1a7867abf",
      "networkId": 0,
      "chainId": 0
    },
    {
      "hash": "0x4f4d868255f04eec2e92676bf967ff90d70950fb73050ad73347d7aa0341c64b",
      "blockHash": "0x07b2ac808090710c5502fda32a4b422ba167af0d60320d3c32a26d25c11fa2a0",
      "blockNumber": 108827,
      "transactionIndex": 1,
      "confirmations": null,
      "from": "0x96008c0b0ED3cD56Dc42cD8aCF7886C13eb3C341",
      "gasPrice": {
        "_hex": "0xd5ec2eeac"
      },
      "gasLimit": {
        "_hex": "0x15f90"
      },
      "to": "0x5d4Ee23e18ec9ded020B58e37C2184Ce48Ac5959",
      "value": {
        "_hex": "0x2386f26fc10000"
      },
      "nonce": 0,
      "data": "0x",
      "r": "0x191bbf738a2cb8cd9c6d0f5de141ab2ba2cfa3b71798769c3b68dd49af160cab",
      "s": "0x1be787b665e9e729a383a0f0f1067f09bb5363bb1068e4fa7ac7d145acb5d83a",
      "v": 28,
      "creates": null,
      "raw": "0xf86c80850d5ec2eeac83015f90945d4ee23e18ec9ded020b58e37c2184ce48ac5959872386f26fc10000801ca0191bbf738a2cb8cd9c6d0f5de141ab2ba2cfa3b71798769c3b68dd49af160caba01be787b665e9e729a383a0f0f1067f09bb5363bb1068e4fa7ac7d145acb5d83a",
      "networkId": 0,
      "chainId": 0
    }
  ]
}