{
  "hash": "0x605f5b3a87adb70b8f1ad113555fd18e3c63052c6d52697a2dd10c4fe3e9b221",
  "parentHash": "0x965d3cfba6f8a4fadc44c805a466fab63ac45087e91f418ee9d40ed8a616faef",
  "number": 96281,
  "timestamp": 1439737839,
  "nonce": "0x67cce921d982ec61",
  "difficulty": 3676448509109,
  "gasLimit": {
    "_hex": "0x2fefd8"
  },
  "gasUsed": {
    "_hex": "0x5208"
  },
  "miner": "0x157c6f2431eB1a95797EE86F7d17b3c0FD47A247",
  "extraData": "0x476574682f76312e302e312f77696e646f77732f676f312e342e32",
  "transactions": [
    {
      "hash": "0xa8a0b55af8eb4203d22946d6fb5c6f5561180c09a0ef9404ffd71af161757112",
      "blockHash": "0x605f5b3a87adb70b8f1ad113555fd18e3c63052c6d52697a2dd10c4fe3e9b221",
      "blockNumber": 96281,
      "transactionIndex": 0,
      "confirmations": null,
      "from": "0xfE835cf9F715fec23A7dECbCa85D616e7f6E5Aec",
      "gasPrice": {
        "_hex": "0xba43b7400"
      },
      "gasLimit": {
        "_hex": "0x5208"
      },
      "to": "0xC47Aaa860008be6f65B58c6C6E02a84e666EfE31",
      "value": {
        "_hex": "0x38c9f3b33794c92b40"
      },
      "nonce": 1,
      "data": "0x",
      "r": "0xece2230de1ab900a9173e6c4edea33a9d85422f86c5c140541eb33506c15be25",
      "s": "0x733a48a0cbfa320e1b24bd366142835e17a1669e7c46f8c84572a63c85c963c5",
      "v": 27,
      "creates": null,
      "raw": "0xf86d01850ba43b740082520894c47aaa860008be6f65b58c6c6e02a84e666efe318938c9f3b33794c92b40801ba0ece2230de1ab900a9173e6c4edea33a9d85422f86c5c140541eb33506c15be25a0733a48a0cbfa320e1b24bd366142835e17a1669e7c46f8c84572a63c85c963c5",
      "networkId": 0,
      "chainId": 0
    }
  ]
}