{
  "hash": "0xe33a02a18b2dd5c8b94c4940170a582ae801e7b4dadf2958f4c80f5ab27e4700",
  "parentHash": "0x80ac5768dc477b2eda8b9020e50ca60985318f2be9a03055783a577203e1aee1",
  "number": 57109,
  "timestamp": 1439097577,
  "nonce": "0x2e8aaaede755f250",
  "difficulty": 1727803915195,
  "gasLimit": {
    "_hex": "0x2fefd8"
  },
  "gasUsed": {
    "_hex": "0x5208"
  },
  "miner": "0xbb7B8287f3F0a933474a79eAe42CBCa977791171",
  "extraData": "0x476574682f4c5649562f76312e302e312f6c696e75782f676f312e342e32",
  "transactions": [
    {
      "hash": "0x784dd021496e33d9106dd1ab99d63977cf2038e4417f85b7c7c6b61458071ba9",
      "blockHash": "0xe33a02a18b2dd5c8b94c4940170a582ae801e7b4dadf2958f4c80f5ab27e4700",
      "blockNumber": 57109,
      "transactionIndex": 0,
      "confirmations": null,
      "from": "0x120A270bbC009644e35F0bB6ab13f95b8199c4ad",
      "gasPrice": {
        "_hex": "0xd0a8b9e7b"
      },
      "gasLimit": {
        "_hex": "0x15f90"
      },
      "to": "0x26eAB902725342208bC79c5Bfa2C5fE795f7aeD6",
      "value": {
        "_hex": "0xd92799e532bec000"
      },
      "nonce": 37,
      "data": "0x",
      "r": "0xf095cfdbdf4829c75cf105731ace1c64a1f2b9effcd1435adf8db1e857d7e88f",
      "s": "0x47a2436c25d1ee5930175de28348ad699fe99e2dd9493655619648b1c4d7cab0",
      "v": 28,
      "creates": null,
      "raw": "0xf86d25850d0a8b9e7b83015f909426eab902725342208bc79c5bfa2c5fe795f7aed688d92799e532bec000801ca0f095cfdbdf4829c75cf105731ace1c64a1f2b9effcd1435adf8db1e857d7e88fa047a2436c25d1ee5930175de28348ad699fe99e2dd9493655619648b1c4d7cab0",
      "networkId": 0,
      "chainId": 0
    }
  ]
}