{
  "hash": "0xa584246073be859998df1a4bfd5bcbaa5bf33556c08e56172973a12e7ad274db",
  "parentHash": "0x254a1ee64a253842235f60ad20cbc9b3435d2bda960f5970acf6f8145807bf58",
  "number": 100766,
  "timestamp": 1439811976,
  "nonce": "0x0cb3e05092604ecd",
  "difficulty": 3852706307722,
  "gasLimit": {
    "_hex": "0x2fefd8"
  },
  "gasUsed": {
    "_hex": "0x5208"
  },
  "miner": "0xe6A7a1d47ff21B6321162AEA7C6CB457D5476Bca",
  "extraData": "0x476574682f76312e302e312d38326566323666362f6c696e75782f676f312e34",
  "transactions": [
    {
      "hash": "0x01aa57a6c44594b18e8e8b5f43e792c9f662e38d181c1918ef793196ca0bede2",
      "blockHash": "0xa584246073be859998df1a4bfd5bcbaa5bf33556c08e56172973a12e7ad274db",
      "blockNumber": 100766,
      "transactionIndex": 0,
      "confirmations": null,
      "from": "0x007f7f58D3eb5b7510A301eCC749FC1fCDDBE14D",
      "gasPrice": {
        "_hex": "0xe0cfe7246"
      },
      "gasLimit": {
        "_hex": "0x15f90"
      },
      "to": "0xb1abce2918E21ddb93AA452731a12672A3d9F75a",
      "value": {
        "_hex": "0x4563918244f40000"
      },
      "nonce": 170,
      "data": "0x",
      "r": "0xec0d993c7e8f5837412e6cce3bec7c07f882fa014af6d5cf017371d96b93f59b",
      "s": "0x6a7ae68fe39b3f0925662f487ce82375d4e1b7a84a34c6fdd3cadd91eec9baa5",
      "v": 27,
      "creates": null,
      "raw": "0xf86e81aa850e0cfe724683015f9094b1abce2918e21ddb93aa452731a12672a3d9f75a884563918244f40000801ba0ec0d993c7e8f5837412e6cce3bec7c07f882fa014af6d5cf017371d96b93f59ba06a7ae68fe39b3f0925662f487ce82375d4e1b7a84a34c6fdd3cadd91eec9baa5",
      "networkId": 0,
      "chainId": 0
    }
  ]
}