{
  "hash": "0x35cdb72d54f564b02b975840479ef1247172d8e2a915a123837eb9dc2d1bfcb7",
  "parentHash": "0xadbaea0d073c43eb5ee52960f14c8fb13e30313a8bab4db6caf0dda9775c253b",
  "number": 103054,
  "timestamp": 1439846933,
  "nonce": "0xc6a00e154409dd3b",
  "difficulty": 4176851702175,
  "gasLimit": {
    "_hex": "0x2fefd8"
  },
  "gasUsed": {
    "_hex": "0x5208"
  },
  "miner": "0xe6A7a1d47ff21B6321162AEA7C6CB457D5476Bca",
  "extraData": "0x476574682f76312e302e312d38326566323666362f6c696e75782f676f312e34",
  "transactions": [
    {
      "hash": "0xb462712b9349d92fefe49a2f4eb8709d31f7ca2347cbb96c6f496201d0928c6c",
      "blockHash": "0x35cdb72d54f564b02b975840479ef1247172d8e2a915a123837eb9dc2d1bfcb7",
      "blockNumber": 103054,
      "transactionIndex": 0,
      "confirmations": null,
      "from": "0x0e69F6C417CdE445c644E56256A7Ee7C371BF4FE",
      "gasPrice": {
        "_hex": "0xdd341fde7"
      },
      "gasLimit": {
        "_hex": "0x5208"
      },
      "to": "0x32Be343B94f860124dC4fEe278FDCBD38C102D88",
      "value": {
        "_hex": "0xdca79c18d9ad800"
      },
      "nonce": 0,
      "data": "0x",
      "r": "0x79ab1cd446de1310706a1737bb08d258329051f861b60891b6241727061c58e9",
      "s": "0x1359eab2f3ec051675902b8187c81d1c5cd2eb0584de9992b8ccd31f3fb39f89",
      "v": 27,
      "creates": null,
      "raw": "0xf86c80850dd341fde78252089432be343b94f860124dc4fee278fdcbd38c102d88880dca79c18d9ad800801ba079ab1cd446de1310706a1737bb08d258329051f861b60891b6241727061c58e9a01359eab2f3ec051675902b8187c81d1c5cd2eb0584de9992b8ccd31f3fb39f89",
      "networkId": 0,
      "chainId": 0
    }
  ]
}