{
  "hash": "0x046147326f93d73783fa42e1432d5aad93b66d22b843ee4304f2d63d03258fbd",
  "parentHash": "0x8899c647ff9a8bce44d8c0dde6d5e034a29f7d30ed16db1908e50f5b3abc4cc5",
  "number": 56952,
  "timestamp": 1439095160,
  "nonce": "0x6614b2f645206a41",
  "difficulty": 1706872711664,
  "gasLimit": {
    "_hex": "0x2fefd8"
  },
  "gasUsed": {
    "_hex": "0x5208"
  },
  "miner": "0x47ff6576639c2e94762eA5443978D7681C0E78DC",
  "extraData": "0x476574682f76312e302e312f6c696e75782f676f312e342e32",
  "transactions": [
    {
      "hash": "0x0769cf97d22b4fa16a0910d3d1360f8497ec95e627b3869e3e915242c20090d6",
      "blockHash": "0x046147326f93d73783fa42e1432d5aad93b66d22b843ee4304f2d63d03258fbd",
      "blockNumber": 56952,
      "transactionIndex": 0,
      "confirmations": null,
      "from": "0xD39316Ce6FEC761E38745686Ea9A3585701d2AEd",
      "gasPrice": {
        "_hex": "0xd09625870"
      },
      "gasLimit": {
        "_hex": "0x15f90"
      },
      "to": "0xC25f24A505b8fEF751D8f4FCc397651001F7a160",
      "value": {
        "_hex": "0x117a32e3da01f0000"
      },
      "nonce": 0,
      "data": "0x",
      "r": "0x8043c9b274cb5f1be917385b7aa353c4bda7a0cab1288d76d9cb07cbc9968a37",
      "s": "0x4d6022c96d3ea5873151204d28a7b47fe5f47d17f241a91997f9c3add00cb229",
      "v": 27,
      "creates": null,
      "raw": "0xf86e80850d0962587083015f9094c25f24a505b8fef751d8f4fcc397651001f7a160890117a32e3da01f0000801ba08043c9b274cb5f1be917385b7aa353c4bda7a0cab1288d76d9cb07cbc9968a37a04d6022c96d3ea5873151204d28a7b47fe5f47d17f241a91997f9c3add00cb229",
      "networkId": 0,
      "chainId": 0
    }
  ]
}