{
  "hash": "0xd95a0a0c47ca572d5fd294e9e746297017bf787bf698fd77f5ed1dea716766fe",
  "parentHash": "0x395302dd737b1cf5dd513fd466dc0340a0db13d958955243cd66245802e24c01",
  "number": 98260,
  "timestamp": 1439769581,
  "nonce": "0x9f50c375c5089a22",
  "difficulty": 3884083612249,
  "gasLimit": {
    "_hex": "0x2fefd8"
  },
  "gasUsed": {
    "_hex": "0x5208"
  },
  "miner": "0xe6A7a1d47ff21B6321162AEA7C6CB457D5476Bca",
  "extraData": "0x476574682f76312e302e312d38326566323666362f6c696e75782f676f312e34",
  "transactions": [
    {
      "hash": "0x5bc5a98f612fd3d1257181f560dd83cab1d4176318ea5fcd64baa8428966946f",
      "blockHash": "0xd95a0a0c47ca572d5fd294e9e746297017bf787bf698fd77f5ed1dea716766fe",
      "blockNumber": 98260,
      "transactionIndex": 0,
      "confirmations": null,
      "from": "0x120A270bbC009644e35F0bB6ab13f95b8199c4ad",
      "gasPrice": {
        "_hex": "0xcffd5a993"
      },
      "gasLimit": {
        "_hex": "0x3d090"
      },
      "to": "0xef39804Fd2836Ef471E13ecFa2B91C42C368cE76",
      "value": {
        "_hex": "0x1bc16d674ec80000"
      },
      "nonce": 655,
      "data": "0x",
      "r": "0x3a9f73ab8b2f5c4811872e4b24288b879d7eb42f267b923613978db8609b2179",
      "s": "0x5d6334bb725778b1a87e1be54fc7ff33cb610c2c6e7cd3ca6f76daf4b03793f6",
      "v": 28,
      "creates": null,
      "raw": "0xf86f82028f850cffd5a9938303d09094ef39804fd2836ef471e13ecfa2b91c42c368ce76881bc16d674ec80000801ca03a9f73ab8b2f5c4811872e4b24288b879d7eb42f267b923613978db8609b2179a05d6334bb725778b1a87e1be54fc7ff33cb610c2c6e7cd3ca6f76daf4b03793f6",
      "networkId": 0,
      "chainId": 0
    }
  ]
}