{
  "hash": "0x1a66884afe805fffcd2009d41200e52afbabb0a6eed9db3e939835d853ce744b",
  "parentHash": "0x65255296742bb00c02146d7a937a06b6d50441065599cbbcd4aa436f17341720",
  "number": 83229,
  "timestamp": 1439532259,
  "nonce": "0xe78ead7687d24834",
  "difficulty": 2414828073804,
  "gasLimit": {
    "_hex": "0x2fefd8"
  },
  "gasUsed": {
    "_hex": "0x5208"
  },
  "miner": "0x858079E02403b10748B71A02195b6608Abaf6b8f",
  "extraData": "0x476574682f76312e302e312f77696e646f77732f676f312e342e32",
  "transactions": [
    {
      "hash": "0x908cdfa3d6621c90e183e39ee961c3bec70673447dec4262c9ef8e25750aa9f3",
      "blockHash": "0x1a66884afe805fffcd2009d41200e52afbabb0a6eed9db3e939835d853ce744b",
      "blockNumber": 83229,
      "transactionIndex": 0,
      "confirmations": null,
      "from": "0x2910543Af39abA0Cd09dBb2D50200b3E800A63D2",
      "gasPrice": {
        "_hex": "0xdfdd55991"
      },
      "gasLimit": {
        "_hex": "0x5208"
      },
      "to": "0x289B9bA6dC9c12D3130F1115180397C20cCBF220",
      "value": {
        "_hex": "0xa0dfa7598201578000"
      },
      "nonce": 521,
      "data": "0x",
      "r": "0xbbf6f21581d88dabad9cde1d547b62b6fc2e5b4eeeefee50b95cdcc16b5b311d",
      "s": "0x3f0b077c107b31c6b7950845a558980a1a4634ef0bcbe98f74d5c35a4393037a",
      "v": 27,
      "creates": null,
      "raw": "0xf86f820209850dfdd5599182520894289b9ba6dc9c12d3130f1115180397c20ccbf22089a0dfa7598201578000801ba0bbf6f21581d88dabad9cde1d547b62b6fc2e5b4eeeefee50b95cdcc16b5b311da03f0b077c107b31c6b7950845a558980a1a4634ef0bcbe98f74d5c35a4393037a",
      "networkId": 0,
      "chainId": 0
    }
  ]
}