{
  "hash": "0x396a1541da2dac2d103139249a9ad50beba78af7192c84617ece0bc4ae804c85",
  "parentHash": "0x232dc52c5a8a40ccee32402da808b3b5150faa231ca64594f3f08fc132d859cc",
  "number": 79095,
  "timestamp": 1439464333,
  "nonce": "0x489b08e2fc27f981",
  "difficulty": 2321194303473,
  "gasLimit": {
    "_hex": "0x2fefd8"
  },
  "gasUsed": {
    "_hex": "0x802c8"
  },
  "miner": "0x3FF679B0823a026F2378E5f5F22A6F127cC85828",
  "extraData": "0x",
  "transactions": [
    {
      "hash": "0x6d9599a6a057fdd1852e2b46ab1ee093caae11a87f392dec6c99c1729cd6e48d",
      "blockHash": "0x396a1541da2dac2d103139249a9ad50beba78af7192c84617ece0bc4ae804c85",
      "blockNumber": 79095,
      "transactionIndex": 0,
      "confirmations": null,
      "from": "0xe6A7a1d47ff21B6321162AEA7C6CB457D5476Bca",
      "gasPrice": {
        "_hex": "0xcdf7d237f"
      },
      "gasLimit": {
        "_hex": "0x55f0"
      },
      "to": "0xC8224326e29eD30AEEC1B70ec238A818169ecaBA",
      "value": {
        "_hex": "0x498903b8c8120870"
      },
      "nonce": 1199,
      "data": "0x",
      "r": "0xdd883db07e562c8e3f61259f0666e3ab9d4c2602d80d18b01dede0f9503472af",
      "s": "0x41fcb7cf2e3ee381fc749142eaddb36a927f88451e750d500236eb979779ae29",
      "v": 27,
      "creates": null,
      "raw": "0xf86e8204af850cdf7d237f8255f094c8224326e29ed30aeec1b70ec238a818169ecaba88498903b8c8120870801ba0dd883db07e562c8e3f61259f0666e3ab9d4c2602d80d18b01dede0f9503472afa041fcb7cf2e3ee381fc749142eaddb36a927f88451e750d500236eb979779ae29",
      "networkId": 0,
      "chainId": 0
    },
    {
      "hash": "0x2d01f5387ec00049ed92190820424e75b60d28493b7d7711069eda03d78e3140",
      "blockHash": "0x396a1541da2dac2d103139249a9ad50beba78af7192c84617ece0bc4ae804c85",
      "blockNumber": 79095,
      "transactionIndex": 1,
      "confirmations": null,
      "from": "0xe6A7a1d47ff21B6321162AEA7C6CB457D5476Bca",
      "gasPrice": {
        "_hex": "0xcdf7d237f"
      },
      "gasLimit": {
        "_hex": "0x55f0"
      },
      "to": "0xBf2E71Ec98f4FAbfFC80EAc8f941ce73d5e02E9b",
      "value": {
        "_hex": "0x4a69c9f0c56cdc50"
      },
      "nonce": 1200,
      "data": "0x",
      "r": "0xa461f0774f445bbd2990fa8faad2472d1af5f35d8f4b439e1f503600a409caea",
      "s": "0x380a13934a70e15c41bf83c1e3ca78efd623c863861150b7575cc5b6ca94cc6f",
      "v": 28,
      "creates": null,
      "raw": "0xf86e8204b0850cdf7d237f8255f094bf2e71ec98f4fabffc80eac8f941ce73d5e02e9b884a69c9f0c56cdc50801ca0a461f0774f445bbd2990fa8faad2472d1af5f35d8f4b439e1f503600a409caeaa0380a13934a70e15c41bf83c1e3ca78efd623c863861150b7575cc5b6ca94cc6f",
      "networkId": 0,
      "chainId": 0
    },
    {
      "hash": "0xd5ca60546d50c0f8e8ddbc64d4a588c1f63e12a6bc7e4c98c79c321f8c731eb6",
      "blockHash": "0x396a1541da2dac2d103139249a9ad50beba78af7192c84617ece0bc4ae804c85",
      "blockNumber": 79095,
      "transactionIndex": 2,
      "confirmations": null,
      "from": "0xe6A7a1d47ff21B6321162AEA7C6CB457D5476Bca",
      "gasPrice": {
        "_hex": "0xcdf7d237f"
      },
      "gasLimit": {
        "_hex": "0x55f0"
      },
      "to": "0xDD6f935a791F13ce18c10310c688E09cfc4a5d60",
      "value": {
        "_hex": "0x4aed9d755410e6c8"
      },
      "nonce": 1201,
      "data": "0x",
      "r": "0x3fd9cd6caa041169bdb423ca8d2929d1af38be6d5a2ab94a9674ad2a10385ae1",
      "s": "0x16a4b984439afb7dbda012c84f985b92e7e5a0e1f92fd751e0ee95a959c07f3d",
      "v": 28,
      "creates": null,
      "raw": "0xf86e8204b1850cdf7d237f8255f094dd6f935a791f13ce18c10310c688e09cfc4a5d60884aed9d755410e6c8801ca03fd9cd6caa041169bdb423ca8d2929d1af38be6d5a2ab94a9674ad2a10385ae1a016a4b984439afb7dbda012c84f985b92e7e5a0e1f92fd751e0ee95a959c07f3d",
      "networkId": 0,
      "chainId": 0
    },
    {
      "hash": "0x9e4fb8deb8a77eaeb67a48253578b3f981c477cac875701ce7c77f25db329499",
      "blockHash": "0x396a1541da2dac2d103139249a9ad50beba78af7192c84617ece0bc4ae804c85",
      "blockNumber": 79095,
      "transactionIndex": 3,
      "confirmations": null,
      "from": "0xe6A7a1d47ff21B6321162AEA7C6CB457D5476Bca",
      "gasPrice": {
        "_hex": "0xcdf7d237f"
      },
      "gasLimit": {
        "_hex": "0x55f0"
      },
      "to": "0x605C4282130e22ae43d0e95728788988fA800894",
      "value": {
        "_hex": "0x4b70bf9c33194470"
      },
      "nonce": 1202,
      "data": "0x",
      "r": "0xec5d25deddd3c361393e3825165fabba3252170c2793526ec5981462b531a310",
      "s": "0x5edc805a5feeeb2605bec042a762afb27a788843a1638c762dffde83821565f5",
      "v": 28,
      "creates": null,
      "raw": "0xf86e8204b2850cdf7d237f8255f094605c4282130e22ae43d0e95728788988fa800894884b70bf9c33194470801ca0ec5d25deddd3c361393e3825165fabba3252170c2793526ec5981462b531a310a05edc805a5feeeb2605bec042a762afb27a788843a1638c762dffde83821565f5",
      "networkId": 0,
      "chainId": 0
    },
    {
      "hash": "0x78122bb58f19718091265ed3bef0464d9ac15fda5712a316173dc42791ea46a9",
      "blockHash": "0x396a1541da2dac2d103139249a9ad50beba78af7192c84617ece0bc4ae804c85",
      "blockNumber": 79095,
      "transactionIndex": 4,
      "confirmations": null,
      "from": "0xe6A7a1d47ff21B6321162AEA7C6CB457D5476Bca",
      "gasPrice": {
        "_hex": "0xcdf7d237f"
      },
      "gasLimit": {
        "_hex": "0x55f0"
      },
      "to": "0x60781265e9850f54AE0Bc9545948d05DeE6FC3e3",
      "value": {
        "_hex": "0x4cc4409d344d7ba0"
      },
      "nonce": 1203,
      "data": "0x",
      "r": "0x058374ebafe1a6747d864524cc6230d1d11ea27291ba77382aa06777cba77136",
      "s": "0x07f6da8141c6e095807ed23b6cc902768ac72c6ab4773f5248d4b6fa73e53d31",
      "v": 27,
      "creates": null,
      "raw": "0xf86e8204b3850cdf7d237f8255f09460781265e9850f54ae0bc9545948d05dee6fc3e3884cc4409d344d7ba0801ba0058374ebafe1a6747d864524cc6230d1d11ea27291ba77382aa06777cba77136a007f6da8141c6e095807ed23b6cc902768ac72c6ab4773f5248d4b6fa73e53d31",
      "networkId": 0,
      "chainId": 0
    },
    {
      "hash": "0xfcc22fcf90789ce48a1b7a0342faadd85bf04bbd74b28135f4ff2b74577ccc33",
      "blockHash": "0x396a1541da2dac2d103139249a9ad50beba78af7192c84617ece0bc4ae804c85",
      "blockNumber": 79095,
      "transactionIndex": 5,
      "confirmations": null,
      "from": "0xe6A7a1d47ff21B6321162AEA7C6CB457D5476Bca",
      "gasPrice": {
        "_hex": "0xcdf7d237f"
      },
      "gasLimit": {
        "_hex": "0x55f0"
      },
      "to": "0x702bD0d370bBf0B97B66FE95578c62697c583393",
      "value": {
        "_hex": "0x4d6c1693de576150"
      },
      "nonce": 1204,
      "data": "0x",
      "r": "0x101224315bd681381f290c63ecdd59287f85daf6b4e15ca01fa9d3d0d1faf869",
      "s": "0x3d0cc3fe9c6e35b74327905bf6e3ffe84e9ab2814133335b9322dd73a675ab01",
      "v": 28,
      "creates": null,
      "raw": "0xf86e8204b4850cdf7d237f8255f094702bd0d370bbf0b97b66fe95578c62697c583393884d6c1693de576150801ca0101224315bd681381f290c63ecdd59287f85daf6b4e15ca01fa9d3d0d1faf869a03d0cc3fe9c6e35b74327905bf6e3ffe84e9ab2814133335b9322dd73a675ab01",
      "networkId": 0,
      "chainId": 0
    },
    {
      "hash": "0x4c5395c56e298c914780fd3750615106446d1b93d9576f5c0180aec4e15a98b9",
      "blockHash": "0x396a1541da2dac2d103139249a9ad50beba78af7192c84617ece0bc4ae804c85",
      "blockNumber": 79095,
      "transactionIndex": 6,
      "confirmations": null,
      "from": "0xe6A7a1d47ff21B6321162AEA7C6CB457D5476Bca",
      "gasPrice": {
        "_hex": "0xcdf7d237f"
      },
      "gasLimit": {
        "_hex": "0x55f0"
      },
      "to": "0x59C62d3D43f9EA1c4118d98c188AA5d028b8bB8E",
      "value": {
        "_hex": "0x4dfc428def1aeeb0"
      },
      "nonce": 1205,
      "data": "0x",
      "r": "0x22173640850277664b6ece608ea444d26c856aff6b538eabea082eba978a8d2b",
      "s": "0x12a81ef3f78d74f600a5c9c6d5f8f3483e4d3a8b16a091417e44ccfe08daa9ab",
      "v": 28,
      "creates": null,
      "raw": "0xf86e8204b5850cdf7d237f8255f09459c62d3d43f9ea1c4118d98c188aa5d028b8bb8e884dfc428def1aeeb0801ca022173640850277664b6ece608ea444d26c856aff6b538eabea082eba978a8d2ba012a81ef3f78d74f600a5c9c6d5f8f3483e4d3a8b16a091417e44ccfe08daa9ab",
      "networkId": 0,
      "chainId": 0
    },
    {
      "hash": "0xa2a11d9c3d60a7756606c33396069dfcb9e590d1fde3e1255a9f497869e07ff0",
      "blockHash": "0x396a1541da2dac2d103139249a9ad50beba78af7192c84617ece0bc4ae804c85",
      "blockNumber": 79095,
      "transactionIndex": 7,
      "confirmations": null,
      "from": "0xe6A7a1d47ff21B6321162AEA7C6CB457D5476Bca",
      "gasPrice": {
        "_hex": "0xcdf7d237f"
      },
      "gasLimit": {
        "_hex": "0x55f0"
      },
      "to": "0xCadcea36EC3feB740167E4370777fab1549F8759",
      "value": {
        "_hex": "0x4f08caa8b1932840"
      },
      "nonce": 1206,
      "data": "0x",
      "r": "0xfd313724df34ea03fe2c80ad511e77743e0b7de544c6d861933bf661c091e644",
      "s": "0x3a76b3380f58ec4120836d86f23911d92811512649bc4bb2cf9e964ae30a40a5",
      "v": 27,
      "creates": null,
      "raw": "0xf86e8204b6850cdf7d237f8255f094cadcea36ec3feb740167e4370777fab1549f8759884f08caa8b1932840801ba0fd313724df34ea03fe2c80ad511e77743e0b7de544c6d861933bf661c091e644a03a76b3380f58ec4120836d86f23911d92811512649bc4bb2cf9e964ae30a40a5",
      "networkId": 0,
      "chainId": 0
    },
    {
      "hash": "0x80db75864af499fcfab61b893e5e661e043810dfa4c7ac985daf596d7ded77c2",
      "blockHash": "0x396a1541da2dac2d103139249a9ad50beba78af7192c84617ece0bc4ae804c85",
      "blockNumber": 79095,
      "transactionIndex": 8,
      "confirmations": null,
      "from": "0xe6A7a1d47ff21B6321162AEA7C6CB457D5476Bca",
      "gasPrice": {
        "_hex": "0xcdf7d237f"
      },
      "gasLimit": {
        "_hex": "0x55f0"
      },
      "to": "0x5A698FA3F55962225Cd42eb7bE1ECA74d666d1b6",
      "value": {
        "_hex": "0x4f457096fc18fab8"
      },
      "nonce": 1207,
      "data": "0x",
      "r": "0x86062ede146516c2a0b67d5636b4932450c1ff35b0187672dc3c6b8539233e12",
      "s": "0x4ed4765747d2e44039e334a1c61522fc2a9508ea9ada1716498923bfa1df49a2",
      "v": 27,
      "creates": null,
      "raw": "0xf86e8204b7850cdf7d237f8255f0945a698fa3f55962225cd42eb7be1eca74d666d1b6884f457096fc18fab8801ba086062ede146516c2a0b67d5636b4932450c1ff35b0187672dc3c6b8539233e12a04ed4765747d2e44039e334a1c61522fc2a9508ea9ada1716498923bfa1df49a2",
      "networkId": 0,
      "chainId": 0
    },
    {
      "hash": "0x5f81302530604205d4c4e8555608e0083a1b22dd0117ab0e6a49599b95cb2d13",
      "blockHash": "0x396a1541da2dac2d103139249a9ad50beba78af7192c84617ece0bc4ae804c85",
      "blockNumber": 79095,
      "transactionIndex": 9,
      "confirmations": null,
      "from": "0xe6A7a1d47ff21B6321162AEA7C6CB457D5476Bca",
      "gasPrice": {
        "_hex": "0xcdf7d237f"
      },
      "gasLimit": {
        "_hex": "0x55f0"
      },
      "to": "0x10BD1134A760f6b35247e3cb33673a18bC95a7E7",
      "value": {
        "_hex": "0x4ff8394902f54188"
      },
      "nonce": 1208,
      "data": "0x",
      "r": "0x7c0d31befb2b5b59862082c7f85bd8fe0a840c9296c3cfaefbbce61f1ae48110",
      "s": "0x51b1de14a374f2b4d66f29744d078a73c93e10d878a086868d3aeeab89f37008",
      "v": 27,
      "creates": null,
      "raw": "0xf86e8204b8850cdf7d237f8255f09410bd1134a760f6b35247e3cb33673a18bc95a7e7884ff8394902f54188801ba07c0d31befb2b5b59862082c7f85bd8fe0a840c9296c3cfaefbbce61f1ae48110a051b1de14a374f2b4d66f29744d078a73c93e10d878a086868d3aeeab89f37008",
      "networkId": 0,
      "chainId": 0
    },
    {
      "hash": "0x43b3d0b1580c74ccfd81420597e5afc5bbddd7ab3fcd25a00a56256b7cc4c0e8",
      "blockHash": "0x396a1541da2dac2d103139249a9ad50beba78af7192c84617ece0bc4ae804c85",
      "blockNumber": 79095,
      "transactionIndex": 10,
      "confirmations": null,
      "from": "0xe6A7a1d47ff21B6321162AEA7C6CB457D5476Bca",
      "gasPrice": {
        "_hex": "0xcdf7d237f"
      },
      "gasLimit": {
        "_hex": "0x55f0"
      },
      "to": "0xEa4933866ad977Ce24bBb244ECc2C79463454Fe4",
      "value": {
        "_hex": "0x5115a4bff6cb0298"
      },
      "nonce": 1209,
      "data": "0x",
      "r": "0xd7a100121823a15782bc3b25b40fa2809f3fe0586afc85f03db906841a484113",
      "s": "0x6bf38f67d803a9c11e73342dc2f1530d06f83f1e0aeb628429c3395a31967906",
      "v": 28,
      "creates": null,
      "raw": "0xf86e8204b9850cdf7d237f8255f094ea4933866ad977ce24bbb244ecc2c79463454fe4885115a4bff6cb0298801ca0d7a100121823a15782bc3b25b40fa2809f3fe0586afc85f03db906841a484113a06bf38f67d803a9c11e73342dc2f1530d06f83f1e0aeb628429c3395a31967906",
      "networkId": 0,
      "chainId": 0
    },
    {
      "hash": "0xcb1f0f36dc69618f0fd578e063a5c6fe9009f9423712fd386a4212fffac76271",
      "blockHash": "0x396a1541da2dac2d103139249a9ad50beba78af7192c84617ece0bc4ae804c85",
      "blockNumber": 79095,
      "transactionIndex": 11,
      "confirmations": null,
      "from": "0xe6A7a1d47ff21B6321162AEA7C6CB457D5476Bca",
      "gasPrice": {
        "_hex": "0xcdf7d237f"
      },
      "gasLimit": {
        "_hex": "0x55f0"
      },
      "to": "0x519DC97eF09491aE962A8F13fe144c71feca4662",
      "value": {
        "_hex": "0x5158911e5a409990"
      },
      "nonce": 1210,
      "data": "0x",
      "r": "0x9e21be5dbbc1fc31e5d1e153a70c6095aa3d33ff5d40826ca0c46ebf8521ea55",
      "s": "0x2e6907975a3809e90ffe8840ff592078a96492eac2bc1fdb6c5b4796a485da3f",
      "v": 28,
      "creates": null,
      "raw": "0xf86e8204ba850cdf7d237f8255f094519dc97ef09491ae962a8f13fe144c71feca4662885158911e5a409990801ca09e21be5dbbc1fc31e5d1e153a70c6095aa3d33ff5d40826ca0c46ebf8521ea55a02e6907975a3809e90ffe8840ff592078a96492eac2bc1fdb6c5b4796a485da3f",
      "networkId": 0,
      "chainId": 0
    },
    {
      "hash": "0xbd52a18085d52779484271d9dc46517ce262475a3c64d16c98b57ef1fd43dae7",
      "blockHash": "0x396a1541da2dac2d103139249a9ad50beba78af7192c84617ece0bc4ae804c85",
      "blockNumber": 79095,
      "transactionIndex": 12,
      "confirmations": null,
      "from": "0xe6A7a1d47ff21B6321162AEA7C6CB457D5476Bca",
      "gasPrice": {
        "_hex": "0xcdf7d237f"
      },
      "gasLimit": {
        "_hex": "0x55f0"
      },
      "to": "0x94c4f7b5aaF084e74A7611900D93eaDeA47A137F",
      "value": {
        "_hex": "0x5287dc5d6ad68048"
      },
      "nonce": 1211,
      "data": "0x",
      "r": "0x66f646b011bbc8968fef563b9617fb9042042cb0d18dbf8001692be82df770d3",
      "s": "0x09eba5d1d48ae885c56a7a400eab6a6c8c463adc8acbf00bc8b68cc677836b3c",
      "v": 28,
      "creates": null,
      "raw": "0xf86e8204bb850cdf7d237f8255f09494c4f7b5aaf084e74a7611900d93eadea47a137f885287dc5d6ad68048801ca066f646b011bbc8968fef563b9617fb9042042cb0d18dbf8001692be82df770d3a009eba5d1d48ae885c56a7a400eab6a6c8c463adc8acbf00bc8b68cc677836b3c",
      "networkId": 0,
      "chainId": 0
    },
    {
      "hash": "0xef1f40fd245018ac8956ba064ae4a584716c4c2566c4fd4e74c61aba68a61296",
      "blockHash": "0x396a1541da2dac2d103139249a9ad50beba78af7192c84617ece0bc4ae804c85",
      "blockNumber": 79095,
      "transactionIndex": 13,
      "confirmations": null,
      "from": "0xe6A7a1d47ff21B6321162AEA7C6CB457D5476Bca",
      "gasPrice": {
        "_hex": "0xcdf7d237f"
      },
      "gasLimit": {
        "_hex": "0x55f0"
      },
      "to": "0x0a856CdC3EaFBAD120c51220d0F71d4Aa2Dee7AE",
      "value": {
        "_hex": "0x535088c98d5bd910"
      },
      "nonce": 1212,
      "data": "0x",
      "r": "0x15187ae54baa55004e45fc0c12f257c06e4bbc7279c2e9dc21f24675a9331b62",
      "s": "0x428b8d553418a9a37a3df579c7060bb64b28c0ab849eacde040ecbbd3863a8d6",
      "v": 28,
      "creates": null,
      "raw": "0xf86e8204bc850cdf7d237f8255f0940a856cdc3eafbad120c51220d0f71d4aa2dee7ae88535088c98d5bd910801ca015187ae54baa55004e45fc0c12f257c06e4bbc7279c2e9dc21f24675a9331b62a0428b8d553418a9a37a3df579c7060bb64b28c0ab849eacde040ecbbd3863a8d6",
      "networkId": 0,
      "chainId": 0
    },
    {
      "hash": "0x27538b074824b736f7e563e7151ce9562d95286d8c62a3af44572ff8e8540445",
      "blockHash": "0x396a1541da2dac2d103139249a9ad50beba78af7192c84617ece0bc4ae804c85",
      "blockNumber": 79095,
      "transactionIndex": 14,
      "confirmations": null,
      "from": "0xe6A7a1d47ff21B6321162AEA7C6CB457D5476Bca",
      "gasPrice": {
        "_hex": "0xcdf7d237f"
      },
      "gasLimit": {
        "_hex": "0x55f0"
      },
      "to": "0x34d34F0a638F6991e4E2536F41295DF6E934A646",
      "value": {
        "_hex": "0x53d058ef3a05fc70"
      },
      "nonce": 1213,
      "data": "0x",
      "r": "0x10eeb9ac2d945ef200d2931fd4bbee9516118a6d7e0b4bf448dc693c84d10e23",
      "s": "0x169e4a44c6f705f131c26059a0acaa63bbdfefd6c10c3a89193a6ee06c9ed683",
      "v": 28,
      "creates": null,
      "raw": "0xf86e8204bd850cdf7d237f8255f09434d34f0a638f6991e4e2536f41295df6e934a6468853d058ef3a05fc70801ca010eeb9ac2d945ef200d2931fd4bbee9516118a6d7e0b4bf448dc693c84d10e23a0169e4a44c6f705f131c26059a0acaa63bbdfefd6c10c3a89193a6ee06c9ed683",
      "networkId": 0,
      "chainId": 0
    },
    {
      "hash": "0xf142e0d13b15d99d2010b2d9db313a9d0c4d3fad97478080bd3d619d3ca6efb1",
      "blockHash": "0x396a1541da2dac2d103139249a9ad50beba78af7192c84617ece0bc4ae804c85",
      "blockNumber": 79095,
      "transactionIndex": 15,
      "confirmations": null,
      "from": "0xe6A7a1d47ff21B6321162AEA7C6CB457D5476Bca",
      "gasPrice": {
        "_hex": "0xcdf7d237f"
      },
      "gasLimit": {
        "_hex": "0x55f0"
      },
      "to": "0xB89C0F465b0472fa5A58eCDd01eD937205ae4d06",
      "value": {
        "_hex": "0x558ee78a2e2071a8"
      },
      "nonce": 1214,
      "data": "0x",
      "r": "0xf1c7cd6ef7e148e7379b9292546b89262dfda52a92d931e5eb108920bc05c7fb",
      "s": "0x0b75ce46552a9faced653b58e51e46ceb3d7db563ef01507606501b355d2c1a3",
      "v": 27,
      "creates": null,
      "raw": "0xf86e8204be850cdf7d237f8255f094b89c0f465b0472fa5a58ecdd01ed937205ae4d0688558ee78a2e2071a8801ba0f1c7cd6ef7e148e7379b9292546b89262dfda52a92d931e5eb108920bc05c7fba00b75ce46552a9faced653b58e51e46ceb3d7db563ef01507606501b355d2c1a3",
      "networkId": 0,
      "chainId": 0
    },
    {
      "hash": "0xe0d5721d7f9d0dfdafa32b1fdc07c938f826ba5ac0c76d14c0fcd9bff2cfe622",
      "blockHash": "0x396a1541da2dac2d103139249a9ad50beba78af7192c84617ece0bc4ae804c85",
      "blockNumber": 79095,
      "transactionIndex": 16,
      "confirmations": null,
      "from": "0xe6A7a1d47ff21B6321162AEA7C6CB457D5476Bca",
      "gasPrice": {
        "_hex": "0xcdf7d237f"
      },
      "gasLimit": {
        "_hex": "0x55f0"
      },
      "to": "0x1c69e6202df7794272b70FaEa8f7408c856B1f08",
      "value": {
        "_hex": "0x55bbd9372e77d080"
      },
      "nonce": 1215,
      "data": "0x",
      "r": "0xac67792d7557935af6c7b49a6dde02d526271c562025acae68116fdced070119",
      "s": "0x22eadde9fec8ebd2b6e7fd6734fc62fec66608a1e746ca4a1b6a14bf2bfe7c8a",
      "v": 27,
      "creates": null,
      "raw": "0xf86e8204bf850cdf7d237f8255f0941c69e6202df7794272b70faea8f7408c856b1f088855bbd9372e77d080801ba0ac67792d7557935af6c7b49a6dde02d526271c562025acae68116fdced070119a022eadde9fec8ebd2b6e7fd6734fc62fec66608a1e746ca4a1b6a14bf2bfe7c8a",
      "networkId": 0,
      "chainId": 0
    },
    {
      "hash": "0xc1718598a2f52af5c865dc98deb13f063109b2591ddd879ee171c459a9b60c1b",
      "blockHash": "0x396a1541da2dac2d103139249a9ad50beba78af7192c84617ece0bc4ae804c85",
      "blockNumber": 79095,
      "transactionIndex": 17,
      "confirmations": null,
      "from": "0xe6A7a1d47ff21B6321162AEA7C6CB457D5476Bca",
      "gasPrice": {
        "_hex": "0xcdf7d237f"
      },
      "gasLimit": {
        "_hex": "0x55f0"
      },
      "to": "0x61E20833179bA2eCCc2065e5F733CC8CdA7394c0",
      "value": {
        "_hex": "0x57ac1f21115a88b8"
      },
      "nonce": 1216,
      "data": "0x",
      "r": "0xa1156f58401b8f92a3487cbfdd5d7bacd451ca1017f52e32ed737224b1b17dea",
      "s": "0x6c63c68a2118f39b992fce4628da7773b18346a0a2da142a189c7dc2f0927fca",
      "v": 27,
      "creates": null,
      "raw": "0xf86e8204c0850cdf7d237f8255f09461e20833179ba2eccc2065e5f733cc8cda7394c08857ac1f21115a88b8801ba0a1156f58401b8f92a3487cbfdd5d7bacd451ca1017f52e32ed737224b1b17deaa06c63c68a2118f39b992fce4628da7773b18346a0a2da142a189c7dc2f0927fca",
      "networkId": 0,
      "chainId": 0
    },
    {
      "hash": "0x1dc501710ffd478bb8a4985aa2679ae16bf8ef7ddac5db26ee9dab497b7ea0fd",
      "blockHash": "0x396a1541da2dac2d103139249a9ad50beba78af7192c84617ece0bc4ae804c85",
      "blockNumber": 79095,
      "transactionIndex": 18,
      "confirmations": null,
      "from": "0xe6A7a1d47ff21B6321162AEA7C6CB457D5476Bca",
      "gasPrice": {
        "_hex": "0xcdf7d237f"
      },
      "gasLimit": {
        "_hex": "0x55f0"
      },
      "to": "0xb4eb03c9bDD4944DE22085E8e1dB5Ebd36889Bd8",
      "value": {
        "_hex": "0x5855f8982c9100d0"
      },
      "nonce": 1217,
      "data": "0x",
      "r": "0x616dca08c5308da5cffa2b0953ff229ed42e0ca5ddeca862853458297c559e6e",
      "s": "0x188147368ec4a8d7fb093039ab907954f02b65e39c4bad23858dd31b790eafd5",
      "v": 27,
      "creates": null,
      "raw": "0xf86e8204c1850cdf7d237f8255f094b4eb03c9bdd4944de22085e8e1db5ebd36889bd8885855f8982c9100d0801ba0616dca08c5308da5cffa2b0953ff229ed42e0ca5ddeca862853458297c559e6ea0188147368ec4a8d7fb093039ab907954f02b65e39c4bad23858dd31b790eafd5",
      "networkId": 0,
      "chainId": 0
    },
    {
      "hash": "0xfd0352db308e10c435ecb9cadb676a7b354ba95dd08ef4e6bdcf6eb5aca47dd2",
      "blockHash": "0x396a1541da2dac2d103139249a9ad50beba78af7192c84617ece0bc4ae804c85",
      "blockNumber": 79095,
      "transactionIndex": 19,
      "confirmations": null,
      "from": "0xe6A7a1d47ff21B6321162AEA7C6CB457D5476Bca",
      "gasPrice": {
        "_hex": "0xcdf7d237f"
      },
      "gasLimit": {
        "_hex": "0x55f0"
      },
      "to": "0xF9d39b090fBC6669b52606272a0Cea56BDAb638A",
      "value": {
        "_hex": "0x5c40132ffdc65bb0"
      },
      "nonce": 1218,
      "data": "0x",
      "r": "0x4a553ad610a15bbdc1e13b5688a7fa7614b2073f0d3c82b2de30b8679c6352d5",
      "s": "0x49027776dd8e2731c61f01afe3a6d7ced64ba0efaf5bd13a5533bacea0601321",
      "v": 27,
      "creates": null,
      "raw": "0xf86e8204c2850cdf7d237f8255f094f9d39b090fbc6669b52606272a0cea56bdab638a885c40132ffdc65bb0801ba04a553ad610a15bbdc1e13b5688a7fa7614b2073f0d3c82b2de30b8679c6352d5a049027776dd8e2731c61f01afe3a6d7ced64ba0efaf5bd13a5533bacea0601321",
      "networkId": 0,
      "chainId": 0
    },
    {
      "hash": "0x9182da9e40677e419e5026756af2e9203a6a6a3044931743c44170c4120b0569",
      "blockHash": "0x396a1541da2dac2d103139249a9ad50beba78af7192c84617ece0bc4ae804c85",
      "blockNumber": 79095,
      "transactionIndex": 20,
      "confirmations": null,
      "from": "0xe6A7a1d47ff21B6321162AEA7C6CB457D5476Bca",
      "gasPrice": {
        "_hex": "0xcdf7d237f"
      },
      "gasLimit": {
        "_hex": "0x55f0"
      },
      "to": "0x4b0a38C16B842d68A8721B4CAd662e07cc430652",
      "value": {
        "_hex": "0x5ca9a58554dc3108"
      },
      "nonce": 1219,
      "data": "0x",
      "r": "0xdd2cf0dd9beb6a87dbc82ee8700f142596e3003b4531fdbb67817a1cd73b52ba",
      "s": "0x43d84a884a0107cfc223c2f1e3a016631237371e030fba3f62eba12b62e9e09b",
      "v": 27,
      "creates": null,
      "raw": "0xf86e8204c3850cdf7d237f8255f0944b0a38c16b842d68a8721b4cad662e07cc430652885ca9a58554dc3108801ba0dd2cf0dd9beb6a87dbc82ee8700f142596e3003b4531fdbb67817a1cd73b52baa043d84a884a0107cfc223c2f1e3a016631237371e030fba3f62eba12b62e9e09b",
      "networkId": 0,
      "chainId": 0
    },
    {
      "hash": "0x8c2ce4c31c680fed917ff779229837f0b2c038cd9c89f45bf90cf4fb22e69fb4",
      "blockHash": "0x396a1541da2dac2d103139249a9ad50beba78af7192c84617ece0bc4ae804c85",
      "blockNumber": 79095,
      "transactionIndex": 21,
      "confirmations": null,
      "from": "0xe6A7a1d47ff21B6321162AEA7C6CB457D5476Bca",
      "gasPrice": {
        "_hex": "0xcdf7d237f"
      },
      "gasLimit": {
        "_hex": "0x55f0"
      },
      "to": "0x6c716b5177cC5c983057af4D88F7152ebA2CC0a6",
      "value": {
        "_hex": "0x5d6be133865ea6f0"
      },
      "nonce": 1220,
      "data": "0x",
      "r": "0x4797b0d37fab2eb441d8e6e57164e1a142d4af9a565fe8530e8f697a5e493911",
      "s": "0x421379930e9c2bce74af5b5e221979bca3819cceca5fa7b66341f2d85a61f49d",
      "v": 28,
      "creates": null,
      "raw": "0xf86e8204c4850cdf7d237f8255f0946c716b5177cc5c983057af4d88f7152eba2cc0a6885d6be133865ea6f0801ca04797b0d37fab2eb441d8e6e57164e1a142d4af9a565fe8530e8f697a5e493911a0421379930e9c2bce74af5b5e221979bca3819cceca5fa7b66341f2d85a61f49d",
      "networkId": 0,
      "chainId": 0
    },
    {
      "hash": "0x68b720159fafef8d8f944f885b3e938c2c882754031c621965ac79269c70ff16",
      "blockHash": "0x396a1541da2dac2d103139249a9ad50beba78af7192c84617ece0bc4ae804c85",
      "blockNumber": 79095,
      "transactionIndex": 22,
      "confirmations": null,
      "from": "0xe6A7a1d47ff21B6321162AEA7C6CB457D5476Bca",
      "gasPrice": {
        "_hex": "0xcdf7d237f"
      },
      "gasLimit": {
        "_hex": "0x55f0"
      },
      "to": "0xBf7d5E6CD66bc79d7759B640cbe188bCFA030cc4",
      "value": {
        "_hex": "0x5e4ee10e66f316c0"
      },
      "nonce": 1221,
      "data": "0x",
      "r": "0x7044942ed57587b173b89ccae6b6533bf5291a66f82baf4694c08a99e0871adf",
      "s": "0x25cfa9f117d95f316fb3c77823e485de18f49465b5e068b09a0561e3c365df6a",
      "v": 27,
      "creates": null,
      "raw": "0xf86e8204c5850cdf7d237f8255f094bf7d5e6cd66bc79d7759b640cbe188bcfa030cc4885e4ee10e66f316c0801ba07044942ed57587b173b89ccae6b6533bf5291a66f82baf4694c08a99e0871adfa025cfa9f117d95f316fb3c77823e485de18f49465b5e068b09a0561e3c365df6a",
      "networkId": 0,
      "chainId": 0
    },
    {
      "hash": "0x76fdfffca6cfd1c6304f2c97c3ea736c4c23a85f0bdc196967873e25bf2d4283",
      "blockHash": "0x396a1541da2dac2d103139249a9ad50beba78af7192c84617ece0bc4ae804c85",
      "blockNumber": 79095,
      "transactionIndex": 23,
      "confirmations": null,
      "from": "0xe6A7a1d47ff21B6321162AEA7C6CB457D5476Bca",
      "gasPrice": {
        "_hex": "0xcdf7d237f"
      },
      "gasLimit": {
        "_hex": "0x55f0"
      },
      "to": "0xacc8dECDFDCbed202B8632947c60487494F5D2c7",
      "value": {
        "_hex": "0x5e57c198a9bcbf10"
      },
      "nonce": 1222,
      "data": "0x",
      "r": "0xd3e8c806ba9fc04bec4a6bb51f9fc19d977f16463bad97d302adcd200a77d12c",
      "s": "0x75a730a4e6acd6fb857269ce8d9725d9dce2d5ea19384da91410463713a2e00f",
      "v": 27,
      "creates": null,
      "raw": "0xf86e8204c6850cdf7d237f8255f094acc8decdfdcbed202b8632947c60487494f5d2c7885e57c198a9bcbf10801ba0d3e8c806ba9fc04bec4a6bb51f9fc19d977f16463bad97d302adcd200a77d12ca075a730a4e6acd6fb857269ce8d9725d9dce2d5ea19384da91410463713a2e00f",
      "networkId": 0,
      "chainId": 0
    },
    {
      "hash": "0x89f878bfaa95ec8ae910317666ad2a0cae403f963bb7356dec125db47900b3f0",
      "blockHash": "0x396a1541da2dac2d103139249a9ad50beba78af7192c84617ece0bc4ae804c85",
      "blockNumber": 79095,
      "transactionIndex": 24,
      "confirmations": null,
      "from": "0xe6A7a1d47ff21B6321162AEA7C6CB457D5476Bca",
      "gasPrice": {
        "_hex": "0xcdf7d237f"
      },
      "gasLimit": {
        "_hex": "0x55f0"
      },
      "to": "0xb7B3690EFa6b3f08D4EC289fF655C4b7bb15EE39",
      "value": {
        "_hex": "0x5e8d4724617984a8"
      },
      "nonce": 1223,
      "data": "0x",
      "r": "0x7e06e5f4ee70c16a81750f4fd47311039f64f5f11c50f7f9b375721aa2ef6b6e",
      "s": "0x04dd4a688586e2feb495203a5f1f10e48bcff5acfb7ddd47d6e7096a7936574e",
      "v": 28,
      "creates": null,
      "raw": "0xf86e8204c7850cdf7d237f8255f094b7b3690efa6b3f08d4ec289ff655c4b7bb15ee39885e8d4724617984a8801ca07e06e5f4ee70c16a81750f4fd47311039f64f5f11c50f7f9b375721aa2ef6b6ea004dd4a688586e2feb495203a5f1f10e48bcff5acfb7ddd47d6e7096a7936574e",
      "networkId": 0,
      "chainId": 0
    }
  ]
}