{
  "hash": "0xfc5b25b41e3ff80473d37586bed7045350788bc1e4e9340c6e7bf793dc4d3be1",
  "parentHash": "0x72e64222ffbe57200f45132415133236aae4b120b6c4b35f1abbf91ae0331a4f",
  "number": 83275,
  "timestamp": 1439532976,
  "nonce": "0x5bff9fbc9fff759e",
  "difficulty": 2417174201465,
  "gasLimit": {
    "_hex": "0x2fefd8"
  },
  "gasUsed": {
    "_hex": "0xa410"
  },
  "miner": "0xa50ec0D39fa913E62f1Bae7074E6F36caA71855b",
  "extraData": "0xd783010001844765746887676f312e342e32856c696e7578",
  "transactions": [
    {
      "hash": "0x6bbd166d82fff3efe1649f3af72a5e70629b3b32af2ca9956dbb57fad143f873",
      "blockHash": "0xfc5b25b41e3ff80473d37586bed7045350788bc1e4e9340c6e7bf793dc4d3be1",
      "blockNumber": 83275,
      "transactionIndex": 0,
      "confirmations": null,
      "from": "0x6DE55b563cE6E319cCB403032Da3BE5Ad4ec4FcF",
      "gasPrice": {
        "_hex": "0xdbcab29ff"
      },
      "gasLimit": {
        "_hex": "0x55f0"
      },
      "to": "0x931Ac2444b057f80A06A4FB627f26FFA5CE41184",
      "value": {
        "_hex": "0xde0b6b3a7640000"
      },
      "nonce": 0,
      "data": "0x",
      "r": "0x8eaf50918837ca739dd1ffc65f85559355f248ff59cd77ad86888abc10520a4b",
      "s": "0x3be9e384ffb383f371134ee4f45cb0f256ea90e3def4eeddc302c8b05980fe2e",
      "v": 27,
      "creates": null,
      "raw": "0xf86c80850dbcab29ff8255f094931ac2444b057f80a06a4fb627f26ffa5ce41184880de0b6b3a7640000801ba08eaf50918837ca739dd1ffc65f85559355f248ff59cd77ad86888abc10520a4ba03be9e384ffb383f371134ee4f45cb0f256ea90e3def4eeddc302c8b05980fe2e",
      "networkId": 0,
      "chainId": 0
    },
    {
      "hash": "0x72bffbd39828bfdb579c48320893aa0d24b1ccbbf3efd822621bef24bbf7aae1",
      "blockHash": "0xfc5b25b41e3ff80473d37586bed7045350788bc1e4e9340c6e7bf793dc4d3be1",
      "blockNumber": 83275,
      "transactionIndex": 1,
      "confirmations": null,
      "from": "0xd5A85B42F59351D806582F791600EA3e99811121",
      "gasPrice": {
        "_hex": "0xd777ec51e"
      },
      "gasLimit": {
        "_hex": "0x15f90"
      },
      "to": "0xd6Bb39DA0858E6AEddcaa12a509327b2D05f5B51",
      "value": {
        "_hex": "0xb711bf6bbd67b8a10"
      },
      "nonce": 5,
      "data": "0x",
      "r": "0xf2304f23ef71f4e73fda1c9e80e1cdde303d2eb3543d2a27d332545f466a1409",
      "s": "0x2d6292ecaffae72644ebc3f1b5ccc2368c743a1d8078da888a2b024e12224e67",
      "v": 28,
      "creates": null,
      "raw": "0xf86e05850d777ec51e83015f9094d6bb39da0858e6aeddcaa12a509327b2d05f5b51890b711bf6bbd67b8a10801ca0f2304f23ef71f4e73fda1c9e80e1cdde303d2eb3543d2a27d332545f466a1409a02d6292ecaffae72644ebc3f1b5ccc2368c743a1d8078da888a2b024e12224e67",
      "networkId": 0,
      "chainId": 0
    }
  ]
}