{
  "hash": "0x427fbbfdd570a9bca5e2ce1cc64ea3781e07dd9515a625c3ddc1900f87783f89",
  "parentHash": "0x60761dad6e489237acc68078ab1f12034c7084124856a84c35a0bccbbbdaaf90",
  "number": 107268,
  "timestamp": 1439919343,
  "nonce": "0xbd17d814dd4add62",
  "difficulty": 4435331295756,
  "gasLimit": {
    "_hex": "0x2fefd8"
  },
  "gasUsed": {
    "_hex": "0x5208"
  },
  "miner": "0xf927a40C8B7F6E07c5af7FA2155B4864a4112B13",
  "extraData": "0x",
  "transactions": [
    {
      "hash": "0xb2d2e396f8bd5a4326756f0823c779a9b299ac3e1b11102b03843e02baa7cc15",
      "blockHash": "0x427fbbfdd570a9bca5e2ce1cc64ea3781e07dd9515a625c3ddc1900f87783f89",
      "blockNumber": 107268,
      "transactionIndex": 0,
      "confirmations": null,
      "from": "0x08FE5A3C0709cF74d76cFd0e0Cd9d2A447eA263C",
      "gasPrice": {
        "_hex": "0xdfa68cd09"
      },
      "gasLimit": {
        "_hex": "0x5208"
      },
      "to": "0x32Be343B94f860124dC4fEe278FDCBD38C102D88",
      "value": {
        "_hex": "0x104e293ef2976f000"
      },
      "nonce": 7,
      "data": "0x",
      "r": "0x17fb77529540640f8adcf5e6abcdd0129b9e81d295cfbc681f0996df338e49ee",
      "s": "0x0dceb4f41cb7424f9a4efcbb4de54f633c92035e0e0d5590ae4bf12e7ff4a9c6",
      "v": 27,
      "creates": null,
      "raw": "0xf86d07850dfa68cd098252089432be343b94f860124dc4fee278fdcbd38c102d88890104e293ef2976f000801ba017fb77529540640f8adcf5e6abcdd0129b9e81d295cfbc681f0996df338e49eea00dceb4f41cb7424f9a4efcbb4de54f633c92035e0e0d5590ae4bf12e7ff4a9c6",
      "networkId": 0,
      "chainId": 0
    }
  ]
}