{
  "hash": "0xe7ced5904b24277038cbba8f41ea0d7cd548477ed0a3718e9896082d6a571532",
  "parentHash": "0x5d32ee11c2665779522585b51bf750445dc032390b5479d89dc263b480fc48ec",
  "number": 65563,
  "timestamp": 1439239143,
  "nonce": "0x696ed33a92d72f1b",
  "difficulty": 1948260947824,
  "gasLimit": {
    "_hex": "0x2fefd8"
  },
  "gasUsed": {
    "_hex": "0x6f2d"
  },
  "miner": "0x39A1BB80a741bF5EC39FB9BE59408Fa0F418fFBf",
  "extraData": "0x476574682f76312e302e312f77696e646f77732f676f312e342e32",
  "transactions": [
    {
      "hash": "0x07bd7dc080c22a4ce917afe897fdeec43e726d672e2c3dfcc9226d74c49174ca",
      "blockHash": "0xe7ced5904b24277038cbba8f41ea0d7cd548477ed0a3718e9896082d6a571532",
      "blockNumber": 65563,
      "transactionIndex": 0,
      "confirmations": null,
      "from": "0x976349705b839e2F5719387Fb27D2519d519da03",
      "gasPrice": {
        "_hex": "0xcee28d693"
      },
      "gasLimit": {
        "_hex": "0x15f90"
      },
      "to": "0x125B606C67E8066Da65069652b656c19717745Fa",
      "value": {
        "_hex": "0x133d275819a559e"
      },
      "nonce": 3,
      "data": "0xa55526db",
      "r": "0x33dd80d5894703bc3c40f28f8c83fc14c004e17985df614c650e2c33e3efeb6c",
      "s": "0x3cddecac308e91836c69ffa0459175f5011bc3aa44424a0736825b491a4151e8",
      "v": 28,
      "creates": null,
      "raw": "0xf87103850cee28d69383015f9094125b606c67e8066da65069652b656c19717745fa880133d275819a559e84a55526db1ca033dd80d5894703bc3c40f28f8c83fc14c004e17985df614c650e2c33e3efeb6ca03cddecac308e91836c69ffa0459175f5011bc3aa44424a0736825b491a4151e8",
      "networkId": 0,
      "chainId": 0
    }
  ]
}