{
  "hash": "0xa1a9bf184d3fdedfa2c2dbc6e0bee4f1f01967ceb59a5cbff36241df68d98ede",
  "parentHash": "0x965937853501e8617b78d6090e56188f192359714a92ea0f004dff56e19bf55f",
  "number": 85985,
  "timestamp": 1439571836,
  "nonce": "0x0fa622181d6b0ba6",
  "difficulty": 2789411981184,
  "gasLimit": {
    "_hex": "0x2fefd8"
  },
  "gasUsed": {
    "_hex": "0x14820"
  },
  "miner": "0xe6A7a1d47ff21B6321162AEA7C6CB457D5476Bca",
  "extraData": "0x476574682f76312e302e312d38326566323666362f6c696e75782f676f312e34",
  "transactions": [
    {
      "hash": "0x61382468cd5f361a637c9e1d1e2948494c75f9c84dd6ef611690e0bb811150d2",
      "blockHash": "0xa1a9bf184d3fdedfa2c2dbc6e0bee4f1f01967ceb59a5cbff36241df68d98ede",
      "blockNumber": 85985,
      "transactionIndex": 0,
      "confirmations": null,
      "from": "0x76Df61770A702069FE1381EAE55AD11A03dEcA93",
      "gasPrice": {
        "_hex": "0xd69b48315"
      },
      "gasLimit": {
        "_hex": "0x15f90"
      },
      "to": "0xA8c8B89fD99a25b4a085DfF3d967b47b10b37034",
      "value": {
        "_hex": "0x55de6a779bbac0000"
      },
      "nonce": 3,
      "data": "0x",
      "r": "0x0cad2131676cdfdfb187be8100c22047c58ab7ffc5a37a8aeb7eda33023e0a29",
      "s": "0x6ae8270e42a76c285eacdea93d7503bc9a3ca54354189f2113056b9a6db9111a",
      "v": 27,
      "creates": null,
      "raw": "0xf86e03850d69b4831583015f9094a8c8b89fd99a25b4a085dff3d967b47b10b3703489055de6a779bbac0000801ba00cad2131676cdfdfb187be8100c22047c58ab7ffc5a37a8aeb7eda33023e0a29a06ae8270e42a76c285eacdea93d7503bc9a3ca54354189f2113056b9a6db9111a",
      "networkId": 0,
      "chainId": 0
    },
    {
      "hash": "0xe04f4dd3631f5100868768d785072dd68801927c7a85e586e8d03ed2baa22d8b",
      "blockHash": "0xa1a9bf184d3fdedfa2c2dbc6e0bee4f1f01967ceb59a5cbff36241df68d98ede",
      "blockNumber": 85985,
      "transactionIndex": 1,
      "confirmations": null,
      "from": "0x2f86ba8019945f39edE131D38d4d8780884DA553",
      "gasPrice": {
        "_hex": "0xcb0864a96"
      },
      "gasLimit": {
        "_hex": "0x5208"
      },
      "to": "0x32Be343B94f860124dC4fEe278FDCBD38C102D88",
      "value": {
        "_hex": "0x25f26f824c0d5a0000"
      },
      "nonce": 14,
      "data": "0x",
      "r": "0x4d7dabc053aa2ac1741a5b70354731aa60391af4bef439ecebd14b61fbea063d",
      "s": "0x1472432c8d09dcc7d933a5f153edeb8054efedbabaa9aa8406d3f4ebaf380de1",
      "v": 27,
      "creates": null,
      "raw": "0xf86d0e850cb0864a968252089432be343b94f860124dc4fee278fdcbd38c102d888925f26f824c0d5a0000801ba04d7dabc053aa2ac1741a5b70354731aa60391af4bef439ecebd14b61fbea063da01472432c8d09dcc7d933a5f153edeb8054efedbabaa9aa8406d3f4ebaf380de1",
      "networkId": 0,
      "chainId": 0
    },
    {
      "hash": "0x37b1a3b48be59cf60f181d44b97c89ac80cf4507f36a5586b13d4bce4619fe8f",
      "blockHash": "0xa1a9bf184d3fdedfa2c2dbc6e0bee4f1f01967ceb59a5cbff36241df68d98ede",
      "blockNumber": 85985,
      "transactionIndex": 2,
      "confirmations": null,
      "from": "0x6bF0D878Da99Cb6e3fE5e359c30AB50eABc48D46",
      "gasPrice": {
        "_hex": "0xcb0864a96"
      },
      "gasLimit": {
        "_hex": "0x5208"
      },
      "to": "0x32Be343B94f860124dC4fEe278FDCBD38C102D88",
      "value": {
        "_hex": "0xcf295779aceb9800"
      },
      "nonce": 0,
      "data": "0x",
      "r": "0xbefd5bf014836d1387d35ad9ec2d10122671ea4427a256025d39b428c2175186",
      "s": "0x7fdddd3d1ae15bdc31561cbcc3da6e7ed4a4ad816ef19f5615f8577af5a0acae",
      "v": 28,
      "creates": null,
      "raw": "0xf86c80850cb0864a968252089432be343b94f860124dc4fee278fdcbd38c102d8888cf295779aceb9800801ca0befd5bf014836d1387d35ad9ec2d10122671ea4427a256025d39b428c2175186a07fdddd3d1ae15bdc31561cbcc3da6e7ed4a4ad816ef19f5615f8577af5a0acae",
      "networkId": 0,
      "chainId": 0
    },
    {
      "hash": "0x4426be20557ab4d55dc04a06fea119ae1e34ffb020b2e55720bd974de5b9b8a8",
      "blockHash": "0xa1a9bf184d3fdedfa2c2dbc6e0bee4f1f01967ceb59a5cbff36241df68d98ede",
      "blockNumber": 85985,
      "transactionIndex": 3,
      "confirmations": null,
      "from": "0x6d33A045c6E37BD756aCFE28Ab25Ba546dF40c4e",
      "gasPrice": {
        "_hex": "0xcb0864a96"
      },
      "gasLimit": {
        "_hex": "0x5208"
      },
      "to": "0x32Be343B94f860124dC4fEe278FDCBD38C102D88",
      "value": {
        "_hex": "0x4b9ca7359d8ae00000"
      },
      "nonce": 1,
      "data": "0x",
      "r": "0xa45a3d19c091d4765bf48fc8307d4892d7dd35713b2d5f1f27f7bae5ed7aab98",
      "s": "0x31998f0869412b1296c27ed60934ac75ed342c62ef992dfa394dd5dd03ab84c4",
      "v": 28,
      "creates": null,
      "raw": "0xf86d01850cb0864a968252089432be343b94f860124dc4fee278fdcbd38c102d88894b9ca7359d8ae00000801ca0a45a3d19c091d4765bf48fc8307d4892d7dd35713b2d5f1f27f7bae5ed7aab98a031998f0869412b1296c27ed60934ac75ed342c62ef992dfa394dd5dd03ab84c4",
      "networkId": 0,
      "chainId": 0
    }
  ]
}