{
  "hash": "0x50b798fa4aaacde5d14ce905670d81f8ab413e2ec278c532e3469a731e1cd963",
  "parentHash": "0x47eb5866cf9235cb891aa2ae02f95051e7a4b33c3545637298abfbffc2491178",
  "number": 50988,
  "timestamp": 1438997757,
  "nonce": "0x7086a037bfdbb835",
  "difficulty": 1546144563691,
  "gasLimit": {
    "_hex": "0x88dcb"
  },
  "gasUsed": {
    "_hex": "0x5208"
  },
  "miner": "0x0eDEd3DA479d0beF8eeC92A76644D3f4E3C177f7",
  "extraData": "0x476574682f76312e302e312f6c696e75782f676f312e342e32",
  "transactions": [
    {
      "hash": "0xb4a04c28173dc744a246a267774e6ee85a5e45f968adab8fa7dee99feb8c75ef",
      "blockHash": "0x50b798fa4aaacde5d14ce905670d81f8ab413e2ec278c532e3469a731e1cd963",
      "blockNumber": 50988,
      "transactionIndex": 0,
      "confirmations": null,
      "from": "0x4E892e8081BF36E488FddB3b2630f3f1E8da30d2",
      "gasPrice": {
        "_hex": "0xcf10871af"
      },
      "gasLimit": {
        "_hex": "0x15f90"
      },
      "to": "0x42Dd879f8Eb7e9B43036A5b4C97B02c6176D6B99",
      "value": {
        "_hex": "0x38d7ea4c68000"
      },
      "nonce": 2,
      "data": "0x",
      "r": "0xacbd31559ae198e5b9a9578a0bcab4883c2bddc18ea65bd68fde235538371f8a",
      "s": "0x63488a9bd300933f0166b4f975c53413e864577fe126d36dd177234d3b02fc7a",
      "v": 28,
      "creates": null,
      "raw": "0xf86c02850cf10871af83015f909442dd879f8eb7e9b43036a5b4c97b02c6176d6b9987038d7ea4c68000801ca0acbd31559ae198e5b9a9578a0bcab4883c2bddc18ea65bd68fde235538371f8aa063488a9bd300933f0166b4f975c53413e864577fe126d36dd177234d3b02fc7a",
      "networkId": 0,
      "chainId": 0
    }
  ]
}