{
  "hash": "0x8d94e7dd298a8133e235f3c58352566e2131b3f825d2e546eb729f807019338a",
  "parentHash": "0x67ff31e5b4a61b1ea6ef87553a8d12f250156e96d865c8eb23be839675412f4c",
  "number": 102056,
  "timestamp": 1439832144,
  "nonce": "0xce8ad9eb9ea27a9f",
  "difficulty": 3908956650483,
  "gasLimit": {
    "_hex": "0x2fefd8"
  },
  "gasUsed": {
    "_hex": "0xa674"
  },
  "miner": "0x623d2411c3bb3340784155F9a688b0085251aB5c",
  "extraData": "0x",
  "transactions": [
    {
      "hash": "0x8a9551ce2e788b8cb4f616048a66d46756fa7751f62c3aa9b414b29f415bf724",
      "blockHash": "0x8d94e7dd298a8133e235f3c58352566e2131b3f825d2e546eb729f807019338a",
      "blockNumber": 102056,
      "transactionIndex": 0,
      "confirmations": null,
      "from": "0x873c6F70EfB6B1d0F2BbC57eEBCD70617c6CE662",
      "gasPrice": {
        "_hex": "0x110c8f7d8de"
      },
      "gasLimit": {
        "_hex": "0xc350"
      },
      "to": "0x2910543Af39abA0Cd09dBb2D50200b3E800A63D2",
      "value": {
        "_hex": "0x4db732547630000"
      },
      "nonce": 1,
      "data": "0x454e43323138374252",
      "r": "0xb56c9082b743f80ea4d9ea643fb3d30349e3589e35fd7bcd9fa0d74d2d138c12",
      "s": "0x29232151f8e41d38bcb7b3b1d7b1f2aebc93c17478f5bb5032f1f13c67217a4e",
      "v": 28,
      "creates": null,
      "raw": "0xf87601860110c8f7d8de82c350942910543af39aba0cd09dbb2d50200b3e800a63d28804db73254763000089454e433231383742521ca0b56c9082b743f80ea4d9ea643fb3d30349e3589e35fd7bcd9fa0d74d2d138c12a029232151f8e41d38bcb7b3b1d7b1f2aebc93c17478f5bb5032f1f13c67217a4e",
      "networkId": 0,
      "chainId": 0
    },
    {
      "hash": "0x0b25ce2da7908c352dcc63a53e454ab4d92a078c93d2c512d993d631a3414d3d",
      "blockHash": "0x8d94e7dd298a8133e235f3c58352566e2131b3f825d2e546eb729f807019338a",
      "blockNumber": 102056,
      "transactionIndex": 1,
      "confirmations": null,
      "from": "0xA143616A882230de7571d01f1916F0A781d6480a",
      "gasPrice": {
        "_hex": "0xdf114b8c5"
      },
      "gasLimit": {
        "_hex": "0x5208"
      },
      "to": "0x32Be343B94f860124dC4fEe278FDCBD38C102D88",
      "value": {
        "_hex": "0x784cf1db427b5c0000"
      },
      "nonce": 6,
      "data": "0x",
      "r": "0x061d91faf5b8d23a02456317355992671f19cca61c8524275572f19264dc2c9a",
      "s": "0x5e56b2e9d66ce2accd9ddab8aac57be98bd5128d7e1b1dd026bcb05cc7017eff",
      "v": 27,
      "creates": null,
      "raw": "0xf86d06850df114b8c58252089432be343b94f860124dc4fee278fdcbd38c102d8889784cf1db427b5c0000801ba0061d91faf5b8d23a02456317355992671f19cca61c8524275572f19264dc2c9aa05e56b2e9d66ce2accd9ddab8aac57be98bd5128d7e1b1dd026bcb05cc7017eff",
      "networkId": 0,
      "chainId": 0
    }
  ]
}