{
  "hash": "0x95ff4d77d319024818189b9a3f68e2eb50b7b787274bdda3ce2d44d169096c3d",
  "parentHash": "0xe2c4fccfc609f12d3a6d75d695e2fc1f83e48a4f3c73720688bb0fd120e64f77",
  "number": 102499,
  "timestamp": 1439838917,
  "nonce": "0x4b5997fd9c296a91",
  "difficulty": 3964492471420,
  "gasLimit": {
    "_hex": "0x2fefd8"
  },
  "gasUsed": {
    "_hex": "0x5208"
  },
  "miner": "0xe6A7a1d47ff21B6321162AEA7C6CB457D5476Bca",
  "extraData": "0x476574682f76312e302e312d38326566323666362f6c696e75782f676f312e34",
  "transactions": [
    {
      "hash": "0xced290fb5c791e07db69dcf70aa6249bba8bee2630903596f1cdbf92a7770554",
      "blockHash": "0x95ff4d77d319024818189b9a3f68e2eb50b7b787274bdda3ce2d44d169096c3d",
      "blockNumber": 102499,
      "transactionIndex": 0,
      "confirmations": null,
      "from": "0xE3A4CD0E7193d90A4e94EAb73d2a546a34130170",
      "gasPrice": {
        "_hex": "0xd82ce0181"
      },
      "gasLimit": {
        "_hex": "0x5208"
      },
      "to": "0x32Be343B94f860124dC4fEe278FDCBD38C102D88",
      "value": {
        "_hex": "0x1515a18777348d000"
      },
      "nonce": 2,
      "data": "0x",
      "r": "0xc1d1f6698a0ddf88a7c8bb450839ae12bb6dd8c3971ae9cfa194709ad66f5ed0",
      "s": "0x5912945a78e20165742255a537219f5cfd3e0fc02302215c2e250fdcf7237d5b",
      "v": 27,
      "creates": null,
      "raw": "0xf86d02850d82ce01818252089432be343b94f860124dc4fee278fdcbd38c102d888901515a18777348d000801ba0c1d1f6698a0ddf88a7c8bb450839ae12bb6dd8c3971ae9cfa194709ad66f5ed0a05912945a78e20165742255a537219f5cfd3e0fc02302215c2e250fdcf7237d5b",
      "networkId": 0,
      "chainId": 0
    }
  ]
}