{
  "hash": "0xc6de4d4f8ec1f72fcf12af95c87986b45bfc2d0a65877e0e583788c94802df83",
  "parentHash": "0x8136a237e635fbe0178ec917cede422dba6828503be6b7337c47d3642caa1f8a",
  "number": 75848,
  "timestamp": 1439410433,
  "nonce": "0xb9b6871ce27c6a30",
  "difficulty": 2227689617175,
  "gasLimit": {
    "_hex": "0x2fefd8"
  },
  "gasUsed": {
    "_hex": "0x5208"
  },
  "miner": "0x9746c7e1ef2bd21FF3997fa467593a89cb852BD0",
  "extraData": "0x476574682f76312e302e312f77696e646f77732f676f312e342e32",
  "transactions": [
    {
      "hash": "0xe7656e16726517202bbae5a3092c8ed03e3fa37818273445adf3ba7ad028aa8a",
      "blockHash": "0xc6de4d4f8ec1f72fcf12af95c87986b45bfc2d0a65877e0e583788c94802df83",
      "blockNumber": 75848,
      "transactionIndex": 0,
      "confirmations": null,
      "from": "0x32Be343B94f860124dC4fEe278FDCBD38C102D88",
      "gasPrice": {
        "_hex": "0xd826d8591"
      },
      "gasLimit": {
        "_hex": "0x5208"
      },
      "to": "0xB48CB04D046210A9F58175Ad35FCe298428e0969",
      "value": {
        "_hex": "0xdb614c3ee160000"
      },
      "nonce": 346,
      "data": "0x",
      "r": "0xd8ec21f63355b75785f249a90119e702daab63c9cc63fcbb5698e9ac62a01830",
      "s": "0x1bcdc26dd660c794d8b15325f2b03d098c20fb0670e3cad7c9b316f9dfe62c34",
      "v": 27,
      "creates": null,
      "raw": "0xf86e82015a850d826d859182520894b48cb04d046210a9f58175ad35fce298428e0969880db614c3ee160000801ba0d8ec21f63355b75785f249a90119e702daab63c9cc63fcbb5698e9ac62a01830a01bcdc26dd660c794d8b15325f2b03d098c20fb0670e3cad7c9b316f9dfe62c34",
      "networkId": 0,
      "chainId": 0
    }
  ]
}