{
  "hash": "0xcbdc9144b732542d62859bcba9fcff5c478595816582cc14d94e216ef8d323f8",
  "parentHash": "0x0383b9da46a0d8fcddc8c9146df73af48073fd238b963fa84b9b85d4f723fc12",
  "number": 69146,
  "timestamp": 1439298888,
  "nonce": "0x64aebc998ae0dea6",
  "difficulty": 2059910168446,
  "gasLimit": {
    "_hex": "0x2fe3db"
  },
  "gasUsed": {
    "_hex": "0x5208"
  },
  "miner": "0xf8E0CA3Ed80bd541b94BEdCf259e8CF2141A9523",
  "extraData": "0x476574682f76312e302e312f77696e646f77732f676f312e342e32",
  "transactions": [
    {
      "hash": "0xb5ce465a459e1ecb554108d1d4e7c9d1336c4b3998af054657362a38a6b458f4",
      "blockHash": "0xcbdc9144b732542d62859bcba9fcff5c478595816582cc14d94e216ef8d323f8",
      "blockNumber": 69146,
      "transactionIndex": 0,
      "confirmations": null,
      "from": "0xAD8c7FBFaBC46C35aDb03F7b3A67e731E5793899",
      "gasPrice": {
        "_hex": "0xd93f1e710"
      },
      "gasLimit": {
        "_hex": "0x5208"
      },
      "to": "0x32Be343B94f860124dC4fEe278FDCBD38C102D88",
      "value": {
        "_hex": "0x451829cd59389c00"
      },
      "nonce": 1,
      "data": "0x",
      "r": "0xdf832673c373a10fa6a29e69ccf60a16efc1c807b1a430ffd57f2824d640ab6c",
      "s": "0x0952ad1f9568aabef5f6c4b87b2cd6c77992d2bb67c10e8a743b62db0087db4e",
      "v": 28,
      "creates": null,
      "raw": "0xf86c01850d93f1e7108252089432be343b94f860124dc4fee278fdcbd38c102d8888451829cd59389c00801ca0df832673c373a10fa6a29e69ccf60a16efc1c807b1a430ffd57f2824d640ab6ca00952ad1f9568aabef5f6c4b87b2cd6c77992d2bb67c10e8a743b62db0087db4e",
      "networkId": 0,
      "chainId": 0
    }
  ]
}