{
  "hash": "0x087522052c250fd4d5b249857d2065357c5586024f655a6bfe5384e6940988e2",
  "parentHash": "0x6900c05d55abe08dcffc862f6faf48ff2e6796b7c60b4bc51ff2277cd32ce03a",
  "number": 94672,
  "timestamp": 1439712022,
  "nonce": "0x72aed4dc0c09eaa2",
  "difficulty": 3496792228791,
  "gasLimit": {
    "_hex": "0x2fefd8"
  },
  "gasUsed": {
    "_hex": "0x19a28"
  },
  "miner": "0x47ff6576639c2e94762eA5443978D7681C0E78DC",
  "extraData": "0x476574682f76312e302e312f6c696e75782f676f312e342e32",
  "transactions": [
    {
      "hash": "0x98ce739574443f13ae6af40e9270383d3aeb1950332cb63470f01a8a608fa218",
      "blockHash": "0x087522052c250fd4d5b249857d2065357c5586024f655a6bfe5384e6940988e2",
      "blockNumber": 94672,
      "transactionIndex": 0,
      "confirmations": null,
      "from": "0xe6A7a1d47ff21B6321162AEA7C6CB457D5476Bca",
      "gasPrice": {
        "_hex": "0xd6c0d155b"
      },
      "gasLimit": {
        "_hex": "0x55f0"
      },
      "to": "0x0dd48f729D5084545452A08F5E5AB412d7c2888a",
      "value": {
        "_hex": "0x1fbf54714d8611f80"
      },
      "nonce": 2934,
      "data": "0x",
      "r": "0x6708b4558f7334fabc3e6e5fd320cff17288074ff9ce5f9ebb9da5be7e6a3041",
      "s": "0x70701c82ff8ba018ae927e82bf1d3d6ef2dd002fbeb963fe56c47e850ae80dd2",
      "v": 27,
      "creates": null,
      "raw": "0xf86f820b76850d6c0d155b8255f0940dd48f729d5084545452a08f5e5ab412d7c2888a8901fbf54714d8611f80801ba06708b4558f7334fabc3e6e5fd320cff17288074ff9ce5f9ebb9da5be7e6a3041a070701c82ff8ba018ae927e82bf1d3d6ef2dd002fbeb963fe56c47e850ae80dd2",
      "networkId": 0,
      "chainId": 0
    },
    {
      "hash": "0xe9419597ea2c9b47cea1a04a143f5520113e7196146245c3f42db53f11fd533a",
      "blockHash": "0x087522052c250fd4d5b249857d2065357c5586024f655a6bfe5384e6940988e2",
      "blockNumber": 94672,
      "transactionIndex": 1,
      "confirmations": null,
      "from": "0xe6A7a1d47ff21B6321162AEA7C6CB457D5476Bca",
      "gasPrice": {
        "_hex": "0xd6c0d155b"
      },
      "gasLimit": {
        "_hex": "0x55f0"
      },
      "to": "0xB5EDD17d2582A94610ebf0C6832c1652EBBBe210",
      "value": {
        "_hex": "0x1ffa0b810e8aabf60"
      },
      "nonce": 2935,
      "data": "0x",
      "r": "0x14e1cb0037f09767e17eb54460f20744ef87ca69dcdb5f35951f9f2720626c95",
      "s": "0x030ad37f26419d7b43979e2b9fe75c705176d25e174de44794993653eb306ea8",
      "v": 28,
      "creates": null,
      "raw": "0xf86f820b77850d6c0d155b8255f094b5edd17d2582a94610ebf0c6832c1652ebbbe2108901ffa0b810e8aabf60801ca014e1cb0037f09767e17eb54460f20744ef87ca69dcdb5f35951f9f2720626c95a0030ad37f26419d7b43979e2b9fe75c705176d25e174de44794993653eb306ea8",
      "networkId": 0,
      "chainId": 0
    },
    {
      "hash": "0x5a4e72765837247c12b0bc063bc998d5706bcac363d97d2b93d87d19e990d824",
      "blockHash": "0x087522052c250fd4d5b249857d2065357c5586024f655a6bfe5384e6940988e2",
      "blockNumber": 94672,
      "transactionIndex": 2,
      "confirmations": null,
      "from": "0xe6A7a1d47ff21B6321162AEA7C6CB457D5476Bca",
      "gasPrice": {
        "_hex": "0xd6c0d155b"
      },
      "gasLimit": {
        "_hex": "0x55f0"
      },
      "to": "0x04a6c6a293340Fc3f2244D097b0CFD84d5317bA5",
      "value": {
        "_hex": "0x2084b876f62283df0"
      },
      "nonce": 2936,
      "data": "0x",
      "r": "0xefa74b8730d1b1fb199af246fa668ec164d806fe280336df036ad866e7ea5bbc",
      "s": "0x18f5752d7df5f98c81a5e28710985e3563d134c4c9e36c7e15abba3399782b98",
      "v": 28,
      "creates": null,
      "raw": "0xf86f820b78850d6c0d155b8255f09404a6c6a293340fc3f2244d097b0cfd84d5317ba58902084b876f62283df0801ca0efa74b8730d1b1fb199af246fa668ec164d806fe280336df036ad866e7ea5bbca018f5752d7df5f98c81a5e28710985e3563d134c4c9e36c7e15abba3399782b98",
      "networkId": 0,
      "chainId": 0
    },
    {
      "hash": "0x1b8cadcaeb3812baa9e84aff0f390c657b1e67010a760613239e54184a0af5bf",
      "blockHash": "0x087522052c250fd4d5b249857d2065357c5586024f655a6bfe5384e6940988e2",
      "blockNumber": 94672,
      "transactionIndex": 3,
      "confirmations": null,
      "from": "0x4b0a38C16B842d68A8721B4CAd662e07cc430652",
      "gasPrice": {
        "_hex": "0xcb2a38c97"
      },
      "gasLimit": {
        "_hex": "0x5208"
      },
      "to": "0x32Be343B94f860124dC4fEe278FDCBD38C102D88",
      "value": {
        "_hex": "0x4b0622a637be6800"
      },
      "nonce": 5,
      "data": "0x",
      "r": "0xecf4da2caa44d83c54540aeeb673d83085d7c6f6e45ff6acb812a0e65dacf3f5",
      "s": "0x6ec6f2d1f73009cc94c6ce12d4c117e4186e5bad7098e8e276fb4cfb8d44a213",
      "v": 27,
      "creates": null,
      "raw": "0xf86c05850cb2a38c978252089432be343b94f860124dc4fee278fdcbd38c102d88884b0622a637be6800801ba0ecf4da2caa44d83c54540aeeb673d83085d7c6f6e45ff6acb812a0e65dacf3f5a06ec6f2d1f73009cc94c6ce12d4c117e4186e5bad7098e8e276fb4cfb8d44a213",
      "networkId": 0,
      "chainId": 0
    },
    {
      "hash": "0x170b6719af3e84282c2564d15715b217820fbd280553193b635eacf95c25e790",
      "blockHash": "0x087522052c250fd4d5b249857d2065357c5586024f655a6bfe5384e6940988e2",
      "blockNumber": 94672,
      "transactionIndex": 4,
      "confirmations": null,
      "from": "0xb71F25995CC5De7A465fB37688126E07654Fa662",
      "gasPrice": {
        "_hex": "0xcb2a38c97"
      },
      "gasLimit": {
        "_hex": "0x5208"
      },
      "to": "0x32Be343B94f860124dC4fEe278FDCBD38C102D88",
      "value": {
        "_hex": "0x26e3ccab793b8c00"
      },
      "nonce": 6,
      "data": "0x",
      "r": "0xa7275bb601f8b76297a8d60e97acaaf3d120695dfb1de7f2e969608b5944c89b",
      "s": "0x5951c278cd31118338e59cd96fa077dd30818cfc88241b8ebd524fe70961893a",
      "v": 28,
      "creates": null,
      "raw": "0xf86c06850cb2a38c978252089432be343b94f860124dc4fee278fdcbd38c102d888826e3ccab793b8c00801ca0a7275bb601f8b76297a8d60e97acaaf3d120695dfb1de7f2e969608b5944c89ba05951c278cd31118338e59cd96fa077dd30818cfc88241b8ebd524fe70961893a",
      "networkId": 0,
      "chainId": 0
    }
  ]
}