{
  "hash": "0xa2e039ef27723516a40b77f8ea49fd43fb7b98835c31711af8dda60857afd2bc",
  "parentHash": "0x08454ae0d75e82eaa7ebf6b914ecc691e8d629f94eab25b039cc812c4429d6ed",
  "number": 100851,
  "timestamp": 1439813436,
  "nonce": "0x62794b416bd528b3",
  "difficulty": 3847027844677,
  "gasLimit": {
    "_hex": "0x2fefd8"
  },
  "gasUsed": {
    "_hex": "0xa410"
  },
  "miner": "0xe6A7a1d47ff21B6321162AEA7C6CB457D5476Bca",
  "extraData": "0x476574682f76312e302e312d38326566323666362f6c696e75782f676f312e34",
  "transactions": [
    {
      "hash": "0x2e67a278ce75f50aa29c7a79b4be0a80db2865665605d2f07f2fd19ece7069e3",
      "blockHash": "0xa2e039ef27723516a40b77f8ea49fd43fb7b98835c31711af8dda60857afd2bc",
      "blockNumber": 100851,
      "transactionIndex": 0,
      "confirmations": null,
      "from": "0xf2cC0eEAAAeD313542CB262B0B8c3972425143f0",
      "gasPrice": {
        "_hex": "0xd6c2b2c07"
      },
      "gasLimit": {
        "_hex": "0x5208"
      },
      "to": "0x32Be343B94f860124dC4fEe278FDCBD38C102D88",
      "value": {
        "_hex": "0x1d6b7b39bbad4f000"
      },
      "nonce": 11,
      "data": "0x",
      "r": "0x2a8ed04196c281f9ec974fdd2ba157d7a6ad9122b9cc57233d6d96cf04ad88ca",
      "s": "0x0bbb8c5444854e6134238e6dda3e781b2860c43e758d3aa433c9478dccffb1b6",
      "v": 27,
      "creates": null,
      "raw": "0xf86d0b850d6c2b2c078252089432be343b94f860124dc4fee278fdcbd38c102d888901d6b7b39bbad4f000801ba02a8ed04196c281f9ec974fdd2ba157d7a6ad9122b9cc57233d6d96cf04ad88caa00bbb8c5444854e6134238e6dda3e781b2860c43e758d3aa433c9478dccffb1b6",
      "networkId": 0,
      "chainId": 0
    },
    {
      "hash": "0x8444e322c48e22203252158ed5d7e91aadfa09ee9c472cf9c9c359a260077bed",
      "blockHash": "0xa2e039ef27723516a40b77f8ea49fd43fb7b98835c31711af8dda60857afd2bc",
      "blockNumber": 100851,
      "transactionIndex": 1,
      "confirmations": null,
      "from": "0x1D3ffA437e5bce40fCC134f4E0ac62841E4A9E81",
      "gasPrice": {
        "_hex": "0xba43b7400"
      },
      "gasLimit": {
        "_hex": "0x5208"
      },
      "to": "0xC47Aaa860008be6f65B58c6C6E02a84e666EfE31",
      "value": {
        "_hex": "0x2dc8398be1c66000"
      },
      "nonce": 11,
      "data": "0x",
      "r": "0x281b378e2b40f211126a08ff9bf604ae753c6c9dd8995305d33b8938cc8511ab",
      "s": "0x570f676f0976fcb14a16b87abf67ad07c57fe1d116b306c51bb011d3b68db739",
      "v": 27,
      "creates": null,
      "raw": "0xf86c0b850ba43b740082520894c47aaa860008be6f65b58c6c6e02a84e666efe31882dc8398be1c66000801ba0281b378e2b40f211126a08ff9bf604ae753c6c9dd8995305d33b8938cc8511aba0570f676f0976fcb14a16b87abf67ad07c57fe1d116b306c51bb011d3b68db739",
      "networkId": 0,
      "chainId": 0
    }
  ]
}