{
  "hash": "0x640e6ed5289d3e6ccc4c6973f003b1d8e9cf92e973227f6876de00c87622ac4b",
  "parentHash": "0xc8f254e139b7fc7eb8f916a0b93be38a8140c9e5f40f5be04c0947321bee2ee5",
  "number": 117936,
  "timestamp": 1440117828,
  "nonce": "0x45e84b829aad3091",
  "difficulty": 4344016308362,
  "gasLimit": {
    "_hex": "0x2fefd8"
  },
  "gasUsed": {
    "_hex": "0xa410"
  },
  "miner": "0xe6A7a1d47ff21B6321162AEA7C6CB457D5476Bca",
  "extraData": "0xd783010002844765746887676f312e342e32856c696e7578",
  "transactions": [
    {
      "hash": "0x3b6328f815796042c6c929512093d1455f05f6bc36739def8c6bab246c9590a4",
      "blockHash": "0x640e6ed5289d3e6ccc4c6973f003b1d8e9cf92e973227f6876de00c87622ac4b",
      "blockNumber": 117936,
      "transactionIndex": 0,
      "confirmations": null,
      "from": "0x68b9d3C36d3c34f877bDf18101FC5776Dd14FB77",
      "gasPrice": {
        "_hex": "0xba43b7400"
      },
      "gasLimit": {
        "_hex": "0x5208"
      },
      "to": "0x32Be343B94f860124dC4fEe278FDCBD38C102D88",
      "value": {
        "_hex": "0x24a954ff6fe244000"
      },
      "nonce": 0,
      "data": "0x",
      "r": "0x0d68087fb5569be46f54e13a9e94da3ab03b1d1d9f5817fdae7170ac2c64cea1",
      "s": "0x7e3531cf9c06bf7f8bbb00b03268b462dbbc1da08a6ed5570e4e95204cb42539",
      "v": 27,
      "creates": null,
      "raw": "0xf86d80850ba43b74008252089432be343b94f860124dc4fee278fdcbd38c102d8889024a954ff6fe244000801ba00d68087fb5569be46f54e13a9e94da3ab03b1d1d9f5817fdae7170ac2c64cea1a07e3531cf9c06bf7f8bbb00b03268b462dbbc1da08a6ed5570e4e95204cb42539",
      "networkId": 0,
      "chainId": 0
    },
    {
      "hash": "0xc91f73dbe3741395ed95aef85fb006e6a731473fe6a57d34f01d4943310c148a",
      "blockHash": "0x640e6ed5289d3e6ccc4c6973f003b1d8e9cf92e973227f6876de00c87622ac4b",
      "blockNumber": 117936,
      "transactionIndex": 1,
      "confirmations": null,
      "from": "0x3Aa549C938e6Bab1e44b506944F5498b28854936",
      "gasPrice": {
        "_hex": "0xba43b7400"
      },
      "gasLimit": {
        "_hex": "0x5208"
      },
      "to": "0x32Be343B94f860124dC4fEe278FDCBD38C102D88",
      "value": {
        "_hex": "0x4d2826273f82e400"
      },
      "nonce": 0,
      "data": "0x",
      "r": "0x9c63dc9042ab65df443157736903f7e9787cdcd10ddcc04be3ebaf159196c672",
      "s": "0x302089d914d24740b4d234e3d943d1f4bdffc6c767e3a9fcdeafcddc154de3b9",
      "v": 28,
      "creates": null,
      "raw": "0xf86c80850ba43b74008252089432be343b94f860124dc4fee278fdcbd38c102d88884d2826273f82e400801ca09c63dc9042ab65df443157736903f7e9787cdcd10ddcc04be3ebaf159196c672a0302089d914d24740b4d234e3d943d1f4bdffc6c767e3a9fcdeafcddc154de3b9",
      "networkId": 0,
      "chainId": 0
    }
  ]
}