{
  "hash": "0x9e8bf625edae3fef7d3a13c7c7e18ec3578c0c7f1abc99d5e45cef3c6bb8d464",
  "parentHash": "0xefa20337a10165f5b4ff78ba84cee5457600ad336d8bad0729047999eb46e815",
  "number": 121260,
  "timestamp": 1440174144,
  "nonce": "0xcff3423a981fff70",
  "difficulty": 4410676532258,
  "gasLimit": {
    "_hex": "0x2fefd8"
  },
  "gasUsed": {
    "_hex": "0x5208"
  },
  "miner": "0xe6A7a1d47ff21B6321162AEA7C6CB457D5476Bca",
  "extraData": "0xd783010002844765746887676f312e342e32856c696e7578",
  "transactions": [
    {
      "hash": "0x1b595f1ac70e7960bb8c7a60112e08bb2a63356914186b24a17da50bd785d991",
      "blockHash": "0x9e8bf625edae3fef7d3a13c7c7e18ec3578c0c7f1abc99d5e45cef3c6bb8d464",
      "blockNumber": 121260,
      "transactionIndex": 0,
      "confirmations": null,
      "from": "0x108feDb097c1DCfED441480170144D8e19BB217f",
      "gasPrice": {
        "_hex": "0xba43b7400"
      },
      "gasLimit": {
        "_hex": "0x5208"
      },
      "to": "0x32Be343B94f860124dC4fEe278FDCBD38C102D88",
      "value": {
        "_hex": "0x455fd68a17f06000"
      },
      "nonce": 10,
      "data": "0x",
      "r": "0xcc2ed8ec88fa4a7ef629166e0ce6ed03f2eea97da8562531b1c531cc7f856b36",
      "s": "0x0adcdc9f27bb6353df565679792c215943b689489c3c313154398a3a10f61c08",
      "v": 27,
      "creates": null,
      "raw": "0xf86c0a850ba43b74008252089432be343b94f860124dc4fee278fdcbd38c102d8888455fd68a17f06000801ba0cc2ed8ec88fa4a7ef629166e0ce6ed03f2eea97da8562531b1c531cc7f856b36a00adcdc9f27bb6353df565679792c215943b689489c3c313154398a3a10f61c08",
      "networkId": 0,
      "chainId": 0
    }
  ]
}