{
  "hash": "0x2763e78a0706ce121cd11bb08e99f07b214e722716d8b5edc5da64fe5e8f9c6f",
  "parentHash": "0x4e7abd71ead595b89026b396dae7ebec10595efc2d53c993375ab5563f935c90",
  "number": 114195,
  "timestamp": 1440036490,
  "nonce": "0x767055a54781ef33",
  "difficulty": 4446843503486,
  "gasLimit": {
    "_hex": "0x2fefd8"
  },
  "gasUsed": {
    "_hex": "0x5208"
  },
  "miner": "0xB4f6A8f7Cd91Cd4bcADcc0a20e417c392E5f50A4",
  "extraData": "0x",
  "transactions": [
    {
      "hash": "0xbdb773c0cbe1779e67d3bbe8bcc482752b864dab0e897a60f772f01b8619792e",
      "blockHash": "0x2763e78a0706ce121cd11bb08e99f07b214e722716d8b5edc5da64fe5e8f9c6f",
      "blockNumber": 114195,
      "transactionIndex": 0,
      "confirmations": null,
      "from": "0x4b0424c09BaC4Ee3f4376f1D3fA354E8Cb2D3171",
      "gasPrice": {
        "_hex": "0xd1f597753"
      },
      "gasLimit": {
        "_hex": "0x15f90"
      },
      "to": "0x34d34F0a638F6991e4E2536F41295DF6E934A646",
      "value": {
        "_hex": "0x45600403a02d8000"
      },
      "nonce": 19,
      "data": "0x",
      "r": "0x179945d759ddabf65238985f749152502045f476dcc37c3a665b19ea1a4f28f2",
      "s": "0x44bbba5f14438d6357981496c70aae5b62bea78c9e2727e4999ebe4ee2084e90",
      "v": 27,
      "creates": null,
      "raw": "0xf86d13850d1f59775383015f909434d34f0a638f6991e4e2536f41295df6e934a6468845600403a02d8000801ba0179945d759ddabf65238985f749152502045f476dcc37c3a665b19ea1a4f28f2a044bbba5f14438d6357981496c70aae5b62bea78c9e2727e4999ebe4ee2084e90",
      "networkId": 0,
      "chainId": 0
    }
  ]
}