{
  "hash": "0x6dcbd2b7a98e841d5d659a762188962a7e8040ab0f59896ea506a73748bd8bbb",
  "parentHash": "0x107f0ee68f3013b97a78528eb685c16bde410f6099ea9e6e230c508f73b849c4",
  "number": 78558,
  "timestamp": 1439455590,
  "nonce": "0x190f1238acdfd92f",
  "difficulty": 2304402987413,
  "gasLimit": {
    "_hex": "0x2fefd8"
  },
  "gasUsed": {
    "_hex": "0x5208"
  },
  "miner": "0x31995C46B15C84523cDEE26f49A681b8237e43F5",
  "extraData": "0x476574682f76312e302e312f77696e646f77732f676f312e342e32",
  "transactions": [
    {
      "hash": "0x63f6069d26892633f4cd1c4fd0e439857c0e40c6cbb468d4454cccf5b242a6c2",
      "blockHash": "0x6dcbd2b7a98e841d5d659a762188962a7e8040ab0f59896ea506a73748bd8bbb",
      "blockNumber": 78558,
      "transactionIndex": 0,
      "confirmations": null,
      "from": "0xeB1325C8D9d3ea8D74aC11F4B00F1B2367686319",
      "gasPrice": {
        "_hex": "0xcd5827c60"
      },
      "gasLimit": {
        "_hex": "0x15f90"
      },
      "to": "0x3010cacF5965f60685011055570972e92B4479aB",
      "value": {
        "_hex": "0x56bc75e2d63100000"
      },
      "nonce": 4,
      "data": "0x",
      "r": "0xf37b50ace35c2b6417fd8ff2567e092b5cef5183f6475a971abaec98f62bb597",
      "s": "0x1ea41e5763d03cfe5a07effae9a1cf92e76b192598731b163e2b0f8e75bae2fe",
      "v": 27,
      "creates": null,
      "raw": "0xf86e04850cd5827c6083015f90943010cacf5965f60685011055570972e92b4479ab89056bc75e2d63100000801ba0f37b50ace35c2b6417fd8ff2567e092b5cef5183f6475a971abaec98f62bb597a01ea41e5763d03cfe5a07effae9a1cf92e76b192598731b163e2b0f8e75bae2fe",
      "networkId": 0,
      "chainId": 0
    }
  ]
}