{
  "hash": "0x8a220c90f7aa3f7f853f4ea1085e4948cf82d32fd0ad91ab08ac27df68c12371",
  "parentHash": "0xf77d48a727ed7c2b44a7c9a29b4d5f11249367fdfe73133f728e90cc4d850994",
  "number": 49987,
  "timestamp": 1438982400,
  "nonce": "0x323942c28436c466",
  "difficulty": 1493639577620,
  "gasLimit": {
    "_hex": "0x49c53"
  },
  "gasUsed": {
    "_hex": "0x15f90"
  },
  "miner": "0x0193d941b50d91BE6567c7eE1C0Fe7AF498b4137",
  "extraData": "0x4a5ace9e4e",
  "transactions": [
    {
      "hash": "0x9e2783b3c42dea792faf9b636aeba0b4384bc0ec19f1a47d931ffee686869637",
      "blockHash": "0x8a220c90f7aa3f7f853f4ea1085e4948cf82d32fd0ad91ab08ac27df68c12371",
      "blockNumber": 49987,
      "transactionIndex": 0,
      "confirmations": null,
      "from": "0x834e9B529AC9Fa63B39A06f8D8C9B0D6791FA5dF",
      "gasPrice": {
        "_hex": "0xd06d59d63"
      },
      "gasLimit": {
        "_hex": "0x15f90"
      },
      "to": "0x109C4f2CCc82C4d77Bde15F306707320294Aea3F",
      "value": {
        "_hex": "0xde0b6b3a7640000"
      },
      "nonce": 2,
      "data": "0x",
      "r": "0xfd15f290836c34e0fca47d98f4661c21abc110891e2938ce407febd8056ee207",
      "s": "0x204f7ed2cf68321059dcffb21ca4bdbfe90ce4ecaf43401e49e90a74f13ed05e",
      "v": 28,
      "creates": null,
      "raw": "0xf86d02850d06d59d6383015f9094109c4f2ccc82c4d77bde15f306707320294aea3f880de0b6b3a7640000801ca0fd15f290836c34e0fca47d98f4661c21abc110891e2938ce407febd8056ee207a0204f7ed2cf68321059dcffb21ca4bdbfe90ce4ecaf43401e49e90a74f13ed05e",
      "networkId": 0,
      "chainId": 0
    }
  ]
}