{
  "hash": "0xf34eac4ae970eb2db34ac74fbba472c3958894a3312865bba5ea16be62d786b2",
  "parentHash": "0x0736f25d7923157a375c36df6c8360f6dd0a245cd3a32ff58d1b7fdf07bdedd5",
  "number": 112859,
  "timestamp": 1440014339,
  "nonce": "0x578133cd9d21ab89",
  "difficulty": 4430212417789,
  "gasLimit": {
    "_hex": "0x2fefd8"
  },
  "gasUsed": {
    "_hex": "0x5208"
  },
  "miner": "0xC603Ab5ef41fC61AA8b76bEddb09e3Cfcbb174BD",
  "extraData": "0x476574682f76312e302e312f77696e646f77732f676f312e342e32",
  "transactions": [
    {
      "hash": "0x47b2ba440637f03247c9e720a25885638765bfa73a992ed2c6268d68babd52de",
      "blockHash": "0xf34eac4ae970eb2db34ac74fbba472c3958894a3312865bba5ea16be62d786b2",
      "blockNumber": 112859,
      "transactionIndex": 0,
      "confirmations": null,
      "from": "0x1A22137e525478043F6E1394849e6C23932786C9",
      "gasPrice": {
        "_hex": "0xd29fc21d8"
      },
      "gasLimit": {
        "_hex": "0x5208"
      },
      "to": "0x0a41Be86378F36BA0823db204723693c0836a3E9",
      "value": {
        "_hex": "0x478a763244636140"
      },
      "nonce": 6,
      "data": "0x",
      "r": "0xf5a1b34f5df240bfed17dbd2d65372f5769288525ec26b104e675c4368db3eae",
      "s": "0x2297f952c086b9bfc137f8119c64e83e9318062663c93eb26edc6d92fb509722",
      "v": 27,
      "creates": null,
      "raw": "0xf86c06850d29fc21d8825208940a41be86378f36ba0823db204723693c0836a3e988478a763244636140801ba0f5a1b34f5df240bfed17dbd2d65372f5769288525ec26b104e675c4368db3eaea02297f952c086b9bfc137f8119c64e83e9318062663c93eb26edc6d92fb509722",
      "networkId": 0,
      "chainId": 0
    }
  ]
}