{
  "hash": "0xef2813bb63860ad5b05dee0b47fc26b8d4d3d7e81ef92292345a5ded2dd7773e",
  "parentHash": "0x72365c847dd7cce82b4da7a4052c42fb5c22129a0dbf59f43591f600a128018a",
  "number": 120347,
  "timestamp": 1440158356,
  "nonce": "0xb308414e4cc69ed5",
  "difficulty": 4426259600724,
  "gasLimit": {
    "_hex": "0x2fefd8"
  },
  "gasUsed": {
    "_hex": "0x5208"
  },
  "miner": "0xe6A7a1d47ff21B6321162AEA7C6CB457D5476Bca",
  "extraData": "0xd783010002844765746887676f312e342e32856c696e7578",
  "transactions": [
    {
      "hash": "0x8e5c0fc17888009581c5df09e8c5fa5ea1ae22c4cd1096bbbd09becc3ceecc5d",
      "blockHash": "0xef2813bb63860ad5b05dee0b47fc26b8d4d3d7e81ef92292345a5ded2dd7773e",
      "blockNumber": 120347,
      "transactionIndex": 0,
      "confirmations": null,
      "from": "0xFD7c9117BbEB649d9b37B3D3C9917f7c12f526B3",
      "gasPrice": {
        "_hex": "0xba43b7400"
      },
      "gasLimit": {
        "_hex": "0x5208"
      },
      "to": "0x32Be343B94f860124dC4fEe278FDCBD38C102D88",
      "value": {
        "_hex": "0x37c29059e40ae60000"
      },
      "nonce": 34,
      "data": "0x",
      "r": "0xb777c7c2d4eb3665c6e7a797bbe45e4a3d3bb6cc9d81668578a47fde3ea17689",
      "s": "0x2896b668aa338b056eb91549a0a26cc66a3f1b6d407d8392a65e008e010ef452",
      "v": 28,
      "creates": null,
      "raw": "0xf86d22850ba43b74008252089432be343b94f860124dc4fee278fdcbd38c102d888937c29059e40ae60000801ca0b777c7c2d4eb3665c6e7a797bbe45e4a3d3bb6cc9d81668578a47fde3ea17689a02896b668aa338b056eb91549a0a26cc66a3f1b6d407d8392a65e008e010ef452",
      "networkId": 0,
      "chainId": 0
    }
  ]
}