{
  "hash": "0xbdae6bba4385623ddb4c8feaace0de5a78f60f9d1233bc805fcd8274a6adf4cf",
  "parentHash": "0x5abf3e88bb106235bdf5895e3371b94da851270a700aad1519875b9dd2c801ba",
  "number": 53189,
  "timestamp": 1439033780,
  "nonce": "0x2d3e8b1ab028e4ef",
  "difficulty": 1578536528047,
  "gasLimit": {
    "_hex": "0x214986"
  },
  "gasUsed": {
    "_hex": "0x5208"
  },
  "miner": "0x400fb5A6482E54E44b2250E75251707514c605C1",
  "extraData": "0x476574682f76312e302e312f77696e646f77732f676f312e342e32",
  "transactions": [
    {
      "hash": "0x8fcb8022b92d7b616ea51b41961abb7056efa385e4dcf802bc8c2736a567e633",
      "blockHash": "0xbdae6bba4385623ddb4c8feaace0de5a78f60f9d1233bc805fcd8274a6adf4cf",
      "blockNumber": 53189,
      "transactionIndex": 0,
      "confirmations": null,
      "from": "0xCb75F1f9cC69e3B1A27b8d9C08bB73A58Ede24bE",
      "gasPrice": {
        "_hex": "0xd53498067"
      },
      "gasLimit": {
        "_hex": "0x15f90"
      },
      "to": "0x16893e10b99A59afd2C60331E0B49241d4d4d7cC",
      "value": {
        "_hex": "0x4563918244f40000"
      },
      "nonce": 0,
      "data": "0x",
      "r": "0x433ba86750492eb15f157511ac9ba1221ec342b65e0d9326516b512e593d489e",
      "s": "0x27ae104746e93c48e34f6e261cecd66217745921c6c4ae3848be0cba93f4985a",
      "v": 27,
      "creates": null,
      "raw": "0xf86d80850d5349806783015f909416893e10b99a59afd2c60331e0b49241d4d4d7cc884563918244f40000801ba0433ba86750492eb15f157511ac9ba1221ec342b65e0d9326516b512e593d489ea027ae104746e93c48e34f6e261cecd66217745921c6c4ae3848be0cba93f4985a",
      "networkId": 0,
      "chainId": 0
    }
  ]
}