{
  "hash": "0xe2c169166e3d7cfb8d30bc692e813cc67d8dbd7958f2855fdaf69e701129c92d",
  "parentHash": "0x911b9b2051daf0afc4b7af0a1bc1a9cbedb4a79c2cd781b20fd8538af3123be6",
  "number": 49182,
  "timestamp": 1438969391,
  "nonce": "0xce4fa54525908bcf",
  "difficulty": 1478544070525,
  "gasLimit": {
    "_hex": "0x281d9"
  },
  "gasUsed": {
    "_hex": "0x5208"
  },
  "miner": "0x123843545FB525C8E134c9A5F15ADA6865cc3848",
  "extraData": "0x476574682f76312e302e312f77696e646f77732f676f312e342e32",
  "transactions": [
    {
      "hash": "0x478d33d3ac965b083658fc11289d9f5546f6e4e0053648e17567b546f3b08269",
      "blockHash": "0xe2c169166e3d7cfb8d30bc692e813cc67d8dbd7958f2855fdaf69e701129c92d",
      "blockNumber": 49182,
      "transactionIndex": 0,
      "confirmations": null,
      "from": "0x13f418c203E89b6Fa20D46b90f7134abB7B3eDd9",
      "gasPrice": {
        "_hex": "0xccb89083a"
      },
      "gasLimit": {
        "_hex": "0x5208"
      },
      "to": "0x32Be343B94f860124dC4fEe278FDCBD38C102D88",
      "value": {
        "_hex": "0xddc91d955a1b800"
      },
      "nonce": 0,
      "data": "0x",
      "r": "0x22dbbd46850d62ad41d357feb6e40bf908104391777560d766c55b122de94283",
      "s": "0x3d1b4396acf1e5e6896226955d993b2c5c0928f36682f1ff291c793664c9517b",
      "v": 28,
      "creates": null,
      "raw": "0xf86c80850ccb89083a8252089432be343b94f860124dc4fee278fdcbd38c102d88880ddc91d955a1b800801ca022dbbd46850d62ad41d357feb6e40bf908104391777560d766c55b122de94283a03d1b4396acf1e5e6896226955d993b2c5c0928f36682f1ff291c793664c9517b",
      "networkId": 0,
      "chainId": 0
    }
  ]
}