{
  "hash": "0xd1ace4e6e4c06c9a10b3dd2f4492f7902c537226c5e444fc94a71d305a019e2f",
  "parentHash": "0xca7979080d6d7d8ff6d69e6dfb84382a3f787c6cbd02147430df85e2cedf0dbb",
  "number": 96503,
  "timestamp": 1439741443,
  "nonce": "0xae701581f770c893",
  "difficulty": 3669177848633,
  "gasLimit": {
    "_hex": "0x2fefd8"
  },
  "gasUsed": {
    "_hex": "0xa410"
  },
  "miner": "0xe6A7a1d47ff21B6321162AEA7C6CB457D5476Bca",
  "extraData": "0x476574682f76312e302e312d38326566323666362f6c696e75782f676f312e34",
  "transactions": [
    {
      "hash": "0x9bf8119f88dd4897856e4e1c6a28d7b3818e245bf1f09191594aaf140aee6048",
      "blockHash": "0xd1ace4e6e4c06c9a10b3dd2f4492f7902c537226c5e444fc94a71d305a019e2f",
      "blockNumber": 96503,
      "transactionIndex": 0,
      "confirmations": null,
      "from": "0xF109ca710C0Df51c1a86dBA1B0BA0Ed038114463",
      "gasPrice": {
        "_hex": "0xd66070aa6"
      },
      "gasLimit": {
        "_hex": "0x5208"
      },
      "to": "0x32Be343B94f860124dC4fEe278FDCBD38C102D88",
      "value": {
        "_hex": "0x1bbd177276403c00"
      },
      "nonce": 13,
      "data": "0x",
      "r": "0x68c57c3c6f13e31f53ef56baa998e766a278b0bc7c31c4f657bb91e81d94f4db",
      "s": "0x6dc5fb369e350b3cf038f498eb1113ed0fe267ad0ab0db19ea2ae1c3950f8733",
      "v": 27,
      "creates": null,
      "raw": "0xf86c0d850d66070aa68252089432be343b94f860124dc4fee278fdcbd38c102d88881bbd177276403c00801ba068c57c3c6f13e31f53ef56baa998e766a278b0bc7c31c4f657bb91e81d94f4dba06dc5fb369e350b3cf038f498eb1113ed0fe267ad0ab0db19ea2ae1c3950f8733",
      "networkId": 0,
      "chainId": 0
    },
    {
      "hash": "0xda6510adc361d5c506a508979d3c910ecbbf748719343193725933a3cc0eff7d",
      "blockHash": "0xd1ace4e6e4c06c9a10b3dd2f4492f7902c537226c5e444fc94a71d305a019e2f",
      "blockNumber": 96503,
      "transactionIndex": 1,
      "confirmations": null,
      "from": "0x7D45E10A0d63eCCA0694a7cbfF030f4dD87DA0dC",
      "gasPrice": {
        "_hex": "0xd641f460d"
      },
      "gasLimit": {
        "_hex": "0x15f90"
      },
      "to": "0x6d921977dEFE5f4e0682CA512De1D07b1f4802E1",
      "value": {
        "_hex": "0x8ac7230489e80000"
      },
      "nonce": 20,
      "data": "0x",
      "r": "0xa0a9c255318ccab30e1d0391da0e189601f4ddc48cd0b1d3d93b36da68b7853b",
      "s": "0x45197f1160392e2ac133b0405ae32004fcdc17adabb11cff1c067534195497b6",
      "v": 28,
      "creates": null,
      "raw": "0xf86d14850d641f460d83015f90946d921977defe5f4e0682ca512de1d07b1f4802e1888ac7230489e80000801ca0a0a9c255318ccab30e1d0391da0e189601f4ddc48cd0b1d3d93b36da68b7853ba045197f1160392e2ac133b0405ae32004fcdc17adabb11cff1c067534195497b6",
      "networkId": 0,
      "chainId": 0
    }
  ]
}