{
  "hash": "0x16d81b85aacd92616bd3d017b93cf65b17d1dc993d707b7f70af658b9b472a56",
  "parentHash": "0x70ffa7aa9c2daa953f23c8b8de0e31ef4d28f287826e76b68d01f370dffcc512",
  "number": 47330,
  "timestamp": 1438938299,
  "nonce": "0xca29c46ea6681695",
  "difficulty": 1451683553270,
  "gasLimit": {
    "_hex": "0xb127"
  },
  "gasUsed": {
    "_hex": "0xa410"
  },
  "miner": "0x9746c7e1ef2bd21FF3997fa467593a89cb852BD0",
  "extraData": "0x476574682f76312e302e312f77696e646f77732f676f312e342e32",
  "transactions": [
    {
      "hash": "0xc7d0f161eef1dd8b51a0f36b80ea5e8ad71ccb02fd3ad2841acb6cb864bce3df",
      "blockHash": "0x16d81b85aacd92616bd3d017b93cf65b17d1dc993d707b7f70af658b9b472a56",
      "blockNumber": 47330,
      "transactionIndex": 0,
      "confirmations": null,
      "from": "0xe6A7a1d47ff21B6321162AEA7C6CB457D5476Bca",
      "gasPrice": {
        "_hex": "0x11a8536514"
      },
      "gasLimit": {
        "_hex": "0x5208"
      },
      "to": "0x8178414Ff0aba7fD5bC60A72cB17e213b371F35C",
      "value": {
        "_hex": "0xc9e84dd25ab0abd0"
      },
      "nonce": 110,
      "data": "0x",
      "r": "0xd4d378b637a056e7d96ff09eaef29ced5795f04e7a789a0a0164addcd68dceac",
      "s": "0x0c60c21c429508a695bfe0b383e596fd642f5fff0815c48a09157da2b6fb639e",
      "v": 27,
      "creates": null,
      "raw": "0xf86c6e8511a8536514825208948178414ff0aba7fd5bc60a72cb17e213b371f35c88c9e84dd25ab0abd0801ba0d4d378b637a056e7d96ff09eaef29ced5795f04e7a789a0a0164addcd68dceaca00c60c21c429508a695bfe0b383e596fd642f5fff0815c48a09157da2b6fb639e",
      "networkId": 0,
      "chainId": 0
    },
    {
      "hash": "0xdecb4245d5884fb577f29e21191803efce6044b963aff2ee66e3df18f1df1e34",
      "blockHash": "0x16d81b85aacd92616bd3d017b93cf65b17d1dc993d707b7f70af658b9b472a56",
      "blockNumber": 47330,
      "transactionIndex": 1,
      "confirmations": null,
      "from": "0xe6A7a1d47ff21B6321162AEA7C6CB457D5476Bca",
      "gasPrice": {
        "_hex": "0x11a8536514"
      },
      "gasLimit": {
        "_hex": "0x5208"
      },
      "to": "0x834e9B529AC9Fa63B39A06f8D8C9B0D6791FA5dF",
      "value": {
        "_hex": "0xca16f8b59ee0c080"
      },
      "nonce": 111,
      "data": "0x",
      "r": "0x5f51594de7b76c7e1c1c0ff23f2bce5b2c657cf651ee23e7f5abb35f5cf1a5aa",
      "s": "0x1b7fb04bd9a61bf6d36f45f21ab0f8aac4bf385ae1f3f0d93e1d77a7820939d9",
      "v": 27,
      "creates": null,
      "raw": "0xf86c6f8511a853651482520894834e9b529ac9fa63b39a06f8d8c9b0d6791fa5df88ca16f8b59ee0c080801ba05f51594de7b76c7e1c1c0ff23f2bce5b2c657cf651ee23e7f5abb35f5cf1a5aaa01b7fb04bd9a61bf6d36f45f21ab0f8aac4bf385ae1f3f0d93e1d77a7820939d9",
      "networkId": 0,
      "chainId": 0
    }
  ]
}