{
  "hash": "0xe6cedcbcb3f5164e30a0cd4cd567b811557ffad1682dbd6a70e7d6697085a4a2",
  "parentHash": "0xb3be7dc391aa9161fad4bb0143c5af321fdfa0f7e8a525638f10d87f628c7f5d",
  "number": 51223,
  "timestamp": 1439001410,
  "nonce": "0xf385b06cf2f4340e",
  "difficulty": 1565090221777,
  "gasLimit": {
    "_hex": "0x9b565"
  },
  "gasUsed": {
    "_hex": "0x31818"
  },
  "miner": "0x5B3e850E39e6f2C7dD38707b649e2B3536F14C0b",
  "extraData": "0x476574682f76312e302e312f64617277696e2f676f312e342e32",
  "transactions": [
    {
      "hash": "0x7b0f664009023633813ba953b619f3e8fd316fb4e045f6a83878608cb1e60a79",
      "blockHash": "0xe6cedcbcb3f5164e30a0cd4cd567b811557ffad1682dbd6a70e7d6697085a4a2",
      "blockNumber": 51223,
      "transactionIndex": 0,
      "confirmations": null,
      "from": "0x2a9345Be3f611A15B4ac383C0f601c4B16b24577",
      "gasPrice": {
        "_hex": "0xdb1376d8c"
      },
      "gasLimit": {
        "_hex": "0x7a120"
      },
      "to": "0xBAA54d6E90c3F4d7Ebec11bD180134C7eD8eBb52",
      "value": {
        "_hex": "0x16345785d8a0000"
      },
      "nonce": 1,
      "data": "0x",
      "r": "0xdf80541dc252fcae4e1433bed76fadcdb2605f73fcbda33d11f7ea938b17504c",
      "s": "0x5dfc65b5f6178d71efeee4059487d022f3ca9254c6c427c84b88a16d25e04206",
      "v": 27,
      "creates": null,
      "raw": "0xf86d01850db1376d8c8307a12094baa54d6e90c3f4d7ebec11bd180134c7ed8ebb5288016345785d8a0000801ba0df80541dc252fcae4e1433bed76fadcdb2605f73fcbda33d11f7ea938b17504ca05dfc65b5f6178d71efeee4059487d022f3ca9254c6c427c84b88a16d25e04206",
      "networkId": 0,
      "chainId": 0
    }
  ]
}