{
  "hash": "0x4de3006269cb79ecacd4db55d28f7c1a4ede1782aa58e4342a0d8ff4e865b089",
  "parentHash": "0xd3cf376e44b7c193ee1c4ea32496dbbe2bfe99a4e044576cbc6ca657be1f9ab0",
  "number": 61494,
  "timestamp": 1439173232,
  "nonce": "0x6c2bec237b7dee0a",
  "difficulty": 1739595605310,
  "gasLimit": {
    "_hex": "0x2fefd5"
  },
  "gasUsed": {
    "_hex": "0x5208"
  },
  "miner": "0x39A1BB80a741bF5EC39FB9BE59408Fa0F418fFBf",
  "extraData": "0x476574682f76312e302e312f77696e646f77732f676f312e342e32",
  "transactions": [
    {
      "hash": "0x46cd050f6efc166aaf5d7c7a15ab8bae9fd432a265a2f3dde09e1ce76cb867f5",
      "blockHash": "0x4de3006269cb79ecacd4db55d28f7c1a4ede1782aa58e4342a0d8ff4e865b089",
      "blockNumber": 61494,
      "transactionIndex": 0,
      "confirmations": null,
      "from": "0x1308A2e95c0160B90803ddCA9B9a5bb55E416d79",
      "gasPrice": {
        "_hex": "0xe8d4a51000"
      },
      "gasLimit": {
        "_hex": "0x15f90"
      },
      "to": "0x025c3B43d57E72D2150E14B2B0c6D923FbFC0474",
      "value": {
        "_hex": "0x3635c9adc5dea00000"
      },
      "nonce": 79,
      "data": "0x",
      "r": "0x2f643594f87446f3af6e0f23a2405e42a154a0666d8682c6bf4601c5ed8a57f7",
      "s": "0x38b2e134b7432dd8c378462a9a4d7787af069f1840d2eeac6cc516c0efcb5344",
      "v": 27,
      "creates": null,
      "raw": "0xf86e4f85e8d4a5100083015f9094025c3b43d57e72d2150e14b2b0c6d923fbfc0474893635c9adc5dea00000801ba02f643594f87446f3af6e0f23a2405e42a154a0666d8682c6bf4601c5ed8a57f7a038b2e134b7432dd8c378462a9a4d7787af069f1840d2eeac6cc516c0efcb5344",
      "networkId": 0,
      "chainId": 0
    }
  ]
}