{
  "hash": "0x8b5001d095e6870b5091dda324e91f8cee8477745a3928ebe6dffeca2bdb563b",
  "parentHash": "0x3ffc81984ad85fb97c03a5f61c60b7fc83529ede05beda1c65b7349d6f6e0fac",
  "number": 102614,
  "timestamp": 1439840610,
  "nonce": "0xefe98bc83afbf07e",
  "difficulty": 4009211567083,
  "gasLimit": {
    "_hex": "0x2fefd8"
  },
  "gasUsed": {
    "_hex": "0x5208"
  },
  "miner": "0xeB1325C8D9d3ea8D74aC11F4B00F1B2367686319",
  "extraData": "0x",
  "transactions": [
    {
      "hash": "0xd24d5e26957452e4846e31453ecb9c08ac3de1ca5968ac4b7741aeb3ebff28b2",
      "blockHash": "0x8b5001d095e6870b5091dda324e91f8cee8477745a3928ebe6dffeca2bdb563b",
      "blockNumber": 102614,
      "transactionIndex": 0,
      "confirmations": null,
      "from": "0x13db2d4DF4EE21C407B0B3F867d2892037f05DB3",
      "gasPrice": {
        "_hex": "0xd5f42aa18"
      },
      "gasLimit": {
        "_hex": "0x7a120"
      },
      "to": "0xBBDa93a81B882774e1c9b5e3F933Fa35DaC8bc88",
      "value": {
        "_hex": "0x2191204f5679e0000"
      },
      "nonce": 0,
      "data": "0x",
      "r": "0xbe3953afda980f68efa138b4262862bc6f3f43018146d0d718acf809a7d28ed2",
      "s": "0x04cd043dba8ce3eea0382f02842d9349cd854789fc8e46e80256aa3847a9cd26",
      "v": 28,
      "creates": null,
      "raw": "0xf86e80850d5f42aa188307a12094bbda93a81b882774e1c9b5e3f933fa35dac8bc888902191204f5679e0000801ca0be3953afda980f68efa138b4262862bc6f3f43018146d0d718acf809a7d28ed2a004cd043dba8ce3eea0382f02842d9349cd854789fc8e46e80256aa3847a9cd26",
      "networkId": 0,
      "chainId": 0
    }
  ]
}