{
  "hash": "0xe169b8a05d9d0a5baffc95c326dd06af4ba5792a38cf3a6447667ce8403cb2b1",
  "parentHash": "0x645e1e3eced48d9220addb4568065ecbe1cb4ba832c153dbb8f5b47a3056deae",
  "number": 111243,
  "timestamp": 1439987090,
  "nonce": "0xf4e21580a2775ec1",
  "difficulty": 4392291671759,
  "gasLimit": {
    "_hex": "0x2fefd8"
  },
  "gasUsed": {
    "_hex": "0x5208"
  },
  "miner": "0xcf00A85f3826941e7A25BFcF9Aac575d40410852",
  "extraData": "0x476574682f76312e302e312f77696e646f77732f676f312e342e32",
  "transactions": [
    {
      "hash": "0x470ce6c80ffb7dab64e9f60f2e95ae4962ec20e518c23d7dc5918865a64cf76e",
      "blockHash": "0xe169b8a05d9d0a5baffc95c326dd06af4ba5792a38cf3a6447667ce8403cb2b1",
      "blockNumber": 111243,
      "transactionIndex": 0,
      "confirmations": null,
      "from": "0x120A270bbC009644e35F0bB6ab13f95b8199c4ad",
      "gasPrice": {
        "_hex": "0xceeec6601"
      },
      "gasLimit": {
        "_hex": "0x3d090"
      },
      "to": "0xD3c6b518F1631509963232bA8e1882D3474a5838",
      "value": {
        "_hex": "0x268f31845b521cfc00"
      },
      "nonce": 873,
      "data": "0x",
      "r": "0x9cd222152c5284dad03fcebd9236f1e81fb1d6f053128adcbc59559728747475",
      "s": "0x36476843d0187f11b12e12a62eb00e516818adb72b7f0373e4606fb815b66c7b",
      "v": 27,
      "creates": null,
      "raw": "0xf870820369850ceeec66018303d09094d3c6b518f1631509963232ba8e1882d3474a583889268f31845b521cfc00801ba09cd222152c5284dad03fcebd9236f1e81fb1d6f053128adcbc59559728747475a036476843d0187f11b12e12a62eb00e516818adb72b7f0373e4606fb815b66c7b",
      "networkId": 0,
      "chainId": 0
    }
  ]
}