{
  "hash": "0xb0f86027f7eaf34160b575f2b2ae74416ed9a576b2654929f8509e42739a544a",
  "parentHash": "0xa8e04b651f5818c848e2019c4ff169f902b8563c94e7df23ed44cca93ce28627",
  "number": 86214,
  "timestamp": 1439575308,
  "nonce": "0x7f57a59b6064808c",
  "difficulty": 2815333873603,
  "gasLimit": {
    "_hex": "0x2fefd8"
  },
  "gasUsed": {
    "_hex": "0xa410"
  },
  "miner": "0x21D46e5e1C37D3fa2157A393Fa444EafE63646Fa",
  "extraData": "0x",
  "transactions": [
    {
      "hash": "0x16cd3506d48cd2a842f23d43ad64a93b3efb6982f4bc69da60b6287cdc69e392",
      "blockHash": "0xb0f86027f7eaf34160b575f2b2ae74416ed9a576b2654929f8509e42739a544a",
      "blockNumber": 86214,
      "transactionIndex": 0,
      "confirmations": null,
      "from": "0x2910543Af39abA0Cd09dBb2D50200b3E800A63D2",
      "gasPrice": {
        "_hex": "0xd26d02cee"
      },
      "gasLimit": {
        "_hex": "0x5208"
      },
      "to": "0x548938756fCb5655A7523f66C01F1cd40aa620bE",
      "value": {
        "_hex": "0x38d7ea4c680000"
      },
      "nonce": 653,
      "data": "0x",
      "r": "0xb2c80717ede70487ac3eba615e494fac8e67b0829c23f8b52f211ef41a6c5993",
      "s": "0x0387c8617f36a27ac0cd660286e25baf803b3feadcaed56605b506577c7c6167",
      "v": 27,
      "creates": null,
      "raw": "0xf86d82028d850d26d02cee82520894548938756fcb5655a7523f66c01f1cd40aa620be8738d7ea4c680000801ba0b2c80717ede70487ac3eba615e494fac8e67b0829c23f8b52f211ef41a6c5993a00387c8617f36a27ac0cd660286e25baf803b3feadcaed56605b506577c7c6167",
      "networkId": 0,
      "chainId": 0
    },
    {
      "hash": "0x78a5159bb304fc52227a64ce242ee142d337a1058d27108771ad6ecfebdf7042",
      "blockHash": "0xb0f86027f7eaf34160b575f2b2ae74416ed9a576b2654929f8509e42739a544a",
      "blockNumber": 86214,
      "transactionIndex": 1,
      "confirmations": null,
      "from": "0x77EC9ad4A7E9418774C29415CAaF4Ee0da96eF64",
      "gasPrice": {
        "_hex": "0xd2673974b"
      },
      "gasLimit": {
        "_hex": "0x15f90"
      },
      "to": "0x6A8CC233E14F874983bB2F37D1DE706f6910Ef0b",
      "value": {
        "_hex": "0x68155a43676e00000"
      },
      "nonce": 0,
      "data": "0x",
      "r": "0x7603eee2a85f3281dfe133379f94614f8dff83afe6ad3681c9433bf7b98f4a20",
      "s": "0x5692b5ef112773cd933e90bb24fc344763c8ab8ec0d7c1b14233fa5258b7ad12",
      "v": 27,
      "creates": null,
      "raw": "0xf86e80850d2673974b83015f90946a8cc233e14f874983bb2f37d1de706f6910ef0b89068155a43676e00000801ba07603eee2a85f3281dfe133379f94614f8dff83afe6ad3681c9433bf7b98f4a20a05692b5ef112773cd933e90bb24fc344763c8ab8ec0d7c1b14233fa5258b7ad12",
      "networkId": 0,
      "chainId": 0
    }
  ]
}