{
  "hash": "0x5362e6aafe482ae94551854dfbcad366bc5450ead23b26b2fbe5f3d8f27e3bb7",
  "parentHash": "0x56d863bcc90e136235f59d09324dc708ca6d05c5d25d4e3b45c3f08ffc6dd514",
  "number": 102545,
  "timestamp": 1439839689,
  "nonce": "0x5c56173c4fda7032",
  "difficulty": 3979987232637,
  "gasLimit": {
    "_hex": "0x2fefd8"
  },
  "gasUsed": {
    "_hex": "0xa410"
  },
  "miner": "0x55bAf64fc9eAccFFd7Cc643BB61142E1C6ac093e",
  "extraData": "0x",
  "transactions": [
    {
      "hash": "0x8c74920b57f3ef58b8e4d021563bde79d4a5ebfa6c6a8e312e9382554ee1440c",
      "blockHash": "0x5362e6aafe482ae94551854dfbcad366bc5450ead23b26b2fbe5f3d8f27e3bb7",
      "blockNumber": 102545,
      "transactionIndex": 0,
      "confirmations": null,
      "from": "0xBBDa93a81B882774e1c9b5e3F933Fa35DaC8bc88",
      "gasPrice": {
        "_hex": "0xcf14353d2"
      },
      "gasLimit": {
        "_hex": "0x5208"
      },
      "to": "0x32Be343B94f860124dC4fEe278FDCBD38C102D88",
      "value": {
        "_hex": "0x8a585cd17d052000"
      },
      "nonce": 6,
      "data": "0x",
      "r": "0xec929b1852c27b165d4a60b94c1f1747aa98989ec4456afdd958002f1d4ee850",
      "s": "0x137ffea5221ae92fc088dfdcb487bd04513f01e399f4ea43a1b1830cb04213c6",
      "v": 28,
      "creates": null,
      "raw": "0xf86c06850cf14353d28252089432be343b94f860124dc4fee278fdcbd38c102d88888a585cd17d052000801ca0ec929b1852c27b165d4a60b94c1f1747aa98989ec4456afdd958002f1d4ee850a0137ffea5221ae92fc088dfdcb487bd04513f01e399f4ea43a1b1830cb04213c6",
      "networkId": 0,
      "chainId": 0
    },
    {
      "hash": "0xe673219d7a09c33ab480ec7df24f1d6c39ef544306c11b526a7f75d3abe3f214",
      "blockHash": "0x5362e6aafe482ae94551854dfbcad366bc5450ead23b26b2fbe5f3d8f27e3bb7",
      "blockNumber": 102545,
      "transactionIndex": 1,
      "confirmations": null,
      "from": "0xa2037AA76DF2c3F5F04455844f057758fE1FA6B1",
      "gasPrice": {
        "_hex": "0xce6aaf353"
      },
      "gasLimit": {
        "_hex": "0x7a120"
      },
      "to": "0xBBDa93a81B882774e1c9b5e3F933Fa35DaC8bc88",
      "value": {
        "_hex": "0x114dca34ce50b0000"
      },
      "nonce": 0,
      "data": "0x",
      "r": "0x9e711c8142cf90d41043a7d64782b88bff93f41b46598b629ddd010073cd8675",
      "s": "0x6471426c22d5486ab12cb9d96ade3876562d313c0a0e4d8ba1088eb75a943fbf",
      "v": 28,
      "creates": null,
      "raw": "0xf86e80850ce6aaf3538307a12094bbda93a81b882774e1c9b5e3f933fa35dac8bc88890114dca34ce50b0000801ca09e711c8142cf90d41043a7d64782b88bff93f41b46598b629ddd010073cd8675a06471426c22d5486ab12cb9d96ade3876562d313c0a0e4d8ba1088eb75a943fbf",
      "networkId": 0,
      "chainId": 0
    }
  ]
}