{
  "hash": "0xae556f76be2c836705dfe73bf3f42a825dad91ef513de1643cebb5131c62881e",
  "parentHash": "0x4b61aa9648e16c8edf2ee31e88e54c23fc5e191576792e326530c4d44fd16644",
  "number": 102752,
  "timestamp": 1439842681,
  "nonce": "0x90e659f39b58c901",
  "difficulty": 4036645771163,
  "gasLimit": {
    "_hex": "0x2fefd8"
  },
  "gasUsed": {
    "_hex": "0xa410"
  },
  "miner": "0xe6A7a1d47ff21B6321162AEA7C6CB457D5476Bca",
  "extraData": "0x476574682f76312e302e312d38326566323666362f6c696e75782f676f312e34",
  "transactions": [
    {
      "hash": "0xe16d51476ede1ba78d5ac7b11b20ef3d7629a2a5142be0a90ab546caefe6e21d",
      "blockHash": "0xae556f76be2c836705dfe73bf3f42a825dad91ef513de1643cebb5131c62881e",
      "blockNumber": 102752,
      "transactionIndex": 0,
      "confirmations": null,
      "from": "0x0EDcC8702211F285ca090EF919b6EFF6C2E92eB0",
      "gasPrice": {
        "_hex": "0xd43860b2c"
      },
      "gasLimit": {
        "_hex": "0x5208"
      },
      "to": "0x32Be343B94f860124dC4fEe278FDCBD38C102D88",
      "value": {
        "_hex": "0xddc76a7b2c0c000"
      },
      "nonce": 0,
      "data": "0x",
      "r": "0x9fc786aa9d7b6d92000af91459e7e91d243c29cdea5e5f9bbe2a5863a189dd67",
      "s": "0x20b288531bc40c182544a98aa2c139f81f8b4e6d5577abe9d6d7c07a4280a3b7",
      "v": 27,
      "creates": null,
      "raw": "0xf86c80850d43860b2c8252089432be343b94f860124dc4fee278fdcbd38c102d88880ddc76a7b2c0c000801ba09fc786aa9d7b6d92000af91459e7e91d243c29cdea5e5f9bbe2a5863a189dd67a020b288531bc40c182544a98aa2c139f81f8b4e6d5577abe9d6d7c07a4280a3b7",
      "networkId": 0,
      "chainId": 0
    },
    {
      "hash": "0x052e70a4e5d3d3e67e75b80d397b78c0a8d5bfb7a4803dfb0680d66a438ee0ac",
      "blockHash": "0xae556f76be2c836705dfe73bf3f42a825dad91ef513de1643cebb5131c62881e",
      "blockNumber": 102752,
      "transactionIndex": 1,
      "confirmations": null,
      "from": "0xaB7668Bea763e384bD4aEf98D771f70Db28FFbD4",
      "gasPrice": {
        "_hex": "0xd43860b2c"
      },
      "gasLimit": {
        "_hex": "0x5208"
      },
      "to": "0x32Be343B94f860124dC4fEe278FDCBD38C102D88",
      "value": {
        "_hex": "0xd8d722770b85e00000"
      },
      "nonce": 1,
      "data": "0x",
      "r": "0x4b2c19d90c0289a5d2a8dfcf2d28776b37d9be7bdb809a8f83c838384313e3b3",
      "s": "0x1f16213139e8e5fedf092bf2aac5725cb05ecc66a89cb40eb1c1f391e55f31f4",
      "v": 27,
      "creates": null,
      "raw": "0xf86d01850d43860b2c8252089432be343b94f860124dc4fee278fdcbd38c102d8889d8d722770b85e00000801ba04b2c19d90c0289a5d2a8dfcf2d28776b37d9be7bdb809a8f83c838384313e3b3a01f16213139e8e5fedf092bf2aac5725cb05ecc66a89cb40eb1c1f391e55f31f4",
      "networkId": 0,
      "chainId": 0
    }
  ]
}