{
  "hash": "0x87de59c65e4390c7b5be26dbc5f3a6a6e8f0886052faf79176b533de287091cc",
  "parentHash": "0x7645f557530fba64ca63c38fe2694214795635de95b071d9ac52abefa29f33a4",
  "number": 119105,
  "timestamp": 1440136865,
  "nonce": "0x40330498ca295866",
  "difficulty": 4418277111328,
  "gasLimit": {
    "_hex": "0x2fefd8"
  },
  "gasUsed": {
    "_hex": "0x5208"
  },
  "miner": "0xe6A7a1d47ff21B6321162AEA7C6CB457D5476Bca",
  "extraData": "0xd783010002844765746887676f312e342e32856c696e7578",
  "transactions": [
    {
      "hash": "0x8bf230dbc96fe4912b7b5b5f12bfd0a032cca35958b0955f06bb7f1b078dbc81",
      "blockHash": "0x87de59c65e4390c7b5be26dbc5f3a6a6e8f0886052faf79176b533de287091cc",
      "blockNumber": 119105,
      "transactionIndex": 0,
      "confirmations": null,
      "from": "0xF2ED3E77254ACb83231dc0860E1a11242BA627db",
      "gasPrice": {
        "_hex": "0xdcaf86789"
      },
      "gasLimit": {
        "_hex": "0x15f90"
      },
      "to": "0x21895C01b82eA35dF09ca8E69d5E77c8D639e175",
      "value": {
        "_hex": "0x821ab0d4414980000"
      },
      "nonce": 3,
      "data": "0x",
      "r": "0xa1f96c2287ff1df49ed9c4b9f751e000786fe968bbad3160905206b49ec13a63",
      "s": "0x6e38f9577ed95430c8c928d9fe2b3e19e164e22c95e38534e265b9edd6b7a489",
      "v": 27,
      "creates": null,
      "raw": "0xf86e03850dcaf8678983015f909421895c01b82ea35df09ca8e69d5e77c8d639e175890821ab0d4414980000801ba0a1f96c2287ff1df49ed9c4b9f751e000786fe968bbad3160905206b49ec13a63a06e38f9577ed95430c8c928d9fe2b3e19e164e22c95e38534e265b9edd6b7a489",
      "networkId": 0,
      "chainId": 0
    }
  ]
}