{
  "hash": "0x285ec11d709c6b5f20a0b3b021517f4c503d049daeaaa60fd1bd705026e34485",
  "parentHash": "0xb4820adfdcbbaf2d667ef72b1d69e17826fc1cbbc857b3719726cb0463749515",
  "number": 74778,
  "timestamp": 1439392186,
  "nonce": "0xe0fc82b95db149cf",
  "difficulty": 2197720485351,
  "gasLimit": {
    "_hex": "0x2fefd5"
  },
  "gasUsed": {
    "_hex": "0x546c"
  },
  "miner": "0xe6A7a1d47ff21B6321162AEA7C6CB457D5476Bca",
  "extraData": "0x476574682f76312e302e312d38326566323666362f6c696e75782f676f312e34",
  "transactions": [
    {
      "hash": "0x8f60f0ecf14cba3ae95acd0cde7decdcd1e0f658a6d9f6e3ab9434bf9e51fc84",
      "blockHash": "0x285ec11d709c6b5f20a0b3b021517f4c503d049daeaaa60fd1bd705026e34485",
      "blockNumber": 74778,
      "transactionIndex": 0,
      "confirmations": null,
      "from": "0x7409AD0F9A56C154e2a23176962D3e111A72A9Eb",
      "gasPrice": {
        "_hex": "0xd349b9cdf"
      },
      "gasLimit": {
        "_hex": "0x15f90"
      },
      "to": "0x2910543Af39abA0Cd09dBb2D50200b3E800A63D2",
      "value": {
        "_hex": "0x136dcc951d8c0000"
      },
      "nonce": 1,
      "data": "0x454e39505a384d5847",
      "r": "0xf385c69c5e85355a10953405c9aea35eb310aec75b32b68cc1a52dd2b5b42caa",
      "s": "0x62d3e8a052fb33f5fdaf23110182eaf872a996bc63a55ebbdfa8d885ce017412",
      "v": 27,
      "creates": null,
      "raw": "0xf87601850d349b9cdf83015f90942910543af39aba0cd09dbb2d50200b3e800a63d288136dcc951d8c000089454e39505a384d58471ba0f385c69c5e85355a10953405c9aea35eb310aec75b32b68cc1a52dd2b5b42caaa062d3e8a052fb33f5fdaf23110182eaf872a996bc63a55ebbdfa8d885ce017412",
      "networkId": 0,
      "chainId": 0
    }
  ]
}