{
  "hash": "0xb470041c3b51c3948186c03d4780961ca1743dea47ee18fe58c3bb03988ec4b0",
  "parentHash": "0x5ba63c561d814e10134f3de7510a65b5923f06f91c2d0747013a550512fbb0e9",
  "number": 112324,
  "timestamp": 1440005728,
  "nonce": "0x151981d000af5f6a",
  "difficulty": 4393870615544,
  "gasLimit": {
    "_hex": "0x2fefd8"
  },
  "gasUsed": {
    "_hex": "0x5208"
  },
  "miner": "0xe6A7a1d47ff21B6321162AEA7C6CB457D5476Bca",
  "extraData": "0x476574682f76312e302e312d38326566323666362f6c696e75782f676f312e34",
  "transactions": [
    {
      "hash": "0xc29d48c9e59966e0301f52f7cbd869ce22d3c8628863b3560c1d5b84f6b8d9f7",
      "blockHash": "0xb470041c3b51c3948186c03d4780961ca1743dea47ee18fe58c3bb03988ec4b0",
      "blockNumber": 112324,
      "transactionIndex": 0,
      "confirmations": null,
      "from": "0x8c0A6b62918D317e3B431EfB67E3fB5eff333b1c",
      "gasPrice": {
        "_hex": "0xba43b7400"
      },
      "gasLimit": {
        "_hex": "0x5208"
      },
      "to": "0xC47Aaa860008be6f65B58c6C6E02a84e666EfE31",
      "value": {
        "_hex": "0x56bc3a335360c6000"
      },
      "nonce": 7,
      "data": "0x",
      "r": "0xe2a80a71ee3898bbec3a824cb30014a6b9f9ebfb0e91ab1d9e39b7f8c68b687c",
      "s": "0x126e155c5fdf716d8399c793d38892ed70a08240a3bc547476a57dbfdf04e24b",
      "v": 28,
      "creates": null,
      "raw": "0xf86d07850ba43b740082520894c47aaa860008be6f65b58c6c6e02a84e666efe3189056bc3a335360c6000801ca0e2a80a71ee3898bbec3a824cb30014a6b9f9ebfb0e91ab1d9e39b7f8c68b687ca0126e155c5fdf716d8399c793d38892ed70a08240a3bc547476a57dbfdf04e24b",
      "networkId": 0,
      "chainId": 0
    }
  ]
}