{
  "hash": "0x8ca991fd4776cc7c4c2346d006ce4b7ecc7b13487f51f6d872beac14670ad359",
  "parentHash": "0x88172ee3fc71e47c71369ce0215948c716236e5b011b6e1c5b6b85cfb07b01df",
  "number": 63962,
  "timestamp": 1439213134,
  "nonce": "0x41de108def96e276",
  "difficulty": 1845829526139,
  "gasLimit": {
    "_hex": "0x2fefd8"
  },
  "gasUsed": {
    "_hex": "0x5208"
  },
  "miner": "0xf927a40C8B7F6E07c5af7FA2155B4864a4112B13",
  "extraData": "0x",
  "transactions": [
    {
      "hash": "0x3f61ddf5185ab62605e7eaf6af35b5457e6633fefc9c96708b55d83c806a2212",
      "blockHash": "0x8ca991fd4776cc7c4c2346d006ce4b7ecc7b13487f51f6d872beac14670ad359",
      "blockNumber": 63962,
      "transactionIndex": 0,
      "confirmations": null,
      "from": "0xFC700aC19c00bcBE58f37458e6e738de57FDaa34",
      "gasPrice": {
        "_hex": "0xd69b48315"
      },
      "gasLimit": {
        "_hex": "0x15f90"
      },
      "to": "0x3175a28CF6105466923f11bFFabD279F162aa2f8",
      "value": {
        "_hex": "0x14d1120d7b160000"
      },
      "nonce": 1,
      "data": "0x",
      "r": "0x981f053df10f9fda3a293b1855bd2a3754392ec840a0251a3789fe391987c2fb",
      "s": "0x5942319cdea4465ebee557b3e6687380ef503f016a97000dec5658171aae9757",
      "v": 27,
      "creates": null,
      "raw": "0xf86d01850d69b4831583015f90943175a28cf6105466923f11bffabd279f162aa2f88814d1120d7b160000801ba0981f053df10f9fda3a293b1855bd2a3754392ec840a0251a3789fe391987c2fba05942319cdea4465ebee557b3e6687380ef503f016a97000dec5658171aae9757",
      "networkId": 0,
      "chainId": 0
    }
  ]
}