{
  "hash": "0x3b88d42c0ac8171a74d2e8c5893e917599d084a219d931d4991f2d65499ce1dd",
  "parentHash": "0xdfa28047be249b8fa00aa812ddf27a30bb30306e2cfed61b5bce2bdaefe57a66",
  "number": 102917,
  "timestamp": 1439844990,
  "nonce": "0xf6ede597b2ec5c11",
  "difficulty": 4114171153980,
  "gasLimit": {
    "_hex": "0x2fefd8"
  },
  "gasUsed": {
    "_hex": "0xa410"
  },
  "miner": "0x858079E02403b10748B71A02195b6608Abaf6b8f",
  "extraData": "0x476574682f76312e302e312f77696e646f77732f676f312e342e32",
  "transactions": [
    {
      "hash": "0xb040a033f93415f3244518d6a5dbe6c935a03c01710274e130f4aeb78ad507b2",
      "blockHash": "0x3b88d42c0ac8171a74d2e8c5893e917599d084a219d931d4991f2d65499ce1dd",
      "blockNumber": 102917,
      "transactionIndex": 0,
      "confirmations": null,
      "from": "0x5E94b6CB3ac96e2b87aCDF77B3Ffcc2C6851Baf4",
      "gasPrice": {
        "_hex": "0xd40cac4d2"
      },
      "gasLimit": {
        "_hex": "0x5208"
      },
      "to": "0xFBb1b73C4f0BDa4f67dcA266ce6Ef42f520fBB98",
      "value": {
        "_hex": "0xdd8ea07b5303170"
      },
      "nonce": 0,
      "data": "0x",
      "r": "0x955c604f8e5fc9262ac60c144d38ae7653e54e8fd24701050fae2cb3fc1d0449",
      "s": "0x7a64ca6a9cdc42e303492a155529e9ede4da335862df9a2422d6031e736d8f78",
      "v": 27,
      "creates": null,
      "raw": "0xf86c80850d40cac4d282520894fbb1b73c4f0bda4f67dca266ce6ef42f520fbb98880dd8ea07b5303170801ba0955c604f8e5fc9262ac60c144d38ae7653e54e8fd24701050fae2cb3fc1d0449a07a64ca6a9cdc42e303492a155529e9ede4da335862df9a2422d6031e736d8f78",
      "networkId": 0,
      "chainId": 0
    },
    {
      "hash": "0xe6af6e17f3a523ded02234353ae4904aae40ec71a676fb37596418d81c21c8d8",
      "blockHash": "0x3b88d42c0ac8171a74d2e8c5893e917599d084a219d931d4991f2d65499ce1dd",
      "blockNumber": 102917,
      "transactionIndex": 1,
      "confirmations": null,
      "from": "0xcf00A85f3826941e7A25BFcF9Aac575d40410852",
      "gasPrice": {
        "_hex": "0xcb5bea614"
      },
      "gasLimit": {
        "_hex": "0x15f90"
      },
      "to": "0xD9666150A9dA92d9108198a4072970805a8B3428",
      "value": {
        "_hex": "0x4563918244f40000"
      },
      "nonce": 47,
      "data": "0x",
      "r": "0x148c5c7ea4c06872fa5a966ede5bf5a9ec96248ffb6825c0b84093776c3a59d0",
      "s": "0x6db61d7bad53d5a9eaa10e2af63cf313eb6620b5d43a73a4f2bdd60b056c4b73",
      "v": 28,
      "creates": null,
      "raw": "0xf86d2f850cb5bea61483015f9094d9666150a9da92d9108198a4072970805a8b3428884563918244f40000801ca0148c5c7ea4c06872fa5a966ede5bf5a9ec96248ffb6825c0b84093776c3a59d0a06db61d7bad53d5a9eaa10e2af63cf313eb6620b5d43a73a4f2bdd60b056c4b73",
      "networkId": 0,
      "chainId": 0
    }
  ]
}