{
  "hash": "0x14df95655816379cb6039658ef2931dc815c23f161788713ce059c9a161ad835",
  "parentHash": "0xd4834266146e0e380b7dbceaace35eede5c08a0a0d21f8ade2ce35be66ea35ec",
  "number": 119474,
  "timestamp": 1440143661,
  "nonce": "0x90bde325f6a7e37a",
  "difficulty": 4390127110818,
  "gasLimit": {
    "_hex": "0x2fefd8"
  },
  "gasUsed": {
    "_hex": "0xa410"
  },
  "miner": "0xe6A7a1d47ff21B6321162AEA7C6CB457D5476Bca",
  "extraData": "0xd783010002844765746887676f312e342e32856c696e7578",
  "transactions": [
    {
      "hash": "0xd5fda6c8f0695b12a4a88ae4633851cdf4ce63504b7ac86f34180cb5baa4d7f9",
      "blockHash": "0x14df95655816379cb6039658ef2931dc815c23f161788713ce059c9a161ad835",
      "blockNumber": 119474,
      "transactionIndex": 0,
      "confirmations": null,
      "from": "0x8Ad679342135277c2db3e0e469CE16c34367Ad88",
      "gasPrice": {
        "_hex": "0xba43b7400"
      },
      "gasLimit": {
        "_hex": "0x5208"
      },
      "to": "0x32Be343B94f860124dC4fEe278FDCBD38C102D88",
      "value": {
        "_hex": "0x4e0fc8030ac248000"
      },
      "nonce": 3,
      "data": "0x",
      "r": "0xd2fc1b30ae11975c701f408ad991adf0d15ab54aa59d7013aa71a19f23c86712",
      "s": "0x32928274965db95d61b39cf2a65419b6a4cd42e2b7fc89b07b8e0aaa8376f109",
      "v": 27,
      "creates": null,
      "raw": "0xf86d03850ba43b74008252089432be343b94f860124dc4fee278fdcbd38c102d888904e0fc8030ac248000801ba0d2fc1b30ae11975c701f408ad991adf0d15ab54aa59d7013aa71a19f23c86712a032928274965db95d61b39cf2a65419b6a4cd42e2b7fc89b07b8e0aaa8376f109",
      "networkId": 0,
      "chainId": 0
    },
    {
      "hash": "0xff78c7cc0c97d3f7c1d6a0cd4976e4f8822152145fa22d5617ce03b433470d79",
      "blockHash": "0x14df95655816379cb6039658ef2931dc815c23f161788713ce059c9a161ad835",
      "blockNumber": 119474,
      "transactionIndex": 1,
      "confirmations": null,
      "from": "0x3c2d298f2Ecb86371A124a58501d6DAd585868F9",
      "gasPrice": {
        "_hex": "0xba43b7400"
      },
      "gasLimit": {
        "_hex": "0x5208"
      },
      "to": "0x32Be343B94f860124dC4fEe278FDCBD38C102D88",
      "value": {
        "_hex": "0x34a1ea3f936e800"
      },
      "nonce": 1,
      "data": "0x",
      "r": "0x9f46850f4ea45e67298d8cb80b5f5b1267864b298e50afe75e759220006bad86",
      "s": "0x759128416a22db953b1587c5c4e12913282d234f0318f019cceee7e6921f5134",
      "v": 27,
      "creates": null,
      "raw": "0xf86c01850ba43b74008252089432be343b94f860124dc4fee278fdcbd38c102d8888034a1ea3f936e800801ba09f46850f4ea45e67298d8cb80b5f5b1267864b298e50afe75e759220006bad86a0759128416a22db953b1587c5c4e12913282d234f0318f019cceee7e6921f5134",
      "networkId": 0,
      "chainId": 0
    }
  ]
}