{
  "hash": "0xf7424988e662db585da8df527b504ab551026cb4d1d475c27cd02b6e35b52adc",
  "parentHash": "0x21c79429fac0741713128e3c46590f519d386656adb4c12f31ac001e66a58be3",
  "number": 118213,
  "timestamp": 1440122381,
  "nonce": "0xb054966f9ffa9423",
  "difficulty": 4307964565436,
  "gasLimit": {
    "_hex": "0x2fefd8"
  },
  "gasUsed": {
    "_hex": "0x5208"
  },
  "miner": "0x9827C93917a0c59899BEfBa58d104A788782e1d4",
  "extraData": "0xd983010002844765746887676f312e342e328777696e646f7773",
  "transactions": [
    {
      "hash": "0x6a44262b87db90268d294f1ed4f552bdc74c0f270aed9de0c056938f041972da",
      "blockHash": "0xf7424988e662db585da8df527b504ab551026cb4d1d475c27cd02b6e35b52adc",
      "blockNumber": 118213,
      "transactionIndex": 0,
      "confirmations": null,
      "from": "0x4b0424c09BaC4Ee3f4376f1D3fA354E8Cb2D3171",
      "gasPrice": {
        "_hex": "0xba43b7400"
      },
      "gasLimit": {
        "_hex": "0x15f90"
      },
      "to": "0x34d34F0a638F6991e4E2536F41295DF6E934A646",
      "value": {
        "_hex": "0xbed1d0263d9f0000"
      },
      "nonce": 21,
      "data": "0x",
      "r": "0x97b2f81cdb5daf354619a75c122bae6fc45bff54a481f9575e35bbdf354464fa",
      "s": "0x3399db615d6df43d3a6f364d8ff68d5f00364f543ad7ebf3dbc4daf7e48e14af",
      "v": 28,
      "creates": null,
      "raw": "0xf86d15850ba43b740083015f909434d34f0a638f6991e4e2536f41295df6e934a64688bed1d0263d9f0000801ca097b2f81cdb5daf354619a75c122bae6fc45bff54a481f9575e35bbdf354464faa03399db615d6df43d3a6f364d8ff68d5f00364f543ad7ebf3dbc4daf7e48e14af",
      "networkId": 0,
      "chainId": 0
    }
  ]
}