{
  "hash": "0x8dac0a81fdeaa688c01d62f8ef5dd568f4a97b09a6f1ec850e891821ded6509c",
  "parentHash": "0xdfe44317a5214f1337ef13e28ed87d2c69d5d13507da15ff6252d47a50e8f2dc",
  "number": 100173,
  "timestamp": 1439802085,
  "nonce": "0xaed950ee8fb23851",
  "difficulty": 3836083782701,
  "gasLimit": {
    "_hex": "0x2fefd8"
  },
  "gasUsed": {
    "_hex": "0xa410"
  },
  "miner": "0xbb7B8287f3F0a933474a79eAe42CBCa977791171",
  "extraData": "0x476574682f4c5649562f76312e302e312f6c696e75782f676f312e342e32",
  "transactions": [
    {
      "hash": "0x50821d4099cdbaefc7164489f7dce3f6e7f42762734c8aaa5a7a444ca585edbe",
      "blockHash": "0x8dac0a81fdeaa688c01d62f8ef5dd568f4a97b09a6f1ec850e891821ded6509c",
      "blockNumber": 100173,
      "transactionIndex": 0,
      "confirmations": null,
      "from": "0x007f7f58D3eb5b7510A301eCC749FC1fCDDBE14D",
      "gasPrice": {
        "_hex": "0xe0cfe7246"
      },
      "gasLimit": {
        "_hex": "0x15f90"
      },
      "to": "0xb1abce2918E21ddb93AA452731a12672A3d9F75a",
      "value": {
        "_hex": "0x4563918244f40000"
      },
      "nonce": 160,
      "data": "0x",
      "r": "0x2dc305c07d6709bb7466c195bb7ad4386a7e24166f803e7951ae5923a811e1bd",
      "s": "0x62540f3235f0df800db848a3e8849f4c654d11095fb74bb1a517f074b4f8b5a0",
      "v": 27,
      "creates": null,
      "raw": "0xf86e81a0850e0cfe724683015f9094b1abce2918e21ddb93aa452731a12672a3d9f75a884563918244f40000801ba02dc305c07d6709bb7466c195bb7ad4386a7e24166f803e7951ae5923a811e1bda062540f3235f0df800db848a3e8849f4c654d11095fb74bb1a517f074b4f8b5a0",
      "networkId": 0,
      "chainId": 0
    },
    {
      "hash": "0xbc86da0f11a4ceb37e17c0fbc4fdfdc22cdf7f1ca229d7eb69c89e9c645e8cc4",
      "blockHash": "0x8dac0a81fdeaa688c01d62f8ef5dd568f4a97b09a6f1ec850e891821ded6509c",
      "blockNumber": 100173,
      "transactionIndex": 1,
      "confirmations": null,
      "from": "0xbc681E36E2BC0d9Cb397811ce7a5821da2D66059",
      "gasPrice": {
        "_hex": "0xd3e660cd3"
      },
      "gasLimit": {
        "_hex": "0x5208"
      },
      "to": "0x32Be343B94f860124dC4fEe278FDCBD38C102D88",
      "value": {
        "_hex": "0x9773aa5faffc3000"
      },
      "nonce": 6,
      "data": "0x",
      "r": "0x25d677a137b76bb24d3ac76b88b7bfe83fcb8b1136e1e42d1c19314703bed544",
      "s": "0x70d7a6ff8b89465884cc57eea78562c946cc74b52f3974b114fd5468bf198bb7",
      "v": 28,
      "creates": null,
      "raw": "0xf86c06850d3e660cd38252089432be343b94f860124dc4fee278fdcbd38c102d88889773aa5faffc3000801ca025d677a137b76bb24d3ac76b88b7bfe83fcb8b1136e1e42d1c19314703bed544a070d7a6ff8b89465884cc57eea78562c946cc74b52f3974b114fd5468bf198bb7",
      "networkId": 0,
      "chainId": 0
    }
  ]
}