{
  "hash": "0x92a82312d25d34905a0eb32a0f3f90200f8e19a72d988ea266489b0109b0d4e7",
  "parentHash": "0x1420f26033bab7de59bdc183cc619e4084667fc5117329bcdd85b95d086bf316",
  "number": 61307,
  "timestamp": 1439170407,
  "nonce": "0x919cc85de6263d5e",
  "difficulty": 1725253826941,
  "gasLimit": {
    "_hex": "0x2fefd5"
  },
  "gasUsed": {
    "_hex": "0x5208"
  },
  "miner": "0x29D19206747E4Db867186f5899D9F7188DF153F6",
  "extraData": "0x",
  "transactions": [
    {
      "hash": "0x12a848dd16c85bf40b9466636af0a5972c1f95cccd6ef65a5a2de1c7c192f433",
      "blockHash": "0x92a82312d25d34905a0eb32a0f3f90200f8e19a72d988ea266489b0109b0d4e7",
      "blockNumber": 61307,
      "transactionIndex": 0,
      "confirmations": null,
      "from": "0xE2beA3e7d349ab64EBD9873418e78912e13CD35f",
      "gasPrice": {
        "_hex": "0xd71c22cea"
      },
      "gasLimit": {
        "_hex": "0x15f90"
      },
      "to": "0x24328DE4Ad3Cf96d241c5B7a1BfBE571E17145F0",
      "value": {
        "_hex": "0xde0b6b3a7640000"
      },
      "nonce": 2,
      "data": "0x",
      "r": "0xd0e6e114077f8198a4070b9315133b093232dd5d3504a1f429b7ba2d098416b4",
      "s": "0x23219445f98f155b1e8193bf6dc4366616e2ffd056d25c799551feda24bfa012",
      "v": 28,
      "creates": null,
      "raw": "0xf86d02850d71c22cea83015f909424328de4ad3cf96d241c5b7a1bfbe571e17145f0880de0b6b3a7640000801ca0d0e6e114077f8198a4070b9315133b093232dd5d3504a1f429b7ba2d098416b4a023219445f98f155b1e8193bf6dc4366616e2ffd056d25c799551feda24bfa012",
      "networkId": 0,
      "chainId": 0
    }
  ]
}