{
  "hash": "0x42723bb38d5dc9a6bf41d2baaf654efc36d107e6fe871c94026ac772c6e63a8f",
  "parentHash": "0x9aaee68111b21386cfaec76e78f711cd4dcd20bcb47eef761a9fee0a0c6c6ff7",
  "number": 84077,
  "timestamp": 1439544790,
  "nonce": "0xe261268246020000",
  "difficulty": 2491231101535,
  "gasLimit": {
    "_hex": "0x2fefd8"
  },
  "gasUsed": {
    "_hex": "0x5208"
  },
  "miner": "0xf927a40C8B7F6E07c5af7FA2155B4864a4112B13",
  "extraData": "0x",
  "transactions": [
    {
      "hash": "0xb6c1348da272eaf59a440328db5b62827e369ba176e06c49f2cd6cc2835e8836",
      "blockHash": "0x42723bb38d5dc9a6bf41d2baaf654efc36d107e6fe871c94026ac772c6e63a8f",
      "blockNumber": 84077,
      "transactionIndex": 0,
      "confirmations": null,
      "from": "0x056507108FE6d30189EcCD6cd7F4Fad56eEef622",
      "gasPrice": {
        "_hex": "0xd1f5f2109"
      },
      "gasLimit": {
        "_hex": "0x15f90"
      },
      "to": "0xf669D33ffC879Ed84BECd4EF67CB17c76f4607D5",
      "value": {
        "_hex": "0x16345785d8a0000"
      },
      "nonce": 2,
      "data": "0x",
      "r": "0x5324812319b69a74c311419e0e1ee4bf12cc58b8d503e23b8dcca1d1f1cea8f9",
      "s": "0x0798a084b73f3b9868a87a8dd3ba0633140c76cf1621beaf97225c2e4b597cda",
      "v": 27,
      "creates": null,
      "raw": "0xf86d02850d1f5f210983015f9094f669d33ffc879ed84becd4ef67cb17c76f4607d588016345785d8a0000801ba05324812319b69a74c311419e0e1ee4bf12cc58b8d503e23b8dcca1d1f1cea8f9a00798a084b73f3b9868a87a8dd3ba0633140c76cf1621beaf97225c2e4b597cda",
      "networkId": 0,
      "chainId": 0
    }
  ]
}