{
  "hash": "0xd94ded7ba164e1ea829d631bbd3c04abd9c79ab2b2281e2f7c9659a6663ca24b",
  "parentHash": "0xebf6cd65ed72549e9238e4fd2529b46712878ac72b7a95b4a5143ef9096c8669",
  "number": 60690,
  "timestamp": 1439160044,
  "nonce": "0x9363aa14ae19ddc3",
  "difficulty": 1727909993124,
  "gasLimit": {
    "_hex": "0x2fefd5"
  },
  "gasUsed": {
    "_hex": "0x5208"
  },
  "miner": "0x664B099B945b899AaC84DA69dd6D4eEb3D03c8a3",
  "extraData": "0xdd809b302e392e34302b2b653834372d5257696e646f2f6d73762f4a4954",
  "transactions": [
    {
      "hash": "0x6199e4f4564e5b9d58636a05448fbf325519ed47410c47e315e17638da43fd3e",
      "blockHash": "0xd94ded7ba164e1ea829d631bbd3c04abd9c79ab2b2281e2f7c9659a6663ca24b",
      "blockNumber": 60690,
      "transactionIndex": 0,
      "confirmations": null,
      "from": "0x2910543Af39abA0Cd09dBb2D50200b3E800A63D2",
      "gasPrice": {
        "_hex": "0xd06f46f51"
      },
      "gasLimit": {
        "_hex": "0x5208"
      },
      "to": "0x8E61bF5A2e46D15774172781Cf100ED0962cBb63",
      "value": {
        "_hex": "0x788f17012ab6b8000"
      },
      "nonce": 90,
      "data": "0x",
      "r": "0x7224553236e54e8d2d07790bf0ca4060a758884643223a593918e00f04bb8f3c",
      "s": "0x538942e4e435f75d1f0014793a14e3a0496e370e92735372aa01bb79c5dd1334",
      "v": 27,
      "creates": null,
      "raw": "0xf86d5a850d06f46f51825208948e61bf5a2e46d15774172781cf100ed0962cbb63890788f17012ab6b8000801ba07224553236e54e8d2d07790bf0ca4060a758884643223a593918e00f04bb8f3ca0538942e4e435f75d1f0014793a14e3a0496e370e92735372aa01bb79c5dd1334",
      "networkId": 0,
      "chainId": 0
    }
  ]
}