{
  "hash": "0x4811478027f9d86e695bc207e337431c40d6d6d6e37c57042db45877154c407d",
  "parentHash": "0x6b94c6aea39866f879e47b9babc4e844c51bdc580eb0885ed55aa28fc8128f1e",
  "number": 117836,
  "timestamp": 1440116114,
  "nonce": "0xf062177bcd025674",
  "difficulty": 4352560893107,
  "gasLimit": {
    "_hex": "0x2fefd8"
  },
  "gasUsed": {
    "_hex": "0x19c8c"
  },
  "miner": "0x17B719A685fC6C0002798e7f8151D0E2E83B7497",
  "extraData": "0x",
  "transactions": [
    {
      "hash": "0x00b6196991f2074050849c7b9d2240f0619a2e5b6e8f61528a07106f48190b11",
      "blockHash": "0x4811478027f9d86e695bc207e337431c40d6d6d6e37c57042db45877154c407d",
      "blockNumber": 117836,
      "transactionIndex": 0,
      "confirmations": null,
      "from": "0x8d07d42D831c2D7C838aA1872b3Ad5d277176823",
      "gasPrice": {
        "_hex": "0x110c8f7d8de"
      },
      "gasLimit": {
        "_hex": "0xc350"
      },
      "to": "0x2910543Af39abA0Cd09dBb2D50200b3E800A63D2",
      "value": {
        "_hex": "0x12dd785c378bf00000"
      },
      "nonce": 0,
      "data": "0x454e4e5a44374e4547",
      "r": "0xd002effef8fe519164f0aed9db61a5b4b0eab4df5d31f58dc5fb0c44e7743ced",
      "s": "0x451ea4cd305bcc366791af14350ac110e8fa128212357d02f2984337751fd0f3",
      "v": 27,
      "creates": null,
      "raw": "0xf87780860110c8f7d8de82c350942910543af39aba0cd09dbb2d50200b3e800a63d28912dd785c378bf0000089454e4e5a44374e45471ba0d002effef8fe519164f0aed9db61a5b4b0eab4df5d31f58dc5fb0c44e7743ceda0451ea4cd305bcc366791af14350ac110e8fa128212357d02f2984337751fd0f3",
      "networkId": 0,
      "chainId": 0
    },
    {
      "hash": "0x483a9b6005d12b92b5e36f5b28e44ff1451c083fc4160d77a17430591ba631ad",
      "blockHash": "0x4811478027f9d86e695bc207e337431c40d6d6d6e37c57042db45877154c407d",
      "blockNumber": 117836,
      "transactionIndex": 1,
      "confirmations": null,
      "from": "0xd223eD5b348a82910987CbBc7875a7AE62E1Ba53",
      "gasPrice": {
        "_hex": "0xba43b7400"
      },
      "gasLimit": {
        "_hex": "0x5208"
      },
      "to": "0x32Be343B94f860124dC4fEe278FDCBD38C102D88",
      "value": {
        "_hex": "0xe6b7b66af7b3800"
      },
      "nonce": 12,
      "data": "0x",
      "r": "0x8a18958f5212dbdd44e3dd67effce443da574d68d3161dd135ca9b7bce07b2d6",
      "s": "0x2c4f18b3054d573d4a174572e11610d77104bf21d0a0df0860fca4c8d47f0027",
      "v": 28,
      "creates": null,
      "raw": "0xf86c0c850ba43b74008252089432be343b94f860124dc4fee278fdcbd38c102d88880e6b7b66af7b3800801ca08a18958f5212dbdd44e3dd67effce443da574d68d3161dd135ca9b7bce07b2d6a02c4f18b3054d573d4a174572e11610d77104bf21d0a0df0860fca4c8d47f0027",
      "networkId": 0,
      "chainId": 0
    },
    {
      "hash": "0x09043b3496913b40a20082c11228c3a6e028dd25964ba6fd8c3f2bda34f566f8",
      "blockHash": "0x4811478027f9d86e695bc207e337431c40d6d6d6e37c57042db45877154c407d",
      "blockNumber": 117836,
      "transactionIndex": 2,
      "confirmations": null,
      "from": "0x556ca325C21e450b2aFf86D9c8eF0Fa371971c97",
      "gasPrice": {
        "_hex": "0xba43b7400"
      },
      "gasLimit": {
        "_hex": "0x5208"
      },
      "to": "0x32Be343B94f860124dC4fEe278FDCBD38C102D88",
      "value": {
        "_hex": "0x8557e610d5dae000"
      },
      "nonce": 22,
      "data": "0x",
      "r": "0xa31edccff4b2e3a2b7b1d5a4f82e1e19c1415f31227d286f7fa25666edad03a2",
      "s": "0x244ccb7cd1f4500466c243198b2750dfe424be271fe78a1dcbbf1373470fa1d8",
      "v": 27,
      "creates": null,
      "raw": "0xf86c16850ba43b74008252089432be343b94f860124dc4fee278fdcbd38c102d88888557e610d5dae000801ba0a31edccff4b2e3a2b7b1d5a4f82e1e19c1415f31227d286f7fa25666edad03a2a0244ccb7cd1f4500466c243198b2750dfe424be271fe78a1dcbbf1373470fa1d8",
      "networkId": 0,
      "chainId": 0
    },
    {
      "hash": "0x362a40b29ac9255a7818d3931d913123cd727751e6f21a5c154854c1b3aaa3ee",
      "blockHash": "0x4811478027f9d86e695bc207e337431c40d6d6d6e37c57042db45877154c407d",
      "blockNumber": 117836,
      "transactionIndex": 3,
      "confirmations": null,
      "from": "0x1E550f4ecF22cBCb73da4fc090FBf5a5c748b0F1",
      "gasPrice": {
        "_hex": "0xba43b7400"
      },
      "gasLimit": {
        "_hex": "0x5208"
      },
      "to": "0x32Be343B94f860124dC4fEe278FDCBD38C102D88",
      "value": {
        "_hex": "0x4083a2ffd1ff1800"
      },
      "nonce": 9,
      "data": "0x",
      "r": "0x93e80ea247e1ec80eb3127a88532ca0a49d45ffa44a3832e1a503dd33ef5b384",
      "s": "0x14adc49bfd895a91164d6656705351d05ac7d9a2ef3955a0e2a3a7c6b273c429",
      "v": 28,
      "creates": null,
      "raw": "0xf86c09850ba43b74008252089432be343b94f860124dc4fee278fdcbd38c102d88884083a2ffd1ff1800801ca093e80ea247e1ec80eb3127a88532ca0a49d45ffa44a3832e1a503dd33ef5b384a014adc49bfd895a91164d6656705351d05ac7d9a2ef3955a0e2a3a7c6b273c429",
      "networkId": 0,
      "chainId": 0
    },
    {
      "hash": "0x02ded45523efae6d88c2b0af29cee0eaf410d4f2b532db409eed347e8875b8ea",
      "blockHash": "0x4811478027f9d86e695bc207e337431c40d6d6d6e37c57042db45877154c407d",
      "blockNumber": 117836,
      "transactionIndex": 4,
      "confirmations": null,
      "from": "0xB89C0F465b0472fa5A58eCDd01eD937205ae4d06",
      "gasPrice": {
        "_hex": "0xba43b7400"
      },
      "gasLimit": {
        "_hex": "0x5208"
      },
      "to": "0x32Be343B94f860124dC4fEe278FDCBD38C102D88",
      "value": {
        "_hex": "0x1592966ddd05f800"
      },
      "nonce": 13,
      "data": "0x",
      "r": "0xf6e382dc550aeb77d7aa60043e14766c5e77534a0c5fa1746730e445a4d305f2",
      "s": "0x470c56a8f5b1d7f7c47e007da5e6afac05330e19e0edf2170f6fddb9f7b8d8bb",
      "v": 27,
      "creates": null,
      "raw": "0xf86c0d850ba43b74008252089432be343b94f860124dc4fee278fdcbd38c102d88881592966ddd05f800801ba0f6e382dc550aeb77d7aa60043e14766c5e77534a0c5fa1746730e445a4d305f2a0470c56a8f5b1d7f7c47e007da5e6afac05330e19e0edf2170f6fddb9f7b8d8bb",
      "networkId": 0,
      "chainId": 0
    }
  ]
}