{
  "hash": "0x6bd8fe496768b4e045f0ddb5381b92403dfbc94991728dd056442b3998e8b721",
  "parentHash": "0xb487639fcfed0d4f820b9fecefff72bb26b18ce17699fc3f04a62d97a0ebe18e",
  "number": 113707,
  "timestamp": 1440028095,
  "nonce": "0x1bbbecf93bc4da81",
  "difficulty": 4451447197130,
  "gasLimit": {
    "_hex": "0x2fefd8"
  },
  "gasUsed": {
    "_hex": "0x546c"
  },
  "miner": "0x10C3eedde6fBda160041f479fCaf26bb38316fCd",
  "extraData": "0x476574682f76312e302e312d38326566323666362f6c696e75782f676f312e34",
  "transactions": [
    {
      "hash": "0x79eb608d8576eb6277f75ff58733e8cb2b942795ef8626b029b0d811ea034015",
      "blockHash": "0x6bd8fe496768b4e045f0ddb5381b92403dfbc94991728dd056442b3998e8b721",
      "blockNumber": 113707,
      "transactionIndex": 0,
      "confirmations": null,
      "from": "0x84BDA1c0A280B67d35727441B56e102aDCc594ac",
      "gasPrice": {
        "_hex": "0xd3d37f23a"
      },
      "gasLimit": {
        "_hex": "0x15f90"
      },
      "to": "0x7548566f611b89EBfb57C547FeA0c293A2830aD2",
      "value": {
        "_hex": "0x3782dace9d900000"
      },
      "nonce": 3,
      "data": "0x706f6c6f6e69657834",
      "r": "0x748931630d933828f45a210a115253c6a6d70c2a844535194005654a8151eb73",
      "s": "0x473e9470234455e8e87ce81fb92fb33fa0f74f7d5826fe0eb78dbc59b21b52b6",
      "v": 27,
      "creates": null,
      "raw": "0xf87603850d3d37f23a83015f90947548566f611b89ebfb57c547fea0c293a2830ad2883782dace9d90000089706f6c6f6e696578341ba0748931630d933828f45a210a115253c6a6d70c2a844535194005654a8151eb73a0473e9470234455e8e87ce81fb92fb33fa0f74f7d5826fe0eb78dbc59b21b52b6",
      "networkId": 0,
      "chainId": 0
    }
  ]
}