{
  "hash": "0x361323c4e072e264a67da2a3f44c4722150858c28cc50d106e1b886ea23ec159",
  "parentHash": "0x81462f3bc8f6e6b7e6c276fb10cac5e52f9e4e689b92e49378a6ed661348aa63",
  "number": 48683,
  "timestamp": 1438961021,
  "nonce": "0xbaec92854dd9fd2b",
  "difficulty": 1473586733781,
  "gasLimit": {
    "_hex": "0x1bf58"
  },
  "gasUsed": {
    "_hex": "0x5498"
  },
  "miner": "0x580992B51e3925e23280EfB93d3047C82f17E038",
  "extraData": "0x476574682f76312e302e312f6c696e75782f676f312e342e32",
  "transactions": [
    {
      "hash": "0x03edb833c7a1e25255b81d193bc82e12aff4354de56857ae628539396df3e33f",
      "blockHash": "0x361323c4e072e264a67da2a3f44c4722150858c28cc50d106e1b886ea23ec159",
      "blockNumber": 48683,
      "transactionIndex": 0,
      "confirmations": null,
      "from": "0x22F2DcFf5aD78c3Eb6850B5Cb951127B659522E6",
      "gasPrice": {
        "_hex": "0xcf7677de4"
      },
      "gasLimit": {
        "_hex": "0x15f90"
      },
      "to": "0x0000000000000000000000000000000000000000",
      "value": {
        "_hex": "0x0"
      },
      "nonce": 13,
      "data": "0x432ced04646f676500000000000000000000000000000000000000000000000000000000",
      "r": "0x9212269a7a9f315a2221c2a24d45db7f7f299ceac585c256ca84c631960e002b",
      "s": "0x3059c7d79d65c188327ca6f24516241d1f0f670e63add611ea691dec29dc78d0",
      "v": 28,
      "creates": null,
      "raw": "0xf8890d850cf7677de483015f9094000000000000000000000000000000000000000080a4432ced04646f6765000000000000000000000000000000000000000000000000000000001ca09212269a7a9f315a2221c2a24d45db7f7f299ceac585c256ca84c631960e002ba03059c7d79d65c188327ca6f24516241d1f0f670e63add611ea691dec29dc78d0",
      "networkId": 0,
      "chainId": 0
    }
  ]
}