{
  "hash": "0xce931336cd64f1394ae38bf0f191367be5151d28c8cb616978198ecf5390763c",
  "parentHash": "0x78b8fcdbf08b2d583c4b7b11d81118e994a8da319fbb899a3e4262058a77523f",
  "number": 115426,
  "timestamp": 1440057068,
  "nonce": "0xfd65921332849a7d",
  "difficulty": 4567213327044,
  "gasLimit": {
    "_hex": "0x2fefd8"
  },
  "gasUsed": {
    "_hex": "0x14820"
  },
  "miner": "0x623d2411c3bb3340784155F9a688b0085251aB5c",
  "extraData": "0x",
  "transactions": [
    {
      "hash": "0xc2a81269f4b1aa03ed86d8b092b7f299a776fe7bbacace858384b962d70e7237",
      "blockHash": "0xce931336cd64f1394ae38bf0f191367be5151d28c8cb616978198ecf5390763c",
      "blockNumber": 115426,
      "transactionIndex": 0,
      "confirmations": null,
      "from": "0xA542d5046D885E5fC7Dc4006ADb648C5710Ff0ED",
      "gasPrice": {
        "_hex": "0x746a528800"
      },
      "gasLimit": {
        "_hex": "0x5208"
      },
      "to": "0x99181ED48C7c51532622dA23e20E2B38392476A7",
      "value": {
        "_hex": "0x1323313199438000"
      },
      "nonce": 8,
      "data": "0x",
      "r": "0x54e44fce5c9f1bdb154cb9afc2638e2ce5e4b2ff838e2e5b6287129c7f6f7131",
      "s": "0x1d9fc1e70e0f6df065df8faa02cf282c67c12e989c0788bfa79aa913eb4c6d5e",
      "v": 28,
      "creates": null,
      "raw": "0xf86c0885746a5288008252089499181ed48c7c51532622da23e20e2b38392476a7881323313199438000801ca054e44fce5c9f1bdb154cb9afc2638e2ce5e4b2ff838e2e5b6287129c7f6f7131a01d9fc1e70e0f6df065df8faa02cf282c67c12e989c0788bfa79aa913eb4c6d5e",
      "networkId": 0,
      "chainId": 0
    },
    {
      "hash": "0x0321198dc61b16fa3c8328014d6b9e3f0ee6dceab4907d363f700e8a5b6e0ac2",
      "blockHash": "0xce931336cd64f1394ae38bf0f191367be5151d28c8cb616978198ecf5390763c",
      "blockNumber": 115426,
      "transactionIndex": 1,
      "confirmations": null,
      "from": "0x58cAfc9A3273821ec5691840ABfc256952Df94B8",
      "gasPrice": {
        "_hex": "0xde3dc2c72"
      },
      "gasLimit": {
        "_hex": "0x5208"
      },
      "to": "0x32Be343B94f860124dC4fEe278FDCBD38C102D88",
      "value": {
        "_hex": "0xf7e24f60f7f09000"
      },
      "nonce": 2,
      "data": "0x",
      "r": "0x2f7c45cfdbb546d8acb666eaa398c39d6650803159772702776facaad0194353",
      "s": "0x0d947e454f3b74373830f18d706df794813dadaef16a0161cbd75922589176bd",
      "v": 28,
      "creates": null,
      "raw": "0xf86c02850de3dc2c728252089432be343b94f860124dc4fee278fdcbd38c102d8888f7e24f60f7f09000801ca02f7c45cfdbb546d8acb666eaa398c39d6650803159772702776facaad0194353a00d947e454f3b74373830f18d706df794813dadaef16a0161cbd75922589176bd",
      "networkId": 0,
      "chainId": 0
    },
    {
      "hash": "0x54aaeeaf472bcecd510a83133172a43d2a4cca176980d4597e00a0856f7516da",
      "blockHash": "0xce931336cd64f1394ae38bf0f191367be5151d28c8cb616978198ecf5390763c",
      "blockNumber": 115426,
      "transactionIndex": 2,
      "confirmations": null,
      "from": "0x7B1A43f1eb4970A4b5D36F604FeF8083Fa18189f",
      "gasPrice": {
        "_hex": "0xde3dc2c72"
      },
      "gasLimit": {
        "_hex": "0x5208"
      },
      "to": "0x32Be343B94f860124dC4fEe278FDCBD38C102D88",
      "value": {
        "_hex": "0x24c37c0a6a5d4c00"
      },
      "nonce": 1,
      "data": "0x",
      "r": "0xdc8d236820602e81a839f6ac6222a4bafa2e4175fc52a17647a5fd3091016e12",
      "s": "0x27e03ec2e5b525b3b483c56c483005617373287fe6c8af8490e1058c02247051",
      "v": 28,
      "creates": null,
      "raw": "0xf86c01850de3dc2c728252089432be343b94f860124dc4fee278fdcbd38c102d888824c37c0a6a5d4c00801ca0dc8d236820602e81a839f6ac6222a4bafa2e4175fc52a17647a5fd3091016e12a027e03ec2e5b525b3b483c56c483005617373287fe6c8af8490e1058c02247051",
      "networkId": 0,
      "chainId": 0
    },
    {
      "hash": "0x7c84befe498d656c38d844f00598d4a925f41d47ecbb2e6899887b5736f22e01",
      "blockHash": "0xce931336cd64f1394ae38bf0f191367be5151d28c8cb616978198ecf5390763c",
      "blockNumber": 115426,
      "transactionIndex": 3,
      "confirmations": null,
      "from": "0xE3a44b84A68C84F674E1e8c17445742DE48D9501",
      "gasPrice": {
        "_hex": "0xde3dc2c72"
      },
      "gasLimit": {
        "_hex": "0x5208"
      },
      "to": "0x32Be343B94f860124dC4fEe278FDCBD38C102D88",
      "value": {
        "_hex": "0x22ad5fcec8f69c00"
      },
      "nonce": 6,
      "data": "0x",
      "r": "0x79186edeca857c6858ee4740932ea0e6072b57af56a9ed89e37306fa45934fc2",
      "s": "0x3d330a19fd3efdf57fc784a864bad309b99159bc0ea00b205fbb94a531159e4a",
      "v": 27,
      "creates": null,
      "raw": "0xf86c06850de3dc2c728252089432be343b94f860124dc4fee278fdcbd38c102d888822ad5fcec8f69c00801ba079186edeca857c6858ee4740932ea0e6072b57af56a9ed89e37306fa45934fc2a03d330a19fd3efdf57fc784a864bad309b99159bc0ea00b205fbb94a531159e4a",
      "networkId": 0,
      "chainId": 0
    }
  ]
}