{
  "hash": "0xe4e6a13891298e8f3d56d61d2f00dbfb8f2904763789fe4089b1535499050284",
  "parentHash": "0x1810d662eea9abc23e5be48c12a1c0632f9d7b20780ac528d2b77c2d37e2421f",
  "number": 85615,
  "timestamp": 1439566205,
  "nonce": "0x95c9637572ea2845",
  "difficulty": 2786812191937,
  "gasLimit": {
    "_hex": "0x2fefd8"
  },
  "gasUsed": {
    "_hex": "0x5208"
  },
  "miner": "0xe6A7a1d47ff21B6321162AEA7C6CB457D5476Bca",
  "extraData": "0x476574682f76312e302e312d38326566323666362f6c696e75782f676f312e34",
  "transactions": [
    {
      "hash": "0x5440217b4eda964edfadbe64ef2e257e016c63820d6765e6fdd905a8fd910ebf",
      "blockHash": "0xe4e6a13891298e8f3d56d61d2f00dbfb8f2904763789fe4089b1535499050284",
      "blockNumber": 85615,
      "transactionIndex": 0,
      "confirmations": null,
      "from": "0x2237202dcd4E21eed6Fb8f10843068cB31495938",
      "gasPrice": {
        "_hex": "0xba43b7400"
      },
      "gasLimit": {
        "_hex": "0x5208"
      },
      "to": "0xC47Aaa860008be6f65B58c6C6E02a84e666EfE31",
      "value": {
        "_hex": "0x6812e624bda1b6000"
      },
      "nonce": 1,
      "data": "0x",
      "r": "0x95a2e389288fac0a643e1252712172a89aea9077f00c14ea6a7dcb0db1281c38",
      "s": "0x3c0d577bd4ca3d4a6b2e9fff05f0f699d093fa1d37eaffe066fd28a2e9c0efdd",
      "v": 28,
      "creates": null,
      "raw": "0xf86d01850ba43b740082520894c47aaa860008be6f65b58c6c6e02a84e666efe318906812e624bda1b6000801ca095a2e389288fac0a643e1252712172a89aea9077f00c14ea6a7dcb0db1281c38a03c0d577bd4ca3d4a6b2e9fff05f0f699d093fa1d37eaffe066fd28a2e9c0efdd",
      "networkId": 0,
      "chainId": 0
    }
  ]
}