{
  "hash": "0x6e927d3d206f67a44cbaad206a5d5793fccf14cbb24c5c3671e9ceb7de4b165f",
  "parentHash": "0x5556a2d218a9012bfa96a6d2b6811f14c994c083b1ce6fb8a6974ffde7cc981b",
  "number": 49896,
  "timestamp": 1438980865,
  "nonce": "0x6fb90503dee1bf6f",
  "difficulty": 1497306856684,
  "gasLimit": {
    "_hex": "0x448f9"
  },
  "gasUsed": {
    "_hex": "0xa8d8"
  },
  "miner": "0xBb12b5a9B85D4AB8CDE6056E9c1b2a4a337D2261",
  "extraData": "0x476574682f76312e302e312d36393865393864392f6c696e75782f676f312e34",
  "transactions": [
    {
      "hash": "0x30810b4802af6fad692dc4792b2edb06977e0283d5664a602e8e3531433a4ba7",
      "blockHash": "0x6e927d3d206f67a44cbaad206a5d5793fccf14cbb24c5c3671e9ceb7de4b165f",
      "blockNumber": 49896,
      "transactionIndex": 0,
      "confirmations": null,
      "from": "0x684A44C069339d08e19A75668bdbA303Be855332",
      "gasPrice": {
        "_hex": "0x110c8f7d8de"
      },
      "gasLimit": {
        "_hex": "0xc350"
      },
      "to": "0x2910543Af39abA0Cd09dBb2D50200b3E800A63D2",
      "value": {
        "_hex": "0x32d26d12e980b600000"
      },
      "nonce": 1,
      "data": "0x454e3347514d323752",
      "r": "0xf892a57490875c19723e09af7cd0860b2cf5c10bf724700dd10c0879634e0e2f",
      "s": "0x2a667710cd60c8f357c4801fc095e26aba035965af1d26f91eefcc96084bf9e2",
      "v": 28,
      "creates": null,
      "raw": "0xf87801860110c8f7d8de82c350942910543af39aba0cd09dbb2d50200b3e800a63d28a032d26d12e980b60000089454e3347514d3237521ca0f892a57490875c19723e09af7cd0860b2cf5c10bf724700dd10c0879634e0e2fa02a667710cd60c8f357c4801fc095e26aba035965af1d26f91eefcc96084bf9e2",
      "networkId": 0,
      "chainId": 0
    },
    {
      "hash": "0xc8c179585c0c29e7c9c64d365cddddcf0bc5296f62e9ef9fee5d3cfebafc6040",
      "blockHash": "0x6e927d3d206f67a44cbaad206a5d5793fccf14cbb24c5c3671e9ceb7de4b165f",
      "blockNumber": 49896,
      "transactionIndex": 1,
      "confirmations": null,
      "from": "0x38d2e9154964b41C8d50A7487D391E7eE2c3D3c2",
      "gasPrice": {
        "_hex": "0xdd4f6105c"
      },
      "gasLimit": {
        "_hex": "0x15f90"
      },
      "to": "0x2910543Af39abA0Cd09dBb2D50200b3E800A63D2",
      "value": {
        "_hex": "0x58d15e176280000"
      },
      "nonce": 4,
      "data": "0x454e305133425a4847",
      "r": "0xea32fd3e5255732a5a179562b5971bf5290aaee69181a5587a682606608f1d36",
      "s": "0x5beb66af20d28ef461f160c85118b5bda10e73556dd8302acb324ba6cfe5a179",
      "v": 28,
      "creates": null,
      "raw": "0xf87604850dd4f6105c83015f90942910543af39aba0cd09dbb2d50200b3e800a63d288058d15e17628000089454e305133425a48471ca0ea32fd3e5255732a5a179562b5971bf5290aaee69181a5587a682606608f1d36a05beb66af20d28ef461f160c85118b5bda10e73556dd8302acb324ba6cfe5a179",
      "networkId": 0,
      "chainId": 0
    }
  ]
}