{
  "hash": "0x1796fb9eb010d6a9c8341635d6f68f1293873a4672a8284f6e29b4bc5acea745",
  "parentHash": "0x3732bb4b6a916445da25108540a96e4f6c5b49884de251150cb018ad7765d418",
  "number": 91594,
  "timestamp": 1439658178,
  "nonce": "0x52606159911a880e",
  "difficulty": 3494661106853,
  "gasLimit": {
    "_hex": "0x2fefd8"
  },
  "gasUsed": {
    "_hex": "0x5208"
  },
  "miner": "0x0eDEd3DA479d0beF8eeC92A76644D3f4E3C177f7",
  "extraData": "0x476574682f76312e302e312f6c696e75782f676f312e342e32",
  "transactions": [
    {
      "hash": "0xe4a8988ab77f8624e23b1e0359116b397281f31f5b1015dd610bccf2ed09b665",
      "blockHash": "0x1796fb9eb010d6a9c8341635d6f68f1293873a4672a8284f6e29b4bc5acea745",
      "blockNumber": 91594,
      "transactionIndex": 0,
      "confirmations": null,
      "from": "0x5532A650304265014A873E4399A3487d0296B8CF",
      "gasPrice": {
        "_hex": "0xd2b1baee2"
      },
      "gasLimit": {
        "_hex": "0x15f90"
      },
      "to": "0xcD690730A45cdebeF24F2a3db2de181bFBA5CBea",
      "value": {
        "_hex": "0x4563918244f40000"
      },
      "nonce": 2,
      "data": "0x",
      "r": "0x5554e75fe689a3ed208bf63ddcb5b7b835351aec0f4c5f4b99d880da15920b16",
      "s": "0x6aabe1fcf773974a30983e336c34304292b18d35e79d05f0a60062642c3cbd8b",
      "v": 27,
      "creates": null,
      "raw": "0xf86d02850d2b1baee283015f9094cd690730a45cdebef24f2a3db2de181bfba5cbea884563918244f40000801ba05554e75fe689a3ed208bf63ddcb5b7b835351aec0f4c5f4b99d880da15920b16a06aabe1fcf773974a30983e336c34304292b18d35e79d05f0a60062642c3cbd8b",
      "networkId": 0,
      "chainId": 0
    }
  ]
}