{
  "hash": "0x6dea328049a976974daea854aa9ca440e4df03553111bf89dd65ea722041e102",
  "parentHash": "0x9fd7ca2c502c76054ea61d4b6f59120b019289c42684d92340af8ed551f64cef",
  "number": 81231,
  "timestamp": 1439498244,
  "nonce": "0xa8544da7ad42737c",
  "difficulty": 2451045608386,
  "gasLimit": {
    "_hex": "0x2fefd8"
  },
  "gasUsed": {
    "_hex": "0x5208"
  },
  "miner": "0x19e83223b783b5c6673c06b06E093de7E85F3F87",
  "extraData": "0x",
  "transactions": [
    {
      "hash": "0xa21712d960f26c46aee82d7215b8d028e4a735f557c24616928365973a189a7c",
      "blockHash": "0x6dea328049a976974daea854aa9ca440e4df03553111bf89dd65ea722041e102",
      "blockNumber": 81231,
      "transactionIndex": 0,
      "confirmations": null,
      "from": "0xFd1356C729AbA6307fdddAF2abF89c2563bBc1bF",
      "gasPrice": {
        "_hex": "0xde853243d"
      },
      "gasLimit": {
        "_hex": "0x5208"
      },
      "to": "0x32Be343B94f860124dC4fEe278FDCBD38C102D88",
      "value": {
        "_hex": "0x10f0cda2c8a06f00000"
      },
      "nonce": 2,
      "data": "0x",
      "r": "0xd75ecfdca53687e914772d8015872d09724a2a5b99538fc725bb78ad256d4171",
      "s": "0x56250a128b766061ab64d265693d058f1e8172f4c2aea9f68168e2037dbd1f1b",
      "v": 27,
      "creates": null,
      "raw": "0xf86e02850de853243d8252089432be343b94f860124dc4fee278fdcbd38c102d888a010f0cda2c8a06f00000801ba0d75ecfdca53687e914772d8015872d09724a2a5b99538fc725bb78ad256d4171a056250a128b766061ab64d265693d058f1e8172f4c2aea9f68168e2037dbd1f1b",
      "networkId": 0,
      "chainId": 0
    }
  ]
}