{
  "hash": "0x7cb6fc3b061dd9788e366ac44e6a17d9df6cddaef80a3dab62349835c2469864",
  "parentHash": "0x02f7408f9ffe629ad9438a3dbd26edbb8ac8912fafb1107367ea88bb1027a930",
  "number": 82542,
  "timestamp": 1439521179,
  "nonce": "0x4c9443ca6caf9ed7",
  "difficulty": 2369471702910,
  "gasLimit": {
    "_hex": "0x2fefd8"
  },
  "gasUsed": {
    "_hex": "0x5208"
  },
  "miner": "0x0037ce3d4B7f8729C8607D8D0248252Be68202c0",
  "extraData": "0x476574682f76312e302e312f77696e646f77732f676f312e342e32",
  "transactions": [
    {
      "hash": "0xb246a948e2f89d1eab55c3e21906cedc8d79a4ca50ce80b14e92363747ba7d85",
      "blockHash": "0x7cb6fc3b061dd9788e366ac44e6a17d9df6cddaef80a3dab62349835c2469864",
      "blockNumber": 82542,
      "transactionIndex": 0,
      "confirmations": null,
      "from": "0x27A2f708f13CFE24f8e5d6E8b7D8E971D2449Ba0",
      "gasPrice": {
        "_hex": "0xdeb0a3429"
      },
      "gasLimit": {
        "_hex": "0x15f90"
      },
      "to": "0x61F642543d22bAf5382908a714E675Cc0b51ea45",
      "value": {
        "_hex": "0xd02ab486cedc0000"
      },
      "nonce": 2,
      "data": "0x",
      "r": "0xa544b4faf7456fa8a116602578b475287da8348fb8e8412630427c976d25e33b",
      "s": "0x620fb9efa3e930b4f46e760054cc4334cc6142c63d7f1d7c96b69d8bfd6b3311",
      "v": 28,
      "creates": null,
      "raw": "0xf86d02850deb0a342983015f909461f642543d22baf5382908a714e675cc0b51ea4588d02ab486cedc0000801ca0a544b4faf7456fa8a116602578b475287da8348fb8e8412630427c976d25e33ba0620fb9efa3e930b4f46e760054cc4334cc6142c63d7f1d7c96b69d8bfd6b3311",
      "networkId": 0,
      "chainId": 0
    }
  ]
}