{
  "hash": "0xfb43078cab6686f9f452130e8c437ced202e444385b739ae8faead522f532872",
  "parentHash": "0x52481d79f39065b622f4f216e398ea2bd97dbde0c8f360ab702442c35df85413",
  "number": 81249,
  "timestamp": 1439498533,
  "nonce": "0x14523d853e9bef9c",
  "difficulty": 2455832215611,
  "gasLimit": {
    "_hex": "0x2fefd8"
  },
  "gasUsed": {
    "_hex": "0x2e4ac"
  },
  "miner": "0xe6A7a1d47ff21B6321162AEA7C6CB457D5476Bca",
  "extraData": "0x476574682f76312e302e312d38326566323666362f6c696e75782f676f312e34",
  "transactions": [
    {
      "hash": "0xe7541f2ced7875f72133d053e6fe0bd02848103d48407e7dccb484a2705d2fa8",
      "blockHash": "0xfb43078cab6686f9f452130e8c437ced202e444385b739ae8faead522f532872",
      "blockNumber": 81249,
      "transactionIndex": 0,
      "confirmations": null,
      "from": "0x34ff26eb60A8D1a95a489FaE136eE91D4e58084c",
      "gasPrice": {
        "_hex": "0x110c8f7d8de"
      },
      "gasLimit": {
        "_hex": "0xc350"
      },
      "to": "0x2910543Af39abA0Cd09dBb2D50200b3E800A63D2",
      "value": {
        "_hex": "0x1158e460913d00000"
      },
      "nonce": 0,
      "data": "0x454e305052324a3338",
      "r": "0x88a580d8e294c01faad9d38719e874eab9046eafdd0d4de1e199a1a4fdf91076",
      "s": "0x40d07a2572b34b71f02c60815d060d918173440d0445bbe8184823665c406c5a",
      "v": 28,
      "creates": null,
      "raw": "0xf87780860110c8f7d8de82c350942910543af39aba0cd09dbb2d50200b3e800a63d28901158e460913d0000089454e305052324a33381ca088a580d8e294c01faad9d38719e874eab9046eafdd0d4de1e199a1a4fdf91076a040d07a2572b34b71f02c60815d060d918173440d0445bbe8184823665c406c5a",
      "networkId": 0,
      "chainId": 0
    },
    {
      "hash": "0x5bb3b565449bd30de8ddcbacfdf4c01277cf32c8f9a1d0cbd84c9452c64e8c69",
      "blockHash": "0xfb43078cab6686f9f452130e8c437ced202e444385b739ae8faead522f532872",
      "blockNumber": 81249,
      "transactionIndex": 1,
      "confirmations": null,
      "from": "0x2910543Af39abA0Cd09dBb2D50200b3E800A63D2",
      "gasPrice": {
        "_hex": "0xd774f1d7d"
      },
      "gasLimit": {
        "_hex": "0x5208"
      },
      "to": "0x3fa4bD45851436Abd9C1d682D0b6d4e6624Ad021",
      "value": {
        "_hex": "0x6c6ba51f04f5208000"
      },
      "nonce": 455,
      "data": "0x",
      "r": "0x5024a7f0fffca99e2348b9d7443bdcd8cc5004866e6d1146a37547574872d1bc",
      "s": "0x5a7368de7d83076b21e8d017d01a91a96ec590b805914ec4413ec4ff50c442ce",
      "v": 27,
      "creates": null,
      "raw": "0xf86f8201c7850d774f1d7d825208943fa4bd45851436abd9c1d682d0b6d4e6624ad021896c6ba51f04f5208000801ba05024a7f0fffca99e2348b9d7443bdcd8cc5004866e6d1146a37547574872d1bca05a7368de7d83076b21e8d017d01a91a96ec590b805914ec4413ec4ff50c442ce",
      "networkId": 0,
      "chainId": 0
    },
    {
      "hash": "0x4a704d069a8b1126d85781c55fe78f505a6a5d734df53e20e118cd3de4680460",
      "blockHash": "0xfb43078cab6686f9f452130e8c437ced202e444385b739ae8faead522f532872",
      "blockNumber": 81249,
      "transactionIndex": 2,
      "confirmations": null,
      "from": "0x2910543Af39abA0Cd09dBb2D50200b3E800A63D2",
      "gasPrice": {
        "_hex": "0xd774f1d7d"
      },
      "gasLimit": {
        "_hex": "0x5208"
      },
      "to": "0x6eBEEa825E149acDc0ca02eA5B51699EDDb9Cde3",
      "value": {
        "_hex": "0x30bc0fd56b9c4b8000"
      },
      "nonce": 456,
      "data": "0x",
      "r": "0xcd2f56ec744b58099df36e2d24880430c650e50da8b9219d292b5a1fd62bc2da",
      "s": "0x0c5a8737da686866a00de8a01229b94478ff706977f42178c9a817f186621a76",
      "v": 27,
      "creates": null,
      "raw": "0xf86f8201c8850d774f1d7d825208946ebeea825e149acdc0ca02ea5b51699eddb9cde38930bc0fd56b9c4b8000801ba0cd2f56ec744b58099df36e2d24880430c650e50da8b9219d292b5a1fd62bc2daa00c5a8737da686866a00de8a01229b94478ff706977f42178c9a817f186621a76",
      "networkId": 0,
      "chainId": 0
    },
    {
      "hash": "0x433d423d57b48c03d9c812b8b938da58cc64814c9b00ca0508cb923247c35259",
      "blockHash": "0xfb43078cab6686f9f452130e8c437ced202e444385b739ae8faead522f532872",
      "blockNumber": 81249,
      "transactionIndex": 3,
      "confirmations": null,
      "from": "0x2910543Af39abA0Cd09dBb2D50200b3E800A63D2",
      "gasPrice": {
        "_hex": "0xd774f1d7d"
      },
      "gasLimit": {
        "_hex": "0x5208"
      },
      "to": "0x19ae27E1b61445EB9f27821A5eB4b3e957319e7e",
      "value": {
        "_hex": "0x1a5977c8436ed038000"
      },
      "nonce": 457,
      "data": "0x",
      "r": "0x36d6faeee9171b4271d233d6437fbc025141c712a0a3639c82f47d334d7f5eca",
      "s": "0x2b4a1ba2e79ba6ac86f760ef782796c3df9ba8c07e2c413cc0a44974655f9412",
      "v": 27,
      "creates": null,
      "raw": "0xf8708201c9850d774f1d7d8252089419ae27e1b61445eb9f27821a5eb4b3e957319e7e8a01a5977c8436ed038000801ba036d6faeee9171b4271d233d6437fbc025141c712a0a3639c82f47d334d7f5ecaa02b4a1ba2e79ba6ac86f760ef782796c3df9ba8c07e2c413cc0a44974655f9412",
      "networkId": 0,
      "chainId": 0
    },
    {
      "hash": "0x809b5ecdb037c8de8c80999e20cb2c98bba5bec2b45554c1ffe8989f9dcd5124",
      "blockHash": "0xfb43078cab6686f9f452130e8c437ced202e444385b739ae8faead522f532872",
      "blockNumber": 81249,
      "transactionIndex": 4,
      "confirmations": null,
      "from": "0x5fB5E2fC08615c69B0FD8e8f0b68DA93Ec5e326A",
      "gasPrice": {
        "_hex": "0xd01d2b79f"
      },
      "gasLimit": {
        "_hex": "0x5208"
      },
      "to": "0x32Be343B94f860124dC4fEe278FDCBD38C102D88",
      "value": {
        "_hex": "0x11478b3980ccf100000"
      },
      "nonce": 1,
      "data": "0x",
      "r": "0x0b8bba923bbd05ddf13a6aedbb657823616eac52d715b37f3d152e048e4f16db",
      "s": "0x4d20f5195f731bf113e2d47869a333d735dd1f6b8ceff0c72af927fe53af9b81",
      "v": 28,
      "creates": null,
      "raw": "0xf86e01850d01d2b79f8252089432be343b94f860124dc4fee278fdcbd38c102d888a011478b3980ccf100000801ca00b8bba923bbd05ddf13a6aedbb657823616eac52d715b37f3d152e048e4f16dba04d20f5195f731bf113e2d47869a333d735dd1f6b8ceff0c72af927fe53af9b81",
      "networkId": 0,
      "chainId": 0
    },
    {
      "hash": "0x92126b3c61904fab6ab7e0462c224355c41b3efdda56f019bcfbe16307c49152",
      "blockHash": "0xfb43078cab6686f9f452130e8c437ced202e444385b739ae8faead522f532872",
      "blockNumber": 81249,
      "transactionIndex": 5,
      "confirmations": null,
      "from": "0xb571A6a701b02EeBff6c09aa6B3242ad011030d8",
      "gasPrice": {
        "_hex": "0xce25b358d"
      },
      "gasLimit": {
        "_hex": "0x5208"
      },
      "to": "0x32Be343B94f860124dC4fEe278FDCBD38C102D88",
      "value": {
        "_hex": "0x27e352191c99a6000"
      },
      "nonce": 0,
      "data": "0x",
      "r": "0x545a84bab6839d2ba4865fd9f25e45285d277df14dcab5bc9f7531a894ba8772",
      "s": "0x521df86855652298b27777c06128c9bbdb7807ecc5470578111a9baf42f4cb47",
      "v": 27,
      "creates": null,
      "raw": "0xf86d80850ce25b358d8252089432be343b94f860124dc4fee278fdcbd38c102d8889027e352191c99a6000801ba0545a84bab6839d2ba4865fd9f25e45285d277df14dcab5bc9f7531a894ba8772a0521df86855652298b27777c06128c9bbdb7807ecc5470578111a9baf42f4cb47",
      "networkId": 0,
      "chainId": 0
    },
    {
      "hash": "0x4858087651e09468d0999dd3eeaf541a8fd9294d5c6cdd0cf7dbd4d2c8e4e539",
      "blockHash": "0xfb43078cab6686f9f452130e8c437ced202e444385b739ae8faead522f532872",
      "blockNumber": 81249,
      "transactionIndex": 6,
      "confirmations": null,
      "from": "0x9aD28d4b9331aAC808DED237E46c6f5d69FCEDF6",
      "gasPrice": {
        "_hex": "0xce25b358d"
      },
      "gasLimit": {
        "_hex": "0x5208"
      },
      "to": "0x32Be343B94f860124dC4fEe278FDCBD38C102D88",
      "value": {
        "_hex": "0x1236ad1bece179000"
      },
      "nonce": 4,
      "data": "0x",
      "r": "0x212a012066935282b597d32eb308f191cef1af674c19143de6db756be6ca5ec1",
      "s": "0x7e49ec24c62d22868852040a771d1e8b396f9677464d9dad4155efb452fd9b2f",
      "v": 27,
      "creates": null,
      "raw": "0xf86d04850ce25b358d8252089432be343b94f860124dc4fee278fdcbd38c102d888901236ad1bece179000801ba0212a012066935282b597d32eb308f191cef1af674c19143de6db756be6ca5ec1a07e49ec24c62d22868852040a771d1e8b396f9677464d9dad4155efb452fd9b2f",
      "networkId": 0,
      "chainId": 0
    },
    {
      "hash": "0x6f95058b260a36462f81fb9d9c7bb459c55690c9c2ead0f7e7ac19682f60b9de",
      "blockHash": "0xfb43078cab6686f9f452130e8c437ced202e444385b739ae8faead522f532872",
      "blockNumber": 81249,
      "transactionIndex": 7,
      "confirmations": null,
      "from": "0x1527fcd698B3A8707bb745F80ab114FfF3Db35E2",
      "gasPrice": {
        "_hex": "0xce25b358d"
      },
      "gasLimit": {
        "_hex": "0x5208"
      },
      "to": "0x32Be343B94f860124dC4fEe278FDCBD38C102D88",
      "value": {
        "_hex": "0xddca0a57d33c400"
      },
      "nonce": 3,
      "data": "0x",
      "r": "0x12556a95abddca7a6155d8a0fb6ee6a2c1558c8abb72fbdc49163019b9e6e369",
      "s": "0x5fad7f996c50b94a95ad9628c044aafe7e04d8ecb560a53efe5c9db67f40ee73",
      "v": 28,
      "creates": null,
      "raw": "0xf86c03850ce25b358d8252089432be343b94f860124dc4fee278fdcbd38c102d88880ddca0a57d33c400801ca012556a95abddca7a6155d8a0fb6ee6a2c1558c8abb72fbdc49163019b9e6e369a05fad7f996c50b94a95ad9628c044aafe7e04d8ecb560a53efe5c9db67f40ee73",
      "networkId": 0,
      "chainId": 0
    },
    {
      "hash": "0x0e7c5b6ddb7d3c33cdd555559ccf55e0d883c0929e3da58e3cc8a303e7acf201",
      "blockHash": "0xfb43078cab6686f9f452130e8c437ced202e444385b739ae8faead522f532872",
      "blockNumber": 81249,
      "transactionIndex": 8,
      "confirmations": null,
      "from": "0x0A319A7e0C887F104359e1eEe6717BD8f232d3Da",
      "gasPrice": {
        "_hex": "0xce25b358d"
      },
      "gasLimit": {
        "_hex": "0x5208"
      },
      "to": "0x32Be343B94f860124dC4fEe278FDCBD38C102D88",
      "value": {
        "_hex": "0x1c9f36c40be4a4000"
      },
      "nonce": 9,
      "data": "0x",
      "r": "0x6ed60ca155bf765a58a0e5f39cd59fededdfa45619cd188a4291d6dbb7219a66",
      "s": "0x7228a7d8868648eef8c62c428b6a41ec9c3f7cc6019ded324b9cf88853239296",
      "v": 28,
      "creates": null,
      "raw": "0xf86d09850ce25b358d8252089432be343b94f860124dc4fee278fdcbd38c102d888901c9f36c40be4a4000801ca06ed60ca155bf765a58a0e5f39cd59fededdfa45619cd188a4291d6dbb7219a66a07228a7d8868648eef8c62c428b6a41ec9c3f7cc6019ded324b9cf88853239296",
      "networkId": 0,
      "chainId": 0
    }
  ]
}