{
  "hash": "0xd27e36139f1b4eb6e3544af8552475f76c1e1520e2472320bcbdba30ad29b6db",
  "parentHash": "0x53f470000963b2afe767a850255c9caa5fc873b22bfd2d0b7a1ef8f56ea24023",
  "number": 105063,
  "timestamp": 1439881000,
  "nonce": "0x993745d954d6fda9",
  "difficulty": 4297901524381,
  "gasLimit": {
    "_hex": "0x2fefd8"
  },
  "gasUsed": {
    "_hex": "0x5208"
  },
  "miner": "0xC4E15a24b5f80FCeBC7104b922B1baF37FdD708B",
  "extraData": "0x",
  "transactions": [
    {
      "hash": "0x5158db0a221a3288af0676bd891ab97a0c678dcf485bb0826e8c2551cc8c3834",
      "blockHash": "0xd27e36139f1b4eb6e3544af8552475f76c1e1520e2472320bcbdba30ad29b6db",
      "blockNumber": 105063,
      "transactionIndex": 0,
      "confirmations": null,
      "from": "0x0D4EcC7d750180EBf4A9Df728B6669B5Bceb5E40",
      "gasPrice": {
        "_hex": "0xd5b72edd5"
      },
      "gasLimit": {
        "_hex": "0x5208"
      },
      "to": "0x32Be343B94f860124dC4fEe278FDCBD38C102D88",
      "value": {
        "_hex": "0x3406656afbebf400"
      },
      "nonce": 76,
      "data": "0x",
      "r": "0x768b1e18123da00ccb0b5ccf26f9f489c52f1187b16448bb9fdaad3cb23df2b9",
      "s": "0x07f23c0823b05d5c148b780d405f1fb69793f2bfef1c501313b3a30f6556a5ca",
      "v": 27,
      "creates": null,
      "raw": "0xf86c4c850d5b72edd58252089432be343b94f860124dc4fee278fdcbd38c102d88883406656afbebf400801ba0768b1e18123da00ccb0b5ccf26f9f489c52f1187b16448bb9fdaad3cb23df2b9a007f23c0823b05d5c148b780d405f1fb69793f2bfef1c501313b3a30f6556a5ca",
      "networkId": 0,
      "chainId": 0
    }
  ]
}