{
  "hash": "0xaedc4741d0bfa79fc804140156282f985cdcca9c3926a466b8c98f73e6830bb1",
  "parentHash": "0xa8bea3e08b85c3b92ab1832f5e2ddc1b44f6c94ad613eecbf07e9874d5f3fb02",
  "number": 77922,
  "timestamp": 1439445062,
  "nonce": "0xc1a2da8d334edbd3",
  "difficulty": 2295593009512,
  "gasLimit": {
    "_hex": "0x2fefd8"
  },
  "gasUsed": {
    "_hex": "0x546c"
  },
  "miner": "0xbb7B8287f3F0a933474a79eAe42CBCa977791171",
  "extraData": "0x476574682f4c5649562f76312e302e312f6c696e75782f676f312e342e32",
  "transactions": [
    {
      "hash": "0x96172485bf527be1d4922931f5b69e164d70458617e1f154f285f183889d35d0",
      "blockHash": "0xaedc4741d0bfa79fc804140156282f985cdcca9c3926a466b8c98f73e6830bb1",
      "blockNumber": 77922,
      "transactionIndex": 0,
      "confirmations": null,
      "from": "0xCF157612764E0FD696C8cb5FbA85Df4C0DDC3cb0",
      "gasPrice": {
        "_hex": "0xd23ee12e2"
      },
      "gasLimit": {
        "_hex": "0x55f0"
      },
      "to": "0x2910543Af39abA0Cd09dBb2D50200b3E800A63D2",
      "value": {
        "_hex": "0xa2a15d09519be00000"
      },
      "nonce": 1,
      "data": "0x454e433242555a3730",
      "r": "0x5f6d87b6874ff9c83517e21d52e5068150d48b5a7e3df7a9cfc07e286708ef0c",
      "s": "0x2c6a623c8eeaa3ce47c0ea4cc759a04d0d5e3c9a42370aa04d5ea6104239cd69",
      "v": 27,
      "creates": null,
      "raw": "0xf87601850d23ee12e28255f0942910543af39aba0cd09dbb2d50200b3e800a63d289a2a15d09519be0000089454e433242555a37301ba05f6d87b6874ff9c83517e21d52e5068150d48b5a7e3df7a9cfc07e286708ef0ca02c6a623c8eeaa3ce47c0ea4cc759a04d0d5e3c9a42370aa04d5ea6104239cd69",
      "networkId": 0,
      "chainId": 0
    }
  ]
}