{
  "hash": "0x2f8575cea61eba06f15a5cc7bcbd209e790877976233240924fe64d3707a049a",
  "parentHash": "0xbbc750e37538698e92fc68b73122312976a826256f6d35fac00ed1304fcd84dd",
  "number": 100921,
  "timestamp": 1439814604,
  "nonce": "0x8b302288ac87be17",
  "difficulty": 3854516749199,
  "gasLimit": {
    "_hex": "0x2fefd8"
  },
  "gasUsed": {
    "_hex": "0x5208"
  },
  "miner": "0xe6A7a1d47ff21B6321162AEA7C6CB457D5476Bca",
  "extraData": "0x476574682f76312e302e312d38326566323666362f6c696e75782f676f312e34",
  "transactions": [
    {
      "hash": "0xe482f1728d5d3f7f7c25573cac254ca48b47fddee0caed0fb6286827f02722c9",
      "blockHash": "0x2f8575cea61eba06f15a5cc7bcbd209e790877976233240924fe64d3707a049a",
      "blockNumber": 100921,
      "transactionIndex": 0,
      "confirmations": null,
      "from": "0x4c74B6F32c9680aCB5Fe0e72B7Aa95C612540A04",
      "gasPrice": {
        "_hex": "0xda0277766"
      },
      "gasLimit": {
        "_hex": "0x5208"
      },
      "to": "0x32Be343B94f860124dC4fEe278FDCBD38C102D88",
      "value": {
        "_hex": "0x107a93de116e22000"
      },
      "nonce": 37,
      "data": "0x",
      "r": "0xbd488fba5c4173a4dea5adc053ac73c1a5bd4d9c52b9155bc0546059efb7103a",
      "s": "0x0ad4669d8226be0092ed53d8bd3dae033995201f8158f7ba84254b1335746baf",
      "v": 28,
      "creates": null,
      "raw": "0xf86d25850da02777668252089432be343b94f860124dc4fee278fdcbd38c102d88890107a93de116e22000801ca0bd488fba5c4173a4dea5adc053ac73c1a5bd4d9c52b9155bc0546059efb7103aa00ad4669d8226be0092ed53d8bd3dae033995201f8158f7ba84254b1335746baf",
      "networkId": 0,
      "chainId": 0
    }
  ]
}