{
  "hash": "0x51cc35c7c049e53af718d7ac259358dbea13000e16fea8969dc45116bfbdccda",
  "parentHash": "0xc652a9f91013f87cec76032e97235cc4b03b1b7b7967fcab33bf566d723f6e06",
  "number": 106219,
  "timestamp": 1439900594,
  "nonce": "0xda87a8868d8e1ff8",
  "difficulty": 4477230701440,
  "gasLimit": {
    "_hex": "0x2fefd8"
  },
  "gasUsed": {
    "_hex": "0x546c"
  },
  "miner": "0x88D74a59454F6cF3B51ef6b9136AFb6b9D405A88",
  "extraData": "0x476574682f76312e302e312d39393231366634612f6c696e75782f676f312e34",
  "transactions": [
    {
      "hash": "0x2b7b0696e178216fb5ee481b5b021c720364ebd773dc65fc50bf519d74aeaade",
      "blockHash": "0x51cc35c7c049e53af718d7ac259358dbea13000e16fea8969dc45116bfbdccda",
      "blockNumber": 106219,
      "transactionIndex": 0,
      "confirmations": null,
      "from": "0x4354221E62dc09e6406436163A185ef06D114A81",
      "gasPrice": {
        "_hex": "0x110c8f7d8de"
      },
      "gasLimit": {
        "_hex": "0xc350"
      },
      "to": "0x2910543Af39abA0Cd09dBb2D50200b3E800A63D2",
      "value": {
        "_hex": "0x6c5db2a4d815dc0000"
      },
      "nonce": 0,
      "data": "0x454e56413344304830",
      "r": "0x1b51e1cc8a32bd026a98830c81d0d79ca48fec67bba9089aa786f6c1cec11b49",
      "s": "0x80c825b2c5f31af1de870f4a71b3fab04cc7c9a0eb9c9fb1a11aff08756367a7",
      "v": 28,
      "creates": null,
      "raw": "0xf87780860110c8f7d8de82c350942910543af39aba0cd09dbb2d50200b3e800a63d2896c5db2a4d815dc000089454e564133443048301ca01b51e1cc8a32bd026a98830c81d0d79ca48fec67bba9089aa786f6c1cec11b49a080c825b2c5f31af1de870f4a71b3fab04cc7c9a0eb9c9fb1a11aff08756367a7",
      "networkId": 0,
      "chainId": 0
    }
  ]
}