{
  "hash": "0x8765fc8b6ea85fc71c9d3f60f3e24b96ef76dcf765d3fecb2862beb3e7d7b177",
  "parentHash": "0x0e62c2ec6c7587e3166260533205633a6b491b9cf045e7eab6c1d35f27ceacee",
  "number": 111163,
  "timestamp": 1439985782,
  "nonce": "0xf22d137744cce0fd",
  "difficulty": 4400920720459,
  "gasLimit": {
    "_hex": "0x2fefd8"
  },
  "gasUsed": {
    "_hex": "0x5208"
  },
  "miner": "0x88D74a59454F6cF3B51ef6b9136AFb6b9D405A88",
  "extraData": "0x",
  "transactions": [
    {
      "hash": "0x1609b8ce8234cf9b6c2e3d89f0a8a86d4919c74ecd1ba363e6336a48e78e2da8",
      "blockHash": "0x8765fc8b6ea85fc71c9d3f60f3e24b96ef76dcf765d3fecb2862beb3e7d7b177",
      "blockNumber": 111163,
      "transactionIndex": 0,
      "confirmations": null,
      "from": "0x2f86ba8019945f39edE131D38d4d8780884DA553",
      "gasPrice": {
        "_hex": "0xd40ff5972"
      },
      "gasLimit": {
        "_hex": "0x5208"
      },
      "to": "0x32Be343B94f860124dC4fEe278FDCBD38C102D88",
      "value": {
        "_hex": "0x35fe30dc75e3040000"
      },
      "nonce": 34,
      "data": "0x",
      "r": "0xb1a5e5659c36ebf8ef1279871554d6a9fe844ca39057fd59048ca8750645cbc3",
      "s": "0x4535cb5d2f94578bb54c228a5416e842903e6a382d1d5661d4b6512ef9efea5e",
      "v": 27,
      "creates": null,
      "raw": "0xf86d22850d40ff59728252089432be343b94f860124dc4fee278fdcbd38c102d888935fe30dc75e3040000801ba0b1a5e5659c36ebf8ef1279871554d6a9fe844ca39057fd59048ca8750645cbc3a04535cb5d2f94578bb54c228a5416e842903e6a382d1d5661d4b6512ef9efea5e",
      "networkId": 0,
      "chainId": 0
    }
  ]
}