{
  "hash": "0xfb526e546768eb3b76ac634923da090a5b2f4f5b2d8e51ddbdb31184d16f0a17",
  "parentHash": "0x2457a5a03876d458b8bd29c9af52930b10e9877db2cb584765b87b84d423a589",
  "number": 98518,
  "timestamp": 1439774215,
  "nonce": "0x8d45cac35aee546c",
  "difficulty": 3857504159380,
  "gasLimit": {
    "_hex": "0x2fefd8"
  },
  "gasUsed": {
    "_hex": "0x5208"
  },
  "miner": "0x580992B51e3925e23280EfB93d3047C82f17E038",
  "extraData": "0x476574682f76312e302e312f6c696e75782f676f312e342e32",
  "transactions": [
    {
      "hash": "0x5eb73dfa2f90c0b2aecdb8e46a53251a59a77ed4d62bc39a77576057808ef9f6",
      "blockHash": "0xfb526e546768eb3b76ac634923da090a5b2f4f5b2d8e51ddbdb31184d16f0a17",
      "blockNumber": 98518,
      "transactionIndex": 0,
      "confirmations": null,
      "from": "0x7D45E10A0d63eCCA0694a7cbfF030f4dD87DA0dC",
      "gasPrice": {
        "_hex": "0xd1f217cbf"
      },
      "gasLimit": {
        "_hex": "0x15f90"
      },
      "to": "0x6d921977dEFE5f4e0682CA512De1D07b1f4802E1",
      "value": {
        "_hex": "0x8acab0832eae8000"
      },
      "nonce": 22,
      "data": "0x",
      "r": "0x7d0148863118ee0a89c4372af9008833809ca74f42586458916c2a93da9b87fc",
      "s": "0x11889472a96cbb53f82933e715ea386f48eeb1f51a03ef62d376bc7a1e0549a2",
      "v": 27,
      "creates": null,
      "raw": "0xf86d16850d1f217cbf83015f90946d921977defe5f4e0682ca512de1d07b1f4802e1888acab0832eae8000801ba07d0148863118ee0a89c4372af9008833809ca74f42586458916c2a93da9b87fca011889472a96cbb53f82933e715ea386f48eeb1f51a03ef62d376bc7a1e0549a2",
      "networkId": 0,
      "chainId": 0
    }
  ]
}