{
  "hash": "0x0e3d618d3158ba930d41f6d0577d927200f75b271f8c8ece0e75bbc4072d3074",
  "parentHash": "0xacd2406b4e249e7f0ba2e3c735ef19ae3f161254c64e0c481bddcc0f2b6c462d",
  "number": 57981,
  "timestamp": 1439112932,
  "nonce": "0xbef8ba3ba8977af8",
  "difficulty": 1722570325590,
  "gasLimit": {
    "_hex": "0x2fefd8"
  },
  "gasUsed": {
    "_hex": "0x546c"
  },
  "miner": "0xf8E0CA3Ed80bd541b94BEdCf259e8CF2141A9523",
  "extraData": "0x476574682f76312e302e312f77696e646f77732f676f312e342e32",
  "transactions": [
    {
      "hash": "0x8401317edf05087175f946eba6a978ae00dcbbee2d0e58507ed8f434b62ea63b",
      "blockHash": "0x0e3d618d3158ba930d41f6d0577d927200f75b271f8c8ece0e75bbc4072d3074",
      "blockNumber": 57981,
      "transactionIndex": 0,
      "confirmations": null,
      "from": "0xcbA288Cd3C1eb4D59dDb06a6421c14C345a47B24",
      "gasPrice": {
        "_hex": "0xd641f460d"
      },
      "gasLimit": {
        "_hex": "0x15f90"
      },
      "to": "0x2910543Af39abA0Cd09dBb2D50200b3E800A63D2",
      "value": {
        "_hex": "0xa2937c529df47c0000"
      },
      "nonce": 1,
      "data": "0x454e52433039593138",
      "r": "0x943462c827d076c0c0ca2ab0e12fd674c6b217e24e106ea14f626db4850f0167",
      "s": "0x44a6aeff721bb5933b99f7667b932c2159f6ac9a4e03c17e63478e8f0fad87a7",
      "v": 28,
      "creates": null,
      "raw": "0xf87701850d641f460d83015f90942910543af39aba0cd09dbb2d50200b3e800a63d289a2937c529df47c000089454e524330395931381ca0943462c827d076c0c0ca2ab0e12fd674c6b217e24e106ea14f626db4850f0167a044a6aeff721bb5933b99f7667b932c2159f6ac9a4e03c17e63478e8f0fad87a7",
      "networkId": 0,
      "chainId": 0
    }
  ]
}