{
  "hash": "0xce781a53e4a86afc8d5cffd7da9b56cba6b6732d6d5f05eaa4e3c108adf7b22a",
  "parentHash": "0x57cb882863078ca20ddc4daa493646565461b9e48352f123fd41ac3b68295444",
  "number": 91200,
  "timestamp": 1439651924,
  "nonce": "0xd23f23c960e8464f",
  "difficulty": 3444004646270,
  "gasLimit": {
    "_hex": "0x2fefd8"
  },
  "gasUsed": {
    "_hex": "0x5208"
  },
  "miner": "0xf927a40C8B7F6E07c5af7FA2155B4864a4112B13",
  "extraData": "0x",
  "transactions": [
    {
      "hash": "0xc580e9ddb960374b23e9528586d0c67892523281176d50861ce41f0e68ec3e0e",
      "blockHash": "0xce781a53e4a86afc8d5cffd7da9b56cba6b6732d6d5f05eaa4e3c108adf7b22a",
      "blockNumber": 91200,
      "transactionIndex": 0,
      "confirmations": null,
      "from": "0x2910543Af39abA0Cd09dBb2D50200b3E800A63D2",
      "gasPrice": {
        "_hex": "0xdc61b285d"
      },
      "gasLimit": {
        "_hex": "0x5208"
      },
      "to": "0xD96719eF8eFF64F6e84Fd03120014834F4E76c40",
      "value": {
        "_hex": "0x1a4c6475b95d8000"
      },
      "nonce": 800,
      "data": "0x",
      "r": "0x052d74959c909e1c5fd37c364bd51918f4b519979b4e4c5ac93e69604b586a0e",
      "s": "0x65d620c63b3df542bf909b5a3793c2847bc8d7de62972ffb832e9ade1fbab3a7",
      "v": 28,
      "creates": null,
      "raw": "0xf86e820320850dc61b285d82520894d96719ef8eff64f6e84fd03120014834f4e76c40881a4c6475b95d8000801ca0052d74959c909e1c5fd37c364bd51918f4b519979b4e4c5ac93e69604b586a0ea065d620c63b3df542bf909b5a3793c2847bc8d7de62972ffb832e9ade1fbab3a7",
      "networkId": 0,
      "chainId": 0
    }
  ]
}