{
  "hash": "0x47861a29d3bfd37ebeae5d12b665e575046174eaa13f28fa750fb6da34c7bad3",
  "parentHash": "0x450b559f5b68a8ccfdf52f9856e9a315f8faf6f3ccd829028c28db3778e16a49",
  "number": 87812,
  "timestamp": 1439597848,
  "nonce": "0x195347aba30f9212",
  "difficulty": 3177148584055,
  "gasLimit": {
    "_hex": "0x2fefd8"
  },
  "gasUsed": {
    "_hex": "0x5208"
  },
  "miner": "0xC603Ab5ef41fC61AA8b76bEddb09e3Cfcbb174BD",
  "extraData": "0x476574682f76312e302e312f77696e646f77732f676f312e342e32",
  "transactions": [
    {
      "hash": "0xff35b93cc3365441e6d854f439e343e588913c1cf4a4fab31c171baff483aabe",
      "blockHash": "0x47861a29d3bfd37ebeae5d12b665e575046174eaa13f28fa750fb6da34c7bad3",
      "blockNumber": 87812,
      "transactionIndex": 0,
      "confirmations": null,
      "from": "0x3D92adD52e14562fb2621F47a37dBd6172483A7f",
      "gasPrice": {
        "_hex": "0xd23ee12e2"
      },
      "gasLimit": {
        "_hex": "0x15f90"
      },
      "to": "0x61F642543d22bAf5382908a714E675Cc0b51ea45",
      "value": {
        "_hex": "0xa688906bd8b00000"
      },
      "nonce": 0,
      "data": "0x",
      "r": "0x5d6521ae8c89e4f05b27d2025ed9293d5c1cbb885c13fc2acba9b812342a8388",
      "s": "0x2ea212808ca779022e88a1cc479cb036e1e5bb48be84960c1ca1b04885958566",
      "v": 28,
      "creates": null,
      "raw": "0xf86d80850d23ee12e283015f909461f642543d22baf5382908a714e675cc0b51ea4588a688906bd8b00000801ca05d6521ae8c89e4f05b27d2025ed9293d5c1cbb885c13fc2acba9b812342a8388a02ea212808ca779022e88a1cc479cb036e1e5bb48be84960c1ca1b04885958566",
      "networkId": 0,
      "chainId": 0
    }
  ]
}