{
  "hash": "0x971a42e43686745fb94482ac8d226c7453978438f06faa231c5e47c045ce0fdb",
  "parentHash": "0x0626ddfd83e0500f8dcf74dc7d5b8d2a945c0dabe9b1f673b187daf25e3785e1",
  "number": 80358,
  "timestamp": 1439484530,
  "nonce": "0x7701efdf45538f0c",
  "difficulty": 2381689681839,
  "gasLimit": {
    "_hex": "0x2fefd8"
  },
  "gasUsed": {
    "_hex": "0x57b4"
  },
  "miner": "0x580992B51e3925e23280EfB93d3047C82f17E038",
  "extraData": "0x476574682f76312e302e312f6c696e75782f676f312e342e32",
  "transactions": [
    {
      "hash": "0x85f2d195c539cafdcc6a6c5d3655f4c673534ba01d2004b4d7d1f9e62870615b",
      "blockHash": "0x971a42e43686745fb94482ac8d226c7453978438f06faa231c5e47c045ce0fdb",
      "blockNumber": 80358,
      "transactionIndex": 0,
      "confirmations": null,
      "from": "0x87C5B5874A18B4306DF8a752a6C8cc3E82daFc19",
      "gasPrice": {
        "_hex": "0x11170ac7684"
      },
      "gasLimit": {
        "_hex": "0x493e0"
      },
      "to": "0xC4c51de1AbF5D60DBd329eC0F999Fd8f021ae9fC",
      "value": {
        "_hex": "0x0"
      },
      "nonce": 185,
      "data": "0xbd66528a6b6b6b0000000000000000000000000000000000000000000000000000000000",
      "r": "0x742dd18338f00f6bf63f65be40dd4644cc2604cbbc51c52104ab2e8e30ab78b0",
      "s": "0x79aa2d549e9e35623c0166fe8cddabc9ca1d9937f6c99ce14fcf52d534e1df88",
      "v": 27,
      "creates": null,
      "raw": "0xf88b81b986011170ac7684830493e094c4c51de1abf5d60dbd329ec0f999fd8f021ae9fc80a4bd66528a6b6b6b00000000000000000000000000000000000000000000000000000000001ba0742dd18338f00f6bf63f65be40dd4644cc2604cbbc51c52104ab2e8e30ab78b0a079aa2d549e9e35623c0166fe8cddabc9ca1d9937f6c99ce14fcf52d534e1df88",
      "networkId": 0,
      "chainId": 0
    }
  ]
}