{
  "hash": "0xdd57b52fbb4ef706dfc19569cc573401ba943b645a8dc3ff4f800e3ad3721ebb",
  "parentHash": "0x0043d9d868024f9f7b35d15bb5651e2a7caaa4b84a474e38f1685d19fb90b2e1",
  "number": 52402,
  "timestamp": 1439020945,
  "nonce": "0xfd55d46c8f1a5575",
  "difficulty": 1568695419126,
  "gasLimit": {
    "_hex": "0x135e8c"
  },
  "gasUsed": {
    "_hex": "0x546c"
  },
  "miner": "0xc672B41FCC9441EeB20f8d1b4342DE7A982eBAb4",
  "extraData": "0x476574682f76312e302e312f77696e646f77732f676f312e342e32",
  "transactions": [
    {
      "hash": "0xd1a31de09073b4e88f9e3248eb5136f96af596bc8242e5938eac05e75d51dcca",
      "blockHash": "0xdd57b52fbb4ef706dfc19569cc573401ba943b645a8dc3ff4f800e3ad3721ebb",
      "blockNumber": 52402,
      "transactionIndex": 0,
      "confirmations": null,
      "from": "0x3Db5FE6A68BD3612ac15a99A61E555928eecEaf3",
      "gasPrice": {
        "_hex": "0x110c8f7d8de"
      },
      "gasLimit": {
        "_hex": "0xc350"
      },
      "to": "0x2910543Af39abA0Cd09dBb2D50200b3E800A63D2",
      "value": {
        "_hex": "0x44004c09e76a0000"
      },
      "nonce": 1,
      "data": "0x454e41364856384530",
      "r": "0x1e121ec8f433e64ce37b049bcfe010685c6b8eef23e27b14366f60c8ad09205c",
      "s": "0x056e85c40ba83292bb0595802105777789c23e5b0c5ed12365e81f75747437a2",
      "v": 27,
      "creates": null,
      "raw": "0xf87601860110c8f7d8de82c350942910543af39aba0cd09dbb2d50200b3e800a63d28844004c09e76a000089454e413648563845301ba01e121ec8f433e64ce37b049bcfe010685c6b8eef23e27b14366f60c8ad09205ca0056e85c40ba83292bb0595802105777789c23e5b0c5ed12365e81f75747437a2",
      "networkId": 0,
      "chainId": 0
    }
  ]
}