{
  "hash": "0xa06f55c14a7115386eefb29e09c7a8392b3a1f51db4dd90ce793a2ce201296f2",
  "parentHash": "0x27d5d88d841bb9db4166208b20171a8f612a6abdbe9555c59e50c0d280a2d768",
  "number": 63991,
  "timestamp": 1439213704,
  "nonce": "0xf5d0ee66a1d00882",
  "difficulty": 1843121281664,
  "gasLimit": {
    "_hex": "0x2fefd8"
  },
  "gasUsed": {
    "_hex": "0xa410"
  },
  "miner": "0x9746c7e1ef2bd21FF3997fa467593a89cb852BD0",
  "extraData": "0x476574682f76312e302e312f77696e646f77732f676f312e342e32",
  "transactions": [
    {
      "hash": "0x7fa3baacfab65e064f04801d0117b9bfa76a0362e45ec8d51a79465fd0bbaad2",
      "blockHash": "0xa06f55c14a7115386eefb29e09c7a8392b3a1f51db4dd90ce793a2ce201296f2",
      "blockNumber": 63991,
      "transactionIndex": 0,
      "confirmations": null,
      "from": "0xBFdD9820a04283b289957956353b5F3C1F665EcF",
      "gasPrice": {
        "_hex": "0xd43876190"
      },
      "gasLimit": {
        "_hex": "0x5208"
      },
      "to": "0x32Be343B94f860124dC4fEe278FDCBD38C102D88",
      "value": {
        "_hex": "0x455f51765050c000"
      },
      "nonce": 17,
      "data": "0x",
      "r": "0x036d6d1ef0d431845f083ded4c14b58089ac7038a632f922f6c176549cc8f011",
      "s": "0x3179c8edbb45075d64673704cf5d905c42bb58cc80e5817d73a7c3f7327e02d6",
      "v": 28,
      "creates": null,
      "raw": "0xf86c11850d438761908252089432be343b94f860124dc4fee278fdcbd38c102d8888455f51765050c000801ca0036d6d1ef0d431845f083ded4c14b58089ac7038a632f922f6c176549cc8f011a03179c8edbb45075d64673704cf5d905c42bb58cc80e5817d73a7c3f7327e02d6",
      "networkId": 0,
      "chainId": 0
    },
    {
      "hash": "0xc2906cf212284bf5843173e8f95c938d25b1d1e8c4ce8cd8341c7178feb825f9",
      "blockHash": "0xa06f55c14a7115386eefb29e09c7a8392b3a1f51db4dd90ce793a2ce201296f2",
      "blockNumber": 63991,
      "transactionIndex": 1,
      "confirmations": null,
      "from": "0x86d3856ad0105B9d4199936c1fd203664BA325dC",
      "gasPrice": {
        "_hex": "0xd43876190"
      },
      "gasLimit": {
        "_hex": "0x5208"
      },
      "to": "0x32Be343B94f860124dC4fEe278FDCBD38C102D88",
      "value": {
        "_hex": "0x3354ca59904ec000"
      },
      "nonce": 8,
      "data": "0x",
      "r": "0xec5d50dcca238a48089563e8bb0f2b19cb113c1776020efc8c87d445cebdbb48",
      "s": "0x2543cd6bb92a58dbea1527065f3a0640e2c7fab87ffae8da292bf5c8c93b4a29",
      "v": 28,
      "creates": null,
      "raw": "0xf86c08850d438761908252089432be343b94f860124dc4fee278fdcbd38c102d88883354ca59904ec000801ca0ec5d50dcca238a48089563e8bb0f2b19cb113c1776020efc8c87d445cebdbb48a02543cd6bb92a58dbea1527065f3a0640e2c7fab87ffae8da292bf5c8c93b4a29",
      "networkId": 0,
      "chainId": 0
    }
  ]
}