{
  "hash": "0x5a42cdb8ea66a514386c3fe6aee4a54d9c806e05aaafb9a42d31870f82c68667",
  "parentHash": "0xcf4953087a244f964ccfe8c39493e78826329e0b6d35c1280825169a8d12bab2",
  "number": 99175,
  "timestamp": 1439785632,
  "nonce": "0x07449718ee7f895c",
  "difficulty": 3806683997119,
  "gasLimit": {
    "_hex": "0x2fefd8"
  },
  "gasUsed": {
    "_hex": "0x5208"
  },
  "miner": "0xe6A7a1d47ff21B6321162AEA7C6CB457D5476Bca",
  "extraData": "0x476574682f76312e302e312d38326566323666362f6c696e75782f676f312e34",
  "transactions": [
    {
      "hash": "0x9f20a3a9aa90f3f31878f13f2516ef785869975abb8f9d9d05fde5692d163587",
      "blockHash": "0x5a42cdb8ea66a514386c3fe6aee4a54d9c806e05aaafb9a42d31870f82c68667",
      "blockNumber": 99175,
      "transactionIndex": 0,
      "confirmations": null,
      "from": "0xE87470b43FA5904a32866396B2f798D898c13978",
      "gasPrice": {
        "_hex": "0xd62264cce"
      },
      "gasLimit": {
        "_hex": "0x15f90"
      },
      "to": "0x972ad000397A3c903299F1353d6d4b85eE4E4e2A",
      "value": {
        "_hex": "0xd02ab486cedc0000"
      },
      "nonce": 10,
      "data": "0x",
      "r": "0x476902579fb611ef515c813141b66c29c93c0345167f50c5576ee686b249c438",
      "s": "0x21d23c5e3c7fe668816f98e73c4ca8ae4eb8273a57c9780e9c0cbafefebf0f08",
      "v": 27,
      "creates": null,
      "raw": "0xf86d0a850d62264cce83015f9094972ad000397a3c903299f1353d6d4b85ee4e4e2a88d02ab486cedc0000801ba0476902579fb611ef515c813141b66c29c93c0345167f50c5576ee686b249c438a021d23c5e3c7fe668816f98e73c4ca8ae4eb8273a57c9780e9c0cbafefebf0f08",
      "networkId": 0,
      "chainId": 0
    }
  ]
}