{
  "hash": "0x55266f60c0f43bd1f0d00b3cbedd718be277714c263cbadacef6a16c2fd5beee",
  "parentHash": "0x13a0348727128d44cc02593f013f2ee21a7f24ebb7631f8cd43a8bac05a52bfb",
  "number": 119820,
  "timestamp": 1440149237,
  "nonce": "0x8cb1aff43599a719",
  "difficulty": 4407127801893,
  "gasLimit": {
    "_hex": "0x2fefd8"
  },
  "gasUsed": {
    "_hex": "0x5208"
  },
  "miner": "0x007f7f58D3eb5b7510A301eCC749FC1fCDDBE14D",
  "extraData": "0x",
  "transactions": [
    {
      "hash": "0x652af63c4d2c68726e3745069cc500112f70127b340dd1917e74f9ba80390530",
      "blockHash": "0x55266f60c0f43bd1f0d00b3cbedd718be277714c263cbadacef6a16c2fd5beee",
      "blockNumber": 119820,
      "transactionIndex": 0,
      "confirmations": null,
      "from": "0x007f7f58D3eb5b7510A301eCC749FC1fCDDBE14D",
      "gasPrice": {
        "_hex": "0xba43b7400"
      },
      "gasLimit": {
        "_hex": "0x15f90"
      },
      "to": "0xb1abce2918E21ddb93AA452731a12672A3d9F75a",
      "value": {
        "_hex": "0x4563918244f40000"
      },
      "nonce": 364,
      "data": "0x",
      "r": "0x0af8c82a0be095119659064c0fd374ae2d32889f831192d456326464111969e5",
      "s": "0x2440b54f117639ca0e3045b96fce3aa1267cf3a4252345f9b5dc53f9f701e38a",
      "v": 28,
      "creates": null,
      "raw": "0xf86f82016c850ba43b740083015f9094b1abce2918e21ddb93aa452731a12672a3d9f75a884563918244f40000801ca00af8c82a0be095119659064c0fd374ae2d32889f831192d456326464111969e5a02440b54f117639ca0e3045b96fce3aa1267cf3a4252345f9b5dc53f9f701e38a",
      "networkId": 0,
      "chainId": 0
    }
  ]
}