{
  "hash": "0x01c967845f4003677b4b7b290a18d0f967cbfc3d946df49f6fe7c425f1aafcb8",
  "parentHash": "0x5d8e1a334240f348e2e9e8b14d243594d60f8542637739508d5eab9ef7c1040b",
  "number": 76401,
  "timestamp": 1439419957,
  "nonce": "0x1e32af51f0cfdd7e",
  "difficulty": 2222111062520,
  "gasLimit": {
    "_hex": "0x2fefd8"
  },
  "gasUsed": {
    "_hex": "0x2b1d4"
  },
  "miner": "0xe6A7a1d47ff21B6321162AEA7C6CB457D5476Bca",
  "extraData": "0x476574682f76312e302e312d38326566323666362f6c696e75782f676f312e34",
  "transactions": [
    {
      "hash": "0xfcf1c65096c705e7cee21cb0433dd5c2d769aaedc7b863ae0fa07265269a07b1",
      "blockHash": "0x01c967845f4003677b4b7b290a18d0f967cbfc3d946df49f6fe7c425f1aafcb8",
      "blockNumber": 76401,
      "transactionIndex": 0,
      "confirmations": null,
      "from": "0x84505745115a8C041C0c4A7F9d3Ca52a5bf375f4",
      "gasPrice": {
        "_hex": "0x1030d18d2a1"
      },
      "gasLimit": {
        "_hex": "0x493e0"
      },
      "to": "0x35E57F2b08596f1946ECD9D31975eC3c2D7e1C1D",
      "value": {
        "_hex": "0x0"
      },
      "nonce": 4,
      "data": "0x0bf945120000000000000000000000000000000000000000000000000000000000000001",
      "r": "0xbb714de0bb77219a545af764f16748e7c1a40629567cb35c65b8076594935991",
      "s": "0x4dd40573c61e5be10ca653f06abf5e88f4a2e0b434831f06f20a820d1d5da4f2",
      "v": 28,
      "creates": null,
      "raw": "0xf88a048601030d18d2a1830493e09435e57f2b08596f1946ecd9d31975ec3c2d7e1c1d80a40bf9451200000000000000000000000000000000000000000000000000000000000000011ca0bb714de0bb77219a545af764f16748e7c1a40629567cb35c65b8076594935991a04dd40573c61e5be10ca653f06abf5e88f4a2e0b434831f06f20a820d1d5da4f2",
      "networkId": 0,
      "chainId": 0
    },
    {
      "hash": "0xf7368cfeb8874701e16beebf43eccf63e27a4b7742174dae006489f9ff9169cb",
      "blockHash": "0x01c967845f4003677b4b7b290a18d0f967cbfc3d946df49f6fe7c425f1aafcb8",
      "blockNumber": 76401,
      "transactionIndex": 1,
      "confirmations": null,
      "from": "0x84505745115a8C041C0c4A7F9d3Ca52a5bf375f4",
      "gasPrice": {
        "_hex": "0x1030d18d2a1"
      },
      "gasLimit": {
        "_hex": "0x493e0"
      },
      "to": "0x35E57F2b08596f1946ECD9D31975eC3c2D7e1C1D",
      "value": {
        "_hex": "0x0"
      },
      "nonce": 5,
      "data": "0x0bf9451200000000000000000000000000000000000000000000000000000000000000bb",
      "r": "0x9168c77ad49ee3e860178bf165a968ec75168243baae80691bd8747c84794d52",
      "s": "0x52cca42a0e9d1e82cf13feff2921f0908a1789258869b7b487a69b3ae16e632c",
      "v": 27,
      "creates": null,
      "raw": "0xf88a058601030d18d2a1830493e09435e57f2b08596f1946ecd9d31975ec3c2d7e1c1d80a40bf9451200000000000000000000000000000000000000000000000000000000000000bb1ba09168c77ad49ee3e860178bf165a968ec75168243baae80691bd8747c84794d52a052cca42a0e9d1e82cf13feff2921f0908a1789258869b7b487a69b3ae16e632c",
      "networkId": 0,
      "chainId": 0
    },
    {
      "hash": "0xce9e83d087054a2094ec93907bc12ef0558013128dd028d22e95e8420e087e4d",
      "blockHash": "0x01c967845f4003677b4b7b290a18d0f967cbfc3d946df49f6fe7c425f1aafcb8",
      "blockNumber": 76401,
      "transactionIndex": 2,
      "confirmations": null,
      "from": "0x84505745115a8C041C0c4A7F9d3Ca52a5bf375f4",
      "gasPrice": {
        "_hex": "0x1030d18d2a1"
      },
      "gasLimit": {
        "_hex": "0x493e0"
      },
      "to": "0x35E57F2b08596f1946ECD9D31975eC3c2D7e1C1D",
      "value": {
        "_hex": "0x0"
      },
      "nonce": 6,
      "data": "0x0bf945120000000000000000000000000000000000000000000000000000000000007fff",
      "r": "0x904307d6f5f9ecc87b3e6caec5271f2293bffc42d93282d33172e6a008f350c0",
      "s": "0x3fa18969b961580a18e005326bd778bbae042855048dd4877ea5ae419b8bcaae",
      "v": 28,
      "creates": null,
      "raw": "0xf88a068601030d18d2a1830493e09435e57f2b08596f1946ecd9d31975ec3c2d7e1c1d80a40bf945120000000000000000000000000000000000000000000000000000000000007fff1ca0904307d6f5f9ecc87b3e6caec5271f2293bffc42d93282d33172e6a008f350c0a03fa18969b961580a18e005326bd778bbae042855048dd4877ea5ae419b8bcaae",
      "networkId": 0,
      "chainId": 0
    },
    {
      "hash": "0x0f132697f205d128cd961ad8f4bbe06da95f565346525043f5509a453e7210bc",
      "blockHash": "0x01c967845f4003677b4b7b290a18d0f967cbfc3d946df49f6fe7c425f1aafcb8",
      "blockNumber": 76401,
      "transactionIndex": 3,
      "confirmations": null,
      "from": "0x84505745115a8C041C0c4A7F9d3Ca52a5bf375f4",
      "gasPrice": {
        "_hex": "0x1030d18d2a1"
      },
      "gasLimit": {
        "_hex": "0x493e0"
      },
      "to": "0x35E57F2b08596f1946ECD9D31975eC3c2D7e1C1D",
      "value": {
        "_hex": "0x0"
      },
      "nonce": 7,
      "data": "0x0bf945120000000000000000000000000000000000000000000000000000000042f87d89",
      "r": "0x28bd897b162a14a686148469f2a8c4a49024aae968083d918c6b00cad55455be",
      "s": "0x6b7a8ed1b8fe688e01af8e895bded499f800dfb24a092730fbba9fa5914a33f9",
      "v": 27,
      "creates": null,
      "raw": "0xf88a078601030d18d2a1830493e09435e57f2b08596f1946ecd9d31975ec3c2d7e1c1d80a40bf945120000000000000000000000000000000000000000000000000000000042f87d891ba028bd897b162a14a686148469f2a8c4a49024aae968083d918c6b00cad55455bea06b7a8ed1b8fe688e01af8e895bded499f800dfb24a092730fbba9fa5914a33f9",
      "networkId": 0,
      "chainId": 0
    }
  ]
}