{
  "hash": "0xc63886ac38498341165e1c5548a891ab9ae5ae9e32cbd95eb1c189dc2de631cd",
  "parentHash": "0xccf06ae6091b30f1f852cbb21cf3b490faf000d05bd62515df3a1cbf71286f01",
  "number": 115313,
  "timestamp": 1440055046,
  "nonce": "0xc76d5d2d68fbcca0",
  "difficulty": 4556137877020,
  "gasLimit": {
    "_hex": "0x2fefd8"
  },
  "gasUsed": {
    "_hex": "0xa410"
  },
  "miner": "0x9D49F602b0fdb924Bd63DDE2Bd0907E4A07c63a7",
  "extraData": "0x476574682f76312e302e312f6c696e75782f676f312e342e32",
  "transactions": [
    {
      "hash": "0xfeb966d5c10f1b2cf4ea2a0937d1524369f73581b4012d8c5fc7bf52f6f6a272",
      "blockHash": "0xc63886ac38498341165e1c5548a891ab9ae5ae9e32cbd95eb1c189dc2de631cd",
      "blockNumber": 115313,
      "transactionIndex": 0,
      "confirmations": null,
      "from": "0xb4eb03c9bDD4944DE22085E8e1dB5Ebd36889Bd8",
      "gasPrice": {
        "_hex": "0xdcd786bb2"
      },
      "gasLimit": {
        "_hex": "0x5208"
      },
      "to": "0x32Be343B94f860124dC4fEe278FDCBD38C102D88",
      "value": {
        "_hex": "0x314f73d9baf00400"
      },
      "nonce": 10,
      "data": "0x",
      "r": "0xc95c83eacbb7c18768e58b553eefebc6b36b066e946d2698262eb339583f1822",
      "s": "0x21be3a55fc8ea539f8911b377ed71a1ea3207739dabbd48b0c7aaf7a23ff551d",
      "v": 28,
      "creates": null,
      "raw": "0xf86c0a850dcd786bb28252089432be343b94f860124dc4fee278fdcbd38c102d8888314f73d9baf00400801ca0c95c83eacbb7c18768e58b553eefebc6b36b066e946d2698262eb339583f1822a021be3a55fc8ea539f8911b377ed71a1ea3207739dabbd48b0c7aaf7a23ff551d",
      "networkId": 0,
      "chainId": 0
    },
    {
      "hash": "0x4bb37b37ad00150909d5a25d82ce76c94542f26acbdbb2661578f669edd9d6da",
      "blockHash": "0xc63886ac38498341165e1c5548a891ab9ae5ae9e32cbd95eb1c189dc2de631cd",
      "blockNumber": 115313,
      "transactionIndex": 1,
      "confirmations": null,
      "from": "0x702bD0d370bBf0B97B66FE95578c62697c583393",
      "gasPrice": {
        "_hex": "0xdcd786bb2"
      },
      "gasLimit": {
        "_hex": "0x5208"
      },
      "to": "0x32Be343B94f860124dC4fEe278FDCBD38C102D88",
      "value": {
        "_hex": "0x55a3500810d3fc00"
      },
      "nonce": 10,
      "data": "0x",
      "r": "0x24819e6c4a2baaaad090763c840c3ba8c8a394471a8cdb527db7757c28ee5670",
      "s": "0x198317bbe343c7d2ff1671513db2fbaec1b1796619485244148585e05d9bface",
      "v": 27,
      "creates": null,
      "raw": "0xf86c0a850dcd786bb28252089432be343b94f860124dc4fee278fdcbd38c102d888855a3500810d3fc00801ba024819e6c4a2baaaad090763c840c3ba8c8a394471a8cdb527db7757c28ee5670a0198317bbe343c7d2ff1671513db2fbaec1b1796619485244148585e05d9bface",
      "networkId": 0,
      "chainId": 0
    }
  ]
}