{
  "hash": "0xb4d1a67a9c0978ec90b964f21b6e9d919b59943c80f1270ed270ea11f7c0dc47",
  "parentHash": "0xea6f91c2606ecdfc9774348113a5701910a2dd7ab9d6d2490453a411ef4a9e7c",
  "number": 74170,
  "timestamp": 1439381570,
  "nonce": "0xe57871518f082352",
  "difficulty": 2230312249994,
  "gasLimit": {
    "_hex": "0x2fefd8"
  },
  "gasUsed": {
    "_hex": "0xf618"
  },
  "miner": "0x8B454d830feF179e66206840F8F3D1d83bC32b17",
  "extraData": "0x476574682f76312e302e312f77696e646f77732f676f312e342e32",
  "transactions": [
    {
      "hash": "0x8e9f00539c83eacfa7b5b56b1cc87ac3b37e46f7d8b75834be0b698e6f47f981",
      "blockHash": "0xb4d1a67a9c0978ec90b964f21b6e9d919b59943c80f1270ed270ea11f7c0dc47",
      "blockNumber": 74170,
      "transactionIndex": 0,
      "confirmations": null,
      "from": "0x120A270bbC009644e35F0bB6ab13f95b8199c4ad",
      "gasPrice": {
        "_hex": "0xd8607a5ac"
      },
      "gasLimit": {
        "_hex": "0x15f90"
      },
      "to": "0x0C834b0a01810533a5417Ee59c7bB6b5D3956A82",
      "value": {
        "_hex": "0x28764ea10849258c00"
      },
      "nonce": 268,
      "data": "0x",
      "r": "0x73763272162d4d91bbd50107e3f89bfe36c43a0941cd414ab1d38a19c493ef78",
      "s": "0x4d812e3f71b93ae444f4987f0378d928060531c3f3a804f9ffe668f68f28a29f",
      "v": 28,
      "creates": null,
      "raw": "0xf87082010c850d8607a5ac83015f90940c834b0a01810533a5417ee59c7bb6b5d3956a828928764ea10849258c00801ca073763272162d4d91bbd50107e3f89bfe36c43a0941cd414ab1d38a19c493ef78a04d812e3f71b93ae444f4987f0378d928060531c3f3a804f9ffe668f68f28a29f",
      "networkId": 0,
      "chainId": 0
    },
    {
      "hash": "0xf6bc62056ed09460ec63e307a1de84699dfbf1dcd8a934c9d60a38384229a8b7",
      "blockHash": "0xb4d1a67a9c0978ec90b964f21b6e9d919b59943c80f1270ed270ea11f7c0dc47",
      "blockNumber": 74170,
      "transactionIndex": 1,
      "confirmations": null,
      "from": "0x120A270bbC009644e35F0bB6ab13f95b8199c4ad",
      "gasPrice": {
        "_hex": "0xd8607a5ac"
      },
      "gasLimit": {
        "_hex": "0x15f90"
      },
      "to": "0x6baeC65168a4fBB94b9557C65Dfc7cef5c6fBb8a",
      "value": {
        "_hex": "0x27819e93fdc369cc00"
      },
      "nonce": 269,
      "data": "0x",
      "r": "0xa99916ae13b0cd558583942289583467a40df752bec1795b517e3cc639c03c63",
      "s": "0x2e52ab7e7aaa6c3f899f79076a07eec25045b9b821e2d1d8a38d2e6f2849cce3",
      "v": 27,
      "creates": null,
      "raw": "0xf87082010d850d8607a5ac83015f90946baec65168a4fbb94b9557c65dfc7cef5c6fbb8a8927819e93fdc369cc00801ba0a99916ae13b0cd558583942289583467a40df752bec1795b517e3cc639c03c63a02e52ab7e7aaa6c3f899f79076a07eec25045b9b821e2d1d8a38d2e6f2849cce3",
      "networkId": 0,
      "chainId": 0
    },
    {
      "hash": "0x53253fd0a49605b67168dfecd86c5cacbf557a9d700aa426a35bc5f099f3e5f9",
      "blockHash": "0xb4d1a67a9c0978ec90b964f21b6e9d919b59943c80f1270ed270ea11f7c0dc47",
      "blockNumber": 74170,
      "transactionIndex": 2,
      "confirmations": null,
      "from": "0x120A270bbC009644e35F0bB6ab13f95b8199c4ad",
      "gasPrice": {
        "_hex": "0xd8607a5ac"
      },
      "gasLimit": {
        "_hex": "0x15f90"
      },
      "to": "0x83816f103117f26a382c0ED30c21D0CF23f1D687",
      "value": {
        "_hex": "0x4965cb7a33619f400"
      },
      "nonce": 270,
      "data": "0x",
      "r": "0x2da893cfbc14ac9be32867ff3eab3e39b61efd42ef8301e5c07bcdf486575bb7",
      "s": "0x0edb5348908cfc52f10ee47101bb5ef9454264d2ef083e4abe5a665977716a28",
      "v": 27,
      "creates": null,
      "raw": "0xf87082010e850d8607a5ac83015f909483816f103117f26a382c0ed30c21d0cf23f1d6878904965cb7a33619f400801ba02da893cfbc14ac9be32867ff3eab3e39b61efd42ef8301e5c07bcdf486575bb7a00edb5348908cfc52f10ee47101bb5ef9454264d2ef083e4abe5a665977716a28",
      "networkId": 0,
      "chainId": 0
    }
  ]
}