{
  "hash": "0xe6e674697b2b7b6c098e425178363d2a2d84344c049bb47f655b88d32813c653",
  "parentHash": "0x89120a749518617498458c5f9b9de02d05c501182d6683d5ee8bd31b0532a86b",
  "number": 48317,
  "timestamp": 1438955351,
  "nonce": "0x7acd6647a05bce30",
  "difficulty": 1453640556462,
  "gasLimit": {
    "_hex": "0x1569a"
  },
  "gasUsed": {
    "_hex": "0xa674"
  },
  "miner": "0xbb7B8287f3F0a933474a79eAe42CBCa977791171",
  "extraData": "0x476574682f4c5649562f76312e302e312f6c696e75782f676f312e342e32",
  "transactions": [
    {
      "hash": "0xeadcf56de1184f6f0a305fdc452fe4e3b146967084d1e61794615192748cdbfe",
      "blockHash": "0xe6e674697b2b7b6c098e425178363d2a2d84344c049bb47f655b88d32813c653",
      "blockNumber": 48317,
      "transactionIndex": 0,
      "confirmations": null,
      "from": "0xfB3A0b0d6B6a718f6fc0292A825dC9247a90a5D0",
      "gasPrice": {
        "_hex": "0xf0f2bfd9a"
      },
      "gasLimit": {
        "_hex": "0x55f0"
      },
      "to": "0x2910543Af39abA0Cd09dBb2D50200b3E800A63D2",
      "value": {
        "_hex": "0xac9ae05a71ebc0000"
      },
      "nonce": 0,
      "data": "0x454e4d323354595a30",
      "r": "0xc3fc6572078e266e457defd8b13eb17c7a658de90b5388e32f47098291cdd330",
      "s": "0x270df9b6daf950e0db6fa7f4017d7686d805be73f5a4a94aa964d9e37909fc4c",
      "v": 27,
      "creates": null,
      "raw": "0xf87680850f0f2bfd9a8255f0942910543af39aba0cd09dbb2d50200b3e800a63d2890ac9ae05a71ebc000089454e4d323354595a301ba0c3fc6572078e266e457defd8b13eb17c7a658de90b5388e32f47098291cdd330a0270df9b6daf950e0db6fa7f4017d7686d805be73f5a4a94aa964d9e37909fc4c",
      "networkId": 0,
      "chainId": 0
    },
    {
      "hash": "0x437a059156627855c677a0004a4146fb8ffcbe969ebb84737224432d1fd88900",
      "blockHash": "0xe6e674697b2b7b6c098e425178363d2a2d84344c049bb47f655b88d32813c653",
      "blockNumber": 48317,
      "transactionIndex": 1,
      "confirmations": null,
      "from": "0x69b8bc60d27EC3b7526bC96385C0f5ad76cD534A",
      "gasPrice": {
        "_hex": "0xec92b96dc"
      },
      "gasLimit": {
        "_hex": "0x5208"
      },
      "to": "0x32Be343B94f860124dC4fEe278FDCBD38C102D88",
      "value": {
        "_hex": "0x456345b3d5cfa4000"
      },
      "nonce": 0,
      "data": "0x",
      "r": "0xa6400de4bbe742e89a634140f247c0aab0bd140aca72b9d74c3fa9449564bf95",
      "s": "0x6ed71ef17b64803756391bc1d8338b84014f3a781ecdd1bc930e340b32285189",
      "v": 28,
      "creates": null,
      "raw": "0xf86d80850ec92b96dc8252089432be343b94f860124dc4fee278fdcbd38c102d88890456345b3d5cfa4000801ca0a6400de4bbe742e89a634140f247c0aab0bd140aca72b9d74c3fa9449564bf95a06ed71ef17b64803756391bc1d8338b84014f3a781ecdd1bc930e340b32285189",
      "networkId": 0,
      "chainId": 0
    }
  ]
}