{
  "hash": "0x44fa34a137d786213095339fc5eae4898ad0003bbc331d1ff86cdc189d29662e",
  "parentHash": "0xdaf5c2817e39434c256fd3e34be6df146c5e788d72ae27d77663860414c0b239",
  "number": 79549,
  "timestamp": 1439471497,
  "nonce": "0x05544605a0897788",
  "difficulty": 2339273050187,
  "gasLimit": {
    "_hex": "0x2fefd8"
  },
  "gasUsed": {
    "_hex": "0x5208"
  },
  "miner": "0x3FF679B0823a026F2378E5f5F22A6F127cC85828",
  "extraData": "0x",
  "transactions": [
    {
      "hash": "0xf412306dfeec0870df57f8a18c750dbcb1f4f15f9f3b26f2c0c38b92a6050ff9",
      "blockHash": "0x44fa34a137d786213095339fc5eae4898ad0003bbc331d1ff86cdc189d29662e",
      "blockNumber": 79549,
      "transactionIndex": 0,
      "confirmations": null,
      "from": "0x65B3d2B5Ae9509D36126cd6db6BF5950C5A6F2FE",
      "gasPrice": {
        "_hex": "0xcd8d84680"
      },
      "gasLimit": {
        "_hex": "0x5208"
      },
      "to": "0x32Be343B94f860124dC4fEe278FDCBD38C102D88",
      "value": {
        "_hex": "0x15f1ccc2845a800"
      },
      "nonce": 1,
      "data": "0x",
      "r": "0xc1b7ee6b4b29a1401dd281cc02c458a00e5d6b0704cbe85b0d458d900dfe52b8",
      "s": "0x70197540780631cfbe54442d64fa2b1b9a3e4e987f146ae4224eaec2becd48ba",
      "v": 28,
      "creates": null,
      "raw": "0xf86c01850cd8d846808252089432be343b94f860124dc4fee278fdcbd38c102d8888015f1ccc2845a800801ca0c1b7ee6b4b29a1401dd281cc02c458a00e5d6b0704cbe85b0d458d900dfe52b8a070197540780631cfbe54442d64fa2b1b9a3e4e987f146ae4224eaec2becd48ba",
      "networkId": 0,
      "chainId": 0
    }
  ]
}