{
  "hash": "0x4fee47402f12fde7cdead5100867c5d43a4f1f5a843c6823bb67380678df603a",
  "parentHash": "0xa4ba21968858573d79aff7ae3ba96a34e6e2c86f43a7a0f17c862f1ce2ab4ce5",
  "number": 106597,
  "timestamp": 1439907182,
  "nonce": "0x2ffa368b83c7d9c8",
  "difficulty": 4477028956976,
  "gasLimit": {
    "_hex": "0x2fefd8"
  },
  "gasUsed": {
    "_hex": "0x5208"
  },
  "miner": "0xF11940EA05aA9CC3F13aCF5C5cA6EDCF312E3Aec",
  "extraData": "0x476574682f76312e302e312f77696e646f77732f676f312e342e32",
  "transactions": [
    {
      "hash": "0x7d594d531074aba965d98c5ce74ab44636e795faa08d17ffc3f1f1b0309a45f7",
      "blockHash": "0x4fee47402f12fde7cdead5100867c5d43a4f1f5a843c6823bb67380678df603a",
      "blockNumber": 106597,
      "transactionIndex": 0,
      "confirmations": null,
      "from": "0xC603Ab5ef41fC61AA8b76bEddb09e3Cfcbb174BD",
      "gasPrice": {
        "_hex": "0xd4a62fa4c"
      },
      "gasLimit": {
        "_hex": "0x15f90"
      },
      "to": "0x8F79f76381Aad7B98C19aF55eE75fdfEeb012211",
      "value": {
        "_hex": "0x340aad21b3b700000"
      },
      "nonce": 38,
      "data": "0x",
      "r": "0xded410de0e905c8e8a1d28b25b3cabb77cf427145cf1f464a3b556fa652cbde2",
      "s": "0x3602c47884d48bfb5a10e9929ff6266f4a6d2cd4f6e0aa7d8afce1b68d23e078",
      "v": 27,
      "creates": null,
      "raw": "0xf86e26850d4a62fa4c83015f90948f79f76381aad7b98c19af55ee75fdfeeb012211890340aad21b3b700000801ba0ded410de0e905c8e8a1d28b25b3cabb77cf427145cf1f464a3b556fa652cbde2a03602c47884d48bfb5a10e9929ff6266f4a6d2cd4f6e0aa7d8afce1b68d23e078",
      "networkId": 0,
      "chainId": 0
    }
  ]
}