{
  "hash": "0x2f57c43d785f2967511fbcca082f9598105e8055621486f0eb980cac325b1178",
  "parentHash": "0xdb7852817ec0ee186a87ba3e977ce37a500dd4afec44ee4b53e6c7b6dff044e1",
  "number": 104645,
  "timestamp": 1439873001,
  "nonce": "0x895f54158d51c377",
  "difficulty": 4382888434757,
  "gasLimit": {
    "_hex": "0x2fefd8"
  },
  "gasUsed": {
    "_hex": "0x5208"
  },
  "miner": "0xe6A7a1d47ff21B6321162AEA7C6CB457D5476Bca",
  "extraData": "0x476574682f76312e302e312d38326566323666362f6c696e75782f676f312e34",
  "transactions": [
    {
      "hash": "0xfb19c240bc39f27514e79df3fb59c88bc6cea9776d9f22dab85790c48849faf9",
      "blockHash": "0x2f57c43d785f2967511fbcca082f9598105e8055621486f0eb980cac325b1178",
      "blockNumber": 104645,
      "transactionIndex": 0,
      "confirmations": null,
      "from": "0x32Be343B94f860124dC4fEe278FDCBD38C102D88",
      "gasPrice": {
        "_hex": "0xcbc0402a7"
      },
      "gasLimit": {
        "_hex": "0x5208"
      },
      "to": "0x3f6da2f18Ce077B065ac7bcae884bF439a222B35",
      "value": {
        "_hex": "0x4563918244f400000"
      },
      "nonce": 1154,
      "data": "0x",
      "r": "0x4d79e41cdd378ad9b061f286c56ac452ae1097ee4ea5c39c668bde4682124d20",
      "s": "0x47626b530063a1a9ae702fad2124811578d5f8e6d890d4c44dfd0cba8f19cb56",
      "v": 28,
      "creates": null,
      "raw": "0xf86f820482850cbc0402a7825208943f6da2f18ce077b065ac7bcae884bf439a222b358904563918244f400000801ca04d79e41cdd378ad9b061f286c56ac452ae1097ee4ea5c39c668bde4682124d20a047626b530063a1a9ae702fad2124811578d5f8e6d890d4c44dfd0cba8f19cb56",
      "networkId": 0,
      "chainId": 0
    }
  ]
}