{
  "hash": "0x690324d79568706aa0b4bddc638680d93676e4a4e92698c82f879883b858f64f",
  "parentHash": "0x120fc4432f23c6f777998b5fed7f856cacb302e268dac135ce7fed4fb16b7b69",
  "number": 68891,
  "timestamp": 1439295228,
  "nonce": "0xbed8fb9deb1d9eac",
  "difficulty": 2027045856692,
  "gasLimit": {
    "_hex": "0x2fefd8"
  },
  "gasUsed": {
    "_hex": "0x5208"
  },
  "miner": "0xf927a40C8B7F6E07c5af7FA2155B4864a4112B13",
  "extraData": "0x",
  "transactions": [
    {
      "hash": "0x6e81664ff8d525bdb2b26f4454ccfb20d720223402ac97630013c6cf1a978644",
      "blockHash": "0x690324d79568706aa0b4bddc638680d93676e4a4e92698c82f879883b858f64f",
      "blockNumber": 68891,
      "transactionIndex": 0,
      "confirmations": null,
      "from": "0x6747f922385c9a6F9cfDf095F34345257DD597bE",
      "gasPrice": {
        "_hex": "0xba43b7400"
      },
      "gasLimit": {
        "_hex": "0x5208"
      },
      "to": "0x8f8FD7F53A123d94F4b585616B705bBD85d21626",
      "value": {
        "_hex": "0x1fcbfa42bd6000"
      },
      "nonce": 148,
      "data": "0x",
      "r": "0x107f053050043f102d48487fe912c091fa5a54a96c00fade7b800fa228c4a130",
      "s": "0x713af0cb3fca4ee57eae6a8100648421c1d0815b92accf4d0341010554e64e04",
      "v": 27,
      "creates": null,
      "raw": "0xf86c8194850ba43b7400825208948f8fd7f53a123d94f4b585616b705bbd85d21626871fcbfa42bd6000801ba0107f053050043f102d48487fe912c091fa5a54a96c00fade7b800fa228c4a130a0713af0cb3fca4ee57eae6a8100648421c1d0815b92accf4d0341010554e64e04",
      "networkId": 0,
      "chainId": 0
    }
  ]
}