{
  "hash": "0x9651acbc8dc19863b5f728d067b11498d4dd249f51d5fa0866d06f4a4379f14c",
  "parentHash": "0x477a89eb3e1668716826c0c7978e98d7a2345611674b7153bb0f2c276e55be64",
  "number": 46734,
  "timestamp": 1438928283,
  "nonce": "0xc9a6500a1f078413",
  "difficulty": 1454624989220,
  "gasLimit": {
    "_hex": "0x7549"
  },
  "gasUsed": {
    "_hex": "0x5208"
  },
  "miner": "0x1217627fe41A00f0b828317F43E6d58F47dBfc43",
  "extraData": "0x476574682f76312e302e302d66313265303136312f6c696e75782f676f312e34",
  "transactions": [
    {
      "hash": "0xfd88138fe718abb497fffaf8e4fea144a87b8189be8b9d82ff7f9da56065648e",
      "blockHash": "0x9651acbc8dc19863b5f728d067b11498d4dd249f51d5fa0866d06f4a4379f14c",
      "blockNumber": 46734,
      "transactionIndex": 0,
      "confirmations": null,
      "from": "0x439632734cdF5a84774156c1938CbeDe2eF398F0",
      "gasPrice": {
        "_hex": "0xd9f43c16a"
      },
      "gasLimit": {
        "_hex": "0x5208"
      },
      "to": "0x32Be343B94f860124dC4fEe278FDCBD38C102D88",
      "value": {
        "_hex": "0x455f34113a324000"
      },
      "nonce": 0,
      "data": "0x",
      "r": "0x210b4bafa49753f59630dc2e8b237037c8b94beec9fc8321a14c04da62eec162",
      "s": "0x52f1244e58ffe7295ae804a29c874c718cde7ed9dc350483a788f6627952d2c5",
      "v": 27,
      "creates": null,
      "raw": "0xf86c80850d9f43c16a8252089432be343b94f860124dc4fee278fdcbd38c102d8888455f34113a324000801ba0210b4bafa49753f59630dc2e8b237037c8b94beec9fc8321a14c04da62eec162a052f1244e58ffe7295ae804a29c874c718cde7ed9dc350483a788f6627952d2c5",
      "networkId": 0,
      "chainId": 0
    }
  ]
}