{
  "hash": "0x439c9a7d8acc546cff32cfd1979000029f9a27cb4303846329bdb1b4a9cf7f82",
  "parentHash": "0xef9d2fae4406300d410c4169bd7b3d7c4859ecc254917ebe84c8a5696d28443c",
  "number": 115995,
  "timestamp": 1440066636,
  "nonce": "0x61346162dec7cc16",
  "difficulty": 4587017107439,
  "gasLimit": {
    "_hex": "0x2fefd8"
  },
  "gasUsed": {
    "_hex": "0x5208"
  },
  "miner": "0xe6A7a1d47ff21B6321162AEA7C6CB457D5476Bca",
  "extraData": "0x476574682f76312e302e312d38326566323666362f6c696e75782f676f312e34",
  "transactions": [
    {
      "hash": "0x134ebf03deb95059a7b533051f6909400879464053ae934668c08e95c4fe3d37",
      "blockHash": "0x439c9a7d8acc546cff32cfd1979000029f9a27cb4303846329bdb1b4a9cf7f82",
      "blockNumber": 115995,
      "transactionIndex": 0,
      "confirmations": null,
      "from": "0xC47Aaa860008be6f65B58c6C6E02a84e666EfE31",
      "gasPrice": {
        "_hex": "0xd5e671268"
      },
      "gasLimit": {
        "_hex": "0x15f90"
      },
      "to": "0x3aFca45be577815985f0d83E5E4C738F45804Fec",
      "value": {
        "_hex": "0xde0b6b3a7640000"
      },
      "nonce": 112,
      "data": "0x",
      "r": "0x34ec6483d8d8c7517a7037ccd01d4036422957583e571deb4a91863b94ce7c48",
      "s": "0x487a69a120e47ad2fb6961a78fa4d2022ee3ab0fd59cabe221258a947240ce4c",
      "v": 27,
      "creates": null,
      "raw": "0xf86d70850d5e67126883015f90943afca45be577815985f0d83e5e4c738f45804fec880de0b6b3a7640000801ba034ec6483d8d8c7517a7037ccd01d4036422957583e571deb4a91863b94ce7c48a0487a69a120e47ad2fb6961a78fa4d2022ee3ab0fd59cabe221258a947240ce4c",
      "networkId": 0,
      "chainId": 0
    }
  ]
}