{
  "hash": "0x543541b1483ed16fdb5495b568ec6a305351485fba4138ec8100a713a3e657fa",
  "parentHash": "0xa8e5e95eefa0e5a130558bbcd70cc060cbce6784e479d9a59df1e7630a52efb8",
  "number": 53385,
  "timestamp": 1439036738,
  "nonce": "0x4a65e9d61a3ed4fe",
  "difficulty": 1592434325764,
  "gasLimit": {
    "_hex": "0x268863"
  },
  "gasUsed": {
    "_hex": "0x546c"
  },
  "miner": "0xbb7B8287f3F0a933474a79eAe42CBCa977791171",
  "extraData": "0x476574682f4c5649562f76312e302e312f6c696e75782f676f312e342e32",
  "transactions": [
    {
      "hash": "0xd19a386f2ffdd99a1f0374a77653e8971a88b0bb36e07b5cdac135c437d0fee5",
      "blockHash": "0x543541b1483ed16fdb5495b568ec6a305351485fba4138ec8100a713a3e657fa",
      "blockNumber": 53385,
      "transactionIndex": 0,
      "confirmations": null,
      "from": "0xDe7DeE220F0457a7187d56C1C41F2Eb00aC56021",
      "gasPrice": {
        "_hex": "0x110c8f7d8de"
      },
      "gasLimit": {
        "_hex": "0xc350"
      },
      "to": "0x2910543Af39abA0Cd09dBb2D50200b3E800A63D2",
      "value": {
        "_hex": "0x221920e76a48b40000"
      },
      "nonce": 0,
      "data": "0x454e45485031584747",
      "r": "0x060000ddd760950363dc779b44fe5f42db40f9d33eba7e64cf713ba85335a305",
      "s": "0xb3649610674e78924af99988e0701e7cd56e0399e4081ca6e9e3b3efabfdb520",
      "v": 28,
      "creates": null,
      "raw": "0xf87780860110c8f7d8de82c350942910543af39aba0cd09dbb2d50200b3e800a63d289221920e76a48b4000089454e454850315847471ca0060000ddd760950363dc779b44fe5f42db40f9d33eba7e64cf713ba85335a305a0b3649610674e78924af99988e0701e7cd56e0399e4081ca6e9e3b3efabfdb520",
      "networkId": 0,
      "chainId": 0
    }
  ]
}