{
  "hash": "0xc47f1fcc3e7988a90dbae4765a201408adb16a40599d9d37be3cc694a0dccad8",
  "parentHash": "0xda5ecca8948ed01987f44f3e499153fac5adf0b4cd32b1af9596fce3b5d18a5f",
  "number": 120134,
  "timestamp": 1440154610,
  "nonce": "0x1f8fcc9f1de4b6c8",
  "difficulty": 4398363888771,
  "gasLimit": {
    "_hex": "0x2fefd8"
  },
  "gasUsed": {
    "_hex": "0xf618"
  },
  "miner": "0x76d4a9bc9612bE738A81d0fE632b00B971E2bB9a",
  "extraData": "0xd983010002844765746887676f312e342e328777696e646f7773",
  "transactions": [
    {
      "hash": "0xa9d903f4526cf96a27c597bf56ea24d0c63e72b6de1f5730d7af0b5713379312",
      "blockHash": "0xc47f1fcc3e7988a90dbae4765a201408adb16a40599d9d37be3cc694a0dccad8",
      "blockNumber": 120134,
      "transactionIndex": 0,
      "confirmations": null,
      "from": "0x4D67f4F0Db45b3B5a3424B39ed8d972F710381D5",
      "gasPrice": {
        "_hex": "0xba43b7400"
      },
      "gasLimit": {
        "_hex": "0x5208"
      },
      "to": "0x32Be343B94f860124dC4fEe278FDCBD38C102D88",
      "value": {
        "_hex": "0x307c0f6dc13526000"
      },
      "nonce": 58,
      "data": "0x",
      "r": "0x28dcbf9354be628fa73511c781c797fb1ad9ec31f35cd641ff3519ec3c571edb",
      "s": "0x44cc38daa4985a2fa8db27dbd7192c63d9bfda680a4f6847c9a964c924b5a2fa",
      "v": 27,
      "creates": null,
      "raw": "0xf86d3a850ba43b74008252089432be343b94f860124dc4fee278fdcbd38c102d88890307c0f6dc13526000801ba028dcbf9354be628fa73511c781c797fb1ad9ec31f35cd641ff3519ec3c571edba044cc38daa4985a2fa8db27dbd7192c63d9bfda680a4f6847c9a964c924b5a2fa",
      "networkId": 0,
      "chainId": 0
    },
    {
      "hash": "0x4bc74ef5a6028702182220217316eaa752f44ae5af1633de1efaf16b8bed036a",
      "blockHash": "0xc47f1fcc3e7988a90dbae4765a201408adb16a40599d9d37be3cc694a0dccad8",
      "blockNumber": 120134,
      "transactionIndex": 1,
      "confirmations": null,
      "from": "0x0cA19A53a3256482A89770FC1daFC7630717F201",
      "gasPrice": {
        "_hex": "0xba43b7400"
      },
      "gasLimit": {
        "_hex": "0x5208"
      },
      "to": "0x32Be343B94f860124dC4fEe278FDCBD38C102D88",
      "value": {
        "_hex": "0x28ecc6669a636000"
      },
      "nonce": 20,
      "data": "0x",
      "r": "0x46efa72f16a90eba72f7c05f80e2979c328a28fca709d10d986182d2714f6ccc",
      "s": "0x6fc5428a3460cce88fd635f39e2c7690f4becf3273d5ad2dfc0275ff76c78aa1",
      "v": 27,
      "creates": null,
      "raw": "0xf86c14850ba43b74008252089432be343b94f860124dc4fee278fdcbd38c102d888828ecc6669a636000801ba046efa72f16a90eba72f7c05f80e2979c328a28fca709d10d986182d2714f6ccca06fc5428a3460cce88fd635f39e2c7690f4becf3273d5ad2dfc0275ff76c78aa1",
      "networkId": 0,
      "chainId": 0
    },
    {
      "hash": "0x3eb7d1f34e77e2befb4b8cb4569328cd0799d0f92177de30469d1dafbe973299",
      "blockHash": "0xc47f1fcc3e7988a90dbae4765a201408adb16a40599d9d37be3cc694a0dccad8",
      "blockNumber": 120134,
      "transactionIndex": 2,
      "confirmations": null,
      "from": "0x608f4b86321a68453f9adf6F06F7Fc3E621739ad",
      "gasPrice": {
        "_hex": "0xba43b7400"
      },
      "gasLimit": {
        "_hex": "0x5208"
      },
      "to": "0x32Be343B94f860124dC4fEe278FDCBD38C102D88",
      "value": {
        "_hex": "0x455fd68a17f06000"
      },
      "nonce": 56,
      "data": "0x",
      "r": "0x327b71478220fcfeee4a75aabbde4b28c1f18303b02273f4fc65081c9a4db2bb",
      "s": "0x01f0be111923beb24ef94363989e76873a9f71c602f03f09733475fc9b0996a3",
      "v": 27,
      "creates": null,
      "raw": "0xf86c38850ba43b74008252089432be343b94f860124dc4fee278fdcbd38c102d8888455fd68a17f06000801ba0327b71478220fcfeee4a75aabbde4b28c1f18303b02273f4fc65081c9a4db2bba001f0be111923beb24ef94363989e76873a9f71c602f03f09733475fc9b0996a3",
      "networkId": 0,
      "chainId": 0
    }
  ]
}