{
  "hash": "0xf33563a0107443e1e573237949cff33a19829941d99b7bd221411cd95cba4f68",
  "parentHash": "0xd6942eae96471f8ae975a42b0551ab898726ae85795d5935e44ef08c2adfb8fb",
  "number": 48492,
  "timestamp": 1438958016,
  "nonce": "0x395cd557c2ef467c",
  "difficulty": 1462866597308,
  "gasLimit": {
    "_hex": "0x181b1"
  },
  "gasUsed": {
    "_hex": "0x5208"
  },
  "miner": "0x9746c7e1ef2bd21FF3997fa467593a89cb852BD0",
  "extraData": "0x476574682f76312e302e312f77696e646f77732f676f312e342e32",
  "transactions": [
    {
      "hash": "0x157068cac715dfca9120bb704e77c00bfa8c4b2f28eb5399687feebdafdd151d",
      "blockHash": "0xf33563a0107443e1e573237949cff33a19829941d99b7bd221411cd95cba4f68",
      "blockNumber": 48492,
      "transactionIndex": 0,
      "confirmations": null,
      "from": "0xaEA7Dd890b77a6DeD1086BF512f2D635E7DA10E6",
      "gasPrice": {
        "_hex": "0x746a528800"
      },
      "gasLimit": {
        "_hex": "0x5b04"
      },
      "to": "0x0000000000000000000000000000000000000000",
      "value": {
        "_hex": "0x3e8"
      },
      "nonce": 1,
      "data": "0x",
      "r": "0x4692cf11ceffc66e0e36129341d80103a77137b782e5fb36d96595844cb49625",
      "s": "0x84cbbc52401e1af29311d45734230ea38da861037c092b391f783332d97e1db8",
      "v": 27,
      "creates": null,
      "raw": "0xf8660185746a528800825b049400000000000000000000000000000000000000008203e8801ba04692cf11ceffc66e0e36129341d80103a77137b782e5fb36d96595844cb49625a084cbbc52401e1af29311d45734230ea38da861037c092b391f783332d97e1db8",
      "networkId": 0,
      "chainId": 0
    }
  ]
}