{
  "hash": "0xe9278d41ab854c212512f4f4822e52a4ccad021e23c2d064ab63a3e2e09b5eb4",
  "parentHash": "0x7cebded63557a5c0e6b1153515988b299ed25e36ad6b625018738c1c2a677596",
  "number": 82955,
  "timestamp": 1439527605,
  "nonce": "0x9862d0bad53cd74a",
  "difficulty": 2410194939029,
  "gasLimit": {
    "_hex": "0x2fefd8"
  },
  "gasUsed": {
    "_hex": "0x5208"
  },
  "miner": "0xbb7B8287f3F0a933474a79eAe42CBCa977791171",
  "extraData": "0x476574682f4c5649562f76312e302e312f6c696e75782f676f312e342e32",
  "transactions": [
    {
      "hash": "0x6e20e14e2e8be2f4f7114b1f21f1c88d27dcd04443edb74db855c8eba64640ba",
      "blockHash": "0xe9278d41ab854c212512f4f4822e52a4ccad021e23c2d064ab63a3e2e09b5eb4",
      "blockNumber": 82955,
      "transactionIndex": 0,
      "confirmations": null,
      "from": "0xB7268c7705A1866b2A78e882fdfDc8E2a4e1428E",
      "gasPrice": {
        "_hex": "0xd4dfa5aef"
      },
      "gasLimit": {
        "_hex": "0x15f90"
      },
      "to": "0x96811Ad897894eC178872117C8BF2f03971A393B",
      "value": {
        "_hex": "0x4563918244f40000"
      },
      "nonce": 24,
      "data": "0x",
      "r": "0xd3d02997916689cb99dfa9741cff1058e82716ae41a989988277bda839c12e41",
      "s": "0x22464d6a94061be9d3b35b02d90bbcf37ea1a51bd02ab9d1fdda2bcf39715e95",
      "v": 28,
      "creates": null,
      "raw": "0xf86d18850d4dfa5aef83015f909496811ad897894ec178872117c8bf2f03971a393b884563918244f40000801ca0d3d02997916689cb99dfa9741cff1058e82716ae41a989988277bda839c12e41a022464d6a94061be9d3b35b02d90bbcf37ea1a51bd02ab9d1fdda2bcf39715e95",
      "networkId": 0,
      "chainId": 0
    }
  ]
}