{
  "hash": "0x075cd023c7a431861a5556db87e69b407318b52f7aabd7faf210542d6ae2ed24",
  "parentHash": "0x03ee04e7cdc0dd9b04de666319dd722f1bdf9f65d5dfd3593b34f84076d0200e",
  "number": 86112,
  "timestamp": 1439573544,
  "nonce": "0xfdd8a7277a08289b",
  "difficulty": 2812620065334,
  "gasLimit": {
    "_hex": "0x2fefd8"
  },
  "gasUsed": {
    "_hex": "0xf618"
  },
  "miner": "0xC5624D986419AeBa6B6A7Ce5BAFd9883f75d8bc8",
  "extraData": "0x",
  "transactions": [
    {
      "hash": "0x8cb650c5817275312a85725705b7a47ede2e5c04191febdfff489e832044cf02",
      "blockHash": "0x075cd023c7a431861a5556db87e69b407318b52f7aabd7faf210542d6ae2ed24",
      "blockNumber": 86112,
      "transactionIndex": 0,
      "confirmations": null,
      "from": "0x5D872b122E994EF27C71d7DeB457bf65429eca6C",
      "gasPrice": {
        "_hex": "0x104a5eb9b87"
      },
      "gasLimit": {
        "_hex": "0x15f90"
      },
      "to": "0xAaE8DCB1d3D159A0D2439c8e0e2F73812320c79d",
      "value": {
        "_hex": "0xde0b6b3a7640000"
      },
      "nonce": 4,
      "data": "0x",
      "r": "0x25ed5457c762c14ed267426bf62b790eea0ca320c059a5115f80add7ef33adde",
      "s": "0x55bbcb03ba946714f8a1fa7f1e3cd4bd3932482bdb22c04c6815c96730bc3d44",
      "v": 28,
      "creates": null,
      "raw": "0xf86e04860104a5eb9b8783015f9094aae8dcb1d3d159a0d2439c8e0e2f73812320c79d880de0b6b3a7640000801ca025ed5457c762c14ed267426bf62b790eea0ca320c059a5115f80add7ef33addea055bbcb03ba946714f8a1fa7f1e3cd4bd3932482bdb22c04c6815c96730bc3d44",
      "networkId": 0,
      "chainId": 0
    },
    {
      "hash": "0x6a35dc7a3c0cc87fa707baa967fabc9a8c7d1827813d23797cf16ef02735e2e3",
      "blockHash": "0x075cd023c7a431861a5556db87e69b407318b52f7aabd7faf210542d6ae2ed24",
      "blockNumber": 86112,
      "transactionIndex": 1,
      "confirmations": null,
      "from": "0x2910543Af39abA0Cd09dBb2D50200b3E800A63D2",
      "gasPrice": {
        "_hex": "0xdcc936183"
      },
      "gasLimit": {
        "_hex": "0x5208"
      },
      "to": "0x1f2D29a8eE20E49937af84CE1932510e7cF677c7",
      "value": {
        "_hex": "0x9c1eeb2d87a6f8000"
      },
      "nonce": 643,
      "data": "0x",
      "r": "0x3561090ccbd567b4e7f823d088d8a9ebb7492bdd28dcd3a1634134dac8b2fbbd",
      "s": "0x42f25329b5a9324360ef878296f808c55296082666633541ed58238482dde790",
      "v": 27,
      "creates": null,
      "raw": "0xf86f820283850dcc936183825208941f2d29a8ee20e49937af84ce1932510e7cf677c78909c1eeb2d87a6f8000801ba03561090ccbd567b4e7f823d088d8a9ebb7492bdd28dcd3a1634134dac8b2fbbda042f25329b5a9324360ef878296f808c55296082666633541ed58238482dde790",
      "networkId": 0,
      "chainId": 0
    },
    {
      "hash": "0x49765a0a770f1c9c40cb0dc928c85f9ea7b7f5e437c4cd9feed7d37c99c6e79e",
      "blockHash": "0x075cd023c7a431861a5556db87e69b407318b52f7aabd7faf210542d6ae2ed24",
      "blockNumber": 86112,
      "transactionIndex": 2,
      "confirmations": null,
      "from": "0x2910543Af39abA0Cd09dBb2D50200b3E800A63D2",
      "gasPrice": {
        "_hex": "0xdcc936183"
      },
      "gasLimit": {
        "_hex": "0x5208"
      },
      "to": "0x2be0891637A46bd64D778d489c9B277c0Cb624eB",
      "value": {
        "_hex": "0x6de97e09bd18000"
      },
      "nonce": 644,
      "data": "0x",
      "r": "0x51c92db7cde66a3df3d64e4d756f2471fd4557342c894207e90a0ad21157bcd3",
      "s": "0x07242deb53240f9bbdbc72978029b4ab857bcf91aac8a960f202f208fb2ad27b",
      "v": 28,
      "creates": null,
      "raw": "0xf86e820284850dcc936183825208942be0891637a46bd64d778d489c9b277c0cb624eb8806de97e09bd18000801ca051c92db7cde66a3df3d64e4d756f2471fd4557342c894207e90a0ad21157bcd3a007242deb53240f9bbdbc72978029b4ab857bcf91aac8a960f202f208fb2ad27b",
      "networkId": 0,
      "chainId": 0
    }
  ]
}