{
  "hash": "0xd11db1bd4ac11d4fc68879928b88fb862a7cff1b62ff4f64d6751a7537d47e11",
  "parentHash": "0x6cb7491821ef4203455d949de4e5118b1346053b1531dcb6eaa849299dd6ae36",
  "number": 52535,
  "timestamp": 1439023181,
  "nonce": "0x78681fcbbdb519f2",
  "difficulty": 1564845456731,
  "gasLimit": {
    "_hex": "0x151216"
  },
  "gasUsed": {
    "_hex": "0xf4240"
  },
  "miner": "0x8E61bF5A2e46D15774172781Cf100ED0962cBb63",
  "extraData": "0x476574682f76312e302e312d37666266393930632f6c696e75782f676f312e34",
  "transactions": [
    {
      "hash": "0x8c789444b8dcd095932c074115e90fcd879f7cbd41acf3a676d14476d7900fb1",
      "blockHash": "0xd11db1bd4ac11d4fc68879928b88fb862a7cff1b62ff4f64d6751a7537d47e11",
      "blockNumber": 52535,
      "transactionIndex": 0,
      "confirmations": null,
      "from": "0x54dAeb3E8a6BBC797E4aD2b0339f134b186e4637",
      "gasPrice": {
        "_hex": "0xe7d27df17"
      },
      "gasLimit": {
        "_hex": "0x7a120"
      },
      "to": "0xBAA54d6E90c3F4d7Ebec11bD180134C7eD8eBb52",
      "value": {
        "_hex": "0x16345785d8a0000"
      },
      "nonce": 681,
      "data": "0x",
      "r": "0x6411f418b25000732a576a756067e30c98d2162cb4c9d0b2ad2e59930662f54d",
      "s": "0x7cb9557f1dbb4c87c7d320c70cb37649361d58d5e23161b648f47bb117e0c045",
      "v": 28,
      "creates": null,
      "raw": "0xf86f8202a9850e7d27df178307a12094baa54d6e90c3f4d7ebec11bd180134c7ed8ebb5288016345785d8a0000801ca06411f418b25000732a576a756067e30c98d2162cb4c9d0b2ad2e59930662f54da07cb9557f1dbb4c87c7d320c70cb37649361d58d5e23161b648f47bb117e0c045",
      "networkId": 0,
      "chainId": 0
    },
    {
      "hash": "0x3cb304767f418816c14f071ea0b4f5b4c7f3ee55ee2ed3913dbfb2fa03e37d10",
      "blockHash": "0xd11db1bd4ac11d4fc68879928b88fb862a7cff1b62ff4f64d6751a7537d47e11",
      "blockNumber": 52535,
      "transactionIndex": 1,
      "confirmations": null,
      "from": "0x54dAeb3E8a6BBC797E4aD2b0339f134b186e4637",
      "gasPrice": {
        "_hex": "0xe7d27df17"
      },
      "gasLimit": {
        "_hex": "0x7a120"
      },
      "to": "0xBAA54d6E90c3F4d7Ebec11bD180134C7eD8eBb52",
      "value": {
        "_hex": "0x16345785d8a0000"
      },
      "nonce": 682,
      "data": "0x",
      "r": "0xc0a67ca2813417f025eb4d4f48bc8825a4e503c0e0bed3a5f150805a6b40a206",
      "s": "0x335c72e8d4e3b04df787519bb354c087e949a7a022cebf464aaded88008da834",
      "v": 28,
      "creates": null,
      "raw": "0xf86f8202aa850e7d27df178307a12094baa54d6e90c3f4d7ebec11bd180134c7ed8ebb5288016345785d8a0000801ca0c0a67ca2813417f025eb4d4f48bc8825a4e503c0e0bed3a5f150805a6b40a206a0335c72e8d4e3b04df787519bb354c087e949a7a022cebf464aaded88008da834",
      "networkId": 0,
      "chainId": 0
    }
  ]
}