{
  "hash": "0x7f0be12cfb730fe9af59a5038ba0a428c4659ea49e0dc86a7f51f9d3a6796e03",
  "parentHash": "0xdace879007217e25e52b8ae9a1ba36ff4014b510b4e330353cbcf44b88711861",
  "number": 83452,
  "timestamp": 1439535540,
  "nonce": "0xe6eb71135f74f42d",
  "difficulty": 2437270716418,
  "gasLimit": {
    "_hex": "0x2fefd8"
  },
  "gasUsed": {
    "_hex": "0x5208"
  },
  "miner": "0xeB1325C8D9d3ea8D74aC11F4B00F1B2367686319",
  "extraData": "0x476574682f76312e302e312f77696e646f77732f676f312e342e32",
  "transactions": [
    {
      "hash": "0xd525740d0df6528caf18ff2645ce2018d21e0bc4a6b9c8ed25c8058e6474f154",
      "blockHash": "0x7f0be12cfb730fe9af59a5038ba0a428c4659ea49e0dc86a7f51f9d3a6796e03",
      "blockNumber": 83452,
      "transactionIndex": 0,
      "confirmations": null,
      "from": "0x9ecD1Bc07d16eb926077282970FA5240cc983F25",
      "gasPrice": {
        "_hex": "0xd791e719b"
      },
      "gasLimit": {
        "_hex": "0x5208"
      },
      "to": "0x32Be343B94f860124dC4fEe278FDCBD38C102D88",
      "value": {
        "_hex": "0x6c4fc98c24e2e40000"
      },
      "nonce": 1,
      "data": "0x",
      "r": "0x610fef2ebd25e42e58a835a9bf04663bb4fdff29c2cedf6b55be9e6357434f7f",
      "s": "0x56981ff5dafb2392ebd5c9e5194ccb2cee5a37e64600b67b07fda2a868e99faa",
      "v": 27,
      "creates": null,
      "raw": "0xf86d01850d791e719b8252089432be343b94f860124dc4fee278fdcbd38c102d88896c4fc98c24e2e40000801ba0610fef2ebd25e42e58a835a9bf04663bb4fdff29c2cedf6b55be9e6357434f7fa056981ff5dafb2392ebd5c9e5194ccb2cee5a37e64600b67b07fda2a868e99faa",
      "networkId": 0,
      "chainId": 0
    }
  ]
}