{
  "hash": "0x2fc748e8d557298b8146a02d589b0887051c3da372e94fe1e90626e63d080b82",
  "parentHash": "0x4cb8a4314a13ce3bd5f623c06cadbf010929a69b62db4dfbaac691260cc69e4f",
  "number": 95307,
  "timestamp": 1439722222,
  "nonce": "0x3e52fd0af02fd09e",
  "difficulty": 3556796176973,
  "gasLimit": {
    "_hex": "0x2fefd5"
  },
  "gasUsed": {
    "_hex": "0x5208"
  },
  "miner": "0xe6A7a1d47ff21B6321162AEA7C6CB457D5476Bca",
  "extraData": "0x476574682f76312e302e312d38326566323666362f6c696e75782f676f312e34",
  "transactions": [
    {
      "hash": "0xbddaf0305cd67c83bbe9d30d82ac4214db2f77f104713d6a43130eba488f2f7c",
      "blockHash": "0x2fc748e8d557298b8146a02d589b0887051c3da372e94fe1e90626e63d080b82",
      "blockNumber": 95307,
      "transactionIndex": 0,
      "confirmations": null,
      "from": "0xfE2C95361cCA1471A07C29386d6be561faA10D84",
      "gasPrice": {
        "_hex": "0xd641f460d"
      },
      "gasLimit": {
        "_hex": "0x15f90"
      },
      "to": "0x1332996a46dcBBE02f9cF164Dfc153aB976a9766",
      "value": {
        "_hex": "0xde0b6b3a7640000"
      },
      "nonce": 0,
      "data": "0x",
      "r": "0x6fb8e50c1d96ccba280ec5a8e6c5c946692ca5fd5f904212e903ed969cde24e2",
      "s": "0x6ae8adc14d7e702c67607178b9f8737aa3f8eec72df3218d217188190406992b",
      "v": 27,
      "creates": null,
      "raw": "0xf86d80850d641f460d83015f90941332996a46dcbbe02f9cf164dfc153ab976a9766880de0b6b3a7640000801ba06fb8e50c1d96ccba280ec5a8e6c5c946692ca5fd5f904212e903ed969cde24e2a06ae8adc14d7e702c67607178b9f8737aa3f8eec72df3218d217188190406992b",
      "networkId": 0,
      "chainId": 0
    }
  ]
}