{
  "hash": "0x79640477b20a95feea7fcd022cc8af6a504ecd0e3e6d463877cfbb99e28cac0c",
  "parentHash": "0xe9e291bd626076e5044d1320f79fe8af06426c1f11b4153ef1456d766f948d49",
  "number": 51651,
  "timestamp": 1439008578,
  "nonce": "0x28528e0082b90a98",
  "difficulty": 1557387343680,
  "gasLimit": {
    "_hex": "0xcafe1"
  },
  "gasUsed": {
    "_hex": "0x5208"
  },
  "miner": "0xe6A7a1d47ff21B6321162AEA7C6CB457D5476Bca",
  "extraData": "0x657468706f6f6c2e6f7267",
  "transactions": [
    {
      "hash": "0x72ebf1313fc0567550b11f9c3c33c855d91ba38037c238434680e8b26b424ca9",
      "blockHash": "0x79640477b20a95feea7fcd022cc8af6a504ecd0e3e6d463877cfbb99e28cac0c",
      "blockNumber": 51651,
      "transactionIndex": 0,
      "confirmations": null,
      "from": "0xCA092A957744f6385B1aee5dC694143E8A06F805",
      "gasPrice": {
        "_hex": "0xe025bdd2c"
      },
      "gasLimit": {
        "_hex": "0x15f90"
      },
      "to": "0x6957FfbC1555006994e4Fe96EF165C578195f7e5",
      "value": {
        "_hex": "0x49e57d6354000"
      },
      "nonce": 3,
      "data": "0x",
      "r": "0xbca1314d3364785662f6602b1426e3d7b9616a0141b67d8915eb9616033c4708",
      "s": "0x4a33b3193bb52da5ee3b1bb26681d08c566970cfb028a68cb72e0a9e90867b8e",
      "v": 27,
      "creates": null,
      "raw": "0xf86c03850e025bdd2c83015f90946957ffbc1555006994e4fe96ef165c578195f7e587049e57d6354000801ba0bca1314d3364785662f6602b1426e3d7b9616a0141b67d8915eb9616033c4708a04a33b3193bb52da5ee3b1bb26681d08c566970cfb028a68cb72e0a9e90867b8e",
      "networkId": 0,
      "chainId": 0
    }
  ]
}