{
  "hash": "0x8d5d058f0ef3a13a0bfad4dfcd5cead7b8fc11aa86ad1be42a404f840f8441cf",
  "parentHash": "0x5d01f0c6712edabf2ffe87d29cf6b0f49576ec0b5b2c6eec6af6d8a34d4b70eb",
  "number": 101846,
  "timestamp": 1439828909,
  "nonce": "0xfee3efc306452551",
  "difficulty": 3890013850436,
  "gasLimit": {
    "_hex": "0x2fefd8"
  },
  "gasUsed": {
    "_hex": "0x5208"
  },
  "miner": "0x580992B51e3925e23280EfB93d3047C82f17E038",
  "extraData": "0x476574682f76312e302e312f6c696e75782f676f312e342e32",
  "transactions": [
    {
      "hash": "0x9b5a795d2fb0953e4c4c2587cb970d04422298694ededda07957971327d91825",
      "blockHash": "0x8d5d058f0ef3a13a0bfad4dfcd5cead7b8fc11aa86ad1be42a404f840f8441cf",
      "blockNumber": 101846,
      "transactionIndex": 0,
      "confirmations": null,
      "from": "0x5BB33B0e16f8a05C5124c33418922C5b1Be8F810",
      "gasPrice": {
        "_hex": "0xddc0245c4"
      },
      "gasLimit": {
        "_hex": "0x5208"
      },
      "to": "0x32Be343B94f860124dC4fEe278FDCBD38C102D88",
      "value": {
        "_hex": "0x4aec367c1cf45000"
      },
      "nonce": 2,
      "data": "0x",
      "r": "0x1d960893ce26f8e4f44e0e31b50ef999bc4f4e2a3771c4bd480b7944bdc03d63",
      "s": "0x5317c11a3cbbe78a8b71b27b5ef1a3765b9e1709fcceb6ee9f1d8bb34e47a4b5",
      "v": 27,
      "creates": null,
      "raw": "0xf86c02850ddc0245c48252089432be343b94f860124dc4fee278fdcbd38c102d88884aec367c1cf45000801ba01d960893ce26f8e4f44e0e31b50ef999bc4f4e2a3771c4bd480b7944bdc03d63a05317c11a3cbbe78a8b71b27b5ef1a3765b9e1709fcceb6ee9f1d8bb34e47a4b5",
      "networkId": 0,
      "chainId": 0
    }
  ]
}