{
  "hash": "0xdcf24970944943854c589779c4eed824fda91c15966c6e63da6c1b1409cd8410",
  "parentHash": "0x5a197cd9e9861b66ba13a043b55a01c7bfcf4c5a115dbabc9cfcaeda76189232",
  "number": 51094,
  "timestamp": 1438999253,
  "nonce": "0x32ea6ea2c2eec1a0",
  "difficulty": 1555210946400,
  "gasLimit": {
    "_hex": "0x900cf"
  },
  "gasUsed": {
    "_hex": "0x546c"
  },
  "miner": "0xF2d2AfF1320476cb8C6b607199D23175cc595693",
  "extraData": "0x476574682f76312e302e312f77696e646f77732f676f312e342e32",
  "transactions": [
    {
      "hash": "0x87d54e24d6b04852d370e583b2af97c3516f23bd49896b30eba4714baba7a039",
      "blockHash": "0xdcf24970944943854c589779c4eed824fda91c15966c6e63da6c1b1409cd8410",
      "blockNumber": 51094,
      "transactionIndex": 0,
      "confirmations": null,
      "from": "0x91DBB6AaAD149585BE47375c5d6de5Ff09191518",
      "gasPrice": {
        "_hex": "0xdf8475800"
      },
      "gasLimit": {
        "_hex": "0xc738"
      },
      "to": "0x2910543Af39abA0Cd09dBb2D50200b3E800A63D2",
      "value": {
        "_hex": "0x109844b61b529400000"
      },
      "nonce": 10,
      "data": "0x454e44475843353152",
      "r": "0x96dab532a8af11eef673db32e5a2b3b40470343b3ccb0cce1ed7e1acb6062e84",
      "s": "0x0b28677313f4a03f21261c6dfcef3ecfa606cfec28b95ea2766b9ab92c4b9416",
      "v": 28,
      "creates": null,
      "raw": "0xf8770a850df847580082c738942910543af39aba0cd09dbb2d50200b3e800a63d28a0109844b61b52940000089454e444758433531521ca096dab532a8af11eef673db32e5a2b3b40470343b3ccb0cce1ed7e1acb6062e84a00b28677313f4a03f21261c6dfcef3ecfa606cfec28b95ea2766b9ab92c4b9416",
      "networkId": 0,
      "chainId": 0
    }
  ]
}