{
  "hash": "0xac422d4ccefe4a52221c972bb1dae5375a63f699509acb9d9723aa8286b12898",
  "parentHash": "0xe80f4394366cc5c56f24120dbffe9afd96c60b767287d3b34e739bce691ce813",
  "number": 117952,
  "timestamp": 1440118156,
  "nonce": "0x1c362c65baa1b552",
  "difficulty": 4335531911621,
  "gasLimit": {
    "_hex": "0x2fefd8"
  },
  "gasUsed": {
    "_hex": "0x5208"
  },
  "miner": "0xe6A7a1d47ff21B6321162AEA7C6CB457D5476Bca",
  "extraData": "0xd783010002844765746887676f312e342e32856c696e7578",
  "transactions": [
    {
      "hash": "0xc63c8f6c0f95582cc68be61eb8b850ccf391f56269c1a6e8c48bea5dbd3ce6e9",
      "blockHash": "0xac422d4ccefe4a52221c972bb1dae5375a63f699509acb9d9723aa8286b12898",
      "blockNumber": 117952,
      "transactionIndex": 0,
      "confirmations": null,
      "from": "0x007f7f58D3eb5b7510A301eCC749FC1fCDDBE14D",
      "gasPrice": {
        "_hex": "0xba43b7400"
      },
      "gasLimit": {
        "_hex": "0x15f90"
      },
      "to": "0xb1abce2918E21ddb93AA452731a12672A3d9F75a",
      "value": {
        "_hex": "0x4563918244f40000"
      },
      "nonce": 331,
      "data": "0x",
      "r": "0x4a661806f7e002d959493a38d00fcdfd954ae05f395dbaf298bd4cea1445ff68",
      "s": "0x2868e04d2d20eb9fe9f58433b22550a95931490cc54aec2c5726294ce4f7ff38",
      "v": 28,
      "creates": null,
      "raw": "0xf86f82014b850ba43b740083015f9094b1abce2918e21ddb93aa452731a12672a3d9f75a884563918244f40000801ca04a661806f7e002d959493a38d00fcdfd954ae05f395dbaf298bd4cea1445ff68a02868e04d2d20eb9fe9f58433b22550a95931490cc54aec2c5726294ce4f7ff38",
      "networkId": 0,
      "chainId": 0
    }
  ]
}