{
  "hash": "0x4fabc0b4e924aabbf4800d68bea512fd756c15996801f526d26aa03efeb9c3dd",
  "parentHash": "0x220523034f78364eb0be40fb41e33a6603efc716a14b7a92b1f2706f28814dcb",
  "number": 101924,
  "timestamp": 1439830058,
  "nonce": "0xb12710977dd98338",
  "difficulty": 3909018160858,
  "gasLimit": {
    "_hex": "0x2fefd8"
  },
  "gasUsed": {
    "_hex": "0x5208"
  },
  "miner": "0x8B454d830feF179e66206840F8F3D1d83bC32b17",
  "extraData": "0x476574682f76312e302e312f77696e646f77732f676f312e342e32",
  "transactions": [
    {
      "hash": "0x3124df17d016b562f4564c883f89e247f1f63eef6b77bb3608eb901e9e99cafb",
      "blockHash": "0x4fabc0b4e924aabbf4800d68bea512fd756c15996801f526d26aa03efeb9c3dd",
      "blockNumber": 101924,
      "transactionIndex": 0,
      "confirmations": null,
      "from": "0xFBb1b73C4f0BDa4f67dcA266ce6Ef42f520fBB98",
      "gasPrice": {
        "_hex": "0xdd6332ce4"
      },
      "gasLimit": {
        "_hex": "0x5208"
      },
      "to": "0x9fAA3b300afa841089c996d37e6Ed5155fcF2B3a",
      "value": {
        "_hex": "0xd6d12cce9394e800"
      },
      "nonce": 95,
      "data": "0x",
      "r": "0xfdf2a39f1a91b2c0d5351401e5aae9a0acd27646e903053bd500599759841324",
      "s": "0x2b5cb37fe1af384718045f1a1e695309bfaff25c8d260cb56dddc7f4436f33c2",
      "v": 28,
      "creates": null,
      "raw": "0xf86c5f850dd6332ce4825208949faa3b300afa841089c996d37e6ed5155fcf2b3a88d6d12cce9394e800801ca0fdf2a39f1a91b2c0d5351401e5aae9a0acd27646e903053bd500599759841324a02b5cb37fe1af384718045f1a1e695309bfaff25c8d260cb56dddc7f4436f33c2",
      "networkId": 0,
      "chainId": 0
    }
  ]
}