{
  "hash": "0xf3ee75e3aa4ddbd5ac0d2e0a46a36afd2506e7452394573bac666d27e610215f",
  "parentHash": "0x8115f3bbcc43bf9d8a61a1004ad33c1a83dd8ff1404db8a8dc823858fb822344",
  "number": 51644,
  "timestamp": 1439008468,
  "nonce": "0x70e40d7737a366b7",
  "difficulty": 1556628385157,
  "gasLimit": {
    "_hex": "0xc99cd"
  },
  "gasUsed": {
    "_hex": "0x7a120"
  },
  "miner": "0xf927a40C8B7F6E07c5af7FA2155B4864a4112B13",
  "extraData": "0x476574682f76312e302e312f6c696e75782f676f312e342e32",
  "transactions": [
    {
      "hash": "0x1a575bd47d73254003c384cead75fc0a3485410a9cba20f11a9fb26cb35299c1",
      "blockHash": "0xf3ee75e3aa4ddbd5ac0d2e0a46a36afd2506e7452394573bac666d27e610215f",
      "blockNumber": 51644,
      "transactionIndex": 0,
      "confirmations": null,
      "from": "0xf88a65846C19D8fc76fFf545fEAa7bbc7114F667",
      "gasPrice": {
        "_hex": "0xd4db0b74d"
      },
      "gasLimit": {
        "_hex": "0x7a120"
      },
      "to": "0x109C4f2CCc82C4d77Bde15F306707320294Aea3F",
      "value": {
        "_hex": "0xde0b6b3a7640000"
      },
      "nonce": 28,
      "data": "0x",
      "r": "0xa5b08c75172044c9e82958b1d08c05e4a7cc8f5b077abf95a1ec79cd181021c2",
      "s": "0x788b5c765c1e6fb066ba89e1e8743c1b1a23467d0e8bba6052e619ec4d26c80b",
      "v": 27,
      "creates": null,
      "raw": "0xf86d1c850d4db0b74d8307a12094109c4f2ccc82c4d77bde15f306707320294aea3f880de0b6b3a7640000801ba0a5b08c75172044c9e82958b1d08c05e4a7cc8f5b077abf95a1ec79cd181021c2a0788b5c765c1e6fb066ba89e1e8743c1b1a23467d0e8bba6052e619ec4d26c80b",
      "networkId": 0,
      "chainId": 0
    }
  ]
}