{
  "hash": "0xc0432073ea66b06b7b50eafcf107d1be270f9bd9286ff9aec146a4aa00230707",
  "parentHash": "0x10dfa8b0cb23e8f88d21672fcc3af41a7a57377aa78a819802c263d6a8f07986",
  "number": 106051,
  "timestamp": 1439897797,
  "nonce": "0x798d27f2ecbf9540",
  "difficulty": 4472950119300,
  "gasLimit": {
    "_hex": "0x2fefd8"
  },
  "gasUsed": {
    "_hex": "0x5208"
  },
  "miner": "0x790b8a3cE86E707ED0eD32bF89B3269692a23CC1",
  "extraData": "0xd783010001844765746887676f312e342e32856c696e7578",
  "transactions": [
    {
      "hash": "0xf8a98718eef1984fcef8db40e52b46e1e9bc22459fb9db3a1d84b8550a0afdef",
      "blockHash": "0xc0432073ea66b06b7b50eafcf107d1be270f9bd9286ff9aec146a4aa00230707",
      "blockNumber": 106051,
      "transactionIndex": 0,
      "confirmations": null,
      "from": "0x30beD8049947963394D93412326225E4e3123601",
      "gasPrice": {
        "_hex": "0xe0de15feb"
      },
      "gasLimit": {
        "_hex": "0x5208"
      },
      "to": "0x32Be343B94f860124dC4fEe278FDCBD38C102D88",
      "value": {
        "_hex": "0x455f053a72fd8800"
      },
      "nonce": 15,
      "data": "0x",
      "r": "0x3088cbc8654d838705ae7532f9e738d3c79d48bd0f42d14fda4c141297309ef9",
      "s": "0x6de3b9dfb3cd32a60b88982a4bee4dd54081987151d5d772d3b1f8c36643e6bd",
      "v": 27,
      "creates": null,
      "raw": "0xf86c0f850e0de15feb8252089432be343b94f860124dc4fee278fdcbd38c102d8888455f053a72fd8800801ba03088cbc8654d838705ae7532f9e738d3c79d48bd0f42d14fda4c141297309ef9a06de3b9dfb3cd32a60b88982a4bee4dd54081987151d5d772d3b1f8c36643e6bd",
      "networkId": 0,
      "chainId": 0
    }
  ]
}