{
  "hash": "0xc70345e69e16cbba9be430c76c082d877c86ac2a16b7f13e9f807d9d23a9814a",
  "parentHash": "0xce29bc1fef089e2ab072bb54e0a69173f88fa3631ebd119bb47ebd2228ec3133",
  "number": 112023,
  "timestamp": 1440000699,
  "nonce": "0xa4b901ebead3265e",
  "difficulty": 4370490807113,
  "gasLimit": {
    "_hex": "0x2fefd8"
  },
  "gasUsed": {
    "_hex": "0x5208"
  },
  "miner": "0xe6A7a1d47ff21B6321162AEA7C6CB457D5476Bca",
  "extraData": "0x476574682f76312e302e312d38326566323666362f6c696e75782f676f312e34",
  "transactions": [
    {
      "hash": "0x12ff99c70c66f81760e4f26a8e79de66b1669ec8f1f1fce90e7df566af916e40",
      "blockHash": "0xc70345e69e16cbba9be430c76c082d877c86ac2a16b7f13e9f807d9d23a9814a",
      "blockNumber": 112023,
      "transactionIndex": 0,
      "confirmations": null,
      "from": "0xC603Ab5ef41fC61AA8b76bEddb09e3Cfcbb174BD",
      "gasPrice": {
        "_hex": "0xd5a6b54ee"
      },
      "gasLimit": {
        "_hex": "0x15f90"
      },
      "to": "0x8F79f76381Aad7B98C19aF55eE75fdfEeb012211",
      "value": {
        "_hex": "0x649d2c967d9500000"
      },
      "nonce": 43,
      "data": "0x",
      "r": "0x86c7b2df3784669998abd828c4ee589ef7a4854157b34f9387cda5e0aa0a4cad",
      "s": "0x6936caf3b7779ca81e0b455c8571d500aa8aaf7edb1e2ec9e5c5b5107f128ab9",
      "v": 28,
      "creates": null,
      "raw": "0xf86e2b850d5a6b54ee83015f90948f79f76381aad7b98c19af55ee75fdfeeb012211890649d2c967d9500000801ca086c7b2df3784669998abd828c4ee589ef7a4854157b34f9387cda5e0aa0a4cada06936caf3b7779ca81e0b455c8571d500aa8aaf7edb1e2ec9e5c5b5107f128ab9",
      "networkId": 0,
      "chainId": 0
    }
  ]
}