{
  "hash": "0xfeecce7afd49d2edfe0d2120204da5056398d2a25fb48cd34ad6fadc2ebc226c",
  "parentHash": "0xf9dbbc06246882818f2717a461b26ed7ba40c29fae7b60dd4e4142641c3f0662",
  "number": 104715,
  "timestamp": 1439874208,
  "nonce": "0xbc2ec476d3d3f4d7",
  "difficulty": 4365764739806,
  "gasLimit": {
    "_hex": "0x2fefd8"
  },
  "gasUsed": {
    "_hex": "0x5208"
  },
  "miner": "0xe6A7a1d47ff21B6321162AEA7C6CB457D5476Bca",
  "extraData": "0x476574682f76312e302e312d38326566323666362f6c696e75782f676f312e34",
  "transactions": [
    {
      "hash": "0xaddf3c062f327f8c9b1715c6bb7d131412db4b3e1b8ea53acc9e97a0d0526dda",
      "blockHash": "0xfeecce7afd49d2edfe0d2120204da5056398d2a25fb48cd34ad6fadc2ebc226c",
      "blockNumber": 104715,
      "transactionIndex": 0,
      "confirmations": null,
      "from": "0x1308A2e95c0160B90803ddCA9B9a5bb55E416d79",
      "gasPrice": {
        "_hex": "0xd498fdd65"
      },
      "gasLimit": {
        "_hex": "0x15f90"
      },
      "to": "0xFBb1b73C4f0BDa4f67dcA266ce6Ef42f520fBB98",
      "value": {
        "_hex": "0x56bc75e2d63100000"
      },
      "nonce": 161,
      "data": "0x",
      "r": "0xb0cd3a6afab510a21413fe329277e86e4415fa2e388721cd868169b0c696537f",
      "s": "0x052b7a25c7302297556dbb0bbd3c98a23d58ba6660c95ddbeeab4af6fe6c6267",
      "v": 28,
      "creates": null,
      "raw": "0xf86f81a1850d498fdd6583015f9094fbb1b73c4f0bda4f67dca266ce6ef42f520fbb9889056bc75e2d63100000801ca0b0cd3a6afab510a21413fe329277e86e4415fa2e388721cd868169b0c696537fa0052b7a25c7302297556dbb0bbd3c98a23d58ba6660c95ddbeeab4af6fe6c6267",
      "networkId": 0,
      "chainId": 0
    }
  ]
}