{
  "hash": "0x71f8d242bc98d5734b9c1d827adfe9ca9817b8b8c3acfbe90aab815e9d7e8437",
  "parentHash": "0x5885bc5381bff05f547ceac292a83935cebe4204b3099bd09971672a95d323c3",
  "number": 99427,
  "timestamp": 1439789965,
  "nonce": "0x643d0ce78803178c",
  "difficulty": 3791729233420,
  "gasLimit": {
    "_hex": "0x2fefd8"
  },
  "gasUsed": {
    "_hex": "0x5208"
  },
  "miner": "0xeB1325C8D9d3ea8D74aC11F4B00F1B2367686319",
  "extraData": "0x",
  "transactions": [
    {
      "hash": "0x5993ddb71e5b3934ae3fa4849c9b83ed09b7741defee2a751a4536e959120cac",
      "blockHash": "0x71f8d242bc98d5734b9c1d827adfe9ca9817b8b8c3acfbe90aab815e9d7e8437",
      "blockNumber": 99427,
      "transactionIndex": 0,
      "confirmations": null,
      "from": "0x7884D470204862a0d1A21122F41ee77430396Ee5",
      "gasPrice": {
        "_hex": "0xdf0ec45e7"
      },
      "gasLimit": {
        "_hex": "0x15f90"
      },
      "to": "0x65CA8f5d766358427254B15A9E740E0dA6507b1c",
      "value": {
        "_hex": "0x13fbe85edc90000"
      },
      "nonce": 36,
      "data": "0x",
      "r": "0xa79ef65166b6531bfdc8e13df6311a291d4080d6ae78ef37bb39b5499145176a",
      "s": "0x4e100a6b50694435edb24117cb0b6f6f7b1a82088a10887fa36f2cfc9a658663",
      "v": 27,
      "creates": null,
      "raw": "0xf86d24850df0ec45e783015f909465ca8f5d766358427254b15a9e740e0da6507b1c88013fbe85edc90000801ba0a79ef65166b6531bfdc8e13df6311a291d4080d6ae78ef37bb39b5499145176aa04e100a6b50694435edb24117cb0b6f6f7b1a82088a10887fa36f2cfc9a658663",
      "networkId": 0,
      "chainId": 0
    }
  ]
}