{
  "hash": "0x7b5c9e7a5cb632311ecb184c8d69fcdb05195121248849fc437ab4e0fdd64603",
  "parentHash": "0x6c4ee8b0574c6a09a321bbea01981d397a1d097024aaa9374979ee3e7ee7e70e",
  "number": 67896,
  "timestamp": 1439279094,
  "nonce": "0x3467acc9777eb201",
  "difficulty": 1950574377185,
  "gasLimit": {
    "_hex": "0x2fefd8"
  },
  "gasUsed": {
    "_hex": "0x5208"
  },
  "miner": "0xC99478b218E58F45783fA70f0507cf614938E67d",
  "extraData": "0x",
  "transactions": [
    {
      "hash": "0x6117d34a9362f401372fb998566784a88d8e300d4ddbeb4ebed58268131292f7",
      "blockHash": "0x7b5c9e7a5cb632311ecb184c8d69fcdb05195121248849fc437ab4e0fdd64603",
      "blockNumber": 67896,
      "transactionIndex": 0,
      "confirmations": null,
      "from": "0x32Be343B94f860124dC4fEe278FDCBD38C102D88",
      "gasPrice": {
        "_hex": "0xdd18aa64f"
      },
      "gasLimit": {
        "_hex": "0x5208"
      },
      "to": "0x7590eB2dd38Bb8dDDCe3aC7c656992409Ac3E152",
      "value": {
        "_hex": "0xdbd2fc137a30000"
      },
      "nonce": 216,
      "data": "0x",
      "r": "0x5ec94a1a574bc32fba8e26b9b46a7afd30585f481a7c0726a5359d7cb384935f",
      "s": "0x0972141af1e4eb035334c018d5f8484cff9e154d2dd9f10b471e19e71e3f6aa2",
      "v": 27,
      "creates": null,
      "raw": "0xf86d81d8850dd18aa64f825208947590eb2dd38bb8dddce3ac7c656992409ac3e152880dbd2fc137a30000801ba05ec94a1a574bc32fba8e26b9b46a7afd30585f481a7c0726a5359d7cb384935fa00972141af1e4eb035334c018d5f8484cff9e154d2dd9f10b471e19e71e3f6aa2",
      "networkId": 0,
      "chainId": 0
    }
  ]
}