{
  "hash": "0x4981dd602da5d560df94644b570815fab3e57b80ed429933121026de48b6cacd",
  "parentHash": "0xf0b2f8a9e6d0350789080d3ef1c865c2f283379da1f8d3219f7caa2e627fd52d",
  "number": 109721,
  "timestamp": 1439961436,
  "nonce": "0xaec8148d6e4c24da",
  "difficulty": 4440534431689,
  "gasLimit": {
    "_hex": "0x2fefd8"
  },
  "gasUsed": {
    "_hex": "0x5208"
  },
  "miner": "0x790b8a3cE86E707ED0eD32bF89B3269692a23CC1",
  "extraData": "0xd783010001844765746887676f312e342e32856c696e7578",
  "transactions": [
    {
      "hash": "0xb782288a8a846766e3692c90181e3f10d6028c48f6d44a36ea8b356e60ffb30f",
      "blockHash": "0x4981dd602da5d560df94644b570815fab3e57b80ed429933121026de48b6cacd",
      "blockNumber": 109721,
      "transactionIndex": 0,
      "confirmations": null,
      "from": "0xa70a9a7040d542C632D8e0bE7c5513A8a5Bbc752",
      "gasPrice": {
        "_hex": "0xd1a4db730"
      },
      "gasLimit": {
        "_hex": "0x5208"
      },
      "to": "0x32Be343B94f860124dC4fEe278FDCBD38C102D88",
      "value": {
        "_hex": "0x34066f0801045800"
      },
      "nonce": 278,
      "data": "0x",
      "r": "0x3319dcf549f6fdd9d0ca02bf2f0f33765a1fae6e755a59c1f56c861860776509",
      "s": "0x4bf56625c1f1be04743652724aaab2e00e05e52f79d32948375eecf1181d7344",
      "v": 27,
      "creates": null,
      "raw": "0xf86e820116850d1a4db7308252089432be343b94f860124dc4fee278fdcbd38c102d888834066f0801045800801ba03319dcf549f6fdd9d0ca02bf2f0f33765a1fae6e755a59c1f56c861860776509a04bf56625c1f1be04743652724aaab2e00e05e52f79d32948375eecf1181d7344",
      "networkId": 0,
      "chainId": 0
    }
  ]
}