{
  "hash": "0x1c79827386d0cb616ac5d63355ffb266896623c25907754b137c1778cec6a85d",
  "parentHash": "0x9c855a85ef664af082b2c05add2c7a4d2fbf6134bb2437cd1d0997b0298a48f9",
  "number": 78973,
  "timestamp": 1439462435,
  "nonce": "0xdd4514d37d394e32",
  "difficulty": 2298670142879,
  "gasLimit": {
    "_hex": "0x2fefd8"
  },
  "gasUsed": {
    "_hex": "0x5208"
  },
  "miner": "0x8B454d830feF179e66206840F8F3D1d83bC32b17",
  "extraData": "0x476574682f76312e302e312f77696e646f77732f676f312e342e32",
  "transactions": [
    {
      "hash": "0xcfc27d5c1817d1d74a07647e52c3dbb8ff75032cba3e3dcf744a104466e9fc76",
      "blockHash": "0x1c79827386d0cb616ac5d63355ffb266896623c25907754b137c1778cec6a85d",
      "blockNumber": 78973,
      "transactionIndex": 0,
      "confirmations": null,
      "from": "0x6866e5e1FaBB4AbceF3EEb9Ea0d8CD6b52dfC9FF",
      "gasPrice": {
        "_hex": "0xd5c1f6a6c"
      },
      "gasLimit": {
        "_hex": "0x15f90"
      },
      "to": "0x01Ad0ACFf478127D9d702B1A13599D706cB759b1",
      "value": {
        "_hex": "0x4563918244f40000"
      },
      "nonce": 13,
      "data": "0x",
      "r": "0x8194d7b061d9e826027174f0f75763c8441a6afd85ed671b38751ad59eee32d5",
      "s": "0x1232f5ed504d8efde463e511b1077187cca8bfa1b40a6b03d9ad72f5bcaffa96",
      "v": 27,
      "creates": null,
      "raw": "0xf86d0d850d5c1f6a6c83015f909401ad0acff478127d9d702b1a13599d706cb759b1884563918244f40000801ba08194d7b061d9e826027174f0f75763c8441a6afd85ed671b38751ad59eee32d5a01232f5ed504d8efde463e511b1077187cca8bfa1b40a6b03d9ad72f5bcaffa96",
      "networkId": 0,
      "chainId": 0
    }
  ]
}