{
  "hash": "0x800d91323212b8e6e8dd2fa072b16da72d136b886a9e3b5db7a3f52c7665cb63",
  "parentHash": "0x72b551ee5d8e2bfe730b422a852c2825b0cc416b7efa681efb5c9609b8b46276",
  "number": 61395,
  "timestamp": 1439171772,
  "nonce": "0x3787e83d6fe557a8",
  "difficulty": 1731988110658,
  "gasLimit": {
    "_hex": "0x2fefd8"
  },
  "gasUsed": {
    "_hex": "0xf618"
  },
  "miner": "0xf927a40C8B7F6E07c5af7FA2155B4864a4112B13",
  "extraData": "0x476574682f76312e302e312f6c696e75782f676f312e342e32",
  "transactions": [
    {
      "hash": "0xcfbd75df348b994ce0c8814282c93a8841c4bb32e2870ca251615414b582bf54",
      "blockHash": "0x800d91323212b8e6e8dd2fa072b16da72d136b886a9e3b5db7a3f52c7665cb63",
      "blockNumber": 61395,
      "transactionIndex": 0,
      "confirmations": null,
      "from": "0x120A270bbC009644e35F0bB6ab13f95b8199c4ad",
      "gasPrice": {
        "_hex": "0xd9812cf8d"
      },
      "gasLimit": {
        "_hex": "0x15f90"
      },
      "to": "0xF6F1A44309051c6B25e47dff909B179Bb9aB591C",
      "value": {
        "_hex": "0x2b5e3af16b18800000"
      },
      "nonce": 73,
      "data": "0x",
      "r": "0x6bd5945147385a26b8680e5879c99632eb31a56e1a7b51b29153fe46e0aab553",
      "s": "0x6f9cc55bbcd955a287f0bb25fe6d3686725ca844629ef6020d8b37a12f1da952",
      "v": 27,
      "creates": null,
      "raw": "0xf86e49850d9812cf8d83015f9094f6f1a44309051c6b25e47dff909b179bb9ab591c892b5e3af16b18800000801ba06bd5945147385a26b8680e5879c99632eb31a56e1a7b51b29153fe46e0aab553a06f9cc55bbcd955a287f0bb25fe6d3686725ca844629ef6020d8b37a12f1da952",
      "networkId": 0,
      "chainId": 0
    },
    {
      "hash": "0xd7b0c6edbd24738559bbce39e67da44136221f735a15184ea7104755e28a6c45",
      "blockHash": "0x800d91323212b8e6e8dd2fa072b16da72d136b886a9e3b5db7a3f52c7665cb63",
      "blockNumber": 61395,
      "transactionIndex": 1,
      "confirmations": null,
      "from": "0x120A270bbC009644e35F0bB6ab13f95b8199c4ad",
      "gasPrice": {
        "_hex": "0xd9812cf8d"
      },
      "gasLimit": {
        "_hex": "0x15f90"
      },
      "to": "0xCA092A957744f6385B1aee5dC694143E8A06F805",
      "value": {
        "_hex": "0x56bc75e2d63100000"
      },
      "nonce": 74,
      "data": "0x",
      "r": "0x54b1857040c103e444d0b8b81c350348dfbb16b54530d4f1284234137ab75611",
      "s": "0x48df6d2e412ec4fcd91984d818518cfc3aac0942e7317e82e3883b020129d87e",
      "v": 28,
      "creates": null,
      "raw": "0xf86e4a850d9812cf8d83015f9094ca092a957744f6385b1aee5dc694143e8a06f80589056bc75e2d63100000801ca054b1857040c103e444d0b8b81c350348dfbb16b54530d4f1284234137ab75611a048df6d2e412ec4fcd91984d818518cfc3aac0942e7317e82e3883b020129d87e",
      "networkId": 0,
      "chainId": 0
    },
    {
      "hash": "0x0ee730c6536025db9bb232d8b4cb9edc93dc4ec0af2b13e872d7aab09c11a824",
      "blockHash": "0x800d91323212b8e6e8dd2fa072b16da72d136b886a9e3b5db7a3f52c7665cb63",
      "blockNumber": 61395,
      "transactionIndex": 2,
      "confirmations": null,
      "from": "0x740Ab9f08593f931fC5d0589a528663565e707ee",
      "gasPrice": {
        "_hex": "0xd69b48315"
      },
      "gasLimit": {
        "_hex": "0x15f90"
      },
      "to": "0x0152109Fa464302AC3674853E8A99353309937AF",
      "value": {
        "_hex": "0xc7d713b49da000"
      },
      "nonce": 0,
      "data": "0x",
      "r": "0x87751e5034dcc778aaab01bd00a7372bf84daeca763e2cb341de063855ff85c6",
      "s": "0x19d52d832d60aa2f037582a27a965a9eb471284c8a008f419118a930ab84ca57",
      "v": 28,
      "creates": null,
      "raw": "0xf86c80850d69b4831583015f90940152109fa464302ac3674853e8a99353309937af87c7d713b49da000801ca087751e5034dcc778aaab01bd00a7372bf84daeca763e2cb341de063855ff85c6a019d52d832d60aa2f037582a27a965a9eb471284c8a008f419118a930ab84ca57",
      "networkId": 0,
      "chainId": 0
    }
  ]
}