{
  "hash": "0x1f9ffcc129a960acc84ebbbc8d1a7d124433f412e4ff9b0c3fc342ee29765c88",
  "parentHash": "0xf61f19693267d980b682f8781b1c19f52603878eaada2d4c2c0a310ed2933b36",
  "number": 90309,
  "timestamp": 1439637968,
  "nonce": "0xa8888fd058fb9768",
  "difficulty": 3310801704192,
  "gasLimit": {
    "_hex": "0x2fefd8"
  },
  "gasUsed": {
    "_hex": "0x5208"
  },
  "miner": "0x790b8a3cE86E707ED0eD32bF89B3269692a23CC1",
  "extraData": "0xd783010001844765746887676f312e342e32856c696e7578",
  "transactions": [
    {
      "hash": "0xa189bef4de3c1c8f9714363e07c2a6913d41ff507f06f10fa1631e3487003214",
      "blockHash": "0x1f9ffcc129a960acc84ebbbc8d1a7d124433f412e4ff9b0c3fc342ee29765c88",
      "blockNumber": 90309,
      "transactionIndex": 0,
      "confirmations": null,
      "from": "0xf2881e3e520bF84469Fa00a56449D357FB1af54A",
      "gasPrice": {
        "_hex": "0xdef7214e3"
      },
      "gasLimit": {
        "_hex": "0x5208"
      },
      "to": "0x32Be343B94f860124dC4fEe278FDCBD38C102D88",
      "value": {
        "_hex": "0x34209a07117014000"
      },
      "nonce": 7,
      "data": "0x",
      "r": "0x9b212103adf96197a83a0f4608f909f8b119bbc16d4714958786b8657ac127b3",
      "s": "0x74e334e92b6e88036dd8b64aa424982457459b1db9dee01b5ef997fa85273dcc",
      "v": 28,
      "creates": null,
      "raw": "0xf86d07850def7214e38252089432be343b94f860124dc4fee278fdcbd38c102d8889034209a07117014000801ca09b212103adf96197a83a0f4608f909f8b119bbc16d4714958786b8657ac127b3a074e334e92b6e88036dd8b64aa424982457459b1db9dee01b5ef997fa85273dcc",
      "networkId": 0,
      "chainId": 0
    }
  ]
}