{
  "hash": "0x355aa7470588100bc8a17d90c98e5c8bf97d03ff12093b228ad249fc86db0d7a",
  "parentHash": "0xb8e18a0ff0ad8773cd3b4b72ebff334ffd507582420f5d9b163e632f6e45103c",
  "number": 78285,
  "timestamp": 1439451458,
  "nonce": "0x4cdab29e8ac650e4",
  "difficulty": 2280968816772,
  "gasLimit": {
    "_hex": "0x2fefd8"
  },
  "gasUsed": {
    "_hex": "0x546c"
  },
  "miner": "0xf8E0CA3Ed80bd541b94BEdCf259e8CF2141A9523",
  "extraData": "0x476574682f76312e302e312f77696e646f77732f676f312e342e32",
  "transactions": [
    {
      "hash": "0xac81a3bd8a2556a434f069bf5c877c119ebb3f4a105089bbc68228b59fac6cdc",
      "blockHash": "0x355aa7470588100bc8a17d90c98e5c8bf97d03ff12093b228ad249fc86db0d7a",
      "blockNumber": 78285,
      "transactionIndex": 0,
      "confirmations": null,
      "from": "0xe043F7B6fc487e0Ad927C9bEcd1D586F30eE1639",
      "gasPrice": {
        "_hex": "0xd12e9cdba"
      },
      "gasLimit": {
        "_hex": "0x55f0"
      },
      "to": "0x2910543Af39abA0Cd09dBb2D50200b3E800A63D2",
      "value": {
        "_hex": "0x4563918244f40000"
      },
      "nonce": 3,
      "data": "0x454e35423338594447",
      "r": "0x4f7c4ba8e0a109efa18aae526b6594f7599ea7eb0f7c234280145bf4affa21ac",
      "s": "0x3fff5b223a5cd720ec56e51fbd997709ed953f384d500541e30e410fee695fe5",
      "v": 28,
      "creates": null,
      "raw": "0xf87503850d12e9cdba8255f0942910543af39aba0cd09dbb2d50200b3e800a63d2884563918244f4000089454e354233385944471ca04f7c4ba8e0a109efa18aae526b6594f7599ea7eb0f7c234280145bf4affa21aca03fff5b223a5cd720ec56e51fbd997709ed953f384d500541e30e410fee695fe5",
      "networkId": 0,
      "chainId": 0
    }
  ]
}