{
  "hash": "0x04e40f4f0690c005c032d459901da49bef51b5bbaa654fa2495ee127418cd6a2",
  "parentHash": "0x116ad91c2c15915a07ab7a639a0d7be146490f78c161fb005aa18d81edb3a9a8",
  "number": 81237,
  "timestamp": 1439498330,
  "nonce": "0x855e2c9657ef7830",
  "difficulty": 2453438622095,
  "gasLimit": {
    "_hex": "0x2fefd8"
  },
  "gasUsed": {
    "_hex": "0x47c70"
  },
  "miner": "0x580992B51e3925e23280EfB93d3047C82f17E038",
  "extraData": "0x476574682f76312e302e312f6c696e75782f676f312e342e32",
  "transactions": [
    {
      "hash": "0xbc0fcee922410067d51eca67434cb250c410319c02ddfc0913afbf8565c3ba90",
      "blockHash": "0x04e40f4f0690c005c032d459901da49bef51b5bbaa654fa2495ee127418cd6a2",
      "blockNumber": 81237,
      "transactionIndex": 0,
      "confirmations": null,
      "from": "0x393FF4255e5C658F2e7f10ecbd292572671BC2d2",
      "gasPrice": {
        "_hex": "0xd6bd60364"
      },
      "gasLimit": {
        "_hex": "0x5208"
      },
      "to": "0x2d60eD77eaD60898D0AF2eA6656659393333E2Db",
      "value": {
        "_hex": "0x66ffcbfd5e5a300000"
      },
      "nonce": 0,
      "data": "0x",
      "r": "0x20f69a37fdc5139b82b2dfb2eefadb090a2f2cb5707169d937dbbdfa21a33941",
      "s": "0x3c694843cc987996a68eae96af58f7b4b59c5a39712b31a3dbfe1fd93ced512d",
      "v": 28,
      "creates": null,
      "raw": "0xf86d80850d6bd60364825208942d60ed77ead60898d0af2ea6656659393333e2db8966ffcbfd5e5a300000801ca020f69a37fdc5139b82b2dfb2eefadb090a2f2cb5707169d937dbbdfa21a33941a03c694843cc987996a68eae96af58f7b4b59c5a39712b31a3dbfe1fd93ced512d",
      "networkId": 0,
      "chainId": 0
    },
    {
      "hash": "0x798ef5cf376e2a53ebf196eea74c200c7eb8849872fb765c6f4e291f3178ae1f",
      "blockHash": "0x04e40f4f0690c005c032d459901da49bef51b5bbaa654fa2495ee127418cd6a2",
      "blockNumber": 81237,
      "transactionIndex": 1,
      "confirmations": null,
      "from": "0x2da617695009cc57d26Ad490B32a5DFBEB934e5E",
      "gasPrice": {
        "_hex": "0xd6673ca24"
      },
      "gasLimit": {
        "_hex": "0x15f90"
      },
      "to": "0x5fB5E2fC08615c69B0FD8e8f0b68DA93Ec5e326A",
      "value": {
        "_hex": "0x11478b7c30abc300000"
      },
      "nonce": 2,
      "data": "0x",
      "r": "0xefd0a495c831909aec5eeb9deeff6088eeb9616da78bda5e881d2306a89956b5",
      "s": "0x6f354ae4aec3647a79970e6b8d69769adc81ca16890913ef652ec02155989c9b",
      "v": 28,
      "creates": null,
      "raw": "0xf86f02850d6673ca2483015f90945fb5e2fc08615c69b0fd8e8f0b68da93ec5e326a8a011478b7c30abc300000801ca0efd0a495c831909aec5eeb9deeff6088eeb9616da78bda5e881d2306a89956b5a06f354ae4aec3647a79970e6b8d69769adc81ca16890913ef652ec02155989c9b",
      "networkId": 0,
      "chainId": 0
    },
    {
      "hash": "0x871a3f86d28c7ba930d82548c8dd7019e10d45256351225b01736a81e8403a27",
      "blockHash": "0x04e40f4f0690c005c032d459901da49bef51b5bbaa654fa2495ee127418cd6a2",
      "blockNumber": 81237,
      "transactionIndex": 2,
      "confirmations": null,
      "from": "0x7998276dDecB82491dEe4Cd6cC504C55e87b5570",
      "gasPrice": {
        "_hex": "0xd6673ca24"
      },
      "gasLimit": {
        "_hex": "0x15f90"
      },
      "to": "0x04B1De703147C22d898323A196121E6ED76C85B3",
      "value": {
        "_hex": "0x4563918244f40000"
      },
      "nonce": 3,
      "data": "0x",
      "r": "0xea359b5441b04146decfb0b78b9610c8cd966127d26e6adec0b9939dc2b38b58",
      "s": "0x49b3e9c575e288aa21008a195ce9ae4b75c6a3c6b306ae38ebab018fb51cc656",
      "v": 28,
      "creates": null,
      "raw": "0xf86d03850d6673ca2483015f909404b1de703147c22d898323a196121e6ed76c85b3884563918244f40000801ca0ea359b5441b04146decfb0b78b9610c8cd966127d26e6adec0b9939dc2b38b58a049b3e9c575e288aa21008a195ce9ae4b75c6a3c6b306ae38ebab018fb51cc656",
      "networkId": 0,
      "chainId": 0
    },
    {
      "hash": "0x568457f157ebe7febe7e1614674b4520c41dcccdee6bc7024b3ee01a43109168",
      "blockHash": "0x04e40f4f0690c005c032d459901da49bef51b5bbaa654fa2495ee127418cd6a2",
      "blockNumber": 81237,
      "transactionIndex": 3,
      "confirmations": null,
      "from": "0x32Be343B94f860124dC4fEe278FDCBD38C102D88",
      "gasPrice": {
        "_hex": "0xd3c3985af"
      },
      "gasLimit": {
        "_hex": "0x5208"
      },
      "to": "0x79b3CC55449605B142479d28864956bd9e18f283",
      "value": {
        "_hex": "0x183d16924e5749000"
      },
      "nonce": 573,
      "data": "0x",
      "r": "0x27c22a02e39db9a198d6d9af4bcc512aa468995bd9f87b0654e994b8125bfeb3",
      "s": "0x5d21b7df934aefd8e80c1469a43e22be64d89b70027e5474e08a3234c9391ca0",
      "v": 27,
      "creates": null,
      "raw": "0xf86f82023d850d3c3985af8252089479b3cc55449605b142479d28864956bd9e18f283890183d16924e5749000801ba027c22a02e39db9a198d6d9af4bcc512aa468995bd9f87b0654e994b8125bfeb3a05d21b7df934aefd8e80c1469a43e22be64d89b70027e5474e08a3234c9391ca0",
      "networkId": 0,
      "chainId": 0
    },
    {
      "hash": "0xeaffbf4cda72e10f202a059514bc7dd222a9270a0bb4d32fd70b80dac58c72e4",
      "blockHash": "0x04e40f4f0690c005c032d459901da49bef51b5bbaa654fa2495ee127418cd6a2",
      "blockNumber": 81237,
      "transactionIndex": 4,
      "confirmations": null,
      "from": "0x32Be343B94f860124dC4fEe278FDCBD38C102D88",
      "gasPrice": {
        "_hex": "0xd3c3985af"
      },
      "gasLimit": {
        "_hex": "0x5208"
      },
      "to": "0x0a0105788d1E1Edb95d9D21140f17F2a08F343fB",
      "value": {
        "_hex": "0x3d521142d3ee48000"
      },
      "nonce": 574,
      "data": "0x",
      "r": "0xcc88eedd9dc3eaea017c19dfad2b74cc216d44b8aa546d2e52f47a0f1cab7183",
      "s": "0x703664b1c246daf533ccf0e9de26513ec7b105c0912d8cb8cc2b8a3634390e79",
      "v": 28,
      "creates": null,
      "raw": "0xf86f82023e850d3c3985af825208940a0105788d1e1edb95d9d21140f17f2a08f343fb8903d521142d3ee48000801ca0cc88eedd9dc3eaea017c19dfad2b74cc216d44b8aa546d2e52f47a0f1cab7183a0703664b1c246daf533ccf0e9de26513ec7b105c0912d8cb8cc2b8a3634390e79",
      "networkId": 0,
      "chainId": 0
    },
    {
      "hash": "0xfb2898b49f99266098d6e53dc006f8e349f2884f95079a8b557a8835ddfd7e6a",
      "blockHash": "0x04e40f4f0690c005c032d459901da49bef51b5bbaa654fa2495ee127418cd6a2",
      "blockNumber": 81237,
      "transactionIndex": 5,
      "confirmations": null,
      "from": "0x32Be343B94f860124dC4fEe278FDCBD38C102D88",
      "gasPrice": {
        "_hex": "0xd3c3985af"
      },
      "gasLimit": {
        "_hex": "0x5208"
      },
      "to": "0x6E983e9354780E31425B13A73Bf586f1e4DF1299",
      "value": {
        "_hex": "0x56bc75e2d63100000"
      },
      "nonce": 575,
      "data": "0x",
      "r": "0xcb07b0e4af6fa04f812cead36db5141be8d1b31d22ab881fa5264fb69889623d",
      "s": "0x2a48f96c72984acf449b59f750315da3c22cb29210a93ffe8ead07de9bf1061d",
      "v": 27,
      "creates": null,
      "raw": "0xf86f82023f850d3c3985af825208946e983e9354780e31425b13a73bf586f1e4df129989056bc75e2d63100000801ba0cb07b0e4af6fa04f812cead36db5141be8d1b31d22ab881fa5264fb69889623da02a48f96c72984acf449b59f750315da3c22cb29210a93ffe8ead07de9bf1061d",
      "networkId": 0,
      "chainId": 0
    },
    {
      "hash": "0x58184f674db6e79a72bcd7ce539a640449c8b1228432ea50ff2f35e03d5c5b93",
      "blockHash": "0x04e40f4f0690c005c032d459901da49bef51b5bbaa654fa2495ee127418cd6a2",
      "blockNumber": 81237,
      "transactionIndex": 6,
      "confirmations": null,
      "from": "0x32Be343B94f860124dC4fEe278FDCBD38C102D88",
      "gasPrice": {
        "_hex": "0xd3c3985af"
      },
      "gasLimit": {
        "_hex": "0x5208"
      },
      "to": "0xCc25A4753fb761f597aD8372dF1f5B045BfFf78a",
      "value": {
        "_hex": "0x56bc75e2d63100000"
      },
      "nonce": 576,
      "data": "0x",
      "r": "0x1ccd290fcb90021a247178021ce3d93ad2c34b1dc543ad0ca9bd35ca98df13b7",
      "s": "0x5b657deaa5eec0d5ad5f7f73b91293982d92d1eaaf40d179739e109f1e35fa71",
      "v": 28,
      "creates": null,
      "raw": "0xf86f820240850d3c3985af82520894cc25a4753fb761f597ad8372df1f5b045bfff78a89056bc75e2d63100000801ca01ccd290fcb90021a247178021ce3d93ad2c34b1dc543ad0ca9bd35ca98df13b7a05b657deaa5eec0d5ad5f7f73b91293982d92d1eaaf40d179739e109f1e35fa71",
      "networkId": 0,
      "chainId": 0
    },
    {
      "hash": "0xb93cef7506a070706f2042d0d5a6420a53835c2cc61d3abab455d580dfb12464",
      "blockHash": "0x04e40f4f0690c005c032d459901da49bef51b5bbaa654fa2495ee127418cd6a2",
      "blockNumber": 81237,
      "transactionIndex": 7,
      "confirmations": null,
      "from": "0x32Be343B94f860124dC4fEe278FDCBD38C102D88",
      "gasPrice": {
        "_hex": "0xd3c3985af"
      },
      "gasLimit": {
        "_hex": "0x5208"
      },
      "to": "0xd52459d2EEDBB43663228420311dBef4A7608bCB",
      "value": {
        "_hex": "0x56bc75e2d63100000"
      },
      "nonce": 577,
      "data": "0x",
      "r": "0x9b76d6ecd8c8a010eb557a361af9a6e4ab542d3c6e044bdb659dba70fdd8727f",
      "s": "0x148cd59f6555cd471eb2536005c010dcd0ebd15076f12791e4c8f178d65ec89b",
      "v": 27,
      "creates": null,
      "raw": "0xf86f820241850d3c3985af82520894d52459d2eedbb43663228420311dbef4a7608bcb89056bc75e2d63100000801ba09b76d6ecd8c8a010eb557a361af9a6e4ab542d3c6e044bdb659dba70fdd8727fa0148cd59f6555cd471eb2536005c010dcd0ebd15076f12791e4c8f178d65ec89b",
      "networkId": 0,
      "chainId": 0
    },
    {
      "hash": "0xfedf44eed86e3008e7b00aaa80ca781b8e35d4111832777d73deae847f9d6f16",
      "blockHash": "0x04e40f4f0690c005c032d459901da49bef51b5bbaa654fa2495ee127418cd6a2",
      "blockNumber": 81237,
      "transactionIndex": 8,
      "confirmations": null,
      "from": "0x32Be343B94f860124dC4fEe278FDCBD38C102D88",
      "gasPrice": {
        "_hex": "0xd17650aa4"
      },
      "gasLimit": {
        "_hex": "0x5208"
      },
      "to": "0x830C991733d855e52B94068CEF0c55ada3508E4a",
      "value": {
        "_hex": "0x56bc75e2d63100000"
      },
      "nonce": 578,
      "data": "0x",
      "r": "0x3d52e75c528d99d07638686e1522a4fb6abaf3ba725466d063c49042a2c6650c",
      "s": "0x656b472e213337ab42a49a6853dad817df6d2937beabb69e95c0b209e7c8b2de",
      "v": 28,
      "creates": null,
      "raw": "0xf86f820242850d17650aa482520894830c991733d855e52b94068cef0c55ada3508e4a89056bc75e2d63100000801ca03d52e75c528d99d07638686e1522a4fb6abaf3ba725466d063c49042a2c6650ca0656b472e213337ab42a49a6853dad817df6d2937beabb69e95c0b209e7c8b2de",
      "networkId": 0,
      "chainId": 0
    },
    {
      "hash": "0x6a5fbc1bfdd4af697f0e087d0fb586dd49b52b2ddb7c712e06701e5b43b06dba",
      "blockHash": "0x04e40f4f0690c005c032d459901da49bef51b5bbaa654fa2495ee127418cd6a2",
      "blockNumber": 81237,
      "transactionIndex": 9,
      "confirmations": null,
      "from": "0x32Be343B94f860124dC4fEe278FDCBD38C102D88",
      "gasPrice": {
        "_hex": "0xd17650aa4"
      },
      "gasLimit": {
        "_hex": "0x5208"
      },
      "to": "0x511383aE8047747bE87166c004860a6E890211ed",
      "value": {
        "_hex": "0x56bc75e2d63100000"
      },
      "nonce": 579,
      "data": "0x",
      "r": "0x70bb4b77eb5862c10fdc8a0668a78348a9ce626014e4cee6ef6a52e29a98eec5",
      "s": "0x66ca67914203f5e78109a722d46371cebe5dcdc0e749624969d73ec4819c9a61",
      "v": 27,
      "creates": null,
      "raw": "0xf86f820243850d17650aa482520894511383ae8047747be87166c004860a6e890211ed89056bc75e2d63100000801ba070bb4b77eb5862c10fdc8a0668a78348a9ce626014e4cee6ef6a52e29a98eec5a066ca67914203f5e78109a722d46371cebe5dcdc0e749624969d73ec4819c9a61",
      "networkId": 0,
      "chainId": 0
    },
    {
      "hash": "0x33e861adbb1f98cc4de23cf8899d1260b102f0b8f34c564d403b077af9051926",
      "blockHash": "0x04e40f4f0690c005c032d459901da49bef51b5bbaa654fa2495ee127418cd6a2",
      "blockNumber": 81237,
      "transactionIndex": 10,
      "confirmations": null,
      "from": "0x32Be343B94f860124dC4fEe278FDCBD38C102D88",
      "gasPrice": {
        "_hex": "0xd17650aa4"
      },
      "gasLimit": {
        "_hex": "0x5208"
      },
      "to": "0xd9A6Ffe60B9C5e07f3D48A6880E3a2Ee4659cdb2",
      "value": {
        "_hex": "0x56bc75e2d63100000"
      },
      "nonce": 580,
      "data": "0x",
      "r": "0x59abfd9f06f40100a20b679ac9555152ed3bf58f92fe26e6ac40b222f40d26f9",
      "s": "0x557b1110b82a23ca096985142d9ac11d47c26ef2f0a5fdc273bfcfd2c2527ffd",
      "v": 28,
      "creates": null,
      "raw": "0xf86f820244850d17650aa482520894d9a6ffe60b9c5e07f3d48a6880e3a2ee4659cdb289056bc75e2d63100000801ca059abfd9f06f40100a20b679ac9555152ed3bf58f92fe26e6ac40b222f40d26f9a0557b1110b82a23ca096985142d9ac11d47c26ef2f0a5fdc273bfcfd2c2527ffd",
      "networkId": 0,
      "chainId": 0
    },
    {
      "hash": "0x6bd22e71b51b6746edf98920764e00f9095a8d43b35ef65c2c9d250093ba1eb6",
      "blockHash": "0x04e40f4f0690c005c032d459901da49bef51b5bbaa654fa2495ee127418cd6a2",
      "blockNumber": 81237,
      "transactionIndex": 11,
      "confirmations": null,
      "from": "0x32Be343B94f860124dC4fEe278FDCBD38C102D88",
      "gasPrice": {
        "_hex": "0xd17650aa4"
      },
      "gasLimit": {
        "_hex": "0x5208"
      },
      "to": "0x524a9711F61C296d9565F63465975A5DC42f24b6",
      "value": {
        "_hex": "0x56bc75e2d63100000"
      },
      "nonce": 581,
      "data": "0x",
      "r": "0xe62f0f30a047a1ae4c2e14a26607b2e16f26fa6058f8ef90253d1c4f18cf1d5f",
      "s": "0x50006e0ef378aa5b9cf9233c2e1fda6038d01b679758b79676dfdc245ce51a59",
      "v": 27,
      "creates": null,
      "raw": "0xf86f820245850d17650aa482520894524a9711f61c296d9565f63465975a5dc42f24b689056bc75e2d63100000801ba0e62f0f30a047a1ae4c2e14a26607b2e16f26fa6058f8ef90253d1c4f18cf1d5fa050006e0ef378aa5b9cf9233c2e1fda6038d01b679758b79676dfdc245ce51a59",
      "networkId": 0,
      "chainId": 0
    },
    {
      "hash": "0xd7a4538732cdfa9fe9ad18cd9c6a7a6a5dfa31587d2125017b465c7d141ac53d",
      "blockHash": "0x04e40f4f0690c005c032d459901da49bef51b5bbaa654fa2495ee127418cd6a2",
      "blockNumber": 81237,
      "transactionIndex": 12,
      "confirmations": null,
      "from": "0x32Be343B94f860124dC4fEe278FDCBD38C102D88",
      "gasPrice": {
        "_hex": "0xd17650aa4"
      },
      "gasLimit": {
        "_hex": "0x5208"
      },
      "to": "0x6E6317EAb4c1Bab0a8e31D208DD29aC40329c094",
      "value": {
        "_hex": "0x56bc75e2d63100000"
      },
      "nonce": 582,
      "data": "0x",
      "r": "0xf86aabed5261d22eaa086fc55633446a97ade524892e604acaf1ada00fa97a76",
      "s": "0x3db849a86928c811385bd4c75733d730fb6d6f48b57902a7671be040a26d594f",
      "v": 27,
      "creates": null,
      "raw": "0xf86f820246850d17650aa4825208946e6317eab4c1bab0a8e31d208dd29ac40329c09489056bc75e2d63100000801ba0f86aabed5261d22eaa086fc55633446a97ade524892e604acaf1ada00fa97a76a03db849a86928c811385bd4c75733d730fb6d6f48b57902a7671be040a26d594f",
      "networkId": 0,
      "chainId": 0
    },
    {
      "hash": "0x4a61c4ac0286f1c138fa0633a0158c2c06be5bd4a4e66110636c7a20a93bb3d9",
      "blockHash": "0x04e40f4f0690c005c032d459901da49bef51b5bbaa654fa2495ee127418cd6a2",
      "blockNumber": 81237,
      "transactionIndex": 13,
      "confirmations": null,
      "from": "0x32Be343B94f860124dC4fEe278FDCBD38C102D88",
      "gasPrice": {
        "_hex": "0xd17650aa4"
      },
      "gasLimit": {
        "_hex": "0x5208"
      },
      "to": "0x00e495AFb1Be133aE0C1352f1c2e9623089080BD",
      "value": {
        "_hex": "0xa50f169bf54d60000"
      },
      "nonce": 583,
      "data": "0x",
      "r": "0x7855f0c916021f67424694dda529a891516d707ab04a8c090a8e65a2f0535a6a",
      "s": "0x148051f106d5e9829f548d4396e1c0ee7aebe8ec4b47103b5fc92dcbedda63f4",
      "v": 27,
      "creates": null,
      "raw": "0xf86f820247850d17650aa48252089400e495afb1be133ae0c1352f1c2e9623089080bd890a50f169bf54d60000801ba07855f0c916021f67424694dda529a891516d707ab04a8c090a8e65a2f0535a6aa0148051f106d5e9829f548d4396e1c0ee7aebe8ec4b47103b5fc92dcbedda63f4",
      "networkId": 0,
      "chainId": 0
    }
  ]
}