{
  "hash": "0x1578c527df965aea529fd9bfa90f2c4ed50d9842e51d22d7a8b1c68a0c29d8c9",
  "parentHash": "0x6de0e6a6b64d45c81dbd1f2044a5fe02f90ddaf5bb49b5ae985d273198596381",
  "number": 48596,
  "timestamp": 1438959630,
  "nonce": "0x3de1404fbbfa5d78",
  "difficulty": 1468573888588,
  "gasLimit": {
    "_hex": "0x1a363"
  },
  "gasUsed": {
    "_hex": "0xa410"
  },
  "miner": "0x6C7D49278385fb300181619cAa62a5b665FBA35c",
  "extraData": "0x476574682f76312e302e312d38326566323666362f6c696e75782f676f312e34",
  "transactions": [
    {
      "hash": "0x142f28aa35f26bfcc11f7a2ba29f3673e2a40e6ffa41129c62820d11212096d0",
      "blockHash": "0x1578c527df965aea529fd9bfa90f2c4ed50d9842e51d22d7a8b1c68a0c29d8c9",
      "blockNumber": 48596,
      "transactionIndex": 0,
      "confirmations": null,
      "from": "0x151e1b655BC131b5aCf57Df4C4193029a2Af43bE",
      "gasPrice": {
        "_hex": "0xd3d50fe83"
      },
      "gasLimit": {
        "_hex": "0x5208"
      },
      "to": "0x32Be343B94f860124dC4fEe278FDCBD38C102D88",
      "value": {
        "_hex": "0x56bc3201f5498c000"
      },
      "nonce": 0,
      "data": "0x",
      "r": "0x1d20275ea43c2d8c793a3f735d39e1b0cd6b2b5884833500930f9a387190e7cb",
      "s": "0x31ac4a352909f87f1a381664acdf4071cda4e0a30c871ab8a350dace1a93d085",
      "v": 28,
      "creates": null,
      "raw": "0xf86d80850d3d50fe838252089432be343b94f860124dc4fee278fdcbd38c102d8889056bc3201f5498c000801ca01d20275ea43c2d8c793a3f735d39e1b0cd6b2b5884833500930f9a387190e7cba031ac4a352909f87f1a381664acdf4071cda4e0a30c871ab8a350dace1a93d085",
      "networkId": 0,
      "chainId": 0
    },
    {
      "hash": "0xcc7bdc3a7cec46c0d93600386a18bd09cfdd84332468c4008f004838a7bb90c9",
      "blockHash": "0x1578c527df965aea529fd9bfa90f2c4ed50d9842e51d22d7a8b1c68a0c29d8c9",
      "blockNumber": 48596,
      "transactionIndex": 1,
      "confirmations": null,
      "from": "0xca27A415D8B5B925BdB0e27FA1448B3b20F273aB",
      "gasPrice": {
        "_hex": "0xd3d50fe83"
      },
      "gasLimit": {
        "_hex": "0x5208"
      },
      "to": "0x32Be343B94f860124dC4fEe278FDCBD38C102D88",
      "value": {
        "_hex": "0x455f5374367ccc00"
      },
      "nonce": 0,
      "data": "0x",
      "r": "0xd72221c68af8a632061b8534cda6508a8f2596fcd43208a6e66966ce165bbad5",
      "s": "0x1b2c51e956f315883645b3c8c8bdfb8cd0d558bca3a09c816d533b00860e7d1c",
      "v": 28,
      "creates": null,
      "raw": "0xf86c80850d3d50fe838252089432be343b94f860124dc4fee278fdcbd38c102d8888455f5374367ccc00801ca0d72221c68af8a632061b8534cda6508a8f2596fcd43208a6e66966ce165bbad5a01b2c51e956f315883645b3c8c8bdfb8cd0d558bca3a09c816d533b00860e7d1c",
      "networkId": 0,
      "chainId": 0
    }
  ]
}