{
  "hash": "0xc1262dec8d0aea5519b5aaaa7af447b61cab1271c51d775dc352fef0cb180823",
  "parentHash": "0xa8960530b95a55915d8ebdcd52e0d2742bb2e1d200f024f3633629bcfe693a6f",
  "number": 79387,
  "timestamp": 1439468718,
  "nonce": "0x68e72cf1adbc35ac",
  "difficulty": 2348474059841,
  "gasLimit": {
    "_hex": "0x2fefd5"
  },
  "gasUsed": {
    "_hex": "0x5208"
  },
  "miner": "0x0089508679abF8c71BF6781687120e3E6a84584D",
  "extraData": "0x",
  "transactions": [
    {
      "hash": "0x958cd804aa789f102581413dfe3f1d84c5dbc693e77d22496253f8183fb8c6c1",
      "blockHash": "0xc1262dec8d0aea5519b5aaaa7af447b61cab1271c51d775dc352fef0cb180823",
      "blockNumber": 79387,
      "transactionIndex": 0,
      "confirmations": null,
      "from": "0xC99478b218E58F45783fA70f0507cf614938E67d",
      "gasPrice": {
        "_hex": "0xd1f217cbf"
      },
      "gasLimit": {
        "_hex": "0x15f90"
      },
      "to": "0xC3fe64D1af00F0d9c324E4387EF7533f7D788e95",
      "value": {
        "_hex": "0x21d3bd55e803c0000"
      },
      "nonce": 13,
      "data": "0x",
      "r": "0xee74359abb7b4e2032fbc6398f05d6b8e78c4753a092836c4f311acee7961273",
      "s": "0x5bbd6f56a534d4bcc1576da2dc276201100a26aeb7fc580f2067adcfc70d00e7",
      "v": 28,
      "creates": null,
      "raw": "0xf86e0d850d1f217cbf83015f9094c3fe64d1af00f0d9c324e4387ef7533f7d788e9589021d3bd55e803c0000801ca0ee74359abb7b4e2032fbc6398f05d6b8e78c4753a092836c4f311acee7961273a05bbd6f56a534d4bcc1576da2dc276201100a26aeb7fc580f2067adcfc70d00e7",
      "networkId": 0,
      "chainId": 0
    }
  ]
}