{
  "hash": "0x5540c623e5d51ec34f9a677f471cc18728437eb44a3e859fcafc35fe1422f15a",
  "parentHash": "0xf6778038db5736c3d66a25a17229198326fab8a9d728c5a3e2a2db74aa876343",
  "number": 91191,
  "timestamp": 1439651731,
  "nonce": "0x77e55d7bdd9c2dc5",
  "difficulty": 3442327106948,
  "gasLimit": {
    "_hex": "0x2fefd5"
  },
  "gasUsed": {
    "_hex": "0x5208"
  },
  "miner": "0x9D49F602b0fdb924Bd63DDE2Bd0907E4A07c63a7",
  "extraData": "0x476574682f76312e302e312f6c696e75782f676f312e342e32",
  "transactions": [
    {
      "hash": "0x752d8798f49d919f80b60a4522affbe9b6cb3a8c8dd03eeb61368bfb70c75603",
      "blockHash": "0x5540c623e5d51ec34f9a677f471cc18728437eb44a3e859fcafc35fe1422f15a",
      "blockNumber": 91191,
      "transactionIndex": 0,
      "confirmations": null,
      "from": "0x87898CE53471043FcCa0a2aF4E1dC6d8B3fCf607",
      "gasPrice": {
        "_hex": "0xd41fd65f7"
      },
      "gasLimit": {
        "_hex": "0x5208"
      },
      "to": "0xBFdD9820a04283b289957956353b5F3C1F665EcF",
      "value": {
        "_hex": "0x332ca1b67940c0000"
      },
      "nonce": 39,
      "data": "0x",
      "r": "0x6c68122d9951b4293107b53fd6f2ead5da7e2314414e27ca6f87c25bed5fd2c4",
      "s": "0x7257bf57b94e1c9518ddcaf4e2409b27531364fdac6fb86d86eb85ca1723d02e",
      "v": 28,
      "creates": null,
      "raw": "0xf86d27850d41fd65f782520894bfdd9820a04283b289957956353b5f3c1f665ecf890332ca1b67940c0000801ca06c68122d9951b4293107b53fd6f2ead5da7e2314414e27ca6f87c25bed5fd2c4a07257bf57b94e1c9518ddcaf4e2409b27531364fdac6fb86d86eb85ca1723d02e",
      "networkId": 0,
      "chainId": 0
    }
  ]
}