{
  "hash": "0xafa7b913a3c8e6c1ef60a36a12ec5e09de74b18643358dbdb4254104ac22e4a3",
  "parentHash": "0xc3623f63fbccb9b5d58a0c54bab1cc1563fa89e90b173e666c9932d1e5bb1e4f",
  "number": 122256,
  "timestamp": 1440190944,
  "nonce": "0x5a240a15c0ea341e",
  "difficulty": 4466498049249,
  "gasLimit": {
    "_hex": "0x2fefd8"
  },
  "gasUsed": {
    "_hex": "0x5208"
  },
  "miner": "0x580992B51e3925e23280EfB93d3047C82f17E038",
  "extraData": "0x",
  "transactions": [
    {
      "hash": "0xcb9ec8246857d36ee19605725766bc57dd62bff9215e799284bef4dc5e71eb3f",
      "blockHash": "0xafa7b913a3c8e6c1ef60a36a12ec5e09de74b18643358dbdb4254104ac22e4a3",
      "blockNumber": 122256,
      "transactionIndex": 0,
      "confirmations": null,
      "from": "0x32Be343B94f860124dC4fEe278FDCBD38C102D88",
      "gasPrice": {
        "_hex": "0xd9a7b6869"
      },
      "gasLimit": {
        "_hex": "0x5208"
      },
      "to": "0x8F68fbE2DCFf038C24F650C9e05Ee478038171cd",
      "value": {
        "_hex": "0x5320c1437c970000"
      },
      "nonce": 1599,
      "data": "0x",
      "r": "0xa807a0c783328dc4dbd44fcb81b39eda25e0b1ebd3fe32ff7db70da2bc9e1c05",
      "s": "0x5579c6d530b69a710071cdf29b5f6d215be204a36638128d0a4647716d9a400c",
      "v": 28,
      "creates": null,
      "raw": "0xf86e82063f850d9a7b6869825208948f68fbe2dcff038c24f650c9e05ee478038171cd885320c1437c970000801ca0a807a0c783328dc4dbd44fcb81b39eda25e0b1ebd3fe32ff7db70da2bc9e1c05a05579c6d530b69a710071cdf29b5f6d215be204a36638128d0a4647716d9a400c",
      "networkId": 0,
      "chainId": 0
    }
  ]
}