{
  "hash": "0xce3ab687022dab6a38022adad788c4a3079a4defd8e2842a00db5e06e8528d29",
  "parentHash": "0xcf6c736f0f49e022722b307bc0817945672fa82f7eb65ba8fef805ed4b384bce",
  "number": 82772,
  "timestamp": 1439524813,
  "nonce": "0x4188d9f0e26580db",
  "difficulty": 2383330734128,
  "gasLimit": {
    "_hex": "0x2fefd8"
  },
  "gasUsed": {
    "_hex": "0x5208"
  },
  "miner": "0xE13f83e0288E460362D9E7421f0601fB88C4fd91",
  "extraData": "0x476574682f76312e302e312f6c696e75782f676f312e342e32",
  "transactions": [
    {
      "hash": "0x410c2a250c53297151859012dbdd4fd3d6b1a4159000c54bdf386fc56539966e",
      "blockHash": "0xce3ab687022dab6a38022adad788c4a3079a4defd8e2842a00db5e06e8528d29",
      "blockNumber": 82772,
      "transactionIndex": 0,
      "confirmations": null,
      "from": "0x292A4665C62E2D22EA1cb391F797aFC2084156E0",
      "gasPrice": {
        "_hex": "0xba43b7400"
      },
      "gasLimit": {
        "_hex": "0x5208"
      },
      "to": "0xC47Aaa860008be6f65B58c6C6E02a84e666EfE31",
      "value": {
        "_hex": "0x8ac3680c5ce46000"
      },
      "nonce": 0,
      "data": "0x",
      "r": "0x0d37a00f8cf1876a05b281567330a73ca96b36ccaad00eeff36ff8d1d5633746",
      "s": "0x43ac626260470d1dd0eb57ce6f040f0c4430c348912faa36f7e7ba89f4ea970c",
      "v": 28,
      "creates": null,
      "raw": "0xf86c80850ba43b740082520894c47aaa860008be6f65b58c6c6e02a84e666efe31888ac3680c5ce46000801ca00d37a00f8cf1876a05b281567330a73ca96b36ccaad00eeff36ff8d1d5633746a043ac626260470d1dd0eb57ce6f040f0c4430c348912faa36f7e7ba89f4ea970c",
      "networkId": 0,
      "chainId": 0
    }
  ]
}