{
  "hash": "0xe89c2de692d05e9f7b0eeb2e1906bb58e36813ae0c51f5cae6e6308cf116fa1a",
  "parentHash": "0x61d0661264491add2302b843e83e4f02b0ab2502f32cc6043619328d3aeaa03c",
  "number": 90154,
  "timestamp": 1439635531,
  "nonce": "0x9ee23911c171c7ed",
  "difficulty": 3302789577053,
  "gasLimit": {
    "_hex": "0x2fefd8"
  },
  "gasUsed": {
    "_hex": "0x5208"
  },
  "miner": "0x157c6f2431eB1a95797EE86F7d17b3c0FD47A247",
  "extraData": "0x476574682f76312e302e312f77696e646f77732f676f312e342e32",
  "transactions": [
    {
      "hash": "0x0129afe425d6eab2aef3e55834bac8e11ccffa35dc77feb1b87dd6d55b340cd6",
      "blockHash": "0xe89c2de692d05e9f7b0eeb2e1906bb58e36813ae0c51f5cae6e6308cf116fa1a",
      "blockNumber": 90154,
      "transactionIndex": 0,
      "confirmations": null,
      "from": "0x797e99024A03481AD2a00ffe9c98Fe145c817969",
      "gasPrice": {
        "_hex": "0xd6673ca24"
      },
      "gasLimit": {
        "_hex": "0x15f90"
      },
      "to": "0x685628357ea28e77263Ea037E2fAd6D34E59ab10",
      "value": {
        "_hex": "0xb1a2bc2ec50000"
      },
      "nonce": 0,
      "data": "0x",
      "r": "0x93c8f56a12566eb4098d6c7e0a4bfe87ba6a63f328ff428561834423c3c111fd",
      "s": "0x70d638759c9b91677a6073b1c001e47fe2e176b923264c0686053e104f3d364c",
      "v": 28,
      "creates": null,
      "raw": "0xf86c80850d6673ca2483015f9094685628357ea28e77263ea037e2fad6d34e59ab1087b1a2bc2ec50000801ca093c8f56a12566eb4098d6c7e0a4bfe87ba6a63f328ff428561834423c3c111fda070d638759c9b91677a6073b1c001e47fe2e176b923264c0686053e104f3d364c",
      "networkId": 0,
      "chainId": 0
    }
  ]
}