{
  "hash": "0xc591ad926d8bf0c243540ac0b0e13119137449656d23256b91287a32951c48bd",
  "parentHash": "0x98a03ffbd8f39c5dd0594735b7439098485eff948893c8aad1867a98da4afa3e",
  "number": 110483,
  "timestamp": 1439974542,
  "nonce": "0xb8253bdbacc4dba6",
  "difficulty": 4371293225641,
  "gasLimit": {
    "_hex": "0x2fefd8"
  },
  "gasUsed": {
    "_hex": "0xa410"
  },
  "miner": "0xe6A7a1d47ff21B6321162AEA7C6CB457D5476Bca",
  "extraData": "0x476574682f76312e302e312d38326566323666362f6c696e75782f676f312e34",
  "transactions": [
    {
      "hash": "0x041aae2fb7e66df0b07ee3867725d4a0171dd5d043b23b0fdf150092c6c0771e",
      "blockHash": "0xc591ad926d8bf0c243540ac0b0e13119137449656d23256b91287a32951c48bd",
      "blockNumber": 110483,
      "transactionIndex": 0,
      "confirmations": null,
      "from": "0xdeE4977F74E6Aef6D627191c9A45D2627e331150",
      "gasPrice": {
        "_hex": "0xdb1041624"
      },
      "gasLimit": {
        "_hex": "0x5208"
      },
      "to": "0x32Be343B94f860124dC4fEe278FDCBD38C102D88",
      "value": {
        "_hex": "0x1a05105ed61eea000"
      },
      "nonce": 23,
      "data": "0x",
      "r": "0xc1525110fb9837a5f1b1569b039b1085ffc3e659d37807b3feac358c629104f4",
      "s": "0x6a4ae9e349173c66527d8fe0515b978853824adc4a6c8c9db4e374de938d63af",
      "v": 27,
      "creates": null,
      "raw": "0xf86d17850db10416248252089432be343b94f860124dc4fee278fdcbd38c102d888901a05105ed61eea000801ba0c1525110fb9837a5f1b1569b039b1085ffc3e659d37807b3feac358c629104f4a06a4ae9e349173c66527d8fe0515b978853824adc4a6c8c9db4e374de938d63af",
      "networkId": 0,
      "chainId": 0
    },
    {
      "hash": "0xa17edf9ff86ff1bb2138647daf0ebc3087c6c4e18b5eaf1b4ce7f58edd5b8029",
      "blockHash": "0xc591ad926d8bf0c243540ac0b0e13119137449656d23256b91287a32951c48bd",
      "blockNumber": 110483,
      "transactionIndex": 1,
      "confirmations": null,
      "from": "0x907f5b522A971955E203A6B7048615AD520ba62f",
      "gasPrice": {
        "_hex": "0xba43b7400"
      },
      "gasLimit": {
        "_hex": "0x5208"
      },
      "to": "0xC47Aaa860008be6f65B58c6C6E02a84e666EfE31",
      "value": {
        "_hex": "0x36f61b1e7849c800"
      },
      "nonce": 0,
      "data": "0x",
      "r": "0xaf66081d53367c3f4cbc766f73635c539f82572b9520b24971c560ebcb4d6d5a",
      "s": "0x5f014b4dde799bbd4d720e54508350137abea73119f5296c4f2c9f7426fadd4f",
      "v": 27,
      "creates": null,
      "raw": "0xf86c80850ba43b740082520894c47aaa860008be6f65b58c6c6e02a84e666efe318836f61b1e7849c800801ba0af66081d53367c3f4cbc766f73635c539f82572b9520b24971c560ebcb4d6d5aa05f014b4dde799bbd4d720e54508350137abea73119f5296c4f2c9f7426fadd4f",
      "networkId": 0,
      "chainId": 0
    }
  ]
}