{
  "hash": "0x822e4af12701a90f5d059e75a376f82dcb947434a1b8d86f1cc2f9ea73419285",
  "parentHash": "0xb9590f711acbf0893e60a3cec59449256cc94a75aef93838cd35a37f9ee6d1c1",
  "number": 52972,
  "timestamp": 1439030438,
  "nonce": "0xdb6cd90cd99b2dee",
  "difficulty": 1567057753558,
  "gasLimit": {
    "_hex": "0x1cd43c"
  },
  "gasUsed": {
    "_hex": "0x546c"
  },
  "miner": "0xeB1325C8D9d3ea8D74aC11F4B00F1B2367686319",
  "extraData": "0x476574682f76312e302e312f77696e646f77732f676f312e342e32",
  "transactions": [
    {
      "hash": "0x236b0e405b1d0ce20f39f9e95c15ab8b576570e448f33301a6b4cc0c08014b6d",
      "blockHash": "0x822e4af12701a90f5d059e75a376f82dcb947434a1b8d86f1cc2f9ea73419285",
      "blockNumber": 52972,
      "transactionIndex": 0,
      "confirmations": null,
      "from": "0x2da617695009cc57d26Ad490B32a5DFBEB934e5E",
      "gasPrice": {
        "_hex": "0xde6b51ff4"
      },
      "gasLimit": {
        "_hex": "0x15f90"
      },
      "to": "0x2910543Af39abA0Cd09dBb2D50200b3E800A63D2",
      "value": {
        "_hex": "0x21e19bd42c8427f0000"
      },
      "nonce": 0,
      "data": "0x454e354b394b523138",
      "r": "0x9cc03aaaad4323cd0794858533037fa7ce7a6ce73e60384c3c81d10a949239de",
      "s": "0x740efa75bb45c43ba97a7e0cd166c379d273f75d5a90ac6f0d52ea5ce7d9ad61",
      "v": 28,
      "creates": null,
      "raw": "0xf87880850de6b51ff483015f90942910543af39aba0cd09dbb2d50200b3e800a63d28a021e19bd42c8427f000089454e354b394b5231381ca09cc03aaaad4323cd0794858533037fa7ce7a6ce73e60384c3c81d10a949239dea0740efa75bb45c43ba97a7e0cd166c379d273f75d5a90ac6f0d52ea5ce7d9ad61",
      "networkId": 0,
      "chainId": 0
    }
  ]
}