{
  "hash": "0x3bb0f13ff0774cff50dec6a185c8f2099a305587407212d650e3b0e985411581",
  "parentHash": "0xfa5b9601b10d7d64ab3da9ab1ee4cd65b80e8523a87a4b6faeb16d38ffca38f4",
  "number": 104802,
  "timestamp": 1439875944,
  "nonce": "0x8f17756de0449aff",
  "difficulty": 4359329046031,
  "gasLimit": {
    "_hex": "0x2fefd8"
  },
  "gasUsed": {
    "_hex": "0x5208"
  },
  "miner": "0xe6A7a1d47ff21B6321162AEA7C6CB457D5476Bca",
  "extraData": "0x476574682f76312e302e312d38326566323666362f6c696e75782f676f312e34",
  "transactions": [
    {
      "hash": "0xf703762d7869b4aee6ac4b3932b28b35dcc8f5f5bc99402e2683145451960665",
      "blockHash": "0x3bb0f13ff0774cff50dec6a185c8f2099a305587407212d650e3b0e985411581",
      "blockNumber": 104802,
      "transactionIndex": 0,
      "confirmations": null,
      "from": "0x007f7f58D3eb5b7510A301eCC749FC1fCDDBE14D",
      "gasPrice": {
        "_hex": "0xe0cfe7246"
      },
      "gasLimit": {
        "_hex": "0x15f90"
      },
      "to": "0xb1abce2918E21ddb93AA452731a12672A3d9F75a",
      "value": {
        "_hex": "0x4563918244f40000"
      },
      "nonce": 241,
      "data": "0x",
      "r": "0xb29388ec2238083c05b1f25e39affd381b92a54c5ffd10ee93c6f801a65b6074",
      "s": "0x294f50460e57440b8267e7a5cb9872cc760f93647c48de553c1712634da0b23d",
      "v": 28,
      "creates": null,
      "raw": "0xf86e81f1850e0cfe724683015f9094b1abce2918e21ddb93aa452731a12672a3d9f75a884563918244f40000801ca0b29388ec2238083c05b1f25e39affd381b92a54c5ffd10ee93c6f801a65b6074a0294f50460e57440b8267e7a5cb9872cc760f93647c48de553c1712634da0b23d",
      "networkId": 0,
      "chainId": 0
    }
  ]
}