{
  "hash": "0xac71933a0568d8dc5f991ce6f5a8ec6f4293d3b690816186e7098a3a041b7539",
  "parentHash": "0xc0b1f3823e79c756fdaf51fdf658e7ebac1e75f1dea54c75c43d8f36a9b754b0",
  "number": 88417,
  "timestamp": 1439607657,
  "nonce": "0x181fa113b1647573",
  "difficulty": 3215937874337,
  "gasLimit": {
    "_hex": "0x2fefd8"
  },
  "gasUsed": {
    "_hex": "0xa410"
  },
  "miner": "0x123843545FB525C8E134c9A5F15ADA6865cc3848",
  "extraData": "0x476574682f76312e302e312f77696e646f77732f676f312e342e32",
  "transactions": [
    {
      "hash": "0x685eb5584645e12c485765266e0324df690cf517694c3d1943ce62420dfefa7a",
      "blockHash": "0xac71933a0568d8dc5f991ce6f5a8ec6f4293d3b690816186e7098a3a041b7539",
      "blockNumber": 88417,
      "transactionIndex": 0,
      "confirmations": null,
      "from": "0xa6BDc31c431B8F97848c9D60cbbe9660dc450eB7",
      "gasPrice": {
        "_hex": "0xccabb7e68"
      },
      "gasLimit": {
        "_hex": "0x5208"
      },
      "to": "0x32Be343B94f860124dC4fEe278FDCBD38C102D88",
      "value": {
        "_hex": "0x455f782b95ff4000"
      },
      "nonce": 84,
      "data": "0x",
      "r": "0xb3700630b948778516cde52dd1f89de2412f658d97b4e6578cfd692ec7fecb83",
      "s": "0x6f7e09a64909072ab61af3742cf0bcd89b40a504395f3abf6a2298853979f943",
      "v": 27,
      "creates": null,
      "raw": "0xf86c54850ccabb7e688252089432be343b94f860124dc4fee278fdcbd38c102d8888455f782b95ff4000801ba0b3700630b948778516cde52dd1f89de2412f658d97b4e6578cfd692ec7fecb83a06f7e09a64909072ab61af3742cf0bcd89b40a504395f3abf6a2298853979f943",
      "networkId": 0,
      "chainId": 0
    },
    {
      "hash": "0xb10f9387aecd1e474caf960df330cc06c3e67664ef2db1fc6ef9114cde918097",
      "blockHash": "0xac71933a0568d8dc5f991ce6f5a8ec6f4293d3b690816186e7098a3a041b7539",
      "blockNumber": 88417,
      "transactionIndex": 1,
      "confirmations": null,
      "from": "0xf2Ae859397af92154241eAd0aC7c4ce3bea76E8F",
      "gasPrice": {
        "_hex": "0xcaf30806f"
      },
      "gasLimit": {
        "_hex": "0x15f90"
      },
      "to": "0xC2B34a73703b5274E7B7ec06F35895bA696Bac3f",
      "value": {
        "_hex": "0x2386f26fc10000"
      },
      "nonce": 24,
      "data": "0x",
      "r": "0x4070aeb3474dd8070ecfef47c08f507af233f6a99e5bd241ca61945a4887b4b1",
      "s": "0x72122316391864e95c7c34b1bb96da8f8e98e3b7c63c635b671c10f5f0933d87",
      "v": 27,
      "creates": null,
      "raw": "0xf86c18850caf30806f83015f9094c2b34a73703b5274e7b7ec06f35895ba696bac3f872386f26fc10000801ba04070aeb3474dd8070ecfef47c08f507af233f6a99e5bd241ca61945a4887b4b1a072122316391864e95c7c34b1bb96da8f8e98e3b7c63c635b671c10f5f0933d87",
      "networkId": 0,
      "chainId": 0
    }
  ]
}