{
  "hash": "0x12253a9cc7d7b9624fcf58a1152a25611dcb442a0be6fc36d2e75020a1df7ff5",
  "parentHash": "0x30d7cbdad79acc2ba3f8a29578d05d0c2b42acfdf7ffaef54f4f8eadcc58a2c2",
  "number": 101306,
  "timestamp": 1439820896,
  "nonce": "0xca4c5d6bb2493061",
  "difficulty": 3811295955290,
  "gasLimit": {
    "_hex": "0x2fefd8"
  },
  "gasUsed": {
    "_hex": "0x19a28"
  },
  "miner": "0x9D49F602b0fdb924Bd63DDE2Bd0907E4A07c63a7",
  "extraData": "0x476574682f76312e302e312f6c696e75782f676f312e342e32",
  "transactions": [
    {
      "hash": "0xcd3e489656e8236e673b2392bb38dde46d0f7d92c2f3875465c400acdea1de60",
      "blockHash": "0x12253a9cc7d7b9624fcf58a1152a25611dcb442a0be6fc36d2e75020a1df7ff5",
      "blockNumber": 101306,
      "transactionIndex": 0,
      "confirmations": null,
      "from": "0x95B8Be50517B180F2F101f1cFe0E4C66Ad6fa7dd",
      "gasPrice": {
        "_hex": "0xdb57337a0"
      },
      "gasLimit": {
        "_hex": "0x15f90"
      },
      "to": "0xbCab99c9250A69cCD7395f2543ed52FF1e220398",
      "value": {
        "_hex": "0x0"
      },
      "nonce": 13,
      "data": "0x",
      "r": "0xe4c8cfe75c4e1dac7f00cbf5b20659fe91ee27f734897a959e639be1dd93e498",
      "s": "0x7f198fa8a08b806fad2f3905f782b588fba234f00baf1159a16131d743a5e302",
      "v": 28,
      "creates": null,
      "raw": "0xf8650d850db57337a083015f9094bcab99c9250a69ccd7395f2543ed52ff1e22039880801ca0e4c8cfe75c4e1dac7f00cbf5b20659fe91ee27f734897a959e639be1dd93e498a07f198fa8a08b806fad2f3905f782b588fba234f00baf1159a16131d743a5e302",
      "networkId": 0,
      "chainId": 0
    },
    {
      "hash": "0xd9c44cdc31f98f82d4c7fc54c96cccbce104cfdef53acac96580bdd45d8baffd",
      "blockHash": "0x12253a9cc7d7b9624fcf58a1152a25611dcb442a0be6fc36d2e75020a1df7ff5",
      "blockNumber": 101306,
      "transactionIndex": 1,
      "confirmations": null,
      "from": "0xb1abce2918E21ddb93AA452731a12672A3d9F75a",
      "gasPrice": {
        "_hex": "0xd2032fd0d"
      },
      "gasLimit": {
        "_hex": "0x5208"
      },
      "to": "0x32Be343B94f860124dC4fEe278FDCBD38C102D88",
      "value": {
        "_hex": "0x455f5ccb62307800"
      },
      "nonce": 88,
      "data": "0x",
      "r": "0xcd055b727635eff9df55b3dab243e3c0c5b62615defd58f3ed737e85dab59ac5",
      "s": "0x5068b65de1ab0dad193582a0ad639578b2ae948d7433c68a122b7cfaaec671d2",
      "v": 28,
      "creates": null,
      "raw": "0xf86c58850d2032fd0d8252089432be343b94f860124dc4fee278fdcbd38c102d8888455f5ccb62307800801ca0cd055b727635eff9df55b3dab243e3c0c5b62615defd58f3ed737e85dab59ac5a05068b65de1ab0dad193582a0ad639578b2ae948d7433c68a122b7cfaaec671d2",
      "networkId": 0,
      "chainId": 0
    },
    {
      "hash": "0xfdab94f0356762ada2e4da69d3586d5996b6294db05798bad40f2b1d4f0ec8a1",
      "blockHash": "0x12253a9cc7d7b9624fcf58a1152a25611dcb442a0be6fc36d2e75020a1df7ff5",
      "blockNumber": 101306,
      "transactionIndex": 2,
      "confirmations": null,
      "from": "0xd5d9a0033e6B0A3ba7634d0e1a9055ad5f452C3D",
      "gasPrice": {
        "_hex": "0xd2032fd0d"
      },
      "gasLimit": {
        "_hex": "0x5208"
      },
      "to": "0x32Be343B94f860124dC4fEe278FDCBD38C102D88",
      "value": {
        "_hex": "0xc327c5f2ce8148000"
      },
      "nonce": 9,
      "data": "0x",
      "r": "0x5cc956f7243ba5d1dbb56f9419d561c8a56cb09bc4efcb6bd1f37db3c731c219",
      "s": "0x400fcffe72f92e8c736d9a46e0c79cc66c6aa1d692b1da5899625e4f99cf777f",
      "v": 28,
      "creates": null,
      "raw": "0xf86d09850d2032fd0d8252089432be343b94f860124dc4fee278fdcbd38c102d88890c327c5f2ce8148000801ca05cc956f7243ba5d1dbb56f9419d561c8a56cb09bc4efcb6bd1f37db3c731c219a0400fcffe72f92e8c736d9a46e0c79cc66c6aa1d692b1da5899625e4f99cf777f",
      "networkId": 0,
      "chainId": 0
    },
    {
      "hash": "0x24183e62906a308f62c0d5e54e678ea41137861c57c7769774f3395e372e62ea",
      "blockHash": "0x12253a9cc7d7b9624fcf58a1152a25611dcb442a0be6fc36d2e75020a1df7ff5",
      "blockNumber": 101306,
      "transactionIndex": 3,
      "confirmations": null,
      "from": "0x7E4252d3d1881b358f2c1Fc2264ce4C27B83683d",
      "gasPrice": {
        "_hex": "0xd2032fd0d"
      },
      "gasLimit": {
        "_hex": "0x5208"
      },
      "to": "0x32Be343B94f860124dC4fEe278FDCBD38C102D88",
      "value": {
        "_hex": "0x30b9d4ae653e6c00"
      },
      "nonce": 3,
      "data": "0x",
      "r": "0xf903933136e59766a4eee4043578a6e5f62001059aa103abb69dbfba2f405bce",
      "s": "0x6ec9ecaa88ef0d57f19f3993d19e7b9a87bd18cc4ce54d50f3af5fafdbdba094",
      "v": 28,
      "creates": null,
      "raw": "0xf86c03850d2032fd0d8252089432be343b94f860124dc4fee278fdcbd38c102d888830b9d4ae653e6c00801ca0f903933136e59766a4eee4043578a6e5f62001059aa103abb69dbfba2f405bcea06ec9ecaa88ef0d57f19f3993d19e7b9a87bd18cc4ce54d50f3af5fafdbdba094",
      "networkId": 0,
      "chainId": 0
    },
    {
      "hash": "0x87a07cc23e86fa2ddba992d77b7f3c2c8ecd8645aa5aebe2e11f75b0ea7240ec",
      "blockHash": "0x12253a9cc7d7b9624fcf58a1152a25611dcb442a0be6fc36d2e75020a1df7ff5",
      "blockNumber": 101306,
      "transactionIndex": 4,
      "confirmations": null,
      "from": "0xa50ec0D39fa913E62f1Bae7074E6F36caA71855b",
      "gasPrice": {
        "_hex": "0xcc582596c"
      },
      "gasLimit": {
        "_hex": "0x15f90"
      },
      "to": "0x1d4809C0d4d58fcdF11d960e27b83CBf0F784962",
      "value": {
        "_hex": "0xde0b6b3a7640000"
      },
      "nonce": 1,
      "data": "0x",
      "r": "0x12fa1593ac3c72fd49a35b059e1b4112fd283f61d3de2d8dab5355d38f1c9f76",
      "s": "0x724db0e480e01f56bbf0632daf795828a03b276b36d0172c78717dcad6c52ecd",
      "v": 27,
      "creates": null,
      "raw": "0xf86d01850cc582596c83015f90941d4809c0d4d58fcdf11d960e27b83cbf0f784962880de0b6b3a7640000801ba012fa1593ac3c72fd49a35b059e1b4112fd283f61d3de2d8dab5355d38f1c9f76a0724db0e480e01f56bbf0632daf795828a03b276b36d0172c78717dcad6c52ecd",
      "networkId": 0,
      "chainId": 0
    }
  ]
}