{
  "hash": "0xb50ce9cc03fa2189fed1e023dff56664fd828ab3f46c874e72e79752b2aae8b8",
  "parentHash": "0xcaa3f283f67642ad0791d0e50271d935ed1405b2455a754903c9857e11b39413",
  "number": 75303,
  "timestamp": 1439400900,
  "nonce": "0x66f63cb28f2d486c",
  "difficulty": 2200804420371,
  "gasLimit": {
    "_hex": "0x2fefd8"
  },
  "gasUsed": {
    "_hex": "0x8f9f"
  },
  "miner": "0x65Fe776c996eB7c15f86F236B945353b9a18f335",
  "extraData": "0x476574682f76312e302e312f77696e646f77732f676f312e342e32",
  "transactions": [
    {
      "hash": "0x478a9b4a6dee03cfcac5f2772d42903bc69e1575d074155e2ce35be5b2d64d15",
      "blockHash": "0xb50ce9cc03fa2189fed1e023dff56664fd828ab3f46c874e72e79752b2aae8b8",
      "blockNumber": 75303,
      "transactionIndex": 0,
      "confirmations": null,
      "from": "0x9724Ac4dc56e03379eBA5d157D1513EcC32cBD8f",
      "gasPrice": {
        "_hex": "0xcd640184a"
      },
      "gasLimit": {
        "_hex": "0x493e0"
      },
      "to": "0xD79B4C6791784184e2755B2fC1659eaaB0f80456",
      "value": {
        "_hex": "0xde0b6b3a7640000"
      },
      "nonce": 4,
      "data": "0x8d21618600000000000000000000000000000000000000000000000000000000000000b32a25b4a3a3934564975b404bb6b7bd597bfb3d2331967e187acbeaa4ea359e32",
      "r": "0x0b9e707090ac029d0dedec69926c7555d94584d81676d5d453b85868e4f0a70a",
      "s": "0x133164c05b3d891feac5140f34ac1f5d96785294b7a06ad1d8e19a5cbae8c1ad",
      "v": 28,
      "creates": null,
      "raw": "0xf8b204850cd640184a830493e094d79b4c6791784184e2755b2fc1659eaab0f80456880de0b6b3a7640000b8448d21618600000000000000000000000000000000000000000000000000000000000000b32a25b4a3a3934564975b404bb6b7bd597bfb3d2331967e187acbeaa4ea359e321ca00b9e707090ac029d0dedec69926c7555d94584d81676d5d453b85868e4f0a70aa0133164c05b3d891feac5140f34ac1f5d96785294b7a06ad1d8e19a5cbae8c1ad",
      "networkId": 0,
      "chainId": 0
    }
  ]
}