{
  "hash": "0x25be43010ddd491e4db0c1887908a640dbf73bda988b36956750ab036a17aca2",
  "parentHash": "0x237ecad83ca10d91d9d6bbcbd9b43ac28085b8fa7a73787f7184cab4c2c16ba0",
  "number": 94605,
  "timestamp": 1439710938,
  "nonce": "0x3f17a4c51ff86ba5",
  "difficulty": 3508792629945,
  "gasLimit": {
    "_hex": "0x2fefd8"
  },
  "gasUsed": {
    "_hex": "0x5208"
  },
  "miner": "0xe6A7a1d47ff21B6321162AEA7C6CB457D5476Bca",
  "extraData": "0x476574682f76312e302e312d38326566323666362f6c696e75782f676f312e34",
  "transactions": [
    {
      "hash": "0xc766578854fd270a71742ebb464e2deb4751c0bf878453318768cdd93b985c4c",
      "blockHash": "0x25be43010ddd491e4db0c1887908a640dbf73bda988b36956750ab036a17aca2",
      "blockNumber": 94605,
      "transactionIndex": 0,
      "confirmations": null,
      "from": "0x007f7f58D3eb5b7510A301eCC749FC1fCDDBE14D",
      "gasPrice": {
        "_hex": "0xcc8ddf695"
      },
      "gasLimit": {
        "_hex": "0x15f90"
      },
      "to": "0xb1abce2918E21ddb93AA452731a12672A3d9F75a",
      "value": {
        "_hex": "0x4563918244f40000"
      },
      "nonce": 36,
      "data": "0x",
      "r": "0x38266ae2fec913cb7b02c79f502bc74e00a033340bb6ecb01203df15b5c266ef",
      "s": "0x33038504710a6a4a1afd56059dc01792afe825b8a2bd38beb34b550bc3a9512a",
      "v": 28,
      "creates": null,
      "raw": "0xf86d24850cc8ddf69583015f9094b1abce2918e21ddb93aa452731a12672a3d9f75a884563918244f40000801ca038266ae2fec913cb7b02c79f502bc74e00a033340bb6ecb01203df15b5c266efa033038504710a6a4a1afd56059dc01792afe825b8a2bd38beb34b550bc3a9512a",
      "networkId": 0,
      "chainId": 0
    }
  ]
}