{
  "hash": "0x25b438514606b36249f3fefd41c5d3b3d9b8bdef07bc6bb2c5ce9964cd7ccc89",
  "parentHash": "0xbaf7e807522b943eb875c9bcd5353867b7d1dd1ba39d75226894914ae55adf58",
  "number": 98184,
  "timestamp": 1439768406,
  "nonce": "0xb8b94e8d2c4de9cd",
  "difficulty": 3868976056505,
  "gasLimit": {
    "_hex": "0x2fefd8"
  },
  "gasUsed": {
    "_hex": "0x5ccd"
  },
  "miner": "0x580992B51e3925e23280EfB93d3047C82f17E038",
  "extraData": "0x476574682f76312e302e312f6c696e75782f676f312e342e32",
  "transactions": [
    {
      "hash": "0x215115635497f83fd06204c9ffb370030cbaabe2cbd4070f9a1f51490b97dee8",
      "blockHash": "0x25b438514606b36249f3fefd41c5d3b3d9b8bdef07bc6bb2c5ce9964cd7ccc89",
      "blockNumber": 98184,
      "transactionIndex": 0,
      "confirmations": null,
      "from": "0xd268fB48FA174088a25a120aFF0fd8eb0C2d4c87",
      "gasPrice": {
        "_hex": "0xd11f37662"
      },
      "gasLimit": {
        "_hex": "0x1e36d"
      },
      "to": "0xeDf619865C8303E591Ad2c4B373AAe82997B337a",
      "value": {
        "_hex": "0x0"
      },
      "nonce": 10,
      "data": "0xb61d27f6000000000000000000000000d268fb48fa174088a25a120aff0fd8eb0c2d4c870000000000000000000000000000000000000000000000001bc16d674ec80000000000000000000000000000000000000000000000000000000000000000006000000000000000000000000000000000000000000000000000000000000000000000000000000000000000000000000000000000000000000000000000000000",
      "r": "0x9cc491b0b2e77a09bff526f40a7b0a7fa61be770a5e77be264cfdc29f34ac1df",
      "s": "0x12e94b792b1c31abea9822f71a7099780fd66092ee214ad5f0400daa5f078ea6",
      "v": 28,
      "creates": null,
      "raw": "0xf9010a0a850d11f376628301e36d94edf619865c8303e591ad2c4b373aae82997b337a80b8a4b61d27f6000000000000000000000000d268fb48fa174088a25a120aff0fd8eb0c2d4c870000000000000000000000000000000000000000000000001bc16d674ec800000000000000000000000000000000000000000000000000000000000000000060000000000000000000000000000000000000000000000000000000000000000000000000000000000000000000000000000000000000000000000000000000001ca09cc491b0b2e77a09bff526f40a7b0a7fa61be770a5e77be264cfdc29f34ac1dfa012e94b792b1c31abea9822f71a7099780fd66092ee214ad5f0400daa5f078ea6",
      "networkId": 0,
      "chainId": 0
    }
  ]
}