{
  "hash": "0xd3d0630c7689940ec67a1e2135b63c704b4f97ea9242bef6eab9b24c6e75eac0",
  "parentHash": "0x88e059769e971fe62c6dbdd5836ce419124382205284e73d12b26c3f55edd6a0",
  "number": 46504,
  "timestamp": 1438924201,
  "nonce": "0x973033fda7832724",
  "difficulty": 1467506364047,
  "gasLimit": {
    "_hex": "0x656b"
  },
  "gasUsed": {
    "_hex": "0x5208"
  },
  "miner": "0xbb7B8287f3F0a933474a79eAe42CBCa977791171",
  "extraData": "0x476574682f4c5649562f76312e302e312f6c696e75782f676f312e342e32",
  "transactions": [
    {
      "hash": "0x46b5876b7b3b9949ccafee52e2567c3165f6a99a8f00c9db5d87a2f49a782a19",
      "blockHash": "0xd3d0630c7689940ec67a1e2135b63c704b4f97ea9242bef6eab9b24c6e75eac0",
      "blockNumber": 46504,
      "transactionIndex": 0,
      "confirmations": null,
      "from": "0xa89AC93b23370472DaAc337E9afdF642543F3E57",
      "gasPrice": {
        "_hex": "0x746a528800"
      },
      "gasLimit": {
        "_hex": "0x5208"
      },
      "to": "0xB5046cb3dC1DEDbd364514a2848E44C1dE4ED147",
      "value": {
        "_hex": "0x3635c9adc5dea00000"
      },
      "nonce": 8,
      "data": "0x",
      "r": "0x2cae479a68e70c187b3ba5180184d6d531fab8282e6eb25ca08b5d23ab65fcc7",
      "s": "0x4f7c2448a1070e22d67fe99c7eda8ee040eb829f167e628dc9b670c01a45945e",
      "v": 27,
      "creates": null,
      "raw": "0xf86d0885746a52880082520894b5046cb3dc1dedbd364514a2848e44c1de4ed147893635c9adc5dea00000801ba02cae479a68e70c187b3ba5180184d6d531fab8282e6eb25ca08b5d23ab65fcc7a04f7c2448a1070e22d67fe99c7eda8ee040eb829f167e628dc9b670c01a45945e",
      "networkId": 0,
      "chainId": 0
    }
  ]
}