{
  "hash": "0x845459d73738ae4ba922d52431547f430eb72734644d2ecfd7f51506836e44ec",
  "parentHash": "0xbf295bce948841542ab87c6f22108f7cb77ff6bb07b2473c041f81dcd263d978",
  "number": 69601,
  "timestamp": 1439306647,
  "nonce": "0xfa62b59d2269ee70",
  "difficulty": 2076967538990,
  "gasLimit": {
    "_hex": "0x2fefd8"
  },
  "gasUsed": {
    "_hex": "0x5208"
  },
  "miner": "0xbb7B8287f3F0a933474a79eAe42CBCa977791171",
  "extraData": "0x476574682f4c5649562f76312e302e312f6c696e75782f676f312e342e32",
  "transactions": [
    {
      "hash": "0x4a5ee2468f0a5d9083c3ff0b20c258013ed40cace8c1ea2663788a1772fa9855",
      "blockHash": "0x845459d73738ae4ba922d52431547f430eb72734644d2ecfd7f51506836e44ec",
      "blockNumber": 69601,
      "transactionIndex": 0,
      "confirmations": null,
      "from": "0xB83b76f35cF6b2149B34Ee092B3Fc93b7Bb54A8D",
      "gasPrice": {
        "_hex": "0xd1ec149ff"
      },
      "gasLimit": {
        "_hex": "0x5208"
      },
      "to": "0x32Be343B94f860124dC4fEe278FDCBD38C102D88",
      "value": {
        "_hex": "0x42b52f5cb4853c000"
      },
      "nonce": 1,
      "data": "0x",
      "r": "0x4a833b789ce1a56cb7f431e7e6d8eb634ca1064273e8d602eaaa88f27fae6523",
      "s": "0x5fe33bb2aee51140914b4583e4f312f5731e2ef731726d954c9ad97a982702b0",
      "v": 27,
      "creates": null,
      "raw": "0xf86d01850d1ec149ff8252089432be343b94f860124dc4fee278fdcbd38c102d8889042b52f5cb4853c000801ba04a833b789ce1a56cb7f431e7e6d8eb634ca1064273e8d602eaaa88f27fae6523a05fe33bb2aee51140914b4583e4f312f5731e2ef731726d954c9ad97a982702b0",
      "networkId": 0,
      "chainId": 0
    }
  ]
}