{
  "hash": "0x070a0e1d199675d485a0f6fa755e4311ee824d13d1c66d34ce07c208328f978c",
  "parentHash": "0x02062a3e1815afbb6c247156fbc639c3b21e6b9a6019234ee31f6020f518cd5e",
  "number": 111402,
  "timestamp": 1439989570,
  "nonce": "0x6215d8aa174667d2",
  "difficulty": 4446152830224,
  "gasLimit": {
    "_hex": "0x2fefd8"
  },
  "gasUsed": {
    "_hex": "0x5208"
  },
  "miner": "0x7eD2359220bC2A40b70C40350EcAb732B39c0eF4",
  "extraData": "0x",
  "transactions": [
    {
      "hash": "0xb22fec1ff4835fbe7e78f6422c17f8a1aba172d9e16abe1db35bf9fd8fb889e9",
      "blockHash": "0x070a0e1d199675d485a0f6fa755e4311ee824d13d1c66d34ce07c208328f978c",
      "blockNumber": 111402,
      "transactionIndex": 0,
      "confirmations": null,
      "from": "0xaA7C5c36F2422615C33f44b2C8f8883451eD8D0d",
      "gasPrice": {
        "_hex": "0xd829211eb"
      },
      "gasLimit": {
        "_hex": "0x15f90"
      },
      "to": "0x572251a1FF0c56745E461cf7a293F893fFADB303",
      "value": {
        "_hex": "0x2c68af0bb140000"
      },
      "nonce": 3,
      "data": "0x",
      "r": "0x2a989e84c97b63dcdb94b8673bcd175104581808a93574544aa8943e74c45b7c",
      "s": "0x023d37e324e07a8af2f292f199f81d8e5adfad8f2c0ab8bec2fcdd6e61ec6ea9",
      "v": 28,
      "creates": null,
      "raw": "0xf86d03850d829211eb83015f9094572251a1ff0c56745e461cf7a293f893ffadb3038802c68af0bb140000801ca02a989e84c97b63dcdb94b8673bcd175104581808a93574544aa8943e74c45b7ca0023d37e324e07a8af2f292f199f81d8e5adfad8f2c0ab8bec2fcdd6e61ec6ea9",
      "networkId": 0,
      "chainId": 0
    }
  ]
}