{
  "hash": "0x9c7b343c06e19c67f2c35a9314c2372095bc16b5c5857a72824e6950869304a9",
  "parentHash": "0x7a7a33bf83528de9dc5ce74b3de625a17772cc3db609d17e656bcae3564f4998",
  "number": 79499,
  "timestamp": 1439470739,
  "nonce": "0x50d386312fded9db",
  "difficulty": 2332443642314,
  "gasLimit": {
    "_hex": "0x2fefd8"
  },
  "gasUsed": {
    "_hex": "0xa410"
  },
  "miner": "0x88D74a59454F6cF3B51ef6b9136AFb6b9D405A88",
  "extraData": "0x476574682f76312e302e312d37666266393930632f6c696e75782f676f312e34",
  "transactions": [
    {
      "hash": "0xa81cc63ffe12b595b4f1b133df2360007fe8bd986dda0dc653f2420e668264c1",
      "blockHash": "0x9c7b343c06e19c67f2c35a9314c2372095bc16b5c5857a72824e6950869304a9",
      "blockNumber": 79499,
      "transactionIndex": 0,
      "confirmations": null,
      "from": "0x98f2c2754c77b49993EEA4Dcd2D9ABa71B696B60",
      "gasPrice": {
        "_hex": "0xdd67838da"
      },
      "gasLimit": {
        "_hex": "0x5208"
      },
      "to": "0x32Be343B94f860124dC4fEe278FDCBD38C102D88",
      "value": {
        "_hex": "0x47740a953829fc00"
      },
      "nonce": 0,
      "data": "0x",
      "r": "0xe89363e7ef9a5896b1768e0a65e466fb268bbf011ece896f43e15a75fcc1b901",
      "s": "0x52abc7d6589369281cd8b94cb07715f0866f79742ba77428e750f72353d59cea",
      "v": 27,
      "creates": null,
      "raw": "0xf86c80850dd67838da8252089432be343b94f860124dc4fee278fdcbd38c102d888847740a953829fc00801ba0e89363e7ef9a5896b1768e0a65e466fb268bbf011ece896f43e15a75fcc1b901a052abc7d6589369281cd8b94cb07715f0866f79742ba77428e750f72353d59cea",
      "networkId": 0,
      "chainId": 0
    },
    {
      "hash": "0x01577df5e70abb0f9b86fa7daeeeb65a32b5f36214f86fcd70301670e9133b7a",
      "blockHash": "0x9c7b343c06e19c67f2c35a9314c2372095bc16b5c5857a72824e6950869304a9",
      "blockNumber": 79499,
      "transactionIndex": 1,
      "confirmations": null,
      "from": "0x01Ad0ACFf478127D9d702B1A13599D706cB759b1",
      "gasPrice": {
        "_hex": "0xdd67838da"
      },
      "gasLimit": {
        "_hex": "0x5208"
      },
      "to": "0x32Be343B94f860124dC4fEe278FDCBD38C102D88",
      "value": {
        "_hex": "0xcec2ffecd8390000"
      },
      "nonce": 21,
      "data": "0x",
      "r": "0x9254ef9a29f8de317186489d34b8023c0092f1d892967059750ba31d185902cf",
      "s": "0x044c89006be3ef260c1a8b17364cab7d8d62657ec53db768bfd977e09e3051e5",
      "v": 27,
      "creates": null,
      "raw": "0xf86c15850dd67838da8252089432be343b94f860124dc4fee278fdcbd38c102d8888cec2ffecd8390000801ba09254ef9a29f8de317186489d34b8023c0092f1d892967059750ba31d185902cfa0044c89006be3ef260c1a8b17364cab7d8d62657ec53db768bfd977e09e3051e5",
      "networkId": 0,
      "chainId": 0
    }
  ]
}