{
  "hash": "0x6327e46de7ec6abfb174b406e5cbdf5dc34e2b142640cf432ed694de344b43b0",
  "parentHash": "0xc791e63a3f9af8e605a9c88a3e0a560804e08263aeb45460f7aa78089a886078",
  "number": 98879,
  "timestamp": 1439780488,
  "nonce": "0x08b6ab3b10f2ac7e",
  "difficulty": 3862992695599,
  "gasLimit": {
    "_hex": "0x2fefd8"
  },
  "gasUsed": {
    "_hex": "0x5208"
  },
  "miner": "0xf927a40C8B7F6E07c5af7FA2155B4864a4112B13",
  "extraData": "0x",
  "transactions": [
    {
      "hash": "0x6485ebfaa1701aa2e1bed733d4c5aac703538df447e8129c56e4e30eb04aac96",
      "blockHash": "0x6327e46de7ec6abfb174b406e5cbdf5dc34e2b142640cf432ed694de344b43b0",
      "blockNumber": 98879,
      "transactionIndex": 0,
      "confirmations": null,
      "from": "0xcf00A85f3826941e7A25BFcF9Aac575d40410852",
      "gasPrice": {
        "_hex": "0xcb5bea614"
      },
      "gasLimit": {
        "_hex": "0x15f90"
      },
      "to": "0xD9666150A9dA92d9108198a4072970805a8B3428",
      "value": {
        "_hex": "0x4563918244f40000"
      },
      "nonce": 15,
      "data": "0x",
      "r": "0x9df7ec48c74d99978572f6bb53fb32e8646bbbb57369e42d3e447eec690f789a",
      "s": "0x3cb3b0b6ac3cf77ddbb2554a861a18853c6f6f09403daaccb7fc7bb825822327",
      "v": 27,
      "creates": null,
      "raw": "0xf86d0f850cb5bea61483015f9094d9666150a9da92d9108198a4072970805a8b3428884563918244f40000801ba09df7ec48c74d99978572f6bb53fb32e8646bbbb57369e42d3e447eec690f789aa03cb3b0b6ac3cf77ddbb2554a861a18853c6f6f09403daaccb7fc7bb825822327",
      "networkId": 0,
      "chainId": 0
    }
  ]
}