{
  "hash": "0xd1f988332a887fd7c10b22be3fd40bfe895d906f1a21395c8373ce6846c3e74d",
  "parentHash": "0xdca2fdcad01598d88830b455ec57e728b5c8a6ac36ce8c2627757c24d5c500f0",
  "number": 112835,
  "timestamp": 1440013974,
  "nonce": "0xa1df46723867923f",
  "difficulty": 4438886332308,
  "gasLimit": {
    "_hex": "0x2fefd8"
  },
  "gasUsed": {
    "_hex": "0x5208"
  },
  "miner": "0xe6A7a1d47ff21B6321162AEA7C6CB457D5476Bca",
  "extraData": "0x476574682f76312e302e312d38326566323666362f6c696e75782f676f312e34",
  "transactions": [
    {
      "hash": "0xdb36c15840a97a52f16a052a707e08f70f3c8fa76fb1f1effe134beeaa9bf3ab",
      "blockHash": "0xd1f988332a887fd7c10b22be3fd40bfe895d906f1a21395c8373ce6846c3e74d",
      "blockNumber": 112835,
      "transactionIndex": 0,
      "confirmations": null,
      "from": "0x32Be343B94f860124dC4fEe278FDCBD38C102D88",
      "gasPrice": {
        "_hex": "0xd841f73ee"
      },
      "gasLimit": {
        "_hex": "0x5208"
      },
      "to": "0xaFd4057e36bBb23395F1be37EB170c4F823209Aa",
      "value": {
        "_hex": "0x17c9226225a69d000"
      },
      "nonce": 1347,
      "data": "0x",
      "r": "0x12848a4672c5c0cc992d74972f9b37222e11576d460727a8e507f9765b6af067",
      "s": "0x4a0bd57853ff4bf8e65cd0a97a16006a600e771a5be6f4973c7a69ac914dc5c9",
      "v": 28,
      "creates": null,
      "raw": "0xf86f820543850d841f73ee82520894afd4057e36bbb23395f1be37eb170c4f823209aa89017c9226225a69d000801ca012848a4672c5c0cc992d74972f9b37222e11576d460727a8e507f9765b6af067a04a0bd57853ff4bf8e65cd0a97a16006a600e771a5be6f4973c7a69ac914dc5c9",
      "networkId": 0,
      "chainId": 0
    }
  ]
}