{
  "hash": "0x01d5a7808ed9f59f52c14709ab6325269421c5c9a15b9971027ab90b95b6fd08",
  "parentHash": "0xac27bb05986f2eefb886b54fbc97cc21b361ff09ffb21fe7228f33818540aaa8",
  "number": 75260,
  "timestamp": 1439400292,
  "nonce": "0xb5586f64271fb04d",
  "difficulty": 2195449169701,
  "gasLimit": {
    "_hex": "0x2fefd8"
  },
  "gasUsed": {
    "_hex": "0xad77"
  },
  "miner": "0x2134e2a2b718DCa96580ECAC31E653Ea1fdd58DA",
  "extraData": "0x476574682f76312e302e312f77696e646f77732f676f312e342e32",
  "transactions": [
    {
      "hash": "0xab8499a42855bddb55a85817e3d3d696dc46ecf53c779a2088dbf67f52f8f251",
      "blockHash": "0x01d5a7808ed9f59f52c14709ab6325269421c5c9a15b9971027ab90b95b6fd08",
      "blockNumber": 75260,
      "transactionIndex": 0,
      "confirmations": null,
      "from": "0x87C5B5874A18B4306DF8a752a6C8cc3E82daFc19",
      "gasPrice": {
        "_hex": "0x1017e1e1b6a"
      },
      "gasLimit": {
        "_hex": "0x493e0"
      },
      "to": "0xD79B4C6791784184e2755B2fC1659eaaB0f80456",
      "value": {
        "_hex": "0x0"
      },
      "nonce": 39,
      "data": "0x03750d94000000000000000000000000326be8f71bfb0379f989aab1cc1fe37f0a771f606466383361316632653562663738353000000000000000000000000000000000",
      "r": "0x3e84ecd555dd12e2419391763a233802b8c63c7347e293a962415096c957bf9e",
      "s": "0x2960d318777947e53782a0178e314a96fb8d830cd182b15d5485709f2c47538c",
      "v": 28,
      "creates": null,
      "raw": "0xf8ab278601017e1e1b6a830493e094d79b4c6791784184e2755b2fc1659eaab0f8045680b84403750d94000000000000000000000000326be8f71bfb0379f989aab1cc1fe37f0a771f6064663833613166326535626637383530000000000000000000000000000000001ca03e84ecd555dd12e2419391763a233802b8c63c7347e293a962415096c957bf9ea02960d318777947e53782a0178e314a96fb8d830cd182b15d5485709f2c47538c",
      "networkId": 0,
      "chainId": 0
    }
  ]
}