{
  "hash": "0xd5192dac1a726c2abdc324d3e780ae508ced5ffe41adbc5b9b559de9a05eb201",
  "parentHash": "0x8b8aa181dad0ead15a201fe63500c6d615655ba17b74a196ca0700e0fcb4d191",
  "number": 52779,
  "timestamp": 1439027233,
  "nonce": "0xc126ee317c77aa2a",
  "difficulty": 1567859177314,
  "gasLimit": {
    "_hex": "0x19a3a1"
  },
  "gasUsed": {
    "_hex": "0x5208"
  },
  "miner": "0x9746c7e1ef2bd21FF3997fa467593a89cb852BD0",
  "extraData": "0x476574682f76312e302e312f77696e646f77732f676f312e342e32",
  "transactions": [
    {
      "hash": "0xfe731378b57dd64f5dfcdaa4f81ce1695463a6d4f24816a87215d4ca8118148b",
      "blockHash": "0xd5192dac1a726c2abdc324d3e780ae508ced5ffe41adbc5b9b559de9a05eb201",
      "blockNumber": 52779,
      "transactionIndex": 0,
      "confirmations": null,
      "from": "0x91bb3F79022Bf3C453F4FF256e269B15CF2c9CbD",
      "gasPrice": {
        "_hex": "0xdf681cf6b"
      },
      "gasLimit": {
        "_hex": "0x15f90"
      },
      "to": "0x262A8bFD7D9dC5dD3Ad78161B6Bb560824373655",
      "value": {
        "_hex": "0x5258388d0bca9b0000"
      },
      "nonce": 0,
      "data": "0x",
      "r": "0x2f5c9ae4d73870b7b0f20dd561607ab064ad20c945c6ebe09e8484c4cbd2df32",
      "s": "0x6178da976d1c406f3a5da7781bff9ac84368e1180dfb8cdbbf0da1f377d2c049",
      "v": 28,
      "creates": null,
      "raw": "0xf86e80850df681cf6b83015f9094262a8bfd7d9dc5dd3ad78161b6bb560824373655895258388d0bca9b0000801ca02f5c9ae4d73870b7b0f20dd561607ab064ad20c945c6ebe09e8484c4cbd2df32a06178da976d1c406f3a5da7781bff9ac84368e1180dfb8cdbbf0da1f377d2c049",
      "networkId": 0,
      "chainId": 0
    }
  ]
}