{
  "hash": "0xb48ed01d3c65b328314b3b4b791a6116863ab10f92823eeb7fa910b61bdbfa3c",
  "parentHash": "0xd94ded7ba164e1ea829d631bbd3c04abd9c79ab2b2281e2f7c9659a6663ca24b",
  "number": 60691,
  "timestamp": 1439160052,
  "nonce": "0x7920c4fd322806f3",
  "difficulty": 1728753699175,
  "gasLimit": {
    "_hex": "0x2fefd8"
  },
  "gasUsed": {
    "_hex": "0x5208"
  },
  "miner": "0x88D74a59454F6cF3B51ef6b9136AFb6b9D405A88",
  "extraData": "0x476574682f76312e302e312d37666266393930632f6c696e75782f676f312e34",
  "transactions": [
    {
      "hash": "0xfbe5e81b3df576b47f9d168921207728c267db1e58e3fd84e4c8b8c0edb941bd",
      "blockHash": "0xb48ed01d3c65b328314b3b4b791a6116863ab10f92823eeb7fa910b61bdbfa3c",
      "blockNumber": 60691,
      "transactionIndex": 0,
      "confirmations": null,
      "from": "0x71800954e6FA0Cbc43c6440d3CC80660F18a8B6F",
      "gasPrice": {
        "_hex": "0xdcf4b381a"
      },
      "gasLimit": {
        "_hex": "0x5208"
      },
      "to": "0x32Be343B94f860124dC4fEe278FDCBD38C102D88",
      "value": {
        "_hex": "0xa075f9aff6deb8000"
      },
      "nonce": 2,
      "data": "0x",
      "r": "0x087ae45cef99d26f87b042548072a3af915a6869869284b93e7c2ea8f3acde94",
      "s": "0x6c46d1b490da3339e069e4946c9fcc4c17d9f78558102575a404327a2d0dc66a",
      "v": 27,
      "creates": null,
      "raw": "0xf86d02850dcf4b381a8252089432be343b94f860124dc4fee278fdcbd38c102d88890a075f9aff6deb8000801ba0087ae45cef99d26f87b042548072a3af915a6869869284b93e7c2ea8f3acde94a06c46d1b490da3339e069e4946c9fcc4c17d9f78558102575a404327a2d0dc66a",
      "networkId": 0,
      "chainId": 0
    }
  ]
}