{
  "hash": "0x1230b9f9744bf3294e57ad80880fbcd08a9e5000d91eaf4c7dcd1e6eb3866f8d",
  "parentHash": "0x34ba0624cad7527898bc918c07ce41e2ae823d0fe9e794ac03f9cb429062a8f3",
  "number": 46742,
  "timestamp": 1438928467,
  "nonce": "0xb8ffec1242c3e925",
  "difficulty": 1453203764401,
  "gasLimit": {
    "_hex": "0x75f1"
  },
  "gasUsed": {
    "_hex": "0x5208"
  },
  "miner": "0x53824166ea5271d3425e3194c848A90CA4e97eB2",
  "extraData": "0x476574682f76312e302e312f6c696e75782f676f312e342e32",
  "transactions": [
    {
      "hash": "0x56ff651c8277188b6b3888087ae32ecc1c9ca6dc26df344409d29abeb22d5f4b",
      "blockHash": "0x1230b9f9744bf3294e57ad80880fbcd08a9e5000d91eaf4c7dcd1e6eb3866f8d",
      "blockNumber": 46742,
      "transactionIndex": 0,
      "confirmations": null,
      "from": "0x4e5C9FD685DCC9AbEDe1Cbde4959039388bf7c5A",
      "gasPrice": {
        "_hex": "0xccf3f7b9b"
      },
      "gasLimit": {
        "_hex": "0x5208"
      },
      "to": "0xD61f065D146DDE62e673fA519D464F8793F62e54",
      "value": {
        "_hex": "0x2386f26fc10000"
      },
      "nonce": 0,
      "data": "0x",
      "r": "0x4b754ec7d939a9f396ff4923d8e549015d3f28b14903dd54ee3a7e91e31215ec",
      "s": "0x07b4ead6547cce0b13506ab0c5585ee060785ed97fa77d3335702016c8005293",
      "v": 28,
      "creates": null,
      "raw": "0xf86b80850ccf3f7b9b82520894d61f065d146dde62e673fa519d464f8793f62e54872386f26fc10000801ca04b754ec7d939a9f396ff4923d8e549015d3f28b14903dd54ee3a7e91e31215eca007b4ead6547cce0b13506ab0c5585ee060785ed97fa77d3335702016c8005293",
      "networkId": 0,
      "chainId": 0
    }
  ]
}