{
  "hash": "0xfdb60064593d1622a7800867c6b1b560e3ca1e94ca776b4359b9cf37777ed823",
  "parentHash": "0x5aca32fe445515f743bdc254bc3d242c793a83cfa5a0f96cadf7dae8f63ec9c7",
  "number": 96243,
  "timestamp": 1439737199,
  "nonce": "0x6ec851e4a04a1406",
  "difficulty": 3672876617499,
  "gasLimit": {
    "_hex": "0x2fefd8"
  },
  "gasUsed": {
    "_hex": "0x5208"
  },
  "miner": "0xe6A7a1d47ff21B6321162AEA7C6CB457D5476Bca",
  "extraData": "0x476574682f76312e302e312d38326566323666362f6c696e75782f676f312e34",
  "transactions": [
    {
      "hash": "0x0afb15d87ed3b1a4996aa043ec74ab710751b669a21849bd4cbfa406563eae61",
      "blockHash": "0xfdb60064593d1622a7800867c6b1b560e3ca1e94ca776b4359b9cf37777ed823",
      "blockNumber": 96243,
      "transactionIndex": 0,
      "confirmations": null,
      "from": "0x3bFc4B3A53996526FA62CD808a89424B6957013c",
      "gasPrice": {
        "_hex": "0xd540d1d9a"
      },
      "gasLimit": {
        "_hex": "0x5208"
      },
      "to": "0x32Be343B94f860124dC4fEe278FDCBD38C102D88",
      "value": {
        "_hex": "0x8f3e3208f3226000"
      },
      "nonce": 0,
      "data": "0x",
      "r": "0x5fb89d279172a36e8122d4945408b32f710b866c8cf15add59b8121a0d565d3f",
      "s": "0x684c07801b366fb63c6d45ad76ad176d0f9e4f58e3a90e54a77c350a9b9cd2c5",
      "v": 27,
      "creates": null,
      "raw": "0xf86c80850d540d1d9a8252089432be343b94f860124dc4fee278fdcbd38c102d88888f3e3208f3226000801ba05fb89d279172a36e8122d4945408b32f710b866c8cf15add59b8121a0d565d3fa0684c07801b366fb63c6d45ad76ad176d0f9e4f58e3a90e54a77c350a9b9cd2c5",
      "networkId": 0,
      "chainId": 0
    }
  ]
}