{
  "hash": "0x544368fc11c6bbbf0db0d6effe927dc80be6890c31c3cd951405fce0be1cb1b2",
  "parentHash": "0x1af33aaab1e7f307f9fbed4df557f7a432ac55fa95eb0a689aab133a7ec375fd",
  "number": 52656,
  "timestamp": 1439025222,
  "nonce": "0x862344043d39ee6e",
  "difficulty": 1567116785947,
  "gasLimit": {
    "_hex": "0x17169c"
  },
  "gasUsed": {
    "_hex": "0x16e360"
  },
  "miner": "0x57a5156876AA9d5bA611Db7871966a2a8c1D8f4e",
  "extraData": "0x476574682f76312e302e312d38326566323666362f6c696e75782f676f312e34",
  "transactions": [
    {
      "hash": "0x2f3bc497652348e6d9e1122792e94cbda6fe1af03bbf8578953ce1e8d59a67c9",
      "blockHash": "0x544368fc11c6bbbf0db0d6effe927dc80be6890c31c3cd951405fce0be1cb1b2",
      "blockNumber": 52656,
      "transactionIndex": 0,
      "confirmations": null,
      "from": "0x54dAeb3E8a6BBC797E4aD2b0339f134b186e4637",
      "gasPrice": {
        "_hex": "0xe7d27df17"
      },
      "gasLimit": {
        "_hex": "0x7a120"
      },
      "to": "0xBAA54d6E90c3F4d7Ebec11bD180134C7eD8eBb52",
      "value": {
        "_hex": "0x16345785d8a0000"
      },
      "nonce": 862,
      "data": "0x",
      "r": "0x1afc7f9627b3de1c378fb8331f0c3c6b8fc706c71fd1512a991eceb2cbfcc2eb",
      "s": "0x5002658077c98352677a1a3660c0b7678e6dde839c875ccc5906d4ff7e5ee9e4",
      "v": 27,
      "creates": null,
      "raw": "0xf86f82035e850e7d27df178307a12094baa54d6e90c3f4d7ebec11bd180134c7ed8ebb5288016345785d8a0000801ba01afc7f9627b3de1c378fb8331f0c3c6b8fc706c71fd1512a991eceb2cbfcc2eba05002658077c98352677a1a3660c0b7678e6dde839c875ccc5906d4ff7e5ee9e4",
      "networkId": 0,
      "chainId": 0
    },
    {
      "hash": "0xb461971b419560f08f94bc5a87f7537b37fc396452bcdbea44360a0882d174f1",
      "blockHash": "0x544368fc11c6bbbf0db0d6effe927dc80be6890c31c3cd951405fce0be1cb1b2",
      "blockNumber": 52656,
      "transactionIndex": 1,
      "confirmations": null,
      "from": "0x54dAeb3E8a6BBC797E4aD2b0339f134b186e4637",
      "gasPrice": {
        "_hex": "0xdf4ba21f9"
      },
      "gasLimit": {
        "_hex": "0x7a120"
      },
      "to": "0xBAA54d6E90c3F4d7Ebec11bD180134C7eD8eBb52",
      "value": {
        "_hex": "0x16345785d8a0000"
      },
      "nonce": 863,
      "data": "0x",
      "r": "0x963193423fa60cd657c533ffa01f35130a6b17d5816b22dbabf40979c60c63d2",
      "s": "0x2b0e5287b40a8176b09f46cb4e484de9cf7b85547b6f04c6e38a3975c741c1d6",
      "v": 27,
      "creates": null,
      "raw": "0xf86f82035f850df4ba21f98307a12094baa54d6e90c3f4d7ebec11bd180134c7ed8ebb5288016345785d8a0000801ba0963193423fa60cd657c533ffa01f35130a6b17d5816b22dbabf40979c60c63d2a02b0e5287b40a8176b09f46cb4e484de9cf7b85547b6f04c6e38a3975c741c1d6",
      "networkId": 0,
      "chainId": 0
    },
    {
      "hash": "0x227825ae88a69431eb7e95a457ac8aa85e975d12e14c591a5c60fea72dbcc92d",
      "blockHash": "0x544368fc11c6bbbf0db0d6effe927dc80be6890c31c3cd951405fce0be1cb1b2",
      "blockNumber": 52656,
      "transactionIndex": 2,
      "confirmations": null,
      "from": "0x54dAeb3E8a6BBC797E4aD2b0339f134b186e4637",
      "gasPrice": {
        "_hex": "0xd8bd64e50"
      },
      "gasLimit": {
        "_hex": "0x7a120"
      },
      "to": "0xBAA54d6E90c3F4d7Ebec11bD180134C7eD8eBb52",
      "value": {
        "_hex": "0x16345785d8a0000"
      },
      "nonce": 864,
      "data": "0x",
      "r": "0x53ecf0887664fee6dace0bccbbd13b5029944293e573dbfe02c4c3541009fb60",
      "s": "0x38660b0049859f8a210de60c83da31a57a22715c4a4cfc5b111aabb626bf5fa4",
      "v": 28,
      "creates": null,
      "raw": "0xf86f820360850d8bd64e508307a12094baa54d6e90c3f4d7ebec11bd180134c7ed8ebb5288016345785d8a0000801ca053ecf0887664fee6dace0bccbbd13b5029944293e573dbfe02c4c3541009fb60a038660b0049859f8a210de60c83da31a57a22715c4a4cfc5b111aabb626bf5fa4",
      "networkId": 0,
      "chainId": 0
    }
  ]
}