{
  "hash": "0xe98dbf1a89224d6a476769d4b09d0a0e44d25b080533b59e25d6ba955dfd4032",
  "parentHash": "0xe4b261eab41414e59f6b58ce24100923df9a03c17f39b855c040cdb4c58a90e3",
  "number": 65051,
  "timestamp": 1439230439,
  "nonce": "0x53cb7aaf1624a40b",
  "difficulty": 1927562015231,
  "gasLimit": {
    "_hex": "0x2fefd8"
  },
  "gasUsed": {
    "_hex": "0xa410"
  },
  "miner": "0x70137010922f2fC2964b3792907F79FBB75fEbe8",
  "extraData": "0x476574682f76312e302e302f6c696e75782f676f312e342e32",
  "transactions": [
    {
      "hash": "0xf964af09279fd98ba2fbd68dc75d80def1508849c4315649161c33a49458dea3",
      "blockHash": "0xe98dbf1a89224d6a476769d4b09d0a0e44d25b080533b59e25d6ba955dfd4032",
      "blockNumber": 65051,
      "transactionIndex": 0,
      "confirmations": null,
      "from": "0xd771932b6072542c4568A196e0f4D5e038D3f264",
      "gasPrice": {
        "_hex": "0xba43b7400"
      },
      "gasLimit": {
        "_hex": "0x5208"
      },
      "to": "0xbB0A69432580bEf65A55A0D54F4b6726397df0b1",
      "value": {
        "_hex": "0x3a627cf67be7000"
      },
      "nonce": 1,
      "data": "0x",
      "r": "0xd183e0902417bad33c64434c50ce663a51f8b45e5b3236e1725d70240ff3c2b6",
      "s": "0x6797a4c91a07734ce0d9330dc5a380c04d396c0b1e9658f9655d0288425a7abf",
      "v": 28,
      "creates": null,
      "raw": "0xf86c01850ba43b740082520894bb0a69432580bef65a55a0d54f4b6726397df0b18803a627cf67be7000801ca0d183e0902417bad33c64434c50ce663a51f8b45e5b3236e1725d70240ff3c2b6a06797a4c91a07734ce0d9330dc5a380c04d396c0b1e9658f9655d0288425a7abf",
      "networkId": 0,
      "chainId": 0
    },
    {
      "hash": "0x8efe6634c95150e1ce085162a11d023f716c0a05713b4ea50dc7bb917e67e29b",
      "blockHash": "0xe98dbf1a89224d6a476769d4b09d0a0e44d25b080533b59e25d6ba955dfd4032",
      "blockNumber": 65051,
      "transactionIndex": 1,
      "confirmations": null,
      "from": "0x16C1a82Dc4C3C29d1c64527e2Bb4da731Fa8d792",
      "gasPrice": {
        "_hex": "0xba43b7400"
      },
      "gasLimit": {
        "_hex": "0x5208"
      },
      "to": "0x983244e66CD0D5744656CB320130BE887E8c43c5",
      "value": {
        "_hex": "0x3499b1c017cb000"
      },
      "nonce": 1,
      "data": "0x",
      "r": "0x962de0116586edd0253c5f7c4546ef4ccef518232b0767f8850655526381f26a",
      "s": "0x2f25a8509f95b864c9e0076deda82a547ddaa5bc2e19c2cae8c11112f1de1808",
      "v": 28,
      "creates": null,
      "raw": "0xf86c01850ba43b740082520894983244e66cd0d5744656cb320130be887e8c43c58803499b1c017cb000801ca0962de0116586edd0253c5f7c4546ef4ccef518232b0767f8850655526381f26aa02f25a8509f95b864c9e0076deda82a547ddaa5bc2e19c2cae8c11112f1de1808",
      "networkId": 0,
      "chainId": 0
    }
  ]
}