{
  "hash": "0xf2ffb272a9455118e6e5567cdaf1ab9b90f9e685dc211e414791fe9f7712f115",
  "parentHash": "0x25cc4d80c6962a5868e96a5c7eaf2132e46a39aa57d3549dc2cdcb1d232aad47",
  "number": 107433,
  "timestamp": 1439922370,
  "nonce": "0xe1a453f97524d93b",
  "difficulty": 4407179814143,
  "gasLimit": {
    "_hex": "0x2fefd8"
  },
  "gasUsed": {
    "_hex": "0x5208"
  },
  "miner": "0x9746c7e1ef2bd21FF3997fa467593a89cb852BD0",
  "extraData": "0x476574682f76312e302e312f77696e646f77732f676f312e342e32",
  "transactions": [
    {
      "hash": "0xc7275a0d8e27efc05e51ae41a927ee5e933438d9c53f71413396c4e76d2fc3f8",
      "blockHash": "0xf2ffb272a9455118e6e5567cdaf1ab9b90f9e685dc211e414791fe9f7712f115",
      "blockNumber": 107433,
      "transactionIndex": 0,
      "confirmations": null,
      "from": "0x32Be343B94f860124dC4fEe278FDCBD38C102D88",
      "gasPrice": {
        "_hex": "0xd29543a61"
      },
      "gasLimit": {
        "_hex": "0x5208"
      },
      "to": "0x5A7f482fa2A2b473D4379790DE94e54E736993d5",
      "value": {
        "_hex": "0xdbd2fc137a30000"
      },
      "nonce": 1217,
      "data": "0x",
      "r": "0xb075b93e516ae35c60724078e8a01ba15e9dec43bc1206ecd2eb6c46d1bf6594",
      "s": "0x51713920ccfd32fdbdf9e2371949229cbc32f4672927d5bb5a17a3bd23e9810b",
      "v": 27,
      "creates": null,
      "raw": "0xf86e8204c1850d29543a61825208945a7f482fa2a2b473d4379790de94e54e736993d5880dbd2fc137a30000801ba0b075b93e516ae35c60724078e8a01ba15e9dec43bc1206ecd2eb6c46d1bf6594a051713920ccfd32fdbdf9e2371949229cbc32f4672927d5bb5a17a3bd23e9810b",
      "networkId": 0,
      "chainId": 0
    }
  ]
}