{
  "hash": "0x736f32956c97d47e44cb37b9f00038076432c09f95866894edc2e76025a57255",
  "parentHash": "0x3ccfde39cc74fa7ad635a67af9b6425ada154fb93ee985656d28a4d028d5ab72",
  "number": 47703,
  "timestamp": 1438945065,
  "nonce": "0xbdd76c99b13c9028",
  "difficulty": 1442433809392,
  "gasLimit": {
    "_hex": "0xe5f7"
  },
  "gasUsed": {
    "_hex": "0xa410"
  },
  "miner": "0xF2d2AfF1320476cb8C6b607199D23175cc595693",
  "extraData": "0x476574682f76312e302e312f77696e646f77732f676f312e342e32",
  "transactions": [
    {
      "hash": "0xc36ca201a15ec66c8fe514f91988f800045bdaac5536309d058f65b00c274b3d",
      "blockHash": "0x736f32956c97d47e44cb37b9f00038076432c09f95866894edc2e76025a57255",
      "blockNumber": 47703,
      "transactionIndex": 0,
      "confirmations": null,
      "from": "0xe6A7a1d47ff21B6321162AEA7C6CB457D5476Bca",
      "gasPrice": {
        "_hex": "0xe0c219d40"
      },
      "gasLimit": {
        "_hex": "0x55f0"
      },
      "to": "0xD9DE820A23C38bCfE281630df2c89511CB833D03",
      "value": {
        "_hex": "0xd0fc9868eacfe1a8"
      },
      "nonce": 208,
      "data": "0x",
      "r": "0x111137a748a9910d6f5e3f88124ec7598bfcc8a1389bd4e6b4c1676e882895a6",
      "s": "0x7df4cd0cb428119db8475f5438e7bf31542ee600116b66db6cc30db2081df144",
      "v": 27,
      "creates": null,
      "raw": "0xf86d81d0850e0c219d408255f094d9de820a23c38bcfe281630df2c89511cb833d0388d0fc9868eacfe1a8801ba0111137a748a9910d6f5e3f88124ec7598bfcc8a1389bd4e6b4c1676e882895a6a07df4cd0cb428119db8475f5438e7bf31542ee600116b66db6cc30db2081df144",
      "networkId": 0,
      "chainId": 0
    },
    {
      "hash": "0x1340ca6e4c4b80debe22d031eec6d0d4d8df19288223558973ea39be4191b3f4",
      "blockHash": "0x736f32956c97d47e44cb37b9f00038076432c09f95866894edc2e76025a57255",
      "blockNumber": 47703,
      "transactionIndex": 1,
      "confirmations": null,
      "from": "0xe6A7a1d47ff21B6321162AEA7C6CB457D5476Bca",
      "gasPrice": {
        "_hex": "0xe0c219d40"
      },
      "gasLimit": {
        "_hex": "0x55f0"
      },
      "to": "0x94c4f7b5aaF084e74A7611900D93eaDeA47A137F",
      "value": {
        "_hex": "0xe0efadea7bb9c870"
      },
      "nonce": 209,
      "data": "0x",
      "r": "0x16108c5fb9f638e3d770fda521ca501cc40645d06038fe8c408ba3552f56d2db",
      "s": "0x494c0e0acccf3d3ce863edcac9993f22193945632cc01645184cd96848fc14cf",
      "v": 27,
      "creates": null,
      "raw": "0xf86d81d1850e0c219d408255f09494c4f7b5aaf084e74a7611900d93eadea47a137f88e0efadea7bb9c870801ba016108c5fb9f638e3d770fda521ca501cc40645d06038fe8c408ba3552f56d2dba0494c0e0acccf3d3ce863edcac9993f22193945632cc01645184cd96848fc14cf",
      "networkId": 0,
      "chainId": 0
    }
  ]
}