{
  "hash": "0xf6f681587493da88038bf2b05dbf3c27675b8f6b44b87ea65fb25b333420951b",
  "parentHash": "0xf7d43b969ddef50cde2cee68096cfbea384fd0c2fddb75bd444921faa2f2e83c",
  "number": 111072,
  "timestamp": 1439984184,
  "nonce": "0x50a59e4043fc1a6e",
  "difficulty": 4420351214950,
  "gasLimit": {
    "_hex": "0x2fefd8"
  },
  "gasUsed": {
    "_hex": "0x5208"
  },
  "miner": "0xC603Ab5ef41fC61AA8b76bEddb09e3Cfcbb174BD",
  "extraData": "0x476574682f76312e302e312f77696e646f77732f676f312e342e32",
  "transactions": [
    {
      "hash": "0xeeeb5cb8734a418981d299011fbd11fe0b2ff5985c295eafbd8766d9deb47404",
      "blockHash": "0xf6f681587493da88038bf2b05dbf3c27675b8f6b44b87ea65fb25b333420951b",
      "blockNumber": 111072,
      "transactionIndex": 0,
      "confirmations": null,
      "from": "0xA1623430350C5df1b52B0b57483A5bb45d1796Da",
      "gasPrice": {
        "_hex": "0xd14bc4ae3"
      },
      "gasLimit": {
        "_hex": "0x7530"
      },
      "to": "0xf2881e3e520bF84469Fa00a56449D357FB1af54A",
      "value": {
        "_hex": "0x2a9663ddb67ae0000"
      },
      "nonce": 12,
      "data": "0x",
      "r": "0xda3f20515b2d138461a2494dbd6e6cd6bafd0156664956869f6b86147e208a99",
      "s": "0x1d60ced8b11b8844396252528630cee6bce70129501dfbf7af26806e7665c5a0",
      "v": 27,
      "creates": null,
      "raw": "0xf86d0c850d14bc4ae382753094f2881e3e520bf84469fa00a56449d357fb1af54a8902a9663ddb67ae0000801ba0da3f20515b2d138461a2494dbd6e6cd6bafd0156664956869f6b86147e208a99a01d60ced8b11b8844396252528630cee6bce70129501dfbf7af26806e7665c5a0",
      "networkId": 0,
      "chainId": 0
    }
  ]
}