{
  "hash": "0x51bbae5fcce85b7617d64ee75bbf442e05f1f9403c413da13a68b9e88b969479",
  "parentHash": "0x2f8575cea61eba06f15a5cc7bcbd209e790877976233240924fe64d3707a049a",
  "number": 100922,
  "timestamp": 1439814625,
  "nonce": "0x5b9f3c0138a014cf",
  "difficulty": 3852634660943,
  "gasLimit": {
    "_hex": "0x2fefd8"
  },
  "gasUsed": {
    "_hex": "0xf618"
  },
  "miner": "0xe6A7a1d47ff21B6321162AEA7C6CB457D5476Bca",
  "extraData": "0x476574682f76312e302e312d38326566323666362f6c696e75782f676f312e34",
  "transactions": [
    {
      "hash": "0x2227bc127f70ee6c243885709b4bd3a087a2106deb8feaf5be3e497da2f2a047",
      "blockHash": "0x51bbae5fcce85b7617d64ee75bbf442e05f1f9403c413da13a68b9e88b969479",
      "blockNumber": 100922,
      "transactionIndex": 0,
      "confirmations": null,
      "from": "0x7884D470204862a0d1A21122F41ee77430396Ee5",
      "gasPrice": {
        "_hex": "0xdf8c4c82c"
      },
      "gasLimit": {
        "_hex": "0x15f90"
      },
      "to": "0x8e47320b08b9eCc4026D03a027a3B59A48e2980D",
      "value": {
        "_hex": "0x13fbe85edc90000"
      },
      "nonce": 75,
      "data": "0x",
      "r": "0xa0b7fcffe5ffc8534e3e17445341bc7d64518be2fc676e77ba59212d6e5b6402",
      "s": "0x504fe0ea5e40ba27791c7aae5a08ce397799006d222c98f87fd6f154a9e9370a",
      "v": 27,
      "creates": null,
      "raw": "0xf86d4b850df8c4c82c83015f90948e47320b08b9ecc4026d03a027a3b59a48e2980d88013fbe85edc90000801ba0a0b7fcffe5ffc8534e3e17445341bc7d64518be2fc676e77ba59212d6e5b6402a0504fe0ea5e40ba27791c7aae5a08ce397799006d222c98f87fd6f154a9e9370a",
      "networkId": 0,
      "chainId": 0
    },
    {
      "hash": "0xcc495c63577f38ee7e0b536e4c35b477428025f1f8748d5565cfa1725117828f",
      "blockHash": "0x51bbae5fcce85b7617d64ee75bbf442e05f1f9403c413da13a68b9e88b969479",
      "blockNumber": 100922,
      "transactionIndex": 1,
      "confirmations": null,
      "from": "0xa70a9a7040d542C632D8e0bE7c5513A8a5Bbc752",
      "gasPrice": {
        "_hex": "0xd7ae692e8"
      },
      "gasLimit": {
        "_hex": "0x5208"
      },
      "to": "0x32Be343B94f860124dC4fEe278FDCBD38C102D88",
      "value": {
        "_hex": "0x456393977396f400"
      },
      "nonce": 208,
      "data": "0x",
      "r": "0x58fe7ccbe7c639ca49313a96497374e3c79694f328cccea3bae9507376bd76e8",
      "s": "0x61bccd6e6c07df6c1747a0e88ac5714ec8694848223e6dd809d94c1e77e4aff9",
      "v": 27,
      "creates": null,
      "raw": "0xf86d81d0850d7ae692e88252089432be343b94f860124dc4fee278fdcbd38c102d8888456393977396f400801ba058fe7ccbe7c639ca49313a96497374e3c79694f328cccea3bae9507376bd76e8a061bccd6e6c07df6c1747a0e88ac5714ec8694848223e6dd809d94c1e77e4aff9",
      "networkId": 0,
      "chainId": 0
    },
    {
      "hash": "0x2d800124b3aed9e549975fd172058c05c45941c01640f32d8604936c9d758771",
      "blockHash": "0x51bbae5fcce85b7617d64ee75bbf442e05f1f9403c413da13a68b9e88b969479",
      "blockNumber": 100922,
      "transactionIndex": 2,
      "confirmations": null,
      "from": "0x04a6c6a293340Fc3f2244D097b0CFD84d5317bA5",
      "gasPrice": {
        "_hex": "0xd7ae692e8"
      },
      "gasLimit": {
        "_hex": "0x5208"
      },
      "to": "0x32Be343B94f860124dC4fEe278FDCBD38C102D88",
      "value": {
        "_hex": "0x276de56d94b904000"
      },
      "nonce": 3,
      "data": "0x",
      "r": "0x0e709417004ea2781158a3ebe38f5534984071558cf4ee71af72628093229be6",
      "s": "0x66bb436fadeb32889889f388050ae2e108c4b358ca54acda10abc24c6279c539",
      "v": 27,
      "creates": null,
      "raw": "0xf86d03850d7ae692e88252089432be343b94f860124dc4fee278fdcbd38c102d88890276de56d94b904000801ba00e709417004ea2781158a3ebe38f5534984071558cf4ee71af72628093229be6a066bb436fadeb32889889f388050ae2e108c4b358ca54acda10abc24c6279c539",
      "networkId": 0,
      "chainId": 0
    }
  ]
}