{
  "hash": "0x45ff205a263f41cd87cc88e564a2c69d8644e4b28d6a5f02bf34f379a4ae169b",
  "parentHash": "0xe056a02db5e20dbdb0217108696a1bf96ff97cef5691369c39c816dc580d3ec8",
  "number": 75133,
  "timestamp": 1439398166,
  "nonce": "0x81b66e363e8f0c57",
  "difficulty": 2196554682880,
  "gasLimit": {
    "_hex": "0x2fefd8"
  },
  "gasUsed": {
    "_hex": "0x5208"
  },
  "miner": "0x2f6BCe4fc330B69C9B4c2694d57C63Ec7B18feC7",
  "extraData": "0x476574682f76312e302e312f77696e646f77732f676f312e342e32",
  "transactions": [
    {
      "hash": "0x7f08cc05ead40dae82192d0b08b9465593ca58eab811ebeb5b72804be9d051cd",
      "blockHash": "0x45ff205a263f41cd87cc88e564a2c69d8644e4b28d6a5f02bf34f379a4ae169b",
      "blockNumber": 75133,
      "transactionIndex": 0,
      "confirmations": null,
      "from": "0xC603Ab5ef41fC61AA8b76bEddb09e3Cfcbb174BD",
      "gasPrice": {
        "_hex": "0xdc000261e"
      },
      "gasLimit": {
        "_hex": "0x15f90"
      },
      "to": "0x8F79f76381Aad7B98C19aF55eE75fdfEeb012211",
      "value": {
        "_hex": "0xad78ebc5ac6200000"
      },
      "nonce": 1,
      "data": "0x",
      "r": "0x3176b99c63a46f914c139e400fa6b5fe9af88052327f4ecb4207e8a0acaf6c85",
      "s": "0x35ee180c6e5e49694a177967203777aaf128b929fee41161b32f54d96bbfb145",
      "v": 28,
      "creates": null,
      "raw": "0xf86e01850dc000261e83015f90948f79f76381aad7b98c19af55ee75fdfeeb012211890ad78ebc5ac6200000801ca03176b99c63a46f914c139e400fa6b5fe9af88052327f4ecb4207e8a0acaf6c85a035ee180c6e5e49694a177967203777aaf128b929fee41161b32f54d96bbfb145",
      "networkId": 0,
      "chainId": 0
    }
  ]
}