{
  "hash": "0x58b68326d11a1f0d416fa448dc68447872581e14c861cc81ab2ac921ac73ea06",
  "parentHash": "0x70a33d509baf65d16a7926264c238b931f4efa857e0033290023a213f2522491",
  "number": 115074,
  "timestamp": 1440051089,
  "nonce": "0x4831c2bb179bdf43",
  "difficulty": 4531861148642,
  "gasLimit": {
    "_hex": "0x2fefd8"
  },
  "gasUsed": {
    "_hex": "0x1bdbe"
  },
  "miner": "0x56A1018A2F565672E98f4cB657cEB8059ff3E5a2",
  "extraData": "0x476574682f76312e302e312f77696e646f77732f676f312e342e32",
  "transactions": [
    {
      "hash": "0x70890a66f689594a2d3d92a6f9683ec20049f59cb6e06a0569c662621425cc04",
      "blockHash": "0x58b68326d11a1f0d416fa448dc68447872581e14c861cc81ab2ac921ac73ea06",
      "blockNumber": 115074,
      "transactionIndex": 0,
      "confirmations": null,
      "from": "0x36c510bf8d6e569BF2F37d47265dbcB502Ff2BcE",
      "gasPrice": {
        "_hex": "0xd641f460d"
      },
      "gasLimit": {
        "_hex": "0x249f0"
      },
      "to": "0xE28e72FCf78647ADCe1F1252F240bbfaebD63BcC",
      "value": {
        "_hex": "0x3635c9adc5dea00000"
      },
      "nonce": 8,
      "data": "0x45466f3a",
      "r": "0xe5140353ca8ee00280d60e3cf202f8e22a55eeda488ebed059b6ba3e7678dd76",
      "s": "0x616f1488c245b191961a6cdc14dc5d4379c9b2284e8f569034775f960c8500fb",
      "v": 28,
      "creates": null,
      "raw": "0xf87208850d641f460d830249f094e28e72fcf78647adce1f1252f240bbfaebd63bcc893635c9adc5dea000008445466f3a1ca0e5140353ca8ee00280d60e3cf202f8e22a55eeda488ebed059b6ba3e7678dd76a0616f1488c245b191961a6cdc14dc5d4379c9b2284e8f569034775f960c8500fb",
      "networkId": 0,
      "chainId": 0
    }
  ]
}