{
  "hash": "0x458a591f379510ed04198711dfe8424ad224cac8508acf5b21c73bf2e1b1e8ff",
  "parentHash": "0x32e4e15272df856fa32254a55caa550d3c6c89eb8bccb7ef5ff957b134eaef56",
  "number": 101253,
  "timestamp": 1439819917,
  "nonce": "0xe981fb0f653ca618",
  "difficulty": 3813181486168,
  "gasLimit": {
    "_hex": "0x2fefd8"
  },
  "gasUsed": {
    "_hex": "0x5208"
  },
  "miner": "0x9D49F602b0fdb924Bd63DDE2Bd0907E4A07c63a7",
  "extraData": "0x476574682f76312e302e312f6c696e75782f676f312e342e32",
  "transactions": [
    {
      "hash": "0x45e6429ebfefcfca2cc8423e5b49c506c1d017e399069a8118cf159724da5ce8",
      "blockHash": "0x458a591f379510ed04198711dfe8424ad224cac8508acf5b21c73bf2e1b1e8ff",
      "blockNumber": 101253,
      "transactionIndex": 0,
      "confirmations": null,
      "from": "0x40B9b889A21Ff1534d018D71Dc406122EBcf3F5A",
      "gasPrice": {
        "_hex": "0x1039610306b"
      },
      "gasLimit": {
        "_hex": "0x15f90"
      },
      "to": "0x645B979F8ce622236DB26feB803455d40C328615",
      "value": {
        "_hex": "0x6c6b935b8bbd400000"
      },
      "nonce": 49,
      "data": "0x",
      "r": "0x9b0395a00d2cac41ba60f2d19965d22e7bcfd937c22b4c5aa32bc6e3524d9c32",
      "s": "0x10b9031c5b7552606a14429aebd113d1d9c5522c2db22358c7fd6f92559fd2fb",
      "v": 28,
      "creates": null,
      "raw": "0xf86f318601039610306b83015f9094645b979f8ce622236db26feb803455d40c328615896c6b935b8bbd400000801ca09b0395a00d2cac41ba60f2d19965d22e7bcfd937c22b4c5aa32bc6e3524d9c32a010b9031c5b7552606a14429aebd113d1d9c5522c2db22358c7fd6f92559fd2fb",
      "networkId": 0,
      "chainId": 0
    }
  ]
}