{
  "hash": "0x8a991b0b9f575e12b8c9acace7b86954df7f5684aaa46d90c95e4ef7573805d2",
  "parentHash": "0x523ccc942e463df90fc5adf6a0496f62f1b81efc9b0b2a81303a015e11eecead",
  "number": 114399,
  "timestamp": 1440039677,
  "nonce": "0x0b06ed8171193b5e",
  "difficulty": 4512352514655,
  "gasLimit": {
    "_hex": "0x2fefd8"
  },
  "gasUsed": {
    "_hex": "0x5208"
  },
  "miner": "0xe6A7a1d47ff21B6321162AEA7C6CB457D5476Bca",
  "extraData": "0x476574682f76312e302e312d38326566323666362f6c696e75782f676f312e34",
  "transactions": [
    {
      "hash": "0x05ee7a64a301ac7e510fe61d5e3c3d25db85d412113bfe2e3001d8cbc381d869",
      "blockHash": "0x8a991b0b9f575e12b8c9acace7b86954df7f5684aaa46d90c95e4ef7573805d2",
      "blockNumber": 114399,
      "transactionIndex": 0,
      "confirmations": null,
      "from": "0x32Be343B94f860124dC4fEe278FDCBD38C102D88",
      "gasPrice": {
        "_hex": "0xdf8d24cd1"
      },
      "gasLimit": {
        "_hex": "0x5208"
      },
      "to": "0xc040523DA0980f73514b7E3c85982C071BEd91A1",
      "value": {
        "_hex": "0x6a94d74f430000"
      },
      "nonce": 1393,
      "data": "0x",
      "r": "0xc6a3f4088c2d04abd948fa43afd9322f3e5b606ce7aea94a7eba03a7ca440a1a",
      "s": "0x6a2ee8229db7ce5976073671794366e429f47d1cae1f780fb9598a9120621183",
      "v": 28,
      "creates": null,
      "raw": "0xf86d820571850df8d24cd182520894c040523da0980f73514b7e3c85982c071bed91a1876a94d74f430000801ca0c6a3f4088c2d04abd948fa43afd9322f3e5b606ce7aea94a7eba03a7ca440a1aa06a2ee8229db7ce5976073671794366e429f47d1cae1f780fb9598a9120621183",
      "networkId": 0,
      "chainId": 0
    }
  ]
}