{
  "hash": "0x575aceaec6c0ab148d9c156895839c92f7a52b7ad4053790b0d517582131fa77",
  "parentHash": "0x278e92dc8aedf55e72b56c16155b83b6010de3a1c463b2634595c15139e4e7c5",
  "number": 121183,
  "timestamp": 1440172866,
  "nonce": "0xe54cb30535f06e2e",
  "difficulty": 4399961799880,
  "gasLimit": {
    "_hex": "0x2fefd8"
  },
  "gasUsed": {
    "_hex": "0x5208"
  },
  "miner": "0xe6A7a1d47ff21B6321162AEA7C6CB457D5476Bca",
  "extraData": "0xd783010002844765746887676f312e342e32856c696e7578",
  "transactions": [
    {
      "hash": "0x38a32a3b460208d418e0589dc7cfbb7f20709d9a7fa96e7aef5b69e52bed169d",
      "blockHash": "0x575aceaec6c0ab148d9c156895839c92f7a52b7ad4053790b0d517582131fa77",
      "blockNumber": 121183,
      "transactionIndex": 0,
      "confirmations": null,
      "from": "0x9B80BD38c4afE0942F8029298A11fACe85ce4cAF",
      "gasPrice": {
        "_hex": "0xba43b7400"
      },
      "gasLimit": {
        "_hex": "0x61a8"
      },
      "to": "0xF109ca710C0Df51c1a86dBA1B0BA0Ed038114463",
      "value": {
        "_hex": "0x1bc16d674ec80000"
      },
      "nonce": 5,
      "data": "0x",
      "r": "0x60c56d5585aeeec0de3b7941dc9c5e81728db7bc7e0ec5f53993bd52347ddd50",
      "s": "0x1b0a871e07054e97c622e4894ff1fd509d17b93ad33ca32f292366a6d1add139",
      "v": 27,
      "creates": null,
      "raw": "0xf86c05850ba43b74008261a894f109ca710c0df51c1a86dba1b0ba0ed038114463881bc16d674ec80000801ba060c56d5585aeeec0de3b7941dc9c5e81728db7bc7e0ec5f53993bd52347ddd50a01b0a871e07054e97c622e4894ff1fd509d17b93ad33ca32f292366a6d1add139",
      "networkId": 0,
      "chainId": 0
    }
  ]
}