{
  "hash": "0x7489dd7858804d0adf14b879bd8d09e39ebe7f6f9dcb3e061ff44cfdf679100b",
  "parentHash": "0x867c01978714041e4141cb5501ced2dfb04d4ebf348799730b9fb344e515bf79",
  "number": 113407,
  "timestamp": 1440023015,
  "nonce": "0x330255a3488385be",
  "difficulty": 4464667335691,
  "gasLimit": {
    "_hex": "0x2fefd8"
  },
  "gasUsed": {
    "_hex": "0xa410"
  },
  "miner": "0xe6A7a1d47ff21B6321162AEA7C6CB457D5476Bca",
  "extraData": "0x476574682f76312e302e312d38326566323666362f6c696e75782f676f312e34",
  "transactions": [
    {
      "hash": "0xe01f94caebebe5da67a67ca12ef03b0791a527108cafb3d4ea42375f8550e91d",
      "blockHash": "0x7489dd7858804d0adf14b879bd8d09e39ebe7f6f9dcb3e061ff44cfdf679100b",
      "blockNumber": 113407,
      "transactionIndex": 0,
      "confirmations": null,
      "from": "0x2753Eb7f173C1e8B9F5315395ef4608F92b637AB",
      "gasPrice": {
        "_hex": "0xd70381419"
      },
      "gasLimit": {
        "_hex": "0x5208"
      },
      "to": "0x32Be343B94f860124dC4fEe278FDCBD38C102D88",
      "value": {
        "_hex": "0x49b26c4affe7d800"
      },
      "nonce": 2,
      "data": "0x",
      "r": "0x8353fd8b7de48e3e171ccfd96fe4330100a50309526933a51aedb768bcca00ff",
      "s": "0x2303f336c9c293bb0d560e894b836cb3b95dd3beed40a5e0adc899f134015fd5",
      "v": 28,
      "creates": null,
      "raw": "0xf86c02850d703814198252089432be343b94f860124dc4fee278fdcbd38c102d888849b26c4affe7d800801ca08353fd8b7de48e3e171ccfd96fe4330100a50309526933a51aedb768bcca00ffa02303f336c9c293bb0d560e894b836cb3b95dd3beed40a5e0adc899f134015fd5",
      "networkId": 0,
      "chainId": 0
    },
    {
      "hash": "0x642a586a44091a94e520a44271c1a5e2e75cbce7b259e265891e18198ad02e0f",
      "blockHash": "0x7489dd7858804d0adf14b879bd8d09e39ebe7f6f9dcb3e061ff44cfdf679100b",
      "blockNumber": 113407,
      "transactionIndex": 1,
      "confirmations": null,
      "from": "0x563e085b6739fd86ac81775dd9867Bac0c489b6A",
      "gasPrice": {
        "_hex": "0xd70381419"
      },
      "gasLimit": {
        "_hex": "0x5208"
      },
      "to": "0x32Be343B94f860124dC4fEe278FDCBD38C102D88",
      "value": {
        "_hex": "0x2c39bf076fa38400"
      },
      "nonce": 3,
      "data": "0x",
      "r": "0x0b429d591a3fa5d276f8f3903142503ad141a3b6fb9436dd52dd1a4de16e4bd0",
      "s": "0x008b4bf38ed344d9809200fb8af1faa67b15d5804cd11643d018d7e2af0e6954",
      "v": 27,
      "creates": null,
      "raw": "0xf86b03850d703814198252089432be343b94f860124dc4fee278fdcbd38c102d88882c39bf076fa38400801ba00b429d591a3fa5d276f8f3903142503ad141a3b6fb9436dd52dd1a4de16e4bd09f8b4bf38ed344d9809200fb8af1faa67b15d5804cd11643d018d7e2af0e6954",
      "networkId": 0,
      "chainId": 0
    }
  ]
}