{
  "hash": "0x75867beae2f9353f6f78660ca1b5a9a713b27243a591208d296f6136cdc637f2",
  "parentHash": "0x103631ac078b618d5da4676e641568ffb4ac8e2f68e057427c5899c2ff0397f6",
  "number": 105626,
  "timestamp": 1439890784,
  "nonce": "0x315aaac7589f04d3",
  "difficulty": 4410282204926,
  "gasLimit": {
    "_hex": "0x2fefd8"
  },
  "gasUsed": {
    "_hex": "0xa410"
  },
  "miner": "0x0eDEd3DA479d0beF8eeC92A76644D3f4E3C177f7",
  "extraData": "0x476574682f76312e302e312f6c696e75782f676f312e342e32",
  "transactions": [
    {
      "hash": "0xe282c62028d38e199284b6b255be692b28d7421ba64086815a4fa4d8683ea32d",
      "blockHash": "0x75867beae2f9353f6f78660ca1b5a9a713b27243a591208d296f6136cdc637f2",
      "blockNumber": 105626,
      "transactionIndex": 0,
      "confirmations": null,
      "from": "0x30beD8049947963394D93412326225E4e3123601",
      "gasPrice": {
        "_hex": "0xcd362ea0a"
      },
      "gasLimit": {
        "_hex": "0x5208"
      },
      "to": "0x32Be343B94f860124dC4fEe278FDCBD38C102D88",
      "value": {
        "_hex": "0x54a3719178c29c00"
      },
      "nonce": 14,
      "data": "0x",
      "r": "0x97b6c3b1e9ed75b3cccb17a25573bd35bd159c3b98345d3604de91775d68e319",
      "s": "0x3c43208ac0132bae55073d61472c225ce7819367093e90e1985ed3bf3567bfbc",
      "v": 27,
      "creates": null,
      "raw": "0xf86c0e850cd362ea0a8252089432be343b94f860124dc4fee278fdcbd38c102d888854a3719178c29c00801ba097b6c3b1e9ed75b3cccb17a25573bd35bd159c3b98345d3604de91775d68e319a03c43208ac0132bae55073d61472c225ce7819367093e90e1985ed3bf3567bfbc",
      "networkId": 0,
      "chainId": 0
    },
    {
      "hash": "0x87a2783d8bada6242b247c7dd9296fb43c9a5b8cf0e12c64c581e6ec2fc1bf9e",
      "blockHash": "0x75867beae2f9353f6f78660ca1b5a9a713b27243a591208d296f6136cdc637f2",
      "blockNumber": 105626,
      "transactionIndex": 1,
      "confirmations": null,
      "from": "0xa6BDc31c431B8F97848c9D60cbbe9660dc450eB7",
      "gasPrice": {
        "_hex": "0xcd362ea0a"
      },
      "gasLimit": {
        "_hex": "0x5208"
      },
      "to": "0x32Be343B94f860124dC4fEe278FDCBD38C102D88",
      "value": {
        "_hex": "0x34069104e2979c00"
      },
      "nonce": 173,
      "data": "0x",
      "r": "0x716f91623ae6000321d6ebd90d75d656f1a4e5b06f758857586d06b5492af4d9",
      "s": "0x34050ca06d595f7a5a5fadea4127e5acafe025ab32ab6b1741f1b8ea70154e04",
      "v": 27,
      "creates": null,
      "raw": "0xf86d81ad850cd362ea0a8252089432be343b94f860124dc4fee278fdcbd38c102d888834069104e2979c00801ba0716f91623ae6000321d6ebd90d75d656f1a4e5b06f758857586d06b5492af4d9a034050ca06d595f7a5a5fadea4127e5acafe025ab32ab6b1741f1b8ea70154e04",
      "networkId": 0,
      "chainId": 0
    }
  ]
}