{
  "hash": "0x41fde290fb5f5bc3e4ff8eb99b458d773d6d7f904c267472de444ca3c956a4e2",
  "parentHash": "0x4e951466d87130b1a2f75ee4ee5a34c3727a9d600b404fd2de86aae8efca3a23",
  "number": 71685,
  "timestamp": 1439340071,
  "nonce": "0x53c69bf3737e3473",
  "difficulty": 2182487268409,
  "gasLimit": {
    "_hex": "0x2fefd8"
  },
  "gasUsed": {
    "_hex": "0xaec1"
  },
  "miner": "0xf927a40C8B7F6E07c5af7FA2155B4864a4112B13",
  "extraData": "0x",
  "transactions": [
    {
      "hash": "0xc1355e0c9493fa84bc8d01cdf20452b38218cb1b8888114a7c27a5499655e0f4",
      "blockHash": "0x41fde290fb5f5bc3e4ff8eb99b458d773d6d7f904c267472de444ca3c956a4e2",
      "blockNumber": 71685,
      "transactionIndex": 0,
      "confirmations": null,
      "from": "0x17580B766f7453525ca4C6A88b01b50570EA088C",
      "gasPrice": {
        "_hex": "0xcece773dd"
      },
      "gasLimit": {
        "_hex": "0x61a80"
      },
      "to": "0x5Fe5B7546D1628f7348B023A0393de1FC825A4fD",
      "value": {
        "_hex": "0x7ce66c50e2840000"
      },
      "nonce": 256,
      "data": "0xb595b8b50000000000000000000000000000000000000000000000000000000000000001",
      "r": "0x627bfbac25004437c7d172da3b539285f80132184a6263d1045b0e3a715fbbe1",
      "s": "0x1bb7b32b1dd44dbe8bc1c9a9a08266e005fb62658accb6eeacb14173e10b1b7f",
      "v": 27,
      "creates": null,
      "raw": "0xf893820100850cece773dd83061a80945fe5b7546d1628f7348b023a0393de1fc825a4fd887ce66c50e2840000a4b595b8b500000000000000000000000000000000000000000000000000000000000000011ba0627bfbac25004437c7d172da3b539285f80132184a6263d1045b0e3a715fbbe1a01bb7b32b1dd44dbe8bc1c9a9a08266e005fb62658accb6eeacb14173e10b1b7f",
      "networkId": 0,
      "chainId": 0
    }
  ]
}