{
  "hash": "0xd40f6863a5a5ba272f94874c84d3d25d54754eb7dadc71a3c39b4b3139bebb01",
  "parentHash": "0x502b26aa6d85e93eafca86dd925b0537215b98a85621ef1ce06f1b910ca3dfcf",
  "number": 120946,
  "timestamp": 1440168879,
  "nonce": "0x1fe6660ee41f9921",
  "difficulty": 4419464978810,
  "gasLimit": {
    "_hex": "0x2fefd8"
  },
  "gasUsed": {
    "_hex": "0x5208"
  },
  "miner": "0x790b8a3cE86E707ED0eD32bF89B3269692a23CC1",
  "extraData": "0xd783010002844765746887676f312e342e32856c696e7578",
  "transactions": [
    {
      "hash": "0x0217cbbb10856ef2e107821269d8bb834928e81f389b1ee380249e51bc35a213",
      "blockHash": "0xd40f6863a5a5ba272f94874c84d3d25d54754eb7dadc71a3c39b4b3139bebb01",
      "blockNumber": 120946,
      "transactionIndex": 0,
      "confirmations": null,
      "from": "0x608f4b86321a68453f9adf6F06F7Fc3E621739ad",
      "gasPrice": {
        "_hex": "0xba43b7400"
      },
      "gasLimit": {
        "_hex": "0x5208"
      },
      "to": "0x32Be343B94f860124dC4fEe278FDCBD38C102D88",
      "value": {
        "_hex": "0x8acaddfcb6eba000"
      },
      "nonce": 86,
      "data": "0x",
      "r": "0xbb4aa0d6fe28264397e838f5bb6b471f45dadf2333b2020d5dbe0ab7a42461f2",
      "s": "0x4220410ac61169b23b75eb5ca917a643297641f55ad1e7a8397f7dfeb7732ec4",
      "v": 27,
      "creates": null,
      "raw": "0xf86c56850ba43b74008252089432be343b94f860124dc4fee278fdcbd38c102d88888acaddfcb6eba000801ba0bb4aa0d6fe28264397e838f5bb6b471f45dadf2333b2020d5dbe0ab7a42461f2a04220410ac61169b23b75eb5ca917a643297641f55ad1e7a8397f7dfeb7732ec4",
      "networkId": 0,
      "chainId": 0
    }
  ]
}