{
  "hash": "0x0070568049cd5a7fab46ade0dd63e78dce5be59cf901c7778fd939d2ad46c479",
  "parentHash": "0x5740f15196d1abde979c307a5424f9ef5a21e6bc130fa300f6c9790f70e7f3ef",
  "number": 68869,
  "timestamp": 1439294940,
  "nonce": "0xe672443bdd332e86",
  "difficulty": 2021121236559,
  "gasLimit": {
    "_hex": "0x2fefd8"
  },
  "gasUsed": {
    "_hex": "0x5208"
  },
  "miner": "0x123843545FB525C8E134c9A5F15ADA6865cc3848",
  "extraData": "0x476574682f76312e302e312f77696e646f77732f676f312e342e32",
  "transactions": [
    {
      "hash": "0xd9ceb734187e7cadf23f4ea81175eb4220e6c7396836a2017d4ad01b7c90da1f",
      "blockHash": "0x0070568049cd5a7fab46ade0dd63e78dce5be59cf901c7778fd939d2ad46c479",
      "blockNumber": 68869,
      "transactionIndex": 0,
      "confirmations": null,
      "from": "0x6747f922385c9a6F9cfDf095F34345257DD597bE",
      "gasPrice": {
        "_hex": "0xba43b7400"
      },
      "gasLimit": {
        "_hex": "0x5208"
      },
      "to": "0xcc8609e3A8CcE32745B3e3b0f46Cc261737e04b4",
      "value": {
        "_hex": "0x1fcbfa42bd6000"
      },
      "nonce": 137,
      "data": "0x",
      "r": "0xa972b40b1b05822100a54912ade6682a45f6ae0e99356e4dbcbcb9c6b2f1b52d",
      "s": "0x21c2b1ef32cb693bc4d0abf296a6ebd2250e7ce7b64cfe1c83ee30a010e0094a",
      "v": 27,
      "creates": null,
      "raw": "0xf86c8189850ba43b740082520894cc8609e3a8cce32745b3e3b0f46cc261737e04b4871fcbfa42bd6000801ba0a972b40b1b05822100a54912ade6682a45f6ae0e99356e4dbcbcb9c6b2f1b52da021c2b1ef32cb693bc4d0abf296a6ebd2250e7ce7b64cfe1c83ee30a010e0094a",
      "networkId": 0,
      "chainId": 0
    }
  ]
}