{
  "hash": "0xab7c3276187b141067de864f248e8e93777baadeb8838c135171683d6726c09a",
  "parentHash": "0x494b543c6eee45326161b1cce9254b7105778f380f375624d5974d7a31a238d7",
  "number": 68297,
  "timestamp": 1439285508,
  "nonce": "0x90669bf11c420d04",
  "difficulty": 2003571923848,
  "gasLimit": {
    "_hex": "0x2fefd8"
  },
  "gasUsed": {
    "_hex": "0x5208"
  },
  "miner": "0xf927a40C8B7F6E07c5af7FA2155B4864a4112B13",
  "extraData": "0x",
  "transactions": [
    {
      "hash": "0xd0dc84cb48e13cde263b170f16c4cc72784b14221cd5f8e7bcf3a8d745bda53d",
      "blockHash": "0xab7c3276187b141067de864f248e8e93777baadeb8838c135171683d6726c09a",
      "blockNumber": 68297,
      "transactionIndex": 0,
      "confirmations": null,
      "from": "0x6747f922385c9a6F9cfDf095F34345257DD597bE",
      "gasPrice": {
        "_hex": "0xba43b7400"
      },
      "gasLimit": {
        "_hex": "0x5208"
      },
      "to": "0xAf6EC5954DA05b5E2a5CB68F2154a8D1d2f20Bb9",
      "value": {
        "_hex": "0x1fcbfa42bd6000"
      },
      "nonce": 48,
      "data": "0x",
      "r": "0x3a33c7d4fa6eec28c11ee972945d299a7790342f09dc1dfee8513eaa92c9443e",
      "s": "0x7bb96ca86b114792f0cc4f0932362b7a549ded49e3cd0f166b3882849b40b774",
      "v": 28,
      "creates": null,
      "raw": "0xf86b30850ba43b740082520894af6ec5954da05b5e2a5cb68f2154a8d1d2f20bb9871fcbfa42bd6000801ca03a33c7d4fa6eec28c11ee972945d299a7790342f09dc1dfee8513eaa92c9443ea07bb96ca86b114792f0cc4f0932362b7a549ded49e3cd0f166b3882849b40b774",
      "networkId": 0,
      "chainId": 0
    }
  ]
}