{
  "hash": "0xe7e27e96fa8cdfcc39855e16289811f07ad637387fc19c4087990fc171e6a434",
  "parentHash": "0xef4a979af3a39822cbfc8be93aff57d2bc9cc6b847b36f8d696bab3188c4f668",
  "number": 48587,
  "timestamp": 1438959476,
  "nonce": "0x063e6a0282f635ad",
  "difficulty": 1466425805281,
  "gasLimit": {
    "_hex": "0x1a092"
  },
  "gasUsed": {
    "_hex": "0x546c"
  },
  "miner": "0xf8E0CA3Ed80bd541b94BEdCf259e8CF2141A9523",
  "extraData": "0x476574682f76312e302e312f77696e646f77732f676f312e342e32",
  "transactions": [
    {
      "hash": "0x66f8f0e7412541aa82790f7812477f8849e86709ed86fab5a2e29670f128faae",
      "blockHash": "0xe7e27e96fa8cdfcc39855e16289811f07ad637387fc19c4087990fc171e6a434",
      "blockNumber": 48587,
      "transactionIndex": 0,
      "confirmations": null,
      "from": "0x2100381D60a5B54aDC09D19683A8F6D5bB4bFbCb",
      "gasPrice": {
        "_hex": "0xd499f73a3"
      },
      "gasLimit": {
        "_hex": "0x15f90"
      },
      "to": "0x2910543Af39abA0Cd09dBb2D50200b3E800A63D2",
      "value": {
        "_hex": "0xde0b6b3a7640000"
      },
      "nonce": 0,
      "data": "0x454e37394b33593930",
      "r": "0x08884d67f1a5a9d0e8b843dbc71ce012d2990690ac2147b2f6c84a774c82db15",
      "s": "0x7bd99f67a5c9bd40476e89c099d70cdcdad9ca85ffdd867263f8fe1b66d6630c",
      "v": 27,
      "creates": null,
      "raw": "0xf87680850d499f73a383015f90942910543af39aba0cd09dbb2d50200b3e800a63d2880de0b6b3a764000089454e37394b335939301ba008884d67f1a5a9d0e8b843dbc71ce012d2990690ac2147b2f6c84a774c82db15a07bd99f67a5c9bd40476e89c099d70cdcdad9ca85ffdd867263f8fe1b66d6630c",
      "networkId": 0,
      "chainId": 0
    }
  ]
}