{
  "hash": "0xe3f9a72d4d05de6577cf436b3fcfb49b44fccd7d660cf9a7b3e5b664068b1995",
  "parentHash": "0xc2502fea0b2c32f0b4a71de830cfb8948d552e9c401edd684931f0a4e05a45bd",
  "number": 83540,
  "timestamp": 1439536985,
  "nonce": "0x2de7889649548ec9",
  "difficulty": 2432489549406,
  "gasLimit": {
    "_hex": "0x2fefd8"
  },
  "gasUsed": {
    "_hex": "0xa410"
  },
  "miner": "0xBD744E3F13D79B33F6c8E1d5E32F8E9BA2866c46",
  "extraData": "0x476574682f76312e302e312d39613032663533372f6c696e75782f676f312e34",
  "transactions": [
    {
      "hash": "0x50a199e1d71cb67fbf3752ea8b65de1b5efe30ce4680bb2cc06b68756e2f2b97",
      "blockHash": "0xe3f9a72d4d05de6577cf436b3fcfb49b44fccd7d660cf9a7b3e5b664068b1995",
      "blockNumber": 83540,
      "transactionIndex": 0,
      "confirmations": null,
      "from": "0xF9634a7Ee627EeF74f4d803113CD4F87E5162079",
      "gasPrice": {
        "_hex": "0xba43b7400"
      },
      "gasLimit": {
        "_hex": "0x5b04"
      },
      "to": "0x9f78552704fe7e52cC7C3853534aA2C3cf580D54",
      "value": {
        "_hex": "0xde0b6b3a7640000"
      },
      "nonce": 0,
      "data": "0x",
      "r": "0x27c50adc0c1d36eb1129bda94897e0b4de0b6c6415c8b8c3182d0a881b2ffa84",
      "s": "0x5397cbf4f40a39619d5f827858f00bf3ceba7a2eb903938827423a92b0a83477",
      "v": 28,
      "creates": null,
      "raw": "0xf86c80850ba43b7400825b04949f78552704fe7e52cc7c3853534aa2c3cf580d54880de0b6b3a7640000801ca027c50adc0c1d36eb1129bda94897e0b4de0b6c6415c8b8c3182d0a881b2ffa84a05397cbf4f40a39619d5f827858f00bf3ceba7a2eb903938827423a92b0a83477",
      "networkId": 0,
      "chainId": 0
    },
    {
      "hash": "0x106ca2803b4300e0597b7875c506966f503c4fb1ac45f6924a8606ab10228269",
      "blockHash": "0xe3f9a72d4d05de6577cf436b3fcfb49b44fccd7d660cf9a7b3e5b664068b1995",
      "blockNumber": 83540,
      "transactionIndex": 1,
      "confirmations": null,
      "from": "0xF9634a7Ee627EeF74f4d803113CD4F87E5162079",
      "gasPrice": {
        "_hex": "0xba43b7400"
      },
      "gasLimit": {
        "_hex": "0x5b04"
      },
      "to": "0x9f78552704fe7e52cC7C3853534aA2C3cf580D54",
      "value": {
        "_hex": "0x29a2241af62c0000"
      },
      "nonce": 1,
      "data": "0x",
      "r": "0x724e4a1a81311ebc0c5d2eff01402e78d38c60c1878e2a6a8a88e0dcc9170378",
      "s": "0xf417af59e17a62791e6a90261fb43f50d2266e148f36bd4d85259007787f8bd2",
      "v": 28,
      "creates": null,
      "raw": "0xf86c01850ba43b7400825b04949f78552704fe7e52cc7c3853534aa2c3cf580d548829a2241af62c0000801ca0724e4a1a81311ebc0c5d2eff01402e78d38c60c1878e2a6a8a88e0dcc9170378a0f417af59e17a62791e6a90261fb43f50d2266e148f36bd4d85259007787f8bd2",
      "networkId": 0,
      "chainId": 0
    }
  ]
}