{
  "hash": "0xc57260d16ab608e5c92422ef39c68feb921dbdead97725440bbf2ddb25c55567",
  "parentHash": "0x1bf37815b15045abb2632ac453fcedb997909efad68b9faf65b959529381815b",
  "number": 79771,
  "timestamp": 1439474821,
  "nonce": "0xc99c5e4aaa15a9ce",
  "difficulty": 2352957693541,
  "gasLimit": {
    "_hex": "0x2fefd8"
  },
  "gasUsed": {
    "_hex": "0x17a15"
  },
  "miner": "0xC603Ab5ef41fC61AA8b76bEddb09e3Cfcbb174BD",
  "extraData": "0x476574682f76312e302e312f77696e646f77732f676f312e342e32",
  "transactions": [
    {
      "hash": "0xbe3d44379cb1872b72ebcbe780002efb104489a795c51bc5b88fa632fc3abb7b",
      "blockHash": "0xc57260d16ab608e5c92422ef39c68feb921dbdead97725440bbf2ddb25c55567",
      "blockNumber": 79771,
      "transactionIndex": 0,
      "confirmations": null,
      "from": "0x87C5B5874A18B4306DF8a752a6C8cc3E82daFc19",
      "gasPrice": {
        "_hex": "0x10569df2ecf"
      },
      "gasLimit": {
        "_hex": "0x493e0"
      },
      "to": "0xC4c51de1AbF5D60DBd329eC0F999Fd8f021ae9fC",
      "value": {
        "_hex": "0x8ac7230489e80000"
      },
      "nonce": 99,
      "data": "0x8d21618600000000000000000000000000000000000000000000000000000000000000808d5adaad541502933bfca57b79fdcf7b21a9ea7dbcf2e9321d253f5db02ac8f3",
      "r": "0x5b3b1f91b7523290f5e1e0ed5d6fd47bf0d2c61b886d9bedcc46d17ffdc9fca6",
      "s": "0x1c347efb582ef69dfcbf956282d564f54124d0c4630bff55f5abafea29bf4e0b",
      "v": 28,
      "creates": null,
      "raw": "0xf8b36386010569df2ecf830493e094c4c51de1abf5d60dbd329ec0f999fd8f021ae9fc888ac7230489e80000b8448d21618600000000000000000000000000000000000000000000000000000000000000808d5adaad541502933bfca57b79fdcf7b21a9ea7dbcf2e9321d253f5db02ac8f31ca05b3b1f91b7523290f5e1e0ed5d6fd47bf0d2c61b886d9bedcc46d17ffdc9fca6a01c347efb582ef69dfcbf956282d564f54124d0c4630bff55f5abafea29bf4e0b",
      "networkId": 0,
      "chainId": 0
    }
  ]
}