{
  "hash": "0x2a8112f571d583b34c6dd69a8bd90453f67ed99ecb9a2bfd36879681fe208936",
  "parentHash": "0x8705109922578ad07ddbab7e8ee0b3cd6ededda607c643b35b61a78ee40d4861",
  "number": 79618,
  "timestamp": 1439472637,
  "nonce": "0x91bcc4c5304940e2",
  "difficulty": 2342682961276,
  "gasLimit": {
    "_hex": "0x2fefd8"
  },
  "gasUsed": {
    "_hex": "0x546c"
  },
  "miner": "0xe6A7a1d47ff21B6321162AEA7C6CB457D5476Bca",
  "extraData": "0x476574682f76312e302e312d38326566323666362f6c696e75782f676f312e34",
  "transactions": [
    {
      "hash": "0xbe03104cbb88945abbb804fecd5726cad05f7a1804656e796d9a9e0f2627d8f5",
      "blockHash": "0x2a8112f571d583b34c6dd69a8bd90453f67ed99ecb9a2bfd36879681fe208936",
      "blockNumber": 79618,
      "transactionIndex": 0,
      "confirmations": null,
      "from": "0x8156360BBd370961ceCa6B6691D75006Ad204Cf2",
      "gasPrice": {
        "_hex": "0xde2eebc8c"
      },
      "gasLimit": {
        "_hex": "0x7530"
      },
      "to": "0x123843545FB525C8E134c9A5F15ADA6865cc3848",
      "value": {
        "_hex": "0xde0b6b3a7640000"
      },
      "nonce": 2,
      "data": "0x454e50393935473647",
      "r": "0x2e9b50e7730fc4f1d46f9ff5967bd4cdd5712c1d8980ab5e5d7d572b8c887fd4",
      "s": "0x48ff1db623e7cd82c76101ba5b7b03eb8347478133e57800cfd6eb1bc83121f3",
      "v": 28,
      "creates": null,
      "raw": "0xf87502850de2eebc8c82753094123843545fb525c8e134c9a5f15ada6865cc3848880de0b6b3a764000089454e503939354736471ca02e9b50e7730fc4f1d46f9ff5967bd4cdd5712c1d8980ab5e5d7d572b8c887fd4a048ff1db623e7cd82c76101ba5b7b03eb8347478133e57800cfd6eb1bc83121f3",
      "networkId": 0,
      "chainId": 0
    }
  ]
}