{
  "hash": "0x6dc4cc137e828d74ca51cf900c444b9e14178aba0f1d2ee2daaacb34cef6fb4e",
  "parentHash": "0x6510cc539919df6d2919192283cab801103a0a9ef383d0642c5ed0b0e82e1440",
  "number": 114518,
  "timestamp": 1440041793,
  "nonce": "0x9bf8909e357a7009",
  "difficulty": 4501285609802,
  "gasLimit": {
    "_hex": "0x2fefd8"
  },
  "gasUsed": {
    "_hex": "0x5208"
  },
  "miner": "0xe6A7a1d47ff21B6321162AEA7C6CB457D5476Bca",
  "extraData": "0x476574682f76312e302e312d38326566323666362f6c696e75782f676f312e34",
  "transactions": [
    {
      "hash": "0x3ab13461ab02b9d0c496d08875b62d91b71c13d6f229a820a3260707628e9557",
      "blockHash": "0x6dc4cc137e828d74ca51cf900c444b9e14178aba0f1d2ee2daaacb34cef6fb4e",
      "blockNumber": 114518,
      "transactionIndex": 0,
      "confirmations": null,
      "from": "0x70a8184C570BA3e6DCD397243dCe1173b464f3EE",
      "gasPrice": {
        "_hex": "0xd285d793f"
      },
      "gasLimit": {
        "_hex": "0x30d40"
      },
      "to": "0x120A270bbC009644e35F0bB6ab13f95b8199c4ad",
      "value": {
        "_hex": "0x28ebcfb81fc141140"
      },
      "nonce": 0,
      "data": "0x",
      "r": "0x714bd7462ecb4583f35e83d03c96c477f8dcf9f904b2ecffb96eb91f941c9d03",
      "s": "0x0734235fe0624befce26a790a1a47e62741b7d9c50cf822aad63dc1b0c84bbda",
      "v": 28,
      "creates": null,
      "raw": "0xf86e80850d285d793f83030d4094120a270bbc009644e35f0bb6ab13f95b8199c4ad89028ebcfb81fc141140801ca0714bd7462ecb4583f35e83d03c96c477f8dcf9f904b2ecffb96eb91f941c9d03a00734235fe0624befce26a790a1a47e62741b7d9c50cf822aad63dc1b0c84bbda",
      "networkId": 0,
      "chainId": 0
    }
  ]
}