{
  "hash": "0xb653e91276125ee2e540ab2ad069f0b078536d48e24a2ecefa7e9d5825006ae4",
  "parentHash": "0xb8382f194f6821694cae8c7d6e0eaac349f5eb82fee6a47c87454b3341d59f99",
  "number": 100970,
  "timestamp": 1439815367,
  "nonce": "0xb1e761c011c123f9",
  "difficulty": 3860144603727,
  "gasLimit": {
    "_hex": "0x2fefd8"
  },
  "gasUsed": {
    "_hex": "0xa410"
  },
  "miner": "0x9D49F602b0fdb924Bd63DDE2Bd0907E4A07c63a7",
  "extraData": "0x476574682f76312e302e312f6c696e75782f676f312e342e32",
  "transactions": [
    {
      "hash": "0x729c6aa8050d4d9505ec9937919e562cab2d574e6d4e063b47d2d8add1fc90ef",
      "blockHash": "0xb653e91276125ee2e540ab2ad069f0b078536d48e24a2ecefa7e9d5825006ae4",
      "blockNumber": 100970,
      "transactionIndex": 0,
      "confirmations": null,
      "from": "0xb1abce2918E21ddb93AA452731a12672A3d9F75a",
      "gasPrice": {
        "_hex": "0xdb03f6562"
      },
      "gasLimit": {
        "_hex": "0x5208"
      },
      "to": "0x32Be343B94f860124dC4fEe278FDCBD38C102D88",
      "value": {
        "_hex": "0x455f2ea0e66ba800"
      },
      "nonce": 80,
      "data": "0x",
      "r": "0xcb2977b04456d499af48da2529299b0b5adf5f9a2739fb06f8b013c36920e416",
      "s": "0x305cbe0ef36249f562399169ff7688376b63fb0a0f56c7afcb757d4b2dfd6834",
      "v": 27,
      "creates": null,
      "raw": "0xf86c50850db03f65628252089432be343b94f860124dc4fee278fdcbd38c102d8888455f2ea0e66ba800801ba0cb2977b04456d499af48da2529299b0b5adf5f9a2739fb06f8b013c36920e416a0305cbe0ef36249f562399169ff7688376b63fb0a0f56c7afcb757d4b2dfd6834",
      "networkId": 0,
      "chainId": 0
    },
    {
      "hash": "0xc7006b5987913d20728234f710347da5ca25723b645159cd9ccac62abe6e99c2",
      "blockHash": "0xb653e91276125ee2e540ab2ad069f0b078536d48e24a2ecefa7e9d5825006ae4",
      "blockNumber": 100970,
      "transactionIndex": 1,
      "confirmations": null,
      "from": "0xD9666150A9dA92d9108198a4072970805a8B3428",
      "gasPrice": {
        "_hex": "0xdb03f6562"
      },
      "gasLimit": {
        "_hex": "0x5208"
      },
      "to": "0x32Be343B94f860124dC4fEe278FDCBD38C102D88",
      "value": {
        "_hex": "0x455f2ea0e66ba800"
      },
      "nonce": 45,
      "data": "0x",
      "r": "0xdc3d3288e1bc9bb4cbb28e3c53270faf08c8b37b7081d23ef5b3db64b7911f7b",
      "s": "0x5ff838b75942bc9415e65668be6ef2eea22f8be0169ab34fe73a06bedb184895",
      "v": 28,
      "creates": null,
      "raw": "0xf86c2d850db03f65628252089432be343b94f860124dc4fee278fdcbd38c102d8888455f2ea0e66ba800801ca0dc3d3288e1bc9bb4cbb28e3c53270faf08c8b37b7081d23ef5b3db64b7911f7ba05ff838b75942bc9415e65668be6ef2eea22f8be0169ab34fe73a06bedb184895",
      "networkId": 0,
      "chainId": 0
    }
  ]
}