{
  "hash": "0xe4b3cf19462102b0395a3a5aef3428e4c5466569b94c5a1f8590c390cf0c1aa1",
  "parentHash": "0xb17e1025fdd408037284915265dd5d22531547636ca8a7ffa6ec92243272dde9",
  "number": 78675,
  "timestamp": 1439457473,
  "nonce": "0xc303e3b89e9206da",
  "difficulty": 2296508023934,
  "gasLimit": {
    "_hex": "0x2fefd8"
  },
  "gasUsed": {
    "_hex": "0xa410"
  },
  "miner": "0xe6A7a1d47ff21B6321162AEA7C6CB457D5476Bca",
  "extraData": "0x476574682f76312e302e312d38326566323666362f6c696e75782f676f312e34",
  "transactions": [
    {
      "hash": "0x366aa5662ca33c5fe6d3445fb58a933f382a6e0cce9acac18a1c44177a26165a",
      "blockHash": "0xe4b3cf19462102b0395a3a5aef3428e4c5466569b94c5a1f8590c390cf0c1aa1",
      "blockNumber": 78675,
      "transactionIndex": 0,
      "confirmations": null,
      "from": "0xbA86D58204A1f1fbe53Ff71aa038BC08cb4057e8",
      "gasPrice": {
        "_hex": "0xdbffc0c7b"
      },
      "gasLimit": {
        "_hex": "0x5208"
      },
      "to": "0x32Be343B94f860124dC4fEe278FDCBD38C102D88",
      "value": {
        "_hex": "0x8ac2bb16f5986000"
      },
      "nonce": 4,
      "data": "0x",
      "r": "0x88cb844476ae3c3561f7871b124acfc4a8da5734fafb35941423ab4a9e7ce1d6",
      "s": "0x082af0afd2032f9125d6f64643a223979269fd1e5ecceb52751a2faf50b1dcc3",
      "v": 28,
      "creates": null,
      "raw": "0xf86c04850dbffc0c7b8252089432be343b94f860124dc4fee278fdcbd38c102d88888ac2bb16f5986000801ca088cb844476ae3c3561f7871b124acfc4a8da5734fafb35941423ab4a9e7ce1d6a0082af0afd2032f9125d6f64643a223979269fd1e5ecceb52751a2faf50b1dcc3",
      "networkId": 0,
      "chainId": 0
    },
    {
      "hash": "0x0907f49346c396a2ab889b1845785854bf905942b5514a7b16ff15322b74c8aa",
      "blockHash": "0xe4b3cf19462102b0395a3a5aef3428e4c5466569b94c5a1f8590c390cf0c1aa1",
      "blockNumber": 78675,
      "transactionIndex": 1,
      "confirmations": null,
      "from": "0xa6BDc31c431B8F97848c9D60cbbe9660dc450eB7",
      "gasPrice": {
        "_hex": "0xdbffc0c7b"
      },
      "gasLimit": {
        "_hex": "0x5208"
      },
      "to": "0x32Be343B94f860124dC4fEe278FDCBD38C102D88",
      "value": {
        "_hex": "0x45639f6343d51800"
      },
      "nonce": 26,
      "data": "0x",
      "r": "0xa66b365e0d06ad36ea137c32f9a1ee7e012eca2d23796636f36d6b4197e139ef",
      "s": "0x1868b52e1585ca5618ae1177dcbf23c90d26b626b66f541a1e925f3091e8ac5b",
      "v": 28,
      "creates": null,
      "raw": "0xf86c1a850dbffc0c7b8252089432be343b94f860124dc4fee278fdcbd38c102d888845639f6343d51800801ca0a66b365e0d06ad36ea137c32f9a1ee7e012eca2d23796636f36d6b4197e139efa01868b52e1585ca5618ae1177dcbf23c90d26b626b66f541a1e925f3091e8ac5b",
      "networkId": 0,
      "chainId": 0
    }
  ]
}