{
  "hash": "0xb278a302d1022ac0ab0f98dcf61d0ce2bdfb1103054dc2856b700c7d903b58bd",
  "parentHash": "0x6fbedaae2af3e98add7b9c6ce756e8a392e733b497875fb7dacc48022364b292",
  "number": 100540,
  "timestamp": 1439808128,
  "nonce": "0x08e4f1a2062bf4b8",
  "difficulty": 3826562351105,
  "gasLimit": {
    "_hex": "0x2fefd8"
  },
  "gasUsed": {
    "_hex": "0x14820"
  },
  "miner": "0x1217627fe41A00f0b828317F43E6d58F47dBfc43",
  "extraData": "0x476574682f76312e302e302d66313265303136312f6c696e75782f676f312e34",
  "transactions": [
    {
      "hash": "0x29b1bf3d389923abd56f805da757cda72d74becd00b53c705efb439393a6d313",
      "blockHash": "0xb278a302d1022ac0ab0f98dcf61d0ce2bdfb1103054dc2856b700c7d903b58bd",
      "blockNumber": 100540,
      "transactionIndex": 0,
      "confirmations": null,
      "from": "0x3629B45bBf972aDc23C064D31B7d7c6ce17415D5",
      "gasPrice": {
        "_hex": "0xd3350a81d"
      },
      "gasLimit": {
        "_hex": "0x5208"
      },
      "to": "0x32Be343B94f860124dC4fEe278FDCBD38C102D88",
      "value": {
        "_hex": "0x4688ff417ea05c000"
      },
      "nonce": 3,
      "data": "0x",
      "r": "0x90cf192ef8e1d0b5abf69f32e2265f5073a1fdb11fe72ef4d22ec4ede0ec3510",
      "s": "0x520487cffeaaf399f6a3071618cffedc9780efc56e9bbc2ad3e4726297b037c2",
      "v": 27,
      "creates": null,
      "raw": "0xf86d03850d3350a81d8252089432be343b94f860124dc4fee278fdcbd38c102d888904688ff417ea05c000801ba090cf192ef8e1d0b5abf69f32e2265f5073a1fdb11fe72ef4d22ec4ede0ec3510a0520487cffeaaf399f6a3071618cffedc9780efc56e9bbc2ad3e4726297b037c2",
      "networkId": 0,
      "chainId": 0
    },
    {
      "hash": "0x7a5d30e73f95e52968f04109cd25220a52e715482ce0ec7e4c0556044374d1a9",
      "blockHash": "0xb278a302d1022ac0ab0f98dcf61d0ce2bdfb1103054dc2856b700c7d903b58bd",
      "blockNumber": 100540,
      "transactionIndex": 1,
      "confirmations": null,
      "from": "0x7fDF07A0f977e4032C1f082Df831423abf58D13D",
      "gasPrice": {
        "_hex": "0xd3350a81d"
      },
      "gasLimit": {
        "_hex": "0x5208"
      },
      "to": "0x32Be343B94f860124dC4fEe278FDCBD38C102D88",
      "value": {
        "_hex": "0x3ed8a4ce00857c00"
      },
      "nonce": 4,
      "data": "0x",
      "r": "0x785efaec6262dae454505bae66cf88b70f311baab40a4231af3fa75dbec76405",
      "s": "0x7b2440d0f423d58a33d1402ffc11d43628a3cd9283bc471febb5a5b30fb69bb3",
      "v": 27,
      "creates": null,
      "raw": "0xf86c04850d3350a81d8252089432be343b94f860124dc4fee278fdcbd38c102d88883ed8a4ce00857c00801ba0785efaec6262dae454505bae66cf88b70f311baab40a4231af3fa75dbec76405a07b2440d0f423d58a33d1402ffc11d43628a3cd9283bc471febb5a5b30fb69bb3",
      "networkId": 0,
      "chainId": 0
    },
    {
      "hash": "0xf2f27f2667bdfddcc65de10c570e483766729be7e8dd4d1b3dd957738c1e76dc",
      "blockHash": "0xb278a302d1022ac0ab0f98dcf61d0ce2bdfb1103054dc2856b700c7d903b58bd",
      "blockNumber": 100540,
      "transactionIndex": 2,
      "confirmations": null,
      "from": "0x7884D470204862a0d1A21122F41ee77430396Ee5",
      "gasPrice": {
        "_hex": "0xcda846009"
      },
      "gasLimit": {
        "_hex": "0x15f90"
      },
      "to": "0xE2989cbbB6CD15263234df954B559fBEc5fcEb40",
      "value": {
        "_hex": "0x186cc6acd4b0000"
      },
      "nonce": 58,
      "data": "0x",
      "r": "0xc740fe06099b3cada5d8bfe92899f0e3cf4ab541cb9291a0abaffc38d35fd42f",
      "s": "0x2c760c5eff1b6a736d977834a8d24e750bdc0eee2bd1f13af440304cfdf1e0dd",
      "v": 28,
      "creates": null,
      "raw": "0xf86d3a850cda84600983015f9094e2989cbbb6cd15263234df954b559fbec5fceb40880186cc6acd4b0000801ca0c740fe06099b3cada5d8bfe92899f0e3cf4ab541cb9291a0abaffc38d35fd42fa02c760c5eff1b6a736d977834a8d24e750bdc0eee2bd1f13af440304cfdf1e0dd",
      "networkId": 0,
      "chainId": 0
    },
    {
      "hash": "0xcfe5eb348afb791fb0caf352d7a2c6b025630be429a7bf5012917e6785b9f490",
      "blockHash": "0xb278a302d1022ac0ab0f98dcf61d0ce2bdfb1103054dc2856b700c7d903b58bd",
      "blockNumber": 100540,
      "transactionIndex": 3,
      "confirmations": null,
      "from": "0xa6BDc31c431B8F97848c9D60cbbe9660dc450eB7",
      "gasPrice": {
        "_hex": "0xd3350a81d"
      },
      "gasLimit": {
        "_hex": "0x5208"
      },
      "to": "0x32Be343B94f860124dC4fEe278FDCBD38C102D88",
      "value": {
        "_hex": "0x455f56a7c6d64c00"
      },
      "nonce": 149,
      "data": "0x",
      "r": "0xe1e2b8572c06cd11560b47c2d7309b9209329f39ca6a79629c74e1a9665d144c",
      "s": "0x26ff46396206f64e2d7388a79cbbeea594e8551d380ba924f8addc9c1e6b274c",
      "v": 28,
      "creates": null,
      "raw": "0xf86d8195850d3350a81d8252089432be343b94f860124dc4fee278fdcbd38c102d8888455f56a7c6d64c00801ca0e1e2b8572c06cd11560b47c2d7309b9209329f39ca6a79629c74e1a9665d144ca026ff46396206f64e2d7388a79cbbeea594e8551d380ba924f8addc9c1e6b274c",
      "networkId": 0,
      "chainId": 0
    }
  ]
}