{
  "hash": "0x2ff23bb188fc63b6127bb51fd15d1101e2c761e7fc542ae042af13331831fb90",
  "parentHash": "0x89c1b98d472ec71789e5ae6869307ac3be138d48094b216812958558c5ff333b",
  "number": 74627,
  "timestamp": 1439389484,
  "nonce": "0x3895433c44bad105",
  "difficulty": 2203132226712,
  "gasLimit": {
    "_hex": "0x2fefd8"
  },
  "gasUsed": {
    "_hex": "0xa410"
  },
  "miner": "0xe6A7a1d47ff21B6321162AEA7C6CB457D5476Bca",
  "extraData": "0x476574682f76312e302e312d38326566323666362f6c696e75782f676f312e34",
  "transactions": [
    {
      "hash": "0x0aedb81f4ced724de2b27bbdc8df130c72dec12f10aaa07c37e732eca3d0b202",
      "blockHash": "0x2ff23bb188fc63b6127bb51fd15d1101e2c761e7fc542ae042af13331831fb90",
      "blockNumber": 74627,
      "transactionIndex": 0,
      "confirmations": null,
      "from": "0xd6986162E8B905e6a771C3BCD1b2baa2B0bb386F",
      "gasPrice": {
        "_hex": "0xded8a72a1"
      },
      "gasLimit": {
        "_hex": "0x5208"
      },
      "to": "0x32Be343B94f860124dC4fEe278FDCBD38C102D88",
      "value": {
        "_hex": "0x1bbcf6e0cbebe800"
      },
      "nonce": 5,
      "data": "0x",
      "r": "0x2ea7fbe9bb42be8e76f347618e2bb526f24c31e2571d25038f2be4051a2f6192",
      "s": "0x37d68b599c55e04cc034f5cecad5909a4958f1a2b0e9eb474d51c03e67c2e962",
      "v": 27,
      "creates": null,
      "raw": "0xf86c05850ded8a72a18252089432be343b94f860124dc4fee278fdcbd38c102d88881bbcf6e0cbebe800801ba02ea7fbe9bb42be8e76f347618e2bb526f24c31e2571d25038f2be4051a2f6192a037d68b599c55e04cc034f5cecad5909a4958f1a2b0e9eb474d51c03e67c2e962",
      "networkId": 0,
      "chainId": 0
    },
    {
      "hash": "0xc4ffae0934921233d3106c8211a1b0998d95fcf92acb2adeb2a656d5ae9c540f",
      "blockHash": "0x2ff23bb188fc63b6127bb51fd15d1101e2c761e7fc542ae042af13331831fb90",
      "blockNumber": 74627,
      "transactionIndex": 1,
      "confirmations": null,
      "from": "0xF2d2AfF1320476cb8C6b607199D23175cc595693",
      "gasPrice": {
        "_hex": "0xcbf714454"
      },
      "gasLimit": {
        "_hex": "0x15f90"
      },
      "to": "0xF5EeDc192aB70b08D8354384aD94efD095849E00",
      "value": {
        "_hex": "0x3860e639d80640000"
      },
      "nonce": 23,
      "data": "0x",
      "r": "0x9d2597c7b5ffef98ecc2cdfb874b226d74aeced127d30d425bf8a1c8de56a638",
      "s": "0x259d351dc46a2e3ce67437f6e01b553fc5c427439e41e5968f0c104916b387cd",
      "v": 28,
      "creates": null,
      "raw": "0xf86e17850cbf71445483015f9094f5eedc192ab70b08d8354384ad94efd095849e008903860e639d80640000801ca09d2597c7b5ffef98ecc2cdfb874b226d74aeced127d30d425bf8a1c8de56a638a0259d351dc46a2e3ce67437f6e01b553fc5c427439e41e5968f0c104916b387cd",
      "networkId": 0,
      "chainId": 0
    }
  ]
}