{
  "hash": "0xbd655361634b387da0af724b880bcd8a7e46e3fe759760c37193b48722557480",
  "parentHash": "0xac371d839516292cc48fd56155b9a14a01273642f6dd79ee8c12c409ee3d2087",
  "number": 104023,
  "timestamp": 1439862958,
  "nonce": "0x06ebec29897f6d0a",
  "difficulty": 4260820726271,
  "gasLimit": {
    "_hex": "0x2fefd8"
  },
  "gasUsed": {
    "_hex": "0x5208"
  },
  "miner": "0xe6A7a1d47ff21B6321162AEA7C6CB457D5476Bca",
  "extraData": "0x476574682f76312e302e312d38326566323666362f6c696e75782f676f312e34",
  "transactions": [
    {
      "hash": "0xfb6166e762a3ace68353f9560ae5cc642e64f5b97cade14d9ddfcb6274ad07fd",
      "blockHash": "0xbd655361634b387da0af724b880bcd8a7e46e3fe759760c37193b48722557480",
      "blockNumber": 104023,
      "transactionIndex": 0,
      "confirmations": null,
      "from": "0xa6BDc31c431B8F97848c9D60cbbe9660dc450eB7",
      "gasPrice": {
        "_hex": "0xccd314a37"
      },
      "gasLimit": {
        "_hex": "0x5208"
      },
      "to": "0x32Be343B94f860124dC4fEe278FDCBD38C102D88",
      "value": {
        "_hex": "0x455f776105f4c400"
      },
      "nonce": 166,
      "data": "0x",
      "r": "0xf9af5a0362601c270e757f17f77dd72ee4b2fc497eca3b40a4c4a7f7961a9271",
      "s": "0x41e1c1c02604a0d2dc610239002b5ed55085c577dfd2f7e402718da84930d8ba",
      "v": 27,
      "creates": null,
      "raw": "0xf86d81a6850ccd314a378252089432be343b94f860124dc4fee278fdcbd38c102d8888455f776105f4c400801ba0f9af5a0362601c270e757f17f77dd72ee4b2fc497eca3b40a4c4a7f7961a9271a041e1c1c02604a0d2dc610239002b5ed55085c577dfd2f7e402718da84930d8ba",
      "networkId": 0,
      "chainId": 0
    }
  ]
}