{
  "hash": "0x68a6a56cce7b6f6f530b606f2bb10ead2fa70efe521c8c2f08306c6e9e537ed8",
  "parentHash": "0x0633c8d4a1c79d626cb3389c174b6b4704f507c300b04ad267f5b6f125d1f948",
  "number": 122262,
  "timestamp": 1440191128,
  "nonce": "0x134352d1a00fbb1c",
  "difficulty": 4457779744728,
  "gasLimit": {
    "_hex": "0x2fefd8"
  },
  "gasUsed": {
    "_hex": "0x5208"
  },
  "miner": "0xaB638742EBe3A78F2a85028350e1AADB86C0a6ed",
  "extraData": "0xd983010002844765746887676f312e342e328777696e646f7773",
  "transactions": [
    {
      "hash": "0x4320bc0ed0642ee370651d8e765886439a08f846c42c88a9d7e8493b0505cd4e",
      "blockHash": "0x68a6a56cce7b6f6f530b606f2bb10ead2fa70efe521c8c2f08306c6e9e537ed8",
      "blockNumber": 122262,
      "transactionIndex": 0,
      "confirmations": null,
      "from": "0xC47Aaa860008be6f65B58c6C6E02a84e666EfE31",
      "gasPrice": {
        "_hex": "0xba43b7400"
      },
      "gasLimit": {
        "_hex": "0x15f90"
      },
      "to": "0xF0C6A8bC7BD6299515cf7428792dDc1407EEbFcC",
      "value": {
        "_hex": "0x56928a07cec54e98"
      },
      "nonce": 123,
      "data": "0x",
      "r": "0x3e16ef98f2fc7c65061758fae6ac7a5a1f580bb32e72241b1bf2f43c2e61a03c",
      "s": "0x037b1f79fd050487153c67a27032bb58d869a09eb4912ff37829a590a384fba4",
      "v": 28,
      "creates": null,
      "raw": "0xf86d7b850ba43b740083015f9094f0c6a8bc7bd6299515cf7428792ddc1407eebfcc8856928a07cec54e98801ca03e16ef98f2fc7c65061758fae6ac7a5a1f580bb32e72241b1bf2f43c2e61a03ca0037b1f79fd050487153c67a27032bb58d869a09eb4912ff37829a590a384fba4",
      "networkId": 0,
      "chainId": 0
    }
  ]
}