{
  "hash": "0x34634c9e5022e5449339b5293e3662ec2200b49229f1d70f333e93d56ed5cf46",
  "parentHash": "0xd4811665fd4a607d4b5b00d9ea6593c5d774d830a7083fad7c58cb45a698fcca",
  "number": 106412,
  "timestamp": 1439903727,
  "nonce": "0x47f0b7118f6e5ced",
  "difficulty": 4492456558834,
  "gasLimit": {
    "_hex": "0x2fefd8"
  },
  "gasUsed": {
    "_hex": "0x6ed3"
  },
  "miner": "0xe6A7a1d47ff21B6321162AEA7C6CB457D5476Bca",
  "extraData": "0x476574682f76312e302e312d38326566323666362f6c696e75782f676f312e34",
  "transactions": [
    {
      "hash": "0x598fc448bb0abebd964605fcaf563648e5632ec87d585c943ef01436ced3c8a2",
      "blockHash": "0x34634c9e5022e5449339b5293e3662ec2200b49229f1d70f333e93d56ed5cf46",
      "blockNumber": 106412,
      "transactionIndex": 0,
      "confirmations": null,
      "from": "0x87C5B5874A18B4306DF8a752a6C8cc3E82daFc19",
      "gasPrice": {
        "_hex": "0x10986aaa9c4"
      },
      "gasLimit": {
        "_hex": "0x493e0"
      },
      "to": "0xD79B4C6791784184e2755B2fC1659eaaB0f80456",
      "value": {
        "_hex": "0x0"
      },
      "nonce": 352,
      "data": "0xbd66528a6b6b6b0000000000000000000000000000000000000000000000000000000000",
      "r": "0xa71df66d8c6831a985796e5ecd7b7b5c349754d782ab03357ca5fce773886ec6",
      "s": "0x5791e98466f052e2ae78a6da26c607f6cc62ca455b900c8b00ef817b52dc8530",
      "v": 28,
      "creates": null,
      "raw": "0xf88c82016086010986aaa9c4830493e094d79b4c6791784184e2755b2fc1659eaab0f8045680a4bd66528a6b6b6b00000000000000000000000000000000000000000000000000000000001ca0a71df66d8c6831a985796e5ecd7b7b5c349754d782ab03357ca5fce773886ec6a05791e98466f052e2ae78a6da26c607f6cc62ca455b900c8b00ef817b52dc8530",
      "networkId": 0,
      "chainId": 0
    }
  ]
}