{
  "hash": "0xc60b4c49096021748e0da8ae6d3602ce9f73a047c72a0b37f87ed1300e126286",
  "parentHash": "0xaf03d23f7b970dcc17c62fd5c8a89fe60f782f4e2f6305279e9ace6e1e6783b9",
  "number": 69808,
  "timestamp": 1439310012,
  "nonce": "0x60b86f9a50df4d79",
  "difficulty": 2096274211779,
  "gasLimit": {
    "_hex": "0x2fefd8"
  },
  "gasUsed": {
    "_hex": "0xa410"
  },
  "miner": "0xe6A7a1d47ff21B6321162AEA7C6CB457D5476Bca",
  "extraData": "0x476574682f76312e302e312d38326566323666362f6c696e75782f676f312e34",
  "transactions": [
    {
      "hash": "0xcca850e628970babadbb32d61bd93152a398e6eecf7987c9ccefdd6de760c23e",
      "blockHash": "0xc60b4c49096021748e0da8ae6d3602ce9f73a047c72a0b37f87ed1300e126286",
      "blockNumber": 69808,
      "transactionIndex": 0,
      "confirmations": null,
      "from": "0xEB90c793B3539761e1C814A29671148692193Eb4",
      "gasPrice": {
        "_hex": "0x10dc90d85e7"
      },
      "gasLimit": {
        "_hex": "0x15f90"
      },
      "to": "0x796fB5FF91099467f7669c8FB0C68739Fd3a9e40",
      "value": {
        "_hex": "0x6c6b935b8bbd400000"
      },
      "nonce": 2,
      "data": "0x",
      "r": "0x47fd5cb615432dfc88f94f2b5cc7a974522c3eee281081ff710fa7a19bca84dd",
      "s": "0x7c4bdd52a5ca5e7d199ac50413b219b0f1e27a471bc1e236703def4b48a90df3",
      "v": 28,
      "creates": null,
      "raw": "0xf86f0286010dc90d85e783015f9094796fb5ff91099467f7669c8fb0c68739fd3a9e40896c6b935b8bbd400000801ca047fd5cb615432dfc88f94f2b5cc7a974522c3eee281081ff710fa7a19bca84dda07c4bdd52a5ca5e7d199ac50413b219b0f1e27a471bc1e236703def4b48a90df3",
      "networkId": 0,
      "chainId": 0
    },
    {
      "hash": "0x474e272002c0c411172eb5e7abde6847514bc36b235a3af074ee1e46930c2296",
      "blockHash": "0xc60b4c49096021748e0da8ae6d3602ce9f73a047c72a0b37f87ed1300e126286",
      "blockNumber": 69808,
      "transactionIndex": 1,
      "confirmations": null,
      "from": "0x29e8bacC98ec89f65643936e4f18dFe80a29fBa7",
      "gasPrice": {
        "_hex": "0xd7b49a7e5"
      },
      "gasLimit": {
        "_hex": "0x5208"
      },
      "to": "0x2D96cefBdEC4c5A6eA88d9496fdEDDEFA561aDCd",
      "value": {
        "_hex": "0x7cc2e55e72c30000"
      },
      "nonce": 1,
      "data": "0x",
      "r": "0xaf38a8df5125fde3ef434a341c2572c6eb5f301df0635f3451d73f7d1a0a7d17",
      "s": "0x16b4e5eed02241a86f627ea2a4f7dad625c2e0ba336fa02e30b976fe7f8c0245",
      "v": 27,
      "creates": null,
      "raw": "0xf86c01850d7b49a7e5825208942d96cefbdec4c5a6ea88d9496fdeddefa561adcd887cc2e55e72c30000801ba0af38a8df5125fde3ef434a341c2572c6eb5f301df0635f3451d73f7d1a0a7d17a016b4e5eed02241a86f627ea2a4f7dad625c2e0ba336fa02e30b976fe7f8c0245",
      "networkId": 0,
      "chainId": 0
    }
  ]
}