{
  "hash": "0x3cce1cfc4ef3c46244d4c415975642099a37d70f0c0abf84ed4d0f0347b77ca5",
  "parentHash": "0x635e45843be2988e5eb3f9b4a4be6e3dc080eb633582b48667c59377faefb819",
  "number": 111583,
  "timestamp": 1439992750,
  "nonce": "0x28b22910ec02cae6",
  "difficulty": 4430886353389,
  "gasLimit": {
    "_hex": "0x2fefd8"
  },
  "gasUsed": {
    "_hex": "0x5208"
  },
  "miner": "0x580992B51e3925e23280EfB93d3047C82f17E038",
  "extraData": "0x476574682f76312e302e312f6c696e75782f676f312e342e32",
  "transactions": [
    {
      "hash": "0x15e8b98394cc3467c75841c94b58152b6e59517563a0905ba676c9d5aac098f0",
      "blockHash": "0x3cce1cfc4ef3c46244d4c415975642099a37d70f0c0abf84ed4d0f0347b77ca5",
      "blockNumber": 111583,
      "transactionIndex": 0,
      "confirmations": null,
      "from": "0x59C62d3D43f9EA1c4118d98c188AA5d028b8bB8E",
      "gasPrice": {
        "_hex": "0xd3b9fb0e4"
      },
      "gasLimit": {
        "_hex": "0x5208"
      },
      "to": "0x32Be343B94f860124dC4fEe278FDCBD38C102D88",
      "value": {
        "_hex": "0x649ce8be7d1ae0000"
      },
      "nonce": 14,
      "data": "0x",
      "r": "0x5b3b07ea248951852bf8c22e538948440935fe89a5c2314230b51b0f626ddba7",
      "s": "0x24a418122c1ce681a5f30fa093c963ce14ecd2f32636b71c33a531810f762eee",
      "v": 27,
      "creates": null,
      "raw": "0xf86d0e850d3b9fb0e48252089432be343b94f860124dc4fee278fdcbd38c102d88890649ce8be7d1ae0000801ba05b3b07ea248951852bf8c22e538948440935fe89a5c2314230b51b0f626ddba7a024a418122c1ce681a5f30fa093c963ce14ecd2f32636b71c33a531810f762eee",
      "networkId": 0,
      "chainId": 0
    }
  ]
}