{
  "hash": "0x4211193c8b1f930a48736a4844ab23aab2acd5b3c5be1c101c5dbb30e2c632d7",
  "parentHash": "0xaa02943f9c01e0a4d5c7fff07f50f1008aef687e08151786add97bebf685a312",
  "number": 71096,
  "timestamp": 1439330677,
  "nonce": "0x1175293b6d8fdc02",
  "difficulty": 2149851284096,
  "gasLimit": {
    "_hex": "0x2fefd8"
  },
  "gasUsed": {
    "_hex": "0x5208"
  },
  "miner": "0x0037ce3d4B7f8729C8607D8D0248252Be68202c0",
  "extraData": "0x476574682f76312e302e312f77696e646f77732f676f312e342e32",
  "transactions": [
    {
      "hash": "0x5d6a4b5f32954d0499ced230ce695878824134e018a7fe970d86a7d51da391ae",
      "blockHash": "0x4211193c8b1f930a48736a4844ab23aab2acd5b3c5be1c101c5dbb30e2c632d7",
      "blockNumber": 71096,
      "transactionIndex": 0,
      "confirmations": null,
      "from": "0x42098C814e1a9a72F466bd0CF1bf3B33249d7668",
      "gasPrice": {
        "_hex": "0xdffcfc760"
      },
      "gasLimit": {
        "_hex": "0x5208"
      },
      "to": "0x32Be343B94f860124dC4fEe278FDCBD38C102D88",
      "value": {
        "_hex": "0x30cb6123c9c50a0000"
      },
      "nonce": 1,
      "data": "0x",
      "r": "0x41a2b53942f0d8e83d76b5a3f5a1cc7067dc6ebb5cb68692707bad0a06417877",
      "s": "0x69a9f065fdd3b1f0ba140da9ff4a5b186d802a4cc4ca81a339f66e21cd65ce0e",
      "v": 27,
      "creates": null,
      "raw": "0xf86d01850dffcfc7608252089432be343b94f860124dc4fee278fdcbd38c102d888930cb6123c9c50a0000801ba041a2b53942f0d8e83d76b5a3f5a1cc7067dc6ebb5cb68692707bad0a06417877a069a9f065fdd3b1f0ba140da9ff4a5b186d802a4cc4ca81a339f66e21cd65ce0e",
      "networkId": 0,
      "chainId": 0
    }
  ]
}