{
  "hash": "0x0865de72f25be6514116d8c4104d12e23ce6aa415745d97954d110b176acf3cd",
  "parentHash": "0x972efe899f8fd329f7e7f6fac8ac5962083a9d17066753afec10f3b7ff7b1b20",
  "number": 104753,
  "timestamp": 1439874872,
  "nonce": "0xc20dacbc0b744583",
  "difficulty": 4374280141868,
  "gasLimit": {
    "_hex": "0x2fefd8"
  },
  "gasUsed": {
    "_hex": "0x5208"
  },
  "miner": "0x55bAf64fc9eAccFFd7Cc643BB61142E1C6ac093e",
  "extraData": "0x",
  "transactions": [
    {
      "hash": "0xccf8a98e80539ae0396bf0b5f497b379066e83a6104b05c9d017cc36318fe3a5",
      "blockHash": "0x0865de72f25be6514116d8c4104d12e23ce6aa415745d97954d110b176acf3cd",
      "blockNumber": 104753,
      "transactionIndex": 0,
      "confirmations": null,
      "from": "0x120A270bbC009644e35F0bB6ab13f95b8199c4ad",
      "gasPrice": {
        "_hex": "0xcbd5d9f7e"
      },
      "gasLimit": {
        "_hex": "0x3d090"
      },
      "to": "0xCA092A957744f6385B1aee5dC694143E8A06F805",
      "value": {
        "_hex": "0x2e1a7bb2196b000"
      },
      "nonce": 756,
      "data": "0x",
      "r": "0xe195f55995ad4547fffe6ab8b58dfc4d4a023c889584d439679964b42a3b7c60",
      "s": "0x0a0aee882250f0c5f9e47a220bcf842dbdf78c1eefff83c8729ad795c4b560b2",
      "v": 27,
      "creates": null,
      "raw": "0xf86f8202f4850cbd5d9f7e8303d09094ca092a957744f6385b1aee5dc694143e8a06f8058802e1a7bb2196b000801ba0e195f55995ad4547fffe6ab8b58dfc4d4a023c889584d439679964b42a3b7c60a00a0aee882250f0c5f9e47a220bcf842dbdf78c1eefff83c8729ad795c4b560b2",
      "networkId": 0,
      "chainId": 0
    }
  ]
}