{
  "hash": "0xda4b5c8192d5a896630c3facd1118fd1ec72ba90b44d36467f1e0c37ab75c988",
  "parentHash": "0x338ec2a68af21a7c825442d7a44e54f594e89bb3609d5798755b398761aaa795",
  "number": 101320,
  "timestamp": 1439821129,
  "nonce": "0xbae40c4dc1dcf52d",
  "difficulty": 3811289594507,
  "gasLimit": {
    "_hex": "0x2fefd8"
  },
  "gasUsed": {
    "_hex": "0x5208"
  },
  "miner": "0xbb7B8287f3F0a933474a79eAe42CBCa977791171",
  "extraData": "0x476574682f4c5649562f76312e302e312f6c696e75782f676f312e342e32",
  "transactions": [
    {
      "hash": "0x933e7bfc7773c9202d587b5c23ec1c47d151281129efff322497c7ea89dc0f0c",
      "blockHash": "0xda4b5c8192d5a896630c3facd1118fd1ec72ba90b44d36467f1e0c37ab75c988",
      "blockNumber": 101320,
      "transactionIndex": 0,
      "confirmations": null,
      "from": "0x8101538Df7E005d06CA303f609631c4029130687",
      "gasPrice": {
        "_hex": "0xcb2761c46"
      },
      "gasLimit": {
        "_hex": "0x5208"
      },
      "to": "0x32Be343B94f860124dC4fEe278FDCBD38C102D88",
      "value": {
        "_hex": "0x135b3aa960d8b8000"
      },
      "nonce": 3,
      "data": "0x",
      "r": "0x320e8f25618afaea1702ee8bed30a2b79ac1fe045e0c3c058a426ba0e9cf1568",
      "s": "0x4520b6464ce96749f20915f8a626209bde9ad107b488d20630e2ceba6b13d8e9",
      "v": 28,
      "creates": null,
      "raw": "0xf86d03850cb2761c468252089432be343b94f860124dc4fee278fdcbd38c102d88890135b3aa960d8b8000801ca0320e8f25618afaea1702ee8bed30a2b79ac1fe045e0c3c058a426ba0e9cf1568a04520b6464ce96749f20915f8a626209bde9ad107b488d20630e2ceba6b13d8e9",
      "networkId": 0,
      "chainId": 0
    }
  ]
}