{
  "hash": "0x578fb5ae046e6b17455920b099daa74095881b404ef7687720d5e80a4e8f3c30",
  "parentHash": "0x63e112a0a2f09c3e2d39eaa82c722a26263bd3b241248e8af9e85c6022547f1d",
  "number": 81114,
  "timestamp": 1439496470,
  "nonce": "0xb8b276decc1e9bf4",
  "difficulty": 2435570457399,
  "gasLimit": {
    "_hex": "0x2fefd8"
  },
  "gasUsed": {
    "_hex": "0x5208"
  },
  "miner": "0x88D74a59454F6cF3B51ef6b9136AFb6b9D405A88",
  "extraData": "0x476574682f76312e302e312d38326566323666362f6c696e75782f676f312e34",
  "transactions": [
    {
      "hash": "0x427872e302d22fdf61d2d3b38ba5dbd5aa214f50dad6deb5e3e9435a0ec7e33e",
      "blockHash": "0x578fb5ae046e6b17455920b099daa74095881b404ef7687720d5e80a4e8f3c30",
      "blockNumber": 81114,
      "transactionIndex": 0,
      "confirmations": null,
      "from": "0x897d64aD0a333394b4E4ae8e8DCccdbc71d4E4E8",
      "gasPrice": {
        "_hex": "0xcf81fe65a"
      },
      "gasLimit": {
        "_hex": "0x15f90"
      },
      "to": "0x13aE5B35f82651Ff327d41502F0Aa90DA76D777E",
      "value": {
        "_hex": "0x15af1d78b58c40000"
      },
      "nonce": 0,
      "data": "0x",
      "r": "0xd8c185e9b8507d638936dca1f5abe555bca48c698a67fd79ab7fb879c0a77572",
      "s": "0x1ee0ad6ab1d8cadbcc9f207c2be7c5999f7eff66d11ffc44b8708749ee5c6938",
      "v": 27,
      "creates": null,
      "raw": "0xf86e80850cf81fe65a83015f909413ae5b35f82651ff327d41502f0aa90da76d777e89015af1d78b58c40000801ba0d8c185e9b8507d638936dca1f5abe555bca48c698a67fd79ab7fb879c0a77572a01ee0ad6ab1d8cadbcc9f207c2be7c5999f7eff66d11ffc44b8708749ee5c6938",
      "networkId": 0,
      "chainId": 0
    }
  ]
}