{
  "hash": "0x10258e80ca96b70df4c11ac568ffe2bbebc12e6992e258041b14431bfe195faa",
  "parentHash": "0x35974910a068b1a57c7893c4b4fbec3a93c141b76c712706fdd4d94fe09c71ce",
  "number": 64301,
  "timestamp": 1439218545,
  "nonce": "0x7b146a45efbd025a",
  "difficulty": 1875737010918,
  "gasLimit": {
    "_hex": "0x2fefd8"
  },
  "gasUsed": {
    "_hex": "0x5208"
  },
  "miner": "0x3FEe2E5f121CFb9d6D9BAb6Cec64eb60585124d4",
  "extraData": "0x476574682f76312e302e312f77696e646f77732f676f312e342e32",
  "transactions": [
    {
      "hash": "0x9851f4d7bbee2bfbbaddd4b1f876130d2561d796307cc58b648bef46ae903194",
      "blockHash": "0x10258e80ca96b70df4c11ac568ffe2bbebc12e6992e258041b14431bfe195faa",
      "blockNumber": 64301,
      "transactionIndex": 0,
      "confirmations": null,
      "from": "0xF2d2AfF1320476cb8C6b607199D23175cc595693",
      "gasPrice": {
        "_hex": "0xce78da0c3"
      },
      "gasLimit": {
        "_hex": "0x15f90"
      },
      "to": "0xF5EeDc192aB70b08D8354384aD94efD095849E00",
      "value": {
        "_hex": "0xbed1d0263d9f00000"
      },
      "nonce": 19,
      "data": "0x",
      "r": "0xc317e0abb25370a9a95706e999bfecea7af022947353c48d68f7ef446cac46e8",
      "s": "0x30019f593938c882b71d38338476f0918e4883c5dc76a5158f17c50b36d8eae9",
      "v": 27,
      "creates": null,
      "raw": "0xf86e13850ce78da0c383015f9094f5eedc192ab70b08d8354384ad94efd095849e00890bed1d0263d9f00000801ba0c317e0abb25370a9a95706e999bfecea7af022947353c48d68f7ef446cac46e8a030019f593938c882b71d38338476f0918e4883c5dc76a5158f17c50b36d8eae9",
      "networkId": 0,
      "chainId": 0
    }
  ]
}