{
  "hash": "0x2fd35eb97e21abf630ae524348d3688f9c59ff2f784388e9d3ad6f968695006a",
  "parentHash": "0x9be871e9982ef64a8ef5363d55d583700f1429f9b3e82bf37392ec3290d57721",
  "number": 114025,
  "timestamp": 1440033584,
  "nonce": "0xc0b2275c4f71f7d7",
  "difficulty": 4438256680685,
  "gasLimit": {
    "_hex": "0x2fefd8"
  },
  "gasUsed": {
    "_hex": "0x5208"
  },
  "miner": "0x1A22137e525478043F6E1394849e6C23932786C9",
  "extraData": "0x476574682f76312e302e312f6c696e75782f676f312e342e32",
  "transactions": [
    {
      "hash": "0xcf7f43791ccde9563023ab56e9803fbbcaddd1798e74228fc1683eb20745960a",
      "blockHash": "0x2fd35eb97e21abf630ae524348d3688f9c59ff2f784388e9d3ad6f968695006a",
      "blockNumber": 114025,
      "transactionIndex": 0,
      "confirmations": null,
      "from": "0xB4137d028aBB8Dc65A224E4751397d50DdE6c73D",
      "gasPrice": {
        "_hex": "0xdb2f270ae"
      },
      "gasLimit": {
        "_hex": "0x5208"
      },
      "to": "0x32Be343B94f860124dC4fEe278FDCBD38C102D88",
      "value": {
        "_hex": "0xdd201a5410e79000"
      },
      "nonce": 4,
      "data": "0x",
      "r": "0x05ea9cd2ea9bb126fc0b7319061f2e882eab9e0e717e2107121edcc8d422955d",
      "s": "0x5b60ec237d8e3742dab1e25ca2df2da5e9f7b045c2713ab05c22fc6e19ff9a4a",
      "v": 28,
      "creates": null,
      "raw": "0xf86c04850db2f270ae8252089432be343b94f860124dc4fee278fdcbd38c102d8888dd201a5410e79000801ca005ea9cd2ea9bb126fc0b7319061f2e882eab9e0e717e2107121edcc8d422955da05b60ec237d8e3742dab1e25ca2df2da5e9f7b045c2713ab05c22fc6e19ff9a4a",
      "networkId": 0,
      "chainId": 0
    }
  ]
}