{
  "hash": "0x243115a87f6acc35a1d31e5f87dc28bc550f9fbdfbf404bba07178b51edf72de",
  "parentHash": "0x0b25ff31dd807084577680c60c761c7cc5ef04965e60b5f8716f93a30234eadd",
  "number": 64540,
  "timestamp": 1439222510,
  "nonce": "0x1b1cbfbae3b7101e",
  "difficulty": 1878433166958,
  "gasLimit": {
    "_hex": "0x2fefd8"
  },
  "gasUsed": {
    "_hex": "0xf618"
  },
  "miner": "0x9D49F602b0fdb924Bd63DDE2Bd0907E4A07c63a7",
  "extraData": "0x476574682f76312e302e312f6c696e75782f676f312e342e32",
  "transactions": [
    {
      "hash": "0x9f7c92fadb29ef351b6a59c8e94d4bd316bee55d6adee613b37ea7ff8fe3f995",
      "blockHash": "0x243115a87f6acc35a1d31e5f87dc28bc550f9fbdfbf404bba07178b51edf72de",
      "blockNumber": 64540,
      "transactionIndex": 0,
      "confirmations": null,
      "from": "0xB106ad951726Ba2D8685A22eDc6Fb37e7483622F",
      "gasPrice": {
        "_hex": "0xba43b7400"
      },
      "gasLimit": {
        "_hex": "0x5208"
      },
      "to": "0x7e26A2908c0D194b846982c402445E44011629a0",
      "value": {
        "_hex": "0x937bda828f9000"
      },
      "nonce": 1,
      "data": "0x",
      "r": "0x13f49e8e6ab8ad2b0b75db8fbe2118e44d3f261e0222569fa0d4c32e0657ab8d",
      "s": "0x42ff73aad89cf58df46f0c3dd338bb9846b77e84f31e3104b82ff62e944c8fed",
      "v": 28,
      "creates": null,
      "raw": "0xf86b01850ba43b7400825208947e26a2908c0d194b846982c402445e44011629a087937bda828f9000801ca013f49e8e6ab8ad2b0b75db8fbe2118e44d3f261e0222569fa0d4c32e0657ab8da042ff73aad89cf58df46f0c3dd338bb9846b77e84f31e3104b82ff62e944c8fed",
      "networkId": 0,
      "chainId": 0
    },
    {
      "hash": "0xce213240e1997fb41a64e58db662d41decf949eb5385164541cc866881fc5358",
      "blockHash": "0x243115a87f6acc35a1d31e5f87dc28bc550f9fbdfbf404bba07178b51edf72de",
      "blockNumber": 64540,
      "transactionIndex": 1,
      "confirmations": null,
      "from": "0x09eCbF063986166fC2D804fF501496C96569E86c",
      "gasPrice": {
        "_hex": "0xba43b7400"
      },
      "gasLimit": {
        "_hex": "0x5208"
      },
      "to": "0x1D5c60C025F0F56B3bc0aFbc2BA575912fcaF7Cc",
      "value": {
        "_hex": "0x937bda828f9000"
      },
      "nonce": 1,
      "data": "0x",
      "r": "0x1e0c1fbcba3fe105feb4ea3714d51e211a4b176cc1de479a93ce0115ce94b564",
      "s": "0x34f7fb937860045cf8a43a940463fe7b52f0b1faa9b8b5186f49597435218847",
      "v": 28,
      "creates": null,
      "raw": "0xf86b01850ba43b7400825208941d5c60c025f0f56b3bc0afbc2ba575912fcaf7cc87937bda828f9000801ca01e0c1fbcba3fe105feb4ea3714d51e211a4b176cc1de479a93ce0115ce94b564a034f7fb937860045cf8a43a940463fe7b52f0b1faa9b8b5186f49597435218847",
      "networkId": 0,
      "chainId": 0
    },
    {
      "hash": "0xab917fc3b8867fe55c1598b3822c1e68193f0b4d2b817501b02eda78e0809ed6",
      "blockHash": "0x243115a87f6acc35a1d31e5f87dc28bc550f9fbdfbf404bba07178b51edf72de",
      "blockNumber": 64540,
      "transactionIndex": 2,
      "confirmations": null,
      "from": "0x694724A9FDa93362A9046F959e129756607fb499",
      "gasPrice": {
        "_hex": "0xba43b7400"
      },
      "gasLimit": {
        "_hex": "0x5208"
      },
      "to": "0x59f2b76930cC7012f4B8C13622c6b2CDa157d9AF",
      "value": {
        "_hex": "0xaa9f075c200000"
      },
      "nonce": 1,
      "data": "0x",
      "r": "0xd97ed7629fec97aed0975a173aa9f5b153b0c989bc42079881abbc6a00851edd",
      "s": "0x2e85aa1522a583a384b48727d65f998cd869594047cb0baa0dba6a53b8adcdac",
      "v": 28,
      "creates": null,
      "raw": "0xf86b01850ba43b74008252089459f2b76930cc7012f4b8c13622c6b2cda157d9af87aa9f075c200000801ca0d97ed7629fec97aed0975a173aa9f5b153b0c989bc42079881abbc6a00851edda02e85aa1522a583a384b48727d65f998cd869594047cb0baa0dba6a53b8adcdac",
      "networkId": 0,
      "chainId": 0
    }
  ]
}