{
  "hash": "0xa29202b14a4415bbf5b4086fe756b25f9414628f7d50f9d118f992cc66e43fb0",
  "parentHash": "0xa7700e4855b7e9c448bc690132d62a86ac36f23023be5617d71a5226281edb2a",
  "number": 113626,
  "timestamp": 1440026829,
  "nonce": "0xb9e84c1362ac0c40",
  "difficulty": 4449317131518,
  "gasLimit": {
    "_hex": "0x2fefd8"
  },
  "gasUsed": {
    "_hex": "0xa410"
  },
  "miner": "0x157c6f2431eB1a95797EE86F7d17b3c0FD47A247",
  "extraData": "0x476574682f76312e302e312f77696e646f77732f676f312e342e32",
  "transactions": [
    {
      "hash": "0x7f2536c4a483982ec5a9a9c24c037a02831a5968f30a7ba661ac391804082b82",
      "blockHash": "0xa29202b14a4415bbf5b4086fe756b25f9414628f7d50f9d118f992cc66e43fb0",
      "blockNumber": 113626,
      "transactionIndex": 0,
      "confirmations": null,
      "from": "0x120A270bbC009644e35F0bB6ab13f95b8199c4ad",
      "gasPrice": {
        "_hex": "0xe11e12646"
      },
      "gasLimit": {
        "_hex": "0x3d090"
      },
      "to": "0x6F82e9631D02d910203Bf51fA534283eC2859f2A",
      "value": {
        "_hex": "0xad78ebc5ac6200000"
      },
      "nonce": 914,
      "data": "0x",
      "r": "0xc4388c6476af1d91c691092a6d513e674405f9746d44fed61baf33f1002a02cb",
      "s": "0x6400dd57766c8d7caea596db34b3b7bcb8859f70cc7180c42a15cfedfe5f583d",
      "v": 28,
      "creates": null,
      "raw": "0xf870820392850e11e126468303d090946f82e9631d02d910203bf51fa534283ec2859f2a890ad78ebc5ac6200000801ca0c4388c6476af1d91c691092a6d513e674405f9746d44fed61baf33f1002a02cba06400dd57766c8d7caea596db34b3b7bcb8859f70cc7180c42a15cfedfe5f583d",
      "networkId": 0,
      "chainId": 0
    },
    {
      "hash": "0xb19321fdbd91923f9dc42da8d845dfc7a53cc3dd33c80748c8a9aff54c963ae0",
      "blockHash": "0xa29202b14a4415bbf5b4086fe756b25f9414628f7d50f9d118f992cc66e43fb0",
      "blockNumber": 113626,
      "transactionIndex": 1,
      "confirmations": null,
      "from": "0x6d921977dEFE5f4e0682CA512De1D07b1f4802E1",
      "gasPrice": {
        "_hex": "0xce9a032da"
      },
      "gasLimit": {
        "_hex": "0x5208"
      },
      "to": "0x32Be343B94f860124dC4fEe278FDCBD38C102D88",
      "value": {
        "_hex": "0x1236ace4eb488e000"
      },
      "nonce": 28,
      "data": "0x",
      "r": "0x2e1f836a44b2f7c1c88350ef2520a4bb44539a67ebc54042b40b630b3a287ab4",
      "s": "0x0c9eee6815f8539888908a99412413a33636cf5475a064784e6656f53e69cea4",
      "v": 27,
      "creates": null,
      "raw": "0xf86d1c850ce9a032da8252089432be343b94f860124dc4fee278fdcbd38c102d888901236ace4eb488e000801ba02e1f836a44b2f7c1c88350ef2520a4bb44539a67ebc54042b40b630b3a287ab4a00c9eee6815f8539888908a99412413a33636cf5475a064784e6656f53e69cea4",
      "networkId": 0,
      "chainId": 0
    }
  ]
}