{
  "hash": "0x9cc6e0c6ee37bbbbc20931114c5175b33bd581db978bc88e020deceb477b268f",
  "parentHash": "0x0b74e2f9d415ed6e72dd583c642b3fc5c7bf57b8e556a32f69b3921d97009dd3",
  "number": 65059,
  "timestamp": 1439230551,
  "nonce": "0xe8ccb5269fa5c700",
  "difficulty": 1929443479531,
  "gasLimit": {
    "_hex": "0x2fefd8"
  },
  "gasUsed": {
    "_hex": "0xf618"
  },
  "miner": "0x39A1BB80a741bF5EC39FB9BE59408Fa0F418fFBf",
  "extraData": "0x476574682f76312e302e312f77696e646f77732f676f312e342e32",
  "transactions": [
    {
      "hash": "0xbd2b116f687fdde83741fd89cfc383475a3f738a852b01c80542c4f89a06a8cb",
      "blockHash": "0x9cc6e0c6ee37bbbbc20931114c5175b33bd581db978bc88e020deceb477b268f",
      "blockNumber": 65059,
      "transactionIndex": 0,
      "confirmations": null,
      "from": "0x32Be343B94f860124dC4fEe278FDCBD38C102D88",
      "gasPrice": {
        "_hex": "0xd0cd16a04"
      },
      "gasLimit": {
        "_hex": "0x5208"
      },
      "to": "0xdCd8Aa0E6fD68B057C5AC5e362619808A175CE87",
      "value": {
        "_hex": "0x21e19e0c9bab2400000"
      },
      "nonce": 184,
      "data": "0x",
      "r": "0x0e3321370b0d728f5cd24f7337b52e40eb36453d4c7065a5f74a0d7686ee5821",
      "s": "0x4076eb8bbbeedb9a73671c353cc0623d9e4313bf62c5978b59fd5a09d52c4daf",
      "v": 28,
      "creates": null,
      "raw": "0xf86f81b8850d0cd16a0482520894dcd8aa0e6fd68b057c5ac5e362619808a175ce878a021e19e0c9bab2400000801ca00e3321370b0d728f5cd24f7337b52e40eb36453d4c7065a5f74a0d7686ee5821a04076eb8bbbeedb9a73671c353cc0623d9e4313bf62c5978b59fd5a09d52c4daf",
      "networkId": 0,
      "chainId": 0
    },
    {
      "hash": "0x432b2bf900830ff67b679cad0d7051d0cf39c6290e19ae801752b4c430b8ec68",
      "blockHash": "0x9cc6e0c6ee37bbbbc20931114c5175b33bd581db978bc88e020deceb477b268f",
      "blockNumber": 65059,
      "transactionIndex": 1,
      "confirmations": null,
      "from": "0xaDD913A0f724d1f77afd1011e623E2f4593a5a5C",
      "gasPrice": {
        "_hex": "0xba43b7400"
      },
      "gasLimit": {
        "_hex": "0x5208"
      },
      "to": "0x2077F896f0274b3Cb2c8fd8c956aF1689d90D532",
      "value": {
        "_hex": "0x3d46e291adf5000"
      },
      "nonce": 1,
      "data": "0x",
      "r": "0xb6df86096c11999708c95241b79db51e74d46f08d1c19081c93dfa11768bdfaa",
      "s": "0x1d93f8c23189b63b2f60d1ddf6c815c94115a9ff262bc28113a699da17db8315",
      "v": 27,
      "creates": null,
      "raw": "0xf86c01850ba43b7400825208942077f896f0274b3cb2c8fd8c956af1689d90d5328803d46e291adf5000801ba0b6df86096c11999708c95241b79db51e74d46f08d1c19081c93dfa11768bdfaaa01d93f8c23189b63b2f60d1ddf6c815c94115a9ff262bc28113a699da17db8315",
      "networkId": 0,
      "chainId": 0
    },
    {
      "hash": "0xdfbf3e1b99849eb2913f3d2b9217500929b31343a7ba9c03998b14af6fb43c39",
      "blockHash": "0x9cc6e0c6ee37bbbbc20931114c5175b33bd581db978bc88e020deceb477b268f",
      "blockNumber": 65059,
      "transactionIndex": 2,
      "confirmations": null,
      "from": "0xcc85ABF21744FF9dbfdEAb2F1D8e4EB94d9dEC90",
      "gasPrice": {
        "_hex": "0xba43b7400"
      },
      "gasLimit": {
        "_hex": "0x5208"
      },
      "to": "0x4cECAbA591fa209ae22E8bDb9fbb444Bf0949B86",
      "value": {
        "_hex": "0x377e175b49d9000"
      },
      "nonce": 1,
      "data": "0x",
      "r": "0xf3e4f6801425950d86d98708044d95fb1afa30135b06c8a714c7b39dbedf0946",
      "s": "0x3b32c44831ee7b9d5ed71a5665318d2d13d78a390d3dcb1a75827a2c51bbc84e",
      "v": 27,
      "creates": null,
      "raw": "0xf86c01850ba43b7400825208944cecaba591fa209ae22e8bdb9fbb444bf0949b86880377e175b49d9000801ba0f3e4f6801425950d86d98708044d95fb1afa30135b06c8a714c7b39dbedf0946a03b32c44831ee7b9d5ed71a5665318d2d13d78a390d3dcb1a75827a2c51bbc84e",
      "networkId": 0,
      "chainId": 0
    }
  ]
}