{
  "hash": "0xcf7417e39aec32e849eab82e1807d321bb105ee7dccde7087475acfaac20accd",
  "parentHash": "0x26bbae46dac86848901dbfe07ab205e9963183033cb88911d421748d29476bd5",
  "number": 87247,
  "timestamp": 1439589424,
  "nonce": "0xe4fbd2812aed1f32",
  "difficulty": 3075097566748,
  "gasLimit": {
    "_hex": "0x2fefd8"
  },
  "gasUsed": {
    "_hex": "0x5208"
  },
  "miner": "0xe6A7a1d47ff21B6321162AEA7C6CB457D5476Bca",
  "extraData": "0x476574682f76312e302e312d38326566323666362f6c696e75782f676f312e34",
  "transactions": [
    {
      "hash": "0x225954dccc4d14468f67c8824b0131eebe527deb5d3a7bdbd35be45111e19593",
      "blockHash": "0xcf7417e39aec32e849eab82e1807d321bb105ee7dccde7087475acfaac20accd",
      "blockNumber": 87247,
      "transactionIndex": 0,
      "confirmations": null,
      "from": "0x2910543Af39abA0Cd09dBb2D50200b3E800A63D2",
      "gasPrice": {
        "_hex": "0xcb3f1ac94"
      },
      "gasLimit": {
        "_hex": "0x5208"
      },
      "to": "0xb70dba9391682b4a364e77fe99256301a6C0Bf1F",
      "value": {
        "_hex": "0xdcef33a6f838000"
      },
      "nonce": 700,
      "data": "0x",
      "r": "0x39b5f0512072bfe546a6299d831517494bb06fcd176ee7b0ae7d6fe576c38e58",
      "s": "0x32d355744c84a60208943a350c77cd4e11c591e0e264a062d4b261f6803e4d4c",
      "v": 28,
      "creates": null,
      "raw": "0xf86e8202bc850cb3f1ac9482520894b70dba9391682b4a364e77fe99256301a6c0bf1f880dcef33a6f838000801ca039b5f0512072bfe546a6299d831517494bb06fcd176ee7b0ae7d6fe576c38e58a032d355744c84a60208943a350c77cd4e11c591e0e264a062d4b261f6803e4d4c",
      "networkId": 0,
      "chainId": 0
    }
  ]
}