{
  "hash": "0xb2bd90287267ddfbc5ca81508e41469d58e24542fb3a70113a51270851113884",
  "parentHash": "0xe5d737ef1510e3ce0e1fe3b9ef0bc968b98c471ae66c509a40e13f8b14db5581",
  "number": 84541,
  "timestamp": 1439551055,
  "nonce": "0x14c934ed2764c7e8",
  "difficulty": 2577709937558,
  "gasLimit": {
    "_hex": "0x2fefd8"
  },
  "gasUsed": {
    "_hex": "0x5208"
  },
  "miner": "0xf927a40C8B7F6E07c5af7FA2155B4864a4112B13",
  "extraData": "0x",
  "transactions": [
    {
      "hash": "0x4a86175c22803a2eddf04354218b81427259e7690b2235577b1d6e434158577d",
      "blockHash": "0xb2bd90287267ddfbc5ca81508e41469d58e24542fb3a70113a51270851113884",
      "blockNumber": 84541,
      "transactionIndex": 0,
      "confirmations": null,
      "from": "0x32Be343B94f860124dC4fEe278FDCBD38C102D88",
      "gasPrice": {
        "_hex": "0xd84847d79"
      },
      "gasLimit": {
        "_hex": "0x5208"
      },
      "to": "0xC4c6bAF00209a0f33331e4B7cb1c7B680A3d2F79",
      "value": {
        "_hex": "0x56bc75e2d63100000"
      },
      "nonce": 681,
      "data": "0x",
      "r": "0x5916523c0e08c9a992b1f7b74c014fa7d7ee4e5cacb7ced176899bc124e8afb5",
      "s": "0x6bf94f1c01c436e528c69460fcc40637ef04c2d6637d6f4b1a00a9d74438ed81",
      "v": 27,
      "creates": null,
      "raw": "0xf86f8202a9850d84847d7982520894c4c6baf00209a0f33331e4b7cb1c7b680a3d2f7989056bc75e2d63100000801ba05916523c0e08c9a992b1f7b74c014fa7d7ee4e5cacb7ced176899bc124e8afb5a06bf94f1c01c436e528c69460fcc40637ef04c2d6637d6f4b1a00a9d74438ed81",
      "networkId": 0,
      "chainId": 0
    }
  ]
}