{
  "hash": "0xcc26f63097284de63f2d1cd8117127f67c5542adba62bed496e34cd0302d5315",
  "parentHash": "0x9765a83b8b1f7d26eaaf854c9bbdbf7fefa3d3f720803ea8aa724e48776243c2",
  "number": 102323,
  "timestamp": 1439836229,
  "nonce": "0xc9fe9e522729f5a0",
  "difficulty": 3937566478849,
  "gasLimit": {
    "_hex": "0x2fefd8"
  },
  "gasUsed": {
    "_hex": "0x19a28"
  },
  "miner": "0xe6A7a1d47ff21B6321162AEA7C6CB457D5476Bca",
  "extraData": "0x476574682f76312e302e312d38326566323666362f6c696e75782f676f312e34",
  "transactions": [
    {
      "hash": "0xdbf8ed627ccb1393669705ab1220e004b173e3a293eb4e07ec327e910d94e458",
      "blockHash": "0xcc26f63097284de63f2d1cd8117127f67c5542adba62bed496e34cd0302d5315",
      "blockNumber": 102323,
      "transactionIndex": 0,
      "confirmations": null,
      "from": "0xb1abce2918E21ddb93AA452731a12672A3d9F75a",
      "gasPrice": {
        "_hex": "0xdd06582bf"
      },
      "gasLimit": {
        "_hex": "0x5208"
      },
      "to": "0x32Be343B94f860124dC4fEe278FDCBD38C102D88",
      "value": {
        "_hex": "0x455f2452edcb9400"
      },
      "nonce": 103,
      "data": "0x",
      "r": "0xe5c2152ecfd7dc9e1a22cb246e9ed4c63b692d5c3f2a58dddec55b8d1fa0e4e0",
      "s": "0x249a0d06d17ba7d0b1b63bf4642e7621a0ba632be15c8bc5b330d53efd28780f",
      "v": 27,
      "creates": null,
      "raw": "0xf86c67850dd06582bf8252089432be343b94f860124dc4fee278fdcbd38c102d8888455f2452edcb9400801ba0e5c2152ecfd7dc9e1a22cb246e9ed4c63b692d5c3f2a58dddec55b8d1fa0e4e0a0249a0d06d17ba7d0b1b63bf4642e7621a0ba632be15c8bc5b330d53efd28780f",
      "networkId": 0,
      "chainId": 0
    },
    {
      "hash": "0x0ecd47eda81509e4c2e11404ee8dbeb1c0b2afceefd59c56a35e3b974aed8b69",
      "blockHash": "0xcc26f63097284de63f2d1cd8117127f67c5542adba62bed496e34cd0302d5315",
      "blockNumber": 102323,
      "transactionIndex": 1,
      "confirmations": null,
      "from": "0xD9666150A9dA92d9108198a4072970805a8B3428",
      "gasPrice": {
        "_hex": "0xdd06582bf"
      },
      "gasLimit": {
        "_hex": "0x5208"
      },
      "to": "0x32Be343B94f860124dC4fEe278FDCBD38C102D88",
      "value": {
        "_hex": "0x455f2452edcb9400"
      },
      "nonce": 57,
      "data": "0x",
      "r": "0x70945fd38e54e0ae4f1a3cf70b8cdbbfd6f60a72115f94c18fe04c79017e3674",
      "s": "0x7e826cde2b7144ac2f34b472279c5de9c6ad4a55b08d22560ca7bd592dc657c6",
      "v": 28,
      "creates": null,
      "raw": "0xf86c39850dd06582bf8252089432be343b94f860124dc4fee278fdcbd38c102d8888455f2452edcb9400801ca070945fd38e54e0ae4f1a3cf70b8cdbbfd6f60a72115f94c18fe04c79017e3674a07e826cde2b7144ac2f34b472279c5de9c6ad4a55b08d22560ca7bd592dc657c6",
      "networkId": 0,
      "chainId": 0
    },
    {
      "hash": "0x2511003e2f911adc80c34aaad946098d089ff81a4fe7e67987b2f7501bf715a6",
      "blockHash": "0xcc26f63097284de63f2d1cd8117127f67c5542adba62bed496e34cd0302d5315",
      "blockNumber": 102323,
      "transactionIndex": 2,
      "confirmations": null,
      "from": "0xBBDa93a81B882774e1c9b5e3F933Fa35DaC8bc88",
      "gasPrice": {
        "_hex": "0xdd06582bf"
      },
      "gasLimit": {
        "_hex": "0x5208"
      },
      "to": "0x32Be343B94f860124dC4fEe278FDCBD38C102D88",
      "value": {
        "_hex": "0xcf74a49b48ee9000"
      },
      "nonce": 3,
      "data": "0x",
      "r": "0xd4d60cef47b370e038b0584e22603a8cd27aadeed2fd5ebde1bab831d0d04de3",
      "s": "0x759d3e03ba438b4d8f0e6738bdbd7ca0914c6b542312c4a98b65dd506f9536ce",
      "v": 28,
      "creates": null,
      "raw": "0xf86c03850dd06582bf8252089432be343b94f860124dc4fee278fdcbd38c102d8888cf74a49b48ee9000801ca0d4d60cef47b370e038b0584e22603a8cd27aadeed2fd5ebde1bab831d0d04de3a0759d3e03ba438b4d8f0e6738bdbd7ca0914c6b542312c4a98b65dd506f9536ce",
      "networkId": 0,
      "chainId": 0
    },
    {
      "hash": "0xfdbb72bda64074767ae12c0dc225802d108f9646ce1b659acb65348854816e1a",
      "blockHash": "0xcc26f63097284de63f2d1cd8117127f67c5542adba62bed496e34cd0302d5315",
      "blockNumber": 102323,
      "transactionIndex": 3,
      "confirmations": null,
      "from": "0xd70c667add50d3d9989Ef58A81a698c09f415Bff",
      "gasPrice": {
        "_hex": "0xdb9003708"
      },
      "gasLimit": {
        "_hex": "0x15f90"
      },
      "to": "0x86d3856ad0105B9d4199936c1fd203664BA325dC",
      "value": {
        "_hex": "0x4b142e562add0000"
      },
      "nonce": 15,
      "data": "0x",
      "r": "0x4e7599a3b50a7f04ed03ade0ecd3f616e78cf3afd8a3bafbe6768a2079b736bc",
      "s": "0x38bb453cbcd41f507f4de4a65ae49eadeda9f61bed491685ea5578873475c6fc",
      "v": 27,
      "creates": null,
      "raw": "0xf86d0f850db900370883015f909486d3856ad0105b9d4199936c1fd203664ba325dc884b142e562add0000801ba04e7599a3b50a7f04ed03ade0ecd3f616e78cf3afd8a3bafbe6768a2079b736bca038bb453cbcd41f507f4de4a65ae49eadeda9f61bed491685ea5578873475c6fc",
      "networkId": 0,
      "chainId": 0
    },
    {
      "hash": "0x162113244d2dcc58011895ba84d767049066717fe49e4988e77af9c912da4d27",
      "blockHash": "0xcc26f63097284de63f2d1cd8117127f67c5542adba62bed496e34cd0302d5315",
      "blockNumber": 102323,
      "transactionIndex": 4,
      "confirmations": null,
      "from": "0xaB638742EBe3A78F2a85028350e1AADB86C0a6ed",
      "gasPrice": {
        "_hex": "0xd1943ab43"
      },
      "gasLimit": {
        "_hex": "0x15f90"
      },
      "to": "0xD5bf64B3B17Fb895536953EfE17578a8b7b16880",
      "value": {
        "_hex": "0x2b5e3af16b1880000"
      },
      "nonce": 3,
      "data": "0x",
      "r": "0x81ae843b3efaabb20d450abbfd315f5967aeae50fe387ee2b9cebbaecdcc3280",
      "s": "0x684ba0e961cb11613cd58e5be672f9894f3f0daf57b9076dcd951efa7adfe870",
      "v": 27,
      "creates": null,
      "raw": "0xf86e03850d1943ab4383015f9094d5bf64b3b17fb895536953efe17578a8b7b168808902b5e3af16b1880000801ba081ae843b3efaabb20d450abbfd315f5967aeae50fe387ee2b9cebbaecdcc3280a0684ba0e961cb11613cd58e5be672f9894f3f0daf57b9076dcd951efa7adfe870",
      "networkId": 0,
      "chainId": 0
    }
  ]
}