{
  "hash": "0x8c6f342d2e09199fc96f5bcf1a07a09be0c7e331cc93651f901d2d8cde3ea7fd",
  "parentHash": "0x03256d67ebf10bd8d2476ac6246f74aded6434140116a1f8120ee1e2c002197a",
  "number": 101560,
  "timestamp": 1439824628,
  "nonce": "0xa50940c4dd1d361d",
  "difficulty": 3882555950383,
  "gasLimit": {
    "_hex": "0x2fefd8"
  },
  "gasUsed": {
    "_hex": "0xa410"
  },
  "miner": "0xC603Ab5ef41fC61AA8b76bEddb09e3Cfcbb174BD",
  "extraData": "0x476574682f76312e302e312f77696e646f77732f676f312e342e32",
  "transactions": [
    {
      "hash": "0x4ce4b93d65881169406657eb4864cb1c51b18ed26d62fc15bf8a8ac8b2a8d87b",
      "blockHash": "0x8c6f342d2e09199fc96f5bcf1a07a09be0c7e331cc93651f901d2d8cde3ea7fd",
      "blockNumber": 101560,
      "transactionIndex": 0,
      "confirmations": null,
      "from": "0x5BeBc02e4CDF3e92B5a2947CfD1430c4EBBa4039",
      "gasPrice": {
        "_hex": "0xcfa2e1893"
      },
      "gasLimit": {
        "_hex": "0x5208"
      },
      "to": "0x32Be343B94f860124dC4fEe278FDCBD38C102D88",
      "value": {
        "_hex": "0x8478778b35e31000"
      },
      "nonce": 3,
      "data": "0x",
      "r": "0x4783f2f2b96f14f65d9c5eace36f83bccfc23d3570849ce6dd8b80c98abc2611",
      "s": "0x1b181dbfd21e548878781c48d2296cc326c258f4e3babcd689061e476b653f93",
      "v": 28,
      "creates": null,
      "raw": "0xf86c03850cfa2e18938252089432be343b94f860124dc4fee278fdcbd38c102d88888478778b35e31000801ca04783f2f2b96f14f65d9c5eace36f83bccfc23d3570849ce6dd8b80c98abc2611a01b181dbfd21e548878781c48d2296cc326c258f4e3babcd689061e476b653f93",
      "networkId": 0,
      "chainId": 0
    },
    {
      "hash": "0x650076de781416ed5af2da3f48f06685291f804f07ad2efe74ab6d3e3771bc4c",
      "blockHash": "0x8c6f342d2e09199fc96f5bcf1a07a09be0c7e331cc93651f901d2d8cde3ea7fd",
      "blockNumber": 101560,
      "transactionIndex": 1,
      "confirmations": null,
      "from": "0x59C62d3D43f9EA1c4118d98c188AA5d028b8bB8E",
      "gasPrice": {
        "_hex": "0xcfa2e1893"
      },
      "gasLimit": {
        "_hex": "0x5208"
      },
      "to": "0x32Be343B94f860124dC4fEe278FDCBD38C102D88",
      "value": {
        "_hex": "0x2707bf508cff62000"
      },
      "nonce": 13,
      "data": "0x",
      "r": "0x94d08a1dc26c61b5ae172131aeb88bf1743a212f1cfcb24ac471f1b7c32fb21b",
      "s": "0x1fccf7a09f5a4286de67cfe7263224393741bd288181069fcafdb7a939198441",
      "v": 27,
      "creates": null,
      "raw": "0xf86d0d850cfa2e18938252089432be343b94f860124dc4fee278fdcbd38c102d888902707bf508cff62000801ba094d08a1dc26c61b5ae172131aeb88bf1743a212f1cfcb24ac471f1b7c32fb21ba01fccf7a09f5a4286de67cfe7263224393741bd288181069fcafdb7a939198441",
      "networkId": 0,
      "chainId": 0
    }
  ]
}