{
  "hash": "0xc6ccdee74fe3a636cd033bdb3243f83afba3fcfaeaf26b27c77634a75003821b",
  "parentHash": "0x75fcea382b04a7e16d34ae2f4ba41ccacf0edea5c182e27a2c0bd02b65f8468f",
  "number": 107738,
  "timestamp": 1439928071,
  "nonce": "0x01ab7b49ce39b770",
  "difficulty": 4366323207365,
  "gasLimit": {
    "_hex": "0x2fefd5"
  },
  "gasUsed": {
    "_hex": "0x5208"
  },
  "miner": "0xe6A7a1d47ff21B6321162AEA7C6CB457D5476Bca",
  "extraData": "0x476574682f76312e302e312d38326566323666362f6c696e75782f676f312e34",
  "transactions": [
    {
      "hash": "0xb908a14ccde61f535fe212478c996f62eb65bd10eefff9ac4c59ad1a8516a0fc",
      "blockHash": "0xc6ccdee74fe3a636cd033bdb3243f83afba3fcfaeaf26b27c77634a75003821b",
      "blockNumber": 107738,
      "transactionIndex": 0,
      "confirmations": null,
      "from": "0x6BED894B45159c6001dfbC5bd6257A10B9eF2202",
      "gasPrice": {
        "_hex": "0xdec46efcf"
      },
      "gasLimit": {
        "_hex": "0x15f90"
      },
      "to": "0xC4Cefd8e233244EE0b01B083a8a01D2cfca86910",
      "value": {
        "_hex": "0x23e0"
      },
      "nonce": 5,
      "data": "0x",
      "r": "0x3a04fcd530d07d5e82c1c9346773f20457b1ae2fe211b03786f1777a51231cd9",
      "s": "0x27b5e6a71319ef6d3509b84395c26be76c1b28727ce1c13d0cb706a91880c1bf",
      "v": 28,
      "creates": null,
      "raw": "0xf86705850dec46efcf83015f9094c4cefd8e233244ee0b01b083a8a01d2cfca869108223e0801ca03a04fcd530d07d5e82c1c9346773f20457b1ae2fe211b03786f1777a51231cd9a027b5e6a71319ef6d3509b84395c26be76c1b28727ce1c13d0cb706a91880c1bf",
      "networkId": 0,
      "chainId": 0
    }
  ]
}