{
  "hash": "0xf59eac8b257f7d14c856f771445e65513aaee86f44fe9bb892667a470f5fc374",
  "parentHash": "0xd96fbc9632d7593ebf48fbf66f528b77e20f4d6fb32e90c509e7f8e1c6d2e237",
  "number": 106757,
  "timestamp": 1439910034,
  "nonce": "0xf3c0dc0d583666f5",
  "difficulty": 4442103711250,
  "gasLimit": {
    "_hex": "0x2fefd8"
  },
  "gasUsed": {
    "_hex": "0x5208"
  },
  "miner": "0xe6A7a1d47ff21B6321162AEA7C6CB457D5476Bca",
  "extraData": "0x476574682f76312e302e312d38326566323666362f6c696e75782f676f312e34",
  "transactions": [
    {
      "hash": "0xd17c565299b1834d4e6f80b8c6089ec7cdf59f891151f837200e6323bdb8cbc3",
      "blockHash": "0xf59eac8b257f7d14c856f771445e65513aaee86f44fe9bb892667a470f5fc374",
      "blockNumber": 106757,
      "transactionIndex": 0,
      "confirmations": null,
      "from": "0x23ac86f02C0e12C822b2c991b4602fbd79EAB8Ed",
      "gasPrice": {
        "_hex": "0xba43b7400"
      },
      "gasLimit": {
        "_hex": "0x5208"
      },
      "to": "0xC47Aaa860008be6f65B58c6C6E02a84e666EfE31",
      "value": {
        "_hex": "0x455fd68a17f038f0"
      },
      "nonce": 4,
      "data": "0x",
      "r": "0xb160e6796a0715acf96786c52b98583175351abb9b1d0f8d364696448a5856ce",
      "s": "0x3cb655d85d8316d4c5e9c7f202cf490be43cb68229831973d159d8620967df2f",
      "v": 27,
      "creates": null,
      "raw": "0xf86c04850ba43b740082520894c47aaa860008be6f65b58c6c6e02a84e666efe3188455fd68a17f038f0801ba0b160e6796a0715acf96786c52b98583175351abb9b1d0f8d364696448a5856cea03cb655d85d8316d4c5e9c7f202cf490be43cb68229831973d159d8620967df2f",
      "networkId": 0,
      "chainId": 0
    }
  ]
}