{
  "hash": "0x5761ab6f3c492bb466c7e4c1a8691ca2be0ae7fdfe8dd3791663eaaa4f45722a",
  "parentHash": "0xfb3239415af0096b06c569c10fa9f9e63ad371a04d6e9e4e3de36aee58ba21dc",
  "number": 62166,
  "timestamp": 1439184290,
  "nonce": "0x841a5215827bc96b",
  "difficulty": 1768574987694,
  "gasLimit": {
    "_hex": "0x2fefd8"
  },
  "gasUsed": {
    "_hex": "0x52912"
  },
  "miner": "0x72e3Ea8234b449531A581F05f1c1E07cceb559d2",
  "extraData": "0x476574682f76312e302e312f6c696e75782f676f312e342e32",
  "transactions": [
    {
      "hash": "0x2ed432a3e6d722703158994b837d21bc1436591362a888cef69987cc16591b30",
      "blockHash": "0x5761ab6f3c492bb466c7e4c1a8691ca2be0ae7fdfe8dd3791663eaaa4f45722a",
      "blockNumber": 62166,
      "transactionIndex": 0,
      "confirmations": null,
      "from": "0x6a05B21c4F17f9d73f5fB2b0cb89fF5356A6CC7e",
      "gasPrice": {
        "_hex": "0x110c8f7d8de"
      },
      "gasLimit": {
        "_hex": "0xc350"
      },
      "to": "0x2910543Af39abA0Cd09dBb2D50200b3E800A63D2",
      "value": {
        "_hex": "0x28a6f3fcdc096e0000"
      },
      "nonce": 1,
      "data": "0x454e59504257313138",
      "r": "0x8cc0720196380a85f242bd306dce57834252686b9f12e02975415a4259fd4d9f",
      "s": "0xae2f91697a39cf0420b50bf01c5ab75d36c6f301a95819731a39b511979418bb",
      "v": 28,
      "creates": null,
      "raw": "0xf87701860110c8f7d8de82c350942910543af39aba0cd09dbb2d50200b3e800a63d28928a6f3fcdc096e000089454e595042573131381ca08cc0720196380a85f242bd306dce57834252686b9f12e02975415a4259fd4d9fa0ae2f91697a39cf0420b50bf01c5ab75d36c6f301a95819731a39b511979418bb",
      "networkId": 0,
      "chainId": 0
    },
    {
      "hash": "0xb0b9e09b1d9239197ec765c8daf52036b8aacb63fc6727c66f49d2ee3f00e302",
      "blockHash": "0x5761ab6f3c492bb466c7e4c1a8691ca2be0ae7fdfe8dd3791663eaaa4f45722a",
      "blockNumber": 62166,
      "transactionIndex": 1,
      "confirmations": null,
      "from": "0xB100987e77FEbA6F022dBd22B80B008e35d3Ff2E",
      "gasPrice": {
        "_hex": "0xdb1785438"
      },
      "gasLimit": {
        "_hex": "0xf4240"
      },
      "to": null,
      "value": {
        "_hex": "0x0"
      },
      "nonce": 7,
      "data": "0x6060604052600660006000505560026001600050555b33600260006101000a81548173ffffffffffffffffffffffffffffffffffffffff021916908302179055505b61036f806100506000396000f30060606040523615610074576000357c01000000000000000000000000000000000000000000000000000000009004806341c0e1b5146100765780635ec01e4d146100835780636dd1f0ed146100a4578063a856f359146100cb578063b189fd4c146100de578063c2ca0ac51461010b57610074565b005b610081600450610132565b005b61008e600450610362565b6040518082815260200191505060405180910390f35b6100af60045061026b565b604051808263ffffffff16815260200191505060405180910390f35b6100dc6004803590602001506101ee565b005b6100ef6004803590602001506101c6565b604051808263ffffffff16815260200191505060405180910390f35b61011c6004803590602001506102ba565b6040518082815260200191505060405180910390f35b600260009054906101000a900473ffffffffffffffffffffffffffffffffffffffff1673ffffffffffffffffffffffffffffffffffffffff163373ffffffffffffffffffffffffffffffffffffffff1614156101c357600260009054906101000a900473ffffffffffffffffffffffffffffffffffffffff1673ffffffffffffffffffffffffffffffffffffffff16ff5b5b565b6000816040518082815260200191505060405180910390206001900490506101e9565b919050565b60406040519081016040528082815260200143815260200150600360005060003373ffffffffffffffffffffffffffffffffffffffff16815260200190815260200160002060005060008201518160000160006101000a81548163ffffffff02191690830217905550602082015181600101600050559050505b50565b6000600360005060003373ffffffffffffffffffffffffffffffffffffffff16815260200190815260200160002060005060000160009054906101000a900463ffffffff1690506102b7565b90565b60006000600360005060003373ffffffffffffffffffffffffffffffffffffffff168152602001908152602001600020600050905060006000505443038160010160005054118061033357508060000160009054906101000a900463ffffffff1663ffffffff1661032a846101c6565b63ffffffff1614155b15610341576000915061035c565b8260046000828282505418925050819055506001915061035c565b50919050565b600080905061036c565b9056",
      "r": "0xc40a37aef0095dac8a95d6af229cdeaabf141db20d4ea6a7c90d8c44fd58bfe6",
      "s": "0x0b9f287a63c804fb1f343ae772e2b8d875bb644ec5de5e81f680e32d1d4bb4ca",
      "v": 27,
      "creates": "0x95A93B4d6CDf68235f3B68046d0f81E78D61572c",
      "raw": "0xf9041207850db1785438830f42408080b903bf6060604052600660006000505560026001600050555b33600260006101000a81548173ffffffffffffffffffffffffffffffffffffffff021916908302179055505b61036f806100506000396000f30060606040523615610074576000357c01000000000000000000000000000000000000000000000000000000009004806341c0e1b5146100765780635ec01e4d146100835780636dd1f0ed146100a4578063a856f359146100cb578063b189fd4c146100de578063c2ca0ac51461010b57610074565b005b610081600450610132565b005b61008e600450610362565b6040518082815260200191505060405180910390f35b6100af60045061026b565b604051808263ffffffff16815260200191505060405180910390f35b6100dc6004803590602001506101ee565b005b6100ef6004803590602001506101c6565b604051808263ffffffff16815260200191505060405180910390f35b61011c6004803590602001506102ba565b6040518082815260200191505060405180910390f35b600260009054906101000a900473ffffffffffffffffffffffffffffffffffffffff1673ffffffffffffffffffffffffffffffffffffffff163373ffffffffffffffffffffffffffffffffffffffff1614156101c357600260009054906101000a900473ffffffffffffffffffffffffffffffffffffffff1673ffffffffffffffffffffffffffffffffffffffff16ff5b5b565b6000816040518082815260200191505060405180910390206001900490506101e9565b919050565b60406040519081016040528082815260200143815260200150600360005060003373ffffffffffffffffffffffffffffffffffffffff16815260200190815260200160002060005060008201518160000160006101000a81548163ffffffff02191690830217905550602082015181600101600050559050505b50565b6000600360005060003373ffffffffffffffffffffffffffffffffffffffff16815260200190815260200160002060005060000160009054906101000a900463ffffffff1690506102b7565b90565b60006000600360005060003373ffffffffffffffffffffffffffffffffffffffff168152602001908152602001600020600050905060006000505443038160010160005054118061033357508060000160009054906101000a900463ffffffff1663ffffffff1661032a846101c6565b63ffffffff1614155b15610341576000915061035c565b8260046000828282505418925050819055506001915061035c565b50919050565b600080905061036c565b90561ba0c40a37aef0095dac8a95d6af229cdeaabf141db20d4ea6a7c90d8c44fd58bfe6a00b9f287a63c804fb1f343ae772e2b8d875bb644ec5de5e81f680e32d1d4bb4ca",
      "networkId": 0,
      "chainId": 0
    }
  ]
}