{
  "hash": "0x4d603ef36240254abf615c008d4584c075839c3cc73d115b5b965776f9e0c5fc",
  "parentHash": "0xc2198d53969d374b2d74eb5013972783fa5b61771050cc40f4aa1112b0349ed9",
  "number": 121053,
  "timestamp": 1440170535,
  "nonce": "0x49a2f6dda0280bc8",
  "difficulty": 4430211361391,
  "gasLimit": {
    "_hex": "0x2fefd8"
  },
  "gasUsed": {
    "_hex": "0x5208"
  },
  "miner": "0x790b8a3cE86E707ED0eD32bF89B3269692a23CC1",
  "extraData": "0xd783010002844765746887676f312e342e32856c696e7578",
  "transactions": [
    {
      "hash": "0x68d9a3cbe7c457a709a8e4b7ced197677f18ba9875c2f1cb25fdfa9d0d4fea1e",
      "blockHash": "0x4d603ef36240254abf615c008d4584c075839c3cc73d115b5b965776f9e0c5fc",
      "blockNumber": 121053,
      "transactionIndex": 0,
      "confirmations": null,
      "from": "0x773a96793d9444D26e6a59C16fca75E770d97C5F",
      "gasPrice": {
        "_hex": "0xba43b7400"
      },
      "gasLimit": {
        "_hex": "0x15f90"
      },
      "to": "0xcE2b6a73E0155C41C002D0745D93D9BEd0fbD019",
      "value": {
        "_hex": "0x3c8569b708aaeea8"
      },
      "nonce": 0,
      "data": "0x",
      "r": "0x5b420d2a2c513f417b7e58a344a1f35699e754fb3b348eec41570826c7cfbd97",
      "s": "0x0c83365c58c26c93e218838353cb782a8e838fb57db7b5abfd554d8d865e600f",
      "v": 28,
      "creates": null,
      "raw": "0xf86d80850ba43b740083015f9094ce2b6a73e0155c41c002d0745d93d9bed0fbd019883c8569b708aaeea8801ca05b420d2a2c513f417b7e58a344a1f35699e754fb3b348eec41570826c7cfbd97a00c83365c58c26c93e218838353cb782a8e838fb57db7b5abfd554d8d865e600f",
      "networkId": 0,
      "chainId": 0
    }
  ]
}