{
  "hash": "0xfff7398343a1576b6e55c2502f757f9c1ade96dc361c5c7b285e3eddfc4daa2c",
  "parentHash": "0x125b417a6f552404e3e0405921d7e6d314c63dba30ebfee0f217b25d7d309f2e",
  "number": 91246,
  "timestamp": 1439652622,
  "nonce": "0x2d5c04ae5ff0fdb3",
  "difficulty": 3443985760684,
  "gasLimit": {
    "_hex": "0x2fe3db"
  },
  "gasUsed": {
    "_hex": "0x546c"
  },
  "miner": "0xA10C59651885FeAaac91F871082a23BBbaBeDfCf",
  "extraData": "0x476574682f76312e302e302f77696e646f77732f676f312e342e32",
  "transactions": [
    {
      "hash": "0x5f7f7f58e215a793897a8dc6e12c2597733de12618a02213101b8aab8ca9617d",
      "blockHash": "0xfff7398343a1576b6e55c2502f757f9c1ade96dc361c5c7b285e3eddfc4daa2c",
      "blockNumber": 91246,
      "transactionIndex": 0,
      "confirmations": null,
      "from": "0xcD5510a242dfb0183De925fBA866e312fAbc1657",
      "gasPrice": {
        "_hex": "0x110c8f7d8de"
      },
      "gasLimit": {
        "_hex": "0xc350"
      },
      "to": "0x2910543Af39abA0Cd09dBb2D50200b3E800A63D2",
      "value": {
        "_hex": "0xc7d713b49da0000"
      },
      "nonce": 1,
      "data": "0x454e4e574a4e474d38",
      "r": "0x865fccb792159108a5087a8e0574f82d9093ffff89bea87a580f7ec0ff8ffd94",
      "s": "0x9610ddb9891022e0a88ef09570131e41d973ef68aae83107c95417e22bc0d36c",
      "v": 27,
      "creates": null,
      "raw": "0xf87601860110c8f7d8de82c350942910543af39aba0cd09dbb2d50200b3e800a63d2880c7d713b49da000089454e4e574a4e474d381ba0865fccb792159108a5087a8e0574f82d9093ffff89bea87a580f7ec0ff8ffd94a09610ddb9891022e0a88ef09570131e41d973ef68aae83107c95417e22bc0d36c",
      "networkId": 0,
      "chainId": 0
    }
  ]
}