{
  "hash": "0xf5b2933e276ad89fbbe485077459721e901a0657d72642d9ed8ccb6835650e71",
  "parentHash": "0x226b809aeed0097d2484071210e810742358cb2cbd160327dbab679c72deaad9",
  "number": 65748,
  "timestamp": 1439242249,
  "nonce": "0xb339cc6d25d6479f",
  "difficulty": 1947266935719,
  "gasLimit": {
    "_hex": "0x2fefd8"
  },
  "gasUsed": {
    "_hex": "0x5208"
  },
  "miner": "0xdd2F1e6e498202e86D8f5442Af596580A4f03c2C",
  "extraData": "0x476574682f76312e302e312d38326566323666362f6c696e75782f676f312e34",
  "transactions": [
    {
      "hash": "0x9013c57e199a52f96ee6e19a3f6687bc2aefb40c6019d9a579794e7fe018218d",
      "blockHash": "0xf5b2933e276ad89fbbe485077459721e901a0657d72642d9ed8ccb6835650e71",
      "blockNumber": 65748,
      "transactionIndex": 0,
      "confirmations": null,
      "from": "0xd767b087480fEa2168C99Bd35e6cB7bAfBb4a11b",
      "gasPrice": {
        "_hex": "0xcf20f818b"
      },
      "gasLimit": {
        "_hex": "0x5208"
      },
      "to": "0x32Be343B94f860124dC4fEe278FDCBD38C102D88",
      "value": {
        "_hex": "0x1a03f74ebefcb3000"
      },
      "nonce": 0,
      "data": "0x",
      "r": "0xbfe4ee263ec8d476fc536c4b8d1975c01273f175b094b87ecd7e6be4448182cc",
      "s": "0x3a9ac2d3aacd721e126e278dc092d3ad0c4a8be2f6ff31a3b16f527e45149ea8",
      "v": 28,
      "creates": null,
      "raw": "0xf86d80850cf20f818b8252089432be343b94f860124dc4fee278fdcbd38c102d888901a03f74ebefcb3000801ca0bfe4ee263ec8d476fc536c4b8d1975c01273f175b094b87ecd7e6be4448182cca03a9ac2d3aacd721e126e278dc092d3ad0c4a8be2f6ff31a3b16f527e45149ea8",
      "networkId": 0,
      "chainId": 0
    }
  ]
}