{
  "hash": "0x3bd5b1d5fa928de7c2ae43043e0a1f0e687983285aac5e07bb18d0bc5786798e",
  "parentHash": "0x32e5884052ba83e439cc9748bd8d5503f70acf44e94947edb8bb239b730bbe2f",
  "number": 119592,
  "timestamp": 1440145631,
  "nonce": "0x0b701666c866a2f0",
  "difficulty": 4381499377524,
  "gasLimit": {
    "_hex": "0x2fefd8"
  },
  "gasUsed": {
    "_hex": "0xa410"
  },
  "miner": "0x17B719A685fC6C0002798e7f8151D0E2E83B7497",
  "extraData": "0x",
  "transactions": [
    {
      "hash": "0x66a1f3ef58b77dd6551afb961b3b2e8719457173b102cd53b76f3a940e591c5e",
      "blockHash": "0x3bd5b1d5fa928de7c2ae43043e0a1f0e687983285aac5e07bb18d0bc5786798e",
      "blockNumber": 119592,
      "transactionIndex": 0,
      "confirmations": null,
      "from": "0xdd3EDA6dB1BBEC156B35df3C03fbd93D2c34493B",
      "gasPrice": {
        "_hex": "0xba43b7400"
      },
      "gasLimit": {
        "_hex": "0x5208"
      },
      "to": "0x32Be343B94f860124dC4fEe278FDCBD38C102D88",
      "value": {
        "_hex": "0x3187751dab216000"
      },
      "nonce": 0,
      "data": "0x",
      "r": "0xcae0d31da2e77f8404778d5ddb3f3ab4e02b4d4f5654bfead02bf391be5632b0",
      "s": "0x00feca7af40fc94f62e5e6eab6960620c05b874a99dcbb4908c3d3d66af7cba5",
      "v": 27,
      "creates": null,
      "raw": "0xf86b80850ba43b74008252089432be343b94f860124dc4fee278fdcbd38c102d88883187751dab216000801ba0cae0d31da2e77f8404778d5ddb3f3ab4e02b4d4f5654bfead02bf391be5632b09ffeca7af40fc94f62e5e6eab6960620c05b874a99dcbb4908c3d3d66af7cba5",
      "networkId": 0,
      "chainId": 0
    },
    {
      "hash": "0x661809ace3879b7609df895179c8c337851e30702520d8771e890a5943ef4da3",
      "blockHash": "0x3bd5b1d5fa928de7c2ae43043e0a1f0e687983285aac5e07bb18d0bc5786798e",
      "blockNumber": 119592,
      "transactionIndex": 1,
      "confirmations": null,
      "from": "0xe64D681b0eBCa2997D5f35e72EbC7777973299D7",
      "gasPrice": {
        "_hex": "0xba43b7400"
      },
      "gasLimit": {
        "_hex": "0x55f0"
      },
      "to": "0x931Ac2444b057f80A06A4FB627f26FFA5CE41184",
      "value": {
        "_hex": "0x1c1acc812f2d4fdcc0"
      },
      "nonce": 3,
      "data": "0x",
      "r": "0xb0e6d36ffa267f8db674ba783a5741c63ce2f4e3d83cb1c8c49c6e484c96ca66",
      "s": "0x7020ce62f5279a5b9d9ffd16daec3f00b457117b4ba2c9f298c61cfdbe40c495",
      "v": 27,
      "creates": null,
      "raw": "0xf86d03850ba43b74008255f094931ac2444b057f80a06a4fb627f26ffa5ce41184891c1acc812f2d4fdcc0801ba0b0e6d36ffa267f8db674ba783a5741c63ce2f4e3d83cb1c8c49c6e484c96ca66a07020ce62f5279a5b9d9ffd16daec3f00b457117b4ba2c9f298c61cfdbe40c495",
      "networkId": 0,
      "chainId": 0
    }
  ]
}