{
  "hash": "0x6d48e1942ccc76b693a416a0b3d9f0b3d8590f79dae7ba956ab3b8f3f7333e1a",
  "parentHash": "0x06bd3b9d02821b2b09e3ec1e8c47fce69c03f0668691c29b4065c213e0dcbcc9",
  "number": 86140,
  "timestamp": 1439574050,
  "nonce": "0x756b53c5b5885dd0",
  "difficulty": 2807122657693,
  "gasLimit": {
    "_hex": "0x2fefd8"
  },
  "gasUsed": {
    "_hex": "0x546c"
  },
  "miner": "0xF9634a7Ee627EeF74f4d803113CD4F87E5162079",
  "extraData": "0xdd809b302e392e34302b2b616339392d5257696e646f2f6d73762f4a4954",
  "transactions": [
    {
      "hash": "0xeffc4a018f6cfebf15eb9d1cf2278e7460d21bce70c8ec94e4d577849d5a2e37",
      "blockHash": "0x6d48e1942ccc76b693a416a0b3d9f0b3d8590f79dae7ba956ab3b8f3f7333e1a",
      "blockNumber": 86140,
      "transactionIndex": 0,
      "confirmations": null,
      "from": "0xA12E42660746c6a0484965f36D7b4d6a727BDa72",
      "gasPrice": {
        "_hex": "0x10b8410e961"
      },
      "gasLimit": {
        "_hex": "0x55f0"
      },
      "to": "0x2910543Af39abA0Cd09dBb2D50200b3E800A63D2",
      "value": {
        "_hex": "0x2c68af0bb140000"
      },
      "nonce": 7,
      "data": "0x454e54314834395730",
      "r": "0xdc6bf5dbf925c4c0e315938ff5eb76404d0dca5bbd034dcf428944ffcff12a5a",
      "s": "0x752c74361acd3b797bc89fc15261d7f3a6d013885a37315185b85c6d4410b901",
      "v": 27,
      "creates": null,
      "raw": "0xf8760786010b8410e9618255f0942910543af39aba0cd09dbb2d50200b3e800a63d28802c68af0bb14000089454e543148343957301ba0dc6bf5dbf925c4c0e315938ff5eb76404d0dca5bbd034dcf428944ffcff12a5aa0752c74361acd3b797bc89fc15261d7f3a6d013885a37315185b85c6d4410b901",
      "networkId": 0,
      "chainId": 0
    }
  ]
}