{
  "hash": "0x25addd16a69ecbde3d9ddfb31e99dd28a585b09ac94981bbbfae9b4b00a2d917",
  "parentHash": "0x10bdd56816f848baab8c2efe4854d76ffb295eb1d640b65392fe37f877faa03f",
  "number": 110406,
  "timestamp": 1439973232,
  "nonce": "0x32c11ee89cb04145",
  "difficulty": 4386299995600,
  "gasLimit": {
    "_hex": "0x2fefd8"
  },
  "gasUsed": {
    "_hex": "0x5208"
  },
  "miner": "0x55D1554b08a5311C5c0A0B6464162192f9D2f884",
  "extraData": "0x",
  "transactions": [
    {
      "hash": "0x0c9e9b410a72a2fe901a7dbb0fbed21ea0cef1e1f3f93c489c46e491bb8c7bda",
      "blockHash": "0x25addd16a69ecbde3d9ddfb31e99dd28a585b09ac94981bbbfae9b4b00a2d917",
      "blockNumber": 110406,
      "transactionIndex": 0,
      "confirmations": null,
      "from": "0x50087E7383C8865C1C136b8777C4350B8ed472CE",
      "gasPrice": {
        "_hex": "0xce74cc6a8"
      },
      "gasLimit": {
        "_hex": "0x15f90"
      },
      "to": "0x8Ad679342135277c2db3e0e469CE16c34367Ad88",
      "value": {
        "_hex": "0x1f399b1438a100000"
      },
      "nonce": 6,
      "data": "0x",
      "r": "0xe867a1778c13e63a80f982548f0a049fceb5553f38154529eaa6ff84ad728d9a",
      "s": "0x3ca4d807c97b12479dc6018f8f854cce60dd923a22f543295770494c8f23bd03",
      "v": 27,
      "creates": null,
      "raw": "0xf86e06850ce74cc6a883015f90948ad679342135277c2db3e0e469ce16c34367ad888901f399b1438a100000801ba0e867a1778c13e63a80f982548f0a049fceb5553f38154529eaa6ff84ad728d9aa03ca4d807c97b12479dc6018f8f854cce60dd923a22f543295770494c8f23bd03",
      "networkId": 0,
      "chainId": 0
    }
  ]
}