{
  "hash": "0xb9367a1bc9094d6275ab50f4a58ce13186e35a46de68f5053487a578abf00361",
  "parentHash": "0x8b580b2ffe89dfbb4ba346a8e7be030ef8d14ff5ec886e66f33f0be112d4c4f5",
  "number": 80240,
  "timestamp": 1439482422,
  "nonce": "0x9cce2866b8d1c269",
  "difficulty": 2379398418176,
  "gasLimit": {
    "_hex": "0x2fefd8"
  },
  "gasUsed": {
    "_hex": "0x1dd5f"
  },
  "miner": "0x31995C46B15C84523cDEE26f49A681b8237e43F5",
  "extraData": "0x476574682f76312e302e312f77696e646f77732f676f312e342e32",
  "transactions": [
    {
      "hash": "0x72f2508c262763d5ae0e51d71c0d50c881cc75c872152716b04256fe07797dcd",
      "blockHash": "0xb9367a1bc9094d6275ab50f4a58ce13186e35a46de68f5053487a578abf00361",
      "blockNumber": 80240,
      "transactionIndex": 0,
      "confirmations": null,
      "from": "0xC5a96Db085dDA36FfBE390f455315D30D6D3DC52",
      "gasPrice": {
        "_hex": "0x746a528800"
      },
      "gasLimit": {
        "_hex": "0x5c2ef"
      },
      "to": "0xde0B295669a9FD93d5F28D9Ec85E40f4cb697BAe",
      "value": {
        "_hex": "0x0"
      },
      "nonce": 2,
      "data": "0xf00d4b5d00000000000000000000000005096a47749d8bfab0a90c1bb7a95115dbe4cea60000000000000000000000005ed8cee6b63b1c6afce3ad7c92f4fd7e1b8fad9f",
      "r": "0xaf5e4bbf1a730b8a4bbe1dccf069dd3de2eaff0b35a7f5f501154162bcb9c72f",
      "s": "0x4e4d1a48a0658f3f910a6aec47c33c4f0c8a8121791aa762cfba1c0155038408",
      "v": 27,
      "creates": null,
      "raw": "0xf8aa0285746a5288008305c2ef94de0b295669a9fd93d5f28d9ec85e40f4cb697bae80b844f00d4b5d00000000000000000000000005096a47749d8bfab0a90c1bb7a95115dbe4cea60000000000000000000000005ed8cee6b63b1c6afce3ad7c92f4fd7e1b8fad9f1ba0af5e4bbf1a730b8a4bbe1dccf069dd3de2eaff0b35a7f5f501154162bcb9c72fa04e4d1a48a0658f3f910a6aec47c33c4f0c8a8121791aa762cfba1c0155038408",
      "networkId": 0,
      "chainId": 0
    }
  ]
}