{
  "hash": "0xe1b16d9e4ef65b9dd72b0203341ebc7c3cb93e5b12b53b3c3e08ee31a3ee6546",
  "parentHash": "0x130ca736fb27ee8e7c70c92b980106438e7f2513a2898adaf4b1c481f21ff8ee",
  "number": 59950,
  "timestamp": 1439146467,
  "nonce": "0x66cab65035b61f98",
  "difficulty": 1734825872870,
  "gasLimit": {
    "_hex": "0x2fd802"
  },
  "gasUsed": {
    "_hex": "0x5208"
  },
  "miner": "0x356CEFb4Eb836DC68403308309E075a31DD991D2",
  "extraData": "0x476574682f76312e302e302f6c696e75782f676f312e342e32",
  "transactions": [
    {
      "hash": "0x1202dfd6f2f51ebb8b7a13ad5d215cd7beeea1b3bdff6618501707316ae966f9",
      "blockHash": "0xe1b16d9e4ef65b9dd72b0203341ebc7c3cb93e5b12b53b3c3e08ee31a3ee6546",
      "blockNumber": 59950,
      "transactionIndex": 0,
      "confirmations": null,
      "from": "0x0927220492194B2edA9fc4BBe38f25d681dfD36C",
      "gasPrice": {
        "_hex": "0x108c85ef086"
      },
      "gasLimit": {
        "_hex": "0x15f90"
      },
      "to": "0x739f8ab33a41B67952f16778e3CC6D2dEcC3a2d5",
      "value": {
        "_hex": "0x1"
      },
      "nonce": 3,
      "data": "0x",
      "r": "0x7802b841f753a28e7bd568fb2e331654256df61ba5524045b5846aaa1f7cc824",
      "s": "0x747b7504063c38fab655f169838269ec6b0372357c789a9da7e0902cfea7876d",
      "v": 27,
      "creates": null,
      "raw": "0xf86603860108c85ef08683015f9094739f8ab33a41b67952f16778e3cc6d2decc3a2d501801ba07802b841f753a28e7bd568fb2e331654256df61ba5524045b5846aaa1f7cc824a0747b7504063c38fab655f169838269ec6b0372357c789a9da7e0902cfea7876d",
      "networkId": 0,
      "chainId": 0
    }
  ]
}