{
  "hash": "0x722e2c3bc653f272b879288fee6f57d3a8a4e883ef72f82f2bb6af9554a3404c",
  "parentHash": "0x579c308e349e49c8796e7d90f60fded29baf6f920ef580d32fa6465ee5d6c1f9",
  "number": 93084,
  "timestamp": 1439682115,
  "nonce": "0x89bd98e23f2cd6d3",
  "difficulty": 3647447242840,
  "gasLimit": {
    "_hex": "0x2fefd8"
  },
  "gasUsed": {
    "_hex": "0xa410"
  },
  "miner": "0xf8E0CA3Ed80bd541b94BEdCf259e8CF2141A9523",
  "extraData": "0x476574682f76312e302e312f77696e646f77732f676f312e342e32",
  "transactions": [
    {
      "hash": "0xa45d4351b4c6ece1736108dbf107565af6a2c61de9899b68faa7e831af838c56",
      "blockHash": "0x722e2c3bc653f272b879288fee6f57d3a8a4e883ef72f82f2bb6af9554a3404c",
      "blockNumber": 93084,
      "transactionIndex": 0,
      "confirmations": null,
      "from": "0xA938b9DCabbB3eA3cC14eE810138c803edee9222",
      "gasPrice": {
        "_hex": "0xd87f8783b"
      },
      "gasLimit": {
        "_hex": "0x5208"
      },
      "to": "0x32Be343B94f860124dC4fEe278FDCBD38C102D88",
      "value": {
        "_hex": "0x269cfe234658480000"
      },
      "nonce": 2,
      "data": "0x",
      "r": "0x3a12838094407cf12a3ddbd27914ff5bad1bd6028efc04a435f23f4ec2ff710c",
      "s": "0x39c9af6effbec9ec19eb464f27f650b50927e5c488ae284f6287aedf0bb77fa6",
      "v": 28,
      "creates": null,
      "raw": "0xf86d02850d87f8783b8252089432be343b94f860124dc4fee278fdcbd38c102d8889269cfe234658480000801ca03a12838094407cf12a3ddbd27914ff5bad1bd6028efc04a435f23f4ec2ff710ca039c9af6effbec9ec19eb464f27f650b50927e5c488ae284f6287aedf0bb77fa6",
      "networkId": 0,
      "chainId": 0
    },
    {
      "hash": "0x22d90089bb599f001759444851067d409b1bca97c49b0f4160067e307cf8ed7f",
      "blockHash": "0x722e2c3bc653f272b879288fee6f57d3a8a4e883ef72f82f2bb6af9554a3404c",
      "blockNumber": 93084,
      "transactionIndex": 1,
      "confirmations": null,
      "from": "0x945133f5F817b984e41D4798b45C9B8ed7CE3EAc",
      "gasPrice": {
        "_hex": "0xcd01555c5"
      },
      "gasLimit": {
        "_hex": "0x15f90"
      },
      "to": "0x4E56D55C77DB136de89EEcCF3754A634a9b8898C",
      "value": {
        "_hex": "0x8ac7230489e80000"
      },
      "nonce": 0,
      "data": "0x",
      "r": "0x4d94e70621df802c2148014abb5e1268220ff73de17f6686b6d535f5be8fe406",
      "s": "0x1b87e74f50e0de3c278214f01b19dc84137a6dc168432aa7d5c172f7022540a0",
      "v": 27,
      "creates": null,
      "raw": "0xf86d80850cd01555c583015f90944e56d55c77db136de89eeccf3754a634a9b8898c888ac7230489e80000801ba04d94e70621df802c2148014abb5e1268220ff73de17f6686b6d535f5be8fe406a01b87e74f50e0de3c278214f01b19dc84137a6dc168432aa7d5c172f7022540a0",
      "networkId": 0,
      "chainId": 0
    }
  ]
}