{
  "hash": "0xb3d104d2efa1178c618e124aa257bd16102daea6c822c6e8a4d9238decda3ed9",
  "parentHash": "0x7eabb1723fa37d50af68ec5dccaa5976da61cdd9b7d3d673e55b7b804eaa9829",
  "number": 85534,
  "timestamp": 1439565098,
  "nonce": "0x99518aef1fd50b0d",
  "difficulty": 2761104195407,
  "gasLimit": {
    "_hex": "0x2fefd8"
  },
  "gasUsed": {
    "_hex": "0x546c"
  },
  "miner": "0x3FF679B0823a026F2378E5f5F22A6F127cC85828",
  "extraData": "0x",
  "transactions": [
    {
      "hash": "0xadd0ac7c65bec655a77ecfe538e0b2d754fccf771d62633b455d045eb5a676da",
      "blockHash": "0xb3d104d2efa1178c618e124aa257bd16102daea6c822c6e8a4d9238decda3ed9",
      "blockNumber": 85534,
      "transactionIndex": 0,
      "confirmations": null,
      "from": "0x272A131a5a656A7a3aCa35c8Bd202222a7592258",
      "gasPrice": {
        "_hex": "0x110c8f7d8de"
      },
      "gasLimit": {
        "_hex": "0xc350"
      },
      "to": "0x2910543Af39abA0Cd09dBb2D50200b3E800A63D2",
      "value": {
        "_hex": "0x4a7ab152c40d2e0000"
      },
      "nonce": 1,
      "data": "0x454e435530515a4247",
      "r": "0x4606cdfdd33eb1bac6b5cfae07076e4f852d52de258a347367ff5d0ad470dddd",
      "s": "0x220f95719b9d80f1a47046df56afbf37ef2b1db630419c9e804fa6b95f088f86",
      "v": 28,
      "creates": null,
      "raw": "0xf87701860110c8f7d8de82c350942910543af39aba0cd09dbb2d50200b3e800a63d2894a7ab152c40d2e000089454e435530515a42471ca04606cdfdd33eb1bac6b5cfae07076e4f852d52de258a347367ff5d0ad470dddda0220f95719b9d80f1a47046df56afbf37ef2b1db630419c9e804fa6b95f088f86",
      "networkId": 0,
      "chainId": 0
    }
  ]
}