{
  "hash": "0x472e7339d37dfdbf69d42b6761f2c4cc4caacc7442584dfc1ef7fb4ea487c2d7",
  "parentHash": "0x087522052c250fd4d5b249857d2065357c5586024f655a6bfe5384e6940988e2",
  "number": 94673,
  "timestamp": 1439712036,
  "nonce": "0xc893fe41b96c6dad",
  "difficulty": 3495084810711,
  "gasLimit": {
    "_hex": "0x2fefd8"
  },
  "gasUsed": {
    "_hex": "0x52080"
  },
  "miner": "0xe6A7a1d47ff21B6321162AEA7C6CB457D5476Bca",
  "extraData": "0x476574682f76312e302e312d38326566323666362f6c696e75782f676f312e34",
  "transactions": [
    {
      "hash": "0xd596a35becf52926dd2783cbe652115063f845b60959ef9dbb1f6ea6e7e68e7c",
      "blockHash": "0x472e7339d37dfdbf69d42b6761f2c4cc4caacc7442584dfc1ef7fb4ea487c2d7",
      "blockNumber": 94673,
      "transactionIndex": 0,
      "confirmations": null,
      "from": "0x1308A2e95c0160B90803ddCA9B9a5bb55E416d79",
      "gasPrice": {
        "_hex": "0xe8d4a51000"
      },
      "gasLimit": {
        "_hex": "0x15f90"
      },
      "to": "0xAbA21175EF27AcBe1648642b9D9E678b856F62a8",
      "value": {
        "_hex": "0x5ef1b6a79f3f1800"
      },
      "nonce": 139,
      "data": "0x",
      "r": "0x804d159464e038e6dbd302f1fe70cbafaf06ad955bfa2a2511aec347ab47070a",
      "s": "0x1faefe6d08ea3752b65d6f2af13d92b4a6746c3b7b92a866e174604a63944410",
      "v": 27,
      "creates": null,
      "raw": "0xf86e818b85e8d4a5100083015f9094aba21175ef27acbe1648642b9d9e678b856f62a8885ef1b6a79f3f1800801ba0804d159464e038e6dbd302f1fe70cbafaf06ad955bfa2a2511aec347ab47070aa01faefe6d08ea3752b65d6f2af13d92b4a6746c3b7b92a866e174604a63944410",
      "networkId": 0,
      "chainId": 0
    },
    {
      "hash": "0xe5c69fe1bfb78f5106a49ccb55c8362bc9403741790152c44c6d4ea67bc479b7",
      "blockHash": "0x472e7339d37dfdbf69d42b6761f2c4cc4caacc7442584dfc1ef7fb4ea487c2d7",
      "blockNumber": 94673,
      "transactionIndex": 1,
      "confirmations": null,
      "from": "0xe6A7a1d47ff21B6321162AEA7C6CB457D5476Bca",
      "gasPrice": {
        "_hex": "0xd6c0d155b"
      },
      "gasLimit": {
        "_hex": "0x55f0"
      },
      "to": "0x06BcFDb20583cc822f2031724E36F3678BBCa6E9",
      "value": {
        "_hex": "0x20b40b393967cc038"
      },
      "nonce": 2937,
      "data": "0x",
      "r": "0xce9dc171ad56879780e2593e67ae49655c194911d2572d1bbc8a6ed45709752f",
      "s": "0x47acc40223e3e1301e027ad19144015a4fa7fd6eba608469cc1232a0dede9f4b",
      "v": 28,
      "creates": null,
      "raw": "0xf86f820b79850d6c0d155b8255f09406bcfdb20583cc822f2031724e36f3678bbca6e989020b40b393967cc038801ca0ce9dc171ad56879780e2593e67ae49655c194911d2572d1bbc8a6ed45709752fa047acc40223e3e1301e027ad19144015a4fa7fd6eba608469cc1232a0dede9f4b",
      "networkId": 0,
      "chainId": 0
    },
    {
      "hash": "0xd4b50191bec8a7f9fd42a414b1b53ee9f5c247aae7d3fea23b5b5d8dcc4b7df9",
      "blockHash": "0x472e7339d37dfdbf69d42b6761f2c4cc4caacc7442584dfc1ef7fb4ea487c2d7",
      "blockNumber": 94673,
      "transactionIndex": 2,
      "confirmations": null,
      "from": "0xe6A7a1d47ff21B6321162AEA7C6CB457D5476Bca",
      "gasPrice": {
        "_hex": "0xd6c0d155b"
      },
      "gasLimit": {
        "_hex": "0x55f0"
      },
      "to": "0x0A38f5Ba343D4eA8641F955ecf98e1c43dF1B5a3",
      "value": {
        "_hex": "0x20c31b3036f51db90"
      },
      "nonce": 2938,
      "data": "0x",
      "r": "0x03437d9e902f0e7118b9dd6bf959ee8f98ce764b06ae517920c344a2a313e4fd",
      "s": "0x7fa7300f4c43d709b471f5bc35ecf51b5b548dd491988bf1faf006931507fb40",
      "v": 28,
      "creates": null,
      "raw": "0xf86f820b7a850d6c0d155b8255f0940a38f5ba343d4ea8641f955ecf98e1c43df1b5a389020c31b3036f51db90801ca003437d9e902f0e7118b9dd6bf959ee8f98ce764b06ae517920c344a2a313e4fda07fa7300f4c43d709b471f5bc35ecf51b5b548dd491988bf1faf006931507fb40",
      "networkId": 0,
      "chainId": 0
    },
    {
      "hash": "0xab78578ce0fe07bca39862839ad258a9ee9f584807fa4af0579bffff06ce86dd",
      "blockHash": "0x472e7339d37dfdbf69d42b6761f2c4cc4caacc7442584dfc1ef7fb4ea487c2d7",
      "blockNumber": 94673,
      "transactionIndex": 3,
      "confirmations": null,
      "from": "0xe6A7a1d47ff21B6321162AEA7C6CB457D5476Bca",
      "gasPrice": {
        "_hex": "0xd6c0d155b"
      },
      "gasLimit": {
        "_hex": "0x55f0"
      },
      "to": "0x5248EfBC7319bd65d436374266765D9727253F12",
      "value": {
        "_hex": "0x21da69ec1c8cd1ee8"
      },
      "nonce": 2939,
      "data": "0x",
      "r": "0x7cdc569e3100ea9e828dbebbcdfadaf4132bfdcd9a88cf5b1adac2da5d5a98c9",
      "s": "0x109da5e4979129eaa43a52f4d1929c5b450e3f2931a0413b04543cd34110df73",
      "v": 28,
      "creates": null,
      "raw": "0xf86f820b7b850d6c0d155b8255f0945248efbc7319bd65d436374266765d9727253f1289021da69ec1c8cd1ee8801ca07cdc569e3100ea9e828dbebbcdfadaf4132bfdcd9a88cf5b1adac2da5d5a98c9a0109da5e4979129eaa43a52f4d1929c5b450e3f2931a0413b04543cd34110df73",
      "networkId": 0,
      "chainId": 0
    },
    {
      "hash": "0xee5801c8f59b31727abf44a0fe46e6756ce96740a13d11381a70511976d35659",
      "blockHash": "0x472e7339d37dfdbf69d42b6761f2c4cc4caacc7442584dfc1ef7fb4ea487c2d7",
      "blockNumber": 94673,
      "transactionIndex": 4,
      "confirmations": null,
      "from": "0xe6A7a1d47ff21B6321162AEA7C6CB457D5476Bca",
      "gasPrice": {
        "_hex": "0xd6c0d155b"
      },
      "gasLimit": {
        "_hex": "0x55f0"
      },
      "to": "0xF928B4834e4E886e04630Af5b4Ea8eBf46Fb205b",
      "value": {
        "_hex": "0x21dd3b056d1bac0b8"
      },
      "nonce": 2940,
      "data": "0x",
      "r": "0xc3407f2b4ef9fc94c747991e88dfb1e5383411c1aad63a4e33620106fa40c0b7",
      "s": "0x12c5919a62a4f0eeb93ebdab89e1eeeb97ccea6e26bd28aac569fae94f40bdb3",
      "v": 27,
      "creates": null,
      "raw": "0xf86f820b7c850d6c0d155b8255f094f928b4834e4e886e04630af5b4ea8ebf46fb205b89021dd3b056d1bac0b8801ba0c3407f2b4ef9fc94c747991e88dfb1e5383411c1aad63a4e33620106fa40c0b7a012c5919a62a4f0eeb93ebdab89e1eeeb97ccea6e26bd28aac569fae94f40bdb3",
      "networkId": 0,
      "chainId": 0
    },
    {
      "hash": "0xe6d174990ce7f08cbbd0e3d0f64b63dfb74c372cb80de81fe0d49169219aba62",
      "blockHash": "0x472e7339d37dfdbf69d42b6761f2c4cc4caacc7442584dfc1ef7fb4ea487c2d7",
      "blockNumber": 94673,
      "transactionIndex": 5,
      "confirmations": null,
      "from": "0xe6A7a1d47ff21B6321162AEA7C6CB457D5476Bca",
      "gasPrice": {
        "_hex": "0xd6c0d155b"
      },
      "gasLimit": {
        "_hex": "0x55f0"
      },
      "to": "0x164d6C84C4D54AA3E22A5b2B72cFb968eDe862C5",
      "value": {
        "_hex": "0x21e67d238b9c0ca00"
      },
      "nonce": 2941,
      "data": "0x",
      "r": "0x0d3b65fb962b9e355b200748e8b9e8e5c0e92148c0cca4acb624e5f77109d79f",
      "s": "0x6ea337be935ba8406620b9c605c75838219031a4d2637addf0f7b3d914a71bf1",
      "v": 28,
      "creates": null,
      "raw": "0xf86f820b7d850d6c0d155b8255f094164d6c84c4d54aa3e22a5b2b72cfb968ede862c589021e67d238b9c0ca00801ca00d3b65fb962b9e355b200748e8b9e8e5c0e92148c0cca4acb624e5f77109d79fa06ea337be935ba8406620b9c605c75838219031a4d2637addf0f7b3d914a71bf1",
      "networkId": 0,
      "chainId": 0
    },
    {
      "hash": "0xc3269be27533983c9244aec8a0a7f865c44db4c5823478f454ff59b9d6c56bbb",
      "blockHash": "0x472e7339d37dfdbf69d42b6761f2c4cc4caacc7442584dfc1ef7fb4ea487c2d7",
      "blockNumber": 94673,
      "transactionIndex": 6,
      "confirmations": null,
      "from": "0xe6A7a1d47ff21B6321162AEA7C6CB457D5476Bca",
      "gasPrice": {
        "_hex": "0xd6c0d155b"
      },
      "gasLimit": {
        "_hex": "0x55f0"
      },
      "to": "0x1Fab7BE036A5C6A69b2B05D6e172FF4e5b2a5e6B",
      "value": {
        "_hex": "0x22825f119aa380770"
      },
      "nonce": 2942,
      "data": "0x",
      "r": "0x41b91da8cb32ba411f04847109572e50e8b10eaa1901a707d7ef046cba511b4f",
      "s": "0x25ec6925b0a0b4d65845a3adc622269c0a4dfdd394daf7100d2b94c940cd22d6",
      "v": 27,
      "creates": null,
      "raw": "0xf86f820b7e850d6c0d155b8255f0941fab7be036a5c6a69b2b05d6e172ff4e5b2a5e6b89022825f119aa380770801ba041b91da8cb32ba411f04847109572e50e8b10eaa1901a707d7ef046cba511b4fa025ec6925b0a0b4d65845a3adc622269c0a4dfdd394daf7100d2b94c940cd22d6",
      "networkId": 0,
      "chainId": 0
    },
    {
      "hash": "0x929863b3cad74ddd91e5a466ccd965df46c98e05e36f0967897e304942dc89f9",
      "blockHash": "0x472e7339d37dfdbf69d42b6761f2c4cc4caacc7442584dfc1ef7fb4ea487c2d7",
      "blockNumber": 94673,
      "transactionIndex": 7,
      "confirmations": null,
      "from": "0xe6A7a1d47ff21B6321162AEA7C6CB457D5476Bca",
      "gasPrice": {
        "_hex": "0xd6c0d155b"
      },
      "gasLimit": {
        "_hex": "0x55f0"
      },
      "to": "0xc3DBDB3Efa722db2a3F6041b0ca0042782296ba9",
      "value": {
        "_hex": "0x236a22100b95833a0"
      },
      "nonce": 2943,
      "data": "0x",
      "r": "0xdfbfc6de9cfaf6b72c1c98ab69ab613981df0190bf7d6912e86534449e8778ca",
      "s": "0x7204d7ff7eead03e7747f5c49a6fe8a2e96ef1721ff9e9b8b8e0535358b47305",
      "v": 27,
      "creates": null,
      "raw": "0xf86f820b7f850d6c0d155b8255f094c3dbdb3efa722db2a3f6041b0ca0042782296ba9890236a22100b95833a0801ba0dfbfc6de9cfaf6b72c1c98ab69ab613981df0190bf7d6912e86534449e8778caa07204d7ff7eead03e7747f5c49a6fe8a2e96ef1721ff9e9b8b8e0535358b47305",
      "networkId": 0,
      "chainId": 0
    },
    {
      "hash": "0x83a0b9a0f16e6821a2fcd43db2d881b52cae81a265d56c2fcd1d4d10879e1a1d",
      "blockHash": "0x472e7339d37dfdbf69d42b6761f2c4cc4caacc7442584dfc1ef7fb4ea487c2d7",
      "blockNumber": 94673,
      "transactionIndex": 8,
      "confirmations": null,
      "from": "0xe6A7a1d47ff21B6321162AEA7C6CB457D5476Bca",
      "gasPrice": {
        "_hex": "0xd6c0d155b"
      },
      "gasLimit": {
        "_hex": "0x55f0"
      },
      "to": "0x123843545FB525C8E134c9A5F15ADA6865cc3848",
      "value": {
        "_hex": "0x2518efedef72b9e88"
      },
      "nonce": 2944,
      "data": "0x",
      "r": "0x204d1679f0eebc83808a44632788275ac17feb33d5bb5721bbd53dbd4cf19f19",
      "s": "0x204fad0ce0c995213b92f01567354b82ba7f3fa08f7598c8ed51b364057b5ed5",
      "v": 28,
      "creates": null,
      "raw": "0xf86f820b80850d6c0d155b8255f094123843545fb525c8e134c9a5f15ada6865cc38488902518efedef72b9e88801ca0204d1679f0eebc83808a44632788275ac17feb33d5bb5721bbd53dbd4cf19f19a0204fad0ce0c995213b92f01567354b82ba7f3fa08f7598c8ed51b364057b5ed5",
      "networkId": 0,
      "chainId": 0
    },
    {
      "hash": "0x24fa970ead04bc92b34d06d5551958f86dfd17de6613b52870735ebe7de55303",
      "blockHash": "0x472e7339d37dfdbf69d42b6761f2c4cc4caacc7442584dfc1ef7fb4ea487c2d7",
      "blockNumber": 94673,
      "transactionIndex": 9,
      "confirmations": null,
      "from": "0xe6A7a1d47ff21B6321162AEA7C6CB457D5476Bca",
      "gasPrice": {
        "_hex": "0xd4cda0d24"
      },
      "gasLimit": {
        "_hex": "0x55f0"
      },
      "to": "0xFa9F15F96E3244897308A95163a62861685e8917",
      "value": {
        "_hex": "0x25cd0cb2079084190"
      },
      "nonce": 2945,
      "data": "0x",
      "r": "0x2720459990e9fdfa7579fea1b6e53e2492537d201e318262e0b2621c985c51a1",
      "s": "0x5692526878899ac324f52d6a81c435a1f5908991d62b2652fac897559e3a9c94",
      "v": 27,
      "creates": null,
      "raw": "0xf86f820b81850d4cda0d248255f094fa9f15f96e3244897308a95163a62861685e891789025cd0cb2079084190801ba02720459990e9fdfa7579fea1b6e53e2492537d201e318262e0b2621c985c51a1a05692526878899ac324f52d6a81c435a1f5908991d62b2652fac897559e3a9c94",
      "networkId": 0,
      "chainId": 0
    },
    {
      "hash": "0x5223f0cbdfc4c4f65333d464766f5dac1cc641f1a39a6b97117624afcb41515e",
      "blockHash": "0x472e7339d37dfdbf69d42b6761f2c4cc4caacc7442584dfc1ef7fb4ea487c2d7",
      "blockNumber": 94673,
      "transactionIndex": 10,
      "confirmations": null,
      "from": "0xe6A7a1d47ff21B6321162AEA7C6CB457D5476Bca",
      "gasPrice": {
        "_hex": "0xd4cda0d24"
      },
      "gasLimit": {
        "_hex": "0x55f0"
      },
      "to": "0x4Dbfc5Cd4D88480476F951dbCD591396773aE56c",
      "value": {
        "_hex": "0x268be46422f29d610"
      },
      "nonce": 2946,
      "data": "0x",
      "r": "0x834ff2e21a037ce4b7c686c18e64d7325e2e57a611a1b8aa108bcde3f6eed2c3",
      "s": "0x320d80c0de7fe18a923fe9fb437d25b3e67d329c6e0732e86b3464e4985085e1",
      "v": 27,
      "creates": null,
      "raw": "0xf86f820b82850d4cda0d248255f0944dbfc5cd4d88480476f951dbcd591396773ae56c890268be46422f29d610801ba0834ff2e21a037ce4b7c686c18e64d7325e2e57a611a1b8aa108bcde3f6eed2c3a0320d80c0de7fe18a923fe9fb437d25b3e67d329c6e0732e86b3464e4985085e1",
      "networkId": 0,
      "chainId": 0
    },
    {
      "hash": "0x627f0c54cb242c3501bda49e12dac175aa7ca4ba84c834c6510bc4078218a1b8",
      "blockHash": "0x472e7339d37dfdbf69d42b6761f2c4cc4caacc7442584dfc1ef7fb4ea487c2d7",
      "blockNumber": 94673,
      "transactionIndex": 11,
      "confirmations": null,
      "from": "0xe6A7a1d47ff21B6321162AEA7C6CB457D5476Bca",
      "gasPrice": {
        "_hex": "0xd4cda0d24"
      },
      "gasLimit": {
        "_hex": "0x55f0"
      },
      "to": "0x463eADDDA71F29F36365F889EA7E6fcDBe1cF0c8",
      "value": {
        "_hex": "0x271a00e9f77b0a840"
      },
      "nonce": 2947,
      "data": "0x",
      "r": "0xc2fcd5c9db2c20485fdad39750162fc00e4fc747b54023e63d89cd9d053b7ce0",
      "s": "0x707aec756868d49716803c7c23955717fedc3183a4ccefd05f38ba73921cf648",
      "v": 28,
      "creates": null,
      "raw": "0xf86f820b83850d4cda0d248255f094463eaddda71f29f36365f889ea7e6fcdbe1cf0c8890271a00e9f77b0a840801ca0c2fcd5c9db2c20485fdad39750162fc00e4fc747b54023e63d89cd9d053b7ce0a0707aec756868d49716803c7c23955717fedc3183a4ccefd05f38ba73921cf648",
      "networkId": 0,
      "chainId": 0
    },
    {
      "hash": "0x8336bcda9d0c50ac03fdd1b3824e0b4cfea0c5cf89df3a5cea773f10d397cc58",
      "blockHash": "0x472e7339d37dfdbf69d42b6761f2c4cc4caacc7442584dfc1ef7fb4ea487c2d7",
      "blockNumber": 94673,
      "transactionIndex": 12,
      "confirmations": null,
      "from": "0xe6A7a1d47ff21B6321162AEA7C6CB457D5476Bca",
      "gasPrice": {
        "_hex": "0xd4cda0d24"
      },
      "gasLimit": {
        "_hex": "0x55f0"
      },
      "to": "0x3cD73157C6a0aB907B9dFe60F75c74Bb99D98e7b",
      "value": {
        "_hex": "0x278db7f6a99eaebe0"
      },
      "nonce": 2948,
      "data": "0x",
      "r": "0x648d06f3c5a3081e79460029173b778fc0d7885090759d132a44b26ef0ed9afd",
      "s": "0x526a04fefe314486662b57c2797a5ec44654d03fbdee0b05c633e4e7772cd92d",
      "v": 28,
      "creates": null,
      "raw": "0xf86f820b84850d4cda0d248255f0943cd73157c6a0ab907b9dfe60f75c74bb99d98e7b890278db7f6a99eaebe0801ca0648d06f3c5a3081e79460029173b778fc0d7885090759d132a44b26ef0ed9afda0526a04fefe314486662b57c2797a5ec44654d03fbdee0b05c633e4e7772cd92d",
      "networkId": 0,
      "chainId": 0
    },
    {
      "hash": "0xbd2ce711fd8e22907c46dd37b1a6a31a8f975800339149129b360b94552093ce",
      "blockHash": "0x472e7339d37dfdbf69d42b6761f2c4cc4caacc7442584dfc1ef7fb4ea487c2d7",
      "blockNumber": 94673,
      "transactionIndex": 13,
      "confirmations": null,
      "from": "0xe6A7a1d47ff21B6321162AEA7C6CB457D5476Bca",
      "gasPrice": {
        "_hex": "0xd4cda0d24"
      },
      "gasLimit": {
        "_hex": "0x55f0"
      },
      "to": "0xF7e66D2622220807d8696064E94ca24b1dC6e7Da",
      "value": {
        "_hex": "0x290890c8bf8b86f30"
      },
      "nonce": 2949,
      "data": "0x",
      "r": "0xdab11818b91ac82d8129a9e7823af017bb872fe3f3181837499ce4c7ba4a79a7",
      "s": "0x46519be29cba96d90fef6e8ab93e1dc8bfc5703acb4bf6b3bd3b71424aa360c7",
      "v": 27,
      "creates": null,
      "raw": "0xf86f820b85850d4cda0d248255f094f7e66d2622220807d8696064e94ca24b1dc6e7da890290890c8bf8b86f30801ba0dab11818b91ac82d8129a9e7823af017bb872fe3f3181837499ce4c7ba4a79a7a046519be29cba96d90fef6e8ab93e1dc8bfc5703acb4bf6b3bd3b71424aa360c7",
      "networkId": 0,
      "chainId": 0
    },
    {
      "hash": "0x084c6a45b9d7b06b22af3c89c0d5e23efc6b6d9162939bf3fd528ab82493adbe",
      "blockHash": "0x472e7339d37dfdbf69d42b6761f2c4cc4caacc7442584dfc1ef7fb4ea487c2d7",
      "blockNumber": 94673,
      "transactionIndex": 14,
      "confirmations": null,
      "from": "0xe6A7a1d47ff21B6321162AEA7C6CB457D5476Bca",
      "gasPrice": {
        "_hex": "0xd4cda0d24"
      },
      "gasLimit": {
        "_hex": "0x55f0"
      },
      "to": "0x6964b95BF8BA16b837e2f3Ae8dA7D299553eC1f7",
      "value": {
        "_hex": "0x2a67001dd314b80b0"
      },
      "nonce": 2950,
      "data": "0x",
      "r": "0x71aa07575c40ae5e55629ce722743e166fe1baae5283c38f1f961828b89beb22",
      "s": "0x0240f1d36d725d119d3879b83ad6b33ebc6768c9c6e86a7ca623b8b4176a0116",
      "v": 27,
      "creates": null,
      "raw": "0xf86f820b86850d4cda0d248255f0946964b95bf8ba16b837e2f3ae8da7d299553ec1f78902a67001dd314b80b0801ba071aa07575c40ae5e55629ce722743e166fe1baae5283c38f1f961828b89beb22a00240f1d36d725d119d3879b83ad6b33ebc6768c9c6e86a7ca623b8b4176a0116",
      "networkId": 0,
      "chainId": 0
    },
    {
      "hash": "0x1625c90e9cdf3e6f35bfe2ab1464809cb1919b222ef6ef327fc0e9cbddd4cf59",
      "blockHash": "0x472e7339d37dfdbf69d42b6761f2c4cc4caacc7442584dfc1ef7fb4ea487c2d7",
      "blockNumber": 94673,
      "transactionIndex": 15,
      "confirmations": null,
      "from": "0xe6A7a1d47ff21B6321162AEA7C6CB457D5476Bca",
      "gasPrice": {
        "_hex": "0xd4cda0d24"
      },
      "gasLimit": {
        "_hex": "0x55f0"
      },
      "to": "0x945133f5F817b984e41D4798b45C9B8ed7CE3EAc",
      "value": {
        "_hex": "0x2bf92c0483141d0f0"
      },
      "nonce": 2951,
      "data": "0x",
      "r": "0x1c994a64887d095e5e1b4a21f94b94b7bc266a65e595c31e4f48e4fe2373582b",
      "s": "0x318b17ea8665f9bf8b31a30a3783f15be16dd36bcda115f15ffa4e4c5230728a",
      "v": 27,
      "creates": null,
      "raw": "0xf86f820b87850d4cda0d248255f094945133f5f817b984e41d4798b45c9b8ed7ce3eac8902bf92c0483141d0f0801ba01c994a64887d095e5e1b4a21f94b94b7bc266a65e595c31e4f48e4fe2373582ba0318b17ea8665f9bf8b31a30a3783f15be16dd36bcda115f15ffa4e4c5230728a",
      "networkId": 0,
      "chainId": 0
    }
  ]
}