{
  "hash": "0xfb226cc70a28c93de4f40a963a0eed70bba5a6f115110d5f96ced95ed5eeace6",
  "parentHash": "0xdf8b8210a1085bfffc9db012629b65a7735a3adbc74e2bc2f6e71469a8d0068d",
  "number": 118996,
  "timestamp": 1440134983,
  "nonce": "0x8e34de35106372f8",
  "difficulty": 4420492438834,
  "gasLimit": {
    "_hex": "0x2fefd8"
  },
  "gasUsed": {
    "_hex": "0x520c"
  },
  "miner": "0x608f4b86321a68453f9adf6F06F7Fc3E621739ad",
  "extraData": "0xd783010002844765746887676f312e342e32856c696e7578",
  "transactions": [
    {
      "hash": "0xc0a9ba41e4142c2b424ddcfa4db5c7be7c23238670fa79ed81b8e6c04b63fbe0",
      "blockHash": "0xfb226cc70a28c93de4f40a963a0eed70bba5a6f115110d5f96ced95ed5eeace6",
      "blockNumber": 118996,
      "transactionIndex": 0,
      "confirmations": null,
      "from": "0xb9836ec1f42Bd48331bceaedb74a6Bcdc22832bD",
      "gasPrice": {
        "_hex": "0xe157c74fc"
      },
      "gasLimit": {
        "_hex": "0x7530"
      },
      "to": "0x7cB57B5A97eAbe94205C07890BE4c1aD31E486A8",
      "value": {
        "_hex": "0x38d7ea4c68000"
      },
      "nonce": 21,
      "data": "0x00",
      "r": "0x94735272741414f8884d9ec825f7170ba0c463e5352756dca99d3b6f84a53de3",
      "s": "0xa8b87ecec9030207f1fe2a5e9e6448ffb44713bad64bede6c208d44686602e30",
      "v": 28,
      "creates": null,
      "raw": "0xf86b15850e157c74fc827530947cb57b5a97eabe94205c07890be4c1ad31e486a887038d7ea4c68000001ca094735272741414f8884d9ec825f7170ba0c463e5352756dca99d3b6f84a53de3a0a8b87ecec9030207f1fe2a5e9e6448ffb44713bad64bede6c208d44686602e30",
      "networkId": 0,
      "chainId": 0
    }
  ]
}