{
  "hash": "0x5aeeae26d3faa1124c73ff138ba2e69e422840519ccf9805dac8d402357a6c89",
  "parentHash": "0x7323b870f04fc408cbd64d74f0c9a2c16f49824e7adb705627cc629b56566d2f",
  "number": 59702,
  "timestamp": 1439142269,
  "nonce": "0x4f40c5400166ea6e",
  "difficulty": 1714665229122,
  "gasLimit": {
    "_hex": "0x2fefd8"
  },
  "gasUsed": {
    "_hex": "0x5208"
  },
  "miner": "0xbb7B8287f3F0a933474a79eAe42CBCa977791171",
  "extraData": "0x476574682f4c5649562f76312e302e312f6c696e75782f676f312e342e32",
  "transactions": [
    {
      "hash": "0x35f5ae625e8bc4968e99b3cfaecf599405be6384920dd1cdbaa330f13791411c",
      "blockHash": "0x5aeeae26d3faa1124c73ff138ba2e69e422840519ccf9805dac8d402357a6c89",
      "blockNumber": 59702,
      "transactionIndex": 0,
      "confirmations": null,
      "from": "0x5fF827e73C5B866c300b824fe12719a3DD350513",
      "gasPrice": {
        "_hex": "0xd81e0a9a0"
      },
      "gasLimit": {
        "_hex": "0x5208"
      },
      "to": "0x32Be343B94f860124dC4fEe278FDCBD38C102D88",
      "value": {
        "_hex": "0x455f3172acd1c000"
      },
      "nonce": 5,
      "data": "0x",
      "r": "0x07338aced79a71c8f3a3e30b3f831c82d195ab3df976f0bc95d0610aa88a7ebf",
      "s": "0x72ee32ff94c266c0112dc73fac4dc7fa53d07f2193507682071fd5cad1763b68",
      "v": 27,
      "creates": null,
      "raw": "0xf86c05850d81e0a9a08252089432be343b94f860124dc4fee278fdcbd38c102d8888455f3172acd1c000801ba007338aced79a71c8f3a3e30b3f831c82d195ab3df976f0bc95d0610aa88a7ebfa072ee32ff94c266c0112dc73fac4dc7fa53d07f2193507682071fd5cad1763b68",
      "networkId": 0,
      "chainId": 0
    }
  ]
}