{
  "hash": "0xa854eb43db768258e0785b1ebe58726acc89d56858a4e487a911f1b9935f4aa7",
  "parentHash": "0x5c10dc651086ab29a6704fd5e660bb79d5287dff516904a6de7dd3ac76bda122",
  "number": 55896,
  "timestamp": 1439078882,
  "nonce": "0xec284d23386e0631",
  "difficulty": 1608365491131,
  "gasLimit": {
    "_hex": "0x2fefd8"
  },
  "gasUsed": {
    "_hex": "0x4d0dc"
  },
  "miner": "0x2134e2a2b718DCa96580ECAC31E653Ea1fdd58DA",
  "extraData": "0x476574682f76312e302e312f77696e646f77732f676f312e342e32",
  "transactions": [
    {
      "hash": "0xeb91966fe376097feeff36597a42bdbf6e446928d239ffc4c51b5f2eb9f7c6c4",
      "blockHash": "0xa854eb43db768258e0785b1ebe58726acc89d56858a4e487a911f1b9935f4aa7",
      "blockNumber": 55896,
      "transactionIndex": 0,
      "confirmations": null,
      "from": "0x71d9494E50C5dd59c599dBa3810BA1755E6537f0",
      "gasPrice": {
        "_hex": "0x110c8f7d8de"
      },
      "gasLimit": {
        "_hex": "0xc350"
      },
      "to": "0x2910543Af39abA0Cd09dBb2D50200b3E800A63D2",
      "value": {
        "_hex": "0x6c6b935b8bbd400000"
      },
      "nonce": 0,
      "data": "0x454e44464a30523930",
      "r": "0x2a934bf3a521890e2bb90c2cba494b5eaf563c88891675d4fabc1e6fdb7f1765",
      "s": "0x1ea816d123702aa6d4e430ea31dd2dd025d1ce03788e37986adc7b53d9d649a0",
      "v": 28,
      "creates": null,
      "raw": "0xf87780860110c8f7d8de82c350942910543af39aba0cd09dbb2d50200b3e800a63d2896c6b935b8bbd40000089454e44464a305239301ca02a934bf3a521890e2bb90c2cba494b5eaf563c88891675d4fabc1e6fdb7f1765a01ea816d123702aa6d4e430ea31dd2dd025d1ce03788e37986adc7b53d9d649a0",
      "networkId": 0,
      "chainId": 0
    },
    {
      "hash": "0x31eb77c7f220845b665ffeda100ec5bfc01c4ffd7840d6831d81f0a9145dabf3",
      "blockHash": "0xa854eb43db768258e0785b1ebe58726acc89d56858a4e487a911f1b9935f4aa7",
      "blockNumber": 55896,
      "transactionIndex": 1,
      "confirmations": null,
      "from": "0xe6A7a1d47ff21B6321162AEA7C6CB457D5476Bca",
      "gasPrice": {
        "_hex": "0xcb0603114"
      },
      "gasLimit": {
        "_hex": "0x55f0"
      },
      "to": "0xD6e6b0E55C9b50F68269e40E31f8Ce7a8B43f9fC",
      "value": {
        "_hex": "0xc9780592ea36b9c8"
      },
      "nonce": 461,
      "data": "0x",
      "r": "0xfbb96986b2d3f779fb1843bd7cb5d9bb94591f74ab8458043b0926570b2e62d5",
      "s": "0x341f089b39bee45a8fa6b828d0192c7c8dcb8ee0fe67ff25f92f34371a616f0b",
      "v": 28,
      "creates": null,
      "raw": "0xf86e8201cd850cb06031148255f094d6e6b0e55c9b50f68269e40e31f8ce7a8b43f9fc88c9780592ea36b9c8801ca0fbb96986b2d3f779fb1843bd7cb5d9bb94591f74ab8458043b0926570b2e62d5a0341f089b39bee45a8fa6b828d0192c7c8dcb8ee0fe67ff25f92f34371a616f0b",
      "networkId": 0,
      "chainId": 0
    },
    {
      "hash": "0x1c5bc4e49db043fbafe9a8430c51e14f6d6908d0f439a2daf5080b8d161fb002",
      "blockHash": "0xa854eb43db768258e0785b1ebe58726acc89d56858a4e487a911f1b9935f4aa7",
      "blockNumber": 55896,
      "transactionIndex": 2,
      "confirmations": null,
      "from": "0xe6A7a1d47ff21B6321162AEA7C6CB457D5476Bca",
      "gasPrice": {
        "_hex": "0xcb0603114"
      },
      "gasLimit": {
        "_hex": "0x55f0"
      },
      "to": "0xA46B7974F4F43Af50e9C4795251303D7066ED67f",
      "value": {
        "_hex": "0xcd6b60ea1dcc40b0"
      },
      "nonce": 462,
      "data": "0x",
      "r": "0x274de0d7b62f37d3654f0fbea94ca346da00956e1e265126c4fae8bd91f39246",
      "s": "0x197a92bc459f04e61d438e933d180327e71994ac6cb6b77e846942f526b5a1f2",
      "v": 27,
      "creates": null,
      "raw": "0xf86e8201ce850cb06031148255f094a46b7974f4f43af50e9c4795251303d7066ed67f88cd6b60ea1dcc40b0801ba0274de0d7b62f37d3654f0fbea94ca346da00956e1e265126c4fae8bd91f39246a0197a92bc459f04e61d438e933d180327e71994ac6cb6b77e846942f526b5a1f2",
      "networkId": 0,
      "chainId": 0
    },
    {
      "hash": "0xfc48c47d187b4321dd14d0b09deff770cdb049dffc701a94e12803bea98798e9",
      "blockHash": "0xa854eb43db768258e0785b1ebe58726acc89d56858a4e487a911f1b9935f4aa7",
      "blockNumber": 55896,
      "transactionIndex": 3,
      "confirmations": null,
      "from": "0xe6A7a1d47ff21B6321162AEA7C6CB457D5476Bca",
      "gasPrice": {
        "_hex": "0xcb0603114"
      },
      "gasLimit": {
        "_hex": "0x55f0"
      },
      "to": "0x77e41B4125b7c14757e0f07fE36b2E95db757a10",
      "value": {
        "_hex": "0xd17f890293345fd8"
      },
      "nonce": 463,
      "data": "0x",
      "r": "0xa07108e92d39bf6789ffa929abd27f05b13c3a4403990d368ff22396745f363c",
      "s": "0x31cc89cca4e5ce0f6b18de829eb8b4b2f290ad112b10eaa32df48cee3ae22951",
      "v": 28,
      "creates": null,
      "raw": "0xf86e8201cf850cb06031148255f09477e41b4125b7c14757e0f07fe36b2e95db757a1088d17f890293345fd8801ca0a07108e92d39bf6789ffa929abd27f05b13c3a4403990d368ff22396745f363ca031cc89cca4e5ce0f6b18de829eb8b4b2f290ad112b10eaa32df48cee3ae22951",
      "networkId": 0,
      "chainId": 0
    },
    {
      "hash": "0x3b44fbc4e68124d975a467e7e49b3401bc085a2bf6efc2c71308e1a3653aa5da",
      "blockHash": "0xa854eb43db768258e0785b1ebe58726acc89d56858a4e487a911f1b9935f4aa7",
      "blockNumber": 55896,
      "transactionIndex": 4,
      "confirmations": null,
      "from": "0xe6A7a1d47ff21B6321162AEA7C6CB457D5476Bca",
      "gasPrice": {
        "_hex": "0xcb0603114"
      },
      "gasLimit": {
        "_hex": "0x55f0"
      },
      "to": "0x573fA39ba232a67268788CE9D5a7Bd8426856A6d",
      "value": {
        "_hex": "0xd6510f3f3df8cfb0"
      },
      "nonce": 464,
      "data": "0x",
      "r": "0x8cf40ff000e1822b84793fd6a4967b51872ccfdb1a7e3dbf3d57188926a07b3e",
      "s": "0x7d39cba7601aae8a248876957f2c3e014301e1cdb65d64357ae184a7c534da82",
      "v": 28,
      "creates": null,
      "raw": "0xf86e8201d0850cb06031148255f094573fa39ba232a67268788ce9d5a7bd8426856a6d88d6510f3f3df8cfb0801ca08cf40ff000e1822b84793fd6a4967b51872ccfdb1a7e3dbf3d57188926a07b3ea07d39cba7601aae8a248876957f2c3e014301e1cdb65d64357ae184a7c534da82",
      "networkId": 0,
      "chainId": 0
    },
    {
      "hash": "0x0408baef06b92087fb6c7c3d37ca9f0660339cd978ca96f04882b113be0b1045",
      "blockHash": "0xa854eb43db768258e0785b1ebe58726acc89d56858a4e487a911f1b9935f4aa7",
      "blockNumber": 55896,
      "transactionIndex": 5,
      "confirmations": null,
      "from": "0xe6A7a1d47ff21B6321162AEA7C6CB457D5476Bca",
      "gasPrice": {
        "_hex": "0xcb0603114"
      },
      "gasLimit": {
        "_hex": "0x55f0"
      },
      "to": "0xF9bFab280Cbea21E34356b54A145aca9786A7a19",
      "value": {
        "_hex": "0xd7e2e7c70ee94030"
      },
      "nonce": 465,
      "data": "0x",
      "r": "0x8026d4a005fedd185f53eaf698f9feac35350f43a7eb79c30ed1504a048f9518",
      "s": "0x27b973ea725d40f07c94ede1020af986bdde6d9479468d779959f309c6816714",
      "v": 28,
      "creates": null,
      "raw": "0xf86e8201d1850cb06031148255f094f9bfab280cbea21e34356b54a145aca9786a7a1988d7e2e7c70ee94030801ca08026d4a005fedd185f53eaf698f9feac35350f43a7eb79c30ed1504a048f9518a027b973ea725d40f07c94ede1020af986bdde6d9479468d779959f309c6816714",
      "networkId": 0,
      "chainId": 0
    },
    {
      "hash": "0x8ff3aa4ba8459d9790187c4eaa82c75f3943f6bfd80ec3be245a31b68c3904d8",
      "blockHash": "0xa854eb43db768258e0785b1ebe58726acc89d56858a4e487a911f1b9935f4aa7",
      "blockNumber": 55896,
      "transactionIndex": 6,
      "confirmations": null,
      "from": "0xe6A7a1d47ff21B6321162AEA7C6CB457D5476Bca",
      "gasPrice": {
        "_hex": "0xcb0603114"
      },
      "gasLimit": {
        "_hex": "0x55f0"
      },
      "to": "0x29C0024a99b44d481694cB5D98907a1343D390fD",
      "value": {
        "_hex": "0xe2f34e45ec5ac6c8"
      },
      "nonce": 466,
      "data": "0x",
      "r": "0x992785b3cd37bfbe8cada1a8daba0f47dfffb11a124a7518055b8c04339449cd",
      "s": "0x29291ae8c80391185eaf0449951d382cc7b386fd2b22b07b319462348eeb8f67",
      "v": 27,
      "creates": null,
      "raw": "0xf86e8201d2850cb06031148255f09429c0024a99b44d481694cb5d98907a1343d390fd88e2f34e45ec5ac6c8801ba0992785b3cd37bfbe8cada1a8daba0f47dfffb11a124a7518055b8c04339449cda029291ae8c80391185eaf0449951d382cc7b386fd2b22b07b319462348eeb8f67",
      "networkId": 0,
      "chainId": 0
    },
    {
      "hash": "0x0a98e50570e2f3969c5e0704733e591258fa61f90336803da0c835f885ef0a2b",
      "blockHash": "0xa854eb43db768258e0785b1ebe58726acc89d56858a4e487a911f1b9935f4aa7",
      "blockNumber": 55896,
      "transactionIndex": 7,
      "confirmations": null,
      "from": "0xe6A7a1d47ff21B6321162AEA7C6CB457D5476Bca",
      "gasPrice": {
        "_hex": "0xcb0603114"
      },
      "gasLimit": {
        "_hex": "0x55f0"
      },
      "to": "0xabceA603089850F8f6bB612A9031554D90A247CF",
      "value": {
        "_hex": "0xe878578af4686ea0"
      },
      "nonce": 467,
      "data": "0x",
      "r": "0x81f953b540dafd66b76cc1766dfc77382ac1dac690b80941c4c0b3fa4433bad1",
      "s": "0x0b0e182b82a28fb3685b79dfe89cc5ea2fb8a243d37c9c75b1493410aadc7f59",
      "v": 27,
      "creates": null,
      "raw": "0xf86e8201d3850cb06031148255f094abcea603089850f8f6bb612a9031554d90a247cf88e878578af4686ea0801ba081f953b540dafd66b76cc1766dfc77382ac1dac690b80941c4c0b3fa4433bad1a00b0e182b82a28fb3685b79dfe89cc5ea2fb8a243d37c9c75b1493410aadc7f59",
      "networkId": 0,
      "chainId": 0
    },
    {
      "hash": "0x73a7f4fa1a00df9f77f3a8ccd55de1fd64f8c96bde3c6d66295b5ffad0e94182",
      "blockHash": "0xa854eb43db768258e0785b1ebe58726acc89d56858a4e487a911f1b9935f4aa7",
      "blockNumber": 55896,
      "transactionIndex": 8,
      "confirmations": null,
      "from": "0xe6A7a1d47ff21B6321162AEA7C6CB457D5476Bca",
      "gasPrice": {
        "_hex": "0xdf91c830c"
      },
      "gasLimit": {
        "_hex": "0x55f0"
      },
      "to": "0x841B562a690B0808405F6E3713E1efdbebA96021",
      "value": {
        "_hex": "0xed69c9bc33de4110"
      },
      "nonce": 468,
      "data": "0x",
      "r": "0x972694142fe727b7015c7d6eb9e5f8e8ce38996feb71640c445b461347c35587",
      "s": "0x34b79b474992c00b2163c2830eb352405b491bedf906cc8da8e0b26eff8bc3f8",
      "v": 28,
      "creates": null,
      "raw": "0xf86e8201d4850df91c830c8255f094841b562a690b0808405f6e3713e1efdbeba9602188ed69c9bc33de4110801ca0972694142fe727b7015c7d6eb9e5f8e8ce38996feb71640c445b461347c35587a034b79b474992c00b2163c2830eb352405b491bedf906cc8da8e0b26eff8bc3f8",
      "networkId": 0,
      "chainId": 0
    },
    {
      "hash": "0x2cfd0e84d44a303b5fe7447b57ef468438b8138b1e0ec1319741b841cfa6bd40",
      "blockHash": "0xa854eb43db768258e0785b1ebe58726acc89d56858a4e487a911f1b9935f4aa7",
      "blockNumber": 55896,
      "transactionIndex": 9,
      "confirmations": null,
      "from": "0xe6A7a1d47ff21B6321162AEA7C6CB457D5476Bca",
      "gasPrice": {
        "_hex": "0xdf91c830c"
      },
      "gasLimit": {
        "_hex": "0x55f0"
      },
      "to": "0xB6AC12CefF0375Da80503AcCa54bf3061Fa917a8",
      "value": {
        "_hex": "0xfc21f402c623d300"
      },
      "nonce": 469,
      "data": "0x",
      "r": "0x61f3b4069c2f36fc864fdcec8abc2ec64ab08c9f3e2b88cf3346962c5f6e9432",
      "s": "0x51280d81a233b9b52f124970fcb29b956f2625460d2cc88db1e4696f45ef8363",
      "v": 28,
      "creates": null,
      "raw": "0xf86e8201d5850df91c830c8255f094b6ac12ceff0375da80503acca54bf3061fa917a888fc21f402c623d300801ca061f3b4069c2f36fc864fdcec8abc2ec64ab08c9f3e2b88cf3346962c5f6e9432a051280d81a233b9b52f124970fcb29b956f2625460d2cc88db1e4696f45ef8363",
      "networkId": 0,
      "chainId": 0
    },
    {
      "hash": "0x3bab5235c0b1fbfbd6200529e24f7c36138de5e67533a2b0ef3d3b0ab08e081a",
      "blockHash": "0xa854eb43db768258e0785b1ebe58726acc89d56858a4e487a911f1b9935f4aa7",
      "blockNumber": 55896,
      "transactionIndex": 10,
      "confirmations": null,
      "from": "0xe6A7a1d47ff21B6321162AEA7C6CB457D5476Bca",
      "gasPrice": {
        "_hex": "0xdf91c830c"
      },
      "gasLimit": {
        "_hex": "0x55f0"
      },
      "to": "0xc8ebccC5F5689Fa8659d83713341e5aD19349448",
      "value": {
        "_hex": "0x1191f730448c0d200"
      },
      "nonce": 470,
      "data": "0x",
      "r": "0x7e02e6322de93c269867187eea6298485c3e80a398abdfc0e044f44cb8280443",
      "s": "0x3100a19ce4d3d2c7f2f6f4913f018206543be9889e1f22da3a73cb534f8157b7",
      "v": 28,
      "creates": null,
      "raw": "0xf86f8201d6850df91c830c8255f094c8ebccc5f5689fa8659d83713341e5ad193494488901191f730448c0d200801ca07e02e6322de93c269867187eea6298485c3e80a398abdfc0e044f44cb8280443a03100a19ce4d3d2c7f2f6f4913f018206543be9889e1f22da3a73cb534f8157b7",
      "networkId": 0,
      "chainId": 0
    },
    {
      "hash": "0x5834049083445d5d605e3732e502b909a4873b44cc73743c79a8e9993fac9f66",
      "blockHash": "0xa854eb43db768258e0785b1ebe58726acc89d56858a4e487a911f1b9935f4aa7",
      "blockNumber": 55896,
      "transactionIndex": 11,
      "confirmations": null,
      "from": "0xe6A7a1d47ff21B6321162AEA7C6CB457D5476Bca",
      "gasPrice": {
        "_hex": "0xdf91c830c"
      },
      "gasLimit": {
        "_hex": "0x55f0"
      },
      "to": "0xd121f6B6DE47879cc29a8262cA01F7B4ACE9707e",
      "value": {
        "_hex": "0x11f02c3d624c7de78"
      },
      "nonce": 471,
      "data": "0x",
      "r": "0x378b7393678e9feb9c229a712afa3decb50939b30044d2f4e06a005e749269bb",
      "s": "0x7ea06c5297ee84eba1703a1cea585f28e329b4ce4a930d19f129ac84bc7108e4",
      "v": 27,
      "creates": null,
      "raw": "0xf86f8201d7850df91c830c8255f094d121f6b6de47879cc29a8262ca01f7b4ace9707e89011f02c3d624c7de78801ba0378b7393678e9feb9c229a712afa3decb50939b30044d2f4e06a005e749269bba07ea06c5297ee84eba1703a1cea585f28e329b4ce4a930d19f129ac84bc7108e4",
      "networkId": 0,
      "chainId": 0
    },
    {
      "hash": "0xef4be11775a02b8d21caa7c91f6b80eb581eb9f3337b3d533e877c121fbe85c2",
      "blockHash": "0xa854eb43db768258e0785b1ebe58726acc89d56858a4e487a911f1b9935f4aa7",
      "blockNumber": 55896,
      "transactionIndex": 12,
      "confirmations": null,
      "from": "0xe6A7a1d47ff21B6321162AEA7C6CB457D5476Bca",
      "gasPrice": {
        "_hex": "0xdf91c830c"
      },
      "gasLimit": {
        "_hex": "0x55f0"
      },
      "to": "0x68FFA706761dA2294d90488B32526FFE7fb2ff8d",
      "value": {
        "_hex": "0x1261df590486422c0"
      },
      "nonce": 472,
      "data": "0x",
      "r": "0x513f3754e73cc0015414dce3491de7bee33921f1e7770ab132d582c57d3a6f64",
      "s": "0x30e5a1c3ea0cc7c00e6cffe35299dc01e0bc191a0896369f36fa56a0edf5cfca",
      "v": 28,
      "creates": null,
      "raw": "0xf86f8201d8850df91c830c8255f09468ffa706761da2294d90488b32526ffe7fb2ff8d8901261df590486422c0801ca0513f3754e73cc0015414dce3491de7bee33921f1e7770ab132d582c57d3a6f64a030e5a1c3ea0cc7c00e6cffe35299dc01e0bc191a0896369f36fa56a0edf5cfca",
      "networkId": 0,
      "chainId": 0
    },
    {
      "hash": "0xec61fa7c767425e5ed9f6dc6a6621dccec618358f4d2d6f1ac0b23f768d3e480",
      "blockHash": "0xa854eb43db768258e0785b1ebe58726acc89d56858a4e487a911f1b9935f4aa7",
      "blockNumber": 55896,
      "transactionIndex": 13,
      "confirmations": null,
      "from": "0xe6A7a1d47ff21B6321162AEA7C6CB457D5476Bca",
      "gasPrice": {
        "_hex": "0xdf91c830c"
      },
      "gasLimit": {
        "_hex": "0x55f0"
      },
      "to": "0x87C85c25F631C791346688B2553408F103Ed0d5C",
      "value": {
        "_hex": "0x130c3d20c9a14a050"
      },
      "nonce": 473,
      "data": "0x",
      "r": "0xe2abf241605577b035888bdf359254e5c1df4d300b47beff199854961b468cfa",
      "s": "0x6e0351f08c825030c1cf6968a6d7c3c9dca275193672ed2fe9847bdd08d4e433",
      "v": 28,
      "creates": null,
      "raw": "0xf86f8201d9850df91c830c8255f09487c85c25f631c791346688b2553408f103ed0d5c890130c3d20c9a14a050801ca0e2abf241605577b035888bdf359254e5c1df4d300b47beff199854961b468cfaa06e0351f08c825030c1cf6968a6d7c3c9dca275193672ed2fe9847bdd08d4e433",
      "networkId": 0,
      "chainId": 0
    },
    {
      "hash": "0x98cf79ed56307b257f32412de2f6632a2081586b56ba3805595fbdf213cead1d",
      "blockHash": "0xa854eb43db768258e0785b1ebe58726acc89d56858a4e487a911f1b9935f4aa7",
      "blockNumber": 55896,
      "transactionIndex": 14,
      "confirmations": null,
      "from": "0xe6A7a1d47ff21B6321162AEA7C6CB457D5476Bca",
      "gasPrice": {
        "_hex": "0xdf91c830c"
      },
      "gasLimit": {
        "_hex": "0x55f0"
      },
      "to": "0x2496580535aEEF037C3232D8AfeB01545735c3Dc",
      "value": {
        "_hex": "0x154fbacfb72bbec40"
      },
      "nonce": 474,
      "data": "0x",
      "r": "0x36ed7afc1a878e08a49ed5a020146cf2c2f35a00b3b66409aa9bcaed545eb318",
      "s": "0x1f8e2115989b92104b86f135ffbc415bfb3941d2db4b10cf4f309e39cd62b42b",
      "v": 27,
      "creates": null,
      "raw": "0xf86f8201da850df91c830c8255f0942496580535aeef037c3232d8afeb01545735c3dc890154fbacfb72bbec40801ba036ed7afc1a878e08a49ed5a020146cf2c2f35a00b3b66409aa9bcaed545eb318a01f8e2115989b92104b86f135ffbc415bfb3941d2db4b10cf4f309e39cd62b42b",
      "networkId": 0,
      "chainId": 0
    }
  ]
}