{
  "hash": "0x1eb71cb77a7ea0d5a5cdfc1ddd2e82e48329dcc0e7a7c7dd7b510d9bf7dd59c6",
  "parentHash": "0x94b0a05cf22400aaaafab87865c33aee0d62a4e519c2df6187d1f7a6eb961476",
  "number": 79314,
  "timestamp": 1439467525,
  "nonce": "0x640ff88a2882f21b",
  "difficulty": 2345056837682,
  "gasLimit": {
    "_hex": "0x2fefd5"
  },
  "gasUsed": {
    "_hex": "0x5208"
  },
  "miner": "0xf927a40C8B7F6E07c5af7FA2155B4864a4112B13",
  "extraData": "0x",
  "transactions": [
    {
      "hash": "0x342edf2266316f6eeadbdc4f2a5af1631e270557f8a5d434978537ffeec2d7b9",
      "blockHash": "0x1eb71cb77a7ea0d5a5cdfc1ddd2e82e48329dcc0e7a7c7dd7b510d9bf7dd59c6",
      "blockNumber": 79314,
      "transactionIndex": 0,
      "confirmations": null,
      "from": "0xC759dc67E0c3816fdC56A2f5bb29920fc07e767D",
      "gasPrice": {
        "_hex": "0xd6aaf004a"
      },
      "gasLimit": {
        "_hex": "0x5208"
      },
      "to": "0x910a4aADabb3A7B3F7879118332E13Da66b68D77",
      "value": {
        "_hex": "0x1d7d843dc3b480000"
      },
      "nonce": 17,
      "data": "0x",
      "r": "0x317f7aa5446d7b6d7a77230220ccfbfdd55c7a6f47fbdae12786c254d69d926f",
      "s": "0x3a2328060a662ce927cbb893f51385318b33715aacd04e291f59440c27c47dad",
      "v": 27,
      "creates": null,
      "raw": "0xf86d11850d6aaf004a82520894910a4aadabb3a7b3f7879118332e13da66b68d778901d7d843dc3b480000801ba0317f7aa5446d7b6d7a77230220ccfbfdd55c7a6f47fbdae12786c254d69d926fa03a2328060a662ce927cbb893f51385318b33715aacd04e291f59440c27c47dad",
      "networkId": 0,
      "chainId": 0
    }
  ]
}