{
  "hash": "0xe0c4cdffa2e1de3fe7804abe9ec09aed8ad13c5d5e5941df249a11051d30f23e",
  "parentHash": "0x2cf0172b1a5ee703db2227caf36e66200d5c531b9f99bc341e57c1172178f848",
  "number": 67467,
  "timestamp": 1439272625,
  "nonce": "0x6d32df9128baad15",
  "difficulty": 1917620658725,
  "gasLimit": {
    "_hex": "0x2fefd8"
  },
  "gasUsed": {
    "_hex": "0x94cd"
  },
  "miner": "0x47ff6576639c2e94762eA5443978D7681C0E78DC",
  "extraData": "0x476574682f76312e302e312f6c696e75782f676f312e342e32",
  "transactions": [
    {
      "hash": "0x23aa0c9d9ee1e56204a398703e9e29201a1d261945b98cba962132f38735a9c4",
      "blockHash": "0xe0c4cdffa2e1de3fe7804abe9ec09aed8ad13c5d5e5941df249a11051d30f23e",
      "blockNumber": 67467,
      "transactionIndex": 0,
      "confirmations": null,
      "from": "0xB100987e77FEbA6F022dBd22B80B008e35d3Ff2E",
      "gasPrice": {
        "_hex": "0xe0d8b8625"
      },
      "gasLimit": {
        "_hex": "0x15f90"
      },
      "to": "0xD251a133116194Faa5aD2Bf40F4baF2Aa97D2ae4",
      "value": {
        "_hex": "0x0"
      },
      "nonce": 22,
      "data": "0xc2ca0ac500000000000000000000000000000000000000018ee90ff6c373e0ee4e3f0ad2",
      "r": "0xa2b01d21552ade6b64c444acc1c3aa812cef975ef2b22ef83625a63960a84724",
      "s": "0x6fe0a3f23cf3ed356d9ff2b6194ddbff554cdbc71f302d43dcdb09ade5b51a55",
      "v": 28,
      "creates": null,
      "raw": "0xf88916850e0d8b862583015f9094d251a133116194faa5ad2bf40f4baf2aa97d2ae480a4c2ca0ac500000000000000000000000000000000000000018ee90ff6c373e0ee4e3f0ad21ca0a2b01d21552ade6b64c444acc1c3aa812cef975ef2b22ef83625a63960a84724a06fe0a3f23cf3ed356d9ff2b6194ddbff554cdbc71f302d43dcdb09ade5b51a55",
      "networkId": 0,
      "chainId": 0
    }
  ]
}