{
  "hash": "0x37dd400365ab9b807fcb546fc565a25112e71c2a8f4c980e9c80d9ddfa999282",
  "parentHash": "0x4f86b2f2e55cd5747bca9ddcc2a18752e1b308c4ebe701df3406f0fc7482d089",
  "number": 78027,
  "timestamp": 1439446987,
  "nonce": "0xd8b0d8c1a8013fa4",
  "difficulty": 2285498479488,
  "gasLimit": {
    "_hex": "0x2fefd8"
  },
  "gasUsed": {
    "_hex": "0x5208"
  },
  "miner": "0xe6A7a1d47ff21B6321162AEA7C6CB457D5476Bca",
  "extraData": "0x476574682f76312e302e312d38326566323666362f6c696e75782f676f312e34",
  "transactions": [
    {
      "hash": "0xc6fad0d4e9c1c0d8a88f52204ad3b80326765227ec29ede49a1ea563b5cf81d6",
      "blockHash": "0x37dd400365ab9b807fcb546fc565a25112e71c2a8f4c980e9c80d9ddfa999282",
      "blockNumber": 78027,
      "transactionIndex": 0,
      "confirmations": null,
      "from": "0x32Be343B94f860124dC4fEe278FDCBD38C102D88",
      "gasPrice": {
        "_hex": "0xdbba350a7"
      },
      "gasLimit": {
        "_hex": "0x5208"
      },
      "to": "0x5170535271F5B9eC438c0447b3daD67b3E2633f2",
      "value": {
        "_hex": "0x4563918244f40000"
      },
      "nonce": 383,
      "data": "0x",
      "r": "0x7c6f12453f2c1491b0d7749bd00d81c7b7da06f2414db08ffaa4d5c01c261051",
      "s": "0x680f8656096b93653502f653033250a8cdffa68ed561fb5c0969916e52ae3734",
      "v": 28,
      "creates": null,
      "raw": "0xf86e82017f850dbba350a7825208945170535271f5b9ec438c0447b3dad67b3e2633f2884563918244f40000801ca07c6f12453f2c1491b0d7749bd00d81c7b7da06f2414db08ffaa4d5c01c261051a0680f8656096b93653502f653033250a8cdffa68ed561fb5c0969916e52ae3734",
      "networkId": 0,
      "chainId": 0
    }
  ]
}