{
  "hash": "0x74e349ab5e5379ab1c63159de1145511188743083abc1c1fd2b42ab021e38395",
  "parentHash": "0x645b679c81bb16cc379c4432ab1136de11724c83809abe644f59f3fe5c2b6afa",
  "number": 81282,
  "timestamp": 1439499135,
  "nonce": "0xac118286608af925",
  "difficulty": 2452227791538,
  "gasLimit": {
    "_hex": "0x2fefd8"
  },
  "gasUsed": {
    "_hex": "0xb2b1"
  },
  "miner": "0x0109Fb2bDd57D96397433af9B54eBD486ccd1B41",
  "extraData": "0x476574682f76312e302e312f77696e646f77732f676f312e342e32",
  "transactions": [
    {
      "hash": "0xba1231d62af17a984f97d06610d27479ee1523ebbdeb8de220eedc17210d40f8",
      "blockHash": "0x74e349ab5e5379ab1c63159de1145511188743083abc1c1fd2b42ab021e38395",
      "blockNumber": 81282,
      "transactionIndex": 0,
      "confirmations": null,
      "from": "0x062b7D49861d2A000578D647BCE532Eb1dCF5EFe",
      "gasPrice": {
        "_hex": "0x2882588acf"
      },
      "gasLimit": {
        "_hex": "0x2dc6c0"
      },
      "to": "0x93D38e72C5281e78f6B364eACaC6fa907EcBa164",
      "value": {
        "_hex": "0x0"
      },
      "nonce": 1,
      "data": "0x690167fc0000000000000000000000000000000000000000000000000000000000000000a2f796bfc2a364200000000000000000000000000000000000000000000000000000000000000000000000000000000000000000000000000de0b6b3a7640000000000000000000000000000062b7d49861d2a000578d647bce532eb1dcf5efe0000000000000000000000000000000000000000000000000000000000000064",
      "r": "0x739a55e18ebcc153474bcf2d89c37f7b82bad8928d7721ef87af5c3bcfc51fa8",
      "s": "0x38db85dceb172c97688d13238e18332266144fec1931f578f4bf905a4bc9021c",
      "v": 28,
      "creates": null,
      "raw": "0xf9010a01852882588acf832dc6c09493d38e72c5281e78f6b364eacac6fa907ecba16480b8a4690167fc0000000000000000000000000000000000000000000000000000000000000000a2f796bfc2a364200000000000000000000000000000000000000000000000000000000000000000000000000000000000000000000000000de0b6b3a7640000000000000000000000000000062b7d49861d2a000578d647bce532eb1dcf5efe00000000000000000000000000000000000000000000000000000000000000641ca0739a55e18ebcc153474bcf2d89c37f7b82bad8928d7721ef87af5c3bcfc51fa8a038db85dceb172c97688d13238e18332266144fec1931f578f4bf905a4bc9021c",
      "networkId": 0,
      "chainId": 0
    },
    {
      "hash": "0xbff8e300d33ad96d591684953b54edf78a73764e0e43e186d1e183a539e25b09",
      "blockHash": "0x74e349ab5e5379ab1c63159de1145511188743083abc1c1fd2b42ab021e38395",
      "blockNumber": 81282,
      "transactionIndex": 1,
      "confirmations": null,
      "from": "0x2910543Af39abA0Cd09dBb2D50200b3E800A63D2",
      "gasPrice": {
        "_hex": "0xcf2e63eb9"
      },
      "gasLimit": {
        "_hex": "0x5208"
      },
      "to": "0xAb23EF73EA95792c873C2c1831E98B8447cE1a5d",
      "value": {
        "_hex": "0x1569a823ba0f6b8000"
      },
      "nonce": 463,
      "data": "0x",
      "r": "0x58543e1ef79f029d9e5fb88239c74bd6fb71b2f04f8605398f4a578cf7894710",
      "s": "0x64ff383a40c667d8f64c22cacb81fe195c74c47d17343dc5407ac4ee1ecef539",
      "v": 27,
      "creates": null,
      "raw": "0xf86f8201cf850cf2e63eb982520894ab23ef73ea95792c873c2c1831e98b8447ce1a5d891569a823ba0f6b8000801ba058543e1ef79f029d9e5fb88239c74bd6fb71b2f04f8605398f4a578cf7894710a064ff383a40c667d8f64c22cacb81fe195c74c47d17343dc5407ac4ee1ecef539",
      "networkId": 0,
      "chainId": 0
    }
  ]
}