{
  "hash": "0x73c208cb51713007a76ffc49635dcc94bc2a0ff4736cc7f78ae44297e8a55816",
  "parentHash": "0x26ee1131aefead975162b63094ace36ebfd187198a755ff30b4289075b2bf9b5",
  "number": 117922,
  "timestamp": 1440117569,
  "nonce": "0x4cb821c235fb72d4",
  "difficulty": 4348267841138,
  "gasLimit": {
    "_hex": "0x2fefd8"
  },
  "gasUsed": {
    "_hex": "0x14820"
  },
  "miner": "0xe6A7a1d47ff21B6321162AEA7C6CB457D5476Bca",
  "extraData": "0xd783010002844765746887676f312e342e32856c696e7578",
  "transactions": [
    {
      "hash": "0x6ab36c7adb5b5865df511e2cef9820368b099e6f4f23e3eec5d9579abaac334c",
      "blockHash": "0x73c208cb51713007a76ffc49635dcc94bc2a0ff4736cc7f78ae44297e8a55816",
      "blockNumber": 117922,
      "transactionIndex": 0,
      "confirmations": null,
      "from": "0x2753Eb7f173C1e8B9F5315395ef4608F92b637AB",
      "gasPrice": {
        "_hex": "0xba43b7400"
      },
      "gasLimit": {
        "_hex": "0x5208"
      },
      "to": "0x32Be343B94f860124dC4fEe278FDCBD38C102D88",
      "value": {
        "_hex": "0x96ed335616108000"
      },
      "nonce": 3,
      "data": "0x",
      "r": "0x277692bb5c398671f89be0b5ebbd61eb4fa0dbfc09e16f8ad0c28d09489be110",
      "s": "0x21c3d736e656bbf164321ab44eacb0c0617db94996be4f915398088f065645d1",
      "v": 27,
      "creates": null,
      "raw": "0xf86c03850ba43b74008252089432be343b94f860124dc4fee278fdcbd38c102d888896ed335616108000801ba0277692bb5c398671f89be0b5ebbd61eb4fa0dbfc09e16f8ad0c28d09489be110a021c3d736e656bbf164321ab44eacb0c0617db94996be4f915398088f065645d1",
      "networkId": 0,
      "chainId": 0
    },
    {
      "hash": "0xe49b7c4ea2c2fd90b31dc6fbb0ae4460ea3d6a63c6cd1dbb64e91abf9e62f6a5",
      "blockHash": "0x73c208cb51713007a76ffc49635dcc94bc2a0ff4736cc7f78ae44297e8a55816",
      "blockNumber": 117922,
      "transactionIndex": 1,
      "confirmations": null,
      "from": "0x4D67f4F0Db45b3B5a3424B39ed8d972F710381D5",
      "gasPrice": {
        "_hex": "0xba43b7400"
      },
      "gasLimit": {
        "_hex": "0x5208"
      },
      "to": "0x32Be343B94f860124dC4fEe278FDCBD38C102D88",
      "value": {
        "_hex": "0x11a7fb28ee2e9c0000"
      },
      "nonce": 49,
      "data": "0x",
      "r": "0x67dd6ea7d77b6323d2131d419677b955a788a1bdb148e0a4cbce2fa93c9aa7f5",
      "s": "0x7caaa8082e77e93d8f7a37beeb56a3fa433bdebda98c37aa692ca8cc30bfd891",
      "v": 27,
      "creates": null,
      "raw": "0xf86d31850ba43b74008252089432be343b94f860124dc4fee278fdcbd38c102d888911a7fb28ee2e9c0000801ba067dd6ea7d77b6323d2131d419677b955a788a1bdb148e0a4cbce2fa93c9aa7f5a07caaa8082e77e93d8f7a37beeb56a3fa433bdebda98c37aa692ca8cc30bfd891",
      "networkId": 0,
      "chainId": 0
    },
    {
      "hash": "0x6ecc32d3e3979253264b737582194487be2002998718f0615cf4e022ae93ec7f",
      "blockHash": "0x73c208cb51713007a76ffc49635dcc94bc2a0ff4736cc7f78ae44297e8a55816",
      "blockNumber": 117922,
      "transactionIndex": 2,
      "confirmations": null,
      "from": "0x563e085b6739fd86ac81775dd9867Bac0c489b6A",
      "gasPrice": {
        "_hex": "0xba43b7400"
      },
      "gasLimit": {
        "_hex": "0x5208"
      },
      "to": "0x32Be343B94f860124dC4fEe278FDCBD38C102D88",
      "value": {
        "_hex": "0x6a6e40bdf14ec00"
      },
      "nonce": 4,
      "data": "0x",
      "r": "0x635a355b6fc853f3939dadd9eabcd0cbada0cfe05fc6a252495287e29bc02b8d",
      "s": "0x749b3cd0478fb72d8354b3f213064432b9135afca7def612e6090ff2cefb85b5",
      "v": 28,
      "creates": null,
      "raw": "0xf86c04850ba43b74008252089432be343b94f860124dc4fee278fdcbd38c102d888806a6e40bdf14ec00801ca0635a355b6fc853f3939dadd9eabcd0cbada0cfe05fc6a252495287e29bc02b8da0749b3cd0478fb72d8354b3f213064432b9135afca7def612e6090ff2cefb85b5",
      "networkId": 0,
      "chainId": 0
    },
    {
      "hash": "0x52268d9dd22acf8b9ca6eddcb018e7f746285e9427fa093a35484558a75f1978",
      "blockHash": "0x73c208cb51713007a76ffc49635dcc94bc2a0ff4736cc7f78ae44297e8a55816",
      "blockNumber": 117922,
      "transactionIndex": 3,
      "confirmations": null,
      "from": "0x108feDb097c1DCfED441480170144D8e19BB217f",
      "gasPrice": {
        "_hex": "0xba43b7400"
      },
      "gasLimit": {
        "_hex": "0x5208"
      },
      "to": "0x32Be343B94f860124dC4fEe278FDCBD38C102D88",
      "value": {
        "_hex": "0x4583680e05aa4800"
      },
      "nonce": 9,
      "data": "0x",
      "r": "0xf6992ea050e7a8e65c699115eecbe3760c9cce5bb6162c0c53e7469a77d71edd",
      "s": "0x42eeb9beff50058b6b5128d9b0ca781cf9668bba9c47caa0d2c8ccf1eba9399b",
      "v": 28,
      "creates": null,
      "raw": "0xf86c09850ba43b74008252089432be343b94f860124dc4fee278fdcbd38c102d88884583680e05aa4800801ca0f6992ea050e7a8e65c699115eecbe3760c9cce5bb6162c0c53e7469a77d71edda042eeb9beff50058b6b5128d9b0ca781cf9668bba9c47caa0d2c8ccf1eba9399b",
      "networkId": 0,
      "chainId": 0
    }
  ]
}