{
  "hash": "0x7efd5280869e433d2cdfcc094357f6372e20476e54cd1a06e00f42764191eed6",
  "parentHash": "0xa9cef56cd2a4e4970d87c262f37cf70d76de342848ad538254754da8dee2b3db",
  "number": 87007,
  "timestamp": 1439585919,
  "nonce": "0x8859781579af0eb7",
  "difficulty": 3003948945215,
  "gasLimit": {
    "_hex": "0x2fefd8"
  },
  "gasUsed": {
    "_hex": "0x5208"
  },
  "miner": "0x157c6f2431eB1a95797EE86F7d17b3c0FD47A247",
  "extraData": "0x476574682f76312e302e312f77696e646f77732f676f312e342e32",
  "transactions": [
    {
      "hash": "0xf308606a0503ced1dc1466fb6742161434314aad59c1f3f8029642852cebcfba",
      "blockHash": "0x7efd5280869e433d2cdfcc094357f6372e20476e54cd1a06e00f42764191eed6",
      "blockNumber": 87007,
      "transactionIndex": 0,
      "confirmations": null,
      "from": "0x8Dc1D2F6443A45A4BA60d691Ccb70C7e174A643D",
      "gasPrice": {
        "_hex": "0xe2812c71a"
      },
      "gasLimit": {
        "_hex": "0x5208"
      },
      "to": "0x07BC2CC8eeDC01970700efC9c4Fb36735e98CD71",
      "value": {
        "_hex": "0xddc2d6c63077330"
      },
      "nonce": 0,
      "data": "0x",
      "r": "0x4cd3b3a520d3d914511d1534591f37d4bec027119cf3b886381ff335ed894ae3",
      "s": "0x0112484beb7705fd379ce3787a5a5e9f4e0c89333685da51b7daebddc1f888d5",
      "v": 28,
      "creates": null,
      "raw": "0xf86c80850e2812c71a8252089407bc2cc8eedc01970700efc9c4fb36735e98cd71880ddc2d6c63077330801ca04cd3b3a520d3d914511d1534591f37d4bec027119cf3b886381ff335ed894ae3a00112484beb7705fd379ce3787a5a5e9f4e0c89333685da51b7daebddc1f888d5",
      "networkId": 0,
      "chainId": 0
    }
  ]
}