{
  "hash": "0x2b2541642ec8a5bcf8c7fc344746346d9ef847ae94cad8fcd32b8acbd15d98ce",
  "parentHash": "0xb5f2a7d841172e7760a422a2fb0a7c2b185a12d6d1a77a2d0648c62bfe70412c",
  "number": 107119,
  "timestamp": 1439916395,
  "nonce": "0xe94a7f480de7905c",
  "difficulty": 4463654085161,
  "gasLimit": {
    "_hex": "0x2fe3fc"
  },
  "gasUsed": {
    "_hex": "0x546c"
  },
  "miner": "0xad5C1768e5974C231b2148169da064e61910f31a",
  "extraData": "0x476574682f76312e302e302f6c696e75782f676f312e342e32",
  "transactions": [
    {
      "hash": "0x489703d0b193b0d8d99695af3687703d34f6bc7d61c2c1310dec12befef81abc",
      "blockHash": "0x2b2541642ec8a5bcf8c7fc344746346d9ef847ae94cad8fcd32b8acbd15d98ce",
      "blockNumber": 107119,
      "transactionIndex": 0,
      "confirmations": null,
      "from": "0x15dbB48c98309764f99cEd3692dccA35EE306bac",
      "gasPrice": {
        "_hex": "0x110c8f7d8de"
      },
      "gasLimit": {
        "_hex": "0xc350"
      },
      "to": "0x2910543Af39abA0Cd09dBb2D50200b3E800A63D2",
      "value": {
        "_hex": "0xa968163f0a57b400000"
      },
      "nonce": 1,
      "data": "0x454e4e573959443430",
      "r": "0xad3933e2346703486769744cbb5008af440b6b86e994f69c6006cb64d9bf7786",
      "s": "0x9f61dbf53a726ef4c15fc2d936ece45af97d76a306bdc58d4d7fa921b670fdc0",
      "v": 28,
      "creates": null,
      "raw": "0xf87801860110c8f7d8de82c350942910543af39aba0cd09dbb2d50200b3e800a63d28a0a968163f0a57b40000089454e4e5739594434301ca0ad3933e2346703486769744cbb5008af440b6b86e994f69c6006cb64d9bf7786a09f61dbf53a726ef4c15fc2d936ece45af97d76a306bdc58d4d7fa921b670fdc0",
      "networkId": 0,
      "chainId": 0
    }
  ]
}