{
  "hash": "0xe4057d1c637ab873d62a843c6813b2bc3aa2b7f4d6bb734609409cc294706822",
  "parentHash": "0xabe7e71f648881cf7ce5007ee3c4c7aba2f84c9217e2291ce762e836ad55728c",
  "number": 94517,
  "timestamp": 1439709741,
  "nonce": "0x286b0ef5c2f05fd3",
  "difficulty": 3484925095595,
  "gasLimit": {
    "_hex": "0x2fefd8"
  },
  "gasUsed": {
    "_hex": "0x806e"
  },
  "miner": "0xe6A7a1d47ff21B6321162AEA7C6CB457D5476Bca",
  "extraData": "0x476574682f76312e302e312d38326566323666362f6c696e75782f676f312e34",
  "transactions": [
    {
      "hash": "0x69dd9564371dfa30c455cd31cd813023a4f00c342db77eb9ba48b1a7a97dc709",
      "blockHash": "0xe4057d1c637ab873d62a843c6813b2bc3aa2b7f4d6bb734609409cc294706822",
      "blockNumber": 94517,
      "transactionIndex": 0,
      "confirmations": null,
      "from": "0xFBb1b73C4f0BDa4f67dcA266ce6Ef42f520fBB98",
      "gasPrice": {
        "_hex": "0xd5b65b626"
      },
      "gasLimit": {
        "_hex": "0x15f90"
      },
      "to": "0xCAc7000C7dBaa2E33Af15325AF5D435E011C7BdD",
      "value": {
        "_hex": "0x0"
      },
      "nonce": 63,
      "data": "0x3feb1bd84249545452455830300000000000000000000000000000000000000000000000000000000000000000000000193bb9b5e9b6099fb6c33dbb5ccda4ac18ed14d700000000000000000000000000000000000000000000000ad76b3568565f0000",
      "r": "0xf57d76e4be2c2f305f3949a36d66e5f2af6843af3c0af352251643cf386c4238",
      "s": "0x3e5c4de4c9d14bb460532c661d4d6cbed51ef2276883e0e429b68d05a713b5f3",
      "v": 28,
      "creates": null,
      "raw": "0xf8ca3f850d5b65b62683015f9094cac7000c7dbaa2e33af15325af5d435e011c7bdd80b8643feb1bd84249545452455830300000000000000000000000000000000000000000000000000000000000000000000000193bb9b5e9b6099fb6c33dbb5ccda4ac18ed14d700000000000000000000000000000000000000000000000ad76b3568565f00001ca0f57d76e4be2c2f305f3949a36d66e5f2af6843af3c0af352251643cf386c4238a03e5c4de4c9d14bb460532c661d4d6cbed51ef2276883e0e429b68d05a713b5f3",
      "networkId": 0,
      "chainId": 0
    }
  ]
}