{
  "hash": "0x57d1f4fb2f2df7d84103c15fbaa657bb7354223deb31b817875c75505939fabd",
  "parentHash": "0xc1683ac4d66998e4fbc291bb802214de63b4d3fc013bf1ceb835e7f166439c13",
  "number": 89790,
  "timestamp": 1439629238,
  "nonce": "0xfbcc7fbaa520ba54",
  "difficulty": 3335346112106,
  "gasLimit": {
    "_hex": "0x2fefd8"
  },
  "gasUsed": {
    "_hex": "0x29040"
  },
  "miner": "0xe6A7a1d47ff21B6321162AEA7C6CB457D5476Bca",
  "extraData": "0x476574682f76312e302e312d38326566323666362f6c696e75782f676f312e34",
  "transactions": [
    {
      "hash": "0x4eccf2a2c9e27181f3a8ec7922f65c1605aed929b7275a5f8f4da32658a9b39e",
      "blockHash": "0x57d1f4fb2f2df7d84103c15fbaa657bb7354223deb31b817875c75505939fabd",
      "blockNumber": 89790,
      "transactionIndex": 0,
      "confirmations": null,
      "from": "0xe6A7a1d47ff21B6321162AEA7C6CB457D5476Bca",
      "gasPrice": {
        "_hex": "0xd886efd85"
      },
      "gasLimit": {
        "_hex": "0x55f0"
      },
      "to": "0x59cC965F1643a68ad7a4272ff1654d4af4343ea7",
      "value": {
        "_hex": "0x1537a5046945dac10"
      },
      "nonce": 2376,
      "data": "0x",
      "r": "0x59c31492c9248fb1b5d46537b89ab382eeda01e35bbd6b994befb78889b87513",
      "s": "0x6aa5611be1003d93c4cc531bf0ec0350e537fab8a5ce9aa1de69a944415146e5",
      "v": 27,
      "creates": null,
      "raw": "0xf86f820948850d886efd858255f09459cc965f1643a68ad7a4272ff1654d4af4343ea78901537a5046945dac10801ba059c31492c9248fb1b5d46537b89ab382eeda01e35bbd6b994befb78889b87513a06aa5611be1003d93c4cc531bf0ec0350e537fab8a5ce9aa1de69a944415146e5",
      "networkId": 0,
      "chainId": 0
    },
    {
      "hash": "0x2de96a8ee5eba2e6fa6f2fbb896971601a15b882347e8007fda936c91c1c844e",
      "blockHash": "0x57d1f4fb2f2df7d84103c15fbaa657bb7354223deb31b817875c75505939fabd",
      "blockNumber": 89790,
      "transactionIndex": 1,
      "confirmations": null,
      "from": "0xe6A7a1d47ff21B6321162AEA7C6CB457D5476Bca",
      "gasPrice": {
        "_hex": "0xd886efd85"
      },
      "gasLimit": {
        "_hex": "0x55f0"
      },
      "to": "0xB6AC12CefF0375Da80503AcCa54bf3061Fa917a8",
      "value": {
        "_hex": "0x15677212c0efc1fa0"
      },
      "nonce": 2377,
      "data": "0x",
      "r": "0x2a94b7a03cafcea7e3b7312eac6b8666ca267a05cba532e4c04e09b9414f8cfd",
      "s": "0x5996439d6523a55e9d410cc241a5a11f81f3b43963cca20cc0259d65fd0c156d",
      "v": 27,
      "creates": null,
      "raw": "0xf86f820949850d886efd858255f094b6ac12ceff0375da80503acca54bf3061fa917a889015677212c0efc1fa0801ba02a94b7a03cafcea7e3b7312eac6b8666ca267a05cba532e4c04e09b9414f8cfda05996439d6523a55e9d410cc241a5a11f81f3b43963cca20cc0259d65fd0c156d",
      "networkId": 0,
      "chainId": 0
    },
    {
      "hash": "0x480cbbf653f94e6b8a925a61bc87bf1b489a4318613ff8c897c5d00c22a68afd",
      "blockHash": "0x57d1f4fb2f2df7d84103c15fbaa657bb7354223deb31b817875c75505939fabd",
      "blockNumber": 89790,
      "transactionIndex": 2,
      "confirmations": null,
      "from": "0xe6A7a1d47ff21B6321162AEA7C6CB457D5476Bca",
      "gasPrice": {
        "_hex": "0xd886efd85"
      },
      "gasLimit": {
        "_hex": "0x55f0"
      },
      "to": "0x91139B30e3d090a8c542CFB2AA1Cc6e3bfFB491C",
      "value": {
        "_hex": "0x164be37b89496c9b0"
      },
      "nonce": 2378,
      "data": "0x",
      "r": "0x97698e2a1dbfc170cef6583d64d75ce9deb06362120b006046fa0721f87c1d49",
      "s": "0x3681febbd9712dfedf785b3254fa81a1f64f77d98be151dc852683935c66923a",
      "v": 28,
      "creates": null,
      "raw": "0xf86f82094a850d886efd858255f09491139b30e3d090a8c542cfb2aa1cc6e3bffb491c890164be37b89496c9b0801ca097698e2a1dbfc170cef6583d64d75ce9deb06362120b006046fa0721f87c1d49a03681febbd9712dfedf785b3254fa81a1f64f77d98be151dc852683935c66923a",
      "networkId": 0,
      "chainId": 0
    },
    {
      "hash": "0x5875aeac5e6996705840b48c9a89a5bda7aa63f1031e21bd8ed5254036467922",
      "blockHash": "0x57d1f4fb2f2df7d84103c15fbaa657bb7354223deb31b817875c75505939fabd",
      "blockNumber": 89790,
      "transactionIndex": 3,
      "confirmations": null,
      "from": "0xe6A7a1d47ff21B6321162AEA7C6CB457D5476Bca",
      "gasPrice": {
        "_hex": "0xd886efd85"
      },
      "gasLimit": {
        "_hex": "0x55f0"
      },
      "to": "0xaA35779Ef4dfBEd0B3D6F46F5f11cb86261B17A5",
      "value": {
        "_hex": "0x165057a7e58b97eb0"
      },
      "nonce": 2379,
      "data": "0x",
      "r": "0xdbb6bc2406efe968301b3d7cfee6377c5550e8323f5b0de4f7d43fe3b90af28e",
      "s": "0x718260b703b53451824ff10f6d8fde637c993c0127fd86fdb53c51a685a25d6f",
      "v": 28,
      "creates": null,
      "raw": "0xf86f82094b850d886efd858255f094aa35779ef4dfbed0b3d6f46f5f11cb86261b17a5890165057a7e58b97eb0801ca0dbb6bc2406efe968301b3d7cfee6377c5550e8323f5b0de4f7d43fe3b90af28ea0718260b703b53451824ff10f6d8fde637c993c0127fd86fdb53c51a685a25d6f",
      "networkId": 0,
      "chainId": 0
    },
    {
      "hash": "0x954bd3afbe101ab64f9fc74d22468aaa63912baade4f3b8402b72397db98f9ed",
      "blockHash": "0x57d1f4fb2f2df7d84103c15fbaa657bb7354223deb31b817875c75505939fabd",
      "blockNumber": 89790,
      "transactionIndex": 4,
      "confirmations": null,
      "from": "0xe6A7a1d47ff21B6321162AEA7C6CB457D5476Bca",
      "gasPrice": {
        "_hex": "0xd886efd85"
      },
      "gasLimit": {
        "_hex": "0x55f0"
      },
      "to": "0x9dc5018E753A410593259039296bBfd28E29f894",
      "value": {
        "_hex": "0x165ab67779d424350"
      },
      "nonce": 2380,
      "data": "0x",
      "r": "0x3a41706912c45f4c58adef565a032e72ab80d835a50a7947d0f0848053743523",
      "s": "0x3f2f1ecc3fb6e0ee20061ceea1c5143cab7a980b4058f03fe7cb95c9a12d04f2",
      "v": 28,
      "creates": null,
      "raw": "0xf86f82094c850d886efd858255f0949dc5018e753a410593259039296bbfd28e29f894890165ab67779d424350801ca03a41706912c45f4c58adef565a032e72ab80d835a50a7947d0f0848053743523a03f2f1ecc3fb6e0ee20061ceea1c5143cab7a980b4058f03fe7cb95c9a12d04f2",
      "networkId": 0,
      "chainId": 0
    },
    {
      "hash": "0x8b4c7cd4668320cc60b3bcf88f3e5c82acd2536541c6357a083ac13a1ef064b4",
      "blockHash": "0x57d1f4fb2f2df7d84103c15fbaa657bb7354223deb31b817875c75505939fabd",
      "blockNumber": 89790,
      "transactionIndex": 5,
      "confirmations": null,
      "from": "0xe6A7a1d47ff21B6321162AEA7C6CB457D5476Bca",
      "gasPrice": {
        "_hex": "0xd886efd85"
      },
      "gasLimit": {
        "_hex": "0x55f0"
      },
      "to": "0x7d444a287AcFf70a9D6357dc37FB07FC7aABDC4f",
      "value": {
        "_hex": "0x1671b2fea852bce10"
      },
      "nonce": 2381,
      "data": "0x",
      "r": "0x4cf96e198f1f6b532a56952d81437ab08bf3afa8ac4c871c75f35f84f4997134",
      "s": "0x5107697b6f915c9cb7330501d80a24a354f602e75538f25242d63511faf3edbc",
      "v": 28,
      "creates": null,
      "raw": "0xf86f82094d850d886efd858255f0947d444a287acff70a9d6357dc37fb07fc7aabdc4f8901671b2fea852bce10801ca04cf96e198f1f6b532a56952d81437ab08bf3afa8ac4c871c75f35f84f4997134a05107697b6f915c9cb7330501d80a24a354f602e75538f25242d63511faf3edbc",
      "networkId": 0,
      "chainId": 0
    },
    {
      "hash": "0x728364f48adcb45335d5305436cf06449ff5b91452aecfdabde13277892dbd68",
      "blockHash": "0x57d1f4fb2f2df7d84103c15fbaa657bb7354223deb31b817875c75505939fabd",
      "blockNumber": 89790,
      "transactionIndex": 6,
      "confirmations": null,
      "from": "0xe6A7a1d47ff21B6321162AEA7C6CB457D5476Bca",
      "gasPrice": {
        "_hex": "0xd886efd85"
      },
      "gasLimit": {
        "_hex": "0x55f0"
      },
      "to": "0xF2C14aDd753869D4EEdfefdCdFBA341Abfa1D702",
      "value": {
        "_hex": "0x169be09eb43b5ff98"
      },
      "nonce": 2382,
      "data": "0x",
      "r": "0x79858220df121bc0dc1bcc38bcff18e7336353f9a599e617ffa7a0262a308979",
      "s": "0x55d01977b1ffc494ae52a23761b7626c7f8aaeb5b2850592b6ad31e741dc7d42",
      "v": 27,
      "creates": null,
      "raw": "0xf86f82094e850d886efd858255f094f2c14add753869d4eedfefdcdfba341abfa1d702890169be09eb43b5ff98801ba079858220df121bc0dc1bcc38bcff18e7336353f9a599e617ffa7a0262a308979a055d01977b1ffc494ae52a23761b7626c7f8aaeb5b2850592b6ad31e741dc7d42",
      "networkId": 0,
      "chainId": 0
    },
    {
      "hash": "0xca4d0b112958c4f84698dc9334f8cd92cab43bc2bf52f09df4b3c41060168f34",
      "blockHash": "0x57d1f4fb2f2df7d84103c15fbaa657bb7354223deb31b817875c75505939fabd",
      "blockNumber": 89790,
      "transactionIndex": 7,
      "confirmations": null,
      "from": "0xe6A7a1d47ff21B6321162AEA7C6CB457D5476Bca",
      "gasPrice": {
        "_hex": "0xd886efd85"
      },
      "gasLimit": {
        "_hex": "0x55f0"
      },
      "to": "0xD99b25c518320820D3C5ae9f47378DA32dED5f00",
      "value": {
        "_hex": "0x16d6aa8ccd36ae150"
      },
      "nonce": 2383,
      "data": "0x",
      "r": "0xef94c67340169fca79c526f8346470dbdf022bfafb0d683f76c40ae8688f89c2",
      "s": "0x10d36dda92e7afa679b190f31fd5fcbe2241f1791760d750ac4ae098fcf7507d",
      "v": 27,
      "creates": null,
      "raw": "0xf86f82094f850d886efd858255f094d99b25c518320820d3c5ae9f47378da32ded5f0089016d6aa8ccd36ae150801ba0ef94c67340169fca79c526f8346470dbdf022bfafb0d683f76c40ae8688f89c2a010d36dda92e7afa679b190f31fd5fcbe2241f1791760d750ac4ae098fcf7507d",
      "networkId": 0,
      "chainId": 0
    }
  ]
}