{
  "hash": "0x22baf937addbc4cc732628ef1c1fe09f0b80aeb226f531fe7b036f8e525032f9",
  "parentHash": "0x45e414483f186f60e48aba5c4eefe43dbf55bd3863ae9240705aa02df2173b94",
  "number": 72984,
  "timestamp": 1439361330,
  "nonce": "0x26d6513882aebfd6",
  "difficulty": 2211108375379,
  "gasLimit": {
    "_hex": "0x2fefd8"
  },
  "gasUsed": {
    "_hex": "0xa410"
  },
  "miner": "0xe6A7a1d47ff21B6321162AEA7C6CB457D5476Bca",
  "extraData": "0x476574682f76312e302e312d38326566323666362f6c696e75782f676f312e34",
  "transactions": [
    {
      "hash": "0xd84ab5fc21a7d83afcebb57436d479ca351355f7c53ca0224296729249ecaf2c",
      "blockHash": "0x22baf937addbc4cc732628ef1c1fe09f0b80aeb226f531fe7b036f8e525032f9",
      "blockNumber": 72984,
      "transactionIndex": 0,
      "confirmations": null,
      "from": "0x008FC7CBAdFFbD0D7fe44F8DFD60a79d721a1c9C",
      "gasPrice": {
        "_hex": "0xd9f970568"
      },
      "gasLimit": {
        "_hex": "0x15f90"
      },
      "to": "0xD1826373C4E0938f0b4302B40324f7f9c546492C",
      "value": {
        "_hex": "0xde0b6b3a7640000"
      },
      "nonce": 3,
      "data": "0x",
      "r": "0xec850ae969eb7ee0b700f2199421d4d629795e74470523d9d64564ea44cf9ae4",
      "s": "0x7e73adccfab8a8b4598888fd9ea649ab38a0528ec30f070d2dec9a6e65c93c29",
      "v": 28,
      "creates": null,
      "raw": "0xf86d03850d9f97056883015f9094d1826373c4e0938f0b4302b40324f7f9c546492c880de0b6b3a7640000801ca0ec850ae969eb7ee0b700f2199421d4d629795e74470523d9d64564ea44cf9ae4a07e73adccfab8a8b4598888fd9ea649ab38a0528ec30f070d2dec9a6e65c93c29",
      "networkId": 0,
      "chainId": 0
    },
    {
      "hash": "0xfcd48ab6c60842e9795869f7def3b76c6e02ce5d11f927912b89f78bec8870b7",
      "blockHash": "0x22baf937addbc4cc732628ef1c1fe09f0b80aeb226f531fe7b036f8e525032f9",
      "blockNumber": 72984,
      "transactionIndex": 1,
      "confirmations": null,
      "from": "0x32Be343B94f860124dC4fEe278FDCBD38C102D88",
      "gasPrice": {
        "_hex": "0xcc827f1c5"
      },
      "gasLimit": {
        "_hex": "0x5208"
      },
      "to": "0xF8CDdB4300504E2827E28101BF15c9215658296c",
      "value": {
        "_hex": "0xbf60a1d5889488000"
      },
      "nonce": 285,
      "data": "0x",
      "r": "0x637c613c3f7bbf42ed7884491fe3b24534a163d6a75d1a7945e58ae94cd965ed",
      "s": "0x1c9136ba53a52168d220b3884bc8a2a9ed503d69d66cbf86a0ebc7241b8dbd86",
      "v": 27,
      "creates": null,
      "raw": "0xf86f82011d850cc827f1c582520894f8cddb4300504e2827e28101bf15c9215658296c890bf60a1d5889488000801ba0637c613c3f7bbf42ed7884491fe3b24534a163d6a75d1a7945e58ae94cd965eda01c9136ba53a52168d220b3884bc8a2a9ed503d69d66cbf86a0ebc7241b8dbd86",
      "networkId": 0,
      "chainId": 0
    }
  ]
}