{
  "hash": "0x5f31e72157a588299c2c5133bde0cde41bc0b6d69e52f1bdfa60f34b64d4a5fe",
  "parentHash": "0x48051d9c4e5cc93dfebadb41265a109aaa700e0f0727046d886da423f522431d",
  "number": 54195,
  "timestamp": 1439050304,
  "nonce": "0x06d25332d8509da6",
  "difficulty": 1601637724934,
  "gasLimit": {
    "_hex": "0x2fefd8"
  },
  "gasUsed": {
    "_hex": "0x5208"
  },
  "miner": "0xf927a40C8B7F6E07c5af7FA2155B4864a4112B13",
  "extraData": "0x",
  "transactions": [
    {
      "hash": "0xd7416b754c13c987ad028b2c7785b5052433bbcd6a439f0a605ada007b224913",
      "blockHash": "0x5f31e72157a588299c2c5133bde0cde41bc0b6d69e52f1bdfa60f34b64d4a5fe",
      "blockNumber": 54195,
      "transactionIndex": 0,
      "confirmations": null,
      "from": "0x3f113041D56Dda809a245Fe338832c2D373e7c80",
      "gasPrice": {
        "_hex": "0xda2204efa"
      },
      "gasLimit": {
        "_hex": "0x15f90"
      },
      "to": "0xd5d9a0033e6B0A3ba7634d0e1a9055ad5f452C3D",
      "value": {
        "_hex": "0xde0b6b3a7640000"
      },
      "nonce": 2,
      "data": "0x",
      "r": "0x2d1c89cf135c96641be636808487464beb6e353b7b1acbf67e639ae474492df6",
      "s": "0x48a725ed3c1c2c0832103ae327499249fe1a5d2c5a8560ee3ded521e9cddbf74",
      "v": 27,
      "creates": null,
      "raw": "0xf86d02850da2204efa83015f9094d5d9a0033e6b0a3ba7634d0e1a9055ad5f452c3d880de0b6b3a7640000801ba02d1c89cf135c96641be636808487464beb6e353b7b1acbf67e639ae474492df6a048a725ed3c1c2c0832103ae327499249fe1a5d2c5a8560ee3ded521e9cddbf74",
      "networkId": 0,
      "chainId": 0
    }
  ]
}