{
  "hash": "0xa7a6588599c82e120330145754361f044770b5364142d95622192aac80424656",
  "parentHash": "0xa3b0939fc800456880968811fc62a4af0f96637d09698ec6126139472bf2a1df",
  "number": 68460,
  "timestamp": 1439288316,
  "nonce": "0xdec9474d16281b24",
  "difficulty": 2006470006215,
  "gasLimit": {
    "_hex": "0x2fefd8"
  },
  "gasUsed": {
    "_hex": "0x8d61e"
  },
  "miner": "0x8B454d830feF179e66206840F8F3D1d83bC32b17",
  "extraData": "0x476574682f76312e302e312f77696e646f77732f676f312e342e32",
  "transactions": [
    {
      "hash": "0x47caddc0f078d3617477215e2c2e90b27558628d340827169355c890fa75d03a",
      "blockHash": "0xa7a6588599c82e120330145754361f044770b5364142d95622192aac80424656",
      "blockNumber": 68460,
      "transactionIndex": 0,
      "confirmations": null,
      "from": "0xbB7735934F8229F1fc2e76F7AfD82e14AA1e8E81",
      "gasPrice": {
        "_hex": "0xde255a202"
      },
      "gasLimit": {
        "_hex": "0x61a80"
      },
      "to": "0x5Fe5B7546D1628f7348B023A0393de1FC825A4fD",
      "value": {
        "_hex": "0xde0b6b3a7640000"
      },
      "nonce": 4,
      "data": "0xb595b8b50000000000000000000000000000000000000000000000000000000000000000",
      "r": "0x623a4af60ede47e297837b40211d134f2da5e3b8693ecba3caf4e8052799c365",
      "s": "0x53ae74f941f815e4e5389552179591ceb3867730948ba7c933a222bc21b06f8a",
      "v": 28,
      "creates": null,
      "raw": "0xf89104850de255a20283061a80945fe5b7546d1628f7348b023a0393de1fc825a4fd880de0b6b3a7640000a4b595b8b500000000000000000000000000000000000000000000000000000000000000001ca0623a4af60ede47e297837b40211d134f2da5e3b8693ecba3caf4e8052799c365a053ae74f941f815e4e5389552179591ceb3867730948ba7c933a222bc21b06f8a",
      "networkId": 0,
      "chainId": 0
    },
    {
      "hash": "0x0e8989021d87f32f0654dea75f35acb36a8bb61dca26c2ff6e5d2e1df530fe85",
      "blockHash": "0xa7a6588599c82e120330145754361f044770b5364142d95622192aac80424656",
      "blockNumber": 68460,
      "transactionIndex": 1,
      "confirmations": null,
      "from": "0x17580B766f7453525ca4C6A88b01b50570EA088C",
      "gasPrice": {
        "_hex": "0xcc058596f"
      },
      "gasLimit": {
        "_hex": "0x61a80"
      },
      "to": "0x5Fe5B7546D1628f7348B023A0393de1FC825A4fD",
      "value": {
        "_hex": "0xde0b6b3a7640000"
      },
      "nonce": 28,
      "data": "0xb595b8b50000000000000000000000000000000000000000000000000000000000000000",
      "r": "0x15b1c57a75b30053ecf66fe647bf47694c6e19a08e3b7be49b59ebb365620e45",
      "s": "0x3ba49f91c1091a5ece63989491b1798efd5a88e3f4e4e9c7950dbebf24a70d28",
      "v": 27,
      "creates": null,
      "raw": "0xf8911c850cc058596f83061a80945fe5b7546d1628f7348b023a0393de1fc825a4fd880de0b6b3a7640000a4b595b8b500000000000000000000000000000000000000000000000000000000000000001ba015b1c57a75b30053ecf66fe647bf47694c6e19a08e3b7be49b59ebb365620e45a03ba49f91c1091a5ece63989491b1798efd5a88e3f4e4e9c7950dbebf24a70d28",
      "networkId": 0,
      "chainId": 0
    },
    {
      "hash": "0x5a73dece5d9fc60e28ec7923a18d68023a60036482b94a0d23123c5185c57345",
      "blockHash": "0xa7a6588599c82e120330145754361f044770b5364142d95622192aac80424656",
      "blockNumber": 68460,
      "transactionIndex": 2,
      "confirmations": null,
      "from": "0x0262F5278EF73732f29581dDC4DdDb2d38B4A7DB",
      "gasPrice": {
        "_hex": "0xba43b7400"
      },
      "gasLimit": {
        "_hex": "0x5208"
      },
      "to": "0x044587E884b7a69fd290c6D3b2A02300722e5e71",
      "value": {
        "_hex": "0xf0088de8d15000"
      },
      "nonce": 1,
      "data": "0x",
      "r": "0x0070b9363a24c6716ed4a2d58496d4aacd6fb633539e6e828c922e25809e44a0",
      "s": "0x70ff8bf95a5a694f934ba886ca13b2bc13d786190126e8b1739f36c1bb28c72e",
      "v": 28,
      "creates": null,
      "raw": "0xf86a01850ba43b740082520894044587e884b7a69fd290c6d3b2a02300722e5e7187f0088de8d15000801c9f70b9363a24c6716ed4a2d58496d4aacd6fb633539e6e828c922e25809e44a0a070ff8bf95a5a694f934ba886ca13b2bc13d786190126e8b1739f36c1bb28c72e",
      "networkId": 0,
      "chainId": 0
    },
    {
      "hash": "0x0f597eed19a08c5b49e377c2279502d597f2713c9e3a4b0c8c40e4d3b2ed3b81",
      "blockHash": "0xa7a6588599c82e120330145754361f044770b5364142d95622192aac80424656",
      "blockNumber": 68460,
      "transactionIndex": 3,
      "confirmations": null,
      "from": "0xC3503F7f741d3B86df21806de90050b7a0c15d6D",
      "gasPrice": {
        "_hex": "0xba43b7400"
      },
      "gasLimit": {
        "_hex": "0x5208"
      },
      "to": "0x6Cf36bd229547D4B9b6Ef909d3dC89372D627949",
      "value": {
        "_hex": "0xf0088de8d15000"
      },
      "nonce": 1,
      "data": "0x",
      "r": "0x4dce699046e691b81a96ecfe1cb6e7bd59a49d6606170c06f8e673d6ff86df73",
      "s": "0x5a80943c249bf9148c75c4e9c74f1fdfc2dc267396d374cd0ef22a812751f56d",
      "v": 28,
      "creates": null,
      "raw": "0xf86b01850ba43b7400825208946cf36bd229547d4b9b6ef909d3dc89372d62794987f0088de8d15000801ca04dce699046e691b81a96ecfe1cb6e7bd59a49d6606170c06f8e673d6ff86df73a05a80943c249bf9148c75c4e9c74f1fdfc2dc267396d374cd0ef22a812751f56d",
      "networkId": 0,
      "chainId": 0
    },
    {
      "hash": "0xbb5e0437abb3648a61504821da8fbae3400388a328d587270972cd15e607ffc8",
      "blockHash": "0xa7a6588599c82e120330145754361f044770b5364142d95622192aac80424656",
      "blockNumber": 68460,
      "transactionIndex": 4,
      "confirmations": null,
      "from": "0xb164F2639f3CA9f1212cdf4E2D717451658455f3",
      "gasPrice": {
        "_hex": "0xba43b7400"
      },
      "gasLimit": {
        "_hex": "0x5208"
      },
      "to": "0x40605Ae06CC87caf1B20B3f2853419DF2aB46b01",
      "value": {
        "_hex": "0xf0088de8d15000"
      },
      "nonce": 1,
      "data": "0x",
      "r": "0xae8c4892c97024e72411d7a2c04317c2ad2e57e2af0d337f52fb82b67ebb7885",
      "s": "0x6d544ab0cdedf99d0c01e5d7ba8b43b4703531dba8dece99179d1abab466447e",
      "v": 27,
      "creates": null,
      "raw": "0xf86b01850ba43b74008252089440605ae06cc87caf1b20b3f2853419df2ab46b0187f0088de8d15000801ba0ae8c4892c97024e72411d7a2c04317c2ad2e57e2af0d337f52fb82b67ebb7885a06d544ab0cdedf99d0c01e5d7ba8b43b4703531dba8dece99179d1abab466447e",
      "networkId": 0,
      "chainId": 0
    },
    {
      "hash": "0xb0a633a0e7818d66d7c7c9662a589c57b51690c72e203f36c064f85429b0552c",
      "blockHash": "0xa7a6588599c82e120330145754361f044770b5364142d95622192aac80424656",
      "blockNumber": 68460,
      "transactionIndex": 5,
      "confirmations": null,
      "from": "0xbC6284349e527B59AB4921FBD85952c81aff8c53",
      "gasPrice": {
        "_hex": "0xba43b7400"
      },
      "gasLimit": {
        "_hex": "0x5208"
      },
      "to": "0x597ACEfcFd3c7312E13c71DecDa89Bb455Ff567F",
      "value": {
        "_hex": "0xf0088de8d15000"
      },
      "nonce": 1,
      "data": "0x",
      "r": "0x639761ee367784209b51ce7fcc4202eeb06e7a6801211effc37dd126827b9671",
      "s": "0x3b1220f358ec73f0428d3d82063f972fa658ede5dba0fabe6a6e341543945b90",
      "v": 28,
      "creates": null,
      "raw": "0xf86b01850ba43b740082520894597acefcfd3c7312e13c71decda89bb455ff567f87f0088de8d15000801ca0639761ee367784209b51ce7fcc4202eeb06e7a6801211effc37dd126827b9671a03b1220f358ec73f0428d3d82063f972fa658ede5dba0fabe6a6e341543945b90",
      "networkId": 0,
      "chainId": 0
    },
    {
      "hash": "0xe231e34fee6a71e45efd554e79a87263f19da2d9d5a9450712d3aed93657b102",
      "blockHash": "0xa7a6588599c82e120330145754361f044770b5364142d95622192aac80424656",
      "blockNumber": 68460,
      "transactionIndex": 6,
      "confirmations": null,
      "from": "0x1BB642153E58868541e62d4027BbefcE5F44e409",
      "gasPrice": {
        "_hex": "0xba43b7400"
      },
      "gasLimit": {
        "_hex": "0x5208"
      },
      "to": "0x2F5554940C5A32e3D7D6FADd03F5ACb58B69Ed2C",
      "value": {
        "_hex": "0xf0088de8d15000"
      },
      "nonce": 1,
      "data": "0x",
      "r": "0x71cc9a0acced35d49720e2d244808e6037b697936ffc6f48ffdbbed6f78fdccb",
      "s": "0x075fa4d7cb1b581b6f7825b4c74cce3e937bba4452ba72bcd5b5ec03041c920f",
      "v": 27,
      "creates": null,
      "raw": "0xf86b01850ba43b7400825208942f5554940c5a32e3d7d6fadd03f5acb58b69ed2c87f0088de8d15000801ba071cc9a0acced35d49720e2d244808e6037b697936ffc6f48ffdbbed6f78fdccba0075fa4d7cb1b581b6f7825b4c74cce3e937bba4452ba72bcd5b5ec03041c920f",
      "networkId": 0,
      "chainId": 0
    },
    {
      "hash": "0x095608cd4c92153bb3b9584c5b1430f91933b4d105f02f965b7884bf287d1681",
      "blockHash": "0xa7a6588599c82e120330145754361f044770b5364142d95622192aac80424656",
      "blockNumber": 68460,
      "transactionIndex": 7,
      "confirmations": null,
      "from": "0xfb4eCf3998CF7E071cE12E469B1Ce3Df4c3d57Ee",
      "gasPrice": {
        "_hex": "0xba43b7400"
      },
      "gasLimit": {
        "_hex": "0x5208"
      },
      "to": "0x6Ce7d33d76744b134F79E9F02DA6D66691900558",
      "value": {
        "_hex": "0xf0088de8d15000"
      },
      "nonce": 1,
      "data": "0x",
      "r": "0xf554755362c150a40eb7aa672e20ad70309374675f9cf1c582214c1469c0675a",
      "s": "0x4ed3a305c9beb6df88976311686e224107e796ae872656593399a46a83c4d6ae",
      "v": 27,
      "creates": null,
      "raw": "0xf86b01850ba43b7400825208946ce7d33d76744b134f79e9f02da6d6669190055887f0088de8d15000801ba0f554755362c150a40eb7aa672e20ad70309374675f9cf1c582214c1469c0675aa04ed3a305c9beb6df88976311686e224107e796ae872656593399a46a83c4d6ae",
      "networkId": 0,
      "chainId": 0
    },
    {
      "hash": "0xa1d11fd1533b434170e8310be62597d2e3fbf985dc8d59600bfce7bdc3288015",
      "blockHash": "0xa7a6588599c82e120330145754361f044770b5364142d95622192aac80424656",
      "blockNumber": 68460,
      "transactionIndex": 8,
      "confirmations": null,
      "from": "0xd4734B436fF64EEd5A07a71bC9253a4468B63779",
      "gasPrice": {
        "_hex": "0xba43b7400"
      },
      "gasLimit": {
        "_hex": "0x5208"
      },
      "to": "0x6DCC57CeaaE257993183A0cDF0a914b44953cD64",
      "value": {
        "_hex": "0xf0088de8d15000"
      },
      "nonce": 1,
      "data": "0x",
      "r": "0xcf2f7c6fccb8505efcc108d3e49413a49540f30ba53eee0e3ad1a6a7a4a10895",
      "s": "0x5e47551e5c439aad17ed618cfaeafdda987aae93cd291708342ad5fb50475589",
      "v": 28,
      "creates": null,
      "raw": "0xf86b01850ba43b7400825208946dcc57ceaae257993183a0cdf0a914b44953cd6487f0088de8d15000801ca0cf2f7c6fccb8505efcc108d3e49413a49540f30ba53eee0e3ad1a6a7a4a10895a05e47551e5c439aad17ed618cfaeafdda987aae93cd291708342ad5fb50475589",
      "networkId": 0,
      "chainId": 0
    },
    {
      "hash": "0x60e1fd23250926c8e5d3830f75122c3ba229e799286a800fe7ac2eb7a0de50fd",
      "blockHash": "0xa7a6588599c82e120330145754361f044770b5364142d95622192aac80424656",
      "blockNumber": 68460,
      "transactionIndex": 9,
      "confirmations": null,
      "from": "0xF9eDbAD57E98D698FF0f8E269ee51525C43b7839",
      "gasPrice": {
        "_hex": "0xba43b7400"
      },
      "gasLimit": {
        "_hex": "0x5208"
      },
      "to": "0xd411060F5e174F26Cb820Cdbef5278D18bcA80cb",
      "value": {
        "_hex": "0xf0088de8d15000"
      },
      "nonce": 1,
      "data": "0x",
      "r": "0x8ceaf9d1733c4eb0080cf020606554bf321e80420b9916b77e09268467759d84",
      "s": "0x7614ae1169a116c14692659f19fb85f614308b7a1127103fc38627054578b82e",
      "v": 28,
      "creates": null,
      "raw": "0xf86b01850ba43b740082520894d411060f5e174f26cb820cdbef5278d18bca80cb87f0088de8d15000801ca08ceaf9d1733c4eb0080cf020606554bf321e80420b9916b77e09268467759d84a07614ae1169a116c14692659f19fb85f614308b7a1127103fc38627054578b82e",
      "networkId": 0,
      "chainId": 0
    },
    {
      "hash": "0x76c3d83253a96d18c7dd25fc38ac337894312473e5832ad4fce86f3d3554f8f4",
      "blockHash": "0xa7a6588599c82e120330145754361f044770b5364142d95622192aac80424656",
      "blockNumber": 68460,
      "transactionIndex": 10,
      "confirmations": null,
      "from": "0xe16DDddc4ab60Ebf30F1545B215f45C3deEA8d45",
      "gasPrice": {
        "_hex": "0xba43b7400"
      },
      "gasLimit": {
        "_hex": "0x5208"
      },
      "to": "0x4235b34689100F8bc999713b837A3F7C1388D516",
      "value": {
        "_hex": "0xf0088de8d15000"
      },
      "nonce": 1,
      "data": "0x",
      "r": "0xb04da2c3915403fe71e87778679979acd830a02986c65c8d29c57bdaac2c62e8",
      "s": "0x35f42fcd2730cb21b0905e5c204fbdac87e800df13eae960c215fd814e86a820",
      "v": 27,
      "creates": null,
      "raw": "0xf86b01850ba43b7400825208944235b34689100f8bc999713b837a3f7c1388d51687f0088de8d15000801ba0b04da2c3915403fe71e87778679979acd830a02986c65c8d29c57bdaac2c62e8a035f42fcd2730cb21b0905e5c204fbdac87e800df13eae960c215fd814e86a820",
      "networkId": 0,
      "chainId": 0
    },
    {
      "hash": "0xbf42b6068077e2cd539228ebee222e20da2a7dc9f4aca313897295ca96ee6434",
      "blockHash": "0xa7a6588599c82e120330145754361f044770b5364142d95622192aac80424656",
      "blockNumber": 68460,
      "transactionIndex": 11,
      "confirmations": null,
      "from": "0x1D5282F3268F55e424Ec8088E19C20fEd8a6BA8f",
      "gasPrice": {
        "_hex": "0xba43b7400"
      },
      "gasLimit": {
        "_hex": "0x5208"
      },
      "to": "0xeaa52F5F994335967cf47c65557c7a4cAeE9eeaD",
      "value": {
        "_hex": "0xf0088de8d15000"
      },
      "nonce": 1,
      "data": "0x",
      "r": "0x13d8ab908aac910e444ac9e8d9bf6d822eb309fbc198878b73c623cd43296e16",
      "s": "0x7d826e7a2d8c2be6e06d871d1ed4ae25dee8c33458576ab7a5bad567be27a7dc",
      "v": 27,
      "creates": null,
      "raw": "0xf86b01850ba43b740082520894eaa52f5f994335967cf47c65557c7a4caee9eead87f0088de8d15000801ba013d8ab908aac910e444ac9e8d9bf6d822eb309fbc198878b73c623cd43296e16a07d826e7a2d8c2be6e06d871d1ed4ae25dee8c33458576ab7a5bad567be27a7dc",
      "networkId": 0,
      "chainId": 0
    },
    {
      "hash": "0x1fb77520d8c3b0188e5a084489ddd694350e9a87e460abdcc19791dda86bc04f",
      "blockHash": "0xa7a6588599c82e120330145754361f044770b5364142d95622192aac80424656",
      "blockNumber": 68460,
      "transactionIndex": 12,
      "confirmations": null,
      "from": "0x2209C5577bfeACbcb06e110a3A3467b8D41cCb06",
      "gasPrice": {
        "_hex": "0xba43b7400"
      },
      "gasLimit": {
        "_hex": "0x5208"
      },
      "to": "0x5A998c77896F80aE4F5c4De031af0483465A5EA2",
      "value": {
        "_hex": "0xf0088de8d15000"
      },
      "nonce": 1,
      "data": "0x",
      "r": "0xf6c4197268fcb2dc068d3909552e2fc04e6142074f8dbc0ff1221d9208f46b21",
      "s": "0x33762d6383ebe2cd569f400bbf13ec64f428e07c35561bdb3719f6d07e1f91f8",
      "v": 27,
      "creates": null,
      "raw": "0xf86b01850ba43b7400825208945a998c77896f80ae4f5c4de031af0483465a5ea287f0088de8d15000801ba0f6c4197268fcb2dc068d3909552e2fc04e6142074f8dbc0ff1221d9208f46b21a033762d6383ebe2cd569f400bbf13ec64f428e07c35561bdb3719f6d07e1f91f8",
      "networkId": 0,
      "chainId": 0
    },
    {
      "hash": "0x83bb1e0a764f267665c558e73e7ab2aa28ba10cc708d32b512047b42fe89ffb0",
      "blockHash": "0xa7a6588599c82e120330145754361f044770b5364142d95622192aac80424656",
      "blockNumber": 68460,
      "transactionIndex": 13,
      "confirmations": null,
      "from": "0x28241F789C933E6A10Da044a3C7fdC5E049e9404",
      "gasPrice": {
        "_hex": "0xba43b7400"
      },
      "gasLimit": {
        "_hex": "0x5208"
      },
      "to": "0x3ec54e6E9E29CaE43563681bd0ed7b0A941fAa5a",
      "value": {
        "_hex": "0xf0088de8d15000"
      },
      "nonce": 1,
      "data": "0x",
      "r": "0x21890dde31f3f596fe2bd2469f8d88e44059b53e8435462b51b6001c09d65e12",
      "s": "0x03440e64aae8d354bbf60992fb25875d09967d622ba9051116df9cc4c715934b",
      "v": 27,
      "creates": null,
      "raw": "0xf86b01850ba43b7400825208943ec54e6e9e29cae43563681bd0ed7b0a941faa5a87f0088de8d15000801ba021890dde31f3f596fe2bd2469f8d88e44059b53e8435462b51b6001c09d65e12a003440e64aae8d354bbf60992fb25875d09967d622ba9051116df9cc4c715934b",
      "networkId": 0,
      "chainId": 0
    },
    {
      "hash": "0x3ff89dcdc360693c12e05e6dc6f656d373ec97724fe398c8ecd9c9883ff669de",
      "blockHash": "0xa7a6588599c82e120330145754361f044770b5364142d95622192aac80424656",
      "blockNumber": 68460,
      "transactionIndex": 14,
      "confirmations": null,
      "from": "0xBE593EE9Bc163045dc78B44031D652ffA0861290",
      "gasPrice": {
        "_hex": "0xba43b7400"
      },
      "gasLimit": {
        "_hex": "0x5208"
      },
      "to": "0xFe6C45D9BB291F60872C266eE96546a9FfcA2E0d",
      "value": {
        "_hex": "0xf0088de8d15000"
      },
      "nonce": 1,
      "data": "0x",
      "r": "0x214e66973d784cd89a6d32bf9db6301c507ddb0f76594fcf5dd34e0e7e53016b",
      "s": "0x6fb0951e84e94c64c9811599364514bd38a2c8a9546c15c5ecde740570887bd1",
      "v": 27,
      "creates": null,
      "raw": "0xf86b01850ba43b740082520894fe6c45d9bb291f60872c266ee96546a9ffca2e0d87f0088de8d15000801ba0214e66973d784cd89a6d32bf9db6301c507ddb0f76594fcf5dd34e0e7e53016ba06fb0951e84e94c64c9811599364514bd38a2c8a9546c15c5ecde740570887bd1",
      "networkId": 0,
      "chainId": 0
    },
    {
      "hash": "0x19a00d1a889e9b1997f9a8855f780407f573cd345e8ba1bdd35ddda53b4f7254",
      "blockHash": "0xa7a6588599c82e120330145754361f044770b5364142d95622192aac80424656",
      "blockNumber": 68460,
      "transactionIndex": 15,
      "confirmations": null,
      "from": "0xbf6b18A58F285D6d0B956174B0dADcacB1345a45",
      "gasPrice": {
        "_hex": "0xba43b7400"
      },
      "gasLimit": {
        "_hex": "0x5208"
      },
      "to": "0x8Ff51eBcD212Bb1fb70235281526B41AB4313fC7",
      "value": {
        "_hex": "0xf0088de8d15000"
      },
      "nonce": 1,
      "data": "0x",
      "r": "0x88e873d8d80b60be31638dc5594f91d9a9c003c6d5125d6e1f51a9adb0b7d438",
      "s": "0x31831b31fe7e838fdba49d2dd313be27d26ac4841e873ed4179c98b12c36b93f",
      "v": 28,
      "creates": null,
      "raw": "0xf86b01850ba43b7400825208948ff51ebcd212bb1fb70235281526b41ab4313fc787f0088de8d15000801ca088e873d8d80b60be31638dc5594f91d9a9c003c6d5125d6e1f51a9adb0b7d438a031831b31fe7e838fdba49d2dd313be27d26ac4841e873ed4179c98b12c36b93f",
      "networkId": 0,
      "chainId": 0
    },
    {
      "hash": "0x1f619219149d36e431cea20e3d29af77b61232c7efcc0835e55b422ac65a1d41",
      "blockHash": "0xa7a6588599c82e120330145754361f044770b5364142d95622192aac80424656",
      "blockNumber": 68460,
      "transactionIndex": 16,
      "confirmations": null,
      "from": "0x369248D0a81F8Cf05305190043e08D9C225b0D6D",
      "gasPrice": {
        "_hex": "0xba43b7400"
      },
      "gasLimit": {
        "_hex": "0x5208"
      },
      "to": "0x1CD45B6506902B47216C78485bFfcA0B2e1Aa853",
      "value": {
        "_hex": "0xf0088de8d15000"
      },
      "nonce": 1,
      "data": "0x",
      "r": "0x70b47599c6096e8fa241d20634ad6904cbf87195b789de88da287c17f7fc62db",
      "s": "0x5b94ac65972859ad7e47d712de5f9ebc3abf1f1be00246be180fd12f2ca22054",
      "v": 28,
      "creates": null,
      "raw": "0xf86b01850ba43b7400825208941cd45b6506902b47216c78485bffca0b2e1aa85387f0088de8d15000801ca070b47599c6096e8fa241d20634ad6904cbf87195b789de88da287c17f7fc62dba05b94ac65972859ad7e47d712de5f9ebc3abf1f1be00246be180fd12f2ca22054",
      "networkId": 0,
      "chainId": 0
    },
    {
      "hash": "0x49d8d720ad7fa63c7f8fd4100d5dda9afe0314bd2935741be0824686bb755f34",
      "blockHash": "0xa7a6588599c82e120330145754361f044770b5364142d95622192aac80424656",
      "blockNumber": 68460,
      "transactionIndex": 17,
      "confirmations": null,
      "from": "0x036775981dAa8a56FB5a7baEA7Fe473583811dC1",
      "gasPrice": {
        "_hex": "0xba43b7400"
      },
      "gasLimit": {
        "_hex": "0x5208"
      },
      "to": "0x323a38236e563283D22866AcD4aFE5CFD8bab56E",
      "value": {
        "_hex": "0xf0088de8d15000"
      },
      "nonce": 1,
      "data": "0x",
      "r": "0x572864ce0aa68cc39bfb6fc3734829ea3efe2b430390e11f655dd2d27f52c6bb",
      "s": "0x27baca158d465466a47410a0470e42f3b27904058af323c939e0fd3132ee6427",
      "v": 27,
      "creates": null,
      "raw": "0xf86b01850ba43b740082520894323a38236e563283d22866acd4afe5cfd8bab56e87f0088de8d15000801ba0572864ce0aa68cc39bfb6fc3734829ea3efe2b430390e11f655dd2d27f52c6bba027baca158d465466a47410a0470e42f3b27904058af323c939e0fd3132ee6427",
      "networkId": 0,
      "chainId": 0
    },
    {
      "hash": "0x65b71465af2c627f384d2109c196936544982b2120b91ab31bd38a4fc237d5c8",
      "blockHash": "0xa7a6588599c82e120330145754361f044770b5364142d95622192aac80424656",
      "blockNumber": 68460,
      "transactionIndex": 18,
      "confirmations": null,
      "from": "0xcb94e5346D58e6f89a5bE97DBb7B5a6c0975e36f",
      "gasPrice": {
        "_hex": "0xba43b7400"
      },
      "gasLimit": {
        "_hex": "0x5208"
      },
      "to": "0xE6D3fA2B63535F76A4B7d280B3027099509FCD41",
      "value": {
        "_hex": "0xf0088de8d15000"
      },
      "nonce": 1,
      "data": "0x",
      "r": "0x26a40ab0551e8a9756900fbd161c5fecea95c88e1005f0cc7974cf481c326d6b",
      "s": "0x59bffeb8abc697fa72b8af7eaf328137d5f45ea90842a237a98569adf5f5e2d5",
      "v": 27,
      "creates": null,
      "raw": "0xf86b01850ba43b740082520894e6d3fa2b63535f76a4b7d280b3027099509fcd4187f0088de8d15000801ba026a40ab0551e8a9756900fbd161c5fecea95c88e1005f0cc7974cf481c326d6ba059bffeb8abc697fa72b8af7eaf328137d5f45ea90842a237a98569adf5f5e2d5",
      "networkId": 0,
      "chainId": 0
    },
    {
      "hash": "0xcbdb4eb043422ab1bdb8ed352b3e070921662ad76fa106adc1d750b092c32c05",
      "blockHash": "0xa7a6588599c82e120330145754361f044770b5364142d95622192aac80424656",
      "blockNumber": 68460,
      "transactionIndex": 19,
      "confirmations": null,
      "from": "0x72bFF5a9dDB17C75aAb6997B0cacF2D751b95F69",
      "gasPrice": {
        "_hex": "0xba43b7400"
      },
      "gasLimit": {
        "_hex": "0x5208"
      },
      "to": "0xF04842b2B7e246B4b3A95AE411175183DE614E07",
      "value": {
        "_hex": "0xf0088de8d15000"
      },
      "nonce": 1,
      "data": "0x",
      "r": "0xe441ddc62f947ef55b96e8d49fd712ffc811dd12928365a8160af30523009073",
      "s": "0x2bf4155186c8f1bcf8711347466563b0f2ff970f2869e448498b1c29f31ad9e1",
      "v": 27,
      "creates": null,
      "raw": "0xf86b01850ba43b740082520894f04842b2b7e246b4b3a95ae411175183de614e0787f0088de8d15000801ba0e441ddc62f947ef55b96e8d49fd712ffc811dd12928365a8160af30523009073a02bf4155186c8f1bcf8711347466563b0f2ff970f2869e448498b1c29f31ad9e1",
      "networkId": 0,
      "chainId": 0
    },
    {
      "hash": "0xef17a0ea0ea755ea3b5d42da06bfdde5bca1ade7acc7823307e7609ca927efe2",
      "blockHash": "0xa7a6588599c82e120330145754361f044770b5364142d95622192aac80424656",
      "blockNumber": 68460,
      "transactionIndex": 20,
      "confirmations": null,
      "from": "0x8e112dA551CD42CA3Aac8925BB7b8c39886C6f91",
      "gasPrice": {
        "_hex": "0xba43b7400"
      },
      "gasLimit": {
        "_hex": "0x5208"
      },
      "to": "0xEc7De4c307B9515D705b01c5E3E7E335731ec352",
      "value": {
        "_hex": "0xf0088de8d15000"
      },
      "nonce": 1,
      "data": "0x",
      "r": "0x20e0f43cdf88d9fa951dd5bf670883ba34b6ae00130b3996382d415aa7360e65",
      "s": "0x255c7af67391d71c120878b41087e1862dfa70c5a196cdbd2fae883e0c0f9284",
      "v": 28,
      "creates": null,
      "raw": "0xf86b01850ba43b740082520894ec7de4c307b9515d705b01c5e3e7e335731ec35287f0088de8d15000801ca020e0f43cdf88d9fa951dd5bf670883ba34b6ae00130b3996382d415aa7360e65a0255c7af67391d71c120878b41087e1862dfa70c5a196cdbd2fae883e0c0f9284",
      "networkId": 0,
      "chainId": 0
    },
    {
      "hash": "0x030a114c1979989652c48406181b68f27967635ce41964e526445da78cbb1311",
      "blockHash": "0xa7a6588599c82e120330145754361f044770b5364142d95622192aac80424656",
      "blockNumber": 68460,
      "transactionIndex": 21,
      "confirmations": null,
      "from": "0xD30096049c863634213F2d54E30D816D1a2B5cB0",
      "gasPrice": {
        "_hex": "0xba43b7400"
      },
      "gasLimit": {
        "_hex": "0x5208"
      },
      "to": "0xb889D0EF34bFBCAA6821CB8Bb4078efeCD82F7fE",
      "value": {
        "_hex": "0xf0088de8d15000"
      },
      "nonce": 1,
      "data": "0x",
      "r": "0xdc0ef085e678dd4baab1a8e6e02ac5a239a0a1df1fa682de3e67088ddfe7e230",
      "s": "0x4b9d31eebf66b10f40df0486f56fadd156ef24deda0a01a5cdba2907198fd026",
      "v": 27,
      "creates": null,
      "raw": "0xf86b01850ba43b740082520894b889d0ef34bfbcaa6821cb8bb4078efecd82f7fe87f0088de8d15000801ba0dc0ef085e678dd4baab1a8e6e02ac5a239a0a1df1fa682de3e67088ddfe7e230a04b9d31eebf66b10f40df0486f56fadd156ef24deda0a01a5cdba2907198fd026",
      "networkId": 0,
      "chainId": 0
    },
    {
      "hash": "0x21b95bb9235c4513da85720682206e149976a96ef4164927d3860102478c6609",
      "blockHash": "0xa7a6588599c82e120330145754361f044770b5364142d95622192aac80424656",
      "blockNumber": 68460,
      "transactionIndex": 22,
      "confirmations": null,
      "from": "0x182878E11b52daa7E077408652260B186de74Bde",
      "gasPrice": {
        "_hex": "0xba43b7400"
      },
      "gasLimit": {
        "_hex": "0x5208"
      },
      "to": "0xc015c2717AB8De3200Ab632f15a13e22fa09e435",
      "value": {
        "_hex": "0xf0088de8d15000"
      },
      "nonce": 1,
      "data": "0x",
      "r": "0x6b7174fe6c846fc3ed0cda4b6855c1d33cc13d70e082d8e862258501aa8b759f",
      "s": "0x43388e48f227bdbd74cd1201f4f6974afe0ef433dc79062c6b5ea7b1140de654",
      "v": 27,
      "creates": null,
      "raw": "0xf86b01850ba43b740082520894c015c2717ab8de3200ab632f15a13e22fa09e43587f0088de8d15000801ba06b7174fe6c846fc3ed0cda4b6855c1d33cc13d70e082d8e862258501aa8b759fa043388e48f227bdbd74cd1201f4f6974afe0ef433dc79062c6b5ea7b1140de654",
      "networkId": 0,
      "chainId": 0
    },
    {
      "hash": "0x63d1d72a83e1a276ef6a5363f663e9404fadc2d5f0951fd6aaa8baed4656f16b",
      "blockHash": "0xa7a6588599c82e120330145754361f044770b5364142d95622192aac80424656",
      "blockNumber": 68460,
      "transactionIndex": 23,
      "confirmations": null,
      "from": "0xa8316dD9FBD2aC9B415252836B1Bf1E64a3f7A6e",
      "gasPrice": {
        "_hex": "0xba43b7400"
      },
      "gasLimit": {
        "_hex": "0x5208"
      },
      "to": "0xD1C992E2a46C7Fc1e1AFC1333ab19a319A4B64dB",
      "value": {
        "_hex": "0xf0088de8d15000"
      },
      "nonce": 1,
      "data": "0x",
      "r": "0xea8daee4ea5afb7ade7dd82dd1e4b262341c11d7629ff3d4446a5019ee907348",
      "s": "0x3cadf8c13aeb946b6a35b4092316da80e5c04e647fdc3005330a6837f110ee5c",
      "v": 27,
      "creates": null,
      "raw": "0xf86b01850ba43b740082520894d1c992e2a46c7fc1e1afc1333ab19a319a4b64db87f0088de8d15000801ba0ea8daee4ea5afb7ade7dd82dd1e4b262341c11d7629ff3d4446a5019ee907348a03cadf8c13aeb946b6a35b4092316da80e5c04e647fdc3005330a6837f110ee5c",
      "networkId": 0,
      "chainId": 0
    },
    {
      "hash": "0xe310dde4735aa6ab90d69910aacdce77ad399db3f94a5b4bba93fa01df353a08",
      "blockHash": "0xa7a6588599c82e120330145754361f044770b5364142d95622192aac80424656",
      "blockNumber": 68460,
      "transactionIndex": 24,
      "confirmations": null,
      "from": "0xd268fB48FA174088a25a120aFF0fd8eb0C2d4c87",
      "gasPrice": {
        "_hex": "0xb40fadc03"
      },
      "gasLimit": {
        "_hex": "0x1f328"
      },
      "to": "0xeDf619865C8303E591Ad2c4B373AAe82997B337a",
      "value": {
        "_hex": "0x3782dace9d900000"
      },
      "nonce": 1,
      "data": "0x",
      "r": "0xa5da39be0c4bcf439b35882153b86ca8dc26be57772aa6b5c17b978a308da28e",
      "s": "0x7dcf1628b6b78f703583e3701b1a94889241815ad3e2a4cb8ac8d3b1f48f6cfc",
      "v": 27,
      "creates": null,
      "raw": "0xf86d01850b40fadc038301f32894edf619865c8303e591ad2c4b373aae82997b337a883782dace9d900000801ba0a5da39be0c4bcf439b35882153b86ca8dc26be57772aa6b5c17b978a308da28ea07dcf1628b6b78f703583e3701b1a94889241815ad3e2a4cb8ac8d3b1f48f6cfc",
      "networkId": 0,
      "chainId": 0
    }
  ]
}