{
  "hash": "0xf8a20ecc86481e8c98a99502a43ca7be36e6b9b444f1df341d3d4df4737551fd",
  "parentHash": "0xdc6ab79e17d1e595c8831d7a52773ffdab0cacffd5f036a1ffb0453537af8698",
  "number": 80041,
  "timestamp": 1439479200,
  "nonce": "0x6e11914fbb0cb073",
  "difficulty": 2352881961263,
  "gasLimit": {
    "_hex": "0x2fefd8"
  },
  "gasUsed": {
    "_hex": "0x5208"
  },
  "miner": "0xe090Ffdced499691fA9379752a59F8A058c1eE4A",
  "extraData": "0x476574682f76312e302e312f6c696e75782f676f312e342e32",
  "transactions": [
    {
      "hash": "0x2b21ead5390670aafb6025ca76f219d6f7ef12e1b0c08bfd1cd9d397973e819c",
      "blockHash": "0xf8a20ecc86481e8c98a99502a43ca7be36e6b9b444f1df341d3d4df4737551fd",
      "blockNumber": 80041,
      "transactionIndex": 0,
      "confirmations": null,
      "from": "0xF78645Ea06d743C6B52a11EB3f3d486bbb4Cf01F",
      "gasPrice": {
        "_hex": "0x10b405c4766"
      },
      "gasLimit": {
        "_hex": "0x15f90"
      },
      "to": "0x6A8CC233E14F874983bB2F37D1DE706f6910Ef0b",
      "value": {
        "_hex": "0x5b12aefafa8040000"
      },
      "nonce": 4,
      "data": "0x",
      "r": "0x10638144cde0abc0a89d7186e6887f4b4e919c33833529b18b60ada6f86e5abd",
      "s": "0x6e74fac1144b33cddc13ef05ee39256c4a47da95a8474c81396a162619c5757d",
      "v": 28,
      "creates": null,
      "raw": "0xf86f0486010b405c476683015f90946a8cc233e14f874983bb2f37d1de706f6910ef0b8905b12aefafa8040000801ca010638144cde0abc0a89d7186e6887f4b4e919c33833529b18b60ada6f86e5abda06e74fac1144b33cddc13ef05ee39256c4a47da95a8474c81396a162619c5757d",
      "networkId": 0,
      "chainId": 0
    }
  ]
}