{
  "hash": "0x40e61d50e4b142da08bd9b7ae2374db1629f3cd17b2e4bdf77bb821ea75d6aa6",
  "parentHash": "0x7c24b9fdb121bab78f8ce0e6d12b9792883a66251cf41a0466f171c197e802e0",
  "number": 47664,
  "timestamp": 1438944382,
  "nonce": "0x668a6f8553b90711",
  "difficulty": 1448793314501,
  "gasLimit": {
    "_hex": "0xdfe7"
  },
  "gasUsed": {
    "_hex": "0x5208"
  },
  "miner": "0x82efFBAaaf28614E55b2BA440FB198E0e5789B0f",
  "extraData": "0x476574682f44616e6b486173682f76312e302e312f77696e646f77732f676f31",
  "transactions": [
    {
      "hash": "0x6c5ecb07f531337bdb61208fbaae5c54d0096c4f28061c4cc0ebfa7ff783c619",
      "blockHash": "0x40e61d50e4b142da08bd9b7ae2374db1629f3cd17b2e4bdf77bb821ea75d6aa6",
      "blockNumber": 47664,
      "transactionIndex": 0,
      "confirmations": null,
      "from": "0xe6A7a1d47ff21B6321162AEA7C6CB457D5476Bca",
      "gasPrice": {
        "_hex": "0xcf10f99a1"
      },
      "gasLimit": {
        "_hex": "0x55f0"
      },
      "to": "0x66BE410479472f811a66312c3DB7825de83b3129",
      "value": {
        "_hex": "0x213214a3fd354838"
      },
      "nonce": 186,
      "data": "0x",
      "r": "0xa3d200db7a1d4aa3cf29ce1691a9fa4f6d6c40b70a4fed480c66eb423948a45e",
      "s": "0x29445f5414a2f6f83982904028531ad3b72ce632274e78f77b90fe58ce7777c0",
      "v": 27,
      "creates": null,
      "raw": "0xf86d81ba850cf10f99a18255f09466be410479472f811a66312c3db7825de83b312988213214a3fd354838801ba0a3d200db7a1d4aa3cf29ce1691a9fa4f6d6c40b70a4fed480c66eb423948a45ea029445f5414a2f6f83982904028531ad3b72ce632274e78f77b90fe58ce7777c0",
      "networkId": 0,
      "chainId": 0
    }
  ]
}