{
  "hash": "0xec39a5e0c2734ff976ef6c86db100d65c9c9a785c87328aa4a762bbd11d617e9",
  "parentHash": "0xb08c0b0d8028a8dd3a4f66961ba7024c9dd433c26e81c78f5e1d1b22ac40972c",
  "number": 51323,
  "timestamp": 1439002955,
  "nonce": "0x0cc47cd6f4ce6250",
  "difficulty": 1571197081951,
  "gasLimit": {
    "_hex": "0xa3e6a"
  },
  "gasUsed": {
    "_hex": "0xddfd"
  },
  "miner": "0xe6A7a1d47ff21B6321162AEA7C6CB457D5476Bca",
  "extraData": "0x657468706f6f6c2e6f7267",
  "transactions": [
    {
      "hash": "0x0600aad5281ff4652a09aaf1811b4cab74444c0ca2229b629dc3499a23687b6a",
      "blockHash": "0xec39a5e0c2734ff976ef6c86db100d65c9c9a785c87328aa4a762bbd11d617e9",
      "blockNumber": 51323,
      "transactionIndex": 0,
      "confirmations": null,
      "from": "0xD9E6086071980fE3484b6BaABA07A10b47B046A6",
      "gasPrice": {
        "_hex": "0x11746d0a01d"
      },
      "gasLimit": {
        "_hex": "0x7a120"
      },
      "to": "0xA327075af2a223A1C83a36aDa1126afE7430f955",
      "value": {
        "_hex": "0x8ac7230489e80000"
      },
      "nonce": 2,
      "data": "0x",
      "r": "0x77a72126231941d6d09e763a6354fa661eecc0e4cf0bdb23ce1600d48f3831f0",
      "s": "0x545f65597226b5d03d0554b4e13e3e97bb840d893c6eba4d9d2058be56fce0a7",
      "v": 27,
      "creates": null,
      "raw": "0xf86e0286011746d0a01d8307a12094a327075af2a223a1c83a36ada1126afe7430f955888ac7230489e80000801ba077a72126231941d6d09e763a6354fa661eecc0e4cf0bdb23ce1600d48f3831f0a0545f65597226b5d03d0554b4e13e3e97bb840d893c6eba4d9d2058be56fce0a7",
      "networkId": 0,
      "chainId": 0
    }
  ]
}