{
  "hash": "0x487f3fa4a75af0c39d66865bc9752200efed6231d269299b7523493f3aef6c1f",
  "parentHash": "0x5a522d241d1ede16d1f0c336b6c68fea2a0db0b03ca0dc9e305a55697b775890",
  "number": 81129,
  "timestamp": 1439496652,
  "nonce": "0x033c29fca7357740",
  "difficulty": 2439136440684,
  "gasLimit": {
    "_hex": "0x2fefd8"
  },
  "gasUsed": {
    "_hex": "0xa410"
  },
  "miner": "0xC603Ab5ef41fC61AA8b76bEddb09e3Cfcbb174BD",
  "extraData": "0x476574682f76312e302e312f77696e646f77732f676f312e342e32",
  "transactions": [
    {
      "hash": "0x02a46baeb44940202297dcef0a282620ee817d48b96a3573b66d049852b725f5",
      "blockHash": "0x487f3fa4a75af0c39d66865bc9752200efed6231d269299b7523493f3aef6c1f",
      "blockNumber": 81129,
      "transactionIndex": 0,
      "confirmations": null,
      "from": "0x2910543Af39abA0Cd09dBb2D50200b3E800A63D2",
      "gasPrice": {
        "_hex": "0xd0a6490f4"
      },
      "gasLimit": {
        "_hex": "0x5208"
      },
      "to": "0x3B4AF94C39e87281410A3B5Cf880b4a647459363",
      "value": {
        "_hex": "0x3635b7ea4ca6bf8000"
      },
      "nonce": 441,
      "data": "0x",
      "r": "0x7b4ad277e596d54a8de9e5fb5e5a3000b516a275d3a5df17cd7640f0b425a0a2",
      "s": "0x7f15a67b5aa950235229555cb5bcab200e6d3b1f841eca0dc8fc5173f85d97e0",
      "v": 28,
      "creates": null,
      "raw": "0xf86f8201b9850d0a6490f4825208943b4af94c39e87281410a3b5cf880b4a647459363893635b7ea4ca6bf8000801ca07b4ad277e596d54a8de9e5fb5e5a3000b516a275d3a5df17cd7640f0b425a0a2a07f15a67b5aa950235229555cb5bcab200e6d3b1f841eca0dc8fc5173f85d97e0",
      "networkId": 0,
      "chainId": 0
    },
    {
      "hash": "0xd21ea54d933d2c2880455609b99beba95b9972c165a87fd9ba9b09640425f638",
      "blockHash": "0x487f3fa4a75af0c39d66865bc9752200efed6231d269299b7523493f3aef6c1f",
      "blockNumber": 81129,
      "transactionIndex": 1,
      "confirmations": null,
      "from": "0x2910543Af39abA0Cd09dBb2D50200b3E800A63D2",
      "gasPrice": {
        "_hex": "0xd0a6490f4"
      },
      "gasLimit": {
        "_hex": "0x5208"
      },
      "to": "0xC40EBC923f794eED9039b84471e77821CaC1faFe",
      "value": {
        "_hex": "0x7ce550194f05f8000"
      },
      "nonce": 442,
      "data": "0x",
      "r": "0xc1451255d378a987a1081586cdc813a74e121306b17d9fa0a6bd77596bd71901",
      "s": "0x7258995269791c256075aca3751618adcaaa41c4c3d4d0c9f6890b906f64b2d7",
      "v": 27,
      "creates": null,
      "raw": "0xf86f8201ba850d0a6490f482520894c40ebc923f794eed9039b84471e77821cac1fafe8907ce550194f05f8000801ba0c1451255d378a987a1081586cdc813a74e121306b17d9fa0a6bd77596bd71901a07258995269791c256075aca3751618adcaaa41c4c3d4d0c9f6890b906f64b2d7",
      "networkId": 0,
      "chainId": 0
    }
  ]
}