{
  "hash": "0x08454ae0d75e82eaa7ebf6b914ecc691e8d629f94eab25b039cc812c4429d6ed",
  "parentHash": "0x49be011feb239edcb55e50d863c7694628666e8f666ef42f33a1efb7ef7801be",
  "number": 100850,
  "timestamp": 1439813367,
  "nonce": "0xec74e008a502ab7c",
  "difficulty": 3848907193892,
  "gasLimit": {
    "_hex": "0x2fefd8"
  },
  "gasUsed": {
    "_hex": "0x5208"
  },
  "miner": "0xe6A7a1d47ff21B6321162AEA7C6CB457D5476Bca",
  "extraData": "0x476574682f76312e302e312d38326566323666362f6c696e75782f676f312e34",
  "transactions": [
    {
      "hash": "0x9f8aaaa59f9b43ff3d356de61c76570ff584c11ef247e92b02f9fd8fb9999639",
      "blockHash": "0x08454ae0d75e82eaa7ebf6b914ecc691e8d629f94eab25b039cc812c4429d6ed",
      "blockNumber": 100850,
      "transactionIndex": 0,
      "confirmations": null,
      "from": "0x94b20d3d932AA82aD71b86b904A3D769689351b4",
      "gasPrice": {
        "_hex": "0xd9062b82a"
      },
      "gasLimit": {
        "_hex": "0x5208"
      },
      "to": "0x32Be343B94f860124dC4fEe278FDCBD38C102D88",
      "value": {
        "_hex": "0x15e98caa2baa9d000"
      },
      "nonce": 5,
      "data": "0x",
      "r": "0x1e8563f28ff7c7247560bcee1b5d21dc3e7da33c1d2f170dd30ee7a4ea349a3c",
      "s": "0x71942bbdb30bbf5e042f888c26d9f336937b4200000d9c5236662179e8361f73",
      "v": 28,
      "creates": null,
      "raw": "0xf86d05850d9062b82a8252089432be343b94f860124dc4fee278fdcbd38c102d8889015e98caa2baa9d000801ca01e8563f28ff7c7247560bcee1b5d21dc3e7da33c1d2f170dd30ee7a4ea349a3ca071942bbdb30bbf5e042f888c26d9f336937b4200000d9c5236662179e8361f73",
      "networkId": 0,
      "chainId": 0
    }
  ]
}