{
  "hash": "0x3ffbb968107fca6052ff609b6a8478ae9b915a88a3a8f406600aab793cf54d20",
  "parentHash": "0xc5f56dfc80b2ae51fcdc3f585f9b5ee5870ed28af34240dc7033fced51fb2034",
  "number": 100013,
  "timestamp": 1439799342,
  "nonce": "0xaf8b8913abb18374",
  "difficulty": 3851171245884,
  "gasLimit": {
    "_hex": "0x2fefd8"
  },
  "gasUsed": {
    "_hex": "0x19a28"
  },
  "miner": "0x007f7f58D3eb5b7510A301eCC749FC1fCDDBE14D",
  "extraData": "0x476574682f76312e302e312f77696e646f77732f676f312e342e32",
  "transactions": [
    {
      "hash": "0x8fa0e30071b54b10d4d80328a388ca1d2ec4e4ee65ed855bd510684bfd66b1ee",
      "blockHash": "0x3ffbb968107fca6052ff609b6a8478ae9b915a88a3a8f406600aab793cf54d20",
      "blockNumber": 100013,
      "transactionIndex": 0,
      "confirmations": null,
      "from": "0xAD8c7FBFaBC46C35aDb03F7b3A67e731E5793899",
      "gasPrice": {
        "_hex": "0xdbc48b1f0"
      },
      "gasLimit": {
        "_hex": "0x5208"
      },
      "to": "0x32Be343B94f860124dC4fEe278FDCBD38C102D88",
      "value": {
        "_hex": "0x5881fb2fc9bd6400"
      },
      "nonce": 8,
      "data": "0x",
      "r": "0x87469c17f387ae21f54e077ceb6e74dd29f6b4bf095912c9878d6d56c31e8a22",
      "s": "0x1bd082f8533609fe7dcbaaeedef22e51cb9eca4dbcd884413abb34afbc92c534",
      "v": 28,
      "creates": null,
      "raw": "0xf86c08850dbc48b1f08252089432be343b94f860124dc4fee278fdcbd38c102d88885881fb2fc9bd6400801ca087469c17f387ae21f54e077ceb6e74dd29f6b4bf095912c9878d6d56c31e8a22a01bd082f8533609fe7dcbaaeedef22e51cb9eca4dbcd884413abb34afbc92c534",
      "networkId": 0,
      "chainId": 0
    },
    {
      "hash": "0x1ee5027f1375b89836dfdf732acc25e80313397b4e67d698f7cd1d394954aa90",
      "blockHash": "0x3ffbb968107fca6052ff609b6a8478ae9b915a88a3a8f406600aab793cf54d20",
      "blockNumber": 100013,
      "transactionIndex": 1,
      "confirmations": null,
      "from": "0x1333a55102f1f4B3df95298b6CE863eF8d5BAf45",
      "gasPrice": {
        "_hex": "0xdbc48b1f0"
      },
      "gasLimit": {
        "_hex": "0x5208"
      },
      "to": "0x32Be343B94f860124dC4fEe278FDCBD38C102D88",
      "value": {
        "_hex": "0x423b78f41e026800"
      },
      "nonce": 10,
      "data": "0x",
      "r": "0xbf345183663de0d2141afc8b95d90996b0c38e8ba71bbc3b2ff834ebaa0e9f06",
      "s": "0x3163d0450c8d707f1eb46b1cd78933d6dc941ce8ec5eec16a10aee659b846a9b",
      "v": 28,
      "creates": null,
      "raw": "0xf86c0a850dbc48b1f08252089432be343b94f860124dc4fee278fdcbd38c102d8888423b78f41e026800801ca0bf345183663de0d2141afc8b95d90996b0c38e8ba71bbc3b2ff834ebaa0e9f06a03163d0450c8d707f1eb46b1cd78933d6dc941ce8ec5eec16a10aee659b846a9b",
      "networkId": 0,
      "chainId": 0
    },
    {
      "hash": "0x568b771dcedd42f44678e1ea7113ef61f0b7db1763ba85bba6747406e69e5cd2",
      "blockHash": "0x3ffbb968107fca6052ff609b6a8478ae9b915a88a3a8f406600aab793cf54d20",
      "blockNumber": 100013,
      "transactionIndex": 2,
      "confirmations": null,
      "from": "0xC99478b218E58F45783fA70f0507cf614938E67d",
      "gasPrice": {
        "_hex": "0xd7d40ace3"
      },
      "gasLimit": {
        "_hex": "0x15f90"
      },
      "to": "0xC3fe64D1af00F0d9c324E4387EF7533f7D788e95",
      "value": {
        "_hex": "0x19ef22395402e0000"
      },
      "nonce": 18,
      "data": "0x",
      "r": "0x0c95fd9ebf94708e8ede93a1a298246174e2c8b36b4442fd182283370c53da97",
      "s": "0x3da2c0e1839f516e0797acdc79bbb4a71e41ea8c2040d864ab1da9a451d3a6f0",
      "v": 27,
      "creates": null,
      "raw": "0xf86e12850d7d40ace383015f9094c3fe64d1af00f0d9c324e4387ef7533f7d788e9589019ef22395402e0000801ba00c95fd9ebf94708e8ede93a1a298246174e2c8b36b4442fd182283370c53da97a03da2c0e1839f516e0797acdc79bbb4a71e41ea8c2040d864ab1da9a451d3a6f0",
      "networkId": 0,
      "chainId": 0
    },
    {
      "hash": "0x954841ba4c80c876ee525ed60f350c4f800914da38470ebc62b5effb50f2d46b",
      "blockHash": "0x3ffbb968107fca6052ff609b6a8478ae9b915a88a3a8f406600aab793cf54d20",
      "blockNumber": 100013,
      "transactionIndex": 3,
      "confirmations": null,
      "from": "0x7884D470204862a0d1A21122F41ee77430396Ee5",
      "gasPrice": {
        "_hex": "0xd22e9f42f"
      },
      "gasLimit": {
        "_hex": "0x15f90"
      },
      "to": "0x3C224111361D244282eB3d906011eDD2598C95A6",
      "value": {
        "_hex": "0xb1a2bc2ec50000"
      },
      "nonce": 43,
      "data": "0x",
      "r": "0xe9d24cf1b6fdbf676d767394dbe13fbb9e5e76b8c0c7879a0fef72466b9e3e90",
      "s": "0x56813651533c092cf02ad95ecb03665bcffd8496a1982e143e84bfb76003a001",
      "v": 27,
      "creates": null,
      "raw": "0xf86c2b850d22e9f42f83015f90943c224111361d244282eb3d906011edd2598c95a687b1a2bc2ec50000801ba0e9d24cf1b6fdbf676d767394dbe13fbb9e5e76b8c0c7879a0fef72466b9e3e90a056813651533c092cf02ad95ecb03665bcffd8496a1982e143e84bfb76003a001",
      "networkId": 0,
      "chainId": 0
    },
    {
      "hash": "0x870cc7d27296419c9cf8f02a4c4c9a5dc7513a5d82c698d5026873d70fb0cc9d",
      "blockHash": "0x3ffbb968107fca6052ff609b6a8478ae9b915a88a3a8f406600aab793cf54d20",
      "blockNumber": 100013,
      "transactionIndex": 4,
      "confirmations": null,
      "from": "0xcf00A85f3826941e7A25BFcF9Aac575d40410852",
      "gasPrice": {
        "_hex": "0xcb5bea614"
      },
      "gasLimit": {
        "_hex": "0x15f90"
      },
      "to": "0xD9666150A9dA92d9108198a4072970805a8B3428",
      "value": {
        "_hex": "0x4563918244f40000"
      },
      "nonce": 26,
      "data": "0x",
      "r": "0xabf5727952e36e3f364237398b4e2af910dcc6e3c5ba84c6dbe1143223021b48",
      "s": "0x3d0ee86a353d7f480b1406b920c79251c393d30fb3fe573a01ff2ac7d63f8435",
      "v": 28,
      "creates": null,
      "raw": "0xf86d1a850cb5bea61483015f9094d9666150a9da92d9108198a4072970805a8b3428884563918244f40000801ca0abf5727952e36e3f364237398b4e2af910dcc6e3c5ba84c6dbe1143223021b48a03d0ee86a353d7f480b1406b920c79251c393d30fb3fe573a01ff2ac7d63f8435",
      "networkId": 0,
      "chainId": 0
    }
  ]
}