{
  "hash": "0x75b98f2b0573bb83d4d0464c1b4d82797d960677a0eee942b991eac71d24940c",
  "parentHash": "0xe6b7aec52c7691108d1bb3886a3ea4744ca8dc973667d46b2592e51266316e9e",
  "number": 105577,
  "timestamp": 1439889781,
  "nonce": "0x18ad5c59ea3a97d9",
  "difficulty": 4425408053702,
  "gasLimit": {
    "_hex": "0x2fefd8"
  },
  "gasUsed": {
    "_hex": "0xa410"
  },
  "miner": "0x7E6930B63D03e88F5928C5cd6ee3FCee4D714F7F",
  "extraData": "0x",
  "transactions": [
    {
      "hash": "0x41fc07b5ae7919307056491c4549df5ed00fc2bbab728b3c5e57214602f6a984",
      "blockHash": "0x75b98f2b0573bb83d4d0464c1b4d82797d960677a0eee942b991eac71d24940c",
      "blockNumber": 105577,
      "transactionIndex": 0,
      "confirmations": null,
      "from": "0x31a73304345eE7d1Ef958026AF26E3FEF4Db2F20",
      "gasPrice": {
        "_hex": "0xde62596f3"
      },
      "gasLimit": {
        "_hex": "0x5208"
      },
      "to": "0x32Be343B94f860124dC4fEe278FDCBD38C102D88",
      "value": {
        "_hex": "0x3326eb68ee556c00000"
      },
      "nonce": 1,
      "data": "0x",
      "r": "0xdaae59b72df5f8e0091746a20e7b138151a5a7de7e8b8abc9d30d1b362cc9284",
      "s": "0x2de107a6e957ec613242bc29ef62271420c00dd7dad3bc86a2d9cee5b1d822b0",
      "v": 27,
      "creates": null,
      "raw": "0xf86e01850de62596f38252089432be343b94f860124dc4fee278fdcbd38c102d888a03326eb68ee556c00000801ba0daae59b72df5f8e0091746a20e7b138151a5a7de7e8b8abc9d30d1b362cc9284a02de107a6e957ec613242bc29ef62271420c00dd7dad3bc86a2d9cee5b1d822b0",
      "networkId": 0,
      "chainId": 0
    },
    {
      "hash": "0x30d6b049797ce98ed853e86fd26b4850ca874b915a9c4aa05f3c9096c4271776",
      "blockHash": "0x75b98f2b0573bb83d4d0464c1b4d82797d960677a0eee942b991eac71d24940c",
      "blockNumber": 105577,
      "transactionIndex": 1,
      "confirmations": null,
      "from": "0x412a68f6C645559cC977Fc4964047a201d1bb0e2",
      "gasPrice": {
        "_hex": "0xd2b8ea583"
      },
      "gasLimit": {
        "_hex": "0x15f90"
      },
      "to": "0x6faA8C878ccDd5533A99dEd90684e71eB20a0A1A",
      "value": {
        "_hex": "0xde0b6b3a7640000"
      },
      "nonce": 0,
      "data": "0x",
      "r": "0x5f90a2fc7ae55b8d60880f4c19f459fe5de00a08883529cc3aa28eb57502164f",
      "s": "0x22056d7c481a12c1475703ada22d44c37160b8d17fffd48c1afb13f8866a1a0d",
      "v": 28,
      "creates": null,
      "raw": "0xf86d80850d2b8ea58383015f90946faa8c878ccdd5533a99ded90684e71eb20a0a1a880de0b6b3a7640000801ca05f90a2fc7ae55b8d60880f4c19f459fe5de00a08883529cc3aa28eb57502164fa022056d7c481a12c1475703ada22d44c37160b8d17fffd48c1afb13f8866a1a0d",
      "networkId": 0,
      "chainId": 0
    }
  ]
}