{
  "hash": "0xdffb87c24a71a727bd1cd25d465b5d0dac3aa6fd6e34d92e6d794a4da1da0b6f",
  "parentHash": "0x5639de6bd1228665a13720bc9a4fa33edb12d201f0addb9ac79927282467ab24",
  "number": 85003,
  "timestamp": 1439557211,
  "nonce": "0x5c1a5cb3903d0a4b",
  "difficulty": 2722454364388,
  "gasLimit": {
    "_hex": "0x2fefd8"
  },
  "gasUsed": {
    "_hex": "0x5208"
  },
  "miner": "0x580992B51e3925e23280EfB93d3047C82f17E038",
  "extraData": "0x476574682f76312e302e312f6c696e75782f676f312e342e32",
  "transactions": [
    {
      "hash": "0xb00452077423da45399e824a7ac9d60737f2e12b4a89dd503e38474cc4eda950",
      "blockHash": "0xdffb87c24a71a727bd1cd25d465b5d0dac3aa6fd6e34d92e6d794a4da1da0b6f",
      "blockNumber": 85003,
      "transactionIndex": 0,
      "confirmations": null,
      "from": "0xEa63C59e990047BF874D6A47900521D711460B79",
      "gasPrice": {
        "_hex": "0xba43b7400"
      },
      "gasLimit": {
        "_hex": "0x5208"
      },
      "to": "0xC47Aaa860008be6f65B58c6C6E02a84e666EfE31",
      "value": {
        "_hex": "0x340a717230e6c6000"
      },
      "nonce": 3,
      "data": "0x",
      "r": "0x7ced669b2f2442eac58ec6041b5731a0dbf4df7065db14ffc874f038c6994f27",
      "s": "0x7393851e1d651306105b1b769d5e3d93ca417fbed5a5be8939cfc7c4e353f13b",
      "v": 27,
      "creates": null,
      "raw": "0xf86d03850ba43b740082520894c47aaa860008be6f65b58c6c6e02a84e666efe31890340a717230e6c6000801ba07ced669b2f2442eac58ec6041b5731a0dbf4df7065db14ffc874f038c6994f27a07393851e1d651306105b1b769d5e3d93ca417fbed5a5be8939cfc7c4e353f13b",
      "networkId": 0,
      "chainId": 0
    }
  ]
}