{
  "hash": "0xe05bd0ff7f2a26bb346c71304e80ef420908b54feccf02ed28a507623f369f12",
  "parentHash": "0xd79d2bc44d2c8c4947a827cf02c32fb4a59385e0d99a52544f658522d6aacc6e",
  "number": 113149,
  "timestamp": 1440018553,
  "nonce": "0x20edaec8a68fd78d",
  "difficulty": 4504219057496,
  "gasLimit": {
    "_hex": "0x2fefd8"
  },
  "gasUsed": {
    "_hex": "0xf618"
  },
  "miner": "0xe6A7a1d47ff21B6321162AEA7C6CB457D5476Bca",
  "extraData": "0x476574682f76312e302e312d38326566323666362f6c696e75782f676f312e34",
  "transactions": [
    {
      "hash": "0x921ae0ea948d5f718d567122c6325dc920c6d8f08450fbac890675994c3d744f",
      "blockHash": "0xe05bd0ff7f2a26bb346c71304e80ef420908b54feccf02ed28a507623f369f12",
      "blockNumber": 113149,
      "transactionIndex": 0,
      "confirmations": null,
      "from": "0x6204c5A7CD96C7C9D5ae62283ed7039A0f55B3c5",
      "gasPrice": {
        "_hex": "0xba43b7400"
      },
      "gasLimit": {
        "_hex": "0x15f90"
      },
      "to": "0xc597A5d92F5dC1137D847db733cfe02c6d209f13",
      "value": {
        "_hex": "0x6e946a8748d07400"
      },
      "nonce": 0,
      "data": "0x",
      "r": "0x4f9fef4c82919c8f9603f042763569379937b7c221d326d5fb5df2d81add98f6",
      "s": "0x57991188f1501a8e3b4c097f370e9e9153715ce4d16928cdda4263014239efad",
      "v": 27,
      "creates": null,
      "raw": "0xf86d80850ba43b740083015f9094c597a5d92f5dc1137d847db733cfe02c6d209f13886e946a8748d07400801ba04f9fef4c82919c8f9603f042763569379937b7c221d326d5fb5df2d81add98f6a057991188f1501a8e3b4c097f370e9e9153715ce4d16928cdda4263014239efad",
      "networkId": 0,
      "chainId": 0
    },
    {
      "hash": "0x33dc35c4a7d31643a14071f84a82dac3a9f6917b64078c7d961d676e649d2eff",
      "blockHash": "0xe05bd0ff7f2a26bb346c71304e80ef420908b54feccf02ed28a507623f369f12",
      "blockNumber": 113149,
      "transactionIndex": 1,
      "confirmations": null,
      "from": "0x2EC7156FA1f0c71eF974E72183465084ccF5A3b7",
      "gasPrice": {
        "_hex": "0xba43b7400"
      },
      "gasLimit": {
        "_hex": "0x15f90"
      },
      "to": "0xc597A5d92F5dC1137D847db733cfe02c6d209f13",
      "value": {
        "_hex": "0x34b9e7c4ce54e4788"
      },
      "nonce": 0,
      "data": "0x",
      "r": "0x94c7aa86c70fb1a6f53ed09bc1dceef9073a2e29d6f5e63e2d0c0ee09671620a",
      "s": "0x656f1abe6eab436b649ffdafc80ff52372d443d09e4b37db51a69ce8be654700",
      "v": 28,
      "creates": null,
      "raw": "0xf86e80850ba43b740083015f9094c597a5d92f5dc1137d847db733cfe02c6d209f1389034b9e7c4ce54e4788801ca094c7aa86c70fb1a6f53ed09bc1dceef9073a2e29d6f5e63e2d0c0ee09671620aa0656f1abe6eab436b649ffdafc80ff52372d443d09e4b37db51a69ce8be654700",
      "networkId": 0,
      "chainId": 0
    },
    {
      "hash": "0x2097908a31ec9d09ed3dbc2a2eaca2225a9a4cf39bfd1ab0f09c97d1123ea2e4",
      "blockHash": "0xe05bd0ff7f2a26bb346c71304e80ef420908b54feccf02ed28a507623f369f12",
      "blockNumber": 113149,
      "transactionIndex": 2,
      "confirmations": null,
      "from": "0xef272Ba5EDbf617601a050C7836c0DE5396cD8Bf",
      "gasPrice": {
        "_hex": "0xba43b7400"
      },
      "gasLimit": {
        "_hex": "0x15f90"
      },
      "to": "0xc597A5d92F5dC1137D847db733cfe02c6d209f13",
      "value": {
        "_hex": "0xd8d40ae8474cd0000"
      },
      "nonce": 0,
      "data": "0x",
      "r": "0x6a7b9460a7b0aea0c5e0f1ee32f1894705460ac7c84a17bc236b162c67f45bce",
      "s": "0x3f36c4271b6b2748e8d29e9b33c7adc316ed0495eec71ebfef720f89e5c3a005",
      "v": 27,
      "creates": null,
      "raw": "0xf86e80850ba43b740083015f9094c597a5d92f5dc1137d847db733cfe02c6d209f13890d8d40ae8474cd0000801ba06a7b9460a7b0aea0c5e0f1ee32f1894705460ac7c84a17bc236b162c67f45bcea03f36c4271b6b2748e8d29e9b33c7adc316ed0495eec71ebfef720f89e5c3a005",
      "networkId": 0,
      "chainId": 0
    }
  ]
}