{
  "hash": "0x83f8ec5f13c6880a455b044ba88c3bc0f7767d6c9107bb2f4a6a8f47c8de5cdb",
  "parentHash": "0xd2bfb6cd90ccd4deac6a0f737eb9ff11cb8ac902b4f57144020860d3072de19a",
  "number": 52630,
  "timestamp": 1439024716,
  "nonce": "0xe513a592106c3c00",
  "difficulty": 1568652783000,
  "gasLimit": {
    "_hex": "0x169bdb"
  },
  "gasUsed": {
    "_hex": "0xf96ac"
  },
  "miner": "0xF2d2AfF1320476cb8C6b607199D23175cc595693",
  "extraData": "0x476574682f76312e302e312f77696e646f77732f676f312e342e32",
  "transactions": [
    {
      "hash": "0xb8c2f56bb78ba9dfbd9bccdeb65c25d4aba4cc26c10873f7014d854004e7dad3",
      "blockHash": "0x83f8ec5f13c6880a455b044ba88c3bc0f7767d6c9107bb2f4a6a8f47c8de5cdb",
      "blockNumber": 52630,
      "transactionIndex": 0,
      "confirmations": null,
      "from": "0x54dAeb3E8a6BBC797E4aD2b0339f134b186e4637",
      "gasPrice": {
        "_hex": "0xd8bd64e50"
      },
      "gasLimit": {
        "_hex": "0x7a120"
      },
      "to": "0xBAA54d6E90c3F4d7Ebec11bD180134C7eD8eBb52",
      "value": {
        "_hex": "0x16345785d8a0000"
      },
      "nonce": 819,
      "data": "0x",
      "r": "0xf9508209627342f0961459d5f9ee7da9e5bda30ddc54e086c2186fb6ff820cb3",
      "s": "0x5dd3c08063c2a6867f0ffa38d941dbab2266c0d5f08a51be5b214d696f3d94c5",
      "v": 27,
      "creates": null,
      "raw": "0xf86f820333850d8bd64e508307a12094baa54d6e90c3f4d7ebec11bd180134c7ed8ebb5288016345785d8a0000801ba0f9508209627342f0961459d5f9ee7da9e5bda30ddc54e086c2186fb6ff820cb3a05dd3c08063c2a6867f0ffa38d941dbab2266c0d5f08a51be5b214d696f3d94c5",
      "networkId": 0,
      "chainId": 0
    },
    {
      "hash": "0xd9a7b5d3b26206cd480145a84dd755fda889ca1feaf8403ccbd1c373c96f39c5",
      "blockHash": "0x83f8ec5f13c6880a455b044ba88c3bc0f7767d6c9107bb2f4a6a8f47c8de5cdb",
      "blockNumber": 52630,
      "transactionIndex": 1,
      "confirmations": null,
      "from": "0x54dAeb3E8a6BBC797E4aD2b0339f134b186e4637",
      "gasPrice": {
        "_hex": "0xe1780dfbb"
      },
      "gasLimit": {
        "_hex": "0x7a120"
      },
      "to": "0xBAA54d6E90c3F4d7Ebec11bD180134C7eD8eBb52",
      "value": {
        "_hex": "0x16345785d8a0000"
      },
      "nonce": 820,
      "data": "0x",
      "r": "0xf9f074274906149243fbd023d8d2dc5f2c0951ca9b9af9cb9b6fa5ae8c3fa196",
      "s": "0x20ac46c92ecb9f34f1bad38f1b0634a0caeddea3f70311e803cc2d019b0b448c",
      "v": 27,
      "creates": null,
      "raw": "0xf86f820334850e1780dfbb8307a12094baa54d6e90c3f4d7ebec11bd180134c7ed8ebb5288016345785d8a0000801ba0f9f074274906149243fbd023d8d2dc5f2c0951ca9b9af9cb9b6fa5ae8c3fa196a020ac46c92ecb9f34f1bad38f1b0634a0caeddea3f70311e803cc2d019b0b448c",
      "networkId": 0,
      "chainId": 0
    },
    {
      "hash": "0xcf10d7c61b0c7838f3cdd2bc00b92e7f72518d977ef05e2daaaeae12917ff445",
      "blockHash": "0x83f8ec5f13c6880a455b044ba88c3bc0f7767d6c9107bb2f4a6a8f47c8de5cdb",
      "blockNumber": 52630,
      "transactionIndex": 2,
      "confirmations": null,
      "from": "0x523e93ed2d488b01E5a425F3A8d1cFcfEbD8B064",
      "gasPrice": {
        "_hex": "0xd8364fc25"
      },
      "gasLimit": {
        "_hex": "0x15f90"
      },
      "to": "0x2910543Af39abA0Cd09dBb2D50200b3E800A63D2",
      "value": {
        "_hex": "0xd02ab486cedc0000"
      },
      "nonce": 1,
      "data": "0x454e32305a39394830",
      "r": "0x3163363040d09ab4512df932dddd990f74a1ef9b22e6d37724e9be0661eb0099",
      "s": "0x50f01e4cc908a939a42b270fd226364149d5e48fbd3a45d4192fa638e92c49a4",
      "v": 28,
      "creates": null,
      "raw": "0xf87601850d8364fc2583015f90942910543af39aba0cd09dbb2d50200b3e800a63d288d02ab486cedc000089454e32305a393948301ca03163363040d09ab4512df932dddd990f74a1ef9b22e6d37724e9be0661eb0099a050f01e4cc908a939a42b270fd226364149d5e48fbd3a45d4192fa638e92c49a4",
      "networkId": 0,
      "chainId": 0
    }
  ]
}