{
  "hash": "0x0d3d8fcb6c7d4d95a2cef7f9cd9e34d12be9a6a3e313d33c8d626b881673c053",
  "parentHash": "0xf688c40a08e449de67422a5cbf69bd211057dcb0a8fc38a247e7b30fb838130f",
  "number": 92905,
  "timestamp": 1439679084,
  "nonce": "0x37acc00c3fefb76d",
  "difficulty": 3649306527727,
  "gasLimit": {
    "_hex": "0x2fefd8"
  },
  "gasUsed": {
    "_hex": "0x5208"
  },
  "miner": "0xfC25864D8326b4CB335C6942218e5F4Ee8D1E1EF",
  "extraData": "0x476574682f76312e302e312f77696e646f77732f676f312e342e32",
  "transactions": [
    {
      "hash": "0x6b42a1fbb368d041a741681bb17d3a732f356176bdef711ed49574269f2a004f",
      "blockHash": "0x0d3d8fcb6c7d4d95a2cef7f9cd9e34d12be9a6a3e313d33c8d626b881673c053",
      "blockNumber": 92905,
      "transactionIndex": 0,
      "confirmations": null,
      "from": "0x32Be343B94f860124dC4fEe278FDCBD38C102D88",
      "gasPrice": {
        "_hex": "0xdcad31c6e"
      },
      "gasLimit": {
        "_hex": "0x5208"
      },
      "to": "0x1f1f1f6FAA77a31e6c9aeF1eF25A6F6819177EEB",
      "value": {
        "_hex": "0x1043329395b96f0000"
      },
      "nonce": 906,
      "data": "0x",
      "r": "0xf6bf7edcc14aa4661d20b368a63a0137fd058631a67a5df054e5228639d03ee1",
      "s": "0x632face7dc88a12d45bad14c4a97e1cb361b2277edab72e96777db9c020689be",
      "v": 28,
      "creates": null,
      "raw": "0xf86f82038a850dcad31c6e825208941f1f1f6faa77a31e6c9aef1ef25a6f6819177eeb891043329395b96f0000801ca0f6bf7edcc14aa4661d20b368a63a0137fd058631a67a5df054e5228639d03ee1a0632face7dc88a12d45bad14c4a97e1cb361b2277edab72e96777db9c020689be",
      "networkId": 0,
      "chainId": 0
    }
  ]
}