{
  "hash": "0x957dbac71744de1d9588e7c8e8ef3c3a97c5b1439f11ebe58fa9e12fd52a0d8a",
  "parentHash": "0xb7d77727a266697260de05f910954734b970917a154c2fdedde91325dd735ca6",
  "number": 56446,
  "timestamp": 1439087446,
  "nonce": "0x5e74cfe6d2635655",
  "difficulty": 1656074019286,
  "gasLimit": {
    "_hex": "0x2fefd8"
  },
  "gasUsed": {
    "_hex": "0x6ef4"
  },
  "miner": "0xf927a40C8B7F6E07c5af7FA2155B4864a4112B13",
  "extraData": "0x476574682f76312e302e312f6c696e75782f676f312e342e32",
  "transactions": [
    {
      "hash": "0x1b342d474a403617f149340d9e55823df974fe01a83f67a5ed82bc22ae9ceb5f",
      "blockHash": "0x957dbac71744de1d9588e7c8e8ef3c3a97c5b1439f11ebe58fa9e12fd52a0d8a",
      "blockNumber": 56446,
      "transactionIndex": 0,
      "confirmations": null,
      "from": "0xA1eEc0a9b7C50B8e79A0D9B8760bC5681fb199EC",
      "gasPrice": {
        "_hex": "0xe04c0027f"
      },
      "gasLimit": {
        "_hex": "0x15f90"
      },
      "to": "0xABFF46330bc70e19673b280d2F77F6BbB485F029",
      "value": {
        "_hex": "0x0"
      },
      "nonce": 12,
      "data": "0xa52c101e0000000000000000000000000000000000000000000000000000000000000064",
      "r": "0x10dd29c54af24ec32bd770d1035d28165186cf2ae5a1437634cb4da99e5fd3b4",
      "s": "0x36281b713e9685ebf1d59dbb5e788037dcd60d90bd3b3090927acfce56bd44e8",
      "v": 27,
      "creates": null,
      "raw": "0xf8890c850e04c0027f83015f9094abff46330bc70e19673b280d2f77f6bbb485f02980a4a52c101e00000000000000000000000000000000000000000000000000000000000000641ba010dd29c54af24ec32bd770d1035d28165186cf2ae5a1437634cb4da99e5fd3b4a036281b713e9685ebf1d59dbb5e788037dcd60d90bd3b3090927acfce56bd44e8",
      "networkId": 0,
      "chainId": 0
    }
  ]
}