{
  "hash": "0x1c124562f0e73c546c043ae8c220fd066131215cdc5b921c4532cc4afeaa781f",
  "parentHash": "0xd7dc61d1efa1d78b60ad75f48dd0f2562c651e3ec71e5812fcf9ab5eaec2fa7c",
  "number": 65326,
  "timestamp": 1439234936,
  "nonce": "0xe6e763cfdbc736bd",
  "difficulty": 1947364898032,
  "gasLimit": {
    "_hex": "0x2fefd8"
  },
  "gasUsed": {
    "_hex": "0x2234c"
  },
  "miner": "0xe6A7a1d47ff21B6321162AEA7C6CB457D5476Bca",
  "extraData": "0x476574682f76312e302e312f6c696e75782f676f312e342e32",
  "transactions": [
    {
      "hash": "0xf5cb6cb2067cd7ccfdba83552956576b9c260cb3ce5109213eec83b948b79a6d",
      "blockHash": "0x1c124562f0e73c546c043ae8c220fd066131215cdc5b921c4532cc4afeaa781f",
      "blockNumber": 65326,
      "transactionIndex": 0,
      "confirmations": null,
      "from": "0x2910543Af39abA0Cd09dBb2D50200b3E800A63D2",
      "gasPrice": {
        "_hex": "0xd8ba6136b"
      },
      "gasLimit": {
        "_hex": "0x5208"
      },
      "to": "0xAA977A3542936031d6D16289441e1C32052Cb913",
      "value": {
        "_hex": "0x337fd43b35f5378000"
      },
      "nonce": 174,
      "data": "0x",
      "r": "0x413d9280af171af9299ead1985f0128833d8668bb5604e20ed0730a3ad1d52cc",
      "s": "0x2d09b5aa396e4b4027560b1203c7ecc1331e2fb6c08d2ab30516b7c216572763",
      "v": 28,
      "creates": null,
      "raw": "0xf86e81ae850d8ba6136b82520894aa977a3542936031d6d16289441e1c32052cb91389337fd43b35f5378000801ca0413d9280af171af9299ead1985f0128833d8668bb5604e20ed0730a3ad1d52cca02d09b5aa396e4b4027560b1203c7ecc1331e2fb6c08d2ab30516b7c216572763",
      "networkId": 0,
      "chainId": 0
    },
    {
      "hash": "0xae1ce2764b6f2380b14b573b917be8763aa2fc13b63e1fc2b0af854821d30383",
      "blockHash": "0x1c124562f0e73c546c043ae8c220fd066131215cdc5b921c4532cc4afeaa781f",
      "blockNumber": 65326,
      "transactionIndex": 1,
      "confirmations": null,
      "from": "0x6158e107c5EB54CB7604E0CD8dc1E07500D91c3c",
      "gasPrice": {
        "_hex": "0xd606428e3"
      },
      "gasLimit": {
        "_hex": "0x55f0"
      },
      "to": "0x2910543Af39abA0Cd09dBb2D50200b3E800A63D2",
      "value": {
        "_hex": "0x4563918244f40000"
      },
      "nonce": 0,
      "data": "0x454e474b5943454438",
      "r": "0xf93cf511b644629d0d4f74083a58f09198853779876e2f2b4e99a1cd36cc2fd6",
      "s": "0x5ec2e732df317f39932232d429c67a7aa122faee123d06eb9a349f1feeb6aafb",
      "v": 28,
      "creates": null,
      "raw": "0xf87580850d606428e38255f0942910543af39aba0cd09dbb2d50200b3e800a63d2884563918244f4000089454e474b59434544381ca0f93cf511b644629d0d4f74083a58f09198853779876e2f2b4e99a1cd36cc2fd6a05ec2e732df317f39932232d429c67a7aa122faee123d06eb9a349f1feeb6aafb",
      "networkId": 0,
      "chainId": 0
    },
    {
      "hash": "0x4fc4825360253d6f89b704be0ed77e680814aa263a21b938d398972389411cd2",
      "blockHash": "0x1c124562f0e73c546c043ae8c220fd066131215cdc5b921c4532cc4afeaa781f",
      "blockNumber": 65326,
      "transactionIndex": 2,
      "confirmations": null,
      "from": "0x19d704C642488608C0F3320daE052b28D543A581",
      "gasPrice": {
        "_hex": "0xba43b7400"
      },
      "gasLimit": {
        "_hex": "0x15f90"
      },
      "to": "0x793AE8C1b1a160BFc07BFB0d04F85eab1A71F4f2",
      "value": {
        "_hex": "0x0"
      },
      "nonce": 0,
      "data": "0x3ba15036",
      "r": "0xcad4ba16d55622d90eea4ace4265f1514a1c77efd3a46ae8bec95c522b4826ea",
      "s": "0x778f0971069bb18e7e4248a9762eaf9cd1aee2b268207e0d3b39553bbcf8de4b",
      "v": 28,
      "creates": null,
      "raw": "0xf86980850ba43b740083015f9094793ae8c1b1a160bfc07bfb0d04f85eab1a71f4f280843ba150361ca0cad4ba16d55622d90eea4ace4265f1514a1c77efd3a46ae8bec95c522b4826eaa0778f0971069bb18e7e4248a9762eaf9cd1aee2b268207e0d3b39553bbcf8de4b",
      "networkId": 0,
      "chainId": 0
    },
    {
      "hash": "0x1784377b2ec9d3bdc5d96be18f51687ba7d7da2e202aac2933438dbae906c603",
      "blockHash": "0x1c124562f0e73c546c043ae8c220fd066131215cdc5b921c4532cc4afeaa781f",
      "blockNumber": 65326,
      "transactionIndex": 3,
      "confirmations": null,
      "from": "0xdbC1008aD5B21359f6A91ab076c86a3a2319f2B2",
      "gasPrice": {
        "_hex": "0xba43b7400"
      },
      "gasLimit": {
        "_hex": "0x15f90"
      },
      "to": "0x793AE8C1b1a160BFc07BFB0d04F85eab1A71F4f2",
      "value": {
        "_hex": "0x0"
      },
      "nonce": 0,
      "data": "0x3ba15036",
      "r": "0x8a8a94bfe4cfdf3f15b2925d6556e07769d8002c04abc247ab161d05e65c50f2",
      "s": "0x2875754ae7e8acb69a7a414accbcb6d0c1df16e5dc1243d2fe95afd31d01c220",
      "v": 27,
      "creates": null,
      "raw": "0xf86980850ba43b740083015f9094793ae8c1b1a160bfc07bfb0d04f85eab1a71f4f280843ba150361ba08a8a94bfe4cfdf3f15b2925d6556e07769d8002c04abc247ab161d05e65c50f2a02875754ae7e8acb69a7a414accbcb6d0c1df16e5dc1243d2fe95afd31d01c220",
      "networkId": 0,
      "chainId": 0
    }
  ]
}