{
  "hash": "0x791a853c458aba06a7673fd2b0c1d0d946a9427dd5ceabaac7021a943f3d936b",
  "parentHash": "0x032bc133d682ca7b1744345ed5c347399669cd22e79d8c4683c718448ebc96b9",
  "number": 115293,
  "timestamp": 1440054699,
  "nonce": "0xf2252bf223e9782c",
  "difficulty": 4556148739711,
  "gasLimit": {
    "_hex": "0x2fefd8"
  },
  "gasUsed": {
    "_hex": "0x38658"
  },
  "miner": "0xe6A7a1d47ff21B6321162AEA7C6CB457D5476Bca",
  "extraData": "0x476574682f76312e302e312d38326566323666362f6c696e75782f676f312e34",
  "transactions": [
    {
      "hash": "0x013b841dd7d8b0b78609f70abb59895afb020c88d15999276ee2119d996a4754",
      "blockHash": "0x791a853c458aba06a7673fd2b0c1d0d946a9427dd5ceabaac7021a943f3d936b",
      "blockNumber": 115293,
      "transactionIndex": 0,
      "confirmations": null,
      "from": "0xe6A7a1d47ff21B6321162AEA7C6CB457D5476Bca",
      "gasPrice": {
        "_hex": "0xdcc9cf033"
      },
      "gasLimit": {
        "_hex": "0x55f0"
      },
      "to": "0x902cA27B08D58442b67bb4Fa988de351468AB59f",
      "value": {
        "_hex": "0x37ff3c5d756e49e8"
      },
      "nonce": 5274,
      "data": "0x",
      "r": "0x4590c4c533eef2292a23cb57becba06d05814fcba6d8500fb4b6f08e898e7b0b",
      "s": "0x2295c4fbff1412d2dfc9a3785a4b7b0373da5c132eb07229a00778d5755a052b",
      "v": 28,
      "creates": null,
      "raw": "0xf86e82149a850dcc9cf0338255f094902ca27b08d58442b67bb4fa988de351468ab59f8837ff3c5d756e49e8801ca04590c4c533eef2292a23cb57becba06d05814fcba6d8500fb4b6f08e898e7b0ba02295c4fbff1412d2dfc9a3785a4b7b0373da5c132eb07229a00778d5755a052b",
      "networkId": 0,
      "chainId": 0
    },
    {
      "hash": "0x4819c0af2f6a25602eaa8f2234078fb486e7688c6d58ce30ed2ca268ecb2b1a9",
      "blockHash": "0x791a853c458aba06a7673fd2b0c1d0d946a9427dd5ceabaac7021a943f3d936b",
      "blockNumber": 115293,
      "transactionIndex": 1,
      "confirmations": null,
      "from": "0xe6A7a1d47ff21B6321162AEA7C6CB457D5476Bca",
      "gasPrice": {
        "_hex": "0xdcc9cf033"
      },
      "gasLimit": {
        "_hex": "0x55f0"
      },
      "to": "0x27A2f708f13CFE24f8e5d6E8b7D8E971D2449Ba0",
      "value": {
        "_hex": "0x38063bc0ae3ec428"
      },
      "nonce": 5275,
      "data": "0x",
      "r": "0xa68061fd659375a762f7597ec0c0ba5c57522ce37df40539fb7f2c54a07ba6c5",
      "s": "0x3c657d947d838196d460ef2c8080b4c213b5d1fdad926a59ffdc5865b4848bf4",
      "v": 28,
      "creates": null,
      "raw": "0xf86e82149b850dcc9cf0338255f09427a2f708f13cfe24f8e5d6e8b7d8e971d2449ba08838063bc0ae3ec428801ca0a68061fd659375a762f7597ec0c0ba5c57522ce37df40539fb7f2c54a07ba6c5a03c657d947d838196d460ef2c8080b4c213b5d1fdad926a59ffdc5865b4848bf4",
      "networkId": 0,
      "chainId": 0
    },
    {
      "hash": "0x08d34552a98a5670bbb9cacda9bf0cb6ec205ffc2832950348d030f3b2d1f534",
      "blockHash": "0x791a853c458aba06a7673fd2b0c1d0d946a9427dd5ceabaac7021a943f3d936b",
      "blockNumber": 115293,
      "transactionIndex": 2,
      "confirmations": null,
      "from": "0xe6A7a1d47ff21B6321162AEA7C6CB457D5476Bca",
      "gasPrice": {
        "_hex": "0xdcc9cf033"
      },
      "gasLimit": {
        "_hex": "0x55f0"
      },
      "to": "0x3F6DDbC103F2999640fe4AFc6884708fa691C2b8",
      "value": {
        "_hex": "0x384a60ea5ab367e4"
      },
      "nonce": 5276,
      "data": "0x",
      "r": "0xe24fcb3d778c6b5c7c29b6873db483edcd776494e79ea0f9b40c795e2a59ae44",
      "s": "0x30ed8da8362598811f63077f0eae7efa13ff83bef6279e969c33579e5121fbb0",
      "v": 28,
      "creates": null,
      "raw": "0xf86e82149c850dcc9cf0338255f0943f6ddbc103f2999640fe4afc6884708fa691c2b888384a60ea5ab367e4801ca0e24fcb3d778c6b5c7c29b6873db483edcd776494e79ea0f9b40c795e2a59ae44a030ed8da8362598811f63077f0eae7efa13ff83bef6279e969c33579e5121fbb0",
      "networkId": 0,
      "chainId": 0
    },
    {
      "hash": "0x6c4e421339a3189e0590eb7205402cf6eb0dd207d8cbe992a05730b47d9df863",
      "blockHash": "0x791a853c458aba06a7673fd2b0c1d0d946a9427dd5ceabaac7021a943f3d936b",
      "blockNumber": 115293,
      "transactionIndex": 3,
      "confirmations": null,
      "from": "0xe6A7a1d47ff21B6321162AEA7C6CB457D5476Bca",
      "gasPrice": {
        "_hex": "0xdcc9cf033"
      },
      "gasLimit": {
        "_hex": "0x55f0"
      },
      "to": "0x03809628C90e1092EA99EcFDACA6251435dbc94B",
      "value": {
        "_hex": "0x38c036a9e8437008"
      },
      "nonce": 5277,
      "data": "0x",
      "r": "0x3eb823d20b697bbe1c0659a20c2f776c5793f96ed14607b602baef2950660f20",
      "s": "0x503edc28d04848f859f84f1f823ab76cb9ceb10a6eed72e511f7e78bd568bbb6",
      "v": 28,
      "creates": null,
      "raw": "0xf86e82149d850dcc9cf0338255f09403809628c90e1092ea99ecfdaca6251435dbc94b8838c036a9e8437008801ca03eb823d20b697bbe1c0659a20c2f776c5793f96ed14607b602baef2950660f20a0503edc28d04848f859f84f1f823ab76cb9ceb10a6eed72e511f7e78bd568bbb6",
      "networkId": 0,
      "chainId": 0
    },
    {
      "hash": "0x6bed9fe761745f4cedcfc54188161480cc91bfc0662ccf2ce935c73a9215cd97",
      "blockHash": "0x791a853c458aba06a7673fd2b0c1d0d946a9427dd5ceabaac7021a943f3d936b",
      "blockNumber": 115293,
      "transactionIndex": 4,
      "confirmations": null,
      "from": "0xe6A7a1d47ff21B6321162AEA7C6CB457D5476Bca",
      "gasPrice": {
        "_hex": "0xdcc9cf033"
      },
      "gasLimit": {
        "_hex": "0x55f0"
      },
      "to": "0xE21812b7c0Bd57f6922B6A5670BDAec864beEF6b",
      "value": {
        "_hex": "0x39da76e3585adff4"
      },
      "nonce": 5278,
      "data": "0x",
      "r": "0x5605a7f39735a1c5792f90bb9b1d787bc0d55f0d97b7cd3a9e5a735bb0598da7",
      "s": "0x2fc6ce2b7f56c99adaef081655f9ad7f87e71a339e08845ad1767b939ec8356f",
      "v": 27,
      "creates": null,
      "raw": "0xf86e82149e850dcc9cf0338255f094e21812b7c0bd57f6922b6a5670bdaec864beef6b8839da76e3585adff4801ba05605a7f39735a1c5792f90bb9b1d787bc0d55f0d97b7cd3a9e5a735bb0598da7a02fc6ce2b7f56c99adaef081655f9ad7f87e71a339e08845ad1767b939ec8356f",
      "networkId": 0,
      "chainId": 0
    },
    {
      "hash": "0x39116f99a7db766b7c269b53088ae971b3a75d7d9b06bd9e02727af20dcbfbce",
      "blockHash": "0x791a853c458aba06a7673fd2b0c1d0d946a9427dd5ceabaac7021a943f3d936b",
      "blockNumber": 115293,
      "transactionIndex": 5,
      "confirmations": null,
      "from": "0xe6A7a1d47ff21B6321162AEA7C6CB457D5476Bca",
      "gasPrice": {
        "_hex": "0xdcc9cf033"
      },
      "gasLimit": {
        "_hex": "0x55f0"
      },
      "to": "0xF161498A7f225A91C338015ca11833B3399393A8",
      "value": {
        "_hex": "0x39ffb5b68c5e7ea0"
      },
      "nonce": 5279,
      "data": "0x",
      "r": "0x94dcca1288df96bf6c9a48412f8f354ebf38ed27c35256c134ba38c5752392c7",
      "s": "0x7a7bfd2c771fb4998ee6c5b0ee40a0b04f58602945313c2eea877baffddf6bcf",
      "v": 27,
      "creates": null,
      "raw": "0xf86e82149f850dcc9cf0338255f094f161498a7f225a91c338015ca11833b3399393a88839ffb5b68c5e7ea0801ba094dcca1288df96bf6c9a48412f8f354ebf38ed27c35256c134ba38c5752392c7a07a7bfd2c771fb4998ee6c5b0ee40a0b04f58602945313c2eea877baffddf6bcf",
      "networkId": 0,
      "chainId": 0
    },
    {
      "hash": "0xa0e009fb5a5a95753b3fd468509542c1c30cb2b8ac4ced6ad0b13b6f5529cecc",
      "blockHash": "0x791a853c458aba06a7673fd2b0c1d0d946a9427dd5ceabaac7021a943f3d936b",
      "blockNumber": 115293,
      "transactionIndex": 6,
      "confirmations": null,
      "from": "0xe6A7a1d47ff21B6321162AEA7C6CB457D5476Bca",
      "gasPrice": {
        "_hex": "0xdcc9cf033"
      },
      "gasLimit": {
        "_hex": "0x55f0"
      },
      "to": "0xe33977E292cceF99Ea8828733e97562F3690a8ad",
      "value": {
        "_hex": "0x3ab3703852793798"
      },
      "nonce": 5280,
      "data": "0x",
      "r": "0x0d965b3e528e0e7a62ab3bb218e73c20b95be9385d52d47324eb429386a9542e",
      "s": "0x2587715a28f862b5b0fa59bf43252ac17b581688f2414f18e3d7e2d9bd51c0f9",
      "v": 28,
      "creates": null,
      "raw": "0xf86e8214a0850dcc9cf0338255f094e33977e292ccef99ea8828733e97562f3690a8ad883ab3703852793798801ca00d965b3e528e0e7a62ab3bb218e73c20b95be9385d52d47324eb429386a9542ea02587715a28f862b5b0fa59bf43252ac17b581688f2414f18e3d7e2d9bd51c0f9",
      "networkId": 0,
      "chainId": 0
    },
    {
      "hash": "0x274658c35153f4412862a461749de9aedfc15800910d8e374f2c4b5b62884009",
      "blockHash": "0x791a853c458aba06a7673fd2b0c1d0d946a9427dd5ceabaac7021a943f3d936b",
      "blockNumber": 115293,
      "transactionIndex": 7,
      "confirmations": null,
      "from": "0xe6A7a1d47ff21B6321162AEA7C6CB457D5476Bca",
      "gasPrice": {
        "_hex": "0xda8b8c0c8"
      },
      "gasLimit": {
        "_hex": "0x55f0"
      },
      "to": "0x9FA0960220d2d51D54f755501E391Da140c2EF63",
      "value": {
        "_hex": "0x3bc997b5bd5bfe2c"
      },
      "nonce": 5281,
      "data": "0x",
      "r": "0xa5fd0ca39372e3d4f68786a06d6ae19a4a7ba76813e2294d375b2cdac361fbe8",
      "s": "0x0f9a405c019ce438cac37497bbc39e88f9c780d7888e9d3eac10f712747804e7",
      "v": 28,
      "creates": null,
      "raw": "0xf86e8214a1850da8b8c0c88255f0949fa0960220d2d51d54f755501e391da140c2ef63883bc997b5bd5bfe2c801ca0a5fd0ca39372e3d4f68786a06d6ae19a4a7ba76813e2294d375b2cdac361fbe8a00f9a405c019ce438cac37497bbc39e88f9c780d7888e9d3eac10f712747804e7",
      "networkId": 0,
      "chainId": 0
    },
    {
      "hash": "0x9a076ae1a2160692faae484d4bf8dce329d5d43e819fb70a1cb1d069a9b6f6c3",
      "blockHash": "0x791a853c458aba06a7673fd2b0c1d0d946a9427dd5ceabaac7021a943f3d936b",
      "blockNumber": 115293,
      "transactionIndex": 8,
      "confirmations": null,
      "from": "0xe6A7a1d47ff21B6321162AEA7C6CB457D5476Bca",
      "gasPrice": {
        "_hex": "0xda8b8c0c8"
      },
      "gasLimit": {
        "_hex": "0x55f0"
      },
      "to": "0x4Ae88c32B4ab8552f9116CAD3560Ffd0e3155007",
      "value": {
        "_hex": "0x3bdbd6ace9d15518"
      },
      "nonce": 5282,
      "data": "0x",
      "r": "0xcb560cc0e0adfd074b0e1606c39dad0f003cf806b8292f1b753e5b05bda77ce2",
      "s": "0x23c932ece0ac1726adb619b5b2f14fa1a16a2ae592002d75c43c318597e102f4",
      "v": 28,
      "creates": null,
      "raw": "0xf86e8214a2850da8b8c0c88255f0944ae88c32b4ab8552f9116cad3560ffd0e3155007883bdbd6ace9d15518801ca0cb560cc0e0adfd074b0e1606c39dad0f003cf806b8292f1b753e5b05bda77ce2a023c932ece0ac1726adb619b5b2f14fa1a16a2ae592002d75c43c318597e102f4",
      "networkId": 0,
      "chainId": 0
    },
    {
      "hash": "0x5f02932a151a110df285bb99dec0aca1fc84728c3a238952b193d6d3a0e6d218",
      "blockHash": "0x791a853c458aba06a7673fd2b0c1d0d946a9427dd5ceabaac7021a943f3d936b",
      "blockNumber": 115293,
      "transactionIndex": 9,
      "confirmations": null,
      "from": "0xe6A7a1d47ff21B6321162AEA7C6CB457D5476Bca",
      "gasPrice": {
        "_hex": "0xda8b8c0c8"
      },
      "gasLimit": {
        "_hex": "0x55f0"
      },
      "to": "0x0d62E666D681E8Be96903Ac4aBD3537f28c6125A",
      "value": {
        "_hex": "0x3c017550c46187e0"
      },
      "nonce": 5283,
      "data": "0x",
      "r": "0x75c43d43ed4f44f355fc39c27a3ed9816f3419ec5817a636f39a8ee1dccc9032",
      "s": "0x366a2c9901d23753857a61a639dc2508f14947932051893c603a93152364a189",
      "v": 28,
      "creates": null,
      "raw": "0xf86e8214a3850da8b8c0c88255f0940d62e666d681e8be96903ac4abd3537f28c6125a883c017550c46187e0801ca075c43d43ed4f44f355fc39c27a3ed9816f3419ec5817a636f39a8ee1dccc9032a0366a2c9901d23753857a61a639dc2508f14947932051893c603a93152364a189",
      "networkId": 0,
      "chainId": 0
    },
    {
      "hash": "0x837b44d56dc192d43003e26d61b9404217b2ecea061e7f69f2d6ea90529aff92",
      "blockHash": "0x791a853c458aba06a7673fd2b0c1d0d946a9427dd5ceabaac7021a943f3d936b",
      "blockNumber": 115293,
      "transactionIndex": 10,
      "confirmations": null,
      "from": "0xED2aF977080D441C24E9910f1e2078A4446d0bbf",
      "gasPrice": {
        "_hex": "0xd9f058b46"
      },
      "gasLimit": {
        "_hex": "0x5208"
      },
      "to": "0x32Be343B94f860124dC4fEe278FDCBD38C102D88",
      "value": {
        "_hex": "0x11d43bf7fd4bd400"
      },
      "nonce": 4,
      "data": "0x",
      "r": "0xa105b23ba1f3f0e4862a36e23bf764546aca274d6042531841e738b7b7b02fdd",
      "s": "0x6d93744ad4bcb0b04a5d7e67a879b3191f01e94ca0199d371352e3391d6cf0b0",
      "v": 28,
      "creates": null,
      "raw": "0xf86c04850d9f058b468252089432be343b94f860124dc4fee278fdcbd38c102d888811d43bf7fd4bd400801ca0a105b23ba1f3f0e4862a36e23bf764546aca274d6042531841e738b7b7b02fdda06d93744ad4bcb0b04a5d7e67a879b3191f01e94ca0199d371352e3391d6cf0b0",
      "networkId": 0,
      "chainId": 0
    }
  ]
}