{
  "hash": "0xb0f9c0d55a6fbe8567bdbb6b2285de69786398d01072e7d48a8736fd19fbe887",
  "parentHash": "0x5ffae0eae922e001be0c92768c5c4b5e888eecc941282ad79b9ceed5d3d3a960",
  "number": 107122,
  "timestamp": 1439916485,
  "nonce": "0xa56e53b79c9cd51f",
  "difficulty": 4465832539019,
  "gasLimit": {
    "_hex": "0x2fefd8"
  },
  "gasUsed": {
    "_hex": "0x5208"
  },
  "miner": "0x580992B51e3925e23280EfB93d3047C82f17E038",
  "extraData": "0x476574682f76312e302e312f6c696e75782f676f312e342e32",
  "transactions": [
    {
      "hash": "0xfd3ae33a8f044cb186663accc357d7482c2d6f2cd0d8e6b4478ed2ab5ecd71a3",
      "blockHash": "0xb0f9c0d55a6fbe8567bdbb6b2285de69786398d01072e7d48a8736fd19fbe887",
      "blockNumber": 107122,
      "transactionIndex": 0,
      "confirmations": null,
      "from": "0x8d3178fc8300Aae417a2Ce0127C4b5922B456F98",
      "gasPrice": {
        "_hex": "0xcd46db39e"
      },
      "gasLimit": {
        "_hex": "0x15f90"
      },
      "to": "0x0b1Ee07Fd94bF8e4e45Bb6724d3B56B099210362",
      "value": {
        "_hex": "0x8ac7230489e80000"
      },
      "nonce": 0,
      "data": "0x",
      "r": "0x8bffd72081fbe98906f5a0f704117e0b4e3dd03381bc7e9bf133753b8feaaa55",
      "s": "0x1fec5dda7eae7f7ecebf02073e4dffd605cd6527e2919b797f9a0eea2d3bda73",
      "v": 27,
      "creates": null,
      "raw": "0xf86d80850cd46db39e83015f90940b1ee07fd94bf8e4e45bb6724d3b56b099210362888ac7230489e80000801ba08bffd72081fbe98906f5a0f704117e0b4e3dd03381bc7e9bf133753b8feaaa55a01fec5dda7eae7f7ecebf02073e4dffd605cd6527e2919b797f9a0eea2d3bda73",
      "networkId": 0,
      "chainId": 0
    }
  ]
}