{
  "hash": "0x3fdf199a936f3a5e5a3f28167f99319a163e6dddf35a3dd367effc7c3038c358",
  "parentHash": "0xcd079868ad41b7d420ff0bbf255ba5f896d5534ef50d6acb16e4749ccbe9a8f6",
  "number": 98373,
  "timestamp": 1439771666,
  "nonce": "0x35220ae6a9ce4385",
  "difficulty": 3882135254604,
  "gasLimit": {
    "_hex": "0x2fefd8"
  },
  "gasUsed": {
    "_hex": "0x5208"
  },
  "miner": "0x0D4EcC7d750180EBf4A9Df728B6669B5Bceb5E40",
  "extraData": "0x",
  "transactions": [
    {
      "hash": "0xdf9ca0c751d51953ac7685b2dfcc7e16246617bfbae64d6a9dfe1681465b55a3",
      "blockHash": "0x3fdf199a936f3a5e5a3f28167f99319a163e6dddf35a3dd367effc7c3038c358",
      "blockNumber": 98373,
      "transactionIndex": 0,
      "confirmations": null,
      "from": "0xFBb1b73C4f0BDa4f67dcA266ce6Ef42f520fBB98",
      "gasPrice": {
        "_hex": "0xd6e6be3f9"
      },
      "gasLimit": {
        "_hex": "0x15f90"
      },
      "to": "0x770d98d31b4353FceEE8560c4CCf803e88C0c4e0",
      "value": {
        "_hex": "0x2c8c35fe21010000"
      },
      "nonce": 79,
      "data": "0x",
      "r": "0x63b76ad7b5a33ad5e618d4e80214d4687153ec86ddc93e4f8df3c1945aae54b7",
      "s": "0x1272230c81a04025fb50a05874942f38bb93fc4ecf5d7392648f5405e0dadae2",
      "v": 28,
      "creates": null,
      "raw": "0xf86d4f850d6e6be3f983015f9094770d98d31b4353fceee8560c4ccf803e88c0c4e0882c8c35fe21010000801ca063b76ad7b5a33ad5e618d4e80214d4687153ec86ddc93e4f8df3c1945aae54b7a01272230c81a04025fb50a05874942f38bb93fc4ecf5d7392648f5405e0dadae2",
      "networkId": 0,
      "chainId": 0
    }
  ]
}