{
  "hash": "0xa2843989070989e61c6170c29359c25942d3b946129b13bce8ff671c598c5bc5",
  "parentHash": "0x5a7ae8742cf026eb34db96ffb2e065f537a689a762e72a076b9cc7c90ee27083",
  "number": 69048,
  "timestamp": 1439297616,
  "nonce": "0xe4aea6f8818da80f",
  "difficulty": 2043903696869,
  "gasLimit": {
    "_hex": "0x2fefd8"
  },
  "gasUsed": {
    "_hex": "0x19a28"
  },
  "miner": "0x580992B51e3925e23280EfB93d3047C82f17E038",
  "extraData": "0x476574682f76312e302e312f6c696e75782f676f312e342e32",
  "transactions": [
    {
      "hash": "0xd9daa1e3d6fb5788561ee4abbcf9e3fa17e08c7839f03d4b3084285cab3d0379",
      "blockHash": "0xa2843989070989e61c6170c29359c25942d3b946129b13bce8ff671c598c5bc5",
      "blockNumber": 69048,
      "transactionIndex": 0,
      "confirmations": null,
      "from": "0x24552a9C80D335C95B39EF2cb78685Eca9Bf1e8c",
      "gasPrice": {
        "_hex": "0xba43b7400"
      },
      "gasLimit": {
        "_hex": "0x5208"
      },
      "to": "0x91E957ec7695E56580f2054B11E219b0cB715143",
      "value": {
        "_hex": "0x205aea81b969000"
      },
      "nonce": 1,
      "data": "0x",
      "r": "0xadbb0be4209e772106cb3816e661c0d318c5cd626ed7d707c21f142bb2ad0c6c",
      "s": "0x370b57dbe2e231fdd3887fc0fca31f08a5bf847290cc84e8d3e4b63f2c50438f",
      "v": 27,
      "creates": null,
      "raw": "0xf86c01850ba43b74008252089491e957ec7695e56580f2054b11e219b0cb715143880205aea81b969000801ba0adbb0be4209e772106cb3816e661c0d318c5cd626ed7d707c21f142bb2ad0c6ca0370b57dbe2e231fdd3887fc0fca31f08a5bf847290cc84e8d3e4b63f2c50438f",
      "networkId": 0,
      "chainId": 0
    },
    {
      "hash": "0xd132aa218f11a6f8a927f76461cb4234c5038b07fabfb9b31d7ca1a44c93de52",
      "blockHash": "0xa2843989070989e61c6170c29359c25942d3b946129b13bce8ff671c598c5bc5",
      "blockNumber": 69048,
      "transactionIndex": 1,
      "confirmations": null,
      "from": "0x37145b7e6c638231CBfe14B648247277b74312a7",
      "gasPrice": {
        "_hex": "0xba43b7400"
      },
      "gasLimit": {
        "_hex": "0x5208"
      },
      "to": "0xb06898f947C6b6C62478876B1D3E1C7e048d4FB2",
      "value": {
        "_hex": "0x205aea81b969000"
      },
      "nonce": 1,
      "data": "0x",
      "r": "0x09cb6ba902d0b1b802f69393149cb8a574c29b9056e8bf48119b6fb6729cf427",
      "s": "0x0d59434b78a4927a3a256473e015d9c1213de7ca8f9fefb1258c7b1aef751685",
      "v": 27,
      "creates": null,
      "raw": "0xf86c01850ba43b740082520894b06898f947c6b6c62478876b1d3e1c7e048d4fb2880205aea81b969000801ba009cb6ba902d0b1b802f69393149cb8a574c29b9056e8bf48119b6fb6729cf427a00d59434b78a4927a3a256473e015d9c1213de7ca8f9fefb1258c7b1aef751685",
      "networkId": 0,
      "chainId": 0
    },
    {
      "hash": "0x4ea7403073d8d16c17c5d8017988f6312ff8b25863a91b5200951862f752a08d",
      "blockHash": "0xa2843989070989e61c6170c29359c25942d3b946129b13bce8ff671c598c5bc5",
      "blockNumber": 69048,
      "transactionIndex": 2,
      "confirmations": null,
      "from": "0x6904Da81b3FE5e6AcF1B9c1Bcdbe2e53dAcC2cC1",
      "gasPrice": {
        "_hex": "0xba43b7400"
      },
      "gasLimit": {
        "_hex": "0x5208"
      },
      "to": "0xEf66A09402A2C5145A8BEd03B090384eC606cB36",
      "value": {
        "_hex": "0x205aea81b969000"
      },
      "nonce": 1,
      "data": "0x",
      "r": "0x4b07ec6ff15e811483999f621c240b4a1304ad3e70d0c04151a64a371c428161",
      "s": "0x44bcfcc080877c293b2bf4039abca0c183597a8d9d5b0c97955cb2a341f2c484",
      "v": 27,
      "creates": null,
      "raw": "0xf86c01850ba43b740082520894ef66a09402a2c5145a8bed03b090384ec606cb36880205aea81b969000801ba04b07ec6ff15e811483999f621c240b4a1304ad3e70d0c04151a64a371c428161a044bcfcc080877c293b2bf4039abca0c183597a8d9d5b0c97955cb2a341f2c484",
      "networkId": 0,
      "chainId": 0
    },
    {
      "hash": "0x4a9d2a109b82d3e4478591d24347d437be08880a8d70c6aa8950ee0fb01be858",
      "blockHash": "0xa2843989070989e61c6170c29359c25942d3b946129b13bce8ff671c598c5bc5",
      "blockNumber": 69048,
      "transactionIndex": 3,
      "confirmations": null,
      "from": "0xBC85999ef438b65E8Ac0fe6757E1A0D540d5313f",
      "gasPrice": {
        "_hex": "0xba43b7400"
      },
      "gasLimit": {
        "_hex": "0x5208"
      },
      "to": "0xC354a40f878A4BA3B67de48aC439BcE75602EC79",
      "value": {
        "_hex": "0x205aea81b969000"
      },
      "nonce": 1,
      "data": "0x",
      "r": "0x94bb43e8edb477af2aef8c4d043794ec1adb3e4cabbf60aafd47e99672bb3636",
      "s": "0x6dafcf5ef30c389e8377d05099093cafb48d825848b9439241f6b9f4608bc4cc",
      "v": 28,
      "creates": null,
      "raw": "0xf86c01850ba43b740082520894c354a40f878a4ba3b67de48ac439bce75602ec79880205aea81b969000801ca094bb43e8edb477af2aef8c4d043794ec1adb3e4cabbf60aafd47e99672bb3636a06dafcf5ef30c389e8377d05099093cafb48d825848b9439241f6b9f4608bc4cc",
      "networkId": 0,
      "chainId": 0
    },
    {
      "hash": "0xbcf5a03b217ba3c98aefbc3619ec14793af52f7f3afe583aa91486145188c959",
      "blockHash": "0xa2843989070989e61c6170c29359c25942d3b946129b13bce8ff671c598c5bc5",
      "blockNumber": 69048,
      "transactionIndex": 4,
      "confirmations": null,
      "from": "0xCCb207fCeFb18973eF68397B92ac3e68673AA20A",
      "gasPrice": {
        "_hex": "0xba43b7400"
      },
      "gasLimit": {
        "_hex": "0x5208"
      },
      "to": "0xd9C227Ab3613bC95C64FC85877c7c4A8288b0faB",
      "value": {
        "_hex": "0x205aea81b969000"
      },
      "nonce": 1,
      "data": "0x",
      "r": "0xf543c6b7b481b398546fed9bdc52294d47336cb3348bb7587946a4596c9a9870",
      "s": "0x65efeec02cfa70981917841a8ce06bf5807d416676c68c9874ff97212eafd2c8",
      "v": 27,
      "creates": null,
      "raw": "0xf86c01850ba43b740082520894d9c227ab3613bc95c64fc85877c7c4a8288b0fab880205aea81b969000801ba0f543c6b7b481b398546fed9bdc52294d47336cb3348bb7587946a4596c9a9870a065efeec02cfa70981917841a8ce06bf5807d416676c68c9874ff97212eafd2c8",
      "networkId": 0,
      "chainId": 0
    }
  ]
}