{
  "hash": "0x4b0a072be90d91bc48acec8f66e4bf73b03dd4c1f76868ee6b22b338d15884bf",
  "parentHash": "0xc57374886ffd536c049d2796b87b6d974bf6a54852e317ecab26c91090ec9449",
  "number": 48736,
  "timestamp": 1438962131,
  "nonce": "0x808f5db2c97e92eb",
  "difficulty": 1475737566148,
  "gasLimit": {
    "_hex": "0x1d21c"
  },
  "gasUsed": {
    "_hex": "0x14a84"
  },
  "miner": "0xe6A7a1d47ff21B6321162AEA7C6CB457D5476Bca",
  "extraData": "0x657468706f6f6c2e6f7267",
  "transactions": [
    {
      "hash": "0x114394c4f118de7dcada5fe02c98745c360d73f7b44320265f9863030ef8bce1",
      "blockHash": "0x4b0a072be90d91bc48acec8f66e4bf73b03dd4c1f76868ee6b22b338d15884bf",
      "blockNumber": 48736,
      "transactionIndex": 0,
      "confirmations": null,
      "from": "0xa256D16066104348Ae311b81867D4Ee12711911f",
      "gasPrice": {
        "_hex": "0xd82cb884d"
      },
      "gasLimit": {
        "_hex": "0x15f90"
      },
      "to": "0x2910543Af39abA0Cd09dBb2D50200b3E800A63D2",
      "value": {
        "_hex": "0xde0b6b3a7640000"
      },
      "nonce": 0,
      "data": "0x454e52463245464130",
      "r": "0x7042800eca82ac0740d99b57e13e49463a6b49e462c27055e817277e15005647",
      "s": "0x6f203ef004f4adad78bf2a801a8ec99fa493a62a849942861aec926fe9495518",
      "v": 27,
      "creates": null,
      "raw": "0xf87680850d82cb884d83015f90942910543af39aba0cd09dbb2d50200b3e800a63d2880de0b6b3a764000089454e524632454641301ba07042800eca82ac0740d99b57e13e49463a6b49e462c27055e817277e15005647a06f203ef004f4adad78bf2a801a8ec99fa493a62a849942861aec926fe9495518",
      "networkId": 0,
      "chainId": 0
    },
    {
      "hash": "0x04bd885acb6e645bfa64dd68438a45a323d516f07f0915179c9d8d3e51382f3b",
      "blockHash": "0x4b0a072be90d91bc48acec8f66e4bf73b03dd4c1f76868ee6b22b338d15884bf",
      "blockNumber": 48736,
      "transactionIndex": 1,
      "confirmations": null,
      "from": "0x057DD29F2d19AA3da42327ea50bce86ff5C911d9",
      "gasPrice": {
        "_hex": "0xe7930595f"
      },
      "gasLimit": {
        "_hex": "0x15f90"
      },
      "to": "0xd43630311cCE705Cb1d69EA014F64b34BeF443d1",
      "value": {
        "_hex": "0xd8d70330250abf0000"
      },
      "nonce": 0,
      "data": "0x",
      "r": "0x4722dd0e01da25aa2840a8a376ce63a3c2743ad9c0106e04a697a7c2e64ca10c",
      "s": "0x2ad94d670d7991c7791185f06f630e90e371b9b836c6a7c33e4c23d6a6e49a08",
      "v": 28,
      "creates": null,
      "raw": "0xf86e80850e7930595f83015f9094d43630311cce705cb1d69ea014f64b34bef443d189d8d70330250abf0000801ca04722dd0e01da25aa2840a8a376ce63a3c2743ad9c0106e04a697a7c2e64ca10ca02ad94d670d7991c7791185f06f630e90e371b9b836c6a7c33e4c23d6a6e49a08",
      "networkId": 0,
      "chainId": 0
    },
    {
      "hash": "0xcd59f0e75d2fc1fa6d334e9890d2a9d84c1d9ac48816f069e7ac4ca9778aec5c",
      "blockHash": "0x4b0a072be90d91bc48acec8f66e4bf73b03dd4c1f76868ee6b22b338d15884bf",
      "blockNumber": 48736,
      "transactionIndex": 2,
      "confirmations": null,
      "from": "0xd43630311cCE705Cb1d69EA014F64b34BeF443d1",
      "gasPrice": {
        "_hex": "0xdc0d0ffd1"
      },
      "gasLimit": {
        "_hex": "0x5208"
      },
      "to": "0x32Be343B94f860124dC4fEe278FDCBD38C102D88",
      "value": {
        "_hex": "0x1ef6247bc75ef20000"
      },
      "nonce": 1,
      "data": "0x",
      "r": "0x126fa4dda3f4719766b6edd07a24d8a9098b32ddcf71546d326cd77f6d4652d1",
      "s": "0x480d01cb4b7f1241649e6b8c869f9fe9819db7606300cc8e7e987365b8e4fed3",
      "v": 28,
      "creates": null,
      "raw": "0xf86d01850dc0d0ffd18252089432be343b94f860124dc4fee278fdcbd38c102d88891ef6247bc75ef20000801ca0126fa4dda3f4719766b6edd07a24d8a9098b32ddcf71546d326cd77f6d4652d1a0480d01cb4b7f1241649e6b8c869f9fe9819db7606300cc8e7e987365b8e4fed3",
      "networkId": 0,
      "chainId": 0
    },
    {
      "hash": "0xf42b56f75c7a49120359b8449653a13ae2ac82febfddfd6144f3a411509d7f50",
      "blockHash": "0x4b0a072be90d91bc48acec8f66e4bf73b03dd4c1f76868ee6b22b338d15884bf",
      "blockNumber": 48736,
      "transactionIndex": 3,
      "confirmations": null,
      "from": "0xd67EA950Fe0e4a0e1367Bda02c0548BD446A8443",
      "gasPrice": {
        "_hex": "0xdc0d0ffd1"
      },
      "gasLimit": {
        "_hex": "0x5208"
      },
      "to": "0x32Be343B94f860124dC4fEe278FDCBD38C102D88",
      "value": {
        "_hex": "0xac986168395528000"
      },
      "nonce": 1,
      "data": "0x",
      "r": "0xd5430b18f9646ebaa8963f575a73da05a8ed2c8dca2d64112b39cec2cf66f0a1",
      "s": "0x0c26e284690b6c99458a0cc4681be49478701fc990b0151319147ed72af6b236",
      "v": 28,
      "creates": null,
      "raw": "0xf86d01850dc0d0ffd18252089432be343b94f860124dc4fee278fdcbd38c102d88890ac986168395528000801ca0d5430b18f9646ebaa8963f575a73da05a8ed2c8dca2d64112b39cec2cf66f0a1a00c26e284690b6c99458a0cc4681be49478701fc990b0151319147ed72af6b236",
      "networkId": 0,
      "chainId": 0
    }
  ]
}