{
  "hash": "0x34422e0c9c91a7bc5d6431d69f829b874dafe18e412b6d204cfc0d5dcd63b876",
  "parentHash": "0x419cab0648ca2682df0ecb10f4f719a83cc97fe02b56ea6ab7eaa6c399791513",
  "number": 60014,
  "timestamp": 1439147602,
  "nonce": "0x76825e4f39caf13d",
  "difficulty": 1728049243208,
  "gasLimit": {
    "_hex": "0x2fefd8"
  },
  "gasUsed": {
    "_hex": "0xa410"
  },
  "miner": "0x55bAf64fc9eAccFFd7Cc643BB61142E1C6ac093e",
  "extraData": "0x",
  "transactions": [
    {
      "hash": "0x1aaab2121af758512faf8e59b4a42b29bc1918b87d9ad4e80c98bd61cbe31bfb",
      "blockHash": "0x34422e0c9c91a7bc5d6431d69f829b874dafe18e412b6d204cfc0d5dcd63b876",
      "blockNumber": 60014,
      "transactionIndex": 0,
      "confirmations": null,
      "from": "0x6a6D69d85A96de30FAFbc28Fe5560C221F0314E6",
      "gasPrice": {
        "_hex": "0xd5161219d"
      },
      "gasLimit": {
        "_hex": "0x5208"
      },
      "to": "0x32Be343B94f860124dC4fEe278FDCBD38C102D88",
      "value": {
        "_hex": "0x454d7e128f27a800"
      },
      "nonce": 0,
      "data": "0x",
      "r": "0x02cc83165d666f6d87ab902ef5a0facfc44957b0141070bde93098425b590f3c",
      "s": "0x5c36e92acc82c5670e0dad0c461cc50eaafd92f5ab29585c9d7b3de06fa866bd",
      "v": 28,
      "creates": null,
      "raw": "0xf86c80850d5161219d8252089432be343b94f860124dc4fee278fdcbd38c102d8888454d7e128f27a800801ca002cc83165d666f6d87ab902ef5a0facfc44957b0141070bde93098425b590f3ca05c36e92acc82c5670e0dad0c461cc50eaafd92f5ab29585c9d7b3de06fa866bd",
      "networkId": 0,
      "chainId": 0
    },
    {
      "hash": "0x3ee7cea4d5de6b1b142f2359aacf7a139b9f1c1b607319ac7e0055b7f691b27a",
      "blockHash": "0x34422e0c9c91a7bc5d6431d69f829b874dafe18e412b6d204cfc0d5dcd63b876",
      "blockNumber": 60014,
      "transactionIndex": 1,
      "confirmations": null,
      "from": "0xc955d372Fe1c428D17CD86E05d26F0206F3677b1",
      "gasPrice": {
        "_hex": "0xd5161219d"
      },
      "gasLimit": {
        "_hex": "0x5208"
      },
      "to": "0x32Be343B94f860124dC4fEe278FDCBD38C102D88",
      "value": {
        "_hex": "0xddc7c67301ba000"
      },
      "nonce": 1,
      "data": "0x",
      "r": "0x94eda138cdb014415ed0fe881e171603d6cc1fbd65730dba56371172bcc72d87",
      "s": "0x251c2f4818b56fea4aa2eb863bc8fb8af208120141a1c1282d7f18097dcf942c",
      "v": 28,
      "creates": null,
      "raw": "0xf86c01850d5161219d8252089432be343b94f860124dc4fee278fdcbd38c102d88880ddc7c67301ba000801ca094eda138cdb014415ed0fe881e171603d6cc1fbd65730dba56371172bcc72d87a0251c2f4818b56fea4aa2eb863bc8fb8af208120141a1c1282d7f18097dcf942c",
      "networkId": 0,
      "chainId": 0
    }
  ]
}