{
  "hash": "0x83f783be2289c6aa32772d07ba913386f428c8c508096b29c9368e260439487a",
  "parentHash": "0xc457d14f74a4954d3b95d6bbf49542e902a607de272de6492a14bbe28372bb43",
  "number": 80261,
  "timestamp": 1439482741,
  "nonce": "0x5e08569dd6de278f",
  "difficulty": 2382880454117,
  "gasLimit": {
    "_hex": "0x2fefd8"
  },
  "gasUsed": {
    "_hex": "0x57b4"
  },
  "miner": "0x123843545FB525C8E134c9A5F15ADA6865cc3848",
  "extraData": "0x476574682f76312e302e312f77696e646f77732f676f312e342e32",
  "transactions": [
    {
      "hash": "0xc422bb115d411e462e01c56e54b459d1c9a344ab9fd6a6fa8fbbf5c27d305471",
      "blockHash": "0x83f783be2289c6aa32772d07ba913386f428c8c508096b29c9368e260439487a",
      "blockNumber": 80261,
      "transactionIndex": 0,
      "confirmations": null,
      "from": "0x87C5B5874A18B4306DF8a752a6C8cc3E82daFc19",
      "gasPrice": {
        "_hex": "0x101d8c2708b"
      },
      "gasLimit": {
        "_hex": "0x493e0"
      },
      "to": "0xC4c51de1AbF5D60DBd329eC0F999Fd8f021ae9fC",
      "value": {
        "_hex": "0x0"
      },
      "nonce": 155,
      "data": "0xbd66528a6b6b6b0000000000000000000000000000000000000000000000000000000000",
      "r": "0xc8c1d41b5aabb03d67de028eaa8800465b6fe13b6b652e89cc83e4a489b05ed4",
      "s": "0x4a8c1b714308a9fb509cd7dfc589515b627ad9e125bca1aa5ed6b1ffad3509fb",
      "v": 27,
      "creates": null,
      "raw": "0xf88b819b860101d8c2708b830493e094c4c51de1abf5d60dbd329ec0f999fd8f021ae9fc80a4bd66528a6b6b6b00000000000000000000000000000000000000000000000000000000001ba0c8c1d41b5aabb03d67de028eaa8800465b6fe13b6b652e89cc83e4a489b05ed4a04a8c1b714308a9fb509cd7dfc589515b627ad9e125bca1aa5ed6b1ffad3509fb",
      "networkId": 0,
      "chainId": 0
    }
  ]
}