{
  "hash": "0x0377fa7446bb8586046f162ea62989579901a61e465f66cf73b5961204cd8d48",
  "parentHash": "0xfeb030d88dd46f35fb3f18f7ee611191cdb75841a8d329936c3c41ecc8928471",
  "number": 101382,
  "timestamp": 1439822183,
  "nonce": "0xf820ed4005948059",
  "difficulty": 3822443603448,
  "gasLimit": {
    "_hex": "0x2fefd8"
  },
  "gasUsed": {
    "_hex": "0x5208"
  },
  "miner": "0xe6A7a1d47ff21B6321162AEA7C6CB457D5476Bca",
  "extraData": "0x476574682f76312e302e312d38326566323666362f6c696e75782f676f312e34",
  "transactions": [
    {
      "hash": "0x88908c88cc1a3102db91f6171fec010315b1c9dc21b3ad1f5bb00432a876db60",
      "blockHash": "0x0377fa7446bb8586046f162ea62989579901a61e465f66cf73b5961204cd8d48",
      "blockNumber": 101382,
      "transactionIndex": 0,
      "confirmations": null,
      "from": "0x60794423f500DD2F95327fA1ffE71E428D2C0636",
      "gasPrice": {
        "_hex": "0x10c94d0d787"
      },
      "gasLimit": {
        "_hex": "0x4cb2f"
      },
      "to": "0x5FB181054Cdd53e106812529a8D545b2eC664E87",
      "value": {
        "_hex": "0x14d1120d7b160000"
      },
      "nonce": 1,
      "data": "0x",
      "r": "0xed84300a6eab55f1560028a7049a9eb20ef4fcdb0802c6ff1f8a9f6b3f3a81fd",
      "s": "0x7e9524d69bbabcee2a3f6a409a6ccd9330b939b075ee37cba01f74cd87ae2149",
      "v": 27,
      "creates": null,
      "raw": "0xf86e0186010c94d0d7878304cb2f945fb181054cdd53e106812529a8d545b2ec664e878814d1120d7b160000801ba0ed84300a6eab55f1560028a7049a9eb20ef4fcdb0802c6ff1f8a9f6b3f3a81fda07e9524d69bbabcee2a3f6a409a6ccd9330b939b075ee37cba01f74cd87ae2149",
      "networkId": 0,
      "chainId": 0
    }
  ]
}