{
  "hash": "0x3e957d561e2be45738b3c7a0be57cb2ae3c2549af7ffb44fcb5dd57a6695c972",
  "parentHash": "0x6d2e92e99be9e081ec9dc4723da174a78e5cc73d7bf8e244803e086125dae27b",
  "number": 51664,
  "timestamp": 1439008749,
  "nonce": "0xf04e799e4b5a2ed7",
  "difficulty": 1559667927635,
  "gasLimit": {
    "_hex": "0xcc618"
  },
  "gasUsed": {
    "_hex": "0x7a120"
  },
  "miner": "0x3f113041D56Dda809a245Fe338832c2D373e7c80",
  "extraData": "0x476574682f76312e302e312f77696e646f77732f676f312e342e32",
  "transactions": [
    {
      "hash": "0x06885edaf88156d2c262b06d93f3dcd8185fb2e13ccc9c2af431fd299946c859",
      "blockHash": "0x3e957d561e2be45738b3c7a0be57cb2ae3c2549af7ffb44fcb5dd57a6695c972",
      "blockNumber": 51664,
      "transactionIndex": 0,
      "confirmations": null,
      "from": "0xFCf9f6A78f06227522c6f948ec0119dA31680Ef7",
      "gasPrice": {
        "_hex": "0xe08813e25"
      },
      "gasLimit": {
        "_hex": "0x7a120"
      },
      "to": "0x109C4f2CCc82C4d77Bde15F306707320294Aea3F",
      "value": {
        "_hex": "0xde0b6b3a7640000"
      },
      "nonce": 52,
      "data": "0x",
      "r": "0x916662ce87fdfb7a033d01853c8cedf9236b195dca9e722a26a3dc9437fd3d03",
      "s": "0x5ec2940eaf91d106e28bd1a6043ceb224b19d0199f325965fa96995b0feb1042",
      "v": 27,
      "creates": null,
      "raw": "0xf86d34850e08813e258307a12094109c4f2ccc82c4d77bde15f306707320294aea3f880de0b6b3a7640000801ba0916662ce87fdfb7a033d01853c8cedf9236b195dca9e722a26a3dc9437fd3d03a05ec2940eaf91d106e28bd1a6043ceb224b19d0199f325965fa96995b0feb1042",
      "networkId": 0,
      "chainId": 0
    }
  ]
}