{
  "hash": "0x213a5ab5715b3dd950f5a15232fa3b5fb5ee9797a9f6b3a0fe56cfce6eff4c32",
  "parentHash": "0x7df33697453d14ce8126ec6ca5c8ab24830402f414a129f1e251bdcaca6e52f0",
  "number": 116910,
  "timestamp": 1440099938,
  "nonce": "0xced008144a343601",
  "difficulty": 4310738111303,
  "gasLimit": {
    "_hex": "0x2fefd8"
  },
  "gasUsed": {
    "_hex": "0x5208"
  },
  "miner": "0xbb7B8287f3F0a933474a79eAe42CBCa977791171",
  "extraData": "0xd783010003844765746887676f312e342e32856c696e7578",
  "transactions": [
    {
      "hash": "0x9d4674ba26ecfd5be8ad089b6cdd6bdcdf65bdf44c646e9594b62692f121a331",
      "blockHash": "0x213a5ab5715b3dd950f5a15232fa3b5fb5ee9797a9f6b3a0fe56cfce6eff4c32",
      "blockNumber": 116910,
      "transactionIndex": 0,
      "confirmations": null,
      "from": "0xc8ebccC5F5689Fa8659d83713341e5aD19349448",
      "gasPrice": {
        "_hex": "0xba43b7400"
      },
      "gasLimit": {
        "_hex": "0x5208"
      },
      "to": "0x0F87Fb507513e749081E34373c84E95e85b5c057",
      "value": {
        "_hex": "0xdc147cf9c0b2c00"
      },
      "nonce": 80,
      "data": "0x",
      "r": "0xeef221ebb8da60b68881529cf6d9778bd2ff663fcabf1d18ff1e28bb4c85bc05",
      "s": "0x0bb99617cdb8d034048bbd95dc2a6331798dc1a7b22359141853aa27c7408c1d",
      "v": 28,
      "creates": null,
      "raw": "0xf86c50850ba43b7400825208940f87fb507513e749081e34373c84e95e85b5c057880dc147cf9c0b2c00801ca0eef221ebb8da60b68881529cf6d9778bd2ff663fcabf1d18ff1e28bb4c85bc05a00bb99617cdb8d034048bbd95dc2a6331798dc1a7b22359141853aa27c7408c1d",
      "networkId": 0,
      "chainId": 0
    }
  ]
}