{
  "hash": "0xb046f1114feb1bf06738a6b23e5035eeaeb1086164f76f13d88c5601d6e56c6e",
  "parentHash": "0x161327d776cca73d8335c366674d43d24a35368d74dd2bc2c677388e275d48dd",
  "number": 104896,
  "timestamp": 1439877910,
  "nonce": "0x4c69fc7b715dcdd8",
  "difficulty": 4338046529757,
  "gasLimit": {
    "_hex": "0x2fefd8"
  },
  "gasUsed": {
    "_hex": "0x5208"
  },
  "miner": "0xe6A7a1d47ff21B6321162AEA7C6CB457D5476Bca",
  "extraData": "0x476574682f76312e302e312d38326566323666362f6c696e75782f676f312e34",
  "transactions": [
    {
      "hash": "0x031f6a7c196e8cc24b37b1bf2753bbde04a65df95104def3a8bd8f0d7ae6665b",
      "blockHash": "0xb046f1114feb1bf06738a6b23e5035eeaeb1086164f76f13d88c5601d6e56c6e",
      "blockNumber": 104896,
      "transactionIndex": 0,
      "confirmations": null,
      "from": "0x7884D470204862a0d1A21122F41ee77430396Ee5",
      "gasPrice": {
        "_hex": "0xdd831ad05"
      },
      "gasLimit": {
        "_hex": "0x15f90"
      },
      "to": "0xb7f6eB6c323B7073caE4cE4d487430225f37016c",
      "value": {
        "_hex": "0x186cc6acd4b0000"
      },
      "nonce": 96,
      "data": "0x",
      "r": "0xd8b3262042bb90adeeb6f7d643e2ee336f313ea5fd9f1c77bde806ecd27ba2ac",
      "s": "0x328c6eaf0fa2bbf60bc1a8e715aed1dfb18fca6cc68f810fe169981f00d1cc57",
      "v": 28,
      "creates": null,
      "raw": "0xf86d60850dd831ad0583015f9094b7f6eb6c323b7073cae4ce4d487430225f37016c880186cc6acd4b0000801ca0d8b3262042bb90adeeb6f7d643e2ee336f313ea5fd9f1c77bde806ecd27ba2aca0328c6eaf0fa2bbf60bc1a8e715aed1dfb18fca6cc68f810fe169981f00d1cc57",
      "networkId": 0,
      "chainId": 0
    }
  ]
}