{
  "hash": "0x0f5db57ad9bf156b2386cf2d349001dbb2f9474c9052a2bf8f887cdf3cc82bbb",
  "parentHash": "0xf1496a321ed94b2d5bc84c304dea33f4b36d702fa68377df00a95b1849b79830",
  "number": 78227,
  "timestamp": 1439450597,
  "nonce": "0x0b3a84287315685f",
  "difficulty": 2283213199958,
  "gasLimit": {
    "_hex": "0x2fefd8"
  },
  "gasUsed": {
    "_hex": "0x5208"
  },
  "miner": "0x01d9DA08cc6Fb97c0DE1B6F4C28910A0859Ed1A1",
  "extraData": "0x476574682f76312e302e312f6c696e75782f676f312e342e32",
  "transactions": [
    {
      "hash": "0x26318d4a122e615392b71da95381f499aaa1339f61e6c938ab10434b700371be",
      "blockHash": "0x0f5db57ad9bf156b2386cf2d349001dbb2f9474c9052a2bf8f887cdf3cc82bbb",
      "blockNumber": 78227,
      "transactionIndex": 0,
      "confirmations": null,
      "from": "0xA10C59651885FeAaac91F871082a23BBbaBeDfCf",
      "gasPrice": {
        "_hex": "0x10686b21762"
      },
      "gasLimit": {
        "_hex": "0x5208"
      },
      "to": "0x4c74B6F32c9680aCB5Fe0e72B7Aa95C612540A04",
      "value": {
        "_hex": "0x1158e460913d00000"
      },
      "nonce": 22,
      "data": "0x",
      "r": "0x9e3ec38b15a17c8066dcfbcb48fefbbd6acd4b7624f0f3d8226a752734a3a4b4",
      "s": "0x68e6b5fd960c7b3cb731c1c04e3e1c9b11fd9c46aea419a712891434beb1589b",
      "v": 27,
      "creates": null,
      "raw": "0xf86e1686010686b21762825208944c74b6f32c9680acb5fe0e72b7aa95c612540a048901158e460913d00000801ba09e3ec38b15a17c8066dcfbcb48fefbbd6acd4b7624f0f3d8226a752734a3a4b4a068e6b5fd960c7b3cb731c1c04e3e1c9b11fd9c46aea419a712891434beb1589b",
      "networkId": 0,
      "chainId": 0
    }
  ]
}