{
  "hash": "0x1effb4b16716d6aa0e71e2467e3eb3d680f009b3fbc5e6fc6599b3d8df5853c5",
  "parentHash": "0x715c1a2d13208ac43ca1204d0f8b141ee2f8026b3d44c4ea98af922c06fb991e",
  "number": 49996,
  "timestamp": 1438982536,
  "nonce": "0xdb008a4ae6cc7ce1",
  "difficulty": 1494367468679,
  "gasLimit": {
    "_hex": "0x4a211"
  },
  "gasUsed": {
    "_hex": "0x546c"
  },
  "miner": "0x9746c7e1ef2bd21FF3997fa467593a89cb852BD0",
  "extraData": "0x476574682f76312e302e312f77696e646f77732f676f312e342e32",
  "transactions": [
    {
      "hash": "0x2db6a80a9eec6f95bf990efb1de95caf554d84761db02c14ebfdb478ba167972",
      "blockHash": "0x1effb4b16716d6aa0e71e2467e3eb3d680f009b3fbc5e6fc6599b3d8df5853c5",
      "blockNumber": 49996,
      "transactionIndex": 0,
      "confirmations": null,
      "from": "0x2F85B3bF062769b2A2672200aFb21e3F4067a86d",
      "gasPrice": {
        "_hex": "0xd76c09eff"
      },
      "gasLimit": {
        "_hex": "0x15f90"
      },
      "to": "0x2910543Af39abA0Cd09dBb2D50200b3E800A63D2",
      "value": {
        "_hex": "0xde0b6b3a7640000"
      },
      "nonce": 0,
      "data": "0x454e48554550384530",
      "r": "0x07c996c78c7d446edfc14bbc9b7d6099506b321ac4b7a61b99a0f0ca05c21059",
      "s": "0x0c95fa80dd001e12043f5ba703d2ab8f0e4b077d94aa17ec85165c21535375d9",
      "v": 27,
      "creates": null,
      "raw": "0xf87680850d76c09eff83015f90942910543af39aba0cd09dbb2d50200b3e800a63d2880de0b6b3a764000089454e485545503845301ba007c996c78c7d446edfc14bbc9b7d6099506b321ac4b7a61b99a0f0ca05c21059a00c95fa80dd001e12043f5ba703d2ab8f0e4b077d94aa17ec85165c21535375d9",
      "networkId": 0,
      "chainId": 0
    }
  ]
}