{
  "hash": "0x55d8ea4a4d4b0e61bd4b57a59b12c2270e95c868e60f8055697cec751b28515e",
  "parentHash": "0x8c8b0cbc3c53796ef552e7d5304e0799139291e7d11a39286d4a4c0188186d77",
  "number": 85310,
  "timestamp": 1439561624,
  "nonce": "0xad1f9d4076de2c94",
  "difficulty": 2747728472985,
  "gasLimit": {
    "_hex": "0x2fefd8"
  },
  "gasUsed": {
    "_hex": "0xa410"
  },
  "miner": "0x60a175bB691fEE8557a7b6D8eFC9E49889486f41",
  "extraData": "0x476574682f76312e302e312f77696e646f77732f676f312e342e32",
  "transactions": [
    {
      "hash": "0x531bcbac00c9877ec8d605e71ba812b7cbd843380a88807e62f42aca86ab2b70",
      "blockHash": "0x55d8ea4a4d4b0e61bd4b57a59b12c2270e95c868e60f8055697cec751b28515e",
      "blockNumber": 85310,
      "transactionIndex": 0,
      "confirmations": null,
      "from": "0xA10C59651885FeAaac91F871082a23BBbaBeDfCf",
      "gasPrice": {
        "_hex": "0xffe19f3dc4"
      },
      "gasLimit": {
        "_hex": "0x5208"
      },
      "to": "0x4c74B6F32c9680aCB5Fe0e72B7Aa95C612540A04",
      "value": {
        "_hex": "0x1158e460913d00000"
      },
      "nonce": 28,
      "data": "0x",
      "r": "0x3e23b76e9a0d99c95a8cdf3066f5780987b0890ad60bf8b7ebc2198f69a83437",
      "s": "0x1ff6d24b63d3d3eb0daa1105abf4fc50ba52f4bb1b0f47b1d94c49a19f4f0611",
      "v": 28,
      "creates": null,
      "raw": "0xf86d1c85ffe19f3dc4825208944c74b6f32c9680acb5fe0e72b7aa95c612540a048901158e460913d00000801ca03e23b76e9a0d99c95a8cdf3066f5780987b0890ad60bf8b7ebc2198f69a83437a01ff6d24b63d3d3eb0daa1105abf4fc50ba52f4bb1b0f47b1d94c49a19f4f0611",
      "networkId": 0,
      "chainId": 0
    },
    {
      "hash": "0x7f6ce18a362488ef1aea03eaf3083f4ec9c30963cc1e10d32dfd69b2722a0bee",
      "blockHash": "0x55d8ea4a4d4b0e61bd4b57a59b12c2270e95c868e60f8055697cec751b28515e",
      "blockNumber": 85310,
      "transactionIndex": 1,
      "confirmations": null,
      "from": "0x2910543Af39abA0Cd09dBb2D50200b3E800A63D2",
      "gasPrice": {
        "_hex": "0xdb9f293fe"
      },
      "gasLimit": {
        "_hex": "0x5208"
      },
      "to": "0x2f86ba8019945f39edE131D38d4d8780884DA553",
      "value": {
        "_hex": "0x104344570ef14f8000"
      },
      "nonce": 606,
      "data": "0x",
      "r": "0xa4e640f886b315125ddb6a61d7f0a1e9ea12fe70f87bb25a6612500d7abbf86d",
      "s": "0x34453042c707b461e3b7f3cf98d33d5bee1e37e862a55829039535193f7b143f",
      "v": 28,
      "creates": null,
      "raw": "0xf86f82025e850db9f293fe825208942f86ba8019945f39ede131d38d4d8780884da55389104344570ef14f8000801ca0a4e640f886b315125ddb6a61d7f0a1e9ea12fe70f87bb25a6612500d7abbf86da034453042c707b461e3b7f3cf98d33d5bee1e37e862a55829039535193f7b143f",
      "networkId": 0,
      "chainId": 0
    }
  ]
}