{
  "hash": "0xc1c31330345ff0c7ed6f035e43e9259dd0956f4a3e5a381132605102725eecc9",
  "parentHash": "0xa22660cc13d0d7cf9873d7bb7716aaea092455ff1c998ef56221f47180c51b41",
  "number": 64756,
  "timestamp": 1439225818,
  "nonce": "0xfd29cc441c81267f",
  "difficulty": 1889423268891,
  "gasLimit": {
    "_hex": "0x2fefd5"
  },
  "gasUsed": {
    "_hex": "0x1b484"
  },
  "miner": "0xf8E0CA3Ed80bd541b94BEdCf259e8CF2141A9523",
  "extraData": "0x476574682f76312e302e312f77696e646f77732f676f312e342e32",
  "transactions": [
    {
      "hash": "0x1c59c82d2915b1ef1a76cd76b460d85d90a28776aa97a9c69b104518a5f2037b",
      "blockHash": "0xc1c31330345ff0c7ed6f035e43e9259dd0956f4a3e5a381132605102725eecc9",
      "blockNumber": 64756,
      "transactionIndex": 0,
      "confirmations": null,
      "from": "0x2910543Af39abA0Cd09dBb2D50200b3E800A63D2",
      "gasPrice": {
        "_hex": "0xd27107612"
      },
      "gasLimit": {
        "_hex": "0x5208"
      },
      "to": "0xD96719eF8eFF64F6e84Fd03120014834F4E76c40",
      "value": {
        "_hex": "0x3635b7ea4ca6bf8000"
      },
      "nonce": 152,
      "data": "0x",
      "r": "0x21fffacd6709bd370407c85c4a09f4b24df4ea891ce4a3a702a7b428eb03b27a",
      "s": "0x3b208eac84f1cf983d18f5db0a671d503e16abcd54f3bdfdd1f0271b95dcb60b",
      "v": 28,
      "creates": null,
      "raw": "0xf86e8198850d2710761282520894d96719ef8eff64f6e84fd03120014834f4e76c40893635b7ea4ca6bf8000801ca021fffacd6709bd370407c85c4a09f4b24df4ea891ce4a3a702a7b428eb03b27aa03b208eac84f1cf983d18f5db0a671d503e16abcd54f3bdfdd1f0271b95dcb60b",
      "networkId": 0,
      "chainId": 0
    },
    {
      "hash": "0x89985924cce10e5056283fe0e48fa0371ab41ddee0154924e572c62bac2d6da0",
      "blockHash": "0xc1c31330345ff0c7ed6f035e43e9259dd0956f4a3e5a381132605102725eecc9",
      "blockNumber": 64756,
      "transactionIndex": 1,
      "confirmations": null,
      "from": "0x2910543Af39abA0Cd09dBb2D50200b3E800A63D2",
      "gasPrice": {
        "_hex": "0xd27107612"
      },
      "gasLimit": {
        "_hex": "0x5208"
      },
      "to": "0xD96719eF8eFF64F6e84Fd03120014834F4E76c40",
      "value": {
        "_hex": "0x3635b7ea4ca6bf8000"
      },
      "nonce": 153,
      "data": "0x",
      "r": "0x4a2a812b772c29d26d618c6de3c83ec1f7ad3ce671feca8b16eab0e0def10e9d",
      "s": "0x06a4c5162ef0af41c6ad0737f48fb5c1f26ca8e8550463c3bf06dee4eab0a15e",
      "v": 28,
      "creates": null,
      "raw": "0xf86e8199850d2710761282520894d96719ef8eff64f6e84fd03120014834f4e76c40893635b7ea4ca6bf8000801ca04a2a812b772c29d26d618c6de3c83ec1f7ad3ce671feca8b16eab0e0def10e9da006a4c5162ef0af41c6ad0737f48fb5c1f26ca8e8550463c3bf06dee4eab0a15e",
      "networkId": 0,
      "chainId": 0
    },
    {
      "hash": "0xf3bb56f3d27325f798334901b023e1fd3f1072910a8ccc372b022b9b97530db7",
      "blockHash": "0xc1c31330345ff0c7ed6f035e43e9259dd0956f4a3e5a381132605102725eecc9",
      "blockNumber": 64756,
      "transactionIndex": 2,
      "confirmations": null,
      "from": "0xBce28A5adfB8D5fE41873FA641A0b8D9F1eecCc1",
      "gasPrice": {
        "_hex": "0xba43b7400"
      },
      "gasLimit": {
        "_hex": "0x15f90"
      },
      "to": "0x793AE8C1b1a160BFc07BFB0d04F85eab1A71F4f2",
      "value": {
        "_hex": "0x0"
      },
      "nonce": 0,
      "data": "0x3ba15036",
      "r": "0xb241d809edebfee1e5ac3729f518b4ae31802113cb2b03505ae9c4431b80500e",
      "s": "0x4a67920ac0fe137b3859422d1127660e206cec585bda07dd873ffd4e53113dcd",
      "v": 27,
      "creates": null,
      "raw": "0xf86980850ba43b740083015f9094793ae8c1b1a160bfc07bfb0d04f85eab1a71f4f280843ba150361ba0b241d809edebfee1e5ac3729f518b4ae31802113cb2b03505ae9c4431b80500ea04a67920ac0fe137b3859422d1127660e206cec585bda07dd873ffd4e53113dcd",
      "networkId": 0,
      "chainId": 0
    },
    {
      "hash": "0xcd142c3fc953fbd016eabde3c64139ecb08d5eb8422551ff3c59777207cd4802",
      "blockHash": "0xc1c31330345ff0c7ed6f035e43e9259dd0956f4a3e5a381132605102725eecc9",
      "blockNumber": 64756,
      "transactionIndex": 3,
      "confirmations": null,
      "from": "0xF22b579290f97cAE152e25729eC12A2f3aDa2310",
      "gasPrice": {
        "_hex": "0xba43b7400"
      },
      "gasLimit": {
        "_hex": "0x5208"
      },
      "to": "0x7A4B723cB1711674FE852808411ff18a14943181",
      "value": {
        "_hex": "0x653580cf6eb000"
      },
      "nonce": 1,
      "data": "0x",
      "r": "0x93057e72a072e128e33fcd0a89b3fffaa68949e4781ab6557c5c11512281ad6b",
      "s": "0x6574840792007b0bc024647870997158b93c30f89579f30f8c3c6fcedc2cd27b",
      "v": 27,
      "creates": null,
      "raw": "0xf86b01850ba43b7400825208947a4b723cb1711674fe852808411ff18a1494318187653580cf6eb000801ba093057e72a072e128e33fcd0a89b3fffaa68949e4781ab6557c5c11512281ad6ba06574840792007b0bc024647870997158b93c30f89579f30f8c3c6fcedc2cd27b",
      "networkId": 0,
      "chainId": 0
    }
  ]
}