{
  "hash": "0x2ed597b4fc81366a382eb95c082a7c633aa9acec59d10ed113334d0bd60a0dae",
  "parentHash": "0xd18988f662861d5d94633786de28cb17eab7fb841ee331645c7b48fff7cea216",
  "number": 105994,
  "timestamp": 1439896915,
  "nonce": "0x2c2f6cfb1ba4e669",
  "difficulty": 4457718102049,
  "gasLimit": {
    "_hex": "0x2fefd8"
  },
  "gasUsed": {
    "_hex": "0x5208"
  },
  "miner": "0xbb7B8287f3F0a933474a79eAe42CBCa977791171",
  "extraData": "0x476574682f4c5649562f76312e302e312f6c696e75782f676f312e342e32",
  "transactions": [
    {
      "hash": "0x410f2e79a5f809d05aba428a41c1d2ef3da27bc1f471a84c7c657b29f6af9382",
      "blockHash": "0x2ed597b4fc81366a382eb95c082a7c633aa9acec59d10ed113334d0bd60a0dae",
      "blockNumber": 105994,
      "transactionIndex": 0,
      "confirmations": null,
      "from": "0x120A270bbC009644e35F0bB6ab13f95b8199c4ad",
      "gasPrice": {
        "_hex": "0xe0097ffc7"
      },
      "gasLimit": {
        "_hex": "0x3d090"
      },
      "to": "0x60d85a32126130b225913C23dF4e5EF8b759fA09",
      "value": {
        "_hex": "0x28a857425466f80000"
      },
      "nonce": 774,
      "data": "0x",
      "r": "0xc02f20917df4c7c1200e3b4f8c1d952ed97b57690c0b626fb494775917e8d48b",
      "s": "0x3744311a28a87686cb092ab161c84d68d9c686937306ad052d4a16398e1dc86b",
      "v": 27,
      "creates": null,
      "raw": "0xf870820306850e0097ffc78303d0909460d85a32126130b225913c23df4e5ef8b759fa098928a857425466f80000801ba0c02f20917df4c7c1200e3b4f8c1d952ed97b57690c0b626fb494775917e8d48ba03744311a28a87686cb092ab161c84d68d9c686937306ad052d4a16398e1dc86b",
      "networkId": 0,
      "chainId": 0
    }
  ]
}