{
  "hash": "0xd4246299429a206ba8535bfd7cf2abf7dbd3c68e24f5b0b16e6c7bd32d33ecd8",
  "parentHash": "0x5456dc1ee7859a9a0b3bf49e49dbff0df3cdc671349785231a3918fdafa224e3",
  "number": 56754,
  "timestamp": 1439091952,
  "nonce": "0x69434b9fa9db12d7",
  "difficulty": 1690325054288,
  "gasLimit": {
    "_hex": "0x2fefd8"
  },
  "gasUsed": {
    "_hex": "0x546c"
  },
  "miner": "0x01d9DA08cc6Fb97c0DE1B6F4C28910A0859Ed1A1",
  "extraData": "0x476574682f76312e302e312f6c696e75782f676f312e342e32",
  "transactions": [
    {
      "hash": "0xd13e47629055a8a80a6cc0fee81bd70415bb8ee38d0805a8f2ccf51c4c445b1d",
      "blockHash": "0xd4246299429a206ba8535bfd7cf2abf7dbd3c68e24f5b0b16e6c7bd32d33ecd8",
      "blockNumber": 56754,
      "transactionIndex": 0,
      "confirmations": null,
      "from": "0x0A58fdDD71898de773A74FDAE45E7BD84eF43646",
      "gasPrice": {
        "_hex": "0x110c8f7d8de"
      },
      "gasLimit": {
        "_hex": "0xc350"
      },
      "to": "0x2910543Af39abA0Cd09dBb2D50200b3E800A63D2",
      "value": {
        "_hex": "0x107ad8f556c6c0000"
      },
      "nonce": 0,
      "data": "0x454e43344335354247",
      "r": "0xaeaafa4ed8f8eb8358a62c0a8149b0f6046e692f138613eb7f4a3f82d75bde5c",
      "s": "0x4150b7dcaf350d0a023025d9bc0746fc5ea738ac6dd695b58075de567f46f624",
      "v": 28,
      "creates": null,
      "raw": "0xf87780860110c8f7d8de82c350942910543af39aba0cd09dbb2d50200b3e800a63d2890107ad8f556c6c000089454e433443353542471ca0aeaafa4ed8f8eb8358a62c0a8149b0f6046e692f138613eb7f4a3f82d75bde5ca04150b7dcaf350d0a023025d9bc0746fc5ea738ac6dd695b58075de567f46f624",
      "networkId": 0,
      "chainId": 0
    }
  ]
}