{
  "hash": "0x6b4286b74741d787a16197e3ba18797065f1a99d81c920a1ac64caebcc054846",
  "parentHash": "0xa3985adb227fac62fc3abe3dfa68b8c4dd243d63412c5546d82aac420f343cf5",
  "number": 49491,
  "timestamp": 1438974266,
  "nonce": "0x86237ff330d95220",
  "difficulty": 1480656951822,
  "gasLimit": {
    "_hex": "0x32fa2"
  },
  "gasUsed": {
    "_hex": "0xa8d8"
  },
  "miner": "0xBD744E3F13D79B33F6c8E1d5E32F8E9BA2866c46",
  "extraData": "0x476574682f76312e302e312d38326566323666362f6c696e75782f676f312e34",
  "transactions": [
    {
      "hash": "0x2ae4ceaf58cf05a8ad3a21c79d2f64f4648e7a099e971e1670443a268a00e203",
      "blockHash": "0x6b4286b74741d787a16197e3ba18797065f1a99d81c920a1ac64caebcc054846",
      "blockNumber": 49491,
      "transactionIndex": 0,
      "confirmations": null,
      "from": "0x3712367E5e55a96D5A19168F6eb2Bc7e9971F869",
      "gasPrice": {
        "_hex": "0x110c8f7d8de"
      },
      "gasLimit": {
        "_hex": "0xc350"
      },
      "to": "0x2910543Af39abA0Cd09dBb2D50200b3E800A63D2",
      "value": {
        "_hex": "0x35d4a4aedc4ae40000"
      },
      "nonce": 2,
      "data": "0x454e4634434e463747",
      "r": "0xc431a72eac1dd130a7dfe3cebb775018c46c28313d090c43557028ac53a5dc84",
      "s": "0xd5605c6cc093dfc15620c7c509f59c8365f7a98dab98ccbef266071ce08d1ffd",
      "v": 28,
      "creates": null,
      "raw": "0xf87702860110c8f7d8de82c350942910543af39aba0cd09dbb2d50200b3e800a63d28935d4a4aedc4ae4000089454e4634434e4637471ca0c431a72eac1dd130a7dfe3cebb775018c46c28313d090c43557028ac53a5dc84a0d5605c6cc093dfc15620c7c509f59c8365f7a98dab98ccbef266071ce08d1ffd",
      "networkId": 0,
      "chainId": 0
    },
    {
      "hash": "0x022a70e4e858f714717e19e1ee48940ca7b7e13b75d969dd9f5f9624698ddab1",
      "blockHash": "0x6b4286b74741d787a16197e3ba18797065f1a99d81c920a1ac64caebcc054846",
      "blockNumber": 49491,
      "transactionIndex": 1,
      "confirmations": null,
      "from": "0x1918175e6aB029996E0BC00238AeA5f89f3F84ad",
      "gasPrice": {
        "_hex": "0x11053dd1d7c"
      },
      "gasLimit": {
        "_hex": "0x15f90"
      },
      "to": "0x2910543Af39abA0Cd09dBb2D50200b3E800A63D2",
      "value": {
        "_hex": "0xde0b6b3a7640000"
      },
      "nonce": 0,
      "data": "0x454e31303141345652",
      "r": "0x3a74b63d087cb96f63495b5d6d308c33075e9f04acb67eb2462b09be8429a008",
      "s": "0x6a67ba7cd53b1187f871c8f73c06b5b86ab81ea67a4c43f80863450cb4470d57",
      "v": 27,
      "creates": null,
      "raw": "0xf8778086011053dd1d7c83015f90942910543af39aba0cd09dbb2d50200b3e800a63d2880de0b6b3a764000089454e313031413456521ba03a74b63d087cb96f63495b5d6d308c33075e9f04acb67eb2462b09be8429a008a06a67ba7cd53b1187f871c8f73c06b5b86ab81ea67a4c43f80863450cb4470d57",
      "networkId": 0,
      "chainId": 0
    }
  ]
}