{
  "hash": "0xef7529ea322312ab326f894d7baf4899d50ed105b8f6f3fed73667b6b4a3e925",
  "parentHash": "0xd4f4e0a17f107c9491f3dc885800bd7a54d69817d05ea064aa907162783873fa",
  "number": 71577,
  "timestamp": 1439338353,
  "nonce": "0x48b82554f938d5d8",
  "difficulty": 2176130635957,
  "gasLimit": {
    "_hex": "0x2fefd8"
  },
  "gasUsed": {
    "_hex": "0x93b2"
  },
  "miner": "0xf927a40C8B7F6E07c5af7FA2155B4864a4112B13",
  "extraData": "0x",
  "transactions": [
    {
      "hash": "0x1f024ab0dcc3d16d76ab640088d732a849f0a06e2267b9c4b6f6ef81f1a31251",
      "blockHash": "0xef7529ea322312ab326f894d7baf4899d50ed105b8f6f3fed73667b6b4a3e925",
      "blockNumber": 71577,
      "transactionIndex": 0,
      "confirmations": null,
      "from": "0x17580B766f7453525ca4C6A88b01b50570EA088C",
      "gasPrice": {
        "_hex": "0xd9424910d"
      },
      "gasLimit": {
        "_hex": "0x61a80"
      },
      "to": "0x5Fe5B7546D1628f7348B023A0393de1FC825A4fD",
      "value": {
        "_hex": "0x29a2241af62c0000"
      },
      "nonce": 221,
      "data": "0xb595b8b50000000000000000000000000000000000000000000000000000000000000000",
      "r": "0x1733b29877c35fa4020ce3f64071100e06f6e80c955eed69a676b55debf720cc",
      "s": "0x05147c4e060bb45d51811616a562e7e17eec6834d9e6abd658f1a36a6c385ca8",
      "v": 28,
      "creates": null,
      "raw": "0xf89281dd850d9424910d83061a80945fe5b7546d1628f7348b023a0393de1fc825a4fd8829a2241af62c0000a4b595b8b500000000000000000000000000000000000000000000000000000000000000001ca01733b29877c35fa4020ce3f64071100e06f6e80c955eed69a676b55debf720cca005147c4e060bb45d51811616a562e7e17eec6834d9e6abd658f1a36a6c385ca8",
      "networkId": 0,
      "chainId": 0
    }
  ]
}