{
  "hash": "0x3a353f96acf953284d26001fb38c9e677f6c2c635d092969187ed984ec4da258",
  "parentHash": "0x76ea30c32deaf9109b5ac4d77038ea32ec2e6d9f729b4ec7b7066becf4ffecd5",
  "number": 75063,
  "timestamp": 1439397106,
  "nonce": "0xd1490b44e99e0c8b",
  "difficulty": 2181608581662,
  "gasLimit": {
    "_hex": "0x2fefd8"
  },
  "gasUsed": {
    "_hex": "0x5208"
  },
  "miner": "0x82efFBAaaf28614E55b2BA440FB198E0e5789B0f",
  "extraData": "0x476574682f44616e6b486173682f76312e302e312f77696e646f77732f676f31",
  "transactions": [
    {
      "hash": "0x7997cb0fbb1d79eb63975f38e24f924fa0087eeeb72fdfc063c5a8dba9a3bb0d",
      "blockHash": "0x3a353f96acf953284d26001fb38c9e677f6c2c635d092969187ed984ec4da258",
      "blockNumber": 75063,
      "transactionIndex": 0,
      "confirmations": null,
      "from": "0xBef07d97C3481f9D6aee1c98F9d91a180a32442B",
      "gasPrice": {
        "_hex": "0xdee9de8d9"
      },
      "gasLimit": {
        "_hex": "0x15f90"
      },
      "to": "0x71DF8F549b285B3b1037cd6b090B0E2dfE51Db90",
      "value": {
        "_hex": "0x28a857425466f800000"
      },
      "nonce": 2,
      "data": "0x",
      "r": "0xf963b5e7b02106f212684caba0db78ce256fd73d59fe6d153ece40a4c5c675f5",
      "s": "0x3f7be5b697f3da5c0791411c46e7cdbd34c7742bd8875f7244b29d8910bf3e84",
      "v": 27,
      "creates": null,
      "raw": "0xf86f02850dee9de8d983015f909471df8f549b285b3b1037cd6b090b0e2dfe51db908a028a857425466f800000801ba0f963b5e7b02106f212684caba0db78ce256fd73d59fe6d153ece40a4c5c675f5a03f7be5b697f3da5c0791411c46e7cdbd34c7742bd8875f7244b29d8910bf3e84",
      "networkId": 0,
      "chainId": 0
    }
  ]
}