{
  "hash": "0x56bb8eed78ba0f1b54d83c98df23d1c9d83e9b080c3475bd6a79ca29a16925db",
  "parentHash": "0x8606e3f4e961724a9dd7842141b475a9c6ac4426ea7b6c9bd72e582bd56987a2",
  "number": 92735,
  "timestamp": 1439676303,
  "nonce": "0x7c13341442b03f62",
  "difficulty": 3610387958757,
  "gasLimit": {
    "_hex": "0x2fefd8"
  },
  "gasUsed": {
    "_hex": "0x5208"
  },
  "miner": "0xe6A7a1d47ff21B6321162AEA7C6CB457D5476Bca",
  "extraData": "0x476574682f76312e302e312d38326566323666362f6c696e75782f676f312e34",
  "transactions": [
    {
      "hash": "0x49737765107595aff67e5120d776ac3e8d95d7f118d126506da1806e1d9e504a",
      "blockHash": "0x56bb8eed78ba0f1b54d83c98df23d1c9d83e9b080c3475bd6a79ca29a16925db",
      "blockNumber": 92735,
      "transactionIndex": 0,
      "confirmations": null,
      "from": "0x52191276589069F70F0E46bcCc718d793d1Aa1D0",
      "gasPrice": {
        "_hex": "0xda05ef908"
      },
      "gasLimit": {
        "_hex": "0x5208"
      },
      "to": "0x32Be343B94f860124dC4fEe278FDCBD38C102D88",
      "value": {
        "_hex": "0xddc644d2d057800"
      },
      "nonce": 5,
      "data": "0x",
      "r": "0x349573829ab4f2b0489574da375d8d78626ac1b9eb29c911a431078f7ca5de8d",
      "s": "0x34e2a2f6b6b8c401f10b8779b0244621942fcb59a97f336568a627ac4bf1b7b4",
      "v": 27,
      "creates": null,
      "raw": "0xf86c05850da05ef9088252089432be343b94f860124dc4fee278fdcbd38c102d88880ddc644d2d057800801ba0349573829ab4f2b0489574da375d8d78626ac1b9eb29c911a431078f7ca5de8da034e2a2f6b6b8c401f10b8779b0244621942fcb59a97f336568a627ac4bf1b7b4",
      "networkId": 0,
      "chainId": 0
    }
  ]
}