{
  "hash": "0x1d50645723f3d8bd8ad0db8bdcb2b34c306fbaedd727782cab9923af8bda0f5b",
  "parentHash": "0x2de9390c63913855bce808d21e23238ccbf282c1a4fc067385b88560e713a2c3",
  "number": 87221,
  "timestamp": 1439589085,
  "nonce": "0x662323426f6ff7cb",
  "difficulty": 3069106890308,
  "gasLimit": {
    "_hex": "0x2fefd8"
  },
  "gasUsed": {
    "_hex": "0x5208"
  },
  "miner": "0xe6A7a1d47ff21B6321162AEA7C6CB457D5476Bca",
  "extraData": "0x476574682f76312e302e312d38326566323666362f6c696e75782f676f312e34",
  "transactions": [
    {
      "hash": "0x5310d25958dd2b0c3201f441b595a14d52fd92b96768a0fb89175ffae0372247",
      "blockHash": "0x1d50645723f3d8bd8ad0db8bdcb2b34c306fbaedd727782cab9923af8bda0f5b",
      "blockNumber": 87221,
      "transactionIndex": 0,
      "confirmations": null,
      "from": "0x2910543Af39abA0Cd09dBb2D50200b3E800A63D2",
      "gasPrice": {
        "_hex": "0xd7b35da5f"
      },
      "gasLimit": {
        "_hex": "0x5208"
      },
      "to": "0x7bfD6E996c199d9b96dBCA90E354FCfcc893f748",
      "value": {
        "_hex": "0xc1f64108e21ce000"
      },
      "nonce": 698,
      "data": "0x",
      "r": "0x357f206f9611e6c048342b058f54322a6227acbf05a04dc15de08b10a6dd095c",
      "s": "0x09bb25a19ae1f03e5eb259311ae118ef9d28f6092a6f2288f59dce63ba491fcf",
      "v": 27,
      "creates": null,
      "raw": "0xf86e8202ba850d7b35da5f825208947bfd6e996c199d9b96dbca90e354fcfcc893f74888c1f64108e21ce000801ba0357f206f9611e6c048342b058f54322a6227acbf05a04dc15de08b10a6dd095ca009bb25a19ae1f03e5eb259311ae118ef9d28f6092a6f2288f59dce63ba491fcf",
      "networkId": 0,
      "chainId": 0
    }
  ]
}