{
  "hash": "0x04fa645f398c7053385555ad41b79d41593ac03cda5de5a605e3e12124a5a513",
  "parentHash": "0xca46e32a5d2060a01420608ef5b65853b3ab423f6a2018d2fd801a8590976509",
  "number": 103910,
  "timestamp": 1439860825,
  "nonce": "0x45bb426585fbfc88",
  "difficulty": 4262959137768,
  "gasLimit": {
    "_hex": "0x2fefd8"
  },
  "gasUsed": {
    "_hex": "0x5208"
  },
  "miner": "0x7E6930B63D03e88F5928C5cd6ee3FCee4D714F7F",
  "extraData": "0x",
  "transactions": [
    {
      "hash": "0x0c87dfbdb8284495c1ab80bfa1537f8813816248f1d41b35f0bd7d06686c9baa",
      "blockHash": "0x04fa645f398c7053385555ad41b79d41593ac03cda5de5a605e3e12124a5a513",
      "blockNumber": 103910,
      "transactionIndex": 0,
      "confirmations": null,
      "from": "0xC6Bf5B6558f2eE21F2E43d9fF9B5408A0Cb89413",
      "gasPrice": {
        "_hex": "0xcbdd9cc0e"
      },
      "gasLimit": {
        "_hex": "0x15f90"
      },
      "to": "0x1D3ffA437e5bce40fCC134f4E0ac62841E4A9E81",
      "value": {
        "_hex": "0x4a9b6384488000"
      },
      "nonce": 15,
      "data": "0x",
      "r": "0x228ee93afd0699af3fb49c0bdea3a2432d7c8a198405575a06cc3f0b6228a16b",
      "s": "0x634e9ea53425d5ed98ee868d9324aeada9ef4e47f57dda9b155bc793d50c2d96",
      "v": 28,
      "creates": null,
      "raw": "0xf86c0f850cbdd9cc0e83015f90941d3ffa437e5bce40fcc134f4e0ac62841e4a9e81874a9b6384488000801ca0228ee93afd0699af3fb49c0bdea3a2432d7c8a198405575a06cc3f0b6228a16ba0634e9ea53425d5ed98ee868d9324aeada9ef4e47f57dda9b155bc793d50c2d96",
      "networkId": 0,
      "chainId": 0
    }
  ]
}