{
  "hash": "0xd9b8b5407bf19e69e77072c3da70de0d8e676b0a215cc8f8b33318185785ca13",
  "parentHash": "0x280e46c57e91a2ecd22dc239bc78e616c6c8c8d5b943de29f44012a55d163988",
  "number": 122368,
  "timestamp": 1440193164,
  "nonce": "0xe1a0f3023c1eaaa9",
  "difficulty": 4488300529381,
  "gasLimit": {
    "_hex": "0x2fefd8"
  },
  "gasUsed": {
    "_hex": "0x5208"
  },
  "miner": "0x52bc44d5378309EE2abF1539BF71dE1b7d7bE3b5",
  "extraData": "0xd783010002844765746887676f312e342e32856c696e7578",
  "transactions": [
    {
      "hash": "0x7255ba5e680cc1fa5134b594829a6e29aea29f562b497c55a793714d593b0496",
      "blockHash": "0xd9b8b5407bf19e69e77072c3da70de0d8e676b0a215cc8f8b33318185785ca13",
      "blockNumber": 122368,
      "transactionIndex": 0,
      "confirmations": null,
      "from": "0xb1abce2918E21ddb93AA452731a12672A3d9F75a",
      "gasPrice": {
        "_hex": "0xcafbafecb"
      },
      "gasLimit": {
        "_hex": "0x5208"
      },
      "to": "0x32Be343B94f860124dC4fEe278FDCBD38C102D88",
      "value": {
        "_hex": "0x455f76086f14f400"
      },
      "nonce": 229,
      "data": "0x",
      "r": "0xd8b15c0d345efa955ae8b50c8800981cf245f1656b3107052b6b260614913ca7",
      "s": "0x64f48de95552956351a46611793ced010851f79f244bcbe86e985970aed35b8d",
      "v": 28,
      "creates": null,
      "raw": "0xf86d81e5850cafbafecb8252089432be343b94f860124dc4fee278fdcbd38c102d8888455f76086f14f400801ca0d8b15c0d345efa955ae8b50c8800981cf245f1656b3107052b6b260614913ca7a064f48de95552956351a46611793ced010851f79f244bcbe86e985970aed35b8d",
      "networkId": 0,
      "chainId": 0
    }
  ]
}