{
  "hash": "0x8f24a90743fb7f690589af01e2c0d35197409c106c1f27bfc4652245de17673a",
  "parentHash": "0x6f6ec8fb9170e8e2cac81eb1cebd81ff8bab46c53cb801265bea1c70e41e5607",
  "number": 82609,
  "timestamp": 1439522176,
  "nonce": "0x4db96a5e1f5cc34b",
  "difficulty": 2368296100926,
  "gasLimit": {
    "_hex": "0x2fefd8"
  },
  "gasUsed": {
    "_hex": "0x5208"
  },
  "miner": "0x53824166ea5271d3425e3194c848A90CA4e97eB2",
  "extraData": "0x476574682f76312e302e312f6c696e75782f676f312e342e32",
  "transactions": [
    {
      "hash": "0x0aeb2a96cf6957d8c13a42c64621fb4926a1c8d9d0f78d47a3485570fd3829a6",
      "blockHash": "0x8f24a90743fb7f690589af01e2c0d35197409c106c1f27bfc4652245de17673a",
      "blockNumber": 82609,
      "transactionIndex": 0,
      "confirmations": null,
      "from": "0x007f7f58D3eb5b7510A301eCC749FC1fCDDBE14D",
      "gasPrice": {
        "_hex": "0xcbb347107"
      },
      "gasLimit": {
        "_hex": "0x15f90"
      },
      "to": "0xb1abce2918E21ddb93AA452731a12672A3d9F75a",
      "value": {
        "_hex": "0x11e3ab8395c6e80000"
      },
      "nonce": 1,
      "data": "0x",
      "r": "0xf1f7c1ca701309dcfccdae45fd8c1b6ec420edf7a8b0e80cc33041fe4182882f",
      "s": "0x7af245f575404665225e68687b609b418928b6af8e561667b94ab83a975c1d5e",
      "v": 28,
      "creates": null,
      "raw": "0xf86e01850cbb34710783015f9094b1abce2918e21ddb93aa452731a12672a3d9f75a8911e3ab8395c6e80000801ca0f1f7c1ca701309dcfccdae45fd8c1b6ec420edf7a8b0e80cc33041fe4182882fa07af245f575404665225e68687b609b418928b6af8e561667b94ab83a975c1d5e",
      "networkId": 0,
      "chainId": 0
    }
  ]
}