{
  "hash": "0xc50f33c07591d59674870b1b6b5b6789964c54c892a9710b9d4bb67fd1c6457f",
  "parentHash": "0x56f946073b2064bbdb8826c809273cad942ddfa29c10c953da06f6a2f308f187",
  "number": 65400,
  "timestamp": 1439236278,
  "nonce": "0xf63107cc5e80498d",
  "difficulty": 1945446940807,
  "gasLimit": {
    "_hex": "0x2fefd8"
  },
  "gasUsed": {
    "_hex": "0x5208"
  },
  "miner": "0x88D74a59454F6cF3B51ef6b9136AFb6b9D405A88",
  "extraData": "0x476574682f76312e302e312d37666266393930632f6c696e75782f676f312e34",
  "transactions": [
    {
      "hash": "0x263eacd95ced1c0cd3c6a2f128ad7bfc595a82fa68f328034fa931d12ee1b9ac",
      "blockHash": "0xc50f33c07591d59674870b1b6b5b6789964c54c892a9710b9d4bb67fd1c6457f",
      "blockNumber": 65400,
      "transactionIndex": 0,
      "confirmations": null,
      "from": "0x4b0bd8ACfcBC53A6010B40D4D08Ddd2d9d69622d",
      "gasPrice": {
        "_hex": "0xd90923dba"
      },
      "gasLimit": {
        "_hex": "0x15f90"
      },
      "to": "0xF2C98425f9f22071AB4DFA15A34628246FEDc163",
      "value": {
        "_hex": "0x242f48da7c857d0000"
      },
      "nonce": 1,
      "data": "0x",
      "r": "0x9f5b8711101cf55a254b4ece958e41df2473c2e2d9ba16abae420f4d1a6fd50b",
      "s": "0x01e54135951b901e48fc61cbdad4b4e523036bd4a658887d695c9a2def85ab38",
      "v": 27,
      "creates": null,
      "raw": "0xf86e01850d90923dba83015f9094f2c98425f9f22071ab4dfa15a34628246fedc16389242f48da7c857d0000801ba09f5b8711101cf55a254b4ece958e41df2473c2e2d9ba16abae420f4d1a6fd50ba001e54135951b901e48fc61cbdad4b4e523036bd4a658887d695c9a2def85ab38",
      "networkId": 0,
      "chainId": 0
    }
  ]
}