{
  "hash": "0xc8010fd4b732df0bbc16a281baa4a115e2969e3761a01cc2121f5530474dd4ca",
  "parentHash": "0x53ac8a36e7f8bb69b86eb6687f245ad51c690fbc0660583c11624fa695e3c609",
  "number": 76780,
  "timestamp": 1439426015,
  "nonce": "0x3991de89beb15a8c",
  "difficulty": 2242720947159,
  "gasLimit": {
    "_hex": "0x2fefd8"
  },
  "gasUsed": {
    "_hex": "0xad77"
  },
  "miner": "0xf927a40C8B7F6E07c5af7FA2155B4864a4112B13",
  "extraData": "0x",
  "transactions": [
    {
      "hash": "0xcabf811d4347533e2be9533682083f8d7232db10a230d614e1f5d3b7fc68ec2c",
      "blockHash": "0xc8010fd4b732df0bbc16a281baa4a115e2969e3761a01cc2121f5530474dd4ca",
      "blockNumber": 76780,
      "transactionIndex": 0,
      "confirmations": null,
      "from": "0x87C5B5874A18B4306DF8a752a6C8cc3E82daFc19",
      "gasPrice": {
        "_hex": "0x10e937d1979"
      },
      "gasLimit": {
        "_hex": "0x493e0"
      },
      "to": "0xD79B4C6791784184e2755B2fC1659eaaB0f80456",
      "value": {
        "_hex": "0x0"
      },
      "nonce": 87,
      "data": "0x03750d940000000000000000000000008be84a3adfbc51c59023b2413766e229108c35de3037333939383431653437333733636500000000000000000000000000000000",
      "r": "0xb5879eef10730e43d4454553a7b759c3dea57f063623ac5d8998c57a89dac627",
      "s": "0x02a7a9195c0537af4218d021157e8d1bb56c9edc61e6163b80a07ee37b508820",
      "v": 27,
      "creates": null,
      "raw": "0xf8ab5786010e937d1979830493e094d79b4c6791784184e2755b2fc1659eaab0f8045680b84403750d940000000000000000000000008be84a3adfbc51c59023b2413766e229108c35de30373339393834316534373337336365000000000000000000000000000000001ba0b5879eef10730e43d4454553a7b759c3dea57f063623ac5d8998c57a89dac627a002a7a9195c0537af4218d021157e8d1bb56c9edc61e6163b80a07ee37b508820",
      "networkId": 0,
      "chainId": 0
    }
  ]
}