{
  "hash": "0xd6fa187906fed076440b07a7c6a17953417f721e27659061573f855a7c169ba6",
  "parentHash": "0x7d5a1924b1ca577399c0306383b53ccd0232f91287e4e92ec271e4697571dc63",
  "number": 110790,
  "timestamp": 1439979495,
  "nonce": "0x690588bb551fff50",
  "difficulty": 4394674183262,
  "gasLimit": {
    "_hex": "0x2fefd8"
  },
  "gasUsed": {
    "_hex": "0xa410"
  },
  "miner": "0xf8E0CA3Ed80bd541b94BEdCf259e8CF2141A9523",
  "extraData": "0x476574682f76312e302e312f77696e646f77732f676f312e342e32",
  "transactions": [
    {
      "hash": "0xc87d7d70b9ca6aaf24b82d34e6e1d6279704fb27b3626c2fed467f1939165c2b",
      "blockHash": "0xd6fa187906fed076440b07a7c6a17953417f721e27659061573f855a7c169ba6",
      "blockNumber": 110790,
      "transactionIndex": 0,
      "confirmations": null,
      "from": "0xe29AFa2051650D8C9549dF817E80ad5C7c398124",
      "gasPrice": {
        "_hex": "0xd8f03f2b1"
      },
      "gasLimit": {
        "_hex": "0x5208"
      },
      "to": "0x32Be343B94f860124dC4fEe278FDCBD38C102D88",
      "value": {
        "_hex": "0xc2459afb191f3800"
      },
      "nonce": 2,
      "data": "0x",
      "r": "0x17ee6621c2319fd1080d7ef448f6fa9bc278f77fda8d59dfa16151cb28ffb374",
      "s": "0x4ff68ff67ef533b9bffcc8ef956c39dc6fb9ffd2113e3958f55596287ca7d1d5",
      "v": 28,
      "creates": null,
      "raw": "0xf86c02850d8f03f2b18252089432be343b94f860124dc4fee278fdcbd38c102d8888c2459afb191f3800801ca017ee6621c2319fd1080d7ef448f6fa9bc278f77fda8d59dfa16151cb28ffb374a04ff68ff67ef533b9bffcc8ef956c39dc6fb9ffd2113e3958f55596287ca7d1d5",
      "networkId": 0,
      "chainId": 0
    },
    {
      "hash": "0x1ca8fc18521405dfa0200b27e9082b955715073c4249f626e3fbe273ccf849bd",
      "blockHash": "0xd6fa187906fed076440b07a7c6a17953417f721e27659061573f855a7c169ba6",
      "blockNumber": 110790,
      "transactionIndex": 1,
      "confirmations": null,
      "from": "0x4245271A2F40593fb9F66A98202b3Dc1a8593cD2",
      "gasPrice": {
        "_hex": "0xd52ed91b4"
      },
      "gasLimit": {
        "_hex": "0x15f90"
      },
      "to": "0x4245271A2F40593fb9F66A98202b3Dc1a8593cD2",
      "value": {
        "_hex": "0xb1a2bc2ec50000"
      },
      "nonce": 0,
      "data": "0x",
      "r": "0x045138de1dd829243aa4193b4cefe9f9edf9dede373cff254eeff3ffd4d83a2c",
      "s": "0x2d42c12058833c5b62818a049c1951146dc715ffb10639f8c0093be77eacbe09",
      "v": 27,
      "creates": null,
      "raw": "0xf86c80850d52ed91b483015f90944245271a2f40593fb9f66a98202b3dc1a8593cd287b1a2bc2ec50000801ba0045138de1dd829243aa4193b4cefe9f9edf9dede373cff254eeff3ffd4d83a2ca02d42c12058833c5b62818a049c1951146dc715ffb10639f8c0093be77eacbe09",
      "networkId": 0,
      "chainId": 0
    }
  ]
}