{
  "hash": "0xb8cd439edc510d2dc8a5c0d7c9c02f24164475586c60d547a9d8cfa28c7a189f",
  "parentHash": "0x9660cd5257888051b7341e45d18f5b3645d4b26a21c247103d2bb85a9cbb01b7",
  "number": 51833,
  "timestamp": 1439011808,
  "nonce": "0x00b5b01f28500fe7",
  "difficulty": 1554314816909,
  "gasLimit": {
    "_hex": "0xe46f3"
  },
  "gasUsed": {
    "_hex": "0x5208"
  },
  "miner": "0x01d9DA08cc6Fb97c0DE1B6F4C28910A0859Ed1A1",
  "extraData": "0x476574682f76312e302e312f6c696e75782f676f312e342e32",
  "transactions": [
    {
      "hash": "0xaa9c740dbcf1605606ec622a94ba9c6927498ba13296128feec6259fb6443093",
      "blockHash": "0xb8cd439edc510d2dc8a5c0d7c9c02f24164475586c60d547a9d8cfa28c7a189f",
      "blockNumber": 51833,
      "transactionIndex": 0,
      "confirmations": null,
      "from": "0xeD17Ea8E9fd42159037deE95ea173a56c54f55ce",
      "gasPrice": {
        "_hex": "0xe04d03d11"
      },
      "gasLimit": {
        "_hex": "0x5208"
      },
      "to": "0x32Be343B94f860124dC4fEe278FDCBD38C102D88",
      "value": {
        "_hex": "0x2707b9f98b3a1a000"
      },
      "nonce": 4,
      "data": "0x",
      "r": "0x01e9e9b0ec7ce28e8fa3fc301c0f6e4315aef9049cfcb048686cd86dc04123d5",
      "s": "0x2aa20fd530694576f97f4acfbf3dd48c8a05a7fcf1ae7cdda641e03403f1e495",
      "v": 27,
      "creates": null,
      "raw": "0xf86d04850e04d03d118252089432be343b94f860124dc4fee278fdcbd38c102d888902707b9f98b3a1a000801ba001e9e9b0ec7ce28e8fa3fc301c0f6e4315aef9049cfcb048686cd86dc04123d5a02aa20fd530694576f97f4acfbf3dd48c8a05a7fcf1ae7cdda641e03403f1e495",
      "networkId": 0,
      "chainId": 0
    }
  ]
}