{
  "hash": "0x5d1c233e098c33b9e96a96fbb51d40c6b1f1f69d4aaf40fd4478eb1854cefd8b",
  "parentHash": "0x91d35c21260d16e0b009477a060460bc83724a761853b624ccb8879504928ffd",
  "number": 63175,
  "timestamp": 1439200378,
  "nonce": "0x011009d67969e147",
  "difficulty": 1804120799223,
  "gasLimit": {
    "_hex": "0x2fefd8"
  },
  "gasUsed": {
    "_hex": "0x5208"
  },
  "miner": "0xE13f83e0288E460362D9E7421f0601fB88C4fd91",
  "extraData": "0x",
  "transactions": [
    {
      "hash": "0x190783701ffdb2967b8c66c663918fa5e2ab323179374f3955d2b71a1b4fc782",
      "blockHash": "0x5d1c233e098c33b9e96a96fbb51d40c6b1f1f69d4aaf40fd4478eb1854cefd8b",
      "blockNumber": 63175,
      "transactionIndex": 0,
      "confirmations": null,
      "from": "0xD397044FD43217C1E37c5c0Fb909608f5466b36c",
      "gasPrice": {
        "_hex": "0xd6b187d36"
      },
      "gasLimit": {
        "_hex": "0x15f90"
      },
      "to": "0x392Eea65EeecFF248653B606c028D0810dc83Bfe",
      "value": {
        "_hex": "0x56bc75e2d63100000"
      },
      "nonce": 0,
      "data": "0x",
      "r": "0x0c6ad650e5dfec1d71abbbe041b686d6a495a93dc978953c1f2668775ce083f6",
      "s": "0x3d5630c1471fa9d5c20f1cc84bd6dd717b9db2f249eaf6e4baedc02011085f3a",
      "v": 27,
      "creates": null,
      "raw": "0xf86e80850d6b187d3683015f9094392eea65eeecff248653b606c028d0810dc83bfe89056bc75e2d63100000801ba00c6ad650e5dfec1d71abbbe041b686d6a495a93dc978953c1f2668775ce083f6a03d5630c1471fa9d5c20f1cc84bd6dd717b9db2f249eaf6e4baedc02011085f3a",
      "networkId": 0,
      "chainId": 0
    }
  ]
}