{
  "hash": "0x5f8a62203b62452e3f45e464a3ab0e0263892ed09a57e9a5527a5df93435662a",
  "parentHash": "0xefb2beeaf0b0a5561cf4669673ead7825eb456b15a19dd5dca301b1140570cb9",
  "number": 83721,
  "timestamp": 1439539814,
  "nonce": "0x244b102ad486b53d",
  "difficulty": 2438382887088,
  "gasLimit": {
    "_hex": "0x2fefd8"
  },
  "gasUsed": {
    "_hex": "0x15de4"
  },
  "miner": "0x580992B51e3925e23280EfB93d3047C82f17E038",
  "extraData": "0x476574682f76312e302e312f6c696e75782f676f312e342e32",
  "transactions": [
    {
      "hash": "0xc9d73703beabf4b467d096e41f6c6e2ef81a5314491b1c77da1078c25e6df534",
      "blockHash": "0x5f8a62203b62452e3f45e464a3ab0e0263892ed09a57e9a5527a5df93435662a",
      "blockNumber": 83721,
      "transactionIndex": 0,
      "confirmations": null,
      "from": "0xC47Aaa860008be6f65B58c6C6E02a84e666EfE31",
      "gasPrice": {
        "_hex": "0xcf5ef1115"
      },
      "gasLimit": {
        "_hex": "0x15f90"
      },
      "to": "0x0F9c57Ebf3A5ba27b543bB64220caA7b4478B04b",
      "value": {
        "_hex": "0xde0b6b3a7640000"
      },
      "nonce": 12,
      "data": "0x",
      "r": "0x0f2273d65e8dee6ba635e58ba9e54950bb22ce465b2fb81a3380d893605e5f12",
      "s": "0x6ce8d4c6d72aa4628fb32b132e1e097f1155ddbbdf90ac6e6c90a78172970241",
      "v": 27,
      "creates": null,
      "raw": "0xf86d0c850cf5ef111583015f90940f9c57ebf3a5ba27b543bb64220caa7b4478b04b880de0b6b3a7640000801ba00f2273d65e8dee6ba635e58ba9e54950bb22ce465b2fb81a3380d893605e5f12a06ce8d4c6d72aa4628fb32b132e1e097f1155ddbbdf90ac6e6c90a78172970241",
      "networkId": 0,
      "chainId": 0
    },
    {
      "hash": "0xd5851d805b07c97b2128fc2e8040cce75fd0aef5ed02cea340b4597536fcfd0e",
      "blockHash": "0x5f8a62203b62452e3f45e464a3ab0e0263892ed09a57e9a5527a5df93435662a",
      "blockNumber": 83721,
      "transactionIndex": 1,
      "confirmations": null,
      "from": "0x0D4EcC7d750180EBf4A9Df728B6669B5Bceb5E40",
      "gasPrice": {
        "_hex": "0xccfdb2f5b"
      },
      "gasLimit": {
        "_hex": "0x5208"
      },
      "to": "0x32Be343B94f860124dC4fEe278FDCBD38C102D88",
      "value": {
        "_hex": "0x455f76887da2f000"
      },
      "nonce": 21,
      "data": "0x",
      "r": "0x3e75a8ffc6444dd5522b2ff3d24c248dd788c32ed67b257890f168561accaae9",
      "s": "0x1d17ce8f5bb32124150c79d800befd7eb2c6368a3a92c80973384222586f1aa7",
      "v": 27,
      "creates": null,
      "raw": "0xf86c15850ccfdb2f5b8252089432be343b94f860124dc4fee278fdcbd38c102d8888455f76887da2f000801ba03e75a8ffc6444dd5522b2ff3d24c248dd788c32ed67b257890f168561accaae9a01d17ce8f5bb32124150c79d800befd7eb2c6368a3a92c80973384222586f1aa7",
      "networkId": 0,
      "chainId": 0
    },
    {
      "hash": "0xcd5f185999fd6ef608a7ad2697cd7e8fd790a108b7a9a99a4a845dcc64957d1e",
      "blockHash": "0x5f8a62203b62452e3f45e464a3ab0e0263892ed09a57e9a5527a5df93435662a",
      "blockNumber": 83721,
      "transactionIndex": 2,
      "confirmations": null,
      "from": "0xc8ebccC5F5689Fa8659d83713341e5aD19349448",
      "gasPrice": {
        "_hex": "0xcba821453"
      },
      "gasLimit": {
        "_hex": "0x15f90"
      },
      "to": "0x96d76ae3397B52D9F61215270DF65D72358709E3",
      "value": {
        "_hex": "0x0"
      },
      "nonce": 63,
      "data": "0xbe99a980657468636f696e62617365000000000000000000000000000000000000000000000000000000000000000000c8ebccc5f5689fa8659d83713341e5ad193494480000000000000000000000000000000000000000000000000000000000000001",
      "r": "0xae53838e787f83259210ed20191c387afba535ad006d77eb5471d871db2153e5",
      "s": "0x68cc1e328ba9d2c968c19a70de6fdb71122b17565bab1c3f07c54624ce8b6706",
      "v": 27,
      "creates": null,
      "raw": "0xf8ca3f850cba82145383015f909496d76ae3397b52d9f61215270df65d72358709e380b864be99a980657468636f696e62617365000000000000000000000000000000000000000000000000000000000000000000c8ebccc5f5689fa8659d83713341e5ad1934944800000000000000000000000000000000000000000000000000000000000000011ba0ae53838e787f83259210ed20191c387afba535ad006d77eb5471d871db2153e5a068cc1e328ba9d2c968c19a70de6fdb71122b17565bab1c3f07c54624ce8b6706",
      "networkId": 0,
      "chainId": 0
    },
    {
      "hash": "0x34717c0d61991a9c1911ddb235389ec665a4fba86836500fd0ef8c00e2f0388b",
      "blockHash": "0x5f8a62203b62452e3f45e464a3ab0e0263892ed09a57e9a5527a5df93435662a",
      "blockNumber": 83721,
      "transactionIndex": 3,
      "confirmations": null,
      "from": "0xc8ebccC5F5689Fa8659d83713341e5aD19349448",
      "gasPrice": {
        "_hex": "0xcba821453"
      },
      "gasLimit": {
        "_hex": "0x15f90"
      },
      "to": "0x96d76ae3397B52D9F61215270DF65D72358709E3",
      "value": {
        "_hex": "0x0"
      },
      "nonce": 64,
      "data": "0xbe99a9806574680000000000000000000000000000000000000000000000000000000000000000000000000000000000c8ebccc5f5689fa8659d83713341e5ad193494480000000000000000000000000000000000000000000000000000000000000001",
      "r": "0x7875db1200c0c930fb1e8a61619744585bc4f9a8842ad58f730d601f1174b2f9",
      "s": "0x7b97285cebb02626386d8e43a92f97c3ea4ae07db966d8e7d418428d8523db2c",
      "v": 28,
      "creates": null,
      "raw": "0xf8ca40850cba82145383015f909496d76ae3397b52d9f61215270df65d72358709e380b864be99a9806574680000000000000000000000000000000000000000000000000000000000000000000000000000000000c8ebccc5f5689fa8659d83713341e5ad1934944800000000000000000000000000000000000000000000000000000000000000011ca07875db1200c0c930fb1e8a61619744585bc4f9a8842ad58f730d601f1174b2f9a07b97285cebb02626386d8e43a92f97c3ea4ae07db966d8e7d418428d8523db2c",
      "networkId": 0,
      "chainId": 0
    }
  ]
}