{
  "hash": "0xcd7d066eec35ab264bb986072640e279a333d1fc90d7b09e566eed5c8e75d715",
  "parentHash": "0xc0532d1774d2302560f82e5091e6c64e3c28ee1245ac889c463fafbdac44b799",
  "number": 98439,
  "timestamp": 1439772775,
  "nonce": "0x2cc7a05fa218af6e",
  "difficulty": 3870748000193,
  "gasLimit": {
    "_hex": "0x2fefd8"
  },
  "gasUsed": {
    "_hex": "0x5208"
  },
  "miner": "0xe6A7a1d47ff21B6321162AEA7C6CB457D5476Bca",
  "extraData": "0x476574682f76312e302e312d38326566323666362f6c696e75782f676f312e34",
  "transactions": [
    {
      "hash": "0xd42d021802d761821424b615a86a908d73282d4cd23b30ae774f97ae95c79dda",
      "blockHash": "0xcd7d066eec35ab264bb986072640e279a333d1fc90d7b09e566eed5c8e75d715",
      "blockNumber": 98439,
      "transactionIndex": 0,
      "confirmations": null,
      "from": "0x8F68fbE2DCFf038C24F650C9e05Ee478038171cd",
      "gasPrice": {
        "_hex": "0xd6d015017"
      },
      "gasLimit": {
        "_hex": "0x55f0"
      },
      "to": "0x645B979F8ce622236DB26feB803455d40C328615",
      "value": {
        "_hex": "0x6f05b59d3b20000"
      },
      "nonce": 22,
      "data": "0x",
      "r": "0x2450280d736b86953744ec1a9a7fb5ae3f9cb0f520c54f25e5e446bdb0b72fc8",
      "s": "0x50b841d18cd9c2b04e6a45bedc0646a8a8809e1e516e48c4a1f919dafb76e36c",
      "v": 28,
      "creates": null,
      "raw": "0xf86c16850d6d0150178255f094645b979f8ce622236db26feb803455d40c3286158806f05b59d3b20000801ca02450280d736b86953744ec1a9a7fb5ae3f9cb0f520c54f25e5e446bdb0b72fc8a050b841d18cd9c2b04e6a45bedc0646a8a8809e1e516e48c4a1f919dafb76e36c",
      "networkId": 0,
      "chainId": 0
    }
  ]
}