{
  "hash": "0x1f4fe4a97014227ad656c5e4980aef2984ab0e3688e7b5f7dd8eae55c3ef432c",
  "parentHash": "0x6e1c83df0cfd8f61b5e83b7e3cd19827cf3485fb825aacf9e182780cd3c0a4ba",
  "number": 102049,
  "timestamp": 1439832076,
  "nonce": "0xbee16605293f0018",
  "difficulty": 3907051706297,
  "gasLimit": {
    "_hex": "0x2fefd8"
  },
  "gasUsed": {
    "_hex": "0x5208"
  },
  "miner": "0xe6A7a1d47ff21B6321162AEA7C6CB457D5476Bca",
  "extraData": "0x476574682f76312e302e312d38326566323666362f6c696e75782f676f312e34",
  "transactions": [
    {
      "hash": "0xfe6bc9459ce167d776f7315d8d00f33c30f35dcd7838b8e80fdaa82b612a8235",
      "blockHash": "0x1f4fe4a97014227ad656c5e4980aef2984ab0e3688e7b5f7dd8eae55c3ef432c",
      "blockNumber": 102049,
      "transactionIndex": 0,
      "confirmations": null,
      "from": "0x2910543Af39abA0Cd09dBb2D50200b3E800A63D2",
      "gasPrice": {
        "_hex": "0xcff995cad"
      },
      "gasLimit": {
        "_hex": "0x5208"
      },
      "to": "0xA143616A882230de7571d01f1916F0A781d6480a",
      "value": {
        "_hex": "0x784cf652e9b3fb8000"
      },
      "nonce": 981,
      "data": "0x",
      "r": "0x165659c0af13b6f3539d94b80e1f92d1ba85884f551c6e55a6778e480326d116",
      "s": "0x067638f1d2aa76262468b7255c3cbe8a4d1037c9d43f68008aebc8923b795ed6",
      "v": 27,
      "creates": null,
      "raw": "0xf86f8203d5850cff995cad82520894a143616a882230de7571d01f1916f0a781d6480a89784cf652e9b3fb8000801ba0165659c0af13b6f3539d94b80e1f92d1ba85884f551c6e55a6778e480326d116a0067638f1d2aa76262468b7255c3cbe8a4d1037c9d43f68008aebc8923b795ed6",
      "networkId": 0,
      "chainId": 0
    }
  ]
}