{
  "hash": "0x1c26408cfa4cd4dcb9ad5434d042e11858d91eeef42de08c57a1ad2d562172d7",
  "parentHash": "0xfebbcc5632b8219f7758a5b89b450df1cfb3af0fa72dfbcc95a23475cdb60299",
  "number": 68855,
  "timestamp": 1439294776,
  "nonce": "0xa58b1fca1e6665df",
  "difficulty": 2015212010963,
  "gasLimit": {
    "_hex": "0x2fefd8"
  },
  "gasUsed": {
    "_hex": "0x5208"
  },
  "miner": "0x2134e2a2b718DCa96580ECAC31E653Ea1fdd58DA",
  "extraData": "0x476574682f76312e302e312f77696e646f77732f676f312e342e32",
  "transactions": [
    {
      "hash": "0x0582077fa08aa42dace696fadd2e237ab8ee3e6de12b1aa03e14310283efb30e",
      "blockHash": "0x1c26408cfa4cd4dcb9ad5434d042e11858d91eeef42de08c57a1ad2d562172d7",
      "blockNumber": 68855,
      "transactionIndex": 0,
      "confirmations": null,
      "from": "0x6747f922385c9a6F9cfDf095F34345257DD597bE",
      "gasPrice": {
        "_hex": "0xba43b7400"
      },
      "gasLimit": {
        "_hex": "0x5208"
      },
      "to": "0x78a89F9180293922642E6D2dC8E9535A1ec6177c",
      "value": {
        "_hex": "0x1fcbfa42bd6000"
      },
      "nonce": 130,
      "data": "0x",
      "r": "0xf09272857353ce0e0b5cd733bd6598e06a3cc3ef8e5a28ca5fcf1076e14d5a6a",
      "s": "0x4b73b7c1e481f3fef16a2b6dfc130658911caf5743d908dab59dd2cf189c7faa",
      "v": 28,
      "creates": null,
      "raw": "0xf86c8182850ba43b74008252089478a89f9180293922642e6d2dc8e9535a1ec6177c871fcbfa42bd6000801ca0f09272857353ce0e0b5cd733bd6598e06a3cc3ef8e5a28ca5fcf1076e14d5a6aa04b73b7c1e481f3fef16a2b6dfc130658911caf5743d908dab59dd2cf189c7faa",
      "networkId": 0,
      "chainId": 0
    }
  ]
}