{
  "hash": "0x77d04825a70e2c60438d24b18ad550a2fdd9eb743fa87b959c6c864259672505",
  "parentHash": "0x565b135bf2e93c0d5a243f4d77a7d754c360825fd33542a741e973e8e963fc13",
  "number": 82217,
  "timestamp": 1439515494,
  "nonce": "0x26e583b1ec7951c5",
  "difficulty": 2384652520244,
  "gasLimit": {
    "_hex": "0x2fefd8"
  },
  "gasUsed": {
    "_hex": "0x5208"
  },
  "miner": "0x72e3Ea8234b449531A581F05f1c1E07cceb559d2",
  "extraData": "0x476574682f76312e302e312f6c696e75782f676f312e342e32",
  "transactions": [
    {
      "hash": "0x19e3913760b17aee47892e183436c42160d08e0152abe898f4a70f0a1f94cf3c",
      "blockHash": "0x77d04825a70e2c60438d24b18ad550a2fdd9eb743fa87b959c6c864259672505",
      "blockNumber": 82217,
      "transactionIndex": 0,
      "confirmations": null,
      "from": "0x28cF1915522F9744EF20294FAeBe6575e2fd5F38",
      "gasPrice": {
        "_hex": "0xcba5203df"
      },
      "gasLimit": {
        "_hex": "0x15f90"
      },
      "to": "0x97de56aE219114BEE14B61009E4F82a8F20a9c70",
      "value": {
        "_hex": "0x4563918244f40000"
      },
      "nonce": 1,
      "data": "0x",
      "r": "0x568a1f3a305727f9028cefb897a803c58906c6871a0467153d95e72e322d626e",
      "s": "0x0aaa5ccc66ec913e1f6ea5744eb9c63f2e03fe70eb9087a0c51219d08e788bce",
      "v": 27,
      "creates": null,
      "raw": "0xf86d01850cba5203df83015f909497de56ae219114bee14b61009e4f82a8f20a9c70884563918244f40000801ba0568a1f3a305727f9028cefb897a803c58906c6871a0467153d95e72e322d626ea00aaa5ccc66ec913e1f6ea5744eb9c63f2e03fe70eb9087a0c51219d08e788bce",
      "networkId": 0,
      "chainId": 0
    }
  ]
}