{
  "hash": "0x189b12fe6c000270efa0ab7b3a1b9035ff9e941ca4236fc161ca12bd265974e0",
  "parentHash": "0x3c159a98c372f629f28c3ebf7ddac36cb4ebec66d36926ad18cc0cc54ecd3815",
  "number": 117907,
  "timestamp": 1440117314,
  "nonce": "0x2503f38824396345",
  "difficulty": 4350399316516,
  "gasLimit": {
    "_hex": "0x2fefd8"
  },
  "gasUsed": {
    "_hex": "0xf618"
  },
  "miner": "0x608f4b86321a68453f9adf6F06F7Fc3E621739ad",
  "extraData": "0xd783010002844765746887676f312e342e32856c696e7578",
  "transactions": [
    {
      "hash": "0x2acec388ce254e66c74479ef2578624f5d16e89209c475bc9f31c177061b2a25",
      "blockHash": "0x189b12fe6c000270efa0ab7b3a1b9035ff9e941ca4236fc161ca12bd265974e0",
      "blockNumber": 117907,
      "transactionIndex": 0,
      "confirmations": null,
      "from": "0xA4b566f129e5810957eF8cC2F750383E488D35Dd",
      "gasPrice": {
        "_hex": "0xba43b7400"
      },
      "gasLimit": {
        "_hex": "0x5208"
      },
      "to": "0x32Be343B94f860124dC4fEe278FDCBD38C102D88",
      "value": {
        "_hex": "0x1bef54670af39000"
      },
      "nonce": 8,
      "data": "0x",
      "r": "0xa86c463c36ac32ca24480266653accf00389d9e6097d1d85ef4a911d9f95c0be",
      "s": "0x73edddf28afc1dee4310b81400b47be13a6df3d9a7f40f5a3694533bf9f12929",
      "v": 28,
      "creates": null,
      "raw": "0xf86c08850ba43b74008252089432be343b94f860124dc4fee278fdcbd38c102d88881bef54670af39000801ca0a86c463c36ac32ca24480266653accf00389d9e6097d1d85ef4a911d9f95c0bea073edddf28afc1dee4310b81400b47be13a6df3d9a7f40f5a3694533bf9f12929",
      "networkId": 0,
      "chainId": 0
    },
    {
      "hash": "0xed4eb7b75285b89c97c56e7a886958d2635aa5b2cf92ab199e64fd02e25819fc",
      "blockHash": "0x189b12fe6c000270efa0ab7b3a1b9035ff9e941ca4236fc161ca12bd265974e0",
      "blockNumber": 117907,
      "transactionIndex": 1,
      "confirmations": null,
      "from": "0xA971748c4C493bC96C7d490E1789481e1E96bB10",
      "gasPrice": {
        "_hex": "0xba43b7400"
      },
      "gasLimit": {
        "_hex": "0x5208"
      },
      "to": "0x32Be343B94f860124dC4fEe278FDCBD38C102D88",
      "value": {
        "_hex": "0x7f9dada562d8b800"
      },
      "nonce": 8,
      "data": "0x",
      "r": "0xb6978083dcf2c7740bbb0551b86b78fb2b340fcde3b55fd0f3534998e615cf1b",
      "s": "0x2fc8d0708e5e74d2156cba446f6501f989022798e875b611e9bc8a477a0866c8",
      "v": 27,
      "creates": null,
      "raw": "0xf86c08850ba43b74008252089432be343b94f860124dc4fee278fdcbd38c102d88887f9dada562d8b800801ba0b6978083dcf2c7740bbb0551b86b78fb2b340fcde3b55fd0f3534998e615cf1ba02fc8d0708e5e74d2156cba446f6501f989022798e875b611e9bc8a477a0866c8",
      "networkId": 0,
      "chainId": 0
    },
    {
      "hash": "0xb89c60fe155c9c0b2bf314af71929ddfe690c9986439e4ee9f2d74f7b3745520",
      "blockHash": "0x189b12fe6c000270efa0ab7b3a1b9035ff9e941ca4236fc161ca12bd265974e0",
      "blockNumber": 117907,
      "transactionIndex": 2,
      "confirmations": null,
      "from": "0xf0c896DB24137eDA6Ec88cF1a95217F8604aE55e",
      "gasPrice": {
        "_hex": "0xba43b7400"
      },
      "gasLimit": {
        "_hex": "0x5208"
      },
      "to": "0x32Be343B94f860124dC4fEe278FDCBD38C102D88",
      "value": {
        "_hex": "0x93e0d2dbd6ae2000"
      },
      "nonce": 8,
      "data": "0x",
      "r": "0x2f2fcf2228339236fc53ec3dc9580517be072286166af7a3f0ff8b34dbd7545f",
      "s": "0x678cf635f31b822902a4ffbe8c918980f0c0ce2bd892f561fb2d532e72f35be2",
      "v": 27,
      "creates": null,
      "raw": "0xf86c08850ba43b74008252089432be343b94f860124dc4fee278fdcbd38c102d888893e0d2dbd6ae2000801ba02f2fcf2228339236fc53ec3dc9580517be072286166af7a3f0ff8b34dbd7545fa0678cf635f31b822902a4ffbe8c918980f0c0ce2bd892f561fb2d532e72f35be2",
      "networkId": 0,
      "chainId": 0
    }
  ]
}