{
  "hash": "0xd27f067153e227cb7f8c6f9fd067549bac85384753d003dd0996d90df319ad3b",
  "parentHash": "0xb9fd3bcb31f3fb172dfbe519ce936d7df308339b6f9a21a03a5f5f49e24b594a",
  "number": 68994,
  "timestamp": 1439296851,
  "nonce": "0x484c46f46537bc9a",
  "difficulty": 2035948376859,
  "gasLimit": {
    "_hex": "0x2fefd8"
  },
  "gasUsed": {
    "_hex": "0x23e38"
  },
  "miner": "0x33b01a7fe4A1a5F774Bb73f89A4eF15a6Ffe1141",
  "extraData": "0x476574682f76312e302e312f6c696e75782f676f312e342e32",
  "transactions": [
    {
      "hash": "0x14d3b6730a8b8578c3defacf7161a6ef878be38b394f748614fb938a487995eb",
      "blockHash": "0xd27f067153e227cb7f8c6f9fd067549bac85384753d003dd0996d90df319ad3b",
      "blockNumber": 68994,
      "transactionIndex": 0,
      "confirmations": null,
      "from": "0x8A2aaBa303FE72A487Ec054c54867323B94fEebb",
      "gasPrice": {
        "_hex": "0xba43b7400"
      },
      "gasLimit": {
        "_hex": "0x5208"
      },
      "to": "0x2D694F71fb46d4CceE8F463f9220B3527Ca961ce",
      "value": {
        "_hex": "0x14c95414f131000"
      },
      "nonce": 1,
      "data": "0x",
      "r": "0xb31c78ea98117d3ddfec73214d4c78c2e9fc95a815b3f0c6d05ab1ec086b6f69",
      "s": "0x6b9fee2011cdadeb38da25e36755abce94a7aa2c3ef1c224764ee9e132635810",
      "v": 27,
      "creates": null,
      "raw": "0xf86c01850ba43b7400825208942d694f71fb46d4ccee8f463f9220b3527ca961ce88014c95414f131000801ba0b31c78ea98117d3ddfec73214d4c78c2e9fc95a815b3f0c6d05ab1ec086b6f69a06b9fee2011cdadeb38da25e36755abce94a7aa2c3ef1c224764ee9e132635810",
      "networkId": 0,
      "chainId": 0
    },
    {
      "hash": "0x30718b2e33baf1e221b064f223a4c579cf8d26a6debf295a68e5892d4e33453e",
      "blockHash": "0xd27f067153e227cb7f8c6f9fd067549bac85384753d003dd0996d90df319ad3b",
      "blockNumber": 68994,
      "transactionIndex": 1,
      "confirmations": null,
      "from": "0xD117Ee50F0823e01C7B65459BcEbdA7E7Ba178Fd",
      "gasPrice": {
        "_hex": "0xba43b7400"
      },
      "gasLimit": {
        "_hex": "0x5208"
      },
      "to": "0xF57eD42D1684BD96f3C6d6fdEEa1D4285409dF55",
      "value": {
        "_hex": "0x14c95414f131000"
      },
      "nonce": 1,
      "data": "0x",
      "r": "0x79b996c0620f9117f8b696196e5d8472688f1d2ea7fcb384488495bea02c0c7a",
      "s": "0x6b0a5188157690702a377e9ccdc1df723fa1f1934a5832e96427f79d0dbbae3d",
      "v": 27,
      "creates": null,
      "raw": "0xf86c01850ba43b740082520894f57ed42d1684bd96f3c6d6fdeea1d4285409df5588014c95414f131000801ba079b996c0620f9117f8b696196e5d8472688f1d2ea7fcb384488495bea02c0c7aa06b0a5188157690702a377e9ccdc1df723fa1f1934a5832e96427f79d0dbbae3d",
      "networkId": 0,
      "chainId": 0
    },
    {
      "hash": "0x795340b86292369623dd28e6c8ec8f99a1ea601dab5a4a67597015c3b1623285",
      "blockHash": "0xd27f067153e227cb7f8c6f9fd067549bac85384753d003dd0996d90df319ad3b",
      "blockNumber": 68994,
      "transactionIndex": 2,
      "confirmations": null,
      "from": "0x51f0473F176e2dfC10BdABcD13C9f7eBc2a7C793",
      "gasPrice": {
        "_hex": "0xba43b7400"
      },
      "gasLimit": {
        "_hex": "0x5208"
      },
      "to": "0xd3dA5aBa44a85575c1d2585Ff7394BFFd03e1543",
      "value": {
        "_hex": "0x14c95414f131000"
      },
      "nonce": 1,
      "data": "0x",
      "r": "0xb60851844ccaa3e8f5b3af2cbd82f35ec52ccf07a4ceb66d45f6d82057e0e363",
      "s": "0x645f38eb31c3d8a3cc88ccff50254ff3f523d3f1a7dfd1c060741f6d72f73df5",
      "v": 28,
      "creates": null,
      "raw": "0xf86c01850ba43b740082520894d3da5aba44a85575c1d2585ff7394bffd03e154388014c95414f131000801ca0b60851844ccaa3e8f5b3af2cbd82f35ec52ccf07a4ceb66d45f6d82057e0e363a0645f38eb31c3d8a3cc88ccff50254ff3f523d3f1a7dfd1c060741f6d72f73df5",
      "networkId": 0,
      "chainId": 0
    },
    {
      "hash": "0x1ff6a2baf8aea6b105576813278bebd70b252c113d1087b2bff31834bb620d77",
      "blockHash": "0xd27f067153e227cb7f8c6f9fd067549bac85384753d003dd0996d90df319ad3b",
      "blockNumber": 68994,
      "transactionIndex": 3,
      "confirmations": null,
      "from": "0xF30E3dc0553011c3327658Ec283c331B062fEc1f",
      "gasPrice": {
        "_hex": "0xba43b7400"
      },
      "gasLimit": {
        "_hex": "0x5208"
      },
      "to": "0xd0ea8dADaB8E64017584671562E0c8E1a0d79bCe",
      "value": {
        "_hex": "0x14c95414f131000"
      },
      "nonce": 1,
      "data": "0x",
      "r": "0x98c951b6bf6d87379e2da3e187bfdb725ead9e149161f6b0fa996a99b7ac65cc",
      "s": "0x6719e7fba094e2b4fbc8d683883b86bbd340e3e53d675ce91c76fadd6301344b",
      "v": 27,
      "creates": null,
      "raw": "0xf86c01850ba43b740082520894d0ea8dadab8e64017584671562e0c8e1a0d79bce88014c95414f131000801ba098c951b6bf6d87379e2da3e187bfdb725ead9e149161f6b0fa996a99b7ac65cca06719e7fba094e2b4fbc8d683883b86bbd340e3e53d675ce91c76fadd6301344b",
      "networkId": 0,
      "chainId": 0
    },
    {
      "hash": "0x730a469943f65e544f544a79c27448734720eed432a21d244dd6a1fa56edbbd8",
      "blockHash": "0xd27f067153e227cb7f8c6f9fd067549bac85384753d003dd0996d90df319ad3b",
      "blockNumber": 68994,
      "transactionIndex": 4,
      "confirmations": null,
      "from": "0x8da76380dd7286c9DFd12434Cdd64723f4CDE3eb",
      "gasPrice": {
        "_hex": "0xba43b7400"
      },
      "gasLimit": {
        "_hex": "0x5208"
      },
      "to": "0xF1CDf512d207d61f8aA6D29234c5eB17fe0FfB4F",
      "value": {
        "_hex": "0x14c95414f131000"
      },
      "nonce": 1,
      "data": "0x",
      "r": "0x84e6383e45dd907f0e09b2f90e85da335a73fc4263ada3eff49b2a081cfb656e",
      "s": "0x4de94dfaf80b5978baa473a0d3a940ced43d4428425feb1621bcd89f4a1a2a7d",
      "v": 27,
      "creates": null,
      "raw": "0xf86c01850ba43b740082520894f1cdf512d207d61f8aa6d29234c5eb17fe0ffb4f88014c95414f131000801ba084e6383e45dd907f0e09b2f90e85da335a73fc4263ada3eff49b2a081cfb656ea04de94dfaf80b5978baa473a0d3a940ced43d4428425feb1621bcd89f4a1a2a7d",
      "networkId": 0,
      "chainId": 0
    },
    {
      "hash": "0x0e3cbc17ed646755b03aa564b05f128e4a6d13df84cd78d6bb6447546369a7f0",
      "blockHash": "0xd27f067153e227cb7f8c6f9fd067549bac85384753d003dd0996d90df319ad3b",
      "blockNumber": 68994,
      "transactionIndex": 5,
      "confirmations": null,
      "from": "0xfF7b96745B3F433D2019B0beCCfA24349482DF88",
      "gasPrice": {
        "_hex": "0xba43b7400"
      },
      "gasLimit": {
        "_hex": "0x5208"
      },
      "to": "0x934d3bB3Ca92c33CDEC0d490136D38FF8dDF31e2",
      "value": {
        "_hex": "0x14c95414f131000"
      },
      "nonce": 1,
      "data": "0x",
      "r": "0xafe42ac93573ca7354d71e9e0b12cb7c3c801d008d3b715027ac695c46e26e7e",
      "s": "0x17c7d86a50d076fa2409947fcdc4243f377136215c36f06e70682fd3ab407229",
      "v": 27,
      "creates": null,
      "raw": "0xf86c01850ba43b740082520894934d3bb3ca92c33cdec0d490136d38ff8ddf31e288014c95414f131000801ba0afe42ac93573ca7354d71e9e0b12cb7c3c801d008d3b715027ac695c46e26e7ea017c7d86a50d076fa2409947fcdc4243f377136215c36f06e70682fd3ab407229",
      "networkId": 0,
      "chainId": 0
    },
    {
      "hash": "0x44bbd66fb52d2721cdf646d052f63a0219d1b4cbf2ae9028bcbf5ba9a2525819",
      "blockHash": "0xd27f067153e227cb7f8c6f9fd067549bac85384753d003dd0996d90df319ad3b",
      "blockNumber": 68994,
      "transactionIndex": 6,
      "confirmations": null,
      "from": "0xf5Ced1b97849293E45CAa5C74921f414904a9B95",
      "gasPrice": {
        "_hex": "0xba43b7400"
      },
      "gasLimit": {
        "_hex": "0x5208"
      },
      "to": "0x5D5fe3Ed924f010c7e90E9FcBdb2808A1d35Ef6c",
      "value": {
        "_hex": "0x14c95414f131000"
      },
      "nonce": 1,
      "data": "0x",
      "r": "0x5eaa605ba02227753791bb4853ece04b29786e1ddbec46ff9bdd47c2e3cc32ab",
      "s": "0x6d5fc7641dd831003f70a5717d17750ef5652549d7684c7bbab632878384818b",
      "v": 27,
      "creates": null,
      "raw": "0xf86c01850ba43b7400825208945d5fe3ed924f010c7e90e9fcbdb2808a1d35ef6c88014c95414f131000801ba05eaa605ba02227753791bb4853ece04b29786e1ddbec46ff9bdd47c2e3cc32aba06d5fc7641dd831003f70a5717d17750ef5652549d7684c7bbab632878384818b",
      "networkId": 0,
      "chainId": 0
    }
  ]
}