{
  "hash": "0x706d4f848f00d2798f261749181152dc99d2d736a0078308cb5ac0edff82c2b2",
  "parentHash": "0x8adb10814a7ae0150d9a472bc4fd95c3743a31bb6f29d5fd38bc36d8ada5e9e1",
  "number": 95490,
  "timestamp": 1439724930,
  "nonce": "0xeb4e373cd73ff8ae",
  "difficulty": 3607440548093,
  "gasLimit": {
    "_hex": "0x2fefd8"
  },
  "gasUsed": {
    "_hex": "0x5208"
  },
  "miner": "0x9746c7e1ef2bd21FF3997fa467593a89cb852BD0",
  "extraData": "0x476574682f76312e302e312f77696e646f77732f676f312e342e32",
  "transactions": [
    {
      "hash": "0xfced2adec374bcd4c5a82475d496e4ff6312f9fce4c40c7913fb00185610433c",
      "blockHash": "0x706d4f848f00d2798f261749181152dc99d2d736a0078308cb5ac0edff82c2b2",
      "blockNumber": 95490,
      "transactionIndex": 0,
      "confirmations": null,
      "from": "0x32Be343B94f860124dC4fEe278FDCBD38C102D88",
      "gasPrice": {
        "_hex": "0xd971afcb0"
      },
      "gasLimit": {
        "_hex": "0x5208"
      },
      "to": "0xB9A0a0410aA5e26bFa66Cc3ACAF0A6FC61Df5588",
      "value": {
        "_hex": "0x51e102bd8ece0000"
      },
      "nonce": 983,
      "data": "0x",
      "r": "0xe9053a28a843ed016304e701a0b00b8f3c89bb81c3cba7fe1c543c87c04c882e",
      "s": "0x6149ce0a5b9ee32bc540b9cf05902768331789558be6ebed4111bc36ab169a9f",
      "v": 28,
      "creates": null,
      "raw": "0xf86e8203d7850d971afcb082520894b9a0a0410aa5e26bfa66cc3acaf0a6fc61df55888851e102bd8ece0000801ca0e9053a28a843ed016304e701a0b00b8f3c89bb81c3cba7fe1c543c87c04c882ea06149ce0a5b9ee32bc540b9cf05902768331789558be6ebed4111bc36ab169a9f",
      "networkId": 0,
      "chainId": 0
    }
  ]
}