{
  "hash": "0x6120f70c4dc0a2e31e3ffdc8e9788b67e83fa038038066db0a9b92e401d5b72a",
  "parentHash": "0x0570a44c8ea12ec6c87585818b2a48af7b7e5a27322ff3f70d95ceec4a05e73c",
  "number": 113458,
  "timestamp": 1440023835,
  "nonce": "0x7273ca4778235505",
  "difficulty": 4462460723925,
  "gasLimit": {
    "_hex": "0x2fefd8"
  },
  "gasUsed": {
    "_hex": "0x5208"
  },
  "miner": "0xbb7B8287f3F0a933474a79eAe42CBCa977791171",
  "extraData": "0x476574682f4c5649562f76312e302e312f6c696e75782f676f312e342e32",
  "transactions": [
    {
      "hash": "0x369d7b79d22bd76f7d6d5af019fdb5f72c3782fdfe076cfdd7c92151007f8e83",
      "blockHash": "0x6120f70c4dc0a2e31e3ffdc8e9788b67e83fa038038066db0a9b92e401d5b72a",
      "blockNumber": 113458,
      "transactionIndex": 0,
      "confirmations": null,
      "from": "0x1f1f1f6FAA77a31e6c9aeF1eF25A6F6819177EEB",
      "gasPrice": {
        "_hex": "0xba43b7400"
      },
      "gasLimit": {
        "_hex": "0x5266"
      },
      "to": "0x1414C0C03e8c609740c34BB0048933daE153845e",
      "value": {
        "_hex": "0xdd2d5fcf3bc9c0000"
      },
      "nonce": 0,
      "data": "0x",
      "r": "0xb2ce0448d5c1c433fb9cb3e244253be6a996304d82b63efbe3ecf0617d622b60",
      "s": "0x6abf758af727e920630f11e0c3f17926def348f79e4eadd93cffc2eef92f1b28",
      "v": 28,
      "creates": null,
      "raw": "0xf86d80850ba43b7400825266941414c0c03e8c609740c34bb0048933dae153845e890dd2d5fcf3bc9c0000801ca0b2ce0448d5c1c433fb9cb3e244253be6a996304d82b63efbe3ecf0617d622b60a06abf758af727e920630f11e0c3f17926def348f79e4eadd93cffc2eef92f1b28",
      "networkId": 0,
      "chainId": 0
    }
  ]
}