{
  "hash": "0x0a6a8901e9afa3363fefa78d35b0b421dc4a6f905ddb8aa13533806cdc32dfd1",
  "parentHash": "0xf14c25ddea4402f2722d92329efc1b53a2c5a4eea148055fac70fbac34e7552b",
  "number": 88319,
  "timestamp": 1439606289,
  "nonce": "0x9164fb0bef9d446b",
  "difficulty": 3197186935395,
  "gasLimit": {
    "_hex": "0x2fefd8"
  },
  "gasUsed": {
    "_hex": "0x5208"
  },
  "miner": "0xe6A7a1d47ff21B6321162AEA7C6CB457D5476Bca",
  "extraData": "0x476574682f76312e302e312d38326566323666362f6c696e75782f676f312e34",
  "transactions": [
    {
      "hash": "0x7c87deebe809a0ea8db3d84f4bc058b21641edd6a5c366eb65a7719544ad3151",
      "blockHash": "0x0a6a8901e9afa3363fefa78d35b0b421dc4a6f905ddb8aa13533806cdc32dfd1",
      "blockNumber": 88319,
      "transactionIndex": 0,
      "confirmations": null,
      "from": "0xEF247E639d49461D25F57e9362CadE3120910Ce0",
      "gasPrice": {
        "_hex": "0xcfe0dc4d5"
      },
      "gasLimit": {
        "_hex": "0x15f90"
      },
      "to": "0xF87481A262E993a75F791E7859E71BaC36A606Eb",
      "value": {
        "_hex": "0x42c96f40959140000"
      },
      "nonce": 26,
      "data": "0x",
      "r": "0x64dd70b87d2ee3d4efadd965039e0bdab57e32fd6ad5363a33725f0513815015",
      "s": "0x78c1456d486b95f6a6ad22167fdeeb8e30ab934937ba0227e2e667c88ac58474",
      "v": 27,
      "creates": null,
      "raw": "0xf86e1a850cfe0dc4d583015f9094f87481a262e993a75f791e7859e71bac36a606eb89042c96f40959140000801ba064dd70b87d2ee3d4efadd965039e0bdab57e32fd6ad5363a33725f0513815015a078c1456d486b95f6a6ad22167fdeeb8e30ab934937ba0227e2e667c88ac58474",
      "networkId": 0,
      "chainId": 0
    }
  ]
}