{
  "hash": "0x74ef15ce4ec21cafab87c12d613554407997ca57c736c4dde61f8d44d5ace0a4",
  "parentHash": "0xddbd0b4d6a12d0bec54138131fdd7809d6d92a8c9ba1e85aea9a53842e2a016a",
  "number": 110103,
  "timestamp": 1439968221,
  "nonce": "0x915367262d75bdd8",
  "difficulty": 4380037660594,
  "gasLimit": {
    "_hex": "0x2fefd8"
  },
  "gasUsed": {
    "_hex": "0xa410"
  },
  "miner": "0xe6A7a1d47ff21B6321162AEA7C6CB457D5476Bca",
  "extraData": "0x476574682f76312e302e312d38326566323666362f6c696e75782f676f312e34",
  "transactions": [
    {
      "hash": "0x221a04feeab51abcdfa35fd2855d481229fdf5a8cd727aecff4a6302ec74ecab",
      "blockHash": "0x74ef15ce4ec21cafab87c12d613554407997ca57c736c4dde61f8d44d5ace0a4",
      "blockNumber": 110103,
      "transactionIndex": 0,
      "confirmations": null,
      "from": "0x8CbEDB607dA768E860c22C7e292dAD2F58c3ea35",
      "gasPrice": {
        "_hex": "0xd4c382187"
      },
      "gasLimit": {
        "_hex": "0x5208"
      },
      "to": "0x32Be343B94f860124dC4fEe278FDCBD38C102D88",
      "value": {
        "_hex": "0x2b4184ecdeab2400"
      },
      "nonce": 0,
      "data": "0x",
      "r": "0x366c836431d0ea400d91d9ba2642e1edfc5c8e8d7d188608aadb6c381db63ff4",
      "s": "0x7743f76ca1f6378cc53f9e5e7bcecb7843db9f4b3545462fb00a71a184481300",
      "v": 27,
      "creates": null,
      "raw": "0xf86c80850d4c3821878252089432be343b94f860124dc4fee278fdcbd38c102d88882b4184ecdeab2400801ba0366c836431d0ea400d91d9ba2642e1edfc5c8e8d7d188608aadb6c381db63ff4a07743f76ca1f6378cc53f9e5e7bcecb7843db9f4b3545462fb00a71a184481300",
      "networkId": 0,
      "chainId": 0
    },
    {
      "hash": "0x95ff86e4a405d15d761b2eb9c78c70c7b0fc41286be9f9fde66c5b492fa7e4a7",
      "blockHash": "0x74ef15ce4ec21cafab87c12d613554407997ca57c736c4dde61f8d44d5ace0a4",
      "blockNumber": 110103,
      "transactionIndex": 1,
      "confirmations": null,
      "from": "0x193bB9b5E9b6099FB6c33DBb5CcDA4AC18ed14D7",
      "gasPrice": {
        "_hex": "0xd4c382187"
      },
      "gasLimit": {
        "_hex": "0x5208"
      },
      "to": "0x32Be343B94f860124dC4fEe278FDCBD38C102D88",
      "value": {
        "_hex": "0x821a6be67504b0000"
      },
      "nonce": 5,
      "data": "0x",
      "r": "0x146f210abd1ce7d13e3a2f15f0704304f3dd286b9201e1cafc5d4da83482166d",
      "s": "0x6437b858848b1e9360c349d7c692cc80b29fa0a0e913358dce360f07d84c5507",
      "v": 28,
      "creates": null,
      "raw": "0xf86d05850d4c3821878252089432be343b94f860124dc4fee278fdcbd38c102d88890821a6be67504b0000801ca0146f210abd1ce7d13e3a2f15f0704304f3dd286b9201e1cafc5d4da83482166da06437b858848b1e9360c349d7c692cc80b29fa0a0e913358dce360f07d84c5507",
      "networkId": 0,
      "chainId": 0
    }
  ]
}