{
  "hash": "0xf8f648bb82b5166a828f07064add62ff82d9842ac8457bcf742d13c20ff03782",
  "parentHash": "0x8560135d534029bbd7fcb98aedb101b6a3399b306710f8deb04eccb662fc3ebc",
  "number": 104734,
  "timestamp": 1439874497,
  "nonce": "0xfacc882b2f2613f5",
  "difficulty": 4372154686911,
  "gasLimit": {
    "_hex": "0x2fefd8"
  },
  "gasUsed": {
    "_hex": "0x5208"
  },
  "miner": "0xe6A7a1d47ff21B6321162AEA7C6CB457D5476Bca",
  "extraData": "0x476574682f76312e302e312d38326566323666362f6c696e75782f676f312e34",
  "transactions": [
    {
      "hash": "0x35e515bc80b57a6f519cd1f9384059200b3a27c249b7d79cd711c5eb453160db",
      "blockHash": "0xf8f648bb82b5166a828f07064add62ff82d9842ac8457bcf742d13c20ff03782",
      "blockNumber": 104734,
      "transactionIndex": 0,
      "confirmations": null,
      "from": "0xa70a9a7040d542C632D8e0bE7c5513A8a5Bbc752",
      "gasPrice": {
        "_hex": "0xd77ef819a"
      },
      "gasLimit": {
        "_hex": "0x5208"
      },
      "to": "0x32Be343B94f860124dC4fEe278FDCBD38C102D88",
      "value": {
        "_hex": "0x455f29ffcac75400"
      },
      "nonce": 236,
      "data": "0x",
      "r": "0x348908a5f35b8907008433d57bb111f575accb15f0c205385ac4bda64a28f63d",
      "s": "0x04b0fd7db9f971c1f6c72dc78f8ce83788af116024b375e1e306061982877b86",
      "v": 27,
      "creates": null,
      "raw": "0xf86d81ec850d77ef819a8252089432be343b94f860124dc4fee278fdcbd38c102d8888455f29ffcac75400801ba0348908a5f35b8907008433d57bb111f575accb15f0c205385ac4bda64a28f63da004b0fd7db9f971c1f6c72dc78f8ce83788af116024b375e1e306061982877b86",
      "networkId": 0,
      "chainId": 0
    }
  ]
}