{
  "hash": "0x2887306deca199c712b76d6a0c4d6d588784189dc36f617251a608195b0ae793",
  "parentHash": "0xdb4a73858f24d20e5dffa14a2f8bc4db25dc25bc450648760beaf8dc167cf581",
  "number": 84308,
  "timestamp": 1439547845,
  "nonce": "0x13a17b90add8acc6",
  "difficulty": 2539056205860,
  "gasLimit": {
    "_hex": "0x2fefd8"
  },
  "gasUsed": {
    "_hex": "0x19a28"
  },
  "miner": "0xe6A7a1d47ff21B6321162AEA7C6CB457D5476Bca",
  "extraData": "0x476574682f76312e302e312d38326566323666362f6c696e75782f676f312e34",
  "transactions": [
    {
      "hash": "0x79e6e680e1a2205c0d81f489a62ec4bb210fdf04eeac8188a318d0a59d6514df",
      "blockHash": "0x2887306deca199c712b76d6a0c4d6d588784189dc36f617251a608195b0ae793",
      "blockNumber": 84308,
      "transactionIndex": 0,
      "confirmations": null,
      "from": "0xb7B3690EFa6b3f08D4EC289fF655C4b7bb15EE39",
      "gasPrice": {
        "_hex": "0xdb87201c0"
      },
      "gasLimit": {
        "_hex": "0x5208"
      },
      "to": "0x32Be343B94f860124dC4fEe278FDCBD38C102D88",
      "value": {
        "_hex": "0x6b32213b6c71b400"
      },
      "nonce": 2,
      "data": "0x",
      "r": "0x1a83febae95fee19794ff305109177594b76959b6f184592cc08b9a7aaab443b",
      "s": "0x1ac7d6099beeb90cb01fd97273df3731a52197e312647f0c743c01c3040e3092",
      "v": 27,
      "creates": null,
      "raw": "0xf86c02850db87201c08252089432be343b94f860124dc4fee278fdcbd38c102d88886b32213b6c71b400801ba01a83febae95fee19794ff305109177594b76959b6f184592cc08b9a7aaab443ba01ac7d6099beeb90cb01fd97273df3731a52197e312647f0c743c01c3040e3092",
      "networkId": 0,
      "chainId": 0
    },
    {
      "hash": "0x4c29cc8d6ee954ce1f006e755e24170f7d8203162f4d6f736ff2ee123ee9e769",
      "blockHash": "0x2887306deca199c712b76d6a0c4d6d588784189dc36f617251a608195b0ae793",
      "blockNumber": 84308,
      "transactionIndex": 1,
      "confirmations": null,
      "from": "0xE12517204a15E890f12755207271102F4800A0c4",
      "gasPrice": {
        "_hex": "0xdb87201c0"
      },
      "gasLimit": {
        "_hex": "0x5208"
      },
      "to": "0x32Be343B94f860124dC4fEe278FDCBD38C102D88",
      "value": {
        "_hex": "0x20e637b4da1b2e000"
      },
      "nonce": 8,
      "data": "0x",
      "r": "0xc56fc0a1278fe5c106067f695e21465582f8f9fd7ddfb2ee1b3ceba2977dbb29",
      "s": "0x5b14f777eddf190dbafc721d428cca110702405293947745d853566ba5fb6031",
      "v": 28,
      "creates": null,
      "raw": "0xf86d08850db87201c08252089432be343b94f860124dc4fee278fdcbd38c102d8889020e637b4da1b2e000801ca0c56fc0a1278fe5c106067f695e21465582f8f9fd7ddfb2ee1b3ceba2977dbb29a05b14f777eddf190dbafc721d428cca110702405293947745d853566ba5fb6031",
      "networkId": 0,
      "chainId": 0
    },
    {
      "hash": "0x381633378cf414c0d70a55b1c4104df72945388f577b0d9a9bfe279558486c85",
      "blockHash": "0x2887306deca199c712b76d6a0c4d6d588784189dc36f617251a608195b0ae793",
      "blockNumber": 84308,
      "transactionIndex": 2,
      "confirmations": null,
      "from": "0x2D1d94521E896625F8Ec3f65171Fa82262Da6BCF",
      "gasPrice": {
        "_hex": "0xdb87201c0"
      },
      "gasLimit": {
        "_hex": "0x5208"
      },
      "to": "0x32Be343B94f860124dC4fEe278FDCBD38C102D88",
      "value": {
        "_hex": "0x198d6aaed9c7bb000"
      },
      "nonce": 4,
      "data": "0x",
      "r": "0x6ca761d985746ad25b123b8cd16a551b597385412d836ad3c34bafc16544d4fb",
      "s": "0x3c8b92d93044f503d50df327513606624ca5b1cfe1605e24dafce5552ab3bc88",
      "v": 27,
      "creates": null,
      "raw": "0xf86d04850db87201c08252089432be343b94f860124dc4fee278fdcbd38c102d88890198d6aaed9c7bb000801ba06ca761d985746ad25b123b8cd16a551b597385412d836ad3c34bafc16544d4fba03c8b92d93044f503d50df327513606624ca5b1cfe1605e24dafce5552ab3bc88",
      "networkId": 0,
      "chainId": 0
    },
    {
      "hash": "0xe929cc81c49d2e5ee34dd23bfc6271b2d10ef92c99c7de93df9ea1c00059f21c",
      "blockHash": "0x2887306deca199c712b76d6a0c4d6d588784189dc36f617251a608195b0ae793",
      "blockNumber": 84308,
      "transactionIndex": 3,
      "confirmations": null,
      "from": "0x00cC9f63304b1c51a46C9dd94b0080e3FC12d341",
      "gasPrice": {
        "_hex": "0xdb87201c0"
      },
      "gasLimit": {
        "_hex": "0x5208"
      },
      "to": "0x32Be343B94f860124dC4fEe278FDCBD38C102D88",
      "value": {
        "_hex": "0x41c710f5a1e66800"
      },
      "nonce": 1,
      "data": "0x",
      "r": "0xb1e62585e7b56f98c26c7808f9802d108087121fb9278007330d1adf13605407",
      "s": "0x750faabf534a6cb82383205c255fb7337392320993e30f0d93478c4759f16547",
      "v": 28,
      "creates": null,
      "raw": "0xf86c01850db87201c08252089432be343b94f860124dc4fee278fdcbd38c102d888841c710f5a1e66800801ca0b1e62585e7b56f98c26c7808f9802d108087121fb9278007330d1adf13605407a0750faabf534a6cb82383205c255fb7337392320993e30f0d93478c4759f16547",
      "networkId": 0,
      "chainId": 0
    },
    {
      "hash": "0x2229efca9271c21adc89b494896d42117f0e87c42df766582bd3ed7d5cf9e306",
      "blockHash": "0x2887306deca199c712b76d6a0c4d6d588784189dc36f617251a608195b0ae793",
      "blockNumber": 84308,
      "transactionIndex": 4,
      "confirmations": null,
      "from": "0xF7e66D2622220807d8696064E94ca24b1dC6e7Da",
      "gasPrice": {
        "_hex": "0xdb87201c0"
      },
      "gasLimit": {
        "_hex": "0x5208"
      },
      "to": "0x32Be343B94f860124dC4fEe278FDCBD38C102D88",
      "value": {
        "_hex": "0x14d15afc50cdaa000"
      },
      "nonce": 12,
      "data": "0x",
      "r": "0xcf7b523642deda7f6bc7527ac7004d221cb13633c23a8eafc3885ef091f66612",
      "s": "0x434709ebbdfbdd752fbb1827ea362da964a138471752c271b9280619192f21f1",
      "v": 27,
      "creates": null,
      "raw": "0xf86d0c850db87201c08252089432be343b94f860124dc4fee278fdcbd38c102d8889014d15afc50cdaa000801ba0cf7b523642deda7f6bc7527ac7004d221cb13633c23a8eafc3885ef091f66612a0434709ebbdfbdd752fbb1827ea362da964a138471752c271b9280619192f21f1",
      "networkId": 0,
      "chainId": 0
    }
  ]
}