{
  "hash": "0x0cd47b325bfff348728dc81b4d780225e5f3c91cd476e78c6f32e8f4647f9fba",
  "parentHash": "0x1e1b9df9a5082d978102e4ba2a1b052aad8b393178d90b93106e19ab15ad3bcf",
  "number": 61491,
  "timestamp": 1439173167,
  "nonce": "0x878e74b48acd6d0a",
  "difficulty": 1738747022493,
  "gasLimit": {
    "_hex": "0x2fefd8"
  },
  "gasUsed": {
    "_hex": "0x5208"
  },
  "miner": "0xeB1325C8D9d3ea8D74aC11F4B00F1B2367686319",
  "extraData": "0x476574682f76312e302e312f77696e646f77732f676f312e342e32",
  "transactions": [
    {
      "hash": "0x8305c2a5a39dedf185a2e18159158fd157baec1d778108f625b1dd6073c77bfb",
      "blockHash": "0x0cd47b325bfff348728dc81b4d780225e5f3c91cd476e78c6f32e8f4647f9fba",
      "blockNumber": 61491,
      "transactionIndex": 0,
      "confirmations": null,
      "from": "0xfFcD9CAE6d9f54fd8ae05296F839892677ff6EaA",
      "gasPrice": {
        "_hex": "0xd2efede0f"
      },
      "gasLimit": {
        "_hex": "0x15f90"
      },
      "to": "0xd5d9a0033e6B0A3ba7634d0e1a9055ad5f452C3D",
      "value": {
        "_hex": "0xde0b6b3a7640000"
      },
      "nonce": 0,
      "data": "0x",
      "r": "0x1d2b61e9f414185c15e07e58fb7533332ca3b837afc1d8a13f79b31ab2f03f78",
      "s": "0x2b4a5da66dcc7577dcf76da6f7600d616a76f688b3aa12da91538fbad5a5267e",
      "v": 27,
      "creates": null,
      "raw": "0xf86d80850d2efede0f83015f9094d5d9a0033e6b0a3ba7634d0e1a9055ad5f452c3d880de0b6b3a7640000801ba01d2b61e9f414185c15e07e58fb7533332ca3b837afc1d8a13f79b31ab2f03f78a02b4a5da66dcc7577dcf76da6f7600d616a76f688b3aa12da91538fbad5a5267e",
      "networkId": 0,
      "chainId": 0
    }
  ]
}