{
  "hash": "0x3f3a4fa9632a52996bcc1c5607cd7dbec239fd0fa85e0d7967986d294d6c08fc",
  "parentHash": "0x683ec4f7ab778be3e84e68b0d47c2587e786b577fe5c4633c537a87bdd59a004",
  "number": 96813,
  "timestamp": 1439746249,
  "nonce": "0xdb731badf8eb6378",
  "difficulty": 3752384865289,
  "gasLimit": {
    "_hex": "0x2fefd8"
  },
  "gasUsed": {
    "_hex": "0x5208"
  },
  "miner": "0x458F183347F45a4001807728A89F31E9Da9D4A58",
  "extraData": "0x476574682f76312e302e312d38326566323666362f6c696e75782f676f312e34",
  "transactions": [
    {
      "hash": "0x13780c333438482c9a79b88bbfd2f046f5be668ee1319800e4f681ddc2c31a08",
      "blockHash": "0x3f3a4fa9632a52996bcc1c5607cd7dbec239fd0fa85e0d7967986d294d6c08fc",
      "blockNumber": 96813,
      "transactionIndex": 0,
      "confirmations": null,
      "from": "0xa70a9a7040d542C632D8e0bE7c5513A8a5Bbc752",
      "gasPrice": {
        "_hex": "0xd5bcf54ad"
      },
      "gasLimit": {
        "_hex": "0x5208"
      },
      "to": "0x32Be343B94f860124dC4fEe278FDCBD38C102D88",
      "value": {
        "_hex": "0x455f49af9c9a4400"
      },
      "nonce": 169,
      "data": "0x",
      "r": "0xe5beb74d3a492066ac29b60311850f865da03b324caa3058319eca1d1b12dc70",
      "s": "0x59fec47c6cbe3bfea8a7083db59adfae96a71790729618747faf9741fe329013",
      "v": 27,
      "creates": null,
      "raw": "0xf86d81a9850d5bcf54ad8252089432be343b94f860124dc4fee278fdcbd38c102d8888455f49af9c9a4400801ba0e5beb74d3a492066ac29b60311850f865da03b324caa3058319eca1d1b12dc70a059fec47c6cbe3bfea8a7083db59adfae96a71790729618747faf9741fe329013",
      "networkId": 0,
      "chainId": 0
    }
  ]
}