{
  "hash": "0xcd4078f9fb19bf8c78570eb379d6f9f80472836b908d7437432f5723162ef113",
  "parentHash": "0x4ce6504a4ea730cf1f19871dcb842bf125707b953df17341de04201b2af766fa",
  "number": 71947,
  "timestamp": 1439344426,
  "nonce": "0x268050c188f875be",
  "difficulty": 2178160726474,
  "gasLimit": {
    "_hex": "0x2fefd8"
  },
  "gasUsed": {
    "_hex": "0xe81e"
  },
  "miner": "0xEF247E639d49461D25F57e9362CadE3120910Ce0",
  "extraData": "0x476574682f76312e302e312f6c696e75782f676f312e342e32",
  "transactions": [
    {
      "hash": "0xccc21999fd62a7ec5b8820b4bb596a342092a184a3de58ae07abdd8dddf3d093",
      "blockHash": "0xcd4078f9fb19bf8c78570eb379d6f9f80472836b908d7437432f5723162ef113",
      "blockNumber": 71947,
      "transactionIndex": 0,
      "confirmations": null,
      "from": "0x17580B766f7453525ca4C6A88b01b50570EA088C",
      "gasPrice": {
        "_hex": "0xd9a42c7a2"
      },
      "gasLimit": {
        "_hex": "0x61a80"
      },
      "to": "0x5Fe5B7546D1628f7348B023A0393de1FC825A4fD",
      "value": {
        "_hex": "0x8ac7230489e80000"
      },
      "nonce": 305,
      "data": "0xb595b8b50000000000000000000000000000000000000000000000000000000000000000",
      "r": "0x369bc884b153005cf668c6dbbb18b8852c10b27bf833d2f49e04ebeb728600df",
      "s": "0x40e3647067e345b81a662413b9afb78892d7c763c8a0b55ee85580610bf2f9b1",
      "v": 27,
      "creates": null,
      "raw": "0xf893820131850d9a42c7a283061a80945fe5b7546d1628f7348b023a0393de1fc825a4fd888ac7230489e80000a4b595b8b500000000000000000000000000000000000000000000000000000000000000001ba0369bc884b153005cf668c6dbbb18b8852c10b27bf833d2f49e04ebeb728600dfa040e3647067e345b81a662413b9afb78892d7c763c8a0b55ee85580610bf2f9b1",
      "networkId": 0,
      "chainId": 0
    },
    {
      "hash": "0xa954999144e451e804a343b4c994bde277351e032c6556b366228d86357f56ef",
      "blockHash": "0xcd4078f9fb19bf8c78570eb379d6f9f80472836b908d7437432f5723162ef113",
      "blockNumber": 71947,
      "transactionIndex": 1,
      "confirmations": null,
      "from": "0xD5377B8cbCca498A7fc78984898C27A98F982503",
      "gasPrice": {
        "_hex": "0xd26ce5b23"
      },
      "gasLimit": {
        "_hex": "0x15f90"
      },
      "to": "0x15D8732393dB8CA39EF7bdd907c12688C623abec",
      "value": {
        "_hex": "0x5770df29f5b1140000"
      },
      "nonce": 3,
      "data": "0x454e433933464b3330",
      "r": "0x4a952a81f104351823c82d9e1c60a9d9b84c66f82a5eaf3e9ec0462d88d93dfb",
      "s": "0x43619592b72b4b50f5cdd985b4ceff57456f9d2161a3fd406a7c9a51caf324f0",
      "v": 27,
      "creates": null,
      "raw": "0xf87703850d26ce5b2383015f909415d8732393db8ca39ef7bdd907c12688c623abec895770df29f5b114000089454e433933464b33301ba04a952a81f104351823c82d9e1c60a9d9b84c66f82a5eaf3e9ec0462d88d93dfba043619592b72b4b50f5cdd985b4ceff57456f9d2161a3fd406a7c9a51caf324f0",
      "networkId": 0,
      "chainId": 0
    }
  ]
}