{
  "hash": "0xf3878c6b5e1974a50f4ec51d2166f200924c9f1a0d2ae3259514fd88633f9a91",
  "parentHash": "0x5c5d293b946f10a25cac3eb3d3d9baaf445ae19b3805982251fa97243d1d5f22",
  "number": 115646,
  "timestamp": 1440060812,
  "nonce": "0x8a65929c3383435a",
  "difficulty": 4593932417260,
  "gasLimit": {
    "_hex": "0x2fefd8"
  },
  "gasUsed": {
    "_hex": "0x5208"
  },
  "miner": "0xe6A7a1d47ff21B6321162AEA7C6CB457D5476Bca",
  "extraData": "0x476574682f76312e302e312d38326566323666362f6c696e75782f676f312e34",
  "transactions": [
    {
      "hash": "0x8578bd9b6ffe24be74eb2936aeda7ed1002dd5cc62afb0fe3be70a4b166bdd35",
      "blockHash": "0xf3878c6b5e1974a50f4ec51d2166f200924c9f1a0d2ae3259514fd88633f9a91",
      "blockNumber": 115646,
      "transactionIndex": 0,
      "confirmations": null,
      "from": "0x3D31A7CdbF1B9952C1c4d567b97c54fc354E6A7B",
      "gasPrice": {
        "_hex": "0xd74f888db"
      },
      "gasLimit": {
        "_hex": "0x5208"
      },
      "to": "0xFBb1b73C4f0BDa4f67dcA266ce6Ef42f520fBB98",
      "value": {
        "_hex": "0x8a9f4c2ed68c9328"
      },
      "nonce": 2,
      "data": "0x",
      "r": "0xb463cccc7a80174cbef3be13cd5cbf06c15443a3bd12b65ea75e61b0682d8ae9",
      "s": "0x319dfa5f717ada855b6ee6828545a90759d595b3cecb903184b194e216421efb",
      "v": 27,
      "creates": null,
      "raw": "0xf86c02850d74f888db82520894fbb1b73c4f0bda4f67dca266ce6ef42f520fbb98888a9f4c2ed68c9328801ba0b463cccc7a80174cbef3be13cd5cbf06c15443a3bd12b65ea75e61b0682d8ae9a0319dfa5f717ada855b6ee6828545a90759d595b3cecb903184b194e216421efb",
      "networkId": 0,
      "chainId": 0
    }
  ]
}