{
  "hash": "0x6b0003e227396e3ed37224ff41bd724daccaf62bdaee63a0a7575661d598d878",
  "parentHash": "0x07349cd47071d63ccbb6858ee6a8c51789213536d733d7012a2f7828c6cd5866",
  "number": 105035,
  "timestamp": 1439880510,
  "nonce": "0xb2649359d156f3de",
  "difficulty": 4302115104070,
  "gasLimit": {
    "_hex": "0x2fefd8"
  },
  "gasUsed": {
    "_hex": "0x5208"
  },
  "miner": "0x0037ce3d4B7f8729C8607D8D0248252Be68202c0",
  "extraData": "0x476574682f76312e302e312f77696e646f77732f676f312e342e32",
  "transactions": [
    {
      "hash": "0x868199322531cdc473cec2e5acce9c9ab806879eb960360040c5eaad144f087f",
      "blockHash": "0x6b0003e227396e3ed37224ff41bd724daccaf62bdaee63a0a7575661d598d878",
      "blockNumber": 105035,
      "transactionIndex": 0,
      "confirmations": null,
      "from": "0xD9666150A9dA92d9108198a4072970805a8B3428",
      "gasPrice": {
        "_hex": "0xce750c73c"
      },
      "gasLimit": {
        "_hex": "0x5208"
      },
      "to": "0x32Be343B94f860124dC4fEe278FDCBD38C102D88",
      "value": {
        "_hex": "0x455f6f02fb396400"
      },
      "nonce": 74,
      "data": "0x",
      "r": "0x56ea601c17b1763f1a8e5a9381cc001d6039b902ed17c3f71e21ec9ec00c9f30",
      "s": "0x0b87b17b2e9ec583fb808b3fd6df4e83ca2a327283c402b6d7d69d938fded7a6",
      "v": 28,
      "creates": null,
      "raw": "0xf86c4a850ce750c73c8252089432be343b94f860124dc4fee278fdcbd38c102d8888455f6f02fb396400801ca056ea601c17b1763f1a8e5a9381cc001d6039b902ed17c3f71e21ec9ec00c9f30a00b87b17b2e9ec583fb808b3fd6df4e83ca2a327283c402b6d7d69d938fded7a6",
      "networkId": 0,
      "chainId": 0
    }
  ]
}