{
  "hash": "0x9f51be78a89f7befed080f37cb6bdc987c49f6c04179f3b351ac366ae5dbea48",
  "parentHash": "0x6478c7d85a9c853011be66321eba778c41a56e0f46974209cd4ac6b1f8c10ab7",
  "number": 99181,
  "timestamp": 1439785730,
  "nonce": "0xeb90e1bfaa7e7237",
  "difficulty": 3802965626467,
  "gasLimit": {
    "_hex": "0x2fefd8"
  },
  "gasUsed": {
    "_hex": "0x5208"
  },
  "miner": "0xe6A7a1d47ff21B6321162AEA7C6CB457D5476Bca",
  "extraData": "0x476574682f76312e302e312d38326566323666362f6c696e75782f676f312e34",
  "transactions": [
    {
      "hash": "0xa71e164d2ce60e7edaec4480993c46a536aef558d7135a3272a6f9dd4b6cc4ee",
      "blockHash": "0x9f51be78a89f7befed080f37cb6bdc987c49f6c04179f3b351ac366ae5dbea48",
      "blockNumber": 99181,
      "transactionIndex": 0,
      "confirmations": null,
      "from": "0x9746c7e1ef2bd21FF3997fa467593a89cb852BD0",
      "gasPrice": {
        "_hex": "0xcda7d970a"
      },
      "gasLimit": {
        "_hex": "0x5208"
      },
      "to": "0xB0bF4A71F730782368Ef660FE6D298F432F95450",
      "value": {
        "_hex": "0x1043561a8829300000"
      },
      "nonce": 31,
      "data": "0x",
      "r": "0x6fed99489e222b098cafe5a4cc409c9bc6c97f677e5b6897cf135e96dbe405d8",
      "s": "0x062cf766800503d26dc25ee10b089a5aafb07d370c3ca4705c44163f604f7a2f",
      "v": 27,
      "creates": null,
      "raw": "0xf86d1f850cda7d970a82520894b0bf4a71f730782368ef660fe6d298f432f95450891043561a8829300000801ba06fed99489e222b098cafe5a4cc409c9bc6c97f677e5b6897cf135e96dbe405d8a0062cf766800503d26dc25ee10b089a5aafb07d370c3ca4705c44163f604f7a2f",
      "networkId": 0,
      "chainId": 0
    }
  ]
}