{
  "hash": "0xab9491b62b16bd928b281a83db82483584c22aeebc0ddc61b1e407ef69479f64",
  "parentHash": "0x92ece27e046b9bd25848c1a6af6b425aca79497dcdc7a9e48efcc1ae22fbb78f",
  "number": 49051,
  "timestamp": 1438967028,
  "nonce": "0x1f895383141f685b",
  "difficulty": 1485079068278,
  "gasLimit": {
    "_hex": "0x2496e"
  },
  "gasUsed": {
    "_hex": "0x5208"
  },
  "miner": "0xeB1325C8D9d3ea8D74aC11F4B00F1B2367686319",
  "extraData": "0x476574682f76312e302e312f77696e646f77732f676f312e342e32",
  "transactions": [
    {
      "hash": "0x57f8ba638903d6335e211eb470159587c7331678888079bb1530659d54e6de0d",
      "blockHash": "0xab9491b62b16bd928b281a83db82483584c22aeebc0ddc61b1e407ef69479f64",
      "blockNumber": 49051,
      "transactionIndex": 0,
      "confirmations": null,
      "from": "0x8686578c4f7C75246F548299d6ffDAC3b67B5CD1",
      "gasPrice": {
        "_hex": "0xd50197eff"
      },
      "gasLimit": {
        "_hex": "0x15f90"
      },
      "to": "0x87abfFA6b80f712C852A9558120bA6611f0B5e46",
      "value": {
        "_hex": "0x2729505c8f8e30000"
      },
      "nonce": 0,
      "data": "0x",
      "r": "0x34796d0cea0b46f54d258be90f09a4e0e9d36c0d5d6242e0e7246259b236ed75",
      "s": "0x5d79166f66ab46f9b01880701e37ad90315c5bed974b72dec76cb13e69b1e421",
      "v": 27,
      "creates": null,
      "raw": "0xf86e80850d50197eff83015f909487abffa6b80f712c852a9558120ba6611f0b5e468902729505c8f8e30000801ba034796d0cea0b46f54d258be90f09a4e0e9d36c0d5d6242e0e7246259b236ed75a05d79166f66ab46f9b01880701e37ad90315c5bed974b72dec76cb13e69b1e421",
      "networkId": 0,
      "chainId": 0
    }
  ]
}