{
  "hash": "0xd36455f676568a15592512785857bbbef1148f37edfbb45f88a62baecbf33424",
  "parentHash": "0xe3e2c8e872d3898dd9898b6d53d71e405f2007347614b05a88e151f1000e325b",
  "number": 84925,
  "timestamp": 1439556307,
  "nonce": "0x91843c966eecd24d",
  "difficulty": 2688135412627,
  "gasLimit": {
    "_hex": "0x2fefd8"
  },
  "gasUsed": {
    "_hex": "0xf618"
  },
  "miner": "0x9746c7e1ef2bd21FF3997fa467593a89cb852BD0",
  "extraData": "0x476574682f76312e302e312f77696e646f77732f676f312e342e32",
  "transactions": [
    {
      "hash": "0x13019a77d55f051ae8cc8aef74644d10272f89b31e00a83c21ef0cc9aede2827",
      "blockHash": "0xd36455f676568a15592512785857bbbef1148f37edfbb45f88a62baecbf33424",
      "blockNumber": 84925,
      "transactionIndex": 0,
      "confirmations": null,
      "from": "0x32Be343B94f860124dC4fEe278FDCBD38C102D88",
      "gasPrice": {
        "_hex": "0xd19de9b70"
      },
      "gasLimit": {
        "_hex": "0x5208"
      },
      "to": "0x88f82D56215135e966f87Fa24D469D40A5cA1Dee",
      "value": {
        "_hex": "0x15aef9f1c31c7f0000"
      },
      "nonce": 715,
      "data": "0x",
      "r": "0x8c4e4c5d38b8268116ba13a5cd1a0ae6e214bf5a66c879234977226b097100c3",
      "s": "0x110d18b295d2c517320c8d4a3f760f380379b16f985ce8b8e9e5002101f15f42",
      "v": 28,
      "creates": null,
      "raw": "0xf86f8202cb850d19de9b708252089488f82d56215135e966f87fa24d469d40a5ca1dee8915aef9f1c31c7f0000801ca08c4e4c5d38b8268116ba13a5cd1a0ae6e214bf5a66c879234977226b097100c3a0110d18b295d2c517320c8d4a3f760f380379b16f985ce8b8e9e5002101f15f42",
      "networkId": 0,
      "chainId": 0
    },
    {
      "hash": "0x4a5d7fa2b00c91507816c16212801ba3edcdb5ad9b7ea0c255093764539d4415",
      "blockHash": "0xd36455f676568a15592512785857bbbef1148f37edfbb45f88a62baecbf33424",
      "blockNumber": 84925,
      "transactionIndex": 1,
      "confirmations": null,
      "from": "0x32Be343B94f860124dC4fEe278FDCBD38C102D88",
      "gasPrice": {
        "_hex": "0xd19de9b70"
      },
      "gasLimit": {
        "_hex": "0x5208"
      },
      "to": "0x2C076d91b9ca5475Cd168B018707EeA87204BAaC",
      "value": {
        "_hex": "0x8e1bc9bf040000"
      },
      "nonce": 716,
      "data": "0x",
      "r": "0xbcd3e81998e6543ae670aef42ada8c77294fdd1fa660777552f72c73679d3827",
      "s": "0x7566b39ff4576ec9930a1c6c7ef6043b7791318dfc62df7994cfa1f59437fd57",
      "v": 28,
      "creates": null,
      "raw": "0xf86d8202cc850d19de9b70825208942c076d91b9ca5475cd168b018707eea87204baac878e1bc9bf040000801ca0bcd3e81998e6543ae670aef42ada8c77294fdd1fa660777552f72c73679d3827a07566b39ff4576ec9930a1c6c7ef6043b7791318dfc62df7994cfa1f59437fd57",
      "networkId": 0,
      "chainId": 0
    },
    {
      "hash": "0x700dc2ef49ce675bfc447e681ae4bd457b08a72551c85d85c9915667bbab0a76",
      "blockHash": "0xd36455f676568a15592512785857bbbef1148f37edfbb45f88a62baecbf33424",
      "blockNumber": 84925,
      "transactionIndex": 2,
      "confirmations": null,
      "from": "0xdA5A21E1b101FB906B23634cA8DBb60Da6cb9B1E",
      "gasPrice": {
        "_hex": "0xba43b7400"
      },
      "gasLimit": {
        "_hex": "0x5208"
      },
      "to": "0xC47Aaa860008be6f65B58c6C6E02a84e666EfE31",
      "value": {
        "_hex": "0x31f209f4fa6438f0"
      },
      "nonce": 0,
      "data": "0x",
      "r": "0xba0a2e9b3fdf8599a22f7f89f47f9401cecb500175150c672e4bfd8cc2fbb5b4",
      "s": "0x5ff53f7723fb7a9ebd61cc5a4caa22cf672dc0f4f7f58fc85e24766124f4e4b2",
      "v": 27,
      "creates": null,
      "raw": "0xf86c80850ba43b740082520894c47aaa860008be6f65b58c6c6e02a84e666efe318831f209f4fa6438f0801ba0ba0a2e9b3fdf8599a22f7f89f47f9401cecb500175150c672e4bfd8cc2fbb5b4a05ff53f7723fb7a9ebd61cc5a4caa22cf672dc0f4f7f58fc85e24766124f4e4b2",
      "networkId": 0,
      "chainId": 0
    }
  ]
}