{
  "hash": "0x98f9a483eb477e452ff37c1ad80c2726b1fc42131967c5b08d6b150a8bebfbf8",
  "parentHash": "0xdcac50fc9a32ad9f6921978b9d992e92b9c1584152582ca7374520c800f5ad3a",
  "number": 86210,
  "timestamp": 1439575249,
  "nonce": "0x9ee46aa4900fe921",
  "difficulty": 2815335216059,
  "gasLimit": {
    "_hex": "0x2fefd8"
  },
  "gasUsed": {
    "_hex": "0x802e"
  },
  "miner": "0x9D49F602b0fdb924Bd63DDE2Bd0907E4A07c63a7",
  "extraData": "0x476574682f76312e302e312f6c696e75782f676f312e342e32",
  "transactions": [
    {
      "hash": "0xccc107eeb63e31c322ccb034272d0402c67ef612ab779bda04d236d41ae0293c",
      "blockHash": "0x98f9a483eb477e452ff37c1ad80c2726b1fc42131967c5b08d6b150a8bebfbf8",
      "blockNumber": 86210,
      "transactionIndex": 0,
      "confirmations": null,
      "from": "0xf4B1114a02EFe852013277F28ed88734Fa81E54f",
      "gasPrice": {
        "_hex": "0xcc134d0d1"
      },
      "gasLimit": {
        "_hex": "0x15f90"
      },
      "to": "0x1C523996Cb7Cb5b0a4A48d8097E45093626b23F0",
      "value": {
        "_hex": "0x0"
      },
      "nonce": 18,
      "data": "0x3feb1bd85858585858585858580000000000000000000000000000000000000000000000000000000000000000000000f4b1114a02efe852013277f28ed88734fa81e54f000000000000000000000000000000000000000000000000013fbe85edc90000",
      "r": "0xe0012ecee3764f2daee951288ccd6d07e79a91ec1e3a8a357e21e7f80a91750d",
      "s": "0x08c9969c0943d31146664a64d442fdf9d62eda0c408753e04b0b87fd0c982cbe",
      "v": 27,
      "creates": null,
      "raw": "0xf8ca12850cc134d0d183015f90941c523996cb7cb5b0a4a48d8097e45093626b23f080b8643feb1bd85858585858585858580000000000000000000000000000000000000000000000000000000000000000000000f4b1114a02efe852013277f28ed88734fa81e54f000000000000000000000000000000000000000000000000013fbe85edc900001ba0e0012ecee3764f2daee951288ccd6d07e79a91ec1e3a8a357e21e7f80a91750da008c9969c0943d31146664a64d442fdf9d62eda0c408753e04b0b87fd0c982cbe",
      "networkId": 0,
      "chainId": 0
    }
  ]
}