{
  "hash": "0x17108f48db6ab4d842512eb637dd48738ca9f2642ebb7aa574692eabdef655d8",
  "parentHash": "0xcb44486473582ccb2627405a09ce71d5c56d1fcfb27f3ba3b6bd52c79839b572",
  "number": 55594,
  "timestamp": 1439073463,
  "nonce": "0x8d0ddb58f256befe",
  "difficulty": 1617875416286,
  "gasLimit": {
    "_hex": "0x2fefd5"
  },
  "gasUsed": {
    "_hex": "0x5208"
  },
  "miner": "0xeB1325C8D9d3ea8D74aC11F4B00F1B2367686319",
  "extraData": "0x476574682f76312e302e312f77696e646f77732f676f312e342e32",
  "transactions": [
    {
      "hash": "0xd4e0799439d8edcf39f6390676ad382a6dfef5c7f83962212874244408de28f9",
      "blockHash": "0x17108f48db6ab4d842512eb637dd48738ca9f2642ebb7aa574692eabdef655d8",
      "blockNumber": 55594,
      "transactionIndex": 0,
      "confirmations": null,
      "from": "0x7a381122BADa791A7AB1F6037dAC80432753BaAd",
      "gasPrice": {
        "_hex": "0xcfcfb7381"
      },
      "gasLimit": {
        "_hex": "0x15f90"
      },
      "to": "0x7F4b4E494e8420c770AAB9922480b003795EC018",
      "value": {
        "_hex": "0xa2a15d09519be00000"
      },
      "nonce": 1,
      "data": "0x",
      "r": "0x9c3cb719fc513dd9056c4f2fbe3ab3d2226b2433bf70172d3121df0d23617de2",
      "s": "0x65430190fc4dcd1196bb9b71107a637857bab2b2ad015111e5b0ec8526f3caca",
      "v": 28,
      "creates": null,
      "raw": "0xf86e01850cfcfb738183015f90947f4b4e494e8420c770aab9922480b003795ec01889a2a15d09519be00000801ca09c3cb719fc513dd9056c4f2fbe3ab3d2226b2433bf70172d3121df0d23617de2a065430190fc4dcd1196bb9b71107a637857bab2b2ad015111e5b0ec8526f3caca",
      "networkId": 0,
      "chainId": 0
    }
  ]
}