{
  "hash": "0x6d44bbb405a4a2577823b2d18886696beadb364bed02207572874af673688f2e",
  "parentHash": "0xee32b6bf59fbd301dc87551a7a7c16911a12acbc931a7422319a37075b0295ca",
  "number": 103254,
  "timestamp": 1439850064,
  "nonce": "0xd71f1dda46282b14",
  "difficulty": 4205401950817,
  "gasLimit": {
    "_hex": "0x2fefd8"
  },
  "gasUsed": {
    "_hex": "0x546c"
  },
  "miner": "0x790b8a3cE86E707ED0eD32bF89B3269692a23CC1",
  "extraData": "0xd783010001844765746887676f312e342e32856c696e7578",
  "transactions": [
    {
      "hash": "0xa4f469ce231414e573090fc9c24f8cc516886a7d32d40916c474be982cc477e8",
      "blockHash": "0x6d44bbb405a4a2577823b2d18886696beadb364bed02207572874af673688f2e",
      "blockNumber": 103254,
      "transactionIndex": 0,
      "confirmations": null,
      "from": "0x2995476Bf0F3620Eafa6a213d544e6508Fae4Afd",
      "gasPrice": {
        "_hex": "0xd7d40ace3"
      },
      "gasLimit": {
        "_hex": "0x55f0"
      },
      "to": "0x2910543Af39abA0Cd09dBb2D50200b3E800A63D2",
      "value": {
        "_hex": "0x33e7262f43f60000"
      },
      "nonce": 0,
      "data": "0x454e44423643354d52",
      "r": "0x58e57b9f54443b7af88273a9991a78630bdd0224464c7c3a44bd79cb0721ce35",
      "s": "0x755b427cb45fa705c35c8632365c3373797d75cca495dc5e86c40d7797a416a1",
      "v": 28,
      "creates": null,
      "raw": "0xf87580850d7d40ace38255f0942910543af39aba0cd09dbb2d50200b3e800a63d28833e7262f43f6000089454e44423643354d521ca058e57b9f54443b7af88273a9991a78630bdd0224464c7c3a44bd79cb0721ce35a0755b427cb45fa705c35c8632365c3373797d75cca495dc5e86c40d7797a416a1",
      "networkId": 0,
      "chainId": 0
    }
  ]
}