{
  "hash": "0x51601c42a348698829b9b79ec2690c5e384d118c217683748681d80dbef1fc60",
  "parentHash": "0xa9a7f039dbd1381262b82b1122ff4b493df046d43a708afc110f63c6448b889d",
  "number": 100177,
  "timestamp": 1439802185,
  "nonce": "0xb85ff82efac5dda0",
  "difficulty": 3828596917341,
  "gasLimit": {
    "_hex": "0x2fefd8"
  },
  "gasUsed": {
    "_hex": "0x5208"
  },
  "miner": "0xEF247E639d49461D25F57e9362CadE3120910Ce0",
  "extraData": "0x476574682f76312e302e312f6c696e75782f676f312e342e32",
  "transactions": [
    {
      "hash": "0xf21a77730ec7d15f66273a99c923b22ca4cdcb0eb86873dc26ae09a09aa02253",
      "blockHash": "0x51601c42a348698829b9b79ec2690c5e384d118c217683748681d80dbef1fc60",
      "blockNumber": 100177,
      "transactionIndex": 0,
      "confirmations": null,
      "from": "0xd50EC384FEdb1033ad98072b30a5315f71cE5Bbb",
      "gasPrice": {
        "_hex": "0xd8364fc25"
      },
      "gasLimit": {
        "_hex": "0x15f90"
      },
      "to": "0xb9b3Fb6f39Aa2067ee6E7130601bd8aCB235735A",
      "value": {
        "_hex": "0xde0b6b3a7640000"
      },
      "nonce": 2,
      "data": "0x",
      "r": "0xe5ab95f1a1cab3e11c05213e7b2cdfb1f5b6437d5edea3bfbe517a5174111f01",
      "s": "0x1f51d575008c4b0d7d9336df2341aba77f21b63b7ca2235ae97bc3c0f445ed99",
      "v": 27,
      "creates": null,
      "raw": "0xf86d02850d8364fc2583015f9094b9b3fb6f39aa2067ee6e7130601bd8acb235735a880de0b6b3a7640000801ba0e5ab95f1a1cab3e11c05213e7b2cdfb1f5b6437d5edea3bfbe517a5174111f01a01f51d575008c4b0d7d9336df2341aba77f21b63b7ca2235ae97bc3c0f445ed99",
      "networkId": 0,
      "chainId": 0
    }
  ]
}