{
  "hash": "0x46b65d6793b2616f8ec0bd8cfde8d8ab7bfedec91a3b4e83a7ca887ebc0f14a7",
  "parentHash": "0x000cc808fd8ede713aef7dd7c8c1a51e8a2e69cd29252a9babbbb3e11bf5f30e",
  "number": 97941,
  "timestamp": 1439764429,
  "nonce": "0x2082beb7ea015ed0",
  "difficulty": 3844606274095,
  "gasLimit": {
    "_hex": "0x2fefd8"
  },
  "gasUsed": {
    "_hex": "0x5208"
  },
  "miner": "0x157c6f2431eB1a95797EE86F7d17b3c0FD47A247",
  "extraData": "0x476574682f76312e302e312f77696e646f77732f676f312e342e32",
  "transactions": [
    {
      "hash": "0x7a55a9852c7c8857cc5b969c5fdc175500b1849ebece887375fef00a2be6624a",
      "blockHash": "0x46b65d6793b2616f8ec0bd8cfde8d8ab7bfedec91a3b4e83a7ca887ebc0f14a7",
      "blockNumber": 97941,
      "transactionIndex": 0,
      "confirmations": null,
      "from": "0x162dA3315AB5Bd741b603831ff0eD69656eF1409",
      "gasPrice": {
        "_hex": "0xd72013cf2"
      },
      "gasLimit": {
        "_hex": "0x15f90"
      },
      "to": "0x7e328d1Ecfc12Cc0149316e313F43962f58784d6",
      "value": {
        "_hex": "0x16345785d8a0000"
      },
      "nonce": 2,
      "data": "0x",
      "r": "0xf5d54f5aa2504cf4911e77d723ededcb3a9597fe94e5d17870c567df7fa5ff4a",
      "s": "0x41a51cab62e12648b5931c3f3129ebf89ba3c5a1fd7e81a41dbc125cd223dcf8",
      "v": 27,
      "creates": null,
      "raw": "0xf86d02850d72013cf283015f90947e328d1ecfc12cc0149316e313f43962f58784d688016345785d8a0000801ba0f5d54f5aa2504cf4911e77d723ededcb3a9597fe94e5d17870c567df7fa5ff4aa041a51cab62e12648b5931c3f3129ebf89ba3c5a1fd7e81a41dbc125cd223dcf8",
      "networkId": 0,
      "chainId": 0
    }
  ]
}