{
  "hash": "0x48867c834009d07760485878387773248ec7b4d8e1e78a7185e9c906cad65126",
  "parentHash": "0x2573f4021d55e1957ceb4649f5eb473d45c6445c854862bcb282ce35dd840798",
  "number": 52530,
  "timestamp": 1439023135,
  "nonce": "0x7def9634eca5e6f7",
  "difficulty": 1564082490754,
  "gasLimit": {
    "_hex": "0x14fca1"
  },
  "gasUsed": {
    "_hex": "0xf4240"
  },
  "miner": "0x9746c7e1ef2bd21FF3997fa467593a89cb852BD0",
  "extraData": "0x476574682f76312e302e312f77696e646f77732f676f312e342e32",
  "transactions": [
    {
      "hash": "0x8a2cea1b9096e329ccc5ad2d1ddc5fa3370878a7b22c6272f32c53892cfd3c5b",
      "blockHash": "0x48867c834009d07760485878387773248ec7b4d8e1e78a7185e9c906cad65126",
      "blockNumber": 52530,
      "transactionIndex": 0,
      "confirmations": null,
      "from": "0x54dAeb3E8a6BBC797E4aD2b0339f134b186e4637",
      "gasPrice": {
        "_hex": "0xe7d27df17"
      },
      "gasLimit": {
        "_hex": "0x7a120"
      },
      "to": "0xBAA54d6E90c3F4d7Ebec11bD180134C7eD8eBb52",
      "value": {
        "_hex": "0x16345785d8a0000"
      },
      "nonce": 673,
      "data": "0x",
      "r": "0x16e1f3185ce75cbc168223ce306ccd8112e1f90c5858706bc5eb396f0f5899e3",
      "s": "0x501e3ee2095bf9c9027e0ce36da1a633d2d36d3ac0d83d7a805bfcce383be7fb",
      "v": 27,
      "creates": null,
      "raw": "0xf86f8202a1850e7d27df178307a12094baa54d6e90c3f4d7ebec11bd180134c7ed8ebb5288016345785d8a0000801ba016e1f3185ce75cbc168223ce306ccd8112e1f90c5858706bc5eb396f0f5899e3a0501e3ee2095bf9c9027e0ce36da1a633d2d36d3ac0d83d7a805bfcce383be7fb",
      "networkId": 0,
      "chainId": 0
    },
    {
      "hash": "0xa3bcf3c4920f654a36f6f288956d4ed03286e670471618868f47a87ba6ad16ad",
      "blockHash": "0x48867c834009d07760485878387773248ec7b4d8e1e78a7185e9c906cad65126",
      "blockNumber": 52530,
      "transactionIndex": 1,
      "confirmations": null,
      "from": "0x54dAeb3E8a6BBC797E4aD2b0339f134b186e4637",
      "gasPrice": {
        "_hex": "0xe7d27df17"
      },
      "gasLimit": {
        "_hex": "0x7a120"
      },
      "to": "0xBAA54d6E90c3F4d7Ebec11bD180134C7eD8eBb52",
      "value": {
        "_hex": "0x16345785d8a0000"
      },
      "nonce": 674,
      "data": "0x",
      "r": "0xdf1415a5c44c058cb21e137baea91b7fc3be26ed1ca70fe9672aefd119aad4da",
      "s": "0x0fdfbd161f2e0ad1c4236181456422f8e3370c653f7abd520dc846f93c6d62f6",
      "v": 28,
      "creates": null,
      "raw": "0xf86f8202a2850e7d27df178307a12094baa54d6e90c3f4d7ebec11bd180134c7ed8ebb5288016345785d8a0000801ca0df1415a5c44c058cb21e137baea91b7fc3be26ed1ca70fe9672aefd119aad4daa00fdfbd161f2e0ad1c4236181456422f8e3370c653f7abd520dc846f93c6d62f6",
      "networkId": 0,
      "chainId": 0
    }
  ]
}