{
  "hash": "0xac78b2e75c39838493af03a4a121a848bbb67cc23002bf18f001d1f2fc99d145",
  "parentHash": "0xdc6b807ba2fd962683d4756282f4c74d46f37a163fa5dead384f14bb41709f6a",
  "number": 69159,
  "timestamp": 1439299215,
  "nonce": "0x6680f46f4a1b5056",
  "difficulty": 2056891743028,
  "gasLimit": {
    "_hex": "0x2fefd8"
  },
  "gasUsed": {
    "_hex": "0x5208"
  },
  "miner": "0xf8E0CA3Ed80bd541b94BEdCf259e8CF2141A9523",
  "extraData": "0x476574682f76312e302e312f77696e646f77732f676f312e342e32",
  "transactions": [
    {
      "hash": "0x9c4033208decfceb269c8bc6ee1add5fbc8d1a9d6a896b1e15ef96c58cf33886",
      "blockHash": "0xac78b2e75c39838493af03a4a121a848bbb67cc23002bf18f001d1f2fc99d145",
      "blockNumber": 69159,
      "transactionIndex": 0,
      "confirmations": null,
      "from": "0x120A270bbC009644e35F0bB6ab13f95b8199c4ad",
      "gasPrice": {
        "_hex": "0xcb96d42c3"
      },
      "gasLimit": {
        "_hex": "0x15f90"
      },
      "to": "0x9724Ac4dc56e03379eBA5d157D1513EcC32cBD8f",
      "value": {
        "_hex": "0x33ce227f006c2c00"
      },
      "nonce": 174,
      "data": "0x",
      "r": "0x66ba0020f9643bda18ac48f8f4ffa9875a38df12933939d9f0733913ba8299e0",
      "s": "0x42783553c5bbaaa852b5d2223eeff9409c7374a02ea87b5d384c745ef5b160bd",
      "v": 28,
      "creates": null,
      "raw": "0xf86e81ae850cb96d42c383015f90949724ac4dc56e03379eba5d157d1513ecc32cbd8f8833ce227f006c2c00801ca066ba0020f9643bda18ac48f8f4ffa9875a38df12933939d9f0733913ba8299e0a042783553c5bbaaa852b5d2223eeff9409c7374a02ea87b5d384c745ef5b160bd",
      "networkId": 0,
      "chainId": 0
    }
  ]
}