{
  "hash": "0x417ff39f6535829dbc665b1fcb8e7340df555044d6b5e5acd8b1a658ba36dd21",
  "parentHash": "0xae20026a4cbb8364965b79e65a7cff6d0e6df433140ac4f7fb639e5eff687682",
  "number": 122400,
  "timestamp": 1440193697,
  "nonce": "0xc51abc66aa79731e",
  "difficulty": 4492668638394,
  "gasLimit": {
    "_hex": "0x2fefd8"
  },
  "gasUsed": {
    "_hex": "0x5208"
  },
  "miner": "0xe6A7a1d47ff21B6321162AEA7C6CB457D5476Bca",
  "extraData": "0xd783010002844765746887676f312e342e32856c696e7578",
  "transactions": [
    {
      "hash": "0xbb220383d1dfdd0b603d0a19212ae5fc68979984ca4e07daef684b5d5a2810cc",
      "blockHash": "0x417ff39f6535829dbc665b1fcb8e7340df555044d6b5e5acd8b1a658ba36dd21",
      "blockNumber": 122400,
      "transactionIndex": 0,
      "confirmations": null,
      "from": "0x32Be343B94f860124dC4fEe278FDCBD38C102D88",
      "gasPrice": {
        "_hex": "0xe0642e981"
      },
      "gasLimit": {
        "_hex": "0x5208"
      },
      "to": "0xBA41FDfc2371719fCf781b81f0e5fb353AFA131a",
      "value": {
        "_hex": "0xdbd2fc137a30000"
      },
      "nonce": 1607,
      "data": "0x",
      "r": "0xf57f218478fd11a6423e0f7d13f10881d46a2c2e30ee9cffafb77f1a2677a359",
      "s": "0x2e671136c08c3b9a5c08c5514101cbb06fee6af1f36fec8acfb824ac8564baa9",
      "v": 28,
      "creates": null,
      "raw": "0xf86e820647850e0642e98182520894ba41fdfc2371719fcf781b81f0e5fb353afa131a880dbd2fc137a30000801ca0f57f218478fd11a6423e0f7d13f10881d46a2c2e30ee9cffafb77f1a2677a359a02e671136c08c3b9a5c08c5514101cbb06fee6af1f36fec8acfb824ac8564baa9",
      "networkId": 0,
      "chainId": 0
    }
  ]
}