{
  "hash": "0x72e2fe6a42b2a0231f3fd9d767e583fa7e4107648b11813f7587f9c66c993ddb",
  "parentHash": "0xbe8dc9a5ea9a451b290dd88007b2eca042cb02e900bb39176f1d3ca35055b1f7",
  "number": 72179,
  "timestamp": 1439348599,
  "nonce": "0xb2de6973b3df82d1",
  "difficulty": 2178100486875,
  "gasLimit": {
    "_hex": "0x2fefd8"
  },
  "gasUsed": {
    "_hex": "0x1e9fa"
  },
  "miner": "0x3222BA3F3e79eA0e31467EEE7639B57923558cCD",
  "extraData": "0x",
  "transactions": [
    {
      "hash": "0x2811491837374d12a56b9205e059458ee0054b4a5d5d9a8a83c9333c12a005b1",
      "blockHash": "0x72e2fe6a42b2a0231f3fd9d767e583fa7e4107648b11813f7587f9c66c993ddb",
      "blockNumber": 72179,
      "transactionIndex": 0,
      "confirmations": null,
      "from": "0x18E113D8177c691A61Be785852Fa5Bb47aEeBdAf",
      "gasPrice": {
        "_hex": "0xd921c2e0e"
      },
      "gasLimit": {
        "_hex": "0xf4240"
      },
      "to": "0xc2ac6849Aec3938FB8c9B36F1c07be76f766637E",
      "value": {
        "_hex": "0x8ac7230489e80000"
      },
      "nonce": 2,
      "data": "0x",
      "r": "0x62fe3d8511c1ff173834f87807835ac02c91bb392cb4658850de5d60a770ddf5",
      "s": "0x479ccee58c5bf83b6a4f2174e3ac511ef4ca6fac19ce981f44adff90e63d1803",
      "v": 28,
      "creates": null,
      "raw": "0xf86d02850d921c2e0e830f424094c2ac6849aec3938fb8c9b36f1c07be76f766637e888ac7230489e80000801ca062fe3d8511c1ff173834f87807835ac02c91bb392cb4658850de5d60a770ddf5a0479ccee58c5bf83b6a4f2174e3ac511ef4ca6fac19ce981f44adff90e63d1803",
      "networkId": 0,
      "chainId": 0
    }
  ]
}