{
  "hash": "0x16bda491fc64b068fafdc8f9844088135820aa0a480774803d76e893948d1f14",
  "parentHash": "0x9e67b981493eefd1fdaf3fd239c8585e8a717dfe4a8c744a823c9ccfddb05e64",
  "number": 83300,
  "timestamp": 1439533316,
  "nonce": "0xd1bc56f9a6c4edf2",
  "difficulty": 2415987028424,
  "gasLimit": {
    "_hex": "0x2fefd8"
  },
  "gasUsed": {
    "_hex": "0x5208"
  },
  "miner": "0xEF247E639d49461D25F57e9362CadE3120910Ce0",
  "extraData": "0x476574682f76312e302e312f6c696e75782f676f312e342e32",
  "transactions": [
    {
      "hash": "0xd593bda3aa706437bb80ebc79ab9501dfb08bfd69077b55edb7ae746d2ca961d",
      "blockHash": "0x16bda491fc64b068fafdc8f9844088135820aa0a480774803d76e893948d1f14",
      "blockNumber": 83300,
      "transactionIndex": 0,
      "confirmations": null,
      "from": "0x864BeC5069F855a4Fd5892A6c4491dB07C88Ff7C",
      "gasPrice": {
        "_hex": "0xd8364fc25"
      },
      "gasLimit": {
        "_hex": "0x15f90"
      },
      "to": "0x2A599485591971b18D96E8a35b85d1Ee8a72881e",
      "value": {
        "_hex": "0x3627e8f712373c0000"
      },
      "nonce": 0,
      "data": "0x",
      "r": "0xed241395c07a37652efcfbe38ae545e229c99d0ca2f8b25a98d224e3d5b254e4",
      "s": "0x1e5e7d55c52825892f9945e8aafbc1bf1c126a8304db654be5e8c1e322f6ce82",
      "v": 27,
      "creates": null,
      "raw": "0xf86e80850d8364fc2583015f90942a599485591971b18d96e8a35b85d1ee8a72881e893627e8f712373c0000801ba0ed241395c07a37652efcfbe38ae545e229c99d0ca2f8b25a98d224e3d5b254e4a01e5e7d55c52825892f9945e8aafbc1bf1c126a8304db654be5e8c1e322f6ce82",
      "networkId": 0,
      "chainId": 0
    }
  ]
}