{
  "hash": "0xff6f17c73af99b15d777ec699fd0328d5cd378357c0c8f93e325c3946cfa580b",
  "parentHash": "0x68000768c3e6434bdf8a1c5cd0788a2d0ab3916dffeb625b264913fdddc6e7d2",
  "number": 56493,
  "timestamp": 1439088086,
  "nonce": "0x65de4c74d3501070",
  "difficulty": 1660112807206,
  "gasLimit": {
    "_hex": "0x2fefd8"
  },
  "gasUsed": {
    "_hex": "0x7034"
  },
  "miner": "0xA21Ba94e45f0E168dA824fC67aC9cb5Cb577a8aF",
  "extraData": "0x476574682f76312e302e312d38326566323666362f6c696e75782f676f312e34",
  "transactions": [
    {
      "hash": "0x30433bda103910a0d52c49feeea09b57ec3b6b993f2579aad8d5ea5851e13c4b",
      "blockHash": "0xff6f17c73af99b15d777ec699fd0328d5cd378357c0c8f93e325c3946cfa580b",
      "blockNumber": 56493,
      "transactionIndex": 0,
      "confirmations": null,
      "from": "0xA1eEc0a9b7C50B8e79A0D9B8760bC5681fb199EC",
      "gasPrice": {
        "_hex": "0xd28554dd5"
      },
      "gasLimit": {
        "_hex": "0x15f90"
      },
      "to": "0xABFF46330bc70e19673b280d2F77F6BbB485F029",
      "value": {
        "_hex": "0x0"
      },
      "nonce": 16,
      "data": "0xa52c101e0000000000000000000000000000000000000000000000004563918244f40000",
      "r": "0x63c8d4599aa48f291ecf6e92ab9eb820d3952067c965a68a7ac9017d5a68953f",
      "s": "0x7b2e01d6560313df3dbe7294d839057b2e73c0881f681b2e9628b2feb1c2b35b",
      "v": 28,
      "creates": null,
      "raw": "0xf88910850d28554dd583015f9094abff46330bc70e19673b280d2f77f6bbb485f02980a4a52c101e0000000000000000000000000000000000000000000000004563918244f400001ca063c8d4599aa48f291ecf6e92ab9eb820d3952067c965a68a7ac9017d5a68953fa07b2e01d6560313df3dbe7294d839057b2e73c0881f681b2e9628b2feb1c2b35b",
      "networkId": 0,
      "chainId": 0
    }
  ]
}