{
  "hash": "0x56a8e9b89689d2938d87ca05bf570e79fb76599c8ed2b6afd541bcf319939033",
  "parentHash": "0x57b9b85708cf4fa99f6d6c36e31f342b7cd3366ff80db790e11d2ddfc96d0042",
  "number": 89597,
  "timestamp": 1439625869,
  "nonce": "0x3c8811221880a795",
  "difficulty": 3333794623594,
  "gasLimit": {
    "_hex": "0x2fefd8"
  },
  "gasUsed": {
    "_hex": "0x546c"
  },
  "miner": "0x20E5D4Ab225b08BB98040332fDdc2C1366f04C61",
  "extraData": "0xd983010001844765746887676f312e342e328777696e646f7773",
  "transactions": [
    {
      "hash": "0xa5d20ac759ea62059bcbfdf5d6b683d45df2a7e786b2f9e21e1acc27a673ea0e",
      "blockHash": "0x56a8e9b89689d2938d87ca05bf570e79fb76599c8ed2b6afd541bcf319939033",
      "blockNumber": 89597,
      "transactionIndex": 0,
      "confirmations": null,
      "from": "0x1D2615F8b6Ca5012b663BDd094b0C5137C778dDf",
      "gasPrice": {
        "_hex": "0x110c8f7d8de"
      },
      "gasLimit": {
        "_hex": "0xc350"
      },
      "to": "0x2910543Af39abA0Cd09dBb2D50200b3E800A63D2",
      "value": {
        "_hex": "0xde0b6b3a7640000"
      },
      "nonce": 0,
      "data": "0x454e30563842594852",
      "r": "0x3264524912c31d19a6ca631ab22fee2582d5b620b2cc33b74c786aed8bf94e4c",
      "s": "0xd7bc82fd7cfed8be3673e01d4a6bf918ab69dac7e69f4fdc886f97c71f799b00",
      "v": 27,
      "creates": null,
      "raw": "0xf87680860110c8f7d8de82c350942910543af39aba0cd09dbb2d50200b3e800a63d2880de0b6b3a764000089454e305638425948521ba03264524912c31d19a6ca631ab22fee2582d5b620b2cc33b74c786aed8bf94e4ca0d7bc82fd7cfed8be3673e01d4a6bf918ab69dac7e69f4fdc886f97c71f799b00",
      "networkId": 0,
      "chainId": 0
    }
  ]
}