{
  "hash": "0x6403f31cea8938fd6104ca3aaecc4dfa30bbb42a3a81aa47d174b8aeaa59c2a5",
  "parentHash": "0xa2f169780c6c854948ae55f8e18c2aaa8a7d53940b94d2a35270d50c49c32c23",
  "number": 68154,
  "timestamp": 1439283405,
  "nonce": "0x663f738cee264f59",
  "difficulty": 1969655691091,
  "gasLimit": {
    "_hex": "0x2fefd8"
  },
  "gasUsed": {
    "_hex": "0xbe6c"
  },
  "miner": "0x47ff6576639c2e94762eA5443978D7681C0E78DC",
  "extraData": "0x476574682f76312e302e312f6c696e75782f676f312e342e32",
  "transactions": [
    {
      "hash": "0x9b3ac81b184b79f9082dd8c659f14a630fd94fed31ebbaa2c22c59dd0544b5b4",
      "blockHash": "0x6403f31cea8938fd6104ca3aaecc4dfa30bbb42a3a81aa47d174b8aeaa59c2a5",
      "blockNumber": 68154,
      "transactionIndex": 0,
      "confirmations": null,
      "from": "0xC9C5B6b71d990b30878e954398393cA080Ca04de",
      "gasPrice": {
        "_hex": "0xba43b7400"
      },
      "gasLimit": {
        "_hex": "0x15f90"
      },
      "to": "0x793AE8C1b1a160BFc07BFB0d04F85eab1A71F4f2",
      "value": {
        "_hex": "0x0"
      },
      "nonce": 0,
      "data": "0x3ba15036",
      "r": "0x12f39c689cc79caf64525258806c8ca2d7b634a79f747d1ddf8b95b74d9bb107",
      "s": "0x34524254587477b3f015e1d1fb038d39fee687b25e9980a83beb2ae7334a8752",
      "v": 28,
      "creates": null,
      "raw": "0xf86980850ba43b740083015f9094793ae8c1b1a160bfc07bfb0d04f85eab1a71f4f280843ba150361ca012f39c689cc79caf64525258806c8ca2d7b634a79f747d1ddf8b95b74d9bb107a034524254587477b3f015e1d1fb038d39fee687b25e9980a83beb2ae7334a8752",
      "networkId": 0,
      "chainId": 0
    }
  ]
}