{
  "hash": "0xe54e8ed93910a9a616ed2b231bb29ac8d38d910f393244bf59b9df1c9389d602",
  "parentHash": "0xd0d3e3870ed0c23f13b623142f70c199f21084a4c0220b122e278e3855179a47",
  "number": 105809,
  "timestamp": 1439893807,
  "nonce": "0xc306d18b13d6bb2f",
  "difficulty": 4433937246659,
  "gasLimit": {
    "_hex": "0x2fefd8"
  },
  "gasUsed": {
    "_hex": "0x5208"
  },
  "miner": "0xe6A7a1d47ff21B6321162AEA7C6CB457D5476Bca",
  "extraData": "0x476574682f76312e302e312d38326566323666362f6c696e75782f676f312e34",
  "transactions": [
    {
      "hash": "0x383726189706e70cf7729eb8f738d82fee732498772c8488b9982230b8a726be",
      "blockHash": "0xe54e8ed93910a9a616ed2b231bb29ac8d38d910f393244bf59b9df1c9389d602",
      "blockNumber": 105809,
      "transactionIndex": 0,
      "confirmations": null,
      "from": "0x4D67f4F0Db45b3B5a3424B39ed8d972F710381D5",
      "gasPrice": {
        "_hex": "0xcb56c9b25"
      },
      "gasLimit": {
        "_hex": "0x5208"
      },
      "to": "0x32Be343B94f860124dC4fEe278FDCBD38C102D88",
      "value": {
        "_hex": "0x2f9dff3f832d6a000"
      },
      "nonce": 26,
      "data": "0x",
      "r": "0x44b672ba138e89e76b1299c85d8921cef237a48d84ca8622e4c6f07a24238f07",
      "s": "0x1fca3e227b6250060b9ae89ed77fafd13f7add111036876c7af661836cd16e70",
      "v": 27,
      "creates": null,
      "raw": "0xf86d1a850cb56c9b258252089432be343b94f860124dc4fee278fdcbd38c102d888902f9dff3f832d6a000801ba044b672ba138e89e76b1299c85d8921cef237a48d84ca8622e4c6f07a24238f07a01fca3e227b6250060b9ae89ed77fafd13f7add111036876c7af661836cd16e70",
      "networkId": 0,
      "chainId": 0
    }
  ]
}