{
  "hash": "0x3d5dd85b00f5cab4218a9c81cbcd0c610830c420b793a4fe17c20390e1299391",
  "parentHash": "0x3314a8c39bce50404dc30b0622b48c74189131fb5c954400fa9df2c2c5b8cc41",
  "number": 51162,
  "timestamp": 1439000304,
  "nonce": "0x1bf8f3384ce1fb7f",
  "difficulty": 1561285214232,
  "gasLimit": {
    "_hex": "0x9611a"
  },
  "gasUsed": {
    "_hex": "0x5208"
  },
  "miner": "0x1D889aFF5D57138c9819412d63b5d877567B5936",
  "extraData": "0x476574682f76312e302e312f77696e646f77732f676f312e342e32",
  "transactions": [
    {
      "hash": "0xf834afe34cd86e45219e97ebf916555d948d86100973bce2e45c05c1684fc183",
      "blockHash": "0x3d5dd85b00f5cab4218a9c81cbcd0c610830c420b793a4fe17c20390e1299391",
      "blockNumber": 51162,
      "transactionIndex": 0,
      "confirmations": null,
      "from": "0x09d6CEFd75b0c4b3F8f1D687A522C96123F1F539",
      "gasPrice": {
        "_hex": "0x11ae3ca2f3b"
      },
      "gasLimit": {
        "_hex": "0x5208"
      },
      "to": "0x09BFb16C3f990AabAF72B06b7042C71B3bDcB4F6",
      "value": {
        "_hex": "0x6c6b935b8bbd400000"
      },
      "nonce": 2,
      "data": "0x",
      "r": "0xde088a188b12567652f9f5b63ae181ae0e7c82c513c3b74725baae949ff60ed2",
      "s": "0x548bc3121f145a4ab307d0c37d87b20bb8d341fc8a44dff4338b4d683190892d",
      "v": 27,
      "creates": null,
      "raw": "0xf86e0286011ae3ca2f3b8252089409bfb16c3f990aabaf72b06b7042c71b3bdcb4f6896c6b935b8bbd400000801ba0de088a188b12567652f9f5b63ae181ae0e7c82c513c3b74725baae949ff60ed2a0548bc3121f145a4ab307d0c37d87b20bb8d341fc8a44dff4338b4d683190892d",
      "networkId": 0,
      "chainId": 0
    }
  ]
}