{
  "hash": "0x0981ef5f41525d44b0ddb08cb11387bb436be392729452d7f6904ce0b6b50474",
  "parentHash": "0x3e1105177bb5bdca654217d46c36792eb044554d472e61733e0637b9a07f83ea",
  "number": 90349,
  "timestamp": 1439638495,
  "nonce": "0x5e6852cd56b70df5",
  "difficulty": 3323743967826,
  "gasLimit": {
    "_hex": "0x2fefd8"
  },
  "gasUsed": {
    "_hex": "0x5208"
  },
  "miner": "0xe6A7a1d47ff21B6321162AEA7C6CB457D5476Bca",
  "extraData": "0x476574682f76312e302e312d38326566323666362f6c696e75782f676f312e34",
  "transactions": [
    {
      "hash": "0xc352966bcb2b2a1937ed10c95484972b23f8da92f2bd85b60f0c07c3acbc607c",
      "blockHash": "0x0981ef5f41525d44b0ddb08cb11387bb436be392729452d7f6904ce0b6b50474",
      "blockNumber": 90349,
      "transactionIndex": 0,
      "confirmations": null,
      "from": "0x46532c79E7F23Aa3520221582D7AC182fb98C56B",
      "gasPrice": {
        "_hex": "0x10c8fbe6724"
      },
      "gasLimit": {
        "_hex": "0x15f90"
      },
      "to": "0x95A466C2ba3A392003E9ef63F4442236C6E1B40E",
      "value": {
        "_hex": "0xde0b6b3a7640000"
      },
      "nonce": 1,
      "data": "0x",
      "r": "0x8533c170e407e080a33e8150b1df9f6b35fa9a5d444f6e446d5f225529f95eca",
      "s": "0x26f7da5285f9feaf01964ad2666164a78e2d12f537c53da08ca794eab66e12c5",
      "v": 27,
      "creates": null,
      "raw": "0xf86e0186010c8fbe672483015f909495a466c2ba3a392003e9ef63f4442236c6e1b40e880de0b6b3a7640000801ba08533c170e407e080a33e8150b1df9f6b35fa9a5d444f6e446d5f225529f95ecaa026f7da5285f9feaf01964ad2666164a78e2d12f537c53da08ca794eab66e12c5",
      "networkId": 0,
      "chainId": 0
    }
  ]
}