{
  "hash": "0x0681f4b8960977c2dd17356c602aae1cafd1b84653c52b397fefde1a81d5d560",
  "parentHash": "0x85d2c95217a3a6ed142cc8ba0ed81dc00d14022be8b6c3872972304b4443225f",
  "number": 55862,
  "timestamp": 1439078318,
  "nonce": "0x36642a02c80aeaf3",
  "difficulty": 1605233723936,
  "gasLimit": {
    "_hex": "0x2fefd5"
  },
  "gasUsed": {
    "_hex": "0x70cb0"
  },
  "miner": "0xf927a40C8B7F6E07c5af7FA2155B4864a4112B13",
  "extraData": "0x476574682f76312e302e312f6c696e75782f676f312e342e32",
  "transactions": [
    {
      "hash": "0x4c77ab97473a10be33af13a5915a7ffa855420e1ad8ccad694b6f41fd4d2c8f6",
      "blockHash": "0x0681f4b8960977c2dd17356c602aae1cafd1b84653c52b397fefde1a81d5d560",
      "blockNumber": 55862,
      "transactionIndex": 0,
      "confirmations": null,
      "from": "0xe6A7a1d47ff21B6321162AEA7C6CB457D5476Bca",
      "gasPrice": {
        "_hex": "0xce6a61d05"
      },
      "gasLimit": {
        "_hex": "0x55f0"
      },
      "to": "0x5C6935CC46A0ccd4f0E1eb8c27103e46AA9517dB",
      "value": {
        "_hex": "0x145ae3bb696c6124"
      },
      "nonce": 279,
      "data": "0x",
      "r": "0x6b12b49dcb7100cfb54bd7d91041b0504449d8c4238bfc6fd03d8c87cdaba3c8",
      "s": "0x0ebddc3562b95ea21f65358735b308ac130f05b5f90bcdb0431f9f9e69126e41",
      "v": 27,
      "creates": null,
      "raw": "0xf86e820117850ce6a61d058255f0945c6935cc46a0ccd4f0e1eb8c27103e46aa9517db88145ae3bb696c6124801ba06b12b49dcb7100cfb54bd7d91041b0504449d8c4238bfc6fd03d8c87cdaba3c8a00ebddc3562b95ea21f65358735b308ac130f05b5f90bcdb0431f9f9e69126e41",
      "networkId": 0,
      "chainId": 0
    },
    {
      "hash": "0x29c55a30d09da5fab5e9b149c5d268e5040fb7cf5173ac449cc223f8095e14bb",
      "blockHash": "0x0681f4b8960977c2dd17356c602aae1cafd1b84653c52b397fefde1a81d5d560",
      "blockNumber": 55862,
      "transactionIndex": 1,
      "confirmations": null,
      "from": "0xe6A7a1d47ff21B6321162AEA7C6CB457D5476Bca",
      "gasPrice": {
        "_hex": "0xce6a61d05"
      },
      "gasLimit": {
        "_hex": "0x55f0"
      },
      "to": "0x20b2a17fFa355d7Bcb269812A39e8F57D750A5b3",
      "value": {
        "_hex": "0x148427016db99b2c"
      },
      "nonce": 280,
      "data": "0x",
      "r": "0x6d3de672a0682e8de69f69587a124df6985c030b797d95c95a35f18f689256ad",
      "s": "0x45ed24ba06de494890b0c309148bcc3acb84f9d11539c903e501c80843396627",
      "v": 28,
      "creates": null,
      "raw": "0xf86e820118850ce6a61d058255f09420b2a17ffa355d7bcb269812a39e8f57d750a5b388148427016db99b2c801ca06d3de672a0682e8de69f69587a124df6985c030b797d95c95a35f18f689256ada045ed24ba06de494890b0c309148bcc3acb84f9d11539c903e501c80843396627",
      "networkId": 0,
      "chainId": 0
    },
    {
      "hash": "0xc060ab2c6d54f0e759f4ffd049d4ae379d11467fc4c434fd16f88beb3b89c76b",
      "blockHash": "0x0681f4b8960977c2dd17356c602aae1cafd1b84653c52b397fefde1a81d5d560",
      "blockNumber": 55862,
      "transactionIndex": 2,
      "confirmations": null,
      "from": "0xe6A7a1d47ff21B6321162AEA7C6CB457D5476Bca",
      "gasPrice": {
        "_hex": "0xce6a61d05"
      },
      "gasLimit": {
        "_hex": "0x55f0"
      },
      "to": "0xffFa4763F94F7aD191b366a343092a5d1a47Ed08",
      "value": {
        "_hex": "0x14f44762870bb000"
      },
      "nonce": 281,
      "data": "0x",
      "r": "0x4ba5b3071cb95b0a2e95052f76e0e53e77999c6e31076170c37bf6c95b981684",
      "s": "0x02f2e1224a9d269210cbe9e5e7346c2e70634f236b9274ce675ebe422204d857",
      "v": 27,
      "creates": null,
      "raw": "0xf86e820119850ce6a61d058255f094fffa4763f94f7ad191b366a343092a5d1a47ed088814f44762870bb000801ba04ba5b3071cb95b0a2e95052f76e0e53e77999c6e31076170c37bf6c95b981684a002f2e1224a9d269210cbe9e5e7346c2e70634f236b9274ce675ebe422204d857",
      "networkId": 0,
      "chainId": 0
    },
    {
      "hash": "0x6d33e5c822115871f460507a3d6a2b0a0ddc101ef497d5a787fe390d6055f0d9",
      "blockHash": "0x0681f4b8960977c2dd17356c602aae1cafd1b84653c52b397fefde1a81d5d560",
      "blockNumber": 55862,
      "transactionIndex": 3,
      "confirmations": null,
      "from": "0xe6A7a1d47ff21B6321162AEA7C6CB457D5476Bca",
      "gasPrice": {
        "_hex": "0xce6a61d05"
      },
      "gasLimit": {
        "_hex": "0x55f0"
      },
      "to": "0xc6407f14351edfDC1F152Ac1ca004D678F586856",
      "value": {
        "_hex": "0x1516c54203ba611c"
      },
      "nonce": 282,
      "data": "0x",
      "r": "0x895fef1a102e2d6e3ba487402329235fd5f54c94d4aa14b9b5999fdd2a1980d2",
      "s": "0x2726db6191af602b4e74368478ff662c05729a323375f801d9ba0374a387284f",
      "v": 28,
      "creates": null,
      "raw": "0xf86e82011a850ce6a61d058255f094c6407f14351edfdc1f152ac1ca004d678f586856881516c54203ba611c801ca0895fef1a102e2d6e3ba487402329235fd5f54c94d4aa14b9b5999fdd2a1980d2a02726db6191af602b4e74368478ff662c05729a323375f801d9ba0374a387284f",
      "networkId": 0,
      "chainId": 0
    },
    {
      "hash": "0x7615cc6067cfd09c276e2493695ac22f7f17ee736af39ff4b5104743e6006b8e",
      "blockHash": "0x0681f4b8960977c2dd17356c602aae1cafd1b84653c52b397fefde1a81d5d560",
      "blockNumber": 55862,
      "transactionIndex": 4,
      "confirmations": null,
      "from": "0xe6A7a1d47ff21B6321162AEA7C6CB457D5476Bca",
      "gasPrice": {
        "_hex": "0xce6a61d05"
      },
      "gasLimit": {
        "_hex": "0x55f0"
      },
      "to": "0x1908dA5B6FA3132dEc867Ec6A74DdB252292107D",
      "value": {
        "_hex": "0x1526195eaa59fef4"
      },
      "nonce": 283,
      "data": "0x",
      "r": "0xd54d3e9677378f8e2c9ce274fe5d568c6ea3d55f3ae0651ad9306e76be55f701",
      "s": "0x586684cac6718b03f1e34c24b00111ee9beb90d815146b89bdd65880b1aad609",
      "v": 28,
      "creates": null,
      "raw": "0xf86e82011b850ce6a61d058255f0941908da5b6fa3132dec867ec6a74ddb252292107d881526195eaa59fef4801ca0d54d3e9677378f8e2c9ce274fe5d568c6ea3d55f3ae0651ad9306e76be55f701a0586684cac6718b03f1e34c24b00111ee9beb90d815146b89bdd65880b1aad609",
      "networkId": 0,
      "chainId": 0
    },
    {
      "hash": "0xe0ce895c192b52ae6c379095cb7704e6b7753dbd3e1a662fc8d1a8623fbda630",
      "blockHash": "0x0681f4b8960977c2dd17356c602aae1cafd1b84653c52b397fefde1a81d5d560",
      "blockNumber": 55862,
      "transactionIndex": 5,
      "confirmations": null,
      "from": "0xe6A7a1d47ff21B6321162AEA7C6CB457D5476Bca",
      "gasPrice": {
        "_hex": "0xce6a61d05"
      },
      "gasLimit": {
        "_hex": "0x55f0"
      },
      "to": "0x082AF42638C5A41b6993D4B9C9615Dc6d0D224b1",
      "value": {
        "_hex": "0x1528152ad81964dc"
      },
      "nonce": 284,
      "data": "0x",
      "r": "0x96ff8e264484bfbf5ad2764a783aba88a48b08584208c654b72bcde3ff4f638f",
      "s": "0x2ca30101ee45b78397fad9af92dfd7a595ee56876fa3ece9741b3e1bd4da3a79",
      "v": 28,
      "creates": null,
      "raw": "0xf86e82011c850ce6a61d058255f094082af42638c5a41b6993d4b9c9615dc6d0d224b1881528152ad81964dc801ca096ff8e264484bfbf5ad2764a783aba88a48b08584208c654b72bcde3ff4f638fa02ca30101ee45b78397fad9af92dfd7a595ee56876fa3ece9741b3e1bd4da3a79",
      "networkId": 0,
      "chainId": 0
    },
    {
      "hash": "0xe912df4ae3569687e821cb6fd0713e11e7cbc1d5566f77b4286f19c49da15c9d",
      "blockHash": "0x0681f4b8960977c2dd17356c602aae1cafd1b84653c52b397fefde1a81d5d560",
      "blockNumber": 55862,
      "transactionIndex": 6,
      "confirmations": null,
      "from": "0xe6A7a1d47ff21B6321162AEA7C6CB457D5476Bca",
      "gasPrice": {
        "_hex": "0xce6a61d05"
      },
      "gasLimit": {
        "_hex": "0x55f0"
      },
      "to": "0x98EaB1a51ef0aB03f4A0BabcB61113A3AF9886C6",
      "value": {
        "_hex": "0x15c1bf68ed2de6f4"
      },
      "nonce": 285,
      "data": "0x",
      "r": "0xc811ef22e97011a71b0f6d93d1a6e037cf9b6eb196f615290246f122b8e1fdcf",
      "s": "0x45e1bda38b5ac4fc2eb8146ff553f98a24e34f63e0533c96cf47ea1a659b755e",
      "v": 27,
      "creates": null,
      "raw": "0xf86e82011d850ce6a61d058255f09498eab1a51ef0ab03f4a0babcb61113a3af9886c68815c1bf68ed2de6f4801ba0c811ef22e97011a71b0f6d93d1a6e037cf9b6eb196f615290246f122b8e1fdcfa045e1bda38b5ac4fc2eb8146ff553f98a24e34f63e0533c96cf47ea1a659b755e",
      "networkId": 0,
      "chainId": 0
    },
    {
      "hash": "0x5ecc9cde214e91d805e9c39c4ccd5db102eb6db9943829a6ae7faa37eb52e9e3",
      "blockHash": "0x0681f4b8960977c2dd17356c602aae1cafd1b84653c52b397fefde1a81d5d560",
      "blockNumber": 55862,
      "transactionIndex": 7,
      "confirmations": null,
      "from": "0xe6A7a1d47ff21B6321162AEA7C6CB457D5476Bca",
      "gasPrice": {
        "_hex": "0xce6a61d05"
      },
      "gasLimit": {
        "_hex": "0x55f0"
      },
      "to": "0x2643bA99548075fA6f6E537Cc34e9C6cd2B7E8aC",
      "value": {
        "_hex": "0x161dde7172a27efc"
      },
      "nonce": 286,
      "data": "0x",
      "r": "0x9e1281410c7532763eb171fd11fc242f626ffa8c8c38237ba9d254432d158f3f",
      "s": "0x18cb5e7c0e35d71bbafaf12e6249ca5b8c5d1f7e8ceab0495c654c3501240787",
      "v": 27,
      "creates": null,
      "raw": "0xf86e82011e850ce6a61d058255f0942643ba99548075fa6f6e537cc34e9c6cd2b7e8ac88161dde7172a27efc801ba09e1281410c7532763eb171fd11fc242f626ffa8c8c38237ba9d254432d158f3fa018cb5e7c0e35d71bbafaf12e6249ca5b8c5d1f7e8ceab0495c654c3501240787",
      "networkId": 0,
      "chainId": 0
    },
    {
      "hash": "0x717131b0efef745917cc4233bb9d05adf8d2ce2e3f9d48547325569155d04817",
      "blockHash": "0x0681f4b8960977c2dd17356c602aae1cafd1b84653c52b397fefde1a81d5d560",
      "blockNumber": 55862,
      "transactionIndex": 8,
      "confirmations": null,
      "from": "0xe6A7a1d47ff21B6321162AEA7C6CB457D5476Bca",
      "gasPrice": {
        "_hex": "0xce6a61d05"
      },
      "gasLimit": {
        "_hex": "0x55f0"
      },
      "to": "0x821018E956D3a23ef54A866A5Dc580004C42B34b",
      "value": {
        "_hex": "0x167e218a0c380ff8"
      },
      "nonce": 287,
      "data": "0x",
      "r": "0x9692ac5bad121f7cb1363d62c3278b0b2c8bb28a91bc285c823ef2de7c74f416",
      "s": "0x3066fb7de34134feec88b6d9458c8f33d18d9b41d2a835d2d6f482323aba64ad",
      "v": 28,
      "creates": null,
      "raw": "0xf86e82011f850ce6a61d058255f094821018e956d3a23ef54a866a5dc580004c42b34b88167e218a0c380ff8801ca09692ac5bad121f7cb1363d62c3278b0b2c8bb28a91bc285c823ef2de7c74f416a03066fb7de34134feec88b6d9458c8f33d18d9b41d2a835d2d6f482323aba64ad",
      "networkId": 0,
      "chainId": 0
    },
    {
      "hash": "0x1e09b79d64adc450e66e7a43b1bb18b8a93231a78769fe326c0181ce7c441231",
      "blockHash": "0x0681f4b8960977c2dd17356c602aae1cafd1b84653c52b397fefde1a81d5d560",
      "blockNumber": 55862,
      "transactionIndex": 9,
      "confirmations": null,
      "from": "0xe6A7a1d47ff21B6321162AEA7C6CB457D5476Bca",
      "gasPrice": {
        "_hex": "0xce6a61d05"
      },
      "gasLimit": {
        "_hex": "0x55f0"
      },
      "to": "0x834e9B529AC9Fa63B39A06f8D8C9B0D6791FA5dF",
      "value": {
        "_hex": "0x168c09d7e4aad5f8"
      },
      "nonce": 288,
      "data": "0x",
      "r": "0x282beac808caed58e8a33665bdfe1fee668f373d88c8acba4f8282a2db3e1e88",
      "s": "0x151bf85828f98674533d6968c157edb684e3406331bf5e7f1963397b13d75559",
      "v": 28,
      "creates": null,
      "raw": "0xf86e820120850ce6a61d058255f094834e9b529ac9fa63b39a06f8d8c9b0d6791fa5df88168c09d7e4aad5f8801ca0282beac808caed58e8a33665bdfe1fee668f373d88c8acba4f8282a2db3e1e88a0151bf85828f98674533d6968c157edb684e3406331bf5e7f1963397b13d75559",
      "networkId": 0,
      "chainId": 0
    },
    {
      "hash": "0x0b4997d2033614ae00b8bd83b2f3e9720748442483198b912bbebc27a1d3d190",
      "blockHash": "0x0681f4b8960977c2dd17356c602aae1cafd1b84653c52b397fefde1a81d5d560",
      "blockNumber": 55862,
      "transactionIndex": 10,
      "confirmations": null,
      "from": "0xe6A7a1d47ff21B6321162AEA7C6CB457D5476Bca",
      "gasPrice": {
        "_hex": "0xce6a61d05"
      },
      "gasLimit": {
        "_hex": "0x55f0"
      },
      "to": "0x2cB6DD17910fBbA80C96AFC27E358D9C38b1056A",
      "value": {
        "_hex": "0x168f028418bb7508"
      },
      "nonce": 289,
      "data": "0x",
      "r": "0x89eb5d31a87059ed3e5fb89fa4006bdaf53db0ce5b2043c5ca2bdedd2d233450",
      "s": "0x530de88582a069e0688961acc01ee275d202bb22e9d4641aa8f00240c2c7beaf",
      "v": 28,
      "creates": null,
      "raw": "0xf86e820121850ce6a61d058255f0942cb6dd17910fbba80c96afc27e358d9c38b1056a88168f028418bb7508801ca089eb5d31a87059ed3e5fb89fa4006bdaf53db0ce5b2043c5ca2bdedd2d233450a0530de88582a069e0688961acc01ee275d202bb22e9d4641aa8f00240c2c7beaf",
      "networkId": 0,
      "chainId": 0
    },
    {
      "hash": "0x12dfe89878d569a1292bfe1aec572feee2db4d0a78bfd0bf82d981ec4e311cce",
      "blockHash": "0x0681f4b8960977c2dd17356c602aae1cafd1b84653c52b397fefde1a81d5d560",
      "blockNumber": 55862,
      "transactionIndex": 11,
      "confirmations": null,
      "from": "0xe6A7a1d47ff21B6321162AEA7C6CB457D5476Bca",
      "gasPrice": {
        "_hex": "0xce6a61d05"
      },
      "gasLimit": {
        "_hex": "0x55f0"
      },
      "to": "0x851A5680487032aaDF727270E0A310C24C269c52",
      "value": {
        "_hex": "0x1746fb02ab16662c"
      },
      "nonce": 290,
      "data": "0x",
      "r": "0x44489437c080bca797fccd08f1b4641ef296772c3c572d564d3d470a35a9b215",
      "s": "0x21b230a3f49a8a07ad44b9c6513f11c6b8a50fca29173ac1b293cef98c2bce78",
      "v": 28,
      "creates": null,
      "raw": "0xf86e820122850ce6a61d058255f094851a5680487032aadf727270e0a310c24c269c52881746fb02ab16662c801ca044489437c080bca797fccd08f1b4641ef296772c3c572d564d3d470a35a9b215a021b230a3f49a8a07ad44b9c6513f11c6b8a50fca29173ac1b293cef98c2bce78",
      "networkId": 0,
      "chainId": 0
    },
    {
      "hash": "0x8e43fffca3670728476c61d77ad8c29f508463c8ab1f7c2fb05dc0e11a8044cd",
      "blockHash": "0x0681f4b8960977c2dd17356c602aae1cafd1b84653c52b397fefde1a81d5d560",
      "blockNumber": 55862,
      "transactionIndex": 12,
      "confirmations": null,
      "from": "0xe6A7a1d47ff21B6321162AEA7C6CB457D5476Bca",
      "gasPrice": {
        "_hex": "0xce6a61d05"
      },
      "gasLimit": {
        "_hex": "0x55f0"
      },
      "to": "0xa2D8888a00a904EC0fE7FCA00c058249737aAC69",
      "value": {
        "_hex": "0x17c681e1cba7e498"
      },
      "nonce": 291,
      "data": "0x",
      "r": "0xd12c686203a3e03876c25629bd80f2511f7feaefc124abc9abbfa24a2cb1831f",
      "s": "0x281729337746a9609f24338be44c6771010733c37e933101fc97306fbe556741",
      "v": 28,
      "creates": null,
      "raw": "0xf86e820123850ce6a61d058255f094a2d8888a00a904ec0fe7fca00c058249737aac698817c681e1cba7e498801ca0d12c686203a3e03876c25629bd80f2511f7feaefc124abc9abbfa24a2cb1831fa0281729337746a9609f24338be44c6771010733c37e933101fc97306fbe556741",
      "networkId": 0,
      "chainId": 0
    },
    {
      "hash": "0xee2e02b0a23994c8afc438cd8d9a3c457f7c622b58800d0423e0ab532dac3c33",
      "blockHash": "0x0681f4b8960977c2dd17356c602aae1cafd1b84653c52b397fefde1a81d5d560",
      "blockNumber": 55862,
      "transactionIndex": 13,
      "confirmations": null,
      "from": "0xe6A7a1d47ff21B6321162AEA7C6CB457D5476Bca",
      "gasPrice": {
        "_hex": "0xce6a61d05"
      },
      "gasLimit": {
        "_hex": "0x55f0"
      },
      "to": "0x2d11763B4999FB3b61Ca8d19C8C77a743079f7bd",
      "value": {
        "_hex": "0x17c887ae99513fd8"
      },
      "nonce": 292,
      "data": "0x",
      "r": "0xa370034b2948758a63354d7441b34e5a88166f1f00ef5fb97d0d26fd2c457caf",
      "s": "0x02e35020bd88aedff2a51c47da7c1f29e134d093906d1dd14e5f3e610cb7a519",
      "v": 27,
      "creates": null,
      "raw": "0xf86e820124850ce6a61d058255f0942d11763b4999fb3b61ca8d19c8c77a743079f7bd8817c887ae99513fd8801ba0a370034b2948758a63354d7441b34e5a88166f1f00ef5fb97d0d26fd2c457cafa002e35020bd88aedff2a51c47da7c1f29e134d093906d1dd14e5f3e610cb7a519",
      "networkId": 0,
      "chainId": 0
    },
    {
      "hash": "0x42c46ec4e841c8d5974a641d0404eafb560c3288a93a15a6fe62869eb5dfd476",
      "blockHash": "0x0681f4b8960977c2dd17356c602aae1cafd1b84653c52b397fefde1a81d5d560",
      "blockNumber": 55862,
      "transactionIndex": 14,
      "confirmations": null,
      "from": "0xe6A7a1d47ff21B6321162AEA7C6CB457D5476Bca",
      "gasPrice": {
        "_hex": "0xce6a61d05"
      },
      "gasLimit": {
        "_hex": "0x55f0"
      },
      "to": "0xf65EaC42da2c53D2a0e9bb399DDeDA9b68c7885c",
      "value": {
        "_hex": "0x18874eaa3bf56f30"
      },
      "nonce": 293,
      "data": "0x",
      "r": "0x5c94a864c3419a419b27f185b351c4c976b2492b96076987ff0981ccba7b6d21",
      "s": "0x6015932d4a7ced78ffe2723fd99f98fc64f7ee61a869867732c56e15cde8918c",
      "v": 28,
      "creates": null,
      "raw": "0xf86e820125850ce6a61d058255f094f65eac42da2c53d2a0e9bb399ddeda9b68c7885c8818874eaa3bf56f30801ca05c94a864c3419a419b27f185b351c4c976b2492b96076987ff0981ccba7b6d21a06015932d4a7ced78ffe2723fd99f98fc64f7ee61a869867732c56e15cde8918c",
      "networkId": 0,
      "chainId": 0
    },
    {
      "hash": "0x68575a40b02d461c198a9aeed5146e5a109e26336404c5bdb9354df5c0f9ae4f",
      "blockHash": "0x0681f4b8960977c2dd17356c602aae1cafd1b84653c52b397fefde1a81d5d560",
      "blockNumber": 55862,
      "transactionIndex": 15,
      "confirmations": null,
      "from": "0xe6A7a1d47ff21B6321162AEA7C6CB457D5476Bca",
      "gasPrice": {
        "_hex": "0xce6a61d05"
      },
      "gasLimit": {
        "_hex": "0x55f0"
      },
      "to": "0x18daD3C05E410BC8001D3Ffded6cb869db4912d0",
      "value": {
        "_hex": "0x188dafe549897e00"
      },
      "nonce": 294,
      "data": "0x",
      "r": "0x64fd59007411a9de68aef2227e08f8a2e49b98b39800deffc3ce6165e6355794",
      "s": "0x1970fba67e1e92d49b69c28a7d52ddb2ca7805dd031d054d6e35c2e440eeb009",
      "v": 27,
      "creates": null,
      "raw": "0xf86e820126850ce6a61d058255f09418dad3c05e410bc8001d3ffded6cb869db4912d088188dafe549897e00801ba064fd59007411a9de68aef2227e08f8a2e49b98b39800deffc3ce6165e6355794a01970fba67e1e92d49b69c28a7d52ddb2ca7805dd031d054d6e35c2e440eeb009",
      "networkId": 0,
      "chainId": 0
    },
    {
      "hash": "0x608faab9e5f05617ec187d439dcbd8826d5a04f65b74b7144db1da4d2544129d",
      "blockHash": "0x0681f4b8960977c2dd17356c602aae1cafd1b84653c52b397fefde1a81d5d560",
      "blockNumber": 55862,
      "transactionIndex": 16,
      "confirmations": null,
      "from": "0xe6A7a1d47ff21B6321162AEA7C6CB457D5476Bca",
      "gasPrice": {
        "_hex": "0xce6a61d05"
      },
      "gasLimit": {
        "_hex": "0x55f0"
      },
      "to": "0x3630afDceC364199C429E0907896Fb114b38a0DD",
      "value": {
        "_hex": "0x18fa1fb11c2ee7f8"
      },
      "nonce": 295,
      "data": "0x",
      "r": "0x02c97f8a6335a5cb730aba932819ce88aaf07ddb849f2ea8cbbc5382eeb40838",
      "s": "0x43671983a7afdbe23fcafd09d7527916a830a53770f193007239cc52da4c996a",
      "v": 27,
      "creates": null,
      "raw": "0xf86e820127850ce6a61d058255f0943630afdcec364199c429e0907896fb114b38a0dd8818fa1fb11c2ee7f8801ba002c97f8a6335a5cb730aba932819ce88aaf07ddb849f2ea8cbbc5382eeb40838a043671983a7afdbe23fcafd09d7527916a830a53770f193007239cc52da4c996a",
      "networkId": 0,
      "chainId": 0
    },
    {
      "hash": "0x5a06c21e6bcf35d5482301934926ff68fd74282038ff56d73223829aefaa6631",
      "blockHash": "0x0681f4b8960977c2dd17356c602aae1cafd1b84653c52b397fefde1a81d5d560",
      "blockNumber": 55862,
      "transactionIndex": 17,
      "confirmations": null,
      "from": "0xe6A7a1d47ff21B6321162AEA7C6CB457D5476Bca",
      "gasPrice": {
        "_hex": "0xce6a61d05"
      },
      "gasLimit": {
        "_hex": "0x55f0"
      },
      "to": "0xC5a95bd9c64116923272D69B5B5167A2d97e7c49",
      "value": {
        "_hex": "0x18fca8c9136e2450"
      },
      "nonce": 296,
      "data": "0x",
      "r": "0x6fd72c3554900547f1f0d844fa8fea919325034286d61f052dce71c3823bc504",
      "s": "0x0b7a62ffb5ad3f2b7ae22c91c38af0153e784127ccea4245a977e87d75dc1883",
      "v": 28,
      "creates": null,
      "raw": "0xf86e820128850ce6a61d058255f094c5a95bd9c64116923272d69b5b5167a2d97e7c498818fca8c9136e2450801ca06fd72c3554900547f1f0d844fa8fea919325034286d61f052dce71c3823bc504a00b7a62ffb5ad3f2b7ae22c91c38af0153e784127ccea4245a977e87d75dc1883",
      "networkId": 0,
      "chainId": 0
    },
    {
      "hash": "0x4914fe96be0f28ffa8d1695bb95f185e113740984e02c1cfbf4f8834fb9132d3",
      "blockHash": "0x0681f4b8960977c2dd17356c602aae1cafd1b84653c52b397fefde1a81d5d560",
      "blockNumber": 55862,
      "transactionIndex": 18,
      "confirmations": null,
      "from": "0xe6A7a1d47ff21B6321162AEA7C6CB457D5476Bca",
      "gasPrice": {
        "_hex": "0xce6a61d05"
      },
      "gasLimit": {
        "_hex": "0x55f0"
      },
      "to": "0x399e51beB529F28056C392653C99A2Ebb654571F",
      "value": {
        "_hex": "0x19113761d16a90e8"
      },
      "nonce": 297,
      "data": "0x",
      "r": "0x2e9f33f24814703fb68fbf83df6f387dc4422b3aef41fe20724f2d050056a5e3",
      "s": "0x0a06ea273edffee97a798d85da61976999628d8002848e9a7af8f5867c75803c",
      "v": 28,
      "creates": null,
      "raw": "0xf86e820129850ce6a61d058255f094399e51beb529f28056c392653c99a2ebb654571f8819113761d16a90e8801ca02e9f33f24814703fb68fbf83df6f387dc4422b3aef41fe20724f2d050056a5e3a00a06ea273edffee97a798d85da61976999628d8002848e9a7af8f5867c75803c",
      "networkId": 0,
      "chainId": 0
    },
    {
      "hash": "0x645fd3f3d2d11440b6de33fa953ef26ff26252cf8b0707a92bdbed30731d870b",
      "blockHash": "0x0681f4b8960977c2dd17356c602aae1cafd1b84653c52b397fefde1a81d5d560",
      "blockNumber": 55862,
      "transactionIndex": 19,
      "confirmations": null,
      "from": "0xe6A7a1d47ff21B6321162AEA7C6CB457D5476Bca",
      "gasPrice": {
        "_hex": "0xce6a61d05"
      },
      "gasLimit": {
        "_hex": "0x55f0"
      },
      "to": "0x9def82c26c0c5fc4E0e7eC2f64425314E3F7B476",
      "value": {
        "_hex": "0x192028a30ddb05f8"
      },
      "nonce": 298,
      "data": "0x",
      "r": "0x2a96f30e9630cb76af5082a0553cef7659e07904a934a67bff9670a28c34ed96",
      "s": "0x5a50300f138cd79dc3fe614dbf23a9c1bf7aa80859de686397fd77fa498279d7",
      "v": 27,
      "creates": null,
      "raw": "0xf86e82012a850ce6a61d058255f0949def82c26c0c5fc4e0e7ec2f64425314e3f7b47688192028a30ddb05f8801ba02a96f30e9630cb76af5082a0553cef7659e07904a934a67bff9670a28c34ed96a05a50300f138cd79dc3fe614dbf23a9c1bf7aa80859de686397fd77fa498279d7",
      "networkId": 0,
      "chainId": 0
    },
    {
      "hash": "0x586e75de318f2eb4a1b2aebfb904d6fb2456347bcaf640c921b1ef4b4ba7a866",
      "blockHash": "0x0681f4b8960977c2dd17356c602aae1cafd1b84653c52b397fefde1a81d5d560",
      "blockNumber": 55862,
      "transactionIndex": 20,
      "confirmations": null,
      "from": "0xc842A75953D9E17E9eCEA6EF339133b0e111b714",
      "gasPrice": {
        "_hex": "0xcd031590f"
      },
      "gasLimit": {
        "_hex": "0x15f90"
      },
      "to": "0x3Ee95daFF0ce6FC470e83912B9b6316b21bc1cEB",
      "value": {
        "_hex": "0xb1a2bc2ec50000"
      },
      "nonce": 0,
      "data": "0x",
      "r": "0x4e986cb2cfacbc2c42de705049d7d8fc0130ec41ea17218502d3ba009b8e4752",
      "s": "0x41f543fabfa397ae90cebc8b27befd495b4212cd3fd79eb33a217ea8ca441ae1",
      "v": 27,
      "creates": null,
      "raw": "0xf86c80850cd031590f83015f90943ee95daff0ce6fc470e83912b9b6316b21bc1ceb87b1a2bc2ec50000801ba04e986cb2cfacbc2c42de705049d7d8fc0130ec41ea17218502d3ba009b8e4752a041f543fabfa397ae90cebc8b27befd495b4212cd3fd79eb33a217ea8ca441ae1",
      "networkId": 0,
      "chainId": 0
    },
    {
      "hash": "0x43953713696a24eaa4a032d4c690cbd5815e215c5d2b93e5bd507a57fcaf4f1b",
      "blockHash": "0x0681f4b8960977c2dd17356c602aae1cafd1b84653c52b397fefde1a81d5d560",
      "blockNumber": 55862,
      "transactionIndex": 21,
      "confirmations": null,
      "from": "0xA6C45aF12785c7c425684AD94576184afe192c05",
      "gasPrice": {
        "_hex": "0xba43b7400"
      },
      "gasLimit": {
        "_hex": "0x5b04"
      },
      "to": "0xEe2e3665531f220d70d01CCaBb559537a2663174",
      "value": {
        "_hex": "0x3e8"
      },
      "nonce": 0,
      "data": "0x",
      "r": "0x80152344079de80bb8ae3dec583f051ad5d8f3f910a58c5ac83f85088e7f67be",
      "s": "0x5937d100e5857e8bc057f78771531bef413fe0c63fe3329772f77a6be9c01751",
      "v": 27,
      "creates": null,
      "raw": "0xf86680850ba43b7400825b0494ee2e3665531f220d70d01ccabb559537a26631748203e8801ba080152344079de80bb8ae3dec583f051ad5d8f3f910a58c5ac83f85088e7f67bea05937d100e5857e8bc057f78771531bef413fe0c63fe3329772f77a6be9c01751",
      "networkId": 0,
      "chainId": 0
    }
  ]
}