{
  "hash": "0x797667b119728f5e1afbdaf30e177fce4a6089ab9668202dcbdc9024f754d0f4",
  "parentHash": "0xfb1e31dfe5cef388ca8769ec3b638f2bdfc668404fe91831333ccac7877a8260",
  "number": 96992,
  "timestamp": 1439749135,
  "nonce": "0xbc0dab0b8233fd72",
  "difficulty": 3746812279166,
  "gasLimit": {
    "_hex": "0x2fefd8"
  },
  "gasUsed": {
    "_hex": "0xa410"
  },
  "miner": "0x157c6f2431eB1a95797EE86F7d17b3c0FD47A247",
  "extraData": "0x476574682f76312e302e312f77696e646f77732f676f312e342e32",
  "transactions": [
    {
      "hash": "0xc11e0b31bdfd76521ba767935718ce21aeec8e111fbf5fe5eaa723dd39f31ad0",
      "blockHash": "0x797667b119728f5e1afbdaf30e177fce4a6089ab9668202dcbdc9024f754d0f4",
      "blockNumber": 96992,
      "transactionIndex": 0,
      "confirmations": null,
      "from": "0x120A270bbC009644e35F0bB6ab13f95b8199c4ad",
      "gasPrice": {
        "_hex": "0xe1135268b"
      },
      "gasLimit": {
        "_hex": "0x3d090"
      },
      "to": "0x00B88D679472169CBd35a3d02192Fd24734684b4",
      "value": {
        "_hex": "0x1ec53e961921cf6000"
      },
      "nonce": 633,
      "data": "0x",
      "r": "0x080284e1bcccd4a3d99b97f4f6ef1f7de4de4e8e647ff42a34b2e5e3aa72fc0e",
      "s": "0x65e526fec9a585b62c70ba47598d94f6e32c8aae9641ed213dd238b4182474cd",
      "v": 28,
      "creates": null,
      "raw": "0xf870820279850e1135268b8303d0909400b88d679472169cbd35a3d02192fd24734684b4891ec53e961921cf6000801ca0080284e1bcccd4a3d99b97f4f6ef1f7de4de4e8e647ff42a34b2e5e3aa72fc0ea065e526fec9a585b62c70ba47598d94f6e32c8aae9641ed213dd238b4182474cd",
      "networkId": 0,
      "chainId": 0
    },
    {
      "hash": "0x5675d44da11fb90a62c415f8a783b595eb78d21ffd8fd56af83cc15525365dc1",
      "blockHash": "0x797667b119728f5e1afbdaf30e177fce4a6089ab9668202dcbdc9024f754d0f4",
      "blockNumber": 96992,
      "transactionIndex": 1,
      "confirmations": null,
      "from": "0xB139D418EFafa49c3364bbf260697491cFb204b1",
      "gasPrice": {
        "_hex": "0xd78388d68"
      },
      "gasLimit": {
        "_hex": "0x15f90"
      },
      "to": "0xa7ae731fD9EbF24D5a99104a3c2a65a7240B2B04",
      "value": {
        "_hex": "0xd529ae9e860000"
      },
      "nonce": 1,
      "data": "0x",
      "r": "0xc7ed1bcdc0d54965828fa2538e3ea2fc793e1a13116999c0b7c97061819ac4f0",
      "s": "0x7bd28b56c9fdcc62d9dccca0032b1184c561a0344dd1287410cc294bbbda11ac",
      "v": 27,
      "creates": null,
      "raw": "0xf86c01850d78388d6883015f9094a7ae731fd9ebf24d5a99104a3c2a65a7240b2b0487d529ae9e860000801ba0c7ed1bcdc0d54965828fa2538e3ea2fc793e1a13116999c0b7c97061819ac4f0a07bd28b56c9fdcc62d9dccca0032b1184c561a0344dd1287410cc294bbbda11ac",
      "networkId": 0,
      "chainId": 0
    }
  ]
}