{
  "hash": "0x040743d7063ac2f780c6936d16233cfe731c28ed878f0ed6b23e5ecb4a1ee9a7",
  "parentHash": "0x70d48c4d184607aa4ea3527b890ac27b2ecfe5c5f3400534cf15ecade6c6ad45",
  "number": 94054,
  "timestamp": 1439701857,
  "nonce": "0xbcc2751800dd8835",
  "difficulty": 3483416145287,
  "gasLimit": {
    "_hex": "0x2fefd8"
  },
  "gasUsed": {
    "_hex": "0x5208"
  },
  "miner": "0xC603Ab5ef41fC61AA8b76bEddb09e3Cfcbb174BD",
  "extraData": "0x476574682f76312e302e312f77696e646f77732f676f312e342e32",
  "transactions": [
    {
      "hash": "0xdd54a462ce5dfda350a4fef1d7bb4f35acae217beb24f4f3065280a217c5f239",
      "blockHash": "0x040743d7063ac2f780c6936d16233cfe731c28ed878f0ed6b23e5ecb4a1ee9a7",
      "blockNumber": 94054,
      "transactionIndex": 0,
      "confirmations": null,
      "from": "0x431FDD9f2Fdc4A532867E0e0a85463436807d17C",
      "gasPrice": {
        "_hex": "0xcf00d4a53"
      },
      "gasLimit": {
        "_hex": "0x5208"
      },
      "to": "0x32Be343B94f860124dC4fEe278FDCBD38C102D88",
      "value": {
        "_hex": "0x3635c57ea6e46e0000"
      },
      "nonce": 3,
      "data": "0x",
      "r": "0xe3d3c21692cf92e734f28021465cc87908b197191e209e71d118b9be2f5c000d",
      "s": "0x0dceec3e16f9bddd43d3f706d838b0b20f763bb5687ca8ae9b215ca2335a4819",
      "v": 27,
      "creates": null,
      "raw": "0xf86d03850cf00d4a538252089432be343b94f860124dc4fee278fdcbd38c102d88893635c57ea6e46e0000801ba0e3d3c21692cf92e734f28021465cc87908b197191e209e71d118b9be2f5c000da00dceec3e16f9bddd43d3f706d838b0b20f763bb5687ca8ae9b215ca2335a4819",
      "networkId": 0,
      "chainId": 0
    }
  ]
}