{
  "hash": "0x6eac74f779c5d3491bb31547a7066f191eaf665f5e18700f8eaf311a7d2191ed",
  "parentHash": "0x03810a501e7f6d91e75d08879c88b29ee56868d5018a92cf2d773ed90cd92856",
  "number": 92236,
  "timestamp": 1439669030,
  "nonce": "0x2099e6dee77b871e",
  "difficulty": 3477372780683,
  "gasLimit": {
    "_hex": "0x2fefd8"
  },
  "gasUsed": {
    "_hex": "0x5208"
  },
  "miner": "0x82efFBAaaf28614E55b2BA440FB198E0e5789B0f",
  "extraData": "0x476574682f44616e6b486173682f76312e302e312f77696e646f77732f676f31",
  "transactions": [
    {
      "hash": "0xfb9cbbece67cb7233692cc6501e0d7713749f290689180187e4d6cf62e8808eb",
      "blockHash": "0x6eac74f779c5d3491bb31547a7066f191eaf665f5e18700f8eaf311a7d2191ed",
      "blockNumber": 92236,
      "transactionIndex": 0,
      "confirmations": null,
      "from": "0x32Be343B94f860124dC4fEe278FDCBD38C102D88",
      "gasPrice": {
        "_hex": "0xdac76f8fc"
      },
      "gasLimit": {
        "_hex": "0x5208"
      },
      "to": "0xb62A0BF317fceb39ed916f0F9E60e623Ad309127",
      "value": {
        "_hex": "0x26384e9b0e11c000"
      },
      "nonce": 892,
      "data": "0x",
      "r": "0x95c83d9d7f50157af53c80be81129d2130281776af28448aeb5b715835812166",
      "s": "0x4b37646fd5076c6b5ddfe2685194cfb5f0947f5cf6729e2b394b6662e7eb7dd6",
      "v": 27,
      "creates": null,
      "raw": "0xf86e82037c850dac76f8fc82520894b62a0bf317fceb39ed916f0f9e60e623ad3091278826384e9b0e11c000801ba095c83d9d7f50157af53c80be81129d2130281776af28448aeb5b715835812166a04b37646fd5076c6b5ddfe2685194cfb5f0947f5cf6729e2b394b6662e7eb7dd6",
      "networkId": 0,
      "chainId": 0
    }
  ]
}