{
  "hash": "0xdfb8f2b6cd82bf25937dcaa47f342808536dc3d12bc68a452cc555ba1766bae2",
  "parentHash": "0x3f68910483e0be44195b6f40f6a064bffc345f1a23deea6245db1640d667ae84",
  "number": 49561,
  "timestamp": 1438975372,
  "nonce": "0x324450682446eaa2",
  "difficulty": 1480644596307,
  "gasLimit": {
    "_hex": "0x3585e"
  },
  "gasUsed": {
    "_hex": "0x546c"
  },
  "miner": "0x0eDEd3DA479d0beF8eeC92A76644D3f4E3C177f7",
  "extraData": "0x476574682f76312e302e312f6c696e75782f676f312e342e32",
  "transactions": [
    {
      "hash": "0x88445afa998c8844654378490f19ae92c029f173b265d16ec5ae2a89fc6a2083",
      "blockHash": "0xdfb8f2b6cd82bf25937dcaa47f342808536dc3d12bc68a452cc555ba1766bae2",
      "blockNumber": 49561,
      "transactionIndex": 0,
      "confirmations": null,
      "from": "0x31B43b015D0081643c6CDa46a7073A6dfdbca825",
      "gasPrice": {
        "_hex": "0x110c8f7d8de"
      },
      "gasLimit": {
        "_hex": "0xc350"
      },
      "to": "0x2910543Af39abA0Cd09dBb2D50200b3E800A63D2",
      "value": {
        "_hex": "0xa97864af50a2c980000"
      },
      "nonce": 0,
      "data": "0x454e553057344a3830",
      "r": "0x724a26d113dc132735c660a9cb5e947400c8e908cc8940d682df70e7b8c367ff",
      "s": "0x86a4382a9a8c2dd82109f52bd7533ef0a98bf79ef5d3290175bd16e710c1fc09",
      "v": 28,
      "creates": null,
      "raw": "0xf87880860110c8f7d8de82c350942910543af39aba0cd09dbb2d50200b3e800a63d28a0a97864af50a2c98000089454e553057344a38301ca0724a26d113dc132735c660a9cb5e947400c8e908cc8940d682df70e7b8c367ffa086a4382a9a8c2dd82109f52bd7533ef0a98bf79ef5d3290175bd16e710c1fc09",
      "networkId": 0,
      "chainId": 0
    }
  ]
}