{
  "hash": "0xc0ef8a0655ddab524885f891de1b3d46239685d47f037db06095bc6612b3f3ef",
  "parentHash": "0x8aa5c14bfe69b05885f23ab4a19959937de7ea95a38d33751570b085362d9157",
  "number": 108378,
  "timestamp": 1439939289,
  "nonce": "0x1d3e6f6c61f8da54",
  "difficulty": 4340482921788,
  "gasLimit": {
    "_hex": "0x2fefd8"
  },
  "gasUsed": {
    "_hex": "0x14820"
  },
  "miner": "0xe6A7a1d47ff21B6321162AEA7C6CB457D5476Bca",
  "extraData": "0x476574682f76312e302e312d38326566323666362f6c696e75782f676f312e34",
  "transactions": [
    {
      "hash": "0xf7e90efbb0aa382ed2d43efe3b4b3c01f7b535510905bd016dad1e6a43b4bd70",
      "blockHash": "0xc0ef8a0655ddab524885f891de1b3d46239685d47f037db06095bc6612b3f3ef",
      "blockNumber": 108378,
      "transactionIndex": 0,
      "confirmations": null,
      "from": "0xFBb1b73C4f0BDa4f67dcA266ce6Ef42f520fBB98",
      "gasPrice": {
        "_hex": "0xd327e7d48"
      },
      "gasLimit": {
        "_hex": "0x5208"
      },
      "to": "0x00587Ffa0A43D793209E8e7C24f8Ec55Fd021220",
      "value": {
        "_hex": "0x7db2b9103da000"
      },
      "nonce": 191,
      "data": "0x",
      "r": "0x92130febbe53d1084b115a1025a393750ef8a64a0565bfed299d09b768acb08c",
      "s": "0x3b7cb9fe34bb84302fdc3c0f19ba55ad13d8526b60d8270806e0f2ed2319bc10",
      "v": 28,
      "creates": null,
      "raw": "0xf86c81bf850d327e7d488252089400587ffa0a43d793209e8e7c24f8ec55fd021220877db2b9103da000801ca092130febbe53d1084b115a1025a393750ef8a64a0565bfed299d09b768acb08ca03b7cb9fe34bb84302fdc3c0f19ba55ad13d8526b60d8270806e0f2ed2319bc10",
      "networkId": 0,
      "chainId": 0
    },
    {
      "hash": "0x2ce361fd691eab7cb39915a985c45b40751ab47ad54e997ae2c4d50647ab1e07",
      "blockHash": "0xc0ef8a0655ddab524885f891de1b3d46239685d47f037db06095bc6612b3f3ef",
      "blockNumber": 108378,
      "transactionIndex": 1,
      "confirmations": null,
      "from": "0xFBb1b73C4f0BDa4f67dcA266ce6Ef42f520fBB98",
      "gasPrice": {
        "_hex": "0xd327e7d48"
      },
      "gasLimit": {
        "_hex": "0x5208"
      },
      "to": "0x59e777F70939982DaC9651EEE7e6A121048b749a",
      "value": {
        "_hex": "0x3ce4aa2b51e5400"
      },
      "nonce": 192,
      "data": "0x",
      "r": "0x94c38ad2ca77a70ede72d3052ccd23e6d75ece1b9794d39381ba6c443306fcc5",
      "s": "0x72d79e589cc9f7c3ba7afadfc1145f873e1830cdf547f2d931ded9e9304d3759",
      "v": 27,
      "creates": null,
      "raw": "0xf86d81c0850d327e7d488252089459e777f70939982dac9651eee7e6a121048b749a8803ce4aa2b51e5400801ba094c38ad2ca77a70ede72d3052ccd23e6d75ece1b9794d39381ba6c443306fcc5a072d79e589cc9f7c3ba7afadfc1145f873e1830cdf547f2d931ded9e9304d3759",
      "networkId": 0,
      "chainId": 0
    },
    {
      "hash": "0x046911816a89530d49da456fdf42acf2ad6caacbef8f2cd145cad08783926d11",
      "blockHash": "0xc0ef8a0655ddab524885f891de1b3d46239685d47f037db06095bc6612b3f3ef",
      "blockNumber": 108378,
      "transactionIndex": 2,
      "confirmations": null,
      "from": "0xFBb1b73C4f0BDa4f67dcA266ce6Ef42f520fBB98",
      "gasPrice": {
        "_hex": "0xd327e7d48"
      },
      "gasLimit": {
        "_hex": "0x5208"
      },
      "to": "0x787F9C02fc5F4970ae51F2B5f7B4ee7c22B875B6",
      "value": {
        "_hex": "0x377f4494cc32800"
      },
      "nonce": 193,
      "data": "0x",
      "r": "0x4657dd3d157a22d4bb5a0c2ae59492173cad724b2784d70974b2bb2d555eee37",
      "s": "0x7d85d24b7707ffd979c6af648f70c888db7ecdd4d8a6f59305dd0b11471c13be",
      "v": 27,
      "creates": null,
      "raw": "0xf86d81c1850d327e7d4882520894787f9c02fc5f4970ae51f2b5f7b4ee7c22b875b6880377f4494cc32800801ba04657dd3d157a22d4bb5a0c2ae59492173cad724b2784d70974b2bb2d555eee37a07d85d24b7707ffd979c6af648f70c888db7ecdd4d8a6f59305dd0b11471c13be",
      "networkId": 0,
      "chainId": 0
    },
    {
      "hash": "0xbe0d0535847a6290d81c4b75e713d3a1bc62cf1ca36218c477ed197ce11a3929",
      "blockHash": "0xc0ef8a0655ddab524885f891de1b3d46239685d47f037db06095bc6612b3f3ef",
      "blockNumber": 108378,
      "transactionIndex": 3,
      "confirmations": null,
      "from": "0xFBb1b73C4f0BDa4f67dcA266ce6Ef42f520fBB98",
      "gasPrice": {
        "_hex": "0xd327e7d48"
      },
      "gasLimit": {
        "_hex": "0x5208"
      },
      "to": "0x5A7C3A0AfEc10b657476Db4405240a762739234B",
      "value": {
        "_hex": "0x511c8830e4e3c00"
      },
      "nonce": 194,
      "data": "0x",
      "r": "0xd1cbb3efc546c77b2275d4daaec53f2541edbd0a1b82641a3f08dd0bf5669457",
      "s": "0x47866f7565342702d8b9a1fcd39c21eaf332e92a7f76a7c87c96be947d91685e",
      "v": 28,
      "creates": null,
      "raw": "0xf86d81c2850d327e7d48825208945a7c3a0afec10b657476db4405240a762739234b880511c8830e4e3c00801ca0d1cbb3efc546c77b2275d4daaec53f2541edbd0a1b82641a3f08dd0bf5669457a047866f7565342702d8b9a1fcd39c21eaf332e92a7f76a7c87c96be947d91685e",
      "networkId": 0,
      "chainId": 0
    }
  ]
}