{
  "hash": "0x54dc82b9b959894c6a63e7e9f89dd3616106af327ae612c026d2a6de324e9876",
  "parentHash": "0xb54fbda21865ad1bf60c3fafcb915b78fea34f45096fee7446798f4e079d2048",
  "number": 100562,
  "timestamp": 1439808543,
  "nonce": "0x1caacf74fd3a2e3d",
  "difficulty": 3819085873795,
  "gasLimit": {
    "_hex": "0x2fefd8"
  },
  "gasUsed": {
    "_hex": "0x5208"
  },
  "miner": "0x7366ADF97960d404c38D975e1A8786bEb14B6507",
  "extraData": "0x476574682f76312e302e312f77696e646f77732f676f312e342e32",
  "transactions": [
    {
      "hash": "0xaf085152c839becc1673d6d1b5dce0b43bf0cb0eb19d75149007bcc560d71eee",
      "blockHash": "0x54dc82b9b959894c6a63e7e9f89dd3616106af327ae612c026d2a6de324e9876",
      "blockNumber": 100562,
      "transactionIndex": 0,
      "confirmations": null,
      "from": "0x7884D470204862a0d1A21122F41ee77430396Ee5",
      "gasPrice": {
        "_hex": "0xcd10f5560"
      },
      "gasLimit": {
        "_hex": "0x15f90"
      },
      "to": "0xd94315Ab1afbEc118d3a72BD890af6987B95E320",
      "value": {
        "_hex": "0x186cc6acd4b0000"
      },
      "nonce": 60,
      "data": "0x",
      "r": "0xf329356f7c2cd6c7bf8369b9fd1385630e7f399836562f50b327553a4f01b7c9",
      "s": "0x59872d4b0c59b9d09e1022d9686acf666985262391984c3a202632acf72189e9",
      "v": 27,
      "creates": null,
      "raw": "0xf86d3c850cd10f556083015f9094d94315ab1afbec118d3a72bd890af6987b95e320880186cc6acd4b0000801ba0f329356f7c2cd6c7bf8369b9fd1385630e7f399836562f50b327553a4f01b7c9a059872d4b0c59b9d09e1022d9686acf666985262391984c3a202632acf72189e9",
      "networkId": 0,
      "chainId": 0
    }
  ]
}