{
  "hash": "0x6076b38d6b9c51f60707771e38d167978e7c55956dd3bc07d0ca71a6f082fc7a",
  "parentHash": "0x6accf1257fa8bab5bfa218fd2bbbcbbe6fa00f4e6caf6f753673d93c5c4b6214",
  "number": 72230,
  "timestamp": 1439349417,
  "nonce": "0xa4d29d352bb9ad14",
  "difficulty": 2174899022730,
  "gasLimit": {
    "_hex": "0x2fefd8"
  },
  "gasUsed": {
    "_hex": "0x15d34"
  },
  "miner": "0x9dD134D14D1e65F84B706d6F205cd5B1CD03a46b",
  "extraData": "0x",
  "transactions": [
    {
      "hash": "0x3e730ac93047070ff2af02817ec321eac8ae6546d9e6fd3373d3db9deae6f671",
      "blockHash": "0x6076b38d6b9c51f60707771e38d167978e7c55956dd3bc07d0ca71a6f082fc7a",
      "blockNumber": 72230,
      "transactionIndex": 0,
      "confirmations": null,
      "from": "0x17580B766f7453525ca4C6A88b01b50570EA088C",
      "gasPrice": {
        "_hex": "0xde1d8e927"
      },
      "gasLimit": {
        "_hex": "0x61a80"
      },
      "to": "0x5Fe5B7546D1628f7348B023A0393de1FC825A4fD",
      "value": {
        "_hex": "0x8ac7230489e80000"
      },
      "nonce": 397,
      "data": "0xb595b8b50000000000000000000000000000000000000000000000000000000000000000",
      "r": "0x373fa766bda4d1d05565ec7ee41afd26cc1484f8785b89e04dd418873f3bac4c",
      "s": "0x07f378d7314d1f15509404cad32441b010fb27f8bc0222281590e8323218c7d7",
      "v": 27,
      "creates": null,
      "raw": "0xf89382018d850de1d8e92783061a80945fe5b7546d1628f7348b023a0393de1fc825a4fd888ac7230489e80000a4b595b8b500000000000000000000000000000000000000000000000000000000000000001ba0373fa766bda4d1d05565ec7ee41afd26cc1484f8785b89e04dd418873f3bac4ca007f378d7314d1f15509404cad32441b010fb27f8bc0222281590e8323218c7d7",
      "networkId": 0,
      "chainId": 0
    },
    {
      "hash": "0xea03aa76120654b32e84a773acec112f2a256e8dc179b1ab41e8d2c496742a03",
      "blockHash": "0x6076b38d6b9c51f60707771e38d167978e7c55956dd3bc07d0ca71a6f082fc7a",
      "blockNumber": 72230,
      "transactionIndex": 1,
      "confirmations": null,
      "from": "0x17580B766f7453525ca4C6A88b01b50570EA088C",
      "gasPrice": {
        "_hex": "0xde1d8e927"
      },
      "gasLimit": {
        "_hex": "0x61a80"
      },
      "to": "0x5Fe5B7546D1628f7348B023A0393de1FC825A4fD",
      "value": {
        "_hex": "0x8ac7230489e80000"
      },
      "nonce": 398,
      "data": "0xb595b8b50000000000000000000000000000000000000000000000000000000000000001",
      "r": "0x8049ad60f76fd741f476c34fba5af6cd217db4e3482b3c11361cb24c19fc94f7",
      "s": "0x7a21bba25314df3130dd9f08a27eb105359414cdbf00d4bfee609da8bede1597",
      "v": 27,
      "creates": null,
      "raw": "0xf89382018e850de1d8e92783061a80945fe5b7546d1628f7348b023a0393de1fc825a4fd888ac7230489e80000a4b595b8b500000000000000000000000000000000000000000000000000000000000000011ba08049ad60f76fd741f476c34fba5af6cd217db4e3482b3c11361cb24c19fc94f7a07a21bba25314df3130dd9f08a27eb105359414cdbf00d4bfee609da8bede1597",
      "networkId": 0,
      "chainId": 0
    }
  ]
}