{
  "hash": "0x3742edef5968e711407c2f8395731c0829f268a895939a7bcaa6e6f1981152ae",
  "parentHash": "0xff7d55fa92a9288207601204a80b935332ecb59bb769d4cdd247c41035a0aae5",
  "number": 79100,
  "timestamp": 1439464416,
  "nonce": "0x10fb8bfb4cc3cd13",
  "difficulty": 2317795223879,
  "gasLimit": {
    "_hex": "0x2fefd8"
  },
  "gasUsed": {
    "_hex": "0x52080"
  },
  "miner": "0xf927a40C8B7F6E07c5af7FA2155B4864a4112B13",
  "extraData": "0x",
  "transactions": [
    {
      "hash": "0xce2f52311b22498f8d7c2ac59acfec84d8847b30f8d5abb46a017807decb4023",
      "blockHash": "0x3742edef5968e711407c2f8395731c0829f268a895939a7bcaa6e6f1981152ae",
      "blockNumber": 79100,
      "transactionIndex": 0,
      "confirmations": null,
      "from": "0xe6A7a1d47ff21B6321162AEA7C6CB457D5476Bca",
      "gasPrice": {
        "_hex": "0xdd8618010"
      },
      "gasLimit": {
        "_hex": "0x55f0"
      },
      "to": "0xce8ff6d2027CA9837abb85FD515752151b6C7d0A",
      "value": {
        "_hex": "0x9f71b553f6fbd068"
      },
      "nonce": 1272,
      "data": "0x",
      "r": "0x0fee0f8cc44e80a45fac5642594b21140d87b0b9104f159dc38e1b21e7015202",
      "s": "0x14f11d81b55012fa41dae40383bd7d1b36e7435af6fd5ddf515f9c6de8fee12f",
      "v": 27,
      "creates": null,
      "raw": "0xf86e8204f8850dd86180108255f094ce8ff6d2027ca9837abb85fd515752151b6c7d0a889f71b553f6fbd068801ba00fee0f8cc44e80a45fac5642594b21140d87b0b9104f159dc38e1b21e7015202a014f11d81b55012fa41dae40383bd7d1b36e7435af6fd5ddf515f9c6de8fee12f",
      "networkId": 0,
      "chainId": 0
    },
    {
      "hash": "0xa8a4d25745bb5653c53155ba5fe321986146b52ed151ee4e6e319d2357e1d6d9",
      "blockHash": "0x3742edef5968e711407c2f8395731c0829f268a895939a7bcaa6e6f1981152ae",
      "blockNumber": 79100,
      "transactionIndex": 1,
      "confirmations": null,
      "from": "0xe6A7a1d47ff21B6321162AEA7C6CB457D5476Bca",
      "gasPrice": {
        "_hex": "0xdd8618010"
      },
      "gasLimit": {
        "_hex": "0x55f0"
      },
      "to": "0x59389A554d044d4b3BED659834A248C59957f168",
      "value": {
        "_hex": "0x9fbed0f7a304b260"
      },
      "nonce": 1273,
      "data": "0x",
      "r": "0x75f781978e2c648b98f8bca52d6efc071aa9f75bb78812873fbf9e10ee6dd9bb",
      "s": "0x7e0536f30449f9905e2e0b7a1b2fa415ac504e487cdaa8bd0cf636581d61b3b9",
      "v": 27,
      "creates": null,
      "raw": "0xf86e8204f9850dd86180108255f09459389a554d044d4b3bed659834a248c59957f168889fbed0f7a304b260801ba075f781978e2c648b98f8bca52d6efc071aa9f75bb78812873fbf9e10ee6dd9bba07e0536f30449f9905e2e0b7a1b2fa415ac504e487cdaa8bd0cf636581d61b3b9",
      "networkId": 0,
      "chainId": 0
    },
    {
      "hash": "0x346f8ec3ab392da8dfea327ba6f56b76d25be40a98f2047331eaaad911ae82f8",
      "blockHash": "0x3742edef5968e711407c2f8395731c0829f268a895939a7bcaa6e6f1981152ae",
      "blockNumber": 79100,
      "transactionIndex": 2,
      "confirmations": null,
      "from": "0xe6A7a1d47ff21B6321162AEA7C6CB457D5476Bca",
      "gasPrice": {
        "_hex": "0xdd8618010"
      },
      "gasLimit": {
        "_hex": "0x55f0"
      },
      "to": "0xC8E61bFB4846B622B084B98Bc586388aFCb70d5F",
      "value": {
        "_hex": "0x9fff286f1ca28930"
      },
      "nonce": 1274,
      "data": "0x",
      "r": "0x2992f22ab8f8321c43aae3682804b17a9237fd7fb0d6ee00fc62500871720a94",
      "s": "0x1800d6a0e2aca82bd5596611736a2c2a9b1a33a06c7a4e7a4a9d9e9b3f3e0f81",
      "v": 28,
      "creates": null,
      "raw": "0xf86e8204fa850dd86180108255f094c8e61bfb4846b622b084b98bc586388afcb70d5f889fff286f1ca28930801ca02992f22ab8f8321c43aae3682804b17a9237fd7fb0d6ee00fc62500871720a94a01800d6a0e2aca82bd5596611736a2c2a9b1a33a06c7a4e7a4a9d9e9b3f3e0f81",
      "networkId": 0,
      "chainId": 0
    },
    {
      "hash": "0x7f336aafe6d5cb6b316d919c3a7b7223fccebb01fb7edc50fc9a12495aead4ed",
      "blockHash": "0x3742edef5968e711407c2f8395731c0829f268a895939a7bcaa6e6f1981152ae",
      "blockNumber": 79100,
      "transactionIndex": 3,
      "confirmations": null,
      "from": "0xe6A7a1d47ff21B6321162AEA7C6CB457D5476Bca",
      "gasPrice": {
        "_hex": "0xdd8618010"
      },
      "gasLimit": {
        "_hex": "0x55f0"
      },
      "to": "0xeA8054C26451cBd17Bd7eD7f6D52335415c0A7B5",
      "value": {
        "_hex": "0xa0060faee55c47d0"
      },
      "nonce": 1275,
      "data": "0x",
      "r": "0x479b4f2bfa592057a9cc04a1810a598ea82c7235431275b69324df1027bf8817",
      "s": "0x7934d27bfea3306c69a08a642b5e4bea5dbaf88b49bada110bb5d6260e710ea9",
      "v": 28,
      "creates": null,
      "raw": "0xf86e8204fb850dd86180108255f094ea8054c26451cbd17bd7ed7f6d52335415c0a7b588a0060faee55c47d0801ca0479b4f2bfa592057a9cc04a1810a598ea82c7235431275b69324df1027bf8817a07934d27bfea3306c69a08a642b5e4bea5dbaf88b49bada110bb5d6260e710ea9",
      "networkId": 0,
      "chainId": 0
    },
    {
      "hash": "0x8a8c183e9f114fd25b9e5cfd4652cdaf69e3179869bb4b27a61c46c653e7f209",
      "blockHash": "0x3742edef5968e711407c2f8395731c0829f268a895939a7bcaa6e6f1981152ae",
      "blockNumber": 79100,
      "transactionIndex": 4,
      "confirmations": null,
      "from": "0xe6A7a1d47ff21B6321162AEA7C6CB457D5476Bca",
      "gasPrice": {
        "_hex": "0xdd8618010"
      },
      "gasLimit": {
        "_hex": "0x55f0"
      },
      "to": "0xaa71fa80d26F718E6A3c87e41D817b8D10944a63",
      "value": {
        "_hex": "0xa14f4033193b9728"
      },
      "nonce": 1276,
      "data": "0x",
      "r": "0x7f6b142085d5e5b670890a4d5f15e4bfb927483f5de49f6228b15039f64584ca",
      "s": "0x5fa772eb9605f032ed60ffb8a09eeb7666ff6eee7129b9ba87c6def82e3f617e",
      "v": 27,
      "creates": null,
      "raw": "0xf86e8204fc850dd86180108255f094aa71fa80d26f718e6a3c87e41d817b8d10944a6388a14f4033193b9728801ba07f6b142085d5e5b670890a4d5f15e4bfb927483f5de49f6228b15039f64584caa05fa772eb9605f032ed60ffb8a09eeb7666ff6eee7129b9ba87c6def82e3f617e",
      "networkId": 0,
      "chainId": 0
    },
    {
      "hash": "0xedb22cc35de90b29dcf52d7bfa416e87d357e79185a6b51bc7f7fc16f0029ab2",
      "blockHash": "0x3742edef5968e711407c2f8395731c0829f268a895939a7bcaa6e6f1981152ae",
      "blockNumber": 79100,
      "transactionIndex": 5,
      "confirmations": null,
      "from": "0xe6A7a1d47ff21B6321162AEA7C6CB457D5476Bca",
      "gasPrice": {
        "_hex": "0xdd8618010"
      },
      "gasLimit": {
        "_hex": "0x55f0"
      },
      "to": "0x7550E0d09f273C690454B44F794D7D381B2E55EA",
      "value": {
        "_hex": "0xa2003947d08be928"
      },
      "nonce": 1277,
      "data": "0x",
      "r": "0x56dc4639e90733f41a575aad5d9e937c19a5bf6d1d7880fa441ad6ab8c03297a",
      "s": "0x1a800a618c673604b0017379096902d518a9aaa729ba8deba968fc3df29eb445",
      "v": 28,
      "creates": null,
      "raw": "0xf86e8204fd850dd86180108255f0947550e0d09f273c690454b44f794d7d381b2e55ea88a2003947d08be928801ca056dc4639e90733f41a575aad5d9e937c19a5bf6d1d7880fa441ad6ab8c03297aa01a800a618c673604b0017379096902d518a9aaa729ba8deba968fc3df29eb445",
      "networkId": 0,
      "chainId": 0
    },
    {
      "hash": "0x5d985f7751e5856c78db3477ba7e0730d2e714ff8e2bc0d2f4fc5fd4ffc2a754",
      "blockHash": "0x3742edef5968e711407c2f8395731c0829f268a895939a7bcaa6e6f1981152ae",
      "blockNumber": 79100,
      "transactionIndex": 6,
      "confirmations": null,
      "from": "0xe6A7a1d47ff21B6321162AEA7C6CB457D5476Bca",
      "gasPrice": {
        "_hex": "0xdd8618010"
      },
      "gasLimit": {
        "_hex": "0x55f0"
      },
      "to": "0x0f3136Da8F55444F1bFc5938a2eFb507b3a24976",
      "value": {
        "_hex": "0xa2bdde1730178730"
      },
      "nonce": 1278,
      "data": "0x",
      "r": "0x26ebfa7169f70bc6d2c5085ec1321ac05c8153b2aad07b347bd1a988c049642e",
      "s": "0x5797cd66dfd1b613f157ba49fa35af213b07bf247044f500c66f0578a7650c71",
      "v": 28,
      "creates": null,
      "raw": "0xf86e8204fe850dd86180108255f0940f3136da8f55444f1bfc5938a2efb507b3a2497688a2bdde1730178730801ca026ebfa7169f70bc6d2c5085ec1321ac05c8153b2aad07b347bd1a988c049642ea05797cd66dfd1b613f157ba49fa35af213b07bf247044f500c66f0578a7650c71",
      "networkId": 0,
      "chainId": 0
    },
    {
      "hash": "0x0103235d0e69c70e032e84bdc463a71bb66e860642be72924db6295c12efb0ec",
      "blockHash": "0x3742edef5968e711407c2f8395731c0829f268a895939a7bcaa6e6f1981152ae",
      "blockNumber": 79100,
      "transactionIndex": 7,
      "confirmations": null,
      "from": "0xe6A7a1d47ff21B6321162AEA7C6CB457D5476Bca",
      "gasPrice": {
        "_hex": "0xdd8618010"
      },
      "gasLimit": {
        "_hex": "0x55f0"
      },
      "to": "0x3175a28CF6105466923f11bFFabD279F162aa2f8",
      "value": {
        "_hex": "0xa3a05de940079f38"
      },
      "nonce": 1279,
      "data": "0x",
      "r": "0x1da28dd3c477faa1de8d13434af994f95b267cde19e9b65f1567d612c17f8dd0",
      "s": "0x474233d934cb85e2eb4674ce653cf303405c7a423fce47b31a43a7830fb2eda7",
      "v": 27,
      "creates": null,
      "raw": "0xf86e8204ff850dd86180108255f0943175a28cf6105466923f11bffabd279f162aa2f888a3a05de940079f38801ba01da28dd3c477faa1de8d13434af994f95b267cde19e9b65f1567d612c17f8dd0a0474233d934cb85e2eb4674ce653cf303405c7a423fce47b31a43a7830fb2eda7",
      "networkId": 0,
      "chainId": 0
    },
    {
      "hash": "0xa543a56996c6c8f74115d0a9ae3650196d2c5ea45a6bf351d30a2c6fb0f374ab",
      "blockHash": "0x3742edef5968e711407c2f8395731c0829f268a895939a7bcaa6e6f1981152ae",
      "blockNumber": 79100,
      "transactionIndex": 8,
      "confirmations": null,
      "from": "0xe6A7a1d47ff21B6321162AEA7C6CB457D5476Bca",
      "gasPrice": {
        "_hex": "0xdd8618010"
      },
      "gasLimit": {
        "_hex": "0x55f0"
      },
      "to": "0x46b29910396E1cF71678f81101334A180876E9b1",
      "value": {
        "_hex": "0xa70a23cbad5da6a8"
      },
      "nonce": 1280,
      "data": "0x",
      "r": "0x836f969d302236f1a73da516e3f7c74861aac4ad8a442cfc180e9909d518bdeb",
      "s": "0x23b75dc5f964746f464deefb33573f40d02481d17633f6e41b95443c847f6620",
      "v": 28,
      "creates": null,
      "raw": "0xf86e820500850dd86180108255f09446b29910396e1cf71678f81101334a180876e9b188a70a23cbad5da6a8801ca0836f969d302236f1a73da516e3f7c74861aac4ad8a442cfc180e9909d518bdeba023b75dc5f964746f464deefb33573f40d02481d17633f6e41b95443c847f6620",
      "networkId": 0,
      "chainId": 0
    },
    {
      "hash": "0x805440b04b78e3a158a8420e5180b5c11bc00c88297aed26d4f9f25174f770bf",
      "blockHash": "0x3742edef5968e711407c2f8395731c0829f268a895939a7bcaa6e6f1981152ae",
      "blockNumber": 79100,
      "transactionIndex": 9,
      "confirmations": null,
      "from": "0xe6A7a1d47ff21B6321162AEA7C6CB457D5476Bca",
      "gasPrice": {
        "_hex": "0xdd8618010"
      },
      "gasLimit": {
        "_hex": "0x55f0"
      },
      "to": "0x211D45933Ef88c3D7aD0120942CF50ab506e618F",
      "value": {
        "_hex": "0xa97e64992c282088"
      },
      "nonce": 1281,
      "data": "0x",
      "r": "0xa94f130ca0dd2ccd849267a736923ad6d6a3af5172f35f4edb649971a4daef22",
      "s": "0x325386b0a46023dd2b29429d8e0754bfa16e3c02295331f318caea28878f9a6a",
      "v": 28,
      "creates": null,
      "raw": "0xf86e820501850dd86180108255f094211d45933ef88c3d7ad0120942cf50ab506e618f88a97e64992c282088801ca0a94f130ca0dd2ccd849267a736923ad6d6a3af5172f35f4edb649971a4daef22a0325386b0a46023dd2b29429d8e0754bfa16e3c02295331f318caea28878f9a6a",
      "networkId": 0,
      "chainId": 0
    },
    {
      "hash": "0xd6a9633aec9baa2fc0049433158b7a94d92b4c0f52a8f9faa1543000f7745e37",
      "blockHash": "0x3742edef5968e711407c2f8395731c0829f268a895939a7bcaa6e6f1981152ae",
      "blockNumber": 79100,
      "transactionIndex": 10,
      "confirmations": null,
      "from": "0xe6A7a1d47ff21B6321162AEA7C6CB457D5476Bca",
      "gasPrice": {
        "_hex": "0xdd8618010"
      },
      "gasLimit": {
        "_hex": "0x55f0"
      },
      "to": "0xaC49eeb6a55aF554D86d37b4A4eA7940010866E1",
      "value": {
        "_hex": "0xaa0c82c1013b3f20"
      },
      "nonce": 1282,
      "data": "0x",
      "r": "0x7d8d3deb8b93dde166b2d486c0c2f44fa59dfac10849bf1f5e33fb142bd9c7b1",
      "s": "0x44a7026439e0f9b58cdc4164b2e89f12c02de683ee5cad998b5fbf41e7c9f086",
      "v": 28,
      "creates": null,
      "raw": "0xf86e820502850dd86180108255f094ac49eeb6a55af554d86d37b4a4ea7940010866e188aa0c82c1013b3f20801ca07d8d3deb8b93dde166b2d486c0c2f44fa59dfac10849bf1f5e33fb142bd9c7b1a044a7026439e0f9b58cdc4164b2e89f12c02de683ee5cad998b5fbf41e7c9f086",
      "networkId": 0,
      "chainId": 0
    },
    {
      "hash": "0x81b1ee5dc84fd9a960b70a28660526204b9b11e3617dfd698d9828aaffc1a48d",
      "blockHash": "0x3742edef5968e711407c2f8395731c0829f268a895939a7bcaa6e6f1981152ae",
      "blockNumber": 79100,
      "transactionIndex": 11,
      "confirmations": null,
      "from": "0xe6A7a1d47ff21B6321162AEA7C6CB457D5476Bca",
      "gasPrice": {
        "_hex": "0xdb59335d7"
      },
      "gasLimit": {
        "_hex": "0x55f0"
      },
      "to": "0xa28F8098A723e4ca02E9f4512410C519a252c1a9",
      "value": {
        "_hex": "0xaca1ba5c5938d150"
      },
      "nonce": 1283,
      "data": "0x",
      "r": "0x83ad5d842921bf9e3eb24257be1ccbb525539eb74df31b1965e86527a78f1be7",
      "s": "0x0a76d829a1310a9e9ca111cf5eb5339dd1d1c6ce7a6c1ecbdfeffcf1b4eae968",
      "v": 28,
      "creates": null,
      "raw": "0xf86e820503850db59335d78255f094a28f8098a723e4ca02e9f4512410c519a252c1a988aca1ba5c5938d150801ca083ad5d842921bf9e3eb24257be1ccbb525539eb74df31b1965e86527a78f1be7a00a76d829a1310a9e9ca111cf5eb5339dd1d1c6ce7a6c1ecbdfeffcf1b4eae968",
      "networkId": 0,
      "chainId": 0
    },
    {
      "hash": "0x82f20067f3db576231180a8d277fc38142ef2a408440445eb4b9d4e2e15cfa32",
      "blockHash": "0x3742edef5968e711407c2f8395731c0829f268a895939a7bcaa6e6f1981152ae",
      "blockNumber": 79100,
      "transactionIndex": 12,
      "confirmations": null,
      "from": "0xe6A7a1d47ff21B6321162AEA7C6CB457D5476Bca",
      "gasPrice": {
        "_hex": "0xdb59335d7"
      },
      "gasLimit": {
        "_hex": "0x55f0"
      },
      "to": "0xB4f6A8f7Cd91Cd4bcADcc0a20e417c392E5f50A4",
      "value": {
        "_hex": "0xaeb5bc6f98a34048"
      },
      "nonce": 1284,
      "data": "0x",
      "r": "0xfee8b57d000ca2ccff4e2a2232a1015c2fbb1f50daa7da70fc3c609d1ab1b377",
      "s": "0x71d6dc2455e60788b54e4def17dcf838f3180e49bc4c0de2c65fbfab633a685d",
      "v": 27,
      "creates": null,
      "raw": "0xf86e820504850db59335d78255f094b4f6a8f7cd91cd4bcadcc0a20e417c392e5f50a488aeb5bc6f98a34048801ba0fee8b57d000ca2ccff4e2a2232a1015c2fbb1f50daa7da70fc3c609d1ab1b377a071d6dc2455e60788b54e4def17dcf838f3180e49bc4c0de2c65fbfab633a685d",
      "networkId": 0,
      "chainId": 0
    },
    {
      "hash": "0xcd0d0d0ab1eac0965485f59dfe0deb71873ed29f50793cd8e364c164f47804d8",
      "blockHash": "0x3742edef5968e711407c2f8395731c0829f268a895939a7bcaa6e6f1981152ae",
      "blockNumber": 79100,
      "transactionIndex": 13,
      "confirmations": null,
      "from": "0xe6A7a1d47ff21B6321162AEA7C6CB457D5476Bca",
      "gasPrice": {
        "_hex": "0xdb59335d7"
      },
      "gasLimit": {
        "_hex": "0x55f0"
      },
      "to": "0x305E8d20Ca61Ba9DD2DD18E1134e7CDB9a13F68D",
      "value": {
        "_hex": "0xafe16d0a3f260ff0"
      },
      "nonce": 1285,
      "data": "0x",
      "r": "0xf693a8ec62f4eef587d16e13c4f97c3ad9ba4d27bc996502c9c225f0a35de330",
      "s": "0x79590793d0988402c03cb490d87499ddbaa890294786b552af5edd2c96825870",
      "v": 27,
      "creates": null,
      "raw": "0xf86e820505850db59335d78255f094305e8d20ca61ba9dd2dd18e1134e7cdb9a13f68d88afe16d0a3f260ff0801ba0f693a8ec62f4eef587d16e13c4f97c3ad9ba4d27bc996502c9c225f0a35de330a079590793d0988402c03cb490d87499ddbaa890294786b552af5edd2c96825870",
      "networkId": 0,
      "chainId": 0
    },
    {
      "hash": "0x1012ed41a2833454d6b49a24184dbc7ff04edd3fbd43a6ea26af3d7b2486e10f",
      "blockHash": "0x3742edef5968e711407c2f8395731c0829f268a895939a7bcaa6e6f1981152ae",
      "blockNumber": 79100,
      "transactionIndex": 14,
      "confirmations": null,
      "from": "0xe6A7a1d47ff21B6321162AEA7C6CB457D5476Bca",
      "gasPrice": {
        "_hex": "0xdb59335d7"
      },
      "gasLimit": {
        "_hex": "0x55f0"
      },
      "to": "0x1fCD278BBad7C33Ab887D8EcA2eace8d38d79Ad6",
      "value": {
        "_hex": "0xb78a781c93aaf9a0"
      },
      "nonce": 1286,
      "data": "0x",
      "r": "0x443227643da1e1f11922ca929207bc1bbcd555b265283e8c557c73be13006446",
      "s": "0x55b404327ec43563e619899aca8fde4ab166b6039aadc682666b5adb5970a034",
      "v": 27,
      "creates": null,
      "raw": "0xf86e820506850db59335d78255f0941fcd278bbad7c33ab887d8eca2eace8d38d79ad688b78a781c93aaf9a0801ba0443227643da1e1f11922ca929207bc1bbcd555b265283e8c557c73be13006446a055b404327ec43563e619899aca8fde4ab166b6039aadc682666b5adb5970a034",
      "networkId": 0,
      "chainId": 0
    },
    {
      "hash": "0x3ce8967d333d96cd82214be13c962bb12c2b610827d6c85bdbd960ab6449cb3f",
      "blockHash": "0x3742edef5968e711407c2f8395731c0829f268a895939a7bcaa6e6f1981152ae",
      "blockNumber": 79100,
      "transactionIndex": 15,
      "confirmations": null,
      "from": "0xe6A7a1d47ff21B6321162AEA7C6CB457D5476Bca",
      "gasPrice": {
        "_hex": "0xdb59335d7"
      },
      "gasLimit": {
        "_hex": "0x55f0"
      },
      "to": "0xBFdD9820a04283b289957956353b5F3C1F665EcF",
      "value": {
        "_hex": "0xb98691bcb897e6d0"
      },
      "nonce": 1287,
      "data": "0x",
      "r": "0x557aba7ff6874c04723ec4761e3faae57771465de4cb87968f4a76085a8ee4ad",
      "s": "0x650be306566a7795ccf2e49900c0df337f35e3a2a17617cef6aec65b36aabe8d",
      "v": 27,
      "creates": null,
      "raw": "0xf86e820507850db59335d78255f094bfdd9820a04283b289957956353b5f3c1f665ecf88b98691bcb897e6d0801ba0557aba7ff6874c04723ec4761e3faae57771465de4cb87968f4a76085a8ee4ada0650be306566a7795ccf2e49900c0df337f35e3a2a17617cef6aec65b36aabe8d",
      "networkId": 0,
      "chainId": 0
    }
  ]
}