{
  "hash": "0x7eaba9c11a41ae55e361dc9e4e15c69a9c841fb5308dc9d0069a5af989b63f6f",
  "parentHash": "0x22916773a557436fa6d95ba5ef4958372ea4cba6751f0a84ab4fdaa5ca5c86c9",
  "number": 117960,
  "timestamp": 1440118238,
  "nonce": "0x334efaa28f6177b9",
  "difficulty": 4348248143731,
  "gasLimit": {
    "_hex": "0x2fefd8"
  },
  "gasUsed": {
    "_hex": "0xa410"
  },
  "miner": "0xe64D681b0eBCa2997D5f35e72EbC7777973299D7",
  "extraData": "0xd783010002844765746887676f312e342e32856c696e7578",
  "transactions": [
    {
      "hash": "0x60d4e56162b0042b877e86ab17587f31f9828ec6eb5916d6a831936a6d11a504",
      "blockHash": "0x7eaba9c11a41ae55e361dc9e4e15c69a9c841fb5308dc9d0069a5af989b63f6f",
      "blockNumber": 117960,
      "transactionIndex": 0,
      "confirmations": null,
      "from": "0xb1abce2918E21ddb93AA452731a12672A3d9F75a",
      "gasPrice": {
        "_hex": "0xba43b7400"
      },
      "gasLimit": {
        "_hex": "0x5208"
      },
      "to": "0x32Be343B94f860124dC4fEe278FDCBD38C102D88",
      "value": {
        "_hex": "0xd026f98ea1d86000"
      },
      "nonce": 186,
      "data": "0x",
      "r": "0x94512779e3d5ebb7462e88052a01b10de3e3488894f0c0006f08db9f8aaff6bd",
      "s": "0x7b9d0b11ad6fb8852e2b87482a5bc8d823f9c0bd66f125fb70305eaf56cfc431",
      "v": 28,
      "creates": null,
      "raw": "0xf86d81ba850ba43b74008252089432be343b94f860124dc4fee278fdcbd38c102d8888d026f98ea1d86000801ca094512779e3d5ebb7462e88052a01b10de3e3488894f0c0006f08db9f8aaff6bda07b9d0b11ad6fb8852e2b87482a5bc8d823f9c0bd66f125fb70305eaf56cfc431",
      "networkId": 0,
      "chainId": 0
    },
    {
      "hash": "0xef5c324dc5fdbb4e3f6202a4949f8ecfb504d74839035ad63dd3bbd0111b7752",
      "blockHash": "0x7eaba9c11a41ae55e361dc9e4e15c69a9c841fb5308dc9d0069a5af989b63f6f",
      "blockNumber": 117960,
      "transactionIndex": 1,
      "confirmations": null,
      "from": "0x608f4b86321a68453f9adf6F06F7Fc3E621739ad",
      "gasPrice": {
        "_hex": "0xba43b7400"
      },
      "gasLimit": {
        "_hex": "0x5208"
      },
      "to": "0x32Be343B94f860124dC4fEe278FDCBD38C102D88",
      "value": {
        "_hex": "0x342fef7513cbf8000"
      },
      "nonce": 11,
      "data": "0x",
      "r": "0x6c5e2772e0b8eb371d26aa96d4e16340bbb95c5d8156b0858d3d9d0e6f4bdd1f",
      "s": "0x61ee0c6564b76415293f99c84aed21af483eff9d1b582a49877c8ab00907af66",
      "v": 27,
      "creates": null,
      "raw": "0xf86d0b850ba43b74008252089432be343b94f860124dc4fee278fdcbd38c102d88890342fef7513cbf8000801ba06c5e2772e0b8eb371d26aa96d4e16340bbb95c5d8156b0858d3d9d0e6f4bdd1fa061ee0c6564b76415293f99c84aed21af483eff9d1b582a49877c8ab00907af66",
      "networkId": 0,
      "chainId": 0
    }
  ]
}