{
  "hash": "0x5f04a235a2cf051b09203c60a6492ab1d41cfb18594eda31c6bfe26e5feb5e05",
  "parentHash": "0x5ac390d9ac956cc567a81706ebacb134c9fdd1c60aa9666c086885f277ef229c",
  "number": 96317,
  "timestamp": 1439738374,
  "nonce": "0x2761fe6267465401",
  "difficulty": 3683620281590,
  "gasLimit": {
    "_hex": "0x2fefd8"
  },
  "gasUsed": {
    "_hex": "0x56ad"
  },
  "miner": "0xe6A7a1d47ff21B6321162AEA7C6CB457D5476Bca",
  "extraData": "0x476574682f76312e302e312d38326566323666362f6c696e75782f676f312e34",
  "transactions": [
    {
      "hash": "0x8d393824131e5f364e89ff25dbf322c7b0baf044dcf52f63acedaa6d54799cac",
      "blockHash": "0x5f04a235a2cf051b09203c60a6492ab1d41cfb18594eda31c6bfe26e5feb5e05",
      "blockNumber": 96317,
      "transactionIndex": 0,
      "confirmations": null,
      "from": "0xa14Cf6cEC1c6aAe4b608458F6e14692863A937Aa",
      "gasPrice": {
        "_hex": "0xcde7be741"
      },
      "gasLimit": {
        "_hex": "0x61a80"
      },
      "to": "0x580E45f982a0A01cFab3B36B3Ec8Df63fcc5D290",
      "value": {
        "_hex": "0x0"
      },
      "nonce": 25,
      "data": "0xa9559dd7",
      "r": "0x77791d207356d481807980d09f5d82a727a0a603080ce626ef17fc80132cccc9",
      "s": "0x7392abd6e41d6f30eb90869abb6b6a0eb778e1b4842883aeb8d94886539366f1",
      "v": 28,
      "creates": null,
      "raw": "0xf86919850cde7be74183061a8094580e45f982a0a01cfab3b36b3ec8df63fcc5d2908084a9559dd71ca077791d207356d481807980d09f5d82a727a0a603080ce626ef17fc80132cccc9a07392abd6e41d6f30eb90869abb6b6a0eb778e1b4842883aeb8d94886539366f1",
      "networkId": 0,
      "chainId": 0
    }
  ]
}