{
  "hash": "0xbd7088655c6a83f4eb870784a6e1785033b7181122365468a82c8665a1d67a00",
  "parentHash": "0x569468564affd45a7a0fe594ed767d83a1872f3f8452050f26aceeb8c60ebbc7",
  "number": 58791,
  "timestamp": 1439126603,
  "nonce": "0x25ff6f1c29bf51fc",
  "difficulty": 1715688985670,
  "gasLimit": {
    "_hex": "0x2fefd8"
  },
  "gasUsed": {
    "_hex": "0x5208"
  },
  "miner": "0x123843545FB525C8E134c9A5F15ADA6865cc3848",
  "extraData": "0x476574682f76312e302e312f77696e646f77732f676f312e342e32",
  "transactions": [
    {
      "hash": "0xd8a0dbe47b970e18c192242c725171979f225b4b83635e541a88e88f139d7a60",
      "blockHash": "0xbd7088655c6a83f4eb870784a6e1785033b7181122365468a82c8665a1d67a00",
      "blockNumber": 58791,
      "transactionIndex": 0,
      "confirmations": null,
      "from": "0x985D744C50fdcB355d105EE00565A8b32BF0B08f",
      "gasPrice": {
        "_hex": "0xd1c343161"
      },
      "gasLimit": {
        "_hex": "0x15f90"
      },
      "to": "0x07BC2CC8eeDC01970700efC9c4Fb36735e98CD71",
      "value": {
        "_hex": "0x0"
      },
      "nonce": 0,
      "data": "0x",
      "r": "0x2b94a292475704e63603b8b76fa3bda7b1bdbeecc382102ca6de65f6eb9229d5",
      "s": "0x27c9aac3b1564f90075bc837fd40b7477133b7e4c8f3b8bec786211846ca3393",
      "v": 27,
      "creates": null,
      "raw": "0xf86580850d1c34316183015f909407bc2cc8eedc01970700efc9c4fb36735e98cd7180801ba02b94a292475704e63603b8b76fa3bda7b1bdbeecc382102ca6de65f6eb9229d5a027c9aac3b1564f90075bc837fd40b7477133b7e4c8f3b8bec786211846ca3393",
      "networkId": 0,
      "chainId": 0
    }
  ]
}