{
  "hash": "0x9e4172da76ac83cfabb41edf70b73e989a53216c4ac8b93fee4c88ffcc2c9075",
  "parentHash": "0x9849f9b119173951049aa5fb37ca17bd6b1ac3a70aca649b1b2329db75195518",
  "number": 105273,
  "timestamp": 1439884734,
  "nonce": "0x362252071e52ee3f",
  "difficulty": 4361213266138,
  "gasLimit": {
    "_hex": "0x2fefd8"
  },
  "gasUsed": {
    "_hex": "0xf618"
  },
  "miner": "0xe6A7a1d47ff21B6321162AEA7C6CB457D5476Bca",
  "extraData": "0x476574682f76312e302e312d38326566323666362f6c696e75782f676f312e34",
  "transactions": [
    {
      "hash": "0x07ec2402fa452869fc218f52e8ab89584d3d1f2d162a973b0a25fca6000bf929",
      "blockHash": "0x9e4172da76ac83cfabb41edf70b73e989a53216c4ac8b93fee4c88ffcc2c9075",
      "blockNumber": 105273,
      "transactionIndex": 0,
      "confirmations": null,
      "from": "0x007f7f58D3eb5b7510A301eCC749FC1fCDDBE14D",
      "gasPrice": {
        "_hex": "0xde90f59a8"
      },
      "gasLimit": {
        "_hex": "0x15f90"
      },
      "to": "0xb1abce2918E21ddb93AA452731a12672A3d9F75a",
      "value": {
        "_hex": "0x4563918244f40000"
      },
      "nonce": 247,
      "data": "0x",
      "r": "0x99e5679be2d02832143f8e0114c3cb425e4ec2a54cb02a70bd31dea363bbf171",
      "s": "0x512c80835c7f36312a3d23479c90494760aa67b5fc0b9169fead0675f9262bed",
      "v": 28,
      "creates": null,
      "raw": "0xf86e81f7850de90f59a883015f9094b1abce2918e21ddb93aa452731a12672a3d9f75a884563918244f40000801ca099e5679be2d02832143f8e0114c3cb425e4ec2a54cb02a70bd31dea363bbf171a0512c80835c7f36312a3d23479c90494760aa67b5fc0b9169fead0675f9262bed",
      "networkId": 0,
      "chainId": 0
    },
    {
      "hash": "0x3d01d7031e521f69dedda407e759316d05442ad6b14be5fa3220e6c94de8d22b",
      "blockHash": "0x9e4172da76ac83cfabb41edf70b73e989a53216c4ac8b93fee4c88ffcc2c9075",
      "blockNumber": 105273,
      "transactionIndex": 1,
      "confirmations": null,
      "from": "0x007f7f58D3eb5b7510A301eCC749FC1fCDDBE14D",
      "gasPrice": {
        "_hex": "0xde90f59a8"
      },
      "gasLimit": {
        "_hex": "0x15f90"
      },
      "to": "0xb1abce2918E21ddb93AA452731a12672A3d9F75a",
      "value": {
        "_hex": "0x4563918244f40000"
      },
      "nonce": 248,
      "data": "0x",
      "r": "0x5a040f48578370dec1bc8369b57f53242a99890516849dc2b8893bef8cf158cb",
      "s": "0x20b0bb76a1d3f34dd267f372f5fc555998edaa905eea3ce3f140f2d2105b6e7e",
      "v": 28,
      "creates": null,
      "raw": "0xf86e81f8850de90f59a883015f9094b1abce2918e21ddb93aa452731a12672a3d9f75a884563918244f40000801ca05a040f48578370dec1bc8369b57f53242a99890516849dc2b8893bef8cf158cba020b0bb76a1d3f34dd267f372f5fc555998edaa905eea3ce3f140f2d2105b6e7e",
      "networkId": 0,
      "chainId": 0
    },
    {
      "hash": "0x627f9f28a064d14eb49764367db55f8c5e0bca964b89e429820f8a4ff1c70719",
      "blockHash": "0x9e4172da76ac83cfabb41edf70b73e989a53216c4ac8b93fee4c88ffcc2c9075",
      "blockNumber": 105273,
      "transactionIndex": 2,
      "confirmations": null,
      "from": "0x007f7f58D3eb5b7510A301eCC749FC1fCDDBE14D",
      "gasPrice": {
        "_hex": "0xde90f59a8"
      },
      "gasLimit": {
        "_hex": "0x15f90"
      },
      "to": "0xb1abce2918E21ddb93AA452731a12672A3d9F75a",
      "value": {
        "_hex": "0x4563918244f40000"
      },
      "nonce": 249,
      "data": "0x",
      "r": "0xf87e5aa5e9d7fafcbadcd8da51f67176dddee39d1f2d3e9d47690e6cc6d68f32",
      "s": "0x357b985839c73894bfeb527b88a331da8024d3e1c6f99bb705e6e9555700cbd5",
      "v": 27,
      "creates": null,
      "raw": "0xf86e81f9850de90f59a883015f9094b1abce2918e21ddb93aa452731a12672a3d9f75a884563918244f40000801ba0f87e5aa5e9d7fafcbadcd8da51f67176dddee39d1f2d3e9d47690e6cc6d68f32a0357b985839c73894bfeb527b88a331da8024d3e1c6f99bb705e6e9555700cbd5",
      "networkId": 0,
      "chainId": 0
    }
  ]
}