{
  "hash": "0x595d7a5c3cf4912d53c0832513f6b7c9699316d84df2eb3103a7820c73b1127c",
  "parentHash": "0xab2eafeaec927ec34421e5188a06da2275d1df5924105d913f237e44b9e562d7",
  "number": 97193,
  "timestamp": 1439752363,
  "nonce": "0xacd9e988636060cb",
  "difficulty": 3763223824270,
  "gasLimit": {
    "_hex": "0x2fefd8"
  },
  "gasUsed": {
    "_hex": "0x5208"
  },
  "miner": "0xEF247E639d49461D25F57e9362CadE3120910Ce0",
  "extraData": "0x476574682f76312e302e312f6c696e75782f676f312e342e32",
  "transactions": [
    {
      "hash": "0xed55f42e04631d8d96c39838837a02ecfc80c38d3c31406d37ced6a27443cc7d",
      "blockHash": "0x595d7a5c3cf4912d53c0832513f6b7c9699316d84df2eb3103a7820c73b1127c",
      "blockNumber": 97193,
      "transactionIndex": 0,
      "confirmations": null,
      "from": "0x2910543Af39abA0Cd09dBb2D50200b3E800A63D2",
      "gasPrice": {
        "_hex": "0xd59e4bb00"
      },
      "gasLimit": {
        "_hex": "0x5208"
      },
      "to": "0x2bc0c92E4De6f4C5650B1605B989a11b644F5dE9",
      "value": {
        "_hex": "0xdcef33a6f838000"
      },
      "nonce": 919,
      "data": "0x",
      "r": "0xdf2b5a6f6b84eeb30004a9b4a676ad02fd52e079ad193d83066a152da9cbd510",
      "s": "0x49477e73c12de9e8dc54c9d82b236f889d75b0d7f26d72824d37af00cbb06b33",
      "v": 27,
      "creates": null,
      "raw": "0xf86e820397850d59e4bb00825208942bc0c92e4de6f4c5650b1605b989a11b644f5de9880dcef33a6f838000801ba0df2b5a6f6b84eeb30004a9b4a676ad02fd52e079ad193d83066a152da9cbd510a049477e73c12de9e8dc54c9d82b236f889d75b0d7f26d72824d37af00cbb06b33",
      "networkId": 0,
      "chainId": 0
    }
  ]
}