{
  "hash": "0x5ff155eaa3c61ea44db60a350dbbca5e7f27dbfc2154ddcca2818820e38bfa3f",
  "parentHash": "0xd0c660f6f200a1950126e522ffdc50b319cd9532e492ac63808e19f4e4f960f9",
  "number": 50516,
  "timestamp": 1438990497,
  "nonce": "0xe39fc932c3bbaf71",
  "difficulty": 1513366053041,
  "gasLimit": {
    "_hex": "0x67e26"
  },
  "gasUsed": {
    "_hex": "0x16d01"
  },
  "miner": "0xe6A7a1d47ff21B6321162AEA7C6CB457D5476Bca",
  "extraData": "0x657468706f6f6c2e6f7267",
  "transactions": [
    {
      "hash": "0x889a205ab5bfaa71e669c4e250d16cfd14fba54e08449a2827556bd7ca11b449",
      "blockHash": "0x5ff155eaa3c61ea44db60a350dbbca5e7f27dbfc2154ddcca2818820e38bfa3f",
      "blockNumber": 50516,
      "transactionIndex": 0,
      "confirmations": null,
      "from": "0x228242F8336EECd8242e1F000F41937e71DfFBbf",
      "gasPrice": {
        "_hex": "0x110c8f7d8de"
      },
      "gasLimit": {
        "_hex": "0xc350"
      },
      "to": "0x2910543Af39abA0Cd09dBb2D50200b3E800A63D2",
      "value": {
        "_hex": "0x10eff0fae29b1bc0000"
      },
      "nonce": 0,
      "data": "0x454e43414357514647",
      "r": "0x4c8ece0dada59c2adb3ffa3f915cef1d518243757aa5325ab3b738081f0f236d",
      "s": "0xd194bff285f22e5fba6b47035898ae275ac247a6585ff9bc88ca755e555ce127",
      "v": 27,
      "creates": null,
      "raw": "0xf87880860110c8f7d8de82c350942910543af39aba0cd09dbb2d50200b3e800a63d28a010eff0fae29b1bc000089454e434143575146471ba04c8ece0dada59c2adb3ffa3f915cef1d518243757aa5325ab3b738081f0f236da0d194bff285f22e5fba6b47035898ae275ac247a6585ff9bc88ca755e555ce127",
      "networkId": 0,
      "chainId": 0
    },
    {
      "hash": "0x6d78c90e7d5d8507e4ac6fd776c9621e1472f2cdb08e51976f98dcc5baa41d4c",
      "blockHash": "0x5ff155eaa3c61ea44db60a350dbbca5e7f27dbfc2154ddcca2818820e38bfa3f",
      "blockNumber": 50516,
      "transactionIndex": 1,
      "confirmations": null,
      "from": "0xb884add88d83dC564Ab8E0E02cbDB63919Aea844",
      "gasPrice": {
        "_hex": "0xcb9819436"
      },
      "gasLimit": {
        "_hex": "0x30d40"
      },
      "to": "0xA327075af2a223A1C83a36aDa1126afE7430f955",
      "value": {
        "_hex": "0x8ac7230489e80000"
      },
      "nonce": 2,
      "data": "0x",
      "r": "0x01afbea7edbb4afe43b3d3d59c48f6e040a6b473dc51bd300b5bb507b49f659a",
      "s": "0x3d236666f7ac108f143b8947f4f39c9f607629675ed62720425d4b5a8bee7718",
      "v": 28,
      "creates": null,
      "raw": "0xf86d02850cb981943683030d4094a327075af2a223a1c83a36ada1126afe7430f955888ac7230489e80000801ca001afbea7edbb4afe43b3d3d59c48f6e040a6b473dc51bd300b5bb507b49f659aa03d236666f7ac108f143b8947f4f39c9f607629675ed62720425d4b5a8bee7718",
      "networkId": 0,
      "chainId": 0
    }
  ]
}