{
  "hash": "0x19f3a253d8e33f9641d7201199461683f5b0e3bc57489937ca2339f5bbf3a7bf",
  "parentHash": "0xe9625a35b800bc8d8ae72254db937be0035ca8fac15b93233e09ea3e240c7251",
  "number": 61336,
  "timestamp": 1439170871,
  "nonce": "0x458b514485974c3d",
  "difficulty": 1726090474578,
  "gasLimit": {
    "_hex": "0x2fefd8"
  },
  "gasUsed": {
    "_hex": "0x5208"
  },
  "miner": "0x2496580535aEEF037C3232D8AfeB01545735c3Dc",
  "extraData": "0x476574682f76312e302e312f77696e646f77732f676f312e342e32",
  "transactions": [
    {
      "hash": "0x9c340900ab8d91ff628a4347efdf031dbf6f43a406b8404cef356972bd4fd8a9",
      "blockHash": "0x19f3a253d8e33f9641d7201199461683f5b0e3bc57489937ca2339f5bbf3a7bf",
      "blockNumber": 61336,
      "transactionIndex": 0,
      "confirmations": null,
      "from": "0x32Be343B94f860124dC4fEe278FDCBD38C102D88",
      "gasPrice": {
        "_hex": "0xd29dcf46a"
      },
      "gasLimit": {
        "_hex": "0x5208"
      },
      "to": "0x0f2b9F3737384599b0a88B59f910dDAE99405c39",
      "value": {
        "_hex": "0xdbd2fc137a30000"
      },
      "nonce": 137,
      "data": "0x",
      "r": "0x43121c150d313b0431679909d3b85f37c02d6109217d92c11798ffc9d6badadb",
      "s": "0x6050dde55ed85227d3a146678b5317f9ac3141f0bcc24f01b908fc86bbf69a8c",
      "v": 27,
      "creates": null,
      "raw": "0xf86d8189850d29dcf46a825208940f2b9f3737384599b0a88b59f910ddae99405c39880dbd2fc137a30000801ba043121c150d313b0431679909d3b85f37c02d6109217d92c11798ffc9d6badadba06050dde55ed85227d3a146678b5317f9ac3141f0bcc24f01b908fc86bbf69a8c",
      "networkId": 0,
      "chainId": 0
    }
  ]
}