{
  "hash": "0x624cbe83b2943476cbd485a8fbab410d4a01908990466628e6e25579820ac572",
  "parentHash": "0xca9144495e1e4d07564e678c1d5575e9de09cd0a1a01d3e8b24e65b8e06a7c7d",
  "number": 71034,
  "timestamp": 1439329478,
  "nonce": "0x66808cf1a7ed370b",
  "difficulty": 2154070236530,
  "gasLimit": {
    "_hex": "0x2fefd8"
  },
  "gasUsed": {
    "_hex": "0x5208"
  },
  "miner": "0xe6A7a1d47ff21B6321162AEA7C6CB457D5476Bca",
  "extraData": "0x476574682f76312e302e312d38326566323666362f6c696e75782f676f312e34",
  "transactions": [
    {
      "hash": "0x95fdc0ecfb9ebac598cce3cb48ada96a686b4f66c4e6abf22b9a871b6ef2791f",
      "blockHash": "0x624cbe83b2943476cbd485a8fbab410d4a01908990466628e6e25579820ac572",
      "blockNumber": 71034,
      "transactionIndex": 0,
      "confirmations": null,
      "from": "0x36d85Dc3683156e63Bf880A9fAb7788CF8143a27",
      "gasPrice": {
        "_hex": "0xd7183c902"
      },
      "gasLimit": {
        "_hex": "0x15f90"
      },
      "to": "0x9d43a960d520cC21608309e5893fd421B09a55Cc",
      "value": {
        "_hex": "0x8ac7230489e80000"
      },
      "nonce": 7,
      "data": "0x",
      "r": "0x13be7ce05f5103986e8c6b5d288ee227214191e7f33061eaee8b1f4bda382915",
      "s": "0x0b7ed93672e71dfc811d1260e92db7a5ffdfd6ea6de55d77a709aa26e4cc3930",
      "v": 28,
      "creates": null,
      "raw": "0xf86d07850d7183c90283015f90949d43a960d520cc21608309e5893fd421b09a55cc888ac7230489e80000801ca013be7ce05f5103986e8c6b5d288ee227214191e7f33061eaee8b1f4bda382915a00b7ed93672e71dfc811d1260e92db7a5ffdfd6ea6de55d77a709aa26e4cc3930",
      "networkId": 0,
      "chainId": 0
    }
  ]
}