{
  "hash": "0x7f665b37ffc9d1d417e7cae6dfd88f168b5af52fa6facf15e435b245681dddcb",
  "parentHash": "0x269ce7f996ada7af90080c96e02d02da347eca2c8c31dfa0b5b549869dfb960f",
  "number": 78242,
  "timestamp": 1439450820,
  "nonce": "0xaf4bcd08b1572059",
  "difficulty": 2282094541105,
  "gasLimit": {
    "_hex": "0x2fefd8"
  },
  "gasUsed": {
    "_hex": "0x5208"
  },
  "miner": "0x7E6930B63D03e88F5928C5cd6ee3FCee4D714F7F",
  "extraData": "0x",
  "transactions": [
    {
      "hash": "0x759ff1b01f3fcc3af7305b85f96f4b0120d794a561a808d614c29c45325d7c94",
      "blockHash": "0x7f665b37ffc9d1d417e7cae6dfd88f168b5af52fa6facf15e435b245681dddcb",
      "blockNumber": 78242,
      "transactionIndex": 0,
      "confirmations": null,
      "from": "0x1308A2e95c0160B90803ddCA9B9a5bb55E416d79",
      "gasPrice": {
        "_hex": "0xe8d4a51000"
      },
      "gasLimit": {
        "_hex": "0x15f90"
      },
      "to": "0x151145F7F490268407b4eDafE018b117c1b321f1",
      "value": {
        "_hex": "0x8ac7230489e80000"
      },
      "nonce": 123,
      "data": "0x",
      "r": "0x895f916ea3ef927dc70dc14a2014b28c6ed10c49dc8b0dc5ee960d2255a9e698",
      "s": "0x3f214ee5fd7dbb366fd9c1d2e6640f6509f01e6a1c5674cfe457674411be07c1",
      "v": 27,
      "creates": null,
      "raw": "0xf86d7b85e8d4a5100083015f9094151145f7f490268407b4edafe018b117c1b321f1888ac7230489e80000801ba0895f916ea3ef927dc70dc14a2014b28c6ed10c49dc8b0dc5ee960d2255a9e698a03f214ee5fd7dbb366fd9c1d2e6640f6509f01e6a1c5674cfe457674411be07c1",
      "networkId": 0,
      "chainId": 0
    }
  ]
}