{
  "hash": "0xfbffa262b70d9492603d35a83e3b27a5355cac964802234fd92d2187f79ae9f0",
  "parentHash": "0xa47b3b66343c9e7e188964601d33e3976787a30dcbd474682cfecc1bb54c5a4d",
  "number": 83289,
  "timestamp": 1439533172,
  "nonce": "0xf971234f9dcfe4a4",
  "difficulty": 2417170167375,
  "gasLimit": {
    "_hex": "0x2fefd8"
  },
  "gasUsed": {
    "_hex": "0x5208"
  },
  "miner": "0xe6A7a1d47ff21B6321162AEA7C6CB457D5476Bca",
  "extraData": "0x476574682f76312e302e312d38326566323666362f6c696e75782f676f312e34",
  "transactions": [
    {
      "hash": "0x570618411221fd503cef91549c953d37dc26453c8c88a8f6014ccc9e365573e3",
      "blockHash": "0xfbffa262b70d9492603d35a83e3b27a5355cac964802234fd92d2187f79ae9f0",
      "blockNumber": 83289,
      "transactionIndex": 0,
      "confirmations": null,
      "from": "0x9FD64373F2FbCd9C0FaCA60547cAD62e26D9851f",
      "gasPrice": {
        "_hex": "0xd7d40ace3"
      },
      "gasLimit": {
        "_hex": "0x15f90"
      },
      "to": "0x7109fCfDB4fd408dA1bB8dF4ACa731a556c451E5",
      "value": {
        "_hex": "0x3627e8f712373c0000"
      },
      "nonce": 0,
      "data": "0x",
      "r": "0x67ab1ee7d3bd1c4035d50967010ec0199149b837950168e8835ec3a8426ffdb0",
      "s": "0x38c7e84d185fd471451440f8e5953f755f6c02fba5e27232e6dd48161ef08fcc",
      "v": 28,
      "creates": null,
      "raw": "0xf86e80850d7d40ace383015f90947109fcfdb4fd408da1bb8df4aca731a556c451e5893627e8f712373c0000801ca067ab1ee7d3bd1c4035d50967010ec0199149b837950168e8835ec3a8426ffdb0a038c7e84d185fd471451440f8e5953f755f6c02fba5e27232e6dd48161ef08fcc",
      "networkId": 0,
      "chainId": 0
    }
  ]
}