{
  "hash": "0x694d2ca09a54ce23b67da58c14e6923f048af1339b05e6fb7cdbd41174ecaca7",
  "parentHash": "0xd03036c55ee6226b9dd64b182d57884dfd7d4af5d423f2e6e9ef3df52f84d34f",
  "number": 59915,
  "timestamp": 1439145777,
  "nonce": "0xcd40c1babe14cd34",
  "difficulty": 1730602844412,
  "gasLimit": {
    "_hex": "0x2fefd8"
  },
  "gasUsed": {
    "_hex": "0x5208"
  },
  "miner": "0xA21Ba94e45f0E168dA824fC67aC9cb5Cb577a8aF",
  "extraData": "0x",
  "transactions": [
    {
      "hash": "0xe7156d7db24c0d079a97b0e9e754aea44c72371e17647c6974167da277b57779",
      "blockHash": "0x694d2ca09a54ce23b67da58c14e6923f048af1339b05e6fb7cdbd41174ecaca7",
      "blockNumber": 59915,
      "transactionIndex": 0,
      "confirmations": null,
      "from": "0x32Be343B94f860124dC4fEe278FDCBD38C102D88",
      "gasPrice": {
        "_hex": "0xcc4b1fc95"
      },
      "gasLimit": {
        "_hex": "0x5208"
      },
      "to": "0xF8CDdB4300504E2827E28101BF15c9215658296c",
      "value": {
        "_hex": "0x9c4fd5e43fb538000"
      },
      "nonce": 112,
      "data": "0x",
      "r": "0xb8bbd198a1c776d4e4a2395fe8422d5a1703575c4877e03e5b2193afd759f742",
      "s": "0x5b5172bde3ac955c941c83b16d5c011684c97c7d1248b102d0b721e7b9274bfd",
      "v": 28,
      "creates": null,
      "raw": "0xf86d70850cc4b1fc9582520894f8cddb4300504e2827e28101bf15c9215658296c8909c4fd5e43fb538000801ca0b8bbd198a1c776d4e4a2395fe8422d5a1703575c4877e03e5b2193afd759f742a05b5172bde3ac955c941c83b16d5c011684c97c7d1248b102d0b721e7b9274bfd",
      "networkId": 0,
      "chainId": 0
    }
  ]
}