{
  "hash": "0x9cacdc6ca5d495b7a8df74c8220e381d69515525ae5a702e594fdcc23ba9546b",
  "parentHash": "0xa1f09770adabea1bed36eb2ff6fb6d4dc79f2ae5d4c674823649b54009f45e52",
  "number": 50670,
  "timestamp": 1438992854,
  "nonce": "0x04b8b164464e65be",
  "difficulty": 1526697718778,
  "gasLimit": {
    "_hex": "0x70609"
  },
  "gasUsed": {
    "_hex": "0x546c"
  },
  "miner": "0x02017Ae4e03d3eB7322e0Fcd8738CA20AFDE53e4",
  "extraData": "0x476574682f76312e302e312f6c696e75782f676f312e342e32",
  "transactions": [
    {
      "hash": "0x3dc071a8f01a0a9ecfae026b7b32b78ff53a16cc1a335cfd8d1a84da6c3a5c0c",
      "blockHash": "0x9cacdc6ca5d495b7a8df74c8220e381d69515525ae5a702e594fdcc23ba9546b",
      "blockNumber": 50670,
      "transactionIndex": 0,
      "confirmations": null,
      "from": "0x7a2dFc770e24368131B7847795F203F3d50d5b56",
      "gasPrice": {
        "_hex": "0xcd2af342f"
      },
      "gasLimit": {
        "_hex": "0x15f90"
      },
      "to": "0x2910543Af39abA0Cd09dBb2D50200b3E800A63D2",
      "value": {
        "_hex": "0x8ac7230489e80000"
      },
      "nonce": 0,
      "data": "0x454e524b3232584638",
      "r": "0x48a6ba6165371f9ebc7184d508095f1a857e612ddcaa97dc26b954c13705fe42",
      "s": "0x04bec27fc751e29ab207d6f9af3ee2f658d8ee397b9f432fae0515cf0c2228ce",
      "v": 27,
      "creates": null,
      "raw": "0xf87680850cd2af342f83015f90942910543af39aba0cd09dbb2d50200b3e800a63d2888ac7230489e8000089454e524b32325846381ba048a6ba6165371f9ebc7184d508095f1a857e612ddcaa97dc26b954c13705fe42a004bec27fc751e29ab207d6f9af3ee2f658d8ee397b9f432fae0515cf0c2228ce",
      "networkId": 0,
      "chainId": 0
    }
  ]
}