{
  "hash": "0xc8f294ee11b12d1c7d9e8c6857f0887c92c550f22ed2a104a668f92d5d68b0b4",
  "parentHash": "0x02b8a9401713bd04bb7682b6cbb6ab336ec93e43b88b2e66d32d0fb702843a20",
  "number": 52700,
  "timestamp": 1439025901,
  "nonce": "0x307b18b527818424",
  "difficulty": 1571706436729,
  "gasLimit": {
    "_hex": "0x18108c"
  },
  "gasUsed": {
    "_hex": "0x546c"
  },
  "miner": "0x24339341F29d2aaD7d3c591c0f9931e7D4bFEd6e",
  "extraData": "0x476574682f76312e302e312f6c696e75782f676f312e342e32",
  "transactions": [
    {
      "hash": "0xe7226e20dc6805eb6dc7293cb2c97df3fc00839978b4c06fc731844c64701dcd",
      "blockHash": "0xc8f294ee11b12d1c7d9e8c6857f0887c92c550f22ed2a104a668f92d5d68b0b4",
      "blockNumber": 52700,
      "transactionIndex": 0,
      "confirmations": null,
      "from": "0x1B8aa0160cD79f005F88510A714913D70Ad3bE33",
      "gasPrice": {
        "_hex": "0x1028c88648"
      },
      "gasLimit": {
        "_hex": "0x15f90"
      },
      "to": "0x2910543Af39abA0Cd09dBb2D50200b3E800A63D2",
      "value": {
        "_hex": "0x5340f38f31dde8000"
      },
      "nonce": 9,
      "data": "0x454e42384b33564652",
      "r": "0x20e16001c62fd104fde8a13ebc05e76b1c01e926534be0073f36bd8eb883bb06",
      "s": "0x339dcc6c1ff27c94d0359dbec5a1007a758086fb6db9f3bb3c34c3228de13692",
      "v": 27,
      "creates": null,
      "raw": "0xf87709851028c8864883015f90942910543af39aba0cd09dbb2d50200b3e800a63d28905340f38f31dde800089454e42384b335646521ba020e16001c62fd104fde8a13ebc05e76b1c01e926534be0073f36bd8eb883bb06a0339dcc6c1ff27c94d0359dbec5a1007a758086fb6db9f3bb3c34c3228de13692",
      "networkId": 0,
      "chainId": 0
    }
  ]
}