{
  "hash": "0xed5f82be267494c82e193bf5ee51426f5be506bcc03499fede3bde55d039f8d7",
  "parentHash": "0x705dd964230e016e5a917a9163e90e35d6d39d7a7a81473c441ca74b4d1dd99f",
  "number": 62542,
  "timestamp": 1439190451,
  "nonce": "0xe316c3cd42a26ba2",
  "difficulty": 1768495717174,
  "gasLimit": {
    "_hex": "0x2fefd5"
  },
  "gasUsed": {
    "_hex": "0xa410"
  },
  "miner": "0x6dED38803DA575897de5d51b7AEF3b86f35945A1",
  "extraData": "0x476574682f76312e302e312f6c696e75782f676f312e342e32",
  "transactions": [
    {
      "hash": "0x099b6e61286359e33dbe692dece4e91d0bac47f3c4799d6cf1daebdb1a9d8212",
      "blockHash": "0xed5f82be267494c82e193bf5ee51426f5be506bcc03499fede3bde55d039f8d7",
      "blockNumber": 62542,
      "transactionIndex": 0,
      "confirmations": null,
      "from": "0x120A270bbC009644e35F0bB6ab13f95b8199c4ad",
      "gasPrice": {
        "_hex": "0xdd9404ec6"
      },
      "gasLimit": {
        "_hex": "0x15f90"
      },
      "to": "0xb7D2dA6be86fA2bA1aF36d09448F029e438Fc419",
      "value": {
        "_hex": "0x3635c9adc5dea00000"
      },
      "nonce": 91,
      "data": "0x",
      "r": "0x3655534e70e0ffc2e881e388a14e6c17d8546d8351cbdf6f8fd1dc556a96d991",
      "s": "0x37b0606a111fd1ff862de02bed7bc9fd300570fa5362c5523e1d8bd20fa86e56",
      "v": 28,
      "creates": null,
      "raw": "0xf86e5b850dd9404ec683015f9094b7d2da6be86fa2ba1af36d09448f029e438fc419893635c9adc5dea00000801ca03655534e70e0ffc2e881e388a14e6c17d8546d8351cbdf6f8fd1dc556a96d991a037b0606a111fd1ff862de02bed7bc9fd300570fa5362c5523e1d8bd20fa86e56",
      "networkId": 0,
      "chainId": 0
    },
    {
      "hash": "0xbb62e6796cb145516d4a9b0f3c5f285bc9cdee1c9a0c36c7d42d986cf6ed3bfa",
      "blockHash": "0xed5f82be267494c82e193bf5ee51426f5be506bcc03499fede3bde55d039f8d7",
      "blockNumber": 62542,
      "transactionIndex": 1,
      "confirmations": null,
      "from": "0xc8ebccC5F5689Fa8659d83713341e5aD19349448",
      "gasPrice": {
        "_hex": "0xd338bf67d"
      },
      "gasLimit": {
        "_hex": "0x15f90"
      },
      "to": "0x2B15C5211bdA6A867c582080536f6c61766aA5Af",
      "value": {
        "_hex": "0x8e1bc9bf040000"
      },
      "nonce": 25,
      "data": "0x",
      "r": "0x9d4dfaf3b055432a171fe87b0bb170fac31378cc4c851f0b59025b977c58babc",
      "s": "0x72674bb6d4a932aaa5e908f1bf7dcb441c26363d2d433764fa91f2bbdbac727b",
      "v": 28,
      "creates": null,
      "raw": "0xf86c19850d338bf67d83015f90942b15c5211bda6a867c582080536f6c61766aa5af878e1bc9bf040000801ca09d4dfaf3b055432a171fe87b0bb170fac31378cc4c851f0b59025b977c58babca072674bb6d4a932aaa5e908f1bf7dcb441c26363d2d433764fa91f2bbdbac727b",
      "networkId": 0,
      "chainId": 0
    }
  ]
}