{
  "hash": "0xd2852ace9c2417d2ff46ef359b804f244ca183f73e42af591756a81e6c9847a1",
  "parentHash": "0x100a082f68e7824318d69347a334153ca0ab07825f1960613659653bbb74b4a5",
  "number": 71469,
  "timestamp": 1439336624,
  "nonce": "0xb239aa7241c8dff8",
  "difficulty": 2176158652958,
  "gasLimit": {
    "_hex": "0x2fefd8"
  },
  "gasUsed": {
    "_hex": "0x9400"
  },
  "miner": "0x306e6267d94f23a9b37Cb110f20852208Fbbf1aA",
  "extraData": "0x",
  "transactions": [
    {
      "hash": "0x4930828e70527329d7cbafbfa3c84ff8bab208f041adbb33f847ec04a5e92dee",
      "blockHash": "0xd2852ace9c2417d2ff46ef359b804f244ca183f73e42af591756a81e6c9847a1",
      "blockNumber": 71469,
      "transactionIndex": 0,
      "confirmations": null,
      "from": "0x17580B766f7453525ca4C6A88b01b50570EA088C",
      "gasPrice": {
        "_hex": "0xe1492f1a9"
      },
      "gasLimit": {
        "_hex": "0x61a80"
      },
      "to": "0x5Fe5B7546D1628f7348B023A0393de1FC825A4fD",
      "value": {
        "_hex": "0x29a2241af62c0000"
      },
      "nonce": 200,
      "data": "0xb595b8b50000000000000000000000000000000000000000000000000000000000000001",
      "r": "0x2a180819598153b6fa90cb20f4be233cd419ed98af11867155883cbbcd022e2d",
      "s": "0x15478eea81142cac7995eff8b10802a26dd2e85d35f16442f8eaac3c18f24310",
      "v": 28,
      "creates": null,
      "raw": "0xf89281c8850e1492f1a983061a80945fe5b7546d1628f7348b023a0393de1fc825a4fd8829a2241af62c0000a4b595b8b500000000000000000000000000000000000000000000000000000000000000011ca02a180819598153b6fa90cb20f4be233cd419ed98af11867155883cbbcd022e2da015478eea81142cac7995eff8b10802a26dd2e85d35f16442f8eaac3c18f24310",
      "networkId": 0,
      "chainId": 0
    }
  ]
}