{
  "hash": "0xe7b95eba3c5be2c1443d14941eb0614f90721f08d89c4757217f4df0baa1fd12",
  "parentHash": "0x9437aa20ebc6dabdb9ec4b764465cd0a6d6f4d05d266ec4ac6089398dfa78f7d",
  "number": 49270,
  "timestamp": 1438970845,
  "nonce": "0x5975ce9c5bd3bc97",
  "difficulty": 1479973140966,
  "gasLimit": {
    "_hex": "0x2b186"
  },
  "gasUsed": {
    "_hex": "0xa410"
  },
  "miner": "0xbb7B8287f3F0a933474a79eAe42CBCa977791171",
  "extraData": "0x476574682f4c5649562f76312e302e312f6c696e75782f676f312e342e32",
  "transactions": [
    {
      "hash": "0x5d8fa81dee9e36f91ba503748ad4075be4fe90bb3f41ea1b9eb786d8b22940f0",
      "blockHash": "0xe7b95eba3c5be2c1443d14941eb0614f90721f08d89c4757217f4df0baa1fd12",
      "blockNumber": 49270,
      "transactionIndex": 0,
      "confirmations": null,
      "from": "0x18E4CE47483B53040ADBaB35172c01EF64506e0c",
      "gasPrice": {
        "_hex": "0xdbeba620d"
      },
      "gasLimit": {
        "_hex": "0x15f90"
      },
      "to": "0xFb26AE2d3621829472555fBD11Bb2A324B7A5C57",
      "value": {
        "_hex": "0x1e75908eb0b6a360000"
      },
      "nonce": 1,
      "data": "0x",
      "r": "0xdb30e7550b2e17f9266b8db268703a7f4d7bb4a294e16341389e33d2f8096067",
      "s": "0x7e0fed2b0262c9b3b6c46399ddad22c80d58ebdc0d71631741f0155397067686",
      "v": 27,
      "creates": null,
      "raw": "0xf86f01850dbeba620d83015f9094fb26ae2d3621829472555fbd11bb2a324b7a5c578a01e75908eb0b6a360000801ba0db30e7550b2e17f9266b8db268703a7f4d7bb4a294e16341389e33d2f8096067a07e0fed2b0262c9b3b6c46399ddad22c80d58ebdc0d71631741f0155397067686",
      "networkId": 0,
      "chainId": 0
    },
    {
      "hash": "0x4852b7aef56faa40dabbd9fad51c226d1c18c7f9079d78b9fb348a9c23a07a63",
      "blockHash": "0xe7b95eba3c5be2c1443d14941eb0614f90721f08d89c4757217f4df0baa1fd12",
      "blockNumber": 49270,
      "transactionIndex": 1,
      "confirmations": null,
      "from": "0x0C9A9E318c2FbF98388cCC81141392c066fbbC19",
      "gasPrice": {
        "_hex": "0xccb6d3a25"
      },
      "gasLimit": {
        "_hex": "0x5208"
      },
      "to": "0x845264090f92208be6d81cbCdE052691F39e4716",
      "value": {
        "_hex": "0x16345785d8a0000"
      },
      "nonce": 0,
      "data": "0x",
      "r": "0x9f88b5f1d16bd34a90495e49bd5890e194dc84b816a8ff2b0a27c433d5e02a2d",
      "s": "0x636140830ae20825dc66b7ede95a52c580253a0785b9420ea56eda05ba1fd7c6",
      "v": 28,
      "creates": null,
      "raw": "0xf86c80850ccb6d3a2582520894845264090f92208be6d81cbcde052691f39e471688016345785d8a0000801ca09f88b5f1d16bd34a90495e49bd5890e194dc84b816a8ff2b0a27c433d5e02a2da0636140830ae20825dc66b7ede95a52c580253a0785b9420ea56eda05ba1fd7c6",
      "networkId": 0,
      "chainId": 0
    }
  ]
}