{
  "hash": "0x1fe57992821988fa285581b6f46aff4998185d8c15d4245e588080672d1acf57",
  "parentHash": "0xea517c8b9cc0cf2d1d1f8d4f686991393011afc40a89d64553e46fb1a2528015",
  "number": 100615,
  "timestamp": 1439809342,
  "nonce": "0xcfefd2b8a83ff97f",
  "difficulty": 3828397017442,
  "gasLimit": {
    "_hex": "0x2fefd8"
  },
  "gasUsed": {
    "_hex": "0x5208"
  },
  "miner": "0xB1A4B41b8e75a153841c99c62d18588d45e7b406",
  "extraData": "0x",
  "transactions": [
    {
      "hash": "0xd948a121471dc5b8f69feb9b6f0a0ad5c5b2cadd5de6d0e3295117b1e9e84cf6",
      "blockHash": "0x1fe57992821988fa285581b6f46aff4998185d8c15d4245e588080672d1acf57",
      "blockNumber": 100615,
      "transactionIndex": 0,
      "confirmations": null,
      "from": "0xaa71fa80d26F718E6A3c87e41D817b8D10944a63",
      "gasPrice": {
        "_hex": "0xcebe51e3d"
      },
      "gasLimit": {
        "_hex": "0x5208"
      },
      "to": "0x32Be343B94f860124dC4fEe278FDCBD38C102D88",
      "value": {
        "_hex": "0xa0b6dce0d2f71000"
      },
      "nonce": 5,
      "data": "0x",
      "r": "0x14fb03bae4ba5f0c03dfdae785389ae0748bb7eb7feff0ce035eb1c492194b18",
      "s": "0x4d9e498e8461f9725cc22cdfb676287922ee6f12b20c7060f71b467c5b6c679e",
      "v": 27,
      "creates": null,
      "raw": "0xf86c05850cebe51e3d8252089432be343b94f860124dc4fee278fdcbd38c102d8888a0b6dce0d2f71000801ba014fb03bae4ba5f0c03dfdae785389ae0748bb7eb7feff0ce035eb1c492194b18a04d9e498e8461f9725cc22cdfb676287922ee6f12b20c7060f71b467c5b6c679e",
      "networkId": 0,
      "chainId": 0
    }
  ]
}