{
  "hash": "0x9d0433487cca1a66e74a6d74d2160617649d9ae8f1895b5a8772c4c51d05f5e4",
  "parentHash": "0x1110391dd7adf055352f0073d99b468129a61c3449a27ec89b501bce1a40ef3b",
  "number": 48277,
  "timestamp": 1438954557,
  "nonce": "0x05564651058110f7",
  "difficulty": 1456489417869,
  "gasLimit": {
    "_hex": "0x14d6a"
  },
  "gasUsed": {
    "_hex": "0x5208"
  },
  "miner": "0xf927a40C8B7F6E07c5af7FA2155B4864a4112B13",
  "extraData": "0x476574682f76312e302e312f6c696e75782f676f312e342e32",
  "transactions": [
    {
      "hash": "0x8c806cd585b4a27c3f01e7a1b6be2e1f0847764b50775f31bcc8c6d7064a5b82",
      "blockHash": "0x9d0433487cca1a66e74a6d74d2160617649d9ae8f1895b5a8772c4c51d05f5e4",
      "blockNumber": 48277,
      "transactionIndex": 0,
      "confirmations": null,
      "from": "0x81B0E1aC46A7dfED98187796D0E55Ac64b01F60C",
      "gasPrice": {
        "_hex": "0x10e43e3b6f8"
      },
      "gasLimit": {
        "_hex": "0x55f0"
      },
      "to": "0xDE06D5EA777a4eb1475e605dbcBf43444e8037ea",
      "value": {
        "_hex": "0x1c6bf526340000"
      },
      "nonce": 0,
      "data": "0x",
      "r": "0x523a75aa583d6f9ca7078fcef7d73eb8c29ce9f0e28993f899b6c76e6f248da6",
      "s": "0x011d2478ff3d9bf06f6654f984222b55dcf1344483635033d185e2891810e9c8",
      "v": 28,
      "creates": null,
      "raw": "0xf86c8086010e43e3b6f88255f094de06d5ea777a4eb1475e605dbcbf43444e8037ea871c6bf526340000801ca0523a75aa583d6f9ca7078fcef7d73eb8c29ce9f0e28993f899b6c76e6f248da6a0011d2478ff3d9bf06f6654f984222b55dcf1344483635033d185e2891810e9c8",
      "networkId": 0,
      "chainId": 0
    }
  ]
}