{
  "hash": "0x7e85a30b03cae439f0c60e5ce6a2bff2fc01bb18cda2aee90de13a563c4bde2a",
  "parentHash": "0x29c1a36613efc97b7045ce816fafb6d9c0ffde3de68512c23cec15eb6b14293b",
  "number": 89001,
  "timestamp": 1439616586,
  "nonce": "0x73db322b9996bdce",
  "difficulty": 3272739957670,
  "gasLimit": {
    "_hex": "0x2fefd8"
  },
  "gasUsed": {
    "_hex": "0x5208"
  },
  "miner": "0xbb7B8287f3F0a933474a79eAe42CBCa977791171",
  "extraData": "0x476574682f4c5649562f76312e302e312f6c696e75782f676f312e342e32",
  "transactions": [
    {
      "hash": "0x87f1e9e812a69c4291c4f3e4c6a036b985fa29ad36cffa88028867c6d81d7cdc",
      "blockHash": "0x7e85a30b03cae439f0c60e5ce6a2bff2fc01bb18cda2aee90de13a563c4bde2a",
      "blockNumber": 89001,
      "transactionIndex": 0,
      "confirmations": null,
      "from": "0x2910543Af39abA0Cd09dBb2D50200b3E800A63D2",
      "gasPrice": {
        "_hex": "0xd0dc2a061"
      },
      "gasLimit": {
        "_hex": "0x5208"
      },
      "to": "0x26251B962a23d9EDC8a49d9A265A1775EA1333AA",
      "value": {
        "_hex": "0x1383ef292a2cbf8000"
      },
      "nonce": 742,
      "data": "0x",
      "r": "0x55634f89d381a7554f6b65e880641cc100afbdb0dc129e4f8c840866144828e8",
      "s": "0x4a6fd3096ae3e0b982729963e2e7a42783d4e6cee728ef56830725ba2ef83a9d",
      "v": 28,
      "creates": null,
      "raw": "0xf86f8202e6850d0dc2a0618252089426251b962a23d9edc8a49d9a265a1775ea1333aa891383ef292a2cbf8000801ca055634f89d381a7554f6b65e880641cc100afbdb0dc129e4f8c840866144828e8a04a6fd3096ae3e0b982729963e2e7a42783d4e6cee728ef56830725ba2ef83a9d",
      "networkId": 0,
      "chainId": 0
    }
  ]
}