{
  "hash": "0x39a26ab6f99e6f63ee1aab662301d9808690434205cb8599268a5c95e3796b77",
  "parentHash": "0x342ecf532be785a89d249478cb11845ac1235a8a8fa7070f7e1240d36c72c493",
  "number": 94040,
  "timestamp": 1439701657,
  "nonce": "0x93602062cae0988c",
  "difficulty": 3490232166354,
  "gasLimit": {
    "_hex": "0x2fefd8"
  },
  "gasUsed": {
    "_hex": "0x5208"
  },
  "miner": "0x9746c7e1ef2bd21FF3997fa467593a89cb852BD0",
  "extraData": "0x476574682f76312e302e312f77696e646f77732f676f312e342e32",
  "transactions": [
    {
      "hash": "0x12ec56a9fe5b6bfe3394fe99cf04ce2bdc458157a1255b49e36b7a7b62696026",
      "blockHash": "0x39a26ab6f99e6f63ee1aab662301d9808690434205cb8599268a5c95e3796b77",
      "blockNumber": 94040,
      "transactionIndex": 0,
      "confirmations": null,
      "from": "0x123d670B2B4685f55Fc8DFEcc898b052B45068F3",
      "gasPrice": {
        "_hex": "0xd931c87f6"
      },
      "gasLimit": {
        "_hex": "0x15f90"
      },
      "to": "0x593044670faEfF00a55B5AE051EB7be870B11694",
      "value": {
        "_hex": "0xc7d713b49da0000"
      },
      "nonce": 0,
      "data": "0x",
      "r": "0x73cc9d67f1851a52fc8e1c4f446e597647e06ab11c1e3ec651a192ca9fa3fdbd",
      "s": "0x6198f937cf2ab7971f9480a34875560ac1007e03c614289b3c56c052663728ed",
      "v": 27,
      "creates": null,
      "raw": "0xf86d80850d931c87f683015f9094593044670faeff00a55b5ae051eb7be870b11694880c7d713b49da0000801ba073cc9d67f1851a52fc8e1c4f446e597647e06ab11c1e3ec651a192ca9fa3fdbda06198f937cf2ab7971f9480a34875560ac1007e03c614289b3c56c052663728ed",
      "networkId": 0,
      "chainId": 0
    }
  ]
}