{
  "hash": "0x813fee29781f26e5429d910e6dea1154cfdf0092e61981b1bb6610c5335a4198",
  "parentHash": "0x717af362233ec511826fb45fa19edd4aa126d1ec584a3ee5a24f4ae0da4de5ec",
  "number": 81306,
  "timestamp": 1439499564,
  "nonce": "0xbab85f28168dac4a",
  "difficulty": 2447435955782,
  "gasLimit": {
    "_hex": "0x2fefd8"
  },
  "gasUsed": {
    "_hex": "0xa410"
  },
  "miner": "0xA1623430350C5df1b52B0b57483A5bb45d1796Da",
  "extraData": "0x476574682f76312e302e312d38326566323666362f6c696e75782f676f312e34",
  "transactions": [
    {
      "hash": "0x2e83c444b49eace22470e9044fa72ad6c39ad059b607a6fbd3678f5b44168630",
      "blockHash": "0x813fee29781f26e5429d910e6dea1154cfdf0092e61981b1bb6610c5335a4198",
      "blockNumber": 81306,
      "transactionIndex": 0,
      "confirmations": null,
      "from": "0x640bAfc5732d621d5611eed670718409acb81366",
      "gasPrice": {
        "_hex": "0xd8445c289"
      },
      "gasLimit": {
        "_hex": "0x15f90"
      },
      "to": "0xDA4E0Ba268486216E0B3Ad5ccEAa1E7EdB1C2751",
      "value": {
        "_hex": "0x477879b6d1430000"
      },
      "nonce": 5,
      "data": "0x",
      "r": "0xda2918d9dbb02e2cf117821fc56d2dc4c4d0b4ed963a645d374f2d5d5e9083ce",
      "s": "0x75f43eac7dd7e9ccbe9446650921b971bea85b5102aefde17e7dfaaa6020f92c",
      "v": 28,
      "creates": null,
      "raw": "0xf86d05850d8445c28983015f9094da4e0ba268486216e0b3ad5cceaa1e7edb1c275188477879b6d1430000801ca0da2918d9dbb02e2cf117821fc56d2dc4c4d0b4ed963a645d374f2d5d5e9083cea075f43eac7dd7e9ccbe9446650921b971bea85b5102aefde17e7dfaaa6020f92c",
      "networkId": 0,
      "chainId": 0
    },
    {
      "hash": "0x8db2e5df69bddd5e2b8838d29bf93c69d16003e782638d4d7f4b0587dcf7c50a",
      "blockHash": "0x813fee29781f26e5429d910e6dea1154cfdf0092e61981b1bb6610c5335a4198",
      "blockNumber": 81306,
      "transactionIndex": 1,
      "confirmations": null,
      "from": "0x120A270bbC009644e35F0bB6ab13f95b8199c4ad",
      "gasPrice": {
        "_hex": "0xd7e391597"
      },
      "gasLimit": {
        "_hex": "0x3d090"
      },
      "to": "0xFbc92cE518a6CA6341B08b4468880Cc9Dd61a027",
      "value": {
        "_hex": "0x1a4df1387935bf7800"
      },
      "nonce": 372,
      "data": "0x",
      "r": "0x8738c15f3d1919433e10b042556ad9680b5a7ff1213ebefa692c1bd99f46eb60",
      "s": "0x1db4d44a01d288d8580d1f9fd28b82e9e3921779b7106552ebeaa6f6316bbd1d",
      "v": 28,
      "creates": null,
      "raw": "0xf870820174850d7e3915978303d09094fbc92ce518a6ca6341b08b4468880cc9dd61a027891a4df1387935bf7800801ca08738c15f3d1919433e10b042556ad9680b5a7ff1213ebefa692c1bd99f46eb60a01db4d44a01d288d8580d1f9fd28b82e9e3921779b7106552ebeaa6f6316bbd1d",
      "networkId": 0,
      "chainId": 0
    }
  ]
}