{
  "hash": "0x983dafb2ffc3a4d50e2bdd2f33a4a13c44716e3a60436957cd16df708f4302a2",
  "parentHash": "0x9c7ab3a05db49fd15ad9d1456abe54731de99eecd5bf69d0fbf5d0fc0f8f28c8",
  "number": 102261,
  "timestamp": 1439835263,
  "nonce": "0x50106e436f74a885",
  "difficulty": 3937595581421,
  "gasLimit": {
    "_hex": "0x2fefd8"
  },
  "gasUsed": {
    "_hex": "0x5208"
  },
  "miner": "0x007f7f58D3eb5b7510A301eCC749FC1fCDDBE14D",
  "extraData": "0x476574682f76312e302e312f77696e646f77732f676f312e342e32",
  "transactions": [
    {
      "hash": "0xc8c05e58bef09e52d292240fd708ff70c700f9738737c1e776aa39e7f32b800a",
      "blockHash": "0x983dafb2ffc3a4d50e2bdd2f33a4a13c44716e3a60436957cd16df708f4302a2",
      "blockNumber": 102261,
      "transactionIndex": 0,
      "confirmations": null,
      "from": "0xFBb1b73C4f0BDa4f67dcA266ce6Ef42f520fBB98",
      "gasPrice": {
        "_hex": "0xda70942f5"
      },
      "gasLimit": {
        "_hex": "0x5208"
      },
      "to": "0xDf660a91Dab9F730f6190D50c8390561500756Ca",
      "value": {
        "_hex": "0x18c825fccfc23800"
      },
      "nonce": 98,
      "data": "0x",
      "r": "0x1a27fc8c265ab8f1d2c42880e42b1545a800db475ec85895840534fc8a0d61f8",
      "s": "0x415a076841d2166c75bb1afc4f8f02e9ac5fa9006249505af355ee4f298ae13f",
      "v": 28,
      "creates": null,
      "raw": "0xf86c62850da70942f582520894df660a91dab9f730f6190d50c8390561500756ca8818c825fccfc23800801ca01a27fc8c265ab8f1d2c42880e42b1545a800db475ec85895840534fc8a0d61f8a0415a076841d2166c75bb1afc4f8f02e9ac5fa9006249505af355ee4f298ae13f",
      "networkId": 0,
      "chainId": 0
    }
  ]
}