{
  "hash": "0x7848fd2b048e510c979774c5f95320b9727e4eed2ecda1ae4ed5af348cd1ca25",
  "parentHash": "0x7880af699aa77968b9f8167b8d49a1aab522e1bc0e4e0f004a4ac001e9d54ddc",
  "number": 112710,
  "timestamp": 1440011852,
  "nonce": "0x52516e28d671bb6a",
  "difficulty": 4428128408537,
  "gasLimit": {
    "_hex": "0x2fefd8"
  },
  "gasUsed": {
    "_hex": "0xa410"
  },
  "miner": "0x52bc44d5378309EE2abF1539BF71dE1b7d7bE3b5",
  "extraData": "0x476574682f76312e302e312d39353236303766382f6c696e75782f676f312e34",
  "transactions": [
    {
      "hash": "0x93701b95eda07e73346f81dc11479fec5907a37551a367084e83ead15bd5af38",
      "blockHash": "0x7848fd2b048e510c979774c5f95320b9727e4eed2ecda1ae4ed5af348cd1ca25",
      "blockNumber": 112710,
      "transactionIndex": 0,
      "confirmations": null,
      "from": "0xc0920452d99591a4e8b190632c52754c72F73328",
      "gasPrice": {
        "_hex": "0xd861ba932"
      },
      "gasLimit": {
        "_hex": "0x5208"
      },
      "to": "0x32Be343B94f860124dC4fEe278FDCBD38C102D88",
      "value": {
        "_hex": "0x11e33ef04348a0000"
      },
      "nonce": 11,
      "data": "0x",
      "r": "0xdbed2ca208a7055299dd6ff347b090551c2dc8ec3e8feb586d4d7d294b214201",
      "s": "0x3f6f9ebdb552b733e2557aff6d41ad2f7bb65588cfcd63292cca12262384a87f",
      "v": 27,
      "creates": null,
      "raw": "0xf86d0b850d861ba9328252089432be343b94f860124dc4fee278fdcbd38c102d8889011e33ef04348a0000801ba0dbed2ca208a7055299dd6ff347b090551c2dc8ec3e8feb586d4d7d294b214201a03f6f9ebdb552b733e2557aff6d41ad2f7bb65588cfcd63292cca12262384a87f",
      "networkId": 0,
      "chainId": 0
    },
    {
      "hash": "0x72f4a81272211c90f22de47d09ec70219e8a466f49beedf8e194caf42969f9b9",
      "blockHash": "0x7848fd2b048e510c979774c5f95320b9727e4eed2ecda1ae4ed5af348cd1ca25",
      "blockNumber": 112710,
      "transactionIndex": 1,
      "confirmations": null,
      "from": "0xabceA603089850F8f6bB612A9031554D90A247CF",
      "gasPrice": {
        "_hex": "0xd861ba932"
      },
      "gasLimit": {
        "_hex": "0x5208"
      },
      "to": "0x32Be343B94f860124dC4fEe278FDCBD38C102D88",
      "value": {
        "_hex": "0xb5976e9c50ee1800"
      },
      "nonce": 34,
      "data": "0x",
      "r": "0x4ae3f534de2262667bbb7409846cc9d5c159f09dc4ec73faf3d5f365f20ff2f6",
      "s": "0x5bb1731aacc937adc5c0052414ed07ec809f7ad4b9bf019b21898dc8b89af2d9",
      "v": 28,
      "creates": null,
      "raw": "0xf86c22850d861ba9328252089432be343b94f860124dc4fee278fdcbd38c102d8888b5976e9c50ee1800801ca04ae3f534de2262667bbb7409846cc9d5c159f09dc4ec73faf3d5f365f20ff2f6a05bb1731aacc937adc5c0052414ed07ec809f7ad4b9bf019b21898dc8b89af2d9",
      "networkId": 0,
      "chainId": 0
    }
  ]
}