{
  "hash": "0x995f6e2edaa7631a7acbf43f8503cb8ba53690617acb30c29be90fb787012336",
  "parentHash": "0x1db279627c34c32b9d334cc43ba58dc29c0ae052e18fc7de803fbd09800005b8",
  "number": 60363,
  "timestamp": 1439154122,
  "nonce": "0xe21b62cde8b46d0c",
  "difficulty": 1749200095875,
  "gasLimit": {
    "_hex": "0x2fefd8"
  },
  "gasUsed": {
    "_hex": "0xa410"
  },
  "miner": "0x858079E02403b10748B71A02195b6608Abaf6b8f",
  "extraData": "0x476574682f76312e302e312f77696e646f77732f676f312e342e32",
  "transactions": [
    {
      "hash": "0x3376633756e6991855ead2a1685b4439f77def794d538617bf655802e75a06b5",
      "blockHash": "0x995f6e2edaa7631a7acbf43f8503cb8ba53690617acb30c29be90fb787012336",
      "blockNumber": 60363,
      "transactionIndex": 0,
      "confirmations": null,
      "from": "0x8155Fa6c51Eb31D808412d748aA086105018122f",
      "gasPrice": {
        "_hex": "0xd8d15d22f"
      },
      "gasLimit": {
        "_hex": "0x15f90"
      },
      "to": "0xc955d372Fe1c428D17CD86E05d26F0206F3677b1",
      "value": {
        "_hex": "0x56bc75e2d63100000"
      },
      "nonce": 19,
      "data": "0x",
      "r": "0xa3862999e6cfc71101c4df68c86f71c554a10a70d850eb9cb2ca681fb505a5b9",
      "s": "0x17b17cae98e53176c3e33fbf1a4243c8c2178141c12aedecc92efa4dda49d68c",
      "v": 28,
      "creates": null,
      "raw": "0xf86e13850d8d15d22f83015f9094c955d372fe1c428d17cd86e05d26f0206f3677b189056bc75e2d63100000801ca0a3862999e6cfc71101c4df68c86f71c554a10a70d850eb9cb2ca681fb505a5b9a017b17cae98e53176c3e33fbf1a4243c8c2178141c12aedecc92efa4dda49d68c",
      "networkId": 0,
      "chainId": 0
    },
    {
      "hash": "0x9bd4145d401f978ab4e4c73834cea686e2c13c6e1e37d3f4cf2d32a75096901a",
      "blockHash": "0x995f6e2edaa7631a7acbf43f8503cb8ba53690617acb30c29be90fb787012336",
      "blockNumber": 60363,
      "transactionIndex": 1,
      "confirmations": null,
      "from": "0x8155Fa6c51Eb31D808412d748aA086105018122f",
      "gasPrice": {
        "_hex": "0xd8d15d22f"
      },
      "gasLimit": {
        "_hex": "0x15f90"
      },
      "to": "0xc955d372Fe1c428D17CD86E05d26F0206F3677b1",
      "value": {
        "_hex": "0x56bc75e2d63100000"
      },
      "nonce": 20,
      "data": "0x",
      "r": "0x8c56bc8d541c9d12a26780dc8c6aeef6a03cc6bbf8217acdc450e79d824d8d62",
      "s": "0x1addea525201f7d11ce30b8a592eefcbea1c32b623b23f9dfcd80987c9bf1e0a",
      "v": 28,
      "creates": null,
      "raw": "0xf86e14850d8d15d22f83015f9094c955d372fe1c428d17cd86e05d26f0206f3677b189056bc75e2d63100000801ca08c56bc8d541c9d12a26780dc8c6aeef6a03cc6bbf8217acdc450e79d824d8d62a01addea525201f7d11ce30b8a592eefcbea1c32b623b23f9dfcd80987c9bf1e0a",
      "networkId": 0,
      "chainId": 0
    }
  ]
}