{
  "hash": "0xbaba82dbdf0ab53eef4ffa9b6d766e4d4a1d6b8ab43b909dd594ebc2a590dcd9",
  "parentHash": "0xed6630fafc4f3af3563e454cac81b1d83a4b840204963d6ca28e8735aab35fa0",
  "number": 79283,
  "timestamp": 1439467168,
  "nonce": "0x09b8c0fdce90d0ad",
  "difficulty": 2330226977709,
  "gasLimit": {
    "_hex": "0x2fefd5"
  },
  "gasUsed": {
    "_hex": "0x5208"
  },
  "miner": "0x6DE55b563cE6E319cCB403032Da3BE5Ad4ec4FcF",
  "extraData": "0x",
  "transactions": [
    {
      "hash": "0x9c897ba13bc389c8a248125b4349f291dd101764ec8ed292929cfedcacc215df",
      "blockHash": "0xbaba82dbdf0ab53eef4ffa9b6d766e4d4a1d6b8ab43b909dd594ebc2a590dcd9",
      "blockNumber": 79283,
      "transactionIndex": 0,
      "confirmations": null,
      "from": "0x2910543Af39abA0Cd09dBb2D50200b3E800A63D2",
      "gasPrice": {
        "_hex": "0xcb2fa4c2c"
      },
      "gasLimit": {
        "_hex": "0x5208"
      },
      "to": "0x18c5507F9bBD77EDdAcF8d8eE08D137842dc89b5",
      "value": {
        "_hex": "0xb38a1f7cb21fb8000"
      },
      "nonce": 352,
      "data": "0x",
      "r": "0x7c3222b882171bb482ab4908034ef63c4cd10b3591845c9d38895f89299975f0",
      "s": "0x50cd0d091a79afdecde93791c1c9bee7fe80ae65640aa165063ea25080a57310",
      "v": 27,
      "creates": null,
      "raw": "0xf86f820160850cb2fa4c2c8252089418c5507f9bbd77eddacf8d8ee08d137842dc89b5890b38a1f7cb21fb8000801ba07c3222b882171bb482ab4908034ef63c4cd10b3591845c9d38895f89299975f0a050cd0d091a79afdecde93791c1c9bee7fe80ae65640aa165063ea25080a57310",
      "networkId": 0,
      "chainId": 0
    }
  ]
}