{
  "hash": "0x60a06d1d04835c814582fa8d537204ff2ee30fa9a0cd65bd8203decd7e91fc87",
  "parentHash": "0x3a84d13bab26873c67d9ad7901de8f73e95cae9d8bdbe943ef97b96d972fe2cd",
  "number": 120164,
  "timestamp": 1440155091,
  "nonce": "0xad3e932c47c225f0",
  "difficulty": 4411252839777,
  "gasLimit": {
    "_hex": "0x2fefd8"
  },
  "gasUsed": {
    "_hex": "0x5208"
  },
  "miner": "0x52bc44d5378309EE2abF1539BF71dE1b7d7bE3b5",
  "extraData": "0xd783010002844765746887676f312e342e32856c696e7578",
  "transactions": [
    {
      "hash": "0x30f517a29295052cf1c83d9fa88c7a250be82c1bbdb46672be8d1246a4760a21",
      "blockHash": "0x60a06d1d04835c814582fa8d537204ff2ee30fa9a0cd65bd8203decd7e91fc87",
      "blockNumber": 120164,
      "transactionIndex": 0,
      "confirmations": null,
      "from": "0x2910543Af39abA0Cd09dBb2D50200b3E800A63D2",
      "gasPrice": {
        "_hex": "0xd68725b34"
      },
      "gasLimit": {
        "_hex": "0x5208"
      },
      "to": "0x8F6864Db2057a8A1C2b2c16D39f64CE4F929F3D9",
      "value": {
        "_hex": "0x937278fd3f0878000"
      },
      "nonce": 1174,
      "data": "0x",
      "r": "0xb09020e2cb4d34524d3be07d34ead8d808e66a6e92e82eda66bbc5b7499a8bb7",
      "s": "0x5c43df1ff67909d82ffbc0f48fdde8869a0542de8903692e7033fdd12d0f8653",
      "v": 28,
      "creates": null,
      "raw": "0xf86f820496850d68725b34825208948f6864db2057a8a1c2b2c16d39f64ce4f929f3d9890937278fd3f0878000801ca0b09020e2cb4d34524d3be07d34ead8d808e66a6e92e82eda66bbc5b7499a8bb7a05c43df1ff67909d82ffbc0f48fdde8869a0542de8903692e7033fdd12d0f8653",
      "networkId": 0,
      "chainId": 0
    }
  ]
}