{
  "hash": "0x4353a5a1a3f00f6bde5f80a2b8d69ff30b0d5c2ebc4c7ae6e11acb3b135c43d4",
  "parentHash": "0x2194cfe41dbe73c2f2d180b44a10fffe45c50d80a091709e611b04c1542fedc3",
  "number": 106818,
  "timestamp": 1439911112,
  "nonce": "0xbbbd95a768096a4d",
  "difficulty": 4426914464695,
  "gasLimit": {
    "_hex": "0x2fefd5"
  },
  "gasUsed": {
    "_hex": "0x14820"
  },
  "miner": "0x24A98cf1216cf7af513fc2F21ed7Adb0cb1b1A65",
  "extraData": "0x476574682f76312e302e312f6c696e75782f676f312e342e32",
  "transactions": [
    {
      "hash": "0xbf35cf4d8ecce0bbd2ae0f032d297e4322f46002a4d2c36e6d970dbfc60df6c9",
      "blockHash": "0x4353a5a1a3f00f6bde5f80a2b8d69ff30b0d5c2ebc4c7ae6e11acb3b135c43d4",
      "blockNumber": 106818,
      "transactionIndex": 0,
      "confirmations": null,
      "from": "0x8aa50dfc95Ab047128ccDc6Af4BA2dDbA8D0A874",
      "gasPrice": {
        "_hex": "0x9184e72a000"
      },
      "gasLimit": {
        "_hex": "0x9965e"
      },
      "to": "0x76dD1Af7f431f91A94752E53CBf9a52981f75947",
      "value": {
        "_hex": "0x5a34a38fc00a0000"
      },
      "nonce": 2,
      "data": "0x",
      "r": "0xf12da61cdf9bd87e849d6573916ba69d62cc54531563d599b3f1bbe43bfc65bd",
      "s": "0x37e9a37650f1427023bc84a327c9df2b5f55255b04f1da1ec5917cb4f69e62f7",
      "v": 28,
      "creates": null,
      "raw": "0xf86e028609184e72a0008309965e9476dd1af7f431f91a94752e53cbf9a52981f75947885a34a38fc00a0000801ca0f12da61cdf9bd87e849d6573916ba69d62cc54531563d599b3f1bbe43bfc65bda037e9a37650f1427023bc84a327c9df2b5f55255b04f1da1ec5917cb4f69e62f7",
      "networkId": 0,
      "chainId": 0
    },
    {
      "hash": "0x33cfa8f3a6b281f25b4b6e133e802bf2629608e763c9a160b855d8f14c1d1fe3",
      "blockHash": "0x4353a5a1a3f00f6bde5f80a2b8d69ff30b0d5c2ebc4c7ae6e11acb3b135c43d4",
      "blockNumber": 106818,
      "transactionIndex": 1,
      "confirmations": null,
      "from": "0xa70a9a7040d542C632D8e0bE7c5513A8a5Bbc752",
      "gasPrice": {
        "_hex": "0xda965db39"
      },
      "gasLimit": {
        "_hex": "0x5208"
      },
      "to": "0x32Be343B94f860124dC4fEe278FDCBD38C102D88",
      "value": {
        "_hex": "0x455f30d2059d4c00"
      },
      "nonce": 251,
      "data": "0x",
      "r": "0xc51fe296e55f0821de9a42761fc3c671b73b7fef9bf1dcf0175d990f808b77e5",
      "s": "0x2bce6d8877ac7285f6a4f2eafe9b79bd0125e8cce29459f701a625485e4cb3d7",
      "v": 28,
      "creates": null,
      "raw": "0xf86d81fb850da965db398252089432be343b94f860124dc4fee278fdcbd38c102d8888455f30d2059d4c00801ca0c51fe296e55f0821de9a42761fc3c671b73b7fef9bf1dcf0175d990f808b77e5a02bce6d8877ac7285f6a4f2eafe9b79bd0125e8cce29459f701a625485e4cb3d7",
      "networkId": 0,
      "chainId": 0
    },
    {
      "hash": "0x4c32fc8409e734f6802e03dee6fd09f4976313ec0ba41c1faf058136e744e4c2",
      "blockHash": "0x4353a5a1a3f00f6bde5f80a2b8d69ff30b0d5c2ebc4c7ae6e11acb3b135c43d4",
      "blockNumber": 106818,
      "transactionIndex": 2,
      "confirmations": null,
      "from": "0x0117aCA5D98443a8CE8AeE7aC4BEc8450ABbd852",
      "gasPrice": {
        "_hex": "0xda965db39"
      },
      "gasLimit": {
        "_hex": "0x5208"
      },
      "to": "0x32Be343B94f860124dC4fEe278FDCBD38C102D88",
      "value": {
        "_hex": "0xddc601e27a7c800"
      },
      "nonce": 1,
      "data": "0x",
      "r": "0x84890ce0c928bdfffc8df864419be7f7d85a6f64defec91b2eedb791f0729501",
      "s": "0x6c65c2404f5c858b025eecda5e4c981a0a0edf1a39b9421d1228465d20136a45",
      "v": 27,
      "creates": null,
      "raw": "0xf86c01850da965db398252089432be343b94f860124dc4fee278fdcbd38c102d88880ddc601e27a7c800801ba084890ce0c928bdfffc8df864419be7f7d85a6f64defec91b2eedb791f0729501a06c65c2404f5c858b025eecda5e4c981a0a0edf1a39b9421d1228465d20136a45",
      "networkId": 0,
      "chainId": 0
    },
    {
      "hash": "0xe09cf5a467604fc2924a6a85653eca41e9821ff70e243155e8bf0149ea67b642",
      "blockHash": "0x4353a5a1a3f00f6bde5f80a2b8d69ff30b0d5c2ebc4c7ae6e11acb3b135c43d4",
      "blockNumber": 106818,
      "transactionIndex": 3,
      "confirmations": null,
      "from": "0x9D49F602b0fdb924Bd63DDE2Bd0907E4A07c63a7",
      "gasPrice": {
        "_hex": "0xd90f23abe"
      },
      "gasLimit": {
        "_hex": "0x15f90"
      },
      "to": "0xC6c676946C54B5e7c31A07a079166C488Bf06dd7",
      "value": {
        "_hex": "0xe33fafbdd50580000"
      },
      "nonce": 5,
      "data": "0x",
      "r": "0xa1f737c54745cc097518052e8999ae3967e3e256404ef41c33b5a88ee2fc1291",
      "s": "0x7046b920ce10d522412aa053d9e24c2f99662faa530d39e2756e1112bcba5922",
      "v": 27,
      "creates": null,
      "raw": "0xf86e05850d90f23abe83015f9094c6c676946c54b5e7c31a07a079166c488bf06dd7890e33fafbdd50580000801ba0a1f737c54745cc097518052e8999ae3967e3e256404ef41c33b5a88ee2fc1291a07046b920ce10d522412aa053d9e24c2f99662faa530d39e2756e1112bcba5922",
      "networkId": 0,
      "chainId": 0
    }
  ]
}