{
  "hash": "0xadfb52785aed9ddccc64bcea5d5186f4d8970ca3c5d1406e88e25d66ae4c74c0",
  "parentHash": "0x94fbad2d544b7ab446f255724a5b48ef7a6aee80f7876266463050fcfdd04c00",
  "number": 107462,
  "timestamp": 1439922885,
  "nonce": "0xab87ed00815c1bfa",
  "difficulty": 4405013167534,
  "gasLimit": {
    "_hex": "0x2fefd8"
  },
  "gasUsed": {
    "_hex": "0x5208"
  },
  "miner": "0x9746c7e1ef2bd21FF3997fa467593a89cb852BD0",
  "extraData": "0x476574682f76312e302e312f77696e646f77732f676f312e342e32",
  "transactions": [
    {
      "hash": "0x8fae39835873d603f38898837541a1a6c350e2fa86b0033fa0079af1143ecbcc",
      "blockHash": "0xadfb52785aed9ddccc64bcea5d5186f4d8970ca3c5d1406e88e25d66ae4c74c0",
      "blockNumber": 107462,
      "transactionIndex": 0,
      "confirmations": null,
      "from": "0x32Be343B94f860124dC4fEe278FDCBD38C102D88",
      "gasPrice": {
        "_hex": "0xd7c92ed7f"
      },
      "gasLimit": {
        "_hex": "0x5208"
      },
      "to": "0xdD21e1212FC318bBab5c20668299b20215C9B9A7",
      "value": {
        "_hex": "0x44d8a6d84dfa580000"
      },
      "nonce": 1220,
      "data": "0x",
      "r": "0x4ead86852eff4f238c940a966088255418d520d3c5fbefc78d4cf31bef20dcfc",
      "s": "0x48c960db4f74bdf62cfbb3bb427d9a19acfdeaba7abe8085a5c3d41b3b1ba3b8",
      "v": 27,
      "creates": null,
      "raw": "0xf86f8204c4850d7c92ed7f82520894dd21e1212fc318bbab5c20668299b20215c9b9a78944d8a6d84dfa580000801ba04ead86852eff4f238c940a966088255418d520d3c5fbefc78d4cf31bef20dcfca048c960db4f74bdf62cfbb3bb427d9a19acfdeaba7abe8085a5c3d41b3b1ba3b8",
      "networkId": 0,
      "chainId": 0
    }
  ]
}