{
  "hash": "0x9c91be7f686b168b00b1b4b30cf7eab70d0ec52d76284f8afa5e430d3b3f2d14",
  "parentHash": "0x7c0c946214e5bda621970cece71faa293e6da9bfa30996a276cbff812a389c7a",
  "number": 88281,
  "timestamp": 1439605728,
  "nonce": "0x21065d2945df739c",
  "difficulty": 3197201418537,
  "gasLimit": {
    "_hex": "0x2fefd8"
  },
  "gasUsed": {
    "_hex": "0xa410"
  },
  "miner": "0xE87470b43FA5904a32866396B2f798D898c13978",
  "extraData": "0x",
  "transactions": [
    {
      "hash": "0x463e87e75315c43c53886858b913a02d7d97c51e80c1500a0a77b2b511dcd8fc",
      "blockHash": "0x9c91be7f686b168b00b1b4b30cf7eab70d0ec52d76284f8afa5e430d3b3f2d14",
      "blockNumber": 88281,
      "transactionIndex": 0,
      "confirmations": null,
      "from": "0x32Be343B94f860124dC4fEe278FDCBD38C102D88",
      "gasPrice": {
        "_hex": "0xce8c2570e"
      },
      "gasLimit": {
        "_hex": "0x5208"
      },
      "to": "0xE54C51118A2Cc163BC4BDb7C653Ab45Fc179d928",
      "value": {
        "_hex": "0x56ba3d73af34f0000"
      },
      "nonce": 826,
      "data": "0x",
      "r": "0x689e4e379b601cec66d9877d1954d18a30cba611d4bfe8f733693635d7b2f26f",
      "s": "0x1008362f915f18a44910598c8a26c643ce9afcb4bad4e5fc093ea503c939e781",
      "v": 27,
      "creates": null,
      "raw": "0xf86f82033a850ce8c2570e82520894e54c51118a2cc163bc4bdb7c653ab45fc179d92889056ba3d73af34f0000801ba0689e4e379b601cec66d9877d1954d18a30cba611d4bfe8f733693635d7b2f26fa01008362f915f18a44910598c8a26c643ce9afcb4bad4e5fc093ea503c939e781",
      "networkId": 0,
      "chainId": 0
    },
    {
      "hash": "0xb21563596ad3c726099c98d3a3c69c733d4c8984c6e4d9d23f3be43d8c65f409",
      "blockHash": "0x9c91be7f686b168b00b1b4b30cf7eab70d0ec52d76284f8afa5e430d3b3f2d14",
      "blockNumber": 88281,
      "transactionIndex": 1,
      "confirmations": null,
      "from": "0x32Be343B94f860124dC4fEe278FDCBD38C102D88",
      "gasPrice": {
        "_hex": "0xce8c2570e"
      },
      "gasLimit": {
        "_hex": "0x5208"
      },
      "to": "0xF9C510f7834FDBb937D6D088e42650600C73039a",
      "value": {
        "_hex": "0xd16a730cbca50000"
      },
      "nonce": 827,
      "data": "0x",
      "r": "0x91fc4f5be469c45b88c1587c86e656d01693f6b817cffc51badfb55002328476",
      "s": "0x080f461b360cab0df901a27bfd66d0f28c50cab94f85fff9b493f3845d3519aa",
      "v": 28,
      "creates": null,
      "raw": "0xf86e82033b850ce8c2570e82520894f9c510f7834fdbb937d6d088e42650600c73039a88d16a730cbca50000801ca091fc4f5be469c45b88c1587c86e656d01693f6b817cffc51badfb55002328476a0080f461b360cab0df901a27bfd66d0f28c50cab94f85fff9b493f3845d3519aa",
      "networkId": 0,
      "chainId": 0
    }
  ]
}