{
  "hash": "0x979c3f0ccbd9128242cc5d5f35b9e191e4237acbea88c36b8e2ba0df078777b3",
  "parentHash": "0xa3db014aff55bf709c8b1f47bb2aa1da8e7c2dc27a7e6025b921c90af7f77ca4",
  "number": 115339,
  "timestamp": 1440055517,
  "nonce": "0x68ba5833072bcb62",
  "difficulty": 4551676587419,
  "gasLimit": {
    "_hex": "0x2fefd8"
  },
  "gasUsed": {
    "_hex": "0xf618"
  },
  "miner": "0xf32866D5cE9a9b5673e076be48AbCd6ED48ADe78",
  "extraData": "0x476574682f76312e302e312d37666266393930632f6c696e75782f676f312e34",
  "transactions": [
    {
      "hash": "0xda53eae9313b0ddedf2dc3ecb20cd33a719dbb000cede4a4c977c55164eaba8d",
      "blockHash": "0x979c3f0ccbd9128242cc5d5f35b9e191e4237acbea88c36b8e2ba0df078777b3",
      "blockNumber": 115339,
      "transactionIndex": 0,
      "confirmations": null,
      "from": "0xB415e74b9b5B2058EF3541265aaF7ce09C4953bc",
      "gasPrice": {
        "_hex": "0xd09a13f4a"
      },
      "gasLimit": {
        "_hex": "0x5208"
      },
      "to": "0x32Be343B94f860124dC4fEe278FDCBD38C102D88",
      "value": {
        "_hex": "0x6b51ca0ec7a9d000"
      },
      "nonce": 10,
      "data": "0x",
      "r": "0x43526a42d43fe905dc8eb9fad2b92b45b4956c4985b35ad546b3bac6921305e8",
      "s": "0x182b68fb95d022c71f33139b3df92c4c1bbf5741de0eee101f9feb484529ec44",
      "v": 28,
      "creates": null,
      "raw": "0xf86c0a850d09a13f4a8252089432be343b94f860124dc4fee278fdcbd38c102d88886b51ca0ec7a9d000801ca043526a42d43fe905dc8eb9fad2b92b45b4956c4985b35ad546b3bac6921305e8a0182b68fb95d022c71f33139b3df92c4c1bbf5741de0eee101f9feb484529ec44",
      "networkId": 0,
      "chainId": 0
    },
    {
      "hash": "0xc802f0c993dd19ffc27606234b908ce23e8c6eebfa71f6d7bda34611d79b1251",
      "blockHash": "0x979c3f0ccbd9128242cc5d5f35b9e191e4237acbea88c36b8e2ba0df078777b3",
      "blockNumber": 115339,
      "transactionIndex": 1,
      "confirmations": null,
      "from": "0xcA422f88253D0492F13F304eBCF34892B3c07AEc",
      "gasPrice": {
        "_hex": "0xd09a13f4a"
      },
      "gasLimit": {
        "_hex": "0x5208"
      },
      "to": "0x32Be343B94f860124dC4fEe278FDCBD38C102D88",
      "value": {
        "_hex": "0x1522311cf0e47c000"
      },
      "nonce": 8,
      "data": "0x",
      "r": "0x119e8930495482be815f4a285ffe449fce6ad0a0250f961f891a5970ce9bdf76",
      "s": "0x6737cc1a55d182f60e36e8cf4f14c973ba212e375efa79fbb461be98220b8d0d",
      "v": 28,
      "creates": null,
      "raw": "0xf86d08850d09a13f4a8252089432be343b94f860124dc4fee278fdcbd38c102d888901522311cf0e47c000801ca0119e8930495482be815f4a285ffe449fce6ad0a0250f961f891a5970ce9bdf76a06737cc1a55d182f60e36e8cf4f14c973ba212e375efa79fbb461be98220b8d0d",
      "networkId": 0,
      "chainId": 0
    },
    {
      "hash": "0x67491e7ed96b214b5cf0d6ba80599c98f7255e1bdad159e7eccde8a3992b094f",
      "blockHash": "0x979c3f0ccbd9128242cc5d5f35b9e191e4237acbea88c36b8e2ba0df078777b3",
      "blockNumber": 115339,
      "transactionIndex": 2,
      "confirmations": null,
      "from": "0x6964b95BF8BA16b837e2f3Ae8dA7D299553eC1f7",
      "gasPrice": {
        "_hex": "0xd09a13f4a"
      },
      "gasLimit": {
        "_hex": "0x5208"
      },
      "to": "0x32Be343B94f860124dC4fEe278FDCBD38C102D88",
      "value": {
        "_hex": "0xad90746dc4360800"
      },
      "nonce": 10,
      "data": "0x",
      "r": "0x977b528b52764dee8f5d9b9d4a9241c3fcc5e8ef3a164abd055a323c1f6e82ca",
      "s": "0x48fc9d8f0bc18cdf2bdcde9b508be18d71bb2bb15bc1842beefc042025de251a",
      "v": 28,
      "creates": null,
      "raw": "0xf86c0a850d09a13f4a8252089432be343b94f860124dc4fee278fdcbd38c102d8888ad90746dc4360800801ca0977b528b52764dee8f5d9b9d4a9241c3fcc5e8ef3a164abd055a323c1f6e82caa048fc9d8f0bc18cdf2bdcde9b508be18d71bb2bb15bc1842beefc042025de251a",
      "networkId": 0,
      "chainId": 0
    }
  ]
}