{
  "hash": "0x5ba239d48fd76df60ee84461c6655eac58e04d8e21a439a3879ec1c629e16eb2",
  "parentHash": "0xeaf534e24738d164bad8471006c60aac0569f4914aaabb478ea9c4224884df86",
  "number": 80916,
  "timestamp": 1439493296,
  "nonce": "0x40c22e0d9db27ead",
  "difficulty": 2435627945927,
  "gasLimit": {
    "_hex": "0x2fefd8"
  },
  "gasUsed": {
    "_hex": "0x5208"
  },
  "miner": "0x007f7f58D3eb5b7510A301eCC749FC1fCDDBE14D",
  "extraData": "0x476574682f76312e302e312f77696e646f77732f676f312e342e32",
  "transactions": [
    {
      "hash": "0x37cb4b97716913ca1b8b18d4604fe88980213700e951bb420071ed2bba547757",
      "blockHash": "0x5ba239d48fd76df60ee84461c6655eac58e04d8e21a439a3879ec1c629e16eb2",
      "blockNumber": 80916,
      "transactionIndex": 0,
      "confirmations": null,
      "from": "0x2910543Af39abA0Cd09dBb2D50200b3E800A63D2",
      "gasPrice": {
        "_hex": "0xd90f62171"
      },
      "gasLimit": {
        "_hex": "0x5208"
      },
      "to": "0xdEC7d1B05f89c0Ce0870Ea4AeA18138264675478",
      "value": {
        "_hex": "0xba7a7ad685d1b8000"
      },
      "nonce": 417,
      "data": "0x",
      "r": "0xe998ba4ab4ac2551dd7b99895e19a98cfc7974bfa88cf442918011026c4489f8",
      "s": "0x747b1bcea3d0cde63a4a8b86ff8d1a97d3632aae393ad9d73c9fa98d9141aca7",
      "v": 28,
      "creates": null,
      "raw": "0xf86f8201a1850d90f6217182520894dec7d1b05f89c0ce0870ea4aea18138264675478890ba7a7ad685d1b8000801ca0e998ba4ab4ac2551dd7b99895e19a98cfc7974bfa88cf442918011026c4489f8a0747b1bcea3d0cde63a4a8b86ff8d1a97d3632aae393ad9d73c9fa98d9141aca7",
      "networkId": 0,
      "chainId": 0
    }
  ]
}