{
  "hash": "0x1986c1c2111e8288f1a70916c65745d765930f0a2151ba55e437066dd00b978f",
  "parentHash": "0xe046b85f64ee4a5c7b78c79b42cebaa2c9feffa13754dd070fea4fe0347666cc",
  "number": 84858,
  "timestamp": 1439555413,
  "nonce": "0x3e4d640471812938",
  "difficulty": 2655541936094,
  "gasLimit": {
    "_hex": "0x2fefd8"
  },
  "gasUsed": {
    "_hex": "0xa410"
  },
  "miner": "0xe6A7a1d47ff21B6321162AEA7C6CB457D5476Bca",
  "extraData": "0x476574682f76312e302e312d38326566323666362f6c696e75782f676f312e34",
  "transactions": [
    {
      "hash": "0xd05ed17de2cd7ec8160320c04362bfd3867a698ab463da05a297971e519bc35b",
      "blockHash": "0x1986c1c2111e8288f1a70916c65745d765930f0a2151ba55e437066dd00b978f",
      "blockNumber": 84858,
      "transactionIndex": 0,
      "confirmations": null,
      "from": "0xa4F5576fAE9f2e1321EC6eB1EADFf7f7a4fc42ba",
      "gasPrice": {
        "_hex": "0xba43b7400"
      },
      "gasLimit": {
        "_hex": "0x5208"
      },
      "to": "0xC47Aaa860008be6f65B58c6C6E02a84e666EfE31",
      "value": {
        "_hex": "0x176be82be6467bcf0"
      },
      "nonce": 0,
      "data": "0x",
      "r": "0xdc620c22c6dc1322d8172211ecb00402f1c1bcde781ab124459a7f25412bcea4",
      "s": "0x034eec05e3f79fff6018d9d739cfe22823373fcb914476771a81987d4a49d172",
      "v": 27,
      "creates": null,
      "raw": "0xf86d80850ba43b740082520894c47aaa860008be6f65b58c6c6e02a84e666efe31890176be82be6467bcf0801ba0dc620c22c6dc1322d8172211ecb00402f1c1bcde781ab124459a7f25412bcea4a0034eec05e3f79fff6018d9d739cfe22823373fcb914476771a81987d4a49d172",
      "networkId": 0,
      "chainId": 0
    },
    {
      "hash": "0x0ec686f91be55cb3169806f8dd6ed364b76d3a9f5450ef40b49a6a7f3224d4fa",
      "blockHash": "0x1986c1c2111e8288f1a70916c65745d765930f0a2151ba55e437066dd00b978f",
      "blockNumber": 84858,
      "transactionIndex": 1,
      "confirmations": null,
      "from": "0x1E1f7dDeCbe7b21492957BF4C5365eae580aA990",
      "gasPrice": {
        "_hex": "0xba43b7400"
      },
      "gasLimit": {
        "_hex": "0x5208"
      },
      "to": "0xC47Aaa860008be6f65B58c6C6E02a84e666EfE31",
      "value": {
        "_hex": "0x27671ce9605c33800"
      },
      "nonce": 2,
      "data": "0x",
      "r": "0xc9b3e31eea03c8f914426ed692e2276aa8fe2852a30e231fc206e06e939ecad1",
      "s": "0x2d8ea69325f1c56e523c0dc9cc9d8dfa683a70940aec64c1c942566e1d822872",
      "v": 27,
      "creates": null,
      "raw": "0xf86d02850ba43b740082520894c47aaa860008be6f65b58c6c6e02a84e666efe3189027671ce9605c33800801ba0c9b3e31eea03c8f914426ed692e2276aa8fe2852a30e231fc206e06e939ecad1a02d8ea69325f1c56e523c0dc9cc9d8dfa683a70940aec64c1c942566e1d822872",
      "networkId": 0,
      "chainId": 0
    }
  ]
}