{
  "hash": "0x6ba4040e3920f9fffb5d2f9a9d236390f5458e141db325928b8ba3e4ae36fa02",
  "parentHash": "0xbfcc1eba9c4a6b4b0904415c6d41d6c3f16d483868f17f8dd4147ad8d7294f2f",
  "number": 93816,
  "timestamp": 1439698399,
  "nonce": "0xb793069fd4c3895c",
  "difficulty": 3426160584925,
  "gasLimit": {
    "_hex": "0x2fefd8"
  },
  "gasUsed": {
    "_hex": "0x5208"
  },
  "miner": "0xe6A7a1d47ff21B6321162AEA7C6CB457D5476Bca",
  "extraData": "0x476574682f76312e302e312d38326566323666362f6c696e75782f676f312e34",
  "transactions": [
    {
      "hash": "0x3b72d769a202c10080d7beb1022409a319e137f7bb70ac24dc7bb147aca26d8b",
      "blockHash": "0x6ba4040e3920f9fffb5d2f9a9d236390f5458e141db325928b8ba3e4ae36fa02",
      "blockNumber": 93816,
      "transactionIndex": 0,
      "confirmations": null,
      "from": "0xAd941B747c499E3ad5728C285446813783A33564",
      "gasPrice": {
        "_hex": "0xda478fd21"
      },
      "gasLimit": {
        "_hex": "0x5208"
      },
      "to": "0x32Be343B94f860124dC4fEe278FDCBD38C102D88",
      "value": {
        "_hex": "0xc0e264c7f5919000"
      },
      "nonce": 14,
      "data": "0x",
      "r": "0x01843a064516d3fe424fa160b6280de7977bdb24b77a350879ca20cf6f5672b0",
      "s": "0x0d3361100a101f3202a7db7d37a36a9448c0bcca0f83f19831f97240b34054e7",
      "v": 27,
      "creates": null,
      "raw": "0xf86c0e850da478fd218252089432be343b94f860124dc4fee278fdcbd38c102d8888c0e264c7f5919000801ba001843a064516d3fe424fa160b6280de7977bdb24b77a350879ca20cf6f5672b0a00d3361100a101f3202a7db7d37a36a9448c0bcca0f83f19831f97240b34054e7",
      "networkId": 0,
      "chainId": 0
    }
  ]
}