{
  "hash": "0xb23ec43b8a5e6fe59ae2c84311dc6e0fe3602bdcfd619ce985693aa2c1fdbce8",
  "parentHash": "0x403146616b32413c4c62e07e0debb18168b6e1b5a3557779b0d33f03320b77ab",
  "number": 55867,
  "timestamp": 1439078391,
  "nonce": "0xdbeb7f29618f8e5c",
  "difficulty": 1604449153345,
  "gasLimit": {
    "_hex": "0x2fefd8"
  },
  "gasUsed": {
    "_hex": "0x52080"
  },
  "miner": "0x1B7047b4338ACf65bE94C1A3e8c5c9338ad7d67C",
  "extraData": "0x476574682f76312e302e312d38326566323666362f6c696e75782f676f312e34",
  "transactions": [
    {
      "hash": "0xb695f95999f5499ea96d664cc7a0befb815bf56e5f8677754ebe9e2dec843803",
      "blockHash": "0xb23ec43b8a5e6fe59ae2c84311dc6e0fe3602bdcfd619ce985693aa2c1fdbce8",
      "blockNumber": 55867,
      "transactionIndex": 0,
      "confirmations": null,
      "from": "0xbb30e448B72d6Fdd44973A4C7a312F92f22C8F07",
      "gasPrice": {
        "_hex": "0xe06f44f7c"
      },
      "gasLimit": {
        "_hex": "0x5208"
      },
      "to": "0x32Be343B94f860124dC4fEe278FDCBD38C102D88",
      "value": {
        "_hex": "0x107a910ab13fdd000"
      },
      "nonce": 2,
      "data": "0x",
      "r": "0x0b652191b2232b31747babe540111d8b8d9c23e01d3870fc313ed8ac9e77adeb",
      "s": "0x2f5c6d2758ba321428d642cfdc80c0ae5c31e444d621873844dc6ae19a00fa16",
      "v": 27,
      "creates": null,
      "raw": "0xf86d02850e06f44f7c8252089432be343b94f860124dc4fee278fdcbd38c102d88890107a910ab13fdd000801ba00b652191b2232b31747babe540111d8b8d9c23e01d3870fc313ed8ac9e77adeba02f5c6d2758ba321428d642cfdc80c0ae5c31e444d621873844dc6ae19a00fa16",
      "networkId": 0,
      "chainId": 0
    },
    {
      "hash": "0x992a8f1d0b97d2195adcb9f787f48eb8253c159df6fa55086fbac316a072a79c",
      "blockHash": "0xb23ec43b8a5e6fe59ae2c84311dc6e0fe3602bdcfd619ce985693aa2c1fdbce8",
      "blockNumber": 55867,
      "transactionIndex": 1,
      "confirmations": null,
      "from": "0xe6A7a1d47ff21B6321162AEA7C6CB457D5476Bca",
      "gasPrice": {
        "_hex": "0xd9dbd30ed"
      },
      "gasLimit": {
        "_hex": "0x55f0"
      },
      "to": "0x88107949AFD3389B0e73F48a4821d056421bB3aD",
      "value": {
        "_hex": "0x1e7e479773a6b7d0"
      },
      "nonce": 316,
      "data": "0x",
      "r": "0xdf42f7a13cd8d0cba796bdbe270e695914ca41496c3948a4cac5c95e7faba226",
      "s": "0x2a0c09c8004c156cf7096b843f2d36fd641f3cce717232c2496b78a93bec24fe",
      "v": 28,
      "creates": null,
      "raw": "0xf86e82013c850d9dbd30ed8255f09488107949afd3389b0e73f48a4821d056421bb3ad881e7e479773a6b7d0801ca0df42f7a13cd8d0cba796bdbe270e695914ca41496c3948a4cac5c95e7faba226a02a0c09c8004c156cf7096b843f2d36fd641f3cce717232c2496b78a93bec24fe",
      "networkId": 0,
      "chainId": 0
    },
    {
      "hash": "0x83f481bfa8ecbe31508b97009ed3255676f8028fb7d1195f91c89023db162899",
      "blockHash": "0xb23ec43b8a5e6fe59ae2c84311dc6e0fe3602bdcfd619ce985693aa2c1fdbce8",
      "blockNumber": 55867,
      "transactionIndex": 2,
      "confirmations": null,
      "from": "0xe6A7a1d47ff21B6321162AEA7C6CB457D5476Bca",
      "gasPrice": {
        "_hex": "0xd9dbd30ed"
      },
      "gasLimit": {
        "_hex": "0x55f0"
      },
      "to": "0x9b7999611FD5eFF3ef9A86653490c42E83ED4B8E",
      "value": {
        "_hex": "0x1ec7a71eda600de8"
      },
      "nonce": 317,
      "data": "0x",
      "r": "0xabcdafacaac76683376625e04b220062e9e4fd3d9a8d8fe75b7076c2f1fa1d6e",
      "s": "0x3ff58b7b4ccc2ad4a09eecb1d5e1e9b3a3e5680ede59c0644493715d55a682cd",
      "v": 28,
      "creates": null,
      "raw": "0xf86e82013d850d9dbd30ed8255f0949b7999611fd5eff3ef9a86653490c42e83ed4b8e881ec7a71eda600de8801ca0abcdafacaac76683376625e04b220062e9e4fd3d9a8d8fe75b7076c2f1fa1d6ea03ff58b7b4ccc2ad4a09eecb1d5e1e9b3a3e5680ede59c0644493715d55a682cd",
      "networkId": 0,
      "chainId": 0
    },
    {
      "hash": "0x3f125e42749766fac05bb76ba69a927cff74717bf60d9f63d4afe55b87e61432",
      "blockHash": "0xb23ec43b8a5e6fe59ae2c84311dc6e0fe3602bdcfd619ce985693aa2c1fdbce8",
      "blockNumber": 55867,
      "transactionIndex": 3,
      "confirmations": null,
      "from": "0xe6A7a1d47ff21B6321162AEA7C6CB457D5476Bca",
      "gasPrice": {
        "_hex": "0xd9dbd30ed"
      },
      "gasLimit": {
        "_hex": "0x55f0"
      },
      "to": "0xFA868aD88E0a52ADb4c696aD881BeDeE0FeFF19a",
      "value": {
        "_hex": "0x1ecae9eaee923c0c"
      },
      "nonce": 318,
      "data": "0x",
      "r": "0xa2e438153a505d430e8433fd5a7c9eadf0be230e59a263cb945b5daacb71686f",
      "s": "0x0eb395a91264d98e0bc453d09e0f4d964f1f2f7f34626e24b83d73fb7ff32da4",
      "v": 28,
      "creates": null,
      "raw": "0xf86e82013e850d9dbd30ed8255f094fa868ad88e0a52adb4c696ad881bedee0feff19a881ecae9eaee923c0c801ca0a2e438153a505d430e8433fd5a7c9eadf0be230e59a263cb945b5daacb71686fa00eb395a91264d98e0bc453d09e0f4d964f1f2f7f34626e24b83d73fb7ff32da4",
      "networkId": 0,
      "chainId": 0
    },
    {
      "hash": "0x0fcc6d84547f2af7d5fd5493a3faa7b064603f5c56a9567d8ab0eef7cccf5670",
      "blockHash": "0xb23ec43b8a5e6fe59ae2c84311dc6e0fe3602bdcfd619ce985693aa2c1fdbce8",
      "blockNumber": 55867,
      "transactionIndex": 4,
      "confirmations": null,
      "from": "0xe6A7a1d47ff21B6321162AEA7C6CB457D5476Bca",
      "gasPrice": {
        "_hex": "0xd9dbd30ed"
      },
      "gasLimit": {
        "_hex": "0x55f0"
      },
      "to": "0x3029c37d1c8C9e6541b0735E16691058Ac8A7c87",
      "value": {
        "_hex": "0x1f24add865112dec"
      },
      "nonce": 319,
      "data": "0x",
      "r": "0xdf62c4a65296c177cf02676e1658a3893e5888cb89afa0389c58479b4c0096fb",
      "s": "0x740969e19d615f6853d7fec3656f212813f7f183a17f6792618a4b6ad9c9fb5e",
      "v": 28,
      "creates": null,
      "raw": "0xf86e82013f850d9dbd30ed8255f0943029c37d1c8c9e6541b0735e16691058ac8a7c87881f24add865112dec801ca0df62c4a65296c177cf02676e1658a3893e5888cb89afa0389c58479b4c0096fba0740969e19d615f6853d7fec3656f212813f7f183a17f6792618a4b6ad9c9fb5e",
      "networkId": 0,
      "chainId": 0
    },
    {
      "hash": "0x5b8791e9d4f2eaf87e9a4a6428e159509c90775ef736a2c9d43ec6791f053235",
      "blockHash": "0xb23ec43b8a5e6fe59ae2c84311dc6e0fe3602bdcfd619ce985693aa2c1fdbce8",
      "blockNumber": 55867,
      "transactionIndex": 5,
      "confirmations": null,
      "from": "0xe6A7a1d47ff21B6321162AEA7C6CB457D5476Bca",
      "gasPrice": {
        "_hex": "0xd9dbd30ed"
      },
      "gasLimit": {
        "_hex": "0x55f0"
      },
      "to": "0xA6b29e26494CECc2a3efB991977B235A1125bD4E",
      "value": {
        "_hex": "0x1f2ac9aba5807c30"
      },
      "nonce": 320,
      "data": "0x",
      "r": "0xa28464bfb8461ea8ef0864de80c91fc88403f0c9045bb531eb127abf9e849b9a",
      "s": "0x1f00f89f70f0d0d7aca4f8b7e8b9654d6eecde13fce183e51c94a92db29492b7",
      "v": 28,
      "creates": null,
      "raw": "0xf86e820140850d9dbd30ed8255f094a6b29e26494cecc2a3efb991977b235a1125bd4e881f2ac9aba5807c30801ca0a28464bfb8461ea8ef0864de80c91fc88403f0c9045bb531eb127abf9e849b9aa01f00f89f70f0d0d7aca4f8b7e8b9654d6eecde13fce183e51c94a92db29492b7",
      "networkId": 0,
      "chainId": 0
    },
    {
      "hash": "0x52747a087284fbb8c2d1ec557d3403e1a36239d2691694f9ad36af00d1d843b1",
      "blockHash": "0xb23ec43b8a5e6fe59ae2c84311dc6e0fe3602bdcfd619ce985693aa2c1fdbce8",
      "blockNumber": 55867,
      "transactionIndex": 6,
      "confirmations": null,
      "from": "0xe6A7a1d47ff21B6321162AEA7C6CB457D5476Bca",
      "gasPrice": {
        "_hex": "0xd9dbd30ed"
      },
      "gasLimit": {
        "_hex": "0x55f0"
      },
      "to": "0xAd44b715a1335e19b2EfF8699E2ABef33483880C",
      "value": {
        "_hex": "0x1f30cb96cec833d8"
      },
      "nonce": 321,
      "data": "0x",
      "r": "0x34b4b1d500b2ae320547d35e827489a268398de87287b619210902bd0354fdc8",
      "s": "0x2b12c2ea48403fccb68654918b1f862f7a3cc04feeaf7d911a778c42ab536ac3",
      "v": 27,
      "creates": null,
      "raw": "0xf86e820141850d9dbd30ed8255f094ad44b715a1335e19b2eff8699e2abef33483880c881f30cb96cec833d8801ba034b4b1d500b2ae320547d35e827489a268398de87287b619210902bd0354fdc8a02b12c2ea48403fccb68654918b1f862f7a3cc04feeaf7d911a778c42ab536ac3",
      "networkId": 0,
      "chainId": 0
    },
    {
      "hash": "0x1de910235e779712dd46af52a74a64e75f40bcf56d240f05411c42d352eda9a1",
      "blockHash": "0xb23ec43b8a5e6fe59ae2c84311dc6e0fe3602bdcfd619ce985693aa2c1fdbce8",
      "blockNumber": 55867,
      "transactionIndex": 7,
      "confirmations": null,
      "from": "0xe6A7a1d47ff21B6321162AEA7C6CB457D5476Bca",
      "gasPrice": {
        "_hex": "0xd9dbd30ed"
      },
      "gasLimit": {
        "_hex": "0x55f0"
      },
      "to": "0xE25E3A1947405a1F82dD8e3048a9cA471dc782E1",
      "value": {
        "_hex": "0x1f532c264ea79910"
      },
      "nonce": 322,
      "data": "0x",
      "r": "0x8d63873f5616dccb1cd0880f6b51b9292ff47a35a18b5b61fab78d6549a5de85",
      "s": "0x5d7e6a70f1171d76b1b1f937dbb7bf3fb4a1ff4e15086d1156f2a5dc37c8b556",
      "v": 28,
      "creates": null,
      "raw": "0xf86e820142850d9dbd30ed8255f094e25e3a1947405a1f82dd8e3048a9ca471dc782e1881f532c264ea79910801ca08d63873f5616dccb1cd0880f6b51b9292ff47a35a18b5b61fab78d6549a5de85a05d7e6a70f1171d76b1b1f937dbb7bf3fb4a1ff4e15086d1156f2a5dc37c8b556",
      "networkId": 0,
      "chainId": 0
    },
    {
      "hash": "0x1b6f4c6656d48adbc8ab188c23d397f4be020c2d0637db7a39550153b7ba5dca",
      "blockHash": "0xb23ec43b8a5e6fe59ae2c84311dc6e0fe3602bdcfd619ce985693aa2c1fdbce8",
      "blockNumber": 55867,
      "transactionIndex": 8,
      "confirmations": null,
      "from": "0xe6A7a1d47ff21B6321162AEA7C6CB457D5476Bca",
      "gasPrice": {
        "_hex": "0xd9dbd30ed"
      },
      "gasLimit": {
        "_hex": "0x55f0"
      },
      "to": "0x3205cd1aC9e2Bb844A056D57E3f2463613554677",
      "value": {
        "_hex": "0x1f6ed8b3cbf49404"
      },
      "nonce": 323,
      "data": "0x",
      "r": "0xd077fd0a29cddff5b8a63c73a43fe99bb0dfb818c391a55a8ac6c536e726c880",
      "s": "0x39168371014255a3b6036c51e457bf54ab2bb916a560f6372afbe5e0f2758a84",
      "v": 27,
      "creates": null,
      "raw": "0xf86e820143850d9dbd30ed8255f0943205cd1ac9e2bb844a056d57e3f2463613554677881f6ed8b3cbf49404801ba0d077fd0a29cddff5b8a63c73a43fe99bb0dfb818c391a55a8ac6c536e726c880a039168371014255a3b6036c51e457bf54ab2bb916a560f6372afbe5e0f2758a84",
      "networkId": 0,
      "chainId": 0
    },
    {
      "hash": "0xb389445c3512f4e5494154c2720c14c7865626161e0b1147578be89336a50ed5",
      "blockHash": "0xb23ec43b8a5e6fe59ae2c84311dc6e0fe3602bdcfd619ce985693aa2c1fdbce8",
      "blockNumber": 55867,
      "transactionIndex": 9,
      "confirmations": null,
      "from": "0xe6A7a1d47ff21B6321162AEA7C6CB457D5476Bca",
      "gasPrice": {
        "_hex": "0xd9dbd30ed"
      },
      "gasLimit": {
        "_hex": "0x55f0"
      },
      "to": "0x954CD40791FaaCC6bb616bF657B8F3c4ed97166B",
      "value": {
        "_hex": "0x1f784705b4d8bba0"
      },
      "nonce": 324,
      "data": "0x",
      "r": "0x96699ddc7383c1bc84ef76d6ff638c6c63353e3c281774cdd93e4b104c63b81b",
      "s": "0x5f54a7d0b0753b1507e9b7b441667ee334c7eadcc3f8dc8d91cb487189a0e384",
      "v": 27,
      "creates": null,
      "raw": "0xf86e820144850d9dbd30ed8255f094954cd40791faacc6bb616bf657b8f3c4ed97166b881f784705b4d8bba0801ba096699ddc7383c1bc84ef76d6ff638c6c63353e3c281774cdd93e4b104c63b81ba05f54a7d0b0753b1507e9b7b441667ee334c7eadcc3f8dc8d91cb487189a0e384",
      "networkId": 0,
      "chainId": 0
    },
    {
      "hash": "0x04352c1e8d6b040f6326facb4bcf3aaf1a3977807b138b284a2e035d0c09233d",
      "blockHash": "0xb23ec43b8a5e6fe59ae2c84311dc6e0fe3602bdcfd619ce985693aa2c1fdbce8",
      "blockNumber": 55867,
      "transactionIndex": 10,
      "confirmations": null,
      "from": "0xe6A7a1d47ff21B6321162AEA7C6CB457D5476Bca",
      "gasPrice": {
        "_hex": "0xd9dbd30ed"
      },
      "gasLimit": {
        "_hex": "0x55f0"
      },
      "to": "0x1E815314b4BD50c0f8D6F3ad9B7E11D476123dd4",
      "value": {
        "_hex": "0x1fc659144520b320"
      },
      "nonce": 325,
      "data": "0x",
      "r": "0xd2b282f25379e6a6f8c3a9764a85de60883afaa7c4c9d52ab527ee6252395fc9",
      "s": "0x14e0493fe32a5789c00ea9300569778c8232ee7e07639a8698d8cd0ab86a5d2b",
      "v": 27,
      "creates": null,
      "raw": "0xf86e820145850d9dbd30ed8255f0941e815314b4bd50c0f8d6f3ad9b7e11d476123dd4881fc659144520b320801ba0d2b282f25379e6a6f8c3a9764a85de60883afaa7c4c9d52ab527ee6252395fc9a014e0493fe32a5789c00ea9300569778c8232ee7e07639a8698d8cd0ab86a5d2b",
      "networkId": 0,
      "chainId": 0
    },
    {
      "hash": "0x2ee970f3aa16969e21153a74c5892d68703e3ab897774859bf92f087ce034b93",
      "blockHash": "0xb23ec43b8a5e6fe59ae2c84311dc6e0fe3602bdcfd619ce985693aa2c1fdbce8",
      "blockNumber": 55867,
      "transactionIndex": 11,
      "confirmations": null,
      "from": "0xe6A7a1d47ff21B6321162AEA7C6CB457D5476Bca",
      "gasPrice": {
        "_hex": "0xd9dbd30ed"
      },
      "gasLimit": {
        "_hex": "0x55f0"
      },
      "to": "0x8aBEdC756E11B6Fe8EF40840F01efFe5Dc147331",
      "value": {
        "_hex": "0x1fdb55a628fc8ab8"
      },
      "nonce": 326,
      "data": "0x",
      "r": "0xe3a636a206329c7275d4b183edaf8964a70f4b92a4177660f5a6bddb47d655cf",
      "s": "0x61ac3fee591cf4498cf8a37adb4ae83639368972fc654c4a38bd47408fe08c63",
      "v": 27,
      "creates": null,
      "raw": "0xf86e820146850d9dbd30ed8255f0948abedc756e11b6fe8ef40840f01effe5dc147331881fdb55a628fc8ab8801ba0e3a636a206329c7275d4b183edaf8964a70f4b92a4177660f5a6bddb47d655cfa061ac3fee591cf4498cf8a37adb4ae83639368972fc654c4a38bd47408fe08c63",
      "networkId": 0,
      "chainId": 0
    },
    {
      "hash": "0x08b1195a21111de349bdabc7d1483a0b4fdc81c597a63b21a1933bef42297ccb",
      "blockHash": "0xb23ec43b8a5e6fe59ae2c84311dc6e0fe3602bdcfd619ce985693aa2c1fdbce8",
      "blockNumber": 55867,
      "transactionIndex": 12,
      "confirmations": null,
      "from": "0xe6A7a1d47ff21B6321162AEA7C6CB457D5476Bca",
      "gasPrice": {
        "_hex": "0xd9dbd30ed"
      },
      "gasLimit": {
        "_hex": "0x55f0"
      },
      "to": "0xc8068593B3FA9FA18275c9Cb7a64951BcbFD19eA",
      "value": {
        "_hex": "0x1ffcd97b1a8d4510"
      },
      "nonce": 327,
      "data": "0x",
      "r": "0x3b2e5f842640dc24cdcc6eee2d035f9ec09a6d973ac446f8e7259db4776dc799",
      "s": "0x4d278c552aa57dc8164a5c9e547a7aa389b3604d1b7c6c21d85b875829e603e4",
      "v": 27,
      "creates": null,
      "raw": "0xf86e820147850d9dbd30ed8255f094c8068593b3fa9fa18275c9cb7a64951bcbfd19ea881ffcd97b1a8d4510801ba03b2e5f842640dc24cdcc6eee2d035f9ec09a6d973ac446f8e7259db4776dc799a04d278c552aa57dc8164a5c9e547a7aa389b3604d1b7c6c21d85b875829e603e4",
      "networkId": 0,
      "chainId": 0
    },
    {
      "hash": "0xba312b97536e033dbb5770ed82b6f8e34a32f7c3bb0327abacc2d9b35bd87f84",
      "blockHash": "0xb23ec43b8a5e6fe59ae2c84311dc6e0fe3602bdcfd619ce985693aa2c1fdbce8",
      "blockNumber": 55867,
      "transactionIndex": 13,
      "confirmations": null,
      "from": "0xe6A7a1d47ff21B6321162AEA7C6CB457D5476Bca",
      "gasPrice": {
        "_hex": "0xd9dbd30ed"
      },
      "gasLimit": {
        "_hex": "0x55f0"
      },
      "to": "0x18d4625470F85b3A599619208E44301E6eFeaB5c",
      "value": {
        "_hex": "0x20b023d68d0659e8"
      },
      "nonce": 328,
      "data": "0x",
      "r": "0x8390e6534ab6842f9af8f09601c76cffa6e938790027efdceabc31596fbb844d",
      "s": "0x7ac041d1cf07684017cedc52810ebf6c5cd73884124ab1c2144d3d25be5e2066",
      "v": 28,
      "creates": null,
      "raw": "0xf86e820148850d9dbd30ed8255f09418d4625470f85b3a599619208e44301e6efeab5c8820b023d68d0659e8801ca08390e6534ab6842f9af8f09601c76cffa6e938790027efdceabc31596fbb844da07ac041d1cf07684017cedc52810ebf6c5cd73884124ab1c2144d3d25be5e2066",
      "networkId": 0,
      "chainId": 0
    },
    {
      "hash": "0xa15983d0d826642efaf7849347a362d7de235b634f22adac9a440f25f42ee285",
      "blockHash": "0xb23ec43b8a5e6fe59ae2c84311dc6e0fe3602bdcfd619ce985693aa2c1fdbce8",
      "blockNumber": 55867,
      "transactionIndex": 14,
      "confirmations": null,
      "from": "0xe6A7a1d47ff21B6321162AEA7C6CB457D5476Bca",
      "gasPrice": {
        "_hex": "0xd9dbd30ed"
      },
      "gasLimit": {
        "_hex": "0x55f0"
      },
      "to": "0x3DfCf2bF579C831a03379a140b74f884e49CaFf3",
      "value": {
        "_hex": "0x2153bd4509a3b1fc"
      },
      "nonce": 329,
      "data": "0x",
      "r": "0xb8a62bcdbcc179aebfcbdb6fec246ac0b3dc6a40f2571e8e5b1f343880ff202e",
      "s": "0x1e470f4b75adb2764579387deb1657219ebc987631f1b02666d66c0ff11786be",
      "v": 27,
      "creates": null,
      "raw": "0xf86e820149850d9dbd30ed8255f0943dfcf2bf579c831a03379a140b74f884e49caff3882153bd4509a3b1fc801ba0b8a62bcdbcc179aebfcbdb6fec246ac0b3dc6a40f2571e8e5b1f343880ff202ea01e470f4b75adb2764579387deb1657219ebc987631f1b02666d66c0ff11786be",
      "networkId": 0,
      "chainId": 0
    },
    {
      "hash": "0xa688df56f48caa8a9ec724028112db29e80b0e857e027bb013161f667415f9d6",
      "blockHash": "0xb23ec43b8a5e6fe59ae2c84311dc6e0fe3602bdcfd619ce985693aa2c1fdbce8",
      "blockNumber": 55867,
      "transactionIndex": 15,
      "confirmations": null,
      "from": "0xe6A7a1d47ff21B6321162AEA7C6CB457D5476Bca",
      "gasPrice": {
        "_hex": "0xd9dbd30ed"
      },
      "gasLimit": {
        "_hex": "0x55f0"
      },
      "to": "0x1CC77ed71531833bAC1eA0E757Cd150dCD297920",
      "value": {
        "_hex": "0x21a181f67c7fd1d8"
      },
      "nonce": 330,
      "data": "0x",
      "r": "0x3dbccd9b94e67a55c7fe4fcef1afe4df2b6d2fee83d8b2f4822123256c935f7d",
      "s": "0x6f4236606cc3b687aedbdd514e457f25ab722749050316dc45a38ac60b5994bd",
      "v": 27,
      "creates": null,
      "raw": "0xf86e82014a850d9dbd30ed8255f0941cc77ed71531833bac1ea0e757cd150dcd2979208821a181f67c7fd1d8801ba03dbccd9b94e67a55c7fe4fcef1afe4df2b6d2fee83d8b2f4822123256c935f7da06f4236606cc3b687aedbdd514e457f25ab722749050316dc45a38ac60b5994bd",
      "networkId": 0,
      "chainId": 0
    }
  ]
}