{
  "hash": "0x841377aed9c34961270cbebdf1ddc1807ddebb9aa4462b8209aa92152b0799e9",
  "parentHash": "0x8b9ccff47df0b17ffac0b2d12dde0d09c52afaa7ef5a01f99032f05932448737",
  "number": 92535,
  "timestamp": 1439673566,
  "nonce": "0x8b46083f7e0ee757",
  "difficulty": 3526837490597,
  "gasLimit": {
    "_hex": "0x2fefd8"
  },
  "gasUsed": {
    "_hex": "0xf618"
  },
  "miner": "0x0eDEd3DA479d0beF8eeC92A76644D3f4E3C177f7",
  "extraData": "0x476574682f76312e302e312f6c696e75782f676f312e342e32",
  "transactions": [
    {
      "hash": "0xd6d14366d6a39c0097a730418b6dba4223da53866f9004f3cb932f51b6f0a776",
      "blockHash": "0x841377aed9c34961270cbebdf1ddc1807ddebb9aa4462b8209aa92152b0799e9",
      "blockNumber": 92535,
      "transactionIndex": 0,
      "confirmations": null,
      "from": "0x32Be343B94f860124dC4fEe278FDCBD38C102D88",
      "gasPrice": {
        "_hex": "0xd45b3173f"
      },
      "gasLimit": {
        "_hex": "0x5208"
      },
      "to": "0x00cDBe22d1E508635F75Ee617b459595072c9229",
      "value": {
        "_hex": "0x2fb23b9a686bb0000"
      },
      "nonce": 897,
      "data": "0x",
      "r": "0x291c4fa9c92d88c3e725c42f3282086fedd690394cebc044615f2fecdb3d67f0",
      "s": "0x45253a5ffd61d756901bc19a79d7b82522a017686fc01a3779df5614a522c192",
      "v": 28,
      "creates": null,
      "raw": "0xf86f820381850d45b3173f8252089400cdbe22d1e508635f75ee617b459595072c92298902fb23b9a686bb0000801ca0291c4fa9c92d88c3e725c42f3282086fedd690394cebc044615f2fecdb3d67f0a045253a5ffd61d756901bc19a79d7b82522a017686fc01a3779df5614a522c192",
      "networkId": 0,
      "chainId": 0
    },
    {
      "hash": "0x2dcdb62cf2df5c06a596665b9ffb03694fa4277402ea1adb7e965b8715cf79e9",
      "blockHash": "0x841377aed9c34961270cbebdf1ddc1807ddebb9aa4462b8209aa92152b0799e9",
      "blockNumber": 92535,
      "transactionIndex": 1,
      "confirmations": null,
      "from": "0xA43B1A989f607Edc8041319870e1A0ae96D84aA0",
      "gasPrice": {
        "_hex": "0xd45b3173f"
      },
      "gasLimit": {
        "_hex": "0x5208"
      },
      "to": "0x32Be343B94f860124dC4fEe278FDCBD38C102D88",
      "value": {
        "_hex": "0x6193ee9afad7140000"
      },
      "nonce": 2,
      "data": "0x",
      "r": "0xa0a460d4412e6bb686a3427f40100c4ba8974b677aec365acdd6b6ea3a2b79db",
      "s": "0x2d44fc37623e1d2523fe50bb4406326b7d2338b7b153c9a2dede5eac043da0a8",
      "v": 28,
      "creates": null,
      "raw": "0xf86d02850d45b3173f8252089432be343b94f860124dc4fee278fdcbd38c102d88896193ee9afad7140000801ca0a0a460d4412e6bb686a3427f40100c4ba8974b677aec365acdd6b6ea3a2b79dba02d44fc37623e1d2523fe50bb4406326b7d2338b7b153c9a2dede5eac043da0a8",
      "networkId": 0,
      "chainId": 0
    },
    {
      "hash": "0x4ddf8f5d71c4cfb0dd19d9dd28376223064511316c2eee6a045596d1f635fb95",
      "blockHash": "0x841377aed9c34961270cbebdf1ddc1807ddebb9aa4462b8209aa92152b0799e9",
      "blockNumber": 92535,
      "transactionIndex": 2,
      "confirmations": null,
      "from": "0x9DBC66319FC6db61B4b6b432D38D7d0098216CE8",
      "gasPrice": {
        "_hex": "0xd45b3173f"
      },
      "gasLimit": {
        "_hex": "0x5208"
      },
      "to": "0x32Be343B94f860124dC4fEe278FDCBD38C102D88",
      "value": {
        "_hex": "0x5e2de9a06d0098000"
      },
      "nonce": 0,
      "data": "0x",
      "r": "0xf73dd641ad2fb3691f64056f0dd5700a26e8ae873e2ce6c3f2658fc03377e59d",
      "s": "0x6614d55b6a939f690e882788272feca655eedcd5c9c6a2216ad9a92b3f420cec",
      "v": 28,
      "creates": null,
      "raw": "0xf86d80850d45b3173f8252089432be343b94f860124dc4fee278fdcbd38c102d888905e2de9a06d0098000801ca0f73dd641ad2fb3691f64056f0dd5700a26e8ae873e2ce6c3f2658fc03377e59da06614d55b6a939f690e882788272feca655eedcd5c9c6a2216ad9a92b3f420cec",
      "networkId": 0,
      "chainId": 0
    }
  ]
}