{
  "hash": "0x98834967e3b1cd87ff02af5be315cb20fc8f7263ebb48c3e8b8b21052931ecb0",
  "parentHash": "0x29b5cc80758a31a1a8c2a834d9b437152445b09dad90ad3c534facd95fe1144d",
  "number": 52573,
  "timestamp": 1439023763,
  "nonce": "0x570c186efc70738f",
  "difficulty": 1566367277076,
  "gasLimit": {
    "_hex": "0x15a9e3"
  },
  "gasUsed": {
    "_hex": "0xf4240"
  },
  "miner": "0xF2d2AfF1320476cb8C6b607199D23175cc595693",
  "extraData": "0x476574682f76312e302e312f77696e646f77732f676f312e342e32",
  "transactions": [
    {
      "hash": "0xc48242ec9a07d5508a8d25e4f4e8b8bca0ad82650905827c8126ff921ccd897e",
      "blockHash": "0x98834967e3b1cd87ff02af5be315cb20fc8f7263ebb48c3e8b8b21052931ecb0",
      "blockNumber": 52573,
      "transactionIndex": 0,
      "confirmations": null,
      "from": "0x54dAeb3E8a6BBC797E4aD2b0339f134b186e4637",
      "gasPrice": {
        "_hex": "0xe7d27df17"
      },
      "gasLimit": {
        "_hex": "0x7a120"
      },
      "to": "0xBAA54d6E90c3F4d7Ebec11bD180134C7eD8eBb52",
      "value": {
        "_hex": "0x16345785d8a0000"
      },
      "nonce": 743,
      "data": "0x",
      "r": "0x05c3eb19e256b74b7ce58bccf17318dff9eb0f44327c665bef3571841b287c73",
      "s": "0x41ac9ee22c6154feb8777a26344a52e6d5a1262b5f78238f9c3ff8d02cead6dc",
      "v": 28,
      "creates": null,
      "raw": "0xf86f8202e7850e7d27df178307a12094baa54d6e90c3f4d7ebec11bd180134c7ed8ebb5288016345785d8a0000801ca005c3eb19e256b74b7ce58bccf17318dff9eb0f44327c665bef3571841b287c73a041ac9ee22c6154feb8777a26344a52e6d5a1262b5f78238f9c3ff8d02cead6dc",
      "networkId": 0,
      "chainId": 0
    },
    {
      "hash": "0x4ab6682a4696166daa41c73bce146609aac03d3a049de8e5a17b5985b98b3cbe",
      "blockHash": "0x98834967e3b1cd87ff02af5be315cb20fc8f7263ebb48c3e8b8b21052931ecb0",
      "blockNumber": 52573,
      "transactionIndex": 1,
      "confirmations": null,
      "from": "0x54dAeb3E8a6BBC797E4aD2b0339f134b186e4637",
      "gasPrice": {
        "_hex": "0xe7d27df17"
      },
      "gasLimit": {
        "_hex": "0x7a120"
      },
      "to": "0xBAA54d6E90c3F4d7Ebec11bD180134C7eD8eBb52",
      "value": {
        "_hex": "0x16345785d8a0000"
      },
      "nonce": 744,
      "data": "0x",
      "r": "0x7ede23f452d390487eff893aa5b314613ed4573a4b7eea8ec6ca536c1262816e",
      "s": "0x415407c9deb84b380126daff44b37255a4e3a246d2f25d752287a77e47f1a752",
      "v": 27,
      "creates": null,
      "raw": "0xf86f8202e8850e7d27df178307a12094baa54d6e90c3f4d7ebec11bd180134c7ed8ebb5288016345785d8a0000801ba07ede23f452d390487eff893aa5b314613ed4573a4b7eea8ec6ca536c1262816ea0415407c9deb84b380126daff44b37255a4e3a246d2f25d752287a77e47f1a752",
      "networkId": 0,
      "chainId": 0
    }
  ]
}