{
  "hash": "0xa93fcffe9d31b8e83e925573085e0a71e15b51bdc43d25d52e3bdf7b944a5cb4",
  "parentHash": "0x4c97e43ab407e49d12472256dbc911c9e4061536c97b62aeff7ae4a3f3fffa8c",
  "number": 71037,
  "timestamp": 1439329557,
  "nonce": "0x375694d4a06ce269",
  "difficulty": 2153017931104,
  "gasLimit": {
    "_hex": "0x2fefd8"
  },
  "gasUsed": {
    "_hex": "0x546c"
  },
  "miner": "0x67B3F11a0e02DBe28208D4F85528D08Cd7C0AA75",
  "extraData": "0x",
  "transactions": [
    {
      "hash": "0x8c88e35a5684d864c14cb8ea9976c40fec6779a186673274a0efff53bed90b56",
      "blockHash": "0xa93fcffe9d31b8e83e925573085e0a71e15b51bdc43d25d52e3bdf7b944a5cb4",
      "blockNumber": 71037,
      "transactionIndex": 0,
      "confirmations": null,
      "from": "0x9BF71f7fB537Ac54f4E514947Fa7Ff6728f16d2F",
      "gasPrice": {
        "_hex": "0x10041aab762"
      },
      "gasLimit": {
        "_hex": "0x55f0"
      },
      "to": "0x2910543Af39abA0Cd09dBb2D50200b3E800A63D2",
      "value": {
        "_hex": "0x8ac7230489e80000"
      },
      "nonce": 0,
      "data": "0x454e4d394b38374b30",
      "r": "0x24b43106940525cc96279355910c8885ab0f56602fc9f6fcf4d7ebb2f53dabb0",
      "s": "0x4c79e55b48f03472be7f65df5eaaa4799a8136812b428c027857af48af2d663a",
      "v": 28,
      "creates": null,
      "raw": "0xf8768086010041aab7628255f0942910543af39aba0cd09dbb2d50200b3e800a63d2888ac7230489e8000089454e4d394b38374b301ca024b43106940525cc96279355910c8885ab0f56602fc9f6fcf4d7ebb2f53dabb0a04c79e55b48f03472be7f65df5eaaa4799a8136812b428c027857af48af2d663a",
      "networkId": 0,
      "chainId": 0
    }
  ]
}