{
  "hash": "0x994563e5a51fc652ed95f68e51d84adb52c4b9214de399fba5499ac9b96296b4",
  "parentHash": "0x3c125a98e612e3e2eb562fd8872c3e4e9ade208426bf3b1e8895a6c655eac401",
  "number": 72882,
  "timestamp": 1439359707,
  "nonce": "0xcd9698c36d4e934f",
  "difficulty": 2193928068711,
  "gasLimit": {
    "_hex": "0x2fefd8"
  },
  "gasUsed": {
    "_hex": "0x5208"
  },
  "miner": "0x3FF679B0823a026F2378E5f5F22A6F127cC85828",
  "extraData": "0x",
  "transactions": [
    {
      "hash": "0x7582e19ebeaec37ebc978c35cf6fc92423e7f7f10b5990820a8ebaab1cea26c6",
      "blockHash": "0x994563e5a51fc652ed95f68e51d84adb52c4b9214de399fba5499ac9b96296b4",
      "blockNumber": 72882,
      "transactionIndex": 0,
      "confirmations": null,
      "from": "0x32Be343B94f860124dC4fEe278FDCBD38C102D88",
      "gasPrice": {
        "_hex": "0xd892e5dd7"
      },
      "gasLimit": {
        "_hex": "0x5208"
      },
      "to": "0x120A270bbC009644e35F0bB6ab13f95b8199c4ad",
      "value": {
        "_hex": "0xa2a15d09519be00000"
      },
      "nonce": 284,
      "data": "0x",
      "r": "0xa3548d311c50c15400090ff0a304be4ba44907bd427753e43f0f82990d0ac3e9",
      "s": "0x274ea1015cda643037c16dba1653bb506bd6fcb7312965920701fe4b2959825f",
      "v": 28,
      "creates": null,
      "raw": "0xf86f82011c850d892e5dd782520894120a270bbc009644e35f0bb6ab13f95b8199c4ad89a2a15d09519be00000801ca0a3548d311c50c15400090ff0a304be4ba44907bd427753e43f0f82990d0ac3e9a0274ea1015cda643037c16dba1653bb506bd6fcb7312965920701fe4b2959825f",
      "networkId": 0,
      "chainId": 0
    }
  ]
}