{
  "hash": "0xf8857294733f83eec2c9732ca4e8233832f66eb1e3fa690e3d8c75f394bf5d0b",
  "parentHash": "0xe260e44f50e05d37bd557d2cc182470ba83c4b7f76dbd599f755fc312095707d",
  "number": 59709,
  "timestamp": 1439142342,
  "nonce": "0x33986e6104a5a15c",
  "difficulty": 1715501240981,
  "gasLimit": {
    "_hex": "0x2fefd8"
  },
  "gasUsed": {
    "_hex": "0x5208"
  },
  "miner": "0x02020D22dCF88f5eDd66B382D7da019F161fB7e3",
  "extraData": "0x",
  "transactions": [
    {
      "hash": "0x30fe7ef31cd16aa954a9d411c49f9feac43249c0384d1ca3770ba9297d85f84b",
      "blockHash": "0xf8857294733f83eec2c9732ca4e8233832f66eb1e3fa690e3d8c75f394bf5d0b",
      "blockNumber": 59709,
      "transactionIndex": 0,
      "confirmations": null,
      "from": "0xBD744E3F13D79B33F6c8E1d5E32F8E9BA2866c46",
      "gasPrice": {
        "_hex": "0xd4d1d652d"
      },
      "gasLimit": {
        "_hex": "0x5208"
      },
      "to": "0xD2e57181beE0BF25a2E7D377EaCCec854Bd65334",
      "value": {
        "_hex": "0xde0b6b3a7640000"
      },
      "nonce": 9,
      "data": "0x",
      "r": "0x34eb95eff357dcab8560415405a79e6e32ac7a353882209007f817578b432fc2",
      "s": "0x4f4601d5c4c308b634a5f15a1ccbccadfc4642d2ce8d4132ee205ee899b9c783",
      "v": 27,
      "creates": null,
      "raw": "0xf86c09850d4d1d652d82520894d2e57181bee0bf25a2e7d377eaccec854bd65334880de0b6b3a7640000801ba034eb95eff357dcab8560415405a79e6e32ac7a353882209007f817578b432fc2a04f4601d5c4c308b634a5f15a1ccbccadfc4642d2ce8d4132ee205ee899b9c783",
      "networkId": 0,
      "chainId": 0
    }
  ]
}