{
  "hash": "0xdb053a128acd37168e5c08dd2fc1cdfca2d001744b615543fd6673a13a54e1fd",
  "parentHash": "0xd1696bf81dc61e385beaf459cf6b301c57e6d8221920ec73834b4c81c24c92fb",
  "number": 47530,
  "timestamp": 1438942170,
  "nonce": "0x1e8a9b27a396ffb9",
  "difficulty": 1448816457779,
  "gasLimit": {
    "_hex": "0xcafb"
  },
  "gasUsed": {
    "_hex": "0xa410"
  },
  "miner": "0xB7f5530DF01aeFE061dAbFA6E778eE694157A71f",
  "extraData": "0x476574682f76312e302e312f6c696e75782f676f312e342e32",
  "transactions": [
    {
      "hash": "0x6e36158981f3e20dfffcc93c55e549307ba2b5ace52d48775f5ea1f4f108d4ea",
      "blockHash": "0xdb053a128acd37168e5c08dd2fc1cdfca2d001744b615543fd6673a13a54e1fd",
      "blockNumber": 47530,
      "transactionIndex": 0,
      "confirmations": null,
      "from": "0x1D889aFF5D57138c9819412d63b5d877567B5936",
      "gasPrice": {
        "_hex": "0x1c60de88db"
      },
      "gasLimit": {
        "_hex": "0x7530"
      },
      "to": "0xa9f5E7bf6Cbf6fEc55B30850Eb492b47A376d050",
      "value": {
        "_hex": "0x15af1d78b58c400000"
      },
      "nonce": 2,
      "data": "0x",
      "r": "0x37eb0244923724e47b539a67bc9b1f069ab2d63a249e6a4b3896d2013adb0585",
      "s": "0x69e0ae1b540922ef2e7ade7265b2444b6a92ffbc7e09f4ce4ded3277af7b8cfa",
      "v": 27,
      "creates": null,
      "raw": "0xf86d02851c60de88db82753094a9f5e7bf6cbf6fec55b30850eb492b47a376d0508915af1d78b58c400000801ba037eb0244923724e47b539a67bc9b1f069ab2d63a249e6a4b3896d2013adb0585a069e0ae1b540922ef2e7ade7265b2444b6a92ffbc7e09f4ce4ded3277af7b8cfa",
      "networkId": 0,
      "chainId": 0
    },
    {
      "hash": "0x775559a2056bd99b9b838da801b3d1d66e7f2c5f19d199fc7d67030bba410b13",
      "blockHash": "0xdb053a128acd37168e5c08dd2fc1cdfca2d001744b615543fd6673a13a54e1fd",
      "blockNumber": 47530,
      "transactionIndex": 1,
      "confirmations": null,
      "from": "0xe6A7a1d47ff21B6321162AEA7C6CB457D5476Bca",
      "gasPrice": {
        "_hex": "0x1a80b66993"
      },
      "gasLimit": {
        "_hex": "0x55f0"
      },
      "to": "0xB7268c7705A1866b2A78e882fdfDc8E2a4e1428E",
      "value": {
        "_hex": "0x390720ccb93185ff8"
      },
      "nonce": 169,
      "data": "0x",
      "r": "0xae3df3489776ea0fa131b2090a585bf76ae483828c1ed054e749029b94a77ed0",
      "s": "0x2501a5bbf39f2a707b1cdddc47cd915ba44c122226dc372ebdeaed53983a4b4b",
      "v": 28,
      "creates": null,
      "raw": "0xf86e81a9851a80b669938255f094b7268c7705a1866b2a78e882fdfdc8e2a4e1428e890390720ccb93185ff8801ca0ae3df3489776ea0fa131b2090a585bf76ae483828c1ed054e749029b94a77ed0a02501a5bbf39f2a707b1cdddc47cd915ba44c122226dc372ebdeaed53983a4b4b",
      "networkId": 0,
      "chainId": 0
    }
  ]
}