{
  "hash": "0x1d289df1717d2ffcdf5a2e5bb3d8a8f253e796973598ea405147d61c374c1e54",
  "parentHash": "0x5d6f83cb5e1f2c365e62b28ef190547ccd55d8a65341dafdf2d0e283ba54ad69",
  "number": 50325,
  "timestamp": 1438987349,
  "nonce": "0x4927ff3b6f77e0ec",
  "difficulty": 1509710192085,
  "gasLimit": {
    "_hex": "0x5c489"
  },
  "gasUsed": {
    "_hex": "0x546c"
  },
  "miner": "0xa50ec0D39fa913E62f1Bae7074E6F36caA71855b",
  "extraData": "0x",
  "transactions": [
    {
      "hash": "0xd16966aee403e1d12941b4ca7139939c1c9b5bcb79bdec1ed59558fa12a4f781",
      "blockHash": "0x1d289df1717d2ffcdf5a2e5bb3d8a8f253e796973598ea405147d61c374c1e54",
      "blockNumber": 50325,
      "transactionIndex": 0,
      "confirmations": null,
      "from": "0x3E8745BA322f5fd6cB50124Ec46688c7a69a7FaE",
      "gasPrice": {
        "_hex": "0xd493a0028"
      },
      "gasLimit": {
        "_hex": "0x15f90"
      },
      "to": "0x2910543Af39abA0Cd09dBb2D50200b3E800A63D2",
      "value": {
        "_hex": "0xde0b6b3a7640000"
      },
      "nonce": 2,
      "data": "0x454e435250324d4a52",
      "r": "0xc1c5638b406ba1f20d7cfb5ca97480393cfa1ac940993ac1e1ef7c8dbbdf977c",
      "s": "0x1489eeab7d22e96db661dca2486ae2db65e26c94c0acaf68a166003de3c50b24",
      "v": 27,
      "creates": null,
      "raw": "0xf87602850d493a002883015f90942910543af39aba0cd09dbb2d50200b3e800a63d2880de0b6b3a764000089454e435250324d4a521ba0c1c5638b406ba1f20d7cfb5ca97480393cfa1ac940993ac1e1ef7c8dbbdf977ca01489eeab7d22e96db661dca2486ae2db65e26c94c0acaf68a166003de3c50b24",
      "networkId": 0,
      "chainId": 0
    }
  ]
}