{
  "hash": "0xc8f2f267f29de93ee83ebddcccea8612ea6748fec89ee26bca785529b2f06a65",
  "parentHash": "0x3cb0c3b87029e7f04f077e4d84b550bd6ea589a76e8fa7c7460c1c09f1c480d1",
  "number": 66008,
  "timestamp": 1439247018,
  "nonce": "0x99d61ee137142782",
  "difficulty": 1945305941372,
  "gasLimit": {
    "_hex": "0x2fefd8"
  },
  "gasUsed": {
    "_hex": "0xf618"
  },
  "miner": "0xbb7B8287f3F0a933474a79eAe42CBCa977791171",
  "extraData": "0x476574682f4c5649562f76312e302e312f6c696e75782f676f312e342e32",
  "transactions": [
    {
      "hash": "0x0d335f7d8d50dee4c78f4d470ea71fbcf035bedcafe741bd3af9fd372f637b79",
      "blockHash": "0xc8f2f267f29de93ee83ebddcccea8612ea6748fec89ee26bca785529b2f06a65",
      "blockNumber": 66008,
      "transactionIndex": 0,
      "confirmations": null,
      "from": "0xC99478b218E58F45783fA70f0507cf614938E67d",
      "gasPrice": {
        "_hex": "0xdd32e08ce"
      },
      "gasLimit": {
        "_hex": "0x15f90"
      },
      "to": "0xC3fe64D1af00F0d9c324E4387EF7533f7D788e95",
      "value": {
        "_hex": "0x8ac7230489e80000"
      },
      "nonce": 6,
      "data": "0x",
      "r": "0x82b7a4830fc20ddc101b1ec4d127325c89a57a671e6f137a92126cd935a4c8a6",
      "s": "0x6b0bbf2a0746a3f579b998ad6fcd4921db19b59e5692767294ed9fe4c2d9e0d4",
      "v": 27,
      "creates": null,
      "raw": "0xf86d06850dd32e08ce83015f9094c3fe64d1af00f0d9c324e4387ef7533f7d788e95888ac7230489e80000801ba082b7a4830fc20ddc101b1ec4d127325c89a57a671e6f137a92126cd935a4c8a6a06b0bbf2a0746a3f579b998ad6fcd4921db19b59e5692767294ed9fe4c2d9e0d4",
      "networkId": 0,
      "chainId": 0
    },
    {
      "hash": "0x1db8a7e3402830b9939b9619ae4a75bd05c809aa51446d5eeeb31464e3765428",
      "blockHash": "0xc8f2f267f29de93ee83ebddcccea8612ea6748fec89ee26bca785529b2f06a65",
      "blockNumber": 66008,
      "transactionIndex": 1,
      "confirmations": null,
      "from": "0xC99478b218E58F45783fA70f0507cf614938E67d",
      "gasPrice": {
        "_hex": "0xdd32e08ce"
      },
      "gasLimit": {
        "_hex": "0x15f90"
      },
      "to": "0xC3fe64D1af00F0d9c324E4387EF7533f7D788e95",
      "value": {
        "_hex": "0x13f306a2409fc0000"
      },
      "nonce": 7,
      "data": "0x",
      "r": "0xe8a2a113867e6ac31cdd2052a0d77c3f3f5ae8c15eb92e04684ef5ad75ec4ed0",
      "s": "0x2d07024c8ec6d795d9f13edd9c2d039effaf3e6cd5e43efcf6df4fc936c38586",
      "v": 28,
      "creates": null,
      "raw": "0xf86e07850dd32e08ce83015f9094c3fe64d1af00f0d9c324e4387ef7533f7d788e9589013f306a2409fc0000801ca0e8a2a113867e6ac31cdd2052a0d77c3f3f5ae8c15eb92e04684ef5ad75ec4ed0a02d07024c8ec6d795d9f13edd9c2d039effaf3e6cd5e43efcf6df4fc936c38586",
      "networkId": 0,
      "chainId": 0
    },
    {
      "hash": "0x7d6d35b0ad86f96ab827ccde1fb4065fde2c0939ed7ece15d648c745aa4b8a49",
      "blockHash": "0xc8f2f267f29de93ee83ebddcccea8612ea6748fec89ee26bca785529b2f06a65",
      "blockNumber": 66008,
      "transactionIndex": 2,
      "confirmations": null,
      "from": "0x4c74B6F32c9680aCB5Fe0e72B7Aa95C612540A04",
      "gasPrice": {
        "_hex": "0xdcdae6596"
      },
      "gasLimit": {
        "_hex": "0x5208"
      },
      "to": "0x32Be343B94f860124dC4fEe278FDCBD38C102D88",
      "value": {
        "_hex": "0x56bc2f1dd905d0000"
      },
      "nonce": 10,
      "data": "0x",
      "r": "0x35a22498d4f8763070c1d60c229a33a2120a74c7aafa169307c393d0ee674f29",
      "s": "0x6ea57516405b8c88b15cdcf72872458c037f3492e9ff668b7bfe64d982f96b55",
      "v": 27,
      "creates": null,
      "raw": "0xf86d0a850dcdae65968252089432be343b94f860124dc4fee278fdcbd38c102d8889056bc2f1dd905d0000801ba035a22498d4f8763070c1d60c229a33a2120a74c7aafa169307c393d0ee674f29a06ea57516405b8c88b15cdcf72872458c037f3492e9ff668b7bfe64d982f96b55",
      "networkId": 0,
      "chainId": 0
    }
  ]
}