{
  "hash": "0x54e461a8121b141b5c36600d8d5daa8beb2905165296cd95f784843a197a5521",
  "parentHash": "0x176ce10fcbd78de0c13a969fc6c71736b15ab430c332be8e6b6e716279bd287b",
  "number": 112472,
  "timestamp": 1440008059,
  "nonce": "0x0c9174056a7b6cbc",
  "difficulty": 4415299628274,
  "gasLimit": {
    "_hex": "0x2fefd8"
  },
  "gasUsed": {
    "_hex": "0x19a28"
  },
  "miner": "0x580992B51e3925e23280EfB93d3047C82f17E038",
  "extraData": "0x476574682f76312e302e312f6c696e75782f676f312e342e32",
  "transactions": [
    {
      "hash": "0x66291e82e14a2d90c936cc04d9c5461acc79b02a01b1a3c84306c81713195e37",
      "blockHash": "0x54e461a8121b141b5c36600d8d5daa8beb2905165296cd95f784843a197a5521",
      "blockNumber": 112472,
      "transactionIndex": 0,
      "confirmations": null,
      "from": "0x84b91e2E2902d05E2B591B41083Bd7BEB2d52c74",
      "gasPrice": {
        "_hex": "0xe046b403f"
      },
      "gasLimit": {
        "_hex": "0x15f90"
      },
      "to": "0xb9D508dA22E0939176D5B8E16B7A3De46Bd37e78",
      "value": {
        "_hex": "0x10f0cf064dd59200000"
      },
      "nonce": 2,
      "data": "0x",
      "r": "0xc23a272a0dad462c465039bffe4f56672ece807d39a8bfd2172e5294d1b8cd62",
      "s": "0x21c50cbfcc4c0eff1f7d2901e045c5596aadc4b8ef8572a99ec9d19012679c0d",
      "v": 28,
      "creates": null,
      "raw": "0xf86f02850e046b403f83015f9094b9d508da22e0939176d5b8e16b7a3de46bd37e788a010f0cf064dd59200000801ca0c23a272a0dad462c465039bffe4f56672ece807d39a8bfd2172e5294d1b8cd62a021c50cbfcc4c0eff1f7d2901e045c5596aadc4b8ef8572a99ec9d19012679c0d",
      "networkId": 0,
      "chainId": 0
    },
    {
      "hash": "0xc46b20edaec0c2a6a8234d9d641b3063b63109e73f15d281d3f7e7a222323c0d",
      "blockHash": "0x54e461a8121b141b5c36600d8d5daa8beb2905165296cd95f784843a197a5521",
      "blockNumber": 112472,
      "transactionIndex": 1,
      "confirmations": null,
      "from": "0x2910543Af39abA0Cd09dBb2D50200b3E800A63D2",
      "gasPrice": {
        "_hex": "0xda0c9fd73"
      },
      "gasLimit": {
        "_hex": "0x5208"
      },
      "to": "0x2f86ba8019945f39edE131D38d4d8780884DA553",
      "value": {
        "_hex": "0xa2a14b45d863ff8000"
      },
      "nonce": 1107,
      "data": "0x",
      "r": "0x4917c8bc97062a7c42c1e4ad6a01f9428310dbfa877d8eb458fe152522598a7f",
      "s": "0x134c4e5c7ce69fef77912f095b070403d04e131f36c4c546e2fc5876368b71aa",
      "v": 27,
      "creates": null,
      "raw": "0xf86f820453850da0c9fd73825208942f86ba8019945f39ede131d38d4d8780884da55389a2a14b45d863ff8000801ba04917c8bc97062a7c42c1e4ad6a01f9428310dbfa877d8eb458fe152522598a7fa0134c4e5c7ce69fef77912f095b070403d04e131f36c4c546e2fc5876368b71aa",
      "networkId": 0,
      "chainId": 0
    },
    {
      "hash": "0x8e649fea6a515ea638c34956d3e88bf65b9fd0f46e891e34ff778b5d469e661c",
      "blockHash": "0x54e461a8121b141b5c36600d8d5daa8beb2905165296cd95f784843a197a5521",
      "blockNumber": 112472,
      "transactionIndex": 2,
      "confirmations": null,
      "from": "0x30853f0562c79055Fbd88CFFC01A109b346752ba",
      "gasPrice": {
        "_hex": "0xd7d40ace3"
      },
      "gasLimit": {
        "_hex": "0x7530"
      },
      "to": "0xa9f5E7bf6Cbf6fEc55B30850Eb492b47A376d050",
      "value": {
        "_hex": "0x34e8b88cee2d40000"
      },
      "nonce": 6,
      "data": "0x",
      "r": "0x6c5189eaffbff19c099acd3bc6e38cd7a87fd52e97f1ce38735ead37bc7a1cc2",
      "s": "0x7f9b1d354df4da715effbc5718b0657b444ba1e82ad07c56a8dcedb7f04e1f68",
      "v": 27,
      "creates": null,
      "raw": "0xf86d06850d7d40ace382753094a9f5e7bf6cbf6fec55b30850eb492b47a376d05089034e8b88cee2d40000801ba06c5189eaffbff19c099acd3bc6e38cd7a87fd52e97f1ce38735ead37bc7a1cc2a07f9b1d354df4da715effbc5718b0657b444ba1e82ad07c56a8dcedb7f04e1f68",
      "networkId": 0,
      "chainId": 0
    },
    {
      "hash": "0x33ba169c25a86eb5ab51143f3b7d53bffe72a82fd8033922cfa4caaa04d814b0",
      "blockHash": "0x54e461a8121b141b5c36600d8d5daa8beb2905165296cd95f784843a197a5521",
      "blockNumber": 112472,
      "transactionIndex": 3,
      "confirmations": null,
      "from": "0xa9f5E7bf6Cbf6fEc55B30850Eb492b47A376d050",
      "gasPrice": {
        "_hex": "0xd08449435"
      },
      "gasLimit": {
        "_hex": "0x5208"
      },
      "to": "0x32Be343B94f860124dC4fEe278FDCBD38C102D88",
      "value": {
        "_hex": "0x5bf077954dbc08000"
      },
      "nonce": 26,
      "data": "0x",
      "r": "0x7f2ec65797a4e736acf063fa261e8d1ce2e6a3f64855ac53c00eff8c973f7d76",
      "s": "0x7a67eb7749939ada849f9342e7e4e9892c3a0c8092992357d1492482f6f8f263",
      "v": 27,
      "creates": null,
      "raw": "0xf86d1a850d084494358252089432be343b94f860124dc4fee278fdcbd38c102d888905bf077954dbc08000801ba07f2ec65797a4e736acf063fa261e8d1ce2e6a3f64855ac53c00eff8c973f7d76a07a67eb7749939ada849f9342e7e4e9892c3a0c8092992357d1492482f6f8f263",
      "networkId": 0,
      "chainId": 0
    },
    {
      "hash": "0xfa265989b678d0deb5d9a36cecbccb51de8dffd131900b25443c3bf21311443c",
      "blockHash": "0x54e461a8121b141b5c36600d8d5daa8beb2905165296cd95f784843a197a5521",
      "blockNumber": 112472,
      "transactionIndex": 4,
      "confirmations": null,
      "from": "0x6BED894B45159c6001dfbC5bd6257A10B9eF2202",
      "gasPrice": {
        "_hex": "0xd06da5b5a"
      },
      "gasLimit": {
        "_hex": "0x15f90"
      },
      "to": "0xDa1d8D4c5fcF90F031f912409052224a15B83101",
      "value": {
        "_hex": "0x2386f26fc10000"
      },
      "nonce": 15,
      "data": "0x",
      "r": "0x5a748f3ed1f9dc5b67326b66af3d301cee9aaecef1f6dfbbc19abd4dd21711b9",
      "s": "0x29ef4bc62867ed4a1dd288af71042a5f2f3279c1f09bfc7f636761684f24dad1",
      "v": 28,
      "creates": null,
      "raw": "0xf86c0f850d06da5b5a83015f9094da1d8d4c5fcf90f031f912409052224a15b83101872386f26fc10000801ca05a748f3ed1f9dc5b67326b66af3d301cee9aaecef1f6dfbbc19abd4dd21711b9a029ef4bc62867ed4a1dd288af71042a5f2f3279c1f09bfc7f636761684f24dad1",
      "networkId": 0,
      "chainId": 0
    }
  ]
}