{
  "hash": "0x5d6b197060218afd724d442df021758606f197d529e7723a4be28ba467443d91",
  "parentHash": "0x209f70dbb07a6de3dbe16da4c5aa2775d5e60d850f01bef49b9fccdff96d2680",
  "number": 83939,
  "timestamp": 1439542868,
  "nonce": "0x08838fb44275731b",
  "difficulty": 2476717468422,
  "gasLimit": {
    "_hex": "0x2fefd8"
  },
  "gasUsed": {
    "_hex": "0x5208"
  },
  "miner": "0xe6A7a1d47ff21B6321162AEA7C6CB457D5476Bca",
  "extraData": "0x476574682f76312e302e312d38326566323666362f6c696e75782f676f312e34",
  "transactions": [
    {
      "hash": "0xf5216391a64d34339af946f57f8e96308930809c637ab662d0809ff9a805e4c8",
      "blockHash": "0x5d6b197060218afd724d442df021758606f197d529e7723a4be28ba467443d91",
      "blockNumber": 83939,
      "transactionIndex": 0,
      "confirmations": null,
      "from": "0xf48313D6892f75dCb41dFdf48901C9cb9B146ac8",
      "gasPrice": {
        "_hex": "0xd362c7f73"
      },
      "gasLimit": {
        "_hex": "0x5208"
      },
      "to": "0xe043F7B6fc487e0Ad927C9bEcd1D586F30eE1639",
      "value": {
        "_hex": "0x18a59e972118000"
      },
      "nonce": 1,
      "data": "0x",
      "r": "0x79dc0809d6c5cefdca076a374538cb693a8695ec508aa4b82c8368a18bf84d39",
      "s": "0x2e4b45ec4647dccf80d4972c0a22792a46b36dbc581e36ca3998404f4c008a7f",
      "v": 28,
      "creates": null,
      "raw": "0xf86c01850d362c7f7382520894e043f7b6fc487e0ad927c9becd1d586f30ee163988018a59e972118000801ca079dc0809d6c5cefdca076a374538cb693a8695ec508aa4b82c8368a18bf84d39a02e4b45ec4647dccf80d4972c0a22792a46b36dbc581e36ca3998404f4c008a7f",
      "networkId": 0,
      "chainId": 0
    }
  ]
}