{
  "hash": "0x66a94a30aef4d4dbd1bf9903c8a8b25ea3e98349ba7123ac874e91d33a88f20f",
  "parentHash": "0x20d1928c3413a3e672e327f695953e9e20298aec6a57f25f7fa34e0cda36106c",
  "number": 65133,
  "timestamp": 1439231891,
  "nonce": "0xf235ba973b3e1e80",
  "difficulty": 1929426459041,
  "gasLimit": {
    "_hex": "0x2fefd8"
  },
  "gasUsed": {
    "_hex": "0xa674"
  },
  "miner": "0xde8B4cca204F866220e8e25817668Cd44a5fee88",
  "extraData": "0x",
  "transactions": [
    {
      "hash": "0x1826941563abec66b6bb16fb15e9c45f7802adbccebf4355c856d92b4e1ccac5",
      "blockHash": "0x66a94a30aef4d4dbd1bf9903c8a8b25ea3e98349ba7123ac874e91d33a88f20f",
      "blockNumber": 65133,
      "transactionIndex": 0,
      "confirmations": null,
      "from": "0xa914cDb571BFd93D64da66a4e108EA134e50D000",
      "gasPrice": {
        "_hex": "0x9184e72a000"
      },
      "gasLimit": {
        "_hex": "0x55f0"
      },
      "to": "0x2910543Af39abA0Cd09dBb2D50200b3E800A63D2",
      "value": {
        "_hex": "0x16345785d8a0000"
      },
      "nonce": 12,
      "data": "0x454e43523838455252",
      "r": "0x46c0445f1d547e0cb69a4a1c58c251ca38f9e075076690998a6b56429faa86a2",
      "s": "0x51d99b1e404e08a0f5685ddc043f7ab1a6b747dff8b077785c88b7e0d1e5c3be",
      "v": 27,
      "creates": null,
      "raw": "0xf8760c8609184e72a0008255f0942910543af39aba0cd09dbb2d50200b3e800a63d288016345785d8a000089454e435238384552521ba046c0445f1d547e0cb69a4a1c58c251ca38f9e075076690998a6b56429faa86a2a051d99b1e404e08a0f5685ddc043f7ab1a6b747dff8b077785c88b7e0d1e5c3be",
      "networkId": 0,
      "chainId": 0
    },
    {
      "hash": "0xc456c466aec9deef9415b79ae254b47a3e47cbe3ea2c24659b00fe34cea55701",
      "blockHash": "0x66a94a30aef4d4dbd1bf9903c8a8b25ea3e98349ba7123ac874e91d33a88f20f",
      "blockNumber": 65133,
      "transactionIndex": 1,
      "confirmations": null,
      "from": "0x9140266a7c090E147eD91fbeFA4629f7a3829272",
      "gasPrice": {
        "_hex": "0xba43b7400"
      },
      "gasLimit": {
        "_hex": "0x5208"
      },
      "to": "0xa07fb9E0d471c1e5c322BA6f68fD5821cf77839a",
      "value": {
        "_hex": "0x501377027350000"
      },
      "nonce": 1,
      "data": "0x",
      "r": "0x7df982b61ff44b8e87fe240afefad66386210b0e1b86c1ba7dbd40aa18cb38b3",
      "s": "0x51f328bca1f9a505579009ca46d0ba5f5615c02209816e1524aabb0dd52953b8",
      "v": 27,
      "creates": null,
      "raw": "0xf86c01850ba43b740082520894a07fb9e0d471c1e5c322ba6f68fd5821cf77839a880501377027350000801ba07df982b61ff44b8e87fe240afefad66386210b0e1b86c1ba7dbd40aa18cb38b3a051f328bca1f9a505579009ca46d0ba5f5615c02209816e1524aabb0dd52953b8",
      "networkId": 0,
      "chainId": 0
    }
  ]
}