{
  "hash": "0x6323b368e26a7f2717da47fc6d243297b2bae9e14b23d7d3e9c67e2fee5bee1f",
  "parentHash": "0xea6b80f3e72e2af5a1b91b9068775c4a183fef86d7aa2c2d476df5906751feeb",
  "number": 60845,
  "timestamp": 1439162629,
  "nonce": "0xd1ff5ce9e18a6fdd",
  "difficulty": 1732101672381,
  "gasLimit": {
    "_hex": "0x2fefd8"
  },
  "gasUsed": {
    "_hex": "0x5898"
  },
  "miner": "0xbb7B8287f3F0a933474a79eAe42CBCa977791171",
  "extraData": "0x476574682f4c5649562f76312e302e312f6c696e75782f676f312e342e32",
  "transactions": [
    {
      "hash": "0x026b11288deb0cf2cc88754d1a5100ae391c6da51a3701c099da1f63c2235d74",
      "blockHash": "0x6323b368e26a7f2717da47fc6d243297b2bae9e14b23d7d3e9c67e2fee5bee1f",
      "blockNumber": 60845,
      "transactionIndex": 0,
      "confirmations": null,
      "from": "0x339314EDFad76e605EF2502a570aF26fC1ccd8A8",
      "gasPrice": {
        "_hex": "0x9184e72a000"
      },
      "gasLimit": {
        "_hex": "0x9965e"
      },
      "to": "0x21A3A128968F7FD17eB0A16045A84769374aeAE0",
      "value": {
        "_hex": "0x0"
      },
      "nonce": 3,
      "data": "0x2f54bf6e00000000000000000000000042c56279432962a17176998a4747d1b4d6ed4367",
      "r": "0x9a871515c71fc3444b67630436272e0db137246bcf720e3a4c803e0e4fe16313",
      "s": "0x4993072525d90cc47a6f03395de43bcdee64cd0cb757e440723a6a0704925e32",
      "v": 28,
      "creates": null,
      "raw": "0xf88a038609184e72a0008309965e9421a3a128968f7fd17eb0a16045a84769374aeae080a42f54bf6e00000000000000000000000042c56279432962a17176998a4747d1b4d6ed43671ca09a871515c71fc3444b67630436272e0db137246bcf720e3a4c803e0e4fe16313a04993072525d90cc47a6f03395de43bcdee64cd0cb757e440723a6a0704925e32",
      "networkId": 0,
      "chainId": 0
    }
  ]
}