{
  "hash": "0x1505bad61f71ea10bd3dd4c7f371885741641103062bef4b1421044a4901e1a5",
  "parentHash": "0xa01cbef2bd41ddc5af8c09d05a9d700f2dc6efc991cfd26b1298cce5e1fb0ab1",
  "number": 68973,
  "timestamp": 1439296544,
  "nonce": "0xc01d557708fce6a9",
  "difficulty": 2030988946400,
  "gasLimit": {
    "_hex": "0x2fefd8"
  },
  "gasUsed": {
    "_hex": "0x12ea94"
  },
  "miner": "0xe6A7a1d47ff21B6321162AEA7C6CB457D5476Bca",
  "extraData": "0x476574682f76312e302e312d38326566323666362f6c696e75782f676f312e34",
  "transactions": [
    {
      "hash": "0xd899a288289e0e043137d18879512cfb0ecbfa18c25b3e45b4e108282b590fd8",
      "blockHash": "0x1505bad61f71ea10bd3dd4c7f371885741641103062bef4b1421044a4901e1a5",
      "blockNumber": 68973,
      "transactionIndex": 0,
      "confirmations": null,
      "from": "0x120A270bbC009644e35F0bB6ab13f95b8199c4ad",
      "gasPrice": {
        "_hex": "0xd18cab6ab"
      },
      "gasLimit": {
        "_hex": "0x15f90"
      },
      "to": "0x63116ca569ba01384f4B68C196f4745cf45C7d11",
      "value": {
        "_hex": "0x14502366f66dc8bc00"
      },
      "nonce": 173,
      "data": "0x",
      "r": "0x6db54ce00bbd4cf6945cecabc8897457a3c6a8858de7719117bfd9ac041a7cca",
      "s": "0x59498c3e01e57280326dc65b63848aa5b866b9bc20337f818f635a7b0825eebe",
      "v": 28,
      "creates": null,
      "raw": "0xf86f81ad850d18cab6ab83015f909463116ca569ba01384f4b68c196f4745cf45c7d118914502366f66dc8bc00801ca06db54ce00bbd4cf6945cecabc8897457a3c6a8858de7719117bfd9ac041a7ccaa059498c3e01e57280326dc65b63848aa5b866b9bc20337f818f635a7b0825eebe",
      "networkId": 0,
      "chainId": 0
    },
    {
      "hash": "0xabec3852dc842c95f6514ceb7518d9e229408e6298f7258ee328a65b058ecb82",
      "blockHash": "0x1505bad61f71ea10bd3dd4c7f371885741641103062bef4b1421044a4901e1a5",
      "blockNumber": 68973,
      "transactionIndex": 1,
      "confirmations": null,
      "from": "0x6Da99D6160C17494af9443fe437a94759a1fcd9D",
      "gasPrice": {
        "_hex": "0xba43b7400"
      },
      "gasLimit": {
        "_hex": "0x15f90"
      },
      "to": "0x793AE8C1b1a160BFc07BFB0d04F85eab1A71F4f2",
      "value": {
        "_hex": "0x0"
      },
      "nonce": 0,
      "data": "0x3ba15036",
      "r": "0x77f09a8cc4c9cbaf79d6baecb53edca9bbc47fde2562968bece777428219adfd",
      "s": "0x691ad4bdb8df6ba74c06d56569ea311ddfbfe379b9b6f9beab0ed2f3310adb64",
      "v": 28,
      "creates": null,
      "raw": "0xf86980850ba43b740083015f9094793ae8c1b1a160bfc07bfb0d04f85eab1a71f4f280843ba150361ca077f09a8cc4c9cbaf79d6baecb53edca9bbc47fde2562968bece777428219adfda0691ad4bdb8df6ba74c06d56569ea311ddfbfe379b9b6f9beab0ed2f3310adb64",
      "networkId": 0,
      "chainId": 0
    },
    {
      "hash": "0x9bab6e366c4ce5f4646fb0f171c55b9ef01b60a1646843aab2b5fad49ea6a0e6",
      "blockHash": "0x1505bad61f71ea10bd3dd4c7f371885741641103062bef4b1421044a4901e1a5",
      "blockNumber": 68973,
      "transactionIndex": 2,
      "confirmations": null,
      "from": "0xc31E518A72a799F7a1203642060ba94FBc0d731f",
      "gasPrice": {
        "_hex": "0xba43b7400"
      },
      "gasLimit": {
        "_hex": "0x15f90"
      },
      "to": "0x793AE8C1b1a160BFc07BFB0d04F85eab1A71F4f2",
      "value": {
        "_hex": "0x0"
      },
      "nonce": 0,
      "data": "0x3ba15036",
      "r": "0x2403eebd9055fa11d8a60c8e16982b264c39e2134a77813dc08ccc4fe877a8e5",
      "s": "0x7dd316f2d5395486e82f4c96818cc6fe566c1fb3082b5ac2c7f74972cd3618cf",
      "v": 28,
      "creates": null,
      "raw": "0xf86980850ba43b740083015f9094793ae8c1b1a160bfc07bfb0d04f85eab1a71f4f280843ba150361ca02403eebd9055fa11d8a60c8e16982b264c39e2134a77813dc08ccc4fe877a8e5a07dd316f2d5395486e82f4c96818cc6fe566c1fb3082b5ac2c7f74972cd3618cf",
      "networkId": 0,
      "chainId": 0
    },
    {
      "hash": "0x341ddd3ceec486a515b20a4a26e810f40d2cf6266fcc0c3e1c6309d3063ec6f2",
      "blockHash": "0x1505bad61f71ea10bd3dd4c7f371885741641103062bef4b1421044a4901e1a5",
      "blockNumber": 68973,
      "transactionIndex": 3,
      "confirmations": null,
      "from": "0x9E23cFdb3216bCE5bec08C44105d095B042e68C3",
      "gasPrice": {
        "_hex": "0xba43b7400"
      },
      "gasLimit": {
        "_hex": "0x15f90"
      },
      "to": "0x793AE8C1b1a160BFc07BFB0d04F85eab1A71F4f2",
      "value": {
        "_hex": "0x0"
      },
      "nonce": 0,
      "data": "0x3ba15036",
      "r": "0x9d91582c629d7a24599defdf27091193c52b14b4ec197e898a469292bdeca687",
      "s": "0x47426a254a7f2e1b2ca3f864647ca8d6e307996bbaeaffb9b3fa6d3b59684f16",
      "v": 27,
      "creates": null,
      "raw": "0xf86980850ba43b740083015f9094793ae8c1b1a160bfc07bfb0d04f85eab1a71f4f280843ba150361ba09d91582c629d7a24599defdf27091193c52b14b4ec197e898a469292bdeca687a047426a254a7f2e1b2ca3f864647ca8d6e307996bbaeaffb9b3fa6d3b59684f16",
      "networkId": 0,
      "chainId": 0
    },
    {
      "hash": "0x0caaadaad784481dcde3a706be19cd4fd88a11ca9786ea69a27e139f842d6a66",
      "blockHash": "0x1505bad61f71ea10bd3dd4c7f371885741641103062bef4b1421044a4901e1a5",
      "blockNumber": 68973,
      "transactionIndex": 4,
      "confirmations": null,
      "from": "0x0F6DA8d2472738987d61f6Af63dA8089675bfC3f",
      "gasPrice": {
        "_hex": "0xba43b7400"
      },
      "gasLimit": {
        "_hex": "0x15f90"
      },
      "to": "0x793AE8C1b1a160BFc07BFB0d04F85eab1A71F4f2",
      "value": {
        "_hex": "0x0"
      },
      "nonce": 0,
      "data": "0x3ba15036",
      "r": "0xa0911ce30e55c856c6d329c50a41cd3ba2bf0e8486f80298cd075028e7a02436",
      "s": "0x3265cfb619e4012e7018eeee29488c6f1aad1fafe0d566f121ca8b1e4692bfa5",
      "v": 28,
      "creates": null,
      "raw": "0xf86980850ba43b740083015f9094793ae8c1b1a160bfc07bfb0d04f85eab1a71f4f280843ba150361ca0a0911ce30e55c856c6d329c50a41cd3ba2bf0e8486f80298cd075028e7a02436a03265cfb619e4012e7018eeee29488c6f1aad1fafe0d566f121ca8b1e4692bfa5",
      "networkId": 0,
      "chainId": 0
    },
    {
      "hash": "0xb50f638906f0f8989fd490ac33893a892c90411f8d5cbd6f69ce21b3b932bdc3",
      "blockHash": "0x1505bad61f71ea10bd3dd4c7f371885741641103062bef4b1421044a4901e1a5",
      "blockNumber": 68973,
      "transactionIndex": 5,
      "confirmations": null,
      "from": "0xCFA5AF0DC5F71d251275c54CEEDe67ff0546e7C6",
      "gasPrice": {
        "_hex": "0xba43b7400"
      },
      "gasLimit": {
        "_hex": "0x15f90"
      },
      "to": "0x793AE8C1b1a160BFc07BFB0d04F85eab1A71F4f2",
      "value": {
        "_hex": "0x0"
      },
      "nonce": 0,
      "data": "0x3ba15036",
      "r": "0x305ca8763cd6472275e34df005d4081dd52b8536671128fa85f143cf6b28d563",
      "s": "0x0e5ee21d9481a428e85817dd04bc29779d5df77545eb94808552a3f7d487307f",
      "v": 27,
      "creates": null,
      "raw": "0xf86980850ba43b740083015f9094793ae8c1b1a160bfc07bfb0d04f85eab1a71f4f280843ba150361ba0305ca8763cd6472275e34df005d4081dd52b8536671128fa85f143cf6b28d563a00e5ee21d9481a428e85817dd04bc29779d5df77545eb94808552a3f7d487307f",
      "networkId": 0,
      "chainId": 0
    },
    {
      "hash": "0x1118a986382127dba8b60d8d2c0355f9279f2193edb7ee3a181d301969ef90d4",
      "blockHash": "0x1505bad61f71ea10bd3dd4c7f371885741641103062bef4b1421044a4901e1a5",
      "blockNumber": 68973,
      "transactionIndex": 6,
      "confirmations": null,
      "from": "0xE7367Af47E7A4370A939c4fc0710D0446Fd14052",
      "gasPrice": {
        "_hex": "0xba43b7400"
      },
      "gasLimit": {
        "_hex": "0x15f90"
      },
      "to": "0x793AE8C1b1a160BFc07BFB0d04F85eab1A71F4f2",
      "value": {
        "_hex": "0x0"
      },
      "nonce": 0,
      "data": "0x3ba15036",
      "r": "0xa4fb9fe5a4833d5cd998e58c6ffbe6273d9d8d702ce840e3279ad902b50254b1",
      "s": "0x71ab1ca01b559fa8308007de3b7f042484c5c45d0374715675f42efeeb876b39",
      "v": 28,
      "creates": null,
      "raw": "0xf86980850ba43b740083015f9094793ae8c1b1a160bfc07bfb0d04f85eab1a71f4f280843ba150361ca0a4fb9fe5a4833d5cd998e58c6ffbe6273d9d8d702ce840e3279ad902b50254b1a071ab1ca01b559fa8308007de3b7f042484c5c45d0374715675f42efeeb876b39",
      "networkId": 0,
      "chainId": 0
    },
    {
      "hash": "0x679ba42e128df4e78da4e67cd39ae32547f073860d8148f7a56d733fad362193",
      "blockHash": "0x1505bad61f71ea10bd3dd4c7f371885741641103062bef4b1421044a4901e1a5",
      "blockNumber": 68973,
      "transactionIndex": 7,
      "confirmations": null,
      "from": "0xBFa1B37b785817f9a5b55106931F4343b10D982B",
      "gasPrice": {
        "_hex": "0xba43b7400"
      },
      "gasLimit": {
        "_hex": "0x15f90"
      },
      "to": "0x793AE8C1b1a160BFc07BFB0d04F85eab1A71F4f2",
      "value": {
        "_hex": "0x0"
      },
      "nonce": 0,
      "data": "0x3ba15036",
      "r": "0xc9d61da7ffe67c08781615b4a663bc767fc0036ba120117c3331248f9b4a9ca8",
      "s": "0x2776eed5326dae52a5a6a6c6eb235e202040d0da421390fe0b2de2bc68d6f096",
      "v": 27,
      "creates": null,
      "raw": "0xf86980850ba43b740083015f9094793ae8c1b1a160bfc07bfb0d04f85eab1a71f4f280843ba150361ba0c9d61da7ffe67c08781615b4a663bc767fc0036ba120117c3331248f9b4a9ca8a02776eed5326dae52a5a6a6c6eb235e202040d0da421390fe0b2de2bc68d6f096",
      "networkId": 0,
      "chainId": 0
    },
    {
      "hash": "0x63e66dea2db4b05bea5c2d8b9500cace81fae22c20b46c22a95376420badd3ec",
      "blockHash": "0x1505bad61f71ea10bd3dd4c7f371885741641103062bef4b1421044a4901e1a5",
      "blockNumber": 68973,
      "transactionIndex": 8,
      "confirmations": null,
      "from": "0x29539dfB246bb1eb36757774f3Ee9D2C314B5004",
      "gasPrice": {
        "_hex": "0xba43b7400"
      },
      "gasLimit": {
        "_hex": "0x15f90"
      },
      "to": "0x793AE8C1b1a160BFc07BFB0d04F85eab1A71F4f2",
      "value": {
        "_hex": "0x0"
      },
      "nonce": 0,
      "data": "0x3ba15036",
      "r": "0x2199abba9aab1c6f5b3a1a8fdb6d4bf2a6a74693559c3dd05bb945fec7a8a876",
      "s": "0x7fcd68b2d69eb0f6975eeaef8058af7f7f13761bf76e278dfe40a422c1f0ab34",
      "v": 27,
      "creates": null,
      "raw": "0xf86980850ba43b740083015f9094793ae8c1b1a160bfc07bfb0d04f85eab1a71f4f280843ba150361ba02199abba9aab1c6f5b3a1a8fdb6d4bf2a6a74693559c3dd05bb945fec7a8a876a07fcd68b2d69eb0f6975eeaef8058af7f7f13761bf76e278dfe40a422c1f0ab34",
      "networkId": 0,
      "chainId": 0
    },
    {
      "hash": "0x4add1c101e46be2de9a9bb0756157c3d28a5148f7ba7e5882a13a0f2ba43a069",
      "blockHash": "0x1505bad61f71ea10bd3dd4c7f371885741641103062bef4b1421044a4901e1a5",
      "blockNumber": 68973,
      "transactionIndex": 9,
      "confirmations": null,
      "from": "0x61a43802bc9029e595983d935e08A526AD614C83",
      "gasPrice": {
        "_hex": "0xba43b7400"
      },
      "gasLimit": {
        "_hex": "0x15f90"
      },
      "to": "0x793AE8C1b1a160BFc07BFB0d04F85eab1A71F4f2",
      "value": {
        "_hex": "0x0"
      },
      "nonce": 0,
      "data": "0x3ba15036",
      "r": "0x52958d92d8f20ec0aec26ba72607a96ecdbf6aa2ba30995198d35b4fcc0819ba",
      "s": "0x790e2b670db7dedcbde0ef6964600d06c5e91ffa5fba98b8021fbc398739b113",
      "v": 28,
      "creates": null,
      "raw": "0xf86980850ba43b740083015f9094793ae8c1b1a160bfc07bfb0d04f85eab1a71f4f280843ba150361ca052958d92d8f20ec0aec26ba72607a96ecdbf6aa2ba30995198d35b4fcc0819baa0790e2b670db7dedcbde0ef6964600d06c5e91ffa5fba98b8021fbc398739b113",
      "networkId": 0,
      "chainId": 0
    },
    {
      "hash": "0x1dc002b72f224316e6c98563324bb2be00a38f7a654d98c68bc5565f655127de",
      "blockHash": "0x1505bad61f71ea10bd3dd4c7f371885741641103062bef4b1421044a4901e1a5",
      "blockNumber": 68973,
      "transactionIndex": 10,
      "confirmations": null,
      "from": "0x78642b5feC6782eB4E476d205ab522d356d221AB",
      "gasPrice": {
        "_hex": "0xba43b7400"
      },
      "gasLimit": {
        "_hex": "0x15f90"
      },
      "to": "0x793AE8C1b1a160BFc07BFB0d04F85eab1A71F4f2",
      "value": {
        "_hex": "0x0"
      },
      "nonce": 0,
      "data": "0x3ba15036",
      "r": "0xb2896c68770d61e97a71bc30b554aeec53267c33ba95daf3d900eff01d942188",
      "s": "0x101eaf0c1d59efe1946de474ffda28f7436c267092c208aad57e77d2ed2d9863",
      "v": 27,
      "creates": null,
      "raw": "0xf86980850ba43b740083015f9094793ae8c1b1a160bfc07bfb0d04f85eab1a71f4f280843ba150361ba0b2896c68770d61e97a71bc30b554aeec53267c33ba95daf3d900eff01d942188a0101eaf0c1d59efe1946de474ffda28f7436c267092c208aad57e77d2ed2d9863",
      "networkId": 0,
      "chainId": 0
    },
    {
      "hash": "0x37beb029e0f8f4e904732dd326e018111a78679ed1cceca03a9a1a941a7d987a",
      "blockHash": "0x1505bad61f71ea10bd3dd4c7f371885741641103062bef4b1421044a4901e1a5",
      "blockNumber": 68973,
      "transactionIndex": 11,
      "confirmations": null,
      "from": "0xD20a98E6Eb1b2B59D236BB9d251DB10C8E393Bb1",
      "gasPrice": {
        "_hex": "0xba43b7400"
      },
      "gasLimit": {
        "_hex": "0x15f90"
      },
      "to": "0x793AE8C1b1a160BFc07BFB0d04F85eab1A71F4f2",
      "value": {
        "_hex": "0x0"
      },
      "nonce": 0,
      "data": "0x3ba15036",
      "r": "0x8a9521c7d333e2311b6530e287d4c16260fdce1fce14f891265cfcbef05a12d5",
      "s": "0x1a52d0360935190f0b098a6c709ac87b111df0bcd910e1cfe550bb1300de23a1",
      "v": 27,
      "creates": null,
      "raw": "0xf86980850ba43b740083015f9094793ae8c1b1a160bfc07bfb0d04f85eab1a71f4f280843ba150361ba08a9521c7d333e2311b6530e287d4c16260fdce1fce14f891265cfcbef05a12d5a01a52d0360935190f0b098a6c709ac87b111df0bcd910e1cfe550bb1300de23a1",
      "networkId": 0,
      "chainId": 0
    },
    {
      "hash": "0xf796692325212e795578917dfcd6b525cbad7aef63eb4d1a65b9719a0afa0a9d",
      "blockHash": "0x1505bad61f71ea10bd3dd4c7f371885741641103062bef4b1421044a4901e1a5",
      "blockNumber": 68973,
      "transactionIndex": 12,
      "confirmations": null,
      "from": "0xf30934107CEa241eD53C99fE1182bC6d91DF2998",
      "gasPrice": {
        "_hex": "0xba43b7400"
      },
      "gasLimit": {
        "_hex": "0x15f90"
      },
      "to": "0x793AE8C1b1a160BFc07BFB0d04F85eab1A71F4f2",
      "value": {
        "_hex": "0x0"
      },
      "nonce": 0,
      "data": "0x3ba15036",
      "r": "0x148978421f742555092f5ba87c15162ed112760ddc1542004c916b077c34449d",
      "s": "0x65a0bb11928de2a203ded8bf261c13cddaa72a05e18884df4ad68145493000a2",
      "v": 27,
      "creates": null,
      "raw": "0xf86980850ba43b740083015f9094793ae8c1b1a160bfc07bfb0d04f85eab1a71f4f280843ba150361ba0148978421f742555092f5ba87c15162ed112760ddc1542004c916b077c34449da065a0bb11928de2a203ded8bf261c13cddaa72a05e18884df4ad68145493000a2",
      "networkId": 0,
      "chainId": 0
    },
    {
      "hash": "0xd7bd440b8f777b61fc02773f18f6e12f8861a3979f06fef5dce11d9099cdf6b1",
      "blockHash": "0x1505bad61f71ea10bd3dd4c7f371885741641103062bef4b1421044a4901e1a5",
      "blockNumber": 68973,
      "transactionIndex": 13,
      "confirmations": null,
      "from": "0x64E42823adC302ed9E2223D8B9F0048dA63BD351",
      "gasPrice": {
        "_hex": "0xba43b7400"
      },
      "gasLimit": {
        "_hex": "0x15f90"
      },
      "to": "0x793AE8C1b1a160BFc07BFB0d04F85eab1A71F4f2",
      "value": {
        "_hex": "0x0"
      },
      "nonce": 0,
      "data": "0x3ba15036",
      "r": "0x6b27aad69fc322b1d6516d735e36feb6196aa95ae5e6984d95e0d3a68ff979b6",
      "s": "0x496e5f5b38470043c23a4092db817f96c1beddb471257b2001f093cdc112d5de",
      "v": 27,
      "creates": null,
      "raw": "0xf86980850ba43b740083015f9094793ae8c1b1a160bfc07bfb0d04f85eab1a71f4f280843ba150361ba06b27aad69fc322b1d6516d735e36feb6196aa95ae5e6984d95e0d3a68ff979b6a0496e5f5b38470043c23a4092db817f96c1beddb471257b2001f093cdc112d5de",
      "networkId": 0,
      "chainId": 0
    },
    {
      "hash": "0x9b9794a2b762370b8ca2f0215252f6d3b616155ae03b9208414d8125b1842402",
      "blockHash": "0x1505bad61f71ea10bd3dd4c7f371885741641103062bef4b1421044a4901e1a5",
      "blockNumber": 68973,
      "transactionIndex": 14,
      "confirmations": null,
      "from": "0xd0B2A5dEA8Ef2c7A8E0E5c3AbAed322E2E3d2958",
      "gasPrice": {
        "_hex": "0xba43b7400"
      },
      "gasLimit": {
        "_hex": "0x15f90"
      },
      "to": "0x793AE8C1b1a160BFc07BFB0d04F85eab1A71F4f2",
      "value": {
        "_hex": "0x0"
      },
      "nonce": 0,
      "data": "0x3ba15036",
      "r": "0xbcce850be0594ed7ae28807bdc0c2286841cbefd8d48bcfdbf898f082e6c9a9c",
      "s": "0x30fcda4bdc4329f7d1af9b7db3d07569a48387906013c352c6ee2ce0712ea370",
      "v": 27,
      "creates": null,
      "raw": "0xf86980850ba43b740083015f9094793ae8c1b1a160bfc07bfb0d04f85eab1a71f4f280843ba150361ba0bcce850be0594ed7ae28807bdc0c2286841cbefd8d48bcfdbf898f082e6c9a9ca030fcda4bdc4329f7d1af9b7db3d07569a48387906013c352c6ee2ce0712ea370",
      "networkId": 0,
      "chainId": 0
    },
    {
      "hash": "0xc2bc816cacf7a667570496ededb28d17da60d8e6d200d759ea781f445b58f624",
      "blockHash": "0x1505bad61f71ea10bd3dd4c7f371885741641103062bef4b1421044a4901e1a5",
      "blockNumber": 68973,
      "transactionIndex": 15,
      "confirmations": null,
      "from": "0x0F8f418Fe322dC50bA2B05Bab96Bddf6fB50C87D",
      "gasPrice": {
        "_hex": "0xba43b7400"
      },
      "gasLimit": {
        "_hex": "0x15f90"
      },
      "to": "0x793AE8C1b1a160BFc07BFB0d04F85eab1A71F4f2",
      "value": {
        "_hex": "0x0"
      },
      "nonce": 0,
      "data": "0x3ba15036",
      "r": "0x7d124191534e489a615cc25c1edd8a06d3b8a2dbba4486d81299fcf3c3620ae7",
      "s": "0x158a27fef9a8b9cb30aee8e15a67dc8f96d4265992beee6c820a8c64852f40de",
      "v": 28,
      "creates": null,
      "raw": "0xf86980850ba43b740083015f9094793ae8c1b1a160bfc07bfb0d04f85eab1a71f4f280843ba150361ca07d124191534e489a615cc25c1edd8a06d3b8a2dbba4486d81299fcf3c3620ae7a0158a27fef9a8b9cb30aee8e15a67dc8f96d4265992beee6c820a8c64852f40de",
      "networkId": 0,
      "chainId": 0
    },
    {
      "hash": "0xf420f50c95f8e0f40d6fe754d1594e6af8e26f801ad55a5c0f6df565b1f5a9ca",
      "blockHash": "0x1505bad61f71ea10bd3dd4c7f371885741641103062bef4b1421044a4901e1a5",
      "blockNumber": 68973,
      "transactionIndex": 16,
      "confirmations": null,
      "from": "0x9ABe975A69E69c24010BFE44776fae940d087B48",
      "gasPrice": {
        "_hex": "0xba43b7400"
      },
      "gasLimit": {
        "_hex": "0x15f90"
      },
      "to": "0x793AE8C1b1a160BFc07BFB0d04F85eab1A71F4f2",
      "value": {
        "_hex": "0x0"
      },
      "nonce": 0,
      "data": "0x3ba15036",
      "r": "0x0228e3c4f65cd7a35e18eb4d6783578e0d1dbb2a4d05887caae51904294339c8",
      "s": "0x5f1f13e04f42e3481166938acf59badbf9bcbb257c33b633a8bd7fa98ecca22c",
      "v": 27,
      "creates": null,
      "raw": "0xf86980850ba43b740083015f9094793ae8c1b1a160bfc07bfb0d04f85eab1a71f4f280843ba150361ba00228e3c4f65cd7a35e18eb4d6783578e0d1dbb2a4d05887caae51904294339c8a05f1f13e04f42e3481166938acf59badbf9bcbb257c33b633a8bd7fa98ecca22c",
      "networkId": 0,
      "chainId": 0
    },
    {
      "hash": "0xebbbb6eaeb76fd7fe018f4c2ebadfa22f908a62e5f41e30f960dd2dd759bf6d5",
      "blockHash": "0x1505bad61f71ea10bd3dd4c7f371885741641103062bef4b1421044a4901e1a5",
      "blockNumber": 68973,
      "transactionIndex": 17,
      "confirmations": null,
      "from": "0x2a06b1ef853457d418458531A737B305A6B1fCba",
      "gasPrice": {
        "_hex": "0xba43b7400"
      },
      "gasLimit": {
        "_hex": "0x15f90"
      },
      "to": "0x793AE8C1b1a160BFc07BFB0d04F85eab1A71F4f2",
      "value": {
        "_hex": "0x0"
      },
      "nonce": 0,
      "data": "0x3ba15036",
      "r": "0x4ee5114fe8b59fe6280772961650241377f789f8eb1aea8c0672fc13123c5fa0",
      "s": "0x2ddb46dc012b3d2963834b1c1cc8105bd1b8e858d2b8f2a137aabe75beee9be2",
      "v": 28,
      "creates": null,
      "raw": "0xf86980850ba43b740083015f9094793ae8c1b1a160bfc07bfb0d04f85eab1a71f4f280843ba150361ca04ee5114fe8b59fe6280772961650241377f789f8eb1aea8c0672fc13123c5fa0a02ddb46dc012b3d2963834b1c1cc8105bd1b8e858d2b8f2a137aabe75beee9be2",
      "networkId": 0,
      "chainId": 0
    },
    {
      "hash": "0x47475d7500ee21a72e5d2fc6f7e6e275d0d696ee0c3c8522796987e6033be801",
      "blockHash": "0x1505bad61f71ea10bd3dd4c7f371885741641103062bef4b1421044a4901e1a5",
      "blockNumber": 68973,
      "transactionIndex": 18,
      "confirmations": null,
      "from": "0x916FB333E17530E2CA4EEE8816703D2024Ec48aC",
      "gasPrice": {
        "_hex": "0xba43b7400"
      },
      "gasLimit": {
        "_hex": "0x15f90"
      },
      "to": "0x793AE8C1b1a160BFc07BFB0d04F85eab1A71F4f2",
      "value": {
        "_hex": "0x0"
      },
      "nonce": 0,
      "data": "0x3ba15036",
      "r": "0x6dcfc928df01723b2b890b9e847dc366383147d9995bedc9e282ba2a72268f01",
      "s": "0x71266e722db5314c07cddf71f17b77146a58f65ddcac327b27a9ed2fb974e2cb",
      "v": 28,
      "creates": null,
      "raw": "0xf86980850ba43b740083015f9094793ae8c1b1a160bfc07bfb0d04f85eab1a71f4f280843ba150361ca06dcfc928df01723b2b890b9e847dc366383147d9995bedc9e282ba2a72268f01a071266e722db5314c07cddf71f17b77146a58f65ddcac327b27a9ed2fb974e2cb",
      "networkId": 0,
      "chainId": 0
    },
    {
      "hash": "0xe1d0fc8c1b994f323d34a1b92ac0f4fbeba494268abf000db69ebffb28a59898",
      "blockHash": "0x1505bad61f71ea10bd3dd4c7f371885741641103062bef4b1421044a4901e1a5",
      "blockNumber": 68973,
      "transactionIndex": 19,
      "confirmations": null,
      "from": "0xaD2413b4E79D9c17fdA506602fFC7ea38510ab55",
      "gasPrice": {
        "_hex": "0xba43b7400"
      },
      "gasLimit": {
        "_hex": "0x15f90"
      },
      "to": "0x793AE8C1b1a160BFc07BFB0d04F85eab1A71F4f2",
      "value": {
        "_hex": "0x0"
      },
      "nonce": 0,
      "data": "0x3ba15036",
      "r": "0x2267d828ac8521ad419dac1ca5646f68ac8b194d0fdf298633828399af51b62c",
      "s": "0x416275f99e73e6ce7928bfb5afcbe130e7d09c576ea5f83514119e73562f2842",
      "v": 28,
      "creates": null,
      "raw": "0xf86980850ba43b740083015f9094793ae8c1b1a160bfc07bfb0d04f85eab1a71f4f280843ba150361ca02267d828ac8521ad419dac1ca5646f68ac8b194d0fdf298633828399af51b62ca0416275f99e73e6ce7928bfb5afcbe130e7d09c576ea5f83514119e73562f2842",
      "networkId": 0,
      "chainId": 0
    },
    {
      "hash": "0x38f7c8ea0f9e777ce42df0574f3d38728f0fc3831fd231140283d36a2b073d54",
      "blockHash": "0x1505bad61f71ea10bd3dd4c7f371885741641103062bef4b1421044a4901e1a5",
      "blockNumber": 68973,
      "transactionIndex": 20,
      "confirmations": null,
      "from": "0x3c21934B37417710A206cB355267994E4C68C867",
      "gasPrice": {
        "_hex": "0xba43b7400"
      },
      "gasLimit": {
        "_hex": "0x15f90"
      },
      "to": "0x793AE8C1b1a160BFc07BFB0d04F85eab1A71F4f2",
      "value": {
        "_hex": "0x0"
      },
      "nonce": 0,
      "data": "0x3ba15036",
      "r": "0x38bf10f303381f5f994e365c2a5f823e3f406a5eb2c973e24d409a84372ed162",
      "s": "0x6d2c1ef668a2f72833e287f25f93dd25f38946776e7a3fde3e91fba609960a0b",
      "v": 28,
      "creates": null,
      "raw": "0xf86980850ba43b740083015f9094793ae8c1b1a160bfc07bfb0d04f85eab1a71f4f280843ba150361ca038bf10f303381f5f994e365c2a5f823e3f406a5eb2c973e24d409a84372ed162a06d2c1ef668a2f72833e287f25f93dd25f38946776e7a3fde3e91fba609960a0b",
      "networkId": 0,
      "chainId": 0
    },
    {
      "hash": "0xbf103924c0e49c481d5aee6bb28b7374fbdd80f1b593b68ae4e2280befdb391f",
      "blockHash": "0x1505bad61f71ea10bd3dd4c7f371885741641103062bef4b1421044a4901e1a5",
      "blockNumber": 68973,
      "transactionIndex": 21,
      "confirmations": null,
      "from": "0xDb3a5789D1DC4d90F1F20D313d124dBfEe2E84a7",
      "gasPrice": {
        "_hex": "0xba43b7400"
      },
      "gasLimit": {
        "_hex": "0x15f90"
      },
      "to": "0x793AE8C1b1a160BFc07BFB0d04F85eab1A71F4f2",
      "value": {
        "_hex": "0x0"
      },
      "nonce": 0,
      "data": "0x3ba15036",
      "r": "0xb8870eba51903409966b5420fcea0390589ba9e5c1a26a16db1a1b3f2ef016a2",
      "s": "0x34f1bb9db548552e2ff39d77a00ababe0aac089323419aedce51958dbb0198cc",
      "v": 28,
      "creates": null,
      "raw": "0xf86980850ba43b740083015f9094793ae8c1b1a160bfc07bfb0d04f85eab1a71f4f280843ba150361ca0b8870eba51903409966b5420fcea0390589ba9e5c1a26a16db1a1b3f2ef016a2a034f1bb9db548552e2ff39d77a00ababe0aac089323419aedce51958dbb0198cc",
      "networkId": 0,
      "chainId": 0
    },
    {
      "hash": "0x9abe9e7214917a3972f847678f69bf3f9d5bd499f9300c373ad9c188ac8e9ba2",
      "blockHash": "0x1505bad61f71ea10bd3dd4c7f371885741641103062bef4b1421044a4901e1a5",
      "blockNumber": 68973,
      "transactionIndex": 22,
      "confirmations": null,
      "from": "0x9348eC746F7cFC445e1f304e8a5676624c218811",
      "gasPrice": {
        "_hex": "0xba43b7400"
      },
      "gasLimit": {
        "_hex": "0x15f90"
      },
      "to": "0x793AE8C1b1a160BFc07BFB0d04F85eab1A71F4f2",
      "value": {
        "_hex": "0x0"
      },
      "nonce": 0,
      "data": "0x3ba15036",
      "r": "0x1a453470c2eaa3685dfeb219a2e8f027f8aa312ce93107bcba5204511adcaf35",
      "s": "0x29fe4b07396b3c775b9f55dd80fb227bffbdbabdb514a039da784a1dae76b86a",
      "v": 27,
      "creates": null,
      "raw": "0xf86980850ba43b740083015f9094793ae8c1b1a160bfc07bfb0d04f85eab1a71f4f280843ba150361ba01a453470c2eaa3685dfeb219a2e8f027f8aa312ce93107bcba5204511adcaf35a029fe4b07396b3c775b9f55dd80fb227bffbdbabdb514a039da784a1dae76b86a",
      "networkId": 0,
      "chainId": 0
    },
    {
      "hash": "0x5fd0c97876f373430700edf1c24ee67fbf18cb084ebeb7ffde375fd798488e0a",
      "blockHash": "0x1505bad61f71ea10bd3dd4c7f371885741641103062bef4b1421044a4901e1a5",
      "blockNumber": 68973,
      "transactionIndex": 23,
      "confirmations": null,
      "from": "0x514782Ea38CFF616083231A028D932C218eB354c",
      "gasPrice": {
        "_hex": "0xba43b7400"
      },
      "gasLimit": {
        "_hex": "0x15f90"
      },
      "to": "0x793AE8C1b1a160BFc07BFB0d04F85eab1A71F4f2",
      "value": {
        "_hex": "0x0"
      },
      "nonce": 0,
      "data": "0x3ba15036",
      "r": "0xb4d07d90265647e05d85c900e16ffc10ddb9946ddf647181dfe8cd33818c476a",
      "s": "0x3690a27f13402c2973c169ac9c024f2bcc94a22ee8665a8086c021e4c49fcaed",
      "v": 27,
      "creates": null,
      "raw": "0xf86980850ba43b740083015f9094793ae8c1b1a160bfc07bfb0d04f85eab1a71f4f280843ba150361ba0b4d07d90265647e05d85c900e16ffc10ddb9946ddf647181dfe8cd33818c476aa03690a27f13402c2973c169ac9c024f2bcc94a22ee8665a8086c021e4c49fcaed",
      "networkId": 0,
      "chainId": 0
    },
    {
      "hash": "0xc10afee64d6ab6b9eff1cb63eb35a0c19b8ed60f2c9f04a1db5f5398c491ba0a",
      "blockHash": "0x1505bad61f71ea10bd3dd4c7f371885741641103062bef4b1421044a4901e1a5",
      "blockNumber": 68973,
      "transactionIndex": 24,
      "confirmations": null,
      "from": "0x965b455e9a6742c635f556D7d51451B19957161E",
      "gasPrice": {
        "_hex": "0xba43b7400"
      },
      "gasLimit": {
        "_hex": "0x15f90"
      },
      "to": "0x793AE8C1b1a160BFc07BFB0d04F85eab1A71F4f2",
      "value": {
        "_hex": "0x0"
      },
      "nonce": 0,
      "data": "0x3ba15036",
      "r": "0x2026c1232a7d8375024d90397938cffb0a80e2189a002ed55df344884ce758ca",
      "s": "0x44cacf0181797e1516178f4802ec238404be2a85ee970bc873021829881eda79",
      "v": 28,
      "creates": null,
      "raw": "0xf86980850ba43b740083015f9094793ae8c1b1a160bfc07bfb0d04f85eab1a71f4f280843ba150361ca02026c1232a7d8375024d90397938cffb0a80e2189a002ed55df344884ce758caa044cacf0181797e1516178f4802ec238404be2a85ee970bc873021829881eda79",
      "networkId": 0,
      "chainId": 0
    },
    {
      "hash": "0x222676898a0db8c81aea83d8e5d1f07fcacfc6204b5eeafbb30fd7d85b0aa10c",
      "blockHash": "0x1505bad61f71ea10bd3dd4c7f371885741641103062bef4b1421044a4901e1a5",
      "blockNumber": 68973,
      "transactionIndex": 25,
      "confirmations": null,
      "from": "0xD603CD1773DC30D7553eeE3D760F388EE755FB8A",
      "gasPrice": {
        "_hex": "0xba43b7400"
      },
      "gasLimit": {
        "_hex": "0x15f90"
      },
      "to": "0x793AE8C1b1a160BFc07BFB0d04F85eab1A71F4f2",
      "value": {
        "_hex": "0x0"
      },
      "nonce": 0,
      "data": "0x3ba15036",
      "r": "0xee4d740fe4b632e2fbb49324a7175bdf1b94ea0fc33b5d4d6b567a7a694bf486",
      "s": "0x2c4064029c62ce6bd7d0ca81523f2a442d71ab0044233c0fcd9fcd51f3c4c2b4",
      "v": 27,
      "creates": null,
      "raw": "0xf86980850ba43b740083015f9094793ae8c1b1a160bfc07bfb0d04f85eab1a71f4f280843ba150361ba0ee4d740fe4b632e2fbb49324a7175bdf1b94ea0fc33b5d4d6b567a7a694bf486a02c4064029c62ce6bd7d0ca81523f2a442d71ab0044233c0fcd9fcd51f3c4c2b4",
      "networkId": 0,
      "chainId": 0
    }
  ]
}