{
  "hash": "0x8409804df404ce2dd981fde23efc48f50c986c0c99fc92b6133cab239e97a3e2",
  "parentHash": "0xca2c28e5ff7954cadb6d11bc2285a5c634c02178678d8b4f860003f5b0b45ce0",
  "number": 65248,
  "timestamp": 1439233786,
  "nonce": "0x6e87bfa7da3b95aa",
  "difficulty": 1936005921005,
  "gasLimit": {
    "_hex": "0x2fefd8"
  },
  "gasUsed": {
    "_hex": "0x17cd8"
  },
  "miner": "0x9746c7e1ef2bd21FF3997fa467593a89cb852BD0",
  "extraData": "0x476574682f76312e302e312f77696e646f77732f676f312e342e32",
  "transactions": [
    {
      "hash": "0x8838a5fc6abea7e7ed7297f406751a76b3c848175c6a5c34a097a8d9f2ac72e5",
      "blockHash": "0x8409804df404ce2dd981fde23efc48f50c986c0c99fc92b6133cab239e97a3e2",
      "blockNumber": 65248,
      "transactionIndex": 0,
      "confirmations": null,
      "from": "0xf6E4C4178068C99D971410D42D97a0A59a480930",
      "gasPrice": {
        "_hex": "0xba43b7400"
      },
      "gasLimit": {
        "_hex": "0x15f90"
      },
      "to": "0x793AE8C1b1a160BFc07BFB0d04F85eab1A71F4f2",
      "value": {
        "_hex": "0x0"
      },
      "nonce": 0,
      "data": "0x3ba15036",
      "r": "0x6023ba0191f16b226101a74ac6d831741085afea17fd5987b6e2758136943a31",
      "s": "0x48e6391bd5cf695b9df86d5888c5dca599abeb350ce07b2ad02f7b8f7c9d83ee",
      "v": 27,
      "creates": null,
      "raw": "0xf86980850ba43b740083015f9094793ae8c1b1a160bfc07bfb0d04f85eab1a71f4f280843ba150361ba06023ba0191f16b226101a74ac6d831741085afea17fd5987b6e2758136943a31a048e6391bd5cf695b9df86d5888c5dca599abeb350ce07b2ad02f7b8f7c9d83ee",
      "networkId": 0,
      "chainId": 0
    },
    {
      "hash": "0x87db03dabd9432ca5e89b95488316bf393d841814d4569c745ca3855a49aeef3",
      "blockHash": "0x8409804df404ce2dd981fde23efc48f50c986c0c99fc92b6133cab239e97a3e2",
      "blockNumber": 65248,
      "transactionIndex": 1,
      "confirmations": null,
      "from": "0xe917A3BFD05093C2f7cAA0Afd63E9Eeb3EC45fa8",
      "gasPrice": {
        "_hex": "0xba43b7400"
      },
      "gasLimit": {
        "_hex": "0x15f90"
      },
      "to": "0x793AE8C1b1a160BFc07BFB0d04F85eab1A71F4f2",
      "value": {
        "_hex": "0x0"
      },
      "nonce": 0,
      "data": "0x3ba15036",
      "r": "0x4c067c6574b8eb9c0164a8c2dbd1b5d677495e52fe31f393a098458d75fa4431",
      "s": "0x10b151cb925c53683c6dbd681727324534ad2cf4a723865fc0ffeba25c8f6d46",
      "v": 27,
      "creates": null,
      "raw": "0xf86980850ba43b740083015f9094793ae8c1b1a160bfc07bfb0d04f85eab1a71f4f280843ba150361ba04c067c6574b8eb9c0164a8c2dbd1b5d677495e52fe31f393a098458d75fa4431a010b151cb925c53683c6dbd681727324534ad2cf4a723865fc0ffeba25c8f6d46",
      "networkId": 0,
      "chainId": 0
    }
  ]
}