{
  "hash": "0x76ca3a497f9e44730b4163af0fc149233f885a84d1936f27a1d08c55a3efb25f",
  "parentHash": "0xe2f610bfd7ad6cc9407613f8574fba9f7dcf3ac1a757afc6b4334106c4f0ffec",
  "number": 120056,
  "timestamp": 1440153273,
  "nonce": "0xb91a44efd2f9a6e0",
  "difficulty": 4411309633284,
  "gasLimit": {
    "_hex": "0x2fefd8"
  },
  "gasUsed": {
    "_hex": "0x5bccd"
  },
  "miner": "0x52bc44d5378309EE2abF1539BF71dE1b7d7bE3b5",
  "extraData": "0xd783010002844765746887676f312e342e32856c696e7578",
  "transactions": [
    {
      "hash": "0xbcf424ac9757fcad971d2f11c7b94fb3c6fbfeb9bd976e22721ecf53d45cfdd3",
      "blockHash": "0x76ca3a497f9e44730b4163af0fc149233f885a84d1936f27a1d08c55a3efb25f",
      "blockNumber": 120056,
      "transactionIndex": 0,
      "confirmations": null,
      "from": "0xD007C3Ce0bFCFE50559e15a3737C236f8Fa15BbE",
      "gasPrice": {
        "_hex": "0xba43b7400"
      },
      "gasLimit": {
        "_hex": "0xf4240"
      },
      "to": null,
      "value": {
        "_hex": "0x0"
      },
      "nonce": 0,
      "data": "0x606060405273beb3b1d443791e4b2207a9866800e02dacf19c02600160006101000a81548173ffffffffffffffffffffffffffffffffffffffff021916908302179055506040516102d83803806102d88339016040526060805160600190602001805190602001505b5b33600060006101000a81548173ffffffffffffffffffffffffffffffffffffffff021916908302179055505b8060026000508190555081600360005090805190602001908280548282559060005260206000209081019282156100ec579160200282015b828111156100eb5782518260005055916020019190600101906100cd565b5b50905061011791906100f9565b8082111561011357600081815060009055506001016100f9565b5090565b50505b50506101ad8061012b6000396000f30060606040526000357c010000000000000000000000000000000000000000000000000000000090048063370158ea1461004457806341c0e1b51461009957610042565b005b61004f60045061013a565b60405180806020018281038252838181518152602001915080519060200190602002808383829060006004602084601f0104600302600f01f1509050019250505060405180910390f35b6100a46004506100a6565b005b600060009054906101000a900473ffffffffffffffffffffffffffffffffffffffff1673ffffffffffffffffffffffffffffffffffffffff163373ffffffffffffffffffffffffffffffffffffffff16141561013757600060009054906101000a900473ffffffffffffffffffffffffffffffffffffffff1673ffffffffffffffffffffffffffffffffffffffff16ff5b5b565b602060405190810160405280600081526020015060036000508054806020026020016040519081016040528092919081815260200182805480156101a057602002820191906000526020600020905b816000505481526020019060010190808311610189575b5050505050905080505b90560000000000000000000000000000000000000000000000000000000000000040000000000000000000000000000000000000000000000000002386f26fc100000000000000000000000000000000000000000000000000000000000000000006000000000000000000000000000000000000000000000000000000000000000100000000000000000000000000000000000000000000000000000000000000020000000000000000000000000000000000000000000000000000000000000003000000000000000000000000000000000000000000000000000000000000000400000000000000000000000000000000000000000000000000000000000000050000000000000000000000000000000000000000000000000000000000000006",
      "r": "0x5bccf95b67e3639ed67346a03f5ba2b3ff4caee1e73f62f1db2006a10856def5",
      "s": "0x2826f1be8c4aaaef18becd7f7a405512fb9fe616fe16321324614aa861e85937",
      "v": 28,
      "creates": "0x07bB818A498A68E1A52A7457181efa52980109A9",
      "raw": "0xf9044b80850ba43b7400830f42408080b903f8606060405273beb3b1d443791e4b2207a9866800e02dacf19c02600160006101000a81548173ffffffffffffffffffffffffffffffffffffffff021916908302179055506040516102d83803806102d88339016040526060805160600190602001805190602001505b5b33600060006101000a81548173ffffffffffffffffffffffffffffffffffffffff021916908302179055505b8060026000508190555081600360005090805190602001908280548282559060005260206000209081019282156100ec579160200282015b828111156100eb5782518260005055916020019190600101906100cd565b5b50905061011791906100f9565b8082111561011357600081815060009055506001016100f9565b5090565b50505b50506101ad8061012b6000396000f30060606040526000357c010000000000000000000000000000000000000000000000000000000090048063370158ea1461004457806341c0e1b51461009957610042565b005b61004f60045061013a565b60405180806020018281038252838181518152602001915080519060200190602002808383829060006004602084601f0104600302600f01f1509050019250505060405180910390f35b6100a46004506100a6565b005b600060009054906101000a900473ffffffffffffffffffffffffffffffffffffffff1673ffffffffffffffffffffffffffffffffffffffff163373ffffffffffffffffffffffffffffffffffffffff16141561013757600060009054906101000a900473ffffffffffffffffffffffffffffffffffffffff1673ffffffffffffffffffffffffffffffffffffffff16ff5b5b565b602060405190810160405280600081526020015060036000508054806020026020016040519081016040528092919081815260200182805480156101a057602002820191906000526020600020905b816000505481526020019060010190808311610189575b5050505050905080505b90560000000000000000000000000000000000000000000000000000000000000040000000000000000000000000000000000000000000000000002386f26fc1000000000000000000000000000000000000000000000000000000000000000000060000000000000000000000000000000000000000000000000000000000000001000000000000000000000000000000000000000000000000000000000000000200000000000000000000000000000000000000000000000000000000000000030000000000000000000000000000000000000000000000000000000000000004000000000000000000000000000000000000000000000000000000000000000500000000000000000000000000000000000000000000000000000000000000061ca05bccf95b67e3639ed67346a03f5ba2b3ff4caee1e73f62f1db2006a10856def5a02826f1be8c4aaaef18becd7f7a405512fb9fe616fe16321324614aa861e85937",
      "networkId": 0,
      "chainId": 0
    },
    {
      "hash": "0x9759b2c01ed9ca0c497d5326273cb605008c42bc4c7fd67a853e9d66afe01f7c",
      "blockHash": "0x76ca3a497f9e44730b4163af0fc149233f885a84d1936f27a1d08c55a3efb25f",
      "blockNumber": 120056,
      "transactionIndex": 1,
      "confirmations": null,
      "from": "0xFBb1b73C4f0BDa4f67dcA266ce6Ef42f520fBB98",
      "gasPrice": {
        "_hex": "0xba43b7400"
      },
      "gasLimit": {
        "_hex": "0x5208"
      },
      "to": "0x92fe746bA4159EE3Ba1E83067aA7cf79cc4CC0d9",
      "value": {
        "_hex": "0x2bbc38d36ec2800"
      },
      "nonce": 253,
      "data": "0x",
      "r": "0xc1163e435f8e08eb677a1447074d87539b6ac45c7c14e4edd1d564914458f411",
      "s": "0x5d3d566eec038ebf9daddb57fe9de5c4d666bfa7d37443719f5f596790b0947e",
      "v": 28,
      "creates": null,
      "raw": "0xf86d81fd850ba43b74008252089492fe746ba4159ee3ba1e83067aa7cf79cc4cc0d98802bbc38d36ec2800801ca0c1163e435f8e08eb677a1447074d87539b6ac45c7c14e4edd1d564914458f411a05d3d566eec038ebf9daddb57fe9de5c4d666bfa7d37443719f5f596790b0947e",
      "networkId": 0,
      "chainId": 0
    }
  ]
}