{
  "hash": "0xfa236287ad0c532890b291bd3617638d99476b79f7b779002542e7b25745947d",
  "parentHash": "0xe4a192f416c09318fdfeb9a0d97f64338af39f84725d1bf8e7edef40e3e9fb3a",
  "number": 86729,
  "timestamp": 1439582061,
  "nonce": "0x4b4467bc565ffe1e",
  "difficulty": 2945944936111,
  "gasLimit": {
    "_hex": "0x2fefd5"
  },
  "gasUsed": {
    "_hex": "0x5208"
  },
  "miner": "0x123843545FB525C8E134c9A5F15ADA6865cc3848",
  "extraData": "0x476574682f76312e302e312f77696e646f77732f676f312e342e32",
  "transactions": [
    {
      "hash": "0x8b22197dd24c6168cc07a5720c9d68e83ecf6a0f578ad5ca007f3d1eb7b37832",
      "blockHash": "0xfa236287ad0c532890b291bd3617638d99476b79f7b779002542e7b25745947d",
      "blockNumber": 86729,
      "transactionIndex": 0,
      "confirmations": null,
      "from": "0x89054430DcdC28AC15fA635EF87c105E602bf70c",
      "gasPrice": {
        "_hex": "0xe16008cfb"
      },
      "gasLimit": {
        "_hex": "0x15f90"
      },
      "to": "0xeFFFe92E81e65eA3AD7C8C87D370e1CD31b0cac4",
      "value": {
        "_hex": "0xf7064db109f40000"
      },
      "nonce": 4,
      "data": "0x",
      "r": "0xfa1ac7ab87b343bc4963d66df082f473adf2d59caf26458d2f7a716d8d41c615",
      "s": "0x3aca52289e54e8ee4f4fe70d7d164c1e8c912c8013592f490fd814b9191244c3",
      "v": 28,
      "creates": null,
      "raw": "0xf86d04850e16008cfb83015f9094efffe92e81e65ea3ad7c8c87d370e1cd31b0cac488f7064db109f40000801ca0fa1ac7ab87b343bc4963d66df082f473adf2d59caf26458d2f7a716d8d41c615a03aca52289e54e8ee4f4fe70d7d164c1e8c912c8013592f490fd814b9191244c3",
      "networkId": 0,
      "chainId": 0
    }
  ]
}