{
  "hash": "0x134e3f576eb56425b4db3d4b9ae5fc06cabaa5a4d73006c930497b0ede0cbee8",
  "parentHash": "0xb011980ebf557eacdca509ae3d7e8168c29a737991b5b1e54d2b6be39eba928c",
  "number": 107719,
  "timestamp": 1439927622,
  "nonce": "0x722abe30259d4d21",
  "difficulty": 4377006114039,
  "gasLimit": {
    "_hex": "0x2fefd8"
  },
  "gasUsed": {
    "_hex": "0x5208"
  },
  "miner": "0xe6A7a1d47ff21B6321162AEA7C6CB457D5476Bca",
  "extraData": "0x476574682f76312e302e312d38326566323666362f6c696e75782f676f312e34",
  "transactions": [
    {
      "hash": "0x7908621fd080226261b51207745f4cae3801a50711cd5e951ede1137b64f1ae0",
      "blockHash": "0x134e3f576eb56425b4db3d4b9ae5fc06cabaa5a4d73006c930497b0ede0cbee8",
      "blockNumber": 107719,
      "transactionIndex": 0,
      "confirmations": null,
      "from": "0x7339BF89A60F8a29d0Ed436F3198774F8e191f37",
      "gasPrice": {
        "_hex": "0xe2f479764"
      },
      "gasLimit": {
        "_hex": "0x5208"
      },
      "to": "0x32Be343B94f860124dC4fEe278FDCBD38C102D88",
      "value": {
        "_hex": "0x45a613d046073800"
      },
      "nonce": 9,
      "data": "0x",
      "r": "0xfaf7a8bae263adee1ca122ef97d4dcb158a603ca630a2635c614d18e1c587043",
      "s": "0x496214d666a4fdcec46d5abacfd46d2361c0043852434fe14d497c859be8858d",
      "v": 27,
      "creates": null,
      "raw": "0xf86c09850e2f4797648252089432be343b94f860124dc4fee278fdcbd38c102d888845a613d046073800801ba0faf7a8bae263adee1ca122ef97d4dcb158a603ca630a2635c614d18e1c587043a0496214d666a4fdcec46d5abacfd46d2361c0043852434fe14d497c859be8858d",
      "networkId": 0,
      "chainId": 0
    }
  ]
}