{
  "hash": "0xe4e8bca2e78e6dcb382f111cab2a1ca47784b48f5ece7dd1b39da3680a36ad17",
  "parentHash": "0x60cc3083502ac2cfd305f456583557641640e37db17388703318bb73f7ec15c1",
  "number": 106267,
  "timestamp": 1439901385,
  "nonce": "0x9294be08973632ff",
  "difficulty": 4477205082588,
  "gasLimit": {
    "_hex": "0x2fefd8"
  },
  "gasUsed": {
    "_hex": "0x520c"
  },
  "miner": "0xA1623430350C5df1b52B0b57483A5bb45d1796Da",
  "extraData": "0x476574682f76312e302e312d38326566323666362f6c696e75782f676f312e34",
  "transactions": [
    {
      "hash": "0x3f44d6fcac10dd8fb909e4b93e31d6a17c8bd65e0b82fd9ab0beb9e5c515f0f8",
      "blockHash": "0xe4e8bca2e78e6dcb382f111cab2a1ca47784b48f5ece7dd1b39da3680a36ad17",
      "blockNumber": 106267,
      "transactionIndex": 0,
      "confirmations": null,
      "from": "0x5974C0C26E6142349EE2e888C96fB0c41Df54D45",
      "gasPrice": {
        "_hex": "0xdb5774fa6"
      },
      "gasLimit": {
        "_hex": "0x7530"
      },
      "to": "0x7cB57B5A97eAbe94205C07890BE4c1aD31E486A8",
      "value": {
        "_hex": "0x15c2a7b13fd0000"
      },
      "nonce": 0,
      "data": "0x00",
      "r": "0x0ef160312c01b4342171e39e8acc2d4c89aadf1c8c592f6c3d07cf7e2455c812",
      "s": "0xb969f941a0eb081ed9805a6a0058a683f10a8ce9679a517cec9c173020ec4340",
      "v": 27,
      "creates": null,
      "raw": "0xf86c80850db5774fa6827530947cb57b5a97eabe94205c07890be4c1ad31e486a888015c2a7b13fd0000001ba00ef160312c01b4342171e39e8acc2d4c89aadf1c8c592f6c3d07cf7e2455c812a0b969f941a0eb081ed9805a6a0058a683f10a8ce9679a517cec9c173020ec4340",
      "networkId": 0,
      "chainId": 0
    }
  ]
}