{
  "hash": "0x90191ca5871f523822a7a6682844da6152cb2b15c3a116a31ceb4e3e6214b938",
  "parentHash": "0x5371c52b3eb3b4a030d80f5bbfefaebbe69620cdfd5f5e74eb11fd0d27795860",
  "number": 51616,
  "timestamp": 1439007967,
  "nonce": "0xeff02fb79a3165ec",
  "difficulty": 1558154473578,
  "gasLimit": {
    "_hex": "0xc593b"
  },
  "gasUsed": {
    "_hex": "0x7a120"
  },
  "miner": "0x5B3e850E39e6f2C7dD38707b649e2B3536F14C0b",
  "extraData": "0x476574682f76312e302e312f64617277696e2f676f312e342e32",
  "transactions": [
    {
      "hash": "0x558e0b470bb2e4b4ad208141b7d6d9192d39993007f1ecb061f2af89b5c65547",
      "blockHash": "0x90191ca5871f523822a7a6682844da6152cb2b15c3a116a31ceb4e3e6214b938",
      "blockNumber": 51616,
      "transactionIndex": 0,
      "confirmations": null,
      "from": "0xFCf9f6A78f06227522c6f948ec0119dA31680Ef7",
      "gasPrice": {
        "_hex": "0xda9711205"
      },
      "gasLimit": {
        "_hex": "0x7a120"
      },
      "to": "0xBAA54d6E90c3F4d7Ebec11bD180134C7eD8eBb52",
      "value": {
        "_hex": "0x16345785d8a0000"
      },
      "nonce": 27,
      "data": "0x",
      "r": "0x10faafdfda92b7bd63cf56165332a0bd1e90c8d067f288d49cc74b38809268ce",
      "s": "0x14e7ba0f4b2c6750c9648fbcecf89ef20a0a8eb50c73fd4bf1b8b5fa8c784e58",
      "v": 28,
      "creates": null,
      "raw": "0xf86d1b850da97112058307a12094baa54d6e90c3f4d7ebec11bd180134c7ed8ebb5288016345785d8a0000801ca010faafdfda92b7bd63cf56165332a0bd1e90c8d067f288d49cc74b38809268cea014e7ba0f4b2c6750c9648fbcecf89ef20a0a8eb50c73fd4bf1b8b5fa8c784e58",
      "networkId": 0,
      "chainId": 0
    }
  ]
}