{
  "hash": "0xf261ea926563c12190bf2ebb894b153326af78901243cd8e9871541b24dc5b9c",
  "parentHash": "0xa0951a43cb7233f4a8d341989b72b00bb73cbb9b0210b88932578ae5401fca2d",
  "number": 120069,
  "timestamp": 1440153506,
  "nonce": "0x22de7a67985da55b",
  "difficulty": 4409149366156,
  "gasLimit": {
    "_hex": "0x2fefd8"
  },
  "gasUsed": {
    "_hex": "0x5208"
  },
  "miner": "0xE300c4587D260cE22a677755Db6429B491A4309E",
  "extraData": "0x",
  "transactions": [
    {
      "hash": "0xe23f3e060aac155e1f66cc62835fa7bebecbfc72534aed37281f755c60213ad9",
      "blockHash": "0xf261ea926563c12190bf2ebb894b153326af78901243cd8e9871541b24dc5b9c",
      "blockNumber": 120069,
      "transactionIndex": 0,
      "confirmations": null,
      "from": "0x10BD1134A760f6b35247e3cb33673a18bC95a7E7",
      "gasPrice": {
        "_hex": "0xba43b7400"
      },
      "gasLimit": {
        "_hex": "0x15f90"
      },
      "to": "0x55192e9eEF50b024e6800e4657590f33D1070545",
      "value": {
        "_hex": "0xde0b6b3a7640000"
      },
      "nonce": 3,
      "data": "0x",
      "r": "0xcbf4b9494afda5dc40b39acb8a9385928e51324f1047c7a63436f6311e2a6f40",
      "s": "0x51b040ccedf30b109644aa4183d5106b88f96b4a834d6f33aa20f5fa679c7b81",
      "v": 28,
      "creates": null,
      "raw": "0xf86d03850ba43b740083015f909455192e9eef50b024e6800e4657590f33d1070545880de0b6b3a7640000801ca0cbf4b9494afda5dc40b39acb8a9385928e51324f1047c7a63436f6311e2a6f40a051b040ccedf30b109644aa4183d5106b88f96b4a834d6f33aa20f5fa679c7b81",
      "networkId": 0,
      "chainId": 0
    }
  ]
}