{
  "hash": "0x33f732a8bf83a0baab15371d25c1a97157a48586ff2498fba998c939d0189dc9",
  "parentHash": "0xaf801db516853e6023775d784ad968a6c391dd3dbc20d5ef8d84def489979c19",
  "number": 66377,
  "timestamp": 1439253560,
  "nonce": "0x91a5f97d15551ad5",
  "difficulty": 1936690795761,
  "gasLimit": {
    "_hex": "0x2fefd5"
  },
  "gasUsed": {
    "_hex": "0xa674"
  },
  "miner": "0xf8E0CA3Ed80bd541b94BEdCf259e8CF2141A9523",
  "extraData": "0x476574682f76312e302e312f77696e646f77732f676f312e342e32",
  "transactions": [
    {
      "hash": "0xc41f631b19a298b729057e2de4f73cf33adfe4aa6d3db4d13faeee8bb1123583",
      "blockHash": "0x33f732a8bf83a0baab15371d25c1a97157a48586ff2498fba998c939d0189dc9",
      "blockNumber": 66377,
      "transactionIndex": 0,
      "confirmations": null,
      "from": "0x2d3480BF0865074a72c7759eE5137B4D70c51cE9",
      "gasPrice": {
        "_hex": "0x110c8f7d8de"
      },
      "gasLimit": {
        "_hex": "0xc350"
      },
      "to": "0x2910543Af39abA0Cd09dBb2D50200b3E800A63D2",
      "value": {
        "_hex": "0xa90c7e56023a20000"
      },
      "nonce": 1,
      "data": "0x454e484d3852393747",
      "r": "0xe78e17fe7eb37de4e30d1f425e1a04fe7449de226415114312403a4398d308dd",
      "s": "0x89f2d106227374715d87bd23b9930f855a36159a3bb8d926f5e6ec51c759d3d9",
      "v": 27,
      "creates": null,
      "raw": "0xf87701860110c8f7d8de82c350942910543af39aba0cd09dbb2d50200b3e800a63d2890a90c7e56023a2000089454e484d38523937471ba0e78e17fe7eb37de4e30d1f425e1a04fe7449de226415114312403a4398d308dda089f2d106227374715d87bd23b9930f855a36159a3bb8d926f5e6ec51c759d3d9",
      "networkId": 0,
      "chainId": 0
    },
    {
      "hash": "0x8efb8e03dee1b559a0ab782b15fd742a6a89601bb9755c82e973f96207f799c1",
      "blockHash": "0x33f732a8bf83a0baab15371d25c1a97157a48586ff2498fba998c939d0189dc9",
      "blockNumber": 66377,
      "transactionIndex": 1,
      "confirmations": null,
      "from": "0xc8ebccC5F5689Fa8659d83713341e5aD19349448",
      "gasPrice": {
        "_hex": "0xd627d0b17"
      },
      "gasLimit": {
        "_hex": "0x15f90"
      },
      "to": "0x4EFE40091aFf32daBE4E1097DBAA9c69CB6463dB",
      "value": {
        "_hex": "0x3635c9adc5dea00000"
      },
      "nonce": 31,
      "data": "0x",
      "r": "0x4d77ed6a227872499a4399f1c28532ad6e0c69498e5c9e01a74649fbf521a8f0",
      "s": "0x55fa67cf9b788713725739c8d41b1e7896951d6c33ce2dd36c302567183377fc",
      "v": 28,
      "creates": null,
      "raw": "0xf86e1f850d627d0b1783015f90944efe40091aff32dabe4e1097dbaa9c69cb6463db893635c9adc5dea00000801ca04d77ed6a227872499a4399f1c28532ad6e0c69498e5c9e01a74649fbf521a8f0a055fa67cf9b788713725739c8d41b1e7896951d6c33ce2dd36c302567183377fc",
      "networkId": 0,
      "chainId": 0
    }
  ]
}