{
  "hash": "0x25300b6a8dd8270914815753a93e123647d363b900ef0a1e2611aced2fd704be",
  "parentHash": "0x8a2c47891ed8a2eba8b2a8e6192f45d7038f8a81d8b162303b79a8580b4f169c",
  "number": 91727,
  "timestamp": 1439660539,
  "nonce": "0xeeeb85b953343ef4",
  "difficulty": 3475886160892,
  "gasLimit": {
    "_hex": "0x2fefd8"
  },
  "gasUsed": {
    "_hex": "0x5208"
  },
  "miner": "0xe6A7a1d47ff21B6321162AEA7C6CB457D5476Bca",
  "extraData": "0x476574682f76312e302e312d38326566323666362f6c696e75782f676f312e34",
  "transactions": [
    {
      "hash": "0x8e4d74edb3c7d149000da51138a70439b1d40d4efbd7bf75ddd4940c424feb28",
      "blockHash": "0x25300b6a8dd8270914815753a93e123647d363b900ef0a1e2611aced2fd704be",
      "blockNumber": 91727,
      "transactionIndex": 0,
      "confirmations": null,
      "from": "0xA6CF15Cc4e4C6d1cE63B43E5963CBD0450fd9566",
      "gasPrice": {
        "_hex": "0xcf1cc387b"
      },
      "gasLimit": {
        "_hex": "0x5208"
      },
      "to": "0x32Be343B94f860124dC4fEe278FDCBD38C102D88",
      "value": {
        "_hex": "0x98a3b3ddc26dc000"
      },
      "nonce": 2,
      "data": "0x",
      "r": "0x486d96d0de03eb87852e08c191f97fbe3da28022a5f092b08d3cfb26522c3ff7",
      "s": "0x61dcd7909f459d0c27082533bf1782ce752d10bd73d89c2ba93a7d44607a5cdf",
      "v": 28,
      "creates": null,
      "raw": "0xf86c02850cf1cc387b8252089432be343b94f860124dc4fee278fdcbd38c102d888898a3b3ddc26dc000801ca0486d96d0de03eb87852e08c191f97fbe3da28022a5f092b08d3cfb26522c3ff7a061dcd7909f459d0c27082533bf1782ce752d10bd73d89c2ba93a7d44607a5cdf",
      "networkId": 0,
      "chainId": 0
    }
  ]
}