{
  "hash": "0xb3a324521de35a4d773d64c42a054427fe1b6c4f757701adaa734b1a5a017da9",
  "parentHash": "0x635da3bc83bf4ea39276c98dd16444e472b6a8f27980dc1909633ea82dedbc9e",
  "number": 47779,
  "timestamp": 1438946103,
  "nonce": "0x79d3c05e38ff5b19",
  "difficulty": 1455154143550,
  "gasLimit": {
    "_hex": "0xf1ef"
  },
  "gasUsed": {
    "_hex": "0x5208"
  },
  "miner": "0xbb7B8287f3F0a933474a79eAe42CBCa977791171",
  "extraData": "0x476574682f4c5649562f76312e302e312f6c696e75782f676f312e342e32",
  "transactions": [
    {
      "hash": "0x129b83351ac7127c8e46d11544e4b21dd2c6ea447973033d99198b6b5dde93d2",
      "blockHash": "0xb3a324521de35a4d773d64c42a054427fe1b6c4f757701adaa734b1a5a017da9",
      "blockNumber": 47779,
      "transactionIndex": 0,
      "confirmations": null,
      "from": "0xe6A7a1d47ff21B6321162AEA7C6CB457D5476Bca",
      "gasPrice": {
        "_hex": "0xd1b9909c5"
      },
      "gasLimit": {
        "_hex": "0x55f0"
      },
      "to": "0x186D45F84Ea3942E8C4D72490af86ea347C3a049",
      "value": {
        "_hex": "0x8264f83a1b510740"
      },
      "nonce": 231,
      "data": "0x",
      "r": "0x288eb5798aefe5ae418f4dd3a7f99b8200b20af3e1a5d0c041867a861bbbee43",
      "s": "0x2db8b571c07995c2b846220743c8ebaa5d0dc2e6d66acba9df9c1f6090953bf6",
      "v": 28,
      "creates": null,
      "raw": "0xf86d81e7850d1b9909c58255f094186d45f84ea3942e8c4d72490af86ea347c3a049888264f83a1b510740801ca0288eb5798aefe5ae418f4dd3a7f99b8200b20af3e1a5d0c041867a861bbbee43a02db8b571c07995c2b846220743c8ebaa5d0dc2e6d66acba9df9c1f6090953bf6",
      "networkId": 0,
      "chainId": 0
    }
  ]
}