{
  "hash": "0x509b0c0137c7164ec3d8dd6024843fe509211d4ad12f4974e7427adda8bf00bd",
  "parentHash": "0xbf115d0e365a60d4eeef1afb12dcf927a75fe515711e330d61c0b3a5fb8acc5a",
  "number": 96232,
  "timestamp": 1439737055,
  "nonce": "0xd47fa94e47ea1f15",
  "difficulty": 3667505174566,
  "gasLimit": {
    "_hex": "0x2fefd8"
  },
  "gasUsed": {
    "_hex": "0x5208"
  },
  "miner": "0x9746c7e1ef2bd21FF3997fa467593a89cb852BD0",
  "extraData": "0x476574682f76312e302e312f77696e646f77732f676f312e342e32",
  "transactions": [
    {
      "hash": "0x8341efa7c42ed7fb357a01b991ac130d3e05247e34329cd669b5ef0db244c3ad",
      "blockHash": "0x509b0c0137c7164ec3d8dd6024843fe509211d4ad12f4974e7427adda8bf00bd",
      "blockNumber": 96232,
      "transactionIndex": 0,
      "confirmations": null,
      "from": "0xc597A5d92F5dC1137D847db733cfe02c6d209f13",
      "gasPrice": {
        "_hex": "0xd981bc98d"
      },
      "gasLimit": {
        "_hex": "0x15f90"
      },
      "to": "0x3bFc4B3A53996526FA62CD808a89424B6957013c",
      "value": {
        "_hex": "0x8f42775fface0000"
      },
      "nonce": 35,
      "data": "0x",
      "r": "0x3d450816579ea48a00d82df0a9378bb724d1d81e656625a3c08564e595256444",
      "s": "0x53d7d45bde059ef7609bae1cc07265316054dcd461a04bb72f48dc1fc6bd1db7",
      "v": 27,
      "creates": null,
      "raw": "0xf86d23850d981bc98d83015f90943bfc4b3a53996526fa62cd808a89424b6957013c888f42775fface0000801ba03d450816579ea48a00d82df0a9378bb724d1d81e656625a3c08564e595256444a053d7d45bde059ef7609bae1cc07265316054dcd461a04bb72f48dc1fc6bd1db7",
      "networkId": 0,
      "chainId": 0
    }
  ]
}