{
  "hash": "0x1f490a23ab82ea305ddc05697cc2ab775b6f8eb54fb92e49acfae7137a904d2d",
  "parentHash": "0x4bdf4ff17eb427096c15fd6bb2dacaafd471438838ede3e59b4a530c14e863d5",
  "number": 78859,
  "timestamp": 1439460559,
  "nonce": "0xa5d1059fa7d9e5f0",
  "difficulty": 2289739593609,
  "gasLimit": {
    "_hex": "0x2fefd8"
  },
  "gasUsed": {
    "_hex": "0x546c"
  },
  "miner": "0xa50ec0D39fa913E62f1Bae7074E6F36caA71855b",
  "extraData": "0xd783010001844765746887676f312e342e32856c696e7578",
  "transactions": [
    {
      "hash": "0x8e769681b15e89de8745fe42bbe00330f1d1f4db64c48d11d651110c961e4fae",
      "blockHash": "0x1f490a23ab82ea305ddc05697cc2ab775b6f8eb54fb92e49acfae7137a904d2d",
      "blockNumber": 78859,
      "transactionIndex": 0,
      "confirmations": null,
      "from": "0x00bD7514616c0E4Dd28F5B351090ABAD03F104C8",
      "gasPrice": {
        "_hex": "0xde4805964"
      },
      "gasLimit": {
        "_hex": "0x55f0"
      },
      "to": "0x2910543Af39abA0Cd09dBb2D50200b3E800A63D2",
      "value": {
        "_hex": "0x1158e460913d00000"
      },
      "nonce": 5,
      "data": "0x454e503330514a3547",
      "r": "0x6bf88eb391fadefd55a949e599aa0ba7629782b4f039bf5b9e525a92f5f1b0ad",
      "s": "0x1a9b686b4fd5588b80132ba274c9cfd83d33658f4d1bf22c2cd038d7611a1457",
      "v": 28,
      "creates": null,
      "raw": "0xf87605850de48059648255f0942910543af39aba0cd09dbb2d50200b3e800a63d28901158e460913d0000089454e503330514a35471ca06bf88eb391fadefd55a949e599aa0ba7629782b4f039bf5b9e525a92f5f1b0ada01a9b686b4fd5588b80132ba274c9cfd83d33658f4d1bf22c2cd038d7611a1457",
      "networkId": 0,
      "chainId": 0
    }
  ]
}