{
  "hash": "0xa829832720a78356b095cb5b2f6a73a59cb65c483f59c4b35c2c21c40f76a669",
  "parentHash": "0x05004828048015d50f3aba5a29a47a2842f64f0a818905cd7c012117b82cc1d2",
  "number": 119578,
  "timestamp": 1440145335,
  "nonce": "0x53c661b39040e235",
  "difficulty": 4385787595359,
  "gasLimit": {
    "_hex": "0x2fefd8"
  },
  "gasUsed": {
    "_hex": "0x22736"
  },
  "miner": "0x580992B51e3925e23280EfB93d3047C82f17E038",
  "extraData": "0x",
  "transactions": [
    {
      "hash": "0x68bd84b2daf7ece07800cd9d88c612ca20cea3e90fd427043c54165e0729dcfe",
      "blockHash": "0xa829832720a78356b095cb5b2f6a73a59cb65c483f59c4b35c2c21c40f76a669",
      "blockNumber": 119578,
      "transactionIndex": 0,
      "confirmations": null,
      "from": "0xbAeF66124E137Eb5eE0DE1BbAB5a30002508a1bf",
      "gasPrice": {
        "_hex": "0xba43b7400"
      },
      "gasLimit": {
        "_hex": "0x15f90"
      },
      "to": "0xAF17A4ab5d6B10055Fc1eB1BFaCcbDe69B83aF76",
      "value": {
        "_hex": "0x20f5b1eaad8d80000"
      },
      "nonce": 9,
      "data": "0x",
      "r": "0xbddb845d2e9b1a0ce06aebaee7e494ee80e1835a95b11c4d5078cd7d966b0b4e",
      "s": "0x241739afee9c9ef5ba9c153945b71e4bcfc00ddc71350c217330fd5ccb492c76",
      "v": 28,
      "creates": null,
      "raw": "0xf86e09850ba43b740083015f9094af17a4ab5d6b10055fc1eb1bfaccbde69b83af7689020f5b1eaad8d80000801ca0bddb845d2e9b1a0ce06aebaee7e494ee80e1835a95b11c4d5078cd7d966b0b4ea0241739afee9c9ef5ba9c153945b71e4bcfc00ddc71350c217330fd5ccb492c76",
      "networkId": 0,
      "chainId": 0
    },
    {
      "hash": "0x7cd0a904e490736b08b007c4f3c239e5ff9280d198e675b2013e538a626ce29e",
      "blockHash": "0xa829832720a78356b095cb5b2f6a73a59cb65c483f59c4b35c2c21c40f76a669",
      "blockNumber": 119578,
      "transactionIndex": 1,
      "confirmations": null,
      "from": "0x931Ac2444b057f80A06A4FB627f26FFA5CE41184",
      "gasPrice": {
        "_hex": "0xba43b7400"
      },
      "gasLimit": {
        "_hex": "0x5208"
      },
      "to": "0x32Be343B94f860124dC4fEe278FDCBD38C102D88",
      "value": {
        "_hex": "0xc23b3f6bfba6a000"
      },
      "nonce": 10,
      "data": "0x",
      "r": "0x6a4f0df28799470245a1f1b5f165a723efe16897a095e712d7ee550f89ca112f",
      "s": "0x315dee20ac1466b501b7d5c8b311df39b5348241a009fb3bbb9e451db6973e1b",
      "v": 28,
      "creates": null,
      "raw": "0xf86c0a850ba43b74008252089432be343b94f860124dc4fee278fdcbd38c102d8888c23b3f6bfba6a000801ca06a4f0df28799470245a1f1b5f165a723efe16897a095e712d7ee550f89ca112fa0315dee20ac1466b501b7d5c8b311df39b5348241a009fb3bbb9e451db6973e1b",
      "networkId": 0,
      "chainId": 0
    },
    {
      "hash": "0xd92e96cbdfdccdee1bf83fb3c80448f74dcbb4796ae46d9bed74c6ed2a2046b4",
      "blockHash": "0xa829832720a78356b095cb5b2f6a73a59cb65c483f59c4b35c2c21c40f76a669",
      "blockNumber": 119578,
      "transactionIndex": 2,
      "confirmations": null,
      "from": "0xf15B7384b900a75f5909f72BE3f0100221d88C1F",
      "gasPrice": {
        "_hex": "0xba43b7400"
      },
      "gasLimit": {
        "_hex": "0x249f0"
      },
      "to": "0xE28e72FCf78647ADCe1F1252F240bbfaebD63BcC",
      "value": {
        "_hex": "0x1236efcbcbb340000"
      },
      "nonce": 4,
      "data": "0x45466f3a",
      "r": "0xedd70e3442c9daa87cd725bf7163cce2b6145dc3012ebdc0d349c6c4614505a1",
      "s": "0x7f141de522436e8134b7047abe562537d9c693aba74a9e2f2609c334fc8d849e",
      "v": 28,
      "creates": null,
      "raw": "0xf87204850ba43b7400830249f094e28e72fcf78647adce1f1252f240bbfaebd63bcc8901236efcbcbb3400008445466f3a1ca0edd70e3442c9daa87cd725bf7163cce2b6145dc3012ebdc0d349c6c4614505a1a07f141de522436e8134b7047abe562537d9c693aba74a9e2f2609c334fc8d849e",
      "networkId": 0,
      "chainId": 0
    }
  ]
}