{
  "hash": "0xc80c5a8888d4cd5568162560fb98d8227be2eeb7b8f0c84ac52f201246b025af",
  "parentHash": "0x63056ef07415977567a4baa0977e441c4f6a362a2cf3aabdb1c89ec8ffcc3acb",
  "number": 91208,
  "timestamp": 1439652036,
  "nonce": "0xbc37585c05c21eac",
  "difficulty": 3447366287421,
  "gasLimit": {
    "_hex": "0x2fefd8"
  },
  "gasUsed": {
    "_hex": "0xa410"
  },
  "miner": "0xe6A7a1d47ff21B6321162AEA7C6CB457D5476Bca",
  "extraData": "0x476574682f76312e302e312d38326566323666362f6c696e75782f676f312e34",
  "transactions": [
    {
      "hash": "0x63d8879bc3ee9e6e43f5d99d6c8a2d27de9785517e8a28cbb356d22b42eae289",
      "blockHash": "0xc80c5a8888d4cd5568162560fb98d8227be2eeb7b8f0c84ac52f201246b025af",
      "blockNumber": 91208,
      "transactionIndex": 0,
      "confirmations": null,
      "from": "0xa70a9a7040d542C632D8e0bE7c5513A8a5Bbc752",
      "gasPrice": {
        "_hex": "0xde3055101"
      },
      "gasLimit": {
        "_hex": "0x5208"
      },
      "to": "0x32Be343B94f860124dC4fEe278FDCBD38C102D88",
      "value": {
        "_hex": "0x455f1224a4f23800"
      },
      "nonce": 118,
      "data": "0x",
      "r": "0x070c14ae3067412f284c7ab9f00a0fcfdfd84dd6793704c0a73ae26da334cd80",
      "s": "0x1508edd2ff226a19dfe98833fa0c01c9aeb88d0e9c043b5b6396bc9a3ec6679e",
      "v": 28,
      "creates": null,
      "raw": "0xf86c76850de30551018252089432be343b94f860124dc4fee278fdcbd38c102d8888455f1224a4f23800801ca0070c14ae3067412f284c7ab9f00a0fcfdfd84dd6793704c0a73ae26da334cd80a01508edd2ff226a19dfe98833fa0c01c9aeb88d0e9c043b5b6396bc9a3ec6679e",
      "networkId": 0,
      "chainId": 0
    },
    {
      "hash": "0xa4ed61116731ee16d0a24e58323e1990a748cf6f98f39b27efcf26aba47689e5",
      "blockHash": "0xc80c5a8888d4cd5568162560fb98d8227be2eeb7b8f0c84ac52f201246b025af",
      "blockNumber": 91208,
      "transactionIndex": 1,
      "confirmations": null,
      "from": "0x32Be343B94f860124dC4fEe278FDCBD38C102D88",
      "gasPrice": {
        "_hex": "0xde3055101"
      },
      "gasLimit": {
        "_hex": "0x5208"
      },
      "to": "0x056507108FE6d30189EcCD6cd7F4Fad56eEef622",
      "value": {
        "_hex": "0x1007266da926bb000"
      },
      "nonce": 868,
      "data": "0x",
      "r": "0xf7b688080a48f88102f7bfbb21967dc1bc14858d1ae302a32a22a480b7d66858",
      "s": "0x7a5c706d39f116fd3b106ed2ae449460e8a1548b4cd4136345ffe9bd3834b650",
      "v": 27,
      "creates": null,
      "raw": "0xf86f820364850de305510182520894056507108fe6d30189eccd6cd7f4fad56eeef6228901007266da926bb000801ba0f7b688080a48f88102f7bfbb21967dc1bc14858d1ae302a32a22a480b7d66858a07a5c706d39f116fd3b106ed2ae449460e8a1548b4cd4136345ffe9bd3834b650",
      "networkId": 0,
      "chainId": 0
    }
  ]
}