{
  "hash": "0x3e75605638d9d548b0a6cf4883ebd50267f19c6486e762dae8f7261b3c5fc5a7",
  "parentHash": "0xb92737d0b7790029be769873c6ea75aaf517e4c3aa78943924ae4ac67a2b10c2",
  "number": 96401,
  "timestamp": 1439739808,
  "nonce": "0x8e34a25933138bf9",
  "difficulty": 3665640987429,
  "gasLimit": {
    "_hex": "0x2fefd8"
  },
  "gasUsed": {
    "_hex": "0x5208"
  },
  "miner": "0xe6A7a1d47ff21B6321162AEA7C6CB457D5476Bca",
  "extraData": "0x476574682f76312e302e312d38326566323666362f6c696e75782f676f312e34",
  "transactions": [
    {
      "hash": "0x2ae18acea8600e126d787d5c7ce92cbdb2220a969047693d2040f33219c4b161",
      "blockHash": "0x3e75605638d9d548b0a6cf4883ebd50267f19c6486e762dae8f7261b3c5fc5a7",
      "blockNumber": 96401,
      "transactionIndex": 0,
      "confirmations": null,
      "from": "0x007f7f58D3eb5b7510A301eCC749FC1fCDDBE14D",
      "gasPrice": {
        "_hex": "0xcc8ddf695"
      },
      "gasLimit": {
        "_hex": "0x15f90"
      },
      "to": "0xb1abce2918E21ddb93AA452731a12672A3d9F75a",
      "value": {
        "_hex": "0x4563918244f40000"
      },
      "nonce": 81,
      "data": "0x",
      "r": "0xcbca6bfa4802c9ac0289de15c7dbf1cacea362ab76fab53277fa42570af4fb66",
      "s": "0x164accd0ac9bb6af67ca340555dca8be6451a33886a84b01ea2a4df2b8e0e9e1",
      "v": 27,
      "creates": null,
      "raw": "0xf86d51850cc8ddf69583015f9094b1abce2918e21ddb93aa452731a12672a3d9f75a884563918244f40000801ba0cbca6bfa4802c9ac0289de15c7dbf1cacea362ab76fab53277fa42570af4fb66a0164accd0ac9bb6af67ca340555dca8be6451a33886a84b01ea2a4df2b8e0e9e1",
      "networkId": 0,
      "chainId": 0
    }
  ]
}