{
  "hash": "0x1fbb0a15f960b4d7d51534ac9f90ba2b31c0ef033977106221eb5c37565483e5",
  "parentHash": "0xa3d8ea1e3cfdc8541b5415400f1c802cb2a50f3b5a81281f3026a505eaed3a7e",
  "number": 121969,
  "timestamp": 1440185657,
  "nonce": "0x4a05a140c08c3741",
  "difficulty": 4486322895859,
  "gasLimit": {
    "_hex": "0x2fefd8"
  },
  "gasUsed": {
    "_hex": "0x1ec30"
  },
  "miner": "0x9746c7e1ef2bd21FF3997fa467593a89cb852BD0",
  "extraData": "0x476574682f76312e302e312f77696e646f77732f676f312e342e32",
  "transactions": [
    {
      "hash": "0xa7eb8d377ed015e7d025ea3efd1854968e74aefcd3046501750697ae6c6be4be",
      "blockHash": "0x1fbb0a15f960b4d7d51534ac9f90ba2b31c0ef033977106221eb5c37565483e5",
      "blockNumber": 121969,
      "transactionIndex": 0,
      "confirmations": null,
      "from": "0xBdF25376dA0767EfBF7eE3dCAe463ECe5572bFF3",
      "gasPrice": {
        "_hex": "0xde41ce2e5"
      },
      "gasLimit": {
        "_hex": "0x15f90"
      },
      "to": "0x9b0a028EAfDeCdE3AFc0fD00B7937098388b7C8a",
      "value": {
        "_hex": "0xd1b2d331ad7d4bad8"
      },
      "nonce": 7,
      "data": "0x",
      "r": "0x3521d9639a5d55fef64e9b773ba6f0bbc03e63763967f47b66847008e15bf838",
      "s": "0x1219d7a9985587e7d63e7ab6e2e101225a0ae1f03e4c69419f1b04acabc6a894",
      "v": 28,
      "creates": null,
      "raw": "0xf86e07850de41ce2e583015f90949b0a028eafdecde3afc0fd00b7937098388b7c8a890d1b2d331ad7d4bad8801ca03521d9639a5d55fef64e9b773ba6f0bbc03e63763967f47b66847008e15bf838a01219d7a9985587e7d63e7ab6e2e101225a0ae1f03e4c69419f1b04acabc6a894",
      "networkId": 0,
      "chainId": 0
    },
    {
      "hash": "0xa1cc4e8b3b51e1adbf9a524d7dcfc1d91972280a1a9b402d1ac03bdc1fbd2d73",
      "blockHash": "0x1fbb0a15f960b4d7d51534ac9f90ba2b31c0ef033977106221eb5c37565483e5",
      "blockNumber": 121969,
      "transactionIndex": 1,
      "confirmations": null,
      "from": "0xFFf1471A813EaF20Ade11C3d58E3a64157216587",
      "gasPrice": {
        "_hex": "0xde41ce2e5"
      },
      "gasLimit": {
        "_hex": "0x15f90"
      },
      "to": "0x9b0a028EAfDeCdE3AFc0fD00B7937098388b7C8a",
      "value": {
        "_hex": "0xd9b3bb8e99973d5f0"
      },
      "nonce": 4,
      "data": "0x",
      "r": "0xa8a9cd085ead24c89e2a9f8c8152adfdfc43ef6b6080913496397290b4accaf1",
      "s": "0x61ca09c04e283cdf281999ef41afb2f7e38060393f2783fdbd6d0a6a158c511e",
      "v": 27,
      "creates": null,
      "raw": "0xf86e04850de41ce2e583015f90949b0a028eafdecde3afc0fd00b7937098388b7c8a890d9b3bb8e99973d5f0801ba0a8a9cd085ead24c89e2a9f8c8152adfdfc43ef6b6080913496397290b4accaf1a061ca09c04e283cdf281999ef41afb2f7e38060393f2783fdbd6d0a6a158c511e",
      "networkId": 0,
      "chainId": 0
    },
    {
      "hash": "0x42dc5e8f0721e43c160ab97fd3c808d7473af3c794585b1bd5642bc6948f60e3",
      "blockHash": "0x1fbb0a15f960b4d7d51534ac9f90ba2b31c0ef033977106221eb5c37565483e5",
      "blockNumber": 121969,
      "transactionIndex": 2,
      "confirmations": null,
      "from": "0x608f4b86321a68453f9adf6F06F7Fc3E621739ad",
      "gasPrice": {
        "_hex": "0xdc0ad5d05"
      },
      "gasLimit": {
        "_hex": "0x5208"
      },
      "to": "0x32Be343B94f860124dC4fEe278FDCBD38C102D88",
      "value": {
        "_hex": "0x8acbac11cf615000"
      },
      "nonce": 118,
      "data": "0x",
      "r": "0xf340a453a561ef06b13b7b2fbfe49980564c3db8674b63065678a4ff725eb4c6",
      "s": "0x7a2a6a23c6ca8ea99ccfe2f8203be72e08e88ac787fa5e19631804b7fa216342",
      "v": 28,
      "creates": null,
      "raw": "0xf86c76850dc0ad5d058252089432be343b94f860124dc4fee278fdcbd38c102d88888acbac11cf615000801ca0f340a453a561ef06b13b7b2fbfe49980564c3db8674b63065678a4ff725eb4c6a07a2a6a23c6ca8ea99ccfe2f8203be72e08e88ac787fa5e19631804b7fa216342",
      "networkId": 0,
      "chainId": 0
    },
    {
      "hash": "0xf7b96665fc92965a3d809ce7fdad1ca54f7f502956f24b335ed1b545dc8e3546",
      "blockHash": "0x1fbb0a15f960b4d7d51534ac9f90ba2b31c0ef033977106221eb5c37565483e5",
      "blockNumber": 121969,
      "transactionIndex": 3,
      "confirmations": null,
      "from": "0x13258A1Aa418C990ce59616C26338A44899d854c",
      "gasPrice": {
        "_hex": "0xdc0ad5d05"
      },
      "gasLimit": {
        "_hex": "0x5208"
      },
      "to": "0x32Be343B94f860124dC4fEe278FDCBD38C102D88",
      "value": {
        "_hex": "0x7eaf25df23181400"
      },
      "nonce": 10,
      "data": "0x",
      "r": "0x7ce8f2059ada422e9239a8f77f1ce6ebf0e7380b663fca0402908766ae19f4d4",
      "s": "0x20adf21ab058fe04fc385fb989577d004c25e3a3c34216a06fc9cc88cf4c8d96",
      "v": 27,
      "creates": null,
      "raw": "0xf86c0a850dc0ad5d058252089432be343b94f860124dc4fee278fdcbd38c102d88887eaf25df23181400801ba07ce8f2059ada422e9239a8f77f1ce6ebf0e7380b663fca0402908766ae19f4d4a020adf21ab058fe04fc385fb989577d004c25e3a3c34216a06fc9cc88cf4c8d96",
      "networkId": 0,
      "chainId": 0
    },
    {
      "hash": "0x328cec629ead1f00872abbce8f2b1ebc8fa3142d85ee9440d72aa69b2b78ff2c",
      "blockHash": "0x1fbb0a15f960b4d7d51534ac9f90ba2b31c0ef033977106221eb5c37565483e5",
      "blockNumber": 121969,
      "transactionIndex": 4,
      "confirmations": null,
      "from": "0xc597A5d92F5dC1137D847db733cfe02c6d209f13",
      "gasPrice": {
        "_hex": "0xba43b7400"
      },
      "gasLimit": {
        "_hex": "0x15f90"
      },
      "to": "0x5F965F10e1BD020753Ca496fee6b3E4D809aff67",
      "value": {
        "_hex": "0x7d76072d019f74000"
      },
      "nonce": 55,
      "data": "0x",
      "r": "0xab81c81e76951f4b8e2d16d9127501d4156e7da96daabdb819d4fa389d9802b4",
      "s": "0x04beb5cdf17095f2bebe1a5bd7d3e8be443901f17b1fce333d91c285f8e50457",
      "v": 28,
      "creates": null,
      "raw": "0xf86e37850ba43b740083015f90945f965f10e1bd020753ca496fee6b3e4d809aff678907d76072d019f74000801ca0ab81c81e76951f4b8e2d16d9127501d4156e7da96daabdb819d4fa389d9802b4a004beb5cdf17095f2bebe1a5bd7d3e8be443901f17b1fce333d91c285f8e50457",
      "networkId": 0,
      "chainId": 0
    },
    {
      "hash": "0xe18c73054867067be5a4938f8411493fcb93a8be9752bcc7a70dd5b497a6b6b3",
      "blockHash": "0x1fbb0a15f960b4d7d51534ac9f90ba2b31c0ef033977106221eb5c37565483e5",
      "blockNumber": 121969,
      "transactionIndex": 5,
      "confirmations": null,
      "from": "0x0BD4cde622A0c41f9C81a3b3fab5a5bDCAd21528",
      "gasPrice": {
        "_hex": "0xba43b7400"
      },
      "gasLimit": {
        "_hex": "0x15f90"
      },
      "to": "0xdd3EDA6dB1BBEC156B35df3C03fbd93D2c34493B",
      "value": {
        "_hex": "0x88009813ced40000"
      },
      "nonce": 2,
      "data": "0x",
      "r": "0x45a9d70559b7225682b70ba187a8b469e61f97a0cfb836acca37a023a4afc402",
      "s": "0x1ab0252226c49abce2ef15ab7994baf6775c7ac9ab382b4076eac7df02b08946",
      "v": 28,
      "creates": null,
      "raw": "0xf86d02850ba43b740083015f9094dd3eda6db1bbec156b35df3c03fbd93d2c34493b8888009813ced40000801ca045a9d70559b7225682b70ba187a8b469e61f97a0cfb836acca37a023a4afc402a01ab0252226c49abce2ef15ab7994baf6775c7ac9ab382b4076eac7df02b08946",
      "networkId": 0,
      "chainId": 0
    }
  ]
}