{
  "hash": "0xa2bcb1b0de8f76900b08bfe909f6d8a32a56c5d68295c3b762a2e97be9b87741",
  "parentHash": "0xe6723b1fcf93aa31b1753238dd6a7488530695d12fd7cfb7dc6458b9ef0c2021",
  "number": 69419,
  "timestamp": 1439303902,
  "nonce": "0x65c5dff447eeb73f",
  "difficulty": 2054820351058,
  "gasLimit": {
    "_hex": "0x2fefd8"
  },
  "gasUsed": {
    "_hex": "0xa410"
  },
  "miner": "0x9D49F602b0fdb924Bd63DDE2Bd0907E4A07c63a7",
  "extraData": "0x476574682f76312e302e312f6c696e75782f676f312e342e32",
  "transactions": [
    {
      "hash": "0x99e26dff9a43874ec013e7cfa55e68ce77e68b8e62bcbe6cd00464bd9504ca7f",
      "blockHash": "0xa2bcb1b0de8f76900b08bfe909f6d8a32a56c5d68295c3b762a2e97be9b87741",
      "blockNumber": 69419,
      "transactionIndex": 0,
      "confirmations": null,
      "from": "0x0cA19A53a3256482A89770FC1daFC7630717F201",
      "gasPrice": {
        "_hex": "0xcbcc33a6f"
      },
      "gasLimit": {
        "_hex": "0x5208"
      },
      "to": "0x32Be343B94f860124dC4fEe278FDCBD38C102D88",
      "value": {
        "_hex": "0xdcade5d4768f000"
      },
      "nonce": 0,
      "data": "0x",
      "r": "0xe5552f14aec40021af45a0ff5f5bf297d0aa1c8ebedfb93412a14f4403b0652c",
      "s": "0x1169d477152ded5c79831499b3a2ef8994532ffbfa594ecd54a2b0fc379efe0d",
      "v": 28,
      "creates": null,
      "raw": "0xf86c80850cbcc33a6f8252089432be343b94f860124dc4fee278fdcbd38c102d88880dcade5d4768f000801ca0e5552f14aec40021af45a0ff5f5bf297d0aa1c8ebedfb93412a14f4403b0652ca01169d477152ded5c79831499b3a2ef8994532ffbfa594ecd54a2b0fc379efe0d",
      "networkId": 0,
      "chainId": 0
    },
    {
      "hash": "0xf0c9d6ee44eddd8f42b78c8575a68ffb9fe83f496d9398805aad33eee1658541",
      "blockHash": "0xa2bcb1b0de8f76900b08bfe909f6d8a32a56c5d68295c3b762a2e97be9b87741",
      "blockNumber": 69419,
      "transactionIndex": 1,
      "confirmations": null,
      "from": "0x3f0073d6bBE51612013aA09BC970e08E84D7BA23",
      "gasPrice": {
        "_hex": "0xcbcc33a6f"
      },
      "gasLimit": {
        "_hex": "0x5208"
      },
      "to": "0x32Be343B94f860124dC4fEe278FDCBD38C102D88",
      "value": {
        "_hex": "0xdee934bada52b8000"
      },
      "nonce": 8,
      "data": "0x",
      "r": "0x57784a851666ee861ac105bb781128632fd48f901486e4796562c4b0dfe80750",
      "s": "0x4c266d7c741549b29977bcb43f47a2257e628c508cc208c5559c35f46ae7c2de",
      "v": 27,
      "creates": null,
      "raw": "0xf86d08850cbcc33a6f8252089432be343b94f860124dc4fee278fdcbd38c102d88890dee934bada52b8000801ba057784a851666ee861ac105bb781128632fd48f901486e4796562c4b0dfe80750a04c266d7c741549b29977bcb43f47a2257e628c508cc208c5559c35f46ae7c2de",
      "networkId": 0,
      "chainId": 0
    }
  ]
}