{
  "hash": "0xd9ce0719da9cc4321677fd3ac6f451558b97821782826c27f8329ea02b90caa7",
  "parentHash": "0xa63d2fc422d978c8a2d0428351029bb84ea4a92ab466cead0de64df535d8d8d8",
  "number": 95651,
  "timestamp": 1439727311,
  "nonce": "0xe04e60ccd73fc0c1",
  "difficulty": 3616189131376,
  "gasLimit": {
    "_hex": "0x2fefd8"
  },
  "gasUsed": {
    "_hex": "0xf87c"
  },
  "miner": "0xe6A7a1d47ff21B6321162AEA7C6CB457D5476Bca",
  "extraData": "0x476574682f76312e302e312d38326566323666362f6c696e75782f676f312e34",
  "transactions": [
    {
      "hash": "0x0cae357a31c1a70e0602637682482a5a5c220cbe4458aeb1e82add371fed0352",
      "blockHash": "0xd9ce0719da9cc4321677fd3ac6f451558b97821782826c27f8329ea02b90caa7",
      "blockNumber": 95651,
      "transactionIndex": 0,
      "confirmations": null,
      "from": "0xA88577a073FbAF33C4cD202e00ea70ef711b4006",
      "gasPrice": {
        "_hex": "0x110c8f7d8de"
      },
      "gasLimit": {
        "_hex": "0xc350"
      },
      "to": "0x2910543Af39abA0Cd09dBb2D50200b3E800A63D2",
      "value": {
        "_hex": "0xde0b6b3a7640000"
      },
      "nonce": 0,
      "data": "0x454e484e3745414347",
      "r": "0x95d41df7972a005b75122fbad00b997e48822f3afb91f008fe5833e573abd590",
      "s": "0xbc12ef149dba72ede69d4cdbb706bc3d4cc829a78306b1df183647b1374ec0ef",
      "v": 27,
      "creates": null,
      "raw": "0xf87680860110c8f7d8de82c350942910543af39aba0cd09dbb2d50200b3e800a63d2880de0b6b3a764000089454e484e37454143471ba095d41df7972a005b75122fbad00b997e48822f3afb91f008fe5833e573abd590a0bc12ef149dba72ede69d4cdbb706bc3d4cc829a78306b1df183647b1374ec0ef",
      "networkId": 0,
      "chainId": 0
    },
    {
      "hash": "0x25a065410182fb90c0116e5c88a4a23fffb3222e691412de3db9af95e9273802",
      "blockHash": "0xd9ce0719da9cc4321677fd3ac6f451558b97821782826c27f8329ea02b90caa7",
      "blockNumber": 95651,
      "transactionIndex": 1,
      "confirmations": null,
      "from": "0x1332996a46dcBBE02f9cF164Dfc153aB976a9766",
      "gasPrice": {
        "_hex": "0xba43b7400"
      },
      "gasLimit": {
        "_hex": "0x5208"
      },
      "to": "0xC47Aaa860008be6f65B58c6C6E02a84e666EfE31",
      "value": {
        "_hex": "0xddcfbbb7a606000"
      },
      "nonce": 2,
      "data": "0x",
      "r": "0xc5a47509699ec4a2a54fab7fdc3c62488407ed0218ef2d54b69451199a411d8d",
      "s": "0x0f397c4ff6671d168f5ce92fd9c7270602a925e52e1e70ccd9b80acd3b81d0bb",
      "v": 27,
      "creates": null,
      "raw": "0xf86c02850ba43b740082520894c47aaa860008be6f65b58c6c6e02a84e666efe31880ddcfbbb7a606000801ba0c5a47509699ec4a2a54fab7fdc3c62488407ed0218ef2d54b69451199a411d8da00f397c4ff6671d168f5ce92fd9c7270602a925e52e1e70ccd9b80acd3b81d0bb",
      "networkId": 0,
      "chainId": 0
    },
    {
      "hash": "0xcfdfc3d30381b1de5995287698ee47e0351deb90d89cf40bb61f27bc53673196",
      "blockHash": "0xd9ce0719da9cc4321677fd3ac6f451558b97821782826c27f8329ea02b90caa7",
      "blockNumber": 95651,
      "transactionIndex": 2,
      "confirmations": null,
      "from": "0x52F791EE5e11186Fc120EaB36Dd80277F6A630BB",
      "gasPrice": {
        "_hex": "0xba43b7400"
      },
      "gasLimit": {
        "_hex": "0x5208"
      },
      "to": "0xC47Aaa860008be6f65B58c6C6E02a84e666EfE31",
      "value": {
        "_hex": "0x377f1fd6708c38f0"
      },
      "nonce": 3,
      "data": "0x",
      "r": "0x417cf87aa3aa9caa7c8e308e239e55867f7c639124ecefc1d8b5878e11f8096d",
      "s": "0x2cadd544fce9cb8aedb3b9f4d5a58e224fa6d0e12cc8cbf0487dca64220049f1",
      "v": 27,
      "creates": null,
      "raw": "0xf86c03850ba43b740082520894c47aaa860008be6f65b58c6c6e02a84e666efe3188377f1fd6708c38f0801ba0417cf87aa3aa9caa7c8e308e239e55867f7c639124ecefc1d8b5878e11f8096da02cadd544fce9cb8aedb3b9f4d5a58e224fa6d0e12cc8cbf0487dca64220049f1",
      "networkId": 0,
      "chainId": 0
    }
  ]
}