{
  "hash": "0xd1341e91e4a699c02fbb180454145012908644c6c8774d10fbb660fd1b9268b0",
  "parentHash": "0x737d0b29d78ec51059c525c8948e626c3f2b2609268c06cfb3417f6c805d98a7",
  "number": 48230,
  "timestamp": 1438953810,
  "nonce": "0x794f2a4701eb677f",
  "difficulty": 1454365598713,
  "gasLimit": {
    "_hex": "0x14036"
  },
  "gasUsed": {
    "_hex": "0xa410"
  },
  "miner": "0xbb7B8287f3F0a933474a79eAe42CBCa977791171",
  "extraData": "0x476574682f4c5649562f76312e302e312f6c696e75782f676f312e342e32",
  "transactions": [
    {
      "hash": "0xf0ed222c10aef88704c40fc622dcdaae0dd0f27a9a8f041cab5fbefffeae4bb6",
      "blockHash": "0xd1341e91e4a699c02fbb180454145012908644c6c8774d10fbb660fd1b9268b0",
      "blockNumber": 48230,
      "transactionIndex": 0,
      "confirmations": null,
      "from": "0x3734Cb187491eDE713ae5b3b2D12284Af46B8101",
      "gasPrice": {
        "_hex": "0x10041aab762"
      },
      "gasLimit": {
        "_hex": "0x56ce"
      },
      "to": "0xD2c15be6348756F691bb98F60dFebE61E6bE3B56",
      "value": {
        "_hex": "0x1b1ae4d6e2ef500000"
      },
      "nonce": 1,
      "data": "0x",
      "r": "0xd57c1d12f91065b25ff63694229b53e6ed8c4ac28a93d5374dc5e3bf67885c43",
      "s": "0x084a74c37695714983de758fd1fd1753f209655a11705578109f63a5dca57592",
      "v": 27,
      "creates": null,
      "raw": "0xf86e0186010041aab7628256ce94d2c15be6348756f691bb98f60dfebe61e6be3b56891b1ae4d6e2ef500000801ba0d57c1d12f91065b25ff63694229b53e6ed8c4ac28a93d5374dc5e3bf67885c43a0084a74c37695714983de758fd1fd1753f209655a11705578109f63a5dca57592",
      "networkId": 0,
      "chainId": 0
    },
    {
      "hash": "0x4cbcec259999e073fc4fb0e0e4a612425e3d73392fa225ff2460a1eeab42630a",
      "blockHash": "0xd1341e91e4a699c02fbb180454145012908644c6c8774d10fbb660fd1b9268b0",
      "blockNumber": 48230,
      "transactionIndex": 1,
      "confirmations": null,
      "from": "0xdd2F1e6e498202e86D8f5442Af596580A4f03c2C",
      "gasPrice": {
        "_hex": "0xd0ee60182"
      },
      "gasLimit": {
        "_hex": "0x55f0"
      },
      "to": "0x592f78Ca626684146D381285CA00dd91b375FD11",
      "value": {
        "_hex": "0xb1a2bc2ec50000"
      },
      "nonce": 0,
      "data": "0x",
      "r": "0xb271cf1adfb2400aea9031707fecd66ee08683e1fd37e90469278876f77eff13",
      "s": "0x7a2cdfb52f4ba9428de929fa21c2ffc26c7ecb4c9dfe454cf7f15ec573635205",
      "v": 27,
      "creates": null,
      "raw": "0xf86b80850d0ee601828255f094592f78ca626684146d381285ca00dd91b375fd1187b1a2bc2ec50000801ba0b271cf1adfb2400aea9031707fecd66ee08683e1fd37e90469278876f77eff13a07a2cdfb52f4ba9428de929fa21c2ffc26c7ecb4c9dfe454cf7f15ec573635205",
      "networkId": 0,
      "chainId": 0
    }
  ]
}