{
  "hash": "0x847c2791e734be0a078a25ad3e6705562e622452c7d3e2c0bde53c85657eb691",
  "parentHash": "0x1e2caac6682749f241d91f7d237ea9000145d5b5e4725d93090e2d82db8ab031",
  "number": 80453,
  "timestamp": 1439485713,
  "nonce": "0x8fe52ac6760a54d6",
  "difficulty": 2413269473319,
  "gasLimit": {
    "_hex": "0x2fefd8"
  },
  "gasUsed": {
    "_hex": "0x22093"
  },
  "miner": "0xf8E0CA3Ed80bd541b94BEdCf259e8CF2141A9523",
  "extraData": "0x476574682f76312e302e312f77696e646f77732f676f312e342e32",
  "transactions": [
    {
      "hash": "0x7dae0174a0dd180d0833acd105e97151e8bc7e1a4d6cdb4452b6d0a79b1f06bf",
      "blockHash": "0x847c2791e734be0a078a25ad3e6705562e622452c7d3e2c0bde53c85657eb691",
      "blockNumber": 80453,
      "transactionIndex": 0,
      "confirmations": null,
      "from": "0x87C5B5874A18B4306DF8a752a6C8cc3E82daFc19",
      "gasPrice": {
        "_hex": "0x10ae26a5408"
      },
      "gasLimit": {
        "_hex": "0x493e0"
      },
      "to": "0xC4c51de1AbF5D60DBd329eC0F999Fd8f021ae9fC",
      "value": {
        "_hex": "0x0"
      },
      "nonce": 211,
      "data": "0x03750d9400000000000000000000000087c5b5874a18b4306df8a752a6c8cc3e82dafc196b6b6b0000000000000000000000000000000000000000000000000000000000",
      "r": "0xfb2d2273e863cd3d51f82020725ae8f6c76f5adfc42f8be25fc43bf6ea9a4c2c",
      "s": "0x2b69d457fb1a7a6662daeb4818b1e6b7fe20c5c42413352f61b97100dff3a41b",
      "v": 27,
      "creates": null,
      "raw": "0xf8ac81d386010ae26a5408830493e094c4c51de1abf5d60dbd329ec0f999fd8f021ae9fc80b84403750d9400000000000000000000000087c5b5874a18b4306df8a752a6c8cc3e82dafc196b6b6b00000000000000000000000000000000000000000000000000000000001ba0fb2d2273e863cd3d51f82020725ae8f6c76f5adfc42f8be25fc43bf6ea9a4c2ca02b69d457fb1a7a6662daeb4818b1e6b7fe20c5c42413352f61b97100dff3a41b",
      "networkId": 0,
      "chainId": 0
    },
    {
      "hash": "0x03a6863ae3d73d5e08318ad2d007a3992234e211fedb8762ad578532cfc88436",
      "blockHash": "0x847c2791e734be0a078a25ad3e6705562e622452c7d3e2c0bde53c85657eb691",
      "blockNumber": 80453,
      "transactionIndex": 1,
      "confirmations": null,
      "from": "0xD1826373C4E0938f0b4302B40324f7f9c546492C",
      "gasPrice": {
        "_hex": "0xddb4e9c56"
      },
      "gasLimit": {
        "_hex": "0x15f90"
      },
      "to": "0x5F99D7Ece6B00868103daB44ceeAB57B9197eDCa",
      "value": {
        "_hex": "0x0"
      },
      "nonce": 34,
      "data": "0x237297a4",
      "r": "0x8ec96ea4983eb120a9f789397efa12c281c50f94583543a773d7f3b6eff2b72f",
      "s": "0x342f22f5cab3abfd2a166b84c0cec1b0f6111ffca84b382a501cd1be410ec733",
      "v": 28,
      "creates": null,
      "raw": "0xf86922850ddb4e9c5683015f90945f99d7ece6b00868103dab44ceeab57b9197edca8084237297a41ca08ec96ea4983eb120a9f789397efa12c281c50f94583543a773d7f3b6eff2b72fa0342f22f5cab3abfd2a166b84c0cec1b0f6111ffca84b382a501cd1be410ec733",
      "networkId": 0,
      "chainId": 0
    },
    {
      "hash": "0xe95f8fbb8e074b60fac3d96e6d3fa12584f2e84e5e4bb50e6bb9fe59a8e56a12",
      "blockHash": "0x847c2791e734be0a078a25ad3e6705562e622452c7d3e2c0bde53c85657eb691",
      "blockNumber": 80453,
      "transactionIndex": 2,
      "confirmations": null,
      "from": "0xaAeF19f383E42F9cA89f161F025932874848Bc33",
      "gasPrice": {
        "_hex": "0xd7d40ace3"
      },
      "gasLimit": {
        "_hex": "0x15f90"
      },
      "to": "0xaE5822ba0FD0A171C5499A20eAB936E0Ec974E15",
      "value": {
        "_hex": "0x191116ce198ca0000"
      },
      "nonce": 0,
      "data": "0x",
      "r": "0xeb05a153a13e2100c091d51d3d339bd74c3162b87bf6106bfe1131138966dccb",
      "s": "0x3bb74f90cda3d60db783b25d3145585bbc9ba82d883ee909501d30ee484db280",
      "v": 27,
      "creates": null,
      "raw": "0xf86e80850d7d40ace383015f9094ae5822ba0fd0a171c5499a20eab936e0ec974e15890191116ce198ca0000801ba0eb05a153a13e2100c091d51d3d339bd74c3162b87bf6106bfe1131138966dccba03bb74f90cda3d60db783b25d3145585bbc9ba82d883ee909501d30ee484db280",
      "networkId": 0,
      "chainId": 0
    }
  ]
}