{
  "hash": "0x4f3e5eaede66ddf0fcdc6e139abb80557891fb9a3e2eba5c3da1cf52bd08e774",
  "parentHash": "0x2e96a35ed8104cda6757dbecc6f8b56792f1c5c7129659738aab0d2f5c064d98",
  "number": 73277,
  "timestamp": 1439366423,
  "nonce": "0xd7a3619d129d26d7",
  "difficulty": 2205639704759,
  "gasLimit": {
    "_hex": "0x2fefd8"
  },
  "gasUsed": {
    "_hex": "0xc987"
  },
  "miner": "0x2134e2a2b718DCa96580ECAC31E653Ea1fdd58DA",
  "extraData": "0x476574682f76312e302e312f77696e646f77732f676f312e342e32",
  "transactions": [
    {
      "hash": "0x2f0565f6c7e90a7aa0258d7fbe920e2eb20e8fb358ebda48738a6a423620a8f1",
      "blockHash": "0x4f3e5eaede66ddf0fcdc6e139abb80557891fb9a3e2eba5c3da1cf52bd08e774",
      "blockNumber": 73277,
      "transactionIndex": 0,
      "confirmations": null,
      "from": "0x326Be8F71bFb0379f989aAB1CC1fE37f0a771f60",
      "gasPrice": {
        "_hex": "0x108af50d7ae"
      },
      "gasLimit": {
        "_hex": "0x493e0"
      },
      "to": "0xB86A36e3E0d2E8132F5798119148eDEF957E1912",
      "value": {
        "_hex": "0x8ac7230489e80000"
      },
      "nonce": 36,
      "data": "0x8d21618600000000000000000000000000000000000000000000000000000000000000808d5adaad541502933bfca57b79fdcf7b21a9ea7dbcf2e9321d253f5db02ac8f3",
      "r": "0x136bc1a0936503db79b56bed886b57e3230c80549d1a520a579836127a6b8e21",
      "s": "0x0f03c157a96615f8ed811e7c1df77163f06f012b41e4781b00b4bc67fe291038",
      "v": 28,
      "creates": null,
      "raw": "0xf8b324860108af50d7ae830493e094b86a36e3e0d2e8132f5798119148edef957e1912888ac7230489e80000b8448d21618600000000000000000000000000000000000000000000000000000000000000808d5adaad541502933bfca57b79fdcf7b21a9ea7dbcf2e9321d253f5db02ac8f31ca0136bc1a0936503db79b56bed886b57e3230c80549d1a520a579836127a6b8e21a00f03c157a96615f8ed811e7c1df77163f06f012b41e4781b00b4bc67fe291038",
      "networkId": 0,
      "chainId": 0
    }
  ]
}