{
  "hash": "0x150bb2136cc93244d1adb0608ba27b281ed425bbe8c3e1871dd8806a0d9b0b27",
  "parentHash": "0x0bfd97d94cefacb658e6ae5231d0f0d23a99484152da5e80918263fac2f871c8",
  "number": 94823,
  "timestamp": 1439714685,
  "nonce": "0x5ed55de6905af3b2",
  "difficulty": 3501855200837,
  "gasLimit": {
    "_hex": "0x2fefd8"
  },
  "gasUsed": {
    "_hex": "0x520c"
  },
  "miner": "0x55bAf64fc9eAccFFd7Cc643BB61142E1C6ac093e",
  "extraData": "0x",
  "transactions": [
    {
      "hash": "0x45c48877c6bc378015aa4318a79ba2464b9aa0cc5d1fd87863fbc196631190a1",
      "blockHash": "0x150bb2136cc93244d1adb0608ba27b281ed425bbe8c3e1871dd8806a0d9b0b27",
      "blockNumber": 94823,
      "transactionIndex": 0,
      "confirmations": null,
      "from": "0x8375eA550366a24550ec93283600485F4Ba8CFE5",
      "gasPrice": {
        "_hex": "0xdb9019f2e"
      },
      "gasLimit": {
        "_hex": "0x7530"
      },
      "to": "0xb9836ec1f42Bd48331bceaedb74a6Bcdc22832bD",
      "value": {
        "_hex": "0xde0b6b3a7640000"
      },
      "nonce": 19,
      "data": "0x00",
      "r": "0xe8f41b06be2f15caf267592d5adb4fd079f6127ab577e80e08a82d89b9fe12bf",
      "s": "0x2e1b9ccf4cbbf9374f09f5bffb4eba7a366c219d3b6c7518b49008334b2b9772",
      "v": 27,
      "creates": null,
      "raw": "0xf86c13850db9019f2e82753094b9836ec1f42bd48331bceaedb74a6bcdc22832bd880de0b6b3a7640000001ba0e8f41b06be2f15caf267592d5adb4fd079f6127ab577e80e08a82d89b9fe12bfa02e1b9ccf4cbbf9374f09f5bffb4eba7a366c219d3b6c7518b49008334b2b9772",
      "networkId": 0,
      "chainId": 0
    }
  ]
}