{
  "hash": "0xbe3ff96e9121857aab0871a7b03dff671ad7d6837c44d2f36e11e23430068c07",
  "parentHash": "0x8bbc1a6b1d949fe42e2aec667680b1f0626da2e2ab9703c58b149eac0c819b2e",
  "number": 122095,
  "timestamp": 1440188153,
  "nonce": "0xc6511e8c6f07d90b",
  "difficulty": 4460045716156,
  "gasLimit": {
    "_hex": "0x2fefd8"
  },
  "gasUsed": {
    "_hex": "0x5208"
  },
  "miner": "0xe6A7a1d47ff21B6321162AEA7C6CB457D5476Bca",
  "extraData": "0xd783010002844765746887676f312e342e32856c696e7578",
  "transactions": [
    {
      "hash": "0xe51c5102c8bdeed8298a3f50f7d0e22488ead14f107942b2f8b8d4e8aa78d6ed",
      "blockHash": "0xbe3ff96e9121857aab0871a7b03dff671ad7d6837c44d2f36e11e23430068c07",
      "blockNumber": 122095,
      "transactionIndex": 0,
      "confirmations": null,
      "from": "0x1a8E703197aCd1C0d3aB7ecD62dC01389F076E4b",
      "gasPrice": {
        "_hex": "0xba43b7400"
      },
      "gasLimit": {
        "_hex": "0x7a120"
      },
      "to": "0xBBDa93a81B882774e1c9b5e3F933Fa35DaC8bc88",
      "value": {
        "_hex": "0xd02ab486cedc0000"
      },
      "nonce": 3,
      "data": "0x",
      "r": "0xc087e2ea3865bf49f3d68dad01cb4928cff7813ffc276df7f0dd3551abeabf99",
      "s": "0x01ad9af1f3631a5e3c4ce77d66e3f934d238a45a37c6d834182f6dc080dd8e71",
      "v": 28,
      "creates": null,
      "raw": "0xf86d03850ba43b74008307a12094bbda93a81b882774e1c9b5e3f933fa35dac8bc8888d02ab486cedc0000801ca0c087e2ea3865bf49f3d68dad01cb4928cff7813ffc276df7f0dd3551abeabf99a001ad9af1f3631a5e3c4ce77d66e3f934d238a45a37c6d834182f6dc080dd8e71",
      "networkId": 0,
      "chainId": 0
    }
  ]
}