{
  "hash": "0x10129c0ec8b3c0dca9933b277e05c74b70dce40462a502e459f3daf70c0fdf50",
  "parentHash": "0x07be72aec729bce066c78a836b127db3bb946352268b92e1dea27e05ec95b43b",
  "number": 59030,
  "timestamp": 1439130905,
  "nonce": "0x2b167a3cfe0a40f7",
  "difficulty": 1708117211885,
  "gasLimit": {
    "_hex": "0x2fefd8"
  },
  "gasUsed": {
    "_hex": "0x546c"
  },
  "miner": "0x3A167C0210529AC2f5b4FCD9014bE11B48C565c6",
  "extraData": "0x476574682f76312e302e312f77696e646f77732f676f312e342e32",
  "transactions": [
    {
      "hash": "0x4b1c27aeec1216241a348a83ff12c7ca34dd0adff5522328ededa080b8ab743c",
      "blockHash": "0x10129c0ec8b3c0dca9933b277e05c74b70dce40462a502e459f3daf70c0fdf50",
      "blockNumber": 59030,
      "transactionIndex": 0,
      "confirmations": null,
      "from": "0x3eee6F1E96360b7689b3069AdAF9AF8EB60ce481",
      "gasPrice": {
        "_hex": "0x110c8f7d8de"
      },
      "gasLimit": {
        "_hex": "0xc350"
      },
      "to": "0x2910543Af39abA0Cd09dBb2D50200b3E800A63D2",
      "value": {
        "_hex": "0x1aff23697ba0880000"
      },
      "nonce": 1,
      "data": "0x454e595543434b3147",
      "r": "0xaef21527c4e1047898dc7467059fd6603e78905c7ee8bad8794b5a848ea06880",
      "s": "0x94a81e6eec9c5f7426df6a9bd51df69ef02a0a8053daa67b0a0f3b3b164b930f",
      "v": 28,
      "creates": null,
      "raw": "0xf87701860110c8f7d8de82c350942910543af39aba0cd09dbb2d50200b3e800a63d2891aff23697ba088000089454e595543434b31471ca0aef21527c4e1047898dc7467059fd6603e78905c7ee8bad8794b5a848ea06880a094a81e6eec9c5f7426df6a9bd51df69ef02a0a8053daa67b0a0f3b3b164b930f",
      "networkId": 0,
      "chainId": 0
    }
  ]
}