{
  "hash": "0x1cb2b5561f781469394a427326c7b3ecec9ffa2b701d8424272d8f4017f6a2ce",
  "parentHash": "0xdd6dc9a3e168360465e47104af4fa8667135ccff7e851fd3c5da34cdbd309c33",
  "number": 81675,
  "timestamp": 1439505760,
  "nonce": "0x615ca187d2ed078a",
  "difficulty": 2434218706939,
  "gasLimit": {
    "_hex": "0x2fefd8"
  },
  "gasUsed": {
    "_hex": "0xf618"
  },
  "miner": "0xe6A7a1d47ff21B6321162AEA7C6CB457D5476Bca",
  "extraData": "0x476574682f76312e302e312d38326566323666362f6c696e75782f676f312e34",
  "transactions": [
    {
      "hash": "0x6f9b7c15051408e2f30780f436153c82c5ed7d4905dfce1946ffbfe75c48e905",
      "blockHash": "0x1cb2b5561f781469394a427326c7b3ecec9ffa2b701d8424272d8f4017f6a2ce",
      "blockNumber": 81675,
      "transactionIndex": 0,
      "confirmations": null,
      "from": "0xF5EeDc192aB70b08D8354384aD94efD095849E00",
      "gasPrice": {
        "_hex": "0xcb7713090"
      },
      "gasLimit": {
        "_hex": "0x5208"
      },
      "to": "0x32Be343B94f860124dC4fEe278FDCBD38C102D88",
      "value": {
        "_hex": "0x2b5df9bef4228e000"
      },
      "nonce": 36,
      "data": "0x",
      "r": "0x5be843d31a94dbad26d91effec0f332aa3b63ac4d0a252991ae7dfb694c6b52f",
      "s": "0x7403a4a3b0f41dfb1ceb17bd1e259341c95c234bab8691faf4b6ff27479daa9f",
      "v": 27,
      "creates": null,
      "raw": "0xf86d24850cb77130908252089432be343b94f860124dc4fee278fdcbd38c102d888902b5df9bef4228e000801ba05be843d31a94dbad26d91effec0f332aa3b63ac4d0a252991ae7dfb694c6b52fa07403a4a3b0f41dfb1ceb17bd1e259341c95c234bab8691faf4b6ff27479daa9f",
      "networkId": 0,
      "chainId": 0
    },
    {
      "hash": "0xc25379c5310941876da13dc0a81c6ca5581ea2726d39a955403672be564e0f04",
      "blockHash": "0x1cb2b5561f781469394a427326c7b3ecec9ffa2b701d8424272d8f4017f6a2ce",
      "blockNumber": 81675,
      "transactionIndex": 1,
      "confirmations": null,
      "from": "0xAd941B747c499E3ad5728C285446813783A33564",
      "gasPrice": {
        "_hex": "0xcb7713090"
      },
      "gasLimit": {
        "_hex": "0x5208"
      },
      "to": "0x32Be343B94f860124dC4fEe278FDCBD38C102D88",
      "value": {
        "_hex": "0x8ac30fdd1a88e000"
      },
      "nonce": 10,
      "data": "0x",
      "r": "0x04a2bb8f6b9568e7501f3a1a77d3b47928b868899a91bdf9228d59389b5bd857",
      "s": "0x7a21ca1f404042d5c4799cb268e168d70d288a0c150722bacb931839fa34834d",
      "v": 27,
      "creates": null,
      "raw": "0xf86c0a850cb77130908252089432be343b94f860124dc4fee278fdcbd38c102d88888ac30fdd1a88e000801ba004a2bb8f6b9568e7501f3a1a77d3b47928b868899a91bdf9228d59389b5bd857a07a21ca1f404042d5c4799cb268e168d70d288a0c150722bacb931839fa34834d",
      "networkId": 0,
      "chainId": 0
    },
    {
      "hash": "0xabba221718a121319393382b0187ff2199ae5973a315cbd9aff582048263072d",
      "blockHash": "0x1cb2b5561f781469394a427326c7b3ecec9ffa2b701d8424272d8f4017f6a2ce",
      "blockNumber": 81675,
      "transactionIndex": 2,
      "confirmations": null,
      "from": "0xA605684b5727EE93d15CE6f56205B7a43ac58c68",
      "gasPrice": {
        "_hex": "0xba43b7400"
      },
      "gasLimit": {
        "_hex": "0x5b04"
      },
      "to": null,
      "value": {
        "_hex": "0x0"
      },
      "nonce": 0,
      "data": "0x",
      "r": "0x15f2fbd8d7b3d79d84b8610e8dc776176e1d00c235641d0211fb079237dc3239",
      "s": "0x7bc2cc2f475fef23036f6f74adbd55998ffc787afe918e78bc94baaacf296f05",
      "v": 27,
      "creates": "0x07aDBB40E244124595Fb57f9bc444421D3d2557D",
      "raw": "0xf85080850ba43b7400825b048080801ba015f2fbd8d7b3d79d84b8610e8dc776176e1d00c235641d0211fb079237dc3239a07bc2cc2f475fef23036f6f74adbd55998ffc787afe918e78bc94baaacf296f05",
      "networkId": 0,
      "chainId": 0
    }
  ]
}