{
  "hash": "0xe7efae1cb34d05652f0fcb13bc65a8460edbc7384d3329ddb5ca6c2340c5ce9e",
  "parentHash": "0x9a0c84e13faa1bb5c776e6cbec95152af20c9a72e531b9102c7693b879a9821a",
  "number": 76413,
  "timestamp": 1439420156,
  "nonce": "0xc3cd1b9e08843fd7",
  "difficulty": 2224278971097,
  "gasLimit": {
    "_hex": "0x2fefd8"
  },
  "gasUsed": {
    "_hex": "0xff7f"
  },
  "miner": "0x55bAf64fc9eAccFFd7Cc643BB61142E1C6ac093e",
  "extraData": "0x",
  "transactions": [
    {
      "hash": "0x4ce5ba1280ece668a46520a1afdc2102600c3a6ff79d18fd0676d13baebe001b",
      "blockHash": "0xe7efae1cb34d05652f0fcb13bc65a8460edbc7384d3329ddb5ca6c2340c5ce9e",
      "blockNumber": 76413,
      "transactionIndex": 0,
      "confirmations": null,
      "from": "0x87C5B5874A18B4306DF8a752a6C8cc3E82daFc19",
      "gasPrice": {
        "_hex": "0x1040c265a2b"
      },
      "gasLimit": {
        "_hex": "0x493e0"
      },
      "to": "0xD79B4C6791784184e2755B2fC1659eaaB0f80456",
      "value": {
        "_hex": "0x0"
      },
      "nonce": 76,
      "data": "0x03750d940000000000000000000000008be84a3adfbc51c59023b2413766e229108c35de3332323733346531623866653232383600000000000000000000000000000000",
      "r": "0x62c07459c226a9500b79cb8c2316d1c4f30ebb27dfef87b8dcb12fd3d3e63bdb",
      "s": "0x23963a69b68839c448e3f0956b84f5137f13db76ed414ad5ed813ae3b862ba14",
      "v": 27,
      "creates": null,
      "raw": "0xf8ab4c8601040c265a2b830493e094d79b4c6791784184e2755b2fc1659eaab0f8045680b84403750d940000000000000000000000008be84a3adfbc51c59023b2413766e229108c35de33323237333465316238666532323836000000000000000000000000000000001ba062c07459c226a9500b79cb8c2316d1c4f30ebb27dfef87b8dcb12fd3d3e63bdba023963a69b68839c448e3f0956b84f5137f13db76ed414ad5ed813ae3b862ba14",
      "networkId": 0,
      "chainId": 0
    },
    {
      "hash": "0xc3f08c59220ce94085dd337e0d68d17854653360fdf0d0f60139b313d094245a",
      "blockHash": "0xe7efae1cb34d05652f0fcb13bc65a8460edbc7384d3329ddb5ca6c2340c5ce9e",
      "blockNumber": 76413,
      "transactionIndex": 1,
      "confirmations": null,
      "from": "0x6c716b5177cC5c983057af4D88F7152ebA2CC0a6",
      "gasPrice": {
        "_hex": "0xdf5b5fae8"
      },
      "gasLimit": {
        "_hex": "0x5208"
      },
      "to": "0x32Be343B94f860124dC4fEe278FDCBD38C102D88",
      "value": {
        "_hex": "0x455f185d34b76800"
      },
      "nonce": 3,
      "data": "0x",
      "r": "0x47718c5a41df6493f3b03603f5c90f7982019065eed29b31514cda9e0a6b11cb",
      "s": "0x2bb7359225ee619c1c29ddd35d78b990a7c926a5ccf7dc3b4310af9abc998694",
      "v": 27,
      "creates": null,
      "raw": "0xf86c03850df5b5fae88252089432be343b94f860124dc4fee278fdcbd38c102d8888455f185d34b76800801ba047718c5a41df6493f3b03603f5c90f7982019065eed29b31514cda9e0a6b11cba02bb7359225ee619c1c29ddd35d78b990a7c926a5ccf7dc3b4310af9abc998694",
      "networkId": 0,
      "chainId": 0
    }
  ]
}