{
  "hash": "0x640ac864cdf1b1430e74e2467fa8a4f163e71eead8bbe68deb29326f14c8c2fe",
  "parentHash": "0x122ef4adb09016994e7a9330b10e4272394f22e030116e35debb08f39730a5ad",
  "number": 74827,
  "timestamp": 1439393108,
  "nonce": "0x78f72824fca8bdc7",
  "difficulty": 2188070942158,
  "gasLimit": {
    "_hex": "0x2fefd8"
  },
  "gasUsed": {
    "_hex": "0x5208"
  },
  "miner": "0x9746c7e1ef2bd21FF3997fa467593a89cb852BD0",
  "extraData": "0x476574682f76312e302e312f77696e646f77732f676f312e342e32",
  "transactions": [
    {
      "hash": "0x1678a5dcbfe4b5a9634bf72bfbf820629d3cac15d656a40c7c0a8a75c19f7dc9",
      "blockHash": "0x640ac864cdf1b1430e74e2467fa8a4f163e71eead8bbe68deb29326f14c8c2fe",
      "blockNumber": 74827,
      "transactionIndex": 0,
      "confirmations": null,
      "from": "0x481FBF5Ed8E1bC51d277dB7D8F51d95b758F05ED",
      "gasPrice": {
        "_hex": "0xba43b7400"
      },
      "gasLimit": {
        "_hex": "0x5265"
      },
      "to": "0x014e478251F22a79fA7014f285647d91462A9669",
      "value": {
        "_hex": "0x18de76816d8000"
      },
      "nonce": 4,
      "data": "0x",
      "r": "0xca05d29c5ca26148ae1ebbd4f838da2ee58cccf7a8f6b4cb0918172e7a6370b5",
      "s": "0x96ab4e4467e7d47bdb76143f955beaf66e45831606f6482ba2fd5cd58134f550",
      "v": 28,
      "creates": null,
      "raw": "0xf86b04850ba43b740082526594014e478251f22a79fa7014f285647d91462a96698718de76816d8000801ca0ca05d29c5ca26148ae1ebbd4f838da2ee58cccf7a8f6b4cb0918172e7a6370b5a096ab4e4467e7d47bdb76143f955beaf66e45831606f6482ba2fd5cd58134f550",
      "networkId": 0,
      "chainId": 0
    }
  ]
}