{
  "hash": "0xd5acaa8df3bb8ef16fe1060c516e76e5e06f6f0787c84dbe5ea1d5785a494fda",
  "parentHash": "0x76e72671c730ebc6141194d0884eb877dc37962f179fc01a51a97ed2ae92ad28",
  "number": 89084,
  "timestamp": 1439617945,
  "nonce": "0x08d52dc140f1c8f9",
  "difficulty": 3271109964322,
  "gasLimit": {
    "_hex": "0x2fefd8"
  },
  "gasUsed": {
    "_hex": "0xa410"
  },
  "miner": "0xe6A7a1d47ff21B6321162AEA7C6CB457D5476Bca",
  "extraData": "0x476574682f76312e302e312d38326566323666362f6c696e75782f676f312e34",
  "transactions": [
    {
      "hash": "0xeb86ad8fd8931e86723f690a191b159f41e6beb71df736aa4781b1cf11aa0f50",
      "blockHash": "0xd5acaa8df3bb8ef16fe1060c516e76e5e06f6f0787c84dbe5ea1d5785a494fda",
      "blockNumber": 89084,
      "transactionIndex": 0,
      "confirmations": null,
      "from": "0x06EC48800B2DB3eEfa052e98A9b5Fc2Bf783Ee74",
      "gasPrice": {
        "_hex": "0xda89864bb"
      },
      "gasLimit": {
        "_hex": "0x5208"
      },
      "to": "0x32Be343B94f860124dC4fEe278FDCBD38C102D88",
      "value": {
        "_hex": "0x15aed771c4aba4000"
      },
      "nonce": 8,
      "data": "0x",
      "r": "0x8da704cfa94442d6b80efb18cfbd178aa3c26e740b8ad876f7d51a0738401e85",
      "s": "0x221ec818c3e89d1da1d6bee94c9a3cc5084a3b854769bc5db4b98f238846b4c7",
      "v": 28,
      "creates": null,
      "raw": "0xf86d08850da89864bb8252089432be343b94f860124dc4fee278fdcbd38c102d8889015aed771c4aba4000801ca08da704cfa94442d6b80efb18cfbd178aa3c26e740b8ad876f7d51a0738401e85a0221ec818c3e89d1da1d6bee94c9a3cc5084a3b854769bc5db4b98f238846b4c7",
      "networkId": 0,
      "chainId": 0
    },
    {
      "hash": "0xa4f778b955a292463f9265171ac8d289de52efc2391747b420861468fd3bb420",
      "blockHash": "0xd5acaa8df3bb8ef16fe1060c516e76e5e06f6f0787c84dbe5ea1d5785a494fda",
      "blockNumber": 89084,
      "transactionIndex": 1,
      "confirmations": null,
      "from": "0xa6BDc31c431B8F97848c9D60cbbe9660dc450eB7",
      "gasPrice": {
        "_hex": "0xda89864bb"
      },
      "gasLimit": {
        "_hex": "0x5208"
      },
      "to": "0x32Be343B94f860124dC4fEe278FDCBD38C102D88",
      "value": {
        "_hex": "0x455f269ffd8be800"
      },
      "nonce": 85,
      "data": "0x",
      "r": "0x58f8dee1875f85713e80d6839a06ca7fb0a01795bf19b7811bdc922904a8960b",
      "s": "0x1a92c46dd42e94c408c5f91dc63f9d377c434594b0d0208f9e914f2246dc2ae0",
      "v": 27,
      "creates": null,
      "raw": "0xf86c55850da89864bb8252089432be343b94f860124dc4fee278fdcbd38c102d8888455f269ffd8be800801ba058f8dee1875f85713e80d6839a06ca7fb0a01795bf19b7811bdc922904a8960ba01a92c46dd42e94c408c5f91dc63f9d377c434594b0d0208f9e914f2246dc2ae0",
      "networkId": 0,
      "chainId": 0
    }
  ]
}