{
  "hash": "0xca62d48c3a15f479a0064ba8f3efa3f2554ca57d286f0a19f89f270dc6dfcd7e",
  "parentHash": "0xd2907ed39494811a004133d92a5ef9b16dd0107ac699bfebaf4c26b923971e5a",
  "number": 94746,
  "timestamp": 1439713567,
  "nonce": "0x77793eb49fe18867",
  "difficulty": 3479728967367,
  "gasLimit": {
    "_hex": "0x2fefd8"
  },
  "gasUsed": {
    "_hex": "0x1ec30"
  },
  "miner": "0x790b8a3cE86E707ED0eD32bF89B3269692a23CC1",
  "extraData": "0xd783010001844765746887676f312e342e32856c696e7578",
  "transactions": [
    {
      "hash": "0xadb0e0765fef5552ef3e04fd6be16ceee4395152c8f43f1b625f38d19d063554",
      "blockHash": "0xca62d48c3a15f479a0064ba8f3efa3f2554ca57d286f0a19f89f270dc6dfcd7e",
      "blockNumber": 94746,
      "transactionIndex": 0,
      "confirmations": null,
      "from": "0x250978C66B17d66f4167197A38b631d8900968C0",
      "gasPrice": {
        "_hex": "0xdeaad552f"
      },
      "gasLimit": {
        "_hex": "0x5208"
      },
      "to": "0x32Be343B94f860124dC4fEe278FDCBD38C102D88",
      "value": {
        "_hex": "0x7c8c54c87c68f0000"
      },
      "nonce": 2,
      "data": "0x",
      "r": "0xf5316792090a897e543f469292f40e76f399b7774426c6d3cbfdc04f70fe5928",
      "s": "0x1c3176df12b53656eab7d56b042b8d16f1ea321262928fc77f89351d085f6703",
      "v": 27,
      "creates": null,
      "raw": "0xf86d02850deaad552f8252089432be343b94f860124dc4fee278fdcbd38c102d888907c8c54c87c68f0000801ba0f5316792090a897e543f469292f40e76f399b7774426c6d3cbfdc04f70fe5928a01c3176df12b53656eab7d56b042b8d16f1ea321262928fc77f89351d085f6703",
      "networkId": 0,
      "chainId": 0
    },
    {
      "hash": "0xd0adf8bb6a51e6fd88cd60e0254b2275ee18f288ada87a03ad45e061b3f12cc2",
      "blockHash": "0xca62d48c3a15f479a0064ba8f3efa3f2554ca57d286f0a19f89f270dc6dfcd7e",
      "blockNumber": 94746,
      "transactionIndex": 1,
      "confirmations": null,
      "from": "0xF2C14aDd753869D4EEdfefdCdFBA341Abfa1D702",
      "gasPrice": {
        "_hex": "0xdeaad552f"
      },
      "gasLimit": {
        "_hex": "0x5208"
      },
      "to": "0x32Be343B94f860124dC4fEe278FDCBD38C102D88",
      "value": {
        "_hex": "0x16051166c90741000"
      },
      "nonce": 3,
      "data": "0x",
      "r": "0x826f4dc537e7f7f2b70fbd9bde844605fa5df29e9710c3a0a60a8ef4885fff5f",
      "s": "0x588418f26b7493931e7765af9b54756620d9cd947151df13d0e99860bd0a3908",
      "v": 28,
      "creates": null,
      "raw": "0xf86d03850deaad552f8252089432be343b94f860124dc4fee278fdcbd38c102d8889016051166c90741000801ca0826f4dc537e7f7f2b70fbd9bde844605fa5df29e9710c3a0a60a8ef4885fff5fa0588418f26b7493931e7765af9b54756620d9cd947151df13d0e99860bd0a3908",
      "networkId": 0,
      "chainId": 0
    },
    {
      "hash": "0x6d74f972c65a88457ef471fadd53d91b95dcbfe8888cf7bafbda3bdf783071c4",
      "blockHash": "0xca62d48c3a15f479a0064ba8f3efa3f2554ca57d286f0a19f89f270dc6dfcd7e",
      "blockNumber": 94746,
      "transactionIndex": 2,
      "confirmations": null,
      "from": "0xD671e71108Bd20F1A8e2A4f73a7449Bf8DAa840f",
      "gasPrice": {
        "_hex": "0xdeaad552f"
      },
      "gasLimit": {
        "_hex": "0x5208"
      },
      "to": "0x32Be343B94f860124dC4fEe278FDCBD38C102D88",
      "value": {
        "_hex": "0x4d709a2487ce7800"
      },
      "nonce": 4,
      "data": "0x",
      "r": "0x399068f97835515326fa0a4f9cb44f7554a77803d4f816328acd612a0ad3e9ad",
      "s": "0x2ad4d1a8b6cde0f0c842aab1fef89e0acd7d245a829e1e78a335eceb7cb34247",
      "v": 27,
      "creates": null,
      "raw": "0xf86c04850deaad552f8252089432be343b94f860124dc4fee278fdcbd38c102d88884d709a2487ce7800801ba0399068f97835515326fa0a4f9cb44f7554a77803d4f816328acd612a0ad3e9ada02ad4d1a8b6cde0f0c842aab1fef89e0acd7d245a829e1e78a335eceb7cb34247",
      "networkId": 0,
      "chainId": 0
    },
    {
      "hash": "0x36238c6034a6fe54799695e2af4e79f0a8c3eb2409c4c6a9cfd9db02a35d837a",
      "blockHash": "0xca62d48c3a15f479a0064ba8f3efa3f2554ca57d286f0a19f89f270dc6dfcd7e",
      "blockNumber": 94746,
      "transactionIndex": 3,
      "confirmations": null,
      "from": "0x0A38f5Ba343D4eA8641F955ecf98e1c43dF1B5a3",
      "gasPrice": {
        "_hex": "0xdeaad552f"
      },
      "gasLimit": {
        "_hex": "0x5208"
      },
      "to": "0x32Be343B94f860124dC4fEe278FDCBD38C102D88",
      "value": {
        "_hex": "0x20c2d4859b7d9a000"
      },
      "nonce": 2,
      "data": "0x",
      "r": "0x425c341c56807d2443ff8c11f4db697a68fa0f46ccd069db6b7744c5a95f8d81",
      "s": "0x5c77b3e4b64b2e9e848e1a5dff52c88d4cef0a5e1c9353d2c1f0bef33c7d444a",
      "v": 28,
      "creates": null,
      "raw": "0xf86d02850deaad552f8252089432be343b94f860124dc4fee278fdcbd38c102d8889020c2d4859b7d9a000801ca0425c341c56807d2443ff8c11f4db697a68fa0f46ccd069db6b7744c5a95f8d81a05c77b3e4b64b2e9e848e1a5dff52c88d4cef0a5e1c9353d2c1f0bef33c7d444a",
      "networkId": 0,
      "chainId": 0
    },
    {
      "hash": "0xdb931b9a675c189134275f2508c38fa0fbfbb0fd308ca8bf4ca1751fa54f4691",
      "blockHash": "0xca62d48c3a15f479a0064ba8f3efa3f2554ca57d286f0a19f89f270dc6dfcd7e",
      "blockNumber": 94746,
      "transactionIndex": 4,
      "confirmations": null,
      "from": "0x510EdA5601499a0D5E1A006BfFFd833672F2E267",
      "gasPrice": {
        "_hex": "0xd7d40ace3"
      },
      "gasLimit": {
        "_hex": "0x7a120"
      },
      "to": "0xa80b38CE85260252BDb8BE027868c1A32a2201a6",
      "value": {
        "_hex": "0xd8d726b7177a80000"
      },
      "nonce": 3,
      "data": "0x",
      "r": "0x5bd1acb1763d9667745bc68cbc3e1bf619ee82c54bfc2bf530385fdbda165500",
      "s": "0x43918f4da29de4d4b9addd9b7d9f0f02471f0cfbb11c915afc3332e1175a7b1d",
      "v": 28,
      "creates": null,
      "raw": "0xf86e03850d7d40ace38307a12094a80b38ce85260252bdb8be027868c1a32a2201a6890d8d726b7177a80000801ca05bd1acb1763d9667745bc68cbc3e1bf619ee82c54bfc2bf530385fdbda165500a043918f4da29de4d4b9addd9b7d9f0f02471f0cfbb11c915afc3332e1175a7b1d",
      "networkId": 0,
      "chainId": 0
    },
    {
      "hash": "0x9ec4ead44bbf311abd19eae4354e29154ace9f2581073bb7b2edd0fc550dd8d4",
      "blockHash": "0xca62d48c3a15f479a0064ba8f3efa3f2554ca57d286f0a19f89f270dc6dfcd7e",
      "blockNumber": 94746,
      "transactionIndex": 5,
      "confirmations": null,
      "from": "0x1308A2e95c0160B90803ddCA9B9a5bb55E416d79",
      "gasPrice": {
        "_hex": "0xcc2d44d79"
      },
      "gasLimit": {
        "_hex": "0x15f90"
      },
      "to": "0x725f637bf6266b62D8A4B8F9ec4E6E346d34998D",
      "value": {
        "_hex": "0xf72ebb46005ba0400"
      },
      "nonce": 156,
      "data": "0x",
      "r": "0x65a5f405621ab7421b5e392173bd7f394544bdfc62e7a1ef325dcea7b7298f82",
      "s": "0x19acf4628612a593de1e78abbe6cd008ada28508be54d8b311b942d938810372",
      "v": 27,
      "creates": null,
      "raw": "0xf86f819c850cc2d44d7983015f9094725f637bf6266b62d8a4b8f9ec4e6e346d34998d890f72ebb46005ba0400801ba065a5f405621ab7421b5e392173bd7f394544bdfc62e7a1ef325dcea7b7298f82a019acf4628612a593de1e78abbe6cd008ada28508be54d8b311b942d938810372",
      "networkId": 0,
      "chainId": 0
    }
  ]
}