{
  "hash": "0x6fa7c19da68917754fadb1dabb1d63069b8bf97707105307c2c1a8a813968a69",
  "parentHash": "0xdda2576bcceeaee4e8b4b683227b8566b77ab4f5ff1140f917701cf3502fd52c",
  "number": 96212,
  "timestamp": 1439736781,
  "nonce": "0x7d50e280752e1fb1",
  "difficulty": 3663934109984,
  "gasLimit": {
    "_hex": "0x2fefd8"
  },
  "gasUsed": {
    "_hex": "0xa674"
  },
  "miner": "0xf927a40C8B7F6E07c5af7FA2155B4864a4112B13",
  "extraData": "0x",
  "transactions": [
    {
      "hash": "0xa1ba06ed672b151ec98b60513fa8760d76c3f584fdcc6c3359d3c00e9a76df03",
      "blockHash": "0x6fa7c19da68917754fadb1dabb1d63069b8bf97707105307c2c1a8a813968a69",
      "blockNumber": 96212,
      "transactionIndex": 0,
      "confirmations": null,
      "from": "0x51e32F14F4ca5e287cDaC057A7795ea9e0439953",
      "gasPrice": {
        "_hex": "0x110c8f7d8de"
      },
      "gasLimit": {
        "_hex": "0xc350"
      },
      "to": "0x2910543Af39abA0Cd09dBb2D50200b3E800A63D2",
      "value": {
        "_hex": "0xde0b6b3a7640000"
      },
      "nonce": 0,
      "data": "0x454e34345748455747",
      "r": "0xcfa325c4a8596e774618b90a02d0a46797ad3045dd7277945ef9915e5ad10fb0",
      "s": "0xd4c0091db039b9b78d7379e0d6a79b5fc0c33a220c5321486aa2731eaf105a8c",
      "v": 28,
      "creates": null,
      "raw": "0xf87680860110c8f7d8de82c350942910543af39aba0cd09dbb2d50200b3e800a63d2880de0b6b3a764000089454e343457484557471ca0cfa325c4a8596e774618b90a02d0a46797ad3045dd7277945ef9915e5ad10fb0a0d4c0091db039b9b78d7379e0d6a79b5fc0c33a220c5321486aa2731eaf105a8c",
      "networkId": 0,
      "chainId": 0
    },
    {
      "hash": "0xdaa2e62dfe1c8a69aa924278bda9c1f064ae8b3fc52a1b0ca4f22ad54cc7025d",
      "blockHash": "0x6fa7c19da68917754fadb1dabb1d63069b8bf97707105307c2c1a8a813968a69",
      "blockNumber": 96212,
      "transactionIndex": 1,
      "confirmations": null,
      "from": "0x3D5292e9d2a2D31014717ff936A0F9375A5Cc8b7",
      "gasPrice": {
        "_hex": "0xdfde45d46"
      },
      "gasLimit": {
        "_hex": "0x15f90"
      },
      "to": "0x9f78552704fe7e52cC7C3853534aA2C3cf580D54",
      "value": {
        "_hex": "0x4563918244f40000"
      },
      "nonce": 3,
      "data": "0x",
      "r": "0x92c0dfc3e3333a2dad4b21c02d82ed171bc30048643048431c057b0d8ed7a937",
      "s": "0x500c0559533952d5d75380683ceac8baed07e61250427d2bf8341dddc5ebdbf8",
      "v": 28,
      "creates": null,
      "raw": "0xf86d03850dfde45d4683015f90949f78552704fe7e52cc7c3853534aa2c3cf580d54884563918244f40000801ca092c0dfc3e3333a2dad4b21c02d82ed171bc30048643048431c057b0d8ed7a937a0500c0559533952d5d75380683ceac8baed07e61250427d2bf8341dddc5ebdbf8",
      "networkId": 0,
      "chainId": 0
    }
  ]
}