{
  "hash": "0x1fc9cbf7877f9897922bb395f68a495016d4db7c9ef2d938c14320efc4da58e1",
  "parentHash": "0x614ffa442815b21a89d5ea2740522cff1d730d79b694c8158b2a19f734713ade",
  "number": 72240,
  "timestamp": 1439349655,
  "nonce": "0x78513760708f3268",
  "difficulty": 2172773544322,
  "gasLimit": {
    "_hex": "0x2fefd8"
  },
  "gasUsed": {
    "_hex": "0x15d82"
  },
  "miner": "0xC13Dad778D7BcE116BD97f744625D57f7124c38A",
  "extraData": "0x476574682f76312e302e312f6c696e75782f676f312e342e32",
  "transactions": [
    {
      "hash": "0xef3a2347a95d1943da2841f8df5ea21fe0ab04b639ca427d163b67e80e263a33",
      "blockHash": "0x1fc9cbf7877f9897922bb395f68a495016d4db7c9ef2d938c14320efc4da58e1",
      "blockNumber": 72240,
      "transactionIndex": 0,
      "confirmations": null,
      "from": "0x17580B766f7453525ca4C6A88b01b50570EA088C",
      "gasPrice": {
        "_hex": "0xde915a7ca"
      },
      "gasLimit": {
        "_hex": "0x61a80"
      },
      "to": "0x5Fe5B7546D1628f7348B023A0393de1FC825A4fD",
      "value": {
        "_hex": "0x8ac7230489e80000"
      },
      "nonce": 410,
      "data": "0xb595b8b50000000000000000000000000000000000000000000000000000000000000001",
      "r": "0x8d795c541178325af418083649efec59d7e9edef97190c2886e569e1b49700ce",
      "s": "0x03b8e3212163cd260aa74a7e067f3e0613bd76b025f114229e4a1c9f6a9e12d4",
      "v": 28,
      "creates": null,
      "raw": "0xf89382019a850de915a7ca83061a80945fe5b7546d1628f7348b023a0393de1fc825a4fd888ac7230489e80000a4b595b8b500000000000000000000000000000000000000000000000000000000000000011ca08d795c541178325af418083649efec59d7e9edef97190c2886e569e1b49700cea003b8e3212163cd260aa74a7e067f3e0613bd76b025f114229e4a1c9f6a9e12d4",
      "networkId": 0,
      "chainId": 0
    },
    {
      "hash": "0x7683d3582a1adfa23fd385e136d5af6aae212d89ea0ffa2a22ea340cdcd9ceb5",
      "blockHash": "0x1fc9cbf7877f9897922bb395f68a495016d4db7c9ef2d938c14320efc4da58e1",
      "blockNumber": 72240,
      "transactionIndex": 1,
      "confirmations": null,
      "from": "0x17580B766f7453525ca4C6A88b01b50570EA088C",
      "gasPrice": {
        "_hex": "0xde915a7ca"
      },
      "gasLimit": {
        "_hex": "0x61a80"
      },
      "to": "0x5Fe5B7546D1628f7348B023A0393de1FC825A4fD",
      "value": {
        "_hex": "0x8ac7230489e80000"
      },
      "nonce": 411,
      "data": "0xb595b8b50000000000000000000000000000000000000000000000000000000000000001",
      "r": "0xde2817a15af5d488c02468b5e37f1cd49f9f1c9d619dee7a95705f82f5fa931f",
      "s": "0x69c81dd97302e5047e719639c6856756680e17143225f5019320f7492ecc8776",
      "v": 27,
      "creates": null,
      "raw": "0xf89382019b850de915a7ca83061a80945fe5b7546d1628f7348b023a0393de1fc825a4fd888ac7230489e80000a4b595b8b500000000000000000000000000000000000000000000000000000000000000011ba0de2817a15af5d488c02468b5e37f1cd49f9f1c9d619dee7a95705f82f5fa931fa069c81dd97302e5047e719639c6856756680e17143225f5019320f7492ecc8776",
      "networkId": 0,
      "chainId": 0
    }
  ]
}