{
  "hash": "0x2265dd432be1bf2e32f7f1553c4d3d8098133845721cd444e8dbe61044df9ab0",
  "parentHash": "0xcfdc48106ab619015e54d37d08433708697976e3d332e1b675fee01b8e29af06",
  "number": 51460,
  "timestamp": 1439005213,
  "nonce": "0xd880d4750f84a20c",
  "difficulty": 1565810373799,
  "gasLimit": {
    "_hex": "0xb3e6b"
  },
  "gasUsed": {
    "_hex": "0x10931"
  },
  "miner": "0x40F9427946743c60273C468bbaa05ad04D5C34F5",
  "extraData": "0x476574682f76312e302e302d30636463373634372f6c696e75782f676f312e34",
  "transactions": [
    {
      "hash": "0x2c4a433b055d987894fcf2ba66a30c9809547f37f36800c11878771e37ab255d",
      "blockHash": "0x2265dd432be1bf2e32f7f1553c4d3d8098133845721cd444e8dbe61044df9ab0",
      "blockNumber": 51460,
      "transactionIndex": 0,
      "confirmations": null,
      "from": "0x2905726Ed11131A984ce9C0119cB32DBC99dE90B",
      "gasPrice": {
        "_hex": "0x108bae532b1"
      },
      "gasLimit": {
        "_hex": "0x186a0"
      },
      "to": "0xd94BAdbEC21695B7a36ABCb979EFad0108319d18",
      "value": {
        "_hex": "0x1b48eb57e000"
      },
      "nonce": 19,
      "data": "0xa69beaba4368696c6472656e206f66204d656e0000000000000000000000000000000000",
      "r": "0x4a9a5a3aeede54e4019d27c75d5f3009ea689249f509766959ba39fa8b1fb48f",
      "s": "0x3aea31dea27a6a1ec75bbca94ff0724b6aea936b912b4eb2f777432bbfb592bb",
      "v": 28,
      "creates": null,
      "raw": "0xf89013860108bae532b1830186a094d94badbec21695b7a36abcb979efad0108319d18861b48eb57e000a4a69beaba4368696c6472656e206f66204d656e00000000000000000000000000000000001ca04a9a5a3aeede54e4019d27c75d5f3009ea689249f509766959ba39fa8b1fb48fa03aea31dea27a6a1ec75bbca94ff0724b6aea936b912b4eb2f777432bbfb592bb",
      "networkId": 0,
      "chainId": 0
    }
  ]
}