{
  "hash": "0x4c4b37d7ec6d2e9d1edf97023475ced08cf5b5e4290ac4c1492ba649800de6af",
  "parentHash": "0x154eba93b9d31203cceb4e3afeb4b3ba5da6f51daad43134798c62521db6bc99",
  "number": 71830,
  "timestamp": 1439342646,
  "nonce": "0x640aebce4c32e85a",
  "difficulty": 2168639978653,
  "gasLimit": {
    "_hex": "0x2fefd8"
  },
  "gasUsed": {
    "_hex": "0x546c"
  },
  "miner": "0xe6A7a1d47ff21B6321162AEA7C6CB457D5476Bca",
  "extraData": "0x476574682f76312e302e312d38326566323666362f6c696e75782f676f312e34",
  "transactions": [
    {
      "hash": "0x13f79c60235f4e3deb9e28c3017a72694ffd85ae2f0ed0531682e472c87cc8d3",
      "blockHash": "0x4c4b37d7ec6d2e9d1edf97023475ced08cf5b5e4290ac4c1492ba649800de6af",
      "blockNumber": 71830,
      "transactionIndex": 0,
      "confirmations": null,
      "from": "0x2e7f465520ec35Cc23d68e75651BB6689544a196",
      "gasPrice": {
        "_hex": "0x110c8f7d8de"
      },
      "gasLimit": {
        "_hex": "0xc350"
      },
      "to": "0x2910543Af39abA0Cd09dBb2D50200b3E800A63D2",
      "value": {
        "_hex": "0x6f05b59d3b20000"
      },
      "nonce": 2,
      "data": "0x454e584e47514e4330",
      "r": "0x0e3a75561a1de9c321a18abafabc895b0f19d616c1d8068583f6a194fa6ba27f",
      "s": "0x6881e26c8661b6caf44f58666de8e0cd7c1ac4cfb115e355d3b676c05b7515eb",
      "v": 28,
      "creates": null,
      "raw": "0xf87602860110c8f7d8de82c350942910543af39aba0cd09dbb2d50200b3e800a63d28806f05b59d3b2000089454e584e47514e43301ca00e3a75561a1de9c321a18abafabc895b0f19d616c1d8068583f6a194fa6ba27fa06881e26c8661b6caf44f58666de8e0cd7c1ac4cfb115e355d3b676c05b7515eb",
      "networkId": 0,
      "chainId": 0
    }
  ]
}