{
  "hash": "0xd5baf62264cc546c40baed2366e2c14e53e177f7f8aaac4679471761ad637d30",
  "parentHash": "0xab221d2094dbfb47206918cf727ad7c964bfce1dcc9fc87178febfa4078fe5e0",
  "number": 68612,
  "timestamp": 1439290711,
  "nonce": "0x8e58d71f6b8dfc37",
  "difficulty": 2026123716262,
  "gasLimit": {
    "_hex": "0x2fefd8"
  },
  "gasUsed": {
    "_hex": "0x6baa8"
  },
  "miner": "0xfFcD9CAE6d9f54fd8ae05296F839892677ff6EaA",
  "extraData": "0x476574682f76312e302e312f77696e646f77732f676f312e342e32",
  "transactions": [
    {
      "hash": "0x8101aa1e9e4d70ea17340a093513ed4e869398fa498bc2cb11284547c03bfef6",
      "blockHash": "0xd5baf62264cc546c40baed2366e2c14e53e177f7f8aaac4679471761ad637d30",
      "blockNumber": 68612,
      "transactionIndex": 0,
      "confirmations": null,
      "from": "0x0C04Db274Ba71332a8e170762509Fc0f55266177",
      "gasPrice": {
        "_hex": "0xba43b7400"
      },
      "gasLimit": {
        "_hex": "0x5208"
      },
      "to": "0x455d1099E130c8bc8a1306010fbB3a7Ff0F279B1",
      "value": {
        "_hex": "0x11e4ee79bf23000"
      },
      "nonce": 1,
      "data": "0x",
      "r": "0x75d577d7f0d2ba6eb36578b02964d91b3482a3a389b5cacb6fee0f5c5030401d",
      "s": "0x5b0ae65eacb79e37dde68bbef929f19b55e8fb8d7b075eb73aab41a47ccd9d12",
      "v": 27,
      "creates": null,
      "raw": "0xf86c01850ba43b740082520894455d1099e130c8bc8a1306010fbb3a7ff0f279b188011e4ee79bf23000801ba075d577d7f0d2ba6eb36578b02964d91b3482a3a389b5cacb6fee0f5c5030401da05b0ae65eacb79e37dde68bbef929f19b55e8fb8d7b075eb73aab41a47ccd9d12",
      "networkId": 0,
      "chainId": 0
    },
    {
      "hash": "0x1ad83fdb1ba2509daca4b51c376cd9416a19a04401afbf3e60b9abc6d9218f35",
      "blockHash": "0xd5baf62264cc546c40baed2366e2c14e53e177f7f8aaac4679471761ad637d30",
      "blockNumber": 68612,
      "transactionIndex": 1,
      "confirmations": null,
      "from": "0x58A395953681cE59f79E5970ada233e9eF37389F",
      "gasPrice": {
        "_hex": "0xba43b7400"
      },
      "gasLimit": {
        "_hex": "0x5208"
      },
      "to": "0x7CB887d648a40C0E90A2432534D5344E7e8619eA",
      "value": {
        "_hex": "0x11e4ee79bf23000"
      },
      "nonce": 1,
      "data": "0x",
      "r": "0xea75ee3d4173f0eb99144a76668f756021a9967f2ff55d9970c2b06a254d8394",
      "s": "0x4eab5091dc15c097dc695cdc42df06fb5ec37816a902162959aa35402df324df",
      "v": 27,
      "creates": null,
      "raw": "0xf86c01850ba43b7400825208947cb887d648a40c0e90a2432534d5344e7e8619ea88011e4ee79bf23000801ba0ea75ee3d4173f0eb99144a76668f756021a9967f2ff55d9970c2b06a254d8394a04eab5091dc15c097dc695cdc42df06fb5ec37816a902162959aa35402df324df",
      "networkId": 0,
      "chainId": 0
    },
    {
      "hash": "0xd8c2b5062855551c9444ba33eeb1b91bd2b06016fa360b202456b0a103091fa6",
      "blockHash": "0xd5baf62264cc546c40baed2366e2c14e53e177f7f8aaac4679471761ad637d30",
      "blockNumber": 68612,
      "transactionIndex": 2,
      "confirmations": null,
      "from": "0xD3f0dFc1f9e957527DC7819ab0Eb836461DA7D66",
      "gasPrice": {
        "_hex": "0xba43b7400"
      },
      "gasLimit": {
        "_hex": "0x5208"
      },
      "to": "0x786cdC23056E72F283998eafEDA248E769Fe10c7",
      "value": {
        "_hex": "0x11e4ee79bf23000"
      },
      "nonce": 1,
      "data": "0x",
      "r": "0xdc14b8b84f64adfab90486f6d1bfed029c99640f6c57fe6ebff20813ac7d4129",
      "s": "0x56ff8862cbd1715652fe9900bba0af386e52025a8186fb6e88042574e72e4e7f",
      "v": 27,
      "creates": null,
      "raw": "0xf86c01850ba43b740082520894786cdc23056e72f283998eafeda248e769fe10c788011e4ee79bf23000801ba0dc14b8b84f64adfab90486f6d1bfed029c99640f6c57fe6ebff20813ac7d4129a056ff8862cbd1715652fe9900bba0af386e52025a8186fb6e88042574e72e4e7f",
      "networkId": 0,
      "chainId": 0
    },
    {
      "hash": "0x94da5bea5c335f642bfb1f9790b9e7127bf95afa3c174502dee44a7b815455aa",
      "blockHash": "0xd5baf62264cc546c40baed2366e2c14e53e177f7f8aaac4679471761ad637d30",
      "blockNumber": 68612,
      "transactionIndex": 3,
      "confirmations": null,
      "from": "0x7314750910BA9cA486ae3d6151a6f5ab62ADa78A",
      "gasPrice": {
        "_hex": "0xba43b7400"
      },
      "gasLimit": {
        "_hex": "0x5208"
      },
      "to": "0x5B640CAcD1Be583fB4B55667cd423a87DacF0763",
      "value": {
        "_hex": "0x11e4ee79bf23000"
      },
      "nonce": 1,
      "data": "0x",
      "r": "0xf3aadd15e28955dff00f4b4f2c1b5d70deb57c29602c2da8b27051282ee2f4ec",
      "s": "0x7c9f73a34df73a89504b3161c90b7261d645ddc588ea412f57c303b432f91055",
      "v": 28,
      "creates": null,
      "raw": "0xf86c01850ba43b7400825208945b640cacd1be583fb4b55667cd423a87dacf076388011e4ee79bf23000801ca0f3aadd15e28955dff00f4b4f2c1b5d70deb57c29602c2da8b27051282ee2f4eca07c9f73a34df73a89504b3161c90b7261d645ddc588ea412f57c303b432f91055",
      "networkId": 0,
      "chainId": 0
    },
    {
      "hash": "0x1f38df9427171c09be7966c0d35ae5a889a56a818a76130e9be3a4598669bdbc",
      "blockHash": "0xd5baf62264cc546c40baed2366e2c14e53e177f7f8aaac4679471761ad637d30",
      "blockNumber": 68612,
      "transactionIndex": 4,
      "confirmations": null,
      "from": "0x50a058fBc8901adC1cc80d08D698742c9C562478",
      "gasPrice": {
        "_hex": "0xba43b7400"
      },
      "gasLimit": {
        "_hex": "0x5208"
      },
      "to": "0xED044255144D5CD7b9cADD1E33F2Bf71CaF0Be3B",
      "value": {
        "_hex": "0x11e4ee79bf23000"
      },
      "nonce": 1,
      "data": "0x",
      "r": "0xbbf43bc9443ef522eea5a3253565ad5101d809c4373f47e79f5d359e1d6d4935",
      "s": "0x79418a6c4e0f27ddc4e41cf0bf4a8a5929bdc5c7df55a8b4ef7ede812cd06130",
      "v": 28,
      "creates": null,
      "raw": "0xf86c01850ba43b740082520894ed044255144d5cd7b9cadd1e33f2bf71caf0be3b88011e4ee79bf23000801ca0bbf43bc9443ef522eea5a3253565ad5101d809c4373f47e79f5d359e1d6d4935a079418a6c4e0f27ddc4e41cf0bf4a8a5929bdc5c7df55a8b4ef7ede812cd06130",
      "networkId": 0,
      "chainId": 0
    },
    {
      "hash": "0x21e3e2dec5b3ca8607d0b1098407dde2227c1e676981b9ef951c88af4221fdc1",
      "blockHash": "0xd5baf62264cc546c40baed2366e2c14e53e177f7f8aaac4679471761ad637d30",
      "blockNumber": 68612,
      "transactionIndex": 5,
      "confirmations": null,
      "from": "0x2796c03EcB82cD729ff8AF963c506d7cF52E19A3",
      "gasPrice": {
        "_hex": "0xba43b7400"
      },
      "gasLimit": {
        "_hex": "0x5208"
      },
      "to": "0x6e3B9d2E64A89822C8ED91E46146F507ceEEC057",
      "value": {
        "_hex": "0x11e4ee79bf23000"
      },
      "nonce": 1,
      "data": "0x",
      "r": "0x8737bd1c6b3dad3e573df54c6c9e182aded912832a5690cdcec9011aa1eedd1e",
      "s": "0x388dc1ebc841d2579c6b214d3d3a32474d6c055bdaa63dbcb7bfa0a13c6b5d37",
      "v": 27,
      "creates": null,
      "raw": "0xf86c01850ba43b7400825208946e3b9d2e64a89822c8ed91e46146f507ceeec05788011e4ee79bf23000801ba08737bd1c6b3dad3e573df54c6c9e182aded912832a5690cdcec9011aa1eedd1ea0388dc1ebc841d2579c6b214d3d3a32474d6c055bdaa63dbcb7bfa0a13c6b5d37",
      "networkId": 0,
      "chainId": 0
    },
    {
      "hash": "0xb0b1a04140c3b1efdad1955ee8e9bfcc00d6a690f77705ee1e5c592b286ba157",
      "blockHash": "0xd5baf62264cc546c40baed2366e2c14e53e177f7f8aaac4679471761ad637d30",
      "blockNumber": 68612,
      "transactionIndex": 6,
      "confirmations": null,
      "from": "0x7A084a4041dAEe4fE8cdeAa8eB8a897B1B8E002D",
      "gasPrice": {
        "_hex": "0xba43b7400"
      },
      "gasLimit": {
        "_hex": "0x5208"
      },
      "to": "0x8d26F6184815619CEBC9BdED2B18E0948091163A",
      "value": {
        "_hex": "0x11e4ee79bf23000"
      },
      "nonce": 1,
      "data": "0x",
      "r": "0xd5e620574a3c01df71a7e8a9fbe10e19562211ba6d464482309d8ac166bed2b0",
      "s": "0x16ee53d8bc5b520737989262a1657c014a3dfc3549e3cf973c1350457ac8b306",
      "v": 28,
      "creates": null,
      "raw": "0xf86c01850ba43b7400825208948d26f6184815619cebc9bded2b18e0948091163a88011e4ee79bf23000801ca0d5e620574a3c01df71a7e8a9fbe10e19562211ba6d464482309d8ac166bed2b0a016ee53d8bc5b520737989262a1657c014a3dfc3549e3cf973c1350457ac8b306",
      "networkId": 0,
      "chainId": 0
    },
    {
      "hash": "0x08f56f51f3d03f056570763f643c5413caaf64123d05be734ea65045a67a60c7",
      "blockHash": "0xd5baf62264cc546c40baed2366e2c14e53e177f7f8aaac4679471761ad637d30",
      "blockNumber": 68612,
      "transactionIndex": 7,
      "confirmations": null,
      "from": "0x936b8692AEF98C883C10bb1a76004D1788846F7E",
      "gasPrice": {
        "_hex": "0xba43b7400"
      },
      "gasLimit": {
        "_hex": "0x5208"
      },
      "to": "0xe8E914c9824e82de31d4d4A1276f4E15995bD2Aa",
      "value": {
        "_hex": "0x11e4ee79bf23000"
      },
      "nonce": 1,
      "data": "0x",
      "r": "0x8e7b727d69c9da13a81f2d50b4eb71f55d6f8e4b8263865debff0a3c5a2dcbc6",
      "s": "0x3faa6b62176cc52d7285ab36a55ade3570846602ece6bfe9441922414bf74f6a",
      "v": 27,
      "creates": null,
      "raw": "0xf86c01850ba43b740082520894e8e914c9824e82de31d4d4a1276f4e15995bd2aa88011e4ee79bf23000801ba08e7b727d69c9da13a81f2d50b4eb71f55d6f8e4b8263865debff0a3c5a2dcbc6a03faa6b62176cc52d7285ab36a55ade3570846602ece6bfe9441922414bf74f6a",
      "networkId": 0,
      "chainId": 0
    },
    {
      "hash": "0x01acd787c56c0938efc2565a2ef84c1ce67190f5dea360e2f6b73702622993ea",
      "blockHash": "0xd5baf62264cc546c40baed2366e2c14e53e177f7f8aaac4679471761ad637d30",
      "blockNumber": 68612,
      "transactionIndex": 8,
      "confirmations": null,
      "from": "0x8Be704f380EB2C5aFCc6F487592EF3D4db5bF2B6",
      "gasPrice": {
        "_hex": "0xba43b7400"
      },
      "gasLimit": {
        "_hex": "0x5208"
      },
      "to": "0x54101fDF0f9876eb25118661500494F1f86D9F9A",
      "value": {
        "_hex": "0x11e4ee79bf23000"
      },
      "nonce": 1,
      "data": "0x",
      "r": "0x33dccdbe99e33e071e66f8bc960ca4de08d5cd69ed8b2d5844d24604493bfc91",
      "s": "0x78370fb66e98328649240c050e8a741d4064682aea2e7d5f131cb84ce6cc887b",
      "v": 27,
      "creates": null,
      "raw": "0xf86c01850ba43b74008252089454101fdf0f9876eb25118661500494f1f86d9f9a88011e4ee79bf23000801ba033dccdbe99e33e071e66f8bc960ca4de08d5cd69ed8b2d5844d24604493bfc91a078370fb66e98328649240c050e8a741d4064682aea2e7d5f131cb84ce6cc887b",
      "networkId": 0,
      "chainId": 0
    },
    {
      "hash": "0xd49f458a1999b836e39b5651fb82c71e4a2a11e081288ad086cf8f12ee80fee2",
      "blockHash": "0xd5baf62264cc546c40baed2366e2c14e53e177f7f8aaac4679471761ad637d30",
      "blockNumber": 68612,
      "transactionIndex": 9,
      "confirmations": null,
      "from": "0x733F17D51c8f5c3c09409B525CF046bE8dDFdCEd",
      "gasPrice": {
        "_hex": "0xba43b7400"
      },
      "gasLimit": {
        "_hex": "0x5208"
      },
      "to": "0x42373Ca274750c30f5D740DE07396861D5bed501",
      "value": {
        "_hex": "0x11e4ee79bf23000"
      },
      "nonce": 1,
      "data": "0x",
      "r": "0x8c7f0492fe53004afe4c7dbdc6c01d8178d4042f347a518a3f4a7256e1ebbea6",
      "s": "0x63fd3ed446092753d0c02ff230226148da85c485c9bc0948e642f8b3fb63537f",
      "v": 28,
      "creates": null,
      "raw": "0xf86c01850ba43b74008252089442373ca274750c30f5d740de07396861d5bed50188011e4ee79bf23000801ca08c7f0492fe53004afe4c7dbdc6c01d8178d4042f347a518a3f4a7256e1ebbea6a063fd3ed446092753d0c02ff230226148da85c485c9bc0948e642f8b3fb63537f",
      "networkId": 0,
      "chainId": 0
    },
    {
      "hash": "0x07c8ec90fc7531580b59805d80943639840c0816b9669a88235283f14a5a3cd2",
      "blockHash": "0xd5baf62264cc546c40baed2366e2c14e53e177f7f8aaac4679471761ad637d30",
      "blockNumber": 68612,
      "transactionIndex": 10,
      "confirmations": null,
      "from": "0xfE94F82d40F91E6A01CdBE078be982b8b54389a4",
      "gasPrice": {
        "_hex": "0xba43b7400"
      },
      "gasLimit": {
        "_hex": "0x5208"
      },
      "to": "0x5ccA9fD3Ade1BDacC509EF84D39e8353f78271E4",
      "value": {
        "_hex": "0x11e4ee79bf23000"
      },
      "nonce": 1,
      "data": "0x",
      "r": "0x62d2d14dc4088a45984f5ea63cdd65bc1080252bc5764f296c9d647dfe084305",
      "s": "0x0cb3c1075de630b2fa8da4c76190cdfa5ab4d34846c01ea5741829ef359aff11",
      "v": 27,
      "creates": null,
      "raw": "0xf86c01850ba43b7400825208945cca9fd3ade1bdacc509ef84d39e8353f78271e488011e4ee79bf23000801ba062d2d14dc4088a45984f5ea63cdd65bc1080252bc5764f296c9d647dfe084305a00cb3c1075de630b2fa8da4c76190cdfa5ab4d34846c01ea5741829ef359aff11",
      "networkId": 0,
      "chainId": 0
    },
    {
      "hash": "0x9d32c12f2c10970989acab056a34f41a82c5ced871a573da6eef820849395707",
      "blockHash": "0xd5baf62264cc546c40baed2366e2c14e53e177f7f8aaac4679471761ad637d30",
      "blockNumber": 68612,
      "transactionIndex": 11,
      "confirmations": null,
      "from": "0x438C20e016acd6bdd5f332d8d68ADD063252d2bf",
      "gasPrice": {
        "_hex": "0xba43b7400"
      },
      "gasLimit": {
        "_hex": "0x5208"
      },
      "to": "0x3109638D5DD274F79D1D0aAE4efB01b4aC8d98f7",
      "value": {
        "_hex": "0x11e4ee79bf23000"
      },
      "nonce": 1,
      "data": "0x",
      "r": "0x7b74b3b246aefe8250afdabcc06d0feb46fa1327acfd39ff5ed5e1ad705c6083",
      "s": "0x7c9feaafe160e5691f7cf78ea6ae961201f6b236d608eb305ab9e501156a4b77",
      "v": 28,
      "creates": null,
      "raw": "0xf86c01850ba43b7400825208943109638d5dd274f79d1d0aae4efb01b4ac8d98f788011e4ee79bf23000801ca07b74b3b246aefe8250afdabcc06d0feb46fa1327acfd39ff5ed5e1ad705c6083a07c9feaafe160e5691f7cf78ea6ae961201f6b236d608eb305ab9e501156a4b77",
      "networkId": 0,
      "chainId": 0
    },
    {
      "hash": "0xbfa6a5461042429da82e9cbfb5595b5e6fdaa11aa6f0323ffa14d4eb8d2eccce",
      "blockHash": "0xd5baf62264cc546c40baed2366e2c14e53e177f7f8aaac4679471761ad637d30",
      "blockNumber": 68612,
      "transactionIndex": 12,
      "confirmations": null,
      "from": "0x015df075866a4F0a3703dcfAC8FcceC012461Eb5",
      "gasPrice": {
        "_hex": "0xba43b7400"
      },
      "gasLimit": {
        "_hex": "0x5208"
      },
      "to": "0xcF17222385A67666573dd44c02Af3c34FAA8Ab1D",
      "value": {
        "_hex": "0x11e4ee79bf23000"
      },
      "nonce": 1,
      "data": "0x",
      "r": "0xfeff2556d60bcae06618bf878d7a16c5052aea2881aba97f2480ddcbc623de16",
      "s": "0x621e80745c2858b874fa197fa1323cf10c95194d7424d211d0d7b54736965ba6",
      "v": 28,
      "creates": null,
      "raw": "0xf86c01850ba43b740082520894cf17222385a67666573dd44c02af3c34faa8ab1d88011e4ee79bf23000801ca0feff2556d60bcae06618bf878d7a16c5052aea2881aba97f2480ddcbc623de16a0621e80745c2858b874fa197fa1323cf10c95194d7424d211d0d7b54736965ba6",
      "networkId": 0,
      "chainId": 0
    },
    {
      "hash": "0x4f75a97810eb176b62c6a3abe6b42c8ad423e6551a65addabf912ead13d25a0b",
      "blockHash": "0xd5baf62264cc546c40baed2366e2c14e53e177f7f8aaac4679471761ad637d30",
      "blockNumber": 68612,
      "transactionIndex": 13,
      "confirmations": null,
      "from": "0xD2E3933F504d92e408cd5FA50D38c680E42a5D38",
      "gasPrice": {
        "_hex": "0xba43b7400"
      },
      "gasLimit": {
        "_hex": "0x5208"
      },
      "to": "0x26c3470C7c0c88Ad91AEa6d2E901c94adea717F2",
      "value": {
        "_hex": "0x11e4ee79bf23000"
      },
      "nonce": 1,
      "data": "0x",
      "r": "0xebabc6790df234149b7c8fadae432e6268e3357050765af704b8e6cd4e075fb5",
      "s": "0x3c366555dd9db4ec86df64ff0eb005f41c48a58f48ddad68e377782180a52844",
      "v": 28,
      "creates": null,
      "raw": "0xf86c01850ba43b74008252089426c3470c7c0c88ad91aea6d2e901c94adea717f288011e4ee79bf23000801ca0ebabc6790df234149b7c8fadae432e6268e3357050765af704b8e6cd4e075fb5a03c366555dd9db4ec86df64ff0eb005f41c48a58f48ddad68e377782180a52844",
      "networkId": 0,
      "chainId": 0
    },
    {
      "hash": "0xca674b5eb4c2b93c8b170ae4b1e251446dee8abf8bc45776a75bc3a700b6427c",
      "blockHash": "0xd5baf62264cc546c40baed2366e2c14e53e177f7f8aaac4679471761ad637d30",
      "blockNumber": 68612,
      "transactionIndex": 14,
      "confirmations": null,
      "from": "0x76f609cF358c4ea0e92c606A95717A1BC2690242",
      "gasPrice": {
        "_hex": "0xba43b7400"
      },
      "gasLimit": {
        "_hex": "0x5208"
      },
      "to": "0x998170FeEDa9cBa97cEB95449C5c15d608a8fe30",
      "value": {
        "_hex": "0x11e4ee79bf23000"
      },
      "nonce": 1,
      "data": "0x",
      "r": "0xd48855aca949decbb253a41de52880e2fe0dc4b1c40427ca9a14a14122c9a550",
      "s": "0x1b51b7685f8c4bd39455cfee8353674806e484ad8dadcb6998efce4d827e3bbf",
      "v": 28,
      "creates": null,
      "raw": "0xf86c01850ba43b740082520894998170feeda9cba97ceb95449c5c15d608a8fe3088011e4ee79bf23000801ca0d48855aca949decbb253a41de52880e2fe0dc4b1c40427ca9a14a14122c9a550a01b51b7685f8c4bd39455cfee8353674806e484ad8dadcb6998efce4d827e3bbf",
      "networkId": 0,
      "chainId": 0
    },
    {
      "hash": "0xcbc704db6e658bb217c6ad6e6bf3f9d613378e90dee1581385964132e3b8ff3a",
      "blockHash": "0xd5baf62264cc546c40baed2366e2c14e53e177f7f8aaac4679471761ad637d30",
      "blockNumber": 68612,
      "transactionIndex": 15,
      "confirmations": null,
      "from": "0x19Ea3eC632b4dC815da70ea846e2F7b8b18668D2",
      "gasPrice": {
        "_hex": "0xba43b7400"
      },
      "gasLimit": {
        "_hex": "0x5208"
      },
      "to": "0x4310c55fc1138430cb61AC5e2A877F2A19d7030A",
      "value": {
        "_hex": "0x11e4ee79bf23000"
      },
      "nonce": 1,
      "data": "0x",
      "r": "0x09f8ea3d46d98bce50867bd271e230bfdbb3915d7249ed2f7e071ebd2709a492",
      "s": "0x1dfa8fc2ed009292f0698de1f6681d7a11d375dbf72aa2652d49125f7bdf85f6",
      "v": 27,
      "creates": null,
      "raw": "0xf86c01850ba43b7400825208944310c55fc1138430cb61ac5e2a877f2a19d7030a88011e4ee79bf23000801ba009f8ea3d46d98bce50867bd271e230bfdbb3915d7249ed2f7e071ebd2709a492a01dfa8fc2ed009292f0698de1f6681d7a11d375dbf72aa2652d49125f7bdf85f6",
      "networkId": 0,
      "chainId": 0
    },
    {
      "hash": "0x55f212cad19b295766efef5b10a08f4ed92be0bec6f3799bace7bede37676545",
      "blockHash": "0xd5baf62264cc546c40baed2366e2c14e53e177f7f8aaac4679471761ad637d30",
      "blockNumber": 68612,
      "transactionIndex": 16,
      "confirmations": null,
      "from": "0x7Aa7c5340322062994f0e140d6877C89Fd6A195E",
      "gasPrice": {
        "_hex": "0xba43b7400"
      },
      "gasLimit": {
        "_hex": "0x5208"
      },
      "to": "0x01BffB0ab3786F6dCED5af1AF081fd538f148441",
      "value": {
        "_hex": "0x11e4ee79bf23000"
      },
      "nonce": 1,
      "data": "0x",
      "r": "0x4e8930e7b0b3e0ba519c04d7b69db1d252e672e9f90fca300eae46e8fa22a417",
      "s": "0x30e99fd9da9aae44d45c3c1ba7e48c13ba1ea246c2a98786055110e561b5c5b7",
      "v": 27,
      "creates": null,
      "raw": "0xf86c01850ba43b74008252089401bffb0ab3786f6dced5af1af081fd538f14844188011e4ee79bf23000801ba04e8930e7b0b3e0ba519c04d7b69db1d252e672e9f90fca300eae46e8fa22a417a030e99fd9da9aae44d45c3c1ba7e48c13ba1ea246c2a98786055110e561b5c5b7",
      "networkId": 0,
      "chainId": 0
    },
    {
      "hash": "0x8242fdf1d34a5a4029ba5181b43ecd7da77f2cff2c32ccb06923165f395479a2",
      "blockHash": "0xd5baf62264cc546c40baed2366e2c14e53e177f7f8aaac4679471761ad637d30",
      "blockNumber": 68612,
      "transactionIndex": 17,
      "confirmations": null,
      "from": "0x96671742b8524F6680E6a64bB0500b9b0D0373A6",
      "gasPrice": {
        "_hex": "0xba43b7400"
      },
      "gasLimit": {
        "_hex": "0x5208"
      },
      "to": "0xb02138fbC53544795A44Cc80095AeADcdB7c1E66",
      "value": {
        "_hex": "0x11e4ee79bf23000"
      },
      "nonce": 1,
      "data": "0x",
      "r": "0x006256e5e435cd65467b6ce61b3909cbbd0904bb9c558eed22b9328f532f6d36",
      "s": "0x53b3cf4da8706156a87daf2661ab78a62b4f9eee74e9e124c08074e5734b911d",
      "v": 28,
      "creates": null,
      "raw": "0xf86b01850ba43b740082520894b02138fbc53544795a44cc80095aeadcdb7c1e6688011e4ee79bf23000801c9f6256e5e435cd65467b6ce61b3909cbbd0904bb9c558eed22b9328f532f6d36a053b3cf4da8706156a87daf2661ab78a62b4f9eee74e9e124c08074e5734b911d",
      "networkId": 0,
      "chainId": 0
    },
    {
      "hash": "0xd2edf9db12b6496aaffeb19a92362b1f078b7d0a66ff14445f1d1c00dd1e6f30",
      "blockHash": "0xd5baf62264cc546c40baed2366e2c14e53e177f7f8aaac4679471761ad637d30",
      "blockNumber": 68612,
      "transactionIndex": 18,
      "confirmations": null,
      "from": "0x384AbF65B9859C51a3DcEEE22eB621BdE2a62B95",
      "gasPrice": {
        "_hex": "0xba43b7400"
      },
      "gasLimit": {
        "_hex": "0x5208"
      },
      "to": "0x1c667080Cd2Bc722d7e8Ff9A972B396F1C8A8e38",
      "value": {
        "_hex": "0x11e4ee79bf23000"
      },
      "nonce": 1,
      "data": "0x",
      "r": "0xdffc1d5ddf283e86108989049b089ed5d96a66952dda940352f071dbcf58fdc2",
      "s": "0x0c501df54274dab7e0dfbb58ae6e6e2f9cd9d6eb5b042754adaa101a551a8524",
      "v": 27,
      "creates": null,
      "raw": "0xf86c01850ba43b7400825208941c667080cd2bc722d7e8ff9a972b396f1c8a8e3888011e4ee79bf23000801ba0dffc1d5ddf283e86108989049b089ed5d96a66952dda940352f071dbcf58fdc2a00c501df54274dab7e0dfbb58ae6e6e2f9cd9d6eb5b042754adaa101a551a8524",
      "networkId": 0,
      "chainId": 0
    },
    {
      "hash": "0xa9461dbf0a85edce2c0bc91e07e3f96889c9a22ead9ee265ef4499dc691008be",
      "blockHash": "0xd5baf62264cc546c40baed2366e2c14e53e177f7f8aaac4679471761ad637d30",
      "blockNumber": 68612,
      "transactionIndex": 19,
      "confirmations": null,
      "from": "0xBD390cd25963B722Fe009209114385736E474B93",
      "gasPrice": {
        "_hex": "0xba43b7400"
      },
      "gasLimit": {
        "_hex": "0x5208"
      },
      "to": "0x2109fE67fE18539Bf9e5e03D08e3b537c7c428a1",
      "value": {
        "_hex": "0x11e4ee79bf23000"
      },
      "nonce": 1,
      "data": "0x",
      "r": "0x3d669b97ca8dca0aaf1c93fb8938e1701a64ef4d5a5fe1c0c1161785a58a67e4",
      "s": "0x74cf451aeb63dc97c50c0afc462576fe15fff302eaa23b201784111a6fb43a95",
      "v": 28,
      "creates": null,
      "raw": "0xf86c01850ba43b7400825208942109fe67fe18539bf9e5e03d08e3b537c7c428a188011e4ee79bf23000801ca03d669b97ca8dca0aaf1c93fb8938e1701a64ef4d5a5fe1c0c1161785a58a67e4a074cf451aeb63dc97c50c0afc462576fe15fff302eaa23b201784111a6fb43a95",
      "networkId": 0,
      "chainId": 0
    },
    {
      "hash": "0x11612653aeeda3548cddebc1d3f1d3e518243765e090979d798a038821055070",
      "blockHash": "0xd5baf62264cc546c40baed2366e2c14e53e177f7f8aaac4679471761ad637d30",
      "blockNumber": 68612,
      "transactionIndex": 20,
      "confirmations": null,
      "from": "0x68e9fbd0039Ac917291ae4652275537Ed852C944",
      "gasPrice": {
        "_hex": "0xba43b7400"
      },
      "gasLimit": {
        "_hex": "0x5208"
      },
      "to": "0xF98d59565E4Ef5D621f2D5C2730da8143242da99",
      "value": {
        "_hex": "0x11e4ee79bf23000"
      },
      "nonce": 1,
      "data": "0x",
      "r": "0x6e394d277e9824308720c0f654a66fe3751894420364733f7c05a7e57d823d78",
      "s": "0x2731fe1b5cf0d18093feaa14326d46a1e7d68661b95d7bed033d5539e1d7a355",
      "v": 27,
      "creates": null,
      "raw": "0xf86c01850ba43b740082520894f98d59565e4ef5d621f2d5c2730da8143242da9988011e4ee79bf23000801ba06e394d277e9824308720c0f654a66fe3751894420364733f7c05a7e57d823d78a02731fe1b5cf0d18093feaa14326d46a1e7d68661b95d7bed033d5539e1d7a355",
      "networkId": 0,
      "chainId": 0
    }
  ]
}