{
  "hash": "0x335cfd4ebc92046d2668d3799cd0f7298b336d9521927301ec6fb1348c2e8c9d",
  "parentHash": "0x6cc4a4493c4af7d94c61ef51cd0780062eab6ae2973d5b38dcd703715e5b0106",
  "number": 63507,
  "timestamp": 1439205657,
  "nonce": "0xf38a8528f4c2c6e5",
  "difficulty": 1832459044524,
  "gasLimit": {
    "_hex": "0x2fefd8"
  },
  "gasUsed": {
    "_hex": "0xa410"
  },
  "miner": "0xf927a40C8B7F6E07c5af7FA2155B4864a4112B13",
  "extraData": "0x476574682f76312e302e312f6c696e75782f676f312e342e32",
  "transactions": [
    {
      "hash": "0x80c196aa0c2f6189a83a97222504b1b94bc2500c0779f2ce4bfd9bed3e20f1c5",
      "blockHash": "0x335cfd4ebc92046d2668d3799cd0f7298b336d9521927301ec6fb1348c2e8c9d",
      "blockNumber": 63507,
      "transactionIndex": 0,
      "confirmations": null,
      "from": "0xCb88dAC50e0b4f450f3a5d02c2D65Bc56361313E",
      "gasPrice": {
        "_hex": "0xccb538f9a"
      },
      "gasLimit": {
        "_hex": "0x5208"
      },
      "to": "0x32Be343B94f860124dC4fEe278FDCBD38C102D88",
      "value": {
        "_hex": "0xddc9d2c13758c00"
      },
      "nonce": 3,
      "data": "0x",
      "r": "0xd1b15b1692b57853dd2339afdadc206a3d0cf3ad063ffe5641c1e8f93239b6c8",
      "s": "0x03f2bf17c4fb4ceb7fee82eb52b98815c4e20d5e0a1812edb61641102a63c156",
      "v": 27,
      "creates": null,
      "raw": "0xf86c03850ccb538f9a8252089432be343b94f860124dc4fee278fdcbd38c102d88880ddc9d2c13758c00801ba0d1b15b1692b57853dd2339afdadc206a3d0cf3ad063ffe5641c1e8f93239b6c8a003f2bf17c4fb4ceb7fee82eb52b98815c4e20d5e0a1812edb61641102a63c156",
      "networkId": 0,
      "chainId": 0
    },
    {
      "hash": "0x3b3af4ba13edecdcebc5f125aafc603d4f6eebbc77d4ae1027e43f80c0c9a32a",
      "blockHash": "0x335cfd4ebc92046d2668d3799cd0f7298b336d9521927301ec6fb1348c2e8c9d",
      "blockNumber": 63507,
      "transactionIndex": 1,
      "confirmations": null,
      "from": "0xA10CDF70bc138605c39F8651A78485Fe4F1C3811",
      "gasPrice": {
        "_hex": "0xccb538f9a"
      },
      "gasLimit": {
        "_hex": "0x5208"
      },
      "to": "0x32Be343B94f860124dC4fEe278FDCBD38C102D88",
      "value": {
        "_hex": "0x23464c3fdd3348000"
      },
      "nonce": 1,
      "data": "0x",
      "r": "0x50949ad567dd676019fd57b6519cbe4949b3784482dd622b82dd219ff3c0dfc5",
      "s": "0x33186c88addfe5ed1b71dac73772d475532b5576fb0f65298bb04bb39e49fca3",
      "v": 28,
      "creates": null,
      "raw": "0xf86d01850ccb538f9a8252089432be343b94f860124dc4fee278fdcbd38c102d8889023464c3fdd3348000801ca050949ad567dd676019fd57b6519cbe4949b3784482dd622b82dd219ff3c0dfc5a033186c88addfe5ed1b71dac73772d475532b5576fb0f65298bb04bb39e49fca3",
      "networkId": 0,
      "chainId": 0
    }
  ]
}