{
  "hash": "0xd61d915794bf2af291f979ea13143488300891cd2eca2cb9cc62571517f7dfd0",
  "parentHash": "0x7ec0a807e89370d8089759cad0de3a4f0e0a3aa90d2557e4682bd23551d8d8a5",
  "number": 87043,
  "timestamp": 1439586391,
  "nonce": "0xfd143302a321f03b",
  "difficulty": 3027496218034,
  "gasLimit": {
    "_hex": "0x2fefd8"
  },
  "gasUsed": {
    "_hex": "0x5208"
  },
  "miner": "0x841B562a690B0808405F6E3713E1efdbebA96021",
  "extraData": "0x476574682f76312e302e312f77696e646f77732f676f312e342e32",
  "transactions": [
    {
      "hash": "0x415e23a426e7a3ad3f05f6087d380e35eb6003be4eb2aae87ff54de311013d96",
      "blockHash": "0xd61d915794bf2af291f979ea13143488300891cd2eca2cb9cc62571517f7dfd0",
      "blockNumber": 87043,
      "transactionIndex": 0,
      "confirmations": null,
      "from": "0x3A9E5441D44b243Be55B75027a1cEB9eAcf50dF2",
      "gasPrice": {
        "_hex": "0x106a7c2f0c6"
      },
      "gasLimit": {
        "_hex": "0x15f90"
      },
      "to": "0xEfd125F76b020623F7f1c455AC173Caf8D610c52",
      "value": {
        "_hex": "0xde0b6b3a7640000"
      },
      "nonce": 0,
      "data": "0x",
      "r": "0x8fff88c32cdee56fb2deea713a6fc1cdc7afc1981c45f649ccfd3c9da5259845",
      "s": "0x1dc394cd75bc8d3763e640513b117f009bfe8d5762c27bb03a97553b320eadca",
      "v": 27,
      "creates": null,
      "raw": "0xf86e80860106a7c2f0c683015f9094efd125f76b020623f7f1c455ac173caf8d610c52880de0b6b3a7640000801ba08fff88c32cdee56fb2deea713a6fc1cdc7afc1981c45f649ccfd3c9da5259845a01dc394cd75bc8d3763e640513b117f009bfe8d5762c27bb03a97553b320eadca",
      "networkId": 0,
      "chainId": 0
    }
  ]
}