{
  "hash": "0x5d60b8571e56d322d9adf0ba334bafdc0c566359a5412cb4cc05b79f691a4f13",
  "parentHash": "0x0cacab09e81bbb913205904809cfb880a660c6fcbcc7dd383a6f546effd75df8",
  "number": 48147,
  "timestamp": 1438952248,
  "nonce": "0x5a1c0b662a5d5575",
  "difficulty": 1465071291773,
  "gasLimit": {
    "_hex": "0x12f6a"
  },
  "gasUsed": {
    "_hex": "0x546c"
  },
  "miner": "0x6Cf387a1C50cF6b09634E0d24fDAa2c06Be0ea95",
  "extraData": "0x476574682f76312e302e302d30636463373634372f6c696e75782f676f312e34",
  "transactions": [
    {
      "hash": "0x904d6d3c0d62d75bcc7e91ca9e145874fbafd2c755b6b12c28332516d4803a1c",
      "blockHash": "0x5d60b8571e56d322d9adf0ba334bafdc0c566359a5412cb4cc05b79f691a4f13",
      "blockNumber": 48147,
      "transactionIndex": 0,
      "confirmations": null,
      "from": "0x5aC99Ad7816AE9020fF8Adf79fA9869B7Cea6601",
      "gasPrice": {
        "_hex": "0x110c8f7d8de"
      },
      "gasLimit": {
        "_hex": "0xc350"
      },
      "to": "0x2910543Af39abA0Cd09dBb2D50200b3E800A63D2",
      "value": {
        "_hex": "0x21e187d844254b60000"
      },
      "nonce": 5,
      "data": "0x454e4b594346424447",
      "r": "0x6d57f1ecc0907ed9966b5ee5623480d85b3cd4b894ff6b54104a956408ded685",
      "s": "0x2566cc57dbde6bd1829b4e5af67cd563fd73aaad181ae142d83a69c850606cd3",
      "v": 28,
      "creates": null,
      "raw": "0xf87805860110c8f7d8de82c350942910543af39aba0cd09dbb2d50200b3e800a63d28a021e187d844254b6000089454e4b5943464244471ca06d57f1ecc0907ed9966b5ee5623480d85b3cd4b894ff6b54104a956408ded685a02566cc57dbde6bd1829b4e5af67cd563fd73aaad181ae142d83a69c850606cd3",
      "networkId": 0,
      "chainId": 0
    }
  ]
}