{
  "hash": "0x86e8c930bcf323a4e5e79d0d64691391710f8031305d3fb0dcba203beb180b6a",
  "parentHash": "0x72175c6631b791487885dd21ba30067a1325d58f68de2688bdc219c4eb7cd809",
  "number": 108516,
  "timestamp": 1439941887,
  "nonce": "0x076ce9b15a687a71",
  "difficulty": 4310841916514,
  "gasLimit": {
    "_hex": "0x2fefd8"
  },
  "gasUsed": {
    "_hex": "0x5208"
  },
  "miner": "0xe6A7a1d47ff21B6321162AEA7C6CB457D5476Bca",
  "extraData": "0x476574682f76312e302e312d38326566323666362f6c696e75782f676f312e34",
  "transactions": [
    {
      "hash": "0x7e9aaa081d7f0600d8831c330cf133918867af99ac465e48e228bae914147a00",
      "blockHash": "0x86e8c930bcf323a4e5e79d0d64691391710f8031305d3fb0dcba203beb180b6a",
      "blockNumber": 108516,
      "transactionIndex": 0,
      "confirmations": null,
      "from": "0xa70a9a7040d542C632D8e0bE7c5513A8a5Bbc752",
      "gasPrice": {
        "_hex": "0xcf4d6bd07"
      },
      "gasLimit": {
        "_hex": "0x5208"
      },
      "to": "0x32Be343B94f860124dC4fEe278FDCBD38C102D88",
      "value": {
        "_hex": "0x478a88b3f6cb5c00"
      },
      "nonce": 265,
      "data": "0x",
      "r": "0xeacec0f16adfa750e859fe814d0f594f81a44165402378f19bccd13fd66f9ce7",
      "s": "0x44c6ffb780cceeefdf65295bf2e7b6b6b25eb72873f3d11f95adbed02b58f8cf",
      "v": 28,
      "creates": null,
      "raw": "0xf86e820109850cf4d6bd078252089432be343b94f860124dc4fee278fdcbd38c102d8888478a88b3f6cb5c00801ca0eacec0f16adfa750e859fe814d0f594f81a44165402378f19bccd13fd66f9ce7a044c6ffb780cceeefdf65295bf2e7b6b6b25eb72873f3d11f95adbed02b58f8cf",
      "networkId": 0,
      "chainId": 0
    }
  ]
}