{
  "hash": "0x6de34a50376fc37838053fa0b567d90733cb3c2667d1b8ce21f7f6ff8e65807d",
  "parentHash": "0x9fc155ffd439453f54a63d775bff2410baa020c2ee333a60ed2315307613896c",
  "number": 82784,
  "timestamp": 1439525135,
  "nonce": "0x12cb3733c6a97697",
  "difficulty": 2381000992563,
  "gasLimit": {
    "_hex": "0x2fefd8"
  },
  "gasUsed": {
    "_hex": "0x21f60"
  },
  "miner": "0xe6A7a1d47ff21B6321162AEA7C6CB457D5476Bca",
  "extraData": "0x476574682f76312e302e312d38326566323666362f6c696e75782f676f312e34",
  "transactions": [
    {
      "hash": "0xfd125a9bf3b8062d1ec96957f48e20d0a341b72dd89342b2fc0b17f769a615aa",
      "blockHash": "0x6de34a50376fc37838053fa0b567d90733cb3c2667d1b8ce21f7f6ff8e65807d",
      "blockNumber": 82784,
      "transactionIndex": 0,
      "confirmations": null,
      "from": "0x1c11Aa45C792e202e9ffDc2F12f99D0d209BEf70",
      "gasPrice": {
        "_hex": "0xd9cbe8641"
      },
      "gasLimit": {
        "_hex": "0x249f0"
      },
      "to": "0x35F0729966012509BFc40c495f469D538e531712",
      "value": {
        "_hex": "0xa"
      },
      "nonce": 8,
      "data": "0x45466f3a",
      "r": "0x58f66f3d2b7d5fea13b6e630c572a2e4e5cdf586bcc0e17854ad25e94ad294fa",
      "s": "0x68276770cf32a18b10864e192e275649401082ce98eb923178e2e9909cb77389",
      "v": 28,
      "creates": null,
      "raw": "0xf86908850d9cbe8641830249f09435f0729966012509bfc40c495f469d538e5317120a8445466f3a1ca058f66f3d2b7d5fea13b6e630c572a2e4e5cdf586bcc0e17854ad25e94ad294faa068276770cf32a18b10864e192e275649401082ce98eb923178e2e9909cb77389",
      "networkId": 0,
      "chainId": 0
    }
  ]
}