{
  "hash": "0x531c584d17cbf46ce46a996a7853f64122ad660e58f279c6a4564fdb6d82ae60",
  "parentHash": "0x5cb1e8e1bbe80decda6351216b7f003d13fd40d01d4cb6d4f4f85a2a74b1b30a",
  "number": 96055,
  "timestamp": 1439734205,
  "nonce": "0xde0624d0377529e6",
  "difficulty": 3640818513348,
  "gasLimit": {
    "_hex": "0x2fefd8"
  },
  "gasUsed": {
    "_hex": "0x14820"
  },
  "miner": "0xbb7B8287f3F0a933474a79eAe42CBCa977791171",
  "extraData": "0x476574682f4c5649562f76312e302e312f6c696e75782f676f312e342e32",
  "transactions": [
    {
      "hash": "0x6d18d804e40d442768045f000ce97fdcfbd3ffdaa33b41ae90705419f195dfb2",
      "blockHash": "0x531c584d17cbf46ce46a996a7853f64122ad660e58f279c6a4564fdb6d82ae60",
      "blockNumber": 96055,
      "transactionIndex": 0,
      "confirmations": null,
      "from": "0x790b8a3cE86E707ED0eD32bF89B3269692a23CC1",
      "gasPrice": {
        "_hex": "0xdb4ad087d"
      },
      "gasLimit": {
        "_hex": "0x15f90"
      },
      "to": "0x4D67f4F0Db45b3B5a3424B39ed8d972F710381D5",
      "value": {
        "_hex": "0x2c2612051fb620000"
      },
      "nonce": 9,
      "data": "0x",
      "r": "0x3769f2ff664860bda3016249a730c5d3441762a504508db606c1e1617377d78c",
      "s": "0x181d6a9dd3db2216deec5401f4798ed29887f82ca3800c6684e0ebab86c19c8c",
      "v": 27,
      "creates": null,
      "raw": "0xf86e09850db4ad087d83015f90944d67f4f0db45b3b5a3424b39ed8d972f710381d58902c2612051fb620000801ba03769f2ff664860bda3016249a730c5d3441762a504508db606c1e1617377d78ca0181d6a9dd3db2216deec5401f4798ed29887f82ca3800c6684e0ebab86c19c8c",
      "networkId": 0,
      "chainId": 0
    },
    {
      "hash": "0x641354a5b0fc962d1a7944e5050d4250fbe59184f2e37253e92396d2e3557e5a",
      "blockHash": "0x531c584d17cbf46ce46a996a7853f64122ad660e58f279c6a4564fdb6d82ae60",
      "blockNumber": 96055,
      "transactionIndex": 1,
      "confirmations": null,
      "from": "0xC603Ab5ef41fC61AA8b76bEddb09e3Cfcbb174BD",
      "gasPrice": {
        "_hex": "0xd7b0c9f60"
      },
      "gasLimit": {
        "_hex": "0x15f90"
      },
      "to": "0x8F79f76381Aad7B98C19aF55eE75fdfEeb012211",
      "value": {
        "_hex": "0x34e8b88cee2d40000"
      },
      "nonce": 28,
      "data": "0x",
      "r": "0x7ad4236c00faaeae20c87676beb8efc142c81bebeb5024353d44598752b47a8c",
      "s": "0x3f716823193e69b7cd36a0f1ca142da4abedb202ee994bb5262e0d6ac1e03e7a",
      "v": 27,
      "creates": null,
      "raw": "0xf86e1c850d7b0c9f6083015f90948f79f76381aad7b98c19af55ee75fdfeeb01221189034e8b88cee2d40000801ba07ad4236c00faaeae20c87676beb8efc142c81bebeb5024353d44598752b47a8ca03f716823193e69b7cd36a0f1ca142da4abedb202ee994bb5262e0d6ac1e03e7a",
      "networkId": 0,
      "chainId": 0
    },
    {
      "hash": "0x2efd373a905fbd5b932ecda5986d9d4d1a46c3a26c651cd78d23c45356f53366",
      "blockHash": "0x531c584d17cbf46ce46a996a7853f64122ad660e58f279c6a4564fdb6d82ae60",
      "blockNumber": 96055,
      "transactionIndex": 2,
      "confirmations": null,
      "from": "0xC756a750a6c04844BBd9773E948d41610284FdC2",
      "gasPrice": {
        "_hex": "0xd1dc64a9b"
      },
      "gasLimit": {
        "_hex": "0x5208"
      },
      "to": "0x32Be343B94f860124dC4fEe278FDCBD38C102D88",
      "value": {
        "_hex": "0x2af67073bc824a000"
      },
      "nonce": 0,
      "data": "0x",
      "r": "0xc6408bd1603cf9da16161915336d9d50df3e34bd15252b0034850e8d78ac3840",
      "s": "0x1aac044bc37dd7007f6eabcdf922848263cd35f0f5aedeb0e56f2c2e1e6201c6",
      "v": 28,
      "creates": null,
      "raw": "0xf86d80850d1dc64a9b8252089432be343b94f860124dc4fee278fdcbd38c102d888902af67073bc824a000801ca0c6408bd1603cf9da16161915336d9d50df3e34bd15252b0034850e8d78ac3840a01aac044bc37dd7007f6eabcdf922848263cd35f0f5aedeb0e56f2c2e1e6201c6",
      "networkId": 0,
      "chainId": 0
    },
    {
      "hash": "0xcc379dc981ac1e3b04e47dfd8194b8ab7c29681568bf9c80fdd3d786a664c687",
      "blockHash": "0x531c584d17cbf46ce46a996a7853f64122ad660e58f279c6a4564fdb6d82ae60",
      "blockNumber": 96055,
      "transactionIndex": 3,
      "confirmations": null,
      "from": "0xb1abce2918E21ddb93AA452731a12672A3d9F75a",
      "gasPrice": {
        "_hex": "0xd1dc64a9b"
      },
      "gasLimit": {
        "_hex": "0x5208"
      },
      "to": "0x32Be343B94f860124dC4fEe278FDCBD38C102D88",
      "value": {
        "_hex": "0x455f5d8ef6174800"
      },
      "nonce": 46,
      "data": "0x",
      "r": "0x1b603689121c1fb52e55bdbaf8060e89d8d03c4063bd02a9e46fed070e0ee4c7",
      "s": "0x77a4060dbbdf5f548aa15f0c487f5513dd8ff723df0eb9c88dbd42af6bc96cc9",
      "v": 28,
      "creates": null,
      "raw": "0xf86c2e850d1dc64a9b8252089432be343b94f860124dc4fee278fdcbd38c102d8888455f5d8ef6174800801ca01b603689121c1fb52e55bdbaf8060e89d8d03c4063bd02a9e46fed070e0ee4c7a077a4060dbbdf5f548aa15f0c487f5513dd8ff723df0eb9c88dbd42af6bc96cc9",
      "networkId": 0,
      "chainId": 0
    }
  ]
}