{
  "hash": "0x7fb8d6b1709afb99400ad37f481afbd50989347023190b791f801c58cd7813d2",
  "parentHash": "0x591e6bb115fd53156138e31e60f9594e02cc81ecb5ba9fe3f73feaad189e0855",
  "number": 65411,
  "timestamp": 1439236519,
  "nonce": "0x889b0fb4bef4bb0d",
  "difficulty": 1944494697523,
  "gasLimit": {
    "_hex": "0x2fefd8"
  },
  "gasUsed": {
    "_hex": "0x5208"
  },
  "miner": "0xC759dc67E0c3816fdC56A2f5bb29920fc07e767D",
  "extraData": "0x476574682f76312e302e312f77696e646f77732f676f312e342e32",
  "transactions": [
    {
      "hash": "0x68b650da3dd918443d79f8fa418e20e829201b55dc56269b1557049ee5b55c32",
      "blockHash": "0x7fb8d6b1709afb99400ad37f481afbd50989347023190b791f801c58cd7813d2",
      "blockNumber": 65411,
      "transactionIndex": 0,
      "confirmations": null,
      "from": "0xF2C98425f9f22071AB4DFA15A34628246FEDc163",
      "gasPrice": {
        "_hex": "0xd4eb870e6"
      },
      "gasLimit": {
        "_hex": "0x5208"
      },
      "to": "0x32Be343B94f860124dC4fEe278FDCBD38C102D88",
      "value": {
        "_hex": "0x242f4496db368c0000"
      },
      "nonce": 1,
      "data": "0x",
      "r": "0xb5f5a03310feb622052b4abebc91100243cc8d66650e5f56df48016c6975b755",
      "s": "0x624e8df78b8fc15174702f671f56278c75e84a42bf0d5c0dcbdcb65d570963f7",
      "v": 27,
      "creates": null,
      "raw": "0xf86d01850d4eb870e68252089432be343b94f860124dc4fee278fdcbd38c102d8889242f4496db368c0000801ba0b5f5a03310feb622052b4abebc91100243cc8d66650e5f56df48016c6975b755a0624e8df78b8fc15174702f671f56278c75e84a42bf0d5c0dcbdcb65d570963f7",
      "networkId": 0,
      "chainId": 0
    }
  ]
}