{
  "hash": "0x108550c571593b1a52f52749314497537407fb7e0564443680863f8f9cdb15f4",
  "parentHash": "0x6a28ea5c012510328992f6b32bd266f1c3ccfc91109ced16c76d5a16b1825f5f",
  "number": 110187,
  "timestamp": 1439969555,
  "nonce": "0x969719cb2948f3b7",
  "difficulty": 4371447473621,
  "gasLimit": {
    "_hex": "0x2fefd8"
  },
  "gasUsed": {
    "_hex": "0x520c"
  },
  "miner": "0xC6A5D22D1DDd24B32a308bA4A49ec3cA38a2D0A6",
  "extraData": "0x",
  "transactions": [
    {
      "hash": "0x6d618be119d16fa480055561974d3bb4b7e95fad80e5ecd6d8c391dd3d60b5eb",
      "blockHash": "0x108550c571593b1a52f52749314497537407fb7e0564443680863f8f9cdb15f4",
      "blockNumber": 110187,
      "transactionIndex": 0,
      "confirmations": null,
      "from": "0xb9836ec1f42Bd48331bceaedb74a6Bcdc22832bD",
      "gasPrice": {
        "_hex": "0xe53acd3d6"
      },
      "gasLimit": {
        "_hex": "0x7530"
      },
      "to": "0x7cB57B5A97eAbe94205C07890BE4c1aD31E486A8",
      "value": {
        "_hex": "0x38d7ea4c68000"
      },
      "nonce": 8,
      "data": "0x00",
      "r": "0xfe5b68fc46ce8167cbf8e43140abf0278ed7d5dbcbbc8105571d328196dbbb6c",
      "s": "0x7982f62fd2d03c724df2ea8e5274ac515bf60b6ab3d93b583308fdf6c8a54d57",
      "v": 28,
      "creates": null,
      "raw": "0xf86b08850e53acd3d6827530947cb57b5a97eabe94205c07890be4c1ad31e486a887038d7ea4c68000001ca0fe5b68fc46ce8167cbf8e43140abf0278ed7d5dbcbbc8105571d328196dbbb6ca07982f62fd2d03c724df2ea8e5274ac515bf60b6ab3d93b583308fdf6c8a54d57",
      "networkId": 0,
      "chainId": 0
    }
  ]
}