{
  "hash": "0x4884f505a75a85a5dfd071000ee9fc66a5e103650136163638a370c537665400",
  "parentHash": "0x3fe98a521f67bc014df601c0205db296ea45bd272328bae3018c21b73830be86",
  "number": 104374,
  "timestamp": 1439868738,
  "nonce": "0x768932b43ad66dcc",
  "difficulty": 4308761154504,
  "gasLimit": {
    "_hex": "0x2fefd8"
  },
  "gasUsed": {
    "_hex": "0x5208"
  },
  "miner": "0x9Fa9952255B2b06639A04D63804d4BdFFf6E2d7e",
  "extraData": "0x476574682f76312e302e312f77696e646f77732f676f312e342e32",
  "transactions": [
    {
      "hash": "0x2c3e2d410bb38c532b06c1d0d6232cb0809828b17b138e9fa5083a350c51a15a",
      "blockHash": "0x4884f505a75a85a5dfd071000ee9fc66a5e103650136163638a370c537665400",
      "blockNumber": 104374,
      "transactionIndex": 0,
      "confirmations": null,
      "from": "0xD9666150A9dA92d9108198a4072970805a8B3428",
      "gasPrice": {
        "_hex": "0xdb48e591d"
      },
      "gasLimit": {
        "_hex": "0x5208"
      },
      "to": "0x32Be343B94f860124dC4fEe278FDCBD38C102D88",
      "value": {
        "_hex": "0x455f2d3eff5c4800"
      },
      "nonce": 67,
      "data": "0x",
      "r": "0xdd200db0e30063685030c858c6d39b0113a2d0e8fb1820274ff6e409d195e2f2",
      "s": "0x2355ad9e2edac6948c31873a98a4d3e892db8ec8000bb0dd009404185b6e26e7",
      "v": 27,
      "creates": null,
      "raw": "0xf86c43850db48e591d8252089432be343b94f860124dc4fee278fdcbd38c102d8888455f2d3eff5c4800801ba0dd200db0e30063685030c858c6d39b0113a2d0e8fb1820274ff6e409d195e2f2a02355ad9e2edac6948c31873a98a4d3e892db8ec8000bb0dd009404185b6e26e7",
      "networkId": 0,
      "chainId": 0
    }
  ]
}