{
  "hash": "0xc0231809256f0c11fa448fd1b44c9186e34bebbc457c29e152c39b85edcb0790",
  "parentHash": "0x363b4797f335568dcb66e3e8dcff7497f84e4ac5e1f08a0ef2279dffe3254c46",
  "number": 84250,
  "timestamp": 1439547006,
  "nonce": "0x4fdff302ab1d5f20",
  "difficulty": 2531645953951,
  "gasLimit": {
    "_hex": "0x2fefd8"
  },
  "gasUsed": {
    "_hex": "0xa410"
  },
  "miner": "0xD3E2F0F585C1bDF616A23E113223ba0D26865B01",
  "extraData": "0x476574682f76312e302e312f77696e646f77732f676f312e342e32",
  "transactions": [
    {
      "hash": "0x24207c3a900151f54302d9b1474a264916b6707fd8085dcef84ac51d9827be45",
      "blockHash": "0xc0231809256f0c11fa448fd1b44c9186e34bebbc457c29e152c39b85edcb0790",
      "blockNumber": 84250,
      "transactionIndex": 0,
      "confirmations": null,
      "from": "0xC47Aaa860008be6f65B58c6C6E02a84e666EfE31",
      "gasPrice": {
        "_hex": "0xcd5d66633"
      },
      "gasLimit": {
        "_hex": "0x15f90"
      },
      "to": "0x0000000000000000000000000000000000000000",
      "value": {
        "_hex": "0x45600403a02d7eb2"
      },
      "nonce": 13,
      "data": "0x",
      "r": "0x7cd326366a755f4829a2e0345b7454044f8db74e33a2efa842cd2716c5e2ffce",
      "s": "0x4bb61a9ebc1b3078c4ff5077e68b3719ad7101ec3afe65b421d427850dbcb705",
      "v": 28,
      "creates": null,
      "raw": "0xf86d0d850cd5d6663383015f909400000000000000000000000000000000000000008845600403a02d7eb2801ca07cd326366a755f4829a2e0345b7454044f8db74e33a2efa842cd2716c5e2ffcea04bb61a9ebc1b3078c4ff5077e68b3719ad7101ec3afe65b421d427850dbcb705",
      "networkId": 0,
      "chainId": 0
    },
    {
      "hash": "0x66c26054602bd853442b878e1a39bfbf5e43709f7bfd7d59896af5e86676fe35",
      "blockHash": "0xc0231809256f0c11fa448fd1b44c9186e34bebbc457c29e152c39b85edcb0790",
      "blockNumber": 84250,
      "transactionIndex": 1,
      "confirmations": null,
      "from": "0x2910543Af39abA0Cd09dBb2D50200b3E800A63D2",
      "gasPrice": {
        "_hex": "0xcb1659c0c"
      },
      "gasLimit": {
        "_hex": "0x5208"
      },
      "to": "0xD05f85Eb920117eeBBf13dd94FeEA60e9eB34537",
      "value": {
        "_hex": "0x580f8537df0a2e000"
      },
      "nonce": 544,
      "data": "0x",
      "r": "0xe255c27ff03fd0fc98082c5375cfc953267915961950960291ab3794da23e5d2",
      "s": "0x4a777926ba8c2b5ecd1e9bbd13eb1eb1a674473b8db72c9479bdbf927adc74f5",
      "v": 27,
      "creates": null,
      "raw": "0xf86f820220850cb1659c0c82520894d05f85eb920117eebbf13dd94feea60e9eb34537890580f8537df0a2e000801ba0e255c27ff03fd0fc98082c5375cfc953267915961950960291ab3794da23e5d2a04a777926ba8c2b5ecd1e9bbd13eb1eb1a674473b8db72c9479bdbf927adc74f5",
      "networkId": 0,
      "chainId": 0
    }
  ]
}