{
  "hash": "0x98196cbe794215e55e6eeef61606718790e8eea26cc1c57475975581cd37886e",
  "parentHash": "0x989be72f9c8d6bb9da57efe66dd1eb86c60084ba4c01d9ca3cfc22da0de96722",
  "number": 86156,
  "timestamp": 1439574337,
  "nonce": "0x05e4d777f7a111ed",
  "difficulty": 2804377315930,
  "gasLimit": {
    "_hex": "0x2fefd8"
  },
  "gasUsed": {
    "_hex": "0x5208"
  },
  "miner": "0x9298A283561414096A90B8e52c2202D03F3406A9",
  "extraData": "0x",
  "transactions": [
    {
      "hash": "0xeeeccf1882ea50499d539b1647906f0feaa0d6141bf96299a03c2c5c631f8797",
      "blockHash": "0x98196cbe794215e55e6eeef61606718790e8eea26cc1c57475975581cd37886e",
      "blockNumber": 86156,
      "transactionIndex": 0,
      "confirmations": null,
      "from": "0xa9f5E7bf6Cbf6fEc55B30850Eb492b47A376d050",
      "gasPrice": {
        "_hex": "0xd6b299d0e"
      },
      "gasLimit": {
        "_hex": "0x5208"
      },
      "to": "0x32Be343B94f860124dC4fEe278FDCBD38C102D88",
      "value": {
        "_hex": "0x11c7e5c97032a50000"
      },
      "nonce": 19,
      "data": "0x",
      "r": "0x46de46293b2f39750692586a09287943feb4f2e036924a9543de1c460d289f92",
      "s": "0x39d84eede50f8b535c8392d807bba1d1af1398c71ee4a4049c15e0697cf05058",
      "v": 28,
      "creates": null,
      "raw": "0xf86d13850d6b299d0e8252089432be343b94f860124dc4fee278fdcbd38c102d888911c7e5c97032a50000801ca046de46293b2f39750692586a09287943feb4f2e036924a9543de1c460d289f92a039d84eede50f8b535c8392d807bba1d1af1398c71ee4a4049c15e0697cf05058",
      "networkId": 0,
      "chainId": 0
    }
  ]
}