{
  "hash": "0xdfa743cefe50fa2930dceb846a9670f5b2506314531ba5de5a2dc85634cb940d",
  "parentHash": "0x002dbb8395442968bec488adceafa581cfb948047a865944f438b884f8bcbbd6",
  "number": 59492,
  "timestamp": 1439139095,
  "nonce": "0x9aae6bf87aa702f5",
  "difficulty": 1699703511157,
  "gasLimit": {
    "_hex": "0x2fefd8"
  },
  "gasUsed": {
    "_hex": "0x5208"
  },
  "miner": "0x2134e2a2b718DCa96580ECAC31E653Ea1fdd58DA",
  "extraData": "0x476574682f76312e302e312f77696e646f77732f676f312e342e32",
  "transactions": [
    {
      "hash": "0xa2488ab76c4df8d674e79c7cda7f3eae49301e053de06691a5ea41e9b1cb3e3b",
      "blockHash": "0xdfa743cefe50fa2930dceb846a9670f5b2506314531ba5de5a2dc85634cb940d",
      "blockNumber": 59492,
      "transactionIndex": 0,
      "confirmations": null,
      "from": "0x3a7dB224aCaE17de7798797D82cdF8253017DFa8",
      "gasPrice": {
        "_hex": "0xd8364fc25"
      },
      "gasLimit": {
        "_hex": "0x15f90"
      },
      "to": "0x33f844352144a9DDd91542b0adCD8Ba0dD142e93",
      "value": {
        "_hex": "0xde0b6b3a7640000"
      },
      "nonce": 0,
      "data": "0x",
      "r": "0xb8272a903e6636cebae6a2d318512a8109cfef452da4fa592322fd244ed8874e",
      "s": "0x5b5214ad9c26e285bdabfaa3f9b79d97f4830424e987e9cc115aaf560c552bc5",
      "v": 28,
      "creates": null,
      "raw": "0xf86d80850d8364fc2583015f909433f844352144a9ddd91542b0adcd8ba0dd142e93880de0b6b3a7640000801ca0b8272a903e6636cebae6a2d318512a8109cfef452da4fa592322fd244ed8874ea05b5214ad9c26e285bdabfaa3f9b79d97f4830424e987e9cc115aaf560c552bc5",
      "networkId": 0,
      "chainId": 0
    }
  ]
}