{
  "hash": "0x47619b241207a141a370420e102c7e40ff726b193c07b67bf6e03b375d549f70",
  "parentHash": "0x39a80f0533120634a2e6481854010c00b8a6ad59e36fc7faecd5af3063765710",
  "number": 80336,
  "timestamp": 1439484144,
  "nonce": "0x2f43dc6eaa3c7c66",
  "difficulty": 2379371188276,
  "gasLimit": {
    "_hex": "0x2fefd8"
  },
  "gasUsed": {
    "_hex": "0xf618"
  },
  "miner": "0x31995C46B15C84523cDEE26f49A681b8237e43F5",
  "extraData": "0x476574682f76312e302e312f77696e646f77732f676f312e342e32",
  "transactions": [
    {
      "hash": "0xcc668f750a161013395182716d823a62cfa12b7f91201cb04a3b04bab1fb2379",
      "blockHash": "0x47619b241207a141a370420e102c7e40ff726b193c07b67bf6e03b375d549f70",
      "blockNumber": 80336,
      "transactionIndex": 0,
      "confirmations": null,
      "from": "0x65d6F6040D1B3E8E8bFD5F70B46A2dB2ADBFca9a",
      "gasPrice": {
        "_hex": "0xba43b7400"
      },
      "gasLimit": {
        "_hex": "0x5208"
      },
      "to": "0xC47Aaa860008be6f65B58c6C6E02a84e666EfE31",
      "value": {
        "_hex": "0x1d4e5598ca412c000"
      },
      "nonce": 0,
      "data": "0x",
      "r": "0x2f44bb02618a47f0b599459e41a6cb252538c32c75d240ba12e9ffb4185cd316",
      "s": "0x70b95685d7e843980f09bd83bdbedad177e1cc5436e4bc3bc003ce92cf82fef8",
      "v": 27,
      "creates": null,
      "raw": "0xf86d80850ba43b740082520894c47aaa860008be6f65b58c6c6e02a84e666efe318901d4e5598ca412c000801ba02f44bb02618a47f0b599459e41a6cb252538c32c75d240ba12e9ffb4185cd316a070b95685d7e843980f09bd83bdbedad177e1cc5436e4bc3bc003ce92cf82fef8",
      "networkId": 0,
      "chainId": 0
    },
    {
      "hash": "0x21db2185dcf153f353e40bb7d9f275b033bf4d749882389abc5d7088b73ccbcb",
      "blockHash": "0x47619b241207a141a370420e102c7e40ff726b193c07b67bf6e03b375d549f70",
      "blockNumber": 80336,
      "transactionIndex": 1,
      "confirmations": null,
      "from": "0x2845A058eF8C5aD7d022c344ffF46A61Cd6655f6",
      "gasPrice": {
        "_hex": "0xba43b7400"
      },
      "gasLimit": {
        "_hex": "0x5208"
      },
      "to": "0xC47Aaa860008be6f65B58c6C6E02a84e666EfE31",
      "value": {
        "_hex": "0x11567041e770b38f0"
      },
      "nonce": 0,
      "data": "0x",
      "r": "0x0de2f2edfda1930e518a54bd192a26c027266c7c6d4d3db6c6ba56041e227b4d",
      "s": "0x2a13e5ec396f814fea2e07cfc29fc4ac4b8f12a700ec41778d82c04f876861c8",
      "v": 27,
      "creates": null,
      "raw": "0xf86d80850ba43b740082520894c47aaa860008be6f65b58c6c6e02a84e666efe3189011567041e770b38f0801ba00de2f2edfda1930e518a54bd192a26c027266c7c6d4d3db6c6ba56041e227b4da02a13e5ec396f814fea2e07cfc29fc4ac4b8f12a700ec41778d82c04f876861c8",
      "networkId": 0,
      "chainId": 0
    },
    {
      "hash": "0xa23adb7f56726daecfad3ac96da1403ae57c0a015b45c56dd97555315fece4d4",
      "blockHash": "0x47619b241207a141a370420e102c7e40ff726b193c07b67bf6e03b375d549f70",
      "blockNumber": 80336,
      "transactionIndex": 2,
      "confirmations": null,
      "from": "0x02fFA0599A02Fdb0c30793A61493359dEa887C01",
      "gasPrice": {
        "_hex": "0xba43b7400"
      },
      "gasLimit": {
        "_hex": "0x5208"
      },
      "to": "0xC47Aaa860008be6f65B58c6C6E02a84e666EfE31",
      "value": {
        "_hex": "0x329d2df42d9528f0"
      },
      "nonce": 0,
      "data": "0x",
      "r": "0x4020da7455dfb552cc6afe703dfb1b54c466e67799bc94dff7f56eb7a317a526",
      "s": "0x376528e30447d89392c21165a1fe01201de75179a3594482b1483ce7a956701d",
      "v": 27,
      "creates": null,
      "raw": "0xf86c80850ba43b740082520894c47aaa860008be6f65b58c6c6e02a84e666efe3188329d2df42d9528f0801ba04020da7455dfb552cc6afe703dfb1b54c466e67799bc94dff7f56eb7a317a526a0376528e30447d89392c21165a1fe01201de75179a3594482b1483ce7a956701d",
      "networkId": 0,
      "chainId": 0
    }
  ]
}