{
  "hash": "0xb83738e3493f67ec6795fad9963ebc05241ae8a6dc8fba56189815527ca9763c",
  "parentHash": "0x19772a867733fbf9b15a3079577533dcdb2125fcf46efd6db7a9f384128215f4",
  "number": 75212,
  "timestamp": 1439399642,
  "nonce": "0xe814835fdf9177fb",
  "difficulty": 2193318772974,
  "gasLimit": {
    "_hex": "0x2fefd8"
  },
  "gasUsed": {
    "_hex": "0x5208"
  },
  "miner": "0x1B7047b4338ACf65bE94C1A3e8c5c9338ad7d67C",
  "extraData": "0x476574682f76312e302e312d38326566323666362f6c696e75782f676f312e34",
  "transactions": [
    {
      "hash": "0x31dff294131c9191027f6c5cac354cd35f58347fbb8ec539a7bfc4d8af8c9451",
      "blockHash": "0xb83738e3493f67ec6795fad9963ebc05241ae8a6dc8fba56189815527ca9763c",
      "blockNumber": 75212,
      "transactionIndex": 0,
      "confirmations": null,
      "from": "0x05a56E2D52c817161883f50c441c3228CFe54d9f",
      "gasPrice": {
        "_hex": "0xd7d40ace3"
      },
      "gasLimit": {
        "_hex": "0x15f90"
      },
      "to": "0xC130aFe98f8C42e19bDAcF8C6e63e48a44a26Ca8",
      "value": {
        "_hex": "0x1"
      },
      "nonce": 0,
      "data": "0x",
      "r": "0x5661b60f280ede23caec5c9c036d69d4f4a500e14816fa11a392946d58fbe70c",
      "s": "0x29bb2d311d77bf5ca423867bda3c80527f521e91d98ee87a00b008736ed91225",
      "v": 28,
      "creates": null,
      "raw": "0xf86580850d7d40ace383015f9094c130afe98f8c42e19bdacf8c6e63e48a44a26ca801801ca05661b60f280ede23caec5c9c036d69d4f4a500e14816fa11a392946d58fbe70ca029bb2d311d77bf5ca423867bda3c80527f521e91d98ee87a00b008736ed91225",
      "networkId": 0,
      "chainId": 0
    }
  ]
}