{
  "hash": "0x304c5877126015a77aefb52de8e31a0dfe64b5c54e700f616378d177687e726a",
  "parentHash": "0x18d531622a12dde9f33b8b7c004485dcc8f84217c2a61638b468a050293871ec",
  "number": 111956,
  "timestamp": 1439999398,
  "nonce": "0xad07a192b9a6ff37",
  "difficulty": 4389774391293,
  "gasLimit": {
    "_hex": "0x2fefd8"
  },
  "gasUsed": {
    "_hex": "0x5208"
  },
  "miner": "0x157c6f2431eB1a95797EE86F7d17b3c0FD47A247",
  "extraData": "0x476574682f76312e302e312f77696e646f77732f676f312e342e32",
  "transactions": [
    {
      "hash": "0xfe73f30fc8f7703b8bd9034154d3012732fba1c733440642a7c57dd1987061bc",
      "blockHash": "0x304c5877126015a77aefb52de8e31a0dfe64b5c54e700f616378d177687e726a",
      "blockNumber": 111956,
      "transactionIndex": 0,
      "confirmations": null,
      "from": "0xbCa6DD2fDDAf2d917006b0Aa1F8d1962BFf7FB87",
      "gasPrice": {
        "_hex": "0xdc4b60f1d"
      },
      "gasLimit": {
        "_hex": "0x15f90"
      },
      "to": "0x6BED894B45159c6001dfbC5bd6257A10B9eF2202",
      "value": {
        "_hex": "0x5af3107a4000"
      },
      "nonce": 1,
      "data": "0x",
      "r": "0xd6e937de369fd858a15327a6126e8a0191714ff4fed4aa8d406525ce2f3d354f",
      "s": "0x754f19ed768021b94263ddc33ed2df206bdd0f61560a32fdd316245337596e73",
      "v": 27,
      "creates": null,
      "raw": "0xf86b01850dc4b60f1d83015f90946bed894b45159c6001dfbc5bd6257a10b9ef2202865af3107a4000801ba0d6e937de369fd858a15327a6126e8a0191714ff4fed4aa8d406525ce2f3d354fa0754f19ed768021b94263ddc33ed2df206bdd0f61560a32fdd316245337596e73",
      "networkId": 0,
      "chainId": 0
    }
  ]
}