{
  "hash": "0x799a4f1342ca922091a42cc4a0bb534ee51be2c69fb54e37eb690f203e659d44",
  "parentHash": "0x507e58e8cbe5d69073676b11befadf1850857297f140ae71fd42878760a63e1a",
  "number": 111283,
  "timestamp": 1439987745,
  "nonce": "0x5e7663c51cc30d79",
  "difficulty": 4400857765219,
  "gasLimit": {
    "_hex": "0x2fefd8"
  },
  "gasUsed": {
    "_hex": "0x5208"
  },
  "miner": "0xe6A7a1d47ff21B6321162AEA7C6CB457D5476Bca",
  "extraData": "0x476574682f76312e302e312d38326566323666362f6c696e75782f676f312e34",
  "transactions": [
    {
      "hash": "0x206ee450d4ff05c692e5a975555e03ac087d125b3ca213348a656cb197f555a5",
      "blockHash": "0x799a4f1342ca922091a42cc4a0bb534ee51be2c69fb54e37eb690f203e659d44",
      "blockNumber": 111283,
      "transactionIndex": 0,
      "confirmations": null,
      "from": "0xA10CDF70bc138605c39F8651A78485Fe4F1C3811",
      "gasPrice": {
        "_hex": "0xe17861dbd"
      },
      "gasLimit": {
        "_hex": "0x5208"
      },
      "to": "0x32Be343B94f860124dC4fEe278FDCBD38C102D88",
      "value": {
        "_hex": "0x15aed539399419000"
      },
      "nonce": 7,
      "data": "0x",
      "r": "0x4b3515ef2105bb577cb4bf380608f6df4e4be0157eabdabb6829248fc7ceb83f",
      "s": "0x58872f32b82753be5a1548f14391421aa310c5db56a148ac6fea38a04507c93d",
      "v": 27,
      "creates": null,
      "raw": "0xf86d07850e17861dbd8252089432be343b94f860124dc4fee278fdcbd38c102d8889015aed539399419000801ba04b3515ef2105bb577cb4bf380608f6df4e4be0157eabdabb6829248fc7ceb83fa058872f32b82753be5a1548f14391421aa310c5db56a148ac6fea38a04507c93d",
      "networkId": 0,
      "chainId": 0
    }
  ]
}