{
  "hash": "0x2e0448259efdd2d9cea12d3ff3645b5f00e5d966814c57000447740a85c46d08",
  "parentHash": "0xb3f42d3ec5ceee0708e4a8833488a1b71acac90cf4cf8521b87ffec58ffd6a0c",
  "number": 60810,
  "timestamp": 1439161824,
  "nonce": "0x59a336be1d3506e9",
  "difficulty": 1738039323072,
  "gasLimit": {
    "_hex": "0x2fefd8"
  },
  "gasUsed": {
    "_hex": "0x5208"
  },
  "miner": "0x64bE1C1A0198370F53B2081e15478BE3135D6beF",
  "extraData": "0x476574682f76312e302e312f77696e646f77732f676f312e342e32",
  "transactions": [
    {
      "hash": "0xab07bea2a05e4054cd1405eb2487ecd1084644a1cc539f46e23bb030b72b57c8",
      "blockHash": "0x2e0448259efdd2d9cea12d3ff3645b5f00e5d966814c57000447740a85c46d08",
      "blockNumber": 60810,
      "transactionIndex": 0,
      "confirmations": null,
      "from": "0x120A270bbC009644e35F0bB6ab13f95b8199c4ad",
      "gasPrice": {
        "_hex": "0xda404f2fd"
      },
      "gasLimit": {
        "_hex": "0x15f90"
      },
      "to": "0xB99A5861912fA8d37C834e46a3415Ca7e9f50F6D",
      "value": {
        "_hex": "0x1bebfbd9788c6400"
      },
      "nonce": 51,
      "data": "0x",
      "r": "0xd7edba96b86b01c503f1d030037b24e4b231b660fb2cde9f27dfc5c48600f53d",
      "s": "0x79550762285d44575dc61eb76d95eadd8fb27974472b39605b5abd9cc5213769",
      "v": 28,
      "creates": null,
      "raw": "0xf86d33850da404f2fd83015f9094b99a5861912fa8d37c834e46a3415ca7e9f50f6d881bebfbd9788c6400801ca0d7edba96b86b01c503f1d030037b24e4b231b660fb2cde9f27dfc5c48600f53da079550762285d44575dc61eb76d95eadd8fb27974472b39605b5abd9cc5213769",
      "networkId": 0,
      "chainId": 0
    }
  ]
}