{
  "hash": "0x27f8fc4e28e1e8c8cf168bba9a15e72572d7d31ce258678ba3df3ba8aaf73b98",
  "parentHash": "0x0b64d9aab1895b3cf0b5d034d3fc0e27ad22e38ac7f480c6860fef3e26ac32ff",
  "number": 112254,
  "timestamp": 1440004519,
  "nonce": "0x03bef1c87ca03f15",
  "difficulty": 4385333805437,
  "gasLimit": {
    "_hex": "0x2fefd8"
  },
  "gasUsed": {
    "_hex": "0x5208"
  },
  "miner": "0xf927a40C8B7F6E07c5af7FA2155B4864a4112B13",
  "extraData": "0x",
  "transactions": [
    {
      "hash": "0x64cea7102c3515a3b21e56f9723b934cbf6d177329bb7e5b4af9813c233d35b4",
      "blockHash": "0x27f8fc4e28e1e8c8cf168bba9a15e72572d7d31ce258678ba3df3ba8aaf73b98",
      "blockNumber": 112254,
      "transactionIndex": 0,
      "confirmations": null,
      "from": "0xa6BDc31c431B8F97848c9D60cbbe9660dc450eB7",
      "gasPrice": {
        "_hex": "0xdeba24720"
      },
      "gasLimit": {
        "_hex": "0x5208"
      },
      "to": "0x32Be343B94f860124dC4fEe278FDCBD38C102D88",
      "value": {
        "_hex": "0x340637372ff79400"
      },
      "nonce": 198,
      "data": "0x",
      "r": "0xa51642e7b56356d99b77b976490a10d804c52f0fcf222144e22e27ee00f1d426",
      "s": "0x782b9c15935621cfafd14c6a2ce3cf5e1b53d66b089ef88b7fda00d50337fcea",
      "v": 27,
      "creates": null,
      "raw": "0xf86d81c6850deba247208252089432be343b94f860124dc4fee278fdcbd38c102d8888340637372ff79400801ba0a51642e7b56356d99b77b976490a10d804c52f0fcf222144e22e27ee00f1d426a0782b9c15935621cfafd14c6a2ce3cf5e1b53d66b089ef88b7fda00d50337fcea",
      "networkId": 0,
      "chainId": 0
    }
  ]
}