{
  "hash": "0xdc60c143597d7a6f8a66a118cf46239654dbeeb462a8cececdbd6ef1371051e9",
  "parentHash": "0x6017fef185b94a019c2158f1e2a2a59f6ae4442a1a3f70ee08db8b10f45b3713",
  "number": 53607,
  "timestamp": 1439040398,
  "nonce": "0x558738efda4b1682",
  "difficulty": 1593948013571,
  "gasLimit": {
    "_hex": "0x2ce209"
  },
  "gasUsed": {
    "_hex": "0x5208"
  },
  "miner": "0x1D889aFF5D57138c9819412d63b5d877567B5936",
  "extraData": "0x476574682f76312e302e312f77696e646f77732f676f312e342e32",
  "transactions": [
    {
      "hash": "0x9accaf50c99cc9d117eb7d32c8c6c222b10c1f9f7779e4017333fc057dcefeed",
      "blockHash": "0xdc60c143597d7a6f8a66a118cf46239654dbeeb462a8cececdbd6ef1371051e9",
      "blockNumber": 53607,
      "transactionIndex": 0,
      "confirmations": null,
      "from": "0x17dF49518D73b129F0DA36b1c9B40CB66420FDc7",
      "gasPrice": {
        "_hex": "0xdeb0a3429"
      },
      "gasLimit": {
        "_hex": "0x5dc0"
      },
      "to": "0x80459F7950368e582175a9AC45E2d9a1B76932EF",
      "value": {
        "_hex": "0xde0b6b3a7640000"
      },
      "nonce": 3,
      "data": "0x",
      "r": "0xf9451d2fb663ce0e63e34e1bed81eb8ef1fec35d860309d3822d65813b3401ec",
      "s": "0x6cb462aae7a9b822963c8c6c31105d95d3d9355151aa823245cd4d4fbf51bfdb",
      "v": 27,
      "creates": null,
      "raw": "0xf86c03850deb0a3429825dc09480459f7950368e582175a9ac45e2d9a1b76932ef880de0b6b3a7640000801ba0f9451d2fb663ce0e63e34e1bed81eb8ef1fec35d860309d3822d65813b3401eca06cb462aae7a9b822963c8c6c31105d95d3d9355151aa823245cd4d4fbf51bfdb",
      "networkId": 0,
      "chainId": 0
    }
  ]
}