{
  "hash": "0x579bdf67dfea10de2b392609d4af7f29e0c69b657a314e7c7aae28297b89b680",
  "parentHash": "0x09111151d2221cf2149c0618c5cf3e632a8183296e666dbc65e5c36f6e22cd0f",
  "number": 68378,
  "timestamp": 1439286851,
  "nonce": "0x27c5e6d1b2b6c73a",
  "difficulty": 2020252847286,
  "gasLimit": {
    "_hex": "0x2fefd8"
  },
  "gasUsed": {
    "_hex": "0x5208"
  },
  "miner": "0x9746c7e1ef2bd21FF3997fa467593a89cb852BD0",
  "extraData": "0x476574682f76312e302e312f77696e646f77732f676f312e342e32",
  "transactions": [
    {
      "hash": "0xaa6e066da3af5b4afe7316867d9ac0a0e922783947ec4959b55b028af8c930ed",
      "blockHash": "0x579bdf67dfea10de2b392609d4af7f29e0c69b657a314e7c7aae28297b89b680",
      "blockNumber": 68378,
      "transactionIndex": 0,
      "confirmations": null,
      "from": "0x6747f922385c9a6F9cfDf095F34345257DD597bE",
      "gasPrice": {
        "_hex": "0xba43b7400"
      },
      "gasLimit": {
        "_hex": "0x5208"
      },
      "to": "0x91409b1271111E5f3a526e53031D7553eC8959D3",
      "value": {
        "_hex": "0x1fcbfa42bd6000"
      },
      "nonce": 69,
      "data": "0x",
      "r": "0x1dffd858544ab4c80a80a87143e1cdb87e9efea52872d1ebeb3b36379ddb4e97",
      "s": "0x2af74af55b279b0f82ab661deb54571d34e29fbe25244141d5e13f7f18fd649a",
      "v": 27,
      "creates": null,
      "raw": "0xf86b45850ba43b74008252089491409b1271111e5f3a526e53031d7553ec8959d3871fcbfa42bd6000801ba01dffd858544ab4c80a80a87143e1cdb87e9efea52872d1ebeb3b36379ddb4e97a02af74af55b279b0f82ab661deb54571d34e29fbe25244141d5e13f7f18fd649a",
      "networkId": 0,
      "chainId": 0
    }
  ]
}