{
  "hash": "0x62de57efe8e51ec43f4e6fc6d4c0238041739fb8cfd8d9ad39688c1e60a82e32",
  "parentHash": "0xf6eb2d796849130d6b8809adfcffc3edc24b4a259fda72115f9f98a8e59ed993",
  "number": 54943,
  "timestamp": 1439062898,
  "nonce": "0x9ff8c37ea44d9e9e",
  "difficulty": 1617211130033,
  "gasLimit": {
    "_hex": "0x2fefd8"
  },
  "gasUsed": {
    "_hex": "0x1ec30"
  },
  "miner": "0x1D889aFF5D57138c9819412d63b5d877567B5936",
  "extraData": "0x476574682f76312e302e312f77696e646f77732f676f312e342e32",
  "transactions": [
    {
      "hash": "0xd7296eabff219d9dc3551153a6f5713e87db6f0f0a9b7e2d1c7708eb329068b5",
      "blockHash": "0x62de57efe8e51ec43f4e6fc6d4c0238041739fb8cfd8d9ad39688c1e60a82e32",
      "blockNumber": 54943,
      "transactionIndex": 0,
      "confirmations": null,
      "from": "0x1308A2e95c0160B90803ddCA9B9a5bb55E416d79",
      "gasPrice": {
        "_hex": "0xe8d4a51000"
      },
      "gasLimit": {
        "_hex": "0x15f90"
      },
      "to": "0xCB44206190cFF6f59d4674f5239d254f1E9eaD09",
      "value": {
        "_hex": "0x4563918244f400000"
      },
      "nonce": 22,
      "data": "0x",
      "r": "0xaa1022deb5fb981e41b208e3cd5b29558b796f6928335221e1136d8fbce03035",
      "s": "0x3fb29147b5ac4d92f2b5ef29e0604288ac3cc83ef2c3d7763b4b5265e4d864cb",
      "v": 28,
      "creates": null,
      "raw": "0xf86e1685e8d4a5100083015f9094cb44206190cff6f59d4674f5239d254f1e9ead098904563918244f400000801ca0aa1022deb5fb981e41b208e3cd5b29558b796f6928335221e1136d8fbce03035a03fb29147b5ac4d92f2b5ef29e0604288ac3cc83ef2c3d7763b4b5265e4d864cb",
      "networkId": 0,
      "chainId": 0
    },
    {
      "hash": "0x1ac4eefa3bbdca677e273e838fd281ede7f5bea901ba44b2120769c92297d5ac",
      "blockHash": "0x62de57efe8e51ec43f4e6fc6d4c0238041739fb8cfd8d9ad39688c1e60a82e32",
      "blockNumber": 54943,
      "transactionIndex": 1,
      "confirmations": null,
      "from": "0xE7f61405565C3aB43f7EA6c266a69a705f98703b",
      "gasPrice": {
        "_hex": "0xd6cca5487"
      },
      "gasLimit": {
        "_hex": "0x5208"
      },
      "to": "0x32Be343B94f860124dC4fEe278FDCBD38C102D88",
      "value": {
        "_hex": "0x98a38c72e11fc800"
      },
      "nonce": 0,
      "data": "0x",
      "r": "0x7dc7f4535eb242226d19e5a4bcea03908298d7da5b235bf84fe0f0430e0a385f",
      "s": "0x0b2674277adc627b0062661ac533b44d6d1f73521d79d2d0491a6af9d34142bd",
      "v": 28,
      "creates": null,
      "raw": "0xf86c80850d6cca54878252089432be343b94f860124dc4fee278fdcbd38c102d888898a38c72e11fc800801ca07dc7f4535eb242226d19e5a4bcea03908298d7da5b235bf84fe0f0430e0a385fa00b2674277adc627b0062661ac533b44d6d1f73521d79d2d0491a6af9d34142bd",
      "networkId": 0,
      "chainId": 0
    },
    {
      "hash": "0x68da3dcf63d7bf2244c1b6ad916547bd582c938478e24bd44034b506d06dcdbc",
      "blockHash": "0x62de57efe8e51ec43f4e6fc6d4c0238041739fb8cfd8d9ad39688c1e60a82e32",
      "blockNumber": 54943,
      "transactionIndex": 2,
      "confirmations": null,
      "from": "0x8eEcADf7eB3C3c85d8019B240671A27478296684",
      "gasPrice": {
        "_hex": "0xd6cca5487"
      },
      "gasLimit": {
        "_hex": "0x5208"
      },
      "to": "0x32Be343B94f860124dC4fEe278FDCBD38C102D88",
      "value": {
        "_hex": "0x56ae90dedd39700000"
      },
      "nonce": 0,
      "data": "0x",
      "r": "0xa6da298bf937ae2171f9964bcfe2731b1cf538050f5fd5a566763de65572ecaf",
      "s": "0x2a280eb7209a0b682f8042982a05849a91df61d55dfd75b38b1451471e6e72e3",
      "v": 27,
      "creates": null,
      "raw": "0xf86d80850d6cca54878252089432be343b94f860124dc4fee278fdcbd38c102d888956ae90dedd39700000801ba0a6da298bf937ae2171f9964bcfe2731b1cf538050f5fd5a566763de65572ecafa02a280eb7209a0b682f8042982a05849a91df61d55dfd75b38b1451471e6e72e3",
      "networkId": 0,
      "chainId": 0
    },
    {
      "hash": "0x58a3e39ed0f9386685942888eda31cf6bd805ae5b16d9db8d91d76546d25f0a8",
      "blockHash": "0x62de57efe8e51ec43f4e6fc6d4c0238041739fb8cfd8d9ad39688c1e60a82e32",
      "blockNumber": 54943,
      "transactionIndex": 3,
      "confirmations": null,
      "from": "0xa577C0A78748B2600891DD16806a6823cB439316",
      "gasPrice": {
        "_hex": "0xd6cca5487"
      },
      "gasLimit": {
        "_hex": "0x5208"
      },
      "to": "0x32Be343B94f860124dC4fEe278FDCBD38C102D88",
      "value": {
        "_hex": "0x18fa9da23eb13c000"
      },
      "nonce": 0,
      "data": "0x",
      "r": "0x81ef36acefca79834f5d7e94bd4cac2bb4852c5f65d9cb41abf557efd157cbf2",
      "s": "0x6c0798e1ce2a8aa72551865b5601e6d7be8af6ce6cb1d192386e0de2aeb458fe",
      "v": 28,
      "creates": null,
      "raw": "0xf86d80850d6cca54878252089432be343b94f860124dc4fee278fdcbd38c102d8889018fa9da23eb13c000801ca081ef36acefca79834f5d7e94bd4cac2bb4852c5f65d9cb41abf557efd157cbf2a06c0798e1ce2a8aa72551865b5601e6d7be8af6ce6cb1d192386e0de2aeb458fe",
      "networkId": 0,
      "chainId": 0
    },
    {
      "hash": "0x56b35c7376d7e5e56fd7b1ac0b5f1482591d6c7c347183c6d386c73aa9adb307",
      "blockHash": "0x62de57efe8e51ec43f4e6fc6d4c0238041739fb8cfd8d9ad39688c1e60a82e32",
      "blockNumber": 54943,
      "transactionIndex": 4,
      "confirmations": null,
      "from": "0x467a233a319f13Eb9258a6B47A36b1E0d6fd2a43",
      "gasPrice": {
        "_hex": "0xd6cca5487"
      },
      "gasLimit": {
        "_hex": "0x5208"
      },
      "to": "0x32Be343B94f860124dC4fEe278FDCBD38C102D88",
      "value": {
        "_hex": "0x3627e4a9cce7100000"
      },
      "nonce": 0,
      "data": "0x",
      "r": "0xd9e24b2614ff947608a8bce1ce834922d7c7bd883abf2cbd901be1449de9b101",
      "s": "0x2f2bc771b7559f935bcd2ed1c0723e99639deae03eccafb0fa8ab7d7f286173f",
      "v": 28,
      "creates": null,
      "raw": "0xf86d80850d6cca54878252089432be343b94f860124dc4fee278fdcbd38c102d88893627e4a9cce7100000801ca0d9e24b2614ff947608a8bce1ce834922d7c7bd883abf2cbd901be1449de9b101a02f2bc771b7559f935bcd2ed1c0723e99639deae03eccafb0fa8ab7d7f286173f",
      "networkId": 0,
      "chainId": 0
    },
    {
      "hash": "0xa91e41045975684537bb1c930478d5ef6be04a9db1161493544b265189a81564",
      "blockHash": "0x62de57efe8e51ec43f4e6fc6d4c0238041739fb8cfd8d9ad39688c1e60a82e32",
      "blockNumber": 54943,
      "transactionIndex": 5,
      "confirmations": null,
      "from": "0x9C3ca57aFD1E6b12Fc5D00ebDfcC695Adcbb3F30",
      "gasPrice": {
        "_hex": "0xd6cca5487"
      },
      "gasLimit": {
        "_hex": "0x5208"
      },
      "to": "0x32Be343B94f860124dC4fEe278FDCBD38C102D88",
      "value": {
        "_hex": "0xe0cda8e5e127c800"
      },
      "nonce": 0,
      "data": "0x",
      "r": "0x20509231bfd30ffc5940a9ba07dd469ca4fb5b60b9e492f46f0c40d1d9445062",
      "s": "0x4fd52187d004d9af38247c7d7ff133aa49d5448557d39937c8e3074eb1183d54",
      "v": 28,
      "creates": null,
      "raw": "0xf86c80850d6cca54878252089432be343b94f860124dc4fee278fdcbd38c102d8888e0cda8e5e127c800801ca020509231bfd30ffc5940a9ba07dd469ca4fb5b60b9e492f46f0c40d1d9445062a04fd52187d004d9af38247c7d7ff133aa49d5448557d39937c8e3074eb1183d54",
      "networkId": 0,
      "chainId": 0
    }
  ]
}