{
  "hash": "0x6bffed0771d1ebbedf44038e0e40ed22a1291656b59b839209577cb31f21150d",
  "parentHash": "0xc61e088b1c47f4d03733b8886aeb4449340a7aa83d87d4037ff932c6e759f458",
  "number": 91316,
  "timestamp": 1439653756,
  "nonce": "0x46466c05a28a9f23",
  "difficulty": 3464195694302,
  "gasLimit": {
    "_hex": "0x2fefd8"
  },
  "gasUsed": {
    "_hex": "0x5208"
  },
  "miner": "0x00eBA8Ef4fF9B21Ec2FFF273953fDCC81f6fE7da",
  "extraData": "0x476574682f76312e302e312f6c696e75782f676f312e342e32",
  "transactions": [
    {
      "hash": "0xa38da6eb56ac378a591f26e1b7071da7e0dbd8710229d0a09c4c42308c7b55e8",
      "blockHash": "0x6bffed0771d1ebbedf44038e0e40ed22a1291656b59b839209577cb31f21150d",
      "blockNumber": 91316,
      "transactionIndex": 0,
      "confirmations": null,
      "from": "0x32Be343B94f860124dC4fEe278FDCBD38C102D88",
      "gasPrice": {
        "_hex": "0xd2d56487c"
      },
      "gasLimit": {
        "_hex": "0x5208"
      },
      "to": "0xbB7735934F8229F1fc2e76F7AfD82e14AA1e8E81",
      "value": {
        "_hex": "0xc1a351bbc92f900000"
      },
      "nonce": 871,
      "data": "0x",
      "r": "0xd91dab4e2276c294bf316b21ec35658fc8d0e4d65050d9ef67b2a35574b5da4b",
      "s": "0x5e843e7bd267f06e548047fcc8ffa0ea2ab12f8341452fbe7ebccf3d8d10c533",
      "v": 28,
      "creates": null,
      "raw": "0xf86f820367850d2d56487c82520894bb7735934f8229f1fc2e76f7afd82e14aa1e8e8189c1a351bbc92f900000801ca0d91dab4e2276c294bf316b21ec35658fc8d0e4d65050d9ef67b2a35574b5da4ba05e843e7bd267f06e548047fcc8ffa0ea2ab12f8341452fbe7ebccf3d8d10c533",
      "networkId": 0,
      "chainId": 0
    }
  ]
}