{
  "hash": "0x07dc8a880c76942fb1e7b1fb8ce732e6e5899210e0301aa6795e64d749f076e5",
  "parentHash": "0x019c1210329846460aebcaa072db24d97e35eb2e0a91b84002058bb87e279502",
  "number": 118926,
  "timestamp": 1440133805,
  "nonce": "0xe66f95083d57bf6e",
  "difficulty": 4398997320054,
  "gasLimit": {
    "_hex": "0x2fefd8"
  },
  "gasUsed": {
    "_hex": "0x5208"
  },
  "miner": "0x0bcBa20Fb3562FbCAF7c299FbCF7D2590479a3Da",
  "extraData": "0x476574682f76312e302e322f6c696e75782f676f312e342e32",
  "transactions": [
    {
      "hash": "0xb55f13a4e1be8e2b7ab2a92f988e010d16cdae2c6ed9d1843a33fd66722335a3",
      "blockHash": "0x07dc8a880c76942fb1e7b1fb8ce732e6e5899210e0301aa6795e64d749f076e5",
      "blockNumber": 118926,
      "transactionIndex": 0,
      "confirmations": null,
      "from": "0x13aE5B35f82651Ff327d41502F0Aa90DA76D777E",
      "gasPrice": {
        "_hex": "0xba43b7400"
      },
      "gasLimit": {
        "_hex": "0x5208"
      },
      "to": "0x32Be343B94f860124dC4fEe278FDCBD38C102D88",
      "value": {
        "_hex": "0x455fd68a17f06000"
      },
      "nonce": 9,
      "data": "0x",
      "r": "0x3c3a40e35ef2080f113563f43c56a134ebb8b15ff2639d192401e70eb7a2333a",
      "s": "0x4fe5b35a93068c3e0617f65518f1595e3192faedbd8eda91f57af9f3ca6a45d8",
      "v": 28,
      "creates": null,
      "raw": "0xf86c09850ba43b74008252089432be343b94f860124dc4fee278fdcbd38c102d8888455fd68a17f06000801ca03c3a40e35ef2080f113563f43c56a134ebb8b15ff2639d192401e70eb7a2333aa04fe5b35a93068c3e0617f65518f1595e3192faedbd8eda91f57af9f3ca6a45d8",
      "networkId": 0,
      "chainId": 0
    }
  ]
}