{
  "hash": "0x1622fb186d47100210ff004d7e9e41a2244bc7a5a4a857cc835e435dc358ef08",
  "parentHash": "0x32f673b7df41d0ac4afb1b0b79aeea3c6808695c035178953a39bc3667e9f912",
  "number": 85246,
  "timestamp": 1439560570,
  "nonce": "0xde1fc9b4bf49e307",
  "difficulty": 2753121379443,
  "gasLimit": {
    "_hex": "0x2fefd5"
  },
  "gasUsed": {
    "_hex": "0x14820"
  },
  "miner": "0xe6A7a1d47ff21B6321162AEA7C6CB457D5476Bca",
  "extraData": "0x476574682f76312e302e312d38326566323666362f6c696e75782f676f312e34",
  "transactions": [
    {
      "hash": "0x2230931c0ab17b2e0e3df263953e76ceceeb5b72ae61ea48dbd967472ea6b41f",
      "blockHash": "0x1622fb186d47100210ff004d7e9e41a2244bc7a5a4a857cc835e435dc358ef08",
      "blockNumber": 85246,
      "transactionIndex": 0,
      "confirmations": null,
      "from": "0xCDA330c8160f0c90B8B528C6Db267acc17381818",
      "gasPrice": {
        "_hex": "0xddcbf9742"
      },
      "gasLimit": {
        "_hex": "0x5208"
      },
      "to": "0x32Be343B94f860124dC4fEe278FDCBD38C102D88",
      "value": {
        "_hex": "0x2d849f8cecd232000"
      },
      "nonce": 3,
      "data": "0x",
      "r": "0x7343563f18cd46f0dc9a1638fd5c320495cc7e6a2b40cd1d0a368447b2c3cc59",
      "s": "0x42170cb461025512e7842c5892eae6930f89059eb8a9afcc2a5b0c2b153d2a3b",
      "v": 28,
      "creates": null,
      "raw": "0xf86d03850ddcbf97428252089432be343b94f860124dc4fee278fdcbd38c102d888902d849f8cecd232000801ca07343563f18cd46f0dc9a1638fd5c320495cc7e6a2b40cd1d0a368447b2c3cc59a042170cb461025512e7842c5892eae6930f89059eb8a9afcc2a5b0c2b153d2a3b",
      "networkId": 0,
      "chainId": 0
    },
    {
      "hash": "0xf29f0f430cd52912e75be1d22484baf84a4bb43b8675787a97df9061bb6ff58b",
      "blockHash": "0x1622fb186d47100210ff004d7e9e41a2244bc7a5a4a857cc835e435dc358ef08",
      "blockNumber": 85246,
      "transactionIndex": 1,
      "confirmations": null,
      "from": "0x014e478251F22a79fA7014f285647d91462A9669",
      "gasPrice": {
        "_hex": "0xddcbf9742"
      },
      "gasLimit": {
        "_hex": "0x5208"
      },
      "to": "0x32Be343B94f860124dC4fEe278FDCBD38C102D88",
      "value": {
        "_hex": "0x7e4540a518b12800"
      },
      "nonce": 2,
      "data": "0x",
      "r": "0x22873d8fcc42e773125fc459f8c7db646f9cecff8e4aa96b9c8a66feea905db5",
      "s": "0x5c5b1c506df3b57ef86e4cd8eed817dfb0403814e82e0ae47dceb7ba5030f31c",
      "v": 27,
      "creates": null,
      "raw": "0xf86c02850ddcbf97428252089432be343b94f860124dc4fee278fdcbd38c102d88887e4540a518b12800801ba022873d8fcc42e773125fc459f8c7db646f9cecff8e4aa96b9c8a66feea905db5a05c5b1c506df3b57ef86e4cd8eed817dfb0403814e82e0ae47dceb7ba5030f31c",
      "networkId": 0,
      "chainId": 0
    },
    {
      "hash": "0x229cac507a8b07c3b731f8282a22f28281240116ae71c1ffa1db865f8d5a90af",
      "blockHash": "0x1622fb186d47100210ff004d7e9e41a2244bc7a5a4a857cc835e435dc358ef08",
      "blockNumber": 85246,
      "transactionIndex": 2,
      "confirmations": null,
      "from": "0x2f86ba8019945f39edE131D38d4d8780884DA553",
      "gasPrice": {
        "_hex": "0xddcbf9742"
      },
      "gasLimit": {
        "_hex": "0x5208"
      },
      "to": "0x32Be343B94f860124dC4fEe278FDCBD38C102D88",
      "value": {
        "_hex": "0x3635b379287f620000"
      },
      "nonce": 8,
      "data": "0x",
      "r": "0xaf5c1a9e4587d1457c9fa9cf3258492e0c3da1a11067e2868004caf961d8dceb",
      "s": "0x2f1d5c0235affbbeb83faf5dea5858b1f889b7199521d0603154acc66197c1fe",
      "v": 27,
      "creates": null,
      "raw": "0xf86d08850ddcbf97428252089432be343b94f860124dc4fee278fdcbd38c102d88893635b379287f620000801ba0af5c1a9e4587d1457c9fa9cf3258492e0c3da1a11067e2868004caf961d8dceba02f1d5c0235affbbeb83faf5dea5858b1f889b7199521d0603154acc66197c1fe",
      "networkId": 0,
      "chainId": 0
    },
    {
      "hash": "0x11b0bda9a9a85cb85df28a2d6e0de3358b6bf400aea9c91110581884cee5b96a",
      "blockHash": "0x1622fb186d47100210ff004d7e9e41a2244bc7a5a4a857cc835e435dc358ef08",
      "blockNumber": 85246,
      "transactionIndex": 3,
      "confirmations": null,
      "from": "0x120A270bbC009644e35F0bB6ab13f95b8199c4ad",
      "gasPrice": {
        "_hex": "0xcfe5fe421"
      },
      "gasLimit": {
        "_hex": "0x3d090"
      },
      "to": "0x1c3e35361ad76690f001005E8058632f579d8BA9",
      "value": {
        "_hex": "0x2ef467896d0f8800"
      },
      "nonce": 446,
      "data": "0x",
      "r": "0xa7505677754765278a59196e9626c587022e06db4518646a8d514c3c132beb4b",
      "s": "0x0835e7ca5283b80929b1194d0575b3c7ecef37470bd5e9f54ecdae1fafe0792b",
      "v": 27,
      "creates": null,
      "raw": "0xf86f8201be850cfe5fe4218303d090941c3e35361ad76690f001005e8058632f579d8ba9882ef467896d0f8800801ba0a7505677754765278a59196e9626c587022e06db4518646a8d514c3c132beb4ba00835e7ca5283b80929b1194d0575b3c7ecef37470bd5e9f54ecdae1fafe0792b",
      "networkId": 0,
      "chainId": 0
    }
  ]
}