{
  "hash": "0xb02c8f170d96cbf7d0268a073e395ce414158e2f44c7cf77f2a17d1f5a5d5471",
  "parentHash": "0x6ac216c6b7bc57187866ad78872c9ff4b6565463929a67096a200e99f45258c3",
  "number": 116827,
  "timestamp": 1440098161,
  "nonce": "0xee9e089729119961",
  "difficulty": 4342469774336,
  "gasLimit": {
    "_hex": "0x2fefd8"
  },
  "gasUsed": {
    "_hex": "0x802c8"
  },
  "miner": "0xe6A7a1d47ff21B6321162AEA7C6CB457D5476Bca",
  "extraData": "0xd783010002844765746887676f312e342e32856c696e7578",
  "transactions": [
    {
      "hash": "0xbda21b4cf1863f6921bd1298fd2e4cdde70f912a339563efce577b044564386a",
      "blockHash": "0xb02c8f170d96cbf7d0268a073e395ce414158e2f44c7cf77f2a17d1f5a5d5471",
      "blockNumber": 116827,
      "transactionIndex": 0,
      "confirmations": null,
      "from": "0xe6A7a1d47ff21B6321162AEA7C6CB457D5476Bca",
      "gasPrice": {
        "_hex": "0xba43b7400"
      },
      "gasLimit": {
        "_hex": "0x55f0"
      },
      "to": "0x1CaC89419da71AC175A5B99CEE0163720430990c",
      "value": {
        "_hex": "0x919dc6b53d128d90"
      },
      "nonce": 5804,
      "data": "0x",
      "r": "0xaabd616698ce0bcc6246c4ab2f334a65271b3b22b5aa7f0b846381475604614b",
      "s": "0x749ccbc038084637e0c0520a6e102a5ad6be636de16eda77f8baeb197a7e6432",
      "v": 28,
      "creates": null,
      "raw": "0xf86e8216ac850ba43b74008255f0941cac89419da71ac175a5b99cee0163720430990c88919dc6b53d128d90801ca0aabd616698ce0bcc6246c4ab2f334a65271b3b22b5aa7f0b846381475604614ba0749ccbc038084637e0c0520a6e102a5ad6be636de16eda77f8baeb197a7e6432",
      "networkId": 0,
      "chainId": 0
    },
    {
      "hash": "0x1a4fe34ef125167a8926d39a3b0f6aabc227372edebf694c84b9e5cb5e0182bf",
      "blockHash": "0xb02c8f170d96cbf7d0268a073e395ce414158e2f44c7cf77f2a17d1f5a5d5471",
      "blockNumber": 116827,
      "transactionIndex": 1,
      "confirmations": null,
      "from": "0xe6A7a1d47ff21B6321162AEA7C6CB457D5476Bca",
      "gasPrice": {
        "_hex": "0xba43b7400"
      },
      "gasLimit": {
        "_hex": "0x55f0"
      },
      "to": "0x10a3287DC19D160c0EF7dAE4e51670b0394ef951",
      "value": {
        "_hex": "0x91a5c79e9a8fa7b8"
      },
      "nonce": 5805,
      "data": "0x",
      "r": "0x4b73db0a3115fd8d38b262750b9389cc1b284474c25fedf3398c911069b61e84",
      "s": "0x26d5ead805d39b1115522b7ce4dd8b1b5cb10fe8f710a4f016a8ec0722882580",
      "v": 28,
      "creates": null,
      "raw": "0xf86e8216ad850ba43b74008255f09410a3287dc19d160c0ef7dae4e51670b0394ef9518891a5c79e9a8fa7b8801ca04b73db0a3115fd8d38b262750b9389cc1b284474c25fedf3398c911069b61e84a026d5ead805d39b1115522b7ce4dd8b1b5cb10fe8f710a4f016a8ec0722882580",
      "networkId": 0,
      "chainId": 0
    },
    {
      "hash": "0x7ab717f1d36f849df5d5226e73828bbb7b9f072c9485bc55166c09b3e4c9c6da",
      "blockHash": "0xb02c8f170d96cbf7d0268a073e395ce414158e2f44c7cf77f2a17d1f5a5d5471",
      "blockNumber": 116827,
      "transactionIndex": 2,
      "confirmations": null,
      "from": "0xe6A7a1d47ff21B6321162AEA7C6CB457D5476Bca",
      "gasPrice": {
        "_hex": "0xba43b7400"
      },
      "gasLimit": {
        "_hex": "0x55f0"
      },
      "to": "0xBFdD9820a04283b289957956353b5F3C1F665EcF",
      "value": {
        "_hex": "0x92a495b2e934fee0"
      },
      "nonce": 5806,
      "data": "0x",
      "r": "0x9a76d05475c8850c7cc51d9f5385173085f78879a21c1fa2ec4d6e6b765b68df",
      "s": "0x57a77d009151e2288c0cc04cc7232609340da2ac3301b9539db89b98f35840be",
      "v": 28,
      "creates": null,
      "raw": "0xf86e8216ae850ba43b74008255f094bfdd9820a04283b289957956353b5f3c1f665ecf8892a495b2e934fee0801ca09a76d05475c8850c7cc51d9f5385173085f78879a21c1fa2ec4d6e6b765b68dfa057a77d009151e2288c0cc04cc7232609340da2ac3301b9539db89b98f35840be",
      "networkId": 0,
      "chainId": 0
    },
    {
      "hash": "0x7524b66703833cad0b5d23ebce36445ce7df0139fed82fcaba39120a5b5edeb5",
      "blockHash": "0xb02c8f170d96cbf7d0268a073e395ce414158e2f44c7cf77f2a17d1f5a5d5471",
      "blockNumber": 116827,
      "transactionIndex": 3,
      "confirmations": null,
      "from": "0xe6A7a1d47ff21B6321162AEA7C6CB457D5476Bca",
      "gasPrice": {
        "_hex": "0xba43b7400"
      },
      "gasLimit": {
        "_hex": "0x55f0"
      },
      "to": "0xBe750c24427887537FBc1E67Ed096a59dF3a4cC4",
      "value": {
        "_hex": "0x93065d3c4906a640"
      },
      "nonce": 5807,
      "data": "0x",
      "r": "0xe0df93b8b1eed786fc560cde3f47999b7d313672e7e06933cd41c759ebd5b679",
      "s": "0x3f17ea5e4c0c3f34b8b6d5dca6d1b01a82cae0d8af4544f4b158d1f99a2c4997",
      "v": 27,
      "creates": null,
      "raw": "0xf86e8216af850ba43b74008255f094be750c24427887537fbc1e67ed096a59df3a4cc48893065d3c4906a640801ba0e0df93b8b1eed786fc560cde3f47999b7d313672e7e06933cd41c759ebd5b679a03f17ea5e4c0c3f34b8b6d5dca6d1b01a82cae0d8af4544f4b158d1f99a2c4997",
      "networkId": 0,
      "chainId": 0
    },
    {
      "hash": "0xa9938ea82ef4897a37830d6c465597f8ff22f6dfff8a1b8c0d961f3279036d15",
      "blockHash": "0xb02c8f170d96cbf7d0268a073e395ce414158e2f44c7cf77f2a17d1f5a5d5471",
      "blockNumber": 116827,
      "transactionIndex": 4,
      "confirmations": null,
      "from": "0xe6A7a1d47ff21B6321162AEA7C6CB457D5476Bca",
      "gasPrice": {
        "_hex": "0xba43b7400"
      },
      "gasLimit": {
        "_hex": "0x55f0"
      },
      "to": "0xf0c896DB24137eDA6Ec88cF1a95217F8604aE55e",
      "value": {
        "_hex": "0x93e48dd36644a9e0"
      },
      "nonce": 5808,
      "data": "0x",
      "r": "0x68373d6a1d5ea2b55718984b4109d3c022efcb7d1d4815066b28b12d7c283a27",
      "s": "0x25a18f04c5a369e5e9d0fc384baa3e64ac44a92f032b205efedc56692b91faa7",
      "v": 27,
      "creates": null,
      "raw": "0xf86e8216b0850ba43b74008255f094f0c896db24137eda6ec88cf1a95217f8604ae55e8893e48dd36644a9e0801ba068373d6a1d5ea2b55718984b4109d3c022efcb7d1d4815066b28b12d7c283a27a025a18f04c5a369e5e9d0fc384baa3e64ac44a92f032b205efedc56692b91faa7",
      "networkId": 0,
      "chainId": 0
    },
    {
      "hash": "0x3126736dfecbeef12251207a7af4940c411fad5d25f54672437e86832aa26bc4",
      "blockHash": "0xb02c8f170d96cbf7d0268a073e395ce414158e2f44c7cf77f2a17d1f5a5d5471",
      "blockNumber": 116827,
      "transactionIndex": 5,
      "confirmations": null,
      "from": "0xe6A7a1d47ff21B6321162AEA7C6CB457D5476Bca",
      "gasPrice": {
        "_hex": "0xba43b7400"
      },
      "gasLimit": {
        "_hex": "0x55f0"
      },
      "to": "0x2b176421eEBBf303fa94aD4fE78362Fa9e4Ca693",
      "value": {
        "_hex": "0x98624deb7219e6e0"
      },
      "nonce": 5809,
      "data": "0x",
      "r": "0x53ca47fd2b74deec695ec3a2bbceb3fa27bd4dc04ba24ea82d8b08a4254d5f03",
      "s": "0x69be60a0295c90d8e0d13e93b4d8f99bec4d7a68eb163247baced03e13267efa",
      "v": 27,
      "creates": null,
      "raw": "0xf86e8216b1850ba43b74008255f0942b176421eebbf303fa94ad4fe78362fa9e4ca6938898624deb7219e6e0801ba053ca47fd2b74deec695ec3a2bbceb3fa27bd4dc04ba24ea82d8b08a4254d5f03a069be60a0295c90d8e0d13e93b4d8f99bec4d7a68eb163247baced03e13267efa",
      "networkId": 0,
      "chainId": 0
    },
    {
      "hash": "0xb962d6323366ab4838da8ab46b8c43e49211b054eb4f62944defe06c5ec3303d",
      "blockHash": "0xb02c8f170d96cbf7d0268a073e395ce414158e2f44c7cf77f2a17d1f5a5d5471",
      "blockNumber": 116827,
      "transactionIndex": 6,
      "confirmations": null,
      "from": "0xe6A7a1d47ff21B6321162AEA7C6CB457D5476Bca",
      "gasPrice": {
        "_hex": "0xba43b7400"
      },
      "gasLimit": {
        "_hex": "0x55f0"
      },
      "to": "0x0eDEd3DA479d0beF8eeC92A76644D3f4E3C177f7",
      "value": {
        "_hex": "0x9cd50fbc74baa100"
      },
      "nonce": 5810,
      "data": "0x",
      "r": "0xbed572c8fc422a3ac9cb0ffee94174ac35512662a90cfe76e035d9279729bf13",
      "s": "0x1704eb0c8e59c29aa4314ad7f5369ed4d93d018ca21d9ab97f337b2b34d3bc01",
      "v": 27,
      "creates": null,
      "raw": "0xf86e8216b2850ba43b74008255f0940eded3da479d0bef8eec92a76644d3f4e3c177f7889cd50fbc74baa100801ba0bed572c8fc422a3ac9cb0ffee94174ac35512662a90cfe76e035d9279729bf13a01704eb0c8e59c29aa4314ad7f5369ed4d93d018ca21d9ab97f337b2b34d3bc01",
      "networkId": 0,
      "chainId": 0
    },
    {
      "hash": "0x13030d36fbb8e7842a00462713a41a81d6248d726388a74f3426049c72f8a4ae",
      "blockHash": "0xb02c8f170d96cbf7d0268a073e395ce414158e2f44c7cf77f2a17d1f5a5d5471",
      "blockNumber": 116827,
      "transactionIndex": 7,
      "confirmations": null,
      "from": "0xe6A7a1d47ff21B6321162AEA7C6CB457D5476Bca",
      "gasPrice": {
        "_hex": "0xba43b7400"
      },
      "gasLimit": {
        "_hex": "0x55f0"
      },
      "to": "0x8b687892C6Cf88925ddD772718782A864e5353Df",
      "value": {
        "_hex": "0x9faefdb5740ba0d8"
      },
      "nonce": 5811,
      "data": "0x",
      "r": "0x2de83ac4dcb0dc4d2888d56b89003f927e92e6c4aba24a4ca646e0f1d5b57c2a",
      "s": "0x42e1dd5716aa497f45b235b275ff2e79a8026ba46d70334765900030d2e665fd",
      "v": 28,
      "creates": null,
      "raw": "0xf86e8216b3850ba43b74008255f0948b687892c6cf88925ddd772718782a864e5353df889faefdb5740ba0d8801ca02de83ac4dcb0dc4d2888d56b89003f927e92e6c4aba24a4ca646e0f1d5b57c2aa042e1dd5716aa497f45b235b275ff2e79a8026ba46d70334765900030d2e665fd",
      "networkId": 0,
      "chainId": 0
    },
    {
      "hash": "0xf267ad8096b995b4b579401c966e0178858560a49a1b907bb9200deb2813b7f7",
      "blockHash": "0xb02c8f170d96cbf7d0268a073e395ce414158e2f44c7cf77f2a17d1f5a5d5471",
      "blockNumber": 116827,
      "transactionIndex": 8,
      "confirmations": null,
      "from": "0xe6A7a1d47ff21B6321162AEA7C6CB457D5476Bca",
      "gasPrice": {
        "_hex": "0xba43b7400"
      },
      "gasLimit": {
        "_hex": "0x55f0"
      },
      "to": "0x1332996a46dcBBE02f9cF164Dfc153aB976a9766",
      "value": {
        "_hex": "0xa49a11338df05648"
      },
      "nonce": 5812,
      "data": "0x",
      "r": "0xba85c4335f2bb65c7c72a92b8811648b37c7889f4820dc27205af5201a96d0da",
      "s": "0x142bad69205a85a84594ce3b2aa0eede86ada6c0f56cf9687f73ecda1b8436f3",
      "v": 28,
      "creates": null,
      "raw": "0xf86e8216b4850ba43b74008255f0941332996a46dcbbe02f9cf164dfc153ab976a976688a49a11338df05648801ca0ba85c4335f2bb65c7c72a92b8811648b37c7889f4820dc27205af5201a96d0daa0142bad69205a85a84594ce3b2aa0eede86ada6c0f56cf9687f73ecda1b8436f3",
      "networkId": 0,
      "chainId": 0
    },
    {
      "hash": "0xd7e63946fcc28aa1d2984499df2cac041e81eaa2d60814c94530f58fa3405449",
      "blockHash": "0xb02c8f170d96cbf7d0268a073e395ce414158e2f44c7cf77f2a17d1f5a5d5471",
      "blockNumber": 116827,
      "transactionIndex": 9,
      "confirmations": null,
      "from": "0xe6A7a1d47ff21B6321162AEA7C6CB457D5476Bca",
      "gasPrice": {
        "_hex": "0xba43b7400"
      },
      "gasLimit": {
        "_hex": "0x55f0"
      },
      "to": "0x383Ad663AFd1716301FC92d469d9985b97cfBCB0",
      "value": {
        "_hex": "0xa4ea5683d7dfe0a8"
      },
      "nonce": 5813,
      "data": "0x",
      "r": "0x5c27b8a0a049d3187f1990c1841c885d18bee28ea3a8fa5caf914b5ea26692b0",
      "s": "0x2bdf9fbf21b7e9cd898b1ef1778b38f4683d6b7fc13bdf133386b3fd932e838e",
      "v": 27,
      "creates": null,
      "raw": "0xf86e8216b5850ba43b74008255f094383ad663afd1716301fc92d469d9985b97cfbcb088a4ea5683d7dfe0a8801ba05c27b8a0a049d3187f1990c1841c885d18bee28ea3a8fa5caf914b5ea26692b0a02bdf9fbf21b7e9cd898b1ef1778b38f4683d6b7fc13bdf133386b3fd932e838e",
      "networkId": 0,
      "chainId": 0
    },
    {
      "hash": "0x00202b8c887f98d453f0359cb116995b36ff2e36e90ffcfd9eab630ae252f89e",
      "blockHash": "0xb02c8f170d96cbf7d0268a073e395ce414158e2f44c7cf77f2a17d1f5a5d5471",
      "blockNumber": 116827,
      "transactionIndex": 10,
      "confirmations": null,
      "from": "0xe6A7a1d47ff21B6321162AEA7C6CB457D5476Bca",
      "gasPrice": {
        "_hex": "0xba43b7400"
      },
      "gasLimit": {
        "_hex": "0x55f0"
      },
      "to": "0x701aE497d3522329870Ada714AA902424EA8Da01",
      "value": {
        "_hex": "0xa830c75a153cd8d0"
      },
      "nonce": 5814,
      "data": "0x",
      "r": "0x352ce4a7fd6f61168d45484adb0cba4c1e6378993277cf197f44c35b8a92881b",
      "s": "0x1a95205cd44365764aaab770e04b71e46635cfb6990a39d2c361e57417164d88",
      "v": 27,
      "creates": null,
      "raw": "0xf86e8216b6850ba43b74008255f094701ae497d3522329870ada714aa902424ea8da0188a830c75a153cd8d0801ba0352ce4a7fd6f61168d45484adb0cba4c1e6378993277cf197f44c35b8a92881ba01a95205cd44365764aaab770e04b71e46635cfb6990a39d2c361e57417164d88",
      "networkId": 0,
      "chainId": 0
    },
    {
      "hash": "0x231d00068146c51ce059b62dd35d1415a733b9f9be264773ca8eac99c147f6e3",
      "blockHash": "0xb02c8f170d96cbf7d0268a073e395ce414158e2f44c7cf77f2a17d1f5a5d5471",
      "blockNumber": 116827,
      "transactionIndex": 11,
      "confirmations": null,
      "from": "0xe6A7a1d47ff21B6321162AEA7C6CB457D5476Bca",
      "gasPrice": {
        "_hex": "0xba43b7400"
      },
      "gasLimit": {
        "_hex": "0x55f0"
      },
      "to": "0xB5EDD17d2582A94610ebf0C6832c1652EBBBe210",
      "value": {
        "_hex": "0xa98321fe77b5c0d8"
      },
      "nonce": 5815,
      "data": "0x",
      "r": "0xd3a6921075e214c9864510e343558439de1a8cb658c0ffea035cecbbb445df38",
      "s": "0x3c5bef37b7d2e05aac0f198ba655d078353cf428da937475ddfcc9301f8d0fd2",
      "v": 28,
      "creates": null,
      "raw": "0xf86e8216b7850ba43b74008255f094b5edd17d2582a94610ebf0c6832c1652ebbbe21088a98321fe77b5c0d8801ca0d3a6921075e214c9864510e343558439de1a8cb658c0ffea035cecbbb445df38a03c5bef37b7d2e05aac0f198ba655d078353cf428da937475ddfcc9301f8d0fd2",
      "networkId": 0,
      "chainId": 0
    },
    {
      "hash": "0x3b017a3357a54416854a7a62a0b67e90bb3240ff679a40744185864b96f501ec",
      "blockHash": "0xb02c8f170d96cbf7d0268a073e395ce414158e2f44c7cf77f2a17d1f5a5d5471",
      "blockNumber": 116827,
      "transactionIndex": 12,
      "confirmations": null,
      "from": "0xe6A7a1d47ff21B6321162AEA7C6CB457D5476Bca",
      "gasPrice": {
        "_hex": "0xba43b7400"
      },
      "gasLimit": {
        "_hex": "0x55f0"
      },
      "to": "0x267069452478cA39b3f5F1A4fFdD4131f50Bc977",
      "value": {
        "_hex": "0xa9c78a1e016ae788"
      },
      "nonce": 5816,
      "data": "0x",
      "r": "0x261734b335ec34ec3b5147ae396dac0cade142656277c9f56a7eb42a8752ffb9",
      "s": "0x6c8b7c5e18113f1942365e3b9de65ebe5b6946e217c76d93f6be2d6f0d5092c6",
      "v": 28,
      "creates": null,
      "raw": "0xf86e8216b8850ba43b74008255f094267069452478ca39b3f5f1a4ffdd4131f50bc97788a9c78a1e016ae788801ca0261734b335ec34ec3b5147ae396dac0cade142656277c9f56a7eb42a8752ffb9a06c8b7c5e18113f1942365e3b9de65ebe5b6946e217c76d93f6be2d6f0d5092c6",
      "networkId": 0,
      "chainId": 0
    },
    {
      "hash": "0xca4516dc9fbd59b9a1a057e8d598fffa7f8905fdf971a1907c3a1a08c599e33e",
      "blockHash": "0xb02c8f170d96cbf7d0268a073e395ce414158e2f44c7cf77f2a17d1f5a5d5471",
      "blockNumber": 116827,
      "transactionIndex": 13,
      "confirmations": null,
      "from": "0xe6A7a1d47ff21B6321162AEA7C6CB457D5476Bca",
      "gasPrice": {
        "_hex": "0xba43b7400"
      },
      "gasLimit": {
        "_hex": "0x55f0"
      },
      "to": "0x0A38f5Ba343D4eA8641F955ecf98e1c43dF1B5a3",
      "value": {
        "_hex": "0xa9def6d3c5d0ce38"
      },
      "nonce": 5817,
      "data": "0x",
      "r": "0x30b57e78955dbb590cbe465f434e9f45f60e36a1c00f98b38119a3583a605dc3",
      "s": "0x32b56dc7f769f3d42d49f2fe4907f648df1c210b821aa8c26986658c0949bfde",
      "v": 27,
      "creates": null,
      "raw": "0xf86e8216b9850ba43b74008255f0940a38f5ba343d4ea8641f955ecf98e1c43df1b5a388a9def6d3c5d0ce38801ba030b57e78955dbb590cbe465f434e9f45f60e36a1c00f98b38119a3583a605dc3a032b56dc7f769f3d42d49f2fe4907f648df1c210b821aa8c26986658c0949bfde",
      "networkId": 0,
      "chainId": 0
    },
    {
      "hash": "0x2cee072ee80ff185a0490bd57e10b1f3a3cb9fa3b242567e6097e91f33a8695d",
      "blockHash": "0xb02c8f170d96cbf7d0268a073e395ce414158e2f44c7cf77f2a17d1f5a5d5471",
      "blockNumber": 116827,
      "transactionIndex": 14,
      "confirmations": null,
      "from": "0xe6A7a1d47ff21B6321162AEA7C6CB457D5476Bca",
      "gasPrice": {
        "_hex": "0xba43b7400"
      },
      "gasLimit": {
        "_hex": "0x55f0"
      },
      "to": "0x58cAfc9A3273821ec5691840ABfc256952Df94B8",
      "value": {
        "_hex": "0xa9ea6b103916b950"
      },
      "nonce": 5818,
      "data": "0x",
      "r": "0x935b1f4f595d446f75df3bcab19ddc83472ba15baca7a506d3ca1fb9bd95862a",
      "s": "0x01cf0b9f60c65fee5c6af2cf5a1a6e0ef54a6676461c478f8e973c72235fe212",
      "v": 28,
      "creates": null,
      "raw": "0xf86e8216ba850ba43b74008255f09458cafc9a3273821ec5691840abfc256952df94b888a9ea6b103916b950801ca0935b1f4f595d446f75df3bcab19ddc83472ba15baca7a506d3ca1fb9bd95862aa001cf0b9f60c65fee5c6af2cf5a1a6e0ef54a6676461c478f8e973c72235fe212",
      "networkId": 0,
      "chainId": 0
    },
    {
      "hash": "0xec24d58844708b5de4680285dc818e2fa9efc0ed2ae9b9bb3a13635d96833e77",
      "blockHash": "0xb02c8f170d96cbf7d0268a073e395ce414158e2f44c7cf77f2a17d1f5a5d5471",
      "blockNumber": 116827,
      "transactionIndex": 15,
      "confirmations": null,
      "from": "0xe6A7a1d47ff21B6321162AEA7C6CB457D5476Bca",
      "gasPrice": {
        "_hex": "0xba43b7400"
      },
      "gasLimit": {
        "_hex": "0x55f0"
      },
      "to": "0xe2F72eC9A4d57A125f9397267198Fbd81c86aB9A",
      "value": {
        "_hex": "0xac63834c3b9b46a8"
      },
      "nonce": 5819,
      "data": "0x",
      "r": "0x7306c15bfd915c1dc44d1dadd1d7699069b95997e87e9e7c56f74ae1e8f108eb",
      "s": "0x102e0324d3947b72d597d6512133133ab27cd1243e08a668573df32b696ea3c7",
      "v": 28,
      "creates": null,
      "raw": "0xf86e8216bb850ba43b74008255f094e2f72ec9a4d57a125f9397267198fbd81c86ab9a88ac63834c3b9b46a8801ca07306c15bfd915c1dc44d1dadd1d7699069b95997e87e9e7c56f74ae1e8f108eba0102e0324d3947b72d597d6512133133ab27cd1243e08a668573df32b696ea3c7",
      "networkId": 0,
      "chainId": 0
    },
    {
      "hash": "0x3c4e34e3bc76548b9f691d03b76576aea03c1192dcbd837537ec7cd5c28581c9",
      "blockHash": "0xb02c8f170d96cbf7d0268a073e395ce414158e2f44c7cf77f2a17d1f5a5d5471",
      "blockNumber": 116827,
      "transactionIndex": 16,
      "confirmations": null,
      "from": "0xe6A7a1d47ff21B6321162AEA7C6CB457D5476Bca",
      "gasPrice": {
        "_hex": "0xba43b7400"
      },
      "gasLimit": {
        "_hex": "0x55f0"
      },
      "to": "0x04a6c6a293340Fc3f2244D097b0CFD84d5317bA5",
      "value": {
        "_hex": "0xae421c63baff55c0"
      },
      "nonce": 5820,
      "data": "0x",
      "r": "0x9f2f16ba800286cb818057ab732d4a237b44abc884376dc0881783a078ef37d0",
      "s": "0x4ab696b665069f4664cf798e92c0cf488a83f27a945c3fce7fd8266d6906b95d",
      "v": 28,
      "creates": null,
      "raw": "0xf86e8216bc850ba43b74008255f09404a6c6a293340fc3f2244d097b0cfd84d5317ba588ae421c63baff55c0801ca09f2f16ba800286cb818057ab732d4a237b44abc884376dc0881783a078ef37d0a04ab696b665069f4664cf798e92c0cf488a83f27a945c3fce7fd8266d6906b95d",
      "networkId": 0,
      "chainId": 0
    },
    {
      "hash": "0x87570c6cec4bf5b3b996a8d50b3de654e6a1e35a6c2a18548a9c51898929afc0",
      "blockHash": "0xb02c8f170d96cbf7d0268a073e395ce414158e2f44c7cf77f2a17d1f5a5d5471",
      "blockNumber": 116827,
      "transactionIndex": 17,
      "confirmations": null,
      "from": "0xe6A7a1d47ff21B6321162AEA7C6CB457D5476Bca",
      "gasPrice": {
        "_hex": "0xba43b7400"
      },
      "gasLimit": {
        "_hex": "0x55f0"
      },
      "to": "0xBa9CF76D809cF9f2e3f180AFb33f0adb0826D7DF",
      "value": {
        "_hex": "0xaeb9f894fba161b0"
      },
      "nonce": 5821,
      "data": "0x",
      "r": "0x6ed8d75ff6ee9eff227eff6d6bb1aac13740358cb73819117c9a0285f02e80e5",
      "s": "0x378586a56ccfe09f8384b1a4d858714b8f0a97a804e2f248097fce7555d524df",
      "v": 28,
      "creates": null,
      "raw": "0xf86e8216bd850ba43b74008255f094ba9cf76d809cf9f2e3f180afb33f0adb0826d7df88aeb9f894fba161b0801ca06ed8d75ff6ee9eff227eff6d6bb1aac13740358cb73819117c9a0285f02e80e5a0378586a56ccfe09f8384b1a4d858714b8f0a97a804e2f248097fce7555d524df",
      "networkId": 0,
      "chainId": 0
    },
    {
      "hash": "0x247c55788a1d11b70e60f66db43c2b891e3eceb85b260785d4e3df8e16dde399",
      "blockHash": "0xb02c8f170d96cbf7d0268a073e395ce414158e2f44c7cf77f2a17d1f5a5d5471",
      "blockNumber": 116827,
      "transactionIndex": 18,
      "confirmations": null,
      "from": "0xe6A7a1d47ff21B6321162AEA7C6CB457D5476Bca",
      "gasPrice": {
        "_hex": "0xba43b7400"
      },
      "gasLimit": {
        "_hex": "0x55f0"
      },
      "to": "0x19d1f826fce0c97733e0202eFCCc4A5608e8Eb6d",
      "value": {
        "_hex": "0xaebe3df3c0486638"
      },
      "nonce": 5822,
      "data": "0x",
      "r": "0x8cebd47e245f10ea092eef096b81bccd8bc7cbbdc4548c5e95ab7cb0f603eea1",
      "s": "0x63b60de3d7041504ace72faae9315f38fc7340fa2060282cbf9f8bc492a5ed33",
      "v": 27,
      "creates": null,
      "raw": "0xf86e8216be850ba43b74008255f09419d1f826fce0c97733e0202efccc4a5608e8eb6d88aebe3df3c0486638801ba08cebd47e245f10ea092eef096b81bccd8bc7cbbdc4548c5e95ab7cb0f603eea1a063b60de3d7041504ace72faae9315f38fc7340fa2060282cbf9f8bc492a5ed33",
      "networkId": 0,
      "chainId": 0
    },
    {
      "hash": "0x535a70d7659ca70b233d321bd3afa42f9474f74a738f5d3c74f23efe9707808a",
      "blockHash": "0xb02c8f170d96cbf7d0268a073e395ce414158e2f44c7cf77f2a17d1f5a5d5471",
      "blockNumber": 116827,
      "transactionIndex": 19,
      "confirmations": null,
      "from": "0xe6A7a1d47ff21B6321162AEA7C6CB457D5476Bca",
      "gasPrice": {
        "_hex": "0xba43b7400"
      },
      "gasLimit": {
        "_hex": "0x55f0"
      },
      "to": "0x5248EfBC7319bd65d436374266765D9727253F12",
      "value": {
        "_hex": "0xb26fa28969f96638"
      },
      "nonce": 5823,
      "data": "0x",
      "r": "0x87364520dbe648b281ecbf8ddc138c8cc6fe5b0a3de44c6a099d7b3fda827c70",
      "s": "0x5058c6624da321d96a32831ce3db870774bfa3c7f95c3b0729fb99c63ff4f66f",
      "v": 27,
      "creates": null,
      "raw": "0xf86e8216bf850ba43b74008255f0945248efbc7319bd65d436374266765d9727253f1288b26fa28969f96638801ba087364520dbe648b281ecbf8ddc138c8cc6fe5b0a3de44c6a099d7b3fda827c70a05058c6624da321d96a32831ce3db870774bfa3c7f95c3b0729fb99c63ff4f66f",
      "networkId": 0,
      "chainId": 0
    },
    {
      "hash": "0xbeccb15b97b6425f061aa8150f6652571a6798258c67a962d51cb612a7372ede",
      "blockHash": "0xb02c8f170d96cbf7d0268a073e395ce414158e2f44c7cf77f2a17d1f5a5d5471",
      "blockNumber": 116827,
      "transactionIndex": 20,
      "confirmations": null,
      "from": "0xe6A7a1d47ff21B6321162AEA7C6CB457D5476Bca",
      "gasPrice": {
        "_hex": "0xba43b7400"
      },
      "gasLimit": {
        "_hex": "0x55f0"
      },
      "to": "0x52191276589069F70F0E46bcCc718d793d1Aa1D0",
      "value": {
        "_hex": "0xb7362fbd69760f68"
      },
      "nonce": 5824,
      "data": "0x",
      "r": "0x0c3302c5afcb4755ee7eb03a11d8a9579732faff57864a746b38bbbf27291eb0",
      "s": "0x6a108d425db1d83d56fc0e4deaee51d5de58b28cc757351e465e7748b2280a72",
      "v": 28,
      "creates": null,
      "raw": "0xf86e8216c0850ba43b74008255f09452191276589069f70f0e46bccc718d793d1aa1d088b7362fbd69760f68801ca00c3302c5afcb4755ee7eb03a11d8a9579732faff57864a746b38bbbf27291eb0a06a108d425db1d83d56fc0e4deaee51d5de58b28cc757351e465e7748b2280a72",
      "networkId": 0,
      "chainId": 0
    },
    {
      "hash": "0x0e51d189729feaddca5dd3960e26fe655c249c8e6f2683584b775c1549dec6e3",
      "blockHash": "0xb02c8f170d96cbf7d0268a073e395ce414158e2f44c7cf77f2a17d1f5a5d5471",
      "blockNumber": 116827,
      "transactionIndex": 21,
      "confirmations": null,
      "from": "0xe6A7a1d47ff21B6321162AEA7C6CB457D5476Bca",
      "gasPrice": {
        "_hex": "0xba43b7400"
      },
      "gasLimit": {
        "_hex": "0x55f0"
      },
      "to": "0x8AeAaA4f505396d24B783Ba68694b10b1a3f0BCE",
      "value": {
        "_hex": "0xbd2e6eb30ce7e720"
      },
      "nonce": 5825,
      "data": "0x",
      "r": "0x0fe04cf6681812cf7981756651e1f9529bf6b2e89d7f36f70af5e1e19433a1cd",
      "s": "0x2b8269eea8403a3992c5b67c3a49bfeefc76efa51bedaa0fc57d38c54d596b2f",
      "v": 28,
      "creates": null,
      "raw": "0xf86e8216c1850ba43b74008255f0948aeaaa4f505396d24b783ba68694b10b1a3f0bce88bd2e6eb30ce7e720801ca00fe04cf6681812cf7981756651e1f9529bf6b2e89d7f36f70af5e1e19433a1cda02b8269eea8403a3992c5b67c3a49bfeefc76efa51bedaa0fc57d38c54d596b2f",
      "networkId": 0,
      "chainId": 0
    },
    {
      "hash": "0xada80bc5d312fb9353f6d90f37ad1a6055dccadceb4ae9a0934abcc62604d4dd",
      "blockHash": "0xb02c8f170d96cbf7d0268a073e395ce414158e2f44c7cf77f2a17d1f5a5d5471",
      "blockNumber": 116827,
      "transactionIndex": 22,
      "confirmations": null,
      "from": "0xe6A7a1d47ff21B6321162AEA7C6CB457D5476Bca",
      "gasPrice": {
        "_hex": "0xba43b7400"
      },
      "gasLimit": {
        "_hex": "0x55f0"
      },
      "to": "0xF928B4834e4E886e04630Af5b4Ea8eBf46Fb205b",
      "value": {
        "_hex": "0xbe56cb6103e74a60"
      },
      "nonce": 5826,
      "data": "0x",
      "r": "0x5b33e7ee4badcffe12ec9735741d341c95d30b8d2fa01b6c35530e8bc9f03a0e",
      "s": "0x1eca0442c51453db0eb2876ae0b4578c02e69b43c9e93510f83f83ae7897c50d",
      "v": 28,
      "creates": null,
      "raw": "0xf86e8216c2850ba43b74008255f094f928b4834e4e886e04630af5b4ea8ebf46fb205b88be56cb6103e74a60801ca05b33e7ee4badcffe12ec9735741d341c95d30b8d2fa01b6c35530e8bc9f03a0ea01eca0442c51453db0eb2876ae0b4578c02e69b43c9e93510f83f83ae7897c50d",
      "networkId": 0,
      "chainId": 0
    },
    {
      "hash": "0x5d58bfdaad9f224603689f41e6edd2111c727ea14f0d64bbfbc0e987b9a12792",
      "blockHash": "0xb02c8f170d96cbf7d0268a073e395ce414158e2f44c7cf77f2a17d1f5a5d5471",
      "blockNumber": 116827,
      "transactionIndex": 23,
      "confirmations": null,
      "from": "0xe6A7a1d47ff21B6321162AEA7C6CB457D5476Bca",
      "gasPrice": {
        "_hex": "0xba43b7400"
      },
      "gasLimit": {
        "_hex": "0x55f0"
      },
      "to": "0x06BcFDb20583cc822f2031724E36F3678BBCa6E9",
      "value": {
        "_hex": "0xc2504bf20ec509b8"
      },
      "nonce": 5827,
      "data": "0x",
      "r": "0x480cbbfdb25e018ee4722f763d78ef03f7bfcbc64b80ff376809c539f2166c51",
      "s": "0x34a16cbaa87a43167c84ad8ca9d4de21df2010e0ff8f1caa6dd66b500431ea1e",
      "v": 28,
      "creates": null,
      "raw": "0xf86e8216c3850ba43b74008255f09406bcfdb20583cc822f2031724e36f3678bbca6e988c2504bf20ec509b8801ca0480cbbfdb25e018ee4722f763d78ef03f7bfcbc64b80ff376809c539f2166c51a034a16cbaa87a43167c84ad8ca9d4de21df2010e0ff8f1caa6dd66b500431ea1e",
      "networkId": 0,
      "chainId": 0
    },
    {
      "hash": "0x40daa1f5b111a0059f2eb207708492428e989003051c3c134b24ab7b0b31b47f",
      "blockHash": "0xb02c8f170d96cbf7d0268a073e395ce414158e2f44c7cf77f2a17d1f5a5d5471",
      "blockNumber": 116827,
      "transactionIndex": 24,
      "confirmations": null,
      "from": "0xe6A7a1d47ff21B6321162AEA7C6CB457D5476Bca",
      "gasPrice": {
        "_hex": "0xba43b7400"
      },
      "gasLimit": {
        "_hex": "0x55f0"
      },
      "to": "0x4Dbfc5Cd4D88480476F951dbCD591396773aE56c",
      "value": {
        "_hex": "0xca3c8eefb3543678"
      },
      "nonce": 5828,
      "data": "0x",
      "r": "0xa3f7d96e7a0f84ca9c33d90270eb67ce01230e15fe004c27b2cd0fddbb249d79",
      "s": "0x2ce71e94bb1b29ede4aa92d3e66b1018f353dccdcd5900576376db4869ad6bea",
      "v": 27,
      "creates": null,
      "raw": "0xf86e8216c4850ba43b74008255f0944dbfc5cd4d88480476f951dbcd591396773ae56c88ca3c8eefb3543678801ba0a3f7d96e7a0f84ca9c33d90270eb67ce01230e15fe004c27b2cd0fddbb249d79a02ce71e94bb1b29ede4aa92d3e66b1018f353dccdcd5900576376db4869ad6bea",
      "networkId": 0,
      "chainId": 0
    }
  ]
}