{
  "hash": "0x9a88756049825d35f100322a9a6ed7cbfbc1c2bb969fb752820c5b4ade0ed8c8",
  "parentHash": "0x054acaa562c0b91d8b3ef48cb881ab175dd42d290db516907804fc54ad2f8635",
  "number": 111990,
  "timestamp": 1440000030,
  "nonce": "0x69bb5686b33a6f3c",
  "difficulty": 4385471819566,
  "gasLimit": {
    "_hex": "0x2fefd8"
  },
  "gasUsed": {
    "_hex": "0x5208"
  },
  "miner": "0x47ff6576639c2e94762eA5443978D7681C0E78DC",
  "extraData": "0x",
  "transactions": [
    {
      "hash": "0xda00d64d01bbd870280c86de8a6108d40ea4d123197242037e0f6d1eb9d30ae4",
      "blockHash": "0x9a88756049825d35f100322a9a6ed7cbfbc1c2bb969fb752820c5b4ade0ed8c8",
      "blockNumber": 111990,
      "transactionIndex": 0,
      "confirmations": null,
      "from": "0x0A38ff322A11A9bA4f9a7C668F79025e8CEadc45",
      "gasPrice": {
        "_hex": "0xd6d26aaf3"
      },
      "gasLimit": {
        "_hex": "0x15f90"
      },
      "to": "0x89Ea4C778D3f3D6BE70883BB9995D41Bd4c453Ab",
      "value": {
        "_hex": "0x1bc16d674ec80000"
      },
      "nonce": 5,
      "data": "0x",
      "r": "0x2e721b7a899b5afbd445d8ce1a77716fef4495db860ab66adf1cf3394cf8b7a5",
      "s": "0x3f54b10727cca219e08a4ac6117340ece8e977a873745a76cb6066045d30e51a",
      "v": 27,
      "creates": null,
      "raw": "0xf86d05850d6d26aaf383015f909489ea4c778d3f3d6be70883bb9995d41bd4c453ab881bc16d674ec80000801ba02e721b7a899b5afbd445d8ce1a77716fef4495db860ab66adf1cf3394cf8b7a5a03f54b10727cca219e08a4ac6117340ece8e977a873745a76cb6066045d30e51a",
      "networkId": 0,
      "chainId": 0
    }
  ]
}