{
  "hash": "0x6d6443640f43bea3df23ed47471aea5c5fd76fe1504d167ded7ccf09e8678d0b",
  "parentHash": "0x5531f7f737b3716ac17ceea9a8f48e2423ab29e3df410b0a92c697ff16ed1d2e",
  "number": 103649,
  "timestamp": 1439856831,
  "nonce": "0x147071e823eccea0",
  "difficulty": 4199048475185,
  "gasLimit": {
    "_hex": "0x2fefd8"
  },
  "gasUsed": {
    "_hex": "0x546c"
  },
  "miner": "0xbb7B8287f3F0a933474a79eAe42CBCa977791171",
  "extraData": "0x476574682f4c5649562f76312e302e312f6c696e75782f676f312e342e32",
  "transactions": [
    {
      "hash": "0xe9843cb3b0f2f0855699a263c29416b3096ecabb1cac57d829e583be554c9796",
      "blockHash": "0x6d6443640f43bea3df23ed47471aea5c5fd76fe1504d167ded7ccf09e8678d0b",
      "blockNumber": 103649,
      "transactionIndex": 0,
      "confirmations": null,
      "from": "0x477B24eEE8839e4Fd19D1250bd0B6645794A61Ca",
      "gasPrice": {
        "_hex": "0x110c8f7d8de"
      },
      "gasLimit": {
        "_hex": "0xc350"
      },
      "to": "0x2910543Af39abA0Cd09dBb2D50200b3E800A63D2",
      "value": {
        "_hex": "0x10eff0fae29b1bc0000"
      },
      "nonce": 1,
      "data": "0x454e48334448394347",
      "r": "0x906f95d29d806dcdf893e20a36b9caa044c40f2f806a86162db0a9249afd7125",
      "s": "0xcc3f181bd6e7d0ae2d7754b1125fd2cf025b77644a5d0eac66d6c6a09d722d09",
      "v": 27,
      "creates": null,
      "raw": "0xf87801860110c8f7d8de82c350942910543af39aba0cd09dbb2d50200b3e800a63d28a010eff0fae29b1bc000089454e483344483943471ba0906f95d29d806dcdf893e20a36b9caa044c40f2f806a86162db0a9249afd7125a0cc3f181bd6e7d0ae2d7754b1125fd2cf025b77644a5d0eac66d6c6a09d722d09",
      "networkId": 0,
      "chainId": 0
    }
  ]
}