{
  "hash": "0x3a6376f5e3f1a8c3c7f86e1ad73836ccb13827975684970e782661e3e72d0bb6",
  "parentHash": "0xbbf81c767f4e2e4f184b1d1bc15843852e5e92b6ba131d487a8ab2253e4d7274",
  "number": 91577,
  "timestamp": 1439657955,
  "nonce": "0x5ab8477f2555cc06",
  "difficulty": 3496374986746,
  "gasLimit": {
    "_hex": "0x2fefd8"
  },
  "gasUsed": {
    "_hex": "0x546c"
  },
  "miner": "0x9D49F602b0fdb924Bd63DDE2Bd0907E4A07c63a7",
  "extraData": "0x476574682f76312e302e312f6c696e75782f676f312e342e32",
  "transactions": [
    {
      "hash": "0x5d312271f8297c7489dbba876024ea6c209d3305267ec3ccd54042769b098500",
      "blockHash": "0x3a6376f5e3f1a8c3c7f86e1ad73836ccb13827975684970e782661e3e72d0bb6",
      "blockNumber": 91577,
      "transactionIndex": 0,
      "confirmations": null,
      "from": "0x6CE13F1816a2cFab76C59714291Cb8403CbBB3D8",
      "gasPrice": {
        "_hex": "0xcb0a32b8a"
      },
      "gasLimit": {
        "_hex": "0x55f0"
      },
      "to": "0x2910543Af39abA0Cd09dBb2D50200b3E800A63D2",
      "value": {
        "_hex": "0xaa87bee538000"
      },
      "nonce": 10,
      "data": "0x454e4b434252474d47",
      "r": "0xc03175f9b7c2e5e95aac24605c90eb3825f8f50fdfcf944e27eb70bca71b2726",
      "s": "0x73654f132c8b9a5601e19c6fe6ddaae0fd13266b5e1752d51c6301aca668f846",
      "v": 27,
      "creates": null,
      "raw": "0xf8740a850cb0a32b8a8255f0942910543af39aba0cd09dbb2d50200b3e800a63d2870aa87bee53800089454e4b434252474d471ba0c03175f9b7c2e5e95aac24605c90eb3825f8f50fdfcf944e27eb70bca71b2726a073654f132c8b9a5601e19c6fe6ddaae0fd13266b5e1752d51c6301aca668f846",
      "networkId": 0,
      "chainId": 0
    }
  ]
}