{
  "hash": "0x4189b9b63d8693897958940edd0f2bda1fde793690c0c654ee418b5c95ac1a41",
  "parentHash": "0xa2f573240981aab02d885f381e5583227beaa4ebf15796086d4b5ffe84eeb688",
  "number": 64188,
  "timestamp": 1439216714,
  "nonce": "0x919535ad73742395",
  "difficulty": 1869361925464,
  "gasLimit": {
    "_hex": "0x2fefd8"
  },
  "gasUsed": {
    "_hex": "0x5208"
  },
  "miner": "0xbb7B8287f3F0a933474a79eAe42CBCa977791171",
  "extraData": "0x476574682f4c5649562f76312e302e312f6c696e75782f676f312e342e32",
  "transactions": [
    {
      "hash": "0x17214f9f0396e15e4940e80c72b3a12af92bd9ed23ced18c6df054bdfb032d97",
      "blockHash": "0x4189b9b63d8693897958940edd0f2bda1fde793690c0c654ee418b5c95ac1a41",
      "blockNumber": 64188,
      "transactionIndex": 0,
      "confirmations": null,
      "from": "0x2A595F16EEE4Cb0C17D9a2D939B3C10F6C677243",
      "gasPrice": {
        "_hex": "0x10cfc75fe30"
      },
      "gasLimit": {
        "_hex": "0x15f90"
      },
      "to": "0xbCAc266E82Ec326595cabCb3F344cF505219985c",
      "value": {
        "_hex": "0xde0b6b3a7640000"
      },
      "nonce": 3,
      "data": "0x",
      "r": "0x8db02f37b5ba785684d9d8f720e618e5f82753e534c646aaf6b2f57ad2a4b799",
      "s": "0x2009bc62ae02741d90abd22850ba6dd3fd308dad4bbeba4713ce283b81e14e0a",
      "v": 27,
      "creates": null,
      "raw": "0xf86e0386010cfc75fe3083015f9094bcac266e82ec326595cabcb3f344cf505219985c880de0b6b3a7640000801ba08db02f37b5ba785684d9d8f720e618e5f82753e534c646aaf6b2f57ad2a4b799a02009bc62ae02741d90abd22850ba6dd3fd308dad4bbeba4713ce283b81e14e0a",
      "networkId": 0,
      "chainId": 0
    }
  ]
}