{
  "hash": "0xbe602bc866d3b8abe133a34f914b15e947c78138948af5a1667f534dd34f8bef",
  "parentHash": "0x6dee293e85c79201b210a464d524fe9f2a460680dda770cf9393a34466a6195d",
  "number": 83097,
  "timestamp": 1439530123,
  "nonce": "0x1f32938aafc7b331",
  "difficulty": 2407801622805,
  "gasLimit": {
    "_hex": "0x2fefd8"
  },
  "gasUsed": {
    "_hex": "0x5208"
  },
  "miner": "0xEF247E639d49461D25F57e9362CadE3120910Ce0",
  "extraData": "0x476574682f76312e302e312f6c696e75782f676f312e342e32",
  "transactions": [
    {
      "hash": "0xe6be52d4da831fd9e1e4b9427633675aa5f7b3200badf7a03afe4feeed92649f",
      "blockHash": "0xbe602bc866d3b8abe133a34f914b15e947c78138948af5a1667f534dd34f8bef",
      "blockNumber": 83097,
      "transactionIndex": 0,
      "confirmations": null,
      "from": "0x4BD5f0Ee173C81d42765154865EE69361b6aD189",
      "gasPrice": {
        "_hex": "0x746a528800"
      },
      "gasLimit": {
        "_hex": "0x5b04"
      },
      "to": "0xAaA4BEfA989B980188a418Cc5C4C02E7d9103818",
      "value": {
        "_hex": "0x8ac7230489e80000"
      },
      "nonce": 24,
      "data": "0x",
      "r": "0x87ca751cec8c6e8dfd31da9a5179f85e6bc528b3c976d3d3e535ee7b15f2a765",
      "s": "0x1fa2beda6e8fd5fdf8568427b5a7af988f8b3b6b7df1f3553e0fcbcf48fd471b",
      "v": 27,
      "creates": null,
      "raw": "0xf86c1885746a528800825b0494aaa4befa989b980188a418cc5c4c02e7d9103818888ac7230489e80000801ba087ca751cec8c6e8dfd31da9a5179f85e6bc528b3c976d3d3e535ee7b15f2a765a01fa2beda6e8fd5fdf8568427b5a7af988f8b3b6b7df1f3553e0fcbcf48fd471b",
      "networkId": 0,
      "chainId": 0
    }
  ]
}