{
  "hash": "0xfaec175b8e76286497e9572d7b27b78559fe3e868eb35efc14378b699502f352",
  "parentHash": "0x70ff9011ee9de09edae7153b9921c0127865546dc0bccfad270870672d5ead5b",
  "number": 75841,
  "timestamp": 1439410211,
  "nonce": "0x35bdfb32c220fbb3",
  "difficulty": 2233136820873,
  "gasLimit": {
    "_hex": "0x2fefd8"
  },
  "gasUsed": {
    "_hex": "0x5208"
  },
  "miner": "0xe6A7a1d47ff21B6321162AEA7C6CB457D5476Bca",
  "extraData": "0x476574682f76312e302e312d38326566323666362f6c696e75782f676f312e34",
  "transactions": [
    {
      "hash": "0x09c42f8b128f86e56ce25d2988dbe64067f907e5bd775d8b784a81986fa8505e",
      "blockHash": "0xfaec175b8e76286497e9572d7b27b78559fe3e868eb35efc14378b699502f352",
      "blockNumber": 75841,
      "transactionIndex": 0,
      "confirmations": null,
      "from": "0xBB33a4b72d92FA335a3b591Ce7eE217f7a7338C1",
      "gasPrice": {
        "_hex": "0xd1192f9d7"
      },
      "gasLimit": {
        "_hex": "0x5208"
      },
      "to": "0x32Be343B94f860124dC4fEe278FDCBD38C102D88",
      "value": {
        "_hex": "0x556f21c15c5164000"
      },
      "nonce": 3,
      "data": "0x",
      "r": "0x33a84f52d65a336c011b3a347140c95bf12eda0c405dc117aeab340caf4ac059",
      "s": "0x0c340ce7674f683c5344b68999f84aadadcd884b5b604545ee36e65be01f3854",
      "v": 27,
      "creates": null,
      "raw": "0xf86d03850d1192f9d78252089432be343b94f860124dc4fee278fdcbd38c102d88890556f21c15c5164000801ba033a84f52d65a336c011b3a347140c95bf12eda0c405dc117aeab340caf4ac059a00c340ce7674f683c5344b68999f84aadadcd884b5b604545ee36e65be01f3854",
      "networkId": 0,
      "chainId": 0
    }
  ]
}