{
  "hash": "0x1b82a94d09c6d373146d96b2d74b616bd6bbbf1e5e4c01f38b7b9458b778449b",
  "parentHash": "0x5de82172d8354801cfb3148e26ab2731992fd6ff259f909313fad188b9a24b71",
  "number": 81761,
  "timestamp": 1439507428,
  "nonce": "0x0315d006c4903fdc",
  "difficulty": 2422337009526,
  "gasLimit": {
    "_hex": "0x2fefd8"
  },
  "gasUsed": {
    "_hex": "0xa410"
  },
  "miner": "0x0a58b1C9aaF19693813c11b8a20D20C2a8Fe8883",
  "extraData": "0xd983010001844765746887676f312e342e328777696e646f7773",
  "transactions": [
    {
      "hash": "0x7020ac4759adbbe4d84e31694929458cf2be50238f1089142b58301ca8566b69",
      "blockHash": "0x1b82a94d09c6d373146d96b2d74b616bd6bbbf1e5e4c01f38b7b9458b778449b",
      "blockNumber": 81761,
      "transactionIndex": 0,
      "confirmations": null,
      "from": "0x6866e5e1FaBB4AbceF3EEb9Ea0d8CD6b52dfC9FF",
      "gasPrice": {
        "_hex": "0xd35126fa1"
      },
      "gasLimit": {
        "_hex": "0x15f90"
      },
      "to": "0x01Ad0ACFf478127D9d702B1A13599D706cB759b1",
      "value": {
        "_hex": "0x2386f26fc10000"
      },
      "nonce": 15,
      "data": "0x",
      "r": "0xeb6ab05d51665de09f58f10c4a69b4d8d4bc3a535cb869135f845640fb5b1262",
      "s": "0x14a874a4cabea30cae5e16c5d6d97c0f39ac49391ba7d6fff9ea94f6a9ec1787",
      "v": 27,
      "creates": null,
      "raw": "0xf86c0f850d35126fa183015f909401ad0acff478127d9d702b1a13599d706cb759b1872386f26fc10000801ba0eb6ab05d51665de09f58f10c4a69b4d8d4bc3a535cb869135f845640fb5b1262a014a874a4cabea30cae5e16c5d6d97c0f39ac49391ba7d6fff9ea94f6a9ec1787",
      "networkId": 0,
      "chainId": 0
    },
    {
      "hash": "0xfd079ea334c97aea6b0cad5e3db342a25282326356a15c856779d5658065a87b",
      "blockHash": "0x1b82a94d09c6d373146d96b2d74b616bd6bbbf1e5e4c01f38b7b9458b778449b",
      "blockNumber": 81761,
      "transactionIndex": 1,
      "confirmations": null,
      "from": "0x32485C818728C197FeA487fBb6E829159eba8370",
      "gasPrice": {
        "_hex": "0xced7f6abe"
      },
      "gasLimit": {
        "_hex": "0x15f90"
      },
      "to": "0x3D01cd9bD80e2165FFf6F863E0ddd402EbC4ae9c",
      "value": {
        "_hex": "0x27f7d0bdb920000"
      },
      "nonce": 3,
      "data": "0x",
      "r": "0xf3d9bb91dccc829e1cbc2274c972d1f7b5f4fcfa598d3c28f835286195e43778",
      "s": "0x156f5219f515ee6647eda4df18dc2cb574be88d19aaf13157e90208ceb09e25c",
      "v": 27,
      "creates": null,
      "raw": "0xf86d03850ced7f6abe83015f90943d01cd9bd80e2165fff6f863e0ddd402ebc4ae9c88027f7d0bdb920000801ba0f3d9bb91dccc829e1cbc2274c972d1f7b5f4fcfa598d3c28f835286195e43778a0156f5219f515ee6647eda4df18dc2cb574be88d19aaf13157e90208ceb09e25c",
      "networkId": 0,
      "chainId": 0
    }
  ]
}