{
  "hash": "0x30de1df4d8630a1d2f911ee5d1923b3aa18066d192323623ba552b5b4cf34b28",
  "parentHash": "0x81e4f253f9e798990a59c069dee241a93719d076b41e7d3890e0cacad8ee5d8b",
  "number": 75987,
  "timestamp": 1439412999,
  "nonce": "0x94c3c9d409ff7b67",
  "difficulty": 2235279779516,
  "gasLimit": {
    "_hex": "0x2fefd8"
  },
  "gasUsed": {
    "_hex": "0x5208"
  },
  "miner": "0x580992B51e3925e23280EfB93d3047C82f17E038",
  "extraData": "0x476574682f76312e302e312f6c696e75782f676f312e342e32",
  "transactions": [
    {
      "hash": "0x41b2bf3b3bcc2e23436358477637a53258d0a13aaf8122377c5dc798d9be7c5c",
      "blockHash": "0x30de1df4d8630a1d2f911ee5d1923b3aa18066d192323623ba552b5b4cf34b28",
      "blockNumber": 75987,
      "transactionIndex": 0,
      "confirmations": null,
      "from": "0x76Df61770A702069FE1381EAE55AD11A03dEcA93",
      "gasPrice": {
        "_hex": "0xd7d40ace3"
      },
      "gasLimit": {
        "_hex": "0x15f90"
      },
      "to": "0xA8c8B89fD99a25b4a085DfF3d967b47b10b37034",
      "value": {
        "_hex": "0x2386f26fc10000"
      },
      "nonce": 0,
      "data": "0x",
      "r": "0xce69e2d5d7f00a14f0bd24e29cec82bc18678ac9797defffa426a85ab266a91e",
      "s": "0x7c5531398df302beacdcae96e54d9ab63a258028e195cb16d81eb58a343aaa77",
      "v": 28,
      "creates": null,
      "raw": "0xf86c80850d7d40ace383015f9094a8c8b89fd99a25b4a085dff3d967b47b10b37034872386f26fc10000801ca0ce69e2d5d7f00a14f0bd24e29cec82bc18678ac9797defffa426a85ab266a91ea07c5531398df302beacdcae96e54d9ab63a258028e195cb16d81eb58a343aaa77",
      "networkId": 0,
      "chainId": 0
    }
  ]
}