{
  "hash": "0xc344f157ebe412122be1fa0d542b3f4db723834180a31e99fea91316dabc2dac",
  "parentHash": "0xd7b07d12ce378464996dd8df956b15313b985de880171d10336c865b9b1a8c42",
  "number": 104354,
  "timestamp": 1439868333,
  "nonce": "0xc977f6cde1880530",
  "difficulty": 4308771427404,
  "gasLimit": {
    "_hex": "0x2fefd8"
  },
  "gasUsed": {
    "_hex": "0x5208"
  },
  "miner": "0xe6A7a1d47ff21B6321162AEA7C6CB457D5476Bca",
  "extraData": "0x476574682f76312e302e312d38326566323666362f6c696e75782f676f312e34",
  "transactions": [
    {
      "hash": "0xbe0fa2c3daf41d533a3a01284fb520e72e0e617bc12bc17394198e5c45e89bcf",
      "blockHash": "0xc344f157ebe412122be1fa0d542b3f4db723834180a31e99fea91316dabc2dac",
      "blockNumber": 104354,
      "transactionIndex": 0,
      "confirmations": null,
      "from": "0x1D3ffA437e5bce40fCC134f4E0ac62841E4A9E81",
      "gasPrice": {
        "_hex": "0xba43b7400"
      },
      "gasLimit": {
        "_hex": "0x5208"
      },
      "to": "0xC47Aaa860008be6f65B58c6C6E02a84e666EfE31",
      "value": {
        "_hex": "0x4352ecb27e6000"
      },
      "nonce": 17,
      "data": "0x",
      "r": "0xafc1f5f4a97032c83bdfeb1162b096951158917f90c745048d27210b0f09da49",
      "s": "0x3c67c1f72cb51ece76d6f159c748a53ebe847ab3fee170871fcda3d100b898ee",
      "v": 28,
      "creates": null,
      "raw": "0xf86b11850ba43b740082520894c47aaa860008be6f65b58c6c6e02a84e666efe31874352ecb27e6000801ca0afc1f5f4a97032c83bdfeb1162b096951158917f90c745048d27210b0f09da49a03c67c1f72cb51ece76d6f159c748a53ebe847ab3fee170871fcda3d100b898ee",
      "networkId": 0,
      "chainId": 0
    }
  ]
}