{
  "hash": "0xe720aeb609a85dfc779dfb28af2bc5ea1e7a38603c1a58f28779e4de54225e36",
  "parentHash": "0x5508b5499e26381951527e438c24cbe4a9fa6df2ab5d2a6e03b93af11ea4deb6",
  "number": 98435,
  "timestamp": 1439772746,
  "nonce": "0x5c731c95b6362465",
  "difficulty": 3866971661581,
  "gasLimit": {
    "_hex": "0x2fefd8"
  },
  "gasUsed": {
    "_hex": "0x5208"
  },
  "miner": "0xe6A7a1d47ff21B6321162AEA7C6CB457D5476Bca",
  "extraData": "0x476574682f76312e302e312d38326566323666362f6c696e75782f676f312e34",
  "transactions": [
    {
      "hash": "0x3343f3e26856852ca5aa19360977c86626c5224ad5781914d51e0e7fbbe05580",
      "blockHash": "0xe720aeb609a85dfc779dfb28af2bc5ea1e7a38603c1a58f28779e4de54225e36",
      "blockNumber": 98435,
      "transactionIndex": 0,
      "confirmations": null,
      "from": "0xC603Ab5ef41fC61AA8b76bEddb09e3Cfcbb174BD",
      "gasPrice": {
        "_hex": "0xdd2b86c1d"
      },
      "gasLimit": {
        "_hex": "0x15f90"
      },
      "to": "0x8F79f76381Aad7B98C19aF55eE75fdfEeb012211",
      "value": {
        "_hex": "0x882d00c2da8540000"
      },
      "nonce": 29,
      "data": "0x",
      "r": "0x150d163691a132df1213822b50c72e96de4f3c842f3b8e770613896f48f06729",
      "s": "0x6264c295e2554f45f818ad52cd63fe30277faeafa95c63cf0f47a80d6b36252b",
      "v": 28,
      "creates": null,
      "raw": "0xf86e1d850dd2b86c1d83015f90948f79f76381aad7b98c19af55ee75fdfeeb012211890882d00c2da8540000801ca0150d163691a132df1213822b50c72e96de4f3c842f3b8e770613896f48f06729a06264c295e2554f45f818ad52cd63fe30277faeafa95c63cf0f47a80d6b36252b",
      "networkId": 0,
      "chainId": 0
    }
  ]
}