{
  "hash": "0x7eb18e961918c0bcb77387aac93f0a31841f6eb179fd1c43b18a1649b25f244f",
  "parentHash": "0xd6c05570ed7b18bf8703c911e238f6ee5dc0f47ceb605ee2e95a31905cf122ac",
  "number": 85608,
  "timestamp": 1439566074,
  "nonce": "0xecc88d47efcf1edf",
  "difficulty": 2788175599087,
  "gasLimit": {
    "_hex": "0x2fefd8"
  },
  "gasUsed": {
    "_hex": "0xa410"
  },
  "miner": "0x47ff6576639c2e94762eA5443978D7681C0E78DC",
  "extraData": "0x476574682f76312e302e312f6c696e75782f676f312e342e32",
  "transactions": [
    {
      "hash": "0x711d329ac66aea3278a3461f0967ca81eccf8b1fc9642bc4ad64d7af2509db55",
      "blockHash": "0x7eb18e961918c0bcb77387aac93f0a31841f6eb179fd1c43b18a1649b25f244f",
      "blockNumber": 85608,
      "transactionIndex": 0,
      "confirmations": null,
      "from": "0x0CDf45a0f7A9bFD8777c2B6311a6614345aB9D9d",
      "gasPrice": {
        "_hex": "0xd743cdc23"
      },
      "gasLimit": {
        "_hex": "0x5208"
      },
      "to": "0x32Be343B94f860124dC4fEe278FDCBD38C102D88",
      "value": {
        "_hex": "0x515098718841b80000"
      },
      "nonce": 3,
      "data": "0x",
      "r": "0x52e500f5a01ced292acfa692826203370d029c434a0dcadb6f138b1fd564732f",
      "s": "0x2e9f79fdea5c3b8de1acbeff060fe6a0ff34e047524c16bc3d4425a98c2fa2af",
      "v": 28,
      "creates": null,
      "raw": "0xf86d03850d743cdc238252089432be343b94f860124dc4fee278fdcbd38c102d8889515098718841b80000801ca052e500f5a01ced292acfa692826203370d029c434a0dcadb6f138b1fd564732fa02e9f79fdea5c3b8de1acbeff060fe6a0ff34e047524c16bc3d4425a98c2fa2af",
      "networkId": 0,
      "chainId": 0
    },
    {
      "hash": "0x8a60a2eff8a1d90212c51dbca7099d0e9e616ece2048eef85b471175a911d7a4",
      "blockHash": "0x7eb18e961918c0bcb77387aac93f0a31841f6eb179fd1c43b18a1649b25f244f",
      "blockNumber": 85608,
      "transactionIndex": 1,
      "confirmations": null,
      "from": "0xa70a9a7040d542C632D8e0bE7c5513A8a5Bbc752",
      "gasPrice": {
        "_hex": "0xd743cdc23"
      },
      "gasLimit": {
        "_hex": "0x5208"
      },
      "to": "0x32Be343B94f860124dC4fEe278FDCBD38C102D88",
      "value": {
        "_hex": "0x455f41d89c908c00"
      },
      "nonce": 87,
      "data": "0x",
      "r": "0x32bab793599d51c476b6f04d268db55abaa16529dfa3c4d3eae02e545381ddeb",
      "s": "0x365336223b85886c2ac02edc87866040ab409fa246400e3fdfbdfd3c0fd9c8a0",
      "v": 28,
      "creates": null,
      "raw": "0xf86c57850d743cdc238252089432be343b94f860124dc4fee278fdcbd38c102d8888455f41d89c908c00801ca032bab793599d51c476b6f04d268db55abaa16529dfa3c4d3eae02e545381ddeba0365336223b85886c2ac02edc87866040ab409fa246400e3fdfbdfd3c0fd9c8a0",
      "networkId": 0,
      "chainId": 0
    }
  ]
}