{
  "hash": "0x8e9b52638c59aad3f25284caceee2a2f0fca97b54c7145203b49482308b8a936",
  "parentHash": "0xfa027018b8fbf17c9f7abb3e770533d8e1ad26381cca269712194b8566cccdb5",
  "number": 81117,
  "timestamp": 1439496512,
  "nonce": "0xdfc2525c2eaa554a",
  "difficulty": 2436759119817,
  "gasLimit": {
    "_hex": "0x2fefd8"
  },
  "gasUsed": {
    "_hex": "0x5208"
  },
  "miner": "0xbb7B8287f3F0a933474a79eAe42CBCa977791171",
  "extraData": "0x476574682f4c5649562f76312e302e312f6c696e75782f676f312e342e32",
  "transactions": [
    {
      "hash": "0x4c2384e19937bcd9266bbb0d659bacd6efc51fef5a04cae1b9e38bd79041cf4e",
      "blockHash": "0x8e9b52638c59aad3f25284caceee2a2f0fca97b54c7145203b49482308b8a936",
      "blockNumber": 81117,
      "transactionIndex": 0,
      "confirmations": null,
      "from": "0x727A42a8D67fcaa0Ab81D46f1EE66bfc9b8789AC",
      "gasPrice": {
        "_hex": "0xe0d0e7592"
      },
      "gasLimit": {
        "_hex": "0x15f90"
      },
      "to": "0x285B048CC4cB946abCF3eF11aDe982C36946AF18",
      "value": {
        "_hex": "0x4563918244f40000"
      },
      "nonce": 11,
      "data": "0x",
      "r": "0x3d2ee043a3b9c06465c43df7efab2ff6d1801045bd1ffedc3277a4764272ee78",
      "s": "0x7f1c24f2ba62512c24b50e0aca8ae6a80ad97f4e05a8a46b014fa8c1c31952a1",
      "v": 27,
      "creates": null,
      "raw": "0xf86d0b850e0d0e759283015f9094285b048cc4cb946abcf3ef11ade982c36946af18884563918244f40000801ba03d2ee043a3b9c06465c43df7efab2ff6d1801045bd1ffedc3277a4764272ee78a07f1c24f2ba62512c24b50e0aca8ae6a80ad97f4e05a8a46b014fa8c1c31952a1",
      "networkId": 0,
      "chainId": 0
    }
  ]
}