{
  "hash": "0x2ef9e46fa2d85fab3dd1514653a5c11aec3508bc48a8545c2840480d14f6ba7c",
  "parentHash": "0x62706c5933ed3e38b65bb99657b3e28cf0148803d4301ef5cc0ef90da00642eb",
  "number": 107430,
  "timestamp": 1439922308,
  "nonce": "0x76f1da53fe0e0cd4",
  "difficulty": 4405029971357,
  "gasLimit": {
    "_hex": "0x2fefd8"
  },
  "gasUsed": {
    "_hex": "0x5208"
  },
  "miner": "0xe6A7a1d47ff21B6321162AEA7C6CB457D5476Bca",
  "extraData": "0x476574682f76312e302e312d38326566323666362f6c696e75782f676f312e34",
  "transactions": [
    {
      "hash": "0xc5fe75c3c150daa2d656a89cd6f9ca03ac7dfbc7f5fcea907a009c968e82e349",
      "blockHash": "0x2ef9e46fa2d85fab3dd1514653a5c11aec3508bc48a8545c2840480d14f6ba7c",
      "blockNumber": 107430,
      "transactionIndex": 0,
      "confirmations": null,
      "from": "0xB4DF81bA9111D11A33ffdCBF58027843a577D08c",
      "gasPrice": {
        "_hex": "0xdef960ba6"
      },
      "gasLimit": {
        "_hex": "0x15f90"
      },
      "to": "0x976349705b839e2F5719387Fb27D2519d519da03",
      "value": {
        "_hex": "0x13737bc62530000"
      },
      "nonce": 1,
      "data": "0x",
      "r": "0xa68a408d78e17549078005ccb9b479c01378120678c8598225e76fe477a70ef3",
      "s": "0x457347d13892ea9e6eeb77088fef4da62121c8b9abb89f80fa517bb8c15c9c8e",
      "v": 28,
      "creates": null,
      "raw": "0xf86d01850def960ba683015f9094976349705b839e2f5719387fb27d2519d519da0388013737bc62530000801ca0a68a408d78e17549078005ccb9b479c01378120678c8598225e76fe477a70ef3a0457347d13892ea9e6eeb77088fef4da62121c8b9abb89f80fa517bb8c15c9c8e",
      "networkId": 0,
      "chainId": 0
    }
  ]
}