{
  "hash": "0x1961416638cf6b354be48c4d4e274ebe8c78d3f7d22d02baa6c3be2c79d3f6de",
  "parentHash": "0x9e1e0fec718708af7b8b661ecb21a23d24f300d8b2582ba958be372415eb6e35",
  "number": 55142,
  "timestamp": 1439066000,
  "nonce": "0x4bcfcd0760ee4e18",
  "difficulty": 1637034626550,
  "gasLimit": {
    "_hex": "0x2fefd8"
  },
  "gasUsed": {
    "_hex": "0x121258"
  },
  "miner": "0xf927a40C8B7F6E07c5af7FA2155B4864a4112B13",
  "extraData": "0x476574682f76312e302e312f6c696e75782f676f312e342e32",
  "transactions": [
    {
      "hash": "0xa3856723ba6a0bf8a0c2f8e00f021d31262bf1b1006b9846c9fcc64d4b9fcd83",
      "blockHash": "0x1961416638cf6b354be48c4d4e274ebe8c78d3f7d22d02baa6c3be2c79d3f6de",
      "blockNumber": 55142,
      "transactionIndex": 0,
      "confirmations": null,
      "from": "0xc70bA22fe446A85A247bf85BaD1AdDf3ddaF62E9",
      "gasPrice": {
        "_hex": "0xdc0be9146"
      },
      "gasLimit": {
        "_hex": "0xf4240"
      },
      "to": null,
      "value": {
        "_hex": "0x0"
      },
      "nonce": 1,
      "data": "0x6060604052604051602080610315833950608060405251603e33600160a060020a03811660009081526020819052604090205460ff161515609d57609a565b50610227806100ee6000396000f35b505080548392506000198101908110156002576000919091527fb10e2d527612073b26eecdfd717e6a320cf44b4afac2b0732d9fcbe2b7fa0cf6018054600160a060020a03191690911790555b50565b6040600020805460ff191660019081179091558054808201808355919082908015829011604d57818360005260206000209182019101604d91905b8082111560e95760008155840160d8565b50905600606060405260e060020a60003504630a3b0a4f81146100315780634e71d92d1461005e5780639e7a13ad1461008d575b005b61002f60043533600160a060020a031660009081526020819052604090205460ff16151561013b57610138565b61002f33600160a060020a03166000908152602081905260408120548190819060ff16151561019d575b505050565b6100d360043560018054829081101561000257506000527fb10e2d527612073b26eecdfd717e6a320cf44b4afac2b0732d9fcbe2b7fa0cf60154600160a060020a031681565b6060908152602090f35b50508054839250600019810190811015610002576000919091527fb10e2d527612073b26eecdfd717e6a320cf44b4afac2b0732d9fcbe2b7fa0cf601805473ffffffffffffffffffffffffffffffffffffffff191690911790555b50565b600160a060020a038116600090815260409020805460ff1916600190811790915580548082018083559190829080158290116100dd578183600052602060002091820191016100dd91905b8082111561019957600081558401610186565b5090565b30600160a060020a031631925060648310156101b857610088565b600154830491505b600154811015610088576001805482908110156100025760009182527fb10e2d527612073b26eecdfd717e6a320cf44b4afac2b0732d9fcbe2b7fa0cf60154604051600160a060020a03919091169190849082818181858883f150505050506001016101c056000000000000000000000000c70ba22fe446a85a247bf85bad1addf3ddaf62e9",
      "r": "0xa5f48911e30379c0c3fc6e2e60101e67650eee455a2c413d019982bdc6d89e52",
      "s": "0x4d1918599d0944cadb16fe7d8bad2775a53f28cf9ded4f62efb9dc923214415e",
      "v": 27,
      "creates": "0xd38c7BfC3cf7457241b62cc9f922f455c286A1b3",
      "raw": "0xf9038801850dc0be9146830f42408080b903356060604052604051602080610315833950608060405251603e33600160a060020a03811660009081526020819052604090205460ff161515609d57609a565b50610227806100ee6000396000f35b505080548392506000198101908110156002576000919091527fb10e2d527612073b26eecdfd717e6a320cf44b4afac2b0732d9fcbe2b7fa0cf6018054600160a060020a03191690911790555b50565b6040600020805460ff191660019081179091558054808201808355919082908015829011604d57818360005260206000209182019101604d91905b8082111560e95760008155840160d8565b50905600606060405260e060020a60003504630a3b0a4f81146100315780634e71d92d1461005e5780639e7a13ad1461008d575b005b61002f60043533600160a060020a031660009081526020819052604090205460ff16151561013b57610138565b61002f33600160a060020a03166000908152602081905260408120548190819060ff16151561019d575b505050565b6100d360043560018054829081101561000257506000527fb10e2d527612073b26eecdfd717e6a320cf44b4afac2b0732d9fcbe2b7fa0cf60154600160a060020a031681565b6060908152602090f35b50508054839250600019810190811015610002576000919091527fb10e2d527612073b26eecdfd717e6a320cf44b4afac2b0732d9fcbe2b7fa0cf601805473ffffffffffffffffffffffffffffffffffffffff191690911790555b50565b600160a060020a038116600090815260409020805460ff1916600190811790915580548082018083559190829080158290116100dd578183600052602060002091820191016100dd91905b8082111561019957600081558401610186565b5090565b30600160a060020a031631925060648310156101b857610088565b600154830491505b600154811015610088576001805482908110156100025760009182527fb10e2d527612073b26eecdfd717e6a320cf44b4afac2b0732d9fcbe2b7fa0cf60154604051600160a060020a03919091169190849082818181858883f150505050506001016101c056000000000000000000000000c70ba22fe446a85a247bf85bad1addf3ddaf62e91ba0a5f48911e30379c0c3fc6e2e60101e67650eee455a2c413d019982bdc6d89e52a04d1918599d0944cadb16fe7d8bad2775a53f28cf9ded4f62efb9dc923214415e",
      "networkId": 0,
      "chainId": 0
    },
    {
      "hash": "0x108b884fce6201c45b36fb9aafb1d5aa34f75ec7b24967ad70838b0d8fa6c48c",
      "blockHash": "0x1961416638cf6b354be48c4d4e274ebe8c78d3f7d22d02baa6c3be2c79d3f6de",
      "blockNumber": 55142,
      "transactionIndex": 1,
      "confirmations": null,
      "from": "0x0ae3F81a67725a8A7758FeB8684c6c17dA20755D",
      "gasPrice": {
        "_hex": "0xd8364fc25"
      },
      "gasLimit": {
        "_hex": "0x7a120"
      },
      "to": "0x109C4f2CCc82C4d77Bde15F306707320294Aea3F",
      "value": {
        "_hex": "0xde0b6b3a7640000"
      },
      "nonce": 9,
      "data": "0x",
      "r": "0xec36dc056ca1a05ad95a4da7258ba4251f11d08c9acd4d42c2cded0b461dd9c2",
      "s": "0x37c54b86c7432802b9a655d0e9b4ed2e3caffcfc6fd29b902c4fe155c3ca4a5c",
      "v": 27,
      "creates": null,
      "raw": "0xf86d09850d8364fc258307a12094109c4f2ccc82c4d77bde15f306707320294aea3f880de0b6b3a7640000801ba0ec36dc056ca1a05ad95a4da7258ba4251f11d08c9acd4d42c2cded0b461dd9c2a037c54b86c7432802b9a655d0e9b4ed2e3caffcfc6fd29b902c4fe155c3ca4a5c",
      "networkId": 0,
      "chainId": 0
    },
    {
      "hash": "0x640c5bc0f3d5c4e375c01f8620dfb0c15f47c54b037bd9b71f142880c18a74a6",
      "blockHash": "0x1961416638cf6b354be48c4d4e274ebe8c78d3f7d22d02baa6c3be2c79d3f6de",
      "blockNumber": 55142,
      "transactionIndex": 2,
      "confirmations": null,
      "from": "0x0ae3F81a67725a8A7758FeB8684c6c17dA20755D",
      "gasPrice": {
        "_hex": "0xd600a1a1c"
      },
      "gasLimit": {
        "_hex": "0x7a120"
      },
      "to": "0x109C4f2CCc82C4d77Bde15F306707320294Aea3F",
      "value": {
        "_hex": "0xde0b6b3a7640000"
      },
      "nonce": 10,
      "data": "0x",
      "r": "0x8e877310072a4d79350b89813d9cd89561164966193a6d7d24b3bc8d2dc74e5b",
      "s": "0x244955a25ee18980bfe88089fc5ccd127154d039368c40459ff3f44d1e2622cd",
      "v": 27,
      "creates": null,
      "raw": "0xf86d0a850d600a1a1c8307a12094109c4f2ccc82c4d77bde15f306707320294aea3f880de0b6b3a7640000801ba08e877310072a4d79350b89813d9cd89561164966193a6d7d24b3bc8d2dc74e5ba0244955a25ee18980bfe88089fc5ccd127154d039368c40459ff3f44d1e2622cd",
      "networkId": 0,
      "chainId": 0
    }
  ]
}