{
  "hash": "0xe94fb20dd15a3b3a8a2a462a4a1f8192c44b3465271f42f219f702695b7c348a",
  "parentHash": "0xe0b1f8cdbd8a060af1708f24c051ae3b74fc4083b7621c2b93df5be8f6769af9",
  "number": 75853,
  "timestamp": 1439410520,
  "nonce": "0xd093e48516eeacca",
  "difficulty": 2228776293482,
  "gasLimit": {
    "_hex": "0x2fefd8"
  },
  "gasUsed": {
    "_hex": "0x5538"
  },
  "miner": "0x1217627fe41A00f0b828317F43E6d58F47dBfc43",
  "extraData": "0x476574682f76312e302e302d66313265303136312f6c696e75782f676f312e34",
  "transactions": [
    {
      "hash": "0xb14ba841c249357791b521009e8531a54987147421fa2c13f46207b63ac4655c",
      "blockHash": "0xe94fb20dd15a3b3a8a2a462a4a1f8192c44b3465271f42f219f702695b7c348a",
      "blockNumber": 75853,
      "transactionIndex": 0,
      "confirmations": null,
      "from": "0x908CABeD14f5632705F9D7BdB95d672b164446A8",
      "gasPrice": {
        "_hex": "0xd06e45bad"
      },
      "gasLimit": {
        "_hex": "0x55f0"
      },
      "to": "0x8dB8F218CeD465C5458C6b7fc56AEa358ec27997",
      "value": {
        "_hex": "0x17979cfe362a0000"
      },
      "nonce": 2,
      "data": "0x676f61746d696e6542617365",
      "r": "0x1b91666b33ea59289f7c78086502312cf589f215fdd79eb31525b143c8ddb544",
      "s": "0x3f5ded114abbe58a12f1908874b4c1a68ef195145684fd46844f9458c60a2fd8",
      "v": 27,
      "creates": null,
      "raw": "0xf87802850d06e45bad8255f0948db8f218ced465c5458c6b7fc56aea358ec279978817979cfe362a00008c676f61746d696e65426173651ba01b91666b33ea59289f7c78086502312cf589f215fdd79eb31525b143c8ddb544a03f5ded114abbe58a12f1908874b4c1a68ef195145684fd46844f9458c60a2fd8",
      "networkId": 0,
      "chainId": 0
    }
  ]
}