{
  "hash": "0xeaad6312a9b9db761b2d58268b2c48a9c699635b29c41acb0b59ec9a35430030",
  "parentHash": "0x8e052b5eae92af77f0538cf7fbadae8986d76ecd37dafa06e9bcbeb6f49f0854",
  "number": 63922,
  "timestamp": 1439212450,
  "nonce": "0x6d287b76a71f6a69",
  "difficulty": 1847641784848,
  "gasLimit": {
    "_hex": "0x2fefd8"
  },
  "gasUsed": {
    "_hex": "0x546c"
  },
  "miner": "0x5F8F73E26CdF436f19Cb24C82F90A15AFe55b592",
  "extraData": "0x476574682f76312e302e312f77696e646f77732f676f312e342e32",
  "transactions": [
    {
      "hash": "0x875988ec0069b04c00df9727037547e7ea3a89ce395fd7159421f296e1f3a886",
      "blockHash": "0xeaad6312a9b9db761b2d58268b2c48a9c699635b29c41acb0b59ec9a35430030",
      "blockNumber": 63922,
      "transactionIndex": 0,
      "confirmations": null,
      "from": "0xA8ACa748f9D312eC747F8B6578142694C7E9f399",
      "gasPrice": {
        "_hex": "0x10730b42a6f"
      },
      "gasLimit": {
        "_hex": "0x15f90"
      },
      "to": "0x2910543Af39abA0Cd09dBb2D50200b3E800A63D2",
      "value": {
        "_hex": "0xad78ebc5ac6200000"
      },
      "nonce": 5,
      "data": "0x454e30444e54485630",
      "r": "0x7e97e2fb7c6e5a543e199147fd71980f8242b9d7ca041f4216d082f668c3b426",
      "s": "0x5ebdf852c3e00182dcd5ccbd199255c95eb9eb4703e1fed6a2fca15913c9251d",
      "v": 27,
      "creates": null,
      "raw": "0xf8780586010730b42a6f83015f90942910543af39aba0cd09dbb2d50200b3e800a63d2890ad78ebc5ac620000089454e30444e544856301ba07e97e2fb7c6e5a543e199147fd71980f8242b9d7ca041f4216d082f668c3b426a05ebdf852c3e00182dcd5ccbd199255c95eb9eb4703e1fed6a2fca15913c9251d",
      "networkId": 0,
      "chainId": 0
    }
  ]
}