{
  "hash": "0xb74b01e090982fd7ac1dcd6a1d7e2044d33b75adbc56bc42f5be153bdff485c2",
  "parentHash": "0x1e1bdaeae0191a49fe6b403ff346c24507ac97e8b445ac3a8726fd21e207f7b5",
  "number": 46273,
  "timestamp": 1438920341,
  "nonce": "0xce6a3eed106ee848",
  "difficulty": 1463968267760,
  "gasLimit": {
    "_hex": "0x578a"
  },
  "gasUsed": {
    "_hex": "0x5208"
  },
  "miner": "0x9746c7e1ef2bd21FF3997fa467593a89cb852BD0",
  "extraData": "0x476574682f76312e302e312f77696e646f77732f676f312e342e32",
  "transactions": [
    {
      "hash": "0xc97331513f24f2bb94142a7e3b87d9da9d7a0760214129e225ff3eea4b188c38",
      "blockHash": "0xb74b01e090982fd7ac1dcd6a1d7e2044d33b75adbc56bc42f5be153bdff485c2",
      "blockNumber": 46273,
      "transactionIndex": 0,
      "confirmations": null,
      "from": "0x6232dF6f3A300fCD3Bc591452ac447eeA3aC079F",
      "gasPrice": {
        "_hex": "0x1bf08eb000"
      },
      "gasLimit": {
        "_hex": "0x5208"
      },
      "to": "0xd5508890f2b282Fb1939b561ec11D8f2b6ED4E05",
      "value": {
        "_hex": "0xde0b6b3a7640000"
      },
      "nonce": 0,
      "data": "0x",
      "r": "0x403a85a8b8886c3650d8d5461c20689a44f528065b14e26238ca75dd12ba2957",
      "s": "0x423899cd950fe71656b21058f2cc8fac929aa523909406c18126438b2e05be5d",
      "v": 28,
      "creates": null,
      "raw": "0xf86c80851bf08eb00082520894d5508890f2b282fb1939b561ec11d8f2b6ed4e05880de0b6b3a7640000801ca0403a85a8b8886c3650d8d5461c20689a44f528065b14e26238ca75dd12ba2957a0423899cd950fe71656b21058f2cc8fac929aa523909406c18126438b2e05be5d",
      "networkId": 0,
      "chainId": 0
    }
  ]
}