{
  "hash": "0x6df47e417377247f36ed2fb1d248903dcdc386d16e180a4e45f90f8a971e4833",
  "parentHash": "0xb8b6f3d0a8347c1423b982bfbdf75a6a70990d49927acf70f6c04684122911c0",
  "number": 84534,
  "timestamp": 1439550965,
  "nonce": "0x61635917ba421d5a",
  "difficulty": 2576453747225,
  "gasLimit": {
    "_hex": "0x2fefd8"
  },
  "gasUsed": {
    "_hex": "0x5208"
  },
  "miner": "0xe6A7a1d47ff21B6321162AEA7C6CB457D5476Bca",
  "extraData": "0x476574682f76312e302e312d38326566323666362f6c696e75782f676f312e34",
  "transactions": [
    {
      "hash": "0xa0027d1acbd3c11435d86fbc81a7982a719552fa0f7ad6453b33b2c24862e809",
      "blockHash": "0x6df47e417377247f36ed2fb1d248903dcdc386d16e180a4e45f90f8a971e4833",
      "blockNumber": 84534,
      "transactionIndex": 0,
      "confirmations": null,
      "from": "0x2910543Af39abA0Cd09dBb2D50200b3E800A63D2",
      "gasPrice": {
        "_hex": "0xceca6ace6"
      },
      "gasLimit": {
        "_hex": "0x5208"
      },
      "to": "0x8e44de8518424bFf69916Db9B4a420B9beF5906e",
      "value": {
        "_hex": "0xe7da9e769f498000"
      },
      "nonce": 561,
      "data": "0x",
      "r": "0xa3e7d2f5035e299b337d6754ca5c3aed2239f44f075be782f3cf6ba35a48f184",
      "s": "0x3501960384aa41f183f209f80054d7e15b8f4910c2b5cce1acd6773f3596cc40",
      "v": 28,
      "creates": null,
      "raw": "0xf86e820231850ceca6ace6825208948e44de8518424bff69916db9b4a420b9bef5906e88e7da9e769f498000801ca0a3e7d2f5035e299b337d6754ca5c3aed2239f44f075be782f3cf6ba35a48f184a03501960384aa41f183f209f80054d7e15b8f4910c2b5cce1acd6773f3596cc40",
      "networkId": 0,
      "chainId": 0
    }
  ]
}