{
  "hash": "0x00a34640a2bbd49208caf38db007bef9503029cf33e379e95bd0790b4a84c225",
  "parentHash": "0xad8b2bcd91e08223f96024d2510f6b9a503a9658337d7e283a5f792cdd330ed7",
  "number": 71862,
  "timestamp": 1439343050,
  "nonce": "0x502b21cd79c30da6",
  "difficulty": 2170750544951,
  "gasLimit": {
    "_hex": "0x2fefd8"
  },
  "gasUsed": {
    "_hex": "0x9400"
  },
  "miner": "0xe6A7a1d47ff21B6321162AEA7C6CB457D5476Bca",
  "extraData": "0x476574682f76312e302e312d38326566323666362f6c696e75782f676f312e34",
  "transactions": [
    {
      "hash": "0x3778f941f8fc69ed8c5b99b9e82309319931f2adb867d0ee65589df716b38b21",
      "blockHash": "0x00a34640a2bbd49208caf38db007bef9503029cf33e379e95bd0790b4a84c225",
      "blockNumber": 71862,
      "transactionIndex": 0,
      "confirmations": null,
      "from": "0x17580B766f7453525ca4C6A88b01b50570EA088C",
      "gasPrice": {
        "_hex": "0xcafb7e4ae"
      },
      "gasLimit": {
        "_hex": "0x61a80"
      },
      "to": "0x5Fe5B7546D1628f7348B023A0393de1FC825A4fD",
      "value": {
        "_hex": "0x53444835ec580000"
      },
      "nonce": 272,
      "data": "0xb595b8b50000000000000000000000000000000000000000000000000000000000000001",
      "r": "0xe3841bb45d8acd9ebf85b375800499cec761fd33546b0f8943030bb220ad5077",
      "s": "0x0ed44c95777e27e228cacb860e05b7a3a2102cc72f2add44a0b97a3caa4c04d9",
      "v": 28,
      "creates": null,
      "raw": "0xf893820110850cafb7e4ae83061a80945fe5b7546d1628f7348b023a0393de1fc825a4fd8853444835ec580000a4b595b8b500000000000000000000000000000000000000000000000000000000000000011ca0e3841bb45d8acd9ebf85b375800499cec761fd33546b0f8943030bb220ad5077a00ed44c95777e27e228cacb860e05b7a3a2102cc72f2add44a0b97a3caa4c04d9",
      "networkId": 0,
      "chainId": 0
    }
  ]
}