{
  "hash": "0xdb16b44bdb418b1abd21635d3755fbd66a048681382a3b5c49f14f84ba138f34",
  "parentHash": "0x2c7ca9bce8c904024c239b0d3b08ff54da58b18f82648c2a36901d69349d8939",
  "number": 74271,
  "timestamp": 1439383340,
  "nonce": "0x26b4eafe24afd012",
  "difficulty": 2211848908710,
  "gasLimit": {
    "_hex": "0x2fefd8"
  },
  "gasUsed": {
    "_hex": "0x5208"
  },
  "miner": "0xe6A7a1d47ff21B6321162AEA7C6CB457D5476Bca",
  "extraData": "0x476574682f76312e302e312d38326566323666362f6c696e75782f676f312e34",
  "transactions": [
    {
      "hash": "0x5f936b65e5330d2744d249a5155b12377c99040f92632f4b41a11bf1d80c0b42",
      "blockHash": "0xdb16b44bdb418b1abd21635d3755fbd66a048681382a3b5c49f14f84ba138f34",
      "blockNumber": 74271,
      "transactionIndex": 0,
      "confirmations": null,
      "from": "0xe6A7a1d47ff21B6321162AEA7C6CB457D5476Bca",
      "gasPrice": {
        "_hex": "0xdfbccbe4b"
      },
      "gasLimit": {
        "_hex": "0x55f0"
      },
      "to": "0x7CabE4dE323c392C7135680c61a04d5Eb7519897",
      "value": {
        "_hex": "0x133fbfcba681f0130"
      },
      "nonce": 920,
      "data": "0x",
      "r": "0x059c62b1d14c44c46344ae9b090e8c4146859ab79077a0bdb583f4af9494e719",
      "s": "0x5433f6d72b6f074b2fcc62b9410c5a829c7ab6828cf8c3370e833f5283ba76ad",
      "v": 28,
      "creates": null,
      "raw": "0xf86f820398850dfbccbe4b8255f0947cabe4de323c392c7135680c61a04d5eb7519897890133fbfcba681f0130801ca0059c62b1d14c44c46344ae9b090e8c4146859ab79077a0bdb583f4af9494e719a05433f6d72b6f074b2fcc62b9410c5a829c7ab6828cf8c3370e833f5283ba76ad",
      "networkId": 0,
      "chainId": 0
    }
  ]
}