{
  "hash": "0x087ca9e64bbf195cc3b46fc9a9d7059026edca7201c689fb6bbb7255a8def20a",
  "parentHash": "0x444a018419d6be7ab17107227144cb3497b0ea26a0a13c2d45dfd0d35d0b2ab8",
  "number": 97204,
  "timestamp": 1439752564,
  "nonce": "0xbf6dab30b54e82e3",
  "difficulty": 3765056847603,
  "gasLimit": {
    "_hex": "0x2fefd8"
  },
  "gasUsed": {
    "_hex": "0x520c"
  },
  "miner": "0xe6A7a1d47ff21B6321162AEA7C6CB457D5476Bca",
  "extraData": "0x476574682f76312e302e312d38326566323666362f6c696e75782f676f312e34",
  "transactions": [
    {
      "hash": "0xaec564e5e294428cab1914ff8c5b6d2bed9c30beaf799dfaa3573abdfe536b87",
      "blockHash": "0x087ca9e64bbf195cc3b46fc9a9d7059026edca7201c689fb6bbb7255a8def20a",
      "blockNumber": 97204,
      "transactionIndex": 0,
      "confirmations": null,
      "from": "0x2bc0c92E4De6f4C5650B1605B989a11b644F5dE9",
      "gasPrice": {
        "_hex": "0xe251be636"
      },
      "gasLimit": {
        "_hex": "0x7530"
      },
      "to": "0xBf601a6902c80dfa30210B3Dc6245c7f0989Ea1c",
      "value": {
        "_hex": "0x4a9b6384488000"
      },
      "nonce": 1,
      "data": "0x00",
      "r": "0x25a8212d936913753eb7a89d05ace9a0ef31c860b197459556f549608ed94748",
      "s": "0xc18c25ad1b5d419b61dbf2dd9da08390837907a473ed633d76c98a4dca596633",
      "v": 27,
      "creates": null,
      "raw": "0xf86b01850e251be63682753094bf601a6902c80dfa30210b3dc6245c7f0989ea1c874a9b6384488000001ba025a8212d936913753eb7a89d05ace9a0ef31c860b197459556f549608ed94748a0c18c25ad1b5d419b61dbf2dd9da08390837907a473ed633d76c98a4dca596633",
      "networkId": 0,
      "chainId": 0
    }
  ]
}