{
  "hash": "0x7b69119a81a4927222c9afed28e8c64f7855c59cd479f211ab9a8cd1d0c12890",
  "parentHash": "0xedaddcea33d03c9ebc15b5acf1b74dc9b97159f3157e91dc47fb297cb518d7ef",
  "number": 101890,
  "timestamp": 1439829638,
  "nonce": "0x8c61ac97079ebe25",
  "difficulty": 3889993446551,
  "gasLimit": {
    "_hex": "0x2fefd8"
  },
  "gasUsed": {
    "_hex": "0x5208"
  },
  "miner": "0xf927a40C8B7F6E07c5af7FA2155B4864a4112B13",
  "extraData": "0x",
  "transactions": [
    {
      "hash": "0x65d08d03f9eaf9c1a2e9d26420cf799f2192a944e2df5ec2ca9043cee1868a4d",
      "blockHash": "0x7b69119a81a4927222c9afed28e8c64f7855c59cd479f211ab9a8cd1d0c12890",
      "blockNumber": 101890,
      "transactionIndex": 0,
      "confirmations": null,
      "from": "0xE9820EfC74A9fe5fb68bf1e0FBf9945c1302bC0B",
      "gasPrice": {
        "_hex": "0xd98f51e0d"
      },
      "gasLimit": {
        "_hex": "0x5208"
      },
      "to": "0x32Be343B94f860124dC4fEe278FDCBD38C102D88",
      "value": {
        "_hex": "0x5265f665bfa110000"
      },
      "nonce": 4,
      "data": "0x",
      "r": "0x1fa8f4bf2812e16cb6da7c85a4b74c7f61ff9c66fb637b421b08e161eae06131",
      "s": "0x6a0e8b60c5d8a9beef442d50d840e4e087daaaf3c9ca8dc6855129f048065866",
      "v": 28,
      "creates": null,
      "raw": "0xf86d04850d98f51e0d8252089432be343b94f860124dc4fee278fdcbd38c102d888905265f665bfa110000801ca01fa8f4bf2812e16cb6da7c85a4b74c7f61ff9c66fb637b421b08e161eae06131a06a0e8b60c5d8a9beef442d50d840e4e087daaaf3c9ca8dc6855129f048065866",
      "networkId": 0,
      "chainId": 0
    }
  ]
}