{
  "hash": "0x735c4108e7d5ef665674d37dc98252aa0a47c0fd1d2c42a979f31bc7040dde60",
  "parentHash": "0xd4766671e7d517736721723a107d42b08cb5ddbf0f664c59836283d27245aebf",
  "number": 109131,
  "timestamp": 1439951386,
  "nonce": "0xa9b209572df37857",
  "difficulty": 4440846760950,
  "gasLimit": {
    "_hex": "0x2fefd8"
  },
  "gasUsed": {
    "_hex": "0x5208"
  },
  "miner": "0xe6A7a1d47ff21B6321162AEA7C6CB457D5476Bca",
  "extraData": "0x476574682f76312e302e312d38326566323666362f6c696e75782f676f312e34",
  "transactions": [
    {
      "hash": "0xe7b9508cc9620fe13fefb41fd19d4cc314e65a0c235f12bad407cd1a886ee139",
      "blockHash": "0x735c4108e7d5ef665674d37dc98252aa0a47c0fd1d2c42a979f31bc7040dde60",
      "blockNumber": 109131,
      "transactionIndex": 0,
      "confirmations": null,
      "from": "0x120A270bbC009644e35F0bB6ab13f95b8199c4ad",
      "gasPrice": {
        "_hex": "0xdc9c17c0a"
      },
      "gasLimit": {
        "_hex": "0x3d090"
      },
      "to": "0x06C503404928FC8F0e70a41C58751a2A20dF3D3e",
      "value": {
        "_hex": "0x5672f5ad781b000"
      },
      "nonce": 850,
      "data": "0x",
      "r": "0xfb5efa9aa61843806f3a10b58c9adecdb422ac02bdb1ca596939473c66c6e721",
      "s": "0x05da54e14f882f8e9bfb150f4121aec1a9be70a61f4aa37f11b3991ff1a862aa",
      "v": 27,
      "creates": null,
      "raw": "0xf86f820352850dc9c17c0a8303d0909406c503404928fc8f0e70a41c58751a2a20df3d3e8805672f5ad781b000801ba0fb5efa9aa61843806f3a10b58c9adecdb422ac02bdb1ca596939473c66c6e721a005da54e14f882f8e9bfb150f4121aec1a9be70a61f4aa37f11b3991ff1a862aa",
      "networkId": 0,
      "chainId": 0
    }
  ]
}