{
  "hash": "0xc895d1d012b4c1d51aa7f21637157dd991659299ec66f3216fc81da35c2814fe",
  "parentHash": "0xe07abe2ccadb133b87005747af2e01dd285c87779992624759c45da98399faf0",
  "number": 121253,
  "timestamp": 1440174023,
  "nonce": "0xfdd46946731937fd",
  "difficulty": 4417145905129,
  "gasLimit": {
    "_hex": "0x2fefd8"
  },
  "gasUsed": {
    "_hex": "0xf618"
  },
  "miner": "0xe6A7a1d47ff21B6321162AEA7C6CB457D5476Bca",
  "extraData": "0xd783010002844765746887676f312e342e32856c696e7578",
  "transactions": [
    {
      "hash": "0xa663e85166cd68ec9aeebc3fd0d67a21de511cbb85d20c6ad33b7f847db6246b",
      "blockHash": "0xc895d1d012b4c1d51aa7f21637157dd991659299ec66f3216fc81da35c2814fe",
      "blockNumber": 121253,
      "transactionIndex": 0,
      "confirmations": null,
      "from": "0x8BeF58cf6D5f4fdE02e940a20D56b052F89Cf42f",
      "gasPrice": {
        "_hex": "0x9184e72a000"
      },
      "gasLimit": {
        "_hex": "0x9965e"
      },
      "to": "0xFAe95941f26f565646Cc5bF443AfFDe60868f17e",
      "value": {
        "_hex": "0xde0b6b3a7640000"
      },
      "nonce": 5,
      "data": "0x",
      "r": "0x376158303a330c2db30a1b85bae915eb3113c40b12d643a66b21d803c1e46e8c",
      "s": "0x7edef66d3579284931051560d36353d7ab28d38193b7d8f155c5ae01d561ef1c",
      "v": 27,
      "creates": null,
      "raw": "0xf86e058609184e72a0008309965e94fae95941f26f565646cc5bf443affde60868f17e880de0b6b3a7640000801ba0376158303a330c2db30a1b85bae915eb3113c40b12d643a66b21d803c1e46e8ca07edef66d3579284931051560d36353d7ab28d38193b7d8f155c5ae01d561ef1c",
      "networkId": 0,
      "chainId": 0
    },
    {
      "hash": "0xd5288bead02baf069386a644983174a886ec9dc86cb31564f5caa1211be9fe21",
      "blockHash": "0xc895d1d012b4c1d51aa7f21637157dd991659299ec66f3216fc81da35c2814fe",
      "blockNumber": 121253,
      "transactionIndex": 1,
      "confirmations": null,
      "from": "0x0C473d7A7006C15EDd586751F352F1D74Bea83FE",
      "gasPrice": {
        "_hex": "0xd7008eef4"
      },
      "gasLimit": {
        "_hex": "0x15f90"
      },
      "to": "0x9b0a028EAfDeCdE3AFc0fD00B7937098388b7C8a",
      "value": {
        "_hex": "0x207622af4030681a60"
      },
      "nonce": 1,
      "data": "0x",
      "r": "0xd79838ea95d0be7e16fd4d7d347a737c86324becad979610f06c8de1472eddb9",
      "s": "0x7c513746cd389854e23baf13e2aa2153e4c501ed59035931e484f2e5927f6f41",
      "v": 28,
      "creates": null,
      "raw": "0xf86e01850d7008eef483015f90949b0a028eafdecde3afc0fd00b7937098388b7c8a89207622af4030681a60801ca0d79838ea95d0be7e16fd4d7d347a737c86324becad979610f06c8de1472eddb9a07c513746cd389854e23baf13e2aa2153e4c501ed59035931e484f2e5927f6f41",
      "networkId": 0,
      "chainId": 0
    },
    {
      "hash": "0x3b77cf75f4d8c4024e7f755535e017be6aaef2a305df3308b1db8e92c6810d13",
      "blockHash": "0xc895d1d012b4c1d51aa7f21637157dd991659299ec66f3216fc81da35c2814fe",
      "blockNumber": 121253,
      "transactionIndex": 2,
      "confirmations": null,
      "from": "0x1B8BB4bD8A048f3951e78854a648207989D8aE46",
      "gasPrice": {
        "_hex": "0xd7008eef4"
      },
      "gasLimit": {
        "_hex": "0x15f90"
      },
      "to": "0x9b0a028EAfDeCdE3AFc0fD00B7937098388b7C8a",
      "value": {
        "_hex": "0x169ae2238db748ac0"
      },
      "nonce": 0,
      "data": "0x",
      "r": "0xa1e3f83e96ecee7a8f0ea5d966c0db319fb8d5d5e2369a4caa896ac6e5021c81",
      "s": "0x59a991fae11bdb4e52ac90037226140d3f0ec69e0432457d218b2d90cd6f5765",
      "v": 28,
      "creates": null,
      "raw": "0xf86e80850d7008eef483015f90949b0a028eafdecde3afc0fd00b7937098388b7c8a890169ae2238db748ac0801ca0a1e3f83e96ecee7a8f0ea5d966c0db319fb8d5d5e2369a4caa896ac6e5021c81a059a991fae11bdb4e52ac90037226140d3f0ec69e0432457d218b2d90cd6f5765",
      "networkId": 0,
      "chainId": 0
    }
  ]
}