{
  "hash": "0xd91113a0b328e4faf1b728aa697af9e3a29b043dc37468f03b59f7ad44f36046",
  "parentHash": "0xa68b20a50b1a6e0e7f436352941d12b6c65b01ae4d59fef24ce296d59e92a61e",
  "number": 96528,
  "timestamp": 1439741746,
  "nonce": "0x81c2a0f82bf8e920",
  "difficulty": 3685326664848,
  "gasLimit": {
    "_hex": "0x2fefd8"
  },
  "gasUsed": {
    "_hex": "0x19a28"
  },
  "miner": "0x790b8a3cE86E707ED0eD32bF89B3269692a23CC1",
  "extraData": "0xd783010001844765746887676f312e342e32856c696e7578",
  "transactions": [
    {
      "hash": "0xbe80a54ec33f97a0209e8a39f6a67f95fba92334d5f60f3f8a594636d916be49",
      "blockHash": "0xd91113a0b328e4faf1b728aa697af9e3a29b043dc37468f03b59f7ad44f36046",
      "blockNumber": 96528,
      "transactionIndex": 0,
      "confirmations": null,
      "from": "0x40B9b889A21Ff1534d018D71Dc406122EBcf3F5A",
      "gasPrice": {
        "_hex": "0x113aee7d813"
      },
      "gasLimit": {
        "_hex": "0x15f90"
      },
      "to": "0x645B979F8ce622236DB26feB803455d40C328615",
      "value": {
        "_hex": "0x65ce7c49edf7980000"
      },
      "nonce": 31,
      "data": "0x",
      "r": "0xdf99fde1f7ae2fe5c607ae8cb2048689e9330489ad6acdccdcf2d8460455e66c",
      "s": "0x713f5ddfd0f4a4f2bd48115a3ce70d32349c5c194643c40cf69be818c31477ee",
      "v": 28,
      "creates": null,
      "raw": "0xf86f1f860113aee7d81383015f9094645b979f8ce622236db26feb803455d40c3286158965ce7c49edf7980000801ca0df99fde1f7ae2fe5c607ae8cb2048689e9330489ad6acdccdcf2d8460455e66ca0713f5ddfd0f4a4f2bd48115a3ce70d32349c5c194643c40cf69be818c31477ee",
      "networkId": 0,
      "chainId": 0
    },
    {
      "hash": "0xdd0c9104d0a4c6dab396b5a5458f6c856006bfb9e9bafde7922d7f30b8ce381c",
      "blockHash": "0xd91113a0b328e4faf1b728aa697af9e3a29b043dc37468f03b59f7ad44f36046",
      "blockNumber": 96528,
      "transactionIndex": 1,
      "confirmations": null,
      "from": "0x6d921977dEFE5f4e0682CA512De1D07b1f4802E1",
      "gasPrice": {
        "_hex": "0xcd93698f8"
      },
      "gasLimit": {
        "_hex": "0x5208"
      },
      "to": "0x32Be343B94f860124dC4fEe278FDCBD38C102D88",
      "value": {
        "_hex": "0x1158a280ef52b0000"
      },
      "nonce": 20,
      "data": "0x",
      "r": "0x3d4da223457706ecf88df7bbdfaac3167d664a6350356f5e5697da1f5d063c67",
      "s": "0x0241a8a8bf8ac31dd7ea10f74a527c2162734b31a8861cc3f01ebc265a97622b",
      "v": 27,
      "creates": null,
      "raw": "0xf86d14850cd93698f88252089432be343b94f860124dc4fee278fdcbd38c102d888901158a280ef52b0000801ba03d4da223457706ecf88df7bbdfaac3167d664a6350356f5e5697da1f5d063c67a00241a8a8bf8ac31dd7ea10f74a527c2162734b31a8861cc3f01ebc265a97622b",
      "networkId": 0,
      "chainId": 0
    },
    {
      "hash": "0x62da6a91c84a2fdd3c7f8c5168ced79cc96f61de81a2986f51f5dea474692363",
      "blockHash": "0xd91113a0b328e4faf1b728aa697af9e3a29b043dc37468f03b59f7ad44f36046",
      "blockNumber": 96528,
      "transactionIndex": 2,
      "confirmations": null,
      "from": "0x32Be343B94f860124dC4fEe278FDCBD38C102D88",
      "gasPrice": {
        "_hex": "0xcd93698f8"
      },
      "gasLimit": {
        "_hex": "0x5208"
      },
      "to": "0xCaf1C12c783fCcC4066e87a376F94518141dEF80",
      "value": {
        "_hex": "0x18186727a0c55a000"
      },
      "nonce": 1007,
      "data": "0x",
      "r": "0x00859246a737c555a9fc781ec021f8592d17cf2a98cda16d44085c473ecd75b8",
      "s": "0x4988be6c68da888e1a76f16d916cb55dd00411ecd93cea2387719692529474f2",
      "v": 28,
      "creates": null,
      "raw": "0xf86e8203ef850cd93698f882520894caf1c12c783fccc4066e87a376f94518141def8089018186727a0c55a000801c9f859246a737c555a9fc781ec021f8592d17cf2a98cda16d44085c473ecd75b8a04988be6c68da888e1a76f16d916cb55dd00411ecd93cea2387719692529474f2",
      "networkId": 0,
      "chainId": 0
    },
    {
      "hash": "0x90f15006eabed90179b657e6ac3c67c23ce94d31289815c9b06ef0ef3696d6a1",
      "blockHash": "0xd91113a0b328e4faf1b728aa697af9e3a29b043dc37468f03b59f7ad44f36046",
      "blockNumber": 96528,
      "transactionIndex": 3,
      "confirmations": null,
      "from": "0xD9666150A9dA92d9108198a4072970805a8B3428",
      "gasPrice": {
        "_hex": "0xcd93698f8"
      },
      "gasLimit": {
        "_hex": "0x5208"
      },
      "to": "0x32Be343B94f860124dC4fEe278FDCBD38C102D88",
      "value": {
        "_hex": "0x455f7fcf5d036000"
      },
      "nonce": 18,
      "data": "0x",
      "r": "0x9407d4d9486820af475c5c5987a3ba43d322c80495aaf423de20afe08a28387c",
      "s": "0x5a803ffab316392019d5071e2a0c0081431c9cabb51300b64943c191dd76d63d",
      "v": 27,
      "creates": null,
      "raw": "0xf86c12850cd93698f88252089432be343b94f860124dc4fee278fdcbd38c102d8888455f7fcf5d036000801ba09407d4d9486820af475c5c5987a3ba43d322c80495aaf423de20afe08a28387ca05a803ffab316392019d5071e2a0c0081431c9cabb51300b64943c191dd76d63d",
      "networkId": 0,
      "chainId": 0
    },
    {
      "hash": "0x9cf6a8369f270bf6c41da771e8a5a961854b6fdd6f6670f3811b90d1377a44b1",
      "blockHash": "0xd91113a0b328e4faf1b728aa697af9e3a29b043dc37468f03b59f7ad44f36046",
      "blockNumber": 96528,
      "transactionIndex": 4,
      "confirmations": null,
      "from": "0xF87481A262E993a75F791E7859E71BaC36A606Eb",
      "gasPrice": {
        "_hex": "0xcd93698f8"
      },
      "gasLimit": {
        "_hex": "0x5208"
      },
      "to": "0x32Be343B94f860124dC4fEe278FDCBD38C102D88",
      "value": {
        "_hex": "0x1158a280ef52b0000"
      },
      "nonce": 31,
      "data": "0x",
      "r": "0x4261094c50c21a82f0d3584dc69c68b10416197b75a99c94f479e1d929582b61",
      "s": "0x4b8f7f7bf7b96b04aed59a3168cb1546b22defc395d3dd7b3b195ce15f61b72c",
      "v": 28,
      "creates": null,
      "raw": "0xf86d1f850cd93698f88252089432be343b94f860124dc4fee278fdcbd38c102d888901158a280ef52b0000801ca04261094c50c21a82f0d3584dc69c68b10416197b75a99c94f479e1d929582b61a04b8f7f7bf7b96b04aed59a3168cb1546b22defc395d3dd7b3b195ce15f61b72c",
      "networkId": 0,
      "chainId": 0
    }
  ]
}