{
  "hash": "0xd3bbb506dbb37ffa6d55f6dbc8d46c3b69cf439f5487c563ccbd6a87df024099",
  "parentHash": "0x5f1d8b39a8d65079252eff449408d80d43104bdea896300fdaaa4a442e283979",
  "number": 75751,
  "timestamp": 1439408674,
  "nonce": "0xe73cabea56e145ce",
  "difficulty": 2224454510486,
  "gasLimit": {
    "_hex": "0x2fefd8"
  },
  "gasUsed": {
    "_hex": "0x5208"
  },
  "miner": "0xA1623430350C5df1b52B0b57483A5bb45d1796Da",
  "extraData": "0x476574682f76312e302e312d38326566323666362f6c696e75782f676f312e34",
  "transactions": [
    {
      "hash": "0x5658bb44a9d7999378084c46e169f2dc81372d316bbcc068efee1ec9b18998b0",
      "blockHash": "0xd3bbb506dbb37ffa6d55f6dbc8d46c3b69cf439f5487c563ccbd6a87df024099",
      "blockNumber": 75751,
      "transactionIndex": 0,
      "confirmations": null,
      "from": "0x2910543Af39abA0Cd09dBb2D50200b3E800A63D2",
      "gasPrice": {
        "_hex": "0xd80566da0"
      },
      "gasLimit": {
        "_hex": "0x5208"
      },
      "to": "0x6A06499CEEe3eA86F394568874b5BDf6e9e26074",
      "value": {
        "_hex": "0x3771175565af8000"
      },
      "nonce": 313,
      "data": "0x",
      "r": "0x1181c922c31344a3ea3649be3cdd2fade7c1b91b089ad44d5fdd43d386c50fe8",
      "s": "0x086358bd98042d454b6fdf4cdf833b92c1a994bc59f98cc1002b28175311fec2",
      "v": 27,
      "creates": null,
      "raw": "0xf86e820139850d80566da0825208946a06499ceee3ea86f394568874b5bdf6e9e26074883771175565af8000801ba01181c922c31344a3ea3649be3cdd2fade7c1b91b089ad44d5fdd43d386c50fe8a0086358bd98042d454b6fdf4cdf833b92c1a994bc59f98cc1002b28175311fec2",
      "networkId": 0,
      "chainId": 0
    }
  ]
}