{
  "hash": "0xa160385d4dc8f5183b57ffcfa6b1ee05e90cf4334410844e6611272c83c2309a",
  "parentHash": "0xd2229c1ccd91d769b137f369b475cd1e02d0ec7a50f6d31a61007fa70c9cbb9d",
  "number": 93593,
  "timestamp": 1439693841,
  "nonce": "0xf692ee2fe8270e0e",
  "difficulty": 3471721046075,
  "gasLimit": {
    "_hex": "0x2fefd8"
  },
  "gasUsed": {
    "_hex": "0x5208"
  },
  "miner": "0xB7268c7705A1866b2A78e882fdfDc8E2a4e1428E",
  "extraData": "0x476574682f76312e302e312f77696e646f77732f676f312e342e32",
  "transactions": [
    {
      "hash": "0x42227ea8a4e204a3fa070b643195eec22df000366521218b6035013111b4adbb",
      "blockHash": "0xa160385d4dc8f5183b57ffcfa6b1ee05e90cf4334410844e6611272c83c2309a",
      "blockNumber": 93593,
      "transactionIndex": 0,
      "confirmations": null,
      "from": "0xFD7c9117BbEB649d9b37B3D3C9917f7c12f526B3",
      "gasPrice": {
        "_hex": "0xd447f06b5"
      },
      "gasLimit": {
        "_hex": "0x5208"
      },
      "to": "0x32Be343B94f860124dC4fEe278FDCBD38C102D88",
      "value": {
        "_hex": "0x27e3aa745aa5c60000"
      },
      "nonce": 25,
      "data": "0x",
      "r": "0xc3719de1cc119f5399a4f2e5652f438b2a07a69753ec2d31940534d7314de061",
      "s": "0x69c3b54cba8966afbae3e9e6b490f11063e67ac8b180cf2cb04a3a3e122ed96f",
      "v": 27,
      "creates": null,
      "raw": "0xf86d19850d447f06b58252089432be343b94f860124dc4fee278fdcbd38c102d888927e3aa745aa5c60000801ba0c3719de1cc119f5399a4f2e5652f438b2a07a69753ec2d31940534d7314de061a069c3b54cba8966afbae3e9e6b490f11063e67ac8b180cf2cb04a3a3e122ed96f",
      "networkId": 0,
      "chainId": 0
    }
  ]
}