{
  "hash": "0x15c54faa0fe929724348a2cf2f4b0122a8b102b18c2f9a6a79209d280e8c02c1",
  "parentHash": "0x97f76bebfccdaf379bea7e146807cf5efcaf97ebc746f447ef0eb2b98ee37c9a",
  "number": 94702,
  "timestamp": 1439712704,
  "nonce": "0x8f2503e6b44ce375",
  "difficulty": 3486550242559,
  "gasLimit": {
    "_hex": "0x2fefd8"
  },
  "gasUsed": {
    "_hex": "0x75eb8"
  },
  "miner": "0xf8E0CA3Ed80bd541b94BEdCf259e8CF2141A9523",
  "extraData": "0x476574682f76312e302e312f77696e646f77732f676f312e342e32",
  "transactions": [
    {
      "hash": "0x54a82e8c08915a51b284a5c26ce60b921aed1d0706d989ba727a9ed02b564efd",
      "blockHash": "0x15c54faa0fe929724348a2cf2f4b0122a8b102b18c2f9a6a79209d280e8c02c1",
      "blockNumber": 94702,
      "transactionIndex": 0,
      "confirmations": null,
      "from": "0x5175f107219871c88e0C4202F14A5f34088b54c8",
      "gasPrice": {
        "_hex": "0x746a528800"
      },
      "gasLimit": {
        "_hex": "0x5b04"
      },
      "to": "0x90fba3C13F19F8cf72A3Bb9EE63C8f728F548654",
      "value": {
        "_hex": "0xb921335257b60000"
      },
      "nonce": 7,
      "data": "0x",
      "r": "0x327f307563e346921de7e08e63ea931d07de64d0b73d531d68ab0ad057ba31c7",
      "s": "0x5d42834cecffb46d767dadcb8528082b4b31910742bb211e070331a3f4839687",
      "v": 27,
      "creates": null,
      "raw": "0xf86c0785746a528800825b049490fba3c13f19f8cf72a3bb9ee63c8f728f54865488b921335257b60000801ba0327f307563e346921de7e08e63ea931d07de64d0b73d531d68ab0ad057ba31c7a05d42834cecffb46d767dadcb8528082b4b31910742bb211e070331a3f4839687",
      "networkId": 0,
      "chainId": 0
    },
    {
      "hash": "0x3fdaf8ec779f187eef873e1bf59b5f5ce321fd4861981bb17948a3ef42787bbb",
      "blockHash": "0x15c54faa0fe929724348a2cf2f4b0122a8b102b18c2f9a6a79209d280e8c02c1",
      "blockNumber": 94702,
      "transactionIndex": 1,
      "confirmations": null,
      "from": "0xe6A7a1d47ff21B6321162AEA7C6CB457D5476Bca",
      "gasPrice": {
        "_hex": "0xdcd9ce70a"
      },
      "gasLimit": {
        "_hex": "0x55f0"
      },
      "to": "0xC711d87af18Db9a7EbE2CFB279b73c8785E55d41",
      "value": {
        "_hex": "0x4254e4d26da3c3c8"
      },
      "nonce": 3003,
      "data": "0x",
      "r": "0xbff49b929c434dea000e959e09533b99a2908caf5f9b860fa69a62044cf7bc0b",
      "s": "0x5af29fe28fd4357145ca9ac179637a27670ca2577bb6d196e02b1d710da5af28",
      "v": 28,
      "creates": null,
      "raw": "0xf86e820bbb850dcd9ce70a8255f094c711d87af18db9a7ebe2cfb279b73c8785e55d41884254e4d26da3c3c8801ca0bff49b929c434dea000e959e09533b99a2908caf5f9b860fa69a62044cf7bc0ba05af29fe28fd4357145ca9ac179637a27670ca2577bb6d196e02b1d710da5af28",
      "networkId": 0,
      "chainId": 0
    },
    {
      "hash": "0x36c022a0f0a81ff546268eaf8484b5e882f3119b6965069dab0646cd14550364",
      "blockHash": "0x15c54faa0fe929724348a2cf2f4b0122a8b102b18c2f9a6a79209d280e8c02c1",
      "blockNumber": 94702,
      "transactionIndex": 2,
      "confirmations": null,
      "from": "0xe6A7a1d47ff21B6321162AEA7C6CB457D5476Bca",
      "gasPrice": {
        "_hex": "0xdcd9ce70a"
      },
      "gasLimit": {
        "_hex": "0x55f0"
      },
      "to": "0x8263B7757b139904C7cD8511B3D0a6D1479848Ba",
      "value": {
        "_hex": "0x4fbc310e953d3188"
      },
      "nonce": 3004,
      "data": "0x",
      "r": "0xeca7cd3058d55ee8813728eef85023b63646679d3db35b04477de058182579ad",
      "s": "0x353bdf5a6ce727282a8c7aee9665552b4c8e1994323e8c3174484ef8d1c4e6ee",
      "v": 27,
      "creates": null,
      "raw": "0xf86e820bbc850dcd9ce70a8255f0948263b7757b139904c7cd8511b3d0a6d1479848ba884fbc310e953d3188801ba0eca7cd3058d55ee8813728eef85023b63646679d3db35b04477de058182579ada0353bdf5a6ce727282a8c7aee9665552b4c8e1994323e8c3174484ef8d1c4e6ee",
      "networkId": 0,
      "chainId": 0
    },
    {
      "hash": "0x0af78f7d133c3d0d2743827a502217b4e2634534f19ea527e34f1fb0c3d89448",
      "blockHash": "0x15c54faa0fe929724348a2cf2f4b0122a8b102b18c2f9a6a79209d280e8c02c1",
      "blockNumber": 94702,
      "transactionIndex": 3,
      "confirmations": null,
      "from": "0xe6A7a1d47ff21B6321162AEA7C6CB457D5476Bca",
      "gasPrice": {
        "_hex": "0xdcd9ce70a"
      },
      "gasLimit": {
        "_hex": "0x55f0"
      },
      "to": "0xB415e74b9b5B2058EF3541265aaF7ce09C4953bc",
      "value": {
        "_hex": "0x5ed9878ebbf41258"
      },
      "nonce": 3005,
      "data": "0x",
      "r": "0x885fc709d555d059383b44c2b88d02e2640803c5a2116cb19905b93e6f5cff3b",
      "s": "0x0b35ec500f4e2056cd60c9f209c571b345d323f508956d1bd204bede275dfcb5",
      "v": 28,
      "creates": null,
      "raw": "0xf86e820bbd850dcd9ce70a8255f094b415e74b9b5b2058ef3541265aaf7ce09c4953bc885ed9878ebbf41258801ca0885fc709d555d059383b44c2b88d02e2640803c5a2116cb19905b93e6f5cff3ba00b35ec500f4e2056cd60c9f209c571b345d323f508956d1bd204bede275dfcb5",
      "networkId": 0,
      "chainId": 0
    },
    {
      "hash": "0x790b808b61525253cea606d63aafffe2892e76e376888330bf8e113d6f3da793",
      "blockHash": "0x15c54faa0fe929724348a2cf2f4b0122a8b102b18c2f9a6a79209d280e8c02c1",
      "blockNumber": 94702,
      "transactionIndex": 4,
      "confirmations": null,
      "from": "0xe6A7a1d47ff21B6321162AEA7C6CB457D5476Bca",
      "gasPrice": {
        "_hex": "0xdcd9ce70a"
      },
      "gasLimit": {
        "_hex": "0x55f0"
      },
      "to": "0xE5cd922132641CF77d8a95dE3F3B335Ee6D54d71",
      "value": {
        "_hex": "0x66646de3ce43fce8"
      },
      "nonce": 3006,
      "data": "0x",
      "r": "0x05a8c80d5b644ec51c1749b67af24fe2f79f531a0586afc0c6cf2d840ebc0e2b",
      "s": "0x5fdb8dda2aa6af334cd41349269b7dd269f9b44febf6f2eb46e37a89c096dd29",
      "v": 27,
      "creates": null,
      "raw": "0xf86e820bbe850dcd9ce70a8255f094e5cd922132641cf77d8a95de3f3b335ee6d54d718866646de3ce43fce8801ba005a8c80d5b644ec51c1749b67af24fe2f79f531a0586afc0c6cf2d840ebc0e2ba05fdb8dda2aa6af334cd41349269b7dd269f9b44febf6f2eb46e37a89c096dd29",
      "networkId": 0,
      "chainId": 0
    },
    {
      "hash": "0x37d04cc0ede5623e1b909e3908079e4da9a5f31f20e4d17b6fe622284871df76",
      "blockHash": "0x15c54faa0fe929724348a2cf2f4b0122a8b102b18c2f9a6a79209d280e8c02c1",
      "blockNumber": 94702,
      "transactionIndex": 5,
      "confirmations": null,
      "from": "0xe6A7a1d47ff21B6321162AEA7C6CB457D5476Bca",
      "gasPrice": {
        "_hex": "0xdcd9ce70a"
      },
      "gasLimit": {
        "_hex": "0x55f0"
      },
      "to": "0xeD3Fe86896534C24D9F91232faE34b78DFf3c1f4",
      "value": {
        "_hex": "0x6ec70e9ff906ec98"
      },
      "nonce": 3007,
      "data": "0x",
      "r": "0x84d87014bc9402eaffd4f467b56bdce42a2e86794c3fea569af7d6bb303f9f34",
      "s": "0x73880610a7bc34088caaa3e2036fc8661f718d8a9f366a0adea3021c8fb0e1a4",
      "v": 28,
      "creates": null,
      "raw": "0xf86e820bbf850dcd9ce70a8255f094ed3fe86896534c24d9f91232fae34b78dff3c1f4886ec70e9ff906ec98801ca084d87014bc9402eaffd4f467b56bdce42a2e86794c3fea569af7d6bb303f9f34a073880610a7bc34088caaa3e2036fc8661f718d8a9f366a0adea3021c8fb0e1a4",
      "networkId": 0,
      "chainId": 0
    },
    {
      "hash": "0x4330079298c6cf505a40f70b00c4ab1be8c44f24155d9be8a5f99f364be633df",
      "blockHash": "0x15c54faa0fe929724348a2cf2f4b0122a8b102b18c2f9a6a79209d280e8c02c1",
      "blockNumber": 94702,
      "transactionIndex": 6,
      "confirmations": null,
      "from": "0xe6A7a1d47ff21B6321162AEA7C6CB457D5476Bca",
      "gasPrice": {
        "_hex": "0xdcd9ce70a"
      },
      "gasLimit": {
        "_hex": "0x55f0"
      },
      "to": "0xF161498A7f225A91C338015ca11833B3399393A8",
      "value": {
        "_hex": "0x736501fd774b5808"
      },
      "nonce": 3008,
      "data": "0x",
      "r": "0xaad4e70819f7f67eb75966d804074238339b9b4513d4c655ef9eab4947c98150",
      "s": "0x1a0091733a27dad56bed2968baa1dc43ef14054e3ffd0e8ac941844b2357d450",
      "v": 28,
      "creates": null,
      "raw": "0xf86e820bc0850dcd9ce70a8255f094f161498a7f225a91c338015ca11833b3399393a888736501fd774b5808801ca0aad4e70819f7f67eb75966d804074238339b9b4513d4c655ef9eab4947c98150a01a0091733a27dad56bed2968baa1dc43ef14054e3ffd0e8ac941844b2357d450",
      "networkId": 0,
      "chainId": 0
    },
    {
      "hash": "0xff9d1efe7d4dfa8f75ccf29a43dedbb31a0ea097b0e280f7c61b3ac59359f183",
      "blockHash": "0x15c54faa0fe929724348a2cf2f4b0122a8b102b18c2f9a6a79209d280e8c02c1",
      "blockNumber": 94702,
      "transactionIndex": 7,
      "confirmations": null,
      "from": "0xe6A7a1d47ff21B6321162AEA7C6CB457D5476Bca",
      "gasPrice": {
        "_hex": "0xdcd9ce70a"
      },
      "gasLimit": {
        "_hex": "0x55f0"
      },
      "to": "0x9A6eb0bBBE50281644D7a7839147F59819506Ac0",
      "value": {
        "_hex": "0x8785b1ab3d582760"
      },
      "nonce": 3009,
      "data": "0x",
      "r": "0x3abfd172beec13008e1d023aba98684eb593c5e6d62f44753ed31e45c2db85e1",
      "s": "0x299ca4a89e9ea8230fafd3dd7d06be47ec7a7fe96bfb14b25dd51b8951fc44df",
      "v": 28,
      "creates": null,
      "raw": "0xf86e820bc1850dcd9ce70a8255f0949a6eb0bbbe50281644d7a7839147f59819506ac0888785b1ab3d582760801ca03abfd172beec13008e1d023aba98684eb593c5e6d62f44753ed31e45c2db85e1a0299ca4a89e9ea8230fafd3dd7d06be47ec7a7fe96bfb14b25dd51b8951fc44df",
      "networkId": 0,
      "chainId": 0
    },
    {
      "hash": "0xa5c00552168369e8dd6025d67e2d519883aec7663f4a8556bcd283f9efb68cbc",
      "blockHash": "0x15c54faa0fe929724348a2cf2f4b0122a8b102b18c2f9a6a79209d280e8c02c1",
      "blockNumber": 94702,
      "transactionIndex": 8,
      "confirmations": null,
      "from": "0xe6A7a1d47ff21B6321162AEA7C6CB457D5476Bca",
      "gasPrice": {
        "_hex": "0xdcd9ce70a"
      },
      "gasLimit": {
        "_hex": "0x55f0"
      },
      "to": "0x610821723ac6726cBCec2037C83743dfbDADa663",
      "value": {
        "_hex": "0x904db166213a59a0"
      },
      "nonce": 3010,
      "data": "0x",
      "r": "0x841c089e97fe31f00a35c19ece2d2dadc27c01d38546e4681f4c33111868e1a3",
      "s": "0x1484a55e8a05ebf6add079254274118e12657812c488e72efa8da17743c6bdd1",
      "v": 27,
      "creates": null,
      "raw": "0xf86e820bc2850dcd9ce70a8255f094610821723ac6726cbcec2037c83743dfbdada66388904db166213a59a0801ba0841c089e97fe31f00a35c19ece2d2dadc27c01d38546e4681f4c33111868e1a3a01484a55e8a05ebf6add079254274118e12657812c488e72efa8da17743c6bdd1",
      "networkId": 0,
      "chainId": 0
    },
    {
      "hash": "0x7b575fbe308c85f4a9336c717deee67e4c69a9228828b884e9e4e3706e6ff88b",
      "blockHash": "0x15c54faa0fe929724348a2cf2f4b0122a8b102b18c2f9a6a79209d280e8c02c1",
      "blockNumber": 94702,
      "transactionIndex": 9,
      "confirmations": null,
      "from": "0xe6A7a1d47ff21B6321162AEA7C6CB457D5476Bca",
      "gasPrice": {
        "_hex": "0xdcd9ce70a"
      },
      "gasLimit": {
        "_hex": "0x55f0"
      },
      "to": "0x0959BFF932df2642345f8C3C8FBf0e1B94854311",
      "value": {
        "_hex": "0x9054b2422fe851d0"
      },
      "nonce": 3011,
      "data": "0x",
      "r": "0x58e26b60bb6fb91357894a6e391aaa7ba15bcc53b78b56a3c36c34221b8b8ffe",
      "s": "0x3754134427e0682c90af4833adbe8baac5d6da25f96b8620dce35702a36746e1",
      "v": 28,
      "creates": null,
      "raw": "0xf86e820bc3850dcd9ce70a8255f0940959bff932df2642345f8c3c8fbf0e1b94854311889054b2422fe851d0801ca058e26b60bb6fb91357894a6e391aaa7ba15bcc53b78b56a3c36c34221b8b8ffea03754134427e0682c90af4833adbe8baac5d6da25f96b8620dce35702a36746e1",
      "networkId": 0,
      "chainId": 0
    },
    {
      "hash": "0xb09dcdcc7c025b56df7ca02c554faf920b52e409cbc196ee3e78305a6bd17b15",
      "blockHash": "0x15c54faa0fe929724348a2cf2f4b0122a8b102b18c2f9a6a79209d280e8c02c1",
      "blockNumber": 94702,
      "transactionIndex": 10,
      "confirmations": null,
      "from": "0xe6A7a1d47ff21B6321162AEA7C6CB457D5476Bca",
      "gasPrice": {
        "_hex": "0xdcd9ce70a"
      },
      "gasLimit": {
        "_hex": "0x55f0"
      },
      "to": "0xAF654b2845616930f74573a909B477E23752DcA4",
      "value": {
        "_hex": "0x9d5eb0f5cab6fe50"
      },
      "nonce": 3012,
      "data": "0x",
      "r": "0x0f87e7359755521d2325cfc084bdd57bea78393f320246042c59b8fd1c9e2216",
      "s": "0x3317b0ce391cc0255f7618bc33d62853c58846a631bdb13e39201fcb9da495a6",
      "v": 28,
      "creates": null,
      "raw": "0xf86e820bc4850dcd9ce70a8255f094af654b2845616930f74573a909b477e23752dca4889d5eb0f5cab6fe50801ca00f87e7359755521d2325cfc084bdd57bea78393f320246042c59b8fd1c9e2216a03317b0ce391cc0255f7618bc33d62853c58846a631bdb13e39201fcb9da495a6",
      "networkId": 0,
      "chainId": 0
    },
    {
      "hash": "0x561c8c487df6a44643f20306231ba29f4e3d182faa08ead1e38c7387db064db8",
      "blockHash": "0x15c54faa0fe929724348a2cf2f4b0122a8b102b18c2f9a6a79209d280e8c02c1",
      "blockNumber": 94702,
      "transactionIndex": 11,
      "confirmations": null,
      "from": "0xe6A7a1d47ff21B6321162AEA7C6CB457D5476Bca",
      "gasPrice": {
        "_hex": "0xdcd9ce70a"
      },
      "gasLimit": {
        "_hex": "0x55f0"
      },
      "to": "0x2637e8641e6ef9C8951adf3E0c7058e76D766cbA",
      "value": {
        "_hex": "0xab3cf4d4317431b8"
      },
      "nonce": 3013,
      "data": "0x",
      "r": "0x377b0bcfeaec5bee3eb07d83b70a04687fdcccf628ebbb5b3e64cffe567d1702",
      "s": "0x0f96cb5b0137250fcaded99b4685878a2e2d0d03676fffa5f5a8298de7472e6e",
      "v": 28,
      "creates": null,
      "raw": "0xf86e820bc5850dcd9ce70a8255f0942637e8641e6ef9c8951adf3e0c7058e76d766cba88ab3cf4d4317431b8801ca0377b0bcfeaec5bee3eb07d83b70a04687fdcccf628ebbb5b3e64cffe567d1702a00f96cb5b0137250fcaded99b4685878a2e2d0d03676fffa5f5a8298de7472e6e",
      "networkId": 0,
      "chainId": 0
    },
    {
      "hash": "0x33311b3b31ffceadfdc6c0c037bff64606dca271dd7adda3674b207e9c02a17c",
      "blockHash": "0x15c54faa0fe929724348a2cf2f4b0122a8b102b18c2f9a6a79209d280e8c02c1",
      "blockNumber": 94702,
      "transactionIndex": 12,
      "confirmations": null,
      "from": "0xe6A7a1d47ff21B6321162AEA7C6CB457D5476Bca",
      "gasPrice": {
        "_hex": "0xdcd9ce70a"
      },
      "gasLimit": {
        "_hex": "0x55f0"
      },
      "to": "0x94b20d3d932AA82aD71b86b904A3D769689351b4",
      "value": {
        "_hex": "0xcf2b3d04b4ad9800"
      },
      "nonce": 3014,
      "data": "0x",
      "r": "0x92fdaad99e02b64821a3944aaa0cc2665e08b762bfb67ca7bb493faf1e687a7e",
      "s": "0x1b3b435833ea05d0d5023f1db59b957b7932325353f81bdacc00f86d8c4fdf48",
      "v": 27,
      "creates": null,
      "raw": "0xf86e820bc6850dcd9ce70a8255f09494b20d3d932aa82ad71b86b904a3d769689351b488cf2b3d04b4ad9800801ba092fdaad99e02b64821a3944aaa0cc2665e08b762bfb67ca7bb493faf1e687a7ea01b3b435833ea05d0d5023f1db59b957b7932325353f81bdacc00f86d8c4fdf48",
      "networkId": 0,
      "chainId": 0
    },
    {
      "hash": "0x3f1edd7dae9e7813d26cd64ac6677d012f6afb7aff16ac5d7241a80cca96f658",
      "blockHash": "0x15c54faa0fe929724348a2cf2f4b0122a8b102b18c2f9a6a79209d280e8c02c1",
      "blockNumber": 94702,
      "transactionIndex": 13,
      "confirmations": null,
      "from": "0xe6A7a1d47ff21B6321162AEA7C6CB457D5476Bca",
      "gasPrice": {
        "_hex": "0xdcd9ce70a"
      },
      "gasLimit": {
        "_hex": "0x55f0"
      },
      "to": "0xD99b25c518320820D3C5ae9f47378DA32dED5f00",
      "value": {
        "_hex": "0xfa291b1ba0f88f40"
      },
      "nonce": 3015,
      "data": "0x",
      "r": "0x7d8a1cd38c3b4b07907a33ab8f1a22bb30f0237a23d141c061f8bf68d336fcf0",
      "s": "0x49091a1edfa7f1586130d4e7eeb27fd704ea8ea2a44ff23d412374fc0c6ade7e",
      "v": 27,
      "creates": null,
      "raw": "0xf86e820bc7850dcd9ce70a8255f094d99b25c518320820d3c5ae9f47378da32ded5f0088fa291b1ba0f88f40801ba07d8a1cd38c3b4b07907a33ab8f1a22bb30f0237a23d141c061f8bf68d336fcf0a049091a1edfa7f1586130d4e7eeb27fd704ea8ea2a44ff23d412374fc0c6ade7e",
      "networkId": 0,
      "chainId": 0
    },
    {
      "hash": "0x8fdbe01bbd43c4fdac9b0d9c7bd2fbf0c955bd3781e3570186119ac191fe325e",
      "blockHash": "0x15c54faa0fe929724348a2cf2f4b0122a8b102b18c2f9a6a79209d280e8c02c1",
      "blockNumber": 94702,
      "transactionIndex": 14,
      "confirmations": null,
      "from": "0xe6A7a1d47ff21B6321162AEA7C6CB457D5476Bca",
      "gasPrice": {
        "_hex": "0xdcd9ce70a"
      },
      "gasLimit": {
        "_hex": "0x55f0"
      },
      "to": "0x271e8fC01E1C9E1621fD3d108e348450b2498541",
      "value": {
        "_hex": "0xfc87250e2c4f2688"
      },
      "nonce": 3016,
      "data": "0x",
      "r": "0x6ccc6b15423cf92c08b132b022c8492200099225bf2efc920c1cd39c4b566f44",
      "s": "0x5fa54003df0ab61782c5f28b3f1a051b00c78dbfeb0b10fa0a35a7b5dc137c49",
      "v": 27,
      "creates": null,
      "raw": "0xf86e820bc8850dcd9ce70a8255f094271e8fc01e1c9e1621fd3d108e348450b249854188fc87250e2c4f2688801ba06ccc6b15423cf92c08b132b022c8492200099225bf2efc920c1cd39c4b566f44a05fa54003df0ab61782c5f28b3f1a051b00c78dbfeb0b10fa0a35a7b5dc137c49",
      "networkId": 0,
      "chainId": 0
    },
    {
      "hash": "0xab98a08a9d83fb89f0d9c1d80c341d15bc8dcaa006966a7f347292b75c633999",
      "blockHash": "0x15c54faa0fe929724348a2cf2f4b0122a8b102b18c2f9a6a79209d280e8c02c1",
      "blockNumber": 94702,
      "transactionIndex": 15,
      "confirmations": null,
      "from": "0xe6A7a1d47ff21B6321162AEA7C6CB457D5476Bca",
      "gasPrice": {
        "_hex": "0xdcd9ce70a"
      },
      "gasLimit": {
        "_hex": "0x55f0"
      },
      "to": "0xf0c896DB24137eDA6Ec88cF1a95217F8604aE55e",
      "value": {
        "_hex": "0x17b92bbb212876740"
      },
      "nonce": 3017,
      "data": "0x",
      "r": "0x84795cb78c1d1cbfca013bb092901d44e01845f1a3c1d3a82ce829b76d3f9b00",
      "s": "0x7f310b035ff5b1319fc975290249795b955040a9d31e744d1543ee26d196d1bf",
      "v": 28,
      "creates": null,
      "raw": "0xf86f820bc9850dcd9ce70a8255f094f0c896db24137eda6ec88cf1a95217f8604ae55e89017b92bbb212876740801ca084795cb78c1d1cbfca013bb092901d44e01845f1a3c1d3a82ce829b76d3f9b00a07f310b035ff5b1319fc975290249795b955040a9d31e744d1543ee26d196d1bf",
      "networkId": 0,
      "chainId": 0
    },
    {
      "hash": "0xe20ed756ae0781ed7a4354acced834c0458450857407ea87e7b4cb1834f876be",
      "blockHash": "0x15c54faa0fe929724348a2cf2f4b0122a8b102b18c2f9a6a79209d280e8c02c1",
      "blockNumber": 94702,
      "transactionIndex": 16,
      "confirmations": null,
      "from": "0xe6A7a1d47ff21B6321162AEA7C6CB457D5476Bca",
      "gasPrice": {
        "_hex": "0xdcd9ce70a"
      },
      "gasLimit": {
        "_hex": "0x55f0"
      },
      "to": "0xc7704Fc5c51C7a5f1a6574b0014b58C8915BA55C",
      "value": {
        "_hex": "0x19893ce6f8daa1510"
      },
      "nonce": 3018,
      "data": "0x",
      "r": "0xd7e4fb47e69750b2530e703670412bf9577aa742de94a1f2212c6c6502374ab2",
      "s": "0x51bf656a2339a7a3dfd12989d6116392162bff9ec7a07f1f11602b7b4d73d20f",
      "v": 28,
      "creates": null,
      "raw": "0xf86f820bca850dcd9ce70a8255f094c7704fc5c51c7a5f1a6574b0014b58c8915ba55c89019893ce6f8daa1510801ca0d7e4fb47e69750b2530e703670412bf9577aa742de94a1f2212c6c6502374ab2a051bf656a2339a7a3dfd12989d6116392162bff9ec7a07f1f11602b7b4d73d20f",
      "networkId": 0,
      "chainId": 0
    },
    {
      "hash": "0xdd37d44aeb8cbd1a862957965d195f2ae2763ee1e8dcb67f84223851c7896c31",
      "blockHash": "0x15c54faa0fe929724348a2cf2f4b0122a8b102b18c2f9a6a79209d280e8c02c1",
      "blockNumber": 94702,
      "transactionIndex": 17,
      "confirmations": null,
      "from": "0xe6A7a1d47ff21B6321162AEA7C6CB457D5476Bca",
      "gasPrice": {
        "_hex": "0xdcd9ce70a"
      },
      "gasLimit": {
        "_hex": "0x55f0"
      },
      "to": "0x10a3287DC19D160c0EF7dAE4e51670b0394ef951",
      "value": {
        "_hex": "0x1b5a62588f325fd10"
      },
      "nonce": 3019,
      "data": "0x",
      "r": "0xb9ade0d86b620051aa6d19ee47db3b94645485772fed8098fd1a449f97062292",
      "s": "0x7d1b9f9fc52b4fa647b00600d96379b400b0b6a7b7f2396dc01a6a0e2963a6d2",
      "v": 27,
      "creates": null,
      "raw": "0xf86f820bcb850dcd9ce70a8255f09410a3287dc19d160c0ef7dae4e51670b0394ef9518901b5a62588f325fd10801ba0b9ade0d86b620051aa6d19ee47db3b94645485772fed8098fd1a449f97062292a07d1b9f9fc52b4fa647b00600d96379b400b0b6a7b7f2396dc01a6a0e2963a6d2",
      "networkId": 0,
      "chainId": 0
    },
    {
      "hash": "0x7b84ebd8d0d69a8208f82d9ceeed6b40b095664296ac058bb5bd7f4e9c7e8913",
      "blockHash": "0x15c54faa0fe929724348a2cf2f4b0122a8b102b18c2f9a6a79209d280e8c02c1",
      "blockNumber": 94702,
      "transactionIndex": 18,
      "confirmations": null,
      "from": "0xe6A7a1d47ff21B6321162AEA7C6CB457D5476Bca",
      "gasPrice": {
        "_hex": "0xdcd9ce70a"
      },
      "gasLimit": {
        "_hex": "0x55f0"
      },
      "to": "0xa70a9a7040d542C632D8e0bE7c5513A8a5Bbc752",
      "value": {
        "_hex": "0x1fb7ed31202da2100"
      },
      "nonce": 3020,
      "data": "0x",
      "r": "0x5ad312906c58413ab8b7f189a66d5d392576b82f29b8324be90954f28c4b2890",
      "s": "0x0bc984ba42702c85cebe6c975a39e1227719bb6631845ecad83c632a86dce815",
      "v": 27,
      "creates": null,
      "raw": "0xf86f820bcc850dcd9ce70a8255f094a70a9a7040d542c632d8e0be7c5513a8a5bbc7528901fb7ed31202da2100801ba05ad312906c58413ab8b7f189a66d5d392576b82f29b8324be90954f28c4b2890a00bc984ba42702c85cebe6c975a39e1227719bb6631845ecad83c632a86dce815",
      "networkId": 0,
      "chainId": 0
    },
    {
      "hash": "0x7913b42e4958b13fdc7ce03dda507234a4489389c8221235667c83c1d1ac0ee7",
      "blockHash": "0x15c54faa0fe929724348a2cf2f4b0122a8b102b18c2f9a6a79209d280e8c02c1",
      "blockNumber": 94702,
      "transactionIndex": 19,
      "confirmations": null,
      "from": "0xe6A7a1d47ff21B6321162AEA7C6CB457D5476Bca",
      "gasPrice": {
        "_hex": "0xdcd9ce70a"
      },
      "gasLimit": {
        "_hex": "0x55f0"
      },
      "to": "0x2c640E5e3DE20DECa76ee10c5Fd6ECd074EFb3e8",
      "value": {
        "_hex": "0x256f45dd4e5b1a3e0"
      },
      "nonce": 3021,
      "data": "0x",
      "r": "0x9adf2be352f5c175526bfc43bce032b327ead1465a9a1c190d66d86eed28d203",
      "s": "0x5610a4310fd039b046b1720755680c36885554656abdb54f0da82694d9306680",
      "v": 28,
      "creates": null,
      "raw": "0xf86f820bcd850dcd9ce70a8255f0942c640e5e3de20deca76ee10c5fd6ecd074efb3e8890256f45dd4e5b1a3e0801ca09adf2be352f5c175526bfc43bce032b327ead1465a9a1c190d66d86eed28d203a05610a4310fd039b046b1720755680c36885554656abdb54f0da82694d9306680",
      "networkId": 0,
      "chainId": 0
    },
    {
      "hash": "0x7bb9a5438b71b1612ca914b40e820045af10a41dedf056579009c478ce6ac14d",
      "blockHash": "0x15c54faa0fe929724348a2cf2f4b0122a8b102b18c2f9a6a79209d280e8c02c1",
      "blockNumber": 94702,
      "transactionIndex": 20,
      "confirmations": null,
      "from": "0xe6A7a1d47ff21B6321162AEA7C6CB457D5476Bca",
      "gasPrice": {
        "_hex": "0xdcd9ce70a"
      },
      "gasLimit": {
        "_hex": "0x55f0"
      },
      "to": "0x8b687892C6Cf88925ddD772718782A864e5353Df",
      "value": {
        "_hex": "0x3104e4a6cd68644a0"
      },
      "nonce": 3022,
      "data": "0x",
      "r": "0xaa01c68a6e73239b035a1c03c3d80980aec6c077c0d67fd452537f0b6e4b2986",
      "s": "0x7f3225f80f01219283278ff49111c2056be866ebfe9ab6ce09b6819f2f6c3b40",
      "v": 28,
      "creates": null,
      "raw": "0xf86f820bce850dcd9ce70a8255f0948b687892c6cf88925ddd772718782a864e5353df8903104e4a6cd68644a0801ca0aa01c68a6e73239b035a1c03c3d80980aec6c077c0d67fd452537f0b6e4b2986a07f3225f80f01219283278ff49111c2056be866ebfe9ab6ce09b6819f2f6c3b40",
      "networkId": 0,
      "chainId": 0
    },
    {
      "hash": "0x011f5497a59aaf2aa5c7601af25947fb20d40a3b97a4490d8ee60b5bad66cb54",
      "blockHash": "0x15c54faa0fe929724348a2cf2f4b0122a8b102b18c2f9a6a79209d280e8c02c1",
      "blockNumber": 94702,
      "transactionIndex": 21,
      "confirmations": null,
      "from": "0x0d62E666D681E8Be96903Ac4aBD3537f28c6125A",
      "gasPrice": {
        "_hex": "0xcf4280874"
      },
      "gasLimit": {
        "_hex": "0x5208"
      },
      "to": "0x32Be343B94f860124dC4fEe278FDCBD38C102D88",
      "value": {
        "_hex": "0x5601c9d9e96f8800"
      },
      "nonce": 4,
      "data": "0x",
      "r": "0x660e109006395751262488cafbaa6460bd4ada3e2f1201a8c76bcbe5c5e7fc26",
      "s": "0x425ca4dfd2c651421263e578d02269964f4d1d2161dc1c4b54e6008950ed71b8",
      "v": 28,
      "creates": null,
      "raw": "0xf86c04850cf42808748252089432be343b94f860124dc4fee278fdcbd38c102d88885601c9d9e96f8800801ca0660e109006395751262488cafbaa6460bd4ada3e2f1201a8c76bcbe5c5e7fc26a0425ca4dfd2c651421263e578d02269964f4d1d2161dc1c4b54e6008950ed71b8",
      "networkId": 0,
      "chainId": 0
    },
    {
      "hash": "0xf2c577962d84cadf9532b40c7b32743e4aa2a4e01415d06aa3e6ff6497965fc4",
      "blockHash": "0x15c54faa0fe929724348a2cf2f4b0122a8b102b18c2f9a6a79209d280e8c02c1",
      "blockNumber": 94702,
      "transactionIndex": 22,
      "confirmations": null,
      "from": "0x60781265e9850f54AE0Bc9545948d05DeE6FC3e3",
      "gasPrice": {
        "_hex": "0xcd5fab712"
      },
      "gasLimit": {
        "_hex": "0x5208"
      },
      "to": "0x32Be343B94f860124dC4fEe278FDCBD38C102D88",
      "value": {
        "_hex": "0x844092ac3eb44000"
      },
      "nonce": 7,
      "data": "0x",
      "r": "0x9af4764aef8bdc2c1b42a547eb4a476d21f1f76cd34d67d5f301915f8f05e10f",
      "s": "0x25dab46fcf34359f77037b20a94ba42b51e4155dac623a6a305ecd0a5e24a4d9",
      "v": 28,
      "creates": null,
      "raw": "0xf86c07850cd5fab7128252089432be343b94f860124dc4fee278fdcbd38c102d8888844092ac3eb44000801ca09af4764aef8bdc2c1b42a547eb4a476d21f1f76cd34d67d5f301915f8f05e10fa025dab46fcf34359f77037b20a94ba42b51e4155dac623a6a305ecd0a5e24a4d9",
      "networkId": 0,
      "chainId": 0
    }
  ]
}