{
  "hash": "0xd21ce4baecbea5115d543d2b4b5a34ed7832b867755739bf92e222eaee8d45e6",
  "parentHash": "0xdf39b047a1c01c224a243afd87a16f01af4948d82b070d8dcb8e54433034b42b",
  "number": 71062,
  "timestamp": 1439329834,
  "nonce": "0x1c776585df819e28",
  "difficulty": 2154063046556,
  "gasLimit": {
    "_hex": "0x2fefd8"
  },
  "gasUsed": {
    "_hex": "0x5208"
  },
  "miner": "0x70137010922f2fC2964b3792907F79FBB75fEbe8",
  "extraData": "0x476574682f76312e302e302f6c696e75782f676f312e342e32",
  "transactions": [
    {
      "hash": "0x3785ccc308ac9cdc8ddd3b5939c23fa1321b441201890892c03d2d228ed22491",
      "blockHash": "0xd21ce4baecbea5115d543d2b4b5a34ed7832b867755739bf92e222eaee8d45e6",
      "blockNumber": 71062,
      "transactionIndex": 0,
      "confirmations": null,
      "from": "0xB57a69A9cFD1BC39510a70Ab14De3BDa11d1dF70",
      "gasPrice": {
        "_hex": "0xe1481e9f7"
      },
      "gasLimit": {
        "_hex": "0x15f90"
      },
      "to": "0x197D8Ac346334Cf05e98ABd8f8c886Af37F6D274",
      "value": {
        "_hex": "0x38d7ea4c68000"
      },
      "nonce": 3,
      "data": "0x",
      "r": "0xc024ac8830c7c76f644a6b528c722ee5479d820993b61fdcb0a06099862d6a06",
      "s": "0x10d9484658ba152d3e629048dfb9b848976907bb323fd0adf983905f889a77b3",
      "v": 28,
      "creates": null,
      "raw": "0xf86c03850e1481e9f783015f9094197d8ac346334cf05e98abd8f8c886af37f6d27487038d7ea4c68000801ca0c024ac8830c7c76f644a6b528c722ee5479d820993b61fdcb0a06099862d6a06a010d9484658ba152d3e629048dfb9b848976907bb323fd0adf983905f889a77b3",
      "networkId": 0,
      "chainId": 0
    }
  ]
}