{
  "hash": "0x3108dad4ac3cb5dfed4772008ec7728f82d75bbcc7ebb75927578d6d9f9ecbe9",
  "parentHash": "0x7cef669e91670827974831e2f12991c0036d037b34ad02396f9e91de47a827bd",
  "number": 71082,
  "timestamp": 1439330365,
  "nonce": "0x99c469f2fac017fc",
  "difficulty": 2151955365331,
  "gasLimit": {
    "_hex": "0x2fefd8"
  },
  "gasUsed": {
    "_hex": "0x5208"
  },
  "miner": "0x108b54b7E3c09F8127CB8B28ffA3AD4001b32998",
  "extraData": "0x476574682f76312e302e312d38326566323666362f6c696e75782f676f312e34",
  "transactions": [
    {
      "hash": "0x6397922917086915da9ed21470e47f965cf2eb6d145f352be10f57e5d744fbfb",
      "blockHash": "0x3108dad4ac3cb5dfed4772008ec7728f82d75bbcc7ebb75927578d6d9f9ecbe9",
      "blockNumber": 71082,
      "transactionIndex": 0,
      "confirmations": null,
      "from": "0x481FBF5Ed8E1bC51d277dB7D8F51d95b758F05ED",
      "gasPrice": {
        "_hex": "0xba43b7400"
      },
      "gasLimit": {
        "_hex": "0x5265"
      },
      "to": "0x014e478251F22a79fA7014f285647d91462A9669",
      "value": {
        "_hex": "0x6124fee993bc0000"
      },
      "nonce": 0,
      "data": "0x",
      "r": "0x25e8a62f7715ce0fe026a22a40c2b3a7309c00c3c984812c4c6a4bf2dee99811",
      "s": "0xb1b86fa6b2393f5471fecfbc72cc904c8a6bb2ff640a995d5e16fdabf6c42863",
      "v": 28,
      "creates": null,
      "raw": "0xf86c80850ba43b740082526594014e478251f22a79fa7014f285647d91462a9669886124fee993bc0000801ca025e8a62f7715ce0fe026a22a40c2b3a7309c00c3c984812c4c6a4bf2dee99811a0b1b86fa6b2393f5471fecfbc72cc904c8a6bb2ff640a995d5e16fdabf6c42863",
      "networkId": 0,
      "chainId": 0
    }
  ]
}