{
  "hash": "0x48467002b7ab83d7e37dd44fe2e72b842aa5733aefd3961e6fad1fc02822d29a",
  "parentHash": "0xda06608748bf94a418055d7ae52682ebd87a55c1325541c51e7e9b89675884bc",
  "number": 46690,
  "timestamp": 1438927448,
  "nonce": "0xfd3a5e09f1703e9f",
  "difficulty": 1461752686783,
  "gasLimit": {
    "_hex": "0x71b7"
  },
  "gasUsed": {
    "_hex": "0x5208"
  },
  "miner": "0x9746c7e1ef2bd21FF3997fa467593a89cb852BD0",
  "extraData": "0x476574682f76312e302e312f77696e646f77732f676f312e342e32",
  "transactions": [
    {
      "hash": "0x37900a003b8efb860a9b4be5ad84a8ecf5677a6cbb53196d9c91216e5ad71b8a",
      "blockHash": "0x48467002b7ab83d7e37dd44fe2e72b842aa5733aefd3961e6fad1fc02822d29a",
      "blockNumber": 46690,
      "transactionIndex": 0,
      "confirmations": null,
      "from": "0xDB0CC78f74d9827bdc8A6473276eB84Fdc976212",
      "gasPrice": {
        "_hex": "0x10f2874a5c2"
      },
      "gasLimit": {
        "_hex": "0x5208"
      },
      "to": "0xc48F021f2Eff67461bF802F15420B0A08FF158DA",
      "value": {
        "_hex": "0xfb59d73536d0000"
      },
      "nonce": 3,
      "data": "0x",
      "r": "0x07e6c46d7851395553b7fe507bfe142220ffc5f92420301ddd323259f4633d53",
      "s": "0x322fe9e2583a39ba5b473817237d13a9ab5fd71781e1c5d816f2362a4476a21b",
      "v": 27,
      "creates": null,
      "raw": "0xf86d0386010f2874a5c282520894c48f021f2eff67461bf802f15420b0a08ff158da880fb59d73536d0000801ba007e6c46d7851395553b7fe507bfe142220ffc5f92420301ddd323259f4633d53a0322fe9e2583a39ba5b473817237d13a9ab5fd71781e1c5d816f2362a4476a21b",
      "networkId": 0,
      "chainId": 0
    }
  ]
}