{
  "hash": "0x9defa8bbd18e49395980708df1a1e18ffa48a401dfbee6a2169cf51a9c784250",
  "parentHash": "0x67ac8832d55c1c9320306bc0f38f72ca18ecf71e64109be7d112e7c2ac5d5576",
  "number": 77465,
  "timestamp": 1439437744,
  "nonce": "0x707ec9aecbe6b36e",
  "difficulty": 2237069549256,
  "gasLimit": {
    "_hex": "0x2fefd8"
  },
  "gasUsed": {
    "_hex": "0xa410"
  },
  "miner": "0x88C96e25787Fd9e2746F7Ce708f2285eCC16348f",
  "extraData": "0x476574682f76312e302e312f77696e646f77732f676f312e342e32",
  "transactions": [
    {
      "hash": "0x1ab4325140570e2e59efcc37144a887f86896435140d088e2bf158896a73c34a",
      "blockHash": "0x9defa8bbd18e49395980708df1a1e18ffa48a401dfbee6a2169cf51a9c784250",
      "blockNumber": 77465,
      "transactionIndex": 0,
      "confirmations": null,
      "from": "0x32Be343B94f860124dC4fEe278FDCBD38C102D88",
      "gasPrice": {
        "_hex": "0xe0a9b5c38"
      },
      "gasLimit": {
        "_hex": "0x5208"
      },
      "to": "0x5170535271F5B9eC438c0447b3daD67b3E2633f2",
      "value": {
        "_hex": "0x1d012bed3c910000"
      },
      "nonce": 364,
      "data": "0x",
      "r": "0x7fe250292fb80a02129277abe7586aec3f131bb01100230a450fb8a4b7960af4",
      "s": "0x34ce8271eff70df40ad3e60d75bbf56af9d306a54814cb064afe482345cfb84e",
      "v": 27,
      "creates": null,
      "raw": "0xf86e82016c850e0a9b5c38825208945170535271f5b9ec438c0447b3dad67b3e2633f2881d012bed3c910000801ba07fe250292fb80a02129277abe7586aec3f131bb01100230a450fb8a4b7960af4a034ce8271eff70df40ad3e60d75bbf56af9d306a54814cb064afe482345cfb84e",
      "networkId": 0,
      "chainId": 0
    },
    {
      "hash": "0x76ed4fd5cb22cc8690002d7724bf21c07acaa4c3c4a544e8c2c34f0531f4be03",
      "blockHash": "0x9defa8bbd18e49395980708df1a1e18ffa48a401dfbee6a2169cf51a9c784250",
      "blockNumber": 77465,
      "transactionIndex": 1,
      "confirmations": null,
      "from": "0x32Be343B94f860124dC4fEe278FDCBD38C102D88",
      "gasPrice": {
        "_hex": "0xe0a9b5c38"
      },
      "gasLimit": {
        "_hex": "0x5208"
      },
      "to": "0x20D0899381bA0B4167AC723f55Dc8924180B5523",
      "value": {
        "_hex": "0x17444c6c757d6c00"
      },
      "nonce": 365,
      "data": "0x",
      "r": "0x8d8128b8295f42f9d5f63feafcc66670d59203af1882620725479943f4c5e3b1",
      "s": "0x178474171aec63b9698939ca375a2e79820ceb8788177c8dee5c6559fc5f3461",
      "v": 27,
      "creates": null,
      "raw": "0xf86e82016d850e0a9b5c388252089420d0899381ba0b4167ac723f55dc8924180b55238817444c6c757d6c00801ba08d8128b8295f42f9d5f63feafcc66670d59203af1882620725479943f4c5e3b1a0178474171aec63b9698939ca375a2e79820ceb8788177c8dee5c6559fc5f3461",
      "networkId": 0,
      "chainId": 0
    }
  ]
}