{
  "hash": "0x38c9ec3c36d125a82a2bf1493353eb2094e5048aa81cff43321ad3aafa00a4a6",
  "parentHash": "0xf6e79f4aa0c5861cf3e32bab42882c83d5c1757eded184ce6694286ab83649d6",
  "number": 76803,
  "timestamp": 1439426476,
  "nonce": "0xbb10316600f0d4e4",
  "difficulty": 2237246098062,
  "gasLimit": {
    "_hex": "0x2fefd8"
  },
  "gasUsed": {
    "_hex": "0xad77"
  },
  "miner": "0x0037ce3d4B7f8729C8607D8D0248252Be68202c0",
  "extraData": "0x476574682f76312e302e312f77696e646f77732f676f312e342e32",
  "transactions": [
    {
      "hash": "0x554261fe8f2ad29dc1dfa14701b0114d06a1486308501389cedad0ea7480099e",
      "blockHash": "0x38c9ec3c36d125a82a2bf1493353eb2094e5048aa81cff43321ad3aafa00a4a6",
      "blockNumber": 76803,
      "transactionIndex": 0,
      "confirmations": null,
      "from": "0x87C5B5874A18B4306DF8a752a6C8cc3E82daFc19",
      "gasPrice": {
        "_hex": "0x10a73032bfc"
      },
      "gasLimit": {
        "_hex": "0x493e0"
      },
      "to": "0xD79B4C6791784184e2755B2fC1659eaaB0f80456",
      "value": {
        "_hex": "0x0"
      },
      "nonce": 88,
      "data": "0x03750d940000000000000000000000008be84a3adfbc51c59023b2413766e229108c35de3566633738653961663835643739393000000000000000000000000000000000",
      "r": "0x1b77eae0801da280f2228f3a58a99bc44f4816abf8f9553235800b5de3a75178",
      "s": "0x7908662dae11f456f8df09d76f526bdee0d12c18edcc454ee18636badaf477c9",
      "v": 27,
      "creates": null,
      "raw": "0xf8ab5886010a73032bfc830493e094d79b4c6791784184e2755b2fc1659eaab0f8045680b84403750d940000000000000000000000008be84a3adfbc51c59023b2413766e229108c35de35666337386539616638356437393930000000000000000000000000000000001ba01b77eae0801da280f2228f3a58a99bc44f4816abf8f9553235800b5de3a75178a07908662dae11f456f8df09d76f526bdee0d12c18edcc454ee18636badaf477c9",
      "networkId": 0,
      "chainId": 0
    }
  ]
}