{
  "hash": "0x804f218a8f00b314d9a65ed9e9413578df0607fc006b1769358700cd98e90cc0",
  "parentHash": "0x8c98a2b0a68892d50f673711a0dc405c8ef014ac56f71467c91fd81d5748b72f",
  "number": 99043,
  "timestamp": 1439783284,
  "nonce": "0xd38f18980ca7acf2",
  "difficulty": 3825376970196,
  "gasLimit": {
    "_hex": "0x2fefd8"
  },
  "gasUsed": {
    "_hex": "0x5208"
  },
  "miner": "0x007f7f58D3eb5b7510A301eCC749FC1fCDDBE14D",
  "extraData": "0x476574682f76312e302e312f77696e646f77732f676f312e342e32",
  "transactions": [
    {
      "hash": "0xef5cebc64a253451ca9b69c0eead8584df8cc8f89e9dd209329021fdb8465169",
      "blockHash": "0x804f218a8f00b314d9a65ed9e9413578df0607fc006b1769358700cd98e90cc0",
      "blockNumber": 99043,
      "transactionIndex": 0,
      "confirmations": null,
      "from": "0xEeEF7b645016C97Fa22E2B9FA68008c0F7a8E825",
      "gasPrice": {
        "_hex": "0xdbd68a52f"
      },
      "gasLimit": {
        "_hex": "0x5208"
      },
      "to": "0x32Be343B94f860124dC4fEe278FDCBD38C102D88",
      "value": {
        "_hex": "0xdfb107eaa01220000"
      },
      "nonce": 2,
      "data": "0x",
      "r": "0xe38cad6d42c47ef904b9d2ff61c3a66a674e0f36ea582894a08fba63920e6098",
      "s": "0x5e9c1cd8c7afdd42529701885c2fcbe9231936ff0b942f6ce6a3ca35cdcd72f5",
      "v": 28,
      "creates": null,
      "raw": "0xf86d02850dbd68a52f8252089432be343b94f860124dc4fee278fdcbd38c102d88890dfb107eaa01220000801ca0e38cad6d42c47ef904b9d2ff61c3a66a674e0f36ea582894a08fba63920e6098a05e9c1cd8c7afdd42529701885c2fcbe9231936ff0b942f6ce6a3ca35cdcd72f5",
      "networkId": 0,
      "chainId": 0
    }
  ]
}