{
  "hash": "0x86cbaf695aef3ff963eae412f5db8db9fa4525ae0fa5c28c838f896e1f6ab34b",
  "parentHash": "0x29009baeb14aa2ebe9a1e7f40e23535c83506f8d1ac09ae23a5d967d191daac8",
  "number": 99185,
  "timestamp": 1439785862,
  "nonce": "0xc4807683554527ab",
  "difficulty": 3799251793734,
  "gasLimit": {
    "_hex": "0x2fefd8"
  },
  "gasUsed": {
    "_hex": "0xa410"
  },
  "miner": "0x35e8e5dC5FBd97c5b421A80B596C030a2Be2A04D",
  "extraData": "0x476574682f76312e302e312f6c696e75782f676f312e342e32",
  "transactions": [
    {
      "hash": "0x6575b4c778af15894bb9c4ab0b917307c6d4d09fe7640743c701b2bb4319d042",
      "blockHash": "0x86cbaf695aef3ff963eae412f5db8db9fa4525ae0fa5c28c838f896e1f6ab34b",
      "blockNumber": 99185,
      "transactionIndex": 0,
      "confirmations": null,
      "from": "0x8F79f76381Aad7B98C19aF55eE75fdfEeb012211",
      "gasPrice": {
        "_hex": "0xcd9cd1560"
      },
      "gasLimit": {
        "_hex": "0x5208"
      },
      "to": "0x32Be343B94f860124dC4fEe278FDCBD38C102D88",
      "value": {
        "_hex": "0x340a6b3f037d16000"
      },
      "nonce": 37,
      "data": "0x",
      "r": "0xbb0d33852767878783ca88f12a83065d7f554a11fc9efee1d90a87c5238eb2e0",
      "s": "0x059aa971e282f267cb77d4995d92d52e802c50d494e7313721e810dac32f481b",
      "v": 27,
      "creates": null,
      "raw": "0xf86d25850cd9cd15608252089432be343b94f860124dc4fee278fdcbd38c102d88890340a6b3f037d16000801ba0bb0d33852767878783ca88f12a83065d7f554a11fc9efee1d90a87c5238eb2e0a0059aa971e282f267cb77d4995d92d52e802c50d494e7313721e810dac32f481b",
      "networkId": 0,
      "chainId": 0
    },
    {
      "hash": "0xc5778edbb7431d3543c735ad22c0bd1d27b59fb1e0b4cc7109a81b8ade39f17e",
      "blockHash": "0x86cbaf695aef3ff963eae412f5db8db9fa4525ae0fa5c28c838f896e1f6ab34b",
      "blockNumber": 99185,
      "transactionIndex": 1,
      "confirmations": null,
      "from": "0xa6BDc31c431B8F97848c9D60cbbe9660dc450eB7",
      "gasPrice": {
        "_hex": "0xcd9cd1560"
      },
      "gasLimit": {
        "_hex": "0x5208"
      },
      "to": "0x32Be343B94f860124dC4fEe278FDCBD38C102D88",
      "value": {
        "_hex": "0x455f735741555400"
      },
      "nonce": 144,
      "data": "0x",
      "r": "0x0a68394d5a190e2b840e682861841e1576c3a78bb3e220da00cd5232140a8246",
      "s": "0x23b4ce6dbab27c99fef958485963431479d60952c916557eca90db1836faf2fd",
      "v": 28,
      "creates": null,
      "raw": "0xf86d8190850cd9cd15608252089432be343b94f860124dc4fee278fdcbd38c102d8888455f735741555400801ca00a68394d5a190e2b840e682861841e1576c3a78bb3e220da00cd5232140a8246a023b4ce6dbab27c99fef958485963431479d60952c916557eca90db1836faf2fd",
      "networkId": 0,
      "chainId": 0
    }
  ]
}