{
  "hash": "0xe82e22f449487437bbf647aeddd37071e8dae48363b52ab257d32b08f297d2d5",
  "parentHash": "0xde46cd46ef0d0900cfc2957523cc5defeb728da4585f847c8d73ea65d6827050",
  "number": 121945,
  "timestamp": 1440185283,
  "nonce": "0x03ef6ffdb2f59d5b",
  "difficulty": 4481956682321,
  "gasLimit": {
    "_hex": "0x2fefd8"
  },
  "gasUsed": {
    "_hex": "0xa410"
  },
  "miner": "0x52bc44d5378309EE2abF1539BF71dE1b7d7bE3b5",
  "extraData": "0xd783010002844765746887676f312e342e32856c696e7578",
  "transactions": [
    {
      "hash": "0x7984f82036cca8eef3c4b2ccb25ca02e3664839ea532d762b08b5ff7f339f513",
      "blockHash": "0xe82e22f449487437bbf647aeddd37071e8dae48363b52ab257d32b08f297d2d5",
      "blockNumber": 121945,
      "transactionIndex": 0,
      "confirmations": null,
      "from": "0xe6A7a1d47ff21B6321162AEA7C6CB457D5476Bca",
      "gasPrice": {
        "_hex": "0xba43b7400"
      },
      "gasLimit": {
        "_hex": "0x55f0"
      },
      "to": "0xf79785E5a846aCea08F94379fCCe79B1054bDB99",
      "value": {
        "_hex": "0x6f60d7e0f9780758"
      },
      "nonce": 6790,
      "data": "0x",
      "r": "0x30e46ae57257b4104f31199230bfa5bcdd92ddb37496c0628d8014b20e7757ba",
      "s": "0x748a107ba85abaa8475c2154c30ea057578815ae27b26e1ca1616d70be7f2c95",
      "v": 28,
      "creates": null,
      "raw": "0xf86e821a86850ba43b74008255f094f79785e5a846acea08f94379fcce79b1054bdb99886f60d7e0f9780758801ca030e46ae57257b4104f31199230bfa5bcdd92ddb37496c0628d8014b20e7757baa0748a107ba85abaa8475c2154c30ea057578815ae27b26e1ca1616d70be7f2c95",
      "networkId": 0,
      "chainId": 0
    },
    {
      "hash": "0x2f4f0a4ca8b461a4f8ebc2996a88aa294a5f35b374e932c28651ba219ab88f90",
      "blockHash": "0xe82e22f449487437bbf647aeddd37071e8dae48363b52ab257d32b08f297d2d5",
      "blockNumber": 121945,
      "transactionIndex": 1,
      "confirmations": null,
      "from": "0xe6A7a1d47ff21B6321162AEA7C6CB457D5476Bca",
      "gasPrice": {
        "_hex": "0xba43b7400"
      },
      "gasLimit": {
        "_hex": "0x55f0"
      },
      "to": "0x13258A1Aa418C990ce59616C26338A44899d854c",
      "value": {
        "_hex": "0x7eb38e048ff346d0"
      },
      "nonce": 6791,
      "data": "0x",
      "r": "0x93dba5a92142995dfda83cb7df7e55b728cbdc42071f10e4ac24befceb616996",
      "s": "0x6d104e79a953a0945ecfe6928e985ed11cef83c1886b3e8b181bf14ea38fdf04",
      "v": 28,
      "creates": null,
      "raw": "0xf86e821a87850ba43b74008255f09413258a1aa418c990ce59616c26338a44899d854c887eb38e048ff346d0801ca093dba5a92142995dfda83cb7df7e55b728cbdc42071f10e4ac24befceb616996a06d104e79a953a0945ecfe6928e985ed11cef83c1886b3e8b181bf14ea38fdf04",
      "networkId": 0,
      "chainId": 0
    }
  ]
}