{
  "hash": "0x76c38e661a57ad7f18087dfb7396deb5d5f6cddc9b32ad8c1f41dcf2210ae8da",
  "parentHash": "0x759d6348d9044e1d000c2f700cd134324b276d82cbcac736c6840c587db3ac45",
  "number": 107404,
  "timestamp": 1439921873,
  "nonce": "0xf78e024b717ca811",
  "difficulty": 4400743923562,
  "gasLimit": {
    "_hex": "0x2fefd8"
  },
  "gasUsed": {
    "_hex": "0x5208"
  },
  "miner": "0x8B454d830feF179e66206840F8F3D1d83bC32b17",
  "extraData": "0x476574682f76312e302e312f77696e646f77732f676f312e342e32",
  "transactions": [
    {
      "hash": "0x2d251fcb1ebf90e03864d208ca7a17c85834a75af027556b2721e2565dbeb085",
      "blockHash": "0x76c38e661a57ad7f18087dfb7396deb5d5f6cddc9b32ad8c1f41dcf2210ae8da",
      "blockNumber": 107404,
      "transactionIndex": 0,
      "confirmations": null,
      "from": "0x32Be343B94f860124dC4fEe278FDCBD38C102D88",
      "gasPrice": {
        "_hex": "0xce2186cdf"
      },
      "gasLimit": {
        "_hex": "0x5208"
      },
      "to": "0xDA5267162705245776DCF808807175DCC208D13e",
      "value": {
        "_hex": "0xbecf97b716a2f0000"
      },
      "nonce": 1215,
      "data": "0x",
      "r": "0xcd9075c4b708615d29cecc345d349ec783c222bb0c5571fc0b94b9b5c78a18d4",
      "s": "0x3c9e091fe9f4fa951eb32662e2a11ddd50b4cf5336f33fd7d2813609167bf8e9",
      "v": 28,
      "creates": null,
      "raw": "0xf86f8204bf850ce2186cdf82520894da5267162705245776dcf808807175dcc208d13e890becf97b716a2f0000801ca0cd9075c4b708615d29cecc345d349ec783c222bb0c5571fc0b94b9b5c78a18d4a03c9e091fe9f4fa951eb32662e2a11ddd50b4cf5336f33fd7d2813609167bf8e9",
      "networkId": 0,
      "chainId": 0
    }
  ]
}