{
  "hash": "0x72c75acd47e0138a4b594fda16a6e15a122238e65649e6895b835be640d193fd",
  "parentHash": "0xb2749c2bc594489f1806361de9254530e439f0bdb45c7a78714f65d97fdc1964",
  "number": 111883,
  "timestamp": 1439997777,
  "nonce": "0x46640a6d3057cc19",
  "difficulty": 4435056891838,
  "gasLimit": {
    "_hex": "0x2fefd8"
  },
  "gasUsed": {
    "_hex": "0x5208"
  },
  "miner": "0xf8E0CA3Ed80bd541b94BEdCf259e8CF2141A9523",
  "extraData": "0x476574682f76312e302e312f77696e646f77732f676f312e342e32",
  "transactions": [
    {
      "hash": "0x61943f7a118e030d03cefba817f2efc2e2e14c4973369245a25ed7b863ffd1d2",
      "blockHash": "0x72c75acd47e0138a4b594fda16a6e15a122238e65649e6895b835be640d193fd",
      "blockNumber": 111883,
      "transactionIndex": 0,
      "confirmations": null,
      "from": "0x32Be343B94f860124dC4fEe278FDCBD38C102D88",
      "gasPrice": {
        "_hex": "0xd4e595870"
      },
      "gasLimit": {
        "_hex": "0x5208"
      },
      "to": "0xB9A0a0410aA5e26bFa66Cc3ACAF0A6FC61Df5588",
      "value": {
        "_hex": "0xc8fc2d04b7984000"
      },
      "nonce": 1320,
      "data": "0x",
      "r": "0x0ad43d3ff308b97e25d64af5597e4373b2689f8f48686e9a5d68f0e1d1b675ad",
      "s": "0x7e89f1f4c101742257c204bb4df0d74de685223be33f7400c7fb7e3f1d4f3cd3",
      "v": 27,
      "creates": null,
      "raw": "0xf86e820528850d4e59587082520894b9a0a0410aa5e26bfa66cc3acaf0a6fc61df558888c8fc2d04b7984000801ba00ad43d3ff308b97e25d64af5597e4373b2689f8f48686e9a5d68f0e1d1b675ada07e89f1f4c101742257c204bb4df0d74de685223be33f7400c7fb7e3f1d4f3cd3",
      "networkId": 0,
      "chainId": 0
    }
  ]
}