{
  "hash": "0x20eb80492dda527d223fecb4fa0d8b18d8033c585a45c760c636cc660f90c116",
  "parentHash": "0xdb35f4049efa4f5118e68fd324cbf3660358035a310d5b92ccf0e5b9c5c55710",
  "number": 53396,
  "timestamp": 1439036989,
  "nonce": "0x613dfaf277814834",
  "difficulty": 1590101280670,
  "gasLimit": {
    "_hex": "0x26f2ce"
  },
  "gasUsed": {
    "_hex": "0x546c"
  },
  "miner": "0xf927a40C8B7F6E07c5af7FA2155B4864a4112B13",
  "extraData": "0x",
  "transactions": [
    {
      "hash": "0x1227b2b5775a6e5175de648a24099afda86680270dae8f01134e476c7bd256a2",
      "blockHash": "0x20eb80492dda527d223fecb4fa0d8b18d8033c585a45c760c636cc660f90c116",
      "blockNumber": 53396,
      "transactionIndex": 0,
      "confirmations": null,
      "from": "0x262A8bFD7D9dC5dD3Ad78161B6Bb560824373655",
      "gasPrice": {
        "_hex": "0xccbbf3ecb"
      },
      "gasLimit": {
        "_hex": "0x15f90"
      },
      "to": "0x2910543Af39abA0Cd09dBb2D50200b3E800A63D2",
      "value": {
        "_hex": "0x40828ca57749fc7500"
      },
      "nonce": 2,
      "data": "0x454e52473051335a52",
      "r": "0xe905637cc5a9790fa775f8990008cfd6a41046f66ee5aadff295e60488bc9b6a",
      "s": "0x736edbc91b62738a1950bd5ce5f7d9072f23182a9a310d38404230db747f254f",
      "v": 28,
      "creates": null,
      "raw": "0xf87702850ccbbf3ecb83015f90942910543af39aba0cd09dbb2d50200b3e800a63d28940828ca57749fc750089454e52473051335a521ca0e905637cc5a9790fa775f8990008cfd6a41046f66ee5aadff295e60488bc9b6aa0736edbc91b62738a1950bd5ce5f7d9072f23182a9a310d38404230db747f254f",
      "networkId": 0,
      "chainId": 0
    }
  ]
}