{
  "hash": "0x032bc133d682ca7b1744345ed5c347399669cd22e79d8c4683c718448ebc96b9",
  "parentHash": "0x58557f67bc41986e787e0940b4f904774c955c0d2744741c72ac43e365e7b87a",
  "number": 115292,
  "timestamp": 1440054693,
  "nonce": "0x640d62b7b708b1fc",
  "difficulty": 4553925143450,
  "gasLimit": {
    "_hex": "0x2fefd8"
  },
  "gasUsed": {
    "_hex": "0xf618"
  },
  "miner": "0xe6A7a1d47ff21B6321162AEA7C6CB457D5476Bca",
  "extraData": "0x476574682f76312e302e312d38326566323666362f6c696e75782f676f312e34",
  "transactions": [
    {
      "hash": "0xd845a9f983057f56632eb8f50794a169570b0a656e2d2d714be2a56206aeb88e",
      "blockHash": "0x032bc133d682ca7b1744345ed5c347399669cd22e79d8c4683c718448ebc96b9",
      "blockNumber": 115292,
      "transactionIndex": 0,
      "confirmations": null,
      "from": "0xe6A7a1d47ff21B6321162AEA7C6CB457D5476Bca",
      "gasPrice": {
        "_hex": "0xded2082f7"
      },
      "gasLimit": {
        "_hex": "0x55f0"
      },
      "to": "0x228ed249A4299B231F83A502c12d904e48C5842c",
      "value": {
        "_hex": "0x370b82c5316c7df0"
      },
      "nonce": 5272,
      "data": "0x",
      "r": "0xf3c5348a6d137209089cfa8d6428ff0faf76fdbb760a11e9c1f12cfd41b9e412",
      "s": "0x3099a244aeee0b59e9ad9f0a2850ae0e7dc888837923cc4725e4baca2fb5d38d",
      "v": 27,
      "creates": null,
      "raw": "0xf86e821498850ded2082f78255f094228ed249a4299b231f83a502c12d904e48c5842c88370b82c5316c7df0801ba0f3c5348a6d137209089cfa8d6428ff0faf76fdbb760a11e9c1f12cfd41b9e412a03099a244aeee0b59e9ad9f0a2850ae0e7dc888837923cc4725e4baca2fb5d38d",
      "networkId": 0,
      "chainId": 0
    },
    {
      "hash": "0x93a9d1532707e26189ffb684bfc248d25484708032de8da65df7ab05cc68d652",
      "blockHash": "0x032bc133d682ca7b1744345ed5c347399669cd22e79d8c4683c718448ebc96b9",
      "blockNumber": 115292,
      "transactionIndex": 1,
      "confirmations": null,
      "from": "0xe6A7a1d47ff21B6321162AEA7C6CB457D5476Bca",
      "gasPrice": {
        "_hex": "0xdcc9cf033"
      },
      "gasLimit": {
        "_hex": "0x55f0"
      },
      "to": "0xec4B2cCFC84A4C62d73D56c44917986aAAaEe10f",
      "value": {
        "_hex": "0x37fe97699f9f3ff4"
      },
      "nonce": 5273,
      "data": "0x",
      "r": "0xd7988b23cd83659928c1e4c8c5501cdf3c7de6976d76e1303fd0801e3eaf42bb",
      "s": "0x78dfedb26f9e6fd795af7945f8449c691706a57ca25cae41660638bf5dfe6519",
      "v": 27,
      "creates": null,
      "raw": "0xf86e821499850dcc9cf0338255f094ec4b2ccfc84a4c62d73d56c44917986aaaaee10f8837fe97699f9f3ff4801ba0d7988b23cd83659928c1e4c8c5501cdf3c7de6976d76e1303fd0801e3eaf42bba078dfedb26f9e6fd795af7945f8449c691706a57ca25cae41660638bf5dfe6519",
      "networkId": 0,
      "chainId": 0
    },
    {
      "hash": "0x1db4e093f410ae6411f91da48dc331264471e8060c213861b6d584ea1179eda3",
      "blockHash": "0x032bc133d682ca7b1744345ed5c347399669cd22e79d8c4683c718448ebc96b9",
      "blockNumber": 115292,
      "transactionIndex": 2,
      "confirmations": null,
      "from": "0xBDda295a4aa9E3A60063548157510B47c6BE932f",
      "gasPrice": {
        "_hex": "0xdc2eb931b"
      },
      "gasLimit": {
        "_hex": "0x5208"
      },
      "to": "0x32Be343B94f860124dC4fEe278FDCBD38C102D88",
      "value": {
        "_hex": "0x1a85be50895edc00"
      },
      "nonce": 10,
      "data": "0x",
      "r": "0x4bd72875b69553559cddc913e0a82e14e6f9a24115264e5f3b3a48ab2bb23666",
      "s": "0x7e495513776e6c9f0e0eeb5f3aadb6a3919497de2264dd5760f9090815429c8d",
      "v": 28,
      "creates": null,
      "raw": "0xf86c0a850dc2eb931b8252089432be343b94f860124dc4fee278fdcbd38c102d88881a85be50895edc00801ca04bd72875b69553559cddc913e0a82e14e6f9a24115264e5f3b3a48ab2bb23666a07e495513776e6c9f0e0eeb5f3aadb6a3919497de2264dd5760f9090815429c8d",
      "networkId": 0,
      "chainId": 0
    }
  ]
}