{
  "hash": "0x45ca10a670ffd3e12fd04b83713d18784525cc458f9af8e7de8d73c0797ff783",
  "parentHash": "0x7199fb98f209ec2580a3197012d7f773321e6fb96d8430bca726e6e41cbc1cad",
  "number": 62673,
  "timestamp": 1439192489,
  "nonce": "0x23c0da93c0f836a2",
  "difficulty": 1767604800718,
  "gasLimit": {
    "_hex": "0x2fefd5"
  },
  "gasUsed": {
    "_hex": "0x7c2d"
  },
  "miner": "0x88D74a59454F6cF3B51ef6b9136AFb6b9D405A88",
  "extraData": "0x476574682f76312e302e312d38326566323666362f6c696e75782f676f312e34",
  "transactions": [
    {
      "hash": "0x284118a55277f16b3689d58c393844155632eb09438bedeb998e22d76d88f858",
      "blockHash": "0x45ca10a670ffd3e12fd04b83713d18784525cc458f9af8e7de8d73c0797ff783",
      "blockNumber": 62673,
      "transactionIndex": 0,
      "confirmations": null,
      "from": "0x8391813c10b72507819251bd4d2b96696afd9495",
      "gasPrice": {
        "_hex": "0xcaaca09e8"
      },
      "gasLimit": {
        "_hex": "0x15f90"
      },
      "to": "0x125B606C67E8066Da65069652b656c19717745Fa",
      "value": {
        "_hex": "0xde0b6b3a7640000"
      },
      "nonce": 2,
      "data": "0xa55526db",
      "r": "0x13884fd4126a6ceafe943094c75f147ec7058021a5e910bce399bb408d0fbc66",
      "s": "0x4f10d06637bc8692568441695588c55c02bc642ec2f1e28011835d1d57f8a7c0",
      "v": 27,
      "creates": null,
      "raw": "0xf87102850caaca09e883015f9094125b606c67e8066da65069652b656c19717745fa880de0b6b3a764000084a55526db1ba013884fd4126a6ceafe943094c75f147ec7058021a5e910bce399bb408d0fbc66a04f10d06637bc8692568441695588c55c02bc642ec2f1e28011835d1d57f8a7c0",
      "networkId": 0,
      "chainId": 0
    }
  ]
}