{
  "hash": "0xb03988ebdfa20bdc8d7f3a9a7cf258775d201931b7a54a850bc4c39d1ce05921",
  "parentHash": "0xa1cc84fadcfa03453d1cff8384fa9104435b2bef860fa46e7280e39dee67f2d1",
  "number": 74781,
  "timestamp": 1439392279,
  "nonce": "0x640c4461534489fa",
  "difficulty": 2194502739912,
  "gasLimit": {
    "_hex": "0x2fefd8"
  },
  "gasUsed": {
    "_hex": "0x5208"
  },
  "miner": "0x5F8F73E26CdF436f19Cb24C82F90A15AFe55b592",
  "extraData": "0x476574682f76312e302e312f77696e646f77732f676f312e342e32",
  "transactions": [
    {
      "hash": "0x261eb2d900120c0dc4dac26e522c84b39ae5a769d50f3d0e9f2dfb1fa5e8242a",
      "blockHash": "0xb03988ebdfa20bdc8d7f3a9a7cf258775d201931b7a54a850bc4c39d1ce05921",
      "blockNumber": 74781,
      "transactionIndex": 0,
      "confirmations": null,
      "from": "0x6866e5e1FaBB4AbceF3EEb9Ea0d8CD6b52dfC9FF",
      "gasPrice": {
        "_hex": "0xd6b29db5e"
      },
      "gasLimit": {
        "_hex": "0x15f90"
      },
      "to": "0x01Ad0ACFf478127D9d702B1A13599D706cB759b1",
      "value": {
        "_hex": "0x8cdc0b3916370000"
      },
      "nonce": 9,
      "data": "0x",
      "r": "0xadbfb71a5a6b58ba2c7140d40636654f97fe208d19d2f05c057f8d57e3048b36",
      "s": "0x1402fd5938ccf1faba3a3766da3176e467091a7e3972ab25b331478bac0aea66",
      "v": 27,
      "creates": null,
      "raw": "0xf86d09850d6b29db5e83015f909401ad0acff478127d9d702b1a13599d706cb759b1888cdc0b3916370000801ba0adbfb71a5a6b58ba2c7140d40636654f97fe208d19d2f05c057f8d57e3048b36a01402fd5938ccf1faba3a3766da3176e467091a7e3972ab25b331478bac0aea66",
      "networkId": 0,
      "chainId": 0
    }
  ]
}