{
  "hash": "0xc18f31c0b2a054ac521b83047b2917dd928b315ceca0feb2cc5993e09039e703",
  "parentHash": "0xfda0d65666633d0d67d25c838ab1951530cf657f600bddb732b84593c9aa4ddc",
  "number": 101284,
  "timestamp": 1439820466,
  "nonce": "0x3d19f64d37e427df",
  "difficulty": 3818757182576,
  "gasLimit": {
    "_hex": "0x2fefd5"
  },
  "gasUsed": {
    "_hex": "0x5208"
  },
  "miner": "0x55D1554b08a5311C5c0A0B6464162192f9D2f884",
  "extraData": "0x",
  "transactions": [
    {
      "hash": "0x65ce9f4671967b3605a87304ec4557ff30f62827653cb79fce3aacafadf87c64",
      "blockHash": "0xc18f31c0b2a054ac521b83047b2917dd928b315ceca0feb2cc5993e09039e703",
      "blockNumber": 101284,
      "transactionIndex": 0,
      "confirmations": null,
      "from": "0x95B8Be50517B180F2F101f1cFe0E4C66Ad6fa7dd",
      "gasPrice": {
        "_hex": "0xdde7c15a1"
      },
      "gasLimit": {
        "_hex": "0x7530"
      },
      "to": "0xbCab99c9250A69cCD7395f2543ed52FF1e220398",
      "value": {
        "_hex": "0x429d069189e0000"
      },
      "nonce": 7,
      "data": "0x",
      "r": "0x2f214deec6ef53c446a615f7cb1cb4328876c797a634c89dad6aeb1043dae39b",
      "s": "0x6d6dd3c92cb8e76454d52cc20cb1c69a6471b2150016cb0ea0ba763168060051",
      "v": 28,
      "creates": null,
      "raw": "0xf86c07850dde7c15a182753094bcab99c9250a69ccd7395f2543ed52ff1e220398880429d069189e0000801ca02f214deec6ef53c446a615f7cb1cb4328876c797a634c89dad6aeb1043dae39ba06d6dd3c92cb8e76454d52cc20cb1c69a6471b2150016cb0ea0ba763168060051",
      "networkId": 0,
      "chainId": 0
    }
  ]
}