{
  "hash": "0xe39696f40f7d4feed32da70af3abddb9895d17f4cfe5be3353ffe6e24bf25ff4",
  "parentHash": "0x27269e786efda19893b37ff1ab2c96d12d8b67e3a606eb17ff76bdd4e2053fa7",
  "number": 76770,
  "timestamp": 1439425874,
  "nonce": "0xd0de83aafc55259d",
  "difficulty": 2240534529801,
  "gasLimit": {
    "_hex": "0x2fefd8"
  },
  "gasUsed": {
    "_hex": "0x16b49"
  },
  "miner": "0xf927a40C8B7F6E07c5af7FA2155B4864a4112B13",
  "extraData": "0x",
  "transactions": [
    {
      "hash": "0x336eddbe1ccadf6aa6c663164b60ff192133767bf0afd45f87079aee163d3de3",
      "blockHash": "0xe39696f40f7d4feed32da70af3abddb9895d17f4cfe5be3353ffe6e24bf25ff4",
      "blockNumber": 76770,
      "transactionIndex": 0,
      "confirmations": null,
      "from": "0x87C5B5874A18B4306DF8a752a6C8cc3E82daFc19",
      "gasPrice": {
        "_hex": "0x10ee4ba2fbe"
      },
      "gasLimit": {
        "_hex": "0x493e0"
      },
      "to": "0xD79B4C6791784184e2755B2fC1659eaaB0f80456",
      "value": {
        "_hex": "0x0"
      },
      "nonce": 84,
      "data": "0x03750d940000000000000000000000008be84a3adfbc51c59023b2413766e229108c35de3639613637353433366439653734303400000000000000000000000000000000",
      "r": "0x7bd677cfdfff5b40386cb9add5962cef816e6b81f19b556ae16bc1706638dff1",
      "s": "0x4b2d29cddeae16509845209b24b5a7eb1ca7b113756c19f24014c138f0779612",
      "v": 28,
      "creates": null,
      "raw": "0xf8ab5486010ee4ba2fbe830493e094d79b4c6791784184e2755b2fc1659eaab0f8045680b84403750d940000000000000000000000008be84a3adfbc51c59023b2413766e229108c35de36396136373534333664396537343034000000000000000000000000000000001ca07bd677cfdfff5b40386cb9add5962cef816e6b81f19b556ae16bc1706638dff1a04b2d29cddeae16509845209b24b5a7eb1ca7b113756c19f24014c138f0779612",
      "networkId": 0,
      "chainId": 0
    },
    {
      "hash": "0x84b51b62becf84a6b80eb09b91643da46f879181d006ea29761ca72004b33c77",
      "blockHash": "0xe39696f40f7d4feed32da70af3abddb9895d17f4cfe5be3353ffe6e24bf25ff4",
      "blockNumber": 76770,
      "transactionIndex": 1,
      "confirmations": null,
      "from": "0x87C5B5874A18B4306DF8a752a6C8cc3E82daFc19",
      "gasPrice": {
        "_hex": "0x10ee4ba2fbe"
      },
      "gasLimit": {
        "_hex": "0x493e0"
      },
      "to": "0xD79B4C6791784184e2755B2fC1659eaaB0f80456",
      "value": {
        "_hex": "0x0"
      },
      "nonce": 85,
      "data": "0x03750d940000000000000000000000008be84a3adfbc51c59023b2413766e229108c35de3738326361633139323661643733343000000000000000000000000000000000",
      "r": "0xc249463465b506913fb0905dec979e979122ac4617550573638fcb5f386d4b79",
      "s": "0x3759b289b5598c89f14be0fd415ac557e2e0d2b416d2b16594ea8a76a397ea3f",
      "v": 27,
      "creates": null,
      "raw": "0xf8ab5586010ee4ba2fbe830493e094d79b4c6791784184e2755b2fc1659eaab0f8045680b84403750d940000000000000000000000008be84a3adfbc51c59023b2413766e229108c35de37383263616331393236616437333430000000000000000000000000000000001ba0c249463465b506913fb0905dec979e979122ac4617550573638fcb5f386d4b79a03759b289b5598c89f14be0fd415ac557e2e0d2b416d2b16594ea8a76a397ea3f",
      "networkId": 0,
      "chainId": 0
    },
    {
      "hash": "0xf0980edd53bbe51b8ec34557cb1be247d8a1b72333529a933c92345d25e3c4f5",
      "blockHash": "0xe39696f40f7d4feed32da70af3abddb9895d17f4cfe5be3353ffe6e24bf25ff4",
      "blockNumber": 76770,
      "transactionIndex": 2,
      "confirmations": null,
      "from": "0x87C5B5874A18B4306DF8a752a6C8cc3E82daFc19",
      "gasPrice": {
        "_hex": "0x10ee4ba2fbe"
      },
      "gasLimit": {
        "_hex": "0x493e0"
      },
      "to": "0xD79B4C6791784184e2755B2fC1659eaaB0f80456",
      "value": {
        "_hex": "0x0"
      },
      "nonce": 86,
      "data": "0x03750d940000000000000000000000008be84a3adfbc51c59023b2413766e229108c35de6330363863336131663336306538646500000000000000000000000000000000",
      "r": "0xc5fe3f266f672a352acfeb1c8412ff2a0d60df5c9fcc589115e4cd022d8c9f20",
      "s": "0x438a21201e71651923c5ab36e9f411bf5309eac29d8622b12a8203fbdc0eedc3",
      "v": 28,
      "creates": null,
      "raw": "0xf8ab5686010ee4ba2fbe830493e094d79b4c6791784184e2755b2fc1659eaab0f8045680b84403750d940000000000000000000000008be84a3adfbc51c59023b2413766e229108c35de63303638633361316633363065386465000000000000000000000000000000001ca0c5fe3f266f672a352acfeb1c8412ff2a0d60df5c9fcc589115e4cd022d8c9f20a0438a21201e71651923c5ab36e9f411bf5309eac29d8622b12a8203fbdc0eedc3",
      "networkId": 0,
      "chainId": 0
    }
  ]
}