{
  "hash": "0x4a0c7d8f12fb66eba7a0a944d9358494e25deafeb6a4995c21435213e450b41d",
  "parentHash": "0x3b9b3b57924e99ed4c788cfc77f9746cd259aa206e39ee0065cdaa5e3dd79f53",
  "number": 68353,
  "timestamp": 1439286498,
  "nonce": "0xd289d7962a19217a",
  "difficulty": 2015332611047,
  "gasLimit": {
    "_hex": "0x2fefd8"
  },
  "gasUsed": {
    "_hex": "0x5208"
  },
  "miner": "0x9746c7e1ef2bd21FF3997fa467593a89cb852BD0",
  "extraData": "0x476574682f76312e302e312f77696e646f77732f676f312e342e32",
  "transactions": [
    {
      "hash": "0x1aa2b7803f1a6fe123ea59b5c47fa4c5f98c08da2bf7f79f595004f852280c36",
      "blockHash": "0x4a0c7d8f12fb66eba7a0a944d9358494e25deafeb6a4995c21435213e450b41d",
      "blockNumber": 68353,
      "transactionIndex": 0,
      "confirmations": null,
      "from": "0x6747f922385c9a6F9cfDf095F34345257DD597bE",
      "gasPrice": {
        "_hex": "0xba43b7400"
      },
      "gasLimit": {
        "_hex": "0x5208"
      },
      "to": "0x88f27f9057c1E94894CCaD3ec5aB9416EBd2C2c9",
      "value": {
        "_hex": "0x1fcbfa42bd6000"
      },
      "nonce": 57,
      "data": "0x",
      "r": "0xf8403f4799c3bdced0b2264f4c9b2d3edce71209e0f3914feb1cdceb6d1c2ea0",
      "s": "0x4c3a54f7f86df0a1c4559040bb41beef9b07c27662bb337e36397edad48a7fa7",
      "v": 27,
      "creates": null,
      "raw": "0xf86b39850ba43b74008252089488f27f9057c1e94894ccad3ec5ab9416ebd2c2c9871fcbfa42bd6000801ba0f8403f4799c3bdced0b2264f4c9b2d3edce71209e0f3914feb1cdceb6d1c2ea0a04c3a54f7f86df0a1c4559040bb41beef9b07c27662bb337e36397edad48a7fa7",
      "networkId": 0,
      "chainId": 0
    }
  ]
}