{
  "hash": "0x1aeb22325b71f87c9508aa2194d87034fc247d347d6808280b63ff14b9656d1e",
  "parentHash": "0x6bab8d89986cf1090d88c5bff85da878bd4825b37fb2d00e2903a2ed744b3bf7",
  "number": 92753,
  "timestamp": 1439676604,
  "nonce": "0x0bc08284caa28282",
  "difficulty": 3606856170510,
  "gasLimit": {
    "_hex": "0x2fefd8"
  },
  "gasUsed": {
    "_hex": "0x5208"
  },
  "miner": "0xe6A7a1d47ff21B6321162AEA7C6CB457D5476Bca",
  "extraData": "0x476574682f76312e302e312d38326566323666362f6c696e75782f676f312e34",
  "transactions": [
    {
      "hash": "0x414d4c208549159404b1edfbc336fc23d67c43df30da33bbca8a5877eed39577",
      "blockHash": "0x1aeb22325b71f87c9508aa2194d87034fc247d347d6808280b63ff14b9656d1e",
      "blockNumber": 92753,
      "transactionIndex": 0,
      "confirmations": null,
      "from": "0x50532e4Be195D1dE0c2E6DfA46D9ec0a4Fee6861",
      "gasPrice": {
        "_hex": "0xba43b7400"
      },
      "gasLimit": {
        "_hex": "0x5208"
      },
      "to": "0xC47Aaa860008be6f65B58c6C6E02a84e666EfE31",
      "value": {
        "_hex": "0x38a7c8643835f8f0"
      },
      "nonce": 1,
      "data": "0x",
      "r": "0x08acfac5b219fef6721221ac837763ac3cb9842d2bf323cc793e0952367f3615",
      "s": "0x7da13f731d88b1cc52771c9b5e0534cf0f426c5b20541ce3287b706935086fce",
      "v": 27,
      "creates": null,
      "raw": "0xf86c01850ba43b740082520894c47aaa860008be6f65b58c6c6e02a84e666efe318838a7c8643835f8f0801ba008acfac5b219fef6721221ac837763ac3cb9842d2bf323cc793e0952367f3615a07da13f731d88b1cc52771c9b5e0534cf0f426c5b20541ce3287b706935086fce",
      "networkId": 0,
      "chainId": 0
    }
  ]
}