{
  "hash": "0xaa0958575b1a17f58e9e59b3d0205fe571399e66713775c345fcf4d3997630fa",
  "parentHash": "0x515d7334066e58f5c3d9fe7af3597b59057537994da9401743a81c8ccc2c330d",
  "number": 63706,
  "timestamp": 1439208853,
  "nonce": "0x0fc61073f94e8a14",
  "difficulty": 1842284129613,
  "gasLimit": {
    "_hex": "0x2fefd8"
  },
  "gasUsed": {
    "_hex": "0x5208"
  },
  "miner": "0x5F8F73E26CdF436f19Cb24C82F90A15AFe55b592",
  "extraData": "0x476574682f76312e302e312f77696e646f77732f676f312e342e32",
  "transactions": [
    {
      "hash": "0x20528e68952472de4787caa70bc29143825fc0151863dd5811f97f049cc4cf02",
      "blockHash": "0xaa0958575b1a17f58e9e59b3d0205fe571399e66713775c345fcf4d3997630fa",
      "blockNumber": 63706,
      "transactionIndex": 0,
      "confirmations": null,
      "from": "0x2910543Af39abA0Cd09dBb2D50200b3E800A63D2",
      "gasPrice": {
        "_hex": "0xdeb890dde"
      },
      "gasLimit": {
        "_hex": "0x5208"
      },
      "to": "0x431f45FF1650D680041a5034211e066e89b7aAdd",
      "value": {
        "_hex": "0x2fb474098f67c0000"
      },
      "nonce": 133,
      "data": "0x",
      "r": "0x022d09853cda8d420c25f36bb081238a84d04ddbf265e5afa7fc5147e4898b78",
      "s": "0x17ee395914e1c365e0749e8c8b82756d07af2f0918b352c31756e6a9734b6eb3",
      "v": 27,
      "creates": null,
      "raw": "0xf86e8185850deb890dde82520894431f45ff1650d680041a5034211e066e89b7aadd8902fb474098f67c0000801ba0022d09853cda8d420c25f36bb081238a84d04ddbf265e5afa7fc5147e4898b78a017ee395914e1c365e0749e8c8b82756d07af2f0918b352c31756e6a9734b6eb3",
      "networkId": 0,
      "chainId": 0
    }
  ]
}