{
  "hash": "0x590420eaab640ae677b05247d3655f101886b8517912bf05efb30e9f01b68982",
  "parentHash": "0x297c435d829f99173e98f039554a40b63ae3378e98128d371feca4399fa0a2c6",
  "number": 110472,
  "timestamp": 1439974350,
  "nonce": "0xd38cdd59abedc724",
  "difficulty": 4377706920383,
  "gasLimit": {
    "_hex": "0x2fefd8"
  },
  "gasUsed": {
    "_hex": "0xa410"
  },
  "miner": "0x790b8a3cE86E707ED0eD32bF89B3269692a23CC1",
  "extraData": "0xd783010001844765746887676f312e342e32856c696e7578",
  "transactions": [
    {
      "hash": "0x1616cee0f074a122c4c7bd666c6b4b02e678faae9acccbea377f03c24e7684cf",
      "blockHash": "0x590420eaab640ae677b05247d3655f101886b8517912bf05efb30e9f01b68982",
      "blockNumber": 110472,
      "transactionIndex": 0,
      "confirmations": null,
      "from": "0x4a900C6a7785648E677cd96E39603466c0C7744A",
      "gasPrice": {
        "_hex": "0xda7fb566d"
      },
      "gasLimit": {
        "_hex": "0x5208"
      },
      "to": "0x32Be343B94f860124dC4fEe278FDCBD38C102D88",
      "value": {
        "_hex": "0x58ec265a81533800"
      },
      "nonce": 5,
      "data": "0x",
      "r": "0x0ce9580fa3d787341a0fa02f7a22145b9964e8a400ced142ad5869b3898cfe28",
      "s": "0x14d89a3bfd3e8e45a0dc71e5e8c09c38f7221042d8daaae0c42f4b7b17e923f5",
      "v": 27,
      "creates": null,
      "raw": "0xf86c05850da7fb566d8252089432be343b94f860124dc4fee278fdcbd38c102d888858ec265a81533800801ba00ce9580fa3d787341a0fa02f7a22145b9964e8a400ced142ad5869b3898cfe28a014d89a3bfd3e8e45a0dc71e5e8c09c38f7221042d8daaae0c42f4b7b17e923f5",
      "networkId": 0,
      "chainId": 0
    },
    {
      "hash": "0x3c997fb423dfb333eac5e08e6a730080f9c5ebcb9585a0b63318bb6aec24dd34",
      "blockHash": "0x590420eaab640ae677b05247d3655f101886b8517912bf05efb30e9f01b68982",
      "blockNumber": 110472,
      "transactionIndex": 1,
      "confirmations": null,
      "from": "0x1dbe45A9437978D7Bdc5D468e6be0988a71D153f",
      "gasPrice": {
        "_hex": "0xd3d37f23a"
      },
      "gasLimit": {
        "_hex": "0x15f90"
      },
      "to": "0x11AA265966dFdDfDC4fA42a83C305f6EcbE9588a",
      "value": {
        "_hex": "0x2dcbf4840eca0000"
      },
      "nonce": 6,
      "data": "0x",
      "r": "0xff2f3dd1ed5bd41d9d5c498fe96ea4c58e60cc9193489203dc564b7cdc8b89cc",
      "s": "0x1903e4132629c12699200edef4e23cb7331affa1889281f2849c80651b06df93",
      "v": 28,
      "creates": null,
      "raw": "0xf86d06850d3d37f23a83015f909411aa265966dfddfdc4fa42a83c305f6ecbe9588a882dcbf4840eca0000801ca0ff2f3dd1ed5bd41d9d5c498fe96ea4c58e60cc9193489203dc564b7cdc8b89cca01903e4132629c12699200edef4e23cb7331affa1889281f2849c80651b06df93",
      "networkId": 0,
      "chainId": 0
    }
  ]
}