{
  "hash": "0xb38c99bd5fef10220b21bed44ede113f2a08396533f1e401cb5cfb6bd3357ade",
  "parentHash": "0x9464d3cd066c368a7a66a12fa4d17566f281f631fcddd5bbf2e8f60476eb712a",
  "number": 95321,
  "timestamp": 1439722378,
  "nonce": "0x2246695dcf414c80",
  "difficulty": 3560265365739,
  "gasLimit": {
    "_hex": "0x2fefd8"
  },
  "gasUsed": {
    "_hex": "0x522d"
  },
  "miner": "0x88D74a59454F6cF3B51ef6b9136AFb6b9D405A88",
  "extraData": "0x476574682f76312e302e312d37666266393930632f6c696e75782f676f312e34",
  "transactions": [
    {
      "hash": "0xc4cdcebe54034444dab17891775e19b4900cc894d0c5217bcd767d0368acfe70",
      "blockHash": "0xb38c99bd5fef10220b21bed44ede113f2a08396533f1e401cb5cfb6bd3357ade",
      "blockNumber": 95321,
      "transactionIndex": 0,
      "confirmations": null,
      "from": "0x02020D22dCF88f5eDd66B382D7da019F161fB7e3",
      "gasPrice": {
        "_hex": "0xd496a9595"
      },
      "gasLimit": {
        "_hex": "0x493e0"
      },
      "to": "0xD79B4C6791784184e2755B2fC1659eaaB0f80456",
      "value": {
        "_hex": "0xde0b6b3a7640000"
      },
      "nonce": 31,
      "data": "0x",
      "r": "0x13b1d8775863aa131113fcae838fb54aed444bfda16574acdbd70a5dd55b6398",
      "s": "0x22313a7af3a449a2737681ef062901ad114eb9da9dbc149f7d255701603ba8f6",
      "v": 28,
      "creates": null,
      "raw": "0xf86d1f850d496a9595830493e094d79b4c6791784184e2755b2fc1659eaab0f80456880de0b6b3a7640000801ca013b1d8775863aa131113fcae838fb54aed444bfda16574acdbd70a5dd55b6398a022313a7af3a449a2737681ef062901ad114eb9da9dbc149f7d255701603ba8f6",
      "networkId": 0,
      "chainId": 0
    }
  ]
}