{
  "hash": "0x58604c769bd80768c10619329650653667ba3ce8a84aa814131807bd5d21f3d9",
  "parentHash": "0x8c2120cf012a29e31b39f5fb338587d5b354f8bb3fc8691d9359e3d6a79a87c8",
  "number": 80366,
  "timestamp": 1439484641,
  "nonce": "0x7bd784497b6ab132",
  "difficulty": 2379362678997,
  "gasLimit": {
    "_hex": "0x2fefd8"
  },
  "gasUsed": {
    "_hex": "0xc343"
  },
  "miner": "0x007f7f58D3eb5b7510A301eCC749FC1fCDDBE14D",
  "extraData": "0x476574682f76312e302e312f77696e646f77732f676f312e342e32",
  "transactions": [
    {
      "hash": "0xb40078a9147a7cf48e32fdb79d2c518bada2eeefa3fbfa15737b24964ff301a2",
      "blockHash": "0x58604c769bd80768c10619329650653667ba3ce8a84aa814131807bd5d21f3d9",
      "blockNumber": 80366,
      "transactionIndex": 0,
      "confirmations": null,
      "from": "0x87C5B5874A18B4306DF8a752a6C8cc3E82daFc19",
      "gasPrice": {
        "_hex": "0x110d1073e22"
      },
      "gasLimit": {
        "_hex": "0x493e0"
      },
      "to": "0xC4c51de1AbF5D60DBd329eC0F999Fd8f021ae9fC",
      "value": {
        "_hex": "0x0"
      },
      "nonce": 188,
      "data": "0xbd66528a6b6b6b0000000000000000000000000000000000000000000000000000000000",
      "r": "0x3843c3fea95ef6ab4bd2a66cfff9c1dadf874f47defb019f423985c8031460e7",
      "s": "0x3a0348ed3ff1658d6979a1584bc7ad20f4e1072a697708ba46a1a2821acc81e6",
      "v": 27,
      "creates": null,
      "raw": "0xf88b81bc860110d1073e22830493e094c4c51de1abf5d60dbd329ec0f999fd8f021ae9fc80a4bd66528a6b6b6b00000000000000000000000000000000000000000000000000000000001ba03843c3fea95ef6ab4bd2a66cfff9c1dadf874f47defb019f423985c8031460e7a03a0348ed3ff1658d6979a1584bc7ad20f4e1072a697708ba46a1a2821acc81e6",
      "networkId": 0,
      "chainId": 0
    },
    {
      "hash": "0x0de87c69cd36627d07a8a9420521de81ced09d38d1651283b3e50f6a872aa632",
      "blockHash": "0x58604c769bd80768c10619329650653667ba3ce8a84aa814131807bd5d21f3d9",
      "blockNumber": 80366,
      "transactionIndex": 1,
      "confirmations": null,
      "from": "0x61c9DCe8b2981Cb40e98b0402bC3eB28348F03Ac",
      "gasPrice": {
        "_hex": "0x110c8f7d8de"
      },
      "gasLimit": {
        "_hex": "0xc350"
      },
      "to": "0x2910543Af39abA0Cd09dBb2D50200b3E800A63D2",
      "value": {
        "_hex": "0xaa6fc3ce5fc420000"
      },
      "nonce": 0,
      "data": "0x454e30394746463352",
      "r": "0x49f044f04bd587f2b20422099de3f4a9c859e595340837070eb5164c3d41e70a",
      "s": "0xf52ff31c81885d27e8ce141c8c25846e6e16c1b9a80fb1a7dbbdb97782605056",
      "v": 27,
      "creates": null,
      "raw": "0xf87780860110c8f7d8de82c350942910543af39aba0cd09dbb2d50200b3e800a63d2890aa6fc3ce5fc42000089454e303947464633521ba049f044f04bd587f2b20422099de3f4a9c859e595340837070eb5164c3d41e70aa0f52ff31c81885d27e8ce141c8c25846e6e16c1b9a80fb1a7dbbdb97782605056",
      "networkId": 0,
      "chainId": 0
    }
  ]
}