{
  "hash": "0xd43b8b651ac24a5b45e1b6d16f0ab46a97704f4163ce5d0a16181edfbaba4416",
  "parentHash": "0xb1577168eb56ef5e1a2355db8d3b86f9e0aefea64913eae1a1e7b06b0220ec5b",
  "number": 110943,
  "timestamp": 1439982086,
  "nonce": "0xae3e73fb25ee900c",
  "difficulty": 4413948707980,
  "gasLimit": {
    "_hex": "0x2fefd8"
  },
  "gasUsed": {
    "_hex": "0xa410"
  },
  "miner": "0xB1A4B41b8e75a153841c99c62d18588d45e7b406",
  "extraData": "0x",
  "transactions": [
    {
      "hash": "0x714142e7c8a3b2cba8e2e645b30dcb3defb9de050123f03e9511e2070d049baa",
      "blockHash": "0xd43b8b651ac24a5b45e1b6d16f0ab46a97704f4163ce5d0a16181edfbaba4416",
      "blockNumber": 110943,
      "transactionIndex": 0,
      "confirmations": null,
      "from": "0x056507108FE6d30189EcCD6cd7F4Fad56eEef622",
      "gasPrice": {
        "_hex": "0xdbe1e9709"
      },
      "gasLimit": {
        "_hex": "0x15f90"
      },
      "to": "0xf669D33ffC879Ed84BECd4EF67CB17c76f4607D5",
      "value": {
        "_hex": "0x6d6fcb76700d9"
      },
      "nonce": 16,
      "data": "0x",
      "r": "0x2b93c4a24839fb23fbaf268226fe648b5851e65e192fa1ca6fdd463974543923",
      "s": "0x3311f9cfd6c8b0bcc422874ba662ef91a3826b3f6b2df6e9bd52499f10a5d3de",
      "v": 28,
      "creates": null,
      "raw": "0xf86c10850dbe1e970983015f9094f669d33ffc879ed84becd4ef67cb17c76f4607d58706d6fcb76700d9801ca02b93c4a24839fb23fbaf268226fe648b5851e65e192fa1ca6fdd463974543923a03311f9cfd6c8b0bcc422874ba662ef91a3826b3f6b2df6e9bd52499f10a5d3de",
      "networkId": 0,
      "chainId": 0
    },
    {
      "hash": "0x17b3e64a2ca92ba2add16f27eac26e55e567364d79f5df8378c6b3d004d6ef2c",
      "blockHash": "0xd43b8b651ac24a5b45e1b6d16f0ab46a97704f4163ce5d0a16181edfbaba4416",
      "blockNumber": 110943,
      "transactionIndex": 1,
      "confirmations": null,
      "from": "0x007f7f58D3eb5b7510A301eCC749FC1fCDDBE14D",
      "gasPrice": {
        "_hex": "0xd382b0b9c"
      },
      "gasLimit": {
        "_hex": "0x15f90"
      },
      "to": "0xb1abce2918E21ddb93AA452731a12672A3d9F75a",
      "value": {
        "_hex": "0x4563918244f40000"
      },
      "nonce": 298,
      "data": "0x",
      "r": "0x7f618fc351816899348fd8c511a327e3474184e55c944e10b588dafad0393ae3",
      "s": "0x4602fa200dc0bb847a924246765635c0bf5bfcc344e632f48e0441df2f0910cf",
      "v": 28,
      "creates": null,
      "raw": "0xf86f82012a850d382b0b9c83015f9094b1abce2918e21ddb93aa452731a12672a3d9f75a884563918244f40000801ca07f618fc351816899348fd8c511a327e3474184e55c944e10b588dafad0393ae3a04602fa200dc0bb847a924246765635c0bf5bfcc344e632f48e0441df2f0910cf",
      "networkId": 0,
      "chainId": 0
    }
  ]
}