{
  "hash": "0x8b47babc62291182cef6ab4506ab39929d4bd5589b7a3711f80249aa9c5285f5",
  "parentHash": "0x369d9d99d1ba8523b2fcae15312809afd2d693cfd6b02d367679d2628fbfde13",
  "number": 52235,
  "timestamp": 1439018633,
  "nonce": "0xa0171223797cc609",
  "difficulty": 1549693557339,
  "gasLimit": {
    "_hex": "0x119439"
  },
  "gasUsed": {
    "_hex": "0xf9448"
  },
  "miner": "0xf927a40C8B7F6E07c5af7FA2155B4864a4112B13",
  "extraData": "0x476574682f76312e302e302f6c696e75782f676f312e342e32",
  "transactions": [
    {
      "hash": "0xade5d17cd6fb5e0074762aa03eb827cd650d7e69a9e0f0295f9a1a4c8582d0ff",
      "blockHash": "0x8b47babc62291182cef6ab4506ab39929d4bd5589b7a3711f80249aa9c5285f5",
      "blockNumber": 52235,
      "transactionIndex": 0,
      "confirmations": null,
      "from": "0x510EdA5601499a0D5E1A006BfFFd833672F2E267",
      "gasPrice": {
        "_hex": "0xf00d2cf08"
      },
      "gasLimit": {
        "_hex": "0x7a120"
      },
      "to": "0xcF8B7642aA648095761328c56AebC30e752E12A2",
      "value": {
        "_hex": "0xde0b6b3a7640000"
      },
      "nonce": 0,
      "data": "0x",
      "r": "0xcf54d6c0e1d7134e2f47935ccb77a0f0cb20aadc1c38b9d842bc080532c6b7f5",
      "s": "0x3378048693096619440ae2e7ed7c4f6eb90c02b12a98893062fdf965f45c0666",
      "v": 28,
      "creates": null,
      "raw": "0xf86d80850f00d2cf088307a12094cf8b7642aa648095761328c56aebc30e752e12a2880de0b6b3a7640000801ca0cf54d6c0e1d7134e2f47935ccb77a0f0cb20aadc1c38b9d842bc080532c6b7f5a03378048693096619440ae2e7ed7c4f6eb90c02b12a98893062fdf965f45c0666",
      "networkId": 0,
      "chainId": 0
    },
    {
      "hash": "0x98b02988072dd7244afc3f51cd379a9fc8df8ce8857ddeb12318d68157fc1ee1",
      "blockHash": "0x8b47babc62291182cef6ab4506ab39929d4bd5589b7a3711f80249aa9c5285f5",
      "blockNumber": 52235,
      "transactionIndex": 1,
      "confirmations": null,
      "from": "0xAd7F5C601260b460ADAC6A54411Ca6Cf07dC83c3",
      "gasPrice": {
        "_hex": "0x10052b6a9c"
      },
      "gasLimit": {
        "_hex": "0x7a120"
      },
      "to": "0x109C4f2CCc82C4d77Bde15F306707320294Aea3F",
      "value": {
        "_hex": "0xde0b6b3a7640000"
      },
      "nonce": 18,
      "data": "0x",
      "r": "0x37fdfd47bd2c709991e285791d662f07a32322066cb8764f7fcb98619bc5301b",
      "s": "0x01c257f965ce0ff9465d71aaaad91acf41055abf757d72d8d4a9aa9303264999",
      "v": 27,
      "creates": null,
      "raw": "0xf86d128510052b6a9c8307a12094109c4f2ccc82c4d77bde15f306707320294aea3f880de0b6b3a7640000801ba037fdfd47bd2c709991e285791d662f07a32322066cb8764f7fcb98619bc5301ba001c257f965ce0ff9465d71aaaad91acf41055abf757d72d8d4a9aa9303264999",
      "networkId": 0,
      "chainId": 0
    },
    {
      "hash": "0x9adb2e922b474f07a624e8e594b2c1b9a056e0289d70a90735345c2b14a1658e",
      "blockHash": "0x8b47babc62291182cef6ab4506ab39929d4bd5589b7a3711f80249aa9c5285f5",
      "blockNumber": 52235,
      "transactionIndex": 2,
      "confirmations": null,
      "from": "0xAd7F5C601260b460ADAC6A54411Ca6Cf07dC83c3",
      "gasPrice": {
        "_hex": "0x10052b6a9c"
      },
      "gasLimit": {
        "_hex": "0x7a120"
      },
      "to": "0x109C4f2CCc82C4d77Bde15F306707320294Aea3F",
      "value": {
        "_hex": "0xde0b6b3a7640000"
      },
      "nonce": 19,
      "data": "0x",
      "r": "0x55eba5436586d0386980a407c1c0fca227077f59d73ed112478505def136e943",
      "s": "0x01a6a896cd7107014ec09c0c9aafc3f5274413c6fa3907dd14bdebf5a0557939",
      "v": 27,
      "creates": null,
      "raw": "0xf86d138510052b6a9c8307a12094109c4f2ccc82c4d77bde15f306707320294aea3f880de0b6b3a7640000801ba055eba5436586d0386980a407c1c0fca227077f59d73ed112478505def136e943a001a6a896cd7107014ec09c0c9aafc3f5274413c6fa3907dd14bdebf5a0557939",
      "networkId": 0,
      "chainId": 0
    }
  ]
}