{
  "hash": "0xfe77ec42a75e759653dd6735237786b7816996649f21623ec3f8f09e71b4904c",
  "parentHash": "0x941d1bc466cfaf2a421a0bea05eade52fdb3fe14009313243ab2f6bdfabf2356",
  "number": 58171,
  "timestamp": 1439116247,
  "nonce": "0xe3dbaa3a15e1d769",
  "difficulty": 1715815796534,
  "gasLimit": {
    "_hex": "0x2fefd8"
  },
  "gasUsed": {
    "_hex": "0x5208"
  },
  "miner": "0x0037ce3d4B7f8729C8607D8D0248252Be68202c0",
  "extraData": "0x476574682f76312e302e312f77696e646f77732f676f312e342e32",
  "transactions": [
    {
      "hash": "0xf91bb10eeb364b555f55ead2c3ee6a09dd7ea82d347fe2ab2092dd21ce0d3a84",
      "blockHash": "0xfe77ec42a75e759653dd6735237786b7816996649f21623ec3f8f09e71b4904c",
      "blockNumber": 58171,
      "transactionIndex": 0,
      "confirmations": null,
      "from": "0x865d4c0cbD0C4D7580AAB16CE346127177162FFA",
      "gasPrice": {
        "_hex": "0xd318ee856"
      },
      "gasLimit": {
        "_hex": "0x5208"
      },
      "to": "0x32Be343B94f860124dC4fEe278FDCBD38C102D88",
      "value": {
        "_hex": "0x15af194a5ece0c0000"
      },
      "nonce": 2,
      "data": "0x",
      "r": "0xf6b636488f750a597ba2b9044dda3d2d04f83f4f465a02121484254559443e7e",
      "s": "0x7eeb3885a89fac13065bc1c73146b7bd400a71eb4b3b647f53c887d2da569966",
      "v": 27,
      "creates": null,
      "raw": "0xf86d02850d318ee8568252089432be343b94f860124dc4fee278fdcbd38c102d888915af194a5ece0c0000801ba0f6b636488f750a597ba2b9044dda3d2d04f83f4f465a02121484254559443e7ea07eeb3885a89fac13065bc1c73146b7bd400a71eb4b3b647f53c887d2da569966",
      "networkId": 0,
      "chainId": 0
    }
  ]
}