{
  "hash": "0xe3fab1a0adb4ab616405d786afdbaab5083c13128171361e7563baf5318213bf",
  "parentHash": "0xb7e604cc71935cab024d2c5f9ddf8b69dc67535e99fcc64b850bc88848ba086d",
  "number": 96797,
  "timestamp": 1439745891,
  "nonce": "0xf4b9a917a062c5f5",
  "difficulty": 3763401478535,
  "gasLimit": {
    "_hex": "0x2fefd8"
  },
  "gasUsed": {
    "_hex": "0x5208"
  },
  "miner": "0xf8E0CA3Ed80bd541b94BEdCf259e8CF2141A9523",
  "extraData": "0x476574682f76312e302e312f77696e646f77732f676f312e342e32",
  "transactions": [
    {
      "hash": "0x8c9652c80af45d81b25200b4e4950075b7ce4f75943b63976a076709916e106a",
      "blockHash": "0xe3fab1a0adb4ab616405d786afdbaab5083c13128171361e7563baf5318213bf",
      "blockNumber": 96797,
      "transactionIndex": 0,
      "confirmations": null,
      "from": "0x120A270bbC009644e35F0bB6ab13f95b8199c4ad",
      "gasPrice": {
        "_hex": "0xcc7b9bf7b"
      },
      "gasLimit": {
        "_hex": "0x3d090"
      },
      "to": "0x00B88D679472169CBd35a3d02192Fd24734684b4",
      "value": {
        "_hex": "0x1e98a380c75cd8f000"
      },
      "nonce": 626,
      "data": "0x",
      "r": "0xaf147e71e614ebee877dc304fde596562bc1bf57a638f5ecb7ef1a01402d293c",
      "s": "0x74dd4aa7cffc7273133ca94ebeaf832bab457cc3eec9b97a4c319b166a28d68e",
      "v": 28,
      "creates": null,
      "raw": "0xf870820272850cc7b9bf7b8303d0909400b88d679472169cbd35a3d02192fd24734684b4891e98a380c75cd8f000801ca0af147e71e614ebee877dc304fde596562bc1bf57a638f5ecb7ef1a01402d293ca074dd4aa7cffc7273133ca94ebeaf832bab457cc3eec9b97a4c319b166a28d68e",
      "networkId": 0,
      "chainId": 0
    }
  ]
}