{
  "hash": "0x8abccf2fa390a283d0ba073031858aa45777286845abfe9c2af8b673fb5b4367",
  "parentHash": "0x3ed0173bde5ff4287a8a957f5b4ece941094558af020113c80c75cda62a11154",
  "number": 55661,
  "timestamp": 1439074658,
  "nonce": "0xb1b29361d8c74f57",
  "difficulty": 1613917452096,
  "gasLimit": {
    "_hex": "0x2fefd2"
  },
  "gasUsed": {
    "_hex": "0x5208"
  },
  "miner": "0x688d4CACaCCc92e6914549710594BC6aa994F569",
  "extraData": "0x476574682f76312e302e312d38326566323666362f6c696e75782f676f312e34",
  "transactions": [
    {
      "hash": "0xe26b945d31915fdba9d60960ea340c552116466a893446caeb59f267b7f29122",
      "blockHash": "0x8abccf2fa390a283d0ba073031858aa45777286845abfe9c2af8b673fb5b4367",
      "blockNumber": 55661,
      "transactionIndex": 0,
      "confirmations": null,
      "from": "0x32Be343B94f860124dC4fEe278FDCBD38C102D88",
      "gasPrice": {
        "_hex": "0xda610551d"
      },
      "gasLimit": {
        "_hex": "0x5208"
      },
      "to": "0x8eB3FbB4A0Cc2366e88FB476df63D3Ad6907907b",
      "value": {
        "_hex": "0x4d8e453df3dc800"
      },
      "nonce": 69,
      "data": "0x",
      "r": "0x6771ae4b76989b19edba48edb6fae6a379365cd8473c5a3f10ae069b55cf877d",
      "s": "0x480228ae7b09c0e3188d62b1e0373fcfec3ffefc2b60460321255db5d758f6df",
      "v": 27,
      "creates": null,
      "raw": "0xf86c45850da610551d825208948eb3fbb4a0cc2366e88fb476df63d3ad6907907b8804d8e453df3dc800801ba06771ae4b76989b19edba48edb6fae6a379365cd8473c5a3f10ae069b55cf877da0480228ae7b09c0e3188d62b1e0373fcfec3ffefc2b60460321255db5d758f6df",
      "networkId": 0,
      "chainId": 0
    }
  ]
}