{
  "hash": "0xc796ac7f9826c2e384cfa44c7ddbb2373a557cb7697ae93da7589733461234b1",
  "parentHash": "0x4c58c48bbdd3e04d203dc50588e60e3eaccb9712bf5d01854055f9032ef07459",
  "number": 108487,
  "timestamp": 1439941423,
  "nonce": "0x6d2200c7ad0a1739",
  "difficulty": 4304546710042,
  "gasLimit": {
    "_hex": "0x2fefd8"
  },
  "gasUsed": {
    "_hex": "0x5208"
  },
  "miner": "0xe6A7a1d47ff21B6321162AEA7C6CB457D5476Bca",
  "extraData": "0x476574682f76312e302e312d38326566323666362f6c696e75782f676f312e34",
  "transactions": [
    {
      "hash": "0xcd827fb9ebeeaa798897cc1a167de5a42ad31c5c876160e3e204889261086a8f",
      "blockHash": "0xc796ac7f9826c2e384cfa44c7ddbb2373a557cb7697ae93da7589733461234b1",
      "blockNumber": 108487,
      "transactionIndex": 0,
      "confirmations": null,
      "from": "0x0AE502D5084FDe52CdEAb47766c05DD73F5a3Df8",
      "gasPrice": {
        "_hex": "0xe09b384bc"
      },
      "gasLimit": {
        "_hex": "0x5208"
      },
      "to": "0x32Be343B94f860124dC4fEe278FDCBD38C102D88",
      "value": {
        "_hex": "0x6c5d81f2a5512c0000"
      },
      "nonce": 1,
      "data": "0x",
      "r": "0x21af5c856cfd80a20f4f8ca165adbe4d4c0fffe3a4c67f0a3a00f4176ef65b90",
      "s": "0x2f06c4c86c131e561b1e1435a730deea73f5f27b7f498c24dde832808c80d3d7",
      "v": 28,
      "creates": null,
      "raw": "0xf86d01850e09b384bc8252089432be343b94f860124dc4fee278fdcbd38c102d88896c5d81f2a5512c0000801ca021af5c856cfd80a20f4f8ca165adbe4d4c0fffe3a4c67f0a3a00f4176ef65b90a02f06c4c86c131e561b1e1435a730deea73f5f27b7f498c24dde832808c80d3d7",
      "networkId": 0,
      "chainId": 0
    }
  ]
}