{
  "hash": "0xf5f169c9cf9fb0df6bae2fc665c38f880f87ee3fbf9864a52c8817434416662c",
  "parentHash": "0x7ce725832e873799645485a2397a0665528a71075142fc2f789fa002a718de67",
  "number": 94748,
  "timestamp": 1439713579,
  "nonce": "0xc98658efc56fc199",
  "difficulty": 3483127969817,
  "gasLimit": {
    "_hex": "0x2fefd8"
  },
  "gasUsed": {
    "_hex": "0x5208"
  },
  "miner": "0x87898CE53471043FcCa0a2aF4E1dC6d8B3fCf607",
  "extraData": "0x476574682f5369626572696131392f76312e302e312d37666266393930632f6c",
  "transactions": [
    {
      "hash": "0x20ca7593545000302f318da82b7372920be481416657ac4d386c93e7f60609ea",
      "blockHash": "0xf5f169c9cf9fb0df6bae2fc665c38f880f87ee3fbf9864a52c8817434416662c",
      "blockNumber": 94748,
      "transactionIndex": 0,
      "confirmations": null,
      "from": "0xB9eE81c1A5CdE84454DC603a8000836118627cfd",
      "gasPrice": {
        "_hex": "0xd9e7db307"
      },
      "gasLimit": {
        "_hex": "0x5208"
      },
      "to": "0x32Be343B94f860124dC4fEe278FDCBD38C102D88",
      "value": {
        "_hex": "0x4a4be167af5db0000"
      },
      "nonce": 3,
      "data": "0x",
      "r": "0xb753e7eca3b7e8f7e636d72bb468b59602ebb8c1353eeb0b480f93b9b69e948d",
      "s": "0x619c0731bba6359a4f9b08313c27f8c8b8e417dd770608d656335debc3e865fd",
      "v": 27,
      "creates": null,
      "raw": "0xf86d03850d9e7db3078252089432be343b94f860124dc4fee278fdcbd38c102d888904a4be167af5db0000801ba0b753e7eca3b7e8f7e636d72bb468b59602ebb8c1353eeb0b480f93b9b69e948da0619c0731bba6359a4f9b08313c27f8c8b8e417dd770608d656335debc3e865fd",
      "networkId": 0,
      "chainId": 0
    }
  ]
}