{
  "hash": "0xd9a7a6567c65f690b968fe01688ef5c3cace0d52aa51ac237db9d7111ea743c1",
  "parentHash": "0x5f9c0777a27015575131493834f9d1e46bc4b3f28b47da2666501573519b1d01",
  "number": 80392,
  "timestamp": 1439484978,
  "nonce": "0xd58d6cd208d889c5",
  "difficulty": 2384007024223,
  "gasLimit": {
    "_hex": "0x2fefd8"
  },
  "gasUsed": {
    "_hex": "0x5208"
  },
  "miner": "0xe6A7a1d47ff21B6321162AEA7C6CB457D5476Bca",
  "extraData": "0x476574682f76312e302e312d38326566323666362f6c696e75782f676f312e34",
  "transactions": [
    {
      "hash": "0x8a1b7ca2d90b5e287236fd7e2a5f28cccb4e1a5e487a80c2abdaf3adeb4eef66",
      "blockHash": "0xd9a7a6567c65f690b968fe01688ef5c3cace0d52aa51ac237db9d7111ea743c1",
      "blockNumber": 80392,
      "transactionIndex": 0,
      "confirmations": null,
      "from": "0x32Be343B94f860124dC4fEe278FDCBD38C102D88",
      "gasPrice": {
        "_hex": "0xd0d8b70a2"
      },
      "gasLimit": {
        "_hex": "0x5208"
      },
      "to": "0x2077D4ccf47dD37A6A9C466277881F017B4cfD84",
      "value": {
        "_hex": "0xd0072d945f1b0000"
      },
      "nonce": 536,
      "data": "0x",
      "r": "0xbc49e088dfa34db4d0f116007b04666ad14fe0ce583c61604793633cd1f3ccd0",
      "s": "0x6f3d33689bffce5fc1cb5e32aa8425ac69bea5f2ac136f18bcf0f22c0043837e",
      "v": 28,
      "creates": null,
      "raw": "0xf86e820218850d0d8b70a2825208942077d4ccf47dd37a6a9c466277881f017b4cfd8488d0072d945f1b0000801ca0bc49e088dfa34db4d0f116007b04666ad14fe0ce583c61604793633cd1f3ccd0a06f3d33689bffce5fc1cb5e32aa8425ac69bea5f2ac136f18bcf0f22c0043837e",
      "networkId": 0,
      "chainId": 0
    }
  ]
}