{
  "hash": "0x47099030992232056b19b55f435d7f93232661c24dfd4453d12159c21a0804bd",
  "parentHash": "0xd772b4f0879219223ac2f8ccab42b9d51d77bbc4fd1049a8e7d2b0ecf1f5d98d",
  "number": 112812,
  "timestamp": 1440013688,
  "nonce": "0xd7ef68d185a0ccac",
  "difficulty": 4423752384580,
  "gasLimit": {
    "_hex": "0x2fefd8"
  },
  "gasUsed": {
    "_hex": "0x5208"
  },
  "miner": "0x88D74a59454F6cF3B51ef6b9136AFb6b9D405A88",
  "extraData": "0x",
  "transactions": [
    {
      "hash": "0x038f1437f81c19fe063784dff2bec4f9e483cb7a075dcd58bdd04063eba6b571",
      "blockHash": "0x47099030992232056b19b55f435d7f93232661c24dfd4453d12159c21a0804bd",
      "blockNumber": 112812,
      "transactionIndex": 0,
      "confirmations": null,
      "from": "0xE21812b7c0Bd57f6922B6A5670BDAec864beEF6b",
      "gasPrice": {
        "_hex": "0xdd7a55983"
      },
      "gasLimit": {
        "_hex": "0x5208"
      },
      "to": "0x32Be343B94f860124dC4fEe278FDCBD38C102D88",
      "value": {
        "_hex": "0x3fae7ae8a799f400"
      },
      "nonce": 5,
      "data": "0x",
      "r": "0x57d998d8b7b8a321007fccfd997b4ab45f4ab29d153b444b0ccf93688451c654",
      "s": "0x211fe98ee0be778b7517170d9b01f6cc322f1646b0fdaafa41298397b6b7ef22",
      "v": 28,
      "creates": null,
      "raw": "0xf86c05850dd7a559838252089432be343b94f860124dc4fee278fdcbd38c102d88883fae7ae8a799f400801ca057d998d8b7b8a321007fccfd997b4ab45f4ab29d153b444b0ccf93688451c654a0211fe98ee0be778b7517170d9b01f6cc322f1646b0fdaafa41298397b6b7ef22",
      "networkId": 0,
      "chainId": 0
    }
  ]
}