{
  "hash": "0x8eda19c24e58745b250b3cd6e4ae9fb3b583e19f8d7e55119608b48d305c1dbc",
  "parentHash": "0x9bf5d5ff4597b2be7a8e0bf50968e1e6e6e7cd86284e9009251555c1860983cd",
  "number": 115430,
  "timestamp": 1440057093,
  "nonce": "0x1118e1f33e786b5c",
  "difficulty": 4571673495244,
  "gasLimit": {
    "_hex": "0x2fefd8"
  },
  "gasUsed": {
    "_hex": "0x5208"
  },
  "miner": "0x52bc44d5378309EE2abF1539BF71dE1b7d7bE3b5",
  "extraData": "0x476574682f76312e302e312d61383839306436312f6c696e75782f676f312e34",
  "transactions": [
    {
      "hash": "0xfbcafe81e873f0197e51bab99a026bd0a61b1e5c43fb03a66d762dd89d4a4de1",
      "blockHash": "0x8eda19c24e58745b250b3cd6e4ae9fb3b583e19f8d7e55119608b48d305c1dbc",
      "blockNumber": 115430,
      "transactionIndex": 0,
      "confirmations": null,
      "from": "0x32Be343B94f860124dC4fEe278FDCBD38C102D88",
      "gasPrice": {
        "_hex": "0xd5989634b"
      },
      "gasLimit": {
        "_hex": "0x5208"
      },
      "to": "0x6a9EfeB214aa03a8Cc69E201eF31210656D75882",
      "value": {
        "_hex": "0x6c3f2aac800c0000"
      },
      "nonce": 1423,
      "data": "0x",
      "r": "0xb12730203723f750229cce16eb36de224db20c583497f8569ecaf75995bf7d4d",
      "s": "0x0c630ebf64860137dd263f19c4203b144683a4f168f16b34cae5df2cfb9b560a",
      "v": 27,
      "creates": null,
      "raw": "0xf86e82058f850d5989634b825208946a9efeb214aa03a8cc69e201ef31210656d75882886c3f2aac800c0000801ba0b12730203723f750229cce16eb36de224db20c583497f8569ecaf75995bf7d4da00c630ebf64860137dd263f19c4203b144683a4f168f16b34cae5df2cfb9b560a",
      "networkId": 0,
      "chainId": 0
    }
  ]
}