{
  "hash": "0xe87ef3124dbaa6a542ad9836ea82c0e9de67fcb4644c61cdb843f34c5d78f49c",
  "parentHash": "0xb78ce872eb0a6c67b22ae234545b81ddbecb1bd7a5b66ddd740a7ca16e50a3c0",
  "number": 70877,
  "timestamp": 1439326802,
  "nonce": "0x102afe864127ed1f",
  "difficulty": 2153058997061,
  "gasLimit": {
    "_hex": "0x2fefd8"
  },
  "gasUsed": {
    "_hex": "0x5208"
  },
  "miner": "0x9271AB1be3177bF3E3B684a8783698F1B9D600a2",
  "extraData": "0x476574682f76312e302e312f77696e646f77732f676f312e342e32",
  "transactions": [
    {
      "hash": "0x2d38e034fc37a027d86192ad18e76b402204a769ad2b114752755428043e4a6f",
      "blockHash": "0xe87ef3124dbaa6a542ad9836ea82c0e9de67fcb4644c61cdb843f34c5d78f49c",
      "blockNumber": 70877,
      "transactionIndex": 0,
      "confirmations": null,
      "from": "0x051219f568c86EA6DD6Dd2cC8052c31504F33d44",
      "gasPrice": {
        "_hex": "0xd3d37f23a"
      },
      "gasLimit": {
        "_hex": "0x15f90"
      },
      "to": "0x1463cEF3d9007Db05b7C3B8981D38602EE0D855a",
      "value": {
        "_hex": "0x2b5e3af16b1880000"
      },
      "nonce": 2,
      "data": "0x",
      "r": "0x45cae0a301288a72ef6f3433bb36e6bf1b65ab7c9abdc092095269fc743198bf",
      "s": "0x536079f1b08f199fddfc65d4efe71112471f7fd78ef78b6199781b6665743557",
      "v": 28,
      "creates": null,
      "raw": "0xf86e02850d3d37f23a83015f90941463cef3d9007db05b7c3b8981d38602ee0d855a8902b5e3af16b1880000801ca045cae0a301288a72ef6f3433bb36e6bf1b65ab7c9abdc092095269fc743198bfa0536079f1b08f199fddfc65d4efe71112471f7fd78ef78b6199781b6665743557",
      "networkId": 0,
      "chainId": 0
    }
  ]
}