{
  "hash": "0x94256a95ac47db852b5f3cf8e47dd2d5600e340f62d9d50c5cdf6a7bc3082fdb",
  "parentHash": "0x23f9f69616a434da9c67365cad9830425d1fee79b501e3bb90a0837aded67957",
  "number": 104197,
  "timestamp": 1439865936,
  "nonce": "0xb43a404897caa134",
  "difficulty": 4264895251559,
  "gasLimit": {
    "_hex": "0x2fefd8"
  },
  "gasUsed": {
    "_hex": "0xa410"
  },
  "miner": "0xe6A7a1d47ff21B6321162AEA7C6CB457D5476Bca",
  "extraData": "0x476574682f76312e302e312d38326566323666362f6c696e75782f676f312e34",
  "transactions": [
    {
      "hash": "0xc9a4e49b15fb7a3625baf27a1edcafe50c5e78e9c0d6ff121278d61917382ce7",
      "blockHash": "0x94256a95ac47db852b5f3cf8e47dd2d5600e340f62d9d50c5cdf6a7bc3082fdb",
      "blockNumber": 104197,
      "transactionIndex": 0,
      "confirmations": null,
      "from": "0xAD220cCE3937674e425c9693786E3eC3615C900C",
      "gasPrice": {
        "_hex": "0xba43b7400"
      },
      "gasLimit": {
        "_hex": "0x5267"
      },
      "to": "0xB4137d028aBB8Dc65A224E4751397d50DdE6c73D",
      "value": {
        "_hex": "0xae037a10c69f8000"
      },
      "nonce": 3,
      "data": "0x",
      "r": "0xb92870e09d0129669b686a62fd8cdb84dc67824758ee2559e4f968c3e200c41b",
      "s": "0x47c18571f0efbef73015f6991940326f678ff4b577589a3d9f2310a59c992c58",
      "v": 28,
      "creates": null,
      "raw": "0xf86c03850ba43b740082526794b4137d028abb8dc65a224e4751397d50dde6c73d88ae037a10c69f8000801ca0b92870e09d0129669b686a62fd8cdb84dc67824758ee2559e4f968c3e200c41ba047c18571f0efbef73015f6991940326f678ff4b577589a3d9f2310a59c992c58",
      "networkId": 0,
      "chainId": 0
    },
    {
      "hash": "0xc7f680684997003560507f5ef39071776abbc647f5f53b8175e197d05f48b451",
      "blockHash": "0x94256a95ac47db852b5f3cf8e47dd2d5600e340f62d9d50c5cdf6a7bc3082fdb",
      "blockNumber": 104197,
      "transactionIndex": 1,
      "confirmations": null,
      "from": "0x1D3ffA437e5bce40fCC134f4E0ac62841E4A9E81",
      "gasPrice": {
        "_hex": "0xba43b7400"
      },
      "gasLimit": {
        "_hex": "0x5208"
      },
      "to": "0xC47Aaa860008be6f65B58c6C6E02a84e666EfE31",
      "value": {
        "_hex": "0x77559b773f586000"
      },
      "nonce": 12,
      "data": "0x",
      "r": "0x6f675bef783f071cc26db055b27c04b98f29fd0183184ddf5ddd0aed358514b7",
      "s": "0x287608f2cef17700ab47f66fd9cbd3d21e37c3f57791da89ab50b8f7f9966265",
      "v": 28,
      "creates": null,
      "raw": "0xf86c0c850ba43b740082520894c47aaa860008be6f65b58c6c6e02a84e666efe318877559b773f586000801ca06f675bef783f071cc26db055b27c04b98f29fd0183184ddf5ddd0aed358514b7a0287608f2cef17700ab47f66fd9cbd3d21e37c3f57791da89ab50b8f7f9966265",
      "networkId": 0,
      "chainId": 0
    }
  ]
}