{
  "hash": "0x0daf67f34504c70b73001c7a755d1088f0737d85ee24c46dfe02dfa955105040",
  "parentHash": "0x3f126f96b0de1a7b8042d48d94a9e441b8337a210c5c0678b81b68d977c5648f",
  "number": 97024,
  "timestamp": 1439749707,
  "nonce": "0x837457ecb138cb68",
  "difficulty": 3746797986235,
  "gasLimit": {
    "_hex": "0x2fefd8"
  },
  "gasUsed": {
    "_hex": "0xd236"
  },
  "miner": "0x785ffdDd5cE55c6DF963f345e68d3F2024E5Acb1",
  "extraData": "0x",
  "transactions": [
    {
      "hash": "0xfb652896870710143e882cdbab393624d373c42cf3d860a4f2bddf329f862d0a",
      "blockHash": "0x0daf67f34504c70b73001c7a755d1088f0737d85ee24c46dfe02dfa955105040",
      "blockNumber": 97024,
      "transactionIndex": 0,
      "confirmations": null,
      "from": "0xFBb1b73C4f0BDa4f67dcA266ce6Ef42f520fBB98",
      "gasPrice": {
        "_hex": "0xd548cf1c7"
      },
      "gasLimit": {
        "_hex": "0x15f90"
      },
      "to": "0xCAc7000C7dBaa2E33Af15325AF5D435E011C7BdD",
      "value": {
        "_hex": "0x0"
      },
      "nonce": 73,
      "data": "0x3feb1bd842495454524558303000000000000000000000000000000000000000000000000000000000000000000000006724eff089f9dd79c381137df68678bd574b37e000000000000000000000000000000000000000000000000045400a8fd5330000",
      "r": "0xce579bc186a1c744e2faa59d541fe81bcf2bb555de468aa75fd2cd6242d2cdfe",
      "s": "0x4fab96fb5afd01b87f0a73b9907e5eb651ad843694d2f94335a83a00013f258b",
      "v": 28,
      "creates": null,
      "raw": "0xf8ca49850d548cf1c783015f9094cac7000c7dbaa2e33af15325af5d435e011c7bdd80b8643feb1bd842495454524558303000000000000000000000000000000000000000000000000000000000000000000000006724eff089f9dd79c381137df68678bd574b37e000000000000000000000000000000000000000000000000045400a8fd53300001ca0ce579bc186a1c744e2faa59d541fe81bcf2bb555de468aa75fd2cd6242d2cdfea04fab96fb5afd01b87f0a73b9907e5eb651ad843694d2f94335a83a00013f258b",
      "networkId": 0,
      "chainId": 0
    },
    {
      "hash": "0xc43e764a79a56a8818336fea3413099a1fd0f997b5ef4dfbb5a552ac1c1073b2",
      "blockHash": "0x0daf67f34504c70b73001c7a755d1088f0737d85ee24c46dfe02dfa955105040",
      "blockNumber": 97024,
      "transactionIndex": 1,
      "confirmations": null,
      "from": "0xb1abce2918E21ddb93AA452731a12672A3d9F75a",
      "gasPrice": {
        "_hex": "0xd0f6ce815"
      },
      "gasLimit": {
        "_hex": "0x5208"
      },
      "to": "0x32Be343B94f860124dC4fEe278FDCBD38C102D88",
      "value": {
        "_hex": "0x455f6cf020a25400"
      },
      "nonce": 65,
      "data": "0x",
      "r": "0x1f92fedeb62641162e4c3fc0e733416282a81457c8b4792f99a179c7087bb934",
      "s": "0x7f0bf38b80f1c1dbae520733eccc4d0fbd856f8d492c45d32e80d88aae1585a2",
      "v": 27,
      "creates": null,
      "raw": "0xf86c41850d0f6ce8158252089432be343b94f860124dc4fee278fdcbd38c102d8888455f6cf020a25400801ba01f92fedeb62641162e4c3fc0e733416282a81457c8b4792f99a179c7087bb934a07f0bf38b80f1c1dbae520733eccc4d0fbd856f8d492c45d32e80d88aae1585a2",
      "networkId": 0,
      "chainId": 0
    }
  ]
}