{
  "hash": "0x9e746a366e3ebcb89ae88ab4ff6a94b115b593d1ecf4738895823b4bd20fa776",
  "parentHash": "0x4ee26c091b0ce38859c35ae5da39cef284b192eb676bf63b53c6eb95e68ccaa0",
  "number": 101062,
  "timestamp": 1439816869,
  "nonce": "0xa3ab30075cf1c17f",
  "difficulty": 3860102268765,
  "gasLimit": {
    "_hex": "0x2fefd8"
  },
  "gasUsed": {
    "_hex": "0xa410"
  },
  "miner": "0x9746c7e1ef2bd21FF3997fa467593a89cb852BD0",
  "extraData": "0x476574682f76312e302e312f77696e646f77732f676f312e342e32",
  "transactions": [
    {
      "hash": "0xf9ca2a4ac7a908a0977d5c66c717e60060d80953de0cd7c4af909b416676c229",
      "blockHash": "0x9e746a366e3ebcb89ae88ab4ff6a94b115b593d1ecf4738895823b4bd20fa776",
      "blockNumber": 101062,
      "transactionIndex": 0,
      "confirmations": null,
      "from": "0x2637e8641e6ef9C8951adf3E0c7058e76D766cbA",
      "gasPrice": {
        "_hex": "0xe0aa242d7"
      },
      "gasLimit": {
        "_hex": "0x5208"
      },
      "to": "0x32Be343B94f860124dC4fEe278FDCBD38C102D88",
      "value": {
        "_hex": "0xd11f81f7eabb0800"
      },
      "nonce": 4,
      "data": "0x",
      "r": "0xfea720ef8593b1d085e2bbd4d4a6457d2113412fe88938dbc5e03821c6514130",
      "s": "0x4ee15acdf0f1b5dd51f2df3dadf4f7593d8f91ca011c2d5f9f4565d133de823f",
      "v": 27,
      "creates": null,
      "raw": "0xf86c04850e0aa242d78252089432be343b94f860124dc4fee278fdcbd38c102d8888d11f81f7eabb0800801ba0fea720ef8593b1d085e2bbd4d4a6457d2113412fe88938dbc5e03821c6514130a04ee15acdf0f1b5dd51f2df3dadf4f7593d8f91ca011c2d5f9f4565d133de823f",
      "networkId": 0,
      "chainId": 0
    },
    {
      "hash": "0x66e42a4e987083916cfe875d8a1872fe6c63c1703518926b4ef4d562a0adb5dc",
      "blockHash": "0x9e746a366e3ebcb89ae88ab4ff6a94b115b593d1ecf4738895823b4bd20fa776",
      "blockNumber": 101062,
      "transactionIndex": 1,
      "confirmations": null,
      "from": "0xD9666150A9dA92d9108198a4072970805a8B3428",
      "gasPrice": {
        "_hex": "0xe0aa242d7"
      },
      "gasLimit": {
        "_hex": "0x5208"
      },
      "to": "0x32Be343B94f860124dC4fEe278FDCBD38C102D88",
      "value": {
        "_hex": "0x455f11a93e7c0400"
      },
      "nonce": 48,
      "data": "0x",
      "r": "0x9a116dd8952be24de92094e9601848bd433d457095cd0f32ac82510bc9bda717",
      "s": "0x101fd4bfda89186e919e28988c8849ab86b93731c63ad86df92a662efd162dbe",
      "v": 28,
      "creates": null,
      "raw": "0xf86c30850e0aa242d78252089432be343b94f860124dc4fee278fdcbd38c102d8888455f11a93e7c0400801ca09a116dd8952be24de92094e9601848bd433d457095cd0f32ac82510bc9bda717a0101fd4bfda89186e919e28988c8849ab86b93731c63ad86df92a662efd162dbe",
      "networkId": 0,
      "chainId": 0
    }
  ]
}