{
  "hash": "0x164a0f3fe94517995f16f44ead95d9a5ade9f3b20bacb1f945e6e5a4720be78c",
  "parentHash": "0x97650fa819fd3a3bb4a02ec46a7d2dfafe9bc80c891717b71fd80b4b2ede8664",
  "number": 107523,
  "timestamp": 1439923876,
  "nonce": "0xf7c3714a28ad10da",
  "difficulty": 4428704356734,
  "gasLimit": {
    "_hex": "0x2fefd8"
  },
  "gasUsed": {
    "_hex": "0xa410"
  },
  "miner": "0xe6A7a1d47ff21B6321162AEA7C6CB457D5476Bca",
  "extraData": "0x476574682f76312e302e312d38326566323666362f6c696e75782f676f312e34",
  "transactions": [
    {
      "hash": "0x8cde4dabe80f3b3d8e9becbe307e757c1e6d4f176767617a7f295ddf2bfb2cd3",
      "blockHash": "0x164a0f3fe94517995f16f44ead95d9a5ade9f3b20bacb1f945e6e5a4720be78c",
      "blockNumber": 107523,
      "transactionIndex": 0,
      "confirmations": null,
      "from": "0xE300c4587D260cE22a677755Db6429B491A4309E",
      "gasPrice": {
        "_hex": "0xdb5927d92"
      },
      "gasLimit": {
        "_hex": "0x15f90"
      },
      "to": "0x06EC48800B2DB3eEfa052e98A9b5Fc2Bf783Ee74",
      "value": {
        "_hex": "0x8ac7230489e80000"
      },
      "nonce": 25,
      "data": "0x",
      "r": "0x246b2ae57b78cc9d81e21b01688e809382fb3928793e6cb2b627ca55b1d91745",
      "s": "0x77e70196717ef11760ad4140aff0f3f0d8a7c582e24a7cab57bf13def94db130",
      "v": 27,
      "creates": null,
      "raw": "0xf86d19850db5927d9283015f909406ec48800b2db3eefa052e98a9b5fc2bf783ee74888ac7230489e80000801ba0246b2ae57b78cc9d81e21b01688e809382fb3928793e6cb2b627ca55b1d91745a077e70196717ef11760ad4140aff0f3f0d8a7c582e24a7cab57bf13def94db130",
      "networkId": 0,
      "chainId": 0
    },
    {
      "hash": "0xc2c0bbca90b878aed912404e560e944c5967be20b5fdaa0263635d2a1018526f",
      "blockHash": "0x164a0f3fe94517995f16f44ead95d9a5ade9f3b20bacb1f945e6e5a4720be78c",
      "blockNumber": 107523,
      "transactionIndex": 1,
      "confirmations": null,
      "from": "0x3fc4eAB8A8df5a124043b29146709935c65F1f7d",
      "gasPrice": {
        "_hex": "0xd606428e3"
      },
      "gasLimit": {
        "_hex": "0x15f90"
      },
      "to": "0x051B69BB7073F7385370C5751F988b31A7567a63",
      "value": {
        "_hex": "0x4af0a763bb1c0000"
      },
      "nonce": 5,
      "data": "0x",
      "r": "0x9d4772344b20df896235cb9b839e1e3b670c8f3c08a12233a5e073277e7af49c",
      "s": "0x27e7862264fa1023c8b24d94438096cd6d6234e8a086d07761be752d41b9171f",
      "v": 27,
      "creates": null,
      "raw": "0xf86d05850d606428e383015f9094051b69bb7073f7385370c5751f988b31a7567a63884af0a763bb1c0000801ba09d4772344b20df896235cb9b839e1e3b670c8f3c08a12233a5e073277e7af49ca027e7862264fa1023c8b24d94438096cd6d6234e8a086d07761be752d41b9171f",
      "networkId": 0,
      "chainId": 0
    }
  ]
}