{
  "hash": "0xfd8c33ad10a7b2a178a6a5cf75bd9d13b12c4de33522c2de0ea36e08d3f3963a",
  "parentHash": "0x89ddb627fe5fcc5bf2dbe351e88dbb88fbc00141d7f628071670a214321becc2",
  "number": 53799,
  "timestamp": 1439043853,
  "nonce": "0x23c050942330dba7",
  "difficulty": 1592355736845,
  "gasLimit": {
    "_hex": "0x2fefd8"
  },
  "gasUsed": {
    "_hex": "0xa410"
  },
  "miner": "0x4947190fcC30D3fb3a16233b259bFe6b3492339a",
  "extraData": "0x",
  "transactions": [
    {
      "hash": "0x31018c2fff83c2a0b7cc3244071f9310883b02e5fd6dd264ab0d5f18b998205b",
      "blockHash": "0xfd8c33ad10a7b2a178a6a5cf75bd9d13b12c4de33522c2de0ea36e08d3f3963a",
      "blockNumber": 53799,
      "transactionIndex": 0,
      "confirmations": null,
      "from": "0xa04f2Ae02add14C12FaF65Cb259022d0830a8E26",
      "gasPrice": {
        "_hex": "0xffca081a6d"
      },
      "gasLimit": {
        "_hex": "0x15f90"
      },
      "to": "0x640534BBfb5dFDA363A3Daf5ceb9B9E00cbB740E",
      "value": {
        "_hex": "0x878678326eac900000"
      },
      "nonce": 1,
      "data": "0x",
      "r": "0xbc53904521792c783fd93f98f6c0433ce52bf1e7a9c35eb57ec05678fcea09da",
      "s": "0x4738346efaabb0d4798e8bd110ad111c8be39493f71082970de22f181a5e3279",
      "v": 27,
      "creates": null,
      "raw": "0xf86e0185ffca081a6d83015f9094640534bbfb5dfda363a3daf5ceb9b9e00cbb740e89878678326eac900000801ba0bc53904521792c783fd93f98f6c0433ce52bf1e7a9c35eb57ec05678fcea09daa04738346efaabb0d4798e8bd110ad111c8be39493f71082970de22f181a5e3279",
      "networkId": 0,
      "chainId": 0
    },
    {
      "hash": "0x6d5016e1d8b02d63b553fcff113ffc1e8edd6c40d17f72d89c205a780541953b",
      "blockHash": "0xfd8c33ad10a7b2a178a6a5cf75bd9d13b12c4de33522c2de0ea36e08d3f3963a",
      "blockNumber": 53799,
      "transactionIndex": 1,
      "confirmations": null,
      "from": "0x96FE4AF671f8CAB38fdea75899658B3E7f4c58F8",
      "gasPrice": {
        "_hex": "0xd3e0dd636"
      },
      "gasLimit": {
        "_hex": "0x15f90"
      },
      "to": "0x1370F055DF0d0f3EAE7ab26B4C13E01A952972C0",
      "value": {
        "_hex": "0xde0b6b3a7640000"
      },
      "nonce": 0,
      "data": "0x",
      "r": "0x47fff0add3d2fdf145836044e2d4895f77675d2099a8cbf876d0d15efa01a7f0",
      "s": "0x0bf87a17f47824e68cc5fe4eddf66a14b56331eca439b7bf3739c1b3ca1038ca",
      "v": 28,
      "creates": null,
      "raw": "0xf86d80850d3e0dd63683015f90941370f055df0d0f3eae7ab26b4c13e01a952972c0880de0b6b3a7640000801ca047fff0add3d2fdf145836044e2d4895f77675d2099a8cbf876d0d15efa01a7f0a00bf87a17f47824e68cc5fe4eddf66a14b56331eca439b7bf3739c1b3ca1038ca",
      "networkId": 0,
      "chainId": 0
    }
  ]
}