{
  "hash": "0x15dff577ae4e6e599f090c8c80bd4c79ffb936b36153b8b75ce85b049d2138fe",
  "parentHash": "0xa9022770bf5fa6b7d70ecdd800bbc955619ffbc45e79143bf653d1d30274f1d6",
  "number": 119939,
  "timestamp": 1440151112,
  "nonce": "0x58da789137743d0f",
  "difficulty": 4426474887699,
  "gasLimit": {
    "_hex": "0x2fefd8"
  },
  "gasUsed": {
    "_hex": "0x5208"
  },
  "miner": "0xe6A7a1d47ff21B6321162AEA7C6CB457D5476Bca",
  "extraData": "0xd783010002844765746887676f312e342e32856c696e7578",
  "transactions": [
    {
      "hash": "0x6d7ea30065b3d3407be6e037d4d1ece74a2c9395519c605691dcd9176ff70096",
      "blockHash": "0x15dff577ae4e6e599f090c8c80bd4c79ffb936b36153b8b75ce85b049d2138fe",
      "blockNumber": 119939,
      "transactionIndex": 0,
      "confirmations": null,
      "from": "0xE9820EfC74A9fe5fb68bf1e0FBf9945c1302bC0B",
      "gasPrice": {
        "_hex": "0xba43b7400"
      },
      "gasLimit": {
        "_hex": "0x5208"
      },
      "to": "0x32Be343B94f860124dC4fEe278FDCBD38C102D88",
      "value": {
        "_hex": "0xddd05c5eda7a000"
      },
      "nonce": 11,
      "data": "0x",
      "r": "0x1c3c45c4cd8a790e5623e7a186da3dfac9611335e5ac55a7a2e15c6ce89590bc",
      "s": "0x3a07eff696e311010d3fb956a8b5ee3b7abbb80000048b92408febff5b39cdac",
      "v": 27,
      "creates": null,
      "raw": "0xf86c0b850ba43b74008252089432be343b94f860124dc4fee278fdcbd38c102d88880ddd05c5eda7a000801ba01c3c45c4cd8a790e5623e7a186da3dfac9611335e5ac55a7a2e15c6ce89590bca03a07eff696e311010d3fb956a8b5ee3b7abbb80000048b92408febff5b39cdac",
      "networkId": 0,
      "chainId": 0
    }
  ]
}