{
  "hash": "0xaf3fe77daa931144fabcc397ae1bd798fc7bf04c77c803d9fc0b4e9d036539fd",
  "parentHash": "0xccd0d8cf49198200c7621e52c701bb0f54464e98ae15836ddfe213385f3f006b",
  "number": 74246,
  "timestamp": 1439382920,
  "nonce": "0xbe36a26f84d629a5",
  "difficulty": 2215097897726,
  "gasLimit": {
    "_hex": "0x2fefd8"
  },
  "gasUsed": {
    "_hex": "0xa410"
  },
  "miner": "0x0037ce3d4B7f8729C8607D8D0248252Be68202c0",
  "extraData": "0x476574682f76312e302e312f77696e646f77732f676f312e342e32",
  "transactions": [
    {
      "hash": "0x5b4089930ee325b6d4f8c39b7d9a99df931f2d11816834126d6228e10cb7c873",
      "blockHash": "0xaf3fe77daa931144fabcc397ae1bd798fc7bf04c77c803d9fc0b4e9d036539fd",
      "blockNumber": 74246,
      "transactionIndex": 0,
      "confirmations": null,
      "from": "0xe6A7a1d47ff21B6321162AEA7C6CB457D5476Bca",
      "gasPrice": {
        "_hex": "0xcf44b59ff"
      },
      "gasLimit": {
        "_hex": "0x55f0"
      },
      "to": "0xE2376E68D8260aC85EA789CA4fAcce34a816dDeC",
      "value": {
        "_hex": "0x2a05b536ad4847e8"
      },
      "nonce": 762,
      "data": "0x",
      "r": "0x9e9e08248c072820815823fcb284f186c94631efbab7570f8ce5bdd8ff816300",
      "s": "0x47ceebf8d238b3a7bce336d97bd99eca5b3ce66c7fbc8fc8aa09dcd618831314",
      "v": 28,
      "creates": null,
      "raw": "0xf86e8202fa850cf44b59ff8255f094e2376e68d8260ac85ea789ca4facce34a816ddec882a05b536ad4847e8801ca09e9e08248c072820815823fcb284f186c94631efbab7570f8ce5bdd8ff816300a047ceebf8d238b3a7bce336d97bd99eca5b3ce66c7fbc8fc8aa09dcd618831314",
      "networkId": 0,
      "chainId": 0
    },
    {
      "hash": "0x1772b52adbfdeb626a6e09663021f603514da023a23c697042978f545ab4de01",
      "blockHash": "0xaf3fe77daa931144fabcc397ae1bd798fc7bf04c77c803d9fc0b4e9d036539fd",
      "blockNumber": 74246,
      "transactionIndex": 1,
      "confirmations": null,
      "from": "0xe6A7a1d47ff21B6321162AEA7C6CB457D5476Bca",
      "gasPrice": {
        "_hex": "0xcf44b59ff"
      },
      "gasLimit": {
        "_hex": "0x55f0"
      },
      "to": "0xB0798DE851A7C081C98966a7A0eE5C14231FB447",
      "value": {
        "_hex": "0x2aa9ec6585428780"
      },
      "nonce": 763,
      "data": "0x",
      "r": "0xbe19b40544954596533d331b937638aec8411fa4c1bfc5c08c24681ee71e2d2f",
      "s": "0x6c09ec224bb75f5f2e9ced7a370751d12ae13a1a4e054004604d7696aaedcc2b",
      "v": 28,
      "creates": null,
      "raw": "0xf86e8202fb850cf44b59ff8255f094b0798de851a7c081c98966a7a0ee5c14231fb447882aa9ec6585428780801ca0be19b40544954596533d331b937638aec8411fa4c1bfc5c08c24681ee71e2d2fa06c09ec224bb75f5f2e9ced7a370751d12ae13a1a4e054004604d7696aaedcc2b",
      "networkId": 0,
      "chainId": 0
    }
  ]
}