{
  "hash": "0xd0be6f3f7daea6542a03797ef99c61671b4d0520fc8408a17a01116c87b4a186",
  "parentHash": "0xce69a2a603ef0bff9f7423f55955e70ed2f7f6ce112091b6d8fa52d3393d3d51",
  "number": 102257,
  "timestamp": 1439835197,
  "nonce": "0x6b74e24725e6e692",
  "difficulty": 3937597459013,
  "gasLimit": {
    "_hex": "0x2fefd8"
  },
  "gasUsed": {
    "_hex": "0x19c8c"
  },
  "miner": "0xe6A7a1d47ff21B6321162AEA7C6CB457D5476Bca",
  "extraData": "0x476574682f76312e302e312d38326566323666362f6c696e75782f676f312e34",
  "transactions": [
    {
      "hash": "0x7e8df147c52c354861d6d3e959f224687ad186ca90bb924966a396a7575b37e7",
      "blockHash": "0xd0be6f3f7daea6542a03797ef99c61671b4d0520fc8408a17a01116c87b4a186",
      "blockNumber": 102257,
      "transactionIndex": 0,
      "confirmations": null,
      "from": "0xf2cC0eEAAAeD313542CB262B0B8c3972425143f0",
      "gasPrice": {
        "_hex": "0xe1cde26d6"
      },
      "gasLimit": {
        "_hex": "0x5208"
      },
      "to": "0x32Be343B94f860124dC4fEe278FDCBD38C102D88",
      "value": {
        "_hex": "0x7969b8f42c613c00"
      },
      "nonce": 14,
      "data": "0x",
      "r": "0xcc111d3d3c6685c09e666269d0f61c289c422431f9145b2be5151c47f1a99332",
      "s": "0x06cca3ec234e627919b653b7536284fb6b2d81d9d6d3058243dd7747ee6f99ec",
      "v": 27,
      "creates": null,
      "raw": "0xf86c0e850e1cde26d68252089432be343b94f860124dc4fee278fdcbd38c102d88887969b8f42c613c00801ba0cc111d3d3c6685c09e666269d0f61c289c422431f9145b2be5151c47f1a99332a006cca3ec234e627919b653b7536284fb6b2d81d9d6d3058243dd7747ee6f99ec",
      "networkId": 0,
      "chainId": 0
    },
    {
      "hash": "0xcdbd4227403e53781e0f4386289b32f9c1b979da7bb34b617513acae1d5b70d5",
      "blockHash": "0xd0be6f3f7daea6542a03797ef99c61671b4d0520fc8408a17a01116c87b4a186",
      "blockNumber": 102257,
      "transactionIndex": 1,
      "confirmations": null,
      "from": "0x19ae27E1b61445EB9f27821A5eB4b3e957319e7e",
      "gasPrice": {
        "_hex": "0xe1cde26d6"
      },
      "gasLimit": {
        "_hex": "0x5208"
      },
      "to": "0x32Be343B94f860124dC4fEe278FDCBD38C102D88",
      "value": {
        "_hex": "0xcb6b7aa18f82a00000"
      },
      "nonce": 15,
      "data": "0x",
      "r": "0x8ec420c18e5da4bc5f0377d0c0d1061a70be47e8f65fa2c5efbb52c81e775d00",
      "s": "0x748ba8710e8f1faa642d3e572b732ada1ae9ca183d00eb96fd8444a4b5d49c8c",
      "v": 28,
      "creates": null,
      "raw": "0xf86d0f850e1cde26d68252089432be343b94f860124dc4fee278fdcbd38c102d8889cb6b7aa18f82a00000801ca08ec420c18e5da4bc5f0377d0c0d1061a70be47e8f65fa2c5efbb52c81e775d00a0748ba8710e8f1faa642d3e572b732ada1ae9ca183d00eb96fd8444a4b5d49c8c",
      "networkId": 0,
      "chainId": 0
    },
    {
      "hash": "0x8c23f8266ba39c45573945983ae83f9a6116a9b162fdd92cb32ee2b50500bb72",
      "blockHash": "0xd0be6f3f7daea6542a03797ef99c61671b4d0520fc8408a17a01116c87b4a186",
      "blockNumber": 102257,
      "transactionIndex": 2,
      "confirmations": null,
      "from": "0x29C0024a99b44d481694cB5D98907a1343D390fD",
      "gasPrice": {
        "_hex": "0xd6bd60364"
      },
      "gasLimit": {
        "_hex": "0x55f0"
      },
      "to": "0x2910543Af39abA0Cd09dBb2D50200b3E800A63D2",
      "value": {
        "_hex": "0x6124fee993bc0000"
      },
      "nonce": 10,
      "data": "0x454e47515236453447",
      "r": "0x9b7922ff039fa878c5d047e75a31f049b2a50f100231dc82905f0222d19e2c62",
      "s": "0x691523ecb067e0fd696833fb54bc802a953bef293993a58e4ce3369b1681ed5f",
      "v": 27,
      "creates": null,
      "raw": "0xf8750a850d6bd603648255f0942910543af39aba0cd09dbb2d50200b3e800a63d2886124fee993bc000089454e475152364534471ba09b7922ff039fa878c5d047e75a31f049b2a50f100231dc82905f0222d19e2c62a0691523ecb067e0fd696833fb54bc802a953bef293993a58e4ce3369b1681ed5f",
      "networkId": 0,
      "chainId": 0
    },
    {
      "hash": "0x44df89552efe27991fbf78e96f7dddda83145de71270e864af6da2bb91b20502",
      "blockHash": "0xd0be6f3f7daea6542a03797ef99c61671b4d0520fc8408a17a01116c87b4a186",
      "blockNumber": 102257,
      "transactionIndex": 3,
      "confirmations": null,
      "from": "0x17e321fEf1fEbB6F884227AbCFfBf17A0828B0D8",
      "gasPrice": {
        "_hex": "0xd2079f79b"
      },
      "gasLimit": {
        "_hex": "0x5208"
      },
      "to": "0x0a41Be86378F36BA0823db204723693c0836a3E9",
      "value": {
        "_hex": "0x455f5cb22fd49d28"
      },
      "nonce": 0,
      "data": "0x",
      "r": "0x66d8094d0b85071cd617b0979c098b183a3c1a9a0e2d363caf092065da0bc39e",
      "s": "0x14dc2b798eabd5dc04b613979adafb4a865450bc8412fe01ef95d564c2cef38f",
      "v": 28,
      "creates": null,
      "raw": "0xf86c80850d2079f79b825208940a41be86378f36ba0823db204723693c0836a3e988455f5cb22fd49d28801ca066d8094d0b85071cd617b0979c098b183a3c1a9a0e2d363caf092065da0bc39ea014dc2b798eabd5dc04b613979adafb4a865450bc8412fe01ef95d564c2cef38f",
      "networkId": 0,
      "chainId": 0
    },
    {
      "hash": "0xfcc887c46072b4027059f0665e6e6b055fa0582644339f8e1b147170d6c87745",
      "blockHash": "0xd0be6f3f7daea6542a03797ef99c61671b4d0520fc8408a17a01116c87b4a186",
      "blockNumber": 102257,
      "transactionIndex": 4,
      "confirmations": null,
      "from": "0xa70a9a7040d542C632D8e0bE7c5513A8a5Bbc752",
      "gasPrice": {
        "_hex": "0xccc160c60"
      },
      "gasLimit": {
        "_hex": "0x5208"
      },
      "to": "0x32Be343B94f860124dC4fEe278FDCBD38C102D88",
      "value": {
        "_hex": "0x3406935b42878000"
      },
      "nonce": 219,
      "data": "0x",
      "r": "0xe4537278b16266b6e762d5fff1b9e5e3300db840edcd4019c7cc303864d4451b",
      "s": "0x36b264e9059dffe844f58bb66ce4b5175371c56987dd680680d4172b51855795",
      "v": 27,
      "creates": null,
      "raw": "0xf86d81db850ccc160c608252089432be343b94f860124dc4fee278fdcbd38c102d88883406935b42878000801ba0e4537278b16266b6e762d5fff1b9e5e3300db840edcd4019c7cc303864d4451ba036b264e9059dffe844f58bb66ce4b5175371c56987dd680680d4172b51855795",
      "networkId": 0,
      "chainId": 0
    }
  ]
}