{
  "hash": "0x7bcc8565deeed93c9bcd72bf426f77eb2adf647de4b0142b6584ce5977eb626d",
  "parentHash": "0x5735de98455ff52925460b6a020232f2416388024b17d5b6216d2de3208f5c59",
  "number": 61022,
  "timestamp": 1439165370,
  "nonce": "0x551f83060860676f",
  "difficulty": 1737995399257,
  "gasLimit": {
    "_hex": "0x2fefd8"
  },
  "gasUsed": {
    "_hex": "0x5208"
  },
  "miner": "0xEF247E639d49461D25F57e9362CadE3120910Ce0",
  "extraData": "0x476574682f76312e302e312f6c696e75782f676f312e342e32",
  "transactions": [
    {
      "hash": "0x6fdf702fa8b4f4d916e0ae3993aad212ba031c113a9c0e8163f8f086d305caf7",
      "blockHash": "0x7bcc8565deeed93c9bcd72bf426f77eb2adf647de4b0142b6584ce5977eb626d",
      "blockNumber": 61022,
      "transactionIndex": 0,
      "confirmations": null,
      "from": "0x120A270bbC009644e35F0bB6ab13f95b8199c4ad",
      "gasPrice": {
        "_hex": "0xd06cf9e9d"
      },
      "gasLimit": {
        "_hex": "0x15f90"
      },
      "to": "0xd245f458FD6a42D1D3de1E48C3885890A28b1D26",
      "value": {
        "_hex": "0x50ea91097ba9ff000"
      },
      "nonce": 67,
      "data": "0x",
      "r": "0x37fc7c0b1d66d28f3f542bd177a37d3b2bb19ecc8fc3be6dc83f3cc4a93d03ac",
      "s": "0x7716342b85d2311ae838a9d9bc2bb0f0c4c1cb9add9a677b4d58373a7b694a72",
      "v": 28,
      "creates": null,
      "raw": "0xf86e43850d06cf9e9d83015f9094d245f458fd6a42d1d3de1e48c3885890a28b1d2689050ea91097ba9ff000801ca037fc7c0b1d66d28f3f542bd177a37d3b2bb19ecc8fc3be6dc83f3cc4a93d03aca07716342b85d2311ae838a9d9bc2bb0f0c4c1cb9add9a677b4d58373a7b694a72",
      "networkId": 0,
      "chainId": 0
    }
  ]
}