{
  "hash": "0x088df556549197d5a1c5420d24d02430ac1c5d38f7ef5d559865286a97b1a0d9",
  "parentHash": "0x033fb53d588cbd450228a576b5c862d9990c8cc69499aaf97ed388c466c956a9",
  "number": 52072,
  "timestamp": 1439015585,
  "nonce": "0x9b7f4ea602b28459",
  "difficulty": 1564167888640,
  "gasLimit": {
    "_hex": "0x10100d"
  },
  "gasUsed": {
    "_hex": "0x5208"
  },
  "miner": "0xbb7B8287f3F0a933474a79eAe42CBCa977791171",
  "extraData": "0x476574682f4c5649562f76312e302e312f6c696e75782f676f312e342e32",
  "transactions": [
    {
      "hash": "0xa9ed5f6807006375ddb821abd4ed53cffe514255a8550f5efd988849e8d2c4c4",
      "blockHash": "0x088df556549197d5a1c5420d24d02430ac1c5d38f7ef5d559865286a97b1a0d9",
      "blockNumber": 52072,
      "transactionIndex": 0,
      "confirmations": null,
      "from": "0xCA092A957744f6385B1aee5dC694143E8A06F805",
      "gasPrice": {
        "_hex": "0xdd6ecde05"
      },
      "gasLimit": {
        "_hex": "0x15f90"
      },
      "to": "0x7D1Ed2a26C8F85B7508bB6E5dABC2516448Bd3b4",
      "value": {
        "_hex": "0x42ff712c265400"
      },
      "nonce": 10,
      "data": "0x",
      "r": "0x99bcdb49f73ea1b2cd80f5743ee8879ea4fe3404cc8a1cc4b1c23036714c1d5b",
      "s": "0x664036b84f17ae3748a071c164ebb2466640ac525ffce9c10f87b2a2acaa20bb",
      "v": 27,
      "creates": null,
      "raw": "0xf86c0a850dd6ecde0583015f90947d1ed2a26c8f85b7508bb6e5dabc2516448bd3b48742ff712c265400801ba099bcdb49f73ea1b2cd80f5743ee8879ea4fe3404cc8a1cc4b1c23036714c1d5ba0664036b84f17ae3748a071c164ebb2466640ac525ffce9c10f87b2a2acaa20bb",
      "networkId": 0,
      "chainId": 0
    }
  ]
}