{
  "hash": "0xbf4d203a05645eca03e853005a1a74a7d35f21a993e73f26947dca3ab0f5492d",
  "parentHash": "0x6cd4e43b81c045b17a1dac16c21b4dd1906fc791803e5ffa6a45c5795d14ca59",
  "number": 94572,
  "timestamp": 1439710446,
  "nonce": "0x775ca2e621ec13fb",
  "difficulty": 3496833914055,
  "gasLimit": {
    "_hex": "0x2fefd8"
  },
  "gasUsed": {
    "_hex": "0x5208"
  },
  "miner": "0xe6A7a1d47ff21B6321162AEA7C6CB457D5476Bca",
  "extraData": "0x476574682f76312e302e312d38326566323666362f6c696e75782f676f312e34",
  "transactions": [
    {
      "hash": "0x0f207ad90d27f0f2d20558bd3d9ba0703f7de852605e8b9e0897a684ce9b11f4",
      "blockHash": "0xbf4d203a05645eca03e853005a1a74a7d35f21a993e73f26947dca3ab0f5492d",
      "blockNumber": 94572,
      "transactionIndex": 0,
      "confirmations": null,
      "from": "0x3a35269a1cF41344F2288e9D11bA854991112015",
      "gasPrice": {
        "_hex": "0xd6b187d36"
      },
      "gasLimit": {
        "_hex": "0x15f90"
      },
      "to": "0xd70c667add50d3d9989Ef58A81a698c09f415Bff",
      "value": {
        "_hex": "0x16345785d8a0000"
      },
      "nonce": 9,
      "data": "0x",
      "r": "0x8d811095e9a950b54d963094f3e59eaeb8c26d95aa1a8b5923387b9fdaadc6c9",
      "s": "0x04116c1aa753f71726ed9b938894a3b5989cf87e9432484770c9a9a7ab55d2c2",
      "v": 27,
      "creates": null,
      "raw": "0xf86d09850d6b187d3683015f9094d70c667add50d3d9989ef58a81a698c09f415bff88016345785d8a0000801ba08d811095e9a950b54d963094f3e59eaeb8c26d95aa1a8b5923387b9fdaadc6c9a004116c1aa753f71726ed9b938894a3b5989cf87e9432484770c9a9a7ab55d2c2",
      "networkId": 0,
      "chainId": 0
    }
  ]
}