{
  "hash": "0x67434132a632fe982aebbfc84a505ff50744896345fb7d7b29410ea1348c34cd",
  "parentHash": "0x50ba498c1d66e72f738b1a8269ff5f2e69580b22878645a97b5212f3cc4e47cd",
  "number": 108254,
  "timestamp": 1439937198,
  "nonce": "0x17dba540c41c44ca",
  "difficulty": 4349032999103,
  "gasLimit": {
    "_hex": "0x2fefd8"
  },
  "gasUsed": {
    "_hex": "0x5208"
  },
  "miner": "0xe6A7a1d47ff21B6321162AEA7C6CB457D5476Bca",
  "extraData": "0x476574682f76312e302e312d38326566323666362f6c696e75782f676f312e34",
  "transactions": [
    {
      "hash": "0x877f0b40c3869fe64c24795e11174ebf562bf42a4d40665736257d95eff79e3b",
      "blockHash": "0x67434132a632fe982aebbfc84a505ff50744896345fb7d7b29410ea1348c34cd",
      "blockNumber": 108254,
      "transactionIndex": 0,
      "confirmations": null,
      "from": "0xc0fA87135254768597352383959A855181c4aAf6",
      "gasPrice": {
        "_hex": "0xcb98f5fa6"
      },
      "gasLimit": {
        "_hex": "0x7a120"
      },
      "to": "0xBBDa93a81B882774e1c9b5e3F933Fa35DaC8bc88",
      "value": {
        "_hex": "0x11523b131c48d0000"
      },
      "nonce": 1,
      "data": "0x",
      "r": "0x012de5044cc78a152edab2d52355572448263dc56a5590a0a58dc0a4651eae52",
      "s": "0x018f58c9a1899daec2302a68952d9a6a02bdd799350e3db6c6a3a40ad55c319d",
      "v": 28,
      "creates": null,
      "raw": "0xf86e01850cb98f5fa68307a12094bbda93a81b882774e1c9b5e3f933fa35dac8bc8889011523b131c48d0000801ca0012de5044cc78a152edab2d52355572448263dc56a5590a0a58dc0a4651eae52a0018f58c9a1899daec2302a68952d9a6a02bdd799350e3db6c6a3a40ad55c319d",
      "networkId": 0,
      "chainId": 0
    }
  ]
}