{
  "hash": "0xa38006b0d761e2e62f1c71c1b8707c0dae42bf0af99634be88ea58b01b47ec70",
  "parentHash": "0xdec9a55de0aaefbdb59087e38dc84ca771ee9f6d688412497181f129d3d71c2f",
  "number": 71011,
  "timestamp": 1439329004,
  "nonce": "0xb545c8887f78947e",
  "difficulty": 2159341542848,
  "gasLimit": {
    "_hex": "0x2fefd8"
  },
  "gasUsed": {
    "_hex": "0x5208"
  },
  "miner": "0x88D74a59454F6cF3B51ef6b9136AFb6b9D405A88",
  "extraData": "0x476574682f76312e302e312d37666266393930632f6c696e75782f676f312e34",
  "transactions": [
    {
      "hash": "0x8d1a5b079786fc4aee3f9d929fe77d1a9381001399f3a2a9cc45efacc89b258b",
      "blockHash": "0xa38006b0d761e2e62f1c71c1b8707c0dae42bf0af99634be88ea58b01b47ec70",
      "blockNumber": 71011,
      "transactionIndex": 0,
      "confirmations": null,
      "from": "0xee5379D0c1ca47327368027455074C26D9952628",
      "gasPrice": {
        "_hex": "0xd20458dc5"
      },
      "gasLimit": {
        "_hex": "0x15f90"
      },
      "to": "0xB8796061FcCcC0c40BD2060d95d6cff928bD1C1B",
      "value": {
        "_hex": "0x2f5ba2ab780540000"
      },
      "nonce": 4,
      "data": "0x",
      "r": "0x1d3597a8e059f4b4081586c889cd6e61c3644411cd427ac77007b57d8a9671a9",
      "s": "0x00382eb3c65b05130119c92765db59cdc6b856e72f71f133356ec9fcec55813c",
      "v": 27,
      "creates": null,
      "raw": "0xf86d04850d20458dc583015f9094b8796061fcccc0c40bd2060d95d6cff928bd1c1b8902f5ba2ab780540000801ba01d3597a8e059f4b4081586c889cd6e61c3644411cd427ac77007b57d8a9671a99f382eb3c65b05130119c92765db59cdc6b856e72f71f133356ec9fcec55813c",
      "networkId": 0,
      "chainId": 0
    }
  ]
}