{
  "hash": "0xb183b205ecea595dfecfcc1b3739b0e0cb4e13208c3bc5cdbf53d91fb3b39697",
  "parentHash": "0x9b46af0f06ab1b73859749cb82c0b4e4ba77fd2158a2d154905939f612966c05",
  "number": 46496,
  "timestamp": 1438924107,
  "nonce": "0x345a8470d8f0310d",
  "difficulty": 1466075349942,
  "gasLimit": {
    "_hex": "0x64ea"
  },
  "gasUsed": {
    "_hex": "0x5a98"
  },
  "miner": "0xbb7B8287f3F0a933474a79eAe42CBCa977791171",
  "extraData": "0x476574682f4c5649562f76312e302e312f6c696e75782f676f312e342e32",
  "transactions": [
    {
      "hash": "0x607d6c44a23ee2d2c1958d544cd02cfe56689f043e534824e45fcaeb6337980e",
      "blockHash": "0xb183b205ecea595dfecfcc1b3739b0e0cb4e13208c3bc5cdbf53d91fb3b39697",
      "blockNumber": 46496,
      "transactionIndex": 0,
      "confirmations": null,
      "from": "0x22F2DcFf5aD78c3Eb6850B5Cb951127B659522E6",
      "gasPrice": {
        "_hex": "0x746a528800"
      },
      "gasLimit": {
        "_hex": "0x61a8"
      },
      "to": "0x0000000000000000000000000000000000000000",
      "value": {
        "_hex": "0x0"
      },
      "nonce": 6,
      "data": "0xbe99a980676f640000000000000000000000000000000000000000000000000000000000000000000000000000000000b5ce1861d98e85c84531dbc18720278328fd97f60000000000000000000000000000000000000000000000000000000000000001",
      "r": "0x2cea2198da87fb07312c3d2317cfc7551389afa0284434c5d1a36ca8b105c734",
      "s": "0x3c11709675549f736ecfb8f639ad6f3f7fc9638c2085c0af084ab56bfba969a4",
      "v": 27,
      "creates": null,
      "raw": "0xf8c90685746a5288008261a894000000000000000000000000000000000000000080b864be99a980676f640000000000000000000000000000000000000000000000000000000000000000000000000000000000b5ce1861d98e85c84531dbc18720278328fd97f600000000000000000000000000000000000000000000000000000000000000011ba02cea2198da87fb07312c3d2317cfc7551389afa0284434c5d1a36ca8b105c734a03c11709675549f736ecfb8f639ad6f3f7fc9638c2085c0af084ab56bfba969a4",
      "networkId": 0,
      "chainId": 0
    }
  ]
}