{
  "hash": "0x6f205629c1cf85b9fb7984ae5545352f66e8e4639028a9b73ed92b535f074aa9",
  "parentHash": "0x423c2c7fb3ee1ce7e6ab98f3b5a24a6524d22cec50536ff06a37f865e5ca6f1f",
  "number": 99605,
  "timestamp": 1439792980,
  "nonce": "0x25302085fe9af525",
  "difficulty": 3784250439291,
  "gasLimit": {
    "_hex": "0x2fefd8"
  },
  "gasUsed": {
    "_hex": "0x5208"
  },
  "miner": "0xe6A7a1d47ff21B6321162AEA7C6CB457D5476Bca",
  "extraData": "0x476574682f76312e302e312d38326566323666362f6c696e75782f676f312e34",
  "transactions": [
    {
      "hash": "0x34c294a53022960c9839cde94b98fe5ca0aaa2d58429d71ead72be78b27756b8",
      "blockHash": "0x6f205629c1cf85b9fb7984ae5545352f66e8e4639028a9b73ed92b535f074aa9",
      "blockNumber": 99605,
      "transactionIndex": 0,
      "confirmations": null,
      "from": "0x0025BC2515C073784222cBCd1E988dBa9a0f75AF",
      "gasPrice": {
        "_hex": "0xba43b7400"
      },
      "gasLimit": {
        "_hex": "0x9965e"
      },
      "to": "0x00f222E7C680F9932feCAC767cC279C84C0A3285",
      "value": {
        "_hex": "0x2386f26fc10000"
      },
      "nonce": 1,
      "data": "0x",
      "r": "0xe04c7a7e17ad11ddb2184a51415ad1488f28e2e31d49f841208ccf2fd85361d5",
      "s": "0x2553567959261f93ed66fbc70d22334c3878b4232f520bb685a2d062038cc659",
      "v": 27,
      "creates": null,
      "raw": "0xf86c01850ba43b74008309965e9400f222e7c680f9932fecac767cc279c84c0a3285872386f26fc10000801ba0e04c7a7e17ad11ddb2184a51415ad1488f28e2e31d49f841208ccf2fd85361d5a02553567959261f93ed66fbc70d22334c3878b4232f520bb685a2d062038cc659",
      "networkId": 0,
      "chainId": 0
    }
  ]
}