{
  "hash": "0x7513a89b65a3d635f78c5d26a863b5cbae1fdb2f8052409dc1fb8ee4fc56839d",
  "parentHash": "0xa67fc102f6aec8f645a677cf014491be09cf6f8613e6ab152b156128b8153477",
  "number": 46483,
  "timestamp": 1438923919,
  "nonce": "0x1855b13bca5bbb85",
  "difficulty": 1466793655020,
  "gasLimit": {
    "_hex": "0x63f5"
  },
  "gasUsed": {
    "_hex": "0x5208"
  },
  "miner": "0x25A0be9f6fCbDE4F61024B86a33dd80F7cbB3cEc",
  "extraData": "0x6661726d2032",
  "transactions": [
    {
      "hash": "0xbc2dfce83c5423320bdede182bb0491f76d3c33aeb3cba782640e6c954a51deb",
      "blockHash": "0x7513a89b65a3d635f78c5d26a863b5cbae1fdb2f8052409dc1fb8ee4fc56839d",
      "blockNumber": 46483,
      "transactionIndex": 0,
      "confirmations": null,
      "from": "0x8566610901AACe38b83244F3A9c831306a67b9dc",
      "gasPrice": {
        "_hex": "0x746a528800"
      },
      "gasLimit": {
        "_hex": "0x5208"
      },
      "to": "0x900C0aFc99968F30e64a7DEe5828042b6422a098",
      "value": {
        "_hex": "0xad78ebc5ac6200000"
      },
      "nonce": 1,
      "data": "0x",
      "r": "0xe47e6fa4b76a9a7894e6ff0350894ed1294cdb1be86058bef721dffc2d1b9a1a",
      "s": "0x7767354ffb23312b7380864f4e5904cc007e97f383c11513b8044e307cfb793f",
      "v": 27,
      "creates": null,
      "raw": "0xf86d0185746a52880082520894900c0afc99968f30e64a7dee5828042b6422a098890ad78ebc5ac6200000801ba0e47e6fa4b76a9a7894e6ff0350894ed1294cdb1be86058bef721dffc2d1b9a1aa07767354ffb23312b7380864f4e5904cc007e97f383c11513b8044e307cfb793f",
      "networkId": 0,
      "chainId": 0
    }
  ]
}