{
  "hash": "0x5a7f653b056cbf11034633c3238429230942ea5e88e4105b1c39eb8be4c75e0d",
  "parentHash": "0xa250feb13aad9fe7a7f978ba2c0e258e060fa16c61d335b8588f73690a97ae21",
  "number": 77370,
  "timestamp": 1439436029,
  "nonce": "0x5876ecc3c497cce2",
  "difficulty": 2233820288208,
  "gasLimit": {
    "_hex": "0x2fefd8"
  },
  "gasUsed": {
    "_hex": "0x5208"
  },
  "miner": "0xF2d2AfF1320476cb8C6b607199D23175cc595693",
  "extraData": "0x476574682f76312e302e312f77696e646f77732f676f312e342e32",
  "transactions": [
    {
      "hash": "0x6b3fefe995e2f2029d89b37c43b95ee9c09d963a0f9b85eae2f00df583842a37",
      "blockHash": "0x5a7f653b056cbf11034633c3238429230942ea5e88e4105b1c39eb8be4c75e0d",
      "blockNumber": 77370,
      "transactionIndex": 0,
      "confirmations": null,
      "from": "0xC603Ab5ef41fC61AA8b76bEddb09e3Cfcbb174BD",
      "gasPrice": {
        "_hex": "0xcf5a58111"
      },
      "gasLimit": {
        "_hex": "0x15f90"
      },
      "to": "0x8F79f76381Aad7B98C19aF55eE75fdfEeb012211",
      "value": {
        "_hex": "0x3afb087b876900000"
      },
      "nonce": 4,
      "data": "0x",
      "r": "0xf14c71286e9c566b9f7225781862569b2ee577c7bf506ace058d6e0766ce0273",
      "s": "0x1fd8998081a73b82039f4ffc933bdb4160fe0da1dea29bc62bd0a794a5f1edca",
      "v": 28,
      "creates": null,
      "raw": "0xf86e04850cf5a5811183015f90948f79f76381aad7b98c19af55ee75fdfeeb0122118903afb087b876900000801ca0f14c71286e9c566b9f7225781862569b2ee577c7bf506ace058d6e0766ce0273a01fd8998081a73b82039f4ffc933bdb4160fe0da1dea29bc62bd0a794a5f1edca",
      "networkId": 0,
      "chainId": 0
    }
  ]
}