{
  "hash": "0x0e7190c6e9a322f90413be29b1964bf9bbcf38d0166f7f28f64b43ae1cf4e4f5",
  "parentHash": "0xd62004a2d19c2a0f89aa250cee5e589a068c121271b4dcc1e4090478d325dddc",
  "number": 97043,
  "timestamp": 1439749963,
  "nonce": "0xd3c004f98bcc9b60",
  "difficulty": 3748619433764,
  "gasLimit": {
    "_hex": "0x2fefd8"
  },
  "gasUsed": {
    "_hex": "0x5208"
  },
  "miner": "0xe6A7a1d47ff21B6321162AEA7C6CB457D5476Bca",
  "extraData": "0x476574682f76312e302e312d38326566323666362f6c696e75782f676f312e34",
  "transactions": [
    {
      "hash": "0x8aedb0f708d1ece0313a0a3901353ea645cedaeb155c88ecddf88aae2bc2d5de",
      "blockHash": "0x0e7190c6e9a322f90413be29b1964bf9bbcf38d0166f7f28f64b43ae1cf4e4f5",
      "blockNumber": 97043,
      "transactionIndex": 0,
      "confirmations": null,
      "from": "0xa6BDc31c431B8F97848c9D60cbbe9660dc450eB7",
      "gasPrice": {
        "_hex": "0xd612968d2"
      },
      "gasLimit": {
        "_hex": "0x5208"
      },
      "to": "0x32Be343B94f860124dC4fEe278FDCBD38C102D88",
      "value": {
        "_hex": "0x455f3d069bf28400"
      },
      "nonce": 127,
      "data": "0x",
      "r": "0xb6c76dfb552ae5bc9f386dde643435c47e09e5d3f9cd4867d7a233a173551322",
      "s": "0x596325d4f49989540dc06318e912720e0a3a2821c35d1251d0492e25169f447c",
      "v": 27,
      "creates": null,
      "raw": "0xf86c7f850d612968d28252089432be343b94f860124dc4fee278fdcbd38c102d8888455f3d069bf28400801ba0b6c76dfb552ae5bc9f386dde643435c47e09e5d3f9cd4867d7a233a173551322a0596325d4f49989540dc06318e912720e0a3a2821c35d1251d0492e25169f447c",
      "networkId": 0,
      "chainId": 0
    }
  ]
}