{
  "hash": "0x52a4c56878470c5e45e2c8b30282f329cb3f11145aa26775998fdb88281928d2",
  "parentHash": "0x93b4dcdc25305b60eb13a2bb0dac4a8918b5a44e70f08e649d8144d174551b8b",
  "number": 101769,
  "timestamp": 1439827790,
  "nonce": "0xf34e346dc9c11e0e",
  "difficulty": 3884355413793,
  "gasLimit": {
    "_hex": "0x2fefd8"
  },
  "gasUsed": {
    "_hex": "0x520c"
  },
  "miner": "0xC603Ab5ef41fC61AA8b76bEddb09e3Cfcbb174BD",
  "extraData": "0x476574682f76312e302e312f77696e646f77732f676f312e342e32",
  "transactions": [
    {
      "hash": "0x5426ec94a628d048d8df2ed9a32850cde728d296dabf74d600774e652a4c4096",
      "blockHash": "0x52a4c56878470c5e45e2c8b30282f329cb3f11145aa26775998fdb88281928d2",
      "blockNumber": 101769,
      "transactionIndex": 0,
      "confirmations": null,
      "from": "0x95a204DD5D814E40f300bA0DfB1194286F03e28A",
      "gasPrice": {
        "_hex": "0xda38dff58"
      },
      "gasLimit": {
        "_hex": "0x7530"
      },
      "to": "0x7cB57B5A97eAbe94205C07890BE4c1aD31E486A8",
      "value": {
        "_hex": "0x13b497c2531ead0"
      },
      "nonce": 8,
      "data": "0x00",
      "r": "0xb4d2d8008284b8ed8d62c2d1576ba475b16856de37e2dabf500adf9da99defcd",
      "s": "0x751bb395747b9f6cc952e4a3371215de8c6ce7b7f783f0b68331343e181b3a3c",
      "v": 28,
      "creates": null,
      "raw": "0xf86c08850da38dff58827530947cb57b5a97eabe94205c07890be4c1ad31e486a888013b497c2531ead0001ca0b4d2d8008284b8ed8d62c2d1576ba475b16856de37e2dabf500adf9da99defcda0751bb395747b9f6cc952e4a3371215de8c6ce7b7f783f0b68331343e181b3a3c",
      "networkId": 0,
      "chainId": 0
    }
  ]
}