{
  "hash": "0xcacb9d1ad95643caffce9a37f7f10053b4fff72844eebefe70a0c23fd9db82e2",
  "parentHash": "0xf318c92c85b59ab982441113cc988486ba39e0c6e4914944ae7433aa0da8379d",
  "number": 80326,
  "timestamp": 1439483922,
  "nonce": "0x19e45a339636ca6a",
  "difficulty": 2379374024709,
  "gasLimit": {
    "_hex": "0x2fefd8"
  },
  "gasUsed": {
    "_hex": "0x6ed7"
  },
  "miner": "0xC603Ab5ef41fC61AA8b76bEddb09e3Cfcbb174BD",
  "extraData": "0x476574682f76312e302e312f77696e646f77732f676f312e342e32",
  "transactions": [
    {
      "hash": "0x9f195ed83be6a93e7e8a5368759a457bc480a8fd7353b7f6039fd3e960efddec",
      "blockHash": "0xcacb9d1ad95643caffce9a37f7f10053b4fff72844eebefe70a0c23fd9db82e2",
      "blockNumber": 80326,
      "transactionIndex": 0,
      "confirmations": null,
      "from": "0x87C5B5874A18B4306DF8a752a6C8cc3E82daFc19",
      "gasPrice": {
        "_hex": "0x116dcfae5e0"
      },
      "gasLimit": {
        "_hex": "0x493e0"
      },
      "to": "0xC4c51de1AbF5D60DBd329eC0F999Fd8f021ae9fC",
      "value": {
        "_hex": "0x0"
      },
      "nonce": 174,
      "data": "0xbd66528a6b6b6b0000000000000000000000000000000000000000000000000000000000",
      "r": "0xd07c8580d07325ab92c3991ea8859b35fab20b3572a394887a68698c1be2728f",
      "s": "0x744848a0934f9383f1f51485d5a368e9736eb62c2191fd8f5c2f4ec4b9c35a83",
      "v": 28,
      "creates": null,
      "raw": "0xf88b81ae860116dcfae5e0830493e094c4c51de1abf5d60dbd329ec0f999fd8f021ae9fc80a4bd66528a6b6b6b00000000000000000000000000000000000000000000000000000000001ca0d07c8580d07325ab92c3991ea8859b35fab20b3572a394887a68698c1be2728fa0744848a0934f9383f1f51485d5a368e9736eb62c2191fd8f5c2f4ec4b9c35a83",
      "networkId": 0,
      "chainId": 0
    }
  ]
}