{
  "hash": "0xd782c1530d84ab8b66831fd9977237a2bbfc54ba363f70208c8293eb4a0f605e",
  "parentHash": "0xf1293e4d4d17b68ad6fe177ea158166208b63ea0a942724987f7200c507cb566",
  "number": 112728,
  "timestamp": 1440012303,
  "nonce": "0x7a5b3b242a949aa9",
  "difficulty": 4432445354209,
  "gasLimit": {
    "_hex": "0x2fefd8"
  },
  "gasUsed": {
    "_hex": "0x5208"
  },
  "miner": "0xe6A7a1d47ff21B6321162AEA7C6CB457D5476Bca",
  "extraData": "0x476574682f76312e302e312d38326566323666362f6c696e75782f676f312e34",
  "transactions": [
    {
      "hash": "0xe5970b2856a774014e80eecf8602a41ba52379d1c171498bd8d59c55cce46508",
      "blockHash": "0xd782c1530d84ab8b66831fd9977237a2bbfc54ba363f70208c8293eb4a0f605e",
      "blockNumber": 112728,
      "transactionIndex": 0,
      "confirmations": null,
      "from": "0x2b176421eEBBf303fa94aD4fE78362Fa9e4Ca693",
      "gasPrice": {
        "_hex": "0xdd61386f5"
      },
      "gasLimit": {
        "_hex": "0x5208"
      },
      "to": "0x32Be343B94f860124dC4fEe278FDCBD38C102D88",
      "value": {
        "_hex": "0xd96f135d47a31000"
      },
      "nonce": 11,
      "data": "0x",
      "r": "0xc96711a9cb5767a96f2b908161dbb00ade1bfa0159c6cc9cc8f3cc0a1064f4a8",
      "s": "0x34b42f41b6fc553d064a8ded22957e7707d5b73df8e0b148014599e47e8a7216",
      "v": 27,
      "creates": null,
      "raw": "0xf86c0b850dd61386f58252089432be343b94f860124dc4fee278fdcbd38c102d8888d96f135d47a31000801ba0c96711a9cb5767a96f2b908161dbb00ade1bfa0159c6cc9cc8f3cc0a1064f4a8a034b42f41b6fc553d064a8ded22957e7707d5b73df8e0b148014599e47e8a7216",
      "networkId": 0,
      "chainId": 0
    }
  ]
}