{
  "hash": "0xd1d0cedeea7b9293e0754798624a318587d9f855977494e054e06843e3ea06fb",
  "parentHash": "0xd0c624787da232724f2cb2335b3f40a42cea6db0861956a0f88381bf880b3751",
  "number": 73110,
  "timestamp": 1439363243,
  "nonce": "0xf75f9cca37c6fd41",
  "difficulty": 2224068713385,
  "gasLimit": {
    "_hex": "0x2fefd8"
  },
  "gasUsed": {
    "_hex": "0x15f90"
  },
  "miner": "0xF2d2AfF1320476cb8C6b607199D23175cc595693",
  "extraData": "0x476574682f76312e302e312f77696e646f77732f676f312e342e32",
  "transactions": [
    {
      "hash": "0x2c965e6cdafcc5fdcd3c2dba4bee8836a1ab2c828e9d1940120f568fd74f96a0",
      "blockHash": "0xd1d0cedeea7b9293e0754798624a318587d9f855977494e054e06843e3ea06fb",
      "blockNumber": 73110,
      "transactionIndex": 0,
      "confirmations": null,
      "from": "0x326Be8F71bFb0379f989aAB1CC1fE37f0a771f60",
      "gasPrice": {
        "_hex": "0x10b1bbd46a1"
      },
      "gasLimit": {
        "_hex": "0x15f90"
      },
      "to": "0x7153FdeEf24E488Af4dc001F620407764ee47747",
      "value": {
        "_hex": "0xf4240"
      },
      "nonce": 27,
      "data": "0x8d21618600000000000000000000000000000000000000000000000000000000000000808d5adaad541502933bfca57b79fdcf7b21a9ea7dbcf2e9321d253f5db02ac8f3",
      "r": "0x00dfc5279957662c183d2f959733bd9944995992883b07d2580f445f29f99270",
      "s": "0x416d02f72d2d750dd9091fe279b0a5d84cb94ca361a7f85a1f4a48ac8fc542ad",
      "v": 28,
      "creates": null,
      "raw": "0xf8ad1b86010b1bbd46a183015f90947153fdeef24e488af4dc001f620407764ee47747830f4240b8448d21618600000000000000000000000000000000000000000000000000000000000000808d5adaad541502933bfca57b79fdcf7b21a9ea7dbcf2e9321d253f5db02ac8f31c9fdfc5279957662c183d2f959733bd9944995992883b07d2580f445f29f99270a0416d02f72d2d750dd9091fe279b0a5d84cb94ca361a7f85a1f4a48ac8fc542ad",
      "networkId": 0,
      "chainId": 0
    }
  ]
}