{
  "hash": "0x120cab01497a2b90c6dcaba15521b2deff7cf4f04c117c854addf48f9f1c78a3",
  "parentHash": "0x0d919baad493ba52c0d57ae215a84dc545a8504aac066179565f75ea54be1b92",
  "number": 64847,
  "timestamp": 1439227136,
  "nonce": "0x5f094523e5da6fe1",
  "difficulty": 1905151566018,
  "gasLimit": {
    "_hex": "0x2fefd8"
  },
  "gasUsed": {
    "_hex": "0xfb38"
  },
  "miner": "0x9746c7e1ef2bd21FF3997fa467593a89cb852BD0",
  "extraData": "0x476574682f76312e302e312f77696e646f77732f676f312e342e32",
  "transactions": [
    {
      "hash": "0x9de4e76968727e0ed4bc2e10720a00834ca979b18d69e095f3b66aa484168fd3",
      "blockHash": "0x120cab01497a2b90c6dcaba15521b2deff7cf4f04c117c854addf48f9f1c78a3",
      "blockNumber": 64847,
      "transactionIndex": 0,
      "confirmations": null,
      "from": "0x77b887762b497d2f8Cf6fE95d502D7081A867f0F",
      "gasPrice": {
        "_hex": "0xd26b1b85e"
      },
      "gasLimit": {
        "_hex": "0x15f90"
      },
      "to": "0x0000000000000000000000000000000000000000",
      "value": {
        "_hex": "0x0"
      },
      "nonce": 0,
      "data": "0x432ced04616c657800000000000000000000000000000000000000000000000000000000",
      "r": "0x8bb8bf8c5ba2ef692cfc9c45b41f31aedd0fae70daf9495765e9fe381d2cdd65",
      "s": "0x37d0b1c41666265a4902d58994c2c403d35315dd33430a2d086b0304b568a5a7",
      "v": 27,
      "creates": null,
      "raw": "0xf88980850d26b1b85e83015f9094000000000000000000000000000000000000000080a4432ced04616c6578000000000000000000000000000000000000000000000000000000001ba08bb8bf8c5ba2ef692cfc9c45b41f31aedd0fae70daf9495765e9fe381d2cdd65a037d0b1c41666265a4902d58994c2c403d35315dd33430a2d086b0304b568a5a7",
      "networkId": 0,
      "chainId": 0
    },
    {
      "hash": "0x9f7ccf44fac577f531a38b360e0efd93e8897f1edeba60d6851a5cf59695e54c",
      "blockHash": "0x120cab01497a2b90c6dcaba15521b2deff7cf4f04c117c854addf48f9f1c78a3",
      "blockNumber": 64847,
      "transactionIndex": 1,
      "confirmations": null,
      "from": "0x77b887762b497d2f8Cf6fE95d502D7081A867f0F",
      "gasPrice": {
        "_hex": "0xce4298d0e"
      },
      "gasLimit": {
        "_hex": "0x15f90"
      },
      "to": "0x0000000000000000000000000000000000000000",
      "value": {
        "_hex": "0x0"
      },
      "nonce": 1,
      "data": "0x432ced04616c657800000000000000000000000000000000000000000000000000000000",
      "r": "0xed40039e59a6e00f81bd1f53d2174b10462e2cc0ffb25dfd5572446456f05ffa",
      "s": "0x0dec30226f7f0be50493f54e693ad5a912328c97ce68acb005b787ee2d9b5a6f",
      "v": 28,
      "creates": null,
      "raw": "0xf88901850ce4298d0e83015f9094000000000000000000000000000000000000000080a4432ced04616c6578000000000000000000000000000000000000000000000000000000001ca0ed40039e59a6e00f81bd1f53d2174b10462e2cc0ffb25dfd5572446456f05ffaa00dec30226f7f0be50493f54e693ad5a912328c97ce68acb005b787ee2d9b5a6f",
      "networkId": 0,
      "chainId": 0
    },
    {
      "hash": "0x698ccfc8dcfa25113e6184ae141047e34eed16ba2ab8207f4811278914187642",
      "blockHash": "0x120cab01497a2b90c6dcaba15521b2deff7cf4f04c117c854addf48f9f1c78a3",
      "blockNumber": 64847,
      "transactionIndex": 2,
      "confirmations": null,
      "from": "0x1D0d76B1658A1a315Bc04BD8bA39A3C472B265De",
      "gasPrice": {
        "_hex": "0xba43b7400"
      },
      "gasLimit": {
        "_hex": "0x5208"
      },
      "to": "0xAd239925BF8d000B6de51716Dc42df7c9f0A7104",
      "value": {
        "_hex": "0x24b182ea847e000"
      },
      "nonce": 1,
      "data": "0x",
      "r": "0x15039300505c9409712ac208860a8af54a08765e957932e3bb100b6f7149bbbb",
      "s": "0x41a1c3f210df09804b78773319a146718c81bf44d888f484ad0596d3e31cb808",
      "v": 27,
      "creates": null,
      "raw": "0xf86c01850ba43b740082520894ad239925bf8d000b6de51716dc42df7c9f0a710488024b182ea847e000801ba015039300505c9409712ac208860a8af54a08765e957932e3bb100b6f7149bbbba041a1c3f210df09804b78773319a146718c81bf44d888f484ad0596d3e31cb808",
      "networkId": 0,
      "chainId": 0
    }
  ]
}