{
  "hash": "0x64fbe37af08658c316407a983e5372e198ca339503ad7bb1e779f8a81f59b73b",
  "parentHash": "0xb9f88517a597a953212050e807d529f17c6c289e7fabb218d7df574d9abff43f",
  "number": 46760,
  "timestamp": 1438928723,
  "nonce": "0x72c198ba5dbe3d28",
  "difficulty": 1454620480701,
  "gasLimit": {
    "_hex": "0x7727"
  },
  "gasUsed": {
    "_hex": "0x5208"
  },
  "miner": "0x70C6b45fe0A5116E97B112B806A76E2F51E24413",
  "extraData": "0x476574682f76312e302e302f77696e646f77732f676f312e342e32",
  "transactions": [
    {
      "hash": "0xf56d1525e5a12e49e4062ba56298b1caa585c7b32ee647aec9cbc7270917731f",
      "blockHash": "0x64fbe37af08658c316407a983e5372e198ca339503ad7bb1e779f8a81f59b73b",
      "blockNumber": 46760,
      "transactionIndex": 0,
      "confirmations": null,
      "from": "0x1C257ad4A55105ea3B58Ed374b198dA266c85f63",
      "gasPrice": {
        "_hex": "0x1035cdca6db"
      },
      "gasLimit": {
        "_hex": "0x5208"
      },
      "to": "0x439632734cdF5a84774156c1938CbeDe2eF398F0",
      "value": {
        "_hex": "0x10f0cf064dd59200000"
      },
      "nonce": 1,
      "data": "0x",
      "r": "0x9a8a66a570689615e7d7a07051ee5ad43e55b7dcfa50a55e45ac0fbb0fe9804d",
      "s": "0x68a6344856bc8e8562c2206a8533912f955ad34b829f7af4d34e223b18c69012",
      "v": 28,
      "creates": null,
      "raw": "0xf86f018601035cdca6db82520894439632734cdf5a84774156c1938cbede2ef398f08a010f0cf064dd59200000801ca09a8a66a570689615e7d7a07051ee5ad43e55b7dcfa50a55e45ac0fbb0fe9804da068a6344856bc8e8562c2206a8533912f955ad34b829f7af4d34e223b18c69012",
      "networkId": 0,
      "chainId": 0
    }
  ]
}