{
  "hash": "0x5f9d6e3a5d9ec69c0b846586af300ec42eb8a6e58902b68f34eb7c89bb699833",
  "parentHash": "0x42cc67753cfae8333f09b60115b81d7f8ace6e0f10cef88a6232c92fb18a8860",
  "number": 68792,
  "timestamp": 1439293879,
  "nonce": "0xcb258ab3777e014a",
  "difficulty": 2016211383620,
  "gasLimit": {
    "_hex": "0x2fefd8"
  },
  "gasUsed": {
    "_hex": "0xf618"
  },
  "miner": "0xf927a40C8B7F6E07c5af7FA2155B4864a4112B13",
  "extraData": "0x",
  "transactions": [
    {
      "hash": "0xf5db2c628bb85cf4ea9c9fd0b8a28fd8a5dfb2336b51498b3591fe5e90d052d5",
      "blockHash": "0x5f9d6e3a5d9ec69c0b846586af300ec42eb8a6e58902b68f34eb7c89bb699833",
      "blockNumber": 68792,
      "transactionIndex": 0,
      "confirmations": null,
      "from": "0x120A270bbC009644e35F0bB6ab13f95b8199c4ad",
      "gasPrice": {
        "_hex": "0xd48d84d52"
      },
      "gasLimit": {
        "_hex": "0x15f90"
      },
      "to": "0x63116ca569ba01384f4B68C196f4745cf45C7d11",
      "value": {
        "_hex": "0x4ceabe484b27966800"
      },
      "nonce": 171,
      "data": "0x",
      "r": "0x94fb77547190c1c3657e2e6dd9a735e72c2a0fd63dc59d2de968c7a108d1edb9",
      "s": "0x45f8c6e00cce0842139664ed0c442d779766e0b5b52933767ead4dc411f4e188",
      "v": 28,
      "creates": null,
      "raw": "0xf86f81ab850d48d84d5283015f909463116ca569ba01384f4b68c196f4745cf45c7d11894ceabe484b27966800801ca094fb77547190c1c3657e2e6dd9a735e72c2a0fd63dc59d2de968c7a108d1edb9a045f8c6e00cce0842139664ed0c442d779766e0b5b52933767ead4dc411f4e188",
      "networkId": 0,
      "chainId": 0
    },
    {
      "hash": "0x6129f8c1d3bf289a40c05a9ef2ef608b8293092373dd71cd2e661c281383185c",
      "blockHash": "0x5f9d6e3a5d9ec69c0b846586af300ec42eb8a6e58902b68f34eb7c89bb699833",
      "blockNumber": 68792,
      "transactionIndex": 1,
      "confirmations": null,
      "from": "0x0e79Fa998677114124597D6BCCcA10fF8B57045F",
      "gasPrice": {
        "_hex": "0xd486f8842"
      },
      "gasLimit": {
        "_hex": "0x5208"
      },
      "to": "0x32Be343B94f860124dC4fEe278FDCBD38C102D88",
      "value": {
        "_hex": "0xddc7514e6b7ac00"
      },
      "nonce": 0,
      "data": "0x",
      "r": "0x9d5708dcbc0783c786a130a41921265f508b17b057fc8259df8be502e110bd0c",
      "s": "0x10225daa3332ea1d8fa33ac5d07a9cb6b90d53f5da27b517329728b938f778d7",
      "v": 27,
      "creates": null,
      "raw": "0xf86c80850d486f88428252089432be343b94f860124dc4fee278fdcbd38c102d88880ddc7514e6b7ac00801ba09d5708dcbc0783c786a130a41921265f508b17b057fc8259df8be502e110bd0ca010225daa3332ea1d8fa33ac5d07a9cb6b90d53f5da27b517329728b938f778d7",
      "networkId": 0,
      "chainId": 0
    },
    {
      "hash": "0xbcd09c2d2401148663bddb5bc5ffeb4c23b7cbcc253dbb0d0ac852b1c33350cb",
      "blockHash": "0x5f9d6e3a5d9ec69c0b846586af300ec42eb8a6e58902b68f34eb7c89bb699833",
      "blockNumber": 68792,
      "transactionIndex": 2,
      "confirmations": null,
      "from": "0xF87481A262E993a75F791E7859E71BaC36A606Eb",
      "gasPrice": {
        "_hex": "0xd486f8842"
      },
      "gasLimit": {
        "_hex": "0x5208"
      },
      "to": "0x32Be343B94f860124dC4fEe278FDCBD38C102D88",
      "value": {
        "_hex": "0x104351d8e968840000"
      },
      "nonce": 10,
      "data": "0x",
      "r": "0xc8c3498aa244f18d4fbc286457b808116eaa2e3f469590e4294bda9fdd7375c1",
      "s": "0x4100f9ffe39c8acd996d5f40565c57121ce6fc4bc573a72516300a8f96f431a0",
      "v": 28,
      "creates": null,
      "raw": "0xf86d0a850d486f88428252089432be343b94f860124dc4fee278fdcbd38c102d8889104351d8e968840000801ca0c8c3498aa244f18d4fbc286457b808116eaa2e3f469590e4294bda9fdd7375c1a04100f9ffe39c8acd996d5f40565c57121ce6fc4bc573a72516300a8f96f431a0",
      "networkId": 0,
      "chainId": 0
    }
  ]
}