{
  "hash": "0xfa835422bb3efe84157d6e5eb983ac7181f1ab8e662ee59cc208a9bb2c8c973a",
  "parentHash": "0xd384734bb7a52673fa03a47581f183fcd3f9e42e7b7ad3fdd2684845c3b16234",
  "number": 49137,
  "timestamp": 1438968700,
  "nonce": "0x904781cae777b3cc",
  "difficulty": 1474946658533,
  "gasLimit": {
    "_hex": "0x26d98"
  },
  "gasUsed": {
    "_hex": "0x5208"
  },
  "miner": "0xF2d2AfF1320476cb8C6b607199D23175cc595693",
  "extraData": "0x476574682f76312e302e312f77696e646f77732f676f312e342e32",
  "transactions": [
    {
      "hash": "0x9dbb531160fbe098ee5426425f30302a749e7d628bb1eafad8d58b331134441a",
      "blockHash": "0xfa835422bb3efe84157d6e5eb983ac7181f1ab8e662ee59cc208a9bb2c8c973a",
      "blockNumber": 49137,
      "transactionIndex": 0,
      "confirmations": null,
      "from": "0x671110d96aAFf11523CC546Bf9940EedFfB2faF7",
      "gasPrice": {
        "_hex": "0x3cd7feba15"
      },
      "gasLimit": {
        "_hex": "0x15f90"
      },
      "to": "0x970510Bc87A686a93E9fF410631eb6CE42A761eE",
      "value": {
        "_hex": "0xd2f13f7789f0000"
      },
      "nonce": 10,
      "data": "0x",
      "r": "0x4a726645ebca5792b11548b1f6e4ff9ca669c891e5e0e0e19d15c34a5ab7d87f",
      "s": "0x4acbcde80b7e35d8e72a02a9d57da8cce2d47f291b999eeb0f502279eb9072c1",
      "v": 27,
      "creates": null,
      "raw": "0xf86d0a853cd7feba1583015f9094970510bc87a686a93e9ff410631eb6ce42a761ee880d2f13f7789f0000801ba04a726645ebca5792b11548b1f6e4ff9ca669c891e5e0e0e19d15c34a5ab7d87fa04acbcde80b7e35d8e72a02a9d57da8cce2d47f291b999eeb0f502279eb9072c1",
      "networkId": 0,
      "chainId": 0
    }
  ]
}