{
  "hash": "0xbc4ebe2b222c0fd9bd85f2c2b7ed359fdf2b2781f616cc4de98e8c0b92492b51",
  "parentHash": "0xa1007853ac689ecf70bfd4cc315121fc05b88ff172b2d7c0f73a1e76e4bffad4",
  "number": 53545,
  "timestamp": 1439039412,
  "nonce": "0xc86eeb5206b72ee3",
  "difficulty": 1595517156239,
  "gasLimit": {
    "_hex": "0x2b9672"
  },
  "gasUsed": {
    "_hex": "0x546c"
  },
  "miner": "0xd03F6B5b7FBCf7Dd4DEE4919543236c733546a2A",
  "extraData": "0x476574682f76312e302e312d38326566323666362f6c696e75782f676f312e34",
  "transactions": [
    {
      "hash": "0x947c2f2f19e37fade0e1ad00ab2e43f086cd552aef419a2e56e56c2c5cb97895",
      "blockHash": "0xbc4ebe2b222c0fd9bd85f2c2b7ed359fdf2b2781f616cc4de98e8c0b92492b51",
      "blockNumber": 53545,
      "transactionIndex": 0,
      "confirmations": null,
      "from": "0xD09cb2e6082d693A13E8d2f68DD1DD8461F55840",
      "gasPrice": {
        "_hex": "0x110c8f7d8de"
      },
      "gasLimit": {
        "_hex": "0xc350"
      },
      "to": "0x2910543Af39abA0Cd09dBb2D50200b3E800A63D2",
      "value": {
        "_hex": "0x56bc75e2d63100000"
      },
      "nonce": 1,
      "data": "0x454e36314a33313647",
      "r": "0xee4c1d5bf5b7838e9802bef82785b8dc82140f46c875e686f4bcb6a1d80f8dc3",
      "s": "0x45eee4d5229a8c9a2ef447b3e18085d50d91b7e19f894c93f62fad1a59b6bd06",
      "v": 27,
      "creates": null,
      "raw": "0xf87701860110c8f7d8de82c350942910543af39aba0cd09dbb2d50200b3e800a63d289056bc75e2d6310000089454e36314a333136471ba0ee4c1d5bf5b7838e9802bef82785b8dc82140f46c875e686f4bcb6a1d80f8dc3a045eee4d5229a8c9a2ef447b3e18085d50d91b7e19f894c93f62fad1a59b6bd06",
      "networkId": 0,
      "chainId": 0
    }
  ]
}