{
  "hash": "0x08ed857150912dbd329072d9852b0214fe966d99c6a7cdf0e22d1fabe11b0bd9",
  "parentHash": "0x6354fd285f6a87c16ad64a8414b617183307946b8d162de29a2bd9535e05cef0",
  "number": 82061,
  "timestamp": 1439512810,
  "nonce": "0x5762be3214a2beb8",
  "difficulty": 2396369369937,
  "gasLimit": {
    "_hex": "0x2fefd8"
  },
  "gasUsed": {
    "_hex": "0xa410"
  },
  "miner": "0xe6A7a1d47ff21B6321162AEA7C6CB457D5476Bca",
  "extraData": "0x476574682f76312e302e312d38326566323666362f6c696e75782f676f312e34",
  "transactions": [
    {
      "hash": "0xa40d8b52c348b7fc4a52b155c2b8ee6fd33e8fdb68cfc33a7b305307e8a79e39",
      "blockHash": "0x08ed857150912dbd329072d9852b0214fe966d99c6a7cdf0e22d1fabe11b0bd9",
      "blockNumber": 82061,
      "transactionIndex": 0,
      "confirmations": null,
      "from": "0xcC09BaD7e80b523e8fEb3023E772491AD1Bc2e7E",
      "gasPrice": {
        "_hex": "0xba43b7400"
      },
      "gasLimit": {
        "_hex": "0x5208"
      },
      "to": "0xC47Aaa860008be6f65B58c6C6E02a84e666EfE31",
      "value": {
        "_hex": "0x332a2d97cf7476000"
      },
      "nonce": 0,
      "data": "0x",
      "r": "0x4a885b18ba1b7858924e1836fe993fceda840c45f50d28eec38f90e358e198a6",
      "s": "0x6c3f45cbb86edb734b948e12c6d19b9de82bd0755cbcd00b504270476d49811a",
      "v": 28,
      "creates": null,
      "raw": "0xf86d80850ba43b740082520894c47aaa860008be6f65b58c6c6e02a84e666efe31890332a2d97cf7476000801ca04a885b18ba1b7858924e1836fe993fceda840c45f50d28eec38f90e358e198a6a06c3f45cbb86edb734b948e12c6d19b9de82bd0755cbcd00b504270476d49811a",
      "networkId": 0,
      "chainId": 0
    },
    {
      "hash": "0xd1c689832990be2ba64a02ad127ff716f48a6ec27bd9b5c86c5c35f2d6a4fd41",
      "blockHash": "0x08ed857150912dbd329072d9852b0214fe966d99c6a7cdf0e22d1fabe11b0bd9",
      "blockNumber": 82061,
      "transactionIndex": 1,
      "confirmations": null,
      "from": "0x5F28bcc5faFC8982536A9e4be559657998CdE1E3",
      "gasPrice": {
        "_hex": "0xba43b7400"
      },
      "gasLimit": {
        "_hex": "0x5208"
      },
      "to": "0xC47Aaa860008be6f65B58c6C6E02a84e666EfE31",
      "value": {
        "_hex": "0x11be61563ea10465c0"
      },
      "nonce": 4,
      "data": "0x",
      "r": "0x2e1f24d3b936578072d4fd3121481922d31e626f0685c82aba6d94d0a292cf80",
      "s": "0x0de7d4484c7d82a4a51361adb49dcd629002fc66e12a1e8a6473efcddd1d8413",
      "v": 27,
      "creates": null,
      "raw": "0xf86d04850ba43b740082520894c47aaa860008be6f65b58c6c6e02a84e666efe318911be61563ea10465c0801ba02e1f24d3b936578072d4fd3121481922d31e626f0685c82aba6d94d0a292cf80a00de7d4484c7d82a4a51361adb49dcd629002fc66e12a1e8a6473efcddd1d8413",
      "networkId": 0,
      "chainId": 0
    }
  ]
}