{
  "hash": "0xa31d6f3d47d81676ef293269fc0fa026ada1618a16446479da9d141bd2d4f158",
  "parentHash": "0xf9e8a19b38f0b8e0458765c2c69da6fd3050eb51c3c478e6532e1955bcdb3f53",
  "number": 100491,
  "timestamp": 1439807353,
  "nonce": "0xbbf02ebc3beb6baa",
  "difficulty": 3824716709482,
  "gasLimit": {
    "_hex": "0x2fefd8"
  },
  "gasUsed": {
    "_hex": "0xf87c"
  },
  "miner": "0x68E1B6FbAB2C4f9572Ffda08139D815A9192FA92",
  "extraData": "0x",
  "transactions": [
    {
      "hash": "0x701377ddf390a39c599cf56a878c7d9b3aaf124015e233b2882fa31a951b746a",
      "blockHash": "0xa31d6f3d47d81676ef293269fc0fa026ada1618a16446479da9d141bd2d4f158",
      "blockNumber": 100491,
      "transactionIndex": 0,
      "confirmations": null,
      "from": "0x9B773669e87d76018C090F8255e54409B9dCA8B2",
      "gasPrice": {
        "_hex": "0x110c8f7d8de"
      },
      "gasLimit": {
        "_hex": "0xc350"
      },
      "to": "0x2910543Af39abA0Cd09dBb2D50200b3E800A63D2",
      "value": {
        "_hex": "0x112c7bb1858bc0000"
      },
      "nonce": 0,
      "data": "0x454e553836344b5538",
      "r": "0xcfd9a35c1269e80c75f929e520f1bf7bb6d7f6bde85e457072259f3b3bf1d917",
      "s": "0x42954efe851951be6e2093cc09c512a6546ea2dc5e639371ea4b9c5bedd0e398",
      "v": 28,
      "creates": null,
      "raw": "0xf87780860110c8f7d8de82c350942910543af39aba0cd09dbb2d50200b3e800a63d2890112c7bb1858bc000089454e553836344b55381ca0cfd9a35c1269e80c75f929e520f1bf7bb6d7f6bde85e457072259f3b3bf1d917a042954efe851951be6e2093cc09c512a6546ea2dc5e639371ea4b9c5bedd0e398",
      "networkId": 0,
      "chainId": 0
    },
    {
      "hash": "0xfafcadf42368fe6e5b11f036ad0f7f43f4446fe054c67c8a6649a499e805c620",
      "blockHash": "0xa31d6f3d47d81676ef293269fc0fa026ada1618a16446479da9d141bd2d4f158",
      "blockNumber": 100491,
      "transactionIndex": 1,
      "confirmations": null,
      "from": "0x2f86ba8019945f39edE131D38d4d8780884DA553",
      "gasPrice": {
        "_hex": "0xcbe64a310"
      },
      "gasLimit": {
        "_hex": "0x5208"
      },
      "to": "0x32Be343B94f860124dC4fEe278FDCBD38C102D88",
      "value": {
        "_hex": "0x25f26f7ddbd6b00000"
      },
      "nonce": 25,
      "data": "0x",
      "r": "0x2736ef1188e840ce9bce7e8d52ab4cb71e9af8cfb0ed66ff4b3a67e7eeca355b",
      "s": "0x3b83c427bd8c801b5d6bf4b80a28c5e68700694256807adda8548930b1ace671",
      "v": 28,
      "creates": null,
      "raw": "0xf86d19850cbe64a3108252089432be343b94f860124dc4fee278fdcbd38c102d888925f26f7ddbd6b00000801ca02736ef1188e840ce9bce7e8d52ab4cb71e9af8cfb0ed66ff4b3a67e7eeca355ba03b83c427bd8c801b5d6bf4b80a28c5e68700694256807adda8548930b1ace671",
      "networkId": 0,
      "chainId": 0
    },
    {
      "hash": "0x860e46ed630c68befd894950baef2996cda7704c3f0fd87b77bb26654e5494c0",
      "blockHash": "0xa31d6f3d47d81676ef293269fc0fa026ada1618a16446479da9d141bd2d4f158",
      "blockNumber": 100491,
      "transactionIndex": 2,
      "confirmations": null,
      "from": "0x285B048CC4cB946abCF3eF11aDe982C36946AF18",
      "gasPrice": {
        "_hex": "0xcbe64a310"
      },
      "gasLimit": {
        "_hex": "0x5208"
      },
      "to": "0x32Be343B94f860124dC4fEe278FDCBD38C102D88",
      "value": {
        "_hex": "0xb4653c22e26aa800"
      },
      "nonce": 14,
      "data": "0x",
      "r": "0x75f55ac6e82d18bb6ad2cd7a1c132447174754a2b97601d4d7588ff2fada4fe7",
      "s": "0x2ac4d2dd535259c1a9763c59394a3719323773a6cdada4239cc5db5b2f25c4f1",
      "v": 27,
      "creates": null,
      "raw": "0xf86c0e850cbe64a3108252089432be343b94f860124dc4fee278fdcbd38c102d8888b4653c22e26aa800801ba075f55ac6e82d18bb6ad2cd7a1c132447174754a2b97601d4d7588ff2fada4fe7a02ac4d2dd535259c1a9763c59394a3719323773a6cdada4239cc5db5b2f25c4f1",
      "networkId": 0,
      "chainId": 0
    }
  ]
}