{
  "hash": "0x44ebe30a400a3dbc6c5a5f76a6f9056ffa88f7442c76244346bd88eb76d1494e",
  "parentHash": "0x55bb23619089311823595fbce4a44e4942c9e28cb53d3670887f50d34919b471",
  "number": 48371,
  "timestamp": 1438956062,
  "nonce": "0x0841cd1369e00d76",
  "difficulty": 1453631198970,
  "gasLimit": {
    "_hex": "0x16301"
  },
  "gasUsed": {
    "_hex": "0x546c"
  },
  "miner": "0xf8E0CA3Ed80bd541b94BEdCf259e8CF2141A9523",
  "extraData": "0x476574682f76312e302e312f77696e646f77732f676f312e342e32",
  "transactions": [
    {
      "hash": "0xe023e2ccd0825dd0a6f3c88e082fd5214cfbfe783abe8f74c9c94758ad377e86",
      "blockHash": "0x44ebe30a400a3dbc6c5a5f76a6f9056ffa88f7442c76244346bd88eb76d1494e",
      "blockNumber": 48371,
      "transactionIndex": 0,
      "confirmations": null,
      "from": "0x671110d96aAFf11523CC546Bf9940EedFfB2faF7",
      "gasPrice": {
        "_hex": "0x3a2b2af423"
      },
      "gasLimit": {
        "_hex": "0x15f90"
      },
      "to": "0x2910543Af39abA0Cd09dBb2D50200b3E800A63D2",
      "value": {
        "_hex": "0xde0b6b3a7640000"
      },
      "nonce": 0,
      "data": "0x454e4d353836443847",
      "r": "0x978cb9833be9965fa988fd66b1aa2823be46a9b8e4c14c149e40f7777ce1f160",
      "s": "0x4eb21733ac7f0fcb8336e51ec271806305738501130b4cf182352ccf111e88dc",
      "v": 27,
      "creates": null,
      "raw": "0xf87680853a2b2af42383015f90942910543af39aba0cd09dbb2d50200b3e800a63d2880de0b6b3a764000089454e4d3538364438471ba0978cb9833be9965fa988fd66b1aa2823be46a9b8e4c14c149e40f7777ce1f160a04eb21733ac7f0fcb8336e51ec271806305738501130b4cf182352ccf111e88dc",
      "networkId": 0,
      "chainId": 0
    }
  ]
}