{
  "hash": "0x1c4073eed865ecc7ca95b2fa910f1f7e8615e9732baac80c0d7f4a2eaec924d9",
  "parentHash": "0x6c504b74a50194a59ca181ea316a7ccb2f2f37de4a33543322a92ad92b8d26ce",
  "number": 74098,
  "timestamp": 1439380308,
  "nonce": "0x80327fb4eefdff22",
  "difficulty": 2234691766137,
  "gasLimit": {
    "_hex": "0x2fefd8"
  },
  "gasUsed": {
    "_hex": "0x5208"
  },
  "miner": "0x02dE7d35a60bf6A216411476040ec648668769D7",
  "extraData": "0x476574682f76312e302e312f77696e646f77732f676f312e342e32",
  "transactions": [
    {
      "hash": "0xb298bd0c5a64cf78dd39acb61d9b15f4ce7af967fbbfaca9f09dbbd7a1ff3893",
      "blockHash": "0x1c4073eed865ecc7ca95b2fa910f1f7e8615e9732baac80c0d7f4a2eaec924d9",
      "blockNumber": 74098,
      "transactionIndex": 0,
      "confirmations": null,
      "from": "0x2910543Af39abA0Cd09dBb2D50200b3E800A63D2",
      "gasPrice": {
        "_hex": "0xd4408a373"
      },
      "gasLimit": {
        "_hex": "0x5208"
      },
      "to": "0xc384Ac6ee27C39E2F278C220BDfA5BAeD626D9d3",
      "value": {
        "_hex": "0x410c3c328d26b8000"
      },
      "nonce": 296,
      "data": "0x",
      "r": "0x718899d81f482f08984abd8ca233a786f35ddbd6176e00acb56f81d333dd6624",
      "s": "0x4bc8480f19ec77b4d0aedfb7c16615d3ee056a62af3dd97ad4ae32ac12d64132",
      "v": 28,
      "creates": null,
      "raw": "0xf86f820128850d4408a37382520894c384ac6ee27c39e2f278c220bdfa5baed626d9d3890410c3c328d26b8000801ca0718899d81f482f08984abd8ca233a786f35ddbd6176e00acb56f81d333dd6624a04bc8480f19ec77b4d0aedfb7c16615d3ee056a62af3dd97ad4ae32ac12d64132",
      "networkId": 0,
      "chainId": 0
    }
  ]
}