{
  "hash": "0x81fe3771ad8c00f85d9d29b7ab9dadaa40867d73a5056c466c46a082d8d558ee",
  "parentHash": "0x975a6c19201d45c3427cf325ba06d776f1b193c67817bf53bab3e12d082a5b92",
  "number": 67399,
  "timestamp": 1439271436,
  "nonce": "0xb6fd191ffef97060",
  "difficulty": 1921385246956,
  "gasLimit": {
    "_hex": "0x2fefd8"
  },
  "gasUsed": {
    "_hex": "0x5208"
  },
  "miner": "0xE706a05a40761915bC70310f7a94e6B2B596dbf8",
  "extraData": "0x476574682f76312e302e312d38326566323666362f6c696e75782f676f312e34",
  "transactions": [
    {
      "hash": "0xcf41bf42425f60740719ca005e1880951bafb98e5a65d6b1a616f78c99fee750",
      "blockHash": "0x81fe3771ad8c00f85d9d29b7ab9dadaa40867d73a5056c466c46a082d8d558ee",
      "blockNumber": 67399,
      "transactionIndex": 0,
      "confirmations": null,
      "from": "0xC5D780c85389F9f57157E12f924C649A33aF46dd",
      "gasPrice": {
        "_hex": "0x10c404b3228"
      },
      "gasLimit": {
        "_hex": "0x5208"
      },
      "to": "0xAD063CE182014Fa78C3932981fE402a6Af48235B",
      "value": {
        "_hex": "0x9ecb8c698288d0"
      },
      "nonce": 2,
      "data": "0x",
      "r": "0xd460e49817eed5fbdc29cdefd4ea4ba5904cf187cabf88ef9122ee833f827b41",
      "s": "0x694a5594177d08b2fe71d6a220d5f795cb81916698dd0db47d7972b49e3f01aa",
      "v": 28,
      "creates": null,
      "raw": "0xf86c0286010c404b322882520894ad063ce182014fa78c3932981fe402a6af48235b879ecb8c698288d0801ca0d460e49817eed5fbdc29cdefd4ea4ba5904cf187cabf88ef9122ee833f827b41a0694a5594177d08b2fe71d6a220d5f795cb81916698dd0db47d7972b49e3f01aa",
      "networkId": 0,
      "chainId": 0
    }
  ]
}