{
  "hash": "0x1fb6cb9bc170747f71bc2d3ee6621fca0f1b380c1c2ff237a498a1f0664744a3",
  "parentHash": "0x384ea137be31adc589369619bf10f9c7275b227e3e550d9dcc68a4625256db1a",
  "number": 108099,
  "timestamp": 1439934043,
  "nonce": "0x8a1cbd7415b4b177",
  "difficulty": 4381084156634,
  "gasLimit": {
    "_hex": "0x2fefd8"
  },
  "gasUsed": {
    "_hex": "0x5208"
  },
  "miner": "0x56A1018A2F565672E98f4cB657cEB8059ff3E5a2",
  "extraData": "0x476574682f76312e302e312f77696e646f77732f676f312e342e32",
  "transactions": [
    {
      "hash": "0x6ebde282b937af831fbd65ee4580ccd2efd5083db76320536fd75605a21f0f47",
      "blockHash": "0x1fb6cb9bc170747f71bc2d3ee6621fca0f1b380c1c2ff237a498a1f0664744a3",
      "blockNumber": 108099,
      "transactionIndex": 0,
      "confirmations": null,
      "from": "0x6BED894B45159c6001dfbC5bd6257A10B9eF2202",
      "gasPrice": {
        "_hex": "0xd0af4fa5c"
      },
      "gasLimit": {
        "_hex": "0x15f90"
      },
      "to": "0xbCa6DD2fDDAf2d917006b0Aa1F8d1962BFf7FB87",
      "value": {
        "_hex": "0x5af3107a4000"
      },
      "nonce": 11,
      "data": "0x",
      "r": "0x3f29715c3ee312556a90ddf35adf4cc7e90bc4c27a0d10a5365f16526c44ee7e",
      "s": "0x61b23cfcb360feb701d1cd151b3f90ec1fbc5b3c261a251bd711d4ec22ac71ce",
      "v": 27,
      "creates": null,
      "raw": "0xf86b0b850d0af4fa5c83015f9094bca6dd2fddaf2d917006b0aa1f8d1962bff7fb87865af3107a4000801ba03f29715c3ee312556a90ddf35adf4cc7e90bc4c27a0d10a5365f16526c44ee7ea061b23cfcb360feb701d1cd151b3f90ec1fbc5b3c261a251bd711d4ec22ac71ce",
      "networkId": 0,
      "chainId": 0
    }
  ]
}