{
  "hash": "0x918a7c2224ac3959ccf62e1043a99522b72e3785e2aa473ae9ab18cede398886",
  "parentHash": "0x525c4e1be7da705c842a0e6fd255216bb1f8ac8a63101478ee710157aab0769a",
  "number": 88212,
  "timestamp": 1439604512,
  "nonce": "0x10a08c7a19ea7e9c",
  "difficulty": 3208174439447,
  "gasLimit": {
    "_hex": "0x2fefd8"
  },
  "gasUsed": {
    "_hex": "0xa674"
  },
  "miner": "0x88D74a59454F6cF3B51ef6b9136AFb6b9D405A88",
  "extraData": "0x476574682f76312e302e312d37666266393930632f6c696e75782f676f312e34",
  "transactions": [
    {
      "hash": "0x1d60352d85e33c60ea76079147ad48d54f449e1353ca7a9b5be3cb906d9ed475",
      "blockHash": "0x918a7c2224ac3959ccf62e1043a99522b72e3785e2aa473ae9ab18cede398886",
      "blockNumber": 88212,
      "transactionIndex": 0,
      "confirmations": null,
      "from": "0x211B29cefC79aE976744FDEbcebd3cbB32c51303",
      "gasPrice": {
        "_hex": "0x110c8f7d8de"
      },
      "gasLimit": {
        "_hex": "0xc350"
      },
      "to": "0x2910543Af39abA0Cd09dBb2D50200b3E800A63D2",
      "value": {
        "_hex": "0x214e8348c4f0000"
      },
      "nonce": 3,
      "data": "0x454e4e5a395a475052",
      "r": "0x656099b3c63a1227ad04847d2bd260304ab77ae50e98acd5996080abb0948da0",
      "s": "0x19fbafb70e0fb6e1116e590933d09a5fd4b139c1fbe23154a1aa04df7e5d45c1",
      "v": 27,
      "creates": null,
      "raw": "0xf87603860110c8f7d8de82c350942910543af39aba0cd09dbb2d50200b3e800a63d2880214e8348c4f000089454e4e5a395a4750521ba0656099b3c63a1227ad04847d2bd260304ab77ae50e98acd5996080abb0948da0a019fbafb70e0fb6e1116e590933d09a5fd4b139c1fbe23154a1aa04df7e5d45c1",
      "networkId": 0,
      "chainId": 0
    },
    {
      "hash": "0xd71944a99e62c7d7d755df70ec229c4dc13d7e313048f1d97d1d0040d96fab48",
      "blockHash": "0x918a7c2224ac3959ccf62e1043a99522b72e3785e2aa473ae9ab18cede398886",
      "blockNumber": 88212,
      "transactionIndex": 1,
      "confirmations": null,
      "from": "0xbc6046c2B27B703A5fd5d33118ac7D9fe6BE3f2c",
      "gasPrice": {
        "_hex": "0xdfab7a290"
      },
      "gasLimit": {
        "_hex": "0x30d40"
      },
      "to": "0x120A270bbC009644e35F0bB6ab13f95b8199c4ad",
      "value": {
        "_hex": "0x3f2614490130ac00"
      },
      "nonce": 0,
      "data": "0x",
      "r": "0xbb0c4d03b387df61a56f84c3c3f00b04b2ca858c6a99936ab735d3a8bb955237",
      "s": "0x66df49e43f533bf002a3654825ed31702e4d83d8294cfa12856fcf720c2a6227",
      "v": 28,
      "creates": null,
      "raw": "0xf86d80850dfab7a29083030d4094120a270bbc009644e35f0bb6ab13f95b8199c4ad883f2614490130ac00801ca0bb0c4d03b387df61a56f84c3c3f00b04b2ca858c6a99936ab735d3a8bb955237a066df49e43f533bf002a3654825ed31702e4d83d8294cfa12856fcf720c2a6227",
      "networkId": 0,
      "chainId": 0
    }
  ]
}