{
  "hash": "0x56d8fe7eb830057b0f3a2de76d3c87c73fca967aa85b1d7407b39234bfdab43b",
  "parentHash": "0xf7e5bc2c23f796aa21b91a389a6e8871378d2e5defbb1d5f67644b5bf532cf7f",
  "number": 64423,
  "timestamp": 1439220484,
  "nonce": "0xe1c50e5b2bc38a89",
  "difficulty": 1870222529304,
  "gasLimit": {
    "_hex": "0x2fefd8"
  },
  "gasUsed": {
    "_hex": "0x5208"
  },
  "miner": "0xf8E0CA3Ed80bd541b94BEdCf259e8CF2141A9523",
  "extraData": "0x476574682f76312e302e312f77696e646f77732f676f312e342e32",
  "transactions": [
    {
      "hash": "0xf135c156fbdb5af6f7797684a856ee57f3df96c637a417d3f92da02acc9a4025",
      "blockHash": "0x56d8fe7eb830057b0f3a2de76d3c87c73fca967aa85b1d7407b39234bfdab43b",
      "blockNumber": 64423,
      "transactionIndex": 0,
      "confirmations": null,
      "from": "0x32Be343B94f860124dC4fEe278FDCBD38C102D88",
      "gasPrice": {
        "_hex": "0xd2a7c6dec"
      },
      "gasLimit": {
        "_hex": "0x5208"
      },
      "to": "0x120A270bbC009644e35F0bB6ab13f95b8199c4ad",
      "value": {
        "_hex": "0xf3f20b8dfa69d00000"
      },
      "nonce": 176,
      "data": "0x",
      "r": "0xec272dfcb50e8aeff129fdc08c7cc36b7acca709f528aaa72b59d7690c738f2c",
      "s": "0x0cbc2fd98210dc58e632b7fb62a7ba198304e6beb0ffb89d910ee0b9b2002771",
      "v": 28,
      "creates": null,
      "raw": "0xf86e81b0850d2a7c6dec82520894120a270bbc009644e35f0bb6ab13f95b8199c4ad89f3f20b8dfa69d00000801ca0ec272dfcb50e8aeff129fdc08c7cc36b7acca709f528aaa72b59d7690c738f2ca00cbc2fd98210dc58e632b7fb62a7ba198304e6beb0ffb89d910ee0b9b2002771",
      "networkId": 0,
      "chainId": 0
    }
  ]
}