{
  "hash": "0xeb53592062212c6cd52945ec5da2d67fac8afdf661fc03e11b9c2bf1ceaa31a7",
  "parentHash": "0x170771fb36368bbc51d707c01e8b8980dbb7fca20b03b34ae91a3ca66324c356",
  "number": 69655,
  "timestamp": 1439307561,
  "nonce": "0xdf3b0254a6d6a4cb",
  "difficulty": 2083047918148,
  "gasLimit": {
    "_hex": "0x2fefd8"
  },
  "gasUsed": {
    "_hex": "0x5208"
  },
  "miner": "0x88D74a59454F6cF3B51ef6b9136AFb6b9D405A88",
  "extraData": "0x476574682f76312e302e312d37666266393930632f6c696e75782f676f312e34",
  "transactions": [
    {
      "hash": "0x37f7564021e0248321fca173b86665b0effec570c3575e39d49463e879a21a8c",
      "blockHash": "0xeb53592062212c6cd52945ec5da2d67fac8afdf661fc03e11b9c2bf1ceaa31a7",
      "blockNumber": 69655,
      "transactionIndex": 0,
      "confirmations": null,
      "from": "0x528101Ce46B720a2214dcdAe6618A53177ffa377",
      "gasPrice": {
        "_hex": "0xd641f460d"
      },
      "gasLimit": {
        "_hex": "0x5208"
      },
      "to": "0xB83b76f35cF6b2149B34Ee092B3Fc93b7Bb54A8D",
      "value": {
        "_hex": "0x56bc75e2d63100000"
      },
      "nonce": 0,
      "data": "0x",
      "r": "0x64008273b8f5f1edf925aa7b3b883b12d921d1fc0cce9db38103b3dd383c165f",
      "s": "0x02f15fee53403d232c64d4233358bf7c10f93a4aa46c0c8f98b31d4a73d07fca",
      "v": 27,
      "creates": null,
      "raw": "0xf86d80850d641f460d82520894b83b76f35cf6b2149b34ee092b3fc93b7bb54a8d89056bc75e2d63100000801ba064008273b8f5f1edf925aa7b3b883b12d921d1fc0cce9db38103b3dd383c165fa002f15fee53403d232c64d4233358bf7c10f93a4aa46c0c8f98b31d4a73d07fca",
      "networkId": 0,
      "chainId": 0
    }
  ]
}