{
  "hash": "0xb9ec7762d456aa6ba7e58677cd93680710e99746529969ba8adece5e28044fe7",
  "parentHash": "0xf5c6e54d94800c7122e7589dd5d1dd65bd2d127a88825afb2330cb248e3c6a65",
  "number": 86079,
  "timestamp": 1439573049,
  "nonce": "0x81bfe8a9dba396d3",
  "difficulty": 2814004820441,
  "gasLimit": {
    "_hex": "0x2fefd8"
  },
  "gasUsed": {
    "_hex": "0x5d9f"
  },
  "miner": "0x2f6BCe4fc330B69C9B4c2694d57C63Ec7B18feC7",
  "extraData": "0x476574682f76312e302e312f77696e646f77732f676f312e342e32",
  "transactions": [
    {
      "hash": "0xf0f277518a8d59062a979e47a9b3d136bf79d28059d51c92d629b334066c175d",
      "blockHash": "0xb9ec7762d456aa6ba7e58677cd93680710e99746529969ba8adece5e28044fe7",
      "blockNumber": 86079,
      "transactionIndex": 0,
      "confirmations": null,
      "from": "0x5B7970CD176308e0Ffd0358e8B14aaF4A19BA544",
      "gasPrice": {
        "_hex": "0xd05746b95"
      },
      "gasLimit": {
        "_hex": "0x15f90"
      },
      "to": "0xCAc7000C7dBaa2E33Af15325AF5D435E011C7BdD",
      "value": {
        "_hex": "0xde0b6b3a7640000"
      },
      "nonce": 4,
      "data": "0xb214faa54948594857493352550000000000000000000000000000000000000000000000",
      "r": "0x985deee7d752d8988e73bb205d8a95a634f9c555401498b03d38b75c1b6ba0b6",
      "s": "0x0dc767fe64ea06ba2474f1737555e706b0ea6a9f41c2e00909b43e75726e750c",
      "v": 28,
      "creates": null,
      "raw": "0xf89104850d05746b9583015f9094cac7000c7dbaa2e33af15325af5d435e011c7bdd880de0b6b3a7640000a4b214faa549485948574933525500000000000000000000000000000000000000000000001ca0985deee7d752d8988e73bb205d8a95a634f9c555401498b03d38b75c1b6ba0b6a00dc767fe64ea06ba2474f1737555e706b0ea6a9f41c2e00909b43e75726e750c",
      "networkId": 0,
      "chainId": 0
    }
  ]
}