{
  "hash": "0xdfe7f689d579b28e3b79938df46f383f2093d299dd635e06695d52cfc0e16800",
  "parentHash": "0xcf802219810e729ca23df4aa92159ea46c77f6a4ea6c1ab4d25b6be568b456a0",
  "number": 87029,
  "timestamp": 1439586199,
  "nonce": "0xdebf118ea6160b50",
  "difficulty": 3018644617336,
  "gasLimit": {
    "_hex": "0x2fefd8"
  },
  "gasUsed": {
    "_hex": "0x5428"
  },
  "miner": "0xe6A7a1d47ff21B6321162AEA7C6CB457D5476Bca",
  "extraData": "0x476574682f76312e302e312d38326566323666362f6c696e75782f676f312e34",
  "transactions": [
    {
      "hash": "0x9b75a6f0528508ca5571988a7f1e898243436d7c3edd99c8b1cbf2561c9daf8e",
      "blockHash": "0xdfe7f689d579b28e3b79938df46f383f2093d299dd635e06695d52cfc0e16800",
      "blockNumber": 87029,
      "transactionIndex": 0,
      "confirmations": null,
      "from": "0xa61e151af0007B7406d969Dce51740caf0D69088",
      "gasPrice": {
        "_hex": "0x10bd2717cdb"
      },
      "gasLimit": {
        "_hex": "0x55f0"
      },
      "to": "0x237de148D40353D41e6fC20c58a24e4515888d6d",
      "value": {
        "_hex": "0xde0b6b3a7640000"
      },
      "nonce": 5,
      "data": "0x454e374242585858",
      "r": "0x1484bc3bc37cd8391c5ca970ef5bc3c0932b7a44730ab56314e35ea384195f5b",
      "s": "0x3a7417e8baf705e6468a661df8107b08365bbc931556ec8eca8af4f9b54c81ed",
      "v": 27,
      "creates": null,
      "raw": "0xf8750586010bd2717cdb8255f094237de148d40353d41e6fc20c58a24e4515888d6d880de0b6b3a764000088454e3742425858581ba01484bc3bc37cd8391c5ca970ef5bc3c0932b7a44730ab56314e35ea384195f5ba03a7417e8baf705e6468a661df8107b08365bbc931556ec8eca8af4f9b54c81ed",
      "networkId": 0,
      "chainId": 0
    }
  ]
}