{
  "hash": "0xce1aedababa8e2b5f27817cb0137715e76786bb09c3e5b61aa48ffe9a3b38577",
  "parentHash": "0xe914a1ca4b9831730a39b62c403add68d7cc4446e2d6a4650f6b647620820814",
  "number": 99626,
  "timestamp": 1439793376,
  "nonce": "0xeb0ff03f859fd768",
  "difficulty": 3775013364295,
  "gasLimit": {
    "_hex": "0x2fefd8"
  },
  "gasUsed": {
    "_hex": "0xa674"
  },
  "miner": "0xe6A7a1d47ff21B6321162AEA7C6CB457D5476Bca",
  "extraData": "0x476574682f76312e302e312d38326566323666362f6c696e75782f676f312e34",
  "transactions": [
    {
      "hash": "0x57ae31e119c8ec2e295c961b82ad1e049d9a4ad7a5cae15ad425238066c8b74d",
      "blockHash": "0xce1aedababa8e2b5f27817cb0137715e76786bb09c3e5b61aa48ffe9a3b38577",
      "blockNumber": 99626,
      "transactionIndex": 0,
      "confirmations": null,
      "from": "0x64D80c3B8Ba68282290B75e65D8978A15A87782c",
      "gasPrice": {
        "_hex": "0x110c8f7d8de"
      },
      "gasLimit": {
        "_hex": "0xc350"
      },
      "to": "0x2910543Af39abA0Cd09dBb2D50200b3E800A63D2",
      "value": {
        "_hex": "0x6ac9daad05c1fe0000"
      },
      "nonce": 0,
      "data": "0x454e55375841344838",
      "r": "0xea283c54a072e76bd111476ae8a42da8ec58ee8b9e464e9c9933267ee1b184e0",
      "s": "0x4f87c406339578434c6889de76126f8edbed73d7589fb2cb27d205690ddd62c2",
      "v": 28,
      "creates": null,
      "raw": "0xf87780860110c8f7d8de82c350942910543af39aba0cd09dbb2d50200b3e800a63d2896ac9daad05c1fe000089454e553758413448381ca0ea283c54a072e76bd111476ae8a42da8ec58ee8b9e464e9c9933267ee1b184e0a04f87c406339578434c6889de76126f8edbed73d7589fb2cb27d205690ddd62c2",
      "networkId": 0,
      "chainId": 0
    },
    {
      "hash": "0xada1e5f97b99302ba4513cf4ae8a9eec7ec7854d9023d7e7f2387c41d4309200",
      "blockHash": "0xce1aedababa8e2b5f27817cb0137715e76786bb09c3e5b61aa48ffe9a3b38577",
      "blockNumber": 99626,
      "transactionIndex": 1,
      "confirmations": null,
      "from": "0xad7210d76107F888745616FFF7979623b84F928c",
      "gasPrice": {
        "_hex": "0xd7d40ace3"
      },
      "gasLimit": {
        "_hex": "0x61a8"
      },
      "to": "0xF109ca710C0Df51c1a86dBA1B0BA0Ed038114463",
      "value": {
        "_hex": "0x4563918244f40000"
      },
      "nonce": 14,
      "data": "0x",
      "r": "0xe543ee86661219c0d9daabeb3d077b9bdbbcbb99b868f56fb676cdc721b5cb27",
      "s": "0x69bf8f71433e51957afa1e2ea7077aaba2046c13cb15f097d7c356c419accd4d",
      "v": 28,
      "creates": null,
      "raw": "0xf86c0e850d7d40ace38261a894f109ca710c0df51c1a86dba1b0ba0ed038114463884563918244f40000801ca0e543ee86661219c0d9daabeb3d077b9bdbbcbb99b868f56fb676cdc721b5cb27a069bf8f71433e51957afa1e2ea7077aaba2046c13cb15f097d7c356c419accd4d",
      "networkId": 0,
      "chainId": 0
    }
  ]
}