{
  "hash": "0xe9e291bd626076e5044d1320f79fe8af06426c1f11b4153ef1456d766f948d49",
  "parentHash": "0x0a7b59acb9d2e8e363252fb5fdba67d35cc67cd4bd9b8f5c373a289c40023996",
  "number": 51650,
  "timestamp": 1439008570,
  "nonce": "0xb1aacbe1eb63ce8c",
  "difficulty": 1556627271770,
  "gasLimit": {
    "_hex": "0xcacb7"
  },
  "gasUsed": {
    "_hex": "0x7a120"
  },
  "miner": "0xf927a40C8B7F6E07c5af7FA2155B4864a4112B13",
  "extraData": "0x476574682f76312e302e312f6c696e75782f676f312e342e32",
  "transactions": [
    {
      "hash": "0x45b68e703a29e5bf9e4e657ecc6de5f5e653201883406abb8fef81970df7d1fe",
      "blockHash": "0xe9e291bd626076e5044d1320f79fe8af06426c1f11b4153ef1456d766f948d49",
      "blockNumber": 51650,
      "transactionIndex": 0,
      "confirmations": null,
      "from": "0xFCf9f6A78f06227522c6f948ec0119dA31680Ef7",
      "gasPrice": {
        "_hex": "0xd2a2ef0f1"
      },
      "gasLimit": {
        "_hex": "0x7a120"
      },
      "to": "0x109C4f2CCc82C4d77Bde15F306707320294Aea3F",
      "value": {
        "_hex": "0xde0b6b3a7640000"
      },
      "nonce": 51,
      "data": "0x",
      "r": "0x7101c6bb210dafebaa1145a78e2717924460b71f34cd4493da0b794261420995",
      "s": "0x56e1e29686458245f5f348da598ae59a71a092a96e0265c0c5909569df7f2fbf",
      "v": 27,
      "creates": null,
      "raw": "0xf86d33850d2a2ef0f18307a12094109c4f2ccc82c4d77bde15f306707320294aea3f880de0b6b3a7640000801ba07101c6bb210dafebaa1145a78e2717924460b71f34cd4493da0b794261420995a056e1e29686458245f5f348da598ae59a71a092a96e0265c0c5909569df7f2fbf",
      "networkId": 0,
      "chainId": 0
    }
  ]
}