{
  "hash": "0xf813286a9c95454238d978de8447a0d62f5c736d46b2ee86b0e40d6fee8414d6",
  "parentHash": "0x1a117fbfafe6068b298f15fc6d204adbc6e232c064dea1110e8fe5d765756f70",
  "number": 61846,
  "timestamp": 1439179125,
  "nonce": "0xd14e7b466ec7247c",
  "difficulty": 1739522610486,
  "gasLimit": {
    "_hex": "0x2fefd8"
  },
  "gasUsed": {
    "_hex": "0xf618"
  },
  "miner": "0x77e41B4125b7c14757e0f07fE36b2E95db757a10",
  "extraData": "0x",
  "transactions": [
    {
      "hash": "0x42fe97031b428915f8dd0b58ff8e59261d3be1fd0ab1eec94802cd66cead9fdd",
      "blockHash": "0xf813286a9c95454238d978de8447a0d62f5c736d46b2ee86b0e40d6fee8414d6",
      "blockNumber": 61846,
      "transactionIndex": 0,
      "confirmations": null,
      "from": "0xe1FaD02651b158bd72a142526C9D64265ee8C8Eb",
      "gasPrice": {
        "_hex": "0xdcbafa99a"
      },
      "gasLimit": {
        "_hex": "0x5208"
      },
      "to": "0x32Be343B94f860124dC4fEe278FDCBD38C102D88",
      "value": {
        "_hex": "0x18f676c9bc416c00"
      },
      "nonce": 0,
      "data": "0x",
      "r": "0xc84a4698bca62f6b04f41157fb2c8b8330cadecc39f537c27c7f0f16f1cfb8f5",
      "s": "0x67dd5654229431df045acfa97fdbdf894f3deab8e378362f70986bd3eefa53b3",
      "v": 28,
      "creates": null,
      "raw": "0xf86c80850dcbafa99a8252089432be343b94f860124dc4fee278fdcbd38c102d888818f676c9bc416c00801ca0c84a4698bca62f6b04f41157fb2c8b8330cadecc39f537c27c7f0f16f1cfb8f5a067dd5654229431df045acfa97fdbdf894f3deab8e378362f70986bd3eefa53b3",
      "networkId": 0,
      "chainId": 0
    },
    {
      "hash": "0x5ba603d324f0d409f832c08f98dba40f74deb94478f3a883a29fabb4f97b2ffd",
      "blockHash": "0xf813286a9c95454238d978de8447a0d62f5c736d46b2ee86b0e40d6fee8414d6",
      "blockNumber": 61846,
      "transactionIndex": 1,
      "confirmations": null,
      "from": "0x6663c7Ad4831fc466526150F68BACB5923598C31",
      "gasPrice": {
        "_hex": "0xdcbafa99a"
      },
      "gasLimit": {
        "_hex": "0x5208"
      },
      "to": "0x32Be343B94f860124dC4fEe278FDCBD38C102D88",
      "value": {
        "_hex": "0x1659826230df2800"
      },
      "nonce": 0,
      "data": "0x",
      "r": "0xfb644e79f253f29be6fd223358700fb9ca924b8e27673a776f61a7b9eda31b4a",
      "s": "0x560a846b9b8ef4793616eca2bc5658fe4fd86df37a2f7c2f0809372794807c8b",
      "v": 28,
      "creates": null,
      "raw": "0xf86c80850dcbafa99a8252089432be343b94f860124dc4fee278fdcbd38c102d88881659826230df2800801ca0fb644e79f253f29be6fd223358700fb9ca924b8e27673a776f61a7b9eda31b4aa0560a846b9b8ef4793616eca2bc5658fe4fd86df37a2f7c2f0809372794807c8b",
      "networkId": 0,
      "chainId": 0
    },
    {
      "hash": "0x2a8b599ce83e31d420af41148222de6ba0f62aabfa594699c96b6539cc6c87ba",
      "blockHash": "0xf813286a9c95454238d978de8447a0d62f5c736d46b2ee86b0e40d6fee8414d6",
      "blockNumber": 61846,
      "transactionIndex": 2,
      "confirmations": null,
      "from": "0xf209Ca113565d1890FB6F6Cd70051B931dd81bb1",
      "gasPrice": {
        "_hex": "0xdcbafa99a"
      },
      "gasLimit": {
        "_hex": "0x5208"
      },
      "to": "0x32Be343B94f860124dC4fEe278FDCBD38C102D88",
      "value": {
        "_hex": "0x568fc678fd0898000"
      },
      "nonce": 2,
      "data": "0x",
      "r": "0xd17fa66622f39e848954d9323d8d49311fca973ca1c2fb96e55a719d446c3020",
      "s": "0x0a06f3fad29727251a9f4b83fcead4ee9ec7a84c0e82e146ce391353b917f314",
      "v": 27,
      "creates": null,
      "raw": "0xf86d02850dcbafa99a8252089432be343b94f860124dc4fee278fdcbd38c102d88890568fc678fd0898000801ba0d17fa66622f39e848954d9323d8d49311fca973ca1c2fb96e55a719d446c3020a00a06f3fad29727251a9f4b83fcead4ee9ec7a84c0e82e146ce391353b917f314",
      "networkId": 0,
      "chainId": 0
    }
  ]
}