{
  "hash": "0xdcec8d3b04c8dd70c1b96ea964050d09d85dc09967c1bd7019a42451b6b8e1bb",
  "parentHash": "0x350ee7b93085da1e4584e9bf10aef33ae53605e5fd64a051ff112bf3d35b233f",
  "number": 51613,
  "timestamp": 1439007927,
  "nonce": "0x5d8e90bdec557ac4",
  "difficulty": 1557394398588,
  "gasLimit": {
    "_hex": "0xc5001"
  },
  "gasUsed": {
    "_hex": "0x7f328"
  },
  "miner": "0x1217627fe41A00f0b828317F43E6d58F47dBfc43",
  "extraData": "0x476574682f76312e302e302d66313265303136312f6c696e75782f676f312e34",
  "transactions": [
    {
      "hash": "0x28292f991f1ce9114652f850b3fbbdfb77fe6fa5f153be50f74c0450326f04f9",
      "blockHash": "0xdcec8d3b04c8dd70c1b96ea964050d09d85dc09967c1bd7019a42451b6b8e1bb",
      "blockNumber": 51613,
      "transactionIndex": 0,
      "confirmations": null,
      "from": "0x1308A2e95c0160B90803ddCA9B9a5bb55E416d79",
      "gasPrice": {
        "_hex": "0xd7c27070f"
      },
      "gasLimit": {
        "_hex": "0x15f90"
      },
      "to": "0xE5F9b98aFCd58f9a652BAd30417958Bc9dD7bFba",
      "value": {
        "_hex": "0x15af1d78b58c40000"
      },
      "nonce": 6,
      "data": "0x",
      "r": "0x43dac698a7f693407270d552140e1f6a7b06ae556a74697a74ef7209c7bf6f57",
      "s": "0x59cae3cb6fa5ccafa21ce0a535c2f336ca0f3c899dde86e5da3681cea0f4c307",
      "v": 28,
      "creates": null,
      "raw": "0xf86e06850d7c27070f83015f9094e5f9b98afcd58f9a652bad30417958bc9dd7bfba89015af1d78b58c40000801ca043dac698a7f693407270d552140e1f6a7b06ae556a74697a74ef7209c7bf6f57a059cae3cb6fa5ccafa21ce0a535c2f336ca0f3c899dde86e5da3681cea0f4c307",
      "networkId": 0,
      "chainId": 0
    },
    {
      "hash": "0xc5eabb9c7a2dc97162c3e6fe0aebaa858f971fd1cc4aa5ffea02b41cc6336aa0",
      "blockHash": "0xdcec8d3b04c8dd70c1b96ea964050d09d85dc09967c1bd7019a42451b6b8e1bb",
      "blockNumber": 51613,
      "transactionIndex": 1,
      "confirmations": null,
      "from": "0xFCf9f6A78f06227522c6f948ec0119dA31680Ef7",
      "gasPrice": {
        "_hex": "0xdcda0424b"
      },
      "gasLimit": {
        "_hex": "0x7a120"
      },
      "to": "0xBAA54d6E90c3F4d7Ebec11bD180134C7eD8eBb52",
      "value": {
        "_hex": "0x16345785d8a0000"
      },
      "nonce": 24,
      "data": "0x",
      "r": "0x1aa6d6c97738c021e7e61ced28ca5acb780f3df2619f6e95f20b720a53f0517d",
      "s": "0x242c081175c3dbff3e8dbd4a5939fb4e185d07f2f9391f843bc05f110571ba1c",
      "v": 28,
      "creates": null,
      "raw": "0xf86d18850dcda0424b8307a12094baa54d6e90c3f4d7ebec11bd180134c7ed8ebb5288016345785d8a0000801ca01aa6d6c97738c021e7e61ced28ca5acb780f3df2619f6e95f20b720a53f0517da0242c081175c3dbff3e8dbd4a5939fb4e185d07f2f9391f843bc05f110571ba1c",
      "networkId": 0,
      "chainId": 0
    }
  ]
}