{
  "hash": "0xbc943aa34ba4c4a0484989e83ccc65f3b9e76fc6717a17a7cc4db7ec21c20246",
  "parentHash": "0xf07fc573a256de96dd7cc4303a1fa8943a97837c2e514b47ac92c8cf32727805",
  "number": 111778,
  "timestamp": 1439996014,
  "nonce": "0xec86ab2404413cfe",
  "difficulty": 4437278516886,
  "gasLimit": {
    "_hex": "0x2fefd8"
  },
  "gasUsed": {
    "_hex": "0xa410"
  },
  "miner": "0xa50ec0D39fa913E62f1Bae7074E6F36caA71855b",
  "extraData": "0xd783010001844765746887676f312e342e32856c696e7578",
  "transactions": [
    {
      "hash": "0x53d4b84101aed334bc3b392fe29ee6c07c48fad50ac541893d2b860ea6f38b9f",
      "blockHash": "0xbc943aa34ba4c4a0484989e83ccc65f3b9e76fc6717a17a7cc4db7ec21c20246",
      "blockNumber": 111778,
      "transactionIndex": 0,
      "confirmations": null,
      "from": "0x61F642543d22bAf5382908a714E675Cc0b51ea45",
      "gasPrice": {
        "_hex": "0xd51815749"
      },
      "gasLimit": {
        "_hex": "0x5208"
      },
      "to": "0x32Be343B94f860124dC4fEe278FDCBD38C102D88",
      "value": {
        "_hex": "0x455f4cfcc9769000"
      },
      "nonce": 21,
      "data": "0x",
      "r": "0xd77c15635271ff77f5140049b58502b4101937911e7be5eb796e337f97221c38",
      "s": "0x1f38e107303e4877cc3cafb585d6b3bed3be1893e65a3f070c53355c93e81827",
      "v": 28,
      "creates": null,
      "raw": "0xf86c15850d518157498252089432be343b94f860124dc4fee278fdcbd38c102d8888455f4cfcc9769000801ca0d77c15635271ff77f5140049b58502b4101937911e7be5eb796e337f97221c38a01f38e107303e4877cc3cafb585d6b3bed3be1893e65a3f070c53355c93e81827",
      "networkId": 0,
      "chainId": 0
    },
    {
      "hash": "0xccbe29061f48ccb604ca502b6350798a8b3827c8d4d480c254b0f64c8329c80f",
      "blockHash": "0xbc943aa34ba4c4a0484989e83ccc65f3b9e76fc6717a17a7cc4db7ec21c20246",
      "blockNumber": 111778,
      "transactionIndex": 1,
      "confirmations": null,
      "from": "0x943800a6196105B4937F48570Dc5D0232a962da5",
      "gasPrice": {
        "_hex": "0xba43b7400"
      },
      "gasLimit": {
        "_hex": "0x5b04"
      },
      "to": "0x02d7FFc396D24b1dBfca72ce1ae8a22dfa5DA000",
      "value": {
        "_hex": "0x67374ed82cf7c0000"
      },
      "nonce": 10,
      "data": "0x",
      "r": "0xb45c69cb7a8b8eaec30ec0dbe5c93fe2d7f558e96af8c1e2967d3ac42d911260",
      "s": "0x10f58dc5a89c9652e0b096368f14db54b95832ce88b1ce109ba84fbfea6698ef",
      "v": 28,
      "creates": null,
      "raw": "0xf86d0a850ba43b7400825b049402d7ffc396d24b1dbfca72ce1ae8a22dfa5da00089067374ed82cf7c0000801ca0b45c69cb7a8b8eaec30ec0dbe5c93fe2d7f558e96af8c1e2967d3ac42d911260a010f58dc5a89c9652e0b096368f14db54b95832ce88b1ce109ba84fbfea6698ef",
      "networkId": 0,
      "chainId": 0
    }
  ]
}