{
  "hash": "0xf9130be160db4579cd13ac8b8589981e5a3cdf537614ff3686f40f5aee221760",
  "parentHash": "0x8a8da827a0e6f3594deba9f61381cc93a8e8bc29c145b9522eb3cb1c6c756bc0",
  "number": 113451,
  "timestamp": 1440023741,
  "nonce": "0x58f2ef27d838e489",
  "difficulty": 4464643917639,
  "gasLimit": {
    "_hex": "0x2fefd8"
  },
  "gasUsed": {
    "_hex": "0x5208"
  },
  "miner": "0x710c5fEBe84c40b3C12BE2cB2378B863f67235df",
  "extraData": "0x476574682f76312e302e312f6c696e75782f676f312e342e32",
  "transactions": [
    {
      "hash": "0x47eca4c11f5898e9b6a43bd209f5375ed0452e15ad5006469f498673f2babe65",
      "blockHash": "0xf9130be160db4579cd13ac8b8589981e5a3cdf537614ff3686f40f5aee221760",
      "blockNumber": 113451,
      "transactionIndex": 0,
      "confirmations": null,
      "from": "0x120A270bbC009644e35F0bB6ab13f95b8199c4ad",
      "gasPrice": {
        "_hex": "0xcac535530"
      },
      "gasLimit": {
        "_hex": "0x3d090"
      },
      "to": "0x60d85a32126130b225913C23dF4e5EF8b759fA09",
      "value": {
        "_hex": "0x28a857425466f80000"
      },
      "nonce": 908,
      "data": "0x",
      "r": "0xb34c53d7067bf927847be301dde947bb8ada5eef0cb3b659e06591fdb98923aa",
      "s": "0x763298a00beb33e4417e1da9f74fc887c478c42edccfbe118165e540989b420b",
      "v": 27,
      "creates": null,
      "raw": "0xf87082038c850cac5355308303d0909460d85a32126130b225913c23df4e5ef8b759fa098928a857425466f80000801ba0b34c53d7067bf927847be301dde947bb8ada5eef0cb3b659e06591fdb98923aaa0763298a00beb33e4417e1da9f74fc887c478c42edccfbe118165e540989b420b",
      "networkId": 0,
      "chainId": 0
    }
  ]
}