{
  "hash": "0x323a65e813c847f3a29afad9d5ae9e79eff51e5f07530dd999e54e75cb253498",
  "parentHash": "0xf2f3f5629b3606932f476d8ce9c500925f64bfec853fbd7e561a53829ae7c99f",
  "number": 85251,
  "timestamp": 1439560664,
  "nonce": "0x20fc0cc2d40b3b3f",
  "difficulty": 2751775769745,
  "gasLimit": {
    "_hex": "0x2fefd8"
  },
  "gasUsed": {
    "_hex": "0x5208"
  },
  "miner": "0x87898CE53471043FcCa0a2aF4E1dC6d8B3fCf607",
  "extraData": "0x476574682f5369626572696131392f76312e302e312d37666266393930632f6c",
  "transactions": [
    {
      "hash": "0x3aa8997de8d5264a1d36b7c5416fcb32d2f368620f75758e44fce72e454784ce",
      "blockHash": "0x323a65e813c847f3a29afad9d5ae9e79eff51e5f07530dd999e54e75cb253498",
      "blockNumber": 85251,
      "transactionIndex": 0,
      "confirmations": null,
      "from": "0x2910543Af39abA0Cd09dBb2D50200b3E800A63D2",
      "gasPrice": {
        "_hex": "0xd0a2ea35a"
      },
      "gasLimit": {
        "_hex": "0x5208"
      },
      "to": "0x2f86ba8019945f39edE131D38d4d8780884DA553",
      "value": {
        "_hex": "0x1b1ad31369b76f8000"
      },
      "nonce": 601,
      "data": "0x",
      "r": "0x80b72917d46939482062721ce6b3416793c16b53278f1eb5659710cebb92d378",
      "s": "0x53a361267dfe54d27ee617110d5c12a4977a267be95285a4835d3b753a8904e6",
      "v": 28,
      "creates": null,
      "raw": "0xf86f820259850d0a2ea35a825208942f86ba8019945f39ede131d38d4d8780884da553891b1ad31369b76f8000801ca080b72917d46939482062721ce6b3416793c16b53278f1eb5659710cebb92d378a053a361267dfe54d27ee617110d5c12a4977a267be95285a4835d3b753a8904e6",
      "networkId": 0,
      "chainId": 0
    }
  ]
}