{
  "hash": "0xc304c49866f4902827b10abb3887a44573fed34f6232621ccfbd17e59314a12a",
  "parentHash": "0xc43eceafcb09386ba217bf2da8b1e41ea8edf86c747fa24ea79049d12b8cb1ba",
  "number": 121198,
  "timestamp": 1440173072,
  "nonce": "0x799ba334f2c2108e",
  "difficulty": 4406403900614,
  "gasLimit": {
    "_hex": "0x2fefd8"
  },
  "gasUsed": {
    "_hex": "0x5208"
  },
  "miner": "0x900deD2eC098c430caD5347E6F3322932D7BB3a9",
  "extraData": "0x",
  "transactions": [
    {
      "hash": "0x1401c66718e2388ec5fcdc78139cb174b712eca094d77483582cfce5affeb05e",
      "blockHash": "0xc304c49866f4902827b10abb3887a44573fed34f6232621ccfbd17e59314a12a",
      "blockNumber": 121198,
      "transactionIndex": 0,
      "confirmations": null,
      "from": "0x2910543Af39abA0Cd09dBb2D50200b3E800A63D2",
      "gasPrice": {
        "_hex": "0xdf898bb5f"
      },
      "gasLimit": {
        "_hex": "0x5208"
      },
      "to": "0x141d08EDaDA2C1bA62A2940184Ba03d62d3fFF22",
      "value": {
        "_hex": "0x1f387edca522f8000"
      },
      "nonce": 1187,
      "data": "0x",
      "r": "0x62a6fa415bac1d8eeb288719a602525fb58f06b56c93c49537d8d0ea1444b3b0",
      "s": "0x542b3a93b2d3d83c05a6c46be68fdf9dc33d9d2cbbca35152e3c9b9a2836fe21",
      "v": 27,
      "creates": null,
      "raw": "0xf86f8204a3850df898bb5f82520894141d08edada2c1ba62a2940184ba03d62d3fff228901f387edca522f8000801ba062a6fa415bac1d8eeb288719a602525fb58f06b56c93c49537d8d0ea1444b3b0a0542b3a93b2d3d83c05a6c46be68fdf9dc33d9d2cbbca35152e3c9b9a2836fe21",
      "networkId": 0,
      "chainId": 0
    }
  ]
}