{
  "hash": "0xd94699550f39c0d565f2631911eccd008ed117773120e4ff69c51d25f4b520bf",
  "parentHash": "0xc6c0c064af9144b29e1a09aa968ed2076109fdca878f6dd3bc3588f34944460d",
  "number": 68889,
  "timestamp": 1439295194,
  "nonce": "0x202146c25a5c8c4e",
  "difficulty": 2027046339977,
  "gasLimit": {
    "_hex": "0x2fefd8"
  },
  "gasUsed": {
    "_hex": "0xa410"
  },
  "miner": "0xf927a40C8B7F6E07c5af7FA2155B4864a4112B13",
  "extraData": "0x",
  "transactions": [
    {
      "hash": "0x13ac226132989302026a6e973af44265d938ce6dd9637acacb04c02235a89b2a",
      "blockHash": "0xd94699550f39c0d565f2631911eccd008ed117773120e4ff69c51d25f4b520bf",
      "blockNumber": 68889,
      "transactionIndex": 0,
      "confirmations": null,
      "from": "0x95dF4e3445D7662624c48eba74cF9e0a53E9f732",
      "gasPrice": {
        "_hex": "0xd8364fc25"
      },
      "gasLimit": {
        "_hex": "0x5208"
      },
      "to": "0x43279854AaF8825a6d1fcCf056caF190Ab8a7b76",
      "value": {
        "_hex": "0x6c6b935b8bbd400000"
      },
      "nonce": 5,
      "data": "0x",
      "r": "0x8170ce87114220271df8d513dc36d5ed1881b09367d82b97e838d1eb55595ec2",
      "s": "0x20660a400e45ad9a668db710d4c25f92017fa6353155f53ed552bf89c933f096",
      "v": 27,
      "creates": null,
      "raw": "0xf86d05850d8364fc258252089443279854aaf8825a6d1fccf056caf190ab8a7b76896c6b935b8bbd400000801ba08170ce87114220271df8d513dc36d5ed1881b09367d82b97e838d1eb55595ec2a020660a400e45ad9a668db710d4c25f92017fa6353155f53ed552bf89c933f096",
      "networkId": 0,
      "chainId": 0
    },
    {
      "hash": "0x06150cf1fd98513e01b513e882ea131767499d3158192a3a8795ee00d724ad71",
      "blockHash": "0xd94699550f39c0d565f2631911eccd008ed117773120e4ff69c51d25f4b520bf",
      "blockNumber": 68889,
      "transactionIndex": 1,
      "confirmations": null,
      "from": "0x6747f922385c9a6F9cfDf095F34345257DD597bE",
      "gasPrice": {
        "_hex": "0xba43b7400"
      },
      "gasLimit": {
        "_hex": "0x5208"
      },
      "to": "0xCc027873dA96B9B1B4fDA234C06bDD5E6DF93687",
      "value": {
        "_hex": "0x1fcbfa42bd6000"
      },
      "nonce": 147,
      "data": "0x",
      "r": "0xe9312cef2b7c3b21c0fa4d13509da75d660482289a575aacd8b4c9c273843945",
      "s": "0x10de0bf55e3d967002c66f1fc37a9bb970a541970a69cc5b93ed6f3779d11285",
      "v": 27,
      "creates": null,
      "raw": "0xf86c8193850ba43b740082520894cc027873da96b9b1b4fda234c06bdd5e6df93687871fcbfa42bd6000801ba0e9312cef2b7c3b21c0fa4d13509da75d660482289a575aacd8b4c9c273843945a010de0bf55e3d967002c66f1fc37a9bb970a541970a69cc5b93ed6f3779d11285",
      "networkId": 0,
      "chainId": 0
    }
  ]
}