{
  "hash": "0xee62ea551935b71ec7932327766470d1ae973117fa58dd62fe89ea9735a240d7",
  "parentHash": "0xaa7f53bbcf95263608c978100a2a13cac0f41b6547083d3b35ce9bceb81c7780",
  "number": 83015,
  "timestamp": 1439528576,
  "nonce": "0xbac28b4e6f105c70",
  "difficulty": 2410177700031,
  "gasLimit": {
    "_hex": "0x2fefd8"
  },
  "gasUsed": {
    "_hex": "0xa410"
  },
  "miner": "0xf927a40C8B7F6E07c5af7FA2155B4864a4112B13",
  "extraData": "0x",
  "transactions": [
    {
      "hash": "0xe2b75403d279d63d31bb6774e0e0dd728f1a7e5f921f362d29a0d6b88d2ea7fe",
      "blockHash": "0xee62ea551935b71ec7932327766470d1ae973117fa58dd62fe89ea9735a240d7",
      "blockNumber": 83015,
      "transactionIndex": 0,
      "confirmations": null,
      "from": "0x32Be343B94f860124dC4fEe278FDCBD38C102D88",
      "gasPrice": {
        "_hex": "0xdb8cac921"
      },
      "gasLimit": {
        "_hex": "0x5208"
      },
      "to": "0x7d18A54Bd3051327D87eD7B3E6B3d95B772e5180",
      "value": {
        "_hex": "0x1665e6436d1cec0000"
      },
      "nonce": 638,
      "data": "0x",
      "r": "0x3a611c7633f6580c1975a9b3853de4c1e2cc407bfc8f8afde0056bd48ba1fac5",
      "s": "0x0a2692c4f2df29ce28aee51cbbd57efc0c7dd92d15cb57965f12973b25643a97",
      "v": 28,
      "creates": null,
      "raw": "0xf86f82027e850db8cac921825208947d18a54bd3051327d87ed7b3e6b3d95b772e5180891665e6436d1cec0000801ca03a611c7633f6580c1975a9b3853de4c1e2cc407bfc8f8afde0056bd48ba1fac5a00a2692c4f2df29ce28aee51cbbd57efc0c7dd92d15cb57965f12973b25643a97",
      "networkId": 0,
      "chainId": 0
    },
    {
      "hash": "0xa998836c87ad1ff8051ae17ef4dcbd78c823d7378610d291cc06b574188552ea",
      "blockHash": "0xee62ea551935b71ec7932327766470d1ae973117fa58dd62fe89ea9735a240d7",
      "blockNumber": 83015,
      "transactionIndex": 1,
      "confirmations": null,
      "from": "0x32Be343B94f860124dC4fEe278FDCBD38C102D88",
      "gasPrice": {
        "_hex": "0xdb8cac921"
      },
      "gasLimit": {
        "_hex": "0x5208"
      },
      "to": "0x2e32A53e7972001B996D994722B1ab3dD869949d",
      "value": {
        "_hex": "0x35515d2bd73fc00"
      },
      "nonce": 639,
      "data": "0x",
      "r": "0x3e538f60c270e99f26887255e4b2fcdd03b1209da3af0b5eb93c7f97f5c2a7f9",
      "s": "0x5ed9199ce74a47bf98e7dd9b77428c49c6f44aaeac814b92bfaa889a67fcd8b7",
      "v": 27,
      "creates": null,
      "raw": "0xf86e82027f850db8cac921825208942e32a53e7972001b996d994722b1ab3dd869949d88035515d2bd73fc00801ba03e538f60c270e99f26887255e4b2fcdd03b1209da3af0b5eb93c7f97f5c2a7f9a05ed9199ce74a47bf98e7dd9b77428c49c6f44aaeac814b92bfaa889a67fcd8b7",
      "networkId": 0,
      "chainId": 0
    }
  ]
}