{
  "hash": "0x96b3d2090e077f067b9746f52ea958b4fa57bcfc9057fb8de55fbebfefe2811c",
  "parentHash": "0x72836b12f76040b2a36e14974ff40bd01a4d8c1d8c347bac57ddbe668ca8b363",
  "number": 57762,
  "timestamp": 1439109260,
  "nonce": "0xc87fce06ea2ee32f",
  "difficulty": 1723456623244,
  "gasLimit": {
    "_hex": "0x2fefd8"
  },
  "gasUsed": {
    "_hex": "0xa674"
  },
  "miner": "0x87898CE53471043FcCa0a2aF4E1dC6d8B3fCf607",
  "extraData": "0x476574682f5369626572696131392f76312e302e312d37666266393930632f6c",
  "transactions": [
    {
      "hash": "0x5409034bc93364e631a758958bbf9dc5f44acabede9f35d1fa19d78202779943",
      "blockHash": "0x96b3d2090e077f067b9746f52ea958b4fa57bcfc9057fb8de55fbebfefe2811c",
      "blockNumber": 57762,
      "transactionIndex": 0,
      "confirmations": null,
      "from": "0x08d54e83ad486a934cfaeAe283a33Efd227C0E99",
      "gasPrice": {
        "_hex": "0x110c8f7d8de"
      },
      "gasLimit": {
        "_hex": "0xc350"
      },
      "to": "0x2910543Af39abA0Cd09dBb2D50200b3E800A63D2",
      "value": {
        "_hex": "0x1b1ae4d6e2ef500000"
      },
      "nonce": 0,
      "data": "0x454e36434846423652",
      "r": "0xfe9283e9d9c1d1fbc46c7fa4321e4846a6411c76d423d7e9663a3ba3b8d6c4a3",
      "s": "0x68caac4bb0919a111003cc03697d485e2ba54a882acb5dbe7b853bd2977bb6dd",
      "v": 28,
      "creates": null,
      "raw": "0xf87780860110c8f7d8de82c350942910543af39aba0cd09dbb2d50200b3e800a63d2891b1ae4d6e2ef50000089454e364348464236521ca0fe9283e9d9c1d1fbc46c7fa4321e4846a6411c76d423d7e9663a3ba3b8d6c4a3a068caac4bb0919a111003cc03697d485e2ba54a882acb5dbe7b853bd2977bb6dd",
      "networkId": 0,
      "chainId": 0
    },
    {
      "hash": "0xe9ecde43d86d5d33fd887164dd4e66ebb9c73de2a0a8b6caab8dfb52287590aa",
      "blockHash": "0x96b3d2090e077f067b9746f52ea958b4fa57bcfc9057fb8de55fbebfefe2811c",
      "blockNumber": 57762,
      "transactionIndex": 1,
      "confirmations": null,
      "from": "0x0015B5e5AFE7EBA613CD1bA0A7345ED150ADF5DC",
      "gasPrice": {
        "_hex": "0xba43b7400"
      },
      "gasLimit": {
        "_hex": "0x5266"
      },
      "to": "0x0B2Aa8Dd6DfbbA814e09e4C81a236109b3035364",
      "value": {
        "_hex": "0x64"
      },
      "nonce": 0,
      "data": "0x",
      "r": "0x83721c48e5c20c3386d5d8c6058efd36f419f638619b2058d956f96ecd16e86e",
      "s": "0x19dc30c7035b21b761c8003b36adb0b7a11d70e633c28a78bc520a20b093f3ed",
      "v": 27,
      "creates": null,
      "raw": "0xf86480850ba43b7400825266940b2aa8dd6dfbba814e09e4c81a236109b303536464801ba083721c48e5c20c3386d5d8c6058efd36f419f638619b2058d956f96ecd16e86ea019dc30c7035b21b761c8003b36adb0b7a11d70e633c28a78bc520a20b093f3ed",
      "networkId": 0,
      "chainId": 0
    }
  ]
}