{
  "hash": "0x1c82247840cf902ca9a4256f05112b46893b742e425bd6851fa21c7fba5ac39d",
  "parentHash": "0x43d6ea8b7d330bc9ee0a0b25e74635fc420221ee316c3a74dc2ab079da8f88aa",
  "number": 75359,
  "timestamp": 1439402063,
  "nonce": "0x53e4cec4f6e7af0c",
  "difficulty": 2190069876830,
  "gasLimit": {
    "_hex": "0x2fefd8"
  },
  "gasUsed": {
    "_hex": "0x5208"
  },
  "miner": "0xe6A7a1d47ff21B6321162AEA7C6CB457D5476Bca",
  "extraData": "0x476574682f76312e302e312d38326566323666362f6c696e75782f676f312e34",
  "transactions": [
    {
      "hash": "0x57d4adbd95424bb4a22b54d533bb53a348eec96cc534e33417393e7a97a617d4",
      "blockHash": "0x1c82247840cf902ca9a4256f05112b46893b742e425bd6851fa21c7fba5ac39d",
      "blockNumber": 75359,
      "transactionIndex": 0,
      "confirmations": null,
      "from": "0x326Be8F71bFb0379f989aAB1CC1fE37f0a771f60",
      "gasPrice": {
        "_hex": "0x10dc90d85e7"
      },
      "gasLimit": {
        "_hex": "0x15f90"
      },
      "to": "0x0c7a4e5c8aCa4Ff0C9655EDD175f82feF48F1717",
      "value": {
        "_hex": "0x29a2241af62c0000"
      },
      "nonce": 94,
      "data": "0x",
      "r": "0x6a53105d244e7b3cb4fbde0f6fd04d5720e22bf222aa9ade470debbd8f35bdb6",
      "s": "0x0e171493668c2cdfffe7c74d3187233df6f49af90611fe78c6c87008224630d3",
      "v": 28,
      "creates": null,
      "raw": "0xf86e5e86010dc90d85e783015f90940c7a4e5c8aca4ff0c9655edd175f82fef48f17178829a2241af62c0000801ca06a53105d244e7b3cb4fbde0f6fd04d5720e22bf222aa9ade470debbd8f35bdb6a00e171493668c2cdfffe7c74d3187233df6f49af90611fe78c6c87008224630d3",
      "networkId": 0,
      "chainId": 0
    }
  ]
}