{
  "hash": "0xb7433ae9997e9152f6b7a0cc789c54d3ff8a00474c20ca42a6d4debfb0053c9a",
  "parentHash": "0xce863960b0a1e06ac01816306ac2041a8a149fa8d4470475dc2eb6688d1ef75a",
  "number": 102439,
  "timestamp": 1439838021,
  "nonce": "0x138e10be1db8f2bf",
  "difficulty": 3964520827787,
  "gasLimit": {
    "_hex": "0x2fefd8"
  },
  "gasUsed": {
    "_hex": "0xa410"
  },
  "miner": "0xbb7B8287f3F0a933474a79eAe42CBCa977791171",
  "extraData": "0x476574682f4c5649562f76312e302e312f6c696e75782f676f312e342e32",
  "transactions": [
    {
      "hash": "0x5752097b35abde5480e21c3cc1cbbefbf0862b0bcacfd903614b2dd616dd4f0e",
      "blockHash": "0xb7433ae9997e9152f6b7a0cc789c54d3ff8a00474c20ca42a6d4debfb0053c9a",
      "blockNumber": 102439,
      "transactionIndex": 0,
      "confirmations": null,
      "from": "0x120A270bbC009644e35F0bB6ab13f95b8199c4ad",
      "gasPrice": {
        "_hex": "0xd8ff6af11"
      },
      "gasLimit": {
        "_hex": "0x3d090"
      },
      "to": "0xCFac548F6C7Aa43932439B30d60A813cfB93171e",
      "value": {
        "_hex": "0x31e83dcf5392df400"
      },
      "nonce": 698,
      "data": "0x",
      "r": "0x7c68d2bc88a8f7b4ba0840da7fcb8bc9af337c1769e409671646d9e3f6c07fc1",
      "s": "0x6782ad976bd934a0f6a7ce4638a826c07211b397f7a3b845e98542e0769b1ffc",
      "v": 27,
      "creates": null,
      "raw": "0xf8708202ba850d8ff6af118303d09094cfac548f6c7aa43932439b30d60a813cfb93171e89031e83dcf5392df400801ba07c68d2bc88a8f7b4ba0840da7fcb8bc9af337c1769e409671646d9e3f6c07fc1a06782ad976bd934a0f6a7ce4638a826c07211b397f7a3b845e98542e0769b1ffc",
      "networkId": 0,
      "chainId": 0
    },
    {
      "hash": "0xc85c600d3245707c9b88f8d0557cf7e350624ca8620ca77b51a05d3db3629fb5",
      "blockHash": "0xb7433ae9997e9152f6b7a0cc789c54d3ff8a00474c20ca42a6d4debfb0053c9a",
      "blockNumber": 102439,
      "transactionIndex": 1,
      "confirmations": null,
      "from": "0x2910543Af39abA0Cd09dBb2D50200b3E800A63D2",
      "gasPrice": {
        "_hex": "0xd343ff497"
      },
      "gasLimit": {
        "_hex": "0x5208"
      },
      "to": "0x021fF6EcBCa7b772E44A431d3c7dc85f7149ae5c",
      "value": {
        "_hex": "0x11c37937e08000"
      },
      "nonce": 995,
      "data": "0x",
      "r": "0x75b515ca1c61fa07374567c789d9011872b14ebddd3d73332dc307c6fdb2ebdd",
      "s": "0x3885031614c8c1d0a406b15063e5117b06f02f97c948b1fd414cac14d8fd461f",
      "v": 27,
      "creates": null,
      "raw": "0xf86d8203e3850d343ff49782520894021ff6ecbca7b772e44a431d3c7dc85f7149ae5c8711c37937e08000801ba075b515ca1c61fa07374567c789d9011872b14ebddd3d73332dc307c6fdb2ebdda03885031614c8c1d0a406b15063e5117b06f02f97c948b1fd414cac14d8fd461f",
      "networkId": 0,
      "chainId": 0
    }
  ]
}