{
  "hash": "0xc67fc0a3ee321aa487fd97355aaf66cbf8f2a3bc2363392fe0609441f9a00acf",
  "parentHash": "0xa962c6d10a9193138aa37f3043d755a07d5031b9b4a442f0209098a5f648cd69",
  "number": 47244,
  "timestamp": 1438936718,
  "nonce": "0x41b45200651956fa",
  "difficulty": 1463084248854,
  "gasLimit": {
    "_hex": "0xa7c1"
  },
  "gasUsed": {
    "_hex": "0x5208"
  },
  "miner": "0xab84940B570d6358ed6A9Dbf7e0bc8Ec8F5A6E89",
  "extraData": "0x322831652933",
  "transactions": [
    {
      "hash": "0xbe10937f6d3ae637e0f10287e6d4620cf8eee0f50e05ec013dc5beb9066b81d2",
      "blockHash": "0xc67fc0a3ee321aa487fd97355aaf66cbf8f2a3bc2363392fe0609441f9a00acf",
      "blockNumber": 47244,
      "transactionIndex": 0,
      "confirmations": null,
      "from": "0x24339341F29d2aaD7d3c591c0f9931e7D4bFEd6e",
      "gasPrice": {
        "_hex": "0x45d964b800"
      },
      "gasLimit": {
        "_hex": "0x5208"
      },
      "to": "0x56011d6b57A70c27F7cc294905A5DdA65BfBd154",
      "value": {
        "_hex": "0x1b1ae4d6e2ef500000"
      },
      "nonce": 3,
      "data": "0x",
      "r": "0x3a7a29cf7f916995213508acc8dd7dad435253d11d17e4eb1797d6bbe4f55b26",
      "s": "0x7e7c0f3e4926e46142f2b72d34f21198c8b2dc45236f61defa110686f8800bcc",
      "v": 27,
      "creates": null,
      "raw": "0xf86d038545d964b8008252089456011d6b57a70c27f7cc294905a5dda65bfbd154891b1ae4d6e2ef500000801ba03a7a29cf7f916995213508acc8dd7dad435253d11d17e4eb1797d6bbe4f55b26a07e7c0f3e4926e46142f2b72d34f21198c8b2dc45236f61defa110686f8800bcc",
      "networkId": 0,
      "chainId": 0
    }
  ]
}