{
  "hash": "0x0dbdf2b9a1b49f8a2a4c6393ee5e45aba0819b9dc0bd6bde6a681afb83b3984b",
  "parentHash": "0xd53fd464ac363bbefb21c56e285ea2192b60951082c209e3334969117e105433",
  "number": 75343,
  "timestamp": 1439401723,
  "nonce": "0x964c3bda30ba552c",
  "difficulty": 2196499695114,
  "gasLimit": {
    "_hex": "0x2fefd8"
  },
  "gasUsed": {
    "_hex": "0xf618"
  },
  "miner": "0x9746c7e1ef2bd21FF3997fa467593a89cb852BD0",
  "extraData": "0x476574682f76312e302e312f77696e646f77732f676f312e342e32",
  "transactions": [
    {
      "hash": "0x60bcf1c9ec61455a41f2f5e1aab6d60aff92e9bee2b6457c844357ca56d9bc2e",
      "blockHash": "0x0dbdf2b9a1b49f8a2a4c6393ee5e45aba0819b9dc0bd6bde6a681afb83b3984b",
      "blockNumber": 75343,
      "transactionIndex": 0,
      "confirmations": null,
      "from": "0xa6BDc31c431B8F97848c9D60cbbe9660dc450eB7",
      "gasPrice": {
        "_hex": "0xd67e64ee2"
      },
      "gasLimit": {
        "_hex": "0x5208"
      },
      "to": "0x32Be343B94f860124dC4fEe278FDCBD38C102D88",
      "value": {
        "_hex": "0x455f45cfc0d0dc00"
      },
      "nonce": 8,
      "data": "0x",
      "r": "0x8bb3465c3aae2ce11b62276d290d888e9eaeae63bf6758eda87e9c081c270928",
      "s": "0x1d8b5cc798f387e67fca2bfc9b25899baf8d0c15923d716e817f594e21cd791a",
      "v": 27,
      "creates": null,
      "raw": "0xf86c08850d67e64ee28252089432be343b94f860124dc4fee278fdcbd38c102d8888455f45cfc0d0dc00801ba08bb3465c3aae2ce11b62276d290d888e9eaeae63bf6758eda87e9c081c270928a01d8b5cc798f387e67fca2bfc9b25899baf8d0c15923d716e817f594e21cd791a",
      "networkId": 0,
      "chainId": 0
    },
    {
      "hash": "0x8980c8b04e2aed76ac2bc32d22c673d0404839ea06ee3d2fcd92377996079a9d",
      "blockHash": "0x0dbdf2b9a1b49f8a2a4c6393ee5e45aba0819b9dc0bd6bde6a681afb83b3984b",
      "blockNumber": 75343,
      "transactionIndex": 1,
      "confirmations": null,
      "from": "0xa9f5E7bf6Cbf6fEc55B30850Eb492b47A376d050",
      "gasPrice": {
        "_hex": "0xd67e64ee2"
      },
      "gasLimit": {
        "_hex": "0x5208"
      },
      "to": "0x32Be343B94f860124dC4fEe278FDCBD38C102D88",
      "value": {
        "_hex": "0x813c60adde9110000"
      },
      "nonce": 15,
      "data": "0x",
      "r": "0x7d07f66b80a1ca379d216341aab9df5ee4595061aa29438cc7710f149e58794f",
      "s": "0x7771081e7407c07b7fd966c577857ba1cf7ee45d4849292bab474f52519762c2",
      "v": 27,
      "creates": null,
      "raw": "0xf86d0f850d67e64ee28252089432be343b94f860124dc4fee278fdcbd38c102d88890813c60adde9110000801ba07d07f66b80a1ca379d216341aab9df5ee4595061aa29438cc7710f149e58794fa07771081e7407c07b7fd966c577857ba1cf7ee45d4849292bab474f52519762c2",
      "networkId": 0,
      "chainId": 0
    },
    {
      "hash": "0x323568c98b2e85e9a59dc36a7c4a4d832ded7197189e2b6092bcdd0dd38ec271",
      "blockHash": "0x0dbdf2b9a1b49f8a2a4c6393ee5e45aba0819b9dc0bd6bde6a681afb83b3984b",
      "blockNumber": 75343,
      "transactionIndex": 2,
      "confirmations": null,
      "from": "0x76628150e2995B5b279FC83e0DD5F102A671dd1C",
      "gasPrice": {
        "_hex": "0xd1f217cbf"
      },
      "gasLimit": {
        "_hex": "0x15f90"
      },
      "to": "0x00d4C26dee05E008302b543291B452768145beeD",
      "value": {
        "_hex": "0x2189257fe2600680000"
      },
      "nonce": 2,
      "data": "0x",
      "r": "0x19d4f0687e3f54dd8839855cd9e424680d2183bdd11269abe956d30a1088a160",
      "s": "0x537e79be9f3246d7b3e454ac4d7678af1e8db75ffa9036f4b000302d7a35c0b5",
      "v": 27,
      "creates": null,
      "raw": "0xf86f02850d1f217cbf83015f909400d4c26dee05e008302b543291b452768145beed8a02189257fe2600680000801ba019d4f0687e3f54dd8839855cd9e424680d2183bdd11269abe956d30a1088a160a0537e79be9f3246d7b3e454ac4d7678af1e8db75ffa9036f4b000302d7a35c0b5",
      "networkId": 0,
      "chainId": 0
    }
  ]
}