{
  "hash": "0x54d0d786038429fe154c24b28c0cd023d733f8ff22c5d4467827092396ffef83",
  "parentHash": "0x456934cd6bfff77f111816de01040fb0a83acc37ff27a66479353355ff66b6be",
  "number": 110515,
  "timestamp": 1439975067,
  "nonce": "0x50d1bfee0cabf7fd",
  "difficulty": 4367009809123,
  "gasLimit": {
    "_hex": "0x2fefd8"
  },
  "gasUsed": {
    "_hex": "0x14820"
  },
  "miner": "0x88D74a59454F6cF3B51ef6b9136AFb6b9D405A88",
  "extraData": "0x",
  "transactions": [
    {
      "hash": "0xe89821540b543ecc71e6ad89313f272539176e33eb5fa4232e06bfa2a5949ec8",
      "blockHash": "0x54d0d786038429fe154c24b28c0cd023d733f8ff22c5d4467827092396ffef83",
      "blockNumber": 110515,
      "transactionIndex": 0,
      "confirmations": null,
      "from": "0x3FF679B0823a026F2378E5f5F22A6F127cC85828",
      "gasPrice": {
        "_hex": "0x108234e8514"
      },
      "gasLimit": {
        "_hex": "0x61a8"
      },
      "to": "0x37AaD32F4b316d18A23db46BD3531D7D4d5fCa8a",
      "value": {
        "_hex": "0x16345785d8a0000"
      },
      "nonce": 7,
      "data": "0x",
      "r": "0xf5ebded60d027a2a6c9b8f71b99f0b9d38cc810b272a30713ad74af5bd69bed1",
      "s": "0x2c5bd2a64eb2ccfa3d45f7868d02a09b3969ab30734eea17b17a4fca0d4e4de6",
      "v": 28,
      "creates": null,
      "raw": "0xf86d07860108234e85148261a89437aad32f4b316d18a23db46bd3531d7d4d5fca8a88016345785d8a0000801ca0f5ebded60d027a2a6c9b8f71b99f0b9d38cc810b272a30713ad74af5bd69bed1a02c5bd2a64eb2ccfa3d45f7868d02a09b3969ab30734eea17b17a4fca0d4e4de6",
      "networkId": 0,
      "chainId": 0
    },
    {
      "hash": "0x93de9720a688d09ff1d87365bb501e4a0bf94685c68b37bb98dd51e4ef8d279c",
      "blockHash": "0x54d0d786038429fe154c24b28c0cd023d733f8ff22c5d4467827092396ffef83",
      "blockNumber": 110515,
      "transactionIndex": 1,
      "confirmations": null,
      "from": "0x32Be343B94f860124dC4fEe278FDCBD38C102D88",
      "gasPrice": {
        "_hex": "0xd96e06aa1"
      },
      "gasLimit": {
        "_hex": "0x5208"
      },
      "to": "0xeD3Fd00D62A795a3A07c71B4f4D94003F92f8A86",
      "value": {
        "_hex": "0x4563918244f400000"
      },
      "nonce": 1288,
      "data": "0x",
      "r": "0xaf4c2a5966e06466a403d2b39abee82ee8bf153c3ca551354d88162eea83ee6d",
      "s": "0x582841f80999a48d7e6d08abdc404fca1c46f841191cbe772bbd2988bd4f5cf9",
      "v": 28,
      "creates": null,
      "raw": "0xf86f820508850d96e06aa182520894ed3fd00d62a795a3a07c71b4f4d94003f92f8a868904563918244f400000801ca0af4c2a5966e06466a403d2b39abee82ee8bf153c3ca551354d88162eea83ee6da0582841f80999a48d7e6d08abdc404fca1c46f841191cbe772bbd2988bd4f5cf9",
      "networkId": 0,
      "chainId": 0
    },
    {
      "hash": "0xb7ba4bab990b9406797ed217b4ee6d9520be4abecd51f38ed84c1b7a98fb0bd8",
      "blockHash": "0x54d0d786038429fe154c24b28c0cd023d733f8ff22c5d4467827092396ffef83",
      "blockNumber": 110515,
      "transactionIndex": 2,
      "confirmations": null,
      "from": "0x32Be343B94f860124dC4fEe278FDCBD38C102D88",
      "gasPrice": {
        "_hex": "0xd96e06aa1"
      },
      "gasLimit": {
        "_hex": "0x5208"
      },
      "to": "0x585375840C778D2D3532B85971bD990621c72153",
      "value": {
        "_hex": "0x1b9de674df070000"
      },
      "nonce": 1289,
      "data": "0x",
      "r": "0xc5e71fed8fcbfed28ac90cefdbce992a097b3b01bf16899f0df10b14ab03d21b",
      "s": "0x528346cd0130c65e1f4699bc3f3cc8e50916ffc2c0a6f5adde003b0305e859c7",
      "v": 27,
      "creates": null,
      "raw": "0xf86e820509850d96e06aa182520894585375840c778d2d3532b85971bd990621c72153881b9de674df070000801ba0c5e71fed8fcbfed28ac90cefdbce992a097b3b01bf16899f0df10b14ab03d21ba0528346cd0130c65e1f4699bc3f3cc8e50916ffc2c0a6f5adde003b0305e859c7",
      "networkId": 0,
      "chainId": 0
    },
    {
      "hash": "0x5263c3ded1d2e7b4f54589345ef1eb5fb17d8062db030f5669eb5dcb32e43254",
      "blockHash": "0x54d0d786038429fe154c24b28c0cd023d733f8ff22c5d4467827092396ffef83",
      "blockNumber": 110515,
      "transactionIndex": 3,
      "confirmations": null,
      "from": "0x2910543Af39abA0Cd09dBb2D50200b3E800A63D2",
      "gasPrice": {
        "_hex": "0xd8c6041a6"
      },
      "gasLimit": {
        "_hex": "0x5208"
      },
      "to": "0x2f86ba8019945f39edE131D38d4d8780884DA553",
      "value": {
        "_hex": "0x326a45f52ce1678000"
      },
      "nonce": 1088,
      "data": "0x",
      "r": "0x29c2ac2155f3ed4b489dbebbbc3788550c3fb728662409135dbd553d3c5c0e92",
      "s": "0x7b0d5ba182c08e611d9bca33905a8c4e5d6881de1c73f4303601f40f4b220470",
      "v": 28,
      "creates": null,
      "raw": "0xf86f820440850d8c6041a6825208942f86ba8019945f39ede131d38d4d8780884da55389326a45f52ce1678000801ca029c2ac2155f3ed4b489dbebbbc3788550c3fb728662409135dbd553d3c5c0e92a07b0d5ba182c08e611d9bca33905a8c4e5d6881de1c73f4303601f40f4b220470",
      "networkId": 0,
      "chainId": 0
    }
  ]
}