{
  "hash": "0x78eb8ec9e21b5d6e0e9736cdf4c0e67328467ceb5a2861af09ff85800cf1ca1c",
  "parentHash": "0xd4202ffd00409cfb9a2b6637a623bdbecec1d21147d548daf5c559a0afc6e703",
  "number": 46665,
  "timestamp": 1438927168,
  "nonce": "0xb0f879d136c682c6",
  "difficulty": 1456769331643,
  "gasLimit": {
    "_hex": "0x6f97"
  },
  "gasUsed": {
    "_hex": "0x5208"
  },
  "miner": "0xe6A7a1d47ff21B6321162AEA7C6CB457D5476Bca",
  "extraData": "0x657468706f6f6c2e6f7267",
  "transactions": [
    {
      "hash": "0x27154ff04a38e92a6340182fdddd63d0f1fb5c053b948a88e32780289d322b14",
      "blockHash": "0x78eb8ec9e21b5d6e0e9736cdf4c0e67328467ceb5a2861af09ff85800cf1ca1c",
      "blockNumber": 46665,
      "transactionIndex": 0,
      "confirmations": null,
      "from": "0x6331fC207Bfc3aAbDeD887b553e5CD9898c8f801",
      "gasPrice": {
        "_hex": "0xce8475f8a"
      },
      "gasLimit": {
        "_hex": "0x5208"
      },
      "to": "0x32Be343B94f860124dC4fEe278FDCBD38C102D88",
      "value": {
        "_hex": "0x1b1ae0b4147c010000"
      },
      "nonce": 0,
      "data": "0x",
      "r": "0xfe96fba31e17a40aab3961f8e3df85849da8348098e801ecb82204806e3de721",
      "s": "0x71fb3a1fb50e95178e4de59882af0cd0f84d3c9a458efa2c6d346a53a881a62d",
      "v": 28,
      "creates": null,
      "raw": "0xf86d80850ce8475f8a8252089432be343b94f860124dc4fee278fdcbd38c102d88891b1ae0b4147c010000801ca0fe96fba31e17a40aab3961f8e3df85849da8348098e801ecb82204806e3de721a071fb3a1fb50e95178e4de59882af0cd0f84d3c9a458efa2c6d346a53a881a62d",
      "networkId": 0,
      "chainId": 0
    }
  ]
}