{
  "hash": "0xef7b75e3f089f8c5e3b8a08e3a4a34950f28f9847f43cacf60caaaf601755b3f",
  "parentHash": "0x7c61f9363339835181e653f9576dc885428ce441c8de9448fe9417d216a95777",
  "number": 55852,
  "timestamp": 1439078104,
  "nonce": "0x5e22bbfca457abb3",
  "difficulty": 1609945372336,
  "gasLimit": {
    "_hex": "0x2fefd8"
  },
  "gasUsed": {
    "_hex": "0x23e9e"
  },
  "miner": "0xf927a40C8B7F6E07c5af7FA2155B4864a4112B13",
  "extraData": "0x476574682f76312e302e312f6c696e75782f676f312e342e32",
  "transactions": [
    {
      "hash": "0xf0c4bd7aba4969b0f6b20237e0d13ecdf15f6deae15988350e2568aa7715dcc5",
      "blockHash": "0xef7b75e3f089f8c5e3b8a08e3a4a34950f28f9847f43cacf60caaaf601755b3f",
      "blockNumber": 55852,
      "transactionIndex": 0,
      "confirmations": null,
      "from": "0x1308A2e95c0160B90803ddCA9B9a5bb55E416d79",
      "gasPrice": {
        "_hex": "0x9184e72a000"
      },
      "gasLimit": {
        "_hex": "0x15f90"
      },
      "to": "0x025c3B43d57E72D2150E14B2B0c6D923FbFC0474",
      "value": {
        "_hex": "0x3635c9adc5dea00000"
      },
      "nonce": 47,
      "data": "0x",
      "r": "0x718e1d1cbcf98fe2752610b94085c9ed4de843d04bdd610047f52cfcee16d4e4",
      "s": "0x5bfbde8004dc970c1d92990b54c57d7f837d35f9157e611d31755a70551b665e",
      "v": 28,
      "creates": null,
      "raw": "0xf86f2f8609184e72a00083015f9094025c3b43d57e72d2150e14b2b0c6d923fbfc0474893635c9adc5dea00000801ca0718e1d1cbcf98fe2752610b94085c9ed4de843d04bdd610047f52cfcee16d4e4a05bfbde8004dc970c1d92990b54c57d7f837d35f9157e611d31755a70551b665e",
      "networkId": 0,
      "chainId": 0
    },
    {
      "hash": "0xa572b1783e7e05edc9ae8e241a4ee76dc9336fd49b307c9558eb48bf6c5de91e",
      "blockHash": "0xef7b75e3f089f8c5e3b8a08e3a4a34950f28f9847f43cacf60caaaf601755b3f",
      "blockNumber": 55852,
      "transactionIndex": 1,
      "confirmations": null,
      "from": "0x1308A2e95c0160B90803ddCA9B9a5bb55E416d79",
      "gasPrice": {
        "_hex": "0x9184e72a000"
      },
      "gasLimit": {
        "_hex": "0x15f90"
      },
      "to": "0x025c3B43d57E72D2150E14B2B0c6D923FbFC0474",
      "value": {
        "_hex": "0x3635c9adc5dea00000"
      },
      "nonce": 48,
      "data": "0x",
      "r": "0x74e88ad0e414a80877792de252b27d5a58c525d1c63dfd5e627655df5a0226d2",
      "s": "0x0f63309b77864a714148a705e7e1905502dbaaf24f9358b5bd0b45b5bfcb7de9",
      "v": 27,
      "creates": null,
      "raw": "0xf86f308609184e72a00083015f9094025c3b43d57e72d2150e14b2b0c6d923fbfc0474893635c9adc5dea00000801ba074e88ad0e414a80877792de252b27d5a58c525d1c63dfd5e627655df5a0226d2a00f63309b77864a714148a705e7e1905502dbaaf24f9358b5bd0b45b5bfcb7de9",
      "networkId": 0,
      "chainId": 0
    },
    {
      "hash": "0xd4bbb018639db4a6b107ee2dd34f3d4bf5d1ddda6962705c5ec25176704293b5",
      "blockHash": "0xef7b75e3f089f8c5e3b8a08e3a4a34950f28f9847f43cacf60caaaf601755b3f",
      "blockNumber": 55852,
      "transactionIndex": 2,
      "confirmations": null,
      "from": "0x1308A2e95c0160B90803ddCA9B9a5bb55E416d79",
      "gasPrice": {
        "_hex": "0x9184e72a000"
      },
      "gasLimit": {
        "_hex": "0x15f90"
      },
      "to": "0x025c3B43d57E72D2150E14B2B0c6D923FbFC0474",
      "value": {
        "_hex": "0x3635c9adc5dea00000"
      },
      "nonce": 49,
      "data": "0x",
      "r": "0x6f52f23109faa3c8460869a07bef9b81462beff648e2d12dc0bf735e5ccc885b",
      "s": "0x5b157f2eee9505bbabd658e2961ebff0cefb797efc15d3553a90bedb01d74fda",
      "v": 28,
      "creates": null,
      "raw": "0xf86f318609184e72a00083015f9094025c3b43d57e72d2150e14b2b0c6d923fbfc0474893635c9adc5dea00000801ca06f52f23109faa3c8460869a07bef9b81462beff648e2d12dc0bf735e5ccc885ba05b157f2eee9505bbabd658e2961ebff0cefb797efc15d3553a90bedb01d74fda",
      "networkId": 0,
      "chainId": 0
    },
    {
      "hash": "0x2e794db0220d1796c9e073af232c3027c2da987381a31ec197f802c1e32bae52",
      "blockHash": "0xef7b75e3f089f8c5e3b8a08e3a4a34950f28f9847f43cacf60caaaf601755b3f",
      "blockNumber": 55852,
      "transactionIndex": 3,
      "confirmations": null,
      "from": "0x1308A2e95c0160B90803ddCA9B9a5bb55E416d79",
      "gasPrice": {
        "_hex": "0x9184e72a000"
      },
      "gasLimit": {
        "_hex": "0x15f90"
      },
      "to": "0x025c3B43d57E72D2150E14B2B0c6D923FbFC0474",
      "value": {
        "_hex": "0x3635c9adc5dea00000"
      },
      "nonce": 50,
      "data": "0x",
      "r": "0x6a8abf3a93a04697dc6edee2d59b72932c1d3a59436996e911a8e76c1c7b17ff",
      "s": "0x1233fc1b7be7d6ee1b13e4f9f8c881bb6772c81346a7d8e3bc53d2378d687eae",
      "v": 27,
      "creates": null,
      "raw": "0xf86f328609184e72a00083015f9094025c3b43d57e72d2150e14b2b0c6d923fbfc0474893635c9adc5dea00000801ba06a8abf3a93a04697dc6edee2d59b72932c1d3a59436996e911a8e76c1c7b17ffa01233fc1b7be7d6ee1b13e4f9f8c881bb6772c81346a7d8e3bc53d2378d687eae",
      "networkId": 0,
      "chainId": 0
    },
    {
      "hash": "0x6b6d191a18c3a4f2a4c95c9deb36c17bea4cdaa40d2c1ca0ff787eb956a192bd",
      "blockHash": "0xef7b75e3f089f8c5e3b8a08e3a4a34950f28f9847f43cacf60caaaf601755b3f",
      "blockNumber": 55852,
      "transactionIndex": 4,
      "confirmations": null,
      "from": "0x1308A2e95c0160B90803ddCA9B9a5bb55E416d79",
      "gasPrice": {
        "_hex": "0x9184e72a000"
      },
      "gasLimit": {
        "_hex": "0x15f90"
      },
      "to": "0x025c3B43d57E72D2150E14B2B0c6D923FbFC0474",
      "value": {
        "_hex": "0x3635c9adc5dea00000"
      },
      "nonce": 51,
      "data": "0x",
      "r": "0x9a4d1c56256e97a26352b8f95642aa1f058ce2e6b2107acf2d3a8ff012f1cfd3",
      "s": "0x6d9d2ff51b17fd69ca1b5fc2b3acd0cb363cf272e474f31687d992122b4d0b75",
      "v": 28,
      "creates": null,
      "raw": "0xf86f338609184e72a00083015f9094025c3b43d57e72d2150e14b2b0c6d923fbfc0474893635c9adc5dea00000801ca09a4d1c56256e97a26352b8f95642aa1f058ce2e6b2107acf2d3a8ff012f1cfd3a06d9d2ff51b17fd69ca1b5fc2b3acd0cb363cf272e474f31687d992122b4d0b75",
      "networkId": 0,
      "chainId": 0
    },
    {
      "hash": "0x8cff54cbcecd8d9ab5aefa78fa8f3daa8618a111c8fbf8357e5b20acac7ea114",
      "blockHash": "0xef7b75e3f089f8c5e3b8a08e3a4a34950f28f9847f43cacf60caaaf601755b3f",
      "blockNumber": 55852,
      "transactionIndex": 5,
      "confirmations": null,
      "from": "0x1308A2e95c0160B90803ddCA9B9a5bb55E416d79",
      "gasPrice": {
        "_hex": "0x9184e72a000"
      },
      "gasLimit": {
        "_hex": "0x15f90"
      },
      "to": "0x025c3B43d57E72D2150E14B2B0c6D923FbFC0474",
      "value": {
        "_hex": "0x3635c9adc5dea00000"
      },
      "nonce": 52,
      "data": "0x",
      "r": "0xd1ee7fb2e117c905471d2faef0df5a28cd7b8cbf5dc33ae69435f452c4975629",
      "s": "0x6413531a53089ec8d4999a641ddee6253d4b735feae40f2179d8091f7cb5b607",
      "v": 28,
      "creates": null,
      "raw": "0xf86f348609184e72a00083015f9094025c3b43d57e72d2150e14b2b0c6d923fbfc0474893635c9adc5dea00000801ca0d1ee7fb2e117c905471d2faef0df5a28cd7b8cbf5dc33ae69435f452c4975629a06413531a53089ec8d4999a641ddee6253d4b735feae40f2179d8091f7cb5b607",
      "networkId": 0,
      "chainId": 0
    },
    {
      "hash": "0xa3d0fd0c9d7a6999feac36ad9a53c7c1abe1416ae5d492491939983dd264cd14",
      "blockHash": "0xef7b75e3f089f8c5e3b8a08e3a4a34950f28f9847f43cacf60caaaf601755b3f",
      "blockNumber": 55852,
      "transactionIndex": 6,
      "confirmations": null,
      "from": "0xc70bA22fe446A85A247bf85BaD1AdDf3ddaF62E9",
      "gasPrice": {
        "_hex": "0xcc71a068a"
      },
      "gasLimit": {
        "_hex": "0x15f90"
      },
      "to": "0x0013e723F574bAFD47CC1542532cdCD98C1C2989",
      "value": {
        "_hex": "0x12c"
      },
      "nonce": 19,
      "data": "0x",
      "r": "0x5630ed1d86e6eede4d15fffb2891d06e4e3fc8cacaeaf196672ac7b5efa626a7",
      "s": "0x4384dd771816e885427fbf1f31e506ce280077c416262c65635b4310ff8c6dad",
      "v": 28,
      "creates": null,
      "raw": "0xf86713850cc71a068a83015f90940013e723f574bafd47cc1542532cdcd98c1c298982012c801ca05630ed1d86e6eede4d15fffb2891d06e4e3fc8cacaeaf196672ac7b5efa626a7a04384dd771816e885427fbf1f31e506ce280077c416262c65635b4310ff8c6dad",
      "networkId": 0,
      "chainId": 0
    }
  ]
}