{
  "hash": "0x036f6fe0ed3fa741f3d2c41f90d9d335f4acd7957768fb43f6dd8352438f44ff",
  "parentHash": "0x6dfa21e0f603d732ef6fb9aec908c0e7d5274c175706e75dd169ae4c5caa4a46",
  "number": 53768,
  "timestamp": 1439043205,
  "nonce": "0x9da6ea36a4ed5422",
  "difficulty": 1593139331627,
  "gasLimit": {
    "_hex": "0x2fefd8"
  },
  "gasUsed": {
    "_hex": "0x546c"
  },
  "miner": "0xbb7B8287f3F0a933474a79eAe42CBCa977791171",
  "extraData": "0x476574682f4c5649562f76312e302e312f6c696e75782f676f312e342e32",
  "transactions": [
    {
      "hash": "0x95aa17357cea35dd089c4b9845830136e76fa4e97169350ff2ff35e0a0ece32e",
      "blockHash": "0x036f6fe0ed3fa741f3d2c41f90d9d335f4acd7957768fb43f6dd8352438f44ff",
      "blockNumber": 53768,
      "transactionIndex": 0,
      "confirmations": null,
      "from": "0xDBB6ac484027041642bbFD8d80F9d0C1cf33c1EB",
      "gasPrice": {
        "_hex": "0x110c8f7d8de"
      },
      "gasLimit": {
        "_hex": "0xc350"
      },
      "to": "0x2910543Af39abA0Cd09dBb2D50200b3E800A63D2",
      "value": {
        "_hex": "0x6c5db2a4d815dc0000"
      },
      "nonce": 0,
      "data": "0x454e42544d454b3038",
      "r": "0x2839126b14344242ef196c1e4449a853ad8fcfaa0b877bc6764796a4b6bea914",
      "s": "0xcc1357a1cb9804cc491403d75371b1242023fcf6807c26c5a197364afa09ceb7",
      "v": 27,
      "creates": null,
      "raw": "0xf87780860110c8f7d8de82c350942910543af39aba0cd09dbb2d50200b3e800a63d2896c5db2a4d815dc000089454e42544d454b30381ba02839126b14344242ef196c1e4449a853ad8fcfaa0b877bc6764796a4b6bea914a0cc1357a1cb9804cc491403d75371b1242023fcf6807c26c5a197364afa09ceb7",
      "networkId": 0,
      "chainId": 0
    }
  ]
}