{
  "hash": "0x985b65d0400e7574db62650d5051e28565bb5b3514ac6b6d24327616e80cc0b6",
  "parentHash": "0x38df24e9691e11a68793c73851c8d23e82f9ede3a88520e65c117a75496f9ce0",
  "number": 72672,
  "timestamp": 1439356365,
  "nonce": "0x5787c6395473a975",
  "difficulty": 2198272302881,
  "gasLimit": {
    "_hex": "0x2fefd8"
  },
  "gasUsed": {
    "_hex": "0x5208"
  },
  "miner": "0x6BB048244aC4f934163a15b7a472Ce7B48fC9F32",
  "extraData": "0x476574682f76312e302e312d37666266393930632f6c696e75782f676f312e34",
  "transactions": [
    {
      "hash": "0x902808847381be50211d9f13312b3fefd6189da91c8bbe9a255ae6da9e6fbcd2",
      "blockHash": "0x985b65d0400e7574db62650d5051e28565bb5b3514ac6b6d24327616e80cc0b6",
      "blockNumber": 72672,
      "transactionIndex": 0,
      "confirmations": null,
      "from": "0xbeC8CaF7Ee49468FEE552eFF3Ac5234Eb9b17d42",
      "gasPrice": {
        "_hex": "0xd641f460d"
      },
      "gasLimit": {
        "_hex": "0x15f90"
      },
      "to": "0xA2cFBfacdFf21eA558bBd647d87B19fF91239643",
      "value": {
        "_hex": "0x6c5db2a4d815dc0000"
      },
      "nonce": 0,
      "data": "0x",
      "r": "0x529533abc66fdcf27035a4cacb9709bee431df91cdc604a26a10221d61d0002d",
      "s": "0x4c193e871175e7379b1ded1c1a6a4381143be46f6e1034867a9759a32591b837",
      "v": 27,
      "creates": null,
      "raw": "0xf86e80850d641f460d83015f9094a2cfbfacdff21ea558bbd647d87b19ff91239643896c5db2a4d815dc0000801ba0529533abc66fdcf27035a4cacb9709bee431df91cdc604a26a10221d61d0002da04c193e871175e7379b1ded1c1a6a4381143be46f6e1034867a9759a32591b837",
      "networkId": 0,
      "chainId": 0
    }
  ]
}