{
  "hash": "0x6defcd93c52289b53501183af4470d51e744f109593ff260803038433f1cb68b",
  "parentHash": "0xf59b8c37ab8a2af3821cf7d259d4995ec3a3437258a658fe472ca3b2b996d88f",
  "number": 94978,
  "timestamp": 1439717021,
  "nonce": "0x5854a8431055acc6",
  "difficulty": 3520649544161,
  "gasLimit": {
    "_hex": "0x2fefd8"
  },
  "gasUsed": {
    "_hex": "0xa410"
  },
  "miner": "0xe6A7a1d47ff21B6321162AEA7C6CB457D5476Bca",
  "extraData": "0x476574682f76312e302e312d38326566323666362f6c696e75782f676f312e34",
  "transactions": [
    {
      "hash": "0xeb1379302d5b94fa4e770a52f48a04fc2a25558c4fdee3dc470c7b4274e9b341",
      "blockHash": "0x6defcd93c52289b53501183af4470d51e744f109593ff260803038433f1cb68b",
      "blockNumber": 94978,
      "transactionIndex": 0,
      "confirmations": null,
      "from": "0xa522de7EB6ae1250522A513133a93bd42849475C",
      "gasPrice": {
        "_hex": "0xd23ee12e2"
      },
      "gasLimit": {
        "_hex": "0x15f90"
      },
      "to": "0x859217617481BD9b6E3e38f6aE9BB677F0D26154",
      "value": {
        "_hex": "0x3635c9adc5dea00000"
      },
      "nonce": 9,
      "data": "0x",
      "r": "0x4333d02f568d88793c8731aed08a91eba4eb9a49e9208d3366057642752d825f",
      "s": "0x463132cb8adfbd1ea88a132d555f94f4c60fee70bdba5c6d5fb775c9761c3e0b",
      "v": 28,
      "creates": null,
      "raw": "0xf86e09850d23ee12e283015f9094859217617481bd9b6e3e38f6ae9bb677f0d26154893635c9adc5dea00000801ca04333d02f568d88793c8731aed08a91eba4eb9a49e9208d3366057642752d825fa0463132cb8adfbd1ea88a132d555f94f4c60fee70bdba5c6d5fb775c9761c3e0b",
      "networkId": 0,
      "chainId": 0
    },
    {
      "hash": "0xeebb8f55bee73f225fc426f3dc79a9fb7374575eb647c8c0e47fa7427b4b12f4",
      "blockHash": "0x6defcd93c52289b53501183af4470d51e744f109593ff260803038433f1cb68b",
      "blockNumber": 94978,
      "transactionIndex": 1,
      "confirmations": null,
      "from": "0x120A270bbC009644e35F0bB6ab13f95b8199c4ad",
      "gasPrice": {
        "_hex": "0xcb299a0ba"
      },
      "gasLimit": {
        "_hex": "0x3d090"
      },
      "to": "0x7884D470204862a0d1A21122F41ee77430396Ee5",
      "value": {
        "_hex": "0x12c1082ebbcab000"
      },
      "nonce": 589,
      "data": "0x",
      "r": "0xb5456aac3ec0727058a33c614ab632e02a535d322aed031d17ac502be7d54f97",
      "s": "0x3467a6c1bcdc2c14537582c6f15866fe5fc2857697f669566f0b637f08902f01",
      "v": 28,
      "creates": null,
      "raw": "0xf86f82024d850cb299a0ba8303d090947884d470204862a0d1a21122f41ee77430396ee58812c1082ebbcab000801ca0b5456aac3ec0727058a33c614ab632e02a535d322aed031d17ac502be7d54f97a03467a6c1bcdc2c14537582c6f15866fe5fc2857697f669566f0b637f08902f01",
      "networkId": 0,
      "chainId": 0
    }
  ]
}