{
  "hash": "0x53a6145eee791a006b8a717ad391a22df4b5d19c02890eb100f55023204ec62b",
  "parentHash": "0x5bb67ca37433f37c8c204d250acc6f4f8ef4527ff7d734fe9922c92c694da7dc",
  "number": 113662,
  "timestamp": 1440027407,
  "nonce": "0x01a0e7161a3fd105",
  "difficulty": 4453645177399,
  "gasLimit": {
    "_hex": "0x2fefd8"
  },
  "gasUsed": {
    "_hex": "0xa410"
  },
  "miner": "0xe6A7a1d47ff21B6321162AEA7C6CB457D5476Bca",
  "extraData": "0x476574682f76312e302e312d38326566323666362f6c696e75782f676f312e34",
  "transactions": [
    {
      "hash": "0x5f0992e871dd46d1711faad5e095a8994d7b16c7e7bb8c3865816ded02c5911b",
      "blockHash": "0x53a6145eee791a006b8a717ad391a22df4b5d19c02890eb100f55023204ec62b",
      "blockNumber": 113662,
      "transactionIndex": 0,
      "confirmations": null,
      "from": "0x120A270bbC009644e35F0bB6ab13f95b8199c4ad",
      "gasPrice": {
        "_hex": "0xd57402183"
      },
      "gasLimit": {
        "_hex": "0x3d090"
      },
      "to": "0xc75759d6521c1F4Ae031aDE0657407096cD44789",
      "value": {
        "_hex": "0xe44a3452ff56d000"
      },
      "nonce": 915,
      "data": "0x",
      "r": "0x5c6bc20d3e0dc5e13d6a4a07db9005bfcf3d4643885ea242f42dd47235fcf57e",
      "s": "0x41b1cceacd2097a819d37ce75a082e5ed2d330de13e32faca93d6ca5462d0bdb",
      "v": 28,
      "creates": null,
      "raw": "0xf86f820393850d574021838303d09094c75759d6521c1f4ae031ade0657407096cd4478988e44a3452ff56d000801ca05c6bc20d3e0dc5e13d6a4a07db9005bfcf3d4643885ea242f42dd47235fcf57ea041b1cceacd2097a819d37ce75a082e5ed2d330de13e32faca93d6ca5462d0bdb",
      "networkId": 0,
      "chainId": 0
    },
    {
      "hash": "0xd75c36faa79be2f95da80cd37d07ff61b0075927eeed111c186b464a27f5ef13",
      "blockHash": "0x53a6145eee791a006b8a717ad391a22df4b5d19c02890eb100f55023204ec62b",
      "blockNumber": 113662,
      "transactionIndex": 1,
      "confirmations": null,
      "from": "0x120A270bbC009644e35F0bB6ab13f95b8199c4ad",
      "gasPrice": {
        "_hex": "0xd57402183"
      },
      "gasLimit": {
        "_hex": "0x3d090"
      },
      "to": "0x8D2d7b8ad4bD91474Fe9AF08b7ae67924AD210d8",
      "value": {
        "_hex": "0x3635c9adc5dea00000"
      },
      "nonce": 916,
      "data": "0x",
      "r": "0x9c1f42294608d598b42bd9f3c77155cb27a1b33198bf1e558807bc65658bf95f",
      "s": "0x79881258c0ddac93d5a31ccf31d3e23e809da211073d1f7ea970e17c9c08ac27",
      "v": 27,
      "creates": null,
      "raw": "0xf870820394850d574021838303d090948d2d7b8ad4bd91474fe9af08b7ae67924ad210d8893635c9adc5dea00000801ba09c1f42294608d598b42bd9f3c77155cb27a1b33198bf1e558807bc65658bf95fa079881258c0ddac93d5a31ccf31d3e23e809da211073d1f7ea970e17c9c08ac27",
      "networkId": 0,
      "chainId": 0
    }
  ]
}