{
  "hash": "0x2c4c89124e5f5556cbcbaa3528eea7865e95cdc3e07918adf400ba15e8d641d3",
  "parentHash": "0x64845cc9e278f20906cd322fd194f40b158524bb7c537e9214adfa977b5e7218",
  "number": 84840,
  "timestamp": 1439555143,
  "nonce": "0x1f3682ed4abe9a41",
  "difficulty": 2655547634273,
  "gasLimit": {
    "_hex": "0x2fefd8"
  },
  "gasUsed": {
    "_hex": "0x5208"
  },
  "miner": "0xe6A7a1d47ff21B6321162AEA7C6CB457D5476Bca",
  "extraData": "0x476574682f76312e302e312d38326566323666362f6c696e75782f676f312e34",
  "transactions": [
    {
      "hash": "0x72291337f9d45f53262aa5cf723b3a26e062e7ce2aae754d923286fb3d61742d",
      "blockHash": "0x2c4c89124e5f5556cbcbaa3528eea7865e95cdc3e07918adf400ba15e8d641d3",
      "blockNumber": 84840,
      "transactionIndex": 0,
      "confirmations": null,
      "from": "0xC8224326e29eD30AEEC1B70ec238A818169ecaBA",
      "gasPrice": {
        "_hex": "0xd591aa74e"
      },
      "gasLimit": {
        "_hex": "0x15f90"
      },
      "to": "0x61F642543d22bAf5382908a714E675Cc0b51ea45",
      "value": {
        "_hex": "0x8ac7230489e80000"
      },
      "nonce": 6,
      "data": "0x",
      "r": "0xdf46bbe0081a33be92edb5054c2b8e48a72fd5feb13945110b56e6ed88e2d8a2",
      "s": "0x666e63657bbedb9c87e1ceeb5c9492ca629426717ebe98aebde6a1b806bb76a3",
      "v": 28,
      "creates": null,
      "raw": "0xf86d06850d591aa74e83015f909461f642543d22baf5382908a714e675cc0b51ea45888ac7230489e80000801ca0df46bbe0081a33be92edb5054c2b8e48a72fd5feb13945110b56e6ed88e2d8a2a0666e63657bbedb9c87e1ceeb5c9492ca629426717ebe98aebde6a1b806bb76a3",
      "networkId": 0,
      "chainId": 0
    }
  ]
}