{
  "hash": "0x3a2e8ed76043d565f161f91e953d0e21d16c5e5b24f6de969634d120fcb2fd5b",
  "parentHash": "0xa3eded1251857f2ce334fe2dd62947e111a7f509afc472ce18978bfb6bdb465f",
  "number": 77761,
  "timestamp": 1439442465,
  "nonce": "0xfe4bed052963dc7b",
  "difficulty": 2265570944931,
  "gasLimit": {
    "_hex": "0x2fefd8"
  },
  "gasUsed": {
    "_hex": "0xa410"
  },
  "miner": "0xe6A7a1d47ff21B6321162AEA7C6CB457D5476Bca",
  "extraData": "0x476574682f76312e302e312d38326566323666362f6c696e75782f676f312e34",
  "transactions": [
    {
      "hash": "0x89ecc4edb28108e804f66a4246ceef57fa8b023bf559554f0ca0bd860fdcdb9b",
      "blockHash": "0x3a2e8ed76043d565f161f91e953d0e21d16c5e5b24f6de969634d120fcb2fd5b",
      "blockNumber": 77761,
      "transactionIndex": 0,
      "confirmations": null,
      "from": "0xC25f24A505b8fEF751D8f4FCc397651001F7a160",
      "gasPrice": {
        "_hex": "0xe12a0f78a"
      },
      "gasLimit": {
        "_hex": "0x5208"
      },
      "to": "0x32Be343B94f860124dC4fEe278FDCBD38C102D88",
      "value": {
        "_hex": "0x453b88288dadc000"
      },
      "nonce": 21,
      "data": "0x",
      "r": "0x69dc810a1dc680af203140f1e825ecd8737d4a204fe2f5fc047255c26019b54c",
      "s": "0x4ebba333b4683fc41c9a7cf4e36a6eb81e13da973356c5314571b61460074f97",
      "v": 28,
      "creates": null,
      "raw": "0xf86c15850e12a0f78a8252089432be343b94f860124dc4fee278fdcbd38c102d8888453b88288dadc000801ca069dc810a1dc680af203140f1e825ecd8737d4a204fe2f5fc047255c26019b54ca04ebba333b4683fc41c9a7cf4e36a6eb81e13da973356c5314571b61460074f97",
      "networkId": 0,
      "chainId": 0
    },
    {
      "hash": "0x93ed3bac1bcaf932aae6c34d05818da3472df0ae2c6485d28151139f7ec912f8",
      "blockHash": "0x3a2e8ed76043d565f161f91e953d0e21d16c5e5b24f6de969634d120fcb2fd5b",
      "blockNumber": 77761,
      "transactionIndex": 1,
      "confirmations": null,
      "from": "0xBFdD9820a04283b289957956353b5F3C1F665EcF",
      "gasPrice": {
        "_hex": "0xe12a0f78a"
      },
      "gasLimit": {
        "_hex": "0x5208"
      },
      "to": "0x32Be343B94f860124dC4fEe278FDCBD38C102D88",
      "value": {
        "_hex": "0x11589c3a1cc4ac000"
      },
      "nonce": 28,
      "data": "0x",
      "r": "0x8b79003906efe6f9958c4199017e1151c76f0d0ec79d114c638bb41d7c53d1bb",
      "s": "0x7bd475ad3e9b6c6b0c6459486f48a3c09317bb45b09483cd11c53c4aadf449cb",
      "v": 28,
      "creates": null,
      "raw": "0xf86d1c850e12a0f78a8252089432be343b94f860124dc4fee278fdcbd38c102d8889011589c3a1cc4ac000801ca08b79003906efe6f9958c4199017e1151c76f0d0ec79d114c638bb41d7c53d1bba07bd475ad3e9b6c6b0c6459486f48a3c09317bb45b09483cd11c53c4aadf449cb",
      "networkId": 0,
      "chainId": 0
    }
  ]
}