{
  "hash": "0x2335ce5ebdeba3dfa204e0b07b7ebaeefe1336445706bd713b32a8f39d2506f2",
  "parentHash": "0xb4947caa9c00ab18b0b4e7bdfd46757b7b04e9b4a4bde3329b43425920cc8681",
  "number": 86417,
  "timestamp": 1439577816,
  "nonce": "0xd95dc6ade6348cf3",
  "difficulty": 2894720885323,
  "gasLimit": {
    "_hex": "0x2fefd8"
  },
  "gasUsed": {
    "_hex": "0x5208"
  },
  "miner": "0x7366ADF97960d404c38D975e1A8786bEb14B6507",
  "extraData": "0x476574682f76312e302e312f77696e646f77732f676f312e342e32",
  "transactions": [
    {
      "hash": "0xeea1e5f37bbc7d082860efb6cf7f6a32fef49f23e02711108e6247bb708bcb5f",
      "blockHash": "0x2335ce5ebdeba3dfa204e0b07b7ebaeefe1336445706bd713b32a8f39d2506f2",
      "blockNumber": 86417,
      "transactionIndex": 0,
      "confirmations": null,
      "from": "0x897d64aD0a333394b4E4ae8e8DCccdbc71d4E4E8",
      "gasPrice": {
        "_hex": "0xd7d40ace3"
      },
      "gasLimit": {
        "_hex": "0x15f90"
      },
      "to": "0x13aE5B35f82651Ff327d41502F0Aa90DA76D777E",
      "value": {
        "_hex": "0x8c2a687ce7720000"
      },
      "nonce": 2,
      "data": "0x",
      "r": "0x0bbb302a93360a8d43ef9265aefaad49d02c791b5492fd1a06aeb4f6876ded78",
      "s": "0x73b62c296d31e5c8576d8e2e9402501f7a9dda8f8007c5e388adf6f5b933edbd",
      "v": 28,
      "creates": null,
      "raw": "0xf86d02850d7d40ace383015f909413ae5b35f82651ff327d41502f0aa90da76d777e888c2a687ce7720000801ca00bbb302a93360a8d43ef9265aefaad49d02c791b5492fd1a06aeb4f6876ded78a073b62c296d31e5c8576d8e2e9402501f7a9dda8f8007c5e388adf6f5b933edbd",
      "networkId": 0,
      "chainId": 0
    }
  ]
}