{
  "hash": "0x9b6e6392a8ad0e9795c39afc1db2a309f8e1939663a9ac85aade3dbca59fd53c",
  "parentHash": "0x224722b89dde42b125e25ad752e2d85c0952625b607546e2fa966429eaffcecb",
  "number": 101224,
  "timestamp": 1439819395,
  "nonce": "0xd542f5f4d1b71807",
  "difficulty": 3837476504364,
  "gasLimit": {
    "_hex": "0x2fefd8"
  },
  "gasUsed": {
    "_hex": "0xa410"
  },
  "miner": "0xe6A7a1d47ff21B6321162AEA7C6CB457D5476Bca",
  "extraData": "0x476574682f76312e302e312d38326566323666362f6c696e75782f676f312e34",
  "transactions": [
    {
      "hash": "0xc119c77acb2dbe2e30902a03a84c570c923100afdca883e051d764644df78c21",
      "blockHash": "0x9b6e6392a8ad0e9795c39afc1db2a309f8e1939663a9ac85aade3dbca59fd53c",
      "blockNumber": 101224,
      "transactionIndex": 0,
      "confirmations": null,
      "from": "0x32Be343B94f860124dC4fEe278FDCBD38C102D88",
      "gasPrice": {
        "_hex": "0xdcb5ed301"
      },
      "gasLimit": {
        "_hex": "0x5208"
      },
      "to": "0xCD1e66ED539dd92Fc40bBAa1FA16de8c02C14D45",
      "value": {
        "_hex": "0x880abb8c8c5c98000"
      },
      "nonce": 1073,
      "data": "0x",
      "r": "0x555f72dbe153d67c38c7f8cbcd2da57eb0c7db56f44b91a839258ab3c540e8d2",
      "s": "0x6cdaca06dacec5c841dd30a0f5673c22b319f9dc6408c93aca2c04f22c2ee015",
      "v": 28,
      "creates": null,
      "raw": "0xf86f820431850dcb5ed30182520894cd1e66ed539dd92fc40bbaa1fa16de8c02c14d45890880abb8c8c5c98000801ca0555f72dbe153d67c38c7f8cbcd2da57eb0c7db56f44b91a839258ab3c540e8d2a06cdaca06dacec5c841dd30a0f5673c22b319f9dc6408c93aca2c04f22c2ee015",
      "networkId": 0,
      "chainId": 0
    },
    {
      "hash": "0xea50f0e6ff674ccd2c75aadccc9d268567f23c1ba9b6a096e7c8a690b75699ca",
      "blockHash": "0x9b6e6392a8ad0e9795c39afc1db2a309f8e1939663a9ac85aade3dbca59fd53c",
      "blockNumber": 101224,
      "transactionIndex": 1,
      "confirmations": null,
      "from": "0x250978C66B17d66f4167197A38b631d8900968C0",
      "gasPrice": {
        "_hex": "0xdcb5ed301"
      },
      "gasLimit": {
        "_hex": "0x5208"
      },
      "to": "0x32Be343B94f860124dC4fEe278FDCBD38C102D88",
      "value": {
        "_hex": "0xc3ed4a4791c348000"
      },
      "nonce": 3,
      "data": "0x",
      "r": "0xb9fcdac527b7050bfb12f3e4b5984bd9a71c986882da2d61d63495d84ec158db",
      "s": "0x6abcea4e87ee5f82cd068bc3104a5c9bbfa9ee892a862462922624328f454319",
      "v": 27,
      "creates": null,
      "raw": "0xf86d03850dcb5ed3018252089432be343b94f860124dc4fee278fdcbd38c102d88890c3ed4a4791c348000801ba0b9fcdac527b7050bfb12f3e4b5984bd9a71c986882da2d61d63495d84ec158dba06abcea4e87ee5f82cd068bc3104a5c9bbfa9ee892a862462922624328f454319",
      "networkId": 0,
      "chainId": 0
    }
  ]
}