{
  "hash": "0x432f932cbf86ad67ffe5078e2e964dea5cffc430414724462fbcdb961c9eaf13",
  "parentHash": "0x419ee64975f86d848c3172fde38c980c217d994a3ffa0352426586713a05a717",
  "number": 96220,
  "timestamp": 1439736881,
  "nonce": "0x8c6cbe704ab97a10",
  "difficulty": 3663930615786,
  "gasLimit": {
    "_hex": "0x2fefd8"
  },
  "gasUsed": {
    "_hex": "0x5208"
  },
  "miner": "0xbb7B8287f3F0a933474a79eAe42CBCa977791171",
  "extraData": "0x476574682f4c5649562f76312e302e312f6c696e75782f676f312e342e32",
  "transactions": [
    {
      "hash": "0x8503154c3c77e41796433edfcc05f1b14518b9c9424a2f5d129231a5a606ddc0",
      "blockHash": "0x432f932cbf86ad67ffe5078e2e964dea5cffc430414724462fbcdb961c9eaf13",
      "blockNumber": 96220,
      "transactionIndex": 0,
      "confirmations": null,
      "from": "0x8BeF58cf6D5f4fdE02e940a20D56b052F89Cf42f",
      "gasPrice": {
        "_hex": "0x9184e72a000"
      },
      "gasLimit": {
        "_hex": "0x9965e"
      },
      "to": "0x0000000000000000000000000000000000000000",
      "value": {
        "_hex": "0x1a055690d9db80000"
      },
      "nonce": 0,
      "data": "0x",
      "r": "0x4335ec1fedc451a5cdea1f8eae0747c68e23a2d2d20ab8bc814d90140754d1f8",
      "s": "0x3536760f437074b36a1b22b4031ae42dfdd7d00439a58e08b5850c89ec41e7d8",
      "v": 27,
      "creates": null,
      "raw": "0xf86f808609184e72a0008309965e9400000000000000000000000000000000000000008901a055690d9db80000801ba04335ec1fedc451a5cdea1f8eae0747c68e23a2d2d20ab8bc814d90140754d1f8a03536760f437074b36a1b22b4031ae42dfdd7d00439a58e08b5850c89ec41e7d8",
      "networkId": 0,
      "chainId": 0
    }
  ]
}