{
  "hash": "0x91822b1b04f7a75d84bef0dba019f7f5b4c8523460863956e19ffbb138d458ba",
  "parentHash": "0x910c14ecbe7ea2ca292296037ad5d299dbcb2a2eb359ac773fa433d233e966a4",
  "number": 65895,
  "timestamp": 1439244897,
  "nonce": "0xd04da2c0c35c2387",
  "difficulty": 1942484624316,
  "gasLimit": {
    "_hex": "0x2fefd8"
  },
  "gasUsed": {
    "_hex": "0xaea3"
  },
  "miner": "0x39A1BB80a741bF5EC39FB9BE59408Fa0F418fFBf",
  "extraData": "0x476574682f76312e302e312f77696e646f77732f676f312e342e32",
  "transactions": [
    {
      "hash": "0x95f7430cb17cd99590088d4c26da326a4abbd009ede4973bd750321487293f8d",
      "blockHash": "0x91822b1b04f7a75d84bef0dba019f7f5b4c8523460863956e19ffbb138d458ba",
      "blockNumber": 65895,
      "transactionIndex": 0,
      "confirmations": null,
      "from": "0xFBb1b73C4f0BDa4f67dcA266ce6Ef42f520fBB98",
      "gasPrice": {
        "_hex": "0xd19060564"
      },
      "gasLimit": {
        "_hex": "0x15f90"
      },
      "to": "0xa1A111bc074c9cfa781F0C38e63bD51c91b8af00",
      "value": {
        "_hex": "0x0"
      },
      "nonce": 18,
      "data": "0xd5fa2b004254525800000000000000000000000000000000000000000000000000000000000000000000000000000000cac7000c7dbaa2e33af15325af5d435e011c7bdd",
      "r": "0xfd719b6c565b1daa35c28bf97e7e051cd8d894540d2c8574aad44d2f1274e70e",
      "s": "0x49c37f77cc06c60780fa76fd9faca3079ac958db31800a85f5506f17493cc168",
      "v": 27,
      "creates": null,
      "raw": "0xf8aa12850d1906056483015f9094a1a111bc074c9cfa781f0c38e63bd51c91b8af0080b844d5fa2b004254525800000000000000000000000000000000000000000000000000000000000000000000000000000000cac7000c7dbaa2e33af15325af5d435e011c7bdd1ba0fd719b6c565b1daa35c28bf97e7e051cd8d894540d2c8574aad44d2f1274e70ea049c37f77cc06c60780fa76fd9faca3079ac958db31800a85f5506f17493cc168",
      "networkId": 0,
      "chainId": 0
    }
  ]
}