{
  "hash": "0x5d8408368c5ec8a261e9afb06289ae8005d2d86041a35417801a0db024746a3d",
  "parentHash": "0xb48d4d80e57cea93edae9cfae74908d4e8696119b95b91de0c3efeadb3d796e0",
  "number": 105473,
  "timestamp": 1439888255,
  "nonce": "0xcb93457a346bbb7d",
  "difficulty": 4386737674545,
  "gasLimit": {
    "_hex": "0x2fefd8"
  },
  "gasUsed": {
    "_hex": "0x5208"
  },
  "miner": "0xe6A7a1d47ff21B6321162AEA7C6CB457D5476Bca",
  "extraData": "0x476574682f76312e302e312d38326566323666362f6c696e75782f676f312e34",
  "transactions": [
    {
      "hash": "0x557d4c445ddb574e2490aeb895cb9e798a5b3b15991a5c0bcbf3f1ed7ec6f8e7",
      "blockHash": "0x5d8408368c5ec8a261e9afb06289ae8005d2d86041a35417801a0db024746a3d",
      "blockNumber": 105473,
      "transactionIndex": 0,
      "confirmations": null,
      "from": "0xcCA04dde313A912347DBE3b8f78E73Ab14B51CbE",
      "gasPrice": {
        "_hex": "0xdd3025cb9"
      },
      "gasLimit": {
        "_hex": "0x5208"
      },
      "to": "0x32Be343B94f860124dC4fEe278FDCBD38C102D88",
      "value": {
        "_hex": "0x97567208d6021000"
      },
      "nonce": 0,
      "data": "0x",
      "r": "0xd06ed04d783973dfade54d87efb11bd3a4c448cc80421cd1f90f152ad986f05d",
      "s": "0x52b479a8c02a7915735790e714167ebf7c0f771166edd2ca29a81ac22255f836",
      "v": 28,
      "creates": null,
      "raw": "0xf86c80850dd3025cb98252089432be343b94f860124dc4fee278fdcbd38c102d888897567208d6021000801ca0d06ed04d783973dfade54d87efb11bd3a4c448cc80421cd1f90f152ad986f05da052b479a8c02a7915735790e714167ebf7c0f771166edd2ca29a81ac22255f836",
      "networkId": 0,
      "chainId": 0
    }
  ]
}