{
  "hash": "0x7f5b71b40b38a532611af080cd950853da9d7b0e3304e9e0b124259455f8597f",
  "parentHash": "0xcb79e7e3f6cd7db1f4ca4835461817c957e843b3ba5f264265bb5cd00b94ee69",
  "number": 81034,
  "timestamp": 1439494963,
  "nonce": "0x8e7cdead2ba7071d",
  "difficulty": 2435593684923,
  "gasLimit": {
    "_hex": "0x2fefd5"
  },
  "gasUsed": {
    "_hex": "0x5208"
  },
  "miner": "0xe6A7a1d47ff21B6321162AEA7C6CB457D5476Bca",
  "extraData": "0x476574682f76312e302e312d38326566323666362f6c696e75782f676f312e34",
  "transactions": [
    {
      "hash": "0xa0814f92a005570d9ec74b697813c592651deb2c70f6a3d31d86d9c86ecb696e",
      "blockHash": "0x7f5b71b40b38a532611af080cd950853da9d7b0e3304e9e0b124259455f8597f",
      "blockNumber": 81034,
      "transactionIndex": 0,
      "confirmations": null,
      "from": "0x9d4020CB4186dF7700247DB29365fb1c9912117c",
      "gasPrice": {
        "_hex": "0xcfbb23577"
      },
      "gasLimit": {
        "_hex": "0x15f90"
      },
      "to": "0x881067183D45A90A21F5AD90f313Acf29704C7a9",
      "value": {
        "_hex": "0xa2a15d09519be00000"
      },
      "nonce": 1,
      "data": "0x",
      "r": "0xce0e70bea3666f20354d0cec2541931781fa1a6ae2a4189dba185edd82d07f4b",
      "s": "0x7f7b59a14dc14eb3a6c8fdfd8c1721f29534bd2958fff4c579717ed8956deff0",
      "v": 27,
      "creates": null,
      "raw": "0xf86e01850cfbb2357783015f9094881067183d45a90a21f5ad90f313acf29704c7a989a2a15d09519be00000801ba0ce0e70bea3666f20354d0cec2541931781fa1a6ae2a4189dba185edd82d07f4ba07f7b59a14dc14eb3a6c8fdfd8c1721f29534bd2958fff4c579717ed8956deff0",
      "networkId": 0,
      "chainId": 0
    }
  ]
}