{
  "hash": "0x9fab34680e034120d289c178b0edab59254bd826570f1c3be3a0b1cc5735f1c9",
  "parentHash": "0xba64804c75595804edc84ec7f994d38bf80799c826fe3d46dffb25028f712980",
  "number": 74513,
  "timestamp": 1439387230,
  "nonce": "0xe8c1a5278124806a",
  "difficulty": 2216109215283,
  "gasLimit": {
    "_hex": "0x2fefd8"
  },
  "gasUsed": {
    "_hex": "0x5208"
  },
  "miner": "0xa50ec0D39fa913E62f1Bae7074E6F36caA71855b",
  "extraData": "0x",
  "transactions": [
    {
      "hash": "0xe6dd233773a73a4e1f89fc79be5d49ce3535888316b8c66099e0956f8f39305a",
      "blockHash": "0x9fab34680e034120d289c178b0edab59254bd826570f1c3be3a0b1cc5735f1c9",
      "blockNumber": 74513,
      "transactionIndex": 0,
      "confirmations": null,
      "from": "0xB0adb3A9A5D88F64452acFdc1D83CCF5600d5A02",
      "gasPrice": {
        "_hex": "0xdda4e4145"
      },
      "gasLimit": {
        "_hex": "0x5208"
      },
      "to": "0x32Be343B94f860124dC4fEe278FDCBD38C102D88",
      "value": {
        "_hex": "0xddc39f93cda8000"
      },
      "nonce": 0,
      "data": "0x",
      "r": "0x82d219b0f4493c9f36597e6d3ec2dea2709240b797f801a08e8b82d94525d1c8",
      "s": "0x0a5152d592149fb8eb4775e7002186a218f2b49173c288536dd24dbb71928ee4",
      "v": 27,
      "creates": null,
      "raw": "0xf86c80850dda4e41458252089432be343b94f860124dc4fee278fdcbd38c102d88880ddc39f93cda8000801ba082d219b0f4493c9f36597e6d3ec2dea2709240b797f801a08e8b82d94525d1c8a00a5152d592149fb8eb4775e7002186a218f2b49173c288536dd24dbb71928ee4",
      "networkId": 0,
      "chainId": 0
    }
  ]
}