{
  "hash": "0x607f3407e9b31bd15e4f65c32217f0ddff18bf1e3deb975208293999ebb91946",
  "parentHash": "0x6acc494fcded37328ec73fe02ae6df89e1bffc0c7beda90e0147a3b8ebaf2108",
  "number": 117073,
  "timestamp": 1440103117,
  "nonce": "0xdcfe95d70c756d6d",
  "difficulty": 4295945817611,
  "gasLimit": {
    "_hex": "0x2fefd8"
  },
  "gasUsed": {
    "_hex": "0x5208"
  },
  "miner": "0xBD744E3F13D79B33F6c8E1d5E32F8E9BA2866c46",
  "extraData": "0xd783010002844765746887676f312e342e32856c696e7578",
  "transactions": [
    {
      "hash": "0x402dfa9c5609c5ae1db8abb43c7489c0122582d2fec09f19851f7e9561128735",
      "blockHash": "0x607f3407e9b31bd15e4f65c32217f0ddff18bf1e3deb975208293999ebb91946",
      "blockNumber": 117073,
      "transactionIndex": 0,
      "confirmations": null,
      "from": "0x007f7f58D3eb5b7510A301eCC749FC1fCDDBE14D",
      "gasPrice": {
        "_hex": "0xba43b7400"
      },
      "gasLimit": {
        "_hex": "0x15f90"
      },
      "to": "0xb1abce2918E21ddb93AA452731a12672A3d9F75a",
      "value": {
        "_hex": "0x4563918244f40000"
      },
      "nonce": 314,
      "data": "0x",
      "r": "0x894510227c8d18937d3ce6e58fd59efb01a51d74c25e6068fd1be37ee5c7cbbc",
      "s": "0x6cc00ca6795a347747a715aee97369a77186597b18c89b077cf43cbb9075d525",
      "v": 27,
      "creates": null,
      "raw": "0xf86f82013a850ba43b740083015f9094b1abce2918e21ddb93aa452731a12672a3d9f75a884563918244f40000801ba0894510227c8d18937d3ce6e58fd59efb01a51d74c25e6068fd1be37ee5c7cbbca06cc00ca6795a347747a715aee97369a77186597b18c89b077cf43cbb9075d525",
      "networkId": 0,
      "chainId": 0
    }
  ]
}