{
  "hash": "0xf4ae1b9be5f925a05d8655e9fe2ef293bd10b784d5a1f3ae965fc3bb71ee394f",
  "parentHash": "0x1d6e9c38c26109cc3e54b6e230d3c25dc7475cfa20f9b5b3088bef534e99f688",
  "number": 46897,
  "timestamp": 1438931203,
  "nonce": "0xbd1e0e75e1a8f6f6",
  "difficulty": 1456729042968,
  "gasLimit": {
    "_hex": "0x833b"
  },
  "gasUsed": {
    "_hex": "0x5208"
  },
  "miner": "0xF2d2AfF1320476cb8C6b607199D23175cc595693",
  "extraData": "0x476574682f76312e302e312f77696e646f77732f676f312e342e32",
  "transactions": [
    {
      "hash": "0xb4b857a6e9455dcbfc382a53d55c73fb753e243e51856e361da5ab9fd25b1f81",
      "blockHash": "0xf4ae1b9be5f925a05d8655e9fe2ef293bd10b784d5a1f3ae965fc3bb71ee394f",
      "blockNumber": 46897,
      "transactionIndex": 0,
      "confirmations": null,
      "from": "0xd7E30ae310C1D1800F5B641Baa7af95b2e1FD98C",
      "gasPrice": {
        "_hex": "0x746a528800"
      },
      "gasLimit": {
        "_hex": "0x5208"
      },
      "to": "0x4019b21f3dB1F288414aC180f3Ea63315B12a7aC",
      "value": {
        "_hex": "0x3635c9adc5dea00000"
      },
      "nonce": 4,
      "data": "0x",
      "r": "0x1fb4dbb683f0398bf586bc4729b030363d5bb79e650f5cc1a4bdc99124bc6670",
      "s": "0x3ef9e5e30431ffbe2d7bdad789f337730c75984734c70640395c71355f8ec499",
      "v": 28,
      "creates": null,
      "raw": "0xf86d0485746a528800825208944019b21f3db1f288414ac180f3ea63315b12a7ac893635c9adc5dea00000801ca01fb4dbb683f0398bf586bc4729b030363d5bb79e650f5cc1a4bdc99124bc6670a03ef9e5e30431ffbe2d7bdad789f337730c75984734c70640395c71355f8ec499",
      "networkId": 0,
      "chainId": 0
    }
  ]
}