{
  "hash": "0xe8f8caa420c559f7d7e83776cb8da334f6137cb5d2dea41f69c3e375c852557c",
  "parentHash": "0x418e83f9df6507653d88e6e99b0f77ac911035291b51920fb521b12b6bbd69a8",
  "number": 46369,
  "timestamp": 1438922036,
  "nonce": "0x4ec3f4744afd4753",
  "difficulty": 1461095023990,
  "gasLimit": {
    "_hex": "0x5d56"
  },
  "gasUsed": {
    "_hex": "0x5208"
  },
  "miner": "0x35A6409D678A8Dc0976582C10ae9Dba22B7c33c1",
  "extraData": "0x476574682f76312e302e302d30636463373634372f6c696e75782f676f312e34",
  "transactions": [
    {
      "hash": "0x1fb91f15b5656671d58edc8e216f033195b50a157cc94c0583f24ac19fb2bae2",
      "blockHash": "0xe8f8caa420c559f7d7e83776cb8da334f6137cb5d2dea41f69c3e375c852557c",
      "blockNumber": 46369,
      "transactionIndex": 0,
      "confirmations": null,
      "from": "0xDB0CC78f74d9827bdc8A6473276eB84Fdc976212",
      "gasPrice": {
        "_hex": "0x10281a84a86"
      },
      "gasLimit": {
        "_hex": "0x5208"
      },
      "to": "0x529049b336Ebfd6dF2f059c7FA964BA833a2c32B",
      "value": {
        "_hex": "0x55de6a779bbac0000"
      },
      "nonce": 1,
      "data": "0x",
      "r": "0xd19d30f18238ddd16a3a5267d31ddbe9b38b008bfd2844e29b6c985657b7a70e",
      "s": "0x39d2cb8b5e4d2a8514ed71438630fbabeba5ac2e57c1267abe7f80ed93ba7649",
      "v": 28,
      "creates": null,
      "raw": "0xf86e0186010281a84a8682520894529049b336ebfd6df2f059c7fa964ba833a2c32b89055de6a779bbac0000801ca0d19d30f18238ddd16a3a5267d31ddbe9b38b008bfd2844e29b6c985657b7a70ea039d2cb8b5e4d2a8514ed71438630fbabeba5ac2e57c1267abe7f80ed93ba7649",
      "networkId": 0,
      "chainId": 0
    }
  ]
}