{
  "hash": "0xac7cc83f703640255c6a3f92302196d0427d4b145c1008d480b310f15b4d5ac3",
  "parentHash": "0xb5b07022cb33c55088377737a3c673be4c3377fb44194869d50d8aeba5093911",
  "number": 53434,
  "timestamp": 1439037532,
  "nonce": "0xdcf99e763a9627cc",
  "difficulty": 1594759387326,
  "gasLimit": {
    "_hex": "0x281b3e"
  },
  "gasUsed": {
    "_hex": "0x1074a9"
  },
  "miner": "0xc8ebccC5F5689Fa8659d83713341e5aD19349448",
  "extraData": "0x476574682f76312e302e302d35363231396135652f6c696e75782f676f312e34",
  "transactions": [
    {
      "hash": "0xfb7539ffabc8fedf10948fef349d2bf40a1a02a92dc54f6e4dc4636aecc2e340",
      "blockHash": "0xac7cc83f703640255c6a3f92302196d0427d4b145c1008d480b310f15b4d5ac3",
      "blockNumber": 53434,
      "transactionIndex": 0,
      "confirmations": null,
      "from": "0xD09cb2e6082d693A13E8d2f68DD1DD8461F55840",
      "gasPrice": {
        "_hex": "0x110c8f7d8de"
      },
      "gasLimit": {
        "_hex": "0xc350"
      },
      "to": "0x2910543Af39abA0Cd09dBb2D50200b3E800A63D2",
      "value": {
        "_hex": "0x4563918244f40000"
      },
      "nonce": 0,
      "data": "0x454e36314a33313647",
      "r": "0x63d5928337863a71e37d080c8602923921dd0fe3998613590709e4f1454a34c2",
      "s": "0x549ee262a12ee268b58e41b19bba4ed53eff1fa1b75936f344e096d0abf55aef",
      "v": 27,
      "creates": null,
      "raw": "0xf87680860110c8f7d8de82c350942910543af39aba0cd09dbb2d50200b3e800a63d2884563918244f4000089454e36314a333136471ba063d5928337863a71e37d080c8602923921dd0fe3998613590709e4f1454a34c2a0549ee262a12ee268b58e41b19bba4ed53eff1fa1b75936f344e096d0abf55aef",
      "networkId": 0,
      "chainId": 0
    },
    {
      "hash": "0x3fa5b898bf09501c259ed9b9ee0cc784c6c9ef5a5fdba5a6fd8a8343b9809034",
      "blockHash": "0xac7cc83f703640255c6a3f92302196d0427d4b145c1008d480b310f15b4d5ac3",
      "blockNumber": 53434,
      "transactionIndex": 1,
      "confirmations": null,
      "from": "0x6B925dD5D8eD6132Ab6D0860b82C44e1a51F1fEe",
      "gasPrice": {
        "_hex": "0xf1367236f"
      },
      "gasLimit": {
        "_hex": "0x7a120"
      },
      "to": "0x109C4f2CCc82C4d77Bde15F306707320294Aea3F",
      "value": {
        "_hex": "0xde0b6b3a7640000"
      },
      "nonce": 5,
      "data": "0x",
      "r": "0x750dd504713d130ee195d8ec97f92c36a7a21087855bca1d7ea2d63fe6f782be",
      "s": "0x3ceb25317f20c8819dadcbc068769b3946c965516f8a264592c25efea5d05923",
      "v": 27,
      "creates": null,
      "raw": "0xf86d05850f1367236f8307a12094109c4f2ccc82c4d77bde15f306707320294aea3f880de0b6b3a7640000801ba0750dd504713d130ee195d8ec97f92c36a7a21087855bca1d7ea2d63fe6f782bea03ceb25317f20c8819dadcbc068769b3946c965516f8a264592c25efea5d05923",
      "networkId": 0,
      "chainId": 0
    },
    {
      "hash": "0x357db4af2878e9a8defdcb724f021c430d5b5c390970d75e1ff058648f63d842",
      "blockHash": "0xac7cc83f703640255c6a3f92302196d0427d4b145c1008d480b310f15b4d5ac3",
      "blockNumber": 53434,
      "transactionIndex": 2,
      "confirmations": null,
      "from": "0x6B925dD5D8eD6132Ab6D0860b82C44e1a51F1fEe",
      "gasPrice": {
        "_hex": "0xf1367236f"
      },
      "gasLimit": {
        "_hex": "0x7a120"
      },
      "to": "0xA327075af2a223A1C83a36aDa1126afE7430f955",
      "value": {
        "_hex": "0x8ac7230489e80000"
      },
      "nonce": 6,
      "data": "0x",
      "r": "0x8cae29c98a09585078271f7aeab13c0d549287a45d529d06e2f2b429e0e7f214",
      "s": "0x25d518e8e3198c4588e5728e168e10c0bd3316fa01a6e8eacd0bcae1e273e594",
      "v": 27,
      "creates": null,
      "raw": "0xf86d06850f1367236f8307a12094a327075af2a223a1c83a36ada1126afe7430f955888ac7230489e80000801ba08cae29c98a09585078271f7aeab13c0d549287a45d529d06e2f2b429e0e7f214a025d518e8e3198c4588e5728e168e10c0bd3316fa01a6e8eacd0bcae1e273e594",
      "networkId": 0,
      "chainId": 0
    },
    {
      "hash": "0x01353951d845a8df6069b96050d73be6490a82624f18c471bf89d1d26a0df196",
      "blockHash": "0xac7cc83f703640255c6a3f92302196d0427d4b145c1008d480b310f15b4d5ac3",
      "blockNumber": 53434,
      "transactionIndex": 3,
      "confirmations": null,
      "from": "0x6B925dD5D8eD6132Ab6D0860b82C44e1a51F1fEe",
      "gasPrice": {
        "_hex": "0xf1367236f"
      },
      "gasLimit": {
        "_hex": "0x7a120"
      },
      "to": "0xBAA54d6E90c3F4d7Ebec11bD180134C7eD8eBb52",
      "value": {
        "_hex": "0x16345785d8a0000"
      },
      "nonce": 7,
      "data": "0x",
      "r": "0x52fe131248a69944ed00a2041475620b866cb02a457c089616fe8f66759ab903",
      "s": "0x6208abc079c83072344e2da8e8ab12fb50c39cf6dfd31f86ce8bfcb6e29c1111",
      "v": 28,
      "creates": null,
      "raw": "0xf86d07850f1367236f8307a12094baa54d6e90c3f4d7ebec11bd180134c7ed8ebb5288016345785d8a0000801ca052fe131248a69944ed00a2041475620b866cb02a457c089616fe8f66759ab903a06208abc079c83072344e2da8e8ab12fb50c39cf6dfd31f86ce8bfcb6e29c1111",
      "networkId": 0,
      "chainId": 0
    }
  ]
}