{
  "hash": "0x6d00904ad35431ad08785b82db44de9929eb5c015fd035a7b814f75f3bdb812a",
  "parentHash": "0xa128d0e286ee4e0b2e10d916d9c304521d8b5909f34a290a897f072fc4b40820",
  "number": 94352,
  "timestamp": 1439706876,
  "nonce": "0xe2b31d6aac901e7b",
  "difficulty": 3483292401313,
  "gasLimit": {
    "_hex": "0x2fefd8"
  },
  "gasUsed": {
    "_hex": "0x5208"
  },
  "miner": "0xe6A7a1d47ff21B6321162AEA7C6CB457D5476Bca",
  "extraData": "0x476574682f76312e302e312d38326566323666362f6c696e75782f676f312e34",
  "transactions": [
    {
      "hash": "0x21167adffe36fff6a6a2c61de0897a467a70d740e1abaeabfcbb13016d66a90b",
      "blockHash": "0x6d00904ad35431ad08785b82db44de9929eb5c015fd035a7b814f75f3bdb812a",
      "blockNumber": 94352,
      "transactionIndex": 0,
      "confirmations": null,
      "from": "0xF4f2C15602B084Cae84Ea603f75527DE19705aA1",
      "gasPrice": {
        "_hex": "0xd834db9d2"
      },
      "gasLimit": {
        "_hex": "0x5208"
      },
      "to": "0x32Be343B94f860124dC4fEe278FDCBD38C102D88",
      "value": {
        "_hex": "0x455f3d069bf28400"
      },
      "nonce": 4,
      "data": "0x",
      "r": "0x9c4e0ca90d294248d8d3ffe1a07143afe32bb051cc71975ab478d33ea41684b1",
      "s": "0x258a4516dcb85eacd168f386b8f11b397a2d06fc308e92c9457d4732d7726f2c",
      "v": 27,
      "creates": null,
      "raw": "0xf86c04850d834db9d28252089432be343b94f860124dc4fee278fdcbd38c102d8888455f3d069bf28400801ba09c4e0ca90d294248d8d3ffe1a07143afe32bb051cc71975ab478d33ea41684b1a0258a4516dcb85eacd168f386b8f11b397a2d06fc308e92c9457d4732d7726f2c",
      "networkId": 0,
      "chainId": 0
    }
  ]
}