{
  "hash": "0x1389a7fbee7b889adb81905280651027c17221fcf569f86313bd6da83b213e35",
  "parentHash": "0x881b55680710c787af2013ded1be801e960f52abfdb94bc1803bd50edd22101f",
  "number": 64596,
  "timestamp": 1439223245,
  "nonce": "0xadee62fafd223690",
  "difficulty": 1895002949493,
  "gasLimit": {
    "_hex": "0x2fefd8"
  },
  "gasUsed": {
    "_hex": "0x1627c"
  },
  "miner": "0x47ff6576639c2e94762eA5443978D7681C0E78DC",
  "extraData": "0x476574682f76312e302e312f6c696e75782f676f312e342e32",
  "transactions": [
    {
      "hash": "0x8dda0399b57028e4ec6651c44b4790623743081b3b543ebd719d3478f308a630",
      "blockHash": "0x1389a7fbee7b889adb81905280651027c17221fcf569f86313bd6da83b213e35",
      "blockNumber": 64596,
      "transactionIndex": 0,
      "confirmations": null,
      "from": "0x32Be343B94f860124dC4fEe278FDCBD38C102D88",
      "gasPrice": {
        "_hex": "0xd6e722d42"
      },
      "gasLimit": {
        "_hex": "0x5208"
      },
      "to": "0x55Ff7251df3C6267D5f3165D49913A8cE8645A84",
      "value": {
        "_hex": "0x16345785d8a0000"
      },
      "nonce": 178,
      "data": "0x",
      "r": "0xc7acd62d688e5e7817ceeada765ed6b0cdb0e1b85ef4095f53b263c86eb87aa2",
      "s": "0x7cec5fb7c6fbe183279d516dd5b0c461077efec0844975403d63824832570eac",
      "v": 27,
      "creates": null,
      "raw": "0xf86d81b2850d6e722d428252089455ff7251df3c6267d5f3165d49913a8ce8645a8488016345785d8a0000801ba0c7acd62d688e5e7817ceeada765ed6b0cdb0e1b85ef4095f53b263c86eb87aa2a07cec5fb7c6fbe183279d516dd5b0c461077efec0844975403d63824832570eac",
      "networkId": 0,
      "chainId": 0
    },
    {
      "hash": "0x50ce591c5cae770a4702dee022131595624a01d198ee485da2177fcb69dc8802",
      "blockHash": "0x1389a7fbee7b889adb81905280651027c17221fcf569f86313bd6da83b213e35",
      "blockNumber": 64596,
      "transactionIndex": 1,
      "confirmations": null,
      "from": "0x6747f922385c9a6F9cfDf095F34345257DD597bE",
      "gasPrice": {
        "_hex": "0xba43b7400"
      },
      "gasLimit": {
        "_hex": "0x5208"
      },
      "to": "0xb3054764a102233C3a5e5E5691787EA61EA4Afd3",
      "value": {
        "_hex": "0x1fcbfa42bd6000"
      },
      "nonce": 11,
      "data": "0x",
      "r": "0x480c5e509407e3a0336339b546b17396dc0d008d7b65e9ab9d865163fde238f4",
      "s": "0x69618966a3054235767aca7aabde33bac05f3f7dca5688439cf2c0ee0bfa1b5d",
      "v": 28,
      "creates": null,
      "raw": "0xf86b0b850ba43b740082520894b3054764a102233c3a5e5e5691787ea61ea4afd3871fcbfa42bd6000801ca0480c5e509407e3a0336339b546b17396dc0d008d7b65e9ab9d865163fde238f4a069618966a3054235767aca7aabde33bac05f3f7dca5688439cf2c0ee0bfa1b5d",
      "networkId": 0,
      "chainId": 0
    },
    {
      "hash": "0x3ed2ba7b6625c80da7dc8f7e1b2eb4a7dc3915cb1b445051f5baebb8415e1b56",
      "blockHash": "0x1389a7fbee7b889adb81905280651027c17221fcf569f86313bd6da83b213e35",
      "blockNumber": 64596,
      "transactionIndex": 2,
      "confirmations": null,
      "from": "0x11f41ebA32c990837cb34E7B5f2C5C1b21D296F5",
      "gasPrice": {
        "_hex": "0xba43b7400"
      },
      "gasLimit": {
        "_hex": "0x15f90"
      },
      "to": "0x793AE8C1b1a160BFc07BFB0d04F85eab1A71F4f2",
      "value": {
        "_hex": "0x0"
      },
      "nonce": 0,
      "data": "0x3ba15036",
      "r": "0x1d3dc052427bdaeb55fd57183ecef5330d1b3fcc6d79335a00b9bbc2f6ba94d2",
      "s": "0x05efe92952cd42a67f1bcc83eb6d4a2b39a9484d61e008f02c8042fa5b260ae3",
      "v": 28,
      "creates": null,
      "raw": "0xf86980850ba43b740083015f9094793ae8c1b1a160bfc07bfb0d04f85eab1a71f4f280843ba150361ca01d3dc052427bdaeb55fd57183ecef5330d1b3fcc6d79335a00b9bbc2f6ba94d2a005efe92952cd42a67f1bcc83eb6d4a2b39a9484d61e008f02c8042fa5b260ae3",
      "networkId": 0,
      "chainId": 0
    }
  ]
}