{
  "hash": "0xa0b149ddd9bcfc753cddf6493a4d39f2b7abde7b295bfa4f36d795eb0eae8a7d",
  "parentHash": "0xed3b89258e7e62bc4fd9f6fbd3648b12c4084c1decd99915088a690d74777f81",
  "number": 48700,
  "timestamp": 1438961410,
  "nonce": "0x9ce415a4187a4d86",
  "difficulty": 1472864399739,
  "gasLimit": {
    "_hex": "0x1c519"
  },
  "gasUsed": {
    "_hex": "0x546c"
  },
  "miner": "0xe6A7a1d47ff21B6321162AEA7C6CB457D5476Bca",
  "extraData": "0x657468706f6f6c2e6f7267",
  "transactions": [
    {
      "hash": "0x5fdfc01da1f20e00dd92400b8e2a5804b6663b563ce0cdb96697e13c3ebf3165",
      "blockHash": "0xa0b149ddd9bcfc753cddf6493a4d39f2b7abde7b295bfa4f36d795eb0eae8a7d",
      "blockNumber": 48700,
      "transactionIndex": 0,
      "confirmations": null,
      "from": "0x77e41B4125b7c14757e0f07fE36b2E95db757a10",
      "gasPrice": {
        "_hex": "0xd66ff4b88"
      },
      "gasLimit": {
        "_hex": "0x55f0"
      },
      "to": "0x2910543Af39abA0Cd09dBb2D50200b3E800A63D2",
      "value": {
        "_hex": "0x68155a43676e00000"
      },
      "nonce": 1,
      "data": "0x454e47583939505930",
      "r": "0xab564177510baff434d4b305a793221267f6d1bc9038484dd146f62e3e97c8a5",
      "s": "0x71646f268cffa1b65dcb06e68f315003ed09e28e3dedb5f13eaa2b571d451f83",
      "v": 28,
      "creates": null,
      "raw": "0xf87601850d66ff4b888255f0942910543af39aba0cd09dbb2d50200b3e800a63d289068155a43676e0000089454e475839395059301ca0ab564177510baff434d4b305a793221267f6d1bc9038484dd146f62e3e97c8a5a071646f268cffa1b65dcb06e68f315003ed09e28e3dedb5f13eaa2b571d451f83",
      "networkId": 0,
      "chainId": 0
    }
  ]
}