{
  "hash": "0xd27cef929b1d46904cf66421d249b617f2ce2db75122bdb74bedf7569e59470a",
  "parentHash": "0x4107f2e25caed2b360c19711f59e6fa767e42bfb1229e33fccdb121c482d07d9",
  "number": 91004,
  "timestamp": 1439648998,
  "nonce": "0x2b67850b48d9e5df",
  "difficulty": 3423963934980,
  "gasLimit": {
    "_hex": "0x2fefd8"
  },
  "gasUsed": {
    "_hex": "0x5208"
  },
  "miner": "0x7E6930B63D03e88F5928C5cd6ee3FCee4D714F7F",
  "extraData": "0x",
  "transactions": [
    {
      "hash": "0x1bbe13644b04fb4337bb9dd9943727bc2739d74869288d5aa3ca734e11dcb631",
      "blockHash": "0xd27cef929b1d46904cf66421d249b617f2ce2db75122bdb74bedf7569e59470a",
      "blockNumber": 91004,
      "transactionIndex": 0,
      "confirmations": null,
      "from": "0xBc91527B31Fbbe397F91C2b9273Ea32b0d9a19a0",
      "gasPrice": {
        "_hex": "0xd457f41d5"
      },
      "gasLimit": {
        "_hex": "0x5208"
      },
      "to": "0x32Be343B94f860124dC4fEe278FDCBD38C102D88",
      "value": {
        "_hex": "0x14a759db4975570000"
      },
      "nonce": 4,
      "data": "0x",
      "r": "0x4e87dc38f1998046459956f95a996b9d47be2f100a48316737af19723ba4aeb6",
      "s": "0x12341260d15998ceef7f096d1dfe96641e4ed7d48d66a539a25015db9a825bbd",
      "v": 28,
      "creates": null,
      "raw": "0xf86d04850d457f41d58252089432be343b94f860124dc4fee278fdcbd38c102d888914a759db4975570000801ca04e87dc38f1998046459956f95a996b9d47be2f100a48316737af19723ba4aeb6a012341260d15998ceef7f096d1dfe96641e4ed7d48d66a539a25015db9a825bbd",
      "networkId": 0,
      "chainId": 0
    }
  ]
}