{
  "hash": "0xdc25aa27109967a9d2b999c5daf9648658f2b7694bd14fb68b7af6d3d65508a4",
  "parentHash": "0x2b96b449bd4924a514bf1370dad128f6e36c9f1abcf5240d9d9c842ba57cce67",
  "number": 115390,
  "timestamp": 1440056404,
  "nonce": "0x7adde197e318a02a",
  "difficulty": 4562774915798,
  "gasLimit": {
    "_hex": "0x2fefd8"
  },
  "gasUsed": {
    "_hex": "0xa410"
  },
  "miner": "0xe6A7a1d47ff21B6321162AEA7C6CB457D5476Bca",
  "extraData": "0x476574682f76312e302e312d38326566323666362f6c696e75782f676f312e34",
  "transactions": [
    {
      "hash": "0xe1302be1b46065b4c2576eb3160eb87221dcc58ecad4a40803e011589e860b2d",
      "blockHash": "0xdc25aa27109967a9d2b999c5daf9648658f2b7694bd14fb68b7af6d3d65508a4",
      "blockNumber": 115390,
      "transactionIndex": 0,
      "confirmations": null,
      "from": "0x92857A8BC0A6F66180324f49541C695A3a0Ff944",
      "gasPrice": {
        "_hex": "0xd2d66cab0"
      },
      "gasLimit": {
        "_hex": "0x5208"
      },
      "to": "0x32Be343B94f860124dC4fEe278FDCBD38C102D88",
      "value": {
        "_hex": "0x238f9154e95454000"
      },
      "nonce": 8,
      "data": "0x",
      "r": "0x4a18840a458e9f9d0df8aeb573380a66c546ba9d9a618649bc5f2bc87094803b",
      "s": "0x5f5d6db1dfc0f7d0cf8524abf5de87c4ac3a38b3092dd3a2406141d468da971b",
      "v": 28,
      "creates": null,
      "raw": "0xf86d08850d2d66cab08252089432be343b94f860124dc4fee278fdcbd38c102d88890238f9154e95454000801ca04a18840a458e9f9d0df8aeb573380a66c546ba9d9a618649bc5f2bc87094803ba05f5d6db1dfc0f7d0cf8524abf5de87c4ac3a38b3092dd3a2406141d468da971b",
      "networkId": 0,
      "chainId": 0
    },
    {
      "hash": "0xd90678e931666dc68d848c76b94eb160dabbe2b53d8d8a465439ac358f5d7cd0",
      "blockHash": "0xdc25aa27109967a9d2b999c5daf9648658f2b7694bd14fb68b7af6d3d65508a4",
      "blockNumber": 115390,
      "transactionIndex": 1,
      "confirmations": null,
      "from": "0xa70a9a7040d542C632D8e0bE7c5513A8a5Bbc752",
      "gasPrice": {
        "_hex": "0xd2d66cab0"
      },
      "gasLimit": {
        "_hex": "0x5208"
      },
      "to": "0x32Be343B94f860124dC4fEe278FDCBD38C102D88",
      "value": {
        "_hex": "0x4567e8babff09000"
      },
      "nonce": 309,
      "data": "0x",
      "r": "0xc9d882cd61a3f5be7e0208ee84bbbda02ab01a6c2c55906ab4516dfc6d63cb28",
      "s": "0x55bbe2f9326273b899ef7c8e26f63b341c92ba0ef224e4f9632d161febd74770",
      "v": 27,
      "creates": null,
      "raw": "0xf86e820135850d2d66cab08252089432be343b94f860124dc4fee278fdcbd38c102d88884567e8babff09000801ba0c9d882cd61a3f5be7e0208ee84bbbda02ab01a6c2c55906ab4516dfc6d63cb28a055bbe2f9326273b899ef7c8e26f63b341c92ba0ef224e4f9632d161febd74770",
      "networkId": 0,
      "chainId": 0
    }
  ]
}