{
  "hash": "0xd565510e0e59aff656e123cedd62ba2d89aa7196c3dad13b297df5ff8af58f54",
  "parentHash": "0x5d3af4e8bb158a3ebe20b5e5cdd3eabb89ae85a1946f5fa53ed7208654dbf5c0",
  "number": 122090,
  "timestamp": 1440188041,
  "nonce": "0xb67a85c3d564a950",
  "difficulty": 4462226664486,
  "gasLimit": {
    "_hex": "0x2fefd8"
  },
  "gasUsed": {
    "_hex": "0x14820"
  },
  "miner": "0xe6A7a1d47ff21B6321162AEA7C6CB457D5476Bca",
  "extraData": "0xd783010002844765746887676f312e342e32856c696e7578",
  "transactions": [
    {
      "hash": "0x380a8e30f1b1ce0b1e1c5c9462c6b49dbdc439c3ae40f425d18e6080a1019daf",
      "blockHash": "0xd565510e0e59aff656e123cedd62ba2d89aa7196c3dad13b297df5ff8af58f54",
      "blockNumber": 122090,
      "transactionIndex": 0,
      "confirmations": null,
      "from": "0x59b7ee394b4F4EED8494C7920103D7e7e7E2BFF4",
      "gasPrice": {
        "_hex": "0xba43b7400"
      },
      "gasLimit": {
        "_hex": "0x5b04"
      },
      "to": "0x8B0e844eFD48397cdAf0A6F8d85271d9e08C019e",
      "value": {
        "_hex": "0x1"
      },
      "nonce": 4,
      "data": "0x",
      "r": "0xba974b8c84dee916a177e7acddcd2cdf47cd45e27cdeebedc642772e4ca24fb5",
      "s": "0x80cb7a6277d0d01fa774f0cd833dcc4b102e18390f59805a9f7dddf84c13e5e3",
      "v": 28,
      "creates": null,
      "raw": "0xf86404850ba43b7400825b04948b0e844efd48397cdaf0a6f8d85271d9e08c019e01801ca0ba974b8c84dee916a177e7acddcd2cdf47cd45e27cdeebedc642772e4ca24fb5a080cb7a6277d0d01fa774f0cd833dcc4b102e18390f59805a9f7dddf84c13e5e3",
      "networkId": 0,
      "chainId": 0
    },
    {
      "hash": "0x6b8805effd168eff77a9aaab4d7f3553accc5830b761f9947ad453f9e364d0da",
      "blockHash": "0xd565510e0e59aff656e123cedd62ba2d89aa7196c3dad13b297df5ff8af58f54",
      "blockNumber": 122090,
      "transactionIndex": 1,
      "confirmations": null,
      "from": "0xf89583486CA3C0c21C34400638aBE4b53F993457",
      "gasPrice": {
        "_hex": "0xba43b7400"
      },
      "gasLimit": {
        "_hex": "0x7a120"
      },
      "to": "0xBBDa93a81B882774e1c9b5e3F933Fa35DaC8bc88",
      "value": {
        "_hex": "0xde0b6b3a7640000"
      },
      "nonce": 5,
      "data": "0x",
      "r": "0xe6570c8f9dabd2f24d81847efdeaf026fa7dd52cedccb2695b617318d5ca1239",
      "s": "0x598d8696abf226240cefef9b931b3362dcca03c1f12485897abb06b84a14205d",
      "v": 28,
      "creates": null,
      "raw": "0xf86d05850ba43b74008307a12094bbda93a81b882774e1c9b5e3f933fa35dac8bc88880de0b6b3a7640000801ca0e6570c8f9dabd2f24d81847efdeaf026fa7dd52cedccb2695b617318d5ca1239a0598d8696abf226240cefef9b931b3362dcca03c1f12485897abb06b84a14205d",
      "networkId": 0,
      "chainId": 0
    },
    {
      "hash": "0x6a55fbe363f766e9107819e53bb6624036bed731e25e293b04d80a772b05079b",
      "blockHash": "0xd565510e0e59aff656e123cedd62ba2d89aa7196c3dad13b297df5ff8af58f54",
      "blockNumber": 122090,
      "transactionIndex": 2,
      "confirmations": null,
      "from": "0x458F183347F45a4001807728A89F31E9Da9D4A58",
      "gasPrice": {
        "_hex": "0xba43b7400"
      },
      "gasLimit": {
        "_hex": "0x15f90"
      },
      "to": "0x7fa165177F28D171bA7C17f765c1904344Ec64CB",
      "value": {
        "_hex": "0x1ee0c9b6213e80000"
      },
      "nonce": 51,
      "data": "0x",
      "r": "0x79e0d711bd6cd5ebb57e219cfdf62665fe3963d269c1ad856024cb630d16ceeb",
      "s": "0x7f09790fb6cc0c18f4d1cc2d3f58aa6d95e20e94d783d0aa053561874a1b6d11",
      "v": 28,
      "creates": null,
      "raw": "0xf86e33850ba43b740083015f90947fa165177f28d171ba7c17f765c1904344ec64cb8901ee0c9b6213e80000801ca079e0d711bd6cd5ebb57e219cfdf62665fe3963d269c1ad856024cb630d16ceeba07f09790fb6cc0c18f4d1cc2d3f58aa6d95e20e94d783d0aa053561874a1b6d11",
      "networkId": 0,
      "chainId": 0
    },
    {
      "hash": "0x7c72bd5e760e62c20aa775b3b17c19a1c8d282ecc5d5c878ff6fabd36b838480",
      "blockHash": "0xd565510e0e59aff656e123cedd62ba2d89aa7196c3dad13b297df5ff8af58f54",
      "blockNumber": 122090,
      "transactionIndex": 3,
      "confirmations": null,
      "from": "0x167f119655d82607d0C766Bbdd6686Fc36a1E3a3",
      "gasPrice": {
        "_hex": "0xba43b7400"
      },
      "gasLimit": {
        "_hex": "0x15f90"
      },
      "to": "0x2eA971a0F3AC5C4179f5755578b7e8F8eA2fC9A6",
      "value": {
        "_hex": "0x1bc16d674ec80000"
      },
      "nonce": 1,
      "data": "0x",
      "r": "0x540028e70a4ec76d05ea06b6660e3a9b4b347c807d97ac9fc64c1cec777e0a69",
      "s": "0x68c12d5c3532f4863d213cbe4f189632f90a7b509036efff3d4b3935b86eb974",
      "v": 27,
      "creates": null,
      "raw": "0xf86d01850ba43b740083015f90942ea971a0f3ac5c4179f5755578b7e8f8ea2fc9a6881bc16d674ec80000801ba0540028e70a4ec76d05ea06b6660e3a9b4b347c807d97ac9fc64c1cec777e0a69a068c12d5c3532f4863d213cbe4f189632f90a7b509036efff3d4b3935b86eb974",
      "networkId": 0,
      "chainId": 0
    }
  ]
}