{
  "hash": "0xe74d4c9e6edae359c551a6bef45145269471043dba0f3a67a89b673164d09c10",
  "parentHash": "0x4627a182702d4d84bc00d478953487fb04a5c8bc12784c9390f288e9d490cf18",
  "number": 104799,
  "timestamp": 1439875924,
  "nonce": "0x33065c942f6bf73a",
  "difficulty": 4352949541124,
  "gasLimit": {
    "_hex": "0x2fefd8"
  },
  "gasUsed": {
    "_hex": "0x5208"
  },
  "miner": "0xe6A7a1d47ff21B6321162AEA7C6CB457D5476Bca",
  "extraData": "0x476574682f76312e302e312d38326566323666362f6c696e75782f676f312e34",
  "transactions": [
    {
      "hash": "0x60d764beea3b0f9315ea26cacc0ae137877fc1f08059556b042ff3074bf0ca45",
      "blockHash": "0xe74d4c9e6edae359c551a6bef45145269471043dba0f3a67a89b673164d09c10",
      "blockNumber": 104799,
      "transactionIndex": 0,
      "confirmations": null,
      "from": "0x120A270bbC009644e35F0bB6ab13f95b8199c4ad",
      "gasPrice": {
        "_hex": "0xce821fb4f"
      },
      "gasLimit": {
        "_hex": "0x3d090"
      },
      "to": "0x1A45221Bb8D9c78D59bf1De0B3a361F5da3f965E",
      "value": {
        "_hex": "0x28720084fa78400"
      },
      "nonce": 757,
      "data": "0x",
      "r": "0xe794c5eecac5941ede1115b97bf7f98fbc72c496371fa0ce7154bfde5966c172",
      "s": "0x60f9973fe2a74b45c168b27701d87aec93eb558e4ad48d77bbdc0f48c653eef5",
      "v": 28,
      "creates": null,
      "raw": "0xf86f8202f5850ce821fb4f8303d090941a45221bb8d9c78d59bf1de0b3a361f5da3f965e88028720084fa78400801ca0e794c5eecac5941ede1115b97bf7f98fbc72c496371fa0ce7154bfde5966c172a060f9973fe2a74b45c168b27701d87aec93eb558e4ad48d77bbdc0f48c653eef5",
      "networkId": 0,
      "chainId": 0
    }
  ]
}