{
  "hash": "0xdb8311babae994e64a4a1fa96c59cb36a48bff6ec7a83925026570f42ccea057",
  "parentHash": "0xbae3ec5a4c6014dff8ef5778c8b0af8db1a13dc4441b9566b883c7459b824caf",
  "number": 85185,
  "timestamp": 1439559677,
  "nonce": "0xd6064a442e05b199",
  "difficulty": 2749111429641,
  "gasLimit": {
    "_hex": "0x2fefd8"
  },
  "gasUsed": {
    "_hex": "0xf618"
  },
  "miner": "0x790b8a3cE86E707ED0eD32bF89B3269692a23CC1",
  "extraData": "0xd783010001844765746887676f312e342e32856c696e7578",
  "transactions": [
    {
      "hash": "0x736d50099f2808734574fc343371fe3df48270434931fdc137ff1d6dd1d8510d",
      "blockHash": "0xdb8311babae994e64a4a1fa96c59cb36a48bff6ec7a83925026570f42ccea057",
      "blockNumber": 85185,
      "transactionIndex": 0,
      "confirmations": null,
      "from": "0x739f8ab33a41B67952f16778e3CC6D2dEcC3a2d5",
      "gasPrice": {
        "_hex": "0x10f61d2abd0"
      },
      "gasLimit": {
        "_hex": "0x15f90"
      },
      "to": "0x864307A4f7d1627075183A07F39098BAcA7137c0",
      "value": {
        "_hex": "0x0"
      },
      "nonce": 1,
      "data": "0x",
      "r": "0x875747aa37ea612cddcd37a4b1acfc295064613f541925e9ccff4ca1d1ce863e",
      "s": "0x32cb57a64b9c2665a7713c67a350901fed5c12470c74fa4c2fc0a14eb45e13af",
      "v": 27,
      "creates": null,
      "raw": "0xf8660186010f61d2abd083015f9094864307a4f7d1627075183a07f39098baca7137c080801ba0875747aa37ea612cddcd37a4b1acfc295064613f541925e9ccff4ca1d1ce863ea032cb57a64b9c2665a7713c67a350901fed5c12470c74fa4c2fc0a14eb45e13af",
      "networkId": 0,
      "chainId": 0
    },
    {
      "hash": "0xe58bcf535d79d7a2f27b4393a971cedc09dc34222486123f2b520d7906658e42",
      "blockHash": "0xdb8311babae994e64a4a1fa96c59cb36a48bff6ec7a83925026570f42ccea057",
      "blockNumber": 85185,
      "transactionIndex": 1,
      "confirmations": null,
      "from": "0xb2Cc35A981a37f727C203350f78142ceCb16fb45",
      "gasPrice": {
        "_hex": "0xd6d9651bf"
      },
      "gasLimit": {
        "_hex": "0x61a8"
      },
      "to": "0x34fDf2118f88a297b3750FAD5eEB307808d08378",
      "value": {
        "_hex": "0x32ee758e35af0000"
      },
      "nonce": 1,
      "data": "0x",
      "r": "0xe456ae5947d5185c32c8c0a24bd2a08cc3c1c7cecc2ee0b79a535e03f7fc91b5",
      "s": "0x62cc4a86c016ad2929d29680beaaf344e4e388a675bf4f555c6faba4a9efa71f",
      "v": 28,
      "creates": null,
      "raw": "0xf86c01850d6d9651bf8261a89434fdf2118f88a297b3750fad5eeb307808d083788832ee758e35af0000801ca0e456ae5947d5185c32c8c0a24bd2a08cc3c1c7cecc2ee0b79a535e03f7fc91b5a062cc4a86c016ad2929d29680beaaf344e4e388a675bf4f555c6faba4a9efa71f",
      "networkId": 0,
      "chainId": 0
    },
    {
      "hash": "0x9c88c36a688f633bd6c2c09255a5c88c03f6602e9c90be68fd686833a9555e23",
      "blockHash": "0xdb8311babae994e64a4a1fa96c59cb36a48bff6ec7a83925026570f42ccea057",
      "blockNumber": 85185,
      "transactionIndex": 2,
      "confirmations": null,
      "from": "0x6866e5e1FaBB4AbceF3EEb9Ea0d8CD6b52dfC9FF",
      "gasPrice": {
        "_hex": "0xd64e2c381"
      },
      "gasLimit": {
        "_hex": "0x15f90"
      },
      "to": "0x01Ad0ACFf478127D9d702B1A13599D706cB759b1",
      "value": {
        "_hex": "0xd04e3b793e9d0000"
      },
      "nonce": 18,
      "data": "0x",
      "r": "0x6b388fefff4736e057b7f8ce00aa970ee495da2605155f86d40cffea3b19c1a5",
      "s": "0x2b481eac746b930132019b567fcb48fee0be3957ed754ffb8861e4e4a9b50a09",
      "v": 27,
      "creates": null,
      "raw": "0xf86d12850d64e2c38183015f909401ad0acff478127d9d702b1a13599d706cb759b188d04e3b793e9d0000801ba06b388fefff4736e057b7f8ce00aa970ee495da2605155f86d40cffea3b19c1a5a02b481eac746b930132019b567fcb48fee0be3957ed754ffb8861e4e4a9b50a09",
      "networkId": 0,
      "chainId": 0
    }
  ]
}