{
  "hash": "0x034e1b2ec8d640a56346ed1bd9a627948befc14e2ff259ac02d72c787dac4074",
  "parentHash": "0xd94ce2e4598875ec89a5518d0d021cb21a0036d3e6f1c6a3ea4a6f89ff3f9aa8",
  "number": 91366,
  "timestamp": 1439654547,
  "nonce": "0xeb8076ea1333556f",
  "difficulty": 3470947625261,
  "gasLimit": {
    "_hex": "0x2fefd8"
  },
  "gasUsed": {
    "_hex": "0x546c"
  },
  "miner": "0xbb7B8287f3F0a933474a79eAe42CBCa977791171",
  "extraData": "0x476574682f4c5649562f76312e302e312f6c696e75782f676f312e342e32",
  "transactions": [
    {
      "hash": "0x18ac21fe300a39503aad07df88f3f5946b8072abc77c04c74264246d8fa59b7a",
      "blockHash": "0x034e1b2ec8d640a56346ed1bd9a627948befc14e2ff259ac02d72c787dac4074",
      "blockNumber": 91366,
      "transactionIndex": 0,
      "confirmations": null,
      "from": "0x3872f48dC5e3f817BC6B2aD2d030fc5e0471193d",
      "gasPrice": {
        "_hex": "0x110c8f7d8de"
      },
      "gasLimit": {
        "_hex": "0xc350"
      },
      "to": "0x2910543Af39abA0Cd09dBb2D50200b3E800A63D2",
      "value": {
        "_hex": "0x3635c9adc5dea00000"
      },
      "nonce": 2,
      "data": "0x454e41383456445830",
      "r": "0x005a50d0bb69c388283c0a73f6864b21b46370a2771a891f950218a595e2065e",
      "s": "0x2d9caa52c84dcab211a4e43a9b2e44ee8cc5dfce7e43dddcb1b528358aeadb7a",
      "v": 28,
      "creates": null,
      "raw": "0xf87602860110c8f7d8de82c350942910543af39aba0cd09dbb2d50200b3e800a63d2893635c9adc5dea0000089454e413834564458301c9f5a50d0bb69c388283c0a73f6864b21b46370a2771a891f950218a595e2065ea02d9caa52c84dcab211a4e43a9b2e44ee8cc5dfce7e43dddcb1b528358aeadb7a",
      "networkId": 0,
      "chainId": 0
    }
  ]
}