{
  "hash": "0xa03856d91539e59239c49375d8d097e5d39a194b3a9a8188bfdb35d32b0f65d1",
  "parentHash": "0x607b8ece69f42bd9d06d85bf8255787e0af6a886471b3a6841cf76482ddffecb",
  "number": 46465,
  "timestamp": 1438923646,
  "nonce": "0x64cd0babcf8b3350",
  "difficulty": 1466796802423,
  "gasLimit": {
    "_hex": "0x62b5"
  },
  "gasUsed": {
    "_hex": "0x5208"
  },
  "miner": "0xf927a40C8B7F6E07c5af7FA2155B4864a4112B13",
  "extraData": "0x476574682f76312e302e312f6c696e75782f676f312e342e32",
  "transactions": [
    {
      "hash": "0x978279310953f408847c8be4e67ddbafc42692591651c69ef566b355c6cf3d35",
      "blockHash": "0xa03856d91539e59239c49375d8d097e5d39a194b3a9a8188bfdb35d32b0f65d1",
      "blockNumber": 46465,
      "transactionIndex": 0,
      "confirmations": null,
      "from": "0xd3679a47dF2d99A49b01c98D1C3E0c987CE1E158",
      "gasPrice": {
        "_hex": "0x11d430a5e52"
      },
      "gasLimit": {
        "_hex": "0x5208"
      },
      "to": "0x4BEF38C01Bc78Be1914bFe8D309aDF66a0E6721A",
      "value": {
        "_hex": "0x9c2007651b2500000"
      },
      "nonce": 0,
      "data": "0x",
      "r": "0x3c003326b4c0598e800c8174f5402ad5d83ef0ec82fe52d01a52f9831a3028fd",
      "s": "0x577811cb1bec4615bfa21059f1945c05070c450c6369445af49e84bd63dae16b",
      "v": 28,
      "creates": null,
      "raw": "0xf86e8086011d430a5e52825208944bef38c01bc78be1914bfe8d309adf66a0e6721a8909c2007651b2500000801ca03c003326b4c0598e800c8174f5402ad5d83ef0ec82fe52d01a52f9831a3028fda0577811cb1bec4615bfa21059f1945c05070c450c6369445af49e84bd63dae16b",
      "networkId": 0,
      "chainId": 0
    }
  ]
}