{
  "hash": "0xcda8d9bbd5219d8612afcbf4532038898b29bc0e7aea12ac29aa4aeff409a05e",
  "parentHash": "0xae7db54991c7f74625e4ae25c8e66bf8418db919c39d78ea6bb9da9df85f7354",
  "number": 121704,
  "timestamp": 1440181168,
  "nonce": "0x9a4a95bc60d7cb02",
  "difficulty": 4497431288355,
  "gasLimit": {
    "_hex": "0x2fefd8"
  },
  "gasUsed": {
    "_hex": "0x5208"
  },
  "miner": "0x580992B51e3925e23280EfB93d3047C82f17E038",
  "extraData": "0x",
  "transactions": [
    {
      "hash": "0xce46262f1fa75f27ad79d47acbc0e1d6f7a2b20886ada6faa55a5252751b50a0",
      "blockHash": "0xcda8d9bbd5219d8612afcbf4532038898b29bc0e7aea12ac29aa4aeff409a05e",
      "blockNumber": 121704,
      "transactionIndex": 0,
      "confirmations": null,
      "from": "0xc2d8A8b3496243E22B7247990737217985B94421",
      "gasPrice": {
        "_hex": "0xcf29591d4"
      },
      "gasLimit": {
        "_hex": "0x5208"
      },
      "to": "0x32Be343B94f860124dC4fEe278FDCBD38C102D88",
      "value": {
        "_hex": "0xeb8fa412832fc00"
      },
      "nonce": 2,
      "data": "0x",
      "r": "0x3c745289e7d196717c301815bf9fe100150490114a093947a7e1b7dc57a5d8db",
      "s": "0x7896b68686e3ae6a6e63858cf09a47a7e04fe076f4f9d2c2ba85e763a283e227",
      "v": 27,
      "creates": null,
      "raw": "0xf86c02850cf29591d48252089432be343b94f860124dc4fee278fdcbd38c102d88880eb8fa412832fc00801ba03c745289e7d196717c301815bf9fe100150490114a093947a7e1b7dc57a5d8dba07896b68686e3ae6a6e63858cf09a47a7e04fe076f4f9d2c2ba85e763a283e227",
      "networkId": 0,
      "chainId": 0
    }
  ]
}