{
  "hash": "0xdd051df2953b53f9928676b85636539aeb857e6768ecd700a6b116cd8a5cef36",
  "parentHash": "0xfdc798440223c17c65528bb264401654fa9a6618066da073678cbaf844f358f5",
  "number": 88341,
  "timestamp": 1439606672,
  "nonce": "0x4866368e7cba25a9",
  "difficulty": 3197178550450,
  "gasLimit": {
    "_hex": "0x2fefd8"
  },
  "gasUsed": {
    "_hex": "0x5208"
  },
  "miner": "0xe6A7a1d47ff21B6321162AEA7C6CB457D5476Bca",
  "extraData": "0x476574682f76312e302e312d38326566323666362f6c696e75782f676f312e34",
  "transactions": [
    {
      "hash": "0x699dd63680e71238d7750855516dffcea6cea420be53a08c10e9fc0e49ca0d6e",
      "blockHash": "0xdd051df2953b53f9928676b85636539aeb857e6768ecd700a6b116cd8a5cef36",
      "blockNumber": 88341,
      "transactionIndex": 0,
      "confirmations": null,
      "from": "0x2910543Af39abA0Cd09dBb2D50200b3E800A63D2",
      "gasPrice": {
        "_hex": "0xdc93d4fe9"
      },
      "gasLimit": {
        "_hex": "0x5208"
      },
      "to": "0xb2169f1326FE9745321aD99563654089bAdf09eb",
      "value": {
        "_hex": "0xb018b6662892c8000"
      },
      "nonce": 727,
      "data": "0x",
      "r": "0x0f14c4c7e5d5017e3aded4275795d708cff1dcbad056bbd57bce4afd287c4c8b",
      "s": "0x4c7f3243e19cd89ca9ab37a8192a5c57a5c48c58d03437bb6d44c7a7d62458c9",
      "v": 28,
      "creates": null,
      "raw": "0xf86f8202d7850dc93d4fe982520894b2169f1326fe9745321ad99563654089badf09eb890b018b6662892c8000801ca00f14c4c7e5d5017e3aded4275795d708cff1dcbad056bbd57bce4afd287c4c8ba04c7f3243e19cd89ca9ab37a8192a5c57a5c48c58d03437bb6d44c7a7d62458c9",
      "networkId": 0,
      "chainId": 0
    }
  ]
}