{
  "hash": "0x077155880d971e0d54d98c88c27549f276416da649f4b20ad3dbd7d048ee10df",
  "parentHash": "0x6fdc4b900ba1ebc93a03db1dfd47790c083fcf61fff16edd75c92f73284db820",
  "number": 65232,
  "timestamp": 1439233440,
  "nonce": "0x872364afbb467564",
  "difficulty": 1945485902983,
  "gasLimit": {
    "_hex": "0x2fefd5"
  },
  "gasUsed": {
    "_hex": "0xf618"
  },
  "miner": "0x88D74a59454F6cF3B51ef6b9136AFb6b9D405A88",
  "extraData": "0x476574682f76312e302e312d37666266393930632f6c696e75782f676f312e34",
  "transactions": [
    {
      "hash": "0x2ce76682f701733644423f6e68131701b0f5eb6bc7e1b42250b8532e53f03e5b",
      "blockHash": "0x077155880d971e0d54d98c88c27549f276416da649f4b20ad3dbd7d048ee10df",
      "blockNumber": 65232,
      "transactionIndex": 0,
      "confirmations": null,
      "from": "0x608F680cB915b87F83f3d369bBbb796D778c6162",
      "gasPrice": {
        "_hex": "0xcf7ffab8d"
      },
      "gasLimit": {
        "_hex": "0x15f90"
      },
      "to": "0xBaf4E201A3015b60bD8dd1190E20411EaF12C5eE",
      "value": {
        "_hex": "0x1"
      },
      "nonce": 0,
      "data": "0x",
      "r": "0xf5ae59133bcce789f9b0fd39a651e9046fae7daeaaba96aa656c67d02ab1f68d",
      "s": "0x58e48900c6267480a8de2c15f81e2bd7b62785ca441859150e1c8555850fdd18",
      "v": 28,
      "creates": null,
      "raw": "0xf86580850cf7ffab8d83015f9094baf4e201a3015b60bd8dd1190e20411eaf12c5ee01801ca0f5ae59133bcce789f9b0fd39a651e9046fae7daeaaba96aa656c67d02ab1f68da058e48900c6267480a8de2c15f81e2bd7b62785ca441859150e1c8555850fdd18",
      "networkId": 0,
      "chainId": 0
    },
    {
      "hash": "0xe8ac49fd5ea609b24d625dd5716c5d9cf94230da1bbc994a12b13f9057c200a8",
      "blockHash": "0x077155880d971e0d54d98c88c27549f276416da649f4b20ad3dbd7d048ee10df",
      "blockNumber": 65232,
      "transactionIndex": 1,
      "confirmations": null,
      "from": "0xcf0a2986c44d35f0ebBD8943c4B14dacfF14049D",
      "gasPrice": {
        "_hex": "0xba43b7400"
      },
      "gasLimit": {
        "_hex": "0x5208"
      },
      "to": "0xC816F11b29cDec6a2d9B8085354F92A2c88a12e5",
      "value": {
        "_hex": "0x6b8d3c44ced5000"
      },
      "nonce": 1,
      "data": "0x",
      "r": "0xd8e1b3cc9a2a0e257346802fe6192b0482562d0d5d01f93cdd8e8e33b5dd2033",
      "s": "0x1a4ecc1579c7d6fd702bbc42dc9f18c18b34f194291ae166a5c5f39fdd928c2b",
      "v": 27,
      "creates": null,
      "raw": "0xf86c01850ba43b740082520894c816f11b29cdec6a2d9b8085354f92a2c88a12e58806b8d3c44ced5000801ba0d8e1b3cc9a2a0e257346802fe6192b0482562d0d5d01f93cdd8e8e33b5dd2033a01a4ecc1579c7d6fd702bbc42dc9f18c18b34f194291ae166a5c5f39fdd928c2b",
      "networkId": 0,
      "chainId": 0
    },
    {
      "hash": "0x9363c498ac3bf72dbea62a0e2d7b1a3a1e546d04f6901cff572768af7c1d8f7c",
      "blockHash": "0x077155880d971e0d54d98c88c27549f276416da649f4b20ad3dbd7d048ee10df",
      "blockNumber": 65232,
      "transactionIndex": 2,
      "confirmations": null,
      "from": "0xA725D243d631dA2c9A1BaF73fD323EAE46D87023",
      "gasPrice": {
        "_hex": "0xba43b7400"
      },
      "gasLimit": {
        "_hex": "0x5208"
      },
      "to": "0xe8D9524147C46d4caddeC43380168b43c0893bE0",
      "value": {
        "_hex": "0x72c83a48cbf8000"
      },
      "nonce": 1,
      "data": "0x",
      "r": "0xa36041b6bd7d0e4f9c2d8f18211f285e7d927f846b2c936bef28efa168aa7ff5",
      "s": "0x25b2990a97222c72c7d6dc8c6b7fda33dece732348b0ec6e8f1a1b8f59e00b74",
      "v": 28,
      "creates": null,
      "raw": "0xf86c01850ba43b740082520894e8d9524147c46d4caddec43380168b43c0893be088072c83a48cbf8000801ca0a36041b6bd7d0e4f9c2d8f18211f285e7d927f846b2c936bef28efa168aa7ff5a025b2990a97222c72c7d6dc8c6b7fda33dece732348b0ec6e8f1a1b8f59e00b74",
      "networkId": 0,
      "chainId": 0
    }
  ]
}