{
  "hash": "0xfceeda81af1baacd506694e3203a0c15628aa2fba8db2ac41f45eee808b1418f",
  "parentHash": "0x4bb2e4021729e3cc57515dc72ccc01b47bba82f254628dd98ff788254f679232",
  "number": 115546,
  "timestamp": 1440058975,
  "nonce": "0x1447552b2ef2ff0e",
  "difficulty": 4616473615193,
  "gasLimit": {
    "_hex": "0x2fefd8"
  },
  "gasUsed": {
    "_hex": "0x5208"
  },
  "miner": "0xe6A7a1d47ff21B6321162AEA7C6CB457D5476Bca",
  "extraData": "0x476574682f76312e302e312d38326566323666362f6c696e75782f676f312e34",
  "transactions": [
    {
      "hash": "0x3eb2412064ed451c5947ad451d2606e644270dc64b3ded1ab158b45ecb6e00e0",
      "blockHash": "0xfceeda81af1baacd506694e3203a0c15628aa2fba8db2ac41f45eee808b1418f",
      "blockNumber": 115546,
      "transactionIndex": 0,
      "confirmations": null,
      "from": "0x32Be343B94f860124dC4fEe278FDCBD38C102D88",
      "gasPrice": {
        "_hex": "0xd6f28af16"
      },
      "gasLimit": {
        "_hex": "0x5208"
      },
      "to": "0x663F37156fa35DBA128c9682f13D515b68002002",
      "value": {
        "_hex": "0x4e1003b28d9280000"
      },
      "nonce": 1435,
      "data": "0x",
      "r": "0xf7ac90d0fd2f7c3b5baed308cec0b59203c38dd2ff7904db369ca91ba3bd06ff",
      "s": "0x04559dcd3ac68d9ae9d4fde342c9b0db97bc53b55b38739a59d92ca3700cd967",
      "v": 28,
      "creates": null,
      "raw": "0xf86f82059b850d6f28af1682520894663f37156fa35dba128c9682f13d515b680020028904e1003b28d9280000801ca0f7ac90d0fd2f7c3b5baed308cec0b59203c38dd2ff7904db369ca91ba3bd06ffa004559dcd3ac68d9ae9d4fde342c9b0db97bc53b55b38739a59d92ca3700cd967",
      "networkId": 0,
      "chainId": 0
    }
  ]
}