{
  "hash": "0x9176014c83dcda50f691e4f43fc735924b14d445f93d43e0a32c1aea93e95100",
  "parentHash": "0x249d013d8e667e0f58c73818a48004ac7a8e33cc47b3d0a5ec79e6b03e53554e",
  "number": 89763,
  "timestamp": 1439628676,
  "nonce": "0xe02f78e787a447a0",
  "difficulty": 3340246204656,
  "gasLimit": {
    "_hex": "0x2fefd8"
  },
  "gasUsed": {
    "_hex": "0x42a68"
  },
  "miner": "0x9746c7e1ef2bd21FF3997fa467593a89cb852BD0",
  "extraData": "0x476574682f76312e302e312f77696e646f77732f676f312e342e32",
  "transactions": [
    {
      "hash": "0xe2aef5ee5cf7205fa9d5f9f23ecb75c93782d56f7f3b510df106cffa4ea29bc2",
      "blockHash": "0x9176014c83dcda50f691e4f43fc735924b14d445f93d43e0a32c1aea93e95100",
      "blockNumber": 89763,
      "transactionIndex": 0,
      "confirmations": null,
      "from": "0xe6A7a1d47ff21B6321162AEA7C6CB457D5476Bca",
      "gasPrice": {
        "_hex": "0xce70f0fc1"
      },
      "gasLimit": {
        "_hex": "0x55f0"
      },
      "to": "0x86889b1CeA13d370E827e099e3778b17d488B3Dd",
      "value": {
        "_hex": "0xe0c0f97a2cde8e0"
      },
      "nonce": 1939,
      "data": "0x",
      "r": "0x3f6411b92c5787a61799fe03dd43e2ef55164119b5521c4ebec68da829e0d87d",
      "s": "0x0c9a60e96c57fee01f95aed46f39aa7f573c443d73f0fc51d083bb15e6535f13",
      "v": 27,
      "creates": null,
      "raw": "0xf86e820793850ce70f0fc18255f09486889b1cea13d370e827e099e3778b17d488b3dd880e0c0f97a2cde8e0801ba03f6411b92c5787a61799fe03dd43e2ef55164119b5521c4ebec68da829e0d87da00c9a60e96c57fee01f95aed46f39aa7f573c443d73f0fc51d083bb15e6535f13",
      "networkId": 0,
      "chainId": 0
    },
    {
      "hash": "0x6161eda99e607eee94f088e002d5437c7bbdb62696fa6db9e95026531da3f39a",
      "blockHash": "0x9176014c83dcda50f691e4f43fc735924b14d445f93d43e0a32c1aea93e95100",
      "blockNumber": 89763,
      "transactionIndex": 1,
      "confirmations": null,
      "from": "0xe6A7a1d47ff21B6321162AEA7C6CB457D5476Bca",
      "gasPrice": {
        "_hex": "0xce70f0fc1"
      },
      "gasLimit": {
        "_hex": "0x55f0"
      },
      "to": "0x944bd85E903362E39D6Ae7E4f609CE21C2EE03dc",
      "value": {
        "_hex": "0xe300fd0f7e2b5b0"
      },
      "nonce": 1940,
      "data": "0x",
      "r": "0x0bac9e84fdfae3177cddd346ae4552eb0be3893c718f805f686ca40a725283bb",
      "s": "0x7e7e26df79315c3f136e9c85ba05f27c080950a462b4a16915e9d372ba3b8cb0",
      "v": 28,
      "creates": null,
      "raw": "0xf86e820794850ce70f0fc18255f094944bd85e903362e39d6ae7e4f609ce21c2ee03dc880e300fd0f7e2b5b0801ca00bac9e84fdfae3177cddd346ae4552eb0be3893c718f805f686ca40a725283bba07e7e26df79315c3f136e9c85ba05f27c080950a462b4a16915e9d372ba3b8cb0",
      "networkId": 0,
      "chainId": 0
    },
    {
      "hash": "0x483b93b3657bb63112b4117dd7e4474b5704e2220b4ee399b6bb74491b9c26d5",
      "blockHash": "0x9176014c83dcda50f691e4f43fc735924b14d445f93d43e0a32c1aea93e95100",
      "blockNumber": 89763,
      "transactionIndex": 2,
      "confirmations": null,
      "from": "0xe6A7a1d47ff21B6321162AEA7C6CB457D5476Bca",
      "gasPrice": {
        "_hex": "0xce70f0fc1"
      },
      "gasLimit": {
        "_hex": "0x55f0"
      },
      "to": "0x3463f942ecbBfD18f1CF702576c99BC11F7cB1Ae",
      "value": {
        "_hex": "0xe4fba34be5aa130"
      },
      "nonce": 1941,
      "data": "0x",
      "r": "0xeba8c51d7fe52f09ad51f513dba1a41c6150a8d4401ea76f191bfe90fca92300",
      "s": "0x658ce0d1e43c9c974cdcfc3ddab992f8eb0611bd8c560cfc80351330673fc35d",
      "v": 27,
      "creates": null,
      "raw": "0xf86e820795850ce70f0fc18255f0943463f942ecbbfd18f1cf702576c99bc11f7cb1ae880e4fba34be5aa130801ba0eba8c51d7fe52f09ad51f513dba1a41c6150a8d4401ea76f191bfe90fca92300a0658ce0d1e43c9c974cdcfc3ddab992f8eb0611bd8c560cfc80351330673fc35d",
      "networkId": 0,
      "chainId": 0
    },
    {
      "hash": "0xff94c97c030352792b7b6d4743d83b265ac40c212f505076c34b3b3297bf7b38",
      "blockHash": "0x9176014c83dcda50f691e4f43fc735924b14d445f93d43e0a32c1aea93e95100",
      "blockNumber": 89763,
      "transactionIndex": 3,
      "confirmations": null,
      "from": "0xe6A7a1d47ff21B6321162AEA7C6CB457D5476Bca",
      "gasPrice": {
        "_hex": "0xce70f0fc1"
      },
      "gasLimit": {
        "_hex": "0x55f0"
      },
      "to": "0xe2073a029bBF0eE2A933ceeFa9b3658973320CA5",
      "value": {
        "_hex": "0xe6173fddfa03e24"
      },
      "nonce": 1942,
      "data": "0x",
      "r": "0xd02f23c8ec11d4158d46c77716cf3d2a0d3c2063bd90a25ac1e102e5db897c03",
      "s": "0x1ee05c9012cb12f3b1eb54d0e3fffdbea71d81f0d40f3bb6c3f260ce41f35b49",
      "v": 28,
      "creates": null,
      "raw": "0xf86e820796850ce70f0fc18255f094e2073a029bbf0ee2a933ceefa9b3658973320ca5880e6173fddfa03e24801ca0d02f23c8ec11d4158d46c77716cf3d2a0d3c2063bd90a25ac1e102e5db897c03a01ee05c9012cb12f3b1eb54d0e3fffdbea71d81f0d40f3bb6c3f260ce41f35b49",
      "networkId": 0,
      "chainId": 0
    },
    {
      "hash": "0x4ae94c9a46f82863997fc42ffdb1889e988d14ddf66cf3299f17442db4409d83",
      "blockHash": "0x9176014c83dcda50f691e4f43fc735924b14d445f93d43e0a32c1aea93e95100",
      "blockNumber": 89763,
      "transactionIndex": 4,
      "confirmations": null,
      "from": "0xe6A7a1d47ff21B6321162AEA7C6CB457D5476Bca",
      "gasPrice": {
        "_hex": "0xce70f0fc1"
      },
      "gasLimit": {
        "_hex": "0x55f0"
      },
      "to": "0xACAB9A83F47D28Fdc1d12772A0B571f80444b5DD",
      "value": {
        "_hex": "0xe6981a0df6a75d8"
      },
      "nonce": 1943,
      "data": "0x",
      "r": "0xda4c3bc12dc187777cb1d485600db5ad7cd0803631418b0f8c100e6bf309c5e4",
      "s": "0x586000849edfca7043600002581d8b007f896a93f74343a4ceb69fe965a184c7",
      "v": 27,
      "creates": null,
      "raw": "0xf86e820797850ce70f0fc18255f094acab9a83f47d28fdc1d12772a0b571f80444b5dd880e6981a0df6a75d8801ba0da4c3bc12dc187777cb1d485600db5ad7cd0803631418b0f8c100e6bf309c5e4a0586000849edfca7043600002581d8b007f896a93f74343a4ceb69fe965a184c7",
      "networkId": 0,
      "chainId": 0
    },
    {
      "hash": "0x9caea895662bf3af13ebc3f9e1df53ce1d8a4a3ac0b114de95512bd378d381cf",
      "blockHash": "0x9176014c83dcda50f691e4f43fc735924b14d445f93d43e0a32c1aea93e95100",
      "blockNumber": 89763,
      "transactionIndex": 5,
      "confirmations": null,
      "from": "0xe6A7a1d47ff21B6321162AEA7C6CB457D5476Bca",
      "gasPrice": {
        "_hex": "0xce70f0fc1"
      },
      "gasLimit": {
        "_hex": "0x55f0"
      },
      "to": "0x323cD41e4d4e74eB94CA49EdcCAab03f798a930a",
      "value": {
        "_hex": "0xe7c46a393cc8e88"
      },
      "nonce": 1944,
      "data": "0x",
      "r": "0x2d8bf2f4609260b8b0631cf27b71816c68ea56ca61e48f8525f0c67422437ab9",
      "s": "0x482923f94ad778d3010ab6e0c5317fbc6d859aef551c1a2d2ec20a55991c5eb6",
      "v": 27,
      "creates": null,
      "raw": "0xf86e820798850ce70f0fc18255f094323cd41e4d4e74eb94ca49edccaab03f798a930a880e7c46a393cc8e88801ba02d8bf2f4609260b8b0631cf27b71816c68ea56ca61e48f8525f0c67422437ab9a0482923f94ad778d3010ab6e0c5317fbc6d859aef551c1a2d2ec20a55991c5eb6",
      "networkId": 0,
      "chainId": 0
    },
    {
      "hash": "0x2959cb2177d26354b010ddc319a4f34af0b28a32ae3d612fcfbb207b116c7eca",
      "blockHash": "0x9176014c83dcda50f691e4f43fc735924b14d445f93d43e0a32c1aea93e95100",
      "blockNumber": 89763,
      "transactionIndex": 6,
      "confirmations": null,
      "from": "0xe6A7a1d47ff21B6321162AEA7C6CB457D5476Bca",
      "gasPrice": {
        "_hex": "0xce70f0fc1"
      },
      "gasLimit": {
        "_hex": "0x55f0"
      },
      "to": "0x302c39f2ac88961D33bAAAB06F8C7E88E73A072a",
      "value": {
        "_hex": "0xe9915cc53214f08"
      },
      "nonce": 1945,
      "data": "0x",
      "r": "0xf135d8048c2f1843fb0fb618d19e992780ee8b012765208836115f29ab1a60a9",
      "s": "0x5b4ec62cb9b910db9d58a3ef1ba2cc0681d42c1bea226f5856b8972fd855d969",
      "v": 27,
      "creates": null,
      "raw": "0xf86e820799850ce70f0fc18255f094302c39f2ac88961d33baaab06f8c7e88e73a072a880e9915cc53214f08801ba0f135d8048c2f1843fb0fb618d19e992780ee8b012765208836115f29ab1a60a9a05b4ec62cb9b910db9d58a3ef1ba2cc0681d42c1bea226f5856b8972fd855d969",
      "networkId": 0,
      "chainId": 0
    },
    {
      "hash": "0x744bee2dd57685c13fd1f8fba061e881ae1e3cc370bf22c2f25c7df9b0b69f51",
      "blockHash": "0x9176014c83dcda50f691e4f43fc735924b14d445f93d43e0a32c1aea93e95100",
      "blockNumber": 89763,
      "transactionIndex": 7,
      "confirmations": null,
      "from": "0xe6A7a1d47ff21B6321162AEA7C6CB457D5476Bca",
      "gasPrice": {
        "_hex": "0xce70f0fc1"
      },
      "gasLimit": {
        "_hex": "0x55f0"
      },
      "to": "0xCCb074a4e0b6751AA9f80A13e9f49DB2A50E381C",
      "value": {
        "_hex": "0xe9ad70a10575900"
      },
      "nonce": 1946,
      "data": "0x",
      "r": "0x7458dd010acbbd5489fbb7052d043bb83f3ec00d9529a80852ad30f144ba6765",
      "s": "0x070579621996e88fb7c2c17f15ea7140f966ec41db25642b640b8acf329d9f63",
      "v": 28,
      "creates": null,
      "raw": "0xf86e82079a850ce70f0fc18255f094ccb074a4e0b6751aa9f80a13e9f49db2a50e381c880e9ad70a10575900801ca07458dd010acbbd5489fbb7052d043bb83f3ec00d9529a80852ad30f144ba6765a0070579621996e88fb7c2c17f15ea7140f966ec41db25642b640b8acf329d9f63",
      "networkId": 0,
      "chainId": 0
    },
    {
      "hash": "0xd1c5d66d8b7b3f306a6d933022980ad17365cdf783c8012f91c99bb907842929",
      "blockHash": "0x9176014c83dcda50f691e4f43fc735924b14d445f93d43e0a32c1aea93e95100",
      "blockNumber": 89763,
      "transactionIndex": 8,
      "confirmations": null,
      "from": "0xe6A7a1d47ff21B6321162AEA7C6CB457D5476Bca",
      "gasPrice": {
        "_hex": "0xce70f0fc1"
      },
      "gasLimit": {
        "_hex": "0x55f0"
      },
      "to": "0x0f36D8B9254f1B059d0B4c4FeEceB82EE24a6180",
      "value": {
        "_hex": "0xf11e12e80b383a4"
      },
      "nonce": 1947,
      "data": "0x",
      "r": "0xb5f87b74a6b7cb11eedad7bd96c679fd923fbbce26f46b7465b375a7f1ad63ec",
      "s": "0x235adf7e730969af0e344d520deb909c0c772d0d058ed7b66b4425ba5a1a3790",
      "v": 28,
      "creates": null,
      "raw": "0xf86e82079b850ce70f0fc18255f0940f36d8b9254f1b059d0b4c4feeceb82ee24a6180880f11e12e80b383a4801ca0b5f87b74a6b7cb11eedad7bd96c679fd923fbbce26f46b7465b375a7f1ad63eca0235adf7e730969af0e344d520deb909c0c772d0d058ed7b66b4425ba5a1a3790",
      "networkId": 0,
      "chainId": 0
    },
    {
      "hash": "0xea8f839c80211cd26138dca02dcea2175147ce27177e4953b951cc4f1ec3a648",
      "blockHash": "0x9176014c83dcda50f691e4f43fc735924b14d445f93d43e0a32c1aea93e95100",
      "blockNumber": 89763,
      "transactionIndex": 9,
      "confirmations": null,
      "from": "0xe6A7a1d47ff21B6321162AEA7C6CB457D5476Bca",
      "gasPrice": {
        "_hex": "0xce70f0fc1"
      },
      "gasLimit": {
        "_hex": "0x55f0"
      },
      "to": "0xE35453eef2cC3C7A044D0aC134ba615908FA82EE",
      "value": {
        "_hex": "0xf8975baa65dfe0c"
      },
      "nonce": 1948,
      "data": "0x",
      "r": "0xda047fe5b6ab12d84d1c67d62d50b3d392f9cccb2ae686dc37af6a9b9ddc7608",
      "s": "0x0f2037b4557a1755a8fea099c6c87deb3aa53a9c8c093137ea0f5eca0d254758",
      "v": 28,
      "creates": null,
      "raw": "0xf86e82079c850ce70f0fc18255f094e35453eef2cc3c7a044d0ac134ba615908fa82ee880f8975baa65dfe0c801ca0da047fe5b6ab12d84d1c67d62d50b3d392f9cccb2ae686dc37af6a9b9ddc7608a00f2037b4557a1755a8fea099c6c87deb3aa53a9c8c093137ea0f5eca0d254758",
      "networkId": 0,
      "chainId": 0
    },
    {
      "hash": "0x5bb4eaf45a259974805bd55a235870b772af24de663f189314dfb24244a525cf",
      "blockHash": "0x9176014c83dcda50f691e4f43fc735924b14d445f93d43e0a32c1aea93e95100",
      "blockNumber": 89763,
      "transactionIndex": 10,
      "confirmations": null,
      "from": "0xe6A7a1d47ff21B6321162AEA7C6CB457D5476Bca",
      "gasPrice": {
        "_hex": "0xce70f0fc1"
      },
      "gasLimit": {
        "_hex": "0x55f0"
      },
      "to": "0x59dF0302930Fc09BDf428D5467D862A9C73b2830",
      "value": {
        "_hex": "0xf99b62e68bf3268"
      },
      "nonce": 1949,
      "data": "0x",
      "r": "0x466b8ac6c23df8c4a91368a626023b6dc0969efc1c55a16f17da40f29346ae13",
      "s": "0x563989e4160cbfe656f41df237a47185a5cf4af8d02a2e33329cdcf76abefa95",
      "v": 27,
      "creates": null,
      "raw": "0xf86e82079d850ce70f0fc18255f09459df0302930fc09bdf428d5467d862a9c73b2830880f99b62e68bf3268801ba0466b8ac6c23df8c4a91368a626023b6dc0969efc1c55a16f17da40f29346ae13a0563989e4160cbfe656f41df237a47185a5cf4af8d02a2e33329cdcf76abefa95",
      "networkId": 0,
      "chainId": 0
    },
    {
      "hash": "0xfdd67acb726514fab969f4abf958776e74b7a36e3921a5a0dc9b70fb1ba40717",
      "blockHash": "0x9176014c83dcda50f691e4f43fc735924b14d445f93d43e0a32c1aea93e95100",
      "blockNumber": 89763,
      "transactionIndex": 11,
      "confirmations": null,
      "from": "0xe6A7a1d47ff21B6321162AEA7C6CB457D5476Bca",
      "gasPrice": {
        "_hex": "0xce70f0fc1"
      },
      "gasLimit": {
        "_hex": "0x55f0"
      },
      "to": "0x9d88E17eDBa82e040A01464620B222A189a65D0D",
      "value": {
        "_hex": "0xfbad99b52b18aa0"
      },
      "nonce": 1950,
      "data": "0x",
      "r": "0xe640ee05f4c8c75e887548de84ffa4433ca099806d9d48f31b40ecc72b2794bf",
      "s": "0x2439f0aff938c51213b4008ddc6535b4970ebba142d2da46d07ccf54acc053d8",
      "v": 28,
      "creates": null,
      "raw": "0xf86e82079e850ce70f0fc18255f0949d88e17edba82e040a01464620b222a189a65d0d880fbad99b52b18aa0801ca0e640ee05f4c8c75e887548de84ffa4433ca099806d9d48f31b40ecc72b2794bfa02439f0aff938c51213b4008ddc6535b4970ebba142d2da46d07ccf54acc053d8",
      "networkId": 0,
      "chainId": 0
    },
    {
      "hash": "0x66959bbca1de9e91e2829773347ffc597cb33086ba4d3949a4718372998681ae",
      "blockHash": "0x9176014c83dcda50f691e4f43fc735924b14d445f93d43e0a32c1aea93e95100",
      "blockNumber": 89763,
      "transactionIndex": 12,
      "confirmations": null,
      "from": "0xe6A7a1d47ff21B6321162AEA7C6CB457D5476Bca",
      "gasPrice": {
        "_hex": "0xce70f0fc1"
      },
      "gasLimit": {
        "_hex": "0x55f0"
      },
      "to": "0x9653c9859b18f8777Fe4eEc9a67c9F64F3D6F62a",
      "value": {
        "_hex": "0xfbe0d5effe39e6c"
      },
      "nonce": 1951,
      "data": "0x",
      "r": "0xd501d73b563601476f2dfab986934d02a34214cd3aab07ba89556f62052116c4",
      "s": "0x7652651c094a6b615bdea4d2a62552108f372c2f34694d875aea5d12891b254c",
      "v": 28,
      "creates": null,
      "raw": "0xf86e82079f850ce70f0fc18255f0949653c9859b18f8777fe4eec9a67c9f64f3d6f62a880fbe0d5effe39e6c801ca0d501d73b563601476f2dfab986934d02a34214cd3aab07ba89556f62052116c4a07652651c094a6b615bdea4d2a62552108f372c2f34694d875aea5d12891b254c",
      "networkId": 0,
      "chainId": 0
    }
  ]
}