{
  "hash": "0xd66bba47adb9b480dd1d9d30fb1d943fa9c65de8513a453b39f4083e238da70b",
  "parentHash": "0x797f37e61c394d721b97adcf3f16d0c53a46207d76ea7a8c0a7ccaaee4281a5c",
  "number": 55366,
  "timestamp": 1439069496,
  "nonce": "0x57058e1cf29cb120",
  "difficulty": 1629017276003,
  "gasLimit": {
    "_hex": "0x2fefd8"
  },
  "gasUsed": {
    "_hex": "0x147cf"
  },
  "miner": "0x785ffdDd5cE55c6DF963f345e68d3F2024E5Acb1",
  "extraData": "0x476574682f4d69676e6f7474652f76312e302e312f6c696e75782f676f312e34",
  "transactions": [
    {
      "hash": "0x0bb2888ffd86abb828af2f9f1ee3c70992d19e25160cac228bbf2c3f84644bf6",
      "blockHash": "0xd66bba47adb9b480dd1d9d30fb1d943fa9c65de8513a453b39f4083e238da70b",
      "blockNumber": 55366,
      "transactionIndex": 0,
      "confirmations": null,
      "from": "0x073f70b5bfAde6409E4951EF72BC8F4157677729",
      "gasPrice": {
        "_hex": "0xd69b48315"
      },
      "gasLimit": {
        "_hex": "0x186a0"
      },
      "to": "0xF6bF0eE51FE0ee92500bB22295382E9241eC3b5C",
      "value": {
        "_hex": "0x2c68af0bb140000"
      },
      "nonce": 3,
      "data": "0xe54232743539393434373161626230313131326166636331383135396636636337346200",
      "r": "0xe4332ccba94cf2066d5bd6bc0615dd629a9cb131220066aabaa48883701d3cee",
      "s": "0x7232db65241884d4e073108b901440bec290c324d5b015f90ffe3fe44b59aa4a",
      "v": 27,
      "creates": null,
      "raw": "0xf89103850d69b48315830186a094f6bf0ee51fe0ee92500bb22295382e9241ec3b5c8802c68af0bb140000a4e542327435393934343731616262303131313261666363313831353966366363373462001ba0e4332ccba94cf2066d5bd6bc0615dd629a9cb131220066aabaa48883701d3ceea07232db65241884d4e073108b901440bec290c324d5b015f90ffe3fe44b59aa4a",
      "networkId": 0,
      "chainId": 0
    }
  ]
}