{
  "hash": "0xdddb713244ccf6af2c69688a10c27d235a58b3f2bf5a9681b245828cdf88aee7",
  "parentHash": "0xa846c3e5cf009a0dde772247fdb35c20c3da32c6a3edb17aac520c3e5a492162",
  "number": 47961,
  "timestamp": 1438948984,
  "nonce": "0xfa0eeb06d0a7e19d",
  "difficulty": 1462245038665,
  "gasLimit": {
    "_hex": "0x10e56"
  },
  "gasUsed": {
    "_hex": "0x546c"
  },
  "miner": "0xbb7B8287f3F0a933474a79eAe42CBCa977791171",
  "extraData": "0x476574682f4c5649562f76312e302e312f6c696e75782f676f312e342e32",
  "transactions": [
    {
      "hash": "0xdb43f6dacedf53e3efaba1333369cd302437270804536855842a7fc167f4b0ed",
      "blockHash": "0xdddb713244ccf6af2c69688a10c27d235a58b3f2bf5a9681b245828cdf88aee7",
      "blockNumber": 47961,
      "transactionIndex": 0,
      "confirmations": null,
      "from": "0x5102A4a42077e11C58df4773e3Ac944623A66d9f",
      "gasPrice": {
        "_hex": "0x110c3dcec05"
      },
      "gasLimit": {
        "_hex": "0x59d8"
      },
      "to": "0x2910543Af39abA0Cd09dBb2D50200b3E800A63D2",
      "value": {
        "_hex": "0x2a1129d09367200000"
      },
      "nonce": 9,
      "data": "0x454e3543484a4a3738",
      "r": "0xcf9deccf9272559e526308b9e408a2346d93b6e7e4ce71f2ae9cbc41b37249ae",
      "s": "0x3df673c5e3417a95630a6b8024bfb58cb05b5971aee9a03884d7074be67680b5",
      "v": 28,
      "creates": null,
      "raw": "0xf87709860110c3dcec058259d8942910543af39aba0cd09dbb2d50200b3e800a63d2892a1129d0936720000089454e3543484a4a37381ca0cf9deccf9272559e526308b9e408a2346d93b6e7e4ce71f2ae9cbc41b37249aea03df673c5e3417a95630a6b8024bfb58cb05b5971aee9a03884d7074be67680b5",
      "networkId": 0,
      "chainId": 0
    }
  ]
}