{
  "hash": "0x45c0dcb9d65173bf6d8fba9b921eba64650a720d309795128c13137a79031324",
  "parentHash": "0xfc3b81c3e732be73840068d91ed8ed93a27f406b293cc0d5db4f480ac98a9217",
  "number": 49598,
  "timestamp": 1438976072,
  "nonce": "0xde7d3124a7874fa0",
  "difficulty": 1474145630866,
  "gasLimit": {
    "_hex": "0x36bab"
  },
  "gasUsed": {
    "_hex": "0x546c"
  },
  "miner": "0xbb7B8287f3F0a933474a79eAe42CBCa977791171",
  "extraData": "0x476574682f4c5649562f76312e302e312f6c696e75782f676f312e342e32",
  "transactions": [
    {
      "hash": "0x63881f20be8a93d04a11f27ff35f09d2906a454cd7fac4f43e2a82923e6181ce",
      "blockHash": "0x45c0dcb9d65173bf6d8fba9b921eba64650a720d309795128c13137a79031324",
      "blockNumber": 49598,
      "transactionIndex": 0,
      "confirmations": null,
      "from": "0xdf3b72c5bD71d4814e88A62321a93D4011E3578B",
      "gasPrice": {
        "_hex": "0xd3710221b"
      },
      "gasLimit": {
        "_hex": "0x61a8"
      },
      "to": "0x2910543Af39abA0Cd09dBb2D50200b3E800A63D2",
      "value": {
        "_hex": "0xde0b6b3a7640000"
      },
      "nonce": 0,
      "data": "0x454e434a4e38375247",
      "r": "0x020843e5f968f935aaa286e52207e66b35d6ca405235d47c33419fddb8215ed4",
      "s": "0x37a1737396b3b8337765f67c510e29ed398ebdaee64f98114049ff3f41309b9f",
      "v": 27,
      "creates": null,
      "raw": "0xf87580850d3710221b8261a8942910543af39aba0cd09dbb2d50200b3e800a63d2880de0b6b3a764000089454e434a4e383752471ba0020843e5f968f935aaa286e52207e66b35d6ca405235d47c33419fddb8215ed4a037a1737396b3b8337765f67c510e29ed398ebdaee64f98114049ff3f41309b9f",
      "networkId": 0,
      "chainId": 0
    }
  ]
}