{
  "hash": "0xdbc3282ba8472de13e01f30b077958b8fa398bd4d8c3e67aadaeb71393c9040b",
  "parentHash": "0xef5dc02f9e73ace1d1478ef9232717bf085062c35126498bb15f045730138499",
  "number": 49800,
  "timestamp": 1438979345,
  "nonce": "0x6df7def195ef1384",
  "difficulty": 1492943719922,
  "gasLimit": {
    "_hex": "0x3fe7c"
  },
  "gasUsed": {
    "_hex": "0x5208"
  },
  "miner": "0x55bAf64fc9eAccFFd7Cc643BB61142E1C6ac093e",
  "extraData": "0x",
  "transactions": [
    {
      "hash": "0x57bf5784d7886d94e18e91804e4c01a8dc6063da81d2dc1a1648e3e492341616",
      "blockHash": "0xdbc3282ba8472de13e01f30b077958b8fa398bd4d8c3e67aadaeb71393c9040b",
      "blockNumber": 49800,
      "transactionIndex": 0,
      "confirmations": null,
      "from": "0x1fb7bd310D95f2A6d9BaAf8a8A430A9A04453A8B",
      "gasPrice": {
        "_hex": "0xd37418621"
      },
      "gasLimit": {
        "_hex": "0x15f90"
      },
      "to": "0xb5AEf1DE312925438C00d12FCa19C8d8A99e3D1e",
      "value": {
        "_hex": "0x35ab028ac154b80000"
      },
      "nonce": 1,
      "data": "0x",
      "r": "0x1193d20a34680f9bd2c115d201c373e45034d6cc421944671170b7af68e83a9f",
      "s": "0x214edf072c495dac86f5765d96e12a7d86fa028c9f8d3739d0730e069c8b86ae",
      "v": 27,
      "creates": null,
      "raw": "0xf86e01850d3741862183015f9094b5aef1de312925438c00d12fca19c8d8a99e3d1e8935ab028ac154b80000801ba01193d20a34680f9bd2c115d201c373e45034d6cc421944671170b7af68e83a9fa0214edf072c495dac86f5765d96e12a7d86fa028c9f8d3739d0730e069c8b86ae",
      "networkId": 0,
      "chainId": 0
    }
  ]
}