{
  "hash": "0xb2ab26b4a14323638279e5969055488d8b80193f82e7cbc6c84ad6cd8a8a4dbb",
  "parentHash": "0x35f5bbbbd48fb4c01b7c766c9920258132a6e0438487c2c27c8fb67529967ac4",
  "number": 119412,
  "timestamp": 1440142437,
  "nonce": "0xbb0c365b68a80421",
  "difficulty": 4398742468351,
  "gasLimit": {
    "_hex": "0x2fefd8"
  },
  "gasUsed": {
    "_hex": "0x14820"
  },
  "miner": "0xe6A7a1d47ff21B6321162AEA7C6CB457D5476Bca",
  "extraData": "0xd783010002844765746887676f312e342e32856c696e7578",
  "transactions": [
    {
      "hash": "0x34b8c3a789fa5d3ba077647b2d7363b3a23ec4c320daef7be74ffcb084833c09",
      "blockHash": "0xb2ab26b4a14323638279e5969055488d8b80193f82e7cbc6c84ad6cd8a8a4dbb",
      "blockNumber": 119412,
      "transactionIndex": 0,
      "confirmations": null,
      "from": "0x0f36D8B9254f1B059d0B4c4FeEceB82EE24a6180",
      "gasPrice": {
        "_hex": "0xba43b7400"
      },
      "gasLimit": {
        "_hex": "0x5208"
      },
      "to": "0x32Be343B94f860124dC4fEe278FDCBD38C102D88",
      "value": {
        "_hex": "0x12af3efaaea71800"
      },
      "nonce": 7,
      "data": "0x",
      "r": "0xec789b805bfda0f6dde42cc54539c123e49c70d4916cf7a69d6caa5ee39c27fc",
      "s": "0x5bfc34c45007f53dd6879f4d1ce490343df47d98f82a322f16b4826f46636fd2",
      "v": 27,
      "creates": null,
      "raw": "0xf86c07850ba43b74008252089432be343b94f860124dc4fee278fdcbd38c102d888812af3efaaea71800801ba0ec789b805bfda0f6dde42cc54539c123e49c70d4916cf7a69d6caa5ee39c27fca05bfc34c45007f53dd6879f4d1ce490343df47d98f82a322f16b4826f46636fd2",
      "networkId": 0,
      "chainId": 0
    },
    {
      "hash": "0x8aa1d16cf51bb59ce34c96f087b6bf5fb49033fbfeaf95d883a0ffcb138eb674",
      "blockHash": "0xb2ab26b4a14323638279e5969055488d8b80193f82e7cbc6c84ad6cd8a8a4dbb",
      "blockNumber": 119412,
      "transactionIndex": 1,
      "confirmations": null,
      "from": "0x5c34E9095588400B7CFF963daa495eFbEFCa083E",
      "gasPrice": {
        "_hex": "0xba43b7400"
      },
      "gasLimit": {
        "_hex": "0x5208"
      },
      "to": "0x32Be343B94f860124dC4fEe278FDCBD38C102D88",
      "value": {
        "_hex": "0x19e283f41311d000"
      },
      "nonce": 8,
      "data": "0x",
      "r": "0x7112e97781f9aa0f2728acf0278c844653eb3b6f69c77380d1dd183368d129b9",
      "s": "0x4355d0548ebc2e57378a8cf82d7d2e73a47c84a7a832420e50085db676c027dd",
      "v": 28,
      "creates": null,
      "raw": "0xf86c08850ba43b74008252089432be343b94f860124dc4fee278fdcbd38c102d888819e283f41311d000801ca07112e97781f9aa0f2728acf0278c844653eb3b6f69c77380d1dd183368d129b9a04355d0548ebc2e57378a8cf82d7d2e73a47c84a7a832420e50085db676c027dd",
      "networkId": 0,
      "chainId": 0
    },
    {
      "hash": "0x079acf0d5d9dfd672c7a9f9465d75816dd41e1df6edd170b757a397d4cf252d2",
      "blockHash": "0xb2ab26b4a14323638279e5969055488d8b80193f82e7cbc6c84ad6cd8a8a4dbb",
      "blockNumber": 119412,
      "transactionIndex": 2,
      "confirmations": null,
      "from": "0x04a6c6a293340Fc3f2244D097b0CFD84d5317bA5",
      "gasPrice": {
        "_hex": "0xba43b7400"
      },
      "gasLimit": {
        "_hex": "0x5208"
      },
      "to": "0x32Be343B94f860124dC4fEe278FDCBD38C102D88",
      "value": {
        "_hex": "0xf869b7a1e9bf6800"
      },
      "nonce": 9,
      "data": "0x",
      "r": "0xc8c7e7c8ac053cbc946796a113f01e18d82c09048bdf7b8c8a30f8257abfa158",
      "s": "0x7679e3190dd7d68da00de818b347a0a8a19bab9fbf17da350c4df3ab80a5b0d3",
      "v": 28,
      "creates": null,
      "raw": "0xf86c09850ba43b74008252089432be343b94f860124dc4fee278fdcbd38c102d8888f869b7a1e9bf6800801ca0c8c7e7c8ac053cbc946796a113f01e18d82c09048bdf7b8c8a30f8257abfa158a07679e3190dd7d68da00de818b347a0a8a19bab9fbf17da350c4df3ab80a5b0d3",
      "networkId": 0,
      "chainId": 0
    },
    {
      "hash": "0xd6fffacf5fd245a1cbd9be4595792b0c0bb5f74f594d5cbf8931d950cca0c1b7",
      "blockHash": "0xb2ab26b4a14323638279e5969055488d8b80193f82e7cbc6c84ad6cd8a8a4dbb",
      "blockNumber": 119412,
      "transactionIndex": 3,
      "confirmations": null,
      "from": "0xA10DcDc99cF571e66c6Af1F1175a15686C4C6800",
      "gasPrice": {
        "_hex": "0xba43b7400"
      },
      "gasLimit": {
        "_hex": "0x5208"
      },
      "to": "0x32Be343B94f860124dC4fEe278FDCBD38C102D88",
      "value": {
        "_hex": "0x195d783ffcb0b000"
      },
      "nonce": 8,
      "data": "0x",
      "r": "0x5f6639033036b9150c0d35882605fb10386caf61d879b6723cc08dd14857cc39",
      "s": "0x0684e42d71d5c661eb04b75a16390c7ceabc8a5424400296f7415d51ea5c5931",
      "v": 28,
      "creates": null,
      "raw": "0xf86c08850ba43b74008252089432be343b94f860124dc4fee278fdcbd38c102d8888195d783ffcb0b000801ca05f6639033036b9150c0d35882605fb10386caf61d879b6723cc08dd14857cc39a00684e42d71d5c661eb04b75a16390c7ceabc8a5424400296f7415d51ea5c5931",
      "networkId": 0,
      "chainId": 0
    }
  ]
}