{
  "hash": "0x5dafe5bc941f5f27efa968b59d542aa3295cf799e18153f68977020f273cf521",
  "parentHash": "0xbcbda8283c4b165e4d62f3e433af732ae873fb180b1fa1cc9a90b04ec1e2b32e",
  "number": 119457,
  "timestamp": 1440143437,
  "nonce": "0xf94cf3e22f0091c7",
  "difficulty": 4383709851679,
  "gasLimit": {
    "_hex": "0x2fefd8"
  },
  "gasUsed": {
    "_hex": "0x14820"
  },
  "miner": "0x88D74a59454F6cF3B51ef6b9136AFb6b9D405A88",
  "extraData": "0x",
  "transactions": [
    {
      "hash": "0xd74f9d26ad86fddb5bca68f20ba11dafe42c48762935c64aed21dfa338cdbfa8",
      "blockHash": "0x5dafe5bc941f5f27efa968b59d542aa3295cf799e18153f68977020f273cf521",
      "blockNumber": 119457,
      "transactionIndex": 0,
      "confirmations": null,
      "from": "0x4eC3C2a5775FBF9A1B95b594211a0Dc63f45D5be",
      "gasPrice": {
        "_hex": "0xba43b7400"
      },
      "gasLimit": {
        "_hex": "0x5208"
      },
      "to": "0x32Be343B94f860124dC4fEe278FDCBD38C102D88",
      "value": {
        "_hex": "0x4d5986930df25800"
      },
      "nonce": 0,
      "data": "0x",
      "r": "0x81dd15aa90de5703d0174177dac7172fd074289cf7f53b966519af788115a387",
      "s": "0x64927472b7e787b54983c2b2d78e62f59b1499317c50dd20d6713f7ec4e1a2fc",
      "v": 28,
      "creates": null,
      "raw": "0xf86c80850ba43b74008252089432be343b94f860124dc4fee278fdcbd38c102d88884d5986930df25800801ca081dd15aa90de5703d0174177dac7172fd074289cf7f53b966519af788115a387a064927472b7e787b54983c2b2d78e62f59b1499317c50dd20d6713f7ec4e1a2fc",
      "networkId": 0,
      "chainId": 0
    },
    {
      "hash": "0xf4c06b75aa142c3e584e5d9c21b1ed7a68c7878b1c6a03f2481592bf03119c7b",
      "blockHash": "0x5dafe5bc941f5f27efa968b59d542aa3295cf799e18153f68977020f273cf521",
      "blockNumber": 119457,
      "transactionIndex": 1,
      "confirmations": null,
      "from": "0x233b4fC39b20bb5eCf29882D7F068544BCc5eB78",
      "gasPrice": {
        "_hex": "0xba43b7400"
      },
      "gasLimit": {
        "_hex": "0x5208"
      },
      "to": "0x32Be343B94f860124dC4fEe278FDCBD38C102D88",
      "value": {
        "_hex": "0x8e588ceccc0ed800"
      },
      "nonce": 9,
      "data": "0x",
      "r": "0x16b2550bb6eb1ba825e4a4f74eb2b968b746da0b07d93d9d4b8eb5473345445f",
      "s": "0x41526ff60793d5797293e75272f80f6c1b2e33a91b8edda88cc68c66e27bfa82",
      "v": 28,
      "creates": null,
      "raw": "0xf86c09850ba43b74008252089432be343b94f860124dc4fee278fdcbd38c102d88888e588ceccc0ed800801ca016b2550bb6eb1ba825e4a4f74eb2b968b746da0b07d93d9d4b8eb5473345445fa041526ff60793d5797293e75272f80f6c1b2e33a91b8edda88cc68c66e27bfa82",
      "networkId": 0,
      "chainId": 0
    },
    {
      "hash": "0x0ec550f21eb46f9c7b53accf09102231588768f2b5289ac46c3ad96a0af8247d",
      "blockHash": "0x5dafe5bc941f5f27efa968b59d542aa3295cf799e18153f68977020f273cf521",
      "blockNumber": 119457,
      "transactionIndex": 2,
      "confirmations": null,
      "from": "0x1151790FE5F7C3113dfb07Dc3914B1916EcC8a7A",
      "gasPrice": {
        "_hex": "0xba43b7400"
      },
      "gasLimit": {
        "_hex": "0x5208"
      },
      "to": "0x32Be343B94f860124dC4fEe278FDCBD38C102D88",
      "value": {
        "_hex": "0x14df1a8e85f2e000"
      },
      "nonce": 9,
      "data": "0x",
      "r": "0x77d8c5ef4e89614877a636cd9712d8c716d478aaaa98a85720e34b4caefd55c0",
      "s": "0x3ccef65b9854b347711380eb2210ba081c7ea443520562011cf4fa3657c33b1e",
      "v": 27,
      "creates": null,
      "raw": "0xf86c09850ba43b74008252089432be343b94f860124dc4fee278fdcbd38c102d888814df1a8e85f2e000801ba077d8c5ef4e89614877a636cd9712d8c716d478aaaa98a85720e34b4caefd55c0a03ccef65b9854b347711380eb2210ba081c7ea443520562011cf4fa3657c33b1e",
      "networkId": 0,
      "chainId": 0
    },
    {
      "hash": "0x23c7b4961948115002ab2728215fa84afd5efbc9ffdaf826dacd46a3f84c8df2",
      "blockHash": "0x5dafe5bc941f5f27efa968b59d542aa3295cf799e18153f68977020f273cf521",
      "blockNumber": 119457,
      "transactionIndex": 3,
      "confirmations": null,
      "from": "0x833ef381A23744E510a302c665a63D41ba0E28DB",
      "gasPrice": {
        "_hex": "0xba43b7400"
      },
      "gasLimit": {
        "_hex": "0x5208"
      },
      "to": "0x32Be343B94f860124dC4fEe278FDCBD38C102D88",
      "value": {
        "_hex": "0x18d4c13abd3bb400"
      },
      "nonce": 7,
      "data": "0x",
      "r": "0x5cdd3156ebabdf96523d5537a591611db1eee3da18c42ecd90c6d83a449832e7",
      "s": "0x5b5cc91889ef24efc902e0c8601c0b20cd398af709abe3f450bbc2a5a74ce47b",
      "v": 27,
      "creates": null,
      "raw": "0xf86c07850ba43b74008252089432be343b94f860124dc4fee278fdcbd38c102d888818d4c13abd3bb400801ba05cdd3156ebabdf96523d5537a591611db1eee3da18c42ecd90c6d83a449832e7a05b5cc91889ef24efc902e0c8601c0b20cd398af709abe3f450bbc2a5a74ce47b",
      "networkId": 0,
      "chainId": 0
    }
  ]
}