{
  "hash": "0x4662d23004814c3271d3649e311cdf6a1e4db7c77b0a4f15100e20004fb014a8",
  "parentHash": "0x02aa7c8917cfc56661f15ad54a33a37dbbadcf01dacecc702669f3d41f082966",
  "number": 52511,
  "timestamp": 1439022768,
  "nonce": "0x6aa3a908da77c915",
  "difficulty": 1567909268222,
  "gasLimit": {
    "_hex": "0x14bd8d"
  },
  "gasUsed": {
    "_hex": "0x5208"
  },
  "miner": "0xbcB2E3693d246E1fc00348754334BadEb88b2a11",
  "extraData": "0x476574682f76312e302e302f6c696e75782f676f312e342e32",
  "transactions": [
    {
      "hash": "0x4ca24eaae13267769e518e19c15c00d0a08a084973a64921ad677cffc847a8b8",
      "blockHash": "0x4662d23004814c3271d3649e311cdf6a1e4db7c77b0a4f15100e20004fb014a8",
      "blockNumber": 52511,
      "transactionIndex": 0,
      "confirmations": null,
      "from": "0xAE842210f44D14C4a4db91fc9D3B3b50014f7Bf7",
      "gasPrice": {
        "_hex": "0x10dc90d85e7"
      },
      "gasLimit": {
        "_hex": "0x15f90"
      },
      "to": "0xc8b25f8890816e7F491d8EE02BA8b4548c73D3A4",
      "value": {
        "_hex": "0x3635c9adc5dea00000"
      },
      "nonce": 3,
      "data": "0x",
      "r": "0xb466eb53162b96e90418347696ca9e3d31ab1abddeed844dcb89bd6456e58164",
      "s": "0x3cda98d454853392972478a520e03b463278e4a0fcc97d956f3142044e235bd9",
      "v": 28,
      "creates": null,
      "raw": "0xf86f0386010dc90d85e783015f9094c8b25f8890816e7f491d8ee02ba8b4548c73d3a4893635c9adc5dea00000801ca0b466eb53162b96e90418347696ca9e3d31ab1abddeed844dcb89bd6456e58164a03cda98d454853392972478a520e03b463278e4a0fcc97d956f3142044e235bd9",
      "networkId": 0,
      "chainId": 0
    }
  ]
}