{
  "hash": "0x2734fa579c5305ed494666911b50a7f760d0bfb0e179a0e957644ac9163f1839",
  "parentHash": "0x10414ed14d3a2e0ca00e1438cbbf185a2da22f119a8588744c3325d7897638d3",
  "number": 75027,
  "timestamp": 1439396483,
  "nonce": "0xe651401e1f41df01",
  "difficulty": 2183749471188,
  "gasLimit": {
    "_hex": "0x2fefd8"
  },
  "gasUsed": {
    "_hex": "0x5208"
  },
  "miner": "0x3DfCf2bF579C831a03379a140b74f884e49CaFf3",
  "extraData": "0x",
  "transactions": [
    {
      "hash": "0x19d2b02430d901c627e1e2082df211355cc0ec749aacdfb1e48a880a0c1ebed3",
      "blockHash": "0x2734fa579c5305ed494666911b50a7f760d0bfb0e179a0e957644ac9163f1839",
      "blockNumber": 75027,
      "transactionIndex": 0,
      "confirmations": null,
      "from": "0xC6c676946C54B5e7c31A07a079166C488Bf06dd7",
      "gasPrice": {
        "_hex": "0xd85e07d68"
      },
      "gasLimit": {
        "_hex": "0x5208"
      },
      "to": "0x32Be343B94f860124dC4fEe278FDCBD38C102D88",
      "value": {
        "_hex": "0x4633b7d6cecb180000"
      },
      "nonce": 1,
      "data": "0x",
      "r": "0xaded123bd22e2f7fa00d2d5ff9f2fe29a9f73f0e2a31958fe2b06c5f23adfb6d",
      "s": "0x7a59ea1df95c30ad3be70efbf5735a9ea17800e5c9f7a613bfdf7f65ff3fa56f",
      "v": 28,
      "creates": null,
      "raw": "0xf86d01850d85e07d688252089432be343b94f860124dc4fee278fdcbd38c102d88894633b7d6cecb180000801ca0aded123bd22e2f7fa00d2d5ff9f2fe29a9f73f0e2a31958fe2b06c5f23adfb6da07a59ea1df95c30ad3be70efbf5735a9ea17800e5c9f7a613bfdf7f65ff3fa56f",
      "networkId": 0,
      "chainId": 0
    }
  ]
}