{
  "hash": "0xbb8cf2c1564e3cd581cab6d4645ed78f5b9d62f4788d4e859cecee4b20b36172",
  "parentHash": "0xeb51bae8a005b34ff3de626cf69bba53e8f747255c5b9f3fea588f6b58a4a126",
  "number": 76410,
  "timestamp": 1439420093,
  "nonce": "0x8e1a97b1a2cba96e",
  "difficulty": 2223193957483,
  "gasLimit": {
    "_hex": "0x2fefd8"
  },
  "gasUsed": {
    "_hex": "0x1847e"
  },
  "miner": "0xe6A7a1d47ff21B6321162AEA7C6CB457D5476Bca",
  "extraData": "0x476574682f76312e302e312d38326566323666362f6c696e75782f676f312e34",
  "transactions": [
    {
      "hash": "0x8eb56e2177bae6873e40d698ba8ad4459bf3e197859d9f6165569f6430a72478",
      "blockHash": "0xbb8cf2c1564e3cd581cab6d4645ed78f5b9d62f4788d4e859cecee4b20b36172",
      "blockNumber": 76410,
      "transactionIndex": 0,
      "confirmations": null,
      "from": "0x84505745115a8C041C0c4A7F9d3Ca52a5bf375f4",
      "gasPrice": {
        "_hex": "0x1065135712e"
      },
      "gasLimit": {
        "_hex": "0x493e0"
      },
      "to": "0x35E57F2b08596f1946ECD9D31975eC3c2D7e1C1D",
      "value": {
        "_hex": "0x0"
      },
      "nonce": 8,
      "data": "0x0bf9451200000000000000000000000000000000000000000000000000000003c46c64af",
      "r": "0x281c912001154bfcb2ae1d08842c48e675496e9e50f3d60519029117b799b1b2",
      "s": "0x63851a270656f083a14f48d522b9cb666c98187e0a10d002bf113d5304bbbb8e",
      "v": 28,
      "creates": null,
      "raw": "0xf88a088601065135712e830493e09435e57f2b08596f1946ecd9d31975ec3c2d7e1c1d80a40bf9451200000000000000000000000000000000000000000000000000000003c46c64af1ca0281c912001154bfcb2ae1d08842c48e675496e9e50f3d60519029117b799b1b2a063851a270656f083a14f48d522b9cb666c98187e0a10d002bf113d5304bbbb8e",
      "networkId": 0,
      "chainId": 0
    },
    {
      "hash": "0x7baa5dfff4b9ada5f2bf72db77c7dd2403c6a4aa412f8c99587cc6aff5543029",
      "blockHash": "0xbb8cf2c1564e3cd581cab6d4645ed78f5b9d62f4788d4e859cecee4b20b36172",
      "blockNumber": 76410,
      "transactionIndex": 1,
      "confirmations": null,
      "from": "0x84505745115a8C041C0c4A7F9d3Ca52a5bf375f4",
      "gasPrice": {
        "_hex": "0x1065135712e"
      },
      "gasLimit": {
        "_hex": "0x493e0"
      },
      "to": "0x35E57F2b08596f1946ECD9D31975eC3c2D7e1C1D",
      "value": {
        "_hex": "0x0"
      },
      "nonce": 9,
      "data": "0x0bf945120000000000000000000000000000000000000000000000000000000000001b41",
      "r": "0x0e10e92cedd8496b8571fe26bdf5e531fcbee49dc020b64c25d6bd3b1d399ec3",
      "s": "0x2aecf565be966ae88fda9f6d7d15d8ebf17f82964b23bf5bd69eef2a4992d60c",
      "v": 27,
      "creates": null,
      "raw": "0xf88a098601065135712e830493e09435e57f2b08596f1946ecd9d31975ec3c2d7e1c1d80a40bf945120000000000000000000000000000000000000000000000000000000000001b411ba00e10e92cedd8496b8571fe26bdf5e531fcbee49dc020b64c25d6bd3b1d399ec3a02aecf565be966ae88fda9f6d7d15d8ebf17f82964b23bf5bd69eef2a4992d60c",
      "networkId": 0,
      "chainId": 0
    },
    {
      "hash": "0x569569ff8b4f7c05896fae47cb3b677fe29de9b5cc7bcf0d419223b638839ca4",
      "blockHash": "0xbb8cf2c1564e3cd581cab6d4645ed78f5b9d62f4788d4e859cecee4b20b36172",
      "blockNumber": 76410,
      "transactionIndex": 2,
      "confirmations": null,
      "from": "0x188143c01B67512E0dfc5438A42a904eD8d4AB36",
      "gasPrice": {
        "_hex": "0xd641f460d"
      },
      "gasLimit": {
        "_hex": "0x7530"
      },
      "to": "0x6c716b5177cC5c983057af4D88F7152ebA2CC0a6",
      "value": {
        "_hex": "0x4563918244f40000"
      },
      "nonce": 0,
      "data": "0x",
      "r": "0xa8cdb00577c7733d7e073654014e817e0eec21a92fb7971386c3356a1fb4ea52",
      "s": "0x02d3b31284a13f487d81f426072d331dfdec8c17a2c7e88214e10a5e0989f7ea",
      "v": 28,
      "creates": null,
      "raw": "0xf86c80850d641f460d827530946c716b5177cc5c983057af4d88f7152eba2cc0a6884563918244f40000801ca0a8cdb00577c7733d7e073654014e817e0eec21a92fb7971386c3356a1fb4ea52a002d3b31284a13f487d81f426072d331dfdec8c17a2c7e88214e10a5e0989f7ea",
      "networkId": 0,
      "chainId": 0
    }
  ]
}