{
  "hash": "0x3dff326b1d3db97fd5a74374c4346c4752e1f92d22856871edc703b643f0aa42",
  "parentHash": "0x2efc1e030c26bf5bdad69227083f745eff5b6a895d0e24cc0c2502bab61001d4",
  "number": 103902,
  "timestamp": 1439860732,
  "nonce": "0xbebf5900f03c6229",
  "difficulty": 4254645228247,
  "gasLimit": {
    "_hex": "0x2fefd8"
  },
  "gasUsed": {
    "_hex": "0x5208"
  },
  "miner": "0x33F36DffD23cf019833E1d59cBc7138824b12289",
  "extraData": "0xda8098302e392e34312b2b302d524c696e75782f672b2b2f696e74",
  "transactions": [
    {
      "hash": "0x65eead59419c66a1b2e9a5ca6b0614f8a9ad327c1587a144cd20dbf15b4f9121",
      "blockHash": "0x3dff326b1d3db97fd5a74374c4346c4752e1f92d22856871edc703b643f0aa42",
      "blockNumber": 103902,
      "transactionIndex": 0,
      "confirmations": null,
      "from": "0x32Be343B94f860124dC4fEe278FDCBD38C102D88",
      "gasPrice": {
        "_hex": "0xdd75a4097"
      },
      "gasLimit": {
        "_hex": "0x5208"
      },
      "to": "0x29062F7438d8fa6ac773F453E356A34542b6f2AF",
      "value": {
        "_hex": "0xd8d726b7177a800000"
      },
      "nonce": 1140,
      "data": "0x",
      "r": "0xe0e79ecc1d9fddd7853858d445a76ace4d59f4408ff3585e17052f537781bc4f",
      "s": "0x2dcdfa97b849476ed3c599a0c8c9375312daca5d752fd16eb5e0f58ca8f5ed26",
      "v": 27,
      "creates": null,
      "raw": "0xf86f820474850dd75a40978252089429062f7438d8fa6ac773f453e356a34542b6f2af89d8d726b7177a800000801ba0e0e79ecc1d9fddd7853858d445a76ace4d59f4408ff3585e17052f537781bc4fa02dcdfa97b849476ed3c599a0c8c9375312daca5d752fd16eb5e0f58ca8f5ed26",
      "networkId": 0,
      "chainId": 0
    }
  ]
}