{
  "hash": "0x4d8d2ad1f4ea0e76a9df8f687fab64654af365ae27c9715195d6778060180054",
  "parentHash": "0xa9bef28658c0beb6a15234de7564ca3ec46c0d5d4ccf8a222f2361388188665e",
  "number": 68675,
  "timestamp": 1439291828,
  "nonce": "0xf00a3f5ad2d7aa7d",
  "difficulty": 2017224237317,
  "gasLimit": {
    "_hex": "0x2fefd8"
  },
  "gasUsed": {
    "_hex": "0x5208"
  },
  "miner": "0xB5EDD17d2582A94610ebf0C6832c1652EBBBe210",
  "extraData": "0x476574682f76312e302e312d38326566323666362f6c696e75782f676f312e34",
  "transactions": [
    {
      "hash": "0x4ad2689bd4ebf8a6c3388d62db3f29cf7eeda04d667bb2e2395a78c964428ee4",
      "blockHash": "0x4d8d2ad1f4ea0e76a9df8f687fab64654af365ae27c9715195d6778060180054",
      "blockNumber": 68675,
      "transactionIndex": 0,
      "confirmations": null,
      "from": "0x80DA2FDDa29A9E27F9E115975e69ae9CfBF3f27E",
      "gasPrice": {
        "_hex": "0x746a528800"
      },
      "gasLimit": {
        "_hex": "0x5267"
      },
      "to": "0x117D2945355d346cE6637d6D5CC9A9E46CB43B73",
      "value": {
        "_hex": "0xad747ae75e69e0000"
      },
      "nonce": 0,
      "data": "0x",
      "r": "0xcec42c523791f03b3b921dd1c4723a3d24315f23babf3e4c6d5184a0af07fef9",
      "s": "0x9120137ff734214d198851e913691ae3341ec9008c5ceaef253b6a2ded1217db",
      "v": 28,
      "creates": null,
      "raw": "0xf86d8085746a52880082526794117d2945355d346ce6637d6d5cc9a9e46cb43b73890ad747ae75e69e0000801ca0cec42c523791f03b3b921dd1c4723a3d24315f23babf3e4c6d5184a0af07fef9a09120137ff734214d198851e913691ae3341ec9008c5ceaef253b6a2ded1217db",
      "networkId": 0,
      "chainId": 0
    }
  ]
}