{
  "hash": "0x87bb11e82dab18a44c4fa1045525454c90ad4d36ed5824e1e5f7b7fbeadbd07c",
  "parentHash": "0x5636c65fbee8fb24c6b489648d1fc122b2b3388ef25fad1df40de7e40536c1b0",
  "number": 57336,
  "timestamp": 1439101528,
  "nonce": "0xeb319783c8335c93",
  "difficulty": 1737062073403,
  "gasLimit": {
    "_hex": "0x2fefd8"
  },
  "gasUsed": {
    "_hex": "0x5208"
  },
  "miner": "0xf927a40C8B7F6E07c5af7FA2155B4864a4112B13",
  "extraData": "0x476574682f76312e302e312f6c696e75782f676f312e342e32",
  "transactions": [
    {
      "hash": "0xc47ba29d5cbfba7be4714063d503ba3afd156a2e318b84b5a979b61db5350129",
      "blockHash": "0x87bb11e82dab18a44c4fa1045525454c90ad4d36ed5824e1e5f7b7fbeadbd07c",
      "blockNumber": 57336,
      "transactionIndex": 0,
      "confirmations": null,
      "from": "0x3e0b8ed86ed669E12723AF7572FbacfE829b1e16",
      "gasPrice": {
        "_hex": "0xdb2816147"
      },
      "gasLimit": {
        "_hex": "0x15f90"
      },
      "to": "0x0004B15be8cB573A7be023e203E268DbcFFD302B",
      "value": {
        "_hex": "0x2c68af0bb140000"
      },
      "nonce": 1,
      "data": "0x",
      "r": "0x830e2c8f98e1e5acc204bc80b247f578cdef9b3787a317ce4bc4252c24be5060",
      "s": "0x6bb0821654195498d2bc2a3ca1d64e70f962fcd1827d413d6d25f159cdead1e1",
      "v": 27,
      "creates": null,
      "raw": "0xf86d01850db281614783015f90940004b15be8cb573a7be023e203e268dbcffd302b8802c68af0bb140000801ba0830e2c8f98e1e5acc204bc80b247f578cdef9b3787a317ce4bc4252c24be5060a06bb0821654195498d2bc2a3ca1d64e70f962fcd1827d413d6d25f159cdead1e1",
      "networkId": 0,
      "chainId": 0
    }
  ]
}