{
  "hash": "0x222462d142b1366325221eb7263f59bf882a50789db6f87e3eac50b01842dbdf",
  "parentHash": "0x391909b03f4181a4f302033d8fad4536ff721827fd979d4b69439f10720cec3c",
  "number": 62849,
  "timestamp": 1439195104,
  "nonce": "0xf144bba2d090ed58",
  "difficulty": 1783171450287,
  "gasLimit": {
    "_hex": "0x2fefd8"
  },
  "gasUsed": {
    "_hex": "0x5208"
  },
  "miner": "0x3222BA3F3e79eA0e31467EEE7639B57923558cCD",
  "extraData": "0x",
  "transactions": [
    {
      "hash": "0xbe7e43e99e4f4ceb27985c355a2794f85604de1383730377295296a7c1927be5",
      "blockHash": "0x222462d142b1366325221eb7263f59bf882a50789db6f87e3eac50b01842dbdf",
      "blockNumber": 62849,
      "transactionIndex": 0,
      "confirmations": null,
      "from": "0x120A270bbC009644e35F0bB6ab13f95b8199c4ad",
      "gasPrice": {
        "_hex": "0xd7a900d02"
      },
      "gasLimit": {
        "_hex": "0x15f90"
      },
      "to": "0xd52B311564bB4Ff6e0f8112c2C3E1C3508C2ddbF",
      "value": {
        "_hex": "0x200c481d63cf4000"
      },
      "nonce": 92,
      "data": "0x",
      "r": "0x2889023a1548d17bc6492348e9b3dc8abc62cd01fdc68c966ca2edb838ba7693",
      "s": "0x0818b7eb5f9fae4f53d1f1ba701574d8eec426953b05d523201c07f726dfb2dc",
      "v": 28,
      "creates": null,
      "raw": "0xf86d5c850d7a900d0283015f9094d52b311564bb4ff6e0f8112c2c3e1c3508c2ddbf88200c481d63cf4000801ca02889023a1548d17bc6492348e9b3dc8abc62cd01fdc68c966ca2edb838ba7693a00818b7eb5f9fae4f53d1f1ba701574d8eec426953b05d523201c07f726dfb2dc",
      "networkId": 0,
      "chainId": 0
    }
  ]
}