{
  "hash": "0x05a3568a135ea989fbbca5371654720c9e0068e909ac8651ffd739fb2562f33e",
  "parentHash": "0x70fded645b170aa4b363a94a942e23aefc17c9e994f62f26f7b95d4abe5c3ed4",
  "number": 51826,
  "timestamp": 1439011640,
  "nonce": "0xe50940a6563c6a7a",
  "difficulty": 1555075242726,
  "gasLimit": {
    "_hex": "0xe3c2c"
  },
  "gasUsed": {
    "_hex": "0xf618"
  },
  "miner": "0x3F98e477a361F777DA14611a7e419A75Fd238b6b",
  "extraData": "0x476574682f76312e302e312f6c696e75782f676f312e342e32",
  "transactions": [
    {
      "hash": "0xb59847ea33a905df112491cd57ff055cd8e9568b5b3f676c6c3e4f3650453b05",
      "blockHash": "0x05a3568a135ea989fbbca5371654720c9e0068e909ac8651ffd739fb2562f33e",
      "blockNumber": 51826,
      "transactionIndex": 0,
      "confirmations": null,
      "from": "0x1543667B9bad3e41865C3233E1764d8dda8E1F3D",
      "gasPrice": {
        "_hex": "0xd33592f37"
      },
      "gasLimit": {
        "_hex": "0x5208"
      },
      "to": "0x32Be343B94f860124dC4fEe278FDCBD38C102D88",
      "value": {
        "_hex": "0x4562e4241790e800"
      },
      "nonce": 1,
      "data": "0x",
      "r": "0x3af746e46e56777c097fbb35fc1005ea3f5fe20c2f7049901f38df0c1f61dc7d",
      "s": "0x1ba1ece645e3186cd9c93a6931d2c14a5315832b8f72ac1c61676cee1fca8c3b",
      "v": 28,
      "creates": null,
      "raw": "0xf86c01850d33592f378252089432be343b94f860124dc4fee278fdcbd38c102d88884562e4241790e800801ca03af746e46e56777c097fbb35fc1005ea3f5fe20c2f7049901f38df0c1f61dc7da01ba1ece645e3186cd9c93a6931d2c14a5315832b8f72ac1c61676cee1fca8c3b",
      "networkId": 0,
      "chainId": 0
    },
    {
      "hash": "0xc9e13a9ccb21662aca17ffaf25031a1b65cdbc449de8c64d01261f471bce323c",
      "blockHash": "0x05a3568a135ea989fbbca5371654720c9e0068e909ac8651ffd739fb2562f33e",
      "blockNumber": 51826,
      "transactionIndex": 1,
      "confirmations": null,
      "from": "0x72eE786D8f3AD59264a4d1d598Bc62720aF2012E",
      "gasPrice": {
        "_hex": "0xd33592f37"
      },
      "gasLimit": {
        "_hex": "0x5208"
      },
      "to": "0x32Be343B94f860124dC4fEe278FDCBD38C102D88",
      "value": {
        "_hex": "0xddc7bd6d53a6800"
      },
      "nonce": 0,
      "data": "0x",
      "r": "0xc3861644ee8e6cc7224d2d0c6107b7cbc9a4543e9b2cc6900df4bafffe0667b3",
      "s": "0x7b534b7d574d57eda8a83ce46a57a8a0edcb5aef04a4d4143d5cac369be61dd1",
      "v": 27,
      "creates": null,
      "raw": "0xf86c80850d33592f378252089432be343b94f860124dc4fee278fdcbd38c102d88880ddc7bd6d53a6800801ba0c3861644ee8e6cc7224d2d0c6107b7cbc9a4543e9b2cc6900df4bafffe0667b3a07b534b7d574d57eda8a83ce46a57a8a0edcb5aef04a4d4143d5cac369be61dd1",
      "networkId": 0,
      "chainId": 0
    },
    {
      "hash": "0x907dc7998e932c1e3154b357967c1e064894e4a1612b722e9372d1b1fb84355f",
      "blockHash": "0x05a3568a135ea989fbbca5371654720c9e0068e909ac8651ffd739fb2562f33e",
      "blockNumber": 51826,
      "transactionIndex": 2,
      "confirmations": null,
      "from": "0x47ff6576639c2e94762eA5443978D7681C0E78DC",
      "gasPrice": {
        "_hex": "0xd047a8ef9"
      },
      "gasLimit": {
        "_hex": "0x5208"
      },
      "to": "0xeD17Ea8E9fd42159037deE95ea173a56c54f55ce",
      "value": {
        "_hex": "0x270801d946c940000"
      },
      "nonce": 3,
      "data": "0x",
      "r": "0x2d62c91571a4fef63dcc025e7753eab8beec311fb8495d80d1737674c26cfd29",
      "s": "0x36cb711aa642682dc56cb7c1c65960aed4ca805542179ea516179a1bf620679d",
      "v": 28,
      "creates": null,
      "raw": "0xf86d03850d047a8ef982520894ed17ea8e9fd42159037dee95ea173a56c54f55ce890270801d946c940000801ca02d62c91571a4fef63dcc025e7753eab8beec311fb8495d80d1737674c26cfd29a036cb711aa642682dc56cb7c1c65960aed4ca805542179ea516179a1bf620679d",
      "networkId": 0,
      "chainId": 0
    }
  ]
}