{
  "hash": "0xd5b70fd80eec5c763b47eca347813c99589c920173c0d6342f78a0aae611bbdc",
  "parentHash": "0xfe9e9b2a0cf7a1249ef8d663eb7f3449788e9afe5cffb057204201f4f225b12e",
  "number": 106114,
  "timestamp": 1439898859,
  "nonce": "0x0205263f965022f9",
  "difficulty": 4470733018420,
  "gasLimit": {
    "_hex": "0x2fefd8"
  },
  "gasUsed": {
    "_hex": "0xf618"
  },
  "miner": "0x0eDEd3DA479d0beF8eeC92A76644D3f4E3C177f7",
  "extraData": "0x476574682f76312e302e312f6c696e75782f676f312e342e32",
  "transactions": [
    {
      "hash": "0x7309d21e0007f4c7791d65ee551537f63308f1cc1bc1ccd788e4df4facdaec30",
      "blockHash": "0xd5b70fd80eec5c763b47eca347813c99589c920173c0d6342f78a0aae611bbdc",
      "blockNumber": 106114,
      "transactionIndex": 0,
      "confirmations": null,
      "from": "0xE300c4587D260cE22a677755Db6429B491A4309E",
      "gasPrice": {
        "_hex": "0xd0b633bd0"
      },
      "gasLimit": {
        "_hex": "0x15f90"
      },
      "to": "0x06EC48800B2DB3eEfa052e98A9b5Fc2Bf783Ee74",
      "value": {
        "_hex": "0x4563918244f40000"
      },
      "nonce": 23,
      "data": "0x",
      "r": "0xd4f681d18e9e79b89a86e057adefd705eff80fd232f867d9a50dfd4f7e10faeb",
      "s": "0x654fb63bb0c7edb7614e4c1eb836a821d93414140c7d51f1284c6f89f99ac31a",
      "v": 27,
      "creates": null,
      "raw": "0xf86d17850d0b633bd083015f909406ec48800b2db3eefa052e98a9b5fc2bf783ee74884563918244f40000801ba0d4f681d18e9e79b89a86e057adefd705eff80fd232f867d9a50dfd4f7e10faeba0654fb63bb0c7edb7614e4c1eb836a821d93414140c7d51f1284c6f89f99ac31a",
      "networkId": 0,
      "chainId": 0
    },
    {
      "hash": "0x54f31f624aea7d964c099420579f7f8c1f0eed77fd9c455526f3201407daf422",
      "blockHash": "0xd5b70fd80eec5c763b47eca347813c99589c920173c0d6342f78a0aae611bbdc",
      "blockNumber": 106114,
      "transactionIndex": 1,
      "confirmations": null,
      "from": "0x790b8a3cE86E707ED0eD32bF89B3269692a23CC1",
      "gasPrice": {
        "_hex": "0xcd4cdb89c"
      },
      "gasLimit": {
        "_hex": "0x15f90"
      },
      "to": "0x4D67f4F0Db45b3B5a3424B39ed8d972F710381D5",
      "value": {
        "_hex": "0x2d041d705a2c60000"
      },
      "nonce": 36,
      "data": "0x",
      "r": "0xe6e5025947ccff4c53218e4650ae33ca6f8b88577d9c2bdf7a340e7dc5726fff",
      "s": "0x271614edef22398fa4cfc210c6957e0e6db3176c94063944f350189654ceaf2b",
      "v": 27,
      "creates": null,
      "raw": "0xf86e24850cd4cdb89c83015f90944d67f4f0db45b3b5a3424b39ed8d972f710381d58902d041d705a2c60000801ba0e6e5025947ccff4c53218e4650ae33ca6f8b88577d9c2bdf7a340e7dc5726fffa0271614edef22398fa4cfc210c6957e0e6db3176c94063944f350189654ceaf2b",
      "networkId": 0,
      "chainId": 0
    },
    {
      "hash": "0x7e0f00124480eff8878f540cd82d4b5ccb8a57984ca3c8f0ec33b637f9c9646f",
      "blockHash": "0xd5b70fd80eec5c763b47eca347813c99589c920173c0d6342f78a0aae611bbdc",
      "blockNumber": 106114,
      "transactionIndex": 2,
      "confirmations": null,
      "from": "0xca3Ce19d512bEdA23b61bDD59C27Eb1Ec2393c1f",
      "gasPrice": {
        "_hex": "0xcd01555c5"
      },
      "gasLimit": {
        "_hex": "0x15f90"
      },
      "to": "0x1332996a46dcBBE02f9cF164Dfc153aB976a9766",
      "value": {
        "_hex": "0x4563918244f40000"
      },
      "nonce": 3,
      "data": "0x",
      "r": "0x9dc0e96edcea4d7b14e2fd400b9e933218f218797cf2e685120c2f8111732e43",
      "s": "0x030228a590205ca5cad240ef151bfc1f26a72f98d03ebda5440a8f9cd9da2872",
      "v": 28,
      "creates": null,
      "raw": "0xf86d03850cd01555c583015f90941332996a46dcbbe02f9cf164dfc153ab976a9766884563918244f40000801ca09dc0e96edcea4d7b14e2fd400b9e933218f218797cf2e685120c2f8111732e43a0030228a590205ca5cad240ef151bfc1f26a72f98d03ebda5440a8f9cd9da2872",
      "networkId": 0,
      "chainId": 0
    }
  ]
}