{
  "hash": "0x3ae9aa3141ec274260646db54665bb809a8e199c3bc2349281104ad230cd20b4",
  "parentHash": "0x64e89face1a122c0e8ae494566db7d7a844666d50c88cee7179b22031658dcdc",
  "number": 93988,
  "timestamp": 1439700814,
  "nonce": "0xca26dbe30c9088d5",
  "difficulty": 3480043412148,
  "gasLimit": {
    "_hex": "0x2fefd8"
  },
  "gasUsed": {
    "_hex": "0x5208"
  },
  "miner": "0xe6A7a1d47ff21B6321162AEA7C6CB457D5476Bca",
  "extraData": "0x476574682f76312e302e312d38326566323666362f6c696e75782f676f312e34",
  "transactions": [
    {
      "hash": "0xbeb8fd75e2799d53575a40bf1514ab39c856ba9cd1d766bc08417c67533f3b6c",
      "blockHash": "0x3ae9aa3141ec274260646db54665bb809a8e199c3bc2349281104ad230cd20b4",
      "blockNumber": 93988,
      "transactionIndex": 0,
      "confirmations": null,
      "from": "0xf1f13E70bf1318a5E7171447154Bf1A9B7565B0C",
      "gasPrice": {
        "_hex": "0xba43b7400"
      },
      "gasLimit": {
        "_hex": "0x5266"
      },
      "to": "0x87fd1C6dFA355a18911997a9BffA561272829453",
      "value": {
        "_hex": "0xb1a2bc2ec50000"
      },
      "nonce": 1,
      "data": "0x",
      "r": "0xb302ffbcdd6f0c3857d45227b48c32f9bc6bbb168fad5c8c64857d2acac2f8c8",
      "s": "0xc29e41f31aa9425b8e40df452e9dee05b1da7059e5e97cfc8905a6f599543e0c",
      "v": 28,
      "creates": null,
      "raw": "0xf86b01850ba43b74008252669487fd1c6dfa355a18911997a9bffa56127282945387b1a2bc2ec50000801ca0b302ffbcdd6f0c3857d45227b48c32f9bc6bbb168fad5c8c64857d2acac2f8c8a0c29e41f31aa9425b8e40df452e9dee05b1da7059e5e97cfc8905a6f599543e0c",
      "networkId": 0,
      "chainId": 0
    }
  ]
}