{
  "hash": "0x97e1b41adb2760270618035aa7d29c1837d71ba913d38564cf1870935084e9c8",
  "parentHash": "0xb45ce04d3df584d961a82cc1aa57d56238950907e40e404c636a0d38900cc00a",
  "number": 112715,
  "timestamp": 1440011908,
  "nonce": "0xc3513a98bf0dd3a8",
  "difficulty": 4430288468085,
  "gasLimit": {
    "_hex": "0x2fefd8"
  },
  "gasUsed": {
    "_hex": "0x5208"
  },
  "miner": "0x9D551f41feD6FC27B719777c224DfeCcE170004d",
  "extraData": "0x476574682f76312e302e312f6c696e75782f676f312e342e32",
  "transactions": [
    {
      "hash": "0xa45b018d31897aa1f6222243cb7ecdf5896aa62be0bee8ef8fb6369a59b16b83",
      "blockHash": "0x97e1b41adb2760270618035aa7d29c1837d71ba913d38564cf1870935084e9c8",
      "blockNumber": 112715,
      "transactionIndex": 0,
      "confirmations": null,
      "from": "0x556ca325C21e450b2aFf86D9c8eF0Fa371971c97",
      "gasPrice": {
        "_hex": "0xcdf28306d"
      },
      "gasLimit": {
        "_hex": "0x5208"
      },
      "to": "0x32Be343B94f860124dC4fEe278FDCBD38C102D88",
      "value": {
        "_hex": "0xdd27b70c50fc7000"
      },
      "nonce": 20,
      "data": "0x",
      "r": "0x2c363755646a68a39944652e16832b222098423d05b28deee6555f4e1caa2b5f",
      "s": "0x7a321e6c812ce636d7e19269fab9f507de13a6cb8c2b3b80f7929f423a915f48",
      "v": 28,
      "creates": null,
      "raw": "0xf86c14850cdf28306d8252089432be343b94f860124dc4fee278fdcbd38c102d8888dd27b70c50fc7000801ca02c363755646a68a39944652e16832b222098423d05b28deee6555f4e1caa2b5fa07a321e6c812ce636d7e19269fab9f507de13a6cb8c2b3b80f7929f423a915f48",
      "networkId": 0,
      "chainId": 0
    }
  ]
}