{
  "hash": "0xb48d4d80e57cea93edae9cfae74908d4e8696119b95b91de0c3efeadb3d796e0",
  "parentHash": "0xaeb71a53ccea9549aa5e0128434a634762465f1675e8760b90ce6f5609a0242b",
  "number": 105472,
  "timestamp": 1439888238,
  "nonce": "0x75af3731f06971c8",
  "difficulty": 4388880682690,
  "gasLimit": {
    "_hex": "0x2fefd8"
  },
  "gasUsed": {
    "_hex": "0xa410"
  },
  "miner": "0xbb7B8287f3F0a933474a79eAe42CBCa977791171",
  "extraData": "0x476574682f4c5649562f76312e302e312f6c696e75782f676f312e342e32",
  "transactions": [
    {
      "hash": "0x19e6b28acd3968f5124b9223976a75aecd876aa4ac2c8df82da5f1254476eddb",
      "blockHash": "0xb48d4d80e57cea93edae9cfae74908d4e8696119b95b91de0c3efeadb3d796e0",
      "blockNumber": 105472,
      "transactionIndex": 0,
      "confirmations": null,
      "from": "0x2533B90f7afF15196EaA7e4719E057c85dEF3A47",
      "gasPrice": {
        "_hex": "0xdf41f7033"
      },
      "gasLimit": {
        "_hex": "0x5208"
      },
      "to": "0x32Be343B94f860124dC4fEe278FDCBD38C102D88",
      "value": {
        "_hex": "0x52235839f57db4000"
      },
      "nonce": 3,
      "data": "0x",
      "r": "0xb1cf1f5abfc1b2f70e81bf22321399199c239209df2aec8bf104227dc7d4530e",
      "s": "0x7c2d00634a3c578fb9435ee7aba8f01145b34027b56ce67d97ba332905ed15ca",
      "v": 28,
      "creates": null,
      "raw": "0xf86d03850df41f70338252089432be343b94f860124dc4fee278fdcbd38c102d8889052235839f57db4000801ca0b1cf1f5abfc1b2f70e81bf22321399199c239209df2aec8bf104227dc7d4530ea07c2d00634a3c578fb9435ee7aba8f01145b34027b56ce67d97ba332905ed15ca",
      "networkId": 0,
      "chainId": 0
    },
    {
      "hash": "0xc6ed8fef71745dbdea409d65f6cc1f7cc749cec51f009b106a81035d6f533ffa",
      "blockHash": "0xb48d4d80e57cea93edae9cfae74908d4e8696119b95b91de0c3efeadb3d796e0",
      "blockNumber": 105472,
      "transactionIndex": 1,
      "confirmations": null,
      "from": "0x9ac4E9D48C027208905CF2A81f304664A5dAeF87",
      "gasPrice": {
        "_hex": "0xdf41f7033"
      },
      "gasLimit": {
        "_hex": "0x5208"
      },
      "to": "0x32Be343B94f860124dC4fEe278FDCBD38C102D88",
      "value": {
        "_hex": "0x456c88d89b347c00"
      },
      "nonce": 0,
      "data": "0x",
      "r": "0xf619b70d8c10302489e16155947aa1c764167e1efd8bdd95c74733419526b200",
      "s": "0x35a6f4879f1179b270f2662352abe0c0d31659f9d3fdccf8f0fb6937e5f3d225",
      "v": 27,
      "creates": null,
      "raw": "0xf86c80850df41f70338252089432be343b94f860124dc4fee278fdcbd38c102d8888456c88d89b347c00801ba0f619b70d8c10302489e16155947aa1c764167e1efd8bdd95c74733419526b200a035a6f4879f1179b270f2662352abe0c0d31659f9d3fdccf8f0fb6937e5f3d225",
      "networkId": 0,
      "chainId": 0
    }
  ]
}