{
  "hash": "0xbbe19502cd930134cbf928c185ed75c0473d7e0986f637596211f001b75ed0fb",
  "parentHash": "0xb17ed8579245c25a0f97d656143e9221fa5fee62d5113851ed07290bea57d2c7",
  "number": 90878,
  "timestamp": 1439646748,
  "nonce": "0x4579b3d87d3711c2",
  "difficulty": 3410666392684,
  "gasLimit": {
    "_hex": "0x2fefd8"
  },
  "gasUsed": {
    "_hex": "0x5208"
  },
  "miner": "0x6C4163642Fce79F094c50853FEaF94397bDDcd09",
  "extraData": "0x",
  "transactions": [
    {
      "hash": "0x012b0daa041707ce859c3a58940c30b30ad5d3e51a06a3dd00a1603948fe2fb1",
      "blockHash": "0xbbe19502cd930134cbf928c185ed75c0473d7e0986f637596211f001b75ed0fb",
      "blockNumber": 90878,
      "transactionIndex": 0,
      "confirmations": null,
      "from": "0x52C222E2d709B9Bc81d0C047dd4Bc8D675EffD7f",
      "gasPrice": {
        "_hex": "0xd49d24204"
      },
      "gasLimit": {
        "_hex": "0x5208"
      },
      "to": "0x32Be343B94f860124dC4fEe278FDCBD38C102D88",
      "value": {
        "_hex": "0x1bceeecfafb58800"
      },
      "nonce": 0,
      "data": "0x",
      "r": "0x6a8ddeac3de3a661d2e66310194838920e9e93b2b4b2818091cbb1c1f50febd0",
      "s": "0x294cbbc29c739a3eb66ead7a352e70a36650433f90d61407e4a5f1f78792099a",
      "v": 28,
      "creates": null,
      "raw": "0xf86c80850d49d242048252089432be343b94f860124dc4fee278fdcbd38c102d88881bceeecfafb58800801ca06a8ddeac3de3a661d2e66310194838920e9e93b2b4b2818091cbb1c1f50febd0a0294cbbc29c739a3eb66ead7a352e70a36650433f90d61407e4a5f1f78792099a",
      "networkId": 0,
      "chainId": 0
    }
  ]
}