{
  "hash": "0xad8f4509c96567b54f3003075277a7485ea7c0fac280725765c6ae108e1b0aca",
  "parentHash": "0x4dd46d82318e4f16ea3ead7b538d370f8c4344f7fe1e7467f22f9396817ff75c",
  "number": 65320,
  "timestamp": 1439234806,
  "nonce": "0x0cbd9a1538c0cde5",
  "difficulty": 1949268944819,
  "gasLimit": {
    "_hex": "0x2fefd8"
  },
  "gasUsed": {
    "_hex": "0xa410"
  },
  "miner": "0x893FF53FE9b3DA680472E1948F2294F970D44678",
  "extraData": "0x476574682f76312e302e312f6c696e75782f676f312e342e32",
  "transactions": [
    {
      "hash": "0xeb3d0e833b08a93eee38d3946bf3a056fd8d859b0e4cec25c294bf3a58f23f09",
      "blockHash": "0xad8f4509c96567b54f3003075277a7485ea7c0fac280725765c6ae108e1b0aca",
      "blockNumber": 65320,
      "transactionIndex": 0,
      "confirmations": null,
      "from": "0x5389E9356140849BaCA27EB187d27BbEcA39F67D",
      "gasPrice": {
        "_hex": "0xba43b7400"
      },
      "gasLimit": {
        "_hex": "0x5208"
      },
      "to": "0xC2a9a8a6CE3Ee563EEa4C09dB777Bbb13EE00c29",
      "value": {
        "_hex": "0x870701872a5a000"
      },
      "nonce": 1,
      "data": "0x",
      "r": "0xeeef9cdf9a773040618dab78f1c222ebfaf5bb6d27204c1f5f792ee57a02cbe2",
      "s": "0x3c240dd53698c47919ad730d57a43b033e75913350defa73df4a08ec696e6604",
      "v": 28,
      "creates": null,
      "raw": "0xf86c01850ba43b740082520894c2a9a8a6ce3ee563eea4c09db777bbb13ee00c29880870701872a5a000801ca0eeef9cdf9a773040618dab78f1c222ebfaf5bb6d27204c1f5f792ee57a02cbe2a03c240dd53698c47919ad730d57a43b033e75913350defa73df4a08ec696e6604",
      "networkId": 0,
      "chainId": 0
    },
    {
      "hash": "0xe0f1c610dd0af126a651fda0a667f97695b06c1b65b6cada1ceb7707307d9fff",
      "blockHash": "0xad8f4509c96567b54f3003075277a7485ea7c0fac280725765c6ae108e1b0aca",
      "blockNumber": 65320,
      "transactionIndex": 1,
      "confirmations": null,
      "from": "0x8a92084facdbd8381bBF359745a82746B3192D57",
      "gasPrice": {
        "_hex": "0xba43b7400"
      },
      "gasLimit": {
        "_hex": "0x5208"
      },
      "to": "0x8F5eDb9c7fDB230c0294D4a418e3e4AaD848110e",
      "value": {
        "_hex": "0x8e41ff8b277d000"
      },
      "nonce": 1,
      "data": "0x",
      "r": "0x246253992a753ddbb6caae2e7b2936b859309a4c20e4af03abd99bcc6941dfef",
      "s": "0x2625add8c8aa95b35e875d02914974ec73b9c9dcb0257687f39acdb07fe18e00",
      "v": 27,
      "creates": null,
      "raw": "0xf86c01850ba43b7400825208948f5edb9c7fdb230c0294d4a418e3e4aad848110e8808e41ff8b277d000801ba0246253992a753ddbb6caae2e7b2936b859309a4c20e4af03abd99bcc6941dfefa02625add8c8aa95b35e875d02914974ec73b9c9dcb0257687f39acdb07fe18e00",
      "networkId": 0,
      "chainId": 0
    }
  ]
}