{
  "hash": "0xd40828d41977d99b9d9bb67b0ad9bf1791cf5268e28b56fc0aaed066f1ef3cb8",
  "parentHash": "0xf2e30b889a3a10c877f049ee5f01ba1d71d4dc0b076b1510278de10fa74cd8fe",
  "number": 85874,
  "timestamp": 1439570102,
  "nonce": "0x1df5d6317b7afe60",
  "difficulty": 2785365775774,
  "gasLimit": {
    "_hex": "0x2fefd8"
  },
  "gasUsed": {
    "_hex": "0x5208"
  },
  "miner": "0x9258E9B67440f712B7ae120CB8233baDCB1845ea",
  "extraData": "0x476574682f76312e302e312f77696e646f77732f676f312e342e32",
  "transactions": [
    {
      "hash": "0xd934bdfa131b7b5de58f648f7a6af4d74b63756bf25eebdb407939907fc16e19",
      "blockHash": "0xd40828d41977d99b9d9bb67b0ad9bf1791cf5268e28b56fc0aaed066f1ef3cb8",
      "blockNumber": 85874,
      "transactionIndex": 0,
      "confirmations": null,
      "from": "0x9dc5018E753A410593259039296bBfd28E29f894",
      "gasPrice": {
        "_hex": "0xd1524a07d"
      },
      "gasLimit": {
        "_hex": "0x61a8"
      },
      "to": "0x50056353D06a71b1f427499419D04F81f5dE4F20",
      "value": {
        "_hex": "0x133d038a24d4ee3f0"
      },
      "nonce": 0,
      "data": "0x",
      "r": "0xc0b34ddae467f76bf0eb436e9a4245fe0b10d71b9bf242174093ecc12a8a1129",
      "s": "0x4e6e0f6a0e8f6612c2e128b15eb5e3b1a6d03b2a2008dc5b5d406d3d72b57d64",
      "v": 27,
      "creates": null,
      "raw": "0xf86d80850d1524a07d8261a89450056353d06a71b1f427499419d04f81f5de4f20890133d038a24d4ee3f0801ba0c0b34ddae467f76bf0eb436e9a4245fe0b10d71b9bf242174093ecc12a8a1129a04e6e0f6a0e8f6612c2e128b15eb5e3b1a6d03b2a2008dc5b5d406d3d72b57d64",
      "networkId": 0,
      "chainId": 0
    }
  ]
}