{
  "hash": "0x9e48166eb5a6da2a021ef6ed81cac2ef73458cf8549eec2e77d19aec2c76284f",
  "parentHash": "0x0689c076a6e05162a02fd00d530d6973809f97e0c65361aba62220cb3df88175",
  "number": 103456,
  "timestamp": 1439853707,
  "nonce": "0x3249b0a249985b41",
  "difficulty": 4164433165266,
  "gasLimit": {
    "_hex": "0x2fefd8"
  },
  "gasUsed": {
    "_hex": "0x5208"
  },
  "miner": "0xbb7B8287f3F0a933474a79eAe42CBCa977791171",
  "extraData": "0x476574682f4c5649562f76312e302e312f6c696e75782f676f312e342e32",
  "transactions": [
    {
      "hash": "0x1e8453afb3c9de95fbb45b6ba931e617998ec5eb1c535b18ae4c4e32b0f3cfd7",
      "blockHash": "0x9e48166eb5a6da2a021ef6ed81cac2ef73458cf8549eec2e77d19aec2c76284f",
      "blockNumber": 103456,
      "transactionIndex": 0,
      "confirmations": null,
      "from": "0xaB638742EBe3A78F2a85028350e1AADB86C0a6ed",
      "gasPrice": {
        "_hex": "0xd1943ab43"
      },
      "gasLimit": {
        "_hex": "0x15f90"
      },
      "to": "0xD5bf64B3B17Fb895536953EfE17578a8b7b16880",
      "value": {
        "_hex": "0x2b5e3af16b1880000"
      },
      "nonce": 4,
      "data": "0x",
      "r": "0xe14af599842a24fc6086fc85fd6b31a434b1eb0699c60cde8fbc9deb217c83a4",
      "s": "0x12bae8f4fed11ad5b67576f84030b9aa05c40b11dce079959551de07ca19b80b",
      "v": 27,
      "creates": null,
      "raw": "0xf86e04850d1943ab4383015f9094d5bf64b3b17fb895536953efe17578a8b7b168808902b5e3af16b1880000801ba0e14af599842a24fc6086fc85fd6b31a434b1eb0699c60cde8fbc9deb217c83a4a012bae8f4fed11ad5b67576f84030b9aa05c40b11dce079959551de07ca19b80b",
      "networkId": 0,
      "chainId": 0
    }
  ]
}