{
  "hash": "0x7ca0f20894582054449a01bfccb93155acbece8cf230881d1969ead099e22128",
  "parentHash": "0x2516a34c20e7dfb4b010501f2c15bf4f0785a7356521974dfbf0bfd4396624b0",
  "number": 54567,
  "timestamp": 1439056247,
  "nonce": "0xfd4131d0e70456e1",
  "difficulty": 1622028702808,
  "gasLimit": {
    "_hex": "0x2fefd8"
  },
  "gasUsed": {
    "_hex": "0x5208"
  },
  "miner": "0xeB1325C8D9d3ea8D74aC11F4B00F1B2367686319",
  "extraData": "0x476574682f76312e302e312f77696e646f77732f676f312e342e32",
  "transactions": [
    {
      "hash": "0x1efcb7a2cf2cbe15390d5449b0e20d5312ad276940c9f012e982c9e846b759b8",
      "blockHash": "0x7ca0f20894582054449a01bfccb93155acbece8cf230881d1969ead099e22128",
      "blockNumber": 54567,
      "transactionIndex": 0,
      "confirmations": null,
      "from": "0x562f16d79AbfCec3943E34b20F05F97BdfcDa605",
      "gasPrice": {
        "_hex": "0xceffbcb1e"
      },
      "gasLimit": {
        "_hex": "0x15f90"
      },
      "to": "0x60780933D9a5A8e8E3ab20CB6382cd314f04065F",
      "value": {
        "_hex": "0x87a7674d8eee3730"
      },
      "nonce": 3,
      "data": "0x",
      "r": "0xd6569bcac79e989722c0ae176e0156feb7d102283c1471c50df7b779c22dd6e2",
      "s": "0x22de372644a8187160d5657fe17f323fef90fdf8ab93f5c340f151737fa658de",
      "v": 27,
      "creates": null,
      "raw": "0xf86d03850ceffbcb1e83015f909460780933d9a5a8e8e3ab20cb6382cd314f04065f8887a7674d8eee3730801ba0d6569bcac79e989722c0ae176e0156feb7d102283c1471c50df7b779c22dd6e2a022de372644a8187160d5657fe17f323fef90fdf8ab93f5c340f151737fa658de",
      "networkId": 0,
      "chainId": 0
    }
  ]
}