{
  "hash": "0xfafbc5364e0535de6f6f92111813c43ca6b45b10c5089821e935d3f14b032200",
  "parentHash": "0xf3332d7ec54d4146728535029146caa6d7bed82acb3f5c5d5f392e6b306152f7",
  "number": 117892,
  "timestamp": 1440117101,
  "nonce": "0x58e7b81e0b6def80",
  "difficulty": 4339798938408,
  "gasLimit": {
    "_hex": "0x2fefd8"
  },
  "gasUsed": {
    "_hex": "0x5208"
  },
  "miner": "0x52bc44d5378309EE2abF1539BF71dE1b7d7bE3b5",
  "extraData": "0xd783010002844765746887676f312e342e32856c696e7578",
  "transactions": [
    {
      "hash": "0x44254e7f20c0477b2b7fba20ec84bc0bac0c35beb81e6efca453c9a89af6201c",
      "blockHash": "0xfafbc5364e0535de6f6f92111813c43ca6b45b10c5089821e935d3f14b032200",
      "blockNumber": 117892,
      "transactionIndex": 0,
      "confirmations": null,
      "from": "0x4CD33268dF93C6b4F6b3D504009EAE965Afe272d",
      "gasPrice": {
        "_hex": "0xba43b7400"
      },
      "gasLimit": {
        "_hex": "0x5208"
      },
      "to": "0x32Be343B94f860124dC4fEe278FDCBD38C102D88",
      "value": {
        "_hex": "0x2118d895a99c5800"
      },
      "nonce": 9,
      "data": "0x",
      "r": "0x1762a5273ae1e97ab2cc161910e6a8f870923614b46f64f53fcdc00a1ca18ea9",
      "s": "0x581d5f42f91ea9bf0cf03f598af387bd4d1bf430dd1a79e8b73bc03e94c5ac6e",
      "v": 27,
      "creates": null,
      "raw": "0xf86c09850ba43b74008252089432be343b94f860124dc4fee278fdcbd38c102d88882118d895a99c5800801ba01762a5273ae1e97ab2cc161910e6a8f870923614b46f64f53fcdc00a1ca18ea9a0581d5f42f91ea9bf0cf03f598af387bd4d1bf430dd1a79e8b73bc03e94c5ac6e",
      "networkId": 0,
      "chainId": 0
    }
  ]
}