{
  "hash": "0xbad837d7e087a7fca1f0b1ecfa63f0d6c7c40ec5209d39e59fb7bf37e3260000",
  "parentHash": "0x4987599ec630548630b064c2bd9b95237662256d8b760c9d8320060a11fa4858",
  "number": 54030,
  "timestamp": 1439047467,
  "nonce": "0x8898665f50c1ffe1",
  "difficulty": 1610295089392,
  "gasLimit": {
    "_hex": "0x2fefd8"
  },
  "gasUsed": {
    "_hex": "0x546c"
  },
  "miner": "0xf927a40C8B7F6E07c5af7FA2155B4864a4112B13",
  "extraData": "0x476574682f76312e302e312f6c696e75782f676f312e342e32",
  "transactions": [
    {
      "hash": "0x752b66babd8c8a148870401c3b0501b54c8418144f462140d57b8f738cafd805",
      "blockHash": "0xbad837d7e087a7fca1f0b1ecfa63f0d6c7c40ec5209d39e59fb7bf37e3260000",
      "blockNumber": 54030,
      "transactionIndex": 0,
      "confirmations": null,
      "from": "0x2496580535aEEF037C3232D8AfeB01545735c3Dc",
      "gasPrice": {
        "_hex": "0xcf0d3a3c8"
      },
      "gasLimit": {
        "_hex": "0x15f90"
      },
      "to": "0x2910543Af39abA0Cd09dBb2D50200b3E800A63D2",
      "value": {
        "_hex": "0x3782dace9d900000"
      },
      "nonce": 0,
      "data": "0x454e30334b52455730",
      "r": "0x1733a300b28f3d890be85e6fdcc1210c1d33410974ef28774fd23d05e2837334",
      "s": "0x0637781b65f941786f8d04e848aac2e3c63e4de846227daf3dc042ec5bd413d6",
      "v": 27,
      "creates": null,
      "raw": "0xf87680850cf0d3a3c883015f90942910543af39aba0cd09dbb2d50200b3e800a63d2883782dace9d90000089454e30334b524557301ba01733a300b28f3d890be85e6fdcc1210c1d33410974ef28774fd23d05e2837334a00637781b65f941786f8d04e848aac2e3c63e4de846227daf3dc042ec5bd413d6",
      "networkId": 0,
      "chainId": 0
    }
  ]
}