{
  "hash": "0x3e478177f14e69becb78e0d885501438098e1f91560b9d967849505d50195b57",
  "parentHash": "0x76531e6e4cd20cca794ee2d2c5e0f26be18ed7f004b983dc23230c57836f7418",
  "number": 46280,
  "timestamp": 1438920449,
  "nonce": "0x3589ee4640318ff6",
  "difficulty": 1464682048392,
  "gasLimit": {
    "_hex": "0x5817"
  },
  "gasUsed": {
    "_hex": "0x5208"
  },
  "miner": "0xf927a40C8B7F6E07c5af7FA2155B4864a4112B13",
  "extraData": "0x476574682f76312e302e312f6c696e75782f676f312e342e32",
  "transactions": [
    {
      "hash": "0xe98a45041d3decb084a08e88eb23dbb5ff19c5de7a71baace3b31ec20059d010",
      "blockHash": "0x3e478177f14e69becb78e0d885501438098e1f91560b9d967849505d50195b57",
      "blockNumber": 46280,
      "transactionIndex": 0,
      "confirmations": null,
      "from": "0x1C68a66138783A63c98cc675a9eC77AF4598D35e",
      "gasPrice": {
        "_hex": "0x3adf41d7a3"
      },
      "gasLimit": {
        "_hex": "0x5208"
      },
      "to": "0xc8ebccC5F5689Fa8659d83713341e5aD19349448",
      "value": {
        "_hex": "0x13fbe85edc90000"
      },
      "nonce": 1,
      "data": "0x",
      "r": "0xf3eb1c79815c2435fe6c7508e1921bd16d663fd5edf3d2b940cf8df25346a419",
      "s": "0x5aaff0ae612280104baa859ed19bd335a6f4d81486ecf3798ea635b57709c482",
      "v": 28,
      "creates": null,
      "raw": "0xf86c01853adf41d7a382520894c8ebccc5f5689fa8659d83713341e5ad1934944888013fbe85edc90000801ca0f3eb1c79815c2435fe6c7508e1921bd16d663fd5edf3d2b940cf8df25346a419a05aaff0ae612280104baa859ed19bd335a6f4d81486ecf3798ea635b57709c482",
      "networkId": 0,
      "chainId": 0
    }
  ]
}