{
  "hash": "0x67f041b3ce67fcf35e927c49813b072a4adedc5b5353cf1a2422adc8c990fb65",
  "parentHash": "0x7513a89b65a3d635f78c5d26a863b5cbae1fdb2f8052409dc1fb8ee4fc56839d",
  "number": 46484,
  "timestamp": 1438923950,
  "nonce": "0x7f6770655d7dc3c4",
  "difficulty": 1466077447181,
  "gasLimit": {
    "_hex": "0x640c"
  },
  "gasUsed": {
    "_hex": "0x5208"
  },
  "miner": "0x40dDAE161B79aaebeb68187233fe59bd3B1c2db2",
  "extraData": "0x476574682f76312e302e312f77696e646f77732f676f312e342e32",
  "transactions": [
    {
      "hash": "0x23d637ad2dcca28a66f21ce40f6733b8fd9449900e3ea28377becf83578c2133",
      "blockHash": "0x67f041b3ce67fcf35e927c49813b072a4adedc5b5353cf1a2422adc8c990fb65",
      "blockNumber": 46484,
      "transactionIndex": 0,
      "confirmations": null,
      "from": "0x0cDA12BF72d461BBc479eB92e6491d057e6B5Ad1",
      "gasPrice": {
        "_hex": "0x746a528800"
      },
      "gasLimit": {
        "_hex": "0x55f0"
      },
      "to": "0xAb5199486803893a6dc1AD1D31612895300BCcA9",
      "value": {
        "_hex": "0x3635c9adc5dea00000"
      },
      "nonce": 2,
      "data": "0x",
      "r": "0x5257777cbb930157d9efd5732b3533896523634b6f00f2d0810035fe757d8d8a",
      "s": "0x106f995e25d87d448ed32a18c6e31135e34369a3ebd6f0d49084ef90cf9e8d02",
      "v": 28,
      "creates": null,
      "raw": "0xf86d0285746a5288008255f094ab5199486803893a6dc1ad1d31612895300bcca9893635c9adc5dea00000801ca05257777cbb930157d9efd5732b3533896523634b6f00f2d0810035fe757d8d8aa0106f995e25d87d448ed32a18c6e31135e34369a3ebd6f0d49084ef90cf9e8d02",
      "networkId": 0,
      "chainId": 0
    }
  ]
}