{
  "hash": "0x9df9e78a6133ae21aae50fd2f0bbce915f4281274dbf80a263f387f3f0b78780",
  "parentHash": "0x0823ea12b0517fbcbd7173c25949fc912d005ace7a16423414001790b2768c15",
  "number": 107810,
  "timestamp": 1439929203,
  "nonce": "0x5cd59902f8f6b8ec",
  "difficulty": 4374821967016,
  "gasLimit": {
    "_hex": "0x2fefd8"
  },
  "gasUsed": {
    "_hex": "0x5208"
  },
  "miner": "0xf927a40C8B7F6E07c5af7FA2155B4864a4112B13",
  "extraData": "0x",
  "transactions": [
    {
      "hash": "0xd17df6cc494a75f606397ecf7d535bb98817274a00dbeb7540d8abf64aee473c",
      "blockHash": "0x9df9e78a6133ae21aae50fd2f0bbce915f4281274dbf80a263f387f3f0b78780",
      "blockNumber": 107810,
      "transactionIndex": 0,
      "confirmations": null,
      "from": "0x6BED894B45159c6001dfbC5bd6257A10B9eF2202",
      "gasPrice": {
        "_hex": "0xcc165ffbe"
      },
      "gasLimit": {
        "_hex": "0x15f90"
      },
      "to": "0xC4Cefd8e233244EE0b01B083a8a01D2cfca86910",
      "value": {
        "_hex": "0x0"
      },
      "nonce": 7,
      "data": "0x",
      "r": "0x041f51b70c5ed4c90b9b336b5163fcd8de695b57a75ff7616d8c63391c53cf7c",
      "s": "0x0e2482945d85877bd9ad8fb8adc158cf39904b20eee9584fd337967b624cf1ab",
      "v": 28,
      "creates": null,
      "raw": "0xf86507850cc165ffbe83015f9094c4cefd8e233244ee0b01b083a8a01d2cfca8691080801ca0041f51b70c5ed4c90b9b336b5163fcd8de695b57a75ff7616d8c63391c53cf7ca00e2482945d85877bd9ad8fb8adc158cf39904b20eee9584fd337967b624cf1ab",
      "networkId": 0,
      "chainId": 0
    }
  ]
}