{
  "hash": "0xfcea315605eb0c3bc9c2c3b9011320abc9e0e7ccb179125255e28944a19d9523",
  "parentHash": "0x985526260a2680b44e3e75a2aefe6daaddf753071f0e9d73f8fea8cd9d8d96d7",
  "number": 90334,
  "timestamp": 1439638284,
  "nonce": "0x6201e7777b681ca4",
  "difficulty": 3318884700737,
  "gasLimit": {
    "_hex": "0x2fefd8"
  },
  "gasUsed": {
    "_hex": "0x5208"
  },
  "miner": "0x09A85B9586468D3FD85e5B9D6BE769F5c6016325",
  "extraData": "0x476574682f76312e302e312f77696e646f77732f676f312e342e32",
  "transactions": [
    {
      "hash": "0xf07b696b195fd4aaac55703a3859b0ef6e33d158b031c401d7760fd590e8b485",
      "blockHash": "0xfcea315605eb0c3bc9c2c3b9011320abc9e0e7ccb179125255e28944a19d9523",
      "blockNumber": 90334,
      "transactionIndex": 0,
      "confirmations": null,
      "from": "0x2910543Af39abA0Cd09dBb2D50200b3E800A63D2",
      "gasPrice": {
        "_hex": "0xd59a0076c"
      },
      "gasLimit": {
        "_hex": "0x5208"
      },
      "to": "0x913f7f0f57ED0245F2937dAE625b7e941061735A",
      "value": {
        "_hex": "0x6c6b819812855f8000"
      },
      "nonce": 779,
      "data": "0x",
      "r": "0xce35d5d61b1097231b507f82e067125f63b1331a2d777f6a8d4654a3340c973f",
      "s": "0x3515ec73a6d0ad0025d3376244a317502c1a9ad140be17e1303bd8a102e09f5c",
      "v": 28,
      "creates": null,
      "raw": "0xf86f82030b850d59a0076c82520894913f7f0f57ed0245f2937dae625b7e941061735a896c6b819812855f8000801ca0ce35d5d61b1097231b507f82e067125f63b1331a2d777f6a8d4654a3340c973fa03515ec73a6d0ad0025d3376244a317502c1a9ad140be17e1303bd8a102e09f5c",
      "networkId": 0,
      "chainId": 0
    }
  ]
}