{
  "hash": "0x8d54f6f3627b763251d07d7ca6a124936fc09675568bab151b93b1823fb1df9a",
  "parentHash": "0xd3e03a100ff245644ccd36b41a0fdedd6085c7667634a50f5b694b653ab67592",
  "number": 70508,
  "timestamp": 1439320743,
  "nonce": "0x417f49c083af74d1",
  "difficulty": 2150001983357,
  "gasLimit": {
    "_hex": "0x2fefd8"
  },
  "gasUsed": {
    "_hex": "0x5511"
  },
  "miner": "0xbb7B8287f3F0a933474a79eAe42CBCa977791171",
  "extraData": "0x476574682f4c5649562f76312e302e312f6c696e75782f676f312e342e32",
  "transactions": [
    {
      "hash": "0x13aaff42518c85b7563f1bb8127361d41c607836e754aeab6a0b6f8139c3f43f",
      "blockHash": "0x8d54f6f3627b763251d07d7ca6a124936fc09675568bab151b93b1823fb1df9a",
      "blockNumber": 70508,
      "transactionIndex": 0,
      "confirmations": null,
      "from": "0xF5d14552B1dCe0d6dc1F320da6FFc8A331cd6f0C",
      "gasPrice": {
        "_hex": "0xe2158a48d"
      },
      "gasLimit": {
        "_hex": "0x15f90"
      },
      "to": "0x793AE8C1b1a160BFc07BFB0d04F85eab1A71F4f2",
      "value": {
        "_hex": "0x0"
      },
      "nonce": 2,
      "data": "0x3ba15036",
      "r": "0xc0b2ce5efdf6e8fb13a72d567c996700d5891d2550fea8c388f723129002a7e0",
      "s": "0x18a8e002b44b69152a6ef6ee99251033c888573c032fa74c308f9b8f9c5db5b5",
      "v": 27,
      "creates": null,
      "raw": "0xf86902850e2158a48d83015f9094793ae8c1b1a160bfc07bfb0d04f85eab1a71f4f280843ba150361ba0c0b2ce5efdf6e8fb13a72d567c996700d5891d2550fea8c388f723129002a7e0a018a8e002b44b69152a6ef6ee99251033c888573c032fa74c308f9b8f9c5db5b5",
      "networkId": 0,
      "chainId": 0
    }
  ]
}