{
  "hash": "0x4425582428d7878ba3e778b2668d8cc1d870f06f5e9ca9577b6d22b4bbce6048",
  "parentHash": "0xf65535541bd45e49015ac10daacc7879817c806a735b7b0ee6d24f02d2324ef0",
  "number": 109420,
  "timestamp": 1439956242,
  "nonce": "0x83a80b5dbf8649a8",
  "difficulty": 4468971423070,
  "gasLimit": {
    "_hex": "0x2fefd8"
  },
  "gasUsed": {
    "_hex": "0x5208"
  },
  "miner": "0xe6A7a1d47ff21B6321162AEA7C6CB457D5476Bca",
  "extraData": "0x476574682f76312e302e312d38326566323666362f6c696e75782f676f312e34",
  "transactions": [
    {
      "hash": "0xd326c95a4715727d1308e22730ad514c01d4f797f3bc0eb9de9c8b84e276019c",
      "blockHash": "0x4425582428d7878ba3e778b2668d8cc1d870f06f5e9ca9577b6d22b4bbce6048",
      "blockNumber": 109420,
      "transactionIndex": 0,
      "confirmations": null,
      "from": "0xF42B87d9E83eb6b6947aaBD558904Bc615C6091f",
      "gasPrice": {
        "_hex": "0xba43b7400"
      },
      "gasLimit": {
        "_hex": "0x5208"
      },
      "to": "0xC47Aaa860008be6f65B58c6C6E02a84e666EfE31",
      "value": {
        "_hex": "0x8ac3680c5ce46000"
      },
      "nonce": 3,
      "data": "0x",
      "r": "0x715ba4625de2bc5bc29d9bcb1113552533058563b7ea77eefe7195659fcc6bef",
      "s": "0x6e2fd6a5a59b581366cc843679aea0f0021c8373dcfa1a31c5fe53d46fd9491c",
      "v": 28,
      "creates": null,
      "raw": "0xf86c03850ba43b740082520894c47aaa860008be6f65b58c6c6e02a84e666efe31888ac3680c5ce46000801ca0715ba4625de2bc5bc29d9bcb1113552533058563b7ea77eefe7195659fcc6befa06e2fd6a5a59b581366cc843679aea0f0021c8373dcfa1a31c5fe53d46fd9491c",
      "networkId": 0,
      "chainId": 0
    }
  ]
}