{
  "hash": "0x192776293b86c7f7d0d8e704459f04e212307e85d9ed82f8fdbf16111374f154",
  "parentHash": "0x71670141bbfc6125c271e1423f0f47b5eddf4171a39484dc50620858e3c64bd7",
  "number": 89436,
  "timestamp": 1439623498,
  "nonce": "0xb215f436764debad",
  "difficulty": 3299848200162,
  "gasLimit": {
    "_hex": "0x2fefd8"
  },
  "gasUsed": {
    "_hex": "0x5208"
  },
  "miner": "0x2f6BCe4fc330B69C9B4c2694d57C63Ec7B18feC7",
  "extraData": "0x476574682f76312e302e312f77696e646f77732f676f312e342e32",
  "transactions": [
    {
      "hash": "0x18e8454e9f96c0fae84da438cff98c5beb047ee541f07221f5c968974bae650d",
      "blockHash": "0x192776293b86c7f7d0d8e704459f04e212307e85d9ed82f8fdbf16111374f154",
      "blockNumber": 89436,
      "transactionIndex": 0,
      "confirmations": null,
      "from": "0xA7e983CBCf86d16420529CF812f74cd86d397516",
      "gasPrice": {
        "_hex": "0xdee73227b"
      },
      "gasLimit": {
        "_hex": "0x15f90"
      },
      "to": "0x9c4dB3C798408A4e36e443c1141E182809BD5e50",
      "value": {
        "_hex": "0x29a2241af62c0000"
      },
      "nonce": 0,
      "data": "0x",
      "r": "0x9592490be758400c1b6886595c511d4346dd7104820bd5f0b8a86ec111eb6790",
      "s": "0x29ea9bdf06dd768b5456c202e481a373b3ec84b3a586f9d7246799402071bc77",
      "v": 28,
      "creates": null,
      "raw": "0xf86d80850dee73227b83015f90949c4db3c798408a4e36e443c1141e182809bd5e508829a2241af62c0000801ca09592490be758400c1b6886595c511d4346dd7104820bd5f0b8a86ec111eb6790a029ea9bdf06dd768b5456c202e481a373b3ec84b3a586f9d7246799402071bc77",
      "networkId": 0,
      "chainId": 0
    }
  ]
}