{
  "hash": "0xc2f8571ef859cc33ca55d1dd4863c0d5961b58eb8a7165f6e693dde48e521bef",
  "parentHash": "0xd794e06b664f86118c1667dfef6df41c708d44e9c5f653d03f120c59db2eb6e0",
  "number": 104943,
  "timestamp": 1439878777,
  "nonce": "0xebc1c2d841f9da09",
  "difficulty": 4331672351131,
  "gasLimit": {
    "_hex": "0x2fefd8"
  },
  "gasUsed": {
    "_hex": "0xf618"
  },
  "miner": "0xe6A7a1d47ff21B6321162AEA7C6CB457D5476Bca",
  "extraData": "0x476574682f76312e302e312d38326566323666362f6c696e75782f676f312e34",
  "transactions": [
    {
      "hash": "0xe4af63482ac0a85179ca83c946e2f1d6dcb591610e9f4aad8a7dc0f234b4d291",
      "blockHash": "0xc2f8571ef859cc33ca55d1dd4863c0d5961b58eb8a7165f6e693dde48e521bef",
      "blockNumber": 104943,
      "transactionIndex": 0,
      "confirmations": null,
      "from": "0x576F13DdEd1f2AD6B9D55EE8A1B67815ee7C92d9",
      "gasPrice": {
        "_hex": "0xcdf97323b"
      },
      "gasLimit": {
        "_hex": "0x5208"
      },
      "to": "0x32Be343B94f860124dC4fEe278FDCBD38C102D88",
      "value": {
        "_hex": "0x8f1d1aca58de90000"
      },
      "nonce": 2,
      "data": "0x",
      "r": "0x870026575acab61c0ff95ecab5d77dc5b36a8661b6922a89deef8ebf05663203",
      "s": "0x53e05dbb531203167f183667d56fd329b964d52c001be4f68a7403d64005809a",
      "v": 27,
      "creates": null,
      "raw": "0xf86d02850cdf97323b8252089432be343b94f860124dc4fee278fdcbd38c102d888908f1d1aca58de90000801ba0870026575acab61c0ff95ecab5d77dc5b36a8661b6922a89deef8ebf05663203a053e05dbb531203167f183667d56fd329b964d52c001be4f68a7403d64005809a",
      "networkId": 0,
      "chainId": 0
    },
    {
      "hash": "0xe39f123a8d810a361854c725241e1aa2f424580b08ef6b975c1dd397b45f41a8",
      "blockHash": "0xc2f8571ef859cc33ca55d1dd4863c0d5961b58eb8a7165f6e693dde48e521bef",
      "blockNumber": 104943,
      "transactionIndex": 1,
      "confirmations": null,
      "from": "0xa70a9a7040d542C632D8e0bE7c5513A8a5Bbc752",
      "gasPrice": {
        "_hex": "0xcdf97323b"
      },
      "gasLimit": {
        "_hex": "0x5208"
      },
      "to": "0x32Be343B94f860124dC4fEe278FDCBD38C102D88",
      "value": {
        "_hex": "0x796a1e9dfb92a400"
      },
      "nonce": 239,
      "data": "0x",
      "r": "0x0ec0d929c5ed28165cafa46483bf15e888b56562540bba5a7db25efa9f064969",
      "s": "0x5445cb414790409980075131a18a4ced880c5ce8534ab4d0c0c76b705ca20820",
      "v": 27,
      "creates": null,
      "raw": "0xf86d81ef850cdf97323b8252089432be343b94f860124dc4fee278fdcbd38c102d8888796a1e9dfb92a400801ba00ec0d929c5ed28165cafa46483bf15e888b56562540bba5a7db25efa9f064969a05445cb414790409980075131a18a4ced880c5ce8534ab4d0c0c76b705ca20820",
      "networkId": 0,
      "chainId": 0
    },
    {
      "hash": "0xabc5ae34e843ff068488daac431633fd5cc57b458e637c2f6015413d37443db2",
      "blockHash": "0xc2f8571ef859cc33ca55d1dd4863c0d5961b58eb8a7165f6e693dde48e521bef",
      "blockNumber": 104943,
      "transactionIndex": 2,
      "confirmations": null,
      "from": "0xB0bF4A71F730782368Ef660FE6D298F432F95450",
      "gasPrice": {
        "_hex": "0xcdf97323b"
      },
      "gasLimit": {
        "_hex": "0x5208"
      },
      "to": "0x32Be343B94f860124dC4fEe278FDCBD38C102D88",
      "value": {
        "_hex": "0xad78a9c571d138000"
      },
      "nonce": 31,
      "data": "0x",
      "r": "0xd5c2a1b32aa2624750eea61a8874cdd5320f1b380104329b12e5fbb96a1ee9cf",
      "s": "0x30279bb59eb2b135cd10a877d2dbdc5a0a8ffe49f85a79ea142dca784d492b86",
      "v": 27,
      "creates": null,
      "raw": "0xf86d1f850cdf97323b8252089432be343b94f860124dc4fee278fdcbd38c102d88890ad78a9c571d138000801ba0d5c2a1b32aa2624750eea61a8874cdd5320f1b380104329b12e5fbb96a1ee9cfa030279bb59eb2b135cd10a877d2dbdc5a0a8ffe49f85a79ea142dca784d492b86",
      "networkId": 0,
      "chainId": 0
    }
  ]
}