{
  "hash": "0xaf51118ca2bb05adb13551d5a0849a20eec77347132af375deb834936d948d5b",
  "parentHash": "0xd0b4ecc321030be6289231c80f5041f58041371d64bf65529c96db0c08995b34",
  "number": 65055,
  "timestamp": 1439230515,
  "nonce": "0xeefd484e08db2e02",
  "difficulty": 1927561096098,
  "gasLimit": {
    "_hex": "0x2fefd8"
  },
  "gasUsed": {
    "_hex": "0xa410"
  },
  "miner": "0x346Ad0cADdD5A8b2CAfd5b363414E4AE348db24c",
  "extraData": "0x",
  "transactions": [
    {
      "hash": "0x2a24bf45db73241a690879b046ccbe557f7b01ed07f32aa603029e53460359db",
      "blockHash": "0xaf51118ca2bb05adb13551d5a0849a20eec77347132af375deb834936d948d5b",
      "blockNumber": 65055,
      "transactionIndex": 0,
      "confirmations": null,
      "from": "0xbB0A69432580bEf65A55A0D54F4b6726397df0b1",
      "gasPrice": {
        "_hex": "0xba43b7400"
      },
      "gasLimit": {
        "_hex": "0x5208"
      },
      "to": "0xaDD913A0f724d1f77afd1011e623E2f4593a5a5C",
      "value": {
        "_hex": "0x3bd4afc414ee000"
      },
      "nonce": 1,
      "data": "0x",
      "r": "0xc273c890e25c5de9e1e54f604a3d784623123f098d99f5754b10d048b13ee5de",
      "s": "0x1e3bbb362838fbbb0664bc95597540ee2603c5c28fe06e313d32bc371428278c",
      "v": 28,
      "creates": null,
      "raw": "0xf86c01850ba43b740082520894add913a0f724d1f77afd1011e623e2f4593a5a5c8803bd4afc414ee000801ca0c273c890e25c5de9e1e54f604a3d784623123f098d99f5754b10d048b13ee5dea01e3bbb362838fbbb0664bc95597540ee2603c5c28fe06e313d32bc371428278c",
      "networkId": 0,
      "chainId": 0
    },
    {
      "hash": "0x66b1bea75c380d4635b60487f5c1348ec837827e16d2cdd0d8aba0b109290dd7",
      "blockHash": "0xaf51118ca2bb05adb13551d5a0849a20eec77347132af375deb834936d948d5b",
      "blockNumber": 65055,
      "transactionIndex": 1,
      "confirmations": null,
      "from": "0x983244e66CD0D5744656CB320130BE887E8c43c5",
      "gasPrice": {
        "_hex": "0xba43b7400"
      },
      "gasLimit": {
        "_hex": "0x5208"
      },
      "to": "0xcc85ABF21744FF9dbfdEAb2F1D8e4EB94d9dEC90",
      "value": {
        "_hex": "0x360be48db0d2000"
      },
      "nonce": 1,
      "data": "0x",
      "r": "0x4b44959d7df9404b9be0a883d330df96691c193e42d24c1f09dff5267fed9573",
      "s": "0x7ecc0a813cb4cdb647fc918e3b57eff847eea8bd42bba884c8d92b66730fbbd1",
      "v": 28,
      "creates": null,
      "raw": "0xf86c01850ba43b740082520894cc85abf21744ff9dbfdeab2f1d8e4eb94d9dec90880360be48db0d2000801ca04b44959d7df9404b9be0a883d330df96691c193e42d24c1f09dff5267fed9573a07ecc0a813cb4cdb647fc918e3b57eff847eea8bd42bba884c8d92b66730fbbd1",
      "networkId": 0,
      "chainId": 0
    }
  ]
}