{
  "hash": "0xee130b94e81de22a887c9d243d44a6c3858f480d978ac1b83943e5865a5f26f9",
  "parentHash": "0x6f3b762aae5ed410726ad4f4fac52e1dd23345881415b67637023d1ae0d0a048",
  "number": 90090,
  "timestamp": 1439634209,
  "nonce": "0x23febed482e2c226",
  "difficulty": 3328719074834,
  "gasLimit": {
    "_hex": "0x2fefd8"
  },
  "gasUsed": {
    "_hex": "0x5208"
  },
  "miner": "0xf927a40C8B7F6E07c5af7FA2155B4864a4112B13",
  "extraData": "0x",
  "transactions": [
    {
      "hash": "0xe17ae39b0e36b6f63fb92abecc5bc89c522434f01302dbdbb329a73d7ad96f9d",
      "blockHash": "0xee130b94e81de22a887c9d243d44a6c3858f480d978ac1b83943e5865a5f26f9",
      "blockNumber": 90090,
      "transactionIndex": 0,
      "confirmations": null,
      "from": "0x92857A8BC0A6F66180324f49541C695A3a0Ff944",
      "gasPrice": {
        "_hex": "0xdb7e977e9"
      },
      "gasLimit": {
        "_hex": "0x5208"
      },
      "to": "0x32Be343B94f860124dC4fEe278FDCBD38C102D88",
      "value": {
        "_hex": "0x3afac2262737d4000"
      },
      "nonce": 3,
      "data": "0x",
      "r": "0x95f0c9173d58bfebc95a7ecd692b6fc26674445519996d2da805a99d0def1afb",
      "s": "0x40f0239e7c8f4fc4fc09bf7d74652ef709157eabc1b7ae153ad9446ab2e82662",
      "v": 27,
      "creates": null,
      "raw": "0xf86d03850db7e977e98252089432be343b94f860124dc4fee278fdcbd38c102d888903afac2262737d4000801ba095f0c9173d58bfebc95a7ecd692b6fc26674445519996d2da805a99d0def1afba040f0239e7c8f4fc4fc09bf7d74652ef709157eabc1b7ae153ad9446ab2e82662",
      "networkId": 0,
      "chainId": 0
    }
  ]
}