{
  "hash": "0x1c507974339d12454cb512b3c20b85ac81e604fdcf5b0300a0ead03ae117969f",
  "parentHash": "0x798f3929c0aba0c5d0cf81223c5d8fef54d2f3f9c9054caec7c779203662e946",
  "number": 71889,
  "timestamp": 1439343539,
  "nonce": "0xf6b36f860f6cbc1f",
  "difficulty": 2169683883344,
  "gasLimit": {
    "_hex": "0x2fefd8"
  },
  "gasUsed": {
    "_hex": "0xae73"
  },
  "miner": "0x63BBedc46A1113Ba7938CF7C18CCb5Aed20eC733",
  "extraData": "0x",
  "transactions": [
    {
      "hash": "0x76897ec9b5b82c20180d537784ee6888f15a9bf1ca02c9fac6a050d74de22335",
      "blockHash": "0x1c507974339d12454cb512b3c20b85ac81e604fdcf5b0300a0ead03ae117969f",
      "blockNumber": 71889,
      "transactionIndex": 0,
      "confirmations": null,
      "from": "0x17580B766f7453525ca4C6A88b01b50570EA088C",
      "gasPrice": {
        "_hex": "0xd23c4f7be"
      },
      "gasLimit": {
        "_hex": "0x61a80"
      },
      "to": "0x5Fe5B7546D1628f7348B023A0393de1FC825A4fD",
      "value": {
        "_hex": "0x29a2241af62c0000"
      },
      "nonce": 287,
      "data": "0xb595b8b50000000000000000000000000000000000000000000000000000000000000000",
      "r": "0xfa48081f1a113569da9237d6b53df85ca5871b16a397c2035de3a62eb4c83ba5",
      "s": "0x0573897fc044d66144b6de6fe5a3040960aacdcea323d1fa998a77402a62e4e8",
      "v": 27,
      "creates": null,
      "raw": "0xf89382011f850d23c4f7be83061a80945fe5b7546d1628f7348b023a0393de1fc825a4fd8829a2241af62c0000a4b595b8b500000000000000000000000000000000000000000000000000000000000000001ba0fa48081f1a113569da9237d6b53df85ca5871b16a397c2035de3a62eb4c83ba5a00573897fc044d66144b6de6fe5a3040960aacdcea323d1fa998a77402a62e4e8",
      "networkId": 0,
      "chainId": 0
    }
  ]
}