{
  "hash": "0x462d67be3bbd8bcccfe52740cddaa67bde437bbd4b6c812b97ca4201fc09a6ab",
  "parentHash": "0x3732863ea87604f5e56685c1394ed63b09b0fdddc10604f412d664980e394d69",
  "number": 63338,
  "timestamp": 1439202801,
  "nonce": "0xafe9e3a2c9fa10fa",
  "difficulty": 1828027551672,
  "gasLimit": {
    "_hex": "0x2fefd8"
  },
  "gasUsed": {
    "_hex": "0x1b00f"
  },
  "miner": "0x9746c7e1ef2bd21FF3997fa467593a89cb852BD0",
  "extraData": "0x476574682f76312e302e312f77696e646f77732f676f312e342e32",
  "transactions": [
    {
      "hash": "0xd408a4ab8b027d28704fc483425ae3a3d1f585dd9c6eec92d7105b2f6515d8d3",
      "blockHash": "0x462d67be3bbd8bcccfe52740cddaa67bde437bbd4b6c812b97ca4201fc09a6ab",
      "blockNumber": 63338,
      "transactionIndex": 0,
      "confirmations": null,
      "from": "0xdD38c62D238bE6bB72162aFeC32DDcceDd3A0A51",
      "gasPrice": {
        "_hex": "0xd60b7fdf3"
      },
      "gasLimit": {
        "_hex": "0x15f90"
      },
      "to": "0x2272D8d4dEc7DF90a36f03EFF778DECc6918F1A9",
      "value": {
        "_hex": "0x0"
      },
      "nonce": 5,
      "data": "0x432ced0455726c48696e7400000000000000000000000000000000000000000000000000",
      "r": "0x8f9c2103e18cfa17e31d332e7767e570841b4f6462d583831829fe584b77c279",
      "s": "0x57c01c40db858114eb510520e2c0a7ee151b1ae1570a62e055a2088e6a5db858",
      "v": 27,
      "creates": null,
      "raw": "0xf88905850d60b7fdf383015f90942272d8d4dec7df90a36f03eff778decc6918f1a980a4432ced0455726c48696e74000000000000000000000000000000000000000000000000001ba08f9c2103e18cfa17e31d332e7767e570841b4f6462d583831829fe584b77c279a057c01c40db858114eb510520e2c0a7ee151b1ae1570a62e055a2088e6a5db858",
      "networkId": 0,
      "chainId": 0
    },
    {
      "hash": "0xff2a92246ebe87c1ebe548fa83d94ee9da8f7579333bf13d737774e0e5ae8f7c",
      "blockHash": "0x462d67be3bbd8bcccfe52740cddaa67bde437bbd4b6c812b97ca4201fc09a6ab",
      "blockNumber": 63338,
      "transactionIndex": 1,
      "confirmations": null,
      "from": "0xdD38c62D238bE6bB72162aFeC32DDcceDd3A0A51",
      "gasPrice": {
        "_hex": "0xd60b7fdf3"
      },
      "gasLimit": {
        "_hex": "0x15f90"
      },
      "to": "0x2272D8d4dEc7DF90a36f03EFF778DECc6918F1A9",
      "value": {
        "_hex": "0x0"
      },
      "nonce": 6,
      "data": "0xbe99a98055726c48696e740000000000000000000000000000000000000000000000000000000000000000000000000087ad8fed4213f32f311779749b566d561846d9bc0000000000000000000000000000000000000000000000000000000000000001",
      "r": "0x416c5a0c5ffc732c6eb81f6aad8da04144d695855cbbcc94021b662db76f80ba",
      "s": "0x09815fe01fbd55fb0b94af1fcd48df0f2b764a05ef409ac8f3066636d74fe45a",
      "v": 28,
      "creates": null,
      "raw": "0xf8ca06850d60b7fdf383015f90942272d8d4dec7df90a36f03eff778decc6918f1a980b864be99a98055726c48696e740000000000000000000000000000000000000000000000000000000000000000000000000087ad8fed4213f32f311779749b566d561846d9bc00000000000000000000000000000000000000000000000000000000000000011ca0416c5a0c5ffc732c6eb81f6aad8da04144d695855cbbcc94021b662db76f80baa009815fe01fbd55fb0b94af1fcd48df0f2b764a05ef409ac8f3066636d74fe45a",
      "networkId": 0,
      "chainId": 0
    }
  ]
}