{
  "hash": "0x4bae204527a0b7f2c66cd56c5af8e8edaa6acad192b8315ec9f9c3808db00ef2",
  "parentHash": "0x052c61002e96dea2ded66fdf50655c89a4f14f17b99de422d3f1ce8e4d1aba14",
  "number": 49543,
  "timestamp": 1438975095,
  "nonce": "0xbf181a5b93591780",
  "difficulty": 1479202534023,
  "gasLimit": {
    "_hex": "0x35369"
  },
  "gasUsed": {
    "_hex": "0x546c"
  },
  "miner": "0x1B7047b4338ACf65bE94C1A3e8c5c9338ad7d67C",
  "extraData": "0x476574682f76312e302e312d38326566323666362f6c696e75782f676f312e34",
  "transactions": [
    {
      "hash": "0x6c0aaf490868c9133d3fc290569c21e759841977ceb5c01a31752184bae9cb61",
      "blockHash": "0x4bae204527a0b7f2c66cd56c5af8e8edaa6acad192b8315ec9f9c3808db00ef2",
      "blockNumber": 49543,
      "transactionIndex": 0,
      "confirmations": null,
      "from": "0x734223d27FF23E5906CaED22595701bB34830ca1",
      "gasPrice": {
        "_hex": "0x110c8f7d8de"
      },
      "gasLimit": {
        "_hex": "0xc350"
      },
      "to": "0x2910543Af39abA0Cd09dBb2D50200b3E800A63D2",
      "value": {
        "_hex": "0x8ac7230489e80000"
      },
      "nonce": 0,
      "data": "0x454e39395557415730",
      "r": "0x9eb0f79894012acba10812d57e0a33964e4629711f025bf4cee409b9615098b0",
      "s": "0x64b3df14dc123e80ed81fd731d6af47648042e69c81922b2505aa48a443e60a5",
      "v": 28,
      "creates": null,
      "raw": "0xf87680860110c8f7d8de82c350942910543af39aba0cd09dbb2d50200b3e800a63d2888ac7230489e8000089454e393955574157301ca09eb0f79894012acba10812d57e0a33964e4629711f025bf4cee409b9615098b0a064b3df14dc123e80ed81fd731d6af47648042e69c81922b2505aa48a443e60a5",
      "networkId": 0,
      "chainId": 0
    }
  ]
}