{
  "hash": "0x2a7f66e543e932aebcb3f6aa647867310677f14f9408e0ccf2034afeef32f523",
  "parentHash": "0xbcbd06ebd04efbb02546a2a5979e11def0f9cb8274f671405fa2aeead9cad6e1",
  "number": 65857,
  "timestamp": 1439244090,
  "nonce": "0x9e1748eb90de8892",
  "difficulty": 1946291063896,
  "gasLimit": {
    "_hex": "0x2fefd8"
  },
  "gasUsed": {
    "_hex": "0x5208"
  },
  "miner": "0x47ff6576639c2e94762eA5443978D7681C0E78DC",
  "extraData": "0x476574682f76312e302e312f6c696e75782f676f312e342e32",
  "transactions": [
    {
      "hash": "0x3a7d2b9b650d511f4bf5c9a5a8de1d843e707e043b28c53186d95c3111f68ce5",
      "blockHash": "0x2a7f66e543e932aebcb3f6aa647867310677f14f9408e0ccf2034afeef32f523",
      "blockNumber": 65857,
      "transactionIndex": 0,
      "confirmations": null,
      "from": "0xc8ebccC5F5689Fa8659d83713341e5aD19349448",
      "gasPrice": {
        "_hex": "0xd745ff53e"
      },
      "gasLimit": {
        "_hex": "0x15f90"
      },
      "to": "0xb77eE2c014eB53E7A79f2DE3f21CbbC369ACE8cB",
      "value": {
        "_hex": "0x3635c9adc5dea00000"
      },
      "nonce": 30,
      "data": "0x",
      "r": "0xbdc8845206f39a69bc2e7371d3977914992901c5fb5ac35193ff9cb5d3d3dc91",
      "s": "0x371ecb549212065030d8a859844c6c9e4b7b8b1605e027d46865af0ffee35258",
      "v": 28,
      "creates": null,
      "raw": "0xf86e1e850d745ff53e83015f9094b77ee2c014eb53e7a79f2de3f21cbbc369ace8cb893635c9adc5dea00000801ca0bdc8845206f39a69bc2e7371d3977914992901c5fb5ac35193ff9cb5d3d3dc91a0371ecb549212065030d8a859844c6c9e4b7b8b1605e027d46865af0ffee35258",
      "networkId": 0,
      "chainId": 0
    }
  ]
}