{
  "hash": "0x36baedacab76561799389d4e5f356b215aaa9c6cc5ab59e71e21c69f584c124a",
  "parentHash": "0x50f3205e72282c17dd559e9097f3c65ce812f96864e13fc6450fa683d397fe9a",
  "number": 93056,
  "timestamp": 1439681659,
  "nonce": "0x87784f5d95cf7f21",
  "difficulty": 3643899183839,
  "gasLimit": {
    "_hex": "0x2fefd8"
  },
  "gasUsed": {
    "_hex": "0x5208"
  },
  "miner": "0xe6A7a1d47ff21B6321162AEA7C6CB457D5476Bca",
  "extraData": "0x476574682f76312e302e312d38326566323666362f6c696e75782f676f312e34",
  "transactions": [
    {
      "hash": "0xf55469ab7c9afd959e7e139ddc4b72be22d311e170164c96e982e810b0f93672",
      "blockHash": "0x36baedacab76561799389d4e5f356b215aaa9c6cc5ab59e71e21c69f584c124a",
      "blockNumber": 93056,
      "transactionIndex": 0,
      "confirmations": null,
      "from": "0xCfebB5b10f63bFDbD624aC283c744706b3dF1d0D",
      "gasPrice": {
        "_hex": "0xd0385649d"
      },
      "gasLimit": {
        "_hex": "0x30d40"
      },
      "to": "0x120A270bbC009644e35F0bB6ab13f95b8199c4ad",
      "value": {
        "_hex": "0x45611612579f3dfc0"
      },
      "nonce": 0,
      "data": "0x",
      "r": "0x7873413ed082ace8138fb8dae27401d76ce812a017800643e375d6bf56b53202",
      "s": "0x743f2641e9d73b373a4cf13c5cab01b0d754963ed435789bc0ff18d479a52746",
      "v": 28,
      "creates": null,
      "raw": "0xf86e80850d0385649d83030d4094120a270bbc009644e35f0bb6ab13f95b8199c4ad89045611612579f3dfc0801ca07873413ed082ace8138fb8dae27401d76ce812a017800643e375d6bf56b53202a0743f2641e9d73b373a4cf13c5cab01b0d754963ed435789bc0ff18d479a52746",
      "networkId": 0,
      "chainId": 0
    }
  ]
}