{
  "hash": "0x175c4e31fa01375b238a23df88c6dfdeda1fad24e5fcae8064bf55a09d447935",
  "parentHash": "0x40918bfac4b5829c863f1ca7f8dedfa7d64fc0de61074464fb88a7da716eec3d",
  "number": 119668,
  "timestamp": 1440146844,
  "nonce": "0xe1ce03689e5dfc33",
  "difficulty": 4381459681727,
  "gasLimit": {
    "_hex": "0x2fefd8"
  },
  "gasUsed": {
    "_hex": "0xa410"
  },
  "miner": "0x9998bacdb32b1DDc6A36173a0E64a87904BD9b43",
  "extraData": "0x476574682f76312e302e322f6c696e75782f676f312e342e32",
  "transactions": [
    {
      "hash": "0x3f6d6ab9c0457a11d4d0b937582b7a650368f5bef7afd06e4c82ca656a090e08",
      "blockHash": "0x175c4e31fa01375b238a23df88c6dfdeda1fad24e5fcae8064bf55a09d447935",
      "blockNumber": 119668,
      "transactionIndex": 0,
      "confirmations": null,
      "from": "0x23f2D0fd3B4C98Fb1698564deB4898275E2e831f",
      "gasPrice": {
        "_hex": "0xba43b7400"
      },
      "gasLimit": {
        "_hex": "0x5208"
      },
      "to": "0x32Be343B94f860124dC4fEe278FDCBD38C102D88",
      "value": {
        "_hex": "0x455fd68a17f06000"
      },
      "nonce": 25,
      "data": "0x",
      "r": "0xea0aca76c6cb9bbd907c82a34fa9b0f37f5b7e759c1c7b4f201a7189e9f48e64",
      "s": "0x076d7dd0ed45e093a23b61e7689a2bd9691f9f8ee8df7aa9f0002e35cb74e1e0",
      "v": 28,
      "creates": null,
      "raw": "0xf86c19850ba43b74008252089432be343b94f860124dc4fee278fdcbd38c102d8888455fd68a17f06000801ca0ea0aca76c6cb9bbd907c82a34fa9b0f37f5b7e759c1c7b4f201a7189e9f48e64a0076d7dd0ed45e093a23b61e7689a2bd9691f9f8ee8df7aa9f0002e35cb74e1e0",
      "networkId": 0,
      "chainId": 0
    },
    {
      "hash": "0xed7d6b1665da7c2898fe34d9bc2e5d9c28d83497ffb20bf3c8db8ca6b12585b3",
      "blockHash": "0x175c4e31fa01375b238a23df88c6dfdeda1fad24e5fcae8064bf55a09d447935",
      "blockNumber": 119668,
      "transactionIndex": 1,
      "confirmations": null,
      "from": "0x6d921977dEFE5f4e0682CA512De1D07b1f4802E1",
      "gasPrice": {
        "_hex": "0xba43b7400"
      },
      "gasLimit": {
        "_hex": "0x5208"
      },
      "to": "0x32Be343B94f860124dC4fEe278FDCBD38C102D88",
      "value": {
        "_hex": "0x1314c03aa5ac1c000"
      },
      "nonce": 29,
      "data": "0x",
      "r": "0x208484afdff33d8b42297cff077947415be390797ef71652cae5f1d06263c38a",
      "s": "0x77c7d95cc033f56e6e312f0d9eac94df7ba2b9d67e0f4ec65c6a1ae5891fa249",
      "v": 28,
      "creates": null,
      "raw": "0xf86d1d850ba43b74008252089432be343b94f860124dc4fee278fdcbd38c102d888901314c03aa5ac1c000801ca0208484afdff33d8b42297cff077947415be390797ef71652cae5f1d06263c38aa077c7d95cc033f56e6e312f0d9eac94df7ba2b9d67e0f4ec65c6a1ae5891fa249",
      "networkId": 0,
      "chainId": 0
    }
  ]
}