{
  "hash": "0xcc9b23daa9c732434bab871e0ad31f3fc7ec8ed987b47b295675c00cd44ff491",
  "parentHash": "0xdea0acfd65e86eb21a6c97ccffc68376d16ad74f4c3388d3de18772ce8b475c8",
  "number": 63915,
  "timestamp": 1439212310,
  "nonce": "0x8a369f50cc4ef8f1",
  "difficulty": 1850351818910,
  "gasLimit": {
    "_hex": "0x2fefd5"
  },
  "gasUsed": {
    "_hex": "0x5208"
  },
  "miner": "0x0Cb6EEF179Ba9E7036f95bEEB01e250ab85A8c88",
  "extraData": "0x476574682f76312e302e312f77696e646f77732f676f312e342e32",
  "transactions": [
    {
      "hash": "0xda9614ba4dd0472d58999c7d6fec4cb395752e1bc85e6af948d05a25fee2a270",
      "blockHash": "0xcc9b23daa9c732434bab871e0ad31f3fc7ec8ed987b47b295675c00cd44ff491",
      "blockNumber": 63915,
      "transactionIndex": 0,
      "confirmations": null,
      "from": "0xA8ACa748f9D312eC747F8B6578142694C7E9f399",
      "gasPrice": {
        "_hex": "0x119adb459bb"
      },
      "gasLimit": {
        "_hex": "0x15f90"
      },
      "to": "0xB67b6BB30Bb68ED96f23f1fB8C6Da01B3C37F6D4",
      "value": {
        "_hex": "0x56bc75e2d63100000"
      },
      "nonce": 4,
      "data": "0x",
      "r": "0xe727e9b0c33a284bf0c7f4fca7f5292b62201c199a59c199c32947aa65df03d1",
      "s": "0x6e7ffd5cb1a9ca64cbc68c9a581b40846b91fa479fc7e068db502f96841545f1",
      "v": 28,
      "creates": null,
      "raw": "0xf86f04860119adb459bb83015f9094b67b6bb30bb68ed96f23f1fb8c6da01b3c37f6d489056bc75e2d63100000801ca0e727e9b0c33a284bf0c7f4fca7f5292b62201c199a59c199c32947aa65df03d1a06e7ffd5cb1a9ca64cbc68c9a581b40846b91fa479fc7e068db502f96841545f1",
      "networkId": 0,
      "chainId": 0
    }
  ]
}