{
  "hash": "0x5056dba12a7b1b27595e779e808d053b5b818db426a53f12c3cee9890441b15a",
  "parentHash": "0x6495d3acabaa0aaa884ebb9b10a6465a1d51f626f016b638a7eb6446a4728c07",
  "number": 71213,
  "timestamp": 1439332565,
  "nonce": "0xb45d1007a76fccaf",
  "difficulty": 2144579113464,
  "gasLimit": {
    "_hex": "0x2fefd8"
  },
  "gasUsed": {
    "_hex": "0x5208"
  },
  "miner": "0xe6A7a1d47ff21B6321162AEA7C6CB457D5476Bca",
  "extraData": "0x476574682f76312e302e312d38326566323666362f6c696e75782f676f312e34",
  "transactions": [
    {
      "hash": "0x655ed3f30380705681fa2c3e1fc0b125c5a0f668863f21809ad318c031e73b6e",
      "blockHash": "0x5056dba12a7b1b27595e779e808d053b5b818db426a53f12c3cee9890441b15a",
      "blockNumber": 71213,
      "transactionIndex": 0,
      "confirmations": null,
      "from": "0xdB6661457cC742E155bb2ca59EF030d4827D7305",
      "gasPrice": {
        "_hex": "0xd1e273395"
      },
      "gasLimit": {
        "_hex": "0x15f90"
      },
      "to": "0x120A270bbC009644e35F0bB6ab13f95b8199c4ad",
      "value": {
        "_hex": "0xdbd2fc137a30000"
      },
      "nonce": 0,
      "data": "0x",
      "r": "0x2344bda2c4dd351a91d0b5b1f2a2aee8bc906407c2da39baf2c3a6592e2754cd",
      "s": "0x5f287a4375231711c8856f05b8a41f34d6501557a25c8171d46b226f62cae7d5",
      "v": 27,
      "creates": null,
      "raw": "0xf86d80850d1e27339583015f9094120a270bbc009644e35f0bb6ab13f95b8199c4ad880dbd2fc137a30000801ba02344bda2c4dd351a91d0b5b1f2a2aee8bc906407c2da39baf2c3a6592e2754cda05f287a4375231711c8856f05b8a41f34d6501557a25c8171d46b226f62cae7d5",
      "networkId": 0,
      "chainId": 0
    }
  ]
}