{
  "hash": "0xda0d4d8ca313be1d0384c82c5393198fc64cbd357bc395864315150a29de95a6",
  "parentHash": "0x9509dc1a8008c15155e0b6bd75b939ef4995eb2c33f95f9f2fb2e70e41468fac",
  "number": 81707,
  "timestamp": 1439506351,
  "nonce": "0x70bf64986c8546bb",
  "difficulty": 2429459745365,
  "gasLimit": {
    "_hex": "0x2fefd8"
  },
  "gasUsed": {
    "_hex": "0xa410"
  },
  "miner": "0xa38452C89bC6ad5Cded12A54D0F75b73472DC019",
  "extraData": "0x",
  "transactions": [
    {
      "hash": "0xaba093dd8a1392cc686a4101560b80e855058545513a7efc959bbb89070efc77",
      "blockHash": "0xda0d4d8ca313be1d0384c82c5393198fc64cbd357bc395864315150a29de95a6",
      "blockNumber": 81707,
      "transactionIndex": 0,
      "confirmations": null,
      "from": "0x2910543Af39abA0Cd09dBb2D50200b3E800A63D2",
      "gasPrice": {
        "_hex": "0xdc1b9f7b6"
      },
      "gasLimit": {
        "_hex": "0x5208"
      },
      "to": "0x5c59E28366c83f1d262567c1c529185146e68b16",
      "value": {
        "_hex": "0x3635b7ea4ca6bf8000"
      },
      "nonce": 496,
      "data": "0x",
      "r": "0xa5b0cace6ac14c4435a7d36008a798a88959dab58795854212dcaab74bb6354d",
      "s": "0x57f84d90dadfe154abfa27ecc83dcb7ca60f7f52e12189390f288446ccbf2575",
      "v": 28,
      "creates": null,
      "raw": "0xf86f8201f0850dc1b9f7b6825208945c59e28366c83f1d262567c1c529185146e68b16893635b7ea4ca6bf8000801ca0a5b0cace6ac14c4435a7d36008a798a88959dab58795854212dcaab74bb6354da057f84d90dadfe154abfa27ecc83dcb7ca60f7f52e12189390f288446ccbf2575",
      "networkId": 0,
      "chainId": 0
    },
    {
      "hash": "0xbf03c7f8b6b06fe7cf33f33faf6f0ba3e570eefc04c5f0228df9fe86552051ff",
      "blockHash": "0xda0d4d8ca313be1d0384c82c5393198fc64cbd357bc395864315150a29de95a6",
      "blockNumber": 81707,
      "transactionIndex": 1,
      "confirmations": null,
      "from": "0x120A270bbC009644e35F0bB6ab13f95b8199c4ad",
      "gasPrice": {
        "_hex": "0xcecc33def"
      },
      "gasLimit": {
        "_hex": "0x3d090"
      },
      "to": "0x165DB02387e60a7B60543016becF54E195c39966",
      "value": {
        "_hex": "0x2b5e3af16b1880000"
      },
      "nonce": 388,
      "data": "0x",
      "r": "0xdb6145580b715e6116803928976057e70a9f7b408e374af89860cc2018e0f620",
      "s": "0x2bd1fdf5b609c3210314187c7dad64df6d79a6b64b029a5f3fcb15cdfe09e6b9",
      "v": 27,
      "creates": null,
      "raw": "0xf870820184850cecc33def8303d09094165db02387e60a7b60543016becf54e195c399668902b5e3af16b1880000801ba0db6145580b715e6116803928976057e70a9f7b408e374af89860cc2018e0f620a02bd1fdf5b609c3210314187c7dad64df6d79a6b64b029a5f3fcb15cdfe09e6b9",
      "networkId": 0,
      "chainId": 0
    }
  ]
}