{
  "hash": "0xd9ca4b4639ed27e9d4f656119366d1a5b445876227e215e47c1d7cf7ce5c669d",
  "parentHash": "0x732c791ed16aef38db6d62db2c85aca98016c6cf5572e4c79ed61b54917e629f",
  "number": 87547,
  "timestamp": 1439593896,
  "nonce": "0x3652fbd57ffcaec0",
  "difficulty": 3150984461339,
  "gasLimit": {
    "_hex": "0x2fefd8"
  },
  "gasUsed": {
    "_hex": "0x5208"
  },
  "miner": "0xa50ec0D39fa913E62f1Bae7074E6F36caA71855b",
  "extraData": "0xd783010001844765746887676f312e342e32856c696e7578",
  "transactions": [
    {
      "hash": "0xca2ebbcdcfcbd8e03383af1d9f76cdd92984c850fff5c6e7cf075136d03f643d",
      "blockHash": "0xd9ca4b4639ed27e9d4f656119366d1a5b445876227e215e47c1d7cf7ce5c669d",
      "blockNumber": 87547,
      "transactionIndex": 0,
      "confirmations": null,
      "from": "0x2910543Af39abA0Cd09dBb2D50200b3E800A63D2",
      "gasPrice": {
        "_hex": "0xdcfc71adc"
      },
      "gasLimit": {
        "_hex": "0x5208"
      },
      "to": "0xb2169f1326FE9745321aD99563654089bAdf09eb",
      "value": {
        "_hex": "0x340990ea2038f8000"
      },
      "nonce": 708,
      "data": "0x",
      "r": "0xe489ebbd867130eece72fe6c3102c92a36d0557e2e050fdb3b42823ccbb8377e",
      "s": "0x36a5c1fd9f8b7a8b6d0d0488bdbd496e34c23dc1296e11b3f9fdda8d25e686d3",
      "v": 27,
      "creates": null,
      "raw": "0xf86f8202c4850dcfc71adc82520894b2169f1326fe9745321ad99563654089badf09eb890340990ea2038f8000801ba0e489ebbd867130eece72fe6c3102c92a36d0557e2e050fdb3b42823ccbb8377ea036a5c1fd9f8b7a8b6d0d0488bdbd496e34c23dc1296e11b3f9fdda8d25e686d3",
      "networkId": 0,
      "chainId": 0
    }
  ]
}