{
  "hash": "0x75d986c401a15d23d24f00b9b57f9c8b3dec55d1e633797b516e7da212a30d60",
  "parentHash": "0x8c01d51c059b2fe5e60a300952861302bb9902027e8f0723557874763eb5dc56",
  "number": 98233,
  "timestamp": 1439769212,
  "nonce": "0x7b4e1e1cc6afd1ba",
  "difficulty": 3870843055762,
  "gasLimit": {
    "_hex": "0x2fefd8"
  },
  "gasUsed": {
    "_hex": "0x5208"
  },
  "miner": "0xe64D681b0eBCa2997D5f35e72EbC7777973299D7",
  "extraData": "0x",
  "transactions": [
    {
      "hash": "0xe148ce2f67ec4f8ced9b105a57c75a42716e90a0d2fd533e130ec5e887c4bf8a",
      "blockHash": "0x75d986c401a15d23d24f00b9b57f9c8b3dec55d1e633797b516e7da212a30d60",
      "blockNumber": 98233,
      "transactionIndex": 0,
      "confirmations": null,
      "from": "0x419bdE7316CC1Ed295c885aCe342C79bf7Ee33eA",
      "gasPrice": {
        "_hex": "0x11504f24122"
      },
      "gasLimit": {
        "_hex": "0x55f0"
      },
      "to": "0x67A75F5fBBCa0974C961b43E7D62204a4093c1Bb",
      "value": {
        "_hex": "0xa25bf977cf56ec0000"
      },
      "nonce": 2,
      "data": "0x",
      "r": "0xfa332cee617480ffb5a7016ec8577666f382eb0e59740289343cd32212c58f0a",
      "s": "0x75be854cd3a1a7b042a42d19e0de5d412e8a1934d1c83f0eae2b46fa37b765a1",
      "v": 28,
      "creates": null,
      "raw": "0xf86e0286011504f241228255f09467a75f5fbbca0974c961b43e7d62204a4093c1bb89a25bf977cf56ec0000801ca0fa332cee617480ffb5a7016ec8577666f382eb0e59740289343cd32212c58f0aa075be854cd3a1a7b042a42d19e0de5d412e8a1934d1c83f0eae2b46fa37b765a1",
      "networkId": 0,
      "chainId": 0
    }
  ]
}