{
  "hash": "0x44bd223b8f5c52c08840b515c4073a22a8f09ab0a6d1091374dbc14c4e36c1e6",
  "parentHash": "0xfd4953bb02f2d660223fb3a5a1e8048a9e61516c3097b6e597bbbd73963841ff",
  "number": 110813,
  "timestamp": 1439979935,
  "nonce": "0x9d23868653c3503e",
  "difficulty": 4396808489159,
  "gasLimit": {
    "_hex": "0x2fefd8"
  },
  "gasUsed": {
    "_hex": "0x5208"
  },
  "miner": "0x580992B51e3925e23280EfB93d3047C82f17E038",
  "extraData": "0x476574682f76312e302e312f6c696e75782f676f312e342e32",
  "transactions": [
    {
      "hash": "0x634875264e5e8bb32e9158609f03a0a090693a3ba5d44823221ca2d4179d60c6",
      "blockHash": "0x44bd223b8f5c52c08840b515c4073a22a8f09ab0a6d1091374dbc14c4e36c1e6",
      "blockNumber": 110813,
      "transactionIndex": 0,
      "confirmations": null,
      "from": "0x007f7f58D3eb5b7510A301eCC749FC1fCDDBE14D",
      "gasPrice": {
        "_hex": "0xd382b0b9c"
      },
      "gasLimit": {
        "_hex": "0x15f90"
      },
      "to": "0xb1abce2918E21ddb93AA452731a12672A3d9F75a",
      "value": {
        "_hex": "0x4563918244f40000"
      },
      "nonce": 295,
      "data": "0x",
      "r": "0xa14f6992f641695549464cea5548672d04393092d2f33b61d5b4cdccfe7ce2c6",
      "s": "0x5129bdaa1b3fffb8c552708d1bfc857bab0d3e4a25e1fd86f405af6573a2315c",
      "v": 27,
      "creates": null,
      "raw": "0xf86f820127850d382b0b9c83015f9094b1abce2918e21ddb93aa452731a12672a3d9f75a884563918244f40000801ba0a14f6992f641695549464cea5548672d04393092d2f33b61d5b4cdccfe7ce2c6a05129bdaa1b3fffb8c552708d1bfc857bab0d3e4a25e1fd86f405af6573a2315c",
      "networkId": 0,
      "chainId": 0
    }
  ]
}