{
  "hash": "0x8e217bf576b870ef1acec5e2fe447335621c70c52a83a3843779771885bec087",
  "parentHash": "0x1cbbe3a302141c8d8d576869961993782210c53e0a17ca7339bb61ffe21c0316",
  "number": 71481,
  "timestamp": 1439336800,
  "nonce": "0x2b4c079eae34752e",
  "difficulty": 2178281730011,
  "gasLimit": {
    "_hex": "0x2fefd8"
  },
  "gasUsed": {
    "_hex": "0xae73"
  },
  "miner": "0xe6A7a1d47ff21B6321162AEA7C6CB457D5476Bca",
  "extraData": "0x476574682f76312e302e312d38326566323666362f6c696e75782f676f312e34",
  "transactions": [
    {
      "hash": "0xda9c15f9027885ee780dad3d33f0f3b19f20ad2ce16d71446092c4228612219b",
      "blockHash": "0x8e217bf576b870ef1acec5e2fe447335621c70c52a83a3843779771885bec087",
      "blockNumber": 71481,
      "transactionIndex": 0,
      "confirmations": null,
      "from": "0x17580B766f7453525ca4C6A88b01b50570EA088C",
      "gasPrice": {
        "_hex": "0xde172a017"
      },
      "gasLimit": {
        "_hex": "0x61a80"
      },
      "to": "0x5Fe5B7546D1628f7348B023A0393de1FC825A4fD",
      "value": {
        "_hex": "0x6124fee993bc0000"
      },
      "nonce": 204,
      "data": "0xb595b8b50000000000000000000000000000000000000000000000000000000000000000",
      "r": "0x89edd085f93b280b771270cd1b7f1eca51aa0b5123d7b0eb14bc15606fa4358c",
      "s": "0x3a15163884dafe6be16ac5a4aa72e495b7eee3819bb4945cab61b083278c8961",
      "v": 27,
      "creates": null,
      "raw": "0xf89281cc850de172a01783061a80945fe5b7546d1628f7348b023a0393de1fc825a4fd886124fee993bc0000a4b595b8b500000000000000000000000000000000000000000000000000000000000000001ba089edd085f93b280b771270cd1b7f1eca51aa0b5123d7b0eb14bc15606fa4358ca03a15163884dafe6be16ac5a4aa72e495b7eee3819bb4945cab61b083278c8961",
      "networkId": 0,
      "chainId": 0
    }
  ]
}