{
  "hash": "0xb6748c0a6587e709b52e415c4280674c0348d05236d49037ae36570e1de4ba69",
  "parentHash": "0xabad99e253beb633764b42ea4ded2c18fe0e81498d578f9297674e3f0f2be074",
  "number": 47792,
  "timestamp": 1438946416,
  "nonce": "0x38e2bb54fd82c8d4",
  "difficulty": 1453021878598,
  "gasLimit": {
    "_hex": "0xf352"
  },
  "gasUsed": {
    "_hex": "0x5208"
  },
  "miner": "0xab84940B570d6358ed6A9Dbf7e0bc8Ec8F5A6E89",
  "extraData": "0x322831652933",
  "transactions": [
    {
      "hash": "0x976a728bed09647eeb1d13548397435edc8d805f48e7199dbe4d9d97adc791a0",
      "blockHash": "0xb6748c0a6587e709b52e415c4280674c0348d05236d49037ae36570e1de4ba69",
      "blockNumber": 47792,
      "transactionIndex": 0,
      "confirmations": null,
      "from": "0x3994edd5d1447C91d3Db3A7D483E745E0378F6E6",
      "gasPrice": {
        "_hex": "0xba43b7400"
      },
      "gasLimit": {
        "_hex": "0x5208"
      },
      "to": "0x9dF32A501C0b781c0281022f42A1293FfD7B892a",
      "value": {
        "_hex": "0x36439fbbfd97b08000"
      },
      "nonce": 1,
      "data": "0x",
      "r": "0xed2d1515d449e0308ca7dc9da216e0a911a50d62dfce396c34e218a59e15c2b1",
      "s": "0x5b11450e7bc13837e1aeb6ca8c7245f49d1cf5a232b04a1e6d038ce85f4b49d8",
      "v": 28,
      "creates": null,
      "raw": "0xf86d01850ba43b7400825208949df32a501c0b781c0281022f42a1293ffd7b892a8936439fbbfd97b08000801ca0ed2d1515d449e0308ca7dc9da216e0a911a50d62dfce396c34e218a59e15c2b1a05b11450e7bc13837e1aeb6ca8c7245f49d1cf5a232b04a1e6d038ce85f4b49d8",
      "networkId": 0,
      "chainId": 0
    }
  ]
}