{
  "hash": "0xc21b75da348fcc0e1bdd4ce599a997000505c63148e5ccdd07491d76a9bf1705",
  "parentHash": "0x7fe45a7c9c20d2698137502e652948090139dc0fce4a72f9cef2e22f5522aed8",
  "number": 80316,
  "timestamp": 1439483704,
  "nonce": "0x92dd3ad65721b610",
  "difficulty": 2377054384952,
  "gasLimit": {
    "_hex": "0x2fefd8"
  },
  "gasUsed": {
    "_hex": "0x57b4"
  },
  "miner": "0x6541237dAaFf6688A79f9F2F370Ca0E7Ee20BD33",
  "extraData": "0x476574682f76312e302e312f77696e646f77732f676f312e342e32",
  "transactions": [
    {
      "hash": "0x820b74de68e4540147b0bd09fc5ff2215862874c641962713f1d4d137b8806ac",
      "blockHash": "0xc21b75da348fcc0e1bdd4ce599a997000505c63148e5ccdd07491d76a9bf1705",
      "blockNumber": 80316,
      "transactionIndex": 0,
      "confirmations": null,
      "from": "0x87C5B5874A18B4306DF8a752a6C8cc3E82daFc19",
      "gasPrice": {
        "_hex": "0x117868f1c28"
      },
      "gasLimit": {
        "_hex": "0x493e0"
      },
      "to": "0xC4c51de1AbF5D60DBd329eC0F999Fd8f021ae9fC",
      "value": {
        "_hex": "0x0"
      },
      "nonce": 171,
      "data": "0xbd66528a6b6b6b0000000000000000000000000000000000000000000000000000000000",
      "r": "0x1b7833e611b33b379e87521a8384699aac678571abdbc4a8fa6071a87c8ea8ad",
      "s": "0x11106cc3049b96aed1145c74ac10ddfc8eba78784fc4c85ee3c6d92eb2865eef",
      "v": 27,
      "creates": null,
      "raw": "0xf88b81ab860117868f1c28830493e094c4c51de1abf5d60dbd329ec0f999fd8f021ae9fc80a4bd66528a6b6b6b00000000000000000000000000000000000000000000000000000000001ba01b7833e611b33b379e87521a8384699aac678571abdbc4a8fa6071a87c8ea8ada011106cc3049b96aed1145c74ac10ddfc8eba78784fc4c85ee3c6d92eb2865eef",
      "networkId": 0,
      "chainId": 0
    }
  ]
}