{
  "hash": "0x52910d9b69ea55c8743e1c8125dfc67562896fded11d1d014da7fbb264d5bf02",
  "parentHash": "0x9588ff573dd23aec8fa5dffbd558f64d9209d4e83183361d187e5d45dadba703",
  "number": 102308,
  "timestamp": 1439835900,
  "nonce": "0x84231efaa17e1a95",
  "difficulty": 3939496632717,
  "gasLimit": {
    "_hex": "0x2fefd8"
  },
  "gasUsed": {
    "_hex": "0x5208"
  },
  "miner": "0xe6A7a1d47ff21B6321162AEA7C6CB457D5476Bca",
  "extraData": "0x476574682f76312e302e312d38326566323666362f6c696e75782f676f312e34",
  "transactions": [
    {
      "hash": "0xd46b6ae72913c1a1e002a5a2fe79d29521e34666ae7ca4041d0ed6de1baff6c6",
      "blockHash": "0x52910d9b69ea55c8743e1c8125dfc67562896fded11d1d014da7fbb264d5bf02",
      "blockNumber": 102308,
      "transactionIndex": 0,
      "confirmations": null,
      "from": "0x99EeA495a82E66C97304a6b07FA8Cb29eeb781A5",
      "gasPrice": {
        "_hex": "0xcc7c25474"
      },
      "gasLimit": {
        "_hex": "0x5208"
      },
      "to": "0x32Be343B94f860124dC4fEe278FDCBD38C102D88",
      "value": {
        "_hex": "0x1e71827a60a21c000"
      },
      "nonce": 2,
      "data": "0x",
      "r": "0x7c369b6d89fffbba3d1ddcca780120b707816fb9f000bdc01365830a339887bb",
      "s": "0x10beabdeacd1e22edc6e042c9a5f55aa53485f559b6f997fd846612e9f1ee23c",
      "v": 27,
      "creates": null,
      "raw": "0xf86d02850cc7c254748252089432be343b94f860124dc4fee278fdcbd38c102d888901e71827a60a21c000801ba07c369b6d89fffbba3d1ddcca780120b707816fb9f000bdc01365830a339887bba010beabdeacd1e22edc6e042c9a5f55aa53485f559b6f997fd846612e9f1ee23c",
      "networkId": 0,
      "chainId": 0
    }
  ]
}