{
  "hash": "0x58b3b9bc63504439d2f9569ebc1d9f43ef70af39270366883bac8373baf839b6",
  "parentHash": "0xe649b017b52031532bdfcc5a5311d26c8cbedef8af91502e84a1d151c9228a41",
  "number": 80895,
  "timestamp": 1439492921,
  "nonce": "0xa346b903be6b5933",
  "difficulty": 2441587680586,
  "gasLimit": {
    "_hex": "0x2fefd8"
  },
  "gasUsed": {
    "_hex": "0x546c"
  },
  "miner": "0x434EB5ad1A8d64BEa8A9b24c03a7CA7bf7DefcF2",
  "extraData": "0xd983010001844765746887676f312e342e328777696e646f7773",
  "transactions": [
    {
      "hash": "0x879e2584ce86494c78ad09cf32882e0e3ab4de5e4b21a1e020364b263370ef5e",
      "blockHash": "0x58b3b9bc63504439d2f9569ebc1d9f43ef70af39270366883bac8373baf839b6",
      "blockNumber": 80895,
      "transactionIndex": 0,
      "confirmations": null,
      "from": "0x57B23d6a1ADc06C652a779c6A7FB6b95b9FeAD66",
      "gasPrice": {
        "_hex": "0x110c8f7d8de"
      },
      "gasLimit": {
        "_hex": "0xc350"
      },
      "to": "0x2910543Af39abA0Cd09dBb2D50200b3E800A63D2",
      "value": {
        "_hex": "0xa90c7e56023a20000"
      },
      "nonce": 1,
      "data": "0x454e52523855574b30",
      "r": "0xab18814343fa50e59d504616f4e84e808683906945d4821226e8827be7a72396",
      "s": "0x30cca9a9d8c739bdef7555840fedd2b1269b1cba053b71fb6d2c87f9a1fd0ef6",
      "v": 28,
      "creates": null,
      "raw": "0xf87701860110c8f7d8de82c350942910543af39aba0cd09dbb2d50200b3e800a63d2890a90c7e56023a2000089454e52523855574b301ca0ab18814343fa50e59d504616f4e84e808683906945d4821226e8827be7a72396a030cca9a9d8c739bdef7555840fedd2b1269b1cba053b71fb6d2c87f9a1fd0ef6",
      "networkId": 0,
      "chainId": 0
    }
  ]
}