{
  "hash": "0x75ce22085e9f7a047a201eef216d6b24078879bd1123544e3e1a1da68f198a4c",
  "parentHash": "0x8e3dcd6686c1c6a5aa7c529d1e4d6bd12bd149fe82f64f1163009b0d4a58ad6f",
  "number": 117903,
  "timestamp": 1440117237,
  "nonce": "0x117168c95f33f1ed",
  "difficulty": 4354651905252,
  "gasLimit": {
    "_hex": "0x2fefd8"
  },
  "gasUsed": {
    "_hex": "0x2e4ac"
  },
  "miner": "0xe6A7a1d47ff21B6321162AEA7C6CB457D5476Bca",
  "extraData": "0xd783010002844765746887676f312e342e32856c696e7578",
  "transactions": [
    {
      "hash": "0xe0c4d123dd5f79183c794407957b75a42fbe258b8cbda7dc0d5023edc4a92a33",
      "blockHash": "0x75ce22085e9f7a047a201eef216d6b24078879bd1123544e3e1a1da68f198a4c",
      "blockNumber": 117903,
      "transactionIndex": 0,
      "confirmations": null,
      "from": "0x9475C510ec9A26979247744C3d8C3B0e0b5f44d3",
      "gasPrice": {
        "_hex": "0x110c8f7d8de"
      },
      "gasLimit": {
        "_hex": "0xc350"
      },
      "to": "0x2910543Af39abA0Cd09dBb2D50200b3E800A63D2",
      "value": {
        "_hex": "0x21e0c0013070adc0000"
      },
      "nonce": 1,
      "data": "0x454e45335841545647",
      "r": "0x807e0e21a6023b911715d3d6c021f266a051b64ce7d32ff6b7bdcd6a5e070797",
      "s": "0x44ca99d4c8dacacdd7b0ad932bcfb5521fb4d1eec4ea1a7444115de692d56f12",
      "v": 28,
      "creates": null,
      "raw": "0xf87801860110c8f7d8de82c350942910543af39aba0cd09dbb2d50200b3e800a63d28a021e0c0013070adc000089454e453358415456471ca0807e0e21a6023b911715d3d6c021f266a051b64ce7d32ff6b7bdcd6a5e070797a044ca99d4c8dacacdd7b0ad932bcfb5521fb4d1eec4ea1a7444115de692d56f12",
      "networkId": 0,
      "chainId": 0
    },
    {
      "hash": "0xe87461d06912bded23bf7af78e7a641982e6e3fc305fc8332cef857163de9590",
      "blockHash": "0x75ce22085e9f7a047a201eef216d6b24078879bd1123544e3e1a1da68f198a4c",
      "blockNumber": 117903,
      "transactionIndex": 1,
      "confirmations": null,
      "from": "0xBa9CF76D809cF9f2e3f180AFb33f0adb0826D7DF",
      "gasPrice": {
        "_hex": "0xba43b7400"
      },
      "gasLimit": {
        "_hex": "0x5208"
      },
      "to": "0x32Be343B94f860124dC4fEe278FDCBD38C102D88",
      "value": {
        "_hex": "0xaeb63d9c54575000"
      },
      "nonce": 8,
      "data": "0x",
      "r": "0x4440618b1e90d188d2c659106a33c760c42d64568e3ea13c9bf1e90e46974910",
      "s": "0x3635b9e9ba82678067422b60390de46e9e545a16bfe3dbc6b13b150ed1be01f4",
      "v": 27,
      "creates": null,
      "raw": "0xf86c08850ba43b74008252089432be343b94f860124dc4fee278fdcbd38c102d8888aeb63d9c54575000801ba04440618b1e90d188d2c659106a33c760c42d64568e3ea13c9bf1e90e46974910a03635b9e9ba82678067422b60390de46e9e545a16bfe3dbc6b13b150ed1be01f4",
      "networkId": 0,
      "chainId": 0
    },
    {
      "hash": "0xb81057bcb3c2c37786cf8392d4e0925d6a28d63e999024db53c16288967b5bc0",
      "blockHash": "0x75ce22085e9f7a047a201eef216d6b24078879bd1123544e3e1a1da68f198a4c",
      "blockNumber": 117903,
      "transactionIndex": 2,
      "confirmations": null,
      "from": "0x8101538Df7E005d06CA303f609631c4029130687",
      "gasPrice": {
        "_hex": "0xba43b7400"
      },
      "gasLimit": {
        "_hex": "0x5208"
      },
      "to": "0x32Be343B94f860124dC4fEe278FDCBD38C102D88",
      "value": {
        "_hex": "0x3f6be2b1c2a23800"
      },
      "nonce": 8,
      "data": "0x",
      "r": "0xa883c5ee2b55e806f82dc4a615077f3cbbd9d079f5c5eee23624442cc0493cc6",
      "s": "0x4b3711bc1f31fdc3d7afddc6c7b4f52752021f07f5eb9c9add625b38c345bdd6",
      "v": 27,
      "creates": null,
      "raw": "0xf86c08850ba43b74008252089432be343b94f860124dc4fee278fdcbd38c102d88883f6be2b1c2a23800801ba0a883c5ee2b55e806f82dc4a615077f3cbbd9d079f5c5eee23624442cc0493cc6a04b3711bc1f31fdc3d7afddc6c7b4f52752021f07f5eb9c9add625b38c345bdd6",
      "networkId": 0,
      "chainId": 0
    },
    {
      "hash": "0x8bbdf7db6af9795070555680cb8a93f79d8523d0bf98a75f2940a16403cb2b74",
      "blockHash": "0x75ce22085e9f7a047a201eef216d6b24078879bd1123544e3e1a1da68f198a4c",
      "blockNumber": 117903,
      "transactionIndex": 3,
      "confirmations": null,
      "from": "0x6d84df1cFAD609EAc476cBC2553390bFC23Cf6Fc",
      "gasPrice": {
        "_hex": "0xba43b7400"
      },
      "gasLimit": {
        "_hex": "0x5208"
      },
      "to": "0x32Be343B94f860124dC4fEe278FDCBD38C102D88",
      "value": {
        "_hex": "0x6211053f3669c8000"
      },
      "nonce": 9,
      "data": "0x",
      "r": "0x521d8d932d335dda2ee9bb17bc5c1a11764472d202478a2b07a6a8dcfe8ddc7e",
      "s": "0x776e1798fcc04d1885f4733bbafc11fb1034207f1c9b23876484d07e03ab7872",
      "v": 28,
      "creates": null,
      "raw": "0xf86d09850ba43b74008252089432be343b94f860124dc4fee278fdcbd38c102d888906211053f3669c8000801ca0521d8d932d335dda2ee9bb17bc5c1a11764472d202478a2b07a6a8dcfe8ddc7ea0776e1798fcc04d1885f4733bbafc11fb1034207f1c9b23876484d07e03ab7872",
      "networkId": 0,
      "chainId": 0
    },
    {
      "hash": "0x668f584935cd6e185694646b46c054f0ed9a2c631aa814e6200dc1da03744447",
      "blockHash": "0x75ce22085e9f7a047a201eef216d6b24078879bd1123544e3e1a1da68f198a4c",
      "blockNumber": 117903,
      "transactionIndex": 4,
      "confirmations": null,
      "from": "0x608f4b86321a68453f9adf6F06F7Fc3E621739ad",
      "gasPrice": {
        "_hex": "0xba43b7400"
      },
      "gasLimit": {
        "_hex": "0x5208"
      },
      "to": "0x32Be343B94f860124dC4fEe278FDCBD38C102D88",
      "value": {
        "_hex": "0x1cc7fd721969f00000"
      },
      "nonce": 10,
      "data": "0x",
      "r": "0xfa51450a672ad78080b64611d5948acd9c72ad190700f00ebbbf00bbff50b23d",
      "s": "0x5b79806552f27c3ed073e4dc5c475777c6dcc1186037469ce61e64c7d3c1361a",
      "v": 28,
      "creates": null,
      "raw": "0xf86d0a850ba43b74008252089432be343b94f860124dc4fee278fdcbd38c102d88891cc7fd721969f00000801ca0fa51450a672ad78080b64611d5948acd9c72ad190700f00ebbbf00bbff50b23da05b79806552f27c3ed073e4dc5c475777c6dcc1186037469ce61e64c7d3c1361a",
      "networkId": 0,
      "chainId": 0
    },
    {
      "hash": "0x168cae34d9f523b255eb9a63049e2ee93757d1e9b4851e10781142b8b74004f2",
      "blockHash": "0x75ce22085e9f7a047a201eef216d6b24078879bd1123544e3e1a1da68f198a4c",
      "blockNumber": 117903,
      "transactionIndex": 5,
      "confirmations": null,
      "from": "0x383Ad663AFd1716301FC92d469d9985b97cfBCB0",
      "gasPrice": {
        "_hex": "0xba43b7400"
      },
      "gasLimit": {
        "_hex": "0x5208"
      },
      "to": "0x32Be343B94f860124dC4fEe278FDCBD38C102D88",
      "value": {
        "_hex": "0xa4e6a7e7986a0000"
      },
      "nonce": 8,
      "data": "0x",
      "r": "0x09d97feab125cb2b89bcf70bdcbd42db3eb57c00cdf6e785fae0d365428b097a",
      "s": "0x263d1f8189d19543e66dab41f5e3011c7015f2ef9386f145d6273988e53c530d",
      "v": 27,
      "creates": null,
      "raw": "0xf86c08850ba43b74008252089432be343b94f860124dc4fee278fdcbd38c102d8888a4e6a7e7986a0000801ba009d97feab125cb2b89bcf70bdcbd42db3eb57c00cdf6e785fae0d365428b097aa0263d1f8189d19543e66dab41f5e3011c7015f2ef9386f145d6273988e53c530d",
      "networkId": 0,
      "chainId": 0
    },
    {
      "hash": "0xaf7869ddf39bd3088e065c3167f102cd4546f937a2e0081efae24ec46fe4696c",
      "blockHash": "0x75ce22085e9f7a047a201eef216d6b24078879bd1123544e3e1a1da68f198a4c",
      "blockNumber": 117903,
      "transactionIndex": 6,
      "confirmations": null,
      "from": "0x7E4252d3d1881b358f2c1Fc2264ce4C27B83683d",
      "gasPrice": {
        "_hex": "0xba43b7400"
      },
      "gasLimit": {
        "_hex": "0x5208"
      },
      "to": "0x32Be343B94f860124dC4fEe278FDCBD38C102D88",
      "value": {
        "_hex": "0x1400d24898b47400"
      },
      "nonce": 6,
      "data": "0x",
      "r": "0x72922ba028964b97d0ed7fca653b5ac6c65b63e5b2b2ce24ab6546bbff692415",
      "s": "0x78acee657f69ce8e27f41caa9a0d7305643d4d0222fe3421e991f567f3a40af5",
      "v": 27,
      "creates": null,
      "raw": "0xf86c06850ba43b74008252089432be343b94f860124dc4fee278fdcbd38c102d88881400d24898b47400801ba072922ba028964b97d0ed7fca653b5ac6c65b63e5b2b2ce24ab6546bbff692415a078acee657f69ce8e27f41caa9a0d7305643d4d0222fe3421e991f567f3a40af5",
      "networkId": 0,
      "chainId": 0
    },
    {
      "hash": "0x78d2082b0ca4f818bca7c692a36bb0aff165cd28ce1a6a46e4dadbf9173c1fd1",
      "blockHash": "0x75ce22085e9f7a047a201eef216d6b24078879bd1123544e3e1a1da68f198a4c",
      "blockNumber": 117903,
      "transactionIndex": 7,
      "confirmations": null,
      "from": "0xA10C59651885FeAaac91F871082a23BBbaBeDfCf",
      "gasPrice": {
        "_hex": "0xba43b7400"
      },
      "gasLimit": {
        "_hex": "0x5208"
      },
      "to": "0x4c74B6F32c9680aCB5Fe0e72B7Aa95C612540A04",
      "value": {
        "_hex": "0x8ac7230489e80000"
      },
      "nonce": 45,
      "data": "0x",
      "r": "0xe08a2b0d2e02486f18b1b2d6a9252031a7ed882e59d97622b2143b9fd88763b6",
      "s": "0x64c63e596561fe8397a3ec0d6d9a5680634184c75a69e33ced807df2d105218b",
      "v": 27,
      "creates": null,
      "raw": "0xf86c2d850ba43b7400825208944c74b6f32c9680acb5fe0e72b7aa95c612540a04888ac7230489e80000801ba0e08a2b0d2e02486f18b1b2d6a9252031a7ed882e59d97622b2143b9fd88763b6a064c63e596561fe8397a3ec0d6d9a5680634184c75a69e33ced807df2d105218b",
      "networkId": 0,
      "chainId": 0
    },
    {
      "hash": "0xfaf65dabb51bad608457b6121a3055c46074b27eded6fdc0b016fc8fdc55771d",
      "blockHash": "0x75ce22085e9f7a047a201eef216d6b24078879bd1123544e3e1a1da68f198a4c",
      "blockNumber": 117903,
      "transactionIndex": 8,
      "confirmations": null,
      "from": "0x3b01EBd2419f6d39DB6AB4471e6382848716641F",
      "gasPrice": {
        "_hex": "0xba43b7400"
      },
      "gasLimit": {
        "_hex": "0x5208"
      },
      "to": "0x32Be343B94f860124dC4fEe278FDCBD38C102D88",
      "value": {
        "_hex": "0x23ec820cd7a008000"
      },
      "nonce": 7,
      "data": "0x",
      "r": "0x9af69f1c3cb1450d04ad60cbde974fbf2e6f8eb2e77780badd70bafc17e20f84",
      "s": "0x4549bcf8da32003127084d5fc8f869d5d1bd2cd4241438827cfd64d4df2d83b4",
      "v": 27,
      "creates": null,
      "raw": "0xf86d07850ba43b74008252089432be343b94f860124dc4fee278fdcbd38c102d8889023ec820cd7a008000801ba09af69f1c3cb1450d04ad60cbde974fbf2e6f8eb2e77780badd70bafc17e20f84a04549bcf8da32003127084d5fc8f869d5d1bd2cd4241438827cfd64d4df2d83b4",
      "networkId": 0,
      "chainId": 0
    }
  ]
}