{
  "hash": "0xd42b76685f08b87fdc0362b0eb495ed8052a0e165fef70d51c39051d21701286",
  "parentHash": "0xa5ba6b7b99dadbd770f0f0244d91a7dfdab34f2b1c80f0b3bab0a365668a8a1f",
  "number": 51310,
  "timestamp": 1439002802,
  "nonce": "0xe5532bcb774d3a09",
  "difficulty": 1565838372928,
  "gasLimit": {
    "_hex": "0xa3192"
  },
  "gasUsed": {
    "_hex": "0x546c"
  },
  "miner": "0x01d9DA08cc6Fb97c0DE1B6F4C28910A0859Ed1A1",
  "extraData": "0x476574682f76312e302e312f6c696e75782f676f312e342e32",
  "transactions": [
    {
      "hash": "0x819f0e335c4011055ed49806f5e369fdd9c06c75d06fb63240edf96d1c0aed01",
      "blockHash": "0xd42b76685f08b87fdc0362b0eb495ed8052a0e165fef70d51c39051d21701286",
      "blockNumber": 51310,
      "transactionIndex": 0,
      "confirmations": null,
      "from": "0x922a20c79a1d3a26DD3829677Bf1D45c8f672bb6",
      "gasPrice": {
        "_hex": "0x110c8f7d8de"
      },
      "gasLimit": {
        "_hex": "0xc350"
      },
      "to": "0x2910543Af39abA0Cd09dBb2D50200b3E800A63D2",
      "value": {
        "_hex": "0xa2937c529df47c0000"
      },
      "nonce": 1,
      "data": "0x454e55594b56444238",
      "r": "0xd0f0109e766d123580c3be0f060ea936bfa9a4e84480b815e498930e754e503a",
      "s": "0xf0760e3e83d90e9f9a085bb4971122e810bc7d94109b2c3f8112030635d31057",
      "v": 27,
      "creates": null,
      "raw": "0xf87701860110c8f7d8de82c350942910543af39aba0cd09dbb2d50200b3e800a63d289a2937c529df47c000089454e55594b564442381ba0d0f0109e766d123580c3be0f060ea936bfa9a4e84480b815e498930e754e503aa0f0760e3e83d90e9f9a085bb4971122e810bc7d94109b2c3f8112030635d31057",
      "networkId": 0,
      "chainId": 0
    }
  ]
}