{
  "hash": "0x617002384ed247375ca01dc36039bd5f8b2432fa9e6c7a8fd17d33e14a812cd8",
  "parentHash": "0x0a428f6c5e7d1aec0987fb09a48854f02c74ac7858a42732bd639b7dea5fa247",
  "number": 73373,
  "timestamp": 1439368202,
  "nonce": "0x09d686ab49b19c88",
  "difficulty": 2199162157955,
  "gasLimit": {
    "_hex": "0x2fe3de"
  },
  "gasUsed": {
    "_hex": "0x71ab"
  },
  "miner": "0x2f6BCe4fc330B69C9B4c2694d57C63Ec7B18feC7",
  "extraData": "0x476574682f76312e302e302f77696e646f77732f676f312e342e32",
  "transactions": [
    {
      "hash": "0x83d9d994cf57b12cd0704cddfdaf82f6c08877df42759e4108353ddd42dae1d5",
      "blockHash": "0x617002384ed247375ca01dc36039bd5f8b2432fa9e6c7a8fd17d33e14a812cd8",
      "blockNumber": 73373,
      "transactionIndex": 0,
      "confirmations": null,
      "from": "0x326Be8F71bFb0379f989aAB1CC1fE37f0a771f60",
      "gasPrice": {
        "_hex": "0x10c421a41c6"
      },
      "gasLimit": {
        "_hex": "0x493e0"
      },
      "to": "0xB86A36e3E0d2E8132F5798119148eDEF957E1912",
      "value": {
        "_hex": "0x0"
      },
      "nonce": 42,
      "data": "0x2e1a7d4d00000000000000000000000000000000000000000000003860e639d806400000",
      "r": "0xdb31b767ec429b308761eaf5d065fe06633aa2e49a4c0c8c8d563d993cf5c18b",
      "s": "0x6bf961a57d9a3417c8de9030cdaef29ba9049798f811740723699cb875876a1f",
      "v": 27,
      "creates": null,
      "raw": "0xf88a2a86010c421a41c6830493e094b86a36e3e0d2e8132f5798119148edef957e191280a42e1a7d4d00000000000000000000000000000000000000000000003860e639d8064000001ba0db31b767ec429b308761eaf5d065fe06633aa2e49a4c0c8c8d563d993cf5c18ba06bf961a57d9a3417c8de9030cdaef29ba9049798f811740723699cb875876a1f",
      "networkId": 0,
      "chainId": 0
    }
  ]
}