{
  "hash": "0xcff62bc326c9e30e27abc55db27898430fe74b644365c55f914a6fd467c2c546",
  "parentHash": "0x56aede99641e8c057e6142721ce70d90e653793930a43889272fc04f9b655a07",
  "number": 50363,
  "timestamp": 1438987996,
  "nonce": "0x889adddbbb2dc93a",
  "difficulty": 1509703353186,
  "gasLimit": {
    "_hex": "0x5e782"
  },
  "gasUsed": {
    "_hex": "0x5208"
  },
  "miner": "0x72e3Ea8234b449531A581F05f1c1E07cceb559d2",
  "extraData": "0x476574682f76312e302e312f6c696e75782f676f312e342e32",
  "transactions": [
    {
      "hash": "0x8c6341509871a1955d19fd25d3ff9d13713a5be811acc21739b1747449f2b5ec",
      "blockHash": "0xcff62bc326c9e30e27abc55db27898430fe74b644365c55f914a6fd467c2c546",
      "blockNumber": 50363,
      "transactionIndex": 0,
      "confirmations": null,
      "from": "0xE8FBEb49c2590120e3a5A34048a725742Bd1a37c",
      "gasPrice": {
        "_hex": "0x10d027ef1b2"
      },
      "gasLimit": {
        "_hex": "0x15f90"
      },
      "to": "0xc92E31060EB45EFFdb9a3e383ea00f7Ebd0B8FBc",
      "value": {
        "_hex": "0x2386f26fc10000"
      },
      "nonce": 0,
      "data": "0x",
      "r": "0x0d899a7b9f4466665276e1966ca01d58d5bb99b4373d10a0fa556c15c9f1a095",
      "s": "0x53697d2fdd72345b3350346b38afdae2d95327557a1496eda4487d1d6c365c9a",
      "v": 27,
      "creates": null,
      "raw": "0xf86d8086010d027ef1b283015f9094c92e31060eb45effdb9a3e383ea00f7ebd0b8fbc872386f26fc10000801ba00d899a7b9f4466665276e1966ca01d58d5bb99b4373d10a0fa556c15c9f1a095a053697d2fdd72345b3350346b38afdae2d95327557a1496eda4487d1d6c365c9a",
      "networkId": 0,
      "chainId": 0
    }
  ]
}