{
  "hash": "0x809c5eab8b3fb81802bf6b5ce277a0893d698f9960c795ffa605e01b193d175b",
  "parentHash": "0x450bd05dc0f5814341bcff18c87a3065423c70d93048d0bd2af61690a22db769",
  "number": 68528,
  "timestamp": 1439289607,
  "nonce": "0x12cc6a591962b019",
  "difficulty": 2000584060822,
  "gasLimit": {
    "_hex": "0x2fefd8"
  },
  "gasUsed": {
    "_hex": "0x802c8"
  },
  "miner": "0x01d9DA08cc6Fb97c0DE1B6F4C28910A0859Ed1A1",
  "extraData": "0x476574682f76312e302e312f6c696e75782f676f312e342e32",
  "transactions": [
    {
      "hash": "0x4e902568a232fd18c62483e5068a5af94c2fb5b3d538a433669802ac2b6a6dc3",
      "blockHash": "0x809c5eab8b3fb81802bf6b5ce277a0893d698f9960c795ffa605e01b193d175b",
      "blockNumber": 68528,
      "transactionIndex": 0,
      "confirmations": null,
      "from": "0x95a204DD5D814E40f300bA0DfB1194286F03e28A",
      "gasPrice": {
        "_hex": "0x746a528800"
      },
      "gasLimit": {
        "_hex": "0x5b04"
      },
      "to": "0xe7B79D2Fd13B6F1aEfF4274e8a17364219e00D01",
      "value": {
        "_hex": "0x2b5e3af16b1880000"
      },
      "nonce": 4,
      "data": "0x",
      "r": "0x43f8fcd6100c7ee7dd437f1f7b632d2f7ded36757655063a6dded5ca8f3be439",
      "s": "0x1fbc7558d634976d34d96909e1e7f76db36f9397bdc79b364c8bf3968117f050",
      "v": 27,
      "creates": null,
      "raw": "0xf86d0485746a528800825b0494e7b79d2fd13b6f1aeff4274e8a17364219e00d018902b5e3af16b1880000801ba043f8fcd6100c7ee7dd437f1f7b632d2f7ded36757655063a6dded5ca8f3be439a01fbc7558d634976d34d96909e1e7f76db36f9397bdc79b364c8bf3968117f050",
      "networkId": 0,
      "chainId": 0
    },
    {
      "hash": "0x1d71c5266c2fda86fb32a2d9d2d2f23cc8ce672f57c106ea0cbf1144ad51b6d3",
      "blockHash": "0x809c5eab8b3fb81802bf6b5ce277a0893d698f9960c795ffa605e01b193d175b",
      "blockNumber": 68528,
      "transactionIndex": 1,
      "confirmations": null,
      "from": "0x860c5a079DF68698B57692c63e71D661204fdCFA",
      "gasPrice": {
        "_hex": "0xba43b7400"
      },
      "gasLimit": {
        "_hex": "0x5208"
      },
      "to": "0xe7a08FFD9a28AbF7Bf406d13Bd60C4D1073f6985",
      "value": {
        "_hex": "0xf0088de8d15000"
      },
      "nonce": 1,
      "data": "0x",
      "r": "0x0997811afe8b39d3a5f31acaa4eebd3fc75c931148573a1c5009f192fcc3cb00",
      "s": "0x21a55183fb21a772d4a9aff4793d936bb247b70e6d5c7ae6a0088b1e90eea257",
      "v": 28,
      "creates": null,
      "raw": "0xf86b01850ba43b740082520894e7a08ffd9a28abf7bf406d13bd60c4d1073f698587f0088de8d15000801ca00997811afe8b39d3a5f31acaa4eebd3fc75c931148573a1c5009f192fcc3cb00a021a55183fb21a772d4a9aff4793d936bb247b70e6d5c7ae6a0088b1e90eea257",
      "networkId": 0,
      "chainId": 0
    },
    {
      "hash": "0x5d139b073c786d7c432fa7f5be02c464c4ace989ce11ed78f7880499b10e995a",
      "blockHash": "0x809c5eab8b3fb81802bf6b5ce277a0893d698f9960c795ffa605e01b193d175b",
      "blockNumber": 68528,
      "transactionIndex": 2,
      "confirmations": null,
      "from": "0x30fA4024a464a11BC60fB370A3ace5Ff8BF8e991",
      "gasPrice": {
        "_hex": "0xba43b7400"
      },
      "gasLimit": {
        "_hex": "0x5208"
      },
      "to": "0xBd4175d36Fe5452267a70f89b159a82aE2372615",
      "value": {
        "_hex": "0xf0088de8d15000"
      },
      "nonce": 1,
      "data": "0x",
      "r": "0x09c5f710984a837b414376c8e2ff2382d5ecb6f8dbdc500c9a160b7d105243fc",
      "s": "0x5e178d58502b0df2bc79b7a6c517bcb24adca11136b3c00b597f2309f9aabab5",
      "v": 27,
      "creates": null,
      "raw": "0xf86b01850ba43b740082520894bd4175d36fe5452267a70f89b159a82ae237261587f0088de8d15000801ba009c5f710984a837b414376c8e2ff2382d5ecb6f8dbdc500c9a160b7d105243fca05e178d58502b0df2bc79b7a6c517bcb24adca11136b3c00b597f2309f9aabab5",
      "networkId": 0,
      "chainId": 0
    },
    {
      "hash": "0x5d52f9fc302450eddffb73d984dc21c6bd65603f0da1f2bcf4f8d35840113112",
      "blockHash": "0x809c5eab8b3fb81802bf6b5ce277a0893d698f9960c795ffa605e01b193d175b",
      "blockNumber": 68528,
      "transactionIndex": 3,
      "confirmations": null,
      "from": "0x1bD9348BdAC39f12fEE38Fc9416D618d96378eb0",
      "gasPrice": {
        "_hex": "0xba43b7400"
      },
      "gasLimit": {
        "_hex": "0x5208"
      },
      "to": "0x44479E70c73f0eae840B02e7665E6949e53b5F19",
      "value": {
        "_hex": "0xf0088de8d15000"
      },
      "nonce": 1,
      "data": "0x",
      "r": "0x90a1f17c1e97b8777d0401ac860c3753e01917808fdfd7e428dd7e19207a4ea9",
      "s": "0x45e019982d535ea5e24069a0fac6a6bd9e281ab8a07fb508f70bbaaac69e635c",
      "v": 27,
      "creates": null,
      "raw": "0xf86b01850ba43b74008252089444479e70c73f0eae840b02e7665e6949e53b5f1987f0088de8d15000801ba090a1f17c1e97b8777d0401ac860c3753e01917808fdfd7e428dd7e19207a4ea9a045e019982d535ea5e24069a0fac6a6bd9e281ab8a07fb508f70bbaaac69e635c",
      "networkId": 0,
      "chainId": 0
    },
    {
      "hash": "0x49dafcb0df7ef217673c485b2eab9f28d5583d9e43ab299baaf6981b92fe8634",
      "blockHash": "0x809c5eab8b3fb81802bf6b5ce277a0893d698f9960c795ffa605e01b193d175b",
      "blockNumber": 68528,
      "transactionIndex": 4,
      "confirmations": null,
      "from": "0xC4427ED360Cb4995D1Ecf37D8DdB4EBa8a80ac7A",
      "gasPrice": {
        "_hex": "0xba43b7400"
      },
      "gasLimit": {
        "_hex": "0x5208"
      },
      "to": "0xbD3CD3c89E32b18227B30EBf38921782af5206f1",
      "value": {
        "_hex": "0xf0088de8d15000"
      },
      "nonce": 1,
      "data": "0x",
      "r": "0xea45e09309e1120351c03e7d8a60a50432758cdd39e053bffba2737ee03b330c",
      "s": "0x55ac35feb94e1c8fcdcd7fcc36db7697d48d8108d6f21c5e7107fe1a965d8315",
      "v": 27,
      "creates": null,
      "raw": "0xf86b01850ba43b740082520894bd3cd3c89e32b18227b30ebf38921782af5206f187f0088de8d15000801ba0ea45e09309e1120351c03e7d8a60a50432758cdd39e053bffba2737ee03b330ca055ac35feb94e1c8fcdcd7fcc36db7697d48d8108d6f21c5e7107fe1a965d8315",
      "networkId": 0,
      "chainId": 0
    },
    {
      "hash": "0x36b40f119f0efcf3aaa18b92ebb94c61cd982bde46762252c61a6da166759314",
      "blockHash": "0x809c5eab8b3fb81802bf6b5ce277a0893d698f9960c795ffa605e01b193d175b",
      "blockNumber": 68528,
      "transactionIndex": 5,
      "confirmations": null,
      "from": "0x3f4dF11E066CB6AEEB1d14C03826f8D157F06D04",
      "gasPrice": {
        "_hex": "0xba43b7400"
      },
      "gasLimit": {
        "_hex": "0x5208"
      },
      "to": "0xb498a7d9C11C324C5107D9B6B9500bE990EF51dD",
      "value": {
        "_hex": "0xf0088de8d15000"
      },
      "nonce": 1,
      "data": "0x",
      "r": "0x03fdb1d183a1f14ff5fc33cd0c5e2ef3355c586b08000550e4078d211a59f744",
      "s": "0x2e92a7fe960f823f7794dcdf93496fddb6227726b1252ab9a20614323096a91c",
      "v": 28,
      "creates": null,
      "raw": "0xf86b01850ba43b740082520894b498a7d9c11c324c5107d9b6b9500be990ef51dd87f0088de8d15000801ca003fdb1d183a1f14ff5fc33cd0c5e2ef3355c586b08000550e4078d211a59f744a02e92a7fe960f823f7794dcdf93496fddb6227726b1252ab9a20614323096a91c",
      "networkId": 0,
      "chainId": 0
    },
    {
      "hash": "0x21f1a94360aa3c99e504fb6d189069f3d3c00d138a8344ba18658f262c38eee5",
      "blockHash": "0x809c5eab8b3fb81802bf6b5ce277a0893d698f9960c795ffa605e01b193d175b",
      "blockNumber": 68528,
      "transactionIndex": 6,
      "confirmations": null,
      "from": "0xD9704dDFa2e7fc404513bbC6ED387569e42ca788",
      "gasPrice": {
        "_hex": "0xba43b7400"
      },
      "gasLimit": {
        "_hex": "0x5208"
      },
      "to": "0xB4d3602d555EddCCf770152C8ed43374d162Db1F",
      "value": {
        "_hex": "0xf0088de8d15000"
      },
      "nonce": 1,
      "data": "0x",
      "r": "0xccb5b04d066b00aa6bd259b1c55707bf2f43bfbaacffae1ed9557390fbb748c6",
      "s": "0x0c98e696fb41e019b6e606cf03e1419ee02021201ff7148f97bb4eed9f4ec325",
      "v": 28,
      "creates": null,
      "raw": "0xf86b01850ba43b740082520894b4d3602d555eddccf770152c8ed43374d162db1f87f0088de8d15000801ca0ccb5b04d066b00aa6bd259b1c55707bf2f43bfbaacffae1ed9557390fbb748c6a00c98e696fb41e019b6e606cf03e1419ee02021201ff7148f97bb4eed9f4ec325",
      "networkId": 0,
      "chainId": 0
    },
    {
      "hash": "0xeaaf073aa1fafb69f7a00ea2768e0d3ee5635c1f6da5f6465ddecfcd88cb7561",
      "blockHash": "0x809c5eab8b3fb81802bf6b5ce277a0893d698f9960c795ffa605e01b193d175b",
      "blockNumber": 68528,
      "transactionIndex": 7,
      "confirmations": null,
      "from": "0x61c9d63697b8eA3C387CcB3e693f02D4f597B763",
      "gasPrice": {
        "_hex": "0xba43b7400"
      },
      "gasLimit": {
        "_hex": "0x5208"
      },
      "to": "0xbb54532ed23Cf570249459DfE035af5E56cA3624",
      "value": {
        "_hex": "0xf0088de8d15000"
      },
      "nonce": 1,
      "data": "0x",
      "r": "0x72aca5657e1712883b55e217bf15550d6002b18ecfbe526ba09ae31e4dcea5ca",
      "s": "0x17a9f0d244e11351e598a3e35e1b0edec96003a1253dc90a4afb8924f2b3b4c6",
      "v": 27,
      "creates": null,
      "raw": "0xf86b01850ba43b740082520894bb54532ed23cf570249459dfe035af5e56ca362487f0088de8d15000801ba072aca5657e1712883b55e217bf15550d6002b18ecfbe526ba09ae31e4dcea5caa017a9f0d244e11351e598a3e35e1b0edec96003a1253dc90a4afb8924f2b3b4c6",
      "networkId": 0,
      "chainId": 0
    },
    {
      "hash": "0x900bae16a8ab89ba001e3680d8529ed92a4b7497d4400f4f004d4797c0e55834",
      "blockHash": "0x809c5eab8b3fb81802bf6b5ce277a0893d698f9960c795ffa605e01b193d175b",
      "blockNumber": 68528,
      "transactionIndex": 8,
      "confirmations": null,
      "from": "0x1c2122a550775285d46386c8292C1353F846C33c",
      "gasPrice": {
        "_hex": "0xba43b7400"
      },
      "gasLimit": {
        "_hex": "0x5208"
      },
      "to": "0x17C79Af41D49BF487B037E8F37Bb4e09CcBcE751",
      "value": {
        "_hex": "0xf0088de8d15000"
      },
      "nonce": 1,
      "data": "0x",
      "r": "0x008cdcfb02e9371516449ddd59c3a97eca09cee2b24f7326d9d01b1f61f09ee5",
      "s": "0x32ecfd06976f8afb00e2bfdbfe546b932eba2615ab41e5f069f570086d89213b",
      "v": 28,
      "creates": null,
      "raw": "0xf86a01850ba43b74008252089417c79af41d49bf487b037e8f37bb4e09ccbce75187f0088de8d15000801c9f8cdcfb02e9371516449ddd59c3a97eca09cee2b24f7326d9d01b1f61f09ee5a032ecfd06976f8afb00e2bfdbfe546b932eba2615ab41e5f069f570086d89213b",
      "networkId": 0,
      "chainId": 0
    },
    {
      "hash": "0x1982120971560baa4613001adc01a5c2c7151f29cb51edc36419f40951acd952",
      "blockHash": "0x809c5eab8b3fb81802bf6b5ce277a0893d698f9960c795ffa605e01b193d175b",
      "blockNumber": 68528,
      "transactionIndex": 9,
      "confirmations": null,
      "from": "0x6747f922385c9a6F9cfDf095F34345257DD597bE",
      "gasPrice": {
        "_hex": "0xba43b7400"
      },
      "gasLimit": {
        "_hex": "0x5208"
      },
      "to": "0xF79650C3c0A99FA165c62bbEab819E706182c10F",
      "value": {
        "_hex": "0x1fcbfa42bd6000"
      },
      "nonce": 126,
      "data": "0x",
      "r": "0xe5c2ed554355d5f9313c2743a4ea60e8cf553510bf68f8b95e1baaf88b4efb86",
      "s": "0x2d0f903b6a09aa3947088b55079f40339557460cdec654faed8b825cd22eb981",
      "v": 28,
      "creates": null,
      "raw": "0xf86b7e850ba43b740082520894f79650c3c0a99fa165c62bbeab819e706182c10f871fcbfa42bd6000801ca0e5c2ed554355d5f9313c2743a4ea60e8cf553510bf68f8b95e1baaf88b4efb86a02d0f903b6a09aa3947088b55079f40339557460cdec654faed8b825cd22eb981",
      "networkId": 0,
      "chainId": 0
    },
    {
      "hash": "0xcdae31034f65c1e0a1fd683f0e35c7e497a8bad9a24f2a76db038749de9a558f",
      "blockHash": "0x809c5eab8b3fb81802bf6b5ce277a0893d698f9960c795ffa605e01b193d175b",
      "blockNumber": 68528,
      "transactionIndex": 10,
      "confirmations": null,
      "from": "0x74Ff8E65Ef544caeF1a31357Dc42bbb22AE4D1fE",
      "gasPrice": {
        "_hex": "0xba43b7400"
      },
      "gasLimit": {
        "_hex": "0x5208"
      },
      "to": "0x33023eBC45178A36FE209A0d4f914eb37E4D17bD",
      "value": {
        "_hex": "0xf0088de8d15000"
      },
      "nonce": 1,
      "data": "0x",
      "r": "0xc2d92df64871253d9bd8f790225dc8af220b8b82fac1c48d3fd8da374c2316de",
      "s": "0x4c840b5d79e87e7c54508e87b216f52991d4b3e93d182ca65161357b92875a27",
      "v": 27,
      "creates": null,
      "raw": "0xf86b01850ba43b74008252089433023ebc45178a36fe209a0d4f914eb37e4d17bd87f0088de8d15000801ba0c2d92df64871253d9bd8f790225dc8af220b8b82fac1c48d3fd8da374c2316dea04c840b5d79e87e7c54508e87b216f52991d4b3e93d182ca65161357b92875a27",
      "networkId": 0,
      "chainId": 0
    },
    {
      "hash": "0x7e6495b1447d86acc646cb0a1a28a1a69c553481c387dc401506a809372f24dc",
      "blockHash": "0x809c5eab8b3fb81802bf6b5ce277a0893d698f9960c795ffa605e01b193d175b",
      "blockNumber": 68528,
      "transactionIndex": 11,
      "confirmations": null,
      "from": "0x75650B2766Cdb68cc82F525F16E0fB638c165C9e",
      "gasPrice": {
        "_hex": "0xba43b7400"
      },
      "gasLimit": {
        "_hex": "0x5208"
      },
      "to": "0x5BBdE7068486E0DBF5aC0B5eE5e4A9bB7A054bd4",
      "value": {
        "_hex": "0xf0088de8d15000"
      },
      "nonce": 1,
      "data": "0x",
      "r": "0xdedd979db5db66967f17af13dd1216587254b1b8b4c1f2375a69d6ff8cfb6503",
      "s": "0x2479c4d2e283c5d04d0e71ee0232bc324c3091d12b36ee358fa917679829c6e0",
      "v": 28,
      "creates": null,
      "raw": "0xf86b01850ba43b7400825208945bbde7068486e0dbf5ac0b5ee5e4a9bb7a054bd487f0088de8d15000801ca0dedd979db5db66967f17af13dd1216587254b1b8b4c1f2375a69d6ff8cfb6503a02479c4d2e283c5d04d0e71ee0232bc324c3091d12b36ee358fa917679829c6e0",
      "networkId": 0,
      "chainId": 0
    },
    {
      "hash": "0x8952c17812a978a2d974d65cb7e2d05051526cc3ec07ce2033cd58175b7051de",
      "blockHash": "0x809c5eab8b3fb81802bf6b5ce277a0893d698f9960c795ffa605e01b193d175b",
      "blockNumber": 68528,
      "transactionIndex": 12,
      "confirmations": null,
      "from": "0xE58C2dCd1694f10737Df78d8f2d85Af64aDC62Ab",
      "gasPrice": {
        "_hex": "0xba43b7400"
      },
      "gasLimit": {
        "_hex": "0x5208"
      },
      "to": "0x9784b849e07c990F4214506B8b7543cee1792BA5",
      "value": {
        "_hex": "0xf0088de8d15000"
      },
      "nonce": 1,
      "data": "0x",
      "r": "0x2f89b332e20ff6397c0788c06f372b2284145b350be7c1a2cdde06d1e6d762ba",
      "s": "0x1dc341475022cee0c65a1bfbc16745c98cf0ba4e652d408e79ad3fc4bf1c6faa",
      "v": 28,
      "creates": null,
      "raw": "0xf86b01850ba43b7400825208949784b849e07c990f4214506b8b7543cee1792ba587f0088de8d15000801ca02f89b332e20ff6397c0788c06f372b2284145b350be7c1a2cdde06d1e6d762baa01dc341475022cee0c65a1bfbc16745c98cf0ba4e652d408e79ad3fc4bf1c6faa",
      "networkId": 0,
      "chainId": 0
    },
    {
      "hash": "0xddf55678a10ee859a0e2bade78527fc400b5fcdecffd7301e216f1a5d98ad263",
      "blockHash": "0x809c5eab8b3fb81802bf6b5ce277a0893d698f9960c795ffa605e01b193d175b",
      "blockNumber": 68528,
      "transactionIndex": 13,
      "confirmations": null,
      "from": "0x65C03917E7f81DeBC8bB93Cce18ca5a0fD86cd3C",
      "gasPrice": {
        "_hex": "0xba43b7400"
      },
      "gasLimit": {
        "_hex": "0x5208"
      },
      "to": "0x048538a02F3190C95B2Ce38B8A2273Ee8265f704",
      "value": {
        "_hex": "0xf0088de8d15000"
      },
      "nonce": 1,
      "data": "0x",
      "r": "0x1a6e3688bfb0049db857e79dfd42e0bb117ba238ae61af4e86586f0a8981300e",
      "s": "0x0470d53f33773e387b9a43aff553919325aa2f53c3e4ec2de4093bdaaa71c820",
      "v": 28,
      "creates": null,
      "raw": "0xf86b01850ba43b740082520894048538a02f3190c95b2ce38b8a2273ee8265f70487f0088de8d15000801ca01a6e3688bfb0049db857e79dfd42e0bb117ba238ae61af4e86586f0a8981300ea00470d53f33773e387b9a43aff553919325aa2f53c3e4ec2de4093bdaaa71c820",
      "networkId": 0,
      "chainId": 0
    },
    {
      "hash": "0x677d483b0063ca196a7a132448e16f5aed928307bbdff8737ba7ef4b4e3d0f84",
      "blockHash": "0x809c5eab8b3fb81802bf6b5ce277a0893d698f9960c795ffa605e01b193d175b",
      "blockNumber": 68528,
      "transactionIndex": 14,
      "confirmations": null,
      "from": "0x6903D5FeB1A77f078fE6E919AdA5094DD86e3bcA",
      "gasPrice": {
        "_hex": "0xba43b7400"
      },
      "gasLimit": {
        "_hex": "0x5208"
      },
      "to": "0x5BF4c225E13a88F6973914A993cc4291c1874DcC",
      "value": {
        "_hex": "0xf0088de8d15000"
      },
      "nonce": 1,
      "data": "0x",
      "r": "0xa6bbbf4ec7056dea28928a518aed4b8057ec75d7cc3b5f7e030fd50ba33e9bf5",
      "s": "0x60d8c760aee42f7f409332e510ae453277b1dff402a323fb401a204da602cc67",
      "v": 28,
      "creates": null,
      "raw": "0xf86b01850ba43b7400825208945bf4c225e13a88f6973914a993cc4291c1874dcc87f0088de8d15000801ca0a6bbbf4ec7056dea28928a518aed4b8057ec75d7cc3b5f7e030fd50ba33e9bf5a060d8c760aee42f7f409332e510ae453277b1dff402a323fb401a204da602cc67",
      "networkId": 0,
      "chainId": 0
    },
    {
      "hash": "0x4369f3d35aad9dcd29f0915afc19eb3d486d319d0ac14560a7a58fd64d02e45e",
      "blockHash": "0x809c5eab8b3fb81802bf6b5ce277a0893d698f9960c795ffa605e01b193d175b",
      "blockNumber": 68528,
      "transactionIndex": 15,
      "confirmations": null,
      "from": "0x0B6dbF220dF5b51F126e8053dFB6573836Eb93EF",
      "gasPrice": {
        "_hex": "0xba43b7400"
      },
      "gasLimit": {
        "_hex": "0x5208"
      },
      "to": "0x6EAAab3069C7f9920AFc0CD3fA2946DaF55d5911",
      "value": {
        "_hex": "0xf0088de8d15000"
      },
      "nonce": 1,
      "data": "0x",
      "r": "0x98977b6db9c5279585c41bbb2a72358b2f5d83f2f93cec5f12a5f1f1c6b2b470",
      "s": "0x74d33c7cfb393fc7df46a5cee4e8788117aacef449ea4d493d270ee52c892d5e",
      "v": 28,
      "creates": null,
      "raw": "0xf86b01850ba43b7400825208946eaaab3069c7f9920afc0cd3fa2946daf55d591187f0088de8d15000801ca098977b6db9c5279585c41bbb2a72358b2f5d83f2f93cec5f12a5f1f1c6b2b470a074d33c7cfb393fc7df46a5cee4e8788117aacef449ea4d493d270ee52c892d5e",
      "networkId": 0,
      "chainId": 0
    },
    {
      "hash": "0xfa6926d001968b7fedb80ad929e69ee9ea86ef801e572d11669a22b15b248888",
      "blockHash": "0x809c5eab8b3fb81802bf6b5ce277a0893d698f9960c795ffa605e01b193d175b",
      "blockNumber": 68528,
      "transactionIndex": 16,
      "confirmations": null,
      "from": "0x1c0260B07e22F754419958587c6B195aa6BB465d",
      "gasPrice": {
        "_hex": "0xba43b7400"
      },
      "gasLimit": {
        "_hex": "0x5208"
      },
      "to": "0x7cb2aAB9b48192B03A9F06A32bAc7a7F34134Faf",
      "value": {
        "_hex": "0xf0088de8d15000"
      },
      "nonce": 1,
      "data": "0x",
      "r": "0x83ab9fbb3b3168472f34da74271aa26a11c1864810a2b6ef5056254c17118040",
      "s": "0x215c8cd99ffc8b45a8fb9fd0e012abbdefe42e17b8503dfca96a279588ea8bbe",
      "v": 27,
      "creates": null,
      "raw": "0xf86b01850ba43b7400825208947cb2aab9b48192b03a9f06a32bac7a7f34134faf87f0088de8d15000801ba083ab9fbb3b3168472f34da74271aa26a11c1864810a2b6ef5056254c17118040a0215c8cd99ffc8b45a8fb9fd0e012abbdefe42e17b8503dfca96a279588ea8bbe",
      "networkId": 0,
      "chainId": 0
    },
    {
      "hash": "0x5415bc830ec94dcde4f6cbb4d55133577a382de52e994892205f31c3600640a9",
      "blockHash": "0x809c5eab8b3fb81802bf6b5ce277a0893d698f9960c795ffa605e01b193d175b",
      "blockNumber": 68528,
      "transactionIndex": 17,
      "confirmations": null,
      "from": "0x1aA050AF65d5F057C76a3473986455D269782Ef6",
      "gasPrice": {
        "_hex": "0xba43b7400"
      },
      "gasLimit": {
        "_hex": "0x5208"
      },
      "to": "0xDEf7FAd2c27e6768e786336a8d8FD395b7F01A57",
      "value": {
        "_hex": "0xf0088de8d15000"
      },
      "nonce": 1,
      "data": "0x",
      "r": "0xfe90553bed93dfd476b3f140b59ad09d1179b9cfd6e4c4a28d092d7d749b248f",
      "s": "0x5938d47a1c213834245d9d6ec18657d294b70f625bca1e13bc5445f65627ff3a",
      "v": 28,
      "creates": null,
      "raw": "0xf86b01850ba43b740082520894def7fad2c27e6768e786336a8d8fd395b7f01a5787f0088de8d15000801ca0fe90553bed93dfd476b3f140b59ad09d1179b9cfd6e4c4a28d092d7d749b248fa05938d47a1c213834245d9d6ec18657d294b70f625bca1e13bc5445f65627ff3a",
      "networkId": 0,
      "chainId": 0
    },
    {
      "hash": "0x98b553230ceddb852c883ebcdabf76886941f4a46f459026b2a2bc0e0c403771",
      "blockHash": "0x809c5eab8b3fb81802bf6b5ce277a0893d698f9960c795ffa605e01b193d175b",
      "blockNumber": 68528,
      "transactionIndex": 18,
      "confirmations": null,
      "from": "0x0684FE816ADE3B123abcc9D6d46Da8e685b97fC0",
      "gasPrice": {
        "_hex": "0xba43b7400"
      },
      "gasLimit": {
        "_hex": "0x5208"
      },
      "to": "0x16EEb1F8c81eE78D0965056784e4f3a2D559b9D0",
      "value": {
        "_hex": "0xf0088de8d15000"
      },
      "nonce": 1,
      "data": "0x",
      "r": "0xeadf00c1dd109e838c19c1c88633b48bde1ae8f0b40a896e82ade451942f3033",
      "s": "0x53da6a61129c8888e52ed3e3d1b1a09d011ee1d450661d0bf6d7ac57b1bbdf9e",
      "v": 28,
      "creates": null,
      "raw": "0xf86b01850ba43b74008252089416eeb1f8c81ee78d0965056784e4f3a2d559b9d087f0088de8d15000801ca0eadf00c1dd109e838c19c1c88633b48bde1ae8f0b40a896e82ade451942f3033a053da6a61129c8888e52ed3e3d1b1a09d011ee1d450661d0bf6d7ac57b1bbdf9e",
      "networkId": 0,
      "chainId": 0
    },
    {
      "hash": "0xf2f114a16f6649158cc46313d2cefa9e444fc42c76eeb90675975ca4abf222ab",
      "blockHash": "0x809c5eab8b3fb81802bf6b5ce277a0893d698f9960c795ffa605e01b193d175b",
      "blockNumber": 68528,
      "transactionIndex": 19,
      "confirmations": null,
      "from": "0x96F300115aaAE54ca824ee738600d488660b0BE8",
      "gasPrice": {
        "_hex": "0xba43b7400"
      },
      "gasLimit": {
        "_hex": "0x5208"
      },
      "to": "0x5185186D7bBCFC9462610BCf7C80ED3B0436a36E",
      "value": {
        "_hex": "0xf0088de8d15000"
      },
      "nonce": 1,
      "data": "0x",
      "r": "0xd715a0e87426939cb9004286d447512750614d4817f900f81638c27d28852686",
      "s": "0x2672d5b6bf5858d254bbbfbd9f6346ff7a8219ddc660be850692b6c541aebc9c",
      "v": 28,
      "creates": null,
      "raw": "0xf86b01850ba43b7400825208945185186d7bbcfc9462610bcf7c80ed3b0436a36e87f0088de8d15000801ca0d715a0e87426939cb9004286d447512750614d4817f900f81638c27d28852686a02672d5b6bf5858d254bbbfbd9f6346ff7a8219ddc660be850692b6c541aebc9c",
      "networkId": 0,
      "chainId": 0
    },
    {
      "hash": "0xaa4cf48f5c11038796c6ed4c8e8eeb48d2e9c98054ac09b00e3cc45049ab2076",
      "blockHash": "0x809c5eab8b3fb81802bf6b5ce277a0893d698f9960c795ffa605e01b193d175b",
      "blockNumber": 68528,
      "transactionIndex": 20,
      "confirmations": null,
      "from": "0xbC7eE8a66C89DEe4EF4bf787C713Efa14Ef43522",
      "gasPrice": {
        "_hex": "0xba43b7400"
      },
      "gasLimit": {
        "_hex": "0x5208"
      },
      "to": "0x849559Bb9a259481c26f8791942630022638d1A8",
      "value": {
        "_hex": "0xf0088de8d15000"
      },
      "nonce": 1,
      "data": "0x",
      "r": "0x818d3816d784f5cc0f4c6e86acdb8c7ddf97664771c542a321def2c0b633bfbf",
      "s": "0x0f5f4245c45d52624c3d25037648669796a3e86a44eba627502a35e495c9f592",
      "v": 27,
      "creates": null,
      "raw": "0xf86b01850ba43b740082520894849559bb9a259481c26f8791942630022638d1a887f0088de8d15000801ba0818d3816d784f5cc0f4c6e86acdb8c7ddf97664771c542a321def2c0b633bfbfa00f5f4245c45d52624c3d25037648669796a3e86a44eba627502a35e495c9f592",
      "networkId": 0,
      "chainId": 0
    },
    {
      "hash": "0x8cb8008fb0d89046416a831fe59c67aa427050dcdac361433bb312783de4e8ac",
      "blockHash": "0x809c5eab8b3fb81802bf6b5ce277a0893d698f9960c795ffa605e01b193d175b",
      "blockNumber": 68528,
      "transactionIndex": 21,
      "confirmations": null,
      "from": "0xBEA5c0813196BCbA7bB0e1666F76394e6cff0E9c",
      "gasPrice": {
        "_hex": "0xba43b7400"
      },
      "gasLimit": {
        "_hex": "0x5208"
      },
      "to": "0xd60Da1B2c1D9517D4779A73ecb2a5760Fd4C53e8",
      "value": {
        "_hex": "0xf0088de8d15000"
      },
      "nonce": 1,
      "data": "0x",
      "r": "0x478446bd1ce57b60ac43531e6af1579962062c64010ad3498b9d9d5b1e43dcc1",
      "s": "0x102dad49162a5451efe8fdc1363ec29bee8ccddb828a7e1f47a7a4df3d457142",
      "v": 27,
      "creates": null,
      "raw": "0xf86b01850ba43b740082520894d60da1b2c1d9517d4779a73ecb2a5760fd4c53e887f0088de8d15000801ba0478446bd1ce57b60ac43531e6af1579962062c64010ad3498b9d9d5b1e43dcc1a0102dad49162a5451efe8fdc1363ec29bee8ccddb828a7e1f47a7a4df3d457142",
      "networkId": 0,
      "chainId": 0
    },
    {
      "hash": "0x279e387a0c3f27bebd7724cfe45a6a966c22f74c6a96fa1d657a3d61a8d1bdad",
      "blockHash": "0x809c5eab8b3fb81802bf6b5ce277a0893d698f9960c795ffa605e01b193d175b",
      "blockNumber": 68528,
      "transactionIndex": 22,
      "confirmations": null,
      "from": "0x6812681BCA92D406f490e4ABAd068c530e626F1F",
      "gasPrice": {
        "_hex": "0xba43b7400"
      },
      "gasLimit": {
        "_hex": "0x5208"
      },
      "to": "0xb1B7F3Ff099d47d70f108BfE67191ca407bC63E0",
      "value": {
        "_hex": "0xf0088de8d15000"
      },
      "nonce": 1,
      "data": "0x",
      "r": "0x780eda79af86624c43b0d47b025fd939fd7dad469cc4f0582b7cd7913b65a8fa",
      "s": "0x3091e64e0553098b769ee707912f7d8a9aece5a1999b15868e8901688f25c6a4",
      "v": 27,
      "creates": null,
      "raw": "0xf86b01850ba43b740082520894b1b7f3ff099d47d70f108bfe67191ca407bc63e087f0088de8d15000801ba0780eda79af86624c43b0d47b025fd939fd7dad469cc4f0582b7cd7913b65a8faa03091e64e0553098b769ee707912f7d8a9aece5a1999b15868e8901688f25c6a4",
      "networkId": 0,
      "chainId": 0
    },
    {
      "hash": "0x95f40bf0f9ce2f1a989f6443197fb0ff080e29163ab2aab839630099aa7a85ec",
      "blockHash": "0x809c5eab8b3fb81802bf6b5ce277a0893d698f9960c795ffa605e01b193d175b",
      "blockNumber": 68528,
      "transactionIndex": 23,
      "confirmations": null,
      "from": "0xCD58f878B956773Cf3336a981b1c6A087F66769f",
      "gasPrice": {
        "_hex": "0xba43b7400"
      },
      "gasLimit": {
        "_hex": "0x5208"
      },
      "to": "0x28d30f79779302A43BbAC583e9040178239F164c",
      "value": {
        "_hex": "0xf0088de8d15000"
      },
      "nonce": 1,
      "data": "0x",
      "r": "0x23e97f2b84814bc9858f1fd5140dfd69537b9931ba118a6c1d152484cbe0c5de",
      "s": "0x378847d46d1ed54f36e1ac834c7aa6571f669f8b216da4cd8cbdf7df6f3e68a9",
      "v": 28,
      "creates": null,
      "raw": "0xf86b01850ba43b74008252089428d30f79779302a43bbac583e9040178239f164c87f0088de8d15000801ca023e97f2b84814bc9858f1fd5140dfd69537b9931ba118a6c1d152484cbe0c5dea0378847d46d1ed54f36e1ac834c7aa6571f669f8b216da4cd8cbdf7df6f3e68a9",
      "networkId": 0,
      "chainId": 0
    },
    {
      "hash": "0x4cdf1091c72f318289013e9ff34a63b5b1eba714811bd4bd0d2542720676cb45",
      "blockHash": "0x809c5eab8b3fb81802bf6b5ce277a0893d698f9960c795ffa605e01b193d175b",
      "blockNumber": 68528,
      "transactionIndex": 24,
      "confirmations": null,
      "from": "0x272d18E1A1B4C732e89F9Ece1D6C3d79ca374693",
      "gasPrice": {
        "_hex": "0xba43b7400"
      },
      "gasLimit": {
        "_hex": "0x5208"
      },
      "to": "0x3305fED4d4720588A1a5FF0458Af630D68Fb199A",
      "value": {
        "_hex": "0xf0088de8d15000"
      },
      "nonce": 1,
      "data": "0x",
      "r": "0x224a02e217fce0f0d19e5b1f12ecd53ed14169015f33df6c7c7079ff185a3b5b",
      "s": "0x44ed551765304917f09440cb4931ac0dc6fe7cccd320e4e352f7825275177732",
      "v": 28,
      "creates": null,
      "raw": "0xf86b01850ba43b7400825208943305fed4d4720588a1a5ff0458af630d68fb199a87f0088de8d15000801ca0224a02e217fce0f0d19e5b1f12ecd53ed14169015f33df6c7c7079ff185a3b5ba044ed551765304917f09440cb4931ac0dc6fe7cccd320e4e352f7825275177732",
      "networkId": 0,
      "chainId": 0
    }
  ]
}