{
  "hash": "0x4fdbdfa675ac5e9b97532bfd38c139ce8490f8361349653492399ec6364901c3",
  "parentHash": "0x32a6aaa7ce2c4024a402f1b9c2db0aae8ab33ec3acfba08d0362a3234527d900",
  "number": 122139,
  "timestamp": 1440188831,
  "nonce": "0x4031a17a598de0b1",
  "difficulty": 4468741816496,
  "gasLimit": {
    "_hex": "0x2fefd8"
  },
  "gasUsed": {
    "_hex": "0xf618"
  },
  "miner": "0xe6A7a1d47ff21B6321162AEA7C6CB457D5476Bca",
  "extraData": "0xd783010002844765746887676f312e342e32856c696e7578",
  "transactions": [
    {
      "hash": "0x2f51f92924128bd6bcb2591401005d4463cc688a57dc0ae96585e9e2f454d4f3",
      "blockHash": "0x4fdbdfa675ac5e9b97532bfd38c139ce8490f8361349653492399ec6364901c3",
      "blockNumber": 122139,
      "transactionIndex": 0,
      "confirmations": null,
      "from": "0x2910543Af39abA0Cd09dBb2D50200b3E800A63D2",
      "gasPrice": {
        "_hex": "0xd9dd81184"
      },
      "gasLimit": {
        "_hex": "0x5208"
      },
      "to": "0x59b7ee394b4F4EED8494C7920103D7e7e7E2BFF4",
      "value": {
        "_hex": "0x4551ce090d138000"
      },
      "nonce": 1219,
      "data": "0x",
      "r": "0x72d0954c8007ae934c5a9ccd9478c801fbe0c8ef51bbdc7db2b0e5bbb92cd85d",
      "s": "0x06ff987aa965838a90ba74ca3bd21a1969eecc2af6914d574d69d7bb71d02e75",
      "v": 28,
      "creates": null,
      "raw": "0xf86e8204c3850d9dd811848252089459b7ee394b4f4eed8494c7920103d7e7e7e2bff4884551ce090d138000801ca072d0954c8007ae934c5a9ccd9478c801fbe0c8ef51bbdc7db2b0e5bbb92cd85da006ff987aa965838a90ba74ca3bd21a1969eecc2af6914d574d69d7bb71d02e75",
      "networkId": 0,
      "chainId": 0
    },
    {
      "hash": "0xb527404c4191601090d71f50b9279279137c238398ba640df8f246396df8372e",
      "blockHash": "0x4fdbdfa675ac5e9b97532bfd38c139ce8490f8361349653492399ec6364901c3",
      "blockNumber": 122139,
      "transactionIndex": 1,
      "confirmations": null,
      "from": "0x007f7f58D3eb5b7510A301eCC749FC1fCDDBE14D",
      "gasPrice": {
        "_hex": "0xba43b7400"
      },
      "gasLimit": {
        "_hex": "0x15f90"
      },
      "to": "0xb1abce2918E21ddb93AA452731a12672A3d9F75a",
      "value": {
        "_hex": "0x4563918244f40000"
      },
      "nonce": 386,
      "data": "0x",
      "r": "0xff07b3439af863639e24685b3ad155ac744da29e74bdc184a093a9681041c02a",
      "s": "0x38cfd0e0227f1a1a9a6f285f1b7e03d7b5314ff62ea78df9149ee400743d66e3",
      "v": 27,
      "creates": null,
      "raw": "0xf86f820182850ba43b740083015f9094b1abce2918e21ddb93aa452731a12672a3d9f75a884563918244f40000801ba0ff07b3439af863639e24685b3ad155ac744da29e74bdc184a093a9681041c02aa038cfd0e0227f1a1a9a6f285f1b7e03d7b5314ff62ea78df9149ee400743d66e3",
      "networkId": 0,
      "chainId": 0
    },
    {
      "hash": "0xf3df0651b469410998b3085cebc9d004b33f2dca1f3f49de3c32a31e1dd176e8",
      "blockHash": "0x4fdbdfa675ac5e9b97532bfd38c139ce8490f8361349653492399ec6364901c3",
      "blockNumber": 122139,
      "transactionIndex": 2,
      "confirmations": null,
      "from": "0xFc39Be41094b1997D2169E8264c2C3BAA6c99bc4",
      "gasPrice": {
        "_hex": "0xba43b7400"
      },
      "gasLimit": {
        "_hex": "0x15f90"
      },
      "to": "0x7761f51C77D359247AAAB86404E24a702eC651f4",
      "value": {
        "_hex": "0x55de6a779bbac0000"
      },
      "nonce": 8,
      "data": "0x",
      "r": "0x2d86e03a8889136589ce2d22d3a36f101f39ff56b7e4d7da26335b345b289dae",
      "s": "0x257c62eb304f62decec956a2076d70ea434f2d36c7fc9b700308ff19bbb4e446",
      "v": 27,
      "creates": null,
      "raw": "0xf86e08850ba43b740083015f90947761f51c77d359247aaab86404e24a702ec651f489055de6a779bbac0000801ba02d86e03a8889136589ce2d22d3a36f101f39ff56b7e4d7da26335b345b289daea0257c62eb304f62decec956a2076d70ea434f2d36c7fc9b700308ff19bbb4e446",
      "networkId": 0,
      "chainId": 0
    }
  ]
}