{
  "hash": "0x11cd554c0eddec7896e66c2520d560a513f6136f6681d973560f96dc73628af4",
  "parentHash": "0xa1bc40f7d612f34491b2a5e70a91f5debe1394b4666a6fa662cb1b583ac62a2a",
  "number": 95590,
  "timestamp": 1439726202,
  "nonce": "0x74b9dd7dada7940f",
  "difficulty": 3635690716160,
  "gasLimit": {
    "_hex": "0x2fefd8"
  },
  "gasUsed": {
    "_hex": "0xf618"
  },
  "miner": "0x9746c7e1ef2bd21FF3997fa467593a89cb852BD0",
  "extraData": "0x476574682f76312e302e312f77696e646f77732f676f312e342e32",
  "transactions": [
    {
      "hash": "0x4667dbb984f4c2d31c768fedf19dc6f84ed8e75d4920a58432c6778a3647ed58",
      "blockHash": "0x11cd554c0eddec7896e66c2520d560a513f6136f6681d973560f96dc73628af4",
      "blockNumber": 95590,
      "transactionIndex": 0,
      "confirmations": null,
      "from": "0xb1abce2918E21ddb93AA452731a12672A3d9F75a",
      "gasPrice": {
        "_hex": "0xcda5dc02f"
      },
      "gasLimit": {
        "_hex": "0x5208"
      },
      "to": "0x32Be343B94f860124dC4fEe278FDCBD38C102D88",
      "value": {
        "_hex": "0x455f732b04736800"
      },
      "nonce": 38,
      "data": "0x",
      "r": "0x588e2a613811c5b648d900e4bd449604b9b833d2b9d1f2b6c45591926be0d1a0",
      "s": "0x7f2d8564d8e89892cf9222b3ca4c926495bd0999f0481bb11a00b4fb592b3a83",
      "v": 28,
      "creates": null,
      "raw": "0xf86c26850cda5dc02f8252089432be343b94f860124dc4fee278fdcbd38c102d8888455f732b04736800801ca0588e2a613811c5b648d900e4bd449604b9b833d2b9d1f2b6c45591926be0d1a0a07f2d8564d8e89892cf9222b3ca4c926495bd0999f0481bb11a00b4fb592b3a83",
      "networkId": 0,
      "chainId": 0
    },
    {
      "hash": "0x04332763ea2ec1f5b3bfe5e2e8053111b78c823e86abb7f1e6cfc7f0ec6ebdb3",
      "blockHash": "0x11cd554c0eddec7896e66c2520d560a513f6136f6681d973560f96dc73628af4",
      "blockNumber": 95590,
      "transactionIndex": 1,
      "confirmations": null,
      "from": "0xa70a9a7040d542C632D8e0bE7c5513A8a5Bbc752",
      "gasPrice": {
        "_hex": "0xcda5dc02f"
      },
      "gasLimit": {
        "_hex": "0x5208"
      },
      "to": "0x32Be343B94f860124dC4fEe278FDCBD38C102D88",
      "value": {
        "_hex": "0x8ac70fac3b1ca000"
      },
      "nonce": 156,
      "data": "0x",
      "r": "0x05f55a1ccfeba3632dbf45a1f9d1683a1ba235419af97b300a90d464c3a530e0",
      "s": "0x1207b4a871d4eacdabfba1ae113746851d7786468a88b6e7b3e8b08d1b910fb5",
      "v": 28,
      "creates": null,
      "raw": "0xf86d819c850cda5dc02f8252089432be343b94f860124dc4fee278fdcbd38c102d88888ac70fac3b1ca000801ca005f55a1ccfeba3632dbf45a1f9d1683a1ba235419af97b300a90d464c3a530e0a01207b4a871d4eacdabfba1ae113746851d7786468a88b6e7b3e8b08d1b910fb5",
      "networkId": 0,
      "chainId": 0
    },
    {
      "hash": "0xd25d29b0607593c533482df67d15587881753c35104090aebf45d85e4f267801",
      "blockHash": "0x11cd554c0eddec7896e66c2520d560a513f6136f6681d973560f96dc73628af4",
      "blockNumber": 95590,
      "transactionIndex": 2,
      "confirmations": null,
      "from": "0xB9A0a0410aA5e26bFa66Cc3ACAF0A6FC61Df5588",
      "gasPrice": {
        "_hex": "0xcda5dc02f"
      },
      "gasLimit": {
        "_hex": "0x5208"
      },
      "to": "0x32Be343B94f860124dC4fEe278FDCBD38C102D88",
      "value": {
        "_hex": "0x51dce463fa418400"
      },
      "nonce": 6,
      "data": "0x",
      "r": "0x3c4c564bc97b916a7178fce53b46e71ece2f1f8f804180315947c3620935d3d4",
      "s": "0x7b1bd0fe86f72885f62c7ecc3ccebc3ffba7946bfb454ec419b1ca7bd3ac35f0",
      "v": 28,
      "creates": null,
      "raw": "0xf86c06850cda5dc02f8252089432be343b94f860124dc4fee278fdcbd38c102d888851dce463fa418400801ca03c4c564bc97b916a7178fce53b46e71ece2f1f8f804180315947c3620935d3d4a07b1bd0fe86f72885f62c7ecc3ccebc3ffba7946bfb454ec419b1ca7bd3ac35f0",
      "networkId": 0,
      "chainId": 0
    }
  ]
}