{
  "hash": "0xe6107b1497c97db71b3e9a521becf4fb612301e5212949fcf21dcb8f3f5ff812",
  "parentHash": "0x932d3ad2c85cf06b17c55936fab52ecdf13352ce7616c810f7c91af165812f25",
  "number": 86118,
  "timestamp": 1439573703,
  "nonce": "0x75d46335a72c4c31",
  "difficulty": 2809872696782,
  "gasLimit": {
    "_hex": "0x2fefd8"
  },
  "gasUsed": {
    "_hex": "0x546c"
  },
  "miner": "0x790b8a3cE86E707ED0eD32bF89B3269692a23CC1",
  "extraData": "0xd783010001844765746887676f312e342e32856c696e7578",
  "transactions": [
    {
      "hash": "0x98da4979eb0ab8b6ef0971381a979f245913ca347f8fe17798ddaf8b64e58f47",
      "blockHash": "0xe6107b1497c97db71b3e9a521becf4fb612301e5212949fcf21dcb8f3f5ff812",
      "blockNumber": 86118,
      "transactionIndex": 0,
      "confirmations": null,
      "from": "0xC1438C99Dd51ef1ca8386aF0a317E9B041457888",
      "gasPrice": {
        "_hex": "0x110c8f7d8de"
      },
      "gasLimit": {
        "_hex": "0xc350"
      },
      "to": "0x2910543Af39abA0Cd09dBb2D50200b3E800A63D2",
      "value": {
        "_hex": "0x29a2241af62c0000"
      },
      "nonce": 0,
      "data": "0x454e434755314e5a30",
      "r": "0x92b839b92ff7c800628059f47ea394c5f745874d9b9b44b6ddfff8ed902cbe79",
      "s": "0xf0e7cfe7be6723969a9c10a0f743b696ba102a856f8df393587dfcfed441b387",
      "v": 27,
      "creates": null,
      "raw": "0xf87680860110c8f7d8de82c350942910543af39aba0cd09dbb2d50200b3e800a63d28829a2241af62c000089454e434755314e5a301ba092b839b92ff7c800628059f47ea394c5f745874d9b9b44b6ddfff8ed902cbe79a0f0e7cfe7be6723969a9c10a0f743b696ba102a856f8df393587dfcfed441b387",
      "networkId": 0,
      "chainId": 0
    }
  ]
}