{
  "hash": "0x7e5a9336dd82efff0bfe8c25ccb0e8cf44b4c6f781b25b3fc3578f004f60b872",
  "parentHash": "0x3cb3aecb99e29acf3ff3aaf50acae9e767716e486686007da5e59b138c667edd",
  "number": 46420,
  "timestamp": 1438922865,
  "nonce": "0x430ae57ac7d2d4a1",
  "difficulty": 1468954885260,
  "gasLimit": {
    "_hex": "0x6039"
  },
  "gasUsed": {
    "_hex": "0x5458"
  },
  "miner": "0xab84940B570d6358ed6A9Dbf7e0bc8Ec8F5A6E89",
  "extraData": "0x322831652933",
  "transactions": [
    {
      "hash": "0xe363505adc6b2996111f8bd774f8653a61d244cc6567b5372c2e781c6c63b737",
      "blockHash": "0x7e5a9336dd82efff0bfe8c25ccb0e8cf44b4c6f781b25b3fc3578f004f60b872",
      "blockNumber": 46420,
      "transactionIndex": 0,
      "confirmations": null,
      "from": "0x22F2DcFf5aD78c3Eb6850B5Cb951127B659522E6",
      "gasPrice": {
        "_hex": "0x746a528800"
      },
      "gasLimit": {
        "_hex": "0x59d8"
      },
      "to": "0x0000000000000000000000000000000000000000",
      "value": {
        "_hex": "0x0"
      },
      "nonce": 3,
      "data": "0x432ced046274630000000000000000000000000000000000000000000000000000000000",
      "r": "0x51fa13200c3e4a21b15b9cb423c6f7b846e0071692311d26643b42f005a67e7d",
      "s": "0x3eca8f648fd6138e98cecb6806f1ad865085010a7512a4102c25323a0f327559",
      "v": 27,
      "creates": null,
      "raw": "0xf8880385746a5288008259d894000000000000000000000000000000000000000080a4432ced0462746300000000000000000000000000000000000000000000000000000000001ba051fa13200c3e4a21b15b9cb423c6f7b846e0071692311d26643b42f005a67e7da03eca8f648fd6138e98cecb6806f1ad865085010a7512a4102c25323a0f327559",
      "networkId": 0,
      "chainId": 0
    }
  ]
}