{
  "hash": "0xa9457b963e106084ae9454e0d443075214a0d293c287ac6a0b45752678b188e6",
  "parentHash": "0x290f94fd0815c6ad6b064275247bce93cd6169cdcbdc88f64a8ec1e2936f2f81",
  "number": 70250,
  "timestamp": 1439317088,
  "nonce": "0xf3f05717dc140c8b",
  "difficulty": 2120872677997,
  "gasLimit": {
    "_hex": "0x2fefd8"
  },
  "gasUsed": {
    "_hex": "0x5208"
  },
  "miner": "0x0037ce3d4B7f8729C8607D8D0248252Be68202c0",
  "extraData": "0x476574682f76312e302e312f77696e646f77732f676f312e342e32",
  "transactions": [
    {
      "hash": "0x82665f9b1ebfc73a0388a9af41041cf0aecd53617da41092f532f2bdf30fe626",
      "blockHash": "0xa9457b963e106084ae9454e0d443075214a0d293c287ac6a0b45752678b188e6",
      "blockNumber": 70250,
      "transactionIndex": 0,
      "confirmations": null,
      "from": "0xB7268c7705A1866b2A78e882fdfDc8E2a4e1428E",
      "gasPrice": {
        "_hex": "0xceabf39c6"
      },
      "gasLimit": {
        "_hex": "0x15f90"
      },
      "to": "0x96811Ad897894eC178872117C8BF2f03971A393B",
      "value": {
        "_hex": "0xa002c9e954410000"
      },
      "nonce": 12,
      "data": "0x",
      "r": "0x6da7b602ef66884f254aced906a03bf109f9719a9535dfd1f65a96afbf0e48d2",
      "s": "0x57a378d9c008f38953e79104ffb32715e57274d9836bafa46cbfbe06b51dd9fe",
      "v": 27,
      "creates": null,
      "raw": "0xf86d0c850ceabf39c683015f909496811ad897894ec178872117c8bf2f03971a393b88a002c9e954410000801ba06da7b602ef66884f254aced906a03bf109f9719a9535dfd1f65a96afbf0e48d2a057a378d9c008f38953e79104ffb32715e57274d9836bafa46cbfbe06b51dd9fe",
      "networkId": 0,
      "chainId": 0
    }
  ]
}