{
  "hash": "0x4e3a3754410177e6937ef1f84bba68ea139e8d1a2258c5f85db9f1cd715a1bdd",
  "parentHash": "0x5a41d0e66b4120775176c09fcf39e7c0520517a13d2b57b18d33d342df038bfc",
  "number": 46147,
  "timestamp": 1438918233,
  "nonce": "0xba4f8ecd18aab215",
  "difficulty": 1458282699709,
  "gasLimit": {
    "_hex": "0x520b"
  },
  "gasUsed": {
    "_hex": "0x5208"
  },
  "miner": "0xe6A7a1d47ff21B6321162AEA7C6CB457D5476Bca",
  "extraData": "0x657468706f6f6c2e6f7267",
  "transactions": [
    {
      "hash": "0x5c504ed432cb51138bcf09aa5e8a410dd4a1e204ef84bfed1be16dfba1b22060",
      "blockHash": "0x4e3a3754410177e6937ef1f84bba68ea139e8d1a2258c5f85db9f1cd715a1bdd",
      "blockNumber": 46147,
      "transactionIndex": 0,
      "confirmations": null,
      "from": "0xA1E4380A3B1f749673E270229993eE55F35663b4",
      "gasPrice": {
        "_hex": "0x2d79883d2000"
      },
      "gasLimit": {
        "_hex": "0x5208"
      },
      "to": "0x5DF9B87991262F6BA471F09758CDE1c0FC1De734",
      "value": {
        "_hex": "0x7a69"
      },
      "nonce": 0,
      "data": "0x",
      "r": "0x88ff6cf0fefd94db46111149ae4bfc179e9b94721fffd821d38d16464b3f71d0",
      "s": "0x45e0aff800961cfce805daef7016b9b675c137a6a41a548f7b60a3484c06a33a",
      "v": 28,
      "creates": null,
      "raw": "0xf86780862d79883d2000825208945df9b87991262f6ba471f09758cde1c0fc1de734827a69801ca088ff6cf0fefd94db46111149ae4bfc179e9b94721fffd821d38d16464b3f71d0a045e0aff800961cfce805daef7016b9b675c137a6a41a548f7b60a3484c06a33a",
      "networkId": 0,
      "chainId": 0
    }
  ]
}