{
  "hash": "0x88d88f55a637b4a9cf95843b7d65aa9b4557e82731f090f7d7d9e0fe7c6dd1f3",
  "parentHash": "0xc5b79dffafbf09ae5d9f775dbd49c7e37bcc9dff367d700614a0d43b9063d3cf",
  "number": 80384,
  "timestamp": 1439484877,
  "nonce": "0x81f8dce4233a919f",
  "difficulty": 2381682299942,
  "gasLimit": {
    "_hex": "0x2fefd8"
  },
  "gasUsed": {
    "_hex": "0x546c"
  },
  "miner": "0xf927a40C8B7F6E07c5af7FA2155B4864a4112B13",
  "extraData": "0x",
  "transactions": [
    {
      "hash": "0x4ce27e8a1dcb6bfba1d061eb2773c1246b210d6e71bcd060db211c0416d145f3",
      "blockHash": "0x88d88f55a637b4a9cf95843b7d65aa9b4557e82731f090f7d7d9e0fe7c6dd1f3",
      "blockNumber": 80384,
      "transactionIndex": 0,
      "confirmations": null,
      "from": "0x671c5D0ffeB3993FD3Ce1D4a70A04eD949B3a250",
      "gasPrice": {
        "_hex": "0x1076c4cec9a"
      },
      "gasLimit": {
        "_hex": "0x55f0"
      },
      "to": "0x2910543Af39abA0Cd09dBb2D50200b3E800A63D2",
      "value": {
        "_hex": "0x4563918244f40000"
      },
      "nonce": 1,
      "data": "0x454e42363131514538",
      "r": "0xed473bfd89580fa86cea91c0a548486850e194624ba529816c2f5629a8013ae8",
      "s": "0x1ad37cbdf9e35fa591dfbe8cc1f52f0456a36a57f708215912b8447079aadfff",
      "v": 28,
      "creates": null,
      "raw": "0xf876018601076c4cec9a8255f0942910543af39aba0cd09dbb2d50200b3e800a63d2884563918244f4000089454e423631315145381ca0ed473bfd89580fa86cea91c0a548486850e194624ba529816c2f5629a8013ae8a01ad37cbdf9e35fa591dfbe8cc1f52f0456a36a57f708215912b8447079aadfff",
      "networkId": 0,
      "chainId": 0
    }
  ]
}