{
  "hash": "0x961bcc1f6a64214c267b9746fec33c17b3819da6be13b64becd27df8b389bcce",
  "parentHash": "0xae77dcb3ae1205703158748dfe063251e839f2aff23d49b3dd5b4392e91baf19",
  "number": 64668,
  "timestamp": 1439224470,
  "nonce": "0x8155506add3698b8",
  "difficulty": 1887598831093,
  "gasLimit": {
    "_hex": "0x2fefd8"
  },
  "gasUsed": {
    "_hex": "0x5208"
  },
  "miner": "0x39A1BB80a741bF5EC39FB9BE59408Fa0F418fFBf",
  "extraData": "0x476574682f76312e302e312f77696e646f77732f676f312e342e32",
  "transactions": [
    {
      "hash": "0x2cedca7e46499696cc28fc4feecedc2ee2bd57ce6c44ba4263711202c43d1157",
      "blockHash": "0x961bcc1f6a64214c267b9746fec33c17b3819da6be13b64becd27df8b389bcce",
      "blockNumber": 64668,
      "transactionIndex": 0,
      "confirmations": null,
      "from": "0x8F586E3212291c58DCc78980a9c3432a3aFd3b6E",
      "gasPrice": {
        "_hex": "0xcc72acb98"
      },
      "gasLimit": {
        "_hex": "0x5208"
      },
      "to": "0x32Be343B94f860124dC4fEe278FDCBD38C102D88",
      "value": {
        "_hex": "0xad778e0b03d250000"
      },
      "nonce": 3,
      "data": "0x",
      "r": "0x451537ba996fba94ed6af9b0b278e7f58bf9679111f14fada38b64a429d66698",
      "s": "0x2cc99e3663b03b1b6c6fa418d114f59d6945a340bc882369a6601ffca5398476",
      "v": 28,
      "creates": null,
      "raw": "0xf86d03850cc72acb988252089432be343b94f860124dc4fee278fdcbd38c102d88890ad778e0b03d250000801ca0451537ba996fba94ed6af9b0b278e7f58bf9679111f14fada38b64a429d66698a02cc99e3663b03b1b6c6fa418d114f59d6945a340bc882369a6601ffca5398476",
      "networkId": 0,
      "chainId": 0
    }
  ]
}