{
  "hash": "0x00716bc58ad4177430c0fc69bb0f22daaeb5caa02bc592cc642017e6aa0cfa59",
  "parentHash": "0x5ae1523494af584ade330a645cdd5e4da72370d6eb1e74af241b7806b6c99388",
  "number": 62136,
  "timestamp": 1439183813,
  "nonce": "0x8f50b28e4fd724a6",
  "difficulty": 1770309286547,
  "gasLimit": {
    "_hex": "0x2fefd8"
  },
  "gasUsed": {
    "_hex": "0x546c"
  },
  "miner": "0xf927a40C8B7F6E07c5af7FA2155B4864a4112B13",
  "extraData": "0x476574682f76312e302e312f6c696e75782f676f312e342e32",
  "transactions": [
    {
      "hash": "0x4e35ff32cca675f37268426bdfaa948d799232a6ea016bb134031805b7524ab7",
      "blockHash": "0x00716bc58ad4177430c0fc69bb0f22daaeb5caa02bc592cc642017e6aa0cfa59",
      "blockNumber": 62136,
      "transactionIndex": 0,
      "confirmations": null,
      "from": "0xcdD60D73efaad873C9bBFB178CA1B7105A81A681",
      "gasPrice": {
        "_hex": "0x110c8f7d8de"
      },
      "gasLimit": {
        "_hex": "0xc350"
      },
      "to": "0x2910543Af39abA0Cd09dBb2D50200b3E800A63D2",
      "value": {
        "_hex": "0x191116ce198ca0000"
      },
      "nonce": 1,
      "data": "0x454e59504257313138",
      "r": "0x7db95f52f57866a1def5250401d020bda473329c29ec2429ed07d3fd43305857",
      "s": "0x7ceec84eba80798dddcf6280880f952ac9b757d1c0d8321616375c3912d60f10",
      "v": 27,
      "creates": null,
      "raw": "0xf87701860110c8f7d8de82c350942910543af39aba0cd09dbb2d50200b3e800a63d2890191116ce198ca000089454e595042573131381ba07db95f52f57866a1def5250401d020bda473329c29ec2429ed07d3fd43305857a07ceec84eba80798dddcf6280880f952ac9b757d1c0d8321616375c3912d60f10",
      "networkId": 0,
      "chainId": 0
    }
  ]
}