{
  "hash": "0xdfab3477cfc0da5ef580bdbb9f8d9b5d0143571daf0e70b0bbc0d08559c1fdd9",
  "parentHash": "0xcc6886b8669e9c32ee2d23f9c846a1f70a9472bb44e4d0da81d7560e64490eb1",
  "number": 63169,
  "timestamp": 1439200288,
  "nonce": "0xedf6d9e5833b3374",
  "difficulty": 1804122089632,
  "gasLimit": {
    "_hex": "0x2fefd8"
  },
  "gasUsed": {
    "_hex": "0x546c"
  },
  "miner": "0x9D49F602b0fdb924Bd63DDE2Bd0907E4A07c63a7",
  "extraData": "0x476574682f76312e302e312f6c696e75782f676f312e342e32",
  "transactions": [
    {
      "hash": "0xa8d0604e0dfcdeeba2625164d5e462aacaeffa907619afef73b26cd720c5b6c2",
      "blockHash": "0xdfab3477cfc0da5ef580bdbb9f8d9b5d0143571daf0e70b0bbc0d08559c1fdd9",
      "blockNumber": 63169,
      "transactionIndex": 0,
      "confirmations": null,
      "from": "0x72dcecdD4a7374231676f7fA910A678DfC7c98D6",
      "gasPrice": {
        "_hex": "0xe01b63f64"
      },
      "gasLimit": {
        "_hex": "0x15f90"
      },
      "to": "0x2910543Af39abA0Cd09dBb2D50200b3E800A63D2",
      "value": {
        "_hex": "0x3782dace9d900000"
      },
      "nonce": 2,
      "data": "0x454e35585546344d47",
      "r": "0xb4291d020b1a69c09e855cf83dd7b42f8d889c1f083711f970c4dfbcf9564f73",
      "s": "0x227add55bb2212500cd7ef0928161d131d4e94a4840a2e53507195f4996eacb6",
      "v": 27,
      "creates": null,
      "raw": "0xf87602850e01b63f6483015f90942910543af39aba0cd09dbb2d50200b3e800a63d2883782dace9d90000089454e35585546344d471ba0b4291d020b1a69c09e855cf83dd7b42f8d889c1f083711f970c4dfbcf9564f73a0227add55bb2212500cd7ef0928161d131d4e94a4840a2e53507195f4996eacb6",
      "networkId": 0,
      "chainId": 0
    }
  ]
}