{
  "hash": "0xf2acfb73c3fa174c192397d3b5a92cf3d716bde03176c33a8541ce3e1d5eaf67",
  "parentHash": "0xe8b5a778eb3da33443642b9edd757767b3920c5f30c783a1de2c50b1b74036b9",
  "number": 102450,
  "timestamp": 1439838224,
  "nonce": "0x178d2ce553f300e9",
  "difficulty": 3962580302833,
  "gasLimit": {
    "_hex": "0x2fefd8"
  },
  "gasUsed": {
    "_hex": "0x5208"
  },
  "miner": "0xF11940EA05aA9CC3F13aCF5C5cA6EDCF312E3Aec",
  "extraData": "0x476574682f76312e302e312f77696e646f77732f676f312e342e32",
  "transactions": [
    {
      "hash": "0xc07d035eca1e2ee9caf4665be9faea399c99c2b3948987fe4b5172edfced2c32",
      "blockHash": "0xf2acfb73c3fa174c192397d3b5a92cf3d716bde03176c33a8541ce3e1d5eaf67",
      "blockNumber": 102450,
      "transactionIndex": 0,
      "confirmations": null,
      "from": "0x562a8dcbBEEEf7B360685D27303bD69e094AcCf6",
      "gasPrice": {
        "_hex": "0xda39766f5"
      },
      "gasLimit": {
        "_hex": "0x15f90"
      },
      "to": "0x7C4401aE98F12eF6de39aE24cf9fc51f80EBa16B",
      "value": {
        "_hex": "0x1043561a8829300000"
      },
      "nonce": 1,
      "data": "0x",
      "r": "0xaaa956920da054e77a6a67f6117939f4abf4ff54be3cca084ab9aaa0e09b2c6b",
      "s": "0x6ed34173353aed4d84086a249cb7a0c3c130112f64278b58d36aec7893b28e7c",
      "v": 28,
      "creates": null,
      "raw": "0xf86e01850da39766f583015f90947c4401ae98f12ef6de39ae24cf9fc51f80eba16b891043561a8829300000801ca0aaa956920da054e77a6a67f6117939f4abf4ff54be3cca084ab9aaa0e09b2c6ba06ed34173353aed4d84086a249cb7a0c3c130112f64278b58d36aec7893b28e7c",
      "networkId": 0,
      "chainId": 0
    }
  ]
}