{
  "hash": "0xb6dcc1f4e17dc30cb01b2d9729b4bc1c0be77ec55a972ec72666f4dd1305a9cf",
  "parentHash": "0xd68c3838cdaa000a3f75582f78791871e39370094e9504c130b6a6b281397772",
  "number": 107782,
  "timestamp": 1439928803,
  "nonce": "0x16beff7fcd599119",
  "difficulty": 4357780696825,
  "gasLimit": {
    "_hex": "0x2fefd8"
  },
  "gasUsed": {
    "_hex": "0x5208"
  },
  "miner": "0xe6A7a1d47ff21B6321162AEA7C6CB457D5476Bca",
  "extraData": "0x476574682f76312e302e312d38326566323666362f6c696e75782f676f312e34",
  "transactions": [
    {
      "hash": "0xd32f02f8760001832ad3de13631f9d7ad1eec66596cbb091612bf24b3034ebcd",
      "blockHash": "0xb6dcc1f4e17dc30cb01b2d9729b4bc1c0be77ec55a972ec72666f4dd1305a9cf",
      "blockNumber": 107782,
      "transactionIndex": 0,
      "confirmations": null,
      "from": "0x2910543Af39abA0Cd09dBb2D50200b3E800A63D2",
      "gasPrice": {
        "_hex": "0xd8f5c189f"
      },
      "gasLimit": {
        "_hex": "0x5208"
      },
      "to": "0x3e4c04DFaFEC1413367feCf23a65b9C05AD74822",
      "value": {
        "_hex": "0x4551ce090d138000"
      },
      "nonce": 1053,
      "data": "0x",
      "r": "0x1b2ca2272809da70e62f3c3bed0fd94167754b45948f25e68a01d476ff359b90",
      "s": "0x7195bb63aea937f740abecaa327c1b7ade6a1b84c894d5f17d1e5d5befc0fa83",
      "v": 28,
      "creates": null,
      "raw": "0xf86e82041d850d8f5c189f825208943e4c04dfafec1413367fecf23a65b9c05ad74822884551ce090d138000801ca01b2ca2272809da70e62f3c3bed0fd94167754b45948f25e68a01d476ff359b90a07195bb63aea937f740abecaa327c1b7ade6a1b84c894d5f17d1e5d5befc0fa83",
      "networkId": 0,
      "chainId": 0
    }
  ]
}