{
  "hash": "0xcd43274ee54f3096c1adc6bd1537721d2f1a5a4da6f5a6acc2590484f2560a45",
  "parentHash": "0x07016e2556083fa07a144ce90556045c9f6a0a3b4dc8da294d1878219caafb11",
  "number": 121192,
  "timestamp": 1440172989,
  "nonce": "0x99f6c987c4ee5468",
  "difficulty": 4402106020549,
  "gasLimit": {
    "_hex": "0x2fefd8"
  },
  "gasUsed": {
    "_hex": "0x5208"
  },
  "miner": "0xe6A7a1d47ff21B6321162AEA7C6CB457D5476Bca",
  "extraData": "0xd783010002844765746887676f312e342e32856c696e7578",
  "transactions": [
    {
      "hash": "0x0db9f812009b345dafd8b88ad86ca4133e408d1654857e2911716c16f158a081",
      "blockHash": "0xcd43274ee54f3096c1adc6bd1537721d2f1a5a4da6f5a6acc2590484f2560a45",
      "blockNumber": 121192,
      "transactionIndex": 0,
      "confirmations": null,
      "from": "0xA72C26b594556DAD30fc52ED63fE992ec7FC6e46",
      "gasPrice": {
        "_hex": "0xba43b7400"
      },
      "gasLimit": {
        "_hex": "0x5208"
      },
      "to": "0x32Be343B94f860124dC4fEe278FDCBD38C102D88",
      "value": {
        "_hex": "0x8fd632b8659e000"
      },
      "nonce": 0,
      "data": "0x",
      "r": "0x499c4d256b7ce31911f218464c8fbdc54bc525f42c46e2c4821279eab49bd513",
      "s": "0x5c804a139d46b25c31c48b7aef4469d10105bb5f10568867c1e88b0774e5c848",
      "v": 27,
      "creates": null,
      "raw": "0xf86c80850ba43b74008252089432be343b94f860124dc4fee278fdcbd38c102d888808fd632b8659e000801ba0499c4d256b7ce31911f218464c8fbdc54bc525f42c46e2c4821279eab49bd513a05c804a139d46b25c31c48b7aef4469d10105bb5f10568867c1e88b0774e5c848",
      "networkId": 0,
      "chainId": 0
    }
  ]
}