{
  "hash": "0x62413eee34a1fb2e2242991b744305f4253131aa0e01900ba14370ee894e7fa4",
  "parentHash": "0x5572bfb257491aa07b62106de6f1117683936eda2da9680a1b6e211bc44e5dee",
  "number": 64655,
  "timestamp": 1439224295,
  "nonce": "0xcb187a68c6164240",
  "difficulty": 1888523662021,
  "gasLimit": {
    "_hex": "0x2fefd8"
  },
  "gasUsed": {
    "_hex": "0x5208"
  },
  "miner": "0xf8E0CA3Ed80bd541b94BEdCf259e8CF2141A9523",
  "extraData": "0x476574682f76312e302e312f77696e646f77732f676f312e342e32",
  "transactions": [
    {
      "hash": "0xcc8d9cdb4137498e22572a376fe053995b17b64605e2eeb1e81bcf8347bb2b9c",
      "blockHash": "0x62413eee34a1fb2e2242991b744305f4253131aa0e01900ba14370ee894e7fa4",
      "blockNumber": 64655,
      "transactionIndex": 0,
      "confirmations": null,
      "from": "0xd2FB96411792Df9013F9cD33A0a286062Fe979ae",
      "gasPrice": {
        "_hex": "0xba43b7400"
      },
      "gasLimit": {
        "_hex": "0x5208"
      },
      "to": "0xC75503E12a6339e3B838bE7afA91668f67E07552",
      "value": {
        "_hex": "0xaa9f075c200000"
      },
      "nonce": 1,
      "data": "0x",
      "r": "0xe554d8b54bd22b321ec2743f057069f4824aeceb49a6b81f93431c222e47227e",
      "s": "0x53995be05d7bf0742fcc524f948d3827719e6604eedee1dcc297c0473c4a65a0",
      "v": 27,
      "creates": null,
      "raw": "0xf86b01850ba43b740082520894c75503e12a6339e3b838be7afa91668f67e0755287aa9f075c200000801ba0e554d8b54bd22b321ec2743f057069f4824aeceb49a6b81f93431c222e47227ea053995be05d7bf0742fcc524f948d3827719e6604eedee1dcc297c0473c4a65a0",
      "networkId": 0,
      "chainId": 0
    }
  ]
}