{
  "hash": "0x80c68e44534acf5dbd332634f85919d3cea23264fee8a626cfc001054dec2edf",
  "parentHash": "0x07ccd3c50e1fcce2f913bcfc1201c4f236ffd8d9dda0f771e3841581aca76a2d",
  "number": 115924,
  "timestamp": 1440065504,
  "nonce": "0xd1d22eccaf739c30",
  "difficulty": 4584816704624,
  "gasLimit": {
    "_hex": "0x2fefd8"
  },
  "gasUsed": {
    "_hex": "0x5208"
  },
  "miner": "0x580992B51e3925e23280EfB93d3047C82f17E038",
  "extraData": "0x476574682f76312e302e312f6c696e75782f676f312e342e32",
  "transactions": [
    {
      "hash": "0x4ff8928a44d45014193aa2240fd4762c0e9355f28116a6eb3f19427eaf7f850d",
      "blockHash": "0x80c68e44534acf5dbd332634f85919d3cea23264fee8a626cfc001054dec2edf",
      "blockNumber": 115924,
      "transactionIndex": 0,
      "confirmations": null,
      "from": "0x31353beec2eD3DFfC213c27A9F28ad8dfee828e9",
      "gasPrice": {
        "_hex": "0xce78da0c3"
      },
      "gasLimit": {
        "_hex": "0x15f90"
      },
      "to": "0x2071130408d9aAf3D5D65953118c3FE37aCB8D04",
      "value": {
        "_hex": "0x8ac7230489e80000"
      },
      "nonce": 10,
      "data": "0x",
      "r": "0x766d179e72a548404f0961fe9ca3eff91bccce36ae4a43d729c41ab28e2d411f",
      "s": "0x413a19918c63c9f93daffe2d36bcf5237bdf48a99162ac9154b390bc254fed72",
      "v": 28,
      "creates": null,
      "raw": "0xf86d0a850ce78da0c383015f90942071130408d9aaf3d5d65953118c3fe37acb8d04888ac7230489e80000801ca0766d179e72a548404f0961fe9ca3eff91bccce36ae4a43d729c41ab28e2d411fa0413a19918c63c9f93daffe2d36bcf5237bdf48a99162ac9154b390bc254fed72",
      "networkId": 0,
      "chainId": 0
    }
  ]
}