{
  "hash": "0x3aa325abc3e71da67c6c02b428175b4fa7e37ed89eb181b97d473a89c6d62591",
  "parentHash": "0x90b7c055f62600bf856ea663f6f47e9ac7dcd2080a02f05cd12600fffc1aab83",
  "number": 115893,
  "timestamp": 1440065128,
  "nonce": "0x35602f4bfd8101aa",
  "difficulty": 4564729657618,
  "gasLimit": {
    "_hex": "0x2fefd8"
  },
  "gasUsed": {
    "_hex": "0x5208"
  },
  "miner": "0xe6A7a1d47ff21B6321162AEA7C6CB457D5476Bca",
  "extraData": "0x476574682f76312e302e312d38326566323666362f6c696e75782f676f312e34",
  "transactions": [
    {
      "hash": "0x524c515765af6072f9b2f8481c8fc56539e812fb6fd6cd74517759342b56a062",
      "blockHash": "0x3aa325abc3e71da67c6c02b428175b4fa7e37ed89eb181b97d473a89c6d62591",
      "blockNumber": 115893,
      "transactionIndex": 0,
      "confirmations": null,
      "from": "0xf01e25B76A4274d2e5af5810302E4230c8A515D3",
      "gasPrice": {
        "_hex": "0xba43b7400"
      },
      "gasLimit": {
        "_hex": "0x5208"
      },
      "to": "0xC47Aaa860008be6f65B58c6C6E02a84e666EfE31",
      "value": {
        "_hex": "0x18952f7014fb14c00"
      },
      "nonce": 3,
      "data": "0x",
      "r": "0x4a9bf1f0b56cc3c37d3dbe6c688fd3230fc77a43ea3feceaa530b1fb5fa1980e",
      "s": "0x09f7320730a1baa3cc252548177ae6d975bd8ebc7fe75e6bc4fc1d5b8ad4993c",
      "v": 28,
      "creates": null,
      "raw": "0xf86d03850ba43b740082520894c47aaa860008be6f65b58c6c6e02a84e666efe3189018952f7014fb14c00801ca04a9bf1f0b56cc3c37d3dbe6c688fd3230fc77a43ea3feceaa530b1fb5fa1980ea009f7320730a1baa3cc252548177ae6d975bd8ebc7fe75e6bc4fc1d5b8ad4993c",
      "networkId": 0,
      "chainId": 0
    }
  ]
}