{
  "hash": "0xa8111094487b00a3a1b77f7cc01fde72115b3d6c53cfda134dfadafab72afb38",
  "parentHash": "0x007ec04bb01644755e34bf67e63736f55ec73d71eca466f9704cf0790fd1adc7",
  "number": 118904,
  "timestamp": 1440133333,
  "nonce": "0x1ba8d465b3837c60",
  "difficulty": 4403306862621,
  "gasLimit": {
    "_hex": "0x2fefd8"
  },
  "gasUsed": {
    "_hex": "0x5208"
  },
  "miner": "0xf8E0CA3Ed80bd541b94BEdCf259e8CF2141A9523",
  "extraData": "0x",
  "transactions": [
    {
      "hash": "0x1adb63896196e5ba9adb752df4ca0a67d74f48798508cab37c17e976cc5ae80f",
      "blockHash": "0xa8111094487b00a3a1b77f7cc01fde72115b3d6c53cfda134dfadafab72afb38",
      "blockNumber": 118904,
      "transactionIndex": 0,
      "confirmations": null,
      "from": "0x9d6F31567576812E0Fbb7a44398e3Abe1A7fAD7f",
      "gasPrice": {
        "_hex": "0xba43b7400"
      },
      "gasLimit": {
        "_hex": "0x5208"
      },
      "to": "0x32Be343B94f860124dC4fEe278FDCBD38C102D88",
      "value": {
        "_hex": "0x2cea55330eda400"
      },
      "nonce": 1,
      "data": "0x",
      "r": "0xfd29f1750cc9f2469a74559a07e7182ad2652aab31a2dda136a275108dbeaadb",
      "s": "0x388daa31f509df39348cf7d7873351f19b2349b76df1fd2897b5cb09921de550",
      "v": 28,
      "creates": null,
      "raw": "0xf86c01850ba43b74008252089432be343b94f860124dc4fee278fdcbd38c102d888802cea55330eda400801ca0fd29f1750cc9f2469a74559a07e7182ad2652aab31a2dda136a275108dbeaadba0388daa31f509df39348cf7d7873351f19b2349b76df1fd2897b5cb09921de550",
      "networkId": 0,
      "chainId": 0
    }
  ]
}