{
  "hash": "0x66a8043b38d715150b862989298853d0c74e3574c35901f7cc22fb3f97843776",
  "parentHash": "0x530acc1cb8f39d1a7c749f284cd9f8fcf2466288b689a5253c38fa4a6efc6217",
  "number": 90927,
  "timestamp": 1439647572,
  "nonce": "0xed3bfcf46087ab2e",
  "difficulty": 3415646195741,
  "gasLimit": {
    "_hex": "0x2fefd8"
  },
  "gasUsed": {
    "_hex": "0x5208"
  },
  "miner": "0x9D49F602b0fdb924Bd63DDE2Bd0907E4A07c63a7",
  "extraData": "0x476574682f76312e302e312f6c696e75782f676f312e342e32",
  "transactions": [
    {
      "hash": "0x3811f7ad04df61fb3f8b1320b740f75fff78ab33a316a729a02eab9d603d9269",
      "blockHash": "0x66a8043b38d715150b862989298853d0c74e3574c35901f7cc22fb3f97843776",
      "blockNumber": 90927,
      "transactionIndex": 0,
      "confirmations": null,
      "from": "0xA21Ba94e45f0E168dA824fC67aC9cb5Cb577a8aF",
      "gasPrice": {
        "_hex": "0x45d964b800"
      },
      "gasLimit": {
        "_hex": "0x5208"
      },
      "to": "0x56011d6b57A70c27F7cc294905A5DdA65BfBd154",
      "value": {
        "_hex": "0xad78ebc5ac6200000"
      },
      "nonce": 10,
      "data": "0x",
      "r": "0x0ea027b1038de4d323818025717ba2f9e3dd34434d2d981768e25be7734b25f0",
      "s": "0x4295676e749736d84aacf84942627ca0a529456ad23834d84cdc5d6faf567256",
      "v": 28,
      "creates": null,
      "raw": "0xf86d0a8545d964b8008252089456011d6b57a70c27f7cc294905a5dda65bfbd154890ad78ebc5ac6200000801ca00ea027b1038de4d323818025717ba2f9e3dd34434d2d981768e25be7734b25f0a04295676e749736d84aacf84942627ca0a529456ad23834d84cdc5d6faf567256",
      "networkId": 0,
      "chainId": 0
    }
  ]
}