{
  "hash": "0x459ba48718c74ce8e144b7b717cd25329d3c8b357cb7705859a46a10278b42d5",
  "parentHash": "0x7fea741fcc31eb3e6393ba7296d70c772d6d4803410c0bea4e96eddb857d9935",
  "number": 107372,
  "timestamp": 1439921374,
  "nonce": "0xb0c44cf580d9833d",
  "difficulty": 4392173862983,
  "gasLimit": {
    "_hex": "0x2fefd8"
  },
  "gasUsed": {
    "_hex": "0xa410"
  },
  "miner": "0xe6A7a1d47ff21B6321162AEA7C6CB457D5476Bca",
  "extraData": "0x476574682f76312e302e312d38326566323666362f6c696e75782f676f312e34",
  "transactions": [
    {
      "hash": "0x1ba796000ce81628f8ddceb2210feeb9fa97773bd457ffa094ed3a6b44d2dea4",
      "blockHash": "0x459ba48718c74ce8e144b7b717cd25329d3c8b357cb7705859a46a10278b42d5",
      "blockNumber": 107372,
      "transactionIndex": 0,
      "confirmations": null,
      "from": "0xd121f6B6DE47879cc29a8262cA01F7B4ACE9707e",
      "gasPrice": {
        "_hex": "0xd7d40ace3"
      },
      "gasLimit": {
        "_hex": "0x15f90"
      },
      "to": "0x9cF18B3eb373C383a42d06136ba331D766ed9Fbb",
      "value": {
        "_hex": "0x3d952abd36cbc0000"
      },
      "nonce": 3,
      "data": "0x",
      "r": "0xa641e9cf1f0048ded7a952f988f8777c3a59f3b5f337f544b8382b8c494a25f1",
      "s": "0x7f6c7a743e29b9e639dad05114c0101342748571aec03510ea8862263b16a77d",
      "v": 28,
      "creates": null,
      "raw": "0xf86e03850d7d40ace383015f90949cf18b3eb373c383a42d06136ba331d766ed9fbb8903d952abd36cbc0000801ca0a641e9cf1f0048ded7a952f988f8777c3a59f3b5f337f544b8382b8c494a25f1a07f6c7a743e29b9e639dad05114c0101342748571aec03510ea8862263b16a77d",
      "networkId": 0,
      "chainId": 0
    },
    {
      "hash": "0xd0aad1b3820e69bf58552c0a12767b259dfa758485211cdd30c210810303afc1",
      "blockHash": "0x459ba48718c74ce8e144b7b717cd25329d3c8b357cb7705859a46a10278b42d5",
      "blockNumber": 107372,
      "transactionIndex": 1,
      "confirmations": null,
      "from": "0xce7a6e1143620333cbaeDb089A14a5C08a3B7DF2",
      "gasPrice": {
        "_hex": "0xd0dd4f5cc"
      },
      "gasLimit": {
        "_hex": "0x5208"
      },
      "to": "0x32Be343B94f860124dC4fEe278FDCBD38C102D88",
      "value": {
        "_hex": "0x453bdbb90870d000"
      },
      "nonce": 0,
      "data": "0x",
      "r": "0x00456e284edb49101b746409822760bafc8961d3c1722d8ef00fb374a0d07602",
      "s": "0x3ed66c199b6aa163449d000c04b2676ed7448afc62812901b21533181e41b60e",
      "v": 28,
      "creates": null,
      "raw": "0xf86b80850d0dd4f5cc8252089432be343b94f860124dc4fee278fdcbd38c102d8888453bdbb90870d000801c9f456e284edb49101b746409822760bafc8961d3c1722d8ef00fb374a0d07602a03ed66c199b6aa163449d000c04b2676ed7448afc62812901b21533181e41b60e",
      "networkId": 0,
      "chainId": 0
    }
  ]
}