{
  "hash": "0xbac2bdf436b4010a9b6e8df25c00f64ad644b85bf41f5614e037f54ed1ff092e",
  "parentHash": "0x5f506819c7235f94f477af0a34bb4d1f6f3b8a8c6d38fc0effe0696d2e2aef35",
  "number": 47707,
  "timestamp": 1438945117,
  "nonce": "0x6c01a3cf63afc4b1",
  "difficulty": 1443842435822,
  "gasLimit": {
    "_hex": "0xe6d7"
  },
  "gasUsed": {
    "_hex": "0x5208"
  },
  "miner": "0x863b7d048A0B7bfc239AF19F6A736E0995fB1C73",
  "extraData": "0x476574682f76312e302e312f6c696e75782f676f312e342e32",
  "transactions": [
    {
      "hash": "0x0be74bd561d05208a0ef9a0b88a2a472189470d78b8a5e1e252769404750db2f",
      "blockHash": "0xbac2bdf436b4010a9b6e8df25c00f64ad644b85bf41f5614e037f54ed1ff092e",
      "blockNumber": 47707,
      "transactionIndex": 0,
      "confirmations": null,
      "from": "0xe8C3f045bB7D38c9d2f395b0BA8492b253230901",
      "gasPrice": {
        "_hex": "0xba43b7400"
      },
      "gasLimit": {
        "_hex": "0x5208"
      },
      "to": "0xf8F27e88CFb71418ACb223dC82dc8d5f64452D05",
      "value": {
        "_hex": "0x10f0cf064dd59200000"
      },
      "nonce": 0,
      "data": "0x",
      "r": "0x4adc6c1c99d5890869d9f2de1b3dacdd34e1f33687840e9f8392c17986abcb54",
      "s": "0x3aaed67308d788c5cfbca41ab04903d873e0d2be3176fe34333a00cb336e7b0f",
      "v": 28,
      "creates": null,
      "raw": "0xf86e80850ba43b740082520894f8f27e88cfb71418acb223dc82dc8d5f64452d058a010f0cf064dd59200000801ca04adc6c1c99d5890869d9f2de1b3dacdd34e1f33687840e9f8392c17986abcb54a03aaed67308d788c5cfbca41ab04903d873e0d2be3176fe34333a00cb336e7b0f",
      "networkId": 0,
      "chainId": 0
    }
  ]
}