{
  "hash": "0x7833085d35713e27fd3764af7e008960991c08e4175274bc938c1f4596fbef0c",
  "parentHash": "0x3bf1a072bacc83e408b97a0b7c53a275ade6011db8eb6e911330f48f53f374c9",
  "number": 84829,
  "timestamp": 1439555052,
  "nonce": "0xfd29cedf4d642eca",
  "difficulty": 2643906817570,
  "gasLimit": {
    "_hex": "0x2fefd8"
  },
  "gasUsed": {
    "_hex": "0x14820"
  },
  "miner": "0x901375679999F6D4846F257a79d7159ECEb2d47A",
  "extraData": "0x",
  "transactions": [
    {
      "hash": "0x67a181b93c963f01154ae0c74db42bf1c58ad9ba84cf7b9f2529cce59c61d37a",
      "blockHash": "0x7833085d35713e27fd3764af7e008960991c08e4175274bc938c1f4596fbef0c",
      "blockNumber": 84829,
      "transactionIndex": 0,
      "confirmations": null,
      "from": "0x90cA42f0308bF15db201F40e41faA6Dd7a96bEA7",
      "gasPrice": {
        "_hex": "0xd02888e1c"
      },
      "gasLimit": {
        "_hex": "0x5208"
      },
      "to": "0x32Be343B94f860124dC4fEe278FDCBD38C102D88",
      "value": {
        "_hex": "0x1b1ae0abaacd0a0000"
      },
      "nonce": 2,
      "data": "0x",
      "r": "0xc407cfeb1330d3715c1aee6bae8cb5652e198518ebcfc5174de360064c256cd1",
      "s": "0x276258d0952e7d764b1c162fca21ccdde7b31b9cc58e55f3fb2c984cd8f4fa46",
      "v": 27,
      "creates": null,
      "raw": "0xf86d02850d02888e1c8252089432be343b94f860124dc4fee278fdcbd38c102d88891b1ae0abaacd0a0000801ba0c407cfeb1330d3715c1aee6bae8cb5652e198518ebcfc5174de360064c256cd1a0276258d0952e7d764b1c162fca21ccdde7b31b9cc58e55f3fb2c984cd8f4fa46",
      "networkId": 0,
      "chainId": 0
    },
    {
      "hash": "0xa603855f64eebb69fa80305fe05101694a4cc4815af9220689fb4715f29b2b2e",
      "blockHash": "0x7833085d35713e27fd3764af7e008960991c08e4175274bc938c1f4596fbef0c",
      "blockNumber": 84829,
      "transactionIndex": 1,
      "confirmations": null,
      "from": "0xdeE4977F74E6Aef6D627191c9A45D2627e331150",
      "gasPrice": {
        "_hex": "0xd02888e1c"
      },
      "gasLimit": {
        "_hex": "0x5208"
      },
      "to": "0x32Be343B94f860124dC4fEe278FDCBD38C102D88",
      "value": {
        "_hex": "0xd026894eac964800"
      },
      "nonce": 3,
      "data": "0x",
      "r": "0x415d54e11844b065ce8f093d614b18a871ca0cf8b1d47f0002eb5157047c7285",
      "s": "0x652808b99eab6c8574710bce030c91a967476743af463719b25adb25bbc3f777",
      "v": 27,
      "creates": null,
      "raw": "0xf86c03850d02888e1c8252089432be343b94f860124dc4fee278fdcbd38c102d8888d026894eac964800801ba0415d54e11844b065ce8f093d614b18a871ca0cf8b1d47f0002eb5157047c7285a0652808b99eab6c8574710bce030c91a967476743af463719b25adb25bbc3f777",
      "networkId": 0,
      "chainId": 0
    },
    {
      "hash": "0xf5d696a94bba41f5c3b94614016a3c79868a3fb231fb32f4e85c544cb8d7986f",
      "blockHash": "0x7833085d35713e27fd3764af7e008960991c08e4175274bc938c1f4596fbef0c",
      "blockNumber": 84829,
      "transactionIndex": 2,
      "confirmations": null,
      "from": "0xa70a9a7040d542C632D8e0bE7c5513A8a5Bbc752",
      "gasPrice": {
        "_hex": "0xd02888e1c"
      },
      "gasLimit": {
        "_hex": "0x5208"
      },
      "to": "0x32Be343B94f860124dC4fEe278FDCBD38C102D88",
      "value": {
        "_hex": "0x8d48095eb2a8f800"
      },
      "nonce": 82,
      "data": "0x",
      "r": "0x9495e3292fa786d4b13e5d6134df7e598d4c38226a498decc740909db16d24a3",
      "s": "0x357801a6db7a26d43017a287c30ce6622c6c538def3db0cd30fa71546d0e5ba4",
      "v": 28,
      "creates": null,
      "raw": "0xf86c52850d02888e1c8252089432be343b94f860124dc4fee278fdcbd38c102d88888d48095eb2a8f800801ca09495e3292fa786d4b13e5d6134df7e598d4c38226a498decc740909db16d24a3a0357801a6db7a26d43017a287c30ce6622c6c538def3db0cd30fa71546d0e5ba4",
      "networkId": 0,
      "chainId": 0
    },
    {
      "hash": "0x314f94f1930875b0eb5be949f2cf1e2e4644a6506e8256d541684ae042bf7bf3",
      "blockHash": "0x7833085d35713e27fd3764af7e008960991c08e4175274bc938c1f4596fbef0c",
      "blockNumber": 84829,
      "transactionIndex": 3,
      "confirmations": null,
      "from": "0x3620db64D25D412bAb4C8d93E2e0D7e64e8Cb933",
      "gasPrice": {
        "_hex": "0xd02888e1c"
      },
      "gasLimit": {
        "_hex": "0x5208"
      },
      "to": "0x32Be343B94f860124dC4fEe278FDCBD38C102D88",
      "value": {
        "_hex": "0x143866088ac26e0000"
      },
      "nonce": 9,
      "data": "0x",
      "r": "0x7e59527ee65bf33a522673e1d7ae922d2ed8ba2dcffe042c2aff9797fd8a027d",
      "s": "0x1f0af2ce5a3d9d96cd0b27abfeafb638b3ffb1d75e16d3efc740ec4459d3b4c5",
      "v": 27,
      "creates": null,
      "raw": "0xf86d09850d02888e1c8252089432be343b94f860124dc4fee278fdcbd38c102d8889143866088ac26e0000801ba07e59527ee65bf33a522673e1d7ae922d2ed8ba2dcffe042c2aff9797fd8a027da01f0af2ce5a3d9d96cd0b27abfeafb638b3ffb1d75e16d3efc740ec4459d3b4c5",
      "networkId": 0,
      "chainId": 0
    }
  ]
}