{
  "hash": "0xe2c32f00f0074ca22833c7d0f4225567174518ead910d1dd982892efe7a0e3e3",
  "parentHash": "0x5f14e070d5c9ffc87a7df0d3bc39db4a76013927e2b61c96ed3a6e64b0bba7d9",
  "number": 121463,
  "timestamp": 1440177418,
  "nonce": "0x1dff7bfa3f4ec2e3",
  "difficulty": 4442992368068,
  "gasLimit": {
    "_hex": "0x2fefd8"
  },
  "gasUsed": {
    "_hex": "0x5208"
  },
  "miner": "0xe6A7a1d47ff21B6321162AEA7C6CB457D5476Bca",
  "extraData": "0xd783010002844765746887676f312e342e32856c696e7578",
  "transactions": [
    {
      "hash": "0xece64753608ab4a7d422f5272eb03a9aa696e01664905538f477ada11667846b",
      "blockHash": "0xe2c32f00f0074ca22833c7d0f4225567174518ead910d1dd982892efe7a0e3e3",
      "blockNumber": 121463,
      "transactionIndex": 0,
      "confirmations": null,
      "from": "0xb1abce2918E21ddb93AA452731a12672A3d9F75a",
      "gasPrice": {
        "_hex": "0xba43b7400"
      },
      "gasLimit": {
        "_hex": "0x5208"
      },
      "to": "0x32Be343B94f860124dC4fEe278FDCBD38C102D88",
      "value": {
        "_hex": "0x455fd68a17f06000"
      },
      "nonce": 210,
      "data": "0x",
      "r": "0x2373f7165552d7d57621f4f35d5cb2d49bbdd2b1e79821e9b1f1de47dfb1e69e",
      "s": "0x2984e9d252c4e0be7bcc06cfbee2d21d0f91baafdb3220ddaf9637f6255e6abd",
      "v": 28,
      "creates": null,
      "raw": "0xf86d81d2850ba43b74008252089432be343b94f860124dc4fee278fdcbd38c102d8888455fd68a17f06000801ca02373f7165552d7d57621f4f35d5cb2d49bbdd2b1e79821e9b1f1de47dfb1e69ea02984e9d252c4e0be7bcc06cfbee2d21d0f91baafdb3220ddaf9637f6255e6abd",
      "networkId": 0,
      "chainId": 0
    }
  ]
}