{
  "hash": "0x499f2ecc06f27860970c7febce7a1881187c5db72837cba7132dc98acb457182",
  "parentHash": "0x246f895db6819e74b34ad706f134257f64986eb0c0703509a268b9696bc990b7",
  "number": 55251,
  "timestamp": 1439067658,
  "nonce": "0xd5d115cd47715090",
  "difficulty": 1639413081519,
  "gasLimit": {
    "_hex": "0x2fee19"
  },
  "gasUsed": {
    "_hex": "0x5208"
  },
  "miner": "0xB1A4B41b8e75a153841c99c62d18588d45e7b406",
  "extraData": "0x",
  "transactions": [
    {
      "hash": "0x386f341bb364c43b5043797717b66b584cf3b423cf11b77646974e86a94c4d04",
      "blockHash": "0x499f2ecc06f27860970c7febce7a1881187c5db72837cba7132dc98acb457182",
      "blockNumber": 55251,
      "transactionIndex": 0,
      "confirmations": null,
      "from": "0xC6Bf5B6558f2eE21F2E43d9fF9B5408A0Cb89413",
      "gasPrice": {
        "_hex": "0xd9882467b"
      },
      "gasLimit": {
        "_hex": "0x15f90"
      },
      "to": "0x33A3f479f6c3e7F91128348490D1f7E8D2A0FAb5",
      "value": {
        "_hex": "0x4563918244f40000"
      },
      "nonce": 9,
      "data": "0x",
      "r": "0xfd05ff632840dace578686431084302153d0ea1dcacb18c339e1c6ddadd42c43",
      "s": "0x2c2a89959f2e639c54da4f16800c5f43de486edab841b8fd92b87255dbf4a7d2",
      "v": 28,
      "creates": null,
      "raw": "0xf86d09850d9882467b83015f909433a3f479f6c3e7f91128348490d1f7e8d2a0fab5884563918244f40000801ca0fd05ff632840dace578686431084302153d0ea1dcacb18c339e1c6ddadd42c43a02c2a89959f2e639c54da4f16800c5f43de486edab841b8fd92b87255dbf4a7d2",
      "networkId": 0,
      "chainId": 0
    }
  ]
}