{
  "hash": "0x1f7e75c56514353ad41192e1ca1fa6cd3ca2bbc24019889e9bda102a2b75f7b6",
  "parentHash": "0x6983eec8785a2286b1a8076194b3878fd476e869b16437913a684fb11efb47be",
  "number": 106184,
  "timestamp": 1439900054,
  "nonce": "0x446d4144b5a5526b",
  "difficulty": 4470695711873,
  "gasLimit": {
    "_hex": "0x2fefd8"
  },
  "gasUsed": {
    "_hex": "0xa410"
  },
  "miner": "0xe6A7a1d47ff21B6321162AEA7C6CB457D5476Bca",
  "extraData": "0x476574682f76312e302e312d38326566323666362f6c696e75782f676f312e34",
  "transactions": [
    {
      "hash": "0x9641f6f7983f286bd16ed0e70c2348e15a6f16d9dcd81c166df5f2bcbacdf41b",
      "blockHash": "0x1f7e75c56514353ad41192e1ca1fa6cd3ca2bbc24019889e9bda102a2b75f7b6",
      "blockNumber": 106184,
      "transactionIndex": 0,
      "confirmations": null,
      "from": "0x06EC48800B2DB3eEfa052e98A9b5Fc2Bf783Ee74",
      "gasPrice": {
        "_hex": "0xd64f5e3ce"
      },
      "gasLimit": {
        "_hex": "0x5208"
      },
      "to": "0x32Be343B94f860124dC4fEe278FDCBD38C102D88",
      "value": {
        "_hex": "0x455f46bf91999800"
      },
      "nonce": 26,
      "data": "0x",
      "r": "0x53a959e3734e869e35b82e6acd0677f48208b8cad8161acfede0e97335056389",
      "s": "0x228961f86afa0a7af571ed164b92b9c9148006f5c82f86fd2ddf5936b2830af3",
      "v": 28,
      "creates": null,
      "raw": "0xf86c1a850d64f5e3ce8252089432be343b94f860124dc4fee278fdcbd38c102d8888455f46bf91999800801ca053a959e3734e869e35b82e6acd0677f48208b8cad8161acfede0e97335056389a0228961f86afa0a7af571ed164b92b9c9148006f5c82f86fd2ddf5936b2830af3",
      "networkId": 0,
      "chainId": 0
    },
    {
      "hash": "0xcc3b689321e622afc4606280a98888ffab19df3cb7b0478b9e98893333b171c4",
      "blockHash": "0x1f7e75c56514353ad41192e1ca1fa6cd3ca2bbc24019889e9bda102a2b75f7b6",
      "blockNumber": 106184,
      "transactionIndex": 1,
      "confirmations": null,
      "from": "0xB9eE81c1A5CdE84454DC603a8000836118627cfd",
      "gasPrice": {
        "_hex": "0xd64f5e3ce"
      },
      "gasLimit": {
        "_hex": "0x5208"
      },
      "to": "0x32Be343B94f860124dC4fEe278FDCBD38C102D88",
      "value": {
        "_hex": "0xa6884bbfad7a58000"
      },
      "nonce": 6,
      "data": "0x",
      "r": "0x2d85f5d1196d66e62628968c81e9a59b8050f21a811e650759d6bf28b28cacc6",
      "s": "0x475d38eff8e3da0900da39525ad7cd03966fc79d6cf2836a7fa1679031545786",
      "v": 28,
      "creates": null,
      "raw": "0xf86d06850d64f5e3ce8252089432be343b94f860124dc4fee278fdcbd38c102d88890a6884bbfad7a58000801ca02d85f5d1196d66e62628968c81e9a59b8050f21a811e650759d6bf28b28cacc6a0475d38eff8e3da0900da39525ad7cd03966fc79d6cf2836a7fa1679031545786",
      "networkId": 0,
      "chainId": 0
    }
  ]
}