{
  "hash": "0xd74e93d8426b2b0f5054e6355ddef68426f9c4cc89222c95f0fc33d9081c24ed",
  "parentHash": "0xcdb6b3bf24627d31f56eb8547ff04f5ab309a063ec1d671d093d799bfae157de",
  "number": 119356,
  "timestamp": 1440141377,
  "nonce": "0x021d47984db95a42",
  "difficulty": 4407371580602,
  "gasLimit": {
    "_hex": "0x2fefd8"
  },
  "gasUsed": {
    "_hex": "0x5208"
  },
  "miner": "0xe6A7a1d47ff21B6321162AEA7C6CB457D5476Bca",
  "extraData": "0xd783010002844765746887676f312e342e32856c696e7578",
  "transactions": [
    {
      "hash": "0xbd7f46bdb498d345fb08d132b2993673e834b759b131746abe65342186fc2c43",
      "blockHash": "0xd74e93d8426b2b0f5054e6355ddef68426f9c4cc89222c95f0fc33d9081c24ed",
      "blockNumber": 119356,
      "transactionIndex": 0,
      "confirmations": null,
      "from": "0xabceA603089850F8f6bB612A9031554D90A247CF",
      "gasPrice": {
        "_hex": "0xba43b7400"
      },
      "gasLimit": {
        "_hex": "0x5208"
      },
      "to": "0x32Be343B94f860124dC4fEe278FDCBD38C102D88",
      "value": {
        "_hex": "0x6e34232adf1f5c00"
      },
      "nonce": 37,
      "data": "0x",
      "r": "0x7018b6151342a29f71169029776468a9c1401b66b80294f2f612aaeb89a991c8",
      "s": "0x5d3fc99d804aa01b2447cd158d8577fd37cffcdac89b4931bb4ca171fa8e01b7",
      "v": 28,
      "creates": null,
      "raw": "0xf86c25850ba43b74008252089432be343b94f860124dc4fee278fdcbd38c102d88886e34232adf1f5c00801ca07018b6151342a29f71169029776468a9c1401b66b80294f2f612aaeb89a991c8a05d3fc99d804aa01b2447cd158d8577fd37cffcdac89b4931bb4ca171fa8e01b7",
      "networkId": 0,
      "chainId": 0
    }
  ]
}