{
  "hash": "0x79e94102fb8fda954e12695ce95728d4958ee664315e024c63f3232f547caee4",
  "parentHash": "0x8ed29e7735502af293ea06cdf4ac02697412c787b0daa12cceee1367b68f11c0",
  "number": 56757,
  "timestamp": 1439091993,
  "nonce": "0xff8928244b7ab230",
  "difficulty": 1691150005117,
  "gasLimit": {
    "_hex": "0x2fefd8"
  },
  "gasUsed": {
    "_hex": "0xa886"
  },
  "miner": "0x84ad64deFF6B187f690634051D2a096C359D1099",
  "extraData": "0x",
  "transactions": [
    {
      "hash": "0x9fa17464013887a196a741e45c8890005ca082d507fb85be01bab64fbcad141e",
      "blockHash": "0x79e94102fb8fda954e12695ce95728d4958ee664315e024c63f3232f547caee4",
      "blockNumber": 56757,
      "transactionIndex": 0,
      "confirmations": null,
      "from": "0xFD2605a2bF58fDbB90db1Da55dF61628B47F9e8c",
      "gasPrice": {
        "_hex": "0xdd6d9b620"
      },
      "gasLimit": {
        "_hex": "0x15f90"
      },
      "to": "0x7AF6Af3d4491A161670837d0737baDA43FfbB992",
      "value": {
        "_hex": "0x0"
      },
      "nonce": 47,
      "data": "0x63bd1d4a",
      "r": "0x0972e5ce51f7d9dc46a6ecec1d450da001f6150c79d43507327d7d6869869fdf",
      "s": "0x42cc1b7e395ddaf02d9d99a5b75c834a05c9474c1e05960c31524ec94ba85d29",
      "v": 27,
      "creates": null,
      "raw": "0xf8692f850dd6d9b62083015f90947af6af3d4491a161670837d0737bada43ffbb992808463bd1d4a1ba00972e5ce51f7d9dc46a6ecec1d450da001f6150c79d43507327d7d6869869fdfa042cc1b7e395ddaf02d9d99a5b75c834a05c9474c1e05960c31524ec94ba85d29",
      "networkId": 0,
      "chainId": 0
    }
  ]
}