{
  "hash": "0xadef8c3bfdc7073361fca578a91f0eb02e66d8bbe9549a21810e598628f35056",
  "parentHash": "0x951536917c076e07fde08aa1bbe297ba5795dda5ea9afc3528e5130adad541e6",
  "number": 112675,
  "timestamp": 1440011202,
  "nonce": "0xf4ff1c73f8cff907",
  "difficulty": 4430309593401,
  "gasLimit": {
    "_hex": "0x2fefd8"
  },
  "gasUsed": {
    "_hex": "0xa410"
  },
  "miner": "0xf927a40C8B7F6E07c5af7FA2155B4864a4112B13",
  "extraData": "0x",
  "transactions": [
    {
      "hash": "0x4bf85fdb06b25cd5ef2b44c91ddf4627cc9bcacd65f97d9f84ac0d6377678648",
      "blockHash": "0xadef8c3bfdc7073361fca578a91f0eb02e66d8bbe9549a21810e598628f35056",
      "blockNumber": 112675,
      "transactionIndex": 0,
      "confirmations": null,
      "from": "0xe6A7a1d47ff21B6321162AEA7C6CB457D5476Bca",
      "gasPrice": {
        "_hex": "0xcd131a534"
      },
      "gasLimit": {
        "_hex": "0x55f0"
      },
      "to": "0x9900467341E2d122D382794f203a0Fa60f42e508",
      "value": {
        "_hex": "0xdf416698dc33804"
      },
      "nonce": 4626,
      "data": "0x",
      "r": "0xf925b6bc22cf731dd8680104c8c8696c0f11c7dd84caed6a02b842617dba075d",
      "s": "0x11d55c53c5a6f894a37fb979a28c5709d31fb9bf68a836d98ee8009c3f87f042",
      "v": 28,
      "creates": null,
      "raw": "0xf86e821212850cd131a5348255f0949900467341e2d122d382794f203a0fa60f42e508880df416698dc33804801ca0f925b6bc22cf731dd8680104c8c8696c0f11c7dd84caed6a02b842617dba075da011d55c53c5a6f894a37fb979a28c5709d31fb9bf68a836d98ee8009c3f87f042",
      "networkId": 0,
      "chainId": 0
    },
    {
      "hash": "0x826b069176113eed55df61e0d679d6f5288bc8e3fd7d8b72c126cdb1eeac20fc",
      "blockHash": "0xadef8c3bfdc7073361fca578a91f0eb02e66d8bbe9549a21810e598628f35056",
      "blockNumber": 112675,
      "transactionIndex": 1,
      "confirmations": null,
      "from": "0xe6A7a1d47ff21B6321162AEA7C6CB457D5476Bca",
      "gasPrice": {
        "_hex": "0xcd131a534"
      },
      "gasLimit": {
        "_hex": "0x55f0"
      },
      "to": "0x37E0B394d41C669662b52628639E6E4c1ac3F23D",
      "value": {
        "_hex": "0xdf6ff4455e89494"
      },
      "nonce": 4627,
      "data": "0x",
      "r": "0xb74eef62cf8806845eb772bdb8d29d8e79ab9862b145daacd148f82629d9422e",
      "s": "0x525dd1dca861011e9ca89e8d52b3c32f06a36fb2003236c50eaf1b74787eb002",
      "v": 27,
      "creates": null,
      "raw": "0xf86e821213850cd131a5348255f09437e0b394d41c669662b52628639e6e4c1ac3f23d880df6ff4455e89494801ba0b74eef62cf8806845eb772bdb8d29d8e79ab9862b145daacd148f82629d9422ea0525dd1dca861011e9ca89e8d52b3c32f06a36fb2003236c50eaf1b74787eb002",
      "networkId": 0,
      "chainId": 0
    }
  ]
}