{
  "hash": "0xc48320eff35bb08c2795effd446ddf6f8c91d9ebf455e36a4ecb2c6dd07c3ec8",
  "parentHash": "0x867caf2273172607ca48e5b1550f988e62b4202181ee4562770fef1cc0cfd17b",
  "number": 90127,
  "timestamp": 1439634998,
  "nonce": "0x5e53dd9129a3bfca",
  "difficulty": 3317346405926,
  "gasLimit": {
    "_hex": "0x2fefd8"
  },
  "gasUsed": {
    "_hex": "0xa410"
  },
  "miner": "0xe6A7a1d47ff21B6321162AEA7C6CB457D5476Bca",
  "extraData": "0x476574682f76312e302e312d38326566323666362f6c696e75782f676f312e34",
  "transactions": [
    {
      "hash": "0xfe6e3884f290ebbb10498d4bdffd4b5c55fd60bd256622c57c0fc17941e135f2",
      "blockHash": "0xc48320eff35bb08c2795effd446ddf6f8c91d9ebf455e36a4ecb2c6dd07c3ec8",
      "blockNumber": 90127,
      "transactionIndex": 0,
      "confirmations": null,
      "from": "0x3f078914156a83A96e4e54E51444c2654e980387",
      "gasPrice": {
        "_hex": "0xcdf2afec9"
      },
      "gasLimit": {
        "_hex": "0x5208"
      },
      "to": "0x32Be343B94f860124dC4fEe278FDCBD38C102D88",
      "value": {
        "_hex": "0x1b05a318e68ab4000"
      },
      "nonce": 0,
      "data": "0x",
      "r": "0x89566b70def45969c8a003923978cd3a95927980436ea64fe8e63b3003e82e5b",
      "s": "0x7d7f3b256498df86297665883c9e7000e794fcbb6a12cfc725e45870f0899852",
      "v": 28,
      "creates": null,
      "raw": "0xf86d80850cdf2afec98252089432be343b94f860124dc4fee278fdcbd38c102d888901b05a318e68ab4000801ca089566b70def45969c8a003923978cd3a95927980436ea64fe8e63b3003e82e5ba07d7f3b256498df86297665883c9e7000e794fcbb6a12cfc725e45870f0899852",
      "networkId": 0,
      "chainId": 0
    },
    {
      "hash": "0x4512d357725566c1bbf8e0e96608bcda03e259fc22f2fb28f3dfa7fd99f2487e",
      "blockHash": "0xc48320eff35bb08c2795effd446ddf6f8c91d9ebf455e36a4ecb2c6dd07c3ec8",
      "blockNumber": 90127,
      "transactionIndex": 1,
      "confirmations": null,
      "from": "0xa9f5E7bf6Cbf6fEc55B30850Eb492b47A376d050",
      "gasPrice": {
        "_hex": "0xcdf2afec9"
      },
      "gasLimit": {
        "_hex": "0x5208"
      },
      "to": "0x32Be343B94f860124dC4fEe278FDCBD38C102D88",
      "value": {
        "_hex": "0xd716effd92280000"
      },
      "nonce": 22,
      "data": "0x",
      "r": "0xee628b84b30e700ebba45dad7225c0732c671d2213a7e2fd2202c9637a5efa77",
      "s": "0x5b2cf8c46d561ff0d3fe46da6335717d1a48720f92020fc5c8d8fc4e991bd01a",
      "v": 27,
      "creates": null,
      "raw": "0xf86c16850cdf2afec98252089432be343b94f860124dc4fee278fdcbd38c102d8888d716effd92280000801ba0ee628b84b30e700ebba45dad7225c0732c671d2213a7e2fd2202c9637a5efa77a05b2cf8c46d561ff0d3fe46da6335717d1a48720f92020fc5c8d8fc4e991bd01a",
      "networkId": 0,
      "chainId": 0
    }
  ]
}