{
  "hash": "0x5156ddd47dd81bb37c1ee40779d530059554ced7917ea88eb6a9107838947a18",
  "parentHash": "0xf4099acc7ec302d5664005f8470379110221c7c989aa1c4029db5737e478a81f",
  "number": 119377,
  "timestamp": 1440141753,
  "nonce": "0x3fdce41183630eec",
  "difficulty": 4418133851314,
  "gasLimit": {
    "_hex": "0x2fefd8"
  },
  "gasUsed": {
    "_hex": "0xa410"
  },
  "miner": "0xe6A7a1d47ff21B6321162AEA7C6CB457D5476Bca",
  "extraData": "0xd783010002844765746887676f312e342e32856c696e7578",
  "transactions": [
    {
      "hash": "0xea969b178c48d073f674260e3e68798e6b426978516907e21154d3b6be96bc2d",
      "blockHash": "0x5156ddd47dd81bb37c1ee40779d530059554ced7917ea88eb6a9107838947a18",
      "blockNumber": 119377,
      "transactionIndex": 0,
      "confirmations": null,
      "from": "0x1Fab7BE036A5C6A69b2B05D6e172FF4e5b2a5e6B",
      "gasPrice": {
        "_hex": "0xba43b7400"
      },
      "gasLimit": {
        "_hex": "0x5208"
      },
      "to": "0x32Be343B94f860124dC4fEe278FDCBD38C102D88",
      "value": {
        "_hex": "0x1569ca23a9f24b000"
      },
      "nonce": 11,
      "data": "0x",
      "r": "0xe21962f706fae5bee022a9776bc0510d1752a0e4c9bb711fc1ef08f80c51e36b",
      "s": "0x464a0a47c0b8bc8b35bd23c4f3fda1e7e3582a67360bbdec4b330211d6054be2",
      "v": 28,
      "creates": null,
      "raw": "0xf86d0b850ba43b74008252089432be343b94f860124dc4fee278fdcbd38c102d888901569ca23a9f24b000801ca0e21962f706fae5bee022a9776bc0510d1752a0e4c9bb711fc1ef08f80c51e36ba0464a0a47c0b8bc8b35bd23c4f3fda1e7e3582a67360bbdec4b330211d6054be2",
      "networkId": 0,
      "chainId": 0
    },
    {
      "hash": "0x30c47c6c0b0aef50e1e4c4d248391996963ab48a634144bf5e9990f542db41c1",
      "blockHash": "0x5156ddd47dd81bb37c1ee40779d530059554ced7917ea88eb6a9107838947a18",
      "blockNumber": 119377,
      "transactionIndex": 1,
      "confirmations": null,
      "from": "0x267069452478cA39b3f5F1A4fFdD4131f50Bc977",
      "gasPrice": {
        "_hex": "0xba43b7400"
      },
      "gasLimit": {
        "_hex": "0x5208"
      },
      "to": "0x32Be343B94f860124dC4fEe278FDCBD38C102D88",
      "value": {
        "_hex": "0xebe89761d7ea1000"
      },
      "nonce": 14,
      "data": "0x",
      "r": "0x9d9d2d9e526533d3556aca2a10f9fc493b334bb1aacbe36367af5f43d5be325b",
      "s": "0x2f3510fa0b3ed7778df4650147179fe6a503cf20853c692cfc268ba2ddc19d14",
      "v": 28,
      "creates": null,
      "raw": "0xf86c0e850ba43b74008252089432be343b94f860124dc4fee278fdcbd38c102d8888ebe89761d7ea1000801ca09d9d2d9e526533d3556aca2a10f9fc493b334bb1aacbe36367af5f43d5be325ba02f3510fa0b3ed7778df4650147179fe6a503cf20853c692cfc268ba2ddc19d14",
      "networkId": 0,
      "chainId": 0
    }
  ]
}