{
  "hash": "0xf9016900790a0b5528a838e286f59b21d01a9fe2348791faad11b535a10843a5",
  "parentHash": "0xd65de7643f85dc31619293a37fb971df1a69cf43d8ca1b219cab74077e129b66",
  "number": 59321,
  "timestamp": 1439136279,
  "nonce": "0x93cc497ff014d22a",
  "difficulty": 1700568312611,
  "gasLimit": {
    "_hex": "0x2fefd8"
  },
  "gasUsed": {
    "_hex": "0x5208"
  },
  "miner": "0x88D74a59454F6cF3B51ef6b9136AFb6b9D405A88",
  "extraData": "0x476574682f76312e302e312d38326566323666362f6c696e75782f676f312e34",
  "transactions": [
    {
      "hash": "0xf9e002c7bfdab17ae8dcfe608f4fa965177dc13ca719a26230a9368b427eb786",
      "blockHash": "0xf9016900790a0b5528a838e286f59b21d01a9fe2348791faad11b535a10843a5",
      "blockNumber": 59321,
      "transactionIndex": 0,
      "confirmations": null,
      "from": "0xBFdD9820a04283b289957956353b5F3C1F665EcF",
      "gasPrice": {
        "_hex": "0xde73a9c7d"
      },
      "gasLimit": {
        "_hex": "0x5208"
      },
      "to": "0x32Be343B94f860124dC4fEe278FDCBD38C102D88",
      "value": {
        "_hex": "0x533fd3b69fd78400"
      },
      "nonce": 7,
      "data": "0x",
      "r": "0x61b8ed38f7af968adebecdc8a4efeffb60b91669768a5c18f0094a26e05deac4",
      "s": "0x66335053258cf768cd27990e2ce4195fe3a64d90286a092173f3002e52a016de",
      "v": 27,
      "creates": null,
      "raw": "0xf86c07850de73a9c7d8252089432be343b94f860124dc4fee278fdcbd38c102d8888533fd3b69fd78400801ba061b8ed38f7af968adebecdc8a4efeffb60b91669768a5c18f0094a26e05deac4a066335053258cf768cd27990e2ce4195fe3a64d90286a092173f3002e52a016de",
      "networkId": 0,
      "chainId": 0
    }
  ]
}