{
  "hash": "0xfc2e8cd8d48c138eeebf3378d2577248f878124ba7baed869fdbb4dc0d26f31e",
  "parentHash": "0x19460ba8d694f5b300edb56a0a87e79c04db6eb999e10a785ef18d0619df5fd3",
  "number": 71579,
  "timestamp": 1439338379,
  "nonce": "0x777672f29a611df8",
  "difficulty": 2176130117127,
  "gasLimit": {
    "_hex": "0x2fefd8"
  },
  "gasUsed": {
    "_hex": "0xae73"
  },
  "miner": "0x5214803C763281b785cDC039b80605fd088D42Ca",
  "extraData": "0x",
  "transactions": [
    {
      "hash": "0x3c99f7982e7fabc090b501bbc015558bc64a6962e1a70eb9bf313e3000a5d2dc",
      "blockHash": "0xfc2e8cd8d48c138eeebf3378d2577248f878124ba7baed869fdbb4dc0d26f31e",
      "blockNumber": 71579,
      "transactionIndex": 0,
      "confirmations": null,
      "from": "0x17580B766f7453525ca4C6A88b01b50570EA088C",
      "gasPrice": {
        "_hex": "0xd4fe5509e"
      },
      "gasLimit": {
        "_hex": "0x61a80"
      },
      "to": "0x5Fe5B7546D1628f7348B023A0393de1FC825A4fD",
      "value": {
        "_hex": "0x4563918244f40000"
      },
      "nonce": 222,
      "data": "0xb595b8b50000000000000000000000000000000000000000000000000000000000000000",
      "r": "0xb3140d8096f788cf81e0d7f57267e7eeb2f69fd8e7e5dcb4b1f1f9f82af7b2ea",
      "s": "0x7ce41753572f577ca349e19eaa449cd98d3138ebde7f8543acf0b917ce2e78ce",
      "v": 27,
      "creates": null,
      "raw": "0xf89281de850d4fe5509e83061a80945fe5b7546d1628f7348b023a0393de1fc825a4fd884563918244f40000a4b595b8b500000000000000000000000000000000000000000000000000000000000000001ba0b3140d8096f788cf81e0d7f57267e7eeb2f69fd8e7e5dcb4b1f1f9f82af7b2eaa07ce41753572f577ca349e19eaa449cd98d3138ebde7f8543acf0b917ce2e78ce",
      "networkId": 0,
      "chainId": 0
    }
  ]
}