{
  "hash": "0xc3aa622ace494c0028843d099ab230b2c0eeae3c20e2c7ba4460543d4d350d2e",
  "parentHash": "0x44a2b852981c00fe80242f319b1804b36fd3bece761975a86e54809ba59971ef",
  "number": 100487,
  "timestamp": 1439807254,
  "nonce": "0xcebad49b5e032168",
  "difficulty": 3824718533249,
  "gasLimit": {
    "_hex": "0x2fefd8"
  },
  "gasUsed": {
    "_hex": "0x5208"
  },
  "miner": "0x5F8F73E26CdF436f19Cb24C82F90A15AFe55b592",
  "extraData": "0x476574682f76312e302e312f77696e646f77732f676f312e342e32",
  "transactions": [
    {
      "hash": "0x0b84ca62c376591833348093f2ada6aef80bace28378090ff2684aa198107b9e",
      "blockHash": "0xc3aa622ace494c0028843d099ab230b2c0eeae3c20e2c7ba4460543d4d350d2e",
      "blockNumber": 100487,
      "transactionIndex": 0,
      "confirmations": null,
      "from": "0x727A42a8D67fcaa0Ab81D46f1EE66bfc9b8789AC",
      "gasPrice": {
        "_hex": "0xd3d37f23a"
      },
      "gasLimit": {
        "_hex": "0x15f90"
      },
      "to": "0x285B048CC4cB946abCF3eF11aDe982C36946AF18",
      "value": {
        "_hex": "0xb469471f80140000"
      },
      "nonce": 15,
      "data": "0x",
      "r": "0x392dd7a5c03a747a5fb1b8927efef545c0c5df5d0cad3b948572cb27dea7abb0",
      "s": "0x0a08404833ddb862538a6ceee8ae81a0a50e8f7a4b87c0d96d35dca0bad3dff5",
      "v": 28,
      "creates": null,
      "raw": "0xf86d0f850d3d37f23a83015f9094285b048cc4cb946abcf3ef11ade982c36946af1888b469471f80140000801ca0392dd7a5c03a747a5fb1b8927efef545c0c5df5d0cad3b948572cb27dea7abb0a00a08404833ddb862538a6ceee8ae81a0a50e8f7a4b87c0d96d35dca0bad3dff5",
      "networkId": 0,
      "chainId": 0
    }
  ]
}