{
  "hash": "0xd68560d966aba0a5edab5e5e442bcf796b12f9152453fb87671e37b09bacd0e9",
  "parentHash": "0x89763e672f52e349f9d8cc830095b3137dac3be7d1b1bed8b7b63981213c382d",
  "number": 68385,
  "timestamp": 1439286959,
  "nonce": "0x633f4bcc2ef81259",
  "difficulty": 2017293975373,
  "gasLimit": {
    "_hex": "0x2fefd8"
  },
  "gasUsed": {
    "_hex": "0x5208"
  },
  "miner": "0x688d4CACaCCc92e6914549710594BC6aa994F569",
  "extraData": "0x476574682f76312e302e312d38326566323666362f6c696e75782f676f312e34",
  "transactions": [
    {
      "hash": "0xcd32e6e3a1c161f020ec2af78a0b75ea888cea24f3516a719a530d9fb80d4cbc",
      "blockHash": "0xd68560d966aba0a5edab5e5e442bcf796b12f9152453fb87671e37b09bacd0e9",
      "blockNumber": 68385,
      "transactionIndex": 0,
      "confirmations": null,
      "from": "0x6747f922385c9a6F9cfDf095F34345257DD597bE",
      "gasPrice": {
        "_hex": "0xba43b7400"
      },
      "gasLimit": {
        "_hex": "0x5208"
      },
      "to": "0x8f69e077701C5276F128C3f08Cb76649f50fFcC9",
      "value": {
        "_hex": "0x1fcbfa42bd6000"
      },
      "nonce": 72,
      "data": "0x",
      "r": "0x3f4f2a7fc9ed8c8924202c72658bf93a2b792e281cb34020395d7f7d633f84be",
      "s": "0x5b0c69547a9148f0bba0ec1ffef008fd3ce58c068b3e4d1343f14b7b715f0c34",
      "v": 27,
      "creates": null,
      "raw": "0xf86b48850ba43b7400825208948f69e077701c5276f128c3f08cb76649f50ffcc9871fcbfa42bd6000801ba03f4f2a7fc9ed8c8924202c72658bf93a2b792e281cb34020395d7f7d633f84bea05b0c69547a9148f0bba0ec1ffef008fd3ce58c068b3e4d1343f14b7b715f0c34",
      "networkId": 0,
      "chainId": 0
    }
  ]
}