{
  "hash": "0x4d0aa7376cc0b43d5d295eccb5d08ba245c53e5aa714d392dc31ac10c36aeed4",
  "parentHash": "0x6ee8c07e1b8243a0f02c1268c9eed3712c04708878bea6a09388ccfe54f545f5",
  "number": 46903,
  "timestamp": 1438931347,
  "nonce": "0x5023eaad997972ec",
  "difficulty": 1453885605613,
  "gasLimit": {
    "_hex": "0x83f5"
  },
  "gasUsed": {
    "_hex": "0x5208"
  },
  "miner": "0xf8E0CA3Ed80bd541b94BEdCf259e8CF2141A9523",
  "extraData": "0x476574682f76312e302e312f77696e646f77732f676f312e342e32",
  "transactions": [
    {
      "hash": "0xe0d6c4dfe5fa568e8282f363e43ff562c971d297a87e0ef85dfcc1ffb9f1b7bc",
      "blockHash": "0x4d0aa7376cc0b43d5d295eccb5d08ba245c53e5aa714d392dc31ac10c36aeed4",
      "blockNumber": 46903,
      "transactionIndex": 0,
      "confirmations": null,
      "from": "0x4a7C6662593951F4D9FCD1009738CCCfC9D3f774",
      "gasPrice": {
        "_hex": "0xd583f9458"
      },
      "gasLimit": {
        "_hex": "0x5208"
      },
      "to": "0x32Be343B94f860124dC4fEe278FDCBD38C102D88",
      "value": {
        "_hex": "0xddc700408d89800"
      },
      "nonce": 0,
      "data": "0x",
      "r": "0xb3c70e2af23b7b10f8f9a94d2b43881d57361774d91f3b16dbdb7ff5a0a48617",
      "s": "0x6210edd7f70718e2019fd629539f9974d04d9019fe7d50fd682c56bcc23eea0f",
      "v": 28,
      "creates": null,
      "raw": "0xf86c80850d583f94588252089432be343b94f860124dc4fee278fdcbd38c102d88880ddc700408d89800801ca0b3c70e2af23b7b10f8f9a94d2b43881d57361774d91f3b16dbdb7ff5a0a48617a06210edd7f70718e2019fd629539f9974d04d9019fe7d50fd682c56bcc23eea0f",
      "networkId": 0,
      "chainId": 0
    }
  ]
}