{
  "hash": "0xea843769ebd2018e099afe0e652edc26031e6f3d41bdec3ba8ac4db8bff7d00f",
  "parentHash": "0xcfe8e5f8ce84f325d6ecf7ffea6af9275faad06d47ed6b5d0ee6510f49e36624",
  "number": 52830,
  "timestamp": 1439027911,
  "nonce": "0x698d826645b31328",
  "difficulty": 1571682079857,
  "gasLimit": {
    "_hex": "0x1a7a3c"
  },
  "gasUsed": {
    "_hex": "0x46500"
  },
  "miner": "0x2134e2a2b718DCa96580ECAC31E653Ea1fdd58DA",
  "extraData": "0x476574682f76312e302e312f77696e646f77732f676f312e342e32",
  "transactions": [
    {
      "hash": "0xdabd7c1de0c70950eac907b2676fb347eb8b8f08154c7f243b2d24545bf680ad",
      "blockHash": "0xea843769ebd2018e099afe0e652edc26031e6f3d41bdec3ba8ac4db8bff7d00f",
      "blockNumber": 52830,
      "transactionIndex": 0,
      "confirmations": null,
      "from": "0x326Be8F71bFb0379f989aAB1CC1fE37f0a771f60",
      "gasPrice": {
        "_hex": "0x10cf6aab8d4"
      },
      "gasLimit": {
        "_hex": "0x493e0"
      },
      "to": null,
      "value": {
        "_hex": "0x0"
      },
      "nonce": 1,
      "data": "0x60606040525b33600260006101000a81548173ffffffffffffffffffffffffffffffffffffffff021916908302179055505b610d88806100406000396000f300606060405236156100e2576000357c0100000000000000000000000000000000000000000000000000000000900480631fa03a2b146100e45780632386e0dc1461011157806326b3293f146101385780634311de8f146101575780634fb2e45d146101645780635abae45014610177578063673448dd146101a457806367eae672146101cb578063930b7a23146101fe578063a8d2021a14610217578063a9eef40014610230578063b5252f9b1461025d578063bbd39ac014610270578063c86a90fe14610297578063d26c8a8a146102c4578063daea85c5146102e5576100e2565b005b6100fb6004803590602001803590602001506107af565b6040518082815260200191505060405180910390f35b610122600480359060200150610c4e565b6040518082815260200191505060405180910390f35b610155600480359060200180359060200180359060200150610a4e565b005b610162600450610cbd565b005b6101756004803590602001506109c3565b005b61018e600480359060200180359060200150610895565b6040518082815260200191505060405180910390f35b6101b5600480359060200150610797565b6040518082815260200191505060405180910390f35b6101e860048035906020018035906020018035906020015061040a565b6040518082815260200191505060405180910390f35b61021560048035906020018035906020015061095a565b005b61022e600480359060200180359060200150610b92565b005b610247600480359060200180359060200150610881565b6040518082815260200191505060405180910390f35b61026e6004803590602001506106ab565b005b6102816004803590602001506105f0565b6040518082815260200191505060405180910390f35b6102ae6004803590602001803590602001506102f8565b6040518082815260200191505060405180910390f35b6102cf6004506105db565b6040518082815260200191505060405180910390f35b6102f6600480359060200150610634565b005b600060006000600060005060003373ffffffffffffffffffffffffffffffffffffffff1681526020019081526020016000206000509150848260000160005054101561034357610402565b600060005060008573ffffffffffffffffffffffffffffffffffffffff1681526020019081526020016000206000509050848260000160008282825054039250508190555084816000016000828282505401925050819055508373ffffffffffffffffffffffffffffffffffffffff163373ffffffffffffffffffffffffffffffffffffffff167f16cdf1707799c6655baac6e210f52b94b7cec08adcaf9ede7dfe8649da926146876040518082815260200191505060405180910390a35b505092915050565b600060006000600060005060008773ffffffffffffffffffffffffffffffffffffffff16815260200190815260200160002060005091508482600001600050541015610455576105d2565b8160010160005060003373ffffffffffffffffffffffffffffffffffffffff16815260200190815260200160002060009054906101000a900460ff16151561051357848260020160005060003373ffffffffffffffffffffffffffffffffffffffff1681526020019081526020016000206000505410151561050d5760008260020160005060003373ffffffffffffffffffffffffffffffffffffffff16815260200190815260200160002060005081905550610512565b6105d2565b5b600060005060008573ffffffffffffffffffffffffffffffffffffffff1681526020019081526020016000206000509050848260000160008282825054039250508190555084816000016000828282505401925050819055508373ffffffffffffffffffffffffffffffffffffffff168673ffffffffffffffffffffffffffffffffffffffff167f16cdf1707799c6655baac6e210f52b94b7cec08adcaf9ede7dfe8649da926146876040518082815260200191505060405180910390a35b50509392505050565b60006105e6336105f0565b90506105ed565b90565b6000600060005060008373ffffffffffffffffffffffffffffffffffffffff16815260200190815260200160002060005060000160005054905061062f565b919050565b6001600060005060003373ffffffffffffffffffffffffffffffffffffffff16815260200190815260200160002060005060010160005060008373ffffffffffffffffffffffffffffffffffffffff16815260200190815260200160002060006101000a81548160ff021916908302179055505b50565b6000600060005060003373ffffffffffffffffffffffffffffffffffffffff16815260200190815260200160002060005060010160005060008373ffffffffffffffffffffffffffffffffffffffff16815260200190815260200160002060006101000a81548160ff0219169083021790555061072833826107af565b15610793576000600060005060003373ffffffffffffffffffffffffffffffffffffffff16815260200190815260200160002060005060020160005060008373ffffffffffffffffffffffffffffffffffffffff168152602001908152602001600020600050819055505b5b50565b60006107a333836107af565b90506107aa565b919050565b60006000600060005060008573ffffffffffffffffffffffffffffffffffffffff16815260200190815260200160002060005090508060010160005060008473ffffffffffffffffffffffffffffffffffffffff16815260200190815260200160002060009054906101000a900460ff161561082e576001915061087a565b60008160020160005060008573ffffffffffffffffffffffffffffffffffffffff168152602001908152602001600020600050541115610871576001915061087a565b6000915061087a565b5092915050565b600061088d3383610895565b505b92915050565b60006000600060005060008573ffffffffffffffffffffffffffffffffffffffff16815260200190815260200160002060005090508060010160005060008473ffffffffffffffffffffffffffffffffffffffff16815260200190815260200160002060009054906101000a900460ff161561091a5780600001600050549150610953565b8060020160005060008473ffffffffffffffffffffffffffffffffffffffff168152602001908152602001600020600050549150610953565b5092915050565b80600060005060003373ffffffffffffffffffffffffffffffffffffffff16815260200190815260200160002060005060020160005060008473ffffffffffffffffffffffffffffffffffffffff168152602001908152602001600020600050819055505b5050565b600260009054906101000a900473ffffffffffffffffffffffffffffffffffffffff1673ffffffffffffffffffffffffffffffffffffffff163373ffffffffffffffffffffffffffffffffffffffff16141515610a1f57610a4b565b80600260006101000a81548173ffffffffffffffffffffffffffffffffffffffff021916908302179055505b50565b600260009054906101000a900473ffffffffffffffffffffffffffffffffffffffff1673ffffffffffffffffffffffffffffffffffffffff163373ffffffffffffffffffffffffffffffffffffffff16141515610aaa57610b8d565b610ab381610c4e565b15610abd57610b8d565b81600060005060008573ffffffffffffffffffffffffffffffffffffffff168152602001908152602001600020600050600001600082828250540192505081905550826001600050600083815260200190815260200160002060006101000a81548173ffffffffffffffffffffffffffffffffffffffff021916908302179055508273ffffffffffffffffffffffffffffffffffffffff167fe1fffcc4923d04b559f4d29a8bfc6cda04eb5b0d3c460751c2402c5c5cc9109c836040518082815260200191505060405180910390a25b505050565b6000600060005060003373ffffffffffffffffffffffffffffffffffffffff16815260200190815260200160002060005090508281600001600050541080610bdb575060008311155b15610be557610c49565b8281600001600082828250540392505081905550813373ffffffffffffffffffffffffffffffffffffffff167fc3ded2be7db21b1af963f267d27750e4a15f174547d88b886b9bda43e2c6fa32856040518082815260200191505060405180910390a35b505050565b600060006001600050600084815260200190815260200160002060009054906101000a900473ffffffffffffffffffffffffffffffffffffffff1673ffffffffffffffffffffffffffffffffffffffff16141515610caf5760019050610cb8565b60009050610cb8565b919050565b600260009054906101000a900473ffffffffffffffffffffffffffffffffffffffff1673ffffffffffffffffffffffffffffffffffffffff163373ffffffffffffffffffffffffffffffffffffffff16141515610d1957610d86565b600260009054906101000a900473ffffffffffffffffffffffffffffffffffffffff1673ffffffffffffffffffffffffffffffffffffffff1660003073ffffffffffffffffffffffffffffffffffffffff1631604051809050600060405180830381858888f19350505050505b56",
      "r": "0x1c79194417cc82120f994f744101a6eb9b484772a8a6edb07cde6d7a1da7d23c",
      "s": "0x58b648b60ec85ba236f64eca915960227b564e60e9e298a0f4bc33764f08b3fe",
      "v": 28,
      "creates": "0xe727bba699fbE82A731daD9476b5234d0038cFa1",
      "raw": "0xf90e1c0186010cf6aab8d4830493e08080b90dc860606040525b33600260006101000a81548173ffffffffffffffffffffffffffffffffffffffff021916908302179055505b610d88806100406000396000f300606060405236156100e2576000357c0100000000000000000000000000000000000000000000000000000000900480631fa03a2b146100e45780632386e0dc1461011157806326b3293f146101385780634311de8f146101575780634fb2e45d146101645780635abae45014610177578063673448dd146101a457806367eae672146101cb578063930b7a23146101fe578063a8d2021a14610217578063a9eef40014610230578063b5252f9b1461025d578063bbd39ac014610270578063c86a90fe14610297578063d26c8a8a146102c4578063daea85c5146102e5576100e2565b005b6100fb6004803590602001803590602001506107af565b6040518082815260200191505060405180910390f35b610122600480359060200150610c4e565b6040518082815260200191505060405180910390f35b610155600480359060200180359060200180359060200150610a4e565b005b610162600450610cbd565b005b6101756004803590602001506109c3565b005b61018e600480359060200180359060200150610895565b6040518082815260200191505060405180910390f35b6101b5600480359060200150610797565b6040518082815260200191505060405180910390f35b6101e860048035906020018035906020018035906020015061040a565b6040518082815260200191505060405180910390f35b61021560048035906020018035906020015061095a565b005b61022e600480359060200180359060200150610b92565b005b610247600480359060200180359060200150610881565b6040518082815260200191505060405180910390f35b61026e6004803590602001506106ab565b005b6102816004803590602001506105f0565b6040518082815260200191505060405180910390f35b6102ae6004803590602001803590602001506102f8565b6040518082815260200191505060405180910390f35b6102cf6004506105db565b6040518082815260200191505060405180910390f35b6102f6600480359060200150610634565b005b600060006000600060005060003373ffffffffffffffffffffffffffffffffffffffff1681526020019081526020016000206000509150848260000160005054101561034357610402565b600060005060008573ffffffffffffffffffffffffffffffffffffffff1681526020019081526020016000206000509050848260000160008282825054039250508190555084816000016000828282505401925050819055508373ffffffffffffffffffffffffffffffffffffffff163373ffffffffffffffffffffffffffffffffffffffff167f16cdf1707799c6655baac6e210f52b94b7cec08adcaf9ede7dfe8649da926146876040518082815260200191505060405180910390a35b505092915050565b600060006000600060005060008773ffffffffffffffffffffffffffffffffffffffff16815260200190815260200160002060005091508482600001600050541015610455576105d2565b8160010160005060003373ffffffffffffffffffffffffffffffffffffffff16815260200190815260200160002060009054906101000a900460ff16151561051357848260020160005060003373ffffffffffffffffffffffffffffffffffffffff1681526020019081526020016000206000505410151561050d5760008260020160005060003373ffffffffffffffffffffffffffffffffffffffff16815260200190815260200160002060005081905550610512565b6105d2565b5b600060005060008573ffffffffffffffffffffffffffffffffffffffff1681526020019081526020016000206000509050848260000160008282825054039250508190555084816000016000828282505401925050819055508373ffffffffffffffffffffffffffffffffffffffff168673ffffffffffffffffffffffffffffffffffffffff167f16cdf1707799c6655baac6e210f52b94b7cec08adcaf9ede7dfe8649da926146876040518082815260200191505060405180910390a35b50509392505050565b60006105e6336105f0565b90506105ed565b90565b6000600060005060008373ffffffffffffffffffffffffffffffffffffffff16815260200190815260200160002060005060000160005054905061062f565b919050565b6001600060005060003373ffffffffffffffffffffffffffffffffffffffff16815260200190815260200160002060005060010160005060008373ffffffffffffffffffffffffffffffffffffffff16815260200190815260200160002060006101000a81548160ff021916908302179055505b50565b6000600060005060003373ffffffffffffffffffffffffffffffffffffffff16815260200190815260200160002060005060010160005060008373ffffffffffffffffffffffffffffffffffffffff16815260200190815260200160002060006101000a81548160ff0219169083021790555061072833826107af565b15610793576000600060005060003373ffffffffffffffffffffffffffffffffffffffff16815260200190815260200160002060005060020160005060008373ffffffffffffffffffffffffffffffffffffffff168152602001908152602001600020600050819055505b5b50565b60006107a333836107af565b90506107aa565b919050565b60006000600060005060008573ffffffffffffffffffffffffffffffffffffffff16815260200190815260200160002060005090508060010160005060008473ffffffffffffffffffffffffffffffffffffffff16815260200190815260200160002060009054906101000a900460ff161561082e576001915061087a565b60008160020160005060008573ffffffffffffffffffffffffffffffffffffffff168152602001908152602001600020600050541115610871576001915061087a565b6000915061087a565b5092915050565b600061088d3383610895565b505b92915050565b60006000600060005060008573ffffffffffffffffffffffffffffffffffffffff16815260200190815260200160002060005090508060010160005060008473ffffffffffffffffffffffffffffffffffffffff16815260200190815260200160002060009054906101000a900460ff161561091a5780600001600050549150610953565b8060020160005060008473ffffffffffffffffffffffffffffffffffffffff168152602001908152602001600020600050549150610953565b5092915050565b80600060005060003373ffffffffffffffffffffffffffffffffffffffff16815260200190815260200160002060005060020160005060008473ffffffffffffffffffffffffffffffffffffffff168152602001908152602001600020600050819055505b5050565b600260009054906101000a900473ffffffffffffffffffffffffffffffffffffffff1673ffffffffffffffffffffffffffffffffffffffff163373ffffffffffffffffffffffffffffffffffffffff16141515610a1f57610a4b565b80600260006101000a81548173ffffffffffffffffffffffffffffffffffffffff021916908302179055505b50565b600260009054906101000a900473ffffffffffffffffffffffffffffffffffffffff1673ffffffffffffffffffffffffffffffffffffffff163373ffffffffffffffffffffffffffffffffffffffff16141515610aaa57610b8d565b610ab381610c4e565b15610abd57610b8d565b81600060005060008573ffffffffffffffffffffffffffffffffffffffff168152602001908152602001600020600050600001600082828250540192505081905550826001600050600083815260200190815260200160002060006101000a81548173ffffffffffffffffffffffffffffffffffffffff021916908302179055508273ffffffffffffffffffffffffffffffffffffffff167fe1fffcc4923d04b559f4d29a8bfc6cda04eb5b0d3c460751c2402c5c5cc9109c836040518082815260200191505060405180910390a25b505050565b6000600060005060003373ffffffffffffffffffffffffffffffffffffffff16815260200190815260200160002060005090508281600001600050541080610bdb575060008311155b15610be557610c49565b8281600001600082828250540392505081905550813373ffffffffffffffffffffffffffffffffffffffff167fc3ded2be7db21b1af963f267d27750e4a15f174547d88b886b9bda43e2c6fa32856040518082815260200191505060405180910390a35b505050565b600060006001600050600084815260200190815260200160002060009054906101000a900473ffffffffffffffffffffffffffffffffffffffff1673ffffffffffffffffffffffffffffffffffffffff16141515610caf5760019050610cb8565b60009050610cb8565b919050565b600260009054906101000a900473ffffffffffffffffffffffffffffffffffffffff1673ffffffffffffffffffffffffffffffffffffffff163373ffffffffffffffffffffffffffffffffffffffff16141515610d1957610d86565b600260009054906101000a900473ffffffffffffffffffffffffffffffffffffffff1673ffffffffffffffffffffffffffffffffffffffff1660003073ffffffffffffffffffffffffffffffffffffffff1631604051809050600060405180830381858888f19350505050505b561ca01c79194417cc82120f994f744101a6eb9b484772a8a6edb07cde6d7a1da7d23ca058b648b60ec85ba236f64eca915960227b564e60e9e298a0f4bc33764f08b3fe",
      "networkId": 0,
      "chainId": 0
    },
    {
      "hash": "0x950cc25a39bdbcb14d173917b0e559924e77852322132d611ab71ec07f4eda3b",
      "blockHash": "0xea843769ebd2018e099afe0e652edc26031e6f3d41bdec3ba8ac4db8bff7d00f",
      "blockNumber": 52830,
      "transactionIndex": 1,
      "confirmations": null,
      "from": "0xc56e71225f1372c990E6829D53A1Ab76d27301cf",
      "gasPrice": {
        "_hex": "0xd9771fab7"
      },
      "gasLimit": {
        "_hex": "0x15f90"
      },
      "to": "0xA5fb3E4399E8F18643f969D0Ce65CC352fc252C6",
      "value": {
        "_hex": "0x56bc75e2d63100000"
      },
      "nonce": 3,
      "data": "0x",
      "r": "0x14f3a77d720b46ffaaa6c1072504533c963b461a5e038a76efcaaddc616387aa",
      "s": "0x471fe34bf627548cd223c4c9740540ec88fa9338335d0ca98b83047c32530ca1",
      "v": 27,
      "creates": null,
      "raw": "0xf86e03850d9771fab783015f9094a5fb3e4399e8f18643f969d0ce65cc352fc252c689056bc75e2d63100000801ba014f3a77d720b46ffaaa6c1072504533c963b461a5e038a76efcaaddc616387aaa0471fe34bf627548cd223c4c9740540ec88fa9338335d0ca98b83047c32530ca1",
      "networkId": 0,
      "chainId": 0
    }
  ]
}