{
  "hash": "0x4bcc40fc556c89d14b70660ef0e4d9ee1a82255cc8a2ad427ac49c976e14eee6",
  "parentHash": "0x832258953fa36b5d46c085e8fe3f6b8464d306945174dd1dba643fffd278dfd8",
  "number": 68391,
  "timestamp": 1439287015,
  "nonce": "0xf7602a543335979c",
  "difficulty": 2019263507120,
  "gasLimit": {
    "_hex": "0x2fefd8"
  },
  "gasUsed": {
    "_hex": "0x5208"
  },
  "miner": "0x9D49F602b0fdb924Bd63DDE2Bd0907E4A07c63a7",
  "extraData": "0x476574682f76312e302e312f6c696e75782f676f312e342e32",
  "transactions": [
    {
      "hash": "0x5a88b99baebac89c207f2fc3aa5e933df7cb4ac1486b72f9e7803ae0313e897d",
      "blockHash": "0x4bcc40fc556c89d14b70660ef0e4d9ee1a82255cc8a2ad427ac49c976e14eee6",
      "blockNumber": 68391,
      "transactionIndex": 0,
      "confirmations": null,
      "from": "0x6747f922385c9a6F9cfDf095F34345257DD597bE",
      "gasPrice": {
        "_hex": "0xba43b7400"
      },
      "gasLimit": {
        "_hex": "0x5208"
      },
      "to": "0xd3703205CC732CAbF6c2b15bfF07fc5e164ea41E",
      "value": {
        "_hex": "0x1fcbfa42bd6000"
      },
      "nonce": 75,
      "data": "0x",
      "r": "0x0c1a3dcd18839383f406f2d8b8a426d311c381f4c8584081f03bb019849aecaa",
      "s": "0x0baf8ad71677a15db60a54ef01431b1fd490a26cae5b1b708cd4094b1ea5761a",
      "v": 28,
      "creates": null,
      "raw": "0xf86b4b850ba43b740082520894d3703205cc732cabf6c2b15bff07fc5e164ea41e871fcbfa42bd6000801ca00c1a3dcd18839383f406f2d8b8a426d311c381f4c8584081f03bb019849aecaaa00baf8ad71677a15db60a54ef01431b1fd490a26cae5b1b708cd4094b1ea5761a",
      "networkId": 0,
      "chainId": 0
    }
  ]
}