{
  "hash": "0xaa55ea1e914be7f5ce4a0744e316488faeba1d127e371076efd746767ad9e07c",
  "parentHash": "0x03742b1392d1708de77ce294aeacda54da960f8c41dedb55502968bc70f0f5f2",
  "number": 83596,
  "timestamp": 1439537813,
  "nonce": "0xe40751086cabb01a",
  "difficulty": 2439610147304,
  "gasLimit": {
    "_hex": "0x2fefd8"
  },
  "gasUsed": {
    "_hex": "0x546c"
  },
  "miner": "0xe6A7a1d47ff21B6321162AEA7C6CB457D5476Bca",
  "extraData": "0x476574682f76312e302e312d38326566323666362f6c696e75782f676f312e34",
  "transactions": [
    {
      "hash": "0xcd357da9534307cf2c4813ee95104a0feb4f4c2017acafbb4649b4c13a1866b2",
      "blockHash": "0xaa55ea1e914be7f5ce4a0744e316488faeba1d127e371076efd746767ad9e07c",
      "blockNumber": 83596,
      "transactionIndex": 0,
      "confirmations": null,
      "from": "0x68Fe1357218D095849CD579842c4aA02ff888D93",
      "gasPrice": {
        "_hex": "0x110c8f7d8de"
      },
      "gasLimit": {
        "_hex": "0xc350"
      },
      "to": "0x2910543Af39abA0Cd09dBb2D50200b3E800A63D2",
      "value": {
        "_hex": "0x6c68ccd09b022c0000"
      },
      "nonce": 0,
      "data": "0x454e35434a34355747",
      "r": "0x6ebe2ebde885678227deca2680af15d9c207d5f079f678b47c8dd46e2bad2287",
      "s": "0xcd2bd1bcd36e678d4bd067485a38aa5f513a11e6b3c4cc76fac764e89ac76c0f",
      "v": 28,
      "creates": null,
      "raw": "0xf87780860110c8f7d8de82c350942910543af39aba0cd09dbb2d50200b3e800a63d2896c68ccd09b022c000089454e35434a343557471ca06ebe2ebde885678227deca2680af15d9c207d5f079f678b47c8dd46e2bad2287a0cd2bd1bcd36e678d4bd067485a38aa5f513a11e6b3c4cc76fac764e89ac76c0f",
      "networkId": 0,
      "chainId": 0
    }
  ]
}