{
  "hash": "0xcc64eede086d1937b847e08d9ec4cfbbff5c70ce470d73f7c3122a11a5e4a02d",
  "parentHash": "0x825bc70f67b4024b8ed35df5ff7e47b9fcdd8fd9e9054019737bd798dcb56c83",
  "number": 99953,
  "timestamp": 1439798282,
  "nonce": "0x6cdfbababf700428",
  "difficulty": 3854961565317,
  "gasLimit": {
    "_hex": "0x2fefd8"
  },
  "gasUsed": {
    "_hex": "0xf618"
  },
  "miner": "0xf927a40C8B7F6E07c5af7FA2155B4864a4112B13",
  "extraData": "0x",
  "transactions": [
    {
      "hash": "0x732bfdaca3dbf06385e9992f81c3bc6eb482795b601cd33dc4c76b42f9e353d9",
      "blockHash": "0xcc64eede086d1937b847e08d9ec4cfbbff5c70ce470d73f7c3122a11a5e4a02d",
      "blockNumber": 99953,
      "transactionIndex": 0,
      "confirmations": null,
      "from": "0xe6A7a1d47ff21B6321162AEA7C6CB457D5476Bca",
      "gasPrice": {
        "_hex": "0xd1da05410"
      },
      "gasLimit": {
        "_hex": "0x55f0"
      },
      "to": "0xb71F25995CC5De7A465fB37688126E07654Fa662",
      "value": {
        "_hex": "0x24111a87f58d03fc"
      },
      "nonce": 3152,
      "data": "0x",
      "r": "0x04f2bee7faaa0492e66831f457a5f954273f0a83e0c4e802f0f343450bf688d8",
      "s": "0x70dd6219f7b7e6205b0b39aaf1f41da40a4f2d4eb0c6cb382fc36ba319628272",
      "v": 27,
      "creates": null,
      "raw": "0xf86e820c50850d1da054108255f094b71f25995cc5de7a465fb37688126e07654fa6628824111a87f58d03fc801ba004f2bee7faaa0492e66831f457a5f954273f0a83e0c4e802f0f343450bf688d8a070dd6219f7b7e6205b0b39aaf1f41da40a4f2d4eb0c6cb382fc36ba319628272",
      "networkId": 0,
      "chainId": 0
    },
    {
      "hash": "0x0c67e06536efee9612177e733350fa3acaa0c1f7b137964b2d8d448653f9c0c0",
      "blockHash": "0xcc64eede086d1937b847e08d9ec4cfbbff5c70ce470d73f7c3122a11a5e4a02d",
      "blockNumber": 99953,
      "transactionIndex": 1,
      "confirmations": null,
      "from": "0xe6A7a1d47ff21B6321162AEA7C6CB457D5476Bca",
      "gasPrice": {
        "_hex": "0xd1da05410"
      },
      "gasLimit": {
        "_hex": "0x55f0"
      },
      "to": "0xd141b7CB21652cCdEF036cbe70dE021F31a530Ad",
      "value": {
        "_hex": "0x2458cec7a13837f4"
      },
      "nonce": 3153,
      "data": "0x",
      "r": "0xfbe53a19391fdfba6e954561ed618d5108f8d32d30f0b05410e683601b9d2659",
      "s": "0x4a9a68cd1436c4f56d7c76f176065a8d676abef0571753fc650cc935bde7d643",
      "v": 27,
      "creates": null,
      "raw": "0xf86e820c51850d1da054108255f094d141b7cb21652ccdef036cbe70de021f31a530ad882458cec7a13837f4801ba0fbe53a19391fdfba6e954561ed618d5108f8d32d30f0b05410e683601b9d2659a04a9a68cd1436c4f56d7c76f176065a8d676abef0571753fc650cc935bde7d643",
      "networkId": 0,
      "chainId": 0
    },
    {
      "hash": "0x904931f1b6d92b7baae52450a6ade7717c97aa3500dc572ce6bc4a51ac99d5f4",
      "blockHash": "0xcc64eede086d1937b847e08d9ec4cfbbff5c70ce470d73f7c3122a11a5e4a02d",
      "blockNumber": 99953,
      "transactionIndex": 2,
      "confirmations": null,
      "from": "0xe6A7a1d47ff21B6321162AEA7C6CB457D5476Bca",
      "gasPrice": {
        "_hex": "0xd1da05410"
      },
      "gasLimit": {
        "_hex": "0x55f0"
      },
      "to": "0x64bE1C1A0198370F53B2081e15478BE3135D6beF",
      "value": {
        "_hex": "0x24d8bc71940549ec"
      },
      "nonce": 3154,
      "data": "0x",
      "r": "0x1fbe1f7554a9d42b08a7e035904ba2d27306f505ca84b83017a3fc6e82facec7",
      "s": "0x429c14ba3037ffbdcc77e7d53f5893fda2522fbbfe79e4876a28b790e591c564",
      "v": 27,
      "creates": null,
      "raw": "0xf86e820c52850d1da054108255f09464be1c1a0198370f53b2081e15478be3135d6bef8824d8bc71940549ec801ba01fbe1f7554a9d42b08a7e035904ba2d27306f505ca84b83017a3fc6e82facec7a0429c14ba3037ffbdcc77e7d53f5893fda2522fbbfe79e4876a28b790e591c564",
      "networkId": 0,
      "chainId": 0
    }
  ]
}