{
  "hash": "0xfa2de9f07f54ef382b77582719d0550954d44cd7b5b3b3fc0a74aaf6ca58754d",
  "parentHash": "0x542ecb67b9a963416d1169377df0fde832dfb434b8b7653f13303a2fdd012d9b",
  "number": 72220,
  "timestamp": 1439349289,
  "nonce": "0x8dd8f89cf4edeebb",
  "difficulty": 2174901615413,
  "gasLimit": {
    "_hex": "0x2fefd8"
  },
  "gasUsed": {
    "_hex": "0x14273"
  },
  "miner": "0x39A1BB80a741bF5EC39FB9BE59408Fa0F418fFBf",
  "extraData": "0x476574682f76312e302e312f77696e646f77732f676f312e342e32",
  "transactions": [
    {
      "hash": "0x5d3a09a2137e5b273eb645213a32574d642f51d855a868268e7bf0b5906517ba",
      "blockHash": "0xfa2de9f07f54ef382b77582719d0550954d44cd7b5b3b3fc0a74aaf6ca58754d",
      "blockNumber": 72220,
      "transactionIndex": 0,
      "confirmations": null,
      "from": "0x17580B766f7453525ca4C6A88b01b50570EA088C",
      "gasPrice": {
        "_hex": "0xde5ce748f"
      },
      "gasLimit": {
        "_hex": "0x61a80"
      },
      "to": "0x5Fe5B7546D1628f7348B023A0393de1FC825A4fD",
      "value": {
        "_hex": "0x8ac7230489e80000"
      },
      "nonce": 391,
      "data": "0xb595b8b50000000000000000000000000000000000000000000000000000000000000000",
      "r": "0x325bf8801d365626954080afa3dd176c5787cb6870973a7acc7cbd438ac64dea",
      "s": "0x2b9e8159d0dc1875883f67ba1467cda7cff7844706134bb1f5cd5cf829a5801e",
      "v": 28,
      "creates": null,
      "raw": "0xf893820187850de5ce748f83061a80945fe5b7546d1628f7348b023a0393de1fc825a4fd888ac7230489e80000a4b595b8b500000000000000000000000000000000000000000000000000000000000000001ca0325bf8801d365626954080afa3dd176c5787cb6870973a7acc7cbd438ac64deaa02b9e8159d0dc1875883f67ba1467cda7cff7844706134bb1f5cd5cf829a5801e",
      "networkId": 0,
      "chainId": 0
    },
    {
      "hash": "0xa60600cecaa055e85bfc326aaf9e96fc8055c16372425fecf4350bc1276db84b",
      "blockHash": "0xfa2de9f07f54ef382b77582719d0550954d44cd7b5b3b3fc0a74aaf6ca58754d",
      "blockNumber": 72220,
      "transactionIndex": 1,
      "confirmations": null,
      "from": "0x17580B766f7453525ca4C6A88b01b50570EA088C",
      "gasPrice": {
        "_hex": "0xde5ce748f"
      },
      "gasLimit": {
        "_hex": "0x61a80"
      },
      "to": "0x5Fe5B7546D1628f7348B023A0393de1FC825A4fD",
      "value": {
        "_hex": "0x8ac7230489e80000"
      },
      "nonce": 392,
      "data": "0xb595b8b50000000000000000000000000000000000000000000000000000000000000001",
      "r": "0x7549f2c38123aebb598d8d4d9b6da49cfb88e7b646dc02c4ad69165ed70ba361",
      "s": "0x28440b1523305da7b9c3b8766dc1944d4528b2d443bec77dd2bd1f65a5c6e22b",
      "v": 28,
      "creates": null,
      "raw": "0xf893820188850de5ce748f83061a80945fe5b7546d1628f7348b023a0393de1fc825a4fd888ac7230489e80000a4b595b8b500000000000000000000000000000000000000000000000000000000000000011ca07549f2c38123aebb598d8d4d9b6da49cfb88e7b646dc02c4ad69165ed70ba361a028440b1523305da7b9c3b8766dc1944d4528b2d443bec77dd2bd1f65a5c6e22b",
      "networkId": 0,
      "chainId": 0
    }
  ]
}