{
  "hash": "0xf0d7e3b9a71a9305f6fe266522ba756c9ca9f4af8f4d29243fb2531f55fcd380",
  "parentHash": "0xabd43421b2be666639e56b7985c3ee6b3674cbed0d61e9e7273366dcf3b261be",
  "number": 90939,
  "timestamp": 1439647744,
  "nonce": "0x32f8e8a5d1859730",
  "difficulty": 3415641309624,
  "gasLimit": {
    "_hex": "0x2fefd8"
  },
  "gasUsed": {
    "_hex": "0x5208"
  },
  "miner": "0xA21Ba94e45f0E168dA824fC67aC9cb5Cb577a8aF",
  "extraData": "0x",
  "transactions": [
    {
      "hash": "0x1e509584c5faa9a51b7a5ed19f79c6eb7c78b889090de9d3e30aaa407db9448f",
      "blockHash": "0xf0d7e3b9a71a9305f6fe266522ba756c9ca9f4af8f4d29243fb2531f55fcd380",
      "blockNumber": 90939,
      "transactionIndex": 0,
      "confirmations": null,
      "from": "0x52C222E2d709B9Bc81d0C047dd4Bc8D675EffD7f",
      "gasPrice": {
        "_hex": "0xdad22ea94"
      },
      "gasLimit": {
        "_hex": "0x5208"
      },
      "to": "0x32Be343B94f860124dC4fEe278FDCBD38C102D88",
      "value": {
        "_hex": "0x681514252e167c000"
      },
      "nonce": 1,
      "data": "0x",
      "r": "0x2c878f984ffe6fe9edcd3df2612fb4ae57ce5ecb8bd3b585666d87ec67018cfd",
      "s": "0x5ea7d4fb008f5aedb158e816215aed26e160939c4c441640df52f7404057ccb3",
      "v": 28,
      "creates": null,
      "raw": "0xf86d01850dad22ea948252089432be343b94f860124dc4fee278fdcbd38c102d88890681514252e167c000801ca02c878f984ffe6fe9edcd3df2612fb4ae57ce5ecb8bd3b585666d87ec67018cfda05ea7d4fb008f5aedb158e816215aed26e160939c4c441640df52f7404057ccb3",
      "networkId": 0,
      "chainId": 0
    }
  ]
}