{
  "hash": "0x257a99360295007998389d8918b9757f700555de95e8cad0a81bd9050ae576b0",
  "parentHash": "0x4cd30eb81b917c31fe50cad7d85fa79a3cf5518a6015fe5850b4dde975047645",
  "number": 86655,
  "timestamp": 1439580985,
  "nonce": "0xaf7110467567da57",
  "difficulty": 2940222689267,
  "gasLimit": {
    "_hex": "0x2fefd8"
  },
  "gasUsed": {
    "_hex": "0x5208"
  },
  "miner": "0xf8E0CA3Ed80bd541b94BEdCf259e8CF2141A9523",
  "extraData": "0x476574682f76312e302e312f77696e646f77732f676f312e342e32",
  "transactions": [
    {
      "hash": "0x10113ba177dc302e0cd9a5a1435f92e85d85cec21b5ad05592dec776c785a352",
      "blockHash": "0x257a99360295007998389d8918b9757f700555de95e8cad0a81bd9050ae576b0",
      "blockNumber": 86655,
      "transactionIndex": 0,
      "confirmations": null,
      "from": "0xE30212B2011Bb56bdBf1BC35690F3a4E0Fd905EA",
      "gasPrice": {
        "_hex": "0xcf80fe4ff"
      },
      "gasLimit": {
        "_hex": "0x15f90"
      },
      "to": "0xa9E3dE793dD570894Aadb48ce8990062Fd4bb5Bb",
      "value": {
        "_hex": "0x98a7d9b8314c0000"
      },
      "nonce": 1,
      "data": "0x",
      "r": "0xcc96ed61e01952680bf562981e1cf62884d157c0d7abb8dc78821d90a496acbf",
      "s": "0x4d5d40a12ded474d2bd1dc4a2da02c7785cbf99e0ac4bfca238d83cafce86558",
      "v": 28,
      "creates": null,
      "raw": "0xf86d01850cf80fe4ff83015f9094a9e3de793dd570894aadb48ce8990062fd4bb5bb8898a7d9b8314c0000801ca0cc96ed61e01952680bf562981e1cf62884d157c0d7abb8dc78821d90a496acbfa04d5d40a12ded474d2bd1dc4a2da02c7785cbf99e0ac4bfca238d83cafce86558",
      "networkId": 0,
      "chainId": 0
    }
  ]
}