{
  "hash": "0x551eaca5ec351cca1422b9fc4672b2743006dd4f275f559ed53c492493cf040d",
  "parentHash": "0x9345051b4a4cda60e6d76755e9fd8010c16567c71ce6cb9e4eae740f55e8ed0c",
  "number": 84753,
  "timestamp": 1439554126,
  "nonce": "0xf62afcd68402b18d",
  "difficulty": 2623355537111,
  "gasLimit": {
    "_hex": "0x2fefd8"
  },
  "gasUsed": {
    "_hex": "0x5208"
  },
  "miner": "0xBD744E3F13D79B33F6c8E1d5E32F8E9BA2866c46",
  "extraData": "0x476574682f76312e302e312d39613032663533372f6c696e75782f676f312e34",
  "transactions": [
    {
      "hash": "0xf318d97d6a2fbf9415c39a7e7a8d34ba5726faaf7002213771a35641c4e93c33",
      "blockHash": "0x551eaca5ec351cca1422b9fc4672b2743006dd4f275f559ed53c492493cf040d",
      "blockNumber": 84753,
      "transactionIndex": 0,
      "confirmations": null,
      "from": "0xBE07744f624130f75511A91a43495e5C11114950",
      "gasPrice": {
        "_hex": "0xddc178ec9"
      },
      "gasLimit": {
        "_hex": "0x15f90"
      },
      "to": "0x23f2D0fd3B4C98Fb1698564deB4898275E2e831f",
      "value": {
        "_hex": "0x1bc16d674ec80000"
      },
      "nonce": 2,
      "data": "0x",
      "r": "0x0d44c399897cb220c4afaba1c62ad9ad0c6092aecedff53f3910a7e79d6cfc10",
      "s": "0x2cc776f1d0411f91a380626e3ce4c1f86cb2139c992134c8c326b9cfd17d11fe",
      "v": 28,
      "creates": null,
      "raw": "0xf86d02850ddc178ec983015f909423f2d0fd3b4c98fb1698564deb4898275e2e831f881bc16d674ec80000801ca00d44c399897cb220c4afaba1c62ad9ad0c6092aecedff53f3910a7e79d6cfc10a02cc776f1d0411f91a380626e3ce4c1f86cb2139c992134c8c326b9cfd17d11fe",
      "networkId": 0,
      "chainId": 0
    }
  ]
}