{
  "hash": "0xda63ef97d8f98a1e86043ddf0d1b91f877b3af6307053903e52ca798658d550d",
  "parentHash": "0x5a51fbbb111a0cf935db5240e9ddf48b96bab7187be7201b92f646b845077480",
  "number": 60818,
  "timestamp": 1439162050,
  "nonce": "0xa094d01fefc8c97e",
  "difficulty": 1734646373353,
  "gasLimit": {
    "_hex": "0x2fefd8"
  },
  "gasUsed": {
    "_hex": "0x5208"
  },
  "miner": "0x9746c7e1ef2bd21FF3997fa467593a89cb852BD0",
  "extraData": "0x476574682f76312e302e312f77696e646f77732f676f312e342e32",
  "transactions": [
    {
      "hash": "0x225994656c7078d74b260f7b689665ac5e43224c29b2da00db7d23b4ba254e2d",
      "blockHash": "0xda63ef97d8f98a1e86043ddf0d1b91f877b3af6307053903e52ca798658d550d",
      "blockNumber": 60818,
      "transactionIndex": 0,
      "confirmations": null,
      "from": "0x2910543Af39abA0Cd09dBb2D50200b3E800A63D2",
      "gasPrice": {
        "_hex": "0xcbdf84031"
      },
      "gasLimit": {
        "_hex": "0x5208"
      },
      "to": "0x5584a5A361e70D0757D8Ca2B151f041136C9C28a",
      "value": {
        "_hex": "0x1002c31ad752ff18000"
      },
      "nonce": 92,
      "data": "0x",
      "r": "0xd66cf58e00fca3f586325dc5f845784b026252d1991e0932cbc5b1dccc17bab0",
      "s": "0x0224a585da6315dd47d2873a8809598e5ee47ac641b67f3d38654a027760e6a6",
      "v": 27,
      "creates": null,
      "raw": "0xf86e5c850cbdf84031825208945584a5a361e70d0757d8ca2b151f041136c9c28a8a01002c31ad752ff18000801ba0d66cf58e00fca3f586325dc5f845784b026252d1991e0932cbc5b1dccc17bab0a00224a585da6315dd47d2873a8809598e5ee47ac641b67f3d38654a027760e6a6",
      "networkId": 0,
      "chainId": 0
    }
  ]
}