{
  "hash": "0x831c3178211649b9e125c735d0cfb0286a9cbd83a0d84fb436b9722b3473095d",
  "parentHash": "0xc371da5ca7b4d7238e47e08079552ec10a4c7f676f0623bcc4f92c28d77af589",
  "number": 76190,
  "timestamp": 1439416248,
  "nonce": "0x5a22fb3dd1162d2a",
  "difficulty": 2238502343478,
  "gasLimit": {
    "_hex": "0x2fefd8"
  },
  "gasUsed": {
    "_hex": "0x546c"
  },
  "miner": "0x785ffdDd5cE55c6DF963f345e68d3F2024E5Acb1",
  "extraData": "0x",
  "transactions": [
    {
      "hash": "0xb9931c5050ed96bfd1d94f0a179d93f6b85186546f0a7c3829ccde22fd9e9497",
      "blockHash": "0x831c3178211649b9e125c735d0cfb0286a9cbd83a0d84fb436b9722b3473095d",
      "blockNumber": 76190,
      "transactionIndex": 0,
      "confirmations": null,
      "from": "0xCF157612764E0FD696C8cb5FbA85Df4C0DDC3cb0",
      "gasPrice": {
        "_hex": "0xd21fcf240"
      },
      "gasLimit": {
        "_hex": "0x55f0"
      },
      "to": "0x2910543Af39abA0Cd09dBb2D50200b3E800A63D2",
      "value": {
        "_hex": "0xde0b6b3a7640000"
      },
      "nonce": 0,
      "data": "0x454e433242555a3730",
      "r": "0xa665232b2dc89a5250416dd3159e9e6ec75bc2aae1f5e5529781ffef95c72b55",
      "s": "0x1662a905d8e7a397b3dad7db3ebd222150a61ddcf14f0b5e34baecdf8976d377",
      "v": 27,
      "creates": null,
      "raw": "0xf87580850d21fcf2408255f0942910543af39aba0cd09dbb2d50200b3e800a63d2880de0b6b3a764000089454e433242555a37301ba0a665232b2dc89a5250416dd3159e9e6ec75bc2aae1f5e5529781ffef95c72b55a01662a905d8e7a397b3dad7db3ebd222150a61ddcf14f0b5e34baecdf8976d377",
      "networkId": 0,
      "chainId": 0
    }
  ]
}