{
  "hash": "0x37d09397c50a5af7df21c3a5c5e957b7a55941232e4236f444c8ae967cc9b270",
  "parentHash": "0x7b0c229ed369a6f33c2a80bd4a9314b7a7401b04542d73a66e1e45e7f0c7712e",
  "number": 83737,
  "timestamp": 1439540083,
  "nonce": "0x6ae4cce8a5daca7f",
  "difficulty": 2435998169640,
  "gasLimit": {
    "_hex": "0x2fefd8"
  },
  "gasUsed": {
    "_hex": "0x5208"
  },
  "miner": "0x47ff6576639c2e94762eA5443978D7681C0E78DC",
  "extraData": "0x476574682f76312e302e312f6c696e75782f676f312e342e32",
  "transactions": [
    {
      "hash": "0xb7cfe8810a43fb68501e7a0ec468b6328a973ccf8dec20046a11b960e5d6e4e4",
      "blockHash": "0x37d09397c50a5af7df21c3a5c5e957b7a55941232e4236f444c8ae967cc9b270",
      "blockNumber": 83737,
      "transactionIndex": 0,
      "confirmations": null,
      "from": "0xc15fa6D616245a5c7B7D75A6dFDcA10C0250BD2B",
      "gasPrice": {
        "_hex": "0xd45d13986"
      },
      "gasLimit": {
        "_hex": "0x15f90"
      },
      "to": "0xdeE4977F74E6Aef6D627191c9A45D2627e331150",
      "value": {
        "_hex": "0x6f05b59d3b200000"
      },
      "nonce": 0,
      "data": "0x",
      "r": "0x2ee7092f0685314936bf8e85a43c3d3d53cd24a3b95685450f89a63a3004328a",
      "s": "0x27b450c48be5387acc5f1f1f97abdec93b4946a3749835ede3bd426afe44e60b",
      "v": 28,
      "creates": null,
      "raw": "0xf86d80850d45d1398683015f9094dee4977f74e6aef6d627191c9a45d2627e331150886f05b59d3b200000801ca02ee7092f0685314936bf8e85a43c3d3d53cd24a3b95685450f89a63a3004328aa027b450c48be5387acc5f1f1f97abdec93b4946a3749835ede3bd426afe44e60b",
      "networkId": 0,
      "chainId": 0
    }
  ]
}