{
  "hash": "0xa1c614f540dad70bdb6aade0f0629813c247870fd0dd42ee3f67ab4c33b9caf4",
  "parentHash": "0xf5895073c23fb6409b55f1d607896740d094e30cedac3ecbc3afc1fe11f69f8e",
  "number": 55936,
  "timestamp": 1439079413,
  "nonce": "0xfb35fd451fd63d17",
  "difficulty": 1616230336525,
  "gasLimit": {
    "_hex": "0x2fefd8"
  },
  "gasUsed": {
    "_hex": "0xa410"
  },
  "miner": "0xf8E0CA3Ed80bd541b94BEdCf259e8CF2141A9523",
  "extraData": "0x476574682f76312e302e312f77696e646f77732f676f312e342e32",
  "transactions": [
    {
      "hash": "0x86dce41a5db5dea6ed2a2546fb39a12689951ca6824674274d87ae26cff80c78",
      "blockHash": "0xa1c614f540dad70bdb6aade0f0629813c247870fd0dd42ee3f67ab4c33b9caf4",
      "blockNumber": 55936,
      "transactionIndex": 0,
      "confirmations": null,
      "from": "0x3175a28CF6105466923f11bFFabD279F162aa2f8",
      "gasPrice": {
        "_hex": "0xcf1547c25"
      },
      "gasLimit": {
        "_hex": "0x5208"
      },
      "to": "0x32Be343B94f860124dC4fEe278FDCBD38C102D88",
      "value": {
        "_hex": "0xc230f6226f7e5000"
      },
      "nonce": 2,
      "data": "0x",
      "r": "0x74b238c09950bcc24fa2ace13672c0ab626c503571e248ed7ba253836a6db8f4",
      "s": "0x474b7a126dfcddbbcc091ff95b6fceb7cc80dcc439206b0b12b74e0211f8c125",
      "v": 27,
      "creates": null,
      "raw": "0xf86c02850cf1547c258252089432be343b94f860124dc4fee278fdcbd38c102d8888c230f6226f7e5000801ba074b238c09950bcc24fa2ace13672c0ab626c503571e248ed7ba253836a6db8f4a0474b7a126dfcddbbcc091ff95b6fceb7cc80dcc439206b0b12b74e0211f8c125",
      "networkId": 0,
      "chainId": 0
    },
    {
      "hash": "0xa646ff73d4b253ca09ceca6f15278f76b270c24cd6dea3359e2f4e8af36e40d3",
      "blockHash": "0xa1c614f540dad70bdb6aade0f0629813c247870fd0dd42ee3f67ab4c33b9caf4",
      "blockNumber": 55936,
      "transactionIndex": 1,
      "confirmations": null,
      "from": "0xCd12F20c28FF2fFc4B0a00a4a1DA71749DDEa9fC",
      "gasPrice": {
        "_hex": "0xccf0100eb"
      },
      "gasLimit": {
        "_hex": "0x5208"
      },
      "to": "0x32Be343B94f860124dC4fEe278FDCBD38C102D88",
      "value": {
        "_hex": "0x15775842940cb0000"
      },
      "nonce": 1,
      "data": "0x",
      "r": "0x866836031de063b558595b0f33fbf8174f1110ff69c06adf43d4480af8a8eb27",
      "s": "0x73c0e2e84c598105c792af819488c7ceacea8b048b1e4ca30984931361566d87",
      "v": 27,
      "creates": null,
      "raw": "0xf86d01850ccf0100eb8252089432be343b94f860124dc4fee278fdcbd38c102d8889015775842940cb0000801ba0866836031de063b558595b0f33fbf8174f1110ff69c06adf43d4480af8a8eb27a073c0e2e84c598105c792af819488c7ceacea8b048b1e4ca30984931361566d87",
      "networkId": 0,
      "chainId": 0
    }
  ]
}