{
  "hash": "0xc4e2f97690c8cbebbea34ed21cc3117d20edee800f3495916cb3bfb0f6c1af5b",
  "parentHash": "0x8c2737fa2e2313e3d644496be2b6adc6d7589b9c641712fec652d6aaa5b74dcd",
  "number": 47170,
  "timestamp": 1438935528,
  "nonce": "0x6330a1c1f25d30cb",
  "difficulty": 1457393079808,
  "gasLimit": {
    "_hex": "0x9ef3"
  },
  "gasUsed": {
    "_hex": "0x5208"
  },
  "miner": "0xf8E0CA3Ed80bd541b94BEdCf259e8CF2141A9523",
  "extraData": "0x476574682f76312e302e312f77696e646f77732f676f312e342e32",
  "transactions": [
    {
      "hash": "0x6647979e64f050fb2528169e682583dcd63ce177c0578eea5216036e5baa7126",
      "blockHash": "0xc4e2f97690c8cbebbea34ed21cc3117d20edee800f3495916cb3bfb0f6c1af5b",
      "blockNumber": 47170,
      "transactionIndex": 0,
      "confirmations": null,
      "from": "0xe6A7a1d47ff21B6321162AEA7C6CB457D5476Bca",
      "gasPrice": {
        "_hex": "0xd0c4dad1b"
      },
      "gasLimit": {
        "_hex": "0x5208"
      },
      "to": "0xBF1190404Ad7D103833bAD0Cd850a385b9A2D838",
      "value": {
        "_hex": "0x497a620f5c6a4c08"
      },
      "nonce": 62,
      "data": "0x",
      "r": "0x94bdfff0a8fdac6c7e1bfe12354995c26c5c455ed8587daa59ca666e7fe83842",
      "s": "0x011825f9d1eeb075c3f10c4f61dd8d1ff42d77c4d19b8ee1d6cc614c66595d5c",
      "v": 28,
      "creates": null,
      "raw": "0xf86c3e850d0c4dad1b82520894bf1190404ad7d103833bad0cd850a385b9a2d83888497a620f5c6a4c08801ca094bdfff0a8fdac6c7e1bfe12354995c26c5c455ed8587daa59ca666e7fe83842a0011825f9d1eeb075c3f10c4f61dd8d1ff42d77c4d19b8ee1d6cc614c66595d5c",
      "networkId": 0,
      "chainId": 0
    }
  ]
}