{
  "hash": "0x3ecc8787c77e9fa999bfbe45f16b07f786ff564ce4335ae4f1a6aa4a24c42c92",
  "parentHash": "0xf5ab88a4d12ac28d0e891be91c1a69c5ffd20734093f76865da2d82710869275",
  "number": 117540,
  "timestamp": 1440111238,
  "nonce": "0x860145ac4148006c",
  "difficulty": 4310414379012,
  "gasLimit": {
    "_hex": "0x2fefd8"
  },
  "gasUsed": {
    "_hex": "0x5208"
  },
  "miner": "0x580992B51e3925e23280EfB93d3047C82f17E038",
  "extraData": "0x",
  "transactions": [
    {
      "hash": "0x81e23cdd3b3acb5064703f55e6b7720b0b2b65c58358032be92011bc5ecdc2ca",
      "blockHash": "0x3ecc8787c77e9fa999bfbe45f16b07f786ff564ce4335ae4f1a6aa4a24c42c92",
      "blockNumber": 117540,
      "transactionIndex": 0,
      "confirmations": null,
      "from": "0x007f7f58D3eb5b7510A301eCC749FC1fCDDBE14D",
      "gasPrice": {
        "_hex": "0xba43b7400"
      },
      "gasLimit": {
        "_hex": "0x15f90"
      },
      "to": "0xb1abce2918E21ddb93AA452731a12672A3d9F75a",
      "value": {
        "_hex": "0x4563918244f40000"
      },
      "nonce": 325,
      "data": "0x",
      "r": "0xdf1d82e2f958df59069492191ea106076458f2e322dd24c628e2b25ee63bbbd4",
      "s": "0x3d768dbdcd817a4f72d614ccdd95a5933839ba6c6c88fe3298103ae7aa32a5c3",
      "v": 28,
      "creates": null,
      "raw": "0xf86f820145850ba43b740083015f9094b1abce2918e21ddb93aa452731a12672a3d9f75a884563918244f40000801ca0df1d82e2f958df59069492191ea106076458f2e322dd24c628e2b25ee63bbbd4a03d768dbdcd817a4f72d614ccdd95a5933839ba6c6c88fe3298103ae7aa32a5c3",
      "networkId": 0,
      "chainId": 0
    }
  ]
}