{
  "hash": "0x6cd3e9d93daa2a888cc0749c9126f6537dff168468fcc7105f459ed4c0da2ed4",
  "parentHash": "0xff3178600e4c82a15ce29275b353cac4075285bf8f99875d6477715ce84d2a63",
  "number": 111716,
  "timestamp": 1439994772,
  "nonce": "0xf4b9643c916c383e",
  "difficulty": 4454678459644,
  "gasLimit": {
    "_hex": "0x2fefd8"
  },
  "gasUsed": {
    "_hex": "0x5208"
  },
  "miner": "0x5F8F73E26CdF436f19Cb24C82F90A15AFe55b592",
  "extraData": "0x476574682f76312e302e312f77696e646f77732f676f312e342e32",
  "transactions": [
    {
      "hash": "0xc57867f3b775109205e1a0bef8abf6c5d98ff2ae82db6500f394d263fa97f47d",
      "blockHash": "0x6cd3e9d93daa2a888cc0749c9126f6537dff168468fcc7105f459ed4c0da2ed4",
      "blockNumber": 111716,
      "transactionIndex": 0,
      "confirmations": null,
      "from": "0x32Be343B94f860124dC4fEe278FDCBD38C102D88",
      "gasPrice": {
        "_hex": "0xd4adcd09f"
      },
      "gasLimit": {
        "_hex": "0x5208"
      },
      "to": "0xA2E85113F9D7f452d7C638475bDf82c58306c26f",
      "value": {
        "_hex": "0xdbd2fc137a30000"
      },
      "nonce": 1314,
      "data": "0x",
      "r": "0xf981d81ec73e4cc50ac8ca607e89a9e9ecbeabaa4058b72fe6cb12e4e6e50f6c",
      "s": "0x7a9aea30d84a50aab77ddd09b0ee5d04f66bc4a4b2581fa06c0abc0e7db7269c",
      "v": 28,
      "creates": null,
      "raw": "0xf86e820522850d4adcd09f82520894a2e85113f9d7f452d7c638475bdf82c58306c26f880dbd2fc137a30000801ca0f981d81ec73e4cc50ac8ca607e89a9e9ecbeabaa4058b72fe6cb12e4e6e50f6ca07a9aea30d84a50aab77ddd09b0ee5d04f66bc4a4b2581fa06c0abc0e7db7269c",
      "networkId": 0,
      "chainId": 0
    }
  ]
}