{
  "hash": "0xfccf4375ef0101fe7ad4661700e75cbce180fecfc7e0a5bdb7b59526fe00b36b",
  "parentHash": "0x19ba05d4ecf978ee05735272d88a045eb2a6ff04a7619393e051ab7a8d1a9ae1",
  "number": 80166,
  "timestamp": 1439481195,
  "nonce": "0x993ed607232a81db",
  "difficulty": 2365518262200,
  "gasLimit": {
    "_hex": "0x2fe3de"
  },
  "gasUsed": {
    "_hex": "0xaa37"
  },
  "miner": "0x3A652ae439FFB94328afa58E11F544aFB5B85f7A",
  "extraData": "0x476574682f76312e302e302f77696e646f77732f676f312e342e32",
  "transactions": [
    {
      "hash": "0xc4813407149c6470ee3c1c78c014786e4c3a92ae2ca1890bcd12655752fe9973",
      "blockHash": "0xfccf4375ef0101fe7ad4661700e75cbce180fecfc7e0a5bdb7b59526fe00b36b",
      "blockNumber": 80166,
      "transactionIndex": 0,
      "confirmations": null,
      "from": "0x87C5B5874A18B4306DF8a752a6C8cc3E82daFc19",
      "gasPrice": {
        "_hex": "0x105647a8c40"
      },
      "gasLimit": {
        "_hex": "0x493e0"
      },
      "to": "0xC4c51de1AbF5D60DBd329eC0F999Fd8f021ae9fC",
      "value": {
        "_hex": "0x0"
      },
      "nonce": 134,
      "data": "0x03750d9400000000000000000000000087c5b5874a18b4306df8a752a6c8cc3e82dafc196b6b6b0000000000000000000000000000000000000000000000000000000000",
      "r": "0xa5a93bb6958088d53320580004aa445b987907cfbed17cc4dbd47a24effc9e0b",
      "s": "0x3ec2b7c85050599a0d71bd60d1d30818e0296a114ebad51ead0dcce1a8e298ac",
      "v": 28,
      "creates": null,
      "raw": "0xf8ac8186860105647a8c40830493e094c4c51de1abf5d60dbd329ec0f999fd8f021ae9fc80b84403750d9400000000000000000000000087c5b5874a18b4306df8a752a6c8cc3e82dafc196b6b6b00000000000000000000000000000000000000000000000000000000001ca0a5a93bb6958088d53320580004aa445b987907cfbed17cc4dbd47a24effc9e0ba03ec2b7c85050599a0d71bd60d1d30818e0296a114ebad51ead0dcce1a8e298ac",
      "networkId": 0,
      "chainId": 0
    }
  ]
}