{
  "hash": "0x51df335c7c349a6aebd467fd6a5840fc56f96231519c7f254217ea02186eaf0b",
  "parentHash": "0xd219976309861c347a9905bffb93ba068db58af032acbfa0eb8b60bd06d10b67",
  "number": 50688,
  "timestamp": 1438993201,
  "nonce": "0x47a4c7c65d403bd9",
  "difficulty": 1531173739089,
  "gasLimit": {
    "_hex": "0x71b25"
  },
  "gasUsed": {
    "_hex": "0x1820d"
  },
  "miner": "0xa50ec0D39fa913E62f1Bae7074E6F36caA71855b",
  "extraData": "0x",
  "transactions": [
    {
      "hash": "0xeb315739e0ba9a73936f61a62a9b5bdecfb81e2d7c4159f8b02258ecef53a5f8",
      "blockHash": "0x51df335c7c349a6aebd467fd6a5840fc56f96231519c7f254217ea02186eaf0b",
      "blockNumber": 50688,
      "transactionIndex": 0,
      "confirmations": null,
      "from": "0xfC372FF6927CB396d9cf29803500110Da632bC52",
      "gasPrice": {
        "_hex": "0x117ac8597c3"
      },
      "gasLimit": {
        "_hex": "0x3d090"
      },
      "to": "0x109C4f2CCc82C4d77Bde15F306707320294Aea3F",
      "value": {
        "_hex": "0xde0b6b3a7640000"
      },
      "nonce": 1,
      "data": "0x",
      "r": "0xa02a1ab0480c53f73f159a9638096101babae8545b377d1257059c39b9932fc5",
      "s": "0x66c3ea14d025647449000346385400b45054dd14da0f6ab0091f730afad69ff8",
      "v": 28,
      "creates": null,
      "raw": "0xf86e01860117ac8597c38303d09094109c4f2ccc82c4d77bde15f306707320294aea3f880de0b6b3a7640000801ca0a02a1ab0480c53f73f159a9638096101babae8545b377d1257059c39b9932fc5a066c3ea14d025647449000346385400b45054dd14da0f6ab0091f730afad69ff8",
      "networkId": 0,
      "chainId": 0
    },
    {
      "hash": "0x2726d0fe80a25da3327f27a24d6a85998e0665f9bc23de440fa1b1be6d48b65d",
      "blockHash": "0x51df335c7c349a6aebd467fd6a5840fc56f96231519c7f254217ea02186eaf0b",
      "blockNumber": 50688,
      "transactionIndex": 1,
      "confirmations": null,
      "from": "0x5edeF194D1fB66CDeB5ca06baC41be4f3E2D0BE2",
      "gasPrice": {
        "_hex": "0xe0cc46894"
      },
      "gasLimit": {
        "_hex": "0x5208"
      },
      "to": "0x32Be343B94f860124dC4fEe278FDCBD38C102D88",
      "value": {
        "_hex": "0xddc362c01703800"
      },
      "nonce": 0,
      "data": "0x",
      "r": "0x931a67e1a9e368b668c7e27c5cf1b92479ea0f624860d10d6a22068c53e9c7f3",
      "s": "0x665d5a796a54880501d53baea53bf6f1b77957a4087605e0c95c4e169410ee85",
      "v": 27,
      "creates": null,
      "raw": "0xf86c80850e0cc468948252089432be343b94f860124dc4fee278fdcbd38c102d88880ddc362c01703800801ba0931a67e1a9e368b668c7e27c5cf1b92479ea0f624860d10d6a22068c53e9c7f3a0665d5a796a54880501d53baea53bf6f1b77957a4087605e0c95c4e169410ee85",
      "networkId": 0,
      "chainId": 0
    },
    {
      "hash": "0x5f6bae785392c8ff3d0d430a08524dfeeb242970ef8dbb17211942f7e78c1992",
      "blockHash": "0x51df335c7c349a6aebd467fd6a5840fc56f96231519c7f254217ea02186eaf0b",
      "blockNumber": 50688,
      "transactionIndex": 2,
      "confirmations": null,
      "from": "0x2ddF40905769BcC426CB2c2938ffE077e1E89D98",
      "gasPrice": {
        "_hex": "0xdf8475800"
      },
      "gasLimit": {
        "_hex": "0xc738"
      },
      "to": "0xE52F3039aE6D54885703588D0F8726596022ff9D",
      "value": {
        "_hex": "0xb1a2bc2ec50000"
      },
      "nonce": 0,
      "data": "0x",
      "r": "0xcda2faf6847d9d451fa9506958e7ad27a021d9490f448f2cd3ca22241bb61875",
      "s": "0x74a6a2dea3de2d76374d298d994d947b100806dd412e260d16f84aaf257df784",
      "v": 28,
      "creates": null,
      "raw": "0xf86b80850df847580082c73894e52f3039ae6d54885703588d0f8726596022ff9d87b1a2bc2ec50000801ca0cda2faf6847d9d451fa9506958e7ad27a021d9490f448f2cd3ca22241bb61875a074a6a2dea3de2d76374d298d994d947b100806dd412e260d16f84aaf257df784",
      "networkId": 0,
      "chainId": 0
    }
  ]
}