{
  "hash": "0x1dd7bf94d5cde8572fc63b3e973c79d3d97743d85cb32d46677c379b4fcf838f",
  "parentHash": "0x376277f9c76a3eaf1ce60639ac02093e44a35669a34486b62ba527de95f08c46",
  "number": 68970,
  "timestamp": 1439296481,
  "nonce": "0x375915e5f49c9002",
  "difficulty": 2031981609145,
  "gasLimit": {
    "_hex": "0x2fefd8"
  },
  "gasUsed": {
    "_hex": "0x1ec30"
  },
  "miner": "0xe6A7a1d47ff21B6321162AEA7C6CB457D5476Bca",
  "extraData": "0x476574682f76312e302e312d38326566323666362f6c696e75782f676f312e34",
  "transactions": [
    {
      "hash": "0xd43c9fac0ec53db32241a5f6928605cf9d03518db66e85d123b55ade97510218",
      "blockHash": "0x1dd7bf94d5cde8572fc63b3e973c79d3d97743d85cb32d46677c379b4fcf838f",
      "blockNumber": 68970,
      "transactionIndex": 0,
      "confirmations": null,
      "from": "0x5b7CB11B15b945Fd910192Ca510A1DF51C70586f",
      "gasPrice": {
        "_hex": "0xba43b7400"
      },
      "gasLimit": {
        "_hex": "0x5208"
      },
      "to": "0x0F6DA8d2472738987d61f6Af63dA8089675bfC3f",
      "value": {
        "_hex": "0x1072bbac261c000"
      },
      "nonce": 1,
      "data": "0x",
      "r": "0xb42fd90466c478e6dd117282f58c5ee095b9962a161e5ac8fbc517a0a7bee798",
      "s": "0x1a4dbb0ee49c4c6b5b3231bb508b13a45f409840be948bab82d848b73bde9961",
      "v": 28,
      "creates": null,
      "raw": "0xf86c01850ba43b7400825208940f6da8d2472738987d61f6af63da8089675bfc3f8801072bbac261c000801ca0b42fd90466c478e6dd117282f58c5ee095b9962a161e5ac8fbc517a0a7bee798a01a4dbb0ee49c4c6b5b3231bb508b13a45f409840be948bab82d848b73bde9961",
      "networkId": 0,
      "chainId": 0
    },
    {
      "hash": "0xc79c5b938df333173343d7740414e96ce844a3b091377ec1752b9cdc46520fe4",
      "blockHash": "0x1dd7bf94d5cde8572fc63b3e973c79d3d97743d85cb32d46677c379b4fcf838f",
      "blockNumber": 68970,
      "transactionIndex": 1,
      "confirmations": null,
      "from": "0x538b50f60Aa52Bf84f837d131C759b6cb87C69cc",
      "gasPrice": {
        "_hex": "0xba43b7400"
      },
      "gasLimit": {
        "_hex": "0x5208"
      },
      "to": "0xCFA5AF0DC5F71d251275c54CEEDe67ff0546e7C6",
      "value": {
        "_hex": "0x1072bbac261c000"
      },
      "nonce": 1,
      "data": "0x",
      "r": "0xa8fecf7d44406a697f089c003420cf4afec76c1a303276a204e614b845795ccd",
      "s": "0x39e270a11f380048881f88c9c045c198c29ac2f170e49a450d994fabe40d3218",
      "v": 27,
      "creates": null,
      "raw": "0xf86c01850ba43b740082520894cfa5af0dc5f71d251275c54ceede67ff0546e7c68801072bbac261c000801ba0a8fecf7d44406a697f089c003420cf4afec76c1a303276a204e614b845795ccda039e270a11f380048881f88c9c045c198c29ac2f170e49a450d994fabe40d3218",
      "networkId": 0,
      "chainId": 0
    },
    {
      "hash": "0x76507a4770414332024aaac10f4c51a3fcebf38300b759a467922bb593904c07",
      "blockHash": "0x1dd7bf94d5cde8572fc63b3e973c79d3d97743d85cb32d46677c379b4fcf838f",
      "blockNumber": 68970,
      "transactionIndex": 2,
      "confirmations": null,
      "from": "0x45460A020F18C33991E57be4401E80Ed2fA8F6bD",
      "gasPrice": {
        "_hex": "0xba43b7400"
      },
      "gasLimit": {
        "_hex": "0x5208"
      },
      "to": "0x29539dfB246bb1eb36757774f3Ee9D2C314B5004",
      "value": {
        "_hex": "0x1072bbac261c000"
      },
      "nonce": 1,
      "data": "0x",
      "r": "0x58cd14ea2539fad6a4d8f16d05dea593e4c1fe13767d15b1c34b160e7642695a",
      "s": "0x1eb5cc2f5bc527ce8fba3d44618faec081282b17767fb6589b0e419ebc9fd9b1",
      "v": 27,
      "creates": null,
      "raw": "0xf86c01850ba43b74008252089429539dfb246bb1eb36757774f3ee9d2c314b50048801072bbac261c000801ba058cd14ea2539fad6a4d8f16d05dea593e4c1fe13767d15b1c34b160e7642695aa01eb5cc2f5bc527ce8fba3d44618faec081282b17767fb6589b0e419ebc9fd9b1",
      "networkId": 0,
      "chainId": 0
    },
    {
      "hash": "0x7a303d9b0a0b1b05537a818eddd9eb37839ff93fab144c19ab13522c98fdccd3",
      "blockHash": "0x1dd7bf94d5cde8572fc63b3e973c79d3d97743d85cb32d46677c379b4fcf838f",
      "blockNumber": 68970,
      "transactionIndex": 3,
      "confirmations": null,
      "from": "0x406c441a6e217734F53AeF71D0A35fA9B3DE83Ce",
      "gasPrice": {
        "_hex": "0xba43b7400"
      },
      "gasLimit": {
        "_hex": "0x5208"
      },
      "to": "0x9E23cFdb3216bCE5bec08C44105d095B042e68C3",
      "value": {
        "_hex": "0x1072bbac261c000"
      },
      "nonce": 1,
      "data": "0x",
      "r": "0x8c503b86ed303f98801ea6fcdb75fcd928752e0a8bdf315eb76ca442d0d2c334",
      "s": "0x2754792a4e5ad2cb716cdc3b93654ba1112149969d12743095cf051401ec3de5",
      "v": 28,
      "creates": null,
      "raw": "0xf86c01850ba43b7400825208949e23cfdb3216bce5bec08c44105d095b042e68c38801072bbac261c000801ca08c503b86ed303f98801ea6fcdb75fcd928752e0a8bdf315eb76ca442d0d2c334a02754792a4e5ad2cb716cdc3b93654ba1112149969d12743095cf051401ec3de5",
      "networkId": 0,
      "chainId": 0
    },
    {
      "hash": "0x1cb67d1c8be773b3bc0fc677029ebae579f41538d0bef7fbf713c87b6b0a418c",
      "blockHash": "0x1dd7bf94d5cde8572fc63b3e973c79d3d97743d85cb32d46677c379b4fcf838f",
      "blockNumber": 68970,
      "transactionIndex": 4,
      "confirmations": null,
      "from": "0x97805c8de8cA0Cdf941e4AdD76Cd2D4c8C842dFd",
      "gasPrice": {
        "_hex": "0xba43b7400"
      },
      "gasLimit": {
        "_hex": "0x5208"
      },
      "to": "0x64E42823adC302ed9E2223D8B9F0048dA63BD351",
      "value": {
        "_hex": "0x1072bbac261c000"
      },
      "nonce": 1,
      "data": "0x",
      "r": "0x256ac9e1f53924627098842a9b142db75d91101fd89c259e0dc4dcbbebfd239d",
      "s": "0x068c4dc2fda138bb119e4c57049034f522b6de7a47a2808572f9576b57df330e",
      "v": 28,
      "creates": null,
      "raw": "0xf86c01850ba43b74008252089464e42823adc302ed9e2223d8b9f0048da63bd3518801072bbac261c000801ca0256ac9e1f53924627098842a9b142db75d91101fd89c259e0dc4dcbbebfd239da0068c4dc2fda138bb119e4c57049034f522b6de7a47a2808572f9576b57df330e",
      "networkId": 0,
      "chainId": 0
    },
    {
      "hash": "0x97f843eb78559a2ac61f37eef65442627d5c208c244ef04d5a534cb62591550b",
      "blockHash": "0x1dd7bf94d5cde8572fc63b3e973c79d3d97743d85cb32d46677c379b4fcf838f",
      "blockNumber": 68970,
      "transactionIndex": 5,
      "confirmations": null,
      "from": "0x2fF71338260F4a086088237A336f0D432C0d72e4",
      "gasPrice": {
        "_hex": "0xba43b7400"
      },
      "gasLimit": {
        "_hex": "0x5208"
      },
      "to": "0xDb3a5789D1DC4d90F1F20D313d124dBfEe2E84a7",
      "value": {
        "_hex": "0x1072bbac261c000"
      },
      "nonce": 1,
      "data": "0x",
      "r": "0x6283026fd4174858b3c8217231a64f9a41f2cd44312051ed26dd1ea74f1bc61d",
      "s": "0x3a12a39433e3bde36601555adfcb2f93479129bb50285a7f73cfe9b9ce46c7fb",
      "v": 28,
      "creates": null,
      "raw": "0xf86c01850ba43b740082520894db3a5789d1dc4d90f1f20d313d124dbfee2e84a78801072bbac261c000801ca06283026fd4174858b3c8217231a64f9a41f2cd44312051ed26dd1ea74f1bc61da03a12a39433e3bde36601555adfcb2f93479129bb50285a7f73cfe9b9ce46c7fb",
      "networkId": 0,
      "chainId": 0
    }
  ]
}