{
  "hash": "0x5c05d04eeea65c26672485998ce864dcee1c91ed1de010595358b8d2a79c1d3a",
  "parentHash": "0xac73040579d31aa6416dd7dad9ff6e95c71b6b2b387f3582e26dd92954ccc38b",
  "number": 71366,
  "timestamp": 1439334790,
  "nonce": "0x8f9a0c22919ff383",
  "difficulty": 2175123041994,
  "gasLimit": {
    "_hex": "0x2fefd5"
  },
  "gasUsed": {
    "_hex": "0x100c9"
  },
  "miner": "0x6DE55b563cE6E319cCB403032Da3BE5Ad4ec4FcF",
  "extraData": "0x",
  "transactions": [
    {
      "hash": "0xaa7e709f17b8440a9fb5f45ba7eef624fc8b9e4a26d3c054b4cd15ee9ab4d342",
      "blockHash": "0x5c05d04eeea65c26672485998ce864dcee1c91ed1de010595358b8d2a79c1d3a",
      "blockNumber": 71366,
      "transactionIndex": 0,
      "confirmations": null,
      "from": "0x120A270bbC009644e35F0bB6ab13f95b8199c4ad",
      "gasPrice": {
        "_hex": "0xdb9d9a5b2"
      },
      "gasLimit": {
        "_hex": "0x15f90"
      },
      "to": "0x0258Afde42492E62Ba883e6169d5c502275A7a24",
      "value": {
        "_hex": "0x2b3a1eb09a5a66d400"
      },
      "nonce": 229,
      "data": "0x",
      "r": "0xb9ec934c4728539bd60f9e0649bffbfcb8127d87c0fb24781bc55be954833602",
      "s": "0x73b21ad166de623f435cc18184c6145de72202ba0573d4366aa3159d3898f6ae",
      "v": 28,
      "creates": null,
      "raw": "0xf86f81e5850db9d9a5b283015f90940258afde42492e62ba883e6169d5c502275a7a24892b3a1eb09a5a66d400801ca0b9ec934c4728539bd60f9e0649bffbfcb8127d87c0fb24781bc55be954833602a073b21ad166de623f435cc18184c6145de72202ba0573d4366aa3159d3898f6ae",
      "networkId": 0,
      "chainId": 0
    },
    {
      "hash": "0xfafd6b7699b04dff568ec6428e18d061caefa6db15765bbed20f255919ab27df",
      "blockHash": "0x5c05d04eeea65c26672485998ce864dcee1c91ed1de010595358b8d2a79c1d3a",
      "blockNumber": 71366,
      "transactionIndex": 1,
      "confirmations": null,
      "from": "0x17580B766f7453525ca4C6A88b01b50570EA088C",
      "gasPrice": {
        "_hex": "0xcb08fd179"
      },
      "gasLimit": {
        "_hex": "0x61a80"
      },
      "to": "0x5Fe5B7546D1628f7348B023A0393de1FC825A4fD",
      "value": {
        "_hex": "0x53444835ec580000"
      },
      "nonce": 164,
      "data": "0xb595b8b50000000000000000000000000000000000000000000000000000000000000001",
      "r": "0x3f91d7df4db868dc468c05850f8386c69a76425a1183447541b1551bcb210a94",
      "s": "0x1e63b51c7832115a962dcba827b64856893ebd1709d462871b8f6a2344bcf3e6",
      "v": 28,
      "creates": null,
      "raw": "0xf89281a4850cb08fd17983061a80945fe5b7546d1628f7348b023a0393de1fc825a4fd8853444835ec580000a4b595b8b500000000000000000000000000000000000000000000000000000000000000011ca03f91d7df4db868dc468c05850f8386c69a76425a1183447541b1551bcb210a94a01e63b51c7832115a962dcba827b64856893ebd1709d462871b8f6a2344bcf3e6",
      "networkId": 0,
      "chainId": 0
    }
  ]
}