{
  "hash": "0x4e5f1ab0b6f9722af723e6abee11ca837d914c7a3d5782b3fc2e5b97c4f6efc1",
  "parentHash": "0x62bab3261b3d674a7b8be6a364f17b61833fda4baa48b48c73acc67e8c9b781b",
  "number": 115442,
  "timestamp": 1440057362,
  "nonce": "0x29934093f4366913",
  "difficulty": 4567204615784,
  "gasLimit": {
    "_hex": "0x2fefd8"
  },
  "gasUsed": {
    "_hex": "0x5208"
  },
  "miner": "0xe6A7a1d47ff21B6321162AEA7C6CB457D5476Bca",
  "extraData": "0x476574682f76312e302e312d38326566323666362f6c696e75782f676f312e34",
  "transactions": [
    {
      "hash": "0x36e52ed7abbebe2b9e7cbc74065d62c53c7d72d0f506584fff1d06a42ce592f6",
      "blockHash": "0x4e5f1ab0b6f9722af723e6abee11ca837d914c7a3d5782b3fc2e5b97c4f6efc1",
      "blockNumber": 115442,
      "transactionIndex": 0,
      "confirmations": null,
      "from": "0x790b8a3cE86E707ED0eD32bF89B3269692a23CC1",
      "gasPrice": {
        "_hex": "0xd4ea88f9c"
      },
      "gasLimit": {
        "_hex": "0x15f90"
      },
      "to": "0x4D67f4F0Db45b3B5a3424B39ed8d972F710381D5",
      "value": {
        "_hex": "0x2c2612051fb620000"
      },
      "nonce": 55,
      "data": "0x",
      "r": "0x784d464ddeeb7a2859775b07a9b8116c660c4f17739453e37ef7219224e05db6",
      "s": "0x03423a23b9febb31d13cd1888f252e9f2e9cc24d5a5e115e7cf9abb53919f3c7",
      "v": 27,
      "creates": null,
      "raw": "0xf86e37850d4ea88f9c83015f90944d67f4f0db45b3b5a3424b39ed8d972f710381d58902c2612051fb620000801ba0784d464ddeeb7a2859775b07a9b8116c660c4f17739453e37ef7219224e05db6a003423a23b9febb31d13cd1888f252e9f2e9cc24d5a5e115e7cf9abb53919f3c7",
      "networkId": 0,
      "chainId": 0
    }
  ]
}