{
  "hash": "0xae2d1241d636c829b157b2bd4861e5368ff31331eb7080161b1efbcb9a8125c8",
  "parentHash": "0x76f63a8cbf4bb5813aa9bb168a3fef6518fae1f5585070b9434539f64e9edb21",
  "number": 85703,
  "timestamp": 1439567534,
  "nonce": "0x7783892eb6699f67",
  "difficulty": 2781345333280,
  "gasLimit": {
    "_hex": "0x2fefd8"
  },
  "gasUsed": {
    "_hex": "0x5208"
  },
  "miner": "0xe6A7a1d47ff21B6321162AEA7C6CB457D5476Bca",
  "extraData": "0x476574682f76312e302e312d38326566323666362f6c696e75782f676f312e34",
  "transactions": [
    {
      "hash": "0x180706828820dc774e8efa4674f15622edfc14a046574f89bd7ef9948b09800d",
      "blockHash": "0xae2d1241d636c829b157b2bd4861e5368ff31331eb7080161b1efbcb9a8125c8",
      "blockNumber": 85703,
      "transactionIndex": 0,
      "confirmations": null,
      "from": "0xb577b6BEfA054E9c040461855094B002D7f57bd7",
      "gasPrice": {
        "_hex": "0x107e2bbf110"
      },
      "gasLimit": {
        "_hex": "0x15f90"
      },
      "to": "0x1BF3aa6bA1a55E2e26b26a4799d33c2c14945406",
      "value": {
        "_hex": "0xa2a15d09519be00000"
      },
      "nonce": 4,
      "data": "0x",
      "r": "0x09bb9f58636651337fdfd2a47e61638657299262f20e9dfaeb922c2d40899365",
      "s": "0x5ffee2eab883ccd744c132c34e3de29f1e6afd886694386084fa78598ae98687",
      "v": 27,
      "creates": null,
      "raw": "0xf86f04860107e2bbf11083015f90941bf3aa6ba1a55e2e26b26a4799d33c2c1494540689a2a15d09519be00000801ba009bb9f58636651337fdfd2a47e61638657299262f20e9dfaeb922c2d40899365a05ffee2eab883ccd744c132c34e3de29f1e6afd886694386084fa78598ae98687",
      "networkId": 0,
      "chainId": 0
    }
  ]
}