{
  "hash": "0xcab8ca25882281f4c2c12ba155e28be363754c08c52297024c0bb9a94abfbfbb",
  "parentHash": "0xf485c317dcdfeb200b93e539b509ecd6ce1aab7f1d4c95efbeb080d507a0028b",
  "number": 98192,
  "timestamp": 1439768506,
  "nonce": "0x9145e346b3854d40",
  "difficulty": 3872752505861,
  "gasLimit": {
    "_hex": "0x2fefd8"
  },
  "gasUsed": {
    "_hex": "0x5208"
  },
  "miner": "0x3D5292e9d2a2D31014717ff936A0F9375A5Cc8b7",
  "extraData": "0x476574682f76312e302e312f77696e646f77732f676f312e342e32",
  "transactions": [
    {
      "hash": "0xf67b72a4a277271f857f488a6d7a1e3c0ae83c7db4553f3b9dedf109edaa5130",
      "blockHash": "0xcab8ca25882281f4c2c12ba155e28be363754c08c52297024c0bb9a94abfbfbb",
      "blockNumber": 98192,
      "transactionIndex": 0,
      "confirmations": null,
      "from": "0xa70a9a7040d542C632D8e0bE7c5513A8a5Bbc752",
      "gasPrice": {
        "_hex": "0xcf8c7d3b4"
      },
      "gasLimit": {
        "_hex": "0x5208"
      },
      "to": "0x32Be343B94f860124dC4fEe278FDCBD38C102D88",
      "value": {
        "_hex": "0x455f696b12a8a800"
      },
      "nonce": 182,
      "data": "0x",
      "r": "0x4ba0640025c7ba1921d58ee2b617dd6bf130aa0794b6638a37af1d5a53664c1e",
      "s": "0x332df89464f0b75d36daac66bf604da18d7521a7d5ed21f8ae24580436bc7ada",
      "v": 27,
      "creates": null,
      "raw": "0xf86d81b6850cf8c7d3b48252089432be343b94f860124dc4fee278fdcbd38c102d8888455f696b12a8a800801ba04ba0640025c7ba1921d58ee2b617dd6bf130aa0794b6638a37af1d5a53664c1ea0332df89464f0b75d36daac66bf604da18d7521a7d5ed21f8ae24580436bc7ada",
      "networkId": 0,
      "chainId": 0
    }
  ]
}