{
  "hash": "0x61804c3e8d856519fd4c59ab8e37e4bde0355faa11bb6f1f8c784f162bce9a3b",
  "parentHash": "0x79c37e801117d1a6290443d0003edfa0dd2c9588817fba054a87c7ba26e2a797",
  "number": 92980,
  "timestamp": 1439680263,
  "nonce": "0x371c61dd1929c202",
  "difficulty": 3651056207789,
  "gasLimit": {
    "_hex": "0x2fefd8"
  },
  "gasUsed": {
    "_hex": "0x5208"
  },
  "miner": "0xe6A7a1d47ff21B6321162AEA7C6CB457D5476Bca",
  "extraData": "0x476574682f76312e302e312d38326566323666362f6c696e75782f676f312e34",
  "transactions": [
    {
      "hash": "0x2bae031145f1ac34f6ef6d0176b841a671365c1dbe777d59d5a99cabbc3de0cc",
      "blockHash": "0x61804c3e8d856519fd4c59ab8e37e4bde0355faa11bb6f1f8c784f162bce9a3b",
      "blockNumber": 92980,
      "transactionIndex": 0,
      "confirmations": null,
      "from": "0x0617194e49BaAD419B57FB8EBba265E417362835",
      "gasPrice": {
        "_hex": "0xde7a9e39d"
      },
      "gasLimit": {
        "_hex": "0x5208"
      },
      "to": "0x0F87Fb507513e749081E34373c84E95e85b5c057",
      "value": {
        "_hex": "0xca4a4e2de8a53"
      },
      "nonce": 5,
      "data": "0x",
      "r": "0x04b0be415e545c30965e8336649408ec9d16673beb1b65516103937115cdae73",
      "s": "0x73ed6c0ecac703c03d1f6c4421d5c08364c82f164b125f460322c961f26d3364",
      "v": 27,
      "creates": null,
      "raw": "0xf86b05850de7a9e39d825208940f87fb507513e749081e34373c84e95e85b5c057870ca4a4e2de8a53801ba004b0be415e545c30965e8336649408ec9d16673beb1b65516103937115cdae73a073ed6c0ecac703c03d1f6c4421d5c08364c82f164b125f460322c961f26d3364",
      "networkId": 0,
      "chainId": 0
    }
  ]
}