{
  "hash": "0x6666917fac975fdf7df9a8198708dac2e44c892c5718dc2d9c391f3c9fdb9482",
  "parentHash": "0xbb78237300debadd6305a09badcb9c6f92111aae883c2b8f280a13270caa59d4",
  "number": 121029,
  "timestamp": 1440170161,
  "nonce": "0x36ee0f9c3bc80b14",
  "difficulty": 4438885273839,
  "gasLimit": {
    "_hex": "0x2fefd8"
  },
  "gasUsed": {
    "_hex": "0x5208"
  },
  "miner": "0x35e8e5dC5FBd97c5b421A80B596C030a2Be2A04D",
  "extraData": "0x",
  "transactions": [
    {
      "hash": "0xe70fb2faf551ab23ef229767e1a5093600735d3462bbc1bbe297b9cd897ee7a1",
      "blockHash": "0x6666917fac975fdf7df9a8198708dac2e44c892c5718dc2d9c391f3c9fdb9482",
      "blockNumber": 121029,
      "transactionIndex": 0,
      "confirmations": null,
      "from": "0x0eDEd3DA479d0beF8eeC92A76644D3f4E3C177f7",
      "gasPrice": {
        "_hex": "0xba43b7400"
      },
      "gasLimit": {
        "_hex": "0x15f90"
      },
      "to": "0x3f0073d6bBE51612013aA09BC970e08E84D7BA23",
      "value": {
        "_hex": "0x8ac7230489e80000"
      },
      "nonce": 12,
      "data": "0x",
      "r": "0xbd0a61f95afeec780d1723935df93983ea38c551812068d0855a321a1afa41d7",
      "s": "0x78702e86191a633433a450f0f3002fd8413e19d924c7761e90b2ad3a4c06a4c0",
      "v": 28,
      "creates": null,
      "raw": "0xf86d0c850ba43b740083015f90943f0073d6bbe51612013aa09bc970e08e84d7ba23888ac7230489e80000801ca0bd0a61f95afeec780d1723935df93983ea38c551812068d0855a321a1afa41d7a078702e86191a633433a450f0f3002fd8413e19d924c7761e90b2ad3a4c06a4c0",
      "networkId": 0,
      "chainId": 0
    }
  ]
}