{
  "hash": "0xcaadc575ff14f008ed73b5706072f8ac51c4ffa9776a5cdaaf2c8103f13fba2b",
  "parentHash": "0xf1f7e6be8313fb42614fd8c82e0b4bef3a11db7bd5b9b75fc860b33962ba42c2",
  "number": 81595,
  "timestamp": 1439504451,
  "nonce": "0x55664c9e603979fd",
  "difficulty": 2443769275829,
  "gasLimit": {
    "_hex": "0x2fefd8"
  },
  "gasUsed": {
    "_hex": "0x5208"
  },
  "miner": "0xfFcD9CAE6d9f54fd8ae05296F839892677ff6EaA",
  "extraData": "0x476574682f76312e302e312f77696e646f77732f676f312e342e32",
  "transactions": [
    {
      "hash": "0x4712b2b569804628322a2e46c86cd866909a78278a87c6423e74226f3b53f6ce",
      "blockHash": "0xcaadc575ff14f008ed73b5706072f8ac51c4ffa9776a5cdaaf2c8103f13fba2b",
      "blockNumber": 81595,
      "transactionIndex": 0,
      "confirmations": null,
      "from": "0x120A270bbC009644e35F0bB6ab13f95b8199c4ad",
      "gasPrice": {
        "_hex": "0xe067fddce"
      },
      "gasLimit": {
        "_hex": "0x3d090"
      },
      "to": "0xFbc92cE518a6CA6341B08b4468880Cc9Dd61a027",
      "value": {
        "_hex": "0x1a79a857c3e52a3400"
      },
      "nonce": 385,
      "data": "0x",
      "r": "0xf4e96cc7a5c4371f9f91235d13abdc224b0f6681f77b978e621a8418c678aaca",
      "s": "0x6a85bb22ca8a3d85bf3c3e3abd1e9115f795c1cb60eac6861172d3f89a93a81f",
      "v": 27,
      "creates": null,
      "raw": "0xf870820181850e067fddce8303d09094fbc92ce518a6ca6341b08b4468880cc9dd61a027891a79a857c3e52a3400801ba0f4e96cc7a5c4371f9f91235d13abdc224b0f6681f77b978e621a8418c678aacaa06a85bb22ca8a3d85bf3c3e3abd1e9115f795c1cb60eac6861172d3f89a93a81f",
      "networkId": 0,
      "chainId": 0
    }
  ]
}