{
  "hash": "0xe1a79db1bbe693703d789ef3cc1a40160b204a007bc3176abc80310714a3e1cb",
  "parentHash": "0x45186aeb237d89a333bb53f212a725db4c1b2d216b70b7df9dc923c7e5df8760",
  "number": 106333,
  "timestamp": 1439902435,
  "nonce": "0xe24da0a659e40800",
  "difficulty": 4468433917809,
  "gasLimit": {
    "_hex": "0x2fefd8"
  },
  "gasUsed": {
    "_hex": "0x5208"
  },
  "miner": "0xe6A7a1d47ff21B6321162AEA7C6CB457D5476Bca",
  "extraData": "0x476574682f76312e302e312d38326566323666362f6c696e75782f676f312e34",
  "transactions": [
    {
      "hash": "0xb1499780bb72552f3c2f3fa6554fda74e5541e5eba8cc03522a8e10744075cdf",
      "blockHash": "0xe1a79db1bbe693703d789ef3cc1a40160b204a007bc3176abc80310714a3e1cb",
      "blockNumber": 106333,
      "transactionIndex": 0,
      "confirmations": null,
      "from": "0x47ff6576639c2e94762eA5443978D7681C0E78DC",
      "gasPrice": {
        "_hex": "0xba43b7400"
      },
      "gasLimit": {
        "_hex": "0x5208"
      },
      "to": "0x3620db64D25D412bAb4C8d93E2e0D7e64e8Cb933",
      "value": {
        "_hex": "0x91b77e5e5d9a00000"
      },
      "nonce": 31,
      "data": "0x",
      "r": "0x9945903ec3345ad3a0a03119e8e89989682330a4b9c0ebb27289d20d67597f02",
      "s": "0x4f232e37b7805b36e9eb466720c295d223a312d6cb19517935e832798f159814",
      "v": 27,
      "creates": null,
      "raw": "0xf86d1f850ba43b7400825208943620db64d25d412bab4c8d93e2e0d7e64e8cb93389091b77e5e5d9a00000801ba09945903ec3345ad3a0a03119e8e89989682330a4b9c0ebb27289d20d67597f02a04f232e37b7805b36e9eb466720c295d223a312d6cb19517935e832798f159814",
      "networkId": 0,
      "chainId": 0
    }
  ]
}