{
  "hash": "0xa7d45adc2a054ce388ff4c94f2edd310f27f674b9cf704133d7ddb933906a966",
  "parentHash": "0x046da2f76c90e84305061a87e2cd8e0c3620548c89f32ac009ebfe906472916f",
  "number": 65639,
  "timestamp": 1439240511,
  "nonce": "0xa3840437af5771b8",
  "difficulty": 1934970643586,
  "gasLimit": {
    "_hex": "0x2fefd5"
  },
  "gasUsed": {
    "_hex": "0xf618"
  },
  "miner": "0xf927a40C8B7F6E07c5af7FA2155B4864a4112B13",
  "extraData": "0x",
  "transactions": [
    {
      "hash": "0x5840287fa4b53bbc9ef2a45e4e5e8f9d5c3ef8cee3e63bbfc00ab46e0bf98550",
      "blockHash": "0xa7d45adc2a054ce388ff4c94f2edd310f27f674b9cf704133d7ddb933906a966",
      "blockNumber": 65639,
      "transactionIndex": 0,
      "confirmations": null,
      "from": "0xBaf4E201A3015b60bD8dd1190E20411EaF12C5eE",
      "gasPrice": {
        "_hex": "0xd7f249bfd"
      },
      "gasLimit": {
        "_hex": "0x5208"
      },
      "to": "0x32Be343B94f860124dC4fEe278FDCBD38C102D88",
      "value": {
        "_hex": "0xddc638e41367000"
      },
      "nonce": 0,
      "data": "0x",
      "r": "0x86012913dda034a3ce8d17dc6ca6471b870f63251c90ec8dd6ceaed75965dcf7",
      "s": "0x50d6a1fe0a24d48a039d21a9f925d63b3c3d7f5772d8afd989729c7972213976",
      "v": 28,
      "creates": null,
      "raw": "0xf86c80850d7f249bfd8252089432be343b94f860124dc4fee278fdcbd38c102d88880ddc638e41367000801ca086012913dda034a3ce8d17dc6ca6471b870f63251c90ec8dd6ceaed75965dcf7a050d6a1fe0a24d48a039d21a9f925d63b3c3d7f5772d8afd989729c7972213976",
      "networkId": 0,
      "chainId": 0
    },
    {
      "hash": "0x002df25c3756bca18fad304b8497dd21f09a7f15cb1f42b58deb139f0d057bac",
      "blockHash": "0xa7d45adc2a054ce388ff4c94f2edd310f27f674b9cf704133d7ddb933906a966",
      "blockNumber": 65639,
      "transactionIndex": 1,
      "confirmations": null,
      "from": "0xb996Aa4730618799F3FcC30a682d21E1BF70Ef90",
      "gasPrice": {
        "_hex": "0xd1f217cbf"
      },
      "gasLimit": {
        "_hex": "0x7a120"
      },
      "to": "0xe525A548fd0B22Dde5B4fF4efC84007AdB5F9FC9",
      "value": {
        "_hex": "0xde0b6b3a7640000"
      },
      "nonce": 1,
      "data": "0x",
      "r": "0x0602378ff16e0b152eeca00aaacc2038863c7c029ecf53924cd7fce22a68d66d",
      "s": "0x119338d42131aa7a3b559b427a23cf449aabd4ff591f1b6a0f36996570181617",
      "v": 28,
      "creates": null,
      "raw": "0xf86d01850d1f217cbf8307a12094e525a548fd0b22dde5b4ff4efc84007adb5f9fc9880de0b6b3a7640000801ca00602378ff16e0b152eeca00aaacc2038863c7c029ecf53924cd7fce22a68d66da0119338d42131aa7a3b559b427a23cf449aabd4ff591f1b6a0f36996570181617",
      "networkId": 0,
      "chainId": 0
    },
    {
      "hash": "0xeb07db87937b21aedcbbcd4a041239b0fc5f41f53b19f17e7ffcb1322e08dbc9",
      "blockHash": "0xa7d45adc2a054ce388ff4c94f2edd310f27f674b9cf704133d7ddb933906a966",
      "blockNumber": 65639,
      "transactionIndex": 2,
      "confirmations": null,
      "from": "0xB1a2B43A7433dd150BB82227eD519Cd6b142d382",
      "gasPrice": {
        "_hex": "0xcfa796141"
      },
      "gasLimit": {
        "_hex": "0x15f90"
      },
      "to": "0x323568426ffe039a56c0aF194e87aBde5ee2Ffa2",
      "value": {
        "_hex": "0x8ac7230489e80000"
      },
      "nonce": 7,
      "data": "0x",
      "r": "0x177e811646ecdab5f3695ea64a9561c5c1afb8dfb62dfe990945c724ba2a3733",
      "s": "0x70dfaf5c74d1a2babba42ddd9119fc241ba167fabfd9cc5683ca21ecdc5db158",
      "v": 28,
      "creates": null,
      "raw": "0xf86d07850cfa79614183015f9094323568426ffe039a56c0af194e87abde5ee2ffa2888ac7230489e80000801ca0177e811646ecdab5f3695ea64a9561c5c1afb8dfb62dfe990945c724ba2a3733a070dfaf5c74d1a2babba42ddd9119fc241ba167fabfd9cc5683ca21ecdc5db158",
      "networkId": 0,
      "chainId": 0
    }
  ]
}