{
  "hash": "0x60c34c7c014c1cd68eb6e8f698c534da437fb6a21c5e757a0ce44b7cc5de153f",
  "parentHash": "0x4dfeca725f94ecc5306efa3113a6bfe0b0843768a7ffe4ce9abeff093fdd16bf",
  "number": 93872,
  "timestamp": 1439699200,
  "nonce": "0x19384dc10c998335",
  "difficulty": 3446271668757,
  "gasLimit": {
    "_hex": "0x2fefd8"
  },
  "gasUsed": {
    "_hex": "0x5208"
  },
  "miner": "0x5B034036Ae40b7C5d7bbbF041D07b7f76E200039",
  "extraData": "0x476574682f76312e302e312f77696e646f77732f676f312e342e32",
  "transactions": [
    {
      "hash": "0x74b849f6000ed831ab925fb55303135596a8fe7affba056ca0d9fdbb870a71e2",
      "blockHash": "0x60c34c7c014c1cd68eb6e8f698c534da437fb6a21c5e757a0ce44b7cc5de153f",
      "blockNumber": 93872,
      "transactionIndex": 0,
      "confirmations": null,
      "from": "0x886e83d9133F65B9c27A946f699E88e71A888E4C",
      "gasPrice": {
        "_hex": "0xe1b98306d"
      },
      "gasLimit": {
        "_hex": "0x15f90"
      },
      "to": "0xCbbdAd70d0ff27254925AD37B5C135EEe1116615",
      "value": {
        "_hex": "0xc3663566a58000"
      },
      "nonce": 2,
      "data": "0x",
      "r": "0xf4f79a9ec555e0445e552dcb36477c7883ceb9c181a8c60e038ca1bdb25b2e3c",
      "s": "0x1f370d159eeee1445dbd9bc348944eb5b2d0a24c44add8d33e6b4f5e0d8a1f10",
      "v": 27,
      "creates": null,
      "raw": "0xf86c02850e1b98306d83015f9094cbbdad70d0ff27254925ad37b5c135eee111661587c3663566a58000801ba0f4f79a9ec555e0445e552dcb36477c7883ceb9c181a8c60e038ca1bdb25b2e3ca01f370d159eeee1445dbd9bc348944eb5b2d0a24c44add8d33e6b4f5e0d8a1f10",
      "networkId": 0,
      "chainId": 0
    }
  ]
}