{
  "hash": "0x1ca85b5c3f1de2bc063df3373bc939c2238ff4d074212e6ffd9c92f2daa64909",
  "parentHash": "0x239dfcbc8c94bc2c43ad8a65d91d34b5196fdfc8374b1bd73452ce8fe8fe7062",
  "number": 112983,
  "timestamp": 1440016141,
  "nonce": "0x211cc2cd4f8f5453",
  "difficulty": 4473622023365,
  "gasLimit": {
    "_hex": "0x2fefd8"
  },
  "gasUsed": {
    "_hex": "0xa410"
  },
  "miner": "0xf8E0CA3Ed80bd541b94BEdCf259e8CF2141A9523",
  "extraData": "0x476574682f76312e302e312f77696e646f77732f676f312e342e32",
  "transactions": [
    {
      "hash": "0x4f3ea003d8c4402bcf1eb60942dcbef66ceaf6e449538f80f183e0207e574923",
      "blockHash": "0x1ca85b5c3f1de2bc063df3373bc939c2238ff4d074212e6ffd9c92f2daa64909",
      "blockNumber": 112983,
      "transactionIndex": 0,
      "confirmations": null,
      "from": "0x056507108FE6d30189EcCD6cd7F4Fad56eEef622",
      "gasPrice": {
        "_hex": "0xd8ac77922"
      },
      "gasLimit": {
        "_hex": "0x15f90"
      },
      "to": "0x0cA19A53a3256482A89770FC1daFC7630717F201",
      "value": {
        "_hex": "0x1aa8cf2c73eb7b22"
      },
      "nonce": 22,
      "data": "0x",
      "r": "0x1bec34cc4d8186458b06ced0c91db3224443dad6f7f1560f58feebb551337591",
      "s": "0x39f9e7cef421f2b373fbcb7af990a8c107a00c85d8e4012bd1b290edd1c300dc",
      "v": 28,
      "creates": null,
      "raw": "0xf86d16850d8ac7792283015f90940ca19a53a3256482a89770fc1dafc7630717f201881aa8cf2c73eb7b22801ca01bec34cc4d8186458b06ced0c91db3224443dad6f7f1560f58feebb551337591a039f9e7cef421f2b373fbcb7af990a8c107a00c85d8e4012bd1b290edd1c300dc",
      "networkId": 0,
      "chainId": 0
    },
    {
      "hash": "0x28b85904748a976a8b3c2ac2747e3cea6eb0894db932623ae40d923bedf009c6",
      "blockHash": "0x1ca85b5c3f1de2bc063df3373bc939c2238ff4d074212e6ffd9c92f2daa64909",
      "blockNumber": 112983,
      "transactionIndex": 1,
      "confirmations": null,
      "from": "0x056507108FE6d30189EcCD6cd7F4Fad56eEef622",
      "gasPrice": {
        "_hex": "0xd8ac77922"
      },
      "gasLimit": {
        "_hex": "0x15f90"
      },
      "to": "0x0cA19A53a3256482A89770FC1daFC7630717F201",
      "value": {
        "_hex": "0x10a6b8b178664fc97"
      },
      "nonce": 23,
      "data": "0x",
      "r": "0x31f1525a05255ed1b564b43974a1bac1543e9c7937ef7e35a04012b00de30efc",
      "s": "0x5279ab8a8a4f2277fd175bed9476ccc53b6dad90238e0566989ebe45bfcf7cc3",
      "v": 27,
      "creates": null,
      "raw": "0xf86e17850d8ac7792283015f90940ca19a53a3256482a89770fc1dafc7630717f20189010a6b8b178664fc97801ba031f1525a05255ed1b564b43974a1bac1543e9c7937ef7e35a04012b00de30efca05279ab8a8a4f2277fd175bed9476ccc53b6dad90238e0566989ebe45bfcf7cc3",
      "networkId": 0,
      "chainId": 0
    }
  ]
}