{
  "hash": "0xb405f2297719778c81b9a3b3cd82c4018bc5537ecc00142be826a2b4b77957f9",
  "parentHash": "0x733abfe0e661cce886e52c219c33c23f480213010335c2fe98a139a2c61aaea2",
  "number": 96319,
  "timestamp": 1439738396,
  "nonce": "0x927bf64f98e498b8",
  "difficulty": 3683619403346,
  "gasLimit": {
    "_hex": "0x2fefd8"
  },
  "gasUsed": {
    "_hex": "0x1ec35"
  },
  "miner": "0xe6A7a1d47ff21B6321162AEA7C6CB457D5476Bca",
  "extraData": "0x476574682f76312e302e312d38326566323666362f6c696e75782f676f312e34",
  "transactions": [
    {
      "hash": "0x0959dda8aac2039f11d679883bbd6ed9a671a81052189929f674aadd6269c10f",
      "blockHash": "0xb405f2297719778c81b9a3b3cd82c4018bc5537ecc00142be826a2b4b77957f9",
      "blockNumber": 96319,
      "transactionIndex": 0,
      "confirmations": null,
      "from": "0xa14Cf6cEC1c6aAe4b608458F6e14692863A937Aa",
      "gasPrice": {
        "_hex": "0xdd63ec03f"
      },
      "gasLimit": {
        "_hex": "0x61a80"
      },
      "to": "0x580E45f982a0A01cFab3B36B3Ec8Df63fcc5D290",
      "value": {
        "_hex": "0x0"
      },
      "nonce": 26,
      "data": "0xa1eb05c0000000000000000000000000000000000000000000000000000000000000000000000000000000000000000000000000000000000000000029a2241af62c0000",
      "r": "0xddfad7e2cc137a07d5b5d25db5f9dec935c01d24acd7af2d9de63c7844621f9a",
      "s": "0x2b6707415eac6ef8cf8c2907ffe943dd650e987408bfab7419421938fa6201a0",
      "v": 27,
      "creates": null,
      "raw": "0xf8aa1a850dd63ec03f83061a8094580e45f982a0a01cfab3b36b3ec8df63fcc5d29080b844a1eb05c0000000000000000000000000000000000000000000000000000000000000000000000000000000000000000000000000000000000000000029a2241af62c00001ba0ddfad7e2cc137a07d5b5d25db5f9dec935c01d24acd7af2d9de63c7844621f9aa02b6707415eac6ef8cf8c2907ffe943dd650e987408bfab7419421938fa6201a0",
      "networkId": 0,
      "chainId": 0
    }
  ]
}