{
  "hash": "0xc29f41927484ba866f81ca473191b078a8c8a982496fdb06b1e4643c7c2d7dbf",
  "parentHash": "0x190b60096f3321a070a70c6110d618e08e78a208dd0461030a7244215eee88d3",
  "number": 92474,
  "timestamp": 1439672658,
  "nonce": "0x00108b3da35be33e",
  "difficulty": 3518263132969,
  "gasLimit": {
    "_hex": "0x2fefd8"
  },
  "gasUsed": {
    "_hex": "0xf618"
  },
  "miner": "0xf927a40C8B7F6E07c5af7FA2155B4864a4112B13",
  "extraData": "0x",
  "transactions": [
    {
      "hash": "0xcdf2dde7561d4be751085686f69ee835e01070bdf28b93db2bf01a8da83b4768",
      "blockHash": "0xc29f41927484ba866f81ca473191b078a8c8a982496fdb06b1e4643c7c2d7dbf",
      "blockNumber": 92474,
      "transactionIndex": 0,
      "confirmations": null,
      "from": "0xd11050820106D3E1D7a516B074b13D5ec2b4A8F1",
      "gasPrice": {
        "_hex": "0xdfde45d46"
      },
      "gasLimit": {
        "_hex": "0x15f90"
      },
      "to": "0x83467Bcd87d0E6b641A9c2868e63Cb239adf1dc4",
      "value": {
        "_hex": "0xde0b6b3a7640000"
      },
      "nonce": 0,
      "data": "0x",
      "r": "0xb23fcd78ed28584d852f1ddb529bbe8ba06c5bcfc9972aed1e19c7a6375cdcc0",
      "s": "0x6469af1603a4cbebe4bdbebc7c2b0a1aef5dcf525e845726e01c338a92e01302",
      "v": 27,
      "creates": null,
      "raw": "0xf86d80850dfde45d4683015f909483467bcd87d0e6b641a9c2868e63cb239adf1dc4880de0b6b3a7640000801ba0b23fcd78ed28584d852f1ddb529bbe8ba06c5bcfc9972aed1e19c7a6375cdcc0a06469af1603a4cbebe4bdbebc7c2b0a1aef5dcf525e845726e01c338a92e01302",
      "networkId": 0,
      "chainId": 0
    },
    {
      "hash": "0xb23cdc374425fd26cf119c42d4e9f0a1bb0ac56f7392b683a9d83e745d8371be",
      "blockHash": "0xc29f41927484ba866f81ca473191b078a8c8a982496fdb06b1e4643c7c2d7dbf",
      "blockNumber": 92474,
      "transactionIndex": 1,
      "confirmations": null,
      "from": "0x83467Bcd87d0E6b641A9c2868e63Cb239adf1dc4",
      "gasPrice": {
        "_hex": "0xd534364a2"
      },
      "gasLimit": {
        "_hex": "0x15f90"
      },
      "to": "0xd11050820106D3E1D7a516B074b13D5ec2b4A8F1",
      "value": {
        "_hex": "0x16345785d8a0000"
      },
      "nonce": 3,
      "data": "0x",
      "r": "0xa84b6686f4d49dfdc2ae76eccc73b36b968c4d986f215496f9c37e7a66aabb74",
      "s": "0x01636a7ae552c198b7ceab82671014ea816a68fcc9f1d1b6cffc82c698982ee3",
      "v": 27,
      "creates": null,
      "raw": "0xf86d03850d534364a283015f9094d11050820106d3e1d7a516b074b13d5ec2b4a8f188016345785d8a0000801ba0a84b6686f4d49dfdc2ae76eccc73b36b968c4d986f215496f9c37e7a66aabb74a001636a7ae552c198b7ceab82671014ea816a68fcc9f1d1b6cffc82c698982ee3",
      "networkId": 0,
      "chainId": 0
    },
    {
      "hash": "0x4d1a3e52bb21037c3f27f9397cb598ff644caf46c397ce0f0e71f8ec868be097",
      "blockHash": "0xc29f41927484ba866f81ca473191b078a8c8a982496fdb06b1e4643c7c2d7dbf",
      "blockNumber": 92474,
      "transactionIndex": 2,
      "confirmations": null,
      "from": "0x3222BA3F3e79eA0e31467EEE7639B57923558cCD",
      "gasPrice": {
        "_hex": "0xcd01555c5"
      },
      "gasLimit": {
        "_hex": "0x5208"
      },
      "to": "0x5E33810d055F68eBA415be93fAEC212e9a2d6723",
      "value": {
        "_hex": "0x9b41fbf9e0aec0000"
      },
      "nonce": 2,
      "data": "0x",
      "r": "0xe234ed26267b6d5ddabc432dc5e15650e1ce8e007d68820222cac6f54df23b30",
      "s": "0x735a72420ab46b1b8d58a6879423c98eb4143c5a978e9a453c074a1022546860",
      "v": 28,
      "creates": null,
      "raw": "0xf86d02850cd01555c5825208945e33810d055f68eba415be93faec212e9a2d67238909b41fbf9e0aec0000801ca0e234ed26267b6d5ddabc432dc5e15650e1ce8e007d68820222cac6f54df23b30a0735a72420ab46b1b8d58a6879423c98eb4143c5a978e9a453c074a1022546860",
      "networkId": 0,
      "chainId": 0
    }
  ]
}