{
  "hash": "0xbfba7df04216e34bcaa1c11c3f0c7eca72654d04b37509596f8159a42db55dd8",
  "parentHash": "0xdab7f0bb681bcfb543244e74633fb6de8501c6d99cd8c8fcbb88c91b6f9638f4",
  "number": 81143,
  "timestamp": 1439496893,
  "nonce": "0xaafa4777e5f51500",
  "difficulty": 2441515498779,
  "gasLimit": {
    "_hex": "0x2fefd8"
  },
  "gasUsed": {
    "_hex": "0x14820"
  },
  "miner": "0x55bAf64fc9eAccFFd7Cc643BB61142E1C6ac093e",
  "extraData": "0x",
  "transactions": [
    {
      "hash": "0x86ac6849893e70a9b63f491b849eef7c47691591f5444b0d0745757790c77979",
      "blockHash": "0xbfba7df04216e34bcaa1c11c3f0c7eca72654d04b37509596f8159a42db55dd8",
      "blockNumber": 81143,
      "transactionIndex": 0,
      "confirmations": null,
      "from": "0x2910543Af39abA0Cd09dBb2D50200b3E800A63D2",
      "gasPrice": {
        "_hex": "0xddbb786ad"
      },
      "gasLimit": {
        "_hex": "0x5208"
      },
      "to": "0xB111131B23148a685D28A018B3577910B86280FC",
      "value": {
        "_hex": "0x4551ce090d138000"
      },
      "nonce": 443,
      "data": "0x",
      "r": "0x062af5ed8970832f43296c47dfcaf2e1b087aaf08bb279b71afbc273b5a26e2e",
      "s": "0x35c545b0aaf3ab378e069bf3502bd7463fcc0aa4fdb53fdcfc070250d71511ef",
      "v": 28,
      "creates": null,
      "raw": "0xf86e8201bb850ddbb786ad82520894b111131b23148a685d28a018b3577910b86280fc884551ce090d138000801ca0062af5ed8970832f43296c47dfcaf2e1b087aaf08bb279b71afbc273b5a26e2ea035c545b0aaf3ab378e069bf3502bd7463fcc0aa4fdb53fdcfc070250d71511ef",
      "networkId": 0,
      "chainId": 0
    },
    {
      "hash": "0x8bfc67db6bfa9531c57596e25979e81099c81ea1d1910fe81aec447d68fe4e14",
      "blockHash": "0xbfba7df04216e34bcaa1c11c3f0c7eca72654d04b37509596f8159a42db55dd8",
      "blockNumber": 81143,
      "transactionIndex": 1,
      "confirmations": null,
      "from": "0x2910543Af39abA0Cd09dBb2D50200b3E800A63D2",
      "gasPrice": {
        "_hex": "0xddbb786ad"
      },
      "gasLimit": {
        "_hex": "0x5208"
      },
      "to": "0x0CDf45a0f7A9bFD8777c2B6311a6614345aB9D9d",
      "value": {
        "_hex": "0x3635b7ea4ca6bf8000"
      },
      "nonce": 444,
      "data": "0x",
      "r": "0xa377f09e861e97f122da21b157441a57a1d6776308de61c0137217dbcdf8911e",
      "s": "0x121d4e2d258c46cf3e242de66ce5be83ab8e5114367f8cdd533771f7db2164c0",
      "v": 27,
      "creates": null,
      "raw": "0xf86f8201bc850ddbb786ad825208940cdf45a0f7a9bfd8777c2b6311a6614345ab9d9d893635b7ea4ca6bf8000801ba0a377f09e861e97f122da21b157441a57a1d6776308de61c0137217dbcdf8911ea0121d4e2d258c46cf3e242de66ce5be83ab8e5114367f8cdd533771f7db2164c0",
      "networkId": 0,
      "chainId": 0
    },
    {
      "hash": "0xd45f6536088675a2b98a71c4dbbcf27dad5ebc6ee43169de83c49cfa84137711",
      "blockHash": "0xbfba7df04216e34bcaa1c11c3f0c7eca72654d04b37509596f8159a42db55dd8",
      "blockNumber": 81143,
      "transactionIndex": 2,
      "confirmations": null,
      "from": "0x2910543Af39abA0Cd09dBb2D50200b3E800A63D2",
      "gasPrice": {
        "_hex": "0xddbb786ad"
      },
      "gasLimit": {
        "_hex": "0x5208"
      },
      "to": "0x1401d0732B5D94426480015ebe6122D0d5a3931f",
      "value": {
        "_hex": "0x4551ce090d138000"
      },
      "nonce": 445,
      "data": "0x",
      "r": "0x41a5021f6da61df490e356578e941ad0de95cdb962af1e9ecfa8607921db03e7",
      "s": "0x292580020eb18691b023a0c3cb581d93f63253c0a08d571ac2bab42011261592",
      "v": 28,
      "creates": null,
      "raw": "0xf86e8201bd850ddbb786ad825208941401d0732b5d94426480015ebe6122d0d5a3931f884551ce090d138000801ca041a5021f6da61df490e356578e941ad0de95cdb962af1e9ecfa8607921db03e7a0292580020eb18691b023a0c3cb581d93f63253c0a08d571ac2bab42011261592",
      "networkId": 0,
      "chainId": 0
    },
    {
      "hash": "0xf73b1e72cbb74c686837400eee947c5d641e530bb912ad01b7ccbb560a9a0727",
      "blockHash": "0xbfba7df04216e34bcaa1c11c3f0c7eca72654d04b37509596f8159a42db55dd8",
      "blockNumber": 81143,
      "transactionIndex": 3,
      "confirmations": null,
      "from": "0x2910543Af39abA0Cd09dBb2D50200b3E800A63D2",
      "gasPrice": {
        "_hex": "0xddbb786ad"
      },
      "gasLimit": {
        "_hex": "0x5208"
      },
      "to": "0xb2169f1326FE9745321aD99563654089bAdf09eb",
      "value": {
        "_hex": "0x7c7013e91b3dcc000"
      },
      "nonce": 446,
      "data": "0x",
      "r": "0xe8403d781b5ed2d956ba0d6bfc270befa488293117d00e54a0ac21cdb3d0392a",
      "s": "0x0f1550e061e1258a97b72b9c66a17a3df44de7a53e71c257c2ee4b14775e4c6f",
      "v": 28,
      "creates": null,
      "raw": "0xf86f8201be850ddbb786ad82520894b2169f1326fe9745321ad99563654089badf09eb8907c7013e91b3dcc000801ca0e8403d781b5ed2d956ba0d6bfc270befa488293117d00e54a0ac21cdb3d0392aa00f1550e061e1258a97b72b9c66a17a3df44de7a53e71c257c2ee4b14775e4c6f",
      "networkId": 0,
      "chainId": 0
    }
  ]
}