{
  "hash": "0xe962dfba515b6170e8fa7b403c17e7a48237793090d5d92b327bbfe2aaa416e1",
  "parentHash": "0x8db08f0b70b139196d1f19fa3f8ac7869d2d82101fabdf66225ff8acf346516b",
  "number": 71851,
  "timestamp": 1439342932,
  "nonce": "0x98567742368b84be",
  "difficulty": 2167575904502,
  "gasLimit": {
    "_hex": "0x2fefd8"
  },
  "gasUsed": {
    "_hex": "0x194c9"
  },
  "miner": "0xf927a40C8B7F6E07c5af7FA2155B4864a4112B13",
  "extraData": "0x",
  "transactions": [
    {
      "hash": "0x40dcf963bc823e05d133b33d56fb0d3234b71186655342883613c5921f430e91",
      "blockHash": "0xe962dfba515b6170e8fa7b403c17e7a48237793090d5d92b327bbfe2aaa416e1",
      "blockNumber": 71851,
      "transactionIndex": 0,
      "confirmations": null,
      "from": "0x60664De32450711A29F363c14A76107111689e17",
      "gasPrice": {
        "_hex": "0xd5baaf400"
      },
      "gasLimit": {
        "_hex": "0x5208"
      },
      "to": "0x32Be343B94f860124dC4fEe278FDCBD38C102D88",
      "value": {
        "_hex": "0xddc6eeca345b800"
      },
      "nonce": 1,
      "data": "0x",
      "r": "0x511d1d7a0b56467e6397bb429b2a14c92ffa2bebcca5d5ba0b8eb0d4e9d230df",
      "s": "0x3758cef2cc1b37efb692e47f4572090e1b5ea67754b45aaf5dc84ee8b0bf5c90",
      "v": 28,
      "creates": null,
      "raw": "0xf86c01850d5baaf4008252089432be343b94f860124dc4fee278fdcbd38c102d88880ddc6eeca345b800801ca0511d1d7a0b56467e6397bb429b2a14c92ffa2bebcca5d5ba0b8eb0d4e9d230dfa03758cef2cc1b37efb692e47f4572090e1b5ea67754b45aaf5dc84ee8b0bf5c90",
      "networkId": 0,
      "chainId": 0
    },
    {
      "hash": "0x8f0d621c182a767110bffbd2956aef2729019f1488505e9bf4d68338ffefa4c0",
      "blockHash": "0xe962dfba515b6170e8fa7b403c17e7a48237793090d5d92b327bbfe2aaa416e1",
      "blockNumber": 71851,
      "transactionIndex": 1,
      "confirmations": null,
      "from": "0x17580B766f7453525ca4C6A88b01b50570EA088C",
      "gasPrice": {
        "_hex": "0xcc2162639"
      },
      "gasLimit": {
        "_hex": "0x61a80"
      },
      "to": "0x5Fe5B7546D1628f7348B023A0393de1FC825A4fD",
      "value": {
        "_hex": "0x29a2241af62c0000"
      },
      "nonce": 270,
      "data": "0xb595b8b50000000000000000000000000000000000000000000000000000000000000001",
      "r": "0x55e73eb03b61c48f1e070e4fac913579e24559bf3269cf412f01ab621ec9534f",
      "s": "0x6b69f756232acbeb3a47d75a39d27463dddf1984db2b98d76de9aaaed1c75156",
      "v": 27,
      "creates": null,
      "raw": "0xf89382010e850cc216263983061a80945fe5b7546d1628f7348b023a0393de1fc825a4fd8829a2241af62c0000a4b595b8b500000000000000000000000000000000000000000000000000000000000000011ba055e73eb03b61c48f1e070e4fac913579e24559bf3269cf412f01ab621ec9534fa06b69f756232acbeb3a47d75a39d27463dddf1984db2b98d76de9aaaed1c75156",
      "networkId": 0,
      "chainId": 0
    },
    {
      "hash": "0x3c9cec88ac695376998a34abe460b3424ec3f9f9aef836ddad03d35d736c0cd0",
      "blockHash": "0xe962dfba515b6170e8fa7b403c17e7a48237793090d5d92b327bbfe2aaa416e1",
      "blockNumber": 71851,
      "transactionIndex": 2,
      "confirmations": null,
      "from": "0x17580B766f7453525ca4C6A88b01b50570EA088C",
      "gasPrice": {
        "_hex": "0xcc2162639"
      },
      "gasLimit": {
        "_hex": "0x61a80"
      },
      "to": "0x5Fe5B7546D1628f7348B023A0393de1FC825A4fD",
      "value": {
        "_hex": "0x53444835ec580000"
      },
      "nonce": 271,
      "data": "0xb595b8b50000000000000000000000000000000000000000000000000000000000000001",
      "r": "0xc024e9a7e76100476d66e1205ca4750e24a1e42846d22352af796e34fb65840d",
      "s": "0x43999b8096d8a57575fe8da746a41eae32774ee70cad2a0df39ca3f7ba5661e0",
      "v": 27,
      "creates": null,
      "raw": "0xf89382010f850cc216263983061a80945fe5b7546d1628f7348b023a0393de1fc825a4fd8853444835ec580000a4b595b8b500000000000000000000000000000000000000000000000000000000000000011ba0c024e9a7e76100476d66e1205ca4750e24a1e42846d22352af796e34fb65840da043999b8096d8a57575fe8da746a41eae32774ee70cad2a0df39ca3f7ba5661e0",
      "networkId": 0,
      "chainId": 0
    }
  ]
}