{
  "hash": "0xff5c610d15ae696d329e1076b873df58c20a2710fe75e9282b6c852b8546bf04",
  "parentHash": "0x961785217abc4531fdae251cf08837fd1355c3f882a4b8869dba231fe43405d5",
  "number": 122069,
  "timestamp": 1440187631,
  "nonce": "0x20cca287028c3d98",
  "difficulty": 4464417194485,
  "gasLimit": {
    "_hex": "0x2fefd8"
  },
  "gasUsed": {
    "_hex": "0x5208"
  },
  "miner": "0x17B719A685fC6C0002798e7f8151D0E2E83B7497",
  "extraData": "0x",
  "transactions": [
    {
      "hash": "0x20ad7feb35b53dfa27102dee4aceaf26317a2567320a304f46663cc168829ad7",
      "blockHash": "0xff5c610d15ae696d329e1076b873df58c20a2710fe75e9282b6c852b8546bf04",
      "blockNumber": 122069,
      "transactionIndex": 0,
      "confirmations": null,
      "from": "0x007f7f58D3eb5b7510A301eCC749FC1fCDDBE14D",
      "gasPrice": {
        "_hex": "0xba43b7400"
      },
      "gasLimit": {
        "_hex": "0x15f90"
      },
      "to": "0xb1abce2918E21ddb93AA452731a12672A3d9F75a",
      "value": {
        "_hex": "0x4563918244f40000"
      },
      "nonce": 385,
      "data": "0x",
      "r": "0x14ce4a243a4af641523cada30fb0769e962844629a5877ee09fe356c2296383b",
      "s": "0x0016045f02fa00dbe643698572bcceda4e8fdeda51d1547054580d54ed95b6d6",
      "v": 28,
      "creates": null,
      "raw": "0xf86e820181850ba43b740083015f9094b1abce2918e21ddb93aa452731a12672a3d9f75a884563918244f40000801ca014ce4a243a4af641523cada30fb0769e962844629a5877ee09fe356c2296383b9f16045f02fa00dbe643698572bcceda4e8fdeda51d1547054580d54ed95b6d6",
      "networkId": 0,
      "chainId": 0
    }
  ]
}