{
  "hash": "0xee53fd898e576d37f5bd2e0ab9ff65fea83ac9b93f3a0ae2428b5e454c467dd2",
  "parentHash": "0xbd95090517986c26a626f0e10298ec0d192a97afebaa4671ab9a22670d0565fc",
  "number": 121572,
  "timestamp": 1440179179,
  "nonce": "0x79c74fb9f01c6ec1",
  "difficulty": 4440765764730,
  "gasLimit": {
    "_hex": "0x2fefd8"
  },
  "gasUsed": {
    "_hex": "0x5208"
  },
  "miner": "0x790b8a3cE86E707ED0eD32bF89B3269692a23CC1",
  "extraData": "0xd783010002844765746887676f312e342e32856c696e7578",
  "transactions": [
    {
      "hash": "0xfc8a826bc0a989605b76dc079de6f0b8b3a7c48baae9f2692415be49034bb24a",
      "blockHash": "0xee53fd898e576d37f5bd2e0ab9ff65fea83ac9b93f3a0ae2428b5e454c467dd2",
      "blockNumber": 121572,
      "transactionIndex": 0,
      "confirmations": null,
      "from": "0xBdF25376dA0767EfBF7eE3dCAe463ECe5572bFF3",
      "gasPrice": {
        "_hex": "0xe1ed5f655"
      },
      "gasLimit": {
        "_hex": "0x15f90"
      },
      "to": "0x9b0a028EAfDeCdE3AFc0fD00B7937098388b7C8a",
      "value": {
        "_hex": "0x8cd73f6d75b8866f0"
      },
      "nonce": 3,
      "data": "0x",
      "r": "0xc617276a146f41c11f5ecb9cb93627dd351142fdccc3fb2431f7aca1a360dbcc",
      "s": "0x37ee4fe1aa1dc0769e029c86835307e2c052dce407f428b4c79265b12c91586c",
      "v": 27,
      "creates": null,
      "raw": "0xf86e03850e1ed5f65583015f90949b0a028eafdecde3afc0fd00b7937098388b7c8a8908cd73f6d75b8866f0801ba0c617276a146f41c11f5ecb9cb93627dd351142fdccc3fb2431f7aca1a360dbcca037ee4fe1aa1dc0769e029c86835307e2c052dce407f428b4c79265b12c91586c",
      "networkId": 0,
      "chainId": 0
    }
  ]
}