{
  "hash": "0x95dcf910fd63342a2847332cabca0ea91b74281121932ac460b95912bb0344e6",
  "parentHash": "0x2163c2642bfbc76b88bcd2d204ea0f2bbb44e9c7d8dff21d6f75ea0489ddbeb0",
  "number": 109215,
  "timestamp": 1439952860,
  "nonce": "0xc3f37a5d5ff99ac3",
  "difficulty": 4458183102519,
  "gasLimit": {
    "_hex": "0x2fefd8"
  },
  "gasUsed": {
    "_hex": "0x5208"
  },
  "miner": "0xf927a40C8B7F6E07c5af7FA2155B4864a4112B13",
  "extraData": "0x",
  "transactions": [
    {
      "hash": "0x853fd82ba55eb67470f8a916fc9589ae7c2a6eec01d7de0f4c92066b31a4daf8",
      "blockHash": "0x95dcf910fd63342a2847332cabca0ea91b74281121932ac460b95912bb0344e6",
      "blockNumber": 109215,
      "transactionIndex": 0,
      "confirmations": null,
      "from": "0x007f7f58D3eb5b7510A301eCC749FC1fCDDBE14D",
      "gasPrice": {
        "_hex": "0xd382b0b9c"
      },
      "gasLimit": {
        "_hex": "0x15f90"
      },
      "to": "0xb1abce2918E21ddb93AA452731a12672A3d9F75a",
      "value": {
        "_hex": "0x4563918244f40000"
      },
      "nonce": 262,
      "data": "0x",
      "r": "0xa8eac3215d8cded33ceb107dcbba39ba6419ddf8d5ecf82a472c8e419af29c46",
      "s": "0x1d646c115a2760a063db243b6c421f9cf3012511af74231b8ee19cf4660753f3",
      "v": 27,
      "creates": null,
      "raw": "0xf86f820106850d382b0b9c83015f9094b1abce2918e21ddb93aa452731a12672a3d9f75a884563918244f40000801ba0a8eac3215d8cded33ceb107dcbba39ba6419ddf8d5ecf82a472c8e419af29c46a01d646c115a2760a063db243b6c421f9cf3012511af74231b8ee19cf4660753f3",
      "networkId": 0,
      "chainId": 0
    }
  ]
}