{
  "hash": "0xaf801db516853e6023775d784ad968a6c391dd3dbc20d5ef8d84def489979c19",
  "parentHash": "0x36cc03bc9394cae5612078fd50a03dc01cfece7c94cf0593b4442ef62767cfa7",
  "number": 66376,
  "timestamp": 1439253558,
  "nonce": "0xa4ce69b6de46d9eb",
  "difficulty": 1935745607477,
  "gasLimit": {
    "_hex": "0x2fe3de"
  },
  "gasUsed": {
    "_hex": "0x546c"
  },
  "miner": "0x356CEFb4Eb836DC68403308309E075a31DD991D2",
  "extraData": "0x476574682f76312e302e302f6c696e75782f676f312e342e32",
  "transactions": [
    {
      "hash": "0x64a68bb00ee3d615dfb1c309393b5a80302a8b7dc39c721ebb12dc59f0eb32c2",
      "blockHash": "0xaf801db516853e6023775d784ad968a6c391dd3dbc20d5ef8d84def489979c19",
      "blockNumber": 66376,
      "transactionIndex": 0,
      "confirmations": null,
      "from": "0xC765E00476810947816aF142D46D2eE7bCa8cc4f",
      "gasPrice": {
        "_hex": "0x110c8f7d8de"
      },
      "gasLimit": {
        "_hex": "0xc350"
      },
      "to": "0x2910543Af39abA0Cd09dBb2D50200b3E800A63D2",
      "value": {
        "_hex": "0x12f6733eae1fa40000"
      },
      "nonce": 1,
      "data": "0x454e4a364436594830",
      "r": "0xa6c7b3a83abbdc7e2e1219d66287fd7da2355601b3745ea537ce7869b4a5a80f",
      "s": "0x94e12533b70d8576358f3c80e553d5958621e719dbf592c0736f64c0e6e1dbee",
      "v": 28,
      "creates": null,
      "raw": "0xf87701860110c8f7d8de82c350942910543af39aba0cd09dbb2d50200b3e800a63d28912f6733eae1fa4000089454e4a3644365948301ca0a6c7b3a83abbdc7e2e1219d66287fd7da2355601b3745ea537ce7869b4a5a80fa094e12533b70d8576358f3c80e553d5958621e719dbf592c0736f64c0e6e1dbee",
      "networkId": 0,
      "chainId": 0
    }
  ]
}