{
  "hash": "0x470121c40f5a86af71cf926eb808aedbb4e22ae805ff0de24e1621476d3bfa14",
  "parentHash": "0x0fc8a7b0f9772a3bb899d3d98d08c33cbaa8cb38bc4518fc15e767569e0af218",
  "number": 87455,
  "timestamp": 1439592414,
  "nonce": "0x753d8d4b18057bf6",
  "difficulty": 3129552304566,
  "gasLimit": {
    "_hex": "0x2fefd8"
  },
  "gasUsed": {
    "_hex": "0x5208"
  },
  "miner": "0xe6A7a1d47ff21B6321162AEA7C6CB457D5476Bca",
  "extraData": "0x476574682f76312e302e312d38326566323666362f6c696e75782f676f312e34",
  "transactions": [
    {
      "hash": "0x37842ed81fa9dfd9f26d12bb853a5366db4b2ad30841dddd2a6c7900913102a8",
      "blockHash": "0x470121c40f5a86af71cf926eb808aedbb4e22ae805ff0de24e1621476d3bfa14",
      "blockNumber": 87455,
      "transactionIndex": 0,
      "confirmations": null,
      "from": "0x2910543Af39abA0Cd09dBb2D50200b3E800A63D2",
      "gasPrice": {
        "_hex": "0xd840d0ec9"
      },
      "gasLimit": {
        "_hex": "0x5208"
      },
      "to": "0x41E64c7e9F28Fa443CB11F9DB21E3DB0f8Ce7211",
      "value": {
        "_hex": "0x12dd785c378bf00000"
      },
      "nonce": 703,
      "data": "0x",
      "r": "0xd9e5fe6ecae14bae61a971e1dc7ed382c0c0c0fef6ac61720012e5e3f5d9368a",
      "s": "0x3d63bac26a907337bb06b2676ec45efb861ee84463a17d916fc448b57c03b4e4",
      "v": 27,
      "creates": null,
      "raw": "0xf86f8202bf850d840d0ec98252089441e64c7e9f28fa443cb11f9db21e3db0f8ce72118912dd785c378bf00000801ba0d9e5fe6ecae14bae61a971e1dc7ed382c0c0c0fef6ac61720012e5e3f5d9368aa03d63bac26a907337bb06b2676ec45efb861ee84463a17d916fc448b57c03b4e4",
      "networkId": 0,
      "chainId": 0
    }
  ]
}