{
  "hash": "0x754bd9dc33eb337c87ab5eec0f5aa2836c4a22b01fdc4a66694e5cf6370a0c3b",
  "parentHash": "0x96ba5df893d37eb5989a60a8a2a5970c40872e5c7fd42185da0bcf6801557e1b",
  "number": 92956,
  "timestamp": 1439679897,
  "nonce": "0x2a836eeeb1f3d34f",
  "difficulty": 3654633890154,
  "gasLimit": {
    "_hex": "0x2fefd8"
  },
  "gasUsed": {
    "_hex": "0x5208"
  },
  "miner": "0xf8E0CA3Ed80bd541b94BEdCf259e8CF2141A9523",
  "extraData": "0x476574682f76312e302e312f77696e646f77732f676f312e342e32",
  "transactions": [
    {
      "hash": "0xcc981fdd8767eba71075e574b83fac0a250e669dd4b94c96e08daf6251526f4a",
      "blockHash": "0x754bd9dc33eb337c87ab5eec0f5aa2836c4a22b01fdc4a66694e5cf6370a0c3b",
      "blockNumber": 92956,
      "transactionIndex": 0,
      "confirmations": null,
      "from": "0x739f8ab33a41B67952f16778e3CC6D2dEcC3a2d5",
      "gasPrice": {
        "_hex": "0x103c12f08ad"
      },
      "gasLimit": {
        "_hex": "0x15f90"
      },
      "to": "0xa7676a5ac43bcA8BAFF4721F8350EC3cDe87F10C",
      "value": {
        "_hex": "0x4563918244f40000"
      },
      "nonce": 6,
      "data": "0x",
      "r": "0x8eee4bfbff4c2066b25ca000e94b57bf9d475dec06e525dcdbb4c980b585322d",
      "s": "0x0cb1802ce2afa338255e28664845ed389a3def29b0adb2ee47c05f9927122e26",
      "v": 28,
      "creates": null,
      "raw": "0xf86e06860103c12f08ad83015f9094a7676a5ac43bca8baff4721f8350ec3cde87f10c884563918244f40000801ca08eee4bfbff4c2066b25ca000e94b57bf9d475dec06e525dcdbb4c980b585322da00cb1802ce2afa338255e28664845ed389a3def29b0adb2ee47c05f9927122e26",
      "networkId": 0,
      "chainId": 0
    }
  ]
}