{
  "hash": "0xcdea4ab747124cc5a4004753b3247355cc8b282c031edea3e96fd29573a8c224",
  "parentHash": "0xbc95546f8070bcf6308d2b493342c088df70a13ef1f01da113ce682ba9a62e61",
  "number": 75676,
  "timestamp": 1439407207,
  "nonce": "0x5a89b90fde6cd2a8",
  "difficulty": 2236454404302,
  "gasLimit": {
    "_hex": "0x2fefd8"
  },
  "gasUsed": {
    "_hex": "0x5208"
  },
  "miner": "0xf8E0CA3Ed80bd541b94BEdCf259e8CF2141A9523",
  "extraData": "0x476574682f76312e302e312f77696e646f77732f676f312e342e32",
  "transactions": [
    {
      "hash": "0x37105f741c85ea0081be7d12a3a85d883f8810890dfe701270d6767ab5a54536",
      "blockHash": "0xcdea4ab747124cc5a4004753b3247355cc8b282c031edea3e96fd29573a8c224",
      "blockNumber": 75676,
      "transactionIndex": 0,
      "confirmations": null,
      "from": "0x1e7B5e4d1F572BEcf2c00fC90cB4767b4A6E33D4",
      "gasPrice": {
        "_hex": "0xd6b187d36"
      },
      "gasLimit": {
        "_hex": "0x15f90"
      },
      "to": "0x83D8Eec14470cdd640ec06e83212519D19B804bc",
      "value": {
        "_hex": "0xde0b6b3a7640000"
      },
      "nonce": 3,
      "data": "0x",
      "r": "0x1d9fa88bd2f0e7ae8f964de916ff7dd290593fab6e8440bccf7bcfb915fefc0f",
      "s": "0x79b1186610934c8fdddc4850af64ccad565a057639862e1705daab4ed83d9558",
      "v": 27,
      "creates": null,
      "raw": "0xf86d03850d6b187d3683015f909483d8eec14470cdd640ec06e83212519d19b804bc880de0b6b3a7640000801ba01d9fa88bd2f0e7ae8f964de916ff7dd290593fab6e8440bccf7bcfb915fefc0fa079b1186610934c8fdddc4850af64ccad565a057639862e1705daab4ed83d9558",
      "networkId": 0,
      "chainId": 0
    }
  ]
}