{
  "hash": "0x78c0afb0fc18615b5c0cc6f7d1a5408645700ee224eea63fdd050244daa46ef4",
  "parentHash": "0xd5511d46c3389cca7420af3901814f5e74f72720d1d651ceef208c777a45730d",
  "number": 116829,
  "timestamp": 1440098202,
  "nonce": "0x7b06eb5dec1890ad",
  "difficulty": 4342468739011,
  "gasLimit": {
    "_hex": "0x2fefd8"
  },
  "gasUsed": {
    "_hex": "0x75eb8"
  },
  "miner": "0xe6A7a1d47ff21B6321162AEA7C6CB457D5476Bca",
  "extraData": "0xd783010002844765746887676f312e342e32856c696e7578",
  "transactions": [
    {
      "hash": "0xbe52df3eedf35bde7f2c85491ef1146cb6a69f74f87fd7c1750e11d5968a78fc",
      "blockHash": "0x78c0afb0fc18615b5c0cc6f7d1a5408645700ee224eea63fdd050244daa46ef4",
      "blockNumber": 116829,
      "transactionIndex": 0,
      "confirmations": null,
      "from": "0xe6A7a1d47ff21B6321162AEA7C6CB457D5476Bca",
      "gasPrice": {
        "_hex": "0xba43b7400"
      },
      "gasLimit": {
        "_hex": "0x55f0"
      },
      "to": "0x2D1d94521E896625F8Ec3f65171Fa82262Da6BCF",
      "value": {
        "_hex": "0x10439a3c2003d96f0"
      },
      "nonce": 5839,
      "data": "0x",
      "r": "0x30e646d25bd22af63546f3d6be67a3242b0a8f2c4681742ec86a166f4a78880d",
      "s": "0x610c08e023efdba56cd83af4342e74aec069b6e58866d289caaf213d18773456",
      "v": 27,
      "creates": null,
      "raw": "0xf86f8216cf850ba43b74008255f0942d1d94521e896625f8ec3f65171fa82262da6bcf89010439a3c2003d96f0801ba030e646d25bd22af63546f3d6be67a3242b0a8f2c4681742ec86a166f4a78880da0610c08e023efdba56cd83af4342e74aec069b6e58866d289caaf213d18773456",
      "networkId": 0,
      "chainId": 0
    },
    {
      "hash": "0x6e16bb3fc17d8308b80ed0379e3457cabf778dc4136c82476388d2981d7e04e7",
      "blockHash": "0x78c0afb0fc18615b5c0cc6f7d1a5408645700ee224eea63fdd050244daa46ef4",
      "blockNumber": 116829,
      "transactionIndex": 1,
      "confirmations": null,
      "from": "0xe6A7a1d47ff21B6321162AEA7C6CB457D5476Bca",
      "gasPrice": {
        "_hex": "0xba43b7400"
      },
      "gasLimit": {
        "_hex": "0x55f0"
      },
      "to": "0x945133f5F817b984e41D4798b45C9B8ed7CE3EAc",
      "value": {
        "_hex": "0x104972a9b72a24110"
      },
      "nonce": 5840,
      "data": "0x",
      "r": "0x9006403eb085e3b0d7cc4e06adeb394d395f4b3af878e0ea5aae8e4bb2d25259",
      "s": "0x223885cb0a8906731ed6d56f3f65115e7cdbee0d1c4a381a208ee50a2cc1bfe1",
      "v": 28,
      "creates": null,
      "raw": "0xf86f8216d0850ba43b74008255f094945133f5f817b984e41d4798b45c9b8ed7ce3eac890104972a9b72a24110801ca09006403eb085e3b0d7cc4e06adeb394d395f4b3af878e0ea5aae8e4bb2d25259a0223885cb0a8906731ed6d56f3f65115e7cdbee0d1c4a381a208ee50a2cc1bfe1",
      "networkId": 0,
      "chainId": 0
    },
    {
      "hash": "0x04ba956e2c306e4d0262ba92c2d5ff0fbef269ca72b1f927ad7236df10a58158",
      "blockHash": "0x78c0afb0fc18615b5c0cc6f7d1a5408645700ee224eea63fdd050244daa46ef4",
      "blockNumber": 116829,
      "transactionIndex": 2,
      "confirmations": null,
      "from": "0xe6A7a1d47ff21B6321162AEA7C6CB457D5476Bca",
      "gasPrice": {
        "_hex": "0xba43b7400"
      },
      "gasLimit": {
        "_hex": "0x55f0"
      },
      "to": "0x187b1f47Cd55b27878699DfCDCee2234cD49E97e",
      "value": {
        "_hex": "0x10c1847e51d145040"
      },
      "nonce": 5841,
      "data": "0x",
      "r": "0x8d061c4fb843df0f3b7d9e9bffc3815402ac16085d1970e0d53a52337541fd4a",
      "s": "0x2905d8e01f1bb495848a5bd2b1176e3950b1b8f04f7c4959d91ad4896074481b",
      "v": 27,
      "creates": null,
      "raw": "0xf86f8216d1850ba43b74008255f094187b1f47cd55b27878699dfcdcee2234cd49e97e89010c1847e51d145040801ba08d061c4fb843df0f3b7d9e9bffc3815402ac16085d1970e0d53a52337541fd4aa02905d8e01f1bb495848a5bd2b1176e3950b1b8f04f7c4959d91ad4896074481b",
      "networkId": 0,
      "chainId": 0
    },
    {
      "hash": "0xe5c766d42195e594472fe6b8db4463166b3ea6d2f8b0dd361a1e9670299bd649",
      "blockHash": "0x78c0afb0fc18615b5c0cc6f7d1a5408645700ee224eea63fdd050244daa46ef4",
      "blockNumber": 116829,
      "transactionIndex": 3,
      "confirmations": null,
      "from": "0xe6A7a1d47ff21B6321162AEA7C6CB457D5476Bca",
      "gasPrice": {
        "_hex": "0xba43b7400"
      },
      "gasLimit": {
        "_hex": "0x55f0"
      },
      "to": "0x2c640E5e3DE20DECa76ee10c5Fd6ECd074EFb3e8",
      "value": {
        "_hex": "0x10cc14134ebe7b820"
      },
      "nonce": 5842,
      "data": "0x",
      "r": "0xc15c0b15c3b626c3a974dbec2dc6bda337d4275a7899ba82fd3060f3356e62d8",
      "s": "0x7d2f210042e822adc21718e238cffa66dc0f04453b45385afa3f3284add41865",
      "v": 28,
      "creates": null,
      "raw": "0xf86f8216d2850ba43b74008255f0942c640e5e3de20deca76ee10c5fd6ecd074efb3e889010cc14134ebe7b820801ca0c15c0b15c3b626c3a974dbec2dc6bda337d4275a7899ba82fd3060f3356e62d8a07d2f210042e822adc21718e238cffa66dc0f04453b45385afa3f3284add41865",
      "networkId": 0,
      "chainId": 0
    },
    {
      "hash": "0x239fb00e6b92c2fd8bb8ca03b6b1b6d82bf6d105cd5f26f5c8e1adc29164c6bb",
      "blockHash": "0x78c0afb0fc18615b5c0cc6f7d1a5408645700ee224eea63fdd050244daa46ef4",
      "blockNumber": 116829,
      "transactionIndex": 4,
      "confirmations": null,
      "from": "0xe6A7a1d47ff21B6321162AEA7C6CB457D5476Bca",
      "gasPrice": {
        "_hex": "0xba43b7400"
      },
      "gasLimit": {
        "_hex": "0x55f0"
      },
      "to": "0xF7e66D2622220807d8696064E94ca24b1dC6e7Da",
      "value": {
        "_hex": "0x10cdd71784c2725b0"
      },
      "nonce": 5843,
      "data": "0x",
      "r": "0x4545a1110a89b01c888f12c1d3014a0040ce125f33489a9b996ea398e6e281a9",
      "s": "0x6b1c89eb0ff346340223d74e1a17ce5797801f2a6bb1dfc460f4067031c5af18",
      "v": 28,
      "creates": null,
      "raw": "0xf86f8216d3850ba43b74008255f094f7e66d2622220807d8696064e94ca24b1dc6e7da89010cdd71784c2725b0801ca04545a1110a89b01c888f12c1d3014a0040ce125f33489a9b996ea398e6e281a9a06b1c89eb0ff346340223d74e1a17ce5797801f2a6bb1dfc460f4067031c5af18",
      "networkId": 0,
      "chainId": 0
    },
    {
      "hash": "0x427cfbee21c3e656b679c5cbda41713ff1dd8d4a30162dc8c56e243463de7d1e",
      "blockHash": "0x78c0afb0fc18615b5c0cc6f7d1a5408645700ee224eea63fdd050244daa46ef4",
      "blockNumber": 116829,
      "transactionIndex": 5,
      "confirmations": null,
      "from": "0xe6A7a1d47ff21B6321162AEA7C6CB457D5476Bca",
      "gasPrice": {
        "_hex": "0xba43b7400"
      },
      "gasLimit": {
        "_hex": "0x55f0"
      },
      "to": "0xdCB14605B0EE4F372D223e5DF87aa9e760886D01",
      "value": {
        "_hex": "0x12fa5905e617b29d0"
      },
      "nonce": 5844,
      "data": "0x",
      "r": "0xc9cf3cbdd65de22ec3492f79e5ff07454eb505abfb31f5eda498327df492f964",
      "s": "0x0b416ae5f595c823803f267124e3ca339d1696336d0e5c11822af73a16b07260",
      "v": 28,
      "creates": null,
      "raw": "0xf86f8216d4850ba43b74008255f094dcb14605b0ee4f372d223e5df87aa9e760886d0189012fa5905e617b29d0801ca0c9cf3cbdd65de22ec3492f79e5ff07454eb505abfb31f5eda498327df492f964a00b416ae5f595c823803f267124e3ca339d1696336d0e5c11822af73a16b07260",
      "networkId": 0,
      "chainId": 0
    },
    {
      "hash": "0xcd89308df2e71f40bdb8af05f1555e8a5feebd1e52442c60105d0719b7249247",
      "blockHash": "0x78c0afb0fc18615b5c0cc6f7d1a5408645700ee224eea63fdd050244daa46ef4",
      "blockNumber": 116829,
      "transactionIndex": 6,
      "confirmations": null,
      "from": "0xe6A7a1d47ff21B6321162AEA7C6CB457D5476Bca",
      "gasPrice": {
        "_hex": "0xba43b7400"
      },
      "gasLimit": {
        "_hex": "0x55f0"
      },
      "to": "0xbAeF66124E137Eb5eE0DE1BbAB5a30002508a1bf",
      "value": {
        "_hex": "0x1376bb6464bc70b50"
      },
      "nonce": 5845,
      "data": "0x",
      "r": "0x7d1607457d38e3eb63ce4a59e51b7bcbfe31917bd1c763c1efcb623619e3e4ba",
      "s": "0x5b79b0e934133e59e935bde7204ebe3c57b0f86cf615b22a985fc0e97df9c18f",
      "v": 28,
      "creates": null,
      "raw": "0xf86f8216d5850ba43b74008255f094baef66124e137eb5ee0de1bbab5a30002508a1bf8901376bb6464bc70b50801ca07d1607457d38e3eb63ce4a59e51b7bcbfe31917bd1c763c1efcb623619e3e4baa05b79b0e934133e59e935bde7204ebe3c57b0f86cf615b22a985fc0e97df9c18f",
      "networkId": 0,
      "chainId": 0
    },
    {
      "hash": "0x1c959e336857e3625dd64ee34e9d844c519f8094f8f709530bfabd177832936f",
      "blockHash": "0x78c0afb0fc18615b5c0cc6f7d1a5408645700ee224eea63fdd050244daa46ef4",
      "blockNumber": 116829,
      "transactionIndex": 7,
      "confirmations": null,
      "from": "0xe6A7a1d47ff21B6321162AEA7C6CB457D5476Bca",
      "gasPrice": {
        "_hex": "0xba43b7400"
      },
      "gasLimit": {
        "_hex": "0x55f0"
      },
      "to": "0x463eADDDA71F29F36365F889EA7E6fcDBe1cF0c8",
      "value": {
        "_hex": "0x13936b9882dc42720"
      },
      "nonce": 5846,
      "data": "0x",
      "r": "0x44f96ca474d22d28f2ff8e8fc21340a75b457c7499133f3fa84e0cd4309590a6",
      "s": "0x5ac4fff6f12adef0debb6d6136c8a3041eab0a6bb896d54ba5d1eae2a0aab570",
      "v": 27,
      "creates": null,
      "raw": "0xf86f8216d6850ba43b74008255f094463eaddda71f29f36365f889ea7e6fcdbe1cf0c889013936b9882dc42720801ba044f96ca474d22d28f2ff8e8fc21340a75b457c7499133f3fa84e0cd4309590a6a05ac4fff6f12adef0debb6d6136c8a3041eab0a6bb896d54ba5d1eae2a0aab570",
      "networkId": 0,
      "chainId": 0
    },
    {
      "hash": "0xfb68748ea78fe3908e061ebeda8ef11a7740bc760ac25bede2740ecddc2c13e2",
      "blockHash": "0x78c0afb0fc18615b5c0cc6f7d1a5408645700ee224eea63fdd050244daa46ef4",
      "blockNumber": 116829,
      "transactionIndex": 8,
      "confirmations": null,
      "from": "0xe6A7a1d47ff21B6321162AEA7C6CB457D5476Bca",
      "gasPrice": {
        "_hex": "0xba43b7400"
      },
      "gasLimit": {
        "_hex": "0x55f0"
      },
      "to": "0x3222BA3F3e79eA0e31467EEE7639B57923558cCD",
      "value": {
        "_hex": "0x13ea46180b82ea0f8"
      },
      "nonce": 5847,
      "data": "0x",
      "r": "0xf6222ce0f01bf48a1074e8f021fa7f57926c7369704d447c6d5959ac7bc70c65",
      "s": "0x04627ce9e9271b1ea5377624719c90936d7d8bd01107a840757f331516c858ec",
      "v": 27,
      "creates": null,
      "raw": "0xf86f8216d7850ba43b74008255f0943222ba3f3e79ea0e31467eee7639b57923558ccd89013ea46180b82ea0f8801ba0f6222ce0f01bf48a1074e8f021fa7f57926c7369704d447c6d5959ac7bc70c65a004627ce9e9271b1ea5377624719c90936d7d8bd01107a840757f331516c858ec",
      "networkId": 0,
      "chainId": 0
    },
    {
      "hash": "0x4cf866d83bb5561cacbfdb9a3d546b2fadd40d9485b7562d4d52504155be2ce3",
      "blockHash": "0x78c0afb0fc18615b5c0cc6f7d1a5408645700ee224eea63fdd050244daa46ef4",
      "blockNumber": 116829,
      "transactionIndex": 9,
      "confirmations": null,
      "from": "0xe6A7a1d47ff21B6321162AEA7C6CB457D5476Bca",
      "gasPrice": {
        "_hex": "0xba43b7400"
      },
      "gasLimit": {
        "_hex": "0x55f0"
      },
      "to": "0x853Bff007d269E0526E871360d79d69D602770dc",
      "value": {
        "_hex": "0x1430208d5d1b79fa8"
      },
      "nonce": 5848,
      "data": "0x",
      "r": "0x087901ca890ce662efef3a5c8c7424b9b911bcaf0c373fddbacd389362301d06",
      "s": "0x3072d75cbac378b4d85ba107b016bca7a1167f82af427411b2389bec37dea9f7",
      "v": 28,
      "creates": null,
      "raw": "0xf86f8216d8850ba43b74008255f094853bff007d269e0526e871360d79d69d602770dc8901430208d5d1b79fa8801ca0087901ca890ce662efef3a5c8c7424b9b911bcaf0c373fddbacd389362301d06a03072d75cbac378b4d85ba107b016bca7a1167f82af427411b2389bec37dea9f7",
      "networkId": 0,
      "chainId": 0
    },
    {
      "hash": "0x62535d2384a23f2af09e8cf86c47c0bde718783e01a98995149b1601409a9373",
      "blockHash": "0x78c0afb0fc18615b5c0cc6f7d1a5408645700ee224eea63fdd050244daa46ef4",
      "blockNumber": 116829,
      "transactionIndex": 10,
      "confirmations": null,
      "from": "0xe6A7a1d47ff21B6321162AEA7C6CB457D5476Bca",
      "gasPrice": {
        "_hex": "0xba43b7400"
      },
      "gasLimit": {
        "_hex": "0x55f0"
      },
      "to": "0x182c02d431a667bF08d1BB680306aB6feC4971e5",
      "value": {
        "_hex": "0x1461a05d9af7de610"
      },
      "nonce": 5849,
      "data": "0x",
      "r": "0x41752a6b70fc2f365dc8b1c7a034148ec73ef8d59ddaaeb4932434c9dc8cb6b1",
      "s": "0x0828aec969e023db989247756e79c2fb9ae8257052b542089c63e2f5968f50c5",
      "v": 28,
      "creates": null,
      "raw": "0xf86f8216d9850ba43b74008255f094182c02d431a667bf08d1bb680306ab6fec4971e58901461a05d9af7de610801ca041752a6b70fc2f365dc8b1c7a034148ec73ef8d59ddaaeb4932434c9dc8cb6b1a00828aec969e023db989247756e79c2fb9ae8257052b542089c63e2f5968f50c5",
      "networkId": 0,
      "chainId": 0
    },
    {
      "hash": "0x16b89d33bef59447b9825989121603e9ec1de7b4a40a815fc552c73de4b1977a",
      "blockHash": "0x78c0afb0fc18615b5c0cc6f7d1a5408645700ee224eea63fdd050244daa46ef4",
      "blockNumber": 116829,
      "transactionIndex": 11,
      "confirmations": null,
      "from": "0xe6A7a1d47ff21B6321162AEA7C6CB457D5476Bca",
      "gasPrice": {
        "_hex": "0xba43b7400"
      },
      "gasLimit": {
        "_hex": "0x55f0"
      },
      "to": "0x46b92ea5c3E696bf123354DfCc564cbac1C90671",
      "value": {
        "_hex": "0x14bf68861edeeaf00"
      },
      "nonce": 5850,
      "data": "0x",
      "r": "0xc1ed9bfae4d191cae584af6a6016f940bf4ae08429153691c8dcb7f9d57ff27d",
      "s": "0x15cf62cfac63860b15617d906538769fdb73cdd235a3a83ed9a67fa51dd2e0d6",
      "v": 28,
      "creates": null,
      "raw": "0xf86f8216da850ba43b74008255f09446b92ea5c3e696bf123354dfcc564cbac1c9067189014bf68861edeeaf00801ca0c1ed9bfae4d191cae584af6a6016f940bf4ae08429153691c8dcb7f9d57ff27da015cf62cfac63860b15617d906538769fdb73cdd235a3a83ed9a67fa51dd2e0d6",
      "networkId": 0,
      "chainId": 0
    },
    {
      "hash": "0xfd6f8bf5d90e0dbe24b87f8a2794da57f65dcbf961f495a747bee79b7f78f7b8",
      "blockHash": "0x78c0afb0fc18615b5c0cc6f7d1a5408645700ee224eea63fdd050244daa46ef4",
      "blockNumber": 116829,
      "transactionIndex": 12,
      "confirmations": null,
      "from": "0xe6A7a1d47ff21B6321162AEA7C6CB457D5476Bca",
      "gasPrice": {
        "_hex": "0xba43b7400"
      },
      "gasLimit": {
        "_hex": "0x55f0"
      },
      "to": "0xdc41BFACFAaF8B0F0949aB5A3f18f47063Ae62fB",
      "value": {
        "_hex": "0x152464cb6cc506158"
      },
      "nonce": 5851,
      "data": "0x",
      "r": "0x00248339caa76841c6481550d27cf2d7ad2b63bd4eb4c5153a95ade4711306d8",
      "s": "0x27961e95596b337b0dffe2c88fc9d9b3d2bf15e5333e2845081d6bebb6ee5209",
      "v": 28,
      "creates": null,
      "raw": "0xf86e8216db850ba43b74008255f094dc41bfacfaaf8b0f0949ab5a3f18f47063ae62fb890152464cb6cc506158801c9f248339caa76841c6481550d27cf2d7ad2b63bd4eb4c5153a95ade4711306d8a027961e95596b337b0dffe2c88fc9d9b3d2bf15e5333e2845081d6bebb6ee5209",
      "networkId": 0,
      "chainId": 0
    },
    {
      "hash": "0xfd56f40f013502a141c1e8d09e6fa6ba67c364181238546edbf4b5f76af44e21",
      "blockHash": "0x78c0afb0fc18615b5c0cc6f7d1a5408645700ee224eea63fdd050244daa46ef4",
      "blockNumber": 116829,
      "transactionIndex": 13,
      "confirmations": null,
      "from": "0xe6A7a1d47ff21B6321162AEA7C6CB457D5476Bca",
      "gasPrice": {
        "_hex": "0xba43b7400"
      },
      "gasLimit": {
        "_hex": "0x55f0"
      },
      "to": "0x3629B45bBf972aDc23C064D31B7d7c6ce17415D5",
      "value": {
        "_hex": "0x15c49d8910f0ce340"
      },
      "nonce": 5852,
      "data": "0x",
      "r": "0x798dc6fda540983724163f47fc0d114aadf67adf06100dcb8137eb8af0c89d0f",
      "s": "0x7b104db80667908e9f64253a6a7d96fa575fa4bf01f2e51cbf7900a76238f30f",
      "v": 28,
      "creates": null,
      "raw": "0xf86f8216dc850ba43b74008255f0943629b45bbf972adc23c064d31b7d7c6ce17415d589015c49d8910f0ce340801ca0798dc6fda540983724163f47fc0d114aadf67adf06100dcb8137eb8af0c89d0fa07b104db80667908e9f64253a6a7d96fa575fa4bf01f2e51cbf7900a76238f30f",
      "networkId": 0,
      "chainId": 0
    },
    {
      "hash": "0xbb2684dde870af1ab2c976ac018727d2b6d496fea838e7f0ff70784340224b42",
      "blockHash": "0x78c0afb0fc18615b5c0cc6f7d1a5408645700ee224eea63fdd050244daa46ef4",
      "blockNumber": 116829,
      "transactionIndex": 14,
      "confirmations": null,
      "from": "0xe6A7a1d47ff21B6321162AEA7C6CB457D5476Bca",
      "gasPrice": {
        "_hex": "0xba43b7400"
      },
      "gasLimit": {
        "_hex": "0x55f0"
      },
      "to": "0xf5695Ae85aB4f83A5f859c4c691ce7CEf32b708B",
      "value": {
        "_hex": "0x15f0fa965512d4e00"
      },
      "nonce": 5853,
      "data": "0x",
      "r": "0xc5d84ce4633d66673a25e385524ac6e9cc7e3517e25d08ea763d77da2a9e74fd",
      "s": "0x35da0addcefb5450ae6d6b47ecccc1c67065b476af1b0748174cdee4f8ca0435",
      "v": 28,
      "creates": null,
      "raw": "0xf86f8216dd850ba43b74008255f094f5695ae85ab4f83a5f859c4c691ce7cef32b708b89015f0fa965512d4e00801ca0c5d84ce4633d66673a25e385524ac6e9cc7e3517e25d08ea763d77da2a9e74fda035da0addcefb5450ae6d6b47ecccc1c67065b476af1b0748174cdee4f8ca0435",
      "networkId": 0,
      "chainId": 0
    },
    {
      "hash": "0x6e3f49d286aedc1dd9512977a97a74f4af68d35473fa7d125d55cde5d71382fb",
      "blockHash": "0x78c0afb0fc18615b5c0cc6f7d1a5408645700ee224eea63fdd050244daa46ef4",
      "blockNumber": 116829,
      "transactionIndex": 15,
      "confirmations": null,
      "from": "0xe6A7a1d47ff21B6321162AEA7C6CB457D5476Bca",
      "gasPrice": {
        "_hex": "0xba43b7400"
      },
      "gasLimit": {
        "_hex": "0x55f0"
      },
      "to": "0xBFa71Aba804c2b986D969E175aCFdAC7266CDe9C",
      "value": {
        "_hex": "0x1630102ef8b6dc0a8"
      },
      "nonce": 5854,
      "data": "0x",
      "r": "0x0ff482e1006c4f1d2682fae0c67e0e8ceae78d3a0791c97756ee378bdddc9be4",
      "s": "0x0be271d356e2caa5b541fcb743940bef2dbf966845999d82b134c31658c2cadb",
      "v": 27,
      "creates": null,
      "raw": "0xf86f8216de850ba43b74008255f094bfa71aba804c2b986d969e175acfdac7266cde9c8901630102ef8b6dc0a8801ba00ff482e1006c4f1d2682fae0c67e0e8ceae78d3a0791c97756ee378bdddc9be4a00be271d356e2caa5b541fcb743940bef2dbf966845999d82b134c31658c2cadb",
      "networkId": 0,
      "chainId": 0
    },
    {
      "hash": "0xc137e99a0675d5a73d6c19430e85107aee01f62fea68ca9e38f83b9591197403",
      "blockHash": "0x78c0afb0fc18615b5c0cc6f7d1a5408645700ee224eea63fdd050244daa46ef4",
      "blockNumber": 116829,
      "transactionIndex": 16,
      "confirmations": null,
      "from": "0xe6A7a1d47ff21B6321162AEA7C6CB457D5476Bca",
      "gasPrice": {
        "_hex": "0xba43b7400"
      },
      "gasLimit": {
        "_hex": "0x55f0"
      },
      "to": "0x9746c7e1ef2bd21FF3997fa467593a89cb852BD0",
      "value": {
        "_hex": "0x16b4bd3f7ee5ac180"
      },
      "nonce": 5855,
      "data": "0x",
      "r": "0xe73eff5dbf31a4a5dc20d01b5a49308520bcee3e7fd1662e9c3926c5a6450242",
      "s": "0x1d005fb58ef680dee07b50647bdf9b7c536bf80192d606babf394bc77cece2e2",
      "v": 27,
      "creates": null,
      "raw": "0xf86f8216df850ba43b74008255f0949746c7e1ef2bd21ff3997fa467593a89cb852bd089016b4bd3f7ee5ac180801ba0e73eff5dbf31a4a5dc20d01b5a49308520bcee3e7fd1662e9c3926c5a6450242a01d005fb58ef680dee07b50647bdf9b7c536bf80192d606babf394bc77cece2e2",
      "networkId": 0,
      "chainId": 0
    },
    {
      "hash": "0x35413e745bee8cb258aaea42454a50a67b20327f5210837c191c03ba83c73d19",
      "blockHash": "0x78c0afb0fc18615b5c0cc6f7d1a5408645700ee224eea63fdd050244daa46ef4",
      "blockNumber": 116829,
      "transactionIndex": 17,
      "confirmations": null,
      "from": "0xe6A7a1d47ff21B6321162AEA7C6CB457D5476Bca",
      "gasPrice": {
        "_hex": "0xba43b7400"
      },
      "gasLimit": {
        "_hex": "0x55f0"
      },
      "to": "0x63738Ec4C9adec404749B5747F3bbE2147de632F",
      "value": {
        "_hex": "0x16f45b97d43f0e0d0"
      },
      "nonce": 5856,
      "data": "0x",
      "r": "0xa8f56bde9f04ea4f4881febe816da93cd60e5761fe18052d6f0efd6e22df7f7b",
      "s": "0x63420884d62a6be124993292d32937b4f06767a5010720092051f028025ac017",
      "v": 27,
      "creates": null,
      "raw": "0xf86f8216e0850ba43b74008255f09463738ec4c9adec404749b5747f3bbe2147de632f89016f45b97d43f0e0d0801ba0a8f56bde9f04ea4f4881febe816da93cd60e5761fe18052d6f0efd6e22df7f7ba063420884d62a6be124993292d32937b4f06767a5010720092051f028025ac017",
      "networkId": 0,
      "chainId": 0
    },
    {
      "hash": "0xd0b9ee8ca9df32b792c94a5df8563d8f6e13fef783877935a0ca014109ff93c4",
      "blockHash": "0x78c0afb0fc18615b5c0cc6f7d1a5408645700ee224eea63fdd050244daa46ef4",
      "blockNumber": 116829,
      "transactionIndex": 18,
      "confirmations": null,
      "from": "0xe6A7a1d47ff21B6321162AEA7C6CB457D5476Bca",
      "gasPrice": {
        "_hex": "0xba43b7400"
      },
      "gasLimit": {
        "_hex": "0x55f0"
      },
      "to": "0x40dDAE161B79aaebeb68187233fe59bd3B1c2db2",
      "value": {
        "_hex": "0x1879325a938bef1e0"
      },
      "nonce": 5857,
      "data": "0x",
      "r": "0xde670879eff6a35eb3677aeec98ed9f42c104e8b248d1c1006d9f1abbc3ec69f",
      "s": "0x24891cbbc992807cdd6b08b4c765ccebceff02d7e165005210d86cfd7bf41650",
      "v": 28,
      "creates": null,
      "raw": "0xf86f8216e1850ba43b74008255f09440ddae161b79aaebeb68187233fe59bd3b1c2db28901879325a938bef1e0801ca0de670879eff6a35eb3677aeec98ed9f42c104e8b248d1c1006d9f1abbc3ec69fa024891cbbc992807cdd6b08b4c765ccebceff02d7e165005210d86cfd7bf41650",
      "networkId": 0,
      "chainId": 0
    },
    {
      "hash": "0x6678d5a32a80dae158d98ac9b22213128acab9d872b2837bcca28a84e26aa50c",
      "blockHash": "0x78c0afb0fc18615b5c0cc6f7d1a5408645700ee224eea63fdd050244daa46ef4",
      "blockNumber": 116829,
      "transactionIndex": 19,
      "confirmations": null,
      "from": "0xe6A7a1d47ff21B6321162AEA7C6CB457D5476Bca",
      "gasPrice": {
        "_hex": "0xba43b7400"
      },
      "gasLimit": {
        "_hex": "0x55f0"
      },
      "to": "0xB28fE7b9815982FF203F751ce550111D752d8795",
      "value": {
        "_hex": "0x19c1b2ad934d3d100"
      },
      "nonce": 5858,
      "data": "0x",
      "r": "0x0f2d7b486daffccf5c6e7c43ae919d2a4f59ce54f66f66f9960c65fcad39ffaf",
      "s": "0x3e59bb9623b8e33be8d73d99a129d27546892d92618fcdd454aacfcbc1adfddf",
      "v": 28,
      "creates": null,
      "raw": "0xf86f8216e2850ba43b74008255f094b28fe7b9815982ff203f751ce550111d752d879589019c1b2ad934d3d100801ca00f2d7b486daffccf5c6e7c43ae919d2a4f59ce54f66f66f9960c65fcad39ffafa03e59bb9623b8e33be8d73d99a129d27546892d92618fcdd454aacfcbc1adfddf",
      "networkId": 0,
      "chainId": 0
    },
    {
      "hash": "0x83abdb5899ca95ff95563326ef717730de1818fc01872bdd2d04bbfe1eea4b64",
      "blockHash": "0x78c0afb0fc18615b5c0cc6f7d1a5408645700ee224eea63fdd050244daa46ef4",
      "blockNumber": 116829,
      "transactionIndex": 20,
      "confirmations": null,
      "from": "0xe6A7a1d47ff21B6321162AEA7C6CB457D5476Bca",
      "gasPrice": {
        "_hex": "0xba43b7400"
      },
      "gasLimit": {
        "_hex": "0x55f0"
      },
      "to": "0xa6BDc31c431B8F97848c9D60cbbe9660dc450eB7",
      "value": {
        "_hex": "0x1c54ee253616d5018"
      },
      "nonce": 5859,
      "data": "0x",
      "r": "0x815c62a3ac26066e491d701ac0fab1a251511c885331f8ae641510c1f9e4db74",
      "s": "0x237886b780f164d136e00e1a15f3b1ec43910af31a2bd36b336f2943e332d55b",
      "v": 28,
      "creates": null,
      "raw": "0xf86f8216e3850ba43b74008255f094a6bdc31c431b8f97848c9d60cbbe9660dc450eb78901c54ee253616d5018801ca0815c62a3ac26066e491d701ac0fab1a251511c885331f8ae641510c1f9e4db74a0237886b780f164d136e00e1a15f3b1ec43910af31a2bd36b336f2943e332d55b",
      "networkId": 0,
      "chainId": 0
    },
    {
      "hash": "0xb70ec920e752ae0f44f983b97493e98c3873f67a5f264e8caa0284f04c86fd94",
      "blockHash": "0x78c0afb0fc18615b5c0cc6f7d1a5408645700ee224eea63fdd050244daa46ef4",
      "blockNumber": 116829,
      "transactionIndex": 21,
      "confirmations": null,
      "from": "0xe6A7a1d47ff21B6321162AEA7C6CB457D5476Bca",
      "gasPrice": {
        "_hex": "0xba43b7400"
      },
      "gasLimit": {
        "_hex": "0x55f0"
      },
      "to": "0x379965B927911bcF18D2d4F062Edf10c45847069",
      "value": {
        "_hex": "0x1cc92cfa939011040"
      },
      "nonce": 5860,
      "data": "0x",
      "r": "0xbb0f010a17e158ef9d191631ae5e67b688427db17e6005f4c10ff6677195ed03",
      "s": "0x007db234ee5a258d36cd477effce3f3d2f52284a40cf4f8a42ce4790f76439d5",
      "v": 27,
      "creates": null,
      "raw": "0xf86e8216e4850ba43b74008255f094379965b927911bcf18d2d4f062edf10c458470698901cc92cfa939011040801ba0bb0f010a17e158ef9d191631ae5e67b688427db17e6005f4c10ff6677195ed039f7db234ee5a258d36cd477effce3f3d2f52284a40cf4f8a42ce4790f76439d5",
      "networkId": 0,
      "chainId": 0
    },
    {
      "hash": "0x95046949026db71178b03644a32f2111ac20e72c9b03fb4bedea28624f1ea04c",
      "blockHash": "0x78c0afb0fc18615b5c0cc6f7d1a5408645700ee224eea63fdd050244daa46ef4",
      "blockNumber": 116829,
      "transactionIndex": 22,
      "confirmations": null,
      "from": "0xe6A7a1d47ff21B6321162AEA7C6CB457D5476Bca",
      "gasPrice": {
        "_hex": "0xba43b7400"
      },
      "gasLimit": {
        "_hex": "0x55f0"
      },
      "to": "0xeDbc07d54406D3B56bdaeADEEa788b9721f779ba",
      "value": {
        "_hex": "0x1e5c950e128dc7110"
      },
      "nonce": 5861,
      "data": "0x",
      "r": "0x24ae406345cc7677b91ec5ea17dfb0c898d0fa58d9f9c95e0cab70e00748cd94",
      "s": "0x22aba3dfe2aa984995f15f53ff4b40de9bfaa975ec017682fd9ababdb4cb56a8",
      "v": 28,
      "creates": null,
      "raw": "0xf86f8216e5850ba43b74008255f094edbc07d54406d3b56bdaeadeea788b9721f779ba8901e5c950e128dc7110801ca024ae406345cc7677b91ec5ea17dfb0c898d0fa58d9f9c95e0cab70e00748cd94a022aba3dfe2aa984995f15f53ff4b40de9bfaa975ec017682fd9ababdb4cb56a8",
      "networkId": 0,
      "chainId": 0
    }
  ]
}