{
  "hash": "0xc1bfbb7139957f0b395cfbeaf67e59dbe894feda26302ccf233a32baf0e0c8d4",
  "parentHash": "0xedd5cc36144917dd0048f4f25c0513ad24b4ed4ac930ca3a8bfbe661e945aba6",
  "number": 90903,
  "timestamp": 1439647263,
  "nonce": "0x4b117dddc9ef0755",
  "difficulty": 3405663806716,
  "gasLimit": {
    "_hex": "0x2fefd8"
  },
  "gasUsed": {
    "_hex": "0x5208"
  },
  "miner": "0xf927a40C8B7F6E07c5af7FA2155B4864a4112B13",
  "extraData": "0x",
  "transactions": [
    {
      "hash": "0xc3dde91522d1c01cdbe674d505d588179c7f8eb64e5a46da34b36f5d35812410",
      "blockHash": "0xc1bfbb7139957f0b395cfbeaf67e59dbe894feda26302ccf233a32baf0e0c8d4",
      "blockNumber": 90903,
      "transactionIndex": 0,
      "confirmations": null,
      "from": "0x32Be343B94f860124dC4fEe278FDCBD38C102D88",
      "gasPrice": {
        "_hex": "0xcb0eb057b"
      },
      "gasLimit": {
        "_hex": "0x5208"
      },
      "to": "0x910560734C1155e546d762CB1C5e1669E798AEb4",
      "value": {
        "_hex": "0x36a9ecca6472c0000"
      },
      "nonce": 866,
      "data": "0x",
      "r": "0x3d26f4e17655f378ca99314049bfec29e5444f506c2d713dc5ee0b517afa9fc0",
      "s": "0x47f9628f16abfa10df496edb6e64a97e74ecdc421a56a2090aa71f0aa7766be1",
      "v": 28,
      "creates": null,
      "raw": "0xf86f820362850cb0eb057b82520894910560734c1155e546d762cb1c5e1669e798aeb489036a9ecca6472c0000801ca03d26f4e17655f378ca99314049bfec29e5444f506c2d713dc5ee0b517afa9fc0a047f9628f16abfa10df496edb6e64a97e74ecdc421a56a2090aa71f0aa7766be1",
      "networkId": 0,
      "chainId": 0
    }
  ]
}