{
  "hash": "0x119da7860e13ec4a7df5f08242fb3e7be45162c1a082fe9dc9fb4982be78e190",
  "parentHash": "0xab83508dfed3aedbe4d631a365b58025b56a48da82d9cfe40ce91694b4e81e79",
  "number": 62440,
  "timestamp": 1439188711,
  "nonce": "0xd201b6a8295933f7",
  "difficulty": 1766790996347,
  "gasLimit": {
    "_hex": "0x2fefd8"
  },
  "gasUsed": {
    "_hex": "0x5208"
  },
  "miner": "0xf927a40C8B7F6E07c5af7FA2155B4864a4112B13",
  "extraData": "0x476574682f76312e302e312f6c696e75782f676f312e342e32",
  "transactions": [
    {
      "hash": "0xa75daa65c4d4429b3fde1e18f20e5288db218af1224c07830b647e08f3f71fa1",
      "blockHash": "0x119da7860e13ec4a7df5f08242fb3e7be45162c1a082fe9dc9fb4982be78e190",
      "blockNumber": 62440,
      "transactionIndex": 0,
      "confirmations": null,
      "from": "0xE2beA3e7d349ab64EBD9873418e78912e13CD35f",
      "gasPrice": {
        "_hex": "0xce9a3111f"
      },
      "gasLimit": {
        "_hex": "0x15f90"
      },
      "to": "0x06896c6bb7e0Ac7C620Ee36A74D298B4786F1872",
      "value": {
        "_hex": "0xde0b6b3a7640000"
      },
      "nonce": 19,
      "data": "0x",
      "r": "0xffa94e773630a9a3f7ddefae030ff35b80de10d7c06253b285de163c60763cd4",
      "s": "0x48ca69206e7d060c921d14dd17c6176ccb282bc11b5e746931ad4fb5ef2a4894",
      "v": 28,
      "creates": null,
      "raw": "0xf86d13850ce9a3111f83015f909406896c6bb7e0ac7c620ee36a74d298b4786f1872880de0b6b3a7640000801ca0ffa94e773630a9a3f7ddefae030ff35b80de10d7c06253b285de163c60763cd4a048ca69206e7d060c921d14dd17c6176ccb282bc11b5e746931ad4fb5ef2a4894",
      "networkId": 0,
      "chainId": 0
    }
  ]
}