{
  "hash": "0x4ab2d381b2b8c88b9620b5d9a900857d8a10186f20cd38ff626b3bcf43504d17",
  "parentHash": "0x47bfe0035313c22d722118e8ed17847973b32ef748c6a6b485b48baaf57324a9",
  "number": 90152,
  "timestamp": 1439635479,
  "nonce": "0xbb21e6d64bb6d391",
  "difficulty": 3306017321377,
  "gasLimit": {
    "_hex": "0x2fefd8"
  },
  "gasUsed": {
    "_hex": "0xf618"
  },
  "miner": "0xe6A7a1d47ff21B6321162AEA7C6CB457D5476Bca",
  "extraData": "0x476574682f76312e302e312d38326566323666362f6c696e75782f676f312e34",
  "transactions": [
    {
      "hash": "0x99b8b3a66fcf3fde42fd4077b4a04f562313e1ec5c3a075da96eb4a8a7b6c7da",
      "blockHash": "0x4ab2d381b2b8c88b9620b5d9a900857d8a10186f20cd38ff626b3bcf43504d17",
      "blockNumber": 90152,
      "transactionIndex": 0,
      "confirmations": null,
      "from": "0x1151790FE5F7C3113dfb07Dc3914B1916EcC8a7A",
      "gasPrice": {
        "_hex": "0xdcbcc4e18"
      },
      "gasLimit": {
        "_hex": "0x5208"
      },
      "to": "0x32Be343B94f860124dC4fEe278FDCBD38C102D88",
      "value": {
        "_hex": "0x3469bb4591cadc00"
      },
      "nonce": 1,
      "data": "0x",
      "r": "0x4e970349b16a669ad56e48789b0dab73df5d6482bcf9210fde8c03ab9d31fab9",
      "s": "0x48956c47fc90164a36131b313d26e128fe64314bd43f1448252aa62b6e347d60",
      "v": 28,
      "creates": null,
      "raw": "0xf86c01850dcbcc4e188252089432be343b94f860124dc4fee278fdcbd38c102d88883469bb4591cadc00801ca04e970349b16a669ad56e48789b0dab73df5d6482bcf9210fde8c03ab9d31fab9a048956c47fc90164a36131b313d26e128fe64314bd43f1448252aa62b6e347d60",
      "networkId": 0,
      "chainId": 0
    },
    {
      "hash": "0xefb4a7f9000a81c24d56d570488d658a6a1a989c9638a2af6858beea68b85a11",
      "blockHash": "0x4ab2d381b2b8c88b9620b5d9a900857d8a10186f20cd38ff626b3bcf43504d17",
      "blockNumber": 90152,
      "transactionIndex": 1,
      "confirmations": null,
      "from": "0xE9820EfC74A9fe5fb68bf1e0FBf9945c1302bC0B",
      "gasPrice": {
        "_hex": "0xdcbcc4e18"
      },
      "gasLimit": {
        "_hex": "0x5208"
      },
      "to": "0x32Be343B94f860124dC4fEe278FDCBD38C102D88",
      "value": {
        "_hex": "0x455f302112159c00"
      },
      "nonce": 1,
      "data": "0x",
      "r": "0x82d3e98d08436a5f4c82e6c693f353d4ccc046aada4f619e643b330a97c799f2",
      "s": "0x610e11c07cae184e55e2de5ca20b4ebbf9f133b5c3bf99c0102d7f4dddfec6e0",
      "v": 28,
      "creates": null,
      "raw": "0xf86c01850dcbcc4e188252089432be343b94f860124dc4fee278fdcbd38c102d8888455f302112159c00801ca082d3e98d08436a5f4c82e6c693f353d4ccc046aada4f619e643b330a97c799f2a0610e11c07cae184e55e2de5ca20b4ebbf9f133b5c3bf99c0102d7f4dddfec6e0",
      "networkId": 0,
      "chainId": 0
    },
    {
      "hash": "0x3371f227eaf9ebeeee7924e9a070cc54c4af6890b5b8e81bd7070ab89d5d26f1",
      "blockHash": "0x4ab2d381b2b8c88b9620b5d9a900857d8a10186f20cd38ff626b3bcf43504d17",
      "blockNumber": 90152,
      "transactionIndex": 2,
      "confirmations": null,
      "from": "0x11AA265966dFdDfDC4fA42a83C305f6EcbE9588a",
      "gasPrice": {
        "_hex": "0xdcbcc4e18"
      },
      "gasLimit": {
        "_hex": "0x5208"
      },
      "to": "0x32Be343B94f860124dC4fEe278FDCBD38C102D88",
      "value": {
        "_hex": "0x4135608289821800"
      },
      "nonce": 2,
      "data": "0x",
      "r": "0x5d36a88b7e80bce54016449fad2938694e4cf2fb8d0db09a492c210b2de8be2d",
      "s": "0x498c50d0cbd4499b8da5a6540df9de906a58c92b9f984b7254f6973f36a35b0c",
      "v": 27,
      "creates": null,
      "raw": "0xf86c02850dcbcc4e188252089432be343b94f860124dc4fee278fdcbd38c102d88884135608289821800801ba05d36a88b7e80bce54016449fad2938694e4cf2fb8d0db09a492c210b2de8be2da0498c50d0cbd4499b8da5a6540df9de906a58c92b9f984b7254f6973f36a35b0c",
      "networkId": 0,
      "chainId": 0
    }
  ]
}