{
  "hash": "0xb9505057d3c9c6033b5554411a3df23ac7b2031dc1361db87096f81696777c82",
  "parentHash": "0xcba716d4644fdc5d57655908dbeeae9361020fcebb0dc84944f490df90472534",
  "number": 110122,
  "timestamp": 1439968443,
  "nonce": "0x870187308579ba22",
  "difficulty": 4382166947737,
  "gasLimit": {
    "_hex": "0x2fefd8"
  },
  "gasUsed": {
    "_hex": "0x5208"
  },
  "miner": "0xe6A7a1d47ff21B6321162AEA7C6CB457D5476Bca",
  "extraData": "0x476574682f76312e302e312d38326566323666362f6c696e75782f676f312e34",
  "transactions": [
    {
      "hash": "0x38c7c331aa4f130cf2e88c25597937dabbcf165442b31eff66ec36a87c5d5c3b",
      "blockHash": "0xb9505057d3c9c6033b5554411a3df23ac7b2031dc1361db87096f81696777c82",
      "blockNumber": 110122,
      "transactionIndex": 0,
      "confirmations": null,
      "from": "0xa6BDc31c431B8F97848c9D60cbbe9660dc450eB7",
      "gasPrice": {
        "_hex": "0xd911c6728"
      },
      "gasLimit": {
        "_hex": "0x5208"
      },
      "to": "0x32Be343B94f860124dC4fEe278FDCBD38C102D88",
      "value": {
        "_hex": "0x455f389b0d5fac00"
      },
      "nonce": 191,
      "data": "0x",
      "r": "0x403e8636f70e0503040c0830f8a7e57e38d9698959f4d2ca2bb7c8194434a3a1",
      "s": "0x23eb0a22ebe4e3411c308b47b491c28133469cf48f7dbaa2d06dd7f24185b3b0",
      "v": 28,
      "creates": null,
      "raw": "0xf86d81bf850d911c67288252089432be343b94f860124dc4fee278fdcbd38c102d8888455f389b0d5fac00801ca0403e8636f70e0503040c0830f8a7e57e38d9698959f4d2ca2bb7c8194434a3a1a023eb0a22ebe4e3411c308b47b491c28133469cf48f7dbaa2d06dd7f24185b3b0",
      "networkId": 0,
      "chainId": 0
    }
  ]
}