{
  "hash": "0x15ac790b5ac0fcb3f5d65175c9d0aeffc302ef1d21b7034b6f72403fae30a8eb",
  "parentHash": "0x3214cde9ded0d36b39c04cc612d0b0be3b9f8f516016c4af93bb6b8a1ed1b59a",
  "number": 66834,
  "timestamp": 1439261019,
  "nonce": "0x5ea80a9a9b35906b",
  "difficulty": 1952727365722,
  "gasLimit": {
    "_hex": "0x2fefd8"
  },
  "gasUsed": {
    "_hex": "0x5208"
  },
  "miner": "0x49B89158a25D2Bf1E2c4B08f28b35935C1C27A0f",
  "extraData": "0x476574682f76312e302e312f6c696e75782f676f312e342e32",
  "transactions": [
    {
      "hash": "0x157677f2b8651e97198df63cd2e789c80a1a884be1d9ff4b198d2c68111a5977",
      "blockHash": "0x15ac790b5ac0fcb3f5d65175c9d0aeffc302ef1d21b7034b6f72403fae30a8eb",
      "blockNumber": 66834,
      "transactionIndex": 0,
      "confirmations": null,
      "from": "0x74E0e6B292960B6aF6a5eB6596a26Daa9833fe03",
      "gasPrice": {
        "_hex": "0xdecfe451e"
      },
      "gasLimit": {
        "_hex": "0x15f90"
      },
      "to": "0x42979fca296FEA2C163EA66E1900acDe7886F86F",
      "value": {
        "_hex": "0x71afd498d0000"
      },
      "nonce": 1,
      "data": "0x",
      "r": "0x2ad0c00985f86490865093ed1c1faa8b53b182007082fff32609ad911550ca32",
      "s": "0x353cff674c432989974c6c965abe05266d2cf58baa7e05a501e1dd6df935a85d",
      "v": 27,
      "creates": null,
      "raw": "0xf86c01850decfe451e83015f909442979fca296fea2c163ea66e1900acde7886f86f87071afd498d0000801ba02ad0c00985f86490865093ed1c1faa8b53b182007082fff32609ad911550ca32a0353cff674c432989974c6c965abe05266d2cf58baa7e05a501e1dd6df935a85d",
      "networkId": 0,
      "chainId": 0
    }
  ]
}