{
  "hash": "0x3b3d44b1a50c626cf6938713f9406c7be0e1ef8b475468e029586d4e40eea5bf",
  "parentHash": "0x34406dc1ad80b461daee4077dc5c5708c837401e7fb4c69129ae3689a0b9f819",
  "number": 46782,
  "timestamp": 1438929054,
  "nonce": "0x483c14a7dde58f5f",
  "difficulty": 1460309874921,
  "gasLimit": {
    "_hex": "0x7840"
  },
  "gasUsed": {
    "_hex": "0x5208"
  },
  "miner": "0xf8E0CA3Ed80bd541b94BEdCf259e8CF2141A9523",
  "extraData": "0x476574682f76312e302e312f77696e646f77732f676f312e342e32",
  "transactions": [
    {
      "hash": "0x84aca5b58970908c5e45382e1c12f224bd2731b754fa4eab04916d93bc42f616",
      "blockHash": "0x3b3d44b1a50c626cf6938713f9406c7be0e1ef8b475468e029586d4e40eea5bf",
      "blockNumber": 46782,
      "transactionIndex": 0,
      "confirmations": null,
      "from": "0x439632734cdF5a84774156c1938CbeDe2eF398F0",
      "gasPrice": {
        "_hex": "0xcccaa8bf4"
      },
      "gasLimit": {
        "_hex": "0x5208"
      },
      "to": "0x32Be343B94f860124dC4fEe278FDCBD38C102D88",
      "value": {
        "_hex": "0x10f0cec4ae857000000"
      },
      "nonce": 1,
      "data": "0x",
      "r": "0x19c5112e65dc873b30fd9e155a9910f8d6888001904a6dd47a82ddb14e9c983b",
      "s": "0x1d83cfff2a74e8f51406316260affceb86bb4cbd80cbd13d000353ef6f78e0e8",
      "v": 27,
      "creates": null,
      "raw": "0xf86e01850cccaa8bf48252089432be343b94f860124dc4fee278fdcbd38c102d888a010f0cec4ae857000000801ba019c5112e65dc873b30fd9e155a9910f8d6888001904a6dd47a82ddb14e9c983ba01d83cfff2a74e8f51406316260affceb86bb4cbd80cbd13d000353ef6f78e0e8",
      "networkId": 0,
      "chainId": 0
    }
  ]
}