{
  "hash": "0x7c6c3ec3d7c8a3d9b57ce8a571f6b81056eab102148e8085632b3106a0743745",
  "parentHash": "0x4e104203527e1d5ec61e294b2a5b352f6d66a995367b0c16d997ccaf2ba2f5a3",
  "number": 86017,
  "timestamp": 1439572304,
  "nonce": "0xdc0b6bd0b5c0b36f",
  "difficulty": 2786678645137,
  "gasLimit": {
    "_hex": "0x2fefd8"
  },
  "gasUsed": {
    "_hex": "0xa410"
  },
  "miner": "0x007f7f58D3eb5b7510A301eCC749FC1fCDDBE14D",
  "extraData": "0x476574682f76312e302e312f77696e646f77732f676f312e342e32",
  "transactions": [
    {
      "hash": "0x28a2a2899852f826aa8449823c3a16b1aa677e84a244b642ee4caadb005e9fdd",
      "blockHash": "0x7c6c3ec3d7c8a3d9b57ce8a571f6b81056eab102148e8085632b3106a0743745",
      "blockNumber": 86017,
      "transactionIndex": 0,
      "confirmations": null,
      "from": "0x2910543Af39abA0Cd09dBb2D50200b3E800A63D2",
      "gasPrice": {
        "_hex": "0xd9d7dd6f5"
      },
      "gasLimit": {
        "_hex": "0x5208"
      },
      "to": "0xddE59cc89c492e09fA53898E268719B4fea02FAB",
      "value": {
        "_hex": "0x1a3509e8abd769b8000"
      },
      "nonce": 635,
      "data": "0x",
      "r": "0x97930fc4fe848ca84b75bc620a40146e480ba9006bf0bfaa48decb53799cc86f",
      "s": "0x2df8dacc205a47a98e62ff33431d5aa226540e511e9551cf91305870f797c16e",
      "v": 27,
      "creates": null,
      "raw": "0xf87082027b850d9d7dd6f582520894dde59cc89c492e09fa53898e268719b4fea02fab8a01a3509e8abd769b8000801ba097930fc4fe848ca84b75bc620a40146e480ba9006bf0bfaa48decb53799cc86fa02df8dacc205a47a98e62ff33431d5aa226540e511e9551cf91305870f797c16e",
      "networkId": 0,
      "chainId": 0
    },
    {
      "hash": "0xab9231d9c10b2d154fbaf1d3f42a589c24bf074b3e71d549b75dd55ad214c122",
      "blockHash": "0x7c6c3ec3d7c8a3d9b57ce8a571f6b81056eab102148e8085632b3106a0743745",
      "blockNumber": 86017,
      "transactionIndex": 1,
      "confirmations": null,
      "from": "0x2910543Af39abA0Cd09dBb2D50200b3E800A63D2",
      "gasPrice": {
        "_hex": "0xd9d7dd6f5"
      },
      "gasLimit": {
        "_hex": "0x5208"
      },
      "to": "0xFb89b8778d254A66A7FE21Ca8C9F095375D497f4",
      "value": {
        "_hex": "0xad77cf8e18e3f8000"
      },
      "nonce": 636,
      "data": "0x",
      "r": "0x2f5a6056edabcb54ae0b4ab4189f7ccb57de9cf1377bb976777d19cb1a713254",
      "s": "0x7feb5cbaf203e085a47506981ad6db52a706ad00650d0e5b75db68d240a08fbc",
      "v": 28,
      "creates": null,
      "raw": "0xf86f82027c850d9d7dd6f582520894fb89b8778d254a66a7fe21ca8c9f095375d497f4890ad77cf8e18e3f8000801ca02f5a6056edabcb54ae0b4ab4189f7ccb57de9cf1377bb976777d19cb1a713254a07feb5cbaf203e085a47506981ad6db52a706ad00650d0e5b75db68d240a08fbc",
      "networkId": 0,
      "chainId": 0
    }
  ]
}