{
  "hash": "0x4c3c02624c2ff9de950167cde241a188abb41d7547155530afc4fd9c4f367e60",
  "parentHash": "0x2b01c0e54997b8f568b117a017c141a3d3fe68b97371a9922673052b215cc8f3",
  "number": 104856,
  "timestamp": 1439876993,
  "nonce": "0x5f2c1580e9d0cd90",
  "difficulty": 4346548283025,
  "gasLimit": {
    "_hex": "0x2fefd8"
  },
  "gasUsed": {
    "_hex": "0x5208"
  },
  "miner": "0xe6A7a1d47ff21B6321162AEA7C6CB457D5476Bca",
  "extraData": "0x476574682f76312e302e312d38326566323666362f6c696e75782f676f312e34",
  "transactions": [
    {
      "hash": "0xfc06f09cc09b042ff750e953f5132fa12fb50c55647ecbcf71666c02e0ab4a84",
      "blockHash": "0x4c3c02624c2ff9de950167cde241a188abb41d7547155530afc4fd9c4f367e60",
      "blockNumber": 104856,
      "transactionIndex": 0,
      "confirmations": null,
      "from": "0xa70a9a7040d542C632D8e0bE7c5513A8a5Bbc752",
      "gasPrice": {
        "_hex": "0xd909859a3"
      },
      "gasLimit": {
        "_hex": "0x5208"
      },
      "to": "0x32Be343B94f860124dC4fEe278FDCBD38C102D88",
      "value": {
        "_hex": "0x455f38c4f635b400"
      },
      "nonce": 238,
      "data": "0x",
      "r": "0x0c4652c9b603d665859301387eb16e8ee913a7526a2d41fef957564fddff478a",
      "s": "0x137878c8a00c1cef720aa3235a02403a6c3585f0199de4298ef246c86bf04f70",
      "v": 28,
      "creates": null,
      "raw": "0xf86d81ee850d909859a38252089432be343b94f860124dc4fee278fdcbd38c102d8888455f38c4f635b400801ca00c4652c9b603d665859301387eb16e8ee913a7526a2d41fef957564fddff478aa0137878c8a00c1cef720aa3235a02403a6c3585f0199de4298ef246c86bf04f70",
      "networkId": 0,
      "chainId": 0
    }
  ]
}