{
  "hash": "0xd0fe99c767af001a18e8c8be61ffebeeb272dab07d19bf576d4e2f762a5735eb",
  "parentHash": "0x4a545568171f3c59e3e907a00d22743a66dba95beee54e1093aacfa302e95329",
  "number": 96001,
  "timestamp": 1439733439,
  "nonce": "0xfb189129f1427fe5",
  "difficulty": 3616038255331,
  "gasLimit": {
    "_hex": "0x2fefd8"
  },
  "gasUsed": {
    "_hex": "0x5208"
  },
  "miner": "0x9Fa9952255B2b06639A04D63804d4BdFFf6E2d7e",
  "extraData": "0x476574682f76312e302e312f77696e646f77732f676f312e342e32",
  "transactions": [
    {
      "hash": "0xdc8da047bb578ace4ec21e7d283f168b2efdc25aa495c556dc317d91859d401d",
      "blockHash": "0xd0fe99c767af001a18e8c8be61ffebeeb272dab07d19bf576d4e2f762a5735eb",
      "blockNumber": 96001,
      "transactionIndex": 0,
      "confirmations": null,
      "from": "0xA61A4A69dcB2D8C74BdeCd17AD5821Adc21E95ec",
      "gasPrice": {
        "_hex": "0xd29c7516b"
      },
      "gasLimit": {
        "_hex": "0x5208"
      },
      "to": "0x32Be343B94f860124dC4fEe278FDCBD38C102D88",
      "value": {
        "_hex": "0x453bd2c3a6b08c00"
      },
      "nonce": 0,
      "data": "0x",
      "r": "0xb713e96372c89b87cfc94b34784cb8d9ca00fe2bfd4d49d21aa0c3d72840a28e",
      "s": "0x39181fe3c2eed6c09b53766a9e36bccf43534fedaf716dda9546d86b60faae61",
      "v": 28,
      "creates": null,
      "raw": "0xf86c80850d29c7516b8252089432be343b94f860124dc4fee278fdcbd38c102d8888453bd2c3a6b08c00801ca0b713e96372c89b87cfc94b34784cb8d9ca00fe2bfd4d49d21aa0c3d72840a28ea039181fe3c2eed6c09b53766a9e36bccf43534fedaf716dda9546d86b60faae61",
      "networkId": 0,
      "chainId": 0
    }
  ]
}