{
  "hash": "0x0c2dbcda204d150a97920839b374e4c73f0e1e6e5b41aaff599035773a2242a0",
  "parentHash": "0x6a60b3703e7dfdc7b16e9d3c05d84450f4f84f4e44238c174fbee454bd7bcbad",
  "number": 116360,
  "timestamp": 1440072902,
  "nonce": "0xc22b70248c1f7258",
  "difficulty": 4598029491038,
  "gasLimit": {
    "_hex": "0x2fefd8"
  },
  "gasUsed": {
    "_hex": "0x546c"
  },
  "miner": "0xD6e6b0E55C9b50F68269e40E31f8Ce7a8B43f9fC",
  "extraData": "0x476574682f76312e302e312f77696e646f77732f676f312e342e32",
  "transactions": [
    {
      "hash": "0x5dd91f83e640dd61828886306f3a9d1fdaf9e36444dc5b8fa5ea99f982514b32",
      "blockHash": "0x0c2dbcda204d150a97920839b374e4c73f0e1e6e5b41aaff599035773a2242a0",
      "blockNumber": 116360,
      "transactionIndex": 0,
      "confirmations": null,
      "from": "0x58E554Af3d87629620Da61d538c7f5B4b54c4Afe",
      "gasPrice": {
        "_hex": "0x110c8f7d8de"
      },
      "gasLimit": {
        "_hex": "0xc350"
      },
      "to": "0x2910543Af39abA0Cd09dBb2D50200b3E800A63D2",
      "value": {
        "_hex": "0x464f7da43311a40000"
      },
      "nonce": 0,
      "data": "0x454e46453039413652",
      "r": "0x9558a671d007a3668665e11e5ae9f0835ea06c2b6023f17392b489224c9dafcb",
      "s": "0xd98cdc2813add2b93652e2541376a28906f27bad3fa97d3d4a4fec50d1588c76",
      "v": 27,
      "creates": null,
      "raw": "0xf87780860110c8f7d8de82c350942910543af39aba0cd09dbb2d50200b3e800a63d289464f7da43311a4000089454e464530394136521ba09558a671d007a3668665e11e5ae9f0835ea06c2b6023f17392b489224c9dafcba0d98cdc2813add2b93652e2541376a28906f27bad3fa97d3d4a4fec50d1588c76",
      "networkId": 0,
      "chainId": 0
    }
  ]
}