{
  "hash": "0x79d8e332a70ee0ed55dc40d3583ad309edd54cd125e6e772d17a16aaa5b6521e",
  "parentHash": "0xd885d158d9b0c024fa32067197253894a419de4375c81ce015e4cc00620685cc",
  "number": 70671,
  "timestamp": 1439323634,
  "nonce": "0x22aa20da1bfa47ed",
  "difficulty": 2140532868299,
  "gasLimit": {
    "_hex": "0x2fefd8"
  },
  "gasUsed": {
    "_hex": "0x5208"
  },
  "miner": "0x7E6930B63D03e88F5928C5cd6ee3FCee4D714F7F",
  "extraData": "0x",
  "transactions": [
    {
      "hash": "0x825fdbb461f0043dad0ff1a63e247d21c06358f7d41c3e8fec4c309f94c7ad6d",
      "blockHash": "0x79d8e332a70ee0ed55dc40d3583ad309edd54cd125e6e772d17a16aaa5b6521e",
      "blockNumber": 70671,
      "transactionIndex": 0,
      "confirmations": null,
      "from": "0x1BD0c80210852114476EE06F10C72E29D4B614Ae",
      "gasPrice": {
        "_hex": "0xcb64530ca"
      },
      "gasLimit": {
        "_hex": "0x15f90"
      },
      "to": "0xc597A5d92F5dC1137D847db733cfe02c6d209f13",
      "value": {
        "_hex": "0x29af27a83d5e1ab28"
      },
      "nonce": 1,
      "data": "0x",
      "r": "0x3bcd6c41a8892a3bcf27fb41e2c446cce9ee6b683ef31b4c9609be9fa33ddde1",
      "s": "0x2d39367f2e861ac8e32d7b12dbeb70481912a2ba1404209e68d76ba26087fb62",
      "v": 28,
      "creates": null,
      "raw": "0xf86e01850cb64530ca83015f9094c597a5d92f5dc1137d847db733cfe02c6d209f1389029af27a83d5e1ab28801ca03bcd6c41a8892a3bcf27fb41e2c446cce9ee6b683ef31b4c9609be9fa33ddde1a02d39367f2e861ac8e32d7b12dbeb70481912a2ba1404209e68d76ba26087fb62",
      "networkId": 0,
      "chainId": 0
    }
  ]
}