{
  "hash": "0x5d040d3e57fc5ee75b2a064d60bce125d196a23295373f63040766b686573867",
  "parentHash": "0x78649594013a4772b7c8add1dbb64b73a166c2890a29c960d24e1cc8a0e0a7d4",
  "number": 47373,
  "timestamp": 1438939116,
  "nonce": "0x4014de6acb631cb6",
  "difficulty": 1452385111323,
  "gasLimit": {
    "_hex": "0xb675"
  },
  "gasUsed": {
    "_hex": "0xa410"
  },
  "miner": "0xbb7B8287f3F0a933474a79eAe42CBCa977791171",
  "extraData": "0x476574682f4c5649562f76312e302e312f6c696e75782f676f312e342e32",
  "transactions": [
    {
      "hash": "0x2381e5a294c64a3f3d79d76216621af855fa0dfcda5142ddc183f65536ab6eac",
      "blockHash": "0x5d040d3e57fc5ee75b2a064d60bce125d196a23295373f63040766b686573867",
      "blockNumber": 47373,
      "transactionIndex": 0,
      "confirmations": null,
      "from": "0x0cDA12BF72d461BBc479eB92e6491d057e6B5Ad1",
      "gasPrice": {
        "_hex": "0x68c6171400"
      },
      "gasLimit": {
        "_hex": "0x55f0"
      },
      "to": "0x4268d004Ac6Eb1B221706FdfC46Ce51Bc0c2c871",
      "value": {
        "_hex": "0x2386f26fc10000"
      },
      "nonce": 9,
      "data": "0x",
      "r": "0xc135c6bad933d5ca3fdbb8f863a5f41a41e3e671a5e7988a78dbc143a3266c22",
      "s": "0x04b35714b19ac1ccf61dea101f9f30be59ee9d504c4933fe7d2385f91cf6dd40",
      "v": 27,
      "creates": null,
      "raw": "0xf86b098568c61714008255f0944268d004ac6eb1b221706fdfc46ce51bc0c2c871872386f26fc10000801ba0c135c6bad933d5ca3fdbb8f863a5f41a41e3e671a5e7988a78dbc143a3266c22a004b35714b19ac1ccf61dea101f9f30be59ee9d504c4933fe7d2385f91cf6dd40",
      "networkId": 0,
      "chainId": 0
    },
    {
      "hash": "0x830062ab68bb8f1ff8295dcf1735634c2b4b3e30346ff84c012366a73faeece3",
      "blockHash": "0x5d040d3e57fc5ee75b2a064d60bce125d196a23295373f63040766b686573867",
      "blockNumber": 47373,
      "transactionIndex": 1,
      "confirmations": null,
      "from": "0xe6A7a1d47ff21B6321162AEA7C6CB457D5476Bca",
      "gasPrice": {
        "_hex": "0x1d16ecbcde"
      },
      "gasLimit": {
        "_hex": "0x5208"
      },
      "to": "0xA80A8ecbF729C98404eE20b39945Ad8DEBd08C61",
      "value": {
        "_hex": "0x1142785863ff54b50"
      },
      "nonce": 128,
      "data": "0x",
      "r": "0xbc44e6d0fa59a86c93811e270fb51a69816d43dac6a2064ad8a6be176ca06c68",
      "s": "0x4c71a6343ed89486de9f19609fdf3363769e7639cb8248f17db9e8e618eb78be",
      "v": 27,
      "creates": null,
      "raw": "0xf86e8180851d16ecbcde82520894a80a8ecbf729c98404ee20b39945ad8debd08c618901142785863ff54b50801ba0bc44e6d0fa59a86c93811e270fb51a69816d43dac6a2064ad8a6be176ca06c68a04c71a6343ed89486de9f19609fdf3363769e7639cb8248f17db9e8e618eb78be",
      "networkId": 0,
      "chainId": 0
    }
  ]
}