{
  "hash": "0xbc05fe9e77a67e1bc980b26802e578764eaad8bc6dcd930cb1ea0b052a52ed61",
  "parentHash": "0x414b47faeaee41631bf1cd4ce7f0e3b2786a80b1c0041ef674b304ae59ea377e",
  "number": 52576,
  "timestamp": 1439023801,
  "nonce": "0x6a7792ebe84f4959",
  "difficulty": 1567131731213,
  "gasLimit": {
    "_hex": "0x15ba22"
  },
  "gasUsed": {
    "_hex": "0xf4240"
  },
  "miner": "0xB57a69A9cFD1BC39510a70Ab14De3BDa11d1dF70",
  "extraData": "0x476574682f76312e302e312f6c696e75782f676f312e342e32",
  "transactions": [
    {
      "hash": "0xf6d15cbf0b084311fd9826e7ba956f14a2f9ddca56b24f645183444780cd4eda",
      "blockHash": "0xbc05fe9e77a67e1bc980b26802e578764eaad8bc6dcd930cb1ea0b052a52ed61",
      "blockNumber": 52576,
      "transactionIndex": 0,
      "confirmations": null,
      "from": "0x54dAeb3E8a6BBC797E4aD2b0339f134b186e4637",
      "gasPrice": {
        "_hex": "0xdf4ba21f9"
      },
      "gasLimit": {
        "_hex": "0x7a120"
      },
      "to": "0xBAA54d6E90c3F4d7Ebec11bD180134C7eD8eBb52",
      "value": {
        "_hex": "0x16345785d8a0000"
      },
      "nonce": 749,
      "data": "0x",
      "r": "0xbafda8c179b8bd20826c3b855d3eabfd91931c04323e8b5079db91f530a44fd4",
      "s": "0x470e072494c145577893f1bca253d599157cd52d19a46a498fdd6d5f32a94816",
      "v": 27,
      "creates": null,
      "raw": "0xf86f8202ed850df4ba21f98307a12094baa54d6e90c3f4d7ebec11bd180134c7ed8ebb5288016345785d8a0000801ba0bafda8c179b8bd20826c3b855d3eabfd91931c04323e8b5079db91f530a44fd4a0470e072494c145577893f1bca253d599157cd52d19a46a498fdd6d5f32a94816",
      "networkId": 0,
      "chainId": 0
    },
    {
      "hash": "0xce1f6be0d456046f0e3d9a24ae566120bcea5053e891d373350e5703b6c3b821",
      "blockHash": "0xbc05fe9e77a67e1bc980b26802e578764eaad8bc6dcd930cb1ea0b052a52ed61",
      "blockNumber": 52576,
      "transactionIndex": 1,
      "confirmations": null,
      "from": "0x54dAeb3E8a6BBC797E4aD2b0339f134b186e4637",
      "gasPrice": {
        "_hex": "0xdf4ba21f9"
      },
      "gasLimit": {
        "_hex": "0x7a120"
      },
      "to": "0xBAA54d6E90c3F4d7Ebec11bD180134C7eD8eBb52",
      "value": {
        "_hex": "0x16345785d8a0000"
      },
      "nonce": 750,
      "data": "0x",
      "r": "0x4ae44c558d6001b86bc3729335167562025a1da143738cbd5210a851ceb86151",
      "s": "0x38cf25a75f5094e744b9e84e61dbb5a4305e16f873613ba4aa58e117c7ec2fcd",
      "v": 27,
      "creates": null,
      "raw": "0xf86f8202ee850df4ba21f98307a12094baa54d6e90c3f4d7ebec11bd180134c7ed8ebb5288016345785d8a0000801ba04ae44c558d6001b86bc3729335167562025a1da143738cbd5210a851ceb86151a038cf25a75f5094e744b9e84e61dbb5a4305e16f873613ba4aa58e117c7ec2fcd",
      "networkId": 0,
      "chainId": 0
    }
  ]
}