{
  "hash": "0xbd0d9c9f46d1887991cde8d5edc8044b116ed37cbe1e63167413fcfa38b0c229",
  "parentHash": "0x012ce32b7b9c47441395f2dbef3ce84f38c49a56eb19c31c08fb8d624890b4cf",
  "number": 104899,
  "timestamp": 1439877989,
  "nonce": "0x6a154da7fa17e5bd",
  "difficulty": 4335927309210,
  "gasLimit": {
    "_hex": "0x2fefd8"
  },
  "gasUsed": {
    "_hex": "0xa410"
  },
  "miner": "0xe6A7a1d47ff21B6321162AEA7C6CB457D5476Bca",
  "extraData": "0x476574682f76312e302e312d38326566323666362f6c696e75782f676f312e34",
  "transactions": [
    {
      "hash": "0x46b50991a21e7be55d0b4f0dba0b5589d08419015eee02e475b28ca4eacc5613",
      "blockHash": "0xbd0d9c9f46d1887991cde8d5edc8044b116ed37cbe1e63167413fcfa38b0c229",
      "blockNumber": 104899,
      "transactionIndex": 0,
      "confirmations": null,
      "from": "0x58850Ab9442C06379DfFBf52e3EAA035f5D5E092",
      "gasPrice": {
        "_hex": "0x1066e9dc2f2"
      },
      "gasLimit": {
        "_hex": "0x15f90"
      },
      "to": "0x576F13DdEd1f2AD6B9D55EE8A1B67815ee7C92d9",
      "value": {
        "_hex": "0x1158e460913d00000"
      },
      "nonce": 0,
      "data": "0x",
      "r": "0xbd355b006c8cece5f2eab4ff895ee3f7e1ec87ee0c863871a858b65287e44f8a",
      "s": "0x39643461c99e570250af2b2dc3e07b4309cc31c4528ccd042d21b8caacbc5966",
      "v": 28,
      "creates": null,
      "raw": "0xf86f808601066e9dc2f283015f9094576f13dded1f2ad6b9d55ee8a1b67815ee7c92d98901158e460913d00000801ca0bd355b006c8cece5f2eab4ff895ee3f7e1ec87ee0c863871a858b65287e44f8aa039643461c99e570250af2b2dc3e07b4309cc31c4528ccd042d21b8caacbc5966",
      "networkId": 0,
      "chainId": 0
    },
    {
      "hash": "0x673027374f6099c2ffe52297857426fc6c5736e1717e36b6235717004111b684",
      "blockHash": "0xbd0d9c9f46d1887991cde8d5edc8044b116ed37cbe1e63167413fcfa38b0c229",
      "blockNumber": 104899,
      "transactionIndex": 1,
      "confirmations": null,
      "from": "0xaA35779Ef4dfBEd0B3D6F46F5f11cb86261B17A5",
      "gasPrice": {
        "_hex": "0xd7d40ace3"
      },
      "gasLimit": {
        "_hex": "0x61a8"
      },
      "to": "0x30beD8049947963394D93412326225E4e3123601",
      "value": {
        "_hex": "0x1236efcbcbb340000"
      },
      "nonce": 13,
      "data": "0x",
      "r": "0xda3a761c751556bbe86c148a69d0d55f7c077b769b239bce0a0b21fda27fb429",
      "s": "0x2cc60784dfc25d29d1131e62f05ad6d9ba108f8f9576f41cd8a97da95b8ed333",
      "v": 28,
      "creates": null,
      "raw": "0xf86d0d850d7d40ace38261a89430bed8049947963394d93412326225e4e31236018901236efcbcbb340000801ca0da3a761c751556bbe86c148a69d0d55f7c077b769b239bce0a0b21fda27fb429a02cc60784dfc25d29d1131e62f05ad6d9ba108f8f9576f41cd8a97da95b8ed333",
      "networkId": 0,
      "chainId": 0
    }
  ]
}