{
  "hash": "0xdeadfe86acbaff976b0eaacc1ec9b54afa80009fbf5970ad6f77f9afcd967b1f",
  "parentHash": "0xef38b1c7b581a4396113528b18a700698dc7f0a49d63e5df3d95e58aaa5f8fbb",
  "number": 119709,
  "timestamp": 1440147517,
  "nonce": "0xc1e67218fe1acf15",
  "difficulty": 4392148206997,
  "gasLimit": {
    "_hex": "0x2fefd8"
  },
  "gasUsed": {
    "_hex": "0x5208"
  },
  "miner": "0x55bAf64fc9eAccFFd7Cc643BB61142E1C6ac093e",
  "extraData": "0x",
  "transactions": [
    {
      "hash": "0x74ab7e1e857310bdafda1bd68774598e6074587ebd0d546970895214651d23af",
      "blockHash": "0xdeadfe86acbaff976b0eaacc1ec9b54afa80009fbf5970ad6f77f9afcd967b1f",
      "blockNumber": 119709,
      "transactionIndex": 0,
      "confirmations": null,
      "from": "0x5175f107219871c88e0C4202F14A5f34088b54c8",
      "gasPrice": {
        "_hex": "0x746a528800"
      },
      "gasLimit": {
        "_hex": "0x5b04"
      },
      "to": "0x90fba3C13F19F8cf72A3Bb9EE63C8f728F548654",
      "value": {
        "_hex": "0x4eafe2f584770000"
      },
      "nonce": 11,
      "data": "0x",
      "r": "0x796c10c614ba3a7eb1366681eaec90fa29a0aa40e9423743b84d2f923db7eff2",
      "s": "0x202095fe43c6954bfaf2fa17766e7b798cc818b2e8c3e19c12ae8de274b646a9",
      "v": 28,
      "creates": null,
      "raw": "0xf86c0b85746a528800825b049490fba3c13f19f8cf72a3bb9ee63c8f728f548654884eafe2f584770000801ca0796c10c614ba3a7eb1366681eaec90fa29a0aa40e9423743b84d2f923db7eff2a0202095fe43c6954bfaf2fa17766e7b798cc818b2e8c3e19c12ae8de274b646a9",
      "networkId": 0,
      "chainId": 0
    }
  ]
}