{
  "hash": "0x5c884d16e6622a8ebbb076263d8c2843662e08e8d3194a6b9914a7c82323a00c",
  "parentHash": "0xa4551a3a4ea070de5ad4cfae7b6ebed490288c9919026591141d83424742f53d",
  "number": 108833,
  "timestamp": 1439946878,
  "nonce": "0x0ad7b311d55caf6f",
  "difficulty": 4376424889874,
  "gasLimit": {
    "_hex": "0x2fefd8"
  },
  "gasUsed": {
    "_hex": "0x5208"
  },
  "miner": "0x33F36DffD23cf019833E1d59cBc7138824b12289",
  "extraData": "0xda8098302e392e34302b2b302d524c696e75782f672b2b2f696e74",
  "transactions": [
    {
      "hash": "0x015f4666e1c1374c65fb104419a5a09fd4fc9954cf39ac40482279d61f62ef83",
      "blockHash": "0x5c884d16e6622a8ebbb076263d8c2843662e08e8d3194a6b9914a7c82323a00c",
      "blockNumber": 108833,
      "transactionIndex": 0,
      "confirmations": null,
      "from": "0x5d4Ee23e18ec9ded020B58e37C2184Ce48Ac5959",
      "gasPrice": {
        "_hex": "0xd641f460d"
      },
      "gasLimit": {
        "_hex": "0x15f90"
      },
      "to": "0x5d4Ee23e18ec9ded020B58e37C2184Ce48Ac5959",
      "value": {
        "_hex": "0x38d7ea4c68000"
      },
      "nonce": 0,
      "data": "0x",
      "r": "0xd7bc578ab0a4d5770bcd77215fbb6bb5dbc29ca295a9b2fad7f53c5baf62a153",
      "s": "0x2c9d4a74c69cd5e5078ba38198afb1c2ddb134fdac6042122d42da5553d5d1bf",
      "v": 27,
      "creates": null,
      "raw": "0xf86c80850d641f460d83015f90945d4ee23e18ec9ded020b58e37c2184ce48ac595987038d7ea4c68000801ba0d7bc578ab0a4d5770bcd77215fbb6bb5dbc29ca295a9b2fad7f53c5baf62a153a02c9d4a74c69cd5e5078ba38198afb1c2ddb134fdac6042122d42da5553d5d1bf",
      "networkId": 0,
      "chainId": 0
    }
  ]
}