{
  "hash": "0x8f1a00688d234778d82502982c835eabedda73421c6df1e85bdb808d6c7067df",
  "parentHash": "0x2d763d390c589ac704c00a1a7e4a04f39979fff797281af5beffacbc51e2897b",
  "number": 78237,
  "timestamp": 1439450724,
  "nonce": "0x57e6bcfac4f6acc4",
  "difficulty": 2283210478158,
  "gasLimit": {
    "_hex": "0x2fefd8"
  },
  "gasUsed": {
    "_hex": "0x5208"
  },
  "miner": "0xe6A7a1d47ff21B6321162AEA7C6CB457D5476Bca",
  "extraData": "0x476574682f76312e302e312d38326566323666362f6c696e75782f676f312e34",
  "transactions": [
    {
      "hash": "0x17db1f12077cd128854810d4f5b6047daa0a15506612ea33bea4ce12b9a56f4a",
      "blockHash": "0x8f1a00688d234778d82502982c835eabedda73421c6df1e85bdb808d6c7067df",
      "blockNumber": 78237,
      "transactionIndex": 0,
      "confirmations": null,
      "from": "0xc2E9e042B88164B5408bd895Df7DdaD491c6321E",
      "gasPrice": {
        "_hex": "0xd8364fc25"
      },
      "gasLimit": {
        "_hex": "0x15f90"
      },
      "to": "0xa114c802ef29776f05f9c6925cE915232e8ae102",
      "value": {
        "_hex": "0xde0b6b3a7640000"
      },
      "nonce": 10,
      "data": "0x",
      "r": "0x5df1989d9b6c14d22ec3c86c0fa1445f386ea9037d97f74a9c546c098018ea7f",
      "s": "0x0197b373e89a9800202909b48e90773888e4498a9b4d72b6844c4352c064184b",
      "v": 27,
      "creates": null,
      "raw": "0xf86d0a850d8364fc2583015f9094a114c802ef29776f05f9c6925ce915232e8ae102880de0b6b3a7640000801ba05df1989d9b6c14d22ec3c86c0fa1445f386ea9037d97f74a9c546c098018ea7fa00197b373e89a9800202909b48e90773888e4498a9b4d72b6844c4352c064184b",
      "networkId": 0,
      "chainId": 0
    }
  ]
}