{
  "hash": "0xe8f6a4c1a78b4d592324c8b02c7c652220fd1582edde4e7b8578c09451b46b63",
  "parentHash": "0x24c151279498e9f944a5e78dadf336bd528608eb5061c41b9ce8863657944776",
  "number": 89832,
  "timestamp": 1439629791,
  "nonce": "0x409ae0271cdddd22",
  "difficulty": 3345115214104,
  "gasLimit": {
    "_hex": "0x2fefd8"
  },
  "gasUsed": {
    "_hex": "0xf618"
  },
  "miner": "0xe6A7a1d47ff21B6321162AEA7C6CB457D5476Bca",
  "extraData": "0x476574682f76312e302e312d38326566323666362f6c696e75782f676f312e34",
  "transactions": [
    {
      "hash": "0x3d3e907ec1c78021a6e2d95c76dac2e9acd37cc7c6b8cad016a92a5817309fb1",
      "blockHash": "0xe8f6a4c1a78b4d592324c8b02c7c652220fd1582edde4e7b8578c09451b46b63",
      "blockNumber": 89832,
      "transactionIndex": 0,
      "confirmations": null,
      "from": "0xeD3Fe86896534C24D9F91232faE34b78DFf3c1f4",
      "gasPrice": {
        "_hex": "0xdeb5c67de"
      },
      "gasLimit": {
        "_hex": "0x5208"
      },
      "to": "0x32Be343B94f860124dC4fEe278FDCBD38C102D88",
      "value": {
        "_hex": "0xb6825ad6b0253800"
      },
      "nonce": 3,
      "data": "0x",
      "r": "0x66a944c944d0cb53bc42c3d6c2742b436c8d9074638dd9ca0ba5d9ea4ea1fbac",
      "s": "0x6c0c09eb1a42b3708b8a5aa6144afb57246c5ea71d7a45e268df83bd0246d1f8",
      "v": 27,
      "creates": null,
      "raw": "0xf86c03850deb5c67de8252089432be343b94f860124dc4fee278fdcbd38c102d8888b6825ad6b0253800801ba066a944c944d0cb53bc42c3d6c2742b436c8d9074638dd9ca0ba5d9ea4ea1fbaca06c0c09eb1a42b3708b8a5aa6144afb57246c5ea71d7a45e268df83bd0246d1f8",
      "networkId": 0,
      "chainId": 0
    },
    {
      "hash": "0xd51025463d7b1aff32d5e67c6ac4231b943bc4e17697866ed896b80e05e684b6",
      "blockHash": "0xe8f6a4c1a78b4d592324c8b02c7c652220fd1582edde4e7b8578c09451b46b63",
      "blockNumber": 89832,
      "transactionIndex": 1,
      "confirmations": null,
      "from": "0xcA422f88253D0492F13F304eBCF34892B3c07AEc",
      "gasPrice": {
        "_hex": "0xdeb5c67de"
      },
      "gasLimit": {
        "_hex": "0x5208"
      },
      "to": "0x32Be343B94f860124dC4fEe278FDCBD38C102D88",
      "value": {
        "_hex": "0x2105414198a7fa000"
      },
      "nonce": 2,
      "data": "0x",
      "r": "0xbc87eaed4e97543127133776e82bb249010e98cc22a5c8be0ef954aa1a0657e8",
      "s": "0x0c0d2fa68fd782d175e076dea0468210c58c44200d5f8277556b5e37b799e389",
      "v": 27,
      "creates": null,
      "raw": "0xf86d02850deb5c67de8252089432be343b94f860124dc4fee278fdcbd38c102d888902105414198a7fa000801ba0bc87eaed4e97543127133776e82bb249010e98cc22a5c8be0ef954aa1a0657e8a00c0d2fa68fd782d175e076dea0468210c58c44200d5f8277556b5e37b799e389",
      "networkId": 0,
      "chainId": 0
    },
    {
      "hash": "0x1ff2e1b62f3832aa0a1f955a1fbe0553ff63c8bc2655840abd98966cf38538a2",
      "blockHash": "0xe8f6a4c1a78b4d592324c8b02c7c652220fd1582edde4e7b8578c09451b46b63",
      "blockNumber": 89832,
      "transactionIndex": 2,
      "confirmations": null,
      "from": "0x5248EfBC7319bd65d436374266765D9727253F12",
      "gasPrice": {
        "_hex": "0xdeb5c67de"
      },
      "gasLimit": {
        "_hex": "0x5208"
      },
      "to": "0x32Be343B94f860124dC4fEe278FDCBD38C102D88",
      "value": {
        "_hex": "0x319ac4025fe918000"
      },
      "nonce": 6,
      "data": "0x",
      "r": "0x82e793072a66233e752f7712117ae3fd7983c1899bf393f18507773ba41cfc88",
      "s": "0x34a10011ab1d56c7aa7c8566d22ad4ab0658ba14fff60e1ac709e936c5da4760",
      "v": 28,
      "creates": null,
      "raw": "0xf86d06850deb5c67de8252089432be343b94f860124dc4fee278fdcbd38c102d88890319ac4025fe918000801ca082e793072a66233e752f7712117ae3fd7983c1899bf393f18507773ba41cfc88a034a10011ab1d56c7aa7c8566d22ad4ab0658ba14fff60e1ac709e936c5da4760",
      "networkId": 0,
      "chainId": 0
    }
  ]
}