{
  "hash": "0x0ed455d21dc309fdd82c030a70140d84895b78d77151c345fd6a7c22c2951f5d",
  "parentHash": "0x49195ee4ad9ee58aa78edd39e84661e9aa8362e5022236d51ce2b7724a08d596",
  "number": 66544,
  "timestamp": 1439256281,
  "nonce": "0x8abf4e9120b3e9cc",
  "difficulty": 1945181647713,
  "gasLimit": {
    "_hex": "0x2fefd8"
  },
  "gasUsed": {
    "_hex": "0x5208"
  },
  "miner": "0x52Dc504a422f0E2A9e7632A34a50f1a82F8224c7",
  "extraData": "0x476574682f76312e302e312f6c696e75782f676f312e342e32",
  "transactions": [
    {
      "hash": "0x528e62d9e450664a43d02815dc9940ec0edcc515059f5bc6e1fba5911603ce1f",
      "blockHash": "0x0ed455d21dc309fdd82c030a70140d84895b78d77151c345fd6a7c22c2951f5d",
      "blockNumber": 66544,
      "transactionIndex": 0,
      "confirmations": null,
      "from": "0x8F79f76381Aad7B98C19aF55eE75fdfEeb012211",
      "gasPrice": {
        "_hex": "0xd22a0f883"
      },
      "gasLimit": {
        "_hex": "0x5208"
      },
      "to": "0x32Be343B94f860124dC4fEe278FDCBD38C102D88",
      "value": {
        "_hex": "0x126e6e7118de020000"
      },
      "nonce": 3,
      "data": "0x",
      "r": "0xde159a601ca18e5be2e79622a4a05847e0e32b5ae874989643800fa4621bc87d",
      "s": "0x5687ef1950980b6c0ba9078917f56bd2ac793ccd7950bad317cffc18ac925004",
      "v": 28,
      "creates": null,
      "raw": "0xf86d03850d22a0f8838252089432be343b94f860124dc4fee278fdcbd38c102d8889126e6e7118de020000801ca0de159a601ca18e5be2e79622a4a05847e0e32b5ae874989643800fa4621bc87da05687ef1950980b6c0ba9078917f56bd2ac793ccd7950bad317cffc18ac925004",
      "networkId": 0,
      "chainId": 0
    }
  ]
}