{
  "hash": "0x1075c145a5d6f06bc9fccf1877238cb72caf27944aa20386b13f7bd8607abc83",
  "parentHash": "0x83cc2118aa40e2e6cd9a076ac60d1979283a594a3dfd3a77142850fee13799ae",
  "number": 53605,
  "timestamp": 1439040362,
  "nonce": "0x8a6d365bd95f4441",
  "difficulty": 1593948393597,
  "gasLimit": {
    "_hex": "0x2ccba4"
  },
  "gasUsed": {
    "_hex": "0x5208"
  },
  "miner": "0x356CEFb4Eb836DC68403308309E075a31DD991D2",
  "extraData": "0x476574682f76312e302e302f6c696e75782f676f312e342e32",
  "transactions": [
    {
      "hash": "0x82fe1f4de1d72237716fafba13546f5f1aa25a86a3608b374e17acf61843d607",
      "blockHash": "0x1075c145a5d6f06bc9fccf1877238cb72caf27944aa20386b13f7bd8607abc83",
      "blockNumber": 53605,
      "transactionIndex": 0,
      "confirmations": null,
      "from": "0x00bD7514616c0E4Dd28F5B351090ABAD03F104C8",
      "gasPrice": {
        "_hex": "0x10482393e26"
      },
      "gasLimit": {
        "_hex": "0x15f90"
      },
      "to": "0x00bD7514616c0E4Dd28F5B351090ABAD03F104C8",
      "value": {
        "_hex": "0xd529ae9e860000"
      },
      "nonce": 3,
      "data": "0x",
      "r": "0x10fbc7c5eda807a20185c151c723b3fd63e1b54c828dc144704d2912ef8d967d",
      "s": "0x259cbe26adab710bab18196e41f171daced7ec320d8dc7e3fc0c0f56dc8c691c",
      "v": 27,
      "creates": null,
      "raw": "0xf86d0386010482393e2683015f909400bd7514616c0e4dd28f5b351090abad03f104c887d529ae9e860000801ba010fbc7c5eda807a20185c151c723b3fd63e1b54c828dc144704d2912ef8d967da0259cbe26adab710bab18196e41f171daced7ec320d8dc7e3fc0c0f56dc8c691c",
      "networkId": 0,
      "chainId": 0
    }
  ]
}