{
  "hash": "0xb86aec4c96411b4ea58d0b04f069e113f560b366e30db1561e8b7d979ed62d3c",
  "parentHash": "0xa1f9fe640ee3146cff61a7b13f2c77c973c5b40f7f0b0e069b163ebe10d94da3",
  "number": 85062,
  "timestamp": 1439558040,
  "nonce": "0x893717e3d21a3a69",
  "difficulty": 2718450193388,
  "gasLimit": {
    "_hex": "0x2fefd8"
  },
  "gasUsed": {
    "_hex": "0xf618"
  },
  "miner": "0x60a175bB691fEE8557a7b6D8eFC9E49889486f41",
  "extraData": "0x476574682f76312e302e312f77696e646f77732f676f312e342e32",
  "transactions": [
    {
      "hash": "0x0fea35fdbf747bad2e63196a50c969ae5163deca7fbb9f4ff97d3841db3a4a8d",
      "blockHash": "0xb86aec4c96411b4ea58d0b04f069e113f560b366e30db1561e8b7d979ed62d3c",
      "blockNumber": 85062,
      "transactionIndex": 0,
      "confirmations": null,
      "from": "0xb81b17f58AE6eBbC0c104C748cA0EB9A18516820",
      "gasPrice": {
        "_hex": "0xd887ff8a0"
      },
      "gasLimit": {
        "_hex": "0x5208"
      },
      "to": "0x32Be343B94f860124dC4fEe278FDCBD38C102D88",
      "value": {
        "_hex": "0x39310ca3b36a380000"
      },
      "nonce": 1,
      "data": "0x",
      "r": "0xe41f31e7b8969b4f3ba8326b71cf6be38bc75710429f2007652e7d31c49bbdde",
      "s": "0x77fcce23edafbcd15bc6f25e162a2830c537d36cdf4c6f2eacbaefcf0a852f42",
      "v": 27,
      "creates": null,
      "raw": "0xf86d01850d887ff8a08252089432be343b94f860124dc4fee278fdcbd38c102d888939310ca3b36a380000801ba0e41f31e7b8969b4f3ba8326b71cf6be38bc75710429f2007652e7d31c49bbddea077fcce23edafbcd15bc6f25e162a2830c537d36cdf4c6f2eacbaefcf0a852f42",
      "networkId": 0,
      "chainId": 0
    },
    {
      "hash": "0x9d3165abb87210d65b70c1ed727e4de5cb5b8229e06e15f09061a18c5432319b",
      "blockHash": "0xb86aec4c96411b4ea58d0b04f069e113f560b366e30db1561e8b7d979ed62d3c",
      "blockNumber": 85062,
      "transactionIndex": 1,
      "confirmations": null,
      "from": "0xF87481A262E993a75F791E7859E71BaC36A606Eb",
      "gasPrice": {
        "_hex": "0xd887ff8a0"
      },
      "gasLimit": {
        "_hex": "0x5208"
      },
      "to": "0x32Be343B94f860124dC4fEe278FDCBD38C102D88",
      "value": {
        "_hex": "0x11589efe3564e8000"
      },
      "nonce": 22,
      "data": "0x",
      "r": "0xebd4d9bd4955722e049252975c076751eef270dc0c631aa256f56a73a90ec252",
      "s": "0x45b95ff6764c2c6f00bdb5b2e0515656edfbad13af6233278c8895645d39d47f",
      "v": 27,
      "creates": null,
      "raw": "0xf86d16850d887ff8a08252089432be343b94f860124dc4fee278fdcbd38c102d8889011589efe3564e8000801ba0ebd4d9bd4955722e049252975c076751eef270dc0c631aa256f56a73a90ec252a045b95ff6764c2c6f00bdb5b2e0515656edfbad13af6233278c8895645d39d47f",
      "networkId": 0,
      "chainId": 0
    },
    {
      "hash": "0xe5458e25ff3f46ac24516c6ef333eac536f6aa99548ccb8235c3a240eeabb77b",
      "blockHash": "0xb86aec4c96411b4ea58d0b04f069e113f560b366e30db1561e8b7d979ed62d3c",
      "blockNumber": 85062,
      "transactionIndex": 2,
      "confirmations": null,
      "from": "0x2910543Af39abA0Cd09dBb2D50200b3E800A63D2",
      "gasPrice": {
        "_hex": "0xcfafe900d"
      },
      "gasLimit": {
        "_hex": "0x5208"
      },
      "to": "0x765EeAAd1F3F92C0d5aC5361913D96e37ceaeE1A",
      "value": {
        "_hex": "0x43bd870b852266e000"
      },
      "nonce": 585,
      "data": "0x",
      "r": "0x91bd5df33c357e323108a8b44017e4b27112ef180482e51a4dcdfbbb8d799687",
      "s": "0x037d7f5269dd5922e43437323b386636d4dd6659675dc08b0f4768ec6bb1380e",
      "v": 27,
      "creates": null,
      "raw": "0xf86f820249850cfafe900d82520894765eeaad1f3f92c0d5ac5361913d96e37ceaee1a8943bd870b852266e000801ba091bd5df33c357e323108a8b44017e4b27112ef180482e51a4dcdfbbb8d799687a0037d7f5269dd5922e43437323b386636d4dd6659675dc08b0f4768ec6bb1380e",
      "networkId": 0,
      "chainId": 0
    }
  ]
}