{
  "hash": "0x87663d4c422cc68879162c32d446af515c4f3186299a6798e2a942247d8e06c7",
  "parentHash": "0xb06c81329996acf35277a54440d90657d225f13aa9381cdbc512d2d9477f0784",
  "number": 103265,
  "timestamp": 1439850329,
  "nonce": "0xc547411dac5151a8",
  "difficulty": 4195141877178,
  "gasLimit": {
    "_hex": "0x2fefd8"
  },
  "gasUsed": {
    "_hex": "0xa410"
  },
  "miner": "0xe6A7a1d47ff21B6321162AEA7C6CB457D5476Bca",
  "extraData": "0x476574682f76312e302e312d38326566323666362f6c696e75782f676f312e34",
  "transactions": [
    {
      "hash": "0x728e367cbcad6c9b92e3038338e9796224ec54c0bd6f56b11b634bc949e646ac",
      "blockHash": "0x87663d4c422cc68879162c32d446af515c4f3186299a6798e2a942247d8e06c7",
      "blockNumber": 103265,
      "transactionIndex": 0,
      "confirmations": null,
      "from": "0xee5379D0c1ca47327368027455074C26D9952628",
      "gasPrice": {
        "_hex": "0xdcdef49d6"
      },
      "gasLimit": {
        "_hex": "0x15f90"
      },
      "to": "0x569dD5Eb83f3CEc4AD32BbCF28b0d07A98704105",
      "value": {
        "_hex": "0x10e9deaaf401e0000"
      },
      "nonce": 17,
      "data": "0x",
      "r": "0xc789cd288736047a3a798075bd8e622033be6c65ede6d88db69fab213a34f328",
      "s": "0x719567390632bb23083953a79bea8432ed8428f0450900f2c0c6a66fb3f9df83",
      "v": 28,
      "creates": null,
      "raw": "0xf86e11850dcdef49d683015f9094569dd5eb83f3cec4ad32bbcf28b0d07a9870410589010e9deaaf401e0000801ca0c789cd288736047a3a798075bd8e622033be6c65ede6d88db69fab213a34f328a0719567390632bb23083953a79bea8432ed8428f0450900f2c0c6a66fb3f9df83",
      "networkId": 0,
      "chainId": 0
    },
    {
      "hash": "0x22fc9e3d0efc2b7d2ea697f2dca78c79832e7e49094df9923dc2be220ce08370",
      "blockHash": "0x87663d4c422cc68879162c32d446af515c4f3186299a6798e2a942247d8e06c7",
      "blockNumber": 103265,
      "transactionIndex": 1,
      "confirmations": null,
      "from": "0xC47Aaa860008be6f65B58c6C6E02a84e666EfE31",
      "gasPrice": {
        "_hex": "0xd8b2b6c2b"
      },
      "gasLimit": {
        "_hex": "0x15f90"
      },
      "to": "0x259530DC811aFAFc5Eaca6E79B6386703c2E75D3",
      "value": {
        "_hex": "0x5e8573b9078452a2"
      },
      "nonce": 75,
      "data": "0x",
      "r": "0xa99c5d204c051f408a36888838498b73c6fe304511926e0060b4872e5781c1d8",
      "s": "0x6a27185b598452f62e2642d00e316545772412c4120b5f9643a9b59adc6fef18",
      "v": 28,
      "creates": null,
      "raw": "0xf86d4b850d8b2b6c2b83015f9094259530dc811afafc5eaca6e79b6386703c2e75d3885e8573b9078452a2801ca0a99c5d204c051f408a36888838498b73c6fe304511926e0060b4872e5781c1d8a06a27185b598452f62e2642d00e316545772412c4120b5f9643a9b59adc6fef18",
      "networkId": 0,
      "chainId": 0
    }
  ]
}