{
  "hash": "0xf0bf75462fb3d84855f17d040e19b674ec1dd22798f9e5da4c7925b0e9f3c35c",
  "parentHash": "0x9ea8482539bc0415362a908a527655664063f0d1f2918e74095380fe47f1507d",
  "number": 65297,
  "timestamp": 1439234464,
  "nonce": "0x248be1df57baaeaa",
  "difficulty": 1948322727530,
  "gasLimit": {
    "_hex": "0x2fefd8"
  },
  "gasUsed": {
    "_hex": "0x17cd8"
  },
  "miner": "0x31995C46B15C84523cDEE26f49A681b8237e43F5",
  "extraData": "0x476574682f76312e302e312f77696e646f77732f676f312e342e32",
  "transactions": [
    {
      "hash": "0x9715641b7509c6c5ba99dbca1124b5b5d38696672741aa8f304ee1cc0732d707",
      "blockHash": "0xf0bf75462fb3d84855f17d040e19b674ec1dd22798f9e5da4c7925b0e9f3c35c",
      "blockNumber": 65297,
      "transactionIndex": 0,
      "confirmations": null,
      "from": "0xA6501680FB9FD0A30001c66D2eC34E3aC3cEe6d6",
      "gasPrice": {
        "_hex": "0xba43b7400"
      },
      "gasLimit": {
        "_hex": "0x15f90"
      },
      "to": "0x793AE8C1b1a160BFc07BFB0d04F85eab1A71F4f2",
      "value": {
        "_hex": "0x0"
      },
      "nonce": 0,
      "data": "0x3ba15036",
      "r": "0x56f0e58d3fde2b292ace993178ad51cdbd03af241f9294693acf79bf7293c583",
      "s": "0x6d088a79a6d117fd1ceb6a5c7545255b3afcbe5eb8a3698295bda72a25e10f01",
      "v": 27,
      "creates": null,
      "raw": "0xf86980850ba43b740083015f9094793ae8c1b1a160bfc07bfb0d04f85eab1a71f4f280843ba150361ba056f0e58d3fde2b292ace993178ad51cdbd03af241f9294693acf79bf7293c583a06d088a79a6d117fd1ceb6a5c7545255b3afcbe5eb8a3698295bda72a25e10f01",
      "networkId": 0,
      "chainId": 0
    },
    {
      "hash": "0xb2ff74392e7f652de2cb5324ce13a2cd75f42093e4d19b6007c0faf9cfcd8b30",
      "blockHash": "0xf0bf75462fb3d84855f17d040e19b674ec1dd22798f9e5da4c7925b0e9f3c35c",
      "blockNumber": 65297,
      "transactionIndex": 1,
      "confirmations": null,
      "from": "0x7B25BF429aaA99bC7851cd2F9353bC66f5df256c",
      "gasPrice": {
        "_hex": "0xba43b7400"
      },
      "gasLimit": {
        "_hex": "0x15f90"
      },
      "to": "0x793AE8C1b1a160BFc07BFB0d04F85eab1A71F4f2",
      "value": {
        "_hex": "0x0"
      },
      "nonce": 0,
      "data": "0x3ba15036",
      "r": "0xb1730b067d4b83bd5b3a25042cf5420dbb4ef27f62c176c1453af3e069f801ac",
      "s": "0x066189dedcc0d835709d44fe08b08933e190d4872de4a2aa8d858c48a96113b0",
      "v": 27,
      "creates": null,
      "raw": "0xf86980850ba43b740083015f9094793ae8c1b1a160bfc07bfb0d04f85eab1a71f4f280843ba150361ba0b1730b067d4b83bd5b3a25042cf5420dbb4ef27f62c176c1453af3e069f801aca0066189dedcc0d835709d44fe08b08933e190d4872de4a2aa8d858c48a96113b0",
      "networkId": 0,
      "chainId": 0
    }
  ]
}