{
  "hash": "0xb45b4d10ac52db7ebd10be3f8ad005b0aba4e641bf17effe6809b2dc1010f2c6",
  "parentHash": "0xda35eb9745f6063977c47c33336a776e33cd8d9d1e473047a9fedfd7a4328604",
  "number": 66724,
  "timestamp": 1439259324,
  "nonce": "0x74af1a4306d4207e",
  "difficulty": 1943241285460,
  "gasLimit": {
    "_hex": "0x2fefd8"
  },
  "gasUsed": {
    "_hex": "0x5208"
  },
  "miner": "0xf8E0CA3Ed80bd541b94BEdCf259e8CF2141A9523",
  "extraData": "0x476574682f76312e302e312f77696e646f77732f676f312e342e32",
  "transactions": [
    {
      "hash": "0xf698783dc98a5d4de923d41ae9593a79fe34943a1c8c41259e7ffb0efc36b075",
      "blockHash": "0xb45b4d10ac52db7ebd10be3f8ad005b0aba4e641bf17effe6809b2dc1010f2c6",
      "blockNumber": 66724,
      "transactionIndex": 0,
      "confirmations": null,
      "from": "0x32Be343B94f860124dC4fEe278FDCBD38C102D88",
      "gasPrice": {
        "_hex": "0xdb3dcfe0b"
      },
      "gasLimit": {
        "_hex": "0x5208"
      },
      "to": "0xA5a027792284CfeD568D48e4c92De6fBD3fE3B80",
      "value": {
        "_hex": "0x1b9de674df070000"
      },
      "nonce": 197,
      "data": "0x",
      "r": "0x3ccac9400552ee733f4d3e882bce9e58ff72a0b5939c90ecfdfd0d4cb25aa2e9",
      "s": "0x7ef5c3e4a5fb0f93c389db2db614314b269b0efc213db02843084d0832263670",
      "v": 27,
      "creates": null,
      "raw": "0xf86d81c5850db3dcfe0b82520894a5a027792284cfed568d48e4c92de6fbd3fe3b80881b9de674df070000801ba03ccac9400552ee733f4d3e882bce9e58ff72a0b5939c90ecfdfd0d4cb25aa2e9a07ef5c3e4a5fb0f93c389db2db614314b269b0efc213db02843084d0832263670",
      "networkId": 0,
      "chainId": 0
    }
  ]
}