{
  "hash": "0x3e1cd4bd28f0d9c592e064c4e99d03ef1a0ab803fe76d18a32e63a8b8ea161d0",
  "parentHash": "0x7b1a12d7e09baf64adfa7d05b7ad28a67cadd2c05beb6dcc8b10d4bee3208ccc",
  "number": 91488,
  "timestamp": 1439656399,
  "nonce": "0x0e29b803760fea46",
  "difficulty": 3487886330840,
  "gasLimit": {
    "_hex": "0x2fefd8"
  },
  "gasUsed": {
    "_hex": "0x5208"
  },
  "miner": "0xe6A7a1d47ff21B6321162AEA7C6CB457D5476Bca",
  "extraData": "0x476574682f76312e302e312d38326566323666362f6c696e75782f676f312e34",
  "transactions": [
    {
      "hash": "0x450f6c30d506e85d373282aec79841825a9313ce3ed0f10763bbad5d9c898aa6",
      "blockHash": "0x3e1cd4bd28f0d9c592e064c4e99d03ef1a0ab803fe76d18a32e63a8b8ea161d0",
      "blockNumber": 91488,
      "transactionIndex": 0,
      "confirmations": null,
      "from": "0x2910543Af39abA0Cd09dBb2D50200b3E800A63D2",
      "gasPrice": {
        "_hex": "0xd069bc567"
      },
      "gasLimit": {
        "_hex": "0x5208"
      },
      "to": "0xaf4BEE1910f14Fd7B7D119D741E5CddDFb3375CC",
      "value": {
        "_hex": "0xdcef33a6f838000"
      },
      "nonce": 805,
      "data": "0x",
      "r": "0x8e54ae8199042d30cca3eb8e2a3bd45ebb0ecd4eee07823ff7e820628e137c26",
      "s": "0x0bcd07eb6b9c81b03954e2dc00bc223d81298c518d834dc6e0baf31fa8f416a3",
      "v": 28,
      "creates": null,
      "raw": "0xf86e820325850d069bc56782520894af4bee1910f14fd7b7d119d741e5cdddfb3375cc880dcef33a6f838000801ca08e54ae8199042d30cca3eb8e2a3bd45ebb0ecd4eee07823ff7e820628e137c26a00bcd07eb6b9c81b03954e2dc00bc223d81298c518d834dc6e0baf31fa8f416a3",
      "networkId": 0,
      "chainId": 0
    }
  ]
}