{
  "hash": "0xdd76389aa8604b5f9018d71272e176dd7542f83e06743ac2a2aac9339d6e094d",
  "parentHash": "0x6246cd42dcdc86dcba9878fb14b6ce906c45893ca4168eb5a7c22ff6c163e2fd",
  "number": 95114,
  "timestamp": 1439719199,
  "nonce": "0x07dced93ca33e956",
  "difficulty": 3506866975856,
  "gasLimit": {
    "_hex": "0x2fefd8"
  },
  "gasUsed": {
    "_hex": "0x14bf0"
  },
  "miner": "0xe6A7a1d47ff21B6321162AEA7C6CB457D5476Bca",
  "extraData": "0x476574682f76312e302e312d38326566323666362f6c696e75782f676f312e34",
  "transactions": [
    {
      "hash": "0x584f0d26b64552e63e4c7892331d23675f8c9fe6bfc24edb39a81e697ee6a76a",
      "blockHash": "0xdd76389aa8604b5f9018d71272e176dd7542f83e06743ac2a2aac9339d6e094d",
      "blockNumber": 95114,
      "transactionIndex": 0,
      "confirmations": null,
      "from": "0x2e1A591a3Bd5FCE3c1E095c205Bd202C29541e70",
      "gasPrice": {
        "_hex": "0xda7fc4d4a"
      },
      "gasLimit": {
        "_hex": "0x15f90"
      },
      "to": "0x0000000000000000000000000000000000000000",
      "value": {
        "_hex": "0x16345785d8a0000"
      },
      "nonce": 2,
      "data": "0xb214faa54141414141444846420000000000000000000000000000000000000000000000",
      "r": "0x1ab302ed4038297fd1ee2bc2c0fba8cabe6aae53d71e24a2368906ce35ff2c88",
      "s": "0x6d334e71b8995d4eab79a6340dc810a327b38fe0dc0f2adcefac567b8bd629a5",
      "v": 27,
      "creates": null,
      "raw": "0xf89102850da7fc4d4a83015f9094000000000000000000000000000000000000000088016345785d8a0000a4b214faa541414141414448464200000000000000000000000000000000000000000000001ba01ab302ed4038297fd1ee2bc2c0fba8cabe6aae53d71e24a2368906ce35ff2c88a06d334e71b8995d4eab79a6340dc810a327b38fe0dc0f2adcefac567b8bd629a5",
      "networkId": 0,
      "chainId": 0
    },
    {
      "hash": "0x0ef94b4bb227f640f1df0227e527a5c0b78c5dd4d8c95abc67432084c652d5bb",
      "blockHash": "0xdd76389aa8604b5f9018d71272e176dd7542f83e06743ac2a2aac9339d6e094d",
      "blockNumber": 95114,
      "transactionIndex": 1,
      "confirmations": null,
      "from": "0x32Be343B94f860124dC4fEe278FDCBD38C102D88",
      "gasPrice": {
        "_hex": "0xcfdf83ca3"
      },
      "gasLimit": {
        "_hex": "0x5208"
      },
      "to": "0xC57F84c3f2E765bb1d265bf756987b8ea9F76445",
      "value": {
        "_hex": "0x2b5e3af16b1880000"
      },
      "nonce": 974,
      "data": "0x",
      "r": "0x369b3cc5853898c7230c595bd590f7bfce9d2a93f4d91696b1e1959412042ca9",
      "s": "0x4c84ed7ec661fd94022c301b7b72b444125e6ae715d5ec22c17affc66540e962",
      "v": 28,
      "creates": null,
      "raw": "0xf86f8203ce850cfdf83ca382520894c57f84c3f2e765bb1d265bf756987b8ea9f764458902b5e3af16b1880000801ca0369b3cc5853898c7230c595bd590f7bfce9d2a93f4d91696b1e1959412042ca9a04c84ed7ec661fd94022c301b7b72b444125e6ae715d5ec22c17affc66540e962",
      "networkId": 0,
      "chainId": 0
    },
    {
      "hash": "0xf49c77324458a32787c38356c5a4efa615823e04766f3fd4b2e7fb29a7b93626",
      "blockHash": "0xdd76389aa8604b5f9018d71272e176dd7542f83e06743ac2a2aac9339d6e094d",
      "blockNumber": 95114,
      "transactionIndex": 2,
      "confirmations": null,
      "from": "0x7fa165177F28D171bA7C17f765c1904344Ec64CB",
      "gasPrice": {
        "_hex": "0xcfdf83ca3"
      },
      "gasLimit": {
        "_hex": "0x5208"
      },
      "to": "0x32Be343B94f860124dC4fEe278FDCBD38C102D88",
      "value": {
        "_hex": "0x1a0513f4c56ecb000"
      },
      "nonce": 19,
      "data": "0x",
      "r": "0x91a85886f78077e7de1a537447f1583b9c74f45efe8c193a2a6892b71afc596f",
      "s": "0x4d28546234d0f608ba341506bb8064bcb6de91aa6058d050b578bb2fd24cd366",
      "v": 27,
      "creates": null,
      "raw": "0xf86d13850cfdf83ca38252089432be343b94f860124dc4fee278fdcbd38c102d888901a0513f4c56ecb000801ba091a85886f78077e7de1a537447f1583b9c74f45efe8c193a2a6892b71afc596fa04d28546234d0f608ba341506bb8064bcb6de91aa6058d050b578bb2fd24cd366",
      "networkId": 0,
      "chainId": 0
    },
    {
      "hash": "0xbd69f7e60b94c7c9cc765374c82a557bc816c042b3b89a359c3aec545061ec59",
      "blockHash": "0xdd76389aa8604b5f9018d71272e176dd7542f83e06743ac2a2aac9339d6e094d",
      "blockNumber": 95114,
      "transactionIndex": 3,
      "confirmations": null,
      "from": "0x7313946aA53dCDd777C90905D75A9B41e17Ca2c9",
      "gasPrice": {
        "_hex": "0xcfdf83ca3"
      },
      "gasLimit": {
        "_hex": "0x5208"
      },
      "to": "0x32Be343B94f860124dC4fEe278FDCBD38C102D88",
      "value": {
        "_hex": "0x361b6b94f93aac00"
      },
      "nonce": 4,
      "data": "0x",
      "r": "0x2bd9bce17750f42af79d3e754b2e0d50881bd2293b4fd5750c7724140c3397d0",
      "s": "0x05267d62407a58f33eeabc2d14194415c11efff3a703aa072f40d6f301a54886",
      "v": 28,
      "creates": null,
      "raw": "0xf86c04850cfdf83ca38252089432be343b94f860124dc4fee278fdcbd38c102d8888361b6b94f93aac00801ca02bd9bce17750f42af79d3e754b2e0d50881bd2293b4fd5750c7724140c3397d0a005267d62407a58f33eeabc2d14194415c11efff3a703aa072f40d6f301a54886",
      "networkId": 0,
      "chainId": 0
    }
  ]
}