{
  "hash": "0x1e4c61230a503654f8c93924ae636c9001e29a36758dadb09209c7bd1fd9b061",
  "parentHash": "0xe943c23f23d87bfa4d738912b2acb843e2c62981c57ff78a1f547e84ded6c2a5",
  "number": 46456,
  "timestamp": 1438923375,
  "nonce": "0x4230f197d1218245",
  "difficulty": 1470383802091,
  "gasLimit": {
    "_hex": "0x61e6"
  },
  "gasUsed": {
    "_hex": "0x5208"
  },
  "miner": "0x25A0be9f6fCbDE4F61024B86a33dd80F7cbB3cEc",
  "extraData": "0x6661726d2032",
  "transactions": [
    {
      "hash": "0x6bb78cfd4dda5c68c9367024e4e1b3bd1c2004f48c82ce03560d6934a8b50274",
      "blockHash": "0x1e4c61230a503654f8c93924ae636c9001e29a36758dadb09209c7bd1fd9b061",
      "blockNumber": 46456,
      "transactionIndex": 0,
      "confirmations": null,
      "from": "0xa89AC93b23370472DaAc337E9afdF642543F3E57",
      "gasPrice": {
        "_hex": "0x746a528800"
      },
      "gasLimit": {
        "_hex": "0x5208"
      },
      "to": "0x52dE4B32E40bA930679EFEb2214357cDF6FEC979",
      "value": {
        "_hex": "0x56bc75e2d63100000"
      },
      "nonce": 3,
      "data": "0x",
      "r": "0x81d0def17756fd8534e36a647bce03802e2d99bb2b850108796823c289b29646",
      "s": "0x3b819d3ed77d6b342d8d6031594d71e6931b4ee95e1b28900865222fb3ad3ace",
      "v": 28,
      "creates": null,
      "raw": "0xf86d0385746a5288008252089452de4b32e40ba930679efeb2214357cdf6fec97989056bc75e2d63100000801ca081d0def17756fd8534e36a647bce03802e2d99bb2b850108796823c289b29646a03b819d3ed77d6b342d8d6031594d71e6931b4ee95e1b28900865222fb3ad3ace",
      "networkId": 0,
      "chainId": 0
    }
  ]
}