{
  "hash": "0x1eb1366b5ddce0a7298edc5a905abcfb6d95995cf05c46d645ac7a91f4b244ec",
  "parentHash": "0x59ccc39b7a2d685a74e1cd9b501735506c364fcee87957d327a185b49ee9b870",
  "number": 46752,
  "timestamp": 1438928581,
  "nonce": "0x1730cc2cdf912073",
  "difficulty": 1454621867935,
  "gasLimit": {
    "_hex": "0x7699"
  },
  "gasUsed": {
    "_hex": "0x5208"
  },
  "miner": "0xeB1325C8D9d3ea8D74aC11F4B00F1B2367686319",
  "extraData": "0x476574682f76312e302e312f77696e646f77732f676f312e342e32",
  "transactions": [
    {
      "hash": "0x7374afcedf5bb8a592754ef5db3db22bb2c16ba14aa6de1da9d752b06b71c479",
      "blockHash": "0x1eb1366b5ddce0a7298edc5a905abcfb6d95995cf05c46d645ac7a91f4b244ec",
      "blockNumber": 46752,
      "transactionIndex": 0,
      "confirmations": null,
      "from": "0xe64D681b0eBCa2997D5f35e72EbC7777973299D7",
      "gasPrice": {
        "_hex": "0x1020c8da84b"
      },
      "gasLimit": {
        "_hex": "0x5208"
      },
      "to": "0x931Ac2444b057f80A06A4FB627f26FFA5CE41184",
      "value": {
        "_hex": "0xad78ebc5ac6200000"
      },
      "nonce": 0,
      "data": "0x",
      "r": "0x7483380a5c4e1bd43d9cfd285f698f7166e60c9ea65aa1121f2c7c17577a7c48",
      "s": "0x151394246bd7ca158191f4334b0db22635b393e2347a11934497c5e1c8c9123c",
      "v": 27,
      "creates": null,
      "raw": "0xf86e808601020c8da84b82520894931ac2444b057f80a06a4fb627f26ffa5ce41184890ad78ebc5ac6200000801ba07483380a5c4e1bd43d9cfd285f698f7166e60c9ea65aa1121f2c7c17577a7c48a0151394246bd7ca158191f4334b0db22635b393e2347a11934497c5e1c8c9123c",
      "networkId": 0,
      "chainId": 0
    }
  ]
}