{
  "hash": "0x025493ae21fb3c2c3e56e0b45eb03b8cbe8ed8b64bc12d77655aed6b4b5324dc",
  "parentHash": "0x69c968019c9b97c1ea48926410d1bcc7ae737e8275f87c8e12a0cfe90265329f",
  "number": 117878,
  "timestamp": 1440116834,
  "nonce": "0x6985a54d881a0dbe",
  "difficulty": 4335570157636,
  "gasLimit": {
    "_hex": "0x2fefd8"
  },
  "gasUsed": {
    "_hex": "0x5208"
  },
  "miner": "0x6Cf387a1C50cF6b09634E0d24fDAa2c06Be0ea95",
  "extraData": "0x476574682f76312e302e322f6c696e75782f676f312e342e32",
  "transactions": [
    {
      "hash": "0x9ec67ffa3293ddba8ea72580ecbce5ba127ec14419a63b683741afd0210c6c27",
      "blockHash": "0x025493ae21fb3c2c3e56e0b45eb03b8cbe8ed8b64bc12d77655aed6b4b5324dc",
      "blockNumber": 117878,
      "transactionIndex": 0,
      "confirmations": null,
      "from": "0xE7dAdedf7cEBAaBa85903823D254601B1D459C9B",
      "gasPrice": {
        "_hex": "0xba43b7400"
      },
      "gasLimit": {
        "_hex": "0x5208"
      },
      "to": "0x32Be343B94f860124dC4fEe278FDCBD38C102D88",
      "value": {
        "_hex": "0x24c0f242e3f37c00"
      },
      "nonce": 8,
      "data": "0x",
      "r": "0x2a2298308ab214af05e76efc8a026ce2da5a82dff19ec078eda5fd201c29693f",
      "s": "0x76957cb38150ffa2bd59fe910fb8023cfc21a964e3f514ed6d8d6f3631f17c45",
      "v": 28,
      "creates": null,
      "raw": "0xf86c08850ba43b74008252089432be343b94f860124dc4fee278fdcbd38c102d888824c0f242e3f37c00801ca02a2298308ab214af05e76efc8a026ce2da5a82dff19ec078eda5fd201c29693fa076957cb38150ffa2bd59fe910fb8023cfc21a964e3f514ed6d8d6f3631f17c45",
      "networkId": 0,
      "chainId": 0
    }
  ]
}