{
  "hash": "0xf7c110e12c2e70ca4de9edd7fc619e5085b9a79761ab60775a0fae447333a14f",
  "parentHash": "0x5500cc13d2a8242ff1f7fcc71f32a179a4eca6c4df5737c28765fcad6ae24ef9",
  "number": 102142,
  "timestamp": 1439833495,
  "nonce": "0xebf3cead893fbccb",
  "difficulty": 3905101137729,
  "gasLimit": {
    "_hex": "0x2fefd8"
  },
  "gasUsed": {
    "_hex": "0x5208"
  },
  "miner": "0xC978e305Aaa59952FAb39Ba288d6E9CB09B952E1",
  "extraData": "0x476574682f76312e302e312f77696e646f77732f676f312e342e32",
  "transactions": [
    {
      "hash": "0x7be1984cab416b823ab293f65d63a54a52b9c5d78cec80061e5caf6cb44592db",
      "blockHash": "0xf7c110e12c2e70ca4de9edd7fc619e5085b9a79761ab60775a0fae447333a14f",
      "blockNumber": 102142,
      "transactionIndex": 0,
      "confirmations": null,
      "from": "0xC47Aaa860008be6f65B58c6C6E02a84e666EfE31",
      "gasPrice": {
        "_hex": "0xdfc3bacd9"
      },
      "gasLimit": {
        "_hex": "0x15f90"
      },
      "to": "0x0261ce2ccFeB21752bd6E4d895c467E5589791eD",
      "value": {
        "_hex": "0xddd2935029d7fff"
      },
      "nonce": 68,
      "data": "0x",
      "r": "0x17ce825f33767172431afa427b7454e5ad1c76782e9047ce6778c4eb7a8f21a5",
      "s": "0x76ca061d81a6641873edec7368328b589c1a7b769c335e5ccecf5683ebfb4723",
      "v": 28,
      "creates": null,
      "raw": "0xf86d44850dfc3bacd983015f90940261ce2ccfeb21752bd6e4d895c467e5589791ed880ddd2935029d7fff801ca017ce825f33767172431afa427b7454e5ad1c76782e9047ce6778c4eb7a8f21a5a076ca061d81a6641873edec7368328b589c1a7b769c335e5ccecf5683ebfb4723",
      "networkId": 0,
      "chainId": 0
    }
  ]
}