{
  "hash": "0x5eb1f27bc0f2261406609e42242fa3edf5eb6d4fdcd8abe0e1d2c3f531b8d9f3",
  "parentHash": "0x2e8c2dd6c0a92a5369ddce6906e875a527d5c119a2cbb3112b69030a0d2c6ab1",
  "number": 89453,
  "timestamp": 1439623773,
  "nonce": "0x059c5f8c8270886f",
  "difficulty": 3304678807513,
  "gasLimit": {
    "_hex": "0x2fefd5"
  },
  "gasUsed": {
    "_hex": "0x5208"
  },
  "miner": "0xf8E0CA3Ed80bd541b94BEdCf259e8CF2141A9523",
  "extraData": "0x476574682f76312e302e312f77696e646f77732f676f312e342e32",
  "transactions": [
    {
      "hash": "0x525e633f1cb3b05f9c7f7bfa8df45a9954f62604134df5b9d24707648b7c8122",
      "blockHash": "0x5eb1f27bc0f2261406609e42242fa3edf5eb6d4fdcd8abe0e1d2c3f531b8d9f3",
      "blockNumber": 89453,
      "transactionIndex": 0,
      "confirmations": null,
      "from": "0xe07d5Fc0000E4a512BA196cF86233bb16376978D",
      "gasPrice": {
        "_hex": "0xd025f8f8d"
      },
      "gasLimit": {
        "_hex": "0x5208"
      },
      "to": "0x32Be343B94f860124dC4fEe278FDCBD38C102D88",
      "value": {
        "_hex": "0x5264dc75b4471c000"
      },
      "nonce": 0,
      "data": "0x",
      "r": "0x946702122b2faebdec4f3c6ad40910f69348014fe7898104f8e441d5b82f0146",
      "s": "0x6e9d84ad516d974de54c1016d10ceefcbbb9a28e0f678b8359b69478994c5392",
      "v": 27,
      "creates": null,
      "raw": "0xf86d80850d025f8f8d8252089432be343b94f860124dc4fee278fdcbd38c102d888905264dc75b4471c000801ba0946702122b2faebdec4f3c6ad40910f69348014fe7898104f8e441d5b82f0146a06e9d84ad516d974de54c1016d10ceefcbbb9a28e0f678b8359b69478994c5392",
      "networkId": 0,
      "chainId": 0
    }
  ]
}