{
  "hash": "0xfe890084d1c4ace92f602b057b8daf7ce2180bf605b6be905057c05d53a84fd5",
  "parentHash": "0xfa5d9d181eb5107f734dc4a2e5ab049dfedce7413caf34f250c67f1aa47a920f",
  "number": 111415,
  "timestamp": 1439989912,
  "nonce": "0x348e34d6ad33e192",
  "difficulty": 4430975092360,
  "gasLimit": {
    "_hex": "0x2fefd8"
  },
  "gasUsed": {
    "_hex": "0xf618"
  },
  "miner": "0xf927a40C8B7F6E07c5af7FA2155B4864a4112B13",
  "extraData": "0x",
  "transactions": [
    {
      "hash": "0x071bb803ace862054988511e90f87b955c76cc7139e7b94ee41a561f99d9d7ba",
      "blockHash": "0xfe890084d1c4ace92f602b057b8daf7ce2180bf605b6be905057c05d53a84fd5",
      "blockNumber": 111415,
      "transactionIndex": 0,
      "confirmations": null,
      "from": "0x47fe9Ce29dA03E8466a067e4321fD32312e39607",
      "gasPrice": {
        "_hex": "0xd4be89f70"
      },
      "gasLimit": {
        "_hex": "0x15f90"
      },
      "to": "0x132ACC4ebA2B5039C65849368648bc19f32BEd97",
      "value": {
        "_hex": "0x17508f1956a80000"
      },
      "nonce": 7,
      "data": "0x",
      "r": "0xe36a8e95852520d34bebc534cf7d26a8ba3f42c51257a966d02396d32b51e965",
      "s": "0x1bb2fcea13ac8c42641ddcc227d8eff1e16d28b70fe5882049464bc38d55ecb7",
      "v": 28,
      "creates": null,
      "raw": "0xf86d07850d4be89f7083015f9094132acc4eba2b5039c65849368648bc19f32bed978817508f1956a80000801ca0e36a8e95852520d34bebc534cf7d26a8ba3f42c51257a966d02396d32b51e965a01bb2fcea13ac8c42641ddcc227d8eff1e16d28b70fe5882049464bc38d55ecb7",
      "networkId": 0,
      "chainId": 0
    },
    {
      "hash": "0x6843d767f3329a640c0a0854b56533ef7dc3cb33de2c4b478b06a07f11205cc6",
      "blockHash": "0xfe890084d1c4ace92f602b057b8daf7ce2180bf605b6be905057c05d53a84fd5",
      "blockNumber": 111415,
      "transactionIndex": 1,
      "confirmations": null,
      "from": "0xaA7C5c36F2422615C33f44b2C8f8883451eD8D0d",
      "gasPrice": {
        "_hex": "0xd1277086d"
      },
      "gasLimit": {
        "_hex": "0x15f90"
      },
      "to": "0x572251a1FF0c56745E461cf7a293F893fFADB303",
      "value": {
        "_hex": "0xaaf96eb9d0d0000"
      },
      "nonce": 4,
      "data": "0x",
      "r": "0x3c06bf9e1e93c17830b307679975ef6a02aecceb5aaeca20df6b26e52c540248",
      "s": "0x1cb7d0e9dde34d01203c5451be4265325b87e0be7c7853dfc21cd7cc59b3384c",
      "v": 27,
      "creates": null,
      "raw": "0xf86d04850d1277086d83015f9094572251a1ff0c56745e461cf7a293f893ffadb303880aaf96eb9d0d0000801ba03c06bf9e1e93c17830b307679975ef6a02aecceb5aaeca20df6b26e52c540248a01cb7d0e9dde34d01203c5451be4265325b87e0be7c7853dfc21cd7cc59b3384c",
      "networkId": 0,
      "chainId": 0
    },
    {
      "hash": "0xd552dbac6673c5d0b5b852fe8489ac1fd13a04da5f353b44dda4aed44dbf8f38",
      "blockHash": "0xfe890084d1c4ace92f602b057b8daf7ce2180bf605b6be905057c05d53a84fd5",
      "blockNumber": 111415,
      "transactionIndex": 2,
      "confirmations": null,
      "from": "0x31995C46B15C84523cDEE26f49A681b8237e43F5",
      "gasPrice": {
        "_hex": "0xce25cd451"
      },
      "gasLimit": {
        "_hex": "0x7530"
      },
      "to": "0xa9f5E7bf6Cbf6fEc55B30850Eb492b47A376d050",
      "value": {
        "_hex": "0x154017c3185120000"
      },
      "nonce": 10,
      "data": "0x",
      "r": "0xe11800c7edb4cd9f6df915eb897413b07949432c5a84ab0f269eab4b418bee6b",
      "s": "0x4f0148fbecb44f8821ae9e082ed6f72bd100c5c6d0639ee8a81e70efaf06ff13",
      "v": 28,
      "creates": null,
      "raw": "0xf86d0a850ce25cd45182753094a9f5e7bf6cbf6fec55b30850eb492b47a376d050890154017c3185120000801ca0e11800c7edb4cd9f6df915eb897413b07949432c5a84ab0f269eab4b418bee6ba04f0148fbecb44f8821ae9e082ed6f72bd100c5c6d0639ee8a81e70efaf06ff13",
      "networkId": 0,
      "chainId": 0
    }
  ]
}