{
  "hash": "0x35cce0943bd0817c36f896e8ac89feed4170eb9a98fd3d2ab9f05f333588750e",
  "parentHash": "0x4694edbc9e14b1879de3a5431a7759805a1a0902999b1b5f668fbe65518f7c89",
  "number": 93943,
  "timestamp": 1439700101,
  "nonce": "0x3028e3d9bed8341e",
  "difficulty": 3488568706433,
  "gasLimit": {
    "_hex": "0x2fefd8"
  },
  "gasUsed": {
    "_hex": "0x5208"
  },
  "miner": "0x00eBA8Ef4fF9B21Ec2FFF273953fDCC81f6fE7da",
  "extraData": "0x476574682f76312e302e312f6c696e75782f676f312e342e32",
  "transactions": [
    {
      "hash": "0x59b680a7ddbfe936d22ae932c08bf58fb642db4cbc6d9cd3c13ed40fc1bcfa9b",
      "blockHash": "0x35cce0943bd0817c36f896e8ac89feed4170eb9a98fd3d2ab9f05f333588750e",
      "blockNumber": 93943,
      "transactionIndex": 0,
      "confirmations": null,
      "from": "0x32Be343B94f860124dC4fEe278FDCBD38C102D88",
      "gasPrice": {
        "_hex": "0xd9d7cf70e"
      },
      "gasLimit": {
        "_hex": "0x5208"
      },
      "to": "0xc93a69dFC0fb3E867D9207599f7fe87d51619635",
      "value": {
        "_hex": "0x681321d44071f0000"
      },
      "nonce": 937,
      "data": "0x",
      "r": "0x6844d4e3f536c09bdcbc3d2b0657255dcff49b4f6a06bbe3d51caf85f7dca41b",
      "s": "0x1b8353d6aee80684d3e7218b2716e34424725326171b4b1a1da09e725267ca80",
      "v": 27,
      "creates": null,
      "raw": "0xf86f8203a9850d9d7cf70e82520894c93a69dfc0fb3e867d9207599f7fe87d51619635890681321d44071f0000801ba06844d4e3f536c09bdcbc3d2b0657255dcff49b4f6a06bbe3d51caf85f7dca41ba01b8353d6aee80684d3e7218b2716e34424725326171b4b1a1da09e725267ca80",
      "networkId": 0,
      "chainId": 0
    }
  ]
}