{
  "hash": "0xb2a6758746cea9e2e240d3fc697abcb3ec3ed49842f57f72cb1a6cccfd66ccfe",
  "parentHash": "0xfc0dbdd289cbfd47b7ced0e0ed0232b621c7dafd9f39774ece0d86c4fd9de675",
  "number": 91686,
  "timestamp": 1439659775,
  "nonce": "0xc421d0aa02029612",
  "difficulty": 3491211728214,
  "gasLimit": {
    "_hex": "0x2fefd8"
  },
  "gasUsed": {
    "_hex": "0x5208"
  },
  "miner": "0xeB1325C8D9d3ea8D74aC11F4B00F1B2367686319",
  "extraData": "0x476574682f76312e302e312f77696e646f77732f676f312e342e32",
  "transactions": [
    {
      "hash": "0x01a60ee5cba8699cc99ef5abf9bf724aa13bc0413fb2fbc8daaedd3f692df068",
      "blockHash": "0xb2a6758746cea9e2e240d3fc697abcb3ec3ed49842f57f72cb1a6cccfd66ccfe",
      "blockNumber": 91686,
      "transactionIndex": 0,
      "confirmations": null,
      "from": "0xC99478b218E58F45783fA70f0507cf614938E67d",
      "gasPrice": {
        "_hex": "0xd7d40ace3"
      },
      "gasLimit": {
        "_hex": "0x15f90"
      },
      "to": "0xC3fe64D1af00F0d9c324E4387EF7533f7D788e95",
      "value": {
        "_hex": "0x1af996539a2a60000"
      },
      "nonce": 15,
      "data": "0x",
      "r": "0x4992c7710b0c10c58448422d44e3087abdad8cb8d5feaba834976a3d5c959f2a",
      "s": "0x3100e6720dd6b9200ae20bfb3b4aeb9493ebd0e3ab9720c5a59d20afdb5f4108",
      "v": 28,
      "creates": null,
      "raw": "0xf86e0f850d7d40ace383015f9094c3fe64d1af00f0d9c324e4387ef7533f7d788e958901af996539a2a60000801ca04992c7710b0c10c58448422d44e3087abdad8cb8d5feaba834976a3d5c959f2aa03100e6720dd6b9200ae20bfb3b4aeb9493ebd0e3ab9720c5a59d20afdb5f4108",
      "networkId": 0,
      "chainId": 0
    }
  ]
}