{
  "hash": "0xd3cfff50adc34e8115999908723de00effd899df6b961addb4aab067ac218559",
  "parentHash": "0x1c9beb7b5e4af158666cd5989c4b3caa63100cc8299a5dbd2d1ea4e83a587ad3",
  "number": 84552,
  "timestamp": 1439551293,
  "nonce": "0x23e89d53f5959d9a",
  "difficulty": 2571421003922,
  "gasLimit": {
    "_hex": "0x2fefd8"
  },
  "gasUsed": {
    "_hex": "0x1ec30"
  },
  "miner": "0x46b92ea5c3E696bf123354DfCc564cbac1C90671",
  "extraData": "0x",
  "transactions": [
    {
      "hash": "0xc3c421a11e2479b95766d06fcdcf76432745a440dca60b586ce901e4215487b8",
      "blockHash": "0xd3cfff50adc34e8115999908723de00effd899df6b961addb4aab067ac218559",
      "blockNumber": 84552,
      "transactionIndex": 0,
      "confirmations": null,
      "from": "0xBFdD9820a04283b289957956353b5F3C1F665EcF",
      "gasPrice": {
        "_hex": "0xd9d3faa12"
      },
      "gasLimit": {
        "_hex": "0x5208"
      },
      "to": "0x32Be343B94f860124dC4fEe278FDCBD38C102D88",
      "value": {
        "_hex": "0x8ac2c638ce728000"
      },
      "nonce": 36,
      "data": "0x",
      "r": "0x15edba6dadf11987813a7dfdfacf1be93461336e873b456db78c4edcdc4fcc95",
      "s": "0x2e894747e87050fbe0e2226085cf4632faab6dbc3bdefa22d368db0df4cdd834",
      "v": 27,
      "creates": null,
      "raw": "0xf86c24850d9d3faa128252089432be343b94f860124dc4fee278fdcbd38c102d88888ac2c638ce728000801ba015edba6dadf11987813a7dfdfacf1be93461336e873b456db78c4edcdc4fcc95a02e894747e87050fbe0e2226085cf4632faab6dbc3bdefa22d368db0df4cdd834",
      "networkId": 0,
      "chainId": 0
    },
    {
      "hash": "0x47d6e32201e17ba04d94b7ef504a030a4956b62c76dbb7aeef223fbf7d9c0810",
      "blockHash": "0xd3cfff50adc34e8115999908723de00effd899df6b961addb4aab067ac218559",
      "blockNumber": 84552,
      "transactionIndex": 1,
      "confirmations": null,
      "from": "0xF5EeDc192aB70b08D8354384aD94efD095849E00",
      "gasPrice": {
        "_hex": "0xd7947ea86"
      },
      "gasLimit": {
        "_hex": "0x5208"
      },
      "to": "0x32Be343B94f860124dC4fEe278FDCBD38C102D88",
      "value": {
        "_hex": "0x2b5df524af6128000"
      },
      "nonce": 41,
      "data": "0x",
      "r": "0x3ea101b57e87679bbc0f7c3448f755038d781de00beffbfab760af47a27f52bd",
      "s": "0x70aa39fb7330668d9dd071bd83b3ea95db6000d4307b18bcc11eeaf00e7e7ba1",
      "v": 28,
      "creates": null,
      "raw": "0xf86d29850d7947ea868252089432be343b94f860124dc4fee278fdcbd38c102d888902b5df524af6128000801ca03ea101b57e87679bbc0f7c3448f755038d781de00beffbfab760af47a27f52bda070aa39fb7330668d9dd071bd83b3ea95db6000d4307b18bcc11eeaf00e7e7ba1",
      "networkId": 0,
      "chainId": 0
    },
    {
      "hash": "0x6ad8a65c12f72a941b77ae212f17cdc39a45af2a0cef2ca5f684a46b80b69926",
      "blockHash": "0xd3cfff50adc34e8115999908723de00effd899df6b961addb4aab067ac218559",
      "blockNumber": 84552,
      "transactionIndex": 2,
      "confirmations": null,
      "from": "0xdD81AaddCc8448A5fC0ac28DB93ec6801C21E8Ef",
      "gasPrice": {
        "_hex": "0xd7947ea86"
      },
      "gasLimit": {
        "_hex": "0x5208"
      },
      "to": "0x32Be343B94f860124dC4fEe278FDCBD38C102D88",
      "value": {
        "_hex": "0x1e5b4a94a1e0fe000"
      },
      "nonce": 8,
      "data": "0x",
      "r": "0x19cb2b81b67d493b948ec016d0142a0efb644f713268b86a5baff84d58159c21",
      "s": "0x3a26b6a482ede81d2d2ec9cc4879b6b0dfb6b29f7498302b51d21e2469ce7535",
      "v": 27,
      "creates": null,
      "raw": "0xf86d08850d7947ea868252089432be343b94f860124dc4fee278fdcbd38c102d888901e5b4a94a1e0fe000801ba019cb2b81b67d493b948ec016d0142a0efb644f713268b86a5baff84d58159c21a03a26b6a482ede81d2d2ec9cc4879b6b0dfb6b29f7498302b51d21e2469ce7535",
      "networkId": 0,
      "chainId": 0
    },
    {
      "hash": "0x2489c7ff9a83bd57000c9fcd0327e8016b88ab643542f30a40d495b671e5fa5c",
      "blockHash": "0xd3cfff50adc34e8115999908723de00effd899df6b961addb4aab067ac218559",
      "blockNumber": 84552,
      "transactionIndex": 3,
      "confirmations": null,
      "from": "0xf2881e3e520bF84469Fa00a56449D357FB1af54A",
      "gasPrice": {
        "_hex": "0xd565fcb88"
      },
      "gasLimit": {
        "_hex": "0x5208"
      },
      "to": "0x32Be343B94f860124dC4fEe278FDCBD38C102D88",
      "value": {
        "_hex": "0x613aeedfdf9db4000"
      },
      "nonce": 6,
      "data": "0x",
      "r": "0x93cf93e60da0675cc40f2a114540aec1cb6a955736905964c6095aff226b8454",
      "s": "0x026c0c37f23566e8c7506f6128acc02b5e6d4b977319eba0c2c3d21015731670",
      "v": 27,
      "creates": null,
      "raw": "0xf86d06850d565fcb888252089432be343b94f860124dc4fee278fdcbd38c102d88890613aeedfdf9db4000801ba093cf93e60da0675cc40f2a114540aec1cb6a955736905964c6095aff226b8454a0026c0c37f23566e8c7506f6128acc02b5e6d4b977319eba0c2c3d21015731670",
      "networkId": 0,
      "chainId": 0
    },
    {
      "hash": "0x4d9e3cd0e1cb227356dbf1ea1e3193805db6b10c971992fc44252c588a8d74c0",
      "blockHash": "0xd3cfff50adc34e8115999908723de00effd899df6b961addb4aab067ac218559",
      "blockNumber": 84552,
      "transactionIndex": 4,
      "confirmations": null,
      "from": "0x4c74B6F32c9680aCB5Fe0e72B7Aa95C612540A04",
      "gasPrice": {
        "_hex": "0xd565fcb88"
      },
      "gasLimit": {
        "_hex": "0x5208"
      },
      "to": "0x32Be343B94f860124dC4fEe278FDCBD38C102D88",
      "value": {
        "_hex": "0x2b5df5dd0ecebe000"
      },
      "nonce": 26,
      "data": "0x",
      "r": "0x6621b8ee3dd513ed7a30566c1a2136edb7050ab357ae4dcbb2b36775dd85aaa4",
      "s": "0x292b69bb5b2073549359dfd54cb10af4d17ba40fe84f78ec4787ef4f74d2cf37",
      "v": 27,
      "creates": null,
      "raw": "0xf86d1a850d565fcb888252089432be343b94f860124dc4fee278fdcbd38c102d888902b5df5dd0ecebe000801ba06621b8ee3dd513ed7a30566c1a2136edb7050ab357ae4dcbb2b36775dd85aaa4a0292b69bb5b2073549359dfd54cb10af4d17ba40fe84f78ec4787ef4f74d2cf37",
      "networkId": 0,
      "chainId": 0
    },
    {
      "hash": "0xa89da9751dab6e58921eee4bd2c0a5befde151f11eb45914b0d5e91eabbb6ef9",
      "blockHash": "0xd3cfff50adc34e8115999908723de00effd899df6b961addb4aab067ac218559",
      "blockNumber": 84552,
      "transactionIndex": 5,
      "confirmations": null,
      "from": "0xD05f85Eb920117eeBBf13dd94FeEA60e9eB34537",
      "gasPrice": {
        "_hex": "0xba43b7400"
      },
      "gasLimit": {
        "_hex": "0x5208"
      },
      "to": "0xC47Aaa860008be6f65B58c6C6E02a84e666EfE31",
      "value": {
        "_hex": "0x2c5d86186ed96c000"
      },
      "nonce": 2,
      "data": "0x",
      "r": "0x3dd70d8473e12893a1319fc2c0f8baa70019eb7c7cd8e028956407d9787d23ff",
      "s": "0x059cf7bc2aaba04b6f6132fce80571821d95e2ebc28557c35482fa0168a1096c",
      "v": 27,
      "creates": null,
      "raw": "0xf86d02850ba43b740082520894c47aaa860008be6f65b58c6c6e02a84e666efe318902c5d86186ed96c000801ba03dd70d8473e12893a1319fc2c0f8baa70019eb7c7cd8e028956407d9787d23ffa0059cf7bc2aaba04b6f6132fce80571821d95e2ebc28557c35482fa0168a1096c",
      "networkId": 0,
      "chainId": 0
    }
  ]
}