{
  "hash": "0x9edc83b91e051ea4ef7f773bf017989024e6bec9a034bc012deab86d3f2f3e6a",
  "parentHash": "0x5c6936b736109ce1b8230150392c430d5b0118e918dc9987dba562d9278fba3a",
  "number": 51467,
  "timestamp": 1439005438,
  "nonce": "0x12bd286d91554aa4",
  "difficulty": 1560466316183,
  "gasLimit": {
    "_hex": "0xb521d"
  },
  "gasUsed": {
    "_hex": "0x159b9"
  },
  "miner": "0xbb7B8287f3F0a933474a79eAe42CBCa977791171",
  "extraData": "0x476574682f4c5649562f76312e302e312f6c696e75782f676f312e342e32",
  "transactions": [
    {
      "hash": "0x4aaeaead0f102e28ed1e7a961228aea25926a256364eeef80a384561c9da267d",
      "blockHash": "0x9edc83b91e051ea4ef7f773bf017989024e6bec9a034bc012deab86d3f2f3e6a",
      "blockNumber": 51467,
      "transactionIndex": 0,
      "confirmations": null,
      "from": "0x2905726Ed11131A984ce9C0119cB32DBC99dE90B",
      "gasPrice": {
        "_hex": "0x11121be8abb"
      },
      "gasLimit": {
        "_hex": "0x186a0"
      },
      "to": "0xd94BAdbEC21695B7a36ABCb979EFad0108319d18",
      "value": {
        "_hex": "0x1fd512913000"
      },
      "nonce": 22,
      "data": "0xa69beaba4461726b20436974790000000000000000000000000000000000000000000000",
      "r": "0xe8f5b61e40e23cd237e4dd3eec57974074786f63ec1f1ab3a5d56df18d6977d6",
      "s": "0x6c6010bb7f607696188d67ad322186f90b6600ee27e2bf0faefa95e34e9c24b8",
      "v": 27,
      "creates": null,
      "raw": "0xf8901686011121be8abb830186a094d94badbec21695b7a36abcb979efad0108319d18861fd512913000a4a69beaba4461726b204369747900000000000000000000000000000000000000000000001ba0e8f5b61e40e23cd237e4dd3eec57974074786f63ec1f1ab3a5d56df18d6977d6a06c6010bb7f607696188d67ad322186f90b6600ee27e2bf0faefa95e34e9c24b8",
      "networkId": 0,
      "chainId": 0
    },
    {
      "hash": "0x1ce9ede96909c1ac3c1abb5843776f015e65fadcd7d545eedaa6c810cb7ba3ba",
      "blockHash": "0x9edc83b91e051ea4ef7f773bf017989024e6bec9a034bc012deab86d3f2f3e6a",
      "blockNumber": 51467,
      "transactionIndex": 1,
      "confirmations": null,
      "from": "0x3e8c40498098dd81D00F8bCA8744a0053c82079A",
      "gasPrice": {
        "_hex": "0xba43b7400"
      },
      "gasLimit": {
        "_hex": "0x5b04"
      },
      "to": "0xe5113BcffaDB209830e48BF545404dB707EdE837",
      "value": {
        "_hex": "0xc80909798ac7680000"
      },
      "nonce": 3,
      "data": "0x",
      "r": "0xe6e2cb55e39ef8fb3f5a466f50e533f64ac747c1cdd7bc8961ba4080f2e7b004",
      "s": "0x62ebdc475e1b85f4f6b8e2f57a4f91f51c760a84617a16c8c430e26aef13e800",
      "v": 28,
      "creates": null,
      "raw": "0xf86d03850ba43b7400825b0494e5113bcffadb209830e48bf545404db707ede83789c80909798ac7680000801ca0e6e2cb55e39ef8fb3f5a466f50e533f64ac747c1cdd7bc8961ba4080f2e7b004a062ebdc475e1b85f4f6b8e2f57a4f91f51c760a84617a16c8c430e26aef13e800",
      "networkId": 0,
      "chainId": 0
    }
  ]
}