{
  "hash": "0x8085bfaac008d658f94a5f9d8ffb0b427c64fe7f4b5f8fe532f96496b2abcf03",
  "parentHash": "0xaa2f88c5d7cdde1bc8de3515a2c716d1b19ccd587b8a0b3c73d2f70f823f165a",
  "number": 83317,
  "timestamp": 1439533557,
  "nonce": "0x6d116095a02216e8",
  "difficulty": 2417162099214,
  "gasLimit": {
    "_hex": "0x2fefd8"
  },
  "gasUsed": {
    "_hex": "0x5208"
  },
  "miner": "0xe6A7a1d47ff21B6321162AEA7C6CB457D5476Bca",
  "extraData": "0x476574682f76312e302e312d38326566323666362f6c696e75782f676f312e34",
  "transactions": [
    {
      "hash": "0x257d7461806b6425cf5ded4d629f5729c36e372b87ce7f99471c61bffb8caade",
      "blockHash": "0x8085bfaac008d658f94a5f9d8ffb0b427c64fe7f4b5f8fe532f96496b2abcf03",
      "blockNumber": 83317,
      "transactionIndex": 0,
      "confirmations": null,
      "from": "0x32Be343B94f860124dC4fEe278FDCBD38C102D88",
      "gasPrice": {
        "_hex": "0xd6cae639f"
      },
      "gasLimit": {
        "_hex": "0x5208"
      },
      "to": "0xC0a03adE99f8fd23bA1512045785d6DdD84785fC",
      "value": {
        "_hex": "0x1b9de674df070000"
      },
      "nonce": 646,
      "data": "0x",
      "r": "0xdceebe4e9464e9e564f1d486ca57d9b034458d3dcc011c6167adba249cb4ded6",
      "s": "0x506d06f0af9b5923ce9150c1bb260ef327a2debd93edc24d2f6c2563bde121da",
      "v": 28,
      "creates": null,
      "raw": "0xf86e820286850d6cae639f82520894c0a03ade99f8fd23ba1512045785d6ddd84785fc881b9de674df070000801ca0dceebe4e9464e9e564f1d486ca57d9b034458d3dcc011c6167adba249cb4ded6a0506d06f0af9b5923ce9150c1bb260ef327a2debd93edc24d2f6c2563bde121da",
      "networkId": 0,
      "chainId": 0
    }
  ]
}