{
  "hash": "0x5d8cad8815c8c876302ce68feb2dcee156d682e3e61aec78c77bf5d9619facf7",
  "parentHash": "0x692cc09a0bdad423ce19a5c3cf082b6554e9ca4b63c42f097985b4054cb52975",
  "number": 86813,
  "timestamp": 1439583197,
  "nonce": "0xf056c241d15ff78e",
  "difficulty": 2954558703968,
  "gasLimit": {
    "_hex": "0x2fefd8"
  },
  "gasUsed": {
    "_hex": "0x5208"
  },
  "miner": "0xE300c4587D260cE22a677755Db6429B491A4309E",
  "extraData": "0x",
  "transactions": [
    {
      "hash": "0x502a1ac01c4c5ae249fd10777b4f9c10433ea56ec053ed248ba10d3e3a051067",
      "blockHash": "0x5d8cad8815c8c876302ce68feb2dcee156d682e3e61aec78c77bf5d9619facf7",
      "blockNumber": 86813,
      "transactionIndex": 0,
      "confirmations": null,
      "from": "0x2C89f5FDcA3D155409b638B98A742E55eb4652B7",
      "gasPrice": {
        "_hex": "0xd5022ad54"
      },
      "gasLimit": {
        "_hex": "0x15f90"
      },
      "to": "0x1308A2e95c0160B90803ddCA9B9a5bb55E416d79",
      "value": {
        "_hex": "0x2ea9ffef494040000"
      },
      "nonce": 28,
      "data": "0x",
      "r": "0x8042a6e83e40a0cf2434d6e182381526a8b65f61ec7b0c5cfc92e27e4aaab8df",
      "s": "0x34257b8a8e3edf03f2e33b9d680da60bcc0c55a18814ba3288aa95d1e3886280",
      "v": 28,
      "creates": null,
      "raw": "0xf86e1c850d5022ad5483015f90941308a2e95c0160b90803ddca9b9a5bb55e416d798902ea9ffef494040000801ca08042a6e83e40a0cf2434d6e182381526a8b65f61ec7b0c5cfc92e27e4aaab8dfa034257b8a8e3edf03f2e33b9d680da60bcc0c55a18814ba3288aa95d1e3886280",
      "networkId": 0,
      "chainId": 0
    }
  ]
}