{
  "hash": "0x5f480e3afbc54d8f035b33e9cbf177583ed74b84ae6c4bbdcfa1290c15c05b31",
  "parentHash": "0x71dd253d433a1f830e549b99a4f42c5807efcd072b701ff21a73fe7c788e3302",
  "number": 79976,
  "timestamp": 1439478254,
  "nonce": "0x1cd41e125f3498b4",
  "difficulty": 2342582984897,
  "gasLimit": {
    "_hex": "0x2fefd8"
  },
  "gasUsed": {
    "_hex": "0x14820"
  },
  "miner": "0x88D74a59454F6cF3B51ef6b9136AFb6b9D405A88",
  "extraData": "0x476574682f76312e302e312d37666266393930632f6c696e75782f676f312e34",
  "transactions": [
    {
      "hash": "0xf501ccf19cfd694fe49374645fec18d612cf55dc2fd256027f5eeebd040829a0",
      "blockHash": "0x5f480e3afbc54d8f035b33e9cbf177583ed74b84ae6c4bbdcfa1290c15c05b31",
      "blockNumber": 79976,
      "transactionIndex": 0,
      "confirmations": null,
      "from": "0x32Be343B94f860124dC4fEe278FDCBD38C102D88",
      "gasPrice": {
        "_hex": "0xceff7a8de"
      },
      "gasLimit": {
        "_hex": "0x5208"
      },
      "to": "0xcF9DD62019778E76a6B393f0ac4590f03A7429F7",
      "value": {
        "_hex": "0xc72595ad7a519000"
      },
      "nonce": 497,
      "data": "0x",
      "r": "0xc6e74347543001d3474b2dc6cd4eb4aa3fc138e3e7903c6791a06eb640df722f",
      "s": "0x2107e5e3f3ffea5c92938c0750a5fb12eb0ee5421be767401db72a6055dc5bc5",
      "v": 27,
      "creates": null,
      "raw": "0xf86e8201f1850ceff7a8de82520894cf9dd62019778e76a6b393f0ac4590f03a7429f788c72595ad7a519000801ba0c6e74347543001d3474b2dc6cd4eb4aa3fc138e3e7903c6791a06eb640df722fa02107e5e3f3ffea5c92938c0750a5fb12eb0ee5421be767401db72a6055dc5bc5",
      "networkId": 0,
      "chainId": 0
    },
    {
      "hash": "0x301689121e0fc0beb2b429436463ea4a370dc6cb269a5ba303e92c61813988ac",
      "blockHash": "0x5f480e3afbc54d8f035b33e9cbf177583ed74b84ae6c4bbdcfa1290c15c05b31",
      "blockNumber": 79976,
      "transactionIndex": 1,
      "confirmations": null,
      "from": "0x32Be343B94f860124dC4fEe278FDCBD38C102D88",
      "gasPrice": {
        "_hex": "0xceff7a8de"
      },
      "gasLimit": {
        "_hex": "0x5208"
      },
      "to": "0x4C9560759adF54ABEdd7318d1413C4fA49240074",
      "value": {
        "_hex": "0x4112a420243d1800"
      },
      "nonce": 498,
      "data": "0x",
      "r": "0x197dc157e0e2d7e66942d07f342b6d0bbd45d47e8d729c4207ebcd582379fdf4",
      "s": "0x4f7b9f1fcc1cc3f9fd9fc53feb7442478e0eeb0582bc849bf5e98190deb27776",
      "v": 28,
      "creates": null,
      "raw": "0xf86e8201f2850ceff7a8de825208944c9560759adf54abedd7318d1413c4fa49240074884112a420243d1800801ca0197dc157e0e2d7e66942d07f342b6d0bbd45d47e8d729c4207ebcd582379fdf4a04f7b9f1fcc1cc3f9fd9fc53feb7442478e0eeb0582bc849bf5e98190deb27776",
      "networkId": 0,
      "chainId": 0
    },
    {
      "hash": "0xc25f8f39264ad1c2b493044eca4cb431d782c4a41fa094aaf705b389d26fe60f",
      "blockHash": "0x5f480e3afbc54d8f035b33e9cbf177583ed74b84ae6c4bbdcfa1290c15c05b31",
      "blockNumber": 79976,
      "transactionIndex": 2,
      "confirmations": null,
      "from": "0x32Be343B94f860124dC4fEe278FDCBD38C102D88",
      "gasPrice": {
        "_hex": "0xceff7a8de"
      },
      "gasLimit": {
        "_hex": "0x5208"
      },
      "to": "0x7cA26E2f6d958364eC65090AAf788bD0a67fe130",
      "value": {
        "_hex": "0x3841d025db7e1e000"
      },
      "nonce": 499,
      "data": "0x",
      "r": "0x01a3153570862015935395d71f16f143604b2d7febb0cd5402e9ac4fb4cc20e5",
      "s": "0x604b23c90d0365514a59c12a2a84d908214b5abb6a4155baabf79e13e5afb670",
      "v": 28,
      "creates": null,
      "raw": "0xf86f8201f3850ceff7a8de825208947ca26e2f6d958364ec65090aaf788bd0a67fe1308903841d025db7e1e000801ca001a3153570862015935395d71f16f143604b2d7febb0cd5402e9ac4fb4cc20e5a0604b23c90d0365514a59c12a2a84d908214b5abb6a4155baabf79e13e5afb670",
      "networkId": 0,
      "chainId": 0
    },
    {
      "hash": "0xd87e34ab4528b3d0bd037f7f578dedb89a02864db73139c24d79170b0cf4566f",
      "blockHash": "0x5f480e3afbc54d8f035b33e9cbf177583ed74b84ae6c4bbdcfa1290c15c05b31",
      "blockNumber": 79976,
      "transactionIndex": 3,
      "confirmations": null,
      "from": "0x32Be343B94f860124dC4fEe278FDCBD38C102D88",
      "gasPrice": {
        "_hex": "0xceff7a8de"
      },
      "gasLimit": {
        "_hex": "0x5208"
      },
      "to": "0x2C3d5c472E35947eb8Bf098e5207b0e1f3D1Ef91",
      "value": {
        "_hex": "0xdbd2fc137a30000"
      },
      "nonce": 500,
      "data": "0x",
      "r": "0x7d55fb81f4f364ea6a6124fd8da0a47f801961051e696ef681e50d12272c2962",
      "s": "0x64eddbc793db216c60c8a231e235a7dec1b5274cfb3516b396453c80a0e67dee",
      "v": 28,
      "creates": null,
      "raw": "0xf86e8201f4850ceff7a8de825208942c3d5c472e35947eb8bf098e5207b0e1f3d1ef91880dbd2fc137a30000801ca07d55fb81f4f364ea6a6124fd8da0a47f801961051e696ef681e50d12272c2962a064eddbc793db216c60c8a231e235a7dec1b5274cfb3516b396453c80a0e67dee",
      "networkId": 0,
      "chainId": 0
    }
  ]
}