{
  "hash": "0x3e0d7244c4439f996b969bf8ce16827e90c1967af332dfe7127ab1037d78d3b9",
  "parentHash": "0xcc35ac693b4cbfce0bddf4011c018bd27301a6c4b5e9ad734192ac8b16e346e6",
  "number": 92694,
  "timestamp": 1439675706,
  "nonce": "0x5c1a9c2a21571092",
  "difficulty": 3591065760907,
  "gasLimit": {
    "_hex": "0x2fefd8"
  },
  "gasUsed": {
    "_hex": "0x5208"
  },
  "miner": "0x0eDEd3DA479d0beF8eeC92A76644D3f4E3C177f7",
  "extraData": "0x476574682f76312e302e312f6c696e75782f676f312e342e32",
  "transactions": [
    {
      "hash": "0xddb0ae7e099d62f6102e318fb2d7cd77f6d59425c7899f3fabedba052eea9f4e",
      "blockHash": "0x3e0d7244c4439f996b969bf8ce16827e90c1967af332dfe7127ab1037d78d3b9",
      "blockNumber": 92694,
      "transactionIndex": 0,
      "confirmations": null,
      "from": "0x23ac86f02C0e12C822b2c991b4602fbd79EAB8Ed",
      "gasPrice": {
        "_hex": "0xba43b7400"
      },
      "gasLimit": {
        "_hex": "0x5208"
      },
      "to": "0xC47Aaa860008be6f65B58c6C6E02a84e666EfE31",
      "value": {
        "_hex": "0x4aecec6b8e186000"
      },
      "nonce": 1,
      "data": "0x",
      "r": "0xc07f2a3cbe3aa2835d66cb8b9da5cc5cb36f45c185cb584c76a7ba743d32e91f",
      "s": "0x6ba6e6a8ed5f7ac944af8fb2caa7dcaded78dba7fed4d4117e986dee5acb4e18",
      "v": 28,
      "creates": null,
      "raw": "0xf86c01850ba43b740082520894c47aaa860008be6f65b58c6c6e02a84e666efe31884aecec6b8e186000801ca0c07f2a3cbe3aa2835d66cb8b9da5cc5cb36f45c185cb584c76a7ba743d32e91fa06ba6e6a8ed5f7ac944af8fb2caa7dcaded78dba7fed4d4117e986dee5acb4e18",
      "networkId": 0,
      "chainId": 0
    }
  ]
}