{
  "hash": "0x77cdf5e02497a383008463558f8c7ed0065cb9900f4adfabf15bb26a76e9222e",
  "parentHash": "0x49ba9407e3d6ef13158269bc17d894aa6152cbb4f7dbb517c5186477e2f2b1c1",
  "number": 62003,
  "timestamp": 1439181712,
  "nonce": "0xf53f471773cd0dd9",
  "difficulty": 1745445749636,
  "gasLimit": {
    "_hex": "0x2fefd8"
  },
  "gasUsed": {
    "_hex": "0x5208"
  },
  "miner": "0x4F85e43F44D2B0e6f57C9355806cE3e1B3F40Ab8",
  "extraData": "0x476574682f76312e302e312f6c696e75782f676f312e342e32",
  "transactions": [
    {
      "hash": "0x5665eb65871b1e3b33e3e705f2b1e1a384524204102dfbc2c833490ba03b999b",
      "blockHash": "0x77cdf5e02497a383008463558f8c7ed0065cb9900f4adfabf15bb26a76e9222e",
      "blockNumber": 62003,
      "transactionIndex": 0,
      "confirmations": null,
      "from": "0xE2376E68D8260aC85EA789CA4fAcce34a816dDeC",
      "gasPrice": {
        "_hex": "0xd876d14af"
      },
      "gasLimit": {
        "_hex": "0x15f90"
      },
      "to": "0x828B10061A800ddd5F632023F3A56C58065F5f90",
      "value": {
        "_hex": "0xde0b6b3a7640000"
      },
      "nonce": 0,
      "data": "0x",
      "r": "0xc1756b423640701f35191883bc468a2e8090842fd4116c16eca8209139302255",
      "s": "0x7da351709f311fad9a77cf3ab150ce6b4c39841f6c659a8a13c08905d21af88b",
      "v": 28,
      "creates": null,
      "raw": "0xf86d80850d876d14af83015f9094828b10061a800ddd5f632023f3a56c58065f5f90880de0b6b3a7640000801ca0c1756b423640701f35191883bc468a2e8090842fd4116c16eca8209139302255a07da351709f311fad9a77cf3ab150ce6b4c39841f6c659a8a13c08905d21af88b",
      "networkId": 0,
      "chainId": 0
    }
  ]
}