{
  "hash": "0x8bc331f1fd35c220da0a229fe2c521d54b3471db49b54ac6ce0160bdae7f8f5e",
  "parentHash": "0xd77928a5b4993c1c971996aef2d7d0d07bc66d0d14ec01fe1308f9b999b7578d",
  "number": 120550,
  "timestamp": 1440161735,
  "nonce": "0xdf09800541be58a6",
  "difficulty": 4432640862190,
  "gasLimit": {
    "_hex": "0x2fefd8"
  },
  "gasUsed": {
    "_hex": "0x546c"
  },
  "miner": "0xe6A7a1d47ff21B6321162AEA7C6CB457D5476Bca",
  "extraData": "0xd783010002844765746887676f312e342e32856c696e7578",
  "transactions": [
    {
      "hash": "0x0f023c64e4d4b84534476b68432e5f5a29e08f02523d98397ccd3b70c083e71a",
      "blockHash": "0x8bc331f1fd35c220da0a229fe2c521d54b3471db49b54ac6ce0160bdae7f8f5e",
      "blockNumber": 120550,
      "transactionIndex": 0,
      "confirmations": null,
      "from": "0xd0DF24FD0DfcDc3850D1590dAA1D03ca7706b11B",
      "gasPrice": {
        "_hex": "0xba43b7400"
      },
      "gasLimit": {
        "_hex": "0x55f0"
      },
      "to": "0x2910543Af39abA0Cd09dBb2D50200b3E800A63D2",
      "value": {
        "_hex": "0x62030a54ce3240000"
      },
      "nonce": 14,
      "data": "0x454e364832354d3230",
      "r": "0x9b1e2f55ebde14ac4a738f044f221efdc4963531c8a3d43e729eab4f3ef0ad62",
      "s": "0x0010b0eb035cabd1ef923f6baa434adeb33898acdc91b054a60a3dd2d8a263ee",
      "v": 27,
      "creates": null,
      "raw": "0xf8750e850ba43b74008255f0942910543af39aba0cd09dbb2d50200b3e800a63d289062030a54ce324000089454e364832354d32301ba09b1e2f55ebde14ac4a738f044f221efdc4963531c8a3d43e729eab4f3ef0ad629f10b0eb035cabd1ef923f6baa434adeb33898acdc91b054a60a3dd2d8a263ee",
      "networkId": 0,
      "chainId": 0
    }
  ]
}