{
  "hash": "0x4a9e626d660d732c55179c20465d169f60111163599cceffa09600d0ad041512",
  "parentHash": "0xe42d21e4d3edfce27143db517603120484790e3db752616231c889c986428c73",
  "number": 59244,
  "timestamp": 1439134792,
  "nonce": "0x4260b4e0f2ec076b",
  "difficulty": 1703076837745,
  "gasLimit": {
    "_hex": "0x2fefd8"
  },
  "gasUsed": {
    "_hex": "0xf618"
  },
  "miner": "0x123843545FB525C8E134c9A5F15ADA6865cc3848",
  "extraData": "0x476574682f76312e302e312f77696e646f77732f676f312e342e32",
  "transactions": [
    {
      "hash": "0x4ca90c837ce73f64ae27b67e9cad0e5690deea8b46ced6aa948f2fd4b7328f6d",
      "blockHash": "0x4a9e626d660d732c55179c20465d169f60111163599cceffa09600d0ad041512",
      "blockNumber": 59244,
      "transactionIndex": 0,
      "confirmations": null,
      "from": "0xF2d2AfF1320476cb8C6b607199D23175cc595693",
      "gasPrice": {
        "_hex": "0xdff2cfcce"
      },
      "gasLimit": {
        "_hex": "0x15f90"
      },
      "to": "0xF5EeDc192aB70b08D8354384aD94efD095849E00",
      "value": {
        "_hex": "0x332ca1b67940c0000"
      },
      "nonce": 15,
      "data": "0x",
      "r": "0x0d83dd5b9b9cdfbf3720a74a04eee9eb86bcfb393099ece021388a20129fa004",
      "s": "0x0d24e76dbc8c48b7f462bceb99bedfd9533d475455f4569160de9a054964c715",
      "v": 28,
      "creates": null,
      "raw": "0xf86e0f850dff2cfcce83015f9094f5eedc192ab70b08d8354384ad94efd095849e00890332ca1b67940c0000801ca00d83dd5b9b9cdfbf3720a74a04eee9eb86bcfb393099ece021388a20129fa004a00d24e76dbc8c48b7f462bceb99bedfd9533d475455f4569160de9a054964c715",
      "networkId": 0,
      "chainId": 0
    },
    {
      "hash": "0xfd45f41a572351ebe9a5e9555ec73deb7febf2956ba54a7065ea59dfd2a8e9e3",
      "blockHash": "0x4a9e626d660d732c55179c20465d169f60111163599cceffa09600d0ad041512",
      "blockNumber": 59244,
      "transactionIndex": 1,
      "confirmations": null,
      "from": "0x4c74B6F32c9680aCB5Fe0e72B7Aa95C612540A04",
      "gasPrice": {
        "_hex": "0xcdccd48d7"
      },
      "gasLimit": {
        "_hex": "0x5208"
      },
      "to": "0x32Be343B94f860124dC4fEe278FDCBD38C102D88",
      "value": {
        "_hex": "0x56bc33f0b92850000"
      },
      "nonce": 2,
      "data": "0x",
      "r": "0x2cb29b8794e3f0e35d49bfdc0a2627378dd761dd63421421505e15891932c8f7",
      "s": "0x609fc99d309a3a35261f6e76d3299f720e3a52b90be54362d3f2aefce25fa125",
      "v": 28,
      "creates": null,
      "raw": "0xf86d02850cdccd48d78252089432be343b94f860124dc4fee278fdcbd38c102d8889056bc33f0b92850000801ca02cb29b8794e3f0e35d49bfdc0a2627378dd761dd63421421505e15891932c8f7a0609fc99d309a3a35261f6e76d3299f720e3a52b90be54362d3f2aefce25fa125",
      "networkId": 0,
      "chainId": 0
    },
    {
      "hash": "0xfde059c1706bd7f7cabcae94106b3ccfe94c263121473c03e842740aa2be98cb",
      "blockHash": "0x4a9e626d660d732c55179c20465d169f60111163599cceffa09600d0ad041512",
      "blockNumber": 59244,
      "transactionIndex": 2,
      "confirmations": null,
      "from": "0xB67b6BB30Bb68ED96f23f1fB8C6Da01B3C37F6D4",
      "gasPrice": {
        "_hex": "0xcdccd48d7"
      },
      "gasLimit": {
        "_hex": "0x5208"
      },
      "to": "0x32Be343B94f860124dC4fEe278FDCBD38C102D88",
      "value": {
        "_hex": "0x3635c58ea40e140000"
      },
      "nonce": 2,
      "data": "0x",
      "r": "0x508f3e9db591e0b6c09a2e8cc37aa473549ddd7dbda85b5de078cbe9baa810e1",
      "s": "0x02d40a149f0a38122b8899f0ed5a5be841beca992eeb613b336f4f84282745ff",
      "v": 28,
      "creates": null,
      "raw": "0xf86d02850cdccd48d78252089432be343b94f860124dc4fee278fdcbd38c102d88893635c58ea40e140000801ca0508f3e9db591e0b6c09a2e8cc37aa473549ddd7dbda85b5de078cbe9baa810e1a002d40a149f0a38122b8899f0ed5a5be841beca992eeb613b336f4f84282745ff",
      "networkId": 0,
      "chainId": 0
    }
  ]
}