{
  "hash": "0xb5b60d6cc62aa9fb841b44f273b76e01b8b8aac506233fb1c1e4668fea0ddd0f",
  "parentHash": "0x7f5c420428e2e9b78c2a1834a39bedd1ad661345b70f22062869172a37baf8fb",
  "number": 80735,
  "timestamp": 1439490067,
  "nonce": "0x12867a9cb436ece4",
  "difficulty": 2434491492850,
  "gasLimit": {
    "_hex": "0x2fefd8"
  },
  "gasUsed": {
    "_hex": "0x5208"
  },
  "miner": "0x513cc87Fc09c7Dedae9A780a66dc47ebeE4B5C5A",
  "extraData": "0x",
  "transactions": [
    {
      "hash": "0x8f4c727a12afb8ac5c97ec4571d8bd0950179784ec9d76483b287fab6d71691c",
      "blockHash": "0xb5b60d6cc62aa9fb841b44f273b76e01b8b8aac506233fb1c1e4668fea0ddd0f",
      "blockNumber": 80735,
      "transactionIndex": 0,
      "confirmations": null,
      "from": "0x457a7E74fE5Fe8a2fd3036fa19B7e084869cCd63",
      "gasPrice": {
        "_hex": "0xcfb483b55"
      },
      "gasLimit": {
        "_hex": "0x15f90"
      },
      "to": "0x07DD04f7355E91a3556482a927Dfa3122a2AD580",
      "value": {
        "_hex": "0x38d7ea4c68000"
      },
      "nonce": 0,
      "data": "0x",
      "r": "0xb4d059d5c7b8b09a337be936f48e6b3c9e7ae87bd6ec7147b9ed87f8dfe73b36",
      "s": "0x64285b11914bfdb49a765faa506911e5c3c5ccf659a4814796be80b22b0ecedb",
      "v": 28,
      "creates": null,
      "raw": "0xf86c80850cfb483b5583015f909407dd04f7355e91a3556482a927dfa3122a2ad58087038d7ea4c68000801ca0b4d059d5c7b8b09a337be936f48e6b3c9e7ae87bd6ec7147b9ed87f8dfe73b36a064285b11914bfdb49a765faa506911e5c3c5ccf659a4814796be80b22b0ecedb",
      "networkId": 0,
      "chainId": 0
    }
  ]
}