{
  "hash": "0x8cf2862c92e88f9518789a071175365a33feaf41faeffa1f027017401c83a22e",
  "parentHash": "0x3074abe680624cf59c2779e4d692a0fc6c29f355c7d60110776b1154bcbf4e43",
  "number": 105423,
  "timestamp": 1439887287,
  "nonce": "0xf084883810a87cbe",
  "difficulty": 4378204284495,
  "gasLimit": {
    "_hex": "0x2fefd8"
  },
  "gasUsed": {
    "_hex": "0x5208"
  },
  "miner": "0xe6A7a1d47ff21B6321162AEA7C6CB457D5476Bca",
  "extraData": "0x476574682f76312e302e312d38326566323666362f6c696e75782f676f312e34",
  "transactions": [
    {
      "hash": "0x887be9dee2fe5c08c0c7c10d07fc8963fa74f1974f2438ae5e9ad7595347a5d1",
      "blockHash": "0x8cf2862c92e88f9518789a071175365a33feaf41faeffa1f027017401c83a22e",
      "blockNumber": 105423,
      "transactionIndex": 0,
      "confirmations": null,
      "from": "0xb1abce2918E21ddb93AA452731a12672A3d9F75a",
      "gasPrice": {
        "_hex": "0xdfdee9484"
      },
      "gasLimit": {
        "_hex": "0x5208"
      },
      "to": "0x32Be343B94f860124dC4fEe278FDCBD38C102D88",
      "value": {
        "_hex": "0x8ac2a73e983f0000"
      },
      "nonce": 137,
      "data": "0x",
      "r": "0xe15e2416351e91e062deee4bbe119a273d2bdfa9dbd24bb176d9c3e3f6e8e337",
      "s": "0x0dea0291d036ae4c3670e815b688aca0ade7f73302b322d735550844a7eabb05",
      "v": 27,
      "creates": null,
      "raw": "0xf86d8189850dfdee94848252089432be343b94f860124dc4fee278fdcbd38c102d88888ac2a73e983f0000801ba0e15e2416351e91e062deee4bbe119a273d2bdfa9dbd24bb176d9c3e3f6e8e337a00dea0291d036ae4c3670e815b688aca0ade7f73302b322d735550844a7eabb05",
      "networkId": 0,
      "chainId": 0
    }
  ]
}