{
  "hash": "0x3795f567dd78b9267d677fc4eee23b31d03117ba7837f88905e375baab2fa7b5",
  "parentHash": "0xb55cbcf5084ab10cc36370d3c63dc6aeb677242b62197b7bb14dfc8954fb00f5",
  "number": 86070,
  "timestamp": 1439572994,
  "nonce": "0xb94872353e308f23",
  "difficulty": 2804406066552,
  "gasLimit": {
    "_hex": "0x2fefd8"
  },
  "gasUsed": {
    "_hex": "0x5208"
  },
  "miner": "0xB5EDD17d2582A94610ebf0C6832c1652EBBBe210",
  "extraData": "0x476574682f76312e302e312d38326566323666362f6c696e75782f676f312e34",
  "transactions": [
    {
      "hash": "0x4ab9f5f731440872591936216b9fec502673d34ee0d1023b8de47bcfed229d52",
      "blockHash": "0x3795f567dd78b9267d677fc4eee23b31d03117ba7837f88905e375baab2fa7b5",
      "blockNumber": 86070,
      "transactionIndex": 0,
      "confirmations": null,
      "from": "0x2660299c07076aEB9cEF872a41EAF75E4C16020D",
      "gasPrice": {
        "_hex": "0xd5d26089e"
      },
      "gasLimit": {
        "_hex": "0x15f90"
      },
      "to": "0x23ac86f02C0e12C822b2c991b4602fbd79EAB8Ed",
      "value": {
        "_hex": "0x3e73362871420000"
      },
      "nonce": 0,
      "data": "0x",
      "r": "0xe517b70660932c7ef0b6a5d9da19cd3a7015559d72e1ba7a6d4b5b9f9db8fc3b",
      "s": "0x11a9068847097543828cdaf3b987860f1b53040d7ecdd39a744385038f20090e",
      "v": 28,
      "creates": null,
      "raw": "0xf86d80850d5d26089e83015f909423ac86f02c0e12c822b2c991b4602fbd79eab8ed883e73362871420000801ca0e517b70660932c7ef0b6a5d9da19cd3a7015559d72e1ba7a6d4b5b9f9db8fc3ba011a9068847097543828cdaf3b987860f1b53040d7ecdd39a744385038f20090e",
      "networkId": 0,
      "chainId": 0
    }
  ]
}