{
  "hash": "0xe7b81982d10df0ef2c31e020b30556c9c7a8d54ddcc78b420af0dac99a4de19c",
  "parentHash": "0xc7ae000007b59fbebdf7e5b46c1d2053db6b1b1870562dfcbcfa6ea6bf6d2bac",
  "number": 87252,
  "timestamp": 1439589490,
  "nonce": "0xeaf5b8d75a80c2c6",
  "difficulty": 3076597612194,
  "gasLimit": {
    "_hex": "0x2fefd8"
  },
  "gasUsed": {
    "_hex": "0x5208"
  },
  "miner": "0xEF247E639d49461D25F57e9362CadE3120910Ce0",
  "extraData": "0x476574682f76312e302e312f6c696e75782f676f312e342e32",
  "transactions": [
    {
      "hash": "0xdc33a8851895463ad3313d654b0b66a7e7bd1e8097d8f48974d537344db8c9fe",
      "blockHash": "0xe7b81982d10df0ef2c31e020b30556c9c7a8d54ddcc78b420af0dac99a4de19c",
      "blockNumber": 87252,
      "transactionIndex": 0,
      "confirmations": null,
      "from": "0x30853f0562c79055Fbd88CFFC01A109b346752ba",
      "gasPrice": {
        "_hex": "0xd09625870"
      },
      "gasLimit": {
        "_hex": "0x7530"
      },
      "to": "0xa9f5E7bf6Cbf6fEc55B30850Eb492b47A376d050",
      "value": {
        "_hex": "0x1a055690d9db80000"
      },
      "nonce": 2,
      "data": "0x",
      "r": "0x75b5336274d2b3f1dc7a8f9ec86eef52e7d0e9c65235f534bf30726c21346ada",
      "s": "0x24ef9a713f721c7cb971145a60456a1535c6ef9cd6ee4650fd136683d86d03d5",
      "v": 28,
      "creates": null,
      "raw": "0xf86d02850d0962587082753094a9f5e7bf6cbf6fec55b30850eb492b47a376d0508901a055690d9db80000801ca075b5336274d2b3f1dc7a8f9ec86eef52e7d0e9c65235f534bf30726c21346adaa024ef9a713f721c7cb971145a60456a1535c6ef9cd6ee4650fd136683d86d03d5",
      "networkId": 0,
      "chainId": 0
    }
  ]
}