{
  "hash": "0x39afde423176e52973002949c0c524ed1472e9e84297b1133c10d3f76a29c3e7",
  "parentHash": "0x06177549971adbb0a1d343db8b4bb9289de24b3243f5f2d8e15b6d5df75d5357",
  "number": 119383,
  "timestamp": 1440141849,
  "nonce": "0xf1fb77a16ff06aa5",
  "difficulty": 4418130691219,
  "gasLimit": {
    "_hex": "0x2fefd8"
  },
  "gasUsed": {
    "_hex": "0x14820"
  },
  "miner": "0xe6A7a1d47ff21B6321162AEA7C6CB457D5476Bca",
  "extraData": "0xd783010002844765746887676f312e342e32856c696e7578",
  "transactions": [
    {
      "hash": "0xbcd51e3e025371539e7fcfb9ecdb8e3f2ee7576b529e8857a19b516898031580",
      "blockHash": "0x39afde423176e52973002949c0c524ed1472e9e84297b1133c10d3f76a29c3e7",
      "blockNumber": 119383,
      "transactionIndex": 0,
      "confirmations": null,
      "from": "0xe6A7a1d47ff21B6321162AEA7C6CB457D5476Bca",
      "gasPrice": {
        "_hex": "0xba43b7400"
      },
      "gasLimit": {
        "_hex": "0x55f0"
      },
      "to": "0x0473f2B67b13495f92Cb2155Bb449B3C96d84568",
      "value": {
        "_hex": "0x1a4185cd48882c18"
      },
      "nonce": 6338,
      "data": "0x",
      "r": "0xacdeb1ff9ab498ee9b9843852363020259190f3289e45e792875e4fa0c846807",
      "s": "0x3dcaff35926fca02f85af3eae313a8455fdbbdf20e3d0963e9228afe05fc6cfc",
      "v": 28,
      "creates": null,
      "raw": "0xf86e8218c2850ba43b74008255f0940473f2b67b13495f92cb2155bb449b3c96d84568881a4185cd48882c18801ca0acdeb1ff9ab498ee9b9843852363020259190f3289e45e792875e4fa0c846807a03dcaff35926fca02f85af3eae313a8455fdbbdf20e3d0963e9228afe05fc6cfc",
      "networkId": 0,
      "chainId": 0
    },
    {
      "hash": "0x5a576c0fc60f1a10376f1e85a87ba1ac55cbf41e350bef6d13804cb2e8ad2a33",
      "blockHash": "0x39afde423176e52973002949c0c524ed1472e9e84297b1133c10d3f76a29c3e7",
      "blockNumber": 119383,
      "transactionIndex": 1,
      "confirmations": null,
      "from": "0xe6A7a1d47ff21B6321162AEA7C6CB457D5476Bca",
      "gasPrice": {
        "_hex": "0xba43b7400"
      },
      "gasLimit": {
        "_hex": "0x55f0"
      },
      "to": "0x1cB4D87C5e67d158aF4c3A754a010Dfa64d78cE8",
      "value": {
        "_hex": "0x1a42f0efa79c2324"
      },
      "nonce": 6339,
      "data": "0x",
      "r": "0x4be8362eb19f72575e223794e0d8fef76252ae9791366fdae9f1cd00bb35b51b",
      "s": "0x010263715d4563537cc5d542dd53a765dacb52368e1e505303bccdd4826110f9",
      "v": 27,
      "creates": null,
      "raw": "0xf86e8218c3850ba43b74008255f0941cb4d87c5e67d158af4c3a754a010dfa64d78ce8881a42f0efa79c2324801ba04be8362eb19f72575e223794e0d8fef76252ae9791366fdae9f1cd00bb35b51ba0010263715d4563537cc5d542dd53a765dacb52368e1e505303bccdd4826110f9",
      "networkId": 0,
      "chainId": 0
    },
    {
      "hash": "0x48a26a42a8c302ae76fcf57202d5b3c69ac604e43355308642548d6fbc1f03b2",
      "blockHash": "0x39afde423176e52973002949c0c524ed1472e9e84297b1133c10d3f76a29c3e7",
      "blockNumber": 119383,
      "transactionIndex": 2,
      "confirmations": null,
      "from": "0xa6BDc31c431B8F97848c9D60cbbe9660dc450eB7",
      "gasPrice": {
        "_hex": "0xba43b7400"
      },
      "gasLimit": {
        "_hex": "0x5208"
      },
      "to": "0x32Be343B94f860124dC4fEe278FDCBD38C102D88",
      "value": {
        "_hex": "0x2b5150bddca054000"
      },
      "nonce": 204,
      "data": "0x",
      "r": "0x9d90fb7bb2c4a68642649b5ad7233eeadeab4d20086b4d9c89b8af4d9e604030",
      "s": "0x77f3c58c7d7e9d9914058a80d3feb66312420ca951d24d7f150e707d683a9e2b",
      "v": 28,
      "creates": null,
      "raw": "0xf86e81cc850ba43b74008252089432be343b94f860124dc4fee278fdcbd38c102d888902b5150bddca054000801ca09d90fb7bb2c4a68642649b5ad7233eeadeab4d20086b4d9c89b8af4d9e604030a077f3c58c7d7e9d9914058a80d3feb66312420ca951d24d7f150e707d683a9e2b",
      "networkId": 0,
      "chainId": 0
    },
    {
      "hash": "0x8480cfe627fa080c0f5ab695d243435a2ecda44ef1b1c4455a135b20a8157a9b",
      "blockHash": "0x39afde423176e52973002949c0c524ed1472e9e84297b1133c10d3f76a29c3e7",
      "blockNumber": 119383,
      "transactionIndex": 3,
      "confirmations": null,
      "from": "0xe6A7a1d47ff21B6321162AEA7C6CB457D5476Bca",
      "gasPrice": {
        "_hex": "0xba43b7400"
      },
      "gasLimit": {
        "_hex": "0x55f0"
      },
      "to": "0x7af25C80793a1CBaBE39Ac9d604729017d9E4001",
      "value": {
        "_hex": "0x1db2ece44e9bcc0c"
      },
      "nonce": 6340,
      "data": "0x",
      "r": "0x3dc98e56d13a344336958e3556165804c4c7af0166081e10f8f6ccce99ba5fff",
      "s": "0x74e912fd66f44a028de2f7bdb20cca9e2504b4cae85bf67e8d9387749dc44fd9",
      "v": 27,
      "creates": null,
      "raw": "0xf86e8218c4850ba43b74008255f0947af25c80793a1cbabe39ac9d604729017d9e4001881db2ece44e9bcc0c801ba03dc98e56d13a344336958e3556165804c4c7af0166081e10f8f6ccce99ba5fffa074e912fd66f44a028de2f7bdb20cca9e2504b4cae85bf67e8d9387749dc44fd9",
      "networkId": 0,
      "chainId": 0
    }
  ]
}