{
  "hash": "0x45c4b85be35d5a9cb68e474c3deade8b08f2cf958288297fc4f9c9659bfc460f",
  "parentHash": "0x152b0ce01a7cbf3db9902845387ebd17bf53c8b37c4593aeff26389cbc2e43b5",
  "number": 116870,
  "timestamp": 1440098981,
  "nonce": "0x1956db5cd29ecb0c",
  "difficulty": 4323406361191,
  "gasLimit": {
    "_hex": "0x2fefd8"
  },
  "gasUsed": {
    "_hex": "0x29c6a"
  },
  "miner": "0xC99478b218E58F45783fA70f0507cf614938E67d",
  "extraData": "0xd983010002844765746887676f312e342e328777696e646f7773",
  "transactions": [
    {
      "hash": "0xfffdea6b386419ed4b1ab78a5ae8a777f5684f585b0471814f820e5b634bf177",
      "blockHash": "0x45c4b85be35d5a9cb68e474c3deade8b08f2cf958288297fc4f9c9659bfc460f",
      "blockNumber": 116870,
      "transactionIndex": 0,
      "confirmations": null,
      "from": "0x9b22a80D5c7B3374a05b446081f97d0A34079e7F",
      "gasPrice": {
        "_hex": "0xba43b7400"
      },
      "gasLimit": {
        "_hex": "0x4230a"
      },
      "to": "0x816c42608bC6Ad894A7d788129c408A18241FF55",
      "value": {
        "_hex": "0x0"
      },
      "nonce": 14,
      "data": "0xb61d27f6000000000000000000000000b1a2b43a7433dd150bb82227ed519cd6b142d38200000000000000000000000000000000000000000000000003df350594558000000000000000000000000000000000000000000000000000000000000000006000000000000000000000000000000000000000000000000000000000000000000000000000000000000000000000000000000000000000000000000000000000",
      "r": "0xc31e303eb24cba871b02f305ac0d27ebb59e731dd12cbc0601fdb781742cdcb8",
      "s": "0x07529be7f27a7c5e85ecad77eb5a4dbde08f769f5d59a2ae36d7334f44bf43a9",
      "v": 27,
      "creates": null,
      "raw": "0xf9010a0e850ba43b74008304230a94816c42608bc6ad894a7d788129c408a18241ff5580b8a4b61d27f6000000000000000000000000b1a2b43a7433dd150bb82227ed519cd6b142d38200000000000000000000000000000000000000000000000003df3505945580000000000000000000000000000000000000000000000000000000000000000060000000000000000000000000000000000000000000000000000000000000000000000000000000000000000000000000000000000000000000000000000000001ba0c31e303eb24cba871b02f305ac0d27ebb59e731dd12cbc0601fdb781742cdcb8a007529be7f27a7c5e85ecad77eb5a4dbde08f769f5d59a2ae36d7334f44bf43a9",
      "networkId": 0,
      "chainId": 0
    }
  ]
}