{
  "hash": "0x1f6ea7078e4c816794f1ae8fcd9faa1c299bb77ea1672d2b065cc956621bdfd2",
  "parentHash": "0x26b3c84be83da656253c70216db947b78530a94726cf58ab9bfd0208b9bf2e37",
  "number": 107785,
  "timestamp": 1439928827,
  "nonce": "0xf8cdc786d6b2b250",
  "difficulty": 4364167282075,
  "gasLimit": {
    "_hex": "0x2fefd8"
  },
  "gasUsed": {
    "_hex": "0x5208"
  },
  "miner": "0xe6A7a1d47ff21B6321162AEA7C6CB457D5476Bca",
  "extraData": "0x476574682f76312e302e312d38326566323666362f6c696e75782f676f312e34",
  "transactions": [
    {
      "hash": "0x952e3c7731d3ec371972a2dcf56bd6e9499bf5dd19161bca153904da6e114601",
      "blockHash": "0x1f6ea7078e4c816794f1ae8fcd9faa1c299bb77ea1672d2b065cc956621bdfd2",
      "blockNumber": 107785,
      "transactionIndex": 0,
      "confirmations": null,
      "from": "0x6BED894B45159c6001dfbC5bd6257A10B9eF2202",
      "gasPrice": {
        "_hex": "0xd58d055dd"
      },
      "gasLimit": {
        "_hex": "0x15f90"
      },
      "to": "0xC4Cefd8e233244EE0b01B083a8a01D2cfca86910",
      "value": {
        "_hex": "0x0"
      },
      "nonce": 6,
      "data": "0x",
      "r": "0x8eae1fa4e48d00aa42045c9c19b1789a50acdd7520039491ee7e54ec1509482a",
      "s": "0x09184e9c1d7196de4d0f022e628c1ca155fa1db86ee13315ca9528070a37043d",
      "v": 27,
      "creates": null,
      "raw": "0xf86506850d58d055dd83015f9094c4cefd8e233244ee0b01b083a8a01d2cfca8691080801ba08eae1fa4e48d00aa42045c9c19b1789a50acdd7520039491ee7e54ec1509482aa009184e9c1d7196de4d0f022e628c1ca155fa1db86ee13315ca9528070a37043d",
      "networkId": 0,
      "chainId": 0
    }
  ]
}