{
  "hash": "0x60117e883ede625a2763d777bff707fdcb80684c2c00d911a6b88b2726304532",
  "parentHash": "0xfcfd51360b4bad625056a1b734fbe85a7fa6cb20095734196b8466cc37cf96d3",
  "number": 73400,
  "timestamp": 1439368805,
  "nonce": "0xf89518374e4d2626",
  "difficulty": 2195936019089,
  "gasLimit": {
    "_hex": "0x2fefd8"
  },
  "gasUsed": {
    "_hex": "0x101f5"
  },
  "miner": "0x580992B51e3925e23280EfB93d3047C82f17E038",
  "extraData": "0x476574682f76312e302e312f6c696e75782f676f312e342e32",
  "transactions": [
    {
      "hash": "0xd68133662ba5a4fc86abae585a9d0d177725bf83e3fde60ede7d28f3404fd361",
      "blockHash": "0x60117e883ede625a2763d777bff707fdcb80684c2c00d911a6b88b2726304532",
      "blockNumber": 73400,
      "transactionIndex": 0,
      "confirmations": null,
      "from": "0x87C5B5874A18B4306DF8a752a6C8cc3E82daFc19",
      "gasPrice": {
        "_hex": "0x107c8cc98d3"
      },
      "gasLimit": {
        "_hex": "0x493e0"
      },
      "to": "0xDf595d10E76EffaBB38FB3ddFAF89a4Bd50Acf0f",
      "value": {
        "_hex": "0x0"
      },
      "nonce": 6,
      "data": "0x03750d94000000000000000000000000326be8f71bfb0379f989aab1cc1fe37f0a771f60624b6839546d6a6832757955304d566a00000000000000000000000000000000",
      "r": "0x848c459b7dbebca323d8b9c3490ddeba7530a1a2a969890d3ca3432225e9a89a",
      "s": "0x7b05a9a11a8032457845a792983d9b73341e137d2acdab4fc44d2cfcdd872ad4",
      "v": 28,
      "creates": null,
      "raw": "0xf8ab06860107c8cc98d3830493e094df595d10e76effabb38fb3ddfaf89a4bd50acf0f80b84403750d94000000000000000000000000326be8f71bfb0379f989aab1cc1fe37f0a771f60624b6839546d6a6832757955304d566a000000000000000000000000000000001ca0848c459b7dbebca323d8b9c3490ddeba7530a1a2a969890d3ca3432225e9a89aa07b05a9a11a8032457845a792983d9b73341e137d2acdab4fc44d2cfcdd872ad4",
      "networkId": 0,
      "chainId": 0
    },
    {
      "hash": "0x8efa8fdf37d2dc726f52e487958e76fb974cf7159591b5f7e4d82d7d545006e9",
      "blockHash": "0x60117e883ede625a2763d777bff707fdcb80684c2c00d911a6b88b2726304532",
      "blockNumber": 73400,
      "transactionIndex": 1,
      "confirmations": null,
      "from": "0xf4B1114a02EFe852013277F28ed88734Fa81E54f",
      "gasPrice": {
        "_hex": "0xdf5f42e1e"
      },
      "gasLimit": {
        "_hex": "0x15f90"
      },
      "to": "0xc6d9d2cD449A754c494264e1809c50e34D64562b",
      "value": {
        "_hex": "0x3bd913e6c1df40000"
      },
      "nonce": 2,
      "data": "0x432ced0448484b4200000000000000000000000000000000000000000000000000000000",
      "r": "0xa391670f00545e18f06eaf704054f236321f6180ec10881c6a5c85a84362747a",
      "s": "0x60f0ef448d577f368915e20e693c97b5a34c76ff35971ab529f8ece72db0d138",
      "v": 27,
      "creates": null,
      "raw": "0xf89202850df5f42e1e83015f9094c6d9d2cd449a754c494264e1809c50e34d64562b8903bd913e6c1df40000a4432ced0448484b42000000000000000000000000000000000000000000000000000000001ba0a391670f00545e18f06eaf704054f236321f6180ec10881c6a5c85a84362747aa060f0ef448d577f368915e20e693c97b5a34c76ff35971ab529f8ece72db0d138",
      "networkId": 0,
      "chainId": 0
    }
  ]
}