{
  "hash": "0x537d8514274d2470ca2cbdd9868c2604754ff66ee0939276d2f989428dac96a4",
  "parentHash": "0x6d80618f67e3d8938e42c07a8d231381659d90d1cf411c3291cbe39dd3a28ae8",
  "number": 114224,
  "timestamp": 1440036979,
  "nonce": "0x81d59739a0bc2f23",
  "difficulty": 4444657357512,
  "gasLimit": {
    "_hex": "0x2fefd8"
  },
  "gasUsed": {
    "_hex": "0x546c"
  },
  "miner": "0xe6A7a1d47ff21B6321162AEA7C6CB457D5476Bca",
  "extraData": "0x476574682f76312e302e312d38326566323666362f6c696e75782f676f312e34",
  "transactions": [
    {
      "hash": "0x83525174cceb24b69c27f3da0d73edb2cab38691d05afb90e312780904adbb63",
      "blockHash": "0x537d8514274d2470ca2cbdd9868c2604754ff66ee0939276d2f989428dac96a4",
      "blockNumber": 114224,
      "transactionIndex": 0,
      "confirmations": null,
      "from": "0x514B7512C9aE5Ea63cBF11715b63f21E18d296C1",
      "gasPrice": {
        "_hex": "0x110c8f7d8de"
      },
      "gasLimit": {
        "_hex": "0xc350"
      },
      "to": "0x2910543Af39abA0Cd09dBb2D50200b3E800A63D2",
      "value": {
        "_hex": "0xaca832f55bd420000"
      },
      "nonce": 1,
      "data": "0x454e37415555584247",
      "r": "0x8cfc19859e01d55711e2a7904cff797d51bffbf9ac6813b3873ce24e58329c67",
      "s": "0xf8cc7f254f47191dd4bf431b57ab229adc40c91fdc405cb0d67b7023a141ed16",
      "v": 27,
      "creates": null,
      "raw": "0xf87701860110c8f7d8de82c350942910543af39aba0cd09dbb2d50200b3e800a63d2890aca832f55bd42000089454e374155555842471ba08cfc19859e01d55711e2a7904cff797d51bffbf9ac6813b3873ce24e58329c67a0f8cc7f254f47191dd4bf431b57ab229adc40c91fdc405cb0d67b7023a141ed16",
      "networkId": 0,
      "chainId": 0
    }
  ]
}