{
  "hash": "0xccee0ad37dfefd4d95a6417a190ccdd77af624bf40af11c470a031cfaafc4768",
  "parentHash": "0xf88552a9fcbb8680410aa2d33b4bf8c899de8887dc52a1d427385d02b18cc2f4",
  "number": 81727,
  "timestamp": 1439506729,
  "nonce": "0x6cbd7b321b02427e",
  "difficulty": 2427082597351,
  "gasLimit": {
    "_hex": "0x2fefd8"
  },
  "gasUsed": {
    "_hex": "0x5208"
  },
  "miner": "0xe6A7a1d47ff21B6321162AEA7C6CB457D5476Bca",
  "extraData": "0x476574682f76312e302e312d38326566323666362f6c696e75782f676f312e34",
  "transactions": [
    {
      "hash": "0xe5a0b14cebb8e58968e83adf67e7bc95567f5d3dca9a8a15fc6564d02c9d230d",
      "blockHash": "0xccee0ad37dfefd4d95a6417a190ccdd77af624bf40af11c470a031cfaafc4768",
      "blockNumber": 81727,
      "transactionIndex": 0,
      "confirmations": null,
      "from": "0x2910543Af39abA0Cd09dBb2D50200b3E800A63D2",
      "gasPrice": {
        "_hex": "0xdde252898"
      },
      "gasLimit": {
        "_hex": "0x5208"
      },
      "to": "0x79b3CC55449605B142479d28864956bd9e18f283",
      "value": {
        "_hex": "0x56bb59ab42b2f8000"
      },
      "nonce": 497,
      "data": "0x",
      "r": "0x7b9a4cdcb5b073d8cd69f721b592dddbdd5f4b24d569fa06e0ec099ca812484c",
      "s": "0x41412ac01019cfa6b60a95aa30f985a85f52a8d15f606fc8a06d154484ecd777",
      "v": 27,
      "creates": null,
      "raw": "0xf86f8201f1850dde2528988252089479b3cc55449605b142479d28864956bd9e18f28389056bb59ab42b2f8000801ba07b9a4cdcb5b073d8cd69f721b592dddbdd5f4b24d569fa06e0ec099ca812484ca041412ac01019cfa6b60a95aa30f985a85f52a8d15f606fc8a06d154484ecd777",
      "networkId": 0,
      "chainId": 0
    }
  ]
}