{
  "hash": "0x398fd53385bb4ae81f5ace0bc476224d64cfa7e480b64284a9fa5fb1af427e9a",
  "parentHash": "0x16a3eb23d38c724eccc7dcdce3c6b7d53e97e5d536a8febd96102af0ff16fea2",
  "number": 60850,
  "timestamp": 1439162686,
  "nonce": "0x7a44c9f09a97c305",
  "difficulty": 1731255094085,
  "gasLimit": {
    "_hex": "0x2fefd2"
  },
  "gasUsed": {
    "_hex": "0x546c"
  },
  "miner": "0x19e83223b783b5c6673c06b06E093de7E85F3F87",
  "extraData": "0x",
  "transactions": [
    {
      "hash": "0x942197c5319d418d937817459e4df8b1d12b4ae7fa580e5c4d6e251c2ae9691c",
      "blockHash": "0x398fd53385bb4ae81f5ace0bc476224d64cfa7e480b64284a9fa5fb1af427e9a",
      "blockNumber": 60850,
      "transactionIndex": 0,
      "confirmations": null,
      "from": "0x24bD5904059091d2f9E12d6a26A010CA22ab14E8",
      "gasPrice": {
        "_hex": "0xde275990f"
      },
      "gasLimit": {
        "_hex": "0x55f0"
      },
      "to": "0x2910543Af39abA0Cd09dBb2D50200b3E800A63D2",
      "value": {
        "_hex": "0x4563918244f40000"
      },
      "nonce": 1,
      "data": "0x454e344e5943484a38",
      "r": "0x7daafdbc4365fbe1a2b0655ac1eaa669776a6da16b31a3b8e42e033a8b74d56e",
      "s": "0x5ca8f262ecd5f236371e45f02a8f2a33fadc10e66afa28b548e6c59986361149",
      "v": 27,
      "creates": null,
      "raw": "0xf87501850de275990f8255f0942910543af39aba0cd09dbb2d50200b3e800a63d2884563918244f4000089454e344e5943484a381ba07daafdbc4365fbe1a2b0655ac1eaa669776a6da16b31a3b8e42e033a8b74d56ea05ca8f262ecd5f236371e45f02a8f2a33fadc10e66afa28b548e6c59986361149",
      "networkId": 0,
      "chainId": 0
    }
  ]
}