{
  "hash": "0xec3a54b39294e06b348f659192321dd581128b4858b796c436b45297d77e7cd9",
  "parentHash": "0x3155744299270ecef4443b126fb56702a5f2b49a9b32c1ad3714bb711ce9faff",
  "number": 52822,
  "timestamp": 1439027806,
  "nonce": "0x6568f3b2f5a17e59",
  "difficulty": 1571683578730,
  "gasLimit": {
    "_hex": "0x1a5fdd"
  },
  "gasUsed": {
    "_hex": "0x927c0"
  },
  "miner": "0x9746c7e1ef2bd21FF3997fa467593a89cb852BD0",
  "extraData": "0x476574682f76312e302e312f77696e646f77732f676f312e342e32",
  "transactions": [
    {
      "hash": "0x512ed2f41e69b64911c0d9c309ac4b48c13c2bcd7aaf610003d9241d782ec2ee",
      "blockHash": "0xec3a54b39294e06b348f659192321dd581128b4858b796c436b45297d77e7cd9",
      "blockNumber": 52822,
      "transactionIndex": 0,
      "confirmations": null,
      "from": "0x827531A6c5817Ae35F82b00B9754FCf74c55E232",
      "gasPrice": {
        "_hex": "0xd38e14218"
      },
      "gasLimit": {
        "_hex": "0x927c0"
      },
      "to": "0x109C4f2CCc82C4d77Bde15F306707320294Aea3F",
      "value": {
        "_hex": "0xde0b6b3a7640000"
      },
      "nonce": 3,
      "data": "0x",
      "r": "0xf252fc3367f1a605114c87fcb367f2ae18591ffc5f88854a803a2020f3e78e26",
      "s": "0x3c5d427c1f542b15728aa6289696ef7d7df188924efa34f9eaedea26322601b0",
      "v": 27,
      "creates": null,
      "raw": "0xf86d03850d38e14218830927c094109c4f2ccc82c4d77bde15f306707320294aea3f880de0b6b3a7640000801ba0f252fc3367f1a605114c87fcb367f2ae18591ffc5f88854a803a2020f3e78e26a03c5d427c1f542b15728aa6289696ef7d7df188924efa34f9eaedea26322601b0",
      "networkId": 0,
      "chainId": 0
    }
  ]
}