{
  "hash": "0x5754f521adbcb04d9c5d3b7ed48b36ed5f96c5d57d3cdebd65ced2e902797167",
  "parentHash": "0xaf3e32be590675e2230d9cf5dc9968563152f8050f65c21f19dfc12c173e4ac7",
  "number": 83012,
  "timestamp": 1439528512,
  "nonce": "0xc86637cdfbaa0e8a",
  "difficulty": 2409002004153,
  "gasLimit": {
    "_hex": "0x2fefd8"
  },
  "gasUsed": {
    "_hex": "0x5208"
  },
  "miner": "0xfE2C95361cCA1471A07C29386d6be561faA10D84",
  "extraData": "0x",
  "transactions": [
    {
      "hash": "0x88161975e00dc66f5c51f2beb9d3516ca3f6c8b4e7101eae26dd4adee57c84be",
      "blockHash": "0x5754f521adbcb04d9c5d3b7ed48b36ed5f96c5d57d3cdebd65ced2e902797167",
      "blockNumber": 83012,
      "transactionIndex": 0,
      "confirmations": null,
      "from": "0xa70a9a7040d542C632D8e0bE7c5513A8a5Bbc752",
      "gasPrice": {
        "_hex": "0xccffd6110"
      },
      "gasLimit": {
        "_hex": "0x5208"
      },
      "to": "0x32Be343B94f860124dC4fEe278FDCBD38C102D88",
      "value": {
        "_hex": "0x478a930b3f9b0000"
      },
      "nonce": 68,
      "data": "0x",
      "r": "0xc3a07f9ae24a1473d9c41758f1aa8eaf4f244babef0d39a138bc957d46851abc",
      "s": "0x0a008eac5f1c65e45714576d816f6330af0b437187eeb7574e355e1ebd5679eb",
      "v": 28,
      "creates": null,
      "raw": "0xf86c44850ccffd61108252089432be343b94f860124dc4fee278fdcbd38c102d8888478a930b3f9b0000801ca0c3a07f9ae24a1473d9c41758f1aa8eaf4f244babef0d39a138bc957d46851abca00a008eac5f1c65e45714576d816f6330af0b437187eeb7574e355e1ebd5679eb",
      "networkId": 0,
      "chainId": 0
    }
  ]
}