{
  "hash": "0xc4d189c2ddbb1f139e842752d503787478846f20776e30ed4634a47a462ab1a9",
  "parentHash": "0xf5289ef5c02d2641340b38abddd74263c20daaa0ba1b8aa262ecec880d4a78d4",
  "number": 75127,
  "timestamp": 1439398103,
  "nonce": "0xa954adf0860096e7",
  "difficulty": 2192270291580,
  "gasLimit": {
    "_hex": "0x2fefd8"
  },
  "gasUsed": {
    "_hex": "0x5208"
  },
  "miner": "0xbb7B8287f3F0a933474a79eAe42CBCa977791171",
  "extraData": "0x476574682f4c5649562f76312e302e312f6c696e75782f676f312e342e32",
  "transactions": [
    {
      "hash": "0xdfa9fbbb68d6e21a339a2b0e44187fa48a44721738b22f4cbbe3f1caa6f3dcb4",
      "blockHash": "0xc4d189c2ddbb1f139e842752d503787478846f20776e30ed4634a47a462ab1a9",
      "blockNumber": 75127,
      "transactionIndex": 0,
      "confirmations": null,
      "from": "0x120A270bbC009644e35F0bB6ab13f95b8199c4ad",
      "gasPrice": {
        "_hex": "0xd03246560"
      },
      "gasLimit": {
        "_hex": "0x3d090"
      },
      "to": "0xD471D70e80FfBE99bA58A42b10Fe81c49379C8ec",
      "value": {
        "_hex": "0x15af1d78b58c40000"
      },
      "nonce": 290,
      "data": "0x",
      "r": "0x781415ab31112aab36dd3c4b17b2c4ea36b77d2c465d0939bd7f46f18e6c3e15",
      "s": "0x3565b66411a396c9eddf32761ae90257793d7e88ff49b23919f8fc27d05288b6",
      "v": 27,
      "creates": null,
      "raw": "0xf870820122850d032465608303d09094d471d70e80ffbe99ba58a42b10fe81c49379c8ec89015af1d78b58c40000801ba0781415ab31112aab36dd3c4b17b2c4ea36b77d2c465d0939bd7f46f18e6c3e15a03565b66411a396c9eddf32761ae90257793d7e88ff49b23919f8fc27d05288b6",
      "networkId": 0,
      "chainId": 0
    }
  ]
}