{
  "hash": "0xd9bf710327e0d5702e8ed64a326b5177eb15646ad6f3a8ec0bd3308494f6e1ad",
  "parentHash": "0xa253f60f4e1cdc56029628c89642b105a27f6a81ed658f9ce459148cf0a5b002",
  "number": 82817,
  "timestamp": 1439525687,
  "nonce": "0x95fd807206fc7d17",
  "difficulty": 2379829316074,
  "gasLimit": {
    "_hex": "0x2fefd8"
  },
  "gasUsed": {
    "_hex": "0x5208"
  },
  "miner": "0x688d4CACaCCc92e6914549710594BC6aa994F569",
  "extraData": "0x476574682f76312e302e312d38326566323666362f6c696e75782f676f312e34",
  "transactions": [
    {
      "hash": "0x46081f0b812b0043a8d2546bb1a5ce46567fb7b9a11dd6e203e001907b7ea359",
      "blockHash": "0xd9bf710327e0d5702e8ed64a326b5177eb15646ad6f3a8ec0bd3308494f6e1ad",
      "blockNumber": 82817,
      "transactionIndex": 0,
      "confirmations": null,
      "from": "0xa8a8dbdD1A85D1Beee2569E91cCc4D09Ae7F6Ea1",
      "gasPrice": {
        "_hex": "0xd7d40ace3"
      },
      "gasLimit": {
        "_hex": "0x7a120"
      },
      "to": "0xA18fa51c09A433d69c02261Ae6f708115c8a2642",
      "value": {
        "_hex": "0xde0b6b3a7640000"
      },
      "nonce": 0,
      "data": "0x",
      "r": "0x8760fe55b8d1fd578c233f21f76838a49f747b204d5856f50e560fc9ac793d96",
      "s": "0x3a50a11869062deb2b493c5e5a3f14c4c74c1cad9d39b6d4c12b779d90591ffc",
      "v": 27,
      "creates": null,
      "raw": "0xf86d80850d7d40ace38307a12094a18fa51c09a433d69c02261ae6f708115c8a2642880de0b6b3a7640000801ba08760fe55b8d1fd578c233f21f76838a49f747b204d5856f50e560fc9ac793d96a03a50a11869062deb2b493c5e5a3f14c4c74c1cad9d39b6d4c12b779d90591ffc",
      "networkId": 0,
      "chainId": 0
    }
  ]
}