{
  "hash": "0xb79994a99ecd8a8438cea0df27401a315d34f1ce85c10e4509d3343e930e932c",
  "parentHash": "0xbe367db399eec4c841fd0c49e293ba0e3583d905d2f9524b93c7d3acc7462afb",
  "number": 98443,
  "timestamp": 1439772812,
  "nonce": "0x4a7dfa070774ae34",
  "difficulty": 3870746154477,
  "gasLimit": {
    "_hex": "0x2fefd8"
  },
  "gasUsed": {
    "_hex": "0x5208"
  },
  "miner": "0x1a8E703197aCd1C0d3aB7ecD62dC01389F076E4b",
  "extraData": "0x476574682f76312e302e312f6c696e75782f676f312e342e32",
  "transactions": [
    {
      "hash": "0xe7a7166c9960e0bd34472cfc90f13d1b96bbde1a1da0a685c03b35c30534b72a",
      "blockHash": "0xb79994a99ecd8a8438cea0df27401a315d34f1ce85c10e4509d3343e930e932c",
      "blockNumber": 98443,
      "transactionIndex": 0,
      "confirmations": null,
      "from": "0x2910543Af39abA0Cd09dBb2D50200b3E800A63D2",
      "gasPrice": {
        "_hex": "0xdd5f2f124"
      },
      "gasLimit": {
        "_hex": "0x5208"
      },
      "to": "0x900755EB624662556E5c2A2467d2057790397545",
      "value": {
        "_hex": "0x2b5d1eb9d79a78000"
      },
      "nonce": 931,
      "data": "0x",
      "r": "0x399e13ddf19c7141c4461c94eb3fb2d1de151eb39da2989db329effced58bb61",
      "s": "0x3e345e1c8268eadad5796f50c2dc504417ffc6d11d16050f84616cd9c87a5551",
      "v": 28,
      "creates": null,
      "raw": "0xf86f8203a3850dd5f2f12482520894900755eb624662556e5c2a2467d20577903975458902b5d1eb9d79a78000801ca0399e13ddf19c7141c4461c94eb3fb2d1de151eb39da2989db329effced58bb61a03e345e1c8268eadad5796f50c2dc504417ffc6d11d16050f84616cd9c87a5551",
      "networkId": 0,
      "chainId": 0
    }
  ]
}