{
  "hash": "0x10aae9cdd877d87fa0a1eaeb07b51bad0899e00204f1bd0bc37005c7460ee6ac",
  "parentHash": "0xd4c0e8e9ad767dc4d85441176a0208fd4ca47102c367cd7e01d04e01611f8777",
  "number": 96419,
  "timestamp": 1439740142,
  "nonce": "0xef935652db1e65ad",
  "difficulty": 3662055149034,
  "gasLimit": {
    "_hex": "0x2fefd5"
  },
  "gasUsed": {
    "_hex": "0x5208"
  },
  "miner": "0x9Fa9952255B2b06639A04D63804d4BdFFf6E2d7e",
  "extraData": "0x476574682f76312e302e312f77696e646f77732f676f312e342e32",
  "transactions": [
    {
      "hash": "0x1d759b9054ce9c373d26c298d98421eab28ec6f7b606ef215862a8e8d4a5a744",
      "blockHash": "0x10aae9cdd877d87fa0a1eaeb07b51bad0899e00204f1bd0bc37005c7460ee6ac",
      "blockNumber": 96419,
      "transactionIndex": 0,
      "confirmations": null,
      "from": "0xA21Ba94e45f0E168dA824fC67aC9cb5Cb577a8aF",
      "gasPrice": {
        "_hex": "0x45d964b800"
      },
      "gasLimit": {
        "_hex": "0x5208"
      },
      "to": "0x56011d6b57A70c27F7cc294905A5DdA65BfBd154",
      "value": {
        "_hex": "0x3cb83b898fd388000"
      },
      "nonce": 12,
      "data": "0x",
      "r": "0x7ba95dbe9539349ff8bbadfaab83d48cdc1a022b251f20cb17522ac3daef4396",
      "s": "0x530a42bf5ad40199251a407c91a7f18cd6b001a3c232084da8f750a1c32dd0fb",
      "v": 28,
      "creates": null,
      "raw": "0xf86d0c8545d964b8008252089456011d6b57a70c27f7cc294905a5dda65bfbd1548903cb83b898fd388000801ca07ba95dbe9539349ff8bbadfaab83d48cdc1a022b251f20cb17522ac3daef4396a0530a42bf5ad40199251a407c91a7f18cd6b001a3c232084da8f750a1c32dd0fb",
      "networkId": 0,
      "chainId": 0
    }
  ]
}