{
  "hash": "0xd158c38dac39196446b608e96daaa3a007aedb5bdd9c5e8a9e8c6963f4ba95ff",
  "parentHash": "0xb3862ea590a78a8dafcc6062d198530bc74bf73a6a08a693450b59b6cc5086b1",
  "number": 47734,
  "timestamp": 1438945562,
  "nonce": "0x4cc34d099c3550b3",
  "difficulty": 1444542959727,
  "gasLimit": {
    "_hex": "0xeb55"
  },
  "gasUsed": {
    "_hex": "0x5208"
  },
  "miner": "0x3f113041D56Dda809a245Fe338832c2D373e7c80",
  "extraData": "0x476574682f76312e302e312f77696e646f77732f676f312e342e32",
  "transactions": [
    {
      "hash": "0x5e1c8304830780e0b2cef93990f13a2834d43cc2d69bffc3a55a2fe0d9554dad",
      "blockHash": "0xd158c38dac39196446b608e96daaa3a007aedb5bdd9c5e8a9e8c6963f4ba95ff",
      "blockNumber": 47734,
      "transactionIndex": 0,
      "confirmations": null,
      "from": "0xD79aFf13Ba2Da75d46240cAC0a2467C656949823",
      "gasPrice": {
        "_hex": "0x68c6171400"
      },
      "gasLimit": {
        "_hex": "0x5208"
      },
      "to": "0x217CC0cD81DADa7C89Ad3EFdADf04e399A3167E2",
      "value": {
        "_hex": "0x2b5e3af16b1880000"
      },
      "nonce": 5,
      "data": "0x",
      "r": "0x5a6ae398ef30dd2c04a1db65f4fde618b6d8626fa4db0e0df6d901ef45ec9d83",
      "s": "0x27d83b008f1cff7547bc89f5a6de8fa366373a43fc19687c6e2e8ac6a6652a84",
      "v": 28,
      "creates": null,
      "raw": "0xf86d058568c617140082520894217cc0cd81dada7c89ad3efdadf04e399a3167e28902b5e3af16b1880000801ca05a6ae398ef30dd2c04a1db65f4fde618b6d8626fa4db0e0df6d901ef45ec9d83a027d83b008f1cff7547bc89f5a6de8fa366373a43fc19687c6e2e8ac6a6652a84",
      "networkId": 0,
      "chainId": 0
    }
  ]
}