{
  "hash": "0xca0aa254c128217ad77a2a821ff4e56c675e5c42b9c6476da2914239fb403955",
  "parentHash": "0x20f7bc69ca19c023766e570d9c14ab9ce68bccb8c4c068da8670d7534d8a7d15",
  "number": 116286,
  "timestamp": 1440071533,
  "nonce": "0xbf015be656ba519c",
  "difficulty": 4593581941359,
  "gasLimit": {
    "_hex": "0x2fefd8"
  },
  "gasUsed": {
    "_hex": "0x5208"
  },
  "miner": "0xe6A7a1d47ff21B6321162AEA7C6CB457D5476Bca",
  "extraData": "0x476574682f76312e302e312d38326566323666362f6c696e75782f676f312e34",
  "transactions": [
    {
      "hash": "0x74ce0aa26528405196879e8b7984593d68bfbf283a67ef94f06427a296b97f04",
      "blockHash": "0xca0aa254c128217ad77a2a821ff4e56c675e5c42b9c6476da2914239fb403955",
      "blockNumber": 116286,
      "transactionIndex": 0,
      "confirmations": null,
      "from": "0x790b8a3cE86E707ED0eD32bF89B3269692a23CC1",
      "gasPrice": {
        "_hex": "0xd27232330"
      },
      "gasLimit": {
        "_hex": "0x15f90"
      },
      "to": "0x4D67f4F0Db45b3B5a3424B39ed8d972F710381D5",
      "value": {
        "_hex": "0x2f9e3fb2098f20000"
      },
      "nonce": 57,
      "data": "0x",
      "r": "0xd9d44956f92cbd71377ac6c87b2338ad993c92f24328d25daaf3bb0b5c53d3d3",
      "s": "0x0bb00a247feb95b70ab859618a8eccb9b0db33411345a1f9749450d5913ef5b7",
      "v": 28,
      "creates": null,
      "raw": "0xf86e39850d2723233083015f90944d67f4f0db45b3b5a3424b39ed8d972f710381d58902f9e3fb2098f20000801ca0d9d44956f92cbd71377ac6c87b2338ad993c92f24328d25daaf3bb0b5c53d3d3a00bb00a247feb95b70ab859618a8eccb9b0db33411345a1f9749450d5913ef5b7",
      "networkId": 0,
      "chainId": 0
    }
  ]
}