{
  "hash": "0xf75be00022de18045c175d1724a03b6051ef0738d78d374322e430377c49dfb8",
  "parentHash": "0xde1d71ddcdebd035c072ef5e676ad618c2e8431ef62d841b1f2db4bc9a1c5917",
  "number": 106285,
  "timestamp": 1439901709,
  "nonce": "0xfe21d4cc1f9e53f4",
  "difficulty": 4464097886189,
  "gasLimit": {
    "_hex": "0x2fefd8"
  },
  "gasUsed": {
    "_hex": "0x5208"
  },
  "miner": "0xe6A7a1d47ff21B6321162AEA7C6CB457D5476Bca",
  "extraData": "0x476574682f76312e302e312d38326566323666362f6c696e75782f676f312e34",
  "transactions": [
    {
      "hash": "0x5f9bf8985fafefe4ab6f7399f3853a6f462fef1f30336cada8869fb91a75831d",
      "blockHash": "0xf75be00022de18045c175d1724a03b6051ef0738d78d374322e430377c49dfb8",
      "blockNumber": 106285,
      "transactionIndex": 0,
      "confirmations": null,
      "from": "0x90FC537b210658660a83BAa9Ac4a8402f65746a8",
      "gasPrice": {
        "_hex": "0xd1f217cbf"
      },
      "gasLimit": {
        "_hex": "0x15f90"
      },
      "to": "0xDA8EB527657210FE1D6d014A23A483F5E19d942F",
      "value": {
        "_hex": "0x16345785d8a0000"
      },
      "nonce": 1,
      "data": "0x",
      "r": "0xb1a8cbaa6507e240de8db80ce41c1273c33c8266094111edbc35cab4983af2c3",
      "s": "0x1785e644cd2762456b1580723f05f798b721706f82af11712a25b22c09a2b358",
      "v": 28,
      "creates": null,
      "raw": "0xf86d01850d1f217cbf83015f9094da8eb527657210fe1d6d014a23a483f5e19d942f88016345785d8a0000801ca0b1a8cbaa6507e240de8db80ce41c1273c33c8266094111edbc35cab4983af2c3a01785e644cd2762456b1580723f05f798b721706f82af11712a25b22c09a2b358",
      "networkId": 0,
      "chainId": 0
    }
  ]
}