{
  "hash": "0x21ab4b48a26b5a0d109988f00311e26d812645a19b0f51d39c32c88798f42b39",
  "parentHash": "0x6fbab589a3b5a6d054c94169e1267da611dcd9ef547645ac5833528eab08436a",
  "number": 47318,
  "timestamp": 1438938058,
  "nonce": "0x45496081b5d46752",
  "difficulty": 1453103984225,
  "gasLimit": {
    "_hex": "0xb03e"
  },
  "gasUsed": {
    "_hex": "0xa410"
  },
  "miner": "0xa50ec0D39fa913E62f1Bae7074E6F36caA71855b",
  "extraData": "0x476574682f76312e302e302f6c696e75782f676f312e342e32",
  "transactions": [
    {
      "hash": "0x35b2b751b1680f4ad33c654554fa666e18e007e32ff4dd20c1688ac13151d557",
      "blockHash": "0x21ab4b48a26b5a0d109988f00311e26d812645a19b0f51d39c32c88798f42b39",
      "blockNumber": 47318,
      "transactionIndex": 0,
      "confirmations": null,
      "from": "0x3E4FbD661015f6461ed6735CefeF01F31445De3a",
      "gasPrice": {
        "_hex": "0x8bb2c97000"
      },
      "gasLimit": {
        "_hex": "0x5208"
      },
      "to": "0x53dAc344f48a004729edB5A2aB8900893B904783",
      "value": {
        "_hex": "0xd2f13f7789f0000"
      },
      "nonce": 2,
      "data": "0x",
      "r": "0xf9cfc5a180456fae7b5d58ab39880fa243d5dcaa2f7c93a1cfbcd36a0a0523cc",
      "s": "0x2cdc885904232a4876e996843120a2cd76e767177416766879826e924d56d30a",
      "v": 27,
      "creates": null,
      "raw": "0xf86c02858bb2c970008252089453dac344f48a004729edb5a2ab8900893b904783880d2f13f7789f0000801ba0f9cfc5a180456fae7b5d58ab39880fa243d5dcaa2f7c93a1cfbcd36a0a0523cca02cdc885904232a4876e996843120a2cd76e767177416766879826e924d56d30a",
      "networkId": 0,
      "chainId": 0
    },
    {
      "hash": "0x485b665a5420f9a4cdb04dcab5fd90e46e2b124990594cfc2d2da9a2c708d1fc",
      "blockHash": "0x21ab4b48a26b5a0d109988f00311e26d812645a19b0f51d39c32c88798f42b39",
      "blockNumber": 47318,
      "transactionIndex": 1,
      "confirmations": null,
      "from": "0x53dAc344f48a004729edB5A2aB8900893B904783",
      "gasPrice": {
        "_hex": "0xf7e1ff807"
      },
      "gasLimit": {
        "_hex": "0x5208"
      },
      "to": "0x32Be343B94f860124dC4fEe278FDCBD38C102D88",
      "value": {
        "_hex": "0x36e1863346f7b000000"
      },
      "nonce": 1,
      "data": "0x",
      "r": "0x054d81dc00a909764537665bc88a93d6a3253210d2b39862df40a743c10c548d",
      "s": "0x1b3d30e744ec044246874def92fe1b8b56826eb0ec4a2ca15eaf896530354b42",
      "v": 27,
      "creates": null,
      "raw": "0xf86e01850f7e1ff8078252089432be343b94f860124dc4fee278fdcbd38c102d888a036e1863346f7b000000801ba0054d81dc00a909764537665bc88a93d6a3253210d2b39862df40a743c10c548da01b3d30e744ec044246874def92fe1b8b56826eb0ec4a2ca15eaf896530354b42",
      "networkId": 0,
      "chainId": 0
    }
  ]
}